{
  "_format": "hh-sol-artifact-1",
  "contractName": "RedstoneDataBridge",
  "sourceName": "contracts/Peripheral/DataBridges/real/RedstoneDataBridge.sol",
  "abi": [
    {
      "inputs": [
        {
          "internalType": "address",
          "name": "_adapter",
          "type": "address"
        },
        {
          "internalType": "address",
          "name": "_aliasRegistry",
          "type": "address"
        }
      ],
      "stateMutability": "nonpayable",
      "type": "constructor"
    },
    {
      "inputs": [],
      "name": "adapter",
      "outputs": [
        {
          "internalType": "address",
          "name": "",
          "type": "address"
        }
      ],
      "stateMutability": "view",
      "type": "function"
    },
    {
      "inputs": [],
      "name": "aliasRegistry",
      "outputs": [
        {
          "internalType": "address",
          "name": "",
          "type": "address"
        }
      ],
      "stateMutability": "view",
      "type": "function"
    },
    {
      "inputs": [
        {
          "components": [
            {
              "internalType": "address",
              "name": "asset0",
              "type": "address"
            },
            {
              "internalType": "address",
              "name": "asset1",
              "type": "address"
            },
            {
              "internalType": "address",
              "name": "quoter",
              "type": "address"
            },
            {
              "internalType": "uint256",
              "name": "amount",
              "type": "uint256"
            },
            {
              "internalType": "uint128",
              "name": "asset0Balance",
              "type": "uint128"
            },
            {
              "internalType": "uint128",
              "name": "asset1Balance",
              "type": "uint128"
            },
            {
              "internalType": "uint16",
              "name": "bucketID",
              "type": "uint16"
            },
            {
              "internalType": "bool",
              "name": "zeroForOne",
              "type": "bool"
            }
          ],
          "internalType": "struct QuoteParams",
          "name": "params",
          "type": "tuple"
        }
      ],
      "name": "getData",
      "outputs": [
        {
          "internalType": "bytes",
          "name": "",
          "type": "bytes"
        }
      ],
      "stateMutability": "view",
      "type": "function"
    }
  ],
  "bytecode": "0x60c03461008757601f6105f438819003918201601f19168301916001600160401b0383118484101761008b57808492604094855283398101031261008757610052602061004b8361009f565b920161009f565b9060805260a05260405161054090816100b4823960805181818161021401526104a3015260a051818181605201526101730152f35b5f80fd5b634e487b7160e01b5f52604160045260245ffd5b51906001600160a01b03821682036100875756fe6080806040526004361015610012575f80fd5b5f3560e01c90816303eadcfc14610491575080633bd1104b146100855763516fd9a71461003d575f80fd5b34610081575f366003190112610081576040517f00000000000000000000000000000000000000000000000000000000000000006001600160a01b03168152602090f35b5f80fd5b346100815761010036600319011261008157604051610100810181811067ffffffffffffffff82111761047d576040526004356001600160a01b0381169190828103610081578152602435906001600160a01b038216820361008157602081019182526044356001600160a01b038116810361008157604082015260643560608201526084356001600160801b038116810361008157608082015260a4356001600160801b03811681036100815760a082015260c43561ffff811681036100815760c082015260e4359081151582036100815760e00152604051636fbd6cdf60e11b815260048101929092527f00000000000000000000000000000000000000000000000000000000000000006001600160a01b031690602083602481855afa9283156103a6575f93610448575b5051604051636fbd6cdf60e11b81526001600160a01b03909116600482015290602090829060249082905afa9081156103a6575f91610416575b508115158061040d575b156103d757604080516301a610e560e61b815260048101939093527f00000000000000000000000000000000000000000000000000000000000000006001600160a01b03169083602481845afa9182156103a6575f935f936103b1575b5060409060248251809481936301a610e560e61b835260048301525afa9182156103a6575f915f93610373575b50831580158061036a575b1561033957670de0b6b3a76400008502948504670de0b6b3a7640000141715610325578115610311576040928082101561030a57505b8251916020830194048452828201528181526102df6060826104d2565b8151928391602083525180918160208501528484015e5f828201840152601f01601f19168101030190f35b90506102c2565b634e487b7160e01b5f52601260045260245ffd5b634e487b7160e01b5f52601160045260245ffd5b60405162461bcd60e51b815260206004820152600960248201526862616420707269636560b81b6044820152606490fd5b5082151561028c565b909250610398915060403d60401161039f575b61039081836104d2565b8101906104f4565b9184610281565b503d610386565b6040513d5f823e3d90fd5b60408095506103cd9294503d861161039f5761039081836104d2565b9390939290610254565b60405162461bcd60e51b815260206004820152600e60248201526d666565644964206d697373696e6760901b6044820152606490fd5b508015156101f7565b90506020813d602011610440575b81610431602093836104d2565b810103126100815751826101ed565b3d9150610424565b9092506020813d602011610475575b81610464602093836104d2565b8101031261008157519160206101b3565b3d9150610457565b634e487b7160e01b5f52604160045260245ffd5b34610081575f366003190112610081577f00000000000000000000000000000000000000000000000000000000000000006001600160a01b03168152602090f35b90601f8019910116810190811067ffffffffffffffff82111761047d57604052565b919082604091031261008157602082519201519056fea264697066735822122048312482b4371e2010d525feb36971e691b0560a8a1d48d59bee10e60d294cba64736f6c634300081e0033",
  "linkReferences": {},
  "deployedLinkReferences": {}
}