{
  "_format": "hh-sol-artifact-1",
  "contractName": "RedstoneDataBridge",
  "sourceName": "contracts/Peripheral/DataBridges/real/RedstoneDataBridge.sol",
  "abi": [
    {
      "inputs": [
        {
          "internalType": "address",
          "name": "_adapter",
          "type": "address"
        },
        {
          "internalType": "address",
          "name": "_aliasRegistry",
          "type": "address"
        }
      ],
      "stateMutability": "nonpayable",
      "type": "constructor"
    },
    {
      "inputs": [],
      "name": "RedstoneDataBridge__BadPrice",
      "type": "error"
    },
    {
      "inputs": [],
      "name": "RedstoneDataBridge__FeedIdMissing",
      "type": "error"
    },
    {
      "inputs": [],
      "name": "adapter",
      "outputs": [
        {
          "internalType": "address",
          "name": "",
          "type": "address"
        }
      ],
      "stateMutability": "view",
      "type": "function"
    },
    {
      "inputs": [],
      "name": "aliasRegistry",
      "outputs": [
        {
          "internalType": "address",
          "name": "",
          "type": "address"
        }
      ],
      "stateMutability": "view",
      "type": "function"
    },
    {
      "inputs": [
        {
          "components": [
            {
              "internalType": "address",
              "name": "asset0",
              "type": "address"
            },
            {
              "internalType": "address",
              "name": "asset1",
              "type": "address"
            },
            {
              "internalType": "address",
              "name": "quoter",
              "type": "address"
            },
            {
              "internalType": "uint256",
              "name": "amount",
              "type": "uint256"
            },
            {
              "internalType": "uint128",
              "name": "asset0Balance",
              "type": "uint128"
            },
            {
              "internalType": "uint128",
              "name": "asset1Balance",
              "type": "uint128"
            },
            {
              "internalType": "uint16",
              "name": "bucketID",
              "type": "uint16"
            },
            {
              "internalType": "bool",
              "name": "zeroForOne",
              "type": "bool"
            }
          ],
          "internalType": "struct QuoteParams",
          "name": "params",
          "type": "tuple"
        }
      ],
      "name": "getData",
      "outputs": [
        {
          "internalType": "bytes",
          "name": "",
          "type": "bytes"
        }
      ],
      "stateMutability": "view",
      "type": "function"
    }
  ],
  "bytecode": "0x60c03461008757601f6105ab38819003918201601f19168301916001600160401b0383118484101761008b57808492604094855283398101031261008757610052602061004b8361009f565b920161009f565b9060805260a0526040516104f790816100b48239608051818181610214015261045a015260a051818181605201526101730152f35b5f80fd5b634e487b7160e01b5f52604160045260245ffd5b51906001600160a01b03821682036100875756fe6080806040526004361015610012575f80fd5b5f3560e01c90816303eadcfc14610448575080633bd1104b146100855763516fd9a71461003d575f80fd5b34610081575f366003190112610081576040517f00000000000000000000000000000000000000000000000000000000000000006001600160a01b03168152602090f35b5f80fd5b346100815761010036600319011261008157604051610100810181811067ffffffffffffffff821117610434576040526004356001600160a01b0381169190828103610081578152602435906001600160a01b038216820361008157602081019182526044356001600160a01b038116810361008157604082015260643560608201526084356001600160801b038116810361008157608082015260a4356001600160801b03811681036100815760a082015260c43561ffff811681036100815760c082015260e4359081151582036100815760e00152604051636fbd6cdf60e11b815260048101929092527f00000000000000000000000000000000000000000000000000000000000000006001600160a01b031690602083602481855afa928315610384575f936103ff575b5051604051636fbd6cdf60e11b81526001600160a01b03909116600482015290602090829060249082905afa908115610384575f916103cd575b50811515806103c4575b156103b557604080516301a610e560e61b815260048101939093527f00000000000000000000000000000000000000000000000000000000000000006001600160a01b03169083602481845afa918215610384575f935f9361038f575b5060409060248251809481936301a610e560e61b835260048301525afa918215610384575f915f93610351575b508315801580610348575b1561033957670de0b6b3a76400008502948504670de0b6b3a7640000141715610325578115610311576040928082101561030a57505b8251916020830194048452828201528181526102df606082610489565b8151928391602083525180918160208501528484015e5f828201840152601f01601f19168101030190f35b90506102c2565b634e487b7160e01b5f52601260045260245ffd5b634e487b7160e01b5f52601160045260245ffd5b6310fee51960e21b5f5260045ffd5b5082151561028c565b909250610376915060403d60401161037d575b61036e8183610489565b8101906104ab565b9184610281565b503d610364565b6040513d5f823e3d90fd5b60408095506103ab9294503d861161037d5761036e8183610489565b9390939290610254565b63016881e160e71b5f5260045ffd5b508015156101f7565b90506020813d6020116103f7575b816103e860209383610489565b810103126100815751826101ed565b3d91506103db565b9092506020813d60201161042c575b8161041b60209383610489565b8101031261008157519160206101b3565b3d915061040e565b634e487b7160e01b5f52604160045260245ffd5b34610081575f366003190112610081577f00000000000000000000000000000000000000000000000000000000000000006001600160a01b03168152602090f35b90601f8019910116810190811067ffffffffffffffff82111761043457604052565b919082604091031261008157602082519201519056fea2646970667358221220b72e30912a8293b730a33f71a9a351526556a68328aa85e88359a772170fde4e64736f6c634300081e0033",
  "linkReferences": {},
  "deployedLinkReferences": {}
}