{
  "_format": "hh-sol-artifact-1",
  "contractName": "MEVProtection",
  "sourceName": "contracts/Core/security/MEVProtection.sol",
  "abi": [
    {
      "inputs": [
        {
          "internalType": "address",
          "name": "_poolManager",
          "type": "address"
        }
      ],
      "stateMutability": "nonpayable",
      "type": "constructor"
    },
    {
      "anonymous": false,
      "inputs": [
        {
          "indexed": true,
          "internalType": "uint256",
          "name": "poolId",
          "type": "uint256"
        },
        {
          "indexed": false,
          "internalType": "uint256",
          "name": "baseFee",
          "type": "uint256"
        },
        {
          "indexed": false,
          "internalType": "uint256",
          "name": "surgeFee",
          "type": "uint256"
        },
        {
          "indexed": false,
          "internalType": "uint256",
          "name": "totalFee",
          "type": "uint256"
        }
      ],
      "name": "DynamicFeeApplied",
      "type": "event"
    },
    {
      "anonymous": false,
      "inputs": [
        {
          "indexed": true,
          "internalType": "uint256",
          "name": "poolId",
          "type": "uint256"
        },
        {
          "indexed": true,
          "internalType": "uint256",
          "name": "orderId",
          "type": "uint256"
        },
        {
          "indexed": false,
          "internalType": "uint256",
          "name": "startPrice",
          "type": "uint256"
        },
        {
          "indexed": false,
          "internalType": "uint256",
          "name": "endPrice",
          "type": "uint256"
        }
      ],
      "name": "GradualOrderCreated",
      "type": "event"
    },
    {
      "anonymous": false,
      "inputs": [
        {
          "indexed": true,
          "internalType": "uint256",
          "name": "poolId",
          "type": "uint256"
        },
        {
          "indexed": false,
          "internalType": "uint8",
          "name": "protectionLevel",
          "type": "uint8"
        },
        {
          "indexed": false,
          "internalType": "uint256",
          "name": "threshold",
          "type": "uint256"
        },
        {
          "indexed": false,
          "internalType": "string",
          "name": "description",
          "type": "string"
        }
      ],
      "name": "MEVConfigSet",
      "type": "event"
    },
    {
      "anonymous": false,
      "inputs": [
        {
          "indexed": true,
          "internalType": "uint256",
          "name": "poolId",
          "type": "uint256"
        },
        {
          "indexed": true,
          "internalType": "address",
          "name": "suspectedAttacker",
          "type": "address"
        },
        {
          "indexed": false,
          "internalType": "uint256",
          "name": "suspicionScore",
          "type": "uint256"
        }
      ],
      "name": "SandwichAttackDetected",
      "type": "event"
    },
    {
      "anonymous": false,
      "inputs": [
        {
          "indexed": true,
          "internalType": "uint256",
          "name": "poolId",
          "type": "uint256"
        },
        {
          "indexed": true,
          "internalType": "address",
          "name": "trader",
          "type": "address"
        },
        {
          "indexed": false,
          "internalType": "bytes32",
          "name": "commitHash",
          "type": "bytes32"
        },
        {
          "indexed": false,
          "internalType": "uint256",
          "name": "revealDeadline",
          "type": "uint256"
        }
      ],
      "name": "TradeCommitted",
      "type": "event"
    },
    {
      "anonymous": false,
      "inputs": [
        {
          "indexed": true,
          "internalType": "uint256",
          "name": "poolId",
          "type": "uint256"
        },
        {
          "indexed": true,
          "internalType": "address",
          "name": "trader",
          "type": "address"
        },
        {
          "indexed": false,
          "internalType": "uint256",
          "name": "amountIn",
          "type": "uint256"
        },
        {
          "indexed": false,
          "internalType": "uint256",
          "name": "amountOut",
          "type": "uint256"
        }
      ],
      "name": "TradeRevealed",
      "type": "event"
    },
    {
      "inputs": [
        {
          "internalType": "uint256",
          "name": "poolId",
          "type": "uint256"
        },
        {
          "internalType": "address",
          "name": "trader",
          "type": "address"
        }
      ],
      "name": "canTrade",
      "outputs": [
        {
          "internalType": "bool",
          "name": "allowed",
          "type": "bool"
        },
        {
          "internalType": "uint256",
          "name": "timeRemaining",
          "type": "uint256"
        }
      ],
      "stateMutability": "view",
      "type": "function"
    },
    {
      "inputs": [
        {
          "internalType": "uint256",
          "name": "poolId",
          "type": "uint256"
        },
        {
          "internalType": "address",
          "name": "trader",
          "type": "address"
        },
        {
          "internalType": "uint256",
          "name": "amountIn",
          "type": "uint256"
        },
        {
          "internalType": "bool",
          "name": "isLargeTrade",
          "type": "bool"
        }
      ],
      "name": "checkTradeProtection",
      "outputs": [
        {
          "internalType": "bool",
          "name": "needsProtection",
          "type": "bool"
        },
        {
          "internalType": "uint8",
          "name": "protectionType",
          "type": "uint8"
        },
        {
          "internalType": "uint256",
          "name": "adjustedFee",
          "type": "uint256"
        }
      ],
      "stateMutability": "view",
      "type": "function"
    },
    {
      "inputs": [
        {
          "internalType": "uint256",
          "name": "poolId",
          "type": "uint256"
        },
        {
          "internalType": "bytes32",
          "name": "commitHash",
          "type": "bytes32"
        }
      ],
      "name": "commitTrade",
      "outputs": [
        {
          "internalType": "uint256",
          "name": "revealDeadline",
          "type": "uint256"
        }
      ],
      "stateMutability": "nonpayable",
      "type": "function"
    },
    {
      "inputs": [
        {
          "internalType": "uint256",
          "name": "",
          "type": "uint256"
        },
        {
          "internalType": "address",
          "name": "",
          "type": "address"
        }
      ],
      "name": "commitments",
      "outputs": [
        {
          "internalType": "bytes32",
          "name": "commitHash",
          "type": "bytes32"
        },
        {
          "internalType": "uint256",
          "name": "commitBlock",
          "type": "uint256"
        },
        {
          "internalType": "address",
          "name": "trader",
          "type": "address"
        },
        {
          "internalType": "uint256",
          "name": "deadline",
          "type": "uint256"
        }
      ],
      "stateMutability": "view",
      "type": "function"
    },
    {
      "inputs": [
        {
          "internalType": "uint256",
          "name": "poolId",
          "type": "uint256"
        },
        {
          "internalType": "uint8",
          "name": "level",
          "type": "uint8"
        },
        {
          "internalType": "uint256",
          "name": "threshold",
          "type": "uint256"
        }
      ],
      "name": "configurePoolProtection",
      "outputs": [],
      "stateMutability": "nonpayable",
      "type": "function"
    },
    {
      "inputs": [
        {
          "internalType": "uint256",
          "name": "poolId",
          "type": "uint256"
        },
        {
          "internalType": "uint256",
          "name": "amountIn",
          "type": "uint256"
        },
        {
          "internalType": "uint256",
          "name": "startPrice",
          "type": "uint256"
        },
        {
          "internalType": "uint256",
          "name": "endPrice",
          "type": "uint256"
        }
      ],
      "name": "createGradualOrder",
      "outputs": [
        {
          "internalType": "uint256",
          "name": "orderId",
          "type": "uint256"
        }
      ],
      "stateMutability": "nonpayable",
      "type": "function"
    },
    {
      "inputs": [
        {
          "internalType": "uint256",
          "name": "poolId",
          "type": "uint256"
        },
        {
          "internalType": "address",
          "name": "trader",
          "type": "address"
        },
        {
          "internalType": "uint256",
          "name": "amountIn",
          "type": "uint256"
        },
        {
          "internalType": "bool",
          "name": "isBuy",
          "type": "bool"
        }
      ],
      "name": "detectSandwichPattern",
      "outputs": [
        {
          "internalType": "bool",
          "name": "suspected",
          "type": "bool"
        }
      ],
      "stateMutability": "nonpayable",
      "type": "function"
    },
    {
      "inputs": [
        {
          "internalType": "uint256",
          "name": "poolId",
          "type": "uint256"
        },
        {
          "internalType": "uint256",
          "name": "orderId",
          "type": "uint256"
        }
      ],
      "name": "getCurrentGradualPrice",
      "outputs": [
        {
          "internalType": "uint256",
          "name": "currentPrice",
          "type": "uint256"
        }
      ],
      "stateMutability": "view",
      "type": "function"
    },
    {
      "inputs": [
        {
          "internalType": "uint256",
          "name": "poolId",
          "type": "uint256"
        }
      ],
      "name": "getPoolMEVConfig",
      "outputs": [
        {
          "internalType": "uint8",
          "name": "protectionLevel",
          "type": "uint8"
        },
        {
          "internalType": "string",
          "name": "description",
          "type": "string"
        },
        {
          "internalType": "uint256",
          "name": "estimatedGasOverhead",
          "type": "uint256"
        },
        {
          "internalType": "uint256",
          "name": "currentFee",
          "type": "uint256"
        }
      ],
      "stateMutability": "view",
      "type": "function"
    },
    {
      "inputs": [
        {
          "internalType": "uint256",
          "name": "",
          "type": "uint256"
        },
        {
          "internalType": "uint256",
          "name": "",
          "type": "uint256"
        }
      ],
      "name": "gradualOrders",
      "outputs": [
        {
          "internalType": "uint256",
          "name": "startPrice",
          "type": "uint256"
        },
        {
          "internalType": "uint256",
          "name": "endPrice",
          "type": "uint256"
        },
        {
          "internalType": "uint256",
          "name": "startBlock",
          "type": "uint256"
        },
        {
          "internalType": "uint256",
          "name": "endBlock",
          "type": "uint256"
        },
        {
          "internalType": "uint256",
          "name": "amountRemaining",
          "type": "uint256"
        }
      ],
      "stateMutability": "view",
      "type": "function"
    },
    {
      "inputs": [
        {
          "internalType": "uint256",
          "name": "poolId",
          "type": "uint256"
        }
      ],
      "name": "hasProtection",
      "outputs": [
        {
          "internalType": "bool",
          "name": "",
          "type": "bool"
        }
      ],
      "stateMutability": "view",
      "type": "function"
    },
    {
      "inputs": [
        {
          "internalType": "uint256",
          "name": "poolId",
          "type": "uint256"
        },
        {
          "internalType": "address",
          "name": "trader",
          "type": "address"
        }
      ],
      "name": "isWhitelisted",
      "outputs": [
        {
          "internalType": "bool",
          "name": "",
          "type": "bool"
        }
      ],
      "stateMutability": "view",
      "type": "function"
    },
    {
      "inputs": [],
      "name": "nextOrderId",
      "outputs": [
        {
          "internalType": "uint256",
          "name": "",
          "type": "uint256"
        }
      ],
      "stateMutability": "view",
      "type": "function"
    },
    {
      "inputs": [
        {
          "internalType": "uint256",
          "name": "",
          "type": "uint256"
        }
      ],
      "name": "poolConfigs",
      "outputs": [
        {
          "internalType": "uint8",
          "name": "protectionLevel",
          "type": "uint8"
        },
        {
          "internalType": "uint256",
          "name": "largeTradeThreshold",
          "type": "uint256"
        },
        {
          "internalType": "uint256",
          "name": "baseFee",
          "type": "uint256"
        },
        {
          "internalType": "uint256",
          "name": "surgeFee",
          "type": "uint256"
        },
        {
          "internalType": "uint256",
          "name": "commitRevealDelay",
          "type": "uint256"
        },
        {
          "internalType": "uint256",
          "name": "gradualFillBlocks",
          "type": "uint256"
        },
        {
          "internalType": "uint256",
          "name": "timeLockPeriod",
          "type": "uint256"
        }
      ],
      "stateMutability": "view",
      "type": "function"
    },
    {
      "inputs": [],
      "name": "poolManager",
      "outputs": [
        {
          "internalType": "address",
          "name": "",
          "type": "address"
        }
      ],
      "stateMutability": "view",
      "type": "function"
    },
    {
      "inputs": [
        {
          "internalType": "uint256",
          "name": "poolId",
          "type": "uint256"
        },
        {
          "internalType": "uint256",
          "name": "baseFee",
          "type": "uint256"
        },
        {
          "internalType": "uint256",
          "name": "surgeFee",
          "type": "uint256"
        },
        {
          "internalType": "uint256",
          "name": "commitDelay",
          "type": "uint256"
        },
        {
          "internalType": "uint256",
          "name": "gradualBlocks",
          "type": "uint256"
        },
        {
          "internalType": "uint256",
          "name": "timeLock",
          "type": "uint256"
        }
      ],
      "name": "setCustomParameters",
      "outputs": [],
      "stateMutability": "nonpayable",
      "type": "function"
    },
    {
      "inputs": [
        {
          "internalType": "uint256",
          "name": "poolId",
          "type": "uint256"
        },
        {
          "internalType": "address[]",
          "name": "addresses",
          "type": "address[]"
        },
        {
          "internalType": "bool",
          "name": "add",
          "type": "bool"
        }
      ],
      "name": "updateWhitelist",
      "outputs": [],
      "stateMutability": "nonpayable",
      "type": "function"
    },
    {
      "inputs": [
        {
          "internalType": "uint256",
          "name": "poolId",
          "type": "uint256"
        },
        {
          "internalType": "address",
          "name": "trader",
          "type": "address"
        },
        {
          "internalType": "uint256",
          "name": "amountIn",
          "type": "uint256"
        },
        {
          "internalType": "bool",
          "name": "zeroForOne",
          "type": "bool"
        },
        {
          "internalType": "uint256",
          "name": "minAmountOut",
          "type": "uint256"
        },
        {
          "internalType": "uint256",
          "name": "nonce",
          "type": "uint256"
        }
      ],
      "name": "verifyAndReveal",
      "outputs": [
        {
          "internalType": "bool",
          "name": "valid",
          "type": "bool"
        }
      ],
      "stateMutability": "view",
      "type": "function"
    }
  ],
  "bytecode": "0x60a03461008657601f611a2238819003918201601f19168301916001600160401b0383118484101761008a5780849260209460405283398101031261008657516001600160a01b038116810361008657608052604051611983908161009f82396080518181816101c1015281816102060152818161046501528181610a7c0152610d720152f35b5f80fd5b634e487b7160e01b5f52604160045260245ffdfe60806040526004361015610011575f80fd5b5f3560e01c806303bf6a7214610f595780630f5ba21714610eec5780632a58b33014610ecf578063301e3ecb14610d0d57806353ec34a414610b3b578063560903e514610b0d5780636e45f43814610a565780637d22c35c14610a2657806387184999146107385780639326b63314610704578063951b70a3146105335780639cbe6cd11461040e578063a8cc4f6e146103d8578063ab17e604146103b7578063d96edd2d146101f0578063dc4c90d3146101ac578063e90d4c061461013e5763f552771a146100df575f80fd5b3461013a576100ed36611127565b905f52600260205260405f20905f5260205260a060405f20805490600181015490600281015460046003830154920154926040519485526020850152604084015260608301526080820152f35b5f80fd5b3461013a57604036600319011261013a576101576110b6565b6004355f52600160205260405f209060018060a01b03165f52602052608060405f20805490600181015490600360018060a01b0360028301541691015491604051938452602084015260408301526060820152f35b3461013a575f36600319011261013a576040517f00000000000000000000000000000000000000000000000000000000000000006001600160a01b03168152602090f35b3461013a576101fe366110f0565b5091610234337f00000000000000000000000000000000000000000000000000000000000000006001600160a01b0316146111b4565b805f52600460205260405f2092600384019360018060a01b0384165f5284602052601e61026560405f205442611326565b1061039f575b60018101948554431480610382575b61036a575b815492600984029380850460091490151715610340576102a3600a9160029561120b565b04825543865560018060a01b0385165f5260205260405f204290550180549384159081159081610354575b5061032e575b506020935054906005821192836102f1575b505050604051908152f35b6040519283526001600160a01b0316917f1ca8130a6ac08a7d79eff185ffd91619a3aada50d0cddb4f870b4da14f0f8a4e908590a38280806102e6565b610340576020935f19018155846102d4565b634e487b7160e01b5f52601160045260245ffd5b905054600a8101809111610340574311866102ce565b6002820180549060028201809211610340575561027f565b5081548060011b908082046002149015171561034057831161027a565b6002810180549060038201809211610340575561026b565b3461013a5760206103d06103ca36611127565b90611706565b604051908152f35b3461013a57606060ff6103f66103ed366110f0565b9290915061144e565b91929060405193151584521660208301526040820152f35b3461013a57606036600319011261013a5760043560243560ff81169081810361013a577fc13b7d179e63fcf1dac77ebeda85633a8f31fdf01f64f4b859ba8d972fa0d99491604435916104f6906104d890610493337f00000000000000000000000000000000000000000000000000000000000000006001600160a01b0316146111b4565b865f525f60205260405f208460ff1982541617815585600182015560088216610520575b60018216610514575b60028216610508575b601082166104fb575b506117e0565b604051938493845260208401526060604084015260608301906110cc565b0390a2005b6006600c910155876104d2565b600a60058201556104c9565b600260048201556104c0565b601e6002820155606460038201556104b7565b3461013a57608036600319011261013a5760043560443560643590825f525f60205260405f209260405161056681611159565b60ff855416815260018501546020820152600285015460408201526003850154606082015260048501546080820152600760058601549560a08301968752600681015460c0840152016040519081602082549182815201915f5260205f20905f5b8181106106e557505050906105e181600294930382611192565b60e08201525116156106a057600354925f19841461034057604084937fc6884dfc09d2ce5a94ac723ee6fceb32cb0146ae00f6ec6670c8efbf8afc3a639261063360209860018801600355514361120b565b600484519161064183611176565b8483528a83019084825286840143815260608501918252608085019260243584528a5f5260028e52885f208c5f528e52885f209551865551600186015551600285015551600384015551910155825191825287820152a3604051908152f35b60405162461bcd60e51b815260206004820152601d60248201527f4d45563a204772616475616c2066696c6c206e6f7420656e61626c65640000006044820152606490fd5b82546001600160a01b03168452602090930192600192830192016105c7565b3461013a57604036600319011261013a57604061072a6107226110b6565b600435611333565b825191151582526020820152f35b3461013a57602036600319011261013a57600435805f525f60205260405f209060076040519261076784611159565b60ff815416845260018101546020850152600281015460408501526003810154606085015260048101546080850152600581015460a0850152600681015460c085015201604051808260208294549384815201905f5260205f20925f5b818110610a045750506107d992500382611192565b60e083015260ff825116906107ed826117e0565b9251905f91600181166109fa575b600281166109e7575b600481166109d4575b600881166109c1575b6010166109ae575b805f525f60205260405f20906040519061083782611159565b60ff8354168252600183015460208301526002830154916040810192835260076003850154946060830195865260048101546080840152600581015460a0840152600681015460c0840152019060405180928391602082549182815201915f5260205f20905f5b81811061098c5750505060e092916108b7910384611192565b01525f52600460205260405f2090516108d4600183015443611326565b6003811015610963575082516108e99161120b565b91600560028301541161094c575b505b5415801561092e575b5061091f60405194859485526080602086015260808501906110cc565b91604084015260608301520390f35b610938575f610902565b634e487b7160e01b5f52601260045260245ffd5b9161095c91925160011c9061120b565b90856108f7565b600a9093919310610975575b506108f9565b9161098591925160011c9061120b565b908561096f565b82546001600160a01b031684528694506020909301926001928301920161089e565b906113888101809111610340579061081e565b91614e2081018091116103405791610816565b916127108101809111610340579161080d565b9161753081018091116103405791610804565b61c35092506107fb565b84546001600160a01b03168352600194850194869450602090930192016107c4565b3461013a57604036600319011261013a576020610a4c610a446110b6565b600435611218565b6040519015158152f35b3461013a5760c036600319011261013a5760a435602435608435606435604435610aaa337f00000000000000000000000000000000000000000000000000000000000000006001600160a01b0316146111b4565b6004355f525f60205260405f209380610b02575b5080610af7575b5080610aec575b5080610ae1575b5081610adb57005b60060155005b600582015582610ad3565b600483015583610acc565b600384015584610ac5565b600285015585610abe565b3461013a57602036600319011261013a576004355f525f602052602060ff60405f2054161515604051908152f35b3461013a57604036600319011261013a5760043560243590805f525f60205260405f2091604051610b6b81611159565b60ff8454168152600184015460208201526002840154604082015260038401546060820152600760048501549460808301958652600581015460a0840152600681015460c0840152016040519081602082549182815201915f5260205f20905f5b818110610cee5750505090610be681600194930382611192565b60e0820152511615610ca957610bff602093514361120b565b91604051610c0c8161113d565b8281526003858201438152604083013381526060840191878352855f526001895260405f2060018060a01b0333165f52895260405f2094518555516001850155600284019060018060a01b039051166001600160601b0360a01b8254161790555191015560405191825282848301527f82a0efb21693770bfe3ce1da032668e19071f947bbbcf1c98492c144997d81ac60403393a3604051908152f35b60405162461bcd60e51b815260206004820152601e60248201527f4d45563a20436f6d6d69742d72657665616c206e6f7420656e61626c656400006044820152606490fd5b82546001600160a01b0316845260209093019260019283019201610bcc565b3461013a57606036600319011261013a5760243567ffffffffffffffff811161013a573660238201121561013a5780600401359067ffffffffffffffff821161013a573660248360051b8301011161013a5760443590811515820361013a57610da0337f00000000000000000000000000000000000000000000000000000000000000006001600160a01b0316146111b4565b6004355f525f60205260405f2091600483541615610e8a5715610e5a5760075f939201925b82811015610e58576024600582901b830101356001600160a01b038116919082900361013a5784549168010000000000000000831015610e445760018301808755831015610e3057600192865f5260205f2001906001600160601b0360a01b82541617905501610dc5565b634e487b7160e01b5f52603260045260245ffd5b634e487b7160e01b5f52604160045260245ffd5b005b5060070180545f8255915081610e6c57005b5f5260205f20908101905b81811015610e58575f8155600101610e77565b60405162461bcd60e51b815260206004820152601760248201527f4d45563a204e6f742061207072697661746520706f6f6c0000000000000000006044820152606490fd5b3461013a575f36600319011261013a576020600354604051908152f35b3461013a57602036600319011261013a576004355f525f60205260e060405f2060ff81541690600181015490600281015460038201546004830154916006600585015494015494604051968752602087015260408601526060850152608084015260a083015260c0820152f35b3461013a5760c036600319011261013a57600435610f756110b6565b6064359182151580930361013a57805f52600160205260405f2060018060a01b0383165f5260205260405f209160405192610faf8461113d565b8054845260018101546020850181905260028201546001600160a01b0316604086015260039091015460608501908152904311156110805751431161104b57602093604051918583019384526001600160601b03199060601b166040830152604435605483015260f81b6074820152608435607582015260a43560958201526095815261103d60b582611192565b519020905114604051908152f35b60405162461bcd60e51b815260206004820152600d60248201526c4d45563a20546f6f206c61746560981b6044820152606490fd5b60405162461bcd60e51b815260206004820152600e60248201526d4d45563a20546f6f206561726c7960901b6044820152606490fd5b602435906001600160a01b038216820361013a57565b805180835260209291819084018484015e5f828201840152601f01601f1916010190565b608090600319011261013a57600435906024356001600160a01b038116810361013a579060443590606435801515810361013a5790565b604090600319011261013a576004359060243590565b6080810190811067ffffffffffffffff821117610e4457604052565b610100810190811067ffffffffffffffff821117610e4457604052565b60a0810190811067ffffffffffffffff821117610e4457604052565b90601f8019910116810190811067ffffffffffffffff821117610e4457604052565b156111bb57565b60405162461bcd60e51b815260206004820152601560248201527426a2ab1d102737ba103837b7b61036b0b730b3b2b960591b6044820152606490fd5b8181029291811591840414171561034057565b9190820180921161034057565b5f525f60205260405f209060076040519261123284611159565b60ff815416845260018101546020850152600281015460408501526003810154606085015260048101546080850152600581015460a0850152600681015460c0850152019160405180938491602082549182815201915f5260205f20905f5b81811061130457505050600492916112aa910385611192565b60e081019384525116156112fd575f91518051925b838110156112f557600581901b8201602001516001600160a01b038481169116146112ec576001016112bf565b50505050600190565b505050505f90565b5050600190565b82546001600160a01b0316845287945060209093019260019283019201611291565b9190820391821161034057565b90815f525f60205260405f209160405161134c81611159565b60ff845416815260018401546020820152600284015460408201526003840154606082015260048401546080820152600584015460a0820152600760068501549460c08301958652016040519081602082549182815201915f5260205f20905f5b81811061142f57505050906113c781601094930382611192565b60e0820152511615611425575f526004602052600360405f20019060018060a01b03165f5260205260405f2054801561141c576114049042611326565b9051908181101561141c5761141891611326565b5f91565b50506001905f90565b5050506001905f90565b82546001600160a01b03168452602090930192600192830192016113ad565b929092805f525f60205260405f20936040519461146a86611159565b60ff8154168652600181015495602081019687526007600283015492604083019384526003810154606084015260048101546080840152600581015460a0840152600681015460c084015201604051808260208294549384815201905f5260205f20925f5b8181106116da5750506114e492500382611192565b60e0820152519460ff86169687156116cb5781156116ad575b5015806116a1575b61169457600195946008161561168d5750815f525f60205260405f20906040519261152f84611159565b60ff83541684528683015460208501526002830154936040810194855260076003850154946060830195865260048101546080840152600581015460a0840152600681015460c08401520160405191828093602084549182815201935f5260205f20908c5f5b82811061166c57505050506115ae9060e0930384611192565b01525f52600460205260405f2092516115ca8785015443611326565b6003811015611651575082516115df9161120b565b92600560028201541161163c575b5490816115fb575b50505090565b60648102908082046064149015171561034057600a9161161a916116fc565b11611627575b80806115f5565b90611636915160021c9061120b565b5f611620565b9261164b908351881c9061120b565b926115ed565b600a9094919410156115ed579261164b908351881c9061120b565b83546001600160a01b03168752602090960195879450928101928101611595565b9150505190565b515f955085945092915050565b50602085161515611505565b518015159150816116c0575b505f6114fd565b90508210155f6116b9565b5050515f955085945092915050565b84546001600160a01b03168352600194850194869450602090930192016114cf565b8115610938570490565b5f52600260205260405f20905f5260205260405f2060405161172781611176565b81548152600182015491602082019280845260028201546040840191818352600384015460046060870195828752015460808701524310156117d757509061177261177c9243611326565b9251905190611326565b92825181518082115f146117b9575050926117aa6117af926117a56117b6968651905190611326565b6111f8565b6116fc565b9051611326565b90565b6117b6959250926117a56117aa926117d095611326565b905161120b565b94505050505090565b60ff16801561191d57600881146118ed57601881146118b1576009811461187557603f1461183a57604051611816604082611192565b601481527321bab9ba37b69021b7b73334b3bab930ba34b7b760611b602082015290565b604051611848604082611192565b601881527f4d6178696d756d3a20416c6c2050726f74656374696f6e730000000000000000602082015290565b50604051611884604082611192565b601a81527f486967683a20436f6d6d69742d52657665616c202b2046656573000000000000602082015290565b506040516118c0604082611192565b601781527f4d656469756d3a2046656573202b2054696d656c6f636b000000000000000000602082015290565b506040516118fc604082611192565b60118152704c6f773a2044796e616d6963204665657360781b602082015290565b5060405161192c604082611192565b601181527027379026a2ab10283937ba32b1ba34b7b760791b60208201529056fea264697066735822122001c5c7dc4abd6eed3841d29b96cb776eabea63181718ee054c0e1ca3526d8a8264736f6c634300081e0033",
  "linkReferences": {},
  "deployedLinkReferences": {}
}