{"contracts/Peripheral/DataBridges/real/StoixDataBridge.sol":{"StoixDataBridge":{"abi":[{"inputs":[{"internalType":"address","name":"_uniV2Bridge","type":"address"},{"internalType":"address","name":"_uniV3Bridge","type":"address"},{"internalType":"address","name":"_uniV3TwapBridge","type":"address"},{"internalType":"address","name":"_chainlinkBridge","type":"address"}],"stateMutability":"nonpayable","type":"constructor"},{"inputs":[],"name":"cacheCl","outputs":[{"internalType":"bytes","name":"","type":"bytes"}],"stateMutability":"view","type":"function"},{"inputs":[],"name":"cacheClTs","outputs":[{"internalType":"bytes","name":"","type":"bytes"}],"stateMutability":"view","type":"function"},{"inputs":[],"name":"cacheStdvLong","outputs":[{"internalType":"bytes","name":"","type":"bytes"}],"stateMutability":"view","type":"function"},{"inputs":[],"name":"cacheStdvShort","outputs":[{"internalType":"bytes","name":"","type":"bytes"}],"stateMutability":"view","type":"function"},{"inputs":[],"name":"cacheTwap","outputs":[{"internalType":"bytes","name":"","type":"bytes"}],"stateMutability":"view","type":"function"},{"inputs":[],"name":"cacheV2","outputs":[{"internalType":"bytes","name":"","type":"bytes"}],"stateMutability":"view","type":"function"},{"inputs":[],"name":"cacheV3","outputs":[{"internalType":"bytes","name":"","type":"bytes"}],"stateMutability":"view","type":"function"},{"inputs":[],"name":"chainlinkBridge","outputs":[{"internalType":"address","name":"","type":"address"}],"stateMutability":"view","type":"function"},{"inputs":[{"components":[{"internalType":"address","name":"asset0","type":"address"},{"internalType":"address","name":"asset1","type":"address"},{"internalType":"address","name":"quoter","type":"address"},{"internalType":"uint256","name":"amount","type":"uint256"},{"internalType":"uint128","name":"asset0Balance","type":"uint128"},{"internalType":"uint128","name":"asset1Balance","type":"uint128"},{"internalType":"uint16","name":"bucketID","type":"uint16"},{"internalType":"bool","name":"zeroForOne","type":"bool"},{"internalType":"uint8","name":"functionFlags","type":"uint8"}],"internalType":"struct QuoteParams","name":"params","type":"tuple"}],"name":"getData","outputs":[{"internalType":"bytes","name":"","type":"bytes"}],"stateMutability":"nonpayable","type":"function"},{"inputs":[],"name":"uniV2Bridge","outputs":[{"internalType":"address","name":"","type":"address"}],"stateMutability":"view","type":"function"},{"inputs":[],"name":"uniV3Bridge","outputs":[{"internalType":"address","name":"","type":"address"}],"stateMutability":"view","type":"function"},{"inputs":[],"name":"uniV3TwapBridge","outputs":[{"internalType":"address","name":"","type":"address"}],"stateMutability":"view","type":"function"}],"evm":{"bytecode":{"linkReferences":{},"object":"610100346100cf57601f610e7938819003918201601f19168301916001600160401b038311848410176100d3578084926080946040528339810103126100cf57610048816100e7565b90610055602082016100e7565b61006d6060610066604085016100e7565b93016100e7565b9260805260a05260c05260e052604051610d7d90816100fc823960805181818161083c0152610af4015260a05181818160b20152610bb0015260c0518181816104e70152610c0f015260e05181818161088001528181610c6e0152610ccd0152f35b5f80fd5b634e487b7160e01b5f52604160045260245ffd5b51906001600160a01b03821682036100cf5756fe60806040526004361015610011575f80fd5b5f3560e01c80630b140383146108af57806313be54ff1461086b578063380cc26c14610827578063406304ea146105d15780635585e0301461051657806357bafe4d146104d2578063752e3c1c14610417578063a57524241461035c578063ad8215d0146102a1578063cddde491146101e6578063ebb396d5146100e55763f0c8e5a41461009d575f80fd5b346100e1575f3660031901126100e1576040517f00000000000000000000000000000000000000000000000000000000000000006001600160a01b03168152602090f35b5f80fd5b346100e1575f3660031901126100e1576040515f5f548060011c906001811680156101dc575b6020831081146101c8578285529081156101a45750600114610148575b610144836101388185038261096a565b6040519182918261098c565b0390f35b5f8080527f290decd9548b62a8d60345a988386fc84ba6bc95484008f6362f93160ef3e563939250905b80821061018a57509091508101602001610138610128565b919260018160209254838588010152019101909291610172565b60ff191660208086019190915291151560051b840190910191506101389050610128565b634e487b7160e01b5f52602260045260245ffd5b91607f169161010b565b346100e1575f3660031901126100e1576040515f6003548060011c90600181168015610297575b6020831081146101c8578285529081156101a4575060011461023957610144836101388185038261096a565b60035f9081527fc2575a0e9e593c00f959f8c92f12db2869c3395a3b0502d05e2516446f71f85b939250905b80821061027d57509091508101602001610138610128565b919260018160209254838588010152019101909291610265565b91607f169161020d565b346100e1575f3660031901126100e1576040515f6002548060011c90600181168015610352575b6020831081146101c8578285529081156101a457506001146102f457610144836101388185038261096a565b60025f9081527f405787fa12a823e0f2b7631cc41b3ba8828b3321ca811111fa75cd3aa3bb5ace939250905b80821061033857509091508101602001610138610128565b919260018160209254838588010152019101909291610320565b91607f16916102c8565b346100e1575f3660031901126100e1576040515f6006548060011c9060018116801561040d575b6020831081146101c8578285529081156101a457506001146103af57610144836101388185038261096a565b60065f9081527ff652222313e28459528d920b65115c16c04f3efc82aaedc97be59f3f377c0d3f939250905b8082106103f357509091508101602001610138610128565b9192600181602092548385880101520191019092916103db565b91607f1691610383565b346100e1575f3660031901126100e1576040515f6005548060011c906001811680156104c8575b6020831081146101c8578285529081156101a4575060011461046a57610144836101388185038261096a565b60055f9081527f036b6384b5eca791c62761152d0c79bb0604c104a5fb6f4eb0703f3154bb3db0939250905b8082106104ae57509091508101602001610138610128565b919260018160209254838588010152019101909291610496565b91607f169161043e565b346100e1575f3660031901126100e1576040517f00000000000000000000000000000000000000000000000000000000000000006001600160a01b03168152602090f35b346100e1575f3660031901126100e1576040515f6004548060011c906001811680156105c7575b6020831081146101c8578285529081156101a4575060011461056957610144836101388185038261096a565b60045f9081527f8a35acfbc15ff81a39ae7d344fd709f28e8600b4aa8c65c6b64bfe7fe36bd19b939250905b8082106105ad57509091508101602001610138610128565b919260018160209254838588010152019101909291610595565b91607f169161053d565b346100e1576101203660031901126100e157604051610120810181811067ffffffffffffffff821117610813576040526004356001600160a01b03811681036100e15781526024356001600160a01b03811681036100e15760208201526044356001600160a01b03811681036100e157604082015260643560608201526084356001600160801b03811681036100e157608082015260a4356001600160801b03811681036100e15760a082015260c43561ffff811681036100e15760c082015260e43580151581036100e15760e0820152610104359060ff821682036100e157816101008201525f915f5f5f5f915f935f955f97600182166107fe575b600282166107e8575b600482166107d2575b600882166107bc575b601082166107a5575b5060208116610797575b604016610789575b6040519760ff1660208901526001600160801b031660408801526001600160801b031660608701526001600160801b031660808601526001600160801b031660a085015267ffffffffffffffff1660c084015261ffff1660e083015261ffff16610100820152610100815261077b6101208261096a565b60405161014481928261098c565b955095604017955f95610704565b6020909817975f96506106fc565b986107b591965060101798610ca9565b94896106f2565b945097600817976107cc85610c4a565b946106e9565b935097600417976107e284610beb565b936106e0565b925097600217976107f883610b8c565b926106d7565b60019950915061080d82610ad0565b916106ce565b634e487b7160e01b5f52604160045260245ffd5b346100e1575f3660031901126100e1576040517f00000000000000000000000000000000000000000000000000000000000000006001600160a01b03168152602090f35b346100e1575f3660031901126100e1576040517f00000000000000000000000000000000000000000000000000000000000000006001600160a01b03168152602090f35b346100e1575f3660031901126100e1576040515f6001548060011c90600181168015610960575b6020831081146101c8578285529081156101a4575060011461090257610144836101388185038261096a565b60015f9081527fb10e2d527612073b26eecdfd717e6a320cf44b4afac2b0732d9fcbe2b7fa0cf6939250905b80821061094657509091508101602001610138610128565b91926001816020925483858801015201910190929161092e565b91607f16916108d6565b90601f8019910116810190811067ffffffffffffffff82111761081357604052565b602060409281835280519182918282860152018484015e5f828201840152601f01601f1916010190565b6020818303126100e15780519067ffffffffffffffff82116100e1570181601f820112156100e15780519067ffffffffffffffff82116108135760405192610a08601f8401601f19166020018561096a565b828452602083830101116100e157815f9260208093018386015e8301015290565b91909161010060ff8161012084019560018060a01b03815116855260018060a01b03602082015116602086015260018060a01b036040820151166040860152606081015160608601526001600160801b0360808201511660808601526001600160801b0360a08201511660a086015261ffff60c08201511660c086015260e0810151151560e0860152015116910152565b91908260409103126100e1576020825192015190565b5f610aef9160405180938192632031827560e11b835260048301610a29565b0381837f00000000000000000000000000000000000000000000000000000000000000006001600160a01b03165af15f9181610b68575b50610b3057505f90565b80602080610b4393518301019101610aba565b5080610b4e57505f90565b670de0b6b3a76400006001600160801b039160401b041690565b610b859192503d805f833e610b7d818361096a565b8101906109b6565b905f610b26565b5f610bab9160405180938192632031827560e11b835260048301610a29565b0381837f00000000000000000000000000000000000000000000000000000000000000006001600160a01b03165af15f9181610b685750610b3057505f90565b5f610c0a9160405180938192632031827560e11b835260048301610a29565b0381837f00000000000000000000000000000000000000000000000000000000000000006001600160a01b03165af15f9181610b685750610b3057505f90565b5f610c699160405180938192632031827560e11b835260048301610a29565b0381837f00000000000000000000000000000000000000000000000000000000000000006001600160a01b03165af15f9181610b685750610b3057505f90565b5f610cc89160405180938192632031827560e11b835260048301610a29565b0381837f00000000000000000000000000000000000000000000000000000000000000006001600160a01b03165af15f9181610d2b575b50610d0957505f90565b610d258160208067ffffffffffffffff94518301019101610aba565b90501690565b610d409192503d805f833e610b7d818361096a565b905f610cff56fea26469706673582212206a01ff457f55b9ae01aa1c0b6f1504b3b23efc3538b0c6a6943117750d9f8f4f64736f6c634300081e0033","opcodes":"PUSH2 0x100 CALLVALUE PUSH2 0xCF JUMPI PUSH1 0x1F PUSH2 0xE79 CODESIZE DUP2 SWAP1 SUB SWAP2 DUP3 ADD PUSH1 0x1F NOT AND DUP4 ADD SWAP2 PUSH1 0x1 PUSH1 0x1 PUSH1 0x40 SHL SUB DUP4 GT DUP5 DUP5 LT OR PUSH2 0xD3 JUMPI DUP1 DUP5 SWAP3 PUSH1 0x80 SWAP5 PUSH1 0x40 MSTORE DUP4 CODECOPY DUP2 ADD SUB SLT PUSH2 0xCF JUMPI PUSH2 0x48 DUP2 PUSH2 0xE7 JUMP JUMPDEST SWAP1 PUSH2 0x55 PUSH1 0x20 DUP3 ADD PUSH2 0xE7 JUMP JUMPDEST PUSH2 0x6D PUSH1 0x60 PUSH2 0x66 PUSH1 0x40 DUP6 ADD PUSH2 0xE7 JUMP JUMPDEST SWAP4 ADD PUSH2 0xE7 JUMP JUMPDEST SWAP3 PUSH1 0x80 MSTORE PUSH1 0xA0 MSTORE PUSH1 0xC0 MSTORE PUSH1 0xE0 MSTORE PUSH1 0x40 MLOAD PUSH2 0xD7D SWAP1 DUP2 PUSH2 0xFC DUP3 CODECOPY PUSH1 0x80 MLOAD DUP2 DUP2 DUP2 PUSH2 0x83C ADD MSTORE PUSH2 0xAF4 ADD MSTORE PUSH1 0xA0 MLOAD DUP2 DUP2 DUP2 PUSH1 0xB2 ADD MSTORE PUSH2 0xBB0 ADD MSTORE PUSH1 0xC0 MLOAD DUP2 DUP2 DUP2 PUSH2 0x4E7 ADD MSTORE PUSH2 0xC0F ADD MSTORE PUSH1 0xE0 MLOAD DUP2 DUP2 DUP2 PUSH2 0x880 ADD MSTORE DUP2 DUP2 PUSH2 0xC6E ADD MSTORE PUSH2 0xCCD ADD MSTORE RETURN JUMPDEST PUSH0 DUP1 REVERT JUMPDEST PUSH4 0x4E487B71 PUSH1 0xE0 SHL PUSH0 MSTORE PUSH1 0x41 PUSH1 0x4 MSTORE PUSH1 0x24 PUSH0 REVERT JUMPDEST MLOAD SWAP1 PUSH1 0x1 PUSH1 0x1 PUSH1 0xA0 SHL SUB DUP3 AND DUP3 SUB PUSH2 0xCF JUMPI JUMP INVALID PUSH1 0x80 PUSH1 0x40 MSTORE PUSH1 0x4 CALLDATASIZE LT ISZERO PUSH2 0x11 JUMPI PUSH0 DUP1 REVERT JUMPDEST PUSH0 CALLDATALOAD PUSH1 0xE0 SHR DUP1 PUSH4 0xB140383 EQ PUSH2 0x8AF JUMPI DUP1 PUSH4 0x13BE54FF EQ PUSH2 0x86B JUMPI DUP1 PUSH4 0x380CC26C EQ PUSH2 0x827 JUMPI DUP1 PUSH4 0x406304EA EQ PUSH2 0x5D1 JUMPI DUP1 PUSH4 0x5585E030 EQ PUSH2 0x516 JUMPI DUP1 PUSH4 0x57BAFE4D EQ PUSH2 0x4D2 JUMPI DUP1 PUSH4 0x752E3C1C EQ PUSH2 0x417 JUMPI DUP1 PUSH4 0xA5752424 EQ PUSH2 0x35C JUMPI DUP1 PUSH4 0xAD8215D0 EQ PUSH2 0x2A1 JUMPI DUP1 PUSH4 0xCDDDE491 EQ PUSH2 0x1E6 JUMPI DUP1 PUSH4 0xEBB396D5 EQ PUSH2 0xE5 JUMPI PUSH4 0xF0C8E5A4 EQ PUSH2 0x9D JUMPI PUSH0 DUP1 REVERT JUMPDEST CALLVALUE PUSH2 0xE1 JUMPI PUSH0 CALLDATASIZE PUSH1 0x3 NOT ADD SLT PUSH2 0xE1 JUMPI PUSH1 0x40 MLOAD PUSH32 0x0 PUSH1 0x1 PUSH1 0x1 PUSH1 0xA0 SHL SUB AND DUP2 MSTORE PUSH1 0x20 SWAP1 RETURN JUMPDEST PUSH0 DUP1 REVERT JUMPDEST CALLVALUE PUSH2 0xE1 JUMPI PUSH0 CALLDATASIZE PUSH1 0x3 NOT ADD SLT PUSH2 0xE1 JUMPI PUSH1 0x40 MLOAD PUSH0 PUSH0 SLOAD DUP1 PUSH1 0x1 SHR SWAP1 PUSH1 0x1 DUP2 AND DUP1 ISZERO PUSH2 0x1DC JUMPI JUMPDEST PUSH1 0x20 DUP4 LT DUP2 EQ PUSH2 0x1C8 JUMPI DUP3 DUP6 MSTORE SWAP1 DUP2 ISZERO PUSH2 0x1A4 JUMPI POP PUSH1 0x1 EQ PUSH2 0x148 JUMPI JUMPDEST PUSH2 0x144 DUP4 PUSH2 0x138 DUP2 DUP6 SUB DUP3 PUSH2 0x96A JUMP JUMPDEST PUSH1 0x40 MLOAD SWAP2 DUP3 SWAP2 DUP3 PUSH2 0x98C JUMP JUMPDEST SUB SWAP1 RETURN JUMPDEST PUSH0 DUP1 DUP1 MSTORE PUSH32 0x290DECD9548B62A8D60345A988386FC84BA6BC95484008F6362F93160EF3E563 SWAP4 SWAP3 POP SWAP1 JUMPDEST DUP1 DUP3 LT PUSH2 0x18A JUMPI POP SWAP1 SWAP2 POP DUP2 ADD PUSH1 0x20 ADD PUSH2 0x138 PUSH2 0x128 JUMP JUMPDEST SWAP2 SWAP3 PUSH1 0x1 DUP2 PUSH1 0x20 SWAP3 SLOAD DUP4 DUP6 DUP9 ADD ADD MSTORE ADD SWAP2 ADD SWAP1 SWAP3 SWAP2 PUSH2 0x172 JUMP JUMPDEST PUSH1 0xFF NOT AND PUSH1 0x20 DUP1 DUP7 ADD SWAP2 SWAP1 SWAP2 MSTORE SWAP2 ISZERO ISZERO PUSH1 0x5 SHL DUP5 ADD SWAP1 SWAP2 ADD SWAP2 POP PUSH2 0x138 SWAP1 POP PUSH2 0x128 JUMP JUMPDEST PUSH4 0x4E487B71 PUSH1 0xE0 SHL PUSH0 MSTORE PUSH1 0x22 PUSH1 0x4 MSTORE PUSH1 0x24 PUSH0 REVERT JUMPDEST SWAP2 PUSH1 0x7F AND SWAP2 PUSH2 0x10B JUMP JUMPDEST CALLVALUE PUSH2 0xE1 JUMPI PUSH0 CALLDATASIZE PUSH1 0x3 NOT ADD SLT PUSH2 0xE1 JUMPI PUSH1 0x40 MLOAD PUSH0 PUSH1 0x3 SLOAD DUP1 PUSH1 0x1 SHR SWAP1 PUSH1 0x1 DUP2 AND DUP1 ISZERO PUSH2 0x297 JUMPI JUMPDEST PUSH1 0x20 DUP4 LT DUP2 EQ PUSH2 0x1C8 JUMPI DUP3 DUP6 MSTORE SWAP1 DUP2 ISZERO PUSH2 0x1A4 JUMPI POP PUSH1 0x1 EQ PUSH2 0x239 JUMPI PUSH2 0x144 DUP4 PUSH2 0x138 DUP2 DUP6 SUB DUP3 PUSH2 0x96A JUMP JUMPDEST PUSH1 0x3 PUSH0 SWAP1 DUP2 MSTORE PUSH32 0xC2575A0E9E593C00F959F8C92F12DB2869C3395A3B0502D05E2516446F71F85B SWAP4 SWAP3 POP SWAP1 JUMPDEST DUP1 DUP3 LT PUSH2 0x27D JUMPI POP SWAP1 SWAP2 POP DUP2 ADD PUSH1 0x20 ADD PUSH2 0x138 PUSH2 0x128 JUMP JUMPDEST SWAP2 SWAP3 PUSH1 0x1 DUP2 PUSH1 0x20 SWAP3 SLOAD DUP4 DUP6 DUP9 ADD ADD MSTORE ADD SWAP2 ADD SWAP1 SWAP3 SWAP2 PUSH2 0x265 JUMP JUMPDEST SWAP2 PUSH1 0x7F AND SWAP2 PUSH2 0x20D JUMP JUMPDEST CALLVALUE PUSH2 0xE1 JUMPI PUSH0 CALLDATASIZE PUSH1 0x3 NOT ADD SLT PUSH2 0xE1 JUMPI PUSH1 0x40 MLOAD PUSH0 PUSH1 0x2 SLOAD DUP1 PUSH1 0x1 SHR SWAP1 PUSH1 0x1 DUP2 AND DUP1 ISZERO PUSH2 0x352 JUMPI JUMPDEST PUSH1 0x20 DUP4 LT DUP2 EQ PUSH2 0x1C8 JUMPI DUP3 DUP6 MSTORE SWAP1 DUP2 ISZERO PUSH2 0x1A4 JUMPI POP PUSH1 0x1 EQ PUSH2 0x2F4 JUMPI PUSH2 0x144 DUP4 PUSH2 0x138 DUP2 DUP6 SUB DUP3 PUSH2 0x96A JUMP JUMPDEST PUSH1 0x2 PUSH0 SWAP1 DUP2 MSTORE PUSH32 0x405787FA12A823E0F2B7631CC41B3BA8828B3321CA811111FA75CD3AA3BB5ACE SWAP4 SWAP3 POP SWAP1 JUMPDEST DUP1 DUP3 LT PUSH2 0x338 JUMPI POP SWAP1 SWAP2 POP DUP2 ADD PUSH1 0x20 ADD PUSH2 0x138 PUSH2 0x128 JUMP JUMPDEST SWAP2 SWAP3 PUSH1 0x1 DUP2 PUSH1 0x20 SWAP3 SLOAD DUP4 DUP6 DUP9 ADD ADD MSTORE ADD SWAP2 ADD SWAP1 SWAP3 SWAP2 PUSH2 0x320 JUMP JUMPDEST SWAP2 PUSH1 0x7F AND SWAP2 PUSH2 0x2C8 JUMP JUMPDEST CALLVALUE PUSH2 0xE1 JUMPI PUSH0 CALLDATASIZE PUSH1 0x3 NOT ADD SLT PUSH2 0xE1 JUMPI PUSH1 0x40 MLOAD PUSH0 PUSH1 0x6 SLOAD DUP1 PUSH1 0x1 SHR SWAP1 PUSH1 0x1 DUP2 AND DUP1 ISZERO PUSH2 0x40D JUMPI JUMPDEST PUSH1 0x20 DUP4 LT DUP2 EQ PUSH2 0x1C8 JUMPI DUP3 DUP6 MSTORE SWAP1 DUP2 ISZERO PUSH2 0x1A4 JUMPI POP PUSH1 0x1 EQ PUSH2 0x3AF JUMPI PUSH2 0x144 DUP4 PUSH2 0x138 DUP2 DUP6 SUB DUP3 PUSH2 0x96A JUMP JUMPDEST PUSH1 0x6 PUSH0 SWAP1 DUP2 MSTORE PUSH32 0xF652222313E28459528D920B65115C16C04F3EFC82AAEDC97BE59F3F377C0D3F SWAP4 SWAP3 POP SWAP1 JUMPDEST DUP1 DUP3 LT PUSH2 0x3F3 JUMPI POP SWAP1 SWAP2 POP DUP2 ADD PUSH1 0x20 ADD PUSH2 0x138 PUSH2 0x128 JUMP JUMPDEST SWAP2 SWAP3 PUSH1 0x1 DUP2 PUSH1 0x20 SWAP3 SLOAD DUP4 DUP6 DUP9 ADD ADD MSTORE ADD SWAP2 ADD SWAP1 SWAP3 SWAP2 PUSH2 0x3DB JUMP JUMPDEST SWAP2 PUSH1 0x7F AND SWAP2 PUSH2 0x383 JUMP JUMPDEST CALLVALUE PUSH2 0xE1 JUMPI PUSH0 CALLDATASIZE PUSH1 0x3 NOT ADD SLT PUSH2 0xE1 JUMPI PUSH1 0x40 MLOAD PUSH0 PUSH1 0x5 SLOAD DUP1 PUSH1 0x1 SHR SWAP1 PUSH1 0x1 DUP2 AND DUP1 ISZERO PUSH2 0x4C8 JUMPI JUMPDEST PUSH1 0x20 DUP4 LT DUP2 EQ PUSH2 0x1C8 JUMPI DUP3 DUP6 MSTORE SWAP1 DUP2 ISZERO PUSH2 0x1A4 JUMPI POP PUSH1 0x1 EQ PUSH2 0x46A JUMPI PUSH2 0x144 DUP4 PUSH2 0x138 DUP2 DUP6 SUB DUP3 PUSH2 0x96A JUMP JUMPDEST PUSH1 0x5 PUSH0 SWAP1 DUP2 MSTORE PUSH32 0x36B6384B5ECA791C62761152D0C79BB0604C104A5FB6F4EB0703F3154BB3DB0 SWAP4 SWAP3 POP SWAP1 JUMPDEST DUP1 DUP3 LT PUSH2 0x4AE JUMPI POP SWAP1 SWAP2 POP DUP2 ADD PUSH1 0x20 ADD PUSH2 0x138 PUSH2 0x128 JUMP JUMPDEST SWAP2 SWAP3 PUSH1 0x1 DUP2 PUSH1 0x20 SWAP3 SLOAD DUP4 DUP6 DUP9 ADD ADD MSTORE ADD SWAP2 ADD SWAP1 SWAP3 SWAP2 PUSH2 0x496 JUMP JUMPDEST SWAP2 PUSH1 0x7F AND SWAP2 PUSH2 0x43E JUMP JUMPDEST CALLVALUE PUSH2 0xE1 JUMPI PUSH0 CALLDATASIZE PUSH1 0x3 NOT ADD SLT PUSH2 0xE1 JUMPI PUSH1 0x40 MLOAD PUSH32 0x0 PUSH1 0x1 PUSH1 0x1 PUSH1 0xA0 SHL SUB AND DUP2 MSTORE PUSH1 0x20 SWAP1 RETURN JUMPDEST CALLVALUE PUSH2 0xE1 JUMPI PUSH0 CALLDATASIZE PUSH1 0x3 NOT ADD SLT PUSH2 0xE1 JUMPI PUSH1 0x40 MLOAD PUSH0 PUSH1 0x4 SLOAD DUP1 PUSH1 0x1 SHR SWAP1 PUSH1 0x1 DUP2 AND DUP1 ISZERO PUSH2 0x5C7 JUMPI JUMPDEST PUSH1 0x20 DUP4 LT DUP2 EQ PUSH2 0x1C8 JUMPI DUP3 DUP6 MSTORE SWAP1 DUP2 ISZERO PUSH2 0x1A4 JUMPI POP PUSH1 0x1 EQ PUSH2 0x569 JUMPI PUSH2 0x144 DUP4 PUSH2 0x138 DUP2 DUP6 SUB DUP3 PUSH2 0x96A JUMP JUMPDEST PUSH1 0x4 PUSH0 SWAP1 DUP2 MSTORE PUSH32 0x8A35ACFBC15FF81A39AE7D344FD709F28E8600B4AA8C65C6B64BFE7FE36BD19B SWAP4 SWAP3 POP SWAP1 JUMPDEST DUP1 DUP3 LT PUSH2 0x5AD JUMPI POP SWAP1 SWAP2 POP DUP2 ADD PUSH1 0x20 ADD PUSH2 0x138 PUSH2 0x128 JUMP JUMPDEST SWAP2 SWAP3 PUSH1 0x1 DUP2 PUSH1 0x20 SWAP3 SLOAD DUP4 DUP6 DUP9 ADD ADD MSTORE ADD SWAP2 ADD SWAP1 SWAP3 SWAP2 PUSH2 0x595 JUMP JUMPDEST SWAP2 PUSH1 0x7F AND SWAP2 PUSH2 0x53D JUMP JUMPDEST CALLVALUE PUSH2 0xE1 JUMPI PUSH2 0x120 CALLDATASIZE PUSH1 0x3 NOT ADD SLT PUSH2 0xE1 JUMPI PUSH1 0x40 MLOAD PUSH2 0x120 DUP2 ADD DUP2 DUP2 LT PUSH8 0xFFFFFFFFFFFFFFFF DUP3 GT OR PUSH2 0x813 JUMPI PUSH1 0x40 MSTORE PUSH1 0x4 CALLDATALOAD PUSH1 0x1 PUSH1 0x1 PUSH1 0xA0 SHL SUB DUP2 AND DUP2 SUB PUSH2 0xE1 JUMPI DUP2 MSTORE PUSH1 0x24 CALLDATALOAD PUSH1 0x1 PUSH1 0x1 PUSH1 0xA0 SHL SUB DUP2 AND DUP2 SUB PUSH2 0xE1 JUMPI PUSH1 0x20 DUP3 ADD MSTORE PUSH1 0x44 CALLDATALOAD PUSH1 0x1 PUSH1 0x1 PUSH1 0xA0 SHL SUB DUP2 AND DUP2 SUB PUSH2 0xE1 JUMPI PUSH1 0x40 DUP3 ADD MSTORE PUSH1 0x64 CALLDATALOAD PUSH1 0x60 DUP3 ADD MSTORE PUSH1 0x84 CALLDATALOAD PUSH1 0x1 PUSH1 0x1 PUSH1 0x80 SHL SUB DUP2 AND DUP2 SUB PUSH2 0xE1 JUMPI PUSH1 0x80 DUP3 ADD MSTORE PUSH1 0xA4 CALLDATALOAD PUSH1 0x1 PUSH1 0x1 PUSH1 0x80 SHL SUB DUP2 AND DUP2 SUB PUSH2 0xE1 JUMPI PUSH1 0xA0 DUP3 ADD MSTORE PUSH1 0xC4 CALLDATALOAD PUSH2 0xFFFF DUP2 AND DUP2 SUB PUSH2 0xE1 JUMPI PUSH1 0xC0 DUP3 ADD MSTORE PUSH1 0xE4 CALLDATALOAD DUP1 ISZERO ISZERO DUP2 SUB PUSH2 0xE1 JUMPI PUSH1 0xE0 DUP3 ADD MSTORE PUSH2 0x104 CALLDATALOAD SWAP1 PUSH1 0xFF DUP3 AND DUP3 SUB PUSH2 0xE1 JUMPI DUP2 PUSH2 0x100 DUP3 ADD MSTORE PUSH0 SWAP2 PUSH0 PUSH0 PUSH0 PUSH0 SWAP2 PUSH0 SWAP4 PUSH0 SWAP6 PUSH0 SWAP8 PUSH1 0x1 DUP3 AND PUSH2 0x7FE JUMPI JUMPDEST PUSH1 0x2 DUP3 AND PUSH2 0x7E8 JUMPI JUMPDEST PUSH1 0x4 DUP3 AND PUSH2 0x7D2 JUMPI JUMPDEST PUSH1 0x8 DUP3 AND PUSH2 0x7BC JUMPI JUMPDEST PUSH1 0x10 DUP3 AND PUSH2 0x7A5 JUMPI JUMPDEST POP PUSH1 0x20 DUP2 AND PUSH2 0x797 JUMPI JUMPDEST PUSH1 0x40 AND PUSH2 0x789 JUMPI JUMPDEST PUSH1 0x40 MLOAD SWAP8 PUSH1 0xFF AND PUSH1 0x20 DUP10 ADD MSTORE PUSH1 0x1 PUSH1 0x1 PUSH1 0x80 SHL SUB AND PUSH1 0x40 DUP9 ADD MSTORE PUSH1 0x1 PUSH1 0x1 PUSH1 0x80 SHL SUB AND PUSH1 0x60 DUP8 ADD MSTORE PUSH1 0x1 PUSH1 0x1 PUSH1 0x80 SHL SUB AND PUSH1 0x80 DUP7 ADD MSTORE PUSH1 0x1 PUSH1 0x1 PUSH1 0x80 SHL SUB AND PUSH1 0xA0 DUP6 ADD MSTORE PUSH8 0xFFFFFFFFFFFFFFFF AND PUSH1 0xC0 DUP5 ADD MSTORE PUSH2 0xFFFF AND PUSH1 0xE0 DUP4 ADD MSTORE PUSH2 0xFFFF AND PUSH2 0x100 DUP3 ADD MSTORE PUSH2 0x100 DUP2 MSTORE PUSH2 0x77B PUSH2 0x120 DUP3 PUSH2 0x96A JUMP JUMPDEST PUSH1 0x40 MLOAD PUSH2 0x144 DUP2 SWAP3 DUP3 PUSH2 0x98C JUMP JUMPDEST SWAP6 POP SWAP6 PUSH1 0x40 OR SWAP6 PUSH0 SWAP6 PUSH2 0x704 JUMP JUMPDEST PUSH1 0x20 SWAP1 SWAP9 OR SWAP8 PUSH0 SWAP7 POP PUSH2 0x6FC JUMP JUMPDEST SWAP9 PUSH2 0x7B5 SWAP2 SWAP7 POP PUSH1 0x10 OR SWAP9 PUSH2 0xCA9 JUMP JUMPDEST SWAP5 DUP10 PUSH2 0x6F2 JUMP JUMPDEST SWAP5 POP SWAP8 PUSH1 0x8 OR SWAP8 PUSH2 0x7CC DUP6 PUSH2 0xC4A JUMP JUMPDEST SWAP5 PUSH2 0x6E9 JUMP JUMPDEST SWAP4 POP SWAP8 PUSH1 0x4 OR SWAP8 PUSH2 0x7E2 DUP5 PUSH2 0xBEB JUMP JUMPDEST SWAP4 PUSH2 0x6E0 JUMP JUMPDEST SWAP3 POP SWAP8 PUSH1 0x2 OR SWAP8 PUSH2 0x7F8 DUP4 PUSH2 0xB8C JUMP JUMPDEST SWAP3 PUSH2 0x6D7 JUMP JUMPDEST PUSH1 0x1 SWAP10 POP SWAP2 POP PUSH2 0x80D DUP3 PUSH2 0xAD0 JUMP JUMPDEST SWAP2 PUSH2 0x6CE JUMP JUMPDEST PUSH4 0x4E487B71 PUSH1 0xE0 SHL PUSH0 MSTORE PUSH1 0x41 PUSH1 0x4 MSTORE PUSH1 0x24 PUSH0 REVERT JUMPDEST CALLVALUE PUSH2 0xE1 JUMPI PUSH0 CALLDATASIZE PUSH1 0x3 NOT ADD SLT PUSH2 0xE1 JUMPI PUSH1 0x40 MLOAD PUSH32 0x0 PUSH1 0x1 PUSH1 0x1 PUSH1 0xA0 SHL SUB AND DUP2 MSTORE PUSH1 0x20 SWAP1 RETURN JUMPDEST CALLVALUE PUSH2 0xE1 JUMPI PUSH0 CALLDATASIZE PUSH1 0x3 NOT ADD SLT PUSH2 0xE1 JUMPI PUSH1 0x40 MLOAD PUSH32 0x0 PUSH1 0x1 PUSH1 0x1 PUSH1 0xA0 SHL SUB AND DUP2 MSTORE PUSH1 0x20 SWAP1 RETURN JUMPDEST CALLVALUE PUSH2 0xE1 JUMPI PUSH0 CALLDATASIZE PUSH1 0x3 NOT ADD SLT PUSH2 0xE1 JUMPI PUSH1 0x40 MLOAD PUSH0 PUSH1 0x1 SLOAD DUP1 PUSH1 0x1 SHR SWAP1 PUSH1 0x1 DUP2 AND DUP1 ISZERO PUSH2 0x960 JUMPI JUMPDEST PUSH1 0x20 DUP4 LT DUP2 EQ PUSH2 0x1C8 JUMPI DUP3 DUP6 MSTORE SWAP1 DUP2 ISZERO PUSH2 0x1A4 JUMPI POP PUSH1 0x1 EQ PUSH2 0x902 JUMPI PUSH2 0x144 DUP4 PUSH2 0x138 DUP2 DUP6 SUB DUP3 PUSH2 0x96A JUMP JUMPDEST PUSH1 0x1 PUSH0 SWAP1 DUP2 MSTORE PUSH32 0xB10E2D527612073B26EECDFD717E6A320CF44B4AFAC2B0732D9FCBE2B7FA0CF6 SWAP4 SWAP3 POP SWAP1 JUMPDEST DUP1 DUP3 LT PUSH2 0x946 JUMPI POP SWAP1 SWAP2 POP DUP2 ADD PUSH1 0x20 ADD PUSH2 0x138 PUSH2 0x128 JUMP JUMPDEST SWAP2 SWAP3 PUSH1 0x1 DUP2 PUSH1 0x20 SWAP3 SLOAD DUP4 DUP6 DUP9 ADD ADD MSTORE ADD SWAP2 ADD SWAP1 SWAP3 SWAP2 PUSH2 0x92E JUMP JUMPDEST SWAP2 PUSH1 0x7F AND SWAP2 PUSH2 0x8D6 JUMP JUMPDEST SWAP1 PUSH1 0x1F DUP1 NOT SWAP2 ADD AND DUP2 ADD SWAP1 DUP2 LT PUSH8 0xFFFFFFFFFFFFFFFF DUP3 GT OR PUSH2 0x813 JUMPI PUSH1 0x40 MSTORE JUMP JUMPDEST PUSH1 0x20 PUSH1 0x40 SWAP3 DUP2 DUP4 MSTORE DUP1 MLOAD SWAP2 DUP3 SWAP2 DUP3 DUP3 DUP7 ADD MSTORE ADD DUP5 DUP5 ADD MCOPY PUSH0 DUP3 DUP3 ADD DUP5 ADD MSTORE PUSH1 0x1F ADD PUSH1 0x1F NOT AND ADD ADD SWAP1 JUMP JUMPDEST PUSH1 0x20 DUP2 DUP4 SUB SLT PUSH2 0xE1 JUMPI DUP1 MLOAD SWAP1 PUSH8 0xFFFFFFFFFFFFFFFF DUP3 GT PUSH2 0xE1 JUMPI ADD DUP2 PUSH1 0x1F DUP3 ADD SLT ISZERO PUSH2 0xE1 JUMPI DUP1 MLOAD SWAP1 PUSH8 0xFFFFFFFFFFFFFFFF DUP3 GT PUSH2 0x813 JUMPI PUSH1 0x40 MLOAD SWAP3 PUSH2 0xA08 PUSH1 0x1F DUP5 ADD PUSH1 0x1F NOT AND PUSH1 0x20 ADD DUP6 PUSH2 0x96A JUMP JUMPDEST DUP3 DUP5 MSTORE PUSH1 0x20 DUP4 DUP4 ADD ADD GT PUSH2 0xE1 JUMPI DUP2 PUSH0 SWAP3 PUSH1 0x20 DUP1 SWAP4 ADD DUP4 DUP7 ADD MCOPY DUP4 ADD ADD MSTORE SWAP1 JUMP JUMPDEST SWAP2 SWAP1 SWAP2 PUSH2 0x100 PUSH1 0xFF DUP2 PUSH2 0x120 DUP5 ADD SWAP6 PUSH1 0x1 DUP1 PUSH1 0xA0 SHL SUB DUP2 MLOAD AND DUP6 MSTORE PUSH1 0x1 DUP1 PUSH1 0xA0 SHL SUB PUSH1 0x20 DUP3 ADD MLOAD AND PUSH1 0x20 DUP7 ADD MSTORE PUSH1 0x1 DUP1 PUSH1 0xA0 SHL SUB PUSH1 0x40 DUP3 ADD MLOAD AND PUSH1 0x40 DUP7 ADD MSTORE PUSH1 0x60 DUP2 ADD MLOAD PUSH1 0x60 DUP7 ADD MSTORE PUSH1 0x1 PUSH1 0x1 PUSH1 0x80 SHL SUB PUSH1 0x80 DUP3 ADD MLOAD AND PUSH1 0x80 DUP7 ADD MSTORE PUSH1 0x1 PUSH1 0x1 PUSH1 0x80 SHL SUB PUSH1 0xA0 DUP3 ADD MLOAD AND PUSH1 0xA0 DUP7 ADD MSTORE PUSH2 0xFFFF PUSH1 0xC0 DUP3 ADD MLOAD AND PUSH1 0xC0 DUP7 ADD MSTORE PUSH1 0xE0 DUP2 ADD MLOAD ISZERO ISZERO PUSH1 0xE0 DUP7 ADD MSTORE ADD MLOAD AND SWAP2 ADD MSTORE JUMP JUMPDEST SWAP2 SWAP1 DUP3 PUSH1 0x40 SWAP2 SUB SLT PUSH2 0xE1 JUMPI PUSH1 0x20 DUP3 MLOAD SWAP3 ADD MLOAD SWAP1 JUMP JUMPDEST PUSH0 PUSH2 0xAEF SWAP2 PUSH1 0x40 MLOAD DUP1 SWAP4 DUP2 SWAP3 PUSH4 0x20318275 PUSH1 0xE1 SHL DUP4 MSTORE PUSH1 0x4 DUP4 ADD PUSH2 0xA29 JUMP JUMPDEST SUB DUP2 DUP4 PUSH32 0x0 PUSH1 0x1 PUSH1 0x1 PUSH1 0xA0 SHL SUB AND GAS CALL PUSH0 SWAP2 DUP2 PUSH2 0xB68 JUMPI JUMPDEST POP PUSH2 0xB30 JUMPI POP PUSH0 SWAP1 JUMP JUMPDEST DUP1 PUSH1 0x20 DUP1 PUSH2 0xB43 SWAP4 MLOAD DUP4 ADD ADD SWAP2 ADD PUSH2 0xABA JUMP JUMPDEST POP DUP1 PUSH2 0xB4E JUMPI POP PUSH0 SWAP1 JUMP JUMPDEST PUSH8 0xDE0B6B3A7640000 PUSH1 0x1 PUSH1 0x1 PUSH1 0x80 SHL SUB SWAP2 PUSH1 0x40 SHL DIV AND SWAP1 JUMP JUMPDEST PUSH2 0xB85 SWAP2 SWAP3 POP RETURNDATASIZE DUP1 PUSH0 DUP4 RETURNDATACOPY PUSH2 0xB7D DUP2 DUP4 PUSH2 0x96A JUMP JUMPDEST DUP2 ADD SWAP1 PUSH2 0x9B6 JUMP JUMPDEST SWAP1 PUSH0 PUSH2 0xB26 JUMP JUMPDEST PUSH0 PUSH2 0xBAB SWAP2 PUSH1 0x40 MLOAD DUP1 SWAP4 DUP2 SWAP3 PUSH4 0x20318275 PUSH1 0xE1 SHL DUP4 MSTORE PUSH1 0x4 DUP4 ADD PUSH2 0xA29 JUMP JUMPDEST SUB DUP2 DUP4 PUSH32 0x0 PUSH1 0x1 PUSH1 0x1 PUSH1 0xA0 SHL SUB AND GAS CALL PUSH0 SWAP2 DUP2 PUSH2 0xB68 JUMPI POP PUSH2 0xB30 JUMPI POP PUSH0 SWAP1 JUMP JUMPDEST PUSH0 PUSH2 0xC0A SWAP2 PUSH1 0x40 MLOAD DUP1 SWAP4 DUP2 SWAP3 PUSH4 0x20318275 PUSH1 0xE1 SHL DUP4 MSTORE PUSH1 0x4 DUP4 ADD PUSH2 0xA29 JUMP JUMPDEST SUB DUP2 DUP4 PUSH32 0x0 PUSH1 0x1 PUSH1 0x1 PUSH1 0xA0 SHL SUB AND GAS CALL PUSH0 SWAP2 DUP2 PUSH2 0xB68 JUMPI POP PUSH2 0xB30 JUMPI POP PUSH0 SWAP1 JUMP JUMPDEST PUSH0 PUSH2 0xC69 SWAP2 PUSH1 0x40 MLOAD DUP1 SWAP4 DUP2 SWAP3 PUSH4 0x20318275 PUSH1 0xE1 SHL DUP4 MSTORE PUSH1 0x4 DUP4 ADD PUSH2 0xA29 JUMP JUMPDEST SUB DUP2 DUP4 PUSH32 0x0 PUSH1 0x1 PUSH1 0x1 PUSH1 0xA0 SHL SUB AND GAS CALL PUSH0 SWAP2 DUP2 PUSH2 0xB68 JUMPI POP PUSH2 0xB30 JUMPI POP PUSH0 SWAP1 JUMP JUMPDEST PUSH0 PUSH2 0xCC8 SWAP2 PUSH1 0x40 MLOAD DUP1 SWAP4 DUP2 SWAP3 PUSH4 0x20318275 PUSH1 0xE1 SHL DUP4 MSTORE PUSH1 0x4 DUP4 ADD PUSH2 0xA29 JUMP JUMPDEST SUB DUP2 DUP4 PUSH32 0x0 PUSH1 0x1 PUSH1 0x1 PUSH1 0xA0 SHL SUB AND GAS CALL PUSH0 SWAP2 DUP2 PUSH2 0xD2B JUMPI JUMPDEST POP PUSH2 0xD09 JUMPI POP PUSH0 SWAP1 JUMP JUMPDEST PUSH2 0xD25 DUP2 PUSH1 0x20 DUP1 PUSH8 0xFFFFFFFFFFFFFFFF SWAP5 MLOAD DUP4 ADD ADD SWAP2 ADD PUSH2 0xABA JUMP JUMPDEST SWAP1 POP AND SWAP1 JUMP JUMPDEST PUSH2 0xD40 SWAP2 SWAP3 POP RETURNDATASIZE DUP1 PUSH0 DUP4 RETURNDATACOPY PUSH2 0xB7D DUP2 DUP4 PUSH2 0x96A JUMP JUMPDEST SWAP1 PUSH0 PUSH2 0xCFF JUMP INVALID LOG2 PUSH5 0x6970667358 0x22 SLT KECCAK256 PUSH11 0x1FF457F55B9AE01AA1C0B PUSH16 0x1504B3B23EFC3538B0C6A6943117750D SWAP16 DUP16 0x4F PUSH5 0x736F6C6343 STOP ADDMOD 0x1E STOP CALLER "},"methodIdentifiers":{"cacheCl()":"cddde491","cacheClTs()":"5585e030","cacheStdvLong()":"a5752424","cacheStdvShort()":"752e3c1c","cacheTwap()":"ad8215d0","cacheV2()":"ebb396d5","cacheV3()":"0b140383","chainlinkBridge()":"13be54ff","getData((address,address,address,uint256,uint128,uint128,uint16,bool,uint8))":"406304ea","uniV2Bridge()":"380cc26c","uniV3Bridge()":"f0c8e5a4","uniV3TwapBridge()":"57bafe4d"}}}}}