{"contracts/Peripheral/quoters/dummy/RealDataBridge/CLV3AverageQuoter.sol":{"CLV3AverageQuoter":{"abi":[{"inputs":[{"internalType":"address","name":"_stoixBridge","type":"address"}],"stateMutability":"nonpayable","type":"constructor"},{"inputs":[{"components":[{"internalType":"address","name":"asset0","type":"address"},{"internalType":"address","name":"asset1","type":"address"},{"internalType":"address","name":"quoter","type":"address"},{"internalType":"uint256","name":"amount","type":"uint256"},{"internalType":"uint128","name":"asset0Balance","type":"uint128"},{"internalType":"uint128","name":"asset1Balance","type":"uint128"},{"internalType":"uint16","name":"bucketID","type":"uint16"},{"internalType":"bool","name":"zeroForOne","type":"bool"},{"internalType":"uint8","name":"functionFlags","type":"uint8"}],"internalType":"struct QuoteParams","name":"params","type":"tuple"},{"internalType":"bytes","name":"","type":"bytes"}],"name":"quote","outputs":[{"internalType":"uint256","name":"","type":"uint256"}],"stateMutability":"nonpayable","type":"function"},{"inputs":[{"components":[{"internalType":"address","name":"asset0","type":"address"},{"internalType":"address","name":"asset1","type":"address"},{"internalType":"address","name":"quoter","type":"address"},{"internalType":"uint256[]","name":"amount","type":"uint256[]"},{"internalType":"uint128[]","name":"asset0Balances","type":"uint128[]"},{"internalType":"uint128[]","name":"asset1Balances","type":"uint128[]"},{"internalType":"uint16[]","name":"bucketID","type":"uint16[]"},{"internalType":"bool","name":"zeroForOne","type":"bool"},{"internalType":"uint8","name":"functionFlags","type":"uint8"}],"internalType":"struct QuoteParamsBatch","name":"params","type":"tuple"},{"internalType":"bytes","name":"data","type":"bytes"}],"name":"quoteBatch","outputs":[{"internalType":"uint256[]","name":"quotes","type":"uint256[]"}],"stateMutability":"nonpayable","type":"function"},{"inputs":[],"name":"stoixBridge","outputs":[{"internalType":"contract IDataBridge","name":"","type":"address"}],"stateMutability":"view","type":"function"}],"evm":{"bytecode":{"linkReferences":{},"object":"60a034606e57601f610e3738819003918201601f19168301916001600160401b03831184841017607257808492602094604052833981010312606e57516001600160a01b03811690819003606e57608052604051610db090816100878239608051818181605201526108130152f35b5f80fd5b634e487b7160e01b5f52604160045260245ffdfe6080806040526004361015610012575f80fd5b5f3560e01c90816372e072791461019557508063abfebfd1146100855763fa1b6c821461003d575f80fd5b34610081575f366003190112610081576040517f00000000000000000000000000000000000000000000000000000000000000006001600160a01b03168152602090f35b5f80fd5b3461008157366003190161014081126100815761012013610081576040516100ac816105bb565b6004356001600160a01b03811681036100815781526024356001600160a01b03811681036100815760208201526044356001600160a01b038116810361008157604082015260643560608201526084356001600160801b038116810361008157608082015260a4356001600160801b03811681036100815760a082015260c43561ffff811681036100815760c082015260e43580151581036100815760e08201526101043560ff8116810361008157610100820152610124356001600160401b0381116100815760209161018761018d9236906004016106c0565b506107e8565b604051908152f35b3461008157604036600319011261008157600435906001600160401b038211610081576101206003198336030112610081576101d0816105bb565b6101dc8260040161060c565b81526101ea6024830161060c565b602082019081526101fd6044840161060c565b906040830191825260648401356001600160401b038111610081578401366023820112156100815760048101359061023482610620565b9161024260405193846105eb565b808352602060048185019260051b840101019136831161008157602401905b8282106105ab575050506060840190815260848501356001600160401b038111610081576102959060043691880101610637565b926080850193845260a48601356001600160401b038111610081576102c09060043691890101610637565b9560a0860196875260c48101356001600160401b03811161008157810190366023830112156100815760048201356102f781610620565b9261030560405194856105eb565b818452602060048186019360051b830101019036821161008157602401915b8183106105905750505060c0870191825260e48101359081151582036100815760e0880191825261010401359160ff831683036100815761010088019283526024356001600160401b038111610081576103859098959836906004016106c0565b98885151976103ac6103968a610620565b996103a46040519b8c6105eb565b808b52610620565b60208a0190601f190136823760208c01975f5b8c51805182101561054c57908b8f928a8a8a8a8f94878080808f948e600160a01b600190039051169b600160a01b600190039051169a600160a01b600190039051169461040b91610706565b5194519061041891610706565b516001600160801b031694519061042e91610706565b516001600160801b031694519061044491610706565b5161ffff1694511515955160ff1696604051986104608a6105bb565b8952602089015260408801526060870152608086015260a085015260c084015260e083015261010082015260405192839163abfebfd160e01b8352600483016104a89161072e565b610124820161014090525180610144830152808d61016484015e808201610164015f9052601f1990601f011681010361016401823091815a6020945f91f18015610541578d925f91610509575b5061050282600194610706565b52016103bf565b9250506020823d8211610539575b81610524602093836105eb565b810103126100815790518c91906105026104f5565b3d9150610517565b6040513d5f823e3d90fd5b838d604051918291602083019060208452518091526040830191905f5b818110610577575050500390f35b8251845285945060209384019390920191600101610569565b823561ffff8116810361008157815260209283019201610324565b8135815260209182019101610261565b61012081019081106001600160401b038211176105d757604052565b634e487b7160e01b5f52604160045260245ffd5b90601f801991011681019081106001600160401b038211176105d757604052565b35906001600160a01b038216820361008157565b6001600160401b0381116105d75760051b60200190565b9080601f830112156100815781359061064f82610620565b9261065d60405194856105eb565b82845260208085019360051b82010191821161008157602001915b8183106106855750505090565b82356001600160801b038116810361008157815260209283019201610678565b6001600160401b0381116105d757601f01601f191660200190565b81601f82011215610081578035906106d7826106a5565b926106e560405194856105eb565b8284526020838301011161008157815f926020809301838601378301015290565b805182101561071a5760209160051b010190565b634e487b7160e01b5f52603260045260245ffd5b60ff610100809260018060a01b03815116855260018060a01b03602082015116602086015260018060a01b036040820151166040860152606081015160608601526001600160801b0360808201511660808601526001600160801b0360a08201511660a086015261ffff60c08201511660c086015260e0810151151560e0860152015116910152565b519060ff8216820361008157565b51906001600160801b038216820361008157565b519061ffff8216820361008157565b600a610100820152604051632031827560e11b815261080a600482018361072e565b5f8161012481837f00000000000000000000000000000000000000000000000000000000000000006001600160a01b03165af1908115610541575f91610ad4575b506101008180518101031261008157610866602082016107b7565b610872604083016107c5565b5061087f606083016107c5565b9161088c608082016107c5565b5061089960a082016107c5565b9060c08101516001600160401b0381160361008157610100816108c160e06108c894016107d9565b50016107d9565b505f915f9360028216151580610ac2575b610aac575b50600816151580610a9a575b610a61575b5090918215610a5a5760e081018051909160049115610a465780516020906001600160a01b03165b60405163313ce56760e01b815293849182906001600160a01b03165afa908115610541575f91610a0a575b835160049350156109f7576020818101516001600160a01b03165b60405163313ce56760e01b815294859182906001600160a01b03165afa928315610541575f936109aa575b506109a79560606001600160801b039201519451151595041692610b5b565b90565b9092506020813d6020116109ef575b816109c6602093836105eb565b81010312610081576109a79560606109e56001600160801b03936107b7565b9492505095610988565b3d91506109b9565b80516020906001600160a01b031661095d565b90506020823d602011610a3e575b81610a25602093836105eb565b8101031261008157610a386004926107b7565b90610942565b3d9150610a18565b6020818101516001600160a01b0316610917565b5050505f90565b6001600160801b03168101809111610a8657905f198114610a8657600101905f6108ef565b634e487b7160e01b5f52601160045260245ffd5b506001600160801b03811615156108ea565b600194506001600160801b0316925060086108de565b506001600160801b03811615156108d9565b90503d805f833e610ae581836105eb565b810190602081830312610081578051906001600160401b038211610081570181601f8201121561008157805190610b1b826106a5565b92610b2960405194856105eb565b8284526020838301011161008157815f9260208093018386015e830101525f61084b565b604d8111610a8657600a0a90565b939192908415610bbd5760ff610b7581610b7c9316610b4d565b9416610b4d565b9115610b9e576109a7936001600160801b03610b99921690610cab565b610cf3565b91610bb5906001600160801b03926109a795610cf3565b911690610bc6565b50505050505f90565b5f19600160401b8209918160401b91828085109403938085039414610c735783821115610c4857600160401b829109600182190182168092046002816003021880820260020302808202600203028082026002030280820260020302808202600203028091026002030293600183805f03040190848311900302920304170290565b60405162461bcd60e51b815260206004820152600360248201526213d19360ea1b6044820152606490fd5b5080925015610c80570490565b606460405162461bcd60e51b81526020600482015260046024820152630444956360e41b6044820152fd5b5f198282099082810292838084109303928084039314610cea5782600160401b1115610c4857600160401b910990828211900360c01b910360401c1790565b50505060401c90565b915f198284099282810292838086109503948086039514610d6c5784831115610c4857829109600182190182168092046002816003021880820260020302808202600203028082026002030280820260020302808202600203028091026002030293600183805f03040190848311900302920304170290565b505080925015610c8057049056fea264697066735822122047548ebedb191323f516546b0c2146c8f88b25902216cbba7e2adafcf4ef9a1d64736f6c634300081e0033","opcodes":"PUSH1 0xA0 CALLVALUE PUSH1 0x6E JUMPI PUSH1 0x1F PUSH2 0xE37 CODESIZE DUP2 SWAP1 SUB SWAP2 DUP3 ADD PUSH1 0x1F NOT AND DUP4 ADD SWAP2 PUSH1 0x1 PUSH1 0x1 PUSH1 0x40 SHL SUB DUP4 GT DUP5 DUP5 LT OR PUSH1 0x72 JUMPI DUP1 DUP5 SWAP3 PUSH1 0x20 SWAP5 PUSH1 0x40 MSTORE DUP4 CODECOPY DUP2 ADD SUB SLT PUSH1 0x6E JUMPI MLOAD PUSH1 0x1 PUSH1 0x1 PUSH1 0xA0 SHL SUB DUP2 AND SWAP1 DUP2 SWAP1 SUB PUSH1 0x6E JUMPI PUSH1 0x80 MSTORE PUSH1 0x40 MLOAD PUSH2 0xDB0 SWAP1 DUP2 PUSH2 0x87 DUP3 CODECOPY PUSH1 0x80 MLOAD DUP2 DUP2 DUP2 PUSH1 0x52 ADD MSTORE PUSH2 0x813 ADD MSTORE RETURN JUMPDEST PUSH0 DUP1 REVERT JUMPDEST PUSH4 0x4E487B71 PUSH1 0xE0 SHL PUSH0 MSTORE PUSH1 0x41 PUSH1 0x4 MSTORE PUSH1 0x24 PUSH0 REVERT INVALID PUSH1 0x80 DUP1 PUSH1 0x40 MSTORE PUSH1 0x4 CALLDATASIZE LT ISZERO PUSH2 0x12 JUMPI PUSH0 DUP1 REVERT JUMPDEST PUSH0 CALLDATALOAD PUSH1 0xE0 SHR SWAP1 DUP2 PUSH4 0x72E07279 EQ PUSH2 0x195 JUMPI POP DUP1 PUSH4 0xABFEBFD1 EQ PUSH2 0x85 JUMPI PUSH4 0xFA1B6C82 EQ PUSH2 0x3D JUMPI PUSH0 DUP1 REVERT JUMPDEST CALLVALUE PUSH2 0x81 JUMPI PUSH0 CALLDATASIZE PUSH1 0x3 NOT ADD SLT PUSH2 0x81 JUMPI PUSH1 0x40 MLOAD PUSH32 0x0 PUSH1 0x1 PUSH1 0x1 PUSH1 0xA0 SHL SUB AND DUP2 MSTORE PUSH1 0x20 SWAP1 RETURN JUMPDEST PUSH0 DUP1 REVERT JUMPDEST CALLVALUE PUSH2 0x81 JUMPI CALLDATASIZE PUSH1 0x3 NOT ADD PUSH2 0x140 DUP2 SLT PUSH2 0x81 JUMPI PUSH2 0x120 SGT PUSH2 0x81 JUMPI PUSH1 0x40 MLOAD PUSH2 0xAC DUP2 PUSH2 0x5BB JUMP JUMPDEST PUSH1 0x4 CALLDATALOAD PUSH1 0x1 PUSH1 0x1 PUSH1 0xA0 SHL SUB DUP2 AND DUP2 SUB PUSH2 0x81 JUMPI DUP2 MSTORE PUSH1 0x24 CALLDATALOAD PUSH1 0x1 PUSH1 0x1 PUSH1 0xA0 SHL SUB DUP2 AND DUP2 SUB PUSH2 0x81 JUMPI PUSH1 0x20 DUP3 ADD MSTORE PUSH1 0x44 CALLDATALOAD PUSH1 0x1 PUSH1 0x1 PUSH1 0xA0 SHL SUB DUP2 AND DUP2 SUB PUSH2 0x81 JUMPI PUSH1 0x40 DUP3 ADD MSTORE PUSH1 0x64 CALLDATALOAD PUSH1 0x60 DUP3 ADD MSTORE PUSH1 0x84 CALLDATALOAD PUSH1 0x1 PUSH1 0x1 PUSH1 0x80 SHL SUB DUP2 AND DUP2 SUB PUSH2 0x81 JUMPI PUSH1 0x80 DUP3 ADD MSTORE PUSH1 0xA4 CALLDATALOAD PUSH1 0x1 PUSH1 0x1 PUSH1 0x80 SHL SUB DUP2 AND DUP2 SUB PUSH2 0x81 JUMPI PUSH1 0xA0 DUP3 ADD MSTORE PUSH1 0xC4 CALLDATALOAD PUSH2 0xFFFF DUP2 AND DUP2 SUB PUSH2 0x81 JUMPI PUSH1 0xC0 DUP3 ADD MSTORE PUSH1 0xE4 CALLDATALOAD DUP1 ISZERO ISZERO DUP2 SUB PUSH2 0x81 JUMPI PUSH1 0xE0 DUP3 ADD MSTORE PUSH2 0x104 CALLDATALOAD PUSH1 0xFF DUP2 AND DUP2 SUB PUSH2 0x81 JUMPI PUSH2 0x100 DUP3 ADD MSTORE PUSH2 0x124 CALLDATALOAD PUSH1 0x1 PUSH1 0x1 PUSH1 0x40 SHL SUB DUP2 GT PUSH2 0x81 JUMPI PUSH1 0x20 SWAP2 PUSH2 0x187 PUSH2 0x18D SWAP3 CALLDATASIZE SWAP1 PUSH1 0x4 ADD PUSH2 0x6C0 JUMP JUMPDEST POP PUSH2 0x7E8 JUMP JUMPDEST PUSH1 0x40 MLOAD SWAP1 DUP2 MSTORE RETURN JUMPDEST CALLVALUE PUSH2 0x81 JUMPI PUSH1 0x40 CALLDATASIZE PUSH1 0x3 NOT ADD SLT PUSH2 0x81 JUMPI PUSH1 0x4 CALLDATALOAD SWAP1 PUSH1 0x1 PUSH1 0x1 PUSH1 0x40 SHL SUB DUP3 GT PUSH2 0x81 JUMPI PUSH2 0x120 PUSH1 0x3 NOT DUP4 CALLDATASIZE SUB ADD SLT PUSH2 0x81 JUMPI PUSH2 0x1D0 DUP2 PUSH2 0x5BB JUMP JUMPDEST PUSH2 0x1DC DUP3 PUSH1 0x4 ADD PUSH2 0x60C JUMP JUMPDEST DUP2 MSTORE PUSH2 0x1EA PUSH1 0x24 DUP4 ADD PUSH2 0x60C JUMP JUMPDEST PUSH1 0x20 DUP3 ADD SWAP1 DUP2 MSTORE PUSH2 0x1FD PUSH1 0x44 DUP5 ADD PUSH2 0x60C JUMP JUMPDEST SWAP1 PUSH1 0x40 DUP4 ADD SWAP2 DUP3 MSTORE PUSH1 0x64 DUP5 ADD CALLDATALOAD PUSH1 0x1 PUSH1 0x1 PUSH1 0x40 SHL SUB DUP2 GT PUSH2 0x81 JUMPI DUP5 ADD CALLDATASIZE PUSH1 0x23 DUP3 ADD SLT ISZERO PUSH2 0x81 JUMPI PUSH1 0x4 DUP2 ADD CALLDATALOAD SWAP1 PUSH2 0x234 DUP3 PUSH2 0x620 JUMP JUMPDEST SWAP2 PUSH2 0x242 PUSH1 0x40 MLOAD SWAP4 DUP5 PUSH2 0x5EB JUMP JUMPDEST DUP1 DUP4 MSTORE PUSH1 0x20 PUSH1 0x4 DUP2 DUP6 ADD SWAP3 PUSH1 0x5 SHL DUP5 ADD ADD ADD SWAP2 CALLDATASIZE DUP4 GT PUSH2 0x81 JUMPI PUSH1 0x24 ADD SWAP1 JUMPDEST DUP3 DUP3 LT PUSH2 0x5AB JUMPI POP POP POP PUSH1 0x60 DUP5 ADD SWAP1 DUP2 MSTORE PUSH1 0x84 DUP6 ADD CALLDATALOAD PUSH1 0x1 PUSH1 0x1 PUSH1 0x40 SHL SUB DUP2 GT PUSH2 0x81 JUMPI PUSH2 0x295 SWAP1 PUSH1 0x4 CALLDATASIZE SWAP2 DUP9 ADD ADD PUSH2 0x637 JUMP JUMPDEST SWAP3 PUSH1 0x80 DUP6 ADD SWAP4 DUP5 MSTORE PUSH1 0xA4 DUP7 ADD CALLDATALOAD PUSH1 0x1 PUSH1 0x1 PUSH1 0x40 SHL SUB DUP2 GT PUSH2 0x81 JUMPI PUSH2 0x2C0 SWAP1 PUSH1 0x4 CALLDATASIZE SWAP2 DUP10 ADD ADD PUSH2 0x637 JUMP JUMPDEST SWAP6 PUSH1 0xA0 DUP7 ADD SWAP7 DUP8 MSTORE PUSH1 0xC4 DUP2 ADD CALLDATALOAD PUSH1 0x1 PUSH1 0x1 PUSH1 0x40 SHL SUB DUP2 GT PUSH2 0x81 JUMPI DUP2 ADD SWAP1 CALLDATASIZE PUSH1 0x23 DUP4 ADD SLT ISZERO PUSH2 0x81 JUMPI PUSH1 0x4 DUP3 ADD CALLDATALOAD PUSH2 0x2F7 DUP2 PUSH2 0x620 JUMP JUMPDEST SWAP3 PUSH2 0x305 PUSH1 0x40 MLOAD SWAP5 DUP6 PUSH2 0x5EB JUMP JUMPDEST DUP2 DUP5 MSTORE PUSH1 0x20 PUSH1 0x4 DUP2 DUP7 ADD SWAP4 PUSH1 0x5 SHL DUP4 ADD ADD ADD SWAP1 CALLDATASIZE DUP3 GT PUSH2 0x81 JUMPI PUSH1 0x24 ADD SWAP2 JUMPDEST DUP2 DUP4 LT PUSH2 0x590 JUMPI POP POP POP PUSH1 0xC0 DUP8 ADD SWAP2 DUP3 MSTORE PUSH1 0xE4 DUP2 ADD CALLDATALOAD SWAP1 DUP2 ISZERO ISZERO DUP3 SUB PUSH2 0x81 JUMPI PUSH1 0xE0 DUP9 ADD SWAP2 DUP3 MSTORE PUSH2 0x104 ADD CALLDATALOAD SWAP2 PUSH1 0xFF DUP4 AND DUP4 SUB PUSH2 0x81 JUMPI PUSH2 0x100 DUP9 ADD SWAP3 DUP4 MSTORE PUSH1 0x24 CALLDATALOAD PUSH1 0x1 PUSH1 0x1 PUSH1 0x40 SHL SUB DUP2 GT PUSH2 0x81 JUMPI PUSH2 0x385 SWAP1 SWAP9 SWAP6 SWAP9 CALLDATASIZE SWAP1 PUSH1 0x4 ADD PUSH2 0x6C0 JUMP JUMPDEST SWAP9 DUP9 MLOAD MLOAD SWAP8 PUSH2 0x3AC PUSH2 0x396 DUP11 PUSH2 0x620 JUMP JUMPDEST SWAP10 PUSH2 0x3A4 PUSH1 0x40 MLOAD SWAP12 DUP13 PUSH2 0x5EB JUMP JUMPDEST DUP1 DUP12 MSTORE PUSH2 0x620 JUMP JUMPDEST PUSH1 0x20 DUP11 ADD SWAP1 PUSH1 0x1F NOT ADD CALLDATASIZE DUP3 CALLDATACOPY PUSH1 0x20 DUP13 ADD SWAP8 PUSH0 JUMPDEST DUP13 MLOAD DUP1 MLOAD DUP3 LT ISZERO PUSH2 0x54C JUMPI SWAP1 DUP12 DUP16 SWAP3 DUP11 DUP11 DUP11 DUP11 DUP16 SWAP5 DUP8 DUP1 DUP1 DUP1 DUP16 SWAP5 DUP15 PUSH1 0x1 PUSH1 0xA0 SHL PUSH1 0x1 SWAP1 SUB SWAP1 MLOAD AND SWAP12 PUSH1 0x1 PUSH1 0xA0 SHL PUSH1 0x1 SWAP1 SUB SWAP1 MLOAD AND SWAP11 PUSH1 0x1 PUSH1 0xA0 SHL PUSH1 0x1 SWAP1 SUB SWAP1 MLOAD AND SWAP5 PUSH2 0x40B SWAP2 PUSH2 0x706 JUMP JUMPDEST MLOAD SWAP5 MLOAD SWAP1 PUSH2 0x418 SWAP2 PUSH2 0x706 JUMP JUMPDEST MLOAD PUSH1 0x1 PUSH1 0x1 PUSH1 0x80 SHL SUB AND SWAP5 MLOAD SWAP1 PUSH2 0x42E SWAP2 PUSH2 0x706 JUMP JUMPDEST MLOAD PUSH1 0x1 PUSH1 0x1 PUSH1 0x80 SHL SUB AND SWAP5 MLOAD SWAP1 PUSH2 0x444 SWAP2 PUSH2 0x706 JUMP JUMPDEST MLOAD PUSH2 0xFFFF AND SWAP5 MLOAD ISZERO ISZERO SWAP6 MLOAD PUSH1 0xFF AND SWAP7 PUSH1 0x40 MLOAD SWAP9 PUSH2 0x460 DUP11 PUSH2 0x5BB JUMP JUMPDEST DUP10 MSTORE PUSH1 0x20 DUP10 ADD MSTORE PUSH1 0x40 DUP9 ADD MSTORE PUSH1 0x60 DUP8 ADD MSTORE PUSH1 0x80 DUP7 ADD MSTORE PUSH1 0xA0 DUP6 ADD MSTORE PUSH1 0xC0 DUP5 ADD MSTORE PUSH1 0xE0 DUP4 ADD MSTORE PUSH2 0x100 DUP3 ADD MSTORE PUSH1 0x40 MLOAD SWAP3 DUP4 SWAP2 PUSH4 0xABFEBFD1 PUSH1 0xE0 SHL DUP4 MSTORE PUSH1 0x4 DUP4 ADD PUSH2 0x4A8 SWAP2 PUSH2 0x72E JUMP JUMPDEST PUSH2 0x124 DUP3 ADD PUSH2 0x140 SWAP1 MSTORE MLOAD DUP1 PUSH2 0x144 DUP4 ADD MSTORE DUP1 DUP14 PUSH2 0x164 DUP5 ADD MCOPY DUP1 DUP3 ADD PUSH2 0x164 ADD PUSH0 SWAP1 MSTORE PUSH1 0x1F NOT SWAP1 PUSH1 0x1F ADD AND DUP2 ADD SUB PUSH2 0x164 ADD DUP3 ADDRESS SWAP2 DUP2 GAS PUSH1 0x20 SWAP5 PUSH0 SWAP2 CALL DUP1 ISZERO PUSH2 0x541 JUMPI DUP14 SWAP3 PUSH0 SWAP2 PUSH2 0x509 JUMPI JUMPDEST POP PUSH2 0x502 DUP3 PUSH1 0x1 SWAP5 PUSH2 0x706 JUMP JUMPDEST MSTORE ADD PUSH2 0x3BF JUMP JUMPDEST SWAP3 POP POP PUSH1 0x20 DUP3 RETURNDATASIZE DUP3 GT PUSH2 0x539 JUMPI JUMPDEST DUP2 PUSH2 0x524 PUSH1 0x20 SWAP4 DUP4 PUSH2 0x5EB JUMP JUMPDEST DUP2 ADD SUB SLT PUSH2 0x81 JUMPI SWAP1 MLOAD DUP13 SWAP2 SWAP1 PUSH2 0x502 PUSH2 0x4F5 JUMP JUMPDEST RETURNDATASIZE SWAP2 POP PUSH2 0x517 JUMP JUMPDEST PUSH1 0x40 MLOAD RETURNDATASIZE PUSH0 DUP3 RETURNDATACOPY RETURNDATASIZE SWAP1 REVERT JUMPDEST DUP4 DUP14 PUSH1 0x40 MLOAD SWAP2 DUP3 SWAP2 PUSH1 0x20 DUP4 ADD SWAP1 PUSH1 0x20 DUP5 MSTORE MLOAD DUP1 SWAP2 MSTORE PUSH1 0x40 DUP4 ADD SWAP2 SWAP1 PUSH0 JUMPDEST DUP2 DUP2 LT PUSH2 0x577 JUMPI POP POP POP SUB SWAP1 RETURN JUMPDEST DUP3 MLOAD DUP5 MSTORE DUP6 SWAP5 POP PUSH1 0x20 SWAP4 DUP5 ADD SWAP4 SWAP1 SWAP3 ADD SWAP2 PUSH1 0x1 ADD PUSH2 0x569 JUMP JUMPDEST DUP3 CALLDATALOAD PUSH2 0xFFFF DUP2 AND DUP2 SUB PUSH2 0x81 JUMPI DUP2 MSTORE PUSH1 0x20 SWAP3 DUP4 ADD SWAP3 ADD PUSH2 0x324 JUMP JUMPDEST DUP2 CALLDATALOAD DUP2 MSTORE PUSH1 0x20 SWAP2 DUP3 ADD SWAP2 ADD PUSH2 0x261 JUMP JUMPDEST PUSH2 0x120 DUP2 ADD SWAP1 DUP2 LT PUSH1 0x1 PUSH1 0x1 PUSH1 0x40 SHL SUB DUP3 GT OR PUSH2 0x5D7 JUMPI PUSH1 0x40 MSTORE JUMP JUMPDEST PUSH4 0x4E487B71 PUSH1 0xE0 SHL PUSH0 MSTORE PUSH1 0x41 PUSH1 0x4 MSTORE PUSH1 0x24 PUSH0 REVERT JUMPDEST SWAP1 PUSH1 0x1F DUP1 NOT SWAP2 ADD AND DUP2 ADD SWAP1 DUP2 LT PUSH1 0x1 PUSH1 0x1 PUSH1 0x40 SHL SUB DUP3 GT OR PUSH2 0x5D7 JUMPI PUSH1 0x40 MSTORE JUMP JUMPDEST CALLDATALOAD SWAP1 PUSH1 0x1 PUSH1 0x1 PUSH1 0xA0 SHL SUB DUP3 AND DUP3 SUB PUSH2 0x81 JUMPI JUMP JUMPDEST PUSH1 0x1 PUSH1 0x1 PUSH1 0x40 SHL SUB DUP2 GT PUSH2 0x5D7 JUMPI PUSH1 0x5 SHL PUSH1 0x20 ADD SWAP1 JUMP JUMPDEST SWAP1 DUP1 PUSH1 0x1F DUP4 ADD SLT ISZERO PUSH2 0x81 JUMPI DUP2 CALLDATALOAD SWAP1 PUSH2 0x64F DUP3 PUSH2 0x620 JUMP JUMPDEST SWAP3 PUSH2 0x65D PUSH1 0x40 MLOAD SWAP5 DUP6 PUSH2 0x5EB JUMP JUMPDEST DUP3 DUP5 MSTORE PUSH1 0x20 DUP1 DUP6 ADD SWAP4 PUSH1 0x5 SHL DUP3 ADD ADD SWAP2 DUP3 GT PUSH2 0x81 JUMPI PUSH1 0x20 ADD SWAP2 JUMPDEST DUP2 DUP4 LT PUSH2 0x685 JUMPI POP POP POP SWAP1 JUMP JUMPDEST DUP3 CALLDATALOAD PUSH1 0x1 PUSH1 0x1 PUSH1 0x80 SHL SUB DUP2 AND DUP2 SUB PUSH2 0x81 JUMPI DUP2 MSTORE PUSH1 0x20 SWAP3 DUP4 ADD SWAP3 ADD PUSH2 0x678 JUMP JUMPDEST PUSH1 0x1 PUSH1 0x1 PUSH1 0x40 SHL SUB DUP2 GT PUSH2 0x5D7 JUMPI PUSH1 0x1F ADD PUSH1 0x1F NOT AND PUSH1 0x20 ADD SWAP1 JUMP JUMPDEST DUP2 PUSH1 0x1F DUP3 ADD SLT ISZERO PUSH2 0x81 JUMPI DUP1 CALLDATALOAD SWAP1 PUSH2 0x6D7 DUP3 PUSH2 0x6A5 JUMP JUMPDEST SWAP3 PUSH2 0x6E5 PUSH1 0x40 MLOAD SWAP5 DUP6 PUSH2 0x5EB JUMP JUMPDEST DUP3 DUP5 MSTORE PUSH1 0x20 DUP4 DUP4 ADD ADD GT PUSH2 0x81 JUMPI DUP2 PUSH0 SWAP3 PUSH1 0x20 DUP1 SWAP4 ADD DUP4 DUP7 ADD CALLDATACOPY DUP4 ADD ADD MSTORE SWAP1 JUMP JUMPDEST DUP1 MLOAD DUP3 LT ISZERO PUSH2 0x71A JUMPI PUSH1 0x20 SWAP2 PUSH1 0x5 SHL ADD ADD SWAP1 JUMP JUMPDEST PUSH4 0x4E487B71 PUSH1 0xE0 SHL PUSH0 MSTORE PUSH1 0x32 PUSH1 0x4 MSTORE PUSH1 0x24 PUSH0 REVERT JUMPDEST PUSH1 0xFF PUSH2 0x100 DUP1 SWAP3 PUSH1 0x1 DUP1 PUSH1 0xA0 SHL SUB DUP2 MLOAD AND DUP6 MSTORE PUSH1 0x1 DUP1 PUSH1 0xA0 SHL SUB PUSH1 0x20 DUP3 ADD MLOAD AND PUSH1 0x20 DUP7 ADD MSTORE PUSH1 0x1 DUP1 PUSH1 0xA0 SHL SUB PUSH1 0x40 DUP3 ADD MLOAD AND PUSH1 0x40 DUP7 ADD MSTORE PUSH1 0x60 DUP2 ADD MLOAD PUSH1 0x60 DUP7 ADD MSTORE PUSH1 0x1 PUSH1 0x1 PUSH1 0x80 SHL SUB PUSH1 0x80 DUP3 ADD MLOAD AND PUSH1 0x80 DUP7 ADD MSTORE PUSH1 0x1 PUSH1 0x1 PUSH1 0x80 SHL SUB PUSH1 0xA0 DUP3 ADD MLOAD AND PUSH1 0xA0 DUP7 ADD MSTORE PUSH2 0xFFFF PUSH1 0xC0 DUP3 ADD MLOAD AND PUSH1 0xC0 DUP7 ADD MSTORE PUSH1 0xE0 DUP2 ADD MLOAD ISZERO ISZERO PUSH1 0xE0 DUP7 ADD MSTORE ADD MLOAD AND SWAP2 ADD MSTORE JUMP JUMPDEST MLOAD SWAP1 PUSH1 0xFF DUP3 AND DUP3 SUB PUSH2 0x81 JUMPI JUMP JUMPDEST MLOAD SWAP1 PUSH1 0x1 PUSH1 0x1 PUSH1 0x80 SHL SUB DUP3 AND DUP3 SUB PUSH2 0x81 JUMPI JUMP JUMPDEST MLOAD SWAP1 PUSH2 0xFFFF DUP3 AND DUP3 SUB PUSH2 0x81 JUMPI JUMP JUMPDEST PUSH1 0xA PUSH2 0x100 DUP3 ADD MSTORE PUSH1 0x40 MLOAD PUSH4 0x20318275 PUSH1 0xE1 SHL DUP2 MSTORE PUSH2 0x80A PUSH1 0x4 DUP3 ADD DUP4 PUSH2 0x72E JUMP JUMPDEST PUSH0 DUP2 PUSH2 0x124 DUP2 DUP4 PUSH32 0x0 PUSH1 0x1 PUSH1 0x1 PUSH1 0xA0 SHL SUB AND GAS CALL SWAP1 DUP2 ISZERO PUSH2 0x541 JUMPI PUSH0 SWAP2 PUSH2 0xAD4 JUMPI JUMPDEST POP PUSH2 0x100 DUP2 DUP1 MLOAD DUP2 ADD SUB SLT PUSH2 0x81 JUMPI PUSH2 0x866 PUSH1 0x20 DUP3 ADD PUSH2 0x7B7 JUMP JUMPDEST PUSH2 0x872 PUSH1 0x40 DUP4 ADD PUSH2 0x7C5 JUMP JUMPDEST POP PUSH2 0x87F PUSH1 0x60 DUP4 ADD PUSH2 0x7C5 JUMP JUMPDEST SWAP2 PUSH2 0x88C PUSH1 0x80 DUP3 ADD PUSH2 0x7C5 JUMP JUMPDEST POP PUSH2 0x899 PUSH1 0xA0 DUP3 ADD PUSH2 0x7C5 JUMP JUMPDEST SWAP1 PUSH1 0xC0 DUP2 ADD MLOAD PUSH1 0x1 PUSH1 0x1 PUSH1 0x40 SHL SUB DUP2 AND SUB PUSH2 0x81 JUMPI PUSH2 0x100 DUP2 PUSH2 0x8C1 PUSH1 0xE0 PUSH2 0x8C8 SWAP5 ADD PUSH2 0x7D9 JUMP JUMPDEST POP ADD PUSH2 0x7D9 JUMP JUMPDEST POP PUSH0 SWAP2 PUSH0 SWAP4 PUSH1 0x2 DUP3 AND ISZERO ISZERO DUP1 PUSH2 0xAC2 JUMPI JUMPDEST PUSH2 0xAAC JUMPI JUMPDEST POP PUSH1 0x8 AND ISZERO ISZERO DUP1 PUSH2 0xA9A JUMPI JUMPDEST PUSH2 0xA61 JUMPI JUMPDEST POP SWAP1 SWAP2 DUP3 ISZERO PUSH2 0xA5A JUMPI PUSH1 0xE0 DUP2 ADD DUP1 MLOAD SWAP1 SWAP2 PUSH1 0x4 SWAP2 ISZERO PUSH2 0xA46 JUMPI DUP1 MLOAD PUSH1 0x20 SWAP1 PUSH1 0x1 PUSH1 0x1 PUSH1 0xA0 SHL SUB AND JUMPDEST PUSH1 0x40 MLOAD PUSH4 0x313CE567 PUSH1 0xE0 SHL DUP2 MSTORE SWAP4 DUP5 SWAP2 DUP3 SWAP1 PUSH1 0x1 PUSH1 0x1 PUSH1 0xA0 SHL SUB AND GAS STATICCALL SWAP1 DUP2 ISZERO PUSH2 0x541 JUMPI PUSH0 SWAP2 PUSH2 0xA0A JUMPI JUMPDEST DUP4 MLOAD PUSH1 0x4 SWAP4 POP ISZERO PUSH2 0x9F7 JUMPI PUSH1 0x20 DUP2 DUP2 ADD MLOAD PUSH1 0x1 PUSH1 0x1 PUSH1 0xA0 SHL SUB AND JUMPDEST PUSH1 0x40 MLOAD PUSH4 0x313CE567 PUSH1 0xE0 SHL DUP2 MSTORE SWAP5 DUP6 SWAP2 DUP3 SWAP1 PUSH1 0x1 PUSH1 0x1 PUSH1 0xA0 SHL SUB AND GAS STATICCALL SWAP3 DUP4 ISZERO PUSH2 0x541 JUMPI PUSH0 SWAP4 PUSH2 0x9AA JUMPI JUMPDEST POP PUSH2 0x9A7 SWAP6 PUSH1 0x60 PUSH1 0x1 PUSH1 0x1 PUSH1 0x80 SHL SUB SWAP3 ADD MLOAD SWAP5 MLOAD ISZERO ISZERO SWAP6 DIV AND SWAP3 PUSH2 0xB5B JUMP JUMPDEST SWAP1 JUMP JUMPDEST SWAP1 SWAP3 POP PUSH1 0x20 DUP2 RETURNDATASIZE PUSH1 0x20 GT PUSH2 0x9EF JUMPI JUMPDEST DUP2 PUSH2 0x9C6 PUSH1 0x20 SWAP4 DUP4 PUSH2 0x5EB JUMP JUMPDEST DUP2 ADD SUB SLT PUSH2 0x81 JUMPI PUSH2 0x9A7 SWAP6 PUSH1 0x60 PUSH2 0x9E5 PUSH1 0x1 PUSH1 0x1 PUSH1 0x80 SHL SUB SWAP4 PUSH2 0x7B7 JUMP JUMPDEST SWAP5 SWAP3 POP POP SWAP6 PUSH2 0x988 JUMP JUMPDEST RETURNDATASIZE SWAP2 POP PUSH2 0x9B9 JUMP JUMPDEST DUP1 MLOAD PUSH1 0x20 SWAP1 PUSH1 0x1 PUSH1 0x1 PUSH1 0xA0 SHL SUB AND PUSH2 0x95D JUMP JUMPDEST SWAP1 POP PUSH1 0x20 DUP3 RETURNDATASIZE PUSH1 0x20 GT PUSH2 0xA3E JUMPI JUMPDEST DUP2 PUSH2 0xA25 PUSH1 0x20 SWAP4 DUP4 PUSH2 0x5EB JUMP JUMPDEST DUP2 ADD SUB SLT PUSH2 0x81 JUMPI PUSH2 0xA38 PUSH1 0x4 SWAP3 PUSH2 0x7B7 JUMP JUMPDEST SWAP1 PUSH2 0x942 JUMP JUMPDEST RETURNDATASIZE SWAP2 POP PUSH2 0xA18 JUMP JUMPDEST PUSH1 0x20 DUP2 DUP2 ADD MLOAD PUSH1 0x1 PUSH1 0x1 PUSH1 0xA0 SHL SUB AND PUSH2 0x917 JUMP JUMPDEST POP POP POP PUSH0 SWAP1 JUMP JUMPDEST PUSH1 0x1 PUSH1 0x1 PUSH1 0x80 SHL SUB AND DUP2 ADD DUP1 SWAP2 GT PUSH2 0xA86 JUMPI SWAP1 PUSH0 NOT DUP2 EQ PUSH2 0xA86 JUMPI PUSH1 0x1 ADD SWAP1 PUSH0 PUSH2 0x8EF JUMP JUMPDEST PUSH4 0x4E487B71 PUSH1 0xE0 SHL PUSH0 MSTORE PUSH1 0x11 PUSH1 0x4 MSTORE PUSH1 0x24 PUSH0 REVERT JUMPDEST POP PUSH1 0x1 PUSH1 0x1 PUSH1 0x80 SHL SUB DUP2 AND ISZERO ISZERO PUSH2 0x8EA JUMP JUMPDEST PUSH1 0x1 SWAP5 POP PUSH1 0x1 PUSH1 0x1 PUSH1 0x80 SHL SUB AND SWAP3 POP PUSH1 0x8 PUSH2 0x8DE JUMP JUMPDEST POP PUSH1 0x1 PUSH1 0x1 PUSH1 0x80 SHL SUB DUP2 AND ISZERO ISZERO PUSH2 0x8D9 JUMP JUMPDEST SWAP1 POP RETURNDATASIZE DUP1 PUSH0 DUP4 RETURNDATACOPY PUSH2 0xAE5 DUP2 DUP4 PUSH2 0x5EB JUMP JUMPDEST DUP2 ADD SWAP1 PUSH1 0x20 DUP2 DUP4 SUB SLT PUSH2 0x81 JUMPI DUP1 MLOAD SWAP1 PUSH1 0x1 PUSH1 0x1 PUSH1 0x40 SHL SUB DUP3 GT PUSH2 0x81 JUMPI ADD DUP2 PUSH1 0x1F DUP3 ADD SLT ISZERO PUSH2 0x81 JUMPI DUP1 MLOAD SWAP1 PUSH2 0xB1B DUP3 PUSH2 0x6A5 JUMP JUMPDEST SWAP3 PUSH2 0xB29 PUSH1 0x40 MLOAD SWAP5 DUP6 PUSH2 0x5EB JUMP JUMPDEST DUP3 DUP5 MSTORE PUSH1 0x20 DUP4 DUP4 ADD ADD GT PUSH2 0x81 JUMPI DUP2 PUSH0 SWAP3 PUSH1 0x20 DUP1 SWAP4 ADD DUP4 DUP7 ADD MCOPY DUP4 ADD ADD MSTORE PUSH0 PUSH2 0x84B JUMP JUMPDEST PUSH1 0x4D DUP2 GT PUSH2 0xA86 JUMPI PUSH1 0xA EXP SWAP1 JUMP JUMPDEST SWAP4 SWAP2 SWAP3 SWAP1 DUP5 ISZERO PUSH2 0xBBD JUMPI PUSH1 0xFF PUSH2 0xB75 DUP2 PUSH2 0xB7C SWAP4 AND PUSH2 0xB4D JUMP JUMPDEST SWAP5 AND PUSH2 0xB4D JUMP JUMPDEST SWAP2 ISZERO PUSH2 0xB9E JUMPI PUSH2 0x9A7 SWAP4 PUSH1 0x1 PUSH1 0x1 PUSH1 0x80 SHL SUB PUSH2 0xB99 SWAP3 AND SWAP1 PUSH2 0xCAB JUMP JUMPDEST PUSH2 0xCF3 JUMP JUMPDEST SWAP2 PUSH2 0xBB5 SWAP1 PUSH1 0x1 PUSH1 0x1 PUSH1 0x80 SHL SUB SWAP3 PUSH2 0x9A7 SWAP6 PUSH2 0xCF3 JUMP JUMPDEST SWAP2 AND SWAP1 PUSH2 0xBC6 JUMP JUMPDEST POP POP POP POP POP PUSH0 SWAP1 JUMP JUMPDEST PUSH0 NOT PUSH1 0x1 PUSH1 0x40 SHL DUP3 MULMOD SWAP2 DUP2 PUSH1 0x40 SHL SWAP2 DUP3 DUP1 DUP6 LT SWAP5 SUB SWAP4 DUP1 DUP6 SUB SWAP5 EQ PUSH2 0xC73 JUMPI DUP4 DUP3 GT ISZERO PUSH2 0xC48 JUMPI PUSH1 0x1 PUSH1 0x40 SHL DUP3 SWAP2 MULMOD PUSH1 0x1 DUP3 NOT ADD DUP3 AND DUP1 SWAP3 DIV PUSH1 0x2 DUP2 PUSH1 0x3 MUL XOR DUP1 DUP3 MUL PUSH1 0x2 SUB MUL DUP1 DUP3 MUL PUSH1 0x2 SUB MUL DUP1 DUP3 MUL PUSH1 0x2 SUB MUL DUP1 DUP3 MUL PUSH1 0x2 SUB MUL DUP1 DUP3 MUL PUSH1 0x2 SUB MUL DUP1 SWAP2 MUL PUSH1 0x2 SUB MUL SWAP4 PUSH1 0x1 DUP4 DUP1 PUSH0 SUB DIV ADD SWAP1 DUP5 DUP4 GT SWAP1 SUB MUL SWAP3 SUB DIV OR MUL SWAP1 JUMP JUMPDEST PUSH1 0x40 MLOAD PUSH3 0x461BCD PUSH1 0xE5 SHL DUP2 MSTORE PUSH1 0x20 PUSH1 0x4 DUP3 ADD MSTORE PUSH1 0x3 PUSH1 0x24 DUP3 ADD MSTORE PUSH3 0x13D193 PUSH1 0xEA SHL PUSH1 0x44 DUP3 ADD MSTORE PUSH1 0x64 SWAP1 REVERT JUMPDEST POP DUP1 SWAP3 POP ISZERO PUSH2 0xC80 JUMPI DIV SWAP1 JUMP JUMPDEST PUSH1 0x64 PUSH1 0x40 MLOAD PUSH3 0x461BCD PUSH1 0xE5 SHL DUP2 MSTORE PUSH1 0x20 PUSH1 0x4 DUP3 ADD MSTORE PUSH1 0x4 PUSH1 0x24 DUP3 ADD MSTORE PUSH4 0x4449563 PUSH1 0xE4 SHL PUSH1 0x44 DUP3 ADD MSTORE REVERT JUMPDEST PUSH0 NOT DUP3 DUP3 MULMOD SWAP1 DUP3 DUP2 MUL SWAP3 DUP4 DUP1 DUP5 LT SWAP4 SUB SWAP3 DUP1 DUP5 SUB SWAP4 EQ PUSH2 0xCEA JUMPI DUP3 PUSH1 0x1 PUSH1 0x40 SHL GT ISZERO PUSH2 0xC48 JUMPI PUSH1 0x1 PUSH1 0x40 SHL SWAP2 MULMOD SWAP1 DUP3 DUP3 GT SWAP1 SUB PUSH1 0xC0 SHL SWAP2 SUB PUSH1 0x40 SHR OR SWAP1 JUMP JUMPDEST POP POP POP PUSH1 0x40 SHR SWAP1 JUMP JUMPDEST SWAP2 PUSH0 NOT DUP3 DUP5 MULMOD SWAP3 DUP3 DUP2 MUL SWAP3 DUP4 DUP1 DUP7 LT SWAP6 SUB SWAP5 DUP1 DUP7 SUB SWAP6 EQ PUSH2 0xD6C JUMPI DUP5 DUP4 GT ISZERO PUSH2 0xC48 JUMPI DUP3 SWAP2 MULMOD PUSH1 0x1 DUP3 NOT ADD DUP3 AND DUP1 SWAP3 DIV PUSH1 0x2 DUP2 PUSH1 0x3 MUL XOR DUP1 DUP3 MUL PUSH1 0x2 SUB MUL DUP1 DUP3 MUL PUSH1 0x2 SUB MUL DUP1 DUP3 MUL PUSH1 0x2 SUB MUL DUP1 DUP3 MUL PUSH1 0x2 SUB MUL DUP1 DUP3 MUL PUSH1 0x2 SUB MUL DUP1 SWAP2 MUL PUSH1 0x2 SUB MUL SWAP4 PUSH1 0x1 DUP4 DUP1 PUSH0 SUB DIV ADD SWAP1 DUP5 DUP4 GT SWAP1 SUB MUL SWAP3 SUB DIV OR MUL SWAP1 JUMP JUMPDEST POP POP DUP1 SWAP3 POP ISZERO PUSH2 0xC80 JUMPI DIV SWAP1 JUMP INVALID LOG2 PUSH5 0x6970667358 0x22 SLT KECCAK256 SELFBALANCE SLOAD DUP15 0xBE 0xDB NOT SGT 0x23 CREATE2 AND SLOAD PUSH12 0xC2146C8F88B25902216CBBA PUSH31 0x2ADAFCF4EF9A1D64736F6C634300081E003300000000000000000000000000 "},"methodIdentifiers":{"quote((address,address,address,uint256,uint128,uint128,uint16,bool,uint8),bytes)":"abfebfd1","quoteBatch((address,address,address,uint256[],uint128[],uint128[],uint16[],bool,uint8),bytes)":"72e07279","stoixBridge()":"fa1b6c82"}}}}}