{"contracts/z_remix_test/SwapTwiceHelper.sol":{"SwapTwiceHelper":{"abi":[{"inputs":[{"internalType":"contract PoolManager","name":"pm","type":"address"},{"internalType":"address","name":"asset0","type":"address"},{"internalType":"address","name":"asset1","type":"address"},{"internalType":"address","name":"quoter","type":"address"},{"internalType":"bytes3","name":"markings","type":"bytes3"},{"internalType":"uint256","name":"amountIn","type":"uint256"},{"internalType":"bool","name":"zeroForOne","type":"bool"},{"internalType":"uint256","name":"minOut","type":"uint256"}],"name":"swapTwice","outputs":[{"internalType":"uint256","name":"firstOut","type":"uint256"},{"internalType":"uint256","name":"secondOut","type":"uint256"}],"stateMutability":"nonpayable","type":"function"}],"evm":{"bytecode":{"linkReferences":{},"object":"60808060405234601557610263908161001a8239f35b5f80fdfe6080806040526004361015610012575f80fd5b5f3560e01c63d74256bc14610025575f80fd5b3461015c5761010036600319011261015c576004356001600160a01b038116919082900361015c57602435906001600160a01b038216820361015c57604435926001600160a01b038416840361015c57606435906001600160a01b038216820361015c57608435946001600160e81b03198616860361015c5760a4359460c435801515810361015c5763364af21360e21b865260e43590602087806100d385858d8f8d8c8c600489016101e1565b03815f895af1968715610168575f97610173575b505f929161011091602098996040519b8c998a98899763364af21360e21b8952600489016101e1565b03925af18015610168575f90610131575b6040809350519182526020820152f35b506020823d602011610160575b8161014b602093836101ab565b8101031261015c5760409151610121565b5f80fd5b3d915061013e565b6040513d5f823e3d90fd5b90929196506020813d6020116101a3575b81610191602093836101ab565b8101031261015c57519590915f6100e7565b3d9150610184565b90601f8019910116810190811067ffffffffffffffff8211176101cd57604052565b634e487b7160e01b5f52604160045260245ffd5b6001600160a01b039182168152918116602083015290911660408201526001600160e81b03199091166060820152608081019190915290151560a082015260c081019190915260e0019056fea2646970667358221220647f79d09ce154dff0d34940947d9b74868c6a9f94dc794da568fc94e8a9719864736f6c634300081e0033","opcodes":"PUSH1 0x80 DUP1 PUSH1 0x40 MSTORE CALLVALUE PUSH1 0x15 JUMPI PUSH2 0x263 SWAP1 DUP2 PUSH2 0x1A DUP3 CODECOPY RETURN JUMPDEST PUSH0 DUP1 REVERT INVALID PUSH1 0x80 DUP1 PUSH1 0x40 MSTORE PUSH1 0x4 CALLDATASIZE LT ISZERO PUSH2 0x12 JUMPI PUSH0 DUP1 REVERT JUMPDEST PUSH0 CALLDATALOAD PUSH1 0xE0 SHR PUSH4 0xD74256BC EQ PUSH2 0x25 JUMPI PUSH0 DUP1 REVERT JUMPDEST CALLVALUE PUSH2 0x15C JUMPI PUSH2 0x100 CALLDATASIZE PUSH1 0x3 NOT ADD SLT PUSH2 0x15C JUMPI PUSH1 0x4 CALLDATALOAD PUSH1 0x1 PUSH1 0x1 PUSH1 0xA0 SHL SUB DUP2 AND SWAP2 SWAP1 DUP3 SWAP1 SUB PUSH2 0x15C JUMPI PUSH1 0x24 CALLDATALOAD SWAP1 PUSH1 0x1 PUSH1 0x1 PUSH1 0xA0 SHL SUB DUP3 AND DUP3 SUB PUSH2 0x15C JUMPI PUSH1 0x44 CALLDATALOAD SWAP3 PUSH1 0x1 PUSH1 0x1 PUSH1 0xA0 SHL SUB DUP5 AND DUP5 SUB PUSH2 0x15C JUMPI PUSH1 0x64 CALLDATALOAD SWAP1 PUSH1 0x1 PUSH1 0x1 PUSH1 0xA0 SHL SUB DUP3 AND DUP3 SUB PUSH2 0x15C JUMPI PUSH1 0x84 CALLDATALOAD SWAP5 PUSH1 0x1 PUSH1 0x1 PUSH1 0xE8 SHL SUB NOT DUP7 AND DUP7 SUB PUSH2 0x15C JUMPI PUSH1 0xA4 CALLDATALOAD SWAP5 PUSH1 0xC4 CALLDATALOAD DUP1 ISZERO ISZERO DUP2 SUB PUSH2 0x15C JUMPI PUSH4 0x364AF213 PUSH1 0xE2 SHL DUP7 MSTORE PUSH1 0xE4 CALLDATALOAD SWAP1 PUSH1 0x20 DUP8 DUP1 PUSH2 0xD3 DUP6 DUP6 DUP14 DUP16 DUP14 DUP13 DUP13 PUSH1 0x4 DUP10 ADD PUSH2 0x1E1 JUMP JUMPDEST SUB DUP2 PUSH0 DUP10 GAS CALL SWAP7 DUP8 ISZERO PUSH2 0x168 JUMPI PUSH0 SWAP8 PUSH2 0x173 JUMPI JUMPDEST POP PUSH0 SWAP3 SWAP2 PUSH2 0x110 SWAP2 PUSH1 0x20 SWAP9 SWAP10 PUSH1 0x40 MLOAD SWAP12 DUP13 SWAP10 DUP11 SWAP9 DUP10 SWAP8 PUSH4 0x364AF213 PUSH1 0xE2 SHL DUP10 MSTORE PUSH1 0x4 DUP10 ADD PUSH2 0x1E1 JUMP JUMPDEST SUB SWAP3 GAS CALL DUP1 ISZERO PUSH2 0x168 JUMPI PUSH0 SWAP1 PUSH2 0x131 JUMPI JUMPDEST PUSH1 0x40 DUP1 SWAP4 POP MLOAD SWAP2 DUP3 MSTORE PUSH1 0x20 DUP3 ADD MSTORE RETURN JUMPDEST POP PUSH1 0x20 DUP3 RETURNDATASIZE PUSH1 0x20 GT PUSH2 0x160 JUMPI JUMPDEST DUP2 PUSH2 0x14B PUSH1 0x20 SWAP4 DUP4 PUSH2 0x1AB JUMP JUMPDEST DUP2 ADD SUB SLT PUSH2 0x15C JUMPI PUSH1 0x40 SWAP2 MLOAD PUSH2 0x121 JUMP JUMPDEST PUSH0 DUP1 REVERT JUMPDEST RETURNDATASIZE SWAP2 POP PUSH2 0x13E JUMP JUMPDEST PUSH1 0x40 MLOAD RETURNDATASIZE PUSH0 DUP3 RETURNDATACOPY RETURNDATASIZE SWAP1 REVERT JUMPDEST SWAP1 SWAP3 SWAP2 SWAP7 POP PUSH1 0x20 DUP2 RETURNDATASIZE PUSH1 0x20 GT PUSH2 0x1A3 JUMPI JUMPDEST DUP2 PUSH2 0x191 PUSH1 0x20 SWAP4 DUP4 PUSH2 0x1AB JUMP JUMPDEST DUP2 ADD SUB SLT PUSH2 0x15C JUMPI MLOAD SWAP6 SWAP1 SWAP2 PUSH0 PUSH2 0xE7 JUMP JUMPDEST RETURNDATASIZE SWAP2 POP PUSH2 0x184 JUMP JUMPDEST SWAP1 PUSH1 0x1F DUP1 NOT SWAP2 ADD AND DUP2 ADD SWAP1 DUP2 LT PUSH8 0xFFFFFFFFFFFFFFFF DUP3 GT OR PUSH2 0x1CD JUMPI PUSH1 0x40 MSTORE JUMP JUMPDEST PUSH4 0x4E487B71 PUSH1 0xE0 SHL PUSH0 MSTORE PUSH1 0x41 PUSH1 0x4 MSTORE PUSH1 0x24 PUSH0 REVERT JUMPDEST PUSH1 0x1 PUSH1 0x1 PUSH1 0xA0 SHL SUB SWAP2 DUP3 AND DUP2 MSTORE SWAP2 DUP2 AND PUSH1 0x20 DUP4 ADD MSTORE SWAP1 SWAP2 AND PUSH1 0x40 DUP3 ADD MSTORE PUSH1 0x1 PUSH1 0x1 PUSH1 0xE8 SHL SUB NOT SWAP1 SWAP2 AND PUSH1 0x60 DUP3 ADD MSTORE PUSH1 0x80 DUP2 ADD SWAP2 SWAP1 SWAP2 MSTORE SWAP1 ISZERO ISZERO PUSH1 0xA0 DUP3 ADD MSTORE PUSH1 0xC0 DUP2 ADD SWAP2 SWAP1 SWAP2 MSTORE PUSH1 0xE0 ADD SWAP1 JUMP INVALID LOG2 PUSH5 0x6970667358 0x22 SLT KECCAK256 PUSH5 0x7F79D09CE1 SLOAD 0xDF CREATE 0xD3 BLOBHASH BLOCKHASH SWAP5 PUSH30 0x9B74868C6A9F94DC794DA568FC94E8A9719864736F6C634300081E003300 "},"methodIdentifiers":{"swapTwice(address,address,address,address,bytes3,uint256,bool,uint256)":"d74256bc"}}}}}