{"contracts/PoolManager.sol":{"PoolManager":{"abi":[{"inputs":[{"internalType":"address","name":"_defaultAlpha","type":"address"},{"internalType":"address","name":"_defaultBeta","type":"address"}],"stateMutability":"nonpayable","type":"constructor"},{"inputs":[{"internalType":"uint256","name":"required","type":"uint256"},{"internalType":"uint256","name":"available","type":"uint256"}],"name":"PoolManager__InsufficientAsset0","type":"error"},{"inputs":[{"internalType":"uint256","name":"required","type":"uint256"},{"internalType":"uint256","name":"available","type":"uint256"}],"name":"PoolManager__InsufficientAsset1","type":"error"},{"inputs":[],"name":"PoolManager__InsufficientLiquidityMinted","type":"error"},{"inputs":[{"internalType":"uint256","name":"minOut","type":"uint256"},{"internalType":"uint256","name":"actual","type":"uint256"}],"name":"PoolManager__InsufficientOutput","type":"error"},{"inputs":[{"internalType":"uint256","name":"amount0","type":"uint256"},{"internalType":"uint256","name":"amount1","type":"uint256"}],"name":"PoolManager__InsufficientWithdrawal","type":"error"},{"inputs":[],"name":"PoolManager__InvalidQuote","type":"error"},{"inputs":[{"internalType":"uint256","name":"poolID","type":"uint256"}],"name":"PoolManager__PoolAlreadyExists","type":"error"},{"anonymous":false,"inputs":[{"indexed":true,"internalType":"address","name":"owner","type":"address"},{"indexed":true,"internalType":"address","name":"spender","type":"address"},{"indexed":true,"internalType":"uint256","name":"id","type":"uint256"},{"indexed":false,"internalType":"uint256","name":"amount","type":"uint256"}],"name":"Approval","type":"event"},{"anonymous":false,"inputs":[{"indexed":true,"internalType":"address","name":"provider","type":"address"},{"indexed":false,"internalType":"bool","name":"hit","type":"bool"}],"name":"MarketDataCache","type":"event"},{"anonymous":false,"inputs":[{"indexed":true,"internalType":"address","name":"owner","type":"address"},{"indexed":true,"internalType":"address","name":"operator","type":"address"},{"indexed":false,"internalType":"bool","name":"approved","type":"bool"}],"name":"OperatorSet","type":"event"},{"anonymous":false,"inputs":[{"indexed":true,"internalType":"uint256","name":"poolID","type":"uint256"},{"indexed":false,"internalType":"address","name":"asset0","type":"address"},{"indexed":false,"internalType":"address","name":"asset1","type":"address"},{"indexed":false,"internalType":"address","name":"quoter","type":"address"},{"indexed":false,"internalType":"bytes3","name":"markings","type":"bytes3"}],"name":"PoolCreated","type":"event"},{"anonymous":false,"inputs":[{"indexed":false,"internalType":"address","name":"caller","type":"address"},{"indexed":true,"internalType":"address","name":"from","type":"address"},{"indexed":true,"internalType":"address","name":"to","type":"address"},{"indexed":true,"internalType":"uint256","name":"id","type":"uint256"},{"indexed":false,"internalType":"uint256","name":"amount","type":"uint256"}],"name":"Transfer","type":"event"},{"inputs":[{"internalType":"uint8","name":"pointer","type":"uint8"},{"internalType":"address","name":"alphaAddress","type":"address"}],"name":"addAlphaMarketAddress","outputs":[],"stateMutability":"nonpayable","type":"function"},{"inputs":[{"internalType":"uint8","name":"pointer","type":"uint8"},{"internalType":"address","name":"betaAddress","type":"address"}],"name":"addBetaMarketAddress","outputs":[],"stateMutability":"nonpayable","type":"function"},{"inputs":[{"internalType":"address","name":"asset0","type":"address"},{"internalType":"address","name":"asset1","type":"address"},{"internalType":"address","name":"quoter","type":"address"},{"internalType":"bytes3","name":"markings","type":"bytes3"},{"internalType":"uint256","name":"amount0","type":"uint256"},{"internalType":"uint256","name":"amount1","type":"uint256"}],"name":"addLiquidity","outputs":[{"internalType":"uint256","name":"liquidity","type":"uint256"}],"stateMutability":"payable","type":"function"},{"inputs":[{"internalType":"address","name":"owner","type":"address"},{"internalType":"address","name":"spender","type":"address"},{"internalType":"uint256","name":"id","type":"uint256"}],"name":"allowance","outputs":[{"internalType":"uint256","name":"","type":"uint256"}],"stateMutability":"view","type":"function"},{"inputs":[{"internalType":"address","name":"spender","type":"address"},{"internalType":"uint256","name":"id","type":"uint256"},{"internalType":"uint256","name":"amount","type":"uint256"}],"name":"approve","outputs":[{"internalType":"bool","name":"","type":"bool"}],"stateMutability":"nonpayable","type":"function"},{"inputs":[{"internalType":"address","name":"owner","type":"address"},{"internalType":"uint256","name":"id","type":"uint256"}],"name":"balanceOf","outputs":[{"internalType":"uint256","name":"","type":"uint256"}],"stateMutability":"view","type":"function"},{"inputs":[{"components":[{"internalType":"address","name":"asset0","type":"address"},{"internalType":"address","name":"asset1","type":"address"},{"internalType":"address","name":"quoter","type":"address"},{"internalType":"bytes3[]","name":"markings","type":"bytes3[]"},{"internalType":"uint256[]","name":"amounts","type":"uint256[]"},{"internalType":"bool","name":"zeroForOne","type":"bool"}],"internalType":"struct Hop[]","name":"hops","type":"tuple[]"},{"internalType":"uint256","name":"amountIn","type":"uint256"},{"internalType":"uint256","name":"minAmountOut","type":"uint256"}],"name":"batchSwap","outputs":[{"internalType":"uint256","name":"amountOut","type":"uint256"}],"stateMutability":"payable","type":"function"},{"inputs":[{"internalType":"address","name":"asset0","type":"address"},{"internalType":"address","name":"asset1","type":"address"},{"internalType":"address","name":"quoter","type":"address"},{"internalType":"bytes3","name":"markings","type":"bytes3"}],"name":"createPool","outputs":[{"internalType":"uint256","name":"poolID","type":"uint256"}],"stateMutability":"nonpayable","type":"function"},{"inputs":[],"name":"defaultAlpha","outputs":[{"internalType":"address","name":"","type":"address"}],"stateMutability":"view","type":"function"},{"inputs":[],"name":"defaultBeta","outputs":[{"internalType":"address","name":"","type":"address"}],"stateMutability":"view","type":"function"},{"inputs":[{"internalType":"address","name":"callback","type":"address"},{"internalType":"bytes","name":"data","type":"bytes"},{"internalType":"address[]","name":"tokens","type":"address[]"}],"name":"flashSession","outputs":[],"stateMutability":"payable","type":"function"},{"inputs":[{"internalType":"address","name":"callback","type":"address"},{"internalType":"bytes","name":"data","type":"bytes"},{"internalType":"address[]","name":"tokens","type":"address[]"}],"name":"flashSessionWithReturn","outputs":[{"internalType":"int256[]","name":"deltas","type":"int256[]"}],"stateMutability":"payable","type":"function"},{"inputs":[{"internalType":"uint8","name":"pointer","type":"uint8"}],"name":"getAlphaMarketAddress","outputs":[{"internalType":"address","name":"alphaAddress","type":"address"}],"stateMutability":"view","type":"function"},{"inputs":[{"internalType":"uint8","name":"pointer","type":"uint8"}],"name":"getBetaMarketAddress","outputs":[{"internalType":"address","name":"betaAddress","type":"address"}],"stateMutability":"view","type":"function"},{"inputs":[{"internalType":"uint256","name":"poolId","type":"uint256"}],"name":"getInventory","outputs":[{"internalType":"uint128","name":"asset0","type":"uint128"},{"internalType":"uint128","name":"asset1","type":"uint128"}],"stateMutability":"view","type":"function"},{"inputs":[{"internalType":"uint256","name":"poolID","type":"uint256"}],"name":"getPoolInfo","outputs":[{"internalType":"address","name":"asset0","type":"address"},{"internalType":"address","name":"asset1","type":"address"},{"internalType":"address","name":"quoter","type":"address"},{"internalType":"bytes3","name":"markings","type":"bytes3"}],"stateMutability":"view","type":"function"},{"inputs":[{"components":[{"internalType":"address","name":"asset0","type":"address"},{"internalType":"address","name":"asset1","type":"address"},{"internalType":"address","name":"quoter","type":"address"},{"internalType":"uint256[]","name":"amount","type":"uint256[]"},{"internalType":"bool","name":"zeroForOne","type":"bool"},{"internalType":"bytes3[]","name":"marking","type":"bytes3[]"}],"internalType":"struct SwapParams","name":"p","type":"tuple"},{"internalType":"uint128","name":"asset0Balance","type":"uint128"},{"internalType":"uint128","name":"asset1Balance","type":"uint128"}],"name":"getQuote","outputs":[{"internalType":"uint256","name":"quote","type":"uint256"},{"internalType":"uint256","name":"poolID","type":"uint256"}],"stateMutability":"nonpayable","type":"function"},{"inputs":[{"components":[{"internalType":"address","name":"asset0","type":"address"},{"internalType":"address","name":"asset1","type":"address"},{"internalType":"address","name":"quoter","type":"address"},{"internalType":"uint256[]","name":"amount","type":"uint256[]"},{"internalType":"bool","name":"zeroForOne","type":"bool"},{"internalType":"bytes3[]","name":"marking","type":"bytes3[]"}],"internalType":"struct SwapParams","name":"p","type":"tuple"},{"internalType":"uint128[]","name":"asset0Balances","type":"uint128[]"},{"internalType":"uint128[]","name":"asset1Balances","type":"uint128[]"}],"name":"getQuoteBatch","outputs":[{"internalType":"uint256[]","name":"quote","type":"uint256[]"},{"internalType":"uint256[]","name":"poolID","type":"uint256[]"}],"stateMutability":"nonpayable","type":"function"},{"inputs":[{"internalType":"address","name":"user","type":"address"},{"internalType":"address[]","name":"tokens","type":"address[]"}],"name":"getUserDeltas","outputs":[{"internalType":"int256[]","name":"deltas","type":"int256[]"}],"stateMutability":"view","type":"function"},{"inputs":[{"internalType":"address","name":"owner","type":"address"},{"internalType":"address","name":"spender","type":"address"}],"name":"isOperator","outputs":[{"internalType":"bool","name":"","type":"bool"}],"stateMutability":"view","type":"function"},{"inputs":[{"internalType":"uint8","name":"pointer","type":"uint8"}],"name":"removeAlphaMarketAddress","outputs":[],"stateMutability":"nonpayable","type":"function"},{"inputs":[{"internalType":"uint8","name":"pointer","type":"uint8"}],"name":"removeBetaMarketAddress","outputs":[],"stateMutability":"nonpayable","type":"function"},{"inputs":[{"internalType":"address","name":"asset0","type":"address"},{"internalType":"address","name":"asset1","type":"address"},{"internalType":"address","name":"quoter","type":"address"},{"internalType":"bytes3","name":"markings","type":"bytes3"},{"internalType":"uint256","name":"liquidity","type":"uint256"}],"name":"removeLiquidity","outputs":[{"internalType":"uint256","name":"amount0","type":"uint256"},{"internalType":"uint256","name":"amount1","type":"uint256"}],"stateMutability":"nonpayable","type":"function"},{"inputs":[{"components":[{"internalType":"address","name":"asset0","type":"address"},{"internalType":"address","name":"asset1","type":"address"},{"internalType":"address","name":"quoter","type":"address"},{"internalType":"uint256[]","name":"amount","type":"uint256[]"},{"internalType":"bool","name":"zeroForOne","type":"bool"},{"internalType":"bytes3[]","name":"marking","type":"bytes3[]"}],"internalType":"struct SwapParams","name":"p","type":"tuple"},{"internalType":"uint128","name":"asset0Balance","type":"uint128"},{"internalType":"uint128","name":"asset1Balance","type":"uint128"}],"name":"routerGetQuote","outputs":[{"internalType":"uint256","name":"quote","type":"uint256"},{"internalType":"uint256","name":"poolID","type":"uint256"}],"stateMutability":"nonpayable","type":"function"},{"inputs":[{"components":[{"internalType":"address","name":"asset0","type":"address"},{"internalType":"address","name":"asset1","type":"address"},{"internalType":"address","name":"quoter","type":"address"},{"internalType":"uint256[]","name":"amount","type":"uint256[]"},{"internalType":"bool","name":"zeroForOne","type":"bool"},{"internalType":"bytes3[]","name":"marking","type":"bytes3[]"}],"internalType":"struct SwapParams","name":"p","type":"tuple"},{"internalType":"uint128[]","name":"asset0Balances","type":"uint128[]"},{"internalType":"uint128[]","name":"asset1Balances","type":"uint128[]"}],"name":"routerGetQuoteBatch","outputs":[{"internalType":"uint256[]","name":"quote","type":"uint256[]"},{"internalType":"uint256[]","name":"poolID","type":"uint256[]"}],"stateMutability":"nonpayable","type":"function"},{"inputs":[{"internalType":"address","name":"operator","type":"address"},{"internalType":"bool","name":"approved","type":"bool"}],"name":"setOperator","outputs":[{"internalType":"bool","name":"","type":"bool"}],"stateMutability":"nonpayable","type":"function"},{"inputs":[{"internalType":"bytes4","name":"interfaceId","type":"bytes4"}],"name":"supportsInterface","outputs":[{"internalType":"bool","name":"","type":"bool"}],"stateMutability":"view","type":"function"},{"inputs":[{"internalType":"address","name":"asset0","type":"address"},{"internalType":"address","name":"asset1","type":"address"},{"internalType":"address","name":"quoter","type":"address"},{"internalType":"bytes3","name":"markings","type":"bytes3"},{"internalType":"uint256","name":"amountIn","type":"uint256"},{"internalType":"bool","name":"zeroForOne","type":"bool"},{"internalType":"uint256","name":"minAmountOut","type":"uint256"}],"name":"swap","outputs":[{"internalType":"uint256","name":"amountOut","type":"uint256"}],"stateMutability":"payable","type":"function"},{"inputs":[{"internalType":"uint256","name":"poolID","type":"uint256"}],"name":"totalLiquidity","outputs":[{"internalType":"uint256","name":"","type":"uint256"}],"stateMutability":"view","type":"function"},{"inputs":[{"internalType":"address","name":"receiver","type":"address"},{"internalType":"uint256","name":"id","type":"uint256"},{"internalType":"uint256","name":"amount","type":"uint256"}],"name":"transfer","outputs":[{"internalType":"bool","name":"","type":"bool"}],"stateMutability":"nonpayable","type":"function"},{"inputs":[{"internalType":"address","name":"sender","type":"address"},{"internalType":"address","name":"receiver","type":"address"},{"internalType":"uint256","name":"id","type":"uint256"},{"internalType":"uint256","name":"amount","type":"uint256"}],"name":"transferFrom","outputs":[{"internalType":"bool","name":"","type":"bool"}],"stateMutability":"nonpayable","type":"function"}],"evm":{"bytecode":{"linkReferences":{},"object":"60c03461009657601f61430f38819003918201601f19168301916001600160401b0383118484101761009a57808492604094855283398101031261009657610052602061004b836100ae565b92016100ae565b9060805260a05260405161424c90816100c3823960805181818161122c015281816123dd0152612932015260a051818181610727015281816122bb01526128b90152f35b5f80fd5b634e487b7160e01b5f52604160045260245ffd5b51906001600160a01b03821682036100965756fe60806040526004361015610011575f80fd5b5f3560e01c8062fdd58e146101f957806301ffc9a7146101f457806304f71ef61461018b578063095bcdb6146101ef57806319920a5f146101ea5780632f380b35146101e5578063314e2321146101e0578063426a8493146101db578063460c6df8146101d6578063558a7297146101d15780635670f55a146101cc578063598af9e7146101c75780635b298d32146101c25780635dfb78af146101bd57806360a80dbb146101a457806361408f26146101b85780637dc27c95146101b357806383e66c2e146101ae5780638e832e08146101a95780638f155291146101a45780639d2ec6e41461019f578063a1a44dad1461019a578063b5e60c3c14610195578063b6363cf214610190578063c279171d1461018b578063cb1f2f3814610186578063d2615fc814610181578063d92bc84c1461017c578063e513315b14610177578063ea157acf146101725763fe99049a1461016d575f80fd5b611b6f565b611a9f565b61180c565b6115a0565b61155a565b6112e8565b610625565b611285565b61125b565b611217565b611066565b610f0e565b611021565b610fdb565b610f7c565b610f37565b610ded565b610d1f565b610cb2565b610aa0565b610a04565b6109a3565b610912565b6108bd565b610756565b610712565b610673565b610269565b610220565b6001600160a01b0381160361020f57565b5f80fd5b359061021e826101fe565b565b3461020f57604036600319011261020f5760043561023d816101fe565b6024359060018060a01b03165f52600160205260405f20905f52602052602060405f2054604051908152f35b3461020f57602036600319011261020f5760043563ffffffff60e01b811680910361020f576020906301ffc9a760e01b81149081156102ae575b506040519015158152f35b630f632fb360e01b1490505f6102a3565b634e487b7160e01b5f52604160045260245ffd5b608081019081106001600160401b038211176102ee57604052565b6102bf565b90601f801991011681019081106001600160401b038211176102ee57604052565b6040519061021e60c0836102f3565b6040519061021e6080836102f3565b6040519061021e610100836102f3565b6001600160401b0381116102ee5760051b60200190565b92919061036581610342565b9361037360405195866102f3565b602085838152019160051b810192831161020f57905b82821061039557505050565b8135815260209182019101610389565b9080601f8301121561020f578160206103c093359101610359565b90565b8015150361020f57565b359061021e826103c3565b6001600160e81b031981160361020f57565b9291906103f681610342565b9361040460405195866102f3565b602085838152019160051b810192831161020f57905b82821061042657505050565b602080918335610435816103d8565b81520191019061041a565b9080601f8301121561020f578160206103c0933591016103ea565b91909160c08184031261020f57610470610314565b9261047a82610213565b845261048860208301610213565b602085015261049960408301610213565b604085015260608201356001600160401b03811161020f57816104bd9184016103a5565b60608501526104ce608083016103cd565b608085015260a08201356001600160401b03811161020f576104f09201610440565b60a0830152565b9080601f8301121561020f5781359061050f82610342565b9261051d60405194856102f3565b82845260208085019360051b82010191821161020f57602001915b8183106105455750505090565b82356001600160801b038116810361020f57815260209283019201610538565b606060031982011261020f576004356001600160401b03811161020f578161058f9160040161045b565b916024356001600160401b03811161020f57826105ae916004016104f7565b91604435906001600160401b03821161020f576103c0916004016104f7565b90602080835192838152019201905f5b8181106105ea5750505090565b82518452602093840193909201916001016105dd565b90916106176103c0936040845260408401906105cd565b9160208184039101526105cd565b3461020f5761063c61063636610565565b9161204f565b9061064c60405192839283610600565b0390f35b606090600319011261020f57600435610668816101fe565b906024359060443590565b3461020f5761068136610650565b9091335f52600160205260405f20835f5260205260405f2080549083820391821161070d575560018060a01b031690815f5260016020526106cd8360405f20905f5260205260405f2090565b6106d88282546124ac565b9055604080513380825260208201939093525f5160206141f75f395f51905f5291819081015b0390a460405160018152602090f35b61247d565b3461020f575f36600319011261020f576040517f00000000000000000000000000000000000000000000000000000000000000006001600160a01b03168152602090f35b3461020f57602036600319011261020f576004355f6060604051610779816102d3565b82815282602082015282604082015201525f52600760205260405f20604051906107a2826102d3565b80546001600160a01b0390811680845260018301548216602085018190526002909301549182166040850181905260489290921b6001600160e81b031916606094909401849052909261064c916108199061080b906107fe9081565b956001600160a01b031690565b916001600160e81b03191690565b604080516001600160a01b039586168152958516602087015291909316908401526001600160e81b0319909116606083015281906080820190565b9181601f8401121561020f578235916001600160401b03831161020f576020808501948460051b01011161020f57565b60206040818301928281528451809452019201905f5b8181106108a75750505090565b825184526020938401939092019160010161089a565b3461020f57604036600319011261020f576004356108da816101fe565b6024356001600160401b03811161020f5761064c91610900610906923690600401610854565b916124dc565b60405191829182610884565b3461020f5761092036610650565b9091335f5260026020526109478160405f209060018060a01b03165f5260205260405f2090565b835f526020528160405f205560405191825260018060a01b0316907fb3fd5071835887567a0671151121894ddccc2842f1d10bedad13e0d17cace9a760203392a4602060405160018152f35b6004359060ff8216820361020f57565b3461020f57604036600319011261020f57610a026109bf610993565b60ff602435916109ce836101fe565b166109db60108210612552565b5f52600360205260405f209060018060a01b03166001600160601b0360a01b825416179055565b005b3461020f57604036600319011261020f57600435610a21816101fe565b60243590610a2e826103c3565b335f908152602081815260408083206001600160a01b038516845290915290209115159160ff1981541660ff841617905560405191825260018060a01b0316907fceb576d9f15e4e200fdb5096d64d5dfd667e16def20c1eefd14256d8e3faa26760203392a360405160018152602090f35b3461020f57608036600319011261020f57600435610abd816101fe565b602435610ac9816101fe565b60443591610ad6836101fe565b60643591610ae3836103d8565b610af3610aee612ea8565b612eeb565b610aff83858385612c25565b9260018060a01b03610b2c6002610b1e875f52600760205260405f2090565b01546001600160a01b031690565b16610c9e5761064c9484937f68df9a4eb7aacbe8f43763bfbc9f7ca135a5397190ea1cce2558db52dc2f36929391929091906001600160a01b038083169084161015610c9357610c7691935b610c3a610b83610323565b6001600160a01b03861681526001600160a01b03871660208201526001600160a01b03831660408201526001600160e81b031984166060820152610bcf895f52600760205260405f2090565b815181546001600160a01b03199081166001600160a01b039283161783556020840151600184018054909216908316179055604083015160029092018054606090940151929091166001600160b81b03199093169290921760489190911c62ffffff60a01b16179055565b604080516001600160a01b03958616815295851660208701529316928401929092526001600160e81b0319909116606083015281906080820190565b0390a25f610c82612ea8565b5d6040519081529081906020820190565b610c76919293610b78565b63e1ecc13360e01b5f52600484905260245ffd5b3461020f57606036600319011261020f57600435610ccf816101fe565b610d0a602435610cde816101fe565b6044359260018060a01b03165f52600260205260405f209060018060a01b03165f5260205260405f2090565b905f52602052602060405f2054604051908152f35b3461020f57602036600319011261020f5760406001600160801b03610d5e6004355f52600660205260405f2054906001600160801b0382169160801c90565b835191831682529091166020820152f35b90606060031983011261020f57600435610d88816101fe565b91602435916001600160401b03831161020f578160238401121561020f578260040135926001600160401b03841161020f57826024858301011161020f576024019291604435906001600160401b03821161020f57610de991600401610854565b9091565b610df636610d6f565b9391610e00612ef7565b92610e0a84612eeb565b6001610e16333061366a565b5d610e2033612f60565b6001600160a01b031693843b1561020f57604051631c6e724760e31b8152915f918391610e50916004840161259e565b95818381819903925af18015610eb457610e96575b508293610e78610e7e92349236916125c5565b3361303e565b610e866130d6565b5f610e91333061366a565b5d5d80f35b610e7e91935093610eaa5f610e78966102f3565b5f93915093610e65565b612044565b606060031982011261020f57600435906001600160401b03821161020f57610ee39160040161045b565b906024356001600160801b038116810361020f57906044356001600160801b038116810361020f5790565b3461020f57610f25610f1f36610eb9565b916126c3565b60408051928352602083019190915290f35b3461020f57602036600319011261020f5760ff610f52610993565b16610f5f60108210612552565b5f90815260046020526040902080546001600160a01b0319169055005b3461020f57604036600319011261020f57610a02610f98610993565b60ff60243591610fa7836101fe565b16610fb460108210612552565b5f52600460205260405f209060018060a01b03166001600160601b0360a01b825416179055565b3461020f57602036600319011261020f5760ff610ff6610993565b1661100360108210612552565b5f526004602052602060018060a01b0360405f205416604051908152f35b3461020f57602036600319011261020f5760ff61103c610993565b1661104960108210612552565b5f90815260036020526040902080546001600160a01b0319169055005b606036600319011261020f576004356001600160401b03811161020f57611091903690600401610854565b604435916024356110a3610aee612ea8565b6110ab613128565b906001600160a01b0382161561120f575b6110c98493941515613172565b925f925f915f915b80831061113657506110ef91506110ea9050833061366a565b5c1590565b611123575b50505081811061110b5761064c905f610c82612ea8565b63d438755d60e01b5f5260049190915260245260445ffd5b61112e92349261332e565b5f80806110f4565b9091956111448783856131a8565b908715809161115285612491565b8a14926111d2575b908291889361118f575b9161117f939160019593815f146111885734905b309561393c565b960191906110d1565b5f90611178565b965091839161117f936111a660a0600197016131ca565b156111c4576111b7602085016124d2565b9891939550919350611164565b6111cd846124d2565b6111b7565b829850908792916111e560a086016131ca565b156111fe576111f3856124d2565b99509091925061115a565b61120a602086016124d2565b6111f3565b3391506110bc565b3461020f575f36600319011261020f576040517f00000000000000000000000000000000000000000000000000000000000000006001600160a01b03168152602090f35b3461020f57602036600319011261020f576004355f526005602052602060405f2054604051908152f35b3461020f57604036600319011261020f57602060ff6112dc6004356112a9816101fe565b602435906112b6826101fe565b60018060a01b03165f525f845260405f209060018060a01b03165f5260205260405f2090565b54166040519015158152f35b3461020f5760a036600319011261020f57600435611305816101fe565b6001600160801b03602435611319816101fe565b60443592611326846101fe565b611356606435611335816103d8565b60843595611344610aee612ea8565b61134f871515612989565b8484612c25565b936113df6113cd856113c56113ac6113868a5f52600660205260405f2054906001600160801b0382169160801c90565b99906113a561139d8d5f52600560205260405f2090565b5415156129d5565b1686612a60565b6113be8a5f52600560205260405f2090565b5490612a73565b961683612a60565b6113be875f52600560205260405f2090565b94841580611552575b611539576113f4613128565b906001600160a01b03821615611531575b82611415839483611464956131d4565b61143261142a835f52600560205260405f2090565b91825461249f565b90556114496001600160801b038716600f0b612a91565b61145e6001600160801b038916600f0b612a91565b91613253565b6001600160a01b0383811690831610916114a59083156115255761149e869588925b861561151e5780965b156115165750955b85856132a9565b84836132a9565b6114b26110ea823061366a565b6114d5575b5050505f6114c3612ea8565b5d604080519182526020820192909252f35b61150961150e936115006114e7612ab1565b946114f186611d85565b6001600160a01b039091169052565b6114f184611d97565b612fa9565b5f80806114b7565b905095611497565b819661148f565b61149e87958792611486565b339150611405565b63d5de620560e01b5f526004859052602486905260445ffd5b5085156113e8565b3461020f57602036600319011261020f5760ff611575610993565b1661158260108210612552565b5f526003602052602060018060a01b0360405f205416604051908152f35b60e036600319011261020f576004356115b8816101fe565b602435906115c5826101fe565b604435906115d2826101fe565b6064356115de816103d8565b60843560a435926115ee846103c3565b60c435926115fd610aee612ea8565b611605613128565b936001600160a01b03851615611804575b61162282888a86612c25565b9188611646845f52600660205260405f2054906001600160801b0382169160801c90565b999080938b9289611655611d1d565b61165d611d1d565b92611666610314565b6001600160a01b038d168152976001600160a01b031660208901526001600160a01b03166040880152606087019081528d1515608088015260a08701928352516116af90611d85565b52516116ba90611d85565b6001600160e81b031990911690526116d1926126c3565b509788156117f5578888916116e5936132bc565b8087106117de575061064c9661175e9261175792611742906001600160a01b0380851690841610156117d757885b80156117bc576001600160801b038816600f0b905b156117a95761145e6001600160801b038c16600f0b612a91565b86156117a25780965b1561179a575092612ad3565b84846132a9565b6117698482846132a9565b6117766110ea833061366a565b611787575b5050505f610c82612ea8565b61179292349261332e565b5f808061177b565b905092612ad3565b819661174b565b6001600160801b038816600f0b91613253565b6117d16001600160801b038c16600f0b612a91565b90611728565b8815611713565b63d438755d60e01b5f52600452602486905260445ffd5b6314033f2160e11b5f5260045ffd5b339450611616565b60c036600319011261020f57600435611824816101fe565b602435611830816101fe565b6044359161183d836101fe565b606435611849816103d8565b60a4359260843561185b610aee612ea8565b61186783878487612c25565b6001600160a01b0383811690861610949091908515611a995792945b15611a935794925b5f828152600660205260409020546001600160801b0381169060801c9190976118bc845f52600560205260405f2090565b546119da57505061064c96826118f992881515806119d1575b6118de90612ae3565b6118f0876118eb8b612a18565b612a73565b925b878a61349b565b94611902613128565b936001600160a01b038516156119c9575b816001600160801b038061195a936119386119316119739897612ad3565b898b6132a9565b61194b61194482612ad3565b8b8b6132a9565b16600f0b9116600f0b83613253565b611965868286613568565b5f52600560205260405f2090565b61197e8582546124ac565b905561198d6110ea833061366a565b61199d575050505f610c82612ea8565b6119c2611792936119b96119af612ab1565b936114f185611d85565b6114f183611d97565b349161303e565b339450611913565b508615156118d5565b8885611a77611a7c94611a678b670de0b6b3a7640000611a608a98611a47611a00611d1d565b91611a37611a0c611d1d565b96611a27611a18610314565b6001600160a01b03909d168d52565b6001600160a01b031660208c0152565b6001600160a01b031660408a0152565b606088018190525f608089015260a08801938452611d85565b5251611d85565b6001600160e81b03199091169052565b6126c3565b509687156117f557826118f99261064c99926118f2565b9261188b565b94611883565b611aa836610d6f565b5f949391929491611ab7612ef7565b94611ac186612eeb565b6001611acd333061366a565b5d611ad733612f60565b6001600160a01b031695863b1561020f57611b0b965f9283604051809a81958294631c6e724760e31b84526004840161259e565b03925af1948515610eb45761064c95611b59575b50611b3a9192611b3434610e783685856125c5565b336124dc565b91611b436130d6565b611b4c3361311a565b5d60405191829182610884565b611b3a92505f611b68916102f3565b5f91611b1f565b3461020f57608036600319011261020f57600435611b8c816101fe565b602435611b98816101fe565b604435915f5160206141f75f395f51905f526106fe606435936001600160a01b03841693611bfa908790611bed903388141580611ce9575b611c59576001600160a01b03165f90815260016020526040902090565b905f5260205260405f2090565b611c0586825461249f565b90556001600160a01b0381165f908152600160205260409020611c29908790611bed565b611c348682546124ac565b90556040805133815260208101969096526001600160a01b0390911694918291820190565b611c9083611bed33611c7b8560018060a01b03165f52600260205260405f2090565b9060018060a01b03165f5260205260405f2090565b548960018201611cb6575b50506001600160a01b03165f90815260016020526040902090565b611cbf9161249f565b611ce184611bed33611c7b8660018060a01b03165f52600260205260405f2090565b555f89611c9b565b50611d18611d14611d0d33611c7b8560018060a01b03165f525f60205260405f2090565b5460ff1690565b1590565b611bd0565b60408051909190611d2e83826102f3565b6001815291601f1901366020840137565b90611d4982610342565b611d5660405191826102f3565b8281528092611d67601f1991610342565b0190602036910137565b634e487b7160e01b5f52603260045260245ffd5b805115611d925760200190565b611d71565b805160011015611d925760400190565b8051821015611d925760209160051b010190565b15611dc257565b60405162461bcd60e51b8152602060048201526015602482015274416c7068612061646472657373206973207a65726f60581b6044820152606490fd5b15611e0657565b60405162461bcd60e51b8152602060048201526014602482015273426574612061646472657373206973207a65726f60601b6044820152606490fd5b805180835260209291819084018484015e5f828201840152601f01601f1916010190565b9091611e7d6103c093604084526040840190611e42565b916020818403910152611e42565b9080601f8301121561020f578151611ea281610342565b92611eb060405194856102f3565b81845260208085019260051b82010192831161020f57602001905b828210611ed85750505090565b8151815260209182019101611ecb565b9060208282031261020f5781516001600160401b03811161020f576103c09201611e8b565b90602080835192838152019201905f5b818110611f2a5750505090565b82516001600160801b0316845260209384019390920191600101611f1d565b90602080835192838152019201905f5b818110611f665750505090565b825161ffff16845260209384019390920191600101611f59565b604080825282516001600160a01b0316908201526103c0929060208301516001600160a01b0316606082015260408301516001600160a01b0316608082015261203760e061202a612013611ffe611fe8606089015161010060a08901526101408801906105cd565b6080890151878203603f190160c0890152611f0d565b60a0880151868203603f190185880152611f0d565b60c0870151858203603f1901610100870152611f49565b9401511515610120830152565b6020818403910152611e42565b6040513d5f823e3d90fd5b9260a0840192612060845151611d3f565b9161206c855151611d3f565b50612078855151611d3f565b9361209c6120976120898851611d85565b516001600160e81b03191690565b612b75565b5f5b87518051821015612122579061211c61210960c06121008d8b6120fa876120f46120cd6120898360019d611da7565b85516020870151604090970151919687926001600160a01b03908116929181169116612c25565b92611da7565b52612b75565b015161ffff1690565b612113838b611da7565b9061ffff169052565b0161209e565b505087519297949650909490939290916001600160a01b0316602084018051919390916001600160a01b03166040860180519094919291906001600160a01b0316986060880151608089019a8b5161217990151590565b95612182610332565b6001600160a01b03909a168a526001600160a01b031660208a01526001600160a01b031660408901526060880152608087015260a086015260c0850152151560e084015284516060948592911515975f9761224e996123c3575b6020810151612282575b50505050612225612231926122186122259361220a60405198899260208401611e66565b03601f1981018852876102f3565b516001600160a01b031690565b6001600160a01b031690565b908360405180968195829462db90d160e81b845260048401611f80565b03925af1908115610eb4575f91612263575091565b61227f91503d805f833e61227781836102f3565b810190611ee8565b91565b61222594975061222593612231969361237361221894846122a96060612378970151151590565b8e1461238257506123506122fe6122f07f0000000000000000000000000000000000000000000000000000000000000000955b6122186001600160a01b0388161515611dff565b95516001600160a01b031690565b8851925190926001600160a01b0316906123409015155b93612330612321610332565b6001600160a01b039099168952565b6001600160a01b03166020880152565b6001600160a01b03166040860152565b8c60608501528c60808501528c60a08501528c60c085015260e084019015159052565b612d1f565b96938295506121e6565b6122fe6122f06123bd6123b061239f60a061235096015160ff1690565b60ff165f52600460205260405f2090565b546001600160a01b031690565b956122dc565b93506123d26040850151151590565b88146124505761244a7f00000000000000000000000000000000000000000000000000000000000000005b6124116001600160a01b0382161515611dbb565b83516001600160a01b03168551909190612373906001600160a01b03168951612350906001600160a01b03166123406123158951151590565b936121dc565b61244a6124786123b0612467608088015160ff1690565b60ff165f52600360205260405f2090565b6123fd565b634e487b7160e01b5f52601160045260245ffd5b5f1981019190821161070d57565b9190820391821161070d57565b9190820180921161070d57565b9015611d925790565b9190811015611d925760051b0190565b356103c0816101fe565b9291926124e884610342565b906124f660405192836102f3565b848252601f1961250586610342565b0136602084013781945f5b81811061251e575050505050565b8061254061252f60019385896124c2565b35612539816101fe565b85306135f5565b5c61254b8287611da7565b5201612510565b1561255957565b60405162461bcd60e51b815260206004820152601d60248201527f496e76616c696420706f696e7465723a206d75737420626520302d31350000006044820152606490fd5b90918060409360208452816020850152848401375f828201840152601f01601f1916010190565b9291906125d181610342565b936125df60405195866102f3565b602085838152019160051b810192831161020f57905b82821061260157505050565b602080918335612610816101fe565b8152019101906125f5565b9081602091031261020f575190565b80516001600160a01b03908116835260208083015182169084015260408083015190911690830152606080820151908301526080808201516001600160801b03169083015261021e919060e090819060a0818101516001600160801b03169085015260c08181015161ffff169085015201511515910152565b806126b5610120926103c0959461262a565b816101008201520190611e42565b80519092906001600160a01b0316602084018051909391906001600160a01b03166040860180519196909290916001600160a01b03169660a0830197885161270a90611d85565b516001600160e81b0319169161271f93612c25565b955161272a90611d85565b516001600160e81b03191661273e90612b75565b81519094906001600160a01b031695516001600160a01b031692516001600160a01b031693606083015161277190611d85565b5160c087015161ffff1660809094015115159461278c610332565b6001600160a01b0390991689526001600160a01b031660208901526001600160a01b03909516604088019081529460608801526001600160801b031660808701526001600160801b031660a086015261ffff1660c0850152151560e084015260609260609183516127fc90151590565b9460209461285096612918575b8086015161288e575b50612225612832926122186122259361220a6040519889928b8401611e66565b905f6040518096819582946305e3344d60e41b8452600484016126a3565b03925af1908115610eb4575f91612865575091565b61227f915060203d602011612887575b61287f81836102f3565b81019061261b565b503d612875565b6122259194506128329284826128aa6060612225950151151590565b156128f857506128ed612218917f00000000000000000000000000000000000000000000000000000000000000005b6123736001600160a01b0382161515611dff565b969350509250612812565b612218916129136123b061239f60a06128ed95015160ff1690565b6128d9565b90506129276040820151151590565b1561296c57612966837f00000000000000000000000000000000000000000000000000000000000000005b6123736001600160a01b0382161515611dbb565b90612809565b612966836129846123b0612467608086015160ff1690565b612952565b1561299057565b60405162461bcd60e51b815260206004820152601860248201527f496e76616c6964206c697175696469747920616d6f756e7400000000000000006044820152606490fd5b156129dc57565b60405162461bcd60e51b8152602060048201526014602482015273139bc81b1a5c5d5a591a5d1e481a5b881c1bdbdb60621b6044820152606490fd5b90670de0b6b3a7640000820291808304670de0b6b3a7640000149015171561070d57565b9067120a871cc002000082029180830467120a871cc0020000149015171561070d57565b8181029291811591840414171561070d57565b8115612a7d570490565b634e487b7160e01b5f52601260045260245ffd5b600f0b6f7fffffffffffffffffffffffffffffff19811461070d575f0390565b60405160609190612ac283826102f3565b6002815291601f1901366020840137565b600160ff1b811461070d575f0390565b15612aea57565b60405162461bcd60e51b815260206004820152601760248201527f496e76616c696420696e697469616c20616d6f756e74730000000000000000006044820152606490fd5b6040519060e082018281106001600160401b038211176102ee576040525f60c0838281528260208201528260408201528260608201528260808201528260a08201520152565b6103c0610fff612c19612b86612b2f565b9360e81c612ba66001612b9f83627fffff9060011c1690565b1615158652565b6001811615156020860152612bd6612bcd6001600284901c623fffff165b1662ffffff1690565b15156040870152565b612bf6612bed6001600384901c621fffff16612bc4565b15156060870152565b600f600482901c81166080870152600882901c1660a0860152600c1c610fff1690565b1661ffff1660c0830152565b9092906001600160a01b038085169082161015612c975792915b6040516bffffffffffffffffffffffff19606095861b81166020830190815294861b811660348301529190941b1660488401526001600160e81b031916605c830152603f825290612c91605f826102f3565b51902090565b91612c3f565b60208183031261020f578051906001600160401b03821161020f570181601f8201121561020f578051906001600160401b0382116102ee5760405192612ced601f8401601f1916602001856102f3565b8284526020838301011161020f57815f9260208093018386015e8301015290565b6101008101929161021e919061262a565b90606091805c801580612e93575b15612e4d575b508251159182612d7e575b50604051911582526001600160a01b0316907fd34145bf6de6d1b18053ad66a4a1af093071a5ab67c05b8bfce98fd95ffb0d899080602081015b0390a290565b604051633bd1104b60e01b815293505f9084908190612da09060048301612d0e565b0381836001600160a01b0386165af1928315610eb4575f93612e03575b50612d787fd34145bf6de6d1b18053ad66a4a1af093071a5ab67c05b8bfce98fd95ffb0d8991848051612df3575b509150612d3e565b612dfd90826135c1565b5f612deb565b7fd34145bf6de6d1b18053ad66a4a1af093071a5ab67c05b8bfce98fd95ffb0d89919350612e45612d78913d805f833e612e3d81836102f3565b810190612c9d565b939150612dbd565b9250601f60405193808552018060051c5f5b818110612e7a575050601f191683016020016040525f612d33565b80600180928601015c60208260051b8901015201612e5f565b9350604051935f855260208501604052612d2d565b60405160208101907f626529a6be7cb2fb96a7ed93849b4ef74c980495dfe61fd514c95dcd9da51c3582523060601b604082015260348152612c916054826102f3565b805c61020f576001905d565b60405160208101907f626529a6be7cb2fb96a7ed93849b4ef74c980495dfe61fd514c95dcd9da51c3582523060601b60408201527f88f108d443a200407df3d92fc06ed196d7b48635560cc21c3b1819792e11c1a7605482015260548152612c916074826102f3565b60405160208101907f507ba82850c15277b79bae90c6e97b66228a117b64d05e46b3182d141df61ce282523060601b604082015260348152612fa36054826102f3565b5190205d565b8151915f5b838110612fbb5750505050565b6001906001600160a01b03612fd08285611da7565b5116612fdd8186306135f5565b5c80612fec575b505001612fae565b5f9161300c918381131561301457613005908883613840565b86306135f5565b5d5f80612fe4565b61302061303291612ad3565b821585146130375784905b8984613766565b613005565b849061302b565b90918251925f5b848110613053575050505050565b6001906001600160a01b036130688285611da7565b51166130758187306135f5565b5c80613084575b505001613045565b5f916130a491838113156130ac5761309d908983613840565b87306135f5565b5d5f8061307c565b6130b86130ca91612ad3565b821585146130cf5788905b8a84613766565b61309d565b84906130c3565b5f60405160208101907f507ba82850c15277b79bae90c6e97b66228a117b64d05e46b3182d141df61ce282523060601b604082015260348152612fa36054826102f3565b6131255f913061366a565b5d565b60405160208101907f507ba82850c15277b79bae90c6e97b66228a117b64d05e46b3182d141df61ce282523060601b60408201526034815261316b6054826102f3565b5190205c90565b1561317957565b60405162461bcd60e51b81526020600482015260076024820152664e6f20686f707360c81b6044820152606490fd5b9190811015611d925760051b8101359060be198136030182121561020f570190565b356103c0816103c3565b91909160018060a01b0316805f52600160205260405f20835f5260205260405f2080549083820391821161070d57556040805133815260208101939093525f925f5160206141f75f395f51905f5291819081015b0390a4565b90600f0b90600f0b019060016001607f1b0319821260016001607f1b0383131761070d57565b9091815f5260066020526001600160801b0361328661327c60405f205495838716600f0b61322d565b928560801d61322d565b81199060801b1691161791820361329b575050565b5f52600660205260405f2055565b906132b491306135f5565b90815c01905d565b6001600160801b0392935f146132ef575016908082106132da575050565b630173586760e01b5f5260045260245260445ffd5b905016908082106132fe575050565b6368580a1960e01b5f5260045260245260445ffd5b9190915f838201938412911290801582169115161761070d57565b909261333b8483306135f5565b5c6133478484306135f5565b5c916001600160a01b03858116929087168084146134105791816133aa95935f61021e9a9694125f146133f05761338061338f92612ad3565b906133e95782905b8887613766565b5f8313156133af5750506133a4908486613840565b826138b1565b6138b1565b5f83126133bf575b5050506133a4565b6133cb6133d993612ad3565b916133e157905b8587613766565b5f80806133b7565b505f906133d2565b5f90613388565b505f81136133ff575b5061338f565b61340a908786613840565b5f6133f9565b925061021e96959361342191613313565b925f84121561344d57506134376133aa93612ad3565b9161344557905b8385613766565b505f9061343e565b92915050825f8213613462575b5050506138b1565b61346b92613840565b5f808261345a565b6001600160801b03670de0b6b3a7640000911602906001600160801b03821691820361070d57565b929493919093825f52600560205260405f2054155f146134db575050506134c292506124ac565b905b81156134cc57565b63283eeadf60e01b5f5260045ffd5b90929193670de0b6b3a7640000810290808204670de0b6b3a7640000149015171561070d578161350a91612a73565b820180921161070d5761354b6118eb936001600160801b0361354461355b946118eb6135386135629b613473565b6001600160801b031690565b91166124ac565b936005905f5260205260405f2090565b5490612a60565b906134c4565b91909160018060a01b031690815f52600160205260405f20835f5260205260405f2080549082820180921161070d57556040805133815260208101929092525f915f5160206141f75f395f51905f529181908101613228565b601f825180835d0160051c915f5b8381106135dc5750505050565b80602060019260051b8401015182828601015d016135cf565b916040519160208301937f71aa94563c1d78d77df681ad802fc1a81ea7d00cffe4bbe002400e1d66de80d285526001600160601b03199060601b1660408401526001600160601b03199060601b1660548301526001600160601b03199060601b166068820152605c8152612c91607c826102f3565b906040519060208201927fe88690b85c82523984f05d1f281684a73aa4d4303bca19cfe29aa89ae744616a84526001600160601b03199060601b1660408301526001600160601b03199060601b16605482015260488152612c916068826102f3565b9081602091031261020f57516103c0816103c3565b156136e857565b60405162461bcd60e51b8152602060048201526015602482015274115490cc8c081d1c985b9cd9995c8819985a5b1959605a1b6044820152606490fd5b1561372c57565b60405162461bcd60e51b8152602060048201526012602482015271125b98dbdc9c9958dd08115512081cd95b9d60721b6044820152606490fd5b6001600160a01b0316929083613782575061021e925014613725565b9190613808576040516323b872dd60e01b81526001600160a01b0390921660048301523060248301526044820152906020908290815f81606481015b03925af18015610eb45761021e915f916137d9575b506136e1565b6137fb915060203d602011613801575b6137f381836102f3565b8101906136cc565b5f6137d3565b503d6137e9565b60405162461bcd60e51b815260206004820152601060248201526f115512081b9bdd08195e1c1958dd195960821b6044820152606490fd5b6001600160a01b03168061387a57505f808093819382908215613870575b6001600160a01b031690f115610eb457565b6108fc915061385e565b60405163a9059cbb60e01b81526001600160a01b0390921660048301526024820192909252906020908290815f81604481016137be565b5f9161312591306135f5565b903590601e198136030182121561020f57018035906001600160401b03821161020f57602001918160051b3603831361020f57565b156138f957565b60405162461bcd60e51b81526020600482015260116024820152704d69736d6174636865642061727261797360781b6044820152606490fd5b356103c0816103d8565b9594939291506060860161395081886138bd565b9050156139f25761397c61396760808901896138bd565b9050613973838a6138bd565b919050146138f2565b600161398882896138bd565b9050145f146139e6578661399e6103c0986124d2565b916139ab602083016124d2565b6139de60a06139d76139d26139cc6139c5604089016124d2565b96886138bd565b906124b9565b613932565b94016131ca565b936005613efb565b506103c0956005613b47565b60405162461bcd60e51b815260206004820152600b60248201526a4e6f206d61726b696e677360a81b6044820152606490fd5b91909160408184031261020f5780516001600160401b03811161020f5783613a4e918301611e8b565b9260208201516001600160401b03811161020f576103c09201611e8b565b90602080835192838152019201905f5b818110613a895750505090565b82516001600160e81b031916845260209384019390920191600101613a7c565b80516001600160a01b0390811683526020808301518216908401526040808301519091169083015260608082015160c09184018290526103c0939160a091613af3918401906105cd565b9260808101511515608084015201519060a0818403910152613a6c565b91613b3990613b2b6103c09593606086526060860190613aa9565b908482036020860152611f0d565b916040818403910152611f0d565b96949590929391966060840197613b5e89866138bd565b969050613eb8575b50613b7085611d3f565b91613b7a86611d3f565b905f5b878110613e225750815f91858389613c41613c639d9e9f613c15613c3a613ba3856124d2565b94613c2c613bb3602083016124d2565b94613be8613c25613bc6604086016124d2565b613bd360808701876138bd565b939094613be260a089016131ca565b976138bd565b989099613c05613bf6610314565b6001600160a01b03909e168e52565b6001600160a01b031660208d0152565b6001600160a01b031660408b0152565b3691610359565b606087015215156080860152565b36916103ea565b60a082015260405163027b8f7b60e11b81529c8d958694859360048501613b10565b03926001600160a01b03165af1908115610eb4575f975f92613dfb575b505f5b878110613cff57505050505090613cac9495613ca69392613cb0575b5050612491565b90611da7565b5190565b81613cc060a0613cea94016131ca565b15613cf1576020613cd191016124d2565b613ce3613cdd85612491565b87611da7565b51916132a9565b5f80613c9f565b613cfa906124d2565b613cd1565b80613dc18a89613d2984613d22600197613d1c60808601866138bd565b906124c2565b3593611da7565b51613d67613d47613d3a878d611da7565b516001600160801b031690565b82613d55613d3a898c611da7565b613d6160a087016131ca565b926132bc565b613d718589611da7565b5192613d7f60a084016131ca565b15613ddb57613d9e60a06001600160801b038316600f0b945b016131ca565b15613dc757506001600160801b03613db99116600f0b612a91565b915b8861401f565b01613c83565b6001600160801b03915016600f0b91613dbb565b613d9e60a0613df56001600160801b038516600f0b612a91565b94613d98565b909750613e1a91503d805f833e613e1281836102f3565b810190613a25565b90965f613c80565b600190613eb2613ea8613e8d613e6c8f8c613e3c816124d2565b91613e666139d289613d1c613e53602087016124d2565b94613e60604088016124d2565b966138bd565b92612c25565b886001915f520160205260405f2054906001600160801b0382169160801c90565b613e9a8589949394611da7565b906001600160801b03169052565b613e9a8389611da7565b01613b7d565b613ee690613ec860a087016131ca565b15613eec57613edf613ed9876124d2565b91612ad3565b90896132a9565b5f613b66565b613edf613ed9602088016124d2565b9185809c9b829893979b99959a969a613f168c82868c612c25565b96613ff6575b8885613f4389896001915f520160205260405f2054906001600160801b0382169160801c90565b9e8f948298613f539893956140bd565b9b8c809a613f60936132bc565b613f9b928915613fdb576001600160801b038216600f0b915b8a15613fc95750613f956001600160801b038a16600f0b612a91565b9261401f565b613fa7575b5050505050565b613fb79415613fc15750906132a9565b5f82818080613fa0565b9050906132a9565b6001600160801b0316600f0b9261401f565b613ff06001600160801b038a16600f0b612a91565b91613f79565b821561401657614011895b61400a87612ad3565b908d6132a9565b613f1c565b61401184614001565b6001909392930191815f52826020526001600160801b0361405761404d60405f205496838816600f0b61322d565b928660801d61322d565b81199060801b1691161792830361406d57505050565b5f5260205260405f2055565b919082604091031261020f576020825192015190565b9193926001600160801b0390816140b0604094606087526060870190613aa9565b9616602085015216910152565b61416198935f926141336040989a9799956141246140d9611d1d565b938d6140e486611d85565b526140fa6140f0611d1d565b96611a6788611d85565b614114614105610314565b6001600160a01b039098168852565b6001600160a01b03166020870152565b6001600160a01b0316848a0152565b6060830152871515608083015260a082015285516360a80dbb60e01b8152988995869485936004850161408f565b03926001600160a01b03165af1928315610eb4575f936141c4575b50821561418857505090565b909150156141aa5761419c6103c091612a3c565b670de0b6b3a7640000900490565b6141b66103c091612a18565b67120a871cc0020000900490565b6141e791935060403d6040116141ef575b6141df81836102f3565b810190614079565b50915f61417c565b503d6141d556fe1b3d7edb2e9c0b0e7c525b20aaaef0f5940d2ed71663c7d39266ecafac728859a264697066735822122023d7b998fbd527d63297dc39cc86b83d568b35ee7b58b11173b5b1c99b9345d064736f6c634300081e0033","opcodes":"PUSH1 0xC0 CALLVALUE PUSH2 0x96 JUMPI PUSH1 0x1F PUSH2 0x430F CODESIZE DUP2 SWAP1 SUB SWAP2 DUP3 ADD PUSH1 0x1F NOT AND DUP4 ADD SWAP2 PUSH1 0x1 PUSH1 0x1 PUSH1 0x40 SHL SUB DUP4 GT DUP5 DUP5 LT OR PUSH2 0x9A JUMPI DUP1 DUP5 SWAP3 PUSH1 0x40 SWAP5 DUP6 MSTORE DUP4 CODECOPY DUP2 ADD SUB SLT PUSH2 0x96 JUMPI PUSH2 0x52 PUSH1 0x20 PUSH2 0x4B DUP4 PUSH2 0xAE JUMP JUMPDEST SWAP3 ADD PUSH2 0xAE JUMP JUMPDEST SWAP1 PUSH1 0x80 MSTORE PUSH1 0xA0 MSTORE PUSH1 0x40 MLOAD PUSH2 0x424C SWAP1 DUP2 PUSH2 0xC3 DUP3 CODECOPY PUSH1 0x80 MLOAD DUP2 DUP2 DUP2 PUSH2 0x122C ADD MSTORE DUP2 DUP2 PUSH2 0x23DD ADD MSTORE PUSH2 0x2932 ADD MSTORE PUSH1 0xA0 MLOAD DUP2 DUP2 DUP2 PUSH2 0x727 ADD MSTORE DUP2 DUP2 PUSH2 0x22BB ADD MSTORE PUSH2 0x28B9 ADD MSTORE RETURN JUMPDEST PUSH0 DUP1 REVERT JUMPDEST PUSH4 0x4E487B71 PUSH1 0xE0 SHL PUSH0 MSTORE PUSH1 0x41 PUSH1 0x4 MSTORE PUSH1 0x24 PUSH0 REVERT JUMPDEST MLOAD SWAP1 PUSH1 0x1 PUSH1 0x1 PUSH1 0xA0 SHL SUB DUP3 AND DUP3 SUB PUSH2 0x96 JUMPI JUMP INVALID PUSH1 0x80 PUSH1 0x40 MSTORE PUSH1 0x4 CALLDATASIZE LT ISZERO PUSH2 0x11 JUMPI PUSH0 DUP1 REVERT JUMPDEST PUSH0 CALLDATALOAD PUSH1 0xE0 SHR DUP1 PUSH3 0xFDD58E EQ PUSH2 0x1F9 JUMPI DUP1 PUSH4 0x1FFC9A7 EQ PUSH2 0x1F4 JUMPI DUP1 PUSH4 0x4F71EF6 EQ PUSH2 0x18B JUMPI DUP1 PUSH4 0x95BCDB6 EQ PUSH2 0x1EF JUMPI DUP1 PUSH4 0x19920A5F EQ PUSH2 0x1EA JUMPI DUP1 PUSH4 0x2F380B35 EQ PUSH2 0x1E5 JUMPI DUP1 PUSH4 0x314E2321 EQ PUSH2 0x1E0 JUMPI DUP1 PUSH4 0x426A8493 EQ PUSH2 0x1DB JUMPI DUP1 PUSH4 0x460C6DF8 EQ PUSH2 0x1D6 JUMPI DUP1 PUSH4 0x558A7297 EQ PUSH2 0x1D1 JUMPI DUP1 PUSH4 0x5670F55A EQ PUSH2 0x1CC JUMPI DUP1 PUSH4 0x598AF9E7 EQ PUSH2 0x1C7 JUMPI DUP1 PUSH4 0x5B298D32 EQ PUSH2 0x1C2 JUMPI DUP1 PUSH4 0x5DFB78AF EQ PUSH2 0x1BD JUMPI DUP1 PUSH4 0x60A80DBB EQ PUSH2 0x1A4 JUMPI DUP1 PUSH4 0x61408F26 EQ PUSH2 0x1B8 JUMPI DUP1 PUSH4 0x7DC27C95 EQ PUSH2 0x1B3 JUMPI DUP1 PUSH4 0x83E66C2E EQ PUSH2 0x1AE JUMPI DUP1 PUSH4 0x8E832E08 EQ PUSH2 0x1A9 JUMPI DUP1 PUSH4 0x8F155291 EQ PUSH2 0x1A4 JUMPI DUP1 PUSH4 0x9D2EC6E4 EQ PUSH2 0x19F JUMPI DUP1 PUSH4 0xA1A44DAD EQ PUSH2 0x19A JUMPI DUP1 PUSH4 0xB5E60C3C EQ PUSH2 0x195 JUMPI DUP1 PUSH4 0xB6363CF2 EQ PUSH2 0x190 JUMPI DUP1 PUSH4 0xC279171D EQ PUSH2 0x18B JUMPI DUP1 PUSH4 0xCB1F2F38 EQ PUSH2 0x186 JUMPI DUP1 PUSH4 0xD2615FC8 EQ PUSH2 0x181 JUMPI DUP1 PUSH4 0xD92BC84C EQ PUSH2 0x17C JUMPI DUP1 PUSH4 0xE513315B EQ PUSH2 0x177 JUMPI DUP1 PUSH4 0xEA157ACF EQ PUSH2 0x172 JUMPI PUSH4 0xFE99049A EQ PUSH2 0x16D JUMPI PUSH0 DUP1 REVERT JUMPDEST PUSH2 0x1B6F JUMP JUMPDEST PUSH2 0x1A9F JUMP JUMPDEST PUSH2 0x180C JUMP JUMPDEST PUSH2 0x15A0 JUMP JUMPDEST PUSH2 0x155A JUMP JUMPDEST PUSH2 0x12E8 JUMP JUMPDEST PUSH2 0x625 JUMP JUMPDEST PUSH2 0x1285 JUMP JUMPDEST PUSH2 0x125B JUMP JUMPDEST PUSH2 0x1217 JUMP JUMPDEST PUSH2 0x1066 JUMP JUMPDEST PUSH2 0xF0E JUMP JUMPDEST PUSH2 0x1021 JUMP JUMPDEST PUSH2 0xFDB JUMP JUMPDEST PUSH2 0xF7C JUMP JUMPDEST PUSH2 0xF37 JUMP JUMPDEST PUSH2 0xDED JUMP JUMPDEST PUSH2 0xD1F JUMP JUMPDEST PUSH2 0xCB2 JUMP JUMPDEST PUSH2 0xAA0 JUMP JUMPDEST PUSH2 0xA04 JUMP JUMPDEST PUSH2 0x9A3 JUMP JUMPDEST PUSH2 0x912 JUMP JUMPDEST PUSH2 0x8BD JUMP JUMPDEST PUSH2 0x756 JUMP JUMPDEST PUSH2 0x712 JUMP JUMPDEST PUSH2 0x673 JUMP JUMPDEST PUSH2 0x269 JUMP JUMPDEST PUSH2 0x220 JUMP JUMPDEST PUSH1 0x1 PUSH1 0x1 PUSH1 0xA0 SHL SUB DUP2 AND SUB PUSH2 0x20F JUMPI JUMP JUMPDEST PUSH0 DUP1 REVERT JUMPDEST CALLDATALOAD SWAP1 PUSH2 0x21E DUP3 PUSH2 0x1FE JUMP JUMPDEST JUMP JUMPDEST CALLVALUE PUSH2 0x20F JUMPI PUSH1 0x40 CALLDATASIZE PUSH1 0x3 NOT ADD SLT PUSH2 0x20F JUMPI PUSH1 0x4 CALLDATALOAD PUSH2 0x23D DUP2 PUSH2 0x1FE JUMP JUMPDEST PUSH1 0x24 CALLDATALOAD SWAP1 PUSH1 0x1 DUP1 PUSH1 0xA0 SHL SUB AND PUSH0 MSTORE PUSH1 0x1 PUSH1 0x20 MSTORE PUSH1 0x40 PUSH0 KECCAK256 SWAP1 PUSH0 MSTORE PUSH1 0x20 MSTORE PUSH1 0x20 PUSH1 0x40 PUSH0 KECCAK256 SLOAD PUSH1 0x40 MLOAD SWAP1 DUP2 MSTORE RETURN JUMPDEST CALLVALUE PUSH2 0x20F JUMPI PUSH1 0x20 CALLDATASIZE PUSH1 0x3 NOT ADD SLT PUSH2 0x20F JUMPI PUSH1 0x4 CALLDATALOAD PUSH4 0xFFFFFFFF PUSH1 0xE0 SHL DUP2 AND DUP1 SWAP2 SUB PUSH2 0x20F JUMPI PUSH1 0x20 SWAP1 PUSH4 0x1FFC9A7 PUSH1 0xE0 SHL DUP2 EQ SWAP1 DUP2 ISZERO PUSH2 0x2AE JUMPI JUMPDEST POP PUSH1 0x40 MLOAD SWAP1 ISZERO ISZERO DUP2 MSTORE RETURN JUMPDEST PUSH4 0xF632FB3 PUSH1 0xE0 SHL EQ SWAP1 POP PUSH0 PUSH2 0x2A3 JUMP JUMPDEST PUSH4 0x4E487B71 PUSH1 0xE0 SHL PUSH0 MSTORE PUSH1 0x41 PUSH1 0x4 MSTORE PUSH1 0x24 PUSH0 REVERT JUMPDEST PUSH1 0x80 DUP2 ADD SWAP1 DUP2 LT PUSH1 0x1 PUSH1 0x1 PUSH1 0x40 SHL SUB DUP3 GT OR PUSH2 0x2EE JUMPI PUSH1 0x40 MSTORE JUMP JUMPDEST PUSH2 0x2BF JUMP JUMPDEST SWAP1 PUSH1 0x1F DUP1 NOT SWAP2 ADD AND DUP2 ADD SWAP1 DUP2 LT PUSH1 0x1 PUSH1 0x1 PUSH1 0x40 SHL SUB DUP3 GT OR PUSH2 0x2EE JUMPI PUSH1 0x40 MSTORE JUMP JUMPDEST PUSH1 0x40 MLOAD SWAP1 PUSH2 0x21E PUSH1 0xC0 DUP4 PUSH2 0x2F3 JUMP JUMPDEST PUSH1 0x40 MLOAD SWAP1 PUSH2 0x21E PUSH1 0x80 DUP4 PUSH2 0x2F3 JUMP JUMPDEST PUSH1 0x40 MLOAD SWAP1 PUSH2 0x21E PUSH2 0x100 DUP4 PUSH2 0x2F3 JUMP JUMPDEST PUSH1 0x1 PUSH1 0x1 PUSH1 0x40 SHL SUB DUP2 GT PUSH2 0x2EE JUMPI PUSH1 0x5 SHL PUSH1 0x20 ADD SWAP1 JUMP JUMPDEST SWAP3 SWAP2 SWAP1 PUSH2 0x365 DUP2 PUSH2 0x342 JUMP JUMPDEST SWAP4 PUSH2 0x373 PUSH1 0x40 MLOAD SWAP6 DUP7 PUSH2 0x2F3 JUMP JUMPDEST PUSH1 0x20 DUP6 DUP4 DUP2 MSTORE ADD SWAP2 PUSH1 0x5 SHL DUP2 ADD SWAP3 DUP4 GT PUSH2 0x20F JUMPI SWAP1 JUMPDEST DUP3 DUP3 LT PUSH2 0x395 JUMPI POP POP POP JUMP JUMPDEST DUP2 CALLDATALOAD DUP2 MSTORE PUSH1 0x20 SWAP2 DUP3 ADD SWAP2 ADD PUSH2 0x389 JUMP JUMPDEST SWAP1 DUP1 PUSH1 0x1F DUP4 ADD SLT ISZERO PUSH2 0x20F JUMPI DUP2 PUSH1 0x20 PUSH2 0x3C0 SWAP4 CALLDATALOAD SWAP2 ADD PUSH2 0x359 JUMP JUMPDEST SWAP1 JUMP JUMPDEST DUP1 ISZERO ISZERO SUB PUSH2 0x20F JUMPI JUMP JUMPDEST CALLDATALOAD SWAP1 PUSH2 0x21E DUP3 PUSH2 0x3C3 JUMP JUMPDEST PUSH1 0x1 PUSH1 0x1 PUSH1 0xE8 SHL SUB NOT DUP2 AND SUB PUSH2 0x20F JUMPI JUMP JUMPDEST SWAP3 SWAP2 SWAP1 PUSH2 0x3F6 DUP2 PUSH2 0x342 JUMP JUMPDEST SWAP4 PUSH2 0x404 PUSH1 0x40 MLOAD SWAP6 DUP7 PUSH2 0x2F3 JUMP JUMPDEST PUSH1 0x20 DUP6 DUP4 DUP2 MSTORE ADD SWAP2 PUSH1 0x5 SHL DUP2 ADD SWAP3 DUP4 GT PUSH2 0x20F JUMPI SWAP1 JUMPDEST DUP3 DUP3 LT PUSH2 0x426 JUMPI POP POP POP JUMP JUMPDEST PUSH1 0x20 DUP1 SWAP2 DUP4 CALLDATALOAD PUSH2 0x435 DUP2 PUSH2 0x3D8 JUMP JUMPDEST DUP2 MSTORE ADD SWAP2 ADD SWAP1 PUSH2 0x41A JUMP JUMPDEST SWAP1 DUP1 PUSH1 0x1F DUP4 ADD SLT ISZERO PUSH2 0x20F JUMPI DUP2 PUSH1 0x20 PUSH2 0x3C0 SWAP4 CALLDATALOAD SWAP2 ADD PUSH2 0x3EA JUMP JUMPDEST SWAP2 SWAP1 SWAP2 PUSH1 0xC0 DUP2 DUP5 SUB SLT PUSH2 0x20F JUMPI PUSH2 0x470 PUSH2 0x314 JUMP JUMPDEST SWAP3 PUSH2 0x47A DUP3 PUSH2 0x213 JUMP JUMPDEST DUP5 MSTORE PUSH2 0x488 PUSH1 0x20 DUP4 ADD PUSH2 0x213 JUMP JUMPDEST PUSH1 0x20 DUP6 ADD MSTORE PUSH2 0x499 PUSH1 0x40 DUP4 ADD PUSH2 0x213 JUMP JUMPDEST PUSH1 0x40 DUP6 ADD MSTORE PUSH1 0x60 DUP3 ADD CALLDATALOAD PUSH1 0x1 PUSH1 0x1 PUSH1 0x40 SHL SUB DUP2 GT PUSH2 0x20F JUMPI DUP2 PUSH2 0x4BD SWAP2 DUP5 ADD PUSH2 0x3A5 JUMP JUMPDEST PUSH1 0x60 DUP6 ADD MSTORE PUSH2 0x4CE PUSH1 0x80 DUP4 ADD PUSH2 0x3CD JUMP JUMPDEST PUSH1 0x80 DUP6 ADD MSTORE PUSH1 0xA0 DUP3 ADD CALLDATALOAD PUSH1 0x1 PUSH1 0x1 PUSH1 0x40 SHL SUB DUP2 GT PUSH2 0x20F JUMPI PUSH2 0x4F0 SWAP3 ADD PUSH2 0x440 JUMP JUMPDEST PUSH1 0xA0 DUP4 ADD MSTORE JUMP JUMPDEST SWAP1 DUP1 PUSH1 0x1F DUP4 ADD SLT ISZERO PUSH2 0x20F JUMPI DUP2 CALLDATALOAD SWAP1 PUSH2 0x50F DUP3 PUSH2 0x342 JUMP JUMPDEST SWAP3 PUSH2 0x51D PUSH1 0x40 MLOAD SWAP5 DUP6 PUSH2 0x2F3 JUMP JUMPDEST DUP3 DUP5 MSTORE PUSH1 0x20 DUP1 DUP6 ADD SWAP4 PUSH1 0x5 SHL DUP3 ADD ADD SWAP2 DUP3 GT PUSH2 0x20F JUMPI PUSH1 0x20 ADD SWAP2 JUMPDEST DUP2 DUP4 LT PUSH2 0x545 JUMPI POP POP POP SWAP1 JUMP JUMPDEST DUP3 CALLDATALOAD PUSH1 0x1 PUSH1 0x1 PUSH1 0x80 SHL SUB DUP2 AND DUP2 SUB PUSH2 0x20F JUMPI DUP2 MSTORE PUSH1 0x20 SWAP3 DUP4 ADD SWAP3 ADD PUSH2 0x538 JUMP JUMPDEST PUSH1 0x60 PUSH1 0x3 NOT DUP3 ADD SLT PUSH2 0x20F JUMPI PUSH1 0x4 CALLDATALOAD PUSH1 0x1 PUSH1 0x1 PUSH1 0x40 SHL SUB DUP2 GT PUSH2 0x20F JUMPI DUP2 PUSH2 0x58F SWAP2 PUSH1 0x4 ADD PUSH2 0x45B JUMP JUMPDEST SWAP2 PUSH1 0x24 CALLDATALOAD PUSH1 0x1 PUSH1 0x1 PUSH1 0x40 SHL SUB DUP2 GT PUSH2 0x20F JUMPI DUP3 PUSH2 0x5AE SWAP2 PUSH1 0x4 ADD PUSH2 0x4F7 JUMP JUMPDEST SWAP2 PUSH1 0x44 CALLDATALOAD SWAP1 PUSH1 0x1 PUSH1 0x1 PUSH1 0x40 SHL SUB DUP3 GT PUSH2 0x20F JUMPI PUSH2 0x3C0 SWAP2 PUSH1 0x4 ADD PUSH2 0x4F7 JUMP JUMPDEST SWAP1 PUSH1 0x20 DUP1 DUP4 MLOAD SWAP3 DUP4 DUP2 MSTORE ADD SWAP3 ADD SWAP1 PUSH0 JUMPDEST DUP2 DUP2 LT PUSH2 0x5EA JUMPI POP POP POP SWAP1 JUMP JUMPDEST DUP3 MLOAD DUP5 MSTORE PUSH1 0x20 SWAP4 DUP5 ADD SWAP4 SWAP1 SWAP3 ADD SWAP2 PUSH1 0x1 ADD PUSH2 0x5DD JUMP JUMPDEST SWAP1 SWAP2 PUSH2 0x617 PUSH2 0x3C0 SWAP4 PUSH1 0x40 DUP5 MSTORE PUSH1 0x40 DUP5 ADD SWAP1 PUSH2 0x5CD JUMP JUMPDEST SWAP2 PUSH1 0x20 DUP2 DUP5 SUB SWAP2 ADD MSTORE PUSH2 0x5CD JUMP JUMPDEST CALLVALUE PUSH2 0x20F JUMPI PUSH2 0x63C PUSH2 0x636 CALLDATASIZE PUSH2 0x565 JUMP JUMPDEST SWAP2 PUSH2 0x204F JUMP JUMPDEST SWAP1 PUSH2 0x64C PUSH1 0x40 MLOAD SWAP3 DUP4 SWAP3 DUP4 PUSH2 0x600 JUMP JUMPDEST SUB SWAP1 RETURN JUMPDEST PUSH1 0x60 SWAP1 PUSH1 0x3 NOT ADD SLT PUSH2 0x20F JUMPI PUSH1 0x4 CALLDATALOAD PUSH2 0x668 DUP2 PUSH2 0x1FE JUMP JUMPDEST SWAP1 PUSH1 0x24 CALLDATALOAD SWAP1 PUSH1 0x44 CALLDATALOAD SWAP1 JUMP JUMPDEST CALLVALUE PUSH2 0x20F JUMPI PUSH2 0x681 CALLDATASIZE PUSH2 0x650 JUMP JUMPDEST SWAP1 SWAP2 CALLER PUSH0 MSTORE PUSH1 0x1 PUSH1 0x20 MSTORE PUSH1 0x40 PUSH0 KECCAK256 DUP4 PUSH0 MSTORE PUSH1 0x20 MSTORE PUSH1 0x40 PUSH0 KECCAK256 DUP1 SLOAD SWAP1 DUP4 DUP3 SUB SWAP2 DUP3 GT PUSH2 0x70D JUMPI SSTORE PUSH1 0x1 DUP1 PUSH1 0xA0 SHL SUB AND SWAP1 DUP2 PUSH0 MSTORE PUSH1 0x1 PUSH1 0x20 MSTORE PUSH2 0x6CD DUP4 PUSH1 0x40 PUSH0 KECCAK256 SWAP1 PUSH0 MSTORE PUSH1 0x20 MSTORE PUSH1 0x40 PUSH0 KECCAK256 SWAP1 JUMP JUMPDEST PUSH2 0x6D8 DUP3 DUP3 SLOAD PUSH2 0x24AC JUMP JUMPDEST SWAP1 SSTORE PUSH1 0x40 DUP1 MLOAD CALLER DUP1 DUP3 MSTORE PUSH1 0x20 DUP3 ADD SWAP4 SWAP1 SWAP4 MSTORE PUSH0 MLOAD PUSH1 0x20 PUSH2 0x41F7 PUSH0 CODECOPY PUSH0 MLOAD SWAP1 PUSH0 MSTORE SWAP2 DUP2 SWAP1 DUP2 ADD JUMPDEST SUB SWAP1 LOG4 PUSH1 0x40 MLOAD PUSH1 0x1 DUP2 MSTORE PUSH1 0x20 SWAP1 RETURN JUMPDEST PUSH2 0x247D JUMP JUMPDEST CALLVALUE PUSH2 0x20F JUMPI PUSH0 CALLDATASIZE PUSH1 0x3 NOT ADD SLT PUSH2 0x20F JUMPI PUSH1 0x40 MLOAD PUSH32 0x0 PUSH1 0x1 PUSH1 0x1 PUSH1 0xA0 SHL SUB AND DUP2 MSTORE PUSH1 0x20 SWAP1 RETURN JUMPDEST CALLVALUE PUSH2 0x20F JUMPI PUSH1 0x20 CALLDATASIZE PUSH1 0x3 NOT ADD SLT PUSH2 0x20F JUMPI PUSH1 0x4 CALLDATALOAD PUSH0 PUSH1 0x60 PUSH1 0x40 MLOAD PUSH2 0x779 DUP2 PUSH2 0x2D3 JUMP JUMPDEST DUP3 DUP2 MSTORE DUP3 PUSH1 0x20 DUP3 ADD MSTORE DUP3 PUSH1 0x40 DUP3 ADD MSTORE ADD MSTORE PUSH0 MSTORE PUSH1 0x7 PUSH1 0x20 MSTORE PUSH1 0x40 PUSH0 KECCAK256 PUSH1 0x40 MLOAD SWAP1 PUSH2 0x7A2 DUP3 PUSH2 0x2D3 JUMP JUMPDEST DUP1 SLOAD PUSH1 0x1 PUSH1 0x1 PUSH1 0xA0 SHL SUB SWAP1 DUP2 AND DUP1 DUP5 MSTORE PUSH1 0x1 DUP4 ADD SLOAD DUP3 AND PUSH1 0x20 DUP6 ADD DUP2 SWAP1 MSTORE PUSH1 0x2 SWAP1 SWAP4 ADD SLOAD SWAP2 DUP3 AND PUSH1 0x40 DUP6 ADD DUP2 SWAP1 MSTORE PUSH1 0x48 SWAP3 SWAP1 SWAP3 SHL PUSH1 0x1 PUSH1 0x1 PUSH1 0xE8 SHL SUB NOT AND PUSH1 0x60 SWAP5 SWAP1 SWAP5 ADD DUP5 SWAP1 MSTORE SWAP1 SWAP3 PUSH2 0x64C SWAP2 PUSH2 0x819 SWAP1 PUSH2 0x80B SWAP1 PUSH2 0x7FE SWAP1 DUP2 JUMP JUMPDEST SWAP6 PUSH1 0x1 PUSH1 0x1 PUSH1 0xA0 SHL SUB AND SWAP1 JUMP JUMPDEST SWAP2 PUSH1 0x1 PUSH1 0x1 PUSH1 0xE8 SHL SUB NOT AND SWAP1 JUMP JUMPDEST PUSH1 0x40 DUP1 MLOAD PUSH1 0x1 PUSH1 0x1 PUSH1 0xA0 SHL SUB SWAP6 DUP7 AND DUP2 MSTORE SWAP6 DUP6 AND PUSH1 0x20 DUP8 ADD MSTORE SWAP2 SWAP1 SWAP4 AND SWAP1 DUP5 ADD MSTORE PUSH1 0x1 PUSH1 0x1 PUSH1 0xE8 SHL SUB NOT SWAP1 SWAP2 AND PUSH1 0x60 DUP4 ADD MSTORE DUP2 SWAP1 PUSH1 0x80 DUP3 ADD SWAP1 JUMP JUMPDEST SWAP2 DUP2 PUSH1 0x1F DUP5 ADD SLT ISZERO PUSH2 0x20F JUMPI DUP3 CALLDATALOAD SWAP2 PUSH1 0x1 PUSH1 0x1 PUSH1 0x40 SHL SUB DUP4 GT PUSH2 0x20F JUMPI PUSH1 0x20 DUP1 DUP6 ADD SWAP5 DUP5 PUSH1 0x5 SHL ADD ADD GT PUSH2 0x20F JUMPI JUMP JUMPDEST PUSH1 0x20 PUSH1 0x40 DUP2 DUP4 ADD SWAP3 DUP3 DUP2 MSTORE DUP5 MLOAD DUP1 SWAP5 MSTORE ADD SWAP3 ADD SWAP1 PUSH0 JUMPDEST DUP2 DUP2 LT PUSH2 0x8A7 JUMPI POP POP POP SWAP1 JUMP JUMPDEST DUP3 MLOAD DUP5 MSTORE PUSH1 0x20 SWAP4 DUP5 ADD SWAP4 SWAP1 SWAP3 ADD SWAP2 PUSH1 0x1 ADD PUSH2 0x89A JUMP JUMPDEST CALLVALUE PUSH2 0x20F JUMPI PUSH1 0x40 CALLDATASIZE PUSH1 0x3 NOT ADD SLT PUSH2 0x20F JUMPI PUSH1 0x4 CALLDATALOAD PUSH2 0x8DA DUP2 PUSH2 0x1FE JUMP JUMPDEST PUSH1 0x24 CALLDATALOAD PUSH1 0x1 PUSH1 0x1 PUSH1 0x40 SHL SUB DUP2 GT PUSH2 0x20F JUMPI PUSH2 0x64C SWAP2 PUSH2 0x900 PUSH2 0x906 SWAP3 CALLDATASIZE SWAP1 PUSH1 0x4 ADD PUSH2 0x854 JUMP JUMPDEST SWAP2 PUSH2 0x24DC JUMP JUMPDEST PUSH1 0x40 MLOAD SWAP2 DUP3 SWAP2 DUP3 PUSH2 0x884 JUMP JUMPDEST CALLVALUE PUSH2 0x20F JUMPI PUSH2 0x920 CALLDATASIZE PUSH2 0x650 JUMP JUMPDEST SWAP1 SWAP2 CALLER PUSH0 MSTORE PUSH1 0x2 PUSH1 0x20 MSTORE PUSH2 0x947 DUP2 PUSH1 0x40 PUSH0 KECCAK256 SWAP1 PUSH1 0x1 DUP1 PUSH1 0xA0 SHL SUB AND PUSH0 MSTORE PUSH1 0x20 MSTORE PUSH1 0x40 PUSH0 KECCAK256 SWAP1 JUMP JUMPDEST DUP4 PUSH0 MSTORE PUSH1 0x20 MSTORE DUP2 PUSH1 0x40 PUSH0 KECCAK256 SSTORE PUSH1 0x40 MLOAD SWAP2 DUP3 MSTORE PUSH1 0x1 DUP1 PUSH1 0xA0 SHL SUB AND SWAP1 PUSH32 0xB3FD5071835887567A0671151121894DDCCC2842F1D10BEDAD13E0D17CACE9A7 PUSH1 0x20 CALLER SWAP3 LOG4 PUSH1 0x20 PUSH1 0x40 MLOAD PUSH1 0x1 DUP2 MSTORE RETURN JUMPDEST PUSH1 0x4 CALLDATALOAD SWAP1 PUSH1 0xFF DUP3 AND DUP3 SUB PUSH2 0x20F JUMPI JUMP JUMPDEST CALLVALUE PUSH2 0x20F JUMPI PUSH1 0x40 CALLDATASIZE PUSH1 0x3 NOT ADD SLT PUSH2 0x20F JUMPI PUSH2 0xA02 PUSH2 0x9BF PUSH2 0x993 JUMP JUMPDEST PUSH1 0xFF PUSH1 0x24 CALLDATALOAD SWAP2 PUSH2 0x9CE DUP4 PUSH2 0x1FE JUMP JUMPDEST AND PUSH2 0x9DB PUSH1 0x10 DUP3 LT PUSH2 0x2552 JUMP JUMPDEST PUSH0 MSTORE PUSH1 0x3 PUSH1 0x20 MSTORE PUSH1 0x40 PUSH0 KECCAK256 SWAP1 PUSH1 0x1 DUP1 PUSH1 0xA0 SHL SUB AND PUSH1 0x1 PUSH1 0x1 PUSH1 0x60 SHL SUB PUSH1 0xA0 SHL DUP3 SLOAD AND OR SWAP1 SSTORE JUMP JUMPDEST STOP JUMPDEST CALLVALUE PUSH2 0x20F JUMPI PUSH1 0x40 CALLDATASIZE PUSH1 0x3 NOT ADD SLT PUSH2 0x20F JUMPI PUSH1 0x4 CALLDATALOAD PUSH2 0xA21 DUP2 PUSH2 0x1FE JUMP JUMPDEST PUSH1 0x24 CALLDATALOAD SWAP1 PUSH2 0xA2E DUP3 PUSH2 0x3C3 JUMP JUMPDEST CALLER PUSH0 SWAP1 DUP2 MSTORE PUSH1 0x20 DUP2 DUP2 MSTORE PUSH1 0x40 DUP1 DUP4 KECCAK256 PUSH1 0x1 PUSH1 0x1 PUSH1 0xA0 SHL SUB DUP6 AND DUP5 MSTORE SWAP1 SWAP2 MSTORE SWAP1 KECCAK256 SWAP2 ISZERO ISZERO SWAP2 PUSH1 0xFF NOT DUP2 SLOAD AND PUSH1 0xFF DUP5 AND OR SWAP1 SSTORE PUSH1 0x40 MLOAD SWAP2 DUP3 MSTORE PUSH1 0x1 DUP1 PUSH1 0xA0 SHL SUB AND SWAP1 PUSH32 0xCEB576D9F15E4E200FDB5096D64D5DFD667E16DEF20C1EEFD14256D8E3FAA267 PUSH1 0x20 CALLER SWAP3 LOG3 PUSH1 0x40 MLOAD PUSH1 0x1 DUP2 MSTORE PUSH1 0x20 SWAP1 RETURN JUMPDEST CALLVALUE PUSH2 0x20F JUMPI PUSH1 0x80 CALLDATASIZE PUSH1 0x3 NOT ADD SLT PUSH2 0x20F JUMPI PUSH1 0x4 CALLDATALOAD PUSH2 0xABD DUP2 PUSH2 0x1FE JUMP JUMPDEST PUSH1 0x24 CALLDATALOAD PUSH2 0xAC9 DUP2 PUSH2 0x1FE JUMP JUMPDEST PUSH1 0x44 CALLDATALOAD SWAP2 PUSH2 0xAD6 DUP4 PUSH2 0x1FE JUMP JUMPDEST PUSH1 0x64 CALLDATALOAD SWAP2 PUSH2 0xAE3 DUP4 PUSH2 0x3D8 JUMP JUMPDEST PUSH2 0xAF3 PUSH2 0xAEE PUSH2 0x2EA8 JUMP JUMPDEST PUSH2 0x2EEB JUMP JUMPDEST PUSH2 0xAFF DUP4 DUP6 DUP4 DUP6 PUSH2 0x2C25 JUMP JUMPDEST SWAP3 PUSH1 0x1 DUP1 PUSH1 0xA0 SHL SUB PUSH2 0xB2C PUSH1 0x2 PUSH2 0xB1E DUP8 PUSH0 MSTORE PUSH1 0x7 PUSH1 0x20 MSTORE PUSH1 0x40 PUSH0 KECCAK256 SWAP1 JUMP JUMPDEST ADD SLOAD PUSH1 0x1 PUSH1 0x1 PUSH1 0xA0 SHL SUB AND SWAP1 JUMP JUMPDEST AND PUSH2 0xC9E JUMPI PUSH2 0x64C SWAP5 DUP5 SWAP4 PUSH32 0x68DF9A4EB7AACBE8F43763BFBC9F7CA135A5397190EA1CCE2558DB52DC2F3692 SWAP4 SWAP2 SWAP3 SWAP1 SWAP2 SWAP1 PUSH1 0x1 PUSH1 0x1 PUSH1 0xA0 SHL SUB DUP1 DUP4 AND SWAP1 DUP5 AND LT ISZERO PUSH2 0xC93 JUMPI PUSH2 0xC76 SWAP2 SWAP4 JUMPDEST PUSH2 0xC3A PUSH2 0xB83 PUSH2 0x323 JUMP JUMPDEST PUSH1 0x1 PUSH1 0x1 PUSH1 0xA0 SHL SUB DUP7 AND DUP2 MSTORE PUSH1 0x1 PUSH1 0x1 PUSH1 0xA0 SHL SUB DUP8 AND PUSH1 0x20 DUP3 ADD MSTORE PUSH1 0x1 PUSH1 0x1 PUSH1 0xA0 SHL SUB DUP4 AND PUSH1 0x40 DUP3 ADD MSTORE PUSH1 0x1 PUSH1 0x1 PUSH1 0xE8 SHL SUB NOT DUP5 AND PUSH1 0x60 DUP3 ADD MSTORE PUSH2 0xBCF DUP10 PUSH0 MSTORE PUSH1 0x7 PUSH1 0x20 MSTORE PUSH1 0x40 PUSH0 KECCAK256 SWAP1 JUMP JUMPDEST DUP2 MLOAD DUP2 SLOAD PUSH1 0x1 PUSH1 0x1 PUSH1 0xA0 SHL SUB NOT SWAP1 DUP2 AND PUSH1 0x1 PUSH1 0x1 PUSH1 0xA0 SHL SUB SWAP3 DUP4 AND OR DUP4 SSTORE PUSH1 0x20 DUP5 ADD MLOAD PUSH1 0x1 DUP5 ADD DUP1 SLOAD SWAP1 SWAP3 AND SWAP1 DUP4 AND OR SWAP1 SSTORE PUSH1 0x40 DUP4 ADD MLOAD PUSH1 0x2 SWAP1 SWAP3 ADD DUP1 SLOAD PUSH1 0x60 SWAP1 SWAP5 ADD MLOAD SWAP3 SWAP1 SWAP2 AND PUSH1 0x1 PUSH1 0x1 PUSH1 0xB8 SHL SUB NOT SWAP1 SWAP4 AND SWAP3 SWAP1 SWAP3 OR PUSH1 0x48 SWAP2 SWAP1 SWAP2 SHR PUSH3 0xFFFFFF PUSH1 0xA0 SHL AND OR SWAP1 SSTORE JUMP JUMPDEST PUSH1 0x40 DUP1 MLOAD PUSH1 0x1 PUSH1 0x1 PUSH1 0xA0 SHL SUB SWAP6 DUP7 AND DUP2 MSTORE SWAP6 DUP6 AND PUSH1 0x20 DUP8 ADD MSTORE SWAP4 AND SWAP3 DUP5 ADD SWAP3 SWAP1 SWAP3 MSTORE PUSH1 0x1 PUSH1 0x1 PUSH1 0xE8 SHL SUB NOT SWAP1 SWAP2 AND PUSH1 0x60 DUP4 ADD MSTORE DUP2 SWAP1 PUSH1 0x80 DUP3 ADD SWAP1 JUMP JUMPDEST SUB SWAP1 LOG2 PUSH0 PUSH2 0xC82 PUSH2 0x2EA8 JUMP JUMPDEST TSTORE PUSH1 0x40 MLOAD SWAP1 DUP2 MSTORE SWAP1 DUP2 SWAP1 PUSH1 0x20 DUP3 ADD SWAP1 JUMP JUMPDEST PUSH2 0xC76 SWAP2 SWAP3 SWAP4 PUSH2 0xB78 JUMP JUMPDEST PUSH4 0xE1ECC133 PUSH1 0xE0 SHL PUSH0 MSTORE PUSH1 0x4 DUP5 SWAP1 MSTORE PUSH1 0x24 PUSH0 REVERT JUMPDEST CALLVALUE PUSH2 0x20F JUMPI PUSH1 0x60 CALLDATASIZE PUSH1 0x3 NOT ADD SLT PUSH2 0x20F JUMPI PUSH1 0x4 CALLDATALOAD PUSH2 0xCCF DUP2 PUSH2 0x1FE JUMP JUMPDEST PUSH2 0xD0A PUSH1 0x24 CALLDATALOAD PUSH2 0xCDE DUP2 PUSH2 0x1FE JUMP JUMPDEST PUSH1 0x44 CALLDATALOAD SWAP3 PUSH1 0x1 DUP1 PUSH1 0xA0 SHL SUB AND PUSH0 MSTORE PUSH1 0x2 PUSH1 0x20 MSTORE PUSH1 0x40 PUSH0 KECCAK256 SWAP1 PUSH1 0x1 DUP1 PUSH1 0xA0 SHL SUB AND PUSH0 MSTORE PUSH1 0x20 MSTORE PUSH1 0x40 PUSH0 KECCAK256 SWAP1 JUMP JUMPDEST SWAP1 PUSH0 MSTORE PUSH1 0x20 MSTORE PUSH1 0x20 PUSH1 0x40 PUSH0 KECCAK256 SLOAD PUSH1 0x40 MLOAD SWAP1 DUP2 MSTORE RETURN JUMPDEST CALLVALUE PUSH2 0x20F JUMPI PUSH1 0x20 CALLDATASIZE PUSH1 0x3 NOT ADD SLT PUSH2 0x20F JUMPI PUSH1 0x40 PUSH1 0x1 PUSH1 0x1 PUSH1 0x80 SHL SUB PUSH2 0xD5E PUSH1 0x4 CALLDATALOAD PUSH0 MSTORE PUSH1 0x6 PUSH1 0x20 MSTORE PUSH1 0x40 PUSH0 KECCAK256 SLOAD SWAP1 PUSH1 0x1 PUSH1 0x1 PUSH1 0x80 SHL SUB DUP3 AND SWAP2 PUSH1 0x80 SHR SWAP1 JUMP JUMPDEST DUP4 MLOAD SWAP2 DUP4 AND DUP3 MSTORE SWAP1 SWAP2 AND PUSH1 0x20 DUP3 ADD MSTORE RETURN JUMPDEST SWAP1 PUSH1 0x60 PUSH1 0x3 NOT DUP4 ADD SLT PUSH2 0x20F JUMPI PUSH1 0x4 CALLDATALOAD PUSH2 0xD88 DUP2 PUSH2 0x1FE JUMP JUMPDEST SWAP2 PUSH1 0x24 CALLDATALOAD SWAP2 PUSH1 0x1 PUSH1 0x1 PUSH1 0x40 SHL SUB DUP4 GT PUSH2 0x20F JUMPI DUP2 PUSH1 0x23 DUP5 ADD SLT ISZERO PUSH2 0x20F JUMPI DUP3 PUSH1 0x4 ADD CALLDATALOAD SWAP3 PUSH1 0x1 PUSH1 0x1 PUSH1 0x40 SHL SUB DUP5 GT PUSH2 0x20F JUMPI DUP3 PUSH1 0x24 DUP6 DUP4 ADD ADD GT PUSH2 0x20F JUMPI PUSH1 0x24 ADD SWAP3 SWAP2 PUSH1 0x44 CALLDATALOAD SWAP1 PUSH1 0x1 PUSH1 0x1 PUSH1 0x40 SHL SUB DUP3 GT PUSH2 0x20F JUMPI PUSH2 0xDE9 SWAP2 PUSH1 0x4 ADD PUSH2 0x854 JUMP JUMPDEST SWAP1 SWAP2 JUMP JUMPDEST PUSH2 0xDF6 CALLDATASIZE PUSH2 0xD6F JUMP JUMPDEST SWAP4 SWAP2 PUSH2 0xE00 PUSH2 0x2EF7 JUMP JUMPDEST SWAP3 PUSH2 0xE0A DUP5 PUSH2 0x2EEB JUMP JUMPDEST PUSH1 0x1 PUSH2 0xE16 CALLER ADDRESS PUSH2 0x366A JUMP JUMPDEST TSTORE PUSH2 0xE20 CALLER PUSH2 0x2F60 JUMP JUMPDEST PUSH1 0x1 PUSH1 0x1 PUSH1 0xA0 SHL SUB AND SWAP4 DUP5 EXTCODESIZE ISZERO PUSH2 0x20F JUMPI PUSH1 0x40 MLOAD PUSH4 0x1C6E7247 PUSH1 0xE3 SHL DUP2 MSTORE SWAP2 PUSH0 SWAP2 DUP4 SWAP2 PUSH2 0xE50 SWAP2 PUSH1 0x4 DUP5 ADD PUSH2 0x259E JUMP JUMPDEST SWAP6 DUP2 DUP4 DUP2 DUP2 SWAP10 SUB SWAP3 GAS CALL DUP1 ISZERO PUSH2 0xEB4 JUMPI PUSH2 0xE96 JUMPI JUMPDEST POP DUP3 SWAP4 PUSH2 0xE78 PUSH2 0xE7E SWAP3 CALLVALUE SWAP3 CALLDATASIZE SWAP2 PUSH2 0x25C5 JUMP JUMPDEST CALLER PUSH2 0x303E JUMP JUMPDEST PUSH2 0xE86 PUSH2 0x30D6 JUMP JUMPDEST PUSH0 PUSH2 0xE91 CALLER ADDRESS PUSH2 0x366A JUMP JUMPDEST TSTORE TSTORE DUP1 RETURN JUMPDEST PUSH2 0xE7E SWAP2 SWAP4 POP SWAP4 PUSH2 0xEAA PUSH0 PUSH2 0xE78 SWAP7 PUSH2 0x2F3 JUMP JUMPDEST PUSH0 SWAP4 SWAP2 POP SWAP4 PUSH2 0xE65 JUMP JUMPDEST PUSH2 0x2044 JUMP JUMPDEST PUSH1 0x60 PUSH1 0x3 NOT DUP3 ADD SLT PUSH2 0x20F JUMPI PUSH1 0x4 CALLDATALOAD SWAP1 PUSH1 0x1 PUSH1 0x1 PUSH1 0x40 SHL SUB DUP3 GT PUSH2 0x20F JUMPI PUSH2 0xEE3 SWAP2 PUSH1 0x4 ADD PUSH2 0x45B JUMP JUMPDEST SWAP1 PUSH1 0x24 CALLDATALOAD PUSH1 0x1 PUSH1 0x1 PUSH1 0x80 SHL SUB DUP2 AND DUP2 SUB PUSH2 0x20F JUMPI SWAP1 PUSH1 0x44 CALLDATALOAD PUSH1 0x1 PUSH1 0x1 PUSH1 0x80 SHL SUB DUP2 AND DUP2 SUB PUSH2 0x20F JUMPI SWAP1 JUMP JUMPDEST CALLVALUE PUSH2 0x20F JUMPI PUSH2 0xF25 PUSH2 0xF1F CALLDATASIZE PUSH2 0xEB9 JUMP JUMPDEST SWAP2 PUSH2 0x26C3 JUMP JUMPDEST PUSH1 0x40 DUP1 MLOAD SWAP3 DUP4 MSTORE PUSH1 0x20 DUP4 ADD SWAP2 SWAP1 SWAP2 MSTORE SWAP1 RETURN JUMPDEST CALLVALUE PUSH2 0x20F JUMPI PUSH1 0x20 CALLDATASIZE PUSH1 0x3 NOT ADD SLT PUSH2 0x20F JUMPI PUSH1 0xFF PUSH2 0xF52 PUSH2 0x993 JUMP JUMPDEST AND PUSH2 0xF5F PUSH1 0x10 DUP3 LT PUSH2 0x2552 JUMP JUMPDEST PUSH0 SWAP1 DUP2 MSTORE PUSH1 0x4 PUSH1 0x20 MSTORE PUSH1 0x40 SWAP1 KECCAK256 DUP1 SLOAD PUSH1 0x1 PUSH1 0x1 PUSH1 0xA0 SHL SUB NOT AND SWAP1 SSTORE STOP JUMPDEST CALLVALUE PUSH2 0x20F JUMPI PUSH1 0x40 CALLDATASIZE PUSH1 0x3 NOT ADD SLT PUSH2 0x20F JUMPI PUSH2 0xA02 PUSH2 0xF98 PUSH2 0x993 JUMP JUMPDEST PUSH1 0xFF PUSH1 0x24 CALLDATALOAD SWAP2 PUSH2 0xFA7 DUP4 PUSH2 0x1FE JUMP JUMPDEST AND PUSH2 0xFB4 PUSH1 0x10 DUP3 LT PUSH2 0x2552 JUMP JUMPDEST PUSH0 MSTORE PUSH1 0x4 PUSH1 0x20 MSTORE PUSH1 0x40 PUSH0 KECCAK256 SWAP1 PUSH1 0x1 DUP1 PUSH1 0xA0 SHL SUB AND PUSH1 0x1 PUSH1 0x1 PUSH1 0x60 SHL SUB PUSH1 0xA0 SHL DUP3 SLOAD AND OR SWAP1 SSTORE JUMP JUMPDEST CALLVALUE PUSH2 0x20F JUMPI PUSH1 0x20 CALLDATASIZE PUSH1 0x3 NOT ADD SLT PUSH2 0x20F JUMPI PUSH1 0xFF PUSH2 0xFF6 PUSH2 0x993 JUMP JUMPDEST AND PUSH2 0x1003 PUSH1 0x10 DUP3 LT PUSH2 0x2552 JUMP JUMPDEST PUSH0 MSTORE PUSH1 0x4 PUSH1 0x20 MSTORE PUSH1 0x20 PUSH1 0x1 DUP1 PUSH1 0xA0 SHL SUB PUSH1 0x40 PUSH0 KECCAK256 SLOAD AND PUSH1 0x40 MLOAD SWAP1 DUP2 MSTORE RETURN JUMPDEST CALLVALUE PUSH2 0x20F JUMPI PUSH1 0x20 CALLDATASIZE PUSH1 0x3 NOT ADD SLT PUSH2 0x20F JUMPI PUSH1 0xFF PUSH2 0x103C PUSH2 0x993 JUMP JUMPDEST AND PUSH2 0x1049 PUSH1 0x10 DUP3 LT PUSH2 0x2552 JUMP JUMPDEST PUSH0 SWAP1 DUP2 MSTORE PUSH1 0x3 PUSH1 0x20 MSTORE PUSH1 0x40 SWAP1 KECCAK256 DUP1 SLOAD PUSH1 0x1 PUSH1 0x1 PUSH1 0xA0 SHL SUB NOT AND SWAP1 SSTORE STOP JUMPDEST PUSH1 0x60 CALLDATASIZE PUSH1 0x3 NOT ADD SLT PUSH2 0x20F JUMPI PUSH1 0x4 CALLDATALOAD PUSH1 0x1 PUSH1 0x1 PUSH1 0x40 SHL SUB DUP2 GT PUSH2 0x20F JUMPI PUSH2 0x1091 SWAP1 CALLDATASIZE SWAP1 PUSH1 0x4 ADD PUSH2 0x854 JUMP JUMPDEST PUSH1 0x44 CALLDATALOAD SWAP2 PUSH1 0x24 CALLDATALOAD PUSH2 0x10A3 PUSH2 0xAEE PUSH2 0x2EA8 JUMP JUMPDEST PUSH2 0x10AB PUSH2 0x3128 JUMP JUMPDEST SWAP1 PUSH1 0x1 PUSH1 0x1 PUSH1 0xA0 SHL SUB DUP3 AND ISZERO PUSH2 0x120F JUMPI JUMPDEST PUSH2 0x10C9 DUP5 SWAP4 SWAP5 ISZERO ISZERO PUSH2 0x3172 JUMP JUMPDEST SWAP3 PUSH0 SWAP3 PUSH0 SWAP2 PUSH0 SWAP2 JUMPDEST DUP1 DUP4 LT PUSH2 0x1136 JUMPI POP PUSH2 0x10EF SWAP2 POP PUSH2 0x10EA SWAP1 POP DUP4 ADDRESS PUSH2 0x366A JUMP JUMPDEST TLOAD ISZERO SWAP1 JUMP JUMPDEST PUSH2 0x1123 JUMPI JUMPDEST POP POP POP DUP2 DUP2 LT PUSH2 0x110B JUMPI PUSH2 0x64C SWAP1 PUSH0 PUSH2 0xC82 PUSH2 0x2EA8 JUMP JUMPDEST PUSH4 0xD438755D PUSH1 0xE0 SHL PUSH0 MSTORE PUSH1 0x4 SWAP2 SWAP1 SWAP2 MSTORE PUSH1 0x24 MSTORE PUSH1 0x44 PUSH0 REVERT JUMPDEST PUSH2 0x112E SWAP3 CALLVALUE SWAP3 PUSH2 0x332E JUMP JUMPDEST PUSH0 DUP1 DUP1 PUSH2 0x10F4 JUMP JUMPDEST SWAP1 SWAP2 SWAP6 PUSH2 0x1144 DUP8 DUP4 DUP6 PUSH2 0x31A8 JUMP JUMPDEST SWAP1 DUP8 ISZERO DUP1 SWAP2 PUSH2 0x1152 DUP6 PUSH2 0x2491 JUMP JUMPDEST DUP11 EQ SWAP3 PUSH2 0x11D2 JUMPI JUMPDEST SWAP1 DUP3 SWAP2 DUP9 SWAP4 PUSH2 0x118F JUMPI JUMPDEST SWAP2 PUSH2 0x117F SWAP4 SWAP2 PUSH1 0x1 SWAP6 SWAP4 DUP2 PUSH0 EQ PUSH2 0x1188 JUMPI CALLVALUE SWAP1 JUMPDEST ADDRESS SWAP6 PUSH2 0x393C JUMP JUMPDEST SWAP7 ADD SWAP2 SWAP1 PUSH2 0x10D1 JUMP JUMPDEST PUSH0 SWAP1 PUSH2 0x1178 JUMP JUMPDEST SWAP7 POP SWAP2 DUP4 SWAP2 PUSH2 0x117F SWAP4 PUSH2 0x11A6 PUSH1 0xA0 PUSH1 0x1 SWAP8 ADD PUSH2 0x31CA JUMP JUMPDEST ISZERO PUSH2 0x11C4 JUMPI PUSH2 0x11B7 PUSH1 0x20 DUP6 ADD PUSH2 0x24D2 JUMP JUMPDEST SWAP9 SWAP2 SWAP4 SWAP6 POP SWAP2 SWAP4 POP PUSH2 0x1164 JUMP JUMPDEST PUSH2 0x11CD DUP5 PUSH2 0x24D2 JUMP JUMPDEST PUSH2 0x11B7 JUMP JUMPDEST DUP3 SWAP9 POP SWAP1 DUP8 SWAP3 SWAP2 PUSH2 0x11E5 PUSH1 0xA0 DUP7 ADD PUSH2 0x31CA JUMP JUMPDEST ISZERO PUSH2 0x11FE JUMPI PUSH2 0x11F3 DUP6 PUSH2 0x24D2 JUMP JUMPDEST SWAP10 POP SWAP1 SWAP2 SWAP3 POP PUSH2 0x115A JUMP JUMPDEST PUSH2 0x120A PUSH1 0x20 DUP7 ADD PUSH2 0x24D2 JUMP JUMPDEST PUSH2 0x11F3 JUMP JUMPDEST CALLER SWAP2 POP PUSH2 0x10BC JUMP JUMPDEST CALLVALUE PUSH2 0x20F JUMPI PUSH0 CALLDATASIZE PUSH1 0x3 NOT ADD SLT PUSH2 0x20F JUMPI PUSH1 0x40 MLOAD PUSH32 0x0 PUSH1 0x1 PUSH1 0x1 PUSH1 0xA0 SHL SUB AND DUP2 MSTORE PUSH1 0x20 SWAP1 RETURN JUMPDEST CALLVALUE PUSH2 0x20F JUMPI PUSH1 0x20 CALLDATASIZE PUSH1 0x3 NOT ADD SLT PUSH2 0x20F JUMPI PUSH1 0x4 CALLDATALOAD PUSH0 MSTORE PUSH1 0x5 PUSH1 0x20 MSTORE PUSH1 0x20 PUSH1 0x40 PUSH0 KECCAK256 SLOAD PUSH1 0x40 MLOAD SWAP1 DUP2 MSTORE RETURN JUMPDEST CALLVALUE PUSH2 0x20F JUMPI PUSH1 0x40 CALLDATASIZE PUSH1 0x3 NOT ADD SLT PUSH2 0x20F JUMPI PUSH1 0x20 PUSH1 0xFF PUSH2 0x12DC PUSH1 0x4 CALLDATALOAD PUSH2 0x12A9 DUP2 PUSH2 0x1FE JUMP JUMPDEST PUSH1 0x24 CALLDATALOAD SWAP1 PUSH2 0x12B6 DUP3 PUSH2 0x1FE JUMP JUMPDEST PUSH1 0x1 DUP1 PUSH1 0xA0 SHL SUB AND PUSH0 MSTORE PUSH0 DUP5 MSTORE PUSH1 0x40 PUSH0 KECCAK256 SWAP1 PUSH1 0x1 DUP1 PUSH1 0xA0 SHL SUB AND PUSH0 MSTORE PUSH1 0x20 MSTORE PUSH1 0x40 PUSH0 KECCAK256 SWAP1 JUMP JUMPDEST SLOAD AND PUSH1 0x40 MLOAD SWAP1 ISZERO ISZERO DUP2 MSTORE RETURN JUMPDEST CALLVALUE PUSH2 0x20F JUMPI PUSH1 0xA0 CALLDATASIZE PUSH1 0x3 NOT ADD SLT PUSH2 0x20F JUMPI PUSH1 0x4 CALLDATALOAD PUSH2 0x1305 DUP2 PUSH2 0x1FE JUMP JUMPDEST PUSH1 0x1 PUSH1 0x1 PUSH1 0x80 SHL SUB PUSH1 0x24 CALLDATALOAD PUSH2 0x1319 DUP2 PUSH2 0x1FE JUMP JUMPDEST PUSH1 0x44 CALLDATALOAD SWAP3 PUSH2 0x1326 DUP5 PUSH2 0x1FE JUMP JUMPDEST PUSH2 0x1356 PUSH1 0x64 CALLDATALOAD PUSH2 0x1335 DUP2 PUSH2 0x3D8 JUMP JUMPDEST PUSH1 0x84 CALLDATALOAD SWAP6 PUSH2 0x1344 PUSH2 0xAEE PUSH2 0x2EA8 JUMP JUMPDEST PUSH2 0x134F DUP8 ISZERO ISZERO PUSH2 0x2989 JUMP JUMPDEST DUP5 DUP5 PUSH2 0x2C25 JUMP JUMPDEST SWAP4 PUSH2 0x13DF PUSH2 0x13CD DUP6 PUSH2 0x13C5 PUSH2 0x13AC PUSH2 0x1386 DUP11 PUSH0 MSTORE PUSH1 0x6 PUSH1 0x20 MSTORE PUSH1 0x40 PUSH0 KECCAK256 SLOAD SWAP1 PUSH1 0x1 PUSH1 0x1 PUSH1 0x80 SHL SUB DUP3 AND SWAP2 PUSH1 0x80 SHR SWAP1 JUMP JUMPDEST SWAP10 SWAP1 PUSH2 0x13A5 PUSH2 0x139D DUP14 PUSH0 MSTORE PUSH1 0x5 PUSH1 0x20 MSTORE PUSH1 0x40 PUSH0 KECCAK256 SWAP1 JUMP JUMPDEST SLOAD ISZERO ISZERO PUSH2 0x29D5 JUMP JUMPDEST AND DUP7 PUSH2 0x2A60 JUMP JUMPDEST PUSH2 0x13BE DUP11 PUSH0 MSTORE PUSH1 0x5 PUSH1 0x20 MSTORE PUSH1 0x40 PUSH0 KECCAK256 SWAP1 JUMP JUMPDEST SLOAD SWAP1 PUSH2 0x2A73 JUMP JUMPDEST SWAP7 AND DUP4 PUSH2 0x2A60 JUMP JUMPDEST PUSH2 0x13BE DUP8 PUSH0 MSTORE PUSH1 0x5 PUSH1 0x20 MSTORE PUSH1 0x40 PUSH0 KECCAK256 SWAP1 JUMP JUMPDEST SWAP5 DUP5 ISZERO DUP1 PUSH2 0x1552 JUMPI JUMPDEST PUSH2 0x1539 JUMPI PUSH2 0x13F4 PUSH2 0x3128 JUMP JUMPDEST SWAP1 PUSH1 0x1 PUSH1 0x1 PUSH1 0xA0 SHL SUB DUP3 AND ISZERO PUSH2 0x1531 JUMPI JUMPDEST DUP3 PUSH2 0x1415 DUP4 SWAP5 DUP4 PUSH2 0x1464 SWAP6 PUSH2 0x31D4 JUMP JUMPDEST PUSH2 0x1432 PUSH2 0x142A DUP4 PUSH0 MSTORE PUSH1 0x5 PUSH1 0x20 MSTORE PUSH1 0x40 PUSH0 KECCAK256 SWAP1 JUMP JUMPDEST SWAP2 DUP3 SLOAD PUSH2 0x249F JUMP JUMPDEST SWAP1 SSTORE PUSH2 0x1449 PUSH1 0x1 PUSH1 0x1 PUSH1 0x80 SHL SUB DUP8 AND PUSH1 0xF SIGNEXTEND PUSH2 0x2A91 JUMP JUMPDEST PUSH2 0x145E PUSH1 0x1 PUSH1 0x1 PUSH1 0x80 SHL SUB DUP10 AND PUSH1 0xF SIGNEXTEND PUSH2 0x2A91 JUMP JUMPDEST SWAP2 PUSH2 0x3253 JUMP JUMPDEST PUSH1 0x1 PUSH1 0x1 PUSH1 0xA0 SHL SUB DUP4 DUP2 AND SWAP1 DUP4 AND LT SWAP2 PUSH2 0x14A5 SWAP1 DUP4 ISZERO PUSH2 0x1525 JUMPI PUSH2 0x149E DUP7 SWAP6 DUP9 SWAP3 JUMPDEST DUP7 ISZERO PUSH2 0x151E JUMPI DUP1 SWAP7 JUMPDEST ISZERO PUSH2 0x1516 JUMPI POP SWAP6 JUMPDEST DUP6 DUP6 PUSH2 0x32A9 JUMP JUMPDEST DUP5 DUP4 PUSH2 0x32A9 JUMP JUMPDEST PUSH2 0x14B2 PUSH2 0x10EA DUP3 ADDRESS PUSH2 0x366A JUMP JUMPDEST PUSH2 0x14D5 JUMPI JUMPDEST POP POP POP PUSH0 PUSH2 0x14C3 PUSH2 0x2EA8 JUMP JUMPDEST TSTORE PUSH1 0x40 DUP1 MLOAD SWAP2 DUP3 MSTORE PUSH1 0x20 DUP3 ADD SWAP3 SWAP1 SWAP3 MSTORE RETURN JUMPDEST PUSH2 0x1509 PUSH2 0x150E SWAP4 PUSH2 0x1500 PUSH2 0x14E7 PUSH2 0x2AB1 JUMP JUMPDEST SWAP5 PUSH2 0x14F1 DUP7 PUSH2 0x1D85 JUMP JUMPDEST PUSH1 0x1 PUSH1 0x1 PUSH1 0xA0 SHL SUB SWAP1 SWAP2 AND SWAP1 MSTORE JUMP JUMPDEST PUSH2 0x14F1 DUP5 PUSH2 0x1D97 JUMP JUMPDEST PUSH2 0x2FA9 JUMP JUMPDEST PUSH0 DUP1 DUP1 PUSH2 0x14B7 JUMP JUMPDEST SWAP1 POP SWAP6 PUSH2 0x1497 JUMP JUMPDEST DUP2 SWAP7 PUSH2 0x148F JUMP JUMPDEST PUSH2 0x149E DUP8 SWAP6 DUP8 SWAP3 PUSH2 0x1486 JUMP JUMPDEST CALLER SWAP2 POP PUSH2 0x1405 JUMP JUMPDEST PUSH4 0xD5DE6205 PUSH1 0xE0 SHL PUSH0 MSTORE PUSH1 0x4 DUP6 SWAP1 MSTORE PUSH1 0x24 DUP7 SWAP1 MSTORE PUSH1 0x44 PUSH0 REVERT JUMPDEST POP DUP6 ISZERO PUSH2 0x13E8 JUMP JUMPDEST CALLVALUE PUSH2 0x20F JUMPI PUSH1 0x20 CALLDATASIZE PUSH1 0x3 NOT ADD SLT PUSH2 0x20F JUMPI PUSH1 0xFF PUSH2 0x1575 PUSH2 0x993 JUMP JUMPDEST AND PUSH2 0x1582 PUSH1 0x10 DUP3 LT PUSH2 0x2552 JUMP JUMPDEST PUSH0 MSTORE PUSH1 0x3 PUSH1 0x20 MSTORE PUSH1 0x20 PUSH1 0x1 DUP1 PUSH1 0xA0 SHL SUB PUSH1 0x40 PUSH0 KECCAK256 SLOAD AND PUSH1 0x40 MLOAD SWAP1 DUP2 MSTORE RETURN JUMPDEST PUSH1 0xE0 CALLDATASIZE PUSH1 0x3 NOT ADD SLT PUSH2 0x20F JUMPI PUSH1 0x4 CALLDATALOAD PUSH2 0x15B8 DUP2 PUSH2 0x1FE JUMP JUMPDEST PUSH1 0x24 CALLDATALOAD SWAP1 PUSH2 0x15C5 DUP3 PUSH2 0x1FE JUMP JUMPDEST PUSH1 0x44 CALLDATALOAD SWAP1 PUSH2 0x15D2 DUP3 PUSH2 0x1FE JUMP JUMPDEST PUSH1 0x64 CALLDATALOAD PUSH2 0x15DE DUP2 PUSH2 0x3D8 JUMP JUMPDEST PUSH1 0x84 CALLDATALOAD PUSH1 0xA4 CALLDATALOAD SWAP3 PUSH2 0x15EE DUP5 PUSH2 0x3C3 JUMP JUMPDEST PUSH1 0xC4 CALLDATALOAD SWAP3 PUSH2 0x15FD PUSH2 0xAEE PUSH2 0x2EA8 JUMP JUMPDEST PUSH2 0x1605 PUSH2 0x3128 JUMP JUMPDEST SWAP4 PUSH1 0x1 PUSH1 0x1 PUSH1 0xA0 SHL SUB DUP6 AND ISZERO PUSH2 0x1804 JUMPI JUMPDEST PUSH2 0x1622 DUP3 DUP9 DUP11 DUP7 PUSH2 0x2C25 JUMP JUMPDEST SWAP2 DUP9 PUSH2 0x1646 DUP5 PUSH0 MSTORE PUSH1 0x6 PUSH1 0x20 MSTORE PUSH1 0x40 PUSH0 KECCAK256 SLOAD SWAP1 PUSH1 0x1 PUSH1 0x1 PUSH1 0x80 SHL SUB DUP3 AND SWAP2 PUSH1 0x80 SHR SWAP1 JUMP JUMPDEST SWAP10 SWAP1 DUP1 SWAP4 DUP12 SWAP3 DUP10 PUSH2 0x1655 PUSH2 0x1D1D JUMP JUMPDEST PUSH2 0x165D PUSH2 0x1D1D JUMP JUMPDEST SWAP3 PUSH2 0x1666 PUSH2 0x314 JUMP JUMPDEST PUSH1 0x1 PUSH1 0x1 PUSH1 0xA0 SHL SUB DUP14 AND DUP2 MSTORE SWAP8 PUSH1 0x1 PUSH1 0x1 PUSH1 0xA0 SHL SUB AND PUSH1 0x20 DUP10 ADD MSTORE PUSH1 0x1 PUSH1 0x1 PUSH1 0xA0 SHL SUB AND PUSH1 0x40 DUP9 ADD MSTORE PUSH1 0x60 DUP8 ADD SWAP1 DUP2 MSTORE DUP14 ISZERO ISZERO PUSH1 0x80 DUP9 ADD MSTORE PUSH1 0xA0 DUP8 ADD SWAP3 DUP4 MSTORE MLOAD PUSH2 0x16AF SWAP1 PUSH2 0x1D85 JUMP JUMPDEST MSTORE MLOAD PUSH2 0x16BA SWAP1 PUSH2 0x1D85 JUMP JUMPDEST PUSH1 0x1 PUSH1 0x1 PUSH1 0xE8 SHL SUB NOT SWAP1 SWAP2 AND SWAP1 MSTORE PUSH2 0x16D1 SWAP3 PUSH2 0x26C3 JUMP JUMPDEST POP SWAP8 DUP9 ISZERO PUSH2 0x17F5 JUMPI DUP9 DUP9 SWAP2 PUSH2 0x16E5 SWAP4 PUSH2 0x32BC JUMP JUMPDEST DUP1 DUP8 LT PUSH2 0x17DE JUMPI POP PUSH2 0x64C SWAP7 PUSH2 0x175E SWAP3 PUSH2 0x1757 SWAP3 PUSH2 0x1742 SWAP1 PUSH1 0x1 PUSH1 0x1 PUSH1 0xA0 SHL SUB DUP1 DUP6 AND SWAP1 DUP5 AND LT ISZERO PUSH2 0x17D7 JUMPI DUP9 JUMPDEST DUP1 ISZERO PUSH2 0x17BC JUMPI PUSH1 0x1 PUSH1 0x1 PUSH1 0x80 SHL SUB DUP9 AND PUSH1 0xF SIGNEXTEND SWAP1 JUMPDEST ISZERO PUSH2 0x17A9 JUMPI PUSH2 0x145E PUSH1 0x1 PUSH1 0x1 PUSH1 0x80 SHL SUB DUP13 AND PUSH1 0xF SIGNEXTEND PUSH2 0x2A91 JUMP JUMPDEST DUP7 ISZERO PUSH2 0x17A2 JUMPI DUP1 SWAP7 JUMPDEST ISZERO PUSH2 0x179A JUMPI POP SWAP3 PUSH2 0x2AD3 JUMP JUMPDEST DUP5 DUP5 PUSH2 0x32A9 JUMP JUMPDEST PUSH2 0x1769 DUP5 DUP3 DUP5 PUSH2 0x32A9 JUMP JUMPDEST PUSH2 0x1776 PUSH2 0x10EA DUP4 ADDRESS PUSH2 0x366A JUMP JUMPDEST PUSH2 0x1787 JUMPI JUMPDEST POP POP POP PUSH0 PUSH2 0xC82 PUSH2 0x2EA8 JUMP JUMPDEST PUSH2 0x1792 SWAP3 CALLVALUE SWAP3 PUSH2 0x332E JUMP JUMPDEST PUSH0 DUP1 DUP1 PUSH2 0x177B JUMP JUMPDEST SWAP1 POP SWAP3 PUSH2 0x2AD3 JUMP JUMPDEST DUP2 SWAP7 PUSH2 0x174B JUMP JUMPDEST PUSH1 0x1 PUSH1 0x1 PUSH1 0x80 SHL SUB DUP9 AND PUSH1 0xF SIGNEXTEND SWAP2 PUSH2 0x3253 JUMP JUMPDEST PUSH2 0x17D1 PUSH1 0x1 PUSH1 0x1 PUSH1 0x80 SHL SUB DUP13 AND PUSH1 0xF SIGNEXTEND PUSH2 0x2A91 JUMP JUMPDEST SWAP1 PUSH2 0x1728 JUMP JUMPDEST DUP9 ISZERO PUSH2 0x1713 JUMP JUMPDEST PUSH4 0xD438755D PUSH1 0xE0 SHL PUSH0 MSTORE PUSH1 0x4 MSTORE PUSH1 0x24 DUP7 SWAP1 MSTORE PUSH1 0x44 PUSH0 REVERT JUMPDEST PUSH4 0x14033F21 PUSH1 0xE1 SHL PUSH0 MSTORE PUSH1 0x4 PUSH0 REVERT JUMPDEST CALLER SWAP5 POP PUSH2 0x1616 JUMP JUMPDEST PUSH1 0xC0 CALLDATASIZE PUSH1 0x3 NOT ADD SLT PUSH2 0x20F JUMPI PUSH1 0x4 CALLDATALOAD PUSH2 0x1824 DUP2 PUSH2 0x1FE JUMP JUMPDEST PUSH1 0x24 CALLDATALOAD PUSH2 0x1830 DUP2 PUSH2 0x1FE JUMP JUMPDEST PUSH1 0x44 CALLDATALOAD SWAP2 PUSH2 0x183D DUP4 PUSH2 0x1FE JUMP JUMPDEST PUSH1 0x64 CALLDATALOAD PUSH2 0x1849 DUP2 PUSH2 0x3D8 JUMP JUMPDEST PUSH1 0xA4 CALLDATALOAD SWAP3 PUSH1 0x84 CALLDATALOAD PUSH2 0x185B PUSH2 0xAEE PUSH2 0x2EA8 JUMP JUMPDEST PUSH2 0x1867 DUP4 DUP8 DUP5 DUP8 PUSH2 0x2C25 JUMP JUMPDEST PUSH1 0x1 PUSH1 0x1 PUSH1 0xA0 SHL SUB DUP4 DUP2 AND SWAP1 DUP7 AND LT SWAP5 SWAP1 SWAP2 SWAP1 DUP6 ISZERO PUSH2 0x1A99 JUMPI SWAP3 SWAP5 JUMPDEST ISZERO PUSH2 0x1A93 JUMPI SWAP5 SWAP3 JUMPDEST PUSH0 DUP3 DUP2 MSTORE PUSH1 0x6 PUSH1 0x20 MSTORE PUSH1 0x40 SWAP1 KECCAK256 SLOAD PUSH1 0x1 PUSH1 0x1 PUSH1 0x80 SHL SUB DUP2 AND SWAP1 PUSH1 0x80 SHR SWAP2 SWAP1 SWAP8 PUSH2 0x18BC DUP5 PUSH0 MSTORE PUSH1 0x5 PUSH1 0x20 MSTORE PUSH1 0x40 PUSH0 KECCAK256 SWAP1 JUMP JUMPDEST SLOAD PUSH2 0x19DA JUMPI POP POP PUSH2 0x64C SWAP7 DUP3 PUSH2 0x18F9 SWAP3 DUP9 ISZERO ISZERO DUP1 PUSH2 0x19D1 JUMPI JUMPDEST PUSH2 0x18DE SWAP1 PUSH2 0x2AE3 JUMP JUMPDEST PUSH2 0x18F0 DUP8 PUSH2 0x18EB DUP12 PUSH2 0x2A18 JUMP JUMPDEST PUSH2 0x2A73 JUMP JUMPDEST SWAP3 JUMPDEST DUP8 DUP11 PUSH2 0x349B JUMP JUMPDEST SWAP5 PUSH2 0x1902 PUSH2 0x3128 JUMP JUMPDEST SWAP4 PUSH1 0x1 PUSH1 0x1 PUSH1 0xA0 SHL SUB DUP6 AND ISZERO PUSH2 0x19C9 JUMPI JUMPDEST DUP2 PUSH1 0x1 PUSH1 0x1 PUSH1 0x80 SHL SUB DUP1 PUSH2 0x195A SWAP4 PUSH2 0x1938 PUSH2 0x1931 PUSH2 0x1973 SWAP9 SWAP8 PUSH2 0x2AD3 JUMP JUMPDEST DUP10 DUP12 PUSH2 0x32A9 JUMP JUMPDEST PUSH2 0x194B PUSH2 0x1944 DUP3 PUSH2 0x2AD3 JUMP JUMPDEST DUP12 DUP12 PUSH2 0x32A9 JUMP JUMPDEST AND PUSH1 0xF SIGNEXTEND SWAP2 AND PUSH1 0xF SIGNEXTEND DUP4 PUSH2 0x3253 JUMP JUMPDEST PUSH2 0x1965 DUP7 DUP3 DUP7 PUSH2 0x3568 JUMP JUMPDEST PUSH0 MSTORE PUSH1 0x5 PUSH1 0x20 MSTORE PUSH1 0x40 PUSH0 KECCAK256 SWAP1 JUMP JUMPDEST PUSH2 0x197E DUP6 DUP3 SLOAD PUSH2 0x24AC JUMP JUMPDEST SWAP1 SSTORE PUSH2 0x198D PUSH2 0x10EA DUP4 ADDRESS PUSH2 0x366A JUMP JUMPDEST PUSH2 0x199D JUMPI POP POP POP PUSH0 PUSH2 0xC82 PUSH2 0x2EA8 JUMP JUMPDEST PUSH2 0x19C2 PUSH2 0x1792 SWAP4 PUSH2 0x19B9 PUSH2 0x19AF PUSH2 0x2AB1 JUMP JUMPDEST SWAP4 PUSH2 0x14F1 DUP6 PUSH2 0x1D85 JUMP JUMPDEST PUSH2 0x14F1 DUP4 PUSH2 0x1D97 JUMP JUMPDEST CALLVALUE SWAP2 PUSH2 0x303E JUMP JUMPDEST CALLER SWAP5 POP PUSH2 0x1913 JUMP JUMPDEST POP DUP7 ISZERO ISZERO PUSH2 0x18D5 JUMP JUMPDEST DUP9 DUP6 PUSH2 0x1A77 PUSH2 0x1A7C SWAP5 PUSH2 0x1A67 DUP12 PUSH8 0xDE0B6B3A7640000 PUSH2 0x1A60 DUP11 SWAP9 PUSH2 0x1A47 PUSH2 0x1A00 PUSH2 0x1D1D JUMP JUMPDEST SWAP2 PUSH2 0x1A37 PUSH2 0x1A0C PUSH2 0x1D1D JUMP JUMPDEST SWAP7 PUSH2 0x1A27 PUSH2 0x1A18 PUSH2 0x314 JUMP JUMPDEST PUSH1 0x1 PUSH1 0x1 PUSH1 0xA0 SHL SUB SWAP1 SWAP14 AND DUP14 MSTORE JUMP JUMPDEST PUSH1 0x1 PUSH1 0x1 PUSH1 0xA0 SHL SUB AND PUSH1 0x20 DUP13 ADD MSTORE JUMP JUMPDEST PUSH1 0x1 PUSH1 0x1 PUSH1 0xA0 SHL SUB AND PUSH1 0x40 DUP11 ADD MSTORE JUMP JUMPDEST PUSH1 0x60 DUP9 ADD DUP2 SWAP1 MSTORE PUSH0 PUSH1 0x80 DUP10 ADD MSTORE PUSH1 0xA0 DUP9 ADD SWAP4 DUP5 MSTORE PUSH2 0x1D85 JUMP JUMPDEST MSTORE MLOAD PUSH2 0x1D85 JUMP JUMPDEST PUSH1 0x1 PUSH1 0x1 PUSH1 0xE8 SHL SUB NOT SWAP1 SWAP2 AND SWAP1 MSTORE JUMP JUMPDEST PUSH2 0x26C3 JUMP JUMPDEST POP SWAP7 DUP8 ISZERO PUSH2 0x17F5 JUMPI DUP3 PUSH2 0x18F9 SWAP3 PUSH2 0x64C SWAP10 SWAP3 PUSH2 0x18F2 JUMP JUMPDEST SWAP3 PUSH2 0x188B JUMP JUMPDEST SWAP5 PUSH2 0x1883 JUMP JUMPDEST PUSH2 0x1AA8 CALLDATASIZE PUSH2 0xD6F JUMP JUMPDEST PUSH0 SWAP5 SWAP4 SWAP2 SWAP3 SWAP5 SWAP2 PUSH2 0x1AB7 PUSH2 0x2EF7 JUMP JUMPDEST SWAP5 PUSH2 0x1AC1 DUP7 PUSH2 0x2EEB JUMP JUMPDEST PUSH1 0x1 PUSH2 0x1ACD CALLER ADDRESS PUSH2 0x366A JUMP JUMPDEST TSTORE PUSH2 0x1AD7 CALLER PUSH2 0x2F60 JUMP JUMPDEST PUSH1 0x1 PUSH1 0x1 PUSH1 0xA0 SHL SUB AND SWAP6 DUP7 EXTCODESIZE ISZERO PUSH2 0x20F JUMPI PUSH2 0x1B0B SWAP7 PUSH0 SWAP3 DUP4 PUSH1 0x40 MLOAD DUP1 SWAP11 DUP2 SWAP6 DUP3 SWAP5 PUSH4 0x1C6E7247 PUSH1 0xE3 SHL DUP5 MSTORE PUSH1 0x4 DUP5 ADD PUSH2 0x259E JUMP JUMPDEST SUB SWAP3 GAS CALL SWAP5 DUP6 ISZERO PUSH2 0xEB4 JUMPI PUSH2 0x64C SWAP6 PUSH2 0x1B59 JUMPI JUMPDEST POP PUSH2 0x1B3A SWAP2 SWAP3 PUSH2 0x1B34 CALLVALUE PUSH2 0xE78 CALLDATASIZE DUP6 DUP6 PUSH2 0x25C5 JUMP JUMPDEST CALLER PUSH2 0x24DC JUMP JUMPDEST SWAP2 PUSH2 0x1B43 PUSH2 0x30D6 JUMP JUMPDEST PUSH2 0x1B4C CALLER PUSH2 0x311A JUMP JUMPDEST TSTORE PUSH1 0x40 MLOAD SWAP2 DUP3 SWAP2 DUP3 PUSH2 0x884 JUMP JUMPDEST PUSH2 0x1B3A SWAP3 POP PUSH0 PUSH2 0x1B68 SWAP2 PUSH2 0x2F3 JUMP JUMPDEST PUSH0 SWAP2 PUSH2 0x1B1F JUMP JUMPDEST CALLVALUE PUSH2 0x20F JUMPI PUSH1 0x80 CALLDATASIZE PUSH1 0x3 NOT ADD SLT PUSH2 0x20F JUMPI PUSH1 0x4 CALLDATALOAD PUSH2 0x1B8C DUP2 PUSH2 0x1FE JUMP JUMPDEST PUSH1 0x24 CALLDATALOAD PUSH2 0x1B98 DUP2 PUSH2 0x1FE JUMP JUMPDEST PUSH1 0x44 CALLDATALOAD SWAP2 PUSH0 MLOAD PUSH1 0x20 PUSH2 0x41F7 PUSH0 CODECOPY PUSH0 MLOAD SWAP1 PUSH0 MSTORE PUSH2 0x6FE PUSH1 0x64 CALLDATALOAD SWAP4 PUSH1 0x1 PUSH1 0x1 PUSH1 0xA0 SHL SUB DUP5 AND SWAP4 PUSH2 0x1BFA SWAP1 DUP8 SWAP1 PUSH2 0x1BED SWAP1 CALLER DUP9 EQ ISZERO DUP1 PUSH2 0x1CE9 JUMPI JUMPDEST PUSH2 0x1C59 JUMPI PUSH1 0x1 PUSH1 0x1 PUSH1 0xA0 SHL SUB AND PUSH0 SWAP1 DUP2 MSTORE PUSH1 0x1 PUSH1 0x20 MSTORE PUSH1 0x40 SWAP1 KECCAK256 SWAP1 JUMP JUMPDEST SWAP1 PUSH0 MSTORE PUSH1 0x20 MSTORE PUSH1 0x40 PUSH0 KECCAK256 SWAP1 JUMP JUMPDEST PUSH2 0x1C05 DUP7 DUP3 SLOAD PUSH2 0x249F JUMP JUMPDEST SWAP1 SSTORE PUSH1 0x1 PUSH1 0x1 PUSH1 0xA0 SHL SUB DUP2 AND PUSH0 SWAP1 DUP2 MSTORE PUSH1 0x1 PUSH1 0x20 MSTORE PUSH1 0x40 SWAP1 KECCAK256 PUSH2 0x1C29 SWAP1 DUP8 SWAP1 PUSH2 0x1BED JUMP JUMPDEST PUSH2 0x1C34 DUP7 DUP3 SLOAD PUSH2 0x24AC JUMP JUMPDEST SWAP1 SSTORE PUSH1 0x40 DUP1 MLOAD CALLER DUP2 MSTORE PUSH1 0x20 DUP2 ADD SWAP7 SWAP1 SWAP7 MSTORE PUSH1 0x1 PUSH1 0x1 PUSH1 0xA0 SHL SUB SWAP1 SWAP2 AND SWAP5 SWAP2 DUP3 SWAP2 DUP3 ADD SWAP1 JUMP JUMPDEST PUSH2 0x1C90 DUP4 PUSH2 0x1BED CALLER PUSH2 0x1C7B DUP6 PUSH1 0x1 DUP1 PUSH1 0xA0 SHL SUB AND PUSH0 MSTORE PUSH1 0x2 PUSH1 0x20 MSTORE PUSH1 0x40 PUSH0 KECCAK256 SWAP1 JUMP JUMPDEST SWAP1 PUSH1 0x1 DUP1 PUSH1 0xA0 SHL SUB AND PUSH0 MSTORE PUSH1 0x20 MSTORE PUSH1 0x40 PUSH0 KECCAK256 SWAP1 JUMP JUMPDEST SLOAD DUP10 PUSH1 0x1 DUP3 ADD PUSH2 0x1CB6 JUMPI JUMPDEST POP POP PUSH1 0x1 PUSH1 0x1 PUSH1 0xA0 SHL SUB AND PUSH0 SWAP1 DUP2 MSTORE PUSH1 0x1 PUSH1 0x20 MSTORE PUSH1 0x40 SWAP1 KECCAK256 SWAP1 JUMP JUMPDEST PUSH2 0x1CBF SWAP2 PUSH2 0x249F JUMP JUMPDEST PUSH2 0x1CE1 DUP5 PUSH2 0x1BED CALLER PUSH2 0x1C7B DUP7 PUSH1 0x1 DUP1 PUSH1 0xA0 SHL SUB AND PUSH0 MSTORE PUSH1 0x2 PUSH1 0x20 MSTORE PUSH1 0x40 PUSH0 KECCAK256 SWAP1 JUMP JUMPDEST SSTORE PUSH0 DUP10 PUSH2 0x1C9B JUMP JUMPDEST POP PUSH2 0x1D18 PUSH2 0x1D14 PUSH2 0x1D0D CALLER PUSH2 0x1C7B DUP6 PUSH1 0x1 DUP1 PUSH1 0xA0 SHL SUB AND PUSH0 MSTORE PUSH0 PUSH1 0x20 MSTORE PUSH1 0x40 PUSH0 KECCAK256 SWAP1 JUMP JUMPDEST SLOAD PUSH1 0xFF AND SWAP1 JUMP JUMPDEST ISZERO SWAP1 JUMP JUMPDEST PUSH2 0x1BD0 JUMP JUMPDEST PUSH1 0x40 DUP1 MLOAD SWAP1 SWAP2 SWAP1 PUSH2 0x1D2E DUP4 DUP3 PUSH2 0x2F3 JUMP JUMPDEST PUSH1 0x1 DUP2 MSTORE SWAP2 PUSH1 0x1F NOT ADD CALLDATASIZE PUSH1 0x20 DUP5 ADD CALLDATACOPY JUMP JUMPDEST SWAP1 PUSH2 0x1D49 DUP3 PUSH2 0x342 JUMP JUMPDEST PUSH2 0x1D56 PUSH1 0x40 MLOAD SWAP2 DUP3 PUSH2 0x2F3 JUMP JUMPDEST DUP3 DUP2 MSTORE DUP1 SWAP3 PUSH2 0x1D67 PUSH1 0x1F NOT SWAP2 PUSH2 0x342 JUMP JUMPDEST ADD SWAP1 PUSH1 0x20 CALLDATASIZE SWAP2 ADD CALLDATACOPY JUMP JUMPDEST PUSH4 0x4E487B71 PUSH1 0xE0 SHL PUSH0 MSTORE PUSH1 0x32 PUSH1 0x4 MSTORE PUSH1 0x24 PUSH0 REVERT JUMPDEST DUP1 MLOAD ISZERO PUSH2 0x1D92 JUMPI PUSH1 0x20 ADD SWAP1 JUMP JUMPDEST PUSH2 0x1D71 JUMP JUMPDEST DUP1 MLOAD PUSH1 0x1 LT ISZERO PUSH2 0x1D92 JUMPI PUSH1 0x40 ADD SWAP1 JUMP JUMPDEST DUP1 MLOAD DUP3 LT ISZERO PUSH2 0x1D92 JUMPI PUSH1 0x20 SWAP2 PUSH1 0x5 SHL ADD ADD SWAP1 JUMP JUMPDEST ISZERO PUSH2 0x1DC2 JUMPI JUMP JUMPDEST PUSH1 0x40 MLOAD PUSH3 0x461BCD PUSH1 0xE5 SHL DUP2 MSTORE PUSH1 0x20 PUSH1 0x4 DUP3 ADD MSTORE PUSH1 0x15 PUSH1 0x24 DUP3 ADD MSTORE PUSH21 0x416C7068612061646472657373206973207A65726F PUSH1 0x58 SHL PUSH1 0x44 DUP3 ADD MSTORE PUSH1 0x64 SWAP1 REVERT JUMPDEST ISZERO PUSH2 0x1E06 JUMPI JUMP JUMPDEST PUSH1 0x40 MLOAD PUSH3 0x461BCD PUSH1 0xE5 SHL DUP2 MSTORE PUSH1 0x20 PUSH1 0x4 DUP3 ADD MSTORE PUSH1 0x14 PUSH1 0x24 DUP3 ADD MSTORE PUSH20 0x426574612061646472657373206973207A65726F PUSH1 0x60 SHL PUSH1 0x44 DUP3 ADD MSTORE PUSH1 0x64 SWAP1 REVERT JUMPDEST DUP1 MLOAD DUP1 DUP4 MSTORE PUSH1 0x20 SWAP3 SWAP2 DUP2 SWAP1 DUP5 ADD DUP5 DUP5 ADD MCOPY PUSH0 DUP3 DUP3 ADD DUP5 ADD MSTORE PUSH1 0x1F ADD PUSH1 0x1F NOT AND ADD ADD SWAP1 JUMP JUMPDEST SWAP1 SWAP2 PUSH2 0x1E7D PUSH2 0x3C0 SWAP4 PUSH1 0x40 DUP5 MSTORE PUSH1 0x40 DUP5 ADD SWAP1 PUSH2 0x1E42 JUMP JUMPDEST SWAP2 PUSH1 0x20 DUP2 DUP5 SUB SWAP2 ADD MSTORE PUSH2 0x1E42 JUMP JUMPDEST SWAP1 DUP1 PUSH1 0x1F DUP4 ADD SLT ISZERO PUSH2 0x20F JUMPI DUP2 MLOAD PUSH2 0x1EA2 DUP2 PUSH2 0x342 JUMP JUMPDEST SWAP3 PUSH2 0x1EB0 PUSH1 0x40 MLOAD SWAP5 DUP6 PUSH2 0x2F3 JUMP JUMPDEST DUP2 DUP5 MSTORE PUSH1 0x20 DUP1 DUP6 ADD SWAP3 PUSH1 0x5 SHL DUP3 ADD ADD SWAP3 DUP4 GT PUSH2 0x20F JUMPI PUSH1 0x20 ADD SWAP1 JUMPDEST DUP3 DUP3 LT PUSH2 0x1ED8 JUMPI POP POP POP SWAP1 JUMP JUMPDEST DUP2 MLOAD DUP2 MSTORE PUSH1 0x20 SWAP2 DUP3 ADD SWAP2 ADD PUSH2 0x1ECB JUMP JUMPDEST SWAP1 PUSH1 0x20 DUP3 DUP3 SUB SLT PUSH2 0x20F JUMPI DUP2 MLOAD PUSH1 0x1 PUSH1 0x1 PUSH1 0x40 SHL SUB DUP2 GT PUSH2 0x20F JUMPI PUSH2 0x3C0 SWAP3 ADD PUSH2 0x1E8B JUMP JUMPDEST SWAP1 PUSH1 0x20 DUP1 DUP4 MLOAD SWAP3 DUP4 DUP2 MSTORE ADD SWAP3 ADD SWAP1 PUSH0 JUMPDEST DUP2 DUP2 LT PUSH2 0x1F2A JUMPI POP POP POP SWAP1 JUMP JUMPDEST DUP3 MLOAD PUSH1 0x1 PUSH1 0x1 PUSH1 0x80 SHL SUB AND DUP5 MSTORE PUSH1 0x20 SWAP4 DUP5 ADD SWAP4 SWAP1 SWAP3 ADD SWAP2 PUSH1 0x1 ADD PUSH2 0x1F1D JUMP JUMPDEST SWAP1 PUSH1 0x20 DUP1 DUP4 MLOAD SWAP3 DUP4 DUP2 MSTORE ADD SWAP3 ADD SWAP1 PUSH0 JUMPDEST DUP2 DUP2 LT PUSH2 0x1F66 JUMPI POP POP POP SWAP1 JUMP JUMPDEST DUP3 MLOAD PUSH2 0xFFFF AND DUP5 MSTORE PUSH1 0x20 SWAP4 DUP5 ADD SWAP4 SWAP1 SWAP3 ADD SWAP2 PUSH1 0x1 ADD PUSH2 0x1F59 JUMP JUMPDEST PUSH1 0x40 DUP1 DUP3 MSTORE DUP3 MLOAD PUSH1 0x1 PUSH1 0x1 PUSH1 0xA0 SHL SUB AND SWAP1 DUP3 ADD MSTORE PUSH2 0x3C0 SWAP3 SWAP1 PUSH1 0x20 DUP4 ADD MLOAD PUSH1 0x1 PUSH1 0x1 PUSH1 0xA0 SHL SUB AND PUSH1 0x60 DUP3 ADD MSTORE PUSH1 0x40 DUP4 ADD MLOAD PUSH1 0x1 PUSH1 0x1 PUSH1 0xA0 SHL SUB AND PUSH1 0x80 DUP3 ADD MSTORE PUSH2 0x2037 PUSH1 0xE0 PUSH2 0x202A PUSH2 0x2013 PUSH2 0x1FFE PUSH2 0x1FE8 PUSH1 0x60 DUP10 ADD MLOAD PUSH2 0x100 PUSH1 0xA0 DUP10 ADD MSTORE PUSH2 0x140 DUP9 ADD SWAP1 PUSH2 0x5CD JUMP JUMPDEST PUSH1 0x80 DUP10 ADD MLOAD DUP8 DUP3 SUB PUSH1 0x3F NOT ADD PUSH1 0xC0 DUP10 ADD MSTORE PUSH2 0x1F0D JUMP JUMPDEST PUSH1 0xA0 DUP9 ADD MLOAD DUP7 DUP3 SUB PUSH1 0x3F NOT ADD DUP6 DUP9 ADD MSTORE PUSH2 0x1F0D JUMP JUMPDEST PUSH1 0xC0 DUP8 ADD MLOAD DUP6 DUP3 SUB PUSH1 0x3F NOT ADD PUSH2 0x100 DUP8 ADD MSTORE PUSH2 0x1F49 JUMP JUMPDEST SWAP5 ADD MLOAD ISZERO ISZERO PUSH2 0x120 DUP4 ADD MSTORE JUMP JUMPDEST PUSH1 0x20 DUP2 DUP5 SUB SWAP2 ADD MSTORE PUSH2 0x1E42 JUMP JUMPDEST PUSH1 0x40 MLOAD RETURNDATASIZE PUSH0 DUP3 RETURNDATACOPY RETURNDATASIZE SWAP1 REVERT JUMPDEST SWAP3 PUSH1 0xA0 DUP5 ADD SWAP3 PUSH2 0x2060 DUP5 MLOAD MLOAD PUSH2 0x1D3F JUMP JUMPDEST SWAP2 PUSH2 0x206C DUP6 MLOAD MLOAD PUSH2 0x1D3F JUMP JUMPDEST POP PUSH2 0x2078 DUP6 MLOAD MLOAD PUSH2 0x1D3F JUMP JUMPDEST SWAP4 PUSH2 0x209C PUSH2 0x2097 PUSH2 0x2089 DUP9 MLOAD PUSH2 0x1D85 JUMP JUMPDEST MLOAD PUSH1 0x1 PUSH1 0x1 PUSH1 0xE8 SHL SUB NOT AND SWAP1 JUMP JUMPDEST PUSH2 0x2B75 JUMP JUMPDEST PUSH0 JUMPDEST DUP8 MLOAD DUP1 MLOAD DUP3 LT ISZERO PUSH2 0x2122 JUMPI SWAP1 PUSH2 0x211C PUSH2 0x2109 PUSH1 0xC0 PUSH2 0x2100 DUP14 DUP12 PUSH2 0x20FA DUP8 PUSH2 0x20F4 PUSH2 0x20CD PUSH2 0x2089 DUP4 PUSH1 0x1 SWAP14 PUSH2 0x1DA7 JUMP JUMPDEST DUP6 MLOAD PUSH1 0x20 DUP8 ADD MLOAD PUSH1 0x40 SWAP1 SWAP8 ADD MLOAD SWAP2 SWAP7 DUP8 SWAP3 PUSH1 0x1 PUSH1 0x1 PUSH1 0xA0 SHL SUB SWAP1 DUP2 AND SWAP3 SWAP2 DUP2 AND SWAP2 AND PUSH2 0x2C25 JUMP JUMPDEST SWAP3 PUSH2 0x1DA7 JUMP JUMPDEST MSTORE PUSH2 0x2B75 JUMP JUMPDEST ADD MLOAD PUSH2 0xFFFF AND SWAP1 JUMP JUMPDEST PUSH2 0x2113 DUP4 DUP12 PUSH2 0x1DA7 JUMP JUMPDEST SWAP1 PUSH2 0xFFFF AND SWAP1 MSTORE JUMP JUMPDEST ADD PUSH2 0x209E JUMP JUMPDEST POP POP DUP8 MLOAD SWAP3 SWAP8 SWAP5 SWAP7 POP SWAP1 SWAP5 SWAP1 SWAP4 SWAP3 SWAP1 SWAP2 PUSH1 0x1 PUSH1 0x1 PUSH1 0xA0 SHL SUB AND PUSH1 0x20 DUP5 ADD DUP1 MLOAD SWAP2 SWAP4 SWAP1 SWAP2 PUSH1 0x1 PUSH1 0x1 PUSH1 0xA0 SHL SUB AND PUSH1 0x40 DUP7 ADD DUP1 MLOAD SWAP1 SWAP5 SWAP2 SWAP3 SWAP2 SWAP1 PUSH1 0x1 PUSH1 0x1 PUSH1 0xA0 SHL SUB AND SWAP9 PUSH1 0x60 DUP9 ADD MLOAD PUSH1 0x80 DUP10 ADD SWAP11 DUP12 MLOAD PUSH2 0x2179 SWAP1 ISZERO ISZERO SWAP1 JUMP JUMPDEST SWAP6 PUSH2 0x2182 PUSH2 0x332 JUMP JUMPDEST PUSH1 0x1 PUSH1 0x1 PUSH1 0xA0 SHL SUB SWAP1 SWAP11 AND DUP11 MSTORE PUSH1 0x1 PUSH1 0x1 PUSH1 0xA0 SHL SUB AND PUSH1 0x20 DUP11 ADD MSTORE PUSH1 0x1 PUSH1 0x1 PUSH1 0xA0 SHL SUB AND PUSH1 0x40 DUP10 ADD MSTORE PUSH1 0x60 DUP9 ADD MSTORE PUSH1 0x80 DUP8 ADD MSTORE PUSH1 0xA0 DUP7 ADD MSTORE PUSH1 0xC0 DUP6 ADD MSTORE ISZERO ISZERO PUSH1 0xE0 DUP5 ADD MSTORE DUP5 MLOAD PUSH1 0x60 SWAP5 DUP6 SWAP3 SWAP2 ISZERO ISZERO SWAP8 PUSH0 SWAP8 PUSH2 0x224E SWAP10 PUSH2 0x23C3 JUMPI JUMPDEST PUSH1 0x20 DUP2 ADD MLOAD PUSH2 0x2282 JUMPI JUMPDEST POP POP POP POP PUSH2 0x2225 PUSH2 0x2231 SWAP3 PUSH2 0x2218 PUSH2 0x2225 SWAP4 PUSH2 0x220A PUSH1 0x40 MLOAD SWAP9 DUP10 SWAP3 PUSH1 0x20 DUP5 ADD PUSH2 0x1E66 JUMP JUMPDEST SUB PUSH1 0x1F NOT DUP2 ADD DUP9 MSTORE DUP8 PUSH2 0x2F3 JUMP JUMPDEST MLOAD PUSH1 0x1 PUSH1 0x1 PUSH1 0xA0 SHL SUB AND SWAP1 JUMP JUMPDEST PUSH1 0x1 PUSH1 0x1 PUSH1 0xA0 SHL SUB AND SWAP1 JUMP JUMPDEST SWAP1 DUP4 PUSH1 0x40 MLOAD DUP1 SWAP7 DUP2 SWAP6 DUP3 SWAP5 PUSH3 0xDB90D1 PUSH1 0xE8 SHL DUP5 MSTORE PUSH1 0x4 DUP5 ADD PUSH2 0x1F80 JUMP JUMPDEST SUB SWAP3 GAS CALL SWAP1 DUP2 ISZERO PUSH2 0xEB4 JUMPI PUSH0 SWAP2 PUSH2 0x2263 JUMPI POP SWAP2 JUMP JUMPDEST PUSH2 0x227F SWAP2 POP RETURNDATASIZE DUP1 PUSH0 DUP4 RETURNDATACOPY PUSH2 0x2277 DUP2 DUP4 PUSH2 0x2F3 JUMP JUMPDEST DUP2 ADD SWAP1 PUSH2 0x1EE8 JUMP JUMPDEST SWAP2 JUMP JUMPDEST PUSH2 0x2225 SWAP5 SWAP8 POP PUSH2 0x2225 SWAP4 PUSH2 0x2231 SWAP7 SWAP4 PUSH2 0x2373 PUSH2 0x2218 SWAP5 DUP5 PUSH2 0x22A9 PUSH1 0x60 PUSH2 0x2378 SWAP8 ADD MLOAD ISZERO ISZERO SWAP1 JUMP JUMPDEST DUP15 EQ PUSH2 0x2382 JUMPI POP PUSH2 0x2350 PUSH2 0x22FE PUSH2 0x22F0 PUSH32 0x0 SWAP6 JUMPDEST PUSH2 0x2218 PUSH1 0x1 PUSH1 0x1 PUSH1 0xA0 SHL SUB DUP9 AND ISZERO ISZERO PUSH2 0x1DFF JUMP JUMPDEST SWAP6 MLOAD PUSH1 0x1 PUSH1 0x1 PUSH1 0xA0 SHL SUB AND SWAP1 JUMP JUMPDEST DUP9 MLOAD SWAP3 MLOAD SWAP1 SWAP3 PUSH1 0x1 PUSH1 0x1 PUSH1 0xA0 SHL SUB AND SWAP1 PUSH2 0x2340 SWAP1 ISZERO ISZERO JUMPDEST SWAP4 PUSH2 0x2330 PUSH2 0x2321 PUSH2 0x332 JUMP JUMPDEST PUSH1 0x1 PUSH1 0x1 PUSH1 0xA0 SHL SUB SWAP1 SWAP10 AND DUP10 MSTORE JUMP JUMPDEST PUSH1 0x1 PUSH1 0x1 PUSH1 0xA0 SHL SUB AND PUSH1 0x20 DUP9 ADD MSTORE JUMP JUMPDEST PUSH1 0x1 PUSH1 0x1 PUSH1 0xA0 SHL SUB AND PUSH1 0x40 DUP7 ADD MSTORE JUMP JUMPDEST DUP13 PUSH1 0x60 DUP6 ADD MSTORE DUP13 PUSH1 0x80 DUP6 ADD MSTORE DUP13 PUSH1 0xA0 DUP6 ADD MSTORE DUP13 PUSH1 0xC0 DUP6 ADD MSTORE PUSH1 0xE0 DUP5 ADD SWAP1 ISZERO ISZERO SWAP1 MSTORE JUMP JUMPDEST PUSH2 0x2D1F JUMP JUMPDEST SWAP7 SWAP4 DUP3 SWAP6 POP PUSH2 0x21E6 JUMP JUMPDEST PUSH2 0x22FE PUSH2 0x22F0 PUSH2 0x23BD PUSH2 0x23B0 PUSH2 0x239F PUSH1 0xA0 PUSH2 0x2350 SWAP7 ADD MLOAD PUSH1 0xFF AND SWAP1 JUMP JUMPDEST PUSH1 0xFF AND PUSH0 MSTORE PUSH1 0x4 PUSH1 0x20 MSTORE PUSH1 0x40 PUSH0 KECCAK256 SWAP1 JUMP JUMPDEST SLOAD PUSH1 0x1 PUSH1 0x1 PUSH1 0xA0 SHL SUB AND SWAP1 JUMP JUMPDEST SWAP6 PUSH2 0x22DC JUMP JUMPDEST SWAP4 POP PUSH2 0x23D2 PUSH1 0x40 DUP6 ADD MLOAD ISZERO ISZERO SWAP1 JUMP JUMPDEST DUP9 EQ PUSH2 0x2450 JUMPI PUSH2 0x244A PUSH32 0x0 JUMPDEST PUSH2 0x2411 PUSH1 0x1 PUSH1 0x1 PUSH1 0xA0 SHL SUB DUP3 AND ISZERO ISZERO PUSH2 0x1DBB JUMP JUMPDEST DUP4 MLOAD PUSH1 0x1 PUSH1 0x1 PUSH1 0xA0 SHL SUB AND DUP6 MLOAD SWAP1 SWAP2 SWAP1 PUSH2 0x2373 SWAP1 PUSH1 0x1 PUSH1 0x1 PUSH1 0xA0 SHL SUB AND DUP10 MLOAD PUSH2 0x2350 SWAP1 PUSH1 0x1 PUSH1 0x1 PUSH1 0xA0 SHL SUB AND PUSH2 0x2340 PUSH2 0x2315 DUP10 MLOAD ISZERO ISZERO SWAP1 JUMP JUMPDEST SWAP4 PUSH2 0x21DC JUMP JUMPDEST PUSH2 0x244A PUSH2 0x2478 PUSH2 0x23B0 PUSH2 0x2467 PUSH1 0x80 DUP9 ADD MLOAD PUSH1 0xFF AND SWAP1 JUMP JUMPDEST PUSH1 0xFF AND PUSH0 MSTORE PUSH1 0x3 PUSH1 0x20 MSTORE PUSH1 0x40 PUSH0 KECCAK256 SWAP1 JUMP JUMPDEST PUSH2 0x23FD JUMP JUMPDEST PUSH4 0x4E487B71 PUSH1 0xE0 SHL PUSH0 MSTORE PUSH1 0x11 PUSH1 0x4 MSTORE PUSH1 0x24 PUSH0 REVERT JUMPDEST PUSH0 NOT DUP2 ADD SWAP2 SWAP1 DUP3 GT PUSH2 0x70D JUMPI JUMP JUMPDEST SWAP2 SWAP1 DUP3 SUB SWAP2 DUP3 GT PUSH2 0x70D JUMPI JUMP JUMPDEST SWAP2 SWAP1 DUP3 ADD DUP1 SWAP3 GT PUSH2 0x70D JUMPI JUMP JUMPDEST SWAP1 ISZERO PUSH2 0x1D92 JUMPI SWAP1 JUMP JUMPDEST SWAP2 SWAP1 DUP2 LT ISZERO PUSH2 0x1D92 JUMPI PUSH1 0x5 SHL ADD SWAP1 JUMP JUMPDEST CALLDATALOAD PUSH2 0x3C0 DUP2 PUSH2 0x1FE JUMP JUMPDEST SWAP3 SWAP2 SWAP3 PUSH2 0x24E8 DUP5 PUSH2 0x342 JUMP JUMPDEST SWAP1 PUSH2 0x24F6 PUSH1 0x40 MLOAD SWAP3 DUP4 PUSH2 0x2F3 JUMP JUMPDEST DUP5 DUP3 MSTORE PUSH1 0x1F NOT PUSH2 0x2505 DUP7 PUSH2 0x342 JUMP JUMPDEST ADD CALLDATASIZE PUSH1 0x20 DUP5 ADD CALLDATACOPY DUP2 SWAP5 PUSH0 JUMPDEST DUP2 DUP2 LT PUSH2 0x251E JUMPI POP POP POP POP POP JUMP JUMPDEST DUP1 PUSH2 0x2540 PUSH2 0x252F PUSH1 0x1 SWAP4 DUP6 DUP10 PUSH2 0x24C2 JUMP JUMPDEST CALLDATALOAD PUSH2 0x2539 DUP2 PUSH2 0x1FE JUMP JUMPDEST DUP6 ADDRESS PUSH2 0x35F5 JUMP JUMPDEST TLOAD PUSH2 0x254B DUP3 DUP8 PUSH2 0x1DA7 JUMP JUMPDEST MSTORE ADD PUSH2 0x2510 JUMP JUMPDEST ISZERO PUSH2 0x2559 JUMPI JUMP JUMPDEST PUSH1 0x40 MLOAD PUSH3 0x461BCD PUSH1 0xE5 SHL DUP2 MSTORE PUSH1 0x20 PUSH1 0x4 DUP3 ADD MSTORE PUSH1 0x1D PUSH1 0x24 DUP3 ADD MSTORE PUSH32 0x496E76616C696420706F696E7465723A206D75737420626520302D3135000000 PUSH1 0x44 DUP3 ADD MSTORE PUSH1 0x64 SWAP1 REVERT JUMPDEST SWAP1 SWAP2 DUP1 PUSH1 0x40 SWAP4 PUSH1 0x20 DUP5 MSTORE DUP2 PUSH1 0x20 DUP6 ADD MSTORE DUP5 DUP5 ADD CALLDATACOPY PUSH0 DUP3 DUP3 ADD DUP5 ADD MSTORE PUSH1 0x1F ADD PUSH1 0x1F NOT AND ADD ADD SWAP1 JUMP JUMPDEST SWAP3 SWAP2 SWAP1 PUSH2 0x25D1 DUP2 PUSH2 0x342 JUMP JUMPDEST SWAP4 PUSH2 0x25DF PUSH1 0x40 MLOAD SWAP6 DUP7 PUSH2 0x2F3 JUMP JUMPDEST PUSH1 0x20 DUP6 DUP4 DUP2 MSTORE ADD SWAP2 PUSH1 0x5 SHL DUP2 ADD SWAP3 DUP4 GT PUSH2 0x20F JUMPI SWAP1 JUMPDEST DUP3 DUP3 LT PUSH2 0x2601 JUMPI POP POP POP JUMP JUMPDEST PUSH1 0x20 DUP1 SWAP2 DUP4 CALLDATALOAD PUSH2 0x2610 DUP2 PUSH2 0x1FE JUMP JUMPDEST DUP2 MSTORE ADD SWAP2 ADD SWAP1 PUSH2 0x25F5 JUMP JUMPDEST SWAP1 DUP2 PUSH1 0x20 SWAP2 SUB SLT PUSH2 0x20F JUMPI MLOAD SWAP1 JUMP JUMPDEST DUP1 MLOAD PUSH1 0x1 PUSH1 0x1 PUSH1 0xA0 SHL SUB SWAP1 DUP2 AND DUP4 MSTORE PUSH1 0x20 DUP1 DUP4 ADD MLOAD DUP3 AND SWAP1 DUP5 ADD MSTORE PUSH1 0x40 DUP1 DUP4 ADD MLOAD SWAP1 SWAP2 AND SWAP1 DUP4 ADD MSTORE PUSH1 0x60 DUP1 DUP3 ADD MLOAD SWAP1 DUP4 ADD MSTORE PUSH1 0x80 DUP1 DUP3 ADD MLOAD PUSH1 0x1 PUSH1 0x1 PUSH1 0x80 SHL SUB AND SWAP1 DUP4 ADD MSTORE PUSH2 0x21E SWAP2 SWAP1 PUSH1 0xE0 SWAP1 DUP2 SWAP1 PUSH1 0xA0 DUP2 DUP2 ADD MLOAD PUSH1 0x1 PUSH1 0x1 PUSH1 0x80 SHL SUB AND SWAP1 DUP6 ADD MSTORE PUSH1 0xC0 DUP2 DUP2 ADD MLOAD PUSH2 0xFFFF AND SWAP1 DUP6 ADD MSTORE ADD MLOAD ISZERO ISZERO SWAP2 ADD MSTORE JUMP JUMPDEST DUP1 PUSH2 0x26B5 PUSH2 0x120 SWAP3 PUSH2 0x3C0 SWAP6 SWAP5 PUSH2 0x262A JUMP JUMPDEST DUP2 PUSH2 0x100 DUP3 ADD MSTORE ADD SWAP1 PUSH2 0x1E42 JUMP JUMPDEST DUP1 MLOAD SWAP1 SWAP3 SWAP1 PUSH1 0x1 PUSH1 0x1 PUSH1 0xA0 SHL SUB AND PUSH1 0x20 DUP5 ADD DUP1 MLOAD SWAP1 SWAP4 SWAP2 SWAP1 PUSH1 0x1 PUSH1 0x1 PUSH1 0xA0 SHL SUB AND PUSH1 0x40 DUP7 ADD DUP1 MLOAD SWAP2 SWAP7 SWAP1 SWAP3 SWAP1 SWAP2 PUSH1 0x1 PUSH1 0x1 PUSH1 0xA0 SHL SUB AND SWAP7 PUSH1 0xA0 DUP4 ADD SWAP8 DUP9 MLOAD PUSH2 0x270A SWAP1 PUSH2 0x1D85 JUMP JUMPDEST MLOAD PUSH1 0x1 PUSH1 0x1 PUSH1 0xE8 SHL SUB NOT AND SWAP2 PUSH2 0x271F SWAP4 PUSH2 0x2C25 JUMP JUMPDEST SWAP6 MLOAD PUSH2 0x272A SWAP1 PUSH2 0x1D85 JUMP JUMPDEST MLOAD PUSH1 0x1 PUSH1 0x1 PUSH1 0xE8 SHL SUB NOT AND PUSH2 0x273E SWAP1 PUSH2 0x2B75 JUMP JUMPDEST DUP2 MLOAD SWAP1 SWAP5 SWAP1 PUSH1 0x1 PUSH1 0x1 PUSH1 0xA0 SHL SUB AND SWAP6 MLOAD PUSH1 0x1 PUSH1 0x1 PUSH1 0xA0 SHL SUB AND SWAP3 MLOAD PUSH1 0x1 PUSH1 0x1 PUSH1 0xA0 SHL SUB AND SWAP4 PUSH1 0x60 DUP4 ADD MLOAD PUSH2 0x2771 SWAP1 PUSH2 0x1D85 JUMP JUMPDEST MLOAD PUSH1 0xC0 DUP8 ADD MLOAD PUSH2 0xFFFF AND PUSH1 0x80 SWAP1 SWAP5 ADD MLOAD ISZERO ISZERO SWAP5 PUSH2 0x278C PUSH2 0x332 JUMP JUMPDEST PUSH1 0x1 PUSH1 0x1 PUSH1 0xA0 SHL SUB SWAP1 SWAP10 AND DUP10 MSTORE PUSH1 0x1 PUSH1 0x1 PUSH1 0xA0 SHL SUB AND PUSH1 0x20 DUP10 ADD MSTORE PUSH1 0x1 PUSH1 0x1 PUSH1 0xA0 SHL SUB SWAP1 SWAP6 AND PUSH1 0x40 DUP9 ADD SWAP1 DUP2 MSTORE SWAP5 PUSH1 0x60 DUP9 ADD MSTORE PUSH1 0x1 PUSH1 0x1 PUSH1 0x80 SHL SUB AND PUSH1 0x80 DUP8 ADD MSTORE PUSH1 0x1 PUSH1 0x1 PUSH1 0x80 SHL SUB AND PUSH1 0xA0 DUP7 ADD MSTORE PUSH2 0xFFFF AND PUSH1 0xC0 DUP6 ADD MSTORE ISZERO ISZERO PUSH1 0xE0 DUP5 ADD MSTORE PUSH1 0x60 SWAP3 PUSH1 0x60 SWAP2 DUP4 MLOAD PUSH2 0x27FC SWAP1 ISZERO ISZERO SWAP1 JUMP JUMPDEST SWAP5 PUSH1 0x20 SWAP5 PUSH2 0x2850 SWAP7 PUSH2 0x2918 JUMPI JUMPDEST DUP1 DUP7 ADD MLOAD PUSH2 0x288E JUMPI JUMPDEST POP PUSH2 0x2225 PUSH2 0x2832 SWAP3 PUSH2 0x2218 PUSH2 0x2225 SWAP4 PUSH2 0x220A PUSH1 0x40 MLOAD SWAP9 DUP10 SWAP3 DUP12 DUP5 ADD PUSH2 0x1E66 JUMP JUMPDEST SWAP1 PUSH0 PUSH1 0x40 MLOAD DUP1 SWAP7 DUP2 SWAP6 DUP3 SWAP5 PUSH4 0x5E3344D PUSH1 0xE4 SHL DUP5 MSTORE PUSH1 0x4 DUP5 ADD PUSH2 0x26A3 JUMP JUMPDEST SUB SWAP3 GAS CALL SWAP1 DUP2 ISZERO PUSH2 0xEB4 JUMPI PUSH0 SWAP2 PUSH2 0x2865 JUMPI POP SWAP2 JUMP JUMPDEST PUSH2 0x227F SWAP2 POP PUSH1 0x20 RETURNDATASIZE PUSH1 0x20 GT PUSH2 0x2887 JUMPI JUMPDEST PUSH2 0x287F DUP2 DUP4 PUSH2 0x2F3 JUMP JUMPDEST DUP2 ADD SWAP1 PUSH2 0x261B JUMP JUMPDEST POP RETURNDATASIZE PUSH2 0x2875 JUMP JUMPDEST PUSH2 0x2225 SWAP2 SWAP5 POP PUSH2 0x2832 SWAP3 DUP5 DUP3 PUSH2 0x28AA PUSH1 0x60 PUSH2 0x2225 SWAP6 ADD MLOAD ISZERO ISZERO SWAP1 JUMP JUMPDEST ISZERO PUSH2 0x28F8 JUMPI POP PUSH2 0x28ED PUSH2 0x2218 SWAP2 PUSH32 0x0 JUMPDEST PUSH2 0x2373 PUSH1 0x1 PUSH1 0x1 PUSH1 0xA0 SHL SUB DUP3 AND ISZERO ISZERO PUSH2 0x1DFF JUMP JUMPDEST SWAP7 SWAP4 POP POP SWAP3 POP PUSH2 0x2812 JUMP JUMPDEST PUSH2 0x2218 SWAP2 PUSH2 0x2913 PUSH2 0x23B0 PUSH2 0x239F PUSH1 0xA0 PUSH2 0x28ED SWAP6 ADD MLOAD PUSH1 0xFF AND SWAP1 JUMP JUMPDEST PUSH2 0x28D9 JUMP JUMPDEST SWAP1 POP PUSH2 0x2927 PUSH1 0x40 DUP3 ADD MLOAD ISZERO ISZERO SWAP1 JUMP JUMPDEST ISZERO PUSH2 0x296C JUMPI PUSH2 0x2966 DUP4 PUSH32 0x0 JUMPDEST PUSH2 0x2373 PUSH1 0x1 PUSH1 0x1 PUSH1 0xA0 SHL SUB DUP3 AND ISZERO ISZERO PUSH2 0x1DBB JUMP JUMPDEST SWAP1 PUSH2 0x2809 JUMP JUMPDEST PUSH2 0x2966 DUP4 PUSH2 0x2984 PUSH2 0x23B0 PUSH2 0x2467 PUSH1 0x80 DUP7 ADD MLOAD PUSH1 0xFF AND SWAP1 JUMP JUMPDEST PUSH2 0x2952 JUMP JUMPDEST ISZERO PUSH2 0x2990 JUMPI JUMP JUMPDEST PUSH1 0x40 MLOAD PUSH3 0x461BCD PUSH1 0xE5 SHL DUP2 MSTORE PUSH1 0x20 PUSH1 0x4 DUP3 ADD MSTORE PUSH1 0x18 PUSH1 0x24 DUP3 ADD MSTORE PUSH32 0x496E76616C6964206C697175696469747920616D6F756E740000000000000000 PUSH1 0x44 DUP3 ADD MSTORE PUSH1 0x64 SWAP1 REVERT JUMPDEST ISZERO PUSH2 0x29DC JUMPI JUMP JUMPDEST PUSH1 0x40 MLOAD PUSH3 0x461BCD PUSH1 0xE5 SHL DUP2 MSTORE PUSH1 0x20 PUSH1 0x4 DUP3 ADD MSTORE PUSH1 0x14 PUSH1 0x24 DUP3 ADD MSTORE PUSH20 0x139BC81B1A5C5D5A591A5D1E481A5B881C1BDBDB PUSH1 0x62 SHL PUSH1 0x44 DUP3 ADD MSTORE PUSH1 0x64 SWAP1 REVERT JUMPDEST SWAP1 PUSH8 0xDE0B6B3A7640000 DUP3 MUL SWAP2 DUP1 DUP4 DIV PUSH8 0xDE0B6B3A7640000 EQ SWAP1 ISZERO OR ISZERO PUSH2 0x70D JUMPI JUMP JUMPDEST SWAP1 PUSH8 0x120A871CC0020000 DUP3 MUL SWAP2 DUP1 DUP4 DIV PUSH8 0x120A871CC0020000 EQ SWAP1 ISZERO OR ISZERO PUSH2 0x70D JUMPI JUMP JUMPDEST DUP2 DUP2 MUL SWAP3 SWAP2 DUP2 ISZERO SWAP2 DUP5 DIV EQ OR ISZERO PUSH2 0x70D JUMPI JUMP JUMPDEST DUP2 ISZERO PUSH2 0x2A7D JUMPI DIV SWAP1 JUMP JUMPDEST PUSH4 0x4E487B71 PUSH1 0xE0 SHL PUSH0 MSTORE PUSH1 0x12 PUSH1 0x4 MSTORE PUSH1 0x24 PUSH0 REVERT JUMPDEST PUSH1 0xF SIGNEXTEND PUSH16 0x7FFFFFFFFFFFFFFFFFFFFFFFFFFFFFFF NOT DUP2 EQ PUSH2 0x70D JUMPI PUSH0 SUB SWAP1 JUMP JUMPDEST PUSH1 0x40 MLOAD PUSH1 0x60 SWAP2 SWAP1 PUSH2 0x2AC2 DUP4 DUP3 PUSH2 0x2F3 JUMP JUMPDEST PUSH1 0x2 DUP2 MSTORE SWAP2 PUSH1 0x1F NOT ADD CALLDATASIZE PUSH1 0x20 DUP5 ADD CALLDATACOPY JUMP JUMPDEST PUSH1 0x1 PUSH1 0xFF SHL DUP2 EQ PUSH2 0x70D JUMPI PUSH0 SUB SWAP1 JUMP JUMPDEST ISZERO PUSH2 0x2AEA JUMPI JUMP JUMPDEST PUSH1 0x40 MLOAD PUSH3 0x461BCD PUSH1 0xE5 SHL DUP2 MSTORE PUSH1 0x20 PUSH1 0x4 DUP3 ADD MSTORE PUSH1 0x17 PUSH1 0x24 DUP3 ADD MSTORE PUSH32 0x496E76616C696420696E697469616C20616D6F756E7473000000000000000000 PUSH1 0x44 DUP3 ADD MSTORE PUSH1 0x64 SWAP1 REVERT JUMPDEST PUSH1 0x40 MLOAD SWAP1 PUSH1 0xE0 DUP3 ADD DUP3 DUP2 LT PUSH1 0x1 PUSH1 0x1 PUSH1 0x40 SHL SUB DUP3 GT OR PUSH2 0x2EE JUMPI PUSH1 0x40 MSTORE PUSH0 PUSH1 0xC0 DUP4 DUP3 DUP2 MSTORE DUP3 PUSH1 0x20 DUP3 ADD MSTORE DUP3 PUSH1 0x40 DUP3 ADD MSTORE DUP3 PUSH1 0x60 DUP3 ADD MSTORE DUP3 PUSH1 0x80 DUP3 ADD MSTORE DUP3 PUSH1 0xA0 DUP3 ADD MSTORE ADD MSTORE JUMP JUMPDEST PUSH2 0x3C0 PUSH2 0xFFF PUSH2 0x2C19 PUSH2 0x2B86 PUSH2 0x2B2F JUMP JUMPDEST SWAP4 PUSH1 0xE8 SHR PUSH2 0x2BA6 PUSH1 0x1 PUSH2 0x2B9F DUP4 PUSH3 0x7FFFFF SWAP1 PUSH1 0x1 SHR AND SWAP1 JUMP JUMPDEST AND ISZERO ISZERO DUP7 MSTORE JUMP JUMPDEST PUSH1 0x1 DUP2 AND ISZERO ISZERO PUSH1 0x20 DUP7 ADD MSTORE PUSH2 0x2BD6 PUSH2 0x2BCD PUSH1 0x1 PUSH1 0x2 DUP5 SWAP1 SHR PUSH3 0x3FFFFF AND JUMPDEST AND PUSH3 0xFFFFFF AND SWAP1 JUMP JUMPDEST ISZERO ISZERO PUSH1 0x40 DUP8 ADD MSTORE JUMP JUMPDEST PUSH2 0x2BF6 PUSH2 0x2BED PUSH1 0x1 PUSH1 0x3 DUP5 SWAP1 SHR PUSH3 0x1FFFFF AND PUSH2 0x2BC4 JUMP JUMPDEST ISZERO ISZERO PUSH1 0x60 DUP8 ADD MSTORE JUMP JUMPDEST PUSH1 0xF PUSH1 0x4 DUP3 SWAP1 SHR DUP2 AND PUSH1 0x80 DUP8 ADD MSTORE PUSH1 0x8 DUP3 SWAP1 SHR AND PUSH1 0xA0 DUP7 ADD MSTORE PUSH1 0xC SHR PUSH2 0xFFF AND SWAP1 JUMP JUMPDEST AND PUSH2 0xFFFF AND PUSH1 0xC0 DUP4 ADD MSTORE JUMP JUMPDEST SWAP1 SWAP3 SWAP1 PUSH1 0x1 PUSH1 0x1 PUSH1 0xA0 SHL SUB DUP1 DUP6 AND SWAP1 DUP3 AND LT ISZERO PUSH2 0x2C97 JUMPI SWAP3 SWAP2 JUMPDEST PUSH1 0x40 MLOAD PUSH12 0xFFFFFFFFFFFFFFFFFFFFFFFF NOT PUSH1 0x60 SWAP6 DUP7 SHL DUP2 AND PUSH1 0x20 DUP4 ADD SWAP1 DUP2 MSTORE SWAP5 DUP7 SHL DUP2 AND PUSH1 0x34 DUP4 ADD MSTORE SWAP2 SWAP1 SWAP5 SHL AND PUSH1 0x48 DUP5 ADD MSTORE PUSH1 0x1 PUSH1 0x1 PUSH1 0xE8 SHL SUB NOT AND PUSH1 0x5C DUP4 ADD MSTORE PUSH1 0x3F DUP3 MSTORE SWAP1 PUSH2 0x2C91 PUSH1 0x5F DUP3 PUSH2 0x2F3 JUMP JUMPDEST MLOAD SWAP1 KECCAK256 SWAP1 JUMP JUMPDEST SWAP2 PUSH2 0x2C3F JUMP JUMPDEST PUSH1 0x20 DUP2 DUP4 SUB SLT PUSH2 0x20F JUMPI DUP1 MLOAD SWAP1 PUSH1 0x1 PUSH1 0x1 PUSH1 0x40 SHL SUB DUP3 GT PUSH2 0x20F JUMPI ADD DUP2 PUSH1 0x1F DUP3 ADD SLT ISZERO PUSH2 0x20F JUMPI DUP1 MLOAD SWAP1 PUSH1 0x1 PUSH1 0x1 PUSH1 0x40 SHL SUB DUP3 GT PUSH2 0x2EE JUMPI PUSH1 0x40 MLOAD SWAP3 PUSH2 0x2CED PUSH1 0x1F DUP5 ADD PUSH1 0x1F NOT AND PUSH1 0x20 ADD DUP6 PUSH2 0x2F3 JUMP JUMPDEST DUP3 DUP5 MSTORE PUSH1 0x20 DUP4 DUP4 ADD ADD GT PUSH2 0x20F JUMPI DUP2 PUSH0 SWAP3 PUSH1 0x20 DUP1 SWAP4 ADD DUP4 DUP7 ADD MCOPY DUP4 ADD ADD MSTORE SWAP1 JUMP JUMPDEST PUSH2 0x100 DUP2 ADD SWAP3 SWAP2 PUSH2 0x21E SWAP2 SWAP1 PUSH2 0x262A JUMP JUMPDEST SWAP1 PUSH1 0x60 SWAP2 DUP1 TLOAD DUP1 ISZERO DUP1 PUSH2 0x2E93 JUMPI JUMPDEST ISZERO PUSH2 0x2E4D JUMPI JUMPDEST POP DUP3 MLOAD ISZERO SWAP2 DUP3 PUSH2 0x2D7E JUMPI JUMPDEST POP PUSH1 0x40 MLOAD SWAP2 ISZERO DUP3 MSTORE PUSH1 0x1 PUSH1 0x1 PUSH1 0xA0 SHL SUB AND SWAP1 PUSH32 0xD34145BF6DE6D1B18053AD66A4A1AF093071A5AB67C05B8BFCE98FD95FFB0D89 SWAP1 DUP1 PUSH1 0x20 DUP2 ADD JUMPDEST SUB SWAP1 LOG2 SWAP1 JUMP JUMPDEST PUSH1 0x40 MLOAD PUSH4 0x3BD1104B PUSH1 0xE0 SHL DUP2 MSTORE SWAP4 POP PUSH0 SWAP1 DUP5 SWAP1 DUP2 SWAP1 PUSH2 0x2DA0 SWAP1 PUSH1 0x4 DUP4 ADD PUSH2 0x2D0E JUMP JUMPDEST SUB DUP2 DUP4 PUSH1 0x1 PUSH1 0x1 PUSH1 0xA0 SHL SUB DUP7 AND GAS CALL SWAP3 DUP4 ISZERO PUSH2 0xEB4 JUMPI PUSH0 SWAP4 PUSH2 0x2E03 JUMPI JUMPDEST POP PUSH2 0x2D78 PUSH32 0xD34145BF6DE6D1B18053AD66A4A1AF093071A5AB67C05B8BFCE98FD95FFB0D89 SWAP2 DUP5 DUP1 MLOAD PUSH2 0x2DF3 JUMPI JUMPDEST POP SWAP2 POP PUSH2 0x2D3E JUMP JUMPDEST PUSH2 0x2DFD SWAP1 DUP3 PUSH2 0x35C1 JUMP JUMPDEST PUSH0 PUSH2 0x2DEB JUMP JUMPDEST PUSH32 0xD34145BF6DE6D1B18053AD66A4A1AF093071A5AB67C05B8BFCE98FD95FFB0D89 SWAP2 SWAP4 POP PUSH2 0x2E45 PUSH2 0x2D78 SWAP2 RETURNDATASIZE DUP1 PUSH0 DUP4 RETURNDATACOPY PUSH2 0x2E3D DUP2 DUP4 PUSH2 0x2F3 JUMP JUMPDEST DUP2 ADD SWAP1 PUSH2 0x2C9D JUMP JUMPDEST SWAP4 SWAP2 POP PUSH2 0x2DBD JUMP JUMPDEST SWAP3 POP PUSH1 0x1F PUSH1 0x40 MLOAD SWAP4 DUP1 DUP6 MSTORE ADD DUP1 PUSH1 0x5 SHR PUSH0 JUMPDEST DUP2 DUP2 LT PUSH2 0x2E7A JUMPI POP POP PUSH1 0x1F NOT AND DUP4 ADD PUSH1 0x20 ADD PUSH1 0x40 MSTORE PUSH0 PUSH2 0x2D33 JUMP JUMPDEST DUP1 PUSH1 0x1 DUP1 SWAP3 DUP7 ADD ADD TLOAD PUSH1 0x20 DUP3 PUSH1 0x5 SHL DUP10 ADD ADD MSTORE ADD PUSH2 0x2E5F JUMP JUMPDEST SWAP4 POP PUSH1 0x40 MLOAD SWAP4 PUSH0 DUP6 MSTORE PUSH1 0x20 DUP6 ADD PUSH1 0x40 MSTORE PUSH2 0x2D2D JUMP JUMPDEST PUSH1 0x40 MLOAD PUSH1 0x20 DUP2 ADD SWAP1 PUSH32 0x626529A6BE7CB2FB96A7ED93849B4EF74C980495DFE61FD514C95DCD9DA51C35 DUP3 MSTORE ADDRESS PUSH1 0x60 SHL PUSH1 0x40 DUP3 ADD MSTORE PUSH1 0x34 DUP2 MSTORE PUSH2 0x2C91 PUSH1 0x54 DUP3 PUSH2 0x2F3 JUMP JUMPDEST DUP1 TLOAD PUSH2 0x20F JUMPI PUSH1 0x1 SWAP1 TSTORE JUMP JUMPDEST PUSH1 0x40 MLOAD PUSH1 0x20 DUP2 ADD SWAP1 PUSH32 0x626529A6BE7CB2FB96A7ED93849B4EF74C980495DFE61FD514C95DCD9DA51C35 DUP3 MSTORE ADDRESS PUSH1 0x60 SHL PUSH1 0x40 DUP3 ADD MSTORE PUSH32 0x88F108D443A200407DF3D92FC06ED196D7B48635560CC21C3B1819792E11C1A7 PUSH1 0x54 DUP3 ADD MSTORE PUSH1 0x54 DUP2 MSTORE PUSH2 0x2C91 PUSH1 0x74 DUP3 PUSH2 0x2F3 JUMP JUMPDEST PUSH1 0x40 MLOAD PUSH1 0x20 DUP2 ADD SWAP1 PUSH32 0x507BA82850C15277B79BAE90C6E97B66228A117B64D05E46B3182D141DF61CE2 DUP3 MSTORE ADDRESS PUSH1 0x60 SHL PUSH1 0x40 DUP3 ADD MSTORE PUSH1 0x34 DUP2 MSTORE PUSH2 0x2FA3 PUSH1 0x54 DUP3 PUSH2 0x2F3 JUMP JUMPDEST MLOAD SWAP1 KECCAK256 TSTORE JUMP JUMPDEST DUP2 MLOAD SWAP2 PUSH0 JUMPDEST DUP4 DUP2 LT PUSH2 0x2FBB JUMPI POP POP POP POP JUMP JUMPDEST PUSH1 0x1 SWAP1 PUSH1 0x1 PUSH1 0x1 PUSH1 0xA0 SHL SUB PUSH2 0x2FD0 DUP3 DUP6 PUSH2 0x1DA7 JUMP JUMPDEST MLOAD AND PUSH2 0x2FDD DUP2 DUP7 ADDRESS PUSH2 0x35F5 JUMP JUMPDEST TLOAD DUP1 PUSH2 0x2FEC JUMPI JUMPDEST POP POP ADD PUSH2 0x2FAE JUMP JUMPDEST PUSH0 SWAP2 PUSH2 0x300C SWAP2 DUP4 DUP2 SGT ISZERO PUSH2 0x3014 JUMPI PUSH2 0x3005 SWAP1 DUP9 DUP4 PUSH2 0x3840 JUMP JUMPDEST DUP7 ADDRESS PUSH2 0x35F5 JUMP JUMPDEST TSTORE PUSH0 DUP1 PUSH2 0x2FE4 JUMP JUMPDEST PUSH2 0x3020 PUSH2 0x3032 SWAP2 PUSH2 0x2AD3 JUMP JUMPDEST DUP3 ISZERO DUP6 EQ PUSH2 0x3037 JUMPI DUP5 SWAP1 JUMPDEST DUP10 DUP5 PUSH2 0x3766 JUMP JUMPDEST PUSH2 0x3005 JUMP JUMPDEST DUP5 SWAP1 PUSH2 0x302B JUMP JUMPDEST SWAP1 SWAP2 DUP3 MLOAD SWAP3 PUSH0 JUMPDEST DUP5 DUP2 LT PUSH2 0x3053 JUMPI POP POP POP POP POP JUMP JUMPDEST PUSH1 0x1 SWAP1 PUSH1 0x1 PUSH1 0x1 PUSH1 0xA0 SHL SUB PUSH2 0x3068 DUP3 DUP6 PUSH2 0x1DA7 JUMP JUMPDEST MLOAD AND PUSH2 0x3075 DUP2 DUP8 ADDRESS PUSH2 0x35F5 JUMP JUMPDEST TLOAD DUP1 PUSH2 0x3084 JUMPI JUMPDEST POP POP ADD PUSH2 0x3045 JUMP JUMPDEST PUSH0 SWAP2 PUSH2 0x30A4 SWAP2 DUP4 DUP2 SGT ISZERO PUSH2 0x30AC JUMPI PUSH2 0x309D SWAP1 DUP10 DUP4 PUSH2 0x3840 JUMP JUMPDEST DUP8 ADDRESS PUSH2 0x35F5 JUMP JUMPDEST TSTORE PUSH0 DUP1 PUSH2 0x307C JUMP JUMPDEST PUSH2 0x30B8 PUSH2 0x30CA SWAP2 PUSH2 0x2AD3 JUMP JUMPDEST DUP3 ISZERO DUP6 EQ PUSH2 0x30CF JUMPI DUP9 SWAP1 JUMPDEST DUP11 DUP5 PUSH2 0x3766 JUMP JUMPDEST PUSH2 0x309D JUMP JUMPDEST DUP5 SWAP1 PUSH2 0x30C3 JUMP JUMPDEST PUSH0 PUSH1 0x40 MLOAD PUSH1 0x20 DUP2 ADD SWAP1 PUSH32 0x507BA82850C15277B79BAE90C6E97B66228A117B64D05E46B3182D141DF61CE2 DUP3 MSTORE ADDRESS PUSH1 0x60 SHL PUSH1 0x40 DUP3 ADD MSTORE PUSH1 0x34 DUP2 MSTORE PUSH2 0x2FA3 PUSH1 0x54 DUP3 PUSH2 0x2F3 JUMP JUMPDEST PUSH2 0x3125 PUSH0 SWAP2 ADDRESS PUSH2 0x366A JUMP JUMPDEST TSTORE JUMP JUMPDEST PUSH1 0x40 MLOAD PUSH1 0x20 DUP2 ADD SWAP1 PUSH32 0x507BA82850C15277B79BAE90C6E97B66228A117B64D05E46B3182D141DF61CE2 DUP3 MSTORE ADDRESS PUSH1 0x60 SHL PUSH1 0x40 DUP3 ADD MSTORE PUSH1 0x34 DUP2 MSTORE PUSH2 0x316B PUSH1 0x54 DUP3 PUSH2 0x2F3 JUMP JUMPDEST MLOAD SWAP1 KECCAK256 TLOAD SWAP1 JUMP JUMPDEST ISZERO PUSH2 0x3179 JUMPI JUMP JUMPDEST PUSH1 0x40 MLOAD PUSH3 0x461BCD PUSH1 0xE5 SHL DUP2 MSTORE PUSH1 0x20 PUSH1 0x4 DUP3 ADD MSTORE PUSH1 0x7 PUSH1 0x24 DUP3 ADD MSTORE PUSH7 0x4E6F20686F7073 PUSH1 0xC8 SHL PUSH1 0x44 DUP3 ADD MSTORE PUSH1 0x64 SWAP1 REVERT JUMPDEST SWAP2 SWAP1 DUP2 LT ISZERO PUSH2 0x1D92 JUMPI PUSH1 0x5 SHL DUP2 ADD CALLDATALOAD SWAP1 PUSH1 0xBE NOT DUP2 CALLDATASIZE SUB ADD DUP3 SLT ISZERO PUSH2 0x20F JUMPI ADD SWAP1 JUMP JUMPDEST CALLDATALOAD PUSH2 0x3C0 DUP2 PUSH2 0x3C3 JUMP JUMPDEST SWAP2 SWAP1 SWAP2 PUSH1 0x1 DUP1 PUSH1 0xA0 SHL SUB AND DUP1 PUSH0 MSTORE PUSH1 0x1 PUSH1 0x20 MSTORE PUSH1 0x40 PUSH0 KECCAK256 DUP4 PUSH0 MSTORE PUSH1 0x20 MSTORE PUSH1 0x40 PUSH0 KECCAK256 DUP1 SLOAD SWAP1 DUP4 DUP3 SUB SWAP2 DUP3 GT PUSH2 0x70D JUMPI SSTORE PUSH1 0x40 DUP1 MLOAD CALLER DUP2 MSTORE PUSH1 0x20 DUP2 ADD SWAP4 SWAP1 SWAP4 MSTORE PUSH0 SWAP3 PUSH0 MLOAD PUSH1 0x20 PUSH2 0x41F7 PUSH0 CODECOPY PUSH0 MLOAD SWAP1 PUSH0 MSTORE SWAP2 DUP2 SWAP1 DUP2 ADD JUMPDEST SUB SWAP1 LOG4 JUMP JUMPDEST SWAP1 PUSH1 0xF SIGNEXTEND SWAP1 PUSH1 0xF SIGNEXTEND ADD SWAP1 PUSH1 0x1 PUSH1 0x1 PUSH1 0x7F SHL SUB NOT DUP3 SLT PUSH1 0x1 PUSH1 0x1 PUSH1 0x7F SHL SUB DUP4 SGT OR PUSH2 0x70D JUMPI JUMP JUMPDEST SWAP1 SWAP2 DUP2 PUSH0 MSTORE PUSH1 0x6 PUSH1 0x20 MSTORE PUSH1 0x1 PUSH1 0x1 PUSH1 0x80 SHL SUB PUSH2 0x3286 PUSH2 0x327C PUSH1 0x40 PUSH0 KECCAK256 SLOAD SWAP6 DUP4 DUP8 AND PUSH1 0xF SIGNEXTEND PUSH2 0x322D JUMP JUMPDEST SWAP3 DUP6 PUSH1 0x80 SAR PUSH2 0x322D JUMP JUMPDEST DUP2 NOT SWAP1 PUSH1 0x80 SHL AND SWAP2 AND OR SWAP2 DUP3 SUB PUSH2 0x329B JUMPI POP POP JUMP JUMPDEST PUSH0 MSTORE PUSH1 0x6 PUSH1 0x20 MSTORE PUSH1 0x40 PUSH0 KECCAK256 SSTORE JUMP JUMPDEST SWAP1 PUSH2 0x32B4 SWAP2 ADDRESS PUSH2 0x35F5 JUMP JUMPDEST SWAP1 DUP2 TLOAD ADD SWAP1 TSTORE JUMP JUMPDEST PUSH1 0x1 PUSH1 0x1 PUSH1 0x80 SHL SUB SWAP3 SWAP4 PUSH0 EQ PUSH2 0x32EF JUMPI POP AND SWAP1 DUP1 DUP3 LT PUSH2 0x32DA JUMPI POP POP JUMP JUMPDEST PUSH4 0x1735867 PUSH1 0xE0 SHL PUSH0 MSTORE PUSH1 0x4 MSTORE PUSH1 0x24 MSTORE PUSH1 0x44 PUSH0 REVERT JUMPDEST SWAP1 POP AND SWAP1 DUP1 DUP3 LT PUSH2 0x32FE JUMPI POP POP JUMP JUMPDEST PUSH4 0x68580A19 PUSH1 0xE0 SHL PUSH0 MSTORE PUSH1 0x4 MSTORE PUSH1 0x24 MSTORE PUSH1 0x44 PUSH0 REVERT JUMPDEST SWAP2 SWAP1 SWAP2 PUSH0 DUP4 DUP3 ADD SWAP4 DUP5 SLT SWAP2 SLT SWAP1 DUP1 ISZERO DUP3 AND SWAP2 ISZERO AND OR PUSH2 0x70D JUMPI JUMP JUMPDEST SWAP1 SWAP3 PUSH2 0x333B DUP5 DUP4 ADDRESS PUSH2 0x35F5 JUMP JUMPDEST TLOAD PUSH2 0x3347 DUP5 DUP5 ADDRESS PUSH2 0x35F5 JUMP JUMPDEST TLOAD SWAP2 PUSH1 0x1 PUSH1 0x1 PUSH1 0xA0 SHL SUB DUP6 DUP2 AND SWAP3 SWAP1 DUP8 AND DUP1 DUP5 EQ PUSH2 0x3410 JUMPI SWAP2 DUP2 PUSH2 0x33AA SWAP6 SWAP4 PUSH0 PUSH2 0x21E SWAP11 SWAP7 SWAP5 SLT PUSH0 EQ PUSH2 0x33F0 JUMPI PUSH2 0x3380 PUSH2 0x338F SWAP3 PUSH2 0x2AD3 JUMP JUMPDEST SWAP1 PUSH2 0x33E9 JUMPI DUP3 SWAP1 JUMPDEST DUP9 DUP8 PUSH2 0x3766 JUMP JUMPDEST PUSH0 DUP4 SGT ISZERO PUSH2 0x33AF JUMPI POP POP PUSH2 0x33A4 SWAP1 DUP5 DUP7 PUSH2 0x3840 JUMP JUMPDEST DUP3 PUSH2 0x38B1 JUMP JUMPDEST PUSH2 0x38B1 JUMP JUMPDEST PUSH0 DUP4 SLT PUSH2 0x33BF JUMPI JUMPDEST POP POP POP PUSH2 0x33A4 JUMP JUMPDEST PUSH2 0x33CB PUSH2 0x33D9 SWAP4 PUSH2 0x2AD3 JUMP JUMPDEST SWAP2 PUSH2 0x33E1 JUMPI SWAP1 JUMPDEST DUP6 DUP8 PUSH2 0x3766 JUMP JUMPDEST PUSH0 DUP1 DUP1 PUSH2 0x33B7 JUMP JUMPDEST POP PUSH0 SWAP1 PUSH2 0x33D2 JUMP JUMPDEST PUSH0 SWAP1 PUSH2 0x3388 JUMP JUMPDEST POP PUSH0 DUP2 SGT PUSH2 0x33FF JUMPI JUMPDEST POP PUSH2 0x338F JUMP JUMPDEST PUSH2 0x340A SWAP1 DUP8 DUP7 PUSH2 0x3840 JUMP JUMPDEST PUSH0 PUSH2 0x33F9 JUMP JUMPDEST SWAP3 POP PUSH2 0x21E SWAP7 SWAP6 SWAP4 PUSH2 0x3421 SWAP2 PUSH2 0x3313 JUMP JUMPDEST SWAP3 PUSH0 DUP5 SLT ISZERO PUSH2 0x344D JUMPI POP PUSH2 0x3437 PUSH2 0x33AA SWAP4 PUSH2 0x2AD3 JUMP JUMPDEST SWAP2 PUSH2 0x3445 JUMPI SWAP1 JUMPDEST DUP4 DUP6 PUSH2 0x3766 JUMP JUMPDEST POP PUSH0 SWAP1 PUSH2 0x343E JUMP JUMPDEST SWAP3 SWAP2 POP POP DUP3 PUSH0 DUP3 SGT PUSH2 0x3462 JUMPI JUMPDEST POP POP POP PUSH2 0x38B1 JUMP JUMPDEST PUSH2 0x346B SWAP3 PUSH2 0x3840 JUMP JUMPDEST PUSH0 DUP1 DUP3 PUSH2 0x345A JUMP JUMPDEST PUSH1 0x1 PUSH1 0x1 PUSH1 0x80 SHL SUB PUSH8 0xDE0B6B3A7640000 SWAP2 AND MUL SWAP1 PUSH1 0x1 PUSH1 0x1 PUSH1 0x80 SHL SUB DUP3 AND SWAP2 DUP3 SUB PUSH2 0x70D JUMPI JUMP JUMPDEST SWAP3 SWAP5 SWAP4 SWAP2 SWAP1 SWAP4 DUP3 PUSH0 MSTORE PUSH1 0x5 PUSH1 0x20 MSTORE PUSH1 0x40 PUSH0 KECCAK256 SLOAD ISZERO PUSH0 EQ PUSH2 0x34DB JUMPI POP POP POP PUSH2 0x34C2 SWAP3 POP PUSH2 0x24AC JUMP JUMPDEST SWAP1 JUMPDEST DUP2 ISZERO PUSH2 0x34CC JUMPI JUMP JUMPDEST PUSH4 0x283EEADF PUSH1 0xE0 SHL PUSH0 MSTORE PUSH1 0x4 PUSH0 REVERT JUMPDEST SWAP1 SWAP3 SWAP2 SWAP4 PUSH8 0xDE0B6B3A7640000 DUP2 MUL SWAP1 DUP1 DUP3 DIV PUSH8 0xDE0B6B3A7640000 EQ SWAP1 ISZERO OR ISZERO PUSH2 0x70D JUMPI DUP2 PUSH2 0x350A SWAP2 PUSH2 0x2A73 JUMP JUMPDEST DUP3 ADD DUP1 SWAP3 GT PUSH2 0x70D JUMPI PUSH2 0x354B PUSH2 0x18EB SWAP4 PUSH1 0x1 PUSH1 0x1 PUSH1 0x80 SHL SUB PUSH2 0x3544 PUSH2 0x355B SWAP5 PUSH2 0x18EB PUSH2 0x3538 PUSH2 0x3562 SWAP12 PUSH2 0x3473 JUMP JUMPDEST PUSH1 0x1 PUSH1 0x1 PUSH1 0x80 SHL SUB AND SWAP1 JUMP JUMPDEST SWAP2 AND PUSH2 0x24AC JUMP JUMPDEST SWAP4 PUSH1 0x5 SWAP1 PUSH0 MSTORE PUSH1 0x20 MSTORE PUSH1 0x40 PUSH0 KECCAK256 SWAP1 JUMP JUMPDEST SLOAD SWAP1 PUSH2 0x2A60 JUMP JUMPDEST SWAP1 PUSH2 0x34C4 JUMP JUMPDEST SWAP2 SWAP1 SWAP2 PUSH1 0x1 DUP1 PUSH1 0xA0 SHL SUB AND SWAP1 DUP2 PUSH0 MSTORE PUSH1 0x1 PUSH1 0x20 MSTORE PUSH1 0x40 PUSH0 KECCAK256 DUP4 PUSH0 MSTORE PUSH1 0x20 MSTORE PUSH1 0x40 PUSH0 KECCAK256 DUP1 SLOAD SWAP1 DUP3 DUP3 ADD DUP1 SWAP3 GT PUSH2 0x70D JUMPI SSTORE PUSH1 0x40 DUP1 MLOAD CALLER DUP2 MSTORE PUSH1 0x20 DUP2 ADD SWAP3 SWAP1 SWAP3 MSTORE PUSH0 SWAP2 PUSH0 MLOAD PUSH1 0x20 PUSH2 0x41F7 PUSH0 CODECOPY PUSH0 MLOAD SWAP1 PUSH0 MSTORE SWAP2 DUP2 SWAP1 DUP2 ADD PUSH2 0x3228 JUMP JUMPDEST PUSH1 0x1F DUP3 MLOAD DUP1 DUP4 TSTORE ADD PUSH1 0x5 SHR SWAP2 PUSH0 JUMPDEST DUP4 DUP2 LT PUSH2 0x35DC JUMPI POP POP POP POP JUMP JUMPDEST DUP1 PUSH1 0x20 PUSH1 0x1 SWAP3 PUSH1 0x5 SHL DUP5 ADD ADD MLOAD DUP3 DUP3 DUP7 ADD ADD TSTORE ADD PUSH2 0x35CF JUMP JUMPDEST SWAP2 PUSH1 0x40 MLOAD SWAP2 PUSH1 0x20 DUP4 ADD SWAP4 PUSH32 0x71AA94563C1D78D77DF681AD802FC1A81EA7D00CFFE4BBE002400E1D66DE80D2 DUP6 MSTORE PUSH1 0x1 PUSH1 0x1 PUSH1 0x60 SHL SUB NOT SWAP1 PUSH1 0x60 SHL AND PUSH1 0x40 DUP5 ADD MSTORE PUSH1 0x1 PUSH1 0x1 PUSH1 0x60 SHL SUB NOT SWAP1 PUSH1 0x60 SHL AND PUSH1 0x54 DUP4 ADD MSTORE PUSH1 0x1 PUSH1 0x1 PUSH1 0x60 SHL SUB NOT SWAP1 PUSH1 0x60 SHL AND PUSH1 0x68 DUP3 ADD MSTORE PUSH1 0x5C DUP2 MSTORE PUSH2 0x2C91 PUSH1 0x7C DUP3 PUSH2 0x2F3 JUMP JUMPDEST SWAP1 PUSH1 0x40 MLOAD SWAP1 PUSH1 0x20 DUP3 ADD SWAP3 PUSH32 0xE88690B85C82523984F05D1F281684A73AA4D4303BCA19CFE29AA89AE744616A DUP5 MSTORE PUSH1 0x1 PUSH1 0x1 PUSH1 0x60 SHL SUB NOT SWAP1 PUSH1 0x60 SHL AND PUSH1 0x40 DUP4 ADD MSTORE PUSH1 0x1 PUSH1 0x1 PUSH1 0x60 SHL SUB NOT SWAP1 PUSH1 0x60 SHL AND PUSH1 0x54 DUP3 ADD MSTORE PUSH1 0x48 DUP2 MSTORE PUSH2 0x2C91 PUSH1 0x68 DUP3 PUSH2 0x2F3 JUMP JUMPDEST SWAP1 DUP2 PUSH1 0x20 SWAP2 SUB SLT PUSH2 0x20F JUMPI MLOAD PUSH2 0x3C0 DUP2 PUSH2 0x3C3 JUMP JUMPDEST ISZERO PUSH2 0x36E8 JUMPI JUMP JUMPDEST PUSH1 0x40 MLOAD PUSH3 0x461BCD PUSH1 0xE5 SHL DUP2 MSTORE PUSH1 0x20 PUSH1 0x4 DUP3 ADD MSTORE PUSH1 0x15 PUSH1 0x24 DUP3 ADD MSTORE PUSH21 0x115490CC8C081D1C985B9CD9995C8819985A5B1959 PUSH1 0x5A SHL PUSH1 0x44 DUP3 ADD MSTORE PUSH1 0x64 SWAP1 REVERT JUMPDEST ISZERO PUSH2 0x372C JUMPI JUMP JUMPDEST PUSH1 0x40 MLOAD PUSH3 0x461BCD PUSH1 0xE5 SHL DUP2 MSTORE PUSH1 0x20 PUSH1 0x4 DUP3 ADD MSTORE PUSH1 0x12 PUSH1 0x24 DUP3 ADD MSTORE PUSH18 0x125B98DBDC9C9958DD08115512081CD95B9D PUSH1 0x72 SHL PUSH1 0x44 DUP3 ADD MSTORE PUSH1 0x64 SWAP1 REVERT JUMPDEST PUSH1 0x1 PUSH1 0x1 PUSH1 0xA0 SHL SUB AND SWAP3 SWAP1 DUP4 PUSH2 0x3782 JUMPI POP PUSH2 0x21E SWAP3 POP EQ PUSH2 0x3725 JUMP JUMPDEST SWAP2 SWAP1 PUSH2 0x3808 JUMPI PUSH1 0x40 MLOAD PUSH4 0x23B872DD PUSH1 0xE0 SHL DUP2 MSTORE PUSH1 0x1 PUSH1 0x1 PUSH1 0xA0 SHL SUB SWAP1 SWAP3 AND PUSH1 0x4 DUP4 ADD MSTORE ADDRESS PUSH1 0x24 DUP4 ADD MSTORE PUSH1 0x44 DUP3 ADD MSTORE SWAP1 PUSH1 0x20 SWAP1 DUP3 SWAP1 DUP2 PUSH0 DUP2 PUSH1 0x64 DUP2 ADD JUMPDEST SUB SWAP3 GAS CALL DUP1 ISZERO PUSH2 0xEB4 JUMPI PUSH2 0x21E SWAP2 PUSH0 SWAP2 PUSH2 0x37D9 JUMPI JUMPDEST POP PUSH2 0x36E1 JUMP JUMPDEST PUSH2 0x37FB SWAP2 POP PUSH1 0x20 RETURNDATASIZE PUSH1 0x20 GT PUSH2 0x3801 JUMPI JUMPDEST PUSH2 0x37F3 DUP2 DUP4 PUSH2 0x2F3 JUMP JUMPDEST DUP2 ADD SWAP1 PUSH2 0x36CC JUMP JUMPDEST PUSH0 PUSH2 0x37D3 JUMP JUMPDEST POP RETURNDATASIZE PUSH2 0x37E9 JUMP JUMPDEST PUSH1 0x40 MLOAD PUSH3 0x461BCD PUSH1 0xE5 SHL DUP2 MSTORE PUSH1 0x20 PUSH1 0x4 DUP3 ADD MSTORE PUSH1 0x10 PUSH1 0x24 DUP3 ADD MSTORE PUSH16 0x115512081B9BDD08195E1C1958DD1959 PUSH1 0x82 SHL PUSH1 0x44 DUP3 ADD MSTORE PUSH1 0x64 SWAP1 REVERT JUMPDEST PUSH1 0x1 PUSH1 0x1 PUSH1 0xA0 SHL SUB AND DUP1 PUSH2 0x387A JUMPI POP PUSH0 DUP1 DUP1 SWAP4 DUP2 SWAP4 DUP3 SWAP1 DUP3 ISZERO PUSH2 0x3870 JUMPI JUMPDEST PUSH1 0x1 PUSH1 0x1 PUSH1 0xA0 SHL SUB AND SWAP1 CALL ISZERO PUSH2 0xEB4 JUMPI JUMP JUMPDEST PUSH2 0x8FC SWAP2 POP PUSH2 0x385E JUMP JUMPDEST PUSH1 0x40 MLOAD PUSH4 0xA9059CBB PUSH1 0xE0 SHL DUP2 MSTORE PUSH1 0x1 PUSH1 0x1 PUSH1 0xA0 SHL SUB SWAP1 SWAP3 AND PUSH1 0x4 DUP4 ADD MSTORE PUSH1 0x24 DUP3 ADD SWAP3 SWAP1 SWAP3 MSTORE SWAP1 PUSH1 0x20 SWAP1 DUP3 SWAP1 DUP2 PUSH0 DUP2 PUSH1 0x44 DUP2 ADD PUSH2 0x37BE JUMP JUMPDEST PUSH0 SWAP2 PUSH2 0x3125 SWAP2 ADDRESS PUSH2 0x35F5 JUMP JUMPDEST SWAP1 CALLDATALOAD SWAP1 PUSH1 0x1E NOT DUP2 CALLDATASIZE SUB ADD DUP3 SLT ISZERO PUSH2 0x20F JUMPI ADD DUP1 CALLDATALOAD SWAP1 PUSH1 0x1 PUSH1 0x1 PUSH1 0x40 SHL SUB DUP3 GT PUSH2 0x20F JUMPI PUSH1 0x20 ADD SWAP2 DUP2 PUSH1 0x5 SHL CALLDATASIZE SUB DUP4 SGT PUSH2 0x20F JUMPI JUMP JUMPDEST ISZERO PUSH2 0x38F9 JUMPI JUMP JUMPDEST PUSH1 0x40 MLOAD PUSH3 0x461BCD PUSH1 0xE5 SHL DUP2 MSTORE PUSH1 0x20 PUSH1 0x4 DUP3 ADD MSTORE PUSH1 0x11 PUSH1 0x24 DUP3 ADD MSTORE PUSH17 0x4D69736D61746368656420617272617973 PUSH1 0x78 SHL PUSH1 0x44 DUP3 ADD MSTORE PUSH1 0x64 SWAP1 REVERT JUMPDEST CALLDATALOAD PUSH2 0x3C0 DUP2 PUSH2 0x3D8 JUMP JUMPDEST SWAP6 SWAP5 SWAP4 SWAP3 SWAP2 POP PUSH1 0x60 DUP7 ADD PUSH2 0x3950 DUP2 DUP9 PUSH2 0x38BD JUMP JUMPDEST SWAP1 POP ISZERO PUSH2 0x39F2 JUMPI PUSH2 0x397C PUSH2 0x3967 PUSH1 0x80 DUP10 ADD DUP10 PUSH2 0x38BD JUMP JUMPDEST SWAP1 POP PUSH2 0x3973 DUP4 DUP11 PUSH2 0x38BD JUMP JUMPDEST SWAP2 SWAP1 POP EQ PUSH2 0x38F2 JUMP JUMPDEST PUSH1 0x1 PUSH2 0x3988 DUP3 DUP10 PUSH2 0x38BD JUMP JUMPDEST SWAP1 POP EQ PUSH0 EQ PUSH2 0x39E6 JUMPI DUP7 PUSH2 0x399E PUSH2 0x3C0 SWAP9 PUSH2 0x24D2 JUMP JUMPDEST SWAP2 PUSH2 0x39AB PUSH1 0x20 DUP4 ADD PUSH2 0x24D2 JUMP JUMPDEST PUSH2 0x39DE PUSH1 0xA0 PUSH2 0x39D7 PUSH2 0x39D2 PUSH2 0x39CC PUSH2 0x39C5 PUSH1 0x40 DUP10 ADD PUSH2 0x24D2 JUMP JUMPDEST SWAP7 DUP9 PUSH2 0x38BD JUMP JUMPDEST SWAP1 PUSH2 0x24B9 JUMP JUMPDEST PUSH2 0x3932 JUMP JUMPDEST SWAP5 ADD PUSH2 0x31CA JUMP JUMPDEST SWAP4 PUSH1 0x5 PUSH2 0x3EFB JUMP JUMPDEST POP PUSH2 0x3C0 SWAP6 PUSH1 0x5 PUSH2 0x3B47 JUMP JUMPDEST PUSH1 0x40 MLOAD PUSH3 0x461BCD PUSH1 0xE5 SHL DUP2 MSTORE PUSH1 0x20 PUSH1 0x4 DUP3 ADD MSTORE PUSH1 0xB PUSH1 0x24 DUP3 ADD MSTORE PUSH11 0x4E6F206D61726B696E6773 PUSH1 0xA8 SHL PUSH1 0x44 DUP3 ADD MSTORE PUSH1 0x64 SWAP1 REVERT JUMPDEST SWAP2 SWAP1 SWAP2 PUSH1 0x40 DUP2 DUP5 SUB SLT PUSH2 0x20F JUMPI DUP1 MLOAD PUSH1 0x1 PUSH1 0x1 PUSH1 0x40 SHL SUB DUP2 GT PUSH2 0x20F JUMPI DUP4 PUSH2 0x3A4E SWAP2 DUP4 ADD PUSH2 0x1E8B JUMP JUMPDEST SWAP3 PUSH1 0x20 DUP3 ADD MLOAD PUSH1 0x1 PUSH1 0x1 PUSH1 0x40 SHL SUB DUP2 GT PUSH2 0x20F JUMPI PUSH2 0x3C0 SWAP3 ADD PUSH2 0x1E8B JUMP JUMPDEST SWAP1 PUSH1 0x20 DUP1 DUP4 MLOAD SWAP3 DUP4 DUP2 MSTORE ADD SWAP3 ADD SWAP1 PUSH0 JUMPDEST DUP2 DUP2 LT PUSH2 0x3A89 JUMPI POP POP POP SWAP1 JUMP JUMPDEST DUP3 MLOAD PUSH1 0x1 PUSH1 0x1 PUSH1 0xE8 SHL SUB NOT AND DUP5 MSTORE PUSH1 0x20 SWAP4 DUP5 ADD SWAP4 SWAP1 SWAP3 ADD SWAP2 PUSH1 0x1 ADD PUSH2 0x3A7C JUMP JUMPDEST DUP1 MLOAD PUSH1 0x1 PUSH1 0x1 PUSH1 0xA0 SHL SUB SWAP1 DUP2 AND DUP4 MSTORE PUSH1 0x20 DUP1 DUP4 ADD MLOAD DUP3 AND SWAP1 DUP5 ADD MSTORE PUSH1 0x40 DUP1 DUP4 ADD MLOAD SWAP1 SWAP2 AND SWAP1 DUP4 ADD MSTORE PUSH1 0x60 DUP1 DUP3 ADD MLOAD PUSH1 0xC0 SWAP2 DUP5 ADD DUP3 SWAP1 MSTORE PUSH2 0x3C0 SWAP4 SWAP2 PUSH1 0xA0 SWAP2 PUSH2 0x3AF3 SWAP2 DUP5 ADD SWAP1 PUSH2 0x5CD JUMP JUMPDEST SWAP3 PUSH1 0x80 DUP2 ADD MLOAD ISZERO ISZERO PUSH1 0x80 DUP5 ADD MSTORE ADD MLOAD SWAP1 PUSH1 0xA0 DUP2 DUP5 SUB SWAP2 ADD MSTORE PUSH2 0x3A6C JUMP JUMPDEST SWAP2 PUSH2 0x3B39 SWAP1 PUSH2 0x3B2B PUSH2 0x3C0 SWAP6 SWAP4 PUSH1 0x60 DUP7 MSTORE PUSH1 0x60 DUP7 ADD SWAP1 PUSH2 0x3AA9 JUMP JUMPDEST SWAP1 DUP5 DUP3 SUB PUSH1 0x20 DUP7 ADD MSTORE PUSH2 0x1F0D JUMP JUMPDEST SWAP2 PUSH1 0x40 DUP2 DUP5 SUB SWAP2 ADD MSTORE PUSH2 0x1F0D JUMP JUMPDEST SWAP7 SWAP5 SWAP6 SWAP1 SWAP3 SWAP4 SWAP2 SWAP7 PUSH1 0x60 DUP5 ADD SWAP8 PUSH2 0x3B5E DUP10 DUP7 PUSH2 0x38BD JUMP JUMPDEST SWAP7 SWAP1 POP PUSH2 0x3EB8 JUMPI JUMPDEST POP PUSH2 0x3B70 DUP6 PUSH2 0x1D3F JUMP JUMPDEST SWAP2 PUSH2 0x3B7A DUP7 PUSH2 0x1D3F JUMP JUMPDEST SWAP1 PUSH0 JUMPDEST DUP8 DUP2 LT PUSH2 0x3E22 JUMPI POP DUP2 PUSH0 SWAP2 DUP6 DUP4 DUP10 PUSH2 0x3C41 PUSH2 0x3C63 SWAP14 SWAP15 SWAP16 PUSH2 0x3C15 PUSH2 0x3C3A PUSH2 0x3BA3 DUP6 PUSH2 0x24D2 JUMP JUMPDEST SWAP5 PUSH2 0x3C2C PUSH2 0x3BB3 PUSH1 0x20 DUP4 ADD PUSH2 0x24D2 JUMP JUMPDEST SWAP5 PUSH2 0x3BE8 PUSH2 0x3C25 PUSH2 0x3BC6 PUSH1 0x40 DUP7 ADD PUSH2 0x24D2 JUMP JUMPDEST PUSH2 0x3BD3 PUSH1 0x80 DUP8 ADD DUP8 PUSH2 0x38BD JUMP JUMPDEST SWAP4 SWAP1 SWAP5 PUSH2 0x3BE2 PUSH1 0xA0 DUP10 ADD PUSH2 0x31CA JUMP JUMPDEST SWAP8 PUSH2 0x38BD JUMP JUMPDEST SWAP9 SWAP1 SWAP10 PUSH2 0x3C05 PUSH2 0x3BF6 PUSH2 0x314 JUMP JUMPDEST PUSH1 0x1 PUSH1 0x1 PUSH1 0xA0 SHL SUB SWAP1 SWAP15 AND DUP15 MSTORE JUMP JUMPDEST PUSH1 0x1 PUSH1 0x1 PUSH1 0xA0 SHL SUB AND PUSH1 0x20 DUP14 ADD MSTORE JUMP JUMPDEST PUSH1 0x1 PUSH1 0x1 PUSH1 0xA0 SHL SUB AND PUSH1 0x40 DUP12 ADD MSTORE JUMP JUMPDEST CALLDATASIZE SWAP2 PUSH2 0x359 JUMP JUMPDEST PUSH1 0x60 DUP8 ADD MSTORE ISZERO ISZERO PUSH1 0x80 DUP7 ADD MSTORE JUMP JUMPDEST CALLDATASIZE SWAP2 PUSH2 0x3EA JUMP JUMPDEST PUSH1 0xA0 DUP3 ADD MSTORE PUSH1 0x40 MLOAD PUSH4 0x27B8F7B PUSH1 0xE1 SHL DUP2 MSTORE SWAP13 DUP14 SWAP6 DUP7 SWAP5 DUP6 SWAP4 PUSH1 0x4 DUP6 ADD PUSH2 0x3B10 JUMP JUMPDEST SUB SWAP3 PUSH1 0x1 PUSH1 0x1 PUSH1 0xA0 SHL SUB AND GAS CALL SWAP1 DUP2 ISZERO PUSH2 0xEB4 JUMPI PUSH0 SWAP8 PUSH0 SWAP3 PUSH2 0x3DFB JUMPI JUMPDEST POP PUSH0 JUMPDEST DUP8 DUP2 LT PUSH2 0x3CFF JUMPI POP POP POP POP POP SWAP1 PUSH2 0x3CAC SWAP5 SWAP6 PUSH2 0x3CA6 SWAP4 SWAP3 PUSH2 0x3CB0 JUMPI JUMPDEST POP POP PUSH2 0x2491 JUMP JUMPDEST SWAP1 PUSH2 0x1DA7 JUMP JUMPDEST MLOAD SWAP1 JUMP JUMPDEST DUP2 PUSH2 0x3CC0 PUSH1 0xA0 PUSH2 0x3CEA SWAP5 ADD PUSH2 0x31CA JUMP JUMPDEST ISZERO PUSH2 0x3CF1 JUMPI PUSH1 0x20 PUSH2 0x3CD1 SWAP2 ADD PUSH2 0x24D2 JUMP JUMPDEST PUSH2 0x3CE3 PUSH2 0x3CDD DUP6 PUSH2 0x2491 JUMP JUMPDEST DUP8 PUSH2 0x1DA7 JUMP JUMPDEST MLOAD SWAP2 PUSH2 0x32A9 JUMP JUMPDEST PUSH0 DUP1 PUSH2 0x3C9F JUMP JUMPDEST PUSH2 0x3CFA SWAP1 PUSH2 0x24D2 JUMP JUMPDEST PUSH2 0x3CD1 JUMP JUMPDEST DUP1 PUSH2 0x3DC1 DUP11 DUP10 PUSH2 0x3D29 DUP5 PUSH2 0x3D22 PUSH1 0x1 SWAP8 PUSH2 0x3D1C PUSH1 0x80 DUP7 ADD DUP7 PUSH2 0x38BD JUMP JUMPDEST SWAP1 PUSH2 0x24C2 JUMP JUMPDEST CALLDATALOAD SWAP4 PUSH2 0x1DA7 JUMP JUMPDEST MLOAD PUSH2 0x3D67 PUSH2 0x3D47 PUSH2 0x3D3A DUP8 DUP14 PUSH2 0x1DA7 JUMP JUMPDEST MLOAD PUSH1 0x1 PUSH1 0x1 PUSH1 0x80 SHL SUB AND SWAP1 JUMP JUMPDEST DUP3 PUSH2 0x3D55 PUSH2 0x3D3A DUP10 DUP13 PUSH2 0x1DA7 JUMP JUMPDEST PUSH2 0x3D61 PUSH1 0xA0 DUP8 ADD PUSH2 0x31CA JUMP JUMPDEST SWAP3 PUSH2 0x32BC JUMP JUMPDEST PUSH2 0x3D71 DUP6 DUP10 PUSH2 0x1DA7 JUMP JUMPDEST MLOAD SWAP3 PUSH2 0x3D7F PUSH1 0xA0 DUP5 ADD PUSH2 0x31CA JUMP JUMPDEST ISZERO PUSH2 0x3DDB JUMPI PUSH2 0x3D9E PUSH1 0xA0 PUSH1 0x1 PUSH1 0x1 PUSH1 0x80 SHL SUB DUP4 AND PUSH1 0xF SIGNEXTEND SWAP5 JUMPDEST ADD PUSH2 0x31CA JUMP JUMPDEST ISZERO PUSH2 0x3DC7 JUMPI POP PUSH1 0x1 PUSH1 0x1 PUSH1 0x80 SHL SUB PUSH2 0x3DB9 SWAP2 AND PUSH1 0xF SIGNEXTEND PUSH2 0x2A91 JUMP JUMPDEST SWAP2 JUMPDEST DUP9 PUSH2 0x401F JUMP JUMPDEST ADD PUSH2 0x3C83 JUMP JUMPDEST PUSH1 0x1 PUSH1 0x1 PUSH1 0x80 SHL SUB SWAP2 POP AND PUSH1 0xF SIGNEXTEND SWAP2 PUSH2 0x3DBB JUMP JUMPDEST PUSH2 0x3D9E PUSH1 0xA0 PUSH2 0x3DF5 PUSH1 0x1 PUSH1 0x1 PUSH1 0x80 SHL SUB DUP6 AND PUSH1 0xF SIGNEXTEND PUSH2 0x2A91 JUMP JUMPDEST SWAP5 PUSH2 0x3D98 JUMP JUMPDEST SWAP1 SWAP8 POP PUSH2 0x3E1A SWAP2 POP RETURNDATASIZE DUP1 PUSH0 DUP4 RETURNDATACOPY PUSH2 0x3E12 DUP2 DUP4 PUSH2 0x2F3 JUMP JUMPDEST DUP2 ADD SWAP1 PUSH2 0x3A25 JUMP JUMPDEST SWAP1 SWAP7 PUSH0 PUSH2 0x3C80 JUMP JUMPDEST PUSH1 0x1 SWAP1 PUSH2 0x3EB2 PUSH2 0x3EA8 PUSH2 0x3E8D PUSH2 0x3E6C DUP16 DUP13 PUSH2 0x3E3C DUP2 PUSH2 0x24D2 JUMP JUMPDEST SWAP2 PUSH2 0x3E66 PUSH2 0x39D2 DUP10 PUSH2 0x3D1C PUSH2 0x3E53 PUSH1 0x20 DUP8 ADD PUSH2 0x24D2 JUMP JUMPDEST SWAP5 PUSH2 0x3E60 PUSH1 0x40 DUP9 ADD PUSH2 0x24D2 JUMP JUMPDEST SWAP7 PUSH2 0x38BD JUMP JUMPDEST SWAP3 PUSH2 0x2C25 JUMP JUMPDEST DUP9 PUSH1 0x1 SWAP2 PUSH0 MSTORE ADD PUSH1 0x20 MSTORE PUSH1 0x40 PUSH0 KECCAK256 SLOAD SWAP1 PUSH1 0x1 PUSH1 0x1 PUSH1 0x80 SHL SUB DUP3 AND SWAP2 PUSH1 0x80 SHR SWAP1 JUMP JUMPDEST PUSH2 0x3E9A DUP6 DUP10 SWAP5 SWAP4 SWAP5 PUSH2 0x1DA7 JUMP JUMPDEST SWAP1 PUSH1 0x1 PUSH1 0x1 PUSH1 0x80 SHL SUB AND SWAP1 MSTORE JUMP JUMPDEST PUSH2 0x3E9A DUP4 DUP10 PUSH2 0x1DA7 JUMP JUMPDEST ADD PUSH2 0x3B7D JUMP JUMPDEST PUSH2 0x3EE6 SWAP1 PUSH2 0x3EC8 PUSH1 0xA0 DUP8 ADD PUSH2 0x31CA JUMP JUMPDEST ISZERO PUSH2 0x3EEC JUMPI PUSH2 0x3EDF PUSH2 0x3ED9 DUP8 PUSH2 0x24D2 JUMP JUMPDEST SWAP2 PUSH2 0x2AD3 JUMP JUMPDEST SWAP1 DUP10 PUSH2 0x32A9 JUMP JUMPDEST PUSH0 PUSH2 0x3B66 JUMP JUMPDEST PUSH2 0x3EDF PUSH2 0x3ED9 PUSH1 0x20 DUP9 ADD PUSH2 0x24D2 JUMP JUMPDEST SWAP2 DUP6 DUP1 SWAP13 SWAP12 DUP3 SWAP9 SWAP4 SWAP8 SWAP12 SWAP10 SWAP6 SWAP11 SWAP7 SWAP11 PUSH2 0x3F16 DUP13 DUP3 DUP7 DUP13 PUSH2 0x2C25 JUMP JUMPDEST SWAP7 PUSH2 0x3FF6 JUMPI JUMPDEST DUP9 DUP6 PUSH2 0x3F43 DUP10 DUP10 PUSH1 0x1 SWAP2 PUSH0 MSTORE ADD PUSH1 0x20 MSTORE PUSH1 0x40 PUSH0 KECCAK256 SLOAD SWAP1 PUSH1 0x1 PUSH1 0x1 PUSH1 0x80 SHL SUB DUP3 AND SWAP2 PUSH1 0x80 SHR SWAP1 JUMP JUMPDEST SWAP15 DUP16 SWAP5 DUP3 SWAP9 PUSH2 0x3F53 SWAP9 SWAP4 SWAP6 PUSH2 0x40BD JUMP JUMPDEST SWAP12 DUP13 DUP1 SWAP11 PUSH2 0x3F60 SWAP4 PUSH2 0x32BC JUMP JUMPDEST PUSH2 0x3F9B SWAP3 DUP10 ISZERO PUSH2 0x3FDB JUMPI PUSH1 0x1 PUSH1 0x1 PUSH1 0x80 SHL SUB DUP3 AND PUSH1 0xF SIGNEXTEND SWAP2 JUMPDEST DUP11 ISZERO PUSH2 0x3FC9 JUMPI POP PUSH2 0x3F95 PUSH1 0x1 PUSH1 0x1 PUSH1 0x80 SHL SUB DUP11 AND PUSH1 0xF SIGNEXTEND PUSH2 0x2A91 JUMP JUMPDEST SWAP3 PUSH2 0x401F JUMP JUMPDEST PUSH2 0x3FA7 JUMPI JUMPDEST POP POP POP POP POP JUMP JUMPDEST PUSH2 0x3FB7 SWAP5 ISZERO PUSH2 0x3FC1 JUMPI POP SWAP1 PUSH2 0x32A9 JUMP JUMPDEST PUSH0 DUP3 DUP2 DUP1 DUP1 PUSH2 0x3FA0 JUMP JUMPDEST SWAP1 POP SWAP1 PUSH2 0x32A9 JUMP JUMPDEST PUSH1 0x1 PUSH1 0x1 PUSH1 0x80 SHL SUB AND PUSH1 0xF SIGNEXTEND SWAP3 PUSH2 0x401F JUMP JUMPDEST PUSH2 0x3FF0 PUSH1 0x1 PUSH1 0x1 PUSH1 0x80 SHL SUB DUP11 AND PUSH1 0xF SIGNEXTEND PUSH2 0x2A91 JUMP JUMPDEST SWAP2 PUSH2 0x3F79 JUMP JUMPDEST DUP3 ISZERO PUSH2 0x4016 JUMPI PUSH2 0x4011 DUP10 JUMPDEST PUSH2 0x400A DUP8 PUSH2 0x2AD3 JUMP JUMPDEST SWAP1 DUP14 PUSH2 0x32A9 JUMP JUMPDEST PUSH2 0x3F1C JUMP JUMPDEST PUSH2 0x4011 DUP5 PUSH2 0x4001 JUMP JUMPDEST PUSH1 0x1 SWAP1 SWAP4 SWAP3 SWAP4 ADD SWAP2 DUP2 PUSH0 MSTORE DUP3 PUSH1 0x20 MSTORE PUSH1 0x1 PUSH1 0x1 PUSH1 0x80 SHL SUB PUSH2 0x4057 PUSH2 0x404D PUSH1 0x40 PUSH0 KECCAK256 SLOAD SWAP7 DUP4 DUP9 AND PUSH1 0xF SIGNEXTEND PUSH2 0x322D JUMP JUMPDEST SWAP3 DUP7 PUSH1 0x80 SAR PUSH2 0x322D JUMP JUMPDEST DUP2 NOT SWAP1 PUSH1 0x80 SHL AND SWAP2 AND OR SWAP3 DUP4 SUB PUSH2 0x406D JUMPI POP POP POP JUMP JUMPDEST PUSH0 MSTORE PUSH1 0x20 MSTORE PUSH1 0x40 PUSH0 KECCAK256 SSTORE JUMP JUMPDEST SWAP2 SWAP1 DUP3 PUSH1 0x40 SWAP2 SUB SLT PUSH2 0x20F JUMPI PUSH1 0x20 DUP3 MLOAD SWAP3 ADD MLOAD SWAP1 JUMP JUMPDEST SWAP2 SWAP4 SWAP3 PUSH1 0x1 PUSH1 0x1 PUSH1 0x80 SHL SUB SWAP1 DUP2 PUSH2 0x40B0 PUSH1 0x40 SWAP5 PUSH1 0x60 DUP8 MSTORE PUSH1 0x60 DUP8 ADD SWAP1 PUSH2 0x3AA9 JUMP JUMPDEST SWAP7 AND PUSH1 0x20 DUP6 ADD MSTORE AND SWAP2 ADD MSTORE JUMP JUMPDEST PUSH2 0x4161 SWAP9 SWAP4 PUSH0 SWAP3 PUSH2 0x4133 PUSH1 0x40 SWAP9 SWAP11 SWAP8 SWAP10 SWAP6 PUSH2 0x4124 PUSH2 0x40D9 PUSH2 0x1D1D JUMP JUMPDEST SWAP4 DUP14 PUSH2 0x40E4 DUP7 PUSH2 0x1D85 JUMP JUMPDEST MSTORE PUSH2 0x40FA PUSH2 0x40F0 PUSH2 0x1D1D JUMP JUMPDEST SWAP7 PUSH2 0x1A67 DUP9 PUSH2 0x1D85 JUMP JUMPDEST PUSH2 0x4114 PUSH2 0x4105 PUSH2 0x314 JUMP JUMPDEST PUSH1 0x1 PUSH1 0x1 PUSH1 0xA0 SHL SUB SWAP1 SWAP9 AND DUP9 MSTORE JUMP JUMPDEST PUSH1 0x1 PUSH1 0x1 PUSH1 0xA0 SHL SUB AND PUSH1 0x20 DUP8 ADD MSTORE JUMP JUMPDEST PUSH1 0x1 PUSH1 0x1 PUSH1 0xA0 SHL SUB AND DUP5 DUP11 ADD MSTORE JUMP JUMPDEST PUSH1 0x60 DUP4 ADD MSTORE DUP8 ISZERO ISZERO PUSH1 0x80 DUP4 ADD MSTORE PUSH1 0xA0 DUP3 ADD MSTORE DUP6 MLOAD PUSH4 0x60A80DBB PUSH1 0xE0 SHL DUP2 MSTORE SWAP9 DUP10 SWAP6 DUP7 SWAP5 DUP6 SWAP4 PUSH1 0x4 DUP6 ADD PUSH2 0x408F JUMP JUMPDEST SUB SWAP3 PUSH1 0x1 PUSH1 0x1 PUSH1 0xA0 SHL SUB AND GAS CALL SWAP3 DUP4 ISZERO PUSH2 0xEB4 JUMPI PUSH0 SWAP4 PUSH2 0x41C4 JUMPI JUMPDEST POP DUP3 ISZERO PUSH2 0x4188 JUMPI POP POP SWAP1 JUMP JUMPDEST SWAP1 SWAP2 POP ISZERO PUSH2 0x41AA JUMPI PUSH2 0x419C PUSH2 0x3C0 SWAP2 PUSH2 0x2A3C JUMP JUMPDEST PUSH8 0xDE0B6B3A7640000 SWAP1 DIV SWAP1 JUMP JUMPDEST PUSH2 0x41B6 PUSH2 0x3C0 SWAP2 PUSH2 0x2A18 JUMP JUMPDEST PUSH8 0x120A871CC0020000 SWAP1 DIV SWAP1 JUMP JUMPDEST PUSH2 0x41E7 SWAP2 SWAP4 POP PUSH1 0x40 RETURNDATASIZE PUSH1 0x40 GT PUSH2 0x41EF JUMPI JUMPDEST PUSH2 0x41DF DUP2 DUP4 PUSH2 0x2F3 JUMP JUMPDEST DUP2 ADD SWAP1 PUSH2 0x4079 JUMP JUMPDEST POP SWAP2 PUSH0 PUSH2 0x417C JUMP JUMPDEST POP RETURNDATASIZE PUSH2 0x41D5 JUMP INVALID SHL RETURNDATASIZE PUSH31 0xDB2E9C0B0E7C525B20AAAEF0F5940D2ED71663C7D39266ECAFAC728859A264 PUSH10 0x7066735822122023D7B9 SWAP9 EXTSTATICCALL 0xD5 0x27 0xD6 ORIGIN SWAP8 0xDC CODECOPY 0xCC DUP7 0xB8 RETURNDATASIZE JUMP DUP12 CALLDATALOAD RETURNCONTRACT 0x7B PC 0xB1 GT PUSH20 0xB5B1C99B9345D064736F6C634300081E00330000 "},"methodIdentifiers":{"addAlphaMarketAddress(uint8,address)":"460c6df8","addBetaMarketAddress(uint8,address)":"7dc27c95","addLiquidity(address,address,address,bytes3,uint256,uint256)":"e513315b","allowance(address,address,uint256)":"598af9e7","approve(address,uint256,uint256)":"426a8493","balanceOf(address,uint256)":"00fdd58e","batchSwap((address,address,address,bytes3[],uint256[],bool)[],uint256,uint256)":"9d2ec6e4","createPool(address,address,address,bytes3)":"5670f55a","defaultAlpha()":"a1a44dad","defaultBeta()":"19920a5f","flashSession(address,bytes,address[])":"5dfb78af","flashSessionWithReturn(address,bytes,address[])":"ea157acf","getAlphaMarketAddress(uint8)":"d2615fc8","getBetaMarketAddress(uint8)":"83e66c2e","getInventory(uint256)":"5b298d32","getPoolInfo(uint256)":"2f380b35","getQuote((address,address,address,uint256[],bool,bytes3[]),uint128,uint128)":"60a80dbb","getQuoteBatch((address,address,address,uint256[],bool,bytes3[]),uint128[],uint128[])":"04f71ef6","getUserDeltas(address,address[])":"314e2321","isOperator(address,address)":"b6363cf2","removeAlphaMarketAddress(uint8)":"8e832e08","removeBetaMarketAddress(uint8)":"61408f26","removeLiquidity(address,address,address,bytes3,uint256)":"cb1f2f38","routerGetQuote((address,address,address,uint256[],bool,bytes3[]),uint128,uint128)":"8f155291","routerGetQuoteBatch((address,address,address,uint256[],bool,bytes3[]),uint128[],uint128[])":"c279171d","setOperator(address,bool)":"558a7297","supportsInterface(bytes4)":"01ffc9a7","swap(address,address,address,bytes3,uint256,bool,uint256)":"d92bc84c","totalLiquidity(uint256)":"b5e60c3c","transfer(address,uint256,uint256)":"095bcdb6","transferFrom(address,address,uint256,uint256)":"fe99049a"}}}}}