{"contracts/Peripheral/DataBridges/real/SushiV2DataBridge.sol":{"SushiV2DataBridge":{"abi":[{"inputs":[{"internalType":"address","name":"_pair","type":"address"}],"stateMutability":"nonpayable","type":"constructor"},{"inputs":[{"components":[{"internalType":"address","name":"asset0","type":"address"},{"internalType":"address","name":"asset1","type":"address"},{"internalType":"address","name":"quoter","type":"address"},{"internalType":"uint256","name":"amount","type":"uint256"},{"internalType":"uint128","name":"asset0Balance","type":"uint128"},{"internalType":"uint128","name":"asset1Balance","type":"uint128"},{"internalType":"uint16","name":"bucketID","type":"uint16"},{"internalType":"bool","name":"zeroForOne","type":"bool"}],"internalType":"struct QuoteParams","name":"params","type":"tuple"}],"name":"getData","outputs":[{"internalType":"bytes","name":"","type":"bytes"}],"stateMutability":"view","type":"function"},{"inputs":[],"name":"pair","outputs":[{"internalType":"address","name":"","type":"address"}],"stateMutability":"view","type":"function"}],"evm":{"bytecode":{"linkReferences":{},"object":"60a034606c57601f6105c838819003918201601f19168301916001600160401b03831184841017607057808492602094604052833981010312606c57516001600160a01b0381168103606c5760805260405161054390816100858239608051818181604701526101590152f35b5f80fd5b634e487b7160e01b5f52604160045260245ffdfe6080806040526004361015610012575f80fd5b5f3560e01c9081633bd1104b1461007a575063a8aa1b3114610032575f80fd5b34610076575f366003190112610076576040517f00000000000000000000000000000000000000000000000000000000000000006001600160a01b03168152602090f35b5f80fd5b346100765761010036600319011261007657610100810181811067ffffffffffffffff8211176102e4576040526004356001600160a01b03811681036100765781526024356001600160a01b038116810361007657602082019081526044356001600160a01b038116810361007657604083015260643560608301526084356001600160801b038116810361007657608083015260a4356001600160801b03811681036100765760a083015260c43561ffff811681036100765760c083015260e43580151581036100765760e0830152604051630240bc6b60e21b81527f00000000000000000000000000000000000000000000000000000000000000006001600160a01b0316606082600481845afa9182156103e4575f905f93610459575b506001600160701b0316801592831580610447575b1561041157604051630dfe168160e01b815293602085600481875afa9384156103e4576004955f956103ef575b506020906040519687809263d21220a760e01b82525afa9485156103e4575f956103b3575b50670de0b6b3a76400008302928304670de0b6b3a764000014171561039f576001600160701b031690811561032c5794519404936001600160a01b039182169291169082821480610389575b156102f857505050505b604051906040820182811067ffffffffffffffff8211176102e45760405280825260208201526040516020810191825f905b600282106102ce57846040858181526102a36060826104b8565b8151928391602083525180918160208501528484015e5f828201840152601f01601f19168101030190f35b6020806001928551815201930191019091610289565b634e487b7160e01b5f52604160045260245ffd5b6001600160a01b0316149182610375575b50501561034057801561032c576ec097ce7bc90715b34b9f100000000004610257565b634e487b7160e01b5f52601260045260245ffd5b60405162461bcd60e51b815260206004820152600d60248201526c0e0c2d2e440dad2e6dac2e8c6d609b1b6044820152606490fd5b516001600160a01b03161490508280610309565b5083516001600160a01b0382811691161461024d565b634e487b7160e01b5f52601160045260245ffd5b6103d691955060203d6020116103dd575b6103ce81836104b8565b8101906104ee565b9387610201565b503d6103c4565b6040513d5f823e3d90fd5b602091955061040a90823d84116103dd576103ce81836104b8565b94906101dc565b60405162461bcd60e51b815260206004820152600e60248201526d656d70747920726573657276657360901b6044820152606490fd5b506001600160701b03811615156101af565b9250506060823d6060116104b0575b81610475606093836104b8565b8101031261007657610486826104da565b6040610494602085016104da565b93015163ffffffff811603610076576001600160701b0361019a565b3d9150610468565b90601f8019910116810190811067ffffffffffffffff8211176102e457604052565b51906001600160701b038216820361007657565b9081602091031261007657516001600160a01b0381168103610076579056fea2646970667358221220c1d126f18d2bf412d2154e8e2c442192c512e332178e3092b1d097c0165ff3b564736f6c634300081e0033","opcodes":"PUSH1 0xA0 CALLVALUE PUSH1 0x6C JUMPI PUSH1 0x1F PUSH2 0x5C8 CODESIZE DUP2 SWAP1 SUB SWAP2 DUP3 ADD PUSH1 0x1F NOT AND DUP4 ADD SWAP2 PUSH1 0x1 PUSH1 0x1 PUSH1 0x40 SHL SUB DUP4 GT DUP5 DUP5 LT OR PUSH1 0x70 JUMPI DUP1 DUP5 SWAP3 PUSH1 0x20 SWAP5 PUSH1 0x40 MSTORE DUP4 CODECOPY DUP2 ADD SUB SLT PUSH1 0x6C JUMPI MLOAD PUSH1 0x1 PUSH1 0x1 PUSH1 0xA0 SHL SUB DUP2 AND DUP2 SUB PUSH1 0x6C JUMPI PUSH1 0x80 MSTORE PUSH1 0x40 MLOAD PUSH2 0x543 SWAP1 DUP2 PUSH2 0x85 DUP3 CODECOPY PUSH1 0x80 MLOAD DUP2 DUP2 DUP2 PUSH1 0x47 ADD MSTORE PUSH2 0x159 ADD MSTORE RETURN JUMPDEST PUSH0 DUP1 REVERT JUMPDEST PUSH4 0x4E487B71 PUSH1 0xE0 SHL PUSH0 MSTORE PUSH1 0x41 PUSH1 0x4 MSTORE PUSH1 0x24 PUSH0 REVERT INVALID PUSH1 0x80 DUP1 PUSH1 0x40 MSTORE PUSH1 0x4 CALLDATASIZE LT ISZERO PUSH2 0x12 JUMPI PUSH0 DUP1 REVERT JUMPDEST PUSH0 CALLDATALOAD PUSH1 0xE0 SHR SWAP1 DUP2 PUSH4 0x3BD1104B EQ PUSH2 0x7A JUMPI POP PUSH4 0xA8AA1B31 EQ PUSH2 0x32 JUMPI PUSH0 DUP1 REVERT JUMPDEST CALLVALUE PUSH2 0x76 JUMPI PUSH0 CALLDATASIZE PUSH1 0x3 NOT ADD SLT PUSH2 0x76 JUMPI PUSH1 0x40 MLOAD PUSH32 0x0 PUSH1 0x1 PUSH1 0x1 PUSH1 0xA0 SHL SUB AND DUP2 MSTORE PUSH1 0x20 SWAP1 RETURN JUMPDEST PUSH0 DUP1 REVERT JUMPDEST CALLVALUE PUSH2 0x76 JUMPI PUSH2 0x100 CALLDATASIZE PUSH1 0x3 NOT ADD SLT PUSH2 0x76 JUMPI PUSH2 0x100 DUP2 ADD DUP2 DUP2 LT PUSH8 0xFFFFFFFFFFFFFFFF DUP3 GT OR PUSH2 0x2E4 JUMPI PUSH1 0x40 MSTORE PUSH1 0x4 CALLDATALOAD PUSH1 0x1 PUSH1 0x1 PUSH1 0xA0 SHL SUB DUP2 AND DUP2 SUB PUSH2 0x76 JUMPI DUP2 MSTORE PUSH1 0x24 CALLDATALOAD PUSH1 0x1 PUSH1 0x1 PUSH1 0xA0 SHL SUB DUP2 AND DUP2 SUB PUSH2 0x76 JUMPI PUSH1 0x20 DUP3 ADD SWAP1 DUP2 MSTORE PUSH1 0x44 CALLDATALOAD PUSH1 0x1 PUSH1 0x1 PUSH1 0xA0 SHL SUB DUP2 AND DUP2 SUB PUSH2 0x76 JUMPI PUSH1 0x40 DUP4 ADD MSTORE PUSH1 0x64 CALLDATALOAD PUSH1 0x60 DUP4 ADD MSTORE PUSH1 0x84 CALLDATALOAD PUSH1 0x1 PUSH1 0x1 PUSH1 0x80 SHL SUB DUP2 AND DUP2 SUB PUSH2 0x76 JUMPI PUSH1 0x80 DUP4 ADD MSTORE PUSH1 0xA4 CALLDATALOAD PUSH1 0x1 PUSH1 0x1 PUSH1 0x80 SHL SUB DUP2 AND DUP2 SUB PUSH2 0x76 JUMPI PUSH1 0xA0 DUP4 ADD MSTORE PUSH1 0xC4 CALLDATALOAD PUSH2 0xFFFF DUP2 AND DUP2 SUB PUSH2 0x76 JUMPI PUSH1 0xC0 DUP4 ADD MSTORE PUSH1 0xE4 CALLDATALOAD DUP1 ISZERO ISZERO DUP2 SUB PUSH2 0x76 JUMPI PUSH1 0xE0 DUP4 ADD MSTORE PUSH1 0x40 MLOAD PUSH4 0x240BC6B PUSH1 0xE2 SHL DUP2 MSTORE PUSH32 0x0 PUSH1 0x1 PUSH1 0x1 PUSH1 0xA0 SHL SUB AND PUSH1 0x60 DUP3 PUSH1 0x4 DUP2 DUP5 GAS STATICCALL SWAP2 DUP3 ISZERO PUSH2 0x3E4 JUMPI PUSH0 SWAP1 PUSH0 SWAP4 PUSH2 0x459 JUMPI JUMPDEST POP PUSH1 0x1 PUSH1 0x1 PUSH1 0x70 SHL SUB AND DUP1 ISZERO SWAP3 DUP4 ISZERO DUP1 PUSH2 0x447 JUMPI JUMPDEST ISZERO PUSH2 0x411 JUMPI PUSH1 0x40 MLOAD PUSH4 0xDFE1681 PUSH1 0xE0 SHL DUP2 MSTORE SWAP4 PUSH1 0x20 DUP6 PUSH1 0x4 DUP2 DUP8 GAS STATICCALL SWAP4 DUP5 ISZERO PUSH2 0x3E4 JUMPI PUSH1 0x4 SWAP6 PUSH0 SWAP6 PUSH2 0x3EF JUMPI JUMPDEST POP PUSH1 0x20 SWAP1 PUSH1 0x40 MLOAD SWAP7 DUP8 DUP1 SWAP3 PUSH4 0xD21220A7 PUSH1 0xE0 SHL DUP3 MSTORE GAS STATICCALL SWAP5 DUP6 ISZERO PUSH2 0x3E4 JUMPI PUSH0 SWAP6 PUSH2 0x3B3 JUMPI JUMPDEST POP PUSH8 0xDE0B6B3A7640000 DUP4 MUL SWAP3 DUP4 DIV PUSH8 0xDE0B6B3A7640000 EQ OR ISZERO PUSH2 0x39F JUMPI PUSH1 0x1 PUSH1 0x1 PUSH1 0x70 SHL SUB AND SWAP1 DUP2 ISZERO PUSH2 0x32C JUMPI SWAP5 MLOAD SWAP5 DIV SWAP4 PUSH1 0x1 PUSH1 0x1 PUSH1 0xA0 SHL SUB SWAP2 DUP3 AND SWAP3 SWAP2 AND SWAP1 DUP3 DUP3 EQ DUP1 PUSH2 0x389 JUMPI JUMPDEST ISZERO PUSH2 0x2F8 JUMPI POP POP POP POP JUMPDEST PUSH1 0x40 MLOAD SWAP1 PUSH1 0x40 DUP3 ADD DUP3 DUP2 LT PUSH8 0xFFFFFFFFFFFFFFFF DUP3 GT OR PUSH2 0x2E4 JUMPI PUSH1 0x40 MSTORE DUP1 DUP3 MSTORE PUSH1 0x20 DUP3 ADD MSTORE PUSH1 0x40 MLOAD PUSH1 0x20 DUP2 ADD SWAP2 DUP3 PUSH0 SWAP1 JUMPDEST PUSH1 0x2 DUP3 LT PUSH2 0x2CE JUMPI DUP5 PUSH1 0x40 DUP6 DUP2 DUP2 MSTORE PUSH2 0x2A3 PUSH1 0x60 DUP3 PUSH2 0x4B8 JUMP JUMPDEST DUP2 MLOAD SWAP3 DUP4 SWAP2 PUSH1 0x20 DUP4 MSTORE MLOAD DUP1 SWAP2 DUP2 PUSH1 0x20 DUP6 ADD MSTORE DUP5 DUP5 ADD MCOPY PUSH0 DUP3 DUP3 ADD DUP5 ADD MSTORE PUSH1 0x1F ADD PUSH1 0x1F NOT AND DUP2 ADD SUB ADD SWAP1 RETURN JUMPDEST PUSH1 0x20 DUP1 PUSH1 0x1 SWAP3 DUP6 MLOAD DUP2 MSTORE ADD SWAP4 ADD SWAP2 ADD SWAP1 SWAP2 PUSH2 0x289 JUMP JUMPDEST PUSH4 0x4E487B71 PUSH1 0xE0 SHL PUSH0 MSTORE PUSH1 0x41 PUSH1 0x4 MSTORE PUSH1 0x24 PUSH0 REVERT JUMPDEST PUSH1 0x1 PUSH1 0x1 PUSH1 0xA0 SHL SUB AND EQ SWAP2 DUP3 PUSH2 0x375 JUMPI JUMPDEST POP POP ISZERO PUSH2 0x340 JUMPI DUP1 ISZERO PUSH2 0x32C JUMPI PUSH15 0xC097CE7BC90715B34B9F1000000000 DIV PUSH2 0x257 JUMP JUMPDEST PUSH4 0x4E487B71 PUSH1 0xE0 SHL PUSH0 MSTORE PUSH1 0x12 PUSH1 0x4 MSTORE PUSH1 0x24 PUSH0 REVERT JUMPDEST PUSH1 0x40 MLOAD PUSH3 0x461BCD PUSH1 0xE5 SHL DUP2 MSTORE PUSH1 0x20 PUSH1 0x4 DUP3 ADD MSTORE PUSH1 0xD PUSH1 0x24 DUP3 ADD MSTORE PUSH13 0xE0C2D2E440DAD2E6DAC2E8C6D PUSH1 0x9B SHL PUSH1 0x44 DUP3 ADD MSTORE PUSH1 0x64 SWAP1 REVERT JUMPDEST MLOAD PUSH1 0x1 PUSH1 0x1 PUSH1 0xA0 SHL SUB AND EQ SWAP1 POP DUP3 DUP1 PUSH2 0x309 JUMP JUMPDEST POP DUP4 MLOAD PUSH1 0x1 PUSH1 0x1 PUSH1 0xA0 SHL SUB DUP3 DUP2 AND SWAP2 AND EQ PUSH2 0x24D JUMP JUMPDEST PUSH4 0x4E487B71 PUSH1 0xE0 SHL PUSH0 MSTORE PUSH1 0x11 PUSH1 0x4 MSTORE PUSH1 0x24 PUSH0 REVERT JUMPDEST PUSH2 0x3D6 SWAP2 SWAP6 POP PUSH1 0x20 RETURNDATASIZE PUSH1 0x20 GT PUSH2 0x3DD JUMPI JUMPDEST PUSH2 0x3CE DUP2 DUP4 PUSH2 0x4B8 JUMP JUMPDEST DUP2 ADD SWAP1 PUSH2 0x4EE JUMP JUMPDEST SWAP4 DUP8 PUSH2 0x201 JUMP JUMPDEST POP RETURNDATASIZE PUSH2 0x3C4 JUMP JUMPDEST PUSH1 0x40 MLOAD RETURNDATASIZE PUSH0 DUP3 RETURNDATACOPY RETURNDATASIZE SWAP1 REVERT JUMPDEST PUSH1 0x20 SWAP2 SWAP6 POP PUSH2 0x40A SWAP1 DUP3 RETURNDATASIZE DUP5 GT PUSH2 0x3DD JUMPI PUSH2 0x3CE DUP2 DUP4 PUSH2 0x4B8 JUMP JUMPDEST SWAP5 SWAP1 PUSH2 0x1DC JUMP JUMPDEST PUSH1 0x40 MLOAD PUSH3 0x461BCD PUSH1 0xE5 SHL DUP2 MSTORE PUSH1 0x20 PUSH1 0x4 DUP3 ADD MSTORE PUSH1 0xE PUSH1 0x24 DUP3 ADD MSTORE PUSH14 0x656D707479207265736572766573 PUSH1 0x90 SHL PUSH1 0x44 DUP3 ADD MSTORE PUSH1 0x64 SWAP1 REVERT JUMPDEST POP PUSH1 0x1 PUSH1 0x1 PUSH1 0x70 SHL SUB DUP2 AND ISZERO ISZERO PUSH2 0x1AF JUMP JUMPDEST SWAP3 POP POP PUSH1 0x60 DUP3 RETURNDATASIZE PUSH1 0x60 GT PUSH2 0x4B0 JUMPI JUMPDEST DUP2 PUSH2 0x475 PUSH1 0x60 SWAP4 DUP4 PUSH2 0x4B8 JUMP JUMPDEST DUP2 ADD SUB SLT PUSH2 0x76 JUMPI PUSH2 0x486 DUP3 PUSH2 0x4DA JUMP JUMPDEST PUSH1 0x40 PUSH2 0x494 PUSH1 0x20 DUP6 ADD PUSH2 0x4DA JUMP JUMPDEST SWAP4 ADD MLOAD PUSH4 0xFFFFFFFF DUP2 AND SUB PUSH2 0x76 JUMPI PUSH1 0x1 PUSH1 0x1 PUSH1 0x70 SHL SUB PUSH2 0x19A JUMP JUMPDEST RETURNDATASIZE SWAP2 POP PUSH2 0x468 JUMP JUMPDEST SWAP1 PUSH1 0x1F DUP1 NOT SWAP2 ADD AND DUP2 ADD SWAP1 DUP2 LT PUSH8 0xFFFFFFFFFFFFFFFF DUP3 GT OR PUSH2 0x2E4 JUMPI PUSH1 0x40 MSTORE JUMP JUMPDEST MLOAD SWAP1 PUSH1 0x1 PUSH1 0x1 PUSH1 0x70 SHL SUB DUP3 AND DUP3 SUB PUSH2 0x76 JUMPI JUMP JUMPDEST SWAP1 DUP2 PUSH1 0x20 SWAP2 SUB SLT PUSH2 0x76 JUMPI MLOAD PUSH1 0x1 PUSH1 0x1 PUSH1 0xA0 SHL SUB DUP2 AND DUP2 SUB PUSH2 0x76 JUMPI SWAP1 JUMP INVALID LOG2 PUSH5 0x6970667358 0x22 SLT KECCAK256 0xC1 DATALOADN 0x26F1 DUP14 0x2B DELEGATECALL SLT 0xD2 ISZERO 0x4E DUP15 0x2C PREVRANDAO 0x21 SWAP3 0xC5 SLT CALLF 0x3217 DUP15 ADDRESS SWAP3 0xB1 0xD0 SWAP8 0xC0 AND PUSH0 RETURN 0xB5 PUSH5 0x736F6C6343 STOP ADDMOD 0x1E STOP CALLER "},"methodIdentifiers":{"getData((address,address,address,uint256,uint128,uint128,uint16,bool))":"3bd1104b","pair()":"a8aa1b31"}}}}}