{"contracts/Peripheral/DataBridges/real/UniswapV3DataBridge.sol":{"UniswapV3DataBridge":{"abi":[{"inputs":[{"internalType":"address","name":"_pool","type":"address"},{"internalType":"uint24","name":"_window","type":"uint24"},{"internalType":"address","name":"_ext0","type":"address"},{"internalType":"address","name":"_ext1","type":"address"},{"internalType":"address","name":"_alias0","type":"address"},{"internalType":"address","name":"_alias1","type":"address"}],"stateMutability":"nonpayable","type":"constructor"},{"inputs":[],"name":"canonicalExt0","outputs":[{"internalType":"address","name":"","type":"address"}],"stateMutability":"view","type":"function"},{"inputs":[],"name":"canonicalExt1","outputs":[{"internalType":"address","name":"","type":"address"}],"stateMutability":"view","type":"function"},{"inputs":[{"components":[{"internalType":"address","name":"asset0","type":"address"},{"internalType":"address","name":"asset1","type":"address"},{"internalType":"address","name":"quoter","type":"address"},{"internalType":"uint256","name":"amount","type":"uint256"},{"internalType":"uint128","name":"asset0Balance","type":"uint128"},{"internalType":"uint128","name":"asset1Balance","type":"uint128"},{"internalType":"uint16","name":"bucketID","type":"uint16"},{"internalType":"bool","name":"zeroForOne","type":"bool"}],"internalType":"struct QuoteParams","name":"params","type":"tuple"}],"name":"getData","outputs":[{"internalType":"bytes","name":"","type":"bytes"}],"stateMutability":"view","type":"function"},{"inputs":[],"name":"internalAlias0","outputs":[{"internalType":"address","name":"","type":"address"}],"stateMutability":"view","type":"function"},{"inputs":[],"name":"internalAlias1","outputs":[{"internalType":"address","name":"","type":"address"}],"stateMutability":"view","type":"function"},{"inputs":[],"name":"pool","outputs":[{"internalType":"address","name":"","type":"address"}],"stateMutability":"view","type":"function"},{"inputs":[],"name":"twapWindow","outputs":[{"internalType":"uint24","name":"","type":"uint24"}],"stateMutability":"view","type":"function"}],"evm":{"bytecode":{"linkReferences":{},"object":"6101403461013157601f610a1938819003918201601f19168301916001600160401b038311848410176101355780849260c0946040528339810103126101315761004881610149565b9060208101519162ffffff8316918284036101315761006960408201610149565b9061007660608201610149565b61008e60a061008760808501610149565b9301610149565b9260805260a05260c05260e05261010052155f1461012c5750612a305b610120526040516108bb908161015e823960805181818160c6015261073b015260a05181818161014e01528181610773015261080e015260c051818181607e01526106d4015260e05181818161010a01528181610703015261085d0152610100518181816102a2015261063a01526101205181818161019801526103430152f35b6100ab565b5f80fd5b634e487b7160e01b5f52604160045260245ffd5b51906001600160a01b03821682036101315756fe6080806040526004361015610012575f80fd5b5f3560e01c90816316f0115b14610628575080633bd1104b146101bc5780638107e1331461017d578063a6b1282314610139578063b24a485b146100f5578063cd852366146100b15763dd82b27514610069575f80fd5b346100ad575f3660031901126100ad576040517f00000000000000000000000000000000000000000000000000000000000000006001600160a01b03168152602090f35b5f80fd5b346100ad575f3660031901126100ad576040517f00000000000000000000000000000000000000000000000000000000000000006001600160a01b03168152602090f35b346100ad575f3660031901126100ad576040517f00000000000000000000000000000000000000000000000000000000000000006001600160a01b03168152602090f35b346100ad575f3660031901126100ad576040517f00000000000000000000000000000000000000000000000000000000000000006001600160a01b03168152602090f35b346100ad575f3660031901126100ad57602060405162ffffff7f0000000000000000000000000000000000000000000000000000000000000000168152f35b346100ad576101003660031901126100ad57604051610100810181811067ffffffffffffffff821117610614576040526004356001600160a01b03811681036100ad5781526024356001600160a01b03811681036100ad57602082019081526044356001600160a01b03811681036100ad57604083015260643560608301526084356001600160801b03811681036100ad57608083015260a4356001600160801b03811681036100ad5760a083015260c43561ffff811681036100ad5760c083015260e43580151581036100ad5760e083810191909152604051633850c7bd60e01b81527f00000000000000000000000000000000000000000000000000000000000000006001600160a01b031692909182600481865afa918215610512575f92610582575b50925192516001600160a01b039182168002606090811c670de0b6b3a764000002901c936103149291821691166106c6565b15610550575b60405190610329606083610669565b6002825260208201604036823782511561053c5762ffffff7f000000000000000000000000000000000000000000000000000000000000000016815282516001101561053c575f60408085018290525163883bdbfd60e01b815260206004820152935160248501819052849260448401929091905b81811061051d575050509181805f9403915afa801561051257610406575b50604080516020810192808452828201528181526103db606082610669565b8151928391602083525180918160208501528484015e5f828201840152601f01601f19168101030190f35b3d805f833e6104158183610669565b8101906040818303126100ad57805167ffffffffffffffff81116100ad57810182601f820112156100ad5780519060208061044f846106ae565b61045c6040519182610669565b848152019260051b820101908482116100ad57602001915b8183106104f85750505060208101519067ffffffffffffffff82116100ad570181601f820112156100ad578051906020806104ae846106ae565b6104bb6040519182610669565b848152019260051b8201019283116100ad57602001905b8282106104e05750506103bc565b602080916104ed8461068b565b8152019101906104d2565b82518060060b81036100ad57815260209283019201610474565b6040513d5f823e3d90fd5b825163ffffffff1684528694506020938401939092019160010161039e565b634e487b7160e01b5f52603260045260245ffd5b90801561056e576ec097ce7bc90715b34b9f1000000000049061031a565b634e487b7160e01b5f52601260045260245ffd5b915060e0823d60e01161060c575b8161059d60e09383610669565b810103126100ad576105ae8261068b565b9160208101518060020b036100ad576105c96040820161069f565b506105d66060820161069f565b506105e36080820161069f565b5060a081015160ff8116036100ad5760c00151801515036100ad57670de0b6b3a76400006102e2565b3d9150610590565b634e487b7160e01b5f52604160045260245ffd5b346100ad575f3660031901126100ad577f00000000000000000000000000000000000000000000000000000000000000006001600160a01b03168152602090f35b90601f8019910116810190811067ffffffffffffffff82111761061457604052565b51906001600160a01b03821682036100ad57565b519061ffff821682036100ad57565b67ffffffffffffffff81116106145760051b60200190565b6001600160a01b03908116907f0000000000000000000000000000000000000000000000000000000000000000168181148061084f575b6107f8577f00000000000000000000000000000000000000000000000000000000000000006001600160a01b03168214908161083c575b50610836577f00000000000000000000000000000000000000000000000000000000000000006001600160a01b03169080821480610800575b6107f8577f00000000000000000000000000000000000000000000000000000000000000006001600160a01b03161491826107e5575b50506107e15760405162461bcd60e51b815260206004820152601060248201526f3ab739bab83837b93a32b2103830b4b960811b6044820152606490fd5b5f90565b6001600160a01b03161490505f806107a3565b505050600190565b506001600160a01b038381167f00000000000000000000000000000000000000000000000000000000000000009091161461076d565b50505f90565b6001600160a01b0384161490505f610734565b506001600160a01b038381167f0000000000000000000000000000000000000000000000000000000000000000909116146106fd56fea2646970667358221220d9eeb3eca613bf01ad01e23e3cbcb6cc84173f58d099d7e5ea8196ee93caa6dd64736f6c634300081e0033","opcodes":"PUSH2 0x140 CALLVALUE PUSH2 0x131 JUMPI PUSH1 0x1F PUSH2 0xA19 CODESIZE DUP2 SWAP1 SUB SWAP2 DUP3 ADD PUSH1 0x1F NOT AND DUP4 ADD SWAP2 PUSH1 0x1 PUSH1 0x1 PUSH1 0x40 SHL SUB DUP4 GT DUP5 DUP5 LT OR PUSH2 0x135 JUMPI DUP1 DUP5 SWAP3 PUSH1 0xC0 SWAP5 PUSH1 0x40 MSTORE DUP4 CODECOPY DUP2 ADD SUB SLT PUSH2 0x131 JUMPI PUSH2 0x48 DUP2 PUSH2 0x149 JUMP JUMPDEST SWAP1 PUSH1 0x20 DUP2 ADD MLOAD SWAP2 PUSH3 0xFFFFFF DUP4 AND SWAP2 DUP3 DUP5 SUB PUSH2 0x131 JUMPI PUSH2 0x69 PUSH1 0x40 DUP3 ADD PUSH2 0x149 JUMP JUMPDEST SWAP1 PUSH2 0x76 PUSH1 0x60 DUP3 ADD PUSH2 0x149 JUMP JUMPDEST PUSH2 0x8E PUSH1 0xA0 PUSH2 0x87 PUSH1 0x80 DUP6 ADD PUSH2 0x149 JUMP JUMPDEST SWAP4 ADD PUSH2 0x149 JUMP JUMPDEST SWAP3 PUSH1 0x80 MSTORE PUSH1 0xA0 MSTORE PUSH1 0xC0 MSTORE PUSH1 0xE0 MSTORE PUSH2 0x100 MSTORE ISZERO PUSH0 EQ PUSH2 0x12C JUMPI POP PUSH2 0x2A30 JUMPDEST PUSH2 0x120 MSTORE PUSH1 0x40 MLOAD PUSH2 0x8BB SWAP1 DUP2 PUSH2 0x15E DUP3 CODECOPY PUSH1 0x80 MLOAD DUP2 DUP2 DUP2 PUSH1 0xC6 ADD MSTORE PUSH2 0x73B ADD MSTORE PUSH1 0xA0 MLOAD DUP2 DUP2 DUP2 PUSH2 0x14E ADD MSTORE DUP2 DUP2 PUSH2 0x773 ADD MSTORE PUSH2 0x80E ADD MSTORE PUSH1 0xC0 MLOAD DUP2 DUP2 DUP2 PUSH1 0x7E ADD MSTORE PUSH2 0x6D4 ADD MSTORE PUSH1 0xE0 MLOAD DUP2 DUP2 DUP2 PUSH2 0x10A ADD MSTORE DUP2 DUP2 PUSH2 0x703 ADD MSTORE PUSH2 0x85D ADD MSTORE PUSH2 0x100 MLOAD DUP2 DUP2 DUP2 PUSH2 0x2A2 ADD MSTORE PUSH2 0x63A ADD MSTORE PUSH2 0x120 MLOAD DUP2 DUP2 DUP2 PUSH2 0x198 ADD MSTORE PUSH2 0x343 ADD MSTORE RETURN JUMPDEST PUSH2 0xAB JUMP JUMPDEST PUSH0 DUP1 REVERT JUMPDEST PUSH4 0x4E487B71 PUSH1 0xE0 SHL PUSH0 MSTORE PUSH1 0x41 PUSH1 0x4 MSTORE PUSH1 0x24 PUSH0 REVERT JUMPDEST MLOAD SWAP1 PUSH1 0x1 PUSH1 0x1 PUSH1 0xA0 SHL SUB DUP3 AND DUP3 SUB PUSH2 0x131 JUMPI JUMP INVALID PUSH1 0x80 DUP1 PUSH1 0x40 MSTORE PUSH1 0x4 CALLDATASIZE LT ISZERO PUSH2 0x12 JUMPI PUSH0 DUP1 REVERT JUMPDEST PUSH0 CALLDATALOAD PUSH1 0xE0 SHR SWAP1 DUP2 PUSH4 0x16F0115B EQ PUSH2 0x628 JUMPI POP DUP1 PUSH4 0x3BD1104B EQ PUSH2 0x1BC JUMPI DUP1 PUSH4 0x8107E133 EQ PUSH2 0x17D JUMPI DUP1 PUSH4 0xA6B12823 EQ PUSH2 0x139 JUMPI DUP1 PUSH4 0xB24A485B EQ PUSH2 0xF5 JUMPI DUP1 PUSH4 0xCD852366 EQ PUSH2 0xB1 JUMPI PUSH4 0xDD82B275 EQ PUSH2 0x69 JUMPI PUSH0 DUP1 REVERT JUMPDEST CALLVALUE PUSH2 0xAD JUMPI PUSH0 CALLDATASIZE PUSH1 0x3 NOT ADD SLT PUSH2 0xAD JUMPI PUSH1 0x40 MLOAD PUSH32 0x0 PUSH1 0x1 PUSH1 0x1 PUSH1 0xA0 SHL SUB AND DUP2 MSTORE PUSH1 0x20 SWAP1 RETURN JUMPDEST PUSH0 DUP1 REVERT JUMPDEST CALLVALUE PUSH2 0xAD JUMPI PUSH0 CALLDATASIZE PUSH1 0x3 NOT ADD SLT PUSH2 0xAD JUMPI PUSH1 0x40 MLOAD PUSH32 0x0 PUSH1 0x1 PUSH1 0x1 PUSH1 0xA0 SHL SUB AND DUP2 MSTORE PUSH1 0x20 SWAP1 RETURN JUMPDEST CALLVALUE PUSH2 0xAD JUMPI PUSH0 CALLDATASIZE PUSH1 0x3 NOT ADD SLT PUSH2 0xAD JUMPI PUSH1 0x40 MLOAD PUSH32 0x0 PUSH1 0x1 PUSH1 0x1 PUSH1 0xA0 SHL SUB AND DUP2 MSTORE PUSH1 0x20 SWAP1 RETURN JUMPDEST CALLVALUE PUSH2 0xAD JUMPI PUSH0 CALLDATASIZE PUSH1 0x3 NOT ADD SLT PUSH2 0xAD JUMPI PUSH1 0x40 MLOAD PUSH32 0x0 PUSH1 0x1 PUSH1 0x1 PUSH1 0xA0 SHL SUB AND DUP2 MSTORE PUSH1 0x20 SWAP1 RETURN JUMPDEST CALLVALUE PUSH2 0xAD JUMPI PUSH0 CALLDATASIZE PUSH1 0x3 NOT ADD SLT PUSH2 0xAD JUMPI PUSH1 0x20 PUSH1 0x40 MLOAD PUSH3 0xFFFFFF PUSH32 0x0 AND DUP2 MSTORE RETURN JUMPDEST CALLVALUE PUSH2 0xAD JUMPI PUSH2 0x100 CALLDATASIZE PUSH1 0x3 NOT ADD SLT PUSH2 0xAD JUMPI PUSH1 0x40 MLOAD PUSH2 0x100 DUP2 ADD DUP2 DUP2 LT PUSH8 0xFFFFFFFFFFFFFFFF DUP3 GT OR PUSH2 0x614 JUMPI PUSH1 0x40 MSTORE PUSH1 0x4 CALLDATALOAD PUSH1 0x1 PUSH1 0x1 PUSH1 0xA0 SHL SUB DUP2 AND DUP2 SUB PUSH2 0xAD JUMPI DUP2 MSTORE PUSH1 0x24 CALLDATALOAD PUSH1 0x1 PUSH1 0x1 PUSH1 0xA0 SHL SUB DUP2 AND DUP2 SUB PUSH2 0xAD JUMPI PUSH1 0x20 DUP3 ADD SWAP1 DUP2 MSTORE PUSH1 0x44 CALLDATALOAD PUSH1 0x1 PUSH1 0x1 PUSH1 0xA0 SHL SUB DUP2 AND DUP2 SUB PUSH2 0xAD JUMPI PUSH1 0x40 DUP4 ADD MSTORE PUSH1 0x64 CALLDATALOAD PUSH1 0x60 DUP4 ADD MSTORE PUSH1 0x84 CALLDATALOAD PUSH1 0x1 PUSH1 0x1 PUSH1 0x80 SHL SUB DUP2 AND DUP2 SUB PUSH2 0xAD JUMPI PUSH1 0x80 DUP4 ADD MSTORE PUSH1 0xA4 CALLDATALOAD PUSH1 0x1 PUSH1 0x1 PUSH1 0x80 SHL SUB DUP2 AND DUP2 SUB PUSH2 0xAD JUMPI PUSH1 0xA0 DUP4 ADD MSTORE PUSH1 0xC4 CALLDATALOAD PUSH2 0xFFFF DUP2 AND DUP2 SUB PUSH2 0xAD JUMPI PUSH1 0xC0 DUP4 ADD MSTORE PUSH1 0xE4 CALLDATALOAD DUP1 ISZERO ISZERO DUP2 SUB PUSH2 0xAD JUMPI PUSH1 0xE0 DUP4 DUP2 ADD SWAP2 SWAP1 SWAP2 MSTORE PUSH1 0x40 MLOAD PUSH4 0x3850C7BD PUSH1 0xE0 SHL DUP2 MSTORE PUSH32 0x0 PUSH1 0x1 PUSH1 0x1 PUSH1 0xA0 SHL SUB AND SWAP3 SWAP1 SWAP2 DUP3 PUSH1 0x4 DUP2 DUP7 GAS STATICCALL SWAP2 DUP3 ISZERO PUSH2 0x512 JUMPI PUSH0 SWAP3 PUSH2 0x582 JUMPI JUMPDEST POP SWAP3 MLOAD SWAP3 MLOAD PUSH1 0x1 PUSH1 0x1 PUSH1 0xA0 SHL SUB SWAP2 DUP3 AND DUP1 MUL PUSH1 0x60 SWAP1 DUP2 SHR PUSH8 0xDE0B6B3A7640000 MUL SWAP1 SHR SWAP4 PUSH2 0x314 SWAP3 SWAP2 DUP3 AND SWAP2 AND PUSH2 0x6C6 JUMP JUMPDEST ISZERO PUSH2 0x550 JUMPI JUMPDEST PUSH1 0x40 MLOAD SWAP1 PUSH2 0x329 PUSH1 0x60 DUP4 PUSH2 0x669 JUMP JUMPDEST PUSH1 0x2 DUP3 MSTORE PUSH1 0x20 DUP3 ADD PUSH1 0x40 CALLDATASIZE DUP3 CALLDATACOPY DUP3 MLOAD ISZERO PUSH2 0x53C JUMPI PUSH3 0xFFFFFF PUSH32 0x0 AND DUP2 MSTORE DUP3 MLOAD PUSH1 0x1 LT ISZERO PUSH2 0x53C JUMPI PUSH0 PUSH1 0x40 DUP1 DUP6 ADD DUP3 SWAP1 MSTORE MLOAD PUSH4 0x883BDBFD PUSH1 0xE0 SHL DUP2 MSTORE PUSH1 0x20 PUSH1 0x4 DUP3 ADD MSTORE SWAP4 MLOAD PUSH1 0x24 DUP6 ADD DUP2 SWAP1 MSTORE DUP5 SWAP3 PUSH1 0x44 DUP5 ADD SWAP3 SWAP1 SWAP2 SWAP1 JUMPDEST DUP2 DUP2 LT PUSH2 0x51D JUMPI POP POP POP SWAP2 DUP2 DUP1 PUSH0 SWAP5 SUB SWAP2 GAS STATICCALL DUP1 ISZERO PUSH2 0x512 JUMPI PUSH2 0x406 JUMPI JUMPDEST POP PUSH1 0x40 DUP1 MLOAD PUSH1 0x20 DUP2 ADD SWAP3 DUP1 DUP5 MSTORE DUP3 DUP3 ADD MSTORE DUP2 DUP2 MSTORE PUSH2 0x3DB PUSH1 0x60 DUP3 PUSH2 0x669 JUMP JUMPDEST DUP2 MLOAD SWAP3 DUP4 SWAP2 PUSH1 0x20 DUP4 MSTORE MLOAD DUP1 SWAP2 DUP2 PUSH1 0x20 DUP6 ADD MSTORE DUP5 DUP5 ADD MCOPY PUSH0 DUP3 DUP3 ADD DUP5 ADD MSTORE PUSH1 0x1F ADD PUSH1 0x1F NOT AND DUP2 ADD SUB ADD SWAP1 RETURN JUMPDEST RETURNDATASIZE DUP1 PUSH0 DUP4 RETURNDATACOPY PUSH2 0x415 DUP2 DUP4 PUSH2 0x669 JUMP JUMPDEST DUP2 ADD SWAP1 PUSH1 0x40 DUP2 DUP4 SUB SLT PUSH2 0xAD JUMPI DUP1 MLOAD PUSH8 0xFFFFFFFFFFFFFFFF DUP2 GT PUSH2 0xAD JUMPI DUP2 ADD DUP3 PUSH1 0x1F DUP3 ADD SLT ISZERO PUSH2 0xAD JUMPI DUP1 MLOAD SWAP1 PUSH1 0x20 DUP1 PUSH2 0x44F DUP5 PUSH2 0x6AE JUMP JUMPDEST PUSH2 0x45C PUSH1 0x40 MLOAD SWAP2 DUP3 PUSH2 0x669 JUMP JUMPDEST DUP5 DUP2 MSTORE ADD SWAP3 PUSH1 0x5 SHL DUP3 ADD ADD SWAP1 DUP5 DUP3 GT PUSH2 0xAD JUMPI PUSH1 0x20 ADD SWAP2 JUMPDEST DUP2 DUP4 LT PUSH2 0x4F8 JUMPI POP POP POP PUSH1 0x20 DUP2 ADD MLOAD SWAP1 PUSH8 0xFFFFFFFFFFFFFFFF DUP3 GT PUSH2 0xAD JUMPI ADD DUP2 PUSH1 0x1F DUP3 ADD SLT ISZERO PUSH2 0xAD JUMPI DUP1 MLOAD SWAP1 PUSH1 0x20 DUP1 PUSH2 0x4AE DUP5 PUSH2 0x6AE JUMP JUMPDEST PUSH2 0x4BB PUSH1 0x40 MLOAD SWAP2 DUP3 PUSH2 0x669 JUMP JUMPDEST DUP5 DUP2 MSTORE ADD SWAP3 PUSH1 0x5 SHL DUP3 ADD ADD SWAP3 DUP4 GT PUSH2 0xAD JUMPI PUSH1 0x20 ADD SWAP1 JUMPDEST DUP3 DUP3 LT PUSH2 0x4E0 JUMPI POP POP PUSH2 0x3BC JUMP JUMPDEST PUSH1 0x20 DUP1 SWAP2 PUSH2 0x4ED DUP5 PUSH2 0x68B JUMP JUMPDEST DUP2 MSTORE ADD SWAP2 ADD SWAP1 PUSH2 0x4D2 JUMP JUMPDEST DUP3 MLOAD DUP1 PUSH1 0x6 SIGNEXTEND DUP2 SUB PUSH2 0xAD JUMPI DUP2 MSTORE PUSH1 0x20 SWAP3 DUP4 ADD SWAP3 ADD PUSH2 0x474 JUMP JUMPDEST PUSH1 0x40 MLOAD RETURNDATASIZE PUSH0 DUP3 RETURNDATACOPY RETURNDATASIZE SWAP1 REVERT JUMPDEST DUP3 MLOAD PUSH4 0xFFFFFFFF AND DUP5 MSTORE DUP7 SWAP5 POP PUSH1 0x20 SWAP4 DUP5 ADD SWAP4 SWAP1 SWAP3 ADD SWAP2 PUSH1 0x1 ADD PUSH2 0x39E JUMP JUMPDEST PUSH4 0x4E487B71 PUSH1 0xE0 SHL PUSH0 MSTORE PUSH1 0x32 PUSH1 0x4 MSTORE PUSH1 0x24 PUSH0 REVERT JUMPDEST SWAP1 DUP1 ISZERO PUSH2 0x56E JUMPI PUSH15 0xC097CE7BC90715B34B9F1000000000 DIV SWAP1 PUSH2 0x31A JUMP JUMPDEST PUSH4 0x4E487B71 PUSH1 0xE0 SHL PUSH0 MSTORE PUSH1 0x12 PUSH1 0x4 MSTORE PUSH1 0x24 PUSH0 REVERT JUMPDEST SWAP2 POP PUSH1 0xE0 DUP3 RETURNDATASIZE PUSH1 0xE0 GT PUSH2 0x60C JUMPI JUMPDEST DUP2 PUSH2 0x59D PUSH1 0xE0 SWAP4 DUP4 PUSH2 0x669 JUMP JUMPDEST DUP2 ADD SUB SLT PUSH2 0xAD JUMPI PUSH2 0x5AE DUP3 PUSH2 0x68B JUMP JUMPDEST SWAP2 PUSH1 0x20 DUP2 ADD MLOAD DUP1 PUSH1 0x2 SIGNEXTEND SUB PUSH2 0xAD JUMPI PUSH2 0x5C9 PUSH1 0x40 DUP3 ADD PUSH2 0x69F JUMP JUMPDEST POP PUSH2 0x5D6 PUSH1 0x60 DUP3 ADD PUSH2 0x69F JUMP JUMPDEST POP PUSH2 0x5E3 PUSH1 0x80 DUP3 ADD PUSH2 0x69F JUMP JUMPDEST POP PUSH1 0xA0 DUP2 ADD MLOAD PUSH1 0xFF DUP2 AND SUB PUSH2 0xAD JUMPI PUSH1 0xC0 ADD MLOAD DUP1 ISZERO ISZERO SUB PUSH2 0xAD JUMPI PUSH8 0xDE0B6B3A7640000 PUSH2 0x2E2 JUMP JUMPDEST RETURNDATASIZE SWAP2 POP PUSH2 0x590 JUMP JUMPDEST PUSH4 0x4E487B71 PUSH1 0xE0 SHL PUSH0 MSTORE PUSH1 0x41 PUSH1 0x4 MSTORE PUSH1 0x24 PUSH0 REVERT JUMPDEST CALLVALUE PUSH2 0xAD JUMPI PUSH0 CALLDATASIZE PUSH1 0x3 NOT ADD SLT PUSH2 0xAD JUMPI PUSH32 0x0 PUSH1 0x1 PUSH1 0x1 PUSH1 0xA0 SHL SUB AND DUP2 MSTORE PUSH1 0x20 SWAP1 RETURN JUMPDEST SWAP1 PUSH1 0x1F DUP1 NOT SWAP2 ADD AND DUP2 ADD SWAP1 DUP2 LT PUSH8 0xFFFFFFFFFFFFFFFF DUP3 GT OR PUSH2 0x614 JUMPI PUSH1 0x40 MSTORE JUMP JUMPDEST MLOAD SWAP1 PUSH1 0x1 PUSH1 0x1 PUSH1 0xA0 SHL SUB DUP3 AND DUP3 SUB PUSH2 0xAD JUMPI JUMP JUMPDEST MLOAD SWAP1 PUSH2 0xFFFF DUP3 AND DUP3 SUB PUSH2 0xAD JUMPI JUMP JUMPDEST PUSH8 0xFFFFFFFFFFFFFFFF DUP2 GT PUSH2 0x614 JUMPI PUSH1 0x5 SHL PUSH1 0x20 ADD SWAP1 JUMP JUMPDEST PUSH1 0x1 PUSH1 0x1 PUSH1 0xA0 SHL SUB SWAP1 DUP2 AND SWAP1 PUSH32 0x0 AND DUP2 DUP2 EQ DUP1 PUSH2 0x84F JUMPI JUMPDEST PUSH2 0x7F8 JUMPI PUSH32 0x0 PUSH1 0x1 PUSH1 0x1 PUSH1 0xA0 SHL SUB AND DUP3 EQ SWAP1 DUP2 PUSH2 0x83C JUMPI JUMPDEST POP PUSH2 0x836 JUMPI PUSH32 0x0 PUSH1 0x1 PUSH1 0x1 PUSH1 0xA0 SHL SUB AND SWAP1 DUP1 DUP3 EQ DUP1 PUSH2 0x800 JUMPI JUMPDEST PUSH2 0x7F8 JUMPI PUSH32 0x0 PUSH1 0x1 PUSH1 0x1 PUSH1 0xA0 SHL SUB AND EQ SWAP2 DUP3 PUSH2 0x7E5 JUMPI JUMPDEST POP POP PUSH2 0x7E1 JUMPI PUSH1 0x40 MLOAD PUSH3 0x461BCD PUSH1 0xE5 SHL DUP2 MSTORE PUSH1 0x20 PUSH1 0x4 DUP3 ADD MSTORE PUSH1 0x10 PUSH1 0x24 DUP3 ADD MSTORE PUSH16 0x3AB739BAB83837B93A32B2103830B4B9 PUSH1 0x81 SHL PUSH1 0x44 DUP3 ADD MSTORE PUSH1 0x64 SWAP1 REVERT JUMPDEST PUSH0 SWAP1 JUMP JUMPDEST PUSH1 0x1 PUSH1 0x1 PUSH1 0xA0 SHL SUB AND EQ SWAP1 POP PUSH0 DUP1 PUSH2 0x7A3 JUMP JUMPDEST POP POP POP PUSH1 0x1 SWAP1 JUMP JUMPDEST POP PUSH1 0x1 PUSH1 0x1 PUSH1 0xA0 SHL SUB DUP4 DUP2 AND PUSH32 0x0 SWAP1 SWAP2 AND EQ PUSH2 0x76D JUMP JUMPDEST POP POP PUSH0 SWAP1 JUMP JUMPDEST PUSH1 0x1 PUSH1 0x1 PUSH1 0xA0 SHL SUB DUP5 AND EQ SWAP1 POP PUSH0 PUSH2 0x734 JUMP JUMPDEST POP PUSH1 0x1 PUSH1 0x1 PUSH1 0xA0 SHL SUB DUP4 DUP2 AND PUSH32 0x0 SWAP1 SWAP2 AND EQ PUSH2 0x6FD JUMP INVALID LOG2 PUSH5 0x6970667358 0x22 SLT KECCAK256 0xD9 RETURNCONTRACT 0xB3 EOFCREATE 0xA6 SGT 0xBF ADD 0xAD ADD 0xE2 RETURNDATACOPY EXTCODECOPY 0xBC 0xB6 0xCC DUP5 OR EXTCODEHASH PC 0xD0 SWAP10 0xD7 JUMPF 0xEA81 SWAP7 RETURNCONTRACT 0x93 0xCA 0xA6 0xDD PUSH5 0x736F6C6343 STOP ADDMOD 0x1E STOP CALLER "},"methodIdentifiers":{"canonicalExt0()":"cd852366","canonicalExt1()":"a6b12823","getData((address,address,address,uint256,uint128,uint128,uint16,bool))":"3bd1104b","internalAlias0()":"dd82b275","internalAlias1()":"b24a485b","pool()":"16f0115b","twapWindow()":"8107e133"}}}}}