{"contracts/PoolManager.sol":{"PoolManager":{"abi":[{"inputs":[{"internalType":"address","name":"_defaultAlpha","type":"address"},{"internalType":"address","name":"_defaultBeta","type":"address"}],"stateMutability":"nonpayable","type":"constructor"},{"inputs":[{"internalType":"uint256","name":"required","type":"uint256"},{"internalType":"uint256","name":"available","type":"uint256"}],"name":"PoolManager__InsufficientAsset0","type":"error"},{"inputs":[{"internalType":"uint256","name":"required","type":"uint256"},{"internalType":"uint256","name":"available","type":"uint256"}],"name":"PoolManager__InsufficientAsset1","type":"error"},{"inputs":[],"name":"PoolManager__InsufficientLiquidityMinted","type":"error"},{"inputs":[{"internalType":"uint256","name":"minOut","type":"uint256"},{"internalType":"uint256","name":"actual","type":"uint256"}],"name":"PoolManager__InsufficientOutput","type":"error"},{"inputs":[{"internalType":"uint256","name":"amount0","type":"uint256"},{"internalType":"uint256","name":"amount1","type":"uint256"}],"name":"PoolManager__InsufficientWithdrawal","type":"error"},{"inputs":[],"name":"PoolManager__InvalidQuote","type":"error"},{"inputs":[{"internalType":"uint256","name":"poolID","type":"uint256"}],"name":"PoolManager__PoolAlreadyExists","type":"error"},{"anonymous":false,"inputs":[{"indexed":true,"internalType":"address","name":"owner","type":"address"},{"indexed":true,"internalType":"address","name":"spender","type":"address"},{"indexed":true,"internalType":"uint256","name":"id","type":"uint256"},{"indexed":false,"internalType":"uint256","name":"amount","type":"uint256"}],"name":"Approval","type":"event"},{"anonymous":false,"inputs":[{"indexed":true,"internalType":"address","name":"provider","type":"address"},{"indexed":false,"internalType":"bool","name":"hit","type":"bool"}],"name":"MarketDataCache","type":"event"},{"anonymous":false,"inputs":[{"indexed":true,"internalType":"address","name":"owner","type":"address"},{"indexed":true,"internalType":"address","name":"operator","type":"address"},{"indexed":false,"internalType":"bool","name":"approved","type":"bool"}],"name":"OperatorSet","type":"event"},{"anonymous":false,"inputs":[{"indexed":true,"internalType":"uint256","name":"poolID","type":"uint256"},{"indexed":false,"internalType":"address","name":"asset0","type":"address"},{"indexed":false,"internalType":"address","name":"asset1","type":"address"},{"indexed":false,"internalType":"address","name":"quoter","type":"address"},{"indexed":false,"internalType":"bytes3","name":"markings","type":"bytes3"}],"name":"PoolCreated","type":"event"},{"anonymous":false,"inputs":[{"indexed":false,"internalType":"address","name":"caller","type":"address"},{"indexed":true,"internalType":"address","name":"from","type":"address"},{"indexed":true,"internalType":"address","name":"to","type":"address"},{"indexed":true,"internalType":"uint256","name":"id","type":"uint256"},{"indexed":false,"internalType":"uint256","name":"amount","type":"uint256"}],"name":"Transfer","type":"event"},{"inputs":[{"internalType":"uint8","name":"pointer","type":"uint8"},{"internalType":"address","name":"alphaAddress","type":"address"}],"name":"addAlphaMarketAddress","outputs":[],"stateMutability":"nonpayable","type":"function"},{"inputs":[{"internalType":"uint8","name":"pointer","type":"uint8"},{"internalType":"address","name":"betaAddress","type":"address"}],"name":"addBetaMarketAddress","outputs":[],"stateMutability":"nonpayable","type":"function"},{"inputs":[{"internalType":"address","name":"asset0","type":"address"},{"internalType":"address","name":"asset1","type":"address"},{"internalType":"address","name":"quoter","type":"address"},{"internalType":"bytes3","name":"markings","type":"bytes3"},{"internalType":"uint256","name":"amount0","type":"uint256"},{"internalType":"uint256","name":"amount1","type":"uint256"}],"name":"addLiquidity","outputs":[{"internalType":"uint256","name":"liquidity","type":"uint256"}],"stateMutability":"payable","type":"function"},{"inputs":[{"internalType":"address","name":"owner","type":"address"},{"internalType":"address","name":"spender","type":"address"},{"internalType":"uint256","name":"id","type":"uint256"}],"name":"allowance","outputs":[{"internalType":"uint256","name":"","type":"uint256"}],"stateMutability":"view","type":"function"},{"inputs":[{"internalType":"address","name":"spender","type":"address"},{"internalType":"uint256","name":"id","type":"uint256"},{"internalType":"uint256","name":"amount","type":"uint256"}],"name":"approve","outputs":[{"internalType":"bool","name":"","type":"bool"}],"stateMutability":"nonpayable","type":"function"},{"inputs":[{"internalType":"address","name":"owner","type":"address"},{"internalType":"uint256","name":"id","type":"uint256"}],"name":"balanceOf","outputs":[{"internalType":"uint256","name":"","type":"uint256"}],"stateMutability":"view","type":"function"},{"inputs":[{"components":[{"internalType":"address","name":"asset0","type":"address"},{"internalType":"address","name":"asset1","type":"address"},{"internalType":"address","name":"quoter","type":"address"},{"internalType":"bytes3[]","name":"markings","type":"bytes3[]"},{"internalType":"uint256[]","name":"amounts","type":"uint256[]"},{"internalType":"bool","name":"zeroForOne","type":"bool"}],"internalType":"struct Hop[]","name":"hops","type":"tuple[]"},{"internalType":"uint256","name":"amountIn","type":"uint256"},{"internalType":"uint256","name":"minAmountOut","type":"uint256"}],"name":"batchSwap","outputs":[{"internalType":"uint256","name":"amountOut","type":"uint256"}],"stateMutability":"payable","type":"function"},{"inputs":[{"internalType":"address","name":"asset0","type":"address"},{"internalType":"address","name":"asset1","type":"address"},{"internalType":"address","name":"quoter","type":"address"},{"internalType":"bytes3","name":"markings","type":"bytes3"}],"name":"createPool","outputs":[{"internalType":"uint256","name":"poolID","type":"uint256"}],"stateMutability":"nonpayable","type":"function"},{"inputs":[],"name":"defaultAlpha","outputs":[{"internalType":"address","name":"","type":"address"}],"stateMutability":"view","type":"function"},{"inputs":[],"name":"defaultBeta","outputs":[{"internalType":"address","name":"","type":"address"}],"stateMutability":"view","type":"function"},{"inputs":[{"internalType":"uint8","name":"pointer","type":"uint8"}],"name":"getAlphaMarketAddress","outputs":[{"internalType":"address","name":"alphaAddress","type":"address"}],"stateMutability":"view","type":"function"},{"inputs":[{"internalType":"uint8","name":"pointer","type":"uint8"}],"name":"getBetaMarketAddress","outputs":[{"internalType":"address","name":"betaAddress","type":"address"}],"stateMutability":"view","type":"function"},{"inputs":[{"internalType":"uint256","name":"poolId","type":"uint256"}],"name":"getInventory","outputs":[{"internalType":"uint128","name":"asset0","type":"uint128"},{"internalType":"uint128","name":"asset1","type":"uint128"}],"stateMutability":"view","type":"function"},{"inputs":[{"internalType":"uint256","name":"poolID","type":"uint256"}],"name":"getPoolInfo","outputs":[{"internalType":"address","name":"asset0","type":"address"},{"internalType":"address","name":"asset1","type":"address"},{"internalType":"address","name":"quoter","type":"address"},{"internalType":"bytes3","name":"markings","type":"bytes3"}],"stateMutability":"view","type":"function"},{"inputs":[{"components":[{"internalType":"address","name":"asset0","type":"address"},{"internalType":"address","name":"asset1","type":"address"},{"internalType":"address","name":"quoter","type":"address"},{"internalType":"uint256[]","name":"amount","type":"uint256[]"},{"internalType":"bool","name":"zeroForOne","type":"bool"},{"internalType":"bytes3[]","name":"marking","type":"bytes3[]"}],"internalType":"struct SwapParams","name":"p","type":"tuple"},{"internalType":"uint128","name":"asset0Balance","type":"uint128"},{"internalType":"uint128","name":"asset1Balance","type":"uint128"}],"name":"getQuote","outputs":[{"internalType":"uint256","name":"quote","type":"uint256"},{"internalType":"uint256","name":"poolID","type":"uint256"}],"stateMutability":"nonpayable","type":"function"},{"inputs":[{"components":[{"internalType":"address","name":"asset0","type":"address"},{"internalType":"address","name":"asset1","type":"address"},{"internalType":"address","name":"quoter","type":"address"},{"internalType":"uint256[]","name":"amount","type":"uint256[]"},{"internalType":"bool","name":"zeroForOne","type":"bool"},{"internalType":"bytes3[]","name":"marking","type":"bytes3[]"}],"internalType":"struct SwapParams","name":"p","type":"tuple"},{"internalType":"uint128[]","name":"asset0Balances","type":"uint128[]"},{"internalType":"uint128[]","name":"asset1Balances","type":"uint128[]"}],"name":"getQuoteBatch","outputs":[{"internalType":"uint256[]","name":"quote","type":"uint256[]"},{"internalType":"uint256[]","name":"poolID","type":"uint256[]"}],"stateMutability":"nonpayable","type":"function"},{"inputs":[{"internalType":"address","name":"owner","type":"address"},{"internalType":"address","name":"spender","type":"address"}],"name":"isOperator","outputs":[{"internalType":"bool","name":"","type":"bool"}],"stateMutability":"view","type":"function"},{"inputs":[{"internalType":"uint8","name":"pointer","type":"uint8"}],"name":"removeAlphaMarketAddress","outputs":[],"stateMutability":"nonpayable","type":"function"},{"inputs":[{"internalType":"uint8","name":"pointer","type":"uint8"}],"name":"removeBetaMarketAddress","outputs":[],"stateMutability":"nonpayable","type":"function"},{"inputs":[{"internalType":"address","name":"asset0","type":"address"},{"internalType":"address","name":"asset1","type":"address"},{"internalType":"address","name":"quoter","type":"address"},{"internalType":"bytes3","name":"markings","type":"bytes3"},{"internalType":"uint256","name":"liquidity","type":"uint256"}],"name":"removeLiquidity","outputs":[{"internalType":"uint256","name":"amount0","type":"uint256"},{"internalType":"uint256","name":"amount1","type":"uint256"}],"stateMutability":"nonpayable","type":"function"},{"inputs":[{"components":[{"internalType":"address","name":"asset0","type":"address"},{"internalType":"address","name":"asset1","type":"address"},{"internalType":"address","name":"quoter","type":"address"},{"internalType":"uint256[]","name":"amount","type":"uint256[]"},{"internalType":"bool","name":"zeroForOne","type":"bool"},{"internalType":"bytes3[]","name":"marking","type":"bytes3[]"}],"internalType":"struct SwapParams","name":"p","type":"tuple"},{"internalType":"uint128","name":"asset0Balance","type":"uint128"},{"internalType":"uint128","name":"asset1Balance","type":"uint128"}],"name":"routerGetQuote","outputs":[{"internalType":"uint256","name":"quote","type":"uint256"},{"internalType":"uint256","name":"poolID","type":"uint256"}],"stateMutability":"nonpayable","type":"function"},{"inputs":[{"components":[{"internalType":"address","name":"asset0","type":"address"},{"internalType":"address","name":"asset1","type":"address"},{"internalType":"address","name":"quoter","type":"address"},{"internalType":"uint256[]","name":"amount","type":"uint256[]"},{"internalType":"bool","name":"zeroForOne","type":"bool"},{"internalType":"bytes3[]","name":"marking","type":"bytes3[]"}],"internalType":"struct SwapParams","name":"p","type":"tuple"},{"internalType":"uint128[]","name":"asset0Balances","type":"uint128[]"},{"internalType":"uint128[]","name":"asset1Balances","type":"uint128[]"}],"name":"routerGetQuoteBatch","outputs":[{"internalType":"uint256[]","name":"quote","type":"uint256[]"},{"internalType":"uint256[]","name":"poolID","type":"uint256[]"}],"stateMutability":"nonpayable","type":"function"},{"inputs":[{"internalType":"address","name":"operator","type":"address"},{"internalType":"bool","name":"approved","type":"bool"}],"name":"setOperator","outputs":[{"internalType":"bool","name":"","type":"bool"}],"stateMutability":"nonpayable","type":"function"},{"inputs":[{"internalType":"bytes4","name":"interfaceId","type":"bytes4"}],"name":"supportsInterface","outputs":[{"internalType":"bool","name":"","type":"bool"}],"stateMutability":"view","type":"function"},{"inputs":[{"internalType":"address","name":"asset0","type":"address"},{"internalType":"address","name":"asset1","type":"address"},{"internalType":"address","name":"quoter","type":"address"},{"internalType":"bytes3","name":"markings","type":"bytes3"},{"internalType":"uint256","name":"amountIn","type":"uint256"},{"internalType":"bool","name":"zeroForOne","type":"bool"},{"internalType":"uint256","name":"minAmountOut","type":"uint256"}],"name":"swap","outputs":[{"internalType":"uint256","name":"amountOut","type":"uint256"}],"stateMutability":"payable","type":"function"},{"inputs":[{"internalType":"uint256","name":"poolID","type":"uint256"}],"name":"totalLiquidity","outputs":[{"internalType":"uint256","name":"","type":"uint256"}],"stateMutability":"view","type":"function"},{"inputs":[{"internalType":"address","name":"receiver","type":"address"},{"internalType":"uint256","name":"id","type":"uint256"},{"internalType":"uint256","name":"amount","type":"uint256"}],"name":"transfer","outputs":[{"internalType":"bool","name":"","type":"bool"}],"stateMutability":"nonpayable","type":"function"},{"inputs":[{"internalType":"address","name":"sender","type":"address"},{"internalType":"address","name":"receiver","type":"address"},{"internalType":"uint256","name":"id","type":"uint256"},{"internalType":"uint256","name":"amount","type":"uint256"}],"name":"transferFrom","outputs":[{"internalType":"bool","name":"","type":"bool"}],"stateMutability":"nonpayable","type":"function"}],"evm":{"bytecode":{"linkReferences":{},"object":"60c0346100b257601f613b2c38819003918201601f19168301916001600160401b038311848410176100b65780849260409485528339810103126100b257610052602061004b836100ca565b92016100ca565b9060805260a052604051613a4d90816100df8239608051818181610ea501528181611c5b01528181611e61015281816122c3015261245c015260a0518181816106f701528181611ca001528181611f1d0152818161230301526125110152f35b5f80fd5b634e487b7160e01b5f52604160045260245ffd5b51906001600160a01b03821682036100b25756fe60806040526004361015610011575f80fd5b5f3560e01c8062fdd58e146101c957806301ffc9a7146101c457806304f71ef614610165578063095bcdb6146101bf57806319920a5f146101ba5780632f380b35146101b5578063426a8493146101b0578063460c6df8146101ab578063558a7297146101a65780635670f55a146101a1578063598af9e71461019c5780635b298d321461019757806360a80dbb1461017e57806361408f26146101925780637dc27c951461018d57806383e66c2e146101885780638e832e08146101835780638f1552911461017e5780639d2ec6e414610179578063a1a44dad14610174578063b5e60c3c1461016f578063b6363cf21461016a578063c279171d14610165578063cb1f2f3814610160578063d2615fc81461015b578063d92bc84c14610156578063e513315b146101515763fe99049a1461014c575f80fd5b61153e565b61136a565b61115e565b611118565b610f61565b6105f5565b610efe565b610ed4565b610e90565b610e1e565b610cc1565b610dd9565b610d93565b610d2f565b610cea565b610c1c565b610baf565b6109b7565b61091b565b6108b5565b610824565b610726565b6106e2565b610643565b610239565b6101f0565b6001600160a01b038116036101df57565b5f80fd5b35906101ee826101ce565b565b346101df5760403660031901126101df5760043561020d816101ce565b6024359060018060a01b03165f52600160205260405f20905f52602052602060405f2054604051908152f35b346101df5760203660031901126101df5760043563ffffffff60e01b81168091036101df576020906301ffc9a760e01b811490811561027e575b506040519015158152f35b630f632fb360e01b1490505f610273565b634e487b7160e01b5f52604160045260245ffd5b608081019081106001600160401b038211176102be57604052565b61028f565b90601f801991011681019081106001600160401b038211176102be57604052565b604051906101ee60c0836102c3565b604051906101ee6080836102c3565b604051906101ee610100836102c3565b6001600160401b0381116102be5760051b60200190565b92919061033581610312565b9361034360405195866102c3565b602085838152019160051b81019283116101df57905b82821061036557505050565b8135815260209182019101610359565b9080601f830112156101df5781602061039093359101610329565b90565b801515036101df57565b35906101ee82610393565b6001600160e81b03198116036101df57565b9291906103c681610312565b936103d460405195866102c3565b602085838152019160051b81019283116101df57905b8282106103f657505050565b602080918335610405816103a8565b8152019101906103ea565b9080601f830112156101df57816020610390933591016103ba565b91909160c0818403126101df576104406102e4565b9261044a826101e3565b8452610458602083016101e3565b6020850152610469604083016101e3565b604085015260608201356001600160401b0381116101df578161048d918401610375565b606085015261049e6080830161039d565b608085015260a08201356001600160401b0381116101df576104c09201610410565b60a0830152565b9080601f830112156101df578135906104df82610312565b926104ed60405194856102c3565b82845260208085019360051b8201019182116101df57602001915b8183106105155750505090565b82356001600160801b03811681036101df57815260209283019201610508565b60606003198201126101df576004356001600160401b0381116101df578161055f9160040161042b565b916024356001600160401b0381116101df578261057e916004016104c7565b91604435906001600160401b0382116101df57610390916004016104c7565b90602080835192838152019201905f5b8181106105ba5750505090565b82518452602093840193909201916001016105ad565b90916105e76103909360408452604084019061059d565b91602081840391015261059d565b346101df5761060c61060636610535565b91611a31565b9061061c604051928392836105d0565b0390f35b60609060031901126101df57600435610638816101ce565b906024359060443590565b346101df5761065136610620565b9091335f52600160205260405f20835f5260205260405f208054908382039182116106dd575560018060a01b031690815f52600160205261069d8360405f20905f5260205260405f2090565b6106a8828254612021565b9055604080513380825260208201939093525f5160206139f85f395f51905f5291819081015b0390a460405160018152602090f35b611ff2565b346101df575f3660031901126101df576040517f00000000000000000000000000000000000000000000000000000000000000006001600160a01b03168152602090f35b346101df5760203660031901126101df576004355f6060604051610749816102a3565b82815282602082015282604082015201525f52600760205260405f2060405190610772826102a3565b80546001600160a01b0390811680845260018301548216602085018190526002909301549182166040850181905260489290921b6001600160e81b031916606094909401849052909261061c916107e9906107db906107ce9081565b956001600160a01b031690565b916001600160e81b03191690565b604080516001600160a01b039586168152958516602087015291909316908401526001600160e81b0319909116606083015281906080820190565b346101df5761083236610620565b9091335f5260026020526108598160405f209060018060a01b03165f5260205260405f2090565b835f526020528160405f205560405191825260018060a01b0316907fb3fd5071835887567a0671151121894ddccc2842f1d10bedad13e0d17cace9a760203392a4602060405160018152f35b6004359060ff821682036101df57565b346101df5760403660031901126101df576109196108d16108a5565b60ff602435916108e0836101ce565b166108ed6010821061202e565b5f52600360205260405f209060018060a01b03166bffffffffffffffffffffffff60a01b825416179055565b005b346101df5760403660031901126101df57600435610938816101ce565b6024359061094582610393565b335f908152602081815260408083206001600160a01b038516845290915290209115159160ff1981541660ff841617905560405191825260018060a01b0316907fceb576d9f15e4e200fdb5096d64d5dfd667e16def20c1eefd14256d8e3faa26760203392a360405160018152602090f35b346101df5760803660031901126101df576004356109d4816101ce565b6024356109e0816101ce565b604435916109ed836101ce565b606435916109fa836103a8565b610a0683858385612876565b9260018060a01b03610a336002610a25875f52600760205260405f2090565b01546001600160a01b031690565b16610b9b5761061c9484937f68df9a4eb7aacbe8f43763bfbc9f7ca135a5397190ea1cce2558db52dc2f36929391929091906001600160a01b038083169084161015610b9057610b7d91935b610b41610a8a6102f3565b6001600160a01b03861681526001600160a01b03871660208201526001600160a01b03831660408201526001600160e81b031984166060820152610ad6895f52600760205260405f2090565b815181546001600160a01b03199081166001600160a01b039283161783556020840151600184018054909216908316179055604083015160029092018054606090940151929091166001600160b81b03199093169290921760489190911c62ffffff60a01b16179055565b604080516001600160a01b03958616815295851660208701529316928401929092526001600160e81b0319909116606083015281906080820190565b0390a26040519081529081906020820190565b610b7d919293610a7f565b63e1ecc13360e01b5f52600484905260245ffd5b346101df5760603660031901126101df57600435610bcc816101ce565b610c07602435610bdb816101ce565b6044359260018060a01b03165f52600260205260405f209060018060a01b03165f5260205260405f2090565b905f52602052602060405f2054604051908152f35b346101df5760203660031901126101df5760406001600160801b03610c5b6004355f52600660205260405f2054906001600160801b0382169160801c90565b835191831682529091166020820152f35b60606003198201126101df57600435906001600160401b0382116101df57610c969160040161042b565b906024356001600160801b03811681036101df57906044356001600160801b03811681036101df5790565b346101df57610cd8610cd236610c6c565b91612169565b60408051928352602083019190915290f35b346101df5760203660031901126101df5760ff610d056108a5565b16610d126010821061202e565b5f90815260046020526040902080546001600160a01b0319169055005b346101df5760403660031901126101df57610919610d4b6108a5565b60ff60243591610d5a836101ce565b16610d676010821061202e565b5f52600460205260405f209060018060a01b03166bffffffffffffffffffffffff60a01b825416179055565b346101df5760203660031901126101df5760ff610dae6108a5565b16610dbb6010821061202e565b5f526004602052602060018060a01b0360405f205416604051908152f35b346101df5760203660031901126101df5760ff610df46108a5565b16610e016010821061202e565b5f90815260036020526040902080546001600160a01b0319169055005b60603660031901126101df576004356001600160401b0381116101df57366023820112156101df5780600401356001600160401b0381116101df573660248260051b840101116101df5761061c91610e809160243590602460443593016125ab565b6040519081529081906020820190565b346101df575f3660031901126101df576040517f00000000000000000000000000000000000000000000000000000000000000006001600160a01b03168152602090f35b346101df5760203660031901126101df576004355f526005602052602060405f2054604051908152f35b346101df5760403660031901126101df57602060ff610f55600435610f22816101ce565b60243590610f2f826101ce565b60018060a01b03165f525f845260405f209060018060a01b03165f5260205260405f2090565b54166040519015158152f35b346101df5760a03660031901126101df57600435610f7e816101ce565b60243590610f8b826101ce565b6001600160801b0360443591610fa0836101ce565b610fc5606435610faf816103a8565b60843594610fbe861515612658565b8684612876565b9361104e61103c8461103461101b610ff58a5f52600660205260405f2054906001600160801b0382169160801c90565b989061101461100c8d5f52600560205260405f2090565b5415156126a4565b168961272f565b61102d8a5f52600560205260405f2090565b5490612742565b95168661272f565b61102d875f52600560205260405f2090565b93831580611110575b6110f75785816110706110bf936110de97989933612b0a565b61108d611085835f52600560205260405f2090565b918254612014565b90556110a46001600160801b038716600f0b612760565b6110b96001600160801b038916600f0b612760565b91612b89565b6001600160a01b0381811690831610156110ef578385915b3393612bdf565b604080519182526020820192909252f35b8484916110d7565b63d5de620560e01b5f526004849052602485905260445ffd5b508415611057565b346101df5760203660031901126101df5760ff6111336108a5565b166111406010821061202e565b5f526003602052602060018060a01b0360405f205416604051908152f35b60e03660031901126101df57600435611176816101ce565b6024358091611184826101ce565b604435611190816101ce565b6064359061119d826103a8565b60843560a435926111ad84610393565b818560c435926111bf81878b85612876565b95871561136457825b338534906111d593612c10565b5f878152600660205260409020546001600160801b0381169060801c9a81958c9492936112006116ec565b906112096116ec565b936112126102e4565b6001600160a01b0390991689526001600160a01b031660208901526001600160a01b03166040880152606087019081528b1515608088015260a087019283525161125b90611754565b525161126690611754565b6001600160e81b0319909116905261127d92612169565b509687156113555787869161129193612d37565b80861061133e575061061c95610e80949093909290916112f391906001600160a01b0380871690861610156113365783905b811561131b576001600160801b038116600f0b915b1561130957506110b96001600160801b038916600f0b612760565b1561130257505b823391612c2e565b90506112fa565b6001600160801b0316600f0b91612b89565b6113306001600160801b038a16600f0b612760565b916112d8565b8315906112c3565b63d438755d60e01b5f52600452602485905260445ffd5b6314033f2160e11b5f5260045ffd5b896111c8565b60c03660031901126101df57670de0b6b3a764000060043561138b816101ce565b60243590611398826101ce565b604435916113a5836101ce565b606435906113b2826103a8565b608435938161148561146960a43593876114806113d189848885612876565b986114706113f78b5f52600660205260405f2054906001600160801b0382169160801c90565b9e8f97829c92976114506114096116ec565b916114406114156116ec565b966114306114216102e4565b6001600160a01b03909d168d52565b6001600160a01b031660208c0152565b6001600160a01b031660408a0152565b606088018190525f608089015260a08801938452611754565b5251611754565b6001600160e81b03199091169052565b612169565b50948515611355576114a4611507968661061c9a6114ee97878c612db6565b966001600160a01b03838116908316109182156115385792915b1561152457926001600160801b039283926114df915b838733933493612c39565b16600f0b9116600f0b83612b89565b6114f9838233612e88565b5f52600560205260405f2090565b611512828254612021565b90556040519081529081906020820190565b6001600160801b039283926114df916114d4565b916114be565b346101df5760803660031901126101df5760043561155b816101ce565b602435611567816101ce565b604435915f5160206139f85f395f51905f526106ce606435936001600160a01b038416936115c99087906115bc9033881415806116b8575b611628576001600160a01b03165f90815260016020526040902090565b905f5260205260405f2090565b6115d4868254612014565b90556001600160a01b0381165f9081526001602052604090206115f89087906115bc565b611603868254612021565b90556040805133815260208101969096526001600160a01b0390911694918291820190565b61165f836115bc3361164a8560018060a01b03165f52600260205260405f2090565b9060018060a01b03165f5260205260405f2090565b548960018201611685575b50506001600160a01b03165f90815260016020526040902090565b61168e91612014565b6116b0846115bc3361164a8660018060a01b03165f52600260205260405f2090565b555f8961166a565b506116e76116e36116dc3361164a8560018060a01b03165f525f60205260405f2090565b5460ff1690565b1590565b61159f565b604080519091906116fd83826102c3565b6001815291601f1901366020840137565b9061171882610312565b61172560405191826102c3565b8281528092611736601f1991610312565b0190602036910137565b634e487b7160e01b5f52603260045260245ffd5b8051156117615760200190565b611740565b80518210156117615760209160051b010190565b1561178157565b60405162461bcd60e51b8152602060048201526014602482015273426574612061646472657373206973207a65726f60601b6044820152606490fd5b9080601f830112156101df5781516117d481610312565b926117e260405194856102c3565b81845260208085019260051b8201019283116101df57602001905b82821061180a5750505090565b81518152602091820191016117fd565b906020828203126101df5781516001600160401b0381116101df5761039092016117bd565b90602080835192838152019201905f5b81811061185c5750505090565b82516001600160801b031684526020938401939092019160010161184f565b90602080835192838152019201905f5b8181106118985750505090565b825161ffff1684526020938401939092019160010161188b565b80516001600160a01b0316825290610390906020838101516001600160a01b0316908201526040838101516001600160a01b03169082015260e0806119476119356119236119116060890151610100606089015261010088019061059d565b6080890151878203608089015261183f565b60a088015186820360a088015261183f565b60c087015185820360c087015261187b565b9401511515910152565b805180835260209291819084018484015e5f828201840152601f01601f1916010190565b909161198c610390936040845260408401906118b2565b916020818403910152611951565b6040513d5f823e3d90fd5b156119ac57565b60405162461bcd60e51b8152602060048201526015602482015274416c7068612061646472657373206973207a65726f60581b6044820152606490fd5b9060206103909281815201906118b2565b91611a2390611a1561039095936060865260608601906118b2565b908482036020860152611951565b916040818403910152611951565b90929160a0820192611a4484515161170e565b91611a5085515161170e565b91611a5c86515161170e565b96611a80611a7b611a6d8951611754565b516001600160e81b03191690565b6127c6565b925f5b88518051821015611b035790611afd8b611af483611adf60c0611aeb8f8f611ae586611adf611ab8611a6d60019f8490611766565b85516020870151604090970151919687926001600160a01b03908116929181169116612876565b92611766565b526127c6565b015161ffff1690565b9061ffff169052565b01611a83565b505093919650939491968251611b1e9060018060a01b031690565b6020840180519196909490916001600160a01b03166040820180519094906001600160a01b03169760608401519460808501958651611b5c90151590565b94611b65610302565b6001600160a01b03909d168d526001600160a01b031660208d01526001600160a01b03909a1660408c019081529960608c015260808b015260a08a015260c0890152151560e0880152516001600160a01b031693516001600160a01b031691516001600160a01b03169051151591611bdb610302565b6001600160a01b0390951685526001600160a01b031660208501526001600160a01b031660408401525f606084018190526080840181905260a0840181905260c0840152151560e0830152865115158080611fe5575b15611dd4575050945f929183611d0e611d2c969798611c536040860151151590565b8314611da9577f0000000000000000000000000000000000000000000000000000000000000000945b81611c8a6060830151151590565b8514611d6557611d089150611d02611cf6611cf67f0000000000000000000000000000000000000000000000000000000000000000985b611cd56001600160a01b038c1615156119a5565b611ce96001600160a01b038b16151561177a565b516001600160a01b031690565b6001600160a01b031690565b9661295f565b9361295f565b60405163014b201760e01b81529687958694859391600485016119fa565b03925af1908115611d60575f91611d41575091565b611d5d91503d805f833e611d5581836102c3565b81019061181a565b91565b61199a565b611d02611cf6611cf6611da3611d96611d8560a0611d0898015160ff1690565b60ff165f52600460205260405f2090565b546001600160a01b031690565b98611cc1565b611dce611d96611dbd608088015160ff1690565b60ff165f52600360205260405f2090565b94611c7c565b9096908015908180611fcf575b15611e2757505050505f929394508291611e0a611cf6611cf6611d2c945160018060a01b031690565b9060405194858094819363145ecc6360e21b8352600483016119e9565b80611fb9575b15611edc5750611d2c949596505f93929181611e4f6040611e9c940151151590565b8614611eb95750611e96611cf6611cf67f0000000000000000000000000000000000000000000000000000000000000000955b611ce96001600160a01b03881615156119a5565b9261295f565b918360405180968195829462db90d160e81b845260048401611975565b611cf6611cf6611ed6611d96611dbd6080611e9696015160ff1690565b95611e82565b94959480611fac575b611ef0575b50505050565b611f529496505f93929181611f0b6060611e9c940151151590565b8614611f895750611e96611cf6611cf67f0000000000000000000000000000000000000000000000000000000000000000955b611ce96001600160a01b038816151561177a565b03925af1908115611d60575f91611f6f575b50915f808080611eea565b611f8391503d805f833e611d5581836102c3565b5f611f64565b611cf6611cf6611fa6611d96611d8560a0611e9696015160ff1690565b95611f3e565b5060208101511515611ee5565b50611fca6116e36020840151151590565b611e2d565b50611fe06116e36020850151151590565b611de1565b5060208801511515611c31565b634e487b7160e01b5f52601160045260245ffd5b5f198101919082116106dd57565b919082039182116106dd57565b919082018092116106dd57565b1561203557565b60405162461bcd60e51b815260206004820152601d60248201527f496e76616c696420706f696e7465723a206d75737420626520302d31350000006044820152606490fd5b908160209103126101df575190565b80516001600160a01b03908116835260208083015182169084015260408083015190911690830152606080820151908301526080808201516001600160801b0316908301526101ee919060e090819060a0818101516001600160801b03169085015260c08181015161ffff169085015201511515910152565b80612114610120926103909594612089565b816101008201520190611951565b610100810192916101ee9190612089565b9161215a90612146846103909694612089565b610140610100850152610140840190611951565b91610120818403910152611951565b805190925f9290916001600160a01b0316602085018051909491906001600160a01b03166040870180519197909290916001600160a01b03169760a083019889516121b390611754565b516001600160e81b031916916121c893612876565b96516121d390611754565b516001600160e81b0319166121e7906127c6565b81519095906001600160a01b031696516001600160a01b031692516001600160a01b031694606083015161221a90611754565b5160c088015161ffff16608090940151151594612235610302565b6001600160a01b03909a168a526001600160a01b031660208a01526001600160a01b03909616604089019081529560608901526001600160801b031660808801526001600160801b031660a087015261ffff1660c0860152151560e085015282511515808061259e575b156123d45750509181612355936122bb60406020950151151590565b156123b957827f0000000000000000000000000000000000000000000000000000000000000000925b606081015115612393575061233781611d085f93611d02611cf6611cf67f000000000000000000000000000000000000000000000000000000000000000098611cd56001600160a01b038c1615156119a5565b6040516301eebc2d60e11b8152968795869485939160048501612133565b03925af1908115611d60575f9161236a575091565b611d5d915060203d60201161238c575b61238481836102c3565b81019061207a565b503d61237a565b81611d085f93611d02611cf6611cf6611da3611d96611d8560a06123379a015160ff1690565b826123ce611d96611dbd608086015160ff1690565b926122e4565b9192918015908180612588575b1561242457505050506123555f92612407611cf6611cf66020955160018060a01b031690565b9060405194858094819363160f04bd60e21b835260048301612122565b80612572575b156124ce5750509160209183826124476040612355970151151590565b156124ae576124909150611e96611cf6611cf67f000000000000000000000000000000000000000000000000000000000000000095611ce96001600160a01b03881615156119a5565b915f6040518096819582946305e3344d60e41b845260048401612102565b611e96611cf6611cf6611ed6611d96611dbd608061249098015160ff1690565b90959392919080612565575b6124e357505050565b6123559395509081836124fc6060602096950151151590565b15612545576124909150611e96611cf6611cf67f000000000000000000000000000000000000000000000000000000000000000095611ce96001600160a01b038816151561177a565b611e96611cf6611cf6611fa6611d96611d8560a061249098015160ff1690565b50602081015115156124da565b506125836116e36020850151151590565b61242a565b506125996116e36020860151151590565b6123e1565b506020840151151561229f565b909193929382156126295791905f915b8083106125e75750505080928082106125d2575050565b63d438755d60e01b5f5260045260245260445ffd5b90919261261a6001916125fb868587612ae8565b861561260686612006565b881490801561262357345b30943394612fc1565b930191906125bb565b5f612611565b60405162461bcd60e51b81526020600482015260076024820152664e6f20686f707360c81b6044820152606490fd5b1561265f57565b60405162461bcd60e51b815260206004820152601860248201527f496e76616c6964206c697175696469747920616d6f756e7400000000000000006044820152606490fd5b156126ab57565b60405162461bcd60e51b8152602060048201526014602482015273139bc81b1a5c5d5a591a5d1e481a5b881c1bdbdb60621b6044820152606490fd5b90670de0b6b3a7640000820291808304670de0b6b3a764000014901517156106dd57565b9067120a871cc002000082029180830467120a871cc002000014901517156106dd57565b818102929181159184041417156106dd57565b811561274c570490565b634e487b7160e01b5f52601260045260245ffd5b600f0b6f7fffffffffffffffffffffffffffffff1981146106dd575f0390565b6040519060e082018281106001600160401b038211176102be576040525f60c0838281528260208201528260408201528260608201528260808201528260a08201520152565b610390610fff61286a6127d7612780565b9360e81c6127f760016127f083627fffff9060011c1690565b1615158652565b600181161515602086015261282761281e6001600284901c623fffff165b1662ffffff1690565b15156040870152565b61284761283e6001600384901c621fffff16612815565b15156060870152565b600f600482901c81166080870152600882901c1660a0860152600c1c610fff1690565b1661ffff1660c0830152565b9092906001600160a01b0380851690821610156128e85792915b6040516bffffffffffffffffffffffff19606095861b81166020830190815294861b811660348301529190941b1660488401526001600160e81b031916605c830152603f8252906128e2605f826102c3565b51902090565b91612890565b6020818303126101df578051906001600160401b0382116101df570181601f820112156101df578051906001600160401b0382116102be576040519261293e601f8401601f1916602001856102c3565b828452602083830101116101df57815f9260208093018386015e8301015290565b90606091805c801580612ad3575b15612a8d575b5082511591826129be575b50604051911582526001600160a01b0316907fd34145bf6de6d1b18053ad66a4a1af093071a5ab67c05b8bfce98fd95ffb0d899080602081015b0390a290565b604051633bd1104b60e01b815293505f90849081906129e09060048301612122565b0381836001600160a01b0386165af1928315611d60575f93612a43575b506129b87fd34145bf6de6d1b18053ad66a4a1af093071a5ab67c05b8bfce98fd95ffb0d8991848051612a33575b50915061297e565b612a3d9082612ee1565b5f612a2b565b7fd34145bf6de6d1b18053ad66a4a1af093071a5ab67c05b8bfce98fd95ffb0d89919350612a856129b8913d805f833e612a7d81836102c3565b8101906128ee565b9391506129fd565b9250601f60405193808552018060051c5f5b818110612aba575050601f191683016020016040525f612973565b80600180928601015c60208260051b8901015201612a9f565b9350604051935f85526020850160405261296d565b91908110156117615760051b8101359060be19813603018212156101df570190565b91909160018060a01b0316805f52600160205260405f20835f5260205260405f208054908382039182116106dd57556040805133815260208101939093525f925f5160206139f85f395f51905f5291819081015b0390a4565b90600f0b90600f0b019060016001607f1b0319821260016001607f1b038313176106dd57565b9091815f5260066020526001600160801b03612bbc612bb260405f205495838716600f0b612b63565b928560801d612b63565b81199060801b16911617918203612bd1575050565b5f52600660205260405f2055565b9093918281612bff575b50505081612bf657505050565b6101ee92613105565b612c0892613105565b5f8082612be9565b9281612c1c5750505050565b612c259361320c565b5f808080611eea565b9181612bf657505050565b919390938581612d0f575b505050508015918215612c575750505050565b6001600160a01b031680612c71575050612c2591506131cb565b60209250612cc093612c83600161318c565b6040516323b872dd60e01b81526001600160a01b0390911660048201523060248201526044810192909252909283919082905f9082906064820190565b03925af18015611d6057612cdb915f91612ce0575b506130c1565b612c25565b612d02915060203d602011612d08575b612cfa81836102c3565b8101906130ac565b5f612cd5565b503d612cf0565b612d189361320c565b5f808085612c44565b9080612d2c57505050565b6101ee925f9261320c565b6001600160801b0392935f14612d6a57501690808210612d55575050565b630173586760e01b5f5260045260245260445ffd5b90501690808210612d79575050565b6368580a1960e01b5f5260045260245260445ffd5b6001600160801b03670de0b6b3a7640000911602906001600160801b0382169182036106dd57565b929493919093825f52600560205260405f2054155f14612df657505050612ddd9250612021565b905b8115612de757565b63283eeadf60e01b5f5260045ffd5b90929193670de0b6b3a7640000810290808204670de0b6b3a764000014901517156106dd5781612e2591612742565b82018092116106dd57612e6b612e5f936001600160801b03612e64612e7b94612e5f612e53612e829b612d8e565b6001600160801b031690565b612742565b9116612021565b936005905f5260205260405f2090565b549061272f565b90612ddf565b91909160018060a01b031690815f52600160205260405f20835f5260205260405f208054908282018092116106dd57556040805133815260208101929092525f915f5160206139f85f395f51905f529181908101612b5e565b601f825180835d0160051c915f5b838110612efc5750505050565b80602060019260051b8401015182828601015d01612eef565b903590601e19813603018212156101df57018035906001600160401b0382116101df57602001918160051b360383136101df57565b15612f5157565b60405162461bcd60e51b81526020600482015260116024820152704d69736d6174636865642061727261797360781b6044820152606490fd5b35610390816101ce565b90156117615790565b91908110156117615760051b0190565b35610390816103a8565b3561039081610393565b95949392919060608701612fd58189612f15565b90501561307957613001612fec60808a018a612f15565b9050612ff8838b612f15565b91905014612f4a565b600161300d828a612f15565b9050145f1461306b578761302361039099612f8a565b9161303060208301612f8a565b61306360a061305c61305761305161304a60408901612f8a565b9688612f15565b90612f94565b612fad565b9401612fb7565b936005613705565b50905061039095600561335c565b60405162461bcd60e51b815260206004820152600b60248201526a4e6f206d61726b696e677360a81b6044820152606490fd5b908160209103126101df575161039081610393565b156130c857565b60405162461bcd60e51b8152602060048201526015602482015274115490cc8c081d1c985b9cd9995c8819985a5b1959605a1b6044820152606490fd5b6001600160a01b03168061313f57505f808093819382908215613135575b6001600160a01b031690f115611d6057565b6108fc9150613123565b60405163a9059cbb60e01b81526001600160a01b0390921660048301526024820192909252906020908290815f81604481015b03925af18015611d60576101ee915f91612ce057506130c1565b1561319357565b60405162461bcd60e51b815260206004820152601060248201526f115512081b9bdd08195e1c1958dd195960821b6044820152606490fd5b156131d257565b60405162461bcd60e51b8152602060048201526012602482015271125b98dbdc9c9958dd08115512081cd95b9d60721b6044820152606490fd5b9092906001600160a01b03168061322957506101ee9250146131cb565b61317293612c83602094931561318c565b9190916040818403126101df5780516001600160401b0381116101df57836132639183016117bd565b9260208201516001600160401b0381116101df5761039092016117bd565b90602080835192838152019201905f5b81811061329e5750505090565b82516001600160e81b031916845260209384019390920191600101613291565b80516001600160a01b0390811683526020808301518216908401526040808301519091169083015260608082015160c0918401829052610390939160a0916133089184019061059d565b9260808101511515608084015201519060a0818403910152613281565b9161334e9061334061039095936060865260608601906132be565b90848203602086015261183f565b91604081840391015261183f565b96949590929391966060840197876133748a87612f15565b9790506136cf575b50506133878561170e565b916133918661170e565b905f5b8781106136395750815f9185838961345861347a9d9e9f61342c6134516133ba85612f8a565b946134436133ca60208301612f8a565b946133ff61343c6133dd60408601612f8a565b6133ea6080870187612f15565b9390946133f960a08901612fb7565b97612f15565b98909961341c61340d6102e4565b6001600160a01b03909e168e52565b6001600160a01b031660208d0152565b6001600160a01b031660408b0152565b3691610329565b606087015215156080860152565b36916103ba565b60a082015260405163027b8f7b60e11b81529c8d958694859360048501613325565b03926001600160a01b03165af1908115611d60575f975f92613612575b505f5b878110613516575050505050906134c394956134bd93926134c7575b5050612006565b90611766565b5190565b816134d760a06135019401612fb7565b156135085760206134e89101612f8a565b6134fa6134f485612006565b87611766565b5190612c2e565b5f806134b6565b61351190612f8a565b6134e8565b806135d88a89613540846135396001976135336080860186612f15565b90612f9d565b3593611766565b5161357e61355e613551878d611766565b516001600160801b031690565b8261356c613551898c611766565b61357860a08701612fb7565b92612d37565b6135888589611766565b519261359660a08401612fb7565b156135f2576135b560a06001600160801b038316600f0b945b01612fb7565b156135de57506001600160801b036135d09116600f0b612760565b915b88613820565b0161349a565b6001600160801b03915016600f0b916135d2565b6135b560a061360c6001600160801b038516600f0b612760565b946135af565b90975061363191503d805f833e61362981836102c3565b81019061323a565b90965f613497565b6001906136c96136bf6136a46136838f8c61365381612f8a565b9161367d6130578961353361366a60208701612f8a565b9461367760408801612f8a565b96612f15565b92612876565b886001915f520160205260405f2054906001600160801b0382169160801c90565b6136b18589949394611766565b906001600160801b03169052565b6136b18389611766565b01613394565b6136f2916136df60a08801612fb7565b156136f9576136ed87612f8a565b612d21565b5f8761337c565b6136ed60208801612f8a565b929095919694809c9b819b9a969995998b6137228c868d8d612876565b97156138195761373991841561381257868b612c10565b88888561376189896001915f520160205260405f2054906001600160801b0382169160801c90565b9d81978f956137719893956138be565b9b8c809961377e93612d37565b6137b99289156137f7576001600160801b038216600f0b915b8a156137e557506137b36001600160801b038916600f0b612760565b92613820565b6137c5575b5050505050565b6137d494156137de5750612c2e565b5f808381806137be565b9050612c2e565b6001600160801b0316600f0b92613820565b61380c6001600160801b038916600f0b612760565b91613797565b868c612c10565b5050613739565b6001909392930191815f52826020526001600160801b0361385861384e60405f205496838816600f0b612b63565b928660801d612b63565b81199060801b1691161792830361386e57505050565b5f5260205260405f2055565b91908260409103126101df576020825192015190565b9193926001600160801b0390816138b16040946060875260608701906132be565b9616602085015216910152565b61396298935f926139346040989a9799956139256138da6116ec565b938d6138e586611754565b526138fb6138f16116ec565b9661147088611754565b6139156139066102e4565b6001600160a01b039098168852565b6001600160a01b03166020870152565b6001600160a01b0316848a0152565b6060830152871515608083015260a082015285516360a80dbb60e01b81529889958694859360048501613890565b03926001600160a01b03165af1928315611d60575f936139c5575b50821561398957505090565b909150156139ab5761399d6103909161270b565b670de0b6b3a7640000900490565b6139b7610390916126e7565b67120a871cc0020000900490565b6139e891935060403d6040116139f0575b6139e081836102c3565b81019061387a565b50915f61397d565b503d6139d656fe1b3d7edb2e9c0b0e7c525b20aaaef0f5940d2ed71663c7d39266ecafac728859a26469706673582212206b4a34c5a093aebac7bbb071b0649beb2588308cb0affa655d2d7be46669360e64736f6c634300081e0033","opcodes":"PUSH1 0xC0 CALLVALUE PUSH2 0xB2 JUMPI PUSH1 0x1F PUSH2 0x3B2C CODESIZE DUP2 SWAP1 SUB SWAP2 DUP3 ADD PUSH1 0x1F NOT AND DUP4 ADD SWAP2 PUSH1 0x1 PUSH1 0x1 PUSH1 0x40 SHL SUB DUP4 GT DUP5 DUP5 LT OR PUSH2 0xB6 JUMPI DUP1 DUP5 SWAP3 PUSH1 0x40 SWAP5 DUP6 MSTORE DUP4 CODECOPY DUP2 ADD SUB SLT PUSH2 0xB2 JUMPI PUSH2 0x52 PUSH1 0x20 PUSH2 0x4B DUP4 PUSH2 0xCA JUMP JUMPDEST SWAP3 ADD PUSH2 0xCA JUMP JUMPDEST SWAP1 PUSH1 0x80 MSTORE PUSH1 0xA0 MSTORE PUSH1 0x40 MLOAD PUSH2 0x3A4D SWAP1 DUP2 PUSH2 0xDF DUP3 CODECOPY PUSH1 0x80 MLOAD DUP2 DUP2 DUP2 PUSH2 0xEA5 ADD MSTORE DUP2 DUP2 PUSH2 0x1C5B ADD MSTORE DUP2 DUP2 PUSH2 0x1E61 ADD MSTORE DUP2 DUP2 PUSH2 0x22C3 ADD MSTORE PUSH2 0x245C ADD MSTORE PUSH1 0xA0 MLOAD DUP2 DUP2 DUP2 PUSH2 0x6F7 ADD MSTORE DUP2 DUP2 PUSH2 0x1CA0 ADD MSTORE DUP2 DUP2 PUSH2 0x1F1D ADD MSTORE DUP2 DUP2 PUSH2 0x2303 ADD MSTORE PUSH2 0x2511 ADD MSTORE RETURN JUMPDEST PUSH0 DUP1 REVERT JUMPDEST PUSH4 0x4E487B71 PUSH1 0xE0 SHL PUSH0 MSTORE PUSH1 0x41 PUSH1 0x4 MSTORE PUSH1 0x24 PUSH0 REVERT JUMPDEST MLOAD SWAP1 PUSH1 0x1 PUSH1 0x1 PUSH1 0xA0 SHL SUB DUP3 AND DUP3 SUB PUSH2 0xB2 JUMPI JUMP INVALID PUSH1 0x80 PUSH1 0x40 MSTORE PUSH1 0x4 CALLDATASIZE LT ISZERO PUSH2 0x11 JUMPI PUSH0 DUP1 REVERT JUMPDEST PUSH0 CALLDATALOAD PUSH1 0xE0 SHR DUP1 PUSH3 0xFDD58E EQ PUSH2 0x1C9 JUMPI DUP1 PUSH4 0x1FFC9A7 EQ PUSH2 0x1C4 JUMPI DUP1 PUSH4 0x4F71EF6 EQ PUSH2 0x165 JUMPI DUP1 PUSH4 0x95BCDB6 EQ PUSH2 0x1BF JUMPI DUP1 PUSH4 0x19920A5F EQ PUSH2 0x1BA JUMPI DUP1 PUSH4 0x2F380B35 EQ PUSH2 0x1B5 JUMPI DUP1 PUSH4 0x426A8493 EQ PUSH2 0x1B0 JUMPI DUP1 PUSH4 0x460C6DF8 EQ PUSH2 0x1AB JUMPI DUP1 PUSH4 0x558A7297 EQ PUSH2 0x1A6 JUMPI DUP1 PUSH4 0x5670F55A EQ PUSH2 0x1A1 JUMPI DUP1 PUSH4 0x598AF9E7 EQ PUSH2 0x19C JUMPI DUP1 PUSH4 0x5B298D32 EQ PUSH2 0x197 JUMPI DUP1 PUSH4 0x60A80DBB EQ PUSH2 0x17E JUMPI DUP1 PUSH4 0x61408F26 EQ PUSH2 0x192 JUMPI DUP1 PUSH4 0x7DC27C95 EQ PUSH2 0x18D JUMPI DUP1 PUSH4 0x83E66C2E EQ PUSH2 0x188 JUMPI DUP1 PUSH4 0x8E832E08 EQ PUSH2 0x183 JUMPI DUP1 PUSH4 0x8F155291 EQ PUSH2 0x17E JUMPI DUP1 PUSH4 0x9D2EC6E4 EQ PUSH2 0x179 JUMPI DUP1 PUSH4 0xA1A44DAD EQ PUSH2 0x174 JUMPI DUP1 PUSH4 0xB5E60C3C EQ PUSH2 0x16F JUMPI DUP1 PUSH4 0xB6363CF2 EQ PUSH2 0x16A JUMPI DUP1 PUSH4 0xC279171D EQ PUSH2 0x165 JUMPI DUP1 PUSH4 0xCB1F2F38 EQ PUSH2 0x160 JUMPI DUP1 PUSH4 0xD2615FC8 EQ PUSH2 0x15B JUMPI DUP1 PUSH4 0xD92BC84C EQ PUSH2 0x156 JUMPI DUP1 PUSH4 0xE513315B EQ PUSH2 0x151 JUMPI PUSH4 0xFE99049A EQ PUSH2 0x14C JUMPI PUSH0 DUP1 REVERT JUMPDEST PUSH2 0x153E JUMP JUMPDEST PUSH2 0x136A JUMP JUMPDEST PUSH2 0x115E JUMP JUMPDEST PUSH2 0x1118 JUMP JUMPDEST PUSH2 0xF61 JUMP JUMPDEST PUSH2 0x5F5 JUMP JUMPDEST PUSH2 0xEFE JUMP JUMPDEST PUSH2 0xED4 JUMP JUMPDEST PUSH2 0xE90 JUMP JUMPDEST PUSH2 0xE1E JUMP JUMPDEST PUSH2 0xCC1 JUMP JUMPDEST PUSH2 0xDD9 JUMP JUMPDEST PUSH2 0xD93 JUMP JUMPDEST PUSH2 0xD2F JUMP JUMPDEST PUSH2 0xCEA JUMP JUMPDEST PUSH2 0xC1C JUMP JUMPDEST PUSH2 0xBAF JUMP JUMPDEST PUSH2 0x9B7 JUMP JUMPDEST PUSH2 0x91B JUMP JUMPDEST PUSH2 0x8B5 JUMP JUMPDEST PUSH2 0x824 JUMP JUMPDEST PUSH2 0x726 JUMP JUMPDEST PUSH2 0x6E2 JUMP JUMPDEST PUSH2 0x643 JUMP JUMPDEST PUSH2 0x239 JUMP JUMPDEST PUSH2 0x1F0 JUMP JUMPDEST PUSH1 0x1 PUSH1 0x1 PUSH1 0xA0 SHL SUB DUP2 AND SUB PUSH2 0x1DF JUMPI JUMP JUMPDEST PUSH0 DUP1 REVERT JUMPDEST CALLDATALOAD SWAP1 PUSH2 0x1EE DUP3 PUSH2 0x1CE JUMP JUMPDEST JUMP JUMPDEST CALLVALUE PUSH2 0x1DF JUMPI PUSH1 0x40 CALLDATASIZE PUSH1 0x3 NOT ADD SLT PUSH2 0x1DF JUMPI PUSH1 0x4 CALLDATALOAD PUSH2 0x20D DUP2 PUSH2 0x1CE JUMP JUMPDEST PUSH1 0x24 CALLDATALOAD SWAP1 PUSH1 0x1 DUP1 PUSH1 0xA0 SHL SUB AND PUSH0 MSTORE PUSH1 0x1 PUSH1 0x20 MSTORE PUSH1 0x40 PUSH0 KECCAK256 SWAP1 PUSH0 MSTORE PUSH1 0x20 MSTORE PUSH1 0x20 PUSH1 0x40 PUSH0 KECCAK256 SLOAD PUSH1 0x40 MLOAD SWAP1 DUP2 MSTORE RETURN JUMPDEST CALLVALUE PUSH2 0x1DF JUMPI PUSH1 0x20 CALLDATASIZE PUSH1 0x3 NOT ADD SLT PUSH2 0x1DF JUMPI PUSH1 0x4 CALLDATALOAD PUSH4 0xFFFFFFFF PUSH1 0xE0 SHL DUP2 AND DUP1 SWAP2 SUB PUSH2 0x1DF JUMPI PUSH1 0x20 SWAP1 PUSH4 0x1FFC9A7 PUSH1 0xE0 SHL DUP2 EQ SWAP1 DUP2 ISZERO PUSH2 0x27E JUMPI JUMPDEST POP PUSH1 0x40 MLOAD SWAP1 ISZERO ISZERO DUP2 MSTORE RETURN JUMPDEST PUSH4 0xF632FB3 PUSH1 0xE0 SHL EQ SWAP1 POP PUSH0 PUSH2 0x273 JUMP JUMPDEST PUSH4 0x4E487B71 PUSH1 0xE0 SHL PUSH0 MSTORE PUSH1 0x41 PUSH1 0x4 MSTORE PUSH1 0x24 PUSH0 REVERT JUMPDEST PUSH1 0x80 DUP2 ADD SWAP1 DUP2 LT PUSH1 0x1 PUSH1 0x1 PUSH1 0x40 SHL SUB DUP3 GT OR PUSH2 0x2BE JUMPI PUSH1 0x40 MSTORE JUMP JUMPDEST PUSH2 0x28F JUMP JUMPDEST SWAP1 PUSH1 0x1F DUP1 NOT SWAP2 ADD AND DUP2 ADD SWAP1 DUP2 LT PUSH1 0x1 PUSH1 0x1 PUSH1 0x40 SHL SUB DUP3 GT OR PUSH2 0x2BE JUMPI PUSH1 0x40 MSTORE JUMP JUMPDEST PUSH1 0x40 MLOAD SWAP1 PUSH2 0x1EE PUSH1 0xC0 DUP4 PUSH2 0x2C3 JUMP JUMPDEST PUSH1 0x40 MLOAD SWAP1 PUSH2 0x1EE PUSH1 0x80 DUP4 PUSH2 0x2C3 JUMP JUMPDEST PUSH1 0x40 MLOAD SWAP1 PUSH2 0x1EE PUSH2 0x100 DUP4 PUSH2 0x2C3 JUMP JUMPDEST PUSH1 0x1 PUSH1 0x1 PUSH1 0x40 SHL SUB DUP2 GT PUSH2 0x2BE JUMPI PUSH1 0x5 SHL PUSH1 0x20 ADD SWAP1 JUMP JUMPDEST SWAP3 SWAP2 SWAP1 PUSH2 0x335 DUP2 PUSH2 0x312 JUMP JUMPDEST SWAP4 PUSH2 0x343 PUSH1 0x40 MLOAD SWAP6 DUP7 PUSH2 0x2C3 JUMP JUMPDEST PUSH1 0x20 DUP6 DUP4 DUP2 MSTORE ADD SWAP2 PUSH1 0x5 SHL DUP2 ADD SWAP3 DUP4 GT PUSH2 0x1DF JUMPI SWAP1 JUMPDEST DUP3 DUP3 LT PUSH2 0x365 JUMPI POP POP POP JUMP JUMPDEST DUP2 CALLDATALOAD DUP2 MSTORE PUSH1 0x20 SWAP2 DUP3 ADD SWAP2 ADD PUSH2 0x359 JUMP JUMPDEST SWAP1 DUP1 PUSH1 0x1F DUP4 ADD SLT ISZERO PUSH2 0x1DF JUMPI DUP2 PUSH1 0x20 PUSH2 0x390 SWAP4 CALLDATALOAD SWAP2 ADD PUSH2 0x329 JUMP JUMPDEST SWAP1 JUMP JUMPDEST DUP1 ISZERO ISZERO SUB PUSH2 0x1DF JUMPI JUMP JUMPDEST CALLDATALOAD SWAP1 PUSH2 0x1EE DUP3 PUSH2 0x393 JUMP JUMPDEST PUSH1 0x1 PUSH1 0x1 PUSH1 0xE8 SHL SUB NOT DUP2 AND SUB PUSH2 0x1DF JUMPI JUMP JUMPDEST SWAP3 SWAP2 SWAP1 PUSH2 0x3C6 DUP2 PUSH2 0x312 JUMP JUMPDEST SWAP4 PUSH2 0x3D4 PUSH1 0x40 MLOAD SWAP6 DUP7 PUSH2 0x2C3 JUMP JUMPDEST PUSH1 0x20 DUP6 DUP4 DUP2 MSTORE ADD SWAP2 PUSH1 0x5 SHL DUP2 ADD SWAP3 DUP4 GT PUSH2 0x1DF JUMPI SWAP1 JUMPDEST DUP3 DUP3 LT PUSH2 0x3F6 JUMPI POP POP POP JUMP JUMPDEST PUSH1 0x20 DUP1 SWAP2 DUP4 CALLDATALOAD PUSH2 0x405 DUP2 PUSH2 0x3A8 JUMP JUMPDEST DUP2 MSTORE ADD SWAP2 ADD SWAP1 PUSH2 0x3EA JUMP JUMPDEST SWAP1 DUP1 PUSH1 0x1F DUP4 ADD SLT ISZERO PUSH2 0x1DF JUMPI DUP2 PUSH1 0x20 PUSH2 0x390 SWAP4 CALLDATALOAD SWAP2 ADD PUSH2 0x3BA JUMP JUMPDEST SWAP2 SWAP1 SWAP2 PUSH1 0xC0 DUP2 DUP5 SUB SLT PUSH2 0x1DF JUMPI PUSH2 0x440 PUSH2 0x2E4 JUMP JUMPDEST SWAP3 PUSH2 0x44A DUP3 PUSH2 0x1E3 JUMP JUMPDEST DUP5 MSTORE PUSH2 0x458 PUSH1 0x20 DUP4 ADD PUSH2 0x1E3 JUMP JUMPDEST PUSH1 0x20 DUP6 ADD MSTORE PUSH2 0x469 PUSH1 0x40 DUP4 ADD PUSH2 0x1E3 JUMP JUMPDEST PUSH1 0x40 DUP6 ADD MSTORE PUSH1 0x60 DUP3 ADD CALLDATALOAD PUSH1 0x1 PUSH1 0x1 PUSH1 0x40 SHL SUB DUP2 GT PUSH2 0x1DF JUMPI DUP2 PUSH2 0x48D SWAP2 DUP5 ADD PUSH2 0x375 JUMP JUMPDEST PUSH1 0x60 DUP6 ADD MSTORE PUSH2 0x49E PUSH1 0x80 DUP4 ADD PUSH2 0x39D JUMP JUMPDEST PUSH1 0x80 DUP6 ADD MSTORE PUSH1 0xA0 DUP3 ADD CALLDATALOAD PUSH1 0x1 PUSH1 0x1 PUSH1 0x40 SHL SUB DUP2 GT PUSH2 0x1DF JUMPI PUSH2 0x4C0 SWAP3 ADD PUSH2 0x410 JUMP JUMPDEST PUSH1 0xA0 DUP4 ADD MSTORE JUMP JUMPDEST SWAP1 DUP1 PUSH1 0x1F DUP4 ADD SLT ISZERO PUSH2 0x1DF JUMPI DUP2 CALLDATALOAD SWAP1 PUSH2 0x4DF DUP3 PUSH2 0x312 JUMP JUMPDEST SWAP3 PUSH2 0x4ED PUSH1 0x40 MLOAD SWAP5 DUP6 PUSH2 0x2C3 JUMP JUMPDEST DUP3 DUP5 MSTORE PUSH1 0x20 DUP1 DUP6 ADD SWAP4 PUSH1 0x5 SHL DUP3 ADD ADD SWAP2 DUP3 GT PUSH2 0x1DF JUMPI PUSH1 0x20 ADD SWAP2 JUMPDEST DUP2 DUP4 LT PUSH2 0x515 JUMPI POP POP POP SWAP1 JUMP JUMPDEST DUP3 CALLDATALOAD PUSH1 0x1 PUSH1 0x1 PUSH1 0x80 SHL SUB DUP2 AND DUP2 SUB PUSH2 0x1DF JUMPI DUP2 MSTORE PUSH1 0x20 SWAP3 DUP4 ADD SWAP3 ADD PUSH2 0x508 JUMP JUMPDEST PUSH1 0x60 PUSH1 0x3 NOT DUP3 ADD SLT PUSH2 0x1DF JUMPI PUSH1 0x4 CALLDATALOAD PUSH1 0x1 PUSH1 0x1 PUSH1 0x40 SHL SUB DUP2 GT PUSH2 0x1DF JUMPI DUP2 PUSH2 0x55F SWAP2 PUSH1 0x4 ADD PUSH2 0x42B JUMP JUMPDEST SWAP2 PUSH1 0x24 CALLDATALOAD PUSH1 0x1 PUSH1 0x1 PUSH1 0x40 SHL SUB DUP2 GT PUSH2 0x1DF JUMPI DUP3 PUSH2 0x57E SWAP2 PUSH1 0x4 ADD PUSH2 0x4C7 JUMP JUMPDEST SWAP2 PUSH1 0x44 CALLDATALOAD SWAP1 PUSH1 0x1 PUSH1 0x1 PUSH1 0x40 SHL SUB DUP3 GT PUSH2 0x1DF JUMPI PUSH2 0x390 SWAP2 PUSH1 0x4 ADD PUSH2 0x4C7 JUMP JUMPDEST SWAP1 PUSH1 0x20 DUP1 DUP4 MLOAD SWAP3 DUP4 DUP2 MSTORE ADD SWAP3 ADD SWAP1 PUSH0 JUMPDEST DUP2 DUP2 LT PUSH2 0x5BA JUMPI POP POP POP SWAP1 JUMP JUMPDEST DUP3 MLOAD DUP5 MSTORE PUSH1 0x20 SWAP4 DUP5 ADD SWAP4 SWAP1 SWAP3 ADD SWAP2 PUSH1 0x1 ADD PUSH2 0x5AD JUMP JUMPDEST SWAP1 SWAP2 PUSH2 0x5E7 PUSH2 0x390 SWAP4 PUSH1 0x40 DUP5 MSTORE PUSH1 0x40 DUP5 ADD SWAP1 PUSH2 0x59D JUMP JUMPDEST SWAP2 PUSH1 0x20 DUP2 DUP5 SUB SWAP2 ADD MSTORE PUSH2 0x59D JUMP JUMPDEST CALLVALUE PUSH2 0x1DF JUMPI PUSH2 0x60C PUSH2 0x606 CALLDATASIZE PUSH2 0x535 JUMP JUMPDEST SWAP2 PUSH2 0x1A31 JUMP JUMPDEST SWAP1 PUSH2 0x61C PUSH1 0x40 MLOAD SWAP3 DUP4 SWAP3 DUP4 PUSH2 0x5D0 JUMP JUMPDEST SUB SWAP1 RETURN JUMPDEST PUSH1 0x60 SWAP1 PUSH1 0x3 NOT ADD SLT PUSH2 0x1DF JUMPI PUSH1 0x4 CALLDATALOAD PUSH2 0x638 DUP2 PUSH2 0x1CE JUMP JUMPDEST SWAP1 PUSH1 0x24 CALLDATALOAD SWAP1 PUSH1 0x44 CALLDATALOAD SWAP1 JUMP JUMPDEST CALLVALUE PUSH2 0x1DF JUMPI PUSH2 0x651 CALLDATASIZE PUSH2 0x620 JUMP JUMPDEST SWAP1 SWAP2 CALLER PUSH0 MSTORE PUSH1 0x1 PUSH1 0x20 MSTORE PUSH1 0x40 PUSH0 KECCAK256 DUP4 PUSH0 MSTORE PUSH1 0x20 MSTORE PUSH1 0x40 PUSH0 KECCAK256 DUP1 SLOAD SWAP1 DUP4 DUP3 SUB SWAP2 DUP3 GT PUSH2 0x6DD JUMPI SSTORE PUSH1 0x1 DUP1 PUSH1 0xA0 SHL SUB AND SWAP1 DUP2 PUSH0 MSTORE PUSH1 0x1 PUSH1 0x20 MSTORE PUSH2 0x69D DUP4 PUSH1 0x40 PUSH0 KECCAK256 SWAP1 PUSH0 MSTORE PUSH1 0x20 MSTORE PUSH1 0x40 PUSH0 KECCAK256 SWAP1 JUMP JUMPDEST PUSH2 0x6A8 DUP3 DUP3 SLOAD PUSH2 0x2021 JUMP JUMPDEST SWAP1 SSTORE PUSH1 0x40 DUP1 MLOAD CALLER DUP1 DUP3 MSTORE PUSH1 0x20 DUP3 ADD SWAP4 SWAP1 SWAP4 MSTORE PUSH0 MLOAD PUSH1 0x20 PUSH2 0x39F8 PUSH0 CODECOPY PUSH0 MLOAD SWAP1 PUSH0 MSTORE SWAP2 DUP2 SWAP1 DUP2 ADD JUMPDEST SUB SWAP1 LOG4 PUSH1 0x40 MLOAD PUSH1 0x1 DUP2 MSTORE PUSH1 0x20 SWAP1 RETURN JUMPDEST PUSH2 0x1FF2 JUMP JUMPDEST CALLVALUE PUSH2 0x1DF JUMPI PUSH0 CALLDATASIZE PUSH1 0x3 NOT ADD SLT PUSH2 0x1DF JUMPI PUSH1 0x40 MLOAD PUSH32 0x0 PUSH1 0x1 PUSH1 0x1 PUSH1 0xA0 SHL SUB AND DUP2 MSTORE PUSH1 0x20 SWAP1 RETURN JUMPDEST CALLVALUE PUSH2 0x1DF JUMPI PUSH1 0x20 CALLDATASIZE PUSH1 0x3 NOT ADD SLT PUSH2 0x1DF JUMPI PUSH1 0x4 CALLDATALOAD PUSH0 PUSH1 0x60 PUSH1 0x40 MLOAD PUSH2 0x749 DUP2 PUSH2 0x2A3 JUMP JUMPDEST DUP3 DUP2 MSTORE DUP3 PUSH1 0x20 DUP3 ADD MSTORE DUP3 PUSH1 0x40 DUP3 ADD MSTORE ADD MSTORE PUSH0 MSTORE PUSH1 0x7 PUSH1 0x20 MSTORE PUSH1 0x40 PUSH0 KECCAK256 PUSH1 0x40 MLOAD SWAP1 PUSH2 0x772 DUP3 PUSH2 0x2A3 JUMP JUMPDEST DUP1 SLOAD PUSH1 0x1 PUSH1 0x1 PUSH1 0xA0 SHL SUB SWAP1 DUP2 AND DUP1 DUP5 MSTORE PUSH1 0x1 DUP4 ADD SLOAD DUP3 AND PUSH1 0x20 DUP6 ADD DUP2 SWAP1 MSTORE PUSH1 0x2 SWAP1 SWAP4 ADD SLOAD SWAP2 DUP3 AND PUSH1 0x40 DUP6 ADD DUP2 SWAP1 MSTORE PUSH1 0x48 SWAP3 SWAP1 SWAP3 SHL PUSH1 0x1 PUSH1 0x1 PUSH1 0xE8 SHL SUB NOT AND PUSH1 0x60 SWAP5 SWAP1 SWAP5 ADD DUP5 SWAP1 MSTORE SWAP1 SWAP3 PUSH2 0x61C SWAP2 PUSH2 0x7E9 SWAP1 PUSH2 0x7DB SWAP1 PUSH2 0x7CE SWAP1 DUP2 JUMP JUMPDEST SWAP6 PUSH1 0x1 PUSH1 0x1 PUSH1 0xA0 SHL SUB AND SWAP1 JUMP JUMPDEST SWAP2 PUSH1 0x1 PUSH1 0x1 PUSH1 0xE8 SHL SUB NOT AND SWAP1 JUMP JUMPDEST PUSH1 0x40 DUP1 MLOAD PUSH1 0x1 PUSH1 0x1 PUSH1 0xA0 SHL SUB SWAP6 DUP7 AND DUP2 MSTORE SWAP6 DUP6 AND PUSH1 0x20 DUP8 ADD MSTORE SWAP2 SWAP1 SWAP4 AND SWAP1 DUP5 ADD MSTORE PUSH1 0x1 PUSH1 0x1 PUSH1 0xE8 SHL SUB NOT SWAP1 SWAP2 AND PUSH1 0x60 DUP4 ADD MSTORE DUP2 SWAP1 PUSH1 0x80 DUP3 ADD SWAP1 JUMP JUMPDEST CALLVALUE PUSH2 0x1DF JUMPI PUSH2 0x832 CALLDATASIZE PUSH2 0x620 JUMP JUMPDEST SWAP1 SWAP2 CALLER PUSH0 MSTORE PUSH1 0x2 PUSH1 0x20 MSTORE PUSH2 0x859 DUP2 PUSH1 0x40 PUSH0 KECCAK256 SWAP1 PUSH1 0x1 DUP1 PUSH1 0xA0 SHL SUB AND PUSH0 MSTORE PUSH1 0x20 MSTORE PUSH1 0x40 PUSH0 KECCAK256 SWAP1 JUMP JUMPDEST DUP4 PUSH0 MSTORE PUSH1 0x20 MSTORE DUP2 PUSH1 0x40 PUSH0 KECCAK256 SSTORE PUSH1 0x40 MLOAD SWAP2 DUP3 MSTORE PUSH1 0x1 DUP1 PUSH1 0xA0 SHL SUB AND SWAP1 PUSH32 0xB3FD5071835887567A0671151121894DDCCC2842F1D10BEDAD13E0D17CACE9A7 PUSH1 0x20 CALLER SWAP3 LOG4 PUSH1 0x20 PUSH1 0x40 MLOAD PUSH1 0x1 DUP2 MSTORE RETURN JUMPDEST PUSH1 0x4 CALLDATALOAD SWAP1 PUSH1 0xFF DUP3 AND DUP3 SUB PUSH2 0x1DF JUMPI JUMP JUMPDEST CALLVALUE PUSH2 0x1DF JUMPI PUSH1 0x40 CALLDATASIZE PUSH1 0x3 NOT ADD SLT PUSH2 0x1DF JUMPI PUSH2 0x919 PUSH2 0x8D1 PUSH2 0x8A5 JUMP JUMPDEST PUSH1 0xFF PUSH1 0x24 CALLDATALOAD SWAP2 PUSH2 0x8E0 DUP4 PUSH2 0x1CE JUMP JUMPDEST AND PUSH2 0x8ED PUSH1 0x10 DUP3 LT PUSH2 0x202E JUMP JUMPDEST PUSH0 MSTORE PUSH1 0x3 PUSH1 0x20 MSTORE PUSH1 0x40 PUSH0 KECCAK256 SWAP1 PUSH1 0x1 DUP1 PUSH1 0xA0 SHL SUB AND PUSH12 0xFFFFFFFFFFFFFFFFFFFFFFFF PUSH1 0xA0 SHL DUP3 SLOAD AND OR SWAP1 SSTORE JUMP JUMPDEST STOP JUMPDEST CALLVALUE PUSH2 0x1DF JUMPI PUSH1 0x40 CALLDATASIZE PUSH1 0x3 NOT ADD SLT PUSH2 0x1DF JUMPI PUSH1 0x4 CALLDATALOAD PUSH2 0x938 DUP2 PUSH2 0x1CE JUMP JUMPDEST PUSH1 0x24 CALLDATALOAD SWAP1 PUSH2 0x945 DUP3 PUSH2 0x393 JUMP JUMPDEST CALLER PUSH0 SWAP1 DUP2 MSTORE PUSH1 0x20 DUP2 DUP2 MSTORE PUSH1 0x40 DUP1 DUP4 KECCAK256 PUSH1 0x1 PUSH1 0x1 PUSH1 0xA0 SHL SUB DUP6 AND DUP5 MSTORE SWAP1 SWAP2 MSTORE SWAP1 KECCAK256 SWAP2 ISZERO ISZERO SWAP2 PUSH1 0xFF NOT DUP2 SLOAD AND PUSH1 0xFF DUP5 AND OR SWAP1 SSTORE PUSH1 0x40 MLOAD SWAP2 DUP3 MSTORE PUSH1 0x1 DUP1 PUSH1 0xA0 SHL SUB AND SWAP1 PUSH32 0xCEB576D9F15E4E200FDB5096D64D5DFD667E16DEF20C1EEFD14256D8E3FAA267 PUSH1 0x20 CALLER SWAP3 LOG3 PUSH1 0x40 MLOAD PUSH1 0x1 DUP2 MSTORE PUSH1 0x20 SWAP1 RETURN JUMPDEST CALLVALUE PUSH2 0x1DF JUMPI PUSH1 0x80 CALLDATASIZE PUSH1 0x3 NOT ADD SLT PUSH2 0x1DF JUMPI PUSH1 0x4 CALLDATALOAD PUSH2 0x9D4 DUP2 PUSH2 0x1CE JUMP JUMPDEST PUSH1 0x24 CALLDATALOAD PUSH2 0x9E0 DUP2 PUSH2 0x1CE JUMP JUMPDEST PUSH1 0x44 CALLDATALOAD SWAP2 PUSH2 0x9ED DUP4 PUSH2 0x1CE JUMP JUMPDEST PUSH1 0x64 CALLDATALOAD SWAP2 PUSH2 0x9FA DUP4 PUSH2 0x3A8 JUMP JUMPDEST PUSH2 0xA06 DUP4 DUP6 DUP4 DUP6 PUSH2 0x2876 JUMP JUMPDEST SWAP3 PUSH1 0x1 DUP1 PUSH1 0xA0 SHL SUB PUSH2 0xA33 PUSH1 0x2 PUSH2 0xA25 DUP8 PUSH0 MSTORE PUSH1 0x7 PUSH1 0x20 MSTORE PUSH1 0x40 PUSH0 KECCAK256 SWAP1 JUMP JUMPDEST ADD SLOAD PUSH1 0x1 PUSH1 0x1 PUSH1 0xA0 SHL SUB AND SWAP1 JUMP JUMPDEST AND PUSH2 0xB9B JUMPI PUSH2 0x61C SWAP5 DUP5 SWAP4 PUSH32 0x68DF9A4EB7AACBE8F43763BFBC9F7CA135A5397190EA1CCE2558DB52DC2F3692 SWAP4 SWAP2 SWAP3 SWAP1 SWAP2 SWAP1 PUSH1 0x1 PUSH1 0x1 PUSH1 0xA0 SHL SUB DUP1 DUP4 AND SWAP1 DUP5 AND LT ISZERO PUSH2 0xB90 JUMPI PUSH2 0xB7D SWAP2 SWAP4 JUMPDEST PUSH2 0xB41 PUSH2 0xA8A PUSH2 0x2F3 JUMP JUMPDEST PUSH1 0x1 PUSH1 0x1 PUSH1 0xA0 SHL SUB DUP7 AND DUP2 MSTORE PUSH1 0x1 PUSH1 0x1 PUSH1 0xA0 SHL SUB DUP8 AND PUSH1 0x20 DUP3 ADD MSTORE PUSH1 0x1 PUSH1 0x1 PUSH1 0xA0 SHL SUB DUP4 AND PUSH1 0x40 DUP3 ADD MSTORE PUSH1 0x1 PUSH1 0x1 PUSH1 0xE8 SHL SUB NOT DUP5 AND PUSH1 0x60 DUP3 ADD MSTORE PUSH2 0xAD6 DUP10 PUSH0 MSTORE PUSH1 0x7 PUSH1 0x20 MSTORE PUSH1 0x40 PUSH0 KECCAK256 SWAP1 JUMP JUMPDEST DUP2 MLOAD DUP2 SLOAD PUSH1 0x1 PUSH1 0x1 PUSH1 0xA0 SHL SUB NOT SWAP1 DUP2 AND PUSH1 0x1 PUSH1 0x1 PUSH1 0xA0 SHL SUB SWAP3 DUP4 AND OR DUP4 SSTORE PUSH1 0x20 DUP5 ADD MLOAD PUSH1 0x1 DUP5 ADD DUP1 SLOAD SWAP1 SWAP3 AND SWAP1 DUP4 AND OR SWAP1 SSTORE PUSH1 0x40 DUP4 ADD MLOAD PUSH1 0x2 SWAP1 SWAP3 ADD DUP1 SLOAD PUSH1 0x60 SWAP1 SWAP5 ADD MLOAD SWAP3 SWAP1 SWAP2 AND PUSH1 0x1 PUSH1 0x1 PUSH1 0xB8 SHL SUB NOT SWAP1 SWAP4 AND SWAP3 SWAP1 SWAP3 OR PUSH1 0x48 SWAP2 SWAP1 SWAP2 SHR PUSH3 0xFFFFFF PUSH1 0xA0 SHL AND OR SWAP1 SSTORE JUMP JUMPDEST PUSH1 0x40 DUP1 MLOAD PUSH1 0x1 PUSH1 0x1 PUSH1 0xA0 SHL SUB SWAP6 DUP7 AND DUP2 MSTORE SWAP6 DUP6 AND PUSH1 0x20 DUP8 ADD MSTORE SWAP4 AND SWAP3 DUP5 ADD SWAP3 SWAP1 SWAP3 MSTORE PUSH1 0x1 PUSH1 0x1 PUSH1 0xE8 SHL SUB NOT SWAP1 SWAP2 AND PUSH1 0x60 DUP4 ADD MSTORE DUP2 SWAP1 PUSH1 0x80 DUP3 ADD SWAP1 JUMP JUMPDEST SUB SWAP1 LOG2 PUSH1 0x40 MLOAD SWAP1 DUP2 MSTORE SWAP1 DUP2 SWAP1 PUSH1 0x20 DUP3 ADD SWAP1 JUMP JUMPDEST PUSH2 0xB7D SWAP2 SWAP3 SWAP4 PUSH2 0xA7F JUMP JUMPDEST PUSH4 0xE1ECC133 PUSH1 0xE0 SHL PUSH0 MSTORE PUSH1 0x4 DUP5 SWAP1 MSTORE PUSH1 0x24 PUSH0 REVERT JUMPDEST CALLVALUE PUSH2 0x1DF JUMPI PUSH1 0x60 CALLDATASIZE PUSH1 0x3 NOT ADD SLT PUSH2 0x1DF JUMPI PUSH1 0x4 CALLDATALOAD PUSH2 0xBCC DUP2 PUSH2 0x1CE JUMP JUMPDEST PUSH2 0xC07 PUSH1 0x24 CALLDATALOAD PUSH2 0xBDB DUP2 PUSH2 0x1CE JUMP JUMPDEST PUSH1 0x44 CALLDATALOAD SWAP3 PUSH1 0x1 DUP1 PUSH1 0xA0 SHL SUB AND PUSH0 MSTORE PUSH1 0x2 PUSH1 0x20 MSTORE PUSH1 0x40 PUSH0 KECCAK256 SWAP1 PUSH1 0x1 DUP1 PUSH1 0xA0 SHL SUB AND PUSH0 MSTORE PUSH1 0x20 MSTORE PUSH1 0x40 PUSH0 KECCAK256 SWAP1 JUMP JUMPDEST SWAP1 PUSH0 MSTORE PUSH1 0x20 MSTORE PUSH1 0x20 PUSH1 0x40 PUSH0 KECCAK256 SLOAD PUSH1 0x40 MLOAD SWAP1 DUP2 MSTORE RETURN JUMPDEST CALLVALUE PUSH2 0x1DF JUMPI PUSH1 0x20 CALLDATASIZE PUSH1 0x3 NOT ADD SLT PUSH2 0x1DF JUMPI PUSH1 0x40 PUSH1 0x1 PUSH1 0x1 PUSH1 0x80 SHL SUB PUSH2 0xC5B PUSH1 0x4 CALLDATALOAD PUSH0 MSTORE PUSH1 0x6 PUSH1 0x20 MSTORE PUSH1 0x40 PUSH0 KECCAK256 SLOAD SWAP1 PUSH1 0x1 PUSH1 0x1 PUSH1 0x80 SHL SUB DUP3 AND SWAP2 PUSH1 0x80 SHR SWAP1 JUMP JUMPDEST DUP4 MLOAD SWAP2 DUP4 AND DUP3 MSTORE SWAP1 SWAP2 AND PUSH1 0x20 DUP3 ADD MSTORE RETURN JUMPDEST PUSH1 0x60 PUSH1 0x3 NOT DUP3 ADD SLT PUSH2 0x1DF JUMPI PUSH1 0x4 CALLDATALOAD SWAP1 PUSH1 0x1 PUSH1 0x1 PUSH1 0x40 SHL SUB DUP3 GT PUSH2 0x1DF JUMPI PUSH2 0xC96 SWAP2 PUSH1 0x4 ADD PUSH2 0x42B JUMP JUMPDEST SWAP1 PUSH1 0x24 CALLDATALOAD PUSH1 0x1 PUSH1 0x1 PUSH1 0x80 SHL SUB DUP2 AND DUP2 SUB PUSH2 0x1DF JUMPI SWAP1 PUSH1 0x44 CALLDATALOAD PUSH1 0x1 PUSH1 0x1 PUSH1 0x80 SHL SUB DUP2 AND DUP2 SUB PUSH2 0x1DF JUMPI SWAP1 JUMP JUMPDEST CALLVALUE PUSH2 0x1DF JUMPI PUSH2 0xCD8 PUSH2 0xCD2 CALLDATASIZE PUSH2 0xC6C JUMP JUMPDEST SWAP2 PUSH2 0x2169 JUMP JUMPDEST PUSH1 0x40 DUP1 MLOAD SWAP3 DUP4 MSTORE PUSH1 0x20 DUP4 ADD SWAP2 SWAP1 SWAP2 MSTORE SWAP1 RETURN JUMPDEST CALLVALUE PUSH2 0x1DF JUMPI PUSH1 0x20 CALLDATASIZE PUSH1 0x3 NOT ADD SLT PUSH2 0x1DF JUMPI PUSH1 0xFF PUSH2 0xD05 PUSH2 0x8A5 JUMP JUMPDEST AND PUSH2 0xD12 PUSH1 0x10 DUP3 LT PUSH2 0x202E JUMP JUMPDEST PUSH0 SWAP1 DUP2 MSTORE PUSH1 0x4 PUSH1 0x20 MSTORE PUSH1 0x40 SWAP1 KECCAK256 DUP1 SLOAD PUSH1 0x1 PUSH1 0x1 PUSH1 0xA0 SHL SUB NOT AND SWAP1 SSTORE STOP JUMPDEST CALLVALUE PUSH2 0x1DF JUMPI PUSH1 0x40 CALLDATASIZE PUSH1 0x3 NOT ADD SLT PUSH2 0x1DF JUMPI PUSH2 0x919 PUSH2 0xD4B PUSH2 0x8A5 JUMP JUMPDEST PUSH1 0xFF PUSH1 0x24 CALLDATALOAD SWAP2 PUSH2 0xD5A DUP4 PUSH2 0x1CE JUMP JUMPDEST AND PUSH2 0xD67 PUSH1 0x10 DUP3 LT PUSH2 0x202E JUMP JUMPDEST PUSH0 MSTORE PUSH1 0x4 PUSH1 0x20 MSTORE PUSH1 0x40 PUSH0 KECCAK256 SWAP1 PUSH1 0x1 DUP1 PUSH1 0xA0 SHL SUB AND PUSH12 0xFFFFFFFFFFFFFFFFFFFFFFFF PUSH1 0xA0 SHL DUP3 SLOAD AND OR SWAP1 SSTORE JUMP JUMPDEST CALLVALUE PUSH2 0x1DF JUMPI PUSH1 0x20 CALLDATASIZE PUSH1 0x3 NOT ADD SLT PUSH2 0x1DF JUMPI PUSH1 0xFF PUSH2 0xDAE PUSH2 0x8A5 JUMP JUMPDEST AND PUSH2 0xDBB PUSH1 0x10 DUP3 LT PUSH2 0x202E JUMP JUMPDEST PUSH0 MSTORE PUSH1 0x4 PUSH1 0x20 MSTORE PUSH1 0x20 PUSH1 0x1 DUP1 PUSH1 0xA0 SHL SUB PUSH1 0x40 PUSH0 KECCAK256 SLOAD AND PUSH1 0x40 MLOAD SWAP1 DUP2 MSTORE RETURN JUMPDEST CALLVALUE PUSH2 0x1DF JUMPI PUSH1 0x20 CALLDATASIZE PUSH1 0x3 NOT ADD SLT PUSH2 0x1DF JUMPI PUSH1 0xFF PUSH2 0xDF4 PUSH2 0x8A5 JUMP JUMPDEST AND PUSH2 0xE01 PUSH1 0x10 DUP3 LT PUSH2 0x202E JUMP JUMPDEST PUSH0 SWAP1 DUP2 MSTORE PUSH1 0x3 PUSH1 0x20 MSTORE PUSH1 0x40 SWAP1 KECCAK256 DUP1 SLOAD PUSH1 0x1 PUSH1 0x1 PUSH1 0xA0 SHL SUB NOT AND SWAP1 SSTORE STOP JUMPDEST PUSH1 0x60 CALLDATASIZE PUSH1 0x3 NOT ADD SLT PUSH2 0x1DF JUMPI PUSH1 0x4 CALLDATALOAD PUSH1 0x1 PUSH1 0x1 PUSH1 0x40 SHL SUB DUP2 GT PUSH2 0x1DF JUMPI CALLDATASIZE PUSH1 0x23 DUP3 ADD SLT ISZERO PUSH2 0x1DF JUMPI DUP1 PUSH1 0x4 ADD CALLDATALOAD PUSH1 0x1 PUSH1 0x1 PUSH1 0x40 SHL SUB DUP2 GT PUSH2 0x1DF JUMPI CALLDATASIZE PUSH1 0x24 DUP3 PUSH1 0x5 SHL DUP5 ADD ADD GT PUSH2 0x1DF JUMPI PUSH2 0x61C SWAP2 PUSH2 0xE80 SWAP2 PUSH1 0x24 CALLDATALOAD SWAP1 PUSH1 0x24 PUSH1 0x44 CALLDATALOAD SWAP4 ADD PUSH2 0x25AB JUMP JUMPDEST PUSH1 0x40 MLOAD SWAP1 DUP2 MSTORE SWAP1 DUP2 SWAP1 PUSH1 0x20 DUP3 ADD SWAP1 JUMP JUMPDEST CALLVALUE PUSH2 0x1DF JUMPI PUSH0 CALLDATASIZE PUSH1 0x3 NOT ADD SLT PUSH2 0x1DF JUMPI PUSH1 0x40 MLOAD PUSH32 0x0 PUSH1 0x1 PUSH1 0x1 PUSH1 0xA0 SHL SUB AND DUP2 MSTORE PUSH1 0x20 SWAP1 RETURN JUMPDEST CALLVALUE PUSH2 0x1DF JUMPI PUSH1 0x20 CALLDATASIZE PUSH1 0x3 NOT ADD SLT PUSH2 0x1DF JUMPI PUSH1 0x4 CALLDATALOAD PUSH0 MSTORE PUSH1 0x5 PUSH1 0x20 MSTORE PUSH1 0x20 PUSH1 0x40 PUSH0 KECCAK256 SLOAD PUSH1 0x40 MLOAD SWAP1 DUP2 MSTORE RETURN JUMPDEST CALLVALUE PUSH2 0x1DF JUMPI PUSH1 0x40 CALLDATASIZE PUSH1 0x3 NOT ADD SLT PUSH2 0x1DF JUMPI PUSH1 0x20 PUSH1 0xFF PUSH2 0xF55 PUSH1 0x4 CALLDATALOAD PUSH2 0xF22 DUP2 PUSH2 0x1CE JUMP JUMPDEST PUSH1 0x24 CALLDATALOAD SWAP1 PUSH2 0xF2F DUP3 PUSH2 0x1CE JUMP JUMPDEST PUSH1 0x1 DUP1 PUSH1 0xA0 SHL SUB AND PUSH0 MSTORE PUSH0 DUP5 MSTORE PUSH1 0x40 PUSH0 KECCAK256 SWAP1 PUSH1 0x1 DUP1 PUSH1 0xA0 SHL SUB AND PUSH0 MSTORE PUSH1 0x20 MSTORE PUSH1 0x40 PUSH0 KECCAK256 SWAP1 JUMP JUMPDEST SLOAD AND PUSH1 0x40 MLOAD SWAP1 ISZERO ISZERO DUP2 MSTORE RETURN JUMPDEST CALLVALUE PUSH2 0x1DF JUMPI PUSH1 0xA0 CALLDATASIZE PUSH1 0x3 NOT ADD SLT PUSH2 0x1DF JUMPI PUSH1 0x4 CALLDATALOAD PUSH2 0xF7E DUP2 PUSH2 0x1CE JUMP JUMPDEST PUSH1 0x24 CALLDATALOAD SWAP1 PUSH2 0xF8B DUP3 PUSH2 0x1CE JUMP JUMPDEST PUSH1 0x1 PUSH1 0x1 PUSH1 0x80 SHL SUB PUSH1 0x44 CALLDATALOAD SWAP2 PUSH2 0xFA0 DUP4 PUSH2 0x1CE JUMP JUMPDEST PUSH2 0xFC5 PUSH1 0x64 CALLDATALOAD PUSH2 0xFAF DUP2 PUSH2 0x3A8 JUMP JUMPDEST PUSH1 0x84 CALLDATALOAD SWAP5 PUSH2 0xFBE DUP7 ISZERO ISZERO PUSH2 0x2658 JUMP JUMPDEST DUP7 DUP5 PUSH2 0x2876 JUMP JUMPDEST SWAP4 PUSH2 0x104E PUSH2 0x103C DUP5 PUSH2 0x1034 PUSH2 0x101B PUSH2 0xFF5 DUP11 PUSH0 MSTORE PUSH1 0x6 PUSH1 0x20 MSTORE PUSH1 0x40 PUSH0 KECCAK256 SLOAD SWAP1 PUSH1 0x1 PUSH1 0x1 PUSH1 0x80 SHL SUB DUP3 AND SWAP2 PUSH1 0x80 SHR SWAP1 JUMP JUMPDEST SWAP9 SWAP1 PUSH2 0x1014 PUSH2 0x100C DUP14 PUSH0 MSTORE PUSH1 0x5 PUSH1 0x20 MSTORE PUSH1 0x40 PUSH0 KECCAK256 SWAP1 JUMP JUMPDEST SLOAD ISZERO ISZERO PUSH2 0x26A4 JUMP JUMPDEST AND DUP10 PUSH2 0x272F JUMP JUMPDEST PUSH2 0x102D DUP11 PUSH0 MSTORE PUSH1 0x5 PUSH1 0x20 MSTORE PUSH1 0x40 PUSH0 KECCAK256 SWAP1 JUMP JUMPDEST SLOAD SWAP1 PUSH2 0x2742 JUMP JUMPDEST SWAP6 AND DUP7 PUSH2 0x272F JUMP JUMPDEST PUSH2 0x102D DUP8 PUSH0 MSTORE PUSH1 0x5 PUSH1 0x20 MSTORE PUSH1 0x40 PUSH0 KECCAK256 SWAP1 JUMP JUMPDEST SWAP4 DUP4 ISZERO DUP1 PUSH2 0x1110 JUMPI JUMPDEST PUSH2 0x10F7 JUMPI DUP6 DUP2 PUSH2 0x1070 PUSH2 0x10BF SWAP4 PUSH2 0x10DE SWAP8 SWAP9 SWAP10 CALLER PUSH2 0x2B0A JUMP JUMPDEST PUSH2 0x108D PUSH2 0x1085 DUP4 PUSH0 MSTORE PUSH1 0x5 PUSH1 0x20 MSTORE PUSH1 0x40 PUSH0 KECCAK256 SWAP1 JUMP JUMPDEST SWAP2 DUP3 SLOAD PUSH2 0x2014 JUMP JUMPDEST SWAP1 SSTORE PUSH2 0x10A4 PUSH1 0x1 PUSH1 0x1 PUSH1 0x80 SHL SUB DUP8 AND PUSH1 0xF SIGNEXTEND PUSH2 0x2760 JUMP JUMPDEST PUSH2 0x10B9 PUSH1 0x1 PUSH1 0x1 PUSH1 0x80 SHL SUB DUP10 AND PUSH1 0xF SIGNEXTEND PUSH2 0x2760 JUMP JUMPDEST SWAP2 PUSH2 0x2B89 JUMP JUMPDEST PUSH1 0x1 PUSH1 0x1 PUSH1 0xA0 SHL SUB DUP2 DUP2 AND SWAP1 DUP4 AND LT ISZERO PUSH2 0x10EF JUMPI DUP4 DUP6 SWAP2 JUMPDEST CALLER SWAP4 PUSH2 0x2BDF JUMP JUMPDEST PUSH1 0x40 DUP1 MLOAD SWAP2 DUP3 MSTORE PUSH1 0x20 DUP3 ADD SWAP3 SWAP1 SWAP3 MSTORE RETURN JUMPDEST DUP5 DUP5 SWAP2 PUSH2 0x10D7 JUMP JUMPDEST PUSH4 0xD5DE6205 PUSH1 0xE0 SHL PUSH0 MSTORE PUSH1 0x4 DUP5 SWAP1 MSTORE PUSH1 0x24 DUP6 SWAP1 MSTORE PUSH1 0x44 PUSH0 REVERT JUMPDEST POP DUP5 ISZERO PUSH2 0x1057 JUMP JUMPDEST CALLVALUE PUSH2 0x1DF JUMPI PUSH1 0x20 CALLDATASIZE PUSH1 0x3 NOT ADD SLT PUSH2 0x1DF JUMPI PUSH1 0xFF PUSH2 0x1133 PUSH2 0x8A5 JUMP JUMPDEST AND PUSH2 0x1140 PUSH1 0x10 DUP3 LT PUSH2 0x202E JUMP JUMPDEST PUSH0 MSTORE PUSH1 0x3 PUSH1 0x20 MSTORE PUSH1 0x20 PUSH1 0x1 DUP1 PUSH1 0xA0 SHL SUB PUSH1 0x40 PUSH0 KECCAK256 SLOAD AND PUSH1 0x40 MLOAD SWAP1 DUP2 MSTORE RETURN JUMPDEST PUSH1 0xE0 CALLDATASIZE PUSH1 0x3 NOT ADD SLT PUSH2 0x1DF JUMPI PUSH1 0x4 CALLDATALOAD PUSH2 0x1176 DUP2 PUSH2 0x1CE JUMP JUMPDEST PUSH1 0x24 CALLDATALOAD DUP1 SWAP2 PUSH2 0x1184 DUP3 PUSH2 0x1CE JUMP JUMPDEST PUSH1 0x44 CALLDATALOAD PUSH2 0x1190 DUP2 PUSH2 0x1CE JUMP JUMPDEST PUSH1 0x64 CALLDATALOAD SWAP1 PUSH2 0x119D DUP3 PUSH2 0x3A8 JUMP JUMPDEST PUSH1 0x84 CALLDATALOAD PUSH1 0xA4 CALLDATALOAD SWAP3 PUSH2 0x11AD DUP5 PUSH2 0x393 JUMP JUMPDEST DUP2 DUP6 PUSH1 0xC4 CALLDATALOAD SWAP3 PUSH2 0x11BF DUP2 DUP8 DUP12 DUP6 PUSH2 0x2876 JUMP JUMPDEST SWAP6 DUP8 ISZERO PUSH2 0x1364 JUMPI DUP3 JUMPDEST CALLER DUP6 CALLVALUE SWAP1 PUSH2 0x11D5 SWAP4 PUSH2 0x2C10 JUMP JUMPDEST PUSH0 DUP8 DUP2 MSTORE PUSH1 0x6 PUSH1 0x20 MSTORE PUSH1 0x40 SWAP1 KECCAK256 SLOAD PUSH1 0x1 PUSH1 0x1 PUSH1 0x80 SHL SUB DUP2 AND SWAP1 PUSH1 0x80 SHR SWAP11 DUP2 SWAP6 DUP13 SWAP5 SWAP3 SWAP4 PUSH2 0x1200 PUSH2 0x16EC JUMP JUMPDEST SWAP1 PUSH2 0x1209 PUSH2 0x16EC JUMP JUMPDEST SWAP4 PUSH2 0x1212 PUSH2 0x2E4 JUMP JUMPDEST PUSH1 0x1 PUSH1 0x1 PUSH1 0xA0 SHL SUB SWAP1 SWAP10 AND DUP10 MSTORE PUSH1 0x1 PUSH1 0x1 PUSH1 0xA0 SHL SUB AND PUSH1 0x20 DUP10 ADD MSTORE PUSH1 0x1 PUSH1 0x1 PUSH1 0xA0 SHL SUB AND PUSH1 0x40 DUP9 ADD MSTORE PUSH1 0x60 DUP8 ADD SWAP1 DUP2 MSTORE DUP12 ISZERO ISZERO PUSH1 0x80 DUP9 ADD MSTORE PUSH1 0xA0 DUP8 ADD SWAP3 DUP4 MSTORE MLOAD PUSH2 0x125B SWAP1 PUSH2 0x1754 JUMP JUMPDEST MSTORE MLOAD PUSH2 0x1266 SWAP1 PUSH2 0x1754 JUMP JUMPDEST PUSH1 0x1 PUSH1 0x1 PUSH1 0xE8 SHL SUB NOT SWAP1 SWAP2 AND SWAP1 MSTORE PUSH2 0x127D SWAP3 PUSH2 0x2169 JUMP JUMPDEST POP SWAP7 DUP8 ISZERO PUSH2 0x1355 JUMPI DUP8 DUP7 SWAP2 PUSH2 0x1291 SWAP4 PUSH2 0x2D37 JUMP JUMPDEST DUP1 DUP7 LT PUSH2 0x133E JUMPI POP PUSH2 0x61C SWAP6 PUSH2 0xE80 SWAP5 SWAP1 SWAP4 SWAP1 SWAP3 SWAP1 SWAP2 PUSH2 0x12F3 SWAP2 SWAP1 PUSH1 0x1 PUSH1 0x1 PUSH1 0xA0 SHL SUB DUP1 DUP8 AND SWAP1 DUP7 AND LT ISZERO PUSH2 0x1336 JUMPI DUP4 SWAP1 JUMPDEST DUP2 ISZERO PUSH2 0x131B JUMPI PUSH1 0x1 PUSH1 0x1 PUSH1 0x80 SHL SUB DUP2 AND PUSH1 0xF SIGNEXTEND SWAP2 JUMPDEST ISZERO PUSH2 0x1309 JUMPI POP PUSH2 0x10B9 PUSH1 0x1 PUSH1 0x1 PUSH1 0x80 SHL SUB DUP10 AND PUSH1 0xF SIGNEXTEND PUSH2 0x2760 JUMP JUMPDEST ISZERO PUSH2 0x1302 JUMPI POP JUMPDEST DUP3 CALLER SWAP2 PUSH2 0x2C2E JUMP JUMPDEST SWAP1 POP PUSH2 0x12FA JUMP JUMPDEST PUSH1 0x1 PUSH1 0x1 PUSH1 0x80 SHL SUB AND PUSH1 0xF SIGNEXTEND SWAP2 PUSH2 0x2B89 JUMP JUMPDEST PUSH2 0x1330 PUSH1 0x1 PUSH1 0x1 PUSH1 0x80 SHL SUB DUP11 AND PUSH1 0xF SIGNEXTEND PUSH2 0x2760 JUMP JUMPDEST SWAP2 PUSH2 0x12D8 JUMP JUMPDEST DUP4 ISZERO SWAP1 PUSH2 0x12C3 JUMP JUMPDEST PUSH4 0xD438755D PUSH1 0xE0 SHL PUSH0 MSTORE PUSH1 0x4 MSTORE PUSH1 0x24 DUP6 SWAP1 MSTORE PUSH1 0x44 PUSH0 REVERT JUMPDEST PUSH4 0x14033F21 PUSH1 0xE1 SHL PUSH0 MSTORE PUSH1 0x4 PUSH0 REVERT JUMPDEST DUP10 PUSH2 0x11C8 JUMP JUMPDEST PUSH1 0xC0 CALLDATASIZE PUSH1 0x3 NOT ADD SLT PUSH2 0x1DF JUMPI PUSH8 0xDE0B6B3A7640000 PUSH1 0x4 CALLDATALOAD PUSH2 0x138B DUP2 PUSH2 0x1CE JUMP JUMPDEST PUSH1 0x24 CALLDATALOAD SWAP1 PUSH2 0x1398 DUP3 PUSH2 0x1CE JUMP JUMPDEST PUSH1 0x44 CALLDATALOAD SWAP2 PUSH2 0x13A5 DUP4 PUSH2 0x1CE JUMP JUMPDEST PUSH1 0x64 CALLDATALOAD SWAP1 PUSH2 0x13B2 DUP3 PUSH2 0x3A8 JUMP JUMPDEST PUSH1 0x84 CALLDATALOAD SWAP4 DUP2 PUSH2 0x1485 PUSH2 0x1469 PUSH1 0xA4 CALLDATALOAD SWAP4 DUP8 PUSH2 0x1480 PUSH2 0x13D1 DUP10 DUP5 DUP9 DUP6 PUSH2 0x2876 JUMP JUMPDEST SWAP9 PUSH2 0x1470 PUSH2 0x13F7 DUP12 PUSH0 MSTORE PUSH1 0x6 PUSH1 0x20 MSTORE PUSH1 0x40 PUSH0 KECCAK256 SLOAD SWAP1 PUSH1 0x1 PUSH1 0x1 PUSH1 0x80 SHL SUB DUP3 AND SWAP2 PUSH1 0x80 SHR SWAP1 JUMP JUMPDEST SWAP15 DUP16 SWAP8 DUP3 SWAP13 SWAP3 SWAP8 PUSH2 0x1450 PUSH2 0x1409 PUSH2 0x16EC JUMP JUMPDEST SWAP2 PUSH2 0x1440 PUSH2 0x1415 PUSH2 0x16EC JUMP JUMPDEST SWAP7 PUSH2 0x1430 PUSH2 0x1421 PUSH2 0x2E4 JUMP JUMPDEST PUSH1 0x1 PUSH1 0x1 PUSH1 0xA0 SHL SUB SWAP1 SWAP14 AND DUP14 MSTORE JUMP JUMPDEST PUSH1 0x1 PUSH1 0x1 PUSH1 0xA0 SHL SUB AND PUSH1 0x20 DUP13 ADD MSTORE JUMP JUMPDEST PUSH1 0x1 PUSH1 0x1 PUSH1 0xA0 SHL SUB AND PUSH1 0x40 DUP11 ADD MSTORE JUMP JUMPDEST PUSH1 0x60 DUP9 ADD DUP2 SWAP1 MSTORE PUSH0 PUSH1 0x80 DUP10 ADD MSTORE PUSH1 0xA0 DUP9 ADD SWAP4 DUP5 MSTORE PUSH2 0x1754 JUMP JUMPDEST MSTORE MLOAD PUSH2 0x1754 JUMP JUMPDEST PUSH1 0x1 PUSH1 0x1 PUSH1 0xE8 SHL SUB NOT SWAP1 SWAP2 AND SWAP1 MSTORE JUMP JUMPDEST PUSH2 0x2169 JUMP JUMPDEST POP SWAP5 DUP6 ISZERO PUSH2 0x1355 JUMPI PUSH2 0x14A4 PUSH2 0x1507 SWAP7 DUP7 PUSH2 0x61C SWAP11 PUSH2 0x14EE SWAP8 DUP8 DUP13 PUSH2 0x2DB6 JUMP JUMPDEST SWAP7 PUSH1 0x1 PUSH1 0x1 PUSH1 0xA0 SHL SUB DUP4 DUP2 AND SWAP1 DUP4 AND LT SWAP2 DUP3 ISZERO PUSH2 0x1538 JUMPI SWAP3 SWAP2 JUMPDEST ISZERO PUSH2 0x1524 JUMPI SWAP3 PUSH1 0x1 PUSH1 0x1 PUSH1 0x80 SHL SUB SWAP3 DUP4 SWAP3 PUSH2 0x14DF SWAP2 JUMPDEST DUP4 DUP8 CALLER SWAP4 CALLVALUE SWAP4 PUSH2 0x2C39 JUMP JUMPDEST AND PUSH1 0xF SIGNEXTEND SWAP2 AND PUSH1 0xF SIGNEXTEND DUP4 PUSH2 0x2B89 JUMP JUMPDEST PUSH2 0x14F9 DUP4 DUP3 CALLER PUSH2 0x2E88 JUMP JUMPDEST PUSH0 MSTORE PUSH1 0x5 PUSH1 0x20 MSTORE PUSH1 0x40 PUSH0 KECCAK256 SWAP1 JUMP JUMPDEST PUSH2 0x1512 DUP3 DUP3 SLOAD PUSH2 0x2021 JUMP JUMPDEST SWAP1 SSTORE PUSH1 0x40 MLOAD SWAP1 DUP2 MSTORE SWAP1 DUP2 SWAP1 PUSH1 0x20 DUP3 ADD SWAP1 JUMP JUMPDEST PUSH1 0x1 PUSH1 0x1 PUSH1 0x80 SHL SUB SWAP3 DUP4 SWAP3 PUSH2 0x14DF SWAP2 PUSH2 0x14D4 JUMP JUMPDEST SWAP2 PUSH2 0x14BE JUMP JUMPDEST CALLVALUE PUSH2 0x1DF JUMPI PUSH1 0x80 CALLDATASIZE PUSH1 0x3 NOT ADD SLT PUSH2 0x1DF JUMPI PUSH1 0x4 CALLDATALOAD PUSH2 0x155B DUP2 PUSH2 0x1CE JUMP JUMPDEST PUSH1 0x24 CALLDATALOAD PUSH2 0x1567 DUP2 PUSH2 0x1CE JUMP JUMPDEST PUSH1 0x44 CALLDATALOAD SWAP2 PUSH0 MLOAD PUSH1 0x20 PUSH2 0x39F8 PUSH0 CODECOPY PUSH0 MLOAD SWAP1 PUSH0 MSTORE PUSH2 0x6CE PUSH1 0x64 CALLDATALOAD SWAP4 PUSH1 0x1 PUSH1 0x1 PUSH1 0xA0 SHL SUB DUP5 AND SWAP4 PUSH2 0x15C9 SWAP1 DUP8 SWAP1 PUSH2 0x15BC SWAP1 CALLER DUP9 EQ ISZERO DUP1 PUSH2 0x16B8 JUMPI JUMPDEST PUSH2 0x1628 JUMPI PUSH1 0x1 PUSH1 0x1 PUSH1 0xA0 SHL SUB AND PUSH0 SWAP1 DUP2 MSTORE PUSH1 0x1 PUSH1 0x20 MSTORE PUSH1 0x40 SWAP1 KECCAK256 SWAP1 JUMP JUMPDEST SWAP1 PUSH0 MSTORE PUSH1 0x20 MSTORE PUSH1 0x40 PUSH0 KECCAK256 SWAP1 JUMP JUMPDEST PUSH2 0x15D4 DUP7 DUP3 SLOAD PUSH2 0x2014 JUMP JUMPDEST SWAP1 SSTORE PUSH1 0x1 PUSH1 0x1 PUSH1 0xA0 SHL SUB DUP2 AND PUSH0 SWAP1 DUP2 MSTORE PUSH1 0x1 PUSH1 0x20 MSTORE PUSH1 0x40 SWAP1 KECCAK256 PUSH2 0x15F8 SWAP1 DUP8 SWAP1 PUSH2 0x15BC JUMP JUMPDEST PUSH2 0x1603 DUP7 DUP3 SLOAD PUSH2 0x2021 JUMP JUMPDEST SWAP1 SSTORE PUSH1 0x40 DUP1 MLOAD CALLER DUP2 MSTORE PUSH1 0x20 DUP2 ADD SWAP7 SWAP1 SWAP7 MSTORE PUSH1 0x1 PUSH1 0x1 PUSH1 0xA0 SHL SUB SWAP1 SWAP2 AND SWAP5 SWAP2 DUP3 SWAP2 DUP3 ADD SWAP1 JUMP JUMPDEST PUSH2 0x165F DUP4 PUSH2 0x15BC CALLER PUSH2 0x164A DUP6 PUSH1 0x1 DUP1 PUSH1 0xA0 SHL SUB AND PUSH0 MSTORE PUSH1 0x2 PUSH1 0x20 MSTORE PUSH1 0x40 PUSH0 KECCAK256 SWAP1 JUMP JUMPDEST SWAP1 PUSH1 0x1 DUP1 PUSH1 0xA0 SHL SUB AND PUSH0 MSTORE PUSH1 0x20 MSTORE PUSH1 0x40 PUSH0 KECCAK256 SWAP1 JUMP JUMPDEST SLOAD DUP10 PUSH1 0x1 DUP3 ADD PUSH2 0x1685 JUMPI JUMPDEST POP POP PUSH1 0x1 PUSH1 0x1 PUSH1 0xA0 SHL SUB AND PUSH0 SWAP1 DUP2 MSTORE PUSH1 0x1 PUSH1 0x20 MSTORE PUSH1 0x40 SWAP1 KECCAK256 SWAP1 JUMP JUMPDEST PUSH2 0x168E SWAP2 PUSH2 0x2014 JUMP JUMPDEST PUSH2 0x16B0 DUP5 PUSH2 0x15BC CALLER PUSH2 0x164A DUP7 PUSH1 0x1 DUP1 PUSH1 0xA0 SHL SUB AND PUSH0 MSTORE PUSH1 0x2 PUSH1 0x20 MSTORE PUSH1 0x40 PUSH0 KECCAK256 SWAP1 JUMP JUMPDEST SSTORE PUSH0 DUP10 PUSH2 0x166A JUMP JUMPDEST POP PUSH2 0x16E7 PUSH2 0x16E3 PUSH2 0x16DC CALLER PUSH2 0x164A DUP6 PUSH1 0x1 DUP1 PUSH1 0xA0 SHL SUB AND PUSH0 MSTORE PUSH0 PUSH1 0x20 MSTORE PUSH1 0x40 PUSH0 KECCAK256 SWAP1 JUMP JUMPDEST SLOAD PUSH1 0xFF AND SWAP1 JUMP JUMPDEST ISZERO SWAP1 JUMP JUMPDEST PUSH2 0x159F JUMP JUMPDEST PUSH1 0x40 DUP1 MLOAD SWAP1 SWAP2 SWAP1 PUSH2 0x16FD DUP4 DUP3 PUSH2 0x2C3 JUMP JUMPDEST PUSH1 0x1 DUP2 MSTORE SWAP2 PUSH1 0x1F NOT ADD CALLDATASIZE PUSH1 0x20 DUP5 ADD CALLDATACOPY JUMP JUMPDEST SWAP1 PUSH2 0x1718 DUP3 PUSH2 0x312 JUMP JUMPDEST PUSH2 0x1725 PUSH1 0x40 MLOAD SWAP2 DUP3 PUSH2 0x2C3 JUMP JUMPDEST DUP3 DUP2 MSTORE DUP1 SWAP3 PUSH2 0x1736 PUSH1 0x1F NOT SWAP2 PUSH2 0x312 JUMP JUMPDEST ADD SWAP1 PUSH1 0x20 CALLDATASIZE SWAP2 ADD CALLDATACOPY JUMP JUMPDEST PUSH4 0x4E487B71 PUSH1 0xE0 SHL PUSH0 MSTORE PUSH1 0x32 PUSH1 0x4 MSTORE PUSH1 0x24 PUSH0 REVERT JUMPDEST DUP1 MLOAD ISZERO PUSH2 0x1761 JUMPI PUSH1 0x20 ADD SWAP1 JUMP JUMPDEST PUSH2 0x1740 JUMP JUMPDEST DUP1 MLOAD DUP3 LT ISZERO PUSH2 0x1761 JUMPI PUSH1 0x20 SWAP2 PUSH1 0x5 SHL ADD ADD SWAP1 JUMP JUMPDEST ISZERO PUSH2 0x1781 JUMPI JUMP JUMPDEST PUSH1 0x40 MLOAD PUSH3 0x461BCD PUSH1 0xE5 SHL DUP2 MSTORE PUSH1 0x20 PUSH1 0x4 DUP3 ADD MSTORE PUSH1 0x14 PUSH1 0x24 DUP3 ADD MSTORE PUSH20 0x426574612061646472657373206973207A65726F PUSH1 0x60 SHL PUSH1 0x44 DUP3 ADD MSTORE PUSH1 0x64 SWAP1 REVERT JUMPDEST SWAP1 DUP1 PUSH1 0x1F DUP4 ADD SLT ISZERO PUSH2 0x1DF JUMPI DUP2 MLOAD PUSH2 0x17D4 DUP2 PUSH2 0x312 JUMP JUMPDEST SWAP3 PUSH2 0x17E2 PUSH1 0x40 MLOAD SWAP5 DUP6 PUSH2 0x2C3 JUMP JUMPDEST DUP2 DUP5 MSTORE PUSH1 0x20 DUP1 DUP6 ADD SWAP3 PUSH1 0x5 SHL DUP3 ADD ADD SWAP3 DUP4 GT PUSH2 0x1DF JUMPI PUSH1 0x20 ADD SWAP1 JUMPDEST DUP3 DUP3 LT PUSH2 0x180A JUMPI POP POP POP SWAP1 JUMP JUMPDEST DUP2 MLOAD DUP2 MSTORE PUSH1 0x20 SWAP2 DUP3 ADD SWAP2 ADD PUSH2 0x17FD JUMP JUMPDEST SWAP1 PUSH1 0x20 DUP3 DUP3 SUB SLT PUSH2 0x1DF JUMPI DUP2 MLOAD PUSH1 0x1 PUSH1 0x1 PUSH1 0x40 SHL SUB DUP2 GT PUSH2 0x1DF JUMPI PUSH2 0x390 SWAP3 ADD PUSH2 0x17BD JUMP JUMPDEST SWAP1 PUSH1 0x20 DUP1 DUP4 MLOAD SWAP3 DUP4 DUP2 MSTORE ADD SWAP3 ADD SWAP1 PUSH0 JUMPDEST DUP2 DUP2 LT PUSH2 0x185C JUMPI POP POP POP SWAP1 JUMP JUMPDEST DUP3 MLOAD PUSH1 0x1 PUSH1 0x1 PUSH1 0x80 SHL SUB AND DUP5 MSTORE PUSH1 0x20 SWAP4 DUP5 ADD SWAP4 SWAP1 SWAP3 ADD SWAP2 PUSH1 0x1 ADD PUSH2 0x184F JUMP JUMPDEST SWAP1 PUSH1 0x20 DUP1 DUP4 MLOAD SWAP3 DUP4 DUP2 MSTORE ADD SWAP3 ADD SWAP1 PUSH0 JUMPDEST DUP2 DUP2 LT PUSH2 0x1898 JUMPI POP POP POP SWAP1 JUMP JUMPDEST DUP3 MLOAD PUSH2 0xFFFF AND DUP5 MSTORE PUSH1 0x20 SWAP4 DUP5 ADD SWAP4 SWAP1 SWAP3 ADD SWAP2 PUSH1 0x1 ADD PUSH2 0x188B JUMP JUMPDEST DUP1 MLOAD PUSH1 0x1 PUSH1 0x1 PUSH1 0xA0 SHL SUB AND DUP3 MSTORE SWAP1 PUSH2 0x390 SWAP1 PUSH1 0x20 DUP4 DUP2 ADD MLOAD PUSH1 0x1 PUSH1 0x1 PUSH1 0xA0 SHL SUB AND SWAP1 DUP3 ADD MSTORE PUSH1 0x40 DUP4 DUP2 ADD MLOAD PUSH1 0x1 PUSH1 0x1 PUSH1 0xA0 SHL SUB AND SWAP1 DUP3 ADD MSTORE PUSH1 0xE0 DUP1 PUSH2 0x1947 PUSH2 0x1935 PUSH2 0x1923 PUSH2 0x1911 PUSH1 0x60 DUP10 ADD MLOAD PUSH2 0x100 PUSH1 0x60 DUP10 ADD MSTORE PUSH2 0x100 DUP9 ADD SWAP1 PUSH2 0x59D JUMP JUMPDEST PUSH1 0x80 DUP10 ADD MLOAD DUP8 DUP3 SUB PUSH1 0x80 DUP10 ADD MSTORE PUSH2 0x183F JUMP JUMPDEST PUSH1 0xA0 DUP9 ADD MLOAD DUP7 DUP3 SUB PUSH1 0xA0 DUP9 ADD MSTORE PUSH2 0x183F JUMP JUMPDEST PUSH1 0xC0 DUP8 ADD MLOAD DUP6 DUP3 SUB PUSH1 0xC0 DUP8 ADD MSTORE PUSH2 0x187B JUMP JUMPDEST SWAP5 ADD MLOAD ISZERO ISZERO SWAP2 ADD MSTORE JUMP JUMPDEST DUP1 MLOAD DUP1 DUP4 MSTORE PUSH1 0x20 SWAP3 SWAP2 DUP2 SWAP1 DUP5 ADD DUP5 DUP5 ADD MCOPY PUSH0 DUP3 DUP3 ADD DUP5 ADD MSTORE PUSH1 0x1F ADD PUSH1 0x1F NOT AND ADD ADD SWAP1 JUMP JUMPDEST SWAP1 SWAP2 PUSH2 0x198C PUSH2 0x390 SWAP4 PUSH1 0x40 DUP5 MSTORE PUSH1 0x40 DUP5 ADD SWAP1 PUSH2 0x18B2 JUMP JUMPDEST SWAP2 PUSH1 0x20 DUP2 DUP5 SUB SWAP2 ADD MSTORE PUSH2 0x1951 JUMP JUMPDEST PUSH1 0x40 MLOAD RETURNDATASIZE PUSH0 DUP3 RETURNDATACOPY RETURNDATASIZE SWAP1 REVERT JUMPDEST ISZERO PUSH2 0x19AC JUMPI JUMP JUMPDEST PUSH1 0x40 MLOAD PUSH3 0x461BCD PUSH1 0xE5 SHL DUP2 MSTORE PUSH1 0x20 PUSH1 0x4 DUP3 ADD MSTORE PUSH1 0x15 PUSH1 0x24 DUP3 ADD MSTORE PUSH21 0x416C7068612061646472657373206973207A65726F PUSH1 0x58 SHL PUSH1 0x44 DUP3 ADD MSTORE PUSH1 0x64 SWAP1 REVERT JUMPDEST SWAP1 PUSH1 0x20 PUSH2 0x390 SWAP3 DUP2 DUP2 MSTORE ADD SWAP1 PUSH2 0x18B2 JUMP JUMPDEST SWAP2 PUSH2 0x1A23 SWAP1 PUSH2 0x1A15 PUSH2 0x390 SWAP6 SWAP4 PUSH1 0x60 DUP7 MSTORE PUSH1 0x60 DUP7 ADD SWAP1 PUSH2 0x18B2 JUMP JUMPDEST SWAP1 DUP5 DUP3 SUB PUSH1 0x20 DUP7 ADD MSTORE PUSH2 0x1951 JUMP JUMPDEST SWAP2 PUSH1 0x40 DUP2 DUP5 SUB SWAP2 ADD MSTORE PUSH2 0x1951 JUMP JUMPDEST SWAP1 SWAP3 SWAP2 PUSH1 0xA0 DUP3 ADD SWAP3 PUSH2 0x1A44 DUP5 MLOAD MLOAD PUSH2 0x170E JUMP JUMPDEST SWAP2 PUSH2 0x1A50 DUP6 MLOAD MLOAD PUSH2 0x170E JUMP JUMPDEST SWAP2 PUSH2 0x1A5C DUP7 MLOAD MLOAD PUSH2 0x170E JUMP JUMPDEST SWAP7 PUSH2 0x1A80 PUSH2 0x1A7B PUSH2 0x1A6D DUP10 MLOAD PUSH2 0x1754 JUMP JUMPDEST MLOAD PUSH1 0x1 PUSH1 0x1 PUSH1 0xE8 SHL SUB NOT AND SWAP1 JUMP JUMPDEST PUSH2 0x27C6 JUMP JUMPDEST SWAP3 PUSH0 JUMPDEST DUP9 MLOAD DUP1 MLOAD DUP3 LT ISZERO PUSH2 0x1B03 JUMPI SWAP1 PUSH2 0x1AFD DUP12 PUSH2 0x1AF4 DUP4 PUSH2 0x1ADF PUSH1 0xC0 PUSH2 0x1AEB DUP16 DUP16 PUSH2 0x1AE5 DUP7 PUSH2 0x1ADF PUSH2 0x1AB8 PUSH2 0x1A6D PUSH1 0x1 SWAP16 DUP5 SWAP1 PUSH2 0x1766 JUMP JUMPDEST DUP6 MLOAD PUSH1 0x20 DUP8 ADD MLOAD PUSH1 0x40 SWAP1 SWAP8 ADD MLOAD SWAP2 SWAP7 DUP8 SWAP3 PUSH1 0x1 PUSH1 0x1 PUSH1 0xA0 SHL SUB SWAP1 DUP2 AND SWAP3 SWAP2 DUP2 AND SWAP2 AND PUSH2 0x2876 JUMP JUMPDEST SWAP3 PUSH2 0x1766 JUMP JUMPDEST MSTORE PUSH2 0x27C6 JUMP JUMPDEST ADD MLOAD PUSH2 0xFFFF AND SWAP1 JUMP JUMPDEST SWAP1 PUSH2 0xFFFF AND SWAP1 MSTORE JUMP JUMPDEST ADD PUSH2 0x1A83 JUMP JUMPDEST POP POP SWAP4 SWAP2 SWAP7 POP SWAP4 SWAP5 SWAP2 SWAP7 DUP3 MLOAD PUSH2 0x1B1E SWAP1 PUSH1 0x1 DUP1 PUSH1 0xA0 SHL SUB AND SWAP1 JUMP JUMPDEST PUSH1 0x20 DUP5 ADD DUP1 MLOAD SWAP2 SWAP7 SWAP1 SWAP5 SWAP1 SWAP2 PUSH1 0x1 PUSH1 0x1 PUSH1 0xA0 SHL SUB AND PUSH1 0x40 DUP3 ADD DUP1 MLOAD SWAP1 SWAP5 SWAP1 PUSH1 0x1 PUSH1 0x1 PUSH1 0xA0 SHL SUB AND SWAP8 PUSH1 0x60 DUP5 ADD MLOAD SWAP5 PUSH1 0x80 DUP6 ADD SWAP6 DUP7 MLOAD PUSH2 0x1B5C SWAP1 ISZERO ISZERO SWAP1 JUMP JUMPDEST SWAP5 PUSH2 0x1B65 PUSH2 0x302 JUMP JUMPDEST PUSH1 0x1 PUSH1 0x1 PUSH1 0xA0 SHL SUB SWAP1 SWAP14 AND DUP14 MSTORE PUSH1 0x1 PUSH1 0x1 PUSH1 0xA0 SHL SUB AND PUSH1 0x20 DUP14 ADD MSTORE PUSH1 0x1 PUSH1 0x1 PUSH1 0xA0 SHL SUB SWAP1 SWAP11 AND PUSH1 0x40 DUP13 ADD SWAP1 DUP2 MSTORE SWAP10 PUSH1 0x60 DUP13 ADD MSTORE PUSH1 0x80 DUP12 ADD MSTORE PUSH1 0xA0 DUP11 ADD MSTORE PUSH1 0xC0 DUP10 ADD MSTORE ISZERO ISZERO PUSH1 0xE0 DUP9 ADD MSTORE MLOAD PUSH1 0x1 PUSH1 0x1 PUSH1 0xA0 SHL SUB AND SWAP4 MLOAD PUSH1 0x1 PUSH1 0x1 PUSH1 0xA0 SHL SUB AND SWAP2 MLOAD PUSH1 0x1 PUSH1 0x1 PUSH1 0xA0 SHL SUB AND SWAP1 MLOAD ISZERO ISZERO SWAP2 PUSH2 0x1BDB PUSH2 0x302 JUMP JUMPDEST PUSH1 0x1 PUSH1 0x1 PUSH1 0xA0 SHL SUB SWAP1 SWAP6 AND DUP6 MSTORE PUSH1 0x1 PUSH1 0x1 PUSH1 0xA0 SHL SUB AND PUSH1 0x20 DUP6 ADD MSTORE PUSH1 0x1 PUSH1 0x1 PUSH1 0xA0 SHL SUB AND PUSH1 0x40 DUP5 ADD MSTORE PUSH0 PUSH1 0x60 DUP5 ADD DUP2 SWAP1 MSTORE PUSH1 0x80 DUP5 ADD DUP2 SWAP1 MSTORE PUSH1 0xA0 DUP5 ADD DUP2 SWAP1 MSTORE PUSH1 0xC0 DUP5 ADD MSTORE ISZERO ISZERO PUSH1 0xE0 DUP4 ADD MSTORE DUP7 MLOAD ISZERO ISZERO DUP1 DUP1 PUSH2 0x1FE5 JUMPI JUMPDEST ISZERO PUSH2 0x1DD4 JUMPI POP POP SWAP5 PUSH0 SWAP3 SWAP2 DUP4 PUSH2 0x1D0E PUSH2 0x1D2C SWAP7 SWAP8 SWAP9 PUSH2 0x1C53 PUSH1 0x40 DUP7 ADD MLOAD ISZERO ISZERO SWAP1 JUMP JUMPDEST DUP4 EQ PUSH2 0x1DA9 JUMPI PUSH32 0x0 SWAP5 JUMPDEST DUP2 PUSH2 0x1C8A PUSH1 0x60 DUP4 ADD MLOAD ISZERO ISZERO SWAP1 JUMP JUMPDEST DUP6 EQ PUSH2 0x1D65 JUMPI PUSH2 0x1D08 SWAP2 POP PUSH2 0x1D02 PUSH2 0x1CF6 PUSH2 0x1CF6 PUSH32 0x0 SWAP9 JUMPDEST PUSH2 0x1CD5 PUSH1 0x1 PUSH1 0x1 PUSH1 0xA0 SHL SUB DUP13 AND ISZERO ISZERO PUSH2 0x19A5 JUMP JUMPDEST PUSH2 0x1CE9 PUSH1 0x1 PUSH1 0x1 PUSH1 0xA0 SHL SUB DUP12 AND ISZERO ISZERO PUSH2 0x177A JUMP JUMPDEST MLOAD PUSH1 0x1 PUSH1 0x1 PUSH1 0xA0 SHL SUB AND SWAP1 JUMP JUMPDEST PUSH1 0x1 PUSH1 0x1 PUSH1 0xA0 SHL SUB AND SWAP1 JUMP JUMPDEST SWAP7 PUSH2 0x295F JUMP JUMPDEST SWAP4 PUSH2 0x295F JUMP JUMPDEST PUSH1 0x40 MLOAD PUSH4 0x14B2017 PUSH1 0xE0 SHL DUP2 MSTORE SWAP7 DUP8 SWAP6 DUP7 SWAP5 DUP6 SWAP4 SWAP2 PUSH1 0x4 DUP6 ADD PUSH2 0x19FA JUMP JUMPDEST SUB SWAP3 GAS CALL SWAP1 DUP2 ISZERO PUSH2 0x1D60 JUMPI PUSH0 SWAP2 PUSH2 0x1D41 JUMPI POP SWAP2 JUMP JUMPDEST PUSH2 0x1D5D SWAP2 POP RETURNDATASIZE DUP1 PUSH0 DUP4 RETURNDATACOPY PUSH2 0x1D55 DUP2 DUP4 PUSH2 0x2C3 JUMP JUMPDEST DUP2 ADD SWAP1 PUSH2 0x181A JUMP JUMPDEST SWAP2 JUMP JUMPDEST PUSH2 0x199A JUMP JUMPDEST PUSH2 0x1D02 PUSH2 0x1CF6 PUSH2 0x1CF6 PUSH2 0x1DA3 PUSH2 0x1D96 PUSH2 0x1D85 PUSH1 0xA0 PUSH2 0x1D08 SWAP9 ADD MLOAD PUSH1 0xFF AND SWAP1 JUMP JUMPDEST PUSH1 0xFF AND PUSH0 MSTORE PUSH1 0x4 PUSH1 0x20 MSTORE PUSH1 0x40 PUSH0 KECCAK256 SWAP1 JUMP JUMPDEST SLOAD PUSH1 0x1 PUSH1 0x1 PUSH1 0xA0 SHL SUB AND SWAP1 JUMP JUMPDEST SWAP9 PUSH2 0x1CC1 JUMP JUMPDEST PUSH2 0x1DCE PUSH2 0x1D96 PUSH2 0x1DBD PUSH1 0x80 DUP9 ADD MLOAD PUSH1 0xFF AND SWAP1 JUMP JUMPDEST PUSH1 0xFF AND PUSH0 MSTORE PUSH1 0x3 PUSH1 0x20 MSTORE PUSH1 0x40 PUSH0 KECCAK256 SWAP1 JUMP JUMPDEST SWAP5 PUSH2 0x1C7C JUMP JUMPDEST SWAP1 SWAP7 SWAP1 DUP1 ISZERO SWAP1 DUP2 DUP1 PUSH2 0x1FCF JUMPI JUMPDEST ISZERO PUSH2 0x1E27 JUMPI POP POP POP POP PUSH0 SWAP3 SWAP4 SWAP5 POP DUP3 SWAP2 PUSH2 0x1E0A PUSH2 0x1CF6 PUSH2 0x1CF6 PUSH2 0x1D2C SWAP5 MLOAD PUSH1 0x1 DUP1 PUSH1 0xA0 SHL SUB AND SWAP1 JUMP JUMPDEST SWAP1 PUSH1 0x40 MLOAD SWAP5 DUP6 DUP1 SWAP5 DUP2 SWAP4 PUSH4 0x145ECC63 PUSH1 0xE2 SHL DUP4 MSTORE PUSH1 0x4 DUP4 ADD PUSH2 0x19E9 JUMP JUMPDEST DUP1 PUSH2 0x1FB9 JUMPI JUMPDEST ISZERO PUSH2 0x1EDC JUMPI POP PUSH2 0x1D2C SWAP5 SWAP6 SWAP7 POP PUSH0 SWAP4 SWAP3 SWAP2 DUP2 PUSH2 0x1E4F PUSH1 0x40 PUSH2 0x1E9C SWAP5 ADD MLOAD ISZERO ISZERO SWAP1 JUMP JUMPDEST DUP7 EQ PUSH2 0x1EB9 JUMPI POP PUSH2 0x1E96 PUSH2 0x1CF6 PUSH2 0x1CF6 PUSH32 0x0 SWAP6 JUMPDEST PUSH2 0x1CE9 PUSH1 0x1 PUSH1 0x1 PUSH1 0xA0 SHL SUB DUP9 AND ISZERO ISZERO PUSH2 0x19A5 JUMP JUMPDEST SWAP3 PUSH2 0x295F JUMP JUMPDEST SWAP2 DUP4 PUSH1 0x40 MLOAD DUP1 SWAP7 DUP2 SWAP6 DUP3 SWAP5 PUSH3 0xDB90D1 PUSH1 0xE8 SHL DUP5 MSTORE PUSH1 0x4 DUP5 ADD PUSH2 0x1975 JUMP JUMPDEST PUSH2 0x1CF6 PUSH2 0x1CF6 PUSH2 0x1ED6 PUSH2 0x1D96 PUSH2 0x1DBD PUSH1 0x80 PUSH2 0x1E96 SWAP7 ADD MLOAD PUSH1 0xFF AND SWAP1 JUMP JUMPDEST SWAP6 PUSH2 0x1E82 JUMP JUMPDEST SWAP5 SWAP6 SWAP5 DUP1 PUSH2 0x1FAC JUMPI JUMPDEST PUSH2 0x1EF0 JUMPI JUMPDEST POP POP POP POP JUMP JUMPDEST PUSH2 0x1F52 SWAP5 SWAP7 POP PUSH0 SWAP4 SWAP3 SWAP2 DUP2 PUSH2 0x1F0B PUSH1 0x60 PUSH2 0x1E9C SWAP5 ADD MLOAD ISZERO ISZERO SWAP1 JUMP JUMPDEST DUP7 EQ PUSH2 0x1F89 JUMPI POP PUSH2 0x1E96 PUSH2 0x1CF6 PUSH2 0x1CF6 PUSH32 0x0 SWAP6 JUMPDEST PUSH2 0x1CE9 PUSH1 0x1 PUSH1 0x1 PUSH1 0xA0 SHL SUB DUP9 AND ISZERO ISZERO PUSH2 0x177A JUMP JUMPDEST SUB SWAP3 GAS CALL SWAP1 DUP2 ISZERO PUSH2 0x1D60 JUMPI PUSH0 SWAP2 PUSH2 0x1F6F JUMPI JUMPDEST POP SWAP2 PUSH0 DUP1 DUP1 DUP1 PUSH2 0x1EEA JUMP JUMPDEST PUSH2 0x1F83 SWAP2 POP RETURNDATASIZE DUP1 PUSH0 DUP4 RETURNDATACOPY PUSH2 0x1D55 DUP2 DUP4 PUSH2 0x2C3 JUMP JUMPDEST PUSH0 PUSH2 0x1F64 JUMP JUMPDEST PUSH2 0x1CF6 PUSH2 0x1CF6 PUSH2 0x1FA6 PUSH2 0x1D96 PUSH2 0x1D85 PUSH1 0xA0 PUSH2 0x1E96 SWAP7 ADD MLOAD PUSH1 0xFF AND SWAP1 JUMP JUMPDEST SWAP6 PUSH2 0x1F3E JUMP JUMPDEST POP PUSH1 0x20 DUP2 ADD MLOAD ISZERO ISZERO PUSH2 0x1EE5 JUMP JUMPDEST POP PUSH2 0x1FCA PUSH2 0x16E3 PUSH1 0x20 DUP5 ADD MLOAD ISZERO ISZERO SWAP1 JUMP JUMPDEST PUSH2 0x1E2D JUMP JUMPDEST POP PUSH2 0x1FE0 PUSH2 0x16E3 PUSH1 0x20 DUP6 ADD MLOAD ISZERO ISZERO SWAP1 JUMP JUMPDEST PUSH2 0x1DE1 JUMP JUMPDEST POP PUSH1 0x20 DUP9 ADD MLOAD ISZERO ISZERO PUSH2 0x1C31 JUMP JUMPDEST PUSH4 0x4E487B71 PUSH1 0xE0 SHL PUSH0 MSTORE PUSH1 0x11 PUSH1 0x4 MSTORE PUSH1 0x24 PUSH0 REVERT JUMPDEST PUSH0 NOT DUP2 ADD SWAP2 SWAP1 DUP3 GT PUSH2 0x6DD JUMPI JUMP JUMPDEST SWAP2 SWAP1 DUP3 SUB SWAP2 DUP3 GT PUSH2 0x6DD JUMPI JUMP JUMPDEST SWAP2 SWAP1 DUP3 ADD DUP1 SWAP3 GT PUSH2 0x6DD JUMPI JUMP JUMPDEST ISZERO PUSH2 0x2035 JUMPI JUMP JUMPDEST PUSH1 0x40 MLOAD PUSH3 0x461BCD PUSH1 0xE5 SHL DUP2 MSTORE PUSH1 0x20 PUSH1 0x4 DUP3 ADD MSTORE PUSH1 0x1D PUSH1 0x24 DUP3 ADD MSTORE PUSH32 0x496E76616C696420706F696E7465723A206D75737420626520302D3135000000 PUSH1 0x44 DUP3 ADD MSTORE PUSH1 0x64 SWAP1 REVERT JUMPDEST SWAP1 DUP2 PUSH1 0x20 SWAP2 SUB SLT PUSH2 0x1DF JUMPI MLOAD SWAP1 JUMP JUMPDEST DUP1 MLOAD PUSH1 0x1 PUSH1 0x1 PUSH1 0xA0 SHL SUB SWAP1 DUP2 AND DUP4 MSTORE PUSH1 0x20 DUP1 DUP4 ADD MLOAD DUP3 AND SWAP1 DUP5 ADD MSTORE PUSH1 0x40 DUP1 DUP4 ADD MLOAD SWAP1 SWAP2 AND SWAP1 DUP4 ADD MSTORE PUSH1 0x60 DUP1 DUP3 ADD MLOAD SWAP1 DUP4 ADD MSTORE PUSH1 0x80 DUP1 DUP3 ADD MLOAD PUSH1 0x1 PUSH1 0x1 PUSH1 0x80 SHL SUB AND SWAP1 DUP4 ADD MSTORE PUSH2 0x1EE SWAP2 SWAP1 PUSH1 0xE0 SWAP1 DUP2 SWAP1 PUSH1 0xA0 DUP2 DUP2 ADD MLOAD PUSH1 0x1 PUSH1 0x1 PUSH1 0x80 SHL SUB AND SWAP1 DUP6 ADD MSTORE PUSH1 0xC0 DUP2 DUP2 ADD MLOAD PUSH2 0xFFFF AND SWAP1 DUP6 ADD MSTORE ADD MLOAD ISZERO ISZERO SWAP2 ADD MSTORE JUMP JUMPDEST DUP1 PUSH2 0x2114 PUSH2 0x120 SWAP3 PUSH2 0x390 SWAP6 SWAP5 PUSH2 0x2089 JUMP JUMPDEST DUP2 PUSH2 0x100 DUP3 ADD MSTORE ADD SWAP1 PUSH2 0x1951 JUMP JUMPDEST PUSH2 0x100 DUP2 ADD SWAP3 SWAP2 PUSH2 0x1EE SWAP2 SWAP1 PUSH2 0x2089 JUMP JUMPDEST SWAP2 PUSH2 0x215A SWAP1 PUSH2 0x2146 DUP5 PUSH2 0x390 SWAP7 SWAP5 PUSH2 0x2089 JUMP JUMPDEST PUSH2 0x140 PUSH2 0x100 DUP6 ADD MSTORE PUSH2 0x140 DUP5 ADD SWAP1 PUSH2 0x1951 JUMP JUMPDEST SWAP2 PUSH2 0x120 DUP2 DUP5 SUB SWAP2 ADD MSTORE PUSH2 0x1951 JUMP JUMPDEST DUP1 MLOAD SWAP1 SWAP3 PUSH0 SWAP3 SWAP1 SWAP2 PUSH1 0x1 PUSH1 0x1 PUSH1 0xA0 SHL SUB AND PUSH1 0x20 DUP6 ADD DUP1 MLOAD SWAP1 SWAP5 SWAP2 SWAP1 PUSH1 0x1 PUSH1 0x1 PUSH1 0xA0 SHL SUB AND PUSH1 0x40 DUP8 ADD DUP1 MLOAD SWAP2 SWAP8 SWAP1 SWAP3 SWAP1 SWAP2 PUSH1 0x1 PUSH1 0x1 PUSH1 0xA0 SHL SUB AND SWAP8 PUSH1 0xA0 DUP4 ADD SWAP9 DUP10 MLOAD PUSH2 0x21B3 SWAP1 PUSH2 0x1754 JUMP JUMPDEST MLOAD PUSH1 0x1 PUSH1 0x1 PUSH1 0xE8 SHL SUB NOT AND SWAP2 PUSH2 0x21C8 SWAP4 PUSH2 0x2876 JUMP JUMPDEST SWAP7 MLOAD PUSH2 0x21D3 SWAP1 PUSH2 0x1754 JUMP JUMPDEST MLOAD PUSH1 0x1 PUSH1 0x1 PUSH1 0xE8 SHL SUB NOT AND PUSH2 0x21E7 SWAP1 PUSH2 0x27C6 JUMP JUMPDEST DUP2 MLOAD SWAP1 SWAP6 SWAP1 PUSH1 0x1 PUSH1 0x1 PUSH1 0xA0 SHL SUB AND SWAP7 MLOAD PUSH1 0x1 PUSH1 0x1 PUSH1 0xA0 SHL SUB AND SWAP3 MLOAD PUSH1 0x1 PUSH1 0x1 PUSH1 0xA0 SHL SUB AND SWAP5 PUSH1 0x60 DUP4 ADD MLOAD PUSH2 0x221A SWAP1 PUSH2 0x1754 JUMP JUMPDEST MLOAD PUSH1 0xC0 DUP9 ADD MLOAD PUSH2 0xFFFF AND PUSH1 0x80 SWAP1 SWAP5 ADD MLOAD ISZERO ISZERO SWAP5 PUSH2 0x2235 PUSH2 0x302 JUMP JUMPDEST PUSH1 0x1 PUSH1 0x1 PUSH1 0xA0 SHL SUB SWAP1 SWAP11 AND DUP11 MSTORE PUSH1 0x1 PUSH1 0x1 PUSH1 0xA0 SHL SUB AND PUSH1 0x20 DUP11 ADD MSTORE PUSH1 0x1 PUSH1 0x1 PUSH1 0xA0 SHL SUB SWAP1 SWAP7 AND PUSH1 0x40 DUP10 ADD SWAP1 DUP2 MSTORE SWAP6 PUSH1 0x60 DUP10 ADD MSTORE PUSH1 0x1 PUSH1 0x1 PUSH1 0x80 SHL SUB AND PUSH1 0x80 DUP9 ADD MSTORE PUSH1 0x1 PUSH1 0x1 PUSH1 0x80 SHL SUB AND PUSH1 0xA0 DUP8 ADD MSTORE PUSH2 0xFFFF AND PUSH1 0xC0 DUP7 ADD MSTORE ISZERO ISZERO PUSH1 0xE0 DUP6 ADD MSTORE DUP3 MLOAD ISZERO ISZERO DUP1 DUP1 PUSH2 0x259E JUMPI JUMPDEST ISZERO PUSH2 0x23D4 JUMPI POP POP SWAP2 DUP2 PUSH2 0x2355 SWAP4 PUSH2 0x22BB PUSH1 0x40 PUSH1 0x20 SWAP6 ADD MLOAD ISZERO ISZERO SWAP1 JUMP JUMPDEST ISZERO PUSH2 0x23B9 JUMPI DUP3 PUSH32 0x0 SWAP3 JUMPDEST PUSH1 0x60 DUP2 ADD MLOAD ISZERO PUSH2 0x2393 JUMPI POP PUSH2 0x2337 DUP2 PUSH2 0x1D08 PUSH0 SWAP4 PUSH2 0x1D02 PUSH2 0x1CF6 PUSH2 0x1CF6 PUSH32 0x0 SWAP9 PUSH2 0x1CD5 PUSH1 0x1 PUSH1 0x1 PUSH1 0xA0 SHL SUB DUP13 AND ISZERO ISZERO PUSH2 0x19A5 JUMP JUMPDEST PUSH1 0x40 MLOAD PUSH4 0x1EEBC2D PUSH1 0xE1 SHL DUP2 MSTORE SWAP7 DUP8 SWAP6 DUP7 SWAP5 DUP6 SWAP4 SWAP2 PUSH1 0x4 DUP6 ADD PUSH2 0x2133 JUMP JUMPDEST SUB SWAP3 GAS CALL SWAP1 DUP2 ISZERO PUSH2 0x1D60 JUMPI PUSH0 SWAP2 PUSH2 0x236A JUMPI POP SWAP2 JUMP JUMPDEST PUSH2 0x1D5D SWAP2 POP PUSH1 0x20 RETURNDATASIZE PUSH1 0x20 GT PUSH2 0x238C JUMPI JUMPDEST PUSH2 0x2384 DUP2 DUP4 PUSH2 0x2C3 JUMP JUMPDEST DUP2 ADD SWAP1 PUSH2 0x207A JUMP JUMPDEST POP RETURNDATASIZE PUSH2 0x237A JUMP JUMPDEST DUP2 PUSH2 0x1D08 PUSH0 SWAP4 PUSH2 0x1D02 PUSH2 0x1CF6 PUSH2 0x1CF6 PUSH2 0x1DA3 PUSH2 0x1D96 PUSH2 0x1D85 PUSH1 0xA0 PUSH2 0x2337 SWAP11 ADD MLOAD PUSH1 0xFF AND SWAP1 JUMP JUMPDEST DUP3 PUSH2 0x23CE PUSH2 0x1D96 PUSH2 0x1DBD PUSH1 0x80 DUP7 ADD MLOAD PUSH1 0xFF AND SWAP1 JUMP JUMPDEST SWAP3 PUSH2 0x22E4 JUMP JUMPDEST SWAP2 SWAP3 SWAP2 DUP1 ISZERO SWAP1 DUP2 DUP1 PUSH2 0x2588 JUMPI JUMPDEST ISZERO PUSH2 0x2424 JUMPI POP POP POP POP PUSH2 0x2355 PUSH0 SWAP3 PUSH2 0x2407 PUSH2 0x1CF6 PUSH2 0x1CF6 PUSH1 0x20 SWAP6 MLOAD PUSH1 0x1 DUP1 PUSH1 0xA0 SHL SUB AND SWAP1 JUMP JUMPDEST SWAP1 PUSH1 0x40 MLOAD SWAP5 DUP6 DUP1 SWAP5 DUP2 SWAP4 PUSH4 0x160F04BD PUSH1 0xE2 SHL DUP4 MSTORE PUSH1 0x4 DUP4 ADD PUSH2 0x2122 JUMP JUMPDEST DUP1 PUSH2 0x2572 JUMPI JUMPDEST ISZERO PUSH2 0x24CE JUMPI POP POP SWAP2 PUSH1 0x20 SWAP2 DUP4 DUP3 PUSH2 0x2447 PUSH1 0x40 PUSH2 0x2355 SWAP8 ADD MLOAD ISZERO ISZERO SWAP1 JUMP JUMPDEST ISZERO PUSH2 0x24AE JUMPI PUSH2 0x2490 SWAP2 POP PUSH2 0x1E96 PUSH2 0x1CF6 PUSH2 0x1CF6 PUSH32 0x0 SWAP6 PUSH2 0x1CE9 PUSH1 0x1 PUSH1 0x1 PUSH1 0xA0 SHL SUB DUP9 AND ISZERO ISZERO PUSH2 0x19A5 JUMP JUMPDEST SWAP2 PUSH0 PUSH1 0x40 MLOAD DUP1 SWAP7 DUP2 SWAP6 DUP3 SWAP5 PUSH4 0x5E3344D PUSH1 0xE4 SHL DUP5 MSTORE PUSH1 0x4 DUP5 ADD PUSH2 0x2102 JUMP JUMPDEST PUSH2 0x1E96 PUSH2 0x1CF6 PUSH2 0x1CF6 PUSH2 0x1ED6 PUSH2 0x1D96 PUSH2 0x1DBD PUSH1 0x80 PUSH2 0x2490 SWAP9 ADD MLOAD PUSH1 0xFF AND SWAP1 JUMP JUMPDEST SWAP1 SWAP6 SWAP4 SWAP3 SWAP2 SWAP1 DUP1 PUSH2 0x2565 JUMPI JUMPDEST PUSH2 0x24E3 JUMPI POP POP POP JUMP JUMPDEST PUSH2 0x2355 SWAP4 SWAP6 POP SWAP1 DUP2 DUP4 PUSH2 0x24FC PUSH1 0x60 PUSH1 0x20 SWAP7 SWAP6 ADD MLOAD ISZERO ISZERO SWAP1 JUMP JUMPDEST ISZERO PUSH2 0x2545 JUMPI PUSH2 0x2490 SWAP2 POP PUSH2 0x1E96 PUSH2 0x1CF6 PUSH2 0x1CF6 PUSH32 0x0 SWAP6 PUSH2 0x1CE9 PUSH1 0x1 PUSH1 0x1 PUSH1 0xA0 SHL SUB DUP9 AND ISZERO ISZERO PUSH2 0x177A JUMP JUMPDEST PUSH2 0x1E96 PUSH2 0x1CF6 PUSH2 0x1CF6 PUSH2 0x1FA6 PUSH2 0x1D96 PUSH2 0x1D85 PUSH1 0xA0 PUSH2 0x2490 SWAP9 ADD MLOAD PUSH1 0xFF AND SWAP1 JUMP JUMPDEST POP PUSH1 0x20 DUP2 ADD MLOAD ISZERO ISZERO PUSH2 0x24DA JUMP JUMPDEST POP PUSH2 0x2583 PUSH2 0x16E3 PUSH1 0x20 DUP6 ADD MLOAD ISZERO ISZERO SWAP1 JUMP JUMPDEST PUSH2 0x242A JUMP JUMPDEST POP PUSH2 0x2599 PUSH2 0x16E3 PUSH1 0x20 DUP7 ADD MLOAD ISZERO ISZERO SWAP1 JUMP JUMPDEST PUSH2 0x23E1 JUMP JUMPDEST POP PUSH1 0x20 DUP5 ADD MLOAD ISZERO ISZERO PUSH2 0x229F JUMP JUMPDEST SWAP1 SWAP2 SWAP4 SWAP3 SWAP4 DUP3 ISZERO PUSH2 0x2629 JUMPI SWAP2 SWAP1 PUSH0 SWAP2 JUMPDEST DUP1 DUP4 LT PUSH2 0x25E7 JUMPI POP POP POP DUP1 SWAP3 DUP1 DUP3 LT PUSH2 0x25D2 JUMPI POP POP JUMP JUMPDEST PUSH4 0xD438755D PUSH1 0xE0 SHL PUSH0 MSTORE PUSH1 0x4 MSTORE PUSH1 0x24 MSTORE PUSH1 0x44 PUSH0 REVERT JUMPDEST SWAP1 SWAP2 SWAP3 PUSH2 0x261A PUSH1 0x1 SWAP2 PUSH2 0x25FB DUP7 DUP6 DUP8 PUSH2 0x2AE8 JUMP JUMPDEST DUP7 ISZERO PUSH2 0x2606 DUP7 PUSH2 0x2006 JUMP JUMPDEST DUP9 EQ SWAP1 DUP1 ISZERO PUSH2 0x2623 JUMPI CALLVALUE JUMPDEST ADDRESS SWAP5 CALLER SWAP5 PUSH2 0x2FC1 JUMP JUMPDEST SWAP4 ADD SWAP2 SWAP1 PUSH2 0x25BB JUMP JUMPDEST PUSH0 PUSH2 0x2611 JUMP JUMPDEST PUSH1 0x40 MLOAD PUSH3 0x461BCD PUSH1 0xE5 SHL DUP2 MSTORE PUSH1 0x20 PUSH1 0x4 DUP3 ADD MSTORE PUSH1 0x7 PUSH1 0x24 DUP3 ADD MSTORE PUSH7 0x4E6F20686F7073 PUSH1 0xC8 SHL PUSH1 0x44 DUP3 ADD MSTORE PUSH1 0x64 SWAP1 REVERT JUMPDEST ISZERO PUSH2 0x265F JUMPI JUMP JUMPDEST PUSH1 0x40 MLOAD PUSH3 0x461BCD PUSH1 0xE5 SHL DUP2 MSTORE PUSH1 0x20 PUSH1 0x4 DUP3 ADD MSTORE PUSH1 0x18 PUSH1 0x24 DUP3 ADD MSTORE PUSH32 0x496E76616C6964206C697175696469747920616D6F756E740000000000000000 PUSH1 0x44 DUP3 ADD MSTORE PUSH1 0x64 SWAP1 REVERT JUMPDEST ISZERO PUSH2 0x26AB JUMPI JUMP JUMPDEST PUSH1 0x40 MLOAD PUSH3 0x461BCD PUSH1 0xE5 SHL DUP2 MSTORE PUSH1 0x20 PUSH1 0x4 DUP3 ADD MSTORE PUSH1 0x14 PUSH1 0x24 DUP3 ADD MSTORE PUSH20 0x139BC81B1A5C5D5A591A5D1E481A5B881C1BDBDB PUSH1 0x62 SHL PUSH1 0x44 DUP3 ADD MSTORE PUSH1 0x64 SWAP1 REVERT JUMPDEST SWAP1 PUSH8 0xDE0B6B3A7640000 DUP3 MUL SWAP2 DUP1 DUP4 DIV PUSH8 0xDE0B6B3A7640000 EQ SWAP1 ISZERO OR ISZERO PUSH2 0x6DD JUMPI JUMP JUMPDEST SWAP1 PUSH8 0x120A871CC0020000 DUP3 MUL SWAP2 DUP1 DUP4 DIV PUSH8 0x120A871CC0020000 EQ SWAP1 ISZERO OR ISZERO PUSH2 0x6DD JUMPI JUMP JUMPDEST DUP2 DUP2 MUL SWAP3 SWAP2 DUP2 ISZERO SWAP2 DUP5 DIV EQ OR ISZERO PUSH2 0x6DD JUMPI JUMP JUMPDEST DUP2 ISZERO PUSH2 0x274C JUMPI DIV SWAP1 JUMP JUMPDEST PUSH4 0x4E487B71 PUSH1 0xE0 SHL PUSH0 MSTORE PUSH1 0x12 PUSH1 0x4 MSTORE PUSH1 0x24 PUSH0 REVERT JUMPDEST PUSH1 0xF SIGNEXTEND PUSH16 0x7FFFFFFFFFFFFFFFFFFFFFFFFFFFFFFF NOT DUP2 EQ PUSH2 0x6DD JUMPI PUSH0 SUB SWAP1 JUMP JUMPDEST PUSH1 0x40 MLOAD SWAP1 PUSH1 0xE0 DUP3 ADD DUP3 DUP2 LT PUSH1 0x1 PUSH1 0x1 PUSH1 0x40 SHL SUB DUP3 GT OR PUSH2 0x2BE JUMPI PUSH1 0x40 MSTORE PUSH0 PUSH1 0xC0 DUP4 DUP3 DUP2 MSTORE DUP3 PUSH1 0x20 DUP3 ADD MSTORE DUP3 PUSH1 0x40 DUP3 ADD MSTORE DUP3 PUSH1 0x60 DUP3 ADD MSTORE DUP3 PUSH1 0x80 DUP3 ADD MSTORE DUP3 PUSH1 0xA0 DUP3 ADD MSTORE ADD MSTORE JUMP JUMPDEST PUSH2 0x390 PUSH2 0xFFF PUSH2 0x286A PUSH2 0x27D7 PUSH2 0x2780 JUMP JUMPDEST SWAP4 PUSH1 0xE8 SHR PUSH2 0x27F7 PUSH1 0x1 PUSH2 0x27F0 DUP4 PUSH3 0x7FFFFF SWAP1 PUSH1 0x1 SHR AND SWAP1 JUMP JUMPDEST AND ISZERO ISZERO DUP7 MSTORE JUMP JUMPDEST PUSH1 0x1 DUP2 AND ISZERO ISZERO PUSH1 0x20 DUP7 ADD MSTORE PUSH2 0x2827 PUSH2 0x281E PUSH1 0x1 PUSH1 0x2 DUP5 SWAP1 SHR PUSH3 0x3FFFFF AND JUMPDEST AND PUSH3 0xFFFFFF AND SWAP1 JUMP JUMPDEST ISZERO ISZERO PUSH1 0x40 DUP8 ADD MSTORE JUMP JUMPDEST PUSH2 0x2847 PUSH2 0x283E PUSH1 0x1 PUSH1 0x3 DUP5 SWAP1 SHR PUSH3 0x1FFFFF AND PUSH2 0x2815 JUMP JUMPDEST ISZERO ISZERO PUSH1 0x60 DUP8 ADD MSTORE JUMP JUMPDEST PUSH1 0xF PUSH1 0x4 DUP3 SWAP1 SHR DUP2 AND PUSH1 0x80 DUP8 ADD MSTORE PUSH1 0x8 DUP3 SWAP1 SHR AND PUSH1 0xA0 DUP7 ADD MSTORE PUSH1 0xC SHR PUSH2 0xFFF AND SWAP1 JUMP JUMPDEST AND PUSH2 0xFFFF AND PUSH1 0xC0 DUP4 ADD MSTORE JUMP JUMPDEST SWAP1 SWAP3 SWAP1 PUSH1 0x1 PUSH1 0x1 PUSH1 0xA0 SHL SUB DUP1 DUP6 AND SWAP1 DUP3 AND LT ISZERO PUSH2 0x28E8 JUMPI SWAP3 SWAP2 JUMPDEST PUSH1 0x40 MLOAD PUSH12 0xFFFFFFFFFFFFFFFFFFFFFFFF NOT PUSH1 0x60 SWAP6 DUP7 SHL DUP2 AND PUSH1 0x20 DUP4 ADD SWAP1 DUP2 MSTORE SWAP5 DUP7 SHL DUP2 AND PUSH1 0x34 DUP4 ADD MSTORE SWAP2 SWAP1 SWAP5 SHL AND PUSH1 0x48 DUP5 ADD MSTORE PUSH1 0x1 PUSH1 0x1 PUSH1 0xE8 SHL SUB NOT AND PUSH1 0x5C DUP4 ADD MSTORE PUSH1 0x3F DUP3 MSTORE SWAP1 PUSH2 0x28E2 PUSH1 0x5F DUP3 PUSH2 0x2C3 JUMP JUMPDEST MLOAD SWAP1 KECCAK256 SWAP1 JUMP JUMPDEST SWAP2 PUSH2 0x2890 JUMP JUMPDEST PUSH1 0x20 DUP2 DUP4 SUB SLT PUSH2 0x1DF JUMPI DUP1 MLOAD SWAP1 PUSH1 0x1 PUSH1 0x1 PUSH1 0x40 SHL SUB DUP3 GT PUSH2 0x1DF JUMPI ADD DUP2 PUSH1 0x1F DUP3 ADD SLT ISZERO PUSH2 0x1DF JUMPI DUP1 MLOAD SWAP1 PUSH1 0x1 PUSH1 0x1 PUSH1 0x40 SHL SUB DUP3 GT PUSH2 0x2BE JUMPI PUSH1 0x40 MLOAD SWAP3 PUSH2 0x293E PUSH1 0x1F DUP5 ADD PUSH1 0x1F NOT AND PUSH1 0x20 ADD DUP6 PUSH2 0x2C3 JUMP JUMPDEST DUP3 DUP5 MSTORE PUSH1 0x20 DUP4 DUP4 ADD ADD GT PUSH2 0x1DF JUMPI DUP2 PUSH0 SWAP3 PUSH1 0x20 DUP1 SWAP4 ADD DUP4 DUP7 ADD MCOPY DUP4 ADD ADD MSTORE SWAP1 JUMP JUMPDEST SWAP1 PUSH1 0x60 SWAP2 DUP1 TLOAD DUP1 ISZERO DUP1 PUSH2 0x2AD3 JUMPI JUMPDEST ISZERO PUSH2 0x2A8D JUMPI JUMPDEST POP DUP3 MLOAD ISZERO SWAP2 DUP3 PUSH2 0x29BE JUMPI JUMPDEST POP PUSH1 0x40 MLOAD SWAP2 ISZERO DUP3 MSTORE PUSH1 0x1 PUSH1 0x1 PUSH1 0xA0 SHL SUB AND SWAP1 PUSH32 0xD34145BF6DE6D1B18053AD66A4A1AF093071A5AB67C05B8BFCE98FD95FFB0D89 SWAP1 DUP1 PUSH1 0x20 DUP2 ADD JUMPDEST SUB SWAP1 LOG2 SWAP1 JUMP JUMPDEST PUSH1 0x40 MLOAD PUSH4 0x3BD1104B PUSH1 0xE0 SHL DUP2 MSTORE SWAP4 POP PUSH0 SWAP1 DUP5 SWAP1 DUP2 SWAP1 PUSH2 0x29E0 SWAP1 PUSH1 0x4 DUP4 ADD PUSH2 0x2122 JUMP JUMPDEST SUB DUP2 DUP4 PUSH1 0x1 PUSH1 0x1 PUSH1 0xA0 SHL SUB DUP7 AND GAS CALL SWAP3 DUP4 ISZERO PUSH2 0x1D60 JUMPI PUSH0 SWAP4 PUSH2 0x2A43 JUMPI JUMPDEST POP PUSH2 0x29B8 PUSH32 0xD34145BF6DE6D1B18053AD66A4A1AF093071A5AB67C05B8BFCE98FD95FFB0D89 SWAP2 DUP5 DUP1 MLOAD PUSH2 0x2A33 JUMPI JUMPDEST POP SWAP2 POP PUSH2 0x297E JUMP JUMPDEST PUSH2 0x2A3D SWAP1 DUP3 PUSH2 0x2EE1 JUMP JUMPDEST PUSH0 PUSH2 0x2A2B JUMP JUMPDEST PUSH32 0xD34145BF6DE6D1B18053AD66A4A1AF093071A5AB67C05B8BFCE98FD95FFB0D89 SWAP2 SWAP4 POP PUSH2 0x2A85 PUSH2 0x29B8 SWAP2 RETURNDATASIZE DUP1 PUSH0 DUP4 RETURNDATACOPY PUSH2 0x2A7D DUP2 DUP4 PUSH2 0x2C3 JUMP JUMPDEST DUP2 ADD SWAP1 PUSH2 0x28EE JUMP JUMPDEST SWAP4 SWAP2 POP PUSH2 0x29FD JUMP JUMPDEST SWAP3 POP PUSH1 0x1F PUSH1 0x40 MLOAD SWAP4 DUP1 DUP6 MSTORE ADD DUP1 PUSH1 0x5 SHR PUSH0 JUMPDEST DUP2 DUP2 LT PUSH2 0x2ABA JUMPI POP POP PUSH1 0x1F NOT AND DUP4 ADD PUSH1 0x20 ADD PUSH1 0x40 MSTORE PUSH0 PUSH2 0x2973 JUMP JUMPDEST DUP1 PUSH1 0x1 DUP1 SWAP3 DUP7 ADD ADD TLOAD PUSH1 0x20 DUP3 PUSH1 0x5 SHL DUP10 ADD ADD MSTORE ADD PUSH2 0x2A9F JUMP JUMPDEST SWAP4 POP PUSH1 0x40 MLOAD SWAP4 PUSH0 DUP6 MSTORE PUSH1 0x20 DUP6 ADD PUSH1 0x40 MSTORE PUSH2 0x296D JUMP JUMPDEST SWAP2 SWAP1 DUP2 LT ISZERO PUSH2 0x1761 JUMPI PUSH1 0x5 SHL DUP2 ADD CALLDATALOAD SWAP1 PUSH1 0xBE NOT DUP2 CALLDATASIZE SUB ADD DUP3 SLT ISZERO PUSH2 0x1DF JUMPI ADD SWAP1 JUMP JUMPDEST SWAP2 SWAP1 SWAP2 PUSH1 0x1 DUP1 PUSH1 0xA0 SHL SUB AND DUP1 PUSH0 MSTORE PUSH1 0x1 PUSH1 0x20 MSTORE PUSH1 0x40 PUSH0 KECCAK256 DUP4 PUSH0 MSTORE PUSH1 0x20 MSTORE PUSH1 0x40 PUSH0 KECCAK256 DUP1 SLOAD SWAP1 DUP4 DUP3 SUB SWAP2 DUP3 GT PUSH2 0x6DD JUMPI SSTORE PUSH1 0x40 DUP1 MLOAD CALLER DUP2 MSTORE PUSH1 0x20 DUP2 ADD SWAP4 SWAP1 SWAP4 MSTORE PUSH0 SWAP3 PUSH0 MLOAD PUSH1 0x20 PUSH2 0x39F8 PUSH0 CODECOPY PUSH0 MLOAD SWAP1 PUSH0 MSTORE SWAP2 DUP2 SWAP1 DUP2 ADD JUMPDEST SUB SWAP1 LOG4 JUMP JUMPDEST SWAP1 PUSH1 0xF SIGNEXTEND SWAP1 PUSH1 0xF SIGNEXTEND ADD SWAP1 PUSH1 0x1 PUSH1 0x1 PUSH1 0x7F SHL SUB NOT DUP3 SLT PUSH1 0x1 PUSH1 0x1 PUSH1 0x7F SHL SUB DUP4 SGT OR PUSH2 0x6DD JUMPI JUMP JUMPDEST SWAP1 SWAP2 DUP2 PUSH0 MSTORE PUSH1 0x6 PUSH1 0x20 MSTORE PUSH1 0x1 PUSH1 0x1 PUSH1 0x80 SHL SUB PUSH2 0x2BBC PUSH2 0x2BB2 PUSH1 0x40 PUSH0 KECCAK256 SLOAD SWAP6 DUP4 DUP8 AND PUSH1 0xF SIGNEXTEND PUSH2 0x2B63 JUMP JUMPDEST SWAP3 DUP6 PUSH1 0x80 SAR PUSH2 0x2B63 JUMP JUMPDEST DUP2 NOT SWAP1 PUSH1 0x80 SHL AND SWAP2 AND OR SWAP2 DUP3 SUB PUSH2 0x2BD1 JUMPI POP POP JUMP JUMPDEST PUSH0 MSTORE PUSH1 0x6 PUSH1 0x20 MSTORE PUSH1 0x40 PUSH0 KECCAK256 SSTORE JUMP JUMPDEST SWAP1 SWAP4 SWAP2 DUP3 DUP2 PUSH2 0x2BFF JUMPI JUMPDEST POP POP POP DUP2 PUSH2 0x2BF6 JUMPI POP POP POP JUMP JUMPDEST PUSH2 0x1EE SWAP3 PUSH2 0x3105 JUMP JUMPDEST PUSH2 0x2C08 SWAP3 PUSH2 0x3105 JUMP JUMPDEST PUSH0 DUP1 DUP3 PUSH2 0x2BE9 JUMP JUMPDEST SWAP3 DUP2 PUSH2 0x2C1C JUMPI POP POP POP POP JUMP JUMPDEST PUSH2 0x2C25 SWAP4 PUSH2 0x320C JUMP JUMPDEST PUSH0 DUP1 DUP1 DUP1 PUSH2 0x1EEA JUMP JUMPDEST SWAP2 DUP2 PUSH2 0x2BF6 JUMPI POP POP POP JUMP JUMPDEST SWAP2 SWAP4 SWAP1 SWAP4 DUP6 DUP2 PUSH2 0x2D0F JUMPI JUMPDEST POP POP POP POP DUP1 ISZERO SWAP2 DUP3 ISZERO PUSH2 0x2C57 JUMPI POP POP POP POP JUMP JUMPDEST PUSH1 0x1 PUSH1 0x1 PUSH1 0xA0 SHL SUB AND DUP1 PUSH2 0x2C71 JUMPI POP POP PUSH2 0x2C25 SWAP2 POP PUSH2 0x31CB JUMP JUMPDEST PUSH1 0x20 SWAP3 POP PUSH2 0x2CC0 SWAP4 PUSH2 0x2C83 PUSH1 0x1 PUSH2 0x318C JUMP JUMPDEST PUSH1 0x40 MLOAD PUSH4 0x23B872DD PUSH1 0xE0 SHL DUP2 MSTORE PUSH1 0x1 PUSH1 0x1 PUSH1 0xA0 SHL SUB SWAP1 SWAP2 AND PUSH1 0x4 DUP3 ADD MSTORE ADDRESS PUSH1 0x24 DUP3 ADD MSTORE PUSH1 0x44 DUP2 ADD SWAP3 SWAP1 SWAP3 MSTORE SWAP1 SWAP3 DUP4 SWAP2 SWAP1 DUP3 SWAP1 PUSH0 SWAP1 DUP3 SWAP1 PUSH1 0x64 DUP3 ADD SWAP1 JUMP JUMPDEST SUB SWAP3 GAS CALL DUP1 ISZERO PUSH2 0x1D60 JUMPI PUSH2 0x2CDB SWAP2 PUSH0 SWAP2 PUSH2 0x2CE0 JUMPI JUMPDEST POP PUSH2 0x30C1 JUMP JUMPDEST PUSH2 0x2C25 JUMP JUMPDEST PUSH2 0x2D02 SWAP2 POP PUSH1 0x20 RETURNDATASIZE PUSH1 0x20 GT PUSH2 0x2D08 JUMPI JUMPDEST PUSH2 0x2CFA DUP2 DUP4 PUSH2 0x2C3 JUMP JUMPDEST DUP2 ADD SWAP1 PUSH2 0x30AC JUMP JUMPDEST PUSH0 PUSH2 0x2CD5 JUMP JUMPDEST POP RETURNDATASIZE PUSH2 0x2CF0 JUMP JUMPDEST PUSH2 0x2D18 SWAP4 PUSH2 0x320C JUMP JUMPDEST PUSH0 DUP1 DUP1 DUP6 PUSH2 0x2C44 JUMP JUMPDEST SWAP1 DUP1 PUSH2 0x2D2C JUMPI POP POP POP JUMP JUMPDEST PUSH2 0x1EE SWAP3 PUSH0 SWAP3 PUSH2 0x320C JUMP JUMPDEST PUSH1 0x1 PUSH1 0x1 PUSH1 0x80 SHL SUB SWAP3 SWAP4 PUSH0 EQ PUSH2 0x2D6A JUMPI POP AND SWAP1 DUP1 DUP3 LT PUSH2 0x2D55 JUMPI POP POP JUMP JUMPDEST PUSH4 0x1735867 PUSH1 0xE0 SHL PUSH0 MSTORE PUSH1 0x4 MSTORE PUSH1 0x24 MSTORE PUSH1 0x44 PUSH0 REVERT JUMPDEST SWAP1 POP AND SWAP1 DUP1 DUP3 LT PUSH2 0x2D79 JUMPI POP POP JUMP JUMPDEST PUSH4 0x68580A19 PUSH1 0xE0 SHL PUSH0 MSTORE PUSH1 0x4 MSTORE PUSH1 0x24 MSTORE PUSH1 0x44 PUSH0 REVERT JUMPDEST PUSH1 0x1 PUSH1 0x1 PUSH1 0x80 SHL SUB PUSH8 0xDE0B6B3A7640000 SWAP2 AND MUL SWAP1 PUSH1 0x1 PUSH1 0x1 PUSH1 0x80 SHL SUB DUP3 AND SWAP2 DUP3 SUB PUSH2 0x6DD JUMPI JUMP JUMPDEST SWAP3 SWAP5 SWAP4 SWAP2 SWAP1 SWAP4 DUP3 PUSH0 MSTORE PUSH1 0x5 PUSH1 0x20 MSTORE PUSH1 0x40 PUSH0 KECCAK256 SLOAD ISZERO PUSH0 EQ PUSH2 0x2DF6 JUMPI POP POP POP PUSH2 0x2DDD SWAP3 POP PUSH2 0x2021 JUMP JUMPDEST SWAP1 JUMPDEST DUP2 ISZERO PUSH2 0x2DE7 JUMPI JUMP JUMPDEST PUSH4 0x283EEADF PUSH1 0xE0 SHL PUSH0 MSTORE PUSH1 0x4 PUSH0 REVERT JUMPDEST SWAP1 SWAP3 SWAP2 SWAP4 PUSH8 0xDE0B6B3A7640000 DUP2 MUL SWAP1 DUP1 DUP3 DIV PUSH8 0xDE0B6B3A7640000 EQ SWAP1 ISZERO OR ISZERO PUSH2 0x6DD JUMPI DUP2 PUSH2 0x2E25 SWAP2 PUSH2 0x2742 JUMP JUMPDEST DUP3 ADD DUP1 SWAP3 GT PUSH2 0x6DD JUMPI PUSH2 0x2E6B PUSH2 0x2E5F SWAP4 PUSH1 0x1 PUSH1 0x1 PUSH1 0x80 SHL SUB PUSH2 0x2E64 PUSH2 0x2E7B SWAP5 PUSH2 0x2E5F PUSH2 0x2E53 PUSH2 0x2E82 SWAP12 PUSH2 0x2D8E JUMP JUMPDEST PUSH1 0x1 PUSH1 0x1 PUSH1 0x80 SHL SUB AND SWAP1 JUMP JUMPDEST PUSH2 0x2742 JUMP JUMPDEST SWAP2 AND PUSH2 0x2021 JUMP JUMPDEST SWAP4 PUSH1 0x5 SWAP1 PUSH0 MSTORE PUSH1 0x20 MSTORE PUSH1 0x40 PUSH0 KECCAK256 SWAP1 JUMP JUMPDEST SLOAD SWAP1 PUSH2 0x272F JUMP JUMPDEST SWAP1 PUSH2 0x2DDF JUMP JUMPDEST SWAP2 SWAP1 SWAP2 PUSH1 0x1 DUP1 PUSH1 0xA0 SHL SUB AND SWAP1 DUP2 PUSH0 MSTORE PUSH1 0x1 PUSH1 0x20 MSTORE PUSH1 0x40 PUSH0 KECCAK256 DUP4 PUSH0 MSTORE PUSH1 0x20 MSTORE PUSH1 0x40 PUSH0 KECCAK256 DUP1 SLOAD SWAP1 DUP3 DUP3 ADD DUP1 SWAP3 GT PUSH2 0x6DD JUMPI SSTORE PUSH1 0x40 DUP1 MLOAD CALLER DUP2 MSTORE PUSH1 0x20 DUP2 ADD SWAP3 SWAP1 SWAP3 MSTORE PUSH0 SWAP2 PUSH0 MLOAD PUSH1 0x20 PUSH2 0x39F8 PUSH0 CODECOPY PUSH0 MLOAD SWAP1 PUSH0 MSTORE SWAP2 DUP2 SWAP1 DUP2 ADD PUSH2 0x2B5E JUMP JUMPDEST PUSH1 0x1F DUP3 MLOAD DUP1 DUP4 TSTORE ADD PUSH1 0x5 SHR SWAP2 PUSH0 JUMPDEST DUP4 DUP2 LT PUSH2 0x2EFC JUMPI POP POP POP POP JUMP JUMPDEST DUP1 PUSH1 0x20 PUSH1 0x1 SWAP3 PUSH1 0x5 SHL DUP5 ADD ADD MLOAD DUP3 DUP3 DUP7 ADD ADD TSTORE ADD PUSH2 0x2EEF JUMP JUMPDEST SWAP1 CALLDATALOAD SWAP1 PUSH1 0x1E NOT DUP2 CALLDATASIZE SUB ADD DUP3 SLT ISZERO PUSH2 0x1DF JUMPI ADD DUP1 CALLDATALOAD SWAP1 PUSH1 0x1 PUSH1 0x1 PUSH1 0x40 SHL SUB DUP3 GT PUSH2 0x1DF JUMPI PUSH1 0x20 ADD SWAP2 DUP2 PUSH1 0x5 SHL CALLDATASIZE SUB DUP4 SGT PUSH2 0x1DF JUMPI JUMP JUMPDEST ISZERO PUSH2 0x2F51 JUMPI JUMP JUMPDEST PUSH1 0x40 MLOAD PUSH3 0x461BCD PUSH1 0xE5 SHL DUP2 MSTORE PUSH1 0x20 PUSH1 0x4 DUP3 ADD MSTORE PUSH1 0x11 PUSH1 0x24 DUP3 ADD MSTORE PUSH17 0x4D69736D61746368656420617272617973 PUSH1 0x78 SHL PUSH1 0x44 DUP3 ADD MSTORE PUSH1 0x64 SWAP1 REVERT JUMPDEST CALLDATALOAD PUSH2 0x390 DUP2 PUSH2 0x1CE JUMP JUMPDEST SWAP1 ISZERO PUSH2 0x1761 JUMPI SWAP1 JUMP JUMPDEST SWAP2 SWAP1 DUP2 LT ISZERO PUSH2 0x1761 JUMPI PUSH1 0x5 SHL ADD SWAP1 JUMP JUMPDEST CALLDATALOAD PUSH2 0x390 DUP2 PUSH2 0x3A8 JUMP JUMPDEST CALLDATALOAD PUSH2 0x390 DUP2 PUSH2 0x393 JUMP JUMPDEST SWAP6 SWAP5 SWAP4 SWAP3 SWAP2 SWAP1 PUSH1 0x60 DUP8 ADD PUSH2 0x2FD5 DUP2 DUP10 PUSH2 0x2F15 JUMP JUMPDEST SWAP1 POP ISZERO PUSH2 0x3079 JUMPI PUSH2 0x3001 PUSH2 0x2FEC PUSH1 0x80 DUP11 ADD DUP11 PUSH2 0x2F15 JUMP JUMPDEST SWAP1 POP PUSH2 0x2FF8 DUP4 DUP12 PUSH2 0x2F15 JUMP JUMPDEST SWAP2 SWAP1 POP EQ PUSH2 0x2F4A JUMP JUMPDEST PUSH1 0x1 PUSH2 0x300D DUP3 DUP11 PUSH2 0x2F15 JUMP JUMPDEST SWAP1 POP EQ PUSH0 EQ PUSH2 0x306B JUMPI DUP8 PUSH2 0x3023 PUSH2 0x390 SWAP10 PUSH2 0x2F8A JUMP JUMPDEST SWAP2 PUSH2 0x3030 PUSH1 0x20 DUP4 ADD PUSH2 0x2F8A JUMP JUMPDEST PUSH2 0x3063 PUSH1 0xA0 PUSH2 0x305C PUSH2 0x3057 PUSH2 0x3051 PUSH2 0x304A PUSH1 0x40 DUP10 ADD PUSH2 0x2F8A JUMP JUMPDEST SWAP7 DUP9 PUSH2 0x2F15 JUMP JUMPDEST SWAP1 PUSH2 0x2F94 JUMP JUMPDEST PUSH2 0x2FAD JUMP JUMPDEST SWAP5 ADD PUSH2 0x2FB7 JUMP JUMPDEST SWAP4 PUSH1 0x5 PUSH2 0x3705 JUMP JUMPDEST POP SWAP1 POP PUSH2 0x390 SWAP6 PUSH1 0x5 PUSH2 0x335C JUMP JUMPDEST PUSH1 0x40 MLOAD PUSH3 0x461BCD PUSH1 0xE5 SHL DUP2 MSTORE PUSH1 0x20 PUSH1 0x4 DUP3 ADD MSTORE PUSH1 0xB PUSH1 0x24 DUP3 ADD MSTORE PUSH11 0x4E6F206D61726B696E6773 PUSH1 0xA8 SHL PUSH1 0x44 DUP3 ADD MSTORE PUSH1 0x64 SWAP1 REVERT JUMPDEST SWAP1 DUP2 PUSH1 0x20 SWAP2 SUB SLT PUSH2 0x1DF JUMPI MLOAD PUSH2 0x390 DUP2 PUSH2 0x393 JUMP JUMPDEST ISZERO PUSH2 0x30C8 JUMPI JUMP JUMPDEST PUSH1 0x40 MLOAD PUSH3 0x461BCD PUSH1 0xE5 SHL DUP2 MSTORE PUSH1 0x20 PUSH1 0x4 DUP3 ADD MSTORE PUSH1 0x15 PUSH1 0x24 DUP3 ADD MSTORE PUSH21 0x115490CC8C081D1C985B9CD9995C8819985A5B1959 PUSH1 0x5A SHL PUSH1 0x44 DUP3 ADD MSTORE PUSH1 0x64 SWAP1 REVERT JUMPDEST PUSH1 0x1 PUSH1 0x1 PUSH1 0xA0 SHL SUB AND DUP1 PUSH2 0x313F JUMPI POP PUSH0 DUP1 DUP1 SWAP4 DUP2 SWAP4 DUP3 SWAP1 DUP3 ISZERO PUSH2 0x3135 JUMPI JUMPDEST PUSH1 0x1 PUSH1 0x1 PUSH1 0xA0 SHL SUB AND SWAP1 CALL ISZERO PUSH2 0x1D60 JUMPI JUMP JUMPDEST PUSH2 0x8FC SWAP2 POP PUSH2 0x3123 JUMP JUMPDEST PUSH1 0x40 MLOAD PUSH4 0xA9059CBB PUSH1 0xE0 SHL DUP2 MSTORE PUSH1 0x1 PUSH1 0x1 PUSH1 0xA0 SHL SUB SWAP1 SWAP3 AND PUSH1 0x4 DUP4 ADD MSTORE PUSH1 0x24 DUP3 ADD SWAP3 SWAP1 SWAP3 MSTORE SWAP1 PUSH1 0x20 SWAP1 DUP3 SWAP1 DUP2 PUSH0 DUP2 PUSH1 0x44 DUP2 ADD JUMPDEST SUB SWAP3 GAS CALL DUP1 ISZERO PUSH2 0x1D60 JUMPI PUSH2 0x1EE SWAP2 PUSH0 SWAP2 PUSH2 0x2CE0 JUMPI POP PUSH2 0x30C1 JUMP JUMPDEST ISZERO PUSH2 0x3193 JUMPI JUMP JUMPDEST PUSH1 0x40 MLOAD PUSH3 0x461BCD PUSH1 0xE5 SHL DUP2 MSTORE PUSH1 0x20 PUSH1 0x4 DUP3 ADD MSTORE PUSH1 0x10 PUSH1 0x24 DUP3 ADD MSTORE PUSH16 0x115512081B9BDD08195E1C1958DD1959 PUSH1 0x82 SHL PUSH1 0x44 DUP3 ADD MSTORE PUSH1 0x64 SWAP1 REVERT JUMPDEST ISZERO PUSH2 0x31D2 JUMPI JUMP JUMPDEST PUSH1 0x40 MLOAD PUSH3 0x461BCD PUSH1 0xE5 SHL DUP2 MSTORE PUSH1 0x20 PUSH1 0x4 DUP3 ADD MSTORE PUSH1 0x12 PUSH1 0x24 DUP3 ADD MSTORE PUSH18 0x125B98DBDC9C9958DD08115512081CD95B9D PUSH1 0x72 SHL PUSH1 0x44 DUP3 ADD MSTORE PUSH1 0x64 SWAP1 REVERT JUMPDEST SWAP1 SWAP3 SWAP1 PUSH1 0x1 PUSH1 0x1 PUSH1 0xA0 SHL SUB AND DUP1 PUSH2 0x3229 JUMPI POP PUSH2 0x1EE SWAP3 POP EQ PUSH2 0x31CB JUMP JUMPDEST PUSH2 0x3172 SWAP4 PUSH2 0x2C83 PUSH1 0x20 SWAP5 SWAP4 ISZERO PUSH2 0x318C JUMP JUMPDEST SWAP2 SWAP1 SWAP2 PUSH1 0x40 DUP2 DUP5 SUB SLT PUSH2 0x1DF JUMPI DUP1 MLOAD PUSH1 0x1 PUSH1 0x1 PUSH1 0x40 SHL SUB DUP2 GT PUSH2 0x1DF JUMPI DUP4 PUSH2 0x3263 SWAP2 DUP4 ADD PUSH2 0x17BD JUMP JUMPDEST SWAP3 PUSH1 0x20 DUP3 ADD MLOAD PUSH1 0x1 PUSH1 0x1 PUSH1 0x40 SHL SUB DUP2 GT PUSH2 0x1DF JUMPI PUSH2 0x390 SWAP3 ADD PUSH2 0x17BD JUMP JUMPDEST SWAP1 PUSH1 0x20 DUP1 DUP4 MLOAD SWAP3 DUP4 DUP2 MSTORE ADD SWAP3 ADD SWAP1 PUSH0 JUMPDEST DUP2 DUP2 LT PUSH2 0x329E JUMPI POP POP POP SWAP1 JUMP JUMPDEST DUP3 MLOAD PUSH1 0x1 PUSH1 0x1 PUSH1 0xE8 SHL SUB NOT AND DUP5 MSTORE PUSH1 0x20 SWAP4 DUP5 ADD SWAP4 SWAP1 SWAP3 ADD SWAP2 PUSH1 0x1 ADD PUSH2 0x3291 JUMP JUMPDEST DUP1 MLOAD PUSH1 0x1 PUSH1 0x1 PUSH1 0xA0 SHL SUB SWAP1 DUP2 AND DUP4 MSTORE PUSH1 0x20 DUP1 DUP4 ADD MLOAD DUP3 AND SWAP1 DUP5 ADD MSTORE PUSH1 0x40 DUP1 DUP4 ADD MLOAD SWAP1 SWAP2 AND SWAP1 DUP4 ADD MSTORE PUSH1 0x60 DUP1 DUP3 ADD MLOAD PUSH1 0xC0 SWAP2 DUP5 ADD DUP3 SWAP1 MSTORE PUSH2 0x390 SWAP4 SWAP2 PUSH1 0xA0 SWAP2 PUSH2 0x3308 SWAP2 DUP5 ADD SWAP1 PUSH2 0x59D JUMP JUMPDEST SWAP3 PUSH1 0x80 DUP2 ADD MLOAD ISZERO ISZERO PUSH1 0x80 DUP5 ADD MSTORE ADD MLOAD SWAP1 PUSH1 0xA0 DUP2 DUP5 SUB SWAP2 ADD MSTORE PUSH2 0x3281 JUMP JUMPDEST SWAP2 PUSH2 0x334E SWAP1 PUSH2 0x3340 PUSH2 0x390 SWAP6 SWAP4 PUSH1 0x60 DUP7 MSTORE PUSH1 0x60 DUP7 ADD SWAP1 PUSH2 0x32BE JUMP JUMPDEST SWAP1 DUP5 DUP3 SUB PUSH1 0x20 DUP7 ADD MSTORE PUSH2 0x183F JUMP JUMPDEST SWAP2 PUSH1 0x40 DUP2 DUP5 SUB SWAP2 ADD MSTORE PUSH2 0x183F JUMP JUMPDEST SWAP7 SWAP5 SWAP6 SWAP1 SWAP3 SWAP4 SWAP2 SWAP7 PUSH1 0x60 DUP5 ADD SWAP8 DUP8 PUSH2 0x3374 DUP11 DUP8 PUSH2 0x2F15 JUMP JUMPDEST SWAP8 SWAP1 POP PUSH2 0x36CF JUMPI JUMPDEST POP POP PUSH2 0x3387 DUP6 PUSH2 0x170E JUMP JUMPDEST SWAP2 PUSH2 0x3391 DUP7 PUSH2 0x170E JUMP JUMPDEST SWAP1 PUSH0 JUMPDEST DUP8 DUP2 LT PUSH2 0x3639 JUMPI POP DUP2 PUSH0 SWAP2 DUP6 DUP4 DUP10 PUSH2 0x3458 PUSH2 0x347A SWAP14 SWAP15 SWAP16 PUSH2 0x342C PUSH2 0x3451 PUSH2 0x33BA DUP6 PUSH2 0x2F8A JUMP JUMPDEST SWAP5 PUSH2 0x3443 PUSH2 0x33CA PUSH1 0x20 DUP4 ADD PUSH2 0x2F8A JUMP JUMPDEST SWAP5 PUSH2 0x33FF PUSH2 0x343C PUSH2 0x33DD PUSH1 0x40 DUP7 ADD PUSH2 0x2F8A JUMP JUMPDEST PUSH2 0x33EA PUSH1 0x80 DUP8 ADD DUP8 PUSH2 0x2F15 JUMP JUMPDEST SWAP4 SWAP1 SWAP5 PUSH2 0x33F9 PUSH1 0xA0 DUP10 ADD PUSH2 0x2FB7 JUMP JUMPDEST SWAP8 PUSH2 0x2F15 JUMP JUMPDEST SWAP9 SWAP1 SWAP10 PUSH2 0x341C PUSH2 0x340D PUSH2 0x2E4 JUMP JUMPDEST PUSH1 0x1 PUSH1 0x1 PUSH1 0xA0 SHL SUB SWAP1 SWAP15 AND DUP15 MSTORE JUMP JUMPDEST PUSH1 0x1 PUSH1 0x1 PUSH1 0xA0 SHL SUB AND PUSH1 0x20 DUP14 ADD MSTORE JUMP JUMPDEST PUSH1 0x1 PUSH1 0x1 PUSH1 0xA0 SHL SUB AND PUSH1 0x40 DUP12 ADD MSTORE JUMP JUMPDEST CALLDATASIZE SWAP2 PUSH2 0x329 JUMP JUMPDEST PUSH1 0x60 DUP8 ADD MSTORE ISZERO ISZERO PUSH1 0x80 DUP7 ADD MSTORE JUMP JUMPDEST CALLDATASIZE SWAP2 PUSH2 0x3BA JUMP JUMPDEST PUSH1 0xA0 DUP3 ADD MSTORE PUSH1 0x40 MLOAD PUSH4 0x27B8F7B PUSH1 0xE1 SHL DUP2 MSTORE SWAP13 DUP14 SWAP6 DUP7 SWAP5 DUP6 SWAP4 PUSH1 0x4 DUP6 ADD PUSH2 0x3325 JUMP JUMPDEST SUB SWAP3 PUSH1 0x1 PUSH1 0x1 PUSH1 0xA0 SHL SUB AND GAS CALL SWAP1 DUP2 ISZERO PUSH2 0x1D60 JUMPI PUSH0 SWAP8 PUSH0 SWAP3 PUSH2 0x3612 JUMPI JUMPDEST POP PUSH0 JUMPDEST DUP8 DUP2 LT PUSH2 0x3516 JUMPI POP POP POP POP POP SWAP1 PUSH2 0x34C3 SWAP5 SWAP6 PUSH2 0x34BD SWAP4 SWAP3 PUSH2 0x34C7 JUMPI JUMPDEST POP POP PUSH2 0x2006 JUMP JUMPDEST SWAP1 PUSH2 0x1766 JUMP JUMPDEST MLOAD SWAP1 JUMP JUMPDEST DUP2 PUSH2 0x34D7 PUSH1 0xA0 PUSH2 0x3501 SWAP5 ADD PUSH2 0x2FB7 JUMP JUMPDEST ISZERO PUSH2 0x3508 JUMPI PUSH1 0x20 PUSH2 0x34E8 SWAP2 ADD PUSH2 0x2F8A JUMP JUMPDEST PUSH2 0x34FA PUSH2 0x34F4 DUP6 PUSH2 0x2006 JUMP JUMPDEST DUP8 PUSH2 0x1766 JUMP JUMPDEST MLOAD SWAP1 PUSH2 0x2C2E JUMP JUMPDEST PUSH0 DUP1 PUSH2 0x34B6 JUMP JUMPDEST PUSH2 0x3511 SWAP1 PUSH2 0x2F8A JUMP JUMPDEST PUSH2 0x34E8 JUMP JUMPDEST DUP1 PUSH2 0x35D8 DUP11 DUP10 PUSH2 0x3540 DUP5 PUSH2 0x3539 PUSH1 0x1 SWAP8 PUSH2 0x3533 PUSH1 0x80 DUP7 ADD DUP7 PUSH2 0x2F15 JUMP JUMPDEST SWAP1 PUSH2 0x2F9D JUMP JUMPDEST CALLDATALOAD SWAP4 PUSH2 0x1766 JUMP JUMPDEST MLOAD PUSH2 0x357E PUSH2 0x355E PUSH2 0x3551 DUP8 DUP14 PUSH2 0x1766 JUMP JUMPDEST MLOAD PUSH1 0x1 PUSH1 0x1 PUSH1 0x80 SHL SUB AND SWAP1 JUMP JUMPDEST DUP3 PUSH2 0x356C PUSH2 0x3551 DUP10 DUP13 PUSH2 0x1766 JUMP JUMPDEST PUSH2 0x3578 PUSH1 0xA0 DUP8 ADD PUSH2 0x2FB7 JUMP JUMPDEST SWAP3 PUSH2 0x2D37 JUMP JUMPDEST PUSH2 0x3588 DUP6 DUP10 PUSH2 0x1766 JUMP JUMPDEST MLOAD SWAP3 PUSH2 0x3596 PUSH1 0xA0 DUP5 ADD PUSH2 0x2FB7 JUMP JUMPDEST ISZERO PUSH2 0x35F2 JUMPI PUSH2 0x35B5 PUSH1 0xA0 PUSH1 0x1 PUSH1 0x1 PUSH1 0x80 SHL SUB DUP4 AND PUSH1 0xF SIGNEXTEND SWAP5 JUMPDEST ADD PUSH2 0x2FB7 JUMP JUMPDEST ISZERO PUSH2 0x35DE JUMPI POP PUSH1 0x1 PUSH1 0x1 PUSH1 0x80 SHL SUB PUSH2 0x35D0 SWAP2 AND PUSH1 0xF SIGNEXTEND PUSH2 0x2760 JUMP JUMPDEST SWAP2 JUMPDEST DUP9 PUSH2 0x3820 JUMP JUMPDEST ADD PUSH2 0x349A JUMP JUMPDEST PUSH1 0x1 PUSH1 0x1 PUSH1 0x80 SHL SUB SWAP2 POP AND PUSH1 0xF SIGNEXTEND SWAP2 PUSH2 0x35D2 JUMP JUMPDEST PUSH2 0x35B5 PUSH1 0xA0 PUSH2 0x360C PUSH1 0x1 PUSH1 0x1 PUSH1 0x80 SHL SUB DUP6 AND PUSH1 0xF SIGNEXTEND PUSH2 0x2760 JUMP JUMPDEST SWAP5 PUSH2 0x35AF JUMP JUMPDEST SWAP1 SWAP8 POP PUSH2 0x3631 SWAP2 POP RETURNDATASIZE DUP1 PUSH0 DUP4 RETURNDATACOPY PUSH2 0x3629 DUP2 DUP4 PUSH2 0x2C3 JUMP JUMPDEST DUP2 ADD SWAP1 PUSH2 0x323A JUMP JUMPDEST SWAP1 SWAP7 PUSH0 PUSH2 0x3497 JUMP JUMPDEST PUSH1 0x1 SWAP1 PUSH2 0x36C9 PUSH2 0x36BF PUSH2 0x36A4 PUSH2 0x3683 DUP16 DUP13 PUSH2 0x3653 DUP2 PUSH2 0x2F8A JUMP JUMPDEST SWAP2 PUSH2 0x367D PUSH2 0x3057 DUP10 PUSH2 0x3533 PUSH2 0x366A PUSH1 0x20 DUP8 ADD PUSH2 0x2F8A JUMP JUMPDEST SWAP5 PUSH2 0x3677 PUSH1 0x40 DUP9 ADD PUSH2 0x2F8A JUMP JUMPDEST SWAP7 PUSH2 0x2F15 JUMP JUMPDEST SWAP3 PUSH2 0x2876 JUMP JUMPDEST DUP9 PUSH1 0x1 SWAP2 PUSH0 MSTORE ADD PUSH1 0x20 MSTORE PUSH1 0x40 PUSH0 KECCAK256 SLOAD SWAP1 PUSH1 0x1 PUSH1 0x1 PUSH1 0x80 SHL SUB DUP3 AND SWAP2 PUSH1 0x80 SHR SWAP1 JUMP JUMPDEST PUSH2 0x36B1 DUP6 DUP10 SWAP5 SWAP4 SWAP5 PUSH2 0x1766 JUMP JUMPDEST SWAP1 PUSH1 0x1 PUSH1 0x1 PUSH1 0x80 SHL SUB AND SWAP1 MSTORE JUMP JUMPDEST PUSH2 0x36B1 DUP4 DUP10 PUSH2 0x1766 JUMP JUMPDEST ADD PUSH2 0x3394 JUMP JUMPDEST PUSH2 0x36F2 SWAP2 PUSH2 0x36DF PUSH1 0xA0 DUP9 ADD PUSH2 0x2FB7 JUMP JUMPDEST ISZERO PUSH2 0x36F9 JUMPI PUSH2 0x36ED DUP8 PUSH2 0x2F8A JUMP JUMPDEST PUSH2 0x2D21 JUMP JUMPDEST PUSH0 DUP8 PUSH2 0x337C JUMP JUMPDEST PUSH2 0x36ED PUSH1 0x20 DUP9 ADD PUSH2 0x2F8A JUMP JUMPDEST SWAP3 SWAP1 SWAP6 SWAP2 SWAP7 SWAP5 DUP1 SWAP13 SWAP12 DUP2 SWAP12 SWAP11 SWAP7 SWAP10 SWAP6 SWAP10 DUP12 PUSH2 0x3722 DUP13 DUP7 DUP14 DUP14 PUSH2 0x2876 JUMP JUMPDEST SWAP8 ISZERO PUSH2 0x3819 JUMPI PUSH2 0x3739 SWAP2 DUP5 ISZERO PUSH2 0x3812 JUMPI DUP7 DUP12 PUSH2 0x2C10 JUMP JUMPDEST DUP9 DUP9 DUP6 PUSH2 0x3761 DUP10 DUP10 PUSH1 0x1 SWAP2 PUSH0 MSTORE ADD PUSH1 0x20 MSTORE PUSH1 0x40 PUSH0 KECCAK256 SLOAD SWAP1 PUSH1 0x1 PUSH1 0x1 PUSH1 0x80 SHL SUB DUP3 AND SWAP2 PUSH1 0x80 SHR SWAP1 JUMP JUMPDEST SWAP14 DUP2 SWAP8 DUP16 SWAP6 PUSH2 0x3771 SWAP9 SWAP4 SWAP6 PUSH2 0x38BE JUMP JUMPDEST SWAP12 DUP13 DUP1 SWAP10 PUSH2 0x377E SWAP4 PUSH2 0x2D37 JUMP JUMPDEST PUSH2 0x37B9 SWAP3 DUP10 ISZERO PUSH2 0x37F7 JUMPI PUSH1 0x1 PUSH1 0x1 PUSH1 0x80 SHL SUB DUP3 AND PUSH1 0xF SIGNEXTEND SWAP2 JUMPDEST DUP11 ISZERO PUSH2 0x37E5 JUMPI POP PUSH2 0x37B3 PUSH1 0x1 PUSH1 0x1 PUSH1 0x80 SHL SUB DUP10 AND PUSH1 0xF SIGNEXTEND PUSH2 0x2760 JUMP JUMPDEST SWAP3 PUSH2 0x3820 JUMP JUMPDEST PUSH2 0x37C5 JUMPI JUMPDEST POP POP POP POP POP JUMP JUMPDEST PUSH2 0x37D4 SWAP5 ISZERO PUSH2 0x37DE JUMPI POP PUSH2 0x2C2E JUMP JUMPDEST PUSH0 DUP1 DUP4 DUP2 DUP1 PUSH2 0x37BE JUMP JUMPDEST SWAP1 POP PUSH2 0x2C2E JUMP JUMPDEST PUSH1 0x1 PUSH1 0x1 PUSH1 0x80 SHL SUB AND PUSH1 0xF SIGNEXTEND SWAP3 PUSH2 0x3820 JUMP JUMPDEST PUSH2 0x380C PUSH1 0x1 PUSH1 0x1 PUSH1 0x80 SHL SUB DUP10 AND PUSH1 0xF SIGNEXTEND PUSH2 0x2760 JUMP JUMPDEST SWAP2 PUSH2 0x3797 JUMP JUMPDEST DUP7 DUP13 PUSH2 0x2C10 JUMP JUMPDEST POP POP PUSH2 0x3739 JUMP JUMPDEST PUSH1 0x1 SWAP1 SWAP4 SWAP3 SWAP4 ADD SWAP2 DUP2 PUSH0 MSTORE DUP3 PUSH1 0x20 MSTORE PUSH1 0x1 PUSH1 0x1 PUSH1 0x80 SHL SUB PUSH2 0x3858 PUSH2 0x384E PUSH1 0x40 PUSH0 KECCAK256 SLOAD SWAP7 DUP4 DUP9 AND PUSH1 0xF SIGNEXTEND PUSH2 0x2B63 JUMP JUMPDEST SWAP3 DUP7 PUSH1 0x80 SAR PUSH2 0x2B63 JUMP JUMPDEST DUP2 NOT SWAP1 PUSH1 0x80 SHL AND SWAP2 AND OR SWAP3 DUP4 SUB PUSH2 0x386E JUMPI POP POP POP JUMP JUMPDEST PUSH0 MSTORE PUSH1 0x20 MSTORE PUSH1 0x40 PUSH0 KECCAK256 SSTORE JUMP JUMPDEST SWAP2 SWAP1 DUP3 PUSH1 0x40 SWAP2 SUB SLT PUSH2 0x1DF JUMPI PUSH1 0x20 DUP3 MLOAD SWAP3 ADD MLOAD SWAP1 JUMP JUMPDEST SWAP2 SWAP4 SWAP3 PUSH1 0x1 PUSH1 0x1 PUSH1 0x80 SHL SUB SWAP1 DUP2 PUSH2 0x38B1 PUSH1 0x40 SWAP5 PUSH1 0x60 DUP8 MSTORE PUSH1 0x60 DUP8 ADD SWAP1 PUSH2 0x32BE JUMP JUMPDEST SWAP7 AND PUSH1 0x20 DUP6 ADD MSTORE AND SWAP2 ADD MSTORE JUMP JUMPDEST PUSH2 0x3962 SWAP9 SWAP4 PUSH0 SWAP3 PUSH2 0x3934 PUSH1 0x40 SWAP9 SWAP11 SWAP8 SWAP10 SWAP6 PUSH2 0x3925 PUSH2 0x38DA PUSH2 0x16EC JUMP JUMPDEST SWAP4 DUP14 PUSH2 0x38E5 DUP7 PUSH2 0x1754 JUMP JUMPDEST MSTORE PUSH2 0x38FB PUSH2 0x38F1 PUSH2 0x16EC JUMP JUMPDEST SWAP7 PUSH2 0x1470 DUP9 PUSH2 0x1754 JUMP JUMPDEST PUSH2 0x3915 PUSH2 0x3906 PUSH2 0x2E4 JUMP JUMPDEST PUSH1 0x1 PUSH1 0x1 PUSH1 0xA0 SHL SUB SWAP1 SWAP9 AND DUP9 MSTORE JUMP JUMPDEST PUSH1 0x1 PUSH1 0x1 PUSH1 0xA0 SHL SUB AND PUSH1 0x20 DUP8 ADD MSTORE JUMP JUMPDEST PUSH1 0x1 PUSH1 0x1 PUSH1 0xA0 SHL SUB AND DUP5 DUP11 ADD MSTORE JUMP JUMPDEST PUSH1 0x60 DUP4 ADD MSTORE DUP8 ISZERO ISZERO PUSH1 0x80 DUP4 ADD MSTORE PUSH1 0xA0 DUP3 ADD MSTORE DUP6 MLOAD PUSH4 0x60A80DBB PUSH1 0xE0 SHL DUP2 MSTORE SWAP9 DUP10 SWAP6 DUP7 SWAP5 DUP6 SWAP4 PUSH1 0x4 DUP6 ADD PUSH2 0x3890 JUMP JUMPDEST SUB SWAP3 PUSH1 0x1 PUSH1 0x1 PUSH1 0xA0 SHL SUB AND GAS CALL SWAP3 DUP4 ISZERO PUSH2 0x1D60 JUMPI PUSH0 SWAP4 PUSH2 0x39C5 JUMPI JUMPDEST POP DUP3 ISZERO PUSH2 0x3989 JUMPI POP POP SWAP1 JUMP JUMPDEST SWAP1 SWAP2 POP ISZERO PUSH2 0x39AB JUMPI PUSH2 0x399D PUSH2 0x390 SWAP2 PUSH2 0x270B JUMP JUMPDEST PUSH8 0xDE0B6B3A7640000 SWAP1 DIV SWAP1 JUMP JUMPDEST PUSH2 0x39B7 PUSH2 0x390 SWAP2 PUSH2 0x26E7 JUMP JUMPDEST PUSH8 0x120A871CC0020000 SWAP1 DIV SWAP1 JUMP JUMPDEST PUSH2 0x39E8 SWAP2 SWAP4 POP PUSH1 0x40 RETURNDATASIZE PUSH1 0x40 GT PUSH2 0x39F0 JUMPI JUMPDEST PUSH2 0x39E0 DUP2 DUP4 PUSH2 0x2C3 JUMP JUMPDEST DUP2 ADD SWAP1 PUSH2 0x387A JUMP JUMPDEST POP SWAP2 PUSH0 PUSH2 0x397D JUMP JUMPDEST POP RETURNDATASIZE PUSH2 0x39D6 JUMP INVALID SHL RETURNDATASIZE PUSH31 0xDB2E9C0B0E7C525B20AAAEF0F5940D2ED71663C7D39266ECAFAC728859A264 PUSH10 0x706673582212206B4A34 0xC5 LOG0 SWAP4 0xAE 0xBA 0xC7 0xBB 0xB0 PUSH18 0xB0649BEB2588308CB0AFFA655D2D7BE46669 CALLDATASIZE 0xE PUSH5 0x736F6C6343 STOP ADDMOD 0x1E STOP CALLER "},"methodIdentifiers":{"addAlphaMarketAddress(uint8,address)":"460c6df8","addBetaMarketAddress(uint8,address)":"7dc27c95","addLiquidity(address,address,address,bytes3,uint256,uint256)":"e513315b","allowance(address,address,uint256)":"598af9e7","approve(address,uint256,uint256)":"426a8493","balanceOf(address,uint256)":"00fdd58e","batchSwap((address,address,address,bytes3[],uint256[],bool)[],uint256,uint256)":"9d2ec6e4","createPool(address,address,address,bytes3)":"5670f55a","defaultAlpha()":"a1a44dad","defaultBeta()":"19920a5f","getAlphaMarketAddress(uint8)":"d2615fc8","getBetaMarketAddress(uint8)":"83e66c2e","getInventory(uint256)":"5b298d32","getPoolInfo(uint256)":"2f380b35","getQuote((address,address,address,uint256[],bool,bytes3[]),uint128,uint128)":"60a80dbb","getQuoteBatch((address,address,address,uint256[],bool,bytes3[]),uint128[],uint128[])":"04f71ef6","isOperator(address,address)":"b6363cf2","removeAlphaMarketAddress(uint8)":"8e832e08","removeBetaMarketAddress(uint8)":"61408f26","removeLiquidity(address,address,address,bytes3,uint256)":"cb1f2f38","routerGetQuote((address,address,address,uint256[],bool,bytes3[]),uint128,uint128)":"8f155291","routerGetQuoteBatch((address,address,address,uint256[],bool,bytes3[]),uint128[],uint128[])":"c279171d","setOperator(address,bool)":"558a7297","supportsInterface(bytes4)":"01ffc9a7","swap(address,address,address,bytes3,uint256,bool,uint256)":"d92bc84c","totalLiquidity(uint256)":"b5e60c3c","transfer(address,uint256,uint256)":"095bcdb6","transferFrom(address,address,uint256,uint256)":"fe99049a"}}}}}