{"contracts/PoolManager.sol":{"PoolManager":{"abi":[{"inputs":[{"internalType":"address","name":"_defaultAlpha","type":"address"},{"internalType":"address","name":"_defaultBeta","type":"address"}],"stateMutability":"nonpayable","type":"constructor"},{"inputs":[{"internalType":"uint256","name":"required","type":"uint256"},{"internalType":"uint256","name":"available","type":"uint256"}],"name":"PoolManager__InsufficientAsset0","type":"error"},{"inputs":[{"internalType":"uint256","name":"required","type":"uint256"},{"internalType":"uint256","name":"available","type":"uint256"}],"name":"PoolManager__InsufficientAsset1","type":"error"},{"inputs":[],"name":"PoolManager__InsufficientLiquidityMinted","type":"error"},{"inputs":[{"internalType":"uint256","name":"minOut","type":"uint256"},{"internalType":"uint256","name":"actual","type":"uint256"}],"name":"PoolManager__InsufficientOutput","type":"error"},{"inputs":[{"internalType":"uint256","name":"amount0","type":"uint256"},{"internalType":"uint256","name":"amount1","type":"uint256"}],"name":"PoolManager__InsufficientWithdrawal","type":"error"},{"inputs":[],"name":"PoolManager__InvalidQuote","type":"error"},{"inputs":[{"internalType":"uint256","name":"poolID","type":"uint256"}],"name":"PoolManager__PoolAlreadyExists","type":"error"},{"anonymous":false,"inputs":[{"indexed":true,"internalType":"address","name":"owner","type":"address"},{"indexed":true,"internalType":"address","name":"spender","type":"address"},{"indexed":true,"internalType":"uint256","name":"id","type":"uint256"},{"indexed":false,"internalType":"uint256","name":"amount","type":"uint256"}],"name":"Approval","type":"event"},{"anonymous":false,"inputs":[{"indexed":true,"internalType":"address","name":"provider","type":"address"},{"indexed":false,"internalType":"bool","name":"hit","type":"bool"}],"name":"MarketDataCache","type":"event"},{"anonymous":false,"inputs":[{"indexed":true,"internalType":"address","name":"owner","type":"address"},{"indexed":true,"internalType":"address","name":"operator","type":"address"},{"indexed":false,"internalType":"bool","name":"approved","type":"bool"}],"name":"OperatorSet","type":"event"},{"anonymous":false,"inputs":[{"indexed":true,"internalType":"uint256","name":"poolID","type":"uint256"},{"indexed":false,"internalType":"address","name":"asset0","type":"address"},{"indexed":false,"internalType":"address","name":"asset1","type":"address"},{"indexed":false,"internalType":"address","name":"quoter","type":"address"},{"indexed":false,"internalType":"bytes3","name":"markings","type":"bytes3"}],"name":"PoolCreated","type":"event"},{"anonymous":false,"inputs":[{"indexed":false,"internalType":"address","name":"caller","type":"address"},{"indexed":true,"internalType":"address","name":"from","type":"address"},{"indexed":true,"internalType":"address","name":"to","type":"address"},{"indexed":true,"internalType":"uint256","name":"id","type":"uint256"},{"indexed":false,"internalType":"uint256","name":"amount","type":"uint256"}],"name":"Transfer","type":"event"},{"inputs":[{"internalType":"uint8","name":"pointer","type":"uint8"},{"internalType":"address","name":"alphaAddress","type":"address"}],"name":"addAlphaMarketAddress","outputs":[],"stateMutability":"nonpayable","type":"function"},{"inputs":[{"internalType":"uint8","name":"pointer","type":"uint8"},{"internalType":"address","name":"betaAddress","type":"address"}],"name":"addBetaMarketAddress","outputs":[],"stateMutability":"nonpayable","type":"function"},{"inputs":[{"internalType":"address","name":"asset0","type":"address"},{"internalType":"address","name":"asset1","type":"address"},{"internalType":"address","name":"quoter","type":"address"},{"internalType":"bytes3","name":"markings","type":"bytes3"},{"internalType":"uint256","name":"amount0","type":"uint256"},{"internalType":"uint256","name":"amount1","type":"uint256"}],"name":"addLiquidity","outputs":[{"internalType":"uint256","name":"liquidity","type":"uint256"}],"stateMutability":"payable","type":"function"},{"inputs":[{"internalType":"address","name":"owner","type":"address"},{"internalType":"address","name":"spender","type":"address"},{"internalType":"uint256","name":"id","type":"uint256"}],"name":"allowance","outputs":[{"internalType":"uint256","name":"","type":"uint256"}],"stateMutability":"view","type":"function"},{"inputs":[{"internalType":"address","name":"spender","type":"address"},{"internalType":"uint256","name":"id","type":"uint256"},{"internalType":"uint256","name":"amount","type":"uint256"}],"name":"approve","outputs":[{"internalType":"bool","name":"","type":"bool"}],"stateMutability":"nonpayable","type":"function"},{"inputs":[{"internalType":"address","name":"owner","type":"address"},{"internalType":"uint256","name":"id","type":"uint256"}],"name":"balanceOf","outputs":[{"internalType":"uint256","name":"","type":"uint256"}],"stateMutability":"view","type":"function"},{"inputs":[{"components":[{"internalType":"address","name":"asset0","type":"address"},{"internalType":"address","name":"asset1","type":"address"},{"internalType":"address","name":"quoter","type":"address"},{"internalType":"bytes3[]","name":"markings","type":"bytes3[]"},{"internalType":"uint256[]","name":"amounts","type":"uint256[]"},{"internalType":"bool","name":"zeroForOne","type":"bool"}],"internalType":"struct Hop[]","name":"hops","type":"tuple[]"},{"internalType":"uint256","name":"amountIn","type":"uint256"},{"internalType":"uint256","name":"minAmountOut","type":"uint256"}],"name":"batchSwap","outputs":[{"internalType":"uint256","name":"amountOut","type":"uint256"}],"stateMutability":"payable","type":"function"},{"inputs":[{"internalType":"address","name":"asset0","type":"address"},{"internalType":"address","name":"asset1","type":"address"},{"internalType":"address","name":"quoter","type":"address"},{"internalType":"bytes3","name":"markings","type":"bytes3"}],"name":"createPool","outputs":[{"internalType":"uint256","name":"poolID","type":"uint256"}],"stateMutability":"nonpayable","type":"function"},{"inputs":[],"name":"defaultAlpha","outputs":[{"internalType":"address","name":"","type":"address"}],"stateMutability":"view","type":"function"},{"inputs":[],"name":"defaultBeta","outputs":[{"internalType":"address","name":"","type":"address"}],"stateMutability":"view","type":"function"},{"inputs":[{"internalType":"uint8","name":"pointer","type":"uint8"}],"name":"getAlphaMarketAddress","outputs":[{"internalType":"address","name":"alphaAddress","type":"address"}],"stateMutability":"view","type":"function"},{"inputs":[{"internalType":"uint8","name":"pointer","type":"uint8"}],"name":"getBetaMarketAddress","outputs":[{"internalType":"address","name":"betaAddress","type":"address"}],"stateMutability":"view","type":"function"},{"inputs":[{"internalType":"uint256","name":"poolId","type":"uint256"}],"name":"getInventory","outputs":[{"internalType":"uint128","name":"asset0","type":"uint128"},{"internalType":"uint128","name":"asset1","type":"uint128"}],"stateMutability":"view","type":"function"},{"inputs":[{"internalType":"uint256","name":"poolID","type":"uint256"}],"name":"getPoolInfo","outputs":[{"internalType":"address","name":"asset0","type":"address"},{"internalType":"address","name":"asset1","type":"address"},{"internalType":"address","name":"quoter","type":"address"},{"internalType":"bytes3","name":"markings","type":"bytes3"}],"stateMutability":"view","type":"function"},{"inputs":[{"components":[{"internalType":"address","name":"asset0","type":"address"},{"internalType":"address","name":"asset1","type":"address"},{"internalType":"address","name":"quoter","type":"address"},{"internalType":"uint256[]","name":"amount","type":"uint256[]"},{"internalType":"bool","name":"zeroForOne","type":"bool"},{"internalType":"bytes3[]","name":"marking","type":"bytes3[]"}],"internalType":"struct SwapParams","name":"p","type":"tuple"},{"internalType":"uint128","name":"asset0Balance","type":"uint128"},{"internalType":"uint128","name":"asset1Balance","type":"uint128"}],"name":"getQuote","outputs":[{"internalType":"uint256","name":"quote","type":"uint256"},{"internalType":"uint256","name":"poolID","type":"uint256"}],"stateMutability":"nonpayable","type":"function"},{"inputs":[{"components":[{"internalType":"address","name":"asset0","type":"address"},{"internalType":"address","name":"asset1","type":"address"},{"internalType":"address","name":"quoter","type":"address"},{"internalType":"uint256[]","name":"amount","type":"uint256[]"},{"internalType":"bool","name":"zeroForOne","type":"bool"},{"internalType":"bytes3[]","name":"marking","type":"bytes3[]"}],"internalType":"struct SwapParams","name":"p","type":"tuple"},{"internalType":"uint128[]","name":"asset0Balances","type":"uint128[]"},{"internalType":"uint128[]","name":"asset1Balances","type":"uint128[]"}],"name":"getQuoteBatch","outputs":[{"internalType":"uint256[]","name":"quote","type":"uint256[]"},{"internalType":"uint256[]","name":"poolID","type":"uint256[]"}],"stateMutability":"nonpayable","type":"function"},{"inputs":[{"internalType":"address","name":"owner","type":"address"},{"internalType":"address","name":"spender","type":"address"}],"name":"isOperator","outputs":[{"internalType":"bool","name":"","type":"bool"}],"stateMutability":"view","type":"function"},{"inputs":[{"internalType":"uint8","name":"pointer","type":"uint8"}],"name":"removeAlphaMarketAddress","outputs":[],"stateMutability":"nonpayable","type":"function"},{"inputs":[{"internalType":"uint8","name":"pointer","type":"uint8"}],"name":"removeBetaMarketAddress","outputs":[],"stateMutability":"nonpayable","type":"function"},{"inputs":[{"internalType":"address","name":"asset0","type":"address"},{"internalType":"address","name":"asset1","type":"address"},{"internalType":"address","name":"quoter","type":"address"},{"internalType":"bytes3","name":"markings","type":"bytes3"},{"internalType":"uint256","name":"liquidity","type":"uint256"}],"name":"removeLiquidity","outputs":[{"internalType":"uint256","name":"amount0","type":"uint256"},{"internalType":"uint256","name":"amount1","type":"uint256"}],"stateMutability":"nonpayable","type":"function"},{"inputs":[{"components":[{"internalType":"address","name":"asset0","type":"address"},{"internalType":"address","name":"asset1","type":"address"},{"internalType":"address","name":"quoter","type":"address"},{"internalType":"uint256[]","name":"amount","type":"uint256[]"},{"internalType":"bool","name":"zeroForOne","type":"bool"},{"internalType":"bytes3[]","name":"marking","type":"bytes3[]"}],"internalType":"struct SwapParams","name":"p","type":"tuple"},{"internalType":"uint128","name":"asset0Balance","type":"uint128"},{"internalType":"uint128","name":"asset1Balance","type":"uint128"}],"name":"routerGetQuote","outputs":[{"internalType":"uint256","name":"quote","type":"uint256"},{"internalType":"uint256","name":"poolID","type":"uint256"}],"stateMutability":"nonpayable","type":"function"},{"inputs":[{"components":[{"internalType":"address","name":"asset0","type":"address"},{"internalType":"address","name":"asset1","type":"address"},{"internalType":"address","name":"quoter","type":"address"},{"internalType":"uint256[]","name":"amount","type":"uint256[]"},{"internalType":"bool","name":"zeroForOne","type":"bool"},{"internalType":"bytes3[]","name":"marking","type":"bytes3[]"}],"internalType":"struct SwapParams","name":"p","type":"tuple"},{"internalType":"uint128[]","name":"asset0Balances","type":"uint128[]"},{"internalType":"uint128[]","name":"asset1Balances","type":"uint128[]"}],"name":"routerGetQuoteBatch","outputs":[{"internalType":"uint256[]","name":"quote","type":"uint256[]"},{"internalType":"uint256[]","name":"poolID","type":"uint256[]"}],"stateMutability":"nonpayable","type":"function"},{"inputs":[{"internalType":"address","name":"operator","type":"address"},{"internalType":"bool","name":"approved","type":"bool"}],"name":"setOperator","outputs":[{"internalType":"bool","name":"","type":"bool"}],"stateMutability":"nonpayable","type":"function"},{"inputs":[{"internalType":"bytes4","name":"interfaceId","type":"bytes4"}],"name":"supportsInterface","outputs":[{"internalType":"bool","name":"","type":"bool"}],"stateMutability":"view","type":"function"},{"inputs":[{"internalType":"address","name":"asset0","type":"address"},{"internalType":"address","name":"asset1","type":"address"},{"internalType":"address","name":"quoter","type":"address"},{"internalType":"bytes3","name":"markings","type":"bytes3"},{"internalType":"uint256","name":"amountIn","type":"uint256"},{"internalType":"bool","name":"zeroForOne","type":"bool"},{"internalType":"uint256","name":"minAmountOut","type":"uint256"}],"name":"swap","outputs":[{"internalType":"uint256","name":"amountOut","type":"uint256"}],"stateMutability":"payable","type":"function"},{"inputs":[{"internalType":"uint256","name":"poolID","type":"uint256"}],"name":"totalLiquidity","outputs":[{"internalType":"uint256","name":"","type":"uint256"}],"stateMutability":"view","type":"function"},{"inputs":[{"internalType":"address","name":"receiver","type":"address"},{"internalType":"uint256","name":"id","type":"uint256"},{"internalType":"uint256","name":"amount","type":"uint256"}],"name":"transfer","outputs":[{"internalType":"bool","name":"","type":"bool"}],"stateMutability":"nonpayable","type":"function"},{"inputs":[{"internalType":"address","name":"sender","type":"address"},{"internalType":"address","name":"receiver","type":"address"},{"internalType":"uint256","name":"id","type":"uint256"},{"internalType":"uint256","name":"amount","type":"uint256"}],"name":"transferFrom","outputs":[{"internalType":"bool","name":"","type":"bool"}],"stateMutability":"nonpayable","type":"function"}],"evm":{"bytecode":{"linkReferences":{},"object":"60c0346100b257601f613c7738819003918201601f19168301916001600160401b038311848410176100b65780849260409485528339810103126100b257610052602061004b836100ca565b92016100ca565b9060805260a052604051613b9890816100df8239608051818181610ebf01528181611cff01528181611f05015281816123670152612500015260a0518181816106f701528181611d4401528181611fc1015281816123a701526125b50152f35b5f80fd5b634e487b7160e01b5f52604160045260245ffd5b51906001600160a01b03821682036100b25756fe60806040526004361015610011575f80fd5b5f3560e01c8062fdd58e146101c957806301ffc9a7146101c457806304f71ef614610165578063095bcdb6146101bf57806319920a5f146101ba5780632f380b35146101b5578063426a8493146101b0578063460c6df8146101ab578063558a7297146101a65780635670f55a146101a1578063598af9e71461019c5780635b298d321461019757806360a80dbb1461017e57806361408f26146101925780637dc27c951461018d57806383e66c2e146101885780638e832e08146101835780638f1552911461017e5780639d2ec6e414610179578063a1a44dad14610174578063b5e60c3c1461016f578063b6363cf21461016a578063c279171d14610165578063cb1f2f3814610160578063d2615fc81461015b578063d92bc84c14610156578063e513315b146101515763fe99049a1461014c575f80fd5b6115e2565b6113ad565b61118d565b611147565b610f7b565b6105f5565b610f18565b610eee565b610eaa565b610e38565b610cdb565b610df3565b610dad565b610d49565b610d04565b610c36565b610bc9565b6109b7565b61091b565b6108b5565b610824565b610726565b6106e2565b610643565b610239565b6101f0565b6001600160a01b038116036101df57565b5f80fd5b35906101ee826101ce565b565b346101df5760403660031901126101df5760043561020d816101ce565b6024359060018060a01b03165f52600160205260405f20905f52602052602060405f2054604051908152f35b346101df5760203660031901126101df5760043563ffffffff60e01b81168091036101df576020906301ffc9a760e01b811490811561027e575b506040519015158152f35b630f632fb360e01b1490505f610273565b634e487b7160e01b5f52604160045260245ffd5b608081019081106001600160401b038211176102be57604052565b61028f565b90601f801991011681019081106001600160401b038211176102be57604052565b604051906101ee60c0836102c3565b604051906101ee6080836102c3565b604051906101ee610100836102c3565b6001600160401b0381116102be5760051b60200190565b92919061033581610312565b9361034360405195866102c3565b602085838152019160051b81019283116101df57905b82821061036557505050565b8135815260209182019101610359565b9080601f830112156101df5781602061039093359101610329565b90565b801515036101df57565b35906101ee82610393565b6001600160e81b03198116036101df57565b9291906103c681610312565b936103d460405195866102c3565b602085838152019160051b81019283116101df57905b8282106103f657505050565b602080918335610405816103a8565b8152019101906103ea565b9080601f830112156101df57816020610390933591016103ba565b91909160c0818403126101df576104406102e4565b9261044a826101e3565b8452610458602083016101e3565b6020850152610469604083016101e3565b604085015260608201356001600160401b0381116101df578161048d918401610375565b606085015261049e6080830161039d565b608085015260a08201356001600160401b0381116101df576104c09201610410565b60a0830152565b9080601f830112156101df578135906104df82610312565b926104ed60405194856102c3565b82845260208085019360051b8201019182116101df57602001915b8183106105155750505090565b82356001600160801b03811681036101df57815260209283019201610508565b60606003198201126101df576004356001600160401b0381116101df578161055f9160040161042b565b916024356001600160401b0381116101df578261057e916004016104c7565b91604435906001600160401b0382116101df57610390916004016104c7565b90602080835192838152019201905f5b8181106105ba5750505090565b82518452602093840193909201916001016105ad565b90916105e76103909360408452604084019061059d565b91602081840391015261059d565b346101df5761060c61060636610535565b91611ad5565b9061061c604051928392836105d0565b0390f35b60609060031901126101df57600435610638816101ce565b906024359060443590565b346101df5761065136610620565b9091335f52600160205260405f20835f5260205260405f208054908382039182116106dd575560018060a01b031690815f52600160205261069d8360405f20905f5260205260405f2090565b6106a88282546120c5565b9055604080513380825260208201939093525f516020613b435f395f51905f5291819081015b0390a460405160018152602090f35b612096565b346101df575f3660031901126101df576040517f00000000000000000000000000000000000000000000000000000000000000006001600160a01b03168152602090f35b346101df5760203660031901126101df576004355f6060604051610749816102a3565b82815282602082015282604082015201525f52600760205260405f2060405190610772826102a3565b80546001600160a01b0390811680845260018301548216602085018190526002909301549182166040850181905260489290921b6001600160e81b031916606094909401849052909261061c916107e9906107db906107ce9081565b956001600160a01b031690565b916001600160e81b03191690565b604080516001600160a01b039586168152958516602087015291909316908401526001600160e81b0319909116606083015281906080820190565b346101df5761083236610620565b9091335f5260026020526108598160405f209060018060a01b03165f5260205260405f2090565b835f526020528160405f205560405191825260018060a01b0316907fb3fd5071835887567a0671151121894ddccc2842f1d10bedad13e0d17cace9a760203392a4602060405160018152f35b6004359060ff821682036101df57565b346101df5760403660031901126101df576109196108d16108a5565b60ff602435916108e0836101ce565b166108ed601082106120d2565b5f52600360205260405f209060018060a01b03166bffffffffffffffffffffffff60a01b825416179055565b005b346101df5760403660031901126101df57600435610938816101ce565b6024359061094582610393565b335f908152602081815260408083206001600160a01b038516845290915290209115159160ff1981541660ff841617905560405191825260018060a01b0316907fceb576d9f15e4e200fdb5096d64d5dfd667e16def20c1eefd14256d8e3faa26760203392a360405160018152602090f35b346101df5760803660031901126101df576004356109d4816101ce565b6024356109e0816101ce565b604435916109ed836101ce565b606435916109fa836103a8565b610a0a610a05612be9565b612c2c565b610a1683858385612977565b9260018060a01b03610a436002610a35875f52600760205260405f2090565b01546001600160a01b031690565b16610bb55761061c9484937f68df9a4eb7aacbe8f43763bfbc9f7ca135a5397190ea1cce2558db52dc2f36929391929091906001600160a01b038083169084161015610baa57610b8d91935b610b51610a9a6102f3565b6001600160a01b03861681526001600160a01b03871660208201526001600160a01b03831660408201526001600160e81b031984166060820152610ae6895f52600760205260405f2090565b815181546001600160a01b03199081166001600160a01b039283161783556020840151600184018054909216908316179055604083015160029092018054606090940151929091166001600160b81b03199093169290921760489190911c62ffffff60a01b16179055565b604080516001600160a01b03958616815295851660208701529316928401929092526001600160e81b0319909116606083015281906080820190565b0390a25f610b99612be9565b5d6040519081529081906020820190565b610b8d919293610a8f565b63e1ecc13360e01b5f52600484905260245ffd5b346101df5760603660031901126101df57600435610be6816101ce565b610c21602435610bf5816101ce565b6044359260018060a01b03165f52600260205260405f209060018060a01b03165f5260205260405f2090565b905f52602052602060405f2054604051908152f35b346101df5760203660031901126101df5760406001600160801b03610c756004355f52600660205260405f2054906001600160801b0382169160801c90565b835191831682529091166020820152f35b60606003198201126101df57600435906001600160401b0382116101df57610cb09160040161042b565b906024356001600160801b03811681036101df57906044356001600160801b03811681036101df5790565b346101df57610cf2610cec36610c86565b9161220d565b60408051928352602083019190915290f35b346101df5760203660031901126101df5760ff610d1f6108a5565b16610d2c601082106120d2565b5f90815260046020526040902080546001600160a01b0319169055005b346101df5760403660031901126101df57610919610d656108a5565b60ff60243591610d74836101ce565b16610d81601082106120d2565b5f52600460205260405f209060018060a01b03166bffffffffffffffffffffffff60a01b825416179055565b346101df5760203660031901126101df5760ff610dc86108a5565b16610dd5601082106120d2565b5f526004602052602060018060a01b0360405f205416604051908152f35b346101df5760203660031901126101df5760ff610e0e6108a5565b16610e1b601082106120d2565b5f90815260036020526040902080546001600160a01b0319169055005b60603660031901126101df576004356001600160401b0381116101df57366023820112156101df5780600401356001600160401b0381116101df573660248260051b840101116101df5761061c91610e9a91602435906024604435930161264f565b6040519081529081906020820190565b346101df575f3660031901126101df576040517f00000000000000000000000000000000000000000000000000000000000000006001600160a01b03168152602090f35b346101df5760203660031901126101df576004355f526005602052602060405f2054604051908152f35b346101df5760403660031901126101df57602060ff610f6f600435610f3c816101ce565b60243590610f49826101ce565b60018060a01b03165f525f845260405f209060018060a01b03165f5260205260405f2090565b54166040519015158152f35b346101df5760a03660031901126101df57600435610f98816101ce565b60243590610fa5826101ce565b6001600160801b0360443591610fba836101ce565b610fea606435610fc9816103a8565b60843594610fd8610a05612be9565b610fe386151561270d565b8684612977565b936110736110618461105961104061101a8a5f52600660205260405f2054906001600160801b0382169160801c90565b98906110396110318d5f52600560205260405f2090565b541515612759565b16896127e4565b6110528a5f52600560205260405f2090565b54906127f7565b9516866127e4565b611052875f52600560205260405f2090565b9383158061113f575b6111265785816110956110e49361110397989933612c5a565b6110b26110aa835f52600560205260405f2090565b9182546120b8565b90556110c96001600160801b038716600f0b612815565b6110de6001600160801b038916600f0b612815565b91612cd9565b6001600160a01b03818116908316101561111e578385915b3393612d2f565b5f61110c612be9565b5d604080519182526020820192909252f35b8484916110fc565b63d5de620560e01b5f526004849052602485905260445ffd5b50841561107c565b346101df5760203660031901126101df5760ff6111626108a5565b1661116f601082106120d2565b5f526003602052602060018060a01b0360405f205416604051908152f35b60e03660031901126101df576004356111a5816101ce565b60243580916111b3826101ce565b6044356111bf816101ce565b606435906111cc826103a8565b60843560a435926111dc84610393565b818560c435926111ed610a05612be9565b6111f981878b85612977565b9587156113a757825b3385349061120f93612d60565b5f878152600660205260409020546001600160801b0381169060801c9a81958c94929361123a611790565b90611243611790565b9361124c6102e4565b6001600160a01b0390991689526001600160a01b031660208901526001600160a01b03166040880152606087019081528b1515608088015260a0870192835251611295906117f8565b52516112a0906117f8565b6001600160e81b031990911690526112b79261220d565b50968715611398578786916112cb93612e87565b808610611381575061061c9561133c9490939092909161132d91906001600160a01b0380871690861610156113795783905b811561135e576001600160801b038116600f0b915b1561134c57506110de6001600160801b038916600f0b612815565b1561134557505b823391612d7e565b5f610b99612be9565b9050611334565b6001600160801b0316600f0b91612cd9565b6113736001600160801b038a16600f0b612815565b91611312565b8315906112fd565b63d438755d60e01b5f52600452602485905260445ffd5b6314033f2160e11b5f5260045ffd5b89611202565b60c03660031901126101df576004356113c5816101ce565b6024356113d1816101ce565b604435916113de836101ce565b606435926113eb846103a8565b6084359160a435916113fe610a05612be9565b61140a86828785612977565b936001600160a01b03868116908416109283156115dc5795925b156115d65792955b5f858152600660205260409020546001600160801b0381169060801c91909261145d875f52600560205260405f2090565b546115035750506001600160801b0361061c976114bc6114cb956114b088968a86976114e49c9b1515806114fa575b61149590612835565b6114a7876114a28c61279c565b6127f7565b925b878b612f06565b99838733933493612d89565b16600f0b9116600f0b83612cd9565b6114d6838233612fd3565b5f52600560205260405f2090565b6114ef8282546120c5565b90555f610b99612be9565b5086151561148c565b83886115a46115a99461159489670de0b6b3a764000061158d8a989b9e9d9b61157461152d611790565b91611564611539611790565b966115546115456102e4565b6001600160a01b03909d168d52565b6001600160a01b031660208c0152565b6001600160a01b031660408a0152565b606088018190525f608089015260a088019384526117f8565b52516117f8565b6001600160e81b03199091169052565b61220d565b509485156113985761061c976114bc6114cb956114b06001600160801b0395948987966114e49c926114a9565b9561142c565b92611424565b346101df5760803660031901126101df576004356115ff816101ce565b60243561160b816101ce565b604435915f516020613b435f395f51905f526106ce606435936001600160a01b0384169361166d90879061166090338814158061175c575b6116cc576001600160a01b03165f90815260016020526040902090565b905f5260205260405f2090565b6116788682546120b8565b90556001600160a01b0381165f90815260016020526040902061169c908790611660565b6116a78682546120c5565b90556040805133815260208101969096526001600160a01b0390911694918291820190565b61170383611660336116ee8560018060a01b03165f52600260205260405f2090565b9060018060a01b03165f5260205260405f2090565b548960018201611729575b50506001600160a01b03165f90815260016020526040902090565b611732916120b8565b61175484611660336116ee8660018060a01b03165f52600260205260405f2090565b555f8961170e565b5061178b611787611780336116ee8560018060a01b03165f525f60205260405f2090565b5460ff1690565b1590565b611643565b604080519091906117a183826102c3565b6001815291601f1901366020840137565b906117bc82610312565b6117c960405191826102c3565b82815280926117da601f1991610312565b0190602036910137565b634e487b7160e01b5f52603260045260245ffd5b8051156118055760200190565b6117e4565b80518210156118055760209160051b010190565b1561182557565b60405162461bcd60e51b8152602060048201526014602482015273426574612061646472657373206973207a65726f60601b6044820152606490fd5b9080601f830112156101df57815161187881610312565b9261188660405194856102c3565b81845260208085019260051b8201019283116101df57602001905b8282106118ae5750505090565b81518152602091820191016118a1565b906020828203126101df5781516001600160401b0381116101df576103909201611861565b90602080835192838152019201905f5b8181106119005750505090565b82516001600160801b03168452602093840193909201916001016118f3565b90602080835192838152019201905f5b81811061193c5750505090565b825161ffff1684526020938401939092019160010161192f565b80516001600160a01b0316825290610390906020838101516001600160a01b0316908201526040838101516001600160a01b03169082015260e0806119eb6119d96119c76119b56060890151610100606089015261010088019061059d565b608089015187820360808901526118e3565b60a088015186820360a08801526118e3565b60c087015185820360c087015261191f565b9401511515910152565b805180835260209291819084018484015e5f828201840152601f01601f1916010190565b9091611a3061039093604084526040840190611956565b9160208184039101526119f5565b6040513d5f823e3d90fd5b15611a5057565b60405162461bcd60e51b8152602060048201526015602482015274416c7068612061646472657373206973207a65726f60581b6044820152606490fd5b906020610390928181520190611956565b91611ac790611ab96103909593606086526060860190611956565b9084820360208601526119f5565b9160408184039101526119f5565b90929160a0820192611ae88451516117b2565b91611af48551516117b2565b91611b008651516117b2565b96611b24611b1f611b1189516117f8565b516001600160e81b03191690565b6128c7565b925f5b88518051821015611ba75790611ba18b611b9883611b8360c0611b8f8f8f611b8986611b83611b5c611b1160019f849061180a565b85516020870151604090970151919687926001600160a01b03908116929181169116612977565b9261180a565b526128c7565b015161ffff1690565b9061ffff169052565b01611b27565b505093919650939491968251611bc29060018060a01b031690565b6020840180519196909490916001600160a01b03166040820180519094906001600160a01b03169760608401519460808501958651611c0090151590565b94611c09610302565b6001600160a01b03909d168d526001600160a01b031660208d01526001600160a01b03909a1660408c019081529960608c015260808b015260a08a015260c0890152151560e0880152516001600160a01b031693516001600160a01b031691516001600160a01b03169051151591611c7f610302565b6001600160a01b0390951685526001600160a01b031660208501526001600160a01b031660408401525f606084018190526080840181905260a0840181905260c0840152151560e0830152865115158080612089575b15611e78575050945f929183611db2611dd0969798611cf76040860151151590565b8314611e4d577f0000000000000000000000000000000000000000000000000000000000000000945b81611d2e6060830151151590565b8514611e0957611dac9150611da6611d9a611d9a7f0000000000000000000000000000000000000000000000000000000000000000985b611d796001600160a01b038c161515611a49565b611d8d6001600160a01b038b16151561181e565b516001600160a01b031690565b6001600160a01b031690565b96612a60565b93612a60565b60405163014b201760e01b8152968795869485939160048501611a9e565b03925af1908115611e04575f91611de5575091565b611e0191503d805f833e611df981836102c3565b8101906118be565b91565b611a3e565b611da6611d9a611d9a611e47611e3a611e2960a0611dac98015160ff1690565b60ff165f52600460205260405f2090565b546001600160a01b031690565b98611d65565b611e72611e3a611e61608088015160ff1690565b60ff165f52600360205260405f2090565b94611d20565b9096908015908180612073575b15611ecb57505050505f929394508291611eae611d9a611d9a611dd0945160018060a01b031690565b9060405194858094819363145ecc6360e21b835260048301611a8d565b8061205d575b15611f805750611dd0949596505f93929181611ef36040611f40940151151590565b8614611f5d5750611f3a611d9a611d9a7f0000000000000000000000000000000000000000000000000000000000000000955b611d8d6001600160a01b0388161515611a49565b92612a60565b918360405180968195829462db90d160e81b845260048401611a19565b611d9a611d9a611f7a611e3a611e616080611f3a96015160ff1690565b95611f26565b94959480612050575b611f94575b50505050565b611ff69496505f93929181611faf6060611f40940151151590565b861461202d5750611f3a611d9a611d9a7f0000000000000000000000000000000000000000000000000000000000000000955b611d8d6001600160a01b038816151561181e565b03925af1908115611e04575f91612013575b50915f808080611f8e565b61202791503d805f833e611df981836102c3565b5f612008565b611d9a611d9a61204a611e3a611e2960a0611f3a96015160ff1690565b95611fe2565b5060208101511515611f89565b5061206e6117876020840151151590565b611ed1565b506120846117876020850151151590565b611e85565b5060208801511515611cd5565b634e487b7160e01b5f52601160045260245ffd5b5f198101919082116106dd57565b919082039182116106dd57565b919082018092116106dd57565b156120d957565b60405162461bcd60e51b815260206004820152601d60248201527f496e76616c696420706f696e7465723a206d75737420626520302d31350000006044820152606490fd5b908160209103126101df575190565b80516001600160a01b03908116835260208083015182169084015260408083015190911690830152606080820151908301526080808201516001600160801b0316908301526101ee919060e090819060a0818101516001600160801b03169085015260c08181015161ffff169085015201511515910152565b806121b861012092610390959461212d565b8161010082015201906119f5565b610100810192916101ee919061212d565b916121fe906121ea84610390969461212d565b6101406101008501526101408401906119f5565b916101208184039101526119f5565b805190925f9290916001600160a01b0316602085018051909491906001600160a01b03166040870180519197909290916001600160a01b03169760a08301988951612257906117f8565b516001600160e81b0319169161226c93612977565b9651612277906117f8565b516001600160e81b03191661228b906128c7565b81519095906001600160a01b031696516001600160a01b031692516001600160a01b03169460608301516122be906117f8565b5160c088015161ffff166080909401511515946122d9610302565b6001600160a01b03909a168a526001600160a01b031660208a01526001600160a01b03909616604089019081529560608901526001600160801b031660808801526001600160801b031660a087015261ffff1660c0860152151560e0850152825115158080612642575b1561247857505091816123f99361235f60406020950151151590565b1561245d57827f0000000000000000000000000000000000000000000000000000000000000000925b60608101511561243757506123db81611dac5f93611da6611d9a611d9a7f000000000000000000000000000000000000000000000000000000000000000098611d796001600160a01b038c161515611a49565b6040516301eebc2d60e11b81529687958694859391600485016121d7565b03925af1908115611e04575f9161240e575091565b611e01915060203d602011612430575b61242881836102c3565b81019061211e565b503d61241e565b81611dac5f93611da6611d9a611d9a611e47611e3a611e2960a06123db9a015160ff1690565b82612472611e3a611e61608086015160ff1690565b92612388565b919291801590818061262c575b156124c857505050506123f95f926124ab611d9a611d9a6020955160018060a01b031690565b9060405194858094819363160f04bd60e21b8352600483016121c6565b80612616575b156125725750509160209183826124eb60406123f9970151151590565b15612552576125349150611f3a611d9a611d9a7f000000000000000000000000000000000000000000000000000000000000000095611d8d6001600160a01b0388161515611a49565b915f6040518096819582946305e3344d60e41b8452600484016121a6565b611f3a611d9a611d9a611f7a611e3a611e61608061253498015160ff1690565b90959392919080612609575b61258757505050565b6123f99395509081836125a06060602096950151151590565b156125e9576125349150611f3a611d9a611d9a7f000000000000000000000000000000000000000000000000000000000000000095611d8d6001600160a01b038816151561181e565b611f3a611d9a611d9a61204a611e3a611e2960a061253498015160ff1690565b506020810151151561257e565b506126276117876020850151151590565b6124ce565b5061263d6117876020860151151590565b612485565b5060208401511515612343565b90929161265d610a05612be9565b83156126de5792905f915b80831061269c575050508082106126875750905f612684612be9565b5d565b63d438755d60e01b5f5260045260245260445ffd5b9091936126cf6001916126b0878587612c38565b87156126bb866120aa565b89149080156126d857345b3094339461310c565b94019190612668565b5f6126c6565b60405162461bcd60e51b81526020600482015260076024820152664e6f20686f707360c81b6044820152606490fd5b1561271457565b60405162461bcd60e51b815260206004820152601860248201527f496e76616c6964206c697175696469747920616d6f756e7400000000000000006044820152606490fd5b1561276057565b60405162461bcd60e51b8152602060048201526014602482015273139bc81b1a5c5d5a591a5d1e481a5b881c1bdbdb60621b6044820152606490fd5b90670de0b6b3a7640000820291808304670de0b6b3a764000014901517156106dd57565b9067120a871cc002000082029180830467120a871cc002000014901517156106dd57565b818102929181159184041417156106dd57565b8115612801570490565b634e487b7160e01b5f52601260045260245ffd5b600f0b6f7fffffffffffffffffffffffffffffff1981146106dd575f0390565b1561283c57565b60405162461bcd60e51b815260206004820152601760248201527f496e76616c696420696e697469616c20616d6f756e74730000000000000000006044820152606490fd5b6040519060e082018281106001600160401b038211176102be576040525f60c0838281528260208201528260408201528260608201528260808201528260a08201520152565b610390610fff61296b6128d8612881565b9360e81c6128f860016128f183627fffff9060011c1690565b1615158652565b600181161515602086015261292861291f6001600284901c623fffff165b1662ffffff1690565b15156040870152565b61294861293f6001600384901c621fffff16612916565b15156060870152565b600f600482901c81166080870152600882901c1660a0860152600c1c610fff1690565b1661ffff1660c0830152565b9092906001600160a01b0380851690821610156129e95792915b6040516bffffffffffffffffffffffff19606095861b81166020830190815294861b811660348301529190941b1660488401526001600160e81b031916605c830152603f8252906129e3605f826102c3565b51902090565b91612991565b6020818303126101df578051906001600160401b0382116101df570181601f820112156101df578051906001600160401b0382116102be5760405192612a3f601f8401601f1916602001856102c3565b828452602083830101116101df57815f9260208093018386015e8301015290565b90606091805c801580612bd4575b15612b8e575b508251159182612abf575b50604051911582526001600160a01b0316907fd34145bf6de6d1b18053ad66a4a1af093071a5ab67c05b8bfce98fd95ffb0d899080602081015b0390a290565b604051633bd1104b60e01b815293505f9084908190612ae190600483016121c6565b0381836001600160a01b0386165af1928315611e04575f93612b44575b50612ab97fd34145bf6de6d1b18053ad66a4a1af093071a5ab67c05b8bfce98fd95ffb0d8991848051612b34575b509150612a7f565b612b3e908261302c565b5f612b2c565b7fd34145bf6de6d1b18053ad66a4a1af093071a5ab67c05b8bfce98fd95ffb0d89919350612b86612ab9913d805f833e612b7e81836102c3565b8101906129ef565b939150612afe565b9250601f60405193808552018060051c5f5b818110612bbb575050601f191683016020016040525f612a74565b80600180928601015c60208260051b8901015201612ba0565b9350604051935f855260208501604052612a6e565b60405160208101907f626529a6be7cb2fb96a7ed93849b4ef74c980495dfe61fd514c95dcd9da51c3582523060601b6040820152603481526129e36054826102c3565b805c6101df576001905d565b91908110156118055760051b8101359060be19813603018212156101df570190565b91909160018060a01b0316805f52600160205260405f20835f5260205260405f208054908382039182116106dd57556040805133815260208101939093525f925f516020613b435f395f51905f5291819081015b0390a4565b90600f0b90600f0b019060016001607f1b0319821260016001607f1b038313176106dd57565b9091815f5260066020526001600160801b03612d0c612d0260405f205495838716600f0b612cb3565b928560801d612cb3565b81199060801b16911617918203612d21575050565b5f52600660205260405f2055565b9093918281612d4f575b50505081612d4657505050565b6101ee92613250565b612d5892613250565b5f8082612d39565b9281612d6c5750505050565b612d7593613357565b5f808080611f8e565b9181612d4657505050565b919390938581612e5f575b505050508015918215612da75750505050565b6001600160a01b031680612dc1575050612d759150613316565b60209250612e1093612dd360016132d7565b6040516323b872dd60e01b81526001600160a01b0390911660048201523060248201526044810192909252909283919082905f9082906064820190565b03925af18015611e0457612e2b915f91612e30575b5061320c565b612d75565b612e52915060203d602011612e58575b612e4a81836102c3565b8101906131f7565b5f612e25565b503d612e40565b612e6893613357565b5f808085612d94565b9080612e7c57505050565b6101ee925f92613357565b6001600160801b0392935f14612eba57501690808210612ea5575050565b630173586760e01b5f5260045260245260445ffd5b90501690808210612ec9575050565b6368580a1960e01b5f5260045260245260445ffd5b6001600160801b03670de0b6b3a7640000911602906001600160801b0382169182036106dd57565b929493919093825f52600560205260405f2054155f14612f4657505050612f2d92506120c5565b905b8115612f3757565b63283eeadf60e01b5f5260045ffd5b90929193670de0b6b3a7640000810290808204670de0b6b3a764000014901517156106dd5781612f75916127f7565b82018092116106dd57612fb66114a2936001600160801b03612faf612fc6946114a2612fa3612fcd9b612ede565b6001600160801b031690565b91166120c5565b936005905f5260205260405f2090565b54906127e4565b90612f2f565b91909160018060a01b031690815f52600160205260405f20835f5260205260405f208054908282018092116106dd57556040805133815260208101929092525f915f516020613b435f395f51905f529181908101612cae565b601f825180835d0160051c915f5b8381106130475750505050565b80602060019260051b8401015182828601015d0161303a565b903590601e19813603018212156101df57018035906001600160401b0382116101df57602001918160051b360383136101df57565b1561309c57565b60405162461bcd60e51b81526020600482015260116024820152704d69736d6174636865642061727261797360781b6044820152606490fd5b35610390816101ce565b90156118055790565b91908110156118055760051b0190565b35610390816103a8565b3561039081610393565b959493929190606087016131208189613060565b9050156131c45761314c61313760808a018a613060565b9050613143838b613060565b91905014613095565b6001613158828a613060565b9050145f146131b6578761316e610390996130d5565b9161317b602083016130d5565b6131ae60a06131a76131a261319c613195604089016130d5565b9688613060565b906130df565b6130f8565b9401613102565b936005613850565b5090506103909560056134a7565b60405162461bcd60e51b815260206004820152600b60248201526a4e6f206d61726b696e677360a81b6044820152606490fd5b908160209103126101df575161039081610393565b1561321357565b60405162461bcd60e51b8152602060048201526015602482015274115490cc8c081d1c985b9cd9995c8819985a5b1959605a1b6044820152606490fd5b6001600160a01b03168061328a57505f808093819382908215613280575b6001600160a01b031690f115611e0457565b6108fc915061326e565b60405163a9059cbb60e01b81526001600160a01b0390921660048301526024820192909252906020908290815f81604481015b03925af18015611e04576101ee915f91612e30575061320c565b156132de57565b60405162461bcd60e51b815260206004820152601060248201526f115512081b9bdd08195e1c1958dd195960821b6044820152606490fd5b1561331d57565b60405162461bcd60e51b8152602060048201526012602482015271125b98dbdc9c9958dd08115512081cd95b9d60721b6044820152606490fd5b9092906001600160a01b03168061337457506101ee925014613316565b6132bd93612dd360209493156132d7565b9190916040818403126101df5780516001600160401b0381116101df57836133ae918301611861565b9260208201516001600160401b0381116101df576103909201611861565b90602080835192838152019201905f5b8181106133e95750505090565b82516001600160e81b0319168452602093840193909201916001016133dc565b80516001600160a01b0390811683526020808301518216908401526040808301519091169083015260608082015160c0918401829052610390939160a0916134539184019061059d565b9260808101511515608084015201519060a08184039101526133cc565b916134999061348b6103909593606086526060860190613409565b9084820360208601526118e3565b9160408184039101526118e3565b96949590929391966060840197876134bf8a87613060565b97905061381a575b50506134d2856117b2565b916134dc866117b2565b905f5b8781106137845750815f918583896135a36135c59d9e9f61357761359c613505856130d5565b9461358e613515602083016130d5565b9461354a613587613528604086016130d5565b6135356080870187613060565b93909461354460a08901613102565b97613060565b9890996135676135586102e4565b6001600160a01b03909e168e52565b6001600160a01b031660208d0152565b6001600160a01b031660408b0152565b3691610329565b606087015215156080860152565b36916103ba565b60a082015260405163027b8f7b60e11b81529c8d958694859360048501613470565b03926001600160a01b03165af1908115611e04575f975f9261375d575b505f5b8781106136615750505050509061360e94956136089392613612575b50506120aa565b9061180a565b5190565b8161362260a061364c9401613102565b1561365357602061363391016130d5565b61364561363f856120aa565b8761180a565b5190612d7e565b5f80613601565b61365c906130d5565b613633565b806137238a8961368b8461368460019761367e6080860186613060565b906130e8565b359361180a565b516136c96136a961369c878d61180a565b516001600160801b031690565b826136b761369c898c61180a565b6136c360a08701613102565b92612e87565b6136d3858961180a565b51926136e160a08401613102565b1561373d5761370060a06001600160801b038316600f0b945b01613102565b1561372957506001600160801b0361371b9116600f0b612815565b915b8861396b565b016135e5565b6001600160801b03915016600f0b9161371d565b61370060a06137576001600160801b038516600f0b612815565b946136fa565b90975061377c91503d805f833e61377481836102c3565b810190613385565b90965f6135e2565b60019061381461380a6137ef6137ce8f8c61379e816130d5565b916137c86131a28961367e6137b5602087016130d5565b946137c2604088016130d5565b96613060565b92612977565b886001915f520160205260405f2054906001600160801b0382169160801c90565b6137fc858994939461180a565b906001600160801b03169052565b6137fc838961180a565b016134df565b61383d9161382a60a08801613102565b1561384457613838876130d5565b612e71565b5f876134c7565b613838602088016130d5565b929095919694809c9b819b9a969995998b61386d8c868d8d612977565b97156139645761388491841561395d57868b612d60565b8888856138ac89896001915f520160205260405f2054906001600160801b0382169160801c90565b9d81978f956138bc989395613a09565b9b8c80996138c993612e87565b613904928915613942576001600160801b038216600f0b915b8a1561393057506138fe6001600160801b038916600f0b612815565b9261396b565b613910575b5050505050565b61391f94156139295750612d7e565b5f80838180613909565b9050612d7e565b6001600160801b0316600f0b9261396b565b6139576001600160801b038916600f0b612815565b916138e2565b868c612d60565b5050613884565b6001909392930191815f52826020526001600160801b036139a361399960405f205496838816600f0b612cb3565b928660801d612cb3565b81199060801b169116179283036139b957505050565b5f5260205260405f2055565b91908260409103126101df576020825192015190565b9193926001600160801b0390816139fc604094606087526060870190613409565b9616602085015216910152565b613aad98935f92613a7f6040989a979995613a70613a25611790565b938d613a30866117f8565b52613a46613a3c611790565b96611594886117f8565b613a60613a516102e4565b6001600160a01b039098168852565b6001600160a01b03166020870152565b6001600160a01b0316848a0152565b6060830152871515608083015260a082015285516360a80dbb60e01b815298899586948593600485016139db565b03926001600160a01b03165af1928315611e04575f93613b10575b508215613ad457505090565b90915015613af657613ae8610390916127c0565b670de0b6b3a7640000900490565b613b026103909161279c565b67120a871cc0020000900490565b613b3391935060403d604011613b3b575b613b2b81836102c3565b8101906139c5565b50915f613ac8565b503d613b2156fe1b3d7edb2e9c0b0e7c525b20aaaef0f5940d2ed71663c7d39266ecafac728859a2646970667358221220c91559573099f5ce81a106b8337cfbf0d3a2d8f687571d0cfa14e1d7e87ddbb364736f6c634300081e0033","opcodes":"PUSH1 0xC0 CALLVALUE PUSH2 0xB2 JUMPI PUSH1 0x1F PUSH2 0x3C77 CODESIZE DUP2 SWAP1 SUB SWAP2 DUP3 ADD PUSH1 0x1F NOT AND DUP4 ADD SWAP2 PUSH1 0x1 PUSH1 0x1 PUSH1 0x40 SHL SUB DUP4 GT DUP5 DUP5 LT OR PUSH2 0xB6 JUMPI DUP1 DUP5 SWAP3 PUSH1 0x40 SWAP5 DUP6 MSTORE DUP4 CODECOPY DUP2 ADD SUB SLT PUSH2 0xB2 JUMPI PUSH2 0x52 PUSH1 0x20 PUSH2 0x4B DUP4 PUSH2 0xCA JUMP JUMPDEST SWAP3 ADD PUSH2 0xCA JUMP JUMPDEST SWAP1 PUSH1 0x80 MSTORE PUSH1 0xA0 MSTORE PUSH1 0x40 MLOAD PUSH2 0x3B98 SWAP1 DUP2 PUSH2 0xDF DUP3 CODECOPY PUSH1 0x80 MLOAD DUP2 DUP2 DUP2 PUSH2 0xEBF ADD MSTORE DUP2 DUP2 PUSH2 0x1CFF ADD MSTORE DUP2 DUP2 PUSH2 0x1F05 ADD MSTORE DUP2 DUP2 PUSH2 0x2367 ADD MSTORE PUSH2 0x2500 ADD MSTORE PUSH1 0xA0 MLOAD DUP2 DUP2 DUP2 PUSH2 0x6F7 ADD MSTORE DUP2 DUP2 PUSH2 0x1D44 ADD MSTORE DUP2 DUP2 PUSH2 0x1FC1 ADD MSTORE DUP2 DUP2 PUSH2 0x23A7 ADD MSTORE PUSH2 0x25B5 ADD MSTORE RETURN JUMPDEST PUSH0 DUP1 REVERT JUMPDEST PUSH4 0x4E487B71 PUSH1 0xE0 SHL PUSH0 MSTORE PUSH1 0x41 PUSH1 0x4 MSTORE PUSH1 0x24 PUSH0 REVERT JUMPDEST MLOAD SWAP1 PUSH1 0x1 PUSH1 0x1 PUSH1 0xA0 SHL SUB DUP3 AND DUP3 SUB PUSH2 0xB2 JUMPI JUMP INVALID PUSH1 0x80 PUSH1 0x40 MSTORE PUSH1 0x4 CALLDATASIZE LT ISZERO PUSH2 0x11 JUMPI PUSH0 DUP1 REVERT JUMPDEST PUSH0 CALLDATALOAD PUSH1 0xE0 SHR DUP1 PUSH3 0xFDD58E EQ PUSH2 0x1C9 JUMPI DUP1 PUSH4 0x1FFC9A7 EQ PUSH2 0x1C4 JUMPI DUP1 PUSH4 0x4F71EF6 EQ PUSH2 0x165 JUMPI DUP1 PUSH4 0x95BCDB6 EQ PUSH2 0x1BF JUMPI DUP1 PUSH4 0x19920A5F EQ PUSH2 0x1BA JUMPI DUP1 PUSH4 0x2F380B35 EQ PUSH2 0x1B5 JUMPI DUP1 PUSH4 0x426A8493 EQ PUSH2 0x1B0 JUMPI DUP1 PUSH4 0x460C6DF8 EQ PUSH2 0x1AB JUMPI DUP1 PUSH4 0x558A7297 EQ PUSH2 0x1A6 JUMPI DUP1 PUSH4 0x5670F55A EQ PUSH2 0x1A1 JUMPI DUP1 PUSH4 0x598AF9E7 EQ PUSH2 0x19C JUMPI DUP1 PUSH4 0x5B298D32 EQ PUSH2 0x197 JUMPI DUP1 PUSH4 0x60A80DBB EQ PUSH2 0x17E JUMPI DUP1 PUSH4 0x61408F26 EQ PUSH2 0x192 JUMPI DUP1 PUSH4 0x7DC27C95 EQ PUSH2 0x18D JUMPI DUP1 PUSH4 0x83E66C2E EQ PUSH2 0x188 JUMPI DUP1 PUSH4 0x8E832E08 EQ PUSH2 0x183 JUMPI DUP1 PUSH4 0x8F155291 EQ PUSH2 0x17E JUMPI DUP1 PUSH4 0x9D2EC6E4 EQ PUSH2 0x179 JUMPI DUP1 PUSH4 0xA1A44DAD EQ PUSH2 0x174 JUMPI DUP1 PUSH4 0xB5E60C3C EQ PUSH2 0x16F JUMPI DUP1 PUSH4 0xB6363CF2 EQ PUSH2 0x16A JUMPI DUP1 PUSH4 0xC279171D EQ PUSH2 0x165 JUMPI DUP1 PUSH4 0xCB1F2F38 EQ PUSH2 0x160 JUMPI DUP1 PUSH4 0xD2615FC8 EQ PUSH2 0x15B JUMPI DUP1 PUSH4 0xD92BC84C EQ PUSH2 0x156 JUMPI DUP1 PUSH4 0xE513315B EQ PUSH2 0x151 JUMPI PUSH4 0xFE99049A EQ PUSH2 0x14C JUMPI PUSH0 DUP1 REVERT JUMPDEST PUSH2 0x15E2 JUMP JUMPDEST PUSH2 0x13AD JUMP JUMPDEST PUSH2 0x118D JUMP JUMPDEST PUSH2 0x1147 JUMP JUMPDEST PUSH2 0xF7B JUMP JUMPDEST PUSH2 0x5F5 JUMP JUMPDEST PUSH2 0xF18 JUMP JUMPDEST PUSH2 0xEEE JUMP JUMPDEST PUSH2 0xEAA JUMP JUMPDEST PUSH2 0xE38 JUMP JUMPDEST PUSH2 0xCDB JUMP JUMPDEST PUSH2 0xDF3 JUMP JUMPDEST PUSH2 0xDAD JUMP JUMPDEST PUSH2 0xD49 JUMP JUMPDEST PUSH2 0xD04 JUMP JUMPDEST PUSH2 0xC36 JUMP JUMPDEST PUSH2 0xBC9 JUMP JUMPDEST PUSH2 0x9B7 JUMP JUMPDEST PUSH2 0x91B JUMP JUMPDEST PUSH2 0x8B5 JUMP JUMPDEST PUSH2 0x824 JUMP JUMPDEST PUSH2 0x726 JUMP JUMPDEST PUSH2 0x6E2 JUMP JUMPDEST PUSH2 0x643 JUMP JUMPDEST PUSH2 0x239 JUMP JUMPDEST PUSH2 0x1F0 JUMP JUMPDEST PUSH1 0x1 PUSH1 0x1 PUSH1 0xA0 SHL SUB DUP2 AND SUB PUSH2 0x1DF JUMPI JUMP JUMPDEST PUSH0 DUP1 REVERT JUMPDEST CALLDATALOAD SWAP1 PUSH2 0x1EE DUP3 PUSH2 0x1CE JUMP JUMPDEST JUMP JUMPDEST CALLVALUE PUSH2 0x1DF JUMPI PUSH1 0x40 CALLDATASIZE PUSH1 0x3 NOT ADD SLT PUSH2 0x1DF JUMPI PUSH1 0x4 CALLDATALOAD PUSH2 0x20D DUP2 PUSH2 0x1CE JUMP JUMPDEST PUSH1 0x24 CALLDATALOAD SWAP1 PUSH1 0x1 DUP1 PUSH1 0xA0 SHL SUB AND PUSH0 MSTORE PUSH1 0x1 PUSH1 0x20 MSTORE PUSH1 0x40 PUSH0 KECCAK256 SWAP1 PUSH0 MSTORE PUSH1 0x20 MSTORE PUSH1 0x20 PUSH1 0x40 PUSH0 KECCAK256 SLOAD PUSH1 0x40 MLOAD SWAP1 DUP2 MSTORE RETURN JUMPDEST CALLVALUE PUSH2 0x1DF JUMPI PUSH1 0x20 CALLDATASIZE PUSH1 0x3 NOT ADD SLT PUSH2 0x1DF JUMPI PUSH1 0x4 CALLDATALOAD PUSH4 0xFFFFFFFF PUSH1 0xE0 SHL DUP2 AND DUP1 SWAP2 SUB PUSH2 0x1DF JUMPI PUSH1 0x20 SWAP1 PUSH4 0x1FFC9A7 PUSH1 0xE0 SHL DUP2 EQ SWAP1 DUP2 ISZERO PUSH2 0x27E JUMPI JUMPDEST POP PUSH1 0x40 MLOAD SWAP1 ISZERO ISZERO DUP2 MSTORE RETURN JUMPDEST PUSH4 0xF632FB3 PUSH1 0xE0 SHL EQ SWAP1 POP PUSH0 PUSH2 0x273 JUMP JUMPDEST PUSH4 0x4E487B71 PUSH1 0xE0 SHL PUSH0 MSTORE PUSH1 0x41 PUSH1 0x4 MSTORE PUSH1 0x24 PUSH0 REVERT JUMPDEST PUSH1 0x80 DUP2 ADD SWAP1 DUP2 LT PUSH1 0x1 PUSH1 0x1 PUSH1 0x40 SHL SUB DUP3 GT OR PUSH2 0x2BE JUMPI PUSH1 0x40 MSTORE JUMP JUMPDEST PUSH2 0x28F JUMP JUMPDEST SWAP1 PUSH1 0x1F DUP1 NOT SWAP2 ADD AND DUP2 ADD SWAP1 DUP2 LT PUSH1 0x1 PUSH1 0x1 PUSH1 0x40 SHL SUB DUP3 GT OR PUSH2 0x2BE JUMPI PUSH1 0x40 MSTORE JUMP JUMPDEST PUSH1 0x40 MLOAD SWAP1 PUSH2 0x1EE PUSH1 0xC0 DUP4 PUSH2 0x2C3 JUMP JUMPDEST PUSH1 0x40 MLOAD SWAP1 PUSH2 0x1EE PUSH1 0x80 DUP4 PUSH2 0x2C3 JUMP JUMPDEST PUSH1 0x40 MLOAD SWAP1 PUSH2 0x1EE PUSH2 0x100 DUP4 PUSH2 0x2C3 JUMP JUMPDEST PUSH1 0x1 PUSH1 0x1 PUSH1 0x40 SHL SUB DUP2 GT PUSH2 0x2BE JUMPI PUSH1 0x5 SHL PUSH1 0x20 ADD SWAP1 JUMP JUMPDEST SWAP3 SWAP2 SWAP1 PUSH2 0x335 DUP2 PUSH2 0x312 JUMP JUMPDEST SWAP4 PUSH2 0x343 PUSH1 0x40 MLOAD SWAP6 DUP7 PUSH2 0x2C3 JUMP JUMPDEST PUSH1 0x20 DUP6 DUP4 DUP2 MSTORE ADD SWAP2 PUSH1 0x5 SHL DUP2 ADD SWAP3 DUP4 GT PUSH2 0x1DF JUMPI SWAP1 JUMPDEST DUP3 DUP3 LT PUSH2 0x365 JUMPI POP POP POP JUMP JUMPDEST DUP2 CALLDATALOAD DUP2 MSTORE PUSH1 0x20 SWAP2 DUP3 ADD SWAP2 ADD PUSH2 0x359 JUMP JUMPDEST SWAP1 DUP1 PUSH1 0x1F DUP4 ADD SLT ISZERO PUSH2 0x1DF JUMPI DUP2 PUSH1 0x20 PUSH2 0x390 SWAP4 CALLDATALOAD SWAP2 ADD PUSH2 0x329 JUMP JUMPDEST SWAP1 JUMP JUMPDEST DUP1 ISZERO ISZERO SUB PUSH2 0x1DF JUMPI JUMP JUMPDEST CALLDATALOAD SWAP1 PUSH2 0x1EE DUP3 PUSH2 0x393 JUMP JUMPDEST PUSH1 0x1 PUSH1 0x1 PUSH1 0xE8 SHL SUB NOT DUP2 AND SUB PUSH2 0x1DF JUMPI JUMP JUMPDEST SWAP3 SWAP2 SWAP1 PUSH2 0x3C6 DUP2 PUSH2 0x312 JUMP JUMPDEST SWAP4 PUSH2 0x3D4 PUSH1 0x40 MLOAD SWAP6 DUP7 PUSH2 0x2C3 JUMP JUMPDEST PUSH1 0x20 DUP6 DUP4 DUP2 MSTORE ADD SWAP2 PUSH1 0x5 SHL DUP2 ADD SWAP3 DUP4 GT PUSH2 0x1DF JUMPI SWAP1 JUMPDEST DUP3 DUP3 LT PUSH2 0x3F6 JUMPI POP POP POP JUMP JUMPDEST PUSH1 0x20 DUP1 SWAP2 DUP4 CALLDATALOAD PUSH2 0x405 DUP2 PUSH2 0x3A8 JUMP JUMPDEST DUP2 MSTORE ADD SWAP2 ADD SWAP1 PUSH2 0x3EA JUMP JUMPDEST SWAP1 DUP1 PUSH1 0x1F DUP4 ADD SLT ISZERO PUSH2 0x1DF JUMPI DUP2 PUSH1 0x20 PUSH2 0x390 SWAP4 CALLDATALOAD SWAP2 ADD PUSH2 0x3BA JUMP JUMPDEST SWAP2 SWAP1 SWAP2 PUSH1 0xC0 DUP2 DUP5 SUB SLT PUSH2 0x1DF JUMPI PUSH2 0x440 PUSH2 0x2E4 JUMP JUMPDEST SWAP3 PUSH2 0x44A DUP3 PUSH2 0x1E3 JUMP JUMPDEST DUP5 MSTORE PUSH2 0x458 PUSH1 0x20 DUP4 ADD PUSH2 0x1E3 JUMP JUMPDEST PUSH1 0x20 DUP6 ADD MSTORE PUSH2 0x469 PUSH1 0x40 DUP4 ADD PUSH2 0x1E3 JUMP JUMPDEST PUSH1 0x40 DUP6 ADD MSTORE PUSH1 0x60 DUP3 ADD CALLDATALOAD PUSH1 0x1 PUSH1 0x1 PUSH1 0x40 SHL SUB DUP2 GT PUSH2 0x1DF JUMPI DUP2 PUSH2 0x48D SWAP2 DUP5 ADD PUSH2 0x375 JUMP JUMPDEST PUSH1 0x60 DUP6 ADD MSTORE PUSH2 0x49E PUSH1 0x80 DUP4 ADD PUSH2 0x39D JUMP JUMPDEST PUSH1 0x80 DUP6 ADD MSTORE PUSH1 0xA0 DUP3 ADD CALLDATALOAD PUSH1 0x1 PUSH1 0x1 PUSH1 0x40 SHL SUB DUP2 GT PUSH2 0x1DF JUMPI PUSH2 0x4C0 SWAP3 ADD PUSH2 0x410 JUMP JUMPDEST PUSH1 0xA0 DUP4 ADD MSTORE JUMP JUMPDEST SWAP1 DUP1 PUSH1 0x1F DUP4 ADD SLT ISZERO PUSH2 0x1DF JUMPI DUP2 CALLDATALOAD SWAP1 PUSH2 0x4DF DUP3 PUSH2 0x312 JUMP JUMPDEST SWAP3 PUSH2 0x4ED PUSH1 0x40 MLOAD SWAP5 DUP6 PUSH2 0x2C3 JUMP JUMPDEST DUP3 DUP5 MSTORE PUSH1 0x20 DUP1 DUP6 ADD SWAP4 PUSH1 0x5 SHL DUP3 ADD ADD SWAP2 DUP3 GT PUSH2 0x1DF JUMPI PUSH1 0x20 ADD SWAP2 JUMPDEST DUP2 DUP4 LT PUSH2 0x515 JUMPI POP POP POP SWAP1 JUMP JUMPDEST DUP3 CALLDATALOAD PUSH1 0x1 PUSH1 0x1 PUSH1 0x80 SHL SUB DUP2 AND DUP2 SUB PUSH2 0x1DF JUMPI DUP2 MSTORE PUSH1 0x20 SWAP3 DUP4 ADD SWAP3 ADD PUSH2 0x508 JUMP JUMPDEST PUSH1 0x60 PUSH1 0x3 NOT DUP3 ADD SLT PUSH2 0x1DF JUMPI PUSH1 0x4 CALLDATALOAD PUSH1 0x1 PUSH1 0x1 PUSH1 0x40 SHL SUB DUP2 GT PUSH2 0x1DF JUMPI DUP2 PUSH2 0x55F SWAP2 PUSH1 0x4 ADD PUSH2 0x42B JUMP JUMPDEST SWAP2 PUSH1 0x24 CALLDATALOAD PUSH1 0x1 PUSH1 0x1 PUSH1 0x40 SHL SUB DUP2 GT PUSH2 0x1DF JUMPI DUP3 PUSH2 0x57E SWAP2 PUSH1 0x4 ADD PUSH2 0x4C7 JUMP JUMPDEST SWAP2 PUSH1 0x44 CALLDATALOAD SWAP1 PUSH1 0x1 PUSH1 0x1 PUSH1 0x40 SHL SUB DUP3 GT PUSH2 0x1DF JUMPI PUSH2 0x390 SWAP2 PUSH1 0x4 ADD PUSH2 0x4C7 JUMP JUMPDEST SWAP1 PUSH1 0x20 DUP1 DUP4 MLOAD SWAP3 DUP4 DUP2 MSTORE ADD SWAP3 ADD SWAP1 PUSH0 JUMPDEST DUP2 DUP2 LT PUSH2 0x5BA JUMPI POP POP POP SWAP1 JUMP JUMPDEST DUP3 MLOAD DUP5 MSTORE PUSH1 0x20 SWAP4 DUP5 ADD SWAP4 SWAP1 SWAP3 ADD SWAP2 PUSH1 0x1 ADD PUSH2 0x5AD JUMP JUMPDEST SWAP1 SWAP2 PUSH2 0x5E7 PUSH2 0x390 SWAP4 PUSH1 0x40 DUP5 MSTORE PUSH1 0x40 DUP5 ADD SWAP1 PUSH2 0x59D JUMP JUMPDEST SWAP2 PUSH1 0x20 DUP2 DUP5 SUB SWAP2 ADD MSTORE PUSH2 0x59D JUMP JUMPDEST CALLVALUE PUSH2 0x1DF JUMPI PUSH2 0x60C PUSH2 0x606 CALLDATASIZE PUSH2 0x535 JUMP JUMPDEST SWAP2 PUSH2 0x1AD5 JUMP JUMPDEST SWAP1 PUSH2 0x61C PUSH1 0x40 MLOAD SWAP3 DUP4 SWAP3 DUP4 PUSH2 0x5D0 JUMP JUMPDEST SUB SWAP1 RETURN JUMPDEST PUSH1 0x60 SWAP1 PUSH1 0x3 NOT ADD SLT PUSH2 0x1DF JUMPI PUSH1 0x4 CALLDATALOAD PUSH2 0x638 DUP2 PUSH2 0x1CE JUMP JUMPDEST SWAP1 PUSH1 0x24 CALLDATALOAD SWAP1 PUSH1 0x44 CALLDATALOAD SWAP1 JUMP JUMPDEST CALLVALUE PUSH2 0x1DF JUMPI PUSH2 0x651 CALLDATASIZE PUSH2 0x620 JUMP JUMPDEST SWAP1 SWAP2 CALLER PUSH0 MSTORE PUSH1 0x1 PUSH1 0x20 MSTORE PUSH1 0x40 PUSH0 KECCAK256 DUP4 PUSH0 MSTORE PUSH1 0x20 MSTORE PUSH1 0x40 PUSH0 KECCAK256 DUP1 SLOAD SWAP1 DUP4 DUP3 SUB SWAP2 DUP3 GT PUSH2 0x6DD JUMPI SSTORE PUSH1 0x1 DUP1 PUSH1 0xA0 SHL SUB AND SWAP1 DUP2 PUSH0 MSTORE PUSH1 0x1 PUSH1 0x20 MSTORE PUSH2 0x69D DUP4 PUSH1 0x40 PUSH0 KECCAK256 SWAP1 PUSH0 MSTORE PUSH1 0x20 MSTORE PUSH1 0x40 PUSH0 KECCAK256 SWAP1 JUMP JUMPDEST PUSH2 0x6A8 DUP3 DUP3 SLOAD PUSH2 0x20C5 JUMP JUMPDEST SWAP1 SSTORE PUSH1 0x40 DUP1 MLOAD CALLER DUP1 DUP3 MSTORE PUSH1 0x20 DUP3 ADD SWAP4 SWAP1 SWAP4 MSTORE PUSH0 MLOAD PUSH1 0x20 PUSH2 0x3B43 PUSH0 CODECOPY PUSH0 MLOAD SWAP1 PUSH0 MSTORE SWAP2 DUP2 SWAP1 DUP2 ADD JUMPDEST SUB SWAP1 LOG4 PUSH1 0x40 MLOAD PUSH1 0x1 DUP2 MSTORE PUSH1 0x20 SWAP1 RETURN JUMPDEST PUSH2 0x2096 JUMP JUMPDEST CALLVALUE PUSH2 0x1DF JUMPI PUSH0 CALLDATASIZE PUSH1 0x3 NOT ADD SLT PUSH2 0x1DF JUMPI PUSH1 0x40 MLOAD PUSH32 0x0 PUSH1 0x1 PUSH1 0x1 PUSH1 0xA0 SHL SUB AND DUP2 MSTORE PUSH1 0x20 SWAP1 RETURN JUMPDEST CALLVALUE PUSH2 0x1DF JUMPI PUSH1 0x20 CALLDATASIZE PUSH1 0x3 NOT ADD SLT PUSH2 0x1DF JUMPI PUSH1 0x4 CALLDATALOAD PUSH0 PUSH1 0x60 PUSH1 0x40 MLOAD PUSH2 0x749 DUP2 PUSH2 0x2A3 JUMP JUMPDEST DUP3 DUP2 MSTORE DUP3 PUSH1 0x20 DUP3 ADD MSTORE DUP3 PUSH1 0x40 DUP3 ADD MSTORE ADD MSTORE PUSH0 MSTORE PUSH1 0x7 PUSH1 0x20 MSTORE PUSH1 0x40 PUSH0 KECCAK256 PUSH1 0x40 MLOAD SWAP1 PUSH2 0x772 DUP3 PUSH2 0x2A3 JUMP JUMPDEST DUP1 SLOAD PUSH1 0x1 PUSH1 0x1 PUSH1 0xA0 SHL SUB SWAP1 DUP2 AND DUP1 DUP5 MSTORE PUSH1 0x1 DUP4 ADD SLOAD DUP3 AND PUSH1 0x20 DUP6 ADD DUP2 SWAP1 MSTORE PUSH1 0x2 SWAP1 SWAP4 ADD SLOAD SWAP2 DUP3 AND PUSH1 0x40 DUP6 ADD DUP2 SWAP1 MSTORE PUSH1 0x48 SWAP3 SWAP1 SWAP3 SHL PUSH1 0x1 PUSH1 0x1 PUSH1 0xE8 SHL SUB NOT AND PUSH1 0x60 SWAP5 SWAP1 SWAP5 ADD DUP5 SWAP1 MSTORE SWAP1 SWAP3 PUSH2 0x61C SWAP2 PUSH2 0x7E9 SWAP1 PUSH2 0x7DB SWAP1 PUSH2 0x7CE SWAP1 DUP2 JUMP JUMPDEST SWAP6 PUSH1 0x1 PUSH1 0x1 PUSH1 0xA0 SHL SUB AND SWAP1 JUMP JUMPDEST SWAP2 PUSH1 0x1 PUSH1 0x1 PUSH1 0xE8 SHL SUB NOT AND SWAP1 JUMP JUMPDEST PUSH1 0x40 DUP1 MLOAD PUSH1 0x1 PUSH1 0x1 PUSH1 0xA0 SHL SUB SWAP6 DUP7 AND DUP2 MSTORE SWAP6 DUP6 AND PUSH1 0x20 DUP8 ADD MSTORE SWAP2 SWAP1 SWAP4 AND SWAP1 DUP5 ADD MSTORE PUSH1 0x1 PUSH1 0x1 PUSH1 0xE8 SHL SUB NOT SWAP1 SWAP2 AND PUSH1 0x60 DUP4 ADD MSTORE DUP2 SWAP1 PUSH1 0x80 DUP3 ADD SWAP1 JUMP JUMPDEST CALLVALUE PUSH2 0x1DF JUMPI PUSH2 0x832 CALLDATASIZE PUSH2 0x620 JUMP JUMPDEST SWAP1 SWAP2 CALLER PUSH0 MSTORE PUSH1 0x2 PUSH1 0x20 MSTORE PUSH2 0x859 DUP2 PUSH1 0x40 PUSH0 KECCAK256 SWAP1 PUSH1 0x1 DUP1 PUSH1 0xA0 SHL SUB AND PUSH0 MSTORE PUSH1 0x20 MSTORE PUSH1 0x40 PUSH0 KECCAK256 SWAP1 JUMP JUMPDEST DUP4 PUSH0 MSTORE PUSH1 0x20 MSTORE DUP2 PUSH1 0x40 PUSH0 KECCAK256 SSTORE PUSH1 0x40 MLOAD SWAP2 DUP3 MSTORE PUSH1 0x1 DUP1 PUSH1 0xA0 SHL SUB AND SWAP1 PUSH32 0xB3FD5071835887567A0671151121894DDCCC2842F1D10BEDAD13E0D17CACE9A7 PUSH1 0x20 CALLER SWAP3 LOG4 PUSH1 0x20 PUSH1 0x40 MLOAD PUSH1 0x1 DUP2 MSTORE RETURN JUMPDEST PUSH1 0x4 CALLDATALOAD SWAP1 PUSH1 0xFF DUP3 AND DUP3 SUB PUSH2 0x1DF JUMPI JUMP JUMPDEST CALLVALUE PUSH2 0x1DF JUMPI PUSH1 0x40 CALLDATASIZE PUSH1 0x3 NOT ADD SLT PUSH2 0x1DF JUMPI PUSH2 0x919 PUSH2 0x8D1 PUSH2 0x8A5 JUMP JUMPDEST PUSH1 0xFF PUSH1 0x24 CALLDATALOAD SWAP2 PUSH2 0x8E0 DUP4 PUSH2 0x1CE JUMP JUMPDEST AND PUSH2 0x8ED PUSH1 0x10 DUP3 LT PUSH2 0x20D2 JUMP JUMPDEST PUSH0 MSTORE PUSH1 0x3 PUSH1 0x20 MSTORE PUSH1 0x40 PUSH0 KECCAK256 SWAP1 PUSH1 0x1 DUP1 PUSH1 0xA0 SHL SUB AND PUSH12 0xFFFFFFFFFFFFFFFFFFFFFFFF PUSH1 0xA0 SHL DUP3 SLOAD AND OR SWAP1 SSTORE JUMP JUMPDEST STOP JUMPDEST CALLVALUE PUSH2 0x1DF JUMPI PUSH1 0x40 CALLDATASIZE PUSH1 0x3 NOT ADD SLT PUSH2 0x1DF JUMPI PUSH1 0x4 CALLDATALOAD PUSH2 0x938 DUP2 PUSH2 0x1CE JUMP JUMPDEST PUSH1 0x24 CALLDATALOAD SWAP1 PUSH2 0x945 DUP3 PUSH2 0x393 JUMP JUMPDEST CALLER PUSH0 SWAP1 DUP2 MSTORE PUSH1 0x20 DUP2 DUP2 MSTORE PUSH1 0x40 DUP1 DUP4 KECCAK256 PUSH1 0x1 PUSH1 0x1 PUSH1 0xA0 SHL SUB DUP6 AND DUP5 MSTORE SWAP1 SWAP2 MSTORE SWAP1 KECCAK256 SWAP2 ISZERO ISZERO SWAP2 PUSH1 0xFF NOT DUP2 SLOAD AND PUSH1 0xFF DUP5 AND OR SWAP1 SSTORE PUSH1 0x40 MLOAD SWAP2 DUP3 MSTORE PUSH1 0x1 DUP1 PUSH1 0xA0 SHL SUB AND SWAP1 PUSH32 0xCEB576D9F15E4E200FDB5096D64D5DFD667E16DEF20C1EEFD14256D8E3FAA267 PUSH1 0x20 CALLER SWAP3 LOG3 PUSH1 0x40 MLOAD PUSH1 0x1 DUP2 MSTORE PUSH1 0x20 SWAP1 RETURN JUMPDEST CALLVALUE PUSH2 0x1DF JUMPI PUSH1 0x80 CALLDATASIZE PUSH1 0x3 NOT ADD SLT PUSH2 0x1DF JUMPI PUSH1 0x4 CALLDATALOAD PUSH2 0x9D4 DUP2 PUSH2 0x1CE JUMP JUMPDEST PUSH1 0x24 CALLDATALOAD PUSH2 0x9E0 DUP2 PUSH2 0x1CE JUMP JUMPDEST PUSH1 0x44 CALLDATALOAD SWAP2 PUSH2 0x9ED DUP4 PUSH2 0x1CE JUMP JUMPDEST PUSH1 0x64 CALLDATALOAD SWAP2 PUSH2 0x9FA DUP4 PUSH2 0x3A8 JUMP JUMPDEST PUSH2 0xA0A PUSH2 0xA05 PUSH2 0x2BE9 JUMP JUMPDEST PUSH2 0x2C2C JUMP JUMPDEST PUSH2 0xA16 DUP4 DUP6 DUP4 DUP6 PUSH2 0x2977 JUMP JUMPDEST SWAP3 PUSH1 0x1 DUP1 PUSH1 0xA0 SHL SUB PUSH2 0xA43 PUSH1 0x2 PUSH2 0xA35 DUP8 PUSH0 MSTORE PUSH1 0x7 PUSH1 0x20 MSTORE PUSH1 0x40 PUSH0 KECCAK256 SWAP1 JUMP JUMPDEST ADD SLOAD PUSH1 0x1 PUSH1 0x1 PUSH1 0xA0 SHL SUB AND SWAP1 JUMP JUMPDEST AND PUSH2 0xBB5 JUMPI PUSH2 0x61C SWAP5 DUP5 SWAP4 PUSH32 0x68DF9A4EB7AACBE8F43763BFBC9F7CA135A5397190EA1CCE2558DB52DC2F3692 SWAP4 SWAP2 SWAP3 SWAP1 SWAP2 SWAP1 PUSH1 0x1 PUSH1 0x1 PUSH1 0xA0 SHL SUB DUP1 DUP4 AND SWAP1 DUP5 AND LT ISZERO PUSH2 0xBAA JUMPI PUSH2 0xB8D SWAP2 SWAP4 JUMPDEST PUSH2 0xB51 PUSH2 0xA9A PUSH2 0x2F3 JUMP JUMPDEST PUSH1 0x1 PUSH1 0x1 PUSH1 0xA0 SHL SUB DUP7 AND DUP2 MSTORE PUSH1 0x1 PUSH1 0x1 PUSH1 0xA0 SHL SUB DUP8 AND PUSH1 0x20 DUP3 ADD MSTORE PUSH1 0x1 PUSH1 0x1 PUSH1 0xA0 SHL SUB DUP4 AND PUSH1 0x40 DUP3 ADD MSTORE PUSH1 0x1 PUSH1 0x1 PUSH1 0xE8 SHL SUB NOT DUP5 AND PUSH1 0x60 DUP3 ADD MSTORE PUSH2 0xAE6 DUP10 PUSH0 MSTORE PUSH1 0x7 PUSH1 0x20 MSTORE PUSH1 0x40 PUSH0 KECCAK256 SWAP1 JUMP JUMPDEST DUP2 MLOAD DUP2 SLOAD PUSH1 0x1 PUSH1 0x1 PUSH1 0xA0 SHL SUB NOT SWAP1 DUP2 AND PUSH1 0x1 PUSH1 0x1 PUSH1 0xA0 SHL SUB SWAP3 DUP4 AND OR DUP4 SSTORE PUSH1 0x20 DUP5 ADD MLOAD PUSH1 0x1 DUP5 ADD DUP1 SLOAD SWAP1 SWAP3 AND SWAP1 DUP4 AND OR SWAP1 SSTORE PUSH1 0x40 DUP4 ADD MLOAD PUSH1 0x2 SWAP1 SWAP3 ADD DUP1 SLOAD PUSH1 0x60 SWAP1 SWAP5 ADD MLOAD SWAP3 SWAP1 SWAP2 AND PUSH1 0x1 PUSH1 0x1 PUSH1 0xB8 SHL SUB NOT SWAP1 SWAP4 AND SWAP3 SWAP1 SWAP3 OR PUSH1 0x48 SWAP2 SWAP1 SWAP2 SHR PUSH3 0xFFFFFF PUSH1 0xA0 SHL AND OR SWAP1 SSTORE JUMP JUMPDEST PUSH1 0x40 DUP1 MLOAD PUSH1 0x1 PUSH1 0x1 PUSH1 0xA0 SHL SUB SWAP6 DUP7 AND DUP2 MSTORE SWAP6 DUP6 AND PUSH1 0x20 DUP8 ADD MSTORE SWAP4 AND SWAP3 DUP5 ADD SWAP3 SWAP1 SWAP3 MSTORE PUSH1 0x1 PUSH1 0x1 PUSH1 0xE8 SHL SUB NOT SWAP1 SWAP2 AND PUSH1 0x60 DUP4 ADD MSTORE DUP2 SWAP1 PUSH1 0x80 DUP3 ADD SWAP1 JUMP JUMPDEST SUB SWAP1 LOG2 PUSH0 PUSH2 0xB99 PUSH2 0x2BE9 JUMP JUMPDEST TSTORE PUSH1 0x40 MLOAD SWAP1 DUP2 MSTORE SWAP1 DUP2 SWAP1 PUSH1 0x20 DUP3 ADD SWAP1 JUMP JUMPDEST PUSH2 0xB8D SWAP2 SWAP3 SWAP4 PUSH2 0xA8F JUMP JUMPDEST PUSH4 0xE1ECC133 PUSH1 0xE0 SHL PUSH0 MSTORE PUSH1 0x4 DUP5 SWAP1 MSTORE PUSH1 0x24 PUSH0 REVERT JUMPDEST CALLVALUE PUSH2 0x1DF JUMPI PUSH1 0x60 CALLDATASIZE PUSH1 0x3 NOT ADD SLT PUSH2 0x1DF JUMPI PUSH1 0x4 CALLDATALOAD PUSH2 0xBE6 DUP2 PUSH2 0x1CE JUMP JUMPDEST PUSH2 0xC21 PUSH1 0x24 CALLDATALOAD PUSH2 0xBF5 DUP2 PUSH2 0x1CE JUMP JUMPDEST PUSH1 0x44 CALLDATALOAD SWAP3 PUSH1 0x1 DUP1 PUSH1 0xA0 SHL SUB AND PUSH0 MSTORE PUSH1 0x2 PUSH1 0x20 MSTORE PUSH1 0x40 PUSH0 KECCAK256 SWAP1 PUSH1 0x1 DUP1 PUSH1 0xA0 SHL SUB AND PUSH0 MSTORE PUSH1 0x20 MSTORE PUSH1 0x40 PUSH0 KECCAK256 SWAP1 JUMP JUMPDEST SWAP1 PUSH0 MSTORE PUSH1 0x20 MSTORE PUSH1 0x20 PUSH1 0x40 PUSH0 KECCAK256 SLOAD PUSH1 0x40 MLOAD SWAP1 DUP2 MSTORE RETURN JUMPDEST CALLVALUE PUSH2 0x1DF JUMPI PUSH1 0x20 CALLDATASIZE PUSH1 0x3 NOT ADD SLT PUSH2 0x1DF JUMPI PUSH1 0x40 PUSH1 0x1 PUSH1 0x1 PUSH1 0x80 SHL SUB PUSH2 0xC75 PUSH1 0x4 CALLDATALOAD PUSH0 MSTORE PUSH1 0x6 PUSH1 0x20 MSTORE PUSH1 0x40 PUSH0 KECCAK256 SLOAD SWAP1 PUSH1 0x1 PUSH1 0x1 PUSH1 0x80 SHL SUB DUP3 AND SWAP2 PUSH1 0x80 SHR SWAP1 JUMP JUMPDEST DUP4 MLOAD SWAP2 DUP4 AND DUP3 MSTORE SWAP1 SWAP2 AND PUSH1 0x20 DUP3 ADD MSTORE RETURN JUMPDEST PUSH1 0x60 PUSH1 0x3 NOT DUP3 ADD SLT PUSH2 0x1DF JUMPI PUSH1 0x4 CALLDATALOAD SWAP1 PUSH1 0x1 PUSH1 0x1 PUSH1 0x40 SHL SUB DUP3 GT PUSH2 0x1DF JUMPI PUSH2 0xCB0 SWAP2 PUSH1 0x4 ADD PUSH2 0x42B JUMP JUMPDEST SWAP1 PUSH1 0x24 CALLDATALOAD PUSH1 0x1 PUSH1 0x1 PUSH1 0x80 SHL SUB DUP2 AND DUP2 SUB PUSH2 0x1DF JUMPI SWAP1 PUSH1 0x44 CALLDATALOAD PUSH1 0x1 PUSH1 0x1 PUSH1 0x80 SHL SUB DUP2 AND DUP2 SUB PUSH2 0x1DF JUMPI SWAP1 JUMP JUMPDEST CALLVALUE PUSH2 0x1DF JUMPI PUSH2 0xCF2 PUSH2 0xCEC CALLDATASIZE PUSH2 0xC86 JUMP JUMPDEST SWAP2 PUSH2 0x220D JUMP JUMPDEST PUSH1 0x40 DUP1 MLOAD SWAP3 DUP4 MSTORE PUSH1 0x20 DUP4 ADD SWAP2 SWAP1 SWAP2 MSTORE SWAP1 RETURN JUMPDEST CALLVALUE PUSH2 0x1DF JUMPI PUSH1 0x20 CALLDATASIZE PUSH1 0x3 NOT ADD SLT PUSH2 0x1DF JUMPI PUSH1 0xFF PUSH2 0xD1F PUSH2 0x8A5 JUMP JUMPDEST AND PUSH2 0xD2C PUSH1 0x10 DUP3 LT PUSH2 0x20D2 JUMP JUMPDEST PUSH0 SWAP1 DUP2 MSTORE PUSH1 0x4 PUSH1 0x20 MSTORE PUSH1 0x40 SWAP1 KECCAK256 DUP1 SLOAD PUSH1 0x1 PUSH1 0x1 PUSH1 0xA0 SHL SUB NOT AND SWAP1 SSTORE STOP JUMPDEST CALLVALUE PUSH2 0x1DF JUMPI PUSH1 0x40 CALLDATASIZE PUSH1 0x3 NOT ADD SLT PUSH2 0x1DF JUMPI PUSH2 0x919 PUSH2 0xD65 PUSH2 0x8A5 JUMP JUMPDEST PUSH1 0xFF PUSH1 0x24 CALLDATALOAD SWAP2 PUSH2 0xD74 DUP4 PUSH2 0x1CE JUMP JUMPDEST AND PUSH2 0xD81 PUSH1 0x10 DUP3 LT PUSH2 0x20D2 JUMP JUMPDEST PUSH0 MSTORE PUSH1 0x4 PUSH1 0x20 MSTORE PUSH1 0x40 PUSH0 KECCAK256 SWAP1 PUSH1 0x1 DUP1 PUSH1 0xA0 SHL SUB AND PUSH12 0xFFFFFFFFFFFFFFFFFFFFFFFF PUSH1 0xA0 SHL DUP3 SLOAD AND OR SWAP1 SSTORE JUMP JUMPDEST CALLVALUE PUSH2 0x1DF JUMPI PUSH1 0x20 CALLDATASIZE PUSH1 0x3 NOT ADD SLT PUSH2 0x1DF JUMPI PUSH1 0xFF PUSH2 0xDC8 PUSH2 0x8A5 JUMP JUMPDEST AND PUSH2 0xDD5 PUSH1 0x10 DUP3 LT PUSH2 0x20D2 JUMP JUMPDEST PUSH0 MSTORE PUSH1 0x4 PUSH1 0x20 MSTORE PUSH1 0x20 PUSH1 0x1 DUP1 PUSH1 0xA0 SHL SUB PUSH1 0x40 PUSH0 KECCAK256 SLOAD AND PUSH1 0x40 MLOAD SWAP1 DUP2 MSTORE RETURN JUMPDEST CALLVALUE PUSH2 0x1DF JUMPI PUSH1 0x20 CALLDATASIZE PUSH1 0x3 NOT ADD SLT PUSH2 0x1DF JUMPI PUSH1 0xFF PUSH2 0xE0E PUSH2 0x8A5 JUMP JUMPDEST AND PUSH2 0xE1B PUSH1 0x10 DUP3 LT PUSH2 0x20D2 JUMP JUMPDEST PUSH0 SWAP1 DUP2 MSTORE PUSH1 0x3 PUSH1 0x20 MSTORE PUSH1 0x40 SWAP1 KECCAK256 DUP1 SLOAD PUSH1 0x1 PUSH1 0x1 PUSH1 0xA0 SHL SUB NOT AND SWAP1 SSTORE STOP JUMPDEST PUSH1 0x60 CALLDATASIZE PUSH1 0x3 NOT ADD SLT PUSH2 0x1DF JUMPI PUSH1 0x4 CALLDATALOAD PUSH1 0x1 PUSH1 0x1 PUSH1 0x40 SHL SUB DUP2 GT PUSH2 0x1DF JUMPI CALLDATASIZE PUSH1 0x23 DUP3 ADD SLT ISZERO PUSH2 0x1DF JUMPI DUP1 PUSH1 0x4 ADD CALLDATALOAD PUSH1 0x1 PUSH1 0x1 PUSH1 0x40 SHL SUB DUP2 GT PUSH2 0x1DF JUMPI CALLDATASIZE PUSH1 0x24 DUP3 PUSH1 0x5 SHL DUP5 ADD ADD GT PUSH2 0x1DF JUMPI PUSH2 0x61C SWAP2 PUSH2 0xE9A SWAP2 PUSH1 0x24 CALLDATALOAD SWAP1 PUSH1 0x24 PUSH1 0x44 CALLDATALOAD SWAP4 ADD PUSH2 0x264F JUMP JUMPDEST PUSH1 0x40 MLOAD SWAP1 DUP2 MSTORE SWAP1 DUP2 SWAP1 PUSH1 0x20 DUP3 ADD SWAP1 JUMP JUMPDEST CALLVALUE PUSH2 0x1DF JUMPI PUSH0 CALLDATASIZE PUSH1 0x3 NOT ADD SLT PUSH2 0x1DF JUMPI PUSH1 0x40 MLOAD PUSH32 0x0 PUSH1 0x1 PUSH1 0x1 PUSH1 0xA0 SHL SUB AND DUP2 MSTORE PUSH1 0x20 SWAP1 RETURN JUMPDEST CALLVALUE PUSH2 0x1DF JUMPI PUSH1 0x20 CALLDATASIZE PUSH1 0x3 NOT ADD SLT PUSH2 0x1DF JUMPI PUSH1 0x4 CALLDATALOAD PUSH0 MSTORE PUSH1 0x5 PUSH1 0x20 MSTORE PUSH1 0x20 PUSH1 0x40 PUSH0 KECCAK256 SLOAD PUSH1 0x40 MLOAD SWAP1 DUP2 MSTORE RETURN JUMPDEST CALLVALUE PUSH2 0x1DF JUMPI PUSH1 0x40 CALLDATASIZE PUSH1 0x3 NOT ADD SLT PUSH2 0x1DF JUMPI PUSH1 0x20 PUSH1 0xFF PUSH2 0xF6F PUSH1 0x4 CALLDATALOAD PUSH2 0xF3C DUP2 PUSH2 0x1CE JUMP JUMPDEST PUSH1 0x24 CALLDATALOAD SWAP1 PUSH2 0xF49 DUP3 PUSH2 0x1CE JUMP JUMPDEST PUSH1 0x1 DUP1 PUSH1 0xA0 SHL SUB AND PUSH0 MSTORE PUSH0 DUP5 MSTORE PUSH1 0x40 PUSH0 KECCAK256 SWAP1 PUSH1 0x1 DUP1 PUSH1 0xA0 SHL SUB AND PUSH0 MSTORE PUSH1 0x20 MSTORE PUSH1 0x40 PUSH0 KECCAK256 SWAP1 JUMP JUMPDEST SLOAD AND PUSH1 0x40 MLOAD SWAP1 ISZERO ISZERO DUP2 MSTORE RETURN JUMPDEST CALLVALUE PUSH2 0x1DF JUMPI PUSH1 0xA0 CALLDATASIZE PUSH1 0x3 NOT ADD SLT PUSH2 0x1DF JUMPI PUSH1 0x4 CALLDATALOAD PUSH2 0xF98 DUP2 PUSH2 0x1CE JUMP JUMPDEST PUSH1 0x24 CALLDATALOAD SWAP1 PUSH2 0xFA5 DUP3 PUSH2 0x1CE JUMP JUMPDEST PUSH1 0x1 PUSH1 0x1 PUSH1 0x80 SHL SUB PUSH1 0x44 CALLDATALOAD SWAP2 PUSH2 0xFBA DUP4 PUSH2 0x1CE JUMP JUMPDEST PUSH2 0xFEA PUSH1 0x64 CALLDATALOAD PUSH2 0xFC9 DUP2 PUSH2 0x3A8 JUMP JUMPDEST PUSH1 0x84 CALLDATALOAD SWAP5 PUSH2 0xFD8 PUSH2 0xA05 PUSH2 0x2BE9 JUMP JUMPDEST PUSH2 0xFE3 DUP7 ISZERO ISZERO PUSH2 0x270D JUMP JUMPDEST DUP7 DUP5 PUSH2 0x2977 JUMP JUMPDEST SWAP4 PUSH2 0x1073 PUSH2 0x1061 DUP5 PUSH2 0x1059 PUSH2 0x1040 PUSH2 0x101A DUP11 PUSH0 MSTORE PUSH1 0x6 PUSH1 0x20 MSTORE PUSH1 0x40 PUSH0 KECCAK256 SLOAD SWAP1 PUSH1 0x1 PUSH1 0x1 PUSH1 0x80 SHL SUB DUP3 AND SWAP2 PUSH1 0x80 SHR SWAP1 JUMP JUMPDEST SWAP9 SWAP1 PUSH2 0x1039 PUSH2 0x1031 DUP14 PUSH0 MSTORE PUSH1 0x5 PUSH1 0x20 MSTORE PUSH1 0x40 PUSH0 KECCAK256 SWAP1 JUMP JUMPDEST SLOAD ISZERO ISZERO PUSH2 0x2759 JUMP JUMPDEST AND DUP10 PUSH2 0x27E4 JUMP JUMPDEST PUSH2 0x1052 DUP11 PUSH0 MSTORE PUSH1 0x5 PUSH1 0x20 MSTORE PUSH1 0x40 PUSH0 KECCAK256 SWAP1 JUMP JUMPDEST SLOAD SWAP1 PUSH2 0x27F7 JUMP JUMPDEST SWAP6 AND DUP7 PUSH2 0x27E4 JUMP JUMPDEST PUSH2 0x1052 DUP8 PUSH0 MSTORE PUSH1 0x5 PUSH1 0x20 MSTORE PUSH1 0x40 PUSH0 KECCAK256 SWAP1 JUMP JUMPDEST SWAP4 DUP4 ISZERO DUP1 PUSH2 0x113F JUMPI JUMPDEST PUSH2 0x1126 JUMPI DUP6 DUP2 PUSH2 0x1095 PUSH2 0x10E4 SWAP4 PUSH2 0x1103 SWAP8 SWAP9 SWAP10 CALLER PUSH2 0x2C5A JUMP JUMPDEST PUSH2 0x10B2 PUSH2 0x10AA DUP4 PUSH0 MSTORE PUSH1 0x5 PUSH1 0x20 MSTORE PUSH1 0x40 PUSH0 KECCAK256 SWAP1 JUMP JUMPDEST SWAP2 DUP3 SLOAD PUSH2 0x20B8 JUMP JUMPDEST SWAP1 SSTORE PUSH2 0x10C9 PUSH1 0x1 PUSH1 0x1 PUSH1 0x80 SHL SUB DUP8 AND PUSH1 0xF SIGNEXTEND PUSH2 0x2815 JUMP JUMPDEST PUSH2 0x10DE PUSH1 0x1 PUSH1 0x1 PUSH1 0x80 SHL SUB DUP10 AND PUSH1 0xF SIGNEXTEND PUSH2 0x2815 JUMP JUMPDEST SWAP2 PUSH2 0x2CD9 JUMP JUMPDEST PUSH1 0x1 PUSH1 0x1 PUSH1 0xA0 SHL SUB DUP2 DUP2 AND SWAP1 DUP4 AND LT ISZERO PUSH2 0x111E JUMPI DUP4 DUP6 SWAP2 JUMPDEST CALLER SWAP4 PUSH2 0x2D2F JUMP JUMPDEST PUSH0 PUSH2 0x110C PUSH2 0x2BE9 JUMP JUMPDEST TSTORE PUSH1 0x40 DUP1 MLOAD SWAP2 DUP3 MSTORE PUSH1 0x20 DUP3 ADD SWAP3 SWAP1 SWAP3 MSTORE RETURN JUMPDEST DUP5 DUP5 SWAP2 PUSH2 0x10FC JUMP JUMPDEST PUSH4 0xD5DE6205 PUSH1 0xE0 SHL PUSH0 MSTORE PUSH1 0x4 DUP5 SWAP1 MSTORE PUSH1 0x24 DUP6 SWAP1 MSTORE PUSH1 0x44 PUSH0 REVERT JUMPDEST POP DUP5 ISZERO PUSH2 0x107C JUMP JUMPDEST CALLVALUE PUSH2 0x1DF JUMPI PUSH1 0x20 CALLDATASIZE PUSH1 0x3 NOT ADD SLT PUSH2 0x1DF JUMPI PUSH1 0xFF PUSH2 0x1162 PUSH2 0x8A5 JUMP JUMPDEST AND PUSH2 0x116F PUSH1 0x10 DUP3 LT PUSH2 0x20D2 JUMP JUMPDEST PUSH0 MSTORE PUSH1 0x3 PUSH1 0x20 MSTORE PUSH1 0x20 PUSH1 0x1 DUP1 PUSH1 0xA0 SHL SUB PUSH1 0x40 PUSH0 KECCAK256 SLOAD AND PUSH1 0x40 MLOAD SWAP1 DUP2 MSTORE RETURN JUMPDEST PUSH1 0xE0 CALLDATASIZE PUSH1 0x3 NOT ADD SLT PUSH2 0x1DF JUMPI PUSH1 0x4 CALLDATALOAD PUSH2 0x11A5 DUP2 PUSH2 0x1CE JUMP JUMPDEST PUSH1 0x24 CALLDATALOAD DUP1 SWAP2 PUSH2 0x11B3 DUP3 PUSH2 0x1CE JUMP JUMPDEST PUSH1 0x44 CALLDATALOAD PUSH2 0x11BF DUP2 PUSH2 0x1CE JUMP JUMPDEST PUSH1 0x64 CALLDATALOAD SWAP1 PUSH2 0x11CC DUP3 PUSH2 0x3A8 JUMP JUMPDEST PUSH1 0x84 CALLDATALOAD PUSH1 0xA4 CALLDATALOAD SWAP3 PUSH2 0x11DC DUP5 PUSH2 0x393 JUMP JUMPDEST DUP2 DUP6 PUSH1 0xC4 CALLDATALOAD SWAP3 PUSH2 0x11ED PUSH2 0xA05 PUSH2 0x2BE9 JUMP JUMPDEST PUSH2 0x11F9 DUP2 DUP8 DUP12 DUP6 PUSH2 0x2977 JUMP JUMPDEST SWAP6 DUP8 ISZERO PUSH2 0x13A7 JUMPI DUP3 JUMPDEST CALLER DUP6 CALLVALUE SWAP1 PUSH2 0x120F SWAP4 PUSH2 0x2D60 JUMP JUMPDEST PUSH0 DUP8 DUP2 MSTORE PUSH1 0x6 PUSH1 0x20 MSTORE PUSH1 0x40 SWAP1 KECCAK256 SLOAD PUSH1 0x1 PUSH1 0x1 PUSH1 0x80 SHL SUB DUP2 AND SWAP1 PUSH1 0x80 SHR SWAP11 DUP2 SWAP6 DUP13 SWAP5 SWAP3 SWAP4 PUSH2 0x123A PUSH2 0x1790 JUMP JUMPDEST SWAP1 PUSH2 0x1243 PUSH2 0x1790 JUMP JUMPDEST SWAP4 PUSH2 0x124C PUSH2 0x2E4 JUMP JUMPDEST PUSH1 0x1 PUSH1 0x1 PUSH1 0xA0 SHL SUB SWAP1 SWAP10 AND DUP10 MSTORE PUSH1 0x1 PUSH1 0x1 PUSH1 0xA0 SHL SUB AND PUSH1 0x20 DUP10 ADD MSTORE PUSH1 0x1 PUSH1 0x1 PUSH1 0xA0 SHL SUB AND PUSH1 0x40 DUP9 ADD MSTORE PUSH1 0x60 DUP8 ADD SWAP1 DUP2 MSTORE DUP12 ISZERO ISZERO PUSH1 0x80 DUP9 ADD MSTORE PUSH1 0xA0 DUP8 ADD SWAP3 DUP4 MSTORE MLOAD PUSH2 0x1295 SWAP1 PUSH2 0x17F8 JUMP JUMPDEST MSTORE MLOAD PUSH2 0x12A0 SWAP1 PUSH2 0x17F8 JUMP JUMPDEST PUSH1 0x1 PUSH1 0x1 PUSH1 0xE8 SHL SUB NOT SWAP1 SWAP2 AND SWAP1 MSTORE PUSH2 0x12B7 SWAP3 PUSH2 0x220D JUMP JUMPDEST POP SWAP7 DUP8 ISZERO PUSH2 0x1398 JUMPI DUP8 DUP7 SWAP2 PUSH2 0x12CB SWAP4 PUSH2 0x2E87 JUMP JUMPDEST DUP1 DUP7 LT PUSH2 0x1381 JUMPI POP PUSH2 0x61C SWAP6 PUSH2 0x133C SWAP5 SWAP1 SWAP4 SWAP1 SWAP3 SWAP1 SWAP2 PUSH2 0x132D SWAP2 SWAP1 PUSH1 0x1 PUSH1 0x1 PUSH1 0xA0 SHL SUB DUP1 DUP8 AND SWAP1 DUP7 AND LT ISZERO PUSH2 0x1379 JUMPI DUP4 SWAP1 JUMPDEST DUP2 ISZERO PUSH2 0x135E JUMPI PUSH1 0x1 PUSH1 0x1 PUSH1 0x80 SHL SUB DUP2 AND PUSH1 0xF SIGNEXTEND SWAP2 JUMPDEST ISZERO PUSH2 0x134C JUMPI POP PUSH2 0x10DE PUSH1 0x1 PUSH1 0x1 PUSH1 0x80 SHL SUB DUP10 AND PUSH1 0xF SIGNEXTEND PUSH2 0x2815 JUMP JUMPDEST ISZERO PUSH2 0x1345 JUMPI POP JUMPDEST DUP3 CALLER SWAP2 PUSH2 0x2D7E JUMP JUMPDEST PUSH0 PUSH2 0xB99 PUSH2 0x2BE9 JUMP JUMPDEST SWAP1 POP PUSH2 0x1334 JUMP JUMPDEST PUSH1 0x1 PUSH1 0x1 PUSH1 0x80 SHL SUB AND PUSH1 0xF SIGNEXTEND SWAP2 PUSH2 0x2CD9 JUMP JUMPDEST PUSH2 0x1373 PUSH1 0x1 PUSH1 0x1 PUSH1 0x80 SHL SUB DUP11 AND PUSH1 0xF SIGNEXTEND PUSH2 0x2815 JUMP JUMPDEST SWAP2 PUSH2 0x1312 JUMP JUMPDEST DUP4 ISZERO SWAP1 PUSH2 0x12FD JUMP JUMPDEST PUSH4 0xD438755D PUSH1 0xE0 SHL PUSH0 MSTORE PUSH1 0x4 MSTORE PUSH1 0x24 DUP6 SWAP1 MSTORE PUSH1 0x44 PUSH0 REVERT JUMPDEST PUSH4 0x14033F21 PUSH1 0xE1 SHL PUSH0 MSTORE PUSH1 0x4 PUSH0 REVERT JUMPDEST DUP10 PUSH2 0x1202 JUMP JUMPDEST PUSH1 0xC0 CALLDATASIZE PUSH1 0x3 NOT ADD SLT PUSH2 0x1DF JUMPI PUSH1 0x4 CALLDATALOAD PUSH2 0x13C5 DUP2 PUSH2 0x1CE JUMP JUMPDEST PUSH1 0x24 CALLDATALOAD PUSH2 0x13D1 DUP2 PUSH2 0x1CE JUMP JUMPDEST PUSH1 0x44 CALLDATALOAD SWAP2 PUSH2 0x13DE DUP4 PUSH2 0x1CE JUMP JUMPDEST PUSH1 0x64 CALLDATALOAD SWAP3 PUSH2 0x13EB DUP5 PUSH2 0x3A8 JUMP JUMPDEST PUSH1 0x84 CALLDATALOAD SWAP2 PUSH1 0xA4 CALLDATALOAD SWAP2 PUSH2 0x13FE PUSH2 0xA05 PUSH2 0x2BE9 JUMP JUMPDEST PUSH2 0x140A DUP7 DUP3 DUP8 DUP6 PUSH2 0x2977 JUMP JUMPDEST SWAP4 PUSH1 0x1 PUSH1 0x1 PUSH1 0xA0 SHL SUB DUP7 DUP2 AND SWAP1 DUP5 AND LT SWAP3 DUP4 ISZERO PUSH2 0x15DC JUMPI SWAP6 SWAP3 JUMPDEST ISZERO PUSH2 0x15D6 JUMPI SWAP3 SWAP6 JUMPDEST PUSH0 DUP6 DUP2 MSTORE PUSH1 0x6 PUSH1 0x20 MSTORE PUSH1 0x40 SWAP1 KECCAK256 SLOAD PUSH1 0x1 PUSH1 0x1 PUSH1 0x80 SHL SUB DUP2 AND SWAP1 PUSH1 0x80 SHR SWAP2 SWAP1 SWAP3 PUSH2 0x145D DUP8 PUSH0 MSTORE PUSH1 0x5 PUSH1 0x20 MSTORE PUSH1 0x40 PUSH0 KECCAK256 SWAP1 JUMP JUMPDEST SLOAD PUSH2 0x1503 JUMPI POP POP PUSH1 0x1 PUSH1 0x1 PUSH1 0x80 SHL SUB PUSH2 0x61C SWAP8 PUSH2 0x14BC PUSH2 0x14CB SWAP6 PUSH2 0x14B0 DUP9 SWAP7 DUP11 DUP7 SWAP8 PUSH2 0x14E4 SWAP13 SWAP12 ISZERO ISZERO DUP1 PUSH2 0x14FA JUMPI JUMPDEST PUSH2 0x1495 SWAP1 PUSH2 0x2835 JUMP JUMPDEST PUSH2 0x14A7 DUP8 PUSH2 0x14A2 DUP13 PUSH2 0x279C JUMP JUMPDEST PUSH2 0x27F7 JUMP JUMPDEST SWAP3 JUMPDEST DUP8 DUP12 PUSH2 0x2F06 JUMP JUMPDEST SWAP10 DUP4 DUP8 CALLER SWAP4 CALLVALUE SWAP4 PUSH2 0x2D89 JUMP JUMPDEST AND PUSH1 0xF SIGNEXTEND SWAP2 AND PUSH1 0xF SIGNEXTEND DUP4 PUSH2 0x2CD9 JUMP JUMPDEST PUSH2 0x14D6 DUP4 DUP3 CALLER PUSH2 0x2FD3 JUMP JUMPDEST PUSH0 MSTORE PUSH1 0x5 PUSH1 0x20 MSTORE PUSH1 0x40 PUSH0 KECCAK256 SWAP1 JUMP JUMPDEST PUSH2 0x14EF DUP3 DUP3 SLOAD PUSH2 0x20C5 JUMP JUMPDEST SWAP1 SSTORE PUSH0 PUSH2 0xB99 PUSH2 0x2BE9 JUMP JUMPDEST POP DUP7 ISZERO ISZERO PUSH2 0x148C JUMP JUMPDEST DUP4 DUP9 PUSH2 0x15A4 PUSH2 0x15A9 SWAP5 PUSH2 0x1594 DUP10 PUSH8 0xDE0B6B3A7640000 PUSH2 0x158D DUP11 SWAP9 SWAP12 SWAP15 SWAP14 SWAP12 PUSH2 0x1574 PUSH2 0x152D PUSH2 0x1790 JUMP JUMPDEST SWAP2 PUSH2 0x1564 PUSH2 0x1539 PUSH2 0x1790 JUMP JUMPDEST SWAP7 PUSH2 0x1554 PUSH2 0x1545 PUSH2 0x2E4 JUMP JUMPDEST PUSH1 0x1 PUSH1 0x1 PUSH1 0xA0 SHL SUB SWAP1 SWAP14 AND DUP14 MSTORE JUMP JUMPDEST PUSH1 0x1 PUSH1 0x1 PUSH1 0xA0 SHL SUB AND PUSH1 0x20 DUP13 ADD MSTORE JUMP JUMPDEST PUSH1 0x1 PUSH1 0x1 PUSH1 0xA0 SHL SUB AND PUSH1 0x40 DUP11 ADD MSTORE JUMP JUMPDEST PUSH1 0x60 DUP9 ADD DUP2 SWAP1 MSTORE PUSH0 PUSH1 0x80 DUP10 ADD MSTORE PUSH1 0xA0 DUP9 ADD SWAP4 DUP5 MSTORE PUSH2 0x17F8 JUMP JUMPDEST MSTORE MLOAD PUSH2 0x17F8 JUMP JUMPDEST PUSH1 0x1 PUSH1 0x1 PUSH1 0xE8 SHL SUB NOT SWAP1 SWAP2 AND SWAP1 MSTORE JUMP JUMPDEST PUSH2 0x220D JUMP JUMPDEST POP SWAP5 DUP6 ISZERO PUSH2 0x1398 JUMPI PUSH2 0x61C SWAP8 PUSH2 0x14BC PUSH2 0x14CB SWAP6 PUSH2 0x14B0 PUSH1 0x1 PUSH1 0x1 PUSH1 0x80 SHL SUB SWAP6 SWAP5 DUP10 DUP8 SWAP7 PUSH2 0x14E4 SWAP13 SWAP3 PUSH2 0x14A9 JUMP JUMPDEST SWAP6 PUSH2 0x142C JUMP JUMPDEST SWAP3 PUSH2 0x1424 JUMP JUMPDEST CALLVALUE PUSH2 0x1DF JUMPI PUSH1 0x80 CALLDATASIZE PUSH1 0x3 NOT ADD SLT PUSH2 0x1DF JUMPI PUSH1 0x4 CALLDATALOAD PUSH2 0x15FF DUP2 PUSH2 0x1CE JUMP JUMPDEST PUSH1 0x24 CALLDATALOAD PUSH2 0x160B DUP2 PUSH2 0x1CE JUMP JUMPDEST PUSH1 0x44 CALLDATALOAD SWAP2 PUSH0 MLOAD PUSH1 0x20 PUSH2 0x3B43 PUSH0 CODECOPY PUSH0 MLOAD SWAP1 PUSH0 MSTORE PUSH2 0x6CE PUSH1 0x64 CALLDATALOAD SWAP4 PUSH1 0x1 PUSH1 0x1 PUSH1 0xA0 SHL SUB DUP5 AND SWAP4 PUSH2 0x166D SWAP1 DUP8 SWAP1 PUSH2 0x1660 SWAP1 CALLER DUP9 EQ ISZERO DUP1 PUSH2 0x175C JUMPI JUMPDEST PUSH2 0x16CC JUMPI PUSH1 0x1 PUSH1 0x1 PUSH1 0xA0 SHL SUB AND PUSH0 SWAP1 DUP2 MSTORE PUSH1 0x1 PUSH1 0x20 MSTORE PUSH1 0x40 SWAP1 KECCAK256 SWAP1 JUMP JUMPDEST SWAP1 PUSH0 MSTORE PUSH1 0x20 MSTORE PUSH1 0x40 PUSH0 KECCAK256 SWAP1 JUMP JUMPDEST PUSH2 0x1678 DUP7 DUP3 SLOAD PUSH2 0x20B8 JUMP JUMPDEST SWAP1 SSTORE PUSH1 0x1 PUSH1 0x1 PUSH1 0xA0 SHL SUB DUP2 AND PUSH0 SWAP1 DUP2 MSTORE PUSH1 0x1 PUSH1 0x20 MSTORE PUSH1 0x40 SWAP1 KECCAK256 PUSH2 0x169C SWAP1 DUP8 SWAP1 PUSH2 0x1660 JUMP JUMPDEST PUSH2 0x16A7 DUP7 DUP3 SLOAD PUSH2 0x20C5 JUMP JUMPDEST SWAP1 SSTORE PUSH1 0x40 DUP1 MLOAD CALLER DUP2 MSTORE PUSH1 0x20 DUP2 ADD SWAP7 SWAP1 SWAP7 MSTORE PUSH1 0x1 PUSH1 0x1 PUSH1 0xA0 SHL SUB SWAP1 SWAP2 AND SWAP5 SWAP2 DUP3 SWAP2 DUP3 ADD SWAP1 JUMP JUMPDEST PUSH2 0x1703 DUP4 PUSH2 0x1660 CALLER PUSH2 0x16EE DUP6 PUSH1 0x1 DUP1 PUSH1 0xA0 SHL SUB AND PUSH0 MSTORE PUSH1 0x2 PUSH1 0x20 MSTORE PUSH1 0x40 PUSH0 KECCAK256 SWAP1 JUMP JUMPDEST SWAP1 PUSH1 0x1 DUP1 PUSH1 0xA0 SHL SUB AND PUSH0 MSTORE PUSH1 0x20 MSTORE PUSH1 0x40 PUSH0 KECCAK256 SWAP1 JUMP JUMPDEST SLOAD DUP10 PUSH1 0x1 DUP3 ADD PUSH2 0x1729 JUMPI JUMPDEST POP POP PUSH1 0x1 PUSH1 0x1 PUSH1 0xA0 SHL SUB AND PUSH0 SWAP1 DUP2 MSTORE PUSH1 0x1 PUSH1 0x20 MSTORE PUSH1 0x40 SWAP1 KECCAK256 SWAP1 JUMP JUMPDEST PUSH2 0x1732 SWAP2 PUSH2 0x20B8 JUMP JUMPDEST PUSH2 0x1754 DUP5 PUSH2 0x1660 CALLER PUSH2 0x16EE DUP7 PUSH1 0x1 DUP1 PUSH1 0xA0 SHL SUB AND PUSH0 MSTORE PUSH1 0x2 PUSH1 0x20 MSTORE PUSH1 0x40 PUSH0 KECCAK256 SWAP1 JUMP JUMPDEST SSTORE PUSH0 DUP10 PUSH2 0x170E JUMP JUMPDEST POP PUSH2 0x178B PUSH2 0x1787 PUSH2 0x1780 CALLER PUSH2 0x16EE DUP6 PUSH1 0x1 DUP1 PUSH1 0xA0 SHL SUB AND PUSH0 MSTORE PUSH0 PUSH1 0x20 MSTORE PUSH1 0x40 PUSH0 KECCAK256 SWAP1 JUMP JUMPDEST SLOAD PUSH1 0xFF AND SWAP1 JUMP JUMPDEST ISZERO SWAP1 JUMP JUMPDEST PUSH2 0x1643 JUMP JUMPDEST PUSH1 0x40 DUP1 MLOAD SWAP1 SWAP2 SWAP1 PUSH2 0x17A1 DUP4 DUP3 PUSH2 0x2C3 JUMP JUMPDEST PUSH1 0x1 DUP2 MSTORE SWAP2 PUSH1 0x1F NOT ADD CALLDATASIZE PUSH1 0x20 DUP5 ADD CALLDATACOPY JUMP JUMPDEST SWAP1 PUSH2 0x17BC DUP3 PUSH2 0x312 JUMP JUMPDEST PUSH2 0x17C9 PUSH1 0x40 MLOAD SWAP2 DUP3 PUSH2 0x2C3 JUMP JUMPDEST DUP3 DUP2 MSTORE DUP1 SWAP3 PUSH2 0x17DA PUSH1 0x1F NOT SWAP2 PUSH2 0x312 JUMP JUMPDEST ADD SWAP1 PUSH1 0x20 CALLDATASIZE SWAP2 ADD CALLDATACOPY JUMP JUMPDEST PUSH4 0x4E487B71 PUSH1 0xE0 SHL PUSH0 MSTORE PUSH1 0x32 PUSH1 0x4 MSTORE PUSH1 0x24 PUSH0 REVERT JUMPDEST DUP1 MLOAD ISZERO PUSH2 0x1805 JUMPI PUSH1 0x20 ADD SWAP1 JUMP JUMPDEST PUSH2 0x17E4 JUMP JUMPDEST DUP1 MLOAD DUP3 LT ISZERO PUSH2 0x1805 JUMPI PUSH1 0x20 SWAP2 PUSH1 0x5 SHL ADD ADD SWAP1 JUMP JUMPDEST ISZERO PUSH2 0x1825 JUMPI JUMP JUMPDEST PUSH1 0x40 MLOAD PUSH3 0x461BCD PUSH1 0xE5 SHL DUP2 MSTORE PUSH1 0x20 PUSH1 0x4 DUP3 ADD MSTORE PUSH1 0x14 PUSH1 0x24 DUP3 ADD MSTORE PUSH20 0x426574612061646472657373206973207A65726F PUSH1 0x60 SHL PUSH1 0x44 DUP3 ADD MSTORE PUSH1 0x64 SWAP1 REVERT JUMPDEST SWAP1 DUP1 PUSH1 0x1F DUP4 ADD SLT ISZERO PUSH2 0x1DF JUMPI DUP2 MLOAD PUSH2 0x1878 DUP2 PUSH2 0x312 JUMP JUMPDEST SWAP3 PUSH2 0x1886 PUSH1 0x40 MLOAD SWAP5 DUP6 PUSH2 0x2C3 JUMP JUMPDEST DUP2 DUP5 MSTORE PUSH1 0x20 DUP1 DUP6 ADD SWAP3 PUSH1 0x5 SHL DUP3 ADD ADD SWAP3 DUP4 GT PUSH2 0x1DF JUMPI PUSH1 0x20 ADD SWAP1 JUMPDEST DUP3 DUP3 LT PUSH2 0x18AE JUMPI POP POP POP SWAP1 JUMP JUMPDEST DUP2 MLOAD DUP2 MSTORE PUSH1 0x20 SWAP2 DUP3 ADD SWAP2 ADD PUSH2 0x18A1 JUMP JUMPDEST SWAP1 PUSH1 0x20 DUP3 DUP3 SUB SLT PUSH2 0x1DF JUMPI DUP2 MLOAD PUSH1 0x1 PUSH1 0x1 PUSH1 0x40 SHL SUB DUP2 GT PUSH2 0x1DF JUMPI PUSH2 0x390 SWAP3 ADD PUSH2 0x1861 JUMP JUMPDEST SWAP1 PUSH1 0x20 DUP1 DUP4 MLOAD SWAP3 DUP4 DUP2 MSTORE ADD SWAP3 ADD SWAP1 PUSH0 JUMPDEST DUP2 DUP2 LT PUSH2 0x1900 JUMPI POP POP POP SWAP1 JUMP JUMPDEST DUP3 MLOAD PUSH1 0x1 PUSH1 0x1 PUSH1 0x80 SHL SUB AND DUP5 MSTORE PUSH1 0x20 SWAP4 DUP5 ADD SWAP4 SWAP1 SWAP3 ADD SWAP2 PUSH1 0x1 ADD PUSH2 0x18F3 JUMP JUMPDEST SWAP1 PUSH1 0x20 DUP1 DUP4 MLOAD SWAP3 DUP4 DUP2 MSTORE ADD SWAP3 ADD SWAP1 PUSH0 JUMPDEST DUP2 DUP2 LT PUSH2 0x193C JUMPI POP POP POP SWAP1 JUMP JUMPDEST DUP3 MLOAD PUSH2 0xFFFF AND DUP5 MSTORE PUSH1 0x20 SWAP4 DUP5 ADD SWAP4 SWAP1 SWAP3 ADD SWAP2 PUSH1 0x1 ADD PUSH2 0x192F JUMP JUMPDEST DUP1 MLOAD PUSH1 0x1 PUSH1 0x1 PUSH1 0xA0 SHL SUB AND DUP3 MSTORE SWAP1 PUSH2 0x390 SWAP1 PUSH1 0x20 DUP4 DUP2 ADD MLOAD PUSH1 0x1 PUSH1 0x1 PUSH1 0xA0 SHL SUB AND SWAP1 DUP3 ADD MSTORE PUSH1 0x40 DUP4 DUP2 ADD MLOAD PUSH1 0x1 PUSH1 0x1 PUSH1 0xA0 SHL SUB AND SWAP1 DUP3 ADD MSTORE PUSH1 0xE0 DUP1 PUSH2 0x19EB PUSH2 0x19D9 PUSH2 0x19C7 PUSH2 0x19B5 PUSH1 0x60 DUP10 ADD MLOAD PUSH2 0x100 PUSH1 0x60 DUP10 ADD MSTORE PUSH2 0x100 DUP9 ADD SWAP1 PUSH2 0x59D JUMP JUMPDEST PUSH1 0x80 DUP10 ADD MLOAD DUP8 DUP3 SUB PUSH1 0x80 DUP10 ADD MSTORE PUSH2 0x18E3 JUMP JUMPDEST PUSH1 0xA0 DUP9 ADD MLOAD DUP7 DUP3 SUB PUSH1 0xA0 DUP9 ADD MSTORE PUSH2 0x18E3 JUMP JUMPDEST PUSH1 0xC0 DUP8 ADD MLOAD DUP6 DUP3 SUB PUSH1 0xC0 DUP8 ADD MSTORE PUSH2 0x191F JUMP JUMPDEST SWAP5 ADD MLOAD ISZERO ISZERO SWAP2 ADD MSTORE JUMP JUMPDEST DUP1 MLOAD DUP1 DUP4 MSTORE PUSH1 0x20 SWAP3 SWAP2 DUP2 SWAP1 DUP5 ADD DUP5 DUP5 ADD MCOPY PUSH0 DUP3 DUP3 ADD DUP5 ADD MSTORE PUSH1 0x1F ADD PUSH1 0x1F NOT AND ADD ADD SWAP1 JUMP JUMPDEST SWAP1 SWAP2 PUSH2 0x1A30 PUSH2 0x390 SWAP4 PUSH1 0x40 DUP5 MSTORE PUSH1 0x40 DUP5 ADD SWAP1 PUSH2 0x1956 JUMP JUMPDEST SWAP2 PUSH1 0x20 DUP2 DUP5 SUB SWAP2 ADD MSTORE PUSH2 0x19F5 JUMP JUMPDEST PUSH1 0x40 MLOAD RETURNDATASIZE PUSH0 DUP3 RETURNDATACOPY RETURNDATASIZE SWAP1 REVERT JUMPDEST ISZERO PUSH2 0x1A50 JUMPI JUMP JUMPDEST PUSH1 0x40 MLOAD PUSH3 0x461BCD PUSH1 0xE5 SHL DUP2 MSTORE PUSH1 0x20 PUSH1 0x4 DUP3 ADD MSTORE PUSH1 0x15 PUSH1 0x24 DUP3 ADD MSTORE PUSH21 0x416C7068612061646472657373206973207A65726F PUSH1 0x58 SHL PUSH1 0x44 DUP3 ADD MSTORE PUSH1 0x64 SWAP1 REVERT JUMPDEST SWAP1 PUSH1 0x20 PUSH2 0x390 SWAP3 DUP2 DUP2 MSTORE ADD SWAP1 PUSH2 0x1956 JUMP JUMPDEST SWAP2 PUSH2 0x1AC7 SWAP1 PUSH2 0x1AB9 PUSH2 0x390 SWAP6 SWAP4 PUSH1 0x60 DUP7 MSTORE PUSH1 0x60 DUP7 ADD SWAP1 PUSH2 0x1956 JUMP JUMPDEST SWAP1 DUP5 DUP3 SUB PUSH1 0x20 DUP7 ADD MSTORE PUSH2 0x19F5 JUMP JUMPDEST SWAP2 PUSH1 0x40 DUP2 DUP5 SUB SWAP2 ADD MSTORE PUSH2 0x19F5 JUMP JUMPDEST SWAP1 SWAP3 SWAP2 PUSH1 0xA0 DUP3 ADD SWAP3 PUSH2 0x1AE8 DUP5 MLOAD MLOAD PUSH2 0x17B2 JUMP JUMPDEST SWAP2 PUSH2 0x1AF4 DUP6 MLOAD MLOAD PUSH2 0x17B2 JUMP JUMPDEST SWAP2 PUSH2 0x1B00 DUP7 MLOAD MLOAD PUSH2 0x17B2 JUMP JUMPDEST SWAP7 PUSH2 0x1B24 PUSH2 0x1B1F PUSH2 0x1B11 DUP10 MLOAD PUSH2 0x17F8 JUMP JUMPDEST MLOAD PUSH1 0x1 PUSH1 0x1 PUSH1 0xE8 SHL SUB NOT AND SWAP1 JUMP JUMPDEST PUSH2 0x28C7 JUMP JUMPDEST SWAP3 PUSH0 JUMPDEST DUP9 MLOAD DUP1 MLOAD DUP3 LT ISZERO PUSH2 0x1BA7 JUMPI SWAP1 PUSH2 0x1BA1 DUP12 PUSH2 0x1B98 DUP4 PUSH2 0x1B83 PUSH1 0xC0 PUSH2 0x1B8F DUP16 DUP16 PUSH2 0x1B89 DUP7 PUSH2 0x1B83 PUSH2 0x1B5C PUSH2 0x1B11 PUSH1 0x1 SWAP16 DUP5 SWAP1 PUSH2 0x180A JUMP JUMPDEST DUP6 MLOAD PUSH1 0x20 DUP8 ADD MLOAD PUSH1 0x40 SWAP1 SWAP8 ADD MLOAD SWAP2 SWAP7 DUP8 SWAP3 PUSH1 0x1 PUSH1 0x1 PUSH1 0xA0 SHL SUB SWAP1 DUP2 AND SWAP3 SWAP2 DUP2 AND SWAP2 AND PUSH2 0x2977 JUMP JUMPDEST SWAP3 PUSH2 0x180A JUMP JUMPDEST MSTORE PUSH2 0x28C7 JUMP JUMPDEST ADD MLOAD PUSH2 0xFFFF AND SWAP1 JUMP JUMPDEST SWAP1 PUSH2 0xFFFF AND SWAP1 MSTORE JUMP JUMPDEST ADD PUSH2 0x1B27 JUMP JUMPDEST POP POP SWAP4 SWAP2 SWAP7 POP SWAP4 SWAP5 SWAP2 SWAP7 DUP3 MLOAD PUSH2 0x1BC2 SWAP1 PUSH1 0x1 DUP1 PUSH1 0xA0 SHL SUB AND SWAP1 JUMP JUMPDEST PUSH1 0x20 DUP5 ADD DUP1 MLOAD SWAP2 SWAP7 SWAP1 SWAP5 SWAP1 SWAP2 PUSH1 0x1 PUSH1 0x1 PUSH1 0xA0 SHL SUB AND PUSH1 0x40 DUP3 ADD DUP1 MLOAD SWAP1 SWAP5 SWAP1 PUSH1 0x1 PUSH1 0x1 PUSH1 0xA0 SHL SUB AND SWAP8 PUSH1 0x60 DUP5 ADD MLOAD SWAP5 PUSH1 0x80 DUP6 ADD SWAP6 DUP7 MLOAD PUSH2 0x1C00 SWAP1 ISZERO ISZERO SWAP1 JUMP JUMPDEST SWAP5 PUSH2 0x1C09 PUSH2 0x302 JUMP JUMPDEST PUSH1 0x1 PUSH1 0x1 PUSH1 0xA0 SHL SUB SWAP1 SWAP14 AND DUP14 MSTORE PUSH1 0x1 PUSH1 0x1 PUSH1 0xA0 SHL SUB AND PUSH1 0x20 DUP14 ADD MSTORE PUSH1 0x1 PUSH1 0x1 PUSH1 0xA0 SHL SUB SWAP1 SWAP11 AND PUSH1 0x40 DUP13 ADD SWAP1 DUP2 MSTORE SWAP10 PUSH1 0x60 DUP13 ADD MSTORE PUSH1 0x80 DUP12 ADD MSTORE PUSH1 0xA0 DUP11 ADD MSTORE PUSH1 0xC0 DUP10 ADD MSTORE ISZERO ISZERO PUSH1 0xE0 DUP9 ADD MSTORE MLOAD PUSH1 0x1 PUSH1 0x1 PUSH1 0xA0 SHL SUB AND SWAP4 MLOAD PUSH1 0x1 PUSH1 0x1 PUSH1 0xA0 SHL SUB AND SWAP2 MLOAD PUSH1 0x1 PUSH1 0x1 PUSH1 0xA0 SHL SUB AND SWAP1 MLOAD ISZERO ISZERO SWAP2 PUSH2 0x1C7F PUSH2 0x302 JUMP JUMPDEST PUSH1 0x1 PUSH1 0x1 PUSH1 0xA0 SHL SUB SWAP1 SWAP6 AND DUP6 MSTORE PUSH1 0x1 PUSH1 0x1 PUSH1 0xA0 SHL SUB AND PUSH1 0x20 DUP6 ADD MSTORE PUSH1 0x1 PUSH1 0x1 PUSH1 0xA0 SHL SUB AND PUSH1 0x40 DUP5 ADD MSTORE PUSH0 PUSH1 0x60 DUP5 ADD DUP2 SWAP1 MSTORE PUSH1 0x80 DUP5 ADD DUP2 SWAP1 MSTORE PUSH1 0xA0 DUP5 ADD DUP2 SWAP1 MSTORE PUSH1 0xC0 DUP5 ADD MSTORE ISZERO ISZERO PUSH1 0xE0 DUP4 ADD MSTORE DUP7 MLOAD ISZERO ISZERO DUP1 DUP1 PUSH2 0x2089 JUMPI JUMPDEST ISZERO PUSH2 0x1E78 JUMPI POP POP SWAP5 PUSH0 SWAP3 SWAP2 DUP4 PUSH2 0x1DB2 PUSH2 0x1DD0 SWAP7 SWAP8 SWAP9 PUSH2 0x1CF7 PUSH1 0x40 DUP7 ADD MLOAD ISZERO ISZERO SWAP1 JUMP JUMPDEST DUP4 EQ PUSH2 0x1E4D JUMPI PUSH32 0x0 SWAP5 JUMPDEST DUP2 PUSH2 0x1D2E PUSH1 0x60 DUP4 ADD MLOAD ISZERO ISZERO SWAP1 JUMP JUMPDEST DUP6 EQ PUSH2 0x1E09 JUMPI PUSH2 0x1DAC SWAP2 POP PUSH2 0x1DA6 PUSH2 0x1D9A PUSH2 0x1D9A PUSH32 0x0 SWAP9 JUMPDEST PUSH2 0x1D79 PUSH1 0x1 PUSH1 0x1 PUSH1 0xA0 SHL SUB DUP13 AND ISZERO ISZERO PUSH2 0x1A49 JUMP JUMPDEST PUSH2 0x1D8D PUSH1 0x1 PUSH1 0x1 PUSH1 0xA0 SHL SUB DUP12 AND ISZERO ISZERO PUSH2 0x181E JUMP JUMPDEST MLOAD PUSH1 0x1 PUSH1 0x1 PUSH1 0xA0 SHL SUB AND SWAP1 JUMP JUMPDEST PUSH1 0x1 PUSH1 0x1 PUSH1 0xA0 SHL SUB AND SWAP1 JUMP JUMPDEST SWAP7 PUSH2 0x2A60 JUMP JUMPDEST SWAP4 PUSH2 0x2A60 JUMP JUMPDEST PUSH1 0x40 MLOAD PUSH4 0x14B2017 PUSH1 0xE0 SHL DUP2 MSTORE SWAP7 DUP8 SWAP6 DUP7 SWAP5 DUP6 SWAP4 SWAP2 PUSH1 0x4 DUP6 ADD PUSH2 0x1A9E JUMP JUMPDEST SUB SWAP3 GAS CALL SWAP1 DUP2 ISZERO PUSH2 0x1E04 JUMPI PUSH0 SWAP2 PUSH2 0x1DE5 JUMPI POP SWAP2 JUMP JUMPDEST PUSH2 0x1E01 SWAP2 POP RETURNDATASIZE DUP1 PUSH0 DUP4 RETURNDATACOPY PUSH2 0x1DF9 DUP2 DUP4 PUSH2 0x2C3 JUMP JUMPDEST DUP2 ADD SWAP1 PUSH2 0x18BE JUMP JUMPDEST SWAP2 JUMP JUMPDEST PUSH2 0x1A3E JUMP JUMPDEST PUSH2 0x1DA6 PUSH2 0x1D9A PUSH2 0x1D9A PUSH2 0x1E47 PUSH2 0x1E3A PUSH2 0x1E29 PUSH1 0xA0 PUSH2 0x1DAC SWAP9 ADD MLOAD PUSH1 0xFF AND SWAP1 JUMP JUMPDEST PUSH1 0xFF AND PUSH0 MSTORE PUSH1 0x4 PUSH1 0x20 MSTORE PUSH1 0x40 PUSH0 KECCAK256 SWAP1 JUMP JUMPDEST SLOAD PUSH1 0x1 PUSH1 0x1 PUSH1 0xA0 SHL SUB AND SWAP1 JUMP JUMPDEST SWAP9 PUSH2 0x1D65 JUMP JUMPDEST PUSH2 0x1E72 PUSH2 0x1E3A PUSH2 0x1E61 PUSH1 0x80 DUP9 ADD MLOAD PUSH1 0xFF AND SWAP1 JUMP JUMPDEST PUSH1 0xFF AND PUSH0 MSTORE PUSH1 0x3 PUSH1 0x20 MSTORE PUSH1 0x40 PUSH0 KECCAK256 SWAP1 JUMP JUMPDEST SWAP5 PUSH2 0x1D20 JUMP JUMPDEST SWAP1 SWAP7 SWAP1 DUP1 ISZERO SWAP1 DUP2 DUP1 PUSH2 0x2073 JUMPI JUMPDEST ISZERO PUSH2 0x1ECB JUMPI POP POP POP POP PUSH0 SWAP3 SWAP4 SWAP5 POP DUP3 SWAP2 PUSH2 0x1EAE PUSH2 0x1D9A PUSH2 0x1D9A PUSH2 0x1DD0 SWAP5 MLOAD PUSH1 0x1 DUP1 PUSH1 0xA0 SHL SUB AND SWAP1 JUMP JUMPDEST SWAP1 PUSH1 0x40 MLOAD SWAP5 DUP6 DUP1 SWAP5 DUP2 SWAP4 PUSH4 0x145ECC63 PUSH1 0xE2 SHL DUP4 MSTORE PUSH1 0x4 DUP4 ADD PUSH2 0x1A8D JUMP JUMPDEST DUP1 PUSH2 0x205D JUMPI JUMPDEST ISZERO PUSH2 0x1F80 JUMPI POP PUSH2 0x1DD0 SWAP5 SWAP6 SWAP7 POP PUSH0 SWAP4 SWAP3 SWAP2 DUP2 PUSH2 0x1EF3 PUSH1 0x40 PUSH2 0x1F40 SWAP5 ADD MLOAD ISZERO ISZERO SWAP1 JUMP JUMPDEST DUP7 EQ PUSH2 0x1F5D JUMPI POP PUSH2 0x1F3A PUSH2 0x1D9A PUSH2 0x1D9A PUSH32 0x0 SWAP6 JUMPDEST PUSH2 0x1D8D PUSH1 0x1 PUSH1 0x1 PUSH1 0xA0 SHL SUB DUP9 AND ISZERO ISZERO PUSH2 0x1A49 JUMP JUMPDEST SWAP3 PUSH2 0x2A60 JUMP JUMPDEST SWAP2 DUP4 PUSH1 0x40 MLOAD DUP1 SWAP7 DUP2 SWAP6 DUP3 SWAP5 PUSH3 0xDB90D1 PUSH1 0xE8 SHL DUP5 MSTORE PUSH1 0x4 DUP5 ADD PUSH2 0x1A19 JUMP JUMPDEST PUSH2 0x1D9A PUSH2 0x1D9A PUSH2 0x1F7A PUSH2 0x1E3A PUSH2 0x1E61 PUSH1 0x80 PUSH2 0x1F3A SWAP7 ADD MLOAD PUSH1 0xFF AND SWAP1 JUMP JUMPDEST SWAP6 PUSH2 0x1F26 JUMP JUMPDEST SWAP5 SWAP6 SWAP5 DUP1 PUSH2 0x2050 JUMPI JUMPDEST PUSH2 0x1F94 JUMPI JUMPDEST POP POP POP POP JUMP JUMPDEST PUSH2 0x1FF6 SWAP5 SWAP7 POP PUSH0 SWAP4 SWAP3 SWAP2 DUP2 PUSH2 0x1FAF PUSH1 0x60 PUSH2 0x1F40 SWAP5 ADD MLOAD ISZERO ISZERO SWAP1 JUMP JUMPDEST DUP7 EQ PUSH2 0x202D JUMPI POP PUSH2 0x1F3A PUSH2 0x1D9A PUSH2 0x1D9A PUSH32 0x0 SWAP6 JUMPDEST PUSH2 0x1D8D PUSH1 0x1 PUSH1 0x1 PUSH1 0xA0 SHL SUB DUP9 AND ISZERO ISZERO PUSH2 0x181E JUMP JUMPDEST SUB SWAP3 GAS CALL SWAP1 DUP2 ISZERO PUSH2 0x1E04 JUMPI PUSH0 SWAP2 PUSH2 0x2013 JUMPI JUMPDEST POP SWAP2 PUSH0 DUP1 DUP1 DUP1 PUSH2 0x1F8E JUMP JUMPDEST PUSH2 0x2027 SWAP2 POP RETURNDATASIZE DUP1 PUSH0 DUP4 RETURNDATACOPY PUSH2 0x1DF9 DUP2 DUP4 PUSH2 0x2C3 JUMP JUMPDEST PUSH0 PUSH2 0x2008 JUMP JUMPDEST PUSH2 0x1D9A PUSH2 0x1D9A PUSH2 0x204A PUSH2 0x1E3A PUSH2 0x1E29 PUSH1 0xA0 PUSH2 0x1F3A SWAP7 ADD MLOAD PUSH1 0xFF AND SWAP1 JUMP JUMPDEST SWAP6 PUSH2 0x1FE2 JUMP JUMPDEST POP PUSH1 0x20 DUP2 ADD MLOAD ISZERO ISZERO PUSH2 0x1F89 JUMP JUMPDEST POP PUSH2 0x206E PUSH2 0x1787 PUSH1 0x20 DUP5 ADD MLOAD ISZERO ISZERO SWAP1 JUMP JUMPDEST PUSH2 0x1ED1 JUMP JUMPDEST POP PUSH2 0x2084 PUSH2 0x1787 PUSH1 0x20 DUP6 ADD MLOAD ISZERO ISZERO SWAP1 JUMP JUMPDEST PUSH2 0x1E85 JUMP JUMPDEST POP PUSH1 0x20 DUP9 ADD MLOAD ISZERO ISZERO PUSH2 0x1CD5 JUMP JUMPDEST PUSH4 0x4E487B71 PUSH1 0xE0 SHL PUSH0 MSTORE PUSH1 0x11 PUSH1 0x4 MSTORE PUSH1 0x24 PUSH0 REVERT JUMPDEST PUSH0 NOT DUP2 ADD SWAP2 SWAP1 DUP3 GT PUSH2 0x6DD JUMPI JUMP JUMPDEST SWAP2 SWAP1 DUP3 SUB SWAP2 DUP3 GT PUSH2 0x6DD JUMPI JUMP JUMPDEST SWAP2 SWAP1 DUP3 ADD DUP1 SWAP3 GT PUSH2 0x6DD JUMPI JUMP JUMPDEST ISZERO PUSH2 0x20D9 JUMPI JUMP JUMPDEST PUSH1 0x40 MLOAD PUSH3 0x461BCD PUSH1 0xE5 SHL DUP2 MSTORE PUSH1 0x20 PUSH1 0x4 DUP3 ADD MSTORE PUSH1 0x1D PUSH1 0x24 DUP3 ADD MSTORE PUSH32 0x496E76616C696420706F696E7465723A206D75737420626520302D3135000000 PUSH1 0x44 DUP3 ADD MSTORE PUSH1 0x64 SWAP1 REVERT JUMPDEST SWAP1 DUP2 PUSH1 0x20 SWAP2 SUB SLT PUSH2 0x1DF JUMPI MLOAD SWAP1 JUMP JUMPDEST DUP1 MLOAD PUSH1 0x1 PUSH1 0x1 PUSH1 0xA0 SHL SUB SWAP1 DUP2 AND DUP4 MSTORE PUSH1 0x20 DUP1 DUP4 ADD MLOAD DUP3 AND SWAP1 DUP5 ADD MSTORE PUSH1 0x40 DUP1 DUP4 ADD MLOAD SWAP1 SWAP2 AND SWAP1 DUP4 ADD MSTORE PUSH1 0x60 DUP1 DUP3 ADD MLOAD SWAP1 DUP4 ADD MSTORE PUSH1 0x80 DUP1 DUP3 ADD MLOAD PUSH1 0x1 PUSH1 0x1 PUSH1 0x80 SHL SUB AND SWAP1 DUP4 ADD MSTORE PUSH2 0x1EE SWAP2 SWAP1 PUSH1 0xE0 SWAP1 DUP2 SWAP1 PUSH1 0xA0 DUP2 DUP2 ADD MLOAD PUSH1 0x1 PUSH1 0x1 PUSH1 0x80 SHL SUB AND SWAP1 DUP6 ADD MSTORE PUSH1 0xC0 DUP2 DUP2 ADD MLOAD PUSH2 0xFFFF AND SWAP1 DUP6 ADD MSTORE ADD MLOAD ISZERO ISZERO SWAP2 ADD MSTORE JUMP JUMPDEST DUP1 PUSH2 0x21B8 PUSH2 0x120 SWAP3 PUSH2 0x390 SWAP6 SWAP5 PUSH2 0x212D JUMP JUMPDEST DUP2 PUSH2 0x100 DUP3 ADD MSTORE ADD SWAP1 PUSH2 0x19F5 JUMP JUMPDEST PUSH2 0x100 DUP2 ADD SWAP3 SWAP2 PUSH2 0x1EE SWAP2 SWAP1 PUSH2 0x212D JUMP JUMPDEST SWAP2 PUSH2 0x21FE SWAP1 PUSH2 0x21EA DUP5 PUSH2 0x390 SWAP7 SWAP5 PUSH2 0x212D JUMP JUMPDEST PUSH2 0x140 PUSH2 0x100 DUP6 ADD MSTORE PUSH2 0x140 DUP5 ADD SWAP1 PUSH2 0x19F5 JUMP JUMPDEST SWAP2 PUSH2 0x120 DUP2 DUP5 SUB SWAP2 ADD MSTORE PUSH2 0x19F5 JUMP JUMPDEST DUP1 MLOAD SWAP1 SWAP3 PUSH0 SWAP3 SWAP1 SWAP2 PUSH1 0x1 PUSH1 0x1 PUSH1 0xA0 SHL SUB AND PUSH1 0x20 DUP6 ADD DUP1 MLOAD SWAP1 SWAP5 SWAP2 SWAP1 PUSH1 0x1 PUSH1 0x1 PUSH1 0xA0 SHL SUB AND PUSH1 0x40 DUP8 ADD DUP1 MLOAD SWAP2 SWAP8 SWAP1 SWAP3 SWAP1 SWAP2 PUSH1 0x1 PUSH1 0x1 PUSH1 0xA0 SHL SUB AND SWAP8 PUSH1 0xA0 DUP4 ADD SWAP9 DUP10 MLOAD PUSH2 0x2257 SWAP1 PUSH2 0x17F8 JUMP JUMPDEST MLOAD PUSH1 0x1 PUSH1 0x1 PUSH1 0xE8 SHL SUB NOT AND SWAP2 PUSH2 0x226C SWAP4 PUSH2 0x2977 JUMP JUMPDEST SWAP7 MLOAD PUSH2 0x2277 SWAP1 PUSH2 0x17F8 JUMP JUMPDEST MLOAD PUSH1 0x1 PUSH1 0x1 PUSH1 0xE8 SHL SUB NOT AND PUSH2 0x228B SWAP1 PUSH2 0x28C7 JUMP JUMPDEST DUP2 MLOAD SWAP1 SWAP6 SWAP1 PUSH1 0x1 PUSH1 0x1 PUSH1 0xA0 SHL SUB AND SWAP7 MLOAD PUSH1 0x1 PUSH1 0x1 PUSH1 0xA0 SHL SUB AND SWAP3 MLOAD PUSH1 0x1 PUSH1 0x1 PUSH1 0xA0 SHL SUB AND SWAP5 PUSH1 0x60 DUP4 ADD MLOAD PUSH2 0x22BE SWAP1 PUSH2 0x17F8 JUMP JUMPDEST MLOAD PUSH1 0xC0 DUP9 ADD MLOAD PUSH2 0xFFFF AND PUSH1 0x80 SWAP1 SWAP5 ADD MLOAD ISZERO ISZERO SWAP5 PUSH2 0x22D9 PUSH2 0x302 JUMP JUMPDEST PUSH1 0x1 PUSH1 0x1 PUSH1 0xA0 SHL SUB SWAP1 SWAP11 AND DUP11 MSTORE PUSH1 0x1 PUSH1 0x1 PUSH1 0xA0 SHL SUB AND PUSH1 0x20 DUP11 ADD MSTORE PUSH1 0x1 PUSH1 0x1 PUSH1 0xA0 SHL SUB SWAP1 SWAP7 AND PUSH1 0x40 DUP10 ADD SWAP1 DUP2 MSTORE SWAP6 PUSH1 0x60 DUP10 ADD MSTORE PUSH1 0x1 PUSH1 0x1 PUSH1 0x80 SHL SUB AND PUSH1 0x80 DUP9 ADD MSTORE PUSH1 0x1 PUSH1 0x1 PUSH1 0x80 SHL SUB AND PUSH1 0xA0 DUP8 ADD MSTORE PUSH2 0xFFFF AND PUSH1 0xC0 DUP7 ADD MSTORE ISZERO ISZERO PUSH1 0xE0 DUP6 ADD MSTORE DUP3 MLOAD ISZERO ISZERO DUP1 DUP1 PUSH2 0x2642 JUMPI JUMPDEST ISZERO PUSH2 0x2478 JUMPI POP POP SWAP2 DUP2 PUSH2 0x23F9 SWAP4 PUSH2 0x235F PUSH1 0x40 PUSH1 0x20 SWAP6 ADD MLOAD ISZERO ISZERO SWAP1 JUMP JUMPDEST ISZERO PUSH2 0x245D JUMPI DUP3 PUSH32 0x0 SWAP3 JUMPDEST PUSH1 0x60 DUP2 ADD MLOAD ISZERO PUSH2 0x2437 JUMPI POP PUSH2 0x23DB DUP2 PUSH2 0x1DAC PUSH0 SWAP4 PUSH2 0x1DA6 PUSH2 0x1D9A PUSH2 0x1D9A PUSH32 0x0 SWAP9 PUSH2 0x1D79 PUSH1 0x1 PUSH1 0x1 PUSH1 0xA0 SHL SUB DUP13 AND ISZERO ISZERO PUSH2 0x1A49 JUMP JUMPDEST PUSH1 0x40 MLOAD PUSH4 0x1EEBC2D PUSH1 0xE1 SHL DUP2 MSTORE SWAP7 DUP8 SWAP6 DUP7 SWAP5 DUP6 SWAP4 SWAP2 PUSH1 0x4 DUP6 ADD PUSH2 0x21D7 JUMP JUMPDEST SUB SWAP3 GAS CALL SWAP1 DUP2 ISZERO PUSH2 0x1E04 JUMPI PUSH0 SWAP2 PUSH2 0x240E JUMPI POP SWAP2 JUMP JUMPDEST PUSH2 0x1E01 SWAP2 POP PUSH1 0x20 RETURNDATASIZE PUSH1 0x20 GT PUSH2 0x2430 JUMPI JUMPDEST PUSH2 0x2428 DUP2 DUP4 PUSH2 0x2C3 JUMP JUMPDEST DUP2 ADD SWAP1 PUSH2 0x211E JUMP JUMPDEST POP RETURNDATASIZE PUSH2 0x241E JUMP JUMPDEST DUP2 PUSH2 0x1DAC PUSH0 SWAP4 PUSH2 0x1DA6 PUSH2 0x1D9A PUSH2 0x1D9A PUSH2 0x1E47 PUSH2 0x1E3A PUSH2 0x1E29 PUSH1 0xA0 PUSH2 0x23DB SWAP11 ADD MLOAD PUSH1 0xFF AND SWAP1 JUMP JUMPDEST DUP3 PUSH2 0x2472 PUSH2 0x1E3A PUSH2 0x1E61 PUSH1 0x80 DUP7 ADD MLOAD PUSH1 0xFF AND SWAP1 JUMP JUMPDEST SWAP3 PUSH2 0x2388 JUMP JUMPDEST SWAP2 SWAP3 SWAP2 DUP1 ISZERO SWAP1 DUP2 DUP1 PUSH2 0x262C JUMPI JUMPDEST ISZERO PUSH2 0x24C8 JUMPI POP POP POP POP PUSH2 0x23F9 PUSH0 SWAP3 PUSH2 0x24AB PUSH2 0x1D9A PUSH2 0x1D9A PUSH1 0x20 SWAP6 MLOAD PUSH1 0x1 DUP1 PUSH1 0xA0 SHL SUB AND SWAP1 JUMP JUMPDEST SWAP1 PUSH1 0x40 MLOAD SWAP5 DUP6 DUP1 SWAP5 DUP2 SWAP4 PUSH4 0x160F04BD PUSH1 0xE2 SHL DUP4 MSTORE PUSH1 0x4 DUP4 ADD PUSH2 0x21C6 JUMP JUMPDEST DUP1 PUSH2 0x2616 JUMPI JUMPDEST ISZERO PUSH2 0x2572 JUMPI POP POP SWAP2 PUSH1 0x20 SWAP2 DUP4 DUP3 PUSH2 0x24EB PUSH1 0x40 PUSH2 0x23F9 SWAP8 ADD MLOAD ISZERO ISZERO SWAP1 JUMP JUMPDEST ISZERO PUSH2 0x2552 JUMPI PUSH2 0x2534 SWAP2 POP PUSH2 0x1F3A PUSH2 0x1D9A PUSH2 0x1D9A PUSH32 0x0 SWAP6 PUSH2 0x1D8D PUSH1 0x1 PUSH1 0x1 PUSH1 0xA0 SHL SUB DUP9 AND ISZERO ISZERO PUSH2 0x1A49 JUMP JUMPDEST SWAP2 PUSH0 PUSH1 0x40 MLOAD DUP1 SWAP7 DUP2 SWAP6 DUP3 SWAP5 PUSH4 0x5E3344D PUSH1 0xE4 SHL DUP5 MSTORE PUSH1 0x4 DUP5 ADD PUSH2 0x21A6 JUMP JUMPDEST PUSH2 0x1F3A PUSH2 0x1D9A PUSH2 0x1D9A PUSH2 0x1F7A PUSH2 0x1E3A PUSH2 0x1E61 PUSH1 0x80 PUSH2 0x2534 SWAP9 ADD MLOAD PUSH1 0xFF AND SWAP1 JUMP JUMPDEST SWAP1 SWAP6 SWAP4 SWAP3 SWAP2 SWAP1 DUP1 PUSH2 0x2609 JUMPI JUMPDEST PUSH2 0x2587 JUMPI POP POP POP JUMP JUMPDEST PUSH2 0x23F9 SWAP4 SWAP6 POP SWAP1 DUP2 DUP4 PUSH2 0x25A0 PUSH1 0x60 PUSH1 0x20 SWAP7 SWAP6 ADD MLOAD ISZERO ISZERO SWAP1 JUMP JUMPDEST ISZERO PUSH2 0x25E9 JUMPI PUSH2 0x2534 SWAP2 POP PUSH2 0x1F3A PUSH2 0x1D9A PUSH2 0x1D9A PUSH32 0x0 SWAP6 PUSH2 0x1D8D PUSH1 0x1 PUSH1 0x1 PUSH1 0xA0 SHL SUB DUP9 AND ISZERO ISZERO PUSH2 0x181E JUMP JUMPDEST PUSH2 0x1F3A PUSH2 0x1D9A PUSH2 0x1D9A PUSH2 0x204A PUSH2 0x1E3A PUSH2 0x1E29 PUSH1 0xA0 PUSH2 0x2534 SWAP9 ADD MLOAD PUSH1 0xFF AND SWAP1 JUMP JUMPDEST POP PUSH1 0x20 DUP2 ADD MLOAD ISZERO ISZERO PUSH2 0x257E JUMP JUMPDEST POP PUSH2 0x2627 PUSH2 0x1787 PUSH1 0x20 DUP6 ADD MLOAD ISZERO ISZERO SWAP1 JUMP JUMPDEST PUSH2 0x24CE JUMP JUMPDEST POP PUSH2 0x263D PUSH2 0x1787 PUSH1 0x20 DUP7 ADD MLOAD ISZERO ISZERO SWAP1 JUMP JUMPDEST PUSH2 0x2485 JUMP JUMPDEST POP PUSH1 0x20 DUP5 ADD MLOAD ISZERO ISZERO PUSH2 0x2343 JUMP JUMPDEST SWAP1 SWAP3 SWAP2 PUSH2 0x265D PUSH2 0xA05 PUSH2 0x2BE9 JUMP JUMPDEST DUP4 ISZERO PUSH2 0x26DE JUMPI SWAP3 SWAP1 PUSH0 SWAP2 JUMPDEST DUP1 DUP4 LT PUSH2 0x269C JUMPI POP POP POP DUP1 DUP3 LT PUSH2 0x2687 JUMPI POP SWAP1 PUSH0 PUSH2 0x2684 PUSH2 0x2BE9 JUMP JUMPDEST TSTORE JUMP JUMPDEST PUSH4 0xD438755D PUSH1 0xE0 SHL PUSH0 MSTORE PUSH1 0x4 MSTORE PUSH1 0x24 MSTORE PUSH1 0x44 PUSH0 REVERT JUMPDEST SWAP1 SWAP2 SWAP4 PUSH2 0x26CF PUSH1 0x1 SWAP2 PUSH2 0x26B0 DUP8 DUP6 DUP8 PUSH2 0x2C38 JUMP JUMPDEST DUP8 ISZERO PUSH2 0x26BB DUP7 PUSH2 0x20AA JUMP JUMPDEST DUP10 EQ SWAP1 DUP1 ISZERO PUSH2 0x26D8 JUMPI CALLVALUE JUMPDEST ADDRESS SWAP5 CALLER SWAP5 PUSH2 0x310C JUMP JUMPDEST SWAP5 ADD SWAP2 SWAP1 PUSH2 0x2668 JUMP JUMPDEST PUSH0 PUSH2 0x26C6 JUMP JUMPDEST PUSH1 0x40 MLOAD PUSH3 0x461BCD PUSH1 0xE5 SHL DUP2 MSTORE PUSH1 0x20 PUSH1 0x4 DUP3 ADD MSTORE PUSH1 0x7 PUSH1 0x24 DUP3 ADD MSTORE PUSH7 0x4E6F20686F7073 PUSH1 0xC8 SHL PUSH1 0x44 DUP3 ADD MSTORE PUSH1 0x64 SWAP1 REVERT JUMPDEST ISZERO PUSH2 0x2714 JUMPI JUMP JUMPDEST PUSH1 0x40 MLOAD PUSH3 0x461BCD PUSH1 0xE5 SHL DUP2 MSTORE PUSH1 0x20 PUSH1 0x4 DUP3 ADD MSTORE PUSH1 0x18 PUSH1 0x24 DUP3 ADD MSTORE PUSH32 0x496E76616C6964206C697175696469747920616D6F756E740000000000000000 PUSH1 0x44 DUP3 ADD MSTORE PUSH1 0x64 SWAP1 REVERT JUMPDEST ISZERO PUSH2 0x2760 JUMPI JUMP JUMPDEST PUSH1 0x40 MLOAD PUSH3 0x461BCD PUSH1 0xE5 SHL DUP2 MSTORE PUSH1 0x20 PUSH1 0x4 DUP3 ADD MSTORE PUSH1 0x14 PUSH1 0x24 DUP3 ADD MSTORE PUSH20 0x139BC81B1A5C5D5A591A5D1E481A5B881C1BDBDB PUSH1 0x62 SHL PUSH1 0x44 DUP3 ADD MSTORE PUSH1 0x64 SWAP1 REVERT JUMPDEST SWAP1 PUSH8 0xDE0B6B3A7640000 DUP3 MUL SWAP2 DUP1 DUP4 DIV PUSH8 0xDE0B6B3A7640000 EQ SWAP1 ISZERO OR ISZERO PUSH2 0x6DD JUMPI JUMP JUMPDEST SWAP1 PUSH8 0x120A871CC0020000 DUP3 MUL SWAP2 DUP1 DUP4 DIV PUSH8 0x120A871CC0020000 EQ SWAP1 ISZERO OR ISZERO PUSH2 0x6DD JUMPI JUMP JUMPDEST DUP2 DUP2 MUL SWAP3 SWAP2 DUP2 ISZERO SWAP2 DUP5 DIV EQ OR ISZERO PUSH2 0x6DD JUMPI JUMP JUMPDEST DUP2 ISZERO PUSH2 0x2801 JUMPI DIV SWAP1 JUMP JUMPDEST PUSH4 0x4E487B71 PUSH1 0xE0 SHL PUSH0 MSTORE PUSH1 0x12 PUSH1 0x4 MSTORE PUSH1 0x24 PUSH0 REVERT JUMPDEST PUSH1 0xF SIGNEXTEND PUSH16 0x7FFFFFFFFFFFFFFFFFFFFFFFFFFFFFFF NOT DUP2 EQ PUSH2 0x6DD JUMPI PUSH0 SUB SWAP1 JUMP JUMPDEST ISZERO PUSH2 0x283C JUMPI JUMP JUMPDEST PUSH1 0x40 MLOAD PUSH3 0x461BCD PUSH1 0xE5 SHL DUP2 MSTORE PUSH1 0x20 PUSH1 0x4 DUP3 ADD MSTORE PUSH1 0x17 PUSH1 0x24 DUP3 ADD MSTORE PUSH32 0x496E76616C696420696E697469616C20616D6F756E7473000000000000000000 PUSH1 0x44 DUP3 ADD MSTORE PUSH1 0x64 SWAP1 REVERT JUMPDEST PUSH1 0x40 MLOAD SWAP1 PUSH1 0xE0 DUP3 ADD DUP3 DUP2 LT PUSH1 0x1 PUSH1 0x1 PUSH1 0x40 SHL SUB DUP3 GT OR PUSH2 0x2BE JUMPI PUSH1 0x40 MSTORE PUSH0 PUSH1 0xC0 DUP4 DUP3 DUP2 MSTORE DUP3 PUSH1 0x20 DUP3 ADD MSTORE DUP3 PUSH1 0x40 DUP3 ADD MSTORE DUP3 PUSH1 0x60 DUP3 ADD MSTORE DUP3 PUSH1 0x80 DUP3 ADD MSTORE DUP3 PUSH1 0xA0 DUP3 ADD MSTORE ADD MSTORE JUMP JUMPDEST PUSH2 0x390 PUSH2 0xFFF PUSH2 0x296B PUSH2 0x28D8 PUSH2 0x2881 JUMP JUMPDEST SWAP4 PUSH1 0xE8 SHR PUSH2 0x28F8 PUSH1 0x1 PUSH2 0x28F1 DUP4 PUSH3 0x7FFFFF SWAP1 PUSH1 0x1 SHR AND SWAP1 JUMP JUMPDEST AND ISZERO ISZERO DUP7 MSTORE JUMP JUMPDEST PUSH1 0x1 DUP2 AND ISZERO ISZERO PUSH1 0x20 DUP7 ADD MSTORE PUSH2 0x2928 PUSH2 0x291F PUSH1 0x1 PUSH1 0x2 DUP5 SWAP1 SHR PUSH3 0x3FFFFF AND JUMPDEST AND PUSH3 0xFFFFFF AND SWAP1 JUMP JUMPDEST ISZERO ISZERO PUSH1 0x40 DUP8 ADD MSTORE JUMP JUMPDEST PUSH2 0x2948 PUSH2 0x293F PUSH1 0x1 PUSH1 0x3 DUP5 SWAP1 SHR PUSH3 0x1FFFFF AND PUSH2 0x2916 JUMP JUMPDEST ISZERO ISZERO PUSH1 0x60 DUP8 ADD MSTORE JUMP JUMPDEST PUSH1 0xF PUSH1 0x4 DUP3 SWAP1 SHR DUP2 AND PUSH1 0x80 DUP8 ADD MSTORE PUSH1 0x8 DUP3 SWAP1 SHR AND PUSH1 0xA0 DUP7 ADD MSTORE PUSH1 0xC SHR PUSH2 0xFFF AND SWAP1 JUMP JUMPDEST AND PUSH2 0xFFFF AND PUSH1 0xC0 DUP4 ADD MSTORE JUMP JUMPDEST SWAP1 SWAP3 SWAP1 PUSH1 0x1 PUSH1 0x1 PUSH1 0xA0 SHL SUB DUP1 DUP6 AND SWAP1 DUP3 AND LT ISZERO PUSH2 0x29E9 JUMPI SWAP3 SWAP2 JUMPDEST PUSH1 0x40 MLOAD PUSH12 0xFFFFFFFFFFFFFFFFFFFFFFFF NOT PUSH1 0x60 SWAP6 DUP7 SHL DUP2 AND PUSH1 0x20 DUP4 ADD SWAP1 DUP2 MSTORE SWAP5 DUP7 SHL DUP2 AND PUSH1 0x34 DUP4 ADD MSTORE SWAP2 SWAP1 SWAP5 SHL AND PUSH1 0x48 DUP5 ADD MSTORE PUSH1 0x1 PUSH1 0x1 PUSH1 0xE8 SHL SUB NOT AND PUSH1 0x5C DUP4 ADD MSTORE PUSH1 0x3F DUP3 MSTORE SWAP1 PUSH2 0x29E3 PUSH1 0x5F DUP3 PUSH2 0x2C3 JUMP JUMPDEST MLOAD SWAP1 KECCAK256 SWAP1 JUMP JUMPDEST SWAP2 PUSH2 0x2991 JUMP JUMPDEST PUSH1 0x20 DUP2 DUP4 SUB SLT PUSH2 0x1DF JUMPI DUP1 MLOAD SWAP1 PUSH1 0x1 PUSH1 0x1 PUSH1 0x40 SHL SUB DUP3 GT PUSH2 0x1DF JUMPI ADD DUP2 PUSH1 0x1F DUP3 ADD SLT ISZERO PUSH2 0x1DF JUMPI DUP1 MLOAD SWAP1 PUSH1 0x1 PUSH1 0x1 PUSH1 0x40 SHL SUB DUP3 GT PUSH2 0x2BE JUMPI PUSH1 0x40 MLOAD SWAP3 PUSH2 0x2A3F PUSH1 0x1F DUP5 ADD PUSH1 0x1F NOT AND PUSH1 0x20 ADD DUP6 PUSH2 0x2C3 JUMP JUMPDEST DUP3 DUP5 MSTORE PUSH1 0x20 DUP4 DUP4 ADD ADD GT PUSH2 0x1DF JUMPI DUP2 PUSH0 SWAP3 PUSH1 0x20 DUP1 SWAP4 ADD DUP4 DUP7 ADD MCOPY DUP4 ADD ADD MSTORE SWAP1 JUMP JUMPDEST SWAP1 PUSH1 0x60 SWAP2 DUP1 TLOAD DUP1 ISZERO DUP1 PUSH2 0x2BD4 JUMPI JUMPDEST ISZERO PUSH2 0x2B8E JUMPI JUMPDEST POP DUP3 MLOAD ISZERO SWAP2 DUP3 PUSH2 0x2ABF JUMPI JUMPDEST POP PUSH1 0x40 MLOAD SWAP2 ISZERO DUP3 MSTORE PUSH1 0x1 PUSH1 0x1 PUSH1 0xA0 SHL SUB AND SWAP1 PUSH32 0xD34145BF6DE6D1B18053AD66A4A1AF093071A5AB67C05B8BFCE98FD95FFB0D89 SWAP1 DUP1 PUSH1 0x20 DUP2 ADD JUMPDEST SUB SWAP1 LOG2 SWAP1 JUMP JUMPDEST PUSH1 0x40 MLOAD PUSH4 0x3BD1104B PUSH1 0xE0 SHL DUP2 MSTORE SWAP4 POP PUSH0 SWAP1 DUP5 SWAP1 DUP2 SWAP1 PUSH2 0x2AE1 SWAP1 PUSH1 0x4 DUP4 ADD PUSH2 0x21C6 JUMP JUMPDEST SUB DUP2 DUP4 PUSH1 0x1 PUSH1 0x1 PUSH1 0xA0 SHL SUB DUP7 AND GAS CALL SWAP3 DUP4 ISZERO PUSH2 0x1E04 JUMPI PUSH0 SWAP4 PUSH2 0x2B44 JUMPI JUMPDEST POP PUSH2 0x2AB9 PUSH32 0xD34145BF6DE6D1B18053AD66A4A1AF093071A5AB67C05B8BFCE98FD95FFB0D89 SWAP2 DUP5 DUP1 MLOAD PUSH2 0x2B34 JUMPI JUMPDEST POP SWAP2 POP PUSH2 0x2A7F JUMP JUMPDEST PUSH2 0x2B3E SWAP1 DUP3 PUSH2 0x302C JUMP JUMPDEST PUSH0 PUSH2 0x2B2C JUMP JUMPDEST PUSH32 0xD34145BF6DE6D1B18053AD66A4A1AF093071A5AB67C05B8BFCE98FD95FFB0D89 SWAP2 SWAP4 POP PUSH2 0x2B86 PUSH2 0x2AB9 SWAP2 RETURNDATASIZE DUP1 PUSH0 DUP4 RETURNDATACOPY PUSH2 0x2B7E DUP2 DUP4 PUSH2 0x2C3 JUMP JUMPDEST DUP2 ADD SWAP1 PUSH2 0x29EF JUMP JUMPDEST SWAP4 SWAP2 POP PUSH2 0x2AFE JUMP JUMPDEST SWAP3 POP PUSH1 0x1F PUSH1 0x40 MLOAD SWAP4 DUP1 DUP6 MSTORE ADD DUP1 PUSH1 0x5 SHR PUSH0 JUMPDEST DUP2 DUP2 LT PUSH2 0x2BBB JUMPI POP POP PUSH1 0x1F NOT AND DUP4 ADD PUSH1 0x20 ADD PUSH1 0x40 MSTORE PUSH0 PUSH2 0x2A74 JUMP JUMPDEST DUP1 PUSH1 0x1 DUP1 SWAP3 DUP7 ADD ADD TLOAD PUSH1 0x20 DUP3 PUSH1 0x5 SHL DUP10 ADD ADD MSTORE ADD PUSH2 0x2BA0 JUMP JUMPDEST SWAP4 POP PUSH1 0x40 MLOAD SWAP4 PUSH0 DUP6 MSTORE PUSH1 0x20 DUP6 ADD PUSH1 0x40 MSTORE PUSH2 0x2A6E JUMP JUMPDEST PUSH1 0x40 MLOAD PUSH1 0x20 DUP2 ADD SWAP1 PUSH32 0x626529A6BE7CB2FB96A7ED93849B4EF74C980495DFE61FD514C95DCD9DA51C35 DUP3 MSTORE ADDRESS PUSH1 0x60 SHL PUSH1 0x40 DUP3 ADD MSTORE PUSH1 0x34 DUP2 MSTORE PUSH2 0x29E3 PUSH1 0x54 DUP3 PUSH2 0x2C3 JUMP JUMPDEST DUP1 TLOAD PUSH2 0x1DF JUMPI PUSH1 0x1 SWAP1 TSTORE JUMP JUMPDEST SWAP2 SWAP1 DUP2 LT ISZERO PUSH2 0x1805 JUMPI PUSH1 0x5 SHL DUP2 ADD CALLDATALOAD SWAP1 PUSH1 0xBE NOT DUP2 CALLDATASIZE SUB ADD DUP3 SLT ISZERO PUSH2 0x1DF JUMPI ADD SWAP1 JUMP JUMPDEST SWAP2 SWAP1 SWAP2 PUSH1 0x1 DUP1 PUSH1 0xA0 SHL SUB AND DUP1 PUSH0 MSTORE PUSH1 0x1 PUSH1 0x20 MSTORE PUSH1 0x40 PUSH0 KECCAK256 DUP4 PUSH0 MSTORE PUSH1 0x20 MSTORE PUSH1 0x40 PUSH0 KECCAK256 DUP1 SLOAD SWAP1 DUP4 DUP3 SUB SWAP2 DUP3 GT PUSH2 0x6DD JUMPI SSTORE PUSH1 0x40 DUP1 MLOAD CALLER DUP2 MSTORE PUSH1 0x20 DUP2 ADD SWAP4 SWAP1 SWAP4 MSTORE PUSH0 SWAP3 PUSH0 MLOAD PUSH1 0x20 PUSH2 0x3B43 PUSH0 CODECOPY PUSH0 MLOAD SWAP1 PUSH0 MSTORE SWAP2 DUP2 SWAP1 DUP2 ADD JUMPDEST SUB SWAP1 LOG4 JUMP JUMPDEST SWAP1 PUSH1 0xF SIGNEXTEND SWAP1 PUSH1 0xF SIGNEXTEND ADD SWAP1 PUSH1 0x1 PUSH1 0x1 PUSH1 0x7F SHL SUB NOT DUP3 SLT PUSH1 0x1 PUSH1 0x1 PUSH1 0x7F SHL SUB DUP4 SGT OR PUSH2 0x6DD JUMPI JUMP JUMPDEST SWAP1 SWAP2 DUP2 PUSH0 MSTORE PUSH1 0x6 PUSH1 0x20 MSTORE PUSH1 0x1 PUSH1 0x1 PUSH1 0x80 SHL SUB PUSH2 0x2D0C PUSH2 0x2D02 PUSH1 0x40 PUSH0 KECCAK256 SLOAD SWAP6 DUP4 DUP8 AND PUSH1 0xF SIGNEXTEND PUSH2 0x2CB3 JUMP JUMPDEST SWAP3 DUP6 PUSH1 0x80 SAR PUSH2 0x2CB3 JUMP JUMPDEST DUP2 NOT SWAP1 PUSH1 0x80 SHL AND SWAP2 AND OR SWAP2 DUP3 SUB PUSH2 0x2D21 JUMPI POP POP JUMP JUMPDEST PUSH0 MSTORE PUSH1 0x6 PUSH1 0x20 MSTORE PUSH1 0x40 PUSH0 KECCAK256 SSTORE JUMP JUMPDEST SWAP1 SWAP4 SWAP2 DUP3 DUP2 PUSH2 0x2D4F JUMPI JUMPDEST POP POP POP DUP2 PUSH2 0x2D46 JUMPI POP POP POP JUMP JUMPDEST PUSH2 0x1EE SWAP3 PUSH2 0x3250 JUMP JUMPDEST PUSH2 0x2D58 SWAP3 PUSH2 0x3250 JUMP JUMPDEST PUSH0 DUP1 DUP3 PUSH2 0x2D39 JUMP JUMPDEST SWAP3 DUP2 PUSH2 0x2D6C JUMPI POP POP POP POP JUMP JUMPDEST PUSH2 0x2D75 SWAP4 PUSH2 0x3357 JUMP JUMPDEST PUSH0 DUP1 DUP1 DUP1 PUSH2 0x1F8E JUMP JUMPDEST SWAP2 DUP2 PUSH2 0x2D46 JUMPI POP POP POP JUMP JUMPDEST SWAP2 SWAP4 SWAP1 SWAP4 DUP6 DUP2 PUSH2 0x2E5F JUMPI JUMPDEST POP POP POP POP DUP1 ISZERO SWAP2 DUP3 ISZERO PUSH2 0x2DA7 JUMPI POP POP POP POP JUMP JUMPDEST PUSH1 0x1 PUSH1 0x1 PUSH1 0xA0 SHL SUB AND DUP1 PUSH2 0x2DC1 JUMPI POP POP PUSH2 0x2D75 SWAP2 POP PUSH2 0x3316 JUMP JUMPDEST PUSH1 0x20 SWAP3 POP PUSH2 0x2E10 SWAP4 PUSH2 0x2DD3 PUSH1 0x1 PUSH2 0x32D7 JUMP JUMPDEST PUSH1 0x40 MLOAD PUSH4 0x23B872DD PUSH1 0xE0 SHL DUP2 MSTORE PUSH1 0x1 PUSH1 0x1 PUSH1 0xA0 SHL SUB SWAP1 SWAP2 AND PUSH1 0x4 DUP3 ADD MSTORE ADDRESS PUSH1 0x24 DUP3 ADD MSTORE PUSH1 0x44 DUP2 ADD SWAP3 SWAP1 SWAP3 MSTORE SWAP1 SWAP3 DUP4 SWAP2 SWAP1 DUP3 SWAP1 PUSH0 SWAP1 DUP3 SWAP1 PUSH1 0x64 DUP3 ADD SWAP1 JUMP JUMPDEST SUB SWAP3 GAS CALL DUP1 ISZERO PUSH2 0x1E04 JUMPI PUSH2 0x2E2B SWAP2 PUSH0 SWAP2 PUSH2 0x2E30 JUMPI JUMPDEST POP PUSH2 0x320C JUMP JUMPDEST PUSH2 0x2D75 JUMP JUMPDEST PUSH2 0x2E52 SWAP2 POP PUSH1 0x20 RETURNDATASIZE PUSH1 0x20 GT PUSH2 0x2E58 JUMPI JUMPDEST PUSH2 0x2E4A DUP2 DUP4 PUSH2 0x2C3 JUMP JUMPDEST DUP2 ADD SWAP1 PUSH2 0x31F7 JUMP JUMPDEST PUSH0 PUSH2 0x2E25 JUMP JUMPDEST POP RETURNDATASIZE PUSH2 0x2E40 JUMP JUMPDEST PUSH2 0x2E68 SWAP4 PUSH2 0x3357 JUMP JUMPDEST PUSH0 DUP1 DUP1 DUP6 PUSH2 0x2D94 JUMP JUMPDEST SWAP1 DUP1 PUSH2 0x2E7C JUMPI POP POP POP JUMP JUMPDEST PUSH2 0x1EE SWAP3 PUSH0 SWAP3 PUSH2 0x3357 JUMP JUMPDEST PUSH1 0x1 PUSH1 0x1 PUSH1 0x80 SHL SUB SWAP3 SWAP4 PUSH0 EQ PUSH2 0x2EBA JUMPI POP AND SWAP1 DUP1 DUP3 LT PUSH2 0x2EA5 JUMPI POP POP JUMP JUMPDEST PUSH4 0x1735867 PUSH1 0xE0 SHL PUSH0 MSTORE PUSH1 0x4 MSTORE PUSH1 0x24 MSTORE PUSH1 0x44 PUSH0 REVERT JUMPDEST SWAP1 POP AND SWAP1 DUP1 DUP3 LT PUSH2 0x2EC9 JUMPI POP POP JUMP JUMPDEST PUSH4 0x68580A19 PUSH1 0xE0 SHL PUSH0 MSTORE PUSH1 0x4 MSTORE PUSH1 0x24 MSTORE PUSH1 0x44 PUSH0 REVERT JUMPDEST PUSH1 0x1 PUSH1 0x1 PUSH1 0x80 SHL SUB PUSH8 0xDE0B6B3A7640000 SWAP2 AND MUL SWAP1 PUSH1 0x1 PUSH1 0x1 PUSH1 0x80 SHL SUB DUP3 AND SWAP2 DUP3 SUB PUSH2 0x6DD JUMPI JUMP JUMPDEST SWAP3 SWAP5 SWAP4 SWAP2 SWAP1 SWAP4 DUP3 PUSH0 MSTORE PUSH1 0x5 PUSH1 0x20 MSTORE PUSH1 0x40 PUSH0 KECCAK256 SLOAD ISZERO PUSH0 EQ PUSH2 0x2F46 JUMPI POP POP POP PUSH2 0x2F2D SWAP3 POP PUSH2 0x20C5 JUMP JUMPDEST SWAP1 JUMPDEST DUP2 ISZERO PUSH2 0x2F37 JUMPI JUMP JUMPDEST PUSH4 0x283EEADF PUSH1 0xE0 SHL PUSH0 MSTORE PUSH1 0x4 PUSH0 REVERT JUMPDEST SWAP1 SWAP3 SWAP2 SWAP4 PUSH8 0xDE0B6B3A7640000 DUP2 MUL SWAP1 DUP1 DUP3 DIV PUSH8 0xDE0B6B3A7640000 EQ SWAP1 ISZERO OR ISZERO PUSH2 0x6DD JUMPI DUP2 PUSH2 0x2F75 SWAP2 PUSH2 0x27F7 JUMP JUMPDEST DUP3 ADD DUP1 SWAP3 GT PUSH2 0x6DD JUMPI PUSH2 0x2FB6 PUSH2 0x14A2 SWAP4 PUSH1 0x1 PUSH1 0x1 PUSH1 0x80 SHL SUB PUSH2 0x2FAF PUSH2 0x2FC6 SWAP5 PUSH2 0x14A2 PUSH2 0x2FA3 PUSH2 0x2FCD SWAP12 PUSH2 0x2EDE JUMP JUMPDEST PUSH1 0x1 PUSH1 0x1 PUSH1 0x80 SHL SUB AND SWAP1 JUMP JUMPDEST SWAP2 AND PUSH2 0x20C5 JUMP JUMPDEST SWAP4 PUSH1 0x5 SWAP1 PUSH0 MSTORE PUSH1 0x20 MSTORE PUSH1 0x40 PUSH0 KECCAK256 SWAP1 JUMP JUMPDEST SLOAD SWAP1 PUSH2 0x27E4 JUMP JUMPDEST SWAP1 PUSH2 0x2F2F JUMP JUMPDEST SWAP2 SWAP1 SWAP2 PUSH1 0x1 DUP1 PUSH1 0xA0 SHL SUB AND SWAP1 DUP2 PUSH0 MSTORE PUSH1 0x1 PUSH1 0x20 MSTORE PUSH1 0x40 PUSH0 KECCAK256 DUP4 PUSH0 MSTORE PUSH1 0x20 MSTORE PUSH1 0x40 PUSH0 KECCAK256 DUP1 SLOAD SWAP1 DUP3 DUP3 ADD DUP1 SWAP3 GT PUSH2 0x6DD JUMPI SSTORE PUSH1 0x40 DUP1 MLOAD CALLER DUP2 MSTORE PUSH1 0x20 DUP2 ADD SWAP3 SWAP1 SWAP3 MSTORE PUSH0 SWAP2 PUSH0 MLOAD PUSH1 0x20 PUSH2 0x3B43 PUSH0 CODECOPY PUSH0 MLOAD SWAP1 PUSH0 MSTORE SWAP2 DUP2 SWAP1 DUP2 ADD PUSH2 0x2CAE JUMP JUMPDEST PUSH1 0x1F DUP3 MLOAD DUP1 DUP4 TSTORE ADD PUSH1 0x5 SHR SWAP2 PUSH0 JUMPDEST DUP4 DUP2 LT PUSH2 0x3047 JUMPI POP POP POP POP JUMP JUMPDEST DUP1 PUSH1 0x20 PUSH1 0x1 SWAP3 PUSH1 0x5 SHL DUP5 ADD ADD MLOAD DUP3 DUP3 DUP7 ADD ADD TSTORE ADD PUSH2 0x303A JUMP JUMPDEST SWAP1 CALLDATALOAD SWAP1 PUSH1 0x1E NOT DUP2 CALLDATASIZE SUB ADD DUP3 SLT ISZERO PUSH2 0x1DF JUMPI ADD DUP1 CALLDATALOAD SWAP1 PUSH1 0x1 PUSH1 0x1 PUSH1 0x40 SHL SUB DUP3 GT PUSH2 0x1DF JUMPI PUSH1 0x20 ADD SWAP2 DUP2 PUSH1 0x5 SHL CALLDATASIZE SUB DUP4 SGT PUSH2 0x1DF JUMPI JUMP JUMPDEST ISZERO PUSH2 0x309C JUMPI JUMP JUMPDEST PUSH1 0x40 MLOAD PUSH3 0x461BCD PUSH1 0xE5 SHL DUP2 MSTORE PUSH1 0x20 PUSH1 0x4 DUP3 ADD MSTORE PUSH1 0x11 PUSH1 0x24 DUP3 ADD MSTORE PUSH17 0x4D69736D61746368656420617272617973 PUSH1 0x78 SHL PUSH1 0x44 DUP3 ADD MSTORE PUSH1 0x64 SWAP1 REVERT JUMPDEST CALLDATALOAD PUSH2 0x390 DUP2 PUSH2 0x1CE JUMP JUMPDEST SWAP1 ISZERO PUSH2 0x1805 JUMPI SWAP1 JUMP JUMPDEST SWAP2 SWAP1 DUP2 LT ISZERO PUSH2 0x1805 JUMPI PUSH1 0x5 SHL ADD SWAP1 JUMP JUMPDEST CALLDATALOAD PUSH2 0x390 DUP2 PUSH2 0x3A8 JUMP JUMPDEST CALLDATALOAD PUSH2 0x390 DUP2 PUSH2 0x393 JUMP JUMPDEST SWAP6 SWAP5 SWAP4 SWAP3 SWAP2 SWAP1 PUSH1 0x60 DUP8 ADD PUSH2 0x3120 DUP2 DUP10 PUSH2 0x3060 JUMP JUMPDEST SWAP1 POP ISZERO PUSH2 0x31C4 JUMPI PUSH2 0x314C PUSH2 0x3137 PUSH1 0x80 DUP11 ADD DUP11 PUSH2 0x3060 JUMP JUMPDEST SWAP1 POP PUSH2 0x3143 DUP4 DUP12 PUSH2 0x3060 JUMP JUMPDEST SWAP2 SWAP1 POP EQ PUSH2 0x3095 JUMP JUMPDEST PUSH1 0x1 PUSH2 0x3158 DUP3 DUP11 PUSH2 0x3060 JUMP JUMPDEST SWAP1 POP EQ PUSH0 EQ PUSH2 0x31B6 JUMPI DUP8 PUSH2 0x316E PUSH2 0x390 SWAP10 PUSH2 0x30D5 JUMP JUMPDEST SWAP2 PUSH2 0x317B PUSH1 0x20 DUP4 ADD PUSH2 0x30D5 JUMP JUMPDEST PUSH2 0x31AE PUSH1 0xA0 PUSH2 0x31A7 PUSH2 0x31A2 PUSH2 0x319C PUSH2 0x3195 PUSH1 0x40 DUP10 ADD PUSH2 0x30D5 JUMP JUMPDEST SWAP7 DUP9 PUSH2 0x3060 JUMP JUMPDEST SWAP1 PUSH2 0x30DF JUMP JUMPDEST PUSH2 0x30F8 JUMP JUMPDEST SWAP5 ADD PUSH2 0x3102 JUMP JUMPDEST SWAP4 PUSH1 0x5 PUSH2 0x3850 JUMP JUMPDEST POP SWAP1 POP PUSH2 0x390 SWAP6 PUSH1 0x5 PUSH2 0x34A7 JUMP JUMPDEST PUSH1 0x40 MLOAD PUSH3 0x461BCD PUSH1 0xE5 SHL DUP2 MSTORE PUSH1 0x20 PUSH1 0x4 DUP3 ADD MSTORE PUSH1 0xB PUSH1 0x24 DUP3 ADD MSTORE PUSH11 0x4E6F206D61726B696E6773 PUSH1 0xA8 SHL PUSH1 0x44 DUP3 ADD MSTORE PUSH1 0x64 SWAP1 REVERT JUMPDEST SWAP1 DUP2 PUSH1 0x20 SWAP2 SUB SLT PUSH2 0x1DF JUMPI MLOAD PUSH2 0x390 DUP2 PUSH2 0x393 JUMP JUMPDEST ISZERO PUSH2 0x3213 JUMPI JUMP JUMPDEST PUSH1 0x40 MLOAD PUSH3 0x461BCD PUSH1 0xE5 SHL DUP2 MSTORE PUSH1 0x20 PUSH1 0x4 DUP3 ADD MSTORE PUSH1 0x15 PUSH1 0x24 DUP3 ADD MSTORE PUSH21 0x115490CC8C081D1C985B9CD9995C8819985A5B1959 PUSH1 0x5A SHL PUSH1 0x44 DUP3 ADD MSTORE PUSH1 0x64 SWAP1 REVERT JUMPDEST PUSH1 0x1 PUSH1 0x1 PUSH1 0xA0 SHL SUB AND DUP1 PUSH2 0x328A JUMPI POP PUSH0 DUP1 DUP1 SWAP4 DUP2 SWAP4 DUP3 SWAP1 DUP3 ISZERO PUSH2 0x3280 JUMPI JUMPDEST PUSH1 0x1 PUSH1 0x1 PUSH1 0xA0 SHL SUB AND SWAP1 CALL ISZERO PUSH2 0x1E04 JUMPI JUMP JUMPDEST PUSH2 0x8FC SWAP2 POP PUSH2 0x326E JUMP JUMPDEST PUSH1 0x40 MLOAD PUSH4 0xA9059CBB PUSH1 0xE0 SHL DUP2 MSTORE PUSH1 0x1 PUSH1 0x1 PUSH1 0xA0 SHL SUB SWAP1 SWAP3 AND PUSH1 0x4 DUP4 ADD MSTORE PUSH1 0x24 DUP3 ADD SWAP3 SWAP1 SWAP3 MSTORE SWAP1 PUSH1 0x20 SWAP1 DUP3 SWAP1 DUP2 PUSH0 DUP2 PUSH1 0x44 DUP2 ADD JUMPDEST SUB SWAP3 GAS CALL DUP1 ISZERO PUSH2 0x1E04 JUMPI PUSH2 0x1EE SWAP2 PUSH0 SWAP2 PUSH2 0x2E30 JUMPI POP PUSH2 0x320C JUMP JUMPDEST ISZERO PUSH2 0x32DE JUMPI JUMP JUMPDEST PUSH1 0x40 MLOAD PUSH3 0x461BCD PUSH1 0xE5 SHL DUP2 MSTORE PUSH1 0x20 PUSH1 0x4 DUP3 ADD MSTORE PUSH1 0x10 PUSH1 0x24 DUP3 ADD MSTORE PUSH16 0x115512081B9BDD08195E1C1958DD1959 PUSH1 0x82 SHL PUSH1 0x44 DUP3 ADD MSTORE PUSH1 0x64 SWAP1 REVERT JUMPDEST ISZERO PUSH2 0x331D JUMPI JUMP JUMPDEST PUSH1 0x40 MLOAD PUSH3 0x461BCD PUSH1 0xE5 SHL DUP2 MSTORE PUSH1 0x20 PUSH1 0x4 DUP3 ADD MSTORE PUSH1 0x12 PUSH1 0x24 DUP3 ADD MSTORE PUSH18 0x125B98DBDC9C9958DD08115512081CD95B9D PUSH1 0x72 SHL PUSH1 0x44 DUP3 ADD MSTORE PUSH1 0x64 SWAP1 REVERT JUMPDEST SWAP1 SWAP3 SWAP1 PUSH1 0x1 PUSH1 0x1 PUSH1 0xA0 SHL SUB AND DUP1 PUSH2 0x3374 JUMPI POP PUSH2 0x1EE SWAP3 POP EQ PUSH2 0x3316 JUMP JUMPDEST PUSH2 0x32BD SWAP4 PUSH2 0x2DD3 PUSH1 0x20 SWAP5 SWAP4 ISZERO PUSH2 0x32D7 JUMP JUMPDEST SWAP2 SWAP1 SWAP2 PUSH1 0x40 DUP2 DUP5 SUB SLT PUSH2 0x1DF JUMPI DUP1 MLOAD PUSH1 0x1 PUSH1 0x1 PUSH1 0x40 SHL SUB DUP2 GT PUSH2 0x1DF JUMPI DUP4 PUSH2 0x33AE SWAP2 DUP4 ADD PUSH2 0x1861 JUMP JUMPDEST SWAP3 PUSH1 0x20 DUP3 ADD MLOAD PUSH1 0x1 PUSH1 0x1 PUSH1 0x40 SHL SUB DUP2 GT PUSH2 0x1DF JUMPI PUSH2 0x390 SWAP3 ADD PUSH2 0x1861 JUMP JUMPDEST SWAP1 PUSH1 0x20 DUP1 DUP4 MLOAD SWAP3 DUP4 DUP2 MSTORE ADD SWAP3 ADD SWAP1 PUSH0 JUMPDEST DUP2 DUP2 LT PUSH2 0x33E9 JUMPI POP POP POP SWAP1 JUMP JUMPDEST DUP3 MLOAD PUSH1 0x1 PUSH1 0x1 PUSH1 0xE8 SHL SUB NOT AND DUP5 MSTORE PUSH1 0x20 SWAP4 DUP5 ADD SWAP4 SWAP1 SWAP3 ADD SWAP2 PUSH1 0x1 ADD PUSH2 0x33DC JUMP JUMPDEST DUP1 MLOAD PUSH1 0x1 PUSH1 0x1 PUSH1 0xA0 SHL SUB SWAP1 DUP2 AND DUP4 MSTORE PUSH1 0x20 DUP1 DUP4 ADD MLOAD DUP3 AND SWAP1 DUP5 ADD MSTORE PUSH1 0x40 DUP1 DUP4 ADD MLOAD SWAP1 SWAP2 AND SWAP1 DUP4 ADD MSTORE PUSH1 0x60 DUP1 DUP3 ADD MLOAD PUSH1 0xC0 SWAP2 DUP5 ADD DUP3 SWAP1 MSTORE PUSH2 0x390 SWAP4 SWAP2 PUSH1 0xA0 SWAP2 PUSH2 0x3453 SWAP2 DUP5 ADD SWAP1 PUSH2 0x59D JUMP JUMPDEST SWAP3 PUSH1 0x80 DUP2 ADD MLOAD ISZERO ISZERO PUSH1 0x80 DUP5 ADD MSTORE ADD MLOAD SWAP1 PUSH1 0xA0 DUP2 DUP5 SUB SWAP2 ADD MSTORE PUSH2 0x33CC JUMP JUMPDEST SWAP2 PUSH2 0x3499 SWAP1 PUSH2 0x348B PUSH2 0x390 SWAP6 SWAP4 PUSH1 0x60 DUP7 MSTORE PUSH1 0x60 DUP7 ADD SWAP1 PUSH2 0x3409 JUMP JUMPDEST SWAP1 DUP5 DUP3 SUB PUSH1 0x20 DUP7 ADD MSTORE PUSH2 0x18E3 JUMP JUMPDEST SWAP2 PUSH1 0x40 DUP2 DUP5 SUB SWAP2 ADD MSTORE PUSH2 0x18E3 JUMP JUMPDEST SWAP7 SWAP5 SWAP6 SWAP1 SWAP3 SWAP4 SWAP2 SWAP7 PUSH1 0x60 DUP5 ADD SWAP8 DUP8 PUSH2 0x34BF DUP11 DUP8 PUSH2 0x3060 JUMP JUMPDEST SWAP8 SWAP1 POP PUSH2 0x381A JUMPI JUMPDEST POP POP PUSH2 0x34D2 DUP6 PUSH2 0x17B2 JUMP JUMPDEST SWAP2 PUSH2 0x34DC DUP7 PUSH2 0x17B2 JUMP JUMPDEST SWAP1 PUSH0 JUMPDEST DUP8 DUP2 LT PUSH2 0x3784 JUMPI POP DUP2 PUSH0 SWAP2 DUP6 DUP4 DUP10 PUSH2 0x35A3 PUSH2 0x35C5 SWAP14 SWAP15 SWAP16 PUSH2 0x3577 PUSH2 0x359C PUSH2 0x3505 DUP6 PUSH2 0x30D5 JUMP JUMPDEST SWAP5 PUSH2 0x358E PUSH2 0x3515 PUSH1 0x20 DUP4 ADD PUSH2 0x30D5 JUMP JUMPDEST SWAP5 PUSH2 0x354A PUSH2 0x3587 PUSH2 0x3528 PUSH1 0x40 DUP7 ADD PUSH2 0x30D5 JUMP JUMPDEST PUSH2 0x3535 PUSH1 0x80 DUP8 ADD DUP8 PUSH2 0x3060 JUMP JUMPDEST SWAP4 SWAP1 SWAP5 PUSH2 0x3544 PUSH1 0xA0 DUP10 ADD PUSH2 0x3102 JUMP JUMPDEST SWAP8 PUSH2 0x3060 JUMP JUMPDEST SWAP9 SWAP1 SWAP10 PUSH2 0x3567 PUSH2 0x3558 PUSH2 0x2E4 JUMP JUMPDEST PUSH1 0x1 PUSH1 0x1 PUSH1 0xA0 SHL SUB SWAP1 SWAP15 AND DUP15 MSTORE JUMP JUMPDEST PUSH1 0x1 PUSH1 0x1 PUSH1 0xA0 SHL SUB AND PUSH1 0x20 DUP14 ADD MSTORE JUMP JUMPDEST PUSH1 0x1 PUSH1 0x1 PUSH1 0xA0 SHL SUB AND PUSH1 0x40 DUP12 ADD MSTORE JUMP JUMPDEST CALLDATASIZE SWAP2 PUSH2 0x329 JUMP JUMPDEST PUSH1 0x60 DUP8 ADD MSTORE ISZERO ISZERO PUSH1 0x80 DUP7 ADD MSTORE JUMP JUMPDEST CALLDATASIZE SWAP2 PUSH2 0x3BA JUMP JUMPDEST PUSH1 0xA0 DUP3 ADD MSTORE PUSH1 0x40 MLOAD PUSH4 0x27B8F7B PUSH1 0xE1 SHL DUP2 MSTORE SWAP13 DUP14 SWAP6 DUP7 SWAP5 DUP6 SWAP4 PUSH1 0x4 DUP6 ADD PUSH2 0x3470 JUMP JUMPDEST SUB SWAP3 PUSH1 0x1 PUSH1 0x1 PUSH1 0xA0 SHL SUB AND GAS CALL SWAP1 DUP2 ISZERO PUSH2 0x1E04 JUMPI PUSH0 SWAP8 PUSH0 SWAP3 PUSH2 0x375D JUMPI JUMPDEST POP PUSH0 JUMPDEST DUP8 DUP2 LT PUSH2 0x3661 JUMPI POP POP POP POP POP SWAP1 PUSH2 0x360E SWAP5 SWAP6 PUSH2 0x3608 SWAP4 SWAP3 PUSH2 0x3612 JUMPI JUMPDEST POP POP PUSH2 0x20AA JUMP JUMPDEST SWAP1 PUSH2 0x180A JUMP JUMPDEST MLOAD SWAP1 JUMP JUMPDEST DUP2 PUSH2 0x3622 PUSH1 0xA0 PUSH2 0x364C SWAP5 ADD PUSH2 0x3102 JUMP JUMPDEST ISZERO PUSH2 0x3653 JUMPI PUSH1 0x20 PUSH2 0x3633 SWAP2 ADD PUSH2 0x30D5 JUMP JUMPDEST PUSH2 0x3645 PUSH2 0x363F DUP6 PUSH2 0x20AA JUMP JUMPDEST DUP8 PUSH2 0x180A JUMP JUMPDEST MLOAD SWAP1 PUSH2 0x2D7E JUMP JUMPDEST PUSH0 DUP1 PUSH2 0x3601 JUMP JUMPDEST PUSH2 0x365C SWAP1 PUSH2 0x30D5 JUMP JUMPDEST PUSH2 0x3633 JUMP JUMPDEST DUP1 PUSH2 0x3723 DUP11 DUP10 PUSH2 0x368B DUP5 PUSH2 0x3684 PUSH1 0x1 SWAP8 PUSH2 0x367E PUSH1 0x80 DUP7 ADD DUP7 PUSH2 0x3060 JUMP JUMPDEST SWAP1 PUSH2 0x30E8 JUMP JUMPDEST CALLDATALOAD SWAP4 PUSH2 0x180A JUMP JUMPDEST MLOAD PUSH2 0x36C9 PUSH2 0x36A9 PUSH2 0x369C DUP8 DUP14 PUSH2 0x180A JUMP JUMPDEST MLOAD PUSH1 0x1 PUSH1 0x1 PUSH1 0x80 SHL SUB AND SWAP1 JUMP JUMPDEST DUP3 PUSH2 0x36B7 PUSH2 0x369C DUP10 DUP13 PUSH2 0x180A JUMP JUMPDEST PUSH2 0x36C3 PUSH1 0xA0 DUP8 ADD PUSH2 0x3102 JUMP JUMPDEST SWAP3 PUSH2 0x2E87 JUMP JUMPDEST PUSH2 0x36D3 DUP6 DUP10 PUSH2 0x180A JUMP JUMPDEST MLOAD SWAP3 PUSH2 0x36E1 PUSH1 0xA0 DUP5 ADD PUSH2 0x3102 JUMP JUMPDEST ISZERO PUSH2 0x373D JUMPI PUSH2 0x3700 PUSH1 0xA0 PUSH1 0x1 PUSH1 0x1 PUSH1 0x80 SHL SUB DUP4 AND PUSH1 0xF SIGNEXTEND SWAP5 JUMPDEST ADD PUSH2 0x3102 JUMP JUMPDEST ISZERO PUSH2 0x3729 JUMPI POP PUSH1 0x1 PUSH1 0x1 PUSH1 0x80 SHL SUB PUSH2 0x371B SWAP2 AND PUSH1 0xF SIGNEXTEND PUSH2 0x2815 JUMP JUMPDEST SWAP2 JUMPDEST DUP9 PUSH2 0x396B JUMP JUMPDEST ADD PUSH2 0x35E5 JUMP JUMPDEST PUSH1 0x1 PUSH1 0x1 PUSH1 0x80 SHL SUB SWAP2 POP AND PUSH1 0xF SIGNEXTEND SWAP2 PUSH2 0x371D JUMP JUMPDEST PUSH2 0x3700 PUSH1 0xA0 PUSH2 0x3757 PUSH1 0x1 PUSH1 0x1 PUSH1 0x80 SHL SUB DUP6 AND PUSH1 0xF SIGNEXTEND PUSH2 0x2815 JUMP JUMPDEST SWAP5 PUSH2 0x36FA JUMP JUMPDEST SWAP1 SWAP8 POP PUSH2 0x377C SWAP2 POP RETURNDATASIZE DUP1 PUSH0 DUP4 RETURNDATACOPY PUSH2 0x3774 DUP2 DUP4 PUSH2 0x2C3 JUMP JUMPDEST DUP2 ADD SWAP1 PUSH2 0x3385 JUMP JUMPDEST SWAP1 SWAP7 PUSH0 PUSH2 0x35E2 JUMP JUMPDEST PUSH1 0x1 SWAP1 PUSH2 0x3814 PUSH2 0x380A PUSH2 0x37EF PUSH2 0x37CE DUP16 DUP13 PUSH2 0x379E DUP2 PUSH2 0x30D5 JUMP JUMPDEST SWAP2 PUSH2 0x37C8 PUSH2 0x31A2 DUP10 PUSH2 0x367E PUSH2 0x37B5 PUSH1 0x20 DUP8 ADD PUSH2 0x30D5 JUMP JUMPDEST SWAP5 PUSH2 0x37C2 PUSH1 0x40 DUP9 ADD PUSH2 0x30D5 JUMP JUMPDEST SWAP7 PUSH2 0x3060 JUMP JUMPDEST SWAP3 PUSH2 0x2977 JUMP JUMPDEST DUP9 PUSH1 0x1 SWAP2 PUSH0 MSTORE ADD PUSH1 0x20 MSTORE PUSH1 0x40 PUSH0 KECCAK256 SLOAD SWAP1 PUSH1 0x1 PUSH1 0x1 PUSH1 0x80 SHL SUB DUP3 AND SWAP2 PUSH1 0x80 SHR SWAP1 JUMP JUMPDEST PUSH2 0x37FC DUP6 DUP10 SWAP5 SWAP4 SWAP5 PUSH2 0x180A JUMP JUMPDEST SWAP1 PUSH1 0x1 PUSH1 0x1 PUSH1 0x80 SHL SUB AND SWAP1 MSTORE JUMP JUMPDEST PUSH2 0x37FC DUP4 DUP10 PUSH2 0x180A JUMP JUMPDEST ADD PUSH2 0x34DF JUMP JUMPDEST PUSH2 0x383D SWAP2 PUSH2 0x382A PUSH1 0xA0 DUP9 ADD PUSH2 0x3102 JUMP JUMPDEST ISZERO PUSH2 0x3844 JUMPI PUSH2 0x3838 DUP8 PUSH2 0x30D5 JUMP JUMPDEST PUSH2 0x2E71 JUMP JUMPDEST PUSH0 DUP8 PUSH2 0x34C7 JUMP JUMPDEST PUSH2 0x3838 PUSH1 0x20 DUP9 ADD PUSH2 0x30D5 JUMP JUMPDEST SWAP3 SWAP1 SWAP6 SWAP2 SWAP7 SWAP5 DUP1 SWAP13 SWAP12 DUP2 SWAP12 SWAP11 SWAP7 SWAP10 SWAP6 SWAP10 DUP12 PUSH2 0x386D DUP13 DUP7 DUP14 DUP14 PUSH2 0x2977 JUMP JUMPDEST SWAP8 ISZERO PUSH2 0x3964 JUMPI PUSH2 0x3884 SWAP2 DUP5 ISZERO PUSH2 0x395D JUMPI DUP7 DUP12 PUSH2 0x2D60 JUMP JUMPDEST DUP9 DUP9 DUP6 PUSH2 0x38AC DUP10 DUP10 PUSH1 0x1 SWAP2 PUSH0 MSTORE ADD PUSH1 0x20 MSTORE PUSH1 0x40 PUSH0 KECCAK256 SLOAD SWAP1 PUSH1 0x1 PUSH1 0x1 PUSH1 0x80 SHL SUB DUP3 AND SWAP2 PUSH1 0x80 SHR SWAP1 JUMP JUMPDEST SWAP14 DUP2 SWAP8 DUP16 SWAP6 PUSH2 0x38BC SWAP9 SWAP4 SWAP6 PUSH2 0x3A09 JUMP JUMPDEST SWAP12 DUP13 DUP1 SWAP10 PUSH2 0x38C9 SWAP4 PUSH2 0x2E87 JUMP JUMPDEST PUSH2 0x3904 SWAP3 DUP10 ISZERO PUSH2 0x3942 JUMPI PUSH1 0x1 PUSH1 0x1 PUSH1 0x80 SHL SUB DUP3 AND PUSH1 0xF SIGNEXTEND SWAP2 JUMPDEST DUP11 ISZERO PUSH2 0x3930 JUMPI POP PUSH2 0x38FE PUSH1 0x1 PUSH1 0x1 PUSH1 0x80 SHL SUB DUP10 AND PUSH1 0xF SIGNEXTEND PUSH2 0x2815 JUMP JUMPDEST SWAP3 PUSH2 0x396B JUMP JUMPDEST PUSH2 0x3910 JUMPI JUMPDEST POP POP POP POP POP JUMP JUMPDEST PUSH2 0x391F SWAP5 ISZERO PUSH2 0x3929 JUMPI POP PUSH2 0x2D7E JUMP JUMPDEST PUSH0 DUP1 DUP4 DUP2 DUP1 PUSH2 0x3909 JUMP JUMPDEST SWAP1 POP PUSH2 0x2D7E JUMP JUMPDEST PUSH1 0x1 PUSH1 0x1 PUSH1 0x80 SHL SUB AND PUSH1 0xF SIGNEXTEND SWAP3 PUSH2 0x396B JUMP JUMPDEST PUSH2 0x3957 PUSH1 0x1 PUSH1 0x1 PUSH1 0x80 SHL SUB DUP10 AND PUSH1 0xF SIGNEXTEND PUSH2 0x2815 JUMP JUMPDEST SWAP2 PUSH2 0x38E2 JUMP JUMPDEST DUP7 DUP13 PUSH2 0x2D60 JUMP JUMPDEST POP POP PUSH2 0x3884 JUMP JUMPDEST PUSH1 0x1 SWAP1 SWAP4 SWAP3 SWAP4 ADD SWAP2 DUP2 PUSH0 MSTORE DUP3 PUSH1 0x20 MSTORE PUSH1 0x1 PUSH1 0x1 PUSH1 0x80 SHL SUB PUSH2 0x39A3 PUSH2 0x3999 PUSH1 0x40 PUSH0 KECCAK256 SLOAD SWAP7 DUP4 DUP9 AND PUSH1 0xF SIGNEXTEND PUSH2 0x2CB3 JUMP JUMPDEST SWAP3 DUP7 PUSH1 0x80 SAR PUSH2 0x2CB3 JUMP JUMPDEST DUP2 NOT SWAP1 PUSH1 0x80 SHL AND SWAP2 AND OR SWAP3 DUP4 SUB PUSH2 0x39B9 JUMPI POP POP POP JUMP JUMPDEST PUSH0 MSTORE PUSH1 0x20 MSTORE PUSH1 0x40 PUSH0 KECCAK256 SSTORE JUMP JUMPDEST SWAP2 SWAP1 DUP3 PUSH1 0x40 SWAP2 SUB SLT PUSH2 0x1DF JUMPI PUSH1 0x20 DUP3 MLOAD SWAP3 ADD MLOAD SWAP1 JUMP JUMPDEST SWAP2 SWAP4 SWAP3 PUSH1 0x1 PUSH1 0x1 PUSH1 0x80 SHL SUB SWAP1 DUP2 PUSH2 0x39FC PUSH1 0x40 SWAP5 PUSH1 0x60 DUP8 MSTORE PUSH1 0x60 DUP8 ADD SWAP1 PUSH2 0x3409 JUMP JUMPDEST SWAP7 AND PUSH1 0x20 DUP6 ADD MSTORE AND SWAP2 ADD MSTORE JUMP JUMPDEST PUSH2 0x3AAD SWAP9 SWAP4 PUSH0 SWAP3 PUSH2 0x3A7F PUSH1 0x40 SWAP9 SWAP11 SWAP8 SWAP10 SWAP6 PUSH2 0x3A70 PUSH2 0x3A25 PUSH2 0x1790 JUMP JUMPDEST SWAP4 DUP14 PUSH2 0x3A30 DUP7 PUSH2 0x17F8 JUMP JUMPDEST MSTORE PUSH2 0x3A46 PUSH2 0x3A3C PUSH2 0x1790 JUMP JUMPDEST SWAP7 PUSH2 0x1594 DUP9 PUSH2 0x17F8 JUMP JUMPDEST PUSH2 0x3A60 PUSH2 0x3A51 PUSH2 0x2E4 JUMP JUMPDEST PUSH1 0x1 PUSH1 0x1 PUSH1 0xA0 SHL SUB SWAP1 SWAP9 AND DUP9 MSTORE JUMP JUMPDEST PUSH1 0x1 PUSH1 0x1 PUSH1 0xA0 SHL SUB AND PUSH1 0x20 DUP8 ADD MSTORE JUMP JUMPDEST PUSH1 0x1 PUSH1 0x1 PUSH1 0xA0 SHL SUB AND DUP5 DUP11 ADD MSTORE JUMP JUMPDEST PUSH1 0x60 DUP4 ADD MSTORE DUP8 ISZERO ISZERO PUSH1 0x80 DUP4 ADD MSTORE PUSH1 0xA0 DUP3 ADD MSTORE DUP6 MLOAD PUSH4 0x60A80DBB PUSH1 0xE0 SHL DUP2 MSTORE SWAP9 DUP10 SWAP6 DUP7 SWAP5 DUP6 SWAP4 PUSH1 0x4 DUP6 ADD PUSH2 0x39DB JUMP JUMPDEST SUB SWAP3 PUSH1 0x1 PUSH1 0x1 PUSH1 0xA0 SHL SUB AND GAS CALL SWAP3 DUP4 ISZERO PUSH2 0x1E04 JUMPI PUSH0 SWAP4 PUSH2 0x3B10 JUMPI JUMPDEST POP DUP3 ISZERO PUSH2 0x3AD4 JUMPI POP POP SWAP1 JUMP JUMPDEST SWAP1 SWAP2 POP ISZERO PUSH2 0x3AF6 JUMPI PUSH2 0x3AE8 PUSH2 0x390 SWAP2 PUSH2 0x27C0 JUMP JUMPDEST PUSH8 0xDE0B6B3A7640000 SWAP1 DIV SWAP1 JUMP JUMPDEST PUSH2 0x3B02 PUSH2 0x390 SWAP2 PUSH2 0x279C JUMP JUMPDEST PUSH8 0x120A871CC0020000 SWAP1 DIV SWAP1 JUMP JUMPDEST PUSH2 0x3B33 SWAP2 SWAP4 POP PUSH1 0x40 RETURNDATASIZE PUSH1 0x40 GT PUSH2 0x3B3B JUMPI JUMPDEST PUSH2 0x3B2B DUP2 DUP4 PUSH2 0x2C3 JUMP JUMPDEST DUP2 ADD SWAP1 PUSH2 0x39C5 JUMP JUMPDEST POP SWAP2 PUSH0 PUSH2 0x3AC8 JUMP JUMPDEST POP RETURNDATASIZE PUSH2 0x3B21 JUMP INVALID SHL RETURNDATASIZE PUSH31 0xDB2E9C0B0E7C525B20AAAEF0F5940D2ED71663C7D39266ECAFAC728859A264 PUSH10 0x70667358221220C91559 JUMPI ADDRESS SWAP10 CREATE2 0xCE DUP2 LOG1 MOD 0xB8 CALLER PUSH29 0xFBF0D3A2D8F687571D0CFA14E1D7E87DDBB364736F6C634300081E0033 "},"methodIdentifiers":{"addAlphaMarketAddress(uint8,address)":"460c6df8","addBetaMarketAddress(uint8,address)":"7dc27c95","addLiquidity(address,address,address,bytes3,uint256,uint256)":"e513315b","allowance(address,address,uint256)":"598af9e7","approve(address,uint256,uint256)":"426a8493","balanceOf(address,uint256)":"00fdd58e","batchSwap((address,address,address,bytes3[],uint256[],bool)[],uint256,uint256)":"9d2ec6e4","createPool(address,address,address,bytes3)":"5670f55a","defaultAlpha()":"a1a44dad","defaultBeta()":"19920a5f","getAlphaMarketAddress(uint8)":"d2615fc8","getBetaMarketAddress(uint8)":"83e66c2e","getInventory(uint256)":"5b298d32","getPoolInfo(uint256)":"2f380b35","getQuote((address,address,address,uint256[],bool,bytes3[]),uint128,uint128)":"60a80dbb","getQuoteBatch((address,address,address,uint256[],bool,bytes3[]),uint128[],uint128[])":"04f71ef6","isOperator(address,address)":"b6363cf2","removeAlphaMarketAddress(uint8)":"8e832e08","removeBetaMarketAddress(uint8)":"61408f26","removeLiquidity(address,address,address,bytes3,uint256)":"cb1f2f38","routerGetQuote((address,address,address,uint256[],bool,bytes3[]),uint128,uint128)":"8f155291","routerGetQuoteBatch((address,address,address,uint256[],bool,bytes3[]),uint128[],uint128[])":"c279171d","setOperator(address,bool)":"558a7297","supportsInterface(bytes4)":"01ffc9a7","swap(address,address,address,bytes3,uint256,bool,uint256)":"d92bc84c","totalLiquidity(uint256)":"b5e60c3c","transfer(address,uint256,uint256)":"095bcdb6","transferFrom(address,address,uint256,uint256)":"fe99049a"}}}}}