{"contracts/Peripheral/DataBridges/real/RedstoneDataBridge.sol":{"RedstoneDataBridge":{"abi":[{"inputs":[{"internalType":"address","name":"_adapter","type":"address"},{"internalType":"address[]","name":"tokens","type":"address[]"},{"internalType":"bytes32[]","name":"feedIds","type":"bytes32[]"}],"stateMutability":"nonpayable","type":"constructor"},{"inputs":[],"name":"adapter","outputs":[{"internalType":"address","name":"","type":"address"}],"stateMutability":"view","type":"function"},{"inputs":[{"components":[{"internalType":"address","name":"asset0","type":"address"},{"internalType":"address","name":"asset1","type":"address"},{"internalType":"address","name":"quoter","type":"address"},{"internalType":"uint256","name":"amount","type":"uint256"},{"internalType":"uint128","name":"asset0Balance","type":"uint128"},{"internalType":"uint128","name":"asset1Balance","type":"uint128"},{"internalType":"uint16","name":"bucketID","type":"uint16"},{"internalType":"bool","name":"zeroForOne","type":"bool"}],"internalType":"struct QuoteParams","name":"params","type":"tuple"}],"name":"getData","outputs":[{"internalType":"bytes","name":"","type":"bytes"}],"stateMutability":"view","type":"function"},{"inputs":[{"internalType":"address","name":"","type":"address"}],"name":"tokenToFeedId","outputs":[{"internalType":"bytes32","name":"","type":"bytes32"}],"stateMutability":"view","type":"function"}],"evm":{"bytecode":{"linkReferences":{},"object":"60a06040523461018b5761069a80380380610019816101a7565b92833981019060608183031261018b57610032816101e0565b60208201516001600160401b03811161018b5782019183601f8401121561018b57825192610067610062856101f4565b6101a7565b9360208086838152019160051b8301019186831161018b57602001905b82821061018f575050506040810151906001600160401b03821161018b57019280601f8501121561018b5783516100bd610062826101f4565b9460208087848152019260051b82010192831161018b57602001905b82821061017b57505050815183510361014a576080525f5b815181101561012b57806101076001928561020b565b51828060a01b03610118838661020b565b51165f525f60205260405f2055016100f1565b6040516104669081610234823960805181818161018b01526103b30152f35b60405162461bcd60e51b815260206004820152600960248201526830b634b0b9903632b760b91b6044820152606490fd5b81518152602091820191016100d9565b5f80fd5b6020809161019c846101e0565b815201910190610084565b6040519190601f01601f191682016001600160401b038111838210176101cc57604052565b634e487b7160e01b5f52604160045260245ffd5b51906001600160a01b038216820361018b57565b6001600160401b0381116101cc5760051b60200190565b805182101561021f5760209160051b010190565b634e487b7160e01b5f52603260045260245ffdfe6080806040526004361015610012575f80fd5b5f3560e01c90816303eadcfc146103a1575080633bd1104b14610078576365a544451461003d575f80fd5b34610074576020366003190112610074576001600160a01b0361005e610404565b165f525f602052602060405f2054604051908152f35b5f80fd5b346100745761010036600319011261007457604051610100810181811067ffffffffffffffff82111761038d576040526100b0610404565b808252602435916001600160a01b038316830361007457602081019283526044356001600160a01b038116810361007457604082015260643560608201526084356001600160801b038116810361007457608082015260a4356001600160801b03811681036100745760a082015260c43561ffff811681036100745760c082015260e4359081151582036100745760e001526001600160a01b039081165f908152602081905260408082205493519092168152205481151580610384575b1561034e57604080516301a610e560e61b815260048101939093527f00000000000000000000000000000000000000000000000000000000000000006001600160a01b03169083602481845afa91821561031d575f935f93610328575b5060409060248251809481936301a610e560e61b835260048301525afa91821561031d575f915f936102ea575b5083158015806102e1575b156102b057670de0b6b3a76400008502948504670de0b6b3a764000014171561029c578115610288576040928082101561028157505b8251916020830194048452828201528181526102566060826103e2565b8151928391602083525180918160208501528484015e5f828201840152601f01601f19168101030190f35b9050610239565b634e487b7160e01b5f52601260045260245ffd5b634e487b7160e01b5f52601160045260245ffd5b60405162461bcd60e51b815260206004820152600960248201526862616420707269636560b81b6044820152606490fd5b50821515610203565b90925061030f915060403d604011610316575b61030781836103e2565b81019061041a565b91846101f8565b503d6102fd565b6040513d5f823e3d90fd5b60408095506103449294503d86116103165761030781836103e2565b93909392906101cb565b60405162461bcd60e51b815260206004820152600e60248201526d666565644964206d697373696e6760901b6044820152606490fd5b5080151561016e565b634e487b7160e01b5f52604160045260245ffd5b34610074575f366003190112610074577f00000000000000000000000000000000000000000000000000000000000000006001600160a01b03168152602090f35b90601f8019910116810190811067ffffffffffffffff82111761038d57604052565b600435906001600160a01b038216820361007457565b919082604091031261007457602082519201519056fea26469706673582212200b1fa25a95bea35ef20610ad3b10691d030c9562ad7a263b3e9257f8be07c94264736f6c634300081e0033","opcodes":"PUSH1 0xA0 PUSH1 0x40 MSTORE CALLVALUE PUSH2 0x18B JUMPI PUSH2 0x69A DUP1 CODESIZE SUB DUP1 PUSH2 0x19 DUP2 PUSH2 0x1A7 JUMP JUMPDEST SWAP3 DUP4 CODECOPY DUP2 ADD SWAP1 PUSH1 0x60 DUP2 DUP4 SUB SLT PUSH2 0x18B JUMPI PUSH2 0x32 DUP2 PUSH2 0x1E0 JUMP JUMPDEST PUSH1 0x20 DUP3 ADD MLOAD PUSH1 0x1 PUSH1 0x1 PUSH1 0x40 SHL SUB DUP2 GT PUSH2 0x18B JUMPI DUP3 ADD SWAP2 DUP4 PUSH1 0x1F DUP5 ADD SLT ISZERO PUSH2 0x18B JUMPI DUP3 MLOAD SWAP3 PUSH2 0x67 PUSH2 0x62 DUP6 PUSH2 0x1F4 JUMP JUMPDEST PUSH2 0x1A7 JUMP JUMPDEST SWAP4 PUSH1 0x20 DUP1 DUP7 DUP4 DUP2 MSTORE ADD SWAP2 PUSH1 0x5 SHL DUP4 ADD ADD SWAP2 DUP7 DUP4 GT PUSH2 0x18B JUMPI PUSH1 0x20 ADD SWAP1 JUMPDEST DUP3 DUP3 LT PUSH2 0x18F JUMPI POP POP POP PUSH1 0x40 DUP2 ADD MLOAD SWAP1 PUSH1 0x1 PUSH1 0x1 PUSH1 0x40 SHL SUB DUP3 GT PUSH2 0x18B JUMPI ADD SWAP3 DUP1 PUSH1 0x1F DUP6 ADD SLT ISZERO PUSH2 0x18B JUMPI DUP4 MLOAD PUSH2 0xBD PUSH2 0x62 DUP3 PUSH2 0x1F4 JUMP JUMPDEST SWAP5 PUSH1 0x20 DUP1 DUP8 DUP5 DUP2 MSTORE ADD SWAP3 PUSH1 0x5 SHL DUP3 ADD ADD SWAP3 DUP4 GT PUSH2 0x18B JUMPI PUSH1 0x20 ADD SWAP1 JUMPDEST DUP3 DUP3 LT PUSH2 0x17B JUMPI POP POP POP DUP2 MLOAD DUP4 MLOAD SUB PUSH2 0x14A JUMPI PUSH1 0x80 MSTORE PUSH0 JUMPDEST DUP2 MLOAD DUP2 LT ISZERO PUSH2 0x12B JUMPI DUP1 PUSH2 0x107 PUSH1 0x1 SWAP3 DUP6 PUSH2 0x20B JUMP JUMPDEST MLOAD DUP3 DUP1 PUSH1 0xA0 SHL SUB PUSH2 0x118 DUP4 DUP7 PUSH2 0x20B JUMP JUMPDEST MLOAD AND PUSH0 MSTORE PUSH0 PUSH1 0x20 MSTORE PUSH1 0x40 PUSH0 KECCAK256 SSTORE ADD PUSH2 0xF1 JUMP JUMPDEST PUSH1 0x40 MLOAD PUSH2 0x466 SWAP1 DUP2 PUSH2 0x234 DUP3 CODECOPY PUSH1 0x80 MLOAD DUP2 DUP2 DUP2 PUSH2 0x18B ADD MSTORE PUSH2 0x3B3 ADD MSTORE RETURN JUMPDEST PUSH1 0x40 MLOAD PUSH3 0x461BCD PUSH1 0xE5 SHL DUP2 MSTORE PUSH1 0x20 PUSH1 0x4 DUP3 ADD MSTORE PUSH1 0x9 PUSH1 0x24 DUP3 ADD MSTORE PUSH9 0x30B634B0B9903632B7 PUSH1 0xB9 SHL PUSH1 0x44 DUP3 ADD MSTORE PUSH1 0x64 SWAP1 REVERT JUMPDEST DUP2 MLOAD DUP2 MSTORE PUSH1 0x20 SWAP2 DUP3 ADD SWAP2 ADD PUSH2 0xD9 JUMP JUMPDEST PUSH0 DUP1 REVERT JUMPDEST PUSH1 0x20 DUP1 SWAP2 PUSH2 0x19C DUP5 PUSH2 0x1E0 JUMP JUMPDEST DUP2 MSTORE ADD SWAP2 ADD SWAP1 PUSH2 0x84 JUMP JUMPDEST PUSH1 0x40 MLOAD SWAP2 SWAP1 PUSH1 0x1F ADD PUSH1 0x1F NOT AND DUP3 ADD PUSH1 0x1 PUSH1 0x1 PUSH1 0x40 SHL SUB DUP2 GT DUP4 DUP3 LT OR PUSH2 0x1CC JUMPI PUSH1 0x40 MSTORE JUMP JUMPDEST PUSH4 0x4E487B71 PUSH1 0xE0 SHL PUSH0 MSTORE PUSH1 0x41 PUSH1 0x4 MSTORE PUSH1 0x24 PUSH0 REVERT JUMPDEST MLOAD SWAP1 PUSH1 0x1 PUSH1 0x1 PUSH1 0xA0 SHL SUB DUP3 AND DUP3 SUB PUSH2 0x18B JUMPI JUMP JUMPDEST PUSH1 0x1 PUSH1 0x1 PUSH1 0x40 SHL SUB DUP2 GT PUSH2 0x1CC JUMPI PUSH1 0x5 SHL PUSH1 0x20 ADD SWAP1 JUMP JUMPDEST DUP1 MLOAD DUP3 LT ISZERO PUSH2 0x21F JUMPI PUSH1 0x20 SWAP2 PUSH1 0x5 SHL ADD ADD SWAP1 JUMP JUMPDEST PUSH4 0x4E487B71 PUSH1 0xE0 SHL PUSH0 MSTORE PUSH1 0x32 PUSH1 0x4 MSTORE PUSH1 0x24 PUSH0 REVERT INVALID PUSH1 0x80 DUP1 PUSH1 0x40 MSTORE PUSH1 0x4 CALLDATASIZE LT ISZERO PUSH2 0x12 JUMPI PUSH0 DUP1 REVERT JUMPDEST PUSH0 CALLDATALOAD PUSH1 0xE0 SHR SWAP1 DUP2 PUSH4 0x3EADCFC EQ PUSH2 0x3A1 JUMPI POP DUP1 PUSH4 0x3BD1104B EQ PUSH2 0x78 JUMPI PUSH4 0x65A54445 EQ PUSH2 0x3D JUMPI PUSH0 DUP1 REVERT JUMPDEST CALLVALUE PUSH2 0x74 JUMPI PUSH1 0x20 CALLDATASIZE PUSH1 0x3 NOT ADD SLT PUSH2 0x74 JUMPI PUSH1 0x1 PUSH1 0x1 PUSH1 0xA0 SHL SUB PUSH2 0x5E PUSH2 0x404 JUMP JUMPDEST AND PUSH0 MSTORE PUSH0 PUSH1 0x20 MSTORE PUSH1 0x20 PUSH1 0x40 PUSH0 KECCAK256 SLOAD PUSH1 0x40 MLOAD SWAP1 DUP2 MSTORE RETURN JUMPDEST PUSH0 DUP1 REVERT JUMPDEST CALLVALUE PUSH2 0x74 JUMPI PUSH2 0x100 CALLDATASIZE PUSH1 0x3 NOT ADD SLT PUSH2 0x74 JUMPI PUSH1 0x40 MLOAD PUSH2 0x100 DUP2 ADD DUP2 DUP2 LT PUSH8 0xFFFFFFFFFFFFFFFF DUP3 GT OR PUSH2 0x38D JUMPI PUSH1 0x40 MSTORE PUSH2 0xB0 PUSH2 0x404 JUMP JUMPDEST DUP1 DUP3 MSTORE PUSH1 0x24 CALLDATALOAD SWAP2 PUSH1 0x1 PUSH1 0x1 PUSH1 0xA0 SHL SUB DUP4 AND DUP4 SUB PUSH2 0x74 JUMPI PUSH1 0x20 DUP2 ADD SWAP3 DUP4 MSTORE PUSH1 0x44 CALLDATALOAD PUSH1 0x1 PUSH1 0x1 PUSH1 0xA0 SHL SUB DUP2 AND DUP2 SUB PUSH2 0x74 JUMPI PUSH1 0x40 DUP3 ADD MSTORE PUSH1 0x64 CALLDATALOAD PUSH1 0x60 DUP3 ADD MSTORE PUSH1 0x84 CALLDATALOAD PUSH1 0x1 PUSH1 0x1 PUSH1 0x80 SHL SUB DUP2 AND DUP2 SUB PUSH2 0x74 JUMPI PUSH1 0x80 DUP3 ADD MSTORE PUSH1 0xA4 CALLDATALOAD PUSH1 0x1 PUSH1 0x1 PUSH1 0x80 SHL SUB DUP2 AND DUP2 SUB PUSH2 0x74 JUMPI PUSH1 0xA0 DUP3 ADD MSTORE PUSH1 0xC4 CALLDATALOAD PUSH2 0xFFFF DUP2 AND DUP2 SUB PUSH2 0x74 JUMPI PUSH1 0xC0 DUP3 ADD MSTORE PUSH1 0xE4 CALLDATALOAD SWAP1 DUP2 ISZERO ISZERO DUP3 SUB PUSH2 0x74 JUMPI PUSH1 0xE0 ADD MSTORE PUSH1 0x1 PUSH1 0x1 PUSH1 0xA0 SHL SUB SWAP1 DUP2 AND PUSH0 SWAP1 DUP2 MSTORE PUSH1 0x20 DUP2 SWAP1 MSTORE PUSH1 0x40 DUP1 DUP3 KECCAK256 SLOAD SWAP4 MLOAD SWAP1 SWAP3 AND DUP2 MSTORE KECCAK256 SLOAD DUP2 ISZERO ISZERO DUP1 PUSH2 0x384 JUMPI JUMPDEST ISZERO PUSH2 0x34E JUMPI PUSH1 0x40 DUP1 MLOAD PUSH4 0x1A610E5 PUSH1 0xE6 SHL DUP2 MSTORE PUSH1 0x4 DUP2 ADD SWAP4 SWAP1 SWAP4 MSTORE PUSH32 0x0 PUSH1 0x1 PUSH1 0x1 PUSH1 0xA0 SHL SUB AND SWAP1 DUP4 PUSH1 0x24 DUP2 DUP5 GAS STATICCALL SWAP2 DUP3 ISZERO PUSH2 0x31D JUMPI PUSH0 SWAP4 PUSH0 SWAP4 PUSH2 0x328 JUMPI JUMPDEST POP PUSH1 0x40 SWAP1 PUSH1 0x24 DUP3 MLOAD DUP1 SWAP5 DUP2 SWAP4 PUSH4 0x1A610E5 PUSH1 0xE6 SHL DUP4 MSTORE PUSH1 0x4 DUP4 ADD MSTORE GAS STATICCALL SWAP2 DUP3 ISZERO PUSH2 0x31D JUMPI PUSH0 SWAP2 PUSH0 SWAP4 PUSH2 0x2EA JUMPI JUMPDEST POP DUP4 ISZERO DUP1 ISZERO DUP1 PUSH2 0x2E1 JUMPI JUMPDEST ISZERO PUSH2 0x2B0 JUMPI PUSH8 0xDE0B6B3A7640000 DUP6 MUL SWAP5 DUP6 DIV PUSH8 0xDE0B6B3A7640000 EQ OR ISZERO PUSH2 0x29C JUMPI DUP2 ISZERO PUSH2 0x288 JUMPI PUSH1 0x40 SWAP3 DUP1 DUP3 LT ISZERO PUSH2 0x281 JUMPI POP JUMPDEST DUP3 MLOAD SWAP2 PUSH1 0x20 DUP4 ADD SWAP5 DIV DUP5 MSTORE DUP3 DUP3 ADD MSTORE DUP2 DUP2 MSTORE PUSH2 0x256 PUSH1 0x60 DUP3 PUSH2 0x3E2 JUMP JUMPDEST DUP2 MLOAD SWAP3 DUP4 SWAP2 PUSH1 0x20 DUP4 MSTORE MLOAD DUP1 SWAP2 DUP2 PUSH1 0x20 DUP6 ADD MSTORE DUP5 DUP5 ADD MCOPY PUSH0 DUP3 DUP3 ADD DUP5 ADD MSTORE PUSH1 0x1F ADD PUSH1 0x1F NOT AND DUP2 ADD SUB ADD SWAP1 RETURN JUMPDEST SWAP1 POP PUSH2 0x239 JUMP JUMPDEST PUSH4 0x4E487B71 PUSH1 0xE0 SHL PUSH0 MSTORE PUSH1 0x12 PUSH1 0x4 MSTORE PUSH1 0x24 PUSH0 REVERT JUMPDEST PUSH4 0x4E487B71 PUSH1 0xE0 SHL PUSH0 MSTORE PUSH1 0x11 PUSH1 0x4 MSTORE PUSH1 0x24 PUSH0 REVERT JUMPDEST PUSH1 0x40 MLOAD PUSH3 0x461BCD PUSH1 0xE5 SHL DUP2 MSTORE PUSH1 0x20 PUSH1 0x4 DUP3 ADD MSTORE PUSH1 0x9 PUSH1 0x24 DUP3 ADD MSTORE PUSH9 0x626164207072696365 PUSH1 0xB8 SHL PUSH1 0x44 DUP3 ADD MSTORE PUSH1 0x64 SWAP1 REVERT JUMPDEST POP DUP3 ISZERO ISZERO PUSH2 0x203 JUMP JUMPDEST SWAP1 SWAP3 POP PUSH2 0x30F SWAP2 POP PUSH1 0x40 RETURNDATASIZE PUSH1 0x40 GT PUSH2 0x316 JUMPI JUMPDEST PUSH2 0x307 DUP2 DUP4 PUSH2 0x3E2 JUMP JUMPDEST DUP2 ADD SWAP1 PUSH2 0x41A JUMP JUMPDEST SWAP2 DUP5 PUSH2 0x1F8 JUMP JUMPDEST POP RETURNDATASIZE PUSH2 0x2FD JUMP JUMPDEST PUSH1 0x40 MLOAD RETURNDATASIZE PUSH0 DUP3 RETURNDATACOPY RETURNDATASIZE SWAP1 REVERT JUMPDEST PUSH1 0x40 DUP1 SWAP6 POP PUSH2 0x344 SWAP3 SWAP5 POP RETURNDATASIZE DUP7 GT PUSH2 0x316 JUMPI PUSH2 0x307 DUP2 DUP4 PUSH2 0x3E2 JUMP JUMPDEST SWAP4 SWAP1 SWAP4 SWAP3 SWAP1 PUSH2 0x1CB JUMP JUMPDEST PUSH1 0x40 MLOAD PUSH3 0x461BCD PUSH1 0xE5 SHL DUP2 MSTORE PUSH1 0x20 PUSH1 0x4 DUP3 ADD MSTORE PUSH1 0xE PUSH1 0x24 DUP3 ADD MSTORE PUSH14 0x666565644964206D697373696E67 PUSH1 0x90 SHL PUSH1 0x44 DUP3 ADD MSTORE PUSH1 0x64 SWAP1 REVERT JUMPDEST POP DUP1 ISZERO ISZERO PUSH2 0x16E JUMP JUMPDEST PUSH4 0x4E487B71 PUSH1 0xE0 SHL PUSH0 MSTORE PUSH1 0x41 PUSH1 0x4 MSTORE PUSH1 0x24 PUSH0 REVERT JUMPDEST CALLVALUE PUSH2 0x74 JUMPI PUSH0 CALLDATASIZE PUSH1 0x3 NOT ADD SLT PUSH2 0x74 JUMPI PUSH32 0x0 PUSH1 0x1 PUSH1 0x1 PUSH1 0xA0 SHL SUB AND DUP2 MSTORE PUSH1 0x20 SWAP1 RETURN JUMPDEST SWAP1 PUSH1 0x1F DUP1 NOT SWAP2 ADD AND DUP2 ADD SWAP1 DUP2 LT PUSH8 0xFFFFFFFFFFFFFFFF DUP3 GT OR PUSH2 0x38D JUMPI PUSH1 0x40 MSTORE JUMP JUMPDEST PUSH1 0x4 CALLDATALOAD SWAP1 PUSH1 0x1 PUSH1 0x1 PUSH1 0xA0 SHL SUB DUP3 AND DUP3 SUB PUSH2 0x74 JUMPI JUMP JUMPDEST SWAP2 SWAP1 DUP3 PUSH1 0x40 SWAP2 SUB SLT PUSH2 0x74 JUMPI PUSH1 0x20 DUP3 MLOAD SWAP3 ADD MLOAD SWAP1 JUMP INVALID LOG2 PUSH5 0x6970667358 0x22 SLT KECCAK256 SIGNEXTEND 0x1F LOG2 GAS SWAP6 0xBE LOG3 MCOPY CALLCODE MOD LT 0xAD EXTCODESIZE LT PUSH10 0x1D030C9562AD7A263B3E SWAP3 JUMPI EXTCALL 0xBE SMOD 0xC9 TIMESTAMP PUSH5 0x736F6C6343 STOP ADDMOD 0x1E STOP CALLER "},"methodIdentifiers":{"adapter()":"03eadcfc","getData((address,address,address,uint256,uint128,uint128,uint16,bool))":"3bd1104b","tokenToFeedId(address)":"65a54445"}}}}}