{"contracts/Peripheral/DataBridges/real/MockRedstoneAdapter.sol":{"MockRedstoneAdapter":{"abi":[{"inputs":[{"internalType":"bytes32","name":"","type":"bytes32"}],"name":"data","outputs":[{"internalType":"uint256","name":"price","type":"uint256"},{"internalType":"uint256","name":"updatedAt","type":"uint256"}],"stateMutability":"view","type":"function"},{"inputs":[{"internalType":"bytes32","name":"id","type":"bytes32"}],"name":"getValue","outputs":[{"internalType":"uint256","name":"price","type":"uint256"},{"internalType":"uint256","name":"updatedAt","type":"uint256"}],"stateMutability":"view","type":"function"},{"inputs":[{"internalType":"bytes32","name":"id","type":"bytes32"},{"internalType":"uint256","name":"price","type":"uint256"},{"internalType":"uint256","name":"updatedAt","type":"uint256"}],"name":"set","outputs":[],"stateMutability":"nonpayable","type":"function"}],"evm":{"bytecode":{"linkReferences":{},"object":"608080604052346015576101b1908161001a8239f35b5f80fdfe6080806040526004361015610012575f80fd5b5f3560e01c9081630147fb0c1461011657508063359c351d146100d45763698439401461003d575f80fd5b346100d05760203660031901126100d0576004355f525f60205260405f20610063610147565b90600181549182845201546020830191818352151590816100c6575b50156100975760409151905182519182526020820152f35b60405162461bcd60e51b81526020600482015260076024820152666d697373696e6760c81b6044820152606490fd5b905015155f61007f565b5f80fd5b346100d05760603660031901126100d0576100ed610147565b602435815260016020820160443581526004355f525f60205260405f2092518355519101555f80f35b346100d05760203660031901126100d0576040906004355f525f602052815f20600181549101549082526020820152f35b604051906040820182811067ffffffffffffffff82111761016757604052565b634e487b7160e01b5f52604160045260245ffdfea26469706673582212208393c42478f8bf2f6ca5bbfaccde89faad84bec42aee99206a6dad3300bc2fd664736f6c634300081e0033","opcodes":"PUSH1 0x80 DUP1 PUSH1 0x40 MSTORE CALLVALUE PUSH1 0x15 JUMPI PUSH2 0x1B1 SWAP1 DUP2 PUSH2 0x1A DUP3 CODECOPY RETURN JUMPDEST PUSH0 DUP1 REVERT INVALID PUSH1 0x80 DUP1 PUSH1 0x40 MSTORE PUSH1 0x4 CALLDATASIZE LT ISZERO PUSH2 0x12 JUMPI PUSH0 DUP1 REVERT JUMPDEST PUSH0 CALLDATALOAD PUSH1 0xE0 SHR SWAP1 DUP2 PUSH4 0x147FB0C EQ PUSH2 0x116 JUMPI POP DUP1 PUSH4 0x359C351D EQ PUSH2 0xD4 JUMPI PUSH4 0x69843940 EQ PUSH2 0x3D JUMPI PUSH0 DUP1 REVERT JUMPDEST CALLVALUE PUSH2 0xD0 JUMPI PUSH1 0x20 CALLDATASIZE PUSH1 0x3 NOT ADD SLT PUSH2 0xD0 JUMPI PUSH1 0x4 CALLDATALOAD PUSH0 MSTORE PUSH0 PUSH1 0x20 MSTORE PUSH1 0x40 PUSH0 KECCAK256 PUSH2 0x63 PUSH2 0x147 JUMP JUMPDEST SWAP1 PUSH1 0x1 DUP2 SLOAD SWAP2 DUP3 DUP5 MSTORE ADD SLOAD PUSH1 0x20 DUP4 ADD SWAP2 DUP2 DUP4 MSTORE ISZERO ISZERO SWAP1 DUP2 PUSH2 0xC6 JUMPI JUMPDEST POP ISZERO PUSH2 0x97 JUMPI PUSH1 0x40 SWAP2 MLOAD SWAP1 MLOAD DUP3 MLOAD SWAP2 DUP3 MSTORE PUSH1 0x20 DUP3 ADD MSTORE RETURN JUMPDEST PUSH1 0x40 MLOAD PUSH3 0x461BCD PUSH1 0xE5 SHL DUP2 MSTORE PUSH1 0x20 PUSH1 0x4 DUP3 ADD MSTORE PUSH1 0x7 PUSH1 0x24 DUP3 ADD MSTORE PUSH7 0x6D697373696E67 PUSH1 0xC8 SHL PUSH1 0x44 DUP3 ADD MSTORE PUSH1 0x64 SWAP1 REVERT JUMPDEST SWAP1 POP ISZERO ISZERO PUSH0 PUSH2 0x7F JUMP JUMPDEST PUSH0 DUP1 REVERT JUMPDEST CALLVALUE PUSH2 0xD0 JUMPI PUSH1 0x60 CALLDATASIZE PUSH1 0x3 NOT ADD SLT PUSH2 0xD0 JUMPI PUSH2 0xED PUSH2 0x147 JUMP JUMPDEST PUSH1 0x24 CALLDATALOAD DUP2 MSTORE PUSH1 0x1 PUSH1 0x20 DUP3 ADD PUSH1 0x44 CALLDATALOAD DUP2 MSTORE PUSH1 0x4 CALLDATALOAD PUSH0 MSTORE PUSH0 PUSH1 0x20 MSTORE PUSH1 0x40 PUSH0 KECCAK256 SWAP3 MLOAD DUP4 SSTORE MLOAD SWAP2 ADD SSTORE PUSH0 DUP1 RETURN JUMPDEST CALLVALUE PUSH2 0xD0 JUMPI PUSH1 0x20 CALLDATASIZE PUSH1 0x3 NOT ADD SLT PUSH2 0xD0 JUMPI PUSH1 0x40 SWAP1 PUSH1 0x4 CALLDATALOAD PUSH0 MSTORE PUSH0 PUSH1 0x20 MSTORE DUP2 PUSH0 KECCAK256 PUSH1 0x1 DUP2 SLOAD SWAP2 ADD SLOAD SWAP1 DUP3 MSTORE PUSH1 0x20 DUP3 ADD MSTORE RETURN JUMPDEST PUSH1 0x40 MLOAD SWAP1 PUSH1 0x40 DUP3 ADD DUP3 DUP2 LT PUSH8 0xFFFFFFFFFFFFFFFF DUP3 GT OR PUSH2 0x167 JUMPI PUSH1 0x40 MSTORE JUMP JUMPDEST PUSH4 0x4E487B71 PUSH1 0xE0 SHL PUSH0 MSTORE PUSH1 0x41 PUSH1 0x4 MSTORE PUSH1 0x24 PUSH0 REVERT INVALID LOG2 PUSH5 0x6970667358 0x22 SLT KECCAK256 DUP4 SWAP4 0xC4 0x24 PUSH25 0xF8BF2F6CA5BBFACCDE89FAAD84BEC42AEE99206A6DAD3300BC 0x2F 0xD6 PUSH5 0x736F6C6343 STOP ADDMOD 0x1E STOP CALLER "},"methodIdentifiers":{"data(bytes32)":"0147fb0c","getValue(bytes32)":"69843940","set(bytes32,uint256,uint256)":"359c351d"}}}}}