{"contracts/Peripheral/DataBridges/real/ChainlinkDataBridge.sol":{"ChainlinkDataBridge":{"abi":[{"inputs":[{"internalType":"address","name":"_registry","type":"address"},{"internalType":"address[]","name":"aliases","type":"address[]"},{"internalType":"address[]","name":"targets","type":"address[]"}],"stateMutability":"nonpayable","type":"constructor"},{"inputs":[{"components":[{"internalType":"address","name":"asset0","type":"address"},{"internalType":"address","name":"asset1","type":"address"},{"internalType":"address","name":"quoter","type":"address"},{"internalType":"uint256","name":"amount","type":"uint256"},{"internalType":"uint128","name":"asset0Balance","type":"uint128"},{"internalType":"uint128","name":"asset1Balance","type":"uint128"},{"internalType":"uint16","name":"bucketID","type":"uint16"},{"internalType":"bool","name":"zeroForOne","type":"bool"}],"internalType":"struct QuoteParams","name":"params","type":"tuple"}],"name":"getData","outputs":[{"internalType":"bytes","name":"","type":"bytes"}],"stateMutability":"view","type":"function"},{"inputs":[],"name":"registry","outputs":[{"internalType":"address","name":"","type":"address"}],"stateMutability":"view","type":"function"}],"evm":{"bytecode":{"linkReferences":{},"object":"60a0604052346101c8576108f680380380610019816101cc565b92833981016060828203126101c85761003182610205565b60208301519092906001600160401b0381116101c85782610053918301610219565b60408201519092906001600160401b0381116101c8576100739201610219565b5f60208190527f2a11cb67ca5c7e99dba99b50e02c11472d0f19c22ed5af42a1599a7f57e1c7a480546001600160a01b031990811673eeeeeeeeeeeeeeeeeeeeeeeeeeeeeeeeeeeeeeee17909155732260fac5e5542a773aa44fbcfedf7c193bc2c5999091527ff0b998666205e50af945dcd5198861491334a6162cc24264d9a801634ee07ec8805490911673bbbbbbbbbbbbbbbbbbbbbbbbbbbbbbbbbbbbbbbb1790558151815191929103610197575f5b8151811015610175576001906001600160a01b036101438286610283565b5116828060a01b036101558386610283565b51165f525f60205260405f2090838060a01b031982541617905501610125565b8360805260405161064a90816102ac82396080518181816047015261038a0152f35b60405162461bcd60e51b815260206004820152600960248201526830b634b0b9903632b760b91b6044820152606490fd5b5f80fd5b6040519190601f01601f191682016001600160401b038111838210176101f157604052565b634e487b7160e01b5f52604160045260245ffd5b51906001600160a01b03821682036101c857565b9080601f830112156101c8578151916001600160401b0383116101f1578260051b906020806102498185016101cc565b8096815201928201019283116101c857602001905b82821061026b5750505090565b6020809161027884610205565b81520191019061025e565b80518210156102975760209160051b010190565b634e487b7160e01b5f52603260045260245ffdfe6080806040526004361015610012575f80fd5b5f3560e01c9081633bd1104b1461007a5750637b10399914610032575f80fd5b34610076575f366003190112610076576040517f00000000000000000000000000000000000000000000000000000000000000006001600160a01b03168152602090f35b5f80fd5b346100765761010036600319011261007657610100810181811067ffffffffffffffff82111761025c576040526004356001600160a01b0381169190828103610076578152602435906001600160a01b038216820361007657602081019182526044356001600160a01b038116810361007657604082015260643560608201526084356001600160801b038116810361007657608082015260a4356001600160801b03811681036100765760a082015260c43561ffff811681036100765760c082015260e4359283151584036100765761017461016461017a9260ff9660e06101829601526102d4565b93516001600160a01b03166102d4565b92610361565b929093610361565b95166012019160ff8311610248576101a96101a3916101a36101af95610292565b906102a3565b94610292565b91821561021b576040926101c2916102b6565b928082101561021457505b81519060208201938452828201528181526101e9606082610270565b8151928391602083525180918160208501528484015e5f828201840152601f01601f19168101030190f35b90506101cd565b60405162461bcd60e51b8152602060048201526005602482015264064656e3d360dc1b6044820152606490fd5b634e487b7160e01b5f52601160045260245ffd5b634e487b7160e01b5f52604160045260245ffd5b90601f8019910116810190811067ffffffffffffffff82111761025c57604052565b60ff16604d811161024857600a0a90565b8181029291811591840414171561024857565b81156102c0570490565b634e487b7160e01b5f52601260045260245ffd5b6001600160a01b038181165f9081526020819052604090205416806102f7575090565b905090565b519069ffffffffffffffffffff8216820361007657565b908160a091031261007657610327816102fc565b916020820151916040810151916103456080606084015193016102fc565b90565b90816020910312610076575160ff811681036100765790565b60405163bcfd032d60e01b81526001600160a01b038281166004830152610348602483015291927f0000000000000000000000000000000000000000000000000000000000000000909216919060a081604481865afa90815f915f936105ec575b5061054c57505060405163bcfd032d60e01b815261034860048201526001600160a01b038416602482015260a081604481865afa92835f925f95610512575b5061043a5760405162461bcd60e51b815260206004820152600c60248201526b66656564206d697373696e6760a01b6044820152606490fd5b5f8213156104e357604051630b1c5a7560e31b815261034860048201526001600160a01b03959095166024860152602090859060449082905afa9384156104d8575f946104a3575b5061049e9061049961049386610292565b806102a3565b6102b6565b929190565b61049e9194506104ca9060203d6020116104d1575b6104c28183610270565b810190610348565b9390610482565b503d6104b8565b6040513d5f823e3d90fd5b60405162461bcd60e51b81526020600482015260076024820152663130b21034b73b60c91b6044820152606490fd5b90945061053891925060a03d60a011610545575b6105308183610270565b810190610313565b509392505091935f610401565b503d610526565b90925f8213156105bd57604051630b1c5a7560e31b81526001600160a01b039590951660048601526103486024860152602090859060449082905afa9384156104d8575f9461059c575b50929190565b6105b691945060203d6020116104d1576104c28183610270565b925f610596565b60405162461bcd60e51b815260206004820152600760248201526662616420616e7360c81b6044820152606490fd5b909250610608915060a03d60a011610545576105308183610270565b5092505090915f6103c256fea2646970667358221220edd87b231cf151e0ad8225aee983defb538a6d55a5375958e21fa984273cf29e64736f6c634300081e0033","opcodes":"PUSH1 0xA0 PUSH1 0x40 MSTORE CALLVALUE PUSH2 0x1C8 JUMPI PUSH2 0x8F6 DUP1 CODESIZE SUB DUP1 PUSH2 0x19 DUP2 PUSH2 0x1CC JUMP JUMPDEST SWAP3 DUP4 CODECOPY DUP2 ADD PUSH1 0x60 DUP3 DUP3 SUB SLT PUSH2 0x1C8 JUMPI PUSH2 0x31 DUP3 PUSH2 0x205 JUMP JUMPDEST PUSH1 0x20 DUP4 ADD MLOAD SWAP1 SWAP3 SWAP1 PUSH1 0x1 PUSH1 0x1 PUSH1 0x40 SHL SUB DUP2 GT PUSH2 0x1C8 JUMPI DUP3 PUSH2 0x53 SWAP2 DUP4 ADD PUSH2 0x219 JUMP JUMPDEST PUSH1 0x40 DUP3 ADD MLOAD SWAP1 SWAP3 SWAP1 PUSH1 0x1 PUSH1 0x1 PUSH1 0x40 SHL SUB DUP2 GT PUSH2 0x1C8 JUMPI PUSH2 0x73 SWAP3 ADD PUSH2 0x219 JUMP JUMPDEST PUSH0 PUSH1 0x20 DUP2 SWAP1 MSTORE PUSH32 0x2A11CB67CA5C7E99DBA99B50E02C11472D0F19C22ED5AF42A1599A7F57E1C7A4 DUP1 SLOAD PUSH1 0x1 PUSH1 0x1 PUSH1 0xA0 SHL SUB NOT SWAP1 DUP2 AND PUSH20 0xEEEEEEEEEEEEEEEEEEEEEEEEEEEEEEEEEEEEEEEE OR SWAP1 SWAP2 SSTORE PUSH20 0x2260FAC5E5542A773AA44FBCFEDF7C193BC2C599 SWAP1 SWAP2 MSTORE PUSH32 0xF0B998666205E50AF945DCD5198861491334A6162CC24264D9A801634EE07EC8 DUP1 SLOAD SWAP1 SWAP2 AND PUSH20 0xBBBBBBBBBBBBBBBBBBBBBBBBBBBBBBBBBBBBBBBB OR SWAP1 SSTORE DUP2 MLOAD DUP2 MLOAD SWAP2 SWAP3 SWAP2 SUB PUSH2 0x197 JUMPI PUSH0 JUMPDEST DUP2 MLOAD DUP2 LT ISZERO PUSH2 0x175 JUMPI PUSH1 0x1 SWAP1 PUSH1 0x1 PUSH1 0x1 PUSH1 0xA0 SHL SUB PUSH2 0x143 DUP3 DUP7 PUSH2 0x283 JUMP JUMPDEST MLOAD AND DUP3 DUP1 PUSH1 0xA0 SHL SUB PUSH2 0x155 DUP4 DUP7 PUSH2 0x283 JUMP JUMPDEST MLOAD AND PUSH0 MSTORE PUSH0 PUSH1 0x20 MSTORE PUSH1 0x40 PUSH0 KECCAK256 SWAP1 DUP4 DUP1 PUSH1 0xA0 SHL SUB NOT DUP3 SLOAD AND OR SWAP1 SSTORE ADD PUSH2 0x125 JUMP JUMPDEST DUP4 PUSH1 0x80 MSTORE PUSH1 0x40 MLOAD PUSH2 0x64A SWAP1 DUP2 PUSH2 0x2AC DUP3 CODECOPY PUSH1 0x80 MLOAD DUP2 DUP2 DUP2 PUSH1 0x47 ADD MSTORE PUSH2 0x38A ADD MSTORE RETURN JUMPDEST PUSH1 0x40 MLOAD PUSH3 0x461BCD PUSH1 0xE5 SHL DUP2 MSTORE PUSH1 0x20 PUSH1 0x4 DUP3 ADD MSTORE PUSH1 0x9 PUSH1 0x24 DUP3 ADD MSTORE PUSH9 0x30B634B0B9903632B7 PUSH1 0xB9 SHL PUSH1 0x44 DUP3 ADD MSTORE PUSH1 0x64 SWAP1 REVERT JUMPDEST PUSH0 DUP1 REVERT JUMPDEST PUSH1 0x40 MLOAD SWAP2 SWAP1 PUSH1 0x1F ADD PUSH1 0x1F NOT AND DUP3 ADD PUSH1 0x1 PUSH1 0x1 PUSH1 0x40 SHL SUB DUP2 GT DUP4 DUP3 LT OR PUSH2 0x1F1 JUMPI PUSH1 0x40 MSTORE JUMP JUMPDEST PUSH4 0x4E487B71 PUSH1 0xE0 SHL PUSH0 MSTORE PUSH1 0x41 PUSH1 0x4 MSTORE PUSH1 0x24 PUSH0 REVERT JUMPDEST MLOAD SWAP1 PUSH1 0x1 PUSH1 0x1 PUSH1 0xA0 SHL SUB DUP3 AND DUP3 SUB PUSH2 0x1C8 JUMPI JUMP JUMPDEST SWAP1 DUP1 PUSH1 0x1F DUP4 ADD SLT ISZERO PUSH2 0x1C8 JUMPI DUP2 MLOAD SWAP2 PUSH1 0x1 PUSH1 0x1 PUSH1 0x40 SHL SUB DUP4 GT PUSH2 0x1F1 JUMPI DUP3 PUSH1 0x5 SHL SWAP1 PUSH1 0x20 DUP1 PUSH2 0x249 DUP2 DUP6 ADD PUSH2 0x1CC JUMP JUMPDEST DUP1 SWAP7 DUP2 MSTORE ADD SWAP3 DUP3 ADD ADD SWAP3 DUP4 GT PUSH2 0x1C8 JUMPI PUSH1 0x20 ADD SWAP1 JUMPDEST DUP3 DUP3 LT PUSH2 0x26B JUMPI POP POP POP SWAP1 JUMP JUMPDEST PUSH1 0x20 DUP1 SWAP2 PUSH2 0x278 DUP5 PUSH2 0x205 JUMP JUMPDEST DUP2 MSTORE ADD SWAP2 ADD SWAP1 PUSH2 0x25E JUMP JUMPDEST DUP1 MLOAD DUP3 LT ISZERO PUSH2 0x297 JUMPI PUSH1 0x20 SWAP2 PUSH1 0x5 SHL ADD ADD SWAP1 JUMP JUMPDEST PUSH4 0x4E487B71 PUSH1 0xE0 SHL PUSH0 MSTORE PUSH1 0x32 PUSH1 0x4 MSTORE PUSH1 0x24 PUSH0 REVERT INVALID PUSH1 0x80 DUP1 PUSH1 0x40 MSTORE PUSH1 0x4 CALLDATASIZE LT ISZERO PUSH2 0x12 JUMPI PUSH0 DUP1 REVERT JUMPDEST PUSH0 CALLDATALOAD PUSH1 0xE0 SHR SWAP1 DUP2 PUSH4 0x3BD1104B EQ PUSH2 0x7A JUMPI POP PUSH4 0x7B103999 EQ PUSH2 0x32 JUMPI PUSH0 DUP1 REVERT JUMPDEST CALLVALUE PUSH2 0x76 JUMPI PUSH0 CALLDATASIZE PUSH1 0x3 NOT ADD SLT PUSH2 0x76 JUMPI PUSH1 0x40 MLOAD PUSH32 0x0 PUSH1 0x1 PUSH1 0x1 PUSH1 0xA0 SHL SUB AND DUP2 MSTORE PUSH1 0x20 SWAP1 RETURN JUMPDEST PUSH0 DUP1 REVERT JUMPDEST CALLVALUE PUSH2 0x76 JUMPI PUSH2 0x100 CALLDATASIZE PUSH1 0x3 NOT ADD SLT PUSH2 0x76 JUMPI PUSH2 0x100 DUP2 ADD DUP2 DUP2 LT PUSH8 0xFFFFFFFFFFFFFFFF DUP3 GT OR PUSH2 0x25C JUMPI PUSH1 0x40 MSTORE PUSH1 0x4 CALLDATALOAD PUSH1 0x1 PUSH1 0x1 PUSH1 0xA0 SHL SUB DUP2 AND SWAP2 SWAP1 DUP3 DUP2 SUB PUSH2 0x76 JUMPI DUP2 MSTORE PUSH1 0x24 CALLDATALOAD SWAP1 PUSH1 0x1 PUSH1 0x1 PUSH1 0xA0 SHL SUB DUP3 AND DUP3 SUB PUSH2 0x76 JUMPI PUSH1 0x20 DUP2 ADD SWAP2 DUP3 MSTORE PUSH1 0x44 CALLDATALOAD PUSH1 0x1 PUSH1 0x1 PUSH1 0xA0 SHL SUB DUP2 AND DUP2 SUB PUSH2 0x76 JUMPI PUSH1 0x40 DUP3 ADD MSTORE PUSH1 0x64 CALLDATALOAD PUSH1 0x60 DUP3 ADD MSTORE PUSH1 0x84 CALLDATALOAD PUSH1 0x1 PUSH1 0x1 PUSH1 0x80 SHL SUB DUP2 AND DUP2 SUB PUSH2 0x76 JUMPI PUSH1 0x80 DUP3 ADD MSTORE PUSH1 0xA4 CALLDATALOAD PUSH1 0x1 PUSH1 0x1 PUSH1 0x80 SHL SUB DUP2 AND DUP2 SUB PUSH2 0x76 JUMPI PUSH1 0xA0 DUP3 ADD MSTORE PUSH1 0xC4 CALLDATALOAD PUSH2 0xFFFF DUP2 AND DUP2 SUB PUSH2 0x76 JUMPI PUSH1 0xC0 DUP3 ADD MSTORE PUSH1 0xE4 CALLDATALOAD SWAP3 DUP4 ISZERO ISZERO DUP5 SUB PUSH2 0x76 JUMPI PUSH2 0x174 PUSH2 0x164 PUSH2 0x17A SWAP3 PUSH1 0xFF SWAP7 PUSH1 0xE0 PUSH2 0x182 SWAP7 ADD MSTORE PUSH2 0x2D4 JUMP JUMPDEST SWAP4 MLOAD PUSH1 0x1 PUSH1 0x1 PUSH1 0xA0 SHL SUB AND PUSH2 0x2D4 JUMP JUMPDEST SWAP3 PUSH2 0x361 JUMP JUMPDEST SWAP3 SWAP1 SWAP4 PUSH2 0x361 JUMP JUMPDEST SWAP6 AND PUSH1 0x12 ADD SWAP2 PUSH1 0xFF DUP4 GT PUSH2 0x248 JUMPI PUSH2 0x1A9 PUSH2 0x1A3 SWAP2 PUSH2 0x1A3 PUSH2 0x1AF SWAP6 PUSH2 0x292 JUMP JUMPDEST SWAP1 PUSH2 0x2A3 JUMP JUMPDEST SWAP5 PUSH2 0x292 JUMP JUMPDEST SWAP2 DUP3 ISZERO PUSH2 0x21B JUMPI PUSH1 0x40 SWAP3 PUSH2 0x1C2 SWAP2 PUSH2 0x2B6 JUMP JUMPDEST SWAP3 DUP1 DUP3 LT ISZERO PUSH2 0x214 JUMPI POP JUMPDEST DUP2 MLOAD SWAP1 PUSH1 0x20 DUP3 ADD SWAP4 DUP5 MSTORE DUP3 DUP3 ADD MSTORE DUP2 DUP2 MSTORE PUSH2 0x1E9 PUSH1 0x60 DUP3 PUSH2 0x270 JUMP JUMPDEST DUP2 MLOAD SWAP3 DUP4 SWAP2 PUSH1 0x20 DUP4 MSTORE MLOAD DUP1 SWAP2 DUP2 PUSH1 0x20 DUP6 ADD MSTORE DUP5 DUP5 ADD MCOPY PUSH0 DUP3 DUP3 ADD DUP5 ADD MSTORE PUSH1 0x1F ADD PUSH1 0x1F NOT AND DUP2 ADD SUB ADD SWAP1 RETURN JUMPDEST SWAP1 POP PUSH2 0x1CD JUMP JUMPDEST PUSH1 0x40 MLOAD PUSH3 0x461BCD PUSH1 0xE5 SHL DUP2 MSTORE PUSH1 0x20 PUSH1 0x4 DUP3 ADD MSTORE PUSH1 0x5 PUSH1 0x24 DUP3 ADD MSTORE PUSH5 0x64656E3D3 PUSH1 0xDC SHL PUSH1 0x44 DUP3 ADD MSTORE PUSH1 0x64 SWAP1 REVERT JUMPDEST PUSH4 0x4E487B71 PUSH1 0xE0 SHL PUSH0 MSTORE PUSH1 0x11 PUSH1 0x4 MSTORE PUSH1 0x24 PUSH0 REVERT JUMPDEST PUSH4 0x4E487B71 PUSH1 0xE0 SHL PUSH0 MSTORE PUSH1 0x41 PUSH1 0x4 MSTORE PUSH1 0x24 PUSH0 REVERT JUMPDEST SWAP1 PUSH1 0x1F DUP1 NOT SWAP2 ADD AND DUP2 ADD SWAP1 DUP2 LT PUSH8 0xFFFFFFFFFFFFFFFF DUP3 GT OR PUSH2 0x25C JUMPI PUSH1 0x40 MSTORE JUMP JUMPDEST PUSH1 0xFF AND PUSH1 0x4D DUP2 GT PUSH2 0x248 JUMPI PUSH1 0xA EXP SWAP1 JUMP JUMPDEST DUP2 DUP2 MUL SWAP3 SWAP2 DUP2 ISZERO SWAP2 DUP5 DIV EQ OR ISZERO PUSH2 0x248 JUMPI JUMP JUMPDEST DUP2 ISZERO PUSH2 0x2C0 JUMPI DIV SWAP1 JUMP JUMPDEST PUSH4 0x4E487B71 PUSH1 0xE0 SHL PUSH0 MSTORE PUSH1 0x12 PUSH1 0x4 MSTORE PUSH1 0x24 PUSH0 REVERT JUMPDEST PUSH1 0x1 PUSH1 0x1 PUSH1 0xA0 SHL SUB DUP2 DUP2 AND PUSH0 SWAP1 DUP2 MSTORE PUSH1 0x20 DUP2 SWAP1 MSTORE PUSH1 0x40 SWAP1 KECCAK256 SLOAD AND DUP1 PUSH2 0x2F7 JUMPI POP SWAP1 JUMP JUMPDEST SWAP1 POP SWAP1 JUMP JUMPDEST MLOAD SWAP1 PUSH10 0xFFFFFFFFFFFFFFFFFFFF DUP3 AND DUP3 SUB PUSH2 0x76 JUMPI JUMP JUMPDEST SWAP1 DUP2 PUSH1 0xA0 SWAP2 SUB SLT PUSH2 0x76 JUMPI PUSH2 0x327 DUP2 PUSH2 0x2FC JUMP JUMPDEST SWAP2 PUSH1 0x20 DUP3 ADD MLOAD SWAP2 PUSH1 0x40 DUP2 ADD MLOAD SWAP2 PUSH2 0x345 PUSH1 0x80 PUSH1 0x60 DUP5 ADD MLOAD SWAP4 ADD PUSH2 0x2FC JUMP JUMPDEST SWAP1 JUMP JUMPDEST SWAP1 DUP2 PUSH1 0x20 SWAP2 SUB SLT PUSH2 0x76 JUMPI MLOAD PUSH1 0xFF DUP2 AND DUP2 SUB PUSH2 0x76 JUMPI SWAP1 JUMP JUMPDEST PUSH1 0x40 MLOAD PUSH4 0xBCFD032D PUSH1 0xE0 SHL DUP2 MSTORE PUSH1 0x1 PUSH1 0x1 PUSH1 0xA0 SHL SUB DUP3 DUP2 AND PUSH1 0x4 DUP4 ADD MSTORE PUSH2 0x348 PUSH1 0x24 DUP4 ADD MSTORE SWAP2 SWAP3 PUSH32 0x0 SWAP1 SWAP3 AND SWAP2 SWAP1 PUSH1 0xA0 DUP2 PUSH1 0x44 DUP2 DUP7 GAS STATICCALL SWAP1 DUP2 PUSH0 SWAP2 PUSH0 SWAP4 PUSH2 0x5EC JUMPI JUMPDEST POP PUSH2 0x54C JUMPI POP POP PUSH1 0x40 MLOAD PUSH4 0xBCFD032D PUSH1 0xE0 SHL DUP2 MSTORE PUSH2 0x348 PUSH1 0x4 DUP3 ADD MSTORE PUSH1 0x1 PUSH1 0x1 PUSH1 0xA0 SHL SUB DUP5 AND PUSH1 0x24 DUP3 ADD MSTORE PUSH1 0xA0 DUP2 PUSH1 0x44 DUP2 DUP7 GAS STATICCALL SWAP3 DUP4 PUSH0 SWAP3 PUSH0 SWAP6 PUSH2 0x512 JUMPI JUMPDEST POP PUSH2 0x43A JUMPI PUSH1 0x40 MLOAD PUSH3 0x461BCD PUSH1 0xE5 SHL DUP2 MSTORE PUSH1 0x20 PUSH1 0x4 DUP3 ADD MSTORE PUSH1 0xC PUSH1 0x24 DUP3 ADD MSTORE PUSH12 0x66656564206D697373696E67 PUSH1 0xA0 SHL PUSH1 0x44 DUP3 ADD MSTORE PUSH1 0x64 SWAP1 REVERT JUMPDEST PUSH0 DUP3 SGT ISZERO PUSH2 0x4E3 JUMPI PUSH1 0x40 MLOAD PUSH4 0xB1C5A75 PUSH1 0xE3 SHL DUP2 MSTORE PUSH2 0x348 PUSH1 0x4 DUP3 ADD MSTORE PUSH1 0x1 PUSH1 0x1 PUSH1 0xA0 SHL SUB SWAP6 SWAP1 SWAP6 AND PUSH1 0x24 DUP7 ADD MSTORE PUSH1 0x20 SWAP1 DUP6 SWAP1 PUSH1 0x44 SWAP1 DUP3 SWAP1 GAS STATICCALL SWAP4 DUP5 ISZERO PUSH2 0x4D8 JUMPI PUSH0 SWAP5 PUSH2 0x4A3 JUMPI JUMPDEST POP PUSH2 0x49E SWAP1 PUSH2 0x499 PUSH2 0x493 DUP7 PUSH2 0x292 JUMP JUMPDEST DUP1 PUSH2 0x2A3 JUMP JUMPDEST PUSH2 0x2B6 JUMP JUMPDEST SWAP3 SWAP2 SWAP1 JUMP JUMPDEST PUSH2 0x49E SWAP2 SWAP5 POP PUSH2 0x4CA SWAP1 PUSH1 0x20 RETURNDATASIZE PUSH1 0x20 GT PUSH2 0x4D1 JUMPI JUMPDEST PUSH2 0x4C2 DUP2 DUP4 PUSH2 0x270 JUMP JUMPDEST DUP2 ADD SWAP1 PUSH2 0x348 JUMP JUMPDEST SWAP4 SWAP1 PUSH2 0x482 JUMP JUMPDEST POP RETURNDATASIZE PUSH2 0x4B8 JUMP JUMPDEST PUSH1 0x40 MLOAD RETURNDATASIZE PUSH0 DUP3 RETURNDATACOPY RETURNDATASIZE SWAP1 REVERT JUMPDEST PUSH1 0x40 MLOAD PUSH3 0x461BCD PUSH1 0xE5 SHL DUP2 MSTORE PUSH1 0x20 PUSH1 0x4 DUP3 ADD MSTORE PUSH1 0x7 PUSH1 0x24 DUP3 ADD MSTORE PUSH7 0x3130B21034B73B PUSH1 0xC9 SHL PUSH1 0x44 DUP3 ADD MSTORE PUSH1 0x64 SWAP1 REVERT JUMPDEST SWAP1 SWAP5 POP PUSH2 0x538 SWAP2 SWAP3 POP PUSH1 0xA0 RETURNDATASIZE PUSH1 0xA0 GT PUSH2 0x545 JUMPI JUMPDEST PUSH2 0x530 DUP2 DUP4 PUSH2 0x270 JUMP JUMPDEST DUP2 ADD SWAP1 PUSH2 0x313 JUMP JUMPDEST POP SWAP4 SWAP3 POP POP SWAP2 SWAP4 PUSH0 PUSH2 0x401 JUMP JUMPDEST POP RETURNDATASIZE PUSH2 0x526 JUMP JUMPDEST SWAP1 SWAP3 PUSH0 DUP3 SGT ISZERO PUSH2 0x5BD JUMPI PUSH1 0x40 MLOAD PUSH4 0xB1C5A75 PUSH1 0xE3 SHL DUP2 MSTORE PUSH1 0x1 PUSH1 0x1 PUSH1 0xA0 SHL SUB SWAP6 SWAP1 SWAP6 AND PUSH1 0x4 DUP7 ADD MSTORE PUSH2 0x348 PUSH1 0x24 DUP7 ADD MSTORE PUSH1 0x20 SWAP1 DUP6 SWAP1 PUSH1 0x44 SWAP1 DUP3 SWAP1 GAS STATICCALL SWAP4 DUP5 ISZERO PUSH2 0x4D8 JUMPI PUSH0 SWAP5 PUSH2 0x59C JUMPI JUMPDEST POP SWAP3 SWAP2 SWAP1 JUMP JUMPDEST PUSH2 0x5B6 SWAP2 SWAP5 POP PUSH1 0x20 RETURNDATASIZE PUSH1 0x20 GT PUSH2 0x4D1 JUMPI PUSH2 0x4C2 DUP2 DUP4 PUSH2 0x270 JUMP JUMPDEST SWAP3 PUSH0 PUSH2 0x596 JUMP JUMPDEST PUSH1 0x40 MLOAD PUSH3 0x461BCD PUSH1 0xE5 SHL DUP2 MSTORE PUSH1 0x20 PUSH1 0x4 DUP3 ADD MSTORE PUSH1 0x7 PUSH1 0x24 DUP3 ADD MSTORE PUSH7 0x62616420616E73 PUSH1 0xC8 SHL PUSH1 0x44 DUP3 ADD MSTORE PUSH1 0x64 SWAP1 REVERT JUMPDEST SWAP1 SWAP3 POP PUSH2 0x608 SWAP2 POP PUSH1 0xA0 RETURNDATASIZE PUSH1 0xA0 GT PUSH2 0x545 JUMPI PUSH2 0x530 DUP2 DUP4 PUSH2 0x270 JUMP JUMPDEST POP SWAP3 POP POP SWAP1 SWAP2 PUSH0 PUSH2 0x3C2 JUMP INVALID LOG2 PUSH5 0x6970667358 0x22 SLT KECCAK256 0xED 0xD8 PUSH28 0x231CF151E0AD8225AEE983DEFB538A6D55A5375958E21FA984273CF2 SWAP15 PUSH5 0x736F6C6343 STOP ADDMOD 0x1E STOP CALLER "},"methodIdentifiers":{"getData((address,address,address,uint256,uint128,uint128,uint16,bool))":"3bd1104b","registry()":"7b103999"}}}}}