{"contracts/Peripheral/DataBridges/real/StoixDataBridge.sol":{"StoixDataBridge":{"abi":[{"inputs":[{"internalType":"address","name":"_uniV2Bridge","type":"address"},{"internalType":"address","name":"_uniV3Bridge","type":"address"},{"internalType":"address","name":"_uniV3TwapBridge","type":"address"},{"internalType":"address","name":"_chainlinkBridge","type":"address"}],"stateMutability":"nonpayable","type":"constructor"},{"inputs":[],"name":"cacheCl","outputs":[{"internalType":"bytes","name":"","type":"bytes"}],"stateMutability":"view","type":"function"},{"inputs":[],"name":"cacheClTs","outputs":[{"internalType":"bytes","name":"","type":"bytes"}],"stateMutability":"view","type":"function"},{"inputs":[],"name":"cacheStdvLong","outputs":[{"internalType":"bytes","name":"","type":"bytes"}],"stateMutability":"view","type":"function"},{"inputs":[],"name":"cacheStdvShort","outputs":[{"internalType":"bytes","name":"","type":"bytes"}],"stateMutability":"view","type":"function"},{"inputs":[],"name":"cacheTwap","outputs":[{"internalType":"bytes","name":"","type":"bytes"}],"stateMutability":"view","type":"function"},{"inputs":[],"name":"cacheV2","outputs":[{"internalType":"bytes","name":"","type":"bytes"}],"stateMutability":"view","type":"function"},{"inputs":[],"name":"cacheV3","outputs":[{"internalType":"bytes","name":"","type":"bytes"}],"stateMutability":"view","type":"function"},{"inputs":[],"name":"chainlinkBridge","outputs":[{"internalType":"address","name":"","type":"address"}],"stateMutability":"view","type":"function"},{"inputs":[{"components":[{"internalType":"address","name":"asset0","type":"address"},{"internalType":"address","name":"asset1","type":"address"},{"internalType":"address","name":"quoter","type":"address"},{"internalType":"uint256","name":"amount","type":"uint256"},{"internalType":"uint128","name":"asset0Balance","type":"uint128"},{"internalType":"uint128","name":"asset1Balance","type":"uint128"},{"internalType":"uint16","name":"bucketID","type":"uint16"},{"internalType":"bool","name":"zeroForOne","type":"bool"},{"internalType":"uint8","name":"functionFlags","type":"uint8"}],"internalType":"struct QuoteParams","name":"params","type":"tuple"}],"name":"getData","outputs":[{"internalType":"bytes","name":"","type":"bytes"}],"stateMutability":"nonpayable","type":"function"},{"inputs":[],"name":"uniV2Bridge","outputs":[{"internalType":"address","name":"","type":"address"}],"stateMutability":"view","type":"function"},{"inputs":[],"name":"uniV3Bridge","outputs":[{"internalType":"address","name":"","type":"address"}],"stateMutability":"view","type":"function"},{"inputs":[],"name":"uniV3TwapBridge","outputs":[{"internalType":"address","name":"","type":"address"}],"stateMutability":"view","type":"function"}],"evm":{"bytecode":{"linkReferences":{},"object":"610100346100c857601f610e3b38819003918201601f19168301916001600160401b038311848410176100cc578084926080946040528339810103126100c857610048816100e0565b90610055602082016100e0565b61006d6060610066604085016100e0565b93016100e0565b9260805260a05260c05260e052604051610d4690816100f5823960805181818161090a0152610bc2015260a05181818160b20152610c76015260c0518181816104e70152610cd5015260e0518181816107c0015261094e0152f35b5f80fd5b634e487b7160e01b5f52604160045260245ffd5b51906001600160a01b03821682036100c85756fe60806040526004361015610011575f80fd5b5f3560e01c80630b1403831461097d57806313be54ff14610939578063380cc26c146108f5578063406304ea146105d15780635585e0301461051657806357bafe4d146104d2578063752e3c1c14610417578063a57524241461035c578063ad8215d0146102a1578063cddde491146101e6578063ebb396d5146100e55763f0c8e5a41461009d575f80fd5b346100e1575f3660031901126100e1576040517f00000000000000000000000000000000000000000000000000000000000000006001600160a01b03168152602090f35b5f80fd5b346100e1575f3660031901126100e1576040515f5f548060011c906001811680156101dc575b6020831081146101c8578285529081156101a45750600114610148575b6101448361013881850382610a38565b60405191829182610a5a565b0390f35b5f8080527f290decd9548b62a8d60345a988386fc84ba6bc95484008f6362f93160ef3e563939250905b80821061018a57509091508101602001610138610128565b919260018160209254838588010152019101909291610172565b60ff191660208086019190915291151560051b840190910191506101389050610128565b634e487b7160e01b5f52602260045260245ffd5b91607f169161010b565b346100e1575f3660031901126100e1576040515f6003548060011c90600181168015610297575b6020831081146101c8578285529081156101a45750600114610239576101448361013881850382610a38565b60035f9081527fc2575a0e9e593c00f959f8c92f12db2869c3395a3b0502d05e2516446f71f85b939250905b80821061027d57509091508101602001610138610128565b919260018160209254838588010152019101909291610265565b91607f169161020d565b346100e1575f3660031901126100e1576040515f6002548060011c90600181168015610352575b6020831081146101c8578285529081156101a457506001146102f4576101448361013881850382610a38565b60025f9081527f405787fa12a823e0f2b7631cc41b3ba8828b3321ca811111fa75cd3aa3bb5ace939250905b80821061033857509091508101602001610138610128565b919260018160209254838588010152019101909291610320565b91607f16916102c8565b346100e1575f3660031901126100e1576040515f6006548060011c9060018116801561040d575b6020831081146101c8578285529081156101a457506001146103af576101448361013881850382610a38565b60065f9081527ff652222313e28459528d920b65115c16c04f3efc82aaedc97be59f3f377c0d3f939250905b8082106103f357509091508101602001610138610128565b9192600181602092548385880101520191019092916103db565b91607f1691610383565b346100e1575f3660031901126100e1576040515f6005548060011c906001811680156104c8575b6020831081146101c8578285529081156101a4575060011461046a576101448361013881850382610a38565b60055f9081527f036b6384b5eca791c62761152d0c79bb0604c104a5fb6f4eb0703f3154bb3db0939250905b8082106104ae57509091508101602001610138610128565b919260018160209254838588010152019101909291610496565b91607f169161043e565b346100e1575f3660031901126100e1576040517f00000000000000000000000000000000000000000000000000000000000000006001600160a01b03168152602090f35b346100e1575f3660031901126100e1576040515f6004548060011c906001811680156105c7575b6020831081146101c8578285529081156101a45750600114610569576101448361013881850382610a38565b60045f9081527f8a35acfbc15ff81a39ae7d344fd709f28e8600b4aa8c65c6b64bfe7fe36bd19b939250905b8082106105ad57509091508101602001610138610128565b919260018160209254838588010152019101909291610595565b91607f169161053d565b346100e1576101203660031901126100e157604051610120810181811067ffffffffffffffff8211176108e1576040526004356001600160a01b03811681036100e15781526024356001600160a01b03811681036100e15760208201526044356001600160a01b03811681036100e157604082015260643560608201526084356001600160801b03811681036100e157608082015260a4356001600160801b03811681036100e15760a082015260c43561ffff811681036100e15760c082015260e43580151581036100e15760e0820152610104359060ff821682036100e157816101008201525f915f5f5f5f915f935f955f97600182166108cc575b600282166108b6575b600482166108a0575b6018821661079c575b506020811661078e575b604016610780575b6040519760ff1660208901526001600160801b031660408801526001600160801b031660608701526001600160801b031660808601526001600160801b031660a085015267ffffffffffffffff1660c084015261ffff1660e083015261ffff16610100820152610100815261077261012082610a38565b604051610144819282610a5a565b955095604017955f956106fb565b6020909817975f96506106f3565b5f6107bb9160405180938192632031827560e11b835260048301610af7565b0381837f00000000000000000000000000000000000000000000000000000000000000006001600160a01b03165af15f918161087c575b5061082a57505f805b6008831661081c575b5060108216156106e9576010909917989550896106e9565b6008909a179995508a610804565b8060208061083d93518301019101610b88565b9080610857575067ffffffffffffffff5f5b9116906107fb565b6001600160801b03670de0b6b3a764000067ffffffffffffffff9260401b041661084f565b6108999192503d805f833e6108918183610a38565b810190610a84565b908b6107f2565b935097600417976108b084610cb1565b936106e0565b925097600217976108c683610c52565b926106d7565b6001995091506108db82610b9e565b916106ce565b634e487b7160e01b5f52604160045260245ffd5b346100e1575f3660031901126100e1576040517f00000000000000000000000000000000000000000000000000000000000000006001600160a01b03168152602090f35b346100e1575f3660031901126100e1576040517f00000000000000000000000000000000000000000000000000000000000000006001600160a01b03168152602090f35b346100e1575f3660031901126100e1576040515f6001548060011c90600181168015610a2e575b6020831081146101c8578285529081156101a457506001146109d0576101448361013881850382610a38565b60015f9081527fb10e2d527612073b26eecdfd717e6a320cf44b4afac2b0732d9fcbe2b7fa0cf6939250905b808210610a1457509091508101602001610138610128565b9192600181602092548385880101520191019092916109fc565b91607f16916109a4565b90601f8019910116810190811067ffffffffffffffff8211176108e157604052565b602060409281835280519182918282860152018484015e5f828201840152601f01601f1916010190565b6020818303126100e15780519067ffffffffffffffff82116100e1570181601f820112156100e15780519067ffffffffffffffff82116108e15760405192610ad6601f8401601f191660200185610a38565b828452602083830101116100e157815f9260208093018386015e8301015290565b91909161010060ff8161012084019560018060a01b03815116855260018060a01b03602082015116602086015260018060a01b036040820151166040860152606081015160608601526001600160801b0360808201511660808601526001600160801b0360a08201511660a086015261ffff60c08201511660c086015260e0810151151560e0860152015116910152565b91908260409103126100e1576020825192015190565b5f610bbd9160405180938192632031827560e11b835260048301610af7565b0381837f00000000000000000000000000000000000000000000000000000000000000006001600160a01b03165af15f9181610c36575b50610bfe57505f90565b80602080610c1193518301019101610b88565b5080610c1c57505f90565b670de0b6b3a76400006001600160801b039160401b041690565b610c4b9192503d805f833e6108918183610a38565b905f610bf4565b5f610c719160405180938192632031827560e11b835260048301610af7565b0381837f00000000000000000000000000000000000000000000000000000000000000006001600160a01b03165af15f9181610c365750610bfe57505f90565b5f610cd09160405180938192632031827560e11b835260048301610af7565b0381837f00000000000000000000000000000000000000000000000000000000000000006001600160a01b03165af15f9181610c365750610bfe57505f9056fea26469706673582212209de86c86b40c42dd95ba895015af4a0014f0f9d0282f0d9ff1a40d9e9ed7538564736f6c634300081e0033","opcodes":"PUSH2 0x100 CALLVALUE PUSH2 0xC8 JUMPI PUSH1 0x1F PUSH2 0xE3B CODESIZE DUP2 SWAP1 SUB SWAP2 DUP3 ADD PUSH1 0x1F NOT AND DUP4 ADD SWAP2 PUSH1 0x1 PUSH1 0x1 PUSH1 0x40 SHL SUB DUP4 GT DUP5 DUP5 LT OR PUSH2 0xCC JUMPI DUP1 DUP5 SWAP3 PUSH1 0x80 SWAP5 PUSH1 0x40 MSTORE DUP4 CODECOPY DUP2 ADD SUB SLT PUSH2 0xC8 JUMPI PUSH2 0x48 DUP2 PUSH2 0xE0 JUMP JUMPDEST SWAP1 PUSH2 0x55 PUSH1 0x20 DUP3 ADD PUSH2 0xE0 JUMP JUMPDEST PUSH2 0x6D PUSH1 0x60 PUSH2 0x66 PUSH1 0x40 DUP6 ADD PUSH2 0xE0 JUMP JUMPDEST SWAP4 ADD PUSH2 0xE0 JUMP JUMPDEST SWAP3 PUSH1 0x80 MSTORE PUSH1 0xA0 MSTORE PUSH1 0xC0 MSTORE PUSH1 0xE0 MSTORE PUSH1 0x40 MLOAD PUSH2 0xD46 SWAP1 DUP2 PUSH2 0xF5 DUP3 CODECOPY PUSH1 0x80 MLOAD DUP2 DUP2 DUP2 PUSH2 0x90A ADD MSTORE PUSH2 0xBC2 ADD MSTORE PUSH1 0xA0 MLOAD DUP2 DUP2 DUP2 PUSH1 0xB2 ADD MSTORE PUSH2 0xC76 ADD MSTORE PUSH1 0xC0 MLOAD DUP2 DUP2 DUP2 PUSH2 0x4E7 ADD MSTORE PUSH2 0xCD5 ADD MSTORE PUSH1 0xE0 MLOAD DUP2 DUP2 DUP2 PUSH2 0x7C0 ADD MSTORE PUSH2 0x94E ADD MSTORE RETURN JUMPDEST PUSH0 DUP1 REVERT JUMPDEST PUSH4 0x4E487B71 PUSH1 0xE0 SHL PUSH0 MSTORE PUSH1 0x41 PUSH1 0x4 MSTORE PUSH1 0x24 PUSH0 REVERT JUMPDEST MLOAD SWAP1 PUSH1 0x1 PUSH1 0x1 PUSH1 0xA0 SHL SUB DUP3 AND DUP3 SUB PUSH2 0xC8 JUMPI JUMP INVALID PUSH1 0x80 PUSH1 0x40 MSTORE PUSH1 0x4 CALLDATASIZE LT ISZERO PUSH2 0x11 JUMPI PUSH0 DUP1 REVERT JUMPDEST PUSH0 CALLDATALOAD PUSH1 0xE0 SHR DUP1 PUSH4 0xB140383 EQ PUSH2 0x97D JUMPI DUP1 PUSH4 0x13BE54FF EQ PUSH2 0x939 JUMPI DUP1 PUSH4 0x380CC26C EQ PUSH2 0x8F5 JUMPI DUP1 PUSH4 0x406304EA EQ PUSH2 0x5D1 JUMPI DUP1 PUSH4 0x5585E030 EQ PUSH2 0x516 JUMPI DUP1 PUSH4 0x57BAFE4D EQ PUSH2 0x4D2 JUMPI DUP1 PUSH4 0x752E3C1C EQ PUSH2 0x417 JUMPI DUP1 PUSH4 0xA5752424 EQ PUSH2 0x35C JUMPI DUP1 PUSH4 0xAD8215D0 EQ PUSH2 0x2A1 JUMPI DUP1 PUSH4 0xCDDDE491 EQ PUSH2 0x1E6 JUMPI DUP1 PUSH4 0xEBB396D5 EQ PUSH2 0xE5 JUMPI PUSH4 0xF0C8E5A4 EQ PUSH2 0x9D JUMPI PUSH0 DUP1 REVERT JUMPDEST CALLVALUE PUSH2 0xE1 JUMPI PUSH0 CALLDATASIZE PUSH1 0x3 NOT ADD SLT PUSH2 0xE1 JUMPI PUSH1 0x40 MLOAD PUSH32 0x0 PUSH1 0x1 PUSH1 0x1 PUSH1 0xA0 SHL SUB AND DUP2 MSTORE PUSH1 0x20 SWAP1 RETURN JUMPDEST PUSH0 DUP1 REVERT JUMPDEST CALLVALUE PUSH2 0xE1 JUMPI PUSH0 CALLDATASIZE PUSH1 0x3 NOT ADD SLT PUSH2 0xE1 JUMPI PUSH1 0x40 MLOAD PUSH0 PUSH0 SLOAD DUP1 PUSH1 0x1 SHR SWAP1 PUSH1 0x1 DUP2 AND DUP1 ISZERO PUSH2 0x1DC JUMPI JUMPDEST PUSH1 0x20 DUP4 LT DUP2 EQ PUSH2 0x1C8 JUMPI DUP3 DUP6 MSTORE SWAP1 DUP2 ISZERO PUSH2 0x1A4 JUMPI POP PUSH1 0x1 EQ PUSH2 0x148 JUMPI JUMPDEST PUSH2 0x144 DUP4 PUSH2 0x138 DUP2 DUP6 SUB DUP3 PUSH2 0xA38 JUMP JUMPDEST PUSH1 0x40 MLOAD SWAP2 DUP3 SWAP2 DUP3 PUSH2 0xA5A JUMP JUMPDEST SUB SWAP1 RETURN JUMPDEST PUSH0 DUP1 DUP1 MSTORE PUSH32 0x290DECD9548B62A8D60345A988386FC84BA6BC95484008F6362F93160EF3E563 SWAP4 SWAP3 POP SWAP1 JUMPDEST DUP1 DUP3 LT PUSH2 0x18A JUMPI POP SWAP1 SWAP2 POP DUP2 ADD PUSH1 0x20 ADD PUSH2 0x138 PUSH2 0x128 JUMP JUMPDEST SWAP2 SWAP3 PUSH1 0x1 DUP2 PUSH1 0x20 SWAP3 SLOAD DUP4 DUP6 DUP9 ADD ADD MSTORE ADD SWAP2 ADD SWAP1 SWAP3 SWAP2 PUSH2 0x172 JUMP JUMPDEST PUSH1 0xFF NOT AND PUSH1 0x20 DUP1 DUP7 ADD SWAP2 SWAP1 SWAP2 MSTORE SWAP2 ISZERO ISZERO PUSH1 0x5 SHL DUP5 ADD SWAP1 SWAP2 ADD SWAP2 POP PUSH2 0x138 SWAP1 POP PUSH2 0x128 JUMP JUMPDEST PUSH4 0x4E487B71 PUSH1 0xE0 SHL PUSH0 MSTORE PUSH1 0x22 PUSH1 0x4 MSTORE PUSH1 0x24 PUSH0 REVERT JUMPDEST SWAP2 PUSH1 0x7F AND SWAP2 PUSH2 0x10B JUMP JUMPDEST CALLVALUE PUSH2 0xE1 JUMPI PUSH0 CALLDATASIZE PUSH1 0x3 NOT ADD SLT PUSH2 0xE1 JUMPI PUSH1 0x40 MLOAD PUSH0 PUSH1 0x3 SLOAD DUP1 PUSH1 0x1 SHR SWAP1 PUSH1 0x1 DUP2 AND DUP1 ISZERO PUSH2 0x297 JUMPI JUMPDEST PUSH1 0x20 DUP4 LT DUP2 EQ PUSH2 0x1C8 JUMPI DUP3 DUP6 MSTORE SWAP1 DUP2 ISZERO PUSH2 0x1A4 JUMPI POP PUSH1 0x1 EQ PUSH2 0x239 JUMPI PUSH2 0x144 DUP4 PUSH2 0x138 DUP2 DUP6 SUB DUP3 PUSH2 0xA38 JUMP JUMPDEST PUSH1 0x3 PUSH0 SWAP1 DUP2 MSTORE PUSH32 0xC2575A0E9E593C00F959F8C92F12DB2869C3395A3B0502D05E2516446F71F85B SWAP4 SWAP3 POP SWAP1 JUMPDEST DUP1 DUP3 LT PUSH2 0x27D JUMPI POP SWAP1 SWAP2 POP DUP2 ADD PUSH1 0x20 ADD PUSH2 0x138 PUSH2 0x128 JUMP JUMPDEST SWAP2 SWAP3 PUSH1 0x1 DUP2 PUSH1 0x20 SWAP3 SLOAD DUP4 DUP6 DUP9 ADD ADD MSTORE ADD SWAP2 ADD SWAP1 SWAP3 SWAP2 PUSH2 0x265 JUMP JUMPDEST SWAP2 PUSH1 0x7F AND SWAP2 PUSH2 0x20D JUMP JUMPDEST CALLVALUE PUSH2 0xE1 JUMPI PUSH0 CALLDATASIZE PUSH1 0x3 NOT ADD SLT PUSH2 0xE1 JUMPI PUSH1 0x40 MLOAD PUSH0 PUSH1 0x2 SLOAD DUP1 PUSH1 0x1 SHR SWAP1 PUSH1 0x1 DUP2 AND DUP1 ISZERO PUSH2 0x352 JUMPI JUMPDEST PUSH1 0x20 DUP4 LT DUP2 EQ PUSH2 0x1C8 JUMPI DUP3 DUP6 MSTORE SWAP1 DUP2 ISZERO PUSH2 0x1A4 JUMPI POP PUSH1 0x1 EQ PUSH2 0x2F4 JUMPI PUSH2 0x144 DUP4 PUSH2 0x138 DUP2 DUP6 SUB DUP3 PUSH2 0xA38 JUMP JUMPDEST PUSH1 0x2 PUSH0 SWAP1 DUP2 MSTORE PUSH32 0x405787FA12A823E0F2B7631CC41B3BA8828B3321CA811111FA75CD3AA3BB5ACE SWAP4 SWAP3 POP SWAP1 JUMPDEST DUP1 DUP3 LT PUSH2 0x338 JUMPI POP SWAP1 SWAP2 POP DUP2 ADD PUSH1 0x20 ADD PUSH2 0x138 PUSH2 0x128 JUMP JUMPDEST SWAP2 SWAP3 PUSH1 0x1 DUP2 PUSH1 0x20 SWAP3 SLOAD DUP4 DUP6 DUP9 ADD ADD MSTORE ADD SWAP2 ADD SWAP1 SWAP3 SWAP2 PUSH2 0x320 JUMP JUMPDEST SWAP2 PUSH1 0x7F AND SWAP2 PUSH2 0x2C8 JUMP JUMPDEST CALLVALUE PUSH2 0xE1 JUMPI PUSH0 CALLDATASIZE PUSH1 0x3 NOT ADD SLT PUSH2 0xE1 JUMPI PUSH1 0x40 MLOAD PUSH0 PUSH1 0x6 SLOAD DUP1 PUSH1 0x1 SHR SWAP1 PUSH1 0x1 DUP2 AND DUP1 ISZERO PUSH2 0x40D JUMPI JUMPDEST PUSH1 0x20 DUP4 LT DUP2 EQ PUSH2 0x1C8 JUMPI DUP3 DUP6 MSTORE SWAP1 DUP2 ISZERO PUSH2 0x1A4 JUMPI POP PUSH1 0x1 EQ PUSH2 0x3AF JUMPI PUSH2 0x144 DUP4 PUSH2 0x138 DUP2 DUP6 SUB DUP3 PUSH2 0xA38 JUMP JUMPDEST PUSH1 0x6 PUSH0 SWAP1 DUP2 MSTORE PUSH32 0xF652222313E28459528D920B65115C16C04F3EFC82AAEDC97BE59F3F377C0D3F SWAP4 SWAP3 POP SWAP1 JUMPDEST DUP1 DUP3 LT PUSH2 0x3F3 JUMPI POP SWAP1 SWAP2 POP DUP2 ADD PUSH1 0x20 ADD PUSH2 0x138 PUSH2 0x128 JUMP JUMPDEST SWAP2 SWAP3 PUSH1 0x1 DUP2 PUSH1 0x20 SWAP3 SLOAD DUP4 DUP6 DUP9 ADD ADD MSTORE ADD SWAP2 ADD SWAP1 SWAP3 SWAP2 PUSH2 0x3DB JUMP JUMPDEST SWAP2 PUSH1 0x7F AND SWAP2 PUSH2 0x383 JUMP JUMPDEST CALLVALUE PUSH2 0xE1 JUMPI PUSH0 CALLDATASIZE PUSH1 0x3 NOT ADD SLT PUSH2 0xE1 JUMPI PUSH1 0x40 MLOAD PUSH0 PUSH1 0x5 SLOAD DUP1 PUSH1 0x1 SHR SWAP1 PUSH1 0x1 DUP2 AND DUP1 ISZERO PUSH2 0x4C8 JUMPI JUMPDEST PUSH1 0x20 DUP4 LT DUP2 EQ PUSH2 0x1C8 JUMPI DUP3 DUP6 MSTORE SWAP1 DUP2 ISZERO PUSH2 0x1A4 JUMPI POP PUSH1 0x1 EQ PUSH2 0x46A JUMPI PUSH2 0x144 DUP4 PUSH2 0x138 DUP2 DUP6 SUB DUP3 PUSH2 0xA38 JUMP JUMPDEST PUSH1 0x5 PUSH0 SWAP1 DUP2 MSTORE PUSH32 0x36B6384B5ECA791C62761152D0C79BB0604C104A5FB6F4EB0703F3154BB3DB0 SWAP4 SWAP3 POP SWAP1 JUMPDEST DUP1 DUP3 LT PUSH2 0x4AE JUMPI POP SWAP1 SWAP2 POP DUP2 ADD PUSH1 0x20 ADD PUSH2 0x138 PUSH2 0x128 JUMP JUMPDEST SWAP2 SWAP3 PUSH1 0x1 DUP2 PUSH1 0x20 SWAP3 SLOAD DUP4 DUP6 DUP9 ADD ADD MSTORE ADD SWAP2 ADD SWAP1 SWAP3 SWAP2 PUSH2 0x496 JUMP JUMPDEST SWAP2 PUSH1 0x7F AND SWAP2 PUSH2 0x43E JUMP JUMPDEST CALLVALUE PUSH2 0xE1 JUMPI PUSH0 CALLDATASIZE PUSH1 0x3 NOT ADD SLT PUSH2 0xE1 JUMPI PUSH1 0x40 MLOAD PUSH32 0x0 PUSH1 0x1 PUSH1 0x1 PUSH1 0xA0 SHL SUB AND DUP2 MSTORE PUSH1 0x20 SWAP1 RETURN JUMPDEST CALLVALUE PUSH2 0xE1 JUMPI PUSH0 CALLDATASIZE PUSH1 0x3 NOT ADD SLT PUSH2 0xE1 JUMPI PUSH1 0x40 MLOAD PUSH0 PUSH1 0x4 SLOAD DUP1 PUSH1 0x1 SHR SWAP1 PUSH1 0x1 DUP2 AND DUP1 ISZERO PUSH2 0x5C7 JUMPI JUMPDEST PUSH1 0x20 DUP4 LT DUP2 EQ PUSH2 0x1C8 JUMPI DUP3 DUP6 MSTORE SWAP1 DUP2 ISZERO PUSH2 0x1A4 JUMPI POP PUSH1 0x1 EQ PUSH2 0x569 JUMPI PUSH2 0x144 DUP4 PUSH2 0x138 DUP2 DUP6 SUB DUP3 PUSH2 0xA38 JUMP JUMPDEST PUSH1 0x4 PUSH0 SWAP1 DUP2 MSTORE PUSH32 0x8A35ACFBC15FF81A39AE7D344FD709F28E8600B4AA8C65C6B64BFE7FE36BD19B SWAP4 SWAP3 POP SWAP1 JUMPDEST DUP1 DUP3 LT PUSH2 0x5AD JUMPI POP SWAP1 SWAP2 POP DUP2 ADD PUSH1 0x20 ADD PUSH2 0x138 PUSH2 0x128 JUMP JUMPDEST SWAP2 SWAP3 PUSH1 0x1 DUP2 PUSH1 0x20 SWAP3 SLOAD DUP4 DUP6 DUP9 ADD ADD MSTORE ADD SWAP2 ADD SWAP1 SWAP3 SWAP2 PUSH2 0x595 JUMP JUMPDEST SWAP2 PUSH1 0x7F AND SWAP2 PUSH2 0x53D JUMP JUMPDEST CALLVALUE PUSH2 0xE1 JUMPI PUSH2 0x120 CALLDATASIZE PUSH1 0x3 NOT ADD SLT PUSH2 0xE1 JUMPI PUSH1 0x40 MLOAD PUSH2 0x120 DUP2 ADD DUP2 DUP2 LT PUSH8 0xFFFFFFFFFFFFFFFF DUP3 GT OR PUSH2 0x8E1 JUMPI PUSH1 0x40 MSTORE PUSH1 0x4 CALLDATALOAD PUSH1 0x1 PUSH1 0x1 PUSH1 0xA0 SHL SUB DUP2 AND DUP2 SUB PUSH2 0xE1 JUMPI DUP2 MSTORE PUSH1 0x24 CALLDATALOAD PUSH1 0x1 PUSH1 0x1 PUSH1 0xA0 SHL SUB DUP2 AND DUP2 SUB PUSH2 0xE1 JUMPI PUSH1 0x20 DUP3 ADD MSTORE PUSH1 0x44 CALLDATALOAD PUSH1 0x1 PUSH1 0x1 PUSH1 0xA0 SHL SUB DUP2 AND DUP2 SUB PUSH2 0xE1 JUMPI PUSH1 0x40 DUP3 ADD MSTORE PUSH1 0x64 CALLDATALOAD PUSH1 0x60 DUP3 ADD MSTORE PUSH1 0x84 CALLDATALOAD PUSH1 0x1 PUSH1 0x1 PUSH1 0x80 SHL SUB DUP2 AND DUP2 SUB PUSH2 0xE1 JUMPI PUSH1 0x80 DUP3 ADD MSTORE PUSH1 0xA4 CALLDATALOAD PUSH1 0x1 PUSH1 0x1 PUSH1 0x80 SHL SUB DUP2 AND DUP2 SUB PUSH2 0xE1 JUMPI PUSH1 0xA0 DUP3 ADD MSTORE PUSH1 0xC4 CALLDATALOAD PUSH2 0xFFFF DUP2 AND DUP2 SUB PUSH2 0xE1 JUMPI PUSH1 0xC0 DUP3 ADD MSTORE PUSH1 0xE4 CALLDATALOAD DUP1 ISZERO ISZERO DUP2 SUB PUSH2 0xE1 JUMPI PUSH1 0xE0 DUP3 ADD MSTORE PUSH2 0x104 CALLDATALOAD SWAP1 PUSH1 0xFF DUP3 AND DUP3 SUB PUSH2 0xE1 JUMPI DUP2 PUSH2 0x100 DUP3 ADD MSTORE PUSH0 SWAP2 PUSH0 PUSH0 PUSH0 PUSH0 SWAP2 PUSH0 SWAP4 PUSH0 SWAP6 PUSH0 SWAP8 PUSH1 0x1 DUP3 AND PUSH2 0x8CC JUMPI JUMPDEST PUSH1 0x2 DUP3 AND PUSH2 0x8B6 JUMPI JUMPDEST PUSH1 0x4 DUP3 AND PUSH2 0x8A0 JUMPI JUMPDEST PUSH1 0x18 DUP3 AND PUSH2 0x79C JUMPI JUMPDEST POP PUSH1 0x20 DUP2 AND PUSH2 0x78E JUMPI JUMPDEST PUSH1 0x40 AND PUSH2 0x780 JUMPI JUMPDEST PUSH1 0x40 MLOAD SWAP8 PUSH1 0xFF AND PUSH1 0x20 DUP10 ADD MSTORE PUSH1 0x1 PUSH1 0x1 PUSH1 0x80 SHL SUB AND PUSH1 0x40 DUP9 ADD MSTORE PUSH1 0x1 PUSH1 0x1 PUSH1 0x80 SHL SUB AND PUSH1 0x60 DUP8 ADD MSTORE PUSH1 0x1 PUSH1 0x1 PUSH1 0x80 SHL SUB AND PUSH1 0x80 DUP7 ADD MSTORE PUSH1 0x1 PUSH1 0x1 PUSH1 0x80 SHL SUB AND PUSH1 0xA0 DUP6 ADD MSTORE PUSH8 0xFFFFFFFFFFFFFFFF AND PUSH1 0xC0 DUP5 ADD MSTORE PUSH2 0xFFFF AND PUSH1 0xE0 DUP4 ADD MSTORE PUSH2 0xFFFF AND PUSH2 0x100 DUP3 ADD MSTORE PUSH2 0x100 DUP2 MSTORE PUSH2 0x772 PUSH2 0x120 DUP3 PUSH2 0xA38 JUMP JUMPDEST PUSH1 0x40 MLOAD PUSH2 0x144 DUP2 SWAP3 DUP3 PUSH2 0xA5A JUMP JUMPDEST SWAP6 POP SWAP6 PUSH1 0x40 OR SWAP6 PUSH0 SWAP6 PUSH2 0x6FB JUMP JUMPDEST PUSH1 0x20 SWAP1 SWAP9 OR SWAP8 PUSH0 SWAP7 POP PUSH2 0x6F3 JUMP JUMPDEST PUSH0 PUSH2 0x7BB SWAP2 PUSH1 0x40 MLOAD DUP1 SWAP4 DUP2 SWAP3 PUSH4 0x20318275 PUSH1 0xE1 SHL DUP4 MSTORE PUSH1 0x4 DUP4 ADD PUSH2 0xAF7 JUMP JUMPDEST SUB DUP2 DUP4 PUSH32 0x0 PUSH1 0x1 PUSH1 0x1 PUSH1 0xA0 SHL SUB AND GAS CALL PUSH0 SWAP2 DUP2 PUSH2 0x87C JUMPI JUMPDEST POP PUSH2 0x82A JUMPI POP PUSH0 DUP1 JUMPDEST PUSH1 0x8 DUP4 AND PUSH2 0x81C JUMPI JUMPDEST POP PUSH1 0x10 DUP3 AND ISZERO PUSH2 0x6E9 JUMPI PUSH1 0x10 SWAP1 SWAP10 OR SWAP9 SWAP6 POP DUP10 PUSH2 0x6E9 JUMP JUMPDEST PUSH1 0x8 SWAP1 SWAP11 OR SWAP10 SWAP6 POP DUP11 PUSH2 0x804 JUMP JUMPDEST DUP1 PUSH1 0x20 DUP1 PUSH2 0x83D SWAP4 MLOAD DUP4 ADD ADD SWAP2 ADD PUSH2 0xB88 JUMP JUMPDEST SWAP1 DUP1 PUSH2 0x857 JUMPI POP PUSH8 0xFFFFFFFFFFFFFFFF PUSH0 JUMPDEST SWAP2 AND SWAP1 PUSH2 0x7FB JUMP JUMPDEST PUSH1 0x1 PUSH1 0x1 PUSH1 0x80 SHL SUB PUSH8 0xDE0B6B3A7640000 PUSH8 0xFFFFFFFFFFFFFFFF SWAP3 PUSH1 0x40 SHL DIV AND PUSH2 0x84F JUMP JUMPDEST PUSH2 0x899 SWAP2 SWAP3 POP RETURNDATASIZE DUP1 PUSH0 DUP4 RETURNDATACOPY PUSH2 0x891 DUP2 DUP4 PUSH2 0xA38 JUMP JUMPDEST DUP2 ADD SWAP1 PUSH2 0xA84 JUMP JUMPDEST SWAP1 DUP12 PUSH2 0x7F2 JUMP JUMPDEST SWAP4 POP SWAP8 PUSH1 0x4 OR SWAP8 PUSH2 0x8B0 DUP5 PUSH2 0xCB1 JUMP JUMPDEST SWAP4 PUSH2 0x6E0 JUMP JUMPDEST SWAP3 POP SWAP8 PUSH1 0x2 OR SWAP8 PUSH2 0x8C6 DUP4 PUSH2 0xC52 JUMP JUMPDEST SWAP3 PUSH2 0x6D7 JUMP JUMPDEST PUSH1 0x1 SWAP10 POP SWAP2 POP PUSH2 0x8DB DUP3 PUSH2 0xB9E JUMP JUMPDEST SWAP2 PUSH2 0x6CE JUMP JUMPDEST PUSH4 0x4E487B71 PUSH1 0xE0 SHL PUSH0 MSTORE PUSH1 0x41 PUSH1 0x4 MSTORE PUSH1 0x24 PUSH0 REVERT JUMPDEST CALLVALUE PUSH2 0xE1 JUMPI PUSH0 CALLDATASIZE PUSH1 0x3 NOT ADD SLT PUSH2 0xE1 JUMPI PUSH1 0x40 MLOAD PUSH32 0x0 PUSH1 0x1 PUSH1 0x1 PUSH1 0xA0 SHL SUB AND DUP2 MSTORE PUSH1 0x20 SWAP1 RETURN JUMPDEST CALLVALUE PUSH2 0xE1 JUMPI PUSH0 CALLDATASIZE PUSH1 0x3 NOT ADD SLT PUSH2 0xE1 JUMPI PUSH1 0x40 MLOAD PUSH32 0x0 PUSH1 0x1 PUSH1 0x1 PUSH1 0xA0 SHL SUB AND DUP2 MSTORE PUSH1 0x20 SWAP1 RETURN JUMPDEST CALLVALUE PUSH2 0xE1 JUMPI PUSH0 CALLDATASIZE PUSH1 0x3 NOT ADD SLT PUSH2 0xE1 JUMPI PUSH1 0x40 MLOAD PUSH0 PUSH1 0x1 SLOAD DUP1 PUSH1 0x1 SHR SWAP1 PUSH1 0x1 DUP2 AND DUP1 ISZERO PUSH2 0xA2E JUMPI JUMPDEST PUSH1 0x20 DUP4 LT DUP2 EQ PUSH2 0x1C8 JUMPI DUP3 DUP6 MSTORE SWAP1 DUP2 ISZERO PUSH2 0x1A4 JUMPI POP PUSH1 0x1 EQ PUSH2 0x9D0 JUMPI PUSH2 0x144 DUP4 PUSH2 0x138 DUP2 DUP6 SUB DUP3 PUSH2 0xA38 JUMP JUMPDEST PUSH1 0x1 PUSH0 SWAP1 DUP2 MSTORE PUSH32 0xB10E2D527612073B26EECDFD717E6A320CF44B4AFAC2B0732D9FCBE2B7FA0CF6 SWAP4 SWAP3 POP SWAP1 JUMPDEST DUP1 DUP3 LT PUSH2 0xA14 JUMPI POP SWAP1 SWAP2 POP DUP2 ADD PUSH1 0x20 ADD PUSH2 0x138 PUSH2 0x128 JUMP JUMPDEST SWAP2 SWAP3 PUSH1 0x1 DUP2 PUSH1 0x20 SWAP3 SLOAD DUP4 DUP6 DUP9 ADD ADD MSTORE ADD SWAP2 ADD SWAP1 SWAP3 SWAP2 PUSH2 0x9FC JUMP JUMPDEST SWAP2 PUSH1 0x7F AND SWAP2 PUSH2 0x9A4 JUMP JUMPDEST SWAP1 PUSH1 0x1F DUP1 NOT SWAP2 ADD AND DUP2 ADD SWAP1 DUP2 LT PUSH8 0xFFFFFFFFFFFFFFFF DUP3 GT OR PUSH2 0x8E1 JUMPI PUSH1 0x40 MSTORE JUMP JUMPDEST PUSH1 0x20 PUSH1 0x40 SWAP3 DUP2 DUP4 MSTORE DUP1 MLOAD SWAP2 DUP3 SWAP2 DUP3 DUP3 DUP7 ADD MSTORE ADD DUP5 DUP5 ADD MCOPY PUSH0 DUP3 DUP3 ADD DUP5 ADD MSTORE PUSH1 0x1F ADD PUSH1 0x1F NOT AND ADD ADD SWAP1 JUMP JUMPDEST PUSH1 0x20 DUP2 DUP4 SUB SLT PUSH2 0xE1 JUMPI DUP1 MLOAD SWAP1 PUSH8 0xFFFFFFFFFFFFFFFF DUP3 GT PUSH2 0xE1 JUMPI ADD DUP2 PUSH1 0x1F DUP3 ADD SLT ISZERO PUSH2 0xE1 JUMPI DUP1 MLOAD SWAP1 PUSH8 0xFFFFFFFFFFFFFFFF DUP3 GT PUSH2 0x8E1 JUMPI PUSH1 0x40 MLOAD SWAP3 PUSH2 0xAD6 PUSH1 0x1F DUP5 ADD PUSH1 0x1F NOT AND PUSH1 0x20 ADD DUP6 PUSH2 0xA38 JUMP JUMPDEST DUP3 DUP5 MSTORE PUSH1 0x20 DUP4 DUP4 ADD ADD GT PUSH2 0xE1 JUMPI DUP2 PUSH0 SWAP3 PUSH1 0x20 DUP1 SWAP4 ADD DUP4 DUP7 ADD MCOPY DUP4 ADD ADD MSTORE SWAP1 JUMP JUMPDEST SWAP2 SWAP1 SWAP2 PUSH2 0x100 PUSH1 0xFF DUP2 PUSH2 0x120 DUP5 ADD SWAP6 PUSH1 0x1 DUP1 PUSH1 0xA0 SHL SUB DUP2 MLOAD AND DUP6 MSTORE PUSH1 0x1 DUP1 PUSH1 0xA0 SHL SUB PUSH1 0x20 DUP3 ADD MLOAD AND PUSH1 0x20 DUP7 ADD MSTORE PUSH1 0x1 DUP1 PUSH1 0xA0 SHL SUB PUSH1 0x40 DUP3 ADD MLOAD AND PUSH1 0x40 DUP7 ADD MSTORE PUSH1 0x60 DUP2 ADD MLOAD PUSH1 0x60 DUP7 ADD MSTORE PUSH1 0x1 PUSH1 0x1 PUSH1 0x80 SHL SUB PUSH1 0x80 DUP3 ADD MLOAD AND PUSH1 0x80 DUP7 ADD MSTORE PUSH1 0x1 PUSH1 0x1 PUSH1 0x80 SHL SUB PUSH1 0xA0 DUP3 ADD MLOAD AND PUSH1 0xA0 DUP7 ADD MSTORE PUSH2 0xFFFF PUSH1 0xC0 DUP3 ADD MLOAD AND PUSH1 0xC0 DUP7 ADD MSTORE PUSH1 0xE0 DUP2 ADD MLOAD ISZERO ISZERO PUSH1 0xE0 DUP7 ADD MSTORE ADD MLOAD AND SWAP2 ADD MSTORE JUMP JUMPDEST SWAP2 SWAP1 DUP3 PUSH1 0x40 SWAP2 SUB SLT PUSH2 0xE1 JUMPI PUSH1 0x20 DUP3 MLOAD SWAP3 ADD MLOAD SWAP1 JUMP JUMPDEST PUSH0 PUSH2 0xBBD SWAP2 PUSH1 0x40 MLOAD DUP1 SWAP4 DUP2 SWAP3 PUSH4 0x20318275 PUSH1 0xE1 SHL DUP4 MSTORE PUSH1 0x4 DUP4 ADD PUSH2 0xAF7 JUMP JUMPDEST SUB DUP2 DUP4 PUSH32 0x0 PUSH1 0x1 PUSH1 0x1 PUSH1 0xA0 SHL SUB AND GAS CALL PUSH0 SWAP2 DUP2 PUSH2 0xC36 JUMPI JUMPDEST POP PUSH2 0xBFE JUMPI POP PUSH0 SWAP1 JUMP JUMPDEST DUP1 PUSH1 0x20 DUP1 PUSH2 0xC11 SWAP4 MLOAD DUP4 ADD ADD SWAP2 ADD PUSH2 0xB88 JUMP JUMPDEST POP DUP1 PUSH2 0xC1C JUMPI POP PUSH0 SWAP1 JUMP JUMPDEST PUSH8 0xDE0B6B3A7640000 PUSH1 0x1 PUSH1 0x1 PUSH1 0x80 SHL SUB SWAP2 PUSH1 0x40 SHL DIV AND SWAP1 JUMP JUMPDEST PUSH2 0xC4B SWAP2 SWAP3 POP RETURNDATASIZE DUP1 PUSH0 DUP4 RETURNDATACOPY PUSH2 0x891 DUP2 DUP4 PUSH2 0xA38 JUMP JUMPDEST SWAP1 PUSH0 PUSH2 0xBF4 JUMP JUMPDEST PUSH0 PUSH2 0xC71 SWAP2 PUSH1 0x40 MLOAD DUP1 SWAP4 DUP2 SWAP3 PUSH4 0x20318275 PUSH1 0xE1 SHL DUP4 MSTORE PUSH1 0x4 DUP4 ADD PUSH2 0xAF7 JUMP JUMPDEST SUB DUP2 DUP4 PUSH32 0x0 PUSH1 0x1 PUSH1 0x1 PUSH1 0xA0 SHL SUB AND GAS CALL PUSH0 SWAP2 DUP2 PUSH2 0xC36 JUMPI POP PUSH2 0xBFE JUMPI POP PUSH0 SWAP1 JUMP JUMPDEST PUSH0 PUSH2 0xCD0 SWAP2 PUSH1 0x40 MLOAD DUP1 SWAP4 DUP2 SWAP3 PUSH4 0x20318275 PUSH1 0xE1 SHL DUP4 MSTORE PUSH1 0x4 DUP4 ADD PUSH2 0xAF7 JUMP JUMPDEST SUB DUP2 DUP4 PUSH32 0x0 PUSH1 0x1 PUSH1 0x1 PUSH1 0xA0 SHL SUB AND GAS CALL PUSH0 SWAP2 DUP2 PUSH2 0xC36 JUMPI POP PUSH2 0xBFE JUMPI POP PUSH0 SWAP1 JUMP INVALID LOG2 PUSH5 0x6970667358 0x22 SLT KECCAK256 SWAP14 0xE8 PUSH13 0x86B40C42DD95BA895015AF4A00 EQ CREATE EXTDELEGATECALL 0xD0 0x28 0x2F 0xD SWAP16 CALL LOG4 0xD SWAP15 SWAP15 0xD7 MSTORE8 DUP6 PUSH5 0x736F6C6343 STOP ADDMOD 0x1E STOP CALLER "},"methodIdentifiers":{"cacheCl()":"cddde491","cacheClTs()":"5585e030","cacheStdvLong()":"a5752424","cacheStdvShort()":"752e3c1c","cacheTwap()":"ad8215d0","cacheV2()":"ebb396d5","cacheV3()":"0b140383","chainlinkBridge()":"13be54ff","getData((address,address,address,uint256,uint128,uint128,uint16,bool,uint8))":"406304ea","uniV2Bridge()":"380cc26c","uniV3Bridge()":"f0c8e5a4","uniV3TwapBridge()":"57bafe4d"}}}}}