{"contracts/PoolManager.sol":{"PoolManager":{"abi":[{"inputs":[{"internalType":"address","name":"_defaultAlpha","type":"address"},{"internalType":"address","name":"_defaultBeta","type":"address"}],"stateMutability":"nonpayable","type":"constructor"},{"inputs":[{"internalType":"uint256","name":"required","type":"uint256"},{"internalType":"uint256","name":"available","type":"uint256"}],"name":"PoolManager__InsufficientAsset0","type":"error"},{"inputs":[{"internalType":"uint256","name":"required","type":"uint256"},{"internalType":"uint256","name":"available","type":"uint256"}],"name":"PoolManager__InsufficientAsset1","type":"error"},{"inputs":[],"name":"PoolManager__InsufficientLiquidityMinted","type":"error"},{"inputs":[{"internalType":"uint256","name":"minOut","type":"uint256"},{"internalType":"uint256","name":"actual","type":"uint256"}],"name":"PoolManager__InsufficientOutput","type":"error"},{"inputs":[{"internalType":"uint256","name":"amount0","type":"uint256"},{"internalType":"uint256","name":"amount1","type":"uint256"}],"name":"PoolManager__InsufficientWithdrawal","type":"error"},{"anonymous":false,"inputs":[{"indexed":true,"internalType":"address","name":"owner","type":"address"},{"indexed":true,"internalType":"address","name":"spender","type":"address"},{"indexed":true,"internalType":"uint256","name":"id","type":"uint256"},{"indexed":false,"internalType":"uint256","name":"amount","type":"uint256"}],"name":"Approval","type":"event"},{"anonymous":false,"inputs":[{"indexed":true,"internalType":"address","name":"provider","type":"address"},{"indexed":false,"internalType":"bool","name":"hit","type":"bool"}],"name":"MarketDataCache","type":"event"},{"anonymous":false,"inputs":[{"indexed":true,"internalType":"address","name":"owner","type":"address"},{"indexed":true,"internalType":"address","name":"operator","type":"address"},{"indexed":false,"internalType":"bool","name":"approved","type":"bool"}],"name":"OperatorSet","type":"event"},{"anonymous":false,"inputs":[{"indexed":true,"internalType":"uint256","name":"poolID","type":"uint256"},{"indexed":false,"internalType":"address","name":"asset0","type":"address"},{"indexed":false,"internalType":"address","name":"asset1","type":"address"},{"indexed":false,"internalType":"address","name":"quoter","type":"address"},{"indexed":false,"internalType":"bytes3","name":"markings","type":"bytes3"}],"name":"PoolCreated","type":"event"},{"anonymous":false,"inputs":[{"indexed":false,"internalType":"uint8","name":"step","type":"uint8"},{"indexed":false,"internalType":"uint256","name":"value","type":"uint256"}],"name":"SwapStep","type":"event"},{"anonymous":false,"inputs":[{"indexed":false,"internalType":"address","name":"caller","type":"address"},{"indexed":true,"internalType":"address","name":"from","type":"address"},{"indexed":true,"internalType":"address","name":"to","type":"address"},{"indexed":true,"internalType":"uint256","name":"id","type":"uint256"},{"indexed":false,"internalType":"uint256","name":"amount","type":"uint256"}],"name":"Transfer","type":"event"},{"inputs":[{"internalType":"uint8","name":"pointer","type":"uint8"},{"internalType":"address","name":"alphaAddress","type":"address"}],"name":"addAlphaMarketAddress","outputs":[],"stateMutability":"nonpayable","type":"function"},{"inputs":[{"internalType":"uint8","name":"pointer","type":"uint8"},{"internalType":"address","name":"betaAddress","type":"address"}],"name":"addBetaMarketAddress","outputs":[],"stateMutability":"nonpayable","type":"function"},{"inputs":[{"internalType":"address","name":"asset0","type":"address"},{"internalType":"address","name":"asset1","type":"address"},{"internalType":"address","name":"quoter","type":"address"},{"internalType":"bytes3","name":"markings","type":"bytes3"},{"internalType":"uint256","name":"amount0","type":"uint256"},{"internalType":"uint256","name":"amount1","type":"uint256"}],"name":"addLiquidity","outputs":[{"internalType":"uint256","name":"liquidity","type":"uint256"}],"stateMutability":"payable","type":"function"},{"inputs":[{"internalType":"address","name":"owner","type":"address"},{"internalType":"address","name":"spender","type":"address"},{"internalType":"uint256","name":"id","type":"uint256"}],"name":"allowance","outputs":[{"internalType":"uint256","name":"","type":"uint256"}],"stateMutability":"view","type":"function"},{"inputs":[{"internalType":"address","name":"spender","type":"address"},{"internalType":"uint256","name":"id","type":"uint256"},{"internalType":"uint256","name":"amount","type":"uint256"}],"name":"approve","outputs":[{"internalType":"bool","name":"","type":"bool"}],"stateMutability":"nonpayable","type":"function"},{"inputs":[{"internalType":"address","name":"owner","type":"address"},{"internalType":"uint256","name":"id","type":"uint256"}],"name":"balanceOf","outputs":[{"internalType":"uint256","name":"","type":"uint256"}],"stateMutability":"view","type":"function"},{"inputs":[{"components":[{"internalType":"address","name":"asset0","type":"address"},{"internalType":"address","name":"asset1","type":"address"},{"internalType":"address","name":"quoter","type":"address"},{"internalType":"bytes3","name":"marking","type":"bytes3"},{"internalType":"bool","name":"zeroForOne","type":"bool"}],"internalType":"struct PoolManager.Hop[]","name":"hops","type":"tuple[]"},{"internalType":"uint256","name":"amountIn","type":"uint256"},{"internalType":"uint256","name":"minAmountOut","type":"uint256"}],"name":"batchSwap","outputs":[{"internalType":"uint256","name":"amountOut","type":"uint256"}],"stateMutability":"payable","type":"function"},{"inputs":[{"internalType":"address","name":"asset0","type":"address"},{"internalType":"address","name":"asset1","type":"address"},{"internalType":"address","name":"quoter","type":"address"},{"internalType":"bytes3","name":"markings","type":"bytes3"}],"name":"createPool","outputs":[{"internalType":"uint256","name":"poolID","type":"uint256"}],"stateMutability":"nonpayable","type":"function"},{"inputs":[],"name":"defaultAlpha","outputs":[{"internalType":"address","name":"","type":"address"}],"stateMutability":"view","type":"function"},{"inputs":[],"name":"defaultBeta","outputs":[{"internalType":"address","name":"","type":"address"}],"stateMutability":"view","type":"function"},{"inputs":[{"internalType":"address","name":"","type":"address"},{"internalType":"address","name":"","type":"address"},{"internalType":"uint128","name":"","type":"uint128"},{"internalType":"uint128","name":"","type":"uint128"}],"name":"dummyQuoter","outputs":[{"internalType":"uint256","name":"rate","type":"uint256"}],"stateMutability":"pure","type":"function"},{"inputs":[{"internalType":"uint8","name":"pointer","type":"uint8"}],"name":"getAlphaMarketAddress","outputs":[{"internalType":"address","name":"alphaAddress","type":"address"}],"stateMutability":"view","type":"function"},{"inputs":[{"internalType":"uint8","name":"pointer","type":"uint8"}],"name":"getBetaMarketAddress","outputs":[{"internalType":"address","name":"betaAddress","type":"address"}],"stateMutability":"view","type":"function"},{"inputs":[{"internalType":"uint256","name":"poolId","type":"uint256"}],"name":"getInventory","outputs":[{"internalType":"uint128","name":"asset0","type":"uint128"},{"internalType":"uint128","name":"asset1","type":"uint128"}],"stateMutability":"view","type":"function"},{"inputs":[{"internalType":"address","name":"owner","type":"address"},{"internalType":"address","name":"spender","type":"address"}],"name":"isOperator","outputs":[{"internalType":"bool","name":"","type":"bool"}],"stateMutability":"view","type":"function"},{"inputs":[{"internalType":"uint8","name":"pointer","type":"uint8"}],"name":"removeAlphaMarketAddress","outputs":[],"stateMutability":"nonpayable","type":"function"},{"inputs":[{"internalType":"uint8","name":"pointer","type":"uint8"}],"name":"removeBetaMarketAddress","outputs":[],"stateMutability":"nonpayable","type":"function"},{"inputs":[{"internalType":"address","name":"asset0","type":"address"},{"internalType":"address","name":"asset1","type":"address"},{"internalType":"address","name":"quoter","type":"address"},{"internalType":"bytes3","name":"markings","type":"bytes3"},{"internalType":"uint256","name":"liquidity","type":"uint256"}],"name":"removeLiquidity","outputs":[{"internalType":"uint256","name":"amount0","type":"uint256"},{"internalType":"uint256","name":"amount1","type":"uint256"}],"stateMutability":"nonpayable","type":"function"},{"inputs":[{"internalType":"address","name":"operator","type":"address"},{"internalType":"bool","name":"approved","type":"bool"}],"name":"setOperator","outputs":[{"internalType":"bool","name":"","type":"bool"}],"stateMutability":"nonpayable","type":"function"},{"inputs":[{"internalType":"bytes4","name":"interfaceId","type":"bytes4"}],"name":"supportsInterface","outputs":[{"internalType":"bool","name":"","type":"bool"}],"stateMutability":"view","type":"function"},{"inputs":[{"internalType":"address","name":"asset0","type":"address"},{"internalType":"address","name":"asset1","type":"address"},{"internalType":"address","name":"quoter","type":"address"},{"internalType":"bytes3","name":"markings","type":"bytes3"},{"internalType":"uint256","name":"amountIn","type":"uint256"},{"internalType":"bool","name":"zeroForOne","type":"bool"},{"internalType":"uint256","name":"minAmountOut","type":"uint256"}],"name":"swap","outputs":[{"internalType":"uint256","name":"amountOut","type":"uint256"}],"stateMutability":"payable","type":"function"},{"inputs":[{"internalType":"uint256","name":"poolID","type":"uint256"}],"name":"totalLiquidity","outputs":[{"internalType":"uint256","name":"","type":"uint256"}],"stateMutability":"view","type":"function"},{"inputs":[{"internalType":"address","name":"receiver","type":"address"},{"internalType":"uint256","name":"id","type":"uint256"},{"internalType":"uint256","name":"amount","type":"uint256"}],"name":"transfer","outputs":[{"internalType":"bool","name":"","type":"bool"}],"stateMutability":"nonpayable","type":"function"},{"inputs":[{"internalType":"address","name":"sender","type":"address"},{"internalType":"address","name":"receiver","type":"address"},{"internalType":"uint256","name":"id","type":"uint256"},{"internalType":"uint256","name":"amount","type":"uint256"}],"name":"transferFrom","outputs":[{"internalType":"bool","name":"","type":"bool"}],"stateMutability":"nonpayable","type":"function"}],"evm":{"bytecode":{"linkReferences":{},"object":"60c03461008857601f6126a138819003918201601f19168301916001600160401b0383118484101761008c57808492604094855283398101031261008857610052602061004b836100a0565b92016100a0565b9060805260a0526040516125ec90816100b582396080518181816108570152611c86015260a0518181816103280152611cb30152f35b5f80fd5b634e487b7160e01b5f52604160045260245ffd5b51906001600160a01b03821682036100885756fe60806040526004361015610011575f80fd5b5f3560e01c8062fdd58e1461019357806301ffc9a71461018e578063095bcdb61461018957806319920a5f14610184578063426a84931461017f578063460c6df81461017a578063558a7297146101755780635670f55a14610170578063598af9e71461016b5780635b298d321461016657806361408f26146101615780637dc27c951461015c57806383e66c2e146101575780638785bec0146101525780638e832e081461014d578063a1a44dad14610148578063b5e60c3c14610143578063b6363cf21461013e578063b69e399214610139578063cb1f2f3814610134578063d2615fc81461012f578063d92bc84c1461012a578063e513315b146101255763fe99049a14610120575f80fd5b6110f2565b610f14565b610b84565b610b3e565b610987565b610913565b6108b0565b610886565b610842565b6107fd565b6107b2565b610740565b6106dc565b610697565b610647565b6105da565b610506565b610458565b6103e8565b610357565b610313565b61026f565b6101f6565b6101ad565b6001600160a01b038116036101a957565b5f80fd5b346101a95760403660031901126101a9576004356101ca81610198565b6024359060018060a01b03165f52600160205260405f20905f52602052602060405f2054604051908152f35b346101a95760203660031901126101a95760043563ffffffff60e01b81168091036101a9576020906301ffc9a760e01b811490811561023b575b506040519015158152f35b630f632fb360e01b1490505f610230565b60609060031901126101a95760043561026481610198565b906024359060443590565b346101a95761027d3661024c565b9091335f52600160205260405f20835f5260205260405f2080549083820391821161030e575560018060a01b031690815f5260016020526102c98360405f20905f5260205260405f2090565b6102d48282546112cf565b9055604080513380825260208201939093525f5160206125775f395f51905f5291819081015b0390a46040516001815280602081015b0390f35b6112a0565b346101a9575f3660031901126101a9576040517f00000000000000000000000000000000000000000000000000000000000000006001600160a01b03168152602090f35b346101a9576103653661024c565b9091335f52600260205261038c8160405f209060018060a01b03165f5260205260405f2090565b835f526020528160405f205560405191825260018060a01b0316907fb3fd5071835887567a0671151121894ddccc2842f1d10bedad13e0d17cace9a760203392a4602060405160018152f35b6004359060ff821682036101a957565b346101a95760403660031901126101a95761044c6104046103d8565b60ff6024359161041383610198565b16610420601082106112dc565b5f52600360205260405f209060018060a01b03166bffffffffffffffffffffffff60a01b825416179055565b005b801515036101a957565b346101a95760403660031901126101a95760043561047581610198565b602435906104828261044e565b335f908152602081815260408083206001600160a01b038516845290915290209115159160ff1981541660ff841617905560405191825260018060a01b0316907fceb576d9f15e4e200fdb5096d64d5dfd667e16def20c1eefd14256d8e3faa26760203392a360405160018152602090f35b6001600160e81b03198116036101a957565b346101a95760803660031901126101a95761030a60043561052681610198565b6024359061053382610198565b7f68df9a4eb7aacbe8f43763bfbc9f7ca135a5397190ea1cce2558db52dc2f369260806044359361056385610198565b60643561056f816104f4565b61057b818784886117bf565b9586956001600160a01b0384811690821610156105d557925b604080516001600160a01b039586168152918516602083015291909316908301526001600160e81b0319166060820152a26040519081529081906020820190565b610594565b346101a95760603660031901126101a9576004356105f781610198565b61063260243561060681610198565b6044359260018060a01b03165f52600260205260405f209060018060a01b03165f5260205260405f2090565b905f52602052602060405f2054604051908152f35b346101a95760203660031901126101a95760406001600160801b036106866004355f52600660205260405f2054906001600160801b0382169160801c90565b835191831682529091166020820152f35b346101a95760203660031901126101a95760ff6106b26103d8565b166106bf601082106112dc565b5f90815260046020526040902080546001600160a01b0319169055005b346101a95760403660031901126101a95761044c6106f86103d8565b60ff6024359161070783610198565b16610714601082106112dc565b5f52600460205260405f209060018060a01b03166bffffffffffffffffffffffff60a01b825416179055565b346101a95760203660031901126101a95760ff61075b6103d8565b16610768601082106112dc565b5f526004602052602060018060a01b0360405f205416604051908152f35b604435906001600160801b03821682036101a957565b606435906001600160801b03821682036101a957565b346101a95760803660031901126101a9576107ce600435610198565b6107d9602435610198565b6107e1610786565b506107ea61079c565b50602060405167120a871cc00200008152f35b346101a95760203660031901126101a95760ff6108186103d8565b16610825601082106112dc565b5f90815260036020526040902080546001600160a01b0319169055005b346101a9575f3660031901126101a9576040517f00000000000000000000000000000000000000000000000000000000000000006001600160a01b03168152602090f35b346101a95760203660031901126101a9576004355f526005602052602060405f2054604051908152f35b346101a95760403660031901126101a957602060ff6109076004356108d481610198565b602435906108e182610198565b60018060a01b03165f525f845260405f209060018060a01b03165f5260205260405f2090565b54166040519015158152f35b60603660031901126101a95760043567ffffffffffffffff81116101a957366023820112156101a957806004013567ffffffffffffffff81116101a95736602460a08302840101116101a95761030a916109779160243590602460443593016113a8565b6040519081529081906020820190565b346101a95760a03660031901126101a9576004356109a481610198565b602435906109b182610198565b6001600160801b03604435916109c683610198565b6109eb6064356109d5816104f4565b608435946109e4861515611467565b86846117bf565b93610a74610a6284610a5a610a41610a1b8a5f52600660205260405f2054906001600160801b0382169160801c90565b9890610a3a610a328d5f52600560205260405f2090565b5415156114b3565b168961153e565b610a538a5f52600560205260405f2090565b5490611551565b95168661153e565b610a53875f52600560205260405f2090565b93831580610b36575b610b1d578581610a96610ae593610b0497989933611837565b610ab3610aab835f52600560205260405f2090565b9182546112c2565b9055610aca6001600160801b038716600f0b61156f565b610adf6001600160801b038916600f0b61156f565b916118b6565b6001600160a01b038181169083161015610b15578385915b339361190c565b604080519182526020820192909252f35b848491610afd565b63d5de620560e01b5f526004849052602485905260445ffd5b508415610a7d565b346101a95760203660031901126101a95760ff610b596103d8565b16610b66601082106112dc565b5f526003602052602060018060a01b0360405f205416604051908152f35b60e03660031901126101a957600435610b9c81610198565b6024358091610baa82610198565b604435610bb681610198565b60643590610bc3826104f4565b60843560a43592610bd38461044e565b81848660c435935f5160206125975f395f51905f5260405180610c028782919060206040840193600181520152565b0390a1610c1181888c856117bf565b968315610f0e57825b33863490610c279361193d565b60405180610c418a82919060206040840193600281520152565b035f5160206125975f395f51905f5291a15f888152600660205260409020546001600160801b0381169060801c9b819682936001600160801b038f969416610c899060801b90565b60408051600381526001600160801b0389169290921760208301525f5160206125975f395f51905f5291a1610cbc6115eb565b90610cc56115eb565b93610cce6115ca565b6001600160a01b0390991689526001600160a01b031660208901526001600160a01b0316604088015260608701908152871515608088015260a0870192835251610d179061160d565b5251610d229061160d565b6001600160e81b03199091169052610d3992611bf9565b50610d7992908015610ec6579889915b5f5160206125975f395f51905f5260405180610d718682919060206040840193600481520152565b0390a1611fe9565b808610610eaf575091610e00610e39949261030a97945f5160206125975f395f51905f5260405180610db681905f60206040840193600581520152565b0390a16001600160a01b038681169086161015610ea75783905b8115610e8c576001600160801b038116600f0b915b15610e7a5750610adf6001600160801b038916600f0b61156f565b5f5160206125975f395f51905f5260405180610e2781905f60206040840193600681520152565b0390a115610e7357505b82339161195c565b5f5160206125975f395f51905f5260405180610e6081905f60206040840193600781520152565b0390a16040519081529081906020820190565b9050610e31565b6001600160801b0316600f0b916118b6565b610ea16001600160801b038a16600f0b61156f565b91610de5565b831590610dd0565b63d438755d60e01b5f52600452602485905260445ffd5b508115610eef57610ee7610ed98661151a565b670de0b6b3a7640000900490565b988991610d49565b610f09610efb866114f6565b67120a871cc0020000900490565b610ee7565b8a610c1a565b60c03660031901126101a957600435610f2c81610198565b60243590610f3982610198565b60443590610f4682610198565b606435610f52816104f4565b610f646084359160a4359486856117bf565b90610f87825f52600660205260405f2054906001600160801b0382169160801c90565b90835f52600560205260405f2054155f14611064575050610fa884826112cf565b935b84156110555761030a9561101e94611005936001600160a01b038084169083161091821561104f5792915b1561103b57926001600160801b03928392610ff6915b838733933493611967565b16600f0b9116600f0b836118b6565b611010838233612068565b5f52600560205260405f2090565b6110298282546112cf565b90556040519081529081906020820190565b6001600160801b03928392610ff691610feb565b91610fd5565b63283eeadf60e01b5f5260045ffd5b670de0b6b3a76400008602868104670de0b6b3a7640000148715171561030e5767120a871cc0020000900483019081841161030e576110cd6110e7916001600160801b036110c6610efb6110ba6110ec98612040565b6001600160801b031690565b91166112cf565b916110e0865f52600560205260405f2090565b549061153e565b611551565b93610faa565b346101a95760803660031901126101a95760043561110f81610198565b60243561111b81610198565b604435915f5160206125775f395f51905f526102fa606435936001600160a01b0384169361117d90879061117090338814158061126c575b6111dc576001600160a01b03165f90815260016020526040902090565b905f5260205260405f2090565b6111888682546112c2565b90556001600160a01b0381165f9081526001602052604090206111ac908790611170565b6111b78682546112cf565b90556040805133815260208101969096526001600160a01b0390911694918291820190565b61121383611170336111fe8560018060a01b03165f52600260205260405f2090565b9060018060a01b03165f5260205260405f2090565b548960018201611239575b50506001600160a01b03165f90815260016020526040902090565b611242916112c2565b61126484611170336111fe8660018060a01b03165f52600260205260405f2090565b555f8961121e565b5061129b611297611290336111fe8560018060a01b03165f525f60205260405f2090565b5460ff1690565b1590565b611153565b634e487b7160e01b5f52601160045260245ffd5b5f1981019190821161030e57565b9190820391821161030e57565b9190820180921161030e57565b156112e357565b60405162461bcd60e51b815260206004820152601d60248201527f496e76616c696420706f696e7465723a206d75737420626520302d31350000006044820152606490fd5b1561132f57565b60405162461bcd60e51b81526020600482015260076024820152664e6f20686f707360c81b6044820152606490fd5b634e487b7160e01b5f52603260045260245ffd5b91908110156113825760a0020190565b61135e565b3561139181610198565b90565b35611391816104f4565b356113918161044e565b90919392936113b8831515611328565b915f915b8183106113e85750505080928082106113d3575050565b63d438755d60e01b5f5260045260245260445ffd5b90919261145760019185156113fc866112b4565b87149061140a888888611372565b61141381611387565b9361142060208301611387565b9161142d60408201611387565b90611446608061143f60608401611394565b920161139e565b9185156114605734945b339861161a565b930191906113bc565b5f94611450565b1561146e57565b60405162461bcd60e51b815260206004820152601860248201527f496e76616c6964206c697175696469747920616d6f756e7400000000000000006044820152606490fd5b156114ba57565b60405162461bcd60e51b8152602060048201526014602482015273139bc81b1a5c5d5a591a5d1e481a5b881c1bdbdb60621b6044820152606490fd5b90670de0b6b3a7640000820291808304670de0b6b3a7640000149015171561030e57565b9067120a871cc002000082029180830467120a871cc0020000149015171561030e57565b8181029291811591840414171561030e57565b811561155b570490565b634e487b7160e01b5f52601260045260245ffd5b600f0b6f7fffffffffffffffffffffffffffffff19811461030e575f0390565b634e487b7160e01b5f52604160045260245ffd5b90601f8019910116810190811067ffffffffffffffff8211176115c557604052565b61158f565b604051906115d960c0836115a3565b565b604051906115d9610100836115a3565b604080519091906115fc83826115a3565b6001815291601f1901366020840137565b8051156113825760200190565b9397929998969094889296886116328d8a8a8a6117bf565b936117a0575b50505f828152600660205260409020546001600160801b0381169060801c818199929d6116636115eb565b8561166d8261160d565b526116766115eb565b916116808361160d565b6001600160e81b031990911690526116966115ca565b6001600160a01b038b168152946001600160a01b038c1660208701526001600160a01b031660408601526060850152861515608085015260a08401526116db92611bf9565b5061172593811561176c576116f49180995b819e611fe9565b8815611751576001600160801b038116600f0b905b8915610e7a5750610adf6001600160801b038816600f0b61156f565b611731575b5050505050565b611740941561174a575061195c565b5f8080808061172a565b905061195c565b6117666001600160801b038816600f0b61156f565b90611709565b5050881561178b576116f489611784610ed98461151a565b80996116ed565b6116f48961179b610efb846114f6565b611784565b6117b19185156117b857838861193d565b5f88611638565b838961193d565b9092906001600160a01b0380851690821610156118315792915b6040516bffffffffffffffffffffffff19606095861b81166020830190815294861b811660348301529190941b1660488401526001600160e81b031916605c830152603f82529061182b605f826115a3565b51902090565b916117d9565b91909160018060a01b0316805f52600160205260405f20835f5260205260405f2080549083820391821161030e57556040805133815260208101939093525f925f5160206125775f395f51905f5291819081015b0390a4565b90600f0b90600f0b019060016001607f1b0319821260016001607f1b0383131761030e57565b9091815f5260066020526001600160801b036118e96118df60405f205495838716600f0b611890565b928560801d611890565b81199060801b169116179182036118fe575050565b5f52600660205260405f2055565b909391828161192c575b5050508161192357505050565b6115d99261211a565b6119359261211a565b5f8082611916565b928161194a575b50505050565b61195393612221565b5f808080611944565b918161192357505050565b919390938581611a42575b5050505080159182156119855750505050565b6001600160a01b03168061199f57505061195391506121e0565b602092506119ee936119b160016121a1565b6040516323b872dd60e01b81526001600160a01b0390911660048201523060248201526044810192909252909283919082905f9082906064820190565b03925af18015611a3d57611a09915f91611a0e575b506120d6565b611953565b611a30915060203d602011611a36575b611a2881836115a3565b8101906120c1565b5f611a03565b503d611a1e565b611ba7565b611a4b93612221565b5f808085611972565b15611a5b57565b60405162461bcd60e51b8152602060048201526015602482015274416c7068612061646472657373206973207a65726f60581b6044820152606490fd5b15611a9f57565b60405162461bcd60e51b8152602060048201526014602482015273426574612061646472657373206973207a65726f60601b6044820152606490fd5b908160209103126101a9575190565b80516001600160a01b03908116835260208083015182169084015260408083015190911690830152606080820151908301526080808201516001600160801b0316908301526115d9919060e090819060a0818101516001600160801b03169085015260c08181015161ffff169085015201511515910152565b805180835260209291819084018484015e5f828201840152601f01601f1916010190565b80611b99610120926113919594611aea565b816101008201520190611b63565b6040513d5f823e3d90fd5b610100810192916115d99190611aea565b91611bea90611bd6846113919694611aea565b610140610100850152610140840190611b63565b91610120818403910152611b63565b8051611c51935f9390916001600160a01b0316936020840194611c71611c6c611c51611c65611c2e8a5160018060a01b031690565b60408a018051909691906001600160a01b031690611c5f60a08d019e8f5161160d565b516001600160e81b03191690565b926117bf565b995161160d565b612296565b90611c7f6040830151151590565b15611fbe577f0000000000000000000000000000000000000000000000000000000000000000955b606083015115611f86577f0000000000000000000000000000000000000000000000000000000000000000955b611ce86001600160a01b0389161515611a54565b611cfc6001600160a01b0388161515611a98565b81516001600160a01b031698516001600160a01b031692516001600160a01b0316956060830151611d2c9061160d565b5160c086015161ffff16608090940151151594611d476115db565b6001600160a01b03909c168c526001600160a01b031660208c01526001600160a01b0390971660408b019081529660608b01526001600160801b031660808a01526001600160801b031660a089015261ffff1660c0880152151560e087015280511515908180611f79575b15611e58575050509183915f611df984611df3611e1798611ded611de1611de160209b5160018060a01b031690565b6001600160a01b031690565b966123b9565b936123b9565b6040516301eebc2d60e11b8152968795869485939160048501611bc3565b03925af1908115611a3d575f91611e2c575091565b611e4e915060203d602011611e51575b611e4681836115a3565b810190611adb565b91565b503d611e3c565b92949391928115918280611f63575b15611eac57505050505050611e175f92611e8f611de1611de16020955160018060a01b031690565b9060405194858094819363160f04bd60e21b835260048301611bb2565b94959480611f4d575b15611f03575050505091602091611ee582611edf611de1611de1611e17985160018060a01b031690565b926123b9565b915f6040518096819582946305e3344d60e41b845260048401611b87565b929795945090929181611f3f575b50611f1b57505050565b611e1793955090611ee583611edf611de1611de1602097965160018060a01b031690565b60200151151590505f611f11565b50611f5e6112976020830151151590565b611eb5565b50611f746112976020840151151590565b611e67565b5060208101511515611db2565b611fb8611fab611f9a60a086015160ff1690565b60ff165f52600460205260405f2090565b546001600160a01b031690565b95611cd4565b611fe3611fab611fd2608085015160ff1690565b60ff165f52600360205260405f2090565b95611ca7565b6001600160801b0392935f1461201c57501690808210612007575050565b630173586760e01b5f5260045260245260445ffd5b9050169080821061202b575050565b6368580a1960e01b5f5260045260245260445ffd5b6001600160801b03670de0b6b3a7640000911602906001600160801b03821691820361030e57565b91909160018060a01b031690815f52600160205260405f20835f5260205260405f2080549082820180921161030e57556040805133815260208101929092525f915f5160206125775f395f51905f52918190810161188b565b908160209103126101a957516113918161044e565b156120dd57565b60405162461bcd60e51b8152602060048201526015602482015274115490cc8c081d1c985b9cd9995c8819985a5b1959605a1b6044820152606490fd5b6001600160a01b03168061215457505f80809381938290821561214a575b6001600160a01b031690f115611a3d57565b6108fc9150612138565b60405163a9059cbb60e01b81526001600160a01b0390921660048301526024820192909252906020908290815f81604481015b03925af18015611a3d576115d9915f91611a0e57506120d6565b156121a857565b60405162461bcd60e51b815260206004820152601060248201526f115512081b9bdd08195e1c1958dd195960821b6044820152606490fd5b156121e757565b60405162461bcd60e51b8152602060048201526012602482015271125b98dbdc9c9958dd08115512081cd95b9d60721b6044820152606490fd5b9092906001600160a01b03168061223e57506115d99250146121e0565b612187936119b160209493156121a1565b6040519060e0820182811067ffffffffffffffff8211176115c5576040525f60c0838281528260208201528260408201528260608201528260808201528260a08201520152565b611391610fff61233a6122a761224f565b9360e81c6122c760016122c083627fffff9060011c1690565b1615158652565b60018116151560208601526122f76122ee6001600284901c623fffff165b1662ffffff1690565b15156040870152565b61231761230e6001600384901c621fffff166122e5565b15156060870152565b600f600482901c81166080870152600882901c1660a0860152600c1c610fff1690565b1661ffff1660c0830152565b6020818303126101a95780519067ffffffffffffffff82116101a9570181601f820112156101a95780519067ffffffffffffffff82116115c55760405192612398601f8401601f1916602001856115a3565b828452602083830101116101a957815f9260208093018386015e8301015290565b90606091805c80158061252d575b156124e7575b508251159182612418575b50604051911582526001600160a01b0316907fd34145bf6de6d1b18053ad66a4a1af093071a5ab67c05b8bfce98fd95ffb0d899080602081015b0390a290565b604051633bd1104b60e01b815293505f908490819061243a9060048301611bb2565b0381836001600160a01b0386165af1928315611a3d575f9361249d575b506124127fd34145bf6de6d1b18053ad66a4a1af093071a5ab67c05b8bfce98fd95ffb0d899184805161248d575b5091506123d8565b6124979082612542565b5f612485565b7fd34145bf6de6d1b18053ad66a4a1af093071a5ab67c05b8bfce98fd95ffb0d899193506124df612412913d805f833e6124d781836115a3565b810190612346565b939150612457565b9250601f60405193808552018060051c5f5b818110612514575050601f191683016020016040525f6123cd565b80600180928601015c60208260051b89010152016124f9565b9350604051935f8552602085016040526123c7565b601f825180835d0160051c915f5b83811061255d5750505050565b80602060019260051b8401015182828601015d0161255056fe1b3d7edb2e9c0b0e7c525b20aaaef0f5940d2ed71663c7d39266ecafac728859b6bbc7eec4140798b63d438d8f58ee3a60d3257379d24e11515c329bed0c825ea2646970667358221220f21d46ab288bc72d44882dbfa113386457cf72de4968b0b58fc6fadef69ef50864736f6c634300081e0033","opcodes":"PUSH1 0xC0 CALLVALUE PUSH2 0x88 JUMPI PUSH1 0x1F PUSH2 0x26A1 CODESIZE DUP2 SWAP1 SUB SWAP2 DUP3 ADD PUSH1 0x1F NOT AND DUP4 ADD SWAP2 PUSH1 0x1 PUSH1 0x1 PUSH1 0x40 SHL SUB DUP4 GT DUP5 DUP5 LT OR PUSH2 0x8C JUMPI DUP1 DUP5 SWAP3 PUSH1 0x40 SWAP5 DUP6 MSTORE DUP4 CODECOPY DUP2 ADD SUB SLT PUSH2 0x88 JUMPI PUSH2 0x52 PUSH1 0x20 PUSH2 0x4B DUP4 PUSH2 0xA0 JUMP JUMPDEST SWAP3 ADD PUSH2 0xA0 JUMP JUMPDEST SWAP1 PUSH1 0x80 MSTORE PUSH1 0xA0 MSTORE PUSH1 0x40 MLOAD PUSH2 0x25EC SWAP1 DUP2 PUSH2 0xB5 DUP3 CODECOPY PUSH1 0x80 MLOAD DUP2 DUP2 DUP2 PUSH2 0x857 ADD MSTORE PUSH2 0x1C86 ADD MSTORE PUSH1 0xA0 MLOAD DUP2 DUP2 DUP2 PUSH2 0x328 ADD MSTORE PUSH2 0x1CB3 ADD MSTORE RETURN JUMPDEST PUSH0 DUP1 REVERT JUMPDEST PUSH4 0x4E487B71 PUSH1 0xE0 SHL PUSH0 MSTORE PUSH1 0x41 PUSH1 0x4 MSTORE PUSH1 0x24 PUSH0 REVERT JUMPDEST MLOAD SWAP1 PUSH1 0x1 PUSH1 0x1 PUSH1 0xA0 SHL SUB DUP3 AND DUP3 SUB PUSH2 0x88 JUMPI JUMP INVALID PUSH1 0x80 PUSH1 0x40 MSTORE PUSH1 0x4 CALLDATASIZE LT ISZERO PUSH2 0x11 JUMPI PUSH0 DUP1 REVERT JUMPDEST PUSH0 CALLDATALOAD PUSH1 0xE0 SHR DUP1 PUSH3 0xFDD58E EQ PUSH2 0x193 JUMPI DUP1 PUSH4 0x1FFC9A7 EQ PUSH2 0x18E JUMPI DUP1 PUSH4 0x95BCDB6 EQ PUSH2 0x189 JUMPI DUP1 PUSH4 0x19920A5F EQ PUSH2 0x184 JUMPI DUP1 PUSH4 0x426A8493 EQ PUSH2 0x17F JUMPI DUP1 PUSH4 0x460C6DF8 EQ PUSH2 0x17A JUMPI DUP1 PUSH4 0x558A7297 EQ PUSH2 0x175 JUMPI DUP1 PUSH4 0x5670F55A EQ PUSH2 0x170 JUMPI DUP1 PUSH4 0x598AF9E7 EQ PUSH2 0x16B JUMPI DUP1 PUSH4 0x5B298D32 EQ PUSH2 0x166 JUMPI DUP1 PUSH4 0x61408F26 EQ PUSH2 0x161 JUMPI DUP1 PUSH4 0x7DC27C95 EQ PUSH2 0x15C JUMPI DUP1 PUSH4 0x83E66C2E EQ PUSH2 0x157 JUMPI DUP1 PUSH4 0x8785BEC0 EQ PUSH2 0x152 JUMPI DUP1 PUSH4 0x8E832E08 EQ PUSH2 0x14D JUMPI DUP1 PUSH4 0xA1A44DAD EQ PUSH2 0x148 JUMPI DUP1 PUSH4 0xB5E60C3C EQ PUSH2 0x143 JUMPI DUP1 PUSH4 0xB6363CF2 EQ PUSH2 0x13E JUMPI DUP1 PUSH4 0xB69E3992 EQ PUSH2 0x139 JUMPI DUP1 PUSH4 0xCB1F2F38 EQ PUSH2 0x134 JUMPI DUP1 PUSH4 0xD2615FC8 EQ PUSH2 0x12F JUMPI DUP1 PUSH4 0xD92BC84C EQ PUSH2 0x12A JUMPI DUP1 PUSH4 0xE513315B EQ PUSH2 0x125 JUMPI PUSH4 0xFE99049A EQ PUSH2 0x120 JUMPI PUSH0 DUP1 REVERT JUMPDEST PUSH2 0x10F2 JUMP JUMPDEST PUSH2 0xF14 JUMP JUMPDEST PUSH2 0xB84 JUMP JUMPDEST PUSH2 0xB3E JUMP JUMPDEST PUSH2 0x987 JUMP JUMPDEST PUSH2 0x913 JUMP JUMPDEST PUSH2 0x8B0 JUMP JUMPDEST PUSH2 0x886 JUMP JUMPDEST PUSH2 0x842 JUMP JUMPDEST PUSH2 0x7FD JUMP JUMPDEST PUSH2 0x7B2 JUMP JUMPDEST PUSH2 0x740 JUMP JUMPDEST PUSH2 0x6DC JUMP JUMPDEST PUSH2 0x697 JUMP JUMPDEST PUSH2 0x647 JUMP JUMPDEST PUSH2 0x5DA JUMP JUMPDEST PUSH2 0x506 JUMP JUMPDEST PUSH2 0x458 JUMP JUMPDEST PUSH2 0x3E8 JUMP JUMPDEST PUSH2 0x357 JUMP JUMPDEST PUSH2 0x313 JUMP JUMPDEST PUSH2 0x26F JUMP JUMPDEST PUSH2 0x1F6 JUMP JUMPDEST PUSH2 0x1AD JUMP JUMPDEST PUSH1 0x1 PUSH1 0x1 PUSH1 0xA0 SHL SUB DUP2 AND SUB PUSH2 0x1A9 JUMPI JUMP JUMPDEST PUSH0 DUP1 REVERT JUMPDEST CALLVALUE PUSH2 0x1A9 JUMPI PUSH1 0x40 CALLDATASIZE PUSH1 0x3 NOT ADD SLT PUSH2 0x1A9 JUMPI PUSH1 0x4 CALLDATALOAD PUSH2 0x1CA DUP2 PUSH2 0x198 JUMP JUMPDEST PUSH1 0x24 CALLDATALOAD SWAP1 PUSH1 0x1 DUP1 PUSH1 0xA0 SHL SUB AND PUSH0 MSTORE PUSH1 0x1 PUSH1 0x20 MSTORE PUSH1 0x40 PUSH0 KECCAK256 SWAP1 PUSH0 MSTORE PUSH1 0x20 MSTORE PUSH1 0x20 PUSH1 0x40 PUSH0 KECCAK256 SLOAD PUSH1 0x40 MLOAD SWAP1 DUP2 MSTORE RETURN JUMPDEST CALLVALUE PUSH2 0x1A9 JUMPI PUSH1 0x20 CALLDATASIZE PUSH1 0x3 NOT ADD SLT PUSH2 0x1A9 JUMPI PUSH1 0x4 CALLDATALOAD PUSH4 0xFFFFFFFF PUSH1 0xE0 SHL DUP2 AND DUP1 SWAP2 SUB PUSH2 0x1A9 JUMPI PUSH1 0x20 SWAP1 PUSH4 0x1FFC9A7 PUSH1 0xE0 SHL DUP2 EQ SWAP1 DUP2 ISZERO PUSH2 0x23B JUMPI JUMPDEST POP PUSH1 0x40 MLOAD SWAP1 ISZERO ISZERO DUP2 MSTORE RETURN JUMPDEST PUSH4 0xF632FB3 PUSH1 0xE0 SHL EQ SWAP1 POP PUSH0 PUSH2 0x230 JUMP JUMPDEST PUSH1 0x60 SWAP1 PUSH1 0x3 NOT ADD SLT PUSH2 0x1A9 JUMPI PUSH1 0x4 CALLDATALOAD PUSH2 0x264 DUP2 PUSH2 0x198 JUMP JUMPDEST SWAP1 PUSH1 0x24 CALLDATALOAD SWAP1 PUSH1 0x44 CALLDATALOAD SWAP1 JUMP JUMPDEST CALLVALUE PUSH2 0x1A9 JUMPI PUSH2 0x27D CALLDATASIZE PUSH2 0x24C JUMP JUMPDEST SWAP1 SWAP2 CALLER PUSH0 MSTORE PUSH1 0x1 PUSH1 0x20 MSTORE PUSH1 0x40 PUSH0 KECCAK256 DUP4 PUSH0 MSTORE PUSH1 0x20 MSTORE PUSH1 0x40 PUSH0 KECCAK256 DUP1 SLOAD SWAP1 DUP4 DUP3 SUB SWAP2 DUP3 GT PUSH2 0x30E JUMPI SSTORE PUSH1 0x1 DUP1 PUSH1 0xA0 SHL SUB AND SWAP1 DUP2 PUSH0 MSTORE PUSH1 0x1 PUSH1 0x20 MSTORE PUSH2 0x2C9 DUP4 PUSH1 0x40 PUSH0 KECCAK256 SWAP1 PUSH0 MSTORE PUSH1 0x20 MSTORE PUSH1 0x40 PUSH0 KECCAK256 SWAP1 JUMP JUMPDEST PUSH2 0x2D4 DUP3 DUP3 SLOAD PUSH2 0x12CF JUMP JUMPDEST SWAP1 SSTORE PUSH1 0x40 DUP1 MLOAD CALLER DUP1 DUP3 MSTORE PUSH1 0x20 DUP3 ADD SWAP4 SWAP1 SWAP4 MSTORE PUSH0 MLOAD PUSH1 0x20 PUSH2 0x2577 PUSH0 CODECOPY PUSH0 MLOAD SWAP1 PUSH0 MSTORE SWAP2 DUP2 SWAP1 DUP2 ADD JUMPDEST SUB SWAP1 LOG4 PUSH1 0x40 MLOAD PUSH1 0x1 DUP2 MSTORE DUP1 PUSH1 0x20 DUP2 ADD JUMPDEST SUB SWAP1 RETURN JUMPDEST PUSH2 0x12A0 JUMP JUMPDEST CALLVALUE PUSH2 0x1A9 JUMPI PUSH0 CALLDATASIZE PUSH1 0x3 NOT ADD SLT PUSH2 0x1A9 JUMPI PUSH1 0x40 MLOAD PUSH32 0x0 PUSH1 0x1 PUSH1 0x1 PUSH1 0xA0 SHL SUB AND DUP2 MSTORE PUSH1 0x20 SWAP1 RETURN JUMPDEST CALLVALUE PUSH2 0x1A9 JUMPI PUSH2 0x365 CALLDATASIZE PUSH2 0x24C JUMP JUMPDEST SWAP1 SWAP2 CALLER PUSH0 MSTORE PUSH1 0x2 PUSH1 0x20 MSTORE PUSH2 0x38C DUP2 PUSH1 0x40 PUSH0 KECCAK256 SWAP1 PUSH1 0x1 DUP1 PUSH1 0xA0 SHL SUB AND PUSH0 MSTORE PUSH1 0x20 MSTORE PUSH1 0x40 PUSH0 KECCAK256 SWAP1 JUMP JUMPDEST DUP4 PUSH0 MSTORE PUSH1 0x20 MSTORE DUP2 PUSH1 0x40 PUSH0 KECCAK256 SSTORE PUSH1 0x40 MLOAD SWAP2 DUP3 MSTORE PUSH1 0x1 DUP1 PUSH1 0xA0 SHL SUB AND SWAP1 PUSH32 0xB3FD5071835887567A0671151121894DDCCC2842F1D10BEDAD13E0D17CACE9A7 PUSH1 0x20 CALLER SWAP3 LOG4 PUSH1 0x20 PUSH1 0x40 MLOAD PUSH1 0x1 DUP2 MSTORE RETURN JUMPDEST PUSH1 0x4 CALLDATALOAD SWAP1 PUSH1 0xFF DUP3 AND DUP3 SUB PUSH2 0x1A9 JUMPI JUMP JUMPDEST CALLVALUE PUSH2 0x1A9 JUMPI PUSH1 0x40 CALLDATASIZE PUSH1 0x3 NOT ADD SLT PUSH2 0x1A9 JUMPI PUSH2 0x44C PUSH2 0x404 PUSH2 0x3D8 JUMP JUMPDEST PUSH1 0xFF PUSH1 0x24 CALLDATALOAD SWAP2 PUSH2 0x413 DUP4 PUSH2 0x198 JUMP JUMPDEST AND PUSH2 0x420 PUSH1 0x10 DUP3 LT PUSH2 0x12DC JUMP JUMPDEST PUSH0 MSTORE PUSH1 0x3 PUSH1 0x20 MSTORE PUSH1 0x40 PUSH0 KECCAK256 SWAP1 PUSH1 0x1 DUP1 PUSH1 0xA0 SHL SUB AND PUSH12 0xFFFFFFFFFFFFFFFFFFFFFFFF PUSH1 0xA0 SHL DUP3 SLOAD AND OR SWAP1 SSTORE JUMP JUMPDEST STOP JUMPDEST DUP1 ISZERO ISZERO SUB PUSH2 0x1A9 JUMPI JUMP JUMPDEST CALLVALUE PUSH2 0x1A9 JUMPI PUSH1 0x40 CALLDATASIZE PUSH1 0x3 NOT ADD SLT PUSH2 0x1A9 JUMPI PUSH1 0x4 CALLDATALOAD PUSH2 0x475 DUP2 PUSH2 0x198 JUMP JUMPDEST PUSH1 0x24 CALLDATALOAD SWAP1 PUSH2 0x482 DUP3 PUSH2 0x44E JUMP JUMPDEST CALLER PUSH0 SWAP1 DUP2 MSTORE PUSH1 0x20 DUP2 DUP2 MSTORE PUSH1 0x40 DUP1 DUP4 KECCAK256 PUSH1 0x1 PUSH1 0x1 PUSH1 0xA0 SHL SUB DUP6 AND DUP5 MSTORE SWAP1 SWAP2 MSTORE SWAP1 KECCAK256 SWAP2 ISZERO ISZERO SWAP2 PUSH1 0xFF NOT DUP2 SLOAD AND PUSH1 0xFF DUP5 AND OR SWAP1 SSTORE PUSH1 0x40 MLOAD SWAP2 DUP3 MSTORE PUSH1 0x1 DUP1 PUSH1 0xA0 SHL SUB AND SWAP1 PUSH32 0xCEB576D9F15E4E200FDB5096D64D5DFD667E16DEF20C1EEFD14256D8E3FAA267 PUSH1 0x20 CALLER SWAP3 LOG3 PUSH1 0x40 MLOAD PUSH1 0x1 DUP2 MSTORE PUSH1 0x20 SWAP1 RETURN JUMPDEST PUSH1 0x1 PUSH1 0x1 PUSH1 0xE8 SHL SUB NOT DUP2 AND SUB PUSH2 0x1A9 JUMPI JUMP JUMPDEST CALLVALUE PUSH2 0x1A9 JUMPI PUSH1 0x80 CALLDATASIZE PUSH1 0x3 NOT ADD SLT PUSH2 0x1A9 JUMPI PUSH2 0x30A PUSH1 0x4 CALLDATALOAD PUSH2 0x526 DUP2 PUSH2 0x198 JUMP JUMPDEST PUSH1 0x24 CALLDATALOAD SWAP1 PUSH2 0x533 DUP3 PUSH2 0x198 JUMP JUMPDEST PUSH32 0x68DF9A4EB7AACBE8F43763BFBC9F7CA135A5397190EA1CCE2558DB52DC2F3692 PUSH1 0x80 PUSH1 0x44 CALLDATALOAD SWAP4 PUSH2 0x563 DUP6 PUSH2 0x198 JUMP JUMPDEST PUSH1 0x64 CALLDATALOAD PUSH2 0x56F DUP2 PUSH2 0x4F4 JUMP JUMPDEST PUSH2 0x57B DUP2 DUP8 DUP5 DUP9 PUSH2 0x17BF JUMP JUMPDEST SWAP6 DUP7 SWAP6 PUSH1 0x1 PUSH1 0x1 PUSH1 0xA0 SHL SUB DUP5 DUP2 AND SWAP1 DUP3 AND LT ISZERO PUSH2 0x5D5 JUMPI SWAP3 JUMPDEST PUSH1 0x40 DUP1 MLOAD PUSH1 0x1 PUSH1 0x1 PUSH1 0xA0 SHL SUB SWAP6 DUP7 AND DUP2 MSTORE SWAP2 DUP6 AND PUSH1 0x20 DUP4 ADD MSTORE SWAP2 SWAP1 SWAP4 AND SWAP1 DUP4 ADD MSTORE PUSH1 0x1 PUSH1 0x1 PUSH1 0xE8 SHL SUB NOT AND PUSH1 0x60 DUP3 ADD MSTORE LOG2 PUSH1 0x40 MLOAD SWAP1 DUP2 MSTORE SWAP1 DUP2 SWAP1 PUSH1 0x20 DUP3 ADD SWAP1 JUMP JUMPDEST PUSH2 0x594 JUMP JUMPDEST CALLVALUE PUSH2 0x1A9 JUMPI PUSH1 0x60 CALLDATASIZE PUSH1 0x3 NOT ADD SLT PUSH2 0x1A9 JUMPI PUSH1 0x4 CALLDATALOAD PUSH2 0x5F7 DUP2 PUSH2 0x198 JUMP JUMPDEST PUSH2 0x632 PUSH1 0x24 CALLDATALOAD PUSH2 0x606 DUP2 PUSH2 0x198 JUMP JUMPDEST PUSH1 0x44 CALLDATALOAD SWAP3 PUSH1 0x1 DUP1 PUSH1 0xA0 SHL SUB AND PUSH0 MSTORE PUSH1 0x2 PUSH1 0x20 MSTORE PUSH1 0x40 PUSH0 KECCAK256 SWAP1 PUSH1 0x1 DUP1 PUSH1 0xA0 SHL SUB AND PUSH0 MSTORE PUSH1 0x20 MSTORE PUSH1 0x40 PUSH0 KECCAK256 SWAP1 JUMP JUMPDEST SWAP1 PUSH0 MSTORE PUSH1 0x20 MSTORE PUSH1 0x20 PUSH1 0x40 PUSH0 KECCAK256 SLOAD PUSH1 0x40 MLOAD SWAP1 DUP2 MSTORE RETURN JUMPDEST CALLVALUE PUSH2 0x1A9 JUMPI PUSH1 0x20 CALLDATASIZE PUSH1 0x3 NOT ADD SLT PUSH2 0x1A9 JUMPI PUSH1 0x40 PUSH1 0x1 PUSH1 0x1 PUSH1 0x80 SHL SUB PUSH2 0x686 PUSH1 0x4 CALLDATALOAD PUSH0 MSTORE PUSH1 0x6 PUSH1 0x20 MSTORE PUSH1 0x40 PUSH0 KECCAK256 SLOAD SWAP1 PUSH1 0x1 PUSH1 0x1 PUSH1 0x80 SHL SUB DUP3 AND SWAP2 PUSH1 0x80 SHR SWAP1 JUMP JUMPDEST DUP4 MLOAD SWAP2 DUP4 AND DUP3 MSTORE SWAP1 SWAP2 AND PUSH1 0x20 DUP3 ADD MSTORE RETURN JUMPDEST CALLVALUE PUSH2 0x1A9 JUMPI PUSH1 0x20 CALLDATASIZE PUSH1 0x3 NOT ADD SLT PUSH2 0x1A9 JUMPI PUSH1 0xFF PUSH2 0x6B2 PUSH2 0x3D8 JUMP JUMPDEST AND PUSH2 0x6BF PUSH1 0x10 DUP3 LT PUSH2 0x12DC JUMP JUMPDEST PUSH0 SWAP1 DUP2 MSTORE PUSH1 0x4 PUSH1 0x20 MSTORE PUSH1 0x40 SWAP1 KECCAK256 DUP1 SLOAD PUSH1 0x1 PUSH1 0x1 PUSH1 0xA0 SHL SUB NOT AND SWAP1 SSTORE STOP JUMPDEST CALLVALUE PUSH2 0x1A9 JUMPI PUSH1 0x40 CALLDATASIZE PUSH1 0x3 NOT ADD SLT PUSH2 0x1A9 JUMPI PUSH2 0x44C PUSH2 0x6F8 PUSH2 0x3D8 JUMP JUMPDEST PUSH1 0xFF PUSH1 0x24 CALLDATALOAD SWAP2 PUSH2 0x707 DUP4 PUSH2 0x198 JUMP JUMPDEST AND PUSH2 0x714 PUSH1 0x10 DUP3 LT PUSH2 0x12DC JUMP JUMPDEST PUSH0 MSTORE PUSH1 0x4 PUSH1 0x20 MSTORE PUSH1 0x40 PUSH0 KECCAK256 SWAP1 PUSH1 0x1 DUP1 PUSH1 0xA0 SHL SUB AND PUSH12 0xFFFFFFFFFFFFFFFFFFFFFFFF PUSH1 0xA0 SHL DUP3 SLOAD AND OR SWAP1 SSTORE JUMP JUMPDEST CALLVALUE PUSH2 0x1A9 JUMPI PUSH1 0x20 CALLDATASIZE PUSH1 0x3 NOT ADD SLT PUSH2 0x1A9 JUMPI PUSH1 0xFF PUSH2 0x75B PUSH2 0x3D8 JUMP JUMPDEST AND PUSH2 0x768 PUSH1 0x10 DUP3 LT PUSH2 0x12DC JUMP JUMPDEST PUSH0 MSTORE PUSH1 0x4 PUSH1 0x20 MSTORE PUSH1 0x20 PUSH1 0x1 DUP1 PUSH1 0xA0 SHL SUB PUSH1 0x40 PUSH0 KECCAK256 SLOAD AND PUSH1 0x40 MLOAD SWAP1 DUP2 MSTORE RETURN JUMPDEST PUSH1 0x44 CALLDATALOAD SWAP1 PUSH1 0x1 PUSH1 0x1 PUSH1 0x80 SHL SUB DUP3 AND DUP3 SUB PUSH2 0x1A9 JUMPI JUMP JUMPDEST PUSH1 0x64 CALLDATALOAD SWAP1 PUSH1 0x1 PUSH1 0x1 PUSH1 0x80 SHL SUB DUP3 AND DUP3 SUB PUSH2 0x1A9 JUMPI JUMP JUMPDEST CALLVALUE PUSH2 0x1A9 JUMPI PUSH1 0x80 CALLDATASIZE PUSH1 0x3 NOT ADD SLT PUSH2 0x1A9 JUMPI PUSH2 0x7CE PUSH1 0x4 CALLDATALOAD PUSH2 0x198 JUMP JUMPDEST PUSH2 0x7D9 PUSH1 0x24 CALLDATALOAD PUSH2 0x198 JUMP JUMPDEST PUSH2 0x7E1 PUSH2 0x786 JUMP JUMPDEST POP PUSH2 0x7EA PUSH2 0x79C JUMP JUMPDEST POP PUSH1 0x20 PUSH1 0x40 MLOAD PUSH8 0x120A871CC0020000 DUP2 MSTORE RETURN JUMPDEST CALLVALUE PUSH2 0x1A9 JUMPI PUSH1 0x20 CALLDATASIZE PUSH1 0x3 NOT ADD SLT PUSH2 0x1A9 JUMPI PUSH1 0xFF PUSH2 0x818 PUSH2 0x3D8 JUMP JUMPDEST AND PUSH2 0x825 PUSH1 0x10 DUP3 LT PUSH2 0x12DC JUMP JUMPDEST PUSH0 SWAP1 DUP2 MSTORE PUSH1 0x3 PUSH1 0x20 MSTORE PUSH1 0x40 SWAP1 KECCAK256 DUP1 SLOAD PUSH1 0x1 PUSH1 0x1 PUSH1 0xA0 SHL SUB NOT AND SWAP1 SSTORE STOP JUMPDEST CALLVALUE PUSH2 0x1A9 JUMPI PUSH0 CALLDATASIZE PUSH1 0x3 NOT ADD SLT PUSH2 0x1A9 JUMPI PUSH1 0x40 MLOAD PUSH32 0x0 PUSH1 0x1 PUSH1 0x1 PUSH1 0xA0 SHL SUB AND DUP2 MSTORE PUSH1 0x20 SWAP1 RETURN JUMPDEST CALLVALUE PUSH2 0x1A9 JUMPI PUSH1 0x20 CALLDATASIZE PUSH1 0x3 NOT ADD SLT PUSH2 0x1A9 JUMPI PUSH1 0x4 CALLDATALOAD PUSH0 MSTORE PUSH1 0x5 PUSH1 0x20 MSTORE PUSH1 0x20 PUSH1 0x40 PUSH0 KECCAK256 SLOAD PUSH1 0x40 MLOAD SWAP1 DUP2 MSTORE RETURN JUMPDEST CALLVALUE PUSH2 0x1A9 JUMPI PUSH1 0x40 CALLDATASIZE PUSH1 0x3 NOT ADD SLT PUSH2 0x1A9 JUMPI PUSH1 0x20 PUSH1 0xFF PUSH2 0x907 PUSH1 0x4 CALLDATALOAD PUSH2 0x8D4 DUP2 PUSH2 0x198 JUMP JUMPDEST PUSH1 0x24 CALLDATALOAD SWAP1 PUSH2 0x8E1 DUP3 PUSH2 0x198 JUMP JUMPDEST PUSH1 0x1 DUP1 PUSH1 0xA0 SHL SUB AND PUSH0 MSTORE PUSH0 DUP5 MSTORE PUSH1 0x40 PUSH0 KECCAK256 SWAP1 PUSH1 0x1 DUP1 PUSH1 0xA0 SHL SUB AND PUSH0 MSTORE PUSH1 0x20 MSTORE PUSH1 0x40 PUSH0 KECCAK256 SWAP1 JUMP JUMPDEST SLOAD AND PUSH1 0x40 MLOAD SWAP1 ISZERO ISZERO DUP2 MSTORE RETURN JUMPDEST PUSH1 0x60 CALLDATASIZE PUSH1 0x3 NOT ADD SLT PUSH2 0x1A9 JUMPI PUSH1 0x4 CALLDATALOAD PUSH8 0xFFFFFFFFFFFFFFFF DUP2 GT PUSH2 0x1A9 JUMPI CALLDATASIZE PUSH1 0x23 DUP3 ADD SLT ISZERO PUSH2 0x1A9 JUMPI DUP1 PUSH1 0x4 ADD CALLDATALOAD PUSH8 0xFFFFFFFFFFFFFFFF DUP2 GT PUSH2 0x1A9 JUMPI CALLDATASIZE PUSH1 0x24 PUSH1 0xA0 DUP4 MUL DUP5 ADD ADD GT PUSH2 0x1A9 JUMPI PUSH2 0x30A SWAP2 PUSH2 0x977 SWAP2 PUSH1 0x24 CALLDATALOAD SWAP1 PUSH1 0x24 PUSH1 0x44 CALLDATALOAD SWAP4 ADD PUSH2 0x13A8 JUMP JUMPDEST PUSH1 0x40 MLOAD SWAP1 DUP2 MSTORE SWAP1 DUP2 SWAP1 PUSH1 0x20 DUP3 ADD SWAP1 JUMP JUMPDEST CALLVALUE PUSH2 0x1A9 JUMPI PUSH1 0xA0 CALLDATASIZE PUSH1 0x3 NOT ADD SLT PUSH2 0x1A9 JUMPI PUSH1 0x4 CALLDATALOAD PUSH2 0x9A4 DUP2 PUSH2 0x198 JUMP JUMPDEST PUSH1 0x24 CALLDATALOAD SWAP1 PUSH2 0x9B1 DUP3 PUSH2 0x198 JUMP JUMPDEST PUSH1 0x1 PUSH1 0x1 PUSH1 0x80 SHL SUB PUSH1 0x44 CALLDATALOAD SWAP2 PUSH2 0x9C6 DUP4 PUSH2 0x198 JUMP JUMPDEST PUSH2 0x9EB PUSH1 0x64 CALLDATALOAD PUSH2 0x9D5 DUP2 PUSH2 0x4F4 JUMP JUMPDEST PUSH1 0x84 CALLDATALOAD SWAP5 PUSH2 0x9E4 DUP7 ISZERO ISZERO PUSH2 0x1467 JUMP JUMPDEST DUP7 DUP5 PUSH2 0x17BF JUMP JUMPDEST SWAP4 PUSH2 0xA74 PUSH2 0xA62 DUP5 PUSH2 0xA5A PUSH2 0xA41 PUSH2 0xA1B DUP11 PUSH0 MSTORE PUSH1 0x6 PUSH1 0x20 MSTORE PUSH1 0x40 PUSH0 KECCAK256 SLOAD SWAP1 PUSH1 0x1 PUSH1 0x1 PUSH1 0x80 SHL SUB DUP3 AND SWAP2 PUSH1 0x80 SHR SWAP1 JUMP JUMPDEST SWAP9 SWAP1 PUSH2 0xA3A PUSH2 0xA32 DUP14 PUSH0 MSTORE PUSH1 0x5 PUSH1 0x20 MSTORE PUSH1 0x40 PUSH0 KECCAK256 SWAP1 JUMP JUMPDEST SLOAD ISZERO ISZERO PUSH2 0x14B3 JUMP JUMPDEST AND DUP10 PUSH2 0x153E JUMP JUMPDEST PUSH2 0xA53 DUP11 PUSH0 MSTORE PUSH1 0x5 PUSH1 0x20 MSTORE PUSH1 0x40 PUSH0 KECCAK256 SWAP1 JUMP JUMPDEST SLOAD SWAP1 PUSH2 0x1551 JUMP JUMPDEST SWAP6 AND DUP7 PUSH2 0x153E JUMP JUMPDEST PUSH2 0xA53 DUP8 PUSH0 MSTORE PUSH1 0x5 PUSH1 0x20 MSTORE PUSH1 0x40 PUSH0 KECCAK256 SWAP1 JUMP JUMPDEST SWAP4 DUP4 ISZERO DUP1 PUSH2 0xB36 JUMPI JUMPDEST PUSH2 0xB1D JUMPI DUP6 DUP2 PUSH2 0xA96 PUSH2 0xAE5 SWAP4 PUSH2 0xB04 SWAP8 SWAP9 SWAP10 CALLER PUSH2 0x1837 JUMP JUMPDEST PUSH2 0xAB3 PUSH2 0xAAB DUP4 PUSH0 MSTORE PUSH1 0x5 PUSH1 0x20 MSTORE PUSH1 0x40 PUSH0 KECCAK256 SWAP1 JUMP JUMPDEST SWAP2 DUP3 SLOAD PUSH2 0x12C2 JUMP JUMPDEST SWAP1 SSTORE PUSH2 0xACA PUSH1 0x1 PUSH1 0x1 PUSH1 0x80 SHL SUB DUP8 AND PUSH1 0xF SIGNEXTEND PUSH2 0x156F JUMP JUMPDEST PUSH2 0xADF PUSH1 0x1 PUSH1 0x1 PUSH1 0x80 SHL SUB DUP10 AND PUSH1 0xF SIGNEXTEND PUSH2 0x156F JUMP JUMPDEST SWAP2 PUSH2 0x18B6 JUMP JUMPDEST PUSH1 0x1 PUSH1 0x1 PUSH1 0xA0 SHL SUB DUP2 DUP2 AND SWAP1 DUP4 AND LT ISZERO PUSH2 0xB15 JUMPI DUP4 DUP6 SWAP2 JUMPDEST CALLER SWAP4 PUSH2 0x190C JUMP JUMPDEST PUSH1 0x40 DUP1 MLOAD SWAP2 DUP3 MSTORE PUSH1 0x20 DUP3 ADD SWAP3 SWAP1 SWAP3 MSTORE RETURN JUMPDEST DUP5 DUP5 SWAP2 PUSH2 0xAFD JUMP JUMPDEST PUSH4 0xD5DE6205 PUSH1 0xE0 SHL PUSH0 MSTORE PUSH1 0x4 DUP5 SWAP1 MSTORE PUSH1 0x24 DUP6 SWAP1 MSTORE PUSH1 0x44 PUSH0 REVERT JUMPDEST POP DUP5 ISZERO PUSH2 0xA7D JUMP JUMPDEST CALLVALUE PUSH2 0x1A9 JUMPI PUSH1 0x20 CALLDATASIZE PUSH1 0x3 NOT ADD SLT PUSH2 0x1A9 JUMPI PUSH1 0xFF PUSH2 0xB59 PUSH2 0x3D8 JUMP JUMPDEST AND PUSH2 0xB66 PUSH1 0x10 DUP3 LT PUSH2 0x12DC JUMP JUMPDEST PUSH0 MSTORE PUSH1 0x3 PUSH1 0x20 MSTORE PUSH1 0x20 PUSH1 0x1 DUP1 PUSH1 0xA0 SHL SUB PUSH1 0x40 PUSH0 KECCAK256 SLOAD AND PUSH1 0x40 MLOAD SWAP1 DUP2 MSTORE RETURN JUMPDEST PUSH1 0xE0 CALLDATASIZE PUSH1 0x3 NOT ADD SLT PUSH2 0x1A9 JUMPI PUSH1 0x4 CALLDATALOAD PUSH2 0xB9C DUP2 PUSH2 0x198 JUMP JUMPDEST PUSH1 0x24 CALLDATALOAD DUP1 SWAP2 PUSH2 0xBAA DUP3 PUSH2 0x198 JUMP JUMPDEST PUSH1 0x44 CALLDATALOAD PUSH2 0xBB6 DUP2 PUSH2 0x198 JUMP JUMPDEST PUSH1 0x64 CALLDATALOAD SWAP1 PUSH2 0xBC3 DUP3 PUSH2 0x4F4 JUMP JUMPDEST PUSH1 0x84 CALLDATALOAD PUSH1 0xA4 CALLDATALOAD SWAP3 PUSH2 0xBD3 DUP5 PUSH2 0x44E JUMP JUMPDEST DUP2 DUP5 DUP7 PUSH1 0xC4 CALLDATALOAD SWAP4 PUSH0 MLOAD PUSH1 0x20 PUSH2 0x2597 PUSH0 CODECOPY PUSH0 MLOAD SWAP1 PUSH0 MSTORE PUSH1 0x40 MLOAD DUP1 PUSH2 0xC02 DUP8 DUP3 SWAP2 SWAP1 PUSH1 0x20 PUSH1 0x40 DUP5 ADD SWAP4 PUSH1 0x1 DUP2 MSTORE ADD MSTORE JUMP JUMPDEST SUB SWAP1 LOG1 PUSH2 0xC11 DUP2 DUP9 DUP13 DUP6 PUSH2 0x17BF JUMP JUMPDEST SWAP7 DUP4 ISZERO PUSH2 0xF0E JUMPI DUP3 JUMPDEST CALLER DUP7 CALLVALUE SWAP1 PUSH2 0xC27 SWAP4 PUSH2 0x193D JUMP JUMPDEST PUSH1 0x40 MLOAD DUP1 PUSH2 0xC41 DUP11 DUP3 SWAP2 SWAP1 PUSH1 0x20 PUSH1 0x40 DUP5 ADD SWAP4 PUSH1 0x2 DUP2 MSTORE ADD MSTORE JUMP JUMPDEST SUB PUSH0 MLOAD PUSH1 0x20 PUSH2 0x2597 PUSH0 CODECOPY PUSH0 MLOAD SWAP1 PUSH0 MSTORE SWAP2 LOG1 PUSH0 DUP9 DUP2 MSTORE PUSH1 0x6 PUSH1 0x20 MSTORE PUSH1 0x40 SWAP1 KECCAK256 SLOAD PUSH1 0x1 PUSH1 0x1 PUSH1 0x80 SHL SUB DUP2 AND SWAP1 PUSH1 0x80 SHR SWAP12 DUP2 SWAP7 DUP3 SWAP4 PUSH1 0x1 PUSH1 0x1 PUSH1 0x80 SHL SUB DUP16 SWAP7 SWAP5 AND PUSH2 0xC89 SWAP1 PUSH1 0x80 SHL SWAP1 JUMP JUMPDEST PUSH1 0x40 DUP1 MLOAD PUSH1 0x3 DUP2 MSTORE PUSH1 0x1 PUSH1 0x1 PUSH1 0x80 SHL SUB DUP10 AND SWAP3 SWAP1 SWAP3 OR PUSH1 0x20 DUP4 ADD MSTORE PUSH0 MLOAD PUSH1 0x20 PUSH2 0x2597 PUSH0 CODECOPY PUSH0 MLOAD SWAP1 PUSH0 MSTORE SWAP2 LOG1 PUSH2 0xCBC PUSH2 0x15EB JUMP JUMPDEST SWAP1 PUSH2 0xCC5 PUSH2 0x15EB JUMP JUMPDEST SWAP4 PUSH2 0xCCE PUSH2 0x15CA JUMP JUMPDEST PUSH1 0x1 PUSH1 0x1 PUSH1 0xA0 SHL SUB SWAP1 SWAP10 AND DUP10 MSTORE PUSH1 0x1 PUSH1 0x1 PUSH1 0xA0 SHL SUB AND PUSH1 0x20 DUP10 ADD MSTORE PUSH1 0x1 PUSH1 0x1 PUSH1 0xA0 SHL SUB AND PUSH1 0x40 DUP9 ADD MSTORE PUSH1 0x60 DUP8 ADD SWAP1 DUP2 MSTORE DUP8 ISZERO ISZERO PUSH1 0x80 DUP9 ADD MSTORE PUSH1 0xA0 DUP8 ADD SWAP3 DUP4 MSTORE MLOAD PUSH2 0xD17 SWAP1 PUSH2 0x160D JUMP JUMPDEST MSTORE MLOAD PUSH2 0xD22 SWAP1 PUSH2 0x160D JUMP JUMPDEST PUSH1 0x1 PUSH1 0x1 PUSH1 0xE8 SHL SUB NOT SWAP1 SWAP2 AND SWAP1 MSTORE PUSH2 0xD39 SWAP3 PUSH2 0x1BF9 JUMP JUMPDEST POP PUSH2 0xD79 SWAP3 SWAP1 DUP1 ISZERO PUSH2 0xEC6 JUMPI SWAP9 DUP10 SWAP2 JUMPDEST PUSH0 MLOAD PUSH1 0x20 PUSH2 0x2597 PUSH0 CODECOPY PUSH0 MLOAD SWAP1 PUSH0 MSTORE PUSH1 0x40 MLOAD DUP1 PUSH2 0xD71 DUP7 DUP3 SWAP2 SWAP1 PUSH1 0x20 PUSH1 0x40 DUP5 ADD SWAP4 PUSH1 0x4 DUP2 MSTORE ADD MSTORE JUMP JUMPDEST SUB SWAP1 LOG1 PUSH2 0x1FE9 JUMP JUMPDEST DUP1 DUP7 LT PUSH2 0xEAF JUMPI POP SWAP2 PUSH2 0xE00 PUSH2 0xE39 SWAP5 SWAP3 PUSH2 0x30A SWAP8 SWAP5 PUSH0 MLOAD PUSH1 0x20 PUSH2 0x2597 PUSH0 CODECOPY PUSH0 MLOAD SWAP1 PUSH0 MSTORE PUSH1 0x40 MLOAD DUP1 PUSH2 0xDB6 DUP2 SWAP1 PUSH0 PUSH1 0x20 PUSH1 0x40 DUP5 ADD SWAP4 PUSH1 0x5 DUP2 MSTORE ADD MSTORE JUMP JUMPDEST SUB SWAP1 LOG1 PUSH1 0x1 PUSH1 0x1 PUSH1 0xA0 SHL SUB DUP7 DUP2 AND SWAP1 DUP7 AND LT ISZERO PUSH2 0xEA7 JUMPI DUP4 SWAP1 JUMPDEST DUP2 ISZERO PUSH2 0xE8C JUMPI PUSH1 0x1 PUSH1 0x1 PUSH1 0x80 SHL SUB DUP2 AND PUSH1 0xF SIGNEXTEND SWAP2 JUMPDEST ISZERO PUSH2 0xE7A JUMPI POP PUSH2 0xADF PUSH1 0x1 PUSH1 0x1 PUSH1 0x80 SHL SUB DUP10 AND PUSH1 0xF SIGNEXTEND PUSH2 0x156F JUMP JUMPDEST PUSH0 MLOAD PUSH1 0x20 PUSH2 0x2597 PUSH0 CODECOPY PUSH0 MLOAD SWAP1 PUSH0 MSTORE PUSH1 0x40 MLOAD DUP1 PUSH2 0xE27 DUP2 SWAP1 PUSH0 PUSH1 0x20 PUSH1 0x40 DUP5 ADD SWAP4 PUSH1 0x6 DUP2 MSTORE ADD MSTORE JUMP JUMPDEST SUB SWAP1 LOG1 ISZERO PUSH2 0xE73 JUMPI POP JUMPDEST DUP3 CALLER SWAP2 PUSH2 0x195C JUMP JUMPDEST PUSH0 MLOAD PUSH1 0x20 PUSH2 0x2597 PUSH0 CODECOPY PUSH0 MLOAD SWAP1 PUSH0 MSTORE PUSH1 0x40 MLOAD DUP1 PUSH2 0xE60 DUP2 SWAP1 PUSH0 PUSH1 0x20 PUSH1 0x40 DUP5 ADD SWAP4 PUSH1 0x7 DUP2 MSTORE ADD MSTORE JUMP JUMPDEST SUB SWAP1 LOG1 PUSH1 0x40 MLOAD SWAP1 DUP2 MSTORE SWAP1 DUP2 SWAP1 PUSH1 0x20 DUP3 ADD SWAP1 JUMP JUMPDEST SWAP1 POP PUSH2 0xE31 JUMP JUMPDEST PUSH1 0x1 PUSH1 0x1 PUSH1 0x80 SHL SUB AND PUSH1 0xF SIGNEXTEND SWAP2 PUSH2 0x18B6 JUMP JUMPDEST PUSH2 0xEA1 PUSH1 0x1 PUSH1 0x1 PUSH1 0x80 SHL SUB DUP11 AND PUSH1 0xF SIGNEXTEND PUSH2 0x156F JUMP JUMPDEST SWAP2 PUSH2 0xDE5 JUMP JUMPDEST DUP4 ISZERO SWAP1 PUSH2 0xDD0 JUMP JUMPDEST PUSH4 0xD438755D PUSH1 0xE0 SHL PUSH0 MSTORE PUSH1 0x4 MSTORE PUSH1 0x24 DUP6 SWAP1 MSTORE PUSH1 0x44 PUSH0 REVERT JUMPDEST POP DUP2 ISZERO PUSH2 0xEEF JUMPI PUSH2 0xEE7 PUSH2 0xED9 DUP7 PUSH2 0x151A JUMP JUMPDEST PUSH8 0xDE0B6B3A7640000 SWAP1 DIV SWAP1 JUMP JUMPDEST SWAP9 DUP10 SWAP2 PUSH2 0xD49 JUMP JUMPDEST PUSH2 0xF09 PUSH2 0xEFB DUP7 PUSH2 0x14F6 JUMP JUMPDEST PUSH8 0x120A871CC0020000 SWAP1 DIV SWAP1 JUMP JUMPDEST PUSH2 0xEE7 JUMP JUMPDEST DUP11 PUSH2 0xC1A JUMP JUMPDEST PUSH1 0xC0 CALLDATASIZE PUSH1 0x3 NOT ADD SLT PUSH2 0x1A9 JUMPI PUSH1 0x4 CALLDATALOAD PUSH2 0xF2C DUP2 PUSH2 0x198 JUMP JUMPDEST PUSH1 0x24 CALLDATALOAD SWAP1 PUSH2 0xF39 DUP3 PUSH2 0x198 JUMP JUMPDEST PUSH1 0x44 CALLDATALOAD SWAP1 PUSH2 0xF46 DUP3 PUSH2 0x198 JUMP JUMPDEST PUSH1 0x64 CALLDATALOAD PUSH2 0xF52 DUP2 PUSH2 0x4F4 JUMP JUMPDEST PUSH2 0xF64 PUSH1 0x84 CALLDATALOAD SWAP2 PUSH1 0xA4 CALLDATALOAD SWAP5 DUP7 DUP6 PUSH2 0x17BF JUMP JUMPDEST SWAP1 PUSH2 0xF87 DUP3 PUSH0 MSTORE PUSH1 0x6 PUSH1 0x20 MSTORE PUSH1 0x40 PUSH0 KECCAK256 SLOAD SWAP1 PUSH1 0x1 PUSH1 0x1 PUSH1 0x80 SHL SUB DUP3 AND SWAP2 PUSH1 0x80 SHR SWAP1 JUMP JUMPDEST SWAP1 DUP4 PUSH0 MSTORE PUSH1 0x5 PUSH1 0x20 MSTORE PUSH1 0x40 PUSH0 KECCAK256 SLOAD ISZERO PUSH0 EQ PUSH2 0x1064 JUMPI POP POP PUSH2 0xFA8 DUP5 DUP3 PUSH2 0x12CF JUMP JUMPDEST SWAP4 JUMPDEST DUP5 ISZERO PUSH2 0x1055 JUMPI PUSH2 0x30A SWAP6 PUSH2 0x101E SWAP5 PUSH2 0x1005 SWAP4 PUSH1 0x1 PUSH1 0x1 PUSH1 0xA0 SHL SUB DUP1 DUP5 AND SWAP1 DUP4 AND LT SWAP2 DUP3 ISZERO PUSH2 0x104F JUMPI SWAP3 SWAP2 JUMPDEST ISZERO PUSH2 0x103B JUMPI SWAP3 PUSH1 0x1 PUSH1 0x1 PUSH1 0x80 SHL SUB SWAP3 DUP4 SWAP3 PUSH2 0xFF6 SWAP2 JUMPDEST DUP4 DUP8 CALLER SWAP4 CALLVALUE SWAP4 PUSH2 0x1967 JUMP JUMPDEST AND PUSH1 0xF SIGNEXTEND SWAP2 AND PUSH1 0xF SIGNEXTEND DUP4 PUSH2 0x18B6 JUMP JUMPDEST PUSH2 0x1010 DUP4 DUP3 CALLER PUSH2 0x2068 JUMP JUMPDEST PUSH0 MSTORE PUSH1 0x5 PUSH1 0x20 MSTORE PUSH1 0x40 PUSH0 KECCAK256 SWAP1 JUMP JUMPDEST PUSH2 0x1029 DUP3 DUP3 SLOAD PUSH2 0x12CF JUMP JUMPDEST SWAP1 SSTORE PUSH1 0x40 MLOAD SWAP1 DUP2 MSTORE SWAP1 DUP2 SWAP1 PUSH1 0x20 DUP3 ADD SWAP1 JUMP JUMPDEST PUSH1 0x1 PUSH1 0x1 PUSH1 0x80 SHL SUB SWAP3 DUP4 SWAP3 PUSH2 0xFF6 SWAP2 PUSH2 0xFEB JUMP JUMPDEST SWAP2 PUSH2 0xFD5 JUMP JUMPDEST PUSH4 0x283EEADF PUSH1 0xE0 SHL PUSH0 MSTORE PUSH1 0x4 PUSH0 REVERT JUMPDEST PUSH8 0xDE0B6B3A7640000 DUP7 MUL DUP7 DUP2 DIV PUSH8 0xDE0B6B3A7640000 EQ DUP8 ISZERO OR ISZERO PUSH2 0x30E JUMPI PUSH8 0x120A871CC0020000 SWAP1 DIV DUP4 ADD SWAP1 DUP2 DUP5 GT PUSH2 0x30E JUMPI PUSH2 0x10CD PUSH2 0x10E7 SWAP2 PUSH1 0x1 PUSH1 0x1 PUSH1 0x80 SHL SUB PUSH2 0x10C6 PUSH2 0xEFB PUSH2 0x10BA PUSH2 0x10EC SWAP9 PUSH2 0x2040 JUMP JUMPDEST PUSH1 0x1 PUSH1 0x1 PUSH1 0x80 SHL SUB AND SWAP1 JUMP JUMPDEST SWAP2 AND PUSH2 0x12CF JUMP JUMPDEST SWAP2 PUSH2 0x10E0 DUP7 PUSH0 MSTORE PUSH1 0x5 PUSH1 0x20 MSTORE PUSH1 0x40 PUSH0 KECCAK256 SWAP1 JUMP JUMPDEST SLOAD SWAP1 PUSH2 0x153E JUMP JUMPDEST PUSH2 0x1551 JUMP JUMPDEST SWAP4 PUSH2 0xFAA JUMP JUMPDEST CALLVALUE PUSH2 0x1A9 JUMPI PUSH1 0x80 CALLDATASIZE PUSH1 0x3 NOT ADD SLT PUSH2 0x1A9 JUMPI PUSH1 0x4 CALLDATALOAD PUSH2 0x110F DUP2 PUSH2 0x198 JUMP JUMPDEST PUSH1 0x24 CALLDATALOAD PUSH2 0x111B DUP2 PUSH2 0x198 JUMP JUMPDEST PUSH1 0x44 CALLDATALOAD SWAP2 PUSH0 MLOAD PUSH1 0x20 PUSH2 0x2577 PUSH0 CODECOPY PUSH0 MLOAD SWAP1 PUSH0 MSTORE PUSH2 0x2FA PUSH1 0x64 CALLDATALOAD SWAP4 PUSH1 0x1 PUSH1 0x1 PUSH1 0xA0 SHL SUB DUP5 AND SWAP4 PUSH2 0x117D SWAP1 DUP8 SWAP1 PUSH2 0x1170 SWAP1 CALLER DUP9 EQ ISZERO DUP1 PUSH2 0x126C JUMPI JUMPDEST PUSH2 0x11DC JUMPI PUSH1 0x1 PUSH1 0x1 PUSH1 0xA0 SHL SUB AND PUSH0 SWAP1 DUP2 MSTORE PUSH1 0x1 PUSH1 0x20 MSTORE PUSH1 0x40 SWAP1 KECCAK256 SWAP1 JUMP JUMPDEST SWAP1 PUSH0 MSTORE PUSH1 0x20 MSTORE PUSH1 0x40 PUSH0 KECCAK256 SWAP1 JUMP JUMPDEST PUSH2 0x1188 DUP7 DUP3 SLOAD PUSH2 0x12C2 JUMP JUMPDEST SWAP1 SSTORE PUSH1 0x1 PUSH1 0x1 PUSH1 0xA0 SHL SUB DUP2 AND PUSH0 SWAP1 DUP2 MSTORE PUSH1 0x1 PUSH1 0x20 MSTORE PUSH1 0x40 SWAP1 KECCAK256 PUSH2 0x11AC SWAP1 DUP8 SWAP1 PUSH2 0x1170 JUMP JUMPDEST PUSH2 0x11B7 DUP7 DUP3 SLOAD PUSH2 0x12CF JUMP JUMPDEST SWAP1 SSTORE PUSH1 0x40 DUP1 MLOAD CALLER DUP2 MSTORE PUSH1 0x20 DUP2 ADD SWAP7 SWAP1 SWAP7 MSTORE PUSH1 0x1 PUSH1 0x1 PUSH1 0xA0 SHL SUB SWAP1 SWAP2 AND SWAP5 SWAP2 DUP3 SWAP2 DUP3 ADD SWAP1 JUMP JUMPDEST PUSH2 0x1213 DUP4 PUSH2 0x1170 CALLER PUSH2 0x11FE DUP6 PUSH1 0x1 DUP1 PUSH1 0xA0 SHL SUB AND PUSH0 MSTORE PUSH1 0x2 PUSH1 0x20 MSTORE PUSH1 0x40 PUSH0 KECCAK256 SWAP1 JUMP JUMPDEST SWAP1 PUSH1 0x1 DUP1 PUSH1 0xA0 SHL SUB AND PUSH0 MSTORE PUSH1 0x20 MSTORE PUSH1 0x40 PUSH0 KECCAK256 SWAP1 JUMP JUMPDEST SLOAD DUP10 PUSH1 0x1 DUP3 ADD PUSH2 0x1239 JUMPI JUMPDEST POP POP PUSH1 0x1 PUSH1 0x1 PUSH1 0xA0 SHL SUB AND PUSH0 SWAP1 DUP2 MSTORE PUSH1 0x1 PUSH1 0x20 MSTORE PUSH1 0x40 SWAP1 KECCAK256 SWAP1 JUMP JUMPDEST PUSH2 0x1242 SWAP2 PUSH2 0x12C2 JUMP JUMPDEST PUSH2 0x1264 DUP5 PUSH2 0x1170 CALLER PUSH2 0x11FE DUP7 PUSH1 0x1 DUP1 PUSH1 0xA0 SHL SUB AND PUSH0 MSTORE PUSH1 0x2 PUSH1 0x20 MSTORE PUSH1 0x40 PUSH0 KECCAK256 SWAP1 JUMP JUMPDEST SSTORE PUSH0 DUP10 PUSH2 0x121E JUMP JUMPDEST POP PUSH2 0x129B PUSH2 0x1297 PUSH2 0x1290 CALLER PUSH2 0x11FE DUP6 PUSH1 0x1 DUP1 PUSH1 0xA0 SHL SUB AND PUSH0 MSTORE PUSH0 PUSH1 0x20 MSTORE PUSH1 0x40 PUSH0 KECCAK256 SWAP1 JUMP JUMPDEST SLOAD PUSH1 0xFF AND SWAP1 JUMP JUMPDEST ISZERO SWAP1 JUMP JUMPDEST PUSH2 0x1153 JUMP JUMPDEST PUSH4 0x4E487B71 PUSH1 0xE0 SHL PUSH0 MSTORE PUSH1 0x11 PUSH1 0x4 MSTORE PUSH1 0x24 PUSH0 REVERT JUMPDEST PUSH0 NOT DUP2 ADD SWAP2 SWAP1 DUP3 GT PUSH2 0x30E JUMPI JUMP JUMPDEST SWAP2 SWAP1 DUP3 SUB SWAP2 DUP3 GT PUSH2 0x30E JUMPI JUMP JUMPDEST SWAP2 SWAP1 DUP3 ADD DUP1 SWAP3 GT PUSH2 0x30E JUMPI JUMP JUMPDEST ISZERO PUSH2 0x12E3 JUMPI JUMP JUMPDEST PUSH1 0x40 MLOAD PUSH3 0x461BCD PUSH1 0xE5 SHL DUP2 MSTORE PUSH1 0x20 PUSH1 0x4 DUP3 ADD MSTORE PUSH1 0x1D PUSH1 0x24 DUP3 ADD MSTORE PUSH32 0x496E76616C696420706F696E7465723A206D75737420626520302D3135000000 PUSH1 0x44 DUP3 ADD MSTORE PUSH1 0x64 SWAP1 REVERT JUMPDEST ISZERO PUSH2 0x132F JUMPI JUMP JUMPDEST PUSH1 0x40 MLOAD PUSH3 0x461BCD PUSH1 0xE5 SHL DUP2 MSTORE PUSH1 0x20 PUSH1 0x4 DUP3 ADD MSTORE PUSH1 0x7 PUSH1 0x24 DUP3 ADD MSTORE PUSH7 0x4E6F20686F7073 PUSH1 0xC8 SHL PUSH1 0x44 DUP3 ADD MSTORE PUSH1 0x64 SWAP1 REVERT JUMPDEST PUSH4 0x4E487B71 PUSH1 0xE0 SHL PUSH0 MSTORE PUSH1 0x32 PUSH1 0x4 MSTORE PUSH1 0x24 PUSH0 REVERT JUMPDEST SWAP2 SWAP1 DUP2 LT ISZERO PUSH2 0x1382 JUMPI PUSH1 0xA0 MUL ADD SWAP1 JUMP JUMPDEST PUSH2 0x135E JUMP JUMPDEST CALLDATALOAD PUSH2 0x1391 DUP2 PUSH2 0x198 JUMP JUMPDEST SWAP1 JUMP JUMPDEST CALLDATALOAD PUSH2 0x1391 DUP2 PUSH2 0x4F4 JUMP JUMPDEST CALLDATALOAD PUSH2 0x1391 DUP2 PUSH2 0x44E JUMP JUMPDEST SWAP1 SWAP2 SWAP4 SWAP3 SWAP4 PUSH2 0x13B8 DUP4 ISZERO ISZERO PUSH2 0x1328 JUMP JUMPDEST SWAP2 PUSH0 SWAP2 JUMPDEST DUP2 DUP4 LT PUSH2 0x13E8 JUMPI POP POP POP DUP1 SWAP3 DUP1 DUP3 LT PUSH2 0x13D3 JUMPI POP POP JUMP JUMPDEST PUSH4 0xD438755D PUSH1 0xE0 SHL PUSH0 MSTORE PUSH1 0x4 MSTORE PUSH1 0x24 MSTORE PUSH1 0x44 PUSH0 REVERT JUMPDEST SWAP1 SWAP2 SWAP3 PUSH2 0x1457 PUSH1 0x1 SWAP2 DUP6 ISZERO PUSH2 0x13FC DUP7 PUSH2 0x12B4 JUMP JUMPDEST DUP8 EQ SWAP1 PUSH2 0x140A DUP9 DUP9 DUP9 PUSH2 0x1372 JUMP JUMPDEST PUSH2 0x1413 DUP2 PUSH2 0x1387 JUMP JUMPDEST SWAP4 PUSH2 0x1420 PUSH1 0x20 DUP4 ADD PUSH2 0x1387 JUMP JUMPDEST SWAP2 PUSH2 0x142D PUSH1 0x40 DUP3 ADD PUSH2 0x1387 JUMP JUMPDEST SWAP1 PUSH2 0x1446 PUSH1 0x80 PUSH2 0x143F PUSH1 0x60 DUP5 ADD PUSH2 0x1394 JUMP JUMPDEST SWAP3 ADD PUSH2 0x139E JUMP JUMPDEST SWAP2 DUP6 ISZERO PUSH2 0x1460 JUMPI CALLVALUE SWAP5 JUMPDEST CALLER SWAP9 PUSH2 0x161A JUMP JUMPDEST SWAP4 ADD SWAP2 SWAP1 PUSH2 0x13BC JUMP JUMPDEST PUSH0 SWAP5 PUSH2 0x1450 JUMP JUMPDEST ISZERO PUSH2 0x146E JUMPI JUMP JUMPDEST PUSH1 0x40 MLOAD PUSH3 0x461BCD PUSH1 0xE5 SHL DUP2 MSTORE PUSH1 0x20 PUSH1 0x4 DUP3 ADD MSTORE PUSH1 0x18 PUSH1 0x24 DUP3 ADD MSTORE PUSH32 0x496E76616C6964206C697175696469747920616D6F756E740000000000000000 PUSH1 0x44 DUP3 ADD MSTORE PUSH1 0x64 SWAP1 REVERT JUMPDEST ISZERO PUSH2 0x14BA JUMPI JUMP JUMPDEST PUSH1 0x40 MLOAD PUSH3 0x461BCD PUSH1 0xE5 SHL DUP2 MSTORE PUSH1 0x20 PUSH1 0x4 DUP3 ADD MSTORE PUSH1 0x14 PUSH1 0x24 DUP3 ADD MSTORE PUSH20 0x139BC81B1A5C5D5A591A5D1E481A5B881C1BDBDB PUSH1 0x62 SHL PUSH1 0x44 DUP3 ADD MSTORE PUSH1 0x64 SWAP1 REVERT JUMPDEST SWAP1 PUSH8 0xDE0B6B3A7640000 DUP3 MUL SWAP2 DUP1 DUP4 DIV PUSH8 0xDE0B6B3A7640000 EQ SWAP1 ISZERO OR ISZERO PUSH2 0x30E JUMPI JUMP JUMPDEST SWAP1 PUSH8 0x120A871CC0020000 DUP3 MUL SWAP2 DUP1 DUP4 DIV PUSH8 0x120A871CC0020000 EQ SWAP1 ISZERO OR ISZERO PUSH2 0x30E JUMPI JUMP JUMPDEST DUP2 DUP2 MUL SWAP3 SWAP2 DUP2 ISZERO SWAP2 DUP5 DIV EQ OR ISZERO PUSH2 0x30E JUMPI JUMP JUMPDEST DUP2 ISZERO PUSH2 0x155B JUMPI DIV SWAP1 JUMP JUMPDEST PUSH4 0x4E487B71 PUSH1 0xE0 SHL PUSH0 MSTORE PUSH1 0x12 PUSH1 0x4 MSTORE PUSH1 0x24 PUSH0 REVERT JUMPDEST PUSH1 0xF SIGNEXTEND PUSH16 0x7FFFFFFFFFFFFFFFFFFFFFFFFFFFFFFF NOT DUP2 EQ PUSH2 0x30E JUMPI PUSH0 SUB SWAP1 JUMP JUMPDEST PUSH4 0x4E487B71 PUSH1 0xE0 SHL PUSH0 MSTORE PUSH1 0x41 PUSH1 0x4 MSTORE PUSH1 0x24 PUSH0 REVERT JUMPDEST SWAP1 PUSH1 0x1F DUP1 NOT SWAP2 ADD AND DUP2 ADD SWAP1 DUP2 LT PUSH8 0xFFFFFFFFFFFFFFFF DUP3 GT OR PUSH2 0x15C5 JUMPI PUSH1 0x40 MSTORE JUMP JUMPDEST PUSH2 0x158F JUMP JUMPDEST PUSH1 0x40 MLOAD SWAP1 PUSH2 0x15D9 PUSH1 0xC0 DUP4 PUSH2 0x15A3 JUMP JUMPDEST JUMP JUMPDEST PUSH1 0x40 MLOAD SWAP1 PUSH2 0x15D9 PUSH2 0x100 DUP4 PUSH2 0x15A3 JUMP JUMPDEST PUSH1 0x40 DUP1 MLOAD SWAP1 SWAP2 SWAP1 PUSH2 0x15FC DUP4 DUP3 PUSH2 0x15A3 JUMP JUMPDEST PUSH1 0x1 DUP2 MSTORE SWAP2 PUSH1 0x1F NOT ADD CALLDATASIZE PUSH1 0x20 DUP5 ADD CALLDATACOPY JUMP JUMPDEST DUP1 MLOAD ISZERO PUSH2 0x1382 JUMPI PUSH1 0x20 ADD SWAP1 JUMP JUMPDEST SWAP4 SWAP8 SWAP3 SWAP10 SWAP9 SWAP7 SWAP1 SWAP5 DUP9 SWAP3 SWAP7 DUP9 PUSH2 0x1632 DUP14 DUP11 DUP11 DUP11 PUSH2 0x17BF JUMP JUMPDEST SWAP4 PUSH2 0x17A0 JUMPI JUMPDEST POP POP PUSH0 DUP3 DUP2 MSTORE PUSH1 0x6 PUSH1 0x20 MSTORE PUSH1 0x40 SWAP1 KECCAK256 SLOAD PUSH1 0x1 PUSH1 0x1 PUSH1 0x80 SHL SUB DUP2 AND SWAP1 PUSH1 0x80 SHR DUP2 DUP2 SWAP10 SWAP3 SWAP14 PUSH2 0x1663 PUSH2 0x15EB JUMP JUMPDEST DUP6 PUSH2 0x166D DUP3 PUSH2 0x160D JUMP JUMPDEST MSTORE PUSH2 0x1676 PUSH2 0x15EB JUMP JUMPDEST SWAP2 PUSH2 0x1680 DUP4 PUSH2 0x160D JUMP JUMPDEST PUSH1 0x1 PUSH1 0x1 PUSH1 0xE8 SHL SUB NOT SWAP1 SWAP2 AND SWAP1 MSTORE PUSH2 0x1696 PUSH2 0x15CA JUMP JUMPDEST PUSH1 0x1 PUSH1 0x1 PUSH1 0xA0 SHL SUB DUP12 AND DUP2 MSTORE SWAP5 PUSH1 0x1 PUSH1 0x1 PUSH1 0xA0 SHL SUB DUP13 AND PUSH1 0x20 DUP8 ADD MSTORE PUSH1 0x1 PUSH1 0x1 PUSH1 0xA0 SHL SUB AND PUSH1 0x40 DUP7 ADD MSTORE PUSH1 0x60 DUP6 ADD MSTORE DUP7 ISZERO ISZERO PUSH1 0x80 DUP6 ADD MSTORE PUSH1 0xA0 DUP5 ADD MSTORE PUSH2 0x16DB SWAP3 PUSH2 0x1BF9 JUMP JUMPDEST POP PUSH2 0x1725 SWAP4 DUP2 ISZERO PUSH2 0x176C JUMPI PUSH2 0x16F4 SWAP2 DUP1 SWAP10 JUMPDEST DUP2 SWAP15 PUSH2 0x1FE9 JUMP JUMPDEST DUP9 ISZERO PUSH2 0x1751 JUMPI PUSH1 0x1 PUSH1 0x1 PUSH1 0x80 SHL SUB DUP2 AND PUSH1 0xF SIGNEXTEND SWAP1 JUMPDEST DUP10 ISZERO PUSH2 0xE7A JUMPI POP PUSH2 0xADF PUSH1 0x1 PUSH1 0x1 PUSH1 0x80 SHL SUB DUP9 AND PUSH1 0xF SIGNEXTEND PUSH2 0x156F JUMP JUMPDEST PUSH2 0x1731 JUMPI JUMPDEST POP POP POP POP POP JUMP JUMPDEST PUSH2 0x1740 SWAP5 ISZERO PUSH2 0x174A JUMPI POP PUSH2 0x195C JUMP JUMPDEST PUSH0 DUP1 DUP1 DUP1 DUP1 PUSH2 0x172A JUMP JUMPDEST SWAP1 POP PUSH2 0x195C JUMP JUMPDEST PUSH2 0x1766 PUSH1 0x1 PUSH1 0x1 PUSH1 0x80 SHL SUB DUP9 AND PUSH1 0xF SIGNEXTEND PUSH2 0x156F JUMP JUMPDEST SWAP1 PUSH2 0x1709 JUMP JUMPDEST POP POP DUP9 ISZERO PUSH2 0x178B JUMPI PUSH2 0x16F4 DUP10 PUSH2 0x1784 PUSH2 0xED9 DUP5 PUSH2 0x151A JUMP JUMPDEST DUP1 SWAP10 PUSH2 0x16ED JUMP JUMPDEST PUSH2 0x16F4 DUP10 PUSH2 0x179B PUSH2 0xEFB DUP5 PUSH2 0x14F6 JUMP JUMPDEST PUSH2 0x1784 JUMP JUMPDEST PUSH2 0x17B1 SWAP2 DUP6 ISZERO PUSH2 0x17B8 JUMPI DUP4 DUP9 PUSH2 0x193D JUMP JUMPDEST PUSH0 DUP9 PUSH2 0x1638 JUMP JUMPDEST DUP4 DUP10 PUSH2 0x193D JUMP JUMPDEST SWAP1 SWAP3 SWAP1 PUSH1 0x1 PUSH1 0x1 PUSH1 0xA0 SHL SUB DUP1 DUP6 AND SWAP1 DUP3 AND LT ISZERO PUSH2 0x1831 JUMPI SWAP3 SWAP2 JUMPDEST PUSH1 0x40 MLOAD PUSH12 0xFFFFFFFFFFFFFFFFFFFFFFFF NOT PUSH1 0x60 SWAP6 DUP7 SHL DUP2 AND PUSH1 0x20 DUP4 ADD SWAP1 DUP2 MSTORE SWAP5 DUP7 SHL DUP2 AND PUSH1 0x34 DUP4 ADD MSTORE SWAP2 SWAP1 SWAP5 SHL AND PUSH1 0x48 DUP5 ADD MSTORE PUSH1 0x1 PUSH1 0x1 PUSH1 0xE8 SHL SUB NOT AND PUSH1 0x5C DUP4 ADD MSTORE PUSH1 0x3F DUP3 MSTORE SWAP1 PUSH2 0x182B PUSH1 0x5F DUP3 PUSH2 0x15A3 JUMP JUMPDEST MLOAD SWAP1 KECCAK256 SWAP1 JUMP JUMPDEST SWAP2 PUSH2 0x17D9 JUMP JUMPDEST SWAP2 SWAP1 SWAP2 PUSH1 0x1 DUP1 PUSH1 0xA0 SHL SUB AND DUP1 PUSH0 MSTORE PUSH1 0x1 PUSH1 0x20 MSTORE PUSH1 0x40 PUSH0 KECCAK256 DUP4 PUSH0 MSTORE PUSH1 0x20 MSTORE PUSH1 0x40 PUSH0 KECCAK256 DUP1 SLOAD SWAP1 DUP4 DUP3 SUB SWAP2 DUP3 GT PUSH2 0x30E JUMPI SSTORE PUSH1 0x40 DUP1 MLOAD CALLER DUP2 MSTORE PUSH1 0x20 DUP2 ADD SWAP4 SWAP1 SWAP4 MSTORE PUSH0 SWAP3 PUSH0 MLOAD PUSH1 0x20 PUSH2 0x2577 PUSH0 CODECOPY PUSH0 MLOAD SWAP1 PUSH0 MSTORE SWAP2 DUP2 SWAP1 DUP2 ADD JUMPDEST SUB SWAP1 LOG4 JUMP JUMPDEST SWAP1 PUSH1 0xF SIGNEXTEND SWAP1 PUSH1 0xF SIGNEXTEND ADD SWAP1 PUSH1 0x1 PUSH1 0x1 PUSH1 0x7F SHL SUB NOT DUP3 SLT PUSH1 0x1 PUSH1 0x1 PUSH1 0x7F SHL SUB DUP4 SGT OR PUSH2 0x30E JUMPI JUMP JUMPDEST SWAP1 SWAP2 DUP2 PUSH0 MSTORE PUSH1 0x6 PUSH1 0x20 MSTORE PUSH1 0x1 PUSH1 0x1 PUSH1 0x80 SHL SUB PUSH2 0x18E9 PUSH2 0x18DF PUSH1 0x40 PUSH0 KECCAK256 SLOAD SWAP6 DUP4 DUP8 AND PUSH1 0xF SIGNEXTEND PUSH2 0x1890 JUMP JUMPDEST SWAP3 DUP6 PUSH1 0x80 SAR PUSH2 0x1890 JUMP JUMPDEST DUP2 NOT SWAP1 PUSH1 0x80 SHL AND SWAP2 AND OR SWAP2 DUP3 SUB PUSH2 0x18FE JUMPI POP POP JUMP JUMPDEST PUSH0 MSTORE PUSH1 0x6 PUSH1 0x20 MSTORE PUSH1 0x40 PUSH0 KECCAK256 SSTORE JUMP JUMPDEST SWAP1 SWAP4 SWAP2 DUP3 DUP2 PUSH2 0x192C JUMPI JUMPDEST POP POP POP DUP2 PUSH2 0x1923 JUMPI POP POP POP JUMP JUMPDEST PUSH2 0x15D9 SWAP3 PUSH2 0x211A JUMP JUMPDEST PUSH2 0x1935 SWAP3 PUSH2 0x211A JUMP JUMPDEST PUSH0 DUP1 DUP3 PUSH2 0x1916 JUMP JUMPDEST SWAP3 DUP2 PUSH2 0x194A JUMPI JUMPDEST POP POP POP POP JUMP JUMPDEST PUSH2 0x1953 SWAP4 PUSH2 0x2221 JUMP JUMPDEST PUSH0 DUP1 DUP1 DUP1 PUSH2 0x1944 JUMP JUMPDEST SWAP2 DUP2 PUSH2 0x1923 JUMPI POP POP POP JUMP JUMPDEST SWAP2 SWAP4 SWAP1 SWAP4 DUP6 DUP2 PUSH2 0x1A42 JUMPI JUMPDEST POP POP POP POP DUP1 ISZERO SWAP2 DUP3 ISZERO PUSH2 0x1985 JUMPI POP POP POP POP JUMP JUMPDEST PUSH1 0x1 PUSH1 0x1 PUSH1 0xA0 SHL SUB AND DUP1 PUSH2 0x199F JUMPI POP POP PUSH2 0x1953 SWAP2 POP PUSH2 0x21E0 JUMP JUMPDEST PUSH1 0x20 SWAP3 POP PUSH2 0x19EE SWAP4 PUSH2 0x19B1 PUSH1 0x1 PUSH2 0x21A1 JUMP JUMPDEST PUSH1 0x40 MLOAD PUSH4 0x23B872DD PUSH1 0xE0 SHL DUP2 MSTORE PUSH1 0x1 PUSH1 0x1 PUSH1 0xA0 SHL SUB SWAP1 SWAP2 AND PUSH1 0x4 DUP3 ADD MSTORE ADDRESS PUSH1 0x24 DUP3 ADD MSTORE PUSH1 0x44 DUP2 ADD SWAP3 SWAP1 SWAP3 MSTORE SWAP1 SWAP3 DUP4 SWAP2 SWAP1 DUP3 SWAP1 PUSH0 SWAP1 DUP3 SWAP1 PUSH1 0x64 DUP3 ADD SWAP1 JUMP JUMPDEST SUB SWAP3 GAS CALL DUP1 ISZERO PUSH2 0x1A3D JUMPI PUSH2 0x1A09 SWAP2 PUSH0 SWAP2 PUSH2 0x1A0E JUMPI JUMPDEST POP PUSH2 0x20D6 JUMP JUMPDEST PUSH2 0x1953 JUMP JUMPDEST PUSH2 0x1A30 SWAP2 POP PUSH1 0x20 RETURNDATASIZE PUSH1 0x20 GT PUSH2 0x1A36 JUMPI JUMPDEST PUSH2 0x1A28 DUP2 DUP4 PUSH2 0x15A3 JUMP JUMPDEST DUP2 ADD SWAP1 PUSH2 0x20C1 JUMP JUMPDEST PUSH0 PUSH2 0x1A03 JUMP JUMPDEST POP RETURNDATASIZE PUSH2 0x1A1E JUMP JUMPDEST PUSH2 0x1BA7 JUMP JUMPDEST PUSH2 0x1A4B SWAP4 PUSH2 0x2221 JUMP JUMPDEST PUSH0 DUP1 DUP1 DUP6 PUSH2 0x1972 JUMP JUMPDEST ISZERO PUSH2 0x1A5B JUMPI JUMP JUMPDEST PUSH1 0x40 MLOAD PUSH3 0x461BCD PUSH1 0xE5 SHL DUP2 MSTORE PUSH1 0x20 PUSH1 0x4 DUP3 ADD MSTORE PUSH1 0x15 PUSH1 0x24 DUP3 ADD MSTORE PUSH21 0x416C7068612061646472657373206973207A65726F PUSH1 0x58 SHL PUSH1 0x44 DUP3 ADD MSTORE PUSH1 0x64 SWAP1 REVERT JUMPDEST ISZERO PUSH2 0x1A9F JUMPI JUMP JUMPDEST PUSH1 0x40 MLOAD PUSH3 0x461BCD PUSH1 0xE5 SHL DUP2 MSTORE PUSH1 0x20 PUSH1 0x4 DUP3 ADD MSTORE PUSH1 0x14 PUSH1 0x24 DUP3 ADD MSTORE PUSH20 0x426574612061646472657373206973207A65726F PUSH1 0x60 SHL PUSH1 0x44 DUP3 ADD MSTORE PUSH1 0x64 SWAP1 REVERT JUMPDEST SWAP1 DUP2 PUSH1 0x20 SWAP2 SUB SLT PUSH2 0x1A9 JUMPI MLOAD SWAP1 JUMP JUMPDEST DUP1 MLOAD PUSH1 0x1 PUSH1 0x1 PUSH1 0xA0 SHL SUB SWAP1 DUP2 AND DUP4 MSTORE PUSH1 0x20 DUP1 DUP4 ADD MLOAD DUP3 AND SWAP1 DUP5 ADD MSTORE PUSH1 0x40 DUP1 DUP4 ADD MLOAD SWAP1 SWAP2 AND SWAP1 DUP4 ADD MSTORE PUSH1 0x60 DUP1 DUP3 ADD MLOAD SWAP1 DUP4 ADD MSTORE PUSH1 0x80 DUP1 DUP3 ADD MLOAD PUSH1 0x1 PUSH1 0x1 PUSH1 0x80 SHL SUB AND SWAP1 DUP4 ADD MSTORE PUSH2 0x15D9 SWAP2 SWAP1 PUSH1 0xE0 SWAP1 DUP2 SWAP1 PUSH1 0xA0 DUP2 DUP2 ADD MLOAD PUSH1 0x1 PUSH1 0x1 PUSH1 0x80 SHL SUB AND SWAP1 DUP6 ADD MSTORE PUSH1 0xC0 DUP2 DUP2 ADD MLOAD PUSH2 0xFFFF AND SWAP1 DUP6 ADD MSTORE ADD MLOAD ISZERO ISZERO SWAP2 ADD MSTORE JUMP JUMPDEST DUP1 MLOAD DUP1 DUP4 MSTORE PUSH1 0x20 SWAP3 SWAP2 DUP2 SWAP1 DUP5 ADD DUP5 DUP5 ADD MCOPY PUSH0 DUP3 DUP3 ADD DUP5 ADD MSTORE PUSH1 0x1F ADD PUSH1 0x1F NOT AND ADD ADD SWAP1 JUMP JUMPDEST DUP1 PUSH2 0x1B99 PUSH2 0x120 SWAP3 PUSH2 0x1391 SWAP6 SWAP5 PUSH2 0x1AEA JUMP JUMPDEST DUP2 PUSH2 0x100 DUP3 ADD MSTORE ADD SWAP1 PUSH2 0x1B63 JUMP JUMPDEST PUSH1 0x40 MLOAD RETURNDATASIZE PUSH0 DUP3 RETURNDATACOPY RETURNDATASIZE SWAP1 REVERT JUMPDEST PUSH2 0x100 DUP2 ADD SWAP3 SWAP2 PUSH2 0x15D9 SWAP2 SWAP1 PUSH2 0x1AEA JUMP JUMPDEST SWAP2 PUSH2 0x1BEA SWAP1 PUSH2 0x1BD6 DUP5 PUSH2 0x1391 SWAP7 SWAP5 PUSH2 0x1AEA JUMP JUMPDEST PUSH2 0x140 PUSH2 0x100 DUP6 ADD MSTORE PUSH2 0x140 DUP5 ADD SWAP1 PUSH2 0x1B63 JUMP JUMPDEST SWAP2 PUSH2 0x120 DUP2 DUP5 SUB SWAP2 ADD MSTORE PUSH2 0x1B63 JUMP JUMPDEST DUP1 MLOAD PUSH2 0x1C51 SWAP4 PUSH0 SWAP4 SWAP1 SWAP2 PUSH1 0x1 PUSH1 0x1 PUSH1 0xA0 SHL SUB AND SWAP4 PUSH1 0x20 DUP5 ADD SWAP5 PUSH2 0x1C71 PUSH2 0x1C6C PUSH2 0x1C51 PUSH2 0x1C65 PUSH2 0x1C2E DUP11 MLOAD PUSH1 0x1 DUP1 PUSH1 0xA0 SHL SUB AND SWAP1 JUMP JUMPDEST PUSH1 0x40 DUP11 ADD DUP1 MLOAD SWAP1 SWAP7 SWAP2 SWAP1 PUSH1 0x1 PUSH1 0x1 PUSH1 0xA0 SHL SUB AND SWAP1 PUSH2 0x1C5F PUSH1 0xA0 DUP14 ADD SWAP15 DUP16 MLOAD PUSH2 0x160D JUMP JUMPDEST MLOAD PUSH1 0x1 PUSH1 0x1 PUSH1 0xE8 SHL SUB NOT AND SWAP1 JUMP JUMPDEST SWAP3 PUSH2 0x17BF JUMP JUMPDEST SWAP10 MLOAD PUSH2 0x160D JUMP JUMPDEST PUSH2 0x2296 JUMP JUMPDEST SWAP1 PUSH2 0x1C7F PUSH1 0x40 DUP4 ADD MLOAD ISZERO ISZERO SWAP1 JUMP JUMPDEST ISZERO PUSH2 0x1FBE JUMPI PUSH32 0x0 SWAP6 JUMPDEST PUSH1 0x60 DUP4 ADD MLOAD ISZERO PUSH2 0x1F86 JUMPI PUSH32 0x0 SWAP6 JUMPDEST PUSH2 0x1CE8 PUSH1 0x1 PUSH1 0x1 PUSH1 0xA0 SHL SUB DUP10 AND ISZERO ISZERO PUSH2 0x1A54 JUMP JUMPDEST PUSH2 0x1CFC PUSH1 0x1 PUSH1 0x1 PUSH1 0xA0 SHL SUB DUP9 AND ISZERO ISZERO PUSH2 0x1A98 JUMP JUMPDEST DUP2 MLOAD PUSH1 0x1 PUSH1 0x1 PUSH1 0xA0 SHL SUB AND SWAP9 MLOAD PUSH1 0x1 PUSH1 0x1 PUSH1 0xA0 SHL SUB AND SWAP3 MLOAD PUSH1 0x1 PUSH1 0x1 PUSH1 0xA0 SHL SUB AND SWAP6 PUSH1 0x60 DUP4 ADD MLOAD PUSH2 0x1D2C SWAP1 PUSH2 0x160D JUMP JUMPDEST MLOAD PUSH1 0xC0 DUP7 ADD MLOAD PUSH2 0xFFFF AND PUSH1 0x80 SWAP1 SWAP5 ADD MLOAD ISZERO ISZERO SWAP5 PUSH2 0x1D47 PUSH2 0x15DB JUMP JUMPDEST PUSH1 0x1 PUSH1 0x1 PUSH1 0xA0 SHL SUB SWAP1 SWAP13 AND DUP13 MSTORE PUSH1 0x1 PUSH1 0x1 PUSH1 0xA0 SHL SUB AND PUSH1 0x20 DUP13 ADD MSTORE PUSH1 0x1 PUSH1 0x1 PUSH1 0xA0 SHL SUB SWAP1 SWAP8 AND PUSH1 0x40 DUP12 ADD SWAP1 DUP2 MSTORE SWAP7 PUSH1 0x60 DUP12 ADD MSTORE PUSH1 0x1 PUSH1 0x1 PUSH1 0x80 SHL SUB AND PUSH1 0x80 DUP11 ADD MSTORE PUSH1 0x1 PUSH1 0x1 PUSH1 0x80 SHL SUB AND PUSH1 0xA0 DUP10 ADD MSTORE PUSH2 0xFFFF AND PUSH1 0xC0 DUP9 ADD MSTORE ISZERO ISZERO PUSH1 0xE0 DUP8 ADD MSTORE DUP1 MLOAD ISZERO ISZERO SWAP1 DUP2 DUP1 PUSH2 0x1F79 JUMPI JUMPDEST ISZERO PUSH2 0x1E58 JUMPI POP POP POP SWAP2 DUP4 SWAP2 PUSH0 PUSH2 0x1DF9 DUP5 PUSH2 0x1DF3 PUSH2 0x1E17 SWAP9 PUSH2 0x1DED PUSH2 0x1DE1 PUSH2 0x1DE1 PUSH1 0x20 SWAP12 MLOAD PUSH1 0x1 DUP1 PUSH1 0xA0 SHL SUB AND SWAP1 JUMP JUMPDEST PUSH1 0x1 PUSH1 0x1 PUSH1 0xA0 SHL SUB AND SWAP1 JUMP JUMPDEST SWAP7 PUSH2 0x23B9 JUMP JUMPDEST SWAP4 PUSH2 0x23B9 JUMP JUMPDEST PUSH1 0x40 MLOAD PUSH4 0x1EEBC2D PUSH1 0xE1 SHL DUP2 MSTORE SWAP7 DUP8 SWAP6 DUP7 SWAP5 DUP6 SWAP4 SWAP2 PUSH1 0x4 DUP6 ADD PUSH2 0x1BC3 JUMP JUMPDEST SUB SWAP3 GAS CALL SWAP1 DUP2 ISZERO PUSH2 0x1A3D JUMPI PUSH0 SWAP2 PUSH2 0x1E2C JUMPI POP SWAP2 JUMP JUMPDEST PUSH2 0x1E4E SWAP2 POP PUSH1 0x20 RETURNDATASIZE PUSH1 0x20 GT PUSH2 0x1E51 JUMPI JUMPDEST PUSH2 0x1E46 DUP2 DUP4 PUSH2 0x15A3 JUMP JUMPDEST DUP2 ADD SWAP1 PUSH2 0x1ADB JUMP JUMPDEST SWAP2 JUMP JUMPDEST POP RETURNDATASIZE PUSH2 0x1E3C JUMP JUMPDEST SWAP3 SWAP5 SWAP4 SWAP2 SWAP3 DUP2 ISZERO SWAP2 DUP3 DUP1 PUSH2 0x1F63 JUMPI JUMPDEST ISZERO PUSH2 0x1EAC JUMPI POP POP POP POP POP POP PUSH2 0x1E17 PUSH0 SWAP3 PUSH2 0x1E8F PUSH2 0x1DE1 PUSH2 0x1DE1 PUSH1 0x20 SWAP6 MLOAD PUSH1 0x1 DUP1 PUSH1 0xA0 SHL SUB AND SWAP1 JUMP JUMPDEST SWAP1 PUSH1 0x40 MLOAD SWAP5 DUP6 DUP1 SWAP5 DUP2 SWAP4 PUSH4 0x160F04BD PUSH1 0xE2 SHL DUP4 MSTORE PUSH1 0x4 DUP4 ADD PUSH2 0x1BB2 JUMP JUMPDEST SWAP5 SWAP6 SWAP5 DUP1 PUSH2 0x1F4D JUMPI JUMPDEST ISZERO PUSH2 0x1F03 JUMPI POP POP POP POP SWAP2 PUSH1 0x20 SWAP2 PUSH2 0x1EE5 DUP3 PUSH2 0x1EDF PUSH2 0x1DE1 PUSH2 0x1DE1 PUSH2 0x1E17 SWAP9 MLOAD PUSH1 0x1 DUP1 PUSH1 0xA0 SHL SUB AND SWAP1 JUMP JUMPDEST SWAP3 PUSH2 0x23B9 JUMP JUMPDEST SWAP2 PUSH0 PUSH1 0x40 MLOAD DUP1 SWAP7 DUP2 SWAP6 DUP3 SWAP5 PUSH4 0x5E3344D PUSH1 0xE4 SHL DUP5 MSTORE PUSH1 0x4 DUP5 ADD PUSH2 0x1B87 JUMP JUMPDEST SWAP3 SWAP8 SWAP6 SWAP5 POP SWAP1 SWAP3 SWAP2 DUP2 PUSH2 0x1F3F JUMPI JUMPDEST POP PUSH2 0x1F1B JUMPI POP POP POP JUMP JUMPDEST PUSH2 0x1E17 SWAP4 SWAP6 POP SWAP1 PUSH2 0x1EE5 DUP4 PUSH2 0x1EDF PUSH2 0x1DE1 PUSH2 0x1DE1 PUSH1 0x20 SWAP8 SWAP7 MLOAD PUSH1 0x1 DUP1 PUSH1 0xA0 SHL SUB AND SWAP1 JUMP JUMPDEST PUSH1 0x20 ADD MLOAD ISZERO ISZERO SWAP1 POP PUSH0 PUSH2 0x1F11 JUMP JUMPDEST POP PUSH2 0x1F5E PUSH2 0x1297 PUSH1 0x20 DUP4 ADD MLOAD ISZERO ISZERO SWAP1 JUMP JUMPDEST PUSH2 0x1EB5 JUMP JUMPDEST POP PUSH2 0x1F74 PUSH2 0x1297 PUSH1 0x20 DUP5 ADD MLOAD ISZERO ISZERO SWAP1 JUMP JUMPDEST PUSH2 0x1E67 JUMP JUMPDEST POP PUSH1 0x20 DUP2 ADD MLOAD ISZERO ISZERO PUSH2 0x1DB2 JUMP JUMPDEST PUSH2 0x1FB8 PUSH2 0x1FAB PUSH2 0x1F9A PUSH1 0xA0 DUP7 ADD MLOAD PUSH1 0xFF AND SWAP1 JUMP JUMPDEST PUSH1 0xFF AND PUSH0 MSTORE PUSH1 0x4 PUSH1 0x20 MSTORE PUSH1 0x40 PUSH0 KECCAK256 SWAP1 JUMP JUMPDEST SLOAD PUSH1 0x1 PUSH1 0x1 PUSH1 0xA0 SHL SUB AND SWAP1 JUMP JUMPDEST SWAP6 PUSH2 0x1CD4 JUMP JUMPDEST PUSH2 0x1FE3 PUSH2 0x1FAB PUSH2 0x1FD2 PUSH1 0x80 DUP6 ADD MLOAD PUSH1 0xFF AND SWAP1 JUMP JUMPDEST PUSH1 0xFF AND PUSH0 MSTORE PUSH1 0x3 PUSH1 0x20 MSTORE PUSH1 0x40 PUSH0 KECCAK256 SWAP1 JUMP JUMPDEST SWAP6 PUSH2 0x1CA7 JUMP JUMPDEST PUSH1 0x1 PUSH1 0x1 PUSH1 0x80 SHL SUB SWAP3 SWAP4 PUSH0 EQ PUSH2 0x201C JUMPI POP AND SWAP1 DUP1 DUP3 LT PUSH2 0x2007 JUMPI POP POP JUMP JUMPDEST PUSH4 0x1735867 PUSH1 0xE0 SHL PUSH0 MSTORE PUSH1 0x4 MSTORE PUSH1 0x24 MSTORE PUSH1 0x44 PUSH0 REVERT JUMPDEST SWAP1 POP AND SWAP1 DUP1 DUP3 LT PUSH2 0x202B JUMPI POP POP JUMP JUMPDEST PUSH4 0x68580A19 PUSH1 0xE0 SHL PUSH0 MSTORE PUSH1 0x4 MSTORE PUSH1 0x24 MSTORE PUSH1 0x44 PUSH0 REVERT JUMPDEST PUSH1 0x1 PUSH1 0x1 PUSH1 0x80 SHL SUB PUSH8 0xDE0B6B3A7640000 SWAP2 AND MUL SWAP1 PUSH1 0x1 PUSH1 0x1 PUSH1 0x80 SHL SUB DUP3 AND SWAP2 DUP3 SUB PUSH2 0x30E JUMPI JUMP JUMPDEST SWAP2 SWAP1 SWAP2 PUSH1 0x1 DUP1 PUSH1 0xA0 SHL SUB AND SWAP1 DUP2 PUSH0 MSTORE PUSH1 0x1 PUSH1 0x20 MSTORE PUSH1 0x40 PUSH0 KECCAK256 DUP4 PUSH0 MSTORE PUSH1 0x20 MSTORE PUSH1 0x40 PUSH0 KECCAK256 DUP1 SLOAD SWAP1 DUP3 DUP3 ADD DUP1 SWAP3 GT PUSH2 0x30E JUMPI SSTORE PUSH1 0x40 DUP1 MLOAD CALLER DUP2 MSTORE PUSH1 0x20 DUP2 ADD SWAP3 SWAP1 SWAP3 MSTORE PUSH0 SWAP2 PUSH0 MLOAD PUSH1 0x20 PUSH2 0x2577 PUSH0 CODECOPY PUSH0 MLOAD SWAP1 PUSH0 MSTORE SWAP2 DUP2 SWAP1 DUP2 ADD PUSH2 0x188B JUMP JUMPDEST SWAP1 DUP2 PUSH1 0x20 SWAP2 SUB SLT PUSH2 0x1A9 JUMPI MLOAD PUSH2 0x1391 DUP2 PUSH2 0x44E JUMP JUMPDEST ISZERO PUSH2 0x20DD JUMPI JUMP JUMPDEST PUSH1 0x40 MLOAD PUSH3 0x461BCD PUSH1 0xE5 SHL DUP2 MSTORE PUSH1 0x20 PUSH1 0x4 DUP3 ADD MSTORE PUSH1 0x15 PUSH1 0x24 DUP3 ADD MSTORE PUSH21 0x115490CC8C081D1C985B9CD9995C8819985A5B1959 PUSH1 0x5A SHL PUSH1 0x44 DUP3 ADD MSTORE PUSH1 0x64 SWAP1 REVERT JUMPDEST PUSH1 0x1 PUSH1 0x1 PUSH1 0xA0 SHL SUB AND DUP1 PUSH2 0x2154 JUMPI POP PUSH0 DUP1 DUP1 SWAP4 DUP2 SWAP4 DUP3 SWAP1 DUP3 ISZERO PUSH2 0x214A JUMPI JUMPDEST PUSH1 0x1 PUSH1 0x1 PUSH1 0xA0 SHL SUB AND SWAP1 CALL ISZERO PUSH2 0x1A3D JUMPI JUMP JUMPDEST PUSH2 0x8FC SWAP2 POP PUSH2 0x2138 JUMP JUMPDEST PUSH1 0x40 MLOAD PUSH4 0xA9059CBB PUSH1 0xE0 SHL DUP2 MSTORE PUSH1 0x1 PUSH1 0x1 PUSH1 0xA0 SHL SUB SWAP1 SWAP3 AND PUSH1 0x4 DUP4 ADD MSTORE PUSH1 0x24 DUP3 ADD SWAP3 SWAP1 SWAP3 MSTORE SWAP1 PUSH1 0x20 SWAP1 DUP3 SWAP1 DUP2 PUSH0 DUP2 PUSH1 0x44 DUP2 ADD JUMPDEST SUB SWAP3 GAS CALL DUP1 ISZERO PUSH2 0x1A3D JUMPI PUSH2 0x15D9 SWAP2 PUSH0 SWAP2 PUSH2 0x1A0E JUMPI POP PUSH2 0x20D6 JUMP JUMPDEST ISZERO PUSH2 0x21A8 JUMPI JUMP JUMPDEST PUSH1 0x40 MLOAD PUSH3 0x461BCD PUSH1 0xE5 SHL DUP2 MSTORE PUSH1 0x20 PUSH1 0x4 DUP3 ADD MSTORE PUSH1 0x10 PUSH1 0x24 DUP3 ADD MSTORE PUSH16 0x115512081B9BDD08195E1C1958DD1959 PUSH1 0x82 SHL PUSH1 0x44 DUP3 ADD MSTORE PUSH1 0x64 SWAP1 REVERT JUMPDEST ISZERO PUSH2 0x21E7 JUMPI JUMP JUMPDEST PUSH1 0x40 MLOAD PUSH3 0x461BCD PUSH1 0xE5 SHL DUP2 MSTORE PUSH1 0x20 PUSH1 0x4 DUP3 ADD MSTORE PUSH1 0x12 PUSH1 0x24 DUP3 ADD MSTORE PUSH18 0x125B98DBDC9C9958DD08115512081CD95B9D PUSH1 0x72 SHL PUSH1 0x44 DUP3 ADD MSTORE PUSH1 0x64 SWAP1 REVERT JUMPDEST SWAP1 SWAP3 SWAP1 PUSH1 0x1 PUSH1 0x1 PUSH1 0xA0 SHL SUB AND DUP1 PUSH2 0x223E JUMPI POP PUSH2 0x15D9 SWAP3 POP EQ PUSH2 0x21E0 JUMP JUMPDEST PUSH2 0x2187 SWAP4 PUSH2 0x19B1 PUSH1 0x20 SWAP5 SWAP4 ISZERO PUSH2 0x21A1 JUMP JUMPDEST PUSH1 0x40 MLOAD SWAP1 PUSH1 0xE0 DUP3 ADD DUP3 DUP2 LT PUSH8 0xFFFFFFFFFFFFFFFF DUP3 GT OR PUSH2 0x15C5 JUMPI PUSH1 0x40 MSTORE PUSH0 PUSH1 0xC0 DUP4 DUP3 DUP2 MSTORE DUP3 PUSH1 0x20 DUP3 ADD MSTORE DUP3 PUSH1 0x40 DUP3 ADD MSTORE DUP3 PUSH1 0x60 DUP3 ADD MSTORE DUP3 PUSH1 0x80 DUP3 ADD MSTORE DUP3 PUSH1 0xA0 DUP3 ADD MSTORE ADD MSTORE JUMP JUMPDEST PUSH2 0x1391 PUSH2 0xFFF PUSH2 0x233A PUSH2 0x22A7 PUSH2 0x224F JUMP JUMPDEST SWAP4 PUSH1 0xE8 SHR PUSH2 0x22C7 PUSH1 0x1 PUSH2 0x22C0 DUP4 PUSH3 0x7FFFFF SWAP1 PUSH1 0x1 SHR AND SWAP1 JUMP JUMPDEST AND ISZERO ISZERO DUP7 MSTORE JUMP JUMPDEST PUSH1 0x1 DUP2 AND ISZERO ISZERO PUSH1 0x20 DUP7 ADD MSTORE PUSH2 0x22F7 PUSH2 0x22EE PUSH1 0x1 PUSH1 0x2 DUP5 SWAP1 SHR PUSH3 0x3FFFFF AND JUMPDEST AND PUSH3 0xFFFFFF AND SWAP1 JUMP JUMPDEST ISZERO ISZERO PUSH1 0x40 DUP8 ADD MSTORE JUMP JUMPDEST PUSH2 0x2317 PUSH2 0x230E PUSH1 0x1 PUSH1 0x3 DUP5 SWAP1 SHR PUSH3 0x1FFFFF AND PUSH2 0x22E5 JUMP JUMPDEST ISZERO ISZERO PUSH1 0x60 DUP8 ADD MSTORE JUMP JUMPDEST PUSH1 0xF PUSH1 0x4 DUP3 SWAP1 SHR DUP2 AND PUSH1 0x80 DUP8 ADD MSTORE PUSH1 0x8 DUP3 SWAP1 SHR AND PUSH1 0xA0 DUP7 ADD MSTORE PUSH1 0xC SHR PUSH2 0xFFF AND SWAP1 JUMP JUMPDEST AND PUSH2 0xFFFF AND PUSH1 0xC0 DUP4 ADD MSTORE JUMP JUMPDEST PUSH1 0x20 DUP2 DUP4 SUB SLT PUSH2 0x1A9 JUMPI DUP1 MLOAD SWAP1 PUSH8 0xFFFFFFFFFFFFFFFF DUP3 GT PUSH2 0x1A9 JUMPI ADD DUP2 PUSH1 0x1F DUP3 ADD SLT ISZERO PUSH2 0x1A9 JUMPI DUP1 MLOAD SWAP1 PUSH8 0xFFFFFFFFFFFFFFFF DUP3 GT PUSH2 0x15C5 JUMPI PUSH1 0x40 MLOAD SWAP3 PUSH2 0x2398 PUSH1 0x1F DUP5 ADD PUSH1 0x1F NOT AND PUSH1 0x20 ADD DUP6 PUSH2 0x15A3 JUMP JUMPDEST DUP3 DUP5 MSTORE PUSH1 0x20 DUP4 DUP4 ADD ADD GT PUSH2 0x1A9 JUMPI DUP2 PUSH0 SWAP3 PUSH1 0x20 DUP1 SWAP4 ADD DUP4 DUP7 ADD MCOPY DUP4 ADD ADD MSTORE SWAP1 JUMP JUMPDEST SWAP1 PUSH1 0x60 SWAP2 DUP1 TLOAD DUP1 ISZERO DUP1 PUSH2 0x252D JUMPI JUMPDEST ISZERO PUSH2 0x24E7 JUMPI JUMPDEST POP DUP3 MLOAD ISZERO SWAP2 DUP3 PUSH2 0x2418 JUMPI JUMPDEST POP PUSH1 0x40 MLOAD SWAP2 ISZERO DUP3 MSTORE PUSH1 0x1 PUSH1 0x1 PUSH1 0xA0 SHL SUB AND SWAP1 PUSH32 0xD34145BF6DE6D1B18053AD66A4A1AF093071A5AB67C05B8BFCE98FD95FFB0D89 SWAP1 DUP1 PUSH1 0x20 DUP2 ADD JUMPDEST SUB SWAP1 LOG2 SWAP1 JUMP JUMPDEST PUSH1 0x40 MLOAD PUSH4 0x3BD1104B PUSH1 0xE0 SHL DUP2 MSTORE SWAP4 POP PUSH0 SWAP1 DUP5 SWAP1 DUP2 SWAP1 PUSH2 0x243A SWAP1 PUSH1 0x4 DUP4 ADD PUSH2 0x1BB2 JUMP JUMPDEST SUB DUP2 DUP4 PUSH1 0x1 PUSH1 0x1 PUSH1 0xA0 SHL SUB DUP7 AND GAS CALL SWAP3 DUP4 ISZERO PUSH2 0x1A3D JUMPI PUSH0 SWAP4 PUSH2 0x249D JUMPI JUMPDEST POP PUSH2 0x2412 PUSH32 0xD34145BF6DE6D1B18053AD66A4A1AF093071A5AB67C05B8BFCE98FD95FFB0D89 SWAP2 DUP5 DUP1 MLOAD PUSH2 0x248D JUMPI JUMPDEST POP SWAP2 POP PUSH2 0x23D8 JUMP JUMPDEST PUSH2 0x2497 SWAP1 DUP3 PUSH2 0x2542 JUMP JUMPDEST PUSH0 PUSH2 0x2485 JUMP JUMPDEST PUSH32 0xD34145BF6DE6D1B18053AD66A4A1AF093071A5AB67C05B8BFCE98FD95FFB0D89 SWAP2 SWAP4 POP PUSH2 0x24DF PUSH2 0x2412 SWAP2 RETURNDATASIZE DUP1 PUSH0 DUP4 RETURNDATACOPY PUSH2 0x24D7 DUP2 DUP4 PUSH2 0x15A3 JUMP JUMPDEST DUP2 ADD SWAP1 PUSH2 0x2346 JUMP JUMPDEST SWAP4 SWAP2 POP PUSH2 0x2457 JUMP JUMPDEST SWAP3 POP PUSH1 0x1F PUSH1 0x40 MLOAD SWAP4 DUP1 DUP6 MSTORE ADD DUP1 PUSH1 0x5 SHR PUSH0 JUMPDEST DUP2 DUP2 LT PUSH2 0x2514 JUMPI POP POP PUSH1 0x1F NOT AND DUP4 ADD PUSH1 0x20 ADD PUSH1 0x40 MSTORE PUSH0 PUSH2 0x23CD JUMP JUMPDEST DUP1 PUSH1 0x1 DUP1 SWAP3 DUP7 ADD ADD TLOAD PUSH1 0x20 DUP3 PUSH1 0x5 SHL DUP10 ADD ADD MSTORE ADD PUSH2 0x24F9 JUMP JUMPDEST SWAP4 POP PUSH1 0x40 MLOAD SWAP4 PUSH0 DUP6 MSTORE PUSH1 0x20 DUP6 ADD PUSH1 0x40 MSTORE PUSH2 0x23C7 JUMP JUMPDEST PUSH1 0x1F DUP3 MLOAD DUP1 DUP4 TSTORE ADD PUSH1 0x5 SHR SWAP2 PUSH0 JUMPDEST DUP4 DUP2 LT PUSH2 0x255D JUMPI POP POP POP POP JUMP JUMPDEST DUP1 PUSH1 0x20 PUSH1 0x1 SWAP3 PUSH1 0x5 SHL DUP5 ADD ADD MLOAD DUP3 DUP3 DUP7 ADD ADD TSTORE ADD PUSH2 0x2550 JUMP INVALID SHL RETURNDATASIZE PUSH31 0xDB2E9C0B0E7C525B20AAAEF0F5940D2ED71663C7D39266ECAFAC728859B6BB 0xC7 RETURNCONTRACT 0xC4 EQ SMOD SWAP9 0xB6 RETURNDATASIZE NUMBER DUP14 DUP16 PC RETURNCONTRACT 0x3A PUSH1 0xD3 0x25 PUSH20 0x79D24E11515C329BED0C825EA264697066735822 SLT KECCAK256 CALLCODE SAR CHAINID 0xAB 0x28 DUP12 0xC7 0x2D PREVRANDAO DUP9 0x2D 0xBF LOG1 SGT CODESIZE PUSH5 0x57CF72DE49 PUSH9 0xB0B58FC6FADEF69EF5 ADDMOD PUSH5 0x736F6C6343 STOP ADDMOD 0x1E STOP CALLER "},"methodIdentifiers":{"addAlphaMarketAddress(uint8,address)":"460c6df8","addBetaMarketAddress(uint8,address)":"7dc27c95","addLiquidity(address,address,address,bytes3,uint256,uint256)":"e513315b","allowance(address,address,uint256)":"598af9e7","approve(address,uint256,uint256)":"426a8493","balanceOf(address,uint256)":"00fdd58e","batchSwap((address,address,address,bytes3,bool)[],uint256,uint256)":"b69e3992","createPool(address,address,address,bytes3)":"5670f55a","defaultAlpha()":"a1a44dad","defaultBeta()":"19920a5f","dummyQuoter(address,address,uint128,uint128)":"8785bec0","getAlphaMarketAddress(uint8)":"d2615fc8","getBetaMarketAddress(uint8)":"83e66c2e","getInventory(uint256)":"5b298d32","isOperator(address,address)":"b6363cf2","removeAlphaMarketAddress(uint8)":"8e832e08","removeBetaMarketAddress(uint8)":"61408f26","removeLiquidity(address,address,address,bytes3,uint256)":"cb1f2f38","setOperator(address,bool)":"558a7297","supportsInterface(bytes4)":"01ffc9a7","swap(address,address,address,bytes3,uint256,bool,uint256)":"d92bc84c","totalLiquidity(uint256)":"b5e60c3c","transfer(address,uint256,uint256)":"095bcdb6","transferFrom(address,address,uint256,uint256)":"fe99049a"}}}}}