{"contracts/Core/PoolManager.sol":{"PoolManager":{"abi":[{"inputs":[{"internalType":"address","name":"_defaultData0Bridge","type":"address"},{"internalType":"address","name":"_defaultData1Bridge","type":"address"},{"internalType":"address","name":"_defaultData2Bridge","type":"address"},{"internalType":"address","name":"_defaultData3Bridge","type":"address"}],"stateMutability":"nonpayable","type":"constructor"},{"inputs":[{"internalType":"uint256","name":"required","type":"uint256"},{"internalType":"uint256","name":"available","type":"uint256"}],"name":"PoolManager__InsufficientAsset0","type":"error"},{"inputs":[{"internalType":"uint256","name":"required","type":"uint256"},{"internalType":"uint256","name":"available","type":"uint256"}],"name":"PoolManager__InsufficientAsset1","type":"error"},{"inputs":[],"name":"PoolManager__InsufficientLiquidityMinted","type":"error"},{"inputs":[{"internalType":"uint256","name":"minOut","type":"uint256"},{"internalType":"uint256","name":"actual","type":"uint256"}],"name":"PoolManager__InsufficientOutput","type":"error"},{"inputs":[{"internalType":"uint256","name":"amount0","type":"uint256"},{"internalType":"uint256","name":"amount1","type":"uint256"}],"name":"PoolManager__InsufficientWithdrawal","type":"error"},{"inputs":[],"name":"PoolManager__InvalidQuote","type":"error"},{"inputs":[{"internalType":"uint256","name":"poolID","type":"uint256"}],"name":"PoolManager__PoolAlreadyExists","type":"error"},{"anonymous":false,"inputs":[{"indexed":true,"internalType":"address","name":"owner","type":"address"},{"indexed":true,"internalType":"address","name":"spender","type":"address"},{"indexed":true,"internalType":"uint256","name":"id","type":"uint256"},{"indexed":false,"internalType":"uint256","name":"amount","type":"uint256"}],"name":"Approval","type":"event"},{"anonymous":false,"inputs":[{"indexed":true,"internalType":"address","name":"owner","type":"address"},{"indexed":true,"internalType":"address","name":"operator","type":"address"},{"indexed":false,"internalType":"bool","name":"approved","type":"bool"}],"name":"OperatorSet","type":"event"},{"anonymous":false,"inputs":[{"indexed":true,"internalType":"uint256","name":"poolID","type":"uint256"},{"indexed":false,"internalType":"address","name":"asset0","type":"address"},{"indexed":false,"internalType":"address","name":"asset1","type":"address"},{"indexed":false,"internalType":"address","name":"quoter","type":"address"},{"indexed":false,"internalType":"bytes3","name":"markings","type":"bytes3"}],"name":"PoolCreated","type":"event"},{"anonymous":false,"inputs":[{"indexed":false,"internalType":"address","name":"caller","type":"address"},{"indexed":true,"internalType":"address","name":"from","type":"address"},{"indexed":true,"internalType":"address","name":"to","type":"address"},{"indexed":true,"internalType":"uint256","name":"id","type":"uint256"},{"indexed":false,"internalType":"uint256","name":"amount","type":"uint256"}],"name":"Transfer","type":"event"},{"inputs":[{"internalType":"bytes","name":"data","type":"bytes"}],"name":"_decodeTwoBytes","outputs":[{"internalType":"bytes","name":"a","type":"bytes"},{"internalType":"bytes","name":"b","type":"bytes"}],"stateMutability":"pure","type":"function"},{"inputs":[{"internalType":"address","name":"asset0","type":"address"},{"internalType":"address","name":"asset1","type":"address"},{"internalType":"address","name":"quoter","type":"address"},{"internalType":"bytes3","name":"markings","type":"bytes3"},{"internalType":"uint256","name":"amount0","type":"uint256"},{"internalType":"uint256","name":"amount1","type":"uint256"}],"name":"addLiquidity","outputs":[{"internalType":"uint256","name":"liquidity","type":"uint256"}],"stateMutability":"payable","type":"function"},{"inputs":[{"internalType":"address","name":"owner","type":"address"},{"internalType":"address","name":"spender","type":"address"},{"internalType":"uint256","name":"id","type":"uint256"}],"name":"allowance","outputs":[{"internalType":"uint256","name":"","type":"uint256"}],"stateMutability":"view","type":"function"},{"inputs":[{"internalType":"address","name":"spender","type":"address"},{"internalType":"uint256","name":"id","type":"uint256"},{"internalType":"uint256","name":"amount","type":"uint256"}],"name":"approve","outputs":[{"internalType":"bool","name":"","type":"bool"}],"stateMutability":"nonpayable","type":"function"},{"inputs":[{"internalType":"address","name":"owner","type":"address"},{"internalType":"uint256","name":"id","type":"uint256"}],"name":"balanceOf","outputs":[{"internalType":"uint256","name":"","type":"uint256"}],"stateMutability":"view","type":"function"},{"inputs":[{"components":[{"internalType":"address","name":"asset0","type":"address"},{"internalType":"address","name":"asset1","type":"address"},{"internalType":"address","name":"quoter","type":"address"},{"internalType":"bytes3[]","name":"markings","type":"bytes3[]"},{"internalType":"uint256[]","name":"amounts","type":"uint256[]"},{"internalType":"bool","name":"zeroForOne","type":"bool"}],"internalType":"struct Hop[]","name":"hops","type":"tuple[]"},{"internalType":"uint256","name":"amountIn","type":"uint256"},{"internalType":"uint256","name":"minAmountOut","type":"uint256"}],"name":"batchSwap","outputs":[{"internalType":"uint256","name":"amountOut","type":"uint256"}],"stateMutability":"payable","type":"function"},{"inputs":[{"internalType":"address","name":"asset0","type":"address"},{"internalType":"address","name":"asset1","type":"address"},{"internalType":"address","name":"quoter","type":"address"},{"internalType":"bytes3","name":"markings","type":"bytes3"}],"name":"createPool","outputs":[{"internalType":"uint256","name":"poolID","type":"uint256"}],"stateMutability":"nonpayable","type":"function"},{"inputs":[],"name":"defaultData0Bridge","outputs":[{"internalType":"address","name":"","type":"address"}],"stateMutability":"view","type":"function"},{"inputs":[],"name":"defaultData1Bridge","outputs":[{"internalType":"address","name":"","type":"address"}],"stateMutability":"view","type":"function"},{"inputs":[],"name":"defaultData2Bridge","outputs":[{"internalType":"address","name":"","type":"address"}],"stateMutability":"view","type":"function"},{"inputs":[],"name":"defaultData3Bridge","outputs":[{"internalType":"address","name":"","type":"address"}],"stateMutability":"view","type":"function"},{"inputs":[{"internalType":"address","name":"callback","type":"address"},{"internalType":"bytes","name":"data","type":"bytes"},{"internalType":"address[]","name":"tokens","type":"address[]"}],"name":"flashSession","outputs":[],"stateMutability":"payable","type":"function"},{"inputs":[{"internalType":"address","name":"callback","type":"address"},{"internalType":"bytes","name":"data","type":"bytes"},{"internalType":"address[]","name":"tokens","type":"address[]"}],"name":"flashSessionWithReturn","outputs":[{"internalType":"int256[]","name":"deltas","type":"int256[]"}],"stateMutability":"payable","type":"function"},{"inputs":[{"internalType":"uint256","name":"poolId","type":"uint256"}],"name":"getInventory","outputs":[{"internalType":"uint128","name":"asset0","type":"uint128"},{"internalType":"uint128","name":"asset1","type":"uint128"}],"stateMutability":"view","type":"function"},{"inputs":[{"internalType":"uint256","name":"poolID","type":"uint256"}],"name":"getPoolInfo","outputs":[{"internalType":"address","name":"asset0","type":"address"},{"internalType":"address","name":"asset1","type":"address"},{"internalType":"address","name":"quoter","type":"address"},{"internalType":"bytes3","name":"markings","type":"bytes3"}],"stateMutability":"view","type":"function"},{"inputs":[{"components":[{"internalType":"address","name":"asset0","type":"address"},{"internalType":"address","name":"asset1","type":"address"},{"internalType":"address","name":"quoter","type":"address"},{"internalType":"uint256[]","name":"amount","type":"uint256[]"},{"internalType":"bool","name":"zeroForOne","type":"bool"},{"internalType":"bytes3[]","name":"marking","type":"bytes3[]"}],"internalType":"struct SwapParams","name":"p","type":"tuple"},{"internalType":"uint128","name":"asset0Balance","type":"uint128"},{"internalType":"uint128","name":"asset1Balance","type":"uint128"}],"name":"getQuote","outputs":[{"internalType":"uint256","name":"quote","type":"uint256"},{"internalType":"uint256","name":"poolID","type":"uint256"}],"stateMutability":"nonpayable","type":"function"},{"inputs":[{"components":[{"internalType":"address","name":"asset0","type":"address"},{"internalType":"address","name":"asset1","type":"address"},{"internalType":"address","name":"quoter","type":"address"},{"internalType":"uint256[]","name":"amount","type":"uint256[]"},{"internalType":"bool","name":"zeroForOne","type":"bool"},{"internalType":"bytes3[]","name":"marking","type":"bytes3[]"}],"internalType":"struct SwapParams","name":"p","type":"tuple"},{"internalType":"uint128[]","name":"asset0Balances","type":"uint128[]"},{"internalType":"uint128[]","name":"asset1Balances","type":"uint128[]"}],"name":"getQuoteBatch","outputs":[{"internalType":"uint256[]","name":"quote","type":"uint256[]"},{"internalType":"uint256[]","name":"poolID","type":"uint256[]"}],"stateMutability":"nonpayable","type":"function"},{"inputs":[{"internalType":"address","name":"user","type":"address"},{"internalType":"address[]","name":"tokens","type":"address[]"}],"name":"getUserDeltas","outputs":[{"internalType":"int256[]","name":"deltas","type":"int256[]"}],"stateMutability":"view","type":"function"},{"inputs":[{"internalType":"address","name":"owner","type":"address"},{"internalType":"address","name":"spender","type":"address"}],"name":"isOperator","outputs":[{"internalType":"bool","name":"","type":"bool"}],"stateMutability":"view","type":"function"},{"inputs":[{"internalType":"address","name":"asset0","type":"address"},{"internalType":"address","name":"asset1","type":"address"},{"internalType":"address","name":"quoter","type":"address"},{"internalType":"bytes3","name":"markings","type":"bytes3"},{"internalType":"uint256","name":"liquidity","type":"uint256"}],"name":"removeLiquidity","outputs":[{"internalType":"uint256","name":"amount0","type":"uint256"},{"internalType":"uint256","name":"amount1","type":"uint256"}],"stateMutability":"nonpayable","type":"function"},{"inputs":[{"components":[{"internalType":"address","name":"asset0","type":"address"},{"internalType":"address","name":"asset1","type":"address"},{"internalType":"address","name":"quoter","type":"address"},{"internalType":"uint256[]","name":"amount","type":"uint256[]"},{"internalType":"bool","name":"zeroForOne","type":"bool"},{"internalType":"bytes3[]","name":"marking","type":"bytes3[]"}],"internalType":"struct SwapParams","name":"p","type":"tuple"},{"internalType":"uint128","name":"asset0Balance","type":"uint128"},{"internalType":"uint128","name":"asset1Balance","type":"uint128"}],"name":"routerGetQuote","outputs":[{"internalType":"uint256","name":"quote","type":"uint256"},{"internalType":"uint256","name":"poolID","type":"uint256"}],"stateMutability":"nonpayable","type":"function"},{"inputs":[{"components":[{"internalType":"address","name":"asset0","type":"address"},{"internalType":"address","name":"asset1","type":"address"},{"internalType":"address","name":"quoter","type":"address"},{"internalType":"uint256[]","name":"amount","type":"uint256[]"},{"internalType":"bool","name":"zeroForOne","type":"bool"},{"internalType":"bytes3[]","name":"marking","type":"bytes3[]"}],"internalType":"struct SwapParams","name":"p","type":"tuple"},{"internalType":"uint128[]","name":"asset0Balances","type":"uint128[]"},{"internalType":"uint128[]","name":"asset1Balances","type":"uint128[]"}],"name":"routerGetQuoteBatch","outputs":[{"internalType":"uint256[]","name":"quote","type":"uint256[]"},{"internalType":"uint256[]","name":"poolID","type":"uint256[]"}],"stateMutability":"nonpayable","type":"function"},{"inputs":[{"internalType":"address","name":"operator","type":"address"},{"internalType":"bool","name":"approved","type":"bool"}],"name":"setOperator","outputs":[{"internalType":"bool","name":"","type":"bool"}],"stateMutability":"nonpayable","type":"function"},{"inputs":[{"internalType":"bytes4","name":"interfaceId","type":"bytes4"}],"name":"supportsInterface","outputs":[{"internalType":"bool","name":"","type":"bool"}],"stateMutability":"view","type":"function"},{"inputs":[{"internalType":"address","name":"asset0","type":"address"},{"internalType":"address","name":"asset1","type":"address"},{"internalType":"address","name":"quoter","type":"address"},{"internalType":"bytes3","name":"markings","type":"bytes3"},{"internalType":"uint256","name":"amountIn","type":"uint256"},{"internalType":"bool","name":"zeroForOne","type":"bool"},{"internalType":"uint256","name":"minAmountOut","type":"uint256"}],"name":"swap","outputs":[{"internalType":"uint256","name":"amountOut","type":"uint256"}],"stateMutability":"payable","type":"function"},{"inputs":[{"internalType":"uint256","name":"poolID","type":"uint256"}],"name":"totalLiquidity","outputs":[{"internalType":"uint256","name":"","type":"uint256"}],"stateMutability":"view","type":"function"},{"inputs":[{"internalType":"address","name":"receiver","type":"address"},{"internalType":"uint256","name":"id","type":"uint256"},{"internalType":"uint256","name":"amount","type":"uint256"}],"name":"transfer","outputs":[{"internalType":"bool","name":"","type":"bool"}],"stateMutability":"nonpayable","type":"function"},{"inputs":[{"internalType":"address","name":"sender","type":"address"},{"internalType":"address","name":"receiver","type":"address"},{"internalType":"uint256","name":"id","type":"uint256"},{"internalType":"uint256","name":"amount","type":"uint256"}],"name":"transferFrom","outputs":[{"internalType":"bool","name":"","type":"bool"}],"stateMutability":"nonpayable","type":"function"}],"evm":{"bytecode":{"linkReferences":{},"object":"610100346100e557601f6141b838819003918201601f19168301916001600160401b038311848410176100e9578084926080946040528339810103126100e557610048816100fd565b90610055602082016100fd565b61006d6060610066604085016100fd565b93016100fd565b9260805260a05260c05260e0526040516140a69081610112823960805181818161093b01528181612135015261260b015260a051818181610a000152818161216e0152612641015260c051818181610635015281816121ac015261267c015260e0518181816108f7015281816121e501526126b30152f35b5f80fd5b634e487b7160e01b5f52604160045260245ffd5b51906001600160a01b03821682036100e55756fe60806040526004361015610011575f80fd5b5f3560e01c8062fdd58e146101c957806301ffc9a7146101c457806304f71ef61461016a578063091f15b0146101bf578063095bcdb6146101ba5780632f380b35146101b5578063314e2321146101b057806331b4ae17146101ab5780633d465aae146101a6578063426a8493146101a157806346fe65141461019c578063558a7297146101975780635670f55a14610192578063598af9e71461018d5780635b298d32146101885780635dfb78af1461018357806360a80dbb1461017e5780638f1552911461017e5780639d2ec6e414610179578063b5e60c3c14610174578063b6363cf21461016f578063c279171d1461016a578063cb1f2f3814610165578063d92bc84c14610160578063e513315b1461015b578063ea157acf14610156578063f9158ee5146101515763fe99049a1461014c575f80fd5b611ac6565b611a45565b611911565b61167e565b611412565b6111a0565b6105f5565b61113d565b611113565b610f62565b610f39565b610e18565b610d4a565b610cdd565b610acb565b610a2f565b6109eb565b61096a565b610926565b6108e2565b61088d565b610726565b610687565b610620565b610239565b6101f0565b6001600160a01b038116036101df57565b5f80fd5b35906101ee826101ce565b565b346101df5760403660031901126101df5760043561020d816101ce565b6024359060018060a01b03165f52600160205260405f20905f52602052602060405f2054604051908152f35b346101df5760203660031901126101df5760043563ffffffff60e01b81168091036101df576020906301ffc9a760e01b811490811561027e575b506040519015158152f35b630f632fb360e01b1490505f610273565b634e487b7160e01b5f52604160045260245ffd5b608081019081106001600160401b038211176102be57604052565b61028f565b90601f801991011681019081106001600160401b038211176102be57604052565b604051906101ee60c0836102c3565b604051906101ee6080836102c3565b604051906101ee610100836102c3565b6001600160401b0381116102be5760051b60200190565b92919061033581610312565b9361034360405195866102c3565b602085838152019160051b81019283116101df57905b82821061036557505050565b8135815260209182019101610359565b9080601f830112156101df5781602061039093359101610329565b90565b801515036101df57565b35906101ee82610393565b6001600160e81b03198116036101df57565b9291906103c681610312565b936103d460405195866102c3565b602085838152019160051b81019283116101df57905b8282106103f657505050565b602080918335610405816103a8565b8152019101906103ea565b9080601f830112156101df57816020610390933591016103ba565b91909160c0818403126101df576104406102e4565b9261044a826101e3565b8452610458602083016101e3565b6020850152610469604083016101e3565b604085015260608201356001600160401b0381116101df578161048d918401610375565b606085015261049e6080830161039d565b608085015260a08201356001600160401b0381116101df576104c09201610410565b60a0830152565b9080601f830112156101df578135906104df82610312565b926104ed60405194856102c3565b82845260208085019360051b8201019182116101df57602001915b8183106105155750505090565b82356001600160801b03811681036101df57815260209283019201610508565b60606003198201126101df576004356001600160401b0381116101df578161055f9160040161042b565b916024356001600160401b0381116101df578261057e916004016104c7565b91604435906001600160401b0382116101df57610390916004016104c7565b90602080835192838152019201905f5b8181106105ba5750505090565b82518452602093840193909201916001016105ad565b90916105e76103909360408452604084019061059d565b91602081840391015261059d565b346101df5761060c61060636610535565b91611f32565b9061061c604051928392836105d0565b0390f35b346101df575f3660031901126101df576040517f00000000000000000000000000000000000000000000000000000000000000006001600160a01b03168152602090f35b60609060031901126101df5760043561067c816101ce565b906024359060443590565b346101df5761069536610664565b9091335f52600160205260405f20835f5260205260405f20805490838203918211610721575560018060a01b031690815f5260016020526106e18360405f20905f5260205260405f2090565b6106ec828254612302565b9055604080513380825260208201939093525f5160206140515f395f51905f5291819081015b0390a460405160018152602090f35b6122d3565b346101df5760203660031901126101df576004355f6060604051610749816102a3565b82815282602082015282604082015201525f52600560205260405f2060405190610772826102a3565b80546001600160a01b0390811680845260018301548216602085018190526002909301549182166040850181905260489290921b6001600160e81b031916606094909401849052909261061c916107e9906107db906107ce9081565b956001600160a01b031690565b916001600160e81b03191690565b604080516001600160a01b039586168152958516602087015291909316908401526001600160e81b0319909116606083015281906080820190565b9181601f840112156101df578235916001600160401b0383116101df576020808501948460051b0101116101df57565b60206040818301928281528451809452019201905f5b8181106108775750505090565b825184526020938401939092019160010161086a565b346101df5760403660031901126101df576004356108aa816101ce565b6024356001600160401b0381116101df5761061c916108d06108d6923690600401610824565b91612332565b60405191829182610854565b346101df575f3660031901126101df576040517f00000000000000000000000000000000000000000000000000000000000000006001600160a01b03168152602090f35b346101df575f3660031901126101df576040517f00000000000000000000000000000000000000000000000000000000000000006001600160a01b03168152602090f35b346101df5761097836610664565b9091335f52600260205261099f8160405f209060018060a01b03165f5260205260405f2090565b835f526020528160405f205560405191825260018060a01b0316907fb3fd5071835887567a0671151121894ddccc2842f1d10bedad13e0d17cace9a760203392a4602060405160018152f35b346101df575f3660031901126101df576040517f00000000000000000000000000000000000000000000000000000000000000006001600160a01b03168152602090f35b346101df5760403660031901126101df57600435610a4c816101ce565b60243590610a5982610393565b335f908152602081815260408083206001600160a01b038516845290915290209115159160ff1981541660ff841617905560405191825260018060a01b0316907fceb576d9f15e4e200fdb5096d64d5dfd667e16def20c1eefd14256d8e3faa26760203392a360405160018152602090f35b346101df5760803660031901126101df57600435610ae8816101ce565b602435610af4816101ce565b60443591610b01836101ce565b60643591610b0e836103a8565b610b1e610b19612c10565b612c53565b610b2a83858385612a9a565b9260018060a01b03610b576002610b49875f52600560205260405f2090565b01546001600160a01b031690565b16610cc95761061c9484937f68df9a4eb7aacbe8f43763bfbc9f7ca135a5397190ea1cce2558db52dc2f36929391929091906001600160a01b038083169084161015610cbe57610ca191935b610c65610bae6102f3565b6001600160a01b03861681526001600160a01b03871660208201526001600160a01b03831660408201526001600160e81b031984166060820152610bfa895f52600560205260405f2090565b815181546001600160a01b03199081166001600160a01b039283161783556020840151600184018054909216908316179055604083015160029092018054606090940151929091166001600160b81b03199093169290921760489190911c62ffffff60a01b16179055565b604080516001600160a01b03958616815295851660208701529316928401929092526001600160e81b0319909116606083015281906080820190565b0390a25f610cad612c10565b5d6040519081529081906020820190565b610ca1919293610ba3565b63e1ecc13360e01b5f52600484905260245ffd5b346101df5760603660031901126101df57600435610cfa816101ce565b610d35602435610d09816101ce565b6044359260018060a01b03165f52600260205260405f209060018060a01b03165f5260205260405f2090565b905f52602052602060405f2054604051908152f35b346101df5760203660031901126101df5760406001600160801b03610d896004355f52600460205260405f2054906001600160801b0382169160801c90565b835191831682529091166020820152f35b9060606003198301126101df57600435610db3816101ce565b91602435916001600160401b0383116101df57816023840112156101df578260040135926001600160401b0384116101df5782602485830101116101df576024019291604435906001600160401b0382116101df57610e1491600401610824565b9091565b610e2136610d9a565b9391610e2b612c5f565b92610e3584612c53565b6001610e4133306134c4565b5d610e4b33612cc8565b6001600160a01b031693843b156101df57604051631c6e724760e31b8152915f918391610e7b91600484016123a8565b95818381819903925af18015610edf57610ec1575b508293610ea3610ea992349236916123cf565b33612da6565b610eb1612e3e565b5f610ebc33306134c4565b5d5d80f35b610ea991935093610ed55f610ea3966102c3565b5f93915093610e90565b611f27565b60606003198201126101df57600435906001600160401b0382116101df57610f0e9160040161042b565b906024356001600160801b03811681036101df57906044356001600160801b03811681036101df5790565b346101df57610f50610f4a36610ee4565b916124cd565b60408051928352602083019190915290f35b60603660031901126101df576004356001600160401b0381116101df57610f8d903690600401610824565b60443591602435610f9f610b19612c10565b610fa7612f0f565b906001600160a01b0382161561110b575b610fc58493941515612f59565b925f925f915f915b8083106110325750610feb9150610fe6905083306134c4565b5c1590565b61101f575b5050508181106110075761061c905f610cad612c10565b63d438755d60e01b5f5260049190915260245260445ffd5b61102a923492613115565b5f8080610ff0565b909195611040878385612f8f565b908715809161104e856122e7565b8a14926110ce575b908291889361108b575b9161107b939160019593815f146110845734905b3095613796565b96019190610fcd565b5f90611074565b965091839161107b936110a260a060019701612fb1565b156110c0576110b360208501612328565b9891939550919350611060565b6110c984612328565b6110b3565b829850908792916110e160a08601612fb1565b156110fa576110ef85612328565b995090919250611056565b61110660208601612328565b6110ef565b339150610fb8565b346101df5760203660031901126101df576004355f526003602052602060405f2054604051908152f35b346101df5760403660031901126101df57602060ff611194600435611161816101ce565b6024359061116e826101ce565b60018060a01b03165f525f845260405f209060018060a01b03165f5260205260405f2090565b54166040519015158152f35b346101df5760a03660031901126101df576004356111bd816101ce565b6001600160801b036024356111d1816101ce565b604435926111de846101ce565b61120e6064356111ed816103a8565b608435956111fc610b19612c10565b611207871515612785565b8484612a9a565b936112976112858561127d61126461123e8a5f52600460205260405f2054906001600160801b0382169160801c90565b999061125d6112558d5f52600360205260405f2090565b5415156127d1565b168661285c565b6112768a5f52600360205260405f2090565b549061286f565b96168361285c565b611276875f52600360205260405f2090565b9484158061140a575b6113f1576112ac612f0f565b906001600160a01b038216156113e9575b826112cd83948361131c95612fbb565b6112ea6112e2835f52600360205260405f2090565b9182546122f5565b90556113016001600160801b038716600f0b61288d565b6113166001600160801b038916600f0b61288d565b9161303a565b6001600160a01b03838116908316109161135d9083156113dd57611356869588925b86156113d65780965b156113ce5750955b8585613090565b8483613090565b61136a610fe682306134c4565b61138d575b5050505f61137b612c10565b5d604080519182526020820192909252f35b6113c16113c6936113b861139f6128ad565b946113a986611cdc565b6001600160a01b039091169052565b6113a984611cee565b612d11565b5f808061136f565b90509561134f565b8196611347565b6113568795879261133e565b3391506112bd565b63d5de620560e01b5f526004859052602486905260445ffd5b5085156112a0565b60e03660031901126101df5760043561142a816101ce565b60243590611437826101ce565b60443590611444826101ce565b606435611450816103a8565b60843560a4359261146084610393565b60c4359261146f610b19612c10565b611477612f0f565b936001600160a01b03851615611676575b61149482888a86612a9a565b91886114b8845f52600460205260405f2054906001600160801b0382169160801c90565b999080938b92896114c7611c74565b6114cf611c74565b926114d86102e4565b6001600160a01b038d168152976001600160a01b031660208901526001600160a01b03166040880152606087019081528d1515608088015260a087019283525161152190611cdc565b525161152c90611cdc565b6001600160e81b03199091169052611543926124cd565b5097881561166757888891611557936130a3565b808710611650575061061c966115d0926115c9926115b4906001600160a01b03808516908416101561164957885b801561162e576001600160801b038816600f0b905b1561161b576113166001600160801b038c16600f0b61288d565b86156116145780965b1561160c5750926128cf565b8484613090565b6115db848284613090565b6115e8610fe683306134c4565b6115f9575b5050505f610cad612c10565b611604923492613115565b5f80806115ed565b9050926128cf565b81966115bd565b6001600160801b038816600f0b9161303a565b6116436001600160801b038c16600f0b61288d565b9061159a565b8815611585565b63d438755d60e01b5f52600452602486905260445ffd5b6314033f2160e11b5f5260045ffd5b339450611488565b60c03660031901126101df57600435611696816101ce565b6024356116a2816101ce565b604435916116af836101ce565b6064356116bb816103a8565b60a435926084356116cd610b19612c10565b6116d983878487612a9a565b6001600160a01b038381169086161094909190851561190b5792945b156119055794925b5f828152600460205260409020546001600160801b0381169060801c91909761172e845f52600360205260405f2090565b5461184c57505061061c968261176b9288151580611843575b611750906128df565b6117628761175d8b612814565b61286f565b925b878a613282565b94611774612f0f565b936001600160a01b0385161561183b575b816001600160801b03806117cc936117aa6117a36117e598976128cf565b898b613090565b6117bd6117b6826128cf565b8b8b613090565b16600f0b9116600f0b8361303a565b6117d786828661334f565b5f52600360205260405f2090565b6117f0858254612302565b90556117ff610fe683306134c4565b61180f575050505f610cad612c10565b6118346116049361182b6118216128ad565b936113a985611cdc565b6113a983611cee565b3491612da6565b339450611785565b50861515611747565b88856118e96118ee946118d98b670de0b6b3a76400006118d28a986118b9611872611c74565b916118a961187e611c74565b9661189961188a6102e4565b6001600160a01b03909d168d52565b6001600160a01b031660208c0152565b6001600160a01b031660408a0152565b606088018190525f608089015260a08801938452611cdc565b5251611cdc565b6001600160e81b03199091169052565b6124cd565b50968715611667578261176b9261061c9992611764565b926116fd565b946116f5565b61191a36610d9a565b5f949391929491611929612c5f565b9461193386612c53565b600161193f33306134c4565b5d61194933612cc8565b6001600160a01b031695863b156101df5761197d965f9283604051809a81958294631c6e724760e31b8452600484016123a8565b03925af1948515610edf5761061c956119cb575b506119ac91926119a634610ea33685856123cf565b33612332565b916119b5612e3e565b6119be33612e82565b5d60405191829182610854565b6119ac92505f6119da916102c3565b5f91611991565b6001600160401b0381116102be57601f01601f191660200190565b805180835260209291819084018484015e5f828201840152601f01601f1916010190565b9091611a37610390936040845260408401906119fc565b9160208184039101526119fc565b346101df5760203660031901126101df576004356001600160401b0381116101df57366023820112156101df578060040135611a80816119e1565b90611a8e60405192836102c3565b80825236602482850101116101df576020815f926024611ab696018386013783010152612971565b9061061c60405192839283611a20565b346101df5760803660031901126101df57600435611ae3816101ce565b602435611aef816101ce565b604435915f5160206140515f395f51905f52610712606435936001600160a01b03841693611b51908790611b44903388141580611c40575b611bb0576001600160a01b03165f90815260016020526040902090565b905f5260205260405f2090565b611b5c8682546122f5565b90556001600160a01b0381165f908152600160205260409020611b80908790611b44565b611b8b868254612302565b90556040805133815260208101969096526001600160a01b0390911694918291820190565b611be783611b4433611bd28560018060a01b03165f52600260205260405f2090565b9060018060a01b03165f5260205260405f2090565b548960018201611c0d575b50506001600160a01b03165f90815260016020526040902090565b611c16916122f5565b611c3884611b4433611bd28660018060a01b03165f52600260205260405f2090565b555f89611bf2565b50611c6f611c6b611c6433611bd28560018060a01b03165f525f60205260405f2090565b5460ff1690565b1590565b611b27565b60408051909190611c8583826102c3565b6001815291601f1901366020840137565b90611ca082610312565b611cad60405191826102c3565b8281528092611cbe601f1991610312565b0190602036910137565b634e487b7160e01b5f52603260045260245ffd5b805115611ce95760200190565b611cc8565b805160011015611ce95760400190565b8051821015611ce95760209160051b010190565b60405190611d216020836102c3565b5f8252565b92611d526103909593611d44611d60946080885260808801906119fc565b9086820360208801526119fc565b9084820360408601526119fc565b9160608184039101526119fc565b9080601f830112156101df578151611d8581610312565b92611d9360405194856102c3565b81845260208085019260051b8201019283116101df57602001905b828210611dbb5750505090565b8151815260209182019101611dae565b906020828203126101df5781516001600160401b0381116101df576103909201611d6e565b90602080835192838152019201905f5b818110611e0d5750505090565b82516001600160801b0316845260209384019390920191600101611e00565b90602080835192838152019201905f5b818110611e495750505090565b825161ffff16845260209384019390920191600101611e3c565b604080825282516001600160a01b031690820152610390929060208301516001600160a01b0316606082015260408301516001600160a01b03166080820152611f1a60e0611f0d611ef6611ee1611ecb606089015161010060a089015261014088019061059d565b6080890151878203603f190160c0890152611df0565b60a0880151868203603f190185880152611df0565b60c0870151858203603f1901610100870152611e2c565b9401511515610120830152565b60208184039101526119fc565b6040513d5f823e3d90fd5b90919260a0820192611f45845151611c96565b91611f51855151611c96565b50611f5d855151611c96565b95611f81611f7c611f6e8851611cdc565b516001600160e81b03191690565b6129c8565b5f5b875180518210156120075790612001611fee6080611fe58b8b611fdf87611fd9611fb2611f6e8360019d611cfe565b85516020870151604090970151919687926001600160a01b03908116929181169116612a9a565b92611cfe565b526129c8565b015161ffff1690565b611ff8838d611cfe565b9061ffff169052565b01611f83565b5050855160208701805160408901805160608b015160808c018051999e9b9d50929b969a94996001600160a01b0396871699939894871696909391921690151595612050610302565b6001600160a01b03909a168a526001600160a01b031660208a01526001600160a01b031660408901526060880152608087015260a086015260c0850152151560e0840152516001600160a01b031692516001600160a01b031685519091906001600160a01b031690511515916120c4610302565b6001600160a01b0390951685526001600160a01b031660208501526001600160a01b031660408401525f606084018190526080840181905260a0840181905260c0840152151560e0830152825115155f1461223561223561225e966122285f97612241956122c25761221a612159897f0000000000000000000000000000000000000000000000000000000000000000612b48565b915b602081015115158b146122b4576121928a7f0000000000000000000000000000000000000000000000000000000000000000612b48565b995b604082015115158c146122a1576121d960606121d0837f0000000000000000000000000000000000000000000000000000000000000000612b48565b935b0151151590565b8c1461229257612209907f0000000000000000000000000000000000000000000000000000000000000000612b48565b905b6040519a8b9460208601611d26565b03601f1981018852876102c3565b516001600160a01b031690565b6001600160a01b031690565b908360405180968195829462db90d160e81b845260048401611e63565b03925af1908115610edf575f91612273575091565b61228f91503d805f833e61228781836102c3565b810190611dcb565b91565b5061229b611d12565b9061220b565b6121d960606122ae611d12565b936121d2565b6122bc611d12565b99612194565b61221a6122cd611d12565b9161215b565b634e487b7160e01b5f52601160045260245ffd5b5f1981019190821161072157565b9190820391821161072157565b9190820180921161072157565b9015611ce95790565b9190811015611ce95760051b0190565b35610390816101ce565b92919261233e84610312565b9061234c60405192836102c3565b848252601f1961235b86610312565b0136602084013781945f5b818110612374575050505050565b806123966123856001938589612318565b3561238f816101ce565b853061344f565b5c6123a18287611cfe565b5201612366565b90918060409360208452816020850152848401375f828201840152601f01601f1916010190565b9291906123db81610312565b936123e960405195866102c3565b602085838152019160051b81019283116101df57905b82821061240b57505050565b60208091833561241a816101ce565b8152019101906123ff565b908160209103126101df575190565b80516001600160a01b03908116835260208083015182169084015260408083015190911690830152606080820151908301526080808201516001600160801b0316908301526101ee919060e090819060a0818101516001600160801b03169085015260c08181015161ffff169085015201511515910152565b806124bf610120926103909594612434565b8161010082015201906119fc565b805160208201805160408401805160a086018051909894979694959294936001600160a01b039384169390811692169061250690611cdc565b516001600160e81b0319169161251b93612a9a565b955161252690611cdc565b516001600160e81b03191661253a906129c8565b81519093906001600160a01b031695516001600160a01b031692516001600160a01b031694606083015161256d90611cdc565b51608086015161ffff16608090940151151594612588610302565b6001600160a01b0390991689526001600160a01b031660208901526001600160a01b03909616604088019081529560608801526001600160801b031660808701526001600160801b031660a086015261ffff1660c0850152151560e0840152805115155f14926126e7612235612235602095612705976127755761222861262f867f0000000000000000000000000000000000000000000000000000000000000000612e90565b87890151156127645761221a612665887f0000000000000000000000000000000000000000000000000000000000000000612e90565b985b604081015115612751576126a860606126a08b7f0000000000000000000000000000000000000000000000000000000000000000612e90565b920151151590565b15612743576126d7897f0000000000000000000000000000000000000000000000000000000000000000612e90565b905b6040519a8b948d8601611d26565b905f6040518096819582946305e3344d60e41b8452600484016124ad565b03925af1908115610edf575f9161271a575091565b61228f915060203d60201161273c575b61273481836102c3565b810190612425565b503d61272a565b61274b611d12565b906126d9565b6126a8606061275e611d12565b926121d2565b61221a61276f611d12565b98612667565b612228612780611d12565b61262f565b1561278c57565b60405162461bcd60e51b815260206004820152601860248201527f496e76616c6964206c697175696469747920616d6f756e7400000000000000006044820152606490fd5b156127d857565b60405162461bcd60e51b8152602060048201526014602482015273139bc81b1a5c5d5a591a5d1e481a5b881c1bdbdb60621b6044820152606490fd5b90670de0b6b3a7640000820291808304670de0b6b3a7640000149015171561072157565b9067120a871cc002000082029180830467120a871cc0020000149015171561072157565b8181029291811591840414171561072157565b8115612879570490565b634e487b7160e01b5f52601260045260245ffd5b600f0b6f7fffffffffffffffffffffffffffffff198114610721575f0390565b604051606091906128be83826102c3565b6002815291601f1901366020840137565b600160ff1b8114610721575f0390565b156128e657565b60405162461bcd60e51b815260206004820152601760248201527f496e76616c696420696e697469616c20616d6f756e74730000000000000000006044820152606490fd5b81601f820112156101df57805190612942826119e1565b9261295060405194856102c3565b828452602083830101116101df57815f9260208093018386015e8301015290565b8051810190604081602084019303126101df5760208101516001600160401b0381116101df578260206129a69284010161292b565b916040820151916001600160401b0383116101df57610e14920160200161292b565b6040519060a08201908282106001600160401b038311176102be57612a8e610fff91610390936040525f85525f60208601525f60408601525f60608601525f608086015260e81c612a20600182161515869015159052565b612a43612a3a600183811c627fffff165b1662ffffff1690565b15156020870152565b612a63612a5a6001600284901c623fffff16612a31565b15156040870152565b612a83612a7a6001600384901c621fffff16612a31565b15156060870152565b60041c620fffff1690565b1661ffff166080830152565b9092906001600160a01b038085169082161015612b0c5792915b6040516bffffffffffffffffffffffff19606095861b81166020830190815294861b811660348301529190941b1660488401526001600160e81b031916605c830152603f825290612b06605f826102c3565b51902090565b91612ab4565b906020828203126101df5781516001600160401b0381116101df57610390920161292b565b610100810192916101ee9190612434565b6001600160a01b0381168015612c0557813b15612c0557612b68826133a8565b805190939015612b79575b50505090565b604051633bd1104b60e01b815293505f918491829084908290612b9f9060048301612b37565b03925af15f9281612be1575b50612bc2575050612bba611d12565b5f8080612b73565b818051612bd1575b5050612bba565b612bda9161341b565b5f80612bca565b612bfe9193503d805f833e612bf681836102c3565b810190612b12565b915f612bab565b505050610390611d12565b60405160208101907f626529a6be7cb2fb96a7ed93849b4ef74c980495dfe61fd514c95dcd9da51c3582523060601b604082015260348152612b066054826102c3565b805c6101df576001905d565b60405160208101907f626529a6be7cb2fb96a7ed93849b4ef74c980495dfe61fd514c95dcd9da51c3582523060601b60408201527f88f108d443a200407df3d92fc06ed196d7b48635560cc21c3b1819792e11c1a7605482015260548152612b066074826102c3565b60405160208101907f507ba82850c15277b79bae90c6e97b66228a117b64d05e46b3182d141df61ce282523060601b604082015260348152612d0b6054826102c3565b5190205d565b8151915f5b838110612d235750505050565b6001906001600160a01b03612d388285611cfe565b5116612d4581863061344f565b5c80612d54575b505001612d16565b5f91612d749183811315612d7c57612d6d90888361369a565b863061344f565b5d5f80612d4c565b612d88612d9a916128cf565b82158514612d9f5784905b89846135c0565b612d6d565b8490612d93565b90918251925f5b848110612dbb575050505050565b6001906001600160a01b03612dd08285611cfe565b5116612ddd81873061344f565b5c80612dec575b505001612dad565b5f91612e0c9183811315612e1457612e0590898361369a565b873061344f565b5d5f80612de4565b612e20612e32916128cf565b82158514612e375788905b8a846135c0565b612e05565b8490612e2b565b5f60405160208101907f507ba82850c15277b79bae90c6e97b66228a117b64d05e46b3182d141df61ce282523060601b604082015260348152612d0b6054826102c3565b612e8d5f91306134c4565b5d565b6001600160a01b038116908115612c05573b15612f05575f9182916040518094818094633bd1104b60e01b8252612ecf60048301610100810192612434565b03925af15f9181612ee9575b506103905750610390611d12565b612efe9192503d805f833e612bf681836102c3565b905f612edb565b5050610390611d12565b60405160208101907f507ba82850c15277b79bae90c6e97b66228a117b64d05e46b3182d141df61ce282523060601b604082015260348152612f526054826102c3565b5190205c90565b15612f6057565b60405162461bcd60e51b81526020600482015260076024820152664e6f20686f707360c81b6044820152606490fd5b9190811015611ce95760051b8101359060be19813603018212156101df570190565b3561039081610393565b91909160018060a01b0316805f52600160205260405f20835f5260205260405f2080549083820391821161072157556040805133815260208101939093525f925f5160206140515f395f51905f5291819081015b0390a4565b90600f0b90600f0b019060016001607f1b0319821260016001607f1b0383131761072157565b9091815f5260046020526001600160801b0361306d61306360405f205495838716600f0b613014565b928560801d613014565b81199060801b16911617918203613082575050565b5f52600460205260405f2055565b9061309b913061344f565b90815c01905d565b6001600160801b0392935f146130d6575016908082106130c1575050565b630173586760e01b5f5260045260245260445ffd5b905016908082106130e5575050565b6368580a1960e01b5f5260045260245260445ffd5b9190915f838201938412911290801582169115161761072157565b909261312284833061344f565b5c61312e84843061344f565b5c916001600160a01b03858116929087168084146131f757918161319195935f6101ee9a9694125f146131d757613167613176926128cf565b906131d05782905b88876135c0565b5f83131561319657505061318b90848661369a565b8261370b565b61370b565b5f83126131a6575b50505061318b565b6131b26131c0936128cf565b916131c857905b85876135c0565b5f808061319e565b505f906131b9565b5f9061316f565b505f81136131e6575b50613176565b6131f190878661369a565b5f6131e0565b92506101ee969593613208916130fa565b925f841215613234575061321e613191936128cf565b9161322c57905b83856135c0565b505f90613225565b92915050825f8213613249575b50505061370b565b6132529261369a565b5f8082613241565b6001600160801b03670de0b6b3a7640000911602906001600160801b03821691820361072157565b929493919093825f52600360205260405f2054155f146132c2575050506132a99250612302565b905b81156132b357565b63283eeadf60e01b5f5260045ffd5b90929193670de0b6b3a7640000810290808204670de0b6b3a7640000149015171561072157816132f19161286f565b82018092116107215761333261175d936001600160801b0361332b6133429461175d61331f6133499b61325a565b6001600160801b031690565b9116612302565b936003905f5260205260405f2090565b549061285c565b906132ab565b91909160018060a01b031690815f52600160205260405f20835f5260205260405f2080549082820180921161072157556040805133815260208101929092525f915f5160206140515f395f51905f52918190810161300f565b90606091805c90811580613406575b156133c0575050565b909250601f6040519380855201908160051c905f5b8281106133ed57505050601f19168201602001604052565b80600180928401015c60208260051b89010152016133d5565b9350604051935f8552602085016040526133b7565b601f825180835d0160051c915f5b8381106134365750505050565b80602060019260051b8401015182828601015d01613429565b916040519160208301937f71aa94563c1d78d77df681ad802fc1a81ea7d00cffe4bbe002400e1d66de80d285526001600160601b03199060601b1660408401526001600160601b03199060601b1660548301526001600160601b03199060601b166068820152605c8152612b06607c826102c3565b906040519060208201927fe88690b85c82523984f05d1f281684a73aa4d4303bca19cfe29aa89ae744616a84526001600160601b03199060601b1660408301526001600160601b03199060601b16605482015260488152612b066068826102c3565b908160209103126101df575161039081610393565b1561354257565b60405162461bcd60e51b8152602060048201526015602482015274115490cc8c081d1c985b9cd9995c8819985a5b1959605a1b6044820152606490fd5b1561358657565b60405162461bcd60e51b8152602060048201526012602482015271125b98dbdc9c9958dd08115512081cd95b9d60721b6044820152606490fd5b6001600160a01b03169290836135dc57506101ee92501461357f565b9190613662576040516323b872dd60e01b81526001600160a01b0390921660048301523060248301526044820152906020908290815f81606481015b03925af18015610edf576101ee915f91613633575b5061353b565b613655915060203d60201161365b575b61364d81836102c3565b810190613526565b5f61362d565b503d613643565b60405162461bcd60e51b815260206004820152601060248201526f115512081b9bdd08195e1c1958dd195960821b6044820152606490fd5b6001600160a01b0316806136d457505f8080938193829082156136ca575b6001600160a01b031690f115610edf57565b6108fc91506136b8565b60405163a9059cbb60e01b81526001600160a01b0390921660048301526024820192909252906020908290815f8160448101613618565b5f91612e8d913061344f565b903590601e19813603018212156101df57018035906001600160401b0382116101df57602001918160051b360383136101df57565b1561375357565b60405162461bcd60e51b81526020600482015260116024820152704d69736d6174636865642061727261797360781b6044820152606490fd5b35610390816103a8565b959493929150606086016137aa8188613717565b90501561384c576137d66137c16080890189613717565b90506137cd838a613717565b9190501461374c565b60016137e28289613717565b9050145f1461384057866137f861039098612328565b9161380560208301612328565b61383860a061383161382c61382661381f60408901612328565b9688613717565b9061230f565b61378c565b9401612fb1565b936003613d55565b506103909560036139a1565b60405162461bcd60e51b815260206004820152600b60248201526a4e6f206d61726b696e677360a81b6044820152606490fd5b9190916040818403126101df5780516001600160401b0381116101df57836138a8918301611d6e565b9260208201516001600160401b0381116101df576103909201611d6e565b90602080835192838152019201905f5b8181106138e35750505090565b82516001600160e81b0319168452602093840193909201916001016138d6565b80516001600160a01b0390811683526020808301518216908401526040808301519091169083015260608082015160c0918401829052610390939160a09161394d9184019061059d565b9260808101511515608084015201519060a08184039101526138c6565b91613993906139856103909593606086526060860190613903565b908482036020860152611df0565b916040818403910152611df0565b969495909293919660608401976139b88986613717565b969050613d12575b506139ca85611c96565b916139d486611c96565b905f5b878110613c7c5750815f91858389613a9b613abd9d9e9f613a6f613a946139fd85612328565b94613a86613a0d60208301612328565b94613a42613a7f613a2060408601612328565b613a2d6080870187613717565b939094613a3c60a08901612fb1565b97613717565b989099613a5f613a506102e4565b6001600160a01b03909e168e52565b6001600160a01b031660208d0152565b6001600160a01b031660408b0152565b3691610329565b606087015215156080860152565b36916103ba565b60a082015260405163027b8f7b60e11b81529c8d95869485936004850161396a565b03926001600160a01b03165af1908115610edf575f975f92613c55575b505f5b878110613b5957505050505090613b069495613b009392613b0a575b50506122e7565b90611cfe565b5190565b81613b1a60a0613b449401612fb1565b15613b4b576020613b2b9101612328565b613b3d613b37856122e7565b87611cfe565b5191613090565b5f80613af9565b613b5490612328565b613b2b565b80613c1b8a89613b8384613b7c600197613b766080860186613717565b90612318565b3593611cfe565b51613bc1613ba1613b94878d611cfe565b516001600160801b031690565b82613baf613b94898c611cfe565b613bbb60a08701612fb1565b926130a3565b613bcb8589611cfe565b5192613bd960a08401612fb1565b15613c3557613bf860a06001600160801b038316600f0b945b01612fb1565b15613c2157506001600160801b03613c139116600f0b61288d565b915b88613e79565b01613add565b6001600160801b03915016600f0b91613c15565b613bf860a0613c4f6001600160801b038516600f0b61288d565b94613bf2565b909750613c7491503d805f833e613c6c81836102c3565b81019061387f565b90965f613ada565b600190613d0c613d02613ce7613cc68f8c613c9681612328565b91613cc061382c89613b76613cad60208701612328565b94613cba60408801612328565b96613717565b92612a9a565b886001915f520160205260405f2054906001600160801b0382169160801c90565b613cf48589949394611cfe565b906001600160801b03169052565b613cf48389611cfe565b016139d7565b613d4090613d2260a08701612fb1565b15613d4657613d39613d3387612328565b916128cf565b9089613090565b5f6139c0565b613d39613d3360208801612328565b9185809c9b829893979b99959a969a613d708c82868c612a9a565b96613e50575b8885613d9d89896001915f520160205260405f2054906001600160801b0382169160801c90565b9e8f948298613dad989395613f17565b9b8c809a613dba936130a3565b613df5928915613e35576001600160801b038216600f0b915b8a15613e235750613def6001600160801b038a16600f0b61288d565b92613e79565b613e01575b5050505050565b613e119415613e1b575090613090565b5f82818080613dfa565b905090613090565b6001600160801b0316600f0b92613e79565b613e4a6001600160801b038a16600f0b61288d565b91613dd3565b8215613e7057613e6b895b613e64876128cf565b908d613090565b613d76565b613e6b84613e5b565b6001909392930191815f52826020526001600160801b03613eb1613ea760405f205496838816600f0b613014565b928660801d613014565b81199060801b16911617928303613ec757505050565b5f5260205260405f2055565b91908260409103126101df576020825192015190565b9193926001600160801b039081613f0a604094606087526060870190613903565b9616602085015216910152565b613fbb98935f92613f8d6040989a979995613f7e613f33611c74565b938d613f3e86611cdc565b52613f54613f4a611c74565b966118d988611cdc565b613f6e613f5f6102e4565b6001600160a01b039098168852565b6001600160a01b03166020870152565b6001600160a01b0316848a0152565b6060830152871515608083015260a082015285516360a80dbb60e01b81529889958694859360048501613ee9565b03926001600160a01b03165af1928315610edf575f9361401e575b508215613fe257505090565b9091501561400457613ff661039091612838565b670de0b6b3a7640000900490565b61401061039091612814565b67120a871cc0020000900490565b61404191935060403d604011614049575b61403981836102c3565b810190613ed3565b50915f613fd6565b503d61402f56fe1b3d7edb2e9c0b0e7c525b20aaaef0f5940d2ed71663c7d39266ecafac728859a2646970667358221220a2bc7f048b0733dc9b76166cfca75ef8e2401993a48b8520b32097f5750c87ec64736f6c634300081e0033","opcodes":"PUSH2 0x100 CALLVALUE PUSH2 0xE5 JUMPI PUSH1 0x1F PUSH2 0x41B8 CODESIZE DUP2 SWAP1 SUB SWAP2 DUP3 ADD PUSH1 0x1F NOT AND DUP4 ADD SWAP2 PUSH1 0x1 PUSH1 0x1 PUSH1 0x40 SHL SUB DUP4 GT DUP5 DUP5 LT OR PUSH2 0xE9 JUMPI DUP1 DUP5 SWAP3 PUSH1 0x80 SWAP5 PUSH1 0x40 MSTORE DUP4 CODECOPY DUP2 ADD SUB SLT PUSH2 0xE5 JUMPI PUSH2 0x48 DUP2 PUSH2 0xFD JUMP JUMPDEST SWAP1 PUSH2 0x55 PUSH1 0x20 DUP3 ADD PUSH2 0xFD JUMP JUMPDEST PUSH2 0x6D PUSH1 0x60 PUSH2 0x66 PUSH1 0x40 DUP6 ADD PUSH2 0xFD JUMP JUMPDEST SWAP4 ADD PUSH2 0xFD JUMP JUMPDEST SWAP3 PUSH1 0x80 MSTORE PUSH1 0xA0 MSTORE PUSH1 0xC0 MSTORE PUSH1 0xE0 MSTORE PUSH1 0x40 MLOAD PUSH2 0x40A6 SWAP1 DUP2 PUSH2 0x112 DUP3 CODECOPY PUSH1 0x80 MLOAD DUP2 DUP2 DUP2 PUSH2 0x93B ADD MSTORE DUP2 DUP2 PUSH2 0x2135 ADD MSTORE PUSH2 0x260B ADD MSTORE PUSH1 0xA0 MLOAD DUP2 DUP2 DUP2 PUSH2 0xA00 ADD MSTORE DUP2 DUP2 PUSH2 0x216E ADD MSTORE PUSH2 0x2641 ADD MSTORE PUSH1 0xC0 MLOAD DUP2 DUP2 DUP2 PUSH2 0x635 ADD MSTORE DUP2 DUP2 PUSH2 0x21AC ADD MSTORE PUSH2 0x267C ADD MSTORE PUSH1 0xE0 MLOAD DUP2 DUP2 DUP2 PUSH2 0x8F7 ADD MSTORE DUP2 DUP2 PUSH2 0x21E5 ADD MSTORE PUSH2 0x26B3 ADD MSTORE RETURN JUMPDEST PUSH0 DUP1 REVERT JUMPDEST PUSH4 0x4E487B71 PUSH1 0xE0 SHL PUSH0 MSTORE PUSH1 0x41 PUSH1 0x4 MSTORE PUSH1 0x24 PUSH0 REVERT JUMPDEST MLOAD SWAP1 PUSH1 0x1 PUSH1 0x1 PUSH1 0xA0 SHL SUB DUP3 AND DUP3 SUB PUSH2 0xE5 JUMPI JUMP INVALID PUSH1 0x80 PUSH1 0x40 MSTORE PUSH1 0x4 CALLDATASIZE LT ISZERO PUSH2 0x11 JUMPI PUSH0 DUP1 REVERT JUMPDEST PUSH0 CALLDATALOAD PUSH1 0xE0 SHR DUP1 PUSH3 0xFDD58E EQ PUSH2 0x1C9 JUMPI DUP1 PUSH4 0x1FFC9A7 EQ PUSH2 0x1C4 JUMPI DUP1 PUSH4 0x4F71EF6 EQ PUSH2 0x16A JUMPI DUP1 PUSH4 0x91F15B0 EQ PUSH2 0x1BF JUMPI DUP1 PUSH4 0x95BCDB6 EQ PUSH2 0x1BA JUMPI DUP1 PUSH4 0x2F380B35 EQ PUSH2 0x1B5 JUMPI DUP1 PUSH4 0x314E2321 EQ PUSH2 0x1B0 JUMPI DUP1 PUSH4 0x31B4AE17 EQ PUSH2 0x1AB JUMPI DUP1 PUSH4 0x3D465AAE EQ PUSH2 0x1A6 JUMPI DUP1 PUSH4 0x426A8493 EQ PUSH2 0x1A1 JUMPI DUP1 PUSH4 0x46FE6514 EQ PUSH2 0x19C JUMPI DUP1 PUSH4 0x558A7297 EQ PUSH2 0x197 JUMPI DUP1 PUSH4 0x5670F55A EQ PUSH2 0x192 JUMPI DUP1 PUSH4 0x598AF9E7 EQ PUSH2 0x18D JUMPI DUP1 PUSH4 0x5B298D32 EQ PUSH2 0x188 JUMPI DUP1 PUSH4 0x5DFB78AF EQ PUSH2 0x183 JUMPI DUP1 PUSH4 0x60A80DBB EQ PUSH2 0x17E JUMPI DUP1 PUSH4 0x8F155291 EQ PUSH2 0x17E JUMPI DUP1 PUSH4 0x9D2EC6E4 EQ PUSH2 0x179 JUMPI DUP1 PUSH4 0xB5E60C3C EQ PUSH2 0x174 JUMPI DUP1 PUSH4 0xB6363CF2 EQ PUSH2 0x16F JUMPI DUP1 PUSH4 0xC279171D EQ PUSH2 0x16A JUMPI DUP1 PUSH4 0xCB1F2F38 EQ PUSH2 0x165 JUMPI DUP1 PUSH4 0xD92BC84C EQ PUSH2 0x160 JUMPI DUP1 PUSH4 0xE513315B EQ PUSH2 0x15B JUMPI DUP1 PUSH4 0xEA157ACF EQ PUSH2 0x156 JUMPI DUP1 PUSH4 0xF9158EE5 EQ PUSH2 0x151 JUMPI PUSH4 0xFE99049A EQ PUSH2 0x14C JUMPI PUSH0 DUP1 REVERT JUMPDEST PUSH2 0x1AC6 JUMP JUMPDEST PUSH2 0x1A45 JUMP JUMPDEST PUSH2 0x1911 JUMP JUMPDEST PUSH2 0x167E JUMP JUMPDEST PUSH2 0x1412 JUMP JUMPDEST PUSH2 0x11A0 JUMP JUMPDEST PUSH2 0x5F5 JUMP JUMPDEST PUSH2 0x113D JUMP JUMPDEST PUSH2 0x1113 JUMP JUMPDEST PUSH2 0xF62 JUMP JUMPDEST PUSH2 0xF39 JUMP JUMPDEST PUSH2 0xE18 JUMP JUMPDEST PUSH2 0xD4A JUMP JUMPDEST PUSH2 0xCDD JUMP JUMPDEST PUSH2 0xACB JUMP JUMPDEST PUSH2 0xA2F JUMP JUMPDEST PUSH2 0x9EB JUMP JUMPDEST PUSH2 0x96A JUMP JUMPDEST PUSH2 0x926 JUMP JUMPDEST PUSH2 0x8E2 JUMP JUMPDEST PUSH2 0x88D JUMP JUMPDEST PUSH2 0x726 JUMP JUMPDEST PUSH2 0x687 JUMP JUMPDEST PUSH2 0x620 JUMP JUMPDEST PUSH2 0x239 JUMP JUMPDEST PUSH2 0x1F0 JUMP JUMPDEST PUSH1 0x1 PUSH1 0x1 PUSH1 0xA0 SHL SUB DUP2 AND SUB PUSH2 0x1DF JUMPI JUMP JUMPDEST PUSH0 DUP1 REVERT JUMPDEST CALLDATALOAD SWAP1 PUSH2 0x1EE DUP3 PUSH2 0x1CE JUMP JUMPDEST JUMP JUMPDEST CALLVALUE PUSH2 0x1DF JUMPI PUSH1 0x40 CALLDATASIZE PUSH1 0x3 NOT ADD SLT PUSH2 0x1DF JUMPI PUSH1 0x4 CALLDATALOAD PUSH2 0x20D DUP2 PUSH2 0x1CE JUMP JUMPDEST PUSH1 0x24 CALLDATALOAD SWAP1 PUSH1 0x1 DUP1 PUSH1 0xA0 SHL SUB AND PUSH0 MSTORE PUSH1 0x1 PUSH1 0x20 MSTORE PUSH1 0x40 PUSH0 KECCAK256 SWAP1 PUSH0 MSTORE PUSH1 0x20 MSTORE PUSH1 0x20 PUSH1 0x40 PUSH0 KECCAK256 SLOAD PUSH1 0x40 MLOAD SWAP1 DUP2 MSTORE RETURN JUMPDEST CALLVALUE PUSH2 0x1DF JUMPI PUSH1 0x20 CALLDATASIZE PUSH1 0x3 NOT ADD SLT PUSH2 0x1DF JUMPI PUSH1 0x4 CALLDATALOAD PUSH4 0xFFFFFFFF PUSH1 0xE0 SHL DUP2 AND DUP1 SWAP2 SUB PUSH2 0x1DF JUMPI PUSH1 0x20 SWAP1 PUSH4 0x1FFC9A7 PUSH1 0xE0 SHL DUP2 EQ SWAP1 DUP2 ISZERO PUSH2 0x27E JUMPI JUMPDEST POP PUSH1 0x40 MLOAD SWAP1 ISZERO ISZERO DUP2 MSTORE RETURN JUMPDEST PUSH4 0xF632FB3 PUSH1 0xE0 SHL EQ SWAP1 POP PUSH0 PUSH2 0x273 JUMP JUMPDEST PUSH4 0x4E487B71 PUSH1 0xE0 SHL PUSH0 MSTORE PUSH1 0x41 PUSH1 0x4 MSTORE PUSH1 0x24 PUSH0 REVERT JUMPDEST PUSH1 0x80 DUP2 ADD SWAP1 DUP2 LT PUSH1 0x1 PUSH1 0x1 PUSH1 0x40 SHL SUB DUP3 GT OR PUSH2 0x2BE JUMPI PUSH1 0x40 MSTORE JUMP JUMPDEST PUSH2 0x28F JUMP JUMPDEST SWAP1 PUSH1 0x1F DUP1 NOT SWAP2 ADD AND DUP2 ADD SWAP1 DUP2 LT PUSH1 0x1 PUSH1 0x1 PUSH1 0x40 SHL SUB DUP3 GT OR PUSH2 0x2BE JUMPI PUSH1 0x40 MSTORE JUMP JUMPDEST PUSH1 0x40 MLOAD SWAP1 PUSH2 0x1EE PUSH1 0xC0 DUP4 PUSH2 0x2C3 JUMP JUMPDEST PUSH1 0x40 MLOAD SWAP1 PUSH2 0x1EE PUSH1 0x80 DUP4 PUSH2 0x2C3 JUMP JUMPDEST PUSH1 0x40 MLOAD SWAP1 PUSH2 0x1EE PUSH2 0x100 DUP4 PUSH2 0x2C3 JUMP JUMPDEST PUSH1 0x1 PUSH1 0x1 PUSH1 0x40 SHL SUB DUP2 GT PUSH2 0x2BE JUMPI PUSH1 0x5 SHL PUSH1 0x20 ADD SWAP1 JUMP JUMPDEST SWAP3 SWAP2 SWAP1 PUSH2 0x335 DUP2 PUSH2 0x312 JUMP JUMPDEST SWAP4 PUSH2 0x343 PUSH1 0x40 MLOAD SWAP6 DUP7 PUSH2 0x2C3 JUMP JUMPDEST PUSH1 0x20 DUP6 DUP4 DUP2 MSTORE ADD SWAP2 PUSH1 0x5 SHL DUP2 ADD SWAP3 DUP4 GT PUSH2 0x1DF JUMPI SWAP1 JUMPDEST DUP3 DUP3 LT PUSH2 0x365 JUMPI POP POP POP JUMP JUMPDEST DUP2 CALLDATALOAD DUP2 MSTORE PUSH1 0x20 SWAP2 DUP3 ADD SWAP2 ADD PUSH2 0x359 JUMP JUMPDEST SWAP1 DUP1 PUSH1 0x1F DUP4 ADD SLT ISZERO PUSH2 0x1DF JUMPI DUP2 PUSH1 0x20 PUSH2 0x390 SWAP4 CALLDATALOAD SWAP2 ADD PUSH2 0x329 JUMP JUMPDEST SWAP1 JUMP JUMPDEST DUP1 ISZERO ISZERO SUB PUSH2 0x1DF JUMPI JUMP JUMPDEST CALLDATALOAD SWAP1 PUSH2 0x1EE DUP3 PUSH2 0x393 JUMP JUMPDEST PUSH1 0x1 PUSH1 0x1 PUSH1 0xE8 SHL SUB NOT DUP2 AND SUB PUSH2 0x1DF JUMPI JUMP JUMPDEST SWAP3 SWAP2 SWAP1 PUSH2 0x3C6 DUP2 PUSH2 0x312 JUMP JUMPDEST SWAP4 PUSH2 0x3D4 PUSH1 0x40 MLOAD SWAP6 DUP7 PUSH2 0x2C3 JUMP JUMPDEST PUSH1 0x20 DUP6 DUP4 DUP2 MSTORE ADD SWAP2 PUSH1 0x5 SHL DUP2 ADD SWAP3 DUP4 GT PUSH2 0x1DF JUMPI SWAP1 JUMPDEST DUP3 DUP3 LT PUSH2 0x3F6 JUMPI POP POP POP JUMP JUMPDEST PUSH1 0x20 DUP1 SWAP2 DUP4 CALLDATALOAD PUSH2 0x405 DUP2 PUSH2 0x3A8 JUMP JUMPDEST DUP2 MSTORE ADD SWAP2 ADD SWAP1 PUSH2 0x3EA JUMP JUMPDEST SWAP1 DUP1 PUSH1 0x1F DUP4 ADD SLT ISZERO PUSH2 0x1DF JUMPI DUP2 PUSH1 0x20 PUSH2 0x390 SWAP4 CALLDATALOAD SWAP2 ADD PUSH2 0x3BA JUMP JUMPDEST SWAP2 SWAP1 SWAP2 PUSH1 0xC0 DUP2 DUP5 SUB SLT PUSH2 0x1DF JUMPI PUSH2 0x440 PUSH2 0x2E4 JUMP JUMPDEST SWAP3 PUSH2 0x44A DUP3 PUSH2 0x1E3 JUMP JUMPDEST DUP5 MSTORE PUSH2 0x458 PUSH1 0x20 DUP4 ADD PUSH2 0x1E3 JUMP JUMPDEST PUSH1 0x20 DUP6 ADD MSTORE PUSH2 0x469 PUSH1 0x40 DUP4 ADD PUSH2 0x1E3 JUMP JUMPDEST PUSH1 0x40 DUP6 ADD MSTORE PUSH1 0x60 DUP3 ADD CALLDATALOAD PUSH1 0x1 PUSH1 0x1 PUSH1 0x40 SHL SUB DUP2 GT PUSH2 0x1DF JUMPI DUP2 PUSH2 0x48D SWAP2 DUP5 ADD PUSH2 0x375 JUMP JUMPDEST PUSH1 0x60 DUP6 ADD MSTORE PUSH2 0x49E PUSH1 0x80 DUP4 ADD PUSH2 0x39D JUMP JUMPDEST PUSH1 0x80 DUP6 ADD MSTORE PUSH1 0xA0 DUP3 ADD CALLDATALOAD PUSH1 0x1 PUSH1 0x1 PUSH1 0x40 SHL SUB DUP2 GT PUSH2 0x1DF JUMPI PUSH2 0x4C0 SWAP3 ADD PUSH2 0x410 JUMP JUMPDEST PUSH1 0xA0 DUP4 ADD MSTORE JUMP JUMPDEST SWAP1 DUP1 PUSH1 0x1F DUP4 ADD SLT ISZERO PUSH2 0x1DF JUMPI DUP2 CALLDATALOAD SWAP1 PUSH2 0x4DF DUP3 PUSH2 0x312 JUMP JUMPDEST SWAP3 PUSH2 0x4ED PUSH1 0x40 MLOAD SWAP5 DUP6 PUSH2 0x2C3 JUMP JUMPDEST DUP3 DUP5 MSTORE PUSH1 0x20 DUP1 DUP6 ADD SWAP4 PUSH1 0x5 SHL DUP3 ADD ADD SWAP2 DUP3 GT PUSH2 0x1DF JUMPI PUSH1 0x20 ADD SWAP2 JUMPDEST DUP2 DUP4 LT PUSH2 0x515 JUMPI POP POP POP SWAP1 JUMP JUMPDEST DUP3 CALLDATALOAD PUSH1 0x1 PUSH1 0x1 PUSH1 0x80 SHL SUB DUP2 AND DUP2 SUB PUSH2 0x1DF JUMPI DUP2 MSTORE PUSH1 0x20 SWAP3 DUP4 ADD SWAP3 ADD PUSH2 0x508 JUMP JUMPDEST PUSH1 0x60 PUSH1 0x3 NOT DUP3 ADD SLT PUSH2 0x1DF JUMPI PUSH1 0x4 CALLDATALOAD PUSH1 0x1 PUSH1 0x1 PUSH1 0x40 SHL SUB DUP2 GT PUSH2 0x1DF JUMPI DUP2 PUSH2 0x55F SWAP2 PUSH1 0x4 ADD PUSH2 0x42B JUMP JUMPDEST SWAP2 PUSH1 0x24 CALLDATALOAD PUSH1 0x1 PUSH1 0x1 PUSH1 0x40 SHL SUB DUP2 GT PUSH2 0x1DF JUMPI DUP3 PUSH2 0x57E SWAP2 PUSH1 0x4 ADD PUSH2 0x4C7 JUMP JUMPDEST SWAP2 PUSH1 0x44 CALLDATALOAD SWAP1 PUSH1 0x1 PUSH1 0x1 PUSH1 0x40 SHL SUB DUP3 GT PUSH2 0x1DF JUMPI PUSH2 0x390 SWAP2 PUSH1 0x4 ADD PUSH2 0x4C7 JUMP JUMPDEST SWAP1 PUSH1 0x20 DUP1 DUP4 MLOAD SWAP3 DUP4 DUP2 MSTORE ADD SWAP3 ADD SWAP1 PUSH0 JUMPDEST DUP2 DUP2 LT PUSH2 0x5BA JUMPI POP POP POP SWAP1 JUMP JUMPDEST DUP3 MLOAD DUP5 MSTORE PUSH1 0x20 SWAP4 DUP5 ADD SWAP4 SWAP1 SWAP3 ADD SWAP2 PUSH1 0x1 ADD PUSH2 0x5AD JUMP JUMPDEST SWAP1 SWAP2 PUSH2 0x5E7 PUSH2 0x390 SWAP4 PUSH1 0x40 DUP5 MSTORE PUSH1 0x40 DUP5 ADD SWAP1 PUSH2 0x59D JUMP JUMPDEST SWAP2 PUSH1 0x20 DUP2 DUP5 SUB SWAP2 ADD MSTORE PUSH2 0x59D JUMP JUMPDEST CALLVALUE PUSH2 0x1DF JUMPI PUSH2 0x60C PUSH2 0x606 CALLDATASIZE PUSH2 0x535 JUMP JUMPDEST SWAP2 PUSH2 0x1F32 JUMP JUMPDEST SWAP1 PUSH2 0x61C PUSH1 0x40 MLOAD SWAP3 DUP4 SWAP3 DUP4 PUSH2 0x5D0 JUMP JUMPDEST SUB SWAP1 RETURN JUMPDEST CALLVALUE PUSH2 0x1DF JUMPI PUSH0 CALLDATASIZE PUSH1 0x3 NOT ADD SLT PUSH2 0x1DF JUMPI PUSH1 0x40 MLOAD PUSH32 0x0 PUSH1 0x1 PUSH1 0x1 PUSH1 0xA0 SHL SUB AND DUP2 MSTORE PUSH1 0x20 SWAP1 RETURN JUMPDEST PUSH1 0x60 SWAP1 PUSH1 0x3 NOT ADD SLT PUSH2 0x1DF JUMPI PUSH1 0x4 CALLDATALOAD PUSH2 0x67C DUP2 PUSH2 0x1CE JUMP JUMPDEST SWAP1 PUSH1 0x24 CALLDATALOAD SWAP1 PUSH1 0x44 CALLDATALOAD SWAP1 JUMP JUMPDEST CALLVALUE PUSH2 0x1DF JUMPI PUSH2 0x695 CALLDATASIZE PUSH2 0x664 JUMP JUMPDEST SWAP1 SWAP2 CALLER PUSH0 MSTORE PUSH1 0x1 PUSH1 0x20 MSTORE PUSH1 0x40 PUSH0 KECCAK256 DUP4 PUSH0 MSTORE PUSH1 0x20 MSTORE PUSH1 0x40 PUSH0 KECCAK256 DUP1 SLOAD SWAP1 DUP4 DUP3 SUB SWAP2 DUP3 GT PUSH2 0x721 JUMPI SSTORE PUSH1 0x1 DUP1 PUSH1 0xA0 SHL SUB AND SWAP1 DUP2 PUSH0 MSTORE PUSH1 0x1 PUSH1 0x20 MSTORE PUSH2 0x6E1 DUP4 PUSH1 0x40 PUSH0 KECCAK256 SWAP1 PUSH0 MSTORE PUSH1 0x20 MSTORE PUSH1 0x40 PUSH0 KECCAK256 SWAP1 JUMP JUMPDEST PUSH2 0x6EC DUP3 DUP3 SLOAD PUSH2 0x2302 JUMP JUMPDEST SWAP1 SSTORE PUSH1 0x40 DUP1 MLOAD CALLER DUP1 DUP3 MSTORE PUSH1 0x20 DUP3 ADD SWAP4 SWAP1 SWAP4 MSTORE PUSH0 MLOAD PUSH1 0x20 PUSH2 0x4051 PUSH0 CODECOPY PUSH0 MLOAD SWAP1 PUSH0 MSTORE SWAP2 DUP2 SWAP1 DUP2 ADD JUMPDEST SUB SWAP1 LOG4 PUSH1 0x40 MLOAD PUSH1 0x1 DUP2 MSTORE PUSH1 0x20 SWAP1 RETURN JUMPDEST PUSH2 0x22D3 JUMP JUMPDEST CALLVALUE PUSH2 0x1DF JUMPI PUSH1 0x20 CALLDATASIZE PUSH1 0x3 NOT ADD SLT PUSH2 0x1DF JUMPI PUSH1 0x4 CALLDATALOAD PUSH0 PUSH1 0x60 PUSH1 0x40 MLOAD PUSH2 0x749 DUP2 PUSH2 0x2A3 JUMP JUMPDEST DUP3 DUP2 MSTORE DUP3 PUSH1 0x20 DUP3 ADD MSTORE DUP3 PUSH1 0x40 DUP3 ADD MSTORE ADD MSTORE PUSH0 MSTORE PUSH1 0x5 PUSH1 0x20 MSTORE PUSH1 0x40 PUSH0 KECCAK256 PUSH1 0x40 MLOAD SWAP1 PUSH2 0x772 DUP3 PUSH2 0x2A3 JUMP JUMPDEST DUP1 SLOAD PUSH1 0x1 PUSH1 0x1 PUSH1 0xA0 SHL SUB SWAP1 DUP2 AND DUP1 DUP5 MSTORE PUSH1 0x1 DUP4 ADD SLOAD DUP3 AND PUSH1 0x20 DUP6 ADD DUP2 SWAP1 MSTORE PUSH1 0x2 SWAP1 SWAP4 ADD SLOAD SWAP2 DUP3 AND PUSH1 0x40 DUP6 ADD DUP2 SWAP1 MSTORE PUSH1 0x48 SWAP3 SWAP1 SWAP3 SHL PUSH1 0x1 PUSH1 0x1 PUSH1 0xE8 SHL SUB NOT AND PUSH1 0x60 SWAP5 SWAP1 SWAP5 ADD DUP5 SWAP1 MSTORE SWAP1 SWAP3 PUSH2 0x61C SWAP2 PUSH2 0x7E9 SWAP1 PUSH2 0x7DB SWAP1 PUSH2 0x7CE SWAP1 DUP2 JUMP JUMPDEST SWAP6 PUSH1 0x1 PUSH1 0x1 PUSH1 0xA0 SHL SUB AND SWAP1 JUMP JUMPDEST SWAP2 PUSH1 0x1 PUSH1 0x1 PUSH1 0xE8 SHL SUB NOT AND SWAP1 JUMP JUMPDEST PUSH1 0x40 DUP1 MLOAD PUSH1 0x1 PUSH1 0x1 PUSH1 0xA0 SHL SUB SWAP6 DUP7 AND DUP2 MSTORE SWAP6 DUP6 AND PUSH1 0x20 DUP8 ADD MSTORE SWAP2 SWAP1 SWAP4 AND SWAP1 DUP5 ADD MSTORE PUSH1 0x1 PUSH1 0x1 PUSH1 0xE8 SHL SUB NOT SWAP1 SWAP2 AND PUSH1 0x60 DUP4 ADD MSTORE DUP2 SWAP1 PUSH1 0x80 DUP3 ADD SWAP1 JUMP JUMPDEST SWAP2 DUP2 PUSH1 0x1F DUP5 ADD SLT ISZERO PUSH2 0x1DF JUMPI DUP3 CALLDATALOAD SWAP2 PUSH1 0x1 PUSH1 0x1 PUSH1 0x40 SHL SUB DUP4 GT PUSH2 0x1DF JUMPI PUSH1 0x20 DUP1 DUP6 ADD SWAP5 DUP5 PUSH1 0x5 SHL ADD ADD GT PUSH2 0x1DF JUMPI JUMP JUMPDEST PUSH1 0x20 PUSH1 0x40 DUP2 DUP4 ADD SWAP3 DUP3 DUP2 MSTORE DUP5 MLOAD DUP1 SWAP5 MSTORE ADD SWAP3 ADD SWAP1 PUSH0 JUMPDEST DUP2 DUP2 LT PUSH2 0x877 JUMPI POP POP POP SWAP1 JUMP JUMPDEST DUP3 MLOAD DUP5 MSTORE PUSH1 0x20 SWAP4 DUP5 ADD SWAP4 SWAP1 SWAP3 ADD SWAP2 PUSH1 0x1 ADD PUSH2 0x86A JUMP JUMPDEST CALLVALUE PUSH2 0x1DF JUMPI PUSH1 0x40 CALLDATASIZE PUSH1 0x3 NOT ADD SLT PUSH2 0x1DF JUMPI PUSH1 0x4 CALLDATALOAD PUSH2 0x8AA DUP2 PUSH2 0x1CE JUMP JUMPDEST PUSH1 0x24 CALLDATALOAD PUSH1 0x1 PUSH1 0x1 PUSH1 0x40 SHL SUB DUP2 GT PUSH2 0x1DF JUMPI PUSH2 0x61C SWAP2 PUSH2 0x8D0 PUSH2 0x8D6 SWAP3 CALLDATASIZE SWAP1 PUSH1 0x4 ADD PUSH2 0x824 JUMP JUMPDEST SWAP2 PUSH2 0x2332 JUMP JUMPDEST PUSH1 0x40 MLOAD SWAP2 DUP3 SWAP2 DUP3 PUSH2 0x854 JUMP JUMPDEST CALLVALUE PUSH2 0x1DF JUMPI PUSH0 CALLDATASIZE PUSH1 0x3 NOT ADD SLT PUSH2 0x1DF JUMPI PUSH1 0x40 MLOAD PUSH32 0x0 PUSH1 0x1 PUSH1 0x1 PUSH1 0xA0 SHL SUB AND DUP2 MSTORE PUSH1 0x20 SWAP1 RETURN JUMPDEST CALLVALUE PUSH2 0x1DF JUMPI PUSH0 CALLDATASIZE PUSH1 0x3 NOT ADD SLT PUSH2 0x1DF JUMPI PUSH1 0x40 MLOAD PUSH32 0x0 PUSH1 0x1 PUSH1 0x1 PUSH1 0xA0 SHL SUB AND DUP2 MSTORE PUSH1 0x20 SWAP1 RETURN JUMPDEST CALLVALUE PUSH2 0x1DF JUMPI PUSH2 0x978 CALLDATASIZE PUSH2 0x664 JUMP JUMPDEST SWAP1 SWAP2 CALLER PUSH0 MSTORE PUSH1 0x2 PUSH1 0x20 MSTORE PUSH2 0x99F DUP2 PUSH1 0x40 PUSH0 KECCAK256 SWAP1 PUSH1 0x1 DUP1 PUSH1 0xA0 SHL SUB AND PUSH0 MSTORE PUSH1 0x20 MSTORE PUSH1 0x40 PUSH0 KECCAK256 SWAP1 JUMP JUMPDEST DUP4 PUSH0 MSTORE PUSH1 0x20 MSTORE DUP2 PUSH1 0x40 PUSH0 KECCAK256 SSTORE PUSH1 0x40 MLOAD SWAP2 DUP3 MSTORE PUSH1 0x1 DUP1 PUSH1 0xA0 SHL SUB AND SWAP1 PUSH32 0xB3FD5071835887567A0671151121894DDCCC2842F1D10BEDAD13E0D17CACE9A7 PUSH1 0x20 CALLER SWAP3 LOG4 PUSH1 0x20 PUSH1 0x40 MLOAD PUSH1 0x1 DUP2 MSTORE RETURN JUMPDEST CALLVALUE PUSH2 0x1DF JUMPI PUSH0 CALLDATASIZE PUSH1 0x3 NOT ADD SLT PUSH2 0x1DF JUMPI PUSH1 0x40 MLOAD PUSH32 0x0 PUSH1 0x1 PUSH1 0x1 PUSH1 0xA0 SHL SUB AND DUP2 MSTORE PUSH1 0x20 SWAP1 RETURN JUMPDEST CALLVALUE PUSH2 0x1DF JUMPI PUSH1 0x40 CALLDATASIZE PUSH1 0x3 NOT ADD SLT PUSH2 0x1DF JUMPI PUSH1 0x4 CALLDATALOAD PUSH2 0xA4C DUP2 PUSH2 0x1CE JUMP JUMPDEST PUSH1 0x24 CALLDATALOAD SWAP1 PUSH2 0xA59 DUP3 PUSH2 0x393 JUMP JUMPDEST CALLER PUSH0 SWAP1 DUP2 MSTORE PUSH1 0x20 DUP2 DUP2 MSTORE PUSH1 0x40 DUP1 DUP4 KECCAK256 PUSH1 0x1 PUSH1 0x1 PUSH1 0xA0 SHL SUB DUP6 AND DUP5 MSTORE SWAP1 SWAP2 MSTORE SWAP1 KECCAK256 SWAP2 ISZERO ISZERO SWAP2 PUSH1 0xFF NOT DUP2 SLOAD AND PUSH1 0xFF DUP5 AND OR SWAP1 SSTORE PUSH1 0x40 MLOAD SWAP2 DUP3 MSTORE PUSH1 0x1 DUP1 PUSH1 0xA0 SHL SUB AND SWAP1 PUSH32 0xCEB576D9F15E4E200FDB5096D64D5DFD667E16DEF20C1EEFD14256D8E3FAA267 PUSH1 0x20 CALLER SWAP3 LOG3 PUSH1 0x40 MLOAD PUSH1 0x1 DUP2 MSTORE PUSH1 0x20 SWAP1 RETURN JUMPDEST CALLVALUE PUSH2 0x1DF JUMPI PUSH1 0x80 CALLDATASIZE PUSH1 0x3 NOT ADD SLT PUSH2 0x1DF JUMPI PUSH1 0x4 CALLDATALOAD PUSH2 0xAE8 DUP2 PUSH2 0x1CE JUMP JUMPDEST PUSH1 0x24 CALLDATALOAD PUSH2 0xAF4 DUP2 PUSH2 0x1CE JUMP JUMPDEST PUSH1 0x44 CALLDATALOAD SWAP2 PUSH2 0xB01 DUP4 PUSH2 0x1CE JUMP JUMPDEST PUSH1 0x64 CALLDATALOAD SWAP2 PUSH2 0xB0E DUP4 PUSH2 0x3A8 JUMP JUMPDEST PUSH2 0xB1E PUSH2 0xB19 PUSH2 0x2C10 JUMP JUMPDEST PUSH2 0x2C53 JUMP JUMPDEST PUSH2 0xB2A DUP4 DUP6 DUP4 DUP6 PUSH2 0x2A9A JUMP JUMPDEST SWAP3 PUSH1 0x1 DUP1 PUSH1 0xA0 SHL SUB PUSH2 0xB57 PUSH1 0x2 PUSH2 0xB49 DUP8 PUSH0 MSTORE PUSH1 0x5 PUSH1 0x20 MSTORE PUSH1 0x40 PUSH0 KECCAK256 SWAP1 JUMP JUMPDEST ADD SLOAD PUSH1 0x1 PUSH1 0x1 PUSH1 0xA0 SHL SUB AND SWAP1 JUMP JUMPDEST AND PUSH2 0xCC9 JUMPI PUSH2 0x61C SWAP5 DUP5 SWAP4 PUSH32 0x68DF9A4EB7AACBE8F43763BFBC9F7CA135A5397190EA1CCE2558DB52DC2F3692 SWAP4 SWAP2 SWAP3 SWAP1 SWAP2 SWAP1 PUSH1 0x1 PUSH1 0x1 PUSH1 0xA0 SHL SUB DUP1 DUP4 AND SWAP1 DUP5 AND LT ISZERO PUSH2 0xCBE JUMPI PUSH2 0xCA1 SWAP2 SWAP4 JUMPDEST PUSH2 0xC65 PUSH2 0xBAE PUSH2 0x2F3 JUMP JUMPDEST PUSH1 0x1 PUSH1 0x1 PUSH1 0xA0 SHL SUB DUP7 AND DUP2 MSTORE PUSH1 0x1 PUSH1 0x1 PUSH1 0xA0 SHL SUB DUP8 AND PUSH1 0x20 DUP3 ADD MSTORE PUSH1 0x1 PUSH1 0x1 PUSH1 0xA0 SHL SUB DUP4 AND PUSH1 0x40 DUP3 ADD MSTORE PUSH1 0x1 PUSH1 0x1 PUSH1 0xE8 SHL SUB NOT DUP5 AND PUSH1 0x60 DUP3 ADD MSTORE PUSH2 0xBFA DUP10 PUSH0 MSTORE PUSH1 0x5 PUSH1 0x20 MSTORE PUSH1 0x40 PUSH0 KECCAK256 SWAP1 JUMP JUMPDEST DUP2 MLOAD DUP2 SLOAD PUSH1 0x1 PUSH1 0x1 PUSH1 0xA0 SHL SUB NOT SWAP1 DUP2 AND PUSH1 0x1 PUSH1 0x1 PUSH1 0xA0 SHL SUB SWAP3 DUP4 AND OR DUP4 SSTORE PUSH1 0x20 DUP5 ADD MLOAD PUSH1 0x1 DUP5 ADD DUP1 SLOAD SWAP1 SWAP3 AND SWAP1 DUP4 AND OR SWAP1 SSTORE PUSH1 0x40 DUP4 ADD MLOAD PUSH1 0x2 SWAP1 SWAP3 ADD DUP1 SLOAD PUSH1 0x60 SWAP1 SWAP5 ADD MLOAD SWAP3 SWAP1 SWAP2 AND PUSH1 0x1 PUSH1 0x1 PUSH1 0xB8 SHL SUB NOT SWAP1 SWAP4 AND SWAP3 SWAP1 SWAP3 OR PUSH1 0x48 SWAP2 SWAP1 SWAP2 SHR PUSH3 0xFFFFFF PUSH1 0xA0 SHL AND OR SWAP1 SSTORE JUMP JUMPDEST PUSH1 0x40 DUP1 MLOAD PUSH1 0x1 PUSH1 0x1 PUSH1 0xA0 SHL SUB SWAP6 DUP7 AND DUP2 MSTORE SWAP6 DUP6 AND PUSH1 0x20 DUP8 ADD MSTORE SWAP4 AND SWAP3 DUP5 ADD SWAP3 SWAP1 SWAP3 MSTORE PUSH1 0x1 PUSH1 0x1 PUSH1 0xE8 SHL SUB NOT SWAP1 SWAP2 AND PUSH1 0x60 DUP4 ADD MSTORE DUP2 SWAP1 PUSH1 0x80 DUP3 ADD SWAP1 JUMP JUMPDEST SUB SWAP1 LOG2 PUSH0 PUSH2 0xCAD PUSH2 0x2C10 JUMP JUMPDEST TSTORE PUSH1 0x40 MLOAD SWAP1 DUP2 MSTORE SWAP1 DUP2 SWAP1 PUSH1 0x20 DUP3 ADD SWAP1 JUMP JUMPDEST PUSH2 0xCA1 SWAP2 SWAP3 SWAP4 PUSH2 0xBA3 JUMP JUMPDEST PUSH4 0xE1ECC133 PUSH1 0xE0 SHL PUSH0 MSTORE PUSH1 0x4 DUP5 SWAP1 MSTORE PUSH1 0x24 PUSH0 REVERT JUMPDEST CALLVALUE PUSH2 0x1DF JUMPI PUSH1 0x60 CALLDATASIZE PUSH1 0x3 NOT ADD SLT PUSH2 0x1DF JUMPI PUSH1 0x4 CALLDATALOAD PUSH2 0xCFA DUP2 PUSH2 0x1CE JUMP JUMPDEST PUSH2 0xD35 PUSH1 0x24 CALLDATALOAD PUSH2 0xD09 DUP2 PUSH2 0x1CE JUMP JUMPDEST PUSH1 0x44 CALLDATALOAD SWAP3 PUSH1 0x1 DUP1 PUSH1 0xA0 SHL SUB AND PUSH0 MSTORE PUSH1 0x2 PUSH1 0x20 MSTORE PUSH1 0x40 PUSH0 KECCAK256 SWAP1 PUSH1 0x1 DUP1 PUSH1 0xA0 SHL SUB AND PUSH0 MSTORE PUSH1 0x20 MSTORE PUSH1 0x40 PUSH0 KECCAK256 SWAP1 JUMP JUMPDEST SWAP1 PUSH0 MSTORE PUSH1 0x20 MSTORE PUSH1 0x20 PUSH1 0x40 PUSH0 KECCAK256 SLOAD PUSH1 0x40 MLOAD SWAP1 DUP2 MSTORE RETURN JUMPDEST CALLVALUE PUSH2 0x1DF JUMPI PUSH1 0x20 CALLDATASIZE PUSH1 0x3 NOT ADD SLT PUSH2 0x1DF JUMPI PUSH1 0x40 PUSH1 0x1 PUSH1 0x1 PUSH1 0x80 SHL SUB PUSH2 0xD89 PUSH1 0x4 CALLDATALOAD PUSH0 MSTORE PUSH1 0x4 PUSH1 0x20 MSTORE PUSH1 0x40 PUSH0 KECCAK256 SLOAD SWAP1 PUSH1 0x1 PUSH1 0x1 PUSH1 0x80 SHL SUB DUP3 AND SWAP2 PUSH1 0x80 SHR SWAP1 JUMP JUMPDEST DUP4 MLOAD SWAP2 DUP4 AND DUP3 MSTORE SWAP1 SWAP2 AND PUSH1 0x20 DUP3 ADD MSTORE RETURN JUMPDEST SWAP1 PUSH1 0x60 PUSH1 0x3 NOT DUP4 ADD SLT PUSH2 0x1DF JUMPI PUSH1 0x4 CALLDATALOAD PUSH2 0xDB3 DUP2 PUSH2 0x1CE JUMP JUMPDEST SWAP2 PUSH1 0x24 CALLDATALOAD SWAP2 PUSH1 0x1 PUSH1 0x1 PUSH1 0x40 SHL SUB DUP4 GT PUSH2 0x1DF JUMPI DUP2 PUSH1 0x23 DUP5 ADD SLT ISZERO PUSH2 0x1DF JUMPI DUP3 PUSH1 0x4 ADD CALLDATALOAD SWAP3 PUSH1 0x1 PUSH1 0x1 PUSH1 0x40 SHL SUB DUP5 GT PUSH2 0x1DF JUMPI DUP3 PUSH1 0x24 DUP6 DUP4 ADD ADD GT PUSH2 0x1DF JUMPI PUSH1 0x24 ADD SWAP3 SWAP2 PUSH1 0x44 CALLDATALOAD SWAP1 PUSH1 0x1 PUSH1 0x1 PUSH1 0x40 SHL SUB DUP3 GT PUSH2 0x1DF JUMPI PUSH2 0xE14 SWAP2 PUSH1 0x4 ADD PUSH2 0x824 JUMP JUMPDEST SWAP1 SWAP2 JUMP JUMPDEST PUSH2 0xE21 CALLDATASIZE PUSH2 0xD9A JUMP JUMPDEST SWAP4 SWAP2 PUSH2 0xE2B PUSH2 0x2C5F JUMP JUMPDEST SWAP3 PUSH2 0xE35 DUP5 PUSH2 0x2C53 JUMP JUMPDEST PUSH1 0x1 PUSH2 0xE41 CALLER ADDRESS PUSH2 0x34C4 JUMP JUMPDEST TSTORE PUSH2 0xE4B CALLER PUSH2 0x2CC8 JUMP JUMPDEST PUSH1 0x1 PUSH1 0x1 PUSH1 0xA0 SHL SUB AND SWAP4 DUP5 EXTCODESIZE ISZERO PUSH2 0x1DF JUMPI PUSH1 0x40 MLOAD PUSH4 0x1C6E7247 PUSH1 0xE3 SHL DUP2 MSTORE SWAP2 PUSH0 SWAP2 DUP4 SWAP2 PUSH2 0xE7B SWAP2 PUSH1 0x4 DUP5 ADD PUSH2 0x23A8 JUMP JUMPDEST SWAP6 DUP2 DUP4 DUP2 DUP2 SWAP10 SUB SWAP3 GAS CALL DUP1 ISZERO PUSH2 0xEDF JUMPI PUSH2 0xEC1 JUMPI JUMPDEST POP DUP3 SWAP4 PUSH2 0xEA3 PUSH2 0xEA9 SWAP3 CALLVALUE SWAP3 CALLDATASIZE SWAP2 PUSH2 0x23CF JUMP JUMPDEST CALLER PUSH2 0x2DA6 JUMP JUMPDEST PUSH2 0xEB1 PUSH2 0x2E3E JUMP JUMPDEST PUSH0 PUSH2 0xEBC CALLER ADDRESS PUSH2 0x34C4 JUMP JUMPDEST TSTORE TSTORE DUP1 RETURN JUMPDEST PUSH2 0xEA9 SWAP2 SWAP4 POP SWAP4 PUSH2 0xED5 PUSH0 PUSH2 0xEA3 SWAP7 PUSH2 0x2C3 JUMP JUMPDEST PUSH0 SWAP4 SWAP2 POP SWAP4 PUSH2 0xE90 JUMP JUMPDEST PUSH2 0x1F27 JUMP JUMPDEST PUSH1 0x60 PUSH1 0x3 NOT DUP3 ADD SLT PUSH2 0x1DF JUMPI PUSH1 0x4 CALLDATALOAD SWAP1 PUSH1 0x1 PUSH1 0x1 PUSH1 0x40 SHL SUB DUP3 GT PUSH2 0x1DF JUMPI PUSH2 0xF0E SWAP2 PUSH1 0x4 ADD PUSH2 0x42B JUMP JUMPDEST SWAP1 PUSH1 0x24 CALLDATALOAD PUSH1 0x1 PUSH1 0x1 PUSH1 0x80 SHL SUB DUP2 AND DUP2 SUB PUSH2 0x1DF JUMPI SWAP1 PUSH1 0x44 CALLDATALOAD PUSH1 0x1 PUSH1 0x1 PUSH1 0x80 SHL SUB DUP2 AND DUP2 SUB PUSH2 0x1DF JUMPI SWAP1 JUMP JUMPDEST CALLVALUE PUSH2 0x1DF JUMPI PUSH2 0xF50 PUSH2 0xF4A CALLDATASIZE PUSH2 0xEE4 JUMP JUMPDEST SWAP2 PUSH2 0x24CD JUMP JUMPDEST PUSH1 0x40 DUP1 MLOAD SWAP3 DUP4 MSTORE PUSH1 0x20 DUP4 ADD SWAP2 SWAP1 SWAP2 MSTORE SWAP1 RETURN JUMPDEST PUSH1 0x60 CALLDATASIZE PUSH1 0x3 NOT ADD SLT PUSH2 0x1DF JUMPI PUSH1 0x4 CALLDATALOAD PUSH1 0x1 PUSH1 0x1 PUSH1 0x40 SHL SUB DUP2 GT PUSH2 0x1DF JUMPI PUSH2 0xF8D SWAP1 CALLDATASIZE SWAP1 PUSH1 0x4 ADD PUSH2 0x824 JUMP JUMPDEST PUSH1 0x44 CALLDATALOAD SWAP2 PUSH1 0x24 CALLDATALOAD PUSH2 0xF9F PUSH2 0xB19 PUSH2 0x2C10 JUMP JUMPDEST PUSH2 0xFA7 PUSH2 0x2F0F JUMP JUMPDEST SWAP1 PUSH1 0x1 PUSH1 0x1 PUSH1 0xA0 SHL SUB DUP3 AND ISZERO PUSH2 0x110B JUMPI JUMPDEST PUSH2 0xFC5 DUP5 SWAP4 SWAP5 ISZERO ISZERO PUSH2 0x2F59 JUMP JUMPDEST SWAP3 PUSH0 SWAP3 PUSH0 SWAP2 PUSH0 SWAP2 JUMPDEST DUP1 DUP4 LT PUSH2 0x1032 JUMPI POP PUSH2 0xFEB SWAP2 POP PUSH2 0xFE6 SWAP1 POP DUP4 ADDRESS PUSH2 0x34C4 JUMP JUMPDEST TLOAD ISZERO SWAP1 JUMP JUMPDEST PUSH2 0x101F JUMPI JUMPDEST POP POP POP DUP2 DUP2 LT PUSH2 0x1007 JUMPI PUSH2 0x61C SWAP1 PUSH0 PUSH2 0xCAD PUSH2 0x2C10 JUMP JUMPDEST PUSH4 0xD438755D PUSH1 0xE0 SHL PUSH0 MSTORE PUSH1 0x4 SWAP2 SWAP1 SWAP2 MSTORE PUSH1 0x24 MSTORE PUSH1 0x44 PUSH0 REVERT JUMPDEST PUSH2 0x102A SWAP3 CALLVALUE SWAP3 PUSH2 0x3115 JUMP JUMPDEST PUSH0 DUP1 DUP1 PUSH2 0xFF0 JUMP JUMPDEST SWAP1 SWAP2 SWAP6 PUSH2 0x1040 DUP8 DUP4 DUP6 PUSH2 0x2F8F JUMP JUMPDEST SWAP1 DUP8 ISZERO DUP1 SWAP2 PUSH2 0x104E DUP6 PUSH2 0x22E7 JUMP JUMPDEST DUP11 EQ SWAP3 PUSH2 0x10CE JUMPI JUMPDEST SWAP1 DUP3 SWAP2 DUP9 SWAP4 PUSH2 0x108B JUMPI JUMPDEST SWAP2 PUSH2 0x107B SWAP4 SWAP2 PUSH1 0x1 SWAP6 SWAP4 DUP2 PUSH0 EQ PUSH2 0x1084 JUMPI CALLVALUE SWAP1 JUMPDEST ADDRESS SWAP6 PUSH2 0x3796 JUMP JUMPDEST SWAP7 ADD SWAP2 SWAP1 PUSH2 0xFCD JUMP JUMPDEST PUSH0 SWAP1 PUSH2 0x1074 JUMP JUMPDEST SWAP7 POP SWAP2 DUP4 SWAP2 PUSH2 0x107B SWAP4 PUSH2 0x10A2 PUSH1 0xA0 PUSH1 0x1 SWAP8 ADD PUSH2 0x2FB1 JUMP JUMPDEST ISZERO PUSH2 0x10C0 JUMPI PUSH2 0x10B3 PUSH1 0x20 DUP6 ADD PUSH2 0x2328 JUMP JUMPDEST SWAP9 SWAP2 SWAP4 SWAP6 POP SWAP2 SWAP4 POP PUSH2 0x1060 JUMP JUMPDEST PUSH2 0x10C9 DUP5 PUSH2 0x2328 JUMP JUMPDEST PUSH2 0x10B3 JUMP JUMPDEST DUP3 SWAP9 POP SWAP1 DUP8 SWAP3 SWAP2 PUSH2 0x10E1 PUSH1 0xA0 DUP7 ADD PUSH2 0x2FB1 JUMP JUMPDEST ISZERO PUSH2 0x10FA JUMPI PUSH2 0x10EF DUP6 PUSH2 0x2328 JUMP JUMPDEST SWAP10 POP SWAP1 SWAP2 SWAP3 POP PUSH2 0x1056 JUMP JUMPDEST PUSH2 0x1106 PUSH1 0x20 DUP7 ADD PUSH2 0x2328 JUMP JUMPDEST PUSH2 0x10EF JUMP JUMPDEST CALLER SWAP2 POP PUSH2 0xFB8 JUMP JUMPDEST CALLVALUE PUSH2 0x1DF JUMPI PUSH1 0x20 CALLDATASIZE PUSH1 0x3 NOT ADD SLT PUSH2 0x1DF JUMPI PUSH1 0x4 CALLDATALOAD PUSH0 MSTORE PUSH1 0x3 PUSH1 0x20 MSTORE PUSH1 0x20 PUSH1 0x40 PUSH0 KECCAK256 SLOAD PUSH1 0x40 MLOAD SWAP1 DUP2 MSTORE RETURN JUMPDEST CALLVALUE PUSH2 0x1DF JUMPI PUSH1 0x40 CALLDATASIZE PUSH1 0x3 NOT ADD SLT PUSH2 0x1DF JUMPI PUSH1 0x20 PUSH1 0xFF PUSH2 0x1194 PUSH1 0x4 CALLDATALOAD PUSH2 0x1161 DUP2 PUSH2 0x1CE JUMP JUMPDEST PUSH1 0x24 CALLDATALOAD SWAP1 PUSH2 0x116E DUP3 PUSH2 0x1CE JUMP JUMPDEST PUSH1 0x1 DUP1 PUSH1 0xA0 SHL SUB AND PUSH0 MSTORE PUSH0 DUP5 MSTORE PUSH1 0x40 PUSH0 KECCAK256 SWAP1 PUSH1 0x1 DUP1 PUSH1 0xA0 SHL SUB AND PUSH0 MSTORE PUSH1 0x20 MSTORE PUSH1 0x40 PUSH0 KECCAK256 SWAP1 JUMP JUMPDEST SLOAD AND PUSH1 0x40 MLOAD SWAP1 ISZERO ISZERO DUP2 MSTORE RETURN JUMPDEST CALLVALUE PUSH2 0x1DF JUMPI PUSH1 0xA0 CALLDATASIZE PUSH1 0x3 NOT ADD SLT PUSH2 0x1DF JUMPI PUSH1 0x4 CALLDATALOAD PUSH2 0x11BD DUP2 PUSH2 0x1CE JUMP JUMPDEST PUSH1 0x1 PUSH1 0x1 PUSH1 0x80 SHL SUB PUSH1 0x24 CALLDATALOAD PUSH2 0x11D1 DUP2 PUSH2 0x1CE JUMP JUMPDEST PUSH1 0x44 CALLDATALOAD SWAP3 PUSH2 0x11DE DUP5 PUSH2 0x1CE JUMP JUMPDEST PUSH2 0x120E PUSH1 0x64 CALLDATALOAD PUSH2 0x11ED DUP2 PUSH2 0x3A8 JUMP JUMPDEST PUSH1 0x84 CALLDATALOAD SWAP6 PUSH2 0x11FC PUSH2 0xB19 PUSH2 0x2C10 JUMP JUMPDEST PUSH2 0x1207 DUP8 ISZERO ISZERO PUSH2 0x2785 JUMP JUMPDEST DUP5 DUP5 PUSH2 0x2A9A JUMP JUMPDEST SWAP4 PUSH2 0x1297 PUSH2 0x1285 DUP6 PUSH2 0x127D PUSH2 0x1264 PUSH2 0x123E DUP11 PUSH0 MSTORE PUSH1 0x4 PUSH1 0x20 MSTORE PUSH1 0x40 PUSH0 KECCAK256 SLOAD SWAP1 PUSH1 0x1 PUSH1 0x1 PUSH1 0x80 SHL SUB DUP3 AND SWAP2 PUSH1 0x80 SHR SWAP1 JUMP JUMPDEST SWAP10 SWAP1 PUSH2 0x125D PUSH2 0x1255 DUP14 PUSH0 MSTORE PUSH1 0x3 PUSH1 0x20 MSTORE PUSH1 0x40 PUSH0 KECCAK256 SWAP1 JUMP JUMPDEST SLOAD ISZERO ISZERO PUSH2 0x27D1 JUMP JUMPDEST AND DUP7 PUSH2 0x285C JUMP JUMPDEST PUSH2 0x1276 DUP11 PUSH0 MSTORE PUSH1 0x3 PUSH1 0x20 MSTORE PUSH1 0x40 PUSH0 KECCAK256 SWAP1 JUMP JUMPDEST SLOAD SWAP1 PUSH2 0x286F JUMP JUMPDEST SWAP7 AND DUP4 PUSH2 0x285C JUMP JUMPDEST PUSH2 0x1276 DUP8 PUSH0 MSTORE PUSH1 0x3 PUSH1 0x20 MSTORE PUSH1 0x40 PUSH0 KECCAK256 SWAP1 JUMP JUMPDEST SWAP5 DUP5 ISZERO DUP1 PUSH2 0x140A JUMPI JUMPDEST PUSH2 0x13F1 JUMPI PUSH2 0x12AC PUSH2 0x2F0F JUMP JUMPDEST SWAP1 PUSH1 0x1 PUSH1 0x1 PUSH1 0xA0 SHL SUB DUP3 AND ISZERO PUSH2 0x13E9 JUMPI JUMPDEST DUP3 PUSH2 0x12CD DUP4 SWAP5 DUP4 PUSH2 0x131C SWAP6 PUSH2 0x2FBB JUMP JUMPDEST PUSH2 0x12EA PUSH2 0x12E2 DUP4 PUSH0 MSTORE PUSH1 0x3 PUSH1 0x20 MSTORE PUSH1 0x40 PUSH0 KECCAK256 SWAP1 JUMP JUMPDEST SWAP2 DUP3 SLOAD PUSH2 0x22F5 JUMP JUMPDEST SWAP1 SSTORE PUSH2 0x1301 PUSH1 0x1 PUSH1 0x1 PUSH1 0x80 SHL SUB DUP8 AND PUSH1 0xF SIGNEXTEND PUSH2 0x288D JUMP JUMPDEST PUSH2 0x1316 PUSH1 0x1 PUSH1 0x1 PUSH1 0x80 SHL SUB DUP10 AND PUSH1 0xF SIGNEXTEND PUSH2 0x288D JUMP JUMPDEST SWAP2 PUSH2 0x303A JUMP JUMPDEST PUSH1 0x1 PUSH1 0x1 PUSH1 0xA0 SHL SUB DUP4 DUP2 AND SWAP1 DUP4 AND LT SWAP2 PUSH2 0x135D SWAP1 DUP4 ISZERO PUSH2 0x13DD JUMPI PUSH2 0x1356 DUP7 SWAP6 DUP9 SWAP3 JUMPDEST DUP7 ISZERO PUSH2 0x13D6 JUMPI DUP1 SWAP7 JUMPDEST ISZERO PUSH2 0x13CE JUMPI POP SWAP6 JUMPDEST DUP6 DUP6 PUSH2 0x3090 JUMP JUMPDEST DUP5 DUP4 PUSH2 0x3090 JUMP JUMPDEST PUSH2 0x136A PUSH2 0xFE6 DUP3 ADDRESS PUSH2 0x34C4 JUMP JUMPDEST PUSH2 0x138D JUMPI JUMPDEST POP POP POP PUSH0 PUSH2 0x137B PUSH2 0x2C10 JUMP JUMPDEST TSTORE PUSH1 0x40 DUP1 MLOAD SWAP2 DUP3 MSTORE PUSH1 0x20 DUP3 ADD SWAP3 SWAP1 SWAP3 MSTORE RETURN JUMPDEST PUSH2 0x13C1 PUSH2 0x13C6 SWAP4 PUSH2 0x13B8 PUSH2 0x139F PUSH2 0x28AD JUMP JUMPDEST SWAP5 PUSH2 0x13A9 DUP7 PUSH2 0x1CDC JUMP JUMPDEST PUSH1 0x1 PUSH1 0x1 PUSH1 0xA0 SHL SUB SWAP1 SWAP2 AND SWAP1 MSTORE JUMP JUMPDEST PUSH2 0x13A9 DUP5 PUSH2 0x1CEE JUMP JUMPDEST PUSH2 0x2D11 JUMP JUMPDEST PUSH0 DUP1 DUP1 PUSH2 0x136F JUMP JUMPDEST SWAP1 POP SWAP6 PUSH2 0x134F JUMP JUMPDEST DUP2 SWAP7 PUSH2 0x1347 JUMP JUMPDEST PUSH2 0x1356 DUP8 SWAP6 DUP8 SWAP3 PUSH2 0x133E JUMP JUMPDEST CALLER SWAP2 POP PUSH2 0x12BD JUMP JUMPDEST PUSH4 0xD5DE6205 PUSH1 0xE0 SHL PUSH0 MSTORE PUSH1 0x4 DUP6 SWAP1 MSTORE PUSH1 0x24 DUP7 SWAP1 MSTORE PUSH1 0x44 PUSH0 REVERT JUMPDEST POP DUP6 ISZERO PUSH2 0x12A0 JUMP JUMPDEST PUSH1 0xE0 CALLDATASIZE PUSH1 0x3 NOT ADD SLT PUSH2 0x1DF JUMPI PUSH1 0x4 CALLDATALOAD PUSH2 0x142A DUP2 PUSH2 0x1CE JUMP JUMPDEST PUSH1 0x24 CALLDATALOAD SWAP1 PUSH2 0x1437 DUP3 PUSH2 0x1CE JUMP JUMPDEST PUSH1 0x44 CALLDATALOAD SWAP1 PUSH2 0x1444 DUP3 PUSH2 0x1CE JUMP JUMPDEST PUSH1 0x64 CALLDATALOAD PUSH2 0x1450 DUP2 PUSH2 0x3A8 JUMP JUMPDEST PUSH1 0x84 CALLDATALOAD PUSH1 0xA4 CALLDATALOAD SWAP3 PUSH2 0x1460 DUP5 PUSH2 0x393 JUMP JUMPDEST PUSH1 0xC4 CALLDATALOAD SWAP3 PUSH2 0x146F PUSH2 0xB19 PUSH2 0x2C10 JUMP JUMPDEST PUSH2 0x1477 PUSH2 0x2F0F JUMP JUMPDEST SWAP4 PUSH1 0x1 PUSH1 0x1 PUSH1 0xA0 SHL SUB DUP6 AND ISZERO PUSH2 0x1676 JUMPI JUMPDEST PUSH2 0x1494 DUP3 DUP9 DUP11 DUP7 PUSH2 0x2A9A JUMP JUMPDEST SWAP2 DUP9 PUSH2 0x14B8 DUP5 PUSH0 MSTORE PUSH1 0x4 PUSH1 0x20 MSTORE PUSH1 0x40 PUSH0 KECCAK256 SLOAD SWAP1 PUSH1 0x1 PUSH1 0x1 PUSH1 0x80 SHL SUB DUP3 AND SWAP2 PUSH1 0x80 SHR SWAP1 JUMP JUMPDEST SWAP10 SWAP1 DUP1 SWAP4 DUP12 SWAP3 DUP10 PUSH2 0x14C7 PUSH2 0x1C74 JUMP JUMPDEST PUSH2 0x14CF PUSH2 0x1C74 JUMP JUMPDEST SWAP3 PUSH2 0x14D8 PUSH2 0x2E4 JUMP JUMPDEST PUSH1 0x1 PUSH1 0x1 PUSH1 0xA0 SHL SUB DUP14 AND DUP2 MSTORE SWAP8 PUSH1 0x1 PUSH1 0x1 PUSH1 0xA0 SHL SUB AND PUSH1 0x20 DUP10 ADD MSTORE PUSH1 0x1 PUSH1 0x1 PUSH1 0xA0 SHL SUB AND PUSH1 0x40 DUP9 ADD MSTORE PUSH1 0x60 DUP8 ADD SWAP1 DUP2 MSTORE DUP14 ISZERO ISZERO PUSH1 0x80 DUP9 ADD MSTORE PUSH1 0xA0 DUP8 ADD SWAP3 DUP4 MSTORE MLOAD PUSH2 0x1521 SWAP1 PUSH2 0x1CDC JUMP JUMPDEST MSTORE MLOAD PUSH2 0x152C SWAP1 PUSH2 0x1CDC JUMP JUMPDEST PUSH1 0x1 PUSH1 0x1 PUSH1 0xE8 SHL SUB NOT SWAP1 SWAP2 AND SWAP1 MSTORE PUSH2 0x1543 SWAP3 PUSH2 0x24CD JUMP JUMPDEST POP SWAP8 DUP9 ISZERO PUSH2 0x1667 JUMPI DUP9 DUP9 SWAP2 PUSH2 0x1557 SWAP4 PUSH2 0x30A3 JUMP JUMPDEST DUP1 DUP8 LT PUSH2 0x1650 JUMPI POP PUSH2 0x61C SWAP7 PUSH2 0x15D0 SWAP3 PUSH2 0x15C9 SWAP3 PUSH2 0x15B4 SWAP1 PUSH1 0x1 PUSH1 0x1 PUSH1 0xA0 SHL SUB DUP1 DUP6 AND SWAP1 DUP5 AND LT ISZERO PUSH2 0x1649 JUMPI DUP9 JUMPDEST DUP1 ISZERO PUSH2 0x162E JUMPI PUSH1 0x1 PUSH1 0x1 PUSH1 0x80 SHL SUB DUP9 AND PUSH1 0xF SIGNEXTEND SWAP1 JUMPDEST ISZERO PUSH2 0x161B JUMPI PUSH2 0x1316 PUSH1 0x1 PUSH1 0x1 PUSH1 0x80 SHL SUB DUP13 AND PUSH1 0xF SIGNEXTEND PUSH2 0x288D JUMP JUMPDEST DUP7 ISZERO PUSH2 0x1614 JUMPI DUP1 SWAP7 JUMPDEST ISZERO PUSH2 0x160C JUMPI POP SWAP3 PUSH2 0x28CF JUMP JUMPDEST DUP5 DUP5 PUSH2 0x3090 JUMP JUMPDEST PUSH2 0x15DB DUP5 DUP3 DUP5 PUSH2 0x3090 JUMP JUMPDEST PUSH2 0x15E8 PUSH2 0xFE6 DUP4 ADDRESS PUSH2 0x34C4 JUMP JUMPDEST PUSH2 0x15F9 JUMPI JUMPDEST POP POP POP PUSH0 PUSH2 0xCAD PUSH2 0x2C10 JUMP JUMPDEST PUSH2 0x1604 SWAP3 CALLVALUE SWAP3 PUSH2 0x3115 JUMP JUMPDEST PUSH0 DUP1 DUP1 PUSH2 0x15ED JUMP JUMPDEST SWAP1 POP SWAP3 PUSH2 0x28CF JUMP JUMPDEST DUP2 SWAP7 PUSH2 0x15BD JUMP JUMPDEST PUSH1 0x1 PUSH1 0x1 PUSH1 0x80 SHL SUB DUP9 AND PUSH1 0xF SIGNEXTEND SWAP2 PUSH2 0x303A JUMP JUMPDEST PUSH2 0x1643 PUSH1 0x1 PUSH1 0x1 PUSH1 0x80 SHL SUB DUP13 AND PUSH1 0xF SIGNEXTEND PUSH2 0x288D JUMP JUMPDEST SWAP1 PUSH2 0x159A JUMP JUMPDEST DUP9 ISZERO PUSH2 0x1585 JUMP JUMPDEST PUSH4 0xD438755D PUSH1 0xE0 SHL PUSH0 MSTORE PUSH1 0x4 MSTORE PUSH1 0x24 DUP7 SWAP1 MSTORE PUSH1 0x44 PUSH0 REVERT JUMPDEST PUSH4 0x14033F21 PUSH1 0xE1 SHL PUSH0 MSTORE PUSH1 0x4 PUSH0 REVERT JUMPDEST CALLER SWAP5 POP PUSH2 0x1488 JUMP JUMPDEST PUSH1 0xC0 CALLDATASIZE PUSH1 0x3 NOT ADD SLT PUSH2 0x1DF JUMPI PUSH1 0x4 CALLDATALOAD PUSH2 0x1696 DUP2 PUSH2 0x1CE JUMP JUMPDEST PUSH1 0x24 CALLDATALOAD PUSH2 0x16A2 DUP2 PUSH2 0x1CE JUMP JUMPDEST PUSH1 0x44 CALLDATALOAD SWAP2 PUSH2 0x16AF DUP4 PUSH2 0x1CE JUMP JUMPDEST PUSH1 0x64 CALLDATALOAD PUSH2 0x16BB DUP2 PUSH2 0x3A8 JUMP JUMPDEST PUSH1 0xA4 CALLDATALOAD SWAP3 PUSH1 0x84 CALLDATALOAD PUSH2 0x16CD PUSH2 0xB19 PUSH2 0x2C10 JUMP JUMPDEST PUSH2 0x16D9 DUP4 DUP8 DUP5 DUP8 PUSH2 0x2A9A JUMP JUMPDEST PUSH1 0x1 PUSH1 0x1 PUSH1 0xA0 SHL SUB DUP4 DUP2 AND SWAP1 DUP7 AND LT SWAP5 SWAP1 SWAP2 SWAP1 DUP6 ISZERO PUSH2 0x190B JUMPI SWAP3 SWAP5 JUMPDEST ISZERO PUSH2 0x1905 JUMPI SWAP5 SWAP3 JUMPDEST PUSH0 DUP3 DUP2 MSTORE PUSH1 0x4 PUSH1 0x20 MSTORE PUSH1 0x40 SWAP1 KECCAK256 SLOAD PUSH1 0x1 PUSH1 0x1 PUSH1 0x80 SHL SUB DUP2 AND SWAP1 PUSH1 0x80 SHR SWAP2 SWAP1 SWAP8 PUSH2 0x172E DUP5 PUSH0 MSTORE PUSH1 0x3 PUSH1 0x20 MSTORE PUSH1 0x40 PUSH0 KECCAK256 SWAP1 JUMP JUMPDEST SLOAD PUSH2 0x184C JUMPI POP POP PUSH2 0x61C SWAP7 DUP3 PUSH2 0x176B SWAP3 DUP9 ISZERO ISZERO DUP1 PUSH2 0x1843 JUMPI JUMPDEST PUSH2 0x1750 SWAP1 PUSH2 0x28DF JUMP JUMPDEST PUSH2 0x1762 DUP8 PUSH2 0x175D DUP12 PUSH2 0x2814 JUMP JUMPDEST PUSH2 0x286F JUMP JUMPDEST SWAP3 JUMPDEST DUP8 DUP11 PUSH2 0x3282 JUMP JUMPDEST SWAP5 PUSH2 0x1774 PUSH2 0x2F0F JUMP JUMPDEST SWAP4 PUSH1 0x1 PUSH1 0x1 PUSH1 0xA0 SHL SUB DUP6 AND ISZERO PUSH2 0x183B JUMPI JUMPDEST DUP2 PUSH1 0x1 PUSH1 0x1 PUSH1 0x80 SHL SUB DUP1 PUSH2 0x17CC SWAP4 PUSH2 0x17AA PUSH2 0x17A3 PUSH2 0x17E5 SWAP9 SWAP8 PUSH2 0x28CF JUMP JUMPDEST DUP10 DUP12 PUSH2 0x3090 JUMP JUMPDEST PUSH2 0x17BD PUSH2 0x17B6 DUP3 PUSH2 0x28CF JUMP JUMPDEST DUP12 DUP12 PUSH2 0x3090 JUMP JUMPDEST AND PUSH1 0xF SIGNEXTEND SWAP2 AND PUSH1 0xF SIGNEXTEND DUP4 PUSH2 0x303A JUMP JUMPDEST PUSH2 0x17D7 DUP7 DUP3 DUP7 PUSH2 0x334F JUMP JUMPDEST PUSH0 MSTORE PUSH1 0x3 PUSH1 0x20 MSTORE PUSH1 0x40 PUSH0 KECCAK256 SWAP1 JUMP JUMPDEST PUSH2 0x17F0 DUP6 DUP3 SLOAD PUSH2 0x2302 JUMP JUMPDEST SWAP1 SSTORE PUSH2 0x17FF PUSH2 0xFE6 DUP4 ADDRESS PUSH2 0x34C4 JUMP JUMPDEST PUSH2 0x180F JUMPI POP POP POP PUSH0 PUSH2 0xCAD PUSH2 0x2C10 JUMP JUMPDEST PUSH2 0x1834 PUSH2 0x1604 SWAP4 PUSH2 0x182B PUSH2 0x1821 PUSH2 0x28AD JUMP JUMPDEST SWAP4 PUSH2 0x13A9 DUP6 PUSH2 0x1CDC JUMP JUMPDEST PUSH2 0x13A9 DUP4 PUSH2 0x1CEE JUMP JUMPDEST CALLVALUE SWAP2 PUSH2 0x2DA6 JUMP JUMPDEST CALLER SWAP5 POP PUSH2 0x1785 JUMP JUMPDEST POP DUP7 ISZERO ISZERO PUSH2 0x1747 JUMP JUMPDEST DUP9 DUP6 PUSH2 0x18E9 PUSH2 0x18EE SWAP5 PUSH2 0x18D9 DUP12 PUSH8 0xDE0B6B3A7640000 PUSH2 0x18D2 DUP11 SWAP9 PUSH2 0x18B9 PUSH2 0x1872 PUSH2 0x1C74 JUMP JUMPDEST SWAP2 PUSH2 0x18A9 PUSH2 0x187E PUSH2 0x1C74 JUMP JUMPDEST SWAP7 PUSH2 0x1899 PUSH2 0x188A PUSH2 0x2E4 JUMP JUMPDEST PUSH1 0x1 PUSH1 0x1 PUSH1 0xA0 SHL SUB SWAP1 SWAP14 AND DUP14 MSTORE JUMP JUMPDEST PUSH1 0x1 PUSH1 0x1 PUSH1 0xA0 SHL SUB AND PUSH1 0x20 DUP13 ADD MSTORE JUMP JUMPDEST PUSH1 0x1 PUSH1 0x1 PUSH1 0xA0 SHL SUB AND PUSH1 0x40 DUP11 ADD MSTORE JUMP JUMPDEST PUSH1 0x60 DUP9 ADD DUP2 SWAP1 MSTORE PUSH0 PUSH1 0x80 DUP10 ADD MSTORE PUSH1 0xA0 DUP9 ADD SWAP4 DUP5 MSTORE PUSH2 0x1CDC JUMP JUMPDEST MSTORE MLOAD PUSH2 0x1CDC JUMP JUMPDEST PUSH1 0x1 PUSH1 0x1 PUSH1 0xE8 SHL SUB NOT SWAP1 SWAP2 AND SWAP1 MSTORE JUMP JUMPDEST PUSH2 0x24CD JUMP JUMPDEST POP SWAP7 DUP8 ISZERO PUSH2 0x1667 JUMPI DUP3 PUSH2 0x176B SWAP3 PUSH2 0x61C SWAP10 SWAP3 PUSH2 0x1764 JUMP JUMPDEST SWAP3 PUSH2 0x16FD JUMP JUMPDEST SWAP5 PUSH2 0x16F5 JUMP JUMPDEST PUSH2 0x191A CALLDATASIZE PUSH2 0xD9A JUMP JUMPDEST PUSH0 SWAP5 SWAP4 SWAP2 SWAP3 SWAP5 SWAP2 PUSH2 0x1929 PUSH2 0x2C5F JUMP JUMPDEST SWAP5 PUSH2 0x1933 DUP7 PUSH2 0x2C53 JUMP JUMPDEST PUSH1 0x1 PUSH2 0x193F CALLER ADDRESS PUSH2 0x34C4 JUMP JUMPDEST TSTORE PUSH2 0x1949 CALLER PUSH2 0x2CC8 JUMP JUMPDEST PUSH1 0x1 PUSH1 0x1 PUSH1 0xA0 SHL SUB AND SWAP6 DUP7 EXTCODESIZE ISZERO PUSH2 0x1DF JUMPI PUSH2 0x197D SWAP7 PUSH0 SWAP3 DUP4 PUSH1 0x40 MLOAD DUP1 SWAP11 DUP2 SWAP6 DUP3 SWAP5 PUSH4 0x1C6E7247 PUSH1 0xE3 SHL DUP5 MSTORE PUSH1 0x4 DUP5 ADD PUSH2 0x23A8 JUMP JUMPDEST SUB SWAP3 GAS CALL SWAP5 DUP6 ISZERO PUSH2 0xEDF JUMPI PUSH2 0x61C SWAP6 PUSH2 0x19CB JUMPI JUMPDEST POP PUSH2 0x19AC SWAP2 SWAP3 PUSH2 0x19A6 CALLVALUE PUSH2 0xEA3 CALLDATASIZE DUP6 DUP6 PUSH2 0x23CF JUMP JUMPDEST CALLER PUSH2 0x2332 JUMP JUMPDEST SWAP2 PUSH2 0x19B5 PUSH2 0x2E3E JUMP JUMPDEST PUSH2 0x19BE CALLER PUSH2 0x2E82 JUMP JUMPDEST TSTORE PUSH1 0x40 MLOAD SWAP2 DUP3 SWAP2 DUP3 PUSH2 0x854 JUMP JUMPDEST PUSH2 0x19AC SWAP3 POP PUSH0 PUSH2 0x19DA SWAP2 PUSH2 0x2C3 JUMP JUMPDEST PUSH0 SWAP2 PUSH2 0x1991 JUMP JUMPDEST PUSH1 0x1 PUSH1 0x1 PUSH1 0x40 SHL SUB DUP2 GT PUSH2 0x2BE JUMPI PUSH1 0x1F ADD PUSH1 0x1F NOT AND PUSH1 0x20 ADD SWAP1 JUMP JUMPDEST DUP1 MLOAD DUP1 DUP4 MSTORE PUSH1 0x20 SWAP3 SWAP2 DUP2 SWAP1 DUP5 ADD DUP5 DUP5 ADD MCOPY PUSH0 DUP3 DUP3 ADD DUP5 ADD MSTORE PUSH1 0x1F ADD PUSH1 0x1F NOT AND ADD ADD SWAP1 JUMP JUMPDEST SWAP1 SWAP2 PUSH2 0x1A37 PUSH2 0x390 SWAP4 PUSH1 0x40 DUP5 MSTORE PUSH1 0x40 DUP5 ADD SWAP1 PUSH2 0x19FC JUMP JUMPDEST SWAP2 PUSH1 0x20 DUP2 DUP5 SUB SWAP2 ADD MSTORE PUSH2 0x19FC JUMP JUMPDEST CALLVALUE PUSH2 0x1DF JUMPI PUSH1 0x20 CALLDATASIZE PUSH1 0x3 NOT ADD SLT PUSH2 0x1DF JUMPI PUSH1 0x4 CALLDATALOAD PUSH1 0x1 PUSH1 0x1 PUSH1 0x40 SHL SUB DUP2 GT PUSH2 0x1DF JUMPI CALLDATASIZE PUSH1 0x23 DUP3 ADD SLT ISZERO PUSH2 0x1DF JUMPI DUP1 PUSH1 0x4 ADD CALLDATALOAD PUSH2 0x1A80 DUP2 PUSH2 0x19E1 JUMP JUMPDEST SWAP1 PUSH2 0x1A8E PUSH1 0x40 MLOAD SWAP3 DUP4 PUSH2 0x2C3 JUMP JUMPDEST DUP1 DUP3 MSTORE CALLDATASIZE PUSH1 0x24 DUP3 DUP6 ADD ADD GT PUSH2 0x1DF JUMPI PUSH1 0x20 DUP2 PUSH0 SWAP3 PUSH1 0x24 PUSH2 0x1AB6 SWAP7 ADD DUP4 DUP7 ADD CALLDATACOPY DUP4 ADD ADD MSTORE PUSH2 0x2971 JUMP JUMPDEST SWAP1 PUSH2 0x61C PUSH1 0x40 MLOAD SWAP3 DUP4 SWAP3 DUP4 PUSH2 0x1A20 JUMP JUMPDEST CALLVALUE PUSH2 0x1DF JUMPI PUSH1 0x80 CALLDATASIZE PUSH1 0x3 NOT ADD SLT PUSH2 0x1DF JUMPI PUSH1 0x4 CALLDATALOAD PUSH2 0x1AE3 DUP2 PUSH2 0x1CE JUMP JUMPDEST PUSH1 0x24 CALLDATALOAD PUSH2 0x1AEF DUP2 PUSH2 0x1CE JUMP JUMPDEST PUSH1 0x44 CALLDATALOAD SWAP2 PUSH0 MLOAD PUSH1 0x20 PUSH2 0x4051 PUSH0 CODECOPY PUSH0 MLOAD SWAP1 PUSH0 MSTORE PUSH2 0x712 PUSH1 0x64 CALLDATALOAD SWAP4 PUSH1 0x1 PUSH1 0x1 PUSH1 0xA0 SHL SUB DUP5 AND SWAP4 PUSH2 0x1B51 SWAP1 DUP8 SWAP1 PUSH2 0x1B44 SWAP1 CALLER DUP9 EQ ISZERO DUP1 PUSH2 0x1C40 JUMPI JUMPDEST PUSH2 0x1BB0 JUMPI PUSH1 0x1 PUSH1 0x1 PUSH1 0xA0 SHL SUB AND PUSH0 SWAP1 DUP2 MSTORE PUSH1 0x1 PUSH1 0x20 MSTORE PUSH1 0x40 SWAP1 KECCAK256 SWAP1 JUMP JUMPDEST SWAP1 PUSH0 MSTORE PUSH1 0x20 MSTORE PUSH1 0x40 PUSH0 KECCAK256 SWAP1 JUMP JUMPDEST PUSH2 0x1B5C DUP7 DUP3 SLOAD PUSH2 0x22F5 JUMP JUMPDEST SWAP1 SSTORE PUSH1 0x1 PUSH1 0x1 PUSH1 0xA0 SHL SUB DUP2 AND PUSH0 SWAP1 DUP2 MSTORE PUSH1 0x1 PUSH1 0x20 MSTORE PUSH1 0x40 SWAP1 KECCAK256 PUSH2 0x1B80 SWAP1 DUP8 SWAP1 PUSH2 0x1B44 JUMP JUMPDEST PUSH2 0x1B8B DUP7 DUP3 SLOAD PUSH2 0x2302 JUMP JUMPDEST SWAP1 SSTORE PUSH1 0x40 DUP1 MLOAD CALLER DUP2 MSTORE PUSH1 0x20 DUP2 ADD SWAP7 SWAP1 SWAP7 MSTORE PUSH1 0x1 PUSH1 0x1 PUSH1 0xA0 SHL SUB SWAP1 SWAP2 AND SWAP5 SWAP2 DUP3 SWAP2 DUP3 ADD SWAP1 JUMP JUMPDEST PUSH2 0x1BE7 DUP4 PUSH2 0x1B44 CALLER PUSH2 0x1BD2 DUP6 PUSH1 0x1 DUP1 PUSH1 0xA0 SHL SUB AND PUSH0 MSTORE PUSH1 0x2 PUSH1 0x20 MSTORE PUSH1 0x40 PUSH0 KECCAK256 SWAP1 JUMP JUMPDEST SWAP1 PUSH1 0x1 DUP1 PUSH1 0xA0 SHL SUB AND PUSH0 MSTORE PUSH1 0x20 MSTORE PUSH1 0x40 PUSH0 KECCAK256 SWAP1 JUMP JUMPDEST SLOAD DUP10 PUSH1 0x1 DUP3 ADD PUSH2 0x1C0D JUMPI JUMPDEST POP POP PUSH1 0x1 PUSH1 0x1 PUSH1 0xA0 SHL SUB AND PUSH0 SWAP1 DUP2 MSTORE PUSH1 0x1 PUSH1 0x20 MSTORE PUSH1 0x40 SWAP1 KECCAK256 SWAP1 JUMP JUMPDEST PUSH2 0x1C16 SWAP2 PUSH2 0x22F5 JUMP JUMPDEST PUSH2 0x1C38 DUP5 PUSH2 0x1B44 CALLER PUSH2 0x1BD2 DUP7 PUSH1 0x1 DUP1 PUSH1 0xA0 SHL SUB AND PUSH0 MSTORE PUSH1 0x2 PUSH1 0x20 MSTORE PUSH1 0x40 PUSH0 KECCAK256 SWAP1 JUMP JUMPDEST SSTORE PUSH0 DUP10 PUSH2 0x1BF2 JUMP JUMPDEST POP PUSH2 0x1C6F PUSH2 0x1C6B PUSH2 0x1C64 CALLER PUSH2 0x1BD2 DUP6 PUSH1 0x1 DUP1 PUSH1 0xA0 SHL SUB AND PUSH0 MSTORE PUSH0 PUSH1 0x20 MSTORE PUSH1 0x40 PUSH0 KECCAK256 SWAP1 JUMP JUMPDEST SLOAD PUSH1 0xFF AND SWAP1 JUMP JUMPDEST ISZERO SWAP1 JUMP JUMPDEST PUSH2 0x1B27 JUMP JUMPDEST PUSH1 0x40 DUP1 MLOAD SWAP1 SWAP2 SWAP1 PUSH2 0x1C85 DUP4 DUP3 PUSH2 0x2C3 JUMP JUMPDEST PUSH1 0x1 DUP2 MSTORE SWAP2 PUSH1 0x1F NOT ADD CALLDATASIZE PUSH1 0x20 DUP5 ADD CALLDATACOPY JUMP JUMPDEST SWAP1 PUSH2 0x1CA0 DUP3 PUSH2 0x312 JUMP JUMPDEST PUSH2 0x1CAD PUSH1 0x40 MLOAD SWAP2 DUP3 PUSH2 0x2C3 JUMP JUMPDEST DUP3 DUP2 MSTORE DUP1 SWAP3 PUSH2 0x1CBE PUSH1 0x1F NOT SWAP2 PUSH2 0x312 JUMP JUMPDEST ADD SWAP1 PUSH1 0x20 CALLDATASIZE SWAP2 ADD CALLDATACOPY JUMP JUMPDEST PUSH4 0x4E487B71 PUSH1 0xE0 SHL PUSH0 MSTORE PUSH1 0x32 PUSH1 0x4 MSTORE PUSH1 0x24 PUSH0 REVERT JUMPDEST DUP1 MLOAD ISZERO PUSH2 0x1CE9 JUMPI PUSH1 0x20 ADD SWAP1 JUMP JUMPDEST PUSH2 0x1CC8 JUMP JUMPDEST DUP1 MLOAD PUSH1 0x1 LT ISZERO PUSH2 0x1CE9 JUMPI PUSH1 0x40 ADD SWAP1 JUMP JUMPDEST DUP1 MLOAD DUP3 LT ISZERO PUSH2 0x1CE9 JUMPI PUSH1 0x20 SWAP2 PUSH1 0x5 SHL ADD ADD SWAP1 JUMP JUMPDEST PUSH1 0x40 MLOAD SWAP1 PUSH2 0x1D21 PUSH1 0x20 DUP4 PUSH2 0x2C3 JUMP JUMPDEST PUSH0 DUP3 MSTORE JUMP JUMPDEST SWAP3 PUSH2 0x1D52 PUSH2 0x390 SWAP6 SWAP4 PUSH2 0x1D44 PUSH2 0x1D60 SWAP5 PUSH1 0x80 DUP9 MSTORE PUSH1 0x80 DUP9 ADD SWAP1 PUSH2 0x19FC JUMP JUMPDEST SWAP1 DUP7 DUP3 SUB PUSH1 0x20 DUP9 ADD MSTORE PUSH2 0x19FC JUMP JUMPDEST SWAP1 DUP5 DUP3 SUB PUSH1 0x40 DUP7 ADD MSTORE PUSH2 0x19FC JUMP JUMPDEST SWAP2 PUSH1 0x60 DUP2 DUP5 SUB SWAP2 ADD MSTORE PUSH2 0x19FC JUMP JUMPDEST SWAP1 DUP1 PUSH1 0x1F DUP4 ADD SLT ISZERO PUSH2 0x1DF JUMPI DUP2 MLOAD PUSH2 0x1D85 DUP2 PUSH2 0x312 JUMP JUMPDEST SWAP3 PUSH2 0x1D93 PUSH1 0x40 MLOAD SWAP5 DUP6 PUSH2 0x2C3 JUMP JUMPDEST DUP2 DUP5 MSTORE PUSH1 0x20 DUP1 DUP6 ADD SWAP3 PUSH1 0x5 SHL DUP3 ADD ADD SWAP3 DUP4 GT PUSH2 0x1DF JUMPI PUSH1 0x20 ADD SWAP1 JUMPDEST DUP3 DUP3 LT PUSH2 0x1DBB JUMPI POP POP POP SWAP1 JUMP JUMPDEST DUP2 MLOAD DUP2 MSTORE PUSH1 0x20 SWAP2 DUP3 ADD SWAP2 ADD PUSH2 0x1DAE JUMP JUMPDEST SWAP1 PUSH1 0x20 DUP3 DUP3 SUB SLT PUSH2 0x1DF JUMPI DUP2 MLOAD PUSH1 0x1 PUSH1 0x1 PUSH1 0x40 SHL SUB DUP2 GT PUSH2 0x1DF JUMPI PUSH2 0x390 SWAP3 ADD PUSH2 0x1D6E JUMP JUMPDEST SWAP1 PUSH1 0x20 DUP1 DUP4 MLOAD SWAP3 DUP4 DUP2 MSTORE ADD SWAP3 ADD SWAP1 PUSH0 JUMPDEST DUP2 DUP2 LT PUSH2 0x1E0D JUMPI POP POP POP SWAP1 JUMP JUMPDEST DUP3 MLOAD PUSH1 0x1 PUSH1 0x1 PUSH1 0x80 SHL SUB AND DUP5 MSTORE PUSH1 0x20 SWAP4 DUP5 ADD SWAP4 SWAP1 SWAP3 ADD SWAP2 PUSH1 0x1 ADD PUSH2 0x1E00 JUMP JUMPDEST SWAP1 PUSH1 0x20 DUP1 DUP4 MLOAD SWAP3 DUP4 DUP2 MSTORE ADD SWAP3 ADD SWAP1 PUSH0 JUMPDEST DUP2 DUP2 LT PUSH2 0x1E49 JUMPI POP POP POP SWAP1 JUMP JUMPDEST DUP3 MLOAD PUSH2 0xFFFF AND DUP5 MSTORE PUSH1 0x20 SWAP4 DUP5 ADD SWAP4 SWAP1 SWAP3 ADD SWAP2 PUSH1 0x1 ADD PUSH2 0x1E3C JUMP JUMPDEST PUSH1 0x40 DUP1 DUP3 MSTORE DUP3 MLOAD PUSH1 0x1 PUSH1 0x1 PUSH1 0xA0 SHL SUB AND SWAP1 DUP3 ADD MSTORE PUSH2 0x390 SWAP3 SWAP1 PUSH1 0x20 DUP4 ADD MLOAD PUSH1 0x1 PUSH1 0x1 PUSH1 0xA0 SHL SUB AND PUSH1 0x60 DUP3 ADD MSTORE PUSH1 0x40 DUP4 ADD MLOAD PUSH1 0x1 PUSH1 0x1 PUSH1 0xA0 SHL SUB AND PUSH1 0x80 DUP3 ADD MSTORE PUSH2 0x1F1A PUSH1 0xE0 PUSH2 0x1F0D PUSH2 0x1EF6 PUSH2 0x1EE1 PUSH2 0x1ECB PUSH1 0x60 DUP10 ADD MLOAD PUSH2 0x100 PUSH1 0xA0 DUP10 ADD MSTORE PUSH2 0x140 DUP9 ADD SWAP1 PUSH2 0x59D JUMP JUMPDEST PUSH1 0x80 DUP10 ADD MLOAD DUP8 DUP3 SUB PUSH1 0x3F NOT ADD PUSH1 0xC0 DUP10 ADD MSTORE PUSH2 0x1DF0 JUMP JUMPDEST PUSH1 0xA0 DUP9 ADD MLOAD DUP7 DUP3 SUB PUSH1 0x3F NOT ADD DUP6 DUP9 ADD MSTORE PUSH2 0x1DF0 JUMP JUMPDEST PUSH1 0xC0 DUP8 ADD MLOAD DUP6 DUP3 SUB PUSH1 0x3F NOT ADD PUSH2 0x100 DUP8 ADD MSTORE PUSH2 0x1E2C JUMP JUMPDEST SWAP5 ADD MLOAD ISZERO ISZERO PUSH2 0x120 DUP4 ADD MSTORE JUMP JUMPDEST PUSH1 0x20 DUP2 DUP5 SUB SWAP2 ADD MSTORE PUSH2 0x19FC JUMP JUMPDEST PUSH1 0x40 MLOAD RETURNDATASIZE PUSH0 DUP3 RETURNDATACOPY RETURNDATASIZE SWAP1 REVERT JUMPDEST SWAP1 SWAP2 SWAP3 PUSH1 0xA0 DUP3 ADD SWAP3 PUSH2 0x1F45 DUP5 MLOAD MLOAD PUSH2 0x1C96 JUMP JUMPDEST SWAP2 PUSH2 0x1F51 DUP6 MLOAD MLOAD PUSH2 0x1C96 JUMP JUMPDEST POP PUSH2 0x1F5D DUP6 MLOAD MLOAD PUSH2 0x1C96 JUMP JUMPDEST SWAP6 PUSH2 0x1F81 PUSH2 0x1F7C PUSH2 0x1F6E DUP9 MLOAD PUSH2 0x1CDC JUMP JUMPDEST MLOAD PUSH1 0x1 PUSH1 0x1 PUSH1 0xE8 SHL SUB NOT AND SWAP1 JUMP JUMPDEST PUSH2 0x29C8 JUMP JUMPDEST PUSH0 JUMPDEST DUP8 MLOAD DUP1 MLOAD DUP3 LT ISZERO PUSH2 0x2007 JUMPI SWAP1 PUSH2 0x2001 PUSH2 0x1FEE PUSH1 0x80 PUSH2 0x1FE5 DUP12 DUP12 PUSH2 0x1FDF DUP8 PUSH2 0x1FD9 PUSH2 0x1FB2 PUSH2 0x1F6E DUP4 PUSH1 0x1 SWAP14 PUSH2 0x1CFE JUMP JUMPDEST DUP6 MLOAD PUSH1 0x20 DUP8 ADD MLOAD PUSH1 0x40 SWAP1 SWAP8 ADD MLOAD SWAP2 SWAP7 DUP8 SWAP3 PUSH1 0x1 PUSH1 0x1 PUSH1 0xA0 SHL SUB SWAP1 DUP2 AND SWAP3 SWAP2 DUP2 AND SWAP2 AND PUSH2 0x2A9A JUMP JUMPDEST SWAP3 PUSH2 0x1CFE JUMP JUMPDEST MSTORE PUSH2 0x29C8 JUMP JUMPDEST ADD MLOAD PUSH2 0xFFFF AND SWAP1 JUMP JUMPDEST PUSH2 0x1FF8 DUP4 DUP14 PUSH2 0x1CFE JUMP JUMPDEST SWAP1 PUSH2 0xFFFF AND SWAP1 MSTORE JUMP JUMPDEST ADD PUSH2 0x1F83 JUMP JUMPDEST POP POP DUP6 MLOAD PUSH1 0x20 DUP8 ADD DUP1 MLOAD PUSH1 0x40 DUP10 ADD DUP1 MLOAD PUSH1 0x60 DUP12 ADD MLOAD PUSH1 0x80 DUP13 ADD DUP1 MLOAD SWAP10 SWAP15 SWAP12 SWAP14 POP SWAP3 SWAP12 SWAP7 SWAP11 SWAP5 SWAP10 PUSH1 0x1 PUSH1 0x1 PUSH1 0xA0 SHL SUB SWAP7 DUP8 AND SWAP10 SWAP4 SWAP9 SWAP5 DUP8 AND SWAP7 SWAP1 SWAP4 SWAP2 SWAP3 AND SWAP1 ISZERO ISZERO SWAP6 PUSH2 0x2050 PUSH2 0x302 JUMP JUMPDEST PUSH1 0x1 PUSH1 0x1 PUSH1 0xA0 SHL SUB SWAP1 SWAP11 AND DUP11 MSTORE PUSH1 0x1 PUSH1 0x1 PUSH1 0xA0 SHL SUB AND PUSH1 0x20 DUP11 ADD MSTORE PUSH1 0x1 PUSH1 0x1 PUSH1 0xA0 SHL SUB AND PUSH1 0x40 DUP10 ADD MSTORE PUSH1 0x60 DUP9 ADD MSTORE PUSH1 0x80 DUP8 ADD MSTORE PUSH1 0xA0 DUP7 ADD MSTORE PUSH1 0xC0 DUP6 ADD MSTORE ISZERO ISZERO PUSH1 0xE0 DUP5 ADD MSTORE MLOAD PUSH1 0x1 PUSH1 0x1 PUSH1 0xA0 SHL SUB AND SWAP3 MLOAD PUSH1 0x1 PUSH1 0x1 PUSH1 0xA0 SHL SUB AND DUP6 MLOAD SWAP1 SWAP2 SWAP1 PUSH1 0x1 PUSH1 0x1 PUSH1 0xA0 SHL SUB AND SWAP1 MLOAD ISZERO ISZERO SWAP2 PUSH2 0x20C4 PUSH2 0x302 JUMP JUMPDEST PUSH1 0x1 PUSH1 0x1 PUSH1 0xA0 SHL SUB SWAP1 SWAP6 AND DUP6 MSTORE PUSH1 0x1 PUSH1 0x1 PUSH1 0xA0 SHL SUB AND PUSH1 0x20 DUP6 ADD MSTORE PUSH1 0x1 PUSH1 0x1 PUSH1 0xA0 SHL SUB AND PUSH1 0x40 DUP5 ADD MSTORE PUSH0 PUSH1 0x60 DUP5 ADD DUP2 SWAP1 MSTORE PUSH1 0x80 DUP5 ADD DUP2 SWAP1 MSTORE PUSH1 0xA0 DUP5 ADD DUP2 SWAP1 MSTORE PUSH1 0xC0 DUP5 ADD MSTORE ISZERO ISZERO PUSH1 0xE0 DUP4 ADD MSTORE DUP3 MLOAD ISZERO ISZERO PUSH0 EQ PUSH2 0x2235 PUSH2 0x2235 PUSH2 0x225E SWAP7 PUSH2 0x2228 PUSH0 SWAP8 PUSH2 0x2241 SWAP6 PUSH2 0x22C2 JUMPI PUSH2 0x221A PUSH2 0x2159 DUP10 PUSH32 0x0 PUSH2 0x2B48 JUMP JUMPDEST SWAP2 JUMPDEST PUSH1 0x20 DUP2 ADD MLOAD ISZERO ISZERO DUP12 EQ PUSH2 0x22B4 JUMPI PUSH2 0x2192 DUP11 PUSH32 0x0 PUSH2 0x2B48 JUMP JUMPDEST SWAP10 JUMPDEST PUSH1 0x40 DUP3 ADD MLOAD ISZERO ISZERO DUP13 EQ PUSH2 0x22A1 JUMPI PUSH2 0x21D9 PUSH1 0x60 PUSH2 0x21D0 DUP4 PUSH32 0x0 PUSH2 0x2B48 JUMP JUMPDEST SWAP4 JUMPDEST ADD MLOAD ISZERO ISZERO SWAP1 JUMP JUMPDEST DUP13 EQ PUSH2 0x2292 JUMPI PUSH2 0x2209 SWAP1 PUSH32 0x0 PUSH2 0x2B48 JUMP JUMPDEST SWAP1 JUMPDEST PUSH1 0x40 MLOAD SWAP11 DUP12 SWAP5 PUSH1 0x20 DUP7 ADD PUSH2 0x1D26 JUMP JUMPDEST SUB PUSH1 0x1F NOT DUP2 ADD DUP9 MSTORE DUP8 PUSH2 0x2C3 JUMP JUMPDEST MLOAD PUSH1 0x1 PUSH1 0x1 PUSH1 0xA0 SHL SUB AND SWAP1 JUMP JUMPDEST PUSH1 0x1 PUSH1 0x1 PUSH1 0xA0 SHL SUB AND SWAP1 JUMP JUMPDEST SWAP1 DUP4 PUSH1 0x40 MLOAD DUP1 SWAP7 DUP2 SWAP6 DUP3 SWAP5 PUSH3 0xDB90D1 PUSH1 0xE8 SHL DUP5 MSTORE PUSH1 0x4 DUP5 ADD PUSH2 0x1E63 JUMP JUMPDEST SUB SWAP3 GAS CALL SWAP1 DUP2 ISZERO PUSH2 0xEDF JUMPI PUSH0 SWAP2 PUSH2 0x2273 JUMPI POP SWAP2 JUMP JUMPDEST PUSH2 0x228F SWAP2 POP RETURNDATASIZE DUP1 PUSH0 DUP4 RETURNDATACOPY PUSH2 0x2287 DUP2 DUP4 PUSH2 0x2C3 JUMP JUMPDEST DUP2 ADD SWAP1 PUSH2 0x1DCB JUMP JUMPDEST SWAP2 JUMP JUMPDEST POP PUSH2 0x229B PUSH2 0x1D12 JUMP JUMPDEST SWAP1 PUSH2 0x220B JUMP JUMPDEST PUSH2 0x21D9 PUSH1 0x60 PUSH2 0x22AE PUSH2 0x1D12 JUMP JUMPDEST SWAP4 PUSH2 0x21D2 JUMP JUMPDEST PUSH2 0x22BC PUSH2 0x1D12 JUMP JUMPDEST SWAP10 PUSH2 0x2194 JUMP JUMPDEST PUSH2 0x221A PUSH2 0x22CD PUSH2 0x1D12 JUMP JUMPDEST SWAP2 PUSH2 0x215B JUMP JUMPDEST PUSH4 0x4E487B71 PUSH1 0xE0 SHL PUSH0 MSTORE PUSH1 0x11 PUSH1 0x4 MSTORE PUSH1 0x24 PUSH0 REVERT JUMPDEST PUSH0 NOT DUP2 ADD SWAP2 SWAP1 DUP3 GT PUSH2 0x721 JUMPI JUMP JUMPDEST SWAP2 SWAP1 DUP3 SUB SWAP2 DUP3 GT PUSH2 0x721 JUMPI JUMP JUMPDEST SWAP2 SWAP1 DUP3 ADD DUP1 SWAP3 GT PUSH2 0x721 JUMPI JUMP JUMPDEST SWAP1 ISZERO PUSH2 0x1CE9 JUMPI SWAP1 JUMP JUMPDEST SWAP2 SWAP1 DUP2 LT ISZERO PUSH2 0x1CE9 JUMPI PUSH1 0x5 SHL ADD SWAP1 JUMP JUMPDEST CALLDATALOAD PUSH2 0x390 DUP2 PUSH2 0x1CE JUMP JUMPDEST SWAP3 SWAP2 SWAP3 PUSH2 0x233E DUP5 PUSH2 0x312 JUMP JUMPDEST SWAP1 PUSH2 0x234C PUSH1 0x40 MLOAD SWAP3 DUP4 PUSH2 0x2C3 JUMP JUMPDEST DUP5 DUP3 MSTORE PUSH1 0x1F NOT PUSH2 0x235B DUP7 PUSH2 0x312 JUMP JUMPDEST ADD CALLDATASIZE PUSH1 0x20 DUP5 ADD CALLDATACOPY DUP2 SWAP5 PUSH0 JUMPDEST DUP2 DUP2 LT PUSH2 0x2374 JUMPI POP POP POP POP POP JUMP JUMPDEST DUP1 PUSH2 0x2396 PUSH2 0x2385 PUSH1 0x1 SWAP4 DUP6 DUP10 PUSH2 0x2318 JUMP JUMPDEST CALLDATALOAD PUSH2 0x238F DUP2 PUSH2 0x1CE JUMP JUMPDEST DUP6 ADDRESS PUSH2 0x344F JUMP JUMPDEST TLOAD PUSH2 0x23A1 DUP3 DUP8 PUSH2 0x1CFE JUMP JUMPDEST MSTORE ADD PUSH2 0x2366 JUMP JUMPDEST SWAP1 SWAP2 DUP1 PUSH1 0x40 SWAP4 PUSH1 0x20 DUP5 MSTORE DUP2 PUSH1 0x20 DUP6 ADD MSTORE DUP5 DUP5 ADD CALLDATACOPY PUSH0 DUP3 DUP3 ADD DUP5 ADD MSTORE PUSH1 0x1F ADD PUSH1 0x1F NOT AND ADD ADD SWAP1 JUMP JUMPDEST SWAP3 SWAP2 SWAP1 PUSH2 0x23DB DUP2 PUSH2 0x312 JUMP JUMPDEST SWAP4 PUSH2 0x23E9 PUSH1 0x40 MLOAD SWAP6 DUP7 PUSH2 0x2C3 JUMP JUMPDEST PUSH1 0x20 DUP6 DUP4 DUP2 MSTORE ADD SWAP2 PUSH1 0x5 SHL DUP2 ADD SWAP3 DUP4 GT PUSH2 0x1DF JUMPI SWAP1 JUMPDEST DUP3 DUP3 LT PUSH2 0x240B JUMPI POP POP POP JUMP JUMPDEST PUSH1 0x20 DUP1 SWAP2 DUP4 CALLDATALOAD PUSH2 0x241A DUP2 PUSH2 0x1CE JUMP JUMPDEST DUP2 MSTORE ADD SWAP2 ADD SWAP1 PUSH2 0x23FF JUMP JUMPDEST SWAP1 DUP2 PUSH1 0x20 SWAP2 SUB SLT PUSH2 0x1DF JUMPI MLOAD SWAP1 JUMP JUMPDEST DUP1 MLOAD PUSH1 0x1 PUSH1 0x1 PUSH1 0xA0 SHL SUB SWAP1 DUP2 AND DUP4 MSTORE PUSH1 0x20 DUP1 DUP4 ADD MLOAD DUP3 AND SWAP1 DUP5 ADD MSTORE PUSH1 0x40 DUP1 DUP4 ADD MLOAD SWAP1 SWAP2 AND SWAP1 DUP4 ADD MSTORE PUSH1 0x60 DUP1 DUP3 ADD MLOAD SWAP1 DUP4 ADD MSTORE PUSH1 0x80 DUP1 DUP3 ADD MLOAD PUSH1 0x1 PUSH1 0x1 PUSH1 0x80 SHL SUB AND SWAP1 DUP4 ADD MSTORE PUSH2 0x1EE SWAP2 SWAP1 PUSH1 0xE0 SWAP1 DUP2 SWAP1 PUSH1 0xA0 DUP2 DUP2 ADD MLOAD PUSH1 0x1 PUSH1 0x1 PUSH1 0x80 SHL SUB AND SWAP1 DUP6 ADD MSTORE PUSH1 0xC0 DUP2 DUP2 ADD MLOAD PUSH2 0xFFFF AND SWAP1 DUP6 ADD MSTORE ADD MLOAD ISZERO ISZERO SWAP2 ADD MSTORE JUMP JUMPDEST DUP1 PUSH2 0x24BF PUSH2 0x120 SWAP3 PUSH2 0x390 SWAP6 SWAP5 PUSH2 0x2434 JUMP JUMPDEST DUP2 PUSH2 0x100 DUP3 ADD MSTORE ADD SWAP1 PUSH2 0x19FC JUMP JUMPDEST DUP1 MLOAD PUSH1 0x20 DUP3 ADD DUP1 MLOAD PUSH1 0x40 DUP5 ADD DUP1 MLOAD PUSH1 0xA0 DUP7 ADD DUP1 MLOAD SWAP1 SWAP9 SWAP5 SWAP8 SWAP7 SWAP5 SWAP6 SWAP3 SWAP5 SWAP4 PUSH1 0x1 PUSH1 0x1 PUSH1 0xA0 SHL SUB SWAP4 DUP5 AND SWAP4 SWAP1 DUP2 AND SWAP3 AND SWAP1 PUSH2 0x2506 SWAP1 PUSH2 0x1CDC JUMP JUMPDEST MLOAD PUSH1 0x1 PUSH1 0x1 PUSH1 0xE8 SHL SUB NOT AND SWAP2 PUSH2 0x251B SWAP4 PUSH2 0x2A9A JUMP JUMPDEST SWAP6 MLOAD PUSH2 0x2526 SWAP1 PUSH2 0x1CDC JUMP JUMPDEST MLOAD PUSH1 0x1 PUSH1 0x1 PUSH1 0xE8 SHL SUB NOT AND PUSH2 0x253A SWAP1 PUSH2 0x29C8 JUMP JUMPDEST DUP2 MLOAD SWAP1 SWAP4 SWAP1 PUSH1 0x1 PUSH1 0x1 PUSH1 0xA0 SHL SUB AND SWAP6 MLOAD PUSH1 0x1 PUSH1 0x1 PUSH1 0xA0 SHL SUB AND SWAP3 MLOAD PUSH1 0x1 PUSH1 0x1 PUSH1 0xA0 SHL SUB AND SWAP5 PUSH1 0x60 DUP4 ADD MLOAD PUSH2 0x256D SWAP1 PUSH2 0x1CDC JUMP JUMPDEST MLOAD PUSH1 0x80 DUP7 ADD MLOAD PUSH2 0xFFFF AND PUSH1 0x80 SWAP1 SWAP5 ADD MLOAD ISZERO ISZERO SWAP5 PUSH2 0x2588 PUSH2 0x302 JUMP JUMPDEST PUSH1 0x1 PUSH1 0x1 PUSH1 0xA0 SHL SUB SWAP1 SWAP10 AND DUP10 MSTORE PUSH1 0x1 PUSH1 0x1 PUSH1 0xA0 SHL SUB AND PUSH1 0x20 DUP10 ADD MSTORE PUSH1 0x1 PUSH1 0x1 PUSH1 0xA0 SHL SUB SWAP1 SWAP7 AND PUSH1 0x40 DUP9 ADD SWAP1 DUP2 MSTORE SWAP6 PUSH1 0x60 DUP9 ADD MSTORE PUSH1 0x1 PUSH1 0x1 PUSH1 0x80 SHL SUB AND PUSH1 0x80 DUP8 ADD MSTORE PUSH1 0x1 PUSH1 0x1 PUSH1 0x80 SHL SUB AND PUSH1 0xA0 DUP7 ADD MSTORE PUSH2 0xFFFF AND PUSH1 0xC0 DUP6 ADD MSTORE ISZERO ISZERO PUSH1 0xE0 DUP5 ADD MSTORE DUP1 MLOAD ISZERO ISZERO PUSH0 EQ SWAP3 PUSH2 0x26E7 PUSH2 0x2235 PUSH2 0x2235 PUSH1 0x20 SWAP6 PUSH2 0x2705 SWAP8 PUSH2 0x2775 JUMPI PUSH2 0x2228 PUSH2 0x262F DUP7 PUSH32 0x0 PUSH2 0x2E90 JUMP JUMPDEST DUP8 DUP10 ADD MLOAD ISZERO PUSH2 0x2764 JUMPI PUSH2 0x221A PUSH2 0x2665 DUP9 PUSH32 0x0 PUSH2 0x2E90 JUMP JUMPDEST SWAP9 JUMPDEST PUSH1 0x40 DUP2 ADD MLOAD ISZERO PUSH2 0x2751 JUMPI PUSH2 0x26A8 PUSH1 0x60 PUSH2 0x26A0 DUP12 PUSH32 0x0 PUSH2 0x2E90 JUMP JUMPDEST SWAP3 ADD MLOAD ISZERO ISZERO SWAP1 JUMP JUMPDEST ISZERO PUSH2 0x2743 JUMPI PUSH2 0x26D7 DUP10 PUSH32 0x0 PUSH2 0x2E90 JUMP JUMPDEST SWAP1 JUMPDEST PUSH1 0x40 MLOAD SWAP11 DUP12 SWAP5 DUP14 DUP7 ADD PUSH2 0x1D26 JUMP JUMPDEST SWAP1 PUSH0 PUSH1 0x40 MLOAD DUP1 SWAP7 DUP2 SWAP6 DUP3 SWAP5 PUSH4 0x5E3344D PUSH1 0xE4 SHL DUP5 MSTORE PUSH1 0x4 DUP5 ADD PUSH2 0x24AD JUMP JUMPDEST SUB SWAP3 GAS CALL SWAP1 DUP2 ISZERO PUSH2 0xEDF JUMPI PUSH0 SWAP2 PUSH2 0x271A JUMPI POP SWAP2 JUMP JUMPDEST PUSH2 0x228F SWAP2 POP PUSH1 0x20 RETURNDATASIZE PUSH1 0x20 GT PUSH2 0x273C JUMPI JUMPDEST PUSH2 0x2734 DUP2 DUP4 PUSH2 0x2C3 JUMP JUMPDEST DUP2 ADD SWAP1 PUSH2 0x2425 JUMP JUMPDEST POP RETURNDATASIZE PUSH2 0x272A JUMP JUMPDEST PUSH2 0x274B PUSH2 0x1D12 JUMP JUMPDEST SWAP1 PUSH2 0x26D9 JUMP JUMPDEST PUSH2 0x26A8 PUSH1 0x60 PUSH2 0x275E PUSH2 0x1D12 JUMP JUMPDEST SWAP3 PUSH2 0x21D2 JUMP JUMPDEST PUSH2 0x221A PUSH2 0x276F PUSH2 0x1D12 JUMP JUMPDEST SWAP9 PUSH2 0x2667 JUMP JUMPDEST PUSH2 0x2228 PUSH2 0x2780 PUSH2 0x1D12 JUMP JUMPDEST PUSH2 0x262F JUMP JUMPDEST ISZERO PUSH2 0x278C JUMPI JUMP JUMPDEST PUSH1 0x40 MLOAD PUSH3 0x461BCD PUSH1 0xE5 SHL DUP2 MSTORE PUSH1 0x20 PUSH1 0x4 DUP3 ADD MSTORE PUSH1 0x18 PUSH1 0x24 DUP3 ADD MSTORE PUSH32 0x496E76616C6964206C697175696469747920616D6F756E740000000000000000 PUSH1 0x44 DUP3 ADD MSTORE PUSH1 0x64 SWAP1 REVERT JUMPDEST ISZERO PUSH2 0x27D8 JUMPI JUMP JUMPDEST PUSH1 0x40 MLOAD PUSH3 0x461BCD PUSH1 0xE5 SHL DUP2 MSTORE PUSH1 0x20 PUSH1 0x4 DUP3 ADD MSTORE PUSH1 0x14 PUSH1 0x24 DUP3 ADD MSTORE PUSH20 0x139BC81B1A5C5D5A591A5D1E481A5B881C1BDBDB PUSH1 0x62 SHL PUSH1 0x44 DUP3 ADD MSTORE PUSH1 0x64 SWAP1 REVERT JUMPDEST SWAP1 PUSH8 0xDE0B6B3A7640000 DUP3 MUL SWAP2 DUP1 DUP4 DIV PUSH8 0xDE0B6B3A7640000 EQ SWAP1 ISZERO OR ISZERO PUSH2 0x721 JUMPI JUMP JUMPDEST SWAP1 PUSH8 0x120A871CC0020000 DUP3 MUL SWAP2 DUP1 DUP4 DIV PUSH8 0x120A871CC0020000 EQ SWAP1 ISZERO OR ISZERO PUSH2 0x721 JUMPI JUMP JUMPDEST DUP2 DUP2 MUL SWAP3 SWAP2 DUP2 ISZERO SWAP2 DUP5 DIV EQ OR ISZERO PUSH2 0x721 JUMPI JUMP JUMPDEST DUP2 ISZERO PUSH2 0x2879 JUMPI DIV SWAP1 JUMP JUMPDEST PUSH4 0x4E487B71 PUSH1 0xE0 SHL PUSH0 MSTORE PUSH1 0x12 PUSH1 0x4 MSTORE PUSH1 0x24 PUSH0 REVERT JUMPDEST PUSH1 0xF SIGNEXTEND PUSH16 0x7FFFFFFFFFFFFFFFFFFFFFFFFFFFFFFF NOT DUP2 EQ PUSH2 0x721 JUMPI PUSH0 SUB SWAP1 JUMP JUMPDEST PUSH1 0x40 MLOAD PUSH1 0x60 SWAP2 SWAP1 PUSH2 0x28BE DUP4 DUP3 PUSH2 0x2C3 JUMP JUMPDEST PUSH1 0x2 DUP2 MSTORE SWAP2 PUSH1 0x1F NOT ADD CALLDATASIZE PUSH1 0x20 DUP5 ADD CALLDATACOPY JUMP JUMPDEST PUSH1 0x1 PUSH1 0xFF SHL DUP2 EQ PUSH2 0x721 JUMPI PUSH0 SUB SWAP1 JUMP JUMPDEST ISZERO PUSH2 0x28E6 JUMPI JUMP JUMPDEST PUSH1 0x40 MLOAD PUSH3 0x461BCD PUSH1 0xE5 SHL DUP2 MSTORE PUSH1 0x20 PUSH1 0x4 DUP3 ADD MSTORE PUSH1 0x17 PUSH1 0x24 DUP3 ADD MSTORE PUSH32 0x496E76616C696420696E697469616C20616D6F756E7473000000000000000000 PUSH1 0x44 DUP3 ADD MSTORE PUSH1 0x64 SWAP1 REVERT JUMPDEST DUP2 PUSH1 0x1F DUP3 ADD SLT ISZERO PUSH2 0x1DF JUMPI DUP1 MLOAD SWAP1 PUSH2 0x2942 DUP3 PUSH2 0x19E1 JUMP JUMPDEST SWAP3 PUSH2 0x2950 PUSH1 0x40 MLOAD SWAP5 DUP6 PUSH2 0x2C3 JUMP JUMPDEST DUP3 DUP5 MSTORE PUSH1 0x20 DUP4 DUP4 ADD ADD GT PUSH2 0x1DF JUMPI DUP2 PUSH0 SWAP3 PUSH1 0x20 DUP1 SWAP4 ADD DUP4 DUP7 ADD MCOPY DUP4 ADD ADD MSTORE SWAP1 JUMP JUMPDEST DUP1 MLOAD DUP2 ADD SWAP1 PUSH1 0x40 DUP2 PUSH1 0x20 DUP5 ADD SWAP4 SUB SLT PUSH2 0x1DF JUMPI PUSH1 0x20 DUP2 ADD MLOAD PUSH1 0x1 PUSH1 0x1 PUSH1 0x40 SHL SUB DUP2 GT PUSH2 0x1DF JUMPI DUP3 PUSH1 0x20 PUSH2 0x29A6 SWAP3 DUP5 ADD ADD PUSH2 0x292B JUMP JUMPDEST SWAP2 PUSH1 0x40 DUP3 ADD MLOAD SWAP2 PUSH1 0x1 PUSH1 0x1 PUSH1 0x40 SHL SUB DUP4 GT PUSH2 0x1DF JUMPI PUSH2 0xE14 SWAP3 ADD PUSH1 0x20 ADD PUSH2 0x292B JUMP JUMPDEST PUSH1 0x40 MLOAD SWAP1 PUSH1 0xA0 DUP3 ADD SWAP1 DUP3 DUP3 LT PUSH1 0x1 PUSH1 0x1 PUSH1 0x40 SHL SUB DUP4 GT OR PUSH2 0x2BE JUMPI PUSH2 0x2A8E PUSH2 0xFFF SWAP2 PUSH2 0x390 SWAP4 PUSH1 0x40 MSTORE PUSH0 DUP6 MSTORE PUSH0 PUSH1 0x20 DUP7 ADD MSTORE PUSH0 PUSH1 0x40 DUP7 ADD MSTORE PUSH0 PUSH1 0x60 DUP7 ADD MSTORE PUSH0 PUSH1 0x80 DUP7 ADD MSTORE PUSH1 0xE8 SHR PUSH2 0x2A20 PUSH1 0x1 DUP3 AND ISZERO ISZERO DUP7 SWAP1 ISZERO ISZERO SWAP1 MSTORE JUMP JUMPDEST PUSH2 0x2A43 PUSH2 0x2A3A PUSH1 0x1 DUP4 DUP2 SHR PUSH3 0x7FFFFF AND JUMPDEST AND PUSH3 0xFFFFFF AND SWAP1 JUMP JUMPDEST ISZERO ISZERO PUSH1 0x20 DUP8 ADD MSTORE JUMP JUMPDEST PUSH2 0x2A63 PUSH2 0x2A5A PUSH1 0x1 PUSH1 0x2 DUP5 SWAP1 SHR PUSH3 0x3FFFFF AND PUSH2 0x2A31 JUMP JUMPDEST ISZERO ISZERO PUSH1 0x40 DUP8 ADD MSTORE JUMP JUMPDEST PUSH2 0x2A83 PUSH2 0x2A7A PUSH1 0x1 PUSH1 0x3 DUP5 SWAP1 SHR PUSH3 0x1FFFFF AND PUSH2 0x2A31 JUMP JUMPDEST ISZERO ISZERO PUSH1 0x60 DUP8 ADD MSTORE JUMP JUMPDEST PUSH1 0x4 SHR PUSH3 0xFFFFF AND SWAP1 JUMP JUMPDEST AND PUSH2 0xFFFF AND PUSH1 0x80 DUP4 ADD MSTORE JUMP JUMPDEST SWAP1 SWAP3 SWAP1 PUSH1 0x1 PUSH1 0x1 PUSH1 0xA0 SHL SUB DUP1 DUP6 AND SWAP1 DUP3 AND LT ISZERO PUSH2 0x2B0C JUMPI SWAP3 SWAP2 JUMPDEST PUSH1 0x40 MLOAD PUSH12 0xFFFFFFFFFFFFFFFFFFFFFFFF NOT PUSH1 0x60 SWAP6 DUP7 SHL DUP2 AND PUSH1 0x20 DUP4 ADD SWAP1 DUP2 MSTORE SWAP5 DUP7 SHL DUP2 AND PUSH1 0x34 DUP4 ADD MSTORE SWAP2 SWAP1 SWAP5 SHL AND PUSH1 0x48 DUP5 ADD MSTORE PUSH1 0x1 PUSH1 0x1 PUSH1 0xE8 SHL SUB NOT AND PUSH1 0x5C DUP4 ADD MSTORE PUSH1 0x3F DUP3 MSTORE SWAP1 PUSH2 0x2B06 PUSH1 0x5F DUP3 PUSH2 0x2C3 JUMP JUMPDEST MLOAD SWAP1 KECCAK256 SWAP1 JUMP JUMPDEST SWAP2 PUSH2 0x2AB4 JUMP JUMPDEST SWAP1 PUSH1 0x20 DUP3 DUP3 SUB SLT PUSH2 0x1DF JUMPI DUP2 MLOAD PUSH1 0x1 PUSH1 0x1 PUSH1 0x40 SHL SUB DUP2 GT PUSH2 0x1DF JUMPI PUSH2 0x390 SWAP3 ADD PUSH2 0x292B JUMP JUMPDEST PUSH2 0x100 DUP2 ADD SWAP3 SWAP2 PUSH2 0x1EE SWAP2 SWAP1 PUSH2 0x2434 JUMP JUMPDEST PUSH1 0x1 PUSH1 0x1 PUSH1 0xA0 SHL SUB DUP2 AND DUP1 ISZERO PUSH2 0x2C05 JUMPI DUP2 EXTCODESIZE ISZERO PUSH2 0x2C05 JUMPI PUSH2 0x2B68 DUP3 PUSH2 0x33A8 JUMP JUMPDEST DUP1 MLOAD SWAP1 SWAP4 SWAP1 ISZERO PUSH2 0x2B79 JUMPI JUMPDEST POP POP POP SWAP1 JUMP JUMPDEST PUSH1 0x40 MLOAD PUSH4 0x3BD1104B PUSH1 0xE0 SHL DUP2 MSTORE SWAP4 POP PUSH0 SWAP2 DUP5 SWAP2 DUP3 SWAP1 DUP5 SWAP1 DUP3 SWAP1 PUSH2 0x2B9F SWAP1 PUSH1 0x4 DUP4 ADD PUSH2 0x2B37 JUMP JUMPDEST SUB SWAP3 GAS CALL PUSH0 SWAP3 DUP2 PUSH2 0x2BE1 JUMPI JUMPDEST POP PUSH2 0x2BC2 JUMPI POP POP PUSH2 0x2BBA PUSH2 0x1D12 JUMP JUMPDEST PUSH0 DUP1 DUP1 PUSH2 0x2B73 JUMP JUMPDEST DUP2 DUP1 MLOAD PUSH2 0x2BD1 JUMPI JUMPDEST POP POP PUSH2 0x2BBA JUMP JUMPDEST PUSH2 0x2BDA SWAP2 PUSH2 0x341B JUMP JUMPDEST PUSH0 DUP1 PUSH2 0x2BCA JUMP JUMPDEST PUSH2 0x2BFE SWAP2 SWAP4 POP RETURNDATASIZE DUP1 PUSH0 DUP4 RETURNDATACOPY PUSH2 0x2BF6 DUP2 DUP4 PUSH2 0x2C3 JUMP JUMPDEST DUP2 ADD SWAP1 PUSH2 0x2B12 JUMP JUMPDEST SWAP2 PUSH0 PUSH2 0x2BAB JUMP JUMPDEST POP POP POP PUSH2 0x390 PUSH2 0x1D12 JUMP JUMPDEST PUSH1 0x40 MLOAD PUSH1 0x20 DUP2 ADD SWAP1 PUSH32 0x626529A6BE7CB2FB96A7ED93849B4EF74C980495DFE61FD514C95DCD9DA51C35 DUP3 MSTORE ADDRESS PUSH1 0x60 SHL PUSH1 0x40 DUP3 ADD MSTORE PUSH1 0x34 DUP2 MSTORE PUSH2 0x2B06 PUSH1 0x54 DUP3 PUSH2 0x2C3 JUMP JUMPDEST DUP1 TLOAD PUSH2 0x1DF JUMPI PUSH1 0x1 SWAP1 TSTORE JUMP JUMPDEST PUSH1 0x40 MLOAD PUSH1 0x20 DUP2 ADD SWAP1 PUSH32 0x626529A6BE7CB2FB96A7ED93849B4EF74C980495DFE61FD514C95DCD9DA51C35 DUP3 MSTORE ADDRESS PUSH1 0x60 SHL PUSH1 0x40 DUP3 ADD MSTORE PUSH32 0x88F108D443A200407DF3D92FC06ED196D7B48635560CC21C3B1819792E11C1A7 PUSH1 0x54 DUP3 ADD MSTORE PUSH1 0x54 DUP2 MSTORE PUSH2 0x2B06 PUSH1 0x74 DUP3 PUSH2 0x2C3 JUMP JUMPDEST PUSH1 0x40 MLOAD PUSH1 0x20 DUP2 ADD SWAP1 PUSH32 0x507BA82850C15277B79BAE90C6E97B66228A117B64D05E46B3182D141DF61CE2 DUP3 MSTORE ADDRESS PUSH1 0x60 SHL PUSH1 0x40 DUP3 ADD MSTORE PUSH1 0x34 DUP2 MSTORE PUSH2 0x2D0B PUSH1 0x54 DUP3 PUSH2 0x2C3 JUMP JUMPDEST MLOAD SWAP1 KECCAK256 TSTORE JUMP JUMPDEST DUP2 MLOAD SWAP2 PUSH0 JUMPDEST DUP4 DUP2 LT PUSH2 0x2D23 JUMPI POP POP POP POP JUMP JUMPDEST PUSH1 0x1 SWAP1 PUSH1 0x1 PUSH1 0x1 PUSH1 0xA0 SHL SUB PUSH2 0x2D38 DUP3 DUP6 PUSH2 0x1CFE JUMP JUMPDEST MLOAD AND PUSH2 0x2D45 DUP2 DUP7 ADDRESS PUSH2 0x344F JUMP JUMPDEST TLOAD DUP1 PUSH2 0x2D54 JUMPI JUMPDEST POP POP ADD PUSH2 0x2D16 JUMP JUMPDEST PUSH0 SWAP2 PUSH2 0x2D74 SWAP2 DUP4 DUP2 SGT ISZERO PUSH2 0x2D7C JUMPI PUSH2 0x2D6D SWAP1 DUP9 DUP4 PUSH2 0x369A JUMP JUMPDEST DUP7 ADDRESS PUSH2 0x344F JUMP JUMPDEST TSTORE PUSH0 DUP1 PUSH2 0x2D4C JUMP JUMPDEST PUSH2 0x2D88 PUSH2 0x2D9A SWAP2 PUSH2 0x28CF JUMP JUMPDEST DUP3 ISZERO DUP6 EQ PUSH2 0x2D9F JUMPI DUP5 SWAP1 JUMPDEST DUP10 DUP5 PUSH2 0x35C0 JUMP JUMPDEST PUSH2 0x2D6D JUMP JUMPDEST DUP5 SWAP1 PUSH2 0x2D93 JUMP JUMPDEST SWAP1 SWAP2 DUP3 MLOAD SWAP3 PUSH0 JUMPDEST DUP5 DUP2 LT PUSH2 0x2DBB JUMPI POP POP POP POP POP JUMP JUMPDEST PUSH1 0x1 SWAP1 PUSH1 0x1 PUSH1 0x1 PUSH1 0xA0 SHL SUB PUSH2 0x2DD0 DUP3 DUP6 PUSH2 0x1CFE JUMP JUMPDEST MLOAD AND PUSH2 0x2DDD DUP2 DUP8 ADDRESS PUSH2 0x344F JUMP JUMPDEST TLOAD DUP1 PUSH2 0x2DEC JUMPI JUMPDEST POP POP ADD PUSH2 0x2DAD JUMP JUMPDEST PUSH0 SWAP2 PUSH2 0x2E0C SWAP2 DUP4 DUP2 SGT ISZERO PUSH2 0x2E14 JUMPI PUSH2 0x2E05 SWAP1 DUP10 DUP4 PUSH2 0x369A JUMP JUMPDEST DUP8 ADDRESS PUSH2 0x344F JUMP JUMPDEST TSTORE PUSH0 DUP1 PUSH2 0x2DE4 JUMP JUMPDEST PUSH2 0x2E20 PUSH2 0x2E32 SWAP2 PUSH2 0x28CF JUMP JUMPDEST DUP3 ISZERO DUP6 EQ PUSH2 0x2E37 JUMPI DUP9 SWAP1 JUMPDEST DUP11 DUP5 PUSH2 0x35C0 JUMP JUMPDEST PUSH2 0x2E05 JUMP JUMPDEST DUP5 SWAP1 PUSH2 0x2E2B JUMP JUMPDEST PUSH0 PUSH1 0x40 MLOAD PUSH1 0x20 DUP2 ADD SWAP1 PUSH32 0x507BA82850C15277B79BAE90C6E97B66228A117B64D05E46B3182D141DF61CE2 DUP3 MSTORE ADDRESS PUSH1 0x60 SHL PUSH1 0x40 DUP3 ADD MSTORE PUSH1 0x34 DUP2 MSTORE PUSH2 0x2D0B PUSH1 0x54 DUP3 PUSH2 0x2C3 JUMP JUMPDEST PUSH2 0x2E8D PUSH0 SWAP2 ADDRESS PUSH2 0x34C4 JUMP JUMPDEST TSTORE JUMP JUMPDEST PUSH1 0x1 PUSH1 0x1 PUSH1 0xA0 SHL SUB DUP2 AND SWAP1 DUP2 ISZERO PUSH2 0x2C05 JUMPI EXTCODESIZE ISZERO PUSH2 0x2F05 JUMPI PUSH0 SWAP2 DUP3 SWAP2 PUSH1 0x40 MLOAD DUP1 SWAP5 DUP2 DUP1 SWAP5 PUSH4 0x3BD1104B PUSH1 0xE0 SHL DUP3 MSTORE PUSH2 0x2ECF PUSH1 0x4 DUP4 ADD PUSH2 0x100 DUP2 ADD SWAP3 PUSH2 0x2434 JUMP JUMPDEST SUB SWAP3 GAS CALL PUSH0 SWAP2 DUP2 PUSH2 0x2EE9 JUMPI JUMPDEST POP PUSH2 0x390 JUMPI POP PUSH2 0x390 PUSH2 0x1D12 JUMP JUMPDEST PUSH2 0x2EFE SWAP2 SWAP3 POP RETURNDATASIZE DUP1 PUSH0 DUP4 RETURNDATACOPY PUSH2 0x2BF6 DUP2 DUP4 PUSH2 0x2C3 JUMP JUMPDEST SWAP1 PUSH0 PUSH2 0x2EDB JUMP JUMPDEST POP POP PUSH2 0x390 PUSH2 0x1D12 JUMP JUMPDEST PUSH1 0x40 MLOAD PUSH1 0x20 DUP2 ADD SWAP1 PUSH32 0x507BA82850C15277B79BAE90C6E97B66228A117B64D05E46B3182D141DF61CE2 DUP3 MSTORE ADDRESS PUSH1 0x60 SHL PUSH1 0x40 DUP3 ADD MSTORE PUSH1 0x34 DUP2 MSTORE PUSH2 0x2F52 PUSH1 0x54 DUP3 PUSH2 0x2C3 JUMP JUMPDEST MLOAD SWAP1 KECCAK256 TLOAD SWAP1 JUMP JUMPDEST ISZERO PUSH2 0x2F60 JUMPI JUMP JUMPDEST PUSH1 0x40 MLOAD PUSH3 0x461BCD PUSH1 0xE5 SHL DUP2 MSTORE PUSH1 0x20 PUSH1 0x4 DUP3 ADD MSTORE PUSH1 0x7 PUSH1 0x24 DUP3 ADD MSTORE PUSH7 0x4E6F20686F7073 PUSH1 0xC8 SHL PUSH1 0x44 DUP3 ADD MSTORE PUSH1 0x64 SWAP1 REVERT JUMPDEST SWAP2 SWAP1 DUP2 LT ISZERO PUSH2 0x1CE9 JUMPI PUSH1 0x5 SHL DUP2 ADD CALLDATALOAD SWAP1 PUSH1 0xBE NOT DUP2 CALLDATASIZE SUB ADD DUP3 SLT ISZERO PUSH2 0x1DF JUMPI ADD SWAP1 JUMP JUMPDEST CALLDATALOAD PUSH2 0x390 DUP2 PUSH2 0x393 JUMP JUMPDEST SWAP2 SWAP1 SWAP2 PUSH1 0x1 DUP1 PUSH1 0xA0 SHL SUB AND DUP1 PUSH0 MSTORE PUSH1 0x1 PUSH1 0x20 MSTORE PUSH1 0x40 PUSH0 KECCAK256 DUP4 PUSH0 MSTORE PUSH1 0x20 MSTORE PUSH1 0x40 PUSH0 KECCAK256 DUP1 SLOAD SWAP1 DUP4 DUP3 SUB SWAP2 DUP3 GT PUSH2 0x721 JUMPI SSTORE PUSH1 0x40 DUP1 MLOAD CALLER DUP2 MSTORE PUSH1 0x20 DUP2 ADD SWAP4 SWAP1 SWAP4 MSTORE PUSH0 SWAP3 PUSH0 MLOAD PUSH1 0x20 PUSH2 0x4051 PUSH0 CODECOPY PUSH0 MLOAD SWAP1 PUSH0 MSTORE SWAP2 DUP2 SWAP1 DUP2 ADD JUMPDEST SUB SWAP1 LOG4 JUMP JUMPDEST SWAP1 PUSH1 0xF SIGNEXTEND SWAP1 PUSH1 0xF SIGNEXTEND ADD SWAP1 PUSH1 0x1 PUSH1 0x1 PUSH1 0x7F SHL SUB NOT DUP3 SLT PUSH1 0x1 PUSH1 0x1 PUSH1 0x7F SHL SUB DUP4 SGT OR PUSH2 0x721 JUMPI JUMP JUMPDEST SWAP1 SWAP2 DUP2 PUSH0 MSTORE PUSH1 0x4 PUSH1 0x20 MSTORE PUSH1 0x1 PUSH1 0x1 PUSH1 0x80 SHL SUB PUSH2 0x306D PUSH2 0x3063 PUSH1 0x40 PUSH0 KECCAK256 SLOAD SWAP6 DUP4 DUP8 AND PUSH1 0xF SIGNEXTEND PUSH2 0x3014 JUMP JUMPDEST SWAP3 DUP6 PUSH1 0x80 SAR PUSH2 0x3014 JUMP JUMPDEST DUP2 NOT SWAP1 PUSH1 0x80 SHL AND SWAP2 AND OR SWAP2 DUP3 SUB PUSH2 0x3082 JUMPI POP POP JUMP JUMPDEST PUSH0 MSTORE PUSH1 0x4 PUSH1 0x20 MSTORE PUSH1 0x40 PUSH0 KECCAK256 SSTORE JUMP JUMPDEST SWAP1 PUSH2 0x309B SWAP2 ADDRESS PUSH2 0x344F JUMP JUMPDEST SWAP1 DUP2 TLOAD ADD SWAP1 TSTORE JUMP JUMPDEST PUSH1 0x1 PUSH1 0x1 PUSH1 0x80 SHL SUB SWAP3 SWAP4 PUSH0 EQ PUSH2 0x30D6 JUMPI POP AND SWAP1 DUP1 DUP3 LT PUSH2 0x30C1 JUMPI POP POP JUMP JUMPDEST PUSH4 0x1735867 PUSH1 0xE0 SHL PUSH0 MSTORE PUSH1 0x4 MSTORE PUSH1 0x24 MSTORE PUSH1 0x44 PUSH0 REVERT JUMPDEST SWAP1 POP AND SWAP1 DUP1 DUP3 LT PUSH2 0x30E5 JUMPI POP POP JUMP JUMPDEST PUSH4 0x68580A19 PUSH1 0xE0 SHL PUSH0 MSTORE PUSH1 0x4 MSTORE PUSH1 0x24 MSTORE PUSH1 0x44 PUSH0 REVERT JUMPDEST SWAP2 SWAP1 SWAP2 PUSH0 DUP4 DUP3 ADD SWAP4 DUP5 SLT SWAP2 SLT SWAP1 DUP1 ISZERO DUP3 AND SWAP2 ISZERO AND OR PUSH2 0x721 JUMPI JUMP JUMPDEST SWAP1 SWAP3 PUSH2 0x3122 DUP5 DUP4 ADDRESS PUSH2 0x344F JUMP JUMPDEST TLOAD PUSH2 0x312E DUP5 DUP5 ADDRESS PUSH2 0x344F JUMP JUMPDEST TLOAD SWAP2 PUSH1 0x1 PUSH1 0x1 PUSH1 0xA0 SHL SUB DUP6 DUP2 AND SWAP3 SWAP1 DUP8 AND DUP1 DUP5 EQ PUSH2 0x31F7 JUMPI SWAP2 DUP2 PUSH2 0x3191 SWAP6 SWAP4 PUSH0 PUSH2 0x1EE SWAP11 SWAP7 SWAP5 SLT PUSH0 EQ PUSH2 0x31D7 JUMPI PUSH2 0x3167 PUSH2 0x3176 SWAP3 PUSH2 0x28CF JUMP JUMPDEST SWAP1 PUSH2 0x31D0 JUMPI DUP3 SWAP1 JUMPDEST DUP9 DUP8 PUSH2 0x35C0 JUMP JUMPDEST PUSH0 DUP4 SGT ISZERO PUSH2 0x3196 JUMPI POP POP PUSH2 0x318B SWAP1 DUP5 DUP7 PUSH2 0x369A JUMP JUMPDEST DUP3 PUSH2 0x370B JUMP JUMPDEST PUSH2 0x370B JUMP JUMPDEST PUSH0 DUP4 SLT PUSH2 0x31A6 JUMPI JUMPDEST POP POP POP PUSH2 0x318B JUMP JUMPDEST PUSH2 0x31B2 PUSH2 0x31C0 SWAP4 PUSH2 0x28CF JUMP JUMPDEST SWAP2 PUSH2 0x31C8 JUMPI SWAP1 JUMPDEST DUP6 DUP8 PUSH2 0x35C0 JUMP JUMPDEST PUSH0 DUP1 DUP1 PUSH2 0x319E JUMP JUMPDEST POP PUSH0 SWAP1 PUSH2 0x31B9 JUMP JUMPDEST PUSH0 SWAP1 PUSH2 0x316F JUMP JUMPDEST POP PUSH0 DUP2 SGT PUSH2 0x31E6 JUMPI JUMPDEST POP PUSH2 0x3176 JUMP JUMPDEST PUSH2 0x31F1 SWAP1 DUP8 DUP7 PUSH2 0x369A JUMP JUMPDEST PUSH0 PUSH2 0x31E0 JUMP JUMPDEST SWAP3 POP PUSH2 0x1EE SWAP7 SWAP6 SWAP4 PUSH2 0x3208 SWAP2 PUSH2 0x30FA JUMP JUMPDEST SWAP3 PUSH0 DUP5 SLT ISZERO PUSH2 0x3234 JUMPI POP PUSH2 0x321E PUSH2 0x3191 SWAP4 PUSH2 0x28CF JUMP JUMPDEST SWAP2 PUSH2 0x322C JUMPI SWAP1 JUMPDEST DUP4 DUP6 PUSH2 0x35C0 JUMP JUMPDEST POP PUSH0 SWAP1 PUSH2 0x3225 JUMP JUMPDEST SWAP3 SWAP2 POP POP DUP3 PUSH0 DUP3 SGT PUSH2 0x3249 JUMPI JUMPDEST POP POP POP PUSH2 0x370B JUMP JUMPDEST PUSH2 0x3252 SWAP3 PUSH2 0x369A JUMP JUMPDEST PUSH0 DUP1 DUP3 PUSH2 0x3241 JUMP JUMPDEST PUSH1 0x1 PUSH1 0x1 PUSH1 0x80 SHL SUB PUSH8 0xDE0B6B3A7640000 SWAP2 AND MUL SWAP1 PUSH1 0x1 PUSH1 0x1 PUSH1 0x80 SHL SUB DUP3 AND SWAP2 DUP3 SUB PUSH2 0x721 JUMPI JUMP JUMPDEST SWAP3 SWAP5 SWAP4 SWAP2 SWAP1 SWAP4 DUP3 PUSH0 MSTORE PUSH1 0x3 PUSH1 0x20 MSTORE PUSH1 0x40 PUSH0 KECCAK256 SLOAD ISZERO PUSH0 EQ PUSH2 0x32C2 JUMPI POP POP POP PUSH2 0x32A9 SWAP3 POP PUSH2 0x2302 JUMP JUMPDEST SWAP1 JUMPDEST DUP2 ISZERO PUSH2 0x32B3 JUMPI JUMP JUMPDEST PUSH4 0x283EEADF PUSH1 0xE0 SHL PUSH0 MSTORE PUSH1 0x4 PUSH0 REVERT JUMPDEST SWAP1 SWAP3 SWAP2 SWAP4 PUSH8 0xDE0B6B3A7640000 DUP2 MUL SWAP1 DUP1 DUP3 DIV PUSH8 0xDE0B6B3A7640000 EQ SWAP1 ISZERO OR ISZERO PUSH2 0x721 JUMPI DUP2 PUSH2 0x32F1 SWAP2 PUSH2 0x286F JUMP JUMPDEST DUP3 ADD DUP1 SWAP3 GT PUSH2 0x721 JUMPI PUSH2 0x3332 PUSH2 0x175D SWAP4 PUSH1 0x1 PUSH1 0x1 PUSH1 0x80 SHL SUB PUSH2 0x332B PUSH2 0x3342 SWAP5 PUSH2 0x175D PUSH2 0x331F PUSH2 0x3349 SWAP12 PUSH2 0x325A JUMP JUMPDEST PUSH1 0x1 PUSH1 0x1 PUSH1 0x80 SHL SUB AND SWAP1 JUMP JUMPDEST SWAP2 AND PUSH2 0x2302 JUMP JUMPDEST SWAP4 PUSH1 0x3 SWAP1 PUSH0 MSTORE PUSH1 0x20 MSTORE PUSH1 0x40 PUSH0 KECCAK256 SWAP1 JUMP JUMPDEST SLOAD SWAP1 PUSH2 0x285C JUMP JUMPDEST SWAP1 PUSH2 0x32AB JUMP JUMPDEST SWAP2 SWAP1 SWAP2 PUSH1 0x1 DUP1 PUSH1 0xA0 SHL SUB AND SWAP1 DUP2 PUSH0 MSTORE PUSH1 0x1 PUSH1 0x20 MSTORE PUSH1 0x40 PUSH0 KECCAK256 DUP4 PUSH0 MSTORE PUSH1 0x20 MSTORE PUSH1 0x40 PUSH0 KECCAK256 DUP1 SLOAD SWAP1 DUP3 DUP3 ADD DUP1 SWAP3 GT PUSH2 0x721 JUMPI SSTORE PUSH1 0x40 DUP1 MLOAD CALLER DUP2 MSTORE PUSH1 0x20 DUP2 ADD SWAP3 SWAP1 SWAP3 MSTORE PUSH0 SWAP2 PUSH0 MLOAD PUSH1 0x20 PUSH2 0x4051 PUSH0 CODECOPY PUSH0 MLOAD SWAP1 PUSH0 MSTORE SWAP2 DUP2 SWAP1 DUP2 ADD PUSH2 0x300F JUMP JUMPDEST SWAP1 PUSH1 0x60 SWAP2 DUP1 TLOAD SWAP1 DUP2 ISZERO DUP1 PUSH2 0x3406 JUMPI JUMPDEST ISZERO PUSH2 0x33C0 JUMPI POP POP JUMP JUMPDEST SWAP1 SWAP3 POP PUSH1 0x1F PUSH1 0x40 MLOAD SWAP4 DUP1 DUP6 MSTORE ADD SWAP1 DUP2 PUSH1 0x5 SHR SWAP1 PUSH0 JUMPDEST DUP3 DUP2 LT PUSH2 0x33ED JUMPI POP POP POP PUSH1 0x1F NOT AND DUP3 ADD PUSH1 0x20 ADD PUSH1 0x40 MSTORE JUMP JUMPDEST DUP1 PUSH1 0x1 DUP1 SWAP3 DUP5 ADD ADD TLOAD PUSH1 0x20 DUP3 PUSH1 0x5 SHL DUP10 ADD ADD MSTORE ADD PUSH2 0x33D5 JUMP JUMPDEST SWAP4 POP PUSH1 0x40 MLOAD SWAP4 PUSH0 DUP6 MSTORE PUSH1 0x20 DUP6 ADD PUSH1 0x40 MSTORE PUSH2 0x33B7 JUMP JUMPDEST PUSH1 0x1F DUP3 MLOAD DUP1 DUP4 TSTORE ADD PUSH1 0x5 SHR SWAP2 PUSH0 JUMPDEST DUP4 DUP2 LT PUSH2 0x3436 JUMPI POP POP POP POP JUMP JUMPDEST DUP1 PUSH1 0x20 PUSH1 0x1 SWAP3 PUSH1 0x5 SHL DUP5 ADD ADD MLOAD DUP3 DUP3 DUP7 ADD ADD TSTORE ADD PUSH2 0x3429 JUMP JUMPDEST SWAP2 PUSH1 0x40 MLOAD SWAP2 PUSH1 0x20 DUP4 ADD SWAP4 PUSH32 0x71AA94563C1D78D77DF681AD802FC1A81EA7D00CFFE4BBE002400E1D66DE80D2 DUP6 MSTORE PUSH1 0x1 PUSH1 0x1 PUSH1 0x60 SHL SUB NOT SWAP1 PUSH1 0x60 SHL AND PUSH1 0x40 DUP5 ADD MSTORE PUSH1 0x1 PUSH1 0x1 PUSH1 0x60 SHL SUB NOT SWAP1 PUSH1 0x60 SHL AND PUSH1 0x54 DUP4 ADD MSTORE PUSH1 0x1 PUSH1 0x1 PUSH1 0x60 SHL SUB NOT SWAP1 PUSH1 0x60 SHL AND PUSH1 0x68 DUP3 ADD MSTORE PUSH1 0x5C DUP2 MSTORE PUSH2 0x2B06 PUSH1 0x7C DUP3 PUSH2 0x2C3 JUMP JUMPDEST SWAP1 PUSH1 0x40 MLOAD SWAP1 PUSH1 0x20 DUP3 ADD SWAP3 PUSH32 0xE88690B85C82523984F05D1F281684A73AA4D4303BCA19CFE29AA89AE744616A DUP5 MSTORE PUSH1 0x1 PUSH1 0x1 PUSH1 0x60 SHL SUB NOT SWAP1 PUSH1 0x60 SHL AND PUSH1 0x40 DUP4 ADD MSTORE PUSH1 0x1 PUSH1 0x1 PUSH1 0x60 SHL SUB NOT SWAP1 PUSH1 0x60 SHL AND PUSH1 0x54 DUP3 ADD MSTORE PUSH1 0x48 DUP2 MSTORE PUSH2 0x2B06 PUSH1 0x68 DUP3 PUSH2 0x2C3 JUMP JUMPDEST SWAP1 DUP2 PUSH1 0x20 SWAP2 SUB SLT PUSH2 0x1DF JUMPI MLOAD PUSH2 0x390 DUP2 PUSH2 0x393 JUMP JUMPDEST ISZERO PUSH2 0x3542 JUMPI JUMP JUMPDEST PUSH1 0x40 MLOAD PUSH3 0x461BCD PUSH1 0xE5 SHL DUP2 MSTORE PUSH1 0x20 PUSH1 0x4 DUP3 ADD MSTORE PUSH1 0x15 PUSH1 0x24 DUP3 ADD MSTORE PUSH21 0x115490CC8C081D1C985B9CD9995C8819985A5B1959 PUSH1 0x5A SHL PUSH1 0x44 DUP3 ADD MSTORE PUSH1 0x64 SWAP1 REVERT JUMPDEST ISZERO PUSH2 0x3586 JUMPI JUMP JUMPDEST PUSH1 0x40 MLOAD PUSH3 0x461BCD PUSH1 0xE5 SHL DUP2 MSTORE PUSH1 0x20 PUSH1 0x4 DUP3 ADD MSTORE PUSH1 0x12 PUSH1 0x24 DUP3 ADD MSTORE PUSH18 0x125B98DBDC9C9958DD08115512081CD95B9D PUSH1 0x72 SHL PUSH1 0x44 DUP3 ADD MSTORE PUSH1 0x64 SWAP1 REVERT JUMPDEST PUSH1 0x1 PUSH1 0x1 PUSH1 0xA0 SHL SUB AND SWAP3 SWAP1 DUP4 PUSH2 0x35DC JUMPI POP PUSH2 0x1EE SWAP3 POP EQ PUSH2 0x357F JUMP JUMPDEST SWAP2 SWAP1 PUSH2 0x3662 JUMPI PUSH1 0x40 MLOAD PUSH4 0x23B872DD PUSH1 0xE0 SHL DUP2 MSTORE PUSH1 0x1 PUSH1 0x1 PUSH1 0xA0 SHL SUB SWAP1 SWAP3 AND PUSH1 0x4 DUP4 ADD MSTORE ADDRESS PUSH1 0x24 DUP4 ADD MSTORE PUSH1 0x44 DUP3 ADD MSTORE SWAP1 PUSH1 0x20 SWAP1 DUP3 SWAP1 DUP2 PUSH0 DUP2 PUSH1 0x64 DUP2 ADD JUMPDEST SUB SWAP3 GAS CALL DUP1 ISZERO PUSH2 0xEDF JUMPI PUSH2 0x1EE SWAP2 PUSH0 SWAP2 PUSH2 0x3633 JUMPI JUMPDEST POP PUSH2 0x353B JUMP JUMPDEST PUSH2 0x3655 SWAP2 POP PUSH1 0x20 RETURNDATASIZE PUSH1 0x20 GT PUSH2 0x365B JUMPI JUMPDEST PUSH2 0x364D DUP2 DUP4 PUSH2 0x2C3 JUMP JUMPDEST DUP2 ADD SWAP1 PUSH2 0x3526 JUMP JUMPDEST PUSH0 PUSH2 0x362D JUMP JUMPDEST POP RETURNDATASIZE PUSH2 0x3643 JUMP JUMPDEST PUSH1 0x40 MLOAD PUSH3 0x461BCD PUSH1 0xE5 SHL DUP2 MSTORE PUSH1 0x20 PUSH1 0x4 DUP3 ADD MSTORE PUSH1 0x10 PUSH1 0x24 DUP3 ADD MSTORE PUSH16 0x115512081B9BDD08195E1C1958DD1959 PUSH1 0x82 SHL PUSH1 0x44 DUP3 ADD MSTORE PUSH1 0x64 SWAP1 REVERT JUMPDEST PUSH1 0x1 PUSH1 0x1 PUSH1 0xA0 SHL SUB AND DUP1 PUSH2 0x36D4 JUMPI POP PUSH0 DUP1 DUP1 SWAP4 DUP2 SWAP4 DUP3 SWAP1 DUP3 ISZERO PUSH2 0x36CA JUMPI JUMPDEST PUSH1 0x1 PUSH1 0x1 PUSH1 0xA0 SHL SUB AND SWAP1 CALL ISZERO PUSH2 0xEDF JUMPI JUMP JUMPDEST PUSH2 0x8FC SWAP2 POP PUSH2 0x36B8 JUMP JUMPDEST PUSH1 0x40 MLOAD PUSH4 0xA9059CBB PUSH1 0xE0 SHL DUP2 MSTORE PUSH1 0x1 PUSH1 0x1 PUSH1 0xA0 SHL SUB SWAP1 SWAP3 AND PUSH1 0x4 DUP4 ADD MSTORE PUSH1 0x24 DUP3 ADD SWAP3 SWAP1 SWAP3 MSTORE SWAP1 PUSH1 0x20 SWAP1 DUP3 SWAP1 DUP2 PUSH0 DUP2 PUSH1 0x44 DUP2 ADD PUSH2 0x3618 JUMP JUMPDEST PUSH0 SWAP2 PUSH2 0x2E8D SWAP2 ADDRESS PUSH2 0x344F JUMP JUMPDEST SWAP1 CALLDATALOAD SWAP1 PUSH1 0x1E NOT DUP2 CALLDATASIZE SUB ADD DUP3 SLT ISZERO PUSH2 0x1DF JUMPI ADD DUP1 CALLDATALOAD SWAP1 PUSH1 0x1 PUSH1 0x1 PUSH1 0x40 SHL SUB DUP3 GT PUSH2 0x1DF JUMPI PUSH1 0x20 ADD SWAP2 DUP2 PUSH1 0x5 SHL CALLDATASIZE SUB DUP4 SGT PUSH2 0x1DF JUMPI JUMP JUMPDEST ISZERO PUSH2 0x3753 JUMPI JUMP JUMPDEST PUSH1 0x40 MLOAD PUSH3 0x461BCD PUSH1 0xE5 SHL DUP2 MSTORE PUSH1 0x20 PUSH1 0x4 DUP3 ADD MSTORE PUSH1 0x11 PUSH1 0x24 DUP3 ADD MSTORE PUSH17 0x4D69736D61746368656420617272617973 PUSH1 0x78 SHL PUSH1 0x44 DUP3 ADD MSTORE PUSH1 0x64 SWAP1 REVERT JUMPDEST CALLDATALOAD PUSH2 0x390 DUP2 PUSH2 0x3A8 JUMP JUMPDEST SWAP6 SWAP5 SWAP4 SWAP3 SWAP2 POP PUSH1 0x60 DUP7 ADD PUSH2 0x37AA DUP2 DUP9 PUSH2 0x3717 JUMP JUMPDEST SWAP1 POP ISZERO PUSH2 0x384C JUMPI PUSH2 0x37D6 PUSH2 0x37C1 PUSH1 0x80 DUP10 ADD DUP10 PUSH2 0x3717 JUMP JUMPDEST SWAP1 POP PUSH2 0x37CD DUP4 DUP11 PUSH2 0x3717 JUMP JUMPDEST SWAP2 SWAP1 POP EQ PUSH2 0x374C JUMP JUMPDEST PUSH1 0x1 PUSH2 0x37E2 DUP3 DUP10 PUSH2 0x3717 JUMP JUMPDEST SWAP1 POP EQ PUSH0 EQ PUSH2 0x3840 JUMPI DUP7 PUSH2 0x37F8 PUSH2 0x390 SWAP9 PUSH2 0x2328 JUMP JUMPDEST SWAP2 PUSH2 0x3805 PUSH1 0x20 DUP4 ADD PUSH2 0x2328 JUMP JUMPDEST PUSH2 0x3838 PUSH1 0xA0 PUSH2 0x3831 PUSH2 0x382C PUSH2 0x3826 PUSH2 0x381F PUSH1 0x40 DUP10 ADD PUSH2 0x2328 JUMP JUMPDEST SWAP7 DUP9 PUSH2 0x3717 JUMP JUMPDEST SWAP1 PUSH2 0x230F JUMP JUMPDEST PUSH2 0x378C JUMP JUMPDEST SWAP5 ADD PUSH2 0x2FB1 JUMP JUMPDEST SWAP4 PUSH1 0x3 PUSH2 0x3D55 JUMP JUMPDEST POP PUSH2 0x390 SWAP6 PUSH1 0x3 PUSH2 0x39A1 JUMP JUMPDEST PUSH1 0x40 MLOAD PUSH3 0x461BCD PUSH1 0xE5 SHL DUP2 MSTORE PUSH1 0x20 PUSH1 0x4 DUP3 ADD MSTORE PUSH1 0xB PUSH1 0x24 DUP3 ADD MSTORE PUSH11 0x4E6F206D61726B696E6773 PUSH1 0xA8 SHL PUSH1 0x44 DUP3 ADD MSTORE PUSH1 0x64 SWAP1 REVERT JUMPDEST SWAP2 SWAP1 SWAP2 PUSH1 0x40 DUP2 DUP5 SUB SLT PUSH2 0x1DF JUMPI DUP1 MLOAD PUSH1 0x1 PUSH1 0x1 PUSH1 0x40 SHL SUB DUP2 GT PUSH2 0x1DF JUMPI DUP4 PUSH2 0x38A8 SWAP2 DUP4 ADD PUSH2 0x1D6E JUMP JUMPDEST SWAP3 PUSH1 0x20 DUP3 ADD MLOAD PUSH1 0x1 PUSH1 0x1 PUSH1 0x40 SHL SUB DUP2 GT PUSH2 0x1DF JUMPI PUSH2 0x390 SWAP3 ADD PUSH2 0x1D6E JUMP JUMPDEST SWAP1 PUSH1 0x20 DUP1 DUP4 MLOAD SWAP3 DUP4 DUP2 MSTORE ADD SWAP3 ADD SWAP1 PUSH0 JUMPDEST DUP2 DUP2 LT PUSH2 0x38E3 JUMPI POP POP POP SWAP1 JUMP JUMPDEST DUP3 MLOAD PUSH1 0x1 PUSH1 0x1 PUSH1 0xE8 SHL SUB NOT AND DUP5 MSTORE PUSH1 0x20 SWAP4 DUP5 ADD SWAP4 SWAP1 SWAP3 ADD SWAP2 PUSH1 0x1 ADD PUSH2 0x38D6 JUMP JUMPDEST DUP1 MLOAD PUSH1 0x1 PUSH1 0x1 PUSH1 0xA0 SHL SUB SWAP1 DUP2 AND DUP4 MSTORE PUSH1 0x20 DUP1 DUP4 ADD MLOAD DUP3 AND SWAP1 DUP5 ADD MSTORE PUSH1 0x40 DUP1 DUP4 ADD MLOAD SWAP1 SWAP2 AND SWAP1 DUP4 ADD MSTORE PUSH1 0x60 DUP1 DUP3 ADD MLOAD PUSH1 0xC0 SWAP2 DUP5 ADD DUP3 SWAP1 MSTORE PUSH2 0x390 SWAP4 SWAP2 PUSH1 0xA0 SWAP2 PUSH2 0x394D SWAP2 DUP5 ADD SWAP1 PUSH2 0x59D JUMP JUMPDEST SWAP3 PUSH1 0x80 DUP2 ADD MLOAD ISZERO ISZERO PUSH1 0x80 DUP5 ADD MSTORE ADD MLOAD SWAP1 PUSH1 0xA0 DUP2 DUP5 SUB SWAP2 ADD MSTORE PUSH2 0x38C6 JUMP JUMPDEST SWAP2 PUSH2 0x3993 SWAP1 PUSH2 0x3985 PUSH2 0x390 SWAP6 SWAP4 PUSH1 0x60 DUP7 MSTORE PUSH1 0x60 DUP7 ADD SWAP1 PUSH2 0x3903 JUMP JUMPDEST SWAP1 DUP5 DUP3 SUB PUSH1 0x20 DUP7 ADD MSTORE PUSH2 0x1DF0 JUMP JUMPDEST SWAP2 PUSH1 0x40 DUP2 DUP5 SUB SWAP2 ADD MSTORE PUSH2 0x1DF0 JUMP JUMPDEST SWAP7 SWAP5 SWAP6 SWAP1 SWAP3 SWAP4 SWAP2 SWAP7 PUSH1 0x60 DUP5 ADD SWAP8 PUSH2 0x39B8 DUP10 DUP7 PUSH2 0x3717 JUMP JUMPDEST SWAP7 SWAP1 POP PUSH2 0x3D12 JUMPI JUMPDEST POP PUSH2 0x39CA DUP6 PUSH2 0x1C96 JUMP JUMPDEST SWAP2 PUSH2 0x39D4 DUP7 PUSH2 0x1C96 JUMP JUMPDEST SWAP1 PUSH0 JUMPDEST DUP8 DUP2 LT PUSH2 0x3C7C JUMPI POP DUP2 PUSH0 SWAP2 DUP6 DUP4 DUP10 PUSH2 0x3A9B PUSH2 0x3ABD SWAP14 SWAP15 SWAP16 PUSH2 0x3A6F PUSH2 0x3A94 PUSH2 0x39FD DUP6 PUSH2 0x2328 JUMP JUMPDEST SWAP5 PUSH2 0x3A86 PUSH2 0x3A0D PUSH1 0x20 DUP4 ADD PUSH2 0x2328 JUMP JUMPDEST SWAP5 PUSH2 0x3A42 PUSH2 0x3A7F PUSH2 0x3A20 PUSH1 0x40 DUP7 ADD PUSH2 0x2328 JUMP JUMPDEST PUSH2 0x3A2D PUSH1 0x80 DUP8 ADD DUP8 PUSH2 0x3717 JUMP JUMPDEST SWAP4 SWAP1 SWAP5 PUSH2 0x3A3C PUSH1 0xA0 DUP10 ADD PUSH2 0x2FB1 JUMP JUMPDEST SWAP8 PUSH2 0x3717 JUMP JUMPDEST SWAP9 SWAP1 SWAP10 PUSH2 0x3A5F PUSH2 0x3A50 PUSH2 0x2E4 JUMP JUMPDEST PUSH1 0x1 PUSH1 0x1 PUSH1 0xA0 SHL SUB SWAP1 SWAP15 AND DUP15 MSTORE JUMP JUMPDEST PUSH1 0x1 PUSH1 0x1 PUSH1 0xA0 SHL SUB AND PUSH1 0x20 DUP14 ADD MSTORE JUMP JUMPDEST PUSH1 0x1 PUSH1 0x1 PUSH1 0xA0 SHL SUB AND PUSH1 0x40 DUP12 ADD MSTORE JUMP JUMPDEST CALLDATASIZE SWAP2 PUSH2 0x329 JUMP JUMPDEST PUSH1 0x60 DUP8 ADD MSTORE ISZERO ISZERO PUSH1 0x80 DUP7 ADD MSTORE JUMP JUMPDEST CALLDATASIZE SWAP2 PUSH2 0x3BA JUMP JUMPDEST PUSH1 0xA0 DUP3 ADD MSTORE PUSH1 0x40 MLOAD PUSH4 0x27B8F7B PUSH1 0xE1 SHL DUP2 MSTORE SWAP13 DUP14 SWAP6 DUP7 SWAP5 DUP6 SWAP4 PUSH1 0x4 DUP6 ADD PUSH2 0x396A JUMP JUMPDEST SUB SWAP3 PUSH1 0x1 PUSH1 0x1 PUSH1 0xA0 SHL SUB AND GAS CALL SWAP1 DUP2 ISZERO PUSH2 0xEDF JUMPI PUSH0 SWAP8 PUSH0 SWAP3 PUSH2 0x3C55 JUMPI JUMPDEST POP PUSH0 JUMPDEST DUP8 DUP2 LT PUSH2 0x3B59 JUMPI POP POP POP POP POP SWAP1 PUSH2 0x3B06 SWAP5 SWAP6 PUSH2 0x3B00 SWAP4 SWAP3 PUSH2 0x3B0A JUMPI JUMPDEST POP POP PUSH2 0x22E7 JUMP JUMPDEST SWAP1 PUSH2 0x1CFE JUMP JUMPDEST MLOAD SWAP1 JUMP JUMPDEST DUP2 PUSH2 0x3B1A PUSH1 0xA0 PUSH2 0x3B44 SWAP5 ADD PUSH2 0x2FB1 JUMP JUMPDEST ISZERO PUSH2 0x3B4B JUMPI PUSH1 0x20 PUSH2 0x3B2B SWAP2 ADD PUSH2 0x2328 JUMP JUMPDEST PUSH2 0x3B3D PUSH2 0x3B37 DUP6 PUSH2 0x22E7 JUMP JUMPDEST DUP8 PUSH2 0x1CFE JUMP JUMPDEST MLOAD SWAP2 PUSH2 0x3090 JUMP JUMPDEST PUSH0 DUP1 PUSH2 0x3AF9 JUMP JUMPDEST PUSH2 0x3B54 SWAP1 PUSH2 0x2328 JUMP JUMPDEST PUSH2 0x3B2B JUMP JUMPDEST DUP1 PUSH2 0x3C1B DUP11 DUP10 PUSH2 0x3B83 DUP5 PUSH2 0x3B7C PUSH1 0x1 SWAP8 PUSH2 0x3B76 PUSH1 0x80 DUP7 ADD DUP7 PUSH2 0x3717 JUMP JUMPDEST SWAP1 PUSH2 0x2318 JUMP JUMPDEST CALLDATALOAD SWAP4 PUSH2 0x1CFE JUMP JUMPDEST MLOAD PUSH2 0x3BC1 PUSH2 0x3BA1 PUSH2 0x3B94 DUP8 DUP14 PUSH2 0x1CFE JUMP JUMPDEST MLOAD PUSH1 0x1 PUSH1 0x1 PUSH1 0x80 SHL SUB AND SWAP1 JUMP JUMPDEST DUP3 PUSH2 0x3BAF PUSH2 0x3B94 DUP10 DUP13 PUSH2 0x1CFE JUMP JUMPDEST PUSH2 0x3BBB PUSH1 0xA0 DUP8 ADD PUSH2 0x2FB1 JUMP JUMPDEST SWAP3 PUSH2 0x30A3 JUMP JUMPDEST PUSH2 0x3BCB DUP6 DUP10 PUSH2 0x1CFE JUMP JUMPDEST MLOAD SWAP3 PUSH2 0x3BD9 PUSH1 0xA0 DUP5 ADD PUSH2 0x2FB1 JUMP JUMPDEST ISZERO PUSH2 0x3C35 JUMPI PUSH2 0x3BF8 PUSH1 0xA0 PUSH1 0x1 PUSH1 0x1 PUSH1 0x80 SHL SUB DUP4 AND PUSH1 0xF SIGNEXTEND SWAP5 JUMPDEST ADD PUSH2 0x2FB1 JUMP JUMPDEST ISZERO PUSH2 0x3C21 JUMPI POP PUSH1 0x1 PUSH1 0x1 PUSH1 0x80 SHL SUB PUSH2 0x3C13 SWAP2 AND PUSH1 0xF SIGNEXTEND PUSH2 0x288D JUMP JUMPDEST SWAP2 JUMPDEST DUP9 PUSH2 0x3E79 JUMP JUMPDEST ADD PUSH2 0x3ADD JUMP JUMPDEST PUSH1 0x1 PUSH1 0x1 PUSH1 0x80 SHL SUB SWAP2 POP AND PUSH1 0xF SIGNEXTEND SWAP2 PUSH2 0x3C15 JUMP JUMPDEST PUSH2 0x3BF8 PUSH1 0xA0 PUSH2 0x3C4F PUSH1 0x1 PUSH1 0x1 PUSH1 0x80 SHL SUB DUP6 AND PUSH1 0xF SIGNEXTEND PUSH2 0x288D JUMP JUMPDEST SWAP5 PUSH2 0x3BF2 JUMP JUMPDEST SWAP1 SWAP8 POP PUSH2 0x3C74 SWAP2 POP RETURNDATASIZE DUP1 PUSH0 DUP4 RETURNDATACOPY PUSH2 0x3C6C DUP2 DUP4 PUSH2 0x2C3 JUMP JUMPDEST DUP2 ADD SWAP1 PUSH2 0x387F JUMP JUMPDEST SWAP1 SWAP7 PUSH0 PUSH2 0x3ADA JUMP JUMPDEST PUSH1 0x1 SWAP1 PUSH2 0x3D0C PUSH2 0x3D02 PUSH2 0x3CE7 PUSH2 0x3CC6 DUP16 DUP13 PUSH2 0x3C96 DUP2 PUSH2 0x2328 JUMP JUMPDEST SWAP2 PUSH2 0x3CC0 PUSH2 0x382C DUP10 PUSH2 0x3B76 PUSH2 0x3CAD PUSH1 0x20 DUP8 ADD PUSH2 0x2328 JUMP JUMPDEST SWAP5 PUSH2 0x3CBA PUSH1 0x40 DUP9 ADD PUSH2 0x2328 JUMP JUMPDEST SWAP7 PUSH2 0x3717 JUMP JUMPDEST SWAP3 PUSH2 0x2A9A JUMP JUMPDEST DUP9 PUSH1 0x1 SWAP2 PUSH0 MSTORE ADD PUSH1 0x20 MSTORE PUSH1 0x40 PUSH0 KECCAK256 SLOAD SWAP1 PUSH1 0x1 PUSH1 0x1 PUSH1 0x80 SHL SUB DUP3 AND SWAP2 PUSH1 0x80 SHR SWAP1 JUMP JUMPDEST PUSH2 0x3CF4 DUP6 DUP10 SWAP5 SWAP4 SWAP5 PUSH2 0x1CFE JUMP JUMPDEST SWAP1 PUSH1 0x1 PUSH1 0x1 PUSH1 0x80 SHL SUB AND SWAP1 MSTORE JUMP JUMPDEST PUSH2 0x3CF4 DUP4 DUP10 PUSH2 0x1CFE JUMP JUMPDEST ADD PUSH2 0x39D7 JUMP JUMPDEST PUSH2 0x3D40 SWAP1 PUSH2 0x3D22 PUSH1 0xA0 DUP8 ADD PUSH2 0x2FB1 JUMP JUMPDEST ISZERO PUSH2 0x3D46 JUMPI PUSH2 0x3D39 PUSH2 0x3D33 DUP8 PUSH2 0x2328 JUMP JUMPDEST SWAP2 PUSH2 0x28CF JUMP JUMPDEST SWAP1 DUP10 PUSH2 0x3090 JUMP JUMPDEST PUSH0 PUSH2 0x39C0 JUMP JUMPDEST PUSH2 0x3D39 PUSH2 0x3D33 PUSH1 0x20 DUP9 ADD PUSH2 0x2328 JUMP JUMPDEST SWAP2 DUP6 DUP1 SWAP13 SWAP12 DUP3 SWAP9 SWAP4 SWAP8 SWAP12 SWAP10 SWAP6 SWAP11 SWAP7 SWAP11 PUSH2 0x3D70 DUP13 DUP3 DUP7 DUP13 PUSH2 0x2A9A JUMP JUMPDEST SWAP7 PUSH2 0x3E50 JUMPI JUMPDEST DUP9 DUP6 PUSH2 0x3D9D DUP10 DUP10 PUSH1 0x1 SWAP2 PUSH0 MSTORE ADD PUSH1 0x20 MSTORE PUSH1 0x40 PUSH0 KECCAK256 SLOAD SWAP1 PUSH1 0x1 PUSH1 0x1 PUSH1 0x80 SHL SUB DUP3 AND SWAP2 PUSH1 0x80 SHR SWAP1 JUMP JUMPDEST SWAP15 DUP16 SWAP5 DUP3 SWAP9 PUSH2 0x3DAD SWAP9 SWAP4 SWAP6 PUSH2 0x3F17 JUMP JUMPDEST SWAP12 DUP13 DUP1 SWAP11 PUSH2 0x3DBA SWAP4 PUSH2 0x30A3 JUMP JUMPDEST PUSH2 0x3DF5 SWAP3 DUP10 ISZERO PUSH2 0x3E35 JUMPI PUSH1 0x1 PUSH1 0x1 PUSH1 0x80 SHL SUB DUP3 AND PUSH1 0xF SIGNEXTEND SWAP2 JUMPDEST DUP11 ISZERO PUSH2 0x3E23 JUMPI POP PUSH2 0x3DEF PUSH1 0x1 PUSH1 0x1 PUSH1 0x80 SHL SUB DUP11 AND PUSH1 0xF SIGNEXTEND PUSH2 0x288D JUMP JUMPDEST SWAP3 PUSH2 0x3E79 JUMP JUMPDEST PUSH2 0x3E01 JUMPI JUMPDEST POP POP POP POP POP JUMP JUMPDEST PUSH2 0x3E11 SWAP5 ISZERO PUSH2 0x3E1B JUMPI POP SWAP1 PUSH2 0x3090 JUMP JUMPDEST PUSH0 DUP3 DUP2 DUP1 DUP1 PUSH2 0x3DFA JUMP JUMPDEST SWAP1 POP SWAP1 PUSH2 0x3090 JUMP JUMPDEST PUSH1 0x1 PUSH1 0x1 PUSH1 0x80 SHL SUB AND PUSH1 0xF SIGNEXTEND SWAP3 PUSH2 0x3E79 JUMP JUMPDEST PUSH2 0x3E4A PUSH1 0x1 PUSH1 0x1 PUSH1 0x80 SHL SUB DUP11 AND PUSH1 0xF SIGNEXTEND PUSH2 0x288D JUMP JUMPDEST SWAP2 PUSH2 0x3DD3 JUMP JUMPDEST DUP3 ISZERO PUSH2 0x3E70 JUMPI PUSH2 0x3E6B DUP10 JUMPDEST PUSH2 0x3E64 DUP8 PUSH2 0x28CF JUMP JUMPDEST SWAP1 DUP14 PUSH2 0x3090 JUMP JUMPDEST PUSH2 0x3D76 JUMP JUMPDEST PUSH2 0x3E6B DUP5 PUSH2 0x3E5B JUMP JUMPDEST PUSH1 0x1 SWAP1 SWAP4 SWAP3 SWAP4 ADD SWAP2 DUP2 PUSH0 MSTORE DUP3 PUSH1 0x20 MSTORE PUSH1 0x1 PUSH1 0x1 PUSH1 0x80 SHL SUB PUSH2 0x3EB1 PUSH2 0x3EA7 PUSH1 0x40 PUSH0 KECCAK256 SLOAD SWAP7 DUP4 DUP9 AND PUSH1 0xF SIGNEXTEND PUSH2 0x3014 JUMP JUMPDEST SWAP3 DUP7 PUSH1 0x80 SAR PUSH2 0x3014 JUMP JUMPDEST DUP2 NOT SWAP1 PUSH1 0x80 SHL AND SWAP2 AND OR SWAP3 DUP4 SUB PUSH2 0x3EC7 JUMPI POP POP POP JUMP JUMPDEST PUSH0 MSTORE PUSH1 0x20 MSTORE PUSH1 0x40 PUSH0 KECCAK256 SSTORE JUMP JUMPDEST SWAP2 SWAP1 DUP3 PUSH1 0x40 SWAP2 SUB SLT PUSH2 0x1DF JUMPI PUSH1 0x20 DUP3 MLOAD SWAP3 ADD MLOAD SWAP1 JUMP JUMPDEST SWAP2 SWAP4 SWAP3 PUSH1 0x1 PUSH1 0x1 PUSH1 0x80 SHL SUB SWAP1 DUP2 PUSH2 0x3F0A PUSH1 0x40 SWAP5 PUSH1 0x60 DUP8 MSTORE PUSH1 0x60 DUP8 ADD SWAP1 PUSH2 0x3903 JUMP JUMPDEST SWAP7 AND PUSH1 0x20 DUP6 ADD MSTORE AND SWAP2 ADD MSTORE JUMP JUMPDEST PUSH2 0x3FBB SWAP9 SWAP4 PUSH0 SWAP3 PUSH2 0x3F8D PUSH1 0x40 SWAP9 SWAP11 SWAP8 SWAP10 SWAP6 PUSH2 0x3F7E PUSH2 0x3F33 PUSH2 0x1C74 JUMP JUMPDEST SWAP4 DUP14 PUSH2 0x3F3E DUP7 PUSH2 0x1CDC JUMP JUMPDEST MSTORE PUSH2 0x3F54 PUSH2 0x3F4A PUSH2 0x1C74 JUMP JUMPDEST SWAP7 PUSH2 0x18D9 DUP9 PUSH2 0x1CDC JUMP JUMPDEST PUSH2 0x3F6E PUSH2 0x3F5F PUSH2 0x2E4 JUMP JUMPDEST PUSH1 0x1 PUSH1 0x1 PUSH1 0xA0 SHL SUB SWAP1 SWAP9 AND DUP9 MSTORE JUMP JUMPDEST PUSH1 0x1 PUSH1 0x1 PUSH1 0xA0 SHL SUB AND PUSH1 0x20 DUP8 ADD MSTORE JUMP JUMPDEST PUSH1 0x1 PUSH1 0x1 PUSH1 0xA0 SHL SUB AND DUP5 DUP11 ADD MSTORE JUMP JUMPDEST PUSH1 0x60 DUP4 ADD MSTORE DUP8 ISZERO ISZERO PUSH1 0x80 DUP4 ADD MSTORE PUSH1 0xA0 DUP3 ADD MSTORE DUP6 MLOAD PUSH4 0x60A80DBB PUSH1 0xE0 SHL DUP2 MSTORE SWAP9 DUP10 SWAP6 DUP7 SWAP5 DUP6 SWAP4 PUSH1 0x4 DUP6 ADD PUSH2 0x3EE9 JUMP JUMPDEST SUB SWAP3 PUSH1 0x1 PUSH1 0x1 PUSH1 0xA0 SHL SUB AND GAS CALL SWAP3 DUP4 ISZERO PUSH2 0xEDF JUMPI PUSH0 SWAP4 PUSH2 0x401E JUMPI JUMPDEST POP DUP3 ISZERO PUSH2 0x3FE2 JUMPI POP POP SWAP1 JUMP JUMPDEST SWAP1 SWAP2 POP ISZERO PUSH2 0x4004 JUMPI PUSH2 0x3FF6 PUSH2 0x390 SWAP2 PUSH2 0x2838 JUMP JUMPDEST PUSH8 0xDE0B6B3A7640000 SWAP1 DIV SWAP1 JUMP JUMPDEST PUSH2 0x4010 PUSH2 0x390 SWAP2 PUSH2 0x2814 JUMP JUMPDEST PUSH8 0x120A871CC0020000 SWAP1 DIV SWAP1 JUMP JUMPDEST PUSH2 0x4041 SWAP2 SWAP4 POP PUSH1 0x40 RETURNDATASIZE PUSH1 0x40 GT PUSH2 0x4049 JUMPI JUMPDEST PUSH2 0x4039 DUP2 DUP4 PUSH2 0x2C3 JUMP JUMPDEST DUP2 ADD SWAP1 PUSH2 0x3ED3 JUMP JUMPDEST POP SWAP2 PUSH0 PUSH2 0x3FD6 JUMP JUMPDEST POP RETURNDATASIZE PUSH2 0x402F JUMP INVALID SHL RETURNDATASIZE PUSH31 0xDB2E9C0B0E7C525B20AAAEF0F5940D2ED71663C7D39266ECAFAC728859A264 PUSH10 0x70667358221220A2BC7F DIV DUP12 SMOD CALLER 0xDC SWAP12 PUSH23 0x166CFCA75EF8E2401993A48B8520B32097F5750C87EC64 PUSH20 0x6F6C634300081E00330000000000000000000000 "},"methodIdentifiers":{"_decodeTwoBytes(bytes)":"f9158ee5","addLiquidity(address,address,address,bytes3,uint256,uint256)":"e513315b","allowance(address,address,uint256)":"598af9e7","approve(address,uint256,uint256)":"426a8493","balanceOf(address,uint256)":"00fdd58e","batchSwap((address,address,address,bytes3[],uint256[],bool)[],uint256,uint256)":"9d2ec6e4","createPool(address,address,address,bytes3)":"5670f55a","defaultData0Bridge()":"3d465aae","defaultData1Bridge()":"46fe6514","defaultData2Bridge()":"091f15b0","defaultData3Bridge()":"31b4ae17","flashSession(address,bytes,address[])":"5dfb78af","flashSessionWithReturn(address,bytes,address[])":"ea157acf","getInventory(uint256)":"5b298d32","getPoolInfo(uint256)":"2f380b35","getQuote((address,address,address,uint256[],bool,bytes3[]),uint128,uint128)":"60a80dbb","getQuoteBatch((address,address,address,uint256[],bool,bytes3[]),uint128[],uint128[])":"04f71ef6","getUserDeltas(address,address[])":"314e2321","isOperator(address,address)":"b6363cf2","removeLiquidity(address,address,address,bytes3,uint256)":"cb1f2f38","routerGetQuote((address,address,address,uint256[],bool,bytes3[]),uint128,uint128)":"8f155291","routerGetQuoteBatch((address,address,address,uint256[],bool,bytes3[]),uint128[],uint128[])":"c279171d","setOperator(address,bool)":"558a7297","supportsInterface(bytes4)":"01ffc9a7","swap(address,address,address,bytes3,uint256,bool,uint256)":"d92bc84c","totalLiquidity(uint256)":"b5e60c3c","transfer(address,uint256,uint256)":"095bcdb6","transferFrom(address,address,uint256,uint256)":"fe99049a"}}}}}