{"@redstone-finance/evm-connector/contracts/core/CalldataExtractor.sol":{"CalldataExtractor":{"abi":[{"inputs":[],"name":"CalldataMustHaveValidPayload","type":"error"},{"inputs":[],"name":"CalldataOverOrUnderFlow","type":"error"},{"inputs":[],"name":"DataPackageTimestampMustNotBeZero","type":"error"},{"inputs":[],"name":"DataPackageTimestampsMustBeEqual","type":"error"},{"inputs":[],"name":"DataTimestampCannotBeZero","type":"error"},{"inputs":[],"name":"EachSignerMustProvideTheSameValue","type":"error"},{"inputs":[],"name":"EmptyCalldataPointersArr","type":"error"},{"inputs":[],"name":"IncorrectUnsignedMetadataSize","type":"error"},{"inputs":[{"internalType":"uint256","name":"receivedSignersCount","type":"uint256"},{"internalType":"uint256","name":"requiredSignersCount","type":"uint256"}],"name":"InsufficientNumberOfUniqueSigners","type":"error"},{"inputs":[],"name":"InvalidCalldataPointer","type":"error"},{"inputs":[],"name":"RedstonePayloadMustHaveAtLeastOneDataPackage","type":"error"},{"inputs":[{"internalType":"address","name":"receivedSigner","type":"address"}],"name":"SignerNotAuthorised","type":"error"},{"inputs":[],"name":"TimestampsMustBeEqual","type":"error"},{"inputs":[{"internalType":"uint256","name":"valueByteSize","type":"uint256"}],"name":"TooLargeValueByteSize","type":"error"},{"inputs":[],"name":"extractTimestampsAndAssertAllAreEqual","outputs":[{"internalType":"uint256","name":"extractedTimestamp","type":"uint256"}],"stateMutability":"pure","type":"function"}],"evm":{"bytecode":{"linkReferences":{},"object":"60808060405234601557610233908161001a8239f35b5f80fdfe60806040526004361015610011575f80fd5b5f3560e01c6355a547d514610024575f80fd5b346101ec575f3660031901126101ec575f6602ed57011e0000601f19360135166602ed57011e0000036101dd57366029116101bf5736602819013562ffffff16906003820180831161016e57600c830180911161016e57600e83019081811161016e573682116101ce57602c840180911161016e5736106101bf57913603602b19013561ffff1680156101b0575f925b8184106100c657602083604051908152f35b6041810180821161016e576061820180911161016e576100e690366101f0565b6002198101939080851161016e5762ffffff63ffffffff913516943516602001938460201161016e5784810294818604149015171561016e57604e8401841161016e576068820180831161016e5761014565ffffffffffff91366101f0565b35169081156101a157806101825750604e90935b82010180911161016e576001909301926100b4565b634e487b7160e01b5f52601160045260245ffd5b8094910361019257604e90610159565b63d9d1f46560e01b5f5260045ffd5b630336dc9d60e41b5f5260045ffd5b632154bfcf60e21b5f5260045ffd5b632bcb7bc560e11b5f5260045ffd5b63c30a7bd760e01b5f5260045ffd5b6373bb264f60e11b5f5260045ffd5b5f80fd5b9190820391821161016e5756fea2646970667358221220e9f0896be3315cf24342d04e0b0869191462c80c8d4240fd6ac418fc715860ed64736f6c634300081e0033","opcodes":"PUSH1 0x80 DUP1 PUSH1 0x40 MSTORE CALLVALUE PUSH1 0x15 JUMPI PUSH2 0x233 SWAP1 DUP2 PUSH2 0x1A DUP3 CODECOPY RETURN JUMPDEST PUSH0 DUP1 REVERT INVALID PUSH1 0x80 PUSH1 0x40 MSTORE PUSH1 0x4 CALLDATASIZE LT ISZERO PUSH2 0x11 JUMPI PUSH0 DUP1 REVERT JUMPDEST PUSH0 CALLDATALOAD PUSH1 0xE0 SHR PUSH4 0x55A547D5 EQ PUSH2 0x24 JUMPI PUSH0 DUP1 REVERT JUMPDEST CALLVALUE PUSH2 0x1EC JUMPI PUSH0 CALLDATASIZE PUSH1 0x3 NOT ADD SLT PUSH2 0x1EC JUMPI PUSH0 PUSH7 0x2ED57011E0000 PUSH1 0x1F NOT CALLDATASIZE ADD CALLDATALOAD AND PUSH7 0x2ED57011E0000 SUB PUSH2 0x1DD JUMPI CALLDATASIZE PUSH1 0x29 GT PUSH2 0x1BF JUMPI CALLDATASIZE PUSH1 0x28 NOT ADD CALLDATALOAD PUSH3 0xFFFFFF AND SWAP1 PUSH1 0x3 DUP3 ADD DUP1 DUP4 GT PUSH2 0x16E JUMPI PUSH1 0xC DUP4 ADD DUP1 SWAP2 GT PUSH2 0x16E JUMPI PUSH1 0xE DUP4 ADD SWAP1 DUP2 DUP2 GT PUSH2 0x16E JUMPI CALLDATASIZE DUP3 GT PUSH2 0x1CE JUMPI PUSH1 0x2C DUP5 ADD DUP1 SWAP2 GT PUSH2 0x16E JUMPI CALLDATASIZE LT PUSH2 0x1BF JUMPI SWAP2 CALLDATASIZE SUB PUSH1 0x2B NOT ADD CALLDATALOAD PUSH2 0xFFFF AND DUP1 ISZERO PUSH2 0x1B0 JUMPI PUSH0 SWAP3 JUMPDEST DUP2 DUP5 LT PUSH2 0xC6 JUMPI PUSH1 0x20 DUP4 PUSH1 0x40 MLOAD SWAP1 DUP2 MSTORE RETURN JUMPDEST PUSH1 0x41 DUP2 ADD DUP1 DUP3 GT PUSH2 0x16E JUMPI PUSH1 0x61 DUP3 ADD DUP1 SWAP2 GT PUSH2 0x16E JUMPI PUSH2 0xE6 SWAP1 CALLDATASIZE PUSH2 0x1F0 JUMP JUMPDEST PUSH1 0x2 NOT DUP2 ADD SWAP4 SWAP1 DUP1 DUP6 GT PUSH2 0x16E JUMPI PUSH3 0xFFFFFF PUSH4 0xFFFFFFFF SWAP2 CALLDATALOAD AND SWAP5 CALLDATALOAD AND PUSH1 0x20 ADD SWAP4 DUP5 PUSH1 0x20 GT PUSH2 0x16E JUMPI DUP5 DUP2 MUL SWAP5 DUP2 DUP7 DIV EQ SWAP1 ISZERO OR ISZERO PUSH2 0x16E JUMPI PUSH1 0x4E DUP5 ADD DUP5 GT PUSH2 0x16E JUMPI PUSH1 0x68 DUP3 ADD DUP1 DUP4 GT PUSH2 0x16E JUMPI PUSH2 0x145 PUSH6 0xFFFFFFFFFFFF SWAP2 CALLDATASIZE PUSH2 0x1F0 JUMP JUMPDEST CALLDATALOAD AND SWAP1 DUP2 ISZERO PUSH2 0x1A1 JUMPI DUP1 PUSH2 0x182 JUMPI POP PUSH1 0x4E SWAP1 SWAP4 JUMPDEST DUP3 ADD ADD DUP1 SWAP2 GT PUSH2 0x16E JUMPI PUSH1 0x1 SWAP1 SWAP4 ADD SWAP3 PUSH2 0xB4 JUMP JUMPDEST PUSH4 0x4E487B71 PUSH1 0xE0 SHL PUSH0 MSTORE PUSH1 0x11 PUSH1 0x4 MSTORE PUSH1 0x24 PUSH0 REVERT JUMPDEST DUP1 SWAP5 SWAP2 SUB PUSH2 0x192 JUMPI PUSH1 0x4E SWAP1 PUSH2 0x159 JUMP JUMPDEST PUSH4 0xD9D1F465 PUSH1 0xE0 SHL PUSH0 MSTORE PUSH1 0x4 PUSH0 REVERT JUMPDEST PUSH4 0x336DC9D PUSH1 0xE4 SHL PUSH0 MSTORE PUSH1 0x4 PUSH0 REVERT JUMPDEST PUSH4 0x2154BFCF PUSH1 0xE2 SHL PUSH0 MSTORE PUSH1 0x4 PUSH0 REVERT JUMPDEST PUSH4 0x2BCB7BC5 PUSH1 0xE1 SHL PUSH0 MSTORE PUSH1 0x4 PUSH0 REVERT JUMPDEST PUSH4 0xC30A7BD7 PUSH1 0xE0 SHL PUSH0 MSTORE PUSH1 0x4 PUSH0 REVERT JUMPDEST PUSH4 0x73BB264F PUSH1 0xE1 SHL PUSH0 MSTORE PUSH1 0x4 PUSH0 REVERT JUMPDEST PUSH0 DUP1 REVERT JUMPDEST SWAP2 SWAP1 DUP3 SUB SWAP2 DUP3 GT PUSH2 0x16E JUMPI JUMP INVALID LOG2 PUSH5 0x6970667358 0x22 SLT KECCAK256 0xE9 CREATE DUP10 PUSH12 0xE3315CF24342D04E0B086919 EQ PUSH3 0xC80C8D TIMESTAMP BLOCKHASH REVERT PUSH11 0xC418FC715860ED64736F6C PUSH4 0x4300081E STOP CALLER "},"methodIdentifiers":{"extractTimestampsAndAssertAllAreEqual()":"55a547d5"}}}}}