{"@redstone-finance/evm-connector/contracts/data-services/PrimaryDemoDataServiceConsumerBase.sol":{"PrimaryDemoDataServiceConsumerBase":{"abi":[{"inputs":[],"name":"CalldataMustHaveValidPayload","type":"error"},{"inputs":[],"name":"CalldataOverOrUnderFlow","type":"error"},{"inputs":[],"name":"CanNotPickMedianOfEmptyArray","type":"error"},{"inputs":[],"name":"DataPackageTimestampMustNotBeZero","type":"error"},{"inputs":[],"name":"DataPackageTimestampsMustBeEqual","type":"error"},{"inputs":[],"name":"DataTimestampCannotBeZero","type":"error"},{"inputs":[],"name":"EachSignerMustProvideTheSameValue","type":"error"},{"inputs":[],"name":"EmptyCalldataPointersArr","type":"error"},{"inputs":[],"name":"GetDataServiceIdNotImplemented","type":"error"},{"inputs":[],"name":"IncorrectUnsignedMetadataSize","type":"error"},{"inputs":[{"internalType":"uint256","name":"receivedSignersCount","type":"uint256"},{"internalType":"uint256","name":"requiredSignersCount","type":"uint256"}],"name":"InsufficientNumberOfUniqueSigners","type":"error"},{"inputs":[],"name":"InvalidCalldataPointer","type":"error"},{"inputs":[],"name":"RedstonePayloadMustHaveAtLeastOneDataPackage","type":"error"},{"inputs":[{"internalType":"address","name":"receivedSigner","type":"address"}],"name":"SignerNotAuthorised","type":"error"},{"inputs":[{"internalType":"uint256","name":"receivedTimestampSeconds","type":"uint256"},{"internalType":"uint256","name":"blockTimestamp","type":"uint256"}],"name":"TimestampFromTooLongFuture","type":"error"},{"inputs":[{"internalType":"uint256","name":"receivedTimestampSeconds","type":"uint256"},{"internalType":"uint256","name":"blockTimestamp","type":"uint256"}],"name":"TimestampIsTooOld","type":"error"},{"inputs":[],"name":"TimestampsMustBeEqual","type":"error"},{"inputs":[{"internalType":"uint256","name":"valueByteSize","type":"uint256"}],"name":"TooLargeValueByteSize","type":"error"},{"inputs":[{"internalType":"uint256[]","name":"values","type":"uint256[]"}],"name":"aggregateValues","outputs":[{"internalType":"uint256","name":"","type":"uint256"}],"stateMutability":"view","type":"function"},{"inputs":[],"name":"extractTimestampsAndAssertAllAreEqual","outputs":[{"internalType":"uint256","name":"extractedTimestamp","type":"uint256"}],"stateMutability":"pure","type":"function"},{"inputs":[{"internalType":"address","name":"signerAddress","type":"address"}],"name":"getAuthorisedSignerIndex","outputs":[{"internalType":"uint8","name":"","type":"uint8"}],"stateMutability":"view","type":"function"},{"inputs":[],"name":"getDataServiceId","outputs":[{"internalType":"string","name":"","type":"string"}],"stateMutability":"view","type":"function"},{"inputs":[],"name":"getUniqueSignersThreshold","outputs":[{"internalType":"uint8","name":"","type":"uint8"}],"stateMutability":"view","type":"function"},{"inputs":[{"internalType":"uint256","name":"receivedTimestampMilliseconds","type":"uint256"}],"name":"validateTimestamp","outputs":[],"stateMutability":"view","type":"function"}],"evm":{"bytecode":{"linkReferences":{},"object":"60808060405234601557610697908161001a8239f35b5f80fdfe60806040526004361015610011575f80fd5b5f3560e01c80633ce142f51461007457806355a547d51461006f578063b24ebfcc1461006a578063c274583a14610065578063f50b2efe146100605763f90c49241461005b575f80fd5b610359565b6102e1565b610263565b6101c4565b6100b2565b346100ae5760203660031901126100ae576004356001600160a01b03811681036100ae576100a3602091610374565b60ff60405191168152f35b5f80fd5b346100ae575f3660031901126100ae575f61ffff6100d66100d1610436565b6104ba565b91169081156101765791905f5b8181106100fa5760405183815280602081015b0390f35b9091610105846104e3565b9065ffffffffffff61011f610119876103e4565b36610429565b35169081156101675780610144575060019161013b919561040e565b939291016100e3565b809591036101585760019161013b9161040e565b63d9d1f46560e01b5f5260045ffd5b630336dc9d60e41b5f5260045ffd5b632154bfcf60e21b5f5260045ffd5b634e487b7160e01b5f52604160045260245ffd5b6040519190601f01601f1916820167ffffffffffffffff8111838210176101bf57604052565b610185565b346100ae5760203660031901126100ae5760043567ffffffffffffffff81116100ae57366023820112156100ae5780600401359067ffffffffffffffff82116101bf578160051b6024602061021a818401610199565b809581520191830101913683116100ae57602401905b828210610253576100f661024385610581565b6040519081529081906020820190565b8135815260209182019101610230565b346100ae575f3660031901126100ae576040516040810181811067ffffffffffffffff8211176101bf5760405260158152604060208201917472656473746f6e652d7072696d6172792d64656d6f60581b83528151928391602083525180918160208501528484015e5f828201840152601f01601f19168101030190f35b346100ae5760203660031901126100ae576103e8600435048042105f146103305742810381811161032b57603c1061031557005b63b6b0916d60e01b5f526004524260245260445ffd5b6103d0565b80420342811161032b5760b41061034357005b630321d0b560e01b5f526004524260245260445ffd5b346100ae575f3660031901126100ae57602060405160018152f35b6001600160a01b031673de13fdee7a9b483129a81794d02fcb4021069f0c810361039d57505f90565b73ad05ce43e0bcd11345f08a28995951dec30d522681036103be5750600190565b6303b1166f60e61b5f5260045260245ffd5b634e487b7160e01b5f52601160045260245ffd5b906068820180921161032b57565b906002820180921161032b57565b90604e820180921161032b57565b9190820180921161032b57565b5f1981019190821161032b57565b9190820391821161032b57565b6602ed57011e0000601f19360135166602ed57011e0000036104ab573660291161049c5762ffffff602819360135166003810180911161032b576009810180911161032b5736610485826103f2565b1161048d5790565b63c30a7bd760e01b5f5260045ffd5b632bcb7bc560e11b5f5260045ffd5b6373bb264f60e11b5f5260045ffd5b906020820180831161032b57361061049c57600282019182811161032b573603601f1901359190565b6041810180821161032b57606182011061032b57360360601981019036821161032b57606319019080821161032b5762ffffff63ffffffff913516913516602001908160201161032b5781810291818304149015171561032b5761054690610400565b90565b8051600110156105595760400190565b634e487b7160e01b5f52603260045260245ffd5b80518210156105595760209160051b010190565b60028151146105f5578051156105e65761059a81610611565b805160011c81516001166105d957610546916105cc826105c56105bf6105d39561041b565b8461056d565b519261056d565b519061040e565b60011c90565b6105e29161056d565b5190565b639e198af960e01b5f5260045ffd5b805115610559576105d3816105cc602061054694015191610549565b805160051b810160209081019101805b82811061062d57505050565b815b81811061063f5750602001610621565b60209082518151808210610656575b50500161062f565b845281525f8061064e56fea26469706673582212202ce4ac78fdd494b271728286939549683da596d1e226844697603d1e9b96d6ac64736f6c634300081e0033","opcodes":"PUSH1 0x80 DUP1 PUSH1 0x40 MSTORE CALLVALUE PUSH1 0x15 JUMPI PUSH2 0x697 SWAP1 DUP2 PUSH2 0x1A DUP3 CODECOPY RETURN JUMPDEST PUSH0 DUP1 REVERT INVALID PUSH1 0x80 PUSH1 0x40 MSTORE PUSH1 0x4 CALLDATASIZE LT ISZERO PUSH2 0x11 JUMPI PUSH0 DUP1 REVERT JUMPDEST PUSH0 CALLDATALOAD PUSH1 0xE0 SHR DUP1 PUSH4 0x3CE142F5 EQ PUSH2 0x74 JUMPI DUP1 PUSH4 0x55A547D5 EQ PUSH2 0x6F JUMPI DUP1 PUSH4 0xB24EBFCC EQ PUSH2 0x6A JUMPI DUP1 PUSH4 0xC274583A EQ PUSH2 0x65 JUMPI DUP1 PUSH4 0xF50B2EFE EQ PUSH2 0x60 JUMPI PUSH4 0xF90C4924 EQ PUSH2 0x5B JUMPI PUSH0 DUP1 REVERT JUMPDEST PUSH2 0x359 JUMP JUMPDEST PUSH2 0x2E1 JUMP JUMPDEST PUSH2 0x263 JUMP JUMPDEST PUSH2 0x1C4 JUMP JUMPDEST PUSH2 0xB2 JUMP JUMPDEST CALLVALUE PUSH2 0xAE JUMPI PUSH1 0x20 CALLDATASIZE PUSH1 0x3 NOT ADD SLT PUSH2 0xAE JUMPI PUSH1 0x4 CALLDATALOAD PUSH1 0x1 PUSH1 0x1 PUSH1 0xA0 SHL SUB DUP2 AND DUP2 SUB PUSH2 0xAE JUMPI PUSH2 0xA3 PUSH1 0x20 SWAP2 PUSH2 0x374 JUMP JUMPDEST PUSH1 0xFF PUSH1 0x40 MLOAD SWAP2 AND DUP2 MSTORE RETURN JUMPDEST PUSH0 DUP1 REVERT JUMPDEST CALLVALUE PUSH2 0xAE JUMPI PUSH0 CALLDATASIZE PUSH1 0x3 NOT ADD SLT PUSH2 0xAE JUMPI PUSH0 PUSH2 0xFFFF PUSH2 0xD6 PUSH2 0xD1 PUSH2 0x436 JUMP JUMPDEST PUSH2 0x4BA JUMP JUMPDEST SWAP2 AND SWAP1 DUP2 ISZERO PUSH2 0x176 JUMPI SWAP2 SWAP1 PUSH0 JUMPDEST DUP2 DUP2 LT PUSH2 0xFA JUMPI PUSH1 0x40 MLOAD DUP4 DUP2 MSTORE DUP1 PUSH1 0x20 DUP2 ADD JUMPDEST SUB SWAP1 RETURN JUMPDEST SWAP1 SWAP2 PUSH2 0x105 DUP5 PUSH2 0x4E3 JUMP JUMPDEST SWAP1 PUSH6 0xFFFFFFFFFFFF PUSH2 0x11F PUSH2 0x119 DUP8 PUSH2 0x3E4 JUMP JUMPDEST CALLDATASIZE PUSH2 0x429 JUMP JUMPDEST CALLDATALOAD AND SWAP1 DUP2 ISZERO PUSH2 0x167 JUMPI DUP1 PUSH2 0x144 JUMPI POP PUSH1 0x1 SWAP2 PUSH2 0x13B SWAP2 SWAP6 PUSH2 0x40E JUMP JUMPDEST SWAP4 SWAP3 SWAP2 ADD PUSH2 0xE3 JUMP JUMPDEST DUP1 SWAP6 SWAP2 SUB PUSH2 0x158 JUMPI PUSH1 0x1 SWAP2 PUSH2 0x13B SWAP2 PUSH2 0x40E JUMP JUMPDEST PUSH4 0xD9D1F465 PUSH1 0xE0 SHL PUSH0 MSTORE PUSH1 0x4 PUSH0 REVERT JUMPDEST PUSH4 0x336DC9D PUSH1 0xE4 SHL PUSH0 MSTORE PUSH1 0x4 PUSH0 REVERT JUMPDEST PUSH4 0x2154BFCF PUSH1 0xE2 SHL PUSH0 MSTORE PUSH1 0x4 PUSH0 REVERT JUMPDEST PUSH4 0x4E487B71 PUSH1 0xE0 SHL PUSH0 MSTORE PUSH1 0x41 PUSH1 0x4 MSTORE PUSH1 0x24 PUSH0 REVERT JUMPDEST PUSH1 0x40 MLOAD SWAP2 SWAP1 PUSH1 0x1F ADD PUSH1 0x1F NOT AND DUP3 ADD PUSH8 0xFFFFFFFFFFFFFFFF DUP2 GT DUP4 DUP3 LT OR PUSH2 0x1BF JUMPI PUSH1 0x40 MSTORE JUMP JUMPDEST PUSH2 0x185 JUMP JUMPDEST CALLVALUE PUSH2 0xAE JUMPI PUSH1 0x20 CALLDATASIZE PUSH1 0x3 NOT ADD SLT PUSH2 0xAE JUMPI PUSH1 0x4 CALLDATALOAD PUSH8 0xFFFFFFFFFFFFFFFF DUP2 GT PUSH2 0xAE JUMPI CALLDATASIZE PUSH1 0x23 DUP3 ADD SLT ISZERO PUSH2 0xAE JUMPI DUP1 PUSH1 0x4 ADD CALLDATALOAD SWAP1 PUSH8 0xFFFFFFFFFFFFFFFF DUP3 GT PUSH2 0x1BF JUMPI DUP2 PUSH1 0x5 SHL PUSH1 0x24 PUSH1 0x20 PUSH2 0x21A DUP2 DUP5 ADD PUSH2 0x199 JUMP JUMPDEST DUP1 SWAP6 DUP2 MSTORE ADD SWAP2 DUP4 ADD ADD SWAP2 CALLDATASIZE DUP4 GT PUSH2 0xAE JUMPI PUSH1 0x24 ADD SWAP1 JUMPDEST DUP3 DUP3 LT PUSH2 0x253 JUMPI PUSH2 0xF6 PUSH2 0x243 DUP6 PUSH2 0x581 JUMP JUMPDEST PUSH1 0x40 MLOAD SWAP1 DUP2 MSTORE SWAP1 DUP2 SWAP1 PUSH1 0x20 DUP3 ADD SWAP1 JUMP JUMPDEST DUP2 CALLDATALOAD DUP2 MSTORE PUSH1 0x20 SWAP2 DUP3 ADD SWAP2 ADD PUSH2 0x230 JUMP JUMPDEST CALLVALUE PUSH2 0xAE JUMPI PUSH0 CALLDATASIZE PUSH1 0x3 NOT ADD SLT PUSH2 0xAE JUMPI PUSH1 0x40 MLOAD PUSH1 0x40 DUP2 ADD DUP2 DUP2 LT PUSH8 0xFFFFFFFFFFFFFFFF DUP3 GT OR PUSH2 0x1BF JUMPI PUSH1 0x40 MSTORE PUSH1 0x15 DUP2 MSTORE PUSH1 0x40 PUSH1 0x20 DUP3 ADD SWAP2 PUSH21 0x72656473746F6E652D7072696D6172792D64656D6F PUSH1 0x58 SHL DUP4 MSTORE DUP2 MLOAD SWAP3 DUP4 SWAP2 PUSH1 0x20 DUP4 MSTORE MLOAD DUP1 SWAP2 DUP2 PUSH1 0x20 DUP6 ADD MSTORE DUP5 DUP5 ADD MCOPY PUSH0 DUP3 DUP3 ADD DUP5 ADD MSTORE PUSH1 0x1F ADD PUSH1 0x1F NOT AND DUP2 ADD SUB ADD SWAP1 RETURN JUMPDEST CALLVALUE PUSH2 0xAE JUMPI PUSH1 0x20 CALLDATASIZE PUSH1 0x3 NOT ADD SLT PUSH2 0xAE JUMPI PUSH2 0x3E8 PUSH1 0x4 CALLDATALOAD DIV DUP1 TIMESTAMP LT PUSH0 EQ PUSH2 0x330 JUMPI TIMESTAMP DUP2 SUB DUP2 DUP2 GT PUSH2 0x32B JUMPI PUSH1 0x3C LT PUSH2 0x315 JUMPI STOP JUMPDEST PUSH4 0xB6B0916D PUSH1 0xE0 SHL PUSH0 MSTORE PUSH1 0x4 MSTORE TIMESTAMP PUSH1 0x24 MSTORE PUSH1 0x44 PUSH0 REVERT JUMPDEST PUSH2 0x3D0 JUMP JUMPDEST DUP1 TIMESTAMP SUB TIMESTAMP DUP2 GT PUSH2 0x32B JUMPI PUSH1 0xB4 LT PUSH2 0x343 JUMPI STOP JUMPDEST PUSH4 0x321D0B5 PUSH1 0xE0 SHL PUSH0 MSTORE PUSH1 0x4 MSTORE TIMESTAMP PUSH1 0x24 MSTORE PUSH1 0x44 PUSH0 REVERT JUMPDEST CALLVALUE PUSH2 0xAE JUMPI PUSH0 CALLDATASIZE PUSH1 0x3 NOT ADD SLT PUSH2 0xAE JUMPI PUSH1 0x20 PUSH1 0x40 MLOAD PUSH1 0x1 DUP2 MSTORE RETURN JUMPDEST PUSH1 0x1 PUSH1 0x1 PUSH1 0xA0 SHL SUB AND PUSH20 0xDE13FDEE7A9B483129A81794D02FCB4021069F0C DUP2 SUB PUSH2 0x39D JUMPI POP PUSH0 SWAP1 JUMP JUMPDEST PUSH20 0xAD05CE43E0BCD11345F08A28995951DEC30D5226 DUP2 SUB PUSH2 0x3BE JUMPI POP PUSH1 0x1 SWAP1 JUMP JUMPDEST PUSH4 0x3B1166F PUSH1 0xE6 SHL PUSH0 MSTORE PUSH1 0x4 MSTORE PUSH1 0x24 PUSH0 REVERT JUMPDEST PUSH4 0x4E487B71 PUSH1 0xE0 SHL PUSH0 MSTORE PUSH1 0x11 PUSH1 0x4 MSTORE PUSH1 0x24 PUSH0 REVERT JUMPDEST SWAP1 PUSH1 0x68 DUP3 ADD DUP1 SWAP3 GT PUSH2 0x32B JUMPI JUMP JUMPDEST SWAP1 PUSH1 0x2 DUP3 ADD DUP1 SWAP3 GT PUSH2 0x32B JUMPI JUMP JUMPDEST SWAP1 PUSH1 0x4E DUP3 ADD DUP1 SWAP3 GT PUSH2 0x32B JUMPI JUMP JUMPDEST SWAP2 SWAP1 DUP3 ADD DUP1 SWAP3 GT PUSH2 0x32B JUMPI JUMP JUMPDEST PUSH0 NOT DUP2 ADD SWAP2 SWAP1 DUP3 GT PUSH2 0x32B JUMPI JUMP JUMPDEST SWAP2 SWAP1 DUP3 SUB SWAP2 DUP3 GT PUSH2 0x32B JUMPI JUMP JUMPDEST PUSH7 0x2ED57011E0000 PUSH1 0x1F NOT CALLDATASIZE ADD CALLDATALOAD AND PUSH7 0x2ED57011E0000 SUB PUSH2 0x4AB JUMPI CALLDATASIZE PUSH1 0x29 GT PUSH2 0x49C JUMPI PUSH3 0xFFFFFF PUSH1 0x28 NOT CALLDATASIZE ADD CALLDATALOAD AND PUSH1 0x3 DUP2 ADD DUP1 SWAP2 GT PUSH2 0x32B JUMPI PUSH1 0x9 DUP2 ADD DUP1 SWAP2 GT PUSH2 0x32B JUMPI CALLDATASIZE PUSH2 0x485 DUP3 PUSH2 0x3F2 JUMP JUMPDEST GT PUSH2 0x48D JUMPI SWAP1 JUMP JUMPDEST PUSH4 0xC30A7BD7 PUSH1 0xE0 SHL PUSH0 MSTORE PUSH1 0x4 PUSH0 REVERT JUMPDEST PUSH4 0x2BCB7BC5 PUSH1 0xE1 SHL PUSH0 MSTORE PUSH1 0x4 PUSH0 REVERT JUMPDEST PUSH4 0x73BB264F PUSH1 0xE1 SHL PUSH0 MSTORE PUSH1 0x4 PUSH0 REVERT JUMPDEST SWAP1 PUSH1 0x20 DUP3 ADD DUP1 DUP4 GT PUSH2 0x32B JUMPI CALLDATASIZE LT PUSH2 0x49C JUMPI PUSH1 0x2 DUP3 ADD SWAP2 DUP3 DUP2 GT PUSH2 0x32B JUMPI CALLDATASIZE SUB PUSH1 0x1F NOT ADD CALLDATALOAD SWAP2 SWAP1 JUMP JUMPDEST PUSH1 0x41 DUP2 ADD DUP1 DUP3 GT PUSH2 0x32B JUMPI PUSH1 0x61 DUP3 ADD LT PUSH2 0x32B JUMPI CALLDATASIZE SUB PUSH1 0x60 NOT DUP2 ADD SWAP1 CALLDATASIZE DUP3 GT PUSH2 0x32B JUMPI PUSH1 0x63 NOT ADD SWAP1 DUP1 DUP3 GT PUSH2 0x32B JUMPI PUSH3 0xFFFFFF PUSH4 0xFFFFFFFF SWAP2 CALLDATALOAD AND SWAP2 CALLDATALOAD AND PUSH1 0x20 ADD SWAP1 DUP2 PUSH1 0x20 GT PUSH2 0x32B JUMPI DUP2 DUP2 MUL SWAP2 DUP2 DUP4 DIV EQ SWAP1 ISZERO OR ISZERO PUSH2 0x32B JUMPI PUSH2 0x546 SWAP1 PUSH2 0x400 JUMP JUMPDEST SWAP1 JUMP JUMPDEST DUP1 MLOAD PUSH1 0x1 LT ISZERO PUSH2 0x559 JUMPI PUSH1 0x40 ADD SWAP1 JUMP JUMPDEST PUSH4 0x4E487B71 PUSH1 0xE0 SHL PUSH0 MSTORE PUSH1 0x32 PUSH1 0x4 MSTORE PUSH1 0x24 PUSH0 REVERT JUMPDEST DUP1 MLOAD DUP3 LT ISZERO PUSH2 0x559 JUMPI PUSH1 0x20 SWAP2 PUSH1 0x5 SHL ADD ADD SWAP1 JUMP JUMPDEST PUSH1 0x2 DUP2 MLOAD EQ PUSH2 0x5F5 JUMPI DUP1 MLOAD ISZERO PUSH2 0x5E6 JUMPI PUSH2 0x59A DUP2 PUSH2 0x611 JUMP JUMPDEST DUP1 MLOAD PUSH1 0x1 SHR DUP2 MLOAD PUSH1 0x1 AND PUSH2 0x5D9 JUMPI PUSH2 0x546 SWAP2 PUSH2 0x5CC DUP3 PUSH2 0x5C5 PUSH2 0x5BF PUSH2 0x5D3 SWAP6 PUSH2 0x41B JUMP JUMPDEST DUP5 PUSH2 0x56D JUMP JUMPDEST MLOAD SWAP3 PUSH2 0x56D JUMP JUMPDEST MLOAD SWAP1 PUSH2 0x40E JUMP JUMPDEST PUSH1 0x1 SHR SWAP1 JUMP JUMPDEST PUSH2 0x5E2 SWAP2 PUSH2 0x56D JUMP JUMPDEST MLOAD SWAP1 JUMP JUMPDEST PUSH4 0x9E198AF9 PUSH1 0xE0 SHL PUSH0 MSTORE PUSH1 0x4 PUSH0 REVERT JUMPDEST DUP1 MLOAD ISZERO PUSH2 0x559 JUMPI PUSH2 0x5D3 DUP2 PUSH2 0x5CC PUSH1 0x20 PUSH2 0x546 SWAP5 ADD MLOAD SWAP2 PUSH2 0x549 JUMP JUMPDEST DUP1 MLOAD PUSH1 0x5 SHL DUP2 ADD PUSH1 0x20 SWAP1 DUP2 ADD SWAP2 ADD DUP1 JUMPDEST DUP3 DUP2 LT PUSH2 0x62D JUMPI POP POP POP JUMP JUMPDEST DUP2 JUMPDEST DUP2 DUP2 LT PUSH2 0x63F JUMPI POP PUSH1 0x20 ADD PUSH2 0x621 JUMP JUMPDEST PUSH1 0x20 SWAP1 DUP3 MLOAD DUP2 MLOAD DUP1 DUP3 LT PUSH2 0x656 JUMPI JUMPDEST POP POP ADD PUSH2 0x62F JUMP JUMPDEST DUP5 MSTORE DUP2 MSTORE PUSH0 DUP1 PUSH2 0x64E JUMP INVALID LOG2 PUSH5 0x6970667358 0x22 SLT KECCAK256 0x2C RETF 0xAC PUSH25 0xFDD494B271728286939549683DA596D1E226844697603D1E9B SWAP7 0xD6 0xAC PUSH5 0x736F6C6343 STOP ADDMOD 0x1E STOP CALLER "},"methodIdentifiers":{"aggregateValues(uint256[])":"b24ebfcc","extractTimestampsAndAssertAllAreEqual()":"55a547d5","getAuthorisedSignerIndex(address)":"3ce142f5","getDataServiceId()":"c274583a","getUniqueSignersThreshold()":"f90c4924","validateTimestamp(uint256)":"f50b2efe"}}}}}