{"contracts/Peripheral/DataBridges/real/RedstoneOnDemandBridgeImpl.sol":{"RedstoneOnDemandBridgeImpl":{"abi":[{"inputs":[{"internalType":"address","name":"aliasRegistry","type":"address"}],"stateMutability":"nonpayable","type":"constructor"},{"inputs":[],"name":"CalldataMustHaveValidPayload","type":"error"},{"inputs":[],"name":"CalldataOverOrUnderFlow","type":"error"},{"inputs":[],"name":"CanNotPickMedianOfEmptyArray","type":"error"},{"inputs":[],"name":"DataPackageTimestampMustNotBeZero","type":"error"},{"inputs":[],"name":"DataPackageTimestampsMustBeEqual","type":"error"},{"inputs":[],"name":"DataTimestampCannotBeZero","type":"error"},{"inputs":[],"name":"EachSignerMustProvideTheSameValue","type":"error"},{"inputs":[],"name":"EmptyCalldataPointersArr","type":"error"},{"inputs":[],"name":"GetDataServiceIdNotImplemented","type":"error"},{"inputs":[],"name":"IncorrectUnsignedMetadataSize","type":"error"},{"inputs":[{"internalType":"uint256","name":"receivedSignersCount","type":"uint256"},{"internalType":"uint256","name":"requiredSignersCount","type":"uint256"}],"name":"InsufficientNumberOfUniqueSigners","type":"error"},{"inputs":[],"name":"InvalidCalldataPointer","type":"error"},{"inputs":[{"internalType":"bytes32","name":"signedHash","type":"bytes32"}],"name":"InvalidSignature","type":"error"},{"inputs":[],"name":"RedstonePayloadMustHaveAtLeastOneDataPackage","type":"error"},{"inputs":[{"internalType":"address","name":"receivedSigner","type":"address"}],"name":"SignerNotAuthorised","type":"error"},{"inputs":[{"internalType":"uint256","name":"receivedTimestampSeconds","type":"uint256"},{"internalType":"uint256","name":"blockTimestamp","type":"uint256"}],"name":"TimestampFromTooLongFuture","type":"error"},{"inputs":[{"internalType":"uint256","name":"receivedTimestampSeconds","type":"uint256"},{"internalType":"uint256","name":"blockTimestamp","type":"uint256"}],"name":"TimestampIsTooOld","type":"error"},{"inputs":[],"name":"TimestampsMustBeEqual","type":"error"},{"inputs":[{"internalType":"uint256","name":"valueByteSize","type":"uint256"}],"name":"TooLargeValueByteSize","type":"error"},{"anonymous":false,"inputs":[{"indexed":false,"internalType":"uint256","name":"p0","type":"uint256"},{"indexed":false,"internalType":"uint256","name":"p1","type":"uint256"},{"indexed":false,"internalType":"uint8","name":"d0","type":"uint8"},{"indexed":false,"internalType":"uint8","name":"d1","type":"uint8"},{"indexed":false,"internalType":"uint256","name":"spot","type":"uint256"},{"indexed":false,"internalType":"uint256","name":"ts","type":"uint256"}],"name":"DebugValues","type":"event"},{"inputs":[{"internalType":"uint256[]","name":"values","type":"uint256[]"}],"name":"aggregateValues","outputs":[{"internalType":"uint256","name":"","type":"uint256"}],"stateMutability":"view","type":"function"},{"inputs":[],"name":"aliasRegistry","outputs":[{"internalType":"address","name":"","type":"address"}],"stateMutability":"view","type":"function"},{"inputs":[],"name":"extractTimestampsAndAssertAllAreEqual","outputs":[{"internalType":"uint256","name":"extractedTimestamp","type":"uint256"}],"stateMutability":"pure","type":"function"},{"inputs":[{"internalType":"address","name":"receivedSigner","type":"address"}],"name":"getAuthorisedSignerIndex","outputs":[{"internalType":"uint8","name":"","type":"uint8"}],"stateMutability":"view","type":"function"},{"inputs":[{"components":[{"internalType":"address","name":"asset0","type":"address"},{"internalType":"address","name":"asset1","type":"address"},{"internalType":"address","name":"quoter","type":"address"},{"internalType":"uint256","name":"amount","type":"uint256"},{"internalType":"uint128","name":"asset0Balance","type":"uint128"},{"internalType":"uint128","name":"asset1Balance","type":"uint128"},{"internalType":"uint16","name":"bucketID","type":"uint16"},{"internalType":"bool","name":"zeroForOne","type":"bool"}],"internalType":"struct QuoteParams","name":"params","type":"tuple"}],"name":"getData","outputs":[{"internalType":"bytes","name":"","type":"bytes"}],"stateMutability":"view","type":"function"},{"inputs":[],"name":"getDataServiceId","outputs":[{"internalType":"string","name":"","type":"string"}],"stateMutability":"view","type":"function"},{"inputs":[],"name":"getUniqueSignersThreshold","outputs":[{"internalType":"uint8","name":"","type":"uint8"}],"stateMutability":"view","type":"function"},{"inputs":[{"internalType":"uint256","name":"receivedTimestampMilliseconds","type":"uint256"}],"name":"validateTimestamp","outputs":[],"stateMutability":"view","type":"function"}],"evm":{"bytecode":{"linkReferences":{},"object":"60a034606d57601f61112738819003918201601f19168301916001600160401b03831184841017607157808492602094604052833981010312606d57516001600160a01b0381168103606d576080526040516110a19081610086823960805181818161026b01526106d30152f35b5f80fd5b634e487b7160e01b5f52604160045260245ffdfe60806040526004361015610011575f80fd5b5f3560e01c80633bd1104b146100945780633ce142f51461008f578063516fd9a71461008a57806355a547d514610085578063b24ebfcc14610080578063c274583a1461007b578063f50b2efe146100765763f90c492414610071575f80fd5b6104fb565b610483565b61041b565b610380565b61029a565b610256565b610228565b3461012357610100366003190112610123576100b1610180604052565b6100b9610162565b6080526100c4610178565b60a0526100cf61018e565b60c05260643560e0526100e06101a4565b610100526100ec6101ba565b610120526100f86101d0565b610140526101046101e1565b6101605261011f6101136106b0565b60405191829182610214565b0390f35b5f80fd5b634e487b7160e01b5f52604160045260245ffd5b90601f8019910116810190811067ffffffffffffffff82111761015d57604052565b610127565b600435906001600160a01b038216820361012357565b602435906001600160a01b038216820361012357565b604435906001600160a01b038216820361012357565b608435906001600160801b038216820361012357565b60a435906001600160801b038216820361012357565b60c4359061ffff8216820361012357565b60e43590811515820361012357565b805180835260209291819084018484015e5f828201840152601f01601f1916010190565b9060206102259281815201906101f0565b90565b3461012357602036600319011261012357602061024b610246610162565b6108d2565b60ff60405191168152f35b34610123575f366003190112610123576040517f00000000000000000000000000000000000000000000000000000000000000006001600160a01b03168152602090f35b34610123575f366003190112610123575f61ffff6102be6102b961099e565b610a22565b91169081156103595791905f5b8181106102dd57604051838152602090f35b90916102e884610a4b565b9065ffffffffffff6103026102fc87610856565b366108c5565b351690811561034a5780610327575060019161031e91956108aa565b939291016102cb565b8095910361033b5760019161031e916108aa565b63d9d1f46560e01b5f5260045ffd5b630336dc9d60e41b5f5260045ffd5b632154bfcf60e21b5f5260045ffd5b67ffffffffffffffff811161015d5760051b60200190565b346101235760203660031901126101235760043567ffffffffffffffff81116101235736602382011215610123578060040135906103bd82610368565b916103cb604051938461013b565b8083526024602084019160051b8301019136831161012357602401905b82821061040b5761011f6103fb85610c21565b6040519081529081906020820190565b81358152602091820191016103e8565b34610123575f36600319011261012357604051604081019080821067ffffffffffffffff83111761015d5761011f9160405260158152741c99591cdd1bdb994b5c1c9a5b585c9e4b5c1c9bd9605a1b60208201526040519182916020835260208301906101f0565b34610123576020366003190112610123576103e8600435048042105f146104d2574281038181116104cd57603c106104b757005b63b6b0916d60e01b5f526004524260245260445ffd5b610647565b8042034281116104cd5760b4106104e557005b630321d0b560e01b5f526004524260245260445ffd5b34610123575f36600319011261012357602060405160038152f35b90816020910312610123575190565b6040513d5f823e3d90fd5b1561053757565b60405162461bcd60e51b815260206004820152600e60248201526d666565644964206d697373696e6760901b6044820152606490fd5b6040516060919061057e838261013b565b6002815291601f1901366020840137565b634e487b7160e01b5f52603260045260245ffd5b8051156105b05760200190565b61058f565b8051600110156105b05760400190565b80518210156105b05760209160051b010190565b156105e057565b60405162461bcd60e51b815260206004820152600960248201526862616420707269636560b81b6044820152606490fd5b1561061857565b60405162461bcd60e51b81526020600482015260076024820152667031207a65726f60c81b6044820152606490fd5b634e487b7160e01b5f52601160045260245ffd5b90670de0b6b3a7640000820291808304670de0b6b3a764000014901517156104cd57565b818102929181159184041417156104cd57565b811561069c570490565b634e487b7160e01b5f52601260045260245ffd5b608051604051636fbd6cdf60e11b81526001600160a01b039182166004820152907f000000000000000000000000000000000000000000000000000000000000000016602082602481845afa91821561082b575f92610830575b5060a051604051636fbd6cdf60e11b81526001600160a01b0390911660048201529060209082908180602481015b03915afa90811561082b576107cc926102259261078b925f916107fc575b50811515806107f3575b61076990610530565b61077161056d565b9161077b836105a3565b52610785826105b5565b52610af1565b92906107c76107a361079c836105a3565b51926105b5565b5191801515806107ea575b6107b7906105d9565b6107c2831515610611565b61065b565b610692565b6040805160208101929092528181019390935291825260608261013b565b508215156107ae565b50801515610760565b61081e915060203d602011610824575b610816818361013b565b810190610516565b5f610756565b503d61080c565b610525565b61073891925061084e602091823d841161082457610816818361013b565b92915061070a565b90606882018092116104cd57565b90600282018092116104cd57565b90602082018092116104cd57565b90600d82018092116104cd57565b90604182018092116104cd57565b90604e82018092116104cd57565b919082018092116104cd57565b5f198101919082116104cd57565b919082039182116104cd57565b6001600160a01b038116738bb8f32df04c8b654987daaed53d6b6091e3b77481036108fd5750505f90565b73deb22f54738d54976c4c0fe5ce6d408e40d88499810361091f575050600190565b7351ce04be4b3e32572c4ec9135221d0691ba7d2028103610941575050600290565b73dd682daec5a90dd295d14da4b0bec9281017b5be8103610963575050600390565b739c5ae89c4af6aa32ce58588dbaf90d18a855b6de036109835750600490565b6303b1166f60e61b5f526001600160a01b031660045260245ffd5b6602ed57011e0000601f19360135166602ed57011e000003610a135736602911610a045762ffffff60281936013516600381018091116104cd57600981018091116104cd57366109ed82610864565b116109f55790565b63c30a7bd760e01b5f5260045ffd5b632bcb7bc560e11b5f5260045ffd5b6373bb264f60e11b5f5260045ffd5b90602082018083116104cd573610610a045760028201918281116104cd573603601f1901359190565b610a5490610be0565b602001806020116104cd57610a689161067f565b604e81018091116104cd5790565b90610a8082610368565b610a8d604051918261013b565b8281528092610a9e601f1991610368565b0190602036910137565b90610ab282610368565b610abf604051918261013b565b8281528092610ad0601f1991610368565b01905f5b828110610ae057505050565b806060602080938501015201610ad4565b5f610afc8251610a76565b90610b078351610a76565b92610b128151610aa8565b946003935f5b8351811015610b4957600190610b2d87610a76565b610b37828b6105c5565b52610b42818a6105c5565b5001610b18565b5092959161ffff919450610b5e6102b961099e565b9216956040519160205f9301935b888410610b87575050505050610b83929350610ea6565b9190565b610b949086848985610cdf565b9390938015610bd1578a8103610bb4575b50600190856040520192610b6c565b9099610bc257986001610ba5565b63265e23a160e11b5f5260045ffd5b63dfb25a7960e01b5f5260045ffd5b604181018082116104cd5760618201106104cd573603906060198201913683116104cd5760631901918083116104cd573562ffffff16913563ffffffff1690565b6002815114610c9557805115610c8657610c3a81610f1f565b805160011c8151600116610c795761022591610c6c82610c65610c5f610c73956108b7565b846105c5565b51926105c5565b51906108aa565b60011c90565b610c82916105c5565b5190565b639e198af960e01b5f5260045ffd5b610ca8610ca1826105a3565b51916105b5565b5181018091116104cd5760011c90565b5f1981146104cd5760010190565b9060405191818352602082840101604052602083013790565b9094939294610ced84610be0565b939091610cf985610872565b610d03908461067f565b610d0c90610880565b97610d1687610856565b610d2090366108c5565b988080610d2c8a61088e565b90610d36916108aa565b610d4090366108c5565b90610d4a91610cc6565b60200120610d578861088e565b610d6091610f6f565b610d69906108d2565b60ff1696610d769061089c565b965f945b808610610d9757505050505050505065ffffffffffff9092351690565b9193969990929497610daf8b610db4929b989b6108aa565b610872565b95610dbf8b88611030565b9790935f5b8c51811015610e9057610dd7818e6105c5565b518614610de657600101610dc4565b90988a9896979550610e0282959e956001959e9c9d949d6105c5565b516001891b81161580610e7c575b610e26575b5050505b0195969594939096610d7a565b610e7391610e49610e37858a6105c5565b51610e42868c6105c5565b51906105c5565b52610e5d610e57848a6105c5565b51610cb8565b610e67848a6105c5565b5284891b1791896105c5565b525f8080610e15565b50610e8783896105c5565b51600311610e10565b509750986001919a9896949593509a919a610e19565b9190610eb28351610a76565b905f5b8451811015610f18576003610eca82846105c5565b5110610ef75780610ee6610ee0600193886105c5565b51610c21565b610ef082866105c5565b5201610eb5565b610f00916105c5565b51632b13aef560e01b5f52600452600360245260445ffd5b5090925050565b805160051b810160209081019101805b828110610f3b57505050565b815b818110610f4d5750602001610f2f565b60209082518151808210610f64575b505001610f3d565b845281525f80610f5c565b9190360360208101359060408101355f1a91601b83141580611025575b611011577f7fffffffffffffffffffffffffffffff5d576e7357a4501ddfe92f46681b20a08111611011576040805186815260ff9490941660208086019190915292359084015260608301525f808052909160809060015afa1561082b575f51916001600160a01b03831615610fff5750565b633335be5d60e11b5f5260045260245ffd5b633335be5d60e11b5f52600485905260245ffd5b50601c831415610f8c565b9190913603913683116104cd57823592602182101561105857602001359060200360031b1c90565b506360007e2160e11b5f5260045260245ffdfea26469706673582212206be1bd75fcb6efa01954c7b2ae3b3a7589e7640293fa772de349031435c810f364736f6c634300081e0033","opcodes":"PUSH1 0xA0 CALLVALUE PUSH1 0x6D JUMPI PUSH1 0x1F PUSH2 0x1127 CODESIZE DUP2 SWAP1 SUB SWAP2 DUP3 ADD PUSH1 0x1F NOT AND DUP4 ADD SWAP2 PUSH1 0x1 PUSH1 0x1 PUSH1 0x40 SHL SUB DUP4 GT DUP5 DUP5 LT OR PUSH1 0x71 JUMPI DUP1 DUP5 SWAP3 PUSH1 0x20 SWAP5 PUSH1 0x40 MSTORE DUP4 CODECOPY DUP2 ADD SUB SLT PUSH1 0x6D JUMPI MLOAD PUSH1 0x1 PUSH1 0x1 PUSH1 0xA0 SHL SUB DUP2 AND DUP2 SUB PUSH1 0x6D JUMPI PUSH1 0x80 MSTORE PUSH1 0x40 MLOAD PUSH2 0x10A1 SWAP1 DUP2 PUSH2 0x86 DUP3 CODECOPY PUSH1 0x80 MLOAD DUP2 DUP2 DUP2 PUSH2 0x26B ADD MSTORE PUSH2 0x6D3 ADD MSTORE RETURN JUMPDEST PUSH0 DUP1 REVERT JUMPDEST PUSH4 0x4E487B71 PUSH1 0xE0 SHL PUSH0 MSTORE PUSH1 0x41 PUSH1 0x4 MSTORE PUSH1 0x24 PUSH0 REVERT INVALID PUSH1 0x80 PUSH1 0x40 MSTORE PUSH1 0x4 CALLDATASIZE LT ISZERO PUSH2 0x11 JUMPI PUSH0 DUP1 REVERT JUMPDEST PUSH0 CALLDATALOAD PUSH1 0xE0 SHR DUP1 PUSH4 0x3BD1104B EQ PUSH2 0x94 JUMPI DUP1 PUSH4 0x3CE142F5 EQ PUSH2 0x8F JUMPI DUP1 PUSH4 0x516FD9A7 EQ PUSH2 0x8A JUMPI DUP1 PUSH4 0x55A547D5 EQ PUSH2 0x85 JUMPI DUP1 PUSH4 0xB24EBFCC EQ PUSH2 0x80 JUMPI DUP1 PUSH4 0xC274583A EQ PUSH2 0x7B JUMPI DUP1 PUSH4 0xF50B2EFE EQ PUSH2 0x76 JUMPI PUSH4 0xF90C4924 EQ PUSH2 0x71 JUMPI PUSH0 DUP1 REVERT JUMPDEST PUSH2 0x4FB JUMP JUMPDEST PUSH2 0x483 JUMP JUMPDEST PUSH2 0x41B JUMP JUMPDEST PUSH2 0x380 JUMP JUMPDEST PUSH2 0x29A JUMP JUMPDEST PUSH2 0x256 JUMP JUMPDEST PUSH2 0x228 JUMP JUMPDEST CALLVALUE PUSH2 0x123 JUMPI PUSH2 0x100 CALLDATASIZE PUSH1 0x3 NOT ADD SLT PUSH2 0x123 JUMPI PUSH2 0xB1 PUSH2 0x180 PUSH1 0x40 MSTORE JUMP JUMPDEST PUSH2 0xB9 PUSH2 0x162 JUMP JUMPDEST PUSH1 0x80 MSTORE PUSH2 0xC4 PUSH2 0x178 JUMP JUMPDEST PUSH1 0xA0 MSTORE PUSH2 0xCF PUSH2 0x18E JUMP JUMPDEST PUSH1 0xC0 MSTORE PUSH1 0x64 CALLDATALOAD PUSH1 0xE0 MSTORE PUSH2 0xE0 PUSH2 0x1A4 JUMP JUMPDEST PUSH2 0x100 MSTORE PUSH2 0xEC PUSH2 0x1BA JUMP JUMPDEST PUSH2 0x120 MSTORE PUSH2 0xF8 PUSH2 0x1D0 JUMP JUMPDEST PUSH2 0x140 MSTORE PUSH2 0x104 PUSH2 0x1E1 JUMP JUMPDEST PUSH2 0x160 MSTORE PUSH2 0x11F PUSH2 0x113 PUSH2 0x6B0 JUMP JUMPDEST PUSH1 0x40 MLOAD SWAP2 DUP3 SWAP2 DUP3 PUSH2 0x214 JUMP JUMPDEST SUB SWAP1 RETURN JUMPDEST PUSH0 DUP1 REVERT JUMPDEST PUSH4 0x4E487B71 PUSH1 0xE0 SHL PUSH0 MSTORE PUSH1 0x41 PUSH1 0x4 MSTORE PUSH1 0x24 PUSH0 REVERT JUMPDEST SWAP1 PUSH1 0x1F DUP1 NOT SWAP2 ADD AND DUP2 ADD SWAP1 DUP2 LT PUSH8 0xFFFFFFFFFFFFFFFF DUP3 GT OR PUSH2 0x15D JUMPI PUSH1 0x40 MSTORE JUMP JUMPDEST PUSH2 0x127 JUMP JUMPDEST PUSH1 0x4 CALLDATALOAD SWAP1 PUSH1 0x1 PUSH1 0x1 PUSH1 0xA0 SHL SUB DUP3 AND DUP3 SUB PUSH2 0x123 JUMPI JUMP JUMPDEST PUSH1 0x24 CALLDATALOAD SWAP1 PUSH1 0x1 PUSH1 0x1 PUSH1 0xA0 SHL SUB DUP3 AND DUP3 SUB PUSH2 0x123 JUMPI JUMP JUMPDEST PUSH1 0x44 CALLDATALOAD SWAP1 PUSH1 0x1 PUSH1 0x1 PUSH1 0xA0 SHL SUB DUP3 AND DUP3 SUB PUSH2 0x123 JUMPI JUMP JUMPDEST PUSH1 0x84 CALLDATALOAD SWAP1 PUSH1 0x1 PUSH1 0x1 PUSH1 0x80 SHL SUB DUP3 AND DUP3 SUB PUSH2 0x123 JUMPI JUMP JUMPDEST PUSH1 0xA4 CALLDATALOAD SWAP1 PUSH1 0x1 PUSH1 0x1 PUSH1 0x80 SHL SUB DUP3 AND DUP3 SUB PUSH2 0x123 JUMPI JUMP JUMPDEST PUSH1 0xC4 CALLDATALOAD SWAP1 PUSH2 0xFFFF DUP3 AND DUP3 SUB PUSH2 0x123 JUMPI JUMP JUMPDEST PUSH1 0xE4 CALLDATALOAD SWAP1 DUP2 ISZERO ISZERO DUP3 SUB PUSH2 0x123 JUMPI JUMP JUMPDEST DUP1 MLOAD DUP1 DUP4 MSTORE PUSH1 0x20 SWAP3 SWAP2 DUP2 SWAP1 DUP5 ADD DUP5 DUP5 ADD MCOPY PUSH0 DUP3 DUP3 ADD DUP5 ADD MSTORE PUSH1 0x1F ADD PUSH1 0x1F NOT AND ADD ADD SWAP1 JUMP JUMPDEST SWAP1 PUSH1 0x20 PUSH2 0x225 SWAP3 DUP2 DUP2 MSTORE ADD SWAP1 PUSH2 0x1F0 JUMP JUMPDEST SWAP1 JUMP JUMPDEST CALLVALUE PUSH2 0x123 JUMPI PUSH1 0x20 CALLDATASIZE PUSH1 0x3 NOT ADD SLT PUSH2 0x123 JUMPI PUSH1 0x20 PUSH2 0x24B PUSH2 0x246 PUSH2 0x162 JUMP JUMPDEST PUSH2 0x8D2 JUMP JUMPDEST PUSH1 0xFF PUSH1 0x40 MLOAD SWAP2 AND DUP2 MSTORE RETURN JUMPDEST CALLVALUE PUSH2 0x123 JUMPI PUSH0 CALLDATASIZE PUSH1 0x3 NOT ADD SLT PUSH2 0x123 JUMPI PUSH1 0x40 MLOAD PUSH32 0x0 PUSH1 0x1 PUSH1 0x1 PUSH1 0xA0 SHL SUB AND DUP2 MSTORE PUSH1 0x20 SWAP1 RETURN JUMPDEST CALLVALUE PUSH2 0x123 JUMPI PUSH0 CALLDATASIZE PUSH1 0x3 NOT ADD SLT PUSH2 0x123 JUMPI PUSH0 PUSH2 0xFFFF PUSH2 0x2BE PUSH2 0x2B9 PUSH2 0x99E JUMP JUMPDEST PUSH2 0xA22 JUMP JUMPDEST SWAP2 AND SWAP1 DUP2 ISZERO PUSH2 0x359 JUMPI SWAP2 SWAP1 PUSH0 JUMPDEST DUP2 DUP2 LT PUSH2 0x2DD JUMPI PUSH1 0x40 MLOAD DUP4 DUP2 MSTORE PUSH1 0x20 SWAP1 RETURN JUMPDEST SWAP1 SWAP2 PUSH2 0x2E8 DUP5 PUSH2 0xA4B JUMP JUMPDEST SWAP1 PUSH6 0xFFFFFFFFFFFF PUSH2 0x302 PUSH2 0x2FC DUP8 PUSH2 0x856 JUMP JUMPDEST CALLDATASIZE PUSH2 0x8C5 JUMP JUMPDEST CALLDATALOAD AND SWAP1 DUP2 ISZERO PUSH2 0x34A JUMPI DUP1 PUSH2 0x327 JUMPI POP PUSH1 0x1 SWAP2 PUSH2 0x31E SWAP2 SWAP6 PUSH2 0x8AA JUMP JUMPDEST SWAP4 SWAP3 SWAP2 ADD PUSH2 0x2CB JUMP JUMPDEST DUP1 SWAP6 SWAP2 SUB PUSH2 0x33B JUMPI PUSH1 0x1 SWAP2 PUSH2 0x31E SWAP2 PUSH2 0x8AA JUMP JUMPDEST PUSH4 0xD9D1F465 PUSH1 0xE0 SHL PUSH0 MSTORE PUSH1 0x4 PUSH0 REVERT JUMPDEST PUSH4 0x336DC9D PUSH1 0xE4 SHL PUSH0 MSTORE PUSH1 0x4 PUSH0 REVERT JUMPDEST PUSH4 0x2154BFCF PUSH1 0xE2 SHL PUSH0 MSTORE PUSH1 0x4 PUSH0 REVERT JUMPDEST PUSH8 0xFFFFFFFFFFFFFFFF DUP2 GT PUSH2 0x15D JUMPI PUSH1 0x5 SHL PUSH1 0x20 ADD SWAP1 JUMP JUMPDEST CALLVALUE PUSH2 0x123 JUMPI PUSH1 0x20 CALLDATASIZE PUSH1 0x3 NOT ADD SLT PUSH2 0x123 JUMPI PUSH1 0x4 CALLDATALOAD PUSH8 0xFFFFFFFFFFFFFFFF DUP2 GT PUSH2 0x123 JUMPI CALLDATASIZE PUSH1 0x23 DUP3 ADD SLT ISZERO PUSH2 0x123 JUMPI DUP1 PUSH1 0x4 ADD CALLDATALOAD SWAP1 PUSH2 0x3BD DUP3 PUSH2 0x368 JUMP JUMPDEST SWAP2 PUSH2 0x3CB PUSH1 0x40 MLOAD SWAP4 DUP5 PUSH2 0x13B JUMP JUMPDEST DUP1 DUP4 MSTORE PUSH1 0x24 PUSH1 0x20 DUP5 ADD SWAP2 PUSH1 0x5 SHL DUP4 ADD ADD SWAP2 CALLDATASIZE DUP4 GT PUSH2 0x123 JUMPI PUSH1 0x24 ADD SWAP1 JUMPDEST DUP3 DUP3 LT PUSH2 0x40B JUMPI PUSH2 0x11F PUSH2 0x3FB DUP6 PUSH2 0xC21 JUMP JUMPDEST PUSH1 0x40 MLOAD SWAP1 DUP2 MSTORE SWAP1 DUP2 SWAP1 PUSH1 0x20 DUP3 ADD SWAP1 JUMP JUMPDEST DUP2 CALLDATALOAD DUP2 MSTORE PUSH1 0x20 SWAP2 DUP3 ADD SWAP2 ADD PUSH2 0x3E8 JUMP JUMPDEST CALLVALUE PUSH2 0x123 JUMPI PUSH0 CALLDATASIZE PUSH1 0x3 NOT ADD SLT PUSH2 0x123 JUMPI PUSH1 0x40 MLOAD PUSH1 0x40 DUP2 ADD SWAP1 DUP1 DUP3 LT PUSH8 0xFFFFFFFFFFFFFFFF DUP4 GT OR PUSH2 0x15D JUMPI PUSH2 0x11F SWAP2 PUSH1 0x40 MSTORE PUSH1 0x15 DUP2 MSTORE PUSH21 0x1C99591CDD1BDB994B5C1C9A5B585C9E4B5C1C9BD9 PUSH1 0x5A SHL PUSH1 0x20 DUP3 ADD MSTORE PUSH1 0x40 MLOAD SWAP2 DUP3 SWAP2 PUSH1 0x20 DUP4 MSTORE PUSH1 0x20 DUP4 ADD SWAP1 PUSH2 0x1F0 JUMP JUMPDEST CALLVALUE PUSH2 0x123 JUMPI PUSH1 0x20 CALLDATASIZE PUSH1 0x3 NOT ADD SLT PUSH2 0x123 JUMPI PUSH2 0x3E8 PUSH1 0x4 CALLDATALOAD DIV DUP1 TIMESTAMP LT PUSH0 EQ PUSH2 0x4D2 JUMPI TIMESTAMP DUP2 SUB DUP2 DUP2 GT PUSH2 0x4CD JUMPI PUSH1 0x3C LT PUSH2 0x4B7 JUMPI STOP JUMPDEST PUSH4 0xB6B0916D PUSH1 0xE0 SHL PUSH0 MSTORE PUSH1 0x4 MSTORE TIMESTAMP PUSH1 0x24 MSTORE PUSH1 0x44 PUSH0 REVERT JUMPDEST PUSH2 0x647 JUMP JUMPDEST DUP1 TIMESTAMP SUB TIMESTAMP DUP2 GT PUSH2 0x4CD JUMPI PUSH1 0xB4 LT PUSH2 0x4E5 JUMPI STOP JUMPDEST PUSH4 0x321D0B5 PUSH1 0xE0 SHL PUSH0 MSTORE PUSH1 0x4 MSTORE TIMESTAMP PUSH1 0x24 MSTORE PUSH1 0x44 PUSH0 REVERT JUMPDEST CALLVALUE PUSH2 0x123 JUMPI PUSH0 CALLDATASIZE PUSH1 0x3 NOT ADD SLT PUSH2 0x123 JUMPI PUSH1 0x20 PUSH1 0x40 MLOAD PUSH1 0x3 DUP2 MSTORE RETURN JUMPDEST SWAP1 DUP2 PUSH1 0x20 SWAP2 SUB SLT PUSH2 0x123 JUMPI MLOAD SWAP1 JUMP JUMPDEST PUSH1 0x40 MLOAD RETURNDATASIZE PUSH0 DUP3 RETURNDATACOPY RETURNDATASIZE SWAP1 REVERT JUMPDEST ISZERO PUSH2 0x537 JUMPI JUMP JUMPDEST PUSH1 0x40 MLOAD PUSH3 0x461BCD PUSH1 0xE5 SHL DUP2 MSTORE PUSH1 0x20 PUSH1 0x4 DUP3 ADD MSTORE PUSH1 0xE PUSH1 0x24 DUP3 ADD MSTORE PUSH14 0x666565644964206D697373696E67 PUSH1 0x90 SHL PUSH1 0x44 DUP3 ADD MSTORE PUSH1 0x64 SWAP1 REVERT JUMPDEST PUSH1 0x40 MLOAD PUSH1 0x60 SWAP2 SWAP1 PUSH2 0x57E DUP4 DUP3 PUSH2 0x13B JUMP JUMPDEST PUSH1 0x2 DUP2 MSTORE SWAP2 PUSH1 0x1F NOT ADD CALLDATASIZE PUSH1 0x20 DUP5 ADD CALLDATACOPY JUMP JUMPDEST PUSH4 0x4E487B71 PUSH1 0xE0 SHL PUSH0 MSTORE PUSH1 0x32 PUSH1 0x4 MSTORE PUSH1 0x24 PUSH0 REVERT JUMPDEST DUP1 MLOAD ISZERO PUSH2 0x5B0 JUMPI PUSH1 0x20 ADD SWAP1 JUMP JUMPDEST PUSH2 0x58F JUMP JUMPDEST DUP1 MLOAD PUSH1 0x1 LT ISZERO PUSH2 0x5B0 JUMPI PUSH1 0x40 ADD SWAP1 JUMP JUMPDEST DUP1 MLOAD DUP3 LT ISZERO PUSH2 0x5B0 JUMPI PUSH1 0x20 SWAP2 PUSH1 0x5 SHL ADD ADD SWAP1 JUMP JUMPDEST ISZERO PUSH2 0x5E0 JUMPI JUMP JUMPDEST PUSH1 0x40 MLOAD PUSH3 0x461BCD PUSH1 0xE5 SHL DUP2 MSTORE PUSH1 0x20 PUSH1 0x4 DUP3 ADD MSTORE PUSH1 0x9 PUSH1 0x24 DUP3 ADD MSTORE PUSH9 0x626164207072696365 PUSH1 0xB8 SHL PUSH1 0x44 DUP3 ADD MSTORE PUSH1 0x64 SWAP1 REVERT JUMPDEST ISZERO PUSH2 0x618 JUMPI JUMP JUMPDEST PUSH1 0x40 MLOAD PUSH3 0x461BCD PUSH1 0xE5 SHL DUP2 MSTORE PUSH1 0x20 PUSH1 0x4 DUP3 ADD MSTORE PUSH1 0x7 PUSH1 0x24 DUP3 ADD MSTORE PUSH7 0x7031207A65726F PUSH1 0xC8 SHL PUSH1 0x44 DUP3 ADD MSTORE PUSH1 0x64 SWAP1 REVERT JUMPDEST PUSH4 0x4E487B71 PUSH1 0xE0 SHL PUSH0 MSTORE PUSH1 0x11 PUSH1 0x4 MSTORE PUSH1 0x24 PUSH0 REVERT JUMPDEST SWAP1 PUSH8 0xDE0B6B3A7640000 DUP3 MUL SWAP2 DUP1 DUP4 DIV PUSH8 0xDE0B6B3A7640000 EQ SWAP1 ISZERO OR ISZERO PUSH2 0x4CD JUMPI JUMP JUMPDEST DUP2 DUP2 MUL SWAP3 SWAP2 DUP2 ISZERO SWAP2 DUP5 DIV EQ OR ISZERO PUSH2 0x4CD JUMPI JUMP JUMPDEST DUP2 ISZERO PUSH2 0x69C JUMPI DIV SWAP1 JUMP JUMPDEST PUSH4 0x4E487B71 PUSH1 0xE0 SHL PUSH0 MSTORE PUSH1 0x12 PUSH1 0x4 MSTORE PUSH1 0x24 PUSH0 REVERT JUMPDEST PUSH1 0x80 MLOAD PUSH1 0x40 MLOAD PUSH4 0x6FBD6CDF PUSH1 0xE1 SHL DUP2 MSTORE PUSH1 0x1 PUSH1 0x1 PUSH1 0xA0 SHL SUB SWAP2 DUP3 AND PUSH1 0x4 DUP3 ADD MSTORE SWAP1 PUSH32 0x0 AND PUSH1 0x20 DUP3 PUSH1 0x24 DUP2 DUP5 GAS STATICCALL SWAP2 DUP3 ISZERO PUSH2 0x82B JUMPI PUSH0 SWAP3 PUSH2 0x830 JUMPI JUMPDEST POP PUSH1 0xA0 MLOAD PUSH1 0x40 MLOAD PUSH4 0x6FBD6CDF PUSH1 0xE1 SHL DUP2 MSTORE PUSH1 0x1 PUSH1 0x1 PUSH1 0xA0 SHL SUB SWAP1 SWAP2 AND PUSH1 0x4 DUP3 ADD MSTORE SWAP1 PUSH1 0x20 SWAP1 DUP3 SWAP1 DUP2 DUP1 PUSH1 0x24 DUP2 ADD JUMPDEST SUB SWAP2 GAS STATICCALL SWAP1 DUP2 ISZERO PUSH2 0x82B JUMPI PUSH2 0x7CC SWAP3 PUSH2 0x225 SWAP3 PUSH2 0x78B SWAP3 PUSH0 SWAP2 PUSH2 0x7FC JUMPI JUMPDEST POP DUP2 ISZERO ISZERO DUP1 PUSH2 0x7F3 JUMPI JUMPDEST PUSH2 0x769 SWAP1 PUSH2 0x530 JUMP JUMPDEST PUSH2 0x771 PUSH2 0x56D JUMP JUMPDEST SWAP2 PUSH2 0x77B DUP4 PUSH2 0x5A3 JUMP JUMPDEST MSTORE PUSH2 0x785 DUP3 PUSH2 0x5B5 JUMP JUMPDEST MSTORE PUSH2 0xAF1 JUMP JUMPDEST SWAP3 SWAP1 PUSH2 0x7C7 PUSH2 0x7A3 PUSH2 0x79C DUP4 PUSH2 0x5A3 JUMP JUMPDEST MLOAD SWAP3 PUSH2 0x5B5 JUMP JUMPDEST MLOAD SWAP2 DUP1 ISZERO ISZERO DUP1 PUSH2 0x7EA JUMPI JUMPDEST PUSH2 0x7B7 SWAP1 PUSH2 0x5D9 JUMP JUMPDEST PUSH2 0x7C2 DUP4 ISZERO ISZERO PUSH2 0x611 JUMP JUMPDEST PUSH2 0x65B JUMP JUMPDEST PUSH2 0x692 JUMP JUMPDEST PUSH1 0x40 DUP1 MLOAD PUSH1 0x20 DUP2 ADD SWAP3 SWAP1 SWAP3 MSTORE DUP2 DUP2 ADD SWAP4 SWAP1 SWAP4 MSTORE SWAP2 DUP3 MSTORE PUSH1 0x60 DUP3 PUSH2 0x13B JUMP JUMPDEST POP DUP3 ISZERO ISZERO PUSH2 0x7AE JUMP JUMPDEST POP DUP1 ISZERO ISZERO PUSH2 0x760 JUMP JUMPDEST PUSH2 0x81E SWAP2 POP PUSH1 0x20 RETURNDATASIZE PUSH1 0x20 GT PUSH2 0x824 JUMPI JUMPDEST PUSH2 0x816 DUP2 DUP4 PUSH2 0x13B JUMP JUMPDEST DUP2 ADD SWAP1 PUSH2 0x516 JUMP JUMPDEST PUSH0 PUSH2 0x756 JUMP JUMPDEST POP RETURNDATASIZE PUSH2 0x80C JUMP JUMPDEST PUSH2 0x525 JUMP JUMPDEST PUSH2 0x738 SWAP2 SWAP3 POP PUSH2 0x84E PUSH1 0x20 SWAP2 DUP3 RETURNDATASIZE DUP5 GT PUSH2 0x824 JUMPI PUSH2 0x816 DUP2 DUP4 PUSH2 0x13B JUMP JUMPDEST SWAP3 SWAP2 POP PUSH2 0x70A JUMP JUMPDEST SWAP1 PUSH1 0x68 DUP3 ADD DUP1 SWAP3 GT PUSH2 0x4CD JUMPI JUMP JUMPDEST SWAP1 PUSH1 0x2 DUP3 ADD DUP1 SWAP3 GT PUSH2 0x4CD JUMPI JUMP JUMPDEST SWAP1 PUSH1 0x20 DUP3 ADD DUP1 SWAP3 GT PUSH2 0x4CD JUMPI JUMP JUMPDEST SWAP1 PUSH1 0xD DUP3 ADD DUP1 SWAP3 GT PUSH2 0x4CD JUMPI JUMP JUMPDEST SWAP1 PUSH1 0x41 DUP3 ADD DUP1 SWAP3 GT PUSH2 0x4CD JUMPI JUMP JUMPDEST SWAP1 PUSH1 0x4E DUP3 ADD DUP1 SWAP3 GT PUSH2 0x4CD JUMPI JUMP JUMPDEST SWAP2 SWAP1 DUP3 ADD DUP1 SWAP3 GT PUSH2 0x4CD JUMPI JUMP JUMPDEST PUSH0 NOT DUP2 ADD SWAP2 SWAP1 DUP3 GT PUSH2 0x4CD JUMPI JUMP JUMPDEST SWAP2 SWAP1 DUP3 SUB SWAP2 DUP3 GT PUSH2 0x4CD JUMPI JUMP JUMPDEST PUSH1 0x1 PUSH1 0x1 PUSH1 0xA0 SHL SUB DUP2 AND PUSH20 0x8BB8F32DF04C8B654987DAAED53D6B6091E3B774 DUP2 SUB PUSH2 0x8FD JUMPI POP POP PUSH0 SWAP1 JUMP JUMPDEST PUSH20 0xDEB22F54738D54976C4C0FE5CE6D408E40D88499 DUP2 SUB PUSH2 0x91F JUMPI POP POP PUSH1 0x1 SWAP1 JUMP JUMPDEST PUSH20 0x51CE04BE4B3E32572C4EC9135221D0691BA7D202 DUP2 SUB PUSH2 0x941 JUMPI POP POP PUSH1 0x2 SWAP1 JUMP JUMPDEST PUSH20 0xDD682DAEC5A90DD295D14DA4B0BEC9281017B5BE DUP2 SUB PUSH2 0x963 JUMPI POP POP PUSH1 0x3 SWAP1 JUMP JUMPDEST PUSH20 0x9C5AE89C4AF6AA32CE58588DBAF90D18A855B6DE SUB PUSH2 0x983 JUMPI POP PUSH1 0x4 SWAP1 JUMP JUMPDEST PUSH4 0x3B1166F PUSH1 0xE6 SHL PUSH0 MSTORE PUSH1 0x1 PUSH1 0x1 PUSH1 0xA0 SHL SUB AND PUSH1 0x4 MSTORE PUSH1 0x24 PUSH0 REVERT JUMPDEST PUSH7 0x2ED57011E0000 PUSH1 0x1F NOT CALLDATASIZE ADD CALLDATALOAD AND PUSH7 0x2ED57011E0000 SUB PUSH2 0xA13 JUMPI CALLDATASIZE PUSH1 0x29 GT PUSH2 0xA04 JUMPI PUSH3 0xFFFFFF PUSH1 0x28 NOT CALLDATASIZE ADD CALLDATALOAD AND PUSH1 0x3 DUP2 ADD DUP1 SWAP2 GT PUSH2 0x4CD JUMPI PUSH1 0x9 DUP2 ADD DUP1 SWAP2 GT PUSH2 0x4CD JUMPI CALLDATASIZE PUSH2 0x9ED DUP3 PUSH2 0x864 JUMP JUMPDEST GT PUSH2 0x9F5 JUMPI SWAP1 JUMP JUMPDEST PUSH4 0xC30A7BD7 PUSH1 0xE0 SHL PUSH0 MSTORE PUSH1 0x4 PUSH0 REVERT JUMPDEST PUSH4 0x2BCB7BC5 PUSH1 0xE1 SHL PUSH0 MSTORE PUSH1 0x4 PUSH0 REVERT JUMPDEST PUSH4 0x73BB264F PUSH1 0xE1 SHL PUSH0 MSTORE PUSH1 0x4 PUSH0 REVERT JUMPDEST SWAP1 PUSH1 0x20 DUP3 ADD DUP1 DUP4 GT PUSH2 0x4CD JUMPI CALLDATASIZE LT PUSH2 0xA04 JUMPI PUSH1 0x2 DUP3 ADD SWAP2 DUP3 DUP2 GT PUSH2 0x4CD JUMPI CALLDATASIZE SUB PUSH1 0x1F NOT ADD CALLDATALOAD SWAP2 SWAP1 JUMP JUMPDEST PUSH2 0xA54 SWAP1 PUSH2 0xBE0 JUMP JUMPDEST PUSH1 0x20 ADD DUP1 PUSH1 0x20 GT PUSH2 0x4CD JUMPI PUSH2 0xA68 SWAP2 PUSH2 0x67F JUMP JUMPDEST PUSH1 0x4E DUP2 ADD DUP1 SWAP2 GT PUSH2 0x4CD JUMPI SWAP1 JUMP JUMPDEST SWAP1 PUSH2 0xA80 DUP3 PUSH2 0x368 JUMP JUMPDEST PUSH2 0xA8D PUSH1 0x40 MLOAD SWAP2 DUP3 PUSH2 0x13B JUMP JUMPDEST DUP3 DUP2 MSTORE DUP1 SWAP3 PUSH2 0xA9E PUSH1 0x1F NOT SWAP2 PUSH2 0x368 JUMP JUMPDEST ADD SWAP1 PUSH1 0x20 CALLDATASIZE SWAP2 ADD CALLDATACOPY JUMP JUMPDEST SWAP1 PUSH2 0xAB2 DUP3 PUSH2 0x368 JUMP JUMPDEST PUSH2 0xABF PUSH1 0x40 MLOAD SWAP2 DUP3 PUSH2 0x13B JUMP JUMPDEST DUP3 DUP2 MSTORE DUP1 SWAP3 PUSH2 0xAD0 PUSH1 0x1F NOT SWAP2 PUSH2 0x368 JUMP JUMPDEST ADD SWAP1 PUSH0 JUMPDEST DUP3 DUP2 LT PUSH2 0xAE0 JUMPI POP POP POP JUMP JUMPDEST DUP1 PUSH1 0x60 PUSH1 0x20 DUP1 SWAP4 DUP6 ADD ADD MSTORE ADD PUSH2 0xAD4 JUMP JUMPDEST PUSH0 PUSH2 0xAFC DUP3 MLOAD PUSH2 0xA76 JUMP JUMPDEST SWAP1 PUSH2 0xB07 DUP4 MLOAD PUSH2 0xA76 JUMP JUMPDEST SWAP3 PUSH2 0xB12 DUP2 MLOAD PUSH2 0xAA8 JUMP JUMPDEST SWAP5 PUSH1 0x3 SWAP4 PUSH0 JUMPDEST DUP4 MLOAD DUP2 LT ISZERO PUSH2 0xB49 JUMPI PUSH1 0x1 SWAP1 PUSH2 0xB2D DUP8 PUSH2 0xA76 JUMP JUMPDEST PUSH2 0xB37 DUP3 DUP12 PUSH2 0x5C5 JUMP JUMPDEST MSTORE PUSH2 0xB42 DUP2 DUP11 PUSH2 0x5C5 JUMP JUMPDEST POP ADD PUSH2 0xB18 JUMP JUMPDEST POP SWAP3 SWAP6 SWAP2 PUSH2 0xFFFF SWAP2 SWAP5 POP PUSH2 0xB5E PUSH2 0x2B9 PUSH2 0x99E JUMP JUMPDEST SWAP3 AND SWAP6 PUSH1 0x40 MLOAD SWAP2 PUSH1 0x20 PUSH0 SWAP4 ADD SWAP4 JUMPDEST DUP9 DUP5 LT PUSH2 0xB87 JUMPI POP POP POP POP POP PUSH2 0xB83 SWAP3 SWAP4 POP PUSH2 0xEA6 JUMP JUMPDEST SWAP2 SWAP1 JUMP JUMPDEST PUSH2 0xB94 SWAP1 DUP7 DUP5 DUP10 DUP6 PUSH2 0xCDF JUMP JUMPDEST SWAP4 SWAP1 SWAP4 DUP1 ISZERO PUSH2 0xBD1 JUMPI DUP11 DUP2 SUB PUSH2 0xBB4 JUMPI JUMPDEST POP PUSH1 0x1 SWAP1 DUP6 PUSH1 0x40 MSTORE ADD SWAP3 PUSH2 0xB6C JUMP JUMPDEST SWAP1 SWAP10 PUSH2 0xBC2 JUMPI SWAP9 PUSH1 0x1 PUSH2 0xBA5 JUMP JUMPDEST PUSH4 0x265E23A1 PUSH1 0xE1 SHL PUSH0 MSTORE PUSH1 0x4 PUSH0 REVERT JUMPDEST PUSH4 0xDFB25A79 PUSH1 0xE0 SHL PUSH0 MSTORE PUSH1 0x4 PUSH0 REVERT JUMPDEST PUSH1 0x41 DUP2 ADD DUP1 DUP3 GT PUSH2 0x4CD JUMPI PUSH1 0x61 DUP3 ADD LT PUSH2 0x4CD JUMPI CALLDATASIZE SUB SWAP1 PUSH1 0x60 NOT DUP3 ADD SWAP2 CALLDATASIZE DUP4 GT PUSH2 0x4CD JUMPI PUSH1 0x63 NOT ADD SWAP2 DUP1 DUP4 GT PUSH2 0x4CD JUMPI CALLDATALOAD PUSH3 0xFFFFFF AND SWAP2 CALLDATALOAD PUSH4 0xFFFFFFFF AND SWAP1 JUMP JUMPDEST PUSH1 0x2 DUP2 MLOAD EQ PUSH2 0xC95 JUMPI DUP1 MLOAD ISZERO PUSH2 0xC86 JUMPI PUSH2 0xC3A DUP2 PUSH2 0xF1F JUMP JUMPDEST DUP1 MLOAD PUSH1 0x1 SHR DUP2 MLOAD PUSH1 0x1 AND PUSH2 0xC79 JUMPI PUSH2 0x225 SWAP2 PUSH2 0xC6C DUP3 PUSH2 0xC65 PUSH2 0xC5F PUSH2 0xC73 SWAP6 PUSH2 0x8B7 JUMP JUMPDEST DUP5 PUSH2 0x5C5 JUMP JUMPDEST MLOAD SWAP3 PUSH2 0x5C5 JUMP JUMPDEST MLOAD SWAP1 PUSH2 0x8AA JUMP JUMPDEST PUSH1 0x1 SHR SWAP1 JUMP JUMPDEST PUSH2 0xC82 SWAP2 PUSH2 0x5C5 JUMP JUMPDEST MLOAD SWAP1 JUMP JUMPDEST PUSH4 0x9E198AF9 PUSH1 0xE0 SHL PUSH0 MSTORE PUSH1 0x4 PUSH0 REVERT JUMPDEST PUSH2 0xCA8 PUSH2 0xCA1 DUP3 PUSH2 0x5A3 JUMP JUMPDEST MLOAD SWAP2 PUSH2 0x5B5 JUMP JUMPDEST MLOAD DUP2 ADD DUP1 SWAP2 GT PUSH2 0x4CD JUMPI PUSH1 0x1 SHR SWAP1 JUMP JUMPDEST PUSH0 NOT DUP2 EQ PUSH2 0x4CD JUMPI PUSH1 0x1 ADD SWAP1 JUMP JUMPDEST SWAP1 PUSH1 0x40 MLOAD SWAP2 DUP2 DUP4 MSTORE PUSH1 0x20 DUP3 DUP5 ADD ADD PUSH1 0x40 MSTORE PUSH1 0x20 DUP4 ADD CALLDATACOPY SWAP1 JUMP JUMPDEST SWAP1 SWAP5 SWAP4 SWAP3 SWAP5 PUSH2 0xCED DUP5 PUSH2 0xBE0 JUMP JUMPDEST SWAP4 SWAP1 SWAP2 PUSH2 0xCF9 DUP6 PUSH2 0x872 JUMP JUMPDEST PUSH2 0xD03 SWAP1 DUP5 PUSH2 0x67F JUMP JUMPDEST PUSH2 0xD0C SWAP1 PUSH2 0x880 JUMP JUMPDEST SWAP8 PUSH2 0xD16 DUP8 PUSH2 0x856 JUMP JUMPDEST PUSH2 0xD20 SWAP1 CALLDATASIZE PUSH2 0x8C5 JUMP JUMPDEST SWAP9 DUP1 DUP1 PUSH2 0xD2C DUP11 PUSH2 0x88E JUMP JUMPDEST SWAP1 PUSH2 0xD36 SWAP2 PUSH2 0x8AA JUMP JUMPDEST PUSH2 0xD40 SWAP1 CALLDATASIZE PUSH2 0x8C5 JUMP JUMPDEST SWAP1 PUSH2 0xD4A SWAP2 PUSH2 0xCC6 JUMP JUMPDEST PUSH1 0x20 ADD KECCAK256 PUSH2 0xD57 DUP9 PUSH2 0x88E JUMP JUMPDEST PUSH2 0xD60 SWAP2 PUSH2 0xF6F JUMP JUMPDEST PUSH2 0xD69 SWAP1 PUSH2 0x8D2 JUMP JUMPDEST PUSH1 0xFF AND SWAP7 PUSH2 0xD76 SWAP1 PUSH2 0x89C JUMP JUMPDEST SWAP7 PUSH0 SWAP5 JUMPDEST DUP1 DUP7 LT PUSH2 0xD97 JUMPI POP POP POP POP POP POP POP POP PUSH6 0xFFFFFFFFFFFF SWAP1 SWAP3 CALLDATALOAD AND SWAP1 JUMP JUMPDEST SWAP2 SWAP4 SWAP7 SWAP10 SWAP1 SWAP3 SWAP5 SWAP8 PUSH2 0xDAF DUP12 PUSH2 0xDB4 SWAP3 SWAP12 SWAP9 SWAP12 PUSH2 0x8AA JUMP JUMPDEST PUSH2 0x872 JUMP JUMPDEST SWAP6 PUSH2 0xDBF DUP12 DUP9 PUSH2 0x1030 JUMP JUMPDEST SWAP8 SWAP1 SWAP4 PUSH0 JUMPDEST DUP13 MLOAD DUP2 LT ISZERO PUSH2 0xE90 JUMPI PUSH2 0xDD7 DUP2 DUP15 PUSH2 0x5C5 JUMP JUMPDEST MLOAD DUP7 EQ PUSH2 0xDE6 JUMPI PUSH1 0x1 ADD PUSH2 0xDC4 JUMP JUMPDEST SWAP1 SWAP9 DUP11 SWAP9 SWAP7 SWAP8 SWAP6 POP PUSH2 0xE02 DUP3 SWAP6 SWAP15 SWAP6 PUSH1 0x1 SWAP6 SWAP15 SWAP13 SWAP14 SWAP5 SWAP14 PUSH2 0x5C5 JUMP JUMPDEST MLOAD PUSH1 0x1 DUP10 SHL DUP2 AND ISZERO DUP1 PUSH2 0xE7C JUMPI JUMPDEST PUSH2 0xE26 JUMPI JUMPDEST POP POP POP JUMPDEST ADD SWAP6 SWAP7 SWAP6 SWAP5 SWAP4 SWAP1 SWAP7 PUSH2 0xD7A JUMP JUMPDEST PUSH2 0xE73 SWAP2 PUSH2 0xE49 PUSH2 0xE37 DUP6 DUP11 PUSH2 0x5C5 JUMP JUMPDEST MLOAD PUSH2 0xE42 DUP7 DUP13 PUSH2 0x5C5 JUMP JUMPDEST MLOAD SWAP1 PUSH2 0x5C5 JUMP JUMPDEST MSTORE PUSH2 0xE5D PUSH2 0xE57 DUP5 DUP11 PUSH2 0x5C5 JUMP JUMPDEST MLOAD PUSH2 0xCB8 JUMP JUMPDEST PUSH2 0xE67 DUP5 DUP11 PUSH2 0x5C5 JUMP JUMPDEST MSTORE DUP5 DUP10 SHL OR SWAP2 DUP10 PUSH2 0x5C5 JUMP JUMPDEST MSTORE PUSH0 DUP1 DUP1 PUSH2 0xE15 JUMP JUMPDEST POP PUSH2 0xE87 DUP4 DUP10 PUSH2 0x5C5 JUMP JUMPDEST MLOAD PUSH1 0x3 GT PUSH2 0xE10 JUMP JUMPDEST POP SWAP8 POP SWAP9 PUSH1 0x1 SWAP2 SWAP11 SWAP9 SWAP7 SWAP5 SWAP6 SWAP4 POP SWAP11 SWAP2 SWAP11 PUSH2 0xE19 JUMP JUMPDEST SWAP2 SWAP1 PUSH2 0xEB2 DUP4 MLOAD PUSH2 0xA76 JUMP JUMPDEST SWAP1 PUSH0 JUMPDEST DUP5 MLOAD DUP2 LT ISZERO PUSH2 0xF18 JUMPI PUSH1 0x3 PUSH2 0xECA DUP3 DUP5 PUSH2 0x5C5 JUMP JUMPDEST MLOAD LT PUSH2 0xEF7 JUMPI DUP1 PUSH2 0xEE6 PUSH2 0xEE0 PUSH1 0x1 SWAP4 DUP9 PUSH2 0x5C5 JUMP JUMPDEST MLOAD PUSH2 0xC21 JUMP JUMPDEST PUSH2 0xEF0 DUP3 DUP7 PUSH2 0x5C5 JUMP JUMPDEST MSTORE ADD PUSH2 0xEB5 JUMP JUMPDEST PUSH2 0xF00 SWAP2 PUSH2 0x5C5 JUMP JUMPDEST MLOAD PUSH4 0x2B13AEF5 PUSH1 0xE0 SHL PUSH0 MSTORE PUSH1 0x4 MSTORE PUSH1 0x3 PUSH1 0x24 MSTORE PUSH1 0x44 PUSH0 REVERT JUMPDEST POP SWAP1 SWAP3 POP POP JUMP JUMPDEST DUP1 MLOAD PUSH1 0x5 SHL DUP2 ADD PUSH1 0x20 SWAP1 DUP2 ADD SWAP2 ADD DUP1 JUMPDEST DUP3 DUP2 LT PUSH2 0xF3B JUMPI POP POP POP JUMP JUMPDEST DUP2 JUMPDEST DUP2 DUP2 LT PUSH2 0xF4D JUMPI POP PUSH1 0x20 ADD PUSH2 0xF2F JUMP JUMPDEST PUSH1 0x20 SWAP1 DUP3 MLOAD DUP2 MLOAD DUP1 DUP3 LT PUSH2 0xF64 JUMPI JUMPDEST POP POP ADD PUSH2 0xF3D JUMP JUMPDEST DUP5 MSTORE DUP2 MSTORE PUSH0 DUP1 PUSH2 0xF5C JUMP JUMPDEST SWAP2 SWAP1 CALLDATASIZE SUB PUSH1 0x20 DUP2 ADD CALLDATALOAD SWAP1 PUSH1 0x40 DUP2 ADD CALLDATALOAD PUSH0 BYTE SWAP2 PUSH1 0x1B DUP4 EQ ISZERO DUP1 PUSH2 0x1025 JUMPI JUMPDEST PUSH2 0x1011 JUMPI PUSH32 0x7FFFFFFFFFFFFFFFFFFFFFFFFFFFFFFF5D576E7357A4501DDFE92F46681B20A0 DUP2 GT PUSH2 0x1011 JUMPI PUSH1 0x40 DUP1 MLOAD DUP7 DUP2 MSTORE PUSH1 0xFF SWAP5 SWAP1 SWAP5 AND PUSH1 0x20 DUP1 DUP7 ADD SWAP2 SWAP1 SWAP2 MSTORE SWAP3 CALLDATALOAD SWAP1 DUP5 ADD MSTORE PUSH1 0x60 DUP4 ADD MSTORE PUSH0 DUP1 DUP1 MSTORE SWAP1 SWAP2 PUSH1 0x80 SWAP1 PUSH1 0x1 GAS STATICCALL ISZERO PUSH2 0x82B JUMPI PUSH0 MLOAD SWAP2 PUSH1 0x1 PUSH1 0x1 PUSH1 0xA0 SHL SUB DUP4 AND ISZERO PUSH2 0xFFF JUMPI POP JUMP JUMPDEST PUSH4 0x3335BE5D PUSH1 0xE1 SHL PUSH0 MSTORE PUSH1 0x4 MSTORE PUSH1 0x24 PUSH0 REVERT JUMPDEST PUSH4 0x3335BE5D PUSH1 0xE1 SHL PUSH0 MSTORE PUSH1 0x4 DUP6 SWAP1 MSTORE PUSH1 0x24 PUSH0 REVERT JUMPDEST POP PUSH1 0x1C DUP4 EQ ISZERO PUSH2 0xF8C JUMP JUMPDEST SWAP2 SWAP1 SWAP2 CALLDATASIZE SUB SWAP2 CALLDATASIZE DUP4 GT PUSH2 0x4CD JUMPI DUP3 CALLDATALOAD SWAP3 PUSH1 0x21 DUP3 LT ISZERO PUSH2 0x1058 JUMPI PUSH1 0x20 ADD CALLDATALOAD SWAP1 PUSH1 0x20 SUB PUSH1 0x3 SHL SHR SWAP1 JUMP JUMPDEST POP PUSH4 0x60007E21 PUSH1 0xE1 SHL PUSH0 MSTORE PUSH1 0x4 MSTORE PUSH1 0x24 PUSH0 REVERT INVALID LOG2 PUSH5 0x6970667358 0x22 SLT KECCAK256 PUSH12 0xE1BD75FCB6EFA01954C7B2AE EXTCODESIZE GASPRICE PUSH22 0x89E7640293FA772DE349031435C810F364736F6C6343 STOP ADDMOD 0x1E STOP CALLER "},"methodIdentifiers":{"aggregateValues(uint256[])":"b24ebfcc","aliasRegistry()":"516fd9a7","extractTimestampsAndAssertAllAreEqual()":"55a547d5","getAuthorisedSignerIndex(address)":"3ce142f5","getData((address,address,address,uint256,uint128,uint128,uint16,bool))":"3bd1104b","getDataServiceId()":"c274583a","getUniqueSignersThreshold()":"f90c4924","validateTimestamp(uint256)":"f50b2efe"}}}}}