{"contracts/z_remix_test/FlashSessionBatchSwapWrapper.sol":{"FlashSessionBatchSwapWrapper":{"abi":[{"inputs":[{"internalType":"address","name":"_pm","type":"address"},{"components":[{"internalType":"address","name":"asset0","type":"address"},{"internalType":"address","name":"asset1","type":"address"},{"internalType":"address","name":"quoter","type":"address"},{"internalType":"bytes3[]","name":"markings","type":"bytes3[]"},{"internalType":"uint256[]","name":"amounts","type":"uint256[]"},{"internalType":"bool","name":"zeroForOne","type":"bool"}],"internalType":"struct Hop[]","name":"hops","type":"tuple[]"},{"internalType":"uint256","name":"_amountIn","type":"uint256"},{"internalType":"uint256","name":"_minOut","type":"uint256"}],"stateMutability":"nonpayable","type":"constructor"},{"inputs":[],"name":"amountIn","outputs":[{"internalType":"uint256","name":"","type":"uint256"}],"stateMutability":"view","type":"function"},{"inputs":[{"internalType":"bytes","name":"","type":"bytes"}],"name":"flashCallback","outputs":[],"stateMutability":"nonpayable","type":"function"},{"inputs":[],"name":"minOut","outputs":[{"internalType":"uint256","name":"","type":"uint256"}],"stateMutability":"view","type":"function"},{"inputs":[],"name":"pm","outputs":[{"internalType":"contract IPoolManager","name":"","type":"address"}],"stateMutability":"view","type":"function"}],"evm":{"bytecode":{"linkReferences":{},"object":"60e06040523461059d57610c1880380380610019816105d2565b92833981019060808183031261059d57610032816105f7565b60208201516001600160401b03811161059d5782019183601f8401121561059d578251936100676100628661060b565b6105d2565b93602085878152016020819760051b8301019183831161059d5760208101915b83831061044e57505050506040820151606092909201516001600160a01b039093166080525060a05260c0525190680100000000000000008211610288575f54825f55808310610380575b505f8080525f516020610bf85f395f51905f5292915b82821061012d576040516105bf9081610639823960805181818161014701526104e8015260a05181818160f2015261052e015260c05181818161011801526105660152f35b8051805185546001600160a01b039182166001600160a01b031991821617875560208301516001880180549184169183169190911790556040830151600288018054919093169116179055606081015180519060038701906001600160401b03831161028857680100000000000000008311610288576020908254848455808510610334575b5001905f5260205f20600a8304915f5b8381106102ea5750600a8302808503940361029c575b50505050608081015180519060048701906001600160401b0383116102885768010000000000000000831161028857602090825484845580851061026d575b5001905f5260205f205f5b8381106102595750505050602060019260069260a060058901910151151560ff80198354169116179055019401910190926100e8565b600190602084519401938184015501610223565b61028290845f5285845f209182019101610622565b5f610218565b634e487b7160e01b5f52604160045260245ffd5b5f935f905b8082106102b65750505001555f8080806101d9565b90919460206102e0600192885160e81c908660030262ffffff809160031b9316831b921b19161790565b96019201906102a1565b5f5f5b600a81106103025750838201556001016101c3565b9290602061032b600192845160e81c908760030262ffffff809160031b9316831b921b19161790565b920193016102ed565b61036090845f52835f20600a600981818a01048301936003838b060280610366575b5001040190610622565b5f6101b3565b5f198601908154905f19908b0360031b1c1690555f610356565b8060060290600682040361043a578260060260068104840361043a575f80525f516020610bf85f395f51905f5291820191015b8181106103c057506100d2565b805f600692555f60018201555f60028201556003810180545f82558061041a575b50506004810180545f825580610400575b50505f6005820155016103b3565b610413915f5260205f2090810190610622565b5f806103f2565b610433915f52600a600960205f20920104810190610622565b5f806103e1565b634e487b7160e01b5f52601160045260245ffd5b82516001600160401b03811161059d5782019060c0828703601f19011261059d576040519160c083016001600160401b0381118482101761028857604052610498602082016105f7565b83526104a6604082016105f7565b60208401526104b7606082016105f7565b604084015260808101516001600160401b03811161059d5760209082010187601f8201121561059d5780516104ee6100628261060b565b9160208084848152019260051b820101908a821161059d57602001915b8183106105b157505050606084015260a08101516001600160401b03811161059d5760209082010187601f8201121561059d5780519061054d6100628361060b565b9160208084838152019160051b830101918a831161059d57602001905b8282106105a157505050608084015260c0015190811515820361059d57826020939260a085940152815201920191610087565b5f80fd5b815181526020918201910161056a565b82516001600160e81b03198116810361059d5781526020928301920161050b565b6040519190601f01601f191682016001600160401b0381118382101761028857604052565b51906001600160a01b038216820361059d57565b6001600160401b0381116102885760051b60200190565b81811061062d575050565b5f815560010161062256fe6080806040526004361015610012575f80fd5b5f3560e01c9081635131bf8e14610551575080636bed55a6146105175780638970cdff146104d35763e373923814610048575f80fd5b346101b75760203660031901126101b75760043567ffffffffffffffff81116101b757366023820112156101b757806004013567ffffffffffffffff81116101b757369101602401116101b75760405163274bb1b960e21b815260648101606060048301525f54809152816084810160848360051b830101925f80527f290decd9548b62a8d60345a988386fc84ba6bc95484008f6362f93160ef3e563915f905b8282106101e2577f000000000000000000000000000000000000000000000000000000000000000060248601527f0000000000000000000000000000000000000000000000000000000000000000604486015284602081808903815f7f00000000000000000000000000000000000000000000000000000000000000006001600160a01b03165af180156101d75761017d57005b6020903d6020116101cf575b601f8201601f191681019167ffffffffffffffff8311828410176101bb57602092604052810103126101b757005b5f80fd5b634e487b7160e01b5f52604160045260245ffd5b3d9150610189565b6040513d5f823e3d90fd5b86860360831901815283546001600160a01b039081168752600185015481166020808901919091526002860154909116604088015260c0606088018190526003860180549189018290525f90815291822095979496509294919360e081019390925b81600984011061043a57549181811061041b575b8181106103fc575b8181106103dd575b8181106103be575b81811061039f575b818110610380575b818110610361575b818110610342575b818110610323575b10610308575b5060048601918181036080830152602083549182815201925f5260205f20905f905b8082106102f057505050600660019260209260a060ff60058b0154161515910152960192019201859391926100e9565b909193600160208192875481520195019201906102c0565b60101b6001600160e81b03191682526020909101905f61029e565b602883901b6001600160e81b0319168552602090940193600101610298565b604083901b6001600160e81b0319168552602090940193600101610290565b605883901b6001600160e81b0319168552602090940193600101610288565b607083901b6001600160e81b0319168552602090940193600101610280565b608883901b6001600160e81b0319168552602090940193600101610278565b60a083901b6001600160e81b0319168552602090940193600101610270565b60b883901b6001600160e81b0319168552602090940193600101610268565b60d083901b6001600160e81b0319168552602090940193600101610260565b60e883901b6001600160e81b0319168552602090940193600101610258565b80546001600160e81b031960e882901b8116875260d082901b8116602088015260b882901b811660408089019190915260a083811b831660608a0152608884901b831660808a0152607084901b831690890152605883901b821660c089015282901b811660e0880152602882901b811661010088015260109190911b1661012086015261014090940193600a9290920191600101610244565b346101b7575f3660031901126101b7576040517f00000000000000000000000000000000000000000000000000000000000000006001600160a01b03168152602090f35b346101b7575f3660031901126101b75760206040517f00000000000000000000000000000000000000000000000000000000000000008152f35b346101b7575f3660031901126101b7576020907f00000000000000000000000000000000000000000000000000000000000000008152f3fea26469706673582212205fb68d02e8cb2fe7277ded7a3de75a90f341302c2f7855ae533d8981d84180b564736f6c634300081e0033290decd9548b62a8d60345a988386fc84ba6bc95484008f6362f93160ef3e563","opcodes":"PUSH1 0xE0 PUSH1 0x40 MSTORE CALLVALUE PUSH2 0x59D JUMPI PUSH2 0xC18 DUP1 CODESIZE SUB DUP1 PUSH2 0x19 DUP2 PUSH2 0x5D2 JUMP JUMPDEST SWAP3 DUP4 CODECOPY DUP2 ADD SWAP1 PUSH1 0x80 DUP2 DUP4 SUB SLT PUSH2 0x59D JUMPI PUSH2 0x32 DUP2 PUSH2 0x5F7 JUMP JUMPDEST PUSH1 0x20 DUP3 ADD MLOAD PUSH1 0x1 PUSH1 0x1 PUSH1 0x40 SHL SUB DUP2 GT PUSH2 0x59D JUMPI DUP3 ADD SWAP2 DUP4 PUSH1 0x1F DUP5 ADD SLT ISZERO PUSH2 0x59D JUMPI DUP3 MLOAD SWAP4 PUSH2 0x67 PUSH2 0x62 DUP7 PUSH2 0x60B JUMP JUMPDEST PUSH2 0x5D2 JUMP JUMPDEST SWAP4 PUSH1 0x20 DUP6 DUP8 DUP2 MSTORE ADD PUSH1 0x20 DUP2 SWAP8 PUSH1 0x5 SHL DUP4 ADD ADD SWAP2 DUP4 DUP4 GT PUSH2 0x59D JUMPI PUSH1 0x20 DUP2 ADD SWAP2 JUMPDEST DUP4 DUP4 LT PUSH2 0x44E JUMPI POP POP POP POP PUSH1 0x40 DUP3 ADD MLOAD PUSH1 0x60 SWAP3 SWAP1 SWAP3 ADD MLOAD PUSH1 0x1 PUSH1 0x1 PUSH1 0xA0 SHL SUB SWAP1 SWAP4 AND PUSH1 0x80 MSTORE POP PUSH1 0xA0 MSTORE PUSH1 0xC0 MSTORE MLOAD SWAP1 PUSH9 0x10000000000000000 DUP3 GT PUSH2 0x288 JUMPI PUSH0 SLOAD DUP3 PUSH0 SSTORE DUP1 DUP4 LT PUSH2 0x380 JUMPI JUMPDEST POP PUSH0 DUP1 DUP1 MSTORE PUSH0 MLOAD PUSH1 0x20 PUSH2 0xBF8 PUSH0 CODECOPY PUSH0 MLOAD SWAP1 PUSH0 MSTORE SWAP3 SWAP2 JUMPDEST DUP3 DUP3 LT PUSH2 0x12D JUMPI PUSH1 0x40 MLOAD PUSH2 0x5BF SWAP1 DUP2 PUSH2 0x639 DUP3 CODECOPY PUSH1 0x80 MLOAD DUP2 DUP2 DUP2 PUSH2 0x147 ADD MSTORE PUSH2 0x4E8 ADD MSTORE PUSH1 0xA0 MLOAD DUP2 DUP2 DUP2 PUSH1 0xF2 ADD MSTORE PUSH2 0x52E ADD MSTORE PUSH1 0xC0 MLOAD DUP2 DUP2 DUP2 PUSH2 0x118 ADD MSTORE PUSH2 0x566 ADD MSTORE RETURN JUMPDEST DUP1 MLOAD DUP1 MLOAD DUP6 SLOAD PUSH1 0x1 PUSH1 0x1 PUSH1 0xA0 SHL SUB SWAP2 DUP3 AND PUSH1 0x1 PUSH1 0x1 PUSH1 0xA0 SHL SUB NOT SWAP2 DUP3 AND OR DUP8 SSTORE PUSH1 0x20 DUP4 ADD MLOAD PUSH1 0x1 DUP9 ADD DUP1 SLOAD SWAP2 DUP5 AND SWAP2 DUP4 AND SWAP2 SWAP1 SWAP2 OR SWAP1 SSTORE PUSH1 0x40 DUP4 ADD MLOAD PUSH1 0x2 DUP9 ADD DUP1 SLOAD SWAP2 SWAP1 SWAP4 AND SWAP2 AND OR SWAP1 SSTORE PUSH1 0x60 DUP2 ADD MLOAD DUP1 MLOAD SWAP1 PUSH1 0x3 DUP8 ADD SWAP1 PUSH1 0x1 PUSH1 0x1 PUSH1 0x40 SHL SUB DUP4 GT PUSH2 0x288 JUMPI PUSH9 0x10000000000000000 DUP4 GT PUSH2 0x288 JUMPI PUSH1 0x20 SWAP1 DUP3 SLOAD DUP5 DUP5 SSTORE DUP1 DUP6 LT PUSH2 0x334 JUMPI JUMPDEST POP ADD SWAP1 PUSH0 MSTORE PUSH1 0x20 PUSH0 KECCAK256 PUSH1 0xA DUP4 DIV SWAP2 PUSH0 JUMPDEST DUP4 DUP2 LT PUSH2 0x2EA JUMPI POP PUSH1 0xA DUP4 MUL DUP1 DUP6 SUB SWAP5 SUB PUSH2 0x29C JUMPI JUMPDEST POP POP POP POP PUSH1 0x80 DUP2 ADD MLOAD DUP1 MLOAD SWAP1 PUSH1 0x4 DUP8 ADD SWAP1 PUSH1 0x1 PUSH1 0x1 PUSH1 0x40 SHL SUB DUP4 GT PUSH2 0x288 JUMPI PUSH9 0x10000000000000000 DUP4 GT PUSH2 0x288 JUMPI PUSH1 0x20 SWAP1 DUP3 SLOAD DUP5 DUP5 SSTORE DUP1 DUP6 LT PUSH2 0x26D JUMPI JUMPDEST POP ADD SWAP1 PUSH0 MSTORE PUSH1 0x20 PUSH0 KECCAK256 PUSH0 JUMPDEST DUP4 DUP2 LT PUSH2 0x259 JUMPI POP POP POP POP PUSH1 0x20 PUSH1 0x1 SWAP3 PUSH1 0x6 SWAP3 PUSH1 0xA0 PUSH1 0x5 DUP10 ADD SWAP2 ADD MLOAD ISZERO ISZERO PUSH1 0xFF DUP1 NOT DUP4 SLOAD AND SWAP2 AND OR SWAP1 SSTORE ADD SWAP5 ADD SWAP2 ADD SWAP1 SWAP3 PUSH2 0xE8 JUMP JUMPDEST PUSH1 0x1 SWAP1 PUSH1 0x20 DUP5 MLOAD SWAP5 ADD SWAP4 DUP2 DUP5 ADD SSTORE ADD PUSH2 0x223 JUMP JUMPDEST PUSH2 0x282 SWAP1 DUP5 PUSH0 MSTORE DUP6 DUP5 PUSH0 KECCAK256 SWAP2 DUP3 ADD SWAP2 ADD PUSH2 0x622 JUMP JUMPDEST PUSH0 PUSH2 0x218 JUMP JUMPDEST PUSH4 0x4E487B71 PUSH1 0xE0 SHL PUSH0 MSTORE PUSH1 0x41 PUSH1 0x4 MSTORE PUSH1 0x24 PUSH0 REVERT JUMPDEST PUSH0 SWAP4 PUSH0 SWAP1 JUMPDEST DUP1 DUP3 LT PUSH2 0x2B6 JUMPI POP POP POP ADD SSTORE PUSH0 DUP1 DUP1 DUP1 PUSH2 0x1D9 JUMP JUMPDEST SWAP1 SWAP2 SWAP5 PUSH1 0x20 PUSH2 0x2E0 PUSH1 0x1 SWAP3 DUP9 MLOAD PUSH1 0xE8 SHR SWAP1 DUP7 PUSH1 0x3 MUL PUSH3 0xFFFFFF DUP1 SWAP2 PUSH1 0x3 SHL SWAP4 AND DUP4 SHL SWAP3 SHL NOT AND OR SWAP1 JUMP JUMPDEST SWAP7 ADD SWAP3 ADD SWAP1 PUSH2 0x2A1 JUMP JUMPDEST PUSH0 PUSH0 JUMPDEST PUSH1 0xA DUP2 LT PUSH2 0x302 JUMPI POP DUP4 DUP3 ADD SSTORE PUSH1 0x1 ADD PUSH2 0x1C3 JUMP JUMPDEST SWAP3 SWAP1 PUSH1 0x20 PUSH2 0x32B PUSH1 0x1 SWAP3 DUP5 MLOAD PUSH1 0xE8 SHR SWAP1 DUP8 PUSH1 0x3 MUL PUSH3 0xFFFFFF DUP1 SWAP2 PUSH1 0x3 SHL SWAP4 AND DUP4 SHL SWAP3 SHL NOT AND OR SWAP1 JUMP JUMPDEST SWAP3 ADD SWAP4 ADD PUSH2 0x2ED JUMP JUMPDEST PUSH2 0x360 SWAP1 DUP5 PUSH0 MSTORE DUP4 PUSH0 KECCAK256 PUSH1 0xA PUSH1 0x9 DUP2 DUP2 DUP11 ADD DIV DUP4 ADD SWAP4 PUSH1 0x3 DUP4 DUP12 MOD MUL DUP1 PUSH2 0x366 JUMPI JUMPDEST POP ADD DIV ADD SWAP1 PUSH2 0x622 JUMP JUMPDEST PUSH0 PUSH2 0x1B3 JUMP JUMPDEST PUSH0 NOT DUP7 ADD SWAP1 DUP2 SLOAD SWAP1 PUSH0 NOT SWAP1 DUP12 SUB PUSH1 0x3 SHL SHR AND SWAP1 SSTORE PUSH0 PUSH2 0x356 JUMP JUMPDEST DUP1 PUSH1 0x6 MUL SWAP1 PUSH1 0x6 DUP3 DIV SUB PUSH2 0x43A JUMPI DUP3 PUSH1 0x6 MUL PUSH1 0x6 DUP2 DIV DUP5 SUB PUSH2 0x43A JUMPI PUSH0 DUP1 MSTORE PUSH0 MLOAD PUSH1 0x20 PUSH2 0xBF8 PUSH0 CODECOPY PUSH0 MLOAD SWAP1 PUSH0 MSTORE SWAP2 DUP3 ADD SWAP2 ADD JUMPDEST DUP2 DUP2 LT PUSH2 0x3C0 JUMPI POP PUSH2 0xD2 JUMP JUMPDEST DUP1 PUSH0 PUSH1 0x6 SWAP3 SSTORE PUSH0 PUSH1 0x1 DUP3 ADD SSTORE PUSH0 PUSH1 0x2 DUP3 ADD SSTORE PUSH1 0x3 DUP2 ADD DUP1 SLOAD PUSH0 DUP3 SSTORE DUP1 PUSH2 0x41A JUMPI JUMPDEST POP POP PUSH1 0x4 DUP2 ADD DUP1 SLOAD PUSH0 DUP3 SSTORE DUP1 PUSH2 0x400 JUMPI JUMPDEST POP POP PUSH0 PUSH1 0x5 DUP3 ADD SSTORE ADD PUSH2 0x3B3 JUMP JUMPDEST PUSH2 0x413 SWAP2 PUSH0 MSTORE PUSH1 0x20 PUSH0 KECCAK256 SWAP1 DUP2 ADD SWAP1 PUSH2 0x622 JUMP JUMPDEST PUSH0 DUP1 PUSH2 0x3F2 JUMP JUMPDEST PUSH2 0x433 SWAP2 PUSH0 MSTORE PUSH1 0xA PUSH1 0x9 PUSH1 0x20 PUSH0 KECCAK256 SWAP3 ADD DIV DUP2 ADD SWAP1 PUSH2 0x622 JUMP JUMPDEST PUSH0 DUP1 PUSH2 0x3E1 JUMP JUMPDEST PUSH4 0x4E487B71 PUSH1 0xE0 SHL PUSH0 MSTORE PUSH1 0x11 PUSH1 0x4 MSTORE PUSH1 0x24 PUSH0 REVERT JUMPDEST DUP3 MLOAD PUSH1 0x1 PUSH1 0x1 PUSH1 0x40 SHL SUB DUP2 GT PUSH2 0x59D JUMPI DUP3 ADD SWAP1 PUSH1 0xC0 DUP3 DUP8 SUB PUSH1 0x1F NOT ADD SLT PUSH2 0x59D JUMPI PUSH1 0x40 MLOAD SWAP2 PUSH1 0xC0 DUP4 ADD PUSH1 0x1 PUSH1 0x1 PUSH1 0x40 SHL SUB DUP2 GT DUP5 DUP3 LT OR PUSH2 0x288 JUMPI PUSH1 0x40 MSTORE PUSH2 0x498 PUSH1 0x20 DUP3 ADD PUSH2 0x5F7 JUMP JUMPDEST DUP4 MSTORE PUSH2 0x4A6 PUSH1 0x40 DUP3 ADD PUSH2 0x5F7 JUMP JUMPDEST PUSH1 0x20 DUP5 ADD MSTORE PUSH2 0x4B7 PUSH1 0x60 DUP3 ADD PUSH2 0x5F7 JUMP JUMPDEST PUSH1 0x40 DUP5 ADD MSTORE PUSH1 0x80 DUP2 ADD MLOAD PUSH1 0x1 PUSH1 0x1 PUSH1 0x40 SHL SUB DUP2 GT PUSH2 0x59D JUMPI PUSH1 0x20 SWAP1 DUP3 ADD ADD DUP8 PUSH1 0x1F DUP3 ADD SLT ISZERO PUSH2 0x59D JUMPI DUP1 MLOAD PUSH2 0x4EE PUSH2 0x62 DUP3 PUSH2 0x60B JUMP JUMPDEST SWAP2 PUSH1 0x20 DUP1 DUP5 DUP5 DUP2 MSTORE ADD SWAP3 PUSH1 0x5 SHL DUP3 ADD ADD SWAP1 DUP11 DUP3 GT PUSH2 0x59D JUMPI PUSH1 0x20 ADD SWAP2 JUMPDEST DUP2 DUP4 LT PUSH2 0x5B1 JUMPI POP POP POP PUSH1 0x60 DUP5 ADD MSTORE PUSH1 0xA0 DUP2 ADD MLOAD PUSH1 0x1 PUSH1 0x1 PUSH1 0x40 SHL SUB DUP2 GT PUSH2 0x59D JUMPI PUSH1 0x20 SWAP1 DUP3 ADD ADD DUP8 PUSH1 0x1F DUP3 ADD SLT ISZERO PUSH2 0x59D JUMPI DUP1 MLOAD SWAP1 PUSH2 0x54D PUSH2 0x62 DUP4 PUSH2 0x60B JUMP JUMPDEST SWAP2 PUSH1 0x20 DUP1 DUP5 DUP4 DUP2 MSTORE ADD SWAP2 PUSH1 0x5 SHL DUP4 ADD ADD SWAP2 DUP11 DUP4 GT PUSH2 0x59D JUMPI PUSH1 0x20 ADD SWAP1 JUMPDEST DUP3 DUP3 LT PUSH2 0x5A1 JUMPI POP POP POP PUSH1 0x80 DUP5 ADD MSTORE PUSH1 0xC0 ADD MLOAD SWAP1 DUP2 ISZERO ISZERO DUP3 SUB PUSH2 0x59D JUMPI DUP3 PUSH1 0x20 SWAP4 SWAP3 PUSH1 0xA0 DUP6 SWAP5 ADD MSTORE DUP2 MSTORE ADD SWAP3 ADD SWAP2 PUSH2 0x87 JUMP JUMPDEST PUSH0 DUP1 REVERT JUMPDEST DUP2 MLOAD DUP2 MSTORE PUSH1 0x20 SWAP2 DUP3 ADD SWAP2 ADD PUSH2 0x56A JUMP JUMPDEST DUP3 MLOAD PUSH1 0x1 PUSH1 0x1 PUSH1 0xE8 SHL SUB NOT DUP2 AND DUP2 SUB PUSH2 0x59D JUMPI DUP2 MSTORE PUSH1 0x20 SWAP3 DUP4 ADD SWAP3 ADD PUSH2 0x50B JUMP JUMPDEST PUSH1 0x40 MLOAD SWAP2 SWAP1 PUSH1 0x1F ADD PUSH1 0x1F NOT AND DUP3 ADD PUSH1 0x1 PUSH1 0x1 PUSH1 0x40 SHL SUB DUP2 GT DUP4 DUP3 LT OR PUSH2 0x288 JUMPI PUSH1 0x40 MSTORE JUMP JUMPDEST MLOAD SWAP1 PUSH1 0x1 PUSH1 0x1 PUSH1 0xA0 SHL SUB DUP3 AND DUP3 SUB PUSH2 0x59D JUMPI JUMP JUMPDEST PUSH1 0x1 PUSH1 0x1 PUSH1 0x40 SHL SUB DUP2 GT PUSH2 0x288 JUMPI PUSH1 0x5 SHL PUSH1 0x20 ADD SWAP1 JUMP JUMPDEST DUP2 DUP2 LT PUSH2 0x62D JUMPI POP POP JUMP JUMPDEST PUSH0 DUP2 SSTORE PUSH1 0x1 ADD PUSH2 0x622 JUMP INVALID PUSH1 0x80 DUP1 PUSH1 0x40 MSTORE PUSH1 0x4 CALLDATASIZE LT ISZERO PUSH2 0x12 JUMPI PUSH0 DUP1 REVERT JUMPDEST PUSH0 CALLDATALOAD PUSH1 0xE0 SHR SWAP1 DUP2 PUSH4 0x5131BF8E EQ PUSH2 0x551 JUMPI POP DUP1 PUSH4 0x6BED55A6 EQ PUSH2 0x517 JUMPI DUP1 PUSH4 0x8970CDFF EQ PUSH2 0x4D3 JUMPI PUSH4 0xE3739238 EQ PUSH2 0x48 JUMPI PUSH0 DUP1 REVERT JUMPDEST CALLVALUE PUSH2 0x1B7 JUMPI PUSH1 0x20 CALLDATASIZE PUSH1 0x3 NOT ADD SLT PUSH2 0x1B7 JUMPI PUSH1 0x4 CALLDATALOAD PUSH8 0xFFFFFFFFFFFFFFFF DUP2 GT PUSH2 0x1B7 JUMPI CALLDATASIZE PUSH1 0x23 DUP3 ADD SLT ISZERO PUSH2 0x1B7 JUMPI DUP1 PUSH1 0x4 ADD CALLDATALOAD PUSH8 0xFFFFFFFFFFFFFFFF DUP2 GT PUSH2 0x1B7 JUMPI CALLDATASIZE SWAP2 ADD PUSH1 0x24 ADD GT PUSH2 0x1B7 JUMPI PUSH1 0x40 MLOAD PUSH4 0x274BB1B9 PUSH1 0xE2 SHL DUP2 MSTORE PUSH1 0x64 DUP2 ADD PUSH1 0x60 PUSH1 0x4 DUP4 ADD MSTORE PUSH0 SLOAD DUP1 SWAP2 MSTORE DUP2 PUSH1 0x84 DUP2 ADD PUSH1 0x84 DUP4 PUSH1 0x5 SHL DUP4 ADD ADD SWAP3 PUSH0 DUP1 MSTORE PUSH32 0x290DECD9548B62A8D60345A988386FC84BA6BC95484008F6362F93160EF3E563 SWAP2 PUSH0 SWAP1 JUMPDEST DUP3 DUP3 LT PUSH2 0x1E2 JUMPI PUSH32 0x0 PUSH1 0x24 DUP7 ADD MSTORE PUSH32 0x0 PUSH1 0x44 DUP7 ADD MSTORE DUP5 PUSH1 0x20 DUP2 DUP1 DUP10 SUB DUP2 PUSH0 PUSH32 0x0 PUSH1 0x1 PUSH1 0x1 PUSH1 0xA0 SHL SUB AND GAS CALL DUP1 ISZERO PUSH2 0x1D7 JUMPI PUSH2 0x17D JUMPI STOP JUMPDEST PUSH1 0x20 SWAP1 RETURNDATASIZE PUSH1 0x20 GT PUSH2 0x1CF JUMPI JUMPDEST PUSH1 0x1F DUP3 ADD PUSH1 0x1F NOT AND DUP2 ADD SWAP2 PUSH8 0xFFFFFFFFFFFFFFFF DUP4 GT DUP3 DUP5 LT OR PUSH2 0x1BB JUMPI PUSH1 0x20 SWAP3 PUSH1 0x40 MSTORE DUP2 ADD SUB SLT PUSH2 0x1B7 JUMPI STOP JUMPDEST PUSH0 DUP1 REVERT JUMPDEST PUSH4 0x4E487B71 PUSH1 0xE0 SHL PUSH0 MSTORE PUSH1 0x41 PUSH1 0x4 MSTORE PUSH1 0x24 PUSH0 REVERT JUMPDEST RETURNDATASIZE SWAP2 POP PUSH2 0x189 JUMP JUMPDEST PUSH1 0x40 MLOAD RETURNDATASIZE PUSH0 DUP3 RETURNDATACOPY RETURNDATASIZE SWAP1 REVERT JUMPDEST DUP7 DUP7 SUB PUSH1 0x83 NOT ADD DUP2 MSTORE DUP4 SLOAD PUSH1 0x1 PUSH1 0x1 PUSH1 0xA0 SHL SUB SWAP1 DUP2 AND DUP8 MSTORE PUSH1 0x1 DUP6 ADD SLOAD DUP2 AND PUSH1 0x20 DUP1 DUP10 ADD SWAP2 SWAP1 SWAP2 MSTORE PUSH1 0x2 DUP7 ADD SLOAD SWAP1 SWAP2 AND PUSH1 0x40 DUP9 ADD MSTORE PUSH1 0xC0 PUSH1 0x60 DUP9 ADD DUP2 SWAP1 MSTORE PUSH1 0x3 DUP7 ADD DUP1 SLOAD SWAP2 DUP10 ADD DUP3 SWAP1 MSTORE PUSH0 SWAP1 DUP2 MSTORE SWAP2 DUP3 KECCAK256 SWAP6 SWAP8 SWAP5 SWAP7 POP SWAP3 SWAP5 SWAP2 SWAP4 PUSH1 0xE0 DUP2 ADD SWAP4 SWAP1 SWAP3 JUMPDEST DUP2 PUSH1 0x9 DUP5 ADD LT PUSH2 0x43A JUMPI SLOAD SWAP2 DUP2 DUP2 LT PUSH2 0x41B JUMPI JUMPDEST DUP2 DUP2 LT PUSH2 0x3FC JUMPI JUMPDEST DUP2 DUP2 LT PUSH2 0x3DD JUMPI JUMPDEST DUP2 DUP2 LT PUSH2 0x3BE JUMPI JUMPDEST DUP2 DUP2 LT PUSH2 0x39F JUMPI JUMPDEST DUP2 DUP2 LT PUSH2 0x380 JUMPI JUMPDEST DUP2 DUP2 LT PUSH2 0x361 JUMPI JUMPDEST DUP2 DUP2 LT PUSH2 0x342 JUMPI JUMPDEST DUP2 DUP2 LT PUSH2 0x323 JUMPI JUMPDEST LT PUSH2 0x308 JUMPI JUMPDEST POP PUSH1 0x4 DUP7 ADD SWAP2 DUP2 DUP2 SUB PUSH1 0x80 DUP4 ADD MSTORE PUSH1 0x20 DUP4 SLOAD SWAP2 DUP3 DUP2 MSTORE ADD SWAP3 PUSH0 MSTORE PUSH1 0x20 PUSH0 KECCAK256 SWAP1 PUSH0 SWAP1 JUMPDEST DUP1 DUP3 LT PUSH2 0x2F0 JUMPI POP POP POP PUSH1 0x6 PUSH1 0x1 SWAP3 PUSH1 0x20 SWAP3 PUSH1 0xA0 PUSH1 0xFF PUSH1 0x5 DUP12 ADD SLOAD AND ISZERO ISZERO SWAP2 ADD MSTORE SWAP7 ADD SWAP3 ADD SWAP3 ADD DUP6 SWAP4 SWAP2 SWAP3 PUSH2 0xE9 JUMP JUMPDEST SWAP1 SWAP2 SWAP4 PUSH1 0x1 PUSH1 0x20 DUP2 SWAP3 DUP8 SLOAD DUP2 MSTORE ADD SWAP6 ADD SWAP3 ADD SWAP1 PUSH2 0x2C0 JUMP JUMPDEST PUSH1 0x10 SHL PUSH1 0x1 PUSH1 0x1 PUSH1 0xE8 SHL SUB NOT AND DUP3 MSTORE PUSH1 0x20 SWAP1 SWAP2 ADD SWAP1 PUSH0 PUSH2 0x29E JUMP JUMPDEST PUSH1 0x28 DUP4 SWAP1 SHL PUSH1 0x1 PUSH1 0x1 PUSH1 0xE8 SHL SUB NOT AND DUP6 MSTORE PUSH1 0x20 SWAP1 SWAP5 ADD SWAP4 PUSH1 0x1 ADD PUSH2 0x298 JUMP JUMPDEST PUSH1 0x40 DUP4 SWAP1 SHL PUSH1 0x1 PUSH1 0x1 PUSH1 0xE8 SHL SUB NOT AND DUP6 MSTORE PUSH1 0x20 SWAP1 SWAP5 ADD SWAP4 PUSH1 0x1 ADD PUSH2 0x290 JUMP JUMPDEST PUSH1 0x58 DUP4 SWAP1 SHL PUSH1 0x1 PUSH1 0x1 PUSH1 0xE8 SHL SUB NOT AND DUP6 MSTORE PUSH1 0x20 SWAP1 SWAP5 ADD SWAP4 PUSH1 0x1 ADD PUSH2 0x288 JUMP JUMPDEST PUSH1 0x70 DUP4 SWAP1 SHL PUSH1 0x1 PUSH1 0x1 PUSH1 0xE8 SHL SUB NOT AND DUP6 MSTORE PUSH1 0x20 SWAP1 SWAP5 ADD SWAP4 PUSH1 0x1 ADD PUSH2 0x280 JUMP JUMPDEST PUSH1 0x88 DUP4 SWAP1 SHL PUSH1 0x1 PUSH1 0x1 PUSH1 0xE8 SHL SUB NOT AND DUP6 MSTORE PUSH1 0x20 SWAP1 SWAP5 ADD SWAP4 PUSH1 0x1 ADD PUSH2 0x278 JUMP JUMPDEST PUSH1 0xA0 DUP4 SWAP1 SHL PUSH1 0x1 PUSH1 0x1 PUSH1 0xE8 SHL SUB NOT AND DUP6 MSTORE PUSH1 0x20 SWAP1 SWAP5 ADD SWAP4 PUSH1 0x1 ADD PUSH2 0x270 JUMP JUMPDEST PUSH1 0xB8 DUP4 SWAP1 SHL PUSH1 0x1 PUSH1 0x1 PUSH1 0xE8 SHL SUB NOT AND DUP6 MSTORE PUSH1 0x20 SWAP1 SWAP5 ADD SWAP4 PUSH1 0x1 ADD PUSH2 0x268 JUMP JUMPDEST PUSH1 0xD0 DUP4 SWAP1 SHL PUSH1 0x1 PUSH1 0x1 PUSH1 0xE8 SHL SUB NOT AND DUP6 MSTORE PUSH1 0x20 SWAP1 SWAP5 ADD SWAP4 PUSH1 0x1 ADD PUSH2 0x260 JUMP JUMPDEST PUSH1 0xE8 DUP4 SWAP1 SHL PUSH1 0x1 PUSH1 0x1 PUSH1 0xE8 SHL SUB NOT AND DUP6 MSTORE PUSH1 0x20 SWAP1 SWAP5 ADD SWAP4 PUSH1 0x1 ADD PUSH2 0x258 JUMP JUMPDEST DUP1 SLOAD PUSH1 0x1 PUSH1 0x1 PUSH1 0xE8 SHL SUB NOT PUSH1 0xE8 DUP3 SWAP1 SHL DUP2 AND DUP8 MSTORE PUSH1 0xD0 DUP3 SWAP1 SHL DUP2 AND PUSH1 0x20 DUP9 ADD MSTORE PUSH1 0xB8 DUP3 SWAP1 SHL DUP2 AND PUSH1 0x40 DUP1 DUP10 ADD SWAP2 SWAP1 SWAP2 MSTORE PUSH1 0xA0 DUP4 DUP2 SHL DUP4 AND PUSH1 0x60 DUP11 ADD MSTORE PUSH1 0x88 DUP5 SWAP1 SHL DUP4 AND PUSH1 0x80 DUP11 ADD MSTORE PUSH1 0x70 DUP5 SWAP1 SHL DUP4 AND SWAP1 DUP10 ADD MSTORE PUSH1 0x58 DUP4 SWAP1 SHL DUP3 AND PUSH1 0xC0 DUP10 ADD MSTORE DUP3 SWAP1 SHL DUP2 AND PUSH1 0xE0 DUP9 ADD MSTORE PUSH1 0x28 DUP3 SWAP1 SHL DUP2 AND PUSH2 0x100 DUP9 ADD MSTORE PUSH1 0x10 SWAP2 SWAP1 SWAP2 SHL AND PUSH2 0x120 DUP7 ADD MSTORE PUSH2 0x140 SWAP1 SWAP5 ADD SWAP4 PUSH1 0xA SWAP3 SWAP1 SWAP3 ADD SWAP2 PUSH1 0x1 ADD PUSH2 0x244 JUMP JUMPDEST CALLVALUE PUSH2 0x1B7 JUMPI PUSH0 CALLDATASIZE PUSH1 0x3 NOT ADD SLT PUSH2 0x1B7 JUMPI PUSH1 0x40 MLOAD PUSH32 0x0 PUSH1 0x1 PUSH1 0x1 PUSH1 0xA0 SHL SUB AND DUP2 MSTORE PUSH1 0x20 SWAP1 RETURN JUMPDEST CALLVALUE PUSH2 0x1B7 JUMPI PUSH0 CALLDATASIZE PUSH1 0x3 NOT ADD SLT PUSH2 0x1B7 JUMPI PUSH1 0x20 PUSH1 0x40 MLOAD PUSH32 0x0 DUP2 MSTORE RETURN JUMPDEST CALLVALUE PUSH2 0x1B7 JUMPI PUSH0 CALLDATASIZE PUSH1 0x3 NOT ADD SLT PUSH2 0x1B7 JUMPI PUSH1 0x20 SWAP1 PUSH32 0x0 DUP2 MSTORE RETURN INVALID LOG2 PUSH5 0x6970667358 0x22 SLT KECCAK256 PUSH0 0xB6 DUP14 MUL 0xE8 0xCB 0x2F SWAPN 0x27 PUSH30 0xED7A3DE75A90F341302C2F7855AE533D8981D84180B564736F6C63430008 0x1E STOP CALLER 0x29 0xD EOFCREATE 0xD9 SLOAD DUP12 PUSH3 0xA8D603 GASLIMIT 0xA9 DUP9 CODESIZE PUSH16 0xC84BA6BC95484008F6362F93160EF3E5 PUSH4 0x0 "},"methodIdentifiers":{"amountIn()":"6bed55a6","flashCallback(bytes)":"e3739238","minOut()":"5131bf8e","pm()":"8970cdff"}}}}}