{"contracts/Core/PoolManager.sol":{"PoolManager":{"abi":[{"inputs":[{"internalType":"address","name":"_defaultData0Bridge","type":"address"}],"stateMutability":"nonpayable","type":"constructor"},{"inputs":[],"name":"AssetTransferLib__Erc20TransferFailed","type":"error"},{"inputs":[],"name":"AssetTransferLib__EthNotExpected","type":"error"},{"inputs":[],"name":"AssetTransferLib__IncorrectEthSent","type":"error"},{"inputs":[],"name":"CommitReveal__CommitmentExpired","type":"error"},{"inputs":[],"name":"CommitReveal__CommitmentTooNew","type":"error"},{"inputs":[],"name":"CommitReveal__InvalidCommitment","type":"error"},{"inputs":[],"name":"CommitReveal__InvalidNonce","type":"error"},{"inputs":[],"name":"PoolManager__AccessDenied","type":"error"},{"inputs":[],"name":"PoolManager__AtomicExecutionRequired","type":"error"},{"inputs":[{"internalType":"uint256","name":"required","type":"uint256"},{"internalType":"uint256","name":"available","type":"uint256"}],"name":"PoolManager__InsufficientAsset0","type":"error"},{"inputs":[{"internalType":"uint256","name":"required","type":"uint256"},{"internalType":"uint256","name":"available","type":"uint256"}],"name":"PoolManager__InsufficientAsset1","type":"error"},{"inputs":[{"internalType":"uint256","name":"minOut","type":"uint256"},{"internalType":"uint256","name":"actual","type":"uint256"}],"name":"PoolManager__InsufficientOutput","type":"error"},{"inputs":[],"name":"PoolManager__InvalidQuote","type":"error"},{"inputs":[],"name":"PoolManager__MismatchedArrays","type":"error"},{"inputs":[],"name":"PoolManager__NoHops","type":"error"},{"inputs":[],"name":"PoolManager__NoMarkings","type":"error"},{"inputs":[],"name":"PoolManager__OperationPaused","type":"error"},{"inputs":[{"internalType":"uint256","name":"poolID","type":"uint256"}],"name":"PoolManager__PoolAlreadyExists","type":"error"},{"anonymous":false,"inputs":[{"indexed":true,"internalType":"address","name":"owner","type":"address"},{"indexed":true,"internalType":"address","name":"spender","type":"address"},{"indexed":true,"internalType":"uint256","name":"id","type":"uint256"},{"indexed":false,"internalType":"uint256","name":"amount","type":"uint256"}],"name":"Approval","type":"event"},{"anonymous":false,"inputs":[{"indexed":true,"internalType":"bytes32","name":"commitment","type":"bytes32"},{"indexed":true,"internalType":"address","name":"trader","type":"address"}],"name":"CommittedSwapExecuted","type":"event"},{"anonymous":false,"inputs":[{"indexed":true,"internalType":"address","name":"owner","type":"address"},{"indexed":true,"internalType":"address","name":"operator","type":"address"},{"indexed":false,"internalType":"bool","name":"approved","type":"bool"}],"name":"OperatorSet","type":"event"},{"anonymous":false,"inputs":[{"indexed":true,"internalType":"uint256","name":"poolID","type":"uint256"},{"indexed":false,"internalType":"address","name":"asset0","type":"address"},{"indexed":false,"internalType":"address","name":"asset1","type":"address"},{"indexed":false,"internalType":"address","name":"quoter","type":"address"},{"indexed":false,"internalType":"bytes3","name":"markings","type":"bytes3"}],"name":"PoolCreated","type":"event"},{"anonymous":false,"inputs":[{"indexed":false,"internalType":"address","name":"treasury","type":"address"},{"indexed":false,"internalType":"uint16","name":"feeBps","type":"uint16"}],"name":"ProtocolFeeConfigured","type":"event"},{"anonymous":false,"inputs":[{"indexed":true,"internalType":"bytes32","name":"commitment","type":"bytes32"},{"indexed":true,"internalType":"address","name":"trader","type":"address"},{"indexed":false,"internalType":"uint32","name":"blockNumber","type":"uint32"}],"name":"SwapCommitted","type":"event"},{"anonymous":false,"inputs":[{"indexed":false,"internalType":"address","name":"caller","type":"address"},{"indexed":true,"internalType":"address","name":"from","type":"address"},{"indexed":true,"internalType":"address","name":"to","type":"address"},{"indexed":true,"internalType":"uint256","name":"id","type":"uint256"},{"indexed":false,"internalType":"uint256","name":"amount","type":"uint256"}],"name":"Transfer","type":"event"},{"inputs":[{"internalType":"bytes","name":"data","type":"bytes"}],"name":"_decodeTwoBytes","outputs":[{"internalType":"bytes","name":"a","type":"bytes"},{"internalType":"bytes","name":"b","type":"bytes"}],"stateMutability":"pure","type":"function"},{"inputs":[{"internalType":"address","name":"owner","type":"address"},{"internalType":"address","name":"spender","type":"address"},{"internalType":"uint256","name":"id","type":"uint256"}],"name":"allowance","outputs":[{"internalType":"uint256","name":"","type":"uint256"}],"stateMutability":"view","type":"function"},{"inputs":[{"internalType":"address","name":"spender","type":"address"},{"internalType":"uint256","name":"id","type":"uint256"},{"internalType":"uint256","name":"amount","type":"uint256"}],"name":"approve","outputs":[{"internalType":"bool","name":"","type":"bool"}],"stateMutability":"nonpayable","type":"function"},{"inputs":[{"internalType":"address","name":"owner","type":"address"},{"internalType":"uint256","name":"id","type":"uint256"}],"name":"balanceOf","outputs":[{"internalType":"uint256","name":"","type":"uint256"}],"stateMutability":"view","type":"function"},{"inputs":[{"components":[{"internalType":"address","name":"asset0","type":"address"},{"internalType":"address","name":"asset1","type":"address"},{"internalType":"address","name":"quoter","type":"address"},{"internalType":"bytes3[]","name":"markings","type":"bytes3[]"},{"internalType":"uint256[]","name":"amounts","type":"uint256[]"},{"internalType":"bool","name":"zeroForOne","type":"bool"}],"internalType":"struct Hop[]","name":"hops","type":"tuple[]"},{"internalType":"uint256","name":"amountIn","type":"uint256"},{"internalType":"uint256","name":"minAmountOut","type":"uint256"}],"name":"batchSwap","outputs":[{"internalType":"uint256","name":"amountOut","type":"uint256"}],"stateMutability":"payable","type":"function"},{"inputs":[{"internalType":"bytes32","name":"commitment","type":"bytes32"}],"name":"commitSwap","outputs":[],"stateMutability":"nonpayable","type":"function"},{"inputs":[{"internalType":"uint256","name":"","type":"uint256"}],"name":"configurableDataBridges","outputs":[{"internalType":"address","name":"","type":"address"}],"stateMutability":"view","type":"function"},{"inputs":[{"internalType":"address","name":"treasury","type":"address"},{"internalType":"uint16","name":"feeBps","type":"uint16"}],"name":"configureProtocolFee","outputs":[],"stateMutability":"nonpayable","type":"function"},{"inputs":[{"internalType":"address","name":"asset0","type":"address"},{"internalType":"address","name":"asset1","type":"address"},{"internalType":"address","name":"quoter","type":"address"},{"internalType":"bytes3","name":"markings","type":"bytes3"}],"name":"createPool","outputs":[{"internalType":"uint256","name":"poolID","type":"uint256"}],"stateMutability":"nonpayable","type":"function"},{"inputs":[],"name":"defaultData0Bridge","outputs":[{"internalType":"address","name":"","type":"address"}],"stateMutability":"view","type":"function"},{"inputs":[{"internalType":"uint8","name":"newState","type":"uint8"}],"name":"emergencyPauseProtocolPools","outputs":[],"stateMutability":"nonpayable","type":"function"},{"inputs":[{"internalType":"address","name":"asset0","type":"address"},{"internalType":"address","name":"asset1","type":"address"},{"internalType":"address","name":"quoter","type":"address"},{"internalType":"bytes3","name":"markings","type":"bytes3"},{"internalType":"uint256","name":"amountIn","type":"uint256"},{"internalType":"bool","name":"zeroForOne","type":"bool"},{"internalType":"uint256","name":"minAmountOut","type":"uint256"},{"internalType":"uint64","name":"nonce","type":"uint64"},{"internalType":"bytes32","name":"salt","type":"bytes32"}],"name":"executeCommittedSwap","outputs":[{"internalType":"uint256","name":"amountOut","type":"uint256"}],"stateMutability":"payable","type":"function"},{"inputs":[{"internalType":"uint256","name":"poolID","type":"uint256"},{"internalType":"address","name":"asset0","type":"address"},{"internalType":"address","name":"asset1","type":"address"},{"internalType":"uint256","name":"amount0","type":"uint256"},{"internalType":"uint256","name":"amount1","type":"uint256"},{"internalType":"uint256","name":"liquidity","type":"uint256"},{"internalType":"address","name":"user","type":"address"},{"internalType":"uint256","name":"msgValue","type":"uint256"}],"name":"executeLiquidityAdd","outputs":[{"internalType":"uint256","name":"actualLiquidity","type":"uint256"}],"stateMutability":"nonpayable","type":"function"},{"inputs":[{"internalType":"uint256","name":"poolID","type":"uint256"},{"internalType":"address","name":"asset0","type":"address"},{"internalType":"address","name":"asset1","type":"address"},{"internalType":"uint256","name":"amount0","type":"uint256"},{"internalType":"uint256","name":"amount1","type":"uint256"},{"internalType":"uint256","name":"liquidity","type":"uint256"},{"internalType":"address","name":"user","type":"address"}],"name":"executeLiquidityRemove","outputs":[{"internalType":"uint256","name":"","type":"uint256"},{"internalType":"uint256","name":"","type":"uint256"}],"stateMutability":"nonpayable","type":"function"},{"inputs":[{"internalType":"address","name":"callback","type":"address"},{"internalType":"bytes","name":"data","type":"bytes"},{"internalType":"address[]","name":"tokens","type":"address[]"}],"name":"flashSession","outputs":[],"stateMutability":"payable","type":"function"},{"inputs":[{"internalType":"address","name":"trader","type":"address"}],"name":"getCommitNonce","outputs":[{"internalType":"uint64","name":"nonce","type":"uint64"}],"stateMutability":"view","type":"function"},{"inputs":[{"internalType":"uint256","name":"poolId","type":"uint256"}],"name":"getInventory","outputs":[{"internalType":"uint128","name":"asset0","type":"uint128"},{"internalType":"uint128","name":"asset1","type":"uint128"}],"stateMutability":"view","type":"function"},{"inputs":[{"internalType":"uint256","name":"poolID","type":"uint256"}],"name":"getPoolInfo","outputs":[{"internalType":"address","name":"asset0","type":"address"},{"internalType":"address","name":"asset1","type":"address"},{"internalType":"address","name":"quoter","type":"address"},{"internalType":"bytes3","name":"markings","type":"bytes3"}],"stateMutability":"view","type":"function"},{"inputs":[{"components":[{"internalType":"address","name":"asset0","type":"address"},{"internalType":"address","name":"asset1","type":"address"},{"internalType":"address","name":"quoter","type":"address"},{"internalType":"uint256[]","name":"amount","type":"uint256[]"},{"internalType":"bool","name":"zeroForOne","type":"bool"},{"internalType":"bytes3[]","name":"marking","type":"bytes3[]"},{"internalType":"bytes4","name":"traderProtection","type":"bytes4"}],"internalType":"struct SwapParams","name":"p","type":"tuple"},{"internalType":"uint128","name":"asset0Balance","type":"uint128"},{"internalType":"uint128","name":"asset1Balance","type":"uint128"}],"name":"getQuote","outputs":[{"internalType":"uint256","name":"quote","type":"uint256"},{"internalType":"uint256","name":"poolID","type":"uint256"}],"stateMutability":"nonpayable","type":"function"},{"inputs":[{"components":[{"internalType":"address","name":"asset0","type":"address"},{"internalType":"address","name":"asset1","type":"address"},{"internalType":"address","name":"quoter","type":"address"},{"internalType":"uint256[]","name":"amount","type":"uint256[]"},{"internalType":"bool","name":"zeroForOne","type":"bool"},{"internalType":"bytes3[]","name":"marking","type":"bytes3[]"},{"internalType":"bytes4","name":"traderProtection","type":"bytes4"}],"internalType":"struct SwapParams","name":"p","type":"tuple"},{"internalType":"uint128","name":"asset0Balance","type":"uint128"},{"internalType":"uint128","name":"asset1Balance","type":"uint128"},{"internalType":"address","name":"trader","type":"address"}],"name":"getQuoteAuto","outputs":[{"internalType":"uint256","name":"quote","type":"uint256"},{"internalType":"uint256","name":"poolID","type":"uint256"}],"stateMutability":"nonpayable","type":"function"},{"inputs":[{"components":[{"internalType":"address","name":"asset0","type":"address"},{"internalType":"address","name":"asset1","type":"address"},{"internalType":"address","name":"quoter","type":"address"},{"internalType":"uint256[]","name":"amount","type":"uint256[]"},{"internalType":"bool","name":"zeroForOne","type":"bool"},{"internalType":"bytes3[]","name":"marking","type":"bytes3[]"},{"internalType":"bytes4","name":"traderProtection","type":"bytes4"}],"internalType":"struct SwapParams","name":"p","type":"tuple"},{"internalType":"uint128[]","name":"asset0Balances","type":"uint128[]"},{"internalType":"uint128[]","name":"asset1Balances","type":"uint128[]"}],"name":"getQuoteBatch","outputs":[{"internalType":"uint256[]","name":"quote","type":"uint256[]"},{"internalType":"uint256[]","name":"poolID","type":"uint256[]"}],"stateMutability":"nonpayable","type":"function"},{"inputs":[{"components":[{"internalType":"address","name":"asset0","type":"address"},{"internalType":"address","name":"asset1","type":"address"},{"internalType":"address","name":"quoter","type":"address"},{"internalType":"uint256[]","name":"amount","type":"uint256[]"},{"internalType":"bool","name":"zeroForOne","type":"bool"},{"internalType":"bytes3[]","name":"marking","type":"bytes3[]"},{"internalType":"bytes4","name":"traderProtection","type":"bytes4"}],"internalType":"struct SwapParams","name":"p","type":"tuple"},{"internalType":"uint128[]","name":"asset0Balances","type":"uint128[]"},{"internalType":"uint128[]","name":"asset1Balances","type":"uint128[]"},{"internalType":"address","name":"trader","type":"address"}],"name":"getQuoteBatchAuto","outputs":[{"internalType":"uint256[]","name":"quote","type":"uint256[]"},{"internalType":"uint256[]","name":"poolID","type":"uint256[]"}],"stateMutability":"nonpayable","type":"function"},{"inputs":[{"internalType":"address","name":"user","type":"address"},{"internalType":"address[]","name":"tokens","type":"address[]"}],"name":"getUserDeltas","outputs":[{"internalType":"int256[]","name":"deltas","type":"int256[]"}],"stateMutability":"view","type":"function"},{"inputs":[{"internalType":"address","name":"owner","type":"address"},{"internalType":"address","name":"spender","type":"address"}],"name":"isOperator","outputs":[{"internalType":"bool","name":"","type":"bool"}],"stateMutability":"view","type":"function"},{"inputs":[],"name":"liquidityManager","outputs":[{"internalType":"address","name":"","type":"address"}],"stateMutability":"view","type":"function"},{"inputs":[{"components":[{"internalType":"address","name":"asset0","type":"address"},{"internalType":"address","name":"asset1","type":"address"},{"internalType":"address","name":"quoter","type":"address"},{"internalType":"uint256[]","name":"amount","type":"uint256[]"},{"internalType":"bool","name":"zeroForOne","type":"bool"},{"internalType":"bytes3[]","name":"marking","type":"bytes3[]"},{"internalType":"bytes4","name":"traderProtection","type":"bytes4"}],"internalType":"struct SwapParams","name":"p","type":"tuple"},{"internalType":"uint128","name":"asset0Balance","type":"uint128"},{"internalType":"uint128","name":"asset1Balance","type":"uint128"}],"name":"routerGetQuote","outputs":[{"internalType":"uint256","name":"quote","type":"uint256"},{"internalType":"uint256","name":"poolID","type":"uint256"}],"stateMutability":"nonpayable","type":"function"},{"inputs":[{"internalType":"uint8","name":"overallSlot","type":"uint8"},{"internalType":"address","name":"bridge","type":"address"}],"name":"setDataBridge","outputs":[],"stateMutability":"nonpayable","type":"function"},{"inputs":[{"internalType":"address","name":"protocol","type":"address"},{"internalType":"address","name":"emergency","type":"address"}],"name":"setGovernance","outputs":[],"stateMutability":"nonpayable","type":"function"},{"inputs":[{"internalType":"address","name":"_liquidityManager","type":"address"}],"name":"setLiquidityManager","outputs":[],"stateMutability":"nonpayable","type":"function"},{"inputs":[{"internalType":"address","name":"operator","type":"address"},{"internalType":"bool","name":"approved","type":"bool"}],"name":"setOperator","outputs":[{"internalType":"bool","name":"","type":"bool"}],"stateMutability":"nonpayable","type":"function"},{"inputs":[{"internalType":"bytes4","name":"interfaceId","type":"bytes4"}],"name":"supportsInterface","outputs":[{"internalType":"bool","name":"","type":"bool"}],"stateMutability":"view","type":"function"},{"inputs":[{"internalType":"address","name":"asset0","type":"address"},{"internalType":"address","name":"asset1","type":"address"},{"internalType":"address","name":"quoter","type":"address"},{"internalType":"bytes3","name":"markings","type":"bytes3"},{"internalType":"uint256","name":"amountIn","type":"uint256"},{"internalType":"bool","name":"zeroForOne","type":"bool"},{"internalType":"uint256","name":"minAmountOut","type":"uint256"}],"name":"swap","outputs":[{"internalType":"uint256","name":"amountOut","type":"uint256"}],"stateMutability":"payable","type":"function"},{"inputs":[{"internalType":"address","name":"asset0","type":"address"},{"internalType":"address","name":"asset1","type":"address"},{"internalType":"address","name":"quoter","type":"address"},{"internalType":"bytes3","name":"markings","type":"bytes3"},{"internalType":"uint256","name":"amountIn","type":"uint256"},{"internalType":"bool","name":"zeroForOne","type":"bool"},{"internalType":"uint256","name":"minAmountOut","type":"uint256"},{"internalType":"bytes4","name":"traderProtection","type":"bytes4"}],"name":"swapWithProtection","outputs":[{"internalType":"uint256","name":"amountOut","type":"uint256"}],"stateMutability":"payable","type":"function"},{"inputs":[{"internalType":"uint256","name":"poolID","type":"uint256"}],"name":"totalLiquidity","outputs":[{"internalType":"uint256","name":"","type":"uint256"}],"stateMutability":"view","type":"function"},{"inputs":[{"internalType":"address","name":"receiver","type":"address"},{"internalType":"uint256","name":"id","type":"uint256"},{"internalType":"uint256","name":"amount","type":"uint256"}],"name":"transfer","outputs":[{"internalType":"bool","name":"","type":"bool"}],"stateMutability":"nonpayable","type":"function"},{"inputs":[{"internalType":"address","name":"sender","type":"address"},{"internalType":"address","name":"receiver","type":"address"},{"internalType":"uint256","name":"id","type":"uint256"},{"internalType":"uint256","name":"amount","type":"uint256"}],"name":"transferFrom","outputs":[{"internalType":"bool","name":"","type":"bool"}],"stateMutability":"nonpayable","type":"function"}],"evm":{"bytecode":{"linkReferences":{},"object":"60a0604052346101cc57604051601f61541d38819003918201601f19168301916001600160401b038311848410176101d0578084926020946040528339810103126101cc57516001600160a01b03811681036101cc576080526100606101e4565b600281526001602082018190526040909101526018805462ffffff19166201010217905561008c6101e4565b600581526002602082015260016040909101526019805462ffffff1916620102051790556100b86101e4565b600a8152600360208201526001604090910152601a805462ffffff19166201030a1790556100e46101e4565b60148152600560208201526001604090910152601b805462ffffff1916620105141790556101106101e4565b5f80825260208201819052604090910152601c805462ffffff191690556101356101e4565b5f80825260208201819052604090910152601d805462ffffff1916905561015a6101e4565b60328152600a60208201525f604091820152601e805462ffffff1916610a321790556025805461ffff65ffffffffffff60b01b0119166219007d60b21b1790555161521990816102048239608051818181610bd3015281816121b40152818161298d01528181612fcb015261322a0152f35b5f80fd5b634e487b7160e01b5f52604160045260245ffd5b60405190606082016001600160401b038111838210176101d05760405256fe60806040526004361015610011575f80fd5b5f3560e01c8062fdd58e1461024e57806301ffc9a714610249578063095bcdb6146102445780630d5f74d51461023f57806323189d511461023a57806326e34a4e146102355780632f380b3514610230578063314e23211461022b57806333827438146102265780633c1624d4146102215780633d465aae1461021c578063426a84931461021757806346529d4e146102125780634dbb4c5e1461020d578063558a7297146102085780635670f55a1461020357806357c9a5fd146101fe578063598af9e7146101f95780635b298d32146101f45780635b7499b5146101ef5780635dfb78af146101ea57806366387140146101e557806378a8317f146101e057806394756e9b146101db5780639d2ec6e4146101d6578063a465ba0f146101d1578063a74713cf146101d1578063b5e60c3c146101cc578063b6363cf2146101c7578063bdf48f8e146101c2578063cc489582146101bd578063d92bc84c146101b8578063de87396c146101b3578063e11ba51e146101ae578063f9158ee5146101a95763fe99049a146101a4575f80fd5b611bd8565b611b57565b611abd565b6119d1565b611946565b6118c0565b611837565b611730565b6116e1565b6116ca565b6114da565b611437565b6113a6565b611362565b6112dc565b611279565b61123f565b6111d2565b611141565b610ede565b610e42565b610dbb565b610c83565b610c02565b610bbe565b610b33565b610b0b565b610a4c565b6108e5565b61083e565b6106bc565b61064c565b61034c565b6102d3565b610275565b6001600160a01b0381160361026457565b5f80fd5b359061027382610253565b565b346102645760403660031901126102645760043561029281610253565b6024359060018060a01b03165f52600160205260405f20905f52602052602060405f2054604051908152f35b35906001600160e01b03198216820361026457565b346102645760203660031901126102645760043563ffffffff60e01b8116809103610264576020906301ffc9a760e01b8114908115610318575b506040519015158152f35b630f632fb360e01b1490505f61030d565b60609060031901126102645760043561034181610253565b906024359060443590565b346102645761035a36610329565b9091335f52600160205260405f20835f5260205260405f208054908382039182116103eb575560018060a01b031690815f5260016020526103a68360405f20905f5260205260405f2090565b6103b1828254611db5565b9055604080513380825260208201939093525f5160206151c45f395f51905f5291819081015b0390a46040516001815280602081015b0390f35b611d86565b634e487b7160e01b5f52604160045260245ffd5b608081019081106001600160401b0382111761041f57604052565b6103f0565b90601f801991011681019081106001600160401b0382111761041f57604052565b6040519061027360e083610424565b60405190610273608083610424565b6040519061027361012083610424565b6001600160401b03811161041f5760051b60200190565b92919061049681610473565b936104a46040519586610424565b602085838152019160051b810192831161026457905b8282106104c657505050565b81358152602091820191016104ba565b9080601f83011215610264578160206104f19335910161048a565b90565b8015150361026457565b3590610273826104f4565b6001600160e81b031981160361026457565b92919061052781610473565b936105356040519586610424565b602085838152019160051b810192831161026457905b82821061055757505050565b60208091833561056681610509565b81520191019061054b565b9080601f83011215610264578160206104f19335910161051b565b91909160e081840312610264576105a1610445565b926105ab82610268565b84526105b960208301610268565b60208501526105ca60408301610268565b604085015260608201356001600160401b03811161026457816105ee9184016104d6565b60608501526105ff608083016104fe565b608085015260a0820135916001600160401b0383116102645761062960c092610634948301610571565b60a0860152016102be565b60c0830152565b6001600160801b0381160361026457565b34610264576080366003190112610264576004356001600160401b0381116102645761067f6106aa91369060040161058c565b60243561068b8161063b565b604435906106988261063b565b606435926106a584610253565b611f84565b60408051928352602083019190915290f35b346102645760e0366003190112610264576004356024356106dc81610253565b6044356106e881610253565b606435916084359360a4359060c4359061070182610253565b602a5461072990610722906001600160a01b03165b6001600160a01b031690565b331461229b565b610731613685565b916001600160a01b03831615610824575b50826107538394836107a2956136cf565b610770610768835f52600f60205260405f2090565b918254611da8565b90556107876001600160801b038716600f0b6122df565b61079c6001600160801b038916600f0b6122df565b9161374e565b6107ad8483836137a9565b6107b88584836137a9565b6107ca6107c58230614169565b5c1590565b6107e3575b505060408051928352602083019390935250f35b61081761081c9361080e6107f56122ff565b946107ff86611dc2565b6001600160a01b039091169052565b6107ff84611dcf565b6137bc565b5f80806107cf565b91506107a2610742565b6004359060ff8216820361026457565b346102645760403660031901126102645761085761082e565b61089a6024359161086783610253565b61087c60018060a01b03602854163314612321565b61089560ff8216600481101590816108d9575b5061235d565b612398565b6108a9600c60ff83161061235d565b600c8110156108d45760030180546001600160a01b0319166001600160a01b03909216919091179055005b611a98565b600f915011155f61088f565b34610264576020366003190112610264576004355f606060405161090881610404565b82815282602082015282604082015201525f52601160205260405f206040519061093182610404565b80546001600160a01b0390811680845260018301548216602085018190526002909301549182166040850181905260489290921b6001600160e81b03191660609490940184905290926103e7916109a89061099a9061098d9081565b956001600160a01b031690565b916001600160e81b03191690565b604080516001600160a01b039586168152958516602087015291909316908401526001600160e81b0319909116606083015281906080820190565b9181601f84011215610264578235916001600160401b038311610264576020808501948460051b01011161026457565b60206040818301928281528451809452019201905f5b818110610a365750505090565b8251845260209384019390920191600101610a29565b3461026457604036600319011261026457600435610a6981610253565b6024356001600160401b03811161026457610a889036906004016109e3565b91610a9283610473565b92610aa06040519485610424565b808452601f19610aaf82610473565b013660208601375f5b818110610acd57604051806103e78782610a13565b80610aef610ade60019385886123b4565b35610ae881610253565b85306141cb565b5c610afa8288611ddf565b5201610ab8565b5f91031261026457565b34610264575f36600319011261026457602a546040516001600160a01b039091168152602090f35b3461026457602036600319011261026457600435610b5081610253565b602a5490610b676001600160a01b038316156123ce565b6001600160a01b0316908115610b87576001600160a01b03191617602a55005b60405162461bcd60e51b815260206004820152600f60248201526e496e76616c6964206164647265737360881b6044820152606490fd5b34610264575f366003190112610264576040517f00000000000000000000000000000000000000000000000000000000000000006001600160a01b03168152602090f35b3461026457610c1036610329565b9091335f526002602052610c378160405f209060018060a01b03165f5260205260405f2090565b835f526020528160405f205560405191825260018060a01b0316907fb3fd5071835887567a0671151121894ddccc2842f1d10bedad13e0d17cace9a760203392a4602060405160018152f35b3461026457610100366003190112610264576103e7600435602435610ca781610253565b60443590610cb482610253565b6064359060843560a4359460c43590610ccc82610253565b602a5460e4359590610cea90610722906001600160a01b0316610716565b610cf2613685565b926001600160a01b03841615610db1575b50806001600160801b0380610d649596610d29610d22610d4b96612408565b8a8a6137a9565b610d3c610d3582612408565b8c8a6137a9565b16600f0b9116600f0b8361374e565b610d568782856138e9565b5f52600f60205260405f2090565b610d6f868254611db5565b9055610d7e6107c58230614169565b610d91575b604051858152806020810188565b610da3610da89461080e6107f56122ff565b613851565b5f808080610d83565b9250610d4b610d03565b61012036600319011261026457600435610dd481610253565b602435610de081610253565b60443591610ded83610253565b606435610df981610509565b60843560a435610e08816104f4565b60c4359160e435936001600160401b0385168503610264576103e797610e32976101043597612418565b6040519081529081906020820190565b3461026457604036600319011261026457600435610e5f81610253565b60243590610e6c826104f4565b335f908152602081815260408083206001600160a01b038516845290915290209115159160ff1981541660ff841617905560405191825260018060a01b0316907fceb576d9f15e4e200fdb5096d64d5dfd667e16def20c1eefd14256d8e3faa26760203392a360405160018152602090f35b3461026457608036600319011261026457600435610efb81610253565b602435610f0781610253565b604435610f1381610253565b60643592610f2084610509565b610f30610f2b613942565b613985565b610f3c84838584613435565b9260018060a01b03610f696002610f5b875f52601160205260405f2090565b01546001600160a01b031690565b1661112d576103e7946110c593909285927f68df9a4eb7aacbe8f43763bfbc9f7ca135a5397190ea1cce2558db52dc2f3692929190856001600160a01b038083169084161015611122576110b791935b61107b610fc4610454565b6001600160a01b03861681526001600160a01b03871660208201526001600160a01b03831660408201526001600160e81b031984166060820152611010895f52601160205260405f2090565b815181546001600160a01b03199081166001600160a01b039283161783556020840151600184018054909216908316179055604083015160029092018054606090940151929091166001600160b81b03199093169290921760489190911c62ffffff60a01b16179055565b604080516001600160a01b03958616815295851660208701529316928401929092526001600160e81b0319909116606083015281906080820190565b0390a2600160f81b16151590565b6110e4575b5f6110d3613942565b5d6040519081529081906020820190565b602854611104906110fd906001600160a01b0316610716565b3314612321565b61111d815f52602660205260405f2060ff198154169055565b6110ca565b6110b7919293610fb9565b63e1ecc13360e01b5f52600484905260245ffd5b6101003660031901126102645760043561115a81610253565b60243561116681610253565b6044359161117383610253565b60643561117f81610509565b60843560a43561118e816104f4565b60e4359260c43592906001600160e01b031985168503610264576103e7976110ca976111bb610f2b613942565b604051976111ca60208a610424565b5f8952613e0f565b34610264576060366003190112610264576004356111ef81610253565b61122a6024356111fe81610253565b6044359260018060a01b03165f52600260205260405f209060018060a01b03165f5260205260405f2090565b905f52602052602060405f2054604051908152f35b34610264576020366003190112610264576004355f5260106020526040805f20548151906001600160801b038116825260801c6020820152f35b346102645760203660031901126102645760043563ffffffff431690805f52601560205260405f208263ffffffff198254161790556040519182527ff76330af9ed35739f4663e9f2c2726c5c60a98c86b8e6c087b0b54d818c0099b60203393a3005b6060366003190112610264576004356112f481610253565b6024356001600160401b0381116102645736602382011215610264578060040135906001600160401b03821161026457366024838301011161026457604435916001600160401b038311610264576113609361135660249436906004016109e3565b94909301906124ce565b005b346102645760203660031901126102645760043561137f81610253565b60018060a01b03165f52601660205260206001600160401b0360405f205416604051908152f35b34610264576020366003190112610264576113bf61082e565b6029546001600160a01b031633148015611423575b156113ed576113609060ff801960275416911617602755565b60405162461bcd60e51b815260206004820152600e60248201526d4f6e6c7920656d657267656e637960901b6044820152606490fd5b506028546001600160a01b031633146113d4565b346102645760403660031901126102645760043561145481610253565b60243561ffff81169182820361026457601280546001600160a01b0319166001600160a01b0383161790557f42bc0dce68a76f2cb7882e7da1060360603348ede3c834d9239472d409103ef8926040926012805461ffff60a01b191660a09290921b61ffff60a01b1691909117905582516001600160a01b0390921682526020820152a1005b6060366003190112610264576004356001600160401b038111610264576115059036906004016109e3565b60443591602435611517610f2b613942565b61151f613685565b906001600160a01b0382161561167e575b831561166f579261154c60a0611546838661406d565b016140aa565b1561165a5761156361155e828561406d565b6123c4565b925b61157d60a061154661157685611d9a565b8585614088565b1561163d57611599602061159361157685611d9a565b016123c4565b91905b5f915b8083106115fd575050506115b66107c58330614169565b6115ea575b5050508181106115d2576103e7905f6110d3613942565b63d438755d60e01b5f5260049190915260245260445ffd5b6115f592349261464d565b5f80806115bb565b90919561162f600191866116128a8688614088565b918a1561161e87611d9a565b8c14918115611638575b30946147d1565b9601919061159f565b611628565b61165361155e61164c84611d9a565b8484614088565b919061159c565b6116696020611593838661406d565b92611565565b63145dbb4560e21b5f5260045ffd5b339150611530565b606060031982011261026457600435906001600160401b038211610264576116b09160040161058c565b906024356116bd8161063b565b906044356104f18161063b565b34610264576106aa6116db36611686565b91612662565b34610264576020366003190112610264576004355f52600f602052602060405f2054604051908152f35b60409060031901126102645760043561172381610253565b906024356104f181610253565b3461026457602060ff61176c6117453661170b565b6001600160a01b039182165f90815280865260408082209290931681526020919091522090565b54166040519015158152f35b9080601f8301121561026457813561178f81610473565b9261179d6040519485610424565b81845260208085019260051b82010192831161026457602001905b8282106117c55750505090565b6020809183356117d48161063b565b8152019101906117b8565b90602080835192838152019201905f5b8181106117fc5750505090565b82518452602093840193909201916001016117ef565b90916118296104f1936040845260408401906117df565b9160208184039101526117df565b34610264576060366003190112610264576004356001600160401b0381116102645761186790369060040161058c565b6024356001600160401b03811161026457611886903690600401611778565b90604435916001600160401b038311610264576118aa6118b0933690600401611778565b91612bd4565b906103e760405192839283611812565b34610264576080366003190112610264576004356001600160401b038111610264576118f090369060040161058c565b6024356001600160401b0381116102645761190f903690600401611778565b90604435916001600160401b038311610264576119336118b0933690600401611778565b906064359261194184610253565b612ff8565b60e0366003190112610264576119bc60043561196181610253565b60243561196d81610253565b60443561197981610253565b60643561198581610509565b6084359060a43592611996846104f4565b60c435946119a5610f2b613942565b604051966119b4602089610424565b5f8852613b3d565b5f6119c5613942565b5d604051908152602090f35b34610264576119df3661170b565b6028546119f5906001600160a01b0316156123ce565b6001600160a01b038216151580611a86575b15611a4d57611a306113609260018060a01b03166001600160601b0360a01b6028541617602855565b60018060a01b03166001600160601b0360a01b6029541617602955565b60405162461bcd60e51b8152602060048201526011602482015270496e76616c69642061646472657373657360781b6044820152606490fd5b506001600160a01b0381161515611a07565b634e487b7160e01b5f52603260045260245ffd5b600c8110156108d457600301905f90565b3461026457602036600319011261026457600435600c81101561026457600301546040516001600160a01b039091168152602090f35b6001600160401b03811161041f57601f01601f191660200190565b805180835260209291819084018484015e5f828201840152601f01601f1916010190565b9091611b496104f193604084526040840190611b0e565b916020818403910152611b0e565b34610264576020366003190112610264576004356001600160401b0381116102645736602382011215610264578060040135611b9281611af3565b90611ba06040519283610424565b8082523660248285010111610264576020815f926024611bc8960183860137830101526133de565b906103e760405192839283611b32565b3461026457608036600319011261026457600435611bf581610253565b602435611c0181610253565b604435915f5160206151c45f395f51905f526103d7606435936001600160a01b03841693611c63908790611c56903388141580611d52575b611cc2576001600160a01b03165f90815260016020526040902090565b905f5260205260405f2090565b611c6e868254611da8565b90556001600160a01b0381165f908152600160205260409020611c92908790611c56565b611c9d868254611db5565b90556040805133815260208101969096526001600160a01b0390911694918291820190565b611cf983611c5633611ce48560018060a01b03165f52600260205260405f2090565b9060018060a01b03165f5260205260405f2090565b548960018201611d1f575b50506001600160a01b03165f90815260016020526040902090565b611d2891611da8565b611d4a84611c5633611ce48660018060a01b03165f52600260205260405f2090565b555f89611d04565b50611d81611d7d611d7633611ce48560018060a01b03165f525f60205260405f2090565b5460ff1690565b1590565b611c39565b634e487b7160e01b5f52601160045260245ffd5b5f198101919082116103eb57565b919082039182116103eb57565b919082018092116103eb57565b8051156108d45760200190565b8051600110156108d45760400190565b80518210156108d45760209160051b010190565b91909160c08060e083019460018060a01b03815116845260018060a01b03602082015116602085015260408101516040850152606081015160608501526080810151608085015260a081015160a085015201511515910152565b60405190611e5c602083610424565b5f8252565b93906104f19593611e92611eae94611e84611ea09460a08a5260a08a0190611b0e565b9088820360208a0152611b0e565b908682036040880152611b0e565b908482036060860152611b0e565b916080818403910152611b0e565b90816020910312610264575190565b80516001600160a01b03908116835260208083015182169084015260408083015190911690830152610273919061010090819060608101516060850152611f22608082015160808601906001600160801b03169052565b60a0818101516001600160801b03169085015260c08181015161ffff169085015260e081810151151590850152015160ff16910152565b80611f6b610140926104f19594611ecb565b816101208201520190611b0e565b6040513d5f823e3d90fd5b93929360a0810194600160e81b611fac611f9e8851611dc2565b516001600160e81b03191690565b16611fc15750611fbd939450612662565b9091565b8151919290916001600160a01b03166020840180519092906001600160a01b0316604086018051909391906001600160a01b03168a5161200090611dc2565b516001600160e81b0319169161201593613435565b975161202090611dc2565b516001600160e81b031916612034906134ed565b945a6120408630614169565b5c9061204a610445565b6001600160a01b0390971687523260208801524360408801524260608801523a608088015260a0870152151560c08601526040518095602082019061208e91611df3565b03601f19810186526120a09086610424565b80516001600160a01b031693516001600160a01b031692516001600160a01b03169660608201516120d090611dc2565b519260808801516120e29061ffff1690565b6080909301511515936120f489613597565b956120fd610463565b6001600160a01b0390981688526001600160a01b031660208801526001600160a01b03909916604087019081529860608701526001600160801b031660808601526001600160801b031660a085015261ffff1660c0840152151560e083015260ff1661010082015261216d611e4d565b92612176611e4d565b9261217f611e4d565b612187611e4d565b925115155f14966122176020976122096122249661071696610716966122429d61228a576121fb6121d88c7f00000000000000000000000000000000000000000000000000000000000000006135f3565b935b6121ed6040519460209286938401611b32565b03601f198101845283610424565b6040519b8c958e8701611e61565b03601f198101885287610424565b516001600160a01b031690565b905f60405180968195829463abfebfd160e01b845260048401611f59565b03925af1908115612285575f9161225857509190565b61227a915060203d60201161227e575b6122728183610424565b810190611ebc565b9190565b503d612268565b611f79565b6121fb612295611e4d565b936121da565b156122a257565b60405162461bcd60e51b815260206004820152601560248201527427b7363c902634b8bab4b234ba3ca6b0b730b3b2b960591b6044820152606490fd5b600f0b6f7fffffffffffffffffffffffffffffff1981146103eb575f0390565b604051606091906123108382610424565b6002815291601f1901366020840137565b1561232857565b60405162461bcd60e51b815260206004820152600d60248201526c13db9b1e481c1c9bdd1bd8dbdb609a1b6044820152606490fd5b1561236457565b60405162461bcd60e51b815260206004820152600c60248201526b125b9d985b1a59081cdb1bdd60a21b6044820152606490fd5b60ff6003199116019060ff82116103eb57565b90156108d45790565b91908110156108d45760051b0190565b356104f181610253565b156123d557565b60405162461bcd60e51b815260206004820152600b60248201526a105b1c9958591e481cd95d60aa1b6044820152606490fd5b600160ff1b81146103eb575f0390565b966124b2906124c19961242c610f2b613942565b604080516001600160a01b038c81166020830190815287821693830193909352871660608201526001600160e81b03198816608082015260a0810189905289151560c082015260e081018b90526001600160401b038416610100820152336101208201529161014083015261014082526124a861016083610424565b33915190206139c8565b506124bb611e4d565b96613b3d565b905f6124cb613942565b5d565b92939060405160208101907f626529a6be7cb2fb96a7ed93849b4ef74c980495dfe61fd514c95dcd9da51c3582523060601b60408201527f88f108d443a200407df3d92fc06ed196d7b48635560cc21c3b1819792e11c1a760548201526054815261253a607482610424565b5190209361254785613985565b60016125533330614169565b5d61255d33613fd5565b6001600160a01b031692833b1561026457612591935f9283604051809781958294631c6e724760e31b8452600484016125e5565b03925af18015612285575f946125ba936125b4926125cb575b503492369161260c565b33613851565b6125c261401e565b6124cb33614062565b806125d9886125df93610424565b80610b01565b5f6125aa565b90918060409360208452816020850152848401375f828201840152601f01601f1916010190565b92919061261881610473565b936126266040519586610424565b602085838152019160051b810192831161026457905b82821061264857505050565b60208091833561265781610253565b81520191019061263c565b8051919290916001600160a01b03166020830180519192916001600160a01b0316604085018051919490916001600160a01b03169460a087019586516126a790611dc2565b516001600160e81b031916916126bc93613435565b9584516126c890611dc2565b516001600160e81b0319166126dc906134ed565b86519096906001600160a01b031693516001600160a01b031692516001600160a01b031694606082015161270f90611dc2565b519260808901516127219061ffff1690565b6080909301511515936127338a613597565b9561273c610463565b6001600160a01b0390981688526001600160a01b031660208801526001600160a01b03909716604087019081529660608701526001600160801b031660808601526001600160801b031660a085015261ffff1660c0840152151560e083015260ff166101008201526127ac611e4d565b936127b5611e4d565b926127be611e4d565b906127c7611e4d565b9260a0019081516127d89060ff1690565b60ff1680155f14986122096020996122249761071697610716976122179661289c9f6128de575050612808611e4d565b925b61281c611f9e600160e81b9251611dc2565b16156128cd576121fb61287b6128895a61286c6128393330614169565b5c612842610445565b338152923260208501524360408501524260608501523a608085015260a0840152151560c0830152565b60405192839160208301611df3565b03601f198101835282610424565b6040519384916121ed9160208401611b32565b03925af1908115612285575f916128b1575091565b6128ca915060203d60201161227e576122728183610424565b91565b6121fb6128d8611e4d565b926121da565b600e811161297d5750600461290b6129056128fd610895855160ff1690565b935160ff1690565b60ff1690565b101580612970575b156129675761292461293991611aac565b905460039190911b1c6001600160a01b031690565b8b6001600160a01b0382161561295857612952916135f3565b9261280a565b5050612962611e4d565b612952565b50612952611e4d565b50600b60ff821610612913565b600f141590506129b1576129528b7f00000000000000000000000000000000000000000000000000000000000000006135f3565b612952611e4d565b604080519091906129ca8382610424565b6001815291601f1901366020840137565b906129e582610473565b6129f26040519182610424565b8281528092612a03601f1991610473565b0190602036910137565b9080601f83011215610264578151612a2481610473565b92612a326040519485610424565b81845260208085019260051b82010192831161026457602001905b828210612a5a5750505090565b8151815260209182019101612a4d565b906020828203126102645781516001600160401b038111610264576104f19201612a0d565b90602080835192838152019201905f5b818110612aac5750505090565b82516001600160801b0316845260209384019390920191600101612a9f565b90602080835192838152019201905f5b818110612ae85750505090565b825161ffff16845260209384019390920191600101612adb565b604080825282516001600160a01b0316908201526104f1929060208301516001600160a01b0316606082015260408301516001600160a01b03166080820152612bc7610100612bac612b97612b81612b6b606089015161012060a08901526101608801906117df565b6080890151878203603f190160c0890152612a8f565b60a0880151868203603f190160e0880152612a8f565b60c0870151858203603f190184870152612acb565b60e0860151151561012085015294015160ff16610140830152565b6020818403910152611b0e565b9060a0820190612be58251516129db565b91612bf18151516129db565b50612bfd8151516129db565b95612c13612c0e611f9e8451611dc2565b6134ed565b5f5b83518051821015612ca05790612c9a612c876080612c7e8b8b612c7887612c72612c44611f9e8360019d611ddf565b8551909586916001600160a01b03165b60208201516040909201516001600160a01b03908116921690613435565b92611ddf565b526134ed565b015161ffff1690565b612c91838d611ddf565b9061ffff169052565b01612c15565b5050855192969195909390926001600160a01b03166020840180519194909390916001600160a01b0316604083018051909b919291906001600160a01b03169160608501519560808601968751612cf690151590565b94612d008c613597565b96612d09610463565b6001600160a01b03909c168c526001600160a01b031660208c01526001600160a01b031660408b015260608a0152608089015260a088015260c0870152151560e086015260ff16610100850152516001600160a01b031691516001600160a01b031688519091906001600160a01b03169051151591612d86610463565b6001600160a01b0390941684526001600160a01b031660208401526001600160a01b031660408301525f606083018190526080830181905260a0830181905260c0830152151560e08201525f610100820152612de0611e4d565b90612de9611e4d565b93612df2611e4d565b91612dfb611e4d565b60a092909201805160ff1680612f3b57505050612e16611e4d565b915b5f5f5b8a518051821015612f1757612e4a90612e3c611f9e84600160e81b93611ddf565b166001600160e81b03191690565b612e5657600101612e1b565b50505f96985098612217612eb7946122096107169561071695612ed59c9e60015b8d14612f0657612ea861287b612e945a61286c6128393330614169565b925b6121ed60405194859260208401611b32565b6040519b8c9560208701611e61565b90836040518096819582946372e0727960e01b845260048401612b02565b03925af1908115612285575f91612eea575091565b6128ca91503d805f833e612efe8183610424565b810190612a6a565b612ea8612f11611e4d565b92612e96565b50505f979950612eb7946122096107169561071695612ed59c9e9561221795612e77565b60ff16600e8111612fbb57506004612f5d6129056128fd610895855160ff1690565b101580612fae575b15612fa457612924612f7691611aac565b906001600160a01b03821615612f9557612f8f916140b4565b91612e18565b5050612f9f611e4d565b612f8f565b5050612f8f611e4d565b50600b60ff821610612f65565b600f14159050612fef57612f8f907f00000000000000000000000000000000000000000000000000000000000000006135f3565b50612f8f611e4d565b9392939190915f935f5b60a0830151805182101561338d5761302690612e3c611f9e84600160e81b93611ddf565b61303257600101613002565b50909192935060015b156133815760a08201946130508651516129db565b9161305c8751516129db565b945f5b885180518210156130b757906130b16130a76080612c7e613085611f9e86600198611ddf565b8b5161309d9082908e906001600160a01b0316612c54565b612c78878d611ddf565b612c91838b611ddf565b0161305f565b505094909695939192955a6130cc8530614169565b5c906130d6610445565b6001600160a01b0390961686523260208701524360408701524260608701523a608087015260a0860152151560c08501526040518094602082019061311a91611df3565b03601f198101855261312c9085610424565b5161313690611dc2565b516001600160e81b03191661314a906134ed565b82519095906001600160a01b03166020840180519097919691906001600160a01b03166040860180519097919291906001600160a01b0316926080880193845161319390151590565b9061319d85613597565b926131a6610463565b6001600160a01b03909d168d526001600160a01b031660208d01526001600160a01b031660408c01525f60608c0181905260808c0181905260a08c0181905260c08c0152151560e08b015260ff166101008a0152613202611e4d565b9061320b611e4d565b92613214611e4d565b9a61321d611e4d565b9151156133725761324e907f00000000000000000000000000000000000000000000000000000000000000006140b4565b915b6040519182916132639160208401611b32565b03601f19810182526132759082610424565b6040519a8b946132889460208701611e61565b03601f198101885261329a9088610424565b84516001600160a01b031697516001600160a01b031686519095906001600160a01b031660609091015191511515956132d1610463565b6001600160a01b03909a168a526001600160a01b031660208a01526001600160a01b031660408901526060880152608087015260a086015260c0850152151560e08401525f610100840152516001600160a01b03166001600160a01b03166001600160a01b03166040516372e0727960e01b8152929091839182916133599160048401612b02565b03815a5f948591f1908115612285575f91612eea575091565b5061337b611e4d565b91613250565b935091611fbd92612bd4565b50509091929361303b565b81601f82011215610264578051906133af82611af3565b926133bd6040519485610424565b8284526020838301011161026457815f9260208093018386015e8301015290565b8051810190604081602084019303126102645760208101516001600160401b0381116102645782602061341392840101613398565b916040820151916001600160401b03831161026457611fbd9201602001613398565b9092906001600160a01b0380851690821610156134a75792915b6040516bffffffffffffffffffffffff19606095861b81166020830190815294861b811660348301529190941b1660488401526001600160e81b031916605c830152603f8252906134a1605f82610424565b51902090565b9161344f565b6040519060c082018281106001600160401b0382111761041f576040525f60a0838281528260208201528260408201528260608201528260808201520152565b6104f1600f61358c6134fd6134ad565b9360e81c613512600182161515869015159052565b61353561352c600183811c627fffff165b1662ffffff1690565b15156020870152565b61355561354c6001600284901c623fffff16613523565b15156040870152565b61357561356c6001600384901c621fffff16613523565b15156060870152565b600481901c610fff16608086015260141c600f1690565b1660ff1660a0830152565b600f60ff60a083015116036135b8576080015160ff16806104f15750600f90565b505f90565b906020828203126102645781516001600160401b038111610264576104f19201613398565b610120810192916102739190611ecb565b6001600160a01b03811690811561367a573b15613670575f9182916040518094818094632031827560e11b825261363260048301610120810192611ecb565b03925af15f918161364c575b506104f157506104f1611e4d565b6136699192503d805f833e6136618183610424565b8101906135bd565b905f61363e565b50506104f1611e4d565b5050506104f1611e4d565b60405160208101907f507ba82850c15277b79bae90c6e97b66228a117b64d05e46b3182d141df61ce282523060601b6040820152603481526136c8605482610424565b5190205c90565b91909160018060a01b0316805f52600160205260405f20835f5260205260405f208054908382039182116103eb57556040805133815260208101939093525f925f5160206151c45f395f51905f5291819081015b0390a4565b90600f0b90600f0b019060016001607f1b0319821260016001607f1b038313176103eb57565b909161378090825f52601060205261377760405f2054946001600160801b038616600f0b613728565b9360801d613728565b6001600160801b03199060801b16905f5260106020526001600160801b0360405f209216179055565b906137b491306141cb565b90815c01905d565b8151915f5b8381106137ce5750505050565b6001906001600160a01b036137e38285611ddf565b51166137f08186306141cb565b5c806137ff575b5050016137c1565b5f9161381f918381131561382757613818908883614324565b86306141cb565b5d5f806137f7565b61383361384591612408565b8215851461384a5784905b8984614255565b613818565b849061383e565b90918251925f5b848110613866575050505050565b6001906001600160a01b0361387b8285611ddf565b51166138888187306141cb565b5c80613897575b505001613858565b5f916138b791838113156138bf576138b0908983614324565b87306141cb565b5d5f8061388f565b6138cb6138dd91612408565b821585146138e25788905b8a84614255565b6138b0565b84906138d6565b91909160018060a01b031690815f52600160205260405f20835f5260205260405f208054908282018092116103eb57556040805133815260208101929092525f915f5160206151c45f395f51905f529181908101613723565b60405160208101907f626529a6be7cb2fb96a7ed93849b4ef74c980495dfe61fd514c95dcd9da51c3582523060601b6040820152603481526134a1605482610424565b805c610264576001905d565b63ffffffff6101009116019063ffffffff82116103eb57565b6001600160401b036001911601906001600160401b0382116103eb57565b916139e96139df846015905f5260205260405f2090565b5463ffffffff1690565b63ffffffff81168015613b0957431115613afa57613a09613a1291613991565b63ffffffff1690565b4311613aeb576001600160a01b0382165f908152601660205260409020546001600160401b03166001600160401b03821603613adc57613a77613aa991613a72613a65866015905f5260205260405f2090565b805463ffffffff19169055565b6139aa565b6001600160a01b0383165f908152601660205260409020906001600160401b03166001600160401b0319825416179055565b6001600160a01b0316907f5ed00d9781aaac5f5ab01a93ece28fca0f8ffe70c108140274d8fec00477ce805f80a3600190565b632071cf9f60e11b5f5260045ffd5b63586b1f3960e01b5f5260045ffd5b630376613560e51b5f5260045ffd5b63ea3c1a4f60e01b5f5260045ffd5b91908260409103126102645760208251613b318161063b565b9201516104f18161063b565b909197969495613b4b613685565b956001600160a01b03871615613e07575b600160e91b8516613ddf575b50613b75848a8585613435565b90620100008560e81c16613d9a575b60408051632d94c69960e11b8152600481018490529a908b602481305afa958615612285575f9b5f97613d64575b508b87918b8a613bc06129b9565b613bc86129b9565b92613bd1610445565b6001600160a01b038c168152976001600160a01b038d1660208a01526001600160a01b03166040890152606088019182521515608088015260a087019283525f60c08801525b51613c2190611dc2565b5251613c2c90611dc2565b6001600160e81b03199091169052613c4392612662565b50948515613d55578886613c5892819d6145db565b808510613d3e5750613cd99392613cd292613ccb92613cb6906001600160a01b038085169084161015613d37578a5b8015613d1c576001600160801b038a16600f0b905b15613d095761079c6001600160801b038916600f0b6122df565b8815613d025780985b15613cfa575094612408565b86866137a9565b82846137a9565b613ce66107c58330614169565b613cef57505050565b61027392349261464d565b905094612408565b8198613cbf565b6001600160801b038a16600f0b9161374e565b613d316001600160801b038916600f0b6122df565b90613c9c565b8a15613c87565b63d438755d60e01b5f52600452602484905260445ffd5b6314033f2160e11b5f5260045ffd5b909b50613d8a91965060403d604011613d93575b613d828183610424565b810190613b18565b95909a8b613bb2565b503d613d78565b60275460ff8116613dd05760081c62ffffff1615613b8457613dca612905611d76845f52602660205260405f2090565b15613b84575b63636280a760e01b5f5260045ffd5b611d7d613dee91885f88614432565b613df8575f613b68565b6377bbcbed60e11b5f5260045ffd5b339650613b5c565b91909298979596939496613e21613685565b966001600160a01b03881615613fcd575b8a8660e01c916101008316613f9a575b89600160e91b8316613f80575b5050613e5e9150838686613435565b91620100008b60e81c16613f3c575b60408051632d94c69960e11b8152600481018590529b908c602481305afa968715612285575f9c5f98613f0f575b5087918b8a8f93613eaa6129b9565b90613eb36129b9565b93613ebc610445565b6001600160a01b038d168152986001600160a01b038e1660208b01526001600160a01b031660408a0152606089019283521515608089015260a088019384526001600160e01b03191660c0880152613c17565b8b9d50899850613f309060409392933d604011613d9357613d828183610424565b909d509750908c613e9b565b60275460ff8116613dd05760081c62ffffff1615613e6d57613f6c612905611d76855f52602660205260405f2090565b15613e6d5763636280a760e01b5f5260045ffd5b613f8d93611d7d93614432565b613df8575f8a8189613e4f565b9050613fb3611d7d613fac8b30614169565b5c846143b0565b613fbe578b90613e42565b630e85e06f60e21b5f5260045ffd5b339750613e32565b60405160208101907f507ba82850c15277b79bae90c6e97b66228a117b64d05e46b3182d141df61ce282523060601b604082015260348152614018605482610424565b5190205d565b5f60405160208101907f507ba82850c15277b79bae90c6e97b66228a117b64d05e46b3182d141df61ce282523060601b604082015260348152614018605482610424565b6124cb5f9130614169565b90156108d45780359060be1981360301821215610264570190565b91908110156108d45760051b8101359060be1981360301821215610264570190565b356104f1816104f4565b6001600160a01b038116801561367a57813b1561367a576140d4826148a0565b8051909390156140e5575b50505090565b604051632031827560e11b815293505f91849182908490829061410b90600483016135e2565b03925af15f928161414d575b5061412e575050614126611e4d565b5f80806140df565b81805161413d575b5050614126565b61414691614913565b5f80614136565b6141629193503d805f833e6136618183610424565b915f614117565b906040519060208201927fe88690b85c82523984f05d1f281684a73aa4d4303bca19cfe29aa89ae744616a84526001600160601b03199060601b1660408301526001600160601b03199060601b166054820152604881526134a1606882610424565b916040519160208301937f71aa94563c1d78d77df681ad802fc1a81ea7d00cffe4bbe002400e1d66de80d285526001600160601b03199060601b1660408401526001600160601b03199060601b1660548301526001600160601b03199060601b166068820152605c81526134a1607c82610424565b9081602091031261026457516104f1816104f4565b9192916001600160a01b0316908161427f5750500361427057565b63a7adb78f60e01b5f5260045ffd5b91929092614315576040516323b872dd60e01b81526001600160a01b0390921660048301523060248301526044820152906020908290815f81606481015b03925af1908115612285575f916142e6575b50156142d757565b633773869160e01b5f5260045ffd5b614308915060203d60201161430e575b6143008183610424565b810190614240565b5f6142cf565b503d6142f6565b63dc4087eb60e01b5f5260045ffd5b6001600160a01b03168061435e57505f808093819382908215614354575b6001600160a01b031690f11561228557565b6108fc9150614342565b60405163a9059cbb60e01b81526001600160a01b0390921660048301526024820192909252906020908290815f81604481016142bd565b5f916124cb91306141cb565b60088210156108d45701905f90565b61010081161561442b5760ff601f5416614417576143d39060091c600716612905565b60ff811615614413576143e79060176143a1565b5080546143f89060101c60ff161590565b6144135761440590614947565b8161440e575090565b905090565b5090565b50806144205790565b506104f1601b614947565b5050600190565b919291600160e91b16156145d35760255460ff81166145b15760081c60ff1661458b575b61446f612905620e000060ff9316617fff9060111c1690565b166001810361448357506104f19150614961565b600281036144a4575050325f90815260208052604090206104f19150611d76565b600381036144cd5750506001600160a01b03165f9081526021602052604090206104f190611d76565b600481036145035750325f90815260208052604090209091506144ef90611d76565b90816144f9575090565b6104f19150614961565b6005810361452d57506001600160a01b039091165f9081526021602052604090206144ef90611d76565b60061461453b575050600190565b325f908152602080526040902061455190611d76565b9182614562575b50816144f9575090565b6001600160a01b03165f90815260216020526040902090915061458490611d76565b905f614558565b325f90815260208052604090206145a590611d7d90611d76565b15614456575050505f90565b5050506001600160a01b03165f9081526021602052604090206104f190611d76565b505050600190565b6001600160801b0392935f1461460e575016908082106145f9575050565b630173586760e01b5f5260045260245260445ffd5b9050169080821061461d575050565b6368580a1960e01b5f5260045260245260445ffd5b9190915f83820193841291129080158216911516176103eb57565b909261465a8483306141cb565b5c6146668484306141cb565b5c916001600160a01b038581169290871680841461472f5791816146c995935f6102739a9694125f1461470f5761469f6146ae92612408565b906147085782905b8887614255565b5f8313156146ce5750506146c3908486614324565b82614395565b614395565b5f83126146de575b5050506146c3565b6146ea6146f893612408565b9161470057905b8587614255565b5f80806146d6565b505f906146f1565b5f906146a7565b505f811361471e575b506146ae565b614729908786614324565b5f614718565b925061027396959361474091614632565b925f84121561476c57506147566146c993612408565b9161476457905b8385614255565b505f9061475d565b92915050825f8213614781575b505050614395565b61478a92614324565b5f8082614779565b903590601e198136030182121561026457018035906001600160401b03821161026457602001918160051b3603831361026457565b356104f181610509565b9493929190606086016147e48188614792565b905015614891576147f86080880188614792565b90506148048289614792565b919050036148825760016148188289614792565b9050145f14614876578661482e6104f1986123c4565b9161483b602083016123c4565b61486e60a061486761486261485c614855604089016123c4565b9688614792565b906123ab565b6147c7565b94016140aa565b93600f614e69565b506104f195600f614aaf565b6305a7a8f960e11b5f5260045ffd5b63040e8c7760e51b5f5260045ffd5b90606091805c908115806148fe575b156148b8575050565b909250601f6040519380855201908160051c905f5b8281106148e557505050601f19168201602001604052565b80600180928401015c60208260051b89010152016148cd565b9350604051935f8552602085016040526148af565b601f825180835d0160051c915f5b83811061492e5750505050565b80602060019260051b8401015182828601015d01614921565b5460ff811690811561442b5760ff9060081c169043061090565b511561496c57600190565b5f90565b9190916040818403126102645780516001600160401b0381116102645783614999918301612a0d565b9260208201516001600160401b038111610264576104f19201612a0d565b90602080835192838152019201905f5b8181106149d45750505090565b82516001600160e81b0319168452602093840193909201916001016149c7565b906104f19060018060a01b03835116815260018060a01b03602084015116602082015260018060a01b03604084015116604082015260c080614a66614a48606087015160e0606087015260e08601906117df565b60808781015115159086015260a087015185820360a08701526149b7565b9401516001600160e01b031916910152565b91614aa190614a936104f195936060865260608601906149f4565b908482036020860152612a8f565b916040818403910152612a8f565b96949590929391966060840197614ac68986614792565b969050614e26575b50614ad8856129db565b91614ae2866129db565b905f5b878110614d905750815f91858389614ba9614bd29d9e9f614b7d614ba2614b0b856123c4565b94614b94614b1b602083016123c4565b94614b50614b8d614b2e604086016123c4565b614b3b6080870187614792565b939094614b4a60a089016140aa565b97614792565b989099614b6d614b5e610445565b6001600160a01b03909e168e52565b6001600160a01b031660208d0152565b6001600160a01b031660408b0152565b369161048a565b606087015215156080860152565b369161051b565b60a082015260c08101829052604051635efa47c760e11b81529c8d958694859360048501614a78565b03926001600160a01b03165af1908115612285575f975f92614d69575b505f5b878110614c6e57505050505090614c1b9495614c159392614c1f575b5050611d9a565b90611ddf565b5190565b81614c2f60a0614c5994016140aa565b15614c60576020614c4091016123c4565b614c52614c4c85611d9a565b87611ddf565b51916137a9565b5f80614c0e565b614c69906123c4565b614c40565b80614d2f8a89614c9884614c91600197614c8b6080860186614792565b906123b4565b3593611ddf565b51614cd6614cb6614ca9878d611ddf565b516001600160801b031690565b82614cc4614ca9898c611ddf565b614cd060a087016140aa565b926145db565b614ce08589611ddf565b5192614cee60a084016140aa565b15614d4957614d0c60a06001600160801b038316600f0b94016140aa565b15614d3557506001600160801b03614d279116600f0b6122df565b915b88614f8d565b01614bf2565b6001600160801b03915016600f0b91614d29565b614d0c60a0614d636001600160801b038516600f0b6122df565b94611546565b909750614d8891503d805f833e614d808183610424565b810190614970565b90965f614bef565b600190614e20614e16614dfb614dda8f8c614daa816123c4565b91614dd461486289614c8b614dc1602087016123c4565b94614dce604088016123c4565b96614792565b92613435565b886001915f520160205260405f2054906001600160801b0382169160801c90565b614e088589949394611ddf565b906001600160801b03169052565b614e088389611ddf565b01614ae5565b614e5490614e3660a087016140aa565b15614e5a57614e4d614e47876123c4565b91612408565b90896137a9565b5f614ace565b614e4d614e47602088016123c4565b9185809c9b829893979b99959a969a614e848c82868c613435565b96614f64575b8885614eb189896001915f520160205260405f2054906001600160801b0382169160801c90565b9e8f948298614ec1989395615073565b9b8c809a614ece936145db565b614f09928915614f49576001600160801b038216600f0b915b8a15614f375750614f036001600160801b038a16600f0b6122df565b92614f8d565b614f15575b5050505050565b614f259415614f2f5750906137a9565b5f82818080614f0e565b9050906137a9565b6001600160801b0316600f0b92614f8d565b614f5e6001600160801b038a16600f0b6122df565b91614ee7565b8215614f8457614f7f895b614f7887612408565b908d6137a9565b614e8a565b614f7f84614f6f565b6001909392930191815f52826020526001600160801b03614fc5614fbb60405f205496838816600f0b613728565b928660801d613728565b81199060801b16911617928303614fdb57505050565b5f5260205260405f2055565b9190826040910312610264576020825192015190565b9193926001600160801b03908161501e6040946060875260608701906149f4565b9616602085015216910152565b90670de0b6b3a7640000820291808304670de0b6b3a764000014901517156103eb57565b9067120a871cc002000082029180830467120a871cc002000014901517156103eb57565b61512e98935f926150f96040989a9799956150ea61508f6129b9565b938d61509a86611dc2565b526150c06150a66129b9565b966150b088611dc2565b6001600160e81b03199091169052565b6150da6150cb610445565b6001600160a01b039098168852565b6001600160a01b03166020870152565b6001600160a01b0316848a0152565b6060830152871515608083015260a082015260c08101829052855163a74713cf60e01b81529889958694859360048501614ffd565b03926001600160a01b03165af1928315612285575f93615191575b50821561515557505090565b90915015615177576151696104f19161504f565b670de0b6b3a7640000900490565b6151836104f19161502b565b67120a871cc0020000900490565b6151b491935060403d6040116151bc575b6151ac8183610424565b810190614fe7565b50915f615149565b503d6151a256fe1b3d7edb2e9c0b0e7c525b20aaaef0f5940d2ed71663c7d39266ecafac728859a26469706673582212209c95faada52e5eaeb06eafb21fe673b48aeba579aebd9e6c089960065029320764736f6c634300081e0033","opcodes":"PUSH1 0xA0 PUSH1 0x40 MSTORE CALLVALUE PUSH2 0x1CC JUMPI PUSH1 0x40 MLOAD PUSH1 0x1F PUSH2 0x541D CODESIZE DUP2 SWAP1 SUB SWAP2 DUP3 ADD PUSH1 0x1F NOT AND DUP4 ADD SWAP2 PUSH1 0x1 PUSH1 0x1 PUSH1 0x40 SHL SUB DUP4 GT DUP5 DUP5 LT OR PUSH2 0x1D0 JUMPI DUP1 DUP5 SWAP3 PUSH1 0x20 SWAP5 PUSH1 0x40 MSTORE DUP4 CODECOPY DUP2 ADD SUB SLT PUSH2 0x1CC JUMPI MLOAD PUSH1 0x1 PUSH1 0x1 PUSH1 0xA0 SHL SUB DUP2 AND DUP2 SUB PUSH2 0x1CC JUMPI PUSH1 0x80 MSTORE PUSH2 0x60 PUSH2 0x1E4 JUMP JUMPDEST PUSH1 0x2 DUP2 MSTORE PUSH1 0x1 PUSH1 0x20 DUP3 ADD DUP2 SWAP1 MSTORE PUSH1 0x40 SWAP1 SWAP2 ADD MSTORE PUSH1 0x18 DUP1 SLOAD PUSH3 0xFFFFFF NOT AND PUSH3 0x10102 OR SWAP1 SSTORE PUSH2 0x8C PUSH2 0x1E4 JUMP JUMPDEST PUSH1 0x5 DUP2 MSTORE PUSH1 0x2 PUSH1 0x20 DUP3 ADD MSTORE PUSH1 0x1 PUSH1 0x40 SWAP1 SWAP2 ADD MSTORE PUSH1 0x19 DUP1 SLOAD PUSH3 0xFFFFFF NOT AND PUSH3 0x10205 OR SWAP1 SSTORE PUSH2 0xB8 PUSH2 0x1E4 JUMP JUMPDEST PUSH1 0xA DUP2 MSTORE PUSH1 0x3 PUSH1 0x20 DUP3 ADD MSTORE PUSH1 0x1 PUSH1 0x40 SWAP1 SWAP2 ADD MSTORE PUSH1 0x1A DUP1 SLOAD PUSH3 0xFFFFFF NOT AND PUSH3 0x1030A OR SWAP1 SSTORE PUSH2 0xE4 PUSH2 0x1E4 JUMP JUMPDEST PUSH1 0x14 DUP2 MSTORE PUSH1 0x5 PUSH1 0x20 DUP3 ADD MSTORE PUSH1 0x1 PUSH1 0x40 SWAP1 SWAP2 ADD MSTORE PUSH1 0x1B DUP1 SLOAD PUSH3 0xFFFFFF NOT AND PUSH3 0x10514 OR SWAP1 SSTORE PUSH2 0x110 PUSH2 0x1E4 JUMP JUMPDEST PUSH0 DUP1 DUP3 MSTORE PUSH1 0x20 DUP3 ADD DUP2 SWAP1 MSTORE PUSH1 0x40 SWAP1 SWAP2 ADD MSTORE PUSH1 0x1C DUP1 SLOAD PUSH3 0xFFFFFF NOT AND SWAP1 SSTORE PUSH2 0x135 PUSH2 0x1E4 JUMP JUMPDEST PUSH0 DUP1 DUP3 MSTORE PUSH1 0x20 DUP3 ADD DUP2 SWAP1 MSTORE PUSH1 0x40 SWAP1 SWAP2 ADD MSTORE PUSH1 0x1D DUP1 SLOAD PUSH3 0xFFFFFF NOT AND SWAP1 SSTORE PUSH2 0x15A PUSH2 0x1E4 JUMP JUMPDEST PUSH1 0x32 DUP2 MSTORE PUSH1 0xA PUSH1 0x20 DUP3 ADD MSTORE PUSH0 PUSH1 0x40 SWAP2 DUP3 ADD MSTORE PUSH1 0x1E DUP1 SLOAD PUSH3 0xFFFFFF NOT AND PUSH2 0xA32 OR SWAP1 SSTORE PUSH1 0x25 DUP1 SLOAD PUSH2 0xFFFF PUSH6 0xFFFFFFFFFFFF PUSH1 0xB0 SHL ADD NOT AND PUSH3 0x19007D PUSH1 0xB2 SHL OR SWAP1 SSTORE MLOAD PUSH2 0x5219 SWAP1 DUP2 PUSH2 0x204 DUP3 CODECOPY PUSH1 0x80 MLOAD DUP2 DUP2 DUP2 PUSH2 0xBD3 ADD MSTORE DUP2 DUP2 PUSH2 0x21B4 ADD MSTORE DUP2 DUP2 PUSH2 0x298D ADD MSTORE DUP2 DUP2 PUSH2 0x2FCB ADD MSTORE PUSH2 0x322A ADD MSTORE RETURN JUMPDEST PUSH0 DUP1 REVERT JUMPDEST PUSH4 0x4E487B71 PUSH1 0xE0 SHL PUSH0 MSTORE PUSH1 0x41 PUSH1 0x4 MSTORE PUSH1 0x24 PUSH0 REVERT JUMPDEST PUSH1 0x40 MLOAD SWAP1 PUSH1 0x60 DUP3 ADD PUSH1 0x1 PUSH1 0x1 PUSH1 0x40 SHL SUB DUP2 GT DUP4 DUP3 LT OR PUSH2 0x1D0 JUMPI PUSH1 0x40 MSTORE JUMP INVALID PUSH1 0x80 PUSH1 0x40 MSTORE PUSH1 0x4 CALLDATASIZE LT ISZERO PUSH2 0x11 JUMPI PUSH0 DUP1 REVERT JUMPDEST PUSH0 CALLDATALOAD PUSH1 0xE0 SHR DUP1 PUSH3 0xFDD58E EQ PUSH2 0x24E JUMPI DUP1 PUSH4 0x1FFC9A7 EQ PUSH2 0x249 JUMPI DUP1 PUSH4 0x95BCDB6 EQ PUSH2 0x244 JUMPI DUP1 PUSH4 0xD5F74D5 EQ PUSH2 0x23F JUMPI DUP1 PUSH4 0x23189D51 EQ PUSH2 0x23A JUMPI DUP1 PUSH4 0x26E34A4E EQ PUSH2 0x235 JUMPI DUP1 PUSH4 0x2F380B35 EQ PUSH2 0x230 JUMPI DUP1 PUSH4 0x314E2321 EQ PUSH2 0x22B JUMPI DUP1 PUSH4 0x33827438 EQ PUSH2 0x226 JUMPI DUP1 PUSH4 0x3C1624D4 EQ PUSH2 0x221 JUMPI DUP1 PUSH4 0x3D465AAE EQ PUSH2 0x21C JUMPI DUP1 PUSH4 0x426A8493 EQ PUSH2 0x217 JUMPI DUP1 PUSH4 0x46529D4E EQ PUSH2 0x212 JUMPI DUP1 PUSH4 0x4DBB4C5E EQ PUSH2 0x20D JUMPI DUP1 PUSH4 0x558A7297 EQ PUSH2 0x208 JUMPI DUP1 PUSH4 0x5670F55A EQ PUSH2 0x203 JUMPI DUP1 PUSH4 0x57C9A5FD EQ PUSH2 0x1FE JUMPI DUP1 PUSH4 0x598AF9E7 EQ PUSH2 0x1F9 JUMPI DUP1 PUSH4 0x5B298D32 EQ PUSH2 0x1F4 JUMPI DUP1 PUSH4 0x5B7499B5 EQ PUSH2 0x1EF JUMPI DUP1 PUSH4 0x5DFB78AF EQ PUSH2 0x1EA JUMPI DUP1 PUSH4 0x66387140 EQ PUSH2 0x1E5 JUMPI DUP1 PUSH4 0x78A8317F EQ PUSH2 0x1E0 JUMPI DUP1 PUSH4 0x94756E9B EQ PUSH2 0x1DB JUMPI DUP1 PUSH4 0x9D2EC6E4 EQ PUSH2 0x1D6 JUMPI DUP1 PUSH4 0xA465BA0F EQ PUSH2 0x1D1 JUMPI DUP1 PUSH4 0xA74713CF EQ PUSH2 0x1D1 JUMPI DUP1 PUSH4 0xB5E60C3C EQ PUSH2 0x1CC JUMPI DUP1 PUSH4 0xB6363CF2 EQ PUSH2 0x1C7 JUMPI DUP1 PUSH4 0xBDF48F8E EQ PUSH2 0x1C2 JUMPI DUP1 PUSH4 0xCC489582 EQ PUSH2 0x1BD JUMPI DUP1 PUSH4 0xD92BC84C EQ PUSH2 0x1B8 JUMPI DUP1 PUSH4 0xDE87396C EQ PUSH2 0x1B3 JUMPI DUP1 PUSH4 0xE11BA51E EQ PUSH2 0x1AE JUMPI DUP1 PUSH4 0xF9158EE5 EQ PUSH2 0x1A9 JUMPI PUSH4 0xFE99049A EQ PUSH2 0x1A4 JUMPI PUSH0 DUP1 REVERT JUMPDEST PUSH2 0x1BD8 JUMP JUMPDEST PUSH2 0x1B57 JUMP JUMPDEST PUSH2 0x1ABD JUMP JUMPDEST PUSH2 0x19D1 JUMP JUMPDEST PUSH2 0x1946 JUMP JUMPDEST PUSH2 0x18C0 JUMP JUMPDEST PUSH2 0x1837 JUMP JUMPDEST PUSH2 0x1730 JUMP JUMPDEST PUSH2 0x16E1 JUMP JUMPDEST PUSH2 0x16CA JUMP JUMPDEST PUSH2 0x14DA JUMP JUMPDEST PUSH2 0x1437 JUMP JUMPDEST PUSH2 0x13A6 JUMP JUMPDEST PUSH2 0x1362 JUMP JUMPDEST PUSH2 0x12DC JUMP JUMPDEST PUSH2 0x1279 JUMP JUMPDEST PUSH2 0x123F JUMP JUMPDEST PUSH2 0x11D2 JUMP JUMPDEST PUSH2 0x1141 JUMP JUMPDEST PUSH2 0xEDE JUMP JUMPDEST PUSH2 0xE42 JUMP JUMPDEST PUSH2 0xDBB JUMP JUMPDEST PUSH2 0xC83 JUMP JUMPDEST PUSH2 0xC02 JUMP JUMPDEST PUSH2 0xBBE JUMP JUMPDEST PUSH2 0xB33 JUMP JUMPDEST PUSH2 0xB0B JUMP JUMPDEST PUSH2 0xA4C JUMP JUMPDEST PUSH2 0x8E5 JUMP JUMPDEST PUSH2 0x83E JUMP JUMPDEST PUSH2 0x6BC JUMP JUMPDEST PUSH2 0x64C JUMP JUMPDEST PUSH2 0x34C JUMP JUMPDEST PUSH2 0x2D3 JUMP JUMPDEST PUSH2 0x275 JUMP JUMPDEST PUSH1 0x1 PUSH1 0x1 PUSH1 0xA0 SHL SUB DUP2 AND SUB PUSH2 0x264 JUMPI JUMP JUMPDEST PUSH0 DUP1 REVERT JUMPDEST CALLDATALOAD SWAP1 PUSH2 0x273 DUP3 PUSH2 0x253 JUMP JUMPDEST JUMP JUMPDEST CALLVALUE PUSH2 0x264 JUMPI PUSH1 0x40 CALLDATASIZE PUSH1 0x3 NOT ADD SLT PUSH2 0x264 JUMPI PUSH1 0x4 CALLDATALOAD PUSH2 0x292 DUP2 PUSH2 0x253 JUMP JUMPDEST PUSH1 0x24 CALLDATALOAD SWAP1 PUSH1 0x1 DUP1 PUSH1 0xA0 SHL SUB AND PUSH0 MSTORE PUSH1 0x1 PUSH1 0x20 MSTORE PUSH1 0x40 PUSH0 KECCAK256 SWAP1 PUSH0 MSTORE PUSH1 0x20 MSTORE PUSH1 0x20 PUSH1 0x40 PUSH0 KECCAK256 SLOAD PUSH1 0x40 MLOAD SWAP1 DUP2 MSTORE RETURN JUMPDEST CALLDATALOAD SWAP1 PUSH1 0x1 PUSH1 0x1 PUSH1 0xE0 SHL SUB NOT DUP3 AND DUP3 SUB PUSH2 0x264 JUMPI JUMP JUMPDEST CALLVALUE PUSH2 0x264 JUMPI PUSH1 0x20 CALLDATASIZE PUSH1 0x3 NOT ADD SLT PUSH2 0x264 JUMPI PUSH1 0x4 CALLDATALOAD PUSH4 0xFFFFFFFF PUSH1 0xE0 SHL DUP2 AND DUP1 SWAP2 SUB PUSH2 0x264 JUMPI PUSH1 0x20 SWAP1 PUSH4 0x1FFC9A7 PUSH1 0xE0 SHL DUP2 EQ SWAP1 DUP2 ISZERO PUSH2 0x318 JUMPI JUMPDEST POP PUSH1 0x40 MLOAD SWAP1 ISZERO ISZERO DUP2 MSTORE RETURN JUMPDEST PUSH4 0xF632FB3 PUSH1 0xE0 SHL EQ SWAP1 POP PUSH0 PUSH2 0x30D JUMP JUMPDEST PUSH1 0x60 SWAP1 PUSH1 0x3 NOT ADD SLT PUSH2 0x264 JUMPI PUSH1 0x4 CALLDATALOAD PUSH2 0x341 DUP2 PUSH2 0x253 JUMP JUMPDEST SWAP1 PUSH1 0x24 CALLDATALOAD SWAP1 PUSH1 0x44 CALLDATALOAD SWAP1 JUMP JUMPDEST CALLVALUE PUSH2 0x264 JUMPI PUSH2 0x35A CALLDATASIZE PUSH2 0x329 JUMP JUMPDEST SWAP1 SWAP2 CALLER PUSH0 MSTORE PUSH1 0x1 PUSH1 0x20 MSTORE PUSH1 0x40 PUSH0 KECCAK256 DUP4 PUSH0 MSTORE PUSH1 0x20 MSTORE PUSH1 0x40 PUSH0 KECCAK256 DUP1 SLOAD SWAP1 DUP4 DUP3 SUB SWAP2 DUP3 GT PUSH2 0x3EB JUMPI SSTORE PUSH1 0x1 DUP1 PUSH1 0xA0 SHL SUB AND SWAP1 DUP2 PUSH0 MSTORE PUSH1 0x1 PUSH1 0x20 MSTORE PUSH2 0x3A6 DUP4 PUSH1 0x40 PUSH0 KECCAK256 SWAP1 PUSH0 MSTORE PUSH1 0x20 MSTORE PUSH1 0x40 PUSH0 KECCAK256 SWAP1 JUMP JUMPDEST PUSH2 0x3B1 DUP3 DUP3 SLOAD PUSH2 0x1DB5 JUMP JUMPDEST SWAP1 SSTORE PUSH1 0x40 DUP1 MLOAD CALLER DUP1 DUP3 MSTORE PUSH1 0x20 DUP3 ADD SWAP4 SWAP1 SWAP4 MSTORE PUSH0 MLOAD PUSH1 0x20 PUSH2 0x51C4 PUSH0 CODECOPY PUSH0 MLOAD SWAP1 PUSH0 MSTORE SWAP2 DUP2 SWAP1 DUP2 ADD JUMPDEST SUB SWAP1 LOG4 PUSH1 0x40 MLOAD PUSH1 0x1 DUP2 MSTORE DUP1 PUSH1 0x20 DUP2 ADD JUMPDEST SUB SWAP1 RETURN JUMPDEST PUSH2 0x1D86 JUMP JUMPDEST PUSH4 0x4E487B71 PUSH1 0xE0 SHL PUSH0 MSTORE PUSH1 0x41 PUSH1 0x4 MSTORE PUSH1 0x24 PUSH0 REVERT JUMPDEST PUSH1 0x80 DUP2 ADD SWAP1 DUP2 LT PUSH1 0x1 PUSH1 0x1 PUSH1 0x40 SHL SUB DUP3 GT OR PUSH2 0x41F JUMPI PUSH1 0x40 MSTORE JUMP JUMPDEST PUSH2 0x3F0 JUMP JUMPDEST SWAP1 PUSH1 0x1F DUP1 NOT SWAP2 ADD AND DUP2 ADD SWAP1 DUP2 LT PUSH1 0x1 PUSH1 0x1 PUSH1 0x40 SHL SUB DUP3 GT OR PUSH2 0x41F JUMPI PUSH1 0x40 MSTORE JUMP JUMPDEST PUSH1 0x40 MLOAD SWAP1 PUSH2 0x273 PUSH1 0xE0 DUP4 PUSH2 0x424 JUMP JUMPDEST PUSH1 0x40 MLOAD SWAP1 PUSH2 0x273 PUSH1 0x80 DUP4 PUSH2 0x424 JUMP JUMPDEST PUSH1 0x40 MLOAD SWAP1 PUSH2 0x273 PUSH2 0x120 DUP4 PUSH2 0x424 JUMP JUMPDEST PUSH1 0x1 PUSH1 0x1 PUSH1 0x40 SHL SUB DUP2 GT PUSH2 0x41F JUMPI PUSH1 0x5 SHL PUSH1 0x20 ADD SWAP1 JUMP JUMPDEST SWAP3 SWAP2 SWAP1 PUSH2 0x496 DUP2 PUSH2 0x473 JUMP JUMPDEST SWAP4 PUSH2 0x4A4 PUSH1 0x40 MLOAD SWAP6 DUP7 PUSH2 0x424 JUMP JUMPDEST PUSH1 0x20 DUP6 DUP4 DUP2 MSTORE ADD SWAP2 PUSH1 0x5 SHL DUP2 ADD SWAP3 DUP4 GT PUSH2 0x264 JUMPI SWAP1 JUMPDEST DUP3 DUP3 LT PUSH2 0x4C6 JUMPI POP POP POP JUMP JUMPDEST DUP2 CALLDATALOAD DUP2 MSTORE PUSH1 0x20 SWAP2 DUP3 ADD SWAP2 ADD PUSH2 0x4BA JUMP JUMPDEST SWAP1 DUP1 PUSH1 0x1F DUP4 ADD SLT ISZERO PUSH2 0x264 JUMPI DUP2 PUSH1 0x20 PUSH2 0x4F1 SWAP4 CALLDATALOAD SWAP2 ADD PUSH2 0x48A JUMP JUMPDEST SWAP1 JUMP JUMPDEST DUP1 ISZERO ISZERO SUB PUSH2 0x264 JUMPI JUMP JUMPDEST CALLDATALOAD SWAP1 PUSH2 0x273 DUP3 PUSH2 0x4F4 JUMP JUMPDEST PUSH1 0x1 PUSH1 0x1 PUSH1 0xE8 SHL SUB NOT DUP2 AND SUB PUSH2 0x264 JUMPI JUMP JUMPDEST SWAP3 SWAP2 SWAP1 PUSH2 0x527 DUP2 PUSH2 0x473 JUMP JUMPDEST SWAP4 PUSH2 0x535 PUSH1 0x40 MLOAD SWAP6 DUP7 PUSH2 0x424 JUMP JUMPDEST PUSH1 0x20 DUP6 DUP4 DUP2 MSTORE ADD SWAP2 PUSH1 0x5 SHL DUP2 ADD SWAP3 DUP4 GT PUSH2 0x264 JUMPI SWAP1 JUMPDEST DUP3 DUP3 LT PUSH2 0x557 JUMPI POP POP POP JUMP JUMPDEST PUSH1 0x20 DUP1 SWAP2 DUP4 CALLDATALOAD PUSH2 0x566 DUP2 PUSH2 0x509 JUMP JUMPDEST DUP2 MSTORE ADD SWAP2 ADD SWAP1 PUSH2 0x54B JUMP JUMPDEST SWAP1 DUP1 PUSH1 0x1F DUP4 ADD SLT ISZERO PUSH2 0x264 JUMPI DUP2 PUSH1 0x20 PUSH2 0x4F1 SWAP4 CALLDATALOAD SWAP2 ADD PUSH2 0x51B JUMP JUMPDEST SWAP2 SWAP1 SWAP2 PUSH1 0xE0 DUP2 DUP5 SUB SLT PUSH2 0x264 JUMPI PUSH2 0x5A1 PUSH2 0x445 JUMP JUMPDEST SWAP3 PUSH2 0x5AB DUP3 PUSH2 0x268 JUMP JUMPDEST DUP5 MSTORE PUSH2 0x5B9 PUSH1 0x20 DUP4 ADD PUSH2 0x268 JUMP JUMPDEST PUSH1 0x20 DUP6 ADD MSTORE PUSH2 0x5CA PUSH1 0x40 DUP4 ADD PUSH2 0x268 JUMP JUMPDEST PUSH1 0x40 DUP6 ADD MSTORE PUSH1 0x60 DUP3 ADD CALLDATALOAD PUSH1 0x1 PUSH1 0x1 PUSH1 0x40 SHL SUB DUP2 GT PUSH2 0x264 JUMPI DUP2 PUSH2 0x5EE SWAP2 DUP5 ADD PUSH2 0x4D6 JUMP JUMPDEST PUSH1 0x60 DUP6 ADD MSTORE PUSH2 0x5FF PUSH1 0x80 DUP4 ADD PUSH2 0x4FE JUMP JUMPDEST PUSH1 0x80 DUP6 ADD MSTORE PUSH1 0xA0 DUP3 ADD CALLDATALOAD SWAP2 PUSH1 0x1 PUSH1 0x1 PUSH1 0x40 SHL SUB DUP4 GT PUSH2 0x264 JUMPI PUSH2 0x629 PUSH1 0xC0 SWAP3 PUSH2 0x634 SWAP5 DUP4 ADD PUSH2 0x571 JUMP JUMPDEST PUSH1 0xA0 DUP7 ADD MSTORE ADD PUSH2 0x2BE JUMP JUMPDEST PUSH1 0xC0 DUP4 ADD MSTORE JUMP JUMPDEST PUSH1 0x1 PUSH1 0x1 PUSH1 0x80 SHL SUB DUP2 AND SUB PUSH2 0x264 JUMPI JUMP JUMPDEST CALLVALUE PUSH2 0x264 JUMPI PUSH1 0x80 CALLDATASIZE PUSH1 0x3 NOT ADD SLT PUSH2 0x264 JUMPI PUSH1 0x4 CALLDATALOAD PUSH1 0x1 PUSH1 0x1 PUSH1 0x40 SHL SUB DUP2 GT PUSH2 0x264 JUMPI PUSH2 0x67F PUSH2 0x6AA SWAP2 CALLDATASIZE SWAP1 PUSH1 0x4 ADD PUSH2 0x58C JUMP JUMPDEST PUSH1 0x24 CALLDATALOAD PUSH2 0x68B DUP2 PUSH2 0x63B JUMP JUMPDEST PUSH1 0x44 CALLDATALOAD SWAP1 PUSH2 0x698 DUP3 PUSH2 0x63B JUMP JUMPDEST PUSH1 0x64 CALLDATALOAD SWAP3 PUSH2 0x6A5 DUP5 PUSH2 0x253 JUMP JUMPDEST PUSH2 0x1F84 JUMP JUMPDEST PUSH1 0x40 DUP1 MLOAD SWAP3 DUP4 MSTORE PUSH1 0x20 DUP4 ADD SWAP2 SWAP1 SWAP2 MSTORE SWAP1 RETURN JUMPDEST CALLVALUE PUSH2 0x264 JUMPI PUSH1 0xE0 CALLDATASIZE PUSH1 0x3 NOT ADD SLT PUSH2 0x264 JUMPI PUSH1 0x4 CALLDATALOAD PUSH1 0x24 CALLDATALOAD PUSH2 0x6DC DUP2 PUSH2 0x253 JUMP JUMPDEST PUSH1 0x44 CALLDATALOAD PUSH2 0x6E8 DUP2 PUSH2 0x253 JUMP JUMPDEST PUSH1 0x64 CALLDATALOAD SWAP2 PUSH1 0x84 CALLDATALOAD SWAP4 PUSH1 0xA4 CALLDATALOAD SWAP1 PUSH1 0xC4 CALLDATALOAD SWAP1 PUSH2 0x701 DUP3 PUSH2 0x253 JUMP JUMPDEST PUSH1 0x2A SLOAD PUSH2 0x729 SWAP1 PUSH2 0x722 SWAP1 PUSH1 0x1 PUSH1 0x1 PUSH1 0xA0 SHL SUB AND JUMPDEST PUSH1 0x1 PUSH1 0x1 PUSH1 0xA0 SHL SUB AND SWAP1 JUMP JUMPDEST CALLER EQ PUSH2 0x229B JUMP JUMPDEST PUSH2 0x731 PUSH2 0x3685 JUMP JUMPDEST SWAP2 PUSH1 0x1 PUSH1 0x1 PUSH1 0xA0 SHL SUB DUP4 AND ISZERO PUSH2 0x824 JUMPI JUMPDEST POP DUP3 PUSH2 0x753 DUP4 SWAP5 DUP4 PUSH2 0x7A2 SWAP6 PUSH2 0x36CF JUMP JUMPDEST PUSH2 0x770 PUSH2 0x768 DUP4 PUSH0 MSTORE PUSH1 0xF PUSH1 0x20 MSTORE PUSH1 0x40 PUSH0 KECCAK256 SWAP1 JUMP JUMPDEST SWAP2 DUP3 SLOAD PUSH2 0x1DA8 JUMP JUMPDEST SWAP1 SSTORE PUSH2 0x787 PUSH1 0x1 PUSH1 0x1 PUSH1 0x80 SHL SUB DUP8 AND PUSH1 0xF SIGNEXTEND PUSH2 0x22DF JUMP JUMPDEST PUSH2 0x79C PUSH1 0x1 PUSH1 0x1 PUSH1 0x80 SHL SUB DUP10 AND PUSH1 0xF SIGNEXTEND PUSH2 0x22DF JUMP JUMPDEST SWAP2 PUSH2 0x374E JUMP JUMPDEST PUSH2 0x7AD DUP5 DUP4 DUP4 PUSH2 0x37A9 JUMP JUMPDEST PUSH2 0x7B8 DUP6 DUP5 DUP4 PUSH2 0x37A9 JUMP JUMPDEST PUSH2 0x7CA PUSH2 0x7C5 DUP3 ADDRESS PUSH2 0x4169 JUMP JUMPDEST TLOAD ISZERO SWAP1 JUMP JUMPDEST PUSH2 0x7E3 JUMPI JUMPDEST POP POP PUSH1 0x40 DUP1 MLOAD SWAP3 DUP4 MSTORE PUSH1 0x20 DUP4 ADD SWAP4 SWAP1 SWAP4 MSTORE POP RETURN JUMPDEST PUSH2 0x817 PUSH2 0x81C SWAP4 PUSH2 0x80E PUSH2 0x7F5 PUSH2 0x22FF JUMP JUMPDEST SWAP5 PUSH2 0x7FF DUP7 PUSH2 0x1DC2 JUMP JUMPDEST PUSH1 0x1 PUSH1 0x1 PUSH1 0xA0 SHL SUB SWAP1 SWAP2 AND SWAP1 MSTORE JUMP JUMPDEST PUSH2 0x7FF DUP5 PUSH2 0x1DCF JUMP JUMPDEST PUSH2 0x37BC JUMP JUMPDEST PUSH0 DUP1 DUP1 PUSH2 0x7CF JUMP JUMPDEST SWAP2 POP PUSH2 0x7A2 PUSH2 0x742 JUMP JUMPDEST PUSH1 0x4 CALLDATALOAD SWAP1 PUSH1 0xFF DUP3 AND DUP3 SUB PUSH2 0x264 JUMPI JUMP JUMPDEST CALLVALUE PUSH2 0x264 JUMPI PUSH1 0x40 CALLDATASIZE PUSH1 0x3 NOT ADD SLT PUSH2 0x264 JUMPI PUSH2 0x857 PUSH2 0x82E JUMP JUMPDEST PUSH2 0x89A PUSH1 0x24 CALLDATALOAD SWAP2 PUSH2 0x867 DUP4 PUSH2 0x253 JUMP JUMPDEST PUSH2 0x87C PUSH1 0x1 DUP1 PUSH1 0xA0 SHL SUB PUSH1 0x28 SLOAD AND CALLER EQ PUSH2 0x2321 JUMP JUMPDEST PUSH2 0x895 PUSH1 0xFF DUP3 AND PUSH1 0x4 DUP2 LT ISZERO SWAP1 DUP2 PUSH2 0x8D9 JUMPI JUMPDEST POP PUSH2 0x235D JUMP JUMPDEST PUSH2 0x2398 JUMP JUMPDEST PUSH2 0x8A9 PUSH1 0xC PUSH1 0xFF DUP4 AND LT PUSH2 0x235D JUMP JUMPDEST PUSH1 0xC DUP2 LT ISZERO PUSH2 0x8D4 JUMPI PUSH1 0x3 ADD DUP1 SLOAD PUSH1 0x1 PUSH1 0x1 PUSH1 0xA0 SHL SUB NOT AND PUSH1 0x1 PUSH1 0x1 PUSH1 0xA0 SHL SUB SWAP1 SWAP3 AND SWAP2 SWAP1 SWAP2 OR SWAP1 SSTORE STOP JUMPDEST PUSH2 0x1A98 JUMP JUMPDEST PUSH1 0xF SWAP2 POP GT ISZERO PUSH0 PUSH2 0x88F JUMP JUMPDEST CALLVALUE PUSH2 0x264 JUMPI PUSH1 0x20 CALLDATASIZE PUSH1 0x3 NOT ADD SLT PUSH2 0x264 JUMPI PUSH1 0x4 CALLDATALOAD PUSH0 PUSH1 0x60 PUSH1 0x40 MLOAD PUSH2 0x908 DUP2 PUSH2 0x404 JUMP JUMPDEST DUP3 DUP2 MSTORE DUP3 PUSH1 0x20 DUP3 ADD MSTORE DUP3 PUSH1 0x40 DUP3 ADD MSTORE ADD MSTORE PUSH0 MSTORE PUSH1 0x11 PUSH1 0x20 MSTORE PUSH1 0x40 PUSH0 KECCAK256 PUSH1 0x40 MLOAD SWAP1 PUSH2 0x931 DUP3 PUSH2 0x404 JUMP JUMPDEST DUP1 SLOAD PUSH1 0x1 PUSH1 0x1 PUSH1 0xA0 SHL SUB SWAP1 DUP2 AND DUP1 DUP5 MSTORE PUSH1 0x1 DUP4 ADD SLOAD DUP3 AND PUSH1 0x20 DUP6 ADD DUP2 SWAP1 MSTORE PUSH1 0x2 SWAP1 SWAP4 ADD SLOAD SWAP2 DUP3 AND PUSH1 0x40 DUP6 ADD DUP2 SWAP1 MSTORE PUSH1 0x48 SWAP3 SWAP1 SWAP3 SHL PUSH1 0x1 PUSH1 0x1 PUSH1 0xE8 SHL SUB NOT AND PUSH1 0x60 SWAP5 SWAP1 SWAP5 ADD DUP5 SWAP1 MSTORE SWAP1 SWAP3 PUSH2 0x3E7 SWAP2 PUSH2 0x9A8 SWAP1 PUSH2 0x99A SWAP1 PUSH2 0x98D SWAP1 DUP2 JUMP JUMPDEST SWAP6 PUSH1 0x1 PUSH1 0x1 PUSH1 0xA0 SHL SUB AND SWAP1 JUMP JUMPDEST SWAP2 PUSH1 0x1 PUSH1 0x1 PUSH1 0xE8 SHL SUB NOT AND SWAP1 JUMP JUMPDEST PUSH1 0x40 DUP1 MLOAD PUSH1 0x1 PUSH1 0x1 PUSH1 0xA0 SHL SUB SWAP6 DUP7 AND DUP2 MSTORE SWAP6 DUP6 AND PUSH1 0x20 DUP8 ADD MSTORE SWAP2 SWAP1 SWAP4 AND SWAP1 DUP5 ADD MSTORE PUSH1 0x1 PUSH1 0x1 PUSH1 0xE8 SHL SUB NOT SWAP1 SWAP2 AND PUSH1 0x60 DUP4 ADD MSTORE DUP2 SWAP1 PUSH1 0x80 DUP3 ADD SWAP1 JUMP JUMPDEST SWAP2 DUP2 PUSH1 0x1F DUP5 ADD SLT ISZERO PUSH2 0x264 JUMPI DUP3 CALLDATALOAD SWAP2 PUSH1 0x1 PUSH1 0x1 PUSH1 0x40 SHL SUB DUP4 GT PUSH2 0x264 JUMPI PUSH1 0x20 DUP1 DUP6 ADD SWAP5 DUP5 PUSH1 0x5 SHL ADD ADD GT PUSH2 0x264 JUMPI JUMP JUMPDEST PUSH1 0x20 PUSH1 0x40 DUP2 DUP4 ADD SWAP3 DUP3 DUP2 MSTORE DUP5 MLOAD DUP1 SWAP5 MSTORE ADD SWAP3 ADD SWAP1 PUSH0 JUMPDEST DUP2 DUP2 LT PUSH2 0xA36 JUMPI POP POP POP SWAP1 JUMP JUMPDEST DUP3 MLOAD DUP5 MSTORE PUSH1 0x20 SWAP4 DUP5 ADD SWAP4 SWAP1 SWAP3 ADD SWAP2 PUSH1 0x1 ADD PUSH2 0xA29 JUMP JUMPDEST CALLVALUE PUSH2 0x264 JUMPI PUSH1 0x40 CALLDATASIZE PUSH1 0x3 NOT ADD SLT PUSH2 0x264 JUMPI PUSH1 0x4 CALLDATALOAD PUSH2 0xA69 DUP2 PUSH2 0x253 JUMP JUMPDEST PUSH1 0x24 CALLDATALOAD PUSH1 0x1 PUSH1 0x1 PUSH1 0x40 SHL SUB DUP2 GT PUSH2 0x264 JUMPI PUSH2 0xA88 SWAP1 CALLDATASIZE SWAP1 PUSH1 0x4 ADD PUSH2 0x9E3 JUMP JUMPDEST SWAP2 PUSH2 0xA92 DUP4 PUSH2 0x473 JUMP JUMPDEST SWAP3 PUSH2 0xAA0 PUSH1 0x40 MLOAD SWAP5 DUP6 PUSH2 0x424 JUMP JUMPDEST DUP1 DUP5 MSTORE PUSH1 0x1F NOT PUSH2 0xAAF DUP3 PUSH2 0x473 JUMP JUMPDEST ADD CALLDATASIZE PUSH1 0x20 DUP7 ADD CALLDATACOPY PUSH0 JUMPDEST DUP2 DUP2 LT PUSH2 0xACD JUMPI PUSH1 0x40 MLOAD DUP1 PUSH2 0x3E7 DUP8 DUP3 PUSH2 0xA13 JUMP JUMPDEST DUP1 PUSH2 0xAEF PUSH2 0xADE PUSH1 0x1 SWAP4 DUP6 DUP9 PUSH2 0x23B4 JUMP JUMPDEST CALLDATALOAD PUSH2 0xAE8 DUP2 PUSH2 0x253 JUMP JUMPDEST DUP6 ADDRESS PUSH2 0x41CB JUMP JUMPDEST TLOAD PUSH2 0xAFA DUP3 DUP9 PUSH2 0x1DDF JUMP JUMPDEST MSTORE ADD PUSH2 0xAB8 JUMP JUMPDEST PUSH0 SWAP2 SUB SLT PUSH2 0x264 JUMPI JUMP JUMPDEST CALLVALUE PUSH2 0x264 JUMPI PUSH0 CALLDATASIZE PUSH1 0x3 NOT ADD SLT PUSH2 0x264 JUMPI PUSH1 0x2A SLOAD PUSH1 0x40 MLOAD PUSH1 0x1 PUSH1 0x1 PUSH1 0xA0 SHL SUB SWAP1 SWAP2 AND DUP2 MSTORE PUSH1 0x20 SWAP1 RETURN JUMPDEST CALLVALUE PUSH2 0x264 JUMPI PUSH1 0x20 CALLDATASIZE PUSH1 0x3 NOT ADD SLT PUSH2 0x264 JUMPI PUSH1 0x4 CALLDATALOAD PUSH2 0xB50 DUP2 PUSH2 0x253 JUMP JUMPDEST PUSH1 0x2A SLOAD SWAP1 PUSH2 0xB67 PUSH1 0x1 PUSH1 0x1 PUSH1 0xA0 SHL SUB DUP4 AND ISZERO PUSH2 0x23CE JUMP JUMPDEST PUSH1 0x1 PUSH1 0x1 PUSH1 0xA0 SHL SUB AND SWAP1 DUP2 ISZERO PUSH2 0xB87 JUMPI PUSH1 0x1 PUSH1 0x1 PUSH1 0xA0 SHL SUB NOT AND OR PUSH1 0x2A SSTORE STOP JUMPDEST PUSH1 0x40 MLOAD PUSH3 0x461BCD PUSH1 0xE5 SHL DUP2 MSTORE PUSH1 0x20 PUSH1 0x4 DUP3 ADD MSTORE PUSH1 0xF PUSH1 0x24 DUP3 ADD MSTORE PUSH15 0x496E76616C69642061646472657373 PUSH1 0x88 SHL PUSH1 0x44 DUP3 ADD MSTORE PUSH1 0x64 SWAP1 REVERT JUMPDEST CALLVALUE PUSH2 0x264 JUMPI PUSH0 CALLDATASIZE PUSH1 0x3 NOT ADD SLT PUSH2 0x264 JUMPI PUSH1 0x40 MLOAD PUSH32 0x0 PUSH1 0x1 PUSH1 0x1 PUSH1 0xA0 SHL SUB AND DUP2 MSTORE PUSH1 0x20 SWAP1 RETURN JUMPDEST CALLVALUE PUSH2 0x264 JUMPI PUSH2 0xC10 CALLDATASIZE PUSH2 0x329 JUMP JUMPDEST SWAP1 SWAP2 CALLER PUSH0 MSTORE PUSH1 0x2 PUSH1 0x20 MSTORE PUSH2 0xC37 DUP2 PUSH1 0x40 PUSH0 KECCAK256 SWAP1 PUSH1 0x1 DUP1 PUSH1 0xA0 SHL SUB AND PUSH0 MSTORE PUSH1 0x20 MSTORE PUSH1 0x40 PUSH0 KECCAK256 SWAP1 JUMP JUMPDEST DUP4 PUSH0 MSTORE PUSH1 0x20 MSTORE DUP2 PUSH1 0x40 PUSH0 KECCAK256 SSTORE PUSH1 0x40 MLOAD SWAP2 DUP3 MSTORE PUSH1 0x1 DUP1 PUSH1 0xA0 SHL SUB AND SWAP1 PUSH32 0xB3FD5071835887567A0671151121894DDCCC2842F1D10BEDAD13E0D17CACE9A7 PUSH1 0x20 CALLER SWAP3 LOG4 PUSH1 0x20 PUSH1 0x40 MLOAD PUSH1 0x1 DUP2 MSTORE RETURN JUMPDEST CALLVALUE PUSH2 0x264 JUMPI PUSH2 0x100 CALLDATASIZE PUSH1 0x3 NOT ADD SLT PUSH2 0x264 JUMPI PUSH2 0x3E7 PUSH1 0x4 CALLDATALOAD PUSH1 0x24 CALLDATALOAD PUSH2 0xCA7 DUP2 PUSH2 0x253 JUMP JUMPDEST PUSH1 0x44 CALLDATALOAD SWAP1 PUSH2 0xCB4 DUP3 PUSH2 0x253 JUMP JUMPDEST PUSH1 0x64 CALLDATALOAD SWAP1 PUSH1 0x84 CALLDATALOAD PUSH1 0xA4 CALLDATALOAD SWAP5 PUSH1 0xC4 CALLDATALOAD SWAP1 PUSH2 0xCCC DUP3 PUSH2 0x253 JUMP JUMPDEST PUSH1 0x2A SLOAD PUSH1 0xE4 CALLDATALOAD SWAP6 SWAP1 PUSH2 0xCEA SWAP1 PUSH2 0x722 SWAP1 PUSH1 0x1 PUSH1 0x1 PUSH1 0xA0 SHL SUB AND PUSH2 0x716 JUMP JUMPDEST PUSH2 0xCF2 PUSH2 0x3685 JUMP JUMPDEST SWAP3 PUSH1 0x1 PUSH1 0x1 PUSH1 0xA0 SHL SUB DUP5 AND ISZERO PUSH2 0xDB1 JUMPI JUMPDEST POP DUP1 PUSH1 0x1 PUSH1 0x1 PUSH1 0x80 SHL SUB DUP1 PUSH2 0xD64 SWAP6 SWAP7 PUSH2 0xD29 PUSH2 0xD22 PUSH2 0xD4B SWAP7 PUSH2 0x2408 JUMP JUMPDEST DUP11 DUP11 PUSH2 0x37A9 JUMP JUMPDEST PUSH2 0xD3C PUSH2 0xD35 DUP3 PUSH2 0x2408 JUMP JUMPDEST DUP13 DUP11 PUSH2 0x37A9 JUMP JUMPDEST AND PUSH1 0xF SIGNEXTEND SWAP2 AND PUSH1 0xF SIGNEXTEND DUP4 PUSH2 0x374E JUMP JUMPDEST PUSH2 0xD56 DUP8 DUP3 DUP6 PUSH2 0x38E9 JUMP JUMPDEST PUSH0 MSTORE PUSH1 0xF PUSH1 0x20 MSTORE PUSH1 0x40 PUSH0 KECCAK256 SWAP1 JUMP JUMPDEST PUSH2 0xD6F DUP7 DUP3 SLOAD PUSH2 0x1DB5 JUMP JUMPDEST SWAP1 SSTORE PUSH2 0xD7E PUSH2 0x7C5 DUP3 ADDRESS PUSH2 0x4169 JUMP JUMPDEST PUSH2 0xD91 JUMPI JUMPDEST PUSH1 0x40 MLOAD DUP6 DUP2 MSTORE DUP1 PUSH1 0x20 DUP2 ADD DUP9 JUMP JUMPDEST PUSH2 0xDA3 PUSH2 0xDA8 SWAP5 PUSH2 0x80E PUSH2 0x7F5 PUSH2 0x22FF JUMP JUMPDEST PUSH2 0x3851 JUMP JUMPDEST PUSH0 DUP1 DUP1 DUP1 PUSH2 0xD83 JUMP JUMPDEST SWAP3 POP PUSH2 0xD4B PUSH2 0xD03 JUMP JUMPDEST PUSH2 0x120 CALLDATASIZE PUSH1 0x3 NOT ADD SLT PUSH2 0x264 JUMPI PUSH1 0x4 CALLDATALOAD PUSH2 0xDD4 DUP2 PUSH2 0x253 JUMP JUMPDEST PUSH1 0x24 CALLDATALOAD PUSH2 0xDE0 DUP2 PUSH2 0x253 JUMP JUMPDEST PUSH1 0x44 CALLDATALOAD SWAP2 PUSH2 0xDED DUP4 PUSH2 0x253 JUMP JUMPDEST PUSH1 0x64 CALLDATALOAD PUSH2 0xDF9 DUP2 PUSH2 0x509 JUMP JUMPDEST PUSH1 0x84 CALLDATALOAD PUSH1 0xA4 CALLDATALOAD PUSH2 0xE08 DUP2 PUSH2 0x4F4 JUMP JUMPDEST PUSH1 0xC4 CALLDATALOAD SWAP2 PUSH1 0xE4 CALLDATALOAD SWAP4 PUSH1 0x1 PUSH1 0x1 PUSH1 0x40 SHL SUB DUP6 AND DUP6 SUB PUSH2 0x264 JUMPI PUSH2 0x3E7 SWAP8 PUSH2 0xE32 SWAP8 PUSH2 0x104 CALLDATALOAD SWAP8 PUSH2 0x2418 JUMP JUMPDEST PUSH1 0x40 MLOAD SWAP1 DUP2 MSTORE SWAP1 DUP2 SWAP1 PUSH1 0x20 DUP3 ADD SWAP1 JUMP JUMPDEST CALLVALUE PUSH2 0x264 JUMPI PUSH1 0x40 CALLDATASIZE PUSH1 0x3 NOT ADD SLT PUSH2 0x264 JUMPI PUSH1 0x4 CALLDATALOAD PUSH2 0xE5F DUP2 PUSH2 0x253 JUMP JUMPDEST PUSH1 0x24 CALLDATALOAD SWAP1 PUSH2 0xE6C DUP3 PUSH2 0x4F4 JUMP JUMPDEST CALLER PUSH0 SWAP1 DUP2 MSTORE PUSH1 0x20 DUP2 DUP2 MSTORE PUSH1 0x40 DUP1 DUP4 KECCAK256 PUSH1 0x1 PUSH1 0x1 PUSH1 0xA0 SHL SUB DUP6 AND DUP5 MSTORE SWAP1 SWAP2 MSTORE SWAP1 KECCAK256 SWAP2 ISZERO ISZERO SWAP2 PUSH1 0xFF NOT DUP2 SLOAD AND PUSH1 0xFF DUP5 AND OR SWAP1 SSTORE PUSH1 0x40 MLOAD SWAP2 DUP3 MSTORE PUSH1 0x1 DUP1 PUSH1 0xA0 SHL SUB AND SWAP1 PUSH32 0xCEB576D9F15E4E200FDB5096D64D5DFD667E16DEF20C1EEFD14256D8E3FAA267 PUSH1 0x20 CALLER SWAP3 LOG3 PUSH1 0x40 MLOAD PUSH1 0x1 DUP2 MSTORE PUSH1 0x20 SWAP1 RETURN JUMPDEST CALLVALUE PUSH2 0x264 JUMPI PUSH1 0x80 CALLDATASIZE PUSH1 0x3 NOT ADD SLT PUSH2 0x264 JUMPI PUSH1 0x4 CALLDATALOAD PUSH2 0xEFB DUP2 PUSH2 0x253 JUMP JUMPDEST PUSH1 0x24 CALLDATALOAD PUSH2 0xF07 DUP2 PUSH2 0x253 JUMP JUMPDEST PUSH1 0x44 CALLDATALOAD PUSH2 0xF13 DUP2 PUSH2 0x253 JUMP JUMPDEST PUSH1 0x64 CALLDATALOAD SWAP3 PUSH2 0xF20 DUP5 PUSH2 0x509 JUMP JUMPDEST PUSH2 0xF30 PUSH2 0xF2B PUSH2 0x3942 JUMP JUMPDEST PUSH2 0x3985 JUMP JUMPDEST PUSH2 0xF3C DUP5 DUP4 DUP6 DUP5 PUSH2 0x3435 JUMP JUMPDEST SWAP3 PUSH1 0x1 DUP1 PUSH1 0xA0 SHL SUB PUSH2 0xF69 PUSH1 0x2 PUSH2 0xF5B DUP8 PUSH0 MSTORE PUSH1 0x11 PUSH1 0x20 MSTORE PUSH1 0x40 PUSH0 KECCAK256 SWAP1 JUMP JUMPDEST ADD SLOAD PUSH1 0x1 PUSH1 0x1 PUSH1 0xA0 SHL SUB AND SWAP1 JUMP JUMPDEST AND PUSH2 0x112D JUMPI PUSH2 0x3E7 SWAP5 PUSH2 0x10C5 SWAP4 SWAP1 SWAP3 DUP6 SWAP3 PUSH32 0x68DF9A4EB7AACBE8F43763BFBC9F7CA135A5397190EA1CCE2558DB52DC2F3692 SWAP3 SWAP2 SWAP1 DUP6 PUSH1 0x1 PUSH1 0x1 PUSH1 0xA0 SHL SUB DUP1 DUP4 AND SWAP1 DUP5 AND LT ISZERO PUSH2 0x1122 JUMPI PUSH2 0x10B7 SWAP2 SWAP4 JUMPDEST PUSH2 0x107B PUSH2 0xFC4 PUSH2 0x454 JUMP JUMPDEST PUSH1 0x1 PUSH1 0x1 PUSH1 0xA0 SHL SUB DUP7 AND DUP2 MSTORE PUSH1 0x1 PUSH1 0x1 PUSH1 0xA0 SHL SUB DUP8 AND PUSH1 0x20 DUP3 ADD MSTORE PUSH1 0x1 PUSH1 0x1 PUSH1 0xA0 SHL SUB DUP4 AND PUSH1 0x40 DUP3 ADD MSTORE PUSH1 0x1 PUSH1 0x1 PUSH1 0xE8 SHL SUB NOT DUP5 AND PUSH1 0x60 DUP3 ADD MSTORE PUSH2 0x1010 DUP10 PUSH0 MSTORE PUSH1 0x11 PUSH1 0x20 MSTORE PUSH1 0x40 PUSH0 KECCAK256 SWAP1 JUMP JUMPDEST DUP2 MLOAD DUP2 SLOAD PUSH1 0x1 PUSH1 0x1 PUSH1 0xA0 SHL SUB NOT SWAP1 DUP2 AND PUSH1 0x1 PUSH1 0x1 PUSH1 0xA0 SHL SUB SWAP3 DUP4 AND OR DUP4 SSTORE PUSH1 0x20 DUP5 ADD MLOAD PUSH1 0x1 DUP5 ADD DUP1 SLOAD SWAP1 SWAP3 AND SWAP1 DUP4 AND OR SWAP1 SSTORE PUSH1 0x40 DUP4 ADD MLOAD PUSH1 0x2 SWAP1 SWAP3 ADD DUP1 SLOAD PUSH1 0x60 SWAP1 SWAP5 ADD MLOAD SWAP3 SWAP1 SWAP2 AND PUSH1 0x1 PUSH1 0x1 PUSH1 0xB8 SHL SUB NOT SWAP1 SWAP4 AND SWAP3 SWAP1 SWAP3 OR PUSH1 0x48 SWAP2 SWAP1 SWAP2 SHR PUSH3 0xFFFFFF PUSH1 0xA0 SHL AND OR SWAP1 SSTORE JUMP JUMPDEST PUSH1 0x40 DUP1 MLOAD PUSH1 0x1 PUSH1 0x1 PUSH1 0xA0 SHL SUB SWAP6 DUP7 AND DUP2 MSTORE SWAP6 DUP6 AND PUSH1 0x20 DUP8 ADD MSTORE SWAP4 AND SWAP3 DUP5 ADD SWAP3 SWAP1 SWAP3 MSTORE PUSH1 0x1 PUSH1 0x1 PUSH1 0xE8 SHL SUB NOT SWAP1 SWAP2 AND PUSH1 0x60 DUP4 ADD MSTORE DUP2 SWAP1 PUSH1 0x80 DUP3 ADD SWAP1 JUMP JUMPDEST SUB SWAP1 LOG2 PUSH1 0x1 PUSH1 0xF8 SHL AND ISZERO ISZERO SWAP1 JUMP JUMPDEST PUSH2 0x10E4 JUMPI JUMPDEST PUSH0 PUSH2 0x10D3 PUSH2 0x3942 JUMP JUMPDEST TSTORE PUSH1 0x40 MLOAD SWAP1 DUP2 MSTORE SWAP1 DUP2 SWAP1 PUSH1 0x20 DUP3 ADD SWAP1 JUMP JUMPDEST PUSH1 0x28 SLOAD PUSH2 0x1104 SWAP1 PUSH2 0x10FD SWAP1 PUSH1 0x1 PUSH1 0x1 PUSH1 0xA0 SHL SUB AND PUSH2 0x716 JUMP JUMPDEST CALLER EQ PUSH2 0x2321 JUMP JUMPDEST PUSH2 0x111D DUP2 PUSH0 MSTORE PUSH1 0x26 PUSH1 0x20 MSTORE PUSH1 0x40 PUSH0 KECCAK256 PUSH1 0xFF NOT DUP2 SLOAD AND SWAP1 SSTORE JUMP JUMPDEST PUSH2 0x10CA JUMP JUMPDEST PUSH2 0x10B7 SWAP2 SWAP3 SWAP4 PUSH2 0xFB9 JUMP JUMPDEST PUSH4 0xE1ECC133 PUSH1 0xE0 SHL PUSH0 MSTORE PUSH1 0x4 DUP5 SWAP1 MSTORE PUSH1 0x24 PUSH0 REVERT JUMPDEST PUSH2 0x100 CALLDATASIZE PUSH1 0x3 NOT ADD SLT PUSH2 0x264 JUMPI PUSH1 0x4 CALLDATALOAD PUSH2 0x115A DUP2 PUSH2 0x253 JUMP JUMPDEST PUSH1 0x24 CALLDATALOAD PUSH2 0x1166 DUP2 PUSH2 0x253 JUMP JUMPDEST PUSH1 0x44 CALLDATALOAD SWAP2 PUSH2 0x1173 DUP4 PUSH2 0x253 JUMP JUMPDEST PUSH1 0x64 CALLDATALOAD PUSH2 0x117F DUP2 PUSH2 0x509 JUMP JUMPDEST PUSH1 0x84 CALLDATALOAD PUSH1 0xA4 CALLDATALOAD PUSH2 0x118E DUP2 PUSH2 0x4F4 JUMP JUMPDEST PUSH1 0xE4 CALLDATALOAD SWAP3 PUSH1 0xC4 CALLDATALOAD SWAP3 SWAP1 PUSH1 0x1 PUSH1 0x1 PUSH1 0xE0 SHL SUB NOT DUP6 AND DUP6 SUB PUSH2 0x264 JUMPI PUSH2 0x3E7 SWAP8 PUSH2 0x10CA SWAP8 PUSH2 0x11BB PUSH2 0xF2B PUSH2 0x3942 JUMP JUMPDEST PUSH1 0x40 MLOAD SWAP8 PUSH2 0x11CA PUSH1 0x20 DUP11 PUSH2 0x424 JUMP JUMPDEST PUSH0 DUP10 MSTORE PUSH2 0x3E0F JUMP JUMPDEST CALLVALUE PUSH2 0x264 JUMPI PUSH1 0x60 CALLDATASIZE PUSH1 0x3 NOT ADD SLT PUSH2 0x264 JUMPI PUSH1 0x4 CALLDATALOAD PUSH2 0x11EF DUP2 PUSH2 0x253 JUMP JUMPDEST PUSH2 0x122A PUSH1 0x24 CALLDATALOAD PUSH2 0x11FE DUP2 PUSH2 0x253 JUMP JUMPDEST PUSH1 0x44 CALLDATALOAD SWAP3 PUSH1 0x1 DUP1 PUSH1 0xA0 SHL SUB AND PUSH0 MSTORE PUSH1 0x2 PUSH1 0x20 MSTORE PUSH1 0x40 PUSH0 KECCAK256 SWAP1 PUSH1 0x1 DUP1 PUSH1 0xA0 SHL SUB AND PUSH0 MSTORE PUSH1 0x20 MSTORE PUSH1 0x40 PUSH0 KECCAK256 SWAP1 JUMP JUMPDEST SWAP1 PUSH0 MSTORE PUSH1 0x20 MSTORE PUSH1 0x20 PUSH1 0x40 PUSH0 KECCAK256 SLOAD PUSH1 0x40 MLOAD SWAP1 DUP2 MSTORE RETURN JUMPDEST CALLVALUE PUSH2 0x264 JUMPI PUSH1 0x20 CALLDATASIZE PUSH1 0x3 NOT ADD SLT PUSH2 0x264 JUMPI PUSH1 0x4 CALLDATALOAD PUSH0 MSTORE PUSH1 0x10 PUSH1 0x20 MSTORE PUSH1 0x40 DUP1 PUSH0 KECCAK256 SLOAD DUP2 MLOAD SWAP1 PUSH1 0x1 PUSH1 0x1 PUSH1 0x80 SHL SUB DUP2 AND DUP3 MSTORE PUSH1 0x80 SHR PUSH1 0x20 DUP3 ADD MSTORE RETURN JUMPDEST CALLVALUE PUSH2 0x264 JUMPI PUSH1 0x20 CALLDATASIZE PUSH1 0x3 NOT ADD SLT PUSH2 0x264 JUMPI PUSH1 0x4 CALLDATALOAD PUSH4 0xFFFFFFFF NUMBER AND SWAP1 DUP1 PUSH0 MSTORE PUSH1 0x15 PUSH1 0x20 MSTORE PUSH1 0x40 PUSH0 KECCAK256 DUP3 PUSH4 0xFFFFFFFF NOT DUP3 SLOAD AND OR SWAP1 SSTORE PUSH1 0x40 MLOAD SWAP2 DUP3 MSTORE PUSH32 0xF76330AF9ED35739F4663E9F2C2726C5C60A98C86B8E6C087B0B54D818C0099B PUSH1 0x20 CALLER SWAP4 LOG3 STOP JUMPDEST PUSH1 0x60 CALLDATASIZE PUSH1 0x3 NOT ADD SLT PUSH2 0x264 JUMPI PUSH1 0x4 CALLDATALOAD PUSH2 0x12F4 DUP2 PUSH2 0x253 JUMP JUMPDEST PUSH1 0x24 CALLDATALOAD PUSH1 0x1 PUSH1 0x1 PUSH1 0x40 SHL SUB DUP2 GT PUSH2 0x264 JUMPI CALLDATASIZE PUSH1 0x23 DUP3 ADD SLT ISZERO PUSH2 0x264 JUMPI DUP1 PUSH1 0x4 ADD CALLDATALOAD SWAP1 PUSH1 0x1 PUSH1 0x1 PUSH1 0x40 SHL SUB DUP3 GT PUSH2 0x264 JUMPI CALLDATASIZE PUSH1 0x24 DUP4 DUP4 ADD ADD GT PUSH2 0x264 JUMPI PUSH1 0x44 CALLDATALOAD SWAP2 PUSH1 0x1 PUSH1 0x1 PUSH1 0x40 SHL SUB DUP4 GT PUSH2 0x264 JUMPI PUSH2 0x1360 SWAP4 PUSH2 0x1356 PUSH1 0x24 SWAP5 CALLDATASIZE SWAP1 PUSH1 0x4 ADD PUSH2 0x9E3 JUMP JUMPDEST SWAP5 SWAP1 SWAP4 ADD SWAP1 PUSH2 0x24CE JUMP JUMPDEST STOP JUMPDEST CALLVALUE PUSH2 0x264 JUMPI PUSH1 0x20 CALLDATASIZE PUSH1 0x3 NOT ADD SLT PUSH2 0x264 JUMPI PUSH1 0x4 CALLDATALOAD PUSH2 0x137F DUP2 PUSH2 0x253 JUMP JUMPDEST PUSH1 0x1 DUP1 PUSH1 0xA0 SHL SUB AND PUSH0 MSTORE PUSH1 0x16 PUSH1 0x20 MSTORE PUSH1 0x20 PUSH1 0x1 PUSH1 0x1 PUSH1 0x40 SHL SUB PUSH1 0x40 PUSH0 KECCAK256 SLOAD AND PUSH1 0x40 MLOAD SWAP1 DUP2 MSTORE RETURN JUMPDEST CALLVALUE PUSH2 0x264 JUMPI PUSH1 0x20 CALLDATASIZE PUSH1 0x3 NOT ADD SLT PUSH2 0x264 JUMPI PUSH2 0x13BF PUSH2 0x82E JUMP JUMPDEST PUSH1 0x29 SLOAD PUSH1 0x1 PUSH1 0x1 PUSH1 0xA0 SHL SUB AND CALLER EQ DUP1 ISZERO PUSH2 0x1423 JUMPI JUMPDEST ISZERO PUSH2 0x13ED JUMPI PUSH2 0x1360 SWAP1 PUSH1 0xFF DUP1 NOT PUSH1 0x27 SLOAD AND SWAP2 AND OR PUSH1 0x27 SSTORE JUMP JUMPDEST PUSH1 0x40 MLOAD PUSH3 0x461BCD PUSH1 0xE5 SHL DUP2 MSTORE PUSH1 0x20 PUSH1 0x4 DUP3 ADD MSTORE PUSH1 0xE PUSH1 0x24 DUP3 ADD MSTORE PUSH14 0x4F6E6C7920656D657267656E6379 PUSH1 0x90 SHL PUSH1 0x44 DUP3 ADD MSTORE PUSH1 0x64 SWAP1 REVERT JUMPDEST POP PUSH1 0x28 SLOAD PUSH1 0x1 PUSH1 0x1 PUSH1 0xA0 SHL SUB AND CALLER EQ PUSH2 0x13D4 JUMP JUMPDEST CALLVALUE PUSH2 0x264 JUMPI PUSH1 0x40 CALLDATASIZE PUSH1 0x3 NOT ADD SLT PUSH2 0x264 JUMPI PUSH1 0x4 CALLDATALOAD PUSH2 0x1454 DUP2 PUSH2 0x253 JUMP JUMPDEST PUSH1 0x24 CALLDATALOAD PUSH2 0xFFFF DUP2 AND SWAP2 DUP3 DUP3 SUB PUSH2 0x264 JUMPI PUSH1 0x12 DUP1 SLOAD PUSH1 0x1 PUSH1 0x1 PUSH1 0xA0 SHL SUB NOT AND PUSH1 0x1 PUSH1 0x1 PUSH1 0xA0 SHL SUB DUP4 AND OR SWAP1 SSTORE PUSH32 0x42BC0DCE68A76F2CB7882E7DA1060360603348EDE3C834D9239472D409103EF8 SWAP3 PUSH1 0x40 SWAP3 PUSH1 0x12 DUP1 SLOAD PUSH2 0xFFFF PUSH1 0xA0 SHL NOT AND PUSH1 0xA0 SWAP3 SWAP1 SWAP3 SHL PUSH2 0xFFFF PUSH1 0xA0 SHL AND SWAP2 SWAP1 SWAP2 OR SWAP1 SSTORE DUP3 MLOAD PUSH1 0x1 PUSH1 0x1 PUSH1 0xA0 SHL SUB SWAP1 SWAP3 AND DUP3 MSTORE PUSH1 0x20 DUP3 ADD MSTORE LOG1 STOP JUMPDEST PUSH1 0x60 CALLDATASIZE PUSH1 0x3 NOT ADD SLT PUSH2 0x264 JUMPI PUSH1 0x4 CALLDATALOAD PUSH1 0x1 PUSH1 0x1 PUSH1 0x40 SHL SUB DUP2 GT PUSH2 0x264 JUMPI PUSH2 0x1505 SWAP1 CALLDATASIZE SWAP1 PUSH1 0x4 ADD PUSH2 0x9E3 JUMP JUMPDEST PUSH1 0x44 CALLDATALOAD SWAP2 PUSH1 0x24 CALLDATALOAD PUSH2 0x1517 PUSH2 0xF2B PUSH2 0x3942 JUMP JUMPDEST PUSH2 0x151F PUSH2 0x3685 JUMP JUMPDEST SWAP1 PUSH1 0x1 PUSH1 0x1 PUSH1 0xA0 SHL SUB DUP3 AND ISZERO PUSH2 0x167E JUMPI JUMPDEST DUP4 ISZERO PUSH2 0x166F JUMPI SWAP3 PUSH2 0x154C PUSH1 0xA0 PUSH2 0x1546 DUP4 DUP7 PUSH2 0x406D JUMP JUMPDEST ADD PUSH2 0x40AA JUMP JUMPDEST ISZERO PUSH2 0x165A JUMPI PUSH2 0x1563 PUSH2 0x155E DUP3 DUP6 PUSH2 0x406D JUMP JUMPDEST PUSH2 0x23C4 JUMP JUMPDEST SWAP3 JUMPDEST PUSH2 0x157D PUSH1 0xA0 PUSH2 0x1546 PUSH2 0x1576 DUP6 PUSH2 0x1D9A JUMP JUMPDEST DUP6 DUP6 PUSH2 0x4088 JUMP JUMPDEST ISZERO PUSH2 0x163D JUMPI PUSH2 0x1599 PUSH1 0x20 PUSH2 0x1593 PUSH2 0x1576 DUP6 PUSH2 0x1D9A JUMP JUMPDEST ADD PUSH2 0x23C4 JUMP JUMPDEST SWAP2 SWAP1 JUMPDEST PUSH0 SWAP2 JUMPDEST DUP1 DUP4 LT PUSH2 0x15FD JUMPI POP POP POP PUSH2 0x15B6 PUSH2 0x7C5 DUP4 ADDRESS PUSH2 0x4169 JUMP JUMPDEST PUSH2 0x15EA JUMPI JUMPDEST POP POP POP DUP2 DUP2 LT PUSH2 0x15D2 JUMPI PUSH2 0x3E7 SWAP1 PUSH0 PUSH2 0x10D3 PUSH2 0x3942 JUMP JUMPDEST PUSH4 0xD438755D PUSH1 0xE0 SHL PUSH0 MSTORE PUSH1 0x4 SWAP2 SWAP1 SWAP2 MSTORE PUSH1 0x24 MSTORE PUSH1 0x44 PUSH0 REVERT JUMPDEST PUSH2 0x15F5 SWAP3 CALLVALUE SWAP3 PUSH2 0x464D JUMP JUMPDEST PUSH0 DUP1 DUP1 PUSH2 0x15BB JUMP JUMPDEST SWAP1 SWAP2 SWAP6 PUSH2 0x162F PUSH1 0x1 SWAP2 DUP7 PUSH2 0x1612 DUP11 DUP7 DUP9 PUSH2 0x4088 JUMP JUMPDEST SWAP2 DUP11 ISZERO PUSH2 0x161E DUP8 PUSH2 0x1D9A JUMP JUMPDEST DUP13 EQ SWAP2 DUP2 ISZERO PUSH2 0x1638 JUMPI JUMPDEST ADDRESS SWAP5 PUSH2 0x47D1 JUMP JUMPDEST SWAP7 ADD SWAP2 SWAP1 PUSH2 0x159F JUMP JUMPDEST PUSH2 0x1628 JUMP JUMPDEST PUSH2 0x1653 PUSH2 0x155E PUSH2 0x164C DUP5 PUSH2 0x1D9A JUMP JUMPDEST DUP5 DUP5 PUSH2 0x4088 JUMP JUMPDEST SWAP2 SWAP1 PUSH2 0x159C JUMP JUMPDEST PUSH2 0x1669 PUSH1 0x20 PUSH2 0x1593 DUP4 DUP7 PUSH2 0x406D JUMP JUMPDEST SWAP3 PUSH2 0x1565 JUMP JUMPDEST PUSH4 0x145DBB45 PUSH1 0xE2 SHL PUSH0 MSTORE PUSH1 0x4 PUSH0 REVERT JUMPDEST CALLER SWAP2 POP PUSH2 0x1530 JUMP JUMPDEST PUSH1 0x60 PUSH1 0x3 NOT DUP3 ADD SLT PUSH2 0x264 JUMPI PUSH1 0x4 CALLDATALOAD SWAP1 PUSH1 0x1 PUSH1 0x1 PUSH1 0x40 SHL SUB DUP3 GT PUSH2 0x264 JUMPI PUSH2 0x16B0 SWAP2 PUSH1 0x4 ADD PUSH2 0x58C JUMP JUMPDEST SWAP1 PUSH1 0x24 CALLDATALOAD PUSH2 0x16BD DUP2 PUSH2 0x63B JUMP JUMPDEST SWAP1 PUSH1 0x44 CALLDATALOAD PUSH2 0x4F1 DUP2 PUSH2 0x63B JUMP JUMPDEST CALLVALUE PUSH2 0x264 JUMPI PUSH2 0x6AA PUSH2 0x16DB CALLDATASIZE PUSH2 0x1686 JUMP JUMPDEST SWAP2 PUSH2 0x2662 JUMP JUMPDEST CALLVALUE PUSH2 0x264 JUMPI PUSH1 0x20 CALLDATASIZE PUSH1 0x3 NOT ADD SLT PUSH2 0x264 JUMPI PUSH1 0x4 CALLDATALOAD PUSH0 MSTORE PUSH1 0xF PUSH1 0x20 MSTORE PUSH1 0x20 PUSH1 0x40 PUSH0 KECCAK256 SLOAD PUSH1 0x40 MLOAD SWAP1 DUP2 MSTORE RETURN JUMPDEST PUSH1 0x40 SWAP1 PUSH1 0x3 NOT ADD SLT PUSH2 0x264 JUMPI PUSH1 0x4 CALLDATALOAD PUSH2 0x1723 DUP2 PUSH2 0x253 JUMP JUMPDEST SWAP1 PUSH1 0x24 CALLDATALOAD PUSH2 0x4F1 DUP2 PUSH2 0x253 JUMP JUMPDEST CALLVALUE PUSH2 0x264 JUMPI PUSH1 0x20 PUSH1 0xFF PUSH2 0x176C PUSH2 0x1745 CALLDATASIZE PUSH2 0x170B JUMP JUMPDEST PUSH1 0x1 PUSH1 0x1 PUSH1 0xA0 SHL SUB SWAP2 DUP3 AND PUSH0 SWAP1 DUP2 MSTORE DUP1 DUP7 MSTORE PUSH1 0x40 DUP1 DUP3 KECCAK256 SWAP3 SWAP1 SWAP4 AND DUP2 MSTORE PUSH1 0x20 SWAP2 SWAP1 SWAP2 MSTORE KECCAK256 SWAP1 JUMP JUMPDEST SLOAD AND PUSH1 0x40 MLOAD SWAP1 ISZERO ISZERO DUP2 MSTORE RETURN JUMPDEST SWAP1 DUP1 PUSH1 0x1F DUP4 ADD SLT ISZERO PUSH2 0x264 JUMPI DUP2 CALLDATALOAD PUSH2 0x178F DUP2 PUSH2 0x473 JUMP JUMPDEST SWAP3 PUSH2 0x179D PUSH1 0x40 MLOAD SWAP5 DUP6 PUSH2 0x424 JUMP JUMPDEST DUP2 DUP5 MSTORE PUSH1 0x20 DUP1 DUP6 ADD SWAP3 PUSH1 0x5 SHL DUP3 ADD ADD SWAP3 DUP4 GT PUSH2 0x264 JUMPI PUSH1 0x20 ADD SWAP1 JUMPDEST DUP3 DUP3 LT PUSH2 0x17C5 JUMPI POP POP POP SWAP1 JUMP JUMPDEST PUSH1 0x20 DUP1 SWAP2 DUP4 CALLDATALOAD PUSH2 0x17D4 DUP2 PUSH2 0x63B JUMP JUMPDEST DUP2 MSTORE ADD SWAP2 ADD SWAP1 PUSH2 0x17B8 JUMP JUMPDEST SWAP1 PUSH1 0x20 DUP1 DUP4 MLOAD SWAP3 DUP4 DUP2 MSTORE ADD SWAP3 ADD SWAP1 PUSH0 JUMPDEST DUP2 DUP2 LT PUSH2 0x17FC JUMPI POP POP POP SWAP1 JUMP JUMPDEST DUP3 MLOAD DUP5 MSTORE PUSH1 0x20 SWAP4 DUP5 ADD SWAP4 SWAP1 SWAP3 ADD SWAP2 PUSH1 0x1 ADD PUSH2 0x17EF JUMP JUMPDEST SWAP1 SWAP2 PUSH2 0x1829 PUSH2 0x4F1 SWAP4 PUSH1 0x40 DUP5 MSTORE PUSH1 0x40 DUP5 ADD SWAP1 PUSH2 0x17DF JUMP JUMPDEST SWAP2 PUSH1 0x20 DUP2 DUP5 SUB SWAP2 ADD MSTORE PUSH2 0x17DF JUMP JUMPDEST CALLVALUE PUSH2 0x264 JUMPI PUSH1 0x60 CALLDATASIZE PUSH1 0x3 NOT ADD SLT PUSH2 0x264 JUMPI PUSH1 0x4 CALLDATALOAD PUSH1 0x1 PUSH1 0x1 PUSH1 0x40 SHL SUB DUP2 GT PUSH2 0x264 JUMPI PUSH2 0x1867 SWAP1 CALLDATASIZE SWAP1 PUSH1 0x4 ADD PUSH2 0x58C JUMP JUMPDEST PUSH1 0x24 CALLDATALOAD PUSH1 0x1 PUSH1 0x1 PUSH1 0x40 SHL SUB DUP2 GT PUSH2 0x264 JUMPI PUSH2 0x1886 SWAP1 CALLDATASIZE SWAP1 PUSH1 0x4 ADD PUSH2 0x1778 JUMP JUMPDEST SWAP1 PUSH1 0x44 CALLDATALOAD SWAP2 PUSH1 0x1 PUSH1 0x1 PUSH1 0x40 SHL SUB DUP4 GT PUSH2 0x264 JUMPI PUSH2 0x18AA PUSH2 0x18B0 SWAP4 CALLDATASIZE SWAP1 PUSH1 0x4 ADD PUSH2 0x1778 JUMP JUMPDEST SWAP2 PUSH2 0x2BD4 JUMP JUMPDEST SWAP1 PUSH2 0x3E7 PUSH1 0x40 MLOAD SWAP3 DUP4 SWAP3 DUP4 PUSH2 0x1812 JUMP JUMPDEST CALLVALUE PUSH2 0x264 JUMPI PUSH1 0x80 CALLDATASIZE PUSH1 0x3 NOT ADD SLT PUSH2 0x264 JUMPI PUSH1 0x4 CALLDATALOAD PUSH1 0x1 PUSH1 0x1 PUSH1 0x40 SHL SUB DUP2 GT PUSH2 0x264 JUMPI PUSH2 0x18F0 SWAP1 CALLDATASIZE SWAP1 PUSH1 0x4 ADD PUSH2 0x58C JUMP JUMPDEST PUSH1 0x24 CALLDATALOAD PUSH1 0x1 PUSH1 0x1 PUSH1 0x40 SHL SUB DUP2 GT PUSH2 0x264 JUMPI PUSH2 0x190F SWAP1 CALLDATASIZE SWAP1 PUSH1 0x4 ADD PUSH2 0x1778 JUMP JUMPDEST SWAP1 PUSH1 0x44 CALLDATALOAD SWAP2 PUSH1 0x1 PUSH1 0x1 PUSH1 0x40 SHL SUB DUP4 GT PUSH2 0x264 JUMPI PUSH2 0x1933 PUSH2 0x18B0 SWAP4 CALLDATASIZE SWAP1 PUSH1 0x4 ADD PUSH2 0x1778 JUMP JUMPDEST SWAP1 PUSH1 0x64 CALLDATALOAD SWAP3 PUSH2 0x1941 DUP5 PUSH2 0x253 JUMP JUMPDEST PUSH2 0x2FF8 JUMP JUMPDEST PUSH1 0xE0 CALLDATASIZE PUSH1 0x3 NOT ADD SLT PUSH2 0x264 JUMPI PUSH2 0x19BC PUSH1 0x4 CALLDATALOAD PUSH2 0x1961 DUP2 PUSH2 0x253 JUMP JUMPDEST PUSH1 0x24 CALLDATALOAD PUSH2 0x196D DUP2 PUSH2 0x253 JUMP JUMPDEST PUSH1 0x44 CALLDATALOAD PUSH2 0x1979 DUP2 PUSH2 0x253 JUMP JUMPDEST PUSH1 0x64 CALLDATALOAD PUSH2 0x1985 DUP2 PUSH2 0x509 JUMP JUMPDEST PUSH1 0x84 CALLDATALOAD SWAP1 PUSH1 0xA4 CALLDATALOAD SWAP3 PUSH2 0x1996 DUP5 PUSH2 0x4F4 JUMP JUMPDEST PUSH1 0xC4 CALLDATALOAD SWAP5 PUSH2 0x19A5 PUSH2 0xF2B PUSH2 0x3942 JUMP JUMPDEST PUSH1 0x40 MLOAD SWAP7 PUSH2 0x19B4 PUSH1 0x20 DUP10 PUSH2 0x424 JUMP JUMPDEST PUSH0 DUP9 MSTORE PUSH2 0x3B3D JUMP JUMPDEST PUSH0 PUSH2 0x19C5 PUSH2 0x3942 JUMP JUMPDEST TSTORE PUSH1 0x40 MLOAD SWAP1 DUP2 MSTORE PUSH1 0x20 SWAP1 RETURN JUMPDEST CALLVALUE PUSH2 0x264 JUMPI PUSH2 0x19DF CALLDATASIZE PUSH2 0x170B JUMP JUMPDEST PUSH1 0x28 SLOAD PUSH2 0x19F5 SWAP1 PUSH1 0x1 PUSH1 0x1 PUSH1 0xA0 SHL SUB AND ISZERO PUSH2 0x23CE JUMP JUMPDEST PUSH1 0x1 PUSH1 0x1 PUSH1 0xA0 SHL SUB DUP3 AND ISZERO ISZERO DUP1 PUSH2 0x1A86 JUMPI JUMPDEST ISZERO PUSH2 0x1A4D JUMPI PUSH2 0x1A30 PUSH2 0x1360 SWAP3 PUSH1 0x1 DUP1 PUSH1 0xA0 SHL SUB AND PUSH1 0x1 PUSH1 0x1 PUSH1 0x60 SHL SUB PUSH1 0xA0 SHL PUSH1 0x28 SLOAD AND OR PUSH1 0x28 SSTORE JUMP JUMPDEST PUSH1 0x1 DUP1 PUSH1 0xA0 SHL SUB AND PUSH1 0x1 PUSH1 0x1 PUSH1 0x60 SHL SUB PUSH1 0xA0 SHL PUSH1 0x29 SLOAD AND OR PUSH1 0x29 SSTORE JUMP JUMPDEST PUSH1 0x40 MLOAD PUSH3 0x461BCD PUSH1 0xE5 SHL DUP2 MSTORE PUSH1 0x20 PUSH1 0x4 DUP3 ADD MSTORE PUSH1 0x11 PUSH1 0x24 DUP3 ADD MSTORE PUSH17 0x496E76616C696420616464726573736573 PUSH1 0x78 SHL PUSH1 0x44 DUP3 ADD MSTORE PUSH1 0x64 SWAP1 REVERT JUMPDEST POP PUSH1 0x1 PUSH1 0x1 PUSH1 0xA0 SHL SUB DUP2 AND ISZERO ISZERO PUSH2 0x1A07 JUMP JUMPDEST PUSH4 0x4E487B71 PUSH1 0xE0 SHL PUSH0 MSTORE PUSH1 0x32 PUSH1 0x4 MSTORE PUSH1 0x24 PUSH0 REVERT JUMPDEST PUSH1 0xC DUP2 LT ISZERO PUSH2 0x8D4 JUMPI PUSH1 0x3 ADD SWAP1 PUSH0 SWAP1 JUMP JUMPDEST CALLVALUE PUSH2 0x264 JUMPI PUSH1 0x20 CALLDATASIZE PUSH1 0x3 NOT ADD SLT PUSH2 0x264 JUMPI PUSH1 0x4 CALLDATALOAD PUSH1 0xC DUP2 LT ISZERO PUSH2 0x264 JUMPI PUSH1 0x3 ADD SLOAD PUSH1 0x40 MLOAD PUSH1 0x1 PUSH1 0x1 PUSH1 0xA0 SHL SUB SWAP1 SWAP2 AND DUP2 MSTORE PUSH1 0x20 SWAP1 RETURN JUMPDEST PUSH1 0x1 PUSH1 0x1 PUSH1 0x40 SHL SUB DUP2 GT PUSH2 0x41F JUMPI PUSH1 0x1F ADD PUSH1 0x1F NOT AND PUSH1 0x20 ADD SWAP1 JUMP JUMPDEST DUP1 MLOAD DUP1 DUP4 MSTORE PUSH1 0x20 SWAP3 SWAP2 DUP2 SWAP1 DUP5 ADD DUP5 DUP5 ADD MCOPY PUSH0 DUP3 DUP3 ADD DUP5 ADD MSTORE PUSH1 0x1F ADD PUSH1 0x1F NOT AND ADD ADD SWAP1 JUMP JUMPDEST SWAP1 SWAP2 PUSH2 0x1B49 PUSH2 0x4F1 SWAP4 PUSH1 0x40 DUP5 MSTORE PUSH1 0x40 DUP5 ADD SWAP1 PUSH2 0x1B0E JUMP JUMPDEST SWAP2 PUSH1 0x20 DUP2 DUP5 SUB SWAP2 ADD MSTORE PUSH2 0x1B0E JUMP JUMPDEST CALLVALUE PUSH2 0x264 JUMPI PUSH1 0x20 CALLDATASIZE PUSH1 0x3 NOT ADD SLT PUSH2 0x264 JUMPI PUSH1 0x4 CALLDATALOAD PUSH1 0x1 PUSH1 0x1 PUSH1 0x40 SHL SUB DUP2 GT PUSH2 0x264 JUMPI CALLDATASIZE PUSH1 0x23 DUP3 ADD SLT ISZERO PUSH2 0x264 JUMPI DUP1 PUSH1 0x4 ADD CALLDATALOAD PUSH2 0x1B92 DUP2 PUSH2 0x1AF3 JUMP JUMPDEST SWAP1 PUSH2 0x1BA0 PUSH1 0x40 MLOAD SWAP3 DUP4 PUSH2 0x424 JUMP JUMPDEST DUP1 DUP3 MSTORE CALLDATASIZE PUSH1 0x24 DUP3 DUP6 ADD ADD GT PUSH2 0x264 JUMPI PUSH1 0x20 DUP2 PUSH0 SWAP3 PUSH1 0x24 PUSH2 0x1BC8 SWAP7 ADD DUP4 DUP7 ADD CALLDATACOPY DUP4 ADD ADD MSTORE PUSH2 0x33DE JUMP JUMPDEST SWAP1 PUSH2 0x3E7 PUSH1 0x40 MLOAD SWAP3 DUP4 SWAP3 DUP4 PUSH2 0x1B32 JUMP JUMPDEST CALLVALUE PUSH2 0x264 JUMPI PUSH1 0x80 CALLDATASIZE PUSH1 0x3 NOT ADD SLT PUSH2 0x264 JUMPI PUSH1 0x4 CALLDATALOAD PUSH2 0x1BF5 DUP2 PUSH2 0x253 JUMP JUMPDEST PUSH1 0x24 CALLDATALOAD PUSH2 0x1C01 DUP2 PUSH2 0x253 JUMP JUMPDEST PUSH1 0x44 CALLDATALOAD SWAP2 PUSH0 MLOAD PUSH1 0x20 PUSH2 0x51C4 PUSH0 CODECOPY PUSH0 MLOAD SWAP1 PUSH0 MSTORE PUSH2 0x3D7 PUSH1 0x64 CALLDATALOAD SWAP4 PUSH1 0x1 PUSH1 0x1 PUSH1 0xA0 SHL SUB DUP5 AND SWAP4 PUSH2 0x1C63 SWAP1 DUP8 SWAP1 PUSH2 0x1C56 SWAP1 CALLER DUP9 EQ ISZERO DUP1 PUSH2 0x1D52 JUMPI JUMPDEST PUSH2 0x1CC2 JUMPI PUSH1 0x1 PUSH1 0x1 PUSH1 0xA0 SHL SUB AND PUSH0 SWAP1 DUP2 MSTORE PUSH1 0x1 PUSH1 0x20 MSTORE PUSH1 0x40 SWAP1 KECCAK256 SWAP1 JUMP JUMPDEST SWAP1 PUSH0 MSTORE PUSH1 0x20 MSTORE PUSH1 0x40 PUSH0 KECCAK256 SWAP1 JUMP JUMPDEST PUSH2 0x1C6E DUP7 DUP3 SLOAD PUSH2 0x1DA8 JUMP JUMPDEST SWAP1 SSTORE PUSH1 0x1 PUSH1 0x1 PUSH1 0xA0 SHL SUB DUP2 AND PUSH0 SWAP1 DUP2 MSTORE PUSH1 0x1 PUSH1 0x20 MSTORE PUSH1 0x40 SWAP1 KECCAK256 PUSH2 0x1C92 SWAP1 DUP8 SWAP1 PUSH2 0x1C56 JUMP JUMPDEST PUSH2 0x1C9D DUP7 DUP3 SLOAD PUSH2 0x1DB5 JUMP JUMPDEST SWAP1 SSTORE PUSH1 0x40 DUP1 MLOAD CALLER DUP2 MSTORE PUSH1 0x20 DUP2 ADD SWAP7 SWAP1 SWAP7 MSTORE PUSH1 0x1 PUSH1 0x1 PUSH1 0xA0 SHL SUB SWAP1 SWAP2 AND SWAP5 SWAP2 DUP3 SWAP2 DUP3 ADD SWAP1 JUMP JUMPDEST PUSH2 0x1CF9 DUP4 PUSH2 0x1C56 CALLER PUSH2 0x1CE4 DUP6 PUSH1 0x1 DUP1 PUSH1 0xA0 SHL SUB AND PUSH0 MSTORE PUSH1 0x2 PUSH1 0x20 MSTORE PUSH1 0x40 PUSH0 KECCAK256 SWAP1 JUMP JUMPDEST SWAP1 PUSH1 0x1 DUP1 PUSH1 0xA0 SHL SUB AND PUSH0 MSTORE PUSH1 0x20 MSTORE PUSH1 0x40 PUSH0 KECCAK256 SWAP1 JUMP JUMPDEST SLOAD DUP10 PUSH1 0x1 DUP3 ADD PUSH2 0x1D1F JUMPI JUMPDEST POP POP PUSH1 0x1 PUSH1 0x1 PUSH1 0xA0 SHL SUB AND PUSH0 SWAP1 DUP2 MSTORE PUSH1 0x1 PUSH1 0x20 MSTORE PUSH1 0x40 SWAP1 KECCAK256 SWAP1 JUMP JUMPDEST PUSH2 0x1D28 SWAP2 PUSH2 0x1DA8 JUMP JUMPDEST PUSH2 0x1D4A DUP5 PUSH2 0x1C56 CALLER PUSH2 0x1CE4 DUP7 PUSH1 0x1 DUP1 PUSH1 0xA0 SHL SUB AND PUSH0 MSTORE PUSH1 0x2 PUSH1 0x20 MSTORE PUSH1 0x40 PUSH0 KECCAK256 SWAP1 JUMP JUMPDEST SSTORE PUSH0 DUP10 PUSH2 0x1D04 JUMP JUMPDEST POP PUSH2 0x1D81 PUSH2 0x1D7D PUSH2 0x1D76 CALLER PUSH2 0x1CE4 DUP6 PUSH1 0x1 DUP1 PUSH1 0xA0 SHL SUB AND PUSH0 MSTORE PUSH0 PUSH1 0x20 MSTORE PUSH1 0x40 PUSH0 KECCAK256 SWAP1 JUMP JUMPDEST SLOAD PUSH1 0xFF AND SWAP1 JUMP JUMPDEST ISZERO SWAP1 JUMP JUMPDEST PUSH2 0x1C39 JUMP JUMPDEST PUSH4 0x4E487B71 PUSH1 0xE0 SHL PUSH0 MSTORE PUSH1 0x11 PUSH1 0x4 MSTORE PUSH1 0x24 PUSH0 REVERT JUMPDEST PUSH0 NOT DUP2 ADD SWAP2 SWAP1 DUP3 GT PUSH2 0x3EB JUMPI JUMP JUMPDEST SWAP2 SWAP1 DUP3 SUB SWAP2 DUP3 GT PUSH2 0x3EB JUMPI JUMP JUMPDEST SWAP2 SWAP1 DUP3 ADD DUP1 SWAP3 GT PUSH2 0x3EB JUMPI JUMP JUMPDEST DUP1 MLOAD ISZERO PUSH2 0x8D4 JUMPI PUSH1 0x20 ADD SWAP1 JUMP JUMPDEST DUP1 MLOAD PUSH1 0x1 LT ISZERO PUSH2 0x8D4 JUMPI PUSH1 0x40 ADD SWAP1 JUMP JUMPDEST DUP1 MLOAD DUP3 LT ISZERO PUSH2 0x8D4 JUMPI PUSH1 0x20 SWAP2 PUSH1 0x5 SHL ADD ADD SWAP1 JUMP JUMPDEST SWAP2 SWAP1 SWAP2 PUSH1 0xC0 DUP1 PUSH1 0xE0 DUP4 ADD SWAP5 PUSH1 0x1 DUP1 PUSH1 0xA0 SHL SUB DUP2 MLOAD AND DUP5 MSTORE PUSH1 0x1 DUP1 PUSH1 0xA0 SHL SUB PUSH1 0x20 DUP3 ADD MLOAD AND PUSH1 0x20 DUP6 ADD MSTORE PUSH1 0x40 DUP2 ADD MLOAD PUSH1 0x40 DUP6 ADD MSTORE PUSH1 0x60 DUP2 ADD MLOAD PUSH1 0x60 DUP6 ADD MSTORE PUSH1 0x80 DUP2 ADD MLOAD PUSH1 0x80 DUP6 ADD MSTORE PUSH1 0xA0 DUP2 ADD MLOAD PUSH1 0xA0 DUP6 ADD MSTORE ADD MLOAD ISZERO ISZERO SWAP2 ADD MSTORE JUMP JUMPDEST PUSH1 0x40 MLOAD SWAP1 PUSH2 0x1E5C PUSH1 0x20 DUP4 PUSH2 0x424 JUMP JUMPDEST PUSH0 DUP3 MSTORE JUMP JUMPDEST SWAP4 SWAP1 PUSH2 0x4F1 SWAP6 SWAP4 PUSH2 0x1E92 PUSH2 0x1EAE SWAP5 PUSH2 0x1E84 PUSH2 0x1EA0 SWAP5 PUSH1 0xA0 DUP11 MSTORE PUSH1 0xA0 DUP11 ADD SWAP1 PUSH2 0x1B0E JUMP JUMPDEST SWAP1 DUP9 DUP3 SUB PUSH1 0x20 DUP11 ADD MSTORE PUSH2 0x1B0E JUMP JUMPDEST SWAP1 DUP7 DUP3 SUB PUSH1 0x40 DUP9 ADD MSTORE PUSH2 0x1B0E JUMP JUMPDEST SWAP1 DUP5 DUP3 SUB PUSH1 0x60 DUP7 ADD MSTORE PUSH2 0x1B0E JUMP JUMPDEST SWAP2 PUSH1 0x80 DUP2 DUP5 SUB SWAP2 ADD MSTORE PUSH2 0x1B0E JUMP JUMPDEST SWAP1 DUP2 PUSH1 0x20 SWAP2 SUB SLT PUSH2 0x264 JUMPI MLOAD SWAP1 JUMP JUMPDEST DUP1 MLOAD PUSH1 0x1 PUSH1 0x1 PUSH1 0xA0 SHL SUB SWAP1 DUP2 AND DUP4 MSTORE PUSH1 0x20 DUP1 DUP4 ADD MLOAD DUP3 AND SWAP1 DUP5 ADD MSTORE PUSH1 0x40 DUP1 DUP4 ADD MLOAD SWAP1 SWAP2 AND SWAP1 DUP4 ADD MSTORE PUSH2 0x273 SWAP2 SWAP1 PUSH2 0x100 SWAP1 DUP2 SWAP1 PUSH1 0x60 DUP2 ADD MLOAD PUSH1 0x60 DUP6 ADD MSTORE PUSH2 0x1F22 PUSH1 0x80 DUP3 ADD MLOAD PUSH1 0x80 DUP7 ADD SWAP1 PUSH1 0x1 PUSH1 0x1 PUSH1 0x80 SHL SUB AND SWAP1 MSTORE JUMP JUMPDEST PUSH1 0xA0 DUP2 DUP2 ADD MLOAD PUSH1 0x1 PUSH1 0x1 PUSH1 0x80 SHL SUB AND SWAP1 DUP6 ADD MSTORE PUSH1 0xC0 DUP2 DUP2 ADD MLOAD PUSH2 0xFFFF AND SWAP1 DUP6 ADD MSTORE PUSH1 0xE0 DUP2 DUP2 ADD MLOAD ISZERO ISZERO SWAP1 DUP6 ADD MSTORE ADD MLOAD PUSH1 0xFF AND SWAP2 ADD MSTORE JUMP JUMPDEST DUP1 PUSH2 0x1F6B PUSH2 0x140 SWAP3 PUSH2 0x4F1 SWAP6 SWAP5 PUSH2 0x1ECB JUMP JUMPDEST DUP2 PUSH2 0x120 DUP3 ADD MSTORE ADD SWAP1 PUSH2 0x1B0E JUMP JUMPDEST PUSH1 0x40 MLOAD RETURNDATASIZE PUSH0 DUP3 RETURNDATACOPY RETURNDATASIZE SWAP1 REVERT JUMPDEST SWAP4 SWAP3 SWAP4 PUSH1 0xA0 DUP2 ADD SWAP5 PUSH1 0x1 PUSH1 0xE8 SHL PUSH2 0x1FAC PUSH2 0x1F9E DUP9 MLOAD PUSH2 0x1DC2 JUMP JUMPDEST MLOAD PUSH1 0x1 PUSH1 0x1 PUSH1 0xE8 SHL SUB NOT AND SWAP1 JUMP JUMPDEST AND PUSH2 0x1FC1 JUMPI POP PUSH2 0x1FBD SWAP4 SWAP5 POP PUSH2 0x2662 JUMP JUMPDEST SWAP1 SWAP2 JUMP JUMPDEST DUP2 MLOAD SWAP2 SWAP3 SWAP1 SWAP2 PUSH1 0x1 PUSH1 0x1 PUSH1 0xA0 SHL SUB AND PUSH1 0x20 DUP5 ADD DUP1 MLOAD SWAP1 SWAP3 SWAP1 PUSH1 0x1 PUSH1 0x1 PUSH1 0xA0 SHL SUB AND PUSH1 0x40 DUP7 ADD DUP1 MLOAD SWAP1 SWAP4 SWAP2 SWAP1 PUSH1 0x1 PUSH1 0x1 PUSH1 0xA0 SHL SUB AND DUP11 MLOAD PUSH2 0x2000 SWAP1 PUSH2 0x1DC2 JUMP JUMPDEST MLOAD PUSH1 0x1 PUSH1 0x1 PUSH1 0xE8 SHL SUB NOT AND SWAP2 PUSH2 0x2015 SWAP4 PUSH2 0x3435 JUMP JUMPDEST SWAP8 MLOAD PUSH2 0x2020 SWAP1 PUSH2 0x1DC2 JUMP JUMPDEST MLOAD PUSH1 0x1 PUSH1 0x1 PUSH1 0xE8 SHL SUB NOT AND PUSH2 0x2034 SWAP1 PUSH2 0x34ED JUMP JUMPDEST SWAP5 GAS PUSH2 0x2040 DUP7 ADDRESS PUSH2 0x4169 JUMP JUMPDEST TLOAD SWAP1 PUSH2 0x204A PUSH2 0x445 JUMP JUMPDEST PUSH1 0x1 PUSH1 0x1 PUSH1 0xA0 SHL SUB SWAP1 SWAP8 AND DUP8 MSTORE ORIGIN PUSH1 0x20 DUP9 ADD MSTORE NUMBER PUSH1 0x40 DUP9 ADD MSTORE TIMESTAMP PUSH1 0x60 DUP9 ADD MSTORE GASPRICE PUSH1 0x80 DUP9 ADD MSTORE PUSH1 0xA0 DUP8 ADD MSTORE ISZERO ISZERO PUSH1 0xC0 DUP7 ADD MSTORE PUSH1 0x40 MLOAD DUP1 SWAP6 PUSH1 0x20 DUP3 ADD SWAP1 PUSH2 0x208E SWAP2 PUSH2 0x1DF3 JUMP JUMPDEST SUB PUSH1 0x1F NOT DUP2 ADD DUP7 MSTORE PUSH2 0x20A0 SWAP1 DUP7 PUSH2 0x424 JUMP JUMPDEST DUP1 MLOAD PUSH1 0x1 PUSH1 0x1 PUSH1 0xA0 SHL SUB AND SWAP4 MLOAD PUSH1 0x1 PUSH1 0x1 PUSH1 0xA0 SHL SUB AND SWAP3 MLOAD PUSH1 0x1 PUSH1 0x1 PUSH1 0xA0 SHL SUB AND SWAP7 PUSH1 0x60 DUP3 ADD MLOAD PUSH2 0x20D0 SWAP1 PUSH2 0x1DC2 JUMP JUMPDEST MLOAD SWAP3 PUSH1 0x80 DUP9 ADD MLOAD PUSH2 0x20E2 SWAP1 PUSH2 0xFFFF AND SWAP1 JUMP JUMPDEST PUSH1 0x80 SWAP1 SWAP4 ADD MLOAD ISZERO ISZERO SWAP4 PUSH2 0x20F4 DUP10 PUSH2 0x3597 JUMP JUMPDEST SWAP6 PUSH2 0x20FD PUSH2 0x463 JUMP JUMPDEST PUSH1 0x1 PUSH1 0x1 PUSH1 0xA0 SHL SUB SWAP1 SWAP9 AND DUP9 MSTORE PUSH1 0x1 PUSH1 0x1 PUSH1 0xA0 SHL SUB AND PUSH1 0x20 DUP9 ADD MSTORE PUSH1 0x1 PUSH1 0x1 PUSH1 0xA0 SHL SUB SWAP1 SWAP10 AND PUSH1 0x40 DUP8 ADD SWAP1 DUP2 MSTORE SWAP9 PUSH1 0x60 DUP8 ADD MSTORE PUSH1 0x1 PUSH1 0x1 PUSH1 0x80 SHL SUB AND PUSH1 0x80 DUP7 ADD MSTORE PUSH1 0x1 PUSH1 0x1 PUSH1 0x80 SHL SUB AND PUSH1 0xA0 DUP6 ADD MSTORE PUSH2 0xFFFF AND PUSH1 0xC0 DUP5 ADD MSTORE ISZERO ISZERO PUSH1 0xE0 DUP4 ADD MSTORE PUSH1 0xFF AND PUSH2 0x100 DUP3 ADD MSTORE PUSH2 0x216D PUSH2 0x1E4D JUMP JUMPDEST SWAP3 PUSH2 0x2176 PUSH2 0x1E4D JUMP JUMPDEST SWAP3 PUSH2 0x217F PUSH2 0x1E4D JUMP JUMPDEST PUSH2 0x2187 PUSH2 0x1E4D JUMP JUMPDEST SWAP3 MLOAD ISZERO ISZERO PUSH0 EQ SWAP7 PUSH2 0x2217 PUSH1 0x20 SWAP8 PUSH2 0x2209 PUSH2 0x2224 SWAP7 PUSH2 0x716 SWAP7 PUSH2 0x716 SWAP7 PUSH2 0x2242 SWAP14 PUSH2 0x228A JUMPI PUSH2 0x21FB PUSH2 0x21D8 DUP13 PUSH32 0x0 PUSH2 0x35F3 JUMP JUMPDEST SWAP4 JUMPDEST PUSH2 0x21ED PUSH1 0x40 MLOAD SWAP5 PUSH1 0x20 SWAP3 DUP7 SWAP4 DUP5 ADD PUSH2 0x1B32 JUMP JUMPDEST SUB PUSH1 0x1F NOT DUP2 ADD DUP5 MSTORE DUP4 PUSH2 0x424 JUMP JUMPDEST PUSH1 0x40 MLOAD SWAP12 DUP13 SWAP6 DUP15 DUP8 ADD PUSH2 0x1E61 JUMP JUMPDEST SUB PUSH1 0x1F NOT DUP2 ADD DUP9 MSTORE DUP8 PUSH2 0x424 JUMP JUMPDEST MLOAD PUSH1 0x1 PUSH1 0x1 PUSH1 0xA0 SHL SUB AND SWAP1 JUMP JUMPDEST SWAP1 PUSH0 PUSH1 0x40 MLOAD DUP1 SWAP7 DUP2 SWAP6 DUP3 SWAP5 PUSH4 0xABFEBFD1 PUSH1 0xE0 SHL DUP5 MSTORE PUSH1 0x4 DUP5 ADD PUSH2 0x1F59 JUMP JUMPDEST SUB SWAP3 GAS CALL SWAP1 DUP2 ISZERO PUSH2 0x2285 JUMPI PUSH0 SWAP2 PUSH2 0x2258 JUMPI POP SWAP2 SWAP1 JUMP JUMPDEST PUSH2 0x227A SWAP2 POP PUSH1 0x20 RETURNDATASIZE PUSH1 0x20 GT PUSH2 0x227E JUMPI JUMPDEST PUSH2 0x2272 DUP2 DUP4 PUSH2 0x424 JUMP JUMPDEST DUP2 ADD SWAP1 PUSH2 0x1EBC JUMP JUMPDEST SWAP2 SWAP1 JUMP JUMPDEST POP RETURNDATASIZE PUSH2 0x2268 JUMP JUMPDEST PUSH2 0x1F79 JUMP JUMPDEST PUSH2 0x21FB PUSH2 0x2295 PUSH2 0x1E4D JUMP JUMPDEST SWAP4 PUSH2 0x21DA JUMP JUMPDEST ISZERO PUSH2 0x22A2 JUMPI JUMP JUMPDEST PUSH1 0x40 MLOAD PUSH3 0x461BCD PUSH1 0xE5 SHL DUP2 MSTORE PUSH1 0x20 PUSH1 0x4 DUP3 ADD MSTORE PUSH1 0x15 PUSH1 0x24 DUP3 ADD MSTORE PUSH21 0x27B7363C902634B8BAB4B234BA3CA6B0B730B3B2B9 PUSH1 0x59 SHL PUSH1 0x44 DUP3 ADD MSTORE PUSH1 0x64 SWAP1 REVERT JUMPDEST PUSH1 0xF SIGNEXTEND PUSH16 0x7FFFFFFFFFFFFFFFFFFFFFFFFFFFFFFF NOT DUP2 EQ PUSH2 0x3EB JUMPI PUSH0 SUB SWAP1 JUMP JUMPDEST PUSH1 0x40 MLOAD PUSH1 0x60 SWAP2 SWAP1 PUSH2 0x2310 DUP4 DUP3 PUSH2 0x424 JUMP JUMPDEST PUSH1 0x2 DUP2 MSTORE SWAP2 PUSH1 0x1F NOT ADD CALLDATASIZE PUSH1 0x20 DUP5 ADD CALLDATACOPY JUMP JUMPDEST ISZERO PUSH2 0x2328 JUMPI JUMP JUMPDEST PUSH1 0x40 MLOAD PUSH3 0x461BCD PUSH1 0xE5 SHL DUP2 MSTORE PUSH1 0x20 PUSH1 0x4 DUP3 ADD MSTORE PUSH1 0xD PUSH1 0x24 DUP3 ADD MSTORE PUSH13 0x13DB9B1E481C1C9BDD1BD8DBDB PUSH1 0x9A SHL PUSH1 0x44 DUP3 ADD MSTORE PUSH1 0x64 SWAP1 REVERT JUMPDEST ISZERO PUSH2 0x2364 JUMPI JUMP JUMPDEST PUSH1 0x40 MLOAD PUSH3 0x461BCD PUSH1 0xE5 SHL DUP2 MSTORE PUSH1 0x20 PUSH1 0x4 DUP3 ADD MSTORE PUSH1 0xC PUSH1 0x24 DUP3 ADD MSTORE PUSH12 0x125B9D985B1A59081CDB1BDD PUSH1 0xA2 SHL PUSH1 0x44 DUP3 ADD MSTORE PUSH1 0x64 SWAP1 REVERT JUMPDEST PUSH1 0xFF PUSH1 0x3 NOT SWAP2 AND ADD SWAP1 PUSH1 0xFF DUP3 GT PUSH2 0x3EB JUMPI JUMP JUMPDEST SWAP1 ISZERO PUSH2 0x8D4 JUMPI SWAP1 JUMP JUMPDEST SWAP2 SWAP1 DUP2 LT ISZERO PUSH2 0x8D4 JUMPI PUSH1 0x5 SHL ADD SWAP1 JUMP JUMPDEST CALLDATALOAD PUSH2 0x4F1 DUP2 PUSH2 0x253 JUMP JUMPDEST ISZERO PUSH2 0x23D5 JUMPI JUMP JUMPDEST PUSH1 0x40 MLOAD PUSH3 0x461BCD PUSH1 0xE5 SHL DUP2 MSTORE PUSH1 0x20 PUSH1 0x4 DUP3 ADD MSTORE PUSH1 0xB PUSH1 0x24 DUP3 ADD MSTORE PUSH11 0x105B1C9958591E481CD95D PUSH1 0xAA SHL PUSH1 0x44 DUP3 ADD MSTORE PUSH1 0x64 SWAP1 REVERT JUMPDEST PUSH1 0x1 PUSH1 0xFF SHL DUP2 EQ PUSH2 0x3EB JUMPI PUSH0 SUB SWAP1 JUMP JUMPDEST SWAP7 PUSH2 0x24B2 SWAP1 PUSH2 0x24C1 SWAP10 PUSH2 0x242C PUSH2 0xF2B PUSH2 0x3942 JUMP JUMPDEST PUSH1 0x40 DUP1 MLOAD PUSH1 0x1 PUSH1 0x1 PUSH1 0xA0 SHL SUB DUP13 DUP2 AND PUSH1 0x20 DUP4 ADD SWAP1 DUP2 MSTORE DUP8 DUP3 AND SWAP4 DUP4 ADD SWAP4 SWAP1 SWAP4 MSTORE DUP8 AND PUSH1 0x60 DUP3 ADD MSTORE PUSH1 0x1 PUSH1 0x1 PUSH1 0xE8 SHL SUB NOT DUP9 AND PUSH1 0x80 DUP3 ADD MSTORE PUSH1 0xA0 DUP2 ADD DUP10 SWAP1 MSTORE DUP10 ISZERO ISZERO PUSH1 0xC0 DUP3 ADD MSTORE PUSH1 0xE0 DUP2 ADD DUP12 SWAP1 MSTORE PUSH1 0x1 PUSH1 0x1 PUSH1 0x40 SHL SUB DUP5 AND PUSH2 0x100 DUP3 ADD MSTORE CALLER PUSH2 0x120 DUP3 ADD MSTORE SWAP2 PUSH2 0x140 DUP4 ADD MSTORE PUSH2 0x140 DUP3 MSTORE PUSH2 0x24A8 PUSH2 0x160 DUP4 PUSH2 0x424 JUMP JUMPDEST CALLER SWAP2 MLOAD SWAP1 KECCAK256 PUSH2 0x39C8 JUMP JUMPDEST POP PUSH2 0x24BB PUSH2 0x1E4D JUMP JUMPDEST SWAP7 PUSH2 0x3B3D JUMP JUMPDEST SWAP1 PUSH0 PUSH2 0x24CB PUSH2 0x3942 JUMP JUMPDEST TSTORE JUMP JUMPDEST SWAP3 SWAP4 SWAP1 PUSH1 0x40 MLOAD PUSH1 0x20 DUP2 ADD SWAP1 PUSH32 0x626529A6BE7CB2FB96A7ED93849B4EF74C980495DFE61FD514C95DCD9DA51C35 DUP3 MSTORE ADDRESS PUSH1 0x60 SHL PUSH1 0x40 DUP3 ADD MSTORE PUSH32 0x88F108D443A200407DF3D92FC06ED196D7B48635560CC21C3B1819792E11C1A7 PUSH1 0x54 DUP3 ADD MSTORE PUSH1 0x54 DUP2 MSTORE PUSH2 0x253A PUSH1 0x74 DUP3 PUSH2 0x424 JUMP JUMPDEST MLOAD SWAP1 KECCAK256 SWAP4 PUSH2 0x2547 DUP6 PUSH2 0x3985 JUMP JUMPDEST PUSH1 0x1 PUSH2 0x2553 CALLER ADDRESS PUSH2 0x4169 JUMP JUMPDEST TSTORE PUSH2 0x255D CALLER PUSH2 0x3FD5 JUMP JUMPDEST PUSH1 0x1 PUSH1 0x1 PUSH1 0xA0 SHL SUB AND SWAP3 DUP4 EXTCODESIZE ISZERO PUSH2 0x264 JUMPI PUSH2 0x2591 SWAP4 PUSH0 SWAP3 DUP4 PUSH1 0x40 MLOAD DUP1 SWAP8 DUP2 SWAP6 DUP3 SWAP5 PUSH4 0x1C6E7247 PUSH1 0xE3 SHL DUP5 MSTORE PUSH1 0x4 DUP5 ADD PUSH2 0x25E5 JUMP JUMPDEST SUB SWAP3 GAS CALL DUP1 ISZERO PUSH2 0x2285 JUMPI PUSH0 SWAP5 PUSH2 0x25BA SWAP4 PUSH2 0x25B4 SWAP3 PUSH2 0x25CB JUMPI JUMPDEST POP CALLVALUE SWAP3 CALLDATASIZE SWAP2 PUSH2 0x260C JUMP JUMPDEST CALLER PUSH2 0x3851 JUMP JUMPDEST PUSH2 0x25C2 PUSH2 0x401E JUMP JUMPDEST PUSH2 0x24CB CALLER PUSH2 0x4062 JUMP JUMPDEST DUP1 PUSH2 0x25D9 DUP9 PUSH2 0x25DF SWAP4 PUSH2 0x424 JUMP JUMPDEST DUP1 PUSH2 0xB01 JUMP JUMPDEST PUSH0 PUSH2 0x25AA JUMP JUMPDEST SWAP1 SWAP2 DUP1 PUSH1 0x40 SWAP4 PUSH1 0x20 DUP5 MSTORE DUP2 PUSH1 0x20 DUP6 ADD MSTORE DUP5 DUP5 ADD CALLDATACOPY PUSH0 DUP3 DUP3 ADD DUP5 ADD MSTORE PUSH1 0x1F ADD PUSH1 0x1F NOT AND ADD ADD SWAP1 JUMP JUMPDEST SWAP3 SWAP2 SWAP1 PUSH2 0x2618 DUP2 PUSH2 0x473 JUMP JUMPDEST SWAP4 PUSH2 0x2626 PUSH1 0x40 MLOAD SWAP6 DUP7 PUSH2 0x424 JUMP JUMPDEST PUSH1 0x20 DUP6 DUP4 DUP2 MSTORE ADD SWAP2 PUSH1 0x5 SHL DUP2 ADD SWAP3 DUP4 GT PUSH2 0x264 JUMPI SWAP1 JUMPDEST DUP3 DUP3 LT PUSH2 0x2648 JUMPI POP POP POP JUMP JUMPDEST PUSH1 0x20 DUP1 SWAP2 DUP4 CALLDATALOAD PUSH2 0x2657 DUP2 PUSH2 0x253 JUMP JUMPDEST DUP2 MSTORE ADD SWAP2 ADD SWAP1 PUSH2 0x263C JUMP JUMPDEST DUP1 MLOAD SWAP2 SWAP3 SWAP1 SWAP2 PUSH1 0x1 PUSH1 0x1 PUSH1 0xA0 SHL SUB AND PUSH1 0x20 DUP4 ADD DUP1 MLOAD SWAP2 SWAP3 SWAP2 PUSH1 0x1 PUSH1 0x1 PUSH1 0xA0 SHL SUB AND PUSH1 0x40 DUP6 ADD DUP1 MLOAD SWAP2 SWAP5 SWAP1 SWAP2 PUSH1 0x1 PUSH1 0x1 PUSH1 0xA0 SHL SUB AND SWAP5 PUSH1 0xA0 DUP8 ADD SWAP6 DUP7 MLOAD PUSH2 0x26A7 SWAP1 PUSH2 0x1DC2 JUMP JUMPDEST MLOAD PUSH1 0x1 PUSH1 0x1 PUSH1 0xE8 SHL SUB NOT AND SWAP2 PUSH2 0x26BC SWAP4 PUSH2 0x3435 JUMP JUMPDEST SWAP6 DUP5 MLOAD PUSH2 0x26C8 SWAP1 PUSH2 0x1DC2 JUMP JUMPDEST MLOAD PUSH1 0x1 PUSH1 0x1 PUSH1 0xE8 SHL SUB NOT AND PUSH2 0x26DC SWAP1 PUSH2 0x34ED JUMP JUMPDEST DUP7 MLOAD SWAP1 SWAP7 SWAP1 PUSH1 0x1 PUSH1 0x1 PUSH1 0xA0 SHL SUB AND SWAP4 MLOAD PUSH1 0x1 PUSH1 0x1 PUSH1 0xA0 SHL SUB AND SWAP3 MLOAD PUSH1 0x1 PUSH1 0x1 PUSH1 0xA0 SHL SUB AND SWAP5 PUSH1 0x60 DUP3 ADD MLOAD PUSH2 0x270F SWAP1 PUSH2 0x1DC2 JUMP JUMPDEST MLOAD SWAP3 PUSH1 0x80 DUP10 ADD MLOAD PUSH2 0x2721 SWAP1 PUSH2 0xFFFF AND SWAP1 JUMP JUMPDEST PUSH1 0x80 SWAP1 SWAP4 ADD MLOAD ISZERO ISZERO SWAP4 PUSH2 0x2733 DUP11 PUSH2 0x3597 JUMP JUMPDEST SWAP6 PUSH2 0x273C PUSH2 0x463 JUMP JUMPDEST PUSH1 0x1 PUSH1 0x1 PUSH1 0xA0 SHL SUB SWAP1 SWAP9 AND DUP9 MSTORE PUSH1 0x1 PUSH1 0x1 PUSH1 0xA0 SHL SUB AND PUSH1 0x20 DUP9 ADD MSTORE PUSH1 0x1 PUSH1 0x1 PUSH1 0xA0 SHL SUB SWAP1 SWAP8 AND PUSH1 0x40 DUP8 ADD SWAP1 DUP2 MSTORE SWAP7 PUSH1 0x60 DUP8 ADD MSTORE PUSH1 0x1 PUSH1 0x1 PUSH1 0x80 SHL SUB AND PUSH1 0x80 DUP7 ADD MSTORE PUSH1 0x1 PUSH1 0x1 PUSH1 0x80 SHL SUB AND PUSH1 0xA0 DUP6 ADD MSTORE PUSH2 0xFFFF AND PUSH1 0xC0 DUP5 ADD MSTORE ISZERO ISZERO PUSH1 0xE0 DUP4 ADD MSTORE PUSH1 0xFF AND PUSH2 0x100 DUP3 ADD MSTORE PUSH2 0x27AC PUSH2 0x1E4D JUMP JUMPDEST SWAP4 PUSH2 0x27B5 PUSH2 0x1E4D JUMP JUMPDEST SWAP3 PUSH2 0x27BE PUSH2 0x1E4D JUMP JUMPDEST SWAP1 PUSH2 0x27C7 PUSH2 0x1E4D JUMP JUMPDEST SWAP3 PUSH1 0xA0 ADD SWAP1 DUP2 MLOAD PUSH2 0x27D8 SWAP1 PUSH1 0xFF AND SWAP1 JUMP JUMPDEST PUSH1 0xFF AND DUP1 ISZERO PUSH0 EQ SWAP9 PUSH2 0x2209 PUSH1 0x20 SWAP10 PUSH2 0x2224 SWAP8 PUSH2 0x716 SWAP8 PUSH2 0x716 SWAP8 PUSH2 0x2217 SWAP7 PUSH2 0x289C SWAP16 PUSH2 0x28DE JUMPI POP POP PUSH2 0x2808 PUSH2 0x1E4D JUMP JUMPDEST SWAP3 JUMPDEST PUSH2 0x281C PUSH2 0x1F9E PUSH1 0x1 PUSH1 0xE8 SHL SWAP3 MLOAD PUSH2 0x1DC2 JUMP JUMPDEST AND ISZERO PUSH2 0x28CD JUMPI PUSH2 0x21FB PUSH2 0x287B PUSH2 0x2889 GAS PUSH2 0x286C PUSH2 0x2839 CALLER ADDRESS PUSH2 0x4169 JUMP JUMPDEST TLOAD PUSH2 0x2842 PUSH2 0x445 JUMP JUMPDEST CALLER DUP2 MSTORE SWAP3 ORIGIN PUSH1 0x20 DUP6 ADD MSTORE NUMBER PUSH1 0x40 DUP6 ADD MSTORE TIMESTAMP PUSH1 0x60 DUP6 ADD MSTORE GASPRICE PUSH1 0x80 DUP6 ADD MSTORE PUSH1 0xA0 DUP5 ADD MSTORE ISZERO ISZERO PUSH1 0xC0 DUP4 ADD MSTORE JUMP JUMPDEST PUSH1 0x40 MLOAD SWAP3 DUP4 SWAP2 PUSH1 0x20 DUP4 ADD PUSH2 0x1DF3 JUMP JUMPDEST SUB PUSH1 0x1F NOT DUP2 ADD DUP4 MSTORE DUP3 PUSH2 0x424 JUMP JUMPDEST PUSH1 0x40 MLOAD SWAP4 DUP5 SWAP2 PUSH2 0x21ED SWAP2 PUSH1 0x20 DUP5 ADD PUSH2 0x1B32 JUMP JUMPDEST SUB SWAP3 GAS CALL SWAP1 DUP2 ISZERO PUSH2 0x2285 JUMPI PUSH0 SWAP2 PUSH2 0x28B1 JUMPI POP SWAP2 JUMP JUMPDEST PUSH2 0x28CA SWAP2 POP PUSH1 0x20 RETURNDATASIZE PUSH1 0x20 GT PUSH2 0x227E JUMPI PUSH2 0x2272 DUP2 DUP4 PUSH2 0x424 JUMP JUMPDEST SWAP2 JUMP JUMPDEST PUSH2 0x21FB PUSH2 0x28D8 PUSH2 0x1E4D JUMP JUMPDEST SWAP3 PUSH2 0x21DA JUMP JUMPDEST PUSH1 0xE DUP2 GT PUSH2 0x297D JUMPI POP PUSH1 0x4 PUSH2 0x290B PUSH2 0x2905 PUSH2 0x28FD PUSH2 0x895 DUP6 MLOAD PUSH1 0xFF AND SWAP1 JUMP JUMPDEST SWAP4 MLOAD PUSH1 0xFF AND SWAP1 JUMP JUMPDEST PUSH1 0xFF AND SWAP1 JUMP JUMPDEST LT ISZERO DUP1 PUSH2 0x2970 JUMPI JUMPDEST ISZERO PUSH2 0x2967 JUMPI PUSH2 0x2924 PUSH2 0x2939 SWAP2 PUSH2 0x1AAC JUMP JUMPDEST SWAP1 SLOAD PUSH1 0x3 SWAP2 SWAP1 SWAP2 SHL SHR PUSH1 0x1 PUSH1 0x1 PUSH1 0xA0 SHL SUB AND SWAP1 JUMP JUMPDEST DUP12 PUSH1 0x1 PUSH1 0x1 PUSH1 0xA0 SHL SUB DUP3 AND ISZERO PUSH2 0x2958 JUMPI PUSH2 0x2952 SWAP2 PUSH2 0x35F3 JUMP JUMPDEST SWAP3 PUSH2 0x280A JUMP JUMPDEST POP POP PUSH2 0x2962 PUSH2 0x1E4D JUMP JUMPDEST PUSH2 0x2952 JUMP JUMPDEST POP PUSH2 0x2952 PUSH2 0x1E4D JUMP JUMPDEST POP PUSH1 0xB PUSH1 0xFF DUP3 AND LT PUSH2 0x2913 JUMP JUMPDEST PUSH1 0xF EQ ISZERO SWAP1 POP PUSH2 0x29B1 JUMPI PUSH2 0x2952 DUP12 PUSH32 0x0 PUSH2 0x35F3 JUMP JUMPDEST PUSH2 0x2952 PUSH2 0x1E4D JUMP JUMPDEST PUSH1 0x40 DUP1 MLOAD SWAP1 SWAP2 SWAP1 PUSH2 0x29CA DUP4 DUP3 PUSH2 0x424 JUMP JUMPDEST PUSH1 0x1 DUP2 MSTORE SWAP2 PUSH1 0x1F NOT ADD CALLDATASIZE PUSH1 0x20 DUP5 ADD CALLDATACOPY JUMP JUMPDEST SWAP1 PUSH2 0x29E5 DUP3 PUSH2 0x473 JUMP JUMPDEST PUSH2 0x29F2 PUSH1 0x40 MLOAD SWAP2 DUP3 PUSH2 0x424 JUMP JUMPDEST DUP3 DUP2 MSTORE DUP1 SWAP3 PUSH2 0x2A03 PUSH1 0x1F NOT SWAP2 PUSH2 0x473 JUMP JUMPDEST ADD SWAP1 PUSH1 0x20 CALLDATASIZE SWAP2 ADD CALLDATACOPY JUMP JUMPDEST SWAP1 DUP1 PUSH1 0x1F DUP4 ADD SLT ISZERO PUSH2 0x264 JUMPI DUP2 MLOAD PUSH2 0x2A24 DUP2 PUSH2 0x473 JUMP JUMPDEST SWAP3 PUSH2 0x2A32 PUSH1 0x40 MLOAD SWAP5 DUP6 PUSH2 0x424 JUMP JUMPDEST DUP2 DUP5 MSTORE PUSH1 0x20 DUP1 DUP6 ADD SWAP3 PUSH1 0x5 SHL DUP3 ADD ADD SWAP3 DUP4 GT PUSH2 0x264 JUMPI PUSH1 0x20 ADD SWAP1 JUMPDEST DUP3 DUP3 LT PUSH2 0x2A5A JUMPI POP POP POP SWAP1 JUMP JUMPDEST DUP2 MLOAD DUP2 MSTORE PUSH1 0x20 SWAP2 DUP3 ADD SWAP2 ADD PUSH2 0x2A4D JUMP JUMPDEST SWAP1 PUSH1 0x20 DUP3 DUP3 SUB SLT PUSH2 0x264 JUMPI DUP2 MLOAD PUSH1 0x1 PUSH1 0x1 PUSH1 0x40 SHL SUB DUP2 GT PUSH2 0x264 JUMPI PUSH2 0x4F1 SWAP3 ADD PUSH2 0x2A0D JUMP JUMPDEST SWAP1 PUSH1 0x20 DUP1 DUP4 MLOAD SWAP3 DUP4 DUP2 MSTORE ADD SWAP3 ADD SWAP1 PUSH0 JUMPDEST DUP2 DUP2 LT PUSH2 0x2AAC JUMPI POP POP POP SWAP1 JUMP JUMPDEST DUP3 MLOAD PUSH1 0x1 PUSH1 0x1 PUSH1 0x80 SHL SUB AND DUP5 MSTORE PUSH1 0x20 SWAP4 DUP5 ADD SWAP4 SWAP1 SWAP3 ADD SWAP2 PUSH1 0x1 ADD PUSH2 0x2A9F JUMP JUMPDEST SWAP1 PUSH1 0x20 DUP1 DUP4 MLOAD SWAP3 DUP4 DUP2 MSTORE ADD SWAP3 ADD SWAP1 PUSH0 JUMPDEST DUP2 DUP2 LT PUSH2 0x2AE8 JUMPI POP POP POP SWAP1 JUMP JUMPDEST DUP3 MLOAD PUSH2 0xFFFF AND DUP5 MSTORE PUSH1 0x20 SWAP4 DUP5 ADD SWAP4 SWAP1 SWAP3 ADD SWAP2 PUSH1 0x1 ADD PUSH2 0x2ADB JUMP JUMPDEST PUSH1 0x40 DUP1 DUP3 MSTORE DUP3 MLOAD PUSH1 0x1 PUSH1 0x1 PUSH1 0xA0 SHL SUB AND SWAP1 DUP3 ADD MSTORE PUSH2 0x4F1 SWAP3 SWAP1 PUSH1 0x20 DUP4 ADD MLOAD PUSH1 0x1 PUSH1 0x1 PUSH1 0xA0 SHL SUB AND PUSH1 0x60 DUP3 ADD MSTORE PUSH1 0x40 DUP4 ADD MLOAD PUSH1 0x1 PUSH1 0x1 PUSH1 0xA0 SHL SUB AND PUSH1 0x80 DUP3 ADD MSTORE PUSH2 0x2BC7 PUSH2 0x100 PUSH2 0x2BAC PUSH2 0x2B97 PUSH2 0x2B81 PUSH2 0x2B6B PUSH1 0x60 DUP10 ADD MLOAD PUSH2 0x120 PUSH1 0xA0 DUP10 ADD MSTORE PUSH2 0x160 DUP9 ADD SWAP1 PUSH2 0x17DF JUMP JUMPDEST PUSH1 0x80 DUP10 ADD MLOAD DUP8 DUP3 SUB PUSH1 0x3F NOT ADD PUSH1 0xC0 DUP10 ADD MSTORE PUSH2 0x2A8F JUMP JUMPDEST PUSH1 0xA0 DUP9 ADD MLOAD DUP7 DUP3 SUB PUSH1 0x3F NOT ADD PUSH1 0xE0 DUP9 ADD MSTORE PUSH2 0x2A8F JUMP JUMPDEST PUSH1 0xC0 DUP8 ADD MLOAD DUP6 DUP3 SUB PUSH1 0x3F NOT ADD DUP5 DUP8 ADD MSTORE PUSH2 0x2ACB JUMP JUMPDEST PUSH1 0xE0 DUP7 ADD MLOAD ISZERO ISZERO PUSH2 0x120 DUP6 ADD MSTORE SWAP5 ADD MLOAD PUSH1 0xFF AND PUSH2 0x140 DUP4 ADD MSTORE JUMP JUMPDEST PUSH1 0x20 DUP2 DUP5 SUB SWAP2 ADD MSTORE PUSH2 0x1B0E JUMP JUMPDEST SWAP1 PUSH1 0xA0 DUP3 ADD SWAP1 PUSH2 0x2BE5 DUP3 MLOAD MLOAD PUSH2 0x29DB JUMP JUMPDEST SWAP2 PUSH2 0x2BF1 DUP2 MLOAD MLOAD PUSH2 0x29DB JUMP JUMPDEST POP PUSH2 0x2BFD DUP2 MLOAD MLOAD PUSH2 0x29DB JUMP JUMPDEST SWAP6 PUSH2 0x2C13 PUSH2 0x2C0E PUSH2 0x1F9E DUP5 MLOAD PUSH2 0x1DC2 JUMP JUMPDEST PUSH2 0x34ED JUMP JUMPDEST PUSH0 JUMPDEST DUP4 MLOAD DUP1 MLOAD DUP3 LT ISZERO PUSH2 0x2CA0 JUMPI SWAP1 PUSH2 0x2C9A PUSH2 0x2C87 PUSH1 0x80 PUSH2 0x2C7E DUP12 DUP12 PUSH2 0x2C78 DUP8 PUSH2 0x2C72 PUSH2 0x2C44 PUSH2 0x1F9E DUP4 PUSH1 0x1 SWAP14 PUSH2 0x1DDF JUMP JUMPDEST DUP6 MLOAD SWAP1 SWAP6 DUP7 SWAP2 PUSH1 0x1 PUSH1 0x1 PUSH1 0xA0 SHL SUB AND JUMPDEST PUSH1 0x20 DUP3 ADD MLOAD PUSH1 0x40 SWAP1 SWAP3 ADD MLOAD PUSH1 0x1 PUSH1 0x1 PUSH1 0xA0 SHL SUB SWAP1 DUP2 AND SWAP3 AND SWAP1 PUSH2 0x3435 JUMP JUMPDEST SWAP3 PUSH2 0x1DDF JUMP JUMPDEST MSTORE PUSH2 0x34ED JUMP JUMPDEST ADD MLOAD PUSH2 0xFFFF AND SWAP1 JUMP JUMPDEST PUSH2 0x2C91 DUP4 DUP14 PUSH2 0x1DDF JUMP JUMPDEST SWAP1 PUSH2 0xFFFF AND SWAP1 MSTORE JUMP JUMPDEST ADD PUSH2 0x2C15 JUMP JUMPDEST POP POP DUP6 MLOAD SWAP3 SWAP7 SWAP2 SWAP6 SWAP1 SWAP4 SWAP1 SWAP3 PUSH1 0x1 PUSH1 0x1 PUSH1 0xA0 SHL SUB AND PUSH1 0x20 DUP5 ADD DUP1 MLOAD SWAP2 SWAP5 SWAP1 SWAP4 SWAP1 SWAP2 PUSH1 0x1 PUSH1 0x1 PUSH1 0xA0 SHL SUB AND PUSH1 0x40 DUP4 ADD DUP1 MLOAD SWAP1 SWAP12 SWAP2 SWAP3 SWAP2 SWAP1 PUSH1 0x1 PUSH1 0x1 PUSH1 0xA0 SHL SUB AND SWAP2 PUSH1 0x60 DUP6 ADD MLOAD SWAP6 PUSH1 0x80 DUP7 ADD SWAP7 DUP8 MLOAD PUSH2 0x2CF6 SWAP1 ISZERO ISZERO SWAP1 JUMP JUMPDEST SWAP5 PUSH2 0x2D00 DUP13 PUSH2 0x3597 JUMP JUMPDEST SWAP7 PUSH2 0x2D09 PUSH2 0x463 JUMP JUMPDEST PUSH1 0x1 PUSH1 0x1 PUSH1 0xA0 SHL SUB SWAP1 SWAP13 AND DUP13 MSTORE PUSH1 0x1 PUSH1 0x1 PUSH1 0xA0 SHL SUB AND PUSH1 0x20 DUP13 ADD MSTORE PUSH1 0x1 PUSH1 0x1 PUSH1 0xA0 SHL SUB AND PUSH1 0x40 DUP12 ADD MSTORE PUSH1 0x60 DUP11 ADD MSTORE PUSH1 0x80 DUP10 ADD MSTORE PUSH1 0xA0 DUP9 ADD MSTORE PUSH1 0xC0 DUP8 ADD MSTORE ISZERO ISZERO PUSH1 0xE0 DUP7 ADD MSTORE PUSH1 0xFF AND PUSH2 0x100 DUP6 ADD MSTORE MLOAD PUSH1 0x1 PUSH1 0x1 PUSH1 0xA0 SHL SUB AND SWAP2 MLOAD PUSH1 0x1 PUSH1 0x1 PUSH1 0xA0 SHL SUB AND DUP9 MLOAD SWAP1 SWAP2 SWAP1 PUSH1 0x1 PUSH1 0x1 PUSH1 0xA0 SHL SUB AND SWAP1 MLOAD ISZERO ISZERO SWAP2 PUSH2 0x2D86 PUSH2 0x463 JUMP JUMPDEST PUSH1 0x1 PUSH1 0x1 PUSH1 0xA0 SHL SUB SWAP1 SWAP5 AND DUP5 MSTORE PUSH1 0x1 PUSH1 0x1 PUSH1 0xA0 SHL SUB AND PUSH1 0x20 DUP5 ADD MSTORE PUSH1 0x1 PUSH1 0x1 PUSH1 0xA0 SHL SUB AND PUSH1 0x40 DUP4 ADD MSTORE PUSH0 PUSH1 0x60 DUP4 ADD DUP2 SWAP1 MSTORE PUSH1 0x80 DUP4 ADD DUP2 SWAP1 MSTORE PUSH1 0xA0 DUP4 ADD DUP2 SWAP1 MSTORE PUSH1 0xC0 DUP4 ADD MSTORE ISZERO ISZERO PUSH1 0xE0 DUP3 ADD MSTORE PUSH0 PUSH2 0x100 DUP3 ADD MSTORE PUSH2 0x2DE0 PUSH2 0x1E4D JUMP JUMPDEST SWAP1 PUSH2 0x2DE9 PUSH2 0x1E4D JUMP JUMPDEST SWAP4 PUSH2 0x2DF2 PUSH2 0x1E4D JUMP JUMPDEST SWAP2 PUSH2 0x2DFB PUSH2 0x1E4D JUMP JUMPDEST PUSH1 0xA0 SWAP3 SWAP1 SWAP3 ADD DUP1 MLOAD PUSH1 0xFF AND DUP1 PUSH2 0x2F3B JUMPI POP POP POP PUSH2 0x2E16 PUSH2 0x1E4D JUMP JUMPDEST SWAP2 JUMPDEST PUSH0 PUSH0 JUMPDEST DUP11 MLOAD DUP1 MLOAD DUP3 LT ISZERO PUSH2 0x2F17 JUMPI PUSH2 0x2E4A SWAP1 PUSH2 0x2E3C PUSH2 0x1F9E DUP5 PUSH1 0x1 PUSH1 0xE8 SHL SWAP4 PUSH2 0x1DDF JUMP JUMPDEST AND PUSH1 0x1 PUSH1 0x1 PUSH1 0xE8 SHL SUB NOT AND SWAP1 JUMP JUMPDEST PUSH2 0x2E56 JUMPI PUSH1 0x1 ADD PUSH2 0x2E1B JUMP JUMPDEST POP POP PUSH0 SWAP7 SWAP9 POP SWAP9 PUSH2 0x2217 PUSH2 0x2EB7 SWAP5 PUSH2 0x2209 PUSH2 0x716 SWAP6 PUSH2 0x716 SWAP6 PUSH2 0x2ED5 SWAP13 SWAP15 PUSH1 0x1 JUMPDEST DUP14 EQ PUSH2 0x2F06 JUMPI PUSH2 0x2EA8 PUSH2 0x287B PUSH2 0x2E94 GAS PUSH2 0x286C PUSH2 0x2839 CALLER ADDRESS PUSH2 0x4169 JUMP JUMPDEST SWAP3 JUMPDEST PUSH2 0x21ED PUSH1 0x40 MLOAD SWAP5 DUP6 SWAP3 PUSH1 0x20 DUP5 ADD PUSH2 0x1B32 JUMP JUMPDEST PUSH1 0x40 MLOAD SWAP12 DUP13 SWAP6 PUSH1 0x20 DUP8 ADD PUSH2 0x1E61 JUMP JUMPDEST SWAP1 DUP4 PUSH1 0x40 MLOAD DUP1 SWAP7 DUP2 SWAP6 DUP3 SWAP5 PUSH4 0x72E07279 PUSH1 0xE0 SHL DUP5 MSTORE PUSH1 0x4 DUP5 ADD PUSH2 0x2B02 JUMP JUMPDEST SUB SWAP3 GAS CALL SWAP1 DUP2 ISZERO PUSH2 0x2285 JUMPI PUSH0 SWAP2 PUSH2 0x2EEA JUMPI POP SWAP2 JUMP JUMPDEST PUSH2 0x28CA SWAP2 POP RETURNDATASIZE DUP1 PUSH0 DUP4 RETURNDATACOPY PUSH2 0x2EFE DUP2 DUP4 PUSH2 0x424 JUMP JUMPDEST DUP2 ADD SWAP1 PUSH2 0x2A6A JUMP JUMPDEST PUSH2 0x2EA8 PUSH2 0x2F11 PUSH2 0x1E4D JUMP JUMPDEST SWAP3 PUSH2 0x2E96 JUMP JUMPDEST POP POP PUSH0 SWAP8 SWAP10 POP PUSH2 0x2EB7 SWAP5 PUSH2 0x2209 PUSH2 0x716 SWAP6 PUSH2 0x716 SWAP6 PUSH2 0x2ED5 SWAP13 SWAP15 SWAP6 PUSH2 0x2217 SWAP6 PUSH2 0x2E77 JUMP JUMPDEST PUSH1 0xFF AND PUSH1 0xE DUP2 GT PUSH2 0x2FBB JUMPI POP PUSH1 0x4 PUSH2 0x2F5D PUSH2 0x2905 PUSH2 0x28FD PUSH2 0x895 DUP6 MLOAD PUSH1 0xFF AND SWAP1 JUMP JUMPDEST LT ISZERO DUP1 PUSH2 0x2FAE JUMPI JUMPDEST ISZERO PUSH2 0x2FA4 JUMPI PUSH2 0x2924 PUSH2 0x2F76 SWAP2 PUSH2 0x1AAC JUMP JUMPDEST SWAP1 PUSH1 0x1 PUSH1 0x1 PUSH1 0xA0 SHL SUB DUP3 AND ISZERO PUSH2 0x2F95 JUMPI PUSH2 0x2F8F SWAP2 PUSH2 0x40B4 JUMP JUMPDEST SWAP2 PUSH2 0x2E18 JUMP JUMPDEST POP POP PUSH2 0x2F9F PUSH2 0x1E4D JUMP JUMPDEST PUSH2 0x2F8F JUMP JUMPDEST POP POP PUSH2 0x2F8F PUSH2 0x1E4D JUMP JUMPDEST POP PUSH1 0xB PUSH1 0xFF DUP3 AND LT PUSH2 0x2F65 JUMP JUMPDEST PUSH1 0xF EQ ISZERO SWAP1 POP PUSH2 0x2FEF JUMPI PUSH2 0x2F8F SWAP1 PUSH32 0x0 PUSH2 0x35F3 JUMP JUMPDEST POP PUSH2 0x2F8F PUSH2 0x1E4D JUMP JUMPDEST SWAP4 SWAP3 SWAP4 SWAP2 SWAP1 SWAP2 PUSH0 SWAP4 PUSH0 JUMPDEST PUSH1 0xA0 DUP4 ADD MLOAD DUP1 MLOAD DUP3 LT ISZERO PUSH2 0x338D JUMPI PUSH2 0x3026 SWAP1 PUSH2 0x2E3C PUSH2 0x1F9E DUP5 PUSH1 0x1 PUSH1 0xE8 SHL SWAP4 PUSH2 0x1DDF JUMP JUMPDEST PUSH2 0x3032 JUMPI PUSH1 0x1 ADD PUSH2 0x3002 JUMP JUMPDEST POP SWAP1 SWAP2 SWAP3 SWAP4 POP PUSH1 0x1 JUMPDEST ISZERO PUSH2 0x3381 JUMPI PUSH1 0xA0 DUP3 ADD SWAP5 PUSH2 0x3050 DUP7 MLOAD MLOAD PUSH2 0x29DB JUMP JUMPDEST SWAP2 PUSH2 0x305C DUP8 MLOAD MLOAD PUSH2 0x29DB JUMP JUMPDEST SWAP5 PUSH0 JUMPDEST DUP9 MLOAD DUP1 MLOAD DUP3 LT ISZERO PUSH2 0x30B7 JUMPI SWAP1 PUSH2 0x30B1 PUSH2 0x30A7 PUSH1 0x80 PUSH2 0x2C7E PUSH2 0x3085 PUSH2 0x1F9E DUP7 PUSH1 0x1 SWAP9 PUSH2 0x1DDF JUMP JUMPDEST DUP12 MLOAD PUSH2 0x309D SWAP1 DUP3 SWAP1 DUP15 SWAP1 PUSH1 0x1 PUSH1 0x1 PUSH1 0xA0 SHL SUB AND PUSH2 0x2C54 JUMP JUMPDEST PUSH2 0x2C78 DUP8 DUP14 PUSH2 0x1DDF JUMP JUMPDEST PUSH2 0x2C91 DUP4 DUP12 PUSH2 0x1DDF JUMP JUMPDEST ADD PUSH2 0x305F JUMP JUMPDEST POP POP SWAP5 SWAP1 SWAP7 SWAP6 SWAP4 SWAP2 SWAP3 SWAP6 GAS PUSH2 0x30CC DUP6 ADDRESS PUSH2 0x4169 JUMP JUMPDEST TLOAD SWAP1 PUSH2 0x30D6 PUSH2 0x445 JUMP JUMPDEST PUSH1 0x1 PUSH1 0x1 PUSH1 0xA0 SHL SUB SWAP1 SWAP7 AND DUP7 MSTORE ORIGIN PUSH1 0x20 DUP8 ADD MSTORE NUMBER PUSH1 0x40 DUP8 ADD MSTORE TIMESTAMP PUSH1 0x60 DUP8 ADD MSTORE GASPRICE PUSH1 0x80 DUP8 ADD MSTORE PUSH1 0xA0 DUP7 ADD MSTORE ISZERO ISZERO PUSH1 0xC0 DUP6 ADD MSTORE PUSH1 0x40 MLOAD DUP1 SWAP5 PUSH1 0x20 DUP3 ADD SWAP1 PUSH2 0x311A SWAP2 PUSH2 0x1DF3 JUMP JUMPDEST SUB PUSH1 0x1F NOT DUP2 ADD DUP6 MSTORE PUSH2 0x312C SWAP1 DUP6 PUSH2 0x424 JUMP JUMPDEST MLOAD PUSH2 0x3136 SWAP1 PUSH2 0x1DC2 JUMP JUMPDEST MLOAD PUSH1 0x1 PUSH1 0x1 PUSH1 0xE8 SHL SUB NOT AND PUSH2 0x314A SWAP1 PUSH2 0x34ED JUMP JUMPDEST DUP3 MLOAD SWAP1 SWAP6 SWAP1 PUSH1 0x1 PUSH1 0x1 PUSH1 0xA0 SHL SUB AND PUSH1 0x20 DUP5 ADD DUP1 MLOAD SWAP1 SWAP8 SWAP2 SWAP7 SWAP2 SWAP1 PUSH1 0x1 PUSH1 0x1 PUSH1 0xA0 SHL SUB AND PUSH1 0x40 DUP7 ADD DUP1 MLOAD SWAP1 SWAP8 SWAP2 SWAP3 SWAP2 SWAP1 PUSH1 0x1 PUSH1 0x1 PUSH1 0xA0 SHL SUB AND SWAP3 PUSH1 0x80 DUP9 ADD SWAP4 DUP5 MLOAD PUSH2 0x3193 SWAP1 ISZERO ISZERO SWAP1 JUMP JUMPDEST SWAP1 PUSH2 0x319D DUP6 PUSH2 0x3597 JUMP JUMPDEST SWAP3 PUSH2 0x31A6 PUSH2 0x463 JUMP JUMPDEST PUSH1 0x1 PUSH1 0x1 PUSH1 0xA0 SHL SUB SWAP1 SWAP14 AND DUP14 MSTORE PUSH1 0x1 PUSH1 0x1 PUSH1 0xA0 SHL SUB AND PUSH1 0x20 DUP14 ADD MSTORE PUSH1 0x1 PUSH1 0x1 PUSH1 0xA0 SHL SUB AND PUSH1 0x40 DUP13 ADD MSTORE PUSH0 PUSH1 0x60 DUP13 ADD DUP2 SWAP1 MSTORE PUSH1 0x80 DUP13 ADD DUP2 SWAP1 MSTORE PUSH1 0xA0 DUP13 ADD DUP2 SWAP1 MSTORE PUSH1 0xC0 DUP13 ADD MSTORE ISZERO ISZERO PUSH1 0xE0 DUP12 ADD MSTORE PUSH1 0xFF AND PUSH2 0x100 DUP11 ADD MSTORE PUSH2 0x3202 PUSH2 0x1E4D JUMP JUMPDEST SWAP1 PUSH2 0x320B PUSH2 0x1E4D JUMP JUMPDEST SWAP3 PUSH2 0x3214 PUSH2 0x1E4D JUMP JUMPDEST SWAP11 PUSH2 0x321D PUSH2 0x1E4D JUMP JUMPDEST SWAP2 MLOAD ISZERO PUSH2 0x3372 JUMPI PUSH2 0x324E SWAP1 PUSH32 0x0 PUSH2 0x40B4 JUMP JUMPDEST SWAP2 JUMPDEST PUSH1 0x40 MLOAD SWAP2 DUP3 SWAP2 PUSH2 0x3263 SWAP2 PUSH1 0x20 DUP5 ADD PUSH2 0x1B32 JUMP JUMPDEST SUB PUSH1 0x1F NOT DUP2 ADD DUP3 MSTORE PUSH2 0x3275 SWAP1 DUP3 PUSH2 0x424 JUMP JUMPDEST PUSH1 0x40 MLOAD SWAP11 DUP12 SWAP5 PUSH2 0x3288 SWAP5 PUSH1 0x20 DUP8 ADD PUSH2 0x1E61 JUMP JUMPDEST SUB PUSH1 0x1F NOT DUP2 ADD DUP9 MSTORE PUSH2 0x329A SWAP1 DUP9 PUSH2 0x424 JUMP JUMPDEST DUP5 MLOAD PUSH1 0x1 PUSH1 0x1 PUSH1 0xA0 SHL SUB AND SWAP8 MLOAD PUSH1 0x1 PUSH1 0x1 PUSH1 0xA0 SHL SUB AND DUP7 MLOAD SWAP1 SWAP6 SWAP1 PUSH1 0x1 PUSH1 0x1 PUSH1 0xA0 SHL SUB AND PUSH1 0x60 SWAP1 SWAP2 ADD MLOAD SWAP2 MLOAD ISZERO ISZERO SWAP6 PUSH2 0x32D1 PUSH2 0x463 JUMP JUMPDEST PUSH1 0x1 PUSH1 0x1 PUSH1 0xA0 SHL SUB SWAP1 SWAP11 AND DUP11 MSTORE PUSH1 0x1 PUSH1 0x1 PUSH1 0xA0 SHL SUB AND PUSH1 0x20 DUP11 ADD MSTORE PUSH1 0x1 PUSH1 0x1 PUSH1 0xA0 SHL SUB AND PUSH1 0x40 DUP10 ADD MSTORE PUSH1 0x60 DUP9 ADD MSTORE PUSH1 0x80 DUP8 ADD MSTORE PUSH1 0xA0 DUP7 ADD MSTORE PUSH1 0xC0 DUP6 ADD MSTORE ISZERO ISZERO PUSH1 0xE0 DUP5 ADD MSTORE PUSH0 PUSH2 0x100 DUP5 ADD MSTORE MLOAD PUSH1 0x1 PUSH1 0x1 PUSH1 0xA0 SHL SUB AND PUSH1 0x1 PUSH1 0x1 PUSH1 0xA0 SHL SUB AND PUSH1 0x1 PUSH1 0x1 PUSH1 0xA0 SHL SUB AND PUSH1 0x40 MLOAD PUSH4 0x72E07279 PUSH1 0xE0 SHL DUP2 MSTORE SWAP3 SWAP1 SWAP2 DUP4 SWAP2 DUP3 SWAP2 PUSH2 0x3359 SWAP2 PUSH1 0x4 DUP5 ADD PUSH2 0x2B02 JUMP JUMPDEST SUB DUP2 GAS PUSH0 SWAP5 DUP6 SWAP2 CALL SWAP1 DUP2 ISZERO PUSH2 0x2285 JUMPI PUSH0 SWAP2 PUSH2 0x2EEA JUMPI POP SWAP2 JUMP JUMPDEST POP PUSH2 0x337B PUSH2 0x1E4D JUMP JUMPDEST SWAP2 PUSH2 0x3250 JUMP JUMPDEST SWAP4 POP SWAP2 PUSH2 0x1FBD SWAP3 PUSH2 0x2BD4 JUMP JUMPDEST POP POP SWAP1 SWAP2 SWAP3 SWAP4 PUSH2 0x303B JUMP JUMPDEST DUP2 PUSH1 0x1F DUP3 ADD SLT ISZERO PUSH2 0x264 JUMPI DUP1 MLOAD SWAP1 PUSH2 0x33AF DUP3 PUSH2 0x1AF3 JUMP JUMPDEST SWAP3 PUSH2 0x33BD PUSH1 0x40 MLOAD SWAP5 DUP6 PUSH2 0x424 JUMP JUMPDEST DUP3 DUP5 MSTORE PUSH1 0x20 DUP4 DUP4 ADD ADD GT PUSH2 0x264 JUMPI DUP2 PUSH0 SWAP3 PUSH1 0x20 DUP1 SWAP4 ADD DUP4 DUP7 ADD MCOPY DUP4 ADD ADD MSTORE SWAP1 JUMP JUMPDEST DUP1 MLOAD DUP2 ADD SWAP1 PUSH1 0x40 DUP2 PUSH1 0x20 DUP5 ADD SWAP4 SUB SLT PUSH2 0x264 JUMPI PUSH1 0x20 DUP2 ADD MLOAD PUSH1 0x1 PUSH1 0x1 PUSH1 0x40 SHL SUB DUP2 GT PUSH2 0x264 JUMPI DUP3 PUSH1 0x20 PUSH2 0x3413 SWAP3 DUP5 ADD ADD PUSH2 0x3398 JUMP JUMPDEST SWAP2 PUSH1 0x40 DUP3 ADD MLOAD SWAP2 PUSH1 0x1 PUSH1 0x1 PUSH1 0x40 SHL SUB DUP4 GT PUSH2 0x264 JUMPI PUSH2 0x1FBD SWAP3 ADD PUSH1 0x20 ADD PUSH2 0x3398 JUMP JUMPDEST SWAP1 SWAP3 SWAP1 PUSH1 0x1 PUSH1 0x1 PUSH1 0xA0 SHL SUB DUP1 DUP6 AND SWAP1 DUP3 AND LT ISZERO PUSH2 0x34A7 JUMPI SWAP3 SWAP2 JUMPDEST PUSH1 0x40 MLOAD PUSH12 0xFFFFFFFFFFFFFFFFFFFFFFFF NOT PUSH1 0x60 SWAP6 DUP7 SHL DUP2 AND PUSH1 0x20 DUP4 ADD SWAP1 DUP2 MSTORE SWAP5 DUP7 SHL DUP2 AND PUSH1 0x34 DUP4 ADD MSTORE SWAP2 SWAP1 SWAP5 SHL AND PUSH1 0x48 DUP5 ADD MSTORE PUSH1 0x1 PUSH1 0x1 PUSH1 0xE8 SHL SUB NOT AND PUSH1 0x5C DUP4 ADD MSTORE PUSH1 0x3F DUP3 MSTORE SWAP1 PUSH2 0x34A1 PUSH1 0x5F DUP3 PUSH2 0x424 JUMP JUMPDEST MLOAD SWAP1 KECCAK256 SWAP1 JUMP JUMPDEST SWAP2 PUSH2 0x344F JUMP JUMPDEST PUSH1 0x40 MLOAD SWAP1 PUSH1 0xC0 DUP3 ADD DUP3 DUP2 LT PUSH1 0x1 PUSH1 0x1 PUSH1 0x40 SHL SUB DUP3 GT OR PUSH2 0x41F JUMPI PUSH1 0x40 MSTORE PUSH0 PUSH1 0xA0 DUP4 DUP3 DUP2 MSTORE DUP3 PUSH1 0x20 DUP3 ADD MSTORE DUP3 PUSH1 0x40 DUP3 ADD MSTORE DUP3 PUSH1 0x60 DUP3 ADD MSTORE DUP3 PUSH1 0x80 DUP3 ADD MSTORE ADD MSTORE JUMP JUMPDEST PUSH2 0x4F1 PUSH1 0xF PUSH2 0x358C PUSH2 0x34FD PUSH2 0x34AD JUMP JUMPDEST SWAP4 PUSH1 0xE8 SHR PUSH2 0x3512 PUSH1 0x1 DUP3 AND ISZERO ISZERO DUP7 SWAP1 ISZERO ISZERO SWAP1 MSTORE JUMP JUMPDEST PUSH2 0x3535 PUSH2 0x352C PUSH1 0x1 DUP4 DUP2 SHR PUSH3 0x7FFFFF AND JUMPDEST AND PUSH3 0xFFFFFF AND SWAP1 JUMP JUMPDEST ISZERO ISZERO PUSH1 0x20 DUP8 ADD MSTORE JUMP JUMPDEST PUSH2 0x3555 PUSH2 0x354C PUSH1 0x1 PUSH1 0x2 DUP5 SWAP1 SHR PUSH3 0x3FFFFF AND PUSH2 0x3523 JUMP JUMPDEST ISZERO ISZERO PUSH1 0x40 DUP8 ADD MSTORE JUMP JUMPDEST PUSH2 0x3575 PUSH2 0x356C PUSH1 0x1 PUSH1 0x3 DUP5 SWAP1 SHR PUSH3 0x1FFFFF AND PUSH2 0x3523 JUMP JUMPDEST ISZERO ISZERO PUSH1 0x60 DUP8 ADD MSTORE JUMP JUMPDEST PUSH1 0x4 DUP2 SWAP1 SHR PUSH2 0xFFF AND PUSH1 0x80 DUP7 ADD MSTORE PUSH1 0x14 SHR PUSH1 0xF AND SWAP1 JUMP JUMPDEST AND PUSH1 0xFF AND PUSH1 0xA0 DUP4 ADD MSTORE JUMP JUMPDEST PUSH1 0xF PUSH1 0xFF PUSH1 0xA0 DUP4 ADD MLOAD AND SUB PUSH2 0x35B8 JUMPI PUSH1 0x80 ADD MLOAD PUSH1 0xFF AND DUP1 PUSH2 0x4F1 JUMPI POP PUSH1 0xF SWAP1 JUMP JUMPDEST POP PUSH0 SWAP1 JUMP JUMPDEST SWAP1 PUSH1 0x20 DUP3 DUP3 SUB SLT PUSH2 0x264 JUMPI DUP2 MLOAD PUSH1 0x1 PUSH1 0x1 PUSH1 0x40 SHL SUB DUP2 GT PUSH2 0x264 JUMPI PUSH2 0x4F1 SWAP3 ADD PUSH2 0x3398 JUMP JUMPDEST PUSH2 0x120 DUP2 ADD SWAP3 SWAP2 PUSH2 0x273 SWAP2 SWAP1 PUSH2 0x1ECB JUMP JUMPDEST PUSH1 0x1 PUSH1 0x1 PUSH1 0xA0 SHL SUB DUP2 AND SWAP1 DUP2 ISZERO PUSH2 0x367A JUMPI EXTCODESIZE ISZERO PUSH2 0x3670 JUMPI PUSH0 SWAP2 DUP3 SWAP2 PUSH1 0x40 MLOAD DUP1 SWAP5 DUP2 DUP1 SWAP5 PUSH4 0x20318275 PUSH1 0xE1 SHL DUP3 MSTORE PUSH2 0x3632 PUSH1 0x4 DUP4 ADD PUSH2 0x120 DUP2 ADD SWAP3 PUSH2 0x1ECB JUMP JUMPDEST SUB SWAP3 GAS CALL PUSH0 SWAP2 DUP2 PUSH2 0x364C JUMPI JUMPDEST POP PUSH2 0x4F1 JUMPI POP PUSH2 0x4F1 PUSH2 0x1E4D JUMP JUMPDEST PUSH2 0x3669 SWAP2 SWAP3 POP RETURNDATASIZE DUP1 PUSH0 DUP4 RETURNDATACOPY PUSH2 0x3661 DUP2 DUP4 PUSH2 0x424 JUMP JUMPDEST DUP2 ADD SWAP1 PUSH2 0x35BD JUMP JUMPDEST SWAP1 PUSH0 PUSH2 0x363E JUMP JUMPDEST POP POP PUSH2 0x4F1 PUSH2 0x1E4D JUMP JUMPDEST POP POP POP PUSH2 0x4F1 PUSH2 0x1E4D JUMP JUMPDEST PUSH1 0x40 MLOAD PUSH1 0x20 DUP2 ADD SWAP1 PUSH32 0x507BA82850C15277B79BAE90C6E97B66228A117B64D05E46B3182D141DF61CE2 DUP3 MSTORE ADDRESS PUSH1 0x60 SHL PUSH1 0x40 DUP3 ADD MSTORE PUSH1 0x34 DUP2 MSTORE PUSH2 0x36C8 PUSH1 0x54 DUP3 PUSH2 0x424 JUMP JUMPDEST MLOAD SWAP1 KECCAK256 TLOAD SWAP1 JUMP JUMPDEST SWAP2 SWAP1 SWAP2 PUSH1 0x1 DUP1 PUSH1 0xA0 SHL SUB AND DUP1 PUSH0 MSTORE PUSH1 0x1 PUSH1 0x20 MSTORE PUSH1 0x40 PUSH0 KECCAK256 DUP4 PUSH0 MSTORE PUSH1 0x20 MSTORE PUSH1 0x40 PUSH0 KECCAK256 DUP1 SLOAD SWAP1 DUP4 DUP3 SUB SWAP2 DUP3 GT PUSH2 0x3EB JUMPI SSTORE PUSH1 0x40 DUP1 MLOAD CALLER DUP2 MSTORE PUSH1 0x20 DUP2 ADD SWAP4 SWAP1 SWAP4 MSTORE PUSH0 SWAP3 PUSH0 MLOAD PUSH1 0x20 PUSH2 0x51C4 PUSH0 CODECOPY PUSH0 MLOAD SWAP1 PUSH0 MSTORE SWAP2 DUP2 SWAP1 DUP2 ADD JUMPDEST SUB SWAP1 LOG4 JUMP JUMPDEST SWAP1 PUSH1 0xF SIGNEXTEND SWAP1 PUSH1 0xF SIGNEXTEND ADD SWAP1 PUSH1 0x1 PUSH1 0x1 PUSH1 0x7F SHL SUB NOT DUP3 SLT PUSH1 0x1 PUSH1 0x1 PUSH1 0x7F SHL SUB DUP4 SGT OR PUSH2 0x3EB JUMPI JUMP JUMPDEST SWAP1 SWAP2 PUSH2 0x3780 SWAP1 DUP3 PUSH0 MSTORE PUSH1 0x10 PUSH1 0x20 MSTORE PUSH2 0x3777 PUSH1 0x40 PUSH0 KECCAK256 SLOAD SWAP5 PUSH1 0x1 PUSH1 0x1 PUSH1 0x80 SHL SUB DUP7 AND PUSH1 0xF SIGNEXTEND PUSH2 0x3728 JUMP JUMPDEST SWAP4 PUSH1 0x80 SAR PUSH2 0x3728 JUMP JUMPDEST PUSH1 0x1 PUSH1 0x1 PUSH1 0x80 SHL SUB NOT SWAP1 PUSH1 0x80 SHL AND SWAP1 PUSH0 MSTORE PUSH1 0x10 PUSH1 0x20 MSTORE PUSH1 0x1 PUSH1 0x1 PUSH1 0x80 SHL SUB PUSH1 0x40 PUSH0 KECCAK256 SWAP3 AND OR SWAP1 SSTORE JUMP JUMPDEST SWAP1 PUSH2 0x37B4 SWAP2 ADDRESS PUSH2 0x41CB JUMP JUMPDEST SWAP1 DUP2 TLOAD ADD SWAP1 TSTORE JUMP JUMPDEST DUP2 MLOAD SWAP2 PUSH0 JUMPDEST DUP4 DUP2 LT PUSH2 0x37CE JUMPI POP POP POP POP JUMP JUMPDEST PUSH1 0x1 SWAP1 PUSH1 0x1 PUSH1 0x1 PUSH1 0xA0 SHL SUB PUSH2 0x37E3 DUP3 DUP6 PUSH2 0x1DDF JUMP JUMPDEST MLOAD AND PUSH2 0x37F0 DUP2 DUP7 ADDRESS PUSH2 0x41CB JUMP JUMPDEST TLOAD DUP1 PUSH2 0x37FF JUMPI JUMPDEST POP POP ADD PUSH2 0x37C1 JUMP JUMPDEST PUSH0 SWAP2 PUSH2 0x381F SWAP2 DUP4 DUP2 SGT ISZERO PUSH2 0x3827 JUMPI PUSH2 0x3818 SWAP1 DUP9 DUP4 PUSH2 0x4324 JUMP JUMPDEST DUP7 ADDRESS PUSH2 0x41CB JUMP JUMPDEST TSTORE PUSH0 DUP1 PUSH2 0x37F7 JUMP JUMPDEST PUSH2 0x3833 PUSH2 0x3845 SWAP2 PUSH2 0x2408 JUMP JUMPDEST DUP3 ISZERO DUP6 EQ PUSH2 0x384A JUMPI DUP5 SWAP1 JUMPDEST DUP10 DUP5 PUSH2 0x4255 JUMP JUMPDEST PUSH2 0x3818 JUMP JUMPDEST DUP5 SWAP1 PUSH2 0x383E JUMP JUMPDEST SWAP1 SWAP2 DUP3 MLOAD SWAP3 PUSH0 JUMPDEST DUP5 DUP2 LT PUSH2 0x3866 JUMPI POP POP POP POP POP JUMP JUMPDEST PUSH1 0x1 SWAP1 PUSH1 0x1 PUSH1 0x1 PUSH1 0xA0 SHL SUB PUSH2 0x387B DUP3 DUP6 PUSH2 0x1DDF JUMP JUMPDEST MLOAD AND PUSH2 0x3888 DUP2 DUP8 ADDRESS PUSH2 0x41CB JUMP JUMPDEST TLOAD DUP1 PUSH2 0x3897 JUMPI JUMPDEST POP POP ADD PUSH2 0x3858 JUMP JUMPDEST PUSH0 SWAP2 PUSH2 0x38B7 SWAP2 DUP4 DUP2 SGT ISZERO PUSH2 0x38BF JUMPI PUSH2 0x38B0 SWAP1 DUP10 DUP4 PUSH2 0x4324 JUMP JUMPDEST DUP8 ADDRESS PUSH2 0x41CB JUMP JUMPDEST TSTORE PUSH0 DUP1 PUSH2 0x388F JUMP JUMPDEST PUSH2 0x38CB PUSH2 0x38DD SWAP2 PUSH2 0x2408 JUMP JUMPDEST DUP3 ISZERO DUP6 EQ PUSH2 0x38E2 JUMPI DUP9 SWAP1 JUMPDEST DUP11 DUP5 PUSH2 0x4255 JUMP JUMPDEST PUSH2 0x38B0 JUMP JUMPDEST DUP5 SWAP1 PUSH2 0x38D6 JUMP JUMPDEST SWAP2 SWAP1 SWAP2 PUSH1 0x1 DUP1 PUSH1 0xA0 SHL SUB AND SWAP1 DUP2 PUSH0 MSTORE PUSH1 0x1 PUSH1 0x20 MSTORE PUSH1 0x40 PUSH0 KECCAK256 DUP4 PUSH0 MSTORE PUSH1 0x20 MSTORE PUSH1 0x40 PUSH0 KECCAK256 DUP1 SLOAD SWAP1 DUP3 DUP3 ADD DUP1 SWAP3 GT PUSH2 0x3EB JUMPI SSTORE PUSH1 0x40 DUP1 MLOAD CALLER DUP2 MSTORE PUSH1 0x20 DUP2 ADD SWAP3 SWAP1 SWAP3 MSTORE PUSH0 SWAP2 PUSH0 MLOAD PUSH1 0x20 PUSH2 0x51C4 PUSH0 CODECOPY PUSH0 MLOAD SWAP1 PUSH0 MSTORE SWAP2 DUP2 SWAP1 DUP2 ADD PUSH2 0x3723 JUMP JUMPDEST PUSH1 0x40 MLOAD PUSH1 0x20 DUP2 ADD SWAP1 PUSH32 0x626529A6BE7CB2FB96A7ED93849B4EF74C980495DFE61FD514C95DCD9DA51C35 DUP3 MSTORE ADDRESS PUSH1 0x60 SHL PUSH1 0x40 DUP3 ADD MSTORE PUSH1 0x34 DUP2 MSTORE PUSH2 0x34A1 PUSH1 0x54 DUP3 PUSH2 0x424 JUMP JUMPDEST DUP1 TLOAD PUSH2 0x264 JUMPI PUSH1 0x1 SWAP1 TSTORE JUMP JUMPDEST PUSH4 0xFFFFFFFF PUSH2 0x100 SWAP2 AND ADD SWAP1 PUSH4 0xFFFFFFFF DUP3 GT PUSH2 0x3EB JUMPI JUMP JUMPDEST PUSH1 0x1 PUSH1 0x1 PUSH1 0x40 SHL SUB PUSH1 0x1 SWAP2 AND ADD SWAP1 PUSH1 0x1 PUSH1 0x1 PUSH1 0x40 SHL SUB DUP3 GT PUSH2 0x3EB JUMPI JUMP JUMPDEST SWAP2 PUSH2 0x39E9 PUSH2 0x39DF DUP5 PUSH1 0x15 SWAP1 PUSH0 MSTORE PUSH1 0x20 MSTORE PUSH1 0x40 PUSH0 KECCAK256 SWAP1 JUMP JUMPDEST SLOAD PUSH4 0xFFFFFFFF AND SWAP1 JUMP JUMPDEST PUSH4 0xFFFFFFFF DUP2 AND DUP1 ISZERO PUSH2 0x3B09 JUMPI NUMBER GT ISZERO PUSH2 0x3AFA JUMPI PUSH2 0x3A09 PUSH2 0x3A12 SWAP2 PUSH2 0x3991 JUMP JUMPDEST PUSH4 0xFFFFFFFF AND SWAP1 JUMP JUMPDEST NUMBER GT PUSH2 0x3AEB JUMPI PUSH1 0x1 PUSH1 0x1 PUSH1 0xA0 SHL SUB DUP3 AND PUSH0 SWAP1 DUP2 MSTORE PUSH1 0x16 PUSH1 0x20 MSTORE PUSH1 0x40 SWAP1 KECCAK256 SLOAD PUSH1 0x1 PUSH1 0x1 PUSH1 0x40 SHL SUB AND PUSH1 0x1 PUSH1 0x1 PUSH1 0x40 SHL SUB DUP3 AND SUB PUSH2 0x3ADC JUMPI PUSH2 0x3A77 PUSH2 0x3AA9 SWAP2 PUSH2 0x3A72 PUSH2 0x3A65 DUP7 PUSH1 0x15 SWAP1 PUSH0 MSTORE PUSH1 0x20 MSTORE PUSH1 0x40 PUSH0 KECCAK256 SWAP1 JUMP JUMPDEST DUP1 SLOAD PUSH4 0xFFFFFFFF NOT AND SWAP1 SSTORE JUMP JUMPDEST PUSH2 0x39AA JUMP JUMPDEST PUSH1 0x1 PUSH1 0x1 PUSH1 0xA0 SHL SUB DUP4 AND PUSH0 SWAP1 DUP2 MSTORE PUSH1 0x16 PUSH1 0x20 MSTORE PUSH1 0x40 SWAP1 KECCAK256 SWAP1 PUSH1 0x1 PUSH1 0x1 PUSH1 0x40 SHL SUB AND PUSH1 0x1 PUSH1 0x1 PUSH1 0x40 SHL SUB NOT DUP3 SLOAD AND OR SWAP1 SSTORE JUMP JUMPDEST PUSH1 0x1 PUSH1 0x1 PUSH1 0xA0 SHL SUB AND SWAP1 PUSH32 0x5ED00D9781AAAC5F5AB01A93ECE28FCA0F8FFE70C108140274D8FEC00477CE80 PUSH0 DUP1 LOG3 PUSH1 0x1 SWAP1 JUMP JUMPDEST PUSH4 0x2071CF9F PUSH1 0xE1 SHL PUSH0 MSTORE PUSH1 0x4 PUSH0 REVERT JUMPDEST PUSH4 0x586B1F39 PUSH1 0xE0 SHL PUSH0 MSTORE PUSH1 0x4 PUSH0 REVERT JUMPDEST PUSH4 0x3766135 PUSH1 0xE5 SHL PUSH0 MSTORE PUSH1 0x4 PUSH0 REVERT JUMPDEST PUSH4 0xEA3C1A4F PUSH1 0xE0 SHL PUSH0 MSTORE PUSH1 0x4 PUSH0 REVERT JUMPDEST SWAP2 SWAP1 DUP3 PUSH1 0x40 SWAP2 SUB SLT PUSH2 0x264 JUMPI PUSH1 0x20 DUP3 MLOAD PUSH2 0x3B31 DUP2 PUSH2 0x63B JUMP JUMPDEST SWAP3 ADD MLOAD PUSH2 0x4F1 DUP2 PUSH2 0x63B JUMP JUMPDEST SWAP1 SWAP2 SWAP8 SWAP7 SWAP5 SWAP6 PUSH2 0x3B4B PUSH2 0x3685 JUMP JUMPDEST SWAP6 PUSH1 0x1 PUSH1 0x1 PUSH1 0xA0 SHL SUB DUP8 AND ISZERO PUSH2 0x3E07 JUMPI JUMPDEST PUSH1 0x1 PUSH1 0xE9 SHL DUP6 AND PUSH2 0x3DDF JUMPI JUMPDEST POP PUSH2 0x3B75 DUP5 DUP11 DUP6 DUP6 PUSH2 0x3435 JUMP JUMPDEST SWAP1 PUSH3 0x10000 DUP6 PUSH1 0xE8 SHR AND PUSH2 0x3D9A JUMPI JUMPDEST PUSH1 0x40 DUP1 MLOAD PUSH4 0x2D94C699 PUSH1 0xE1 SHL DUP2 MSTORE PUSH1 0x4 DUP2 ADD DUP5 SWAP1 MSTORE SWAP11 SWAP1 DUP12 PUSH1 0x24 DUP2 ADDRESS GAS STATICCALL SWAP6 DUP7 ISZERO PUSH2 0x2285 JUMPI PUSH0 SWAP12 PUSH0 SWAP8 PUSH2 0x3D64 JUMPI JUMPDEST POP DUP12 DUP8 SWAP2 DUP12 DUP11 PUSH2 0x3BC0 PUSH2 0x29B9 JUMP JUMPDEST PUSH2 0x3BC8 PUSH2 0x29B9 JUMP JUMPDEST SWAP3 PUSH2 0x3BD1 PUSH2 0x445 JUMP JUMPDEST PUSH1 0x1 PUSH1 0x1 PUSH1 0xA0 SHL SUB DUP13 AND DUP2 MSTORE SWAP8 PUSH1 0x1 PUSH1 0x1 PUSH1 0xA0 SHL SUB DUP14 AND PUSH1 0x20 DUP11 ADD MSTORE PUSH1 0x1 PUSH1 0x1 PUSH1 0xA0 SHL SUB AND PUSH1 0x40 DUP10 ADD MSTORE PUSH1 0x60 DUP9 ADD SWAP2 DUP3 MSTORE ISZERO ISZERO PUSH1 0x80 DUP9 ADD MSTORE PUSH1 0xA0 DUP8 ADD SWAP3 DUP4 MSTORE PUSH0 PUSH1 0xC0 DUP9 ADD MSTORE JUMPDEST MLOAD PUSH2 0x3C21 SWAP1 PUSH2 0x1DC2 JUMP JUMPDEST MSTORE MLOAD PUSH2 0x3C2C SWAP1 PUSH2 0x1DC2 JUMP JUMPDEST PUSH1 0x1 PUSH1 0x1 PUSH1 0xE8 SHL SUB NOT SWAP1 SWAP2 AND SWAP1 MSTORE PUSH2 0x3C43 SWAP3 PUSH2 0x2662 JUMP JUMPDEST POP SWAP5 DUP6 ISZERO PUSH2 0x3D55 JUMPI DUP9 DUP7 PUSH2 0x3C58 SWAP3 DUP2 SWAP14 PUSH2 0x45DB JUMP JUMPDEST DUP1 DUP6 LT PUSH2 0x3D3E JUMPI POP PUSH2 0x3CD9 SWAP4 SWAP3 PUSH2 0x3CD2 SWAP3 PUSH2 0x3CCB SWAP3 PUSH2 0x3CB6 SWAP1 PUSH1 0x1 PUSH1 0x1 PUSH1 0xA0 SHL SUB DUP1 DUP6 AND SWAP1 DUP5 AND LT ISZERO PUSH2 0x3D37 JUMPI DUP11 JUMPDEST DUP1 ISZERO PUSH2 0x3D1C JUMPI PUSH1 0x1 PUSH1 0x1 PUSH1 0x80 SHL SUB DUP11 AND PUSH1 0xF SIGNEXTEND SWAP1 JUMPDEST ISZERO PUSH2 0x3D09 JUMPI PUSH2 0x79C PUSH1 0x1 PUSH1 0x1 PUSH1 0x80 SHL SUB DUP10 AND PUSH1 0xF SIGNEXTEND PUSH2 0x22DF JUMP JUMPDEST DUP9 ISZERO PUSH2 0x3D02 JUMPI DUP1 SWAP9 JUMPDEST ISZERO PUSH2 0x3CFA JUMPI POP SWAP5 PUSH2 0x2408 JUMP JUMPDEST DUP7 DUP7 PUSH2 0x37A9 JUMP JUMPDEST DUP3 DUP5 PUSH2 0x37A9 JUMP JUMPDEST PUSH2 0x3CE6 PUSH2 0x7C5 DUP4 ADDRESS PUSH2 0x4169 JUMP JUMPDEST PUSH2 0x3CEF JUMPI POP POP POP JUMP JUMPDEST PUSH2 0x273 SWAP3 CALLVALUE SWAP3 PUSH2 0x464D JUMP JUMPDEST SWAP1 POP SWAP5 PUSH2 0x2408 JUMP JUMPDEST DUP2 SWAP9 PUSH2 0x3CBF JUMP JUMPDEST PUSH1 0x1 PUSH1 0x1 PUSH1 0x80 SHL SUB DUP11 AND PUSH1 0xF SIGNEXTEND SWAP2 PUSH2 0x374E JUMP JUMPDEST PUSH2 0x3D31 PUSH1 0x1 PUSH1 0x1 PUSH1 0x80 SHL SUB DUP10 AND PUSH1 0xF SIGNEXTEND PUSH2 0x22DF JUMP JUMPDEST SWAP1 PUSH2 0x3C9C JUMP JUMPDEST DUP11 ISZERO PUSH2 0x3C87 JUMP JUMPDEST PUSH4 0xD438755D PUSH1 0xE0 SHL PUSH0 MSTORE PUSH1 0x4 MSTORE PUSH1 0x24 DUP5 SWAP1 MSTORE PUSH1 0x44 PUSH0 REVERT JUMPDEST PUSH4 0x14033F21 PUSH1 0xE1 SHL PUSH0 MSTORE PUSH1 0x4 PUSH0 REVERT JUMPDEST SWAP1 SWAP12 POP PUSH2 0x3D8A SWAP2 SWAP7 POP PUSH1 0x40 RETURNDATASIZE PUSH1 0x40 GT PUSH2 0x3D93 JUMPI JUMPDEST PUSH2 0x3D82 DUP2 DUP4 PUSH2 0x424 JUMP JUMPDEST DUP2 ADD SWAP1 PUSH2 0x3B18 JUMP JUMPDEST SWAP6 SWAP1 SWAP11 DUP12 PUSH2 0x3BB2 JUMP JUMPDEST POP RETURNDATASIZE PUSH2 0x3D78 JUMP JUMPDEST PUSH1 0x27 SLOAD PUSH1 0xFF DUP2 AND PUSH2 0x3DD0 JUMPI PUSH1 0x8 SHR PUSH3 0xFFFFFF AND ISZERO PUSH2 0x3B84 JUMPI PUSH2 0x3DCA PUSH2 0x2905 PUSH2 0x1D76 DUP5 PUSH0 MSTORE PUSH1 0x26 PUSH1 0x20 MSTORE PUSH1 0x40 PUSH0 KECCAK256 SWAP1 JUMP JUMPDEST ISZERO PUSH2 0x3B84 JUMPI JUMPDEST PUSH4 0x636280A7 PUSH1 0xE0 SHL PUSH0 MSTORE PUSH1 0x4 PUSH0 REVERT JUMPDEST PUSH2 0x1D7D PUSH2 0x3DEE SWAP2 DUP9 PUSH0 DUP9 PUSH2 0x4432 JUMP JUMPDEST PUSH2 0x3DF8 JUMPI PUSH0 PUSH2 0x3B68 JUMP JUMPDEST PUSH4 0x77BBCBED PUSH1 0xE1 SHL PUSH0 MSTORE PUSH1 0x4 PUSH0 REVERT JUMPDEST CALLER SWAP7 POP PUSH2 0x3B5C JUMP JUMPDEST SWAP2 SWAP1 SWAP3 SWAP9 SWAP8 SWAP6 SWAP7 SWAP4 SWAP5 SWAP7 PUSH2 0x3E21 PUSH2 0x3685 JUMP JUMPDEST SWAP7 PUSH1 0x1 PUSH1 0x1 PUSH1 0xA0 SHL SUB DUP9 AND ISZERO PUSH2 0x3FCD JUMPI JUMPDEST DUP11 DUP7 PUSH1 0xE0 SHR SWAP2 PUSH2 0x100 DUP4 AND PUSH2 0x3F9A JUMPI JUMPDEST DUP10 PUSH1 0x1 PUSH1 0xE9 SHL DUP4 AND PUSH2 0x3F80 JUMPI JUMPDEST POP POP PUSH2 0x3E5E SWAP2 POP DUP4 DUP7 DUP7 PUSH2 0x3435 JUMP JUMPDEST SWAP2 PUSH3 0x10000 DUP12 PUSH1 0xE8 SHR AND PUSH2 0x3F3C JUMPI JUMPDEST PUSH1 0x40 DUP1 MLOAD PUSH4 0x2D94C699 PUSH1 0xE1 SHL DUP2 MSTORE PUSH1 0x4 DUP2 ADD DUP6 SWAP1 MSTORE SWAP12 SWAP1 DUP13 PUSH1 0x24 DUP2 ADDRESS GAS STATICCALL SWAP7 DUP8 ISZERO PUSH2 0x2285 JUMPI PUSH0 SWAP13 PUSH0 SWAP9 PUSH2 0x3F0F JUMPI JUMPDEST POP DUP8 SWAP2 DUP12 DUP11 DUP16 SWAP4 PUSH2 0x3EAA PUSH2 0x29B9 JUMP JUMPDEST SWAP1 PUSH2 0x3EB3 PUSH2 0x29B9 JUMP JUMPDEST SWAP4 PUSH2 0x3EBC PUSH2 0x445 JUMP JUMPDEST PUSH1 0x1 PUSH1 0x1 PUSH1 0xA0 SHL SUB DUP14 AND DUP2 MSTORE SWAP9 PUSH1 0x1 PUSH1 0x1 PUSH1 0xA0 SHL SUB DUP15 AND PUSH1 0x20 DUP12 ADD MSTORE PUSH1 0x1 PUSH1 0x1 PUSH1 0xA0 SHL SUB AND PUSH1 0x40 DUP11 ADD MSTORE PUSH1 0x60 DUP10 ADD SWAP3 DUP4 MSTORE ISZERO ISZERO PUSH1 0x80 DUP10 ADD MSTORE PUSH1 0xA0 DUP9 ADD SWAP4 DUP5 MSTORE PUSH1 0x1 PUSH1 0x1 PUSH1 0xE0 SHL SUB NOT AND PUSH1 0xC0 DUP9 ADD MSTORE PUSH2 0x3C17 JUMP JUMPDEST DUP12 SWAP14 POP DUP10 SWAP9 POP PUSH2 0x3F30 SWAP1 PUSH1 0x40 SWAP4 SWAP3 SWAP4 RETURNDATASIZE PUSH1 0x40 GT PUSH2 0x3D93 JUMPI PUSH2 0x3D82 DUP2 DUP4 PUSH2 0x424 JUMP JUMPDEST SWAP1 SWAP14 POP SWAP8 POP SWAP1 DUP13 PUSH2 0x3E9B JUMP JUMPDEST PUSH1 0x27 SLOAD PUSH1 0xFF DUP2 AND PUSH2 0x3DD0 JUMPI PUSH1 0x8 SHR PUSH3 0xFFFFFF AND ISZERO PUSH2 0x3E6D JUMPI PUSH2 0x3F6C PUSH2 0x2905 PUSH2 0x1D76 DUP6 PUSH0 MSTORE PUSH1 0x26 PUSH1 0x20 MSTORE PUSH1 0x40 PUSH0 KECCAK256 SWAP1 JUMP JUMPDEST ISZERO PUSH2 0x3E6D JUMPI PUSH4 0x636280A7 PUSH1 0xE0 SHL PUSH0 MSTORE PUSH1 0x4 PUSH0 REVERT JUMPDEST PUSH2 0x3F8D SWAP4 PUSH2 0x1D7D SWAP4 PUSH2 0x4432 JUMP JUMPDEST PUSH2 0x3DF8 JUMPI PUSH0 DUP11 DUP2 DUP10 PUSH2 0x3E4F JUMP JUMPDEST SWAP1 POP PUSH2 0x3FB3 PUSH2 0x1D7D PUSH2 0x3FAC DUP12 ADDRESS PUSH2 0x4169 JUMP JUMPDEST TLOAD DUP5 PUSH2 0x43B0 JUMP JUMPDEST PUSH2 0x3FBE JUMPI DUP12 SWAP1 PUSH2 0x3E42 JUMP JUMPDEST PUSH4 0xE85E06F PUSH1 0xE2 SHL PUSH0 MSTORE PUSH1 0x4 PUSH0 REVERT JUMPDEST CALLER SWAP8 POP PUSH2 0x3E32 JUMP JUMPDEST PUSH1 0x40 MLOAD PUSH1 0x20 DUP2 ADD SWAP1 PUSH32 0x507BA82850C15277B79BAE90C6E97B66228A117B64D05E46B3182D141DF61CE2 DUP3 MSTORE ADDRESS PUSH1 0x60 SHL PUSH1 0x40 DUP3 ADD MSTORE PUSH1 0x34 DUP2 MSTORE PUSH2 0x4018 PUSH1 0x54 DUP3 PUSH2 0x424 JUMP JUMPDEST MLOAD SWAP1 KECCAK256 TSTORE JUMP JUMPDEST PUSH0 PUSH1 0x40 MLOAD PUSH1 0x20 DUP2 ADD SWAP1 PUSH32 0x507BA82850C15277B79BAE90C6E97B66228A117B64D05E46B3182D141DF61CE2 DUP3 MSTORE ADDRESS PUSH1 0x60 SHL PUSH1 0x40 DUP3 ADD MSTORE PUSH1 0x34 DUP2 MSTORE PUSH2 0x4018 PUSH1 0x54 DUP3 PUSH2 0x424 JUMP JUMPDEST PUSH2 0x24CB PUSH0 SWAP2 ADDRESS PUSH2 0x4169 JUMP JUMPDEST SWAP1 ISZERO PUSH2 0x8D4 JUMPI DUP1 CALLDATALOAD SWAP1 PUSH1 0xBE NOT DUP2 CALLDATASIZE SUB ADD DUP3 SLT ISZERO PUSH2 0x264 JUMPI ADD SWAP1 JUMP JUMPDEST SWAP2 SWAP1 DUP2 LT ISZERO PUSH2 0x8D4 JUMPI PUSH1 0x5 SHL DUP2 ADD CALLDATALOAD SWAP1 PUSH1 0xBE NOT DUP2 CALLDATASIZE SUB ADD DUP3 SLT ISZERO PUSH2 0x264 JUMPI ADD SWAP1 JUMP JUMPDEST CALLDATALOAD PUSH2 0x4F1 DUP2 PUSH2 0x4F4 JUMP JUMPDEST PUSH1 0x1 PUSH1 0x1 PUSH1 0xA0 SHL SUB DUP2 AND DUP1 ISZERO PUSH2 0x367A JUMPI DUP2 EXTCODESIZE ISZERO PUSH2 0x367A JUMPI PUSH2 0x40D4 DUP3 PUSH2 0x48A0 JUMP JUMPDEST DUP1 MLOAD SWAP1 SWAP4 SWAP1 ISZERO PUSH2 0x40E5 JUMPI JUMPDEST POP POP POP SWAP1 JUMP JUMPDEST PUSH1 0x40 MLOAD PUSH4 0x20318275 PUSH1 0xE1 SHL DUP2 MSTORE SWAP4 POP PUSH0 SWAP2 DUP5 SWAP2 DUP3 SWAP1 DUP5 SWAP1 DUP3 SWAP1 PUSH2 0x410B SWAP1 PUSH1 0x4 DUP4 ADD PUSH2 0x35E2 JUMP JUMPDEST SUB SWAP3 GAS CALL PUSH0 SWAP3 DUP2 PUSH2 0x414D JUMPI JUMPDEST POP PUSH2 0x412E JUMPI POP POP PUSH2 0x4126 PUSH2 0x1E4D JUMP JUMPDEST PUSH0 DUP1 DUP1 PUSH2 0x40DF JUMP JUMPDEST DUP2 DUP1 MLOAD PUSH2 0x413D JUMPI JUMPDEST POP POP PUSH2 0x4126 JUMP JUMPDEST PUSH2 0x4146 SWAP2 PUSH2 0x4913 JUMP JUMPDEST PUSH0 DUP1 PUSH2 0x4136 JUMP JUMPDEST PUSH2 0x4162 SWAP2 SWAP4 POP RETURNDATASIZE DUP1 PUSH0 DUP4 RETURNDATACOPY PUSH2 0x3661 DUP2 DUP4 PUSH2 0x424 JUMP JUMPDEST SWAP2 PUSH0 PUSH2 0x4117 JUMP JUMPDEST SWAP1 PUSH1 0x40 MLOAD SWAP1 PUSH1 0x20 DUP3 ADD SWAP3 PUSH32 0xE88690B85C82523984F05D1F281684A73AA4D4303BCA19CFE29AA89AE744616A DUP5 MSTORE PUSH1 0x1 PUSH1 0x1 PUSH1 0x60 SHL SUB NOT SWAP1 PUSH1 0x60 SHL AND PUSH1 0x40 DUP4 ADD MSTORE PUSH1 0x1 PUSH1 0x1 PUSH1 0x60 SHL SUB NOT SWAP1 PUSH1 0x60 SHL AND PUSH1 0x54 DUP3 ADD MSTORE PUSH1 0x48 DUP2 MSTORE PUSH2 0x34A1 PUSH1 0x68 DUP3 PUSH2 0x424 JUMP JUMPDEST SWAP2 PUSH1 0x40 MLOAD SWAP2 PUSH1 0x20 DUP4 ADD SWAP4 PUSH32 0x71AA94563C1D78D77DF681AD802FC1A81EA7D00CFFE4BBE002400E1D66DE80D2 DUP6 MSTORE PUSH1 0x1 PUSH1 0x1 PUSH1 0x60 SHL SUB NOT SWAP1 PUSH1 0x60 SHL AND PUSH1 0x40 DUP5 ADD MSTORE PUSH1 0x1 PUSH1 0x1 PUSH1 0x60 SHL SUB NOT SWAP1 PUSH1 0x60 SHL AND PUSH1 0x54 DUP4 ADD MSTORE PUSH1 0x1 PUSH1 0x1 PUSH1 0x60 SHL SUB NOT SWAP1 PUSH1 0x60 SHL AND PUSH1 0x68 DUP3 ADD MSTORE PUSH1 0x5C DUP2 MSTORE PUSH2 0x34A1 PUSH1 0x7C DUP3 PUSH2 0x424 JUMP JUMPDEST SWAP1 DUP2 PUSH1 0x20 SWAP2 SUB SLT PUSH2 0x264 JUMPI MLOAD PUSH2 0x4F1 DUP2 PUSH2 0x4F4 JUMP JUMPDEST SWAP2 SWAP3 SWAP2 PUSH1 0x1 PUSH1 0x1 PUSH1 0xA0 SHL SUB AND SWAP1 DUP2 PUSH2 0x427F JUMPI POP POP SUB PUSH2 0x4270 JUMPI JUMP JUMPDEST PUSH4 0xA7ADB78F PUSH1 0xE0 SHL PUSH0 MSTORE PUSH1 0x4 PUSH0 REVERT JUMPDEST SWAP2 SWAP3 SWAP1 SWAP3 PUSH2 0x4315 JUMPI PUSH1 0x40 MLOAD PUSH4 0x23B872DD PUSH1 0xE0 SHL DUP2 MSTORE PUSH1 0x1 PUSH1 0x1 PUSH1 0xA0 SHL SUB SWAP1 SWAP3 AND PUSH1 0x4 DUP4 ADD MSTORE ADDRESS PUSH1 0x24 DUP4 ADD MSTORE PUSH1 0x44 DUP3 ADD MSTORE SWAP1 PUSH1 0x20 SWAP1 DUP3 SWAP1 DUP2 PUSH0 DUP2 PUSH1 0x64 DUP2 ADD JUMPDEST SUB SWAP3 GAS CALL SWAP1 DUP2 ISZERO PUSH2 0x2285 JUMPI PUSH0 SWAP2 PUSH2 0x42E6 JUMPI JUMPDEST POP ISZERO PUSH2 0x42D7 JUMPI JUMP JUMPDEST PUSH4 0x37738691 PUSH1 0xE0 SHL PUSH0 MSTORE PUSH1 0x4 PUSH0 REVERT JUMPDEST PUSH2 0x4308 SWAP2 POP PUSH1 0x20 RETURNDATASIZE PUSH1 0x20 GT PUSH2 0x430E JUMPI JUMPDEST PUSH2 0x4300 DUP2 DUP4 PUSH2 0x424 JUMP JUMPDEST DUP2 ADD SWAP1 PUSH2 0x4240 JUMP JUMPDEST PUSH0 PUSH2 0x42CF JUMP JUMPDEST POP RETURNDATASIZE PUSH2 0x42F6 JUMP JUMPDEST PUSH4 0xDC4087EB PUSH1 0xE0 SHL PUSH0 MSTORE PUSH1 0x4 PUSH0 REVERT JUMPDEST PUSH1 0x1 PUSH1 0x1 PUSH1 0xA0 SHL SUB AND DUP1 PUSH2 0x435E JUMPI POP PUSH0 DUP1 DUP1 SWAP4 DUP2 SWAP4 DUP3 SWAP1 DUP3 ISZERO PUSH2 0x4354 JUMPI JUMPDEST PUSH1 0x1 PUSH1 0x1 PUSH1 0xA0 SHL SUB AND SWAP1 CALL ISZERO PUSH2 0x2285 JUMPI JUMP JUMPDEST PUSH2 0x8FC SWAP2 POP PUSH2 0x4342 JUMP JUMPDEST PUSH1 0x40 MLOAD PUSH4 0xA9059CBB PUSH1 0xE0 SHL DUP2 MSTORE PUSH1 0x1 PUSH1 0x1 PUSH1 0xA0 SHL SUB SWAP1 SWAP3 AND PUSH1 0x4 DUP4 ADD MSTORE PUSH1 0x24 DUP3 ADD SWAP3 SWAP1 SWAP3 MSTORE SWAP1 PUSH1 0x20 SWAP1 DUP3 SWAP1 DUP2 PUSH0 DUP2 PUSH1 0x44 DUP2 ADD PUSH2 0x42BD JUMP JUMPDEST PUSH0 SWAP2 PUSH2 0x24CB SWAP2 ADDRESS PUSH2 0x41CB JUMP JUMPDEST PUSH1 0x8 DUP3 LT ISZERO PUSH2 0x8D4 JUMPI ADD SWAP1 PUSH0 SWAP1 JUMP JUMPDEST PUSH2 0x100 DUP2 AND ISZERO PUSH2 0x442B JUMPI PUSH1 0xFF PUSH1 0x1F SLOAD AND PUSH2 0x4417 JUMPI PUSH2 0x43D3 SWAP1 PUSH1 0x9 SHR PUSH1 0x7 AND PUSH2 0x2905 JUMP JUMPDEST PUSH1 0xFF DUP2 AND ISZERO PUSH2 0x4413 JUMPI PUSH2 0x43E7 SWAP1 PUSH1 0x17 PUSH2 0x43A1 JUMP JUMPDEST POP DUP1 SLOAD PUSH2 0x43F8 SWAP1 PUSH1 0x10 SHR PUSH1 0xFF AND ISZERO SWAP1 JUMP JUMPDEST PUSH2 0x4413 JUMPI PUSH2 0x4405 SWAP1 PUSH2 0x4947 JUMP JUMPDEST DUP2 PUSH2 0x440E JUMPI POP SWAP1 JUMP JUMPDEST SWAP1 POP SWAP1 JUMP JUMPDEST POP SWAP1 JUMP JUMPDEST POP DUP1 PUSH2 0x4420 JUMPI SWAP1 JUMP JUMPDEST POP PUSH2 0x4F1 PUSH1 0x1B PUSH2 0x4947 JUMP JUMPDEST POP POP PUSH1 0x1 SWAP1 JUMP JUMPDEST SWAP2 SWAP3 SWAP2 PUSH1 0x1 PUSH1 0xE9 SHL AND ISZERO PUSH2 0x45D3 JUMPI PUSH1 0x25 SLOAD PUSH1 0xFF DUP2 AND PUSH2 0x45B1 JUMPI PUSH1 0x8 SHR PUSH1 0xFF AND PUSH2 0x458B JUMPI JUMPDEST PUSH2 0x446F PUSH2 0x2905 PUSH3 0xE0000 PUSH1 0xFF SWAP4 AND PUSH2 0x7FFF SWAP1 PUSH1 0x11 SHR AND SWAP1 JUMP JUMPDEST AND PUSH1 0x1 DUP2 SUB PUSH2 0x4483 JUMPI POP PUSH2 0x4F1 SWAP2 POP PUSH2 0x4961 JUMP JUMPDEST PUSH1 0x2 DUP2 SUB PUSH2 0x44A4 JUMPI POP POP ORIGIN PUSH0 SWAP1 DUP2 MSTORE PUSH1 0x20 DUP1 MSTORE PUSH1 0x40 SWAP1 KECCAK256 PUSH2 0x4F1 SWAP2 POP PUSH2 0x1D76 JUMP JUMPDEST PUSH1 0x3 DUP2 SUB PUSH2 0x44CD JUMPI POP POP PUSH1 0x1 PUSH1 0x1 PUSH1 0xA0 SHL SUB AND PUSH0 SWAP1 DUP2 MSTORE PUSH1 0x21 PUSH1 0x20 MSTORE PUSH1 0x40 SWAP1 KECCAK256 PUSH2 0x4F1 SWAP1 PUSH2 0x1D76 JUMP JUMPDEST PUSH1 0x4 DUP2 SUB PUSH2 0x4503 JUMPI POP ORIGIN PUSH0 SWAP1 DUP2 MSTORE PUSH1 0x20 DUP1 MSTORE PUSH1 0x40 SWAP1 KECCAK256 SWAP1 SWAP2 POP PUSH2 0x44EF SWAP1 PUSH2 0x1D76 JUMP JUMPDEST SWAP1 DUP2 PUSH2 0x44F9 JUMPI POP SWAP1 JUMP JUMPDEST PUSH2 0x4F1 SWAP2 POP PUSH2 0x4961 JUMP JUMPDEST PUSH1 0x5 DUP2 SUB PUSH2 0x452D JUMPI POP PUSH1 0x1 PUSH1 0x1 PUSH1 0xA0 SHL SUB SWAP1 SWAP2 AND PUSH0 SWAP1 DUP2 MSTORE PUSH1 0x21 PUSH1 0x20 MSTORE PUSH1 0x40 SWAP1 KECCAK256 PUSH2 0x44EF SWAP1 PUSH2 0x1D76 JUMP JUMPDEST PUSH1 0x6 EQ PUSH2 0x453B JUMPI POP POP PUSH1 0x1 SWAP1 JUMP JUMPDEST ORIGIN PUSH0 SWAP1 DUP2 MSTORE PUSH1 0x20 DUP1 MSTORE PUSH1 0x40 SWAP1 KECCAK256 PUSH2 0x4551 SWAP1 PUSH2 0x1D76 JUMP JUMPDEST SWAP2 DUP3 PUSH2 0x4562 JUMPI JUMPDEST POP DUP2 PUSH2 0x44F9 JUMPI POP SWAP1 JUMP JUMPDEST PUSH1 0x1 PUSH1 0x1 PUSH1 0xA0 SHL SUB AND PUSH0 SWAP1 DUP2 MSTORE PUSH1 0x21 PUSH1 0x20 MSTORE PUSH1 0x40 SWAP1 KECCAK256 SWAP1 SWAP2 POP PUSH2 0x4584 SWAP1 PUSH2 0x1D76 JUMP JUMPDEST SWAP1 PUSH0 PUSH2 0x4558 JUMP JUMPDEST ORIGIN PUSH0 SWAP1 DUP2 MSTORE PUSH1 0x20 DUP1 MSTORE PUSH1 0x40 SWAP1 KECCAK256 PUSH2 0x45A5 SWAP1 PUSH2 0x1D7D SWAP1 PUSH2 0x1D76 JUMP JUMPDEST ISZERO PUSH2 0x4456 JUMPI POP POP POP PUSH0 SWAP1 JUMP JUMPDEST POP POP POP PUSH1 0x1 PUSH1 0x1 PUSH1 0xA0 SHL SUB AND PUSH0 SWAP1 DUP2 MSTORE PUSH1 0x21 PUSH1 0x20 MSTORE PUSH1 0x40 SWAP1 KECCAK256 PUSH2 0x4F1 SWAP1 PUSH2 0x1D76 JUMP JUMPDEST POP POP POP PUSH1 0x1 SWAP1 JUMP JUMPDEST PUSH1 0x1 PUSH1 0x1 PUSH1 0x80 SHL SUB SWAP3 SWAP4 PUSH0 EQ PUSH2 0x460E JUMPI POP AND SWAP1 DUP1 DUP3 LT PUSH2 0x45F9 JUMPI POP POP JUMP JUMPDEST PUSH4 0x1735867 PUSH1 0xE0 SHL PUSH0 MSTORE PUSH1 0x4 MSTORE PUSH1 0x24 MSTORE PUSH1 0x44 PUSH0 REVERT JUMPDEST SWAP1 POP AND SWAP1 DUP1 DUP3 LT PUSH2 0x461D JUMPI POP POP JUMP JUMPDEST PUSH4 0x68580A19 PUSH1 0xE0 SHL PUSH0 MSTORE PUSH1 0x4 MSTORE PUSH1 0x24 MSTORE PUSH1 0x44 PUSH0 REVERT JUMPDEST SWAP2 SWAP1 SWAP2 PUSH0 DUP4 DUP3 ADD SWAP4 DUP5 SLT SWAP2 SLT SWAP1 DUP1 ISZERO DUP3 AND SWAP2 ISZERO AND OR PUSH2 0x3EB JUMPI JUMP JUMPDEST SWAP1 SWAP3 PUSH2 0x465A DUP5 DUP4 ADDRESS PUSH2 0x41CB JUMP JUMPDEST TLOAD PUSH2 0x4666 DUP5 DUP5 ADDRESS PUSH2 0x41CB JUMP JUMPDEST TLOAD SWAP2 PUSH1 0x1 PUSH1 0x1 PUSH1 0xA0 SHL SUB DUP6 DUP2 AND SWAP3 SWAP1 DUP8 AND DUP1 DUP5 EQ PUSH2 0x472F JUMPI SWAP2 DUP2 PUSH2 0x46C9 SWAP6 SWAP4 PUSH0 PUSH2 0x273 SWAP11 SWAP7 SWAP5 SLT PUSH0 EQ PUSH2 0x470F JUMPI PUSH2 0x469F PUSH2 0x46AE SWAP3 PUSH2 0x2408 JUMP JUMPDEST SWAP1 PUSH2 0x4708 JUMPI DUP3 SWAP1 JUMPDEST DUP9 DUP8 PUSH2 0x4255 JUMP JUMPDEST PUSH0 DUP4 SGT ISZERO PUSH2 0x46CE JUMPI POP POP PUSH2 0x46C3 SWAP1 DUP5 DUP7 PUSH2 0x4324 JUMP JUMPDEST DUP3 PUSH2 0x4395 JUMP JUMPDEST PUSH2 0x4395 JUMP JUMPDEST PUSH0 DUP4 SLT PUSH2 0x46DE JUMPI JUMPDEST POP POP POP PUSH2 0x46C3 JUMP JUMPDEST PUSH2 0x46EA PUSH2 0x46F8 SWAP4 PUSH2 0x2408 JUMP JUMPDEST SWAP2 PUSH2 0x4700 JUMPI SWAP1 JUMPDEST DUP6 DUP8 PUSH2 0x4255 JUMP JUMPDEST PUSH0 DUP1 DUP1 PUSH2 0x46D6 JUMP JUMPDEST POP PUSH0 SWAP1 PUSH2 0x46F1 JUMP JUMPDEST PUSH0 SWAP1 PUSH2 0x46A7 JUMP JUMPDEST POP PUSH0 DUP2 SGT PUSH2 0x471E JUMPI JUMPDEST POP PUSH2 0x46AE JUMP JUMPDEST PUSH2 0x4729 SWAP1 DUP8 DUP7 PUSH2 0x4324 JUMP JUMPDEST PUSH0 PUSH2 0x4718 JUMP JUMPDEST SWAP3 POP PUSH2 0x273 SWAP7 SWAP6 SWAP4 PUSH2 0x4740 SWAP2 PUSH2 0x4632 JUMP JUMPDEST SWAP3 PUSH0 DUP5 SLT ISZERO PUSH2 0x476C JUMPI POP PUSH2 0x4756 PUSH2 0x46C9 SWAP4 PUSH2 0x2408 JUMP JUMPDEST SWAP2 PUSH2 0x4764 JUMPI SWAP1 JUMPDEST DUP4 DUP6 PUSH2 0x4255 JUMP JUMPDEST POP PUSH0 SWAP1 PUSH2 0x475D JUMP JUMPDEST SWAP3 SWAP2 POP POP DUP3 PUSH0 DUP3 SGT PUSH2 0x4781 JUMPI JUMPDEST POP POP POP PUSH2 0x4395 JUMP JUMPDEST PUSH2 0x478A SWAP3 PUSH2 0x4324 JUMP JUMPDEST PUSH0 DUP1 DUP3 PUSH2 0x4779 JUMP JUMPDEST SWAP1 CALLDATALOAD SWAP1 PUSH1 0x1E NOT DUP2 CALLDATASIZE SUB ADD DUP3 SLT ISZERO PUSH2 0x264 JUMPI ADD DUP1 CALLDATALOAD SWAP1 PUSH1 0x1 PUSH1 0x1 PUSH1 0x40 SHL SUB DUP3 GT PUSH2 0x264 JUMPI PUSH1 0x20 ADD SWAP2 DUP2 PUSH1 0x5 SHL CALLDATASIZE SUB DUP4 SGT PUSH2 0x264 JUMPI JUMP JUMPDEST CALLDATALOAD PUSH2 0x4F1 DUP2 PUSH2 0x509 JUMP JUMPDEST SWAP5 SWAP4 SWAP3 SWAP2 SWAP1 PUSH1 0x60 DUP7 ADD PUSH2 0x47E4 DUP2 DUP9 PUSH2 0x4792 JUMP JUMPDEST SWAP1 POP ISZERO PUSH2 0x4891 JUMPI PUSH2 0x47F8 PUSH1 0x80 DUP9 ADD DUP9 PUSH2 0x4792 JUMP JUMPDEST SWAP1 POP PUSH2 0x4804 DUP3 DUP10 PUSH2 0x4792 JUMP JUMPDEST SWAP2 SWAP1 POP SUB PUSH2 0x4882 JUMPI PUSH1 0x1 PUSH2 0x4818 DUP3 DUP10 PUSH2 0x4792 JUMP JUMPDEST SWAP1 POP EQ PUSH0 EQ PUSH2 0x4876 JUMPI DUP7 PUSH2 0x482E PUSH2 0x4F1 SWAP9 PUSH2 0x23C4 JUMP JUMPDEST SWAP2 PUSH2 0x483B PUSH1 0x20 DUP4 ADD PUSH2 0x23C4 JUMP JUMPDEST PUSH2 0x486E PUSH1 0xA0 PUSH2 0x4867 PUSH2 0x4862 PUSH2 0x485C PUSH2 0x4855 PUSH1 0x40 DUP10 ADD PUSH2 0x23C4 JUMP JUMPDEST SWAP7 DUP9 PUSH2 0x4792 JUMP JUMPDEST SWAP1 PUSH2 0x23AB JUMP JUMPDEST PUSH2 0x47C7 JUMP JUMPDEST SWAP5 ADD PUSH2 0x40AA JUMP JUMPDEST SWAP4 PUSH1 0xF PUSH2 0x4E69 JUMP JUMPDEST POP PUSH2 0x4F1 SWAP6 PUSH1 0xF PUSH2 0x4AAF JUMP JUMPDEST PUSH4 0x5A7A8F9 PUSH1 0xE1 SHL PUSH0 MSTORE PUSH1 0x4 PUSH0 REVERT JUMPDEST PUSH4 0x40E8C77 PUSH1 0xE5 SHL PUSH0 MSTORE PUSH1 0x4 PUSH0 REVERT JUMPDEST SWAP1 PUSH1 0x60 SWAP2 DUP1 TLOAD SWAP1 DUP2 ISZERO DUP1 PUSH2 0x48FE JUMPI JUMPDEST ISZERO PUSH2 0x48B8 JUMPI POP POP JUMP JUMPDEST SWAP1 SWAP3 POP PUSH1 0x1F PUSH1 0x40 MLOAD SWAP4 DUP1 DUP6 MSTORE ADD SWAP1 DUP2 PUSH1 0x5 SHR SWAP1 PUSH0 JUMPDEST DUP3 DUP2 LT PUSH2 0x48E5 JUMPI POP POP POP PUSH1 0x1F NOT AND DUP3 ADD PUSH1 0x20 ADD PUSH1 0x40 MSTORE JUMP JUMPDEST DUP1 PUSH1 0x1 DUP1 SWAP3 DUP5 ADD ADD TLOAD PUSH1 0x20 DUP3 PUSH1 0x5 SHL DUP10 ADD ADD MSTORE ADD PUSH2 0x48CD JUMP JUMPDEST SWAP4 POP PUSH1 0x40 MLOAD SWAP4 PUSH0 DUP6 MSTORE PUSH1 0x20 DUP6 ADD PUSH1 0x40 MSTORE PUSH2 0x48AF JUMP JUMPDEST PUSH1 0x1F DUP3 MLOAD DUP1 DUP4 TSTORE ADD PUSH1 0x5 SHR SWAP2 PUSH0 JUMPDEST DUP4 DUP2 LT PUSH2 0x492E JUMPI POP POP POP POP JUMP JUMPDEST DUP1 PUSH1 0x20 PUSH1 0x1 SWAP3 PUSH1 0x5 SHL DUP5 ADD ADD MLOAD DUP3 DUP3 DUP7 ADD ADD TSTORE ADD PUSH2 0x4921 JUMP JUMPDEST SLOAD PUSH1 0xFF DUP2 AND SWAP1 DUP2 ISZERO PUSH2 0x442B JUMPI PUSH1 0xFF SWAP1 PUSH1 0x8 SHR AND SWAP1 NUMBER MOD LT SWAP1 JUMP JUMPDEST MLOAD ISZERO PUSH2 0x496C JUMPI PUSH1 0x1 SWAP1 JUMP JUMPDEST PUSH0 SWAP1 JUMP JUMPDEST SWAP2 SWAP1 SWAP2 PUSH1 0x40 DUP2 DUP5 SUB SLT PUSH2 0x264 JUMPI DUP1 MLOAD PUSH1 0x1 PUSH1 0x1 PUSH1 0x40 SHL SUB DUP2 GT PUSH2 0x264 JUMPI DUP4 PUSH2 0x4999 SWAP2 DUP4 ADD PUSH2 0x2A0D JUMP JUMPDEST SWAP3 PUSH1 0x20 DUP3 ADD MLOAD PUSH1 0x1 PUSH1 0x1 PUSH1 0x40 SHL SUB DUP2 GT PUSH2 0x264 JUMPI PUSH2 0x4F1 SWAP3 ADD PUSH2 0x2A0D JUMP JUMPDEST SWAP1 PUSH1 0x20 DUP1 DUP4 MLOAD SWAP3 DUP4 DUP2 MSTORE ADD SWAP3 ADD SWAP1 PUSH0 JUMPDEST DUP2 DUP2 LT PUSH2 0x49D4 JUMPI POP POP POP SWAP1 JUMP JUMPDEST DUP3 MLOAD PUSH1 0x1 PUSH1 0x1 PUSH1 0xE8 SHL SUB NOT AND DUP5 MSTORE PUSH1 0x20 SWAP4 DUP5 ADD SWAP4 SWAP1 SWAP3 ADD SWAP2 PUSH1 0x1 ADD PUSH2 0x49C7 JUMP JUMPDEST SWAP1 PUSH2 0x4F1 SWAP1 PUSH1 0x1 DUP1 PUSH1 0xA0 SHL SUB DUP4 MLOAD AND DUP2 MSTORE PUSH1 0x1 DUP1 PUSH1 0xA0 SHL SUB PUSH1 0x20 DUP5 ADD MLOAD AND PUSH1 0x20 DUP3 ADD MSTORE PUSH1 0x1 DUP1 PUSH1 0xA0 SHL SUB PUSH1 0x40 DUP5 ADD MLOAD AND PUSH1 0x40 DUP3 ADD MSTORE PUSH1 0xC0 DUP1 PUSH2 0x4A66 PUSH2 0x4A48 PUSH1 0x60 DUP8 ADD MLOAD PUSH1 0xE0 PUSH1 0x60 DUP8 ADD MSTORE PUSH1 0xE0 DUP7 ADD SWAP1 PUSH2 0x17DF JUMP JUMPDEST PUSH1 0x80 DUP8 DUP2 ADD MLOAD ISZERO ISZERO SWAP1 DUP7 ADD MSTORE PUSH1 0xA0 DUP8 ADD MLOAD DUP6 DUP3 SUB PUSH1 0xA0 DUP8 ADD MSTORE PUSH2 0x49B7 JUMP JUMPDEST SWAP5 ADD MLOAD PUSH1 0x1 PUSH1 0x1 PUSH1 0xE0 SHL SUB NOT AND SWAP2 ADD MSTORE JUMP JUMPDEST SWAP2 PUSH2 0x4AA1 SWAP1 PUSH2 0x4A93 PUSH2 0x4F1 SWAP6 SWAP4 PUSH1 0x60 DUP7 MSTORE PUSH1 0x60 DUP7 ADD SWAP1 PUSH2 0x49F4 JUMP JUMPDEST SWAP1 DUP5 DUP3 SUB PUSH1 0x20 DUP7 ADD MSTORE PUSH2 0x2A8F JUMP JUMPDEST SWAP2 PUSH1 0x40 DUP2 DUP5 SUB SWAP2 ADD MSTORE PUSH2 0x2A8F JUMP JUMPDEST SWAP7 SWAP5 SWAP6 SWAP1 SWAP3 SWAP4 SWAP2 SWAP7 PUSH1 0x60 DUP5 ADD SWAP8 PUSH2 0x4AC6 DUP10 DUP7 PUSH2 0x4792 JUMP JUMPDEST SWAP7 SWAP1 POP PUSH2 0x4E26 JUMPI JUMPDEST POP PUSH2 0x4AD8 DUP6 PUSH2 0x29DB JUMP JUMPDEST SWAP2 PUSH2 0x4AE2 DUP7 PUSH2 0x29DB JUMP JUMPDEST SWAP1 PUSH0 JUMPDEST DUP8 DUP2 LT PUSH2 0x4D90 JUMPI POP DUP2 PUSH0 SWAP2 DUP6 DUP4 DUP10 PUSH2 0x4BA9 PUSH2 0x4BD2 SWAP14 SWAP15 SWAP16 PUSH2 0x4B7D PUSH2 0x4BA2 PUSH2 0x4B0B DUP6 PUSH2 0x23C4 JUMP JUMPDEST SWAP5 PUSH2 0x4B94 PUSH2 0x4B1B PUSH1 0x20 DUP4 ADD PUSH2 0x23C4 JUMP JUMPDEST SWAP5 PUSH2 0x4B50 PUSH2 0x4B8D PUSH2 0x4B2E PUSH1 0x40 DUP7 ADD PUSH2 0x23C4 JUMP JUMPDEST PUSH2 0x4B3B PUSH1 0x80 DUP8 ADD DUP8 PUSH2 0x4792 JUMP JUMPDEST SWAP4 SWAP1 SWAP5 PUSH2 0x4B4A PUSH1 0xA0 DUP10 ADD PUSH2 0x40AA JUMP JUMPDEST SWAP8 PUSH2 0x4792 JUMP JUMPDEST SWAP9 SWAP1 SWAP10 PUSH2 0x4B6D PUSH2 0x4B5E PUSH2 0x445 JUMP JUMPDEST PUSH1 0x1 PUSH1 0x1 PUSH1 0xA0 SHL SUB SWAP1 SWAP15 AND DUP15 MSTORE JUMP JUMPDEST PUSH1 0x1 PUSH1 0x1 PUSH1 0xA0 SHL SUB AND PUSH1 0x20 DUP14 ADD MSTORE JUMP JUMPDEST PUSH1 0x1 PUSH1 0x1 PUSH1 0xA0 SHL SUB AND PUSH1 0x40 DUP12 ADD MSTORE JUMP JUMPDEST CALLDATASIZE SWAP2 PUSH2 0x48A JUMP JUMPDEST PUSH1 0x60 DUP8 ADD MSTORE ISZERO ISZERO PUSH1 0x80 DUP7 ADD MSTORE JUMP JUMPDEST CALLDATASIZE SWAP2 PUSH2 0x51B JUMP JUMPDEST PUSH1 0xA0 DUP3 ADD MSTORE PUSH1 0xC0 DUP2 ADD DUP3 SWAP1 MSTORE PUSH1 0x40 MLOAD PUSH4 0x5EFA47C7 PUSH1 0xE1 SHL DUP2 MSTORE SWAP13 DUP14 SWAP6 DUP7 SWAP5 DUP6 SWAP4 PUSH1 0x4 DUP6 ADD PUSH2 0x4A78 JUMP JUMPDEST SUB SWAP3 PUSH1 0x1 PUSH1 0x1 PUSH1 0xA0 SHL SUB AND GAS CALL SWAP1 DUP2 ISZERO PUSH2 0x2285 JUMPI PUSH0 SWAP8 PUSH0 SWAP3 PUSH2 0x4D69 JUMPI JUMPDEST POP PUSH0 JUMPDEST DUP8 DUP2 LT PUSH2 0x4C6E JUMPI POP POP POP POP POP SWAP1 PUSH2 0x4C1B SWAP5 SWAP6 PUSH2 0x4C15 SWAP4 SWAP3 PUSH2 0x4C1F JUMPI JUMPDEST POP POP PUSH2 0x1D9A JUMP JUMPDEST SWAP1 PUSH2 0x1DDF JUMP JUMPDEST MLOAD SWAP1 JUMP JUMPDEST DUP2 PUSH2 0x4C2F PUSH1 0xA0 PUSH2 0x4C59 SWAP5 ADD PUSH2 0x40AA JUMP JUMPDEST ISZERO PUSH2 0x4C60 JUMPI PUSH1 0x20 PUSH2 0x4C40 SWAP2 ADD PUSH2 0x23C4 JUMP JUMPDEST PUSH2 0x4C52 PUSH2 0x4C4C DUP6 PUSH2 0x1D9A JUMP JUMPDEST DUP8 PUSH2 0x1DDF JUMP JUMPDEST MLOAD SWAP2 PUSH2 0x37A9 JUMP JUMPDEST PUSH0 DUP1 PUSH2 0x4C0E JUMP JUMPDEST PUSH2 0x4C69 SWAP1 PUSH2 0x23C4 JUMP JUMPDEST PUSH2 0x4C40 JUMP JUMPDEST DUP1 PUSH2 0x4D2F DUP11 DUP10 PUSH2 0x4C98 DUP5 PUSH2 0x4C91 PUSH1 0x1 SWAP8 PUSH2 0x4C8B PUSH1 0x80 DUP7 ADD DUP7 PUSH2 0x4792 JUMP JUMPDEST SWAP1 PUSH2 0x23B4 JUMP JUMPDEST CALLDATALOAD SWAP4 PUSH2 0x1DDF JUMP JUMPDEST MLOAD PUSH2 0x4CD6 PUSH2 0x4CB6 PUSH2 0x4CA9 DUP8 DUP14 PUSH2 0x1DDF JUMP JUMPDEST MLOAD PUSH1 0x1 PUSH1 0x1 PUSH1 0x80 SHL SUB AND SWAP1 JUMP JUMPDEST DUP3 PUSH2 0x4CC4 PUSH2 0x4CA9 DUP10 DUP13 PUSH2 0x1DDF JUMP JUMPDEST PUSH2 0x4CD0 PUSH1 0xA0 DUP8 ADD PUSH2 0x40AA JUMP JUMPDEST SWAP3 PUSH2 0x45DB JUMP JUMPDEST PUSH2 0x4CE0 DUP6 DUP10 PUSH2 0x1DDF JUMP JUMPDEST MLOAD SWAP3 PUSH2 0x4CEE PUSH1 0xA0 DUP5 ADD PUSH2 0x40AA JUMP JUMPDEST ISZERO PUSH2 0x4D49 JUMPI PUSH2 0x4D0C PUSH1 0xA0 PUSH1 0x1 PUSH1 0x1 PUSH1 0x80 SHL SUB DUP4 AND PUSH1 0xF SIGNEXTEND SWAP5 ADD PUSH2 0x40AA JUMP JUMPDEST ISZERO PUSH2 0x4D35 JUMPI POP PUSH1 0x1 PUSH1 0x1 PUSH1 0x80 SHL SUB PUSH2 0x4D27 SWAP2 AND PUSH1 0xF SIGNEXTEND PUSH2 0x22DF JUMP JUMPDEST SWAP2 JUMPDEST DUP9 PUSH2 0x4F8D JUMP JUMPDEST ADD PUSH2 0x4BF2 JUMP JUMPDEST PUSH1 0x1 PUSH1 0x1 PUSH1 0x80 SHL SUB SWAP2 POP AND PUSH1 0xF SIGNEXTEND SWAP2 PUSH2 0x4D29 JUMP JUMPDEST PUSH2 0x4D0C PUSH1 0xA0 PUSH2 0x4D63 PUSH1 0x1 PUSH1 0x1 PUSH1 0x80 SHL SUB DUP6 AND PUSH1 0xF SIGNEXTEND PUSH2 0x22DF JUMP JUMPDEST SWAP5 PUSH2 0x1546 JUMP JUMPDEST SWAP1 SWAP8 POP PUSH2 0x4D88 SWAP2 POP RETURNDATASIZE DUP1 PUSH0 DUP4 RETURNDATACOPY PUSH2 0x4D80 DUP2 DUP4 PUSH2 0x424 JUMP JUMPDEST DUP2 ADD SWAP1 PUSH2 0x4970 JUMP JUMPDEST SWAP1 SWAP7 PUSH0 PUSH2 0x4BEF JUMP JUMPDEST PUSH1 0x1 SWAP1 PUSH2 0x4E20 PUSH2 0x4E16 PUSH2 0x4DFB PUSH2 0x4DDA DUP16 DUP13 PUSH2 0x4DAA DUP2 PUSH2 0x23C4 JUMP JUMPDEST SWAP2 PUSH2 0x4DD4 PUSH2 0x4862 DUP10 PUSH2 0x4C8B PUSH2 0x4DC1 PUSH1 0x20 DUP8 ADD PUSH2 0x23C4 JUMP JUMPDEST SWAP5 PUSH2 0x4DCE PUSH1 0x40 DUP9 ADD PUSH2 0x23C4 JUMP JUMPDEST SWAP7 PUSH2 0x4792 JUMP JUMPDEST SWAP3 PUSH2 0x3435 JUMP JUMPDEST DUP9 PUSH1 0x1 SWAP2 PUSH0 MSTORE ADD PUSH1 0x20 MSTORE PUSH1 0x40 PUSH0 KECCAK256 SLOAD SWAP1 PUSH1 0x1 PUSH1 0x1 PUSH1 0x80 SHL SUB DUP3 AND SWAP2 PUSH1 0x80 SHR SWAP1 JUMP JUMPDEST PUSH2 0x4E08 DUP6 DUP10 SWAP5 SWAP4 SWAP5 PUSH2 0x1DDF JUMP JUMPDEST SWAP1 PUSH1 0x1 PUSH1 0x1 PUSH1 0x80 SHL SUB AND SWAP1 MSTORE JUMP JUMPDEST PUSH2 0x4E08 DUP4 DUP10 PUSH2 0x1DDF JUMP JUMPDEST ADD PUSH2 0x4AE5 JUMP JUMPDEST PUSH2 0x4E54 SWAP1 PUSH2 0x4E36 PUSH1 0xA0 DUP8 ADD PUSH2 0x40AA JUMP JUMPDEST ISZERO PUSH2 0x4E5A JUMPI PUSH2 0x4E4D PUSH2 0x4E47 DUP8 PUSH2 0x23C4 JUMP JUMPDEST SWAP2 PUSH2 0x2408 JUMP JUMPDEST SWAP1 DUP10 PUSH2 0x37A9 JUMP JUMPDEST PUSH0 PUSH2 0x4ACE JUMP JUMPDEST PUSH2 0x4E4D PUSH2 0x4E47 PUSH1 0x20 DUP9 ADD PUSH2 0x23C4 JUMP JUMPDEST SWAP2 DUP6 DUP1 SWAP13 SWAP12 DUP3 SWAP9 SWAP4 SWAP8 SWAP12 SWAP10 SWAP6 SWAP11 SWAP7 SWAP11 PUSH2 0x4E84 DUP13 DUP3 DUP7 DUP13 PUSH2 0x3435 JUMP JUMPDEST SWAP7 PUSH2 0x4F64 JUMPI JUMPDEST DUP9 DUP6 PUSH2 0x4EB1 DUP10 DUP10 PUSH1 0x1 SWAP2 PUSH0 MSTORE ADD PUSH1 0x20 MSTORE PUSH1 0x40 PUSH0 KECCAK256 SLOAD SWAP1 PUSH1 0x1 PUSH1 0x1 PUSH1 0x80 SHL SUB DUP3 AND SWAP2 PUSH1 0x80 SHR SWAP1 JUMP JUMPDEST SWAP15 DUP16 SWAP5 DUP3 SWAP9 PUSH2 0x4EC1 SWAP9 SWAP4 SWAP6 PUSH2 0x5073 JUMP JUMPDEST SWAP12 DUP13 DUP1 SWAP11 PUSH2 0x4ECE SWAP4 PUSH2 0x45DB JUMP JUMPDEST PUSH2 0x4F09 SWAP3 DUP10 ISZERO PUSH2 0x4F49 JUMPI PUSH1 0x1 PUSH1 0x1 PUSH1 0x80 SHL SUB DUP3 AND PUSH1 0xF SIGNEXTEND SWAP2 JUMPDEST DUP11 ISZERO PUSH2 0x4F37 JUMPI POP PUSH2 0x4F03 PUSH1 0x1 PUSH1 0x1 PUSH1 0x80 SHL SUB DUP11 AND PUSH1 0xF SIGNEXTEND PUSH2 0x22DF JUMP JUMPDEST SWAP3 PUSH2 0x4F8D JUMP JUMPDEST PUSH2 0x4F15 JUMPI JUMPDEST POP POP POP POP POP JUMP JUMPDEST PUSH2 0x4F25 SWAP5 ISZERO PUSH2 0x4F2F JUMPI POP SWAP1 PUSH2 0x37A9 JUMP JUMPDEST PUSH0 DUP3 DUP2 DUP1 DUP1 PUSH2 0x4F0E JUMP JUMPDEST SWAP1 POP SWAP1 PUSH2 0x37A9 JUMP JUMPDEST PUSH1 0x1 PUSH1 0x1 PUSH1 0x80 SHL SUB AND PUSH1 0xF SIGNEXTEND SWAP3 PUSH2 0x4F8D JUMP JUMPDEST PUSH2 0x4F5E PUSH1 0x1 PUSH1 0x1 PUSH1 0x80 SHL SUB DUP11 AND PUSH1 0xF SIGNEXTEND PUSH2 0x22DF JUMP JUMPDEST SWAP2 PUSH2 0x4EE7 JUMP JUMPDEST DUP3 ISZERO PUSH2 0x4F84 JUMPI PUSH2 0x4F7F DUP10 JUMPDEST PUSH2 0x4F78 DUP8 PUSH2 0x2408 JUMP JUMPDEST SWAP1 DUP14 PUSH2 0x37A9 JUMP JUMPDEST PUSH2 0x4E8A JUMP JUMPDEST PUSH2 0x4F7F DUP5 PUSH2 0x4F6F JUMP JUMPDEST PUSH1 0x1 SWAP1 SWAP4 SWAP3 SWAP4 ADD SWAP2 DUP2 PUSH0 MSTORE DUP3 PUSH1 0x20 MSTORE PUSH1 0x1 PUSH1 0x1 PUSH1 0x80 SHL SUB PUSH2 0x4FC5 PUSH2 0x4FBB PUSH1 0x40 PUSH0 KECCAK256 SLOAD SWAP7 DUP4 DUP9 AND PUSH1 0xF SIGNEXTEND PUSH2 0x3728 JUMP JUMPDEST SWAP3 DUP7 PUSH1 0x80 SAR PUSH2 0x3728 JUMP JUMPDEST DUP2 NOT SWAP1 PUSH1 0x80 SHL AND SWAP2 AND OR SWAP3 DUP4 SUB PUSH2 0x4FDB JUMPI POP POP POP JUMP JUMPDEST PUSH0 MSTORE PUSH1 0x20 MSTORE PUSH1 0x40 PUSH0 KECCAK256 SSTORE JUMP JUMPDEST SWAP2 SWAP1 DUP3 PUSH1 0x40 SWAP2 SUB SLT PUSH2 0x264 JUMPI PUSH1 0x20 DUP3 MLOAD SWAP3 ADD MLOAD SWAP1 JUMP JUMPDEST SWAP2 SWAP4 SWAP3 PUSH1 0x1 PUSH1 0x1 PUSH1 0x80 SHL SUB SWAP1 DUP2 PUSH2 0x501E PUSH1 0x40 SWAP5 PUSH1 0x60 DUP8 MSTORE PUSH1 0x60 DUP8 ADD SWAP1 PUSH2 0x49F4 JUMP JUMPDEST SWAP7 AND PUSH1 0x20 DUP6 ADD MSTORE AND SWAP2 ADD MSTORE JUMP JUMPDEST SWAP1 PUSH8 0xDE0B6B3A7640000 DUP3 MUL SWAP2 DUP1 DUP4 DIV PUSH8 0xDE0B6B3A7640000 EQ SWAP1 ISZERO OR ISZERO PUSH2 0x3EB JUMPI JUMP JUMPDEST SWAP1 PUSH8 0x120A871CC0020000 DUP3 MUL SWAP2 DUP1 DUP4 DIV PUSH8 0x120A871CC0020000 EQ SWAP1 ISZERO OR ISZERO PUSH2 0x3EB JUMPI JUMP JUMPDEST PUSH2 0x512E SWAP9 SWAP4 PUSH0 SWAP3 PUSH2 0x50F9 PUSH1 0x40 SWAP9 SWAP11 SWAP8 SWAP10 SWAP6 PUSH2 0x50EA PUSH2 0x508F PUSH2 0x29B9 JUMP JUMPDEST SWAP4 DUP14 PUSH2 0x509A DUP7 PUSH2 0x1DC2 JUMP JUMPDEST MSTORE PUSH2 0x50C0 PUSH2 0x50A6 PUSH2 0x29B9 JUMP JUMPDEST SWAP7 PUSH2 0x50B0 DUP9 PUSH2 0x1DC2 JUMP JUMPDEST PUSH1 0x1 PUSH1 0x1 PUSH1 0xE8 SHL SUB NOT SWAP1 SWAP2 AND SWAP1 MSTORE JUMP JUMPDEST PUSH2 0x50DA PUSH2 0x50CB PUSH2 0x445 JUMP JUMPDEST PUSH1 0x1 PUSH1 0x1 PUSH1 0xA0 SHL SUB SWAP1 SWAP9 AND DUP9 MSTORE JUMP JUMPDEST PUSH1 0x1 PUSH1 0x1 PUSH1 0xA0 SHL SUB AND PUSH1 0x20 DUP8 ADD MSTORE JUMP JUMPDEST PUSH1 0x1 PUSH1 0x1 PUSH1 0xA0 SHL SUB AND DUP5 DUP11 ADD MSTORE JUMP JUMPDEST PUSH1 0x60 DUP4 ADD MSTORE DUP8 ISZERO ISZERO PUSH1 0x80 DUP4 ADD MSTORE PUSH1 0xA0 DUP3 ADD MSTORE PUSH1 0xC0 DUP2 ADD DUP3 SWAP1 MSTORE DUP6 MLOAD PUSH4 0xA74713CF PUSH1 0xE0 SHL DUP2 MSTORE SWAP9 DUP10 SWAP6 DUP7 SWAP5 DUP6 SWAP4 PUSH1 0x4 DUP6 ADD PUSH2 0x4FFD JUMP JUMPDEST SUB SWAP3 PUSH1 0x1 PUSH1 0x1 PUSH1 0xA0 SHL SUB AND GAS CALL SWAP3 DUP4 ISZERO PUSH2 0x2285 JUMPI PUSH0 SWAP4 PUSH2 0x5191 JUMPI JUMPDEST POP DUP3 ISZERO PUSH2 0x5155 JUMPI POP POP SWAP1 JUMP JUMPDEST SWAP1 SWAP2 POP ISZERO PUSH2 0x5177 JUMPI PUSH2 0x5169 PUSH2 0x4F1 SWAP2 PUSH2 0x504F JUMP JUMPDEST PUSH8 0xDE0B6B3A7640000 SWAP1 DIV SWAP1 JUMP JUMPDEST PUSH2 0x5183 PUSH2 0x4F1 SWAP2 PUSH2 0x502B JUMP JUMPDEST PUSH8 0x120A871CC0020000 SWAP1 DIV SWAP1 JUMP JUMPDEST PUSH2 0x51B4 SWAP2 SWAP4 POP PUSH1 0x40 RETURNDATASIZE PUSH1 0x40 GT PUSH2 0x51BC JUMPI JUMPDEST PUSH2 0x51AC DUP2 DUP4 PUSH2 0x424 JUMP JUMPDEST DUP2 ADD SWAP1 PUSH2 0x4FE7 JUMP JUMPDEST POP SWAP2 PUSH0 PUSH2 0x5149 JUMP JUMPDEST POP RETURNDATASIZE PUSH2 0x51A2 JUMP INVALID SHL RETURNDATASIZE PUSH31 0xDB2E9C0B0E7C525B20AAAEF0F5940D2ED71663C7D39266ECAFAC728859A264 PUSH10 0x706673582212209C95FA 0xAD 0xA5 0x2E MCOPY 0xAE 0xB0 PUSH15 0xAFB21FE673B48AEBA579AEBD9E6C08 SWAP10 PUSH1 0x6 POP 0x29 ORIGIN SMOD PUSH5 0x736F6C6343 STOP ADDMOD 0x1E STOP CALLER "},"methodIdentifiers":{"_decodeTwoBytes(bytes)":"f9158ee5","allowance(address,address,uint256)":"598af9e7","approve(address,uint256,uint256)":"426a8493","balanceOf(address,uint256)":"00fdd58e","batchSwap((address,address,address,bytes3[],uint256[],bool)[],uint256,uint256)":"9d2ec6e4","commitSwap(bytes32)":"5b7499b5","configurableDataBridges(uint256)":"e11ba51e","configureProtocolFee(address,uint16)":"94756e9b","createPool(address,address,address,bytes3)":"5670f55a","defaultData0Bridge()":"3d465aae","emergencyPauseProtocolPools(uint8)":"78a8317f","executeCommittedSwap(address,address,address,bytes3,uint256,bool,uint256,uint64,bytes32)":"4dbb4c5e","executeLiquidityAdd(uint256,address,address,uint256,uint256,uint256,address,uint256)":"46529d4e","executeLiquidityRemove(uint256,address,address,uint256,uint256,uint256,address)":"23189d51","flashSession(address,bytes,address[])":"5dfb78af","getCommitNonce(address)":"66387140","getInventory(uint256)":"5b298d32","getPoolInfo(uint256)":"2f380b35","getQuote((address,address,address,uint256[],bool,bytes3[],bytes4),uint128,uint128)":"a74713cf","getQuoteAuto((address,address,address,uint256[],bool,bytes3[],bytes4),uint128,uint128,address)":"0d5f74d5","getQuoteBatch((address,address,address,uint256[],bool,bytes3[],bytes4),uint128[],uint128[])":"bdf48f8e","getQuoteBatchAuto((address,address,address,uint256[],bool,bytes3[],bytes4),uint128[],uint128[],address)":"cc489582","getUserDeltas(address,address[])":"314e2321","isOperator(address,address)":"b6363cf2","liquidityManager()":"33827438","routerGetQuote((address,address,address,uint256[],bool,bytes3[],bytes4),uint128,uint128)":"a465ba0f","setDataBridge(uint8,address)":"26e34a4e","setGovernance(address,address)":"de87396c","setLiquidityManager(address)":"3c1624d4","setOperator(address,bool)":"558a7297","supportsInterface(bytes4)":"01ffc9a7","swap(address,address,address,bytes3,uint256,bool,uint256)":"d92bc84c","swapWithProtection(address,address,address,bytes3,uint256,bool,uint256,bytes4)":"57c9a5fd","totalLiquidity(uint256)":"b5e60c3c","transfer(address,uint256,uint256)":"095bcdb6","transferFrom(address,address,uint256,uint256)":"fe99049a"}}}}}