{"contracts/z_remix_test/AggregatorGasMeasurer.sol":{"AggregatorGasMeasurer":{"abi":[{"anonymous":false,"inputs":[{"indexed":false,"internalType":"uint256","name":"spot","type":"uint256"},{"indexed":false,"internalType":"uint256","name":"twap","type":"uint256"}],"name":"Measured","type":"event"},{"inputs":[],"name":"lastSpot","outputs":[{"internalType":"uint256","name":"","type":"uint256"}],"stateMutability":"view","type":"function"},{"inputs":[],"name":"lastTwap","outputs":[{"internalType":"uint256","name":"","type":"uint256"}],"stateMutability":"view","type":"function"},{"inputs":[{"internalType":"address","name":"aggregator","type":"address"},{"components":[{"internalType":"address","name":"asset0","type":"address"},{"internalType":"address","name":"asset1","type":"address"},{"internalType":"address","name":"quoter","type":"address"},{"internalType":"uint256","name":"amount","type":"uint256"},{"internalType":"uint128","name":"asset0Balance","type":"uint128"},{"internalType":"uint128","name":"asset1Balance","type":"uint128"},{"internalType":"uint16","name":"bucketID","type":"uint16"},{"internalType":"bool","name":"zeroForOne","type":"bool"}],"internalType":"struct QuoteParams","name":"params","type":"tuple"}],"name":"measure","outputs":[],"stateMutability":"nonpayable","type":"function"}],"evm":{"bytecode":{"linkReferences":{},"object":"608080604052346015576102d2908161001a8239f35b5f80fdfe6080806040526004361015610012575f80fd5b5f3560e01c9081634e02877c14610260575080637d80abe11461005d5763fd85d6001461003d575f80fd5b34610059575f3660031901126100595760205f54604051908152f35b5f80fd5b3461005957610120366003190112610059576004356001600160a01b038116908190036100595761010036602319011261005957604051633bd1104b60e01b8152906024356001600160a01b038116908190036100595760048301526044356001600160a01b038116908190036100595760248301526064356001600160a01b03811690819003610059576044830152608435606483015260a4356001600160801b03811680910361005957608483015260c4356001600160801b0381168091036100595760a483015260e43561ffff81168091036100595760c4830152610104359081151580920361005957610104835f8193819560e48401525af1908115610255575f916101b7575b50604081805181010312610059576040818160207fdffb378427fd5e3f5b0aab51db97d3bcc29dff31b5c4bd5b4c9f9205e9e49419940151910151815f558060015582519182526020820152a1005b90503d805f833e6101c8818361027a565b8101906020818303126100595780519067ffffffffffffffff8211610059570181601f820112156100595780519067ffffffffffffffff8211610241576040519261021d601f8401601f19166020018561027a565b8284526020838301011161005957815f9260208093018386015e8301015281610168565b634e487b7160e01b5f52604160045260245ffd5b6040513d5f823e3d90fd5b34610059575f366003190112610059576020906001548152f35b90601f8019910116810190811067ffffffffffffffff8211176102415760405256fea2646970667358221220f1c2360ee7eecd35d3958c64eafe504da193126b14412ec3e8c4f1777062143e64736f6c634300081e0033","opcodes":"PUSH1 0x80 DUP1 PUSH1 0x40 MSTORE CALLVALUE PUSH1 0x15 JUMPI PUSH2 0x2D2 SWAP1 DUP2 PUSH2 0x1A DUP3 CODECOPY RETURN JUMPDEST PUSH0 DUP1 REVERT INVALID PUSH1 0x80 DUP1 PUSH1 0x40 MSTORE PUSH1 0x4 CALLDATASIZE LT ISZERO PUSH2 0x12 JUMPI PUSH0 DUP1 REVERT JUMPDEST PUSH0 CALLDATALOAD PUSH1 0xE0 SHR SWAP1 DUP2 PUSH4 0x4E02877C EQ PUSH2 0x260 JUMPI POP DUP1 PUSH4 0x7D80ABE1 EQ PUSH2 0x5D JUMPI PUSH4 0xFD85D600 EQ PUSH2 0x3D JUMPI PUSH0 DUP1 REVERT JUMPDEST CALLVALUE PUSH2 0x59 JUMPI PUSH0 CALLDATASIZE PUSH1 0x3 NOT ADD SLT PUSH2 0x59 JUMPI PUSH1 0x20 PUSH0 SLOAD PUSH1 0x40 MLOAD SWAP1 DUP2 MSTORE RETURN JUMPDEST PUSH0 DUP1 REVERT JUMPDEST CALLVALUE PUSH2 0x59 JUMPI PUSH2 0x120 CALLDATASIZE PUSH1 0x3 NOT ADD SLT PUSH2 0x59 JUMPI PUSH1 0x4 CALLDATALOAD PUSH1 0x1 PUSH1 0x1 PUSH1 0xA0 SHL SUB DUP2 AND SWAP1 DUP2 SWAP1 SUB PUSH2 0x59 JUMPI PUSH2 0x100 CALLDATASIZE PUSH1 0x23 NOT ADD SLT PUSH2 0x59 JUMPI PUSH1 0x40 MLOAD PUSH4 0x3BD1104B PUSH1 0xE0 SHL DUP2 MSTORE SWAP1 PUSH1 0x24 CALLDATALOAD PUSH1 0x1 PUSH1 0x1 PUSH1 0xA0 SHL SUB DUP2 AND SWAP1 DUP2 SWAP1 SUB PUSH2 0x59 JUMPI PUSH1 0x4 DUP4 ADD MSTORE PUSH1 0x44 CALLDATALOAD PUSH1 0x1 PUSH1 0x1 PUSH1 0xA0 SHL SUB DUP2 AND SWAP1 DUP2 SWAP1 SUB PUSH2 0x59 JUMPI PUSH1 0x24 DUP4 ADD MSTORE PUSH1 0x64 CALLDATALOAD PUSH1 0x1 PUSH1 0x1 PUSH1 0xA0 SHL SUB DUP2 AND SWAP1 DUP2 SWAP1 SUB PUSH2 0x59 JUMPI PUSH1 0x44 DUP4 ADD MSTORE PUSH1 0x84 CALLDATALOAD PUSH1 0x64 DUP4 ADD MSTORE PUSH1 0xA4 CALLDATALOAD PUSH1 0x1 PUSH1 0x1 PUSH1 0x80 SHL SUB DUP2 AND DUP1 SWAP2 SUB PUSH2 0x59 JUMPI PUSH1 0x84 DUP4 ADD MSTORE PUSH1 0xC4 CALLDATALOAD PUSH1 0x1 PUSH1 0x1 PUSH1 0x80 SHL SUB DUP2 AND DUP1 SWAP2 SUB PUSH2 0x59 JUMPI PUSH1 0xA4 DUP4 ADD MSTORE PUSH1 0xE4 CALLDATALOAD PUSH2 0xFFFF DUP2 AND DUP1 SWAP2 SUB PUSH2 0x59 JUMPI PUSH1 0xC4 DUP4 ADD MSTORE PUSH2 0x104 CALLDATALOAD SWAP1 DUP2 ISZERO ISZERO DUP1 SWAP3 SUB PUSH2 0x59 JUMPI PUSH2 0x104 DUP4 PUSH0 DUP2 SWAP4 DUP2 SWAP6 PUSH1 0xE4 DUP5 ADD MSTORE GAS CALL SWAP1 DUP2 ISZERO PUSH2 0x255 JUMPI PUSH0 SWAP2 PUSH2 0x1B7 JUMPI JUMPDEST POP PUSH1 0x40 DUP2 DUP1 MLOAD DUP2 ADD SUB SLT PUSH2 0x59 JUMPI PUSH1 0x40 DUP2 DUP2 PUSH1 0x20 PUSH32 0xDFFB378427FD5E3F5B0AAB51DB97D3BCC29DFF31B5C4BD5B4C9F9205E9E49419 SWAP5 ADD MLOAD SWAP2 ADD MLOAD DUP2 PUSH0 SSTORE DUP1 PUSH1 0x1 SSTORE DUP3 MLOAD SWAP2 DUP3 MSTORE PUSH1 0x20 DUP3 ADD MSTORE LOG1 STOP JUMPDEST SWAP1 POP RETURNDATASIZE DUP1 PUSH0 DUP4 RETURNDATACOPY PUSH2 0x1C8 DUP2 DUP4 PUSH2 0x27A JUMP JUMPDEST DUP2 ADD SWAP1 PUSH1 0x20 DUP2 DUP4 SUB SLT PUSH2 0x59 JUMPI DUP1 MLOAD SWAP1 PUSH8 0xFFFFFFFFFFFFFFFF DUP3 GT PUSH2 0x59 JUMPI ADD DUP2 PUSH1 0x1F DUP3 ADD SLT ISZERO PUSH2 0x59 JUMPI DUP1 MLOAD SWAP1 PUSH8 0xFFFFFFFFFFFFFFFF DUP3 GT PUSH2 0x241 JUMPI PUSH1 0x40 MLOAD SWAP3 PUSH2 0x21D PUSH1 0x1F DUP5 ADD PUSH1 0x1F NOT AND PUSH1 0x20 ADD DUP6 PUSH2 0x27A JUMP JUMPDEST DUP3 DUP5 MSTORE PUSH1 0x20 DUP4 DUP4 ADD ADD GT PUSH2 0x59 JUMPI DUP2 PUSH0 SWAP3 PUSH1 0x20 DUP1 SWAP4 ADD DUP4 DUP7 ADD MCOPY DUP4 ADD ADD MSTORE DUP2 PUSH2 0x168 JUMP JUMPDEST PUSH4 0x4E487B71 PUSH1 0xE0 SHL PUSH0 MSTORE PUSH1 0x41 PUSH1 0x4 MSTORE PUSH1 0x24 PUSH0 REVERT JUMPDEST PUSH1 0x40 MLOAD RETURNDATASIZE PUSH0 DUP3 RETURNDATACOPY RETURNDATASIZE SWAP1 REVERT JUMPDEST CALLVALUE PUSH2 0x59 JUMPI PUSH0 CALLDATASIZE PUSH1 0x3 NOT ADD SLT PUSH2 0x59 JUMPI PUSH1 0x20 SWAP1 PUSH1 0x1 SLOAD DUP2 MSTORE RETURN JUMPDEST SWAP1 PUSH1 0x1F DUP1 NOT SWAP2 ADD AND DUP2 ADD SWAP1 DUP2 LT PUSH8 0xFFFFFFFFFFFFFFFF DUP3 GT OR PUSH2 0x241 JUMPI PUSH1 0x40 MSTORE JUMP INVALID LOG2 PUSH5 0x6970667358 0x22 SLT KECCAK256 CALL 0xC2 CALLDATASIZE 0xE SWAPN 0xEE 0xCD CALLDATALOAD 0xD3 SWAP6 DUP13 PUSH5 0xEAFE504DA1 SWAP4 SLT PUSH12 0x14412EC3E8C4F1777062143E PUSH5 0x736F6C6343 STOP ADDMOD 0x1E STOP CALLER "},"methodIdentifiers":{"lastSpot()":"fd85d600","lastTwap()":"4e02877c","measure(address,(address,address,address,uint256,uint128,uint128,uint16,bool))":"7d80abe1"}}}}}