{"contracts/Peripheral/DataBridges/real/TokenAliasRegistry.sol":{"TokenAliasRegistry":{"abi":[{"inputs":[],"stateMutability":"nonpayable","type":"constructor"},{"inputs":[{"internalType":"address","name":"","type":"address"}],"name":"chainlinkBase","outputs":[{"internalType":"address","name":"","type":"address"}],"stateMutability":"view","type":"function"},{"inputs":[{"internalType":"address","name":"token","type":"address"}],"name":"getChainlinkBase","outputs":[{"internalType":"address","name":"","type":"address"}],"stateMutability":"view","type":"function"},{"inputs":[{"internalType":"address","name":"token","type":"address"}],"name":"getRedstoneDecimals","outputs":[{"internalType":"uint8","name":"","type":"uint8"}],"stateMutability":"view","type":"function"},{"inputs":[{"internalType":"address","name":"token","type":"address"}],"name":"getRedstoneFeedId","outputs":[{"internalType":"bytes32","name":"","type":"bytes32"}],"stateMutability":"view","type":"function"},{"inputs":[],"name":"owner","outputs":[{"internalType":"address","name":"","type":"address"}],"stateMutability":"view","type":"function"},{"inputs":[{"internalType":"address","name":"","type":"address"}],"name":"redstoneDecimals","outputs":[{"internalType":"uint8","name":"","type":"uint8"}],"stateMutability":"view","type":"function"},{"inputs":[{"internalType":"address","name":"","type":"address"}],"name":"redstoneFeedId","outputs":[{"internalType":"bytes32","name":"","type":"bytes32"}],"stateMutability":"view","type":"function"},{"inputs":[{"internalType":"address","name":"token","type":"address"},{"internalType":"address","name":"base","type":"address"}],"name":"setChainlinkBase","outputs":[],"stateMutability":"nonpayable","type":"function"},{"inputs":[{"internalType":"address","name":"token","type":"address"},{"internalType":"uint8","name":"dec","type":"uint8"}],"name":"setRedstoneDecimals","outputs":[],"stateMutability":"nonpayable","type":"function"},{"inputs":[{"internalType":"address","name":"token","type":"address"},{"internalType":"bytes32","name":"id","type":"bytes32"}],"name":"setRedstoneFeedId","outputs":[],"stateMutability":"nonpayable","type":"function"}],"evm":{"bytecode":{"linkReferences":{},"object":"60a080604052346103b557336080527f2a11cb67ca5c7e99dba99b50e02c11472d0f19c22ed5af42a1599a7f57e1c7a480546001600160a01b031990811673eeeeeeeeeeeeeeeeeeeeeeeeeeeeeeeeeeeeeeee179091557ff0b998666205e50af945dcd5198861491334a6162cc24264d9a801634ee07ec88054821673bbbbbbbbbbbbbbbbbbbbbbbbbbbbbbbbbbbbbbbb1790557fc6521c8ea4247e8beb499344e591b9401fb2807ff9997dd598fd9e56c73a264d8054821673a0b86991c6218b36c1d19d4a2e9eb0ce3606eb481790557fa934b07068f5d95a11413ed6d08a4a1122dc4b8c14a6ab2d94f8b279dac630428054821673dac17f958d2ee523a2206206994597c13d831ec71790557f5306b8fbe80b30a74098357ee8e26fad8dc069da9011cca5f0870a0a5982e54180548216736b175474e89094c44da98b954eedeac495271d0f1790557f6da98f1d47bb0bc5549e1497f71ab684f8d693b19b458fbccae05e126d246e908054909116731f9840a85d5af5bf1d1762f925bdaddc4201f9849081179091556208aa8960eb1b7f49e349d4f386739afdf8e55db7675b584d46c3b2a603eef62554e21dc437b5db556242544360e81b7f158cab4f3f3d7fb3fa7c40cadad4cf2a7d7d1541704c6190fb3782e9411c281755635553444360e01b7f84893e0f271e5f8233d24aa85ba38e0d2ed8f0fc8f608c286ccee51e6c35dd6e55631554d11560e21b7f591a3b2777bc31889c69fb5cad740ac457874aa5ce74c0ad08912df8ad7d112c556244414960e81b7f28c420d41601e064fc8cc12b320362ca54019acc8f163ced66d9dc6175c088285562554e4960e81b7f6eb4ff08931ec4fe82ed6eeddf0ef37686dad4f0d9a67a18b27a02560a0f52135560026020527fde032e96a833a2191f55c5766e34554d9b07734477ea9cb69c40158c1078e793805460ff1990811660089081179092557f3459054d09ae8631455b798b2b5d106e17bb4e68a39d2d2a935f5f1b7253988b80548216831790557fb7598821b71eb990d952f174dec3507a6d48dc93be8e23cae785c98ca310bfbb80548216831790557ff4f699a1ef35e64890828cc562d137cceeab28af8455567ef14b6ec385c8e44180548216831790557ff02f5385b52432c1a270c20c346d380219f286755cbd16bede4ce0fb454a472280548216831790555f929092527f8e26ad65a8968434acdb37383cda23018c5945aba6d6e7c8399e7184ccde361780549092161790556103cb90816103ba823960805181818161018c015281816101f80152818161025501526102c50152f35b5f80fdfe6080806040526004361015610012575f80fd5b5f3560e01c908163057f9c8114610310575080631c95f6e1146102a6578063375be0031461008a57806348f57536146101185780634f571a5b146102275780638da5cb5b146101e35780639b26d6e814610157578063a5a8393214610118578063c71bff5e146100c65763df7ad9be1461008a575f80fd5b346100c25760203660031901126100c2576001600160a01b036100ab610347565b165f526001602052602060405f2054604051908152f35b5f80fd5b346100c25760203660031901126100c2576001600160a01b036100e7610347565b165f52600260205260ff60405f20541680155f146101105750602060085b60ff60405191168152f35b602090610105565b346100c25760203660031901126100c2576001600160a01b03610139610347565b165f525f602052602060018060a01b0360405f205416604051908152f35b346100c25760403660031901126100c257610170610347565b6024356001600160a01b03811691908290036100c2576101ba337f00000000000000000000000000000000000000000000000000000000000000006001600160a01b03161461035d565b6001600160a01b03165f90815260208190526040902080546001600160a01b0319169091179055005b346100c2575f3660031901126100c2576040517f00000000000000000000000000000000000000000000000000000000000000006001600160a01b03168152602090f35b346100c25760403660031901126100c257610240610347565b6024359060ff82168092036100c257610283337f00000000000000000000000000000000000000000000000000000000000000006001600160a01b03161461035d565b6001600160a01b03165f908152600260205260409020805460ff19169091179055005b346100c25760403660031901126100c2576102bf610347565b6102f3337f00000000000000000000000000000000000000000000000000000000000000006001600160a01b03161461035d565b6001600160a01b03165f9081526001602052604090206024359055005b346100c25760203660031901126100c2576020906001600160a01b03610334610347565b165f526002825260ff60405f2054168152f35b600435906001600160a01b03821682036100c257565b1561036457565b60405162461bcd60e51b81526020600482015260096024820152683737ba1037bbb732b960b91b6044820152606490fdfea2646970667358221220b4d979126d2fd01f190764c1c9e88c1a8d4f3663d22addcbb66522e65552784164736f6c634300081e0033","opcodes":"PUSH1 0xA0 DUP1 PUSH1 0x40 MSTORE CALLVALUE PUSH2 0x3B5 JUMPI CALLER PUSH1 0x80 MSTORE PUSH32 0x2A11CB67CA5C7E99DBA99B50E02C11472D0F19C22ED5AF42A1599A7F57E1C7A4 DUP1 SLOAD PUSH1 0x1 PUSH1 0x1 PUSH1 0xA0 SHL SUB NOT SWAP1 DUP2 AND PUSH20 0xEEEEEEEEEEEEEEEEEEEEEEEEEEEEEEEEEEEEEEEE OR SWAP1 SWAP2 SSTORE PUSH32 0xF0B998666205E50AF945DCD5198861491334A6162CC24264D9A801634EE07EC8 DUP1 SLOAD DUP3 AND PUSH20 0xBBBBBBBBBBBBBBBBBBBBBBBBBBBBBBBBBBBBBBBB OR SWAP1 SSTORE PUSH32 0xC6521C8EA4247E8BEB499344E591B9401FB2807FF9997DD598FD9E56C73A264D DUP1 SLOAD DUP3 AND PUSH20 0xA0B86991C6218B36C1D19D4A2E9EB0CE3606EB48 OR SWAP1 SSTORE PUSH32 0xA934B07068F5D95A11413ED6D08A4A1122DC4B8C14A6AB2D94F8B279DAC63042 DUP1 SLOAD DUP3 AND PUSH20 0xDAC17F958D2EE523A2206206994597C13D831EC7 OR SWAP1 SSTORE PUSH32 0x5306B8FBE80B30A74098357EE8E26FAD8DC069DA9011CCA5F0870A0A5982E541 DUP1 SLOAD DUP3 AND PUSH20 0x6B175474E89094C44DA98B954EEDEAC495271D0F OR SWAP1 SSTORE PUSH32 0x6DA98F1D47BB0BC5549E1497F71AB684F8D693B19B458FBCCAE05E126D246E90 DUP1 SLOAD SWAP1 SWAP2 AND PUSH20 0x1F9840A85D5AF5BF1D1762F925BDADDC4201F984 SWAP1 DUP2 OR SWAP1 SWAP2 SSTORE PUSH3 0x8AA89 PUSH1 0xEB SHL PUSH32 0x49E349D4F386739AFDF8E55DB7675B584D46C3B2A603EEF62554E21DC437B5DB SSTORE PUSH3 0x425443 PUSH1 0xE8 SHL PUSH32 0x158CAB4F3F3D7FB3FA7C40CADAD4CF2A7D7D1541704C6190FB3782E9411C2817 SSTORE PUSH4 0x55534443 PUSH1 0xE0 SHL PUSH32 0x84893E0F271E5F8233D24AA85BA38E0D2ED8F0FC8F608C286CCEE51E6C35DD6E SSTORE PUSH4 0x1554D115 PUSH1 0xE2 SHL PUSH32 0x591A3B2777BC31889C69FB5CAD740AC457874AA5CE74C0AD08912DF8AD7D112C SSTORE PUSH3 0x444149 PUSH1 0xE8 SHL PUSH32 0x28C420D41601E064FC8CC12B320362CA54019ACC8F163CED66D9DC6175C08828 SSTORE PUSH3 0x554E49 PUSH1 0xE8 SHL PUSH32 0x6EB4FF08931EC4FE82ED6EEDDF0EF37686DAD4F0D9A67A18B27A02560A0F5213 SSTORE PUSH1 0x2 PUSH1 0x20 MSTORE PUSH32 0xDE032E96A833A2191F55C5766E34554D9B07734477EA9CB69C40158C1078E793 DUP1 SLOAD PUSH1 0xFF NOT SWAP1 DUP2 AND PUSH1 0x8 SWAP1 DUP2 OR SWAP1 SWAP3 SSTORE PUSH32 0x3459054D09AE8631455B798B2B5D106E17BB4E68A39D2D2A935F5F1B7253988B DUP1 SLOAD DUP3 AND DUP4 OR SWAP1 SSTORE PUSH32 0xB7598821B71EB990D952F174DEC3507A6D48DC93BE8E23CAE785C98CA310BFBB DUP1 SLOAD DUP3 AND DUP4 OR SWAP1 SSTORE PUSH32 0xF4F699A1EF35E64890828CC562D137CCEEAB28AF8455567EF14B6EC385C8E441 DUP1 SLOAD DUP3 AND DUP4 OR SWAP1 SSTORE PUSH32 0xF02F5385B52432C1A270C20C346D380219F286755CBD16BEDE4CE0FB454A4722 DUP1 SLOAD DUP3 AND DUP4 OR SWAP1 SSTORE PUSH0 SWAP3 SWAP1 SWAP3 MSTORE PUSH32 0x8E26AD65A8968434ACDB37383CDA23018C5945ABA6D6E7C8399E7184CCDE3617 DUP1 SLOAD SWAP1 SWAP3 AND OR SWAP1 SSTORE PUSH2 0x3CB SWAP1 DUP2 PUSH2 0x3BA DUP3 CODECOPY PUSH1 0x80 MLOAD DUP2 DUP2 DUP2 PUSH2 0x18C ADD MSTORE DUP2 DUP2 PUSH2 0x1F8 ADD MSTORE DUP2 DUP2 PUSH2 0x255 ADD MSTORE PUSH2 0x2C5 ADD MSTORE RETURN JUMPDEST PUSH0 DUP1 REVERT INVALID PUSH1 0x80 DUP1 PUSH1 0x40 MSTORE PUSH1 0x4 CALLDATASIZE LT ISZERO PUSH2 0x12 JUMPI PUSH0 DUP1 REVERT JUMPDEST PUSH0 CALLDATALOAD PUSH1 0xE0 SHR SWAP1 DUP2 PUSH4 0x57F9C81 EQ PUSH2 0x310 JUMPI POP DUP1 PUSH4 0x1C95F6E1 EQ PUSH2 0x2A6 JUMPI DUP1 PUSH4 0x375BE003 EQ PUSH2 0x8A JUMPI DUP1 PUSH4 0x48F57536 EQ PUSH2 0x118 JUMPI DUP1 PUSH4 0x4F571A5B EQ PUSH2 0x227 JUMPI DUP1 PUSH4 0x8DA5CB5B EQ PUSH2 0x1E3 JUMPI DUP1 PUSH4 0x9B26D6E8 EQ PUSH2 0x157 JUMPI DUP1 PUSH4 0xA5A83932 EQ PUSH2 0x118 JUMPI DUP1 PUSH4 0xC71BFF5E EQ PUSH2 0xC6 JUMPI PUSH4 0xDF7AD9BE EQ PUSH2 0x8A JUMPI PUSH0 DUP1 REVERT JUMPDEST CALLVALUE PUSH2 0xC2 JUMPI PUSH1 0x20 CALLDATASIZE PUSH1 0x3 NOT ADD SLT PUSH2 0xC2 JUMPI PUSH1 0x1 PUSH1 0x1 PUSH1 0xA0 SHL SUB PUSH2 0xAB PUSH2 0x347 JUMP JUMPDEST AND PUSH0 MSTORE PUSH1 0x1 PUSH1 0x20 MSTORE PUSH1 0x20 PUSH1 0x40 PUSH0 KECCAK256 SLOAD PUSH1 0x40 MLOAD SWAP1 DUP2 MSTORE RETURN JUMPDEST PUSH0 DUP1 REVERT JUMPDEST CALLVALUE PUSH2 0xC2 JUMPI PUSH1 0x20 CALLDATASIZE PUSH1 0x3 NOT ADD SLT PUSH2 0xC2 JUMPI PUSH1 0x1 PUSH1 0x1 PUSH1 0xA0 SHL SUB PUSH2 0xE7 PUSH2 0x347 JUMP JUMPDEST AND PUSH0 MSTORE PUSH1 0x2 PUSH1 0x20 MSTORE PUSH1 0xFF PUSH1 0x40 PUSH0 KECCAK256 SLOAD AND DUP1 ISZERO PUSH0 EQ PUSH2 0x110 JUMPI POP PUSH1 0x20 PUSH1 0x8 JUMPDEST PUSH1 0xFF PUSH1 0x40 MLOAD SWAP2 AND DUP2 MSTORE RETURN JUMPDEST PUSH1 0x20 SWAP1 PUSH2 0x105 JUMP JUMPDEST CALLVALUE PUSH2 0xC2 JUMPI PUSH1 0x20 CALLDATASIZE PUSH1 0x3 NOT ADD SLT PUSH2 0xC2 JUMPI PUSH1 0x1 PUSH1 0x1 PUSH1 0xA0 SHL SUB PUSH2 0x139 PUSH2 0x347 JUMP JUMPDEST AND PUSH0 MSTORE PUSH0 PUSH1 0x20 MSTORE PUSH1 0x20 PUSH1 0x1 DUP1 PUSH1 0xA0 SHL SUB PUSH1 0x40 PUSH0 KECCAK256 SLOAD AND PUSH1 0x40 MLOAD SWAP1 DUP2 MSTORE RETURN JUMPDEST CALLVALUE PUSH2 0xC2 JUMPI PUSH1 0x40 CALLDATASIZE PUSH1 0x3 NOT ADD SLT PUSH2 0xC2 JUMPI PUSH2 0x170 PUSH2 0x347 JUMP JUMPDEST PUSH1 0x24 CALLDATALOAD PUSH1 0x1 PUSH1 0x1 PUSH1 0xA0 SHL SUB DUP2 AND SWAP2 SWAP1 DUP3 SWAP1 SUB PUSH2 0xC2 JUMPI PUSH2 0x1BA CALLER PUSH32 0x0 PUSH1 0x1 PUSH1 0x1 PUSH1 0xA0 SHL SUB AND EQ PUSH2 0x35D JUMP JUMPDEST PUSH1 0x1 PUSH1 0x1 PUSH1 0xA0 SHL SUB AND PUSH0 SWAP1 DUP2 MSTORE PUSH1 0x20 DUP2 SWAP1 MSTORE PUSH1 0x40 SWAP1 KECCAK256 DUP1 SLOAD PUSH1 0x1 PUSH1 0x1 PUSH1 0xA0 SHL SUB NOT AND SWAP1 SWAP2 OR SWAP1 SSTORE STOP JUMPDEST CALLVALUE PUSH2 0xC2 JUMPI PUSH0 CALLDATASIZE PUSH1 0x3 NOT ADD SLT PUSH2 0xC2 JUMPI PUSH1 0x40 MLOAD PUSH32 0x0 PUSH1 0x1 PUSH1 0x1 PUSH1 0xA0 SHL SUB AND DUP2 MSTORE PUSH1 0x20 SWAP1 RETURN JUMPDEST CALLVALUE PUSH2 0xC2 JUMPI PUSH1 0x40 CALLDATASIZE PUSH1 0x3 NOT ADD SLT PUSH2 0xC2 JUMPI PUSH2 0x240 PUSH2 0x347 JUMP JUMPDEST PUSH1 0x24 CALLDATALOAD SWAP1 PUSH1 0xFF DUP3 AND DUP1 SWAP3 SUB PUSH2 0xC2 JUMPI PUSH2 0x283 CALLER PUSH32 0x0 PUSH1 0x1 PUSH1 0x1 PUSH1 0xA0 SHL SUB AND EQ PUSH2 0x35D JUMP JUMPDEST PUSH1 0x1 PUSH1 0x1 PUSH1 0xA0 SHL SUB AND PUSH0 SWAP1 DUP2 MSTORE PUSH1 0x2 PUSH1 0x20 MSTORE PUSH1 0x40 SWAP1 KECCAK256 DUP1 SLOAD PUSH1 0xFF NOT AND SWAP1 SWAP2 OR SWAP1 SSTORE STOP JUMPDEST CALLVALUE PUSH2 0xC2 JUMPI PUSH1 0x40 CALLDATASIZE PUSH1 0x3 NOT ADD SLT PUSH2 0xC2 JUMPI PUSH2 0x2BF PUSH2 0x347 JUMP JUMPDEST PUSH2 0x2F3 CALLER PUSH32 0x0 PUSH1 0x1 PUSH1 0x1 PUSH1 0xA0 SHL SUB AND EQ PUSH2 0x35D JUMP JUMPDEST PUSH1 0x1 PUSH1 0x1 PUSH1 0xA0 SHL SUB AND PUSH0 SWAP1 DUP2 MSTORE PUSH1 0x1 PUSH1 0x20 MSTORE PUSH1 0x40 SWAP1 KECCAK256 PUSH1 0x24 CALLDATALOAD SWAP1 SSTORE STOP JUMPDEST CALLVALUE PUSH2 0xC2 JUMPI PUSH1 0x20 CALLDATASIZE PUSH1 0x3 NOT ADD SLT PUSH2 0xC2 JUMPI PUSH1 0x20 SWAP1 PUSH1 0x1 PUSH1 0x1 PUSH1 0xA0 SHL SUB PUSH2 0x334 PUSH2 0x347 JUMP JUMPDEST AND PUSH0 MSTORE PUSH1 0x2 DUP3 MSTORE PUSH1 0xFF PUSH1 0x40 PUSH0 KECCAK256 SLOAD AND DUP2 MSTORE RETURN JUMPDEST PUSH1 0x4 CALLDATALOAD SWAP1 PUSH1 0x1 PUSH1 0x1 PUSH1 0xA0 SHL SUB DUP3 AND DUP3 SUB PUSH2 0xC2 JUMPI JUMP JUMPDEST ISZERO PUSH2 0x364 JUMPI JUMP JUMPDEST PUSH1 0x40 MLOAD PUSH3 0x461BCD PUSH1 0xE5 SHL DUP2 MSTORE PUSH1 0x20 PUSH1 0x4 DUP3 ADD MSTORE PUSH1 0x9 PUSH1 0x24 DUP3 ADD MSTORE PUSH9 0x3737BA1037BBB732B9 PUSH1 0xB9 SHL PUSH1 0x44 DUP3 ADD MSTORE PUSH1 0x64 SWAP1 REVERT INVALID LOG2 PUSH5 0x6970667358 0x22 SLT KECCAK256 0xB4 0xD9 PUSH26 0x126D2FD01F190764C1C9E88C1A8D4F3663D22ADDCBB66522E655 MSTORE PUSH25 0x4164736F6C634300081E003300000000000000000000000000 "},"methodIdentifiers":{"chainlinkBase(address)":"48f57536","getChainlinkBase(address)":"a5a83932","getRedstoneDecimals(address)":"c71bff5e","getRedstoneFeedId(address)":"df7ad9be","owner()":"8da5cb5b","redstoneDecimals(address)":"057f9c81","redstoneFeedId(address)":"375be003","setChainlinkBase(address,address)":"9b26d6e8","setRedstoneDecimals(address,uint8)":"4f571a5b","setRedstoneFeedId(address,bytes32)":"1c95f6e1"}}}}}