{"contracts/Peripheral/DataBridges/real/ChainlinkDataBridge.sol":{"ChainlinkDataBridge":{"abi":[{"inputs":[{"internalType":"address","name":"_asset0UsdFeed","type":"address"},{"internalType":"address","name":"_asset1UsdFeed","type":"address"}],"stateMutability":"nonpayable","type":"constructor"},{"inputs":[],"name":"asset0UsdFeed","outputs":[{"internalType":"address","name":"","type":"address"}],"stateMutability":"view","type":"function"},{"inputs":[],"name":"asset1UsdFeed","outputs":[{"internalType":"address","name":"","type":"address"}],"stateMutability":"view","type":"function"},{"inputs":[{"components":[{"internalType":"address","name":"asset0","type":"address"},{"internalType":"address","name":"asset1","type":"address"},{"internalType":"address","name":"quoter","type":"address"},{"internalType":"uint256","name":"amount","type":"uint256"},{"internalType":"uint128","name":"asset0Balance","type":"uint128"},{"internalType":"uint128","name":"asset1Balance","type":"uint128"},{"internalType":"uint16","name":"bucketID","type":"uint16"},{"internalType":"bool","name":"zeroForOne","type":"bool"}],"internalType":"struct QuoteParams","name":"","type":"tuple"}],"name":"getData","outputs":[{"internalType":"bytes","name":"","type":"bytes"}],"stateMutability":"view","type":"function"}],"evm":{"bytecode":{"linkReferences":{},"object":"60c03461008757601f61056b38819003918201601f19168301916001600160401b0383118484101761008b57808492604094855283398101031261008757610052602061004b8361009f565b920161009f565b9060805260a0526040516104b790816100b4823960805181818161015b0152610292015260a051818181605201526101870152f35b5f80fd5b634e487b7160e01b5f52604160045260245ffd5b51906001600160a01b03821682036100875756fe6080806040526004361015610012575f80fd5b5f3560e01c9081632bae364f14610280575080633bd1104b146100855763fa38f2a21461003d575f80fd5b34610081575f366003190112610081576040517f00000000000000000000000000000000000000000000000000000000000000006001600160a01b03168152602090f35b5f80fd5b346100815761010036600319011261008157604051610100810181811067ffffffffffffffff82111761026c576040526004356001600160a01b03811681036100815781526024356001600160a01b03811681036100815760208201526044356001600160a01b038116810361008157604082015260643560608201526084356001600160801b038116810361008157608082015260a4356001600160801b03811681036100815760a082015260c43561ffff811681036100815760c082015260e4359081151582036100815760e0015261017f7f000000000000000000000000000000000000000000000000000000000000000061031e565b9060ff6101ab7f000000000000000000000000000000000000000000000000000000000000000061031e565b919091166012019160ff8311610258576101d46101ce916101ce6101da956102e3565b906102f4565b936102e3565b90811561022b5704604080516020810192808452828201528181526102006060826102c1565b8151928391602083525180918160208501528484015e5f828201840152601f01601f19168101030190f35b60405162461bcd60e51b8152602060048201526005602482015264064656e3d360dc1b6044820152606490fd5b634e487b7160e01b5f52601160045260245ffd5b634e487b7160e01b5f52604160045260245ffd5b34610081575f366003190112610081577f00000000000000000000000000000000000000000000000000000000000000006001600160a01b03168152602090f35b90601f8019910116810190811067ffffffffffffffff82111761026c57604052565b60ff16604d811161025857600a0a90565b8181029291811591840414171561025857565b519069ffffffffffffffffffff8216820361008157565b604051633fabe5a360e21b81526001600160a01b0391909116919060a081600481865afa80156103c3575f915f9161042d575b505f8213156103fb57156103ce5760206004936040519485809263313ce56760e01b82525afa9283156103c3575f9361038957509190565b9092506020813d6020116103bb575b816103a5602093836102c1565b81010312610081575160ff811681036100815790565b3d9150610398565b6040513d5f823e3d90fd5b60405162461bcd60e51b81526020600482015260056024820152647374616c6560d81b6044820152606490fd5b60405162461bcd60e51b815260206004820152600a6024820152693130b21030b739bbb2b960b11b6044820152606490fd5b91505060a0813d60a011610479575b8161044960a093836102c1565b810103126100815761045a81610307565b506020810151610471608060608401519301610307565b50905f610351565b3d915061043c56fea2646970667358221220f5eb528e821e3f921221dbec1fc01dc47b6cd461775aa8da94eedb6cab39b61864736f6c634300081e0033","opcodes":"PUSH1 0xC0 CALLVALUE PUSH2 0x87 JUMPI PUSH1 0x1F PUSH2 0x56B CODESIZE DUP2 SWAP1 SUB SWAP2 DUP3 ADD PUSH1 0x1F NOT AND DUP4 ADD SWAP2 PUSH1 0x1 PUSH1 0x1 PUSH1 0x40 SHL SUB DUP4 GT DUP5 DUP5 LT OR PUSH2 0x8B JUMPI DUP1 DUP5 SWAP3 PUSH1 0x40 SWAP5 DUP6 MSTORE DUP4 CODECOPY DUP2 ADD SUB SLT PUSH2 0x87 JUMPI PUSH2 0x52 PUSH1 0x20 PUSH2 0x4B DUP4 PUSH2 0x9F JUMP JUMPDEST SWAP3 ADD PUSH2 0x9F JUMP JUMPDEST SWAP1 PUSH1 0x80 MSTORE PUSH1 0xA0 MSTORE PUSH1 0x40 MLOAD PUSH2 0x4B7 SWAP1 DUP2 PUSH2 0xB4 DUP3 CODECOPY PUSH1 0x80 MLOAD DUP2 DUP2 DUP2 PUSH2 0x15B ADD MSTORE PUSH2 0x292 ADD MSTORE PUSH1 0xA0 MLOAD DUP2 DUP2 DUP2 PUSH1 0x52 ADD MSTORE PUSH2 0x187 ADD MSTORE RETURN JUMPDEST PUSH0 DUP1 REVERT JUMPDEST PUSH4 0x4E487B71 PUSH1 0xE0 SHL PUSH0 MSTORE PUSH1 0x41 PUSH1 0x4 MSTORE PUSH1 0x24 PUSH0 REVERT JUMPDEST MLOAD SWAP1 PUSH1 0x1 PUSH1 0x1 PUSH1 0xA0 SHL SUB DUP3 AND DUP3 SUB PUSH2 0x87 JUMPI JUMP INVALID PUSH1 0x80 DUP1 PUSH1 0x40 MSTORE PUSH1 0x4 CALLDATASIZE LT ISZERO PUSH2 0x12 JUMPI PUSH0 DUP1 REVERT JUMPDEST PUSH0 CALLDATALOAD PUSH1 0xE0 SHR SWAP1 DUP2 PUSH4 0x2BAE364F EQ PUSH2 0x280 JUMPI POP DUP1 PUSH4 0x3BD1104B EQ PUSH2 0x85 JUMPI PUSH4 0xFA38F2A2 EQ PUSH2 0x3D JUMPI PUSH0 DUP1 REVERT JUMPDEST CALLVALUE PUSH2 0x81 JUMPI PUSH0 CALLDATASIZE PUSH1 0x3 NOT ADD SLT PUSH2 0x81 JUMPI PUSH1 0x40 MLOAD PUSH32 0x0 PUSH1 0x1 PUSH1 0x1 PUSH1 0xA0 SHL SUB AND DUP2 MSTORE PUSH1 0x20 SWAP1 RETURN JUMPDEST PUSH0 DUP1 REVERT JUMPDEST CALLVALUE PUSH2 0x81 JUMPI PUSH2 0x100 CALLDATASIZE PUSH1 0x3 NOT ADD SLT PUSH2 0x81 JUMPI PUSH1 0x40 MLOAD PUSH2 0x100 DUP2 ADD DUP2 DUP2 LT PUSH8 0xFFFFFFFFFFFFFFFF DUP3 GT OR PUSH2 0x26C JUMPI PUSH1 0x40 MSTORE PUSH1 0x4 CALLDATALOAD PUSH1 0x1 PUSH1 0x1 PUSH1 0xA0 SHL SUB DUP2 AND DUP2 SUB PUSH2 0x81 JUMPI DUP2 MSTORE PUSH1 0x24 CALLDATALOAD PUSH1 0x1 PUSH1 0x1 PUSH1 0xA0 SHL SUB DUP2 AND DUP2 SUB PUSH2 0x81 JUMPI PUSH1 0x20 DUP3 ADD MSTORE PUSH1 0x44 CALLDATALOAD PUSH1 0x1 PUSH1 0x1 PUSH1 0xA0 SHL SUB DUP2 AND DUP2 SUB PUSH2 0x81 JUMPI PUSH1 0x40 DUP3 ADD MSTORE PUSH1 0x64 CALLDATALOAD PUSH1 0x60 DUP3 ADD MSTORE PUSH1 0x84 CALLDATALOAD PUSH1 0x1 PUSH1 0x1 PUSH1 0x80 SHL SUB DUP2 AND DUP2 SUB PUSH2 0x81 JUMPI PUSH1 0x80 DUP3 ADD MSTORE PUSH1 0xA4 CALLDATALOAD PUSH1 0x1 PUSH1 0x1 PUSH1 0x80 SHL SUB DUP2 AND DUP2 SUB PUSH2 0x81 JUMPI PUSH1 0xA0 DUP3 ADD MSTORE PUSH1 0xC4 CALLDATALOAD PUSH2 0xFFFF DUP2 AND DUP2 SUB PUSH2 0x81 JUMPI PUSH1 0xC0 DUP3 ADD MSTORE PUSH1 0xE4 CALLDATALOAD SWAP1 DUP2 ISZERO ISZERO DUP3 SUB PUSH2 0x81 JUMPI PUSH1 0xE0 ADD MSTORE PUSH2 0x17F PUSH32 0x0 PUSH2 0x31E JUMP JUMPDEST SWAP1 PUSH1 0xFF PUSH2 0x1AB PUSH32 0x0 PUSH2 0x31E JUMP JUMPDEST SWAP2 SWAP1 SWAP2 AND PUSH1 0x12 ADD SWAP2 PUSH1 0xFF DUP4 GT PUSH2 0x258 JUMPI PUSH2 0x1D4 PUSH2 0x1CE SWAP2 PUSH2 0x1CE PUSH2 0x1DA SWAP6 PUSH2 0x2E3 JUMP JUMPDEST SWAP1 PUSH2 0x2F4 JUMP JUMPDEST SWAP4 PUSH2 0x2E3 JUMP JUMPDEST SWAP1 DUP2 ISZERO PUSH2 0x22B JUMPI DIV PUSH1 0x40 DUP1 MLOAD PUSH1 0x20 DUP2 ADD SWAP3 DUP1 DUP5 MSTORE DUP3 DUP3 ADD MSTORE DUP2 DUP2 MSTORE PUSH2 0x200 PUSH1 0x60 DUP3 PUSH2 0x2C1 JUMP JUMPDEST DUP2 MLOAD SWAP3 DUP4 SWAP2 PUSH1 0x20 DUP4 MSTORE MLOAD DUP1 SWAP2 DUP2 PUSH1 0x20 DUP6 ADD MSTORE DUP5 DUP5 ADD MCOPY PUSH0 DUP3 DUP3 ADD DUP5 ADD MSTORE PUSH1 0x1F ADD PUSH1 0x1F NOT AND DUP2 ADD SUB ADD SWAP1 RETURN JUMPDEST PUSH1 0x40 MLOAD PUSH3 0x461BCD PUSH1 0xE5 SHL DUP2 MSTORE PUSH1 0x20 PUSH1 0x4 DUP3 ADD MSTORE PUSH1 0x5 PUSH1 0x24 DUP3 ADD MSTORE PUSH5 0x64656E3D3 PUSH1 0xDC SHL PUSH1 0x44 DUP3 ADD MSTORE PUSH1 0x64 SWAP1 REVERT JUMPDEST PUSH4 0x4E487B71 PUSH1 0xE0 SHL PUSH0 MSTORE PUSH1 0x11 PUSH1 0x4 MSTORE PUSH1 0x24 PUSH0 REVERT JUMPDEST PUSH4 0x4E487B71 PUSH1 0xE0 SHL PUSH0 MSTORE PUSH1 0x41 PUSH1 0x4 MSTORE PUSH1 0x24 PUSH0 REVERT JUMPDEST CALLVALUE PUSH2 0x81 JUMPI PUSH0 CALLDATASIZE PUSH1 0x3 NOT ADD SLT PUSH2 0x81 JUMPI PUSH32 0x0 PUSH1 0x1 PUSH1 0x1 PUSH1 0xA0 SHL SUB AND DUP2 MSTORE PUSH1 0x20 SWAP1 RETURN JUMPDEST SWAP1 PUSH1 0x1F DUP1 NOT SWAP2 ADD AND DUP2 ADD SWAP1 DUP2 LT PUSH8 0xFFFFFFFFFFFFFFFF DUP3 GT OR PUSH2 0x26C JUMPI PUSH1 0x40 MSTORE JUMP JUMPDEST PUSH1 0xFF AND PUSH1 0x4D DUP2 GT PUSH2 0x258 JUMPI PUSH1 0xA EXP SWAP1 JUMP JUMPDEST DUP2 DUP2 MUL SWAP3 SWAP2 DUP2 ISZERO SWAP2 DUP5 DIV EQ OR ISZERO PUSH2 0x258 JUMPI JUMP JUMPDEST MLOAD SWAP1 PUSH10 0xFFFFFFFFFFFFFFFFFFFF DUP3 AND DUP3 SUB PUSH2 0x81 JUMPI JUMP JUMPDEST PUSH1 0x40 MLOAD PUSH4 0x3FABE5A3 PUSH1 0xE2 SHL DUP2 MSTORE PUSH1 0x1 PUSH1 0x1 PUSH1 0xA0 SHL SUB SWAP2 SWAP1 SWAP2 AND SWAP2 SWAP1 PUSH1 0xA0 DUP2 PUSH1 0x4 DUP2 DUP7 GAS STATICCALL DUP1 ISZERO PUSH2 0x3C3 JUMPI PUSH0 SWAP2 PUSH0 SWAP2 PUSH2 0x42D JUMPI JUMPDEST POP PUSH0 DUP3 SGT ISZERO PUSH2 0x3FB JUMPI ISZERO PUSH2 0x3CE JUMPI PUSH1 0x20 PUSH1 0x4 SWAP4 PUSH1 0x40 MLOAD SWAP5 DUP6 DUP1 SWAP3 PUSH4 0x313CE567 PUSH1 0xE0 SHL DUP3 MSTORE GAS STATICCALL SWAP3 DUP4 ISZERO PUSH2 0x3C3 JUMPI PUSH0 SWAP4 PUSH2 0x389 JUMPI POP SWAP2 SWAP1 JUMP JUMPDEST SWAP1 SWAP3 POP PUSH1 0x20 DUP2 RETURNDATASIZE PUSH1 0x20 GT PUSH2 0x3BB JUMPI JUMPDEST DUP2 PUSH2 0x3A5 PUSH1 0x20 SWAP4 DUP4 PUSH2 0x2C1 JUMP JUMPDEST DUP2 ADD SUB SLT PUSH2 0x81 JUMPI MLOAD PUSH1 0xFF DUP2 AND DUP2 SUB PUSH2 0x81 JUMPI SWAP1 JUMP JUMPDEST RETURNDATASIZE SWAP2 POP PUSH2 0x398 JUMP JUMPDEST PUSH1 0x40 MLOAD RETURNDATASIZE PUSH0 DUP3 RETURNDATACOPY RETURNDATASIZE SWAP1 REVERT JUMPDEST PUSH1 0x40 MLOAD PUSH3 0x461BCD PUSH1 0xE5 SHL DUP2 MSTORE PUSH1 0x20 PUSH1 0x4 DUP3 ADD MSTORE PUSH1 0x5 PUSH1 0x24 DUP3 ADD MSTORE PUSH5 0x7374616C65 PUSH1 0xD8 SHL PUSH1 0x44 DUP3 ADD MSTORE PUSH1 0x64 SWAP1 REVERT JUMPDEST PUSH1 0x40 MLOAD PUSH3 0x461BCD PUSH1 0xE5 SHL DUP2 MSTORE PUSH1 0x20 PUSH1 0x4 DUP3 ADD MSTORE PUSH1 0xA PUSH1 0x24 DUP3 ADD MSTORE PUSH10 0x3130B21030B739BBB2B9 PUSH1 0xB1 SHL PUSH1 0x44 DUP3 ADD MSTORE PUSH1 0x64 SWAP1 REVERT JUMPDEST SWAP2 POP POP PUSH1 0xA0 DUP2 RETURNDATASIZE PUSH1 0xA0 GT PUSH2 0x479 JUMPI JUMPDEST DUP2 PUSH2 0x449 PUSH1 0xA0 SWAP4 DUP4 PUSH2 0x2C1 JUMP JUMPDEST DUP2 ADD SUB SLT PUSH2 0x81 JUMPI PUSH2 0x45A DUP2 PUSH2 0x307 JUMP JUMPDEST POP PUSH1 0x20 DUP2 ADD MLOAD PUSH2 0x471 PUSH1 0x80 PUSH1 0x60 DUP5 ADD MLOAD SWAP4 ADD PUSH2 0x307 JUMP JUMPDEST POP SWAP1 PUSH0 PUSH2 0x351 JUMP JUMPDEST RETURNDATASIZE SWAP2 POP PUSH2 0x43C JUMP INVALID LOG2 PUSH5 0x6970667358 0x22 SLT KECCAK256 CREATE2 0xEB MSTORE DUP15 DUP3 0x1E EXTCODEHASH SWAP3 SLT 0x21 0xDB EOFCREATE 0x1F 0xC0 SAR 0xC4 PUSH28 0x6CD461775AA8DA94EEDB6CAB39B61864736F6C634300081E00330000 "},"methodIdentifiers":{"asset0UsdFeed()":"2bae364f","asset1UsdFeed()":"fa38f2a2","getData((address,address,address,uint256,uint128,uint128,uint16,bool))":"3bd1104b"}}}}}