{"contracts/Peripheral/libraries/tests/InventorySkewTest.sol":{"InventorySkewTest":{"abi":[{"inputs":[{"internalType":"uint32","name":"invKPpb","type":"uint32"},{"internalType":"uint32","name":"term2Ppb","type":"uint32"},{"internalType":"uint32","name":"term3Ppb","type":"uint32"},{"internalType":"int256","name":"skewPpb","type":"int256"},{"internalType":"uint32","name":"gammaStDev2Ppb","type":"uint32"}],"name":"calculateHalfSpreadWithInventory","outputs":[{"internalType":"uint32","name":"","type":"uint32"}],"stateMutability":"pure","type":"function"},{"inputs":[{"internalType":"uint256","name":"inventory0Raw","type":"uint256"},{"internalType":"uint256","name":"inventory1Raw","type":"uint256"},{"internalType":"uint256","name":"amount","type":"uint256"},{"internalType":"bool","name":"zeroForOne","type":"bool"},{"internalType":"uint8","name":"riskyModeUint","type":"uint8"},{"internalType":"uint256","name":"midPricePpb","type":"uint256"}],"name":"calculateSkew","outputs":[{"internalType":"int256","name":"","type":"int256"}],"stateMutability":"pure","type":"function"}],"evm":{"bytecode":{"linkReferences":{},"object":"60808060405234601557610481908161001a8239f35b5f80fdfe60806040526004361015610011575f80fd5b5f3560e01c80631abf44c91461009c57638acc7b7a1461002f575f80fd5b346100985760c03660031901126100985760643580151581036100985760843560ff81168091036100985760038110156100845760209161007c9160a43591604435602435600435610243565b604051908152f35b634e487b7160e01b5f52602160045260245ffd5b5f80fd5b346100985760a03660031901126100985760043563ffffffff811681036100985760243563ffffffff81168103610098576044359163ffffffff83168303610098576084359063ffffffff82168203610098576020936100ff936064359261019e565b63ffffffff60405191168152f35b90633b9aca00820291808305633b9aca00149015171561012957565b634e487b7160e01b5f52601160045260245ffd5b811561015757600160ff1b81145f19831416610129570590565b634e487b7160e01b5f52601260045260245ffd5b81810392915f13801582851316918412161761012957565b9190915f838201938412911290801582169115161761012957565b93909263ffffffff9091168082029291905f8212600160ff1b8214166101295781840514901517156101295763ffffffff6101ed6101fa9582806509184e72a0006101f597059716911661016b565b911690610183565b610183565b5f811261020a5763ffffffff1690565b505f90565b8115610157570490565b9190820180921161012957565b9190820391821161012957565b600160ff1b8114610129575f0390565b909492919394633b9aca00810290808204633b9aca001490151715610129578361026c9161020f565b91156103605761027c8482610219565b938381029080820485149015171561012957633b9aca009004633b9aca00810290808204633b9aca001490151715610129578580936102c16102d9966102d39461020f565b80821115610359576102d39082610226565b936103c2565b9160038110156100845761034b5761030191905f811261033c57905b5f811261032e5761016b565b633b9aca00811361032557633b9ac9ff19811261031b5790565b50633b9ac9ff1990565b50633b9aca0090565b61033790610233565b61016b565b61034590610233565b906102f5565b6103549161016b565b610301565b505f6102d3565b92633b9aca00819392930290808204633b9aca001490151715610129576102d3856102d9946103a38561039d61039785988861020f565b84610219565b9561020f565b808811156103bb576103b59088610226565b966103c2565b505f6103b5565b91906103ce8184610219565b918215610443576003811015610084578061041e5750508160011b9180830560021490151715610129576104046104099261010d565b61013d565b633b9ac9ff1981019081136001166101295790565b60010361043557506104046104329261010d565b90565b61043292506104049061010d565b505050505f9056fea264697066735822122089b2f3da638750ae7526d9115bebb7910ce22275cb2b652f093f6650a65049dd64736f6c634300081e0033","opcodes":"PUSH1 0x80 DUP1 PUSH1 0x40 MSTORE CALLVALUE PUSH1 0x15 JUMPI PUSH2 0x481 SWAP1 DUP2 PUSH2 0x1A DUP3 CODECOPY RETURN JUMPDEST PUSH0 DUP1 REVERT INVALID PUSH1 0x80 PUSH1 0x40 MSTORE PUSH1 0x4 CALLDATASIZE LT ISZERO PUSH2 0x11 JUMPI PUSH0 DUP1 REVERT JUMPDEST PUSH0 CALLDATALOAD PUSH1 0xE0 SHR DUP1 PUSH4 0x1ABF44C9 EQ PUSH2 0x9C JUMPI PUSH4 0x8ACC7B7A EQ PUSH2 0x2F JUMPI PUSH0 DUP1 REVERT JUMPDEST CALLVALUE PUSH2 0x98 JUMPI PUSH1 0xC0 CALLDATASIZE PUSH1 0x3 NOT ADD SLT PUSH2 0x98 JUMPI PUSH1 0x64 CALLDATALOAD DUP1 ISZERO ISZERO DUP2 SUB PUSH2 0x98 JUMPI PUSH1 0x84 CALLDATALOAD PUSH1 0xFF DUP2 AND DUP1 SWAP2 SUB PUSH2 0x98 JUMPI PUSH1 0x3 DUP2 LT ISZERO PUSH2 0x84 JUMPI PUSH1 0x20 SWAP2 PUSH2 0x7C SWAP2 PUSH1 0xA4 CALLDATALOAD SWAP2 PUSH1 0x44 CALLDATALOAD PUSH1 0x24 CALLDATALOAD PUSH1 0x4 CALLDATALOAD PUSH2 0x243 JUMP JUMPDEST PUSH1 0x40 MLOAD SWAP1 DUP2 MSTORE RETURN JUMPDEST PUSH4 0x4E487B71 PUSH1 0xE0 SHL PUSH0 MSTORE PUSH1 0x21 PUSH1 0x4 MSTORE PUSH1 0x24 PUSH0 REVERT JUMPDEST PUSH0 DUP1 REVERT JUMPDEST CALLVALUE PUSH2 0x98 JUMPI PUSH1 0xA0 CALLDATASIZE PUSH1 0x3 NOT ADD SLT PUSH2 0x98 JUMPI PUSH1 0x4 CALLDATALOAD PUSH4 0xFFFFFFFF DUP2 AND DUP2 SUB PUSH2 0x98 JUMPI PUSH1 0x24 CALLDATALOAD PUSH4 0xFFFFFFFF DUP2 AND DUP2 SUB PUSH2 0x98 JUMPI PUSH1 0x44 CALLDATALOAD SWAP2 PUSH4 0xFFFFFFFF DUP4 AND DUP4 SUB PUSH2 0x98 JUMPI PUSH1 0x84 CALLDATALOAD SWAP1 PUSH4 0xFFFFFFFF DUP3 AND DUP3 SUB PUSH2 0x98 JUMPI PUSH1 0x20 SWAP4 PUSH2 0xFF SWAP4 PUSH1 0x64 CALLDATALOAD SWAP3 PUSH2 0x19E JUMP JUMPDEST PUSH4 0xFFFFFFFF PUSH1 0x40 MLOAD SWAP2 AND DUP2 MSTORE RETURN JUMPDEST SWAP1 PUSH4 0x3B9ACA00 DUP3 MUL SWAP2 DUP1 DUP4 SDIV PUSH4 0x3B9ACA00 EQ SWAP1 ISZERO OR ISZERO PUSH2 0x129 JUMPI JUMP JUMPDEST PUSH4 0x4E487B71 PUSH1 0xE0 SHL PUSH0 MSTORE PUSH1 0x11 PUSH1 0x4 MSTORE PUSH1 0x24 PUSH0 REVERT JUMPDEST DUP2 ISZERO PUSH2 0x157 JUMPI PUSH1 0x1 PUSH1 0xFF SHL DUP2 EQ PUSH0 NOT DUP4 EQ AND PUSH2 0x129 JUMPI SDIV SWAP1 JUMP JUMPDEST PUSH4 0x4E487B71 PUSH1 0xE0 SHL PUSH0 MSTORE PUSH1 0x12 PUSH1 0x4 MSTORE PUSH1 0x24 PUSH0 REVERT JUMPDEST DUP2 DUP2 SUB SWAP3 SWAP2 PUSH0 SGT DUP1 ISZERO DUP3 DUP6 SGT AND SWAP2 DUP5 SLT AND OR PUSH2 0x129 JUMPI JUMP JUMPDEST SWAP2 SWAP1 SWAP2 PUSH0 DUP4 DUP3 ADD SWAP4 DUP5 SLT SWAP2 SLT SWAP1 DUP1 ISZERO DUP3 AND SWAP2 ISZERO AND OR PUSH2 0x129 JUMPI JUMP JUMPDEST SWAP4 SWAP1 SWAP3 PUSH4 0xFFFFFFFF SWAP1 SWAP2 AND DUP1 DUP3 MUL SWAP3 SWAP2 SWAP1 PUSH0 DUP3 SLT PUSH1 0x1 PUSH1 0xFF SHL DUP3 EQ AND PUSH2 0x129 JUMPI DUP2 DUP5 SDIV EQ SWAP1 ISZERO OR ISZERO PUSH2 0x129 JUMPI PUSH4 0xFFFFFFFF PUSH2 0x1ED PUSH2 0x1FA SWAP6 DUP3 DUP1 PUSH6 0x9184E72A000 PUSH2 0x1F5 SWAP8 SDIV SWAP8 AND SWAP2 AND PUSH2 0x16B JUMP JUMPDEST SWAP2 AND SWAP1 PUSH2 0x183 JUMP JUMPDEST PUSH2 0x183 JUMP JUMPDEST PUSH0 DUP2 SLT PUSH2 0x20A JUMPI PUSH4 0xFFFFFFFF AND SWAP1 JUMP JUMPDEST POP PUSH0 SWAP1 JUMP JUMPDEST DUP2 ISZERO PUSH2 0x157 JUMPI DIV SWAP1 JUMP JUMPDEST SWAP2 SWAP1 DUP3 ADD DUP1 SWAP3 GT PUSH2 0x129 JUMPI JUMP JUMPDEST SWAP2 SWAP1 DUP3 SUB SWAP2 DUP3 GT PUSH2 0x129 JUMPI JUMP JUMPDEST PUSH1 0x1 PUSH1 0xFF SHL DUP2 EQ PUSH2 0x129 JUMPI PUSH0 SUB SWAP1 JUMP JUMPDEST SWAP1 SWAP5 SWAP3 SWAP2 SWAP4 SWAP5 PUSH4 0x3B9ACA00 DUP2 MUL SWAP1 DUP1 DUP3 DIV PUSH4 0x3B9ACA00 EQ SWAP1 ISZERO OR ISZERO PUSH2 0x129 JUMPI DUP4 PUSH2 0x26C SWAP2 PUSH2 0x20F JUMP JUMPDEST SWAP2 ISZERO PUSH2 0x360 JUMPI PUSH2 0x27C DUP5 DUP3 PUSH2 0x219 JUMP JUMPDEST SWAP4 DUP4 DUP2 MUL SWAP1 DUP1 DUP3 DIV DUP6 EQ SWAP1 ISZERO OR ISZERO PUSH2 0x129 JUMPI PUSH4 0x3B9ACA00 SWAP1 DIV PUSH4 0x3B9ACA00 DUP2 MUL SWAP1 DUP1 DUP3 DIV PUSH4 0x3B9ACA00 EQ SWAP1 ISZERO OR ISZERO PUSH2 0x129 JUMPI DUP6 DUP1 SWAP4 PUSH2 0x2C1 PUSH2 0x2D9 SWAP7 PUSH2 0x2D3 SWAP5 PUSH2 0x20F JUMP JUMPDEST DUP1 DUP3 GT ISZERO PUSH2 0x359 JUMPI PUSH2 0x2D3 SWAP1 DUP3 PUSH2 0x226 JUMP JUMPDEST SWAP4 PUSH2 0x3C2 JUMP JUMPDEST SWAP2 PUSH1 0x3 DUP2 LT ISZERO PUSH2 0x84 JUMPI PUSH2 0x34B JUMPI PUSH2 0x301 SWAP2 SWAP1 PUSH0 DUP2 SLT PUSH2 0x33C JUMPI SWAP1 JUMPDEST PUSH0 DUP2 SLT PUSH2 0x32E JUMPI PUSH2 0x16B JUMP JUMPDEST PUSH4 0x3B9ACA00 DUP2 SGT PUSH2 0x325 JUMPI PUSH4 0x3B9AC9FF NOT DUP2 SLT PUSH2 0x31B JUMPI SWAP1 JUMP JUMPDEST POP PUSH4 0x3B9AC9FF NOT SWAP1 JUMP JUMPDEST POP PUSH4 0x3B9ACA00 SWAP1 JUMP JUMPDEST PUSH2 0x337 SWAP1 PUSH2 0x233 JUMP JUMPDEST PUSH2 0x16B JUMP JUMPDEST PUSH2 0x345 SWAP1 PUSH2 0x233 JUMP JUMPDEST SWAP1 PUSH2 0x2F5 JUMP JUMPDEST PUSH2 0x354 SWAP2 PUSH2 0x16B JUMP JUMPDEST PUSH2 0x301 JUMP JUMPDEST POP PUSH0 PUSH2 0x2D3 JUMP JUMPDEST SWAP3 PUSH4 0x3B9ACA00 DUP2 SWAP4 SWAP3 SWAP4 MUL SWAP1 DUP1 DUP3 DIV PUSH4 0x3B9ACA00 EQ SWAP1 ISZERO OR ISZERO PUSH2 0x129 JUMPI PUSH2 0x2D3 DUP6 PUSH2 0x2D9 SWAP5 PUSH2 0x3A3 DUP6 PUSH2 0x39D PUSH2 0x397 DUP6 SWAP9 DUP9 PUSH2 0x20F JUMP JUMPDEST DUP5 PUSH2 0x219 JUMP JUMPDEST SWAP6 PUSH2 0x20F JUMP JUMPDEST DUP1 DUP9 GT ISZERO PUSH2 0x3BB JUMPI PUSH2 0x3B5 SWAP1 DUP9 PUSH2 0x226 JUMP JUMPDEST SWAP7 PUSH2 0x3C2 JUMP JUMPDEST POP PUSH0 PUSH2 0x3B5 JUMP JUMPDEST SWAP2 SWAP1 PUSH2 0x3CE DUP2 DUP5 PUSH2 0x219 JUMP JUMPDEST SWAP2 DUP3 ISZERO PUSH2 0x443 JUMPI PUSH1 0x3 DUP2 LT ISZERO PUSH2 0x84 JUMPI DUP1 PUSH2 0x41E JUMPI POP POP DUP2 PUSH1 0x1 SHL SWAP2 DUP1 DUP4 SDIV PUSH1 0x2 EQ SWAP1 ISZERO OR ISZERO PUSH2 0x129 JUMPI PUSH2 0x404 PUSH2 0x409 SWAP3 PUSH2 0x10D JUMP JUMPDEST PUSH2 0x13D JUMP JUMPDEST PUSH4 0x3B9AC9FF NOT DUP2 ADD SWAP1 DUP2 SGT PUSH1 0x1 AND PUSH2 0x129 JUMPI SWAP1 JUMP JUMPDEST PUSH1 0x1 SUB PUSH2 0x435 JUMPI POP PUSH2 0x404 PUSH2 0x432 SWAP3 PUSH2 0x10D JUMP JUMPDEST SWAP1 JUMP JUMPDEST PUSH2 0x432 SWAP3 POP PUSH2 0x404 SWAP1 PUSH2 0x10D JUMP JUMPDEST POP POP POP POP PUSH0 SWAP1 JUMP INVALID LOG2 PUSH5 0x6970667358 0x22 SLT KECCAK256 DUP10 0xB2 RETURN 0xDA PUSH4 0x8750AE75 0x26 0xD9 GT JUMPDEST 0xEB 0xB7 SWAP2 0xC 0xE2 0x22 PUSH22 0xCB2B652F093F6650A65049DD64736F6C634300081E00 CALLER "},"methodIdentifiers":{"calculateHalfSpreadWithInventory(uint32,uint32,uint32,int256,uint32)":"1abf44c9","calculateSkew(uint256,uint256,uint256,bool,uint8,uint256)":"8acc7b7a"}}}}}