{"contracts/Peripheral/quoters/real/RealDataBridge/tests/StoicovQuoterHarness.sol":{"StoicovQuoterHarness":{"abi":[{"inputs":[{"internalType":"uint8","name":"kIdx","type":"uint8"},{"internalType":"uint8","name":"invMode","type":"uint8"},{"internalType":"bool","name":"gammaSelHigh","type":"bool"},{"internalType":"bool","name":"sigmaFixed","type":"bool"},{"internalType":"bool","name":"gammaZero","type":"bool"}],"name":"buildBucketID","outputs":[{"internalType":"uint16","name":"","type":"uint16"}],"stateMutability":"pure","type":"function"},{"inputs":[{"internalType":"uint16","name":"bucketID","type":"uint16"},{"internalType":"uint32","name":"sigma2TauPpb","type":"uint32"}],"name":"deltaStarPrecomp","outputs":[{"internalType":"uint64","name":"","type":"uint64"}],"stateMutability":"pure","type":"function"},{"inputs":[{"internalType":"uint8","name":"idx","type":"uint8"},{"internalType":"uint32","name":"scalePpb","type":"uint32"}],"name":"gammaFromScaleAndIdx","outputs":[{"internalType":"uint32","name":"","type":"uint32"}],"stateMutability":"pure","type":"function"},{"inputs":[],"name":"gammaHighPpb","outputs":[{"internalType":"uint32","name":"","type":"uint32"}],"stateMutability":"pure","type":"function"},{"inputs":[],"name":"gammaHighScalePpb","outputs":[{"internalType":"uint32","name":"","type":"uint32"}],"stateMutability":"pure","type":"function"},{"inputs":[],"name":"gammaLowScalePpb","outputs":[{"internalType":"uint32","name":"","type":"uint32"}],"stateMutability":"pure","type":"function"},{"inputs":[],"name":"gammaMidPpb","outputs":[{"internalType":"uint32","name":"","type":"uint32"}],"stateMutability":"pure","type":"function"},{"inputs":[],"name":"gammaMidScalePpb","outputs":[{"internalType":"uint32","name":"","type":"uint32"}],"stateMutability":"pure","type":"function"},{"inputs":[{"internalType":"uint16","name":"bucketID","type":"uint16"}],"name":"gammaScalePpbOf","outputs":[{"internalType":"uint32","name":"","type":"uint32"}],"stateMutability":"pure","type":"function"},{"inputs":[{"internalType":"uint8","name":"idx","type":"uint8"}],"name":"invKppbFromIdx","outputs":[{"internalType":"uint32","name":"","type":"uint32"}],"stateMutability":"pure","type":"function"},{"inputs":[{"components":[{"internalType":"address","name":"asset0","type":"address"},{"internalType":"address","name":"asset1","type":"address"},{"internalType":"address","name":"quoter","type":"address"},{"internalType":"uint256","name":"amount","type":"uint256"},{"internalType":"uint128","name":"asset0Balance","type":"uint128"},{"internalType":"uint128","name":"asset1Balance","type":"uint128"},{"internalType":"uint16","name":"bucketID","type":"uint16"},{"internalType":"bool","name":"zeroForOne","type":"bool"},{"internalType":"uint8","name":"functionFlags","type":"uint8"}],"internalType":"struct QuoteParams","name":"params","type":"tuple"},{"internalType":"bytes","name":"data","type":"bytes"}],"name":"quote","outputs":[{"internalType":"uint256","name":"","type":"uint256"}],"stateMutability":"view","type":"function"},{"inputs":[{"components":[{"internalType":"address","name":"asset0","type":"address"},{"internalType":"address","name":"asset1","type":"address"},{"internalType":"address","name":"quoter","type":"address"},{"internalType":"uint256[]","name":"amount","type":"uint256[]"},{"internalType":"uint128[]","name":"asset0Balances","type":"uint128[]"},{"internalType":"uint128[]","name":"asset1Balances","type":"uint128[]"},{"internalType":"uint16[]","name":"bucketID","type":"uint16[]"},{"internalType":"bool","name":"zeroForOne","type":"bool"},{"internalType":"uint8","name":"functionFlags","type":"uint8"}],"internalType":"struct QuoteParamsBatch","name":"params","type":"tuple"},{"internalType":"bytes","name":"data","type":"bytes"}],"name":"quoteBatch","outputs":[{"internalType":"uint256[]","name":"quotes","type":"uint256[]"}],"stateMutability":"view","type":"function"},{"inputs":[{"internalType":"uint16","name":"bucketID","type":"uint16"}],"name":"requiresSigmaData","outputs":[{"internalType":"bool","name":"","type":"bool"}],"stateMutability":"pure","type":"function"},{"inputs":[{"internalType":"uint16","name":"bucketID","type":"uint16"}],"name":"sigmaIsFixed","outputs":[{"internalType":"bool","name":"","type":"bool"}],"stateMutability":"pure","type":"function"},{"inputs":[{"internalType":"uint8","name":"idx","type":"uint8"},{"internalType":"uint32","name":"gammaPpb","type":"uint32"}],"name":"term2ByGammaFromIdx","outputs":[{"internalType":"uint32","name":"","type":"uint32"}],"stateMutability":"pure","type":"function"}],"evm":{"bytecode":{"linkReferences":{},"object":"60808060405234601557611ac9908161001a8239f35b5f80fdfe6080806040526004361015610012575f80fd5b5f3560e01c9081630234beb71461082d575080633c1ee1d2146108015780634a42e6ed146107c457806365d8f9e21461019f5780636f96a0a31461079757806372e072791461031157806382e8a97c146102ee5780639b6f3a48146102b4578063abfebfd1146101a4578063b7ec31e11461019f578063ceb5ee6414610185578063d8035700146100f2578063daf67cdd146100ed578063e3463b7a146100ed5763f1ae5ea3146100c1575f80fd5b346100e95760203660031901126100e957602060806100de61085b565b161515604051908152f35b5f80fd5b610a14565b346100e95760a03660031901126100e95761010b61086c565b60243560ff811681036100e9576044359081151582036100e95760643580151581036100e9576084359182151583036100e9576030600f602096169160041b16179261017b575b610171575b610168575b61ffff60405191168152f35b6101001761015c565b9060801790610157565b9160401791610152565b346100e9575f3660031901126100e95760206040515f8152f35b61088f565b346100e957366003190161014081126100e957610120136100e9576040516101cb816108ad565b6004356001600160a01b03811681036100e95781526024356001600160a01b03811681036100e95760208201526044356001600160a01b03811681036100e957604082015260643560608201526084356001600160801b03811681036100e957608082015260a4356001600160801b03811681036100e95760a082015260c43561ffff811681036100e95760c082015260e43580151581036100e95760e08201526101043560ff811681036100e957610100820152610124356001600160401b0381116100e9576020916102a66102ac9236906004016109ce565b90610bce565b604051908152f35b346100e95760403660031901126100e95760206102e06102d261086c565b6102da61087c565b90611349565b63ffffffff60405191168152f35b346100e95760203660031901126100e95760206102e061030c61086c565b61189c565b346100e95760403660031901126100e9576004356001600160401b0381116100e95761012060031982360301126100e95760405161034e816108ad565b61035a8260040161091a565b81526103686024830161091a565b916020820192835261037c6044820161091a565b926040830193845260648201356001600160401b0381116100e9578201366023820112156100e9576004810135906103b38261092e565b916103c160405193846108f9565b808352602060048185019260051b84010101913683116100e957602401905b828210610787575050506060840190815260848301356001600160401b0381116100e9576104149060043691860101610945565b926080850193845260a48101356001600160401b0381116100e95761043f9060043691840101610945565b9060a0860191825260c48101356001600160401b0381116100e957810190366023830112156100e95760048201356104768161092e565b9261048460405194856108f9565b818452602060048186019360051b83010101903682116100e957602401915b81831061076c5750505060c0870191825260e48101359081151582036100e95760e0880191825261010401359160ff831683036100e95761010088019283526024356001600160401b0381116100e9576105049098959836906004016109ce565b938851519761052b6105158a61092e565b996105236040519b8c6108f9565b808b5261092e565b60208a0190601f190136823760208701975f5b8c51805182101561072857908e8989898f9589868080808f958d600160a01b600190039051169c600160a01b600190039051169a600160a01b600190039051169461058891610a52565b5194519061059591610a52565b516001600160801b03169451906105ab91610a52565b516001600160801b03169451906105c191610a52565b5161ffff1694511515955160ff1696604051996105dd8b6108ad565b8a5260208a019081526040808b0192835260608b0193845260808b0194855260a08b0195865260c08b0196875260e08b019788526101008b019889525163abfebfd160e01b815299516001600160a01b0390811660048c01529051811660248b01529051166044890152516064880152516001600160801b03908116608488015290511660a48601525161ffff1660c485015251151560e48401525160ff16610104830152610140610124830152895161014483018190528290808d61016484015e808201610164015f9052601f1990601f011681010361016401823091815a93602094fa801561071d578d925f916106e5575b506106de82600194610a52565b520161053e565b9250506020823d8211610715575b81610700602093836108f9565b810103126100e95790518c91906106de6106d1565b3d91506106f3565b6040513d5f823e3d90fd5b838d604051918291602083019060208452518091526040830191905f5b818110610753575050500390f35b8251845285945060209384019390920191600101610745565b823561ffff811681036100e9578152602092830192016104a3565b81358152602091820191016103e0565b346100e95760203660031901126100e95760206107ba6107b561085b565b610a32565b6040519015158152f35b346100e95760403660031901126100e95760206107f06107e261085b565b6107ea61087c565b90611247565b6001600160401b0360405191168152f35b346100e95760403660031901126100e95760206102e061081f61086c565b61082761087c565b9061181f565b346100e95760203660031901126100e95760209063ffffffff61085661085161085b565b6111fd565b168152f35b6004359061ffff821682036100e957565b6004359060ff821682036100e957565b6024359063ffffffff821682036100e957565b346100e9575f3660031901126100e9576020604051631dcd65008152f35b61012081019081106001600160401b038211176108c957604052565b634e487b7160e01b5f52604160045260245ffd5b61020081019081106001600160401b038211176108c957604052565b90601f801991011681019081106001600160401b038211176108c957604052565b35906001600160a01b03821682036100e957565b6001600160401b0381116108c95760051b60200190565b9080601f830112156100e95781359061095d8261092e565b9261096b60405194856108f9565b82845260208085019360051b8201019182116100e957602001915b8183106109935750505090565b82356001600160801b03811681036100e957815260209283019201610986565b6001600160401b0381116108c957601f01601f191660200190565b81601f820112156100e9578035906109e5826109b3565b926109f360405194856108f9565b828452602083830101116100e957815f926020809301838601378301015290565b346100e9575f3660031901126100e9576020604051633b9aca008152f35b63ffffffff610a40826111fd565b1615610a4d576080161590565b505f90565b8051821015610a665760209160051b010190565b634e487b7160e01b5f52603260045260245ffd5b81601f820112156100e957805190610a91826109b3565b92610a9f60405194856108f9565b828452602083830101116100e957815f9260208093018386015e8301015290565b519060ff821682036100e957565b51906001600160801b03821682036100e957565b519061ffff821682036100e957565b91908201809211610afe57565b634e487b7160e01b5f52601160045260245ffd5b5f198114610afe5760010190565b8115610b2a570490565b634e487b7160e01b5f52601260045260245ffd5b81810292918115918404141715610afe57565b90633b9aca00820291808305633b9aca001490151715610afe57565b81810292915f8212600160ff1b821416610afe578184051490151715610afe57565b8115610b2a57600160ff1b81145f19831416610afe570590565b81810392915f138015828513169184121617610afe57565b91908203918211610afe57565b908051810160a082602083019203126100e95760208201516001600160401b0381116100e957816020610c0392850101610a7a565b5060408201516001600160401b0381116100e957816020610c2692850101610a7a565b5060608201516001600160401b0381116100e957816020610c4992850101610a7a565b5060808201516001600160401b0381116100e957816020610c6c92850101610a7a565b5060a0820151916001600160401b0383116100e957610c8e9201602001610a7a565b805180156111f6578161010091810103126100e957610caf60208201610ac0565b610cbb60408301610ace565b91610cc860608201610ace565b91610cd560808301610ace565b93610ce260a08401610ace565b60c08401516001600160401b038116036100e957610d0f610100610d0860e08701610ae2565b9501610ae2565b955f955f93600186161515806111e4575b6111cf575b50600285161515806111bd575b611197575b5060048416151580611185575b61115f575b506008831615158061114d575b611129575b50801561111f57610d766001600160801b0391600495610b20565b169160e0860191825115155f1461110b5786516020906001600160a01b03165b60405163313ce56760e01b815296879182906001600160a01b03165afa93841561071d575f946110cf575b835160049650156110bc576020888101516001600160a01b03165b60405163313ce56760e01b815297889182906001600160a01b03165afa95861561071d575f96611080575b5060c08801519661ffff881693610e5261ffff600f8b1692610e28886111fd565b96610e338886611349565b955f9160208116151580611075575b15611048575050505b1680610b3e565b90600a820291808304600a1490151715610afe57610e6f8161189c565b946080610e7c828461181f565b9b1615610ff857610e9160039160ff9361181f565b965b60041c161660018103610fe4575060015b610ead84611380565b60808c01516001600160801b03169160a08d01516001600160801b03169c6060019c8d518a51151591610edf95611605565b9163ffffffff1690610ef091610b3e565b633b9aca009004633b9aca009004610f0791610b6d565b610f119082610b6d565b633b9aca009005610f2191610ba9565b6001600160801b03169563ffffffff169063ffffffff1690610f4291610ba9565b9063ffffffff1690818101918212905f13908015821691151617610afe575f8112610fdd575b63ffffffff169384633b9aca0003633b9aca008111610afe57610f936001600160801b0391836113fe565b1694633b9aca00019081633b9aca0011610afe576001600160801b0391610fb9916113fe565b915191169015610fd15750610fce93516117e4565b90565b9250610fce935161179d565b505f610f68565b600203610ff2576002610ea4565b5f610ea4565b505063ffffffff82168181158015611040575b1561101d57505060ff60035f96610e93565b63ffffffff633b9aca0061103560039360ff95610b3e565b0460011c1696610e93565b50801561100b565b6040919293501615158061106a575b611062575b50610e4b565b90505f61105c565b508281161515611057565b508484161515610e42565b9095506020813d6020116110b4575b8161109c602093836108f9565b810103126100e9576110ad90610ac0565b945f610e07565b3d915061108f565b87516020906001600160a01b0316610ddc565b93506020853d602011611103575b816110ea602093836108f9565b810103126100e9576110fd600495610ac0565b93610dc1565b3d91506110dd565b6020878101516001600160a01b0316610d96565b5050505050505f90565b61114791946001600160801b03611141921690610af1565b93610b12565b5f610d5b565b506001600160801b0381161515610d56565b61117e9192956001600160801b03611178921690610af1565b94610b12565b905f610d49565b506001600160801b0381161515610d44565b6111b69193966001600160801b036111b0921690610af1565b95610b12565b915f610d37565b506001600160801b0381161515610d32565b6001600160801b03169650600193505f610d25565b506001600160801b0381161515610d20565b5050505f90565b6101008116610a4d57600481901c60031615610a4d5760061c60011661122557631dcd650090565b633b9aca0090565b9063ffffffff8091169116019063ffffffff8211610afe57565b90600f821690611256836111fd565b906112608361189c565b9363ffffffff83161561133c576080166112e65781633b9aca0061129b6112a59363ffffffff8061129281988a611349565b16911690610b3e565b60011c049361181f565b92169163ffffffff6112b78385610af1565b91169081116112de576112d56112da926001600160401b0394610af1565b610bc1565b1690565b505f92915050565b5091611301836112fb63ffffffff958561181f565b9361181f565b918361130d848461122d565b9116931683116112de5763ffffffff916113269161122d565b160363ffffffff8111610afe5763ffffffff1690565b5050505063ffffffff1690565b9063ffffffff16801561137a57611375633b9aca009163ffffffff61136e8195611957565b1690610b3e565b041690565b50505f90565b5f19633b9aca008209633b9aca008202918280831092039180830392146113f65781600160401b11156113cb57633b9aca00600160401b910990828211900360c01b910360401c1790565b60405162461bcd60e51b815260206004820152600360248201526213d19360ea1b6044820152606490fd5b505060401c90565b5f198282098282029182808310920391808303921461145f5781633b9aca0011156113cb577f88f2cfb83100cb4e69e7c79c58b316e597157d372fb9787e8e47ce423a2e9c6d93633b9aca00910990828211900360f71b910360091c170290565b5050633b9aca0091500490565b5f19600160401b8209918160401b918280851094039380850394146114ee57838211156113cb57600160401b829109600182190182168092046002816003021880820260020302808202600203028082026002030280820260020302808202600203028091026002030293600183805f03040190848311900302920304170290565b50809250156114fb570490565b606460405162461bcd60e51b81526020600482015260046024820152630444956360e41b6044820152fd5b5f1982820990828102928380841093039280840393146115655782600160401b11156113cb57600160401b910990828211900360c01b910360401c1790565b50505060401c90565b915f1982840992828102928380861095039480860395146115e757848311156113cb57829109600182190182168092046002816003021880820260020302808202600203028082026002030280820260020302808202600203028091026002030293600183805f03040190848311900302920304170290565b5050809250156114fb570490565b600160ff1b8114610afe575f0390565b909492919394633b9aca00810290808204633b9aca001490151715610afe578361162e91610b20565b911561172d57633b9aca0061164d846116478785610af1565b96610b3e565b04633b9aca00810290808204633b9aca001490151715610afe5785809361167a6116929661168c94610b20565b808211156117265761168c9082610bc1565b93611a15565b91600381101561171257611704576116ba91905f81126116f557905b5f81126116e757610ba9565b633b9aca0081136116de57633b9ac9ff1981126116d45790565b50633b9ac9ff1990565b50633b9aca0090565b6116f0906115f5565b610ba9565b6116fe906115f5565b906116ae565b61170d91610ba9565b6116ba565b634e487b7160e01b5f52602160045260245ffd5b505f61168c565b92633b9aca00819392930290808204633b9aca001490151715610afe5761168c85611692946117708561176a611764859888610b20565b84610af1565b95610b20565b80881115611788576117829088610bc1565b96611a15565b505f611782565b604d8111610afe57600a0a90565b9092919281156117dc57610fce936001600160801b03926117ce60ff6117c7816117d4961661178f565b931661178f565b9061156e565b91169061146c565b505050505f90565b929083156117dc57610fce936001600160801b0361181260ff61180b8161181a961661178f565b961661178f565b931690611526565b61156e565b9063ffffffff81161561137a57633b9aca0061184d63ffffffff610e4b611847829587611349565b95611957565b04911690620186a0820291808304620186a01490151715610afe576001600160ff1b0381168103610afe5763ffffffff916112da9160011b90610b20565b906010811015610a665760051b0190565b61195263ffffffff9160ff604051916118b4836108dd565b61c3508352620186a060208401526203d09060408401526207a1206060840152620b71b06080840152620f424060a08401526216e36060c0840152621e848060e0840152622dc6c0610100840152624c4b40610120840152627270e06101408401526298968061016084015262e4e1c06101808401526301312d006101a08401526301c9c3806101c08401526302faf0806101e0840152169061188b565b511690565b61195263ffffffff9160ff6040519161196f836108dd565b63773594008352633b9aca0060208401526317d784006040840152630bebc20060608401526307f2815560808401526305f5e10060a08401526303f940ab60c08401526302faf08060e08401526301fca0556101008401526301312d0061012084015262cb7355610140840152629896806101608401526265b9ab610180840152624c4b406101a08401526232dcd56101c0840152621e84806101e0840152169061188b565b9190611a218184610af1565b9182156117dc5760038110156117125780611a715750508160011b9180830560021490151715610afe57611a57611a5c92610b51565b610b8f565b633b9ac9ff198101908113600116610afe5790565b600103611a855750611a57610fce92610b51565b610fce9250611a5790610b5156fea264697066735822122085973884154291b7a40dc82ed5af7ea8ff591cdfaf1994544b7aa1a17970cbb064736f6c634300081e0033","opcodes":"PUSH1 0x80 DUP1 PUSH1 0x40 MSTORE CALLVALUE PUSH1 0x15 JUMPI PUSH2 0x1AC9 SWAP1 DUP2 PUSH2 0x1A DUP3 CODECOPY RETURN JUMPDEST PUSH0 DUP1 REVERT INVALID PUSH1 0x80 DUP1 PUSH1 0x40 MSTORE PUSH1 0x4 CALLDATASIZE LT ISZERO PUSH2 0x12 JUMPI PUSH0 DUP1 REVERT JUMPDEST PUSH0 CALLDATALOAD PUSH1 0xE0 SHR SWAP1 DUP2 PUSH4 0x234BEB7 EQ PUSH2 0x82D JUMPI POP DUP1 PUSH4 0x3C1EE1D2 EQ PUSH2 0x801 JUMPI DUP1 PUSH4 0x4A42E6ED EQ PUSH2 0x7C4 JUMPI DUP1 PUSH4 0x65D8F9E2 EQ PUSH2 0x19F JUMPI DUP1 PUSH4 0x6F96A0A3 EQ PUSH2 0x797 JUMPI DUP1 PUSH4 0x72E07279 EQ PUSH2 0x311 JUMPI DUP1 PUSH4 0x82E8A97C EQ PUSH2 0x2EE JUMPI DUP1 PUSH4 0x9B6F3A48 EQ PUSH2 0x2B4 JUMPI DUP1 PUSH4 0xABFEBFD1 EQ PUSH2 0x1A4 JUMPI DUP1 PUSH4 0xB7EC31E1 EQ PUSH2 0x19F JUMPI DUP1 PUSH4 0xCEB5EE64 EQ PUSH2 0x185 JUMPI DUP1 PUSH4 0xD8035700 EQ PUSH2 0xF2 JUMPI DUP1 PUSH4 0xDAF67CDD EQ PUSH2 0xED JUMPI DUP1 PUSH4 0xE3463B7A EQ PUSH2 0xED JUMPI PUSH4 0xF1AE5EA3 EQ PUSH2 0xC1 JUMPI PUSH0 DUP1 REVERT JUMPDEST CALLVALUE PUSH2 0xE9 JUMPI PUSH1 0x20 CALLDATASIZE PUSH1 0x3 NOT ADD SLT PUSH2 0xE9 JUMPI PUSH1 0x20 PUSH1 0x80 PUSH2 0xDE PUSH2 0x85B JUMP JUMPDEST AND ISZERO ISZERO PUSH1 0x40 MLOAD SWAP1 DUP2 MSTORE RETURN JUMPDEST PUSH0 DUP1 REVERT JUMPDEST PUSH2 0xA14 JUMP JUMPDEST CALLVALUE PUSH2 0xE9 JUMPI PUSH1 0xA0 CALLDATASIZE PUSH1 0x3 NOT ADD SLT PUSH2 0xE9 JUMPI PUSH2 0x10B PUSH2 0x86C JUMP JUMPDEST PUSH1 0x24 CALLDATALOAD PUSH1 0xFF DUP2 AND DUP2 SUB PUSH2 0xE9 JUMPI PUSH1 0x44 CALLDATALOAD SWAP1 DUP2 ISZERO ISZERO DUP3 SUB PUSH2 0xE9 JUMPI PUSH1 0x64 CALLDATALOAD DUP1 ISZERO ISZERO DUP2 SUB PUSH2 0xE9 JUMPI PUSH1 0x84 CALLDATALOAD SWAP2 DUP3 ISZERO ISZERO DUP4 SUB PUSH2 0xE9 JUMPI PUSH1 0x30 PUSH1 0xF PUSH1 0x20 SWAP7 AND SWAP2 PUSH1 0x4 SHL AND OR SWAP3 PUSH2 0x17B JUMPI JUMPDEST PUSH2 0x171 JUMPI JUMPDEST PUSH2 0x168 JUMPI JUMPDEST PUSH2 0xFFFF PUSH1 0x40 MLOAD SWAP2 AND DUP2 MSTORE RETURN JUMPDEST PUSH2 0x100 OR PUSH2 0x15C JUMP JUMPDEST SWAP1 PUSH1 0x80 OR SWAP1 PUSH2 0x157 JUMP JUMPDEST SWAP2 PUSH1 0x40 OR SWAP2 PUSH2 0x152 JUMP JUMPDEST CALLVALUE PUSH2 0xE9 JUMPI PUSH0 CALLDATASIZE PUSH1 0x3 NOT ADD SLT PUSH2 0xE9 JUMPI PUSH1 0x20 PUSH1 0x40 MLOAD PUSH0 DUP2 MSTORE RETURN JUMPDEST PUSH2 0x88F JUMP JUMPDEST CALLVALUE PUSH2 0xE9 JUMPI CALLDATASIZE PUSH1 0x3 NOT ADD PUSH2 0x140 DUP2 SLT PUSH2 0xE9 JUMPI PUSH2 0x120 SGT PUSH2 0xE9 JUMPI PUSH1 0x40 MLOAD PUSH2 0x1CB DUP2 PUSH2 0x8AD JUMP JUMPDEST PUSH1 0x4 CALLDATALOAD PUSH1 0x1 PUSH1 0x1 PUSH1 0xA0 SHL SUB DUP2 AND DUP2 SUB PUSH2 0xE9 JUMPI DUP2 MSTORE PUSH1 0x24 CALLDATALOAD PUSH1 0x1 PUSH1 0x1 PUSH1 0xA0 SHL SUB DUP2 AND DUP2 SUB PUSH2 0xE9 JUMPI PUSH1 0x20 DUP3 ADD MSTORE PUSH1 0x44 CALLDATALOAD PUSH1 0x1 PUSH1 0x1 PUSH1 0xA0 SHL SUB DUP2 AND DUP2 SUB PUSH2 0xE9 JUMPI PUSH1 0x40 DUP3 ADD MSTORE PUSH1 0x64 CALLDATALOAD PUSH1 0x60 DUP3 ADD MSTORE PUSH1 0x84 CALLDATALOAD PUSH1 0x1 PUSH1 0x1 PUSH1 0x80 SHL SUB DUP2 AND DUP2 SUB PUSH2 0xE9 JUMPI PUSH1 0x80 DUP3 ADD MSTORE PUSH1 0xA4 CALLDATALOAD PUSH1 0x1 PUSH1 0x1 PUSH1 0x80 SHL SUB DUP2 AND DUP2 SUB PUSH2 0xE9 JUMPI PUSH1 0xA0 DUP3 ADD MSTORE PUSH1 0xC4 CALLDATALOAD PUSH2 0xFFFF DUP2 AND DUP2 SUB PUSH2 0xE9 JUMPI PUSH1 0xC0 DUP3 ADD MSTORE PUSH1 0xE4 CALLDATALOAD DUP1 ISZERO ISZERO DUP2 SUB PUSH2 0xE9 JUMPI PUSH1 0xE0 DUP3 ADD MSTORE PUSH2 0x104 CALLDATALOAD PUSH1 0xFF DUP2 AND DUP2 SUB PUSH2 0xE9 JUMPI PUSH2 0x100 DUP3 ADD MSTORE PUSH2 0x124 CALLDATALOAD PUSH1 0x1 PUSH1 0x1 PUSH1 0x40 SHL SUB DUP2 GT PUSH2 0xE9 JUMPI PUSH1 0x20 SWAP2 PUSH2 0x2A6 PUSH2 0x2AC SWAP3 CALLDATASIZE SWAP1 PUSH1 0x4 ADD PUSH2 0x9CE JUMP JUMPDEST SWAP1 PUSH2 0xBCE JUMP JUMPDEST PUSH1 0x40 MLOAD SWAP1 DUP2 MSTORE RETURN JUMPDEST CALLVALUE PUSH2 0xE9 JUMPI PUSH1 0x40 CALLDATASIZE PUSH1 0x3 NOT ADD SLT PUSH2 0xE9 JUMPI PUSH1 0x20 PUSH2 0x2E0 PUSH2 0x2D2 PUSH2 0x86C JUMP JUMPDEST PUSH2 0x2DA PUSH2 0x87C JUMP JUMPDEST SWAP1 PUSH2 0x1349 JUMP JUMPDEST PUSH4 0xFFFFFFFF PUSH1 0x40 MLOAD SWAP2 AND DUP2 MSTORE RETURN JUMPDEST CALLVALUE PUSH2 0xE9 JUMPI PUSH1 0x20 CALLDATASIZE PUSH1 0x3 NOT ADD SLT PUSH2 0xE9 JUMPI PUSH1 0x20 PUSH2 0x2E0 PUSH2 0x30C PUSH2 0x86C JUMP JUMPDEST PUSH2 0x189C JUMP JUMPDEST CALLVALUE PUSH2 0xE9 JUMPI PUSH1 0x40 CALLDATASIZE PUSH1 0x3 NOT ADD SLT PUSH2 0xE9 JUMPI PUSH1 0x4 CALLDATALOAD PUSH1 0x1 PUSH1 0x1 PUSH1 0x40 SHL SUB DUP2 GT PUSH2 0xE9 JUMPI PUSH2 0x120 PUSH1 0x3 NOT DUP3 CALLDATASIZE SUB ADD SLT PUSH2 0xE9 JUMPI PUSH1 0x40 MLOAD PUSH2 0x34E DUP2 PUSH2 0x8AD JUMP JUMPDEST PUSH2 0x35A DUP3 PUSH1 0x4 ADD PUSH2 0x91A JUMP JUMPDEST DUP2 MSTORE PUSH2 0x368 PUSH1 0x24 DUP4 ADD PUSH2 0x91A JUMP JUMPDEST SWAP2 PUSH1 0x20 DUP3 ADD SWAP3 DUP4 MSTORE PUSH2 0x37C PUSH1 0x44 DUP3 ADD PUSH2 0x91A JUMP JUMPDEST SWAP3 PUSH1 0x40 DUP4 ADD SWAP4 DUP5 MSTORE PUSH1 0x64 DUP3 ADD CALLDATALOAD PUSH1 0x1 PUSH1 0x1 PUSH1 0x40 SHL SUB DUP2 GT PUSH2 0xE9 JUMPI DUP3 ADD CALLDATASIZE PUSH1 0x23 DUP3 ADD SLT ISZERO PUSH2 0xE9 JUMPI PUSH1 0x4 DUP2 ADD CALLDATALOAD SWAP1 PUSH2 0x3B3 DUP3 PUSH2 0x92E JUMP JUMPDEST SWAP2 PUSH2 0x3C1 PUSH1 0x40 MLOAD SWAP4 DUP5 PUSH2 0x8F9 JUMP JUMPDEST DUP1 DUP4 MSTORE PUSH1 0x20 PUSH1 0x4 DUP2 DUP6 ADD SWAP3 PUSH1 0x5 SHL DUP5 ADD ADD ADD SWAP2 CALLDATASIZE DUP4 GT PUSH2 0xE9 JUMPI PUSH1 0x24 ADD SWAP1 JUMPDEST DUP3 DUP3 LT PUSH2 0x787 JUMPI POP POP POP PUSH1 0x60 DUP5 ADD SWAP1 DUP2 MSTORE PUSH1 0x84 DUP4 ADD CALLDATALOAD PUSH1 0x1 PUSH1 0x1 PUSH1 0x40 SHL SUB DUP2 GT PUSH2 0xE9 JUMPI PUSH2 0x414 SWAP1 PUSH1 0x4 CALLDATASIZE SWAP2 DUP7 ADD ADD PUSH2 0x945 JUMP JUMPDEST SWAP3 PUSH1 0x80 DUP6 ADD SWAP4 DUP5 MSTORE PUSH1 0xA4 DUP2 ADD CALLDATALOAD PUSH1 0x1 PUSH1 0x1 PUSH1 0x40 SHL SUB DUP2 GT PUSH2 0xE9 JUMPI PUSH2 0x43F SWAP1 PUSH1 0x4 CALLDATASIZE SWAP2 DUP5 ADD ADD PUSH2 0x945 JUMP JUMPDEST SWAP1 PUSH1 0xA0 DUP7 ADD SWAP2 DUP3 MSTORE PUSH1 0xC4 DUP2 ADD CALLDATALOAD PUSH1 0x1 PUSH1 0x1 PUSH1 0x40 SHL SUB DUP2 GT PUSH2 0xE9 JUMPI DUP2 ADD SWAP1 CALLDATASIZE PUSH1 0x23 DUP4 ADD SLT ISZERO PUSH2 0xE9 JUMPI PUSH1 0x4 DUP3 ADD CALLDATALOAD PUSH2 0x476 DUP2 PUSH2 0x92E JUMP JUMPDEST SWAP3 PUSH2 0x484 PUSH1 0x40 MLOAD SWAP5 DUP6 PUSH2 0x8F9 JUMP JUMPDEST DUP2 DUP5 MSTORE PUSH1 0x20 PUSH1 0x4 DUP2 DUP7 ADD SWAP4 PUSH1 0x5 SHL DUP4 ADD ADD ADD SWAP1 CALLDATASIZE DUP3 GT PUSH2 0xE9 JUMPI PUSH1 0x24 ADD SWAP2 JUMPDEST DUP2 DUP4 LT PUSH2 0x76C JUMPI POP POP POP PUSH1 0xC0 DUP8 ADD SWAP2 DUP3 MSTORE PUSH1 0xE4 DUP2 ADD CALLDATALOAD SWAP1 DUP2 ISZERO ISZERO DUP3 SUB PUSH2 0xE9 JUMPI PUSH1 0xE0 DUP9 ADD SWAP2 DUP3 MSTORE PUSH2 0x104 ADD CALLDATALOAD SWAP2 PUSH1 0xFF DUP4 AND DUP4 SUB PUSH2 0xE9 JUMPI PUSH2 0x100 DUP9 ADD SWAP3 DUP4 MSTORE PUSH1 0x24 CALLDATALOAD PUSH1 0x1 PUSH1 0x1 PUSH1 0x40 SHL SUB DUP2 GT PUSH2 0xE9 JUMPI PUSH2 0x504 SWAP1 SWAP9 SWAP6 SWAP9 CALLDATASIZE SWAP1 PUSH1 0x4 ADD PUSH2 0x9CE JUMP JUMPDEST SWAP4 DUP9 MLOAD MLOAD SWAP8 PUSH2 0x52B PUSH2 0x515 DUP11 PUSH2 0x92E JUMP JUMPDEST SWAP10 PUSH2 0x523 PUSH1 0x40 MLOAD SWAP12 DUP13 PUSH2 0x8F9 JUMP JUMPDEST DUP1 DUP12 MSTORE PUSH2 0x92E JUMP JUMPDEST PUSH1 0x20 DUP11 ADD SWAP1 PUSH1 0x1F NOT ADD CALLDATASIZE DUP3 CALLDATACOPY PUSH1 0x20 DUP8 ADD SWAP8 PUSH0 JUMPDEST DUP13 MLOAD DUP1 MLOAD DUP3 LT ISZERO PUSH2 0x728 JUMPI SWAP1 DUP15 DUP10 DUP10 DUP10 DUP16 SWAP6 DUP10 DUP7 DUP1 DUP1 DUP1 DUP16 SWAP6 DUP14 PUSH1 0x1 PUSH1 0xA0 SHL PUSH1 0x1 SWAP1 SUB SWAP1 MLOAD AND SWAP13 PUSH1 0x1 PUSH1 0xA0 SHL PUSH1 0x1 SWAP1 SUB SWAP1 MLOAD AND SWAP11 PUSH1 0x1 PUSH1 0xA0 SHL PUSH1 0x1 SWAP1 SUB SWAP1 MLOAD AND SWAP5 PUSH2 0x588 SWAP2 PUSH2 0xA52 JUMP JUMPDEST MLOAD SWAP5 MLOAD SWAP1 PUSH2 0x595 SWAP2 PUSH2 0xA52 JUMP JUMPDEST MLOAD PUSH1 0x1 PUSH1 0x1 PUSH1 0x80 SHL SUB AND SWAP5 MLOAD SWAP1 PUSH2 0x5AB SWAP2 PUSH2 0xA52 JUMP JUMPDEST MLOAD PUSH1 0x1 PUSH1 0x1 PUSH1 0x80 SHL SUB AND SWAP5 MLOAD SWAP1 PUSH2 0x5C1 SWAP2 PUSH2 0xA52 JUMP JUMPDEST MLOAD PUSH2 0xFFFF AND SWAP5 MLOAD ISZERO ISZERO SWAP6 MLOAD PUSH1 0xFF AND SWAP7 PUSH1 0x40 MLOAD SWAP10 PUSH2 0x5DD DUP12 PUSH2 0x8AD JUMP JUMPDEST DUP11 MSTORE PUSH1 0x20 DUP11 ADD SWAP1 DUP2 MSTORE PUSH1 0x40 DUP1 DUP12 ADD SWAP3 DUP4 MSTORE PUSH1 0x60 DUP12 ADD SWAP4 DUP5 MSTORE PUSH1 0x80 DUP12 ADD SWAP5 DUP6 MSTORE PUSH1 0xA0 DUP12 ADD SWAP6 DUP7 MSTORE PUSH1 0xC0 DUP12 ADD SWAP7 DUP8 MSTORE PUSH1 0xE0 DUP12 ADD SWAP8 DUP9 MSTORE PUSH2 0x100 DUP12 ADD SWAP9 DUP10 MSTORE MLOAD PUSH4 0xABFEBFD1 PUSH1 0xE0 SHL DUP2 MSTORE SWAP10 MLOAD PUSH1 0x1 PUSH1 0x1 PUSH1 0xA0 SHL SUB SWAP1 DUP2 AND PUSH1 0x4 DUP13 ADD MSTORE SWAP1 MLOAD DUP2 AND PUSH1 0x24 DUP12 ADD MSTORE SWAP1 MLOAD AND PUSH1 0x44 DUP10 ADD MSTORE MLOAD PUSH1 0x64 DUP9 ADD MSTORE MLOAD PUSH1 0x1 PUSH1 0x1 PUSH1 0x80 SHL SUB SWAP1 DUP2 AND PUSH1 0x84 DUP9 ADD MSTORE SWAP1 MLOAD AND PUSH1 0xA4 DUP7 ADD MSTORE MLOAD PUSH2 0xFFFF AND PUSH1 0xC4 DUP6 ADD MSTORE MLOAD ISZERO ISZERO PUSH1 0xE4 DUP5 ADD MSTORE MLOAD PUSH1 0xFF AND PUSH2 0x104 DUP4 ADD MSTORE PUSH2 0x140 PUSH2 0x124 DUP4 ADD MSTORE DUP10 MLOAD PUSH2 0x144 DUP4 ADD DUP2 SWAP1 MSTORE DUP3 SWAP1 DUP1 DUP14 PUSH2 0x164 DUP5 ADD MCOPY DUP1 DUP3 ADD PUSH2 0x164 ADD PUSH0 SWAP1 MSTORE PUSH1 0x1F NOT SWAP1 PUSH1 0x1F ADD AND DUP2 ADD SUB PUSH2 0x164 ADD DUP3 ADDRESS SWAP2 DUP2 GAS SWAP4 PUSH1 0x20 SWAP5 STATICCALL DUP1 ISZERO PUSH2 0x71D JUMPI DUP14 SWAP3 PUSH0 SWAP2 PUSH2 0x6E5 JUMPI JUMPDEST POP PUSH2 0x6DE DUP3 PUSH1 0x1 SWAP5 PUSH2 0xA52 JUMP JUMPDEST MSTORE ADD PUSH2 0x53E JUMP JUMPDEST SWAP3 POP POP PUSH1 0x20 DUP3 RETURNDATASIZE DUP3 GT PUSH2 0x715 JUMPI JUMPDEST DUP2 PUSH2 0x700 PUSH1 0x20 SWAP4 DUP4 PUSH2 0x8F9 JUMP JUMPDEST DUP2 ADD SUB SLT PUSH2 0xE9 JUMPI SWAP1 MLOAD DUP13 SWAP2 SWAP1 PUSH2 0x6DE PUSH2 0x6D1 JUMP JUMPDEST RETURNDATASIZE SWAP2 POP PUSH2 0x6F3 JUMP JUMPDEST PUSH1 0x40 MLOAD RETURNDATASIZE PUSH0 DUP3 RETURNDATACOPY RETURNDATASIZE SWAP1 REVERT JUMPDEST DUP4 DUP14 PUSH1 0x40 MLOAD SWAP2 DUP3 SWAP2 PUSH1 0x20 DUP4 ADD SWAP1 PUSH1 0x20 DUP5 MSTORE MLOAD DUP1 SWAP2 MSTORE PUSH1 0x40 DUP4 ADD SWAP2 SWAP1 PUSH0 JUMPDEST DUP2 DUP2 LT PUSH2 0x753 JUMPI POP POP POP SUB SWAP1 RETURN JUMPDEST DUP3 MLOAD DUP5 MSTORE DUP6 SWAP5 POP PUSH1 0x20 SWAP4 DUP5 ADD SWAP4 SWAP1 SWAP3 ADD SWAP2 PUSH1 0x1 ADD PUSH2 0x745 JUMP JUMPDEST DUP3 CALLDATALOAD PUSH2 0xFFFF DUP2 AND DUP2 SUB PUSH2 0xE9 JUMPI DUP2 MSTORE PUSH1 0x20 SWAP3 DUP4 ADD SWAP3 ADD PUSH2 0x4A3 JUMP JUMPDEST DUP2 CALLDATALOAD DUP2 MSTORE PUSH1 0x20 SWAP2 DUP3 ADD SWAP2 ADD PUSH2 0x3E0 JUMP JUMPDEST CALLVALUE PUSH2 0xE9 JUMPI PUSH1 0x20 CALLDATASIZE PUSH1 0x3 NOT ADD SLT PUSH2 0xE9 JUMPI PUSH1 0x20 PUSH2 0x7BA PUSH2 0x7B5 PUSH2 0x85B JUMP JUMPDEST PUSH2 0xA32 JUMP JUMPDEST PUSH1 0x40 MLOAD SWAP1 ISZERO ISZERO DUP2 MSTORE RETURN JUMPDEST CALLVALUE PUSH2 0xE9 JUMPI PUSH1 0x40 CALLDATASIZE PUSH1 0x3 NOT ADD SLT PUSH2 0xE9 JUMPI PUSH1 0x20 PUSH2 0x7F0 PUSH2 0x7E2 PUSH2 0x85B JUMP JUMPDEST PUSH2 0x7EA PUSH2 0x87C JUMP JUMPDEST SWAP1 PUSH2 0x1247 JUMP JUMPDEST PUSH1 0x1 PUSH1 0x1 PUSH1 0x40 SHL SUB PUSH1 0x40 MLOAD SWAP2 AND DUP2 MSTORE RETURN JUMPDEST CALLVALUE PUSH2 0xE9 JUMPI PUSH1 0x40 CALLDATASIZE PUSH1 0x3 NOT ADD SLT PUSH2 0xE9 JUMPI PUSH1 0x20 PUSH2 0x2E0 PUSH2 0x81F PUSH2 0x86C JUMP JUMPDEST PUSH2 0x827 PUSH2 0x87C JUMP JUMPDEST SWAP1 PUSH2 0x181F JUMP JUMPDEST CALLVALUE PUSH2 0xE9 JUMPI PUSH1 0x20 CALLDATASIZE PUSH1 0x3 NOT ADD SLT PUSH2 0xE9 JUMPI PUSH1 0x20 SWAP1 PUSH4 0xFFFFFFFF PUSH2 0x856 PUSH2 0x851 PUSH2 0x85B JUMP JUMPDEST PUSH2 0x11FD JUMP JUMPDEST AND DUP2 MSTORE RETURN JUMPDEST PUSH1 0x4 CALLDATALOAD SWAP1 PUSH2 0xFFFF DUP3 AND DUP3 SUB PUSH2 0xE9 JUMPI JUMP JUMPDEST PUSH1 0x4 CALLDATALOAD SWAP1 PUSH1 0xFF DUP3 AND DUP3 SUB PUSH2 0xE9 JUMPI JUMP JUMPDEST PUSH1 0x24 CALLDATALOAD SWAP1 PUSH4 0xFFFFFFFF DUP3 AND DUP3 SUB PUSH2 0xE9 JUMPI JUMP JUMPDEST CALLVALUE PUSH2 0xE9 JUMPI PUSH0 CALLDATASIZE PUSH1 0x3 NOT ADD SLT PUSH2 0xE9 JUMPI PUSH1 0x20 PUSH1 0x40 MLOAD PUSH4 0x1DCD6500 DUP2 MSTORE RETURN JUMPDEST PUSH2 0x120 DUP2 ADD SWAP1 DUP2 LT PUSH1 0x1 PUSH1 0x1 PUSH1 0x40 SHL SUB DUP3 GT OR PUSH2 0x8C9 JUMPI PUSH1 0x40 MSTORE JUMP JUMPDEST PUSH4 0x4E487B71 PUSH1 0xE0 SHL PUSH0 MSTORE PUSH1 0x41 PUSH1 0x4 MSTORE PUSH1 0x24 PUSH0 REVERT JUMPDEST PUSH2 0x200 DUP2 ADD SWAP1 DUP2 LT PUSH1 0x1 PUSH1 0x1 PUSH1 0x40 SHL SUB DUP3 GT OR PUSH2 0x8C9 JUMPI PUSH1 0x40 MSTORE JUMP JUMPDEST SWAP1 PUSH1 0x1F DUP1 NOT SWAP2 ADD AND DUP2 ADD SWAP1 DUP2 LT PUSH1 0x1 PUSH1 0x1 PUSH1 0x40 SHL SUB DUP3 GT OR PUSH2 0x8C9 JUMPI PUSH1 0x40 MSTORE JUMP JUMPDEST CALLDATALOAD SWAP1 PUSH1 0x1 PUSH1 0x1 PUSH1 0xA0 SHL SUB DUP3 AND DUP3 SUB PUSH2 0xE9 JUMPI JUMP JUMPDEST PUSH1 0x1 PUSH1 0x1 PUSH1 0x40 SHL SUB DUP2 GT PUSH2 0x8C9 JUMPI PUSH1 0x5 SHL PUSH1 0x20 ADD SWAP1 JUMP JUMPDEST SWAP1 DUP1 PUSH1 0x1F DUP4 ADD SLT ISZERO PUSH2 0xE9 JUMPI DUP2 CALLDATALOAD SWAP1 PUSH2 0x95D DUP3 PUSH2 0x92E JUMP JUMPDEST SWAP3 PUSH2 0x96B PUSH1 0x40 MLOAD SWAP5 DUP6 PUSH2 0x8F9 JUMP JUMPDEST DUP3 DUP5 MSTORE PUSH1 0x20 DUP1 DUP6 ADD SWAP4 PUSH1 0x5 SHL DUP3 ADD ADD SWAP2 DUP3 GT PUSH2 0xE9 JUMPI PUSH1 0x20 ADD SWAP2 JUMPDEST DUP2 DUP4 LT PUSH2 0x993 JUMPI POP POP POP SWAP1 JUMP JUMPDEST DUP3 CALLDATALOAD PUSH1 0x1 PUSH1 0x1 PUSH1 0x80 SHL SUB DUP2 AND DUP2 SUB PUSH2 0xE9 JUMPI DUP2 MSTORE PUSH1 0x20 SWAP3 DUP4 ADD SWAP3 ADD PUSH2 0x986 JUMP JUMPDEST PUSH1 0x1 PUSH1 0x1 PUSH1 0x40 SHL SUB DUP2 GT PUSH2 0x8C9 JUMPI PUSH1 0x1F ADD PUSH1 0x1F NOT AND PUSH1 0x20 ADD SWAP1 JUMP JUMPDEST DUP2 PUSH1 0x1F DUP3 ADD SLT ISZERO PUSH2 0xE9 JUMPI DUP1 CALLDATALOAD SWAP1 PUSH2 0x9E5 DUP3 PUSH2 0x9B3 JUMP JUMPDEST SWAP3 PUSH2 0x9F3 PUSH1 0x40 MLOAD SWAP5 DUP6 PUSH2 0x8F9 JUMP JUMPDEST DUP3 DUP5 MSTORE PUSH1 0x20 DUP4 DUP4 ADD ADD GT PUSH2 0xE9 JUMPI DUP2 PUSH0 SWAP3 PUSH1 0x20 DUP1 SWAP4 ADD DUP4 DUP7 ADD CALLDATACOPY DUP4 ADD ADD MSTORE SWAP1 JUMP JUMPDEST CALLVALUE PUSH2 0xE9 JUMPI PUSH0 CALLDATASIZE PUSH1 0x3 NOT ADD SLT PUSH2 0xE9 JUMPI PUSH1 0x20 PUSH1 0x40 MLOAD PUSH4 0x3B9ACA00 DUP2 MSTORE RETURN JUMPDEST PUSH4 0xFFFFFFFF PUSH2 0xA40 DUP3 PUSH2 0x11FD JUMP JUMPDEST AND ISZERO PUSH2 0xA4D JUMPI PUSH1 0x80 AND ISZERO SWAP1 JUMP JUMPDEST POP PUSH0 SWAP1 JUMP JUMPDEST DUP1 MLOAD DUP3 LT ISZERO PUSH2 0xA66 JUMPI PUSH1 0x20 SWAP2 PUSH1 0x5 SHL ADD ADD SWAP1 JUMP JUMPDEST PUSH4 0x4E487B71 PUSH1 0xE0 SHL PUSH0 MSTORE PUSH1 0x32 PUSH1 0x4 MSTORE PUSH1 0x24 PUSH0 REVERT JUMPDEST DUP2 PUSH1 0x1F DUP3 ADD SLT ISZERO PUSH2 0xE9 JUMPI DUP1 MLOAD SWAP1 PUSH2 0xA91 DUP3 PUSH2 0x9B3 JUMP JUMPDEST SWAP3 PUSH2 0xA9F PUSH1 0x40 MLOAD SWAP5 DUP6 PUSH2 0x8F9 JUMP JUMPDEST DUP3 DUP5 MSTORE PUSH1 0x20 DUP4 DUP4 ADD ADD GT PUSH2 0xE9 JUMPI DUP2 PUSH0 SWAP3 PUSH1 0x20 DUP1 SWAP4 ADD DUP4 DUP7 ADD MCOPY DUP4 ADD ADD MSTORE SWAP1 JUMP JUMPDEST MLOAD SWAP1 PUSH1 0xFF DUP3 AND DUP3 SUB PUSH2 0xE9 JUMPI JUMP JUMPDEST MLOAD SWAP1 PUSH1 0x1 PUSH1 0x1 PUSH1 0x80 SHL SUB DUP3 AND DUP3 SUB PUSH2 0xE9 JUMPI JUMP JUMPDEST MLOAD SWAP1 PUSH2 0xFFFF DUP3 AND DUP3 SUB PUSH2 0xE9 JUMPI JUMP JUMPDEST SWAP2 SWAP1 DUP3 ADD DUP1 SWAP3 GT PUSH2 0xAFE JUMPI JUMP JUMPDEST PUSH4 0x4E487B71 PUSH1 0xE0 SHL PUSH0 MSTORE PUSH1 0x11 PUSH1 0x4 MSTORE PUSH1 0x24 PUSH0 REVERT JUMPDEST PUSH0 NOT DUP2 EQ PUSH2 0xAFE JUMPI PUSH1 0x1 ADD SWAP1 JUMP JUMPDEST DUP2 ISZERO PUSH2 0xB2A JUMPI DIV SWAP1 JUMP JUMPDEST PUSH4 0x4E487B71 PUSH1 0xE0 SHL PUSH0 MSTORE PUSH1 0x12 PUSH1 0x4 MSTORE PUSH1 0x24 PUSH0 REVERT JUMPDEST DUP2 DUP2 MUL SWAP3 SWAP2 DUP2 ISZERO SWAP2 DUP5 DIV EQ OR ISZERO PUSH2 0xAFE JUMPI JUMP JUMPDEST SWAP1 PUSH4 0x3B9ACA00 DUP3 MUL SWAP2 DUP1 DUP4 SDIV PUSH4 0x3B9ACA00 EQ SWAP1 ISZERO OR ISZERO PUSH2 0xAFE JUMPI JUMP JUMPDEST DUP2 DUP2 MUL SWAP3 SWAP2 PUSH0 DUP3 SLT PUSH1 0x1 PUSH1 0xFF SHL DUP3 EQ AND PUSH2 0xAFE JUMPI DUP2 DUP5 SDIV EQ SWAP1 ISZERO OR ISZERO PUSH2 0xAFE JUMPI JUMP JUMPDEST DUP2 ISZERO PUSH2 0xB2A JUMPI PUSH1 0x1 PUSH1 0xFF SHL DUP2 EQ PUSH0 NOT DUP4 EQ AND PUSH2 0xAFE JUMPI SDIV SWAP1 JUMP JUMPDEST DUP2 DUP2 SUB SWAP3 SWAP2 PUSH0 SGT DUP1 ISZERO DUP3 DUP6 SGT AND SWAP2 DUP5 SLT AND OR PUSH2 0xAFE JUMPI JUMP JUMPDEST SWAP2 SWAP1 DUP3 SUB SWAP2 DUP3 GT PUSH2 0xAFE JUMPI JUMP JUMPDEST SWAP1 DUP1 MLOAD DUP2 ADD PUSH1 0xA0 DUP3 PUSH1 0x20 DUP4 ADD SWAP3 SUB SLT PUSH2 0xE9 JUMPI PUSH1 0x20 DUP3 ADD MLOAD PUSH1 0x1 PUSH1 0x1 PUSH1 0x40 SHL SUB DUP2 GT PUSH2 0xE9 JUMPI DUP2 PUSH1 0x20 PUSH2 0xC03 SWAP3 DUP6 ADD ADD PUSH2 0xA7A JUMP JUMPDEST POP PUSH1 0x40 DUP3 ADD MLOAD PUSH1 0x1 PUSH1 0x1 PUSH1 0x40 SHL SUB DUP2 GT PUSH2 0xE9 JUMPI DUP2 PUSH1 0x20 PUSH2 0xC26 SWAP3 DUP6 ADD ADD PUSH2 0xA7A JUMP JUMPDEST POP PUSH1 0x60 DUP3 ADD MLOAD PUSH1 0x1 PUSH1 0x1 PUSH1 0x40 SHL SUB DUP2 GT PUSH2 0xE9 JUMPI DUP2 PUSH1 0x20 PUSH2 0xC49 SWAP3 DUP6 ADD ADD PUSH2 0xA7A JUMP JUMPDEST POP PUSH1 0x80 DUP3 ADD MLOAD PUSH1 0x1 PUSH1 0x1 PUSH1 0x40 SHL SUB DUP2 GT PUSH2 0xE9 JUMPI DUP2 PUSH1 0x20 PUSH2 0xC6C SWAP3 DUP6 ADD ADD PUSH2 0xA7A JUMP JUMPDEST POP PUSH1 0xA0 DUP3 ADD MLOAD SWAP2 PUSH1 0x1 PUSH1 0x1 PUSH1 0x40 SHL SUB DUP4 GT PUSH2 0xE9 JUMPI PUSH2 0xC8E SWAP3 ADD PUSH1 0x20 ADD PUSH2 0xA7A JUMP JUMPDEST DUP1 MLOAD DUP1 ISZERO PUSH2 0x11F6 JUMPI DUP2 PUSH2 0x100 SWAP2 DUP2 ADD SUB SLT PUSH2 0xE9 JUMPI PUSH2 0xCAF PUSH1 0x20 DUP3 ADD PUSH2 0xAC0 JUMP JUMPDEST PUSH2 0xCBB PUSH1 0x40 DUP4 ADD PUSH2 0xACE JUMP JUMPDEST SWAP2 PUSH2 0xCC8 PUSH1 0x60 DUP3 ADD PUSH2 0xACE JUMP JUMPDEST SWAP2 PUSH2 0xCD5 PUSH1 0x80 DUP4 ADD PUSH2 0xACE JUMP JUMPDEST SWAP4 PUSH2 0xCE2 PUSH1 0xA0 DUP5 ADD PUSH2 0xACE JUMP JUMPDEST PUSH1 0xC0 DUP5 ADD MLOAD PUSH1 0x1 PUSH1 0x1 PUSH1 0x40 SHL SUB DUP2 AND SUB PUSH2 0xE9 JUMPI PUSH2 0xD0F PUSH2 0x100 PUSH2 0xD08 PUSH1 0xE0 DUP8 ADD PUSH2 0xAE2 JUMP JUMPDEST SWAP6 ADD PUSH2 0xAE2 JUMP JUMPDEST SWAP6 PUSH0 SWAP6 PUSH0 SWAP4 PUSH1 0x1 DUP7 AND ISZERO ISZERO DUP1 PUSH2 0x11E4 JUMPI JUMPDEST PUSH2 0x11CF JUMPI JUMPDEST POP PUSH1 0x2 DUP6 AND ISZERO ISZERO DUP1 PUSH2 0x11BD JUMPI JUMPDEST PUSH2 0x1197 JUMPI JUMPDEST POP PUSH1 0x4 DUP5 AND ISZERO ISZERO DUP1 PUSH2 0x1185 JUMPI JUMPDEST PUSH2 0x115F JUMPI JUMPDEST POP PUSH1 0x8 DUP4 AND ISZERO ISZERO DUP1 PUSH2 0x114D JUMPI JUMPDEST PUSH2 0x1129 JUMPI JUMPDEST POP DUP1 ISZERO PUSH2 0x111F JUMPI PUSH2 0xD76 PUSH1 0x1 PUSH1 0x1 PUSH1 0x80 SHL SUB SWAP2 PUSH1 0x4 SWAP6 PUSH2 0xB20 JUMP JUMPDEST AND SWAP2 PUSH1 0xE0 DUP7 ADD SWAP2 DUP3 MLOAD ISZERO ISZERO PUSH0 EQ PUSH2 0x110B JUMPI DUP7 MLOAD PUSH1 0x20 SWAP1 PUSH1 0x1 PUSH1 0x1 PUSH1 0xA0 SHL SUB AND JUMPDEST PUSH1 0x40 MLOAD PUSH4 0x313CE567 PUSH1 0xE0 SHL DUP2 MSTORE SWAP7 DUP8 SWAP2 DUP3 SWAP1 PUSH1 0x1 PUSH1 0x1 PUSH1 0xA0 SHL SUB AND GAS STATICCALL SWAP4 DUP5 ISZERO PUSH2 0x71D JUMPI PUSH0 SWAP5 PUSH2 0x10CF JUMPI JUMPDEST DUP4 MLOAD PUSH1 0x4 SWAP7 POP ISZERO PUSH2 0x10BC JUMPI PUSH1 0x20 DUP9 DUP2 ADD MLOAD PUSH1 0x1 PUSH1 0x1 PUSH1 0xA0 SHL SUB AND JUMPDEST PUSH1 0x40 MLOAD PUSH4 0x313CE567 PUSH1 0xE0 SHL DUP2 MSTORE SWAP8 DUP9 SWAP2 DUP3 SWAP1 PUSH1 0x1 PUSH1 0x1 PUSH1 0xA0 SHL SUB AND GAS STATICCALL SWAP6 DUP7 ISZERO PUSH2 0x71D JUMPI PUSH0 SWAP7 PUSH2 0x1080 JUMPI JUMPDEST POP PUSH1 0xC0 DUP9 ADD MLOAD SWAP7 PUSH2 0xFFFF DUP9 AND SWAP4 PUSH2 0xE52 PUSH2 0xFFFF PUSH1 0xF DUP12 AND SWAP3 PUSH2 0xE28 DUP9 PUSH2 0x11FD JUMP JUMPDEST SWAP7 PUSH2 0xE33 DUP9 DUP7 PUSH2 0x1349 JUMP JUMPDEST SWAP6 PUSH0 SWAP2 PUSH1 0x20 DUP2 AND ISZERO ISZERO DUP1 PUSH2 0x1075 JUMPI JUMPDEST ISZERO PUSH2 0x1048 JUMPI POP POP POP JUMPDEST AND DUP1 PUSH2 0xB3E JUMP JUMPDEST SWAP1 PUSH1 0xA DUP3 MUL SWAP2 DUP1 DUP4 DIV PUSH1 0xA EQ SWAP1 ISZERO OR ISZERO PUSH2 0xAFE JUMPI PUSH2 0xE6F DUP2 PUSH2 0x189C JUMP JUMPDEST SWAP5 PUSH1 0x80 PUSH2 0xE7C DUP3 DUP5 PUSH2 0x181F JUMP JUMPDEST SWAP12 AND ISZERO PUSH2 0xFF8 JUMPI PUSH2 0xE91 PUSH1 0x3 SWAP2 PUSH1 0xFF SWAP4 PUSH2 0x181F JUMP JUMPDEST SWAP7 JUMPDEST PUSH1 0x4 SHR AND AND PUSH1 0x1 DUP2 SUB PUSH2 0xFE4 JUMPI POP PUSH1 0x1 JUMPDEST PUSH2 0xEAD DUP5 PUSH2 0x1380 JUMP JUMPDEST PUSH1 0x80 DUP13 ADD MLOAD PUSH1 0x1 PUSH1 0x1 PUSH1 0x80 SHL SUB AND SWAP2 PUSH1 0xA0 DUP14 ADD MLOAD PUSH1 0x1 PUSH1 0x1 PUSH1 0x80 SHL SUB AND SWAP13 PUSH1 0x60 ADD SWAP13 DUP14 MLOAD DUP11 MLOAD ISZERO ISZERO SWAP2 PUSH2 0xEDF SWAP6 PUSH2 0x1605 JUMP JUMPDEST SWAP2 PUSH4 0xFFFFFFFF AND SWAP1 PUSH2 0xEF0 SWAP2 PUSH2 0xB3E JUMP JUMPDEST PUSH4 0x3B9ACA00 SWAP1 DIV PUSH4 0x3B9ACA00 SWAP1 DIV PUSH2 0xF07 SWAP2 PUSH2 0xB6D JUMP JUMPDEST PUSH2 0xF11 SWAP1 DUP3 PUSH2 0xB6D JUMP JUMPDEST PUSH4 0x3B9ACA00 SWAP1 SDIV PUSH2 0xF21 SWAP2 PUSH2 0xBA9 JUMP JUMPDEST PUSH1 0x1 PUSH1 0x1 PUSH1 0x80 SHL SUB AND SWAP6 PUSH4 0xFFFFFFFF AND SWAP1 PUSH4 0xFFFFFFFF AND SWAP1 PUSH2 0xF42 SWAP2 PUSH2 0xBA9 JUMP JUMPDEST SWAP1 PUSH4 0xFFFFFFFF AND SWAP1 DUP2 DUP2 ADD SWAP2 DUP3 SLT SWAP1 PUSH0 SGT SWAP1 DUP1 ISZERO DUP3 AND SWAP2 ISZERO AND OR PUSH2 0xAFE JUMPI PUSH0 DUP2 SLT PUSH2 0xFDD JUMPI JUMPDEST PUSH4 0xFFFFFFFF AND SWAP4 DUP5 PUSH4 0x3B9ACA00 SUB PUSH4 0x3B9ACA00 DUP2 GT PUSH2 0xAFE JUMPI PUSH2 0xF93 PUSH1 0x1 PUSH1 0x1 PUSH1 0x80 SHL SUB SWAP2 DUP4 PUSH2 0x13FE JUMP JUMPDEST AND SWAP5 PUSH4 0x3B9ACA00 ADD SWAP1 DUP2 PUSH4 0x3B9ACA00 GT PUSH2 0xAFE JUMPI PUSH1 0x1 PUSH1 0x1 PUSH1 0x80 SHL SUB SWAP2 PUSH2 0xFB9 SWAP2 PUSH2 0x13FE JUMP JUMPDEST SWAP2 MLOAD SWAP2 AND SWAP1 ISZERO PUSH2 0xFD1 JUMPI POP PUSH2 0xFCE SWAP4 MLOAD PUSH2 0x17E4 JUMP JUMPDEST SWAP1 JUMP JUMPDEST SWAP3 POP PUSH2 0xFCE SWAP4 MLOAD PUSH2 0x179D JUMP JUMPDEST POP PUSH0 PUSH2 0xF68 JUMP JUMPDEST PUSH1 0x2 SUB PUSH2 0xFF2 JUMPI PUSH1 0x2 PUSH2 0xEA4 JUMP JUMPDEST PUSH0 PUSH2 0xEA4 JUMP JUMPDEST POP POP PUSH4 0xFFFFFFFF DUP3 AND DUP2 DUP2 ISZERO DUP1 ISZERO PUSH2 0x1040 JUMPI JUMPDEST ISZERO PUSH2 0x101D JUMPI POP POP PUSH1 0xFF PUSH1 0x3 PUSH0 SWAP7 PUSH2 0xE93 JUMP JUMPDEST PUSH4 0xFFFFFFFF PUSH4 0x3B9ACA00 PUSH2 0x1035 PUSH1 0x3 SWAP4 PUSH1 0xFF SWAP6 PUSH2 0xB3E JUMP JUMPDEST DIV PUSH1 0x1 SHR AND SWAP7 PUSH2 0xE93 JUMP JUMPDEST POP DUP1 ISZERO PUSH2 0x100B JUMP JUMPDEST PUSH1 0x40 SWAP2 SWAP3 SWAP4 POP AND ISZERO ISZERO DUP1 PUSH2 0x106A JUMPI JUMPDEST PUSH2 0x1062 JUMPI JUMPDEST POP PUSH2 0xE4B JUMP JUMPDEST SWAP1 POP PUSH0 PUSH2 0x105C JUMP JUMPDEST POP DUP3 DUP2 AND ISZERO ISZERO PUSH2 0x1057 JUMP JUMPDEST POP DUP5 DUP5 AND ISZERO ISZERO PUSH2 0xE42 JUMP JUMPDEST SWAP1 SWAP6 POP PUSH1 0x20 DUP2 RETURNDATASIZE PUSH1 0x20 GT PUSH2 0x10B4 JUMPI JUMPDEST DUP2 PUSH2 0x109C PUSH1 0x20 SWAP4 DUP4 PUSH2 0x8F9 JUMP JUMPDEST DUP2 ADD SUB SLT PUSH2 0xE9 JUMPI PUSH2 0x10AD SWAP1 PUSH2 0xAC0 JUMP JUMPDEST SWAP5 PUSH0 PUSH2 0xE07 JUMP JUMPDEST RETURNDATASIZE SWAP2 POP PUSH2 0x108F JUMP JUMPDEST DUP8 MLOAD PUSH1 0x20 SWAP1 PUSH1 0x1 PUSH1 0x1 PUSH1 0xA0 SHL SUB AND PUSH2 0xDDC JUMP JUMPDEST SWAP4 POP PUSH1 0x20 DUP6 RETURNDATASIZE PUSH1 0x20 GT PUSH2 0x1103 JUMPI JUMPDEST DUP2 PUSH2 0x10EA PUSH1 0x20 SWAP4 DUP4 PUSH2 0x8F9 JUMP JUMPDEST DUP2 ADD SUB SLT PUSH2 0xE9 JUMPI PUSH2 0x10FD PUSH1 0x4 SWAP6 PUSH2 0xAC0 JUMP JUMPDEST SWAP4 PUSH2 0xDC1 JUMP JUMPDEST RETURNDATASIZE SWAP2 POP PUSH2 0x10DD JUMP JUMPDEST PUSH1 0x20 DUP8 DUP2 ADD MLOAD PUSH1 0x1 PUSH1 0x1 PUSH1 0xA0 SHL SUB AND PUSH2 0xD96 JUMP JUMPDEST POP POP POP POP POP POP PUSH0 SWAP1 JUMP JUMPDEST PUSH2 0x1147 SWAP2 SWAP5 PUSH1 0x1 PUSH1 0x1 PUSH1 0x80 SHL SUB PUSH2 0x1141 SWAP3 AND SWAP1 PUSH2 0xAF1 JUMP JUMPDEST SWAP4 PUSH2 0xB12 JUMP JUMPDEST PUSH0 PUSH2 0xD5B JUMP JUMPDEST POP PUSH1 0x1 PUSH1 0x1 PUSH1 0x80 SHL SUB DUP2 AND ISZERO ISZERO PUSH2 0xD56 JUMP JUMPDEST PUSH2 0x117E SWAP2 SWAP3 SWAP6 PUSH1 0x1 PUSH1 0x1 PUSH1 0x80 SHL SUB PUSH2 0x1178 SWAP3 AND SWAP1 PUSH2 0xAF1 JUMP JUMPDEST SWAP5 PUSH2 0xB12 JUMP JUMPDEST SWAP1 PUSH0 PUSH2 0xD49 JUMP JUMPDEST POP PUSH1 0x1 PUSH1 0x1 PUSH1 0x80 SHL SUB DUP2 AND ISZERO ISZERO PUSH2 0xD44 JUMP JUMPDEST PUSH2 0x11B6 SWAP2 SWAP4 SWAP7 PUSH1 0x1 PUSH1 0x1 PUSH1 0x80 SHL SUB PUSH2 0x11B0 SWAP3 AND SWAP1 PUSH2 0xAF1 JUMP JUMPDEST SWAP6 PUSH2 0xB12 JUMP JUMPDEST SWAP2 PUSH0 PUSH2 0xD37 JUMP JUMPDEST POP PUSH1 0x1 PUSH1 0x1 PUSH1 0x80 SHL SUB DUP2 AND ISZERO ISZERO PUSH2 0xD32 JUMP JUMPDEST PUSH1 0x1 PUSH1 0x1 PUSH1 0x80 SHL SUB AND SWAP7 POP PUSH1 0x1 SWAP4 POP PUSH0 PUSH2 0xD25 JUMP JUMPDEST POP PUSH1 0x1 PUSH1 0x1 PUSH1 0x80 SHL SUB DUP2 AND ISZERO ISZERO PUSH2 0xD20 JUMP JUMPDEST POP POP POP PUSH0 SWAP1 JUMP JUMPDEST PUSH2 0x100 DUP2 AND PUSH2 0xA4D JUMPI PUSH1 0x4 DUP2 SWAP1 SHR PUSH1 0x3 AND ISZERO PUSH2 0xA4D JUMPI PUSH1 0x6 SHR PUSH1 0x1 AND PUSH2 0x1225 JUMPI PUSH4 0x1DCD6500 SWAP1 JUMP JUMPDEST PUSH4 0x3B9ACA00 SWAP1 JUMP JUMPDEST SWAP1 PUSH4 0xFFFFFFFF DUP1 SWAP2 AND SWAP2 AND ADD SWAP1 PUSH4 0xFFFFFFFF DUP3 GT PUSH2 0xAFE JUMPI JUMP JUMPDEST SWAP1 PUSH1 0xF DUP3 AND SWAP1 PUSH2 0x1256 DUP4 PUSH2 0x11FD JUMP JUMPDEST SWAP1 PUSH2 0x1260 DUP4 PUSH2 0x189C JUMP JUMPDEST SWAP4 PUSH4 0xFFFFFFFF DUP4 AND ISZERO PUSH2 0x133C JUMPI PUSH1 0x80 AND PUSH2 0x12E6 JUMPI DUP2 PUSH4 0x3B9ACA00 PUSH2 0x129B PUSH2 0x12A5 SWAP4 PUSH4 0xFFFFFFFF DUP1 PUSH2 0x1292 DUP2 SWAP9 DUP11 PUSH2 0x1349 JUMP JUMPDEST AND SWAP2 AND SWAP1 PUSH2 0xB3E JUMP JUMPDEST PUSH1 0x1 SHR DIV SWAP4 PUSH2 0x181F JUMP JUMPDEST SWAP3 AND SWAP2 PUSH4 0xFFFFFFFF PUSH2 0x12B7 DUP4 DUP6 PUSH2 0xAF1 JUMP JUMPDEST SWAP2 AND SWAP1 DUP2 GT PUSH2 0x12DE JUMPI PUSH2 0x12D5 PUSH2 0x12DA SWAP3 PUSH1 0x1 PUSH1 0x1 PUSH1 0x40 SHL SUB SWAP5 PUSH2 0xAF1 JUMP JUMPDEST PUSH2 0xBC1 JUMP JUMPDEST AND SWAP1 JUMP JUMPDEST POP PUSH0 SWAP3 SWAP2 POP POP JUMP JUMPDEST POP SWAP2 PUSH2 0x1301 DUP4 PUSH2 0x12FB PUSH4 0xFFFFFFFF SWAP6 DUP6 PUSH2 0x181F JUMP JUMPDEST SWAP4 PUSH2 0x181F JUMP JUMPDEST SWAP2 DUP4 PUSH2 0x130D DUP5 DUP5 PUSH2 0x122D JUMP JUMPDEST SWAP2 AND SWAP4 AND DUP4 GT PUSH2 0x12DE JUMPI PUSH4 0xFFFFFFFF SWAP2 PUSH2 0x1326 SWAP2 PUSH2 0x122D JUMP JUMPDEST AND SUB PUSH4 0xFFFFFFFF DUP2 GT PUSH2 0xAFE JUMPI PUSH4 0xFFFFFFFF AND SWAP1 JUMP JUMPDEST POP POP POP POP PUSH4 0xFFFFFFFF AND SWAP1 JUMP JUMPDEST SWAP1 PUSH4 0xFFFFFFFF AND DUP1 ISZERO PUSH2 0x137A JUMPI PUSH2 0x1375 PUSH4 0x3B9ACA00 SWAP2 PUSH4 0xFFFFFFFF PUSH2 0x136E DUP2 SWAP6 PUSH2 0x1957 JUMP JUMPDEST AND SWAP1 PUSH2 0xB3E JUMP JUMPDEST DIV AND SWAP1 JUMP JUMPDEST POP POP PUSH0 SWAP1 JUMP JUMPDEST PUSH0 NOT PUSH4 0x3B9ACA00 DUP3 MULMOD PUSH4 0x3B9ACA00 DUP3 MUL SWAP2 DUP3 DUP1 DUP4 LT SWAP3 SUB SWAP2 DUP1 DUP4 SUB SWAP3 EQ PUSH2 0x13F6 JUMPI DUP2 PUSH1 0x1 PUSH1 0x40 SHL GT ISZERO PUSH2 0x13CB JUMPI PUSH4 0x3B9ACA00 PUSH1 0x1 PUSH1 0x40 SHL SWAP2 MULMOD SWAP1 DUP3 DUP3 GT SWAP1 SUB PUSH1 0xC0 SHL SWAP2 SUB PUSH1 0x40 SHR OR SWAP1 JUMP JUMPDEST PUSH1 0x40 MLOAD PUSH3 0x461BCD PUSH1 0xE5 SHL DUP2 MSTORE PUSH1 0x20 PUSH1 0x4 DUP3 ADD MSTORE PUSH1 0x3 PUSH1 0x24 DUP3 ADD MSTORE PUSH3 0x13D193 PUSH1 0xEA SHL PUSH1 0x44 DUP3 ADD MSTORE PUSH1 0x64 SWAP1 REVERT JUMPDEST POP POP PUSH1 0x40 SHR SWAP1 JUMP JUMPDEST PUSH0 NOT DUP3 DUP3 MULMOD DUP3 DUP3 MUL SWAP2 DUP3 DUP1 DUP4 LT SWAP3 SUB SWAP2 DUP1 DUP4 SUB SWAP3 EQ PUSH2 0x145F JUMPI DUP2 PUSH4 0x3B9ACA00 GT ISZERO PUSH2 0x13CB JUMPI PUSH32 0x88F2CFB83100CB4E69E7C79C58B316E597157D372FB9787E8E47CE423A2E9C6D SWAP4 PUSH4 0x3B9ACA00 SWAP2 MULMOD SWAP1 DUP3 DUP3 GT SWAP1 SUB PUSH1 0xF7 SHL SWAP2 SUB PUSH1 0x9 SHR OR MUL SWAP1 JUMP JUMPDEST POP POP PUSH4 0x3B9ACA00 SWAP2 POP DIV SWAP1 JUMP JUMPDEST PUSH0 NOT PUSH1 0x1 PUSH1 0x40 SHL DUP3 MULMOD SWAP2 DUP2 PUSH1 0x40 SHL SWAP2 DUP3 DUP1 DUP6 LT SWAP5 SUB SWAP4 DUP1 DUP6 SUB SWAP5 EQ PUSH2 0x14EE JUMPI DUP4 DUP3 GT ISZERO PUSH2 0x13CB JUMPI PUSH1 0x1 PUSH1 0x40 SHL DUP3 SWAP2 MULMOD PUSH1 0x1 DUP3 NOT ADD DUP3 AND DUP1 SWAP3 DIV PUSH1 0x2 DUP2 PUSH1 0x3 MUL XOR DUP1 DUP3 MUL PUSH1 0x2 SUB MUL DUP1 DUP3 MUL PUSH1 0x2 SUB MUL DUP1 DUP3 MUL PUSH1 0x2 SUB MUL DUP1 DUP3 MUL PUSH1 0x2 SUB MUL DUP1 DUP3 MUL PUSH1 0x2 SUB MUL DUP1 SWAP2 MUL PUSH1 0x2 SUB MUL SWAP4 PUSH1 0x1 DUP4 DUP1 PUSH0 SUB DIV ADD SWAP1 DUP5 DUP4 GT SWAP1 SUB MUL SWAP3 SUB DIV OR MUL SWAP1 JUMP JUMPDEST POP DUP1 SWAP3 POP ISZERO PUSH2 0x14FB JUMPI DIV SWAP1 JUMP JUMPDEST PUSH1 0x64 PUSH1 0x40 MLOAD PUSH3 0x461BCD PUSH1 0xE5 SHL DUP2 MSTORE PUSH1 0x20 PUSH1 0x4 DUP3 ADD MSTORE PUSH1 0x4 PUSH1 0x24 DUP3 ADD MSTORE PUSH4 0x4449563 PUSH1 0xE4 SHL PUSH1 0x44 DUP3 ADD MSTORE REVERT JUMPDEST PUSH0 NOT DUP3 DUP3 MULMOD SWAP1 DUP3 DUP2 MUL SWAP3 DUP4 DUP1 DUP5 LT SWAP4 SUB SWAP3 DUP1 DUP5 SUB SWAP4 EQ PUSH2 0x1565 JUMPI DUP3 PUSH1 0x1 PUSH1 0x40 SHL GT ISZERO PUSH2 0x13CB JUMPI PUSH1 0x1 PUSH1 0x40 SHL SWAP2 MULMOD SWAP1 DUP3 DUP3 GT SWAP1 SUB PUSH1 0xC0 SHL SWAP2 SUB PUSH1 0x40 SHR OR SWAP1 JUMP JUMPDEST POP POP POP PUSH1 0x40 SHR SWAP1 JUMP JUMPDEST SWAP2 PUSH0 NOT DUP3 DUP5 MULMOD SWAP3 DUP3 DUP2 MUL SWAP3 DUP4 DUP1 DUP7 LT SWAP6 SUB SWAP5 DUP1 DUP7 SUB SWAP6 EQ PUSH2 0x15E7 JUMPI DUP5 DUP4 GT ISZERO PUSH2 0x13CB JUMPI DUP3 SWAP2 MULMOD PUSH1 0x1 DUP3 NOT ADD DUP3 AND DUP1 SWAP3 DIV PUSH1 0x2 DUP2 PUSH1 0x3 MUL XOR DUP1 DUP3 MUL PUSH1 0x2 SUB MUL DUP1 DUP3 MUL PUSH1 0x2 SUB MUL DUP1 DUP3 MUL PUSH1 0x2 SUB MUL DUP1 DUP3 MUL PUSH1 0x2 SUB MUL DUP1 DUP3 MUL PUSH1 0x2 SUB MUL DUP1 SWAP2 MUL PUSH1 0x2 SUB MUL SWAP4 PUSH1 0x1 DUP4 DUP1 PUSH0 SUB DIV ADD SWAP1 DUP5 DUP4 GT SWAP1 SUB MUL SWAP3 SUB DIV OR MUL SWAP1 JUMP JUMPDEST POP POP DUP1 SWAP3 POP ISZERO PUSH2 0x14FB JUMPI DIV SWAP1 JUMP JUMPDEST PUSH1 0x1 PUSH1 0xFF SHL DUP2 EQ PUSH2 0xAFE JUMPI PUSH0 SUB SWAP1 JUMP JUMPDEST SWAP1 SWAP5 SWAP3 SWAP2 SWAP4 SWAP5 PUSH4 0x3B9ACA00 DUP2 MUL SWAP1 DUP1 DUP3 DIV PUSH4 0x3B9ACA00 EQ SWAP1 ISZERO OR ISZERO PUSH2 0xAFE JUMPI DUP4 PUSH2 0x162E SWAP2 PUSH2 0xB20 JUMP JUMPDEST SWAP2 ISZERO PUSH2 0x172D JUMPI PUSH4 0x3B9ACA00 PUSH2 0x164D DUP5 PUSH2 0x1647 DUP8 DUP6 PUSH2 0xAF1 JUMP JUMPDEST SWAP7 PUSH2 0xB3E JUMP JUMPDEST DIV PUSH4 0x3B9ACA00 DUP2 MUL SWAP1 DUP1 DUP3 DIV PUSH4 0x3B9ACA00 EQ SWAP1 ISZERO OR ISZERO PUSH2 0xAFE JUMPI DUP6 DUP1 SWAP4 PUSH2 0x167A PUSH2 0x1692 SWAP7 PUSH2 0x168C SWAP5 PUSH2 0xB20 JUMP JUMPDEST DUP1 DUP3 GT ISZERO PUSH2 0x1726 JUMPI PUSH2 0x168C SWAP1 DUP3 PUSH2 0xBC1 JUMP JUMPDEST SWAP4 PUSH2 0x1A15 JUMP JUMPDEST SWAP2 PUSH1 0x3 DUP2 LT ISZERO PUSH2 0x1712 JUMPI PUSH2 0x1704 JUMPI PUSH2 0x16BA SWAP2 SWAP1 PUSH0 DUP2 SLT PUSH2 0x16F5 JUMPI SWAP1 JUMPDEST PUSH0 DUP2 SLT PUSH2 0x16E7 JUMPI PUSH2 0xBA9 JUMP JUMPDEST PUSH4 0x3B9ACA00 DUP2 SGT PUSH2 0x16DE JUMPI PUSH4 0x3B9AC9FF NOT DUP2 SLT PUSH2 0x16D4 JUMPI SWAP1 JUMP JUMPDEST POP PUSH4 0x3B9AC9FF NOT SWAP1 JUMP JUMPDEST POP PUSH4 0x3B9ACA00 SWAP1 JUMP JUMPDEST PUSH2 0x16F0 SWAP1 PUSH2 0x15F5 JUMP JUMPDEST PUSH2 0xBA9 JUMP JUMPDEST PUSH2 0x16FE SWAP1 PUSH2 0x15F5 JUMP JUMPDEST SWAP1 PUSH2 0x16AE JUMP JUMPDEST PUSH2 0x170D SWAP2 PUSH2 0xBA9 JUMP JUMPDEST PUSH2 0x16BA JUMP JUMPDEST PUSH4 0x4E487B71 PUSH1 0xE0 SHL PUSH0 MSTORE PUSH1 0x21 PUSH1 0x4 MSTORE PUSH1 0x24 PUSH0 REVERT JUMPDEST POP PUSH0 PUSH2 0x168C JUMP JUMPDEST SWAP3 PUSH4 0x3B9ACA00 DUP2 SWAP4 SWAP3 SWAP4 MUL SWAP1 DUP1 DUP3 DIV PUSH4 0x3B9ACA00 EQ SWAP1 ISZERO OR ISZERO PUSH2 0xAFE JUMPI PUSH2 0x168C DUP6 PUSH2 0x1692 SWAP5 PUSH2 0x1770 DUP6 PUSH2 0x176A PUSH2 0x1764 DUP6 SWAP9 DUP9 PUSH2 0xB20 JUMP JUMPDEST DUP5 PUSH2 0xAF1 JUMP JUMPDEST SWAP6 PUSH2 0xB20 JUMP JUMPDEST DUP1 DUP9 GT ISZERO PUSH2 0x1788 JUMPI PUSH2 0x1782 SWAP1 DUP9 PUSH2 0xBC1 JUMP JUMPDEST SWAP7 PUSH2 0x1A15 JUMP JUMPDEST POP PUSH0 PUSH2 0x1782 JUMP JUMPDEST PUSH1 0x4D DUP2 GT PUSH2 0xAFE JUMPI PUSH1 0xA EXP SWAP1 JUMP JUMPDEST SWAP1 SWAP3 SWAP2 SWAP3 DUP2 ISZERO PUSH2 0x17DC JUMPI PUSH2 0xFCE SWAP4 PUSH1 0x1 PUSH1 0x1 PUSH1 0x80 SHL SUB SWAP3 PUSH2 0x17CE PUSH1 0xFF PUSH2 0x17C7 DUP2 PUSH2 0x17D4 SWAP7 AND PUSH2 0x178F JUMP JUMPDEST SWAP4 AND PUSH2 0x178F JUMP JUMPDEST SWAP1 PUSH2 0x156E JUMP JUMPDEST SWAP2 AND SWAP1 PUSH2 0x146C JUMP JUMPDEST POP POP POP POP PUSH0 SWAP1 JUMP JUMPDEST SWAP3 SWAP1 DUP4 ISZERO PUSH2 0x17DC JUMPI PUSH2 0xFCE SWAP4 PUSH1 0x1 PUSH1 0x1 PUSH1 0x80 SHL SUB PUSH2 0x1812 PUSH1 0xFF PUSH2 0x180B DUP2 PUSH2 0x181A SWAP7 AND PUSH2 0x178F JUMP JUMPDEST SWAP7 AND PUSH2 0x178F JUMP JUMPDEST SWAP4 AND SWAP1 PUSH2 0x1526 JUMP JUMPDEST PUSH2 0x156E JUMP JUMPDEST SWAP1 PUSH4 0xFFFFFFFF DUP2 AND ISZERO PUSH2 0x137A JUMPI PUSH4 0x3B9ACA00 PUSH2 0x184D PUSH4 0xFFFFFFFF PUSH2 0xE4B PUSH2 0x1847 DUP3 SWAP6 DUP8 PUSH2 0x1349 JUMP JUMPDEST SWAP6 PUSH2 0x1957 JUMP JUMPDEST DIV SWAP2 AND SWAP1 PUSH3 0x186A0 DUP3 MUL SWAP2 DUP1 DUP4 DIV PUSH3 0x186A0 EQ SWAP1 ISZERO OR ISZERO PUSH2 0xAFE JUMPI PUSH1 0x1 PUSH1 0x1 PUSH1 0xFF SHL SUB DUP2 AND DUP2 SUB PUSH2 0xAFE JUMPI PUSH4 0xFFFFFFFF SWAP2 PUSH2 0x12DA SWAP2 PUSH1 0x1 SHL SWAP1 PUSH2 0xB20 JUMP JUMPDEST SWAP1 PUSH1 0x10 DUP2 LT ISZERO PUSH2 0xA66 JUMPI PUSH1 0x5 SHL ADD SWAP1 JUMP JUMPDEST PUSH2 0x1952 PUSH4 0xFFFFFFFF SWAP2 PUSH1 0xFF PUSH1 0x40 MLOAD SWAP2 PUSH2 0x18B4 DUP4 PUSH2 0x8DD JUMP JUMPDEST PUSH2 0xC350 DUP4 MSTORE PUSH3 0x186A0 PUSH1 0x20 DUP5 ADD MSTORE PUSH3 0x3D090 PUSH1 0x40 DUP5 ADD MSTORE PUSH3 0x7A120 PUSH1 0x60 DUP5 ADD MSTORE PUSH3 0xB71B0 PUSH1 0x80 DUP5 ADD MSTORE PUSH3 0xF4240 PUSH1 0xA0 DUP5 ADD MSTORE PUSH3 0x16E360 PUSH1 0xC0 DUP5 ADD MSTORE PUSH3 0x1E8480 PUSH1 0xE0 DUP5 ADD MSTORE PUSH3 0x2DC6C0 PUSH2 0x100 DUP5 ADD MSTORE PUSH3 0x4C4B40 PUSH2 0x120 DUP5 ADD MSTORE PUSH3 0x7270E0 PUSH2 0x140 DUP5 ADD MSTORE PUSH3 0x989680 PUSH2 0x160 DUP5 ADD MSTORE PUSH3 0xE4E1C0 PUSH2 0x180 DUP5 ADD MSTORE PUSH4 0x1312D00 PUSH2 0x1A0 DUP5 ADD MSTORE PUSH4 0x1C9C380 PUSH2 0x1C0 DUP5 ADD MSTORE PUSH4 0x2FAF080 PUSH2 0x1E0 DUP5 ADD MSTORE AND SWAP1 PUSH2 0x188B JUMP JUMPDEST MLOAD AND SWAP1 JUMP JUMPDEST PUSH2 0x1952 PUSH4 0xFFFFFFFF SWAP2 PUSH1 0xFF PUSH1 0x40 MLOAD SWAP2 PUSH2 0x196F DUP4 PUSH2 0x8DD JUMP JUMPDEST PUSH4 0x77359400 DUP4 MSTORE PUSH4 0x3B9ACA00 PUSH1 0x20 DUP5 ADD MSTORE PUSH4 0x17D78400 PUSH1 0x40 DUP5 ADD MSTORE PUSH4 0xBEBC200 PUSH1 0x60 DUP5 ADD MSTORE PUSH4 0x7F28155 PUSH1 0x80 DUP5 ADD MSTORE PUSH4 0x5F5E100 PUSH1 0xA0 DUP5 ADD MSTORE PUSH4 0x3F940AB PUSH1 0xC0 DUP5 ADD MSTORE PUSH4 0x2FAF080 PUSH1 0xE0 DUP5 ADD MSTORE PUSH4 0x1FCA055 PUSH2 0x100 DUP5 ADD MSTORE PUSH4 0x1312D00 PUSH2 0x120 DUP5 ADD MSTORE PUSH3 0xCB7355 PUSH2 0x140 DUP5 ADD MSTORE PUSH3 0x989680 PUSH2 0x160 DUP5 ADD MSTORE PUSH3 0x65B9AB PUSH2 0x180 DUP5 ADD MSTORE PUSH3 0x4C4B40 PUSH2 0x1A0 DUP5 ADD MSTORE PUSH3 0x32DCD5 PUSH2 0x1C0 DUP5 ADD MSTORE PUSH3 0x1E8480 PUSH2 0x1E0 DUP5 ADD MSTORE AND SWAP1 PUSH2 0x188B JUMP JUMPDEST SWAP2 SWAP1 PUSH2 0x1A21 DUP2 DUP5 PUSH2 0xAF1 JUMP JUMPDEST SWAP2 DUP3 ISZERO PUSH2 0x17DC JUMPI PUSH1 0x3 DUP2 LT ISZERO PUSH2 0x1712 JUMPI DUP1 PUSH2 0x1A71 JUMPI POP POP DUP2 PUSH1 0x1 SHL SWAP2 DUP1 DUP4 SDIV PUSH1 0x2 EQ SWAP1 ISZERO OR ISZERO PUSH2 0xAFE JUMPI PUSH2 0x1A57 PUSH2 0x1A5C SWAP3 PUSH2 0xB51 JUMP JUMPDEST PUSH2 0xB8F JUMP JUMPDEST PUSH4 0x3B9AC9FF NOT DUP2 ADD SWAP1 DUP2 SGT PUSH1 0x1 AND PUSH2 0xAFE JUMPI SWAP1 JUMP JUMPDEST PUSH1 0x1 SUB PUSH2 0x1A85 JUMPI POP PUSH2 0x1A57 PUSH2 0xFCE SWAP3 PUSH2 0xB51 JUMP JUMPDEST PUSH2 0xFCE SWAP3 POP PUSH2 0x1A57 SWAP1 PUSH2 0xB51 JUMP INVALID LOG2 PUSH5 0x6970667358 0x22 SLT KECCAK256 DUP6 SWAP8 CODESIZE DUP5 ISZERO TIMESTAMP SWAP2 0xB7 LOG4 0xD 0xC8 0x2E 0xD5 0xAF PUSH31 0xA8FF591CDFAF1994544B7AA1A17970CBB064736F6C634300081E0033000000 "},"methodIdentifiers":{"buildBucketID(uint8,uint8,bool,bool,bool)":"d8035700","deltaStarPrecomp(uint16,uint32)":"4a42e6ed","gammaFromScaleAndIdx(uint8,uint32)":"9b6f3a48","gammaHighPpb()":"daf67cdd","gammaHighScalePpb()":"e3463b7a","gammaLowScalePpb()":"ceb5ee64","gammaMidPpb()":"b7ec31e1","gammaMidScalePpb()":"65d8f9e2","gammaScalePpbOf(uint16)":"0234beb7","invKppbFromIdx(uint8)":"82e8a97c","quote((address,address,address,uint256,uint128,uint128,uint16,bool,uint8),bytes)":"abfebfd1","quoteBatch((address,address,address,uint256[],uint128[],uint128[],uint16[],bool,uint8),bytes)":"72e07279","requiresSigmaData(uint16)":"6f96a0a3","sigmaIsFixed(uint16)":"f1ae5ea3","term2ByGammaFromIdx(uint8,uint32)":"3c1ee1d2"}}}}}