{"contracts/Peripheral/quoters/real/RealDataBridge/StoixQuoter.sol":{"StoixQuoter":{"abi":[{"inputs":[{"internalType":"bytes","name":"data","type":"bytes"}],"name":"_decodePrice","outputs":[{"internalType":"uint256","name":"price","type":"uint256"}],"stateMutability":"pure","type":"function"},{"inputs":[{"internalType":"bytes","name":"payload","type":"bytes"}],"name":"_decodeTwoBytes","outputs":[{"internalType":"bytes","name":"a","type":"bytes"},{"internalType":"bytes","name":"b","type":"bytes"}],"stateMutability":"pure","type":"function"},{"inputs":[{"internalType":"address","name":"","type":"address"}],"name":"assetParams","outputs":[{"internalType":"uint256","name":"","type":"uint256"}],"stateMutability":"view","type":"function"},{"inputs":[{"components":[{"internalType":"address","name":"asset0","type":"address"},{"internalType":"address","name":"asset1","type":"address"},{"internalType":"address","name":"quoter","type":"address"},{"internalType":"uint256","name":"amount","type":"uint256"},{"internalType":"uint128","name":"asset0Balance","type":"uint128"},{"internalType":"uint128","name":"asset1Balance","type":"uint128"},{"internalType":"uint16","name":"bucketID","type":"uint16"},{"internalType":"bool","name":"zeroForOne","type":"bool"}],"internalType":"struct QuoteParams","name":"params","type":"tuple"},{"internalType":"bytes","name":"data","type":"bytes"}],"name":"quote","outputs":[{"internalType":"uint256","name":"","type":"uint256"}],"stateMutability":"nonpayable","type":"function"},{"inputs":[{"components":[{"internalType":"address","name":"asset0","type":"address"},{"internalType":"address","name":"asset1","type":"address"},{"internalType":"address","name":"quoter","type":"address"},{"internalType":"uint256[]","name":"amount","type":"uint256[]"},{"internalType":"uint128[]","name":"asset0Balances","type":"uint128[]"},{"internalType":"uint128[]","name":"asset1Balances","type":"uint128[]"},{"internalType":"uint16[]","name":"bucketID","type":"uint16[]"},{"internalType":"bool","name":"zeroForOne","type":"bool"}],"internalType":"struct QuoteParamsBatch","name":"params","type":"tuple"},{"internalType":"bytes","name":"data","type":"bytes"}],"name":"quoteBatch","outputs":[{"internalType":"uint256[]","name":"quotes","type":"uint256[]"}],"stateMutability":"nonpayable","type":"function"},{"inputs":[{"internalType":"address","name":"asset","type":"address"},{"internalType":"uint256","name":"packed","type":"uint256"}],"name":"setAssetParams","outputs":[],"stateMutability":"nonpayable","type":"function"}],"evm":{"bytecode":{"linkReferences":{},"object":"6080604052346101a15760405161020081016001600160401b0381118282101761014b576040526019815260326020820152604b604082015260646060820152607d6080820152609660a082015260af60c082015260c860e082015260e161010082015260fa61012082015261011361014082015261012c61016082015261014561018082015261015e6101a08201526101776101c08201526101906101e08201525f5b6001811061015f5760405161010081016001600160401b0381118282101761014b576040525f81526002602082015260056040820152600a6060820152600f6080820152601960a0820152602860c0820152603c60e08201525f905f5b6008811061011b578260025560405161137290816101a68239f35b9091602061014260019260ff8651169085851b61ffff809160031b9316831b921b19161790565b93019101610100565b634e487b7160e01b5f52604160045260245ffd5b5f5f5b60108110610178575060019091019081556100a3565b835160019492859160209161ffff600486901b81811b199092169216901b179301945001610162565b5f80fdfe6080806040526004361015610012575f80fd5b5f3560e01c908163187a341114610f5b575080635b11b54a14610f275780635e3344d01461057a578063c81d53461461052e578063db90d100146101165763f9158ee51461005e575f80fd5b34610112576020366003190112610112576004356001600160401b0381116101125761008e903690600401611024565b8051810190604081602084019303126101125760208101516001600160401b038111610112578260206100c392840101611113565b9060408101516001600160401b038111610112576101009360206100ec9261010e940101611113565b6040519384936040855260408501906110ef565b9083820360208501526110ef565b0390f35b5f80fd5b34610112576040366003190112610112576004356001600160401b038111610112576101006003198236030112610112576040519061015482610fb8565b61016081600401610fa4565b825261016e60248201610fa4565b916020810192835261018260448301610fa4565b926040820193845260648301356001600160401b0381116101125783019236602385011215610112576004840135936101ba8561106a565b946101c86040519687610fe8565b808652602060048188019260051b840101019136831161011257602401905b82821061051e575050506060830193845260848101356001600160401b0381116101125761021b9060043691840101611081565b906080840191825260a48101356001600160401b038111610112576102469060043691840101611081565b9060a0850191825260c48101356001600160401b038111610112578101903660238301121561011257600482013561027d8161106a565b9261028b6040519485610fe8565b818452602060048186019360051b830101019036821161011257602401915b8183106105035750505060c0860191825260e401359182151583036101125760e086019283526024356001600160401b038111610112576102ef903690600401611024565b93875151966103166103008961106a565b9861030e6040519a8b610fe8565b808a5261106a565b602089019190601f19013683375f5b8a519081518110156104bf5782518a518e516001600160a01b039283169491831692169061035490849061120c565b51838851906103629161120c565b516001600160801b0316848a51906103799161120c565b516001600160801b031691858c51906103919161120c565b5161ffff16938d51151595604051986103a98a610fb8565b8952602089019081526040808a0192835260608a0193845260808a0194855260a08a0195865260c08a0196875260e08a01978852516305e3344d60e41b815298516001600160a01b0390811660048b01529051811660248a01529051166044880152516064870152516001600160801b03908116608487015290511660a48501525161ffff1660c484015251151560e48301526101206101048301528161045461012482018b6110ef565b03823091815a6020945f91f180156104b4575f90610482575b6001925061047b828d61120c565b5201610325565b506020823d82116104ac575b8161049b60209383610fe8565b81010312610112576001915161046d565b3d915061048e565b6040513d5f823e3d90fd5b838b604051918291602083019060208452518091526040830191905f5b8181106104ea575050500390f35b82518452859450602093840193909201916001016104dc565b823561ffff81168103610112578152602092830192016102aa565b81358152602091820191016101e7565b34610112576020366003190112610112576004356001600160401b038111610112576105716105636020923690600401611024565b8280825183010191016111f6565b50604051908152f35b3461011257366003190161012081126101125761010013610112576040516105a181610fb8565b6105a9610f8e565b8152602435906001600160a01b038216820361011257602081019182526044356001600160a01b038116810361011257604082015260608101916064358352608435916001600160801b0383168303610112576080810192835260a435916001600160801b03831683036101125760a0820192835260c4359161ffff831683036101125760c0810192835260e4359384151585036101125760e08201948552610104356001600160401b03811161011257610668903690600401611024565b938451850160a086602083019203126101125760208601516001600160401b0381116101125781602061069d92890101611113565b60408701516001600160401b038111610112578260206106bf928a0101611113565b9660608101516001600160401b038111610112578360206106e292840101611113565b9260808201516001600160401b0381116101125781602061070592850101611113565b5060a0820151906001600160401b03821161011257602061072b92610731940101611113565b91611220565b928161073f8594939a611220565b61074b82959294611220565b93906107578194611220565b979092839a610f0f575b5090879184610efd575b5085610eeb575b50610ed5575b5084869288925f14610e52575050505050975b5f9280610e49575b610dff575b505f9080610df6575b610daa575b60ff925080821115610da25750915b60018060a01b038551165f525f6020526107e260405f205460ff81169160ff808360081c169260101c1690565b60018060a09693961b038951165f525f60205261081260405f205460ff81169160ff808360081c169260101c1690565b969094909184811685831610610d9a5750935b80841682851610610d925750945b80831682841611610d8a5750915b1660be81029080820460be1490151715610be05760ff9004600a019283600a11610be05760ff1661017c81029080820461017c1490151715610be05760ff90046014019081601411610be05760ff166127108102908082046127101490151715610be05760ff900461138801918261138811610be05751996010600f8c161015610c7157600154965160405163313ce56760e01b81529b600490811b60f0169890981c61ffff16976020918d919082906001600160a01b03165afa9788156104b45760049b5f99610d58575b505160405163313ce56760e01b81529b6020918d919082906001600160a01b03165afa9a8b156104b4575f9b610d23575b506109738961096d8d6001600160801b036109658d82670de0b6b3a76400009851166112ba565b9a51166112ba565b9761119f565b0461097e8682611159565b9560018701809711610be0575f8282039212818312811691831390151617610be0576109a9816112f7565b6127108102908082046127101490151715610be0576109c9875f92611174565b91129081610d15575b6109c4811315610cfe57506109c4955b8c518b516109f7919015610cf7578a906112ba565b8b518b9015610cf057610a1390670de0b6b3a76400009261119f565b04905b6127108202918083046127101490151715610be057610a3491611174565b61222e8110610c8557506007925b600860ff85161015610c7157600f8460041c166002015492606487029680880460641490151715610be057610b1f978997610a84908315610c69578390611174565b9661012c8811610c5f575b610af8949392610abd606493610ab785610ab0610ae896610b1a9e9f61119f565b04916112f7565b9061119f565b94610ad3851596875f14610c5857600190611174565b906107d08211610c4e575b610c3f579b61119f565b049115610c395750600190611174565b90610bb88211610c2f575b60f0610ff061ffff939460041b16161c1690611159565b611159565b905f610b2b82846111db565b12610c2757610b39916111db565b835115610c0357612710018061271011610be057610b5d61271091610b7c9461119f565b04935b83511580159290610bfc5780925b15610bf45750945b516112ba565b905115610baa5791670de0b6b3a7640000610b9c610ba29360209561119f565b0461130a565b604051908152f35b91670de0b6b3a7640000830292808404670de0b6b3a76400001490151715610be057610bdb610ba292602094611174565b61130a565b634e487b7160e01b5f52601160045260245ffd5b905094610b76565b8192610b6e565b612710036127108111610be057610c2061271091610b7c9461119f565b0493610b60565b50505f610b39565b610bb89150610b03565b90611174565b610c48906111cb565b9b61119f565b6107d09150610ade565b8690611174565b61012c9750610a8f565b600190611174565b634e487b7160e01b5f52603260045260245ffd5b611d4c8110610c98575060065b92610a42565b6113888110610ca957506005610c92565b6109c48110610cba57506004610c92565b6104e28110610ccb57506003610c92565b6102718110610cdc57506002610c92565b60fa11610cea576001610c92565b5f610c92565b5090610a16565b8d906112ba565b956109c3198712156109e2576109c31996506109e2565b610d1e906111cb565b6109d2565b899b5090889160203d602011610d51575b610d3e8183610fe8565b8101610d49916111b2565b9b509061093e565b503d610d34565b6020919950610d7c90823d8411610d83575b610d748183610fe8565b8101906111b2565b989061090d565b503d610d6a565b905091610841565b905094610833565b905093610825565b9050916107b5565b50908680821115610de657610dbe91611192565b905b6127108202918083046127101490151715610be057610de18760ff93611174565b6107a6565b90610df091611192565b90610dc0565b508715156107a1565b9091508780821115610e3a57610e1491611192565b6127108102908082046127101490151715610be05787610e3391611174565b908b610798565b90610e4491611192565b610e14565b50881515610793565b9091929394505f945f94610ec9575b610ead575b50610e93575b5080610e8457505068f3f20b8dfa69d000009761078b565b610e8d91611174565b9761078b565b610ea190610ea79293611159565b91611166565b84610e6c565b610ebc90610ec2929495611159565b93611166565b918f610e66565b8d955060019450610e61565b86929750610ee38691611258565b979250610778565b610ef6919450611258565b925f610772565b869750610f0990611258565b9661076b565b849f5090610f1e899392611258565b9f509091610761565b34610112576040366003190112610112576001600160a01b03610f48610f8e565b165f525f60205260243560405f20555f80f35b34610112576020366003190112610112576020906001600160a01b03610f7f610f8e565b165f525f825260405f20548152f35b600435906001600160a01b038216820361011257565b35906001600160a01b038216820361011257565b61010081019081106001600160401b03821117610fd457604052565b634e487b7160e01b5f52604160045260245ffd5b90601f801991011681019081106001600160401b03821117610fd457604052565b6001600160401b038111610fd457601f01601f191660200190565b81601f820112156101125780359061103b82611009565b926110496040519485610fe8565b8284526020838301011161011257815f926020809301838601378301015290565b6001600160401b038111610fd45760051b60200190565b9080601f83011215610112578135906110998261106a565b926110a76040519485610fe8565b82845260208085019360051b82010191821161011257602001915b8183106110cf5750505090565b82356001600160801b0381168103610112578152602092830192016110c2565b805180835260209291819084018484015e5f828201840152601f01601f1916010190565b81601f820112156101125780519061112a82611009565b926111386040519485610fe8565b8284526020838301011161011257815f9260208093018386015e8301015290565b91908201809211610be057565b5f198114610be05760010190565b811561117e570490565b634e487b7160e01b5f52601260045260245ffd5b91908203918211610be057565b81810292918115918404141715610be057565b90816020910312610112575160ff811681036101125790565b600160ff1b8114610be0575f0390565b9190915f8382019384129112908015821691151617610be057565b9190826040910312610112576020825192015190565b8051821015610c715760209160051b010190565b8051906040821015611235575b50505f905f90565b6020806112469383010191016111f6565b5080611252578061122d565b90600190565b670de0b6b3a764000081101561128257801561117e576ec097ce7bc90715b34b9f10000000000490565b90565b60ff6011199116019060ff8211610be057565b60ff166012039060ff8211610be057565b60ff16604d8111610be057600a0a90565b60ff8216601281146112f157601211156112e257610ab76112dd61128293611298565b6112a9565b610c396112dd61128293611285565b50905090565b5f81126113015790565b611282906111cb565b60ff8216601281146112f1576012111561132d57610c396112dd61128293611298565b610ab76112dd6112829361128556fea26469706673582212200be9ac2c4e6ae9bedd35e728cb8104ef3f85b0d02f0c84fbfc78320888a9bb7a64736f6c634300081e0033","opcodes":"PUSH1 0x80 PUSH1 0x40 MSTORE CALLVALUE PUSH2 0x1A1 JUMPI PUSH1 0x40 MLOAD PUSH2 0x200 DUP2 ADD PUSH1 0x1 PUSH1 0x1 PUSH1 0x40 SHL SUB DUP2 GT DUP3 DUP3 LT OR PUSH2 0x14B JUMPI PUSH1 0x40 MSTORE PUSH1 0x19 DUP2 MSTORE PUSH1 0x32 PUSH1 0x20 DUP3 ADD MSTORE PUSH1 0x4B PUSH1 0x40 DUP3 ADD MSTORE PUSH1 0x64 PUSH1 0x60 DUP3 ADD MSTORE PUSH1 0x7D PUSH1 0x80 DUP3 ADD MSTORE PUSH1 0x96 PUSH1 0xA0 DUP3 ADD MSTORE PUSH1 0xAF PUSH1 0xC0 DUP3 ADD MSTORE PUSH1 0xC8 PUSH1 0xE0 DUP3 ADD MSTORE PUSH1 0xE1 PUSH2 0x100 DUP3 ADD MSTORE PUSH1 0xFA PUSH2 0x120 DUP3 ADD MSTORE PUSH2 0x113 PUSH2 0x140 DUP3 ADD MSTORE PUSH2 0x12C PUSH2 0x160 DUP3 ADD MSTORE PUSH2 0x145 PUSH2 0x180 DUP3 ADD MSTORE PUSH2 0x15E PUSH2 0x1A0 DUP3 ADD MSTORE PUSH2 0x177 PUSH2 0x1C0 DUP3 ADD MSTORE PUSH2 0x190 PUSH2 0x1E0 DUP3 ADD MSTORE PUSH0 JUMPDEST PUSH1 0x1 DUP2 LT PUSH2 0x15F JUMPI PUSH1 0x40 MLOAD PUSH2 0x100 DUP2 ADD PUSH1 0x1 PUSH1 0x1 PUSH1 0x40 SHL SUB DUP2 GT DUP3 DUP3 LT OR PUSH2 0x14B JUMPI PUSH1 0x40 MSTORE PUSH0 DUP2 MSTORE PUSH1 0x2 PUSH1 0x20 DUP3 ADD MSTORE PUSH1 0x5 PUSH1 0x40 DUP3 ADD MSTORE PUSH1 0xA PUSH1 0x60 DUP3 ADD MSTORE PUSH1 0xF PUSH1 0x80 DUP3 ADD MSTORE PUSH1 0x19 PUSH1 0xA0 DUP3 ADD MSTORE PUSH1 0x28 PUSH1 0xC0 DUP3 ADD MSTORE PUSH1 0x3C PUSH1 0xE0 DUP3 ADD MSTORE PUSH0 SWAP1 PUSH0 JUMPDEST PUSH1 0x8 DUP2 LT PUSH2 0x11B JUMPI DUP3 PUSH1 0x2 SSTORE PUSH1 0x40 MLOAD PUSH2 0x1372 SWAP1 DUP2 PUSH2 0x1A6 DUP3 CODECOPY RETURN JUMPDEST SWAP1 SWAP2 PUSH1 0x20 PUSH2 0x142 PUSH1 0x1 SWAP3 PUSH1 0xFF DUP7 MLOAD AND SWAP1 DUP6 DUP6 SHL PUSH2 0xFFFF DUP1 SWAP2 PUSH1 0x3 SHL SWAP4 AND DUP4 SHL SWAP3 SHL NOT AND OR SWAP1 JUMP JUMPDEST SWAP4 ADD SWAP2 ADD PUSH2 0x100 JUMP JUMPDEST PUSH4 0x4E487B71 PUSH1 0xE0 SHL PUSH0 MSTORE PUSH1 0x41 PUSH1 0x4 MSTORE PUSH1 0x24 PUSH0 REVERT JUMPDEST PUSH0 PUSH0 JUMPDEST PUSH1 0x10 DUP2 LT PUSH2 0x178 JUMPI POP PUSH1 0x1 SWAP1 SWAP2 ADD SWAP1 DUP2 SSTORE PUSH2 0xA3 JUMP JUMPDEST DUP4 MLOAD PUSH1 0x1 SWAP5 SWAP3 DUP6 SWAP2 PUSH1 0x20 SWAP2 PUSH2 0xFFFF PUSH1 0x4 DUP7 SWAP1 SHL DUP2 DUP2 SHL NOT SWAP1 SWAP3 AND SWAP3 AND SWAP1 SHL OR SWAP4 ADD SWAP5 POP ADD PUSH2 0x162 JUMP JUMPDEST PUSH0 DUP1 REVERT INVALID PUSH1 0x80 DUP1 PUSH1 0x40 MSTORE PUSH1 0x4 CALLDATASIZE LT ISZERO PUSH2 0x12 JUMPI PUSH0 DUP1 REVERT JUMPDEST PUSH0 CALLDATALOAD PUSH1 0xE0 SHR SWAP1 DUP2 PUSH4 0x187A3411 EQ PUSH2 0xF5B JUMPI POP DUP1 PUSH4 0x5B11B54A EQ PUSH2 0xF27 JUMPI DUP1 PUSH4 0x5E3344D0 EQ PUSH2 0x57A JUMPI DUP1 PUSH4 0xC81D5346 EQ PUSH2 0x52E JUMPI DUP1 PUSH4 0xDB90D100 EQ PUSH2 0x116 JUMPI PUSH4 0xF9158EE5 EQ PUSH2 0x5E JUMPI PUSH0 DUP1 REVERT JUMPDEST CALLVALUE PUSH2 0x112 JUMPI PUSH1 0x20 CALLDATASIZE PUSH1 0x3 NOT ADD SLT PUSH2 0x112 JUMPI PUSH1 0x4 CALLDATALOAD PUSH1 0x1 PUSH1 0x1 PUSH1 0x40 SHL SUB DUP2 GT PUSH2 0x112 JUMPI PUSH2 0x8E SWAP1 CALLDATASIZE SWAP1 PUSH1 0x4 ADD PUSH2 0x1024 JUMP JUMPDEST DUP1 MLOAD DUP2 ADD SWAP1 PUSH1 0x40 DUP2 PUSH1 0x20 DUP5 ADD SWAP4 SUB SLT PUSH2 0x112 JUMPI PUSH1 0x20 DUP2 ADD MLOAD PUSH1 0x1 PUSH1 0x1 PUSH1 0x40 SHL SUB DUP2 GT PUSH2 0x112 JUMPI DUP3 PUSH1 0x20 PUSH2 0xC3 SWAP3 DUP5 ADD ADD PUSH2 0x1113 JUMP JUMPDEST SWAP1 PUSH1 0x40 DUP2 ADD MLOAD PUSH1 0x1 PUSH1 0x1 PUSH1 0x40 SHL SUB DUP2 GT PUSH2 0x112 JUMPI PUSH2 0x100 SWAP4 PUSH1 0x20 PUSH2 0xEC SWAP3 PUSH2 0x10E SWAP5 ADD ADD PUSH2 0x1113 JUMP JUMPDEST PUSH1 0x40 MLOAD SWAP4 DUP5 SWAP4 PUSH1 0x40 DUP6 MSTORE PUSH1 0x40 DUP6 ADD SWAP1 PUSH2 0x10EF JUMP JUMPDEST SWAP1 DUP4 DUP3 SUB PUSH1 0x20 DUP6 ADD MSTORE PUSH2 0x10EF JUMP JUMPDEST SUB SWAP1 RETURN JUMPDEST PUSH0 DUP1 REVERT JUMPDEST CALLVALUE PUSH2 0x112 JUMPI PUSH1 0x40 CALLDATASIZE PUSH1 0x3 NOT ADD SLT PUSH2 0x112 JUMPI PUSH1 0x4 CALLDATALOAD PUSH1 0x1 PUSH1 0x1 PUSH1 0x40 SHL SUB DUP2 GT PUSH2 0x112 JUMPI PUSH2 0x100 PUSH1 0x3 NOT DUP3 CALLDATASIZE SUB ADD SLT PUSH2 0x112 JUMPI PUSH1 0x40 MLOAD SWAP1 PUSH2 0x154 DUP3 PUSH2 0xFB8 JUMP JUMPDEST PUSH2 0x160 DUP2 PUSH1 0x4 ADD PUSH2 0xFA4 JUMP JUMPDEST DUP3 MSTORE PUSH2 0x16E PUSH1 0x24 DUP3 ADD PUSH2 0xFA4 JUMP JUMPDEST SWAP2 PUSH1 0x20 DUP2 ADD SWAP3 DUP4 MSTORE PUSH2 0x182 PUSH1 0x44 DUP4 ADD PUSH2 0xFA4 JUMP JUMPDEST SWAP3 PUSH1 0x40 DUP3 ADD SWAP4 DUP5 MSTORE PUSH1 0x64 DUP4 ADD CALLDATALOAD PUSH1 0x1 PUSH1 0x1 PUSH1 0x40 SHL SUB DUP2 GT PUSH2 0x112 JUMPI DUP4 ADD SWAP3 CALLDATASIZE PUSH1 0x23 DUP6 ADD SLT ISZERO PUSH2 0x112 JUMPI PUSH1 0x4 DUP5 ADD CALLDATALOAD SWAP4 PUSH2 0x1BA DUP6 PUSH2 0x106A JUMP JUMPDEST SWAP5 PUSH2 0x1C8 PUSH1 0x40 MLOAD SWAP7 DUP8 PUSH2 0xFE8 JUMP JUMPDEST DUP1 DUP7 MSTORE PUSH1 0x20 PUSH1 0x4 DUP2 DUP9 ADD SWAP3 PUSH1 0x5 SHL DUP5 ADD ADD ADD SWAP2 CALLDATASIZE DUP4 GT PUSH2 0x112 JUMPI PUSH1 0x24 ADD SWAP1 JUMPDEST DUP3 DUP3 LT PUSH2 0x51E JUMPI POP POP POP PUSH1 0x60 DUP4 ADD SWAP4 DUP5 MSTORE PUSH1 0x84 DUP2 ADD CALLDATALOAD PUSH1 0x1 PUSH1 0x1 PUSH1 0x40 SHL SUB DUP2 GT PUSH2 0x112 JUMPI PUSH2 0x21B SWAP1 PUSH1 0x4 CALLDATASIZE SWAP2 DUP5 ADD ADD PUSH2 0x1081 JUMP JUMPDEST SWAP1 PUSH1 0x80 DUP5 ADD SWAP2 DUP3 MSTORE PUSH1 0xA4 DUP2 ADD CALLDATALOAD PUSH1 0x1 PUSH1 0x1 PUSH1 0x40 SHL SUB DUP2 GT PUSH2 0x112 JUMPI PUSH2 0x246 SWAP1 PUSH1 0x4 CALLDATASIZE SWAP2 DUP5 ADD ADD PUSH2 0x1081 JUMP JUMPDEST SWAP1 PUSH1 0xA0 DUP6 ADD SWAP2 DUP3 MSTORE PUSH1 0xC4 DUP2 ADD CALLDATALOAD PUSH1 0x1 PUSH1 0x1 PUSH1 0x40 SHL SUB DUP2 GT PUSH2 0x112 JUMPI DUP2 ADD SWAP1 CALLDATASIZE PUSH1 0x23 DUP4 ADD SLT ISZERO PUSH2 0x112 JUMPI PUSH1 0x4 DUP3 ADD CALLDATALOAD PUSH2 0x27D DUP2 PUSH2 0x106A JUMP JUMPDEST SWAP3 PUSH2 0x28B PUSH1 0x40 MLOAD SWAP5 DUP6 PUSH2 0xFE8 JUMP JUMPDEST DUP2 DUP5 MSTORE PUSH1 0x20 PUSH1 0x4 DUP2 DUP7 ADD SWAP4 PUSH1 0x5 SHL DUP4 ADD ADD ADD SWAP1 CALLDATASIZE DUP3 GT PUSH2 0x112 JUMPI PUSH1 0x24 ADD SWAP2 JUMPDEST DUP2 DUP4 LT PUSH2 0x503 JUMPI POP POP POP PUSH1 0xC0 DUP7 ADD SWAP2 DUP3 MSTORE PUSH1 0xE4 ADD CALLDATALOAD SWAP2 DUP3 ISZERO ISZERO DUP4 SUB PUSH2 0x112 JUMPI PUSH1 0xE0 DUP7 ADD SWAP3 DUP4 MSTORE PUSH1 0x24 CALLDATALOAD PUSH1 0x1 PUSH1 0x1 PUSH1 0x40 SHL SUB DUP2 GT PUSH2 0x112 JUMPI PUSH2 0x2EF SWAP1 CALLDATASIZE SWAP1 PUSH1 0x4 ADD PUSH2 0x1024 JUMP JUMPDEST SWAP4 DUP8 MLOAD MLOAD SWAP7 PUSH2 0x316 PUSH2 0x300 DUP10 PUSH2 0x106A JUMP JUMPDEST SWAP9 PUSH2 0x30E PUSH1 0x40 MLOAD SWAP11 DUP12 PUSH2 0xFE8 JUMP JUMPDEST DUP1 DUP11 MSTORE PUSH2 0x106A JUMP JUMPDEST PUSH1 0x20 DUP10 ADD SWAP2 SWAP1 PUSH1 0x1F NOT ADD CALLDATASIZE DUP4 CALLDATACOPY PUSH0 JUMPDEST DUP11 MLOAD SWAP1 DUP2 MLOAD DUP2 LT ISZERO PUSH2 0x4BF JUMPI DUP3 MLOAD DUP11 MLOAD DUP15 MLOAD PUSH1 0x1 PUSH1 0x1 PUSH1 0xA0 SHL SUB SWAP3 DUP4 AND SWAP5 SWAP2 DUP4 AND SWAP3 AND SWAP1 PUSH2 0x354 SWAP1 DUP5 SWAP1 PUSH2 0x120C JUMP JUMPDEST MLOAD DUP4 DUP9 MLOAD SWAP1 PUSH2 0x362 SWAP2 PUSH2 0x120C JUMP JUMPDEST MLOAD PUSH1 0x1 PUSH1 0x1 PUSH1 0x80 SHL SUB AND DUP5 DUP11 MLOAD SWAP1 PUSH2 0x379 SWAP2 PUSH2 0x120C JUMP JUMPDEST MLOAD PUSH1 0x1 PUSH1 0x1 PUSH1 0x80 SHL SUB AND SWAP2 DUP6 DUP13 MLOAD SWAP1 PUSH2 0x391 SWAP2 PUSH2 0x120C JUMP JUMPDEST MLOAD PUSH2 0xFFFF AND SWAP4 DUP14 MLOAD ISZERO ISZERO SWAP6 PUSH1 0x40 MLOAD SWAP9 PUSH2 0x3A9 DUP11 PUSH2 0xFB8 JUMP JUMPDEST DUP10 MSTORE PUSH1 0x20 DUP10 ADD SWAP1 DUP2 MSTORE PUSH1 0x40 DUP1 DUP11 ADD SWAP3 DUP4 MSTORE PUSH1 0x60 DUP11 ADD SWAP4 DUP5 MSTORE PUSH1 0x80 DUP11 ADD SWAP5 DUP6 MSTORE PUSH1 0xA0 DUP11 ADD SWAP6 DUP7 MSTORE PUSH1 0xC0 DUP11 ADD SWAP7 DUP8 MSTORE PUSH1 0xE0 DUP11 ADD SWAP8 DUP9 MSTORE MLOAD PUSH4 0x5E3344D PUSH1 0xE4 SHL DUP2 MSTORE SWAP9 MLOAD PUSH1 0x1 PUSH1 0x1 PUSH1 0xA0 SHL SUB SWAP1 DUP2 AND PUSH1 0x4 DUP12 ADD MSTORE SWAP1 MLOAD DUP2 AND PUSH1 0x24 DUP11 ADD MSTORE SWAP1 MLOAD AND PUSH1 0x44 DUP9 ADD MSTORE MLOAD PUSH1 0x64 DUP8 ADD MSTORE MLOAD PUSH1 0x1 PUSH1 0x1 PUSH1 0x80 SHL SUB SWAP1 DUP2 AND PUSH1 0x84 DUP8 ADD MSTORE SWAP1 MLOAD AND PUSH1 0xA4 DUP6 ADD MSTORE MLOAD PUSH2 0xFFFF AND PUSH1 0xC4 DUP5 ADD MSTORE MLOAD ISZERO ISZERO PUSH1 0xE4 DUP4 ADD MSTORE PUSH2 0x120 PUSH2 0x104 DUP4 ADD MSTORE DUP2 PUSH2 0x454 PUSH2 0x124 DUP3 ADD DUP12 PUSH2 0x10EF JUMP JUMPDEST SUB DUP3 ADDRESS SWAP2 DUP2 GAS PUSH1 0x20 SWAP5 PUSH0 SWAP2 CALL DUP1 ISZERO PUSH2 0x4B4 JUMPI PUSH0 SWAP1 PUSH2 0x482 JUMPI JUMPDEST PUSH1 0x1 SWAP3 POP PUSH2 0x47B DUP3 DUP14 PUSH2 0x120C JUMP JUMPDEST MSTORE ADD PUSH2 0x325 JUMP JUMPDEST POP PUSH1 0x20 DUP3 RETURNDATASIZE DUP3 GT PUSH2 0x4AC JUMPI JUMPDEST DUP2 PUSH2 0x49B PUSH1 0x20 SWAP4 DUP4 PUSH2 0xFE8 JUMP JUMPDEST DUP2 ADD SUB SLT PUSH2 0x112 JUMPI PUSH1 0x1 SWAP2 MLOAD PUSH2 0x46D JUMP JUMPDEST RETURNDATASIZE SWAP2 POP PUSH2 0x48E JUMP JUMPDEST PUSH1 0x40 MLOAD RETURNDATASIZE PUSH0 DUP3 RETURNDATACOPY RETURNDATASIZE SWAP1 REVERT JUMPDEST DUP4 DUP12 PUSH1 0x40 MLOAD SWAP2 DUP3 SWAP2 PUSH1 0x20 DUP4 ADD SWAP1 PUSH1 0x20 DUP5 MSTORE MLOAD DUP1 SWAP2 MSTORE PUSH1 0x40 DUP4 ADD SWAP2 SWAP1 PUSH0 JUMPDEST DUP2 DUP2 LT PUSH2 0x4EA JUMPI POP POP POP SUB SWAP1 RETURN JUMPDEST DUP3 MLOAD DUP5 MSTORE DUP6 SWAP5 POP PUSH1 0x20 SWAP4 DUP5 ADD SWAP4 SWAP1 SWAP3 ADD SWAP2 PUSH1 0x1 ADD PUSH2 0x4DC JUMP JUMPDEST DUP3 CALLDATALOAD PUSH2 0xFFFF DUP2 AND DUP2 SUB PUSH2 0x112 JUMPI DUP2 MSTORE PUSH1 0x20 SWAP3 DUP4 ADD SWAP3 ADD PUSH2 0x2AA JUMP JUMPDEST DUP2 CALLDATALOAD DUP2 MSTORE PUSH1 0x20 SWAP2 DUP3 ADD SWAP2 ADD PUSH2 0x1E7 JUMP JUMPDEST CALLVALUE PUSH2 0x112 JUMPI PUSH1 0x20 CALLDATASIZE PUSH1 0x3 NOT ADD SLT PUSH2 0x112 JUMPI PUSH1 0x4 CALLDATALOAD PUSH1 0x1 PUSH1 0x1 PUSH1 0x40 SHL SUB DUP2 GT PUSH2 0x112 JUMPI PUSH2 0x571 PUSH2 0x563 PUSH1 0x20 SWAP3 CALLDATASIZE SWAP1 PUSH1 0x4 ADD PUSH2 0x1024 JUMP JUMPDEST DUP3 DUP1 DUP3 MLOAD DUP4 ADD ADD SWAP2 ADD PUSH2 0x11F6 JUMP JUMPDEST POP PUSH1 0x40 MLOAD SWAP1 DUP2 MSTORE RETURN JUMPDEST CALLVALUE PUSH2 0x112 JUMPI CALLDATASIZE PUSH1 0x3 NOT ADD PUSH2 0x120 DUP2 SLT PUSH2 0x112 JUMPI PUSH2 0x100 SGT PUSH2 0x112 JUMPI PUSH1 0x40 MLOAD PUSH2 0x5A1 DUP2 PUSH2 0xFB8 JUMP JUMPDEST PUSH2 0x5A9 PUSH2 0xF8E JUMP JUMPDEST DUP2 MSTORE PUSH1 0x24 CALLDATALOAD SWAP1 PUSH1 0x1 PUSH1 0x1 PUSH1 0xA0 SHL SUB DUP3 AND DUP3 SUB PUSH2 0x112 JUMPI PUSH1 0x20 DUP2 ADD SWAP2 DUP3 MSTORE PUSH1 0x44 CALLDATALOAD PUSH1 0x1 PUSH1 0x1 PUSH1 0xA0 SHL SUB DUP2 AND DUP2 SUB PUSH2 0x112 JUMPI PUSH1 0x40 DUP3 ADD MSTORE PUSH1 0x60 DUP2 ADD SWAP2 PUSH1 0x64 CALLDATALOAD DUP4 MSTORE PUSH1 0x84 CALLDATALOAD SWAP2 PUSH1 0x1 PUSH1 0x1 PUSH1 0x80 SHL SUB DUP4 AND DUP4 SUB PUSH2 0x112 JUMPI PUSH1 0x80 DUP2 ADD SWAP3 DUP4 MSTORE PUSH1 0xA4 CALLDATALOAD SWAP2 PUSH1 0x1 PUSH1 0x1 PUSH1 0x80 SHL SUB DUP4 AND DUP4 SUB PUSH2 0x112 JUMPI PUSH1 0xA0 DUP3 ADD SWAP3 DUP4 MSTORE PUSH1 0xC4 CALLDATALOAD SWAP2 PUSH2 0xFFFF DUP4 AND DUP4 SUB PUSH2 0x112 JUMPI PUSH1 0xC0 DUP2 ADD SWAP3 DUP4 MSTORE PUSH1 0xE4 CALLDATALOAD SWAP4 DUP5 ISZERO ISZERO DUP6 SUB PUSH2 0x112 JUMPI PUSH1 0xE0 DUP3 ADD SWAP5 DUP6 MSTORE PUSH2 0x104 CALLDATALOAD PUSH1 0x1 PUSH1 0x1 PUSH1 0x40 SHL SUB DUP2 GT PUSH2 0x112 JUMPI PUSH2 0x668 SWAP1 CALLDATASIZE SWAP1 PUSH1 0x4 ADD PUSH2 0x1024 JUMP JUMPDEST SWAP4 DUP5 MLOAD DUP6 ADD PUSH1 0xA0 DUP7 PUSH1 0x20 DUP4 ADD SWAP3 SUB SLT PUSH2 0x112 JUMPI PUSH1 0x20 DUP7 ADD MLOAD PUSH1 0x1 PUSH1 0x1 PUSH1 0x40 SHL SUB DUP2 GT PUSH2 0x112 JUMPI DUP2 PUSH1 0x20 PUSH2 0x69D SWAP3 DUP10 ADD ADD PUSH2 0x1113 JUMP JUMPDEST PUSH1 0x40 DUP8 ADD MLOAD PUSH1 0x1 PUSH1 0x1 PUSH1 0x40 SHL SUB DUP2 GT PUSH2 0x112 JUMPI DUP3 PUSH1 0x20 PUSH2 0x6BF SWAP3 DUP11 ADD ADD PUSH2 0x1113 JUMP JUMPDEST SWAP7 PUSH1 0x60 DUP2 ADD MLOAD PUSH1 0x1 PUSH1 0x1 PUSH1 0x40 SHL SUB DUP2 GT PUSH2 0x112 JUMPI DUP4 PUSH1 0x20 PUSH2 0x6E2 SWAP3 DUP5 ADD ADD PUSH2 0x1113 JUMP JUMPDEST SWAP3 PUSH1 0x80 DUP3 ADD MLOAD PUSH1 0x1 PUSH1 0x1 PUSH1 0x40 SHL SUB DUP2 GT PUSH2 0x112 JUMPI DUP2 PUSH1 0x20 PUSH2 0x705 SWAP3 DUP6 ADD ADD PUSH2 0x1113 JUMP JUMPDEST POP PUSH1 0xA0 DUP3 ADD MLOAD SWAP1 PUSH1 0x1 PUSH1 0x1 PUSH1 0x40 SHL SUB DUP3 GT PUSH2 0x112 JUMPI PUSH1 0x20 PUSH2 0x72B SWAP3 PUSH2 0x731 SWAP5 ADD ADD PUSH2 0x1113 JUMP JUMPDEST SWAP2 PUSH2 0x1220 JUMP JUMPDEST SWAP3 DUP2 PUSH2 0x73F DUP6 SWAP5 SWAP4 SWAP11 PUSH2 0x1220 JUMP JUMPDEST PUSH2 0x74B DUP3 SWAP6 SWAP3 SWAP5 PUSH2 0x1220 JUMP JUMPDEST SWAP4 SWAP1 PUSH2 0x757 DUP2 SWAP5 PUSH2 0x1220 JUMP JUMPDEST SWAP8 SWAP1 SWAP3 DUP4 SWAP11 PUSH2 0xF0F JUMPI JUMPDEST POP SWAP1 DUP8 SWAP2 DUP5 PUSH2 0xEFD JUMPI JUMPDEST POP DUP6 PUSH2 0xEEB JUMPI JUMPDEST POP PUSH2 0xED5 JUMPI JUMPDEST POP DUP5 DUP7 SWAP3 DUP9 SWAP3 PUSH0 EQ PUSH2 0xE52 JUMPI POP POP POP POP POP SWAP8 JUMPDEST PUSH0 SWAP3 DUP1 PUSH2 0xE49 JUMPI JUMPDEST PUSH2 0xDFF JUMPI JUMPDEST POP PUSH0 SWAP1 DUP1 PUSH2 0xDF6 JUMPI JUMPDEST PUSH2 0xDAA JUMPI JUMPDEST PUSH1 0xFF SWAP3 POP DUP1 DUP3 GT ISZERO PUSH2 0xDA2 JUMPI POP SWAP2 JUMPDEST PUSH1 0x1 DUP1 PUSH1 0xA0 SHL SUB DUP6 MLOAD AND PUSH0 MSTORE PUSH0 PUSH1 0x20 MSTORE PUSH2 0x7E2 PUSH1 0x40 PUSH0 KECCAK256 SLOAD PUSH1 0xFF DUP2 AND SWAP2 PUSH1 0xFF DUP1 DUP4 PUSH1 0x8 SHR AND SWAP3 PUSH1 0x10 SHR AND SWAP1 JUMP JUMPDEST PUSH1 0x1 DUP1 PUSH1 0xA0 SWAP7 SWAP4 SWAP7 SHL SUB DUP10 MLOAD AND PUSH0 MSTORE PUSH0 PUSH1 0x20 MSTORE PUSH2 0x812 PUSH1 0x40 PUSH0 KECCAK256 SLOAD PUSH1 0xFF DUP2 AND SWAP2 PUSH1 0xFF DUP1 DUP4 PUSH1 0x8 SHR AND SWAP3 PUSH1 0x10 SHR AND SWAP1 JUMP JUMPDEST SWAP7 SWAP1 SWAP5 SWAP1 SWAP2 DUP5 DUP2 AND DUP6 DUP4 AND LT PUSH2 0xD9A JUMPI POP SWAP4 JUMPDEST DUP1 DUP5 AND DUP3 DUP6 AND LT PUSH2 0xD92 JUMPI POP SWAP5 JUMPDEST DUP1 DUP4 AND DUP3 DUP5 AND GT PUSH2 0xD8A JUMPI POP SWAP2 JUMPDEST AND PUSH1 0xBE DUP2 MUL SWAP1 DUP1 DUP3 DIV PUSH1 0xBE EQ SWAP1 ISZERO OR ISZERO PUSH2 0xBE0 JUMPI PUSH1 0xFF SWAP1 DIV PUSH1 0xA ADD SWAP3 DUP4 PUSH1 0xA GT PUSH2 0xBE0 JUMPI PUSH1 0xFF AND PUSH2 0x17C DUP2 MUL SWAP1 DUP1 DUP3 DIV PUSH2 0x17C EQ SWAP1 ISZERO OR ISZERO PUSH2 0xBE0 JUMPI PUSH1 0xFF SWAP1 DIV PUSH1 0x14 ADD SWAP1 DUP2 PUSH1 0x14 GT PUSH2 0xBE0 JUMPI PUSH1 0xFF AND PUSH2 0x2710 DUP2 MUL SWAP1 DUP1 DUP3 DIV PUSH2 0x2710 EQ SWAP1 ISZERO OR ISZERO PUSH2 0xBE0 JUMPI PUSH1 0xFF SWAP1 DIV PUSH2 0x1388 ADD SWAP2 DUP3 PUSH2 0x1388 GT PUSH2 0xBE0 JUMPI MLOAD SWAP10 PUSH1 0x10 PUSH1 0xF DUP13 AND LT ISZERO PUSH2 0xC71 JUMPI PUSH1 0x1 SLOAD SWAP7 MLOAD PUSH1 0x40 MLOAD PUSH4 0x313CE567 PUSH1 0xE0 SHL DUP2 MSTORE SWAP12 PUSH1 0x4 SWAP1 DUP2 SHL PUSH1 0xF0 AND SWAP9 SWAP1 SWAP9 SHR PUSH2 0xFFFF AND SWAP8 PUSH1 0x20 SWAP2 DUP14 SWAP2 SWAP1 DUP3 SWAP1 PUSH1 0x1 PUSH1 0x1 PUSH1 0xA0 SHL SUB AND GAS STATICCALL SWAP8 DUP9 ISZERO PUSH2 0x4B4 JUMPI PUSH1 0x4 SWAP12 PUSH0 SWAP10 PUSH2 0xD58 JUMPI JUMPDEST POP MLOAD PUSH1 0x40 MLOAD PUSH4 0x313CE567 PUSH1 0xE0 SHL DUP2 MSTORE SWAP12 PUSH1 0x20 SWAP2 DUP14 SWAP2 SWAP1 DUP3 SWAP1 PUSH1 0x1 PUSH1 0x1 PUSH1 0xA0 SHL SUB AND GAS STATICCALL SWAP11 DUP12 ISZERO PUSH2 0x4B4 JUMPI PUSH0 SWAP12 PUSH2 0xD23 JUMPI JUMPDEST POP PUSH2 0x973 DUP10 PUSH2 0x96D DUP14 PUSH1 0x1 PUSH1 0x1 PUSH1 0x80 SHL SUB PUSH2 0x965 DUP14 DUP3 PUSH8 0xDE0B6B3A7640000 SWAP9 MLOAD AND PUSH2 0x12BA JUMP JUMPDEST SWAP11 MLOAD AND PUSH2 0x12BA JUMP JUMPDEST SWAP8 PUSH2 0x119F JUMP JUMPDEST DIV PUSH2 0x97E DUP7 DUP3 PUSH2 0x1159 JUMP JUMPDEST SWAP6 PUSH1 0x1 DUP8 ADD DUP1 SWAP8 GT PUSH2 0xBE0 JUMPI PUSH0 DUP3 DUP3 SUB SWAP3 SLT DUP2 DUP4 SLT DUP2 AND SWAP2 DUP4 SGT SWAP1 ISZERO AND OR PUSH2 0xBE0 JUMPI PUSH2 0x9A9 DUP2 PUSH2 0x12F7 JUMP JUMPDEST PUSH2 0x2710 DUP2 MUL SWAP1 DUP1 DUP3 DIV PUSH2 0x2710 EQ SWAP1 ISZERO OR ISZERO PUSH2 0xBE0 JUMPI PUSH2 0x9C9 DUP8 PUSH0 SWAP3 PUSH2 0x1174 JUMP JUMPDEST SWAP2 SLT SWAP1 DUP2 PUSH2 0xD15 JUMPI JUMPDEST PUSH2 0x9C4 DUP2 SGT ISZERO PUSH2 0xCFE JUMPI POP PUSH2 0x9C4 SWAP6 JUMPDEST DUP13 MLOAD DUP12 MLOAD PUSH2 0x9F7 SWAP2 SWAP1 ISZERO PUSH2 0xCF7 JUMPI DUP11 SWAP1 PUSH2 0x12BA JUMP JUMPDEST DUP12 MLOAD DUP12 SWAP1 ISZERO PUSH2 0xCF0 JUMPI PUSH2 0xA13 SWAP1 PUSH8 0xDE0B6B3A7640000 SWAP3 PUSH2 0x119F JUMP JUMPDEST DIV SWAP1 JUMPDEST PUSH2 0x2710 DUP3 MUL SWAP2 DUP1 DUP4 DIV PUSH2 0x2710 EQ SWAP1 ISZERO OR ISZERO PUSH2 0xBE0 JUMPI PUSH2 0xA34 SWAP2 PUSH2 0x1174 JUMP JUMPDEST PUSH2 0x222E DUP2 LT PUSH2 0xC85 JUMPI POP PUSH1 0x7 SWAP3 JUMPDEST PUSH1 0x8 PUSH1 0xFF DUP6 AND LT ISZERO PUSH2 0xC71 JUMPI PUSH1 0xF DUP5 PUSH1 0x4 SHR AND PUSH1 0x2 ADD SLOAD SWAP3 PUSH1 0x64 DUP8 MUL SWAP7 DUP1 DUP9 DIV PUSH1 0x64 EQ SWAP1 ISZERO OR ISZERO PUSH2 0xBE0 JUMPI PUSH2 0xB1F SWAP8 DUP10 SWAP8 PUSH2 0xA84 SWAP1 DUP4 ISZERO PUSH2 0xC69 JUMPI DUP4 SWAP1 PUSH2 0x1174 JUMP JUMPDEST SWAP7 PUSH2 0x12C DUP9 GT PUSH2 0xC5F JUMPI JUMPDEST PUSH2 0xAF8 SWAP5 SWAP4 SWAP3 PUSH2 0xABD PUSH1 0x64 SWAP4 PUSH2 0xAB7 DUP6 PUSH2 0xAB0 PUSH2 0xAE8 SWAP7 PUSH2 0xB1A SWAP15 SWAP16 PUSH2 0x119F JUMP JUMPDEST DIV SWAP2 PUSH2 0x12F7 JUMP JUMPDEST SWAP1 PUSH2 0x119F JUMP JUMPDEST SWAP5 PUSH2 0xAD3 DUP6 ISZERO SWAP7 DUP8 PUSH0 EQ PUSH2 0xC58 JUMPI PUSH1 0x1 SWAP1 PUSH2 0x1174 JUMP JUMPDEST SWAP1 PUSH2 0x7D0 DUP3 GT PUSH2 0xC4E JUMPI JUMPDEST PUSH2 0xC3F JUMPI SWAP12 PUSH2 0x119F JUMP JUMPDEST DIV SWAP2 ISZERO PUSH2 0xC39 JUMPI POP PUSH1 0x1 SWAP1 PUSH2 0x1174 JUMP JUMPDEST SWAP1 PUSH2 0xBB8 DUP3 GT PUSH2 0xC2F JUMPI JUMPDEST PUSH1 0xF0 PUSH2 0xFF0 PUSH2 0xFFFF SWAP4 SWAP5 PUSH1 0x4 SHL AND AND SHR AND SWAP1 PUSH2 0x1159 JUMP JUMPDEST PUSH2 0x1159 JUMP JUMPDEST SWAP1 PUSH0 PUSH2 0xB2B DUP3 DUP5 PUSH2 0x11DB JUMP JUMPDEST SLT PUSH2 0xC27 JUMPI PUSH2 0xB39 SWAP2 PUSH2 0x11DB JUMP JUMPDEST DUP4 MLOAD ISZERO PUSH2 0xC03 JUMPI PUSH2 0x2710 ADD DUP1 PUSH2 0x2710 GT PUSH2 0xBE0 JUMPI PUSH2 0xB5D PUSH2 0x2710 SWAP2 PUSH2 0xB7C SWAP5 PUSH2 0x119F JUMP JUMPDEST DIV SWAP4 JUMPDEST DUP4 MLOAD ISZERO DUP1 ISZERO SWAP3 SWAP1 PUSH2 0xBFC JUMPI DUP1 SWAP3 JUMPDEST ISZERO PUSH2 0xBF4 JUMPI POP SWAP5 JUMPDEST MLOAD PUSH2 0x12BA JUMP JUMPDEST SWAP1 MLOAD ISZERO PUSH2 0xBAA JUMPI SWAP2 PUSH8 0xDE0B6B3A7640000 PUSH2 0xB9C PUSH2 0xBA2 SWAP4 PUSH1 0x20 SWAP6 PUSH2 0x119F JUMP JUMPDEST DIV PUSH2 0x130A JUMP JUMPDEST PUSH1 0x40 MLOAD SWAP1 DUP2 MSTORE RETURN JUMPDEST SWAP2 PUSH8 0xDE0B6B3A7640000 DUP4 MUL SWAP3 DUP1 DUP5 DIV PUSH8 0xDE0B6B3A7640000 EQ SWAP1 ISZERO OR ISZERO PUSH2 0xBE0 JUMPI PUSH2 0xBDB PUSH2 0xBA2 SWAP3 PUSH1 0x20 SWAP5 PUSH2 0x1174 JUMP JUMPDEST PUSH2 0x130A JUMP JUMPDEST PUSH4 0x4E487B71 PUSH1 0xE0 SHL PUSH0 MSTORE PUSH1 0x11 PUSH1 0x4 MSTORE PUSH1 0x24 PUSH0 REVERT JUMPDEST SWAP1 POP SWAP5 PUSH2 0xB76 JUMP JUMPDEST DUP2 SWAP3 PUSH2 0xB6E JUMP JUMPDEST PUSH2 0x2710 SUB PUSH2 0x2710 DUP2 GT PUSH2 0xBE0 JUMPI PUSH2 0xC20 PUSH2 0x2710 SWAP2 PUSH2 0xB7C SWAP5 PUSH2 0x119F JUMP JUMPDEST DIV SWAP4 PUSH2 0xB60 JUMP JUMPDEST POP POP PUSH0 PUSH2 0xB39 JUMP JUMPDEST PUSH2 0xBB8 SWAP2 POP PUSH2 0xB03 JUMP JUMPDEST SWAP1 PUSH2 0x1174 JUMP JUMPDEST PUSH2 0xC48 SWAP1 PUSH2 0x11CB JUMP JUMPDEST SWAP12 PUSH2 0x119F JUMP JUMPDEST PUSH2 0x7D0 SWAP2 POP PUSH2 0xADE JUMP JUMPDEST DUP7 SWAP1 PUSH2 0x1174 JUMP JUMPDEST PUSH2 0x12C SWAP8 POP PUSH2 0xA8F JUMP JUMPDEST PUSH1 0x1 SWAP1 PUSH2 0x1174 JUMP JUMPDEST PUSH4 0x4E487B71 PUSH1 0xE0 SHL PUSH0 MSTORE PUSH1 0x32 PUSH1 0x4 MSTORE PUSH1 0x24 PUSH0 REVERT JUMPDEST PUSH2 0x1D4C DUP2 LT PUSH2 0xC98 JUMPI POP PUSH1 0x6 JUMPDEST SWAP3 PUSH2 0xA42 JUMP JUMPDEST PUSH2 0x1388 DUP2 LT PUSH2 0xCA9 JUMPI POP PUSH1 0x5 PUSH2 0xC92 JUMP JUMPDEST PUSH2 0x9C4 DUP2 LT PUSH2 0xCBA JUMPI POP PUSH1 0x4 PUSH2 0xC92 JUMP JUMPDEST PUSH2 0x4E2 DUP2 LT PUSH2 0xCCB JUMPI POP PUSH1 0x3 PUSH2 0xC92 JUMP JUMPDEST PUSH2 0x271 DUP2 LT PUSH2 0xCDC JUMPI POP PUSH1 0x2 PUSH2 0xC92 JUMP JUMPDEST PUSH1 0xFA GT PUSH2 0xCEA JUMPI PUSH1 0x1 PUSH2 0xC92 JUMP JUMPDEST PUSH0 PUSH2 0xC92 JUMP JUMPDEST POP SWAP1 PUSH2 0xA16 JUMP JUMPDEST DUP14 SWAP1 PUSH2 0x12BA JUMP JUMPDEST SWAP6 PUSH2 0x9C3 NOT DUP8 SLT ISZERO PUSH2 0x9E2 JUMPI PUSH2 0x9C3 NOT SWAP7 POP PUSH2 0x9E2 JUMP JUMPDEST PUSH2 0xD1E SWAP1 PUSH2 0x11CB JUMP JUMPDEST PUSH2 0x9D2 JUMP JUMPDEST DUP10 SWAP12 POP SWAP1 DUP9 SWAP2 PUSH1 0x20 RETURNDATASIZE PUSH1 0x20 GT PUSH2 0xD51 JUMPI JUMPDEST PUSH2 0xD3E DUP2 DUP4 PUSH2 0xFE8 JUMP JUMPDEST DUP2 ADD PUSH2 0xD49 SWAP2 PUSH2 0x11B2 JUMP JUMPDEST SWAP12 POP SWAP1 PUSH2 0x93E JUMP JUMPDEST POP RETURNDATASIZE PUSH2 0xD34 JUMP JUMPDEST PUSH1 0x20 SWAP2 SWAP10 POP PUSH2 0xD7C SWAP1 DUP3 RETURNDATASIZE DUP5 GT PUSH2 0xD83 JUMPI JUMPDEST PUSH2 0xD74 DUP2 DUP4 PUSH2 0xFE8 JUMP JUMPDEST DUP2 ADD SWAP1 PUSH2 0x11B2 JUMP JUMPDEST SWAP9 SWAP1 PUSH2 0x90D JUMP JUMPDEST POP RETURNDATASIZE PUSH2 0xD6A JUMP JUMPDEST SWAP1 POP SWAP2 PUSH2 0x841 JUMP JUMPDEST SWAP1 POP SWAP5 PUSH2 0x833 JUMP JUMPDEST SWAP1 POP SWAP4 PUSH2 0x825 JUMP JUMPDEST SWAP1 POP SWAP2 PUSH2 0x7B5 JUMP JUMPDEST POP SWAP1 DUP7 DUP1 DUP3 GT ISZERO PUSH2 0xDE6 JUMPI PUSH2 0xDBE SWAP2 PUSH2 0x1192 JUMP JUMPDEST SWAP1 JUMPDEST PUSH2 0x2710 DUP3 MUL SWAP2 DUP1 DUP4 DIV PUSH2 0x2710 EQ SWAP1 ISZERO OR ISZERO PUSH2 0xBE0 JUMPI PUSH2 0xDE1 DUP8 PUSH1 0xFF SWAP4 PUSH2 0x1174 JUMP JUMPDEST PUSH2 0x7A6 JUMP JUMPDEST SWAP1 PUSH2 0xDF0 SWAP2 PUSH2 0x1192 JUMP JUMPDEST SWAP1 PUSH2 0xDC0 JUMP JUMPDEST POP DUP8 ISZERO ISZERO PUSH2 0x7A1 JUMP JUMPDEST SWAP1 SWAP2 POP DUP8 DUP1 DUP3 GT ISZERO PUSH2 0xE3A JUMPI PUSH2 0xE14 SWAP2 PUSH2 0x1192 JUMP JUMPDEST PUSH2 0x2710 DUP2 MUL SWAP1 DUP1 DUP3 DIV PUSH2 0x2710 EQ SWAP1 ISZERO OR ISZERO PUSH2 0xBE0 JUMPI DUP8 PUSH2 0xE33 SWAP2 PUSH2 0x1174 JUMP JUMPDEST SWAP1 DUP12 PUSH2 0x798 JUMP JUMPDEST SWAP1 PUSH2 0xE44 SWAP2 PUSH2 0x1192 JUMP JUMPDEST PUSH2 0xE14 JUMP JUMPDEST POP DUP9 ISZERO ISZERO PUSH2 0x793 JUMP JUMPDEST SWAP1 SWAP2 SWAP3 SWAP4 SWAP5 POP PUSH0 SWAP5 PUSH0 SWAP5 PUSH2 0xEC9 JUMPI JUMPDEST PUSH2 0xEAD JUMPI JUMPDEST POP PUSH2 0xE93 JUMPI JUMPDEST POP DUP1 PUSH2 0xE84 JUMPI POP POP PUSH9 0xF3F20B8DFA69D00000 SWAP8 PUSH2 0x78B JUMP JUMPDEST PUSH2 0xE8D SWAP2 PUSH2 0x1174 JUMP JUMPDEST SWAP8 PUSH2 0x78B JUMP JUMPDEST PUSH2 0xEA1 SWAP1 PUSH2 0xEA7 SWAP3 SWAP4 PUSH2 0x1159 JUMP JUMPDEST SWAP2 PUSH2 0x1166 JUMP JUMPDEST DUP5 PUSH2 0xE6C JUMP JUMPDEST PUSH2 0xEBC SWAP1 PUSH2 0xEC2 SWAP3 SWAP5 SWAP6 PUSH2 0x1159 JUMP JUMPDEST SWAP4 PUSH2 0x1166 JUMP JUMPDEST SWAP2 DUP16 PUSH2 0xE66 JUMP JUMPDEST DUP14 SWAP6 POP PUSH1 0x1 SWAP5 POP PUSH2 0xE61 JUMP JUMPDEST DUP7 SWAP3 SWAP8 POP PUSH2 0xEE3 DUP7 SWAP2 PUSH2 0x1258 JUMP JUMPDEST SWAP8 SWAP3 POP PUSH2 0x778 JUMP JUMPDEST PUSH2 0xEF6 SWAP2 SWAP5 POP PUSH2 0x1258 JUMP JUMPDEST SWAP3 PUSH0 PUSH2 0x772 JUMP JUMPDEST DUP7 SWAP8 POP PUSH2 0xF09 SWAP1 PUSH2 0x1258 JUMP JUMPDEST SWAP7 PUSH2 0x76B JUMP JUMPDEST DUP5 SWAP16 POP SWAP1 PUSH2 0xF1E DUP10 SWAP4 SWAP3 PUSH2 0x1258 JUMP JUMPDEST SWAP16 POP SWAP1 SWAP2 PUSH2 0x761 JUMP JUMPDEST CALLVALUE PUSH2 0x112 JUMPI PUSH1 0x40 CALLDATASIZE PUSH1 0x3 NOT ADD SLT PUSH2 0x112 JUMPI PUSH1 0x1 PUSH1 0x1 PUSH1 0xA0 SHL SUB PUSH2 0xF48 PUSH2 0xF8E JUMP JUMPDEST AND PUSH0 MSTORE PUSH0 PUSH1 0x20 MSTORE PUSH1 0x24 CALLDATALOAD PUSH1 0x40 PUSH0 KECCAK256 SSTORE PUSH0 DUP1 RETURN JUMPDEST CALLVALUE PUSH2 0x112 JUMPI PUSH1 0x20 CALLDATASIZE PUSH1 0x3 NOT ADD SLT PUSH2 0x112 JUMPI PUSH1 0x20 SWAP1 PUSH1 0x1 PUSH1 0x1 PUSH1 0xA0 SHL SUB PUSH2 0xF7F PUSH2 0xF8E JUMP JUMPDEST AND PUSH0 MSTORE PUSH0 DUP3 MSTORE PUSH1 0x40 PUSH0 KECCAK256 SLOAD DUP2 MSTORE RETURN JUMPDEST PUSH1 0x4 CALLDATALOAD SWAP1 PUSH1 0x1 PUSH1 0x1 PUSH1 0xA0 SHL SUB DUP3 AND DUP3 SUB PUSH2 0x112 JUMPI JUMP JUMPDEST CALLDATALOAD SWAP1 PUSH1 0x1 PUSH1 0x1 PUSH1 0xA0 SHL SUB DUP3 AND DUP3 SUB PUSH2 0x112 JUMPI JUMP JUMPDEST PUSH2 0x100 DUP2 ADD SWAP1 DUP2 LT PUSH1 0x1 PUSH1 0x1 PUSH1 0x40 SHL SUB DUP3 GT OR PUSH2 0xFD4 JUMPI PUSH1 0x40 MSTORE JUMP JUMPDEST PUSH4 0x4E487B71 PUSH1 0xE0 SHL PUSH0 MSTORE PUSH1 0x41 PUSH1 0x4 MSTORE PUSH1 0x24 PUSH0 REVERT JUMPDEST SWAP1 PUSH1 0x1F DUP1 NOT SWAP2 ADD AND DUP2 ADD SWAP1 DUP2 LT PUSH1 0x1 PUSH1 0x1 PUSH1 0x40 SHL SUB DUP3 GT OR PUSH2 0xFD4 JUMPI PUSH1 0x40 MSTORE JUMP JUMPDEST PUSH1 0x1 PUSH1 0x1 PUSH1 0x40 SHL SUB DUP2 GT PUSH2 0xFD4 JUMPI PUSH1 0x1F ADD PUSH1 0x1F NOT AND PUSH1 0x20 ADD SWAP1 JUMP JUMPDEST DUP2 PUSH1 0x1F DUP3 ADD SLT ISZERO PUSH2 0x112 JUMPI DUP1 CALLDATALOAD SWAP1 PUSH2 0x103B DUP3 PUSH2 0x1009 JUMP JUMPDEST SWAP3 PUSH2 0x1049 PUSH1 0x40 MLOAD SWAP5 DUP6 PUSH2 0xFE8 JUMP JUMPDEST DUP3 DUP5 MSTORE PUSH1 0x20 DUP4 DUP4 ADD ADD GT PUSH2 0x112 JUMPI DUP2 PUSH0 SWAP3 PUSH1 0x20 DUP1 SWAP4 ADD DUP4 DUP7 ADD CALLDATACOPY DUP4 ADD ADD MSTORE SWAP1 JUMP JUMPDEST PUSH1 0x1 PUSH1 0x1 PUSH1 0x40 SHL SUB DUP2 GT PUSH2 0xFD4 JUMPI PUSH1 0x5 SHL PUSH1 0x20 ADD SWAP1 JUMP JUMPDEST SWAP1 DUP1 PUSH1 0x1F DUP4 ADD SLT ISZERO PUSH2 0x112 JUMPI DUP2 CALLDATALOAD SWAP1 PUSH2 0x1099 DUP3 PUSH2 0x106A JUMP JUMPDEST SWAP3 PUSH2 0x10A7 PUSH1 0x40 MLOAD SWAP5 DUP6 PUSH2 0xFE8 JUMP JUMPDEST DUP3 DUP5 MSTORE PUSH1 0x20 DUP1 DUP6 ADD SWAP4 PUSH1 0x5 SHL DUP3 ADD ADD SWAP2 DUP3 GT PUSH2 0x112 JUMPI PUSH1 0x20 ADD SWAP2 JUMPDEST DUP2 DUP4 LT PUSH2 0x10CF JUMPI POP POP POP SWAP1 JUMP JUMPDEST DUP3 CALLDATALOAD PUSH1 0x1 PUSH1 0x1 PUSH1 0x80 SHL SUB DUP2 AND DUP2 SUB PUSH2 0x112 JUMPI DUP2 MSTORE PUSH1 0x20 SWAP3 DUP4 ADD SWAP3 ADD PUSH2 0x10C2 JUMP JUMPDEST DUP1 MLOAD DUP1 DUP4 MSTORE PUSH1 0x20 SWAP3 SWAP2 DUP2 SWAP1 DUP5 ADD DUP5 DUP5 ADD MCOPY PUSH0 DUP3 DUP3 ADD DUP5 ADD MSTORE PUSH1 0x1F ADD PUSH1 0x1F NOT AND ADD ADD SWAP1 JUMP JUMPDEST DUP2 PUSH1 0x1F DUP3 ADD SLT ISZERO PUSH2 0x112 JUMPI DUP1 MLOAD SWAP1 PUSH2 0x112A DUP3 PUSH2 0x1009 JUMP JUMPDEST SWAP3 PUSH2 0x1138 PUSH1 0x40 MLOAD SWAP5 DUP6 PUSH2 0xFE8 JUMP JUMPDEST DUP3 DUP5 MSTORE PUSH1 0x20 DUP4 DUP4 ADD ADD GT PUSH2 0x112 JUMPI DUP2 PUSH0 SWAP3 PUSH1 0x20 DUP1 SWAP4 ADD DUP4 DUP7 ADD MCOPY DUP4 ADD ADD MSTORE SWAP1 JUMP JUMPDEST SWAP2 SWAP1 DUP3 ADD DUP1 SWAP3 GT PUSH2 0xBE0 JUMPI JUMP JUMPDEST PUSH0 NOT DUP2 EQ PUSH2 0xBE0 JUMPI PUSH1 0x1 ADD SWAP1 JUMP JUMPDEST DUP2 ISZERO PUSH2 0x117E JUMPI DIV SWAP1 JUMP JUMPDEST PUSH4 0x4E487B71 PUSH1 0xE0 SHL PUSH0 MSTORE PUSH1 0x12 PUSH1 0x4 MSTORE PUSH1 0x24 PUSH0 REVERT JUMPDEST SWAP2 SWAP1 DUP3 SUB SWAP2 DUP3 GT PUSH2 0xBE0 JUMPI JUMP JUMPDEST DUP2 DUP2 MUL SWAP3 SWAP2 DUP2 ISZERO SWAP2 DUP5 DIV EQ OR ISZERO PUSH2 0xBE0 JUMPI JUMP JUMPDEST SWAP1 DUP2 PUSH1 0x20 SWAP2 SUB SLT PUSH2 0x112 JUMPI MLOAD PUSH1 0xFF DUP2 AND DUP2 SUB PUSH2 0x112 JUMPI SWAP1 JUMP JUMPDEST PUSH1 0x1 PUSH1 0xFF SHL DUP2 EQ PUSH2 0xBE0 JUMPI PUSH0 SUB SWAP1 JUMP JUMPDEST SWAP2 SWAP1 SWAP2 PUSH0 DUP4 DUP3 ADD SWAP4 DUP5 SLT SWAP2 SLT SWAP1 DUP1 ISZERO DUP3 AND SWAP2 ISZERO AND OR PUSH2 0xBE0 JUMPI JUMP JUMPDEST SWAP2 SWAP1 DUP3 PUSH1 0x40 SWAP2 SUB SLT PUSH2 0x112 JUMPI PUSH1 0x20 DUP3 MLOAD SWAP3 ADD MLOAD SWAP1 JUMP JUMPDEST DUP1 MLOAD DUP3 LT ISZERO PUSH2 0xC71 JUMPI PUSH1 0x20 SWAP2 PUSH1 0x5 SHL ADD ADD SWAP1 JUMP JUMPDEST DUP1 MLOAD SWAP1 PUSH1 0x40 DUP3 LT ISZERO PUSH2 0x1235 JUMPI JUMPDEST POP POP PUSH0 SWAP1 PUSH0 SWAP1 JUMP JUMPDEST PUSH1 0x20 DUP1 PUSH2 0x1246 SWAP4 DUP4 ADD ADD SWAP2 ADD PUSH2 0x11F6 JUMP JUMPDEST POP DUP1 PUSH2 0x1252 JUMPI DUP1 PUSH2 0x122D JUMP JUMPDEST SWAP1 PUSH1 0x1 SWAP1 JUMP JUMPDEST PUSH8 0xDE0B6B3A7640000 DUP2 LT ISZERO PUSH2 0x1282 JUMPI DUP1 ISZERO PUSH2 0x117E JUMPI PUSH15 0xC097CE7BC90715B34B9F1000000000 DIV SWAP1 JUMP JUMPDEST SWAP1 JUMP JUMPDEST PUSH1 0xFF PUSH1 0x11 NOT SWAP2 AND ADD SWAP1 PUSH1 0xFF DUP3 GT PUSH2 0xBE0 JUMPI JUMP JUMPDEST PUSH1 0xFF AND PUSH1 0x12 SUB SWAP1 PUSH1 0xFF DUP3 GT PUSH2 0xBE0 JUMPI JUMP JUMPDEST PUSH1 0xFF AND PUSH1 0x4D DUP2 GT PUSH2 0xBE0 JUMPI PUSH1 0xA EXP SWAP1 JUMP JUMPDEST PUSH1 0xFF DUP3 AND PUSH1 0x12 DUP2 EQ PUSH2 0x12F1 JUMPI PUSH1 0x12 GT ISZERO PUSH2 0x12E2 JUMPI PUSH2 0xAB7 PUSH2 0x12DD PUSH2 0x1282 SWAP4 PUSH2 0x1298 JUMP JUMPDEST PUSH2 0x12A9 JUMP JUMPDEST PUSH2 0xC39 PUSH2 0x12DD PUSH2 0x1282 SWAP4 PUSH2 0x1285 JUMP JUMPDEST POP SWAP1 POP SWAP1 JUMP JUMPDEST PUSH0 DUP2 SLT PUSH2 0x1301 JUMPI SWAP1 JUMP JUMPDEST PUSH2 0x1282 SWAP1 PUSH2 0x11CB JUMP JUMPDEST PUSH1 0xFF DUP3 AND PUSH1 0x12 DUP2 EQ PUSH2 0x12F1 JUMPI PUSH1 0x12 GT ISZERO PUSH2 0x132D JUMPI PUSH2 0xC39 PUSH2 0x12DD PUSH2 0x1282 SWAP4 PUSH2 0x1298 JUMP JUMPDEST PUSH2 0xAB7 PUSH2 0x12DD PUSH2 0x1282 SWAP4 PUSH2 0x1285 JUMP INVALID LOG2 PUSH5 0x6970667358 0x22 SLT KECCAK256 SIGNEXTEND 0xE9 0xAC 0x2C 0x4E PUSH11 0xE9BEDD35E728CB8104EF3F DUP6 0xB0 0xD0 0x2F 0xC DUP5 EXTSTATICCALL 0xFC PUSH25 0x320888A9BB7A64736F6C634300081E00330000000000000000 "},"methodIdentifiers":{"_decodePrice(bytes)":"c81d5346","_decodeTwoBytes(bytes)":"f9158ee5","assetParams(address)":"187a3411","quote((address,address,address,uint256,uint128,uint128,uint16,bool),bytes)":"5e3344d0","quoteBatch((address,address,address,uint256[],uint128[],uint128[],uint16[],bool),bytes)":"db90d100","setAssetParams(address,uint256)":"5b11b54a"}}}}}