{"contracts/Peripheral/quoters/real/RealDataBridge/StoixQuoterSimpleAverage.sol":{"StoixQuoterSimpleAverage":{"abi":[{"inputs":[{"internalType":"bytes","name":"data","type":"bytes"}],"name":"_decodePrice","outputs":[{"internalType":"uint256","name":"price","type":"uint256"}],"stateMutability":"pure","type":"function"},{"inputs":[{"components":[{"internalType":"address","name":"asset0","type":"address"},{"internalType":"address","name":"asset1","type":"address"},{"internalType":"address","name":"quoter","type":"address"},{"internalType":"uint256","name":"amount","type":"uint256"},{"internalType":"uint128","name":"asset0Balance","type":"uint128"},{"internalType":"uint128","name":"asset1Balance","type":"uint128"},{"internalType":"uint16","name":"bucketID","type":"uint16"},{"internalType":"bool","name":"zeroForOne","type":"bool"}],"internalType":"struct QuoteParams","name":"params","type":"tuple"},{"internalType":"bytes","name":"data","type":"bytes"}],"name":"quote","outputs":[{"internalType":"uint256","name":"","type":"uint256"}],"stateMutability":"nonpayable","type":"function"},{"inputs":[{"components":[{"internalType":"address","name":"asset0","type":"address"},{"internalType":"address","name":"asset1","type":"address"},{"internalType":"address","name":"quoter","type":"address"},{"internalType":"uint256[]","name":"amount","type":"uint256[]"},{"internalType":"uint128[]","name":"asset0Balances","type":"uint128[]"},{"internalType":"uint128[]","name":"asset1Balances","type":"uint128[]"},{"internalType":"uint16[]","name":"bucketID","type":"uint16[]"},{"internalType":"bool","name":"zeroForOne","type":"bool"}],"internalType":"struct QuoteParamsBatch","name":"params","type":"tuple"},{"internalType":"bytes","name":"data","type":"bytes"}],"name":"quoteBatch","outputs":[{"internalType":"uint256[]","name":"quotes","type":"uint256[]"}],"stateMutability":"nonpayable","type":"function"}],"evm":{"bytecode":{"linkReferences":{},"object":"608080604052346015576110be908161001a8239f35b5f80fdfe6080806040526004361015610012575f80fd5b5f3560e01c9081635e3344d0146104a457508063c81d5346146104595763db90d1001461003d575f80fd5b346103d35760403660031901126103d3576004356001600160401b0381116103d35761010060031982360301126103d3576040519061007b8261059d565b610087816004016105ee565b8252610095602482016105ee565b91602081019283526100a9604483016105ee565b926040820193845260648301356001600160401b0381116103d357830192366023850112156103d3576004840135936100e185610663565b946100ef60405196876105cd565b808652602060048188019260051b84010101913683116103d357602401905b828210610449575050506060830193845260848101356001600160401b0381116103d357610142906004369184010161067a565b906080840191825260a48101356001600160401b0381116103d35761016d906004369184010161067a565b9060a0850191825260c48101356001600160401b0381116103d357810190366023830112156103d35760048201356101a481610663565b926101b260405194856105cd565b818452602060048186019360051b83010101903682116103d357602401915b81831061042e5750505060c0860191825260e401359182151583036103d35760e086019283526024356001600160401b0381116103d35761021690369060040161061d565b938751519661023d61022789610663565b986102356040519a8b6105cd565b808a52610663565b602089019190601f19013683375f5b8a519081518110156103ea5782518a518e516001600160a01b039283169491831692169061027b90849061076b565b51838851906102899161076b565b516001600160801b0316848a51906102a09161076b565b516001600160801b031691858c51906102b89161076b565b5161ffff16938d51151595604051986102d08a61059d565b8952602089019081526040808a0192835260608a0193845260808a0194855260a08a0195865260c08a0196875260e08a01978852516305e3344d60e41b815298516001600160a01b0390811660048b01529051811660248a01529051166044880152516064870152516001600160801b03908116608487015290511660a48501525161ffff1660c484015251151560e48301526101206101048301528161037b61012482018b610747565b03823091815a6020945f91f180156103df575f906103a9575b600192506103a2828d61076b565b520161024c565b506020823d82116103d7575b816103c2602093836105cd565b810103126103d35760019151610394565b5f80fd5b3d91506103b5565b6040513d5f823e3d90fd5b838b604051918291602083019060208452518091526040830191905f5b818110610415575050500390f35b8251845285945060209384019390920191600101610407565b823561ffff811681036103d3578152602092830192016101d1565b813581526020918201910161010e565b346103d35760203660031901126103d3576004356001600160401b0381116103d35761048990369060040161061d565b6040818051810103126103d357602080910151604051908152f35b346103d357366003190161012081126103d357610100136103d3576104c88161059d565b6004356001600160a01b03811681036103d35781526024356001600160a01b03811681036103d35760208201526044356001600160a01b03811681036103d357604082015260643560608201526084356001600160801b03811681036103d357608082015260a4356001600160801b03811681036103d35760a082015260c43561ffff811681036103d35760c082015260e43580151581036103d35760e0820152610104356001600160401b0381116103d35760209161058f61059592369060040161061d565b906107e0565b604051908152f35b61010081019081106001600160401b038211176105b957604052565b634e487b7160e01b5f52604160045260245ffd5b90601f801991011681019081106001600160401b038211176105b957604052565b35906001600160a01b03821682036103d357565b6001600160401b0381116105b957601f01601f191660200190565b81601f820112156103d35780359061063482610602565b9261064260405194856105cd565b828452602083830101116103d357815f926020809301838601378301015290565b6001600160401b0381116105b95760051b60200190565b9080601f830112156103d35781359061069282610663565b926106a060405194856105cd565b82845260208085019360051b8201019182116103d357602001915b8183106106c85750505090565b82356001600160801b03811681036103d3578152602092830192016106bb565b81601f820112156103d3578051906106ff82610602565b9261070d60405194856105cd565b828452602083830101116103d357815f9260208093018386015e8301015290565b908160209103126103d3575160ff811681036103d35790565b805180835260209291819084018484015e5f828201840152601f01601f1916010190565b805182101561077f5760209160051b010190565b634e487b7160e01b5f52603260045260245ffd5b5f1981146107a15760010190565b634e487b7160e01b5f52601160045260245ffd5b919082018092116107a157565b81156107cc570490565b634e487b7160e01b5f52601260045260245ffd5b919091825183019260a081602086019503126103d35760208101516001600160401b0381116103d357846020610818928401016106e8565b9360408201516001600160401b0381116103d35781602061083b928501016106e8565b9460608301516001600160401b0381116103d35782602061085e928601016106e8565b9160808401516001600160401b0381116103d357816020610881928701016106e8565b5060a0840151906001600160401b0382116103d35760206108a69260049601016106e8565b845160405163313ce56760e01b81529460209186919082906001600160a01b03165afa9283156103df576004945f94610cce575b5060208681015160405163313ce56760e01b815296879182906001600160a01b03165afa9485156103df575f95610c9d575b506040519761091c60a08a6105cd565b600489526020890160803682375f94604081511015610c0a575b5050604081511015610b77575b50604081511015610ae4575b50604081511015610a4d575b50806109c157506109a693945061099190606060e08501938451151592835f146109ba5780935b156109b25750945b0151610d61565b9051156109a9576109a190610fa3565b611056565b90565b6109a190610ee8565b90509461098a565b8193610982565b5f955f5b828110610a2c5750506109df610a04916109a696976107c2565b91606060e08601948551151592835f14610a255780935b15610a1d5750950151610d61565b915115610a14576109a191610e5b565b6109a191610daa565b90509561098a565b81936109f6565b9096610a45600191610a3e848b61076b565b51906107b5565b9791016109c5565b6020610a74916040518093819263640ea9a360e11b83528460048401526024830190610747565b0381305afa5f9181610ab0575b501561095b57801561095b5790610a9a610aaa92610cef565b610aa4828961076b565b52610793565b5f61095b565b9091506020813d602011610adc575b81610acc602093836105cd565b810103126103d35751905f610a81565b3d9150610abf565b6020610b0b916040518093819263640ea9a360e11b83528460048401526024830190610747565b0381305afa5f9181610b43575b501561094f57801561094f5791610b32610b3c9293610cef565b610aa4828a61076b565b905f61094f565b9091506020813d602011610b6f575b81610b5f602093836105cd565b810103126103d35751905f610b18565b3d9150610b52565b6020610b9e916040518093819263640ea9a360e11b83528460048401526024830190610747565b0381305afa5f9181610bd6575b50156109435780156109435792610bc5610bcf9294610cef565b610aa4828b61076b565b915f610943565b9091506020813d602011610c02575b81610bf2602093836105cd565b810103126103d35751905f610bab565b3d9150610be5565b6020610c31916040518093819263640ea9a360e11b83528460048401526024830190610747565b0381305afa5f9181610c69575b501561093657801561093657610c5691929550610cef565b9089511561077f57526001925f80610936565b9091506020813d602011610c95575b81610c85602093836105cd565b810103126103d35751905f610c3e565b3d9150610c78565b610cc091955060203d602011610cc7575b610cb881836105cd565b81019061072e565b935f61090c565b503d610cae565b610ce891945060203d602011610cc757610cb881836105cd565b925f6108da565b670de0b6b3a76400008110156109a65780156107cc576ec097ce7bc90715b34b9f10000000000490565b60ff6011199116019060ff82116107a157565b60ff166012039060ff82116107a157565b60ff16604d81116107a157600a0a90565b818102929181159184041417156107a157565b60ff821660128114610da45760121115610d8f57610d89610d846109a693610d2c565b610d3d565b90610d4e565b610d9e610d846109a693610d19565b906107c2565b50905090565b80158015610e54575b610e4e577812725dd1d243aba0e75fe645cc4873f9e65afe688c928e1f21811115610e2a57610de282826107c2565b9082156107cc57670de0b6b3a764000090818302928084048314901517156107a1578390068181029181830414901517156107a1576109a692610e24916107c2565b906107b5565b90670de0b6b3a7640000918281029281840414901517156107a1576109a6916107c2565b50505f90565b505f610db3565b905f82158015610ee0575b610ed95781156107cc57815f1904831115610ec15780610ead575090670de0b6b3a7640000610ea68382610e9f6109a696828704610d4e565b9406610d4e565b04906107b5565b634e487b7160e01b81526012600452602490fd5b50610ed590670de0b6b3a764000092610d4e565b0490565b5050505f90565b508115610e66565b80158015610f9c575b610f97577812725dd1d243aba0e75fe645cc4873f9e65afe688c928e1f21811115610f6e5768f3f20b8dfa69d000008104670de0b6b3a764000091828202918083048414901517156107a15768f3f20b8dfa69d0000090068281029281840414901517156107a15768f3f20b8dfa69d000006109a69204906107b5565b670de0b6b3a7640000908181029181830414901517156107a15768f3f20b8dfa69d00000900490565b505f90565b505f610ef1565b8015801561104f575b610f975777010ca672562512a36fb1b7157e14f5fc7799c5333b326f6581111561102657670de0b6b3a7640000810468f3f20b8dfa69d0000091828202918083048414901517156107a157670de0b6b3a764000090068281029281840414901517156107a157670de0b6b3a76400006109a69204906107b5565b68f3f20b8dfa69d00000908181029181830414901517156107a157670de0b6b3a7640000900490565b505f610fac565b60ff821660128114610da4576012111561107957610d9e610d846109a693610d2c565b610d89610d846109a693610d1956fea2646970667358221220d3f1a3f04b24f65c6b917019ac711ec06529084f82a640dd8630145e657c076864736f6c634300081e0033","opcodes":"PUSH1 0x80 DUP1 PUSH1 0x40 MSTORE CALLVALUE PUSH1 0x15 JUMPI PUSH2 0x10BE SWAP1 DUP2 PUSH2 0x1A DUP3 CODECOPY RETURN JUMPDEST PUSH0 DUP1 REVERT INVALID PUSH1 0x80 DUP1 PUSH1 0x40 MSTORE PUSH1 0x4 CALLDATASIZE LT ISZERO PUSH2 0x12 JUMPI PUSH0 DUP1 REVERT JUMPDEST PUSH0 CALLDATALOAD PUSH1 0xE0 SHR SWAP1 DUP2 PUSH4 0x5E3344D0 EQ PUSH2 0x4A4 JUMPI POP DUP1 PUSH4 0xC81D5346 EQ PUSH2 0x459 JUMPI PUSH4 0xDB90D100 EQ PUSH2 0x3D JUMPI PUSH0 DUP1 REVERT JUMPDEST CALLVALUE PUSH2 0x3D3 JUMPI PUSH1 0x40 CALLDATASIZE PUSH1 0x3 NOT ADD SLT PUSH2 0x3D3 JUMPI PUSH1 0x4 CALLDATALOAD PUSH1 0x1 PUSH1 0x1 PUSH1 0x40 SHL SUB DUP2 GT PUSH2 0x3D3 JUMPI PUSH2 0x100 PUSH1 0x3 NOT DUP3 CALLDATASIZE SUB ADD SLT PUSH2 0x3D3 JUMPI PUSH1 0x40 MLOAD SWAP1 PUSH2 0x7B DUP3 PUSH2 0x59D JUMP JUMPDEST PUSH2 0x87 DUP2 PUSH1 0x4 ADD PUSH2 0x5EE JUMP JUMPDEST DUP3 MSTORE PUSH2 0x95 PUSH1 0x24 DUP3 ADD PUSH2 0x5EE JUMP JUMPDEST SWAP2 PUSH1 0x20 DUP2 ADD SWAP3 DUP4 MSTORE PUSH2 0xA9 PUSH1 0x44 DUP4 ADD PUSH2 0x5EE JUMP JUMPDEST SWAP3 PUSH1 0x40 DUP3 ADD SWAP4 DUP5 MSTORE PUSH1 0x64 DUP4 ADD CALLDATALOAD PUSH1 0x1 PUSH1 0x1 PUSH1 0x40 SHL SUB DUP2 GT PUSH2 0x3D3 JUMPI DUP4 ADD SWAP3 CALLDATASIZE PUSH1 0x23 DUP6 ADD SLT ISZERO PUSH2 0x3D3 JUMPI PUSH1 0x4 DUP5 ADD CALLDATALOAD SWAP4 PUSH2 0xE1 DUP6 PUSH2 0x663 JUMP JUMPDEST SWAP5 PUSH2 0xEF PUSH1 0x40 MLOAD SWAP7 DUP8 PUSH2 0x5CD JUMP JUMPDEST DUP1 DUP7 MSTORE PUSH1 0x20 PUSH1 0x4 DUP2 DUP9 ADD SWAP3 PUSH1 0x5 SHL DUP5 ADD ADD ADD SWAP2 CALLDATASIZE DUP4 GT PUSH2 0x3D3 JUMPI PUSH1 0x24 ADD SWAP1 JUMPDEST DUP3 DUP3 LT PUSH2 0x449 JUMPI POP POP POP PUSH1 0x60 DUP4 ADD SWAP4 DUP5 MSTORE PUSH1 0x84 DUP2 ADD CALLDATALOAD PUSH1 0x1 PUSH1 0x1 PUSH1 0x40 SHL SUB DUP2 GT PUSH2 0x3D3 JUMPI PUSH2 0x142 SWAP1 PUSH1 0x4 CALLDATASIZE SWAP2 DUP5 ADD ADD PUSH2 0x67A JUMP JUMPDEST SWAP1 PUSH1 0x80 DUP5 ADD SWAP2 DUP3 MSTORE PUSH1 0xA4 DUP2 ADD CALLDATALOAD PUSH1 0x1 PUSH1 0x1 PUSH1 0x40 SHL SUB DUP2 GT PUSH2 0x3D3 JUMPI PUSH2 0x16D SWAP1 PUSH1 0x4 CALLDATASIZE SWAP2 DUP5 ADD ADD PUSH2 0x67A JUMP JUMPDEST SWAP1 PUSH1 0xA0 DUP6 ADD SWAP2 DUP3 MSTORE PUSH1 0xC4 DUP2 ADD CALLDATALOAD PUSH1 0x1 PUSH1 0x1 PUSH1 0x40 SHL SUB DUP2 GT PUSH2 0x3D3 JUMPI DUP2 ADD SWAP1 CALLDATASIZE PUSH1 0x23 DUP4 ADD SLT ISZERO PUSH2 0x3D3 JUMPI PUSH1 0x4 DUP3 ADD CALLDATALOAD PUSH2 0x1A4 DUP2 PUSH2 0x663 JUMP JUMPDEST SWAP3 PUSH2 0x1B2 PUSH1 0x40 MLOAD SWAP5 DUP6 PUSH2 0x5CD JUMP JUMPDEST DUP2 DUP5 MSTORE PUSH1 0x20 PUSH1 0x4 DUP2 DUP7 ADD SWAP4 PUSH1 0x5 SHL DUP4 ADD ADD ADD SWAP1 CALLDATASIZE DUP3 GT PUSH2 0x3D3 JUMPI PUSH1 0x24 ADD SWAP2 JUMPDEST DUP2 DUP4 LT PUSH2 0x42E JUMPI POP POP POP PUSH1 0xC0 DUP7 ADD SWAP2 DUP3 MSTORE PUSH1 0xE4 ADD CALLDATALOAD SWAP2 DUP3 ISZERO ISZERO DUP4 SUB PUSH2 0x3D3 JUMPI PUSH1 0xE0 DUP7 ADD SWAP3 DUP4 MSTORE PUSH1 0x24 CALLDATALOAD PUSH1 0x1 PUSH1 0x1 PUSH1 0x40 SHL SUB DUP2 GT PUSH2 0x3D3 JUMPI PUSH2 0x216 SWAP1 CALLDATASIZE SWAP1 PUSH1 0x4 ADD PUSH2 0x61D JUMP JUMPDEST SWAP4 DUP8 MLOAD MLOAD SWAP7 PUSH2 0x23D PUSH2 0x227 DUP10 PUSH2 0x663 JUMP JUMPDEST SWAP9 PUSH2 0x235 PUSH1 0x40 MLOAD SWAP11 DUP12 PUSH2 0x5CD JUMP JUMPDEST DUP1 DUP11 MSTORE PUSH2 0x663 JUMP JUMPDEST PUSH1 0x20 DUP10 ADD SWAP2 SWAP1 PUSH1 0x1F NOT ADD CALLDATASIZE DUP4 CALLDATACOPY PUSH0 JUMPDEST DUP11 MLOAD SWAP1 DUP2 MLOAD DUP2 LT ISZERO PUSH2 0x3EA JUMPI DUP3 MLOAD DUP11 MLOAD DUP15 MLOAD PUSH1 0x1 PUSH1 0x1 PUSH1 0xA0 SHL SUB SWAP3 DUP4 AND SWAP5 SWAP2 DUP4 AND SWAP3 AND SWAP1 PUSH2 0x27B SWAP1 DUP5 SWAP1 PUSH2 0x76B JUMP JUMPDEST MLOAD DUP4 DUP9 MLOAD SWAP1 PUSH2 0x289 SWAP2 PUSH2 0x76B JUMP JUMPDEST MLOAD PUSH1 0x1 PUSH1 0x1 PUSH1 0x80 SHL SUB AND DUP5 DUP11 MLOAD SWAP1 PUSH2 0x2A0 SWAP2 PUSH2 0x76B JUMP JUMPDEST MLOAD PUSH1 0x1 PUSH1 0x1 PUSH1 0x80 SHL SUB AND SWAP2 DUP6 DUP13 MLOAD SWAP1 PUSH2 0x2B8 SWAP2 PUSH2 0x76B JUMP JUMPDEST MLOAD PUSH2 0xFFFF AND SWAP4 DUP14 MLOAD ISZERO ISZERO SWAP6 PUSH1 0x40 MLOAD SWAP9 PUSH2 0x2D0 DUP11 PUSH2 0x59D JUMP JUMPDEST DUP10 MSTORE PUSH1 0x20 DUP10 ADD SWAP1 DUP2 MSTORE PUSH1 0x40 DUP1 DUP11 ADD SWAP3 DUP4 MSTORE PUSH1 0x60 DUP11 ADD SWAP4 DUP5 MSTORE PUSH1 0x80 DUP11 ADD SWAP5 DUP6 MSTORE PUSH1 0xA0 DUP11 ADD SWAP6 DUP7 MSTORE PUSH1 0xC0 DUP11 ADD SWAP7 DUP8 MSTORE PUSH1 0xE0 DUP11 ADD SWAP8 DUP9 MSTORE MLOAD PUSH4 0x5E3344D PUSH1 0xE4 SHL DUP2 MSTORE SWAP9 MLOAD PUSH1 0x1 PUSH1 0x1 PUSH1 0xA0 SHL SUB SWAP1 DUP2 AND PUSH1 0x4 DUP12 ADD MSTORE SWAP1 MLOAD DUP2 AND PUSH1 0x24 DUP11 ADD MSTORE SWAP1 MLOAD AND PUSH1 0x44 DUP9 ADD MSTORE MLOAD PUSH1 0x64 DUP8 ADD MSTORE MLOAD PUSH1 0x1 PUSH1 0x1 PUSH1 0x80 SHL SUB SWAP1 DUP2 AND PUSH1 0x84 DUP8 ADD MSTORE SWAP1 MLOAD AND PUSH1 0xA4 DUP6 ADD MSTORE MLOAD PUSH2 0xFFFF AND PUSH1 0xC4 DUP5 ADD MSTORE MLOAD ISZERO ISZERO PUSH1 0xE4 DUP4 ADD MSTORE PUSH2 0x120 PUSH2 0x104 DUP4 ADD MSTORE DUP2 PUSH2 0x37B PUSH2 0x124 DUP3 ADD DUP12 PUSH2 0x747 JUMP JUMPDEST SUB DUP3 ADDRESS SWAP2 DUP2 GAS PUSH1 0x20 SWAP5 PUSH0 SWAP2 CALL DUP1 ISZERO PUSH2 0x3DF JUMPI PUSH0 SWAP1 PUSH2 0x3A9 JUMPI JUMPDEST PUSH1 0x1 SWAP3 POP PUSH2 0x3A2 DUP3 DUP14 PUSH2 0x76B JUMP JUMPDEST MSTORE ADD PUSH2 0x24C JUMP JUMPDEST POP PUSH1 0x20 DUP3 RETURNDATASIZE DUP3 GT PUSH2 0x3D7 JUMPI JUMPDEST DUP2 PUSH2 0x3C2 PUSH1 0x20 SWAP4 DUP4 PUSH2 0x5CD JUMP JUMPDEST DUP2 ADD SUB SLT PUSH2 0x3D3 JUMPI PUSH1 0x1 SWAP2 MLOAD PUSH2 0x394 JUMP JUMPDEST PUSH0 DUP1 REVERT JUMPDEST RETURNDATASIZE SWAP2 POP PUSH2 0x3B5 JUMP JUMPDEST PUSH1 0x40 MLOAD RETURNDATASIZE PUSH0 DUP3 RETURNDATACOPY RETURNDATASIZE SWAP1 REVERT JUMPDEST DUP4 DUP12 PUSH1 0x40 MLOAD SWAP2 DUP3 SWAP2 PUSH1 0x20 DUP4 ADD SWAP1 PUSH1 0x20 DUP5 MSTORE MLOAD DUP1 SWAP2 MSTORE PUSH1 0x40 DUP4 ADD SWAP2 SWAP1 PUSH0 JUMPDEST DUP2 DUP2 LT PUSH2 0x415 JUMPI POP POP POP SUB SWAP1 RETURN JUMPDEST DUP3 MLOAD DUP5 MSTORE DUP6 SWAP5 POP PUSH1 0x20 SWAP4 DUP5 ADD SWAP4 SWAP1 SWAP3 ADD SWAP2 PUSH1 0x1 ADD PUSH2 0x407 JUMP JUMPDEST DUP3 CALLDATALOAD PUSH2 0xFFFF DUP2 AND DUP2 SUB PUSH2 0x3D3 JUMPI DUP2 MSTORE PUSH1 0x20 SWAP3 DUP4 ADD SWAP3 ADD PUSH2 0x1D1 JUMP JUMPDEST DUP2 CALLDATALOAD DUP2 MSTORE PUSH1 0x20 SWAP2 DUP3 ADD SWAP2 ADD PUSH2 0x10E JUMP JUMPDEST CALLVALUE PUSH2 0x3D3 JUMPI PUSH1 0x20 CALLDATASIZE PUSH1 0x3 NOT ADD SLT PUSH2 0x3D3 JUMPI PUSH1 0x4 CALLDATALOAD PUSH1 0x1 PUSH1 0x1 PUSH1 0x40 SHL SUB DUP2 GT PUSH2 0x3D3 JUMPI PUSH2 0x489 SWAP1 CALLDATASIZE SWAP1 PUSH1 0x4 ADD PUSH2 0x61D JUMP JUMPDEST PUSH1 0x40 DUP2 DUP1 MLOAD DUP2 ADD SUB SLT PUSH2 0x3D3 JUMPI PUSH1 0x20 DUP1 SWAP2 ADD MLOAD PUSH1 0x40 MLOAD SWAP1 DUP2 MSTORE RETURN JUMPDEST CALLVALUE PUSH2 0x3D3 JUMPI CALLDATASIZE PUSH1 0x3 NOT ADD PUSH2 0x120 DUP2 SLT PUSH2 0x3D3 JUMPI PUSH2 0x100 SGT PUSH2 0x3D3 JUMPI PUSH2 0x4C8 DUP2 PUSH2 0x59D JUMP JUMPDEST PUSH1 0x4 CALLDATALOAD PUSH1 0x1 PUSH1 0x1 PUSH1 0xA0 SHL SUB DUP2 AND DUP2 SUB PUSH2 0x3D3 JUMPI DUP2 MSTORE PUSH1 0x24 CALLDATALOAD PUSH1 0x1 PUSH1 0x1 PUSH1 0xA0 SHL SUB DUP2 AND DUP2 SUB PUSH2 0x3D3 JUMPI PUSH1 0x20 DUP3 ADD MSTORE PUSH1 0x44 CALLDATALOAD PUSH1 0x1 PUSH1 0x1 PUSH1 0xA0 SHL SUB DUP2 AND DUP2 SUB PUSH2 0x3D3 JUMPI PUSH1 0x40 DUP3 ADD MSTORE PUSH1 0x64 CALLDATALOAD PUSH1 0x60 DUP3 ADD MSTORE PUSH1 0x84 CALLDATALOAD PUSH1 0x1 PUSH1 0x1 PUSH1 0x80 SHL SUB DUP2 AND DUP2 SUB PUSH2 0x3D3 JUMPI PUSH1 0x80 DUP3 ADD MSTORE PUSH1 0xA4 CALLDATALOAD PUSH1 0x1 PUSH1 0x1 PUSH1 0x80 SHL SUB DUP2 AND DUP2 SUB PUSH2 0x3D3 JUMPI PUSH1 0xA0 DUP3 ADD MSTORE PUSH1 0xC4 CALLDATALOAD PUSH2 0xFFFF DUP2 AND DUP2 SUB PUSH2 0x3D3 JUMPI PUSH1 0xC0 DUP3 ADD MSTORE PUSH1 0xE4 CALLDATALOAD DUP1 ISZERO ISZERO DUP2 SUB PUSH2 0x3D3 JUMPI PUSH1 0xE0 DUP3 ADD MSTORE PUSH2 0x104 CALLDATALOAD PUSH1 0x1 PUSH1 0x1 PUSH1 0x40 SHL SUB DUP2 GT PUSH2 0x3D3 JUMPI PUSH1 0x20 SWAP2 PUSH2 0x58F PUSH2 0x595 SWAP3 CALLDATASIZE SWAP1 PUSH1 0x4 ADD PUSH2 0x61D JUMP JUMPDEST SWAP1 PUSH2 0x7E0 JUMP JUMPDEST PUSH1 0x40 MLOAD SWAP1 DUP2 MSTORE RETURN JUMPDEST PUSH2 0x100 DUP2 ADD SWAP1 DUP2 LT PUSH1 0x1 PUSH1 0x1 PUSH1 0x40 SHL SUB DUP3 GT OR PUSH2 0x5B9 JUMPI PUSH1 0x40 MSTORE JUMP JUMPDEST PUSH4 0x4E487B71 PUSH1 0xE0 SHL PUSH0 MSTORE PUSH1 0x41 PUSH1 0x4 MSTORE PUSH1 0x24 PUSH0 REVERT JUMPDEST SWAP1 PUSH1 0x1F DUP1 NOT SWAP2 ADD AND DUP2 ADD SWAP1 DUP2 LT PUSH1 0x1 PUSH1 0x1 PUSH1 0x40 SHL SUB DUP3 GT OR PUSH2 0x5B9 JUMPI PUSH1 0x40 MSTORE JUMP JUMPDEST CALLDATALOAD SWAP1 PUSH1 0x1 PUSH1 0x1 PUSH1 0xA0 SHL SUB DUP3 AND DUP3 SUB PUSH2 0x3D3 JUMPI JUMP JUMPDEST PUSH1 0x1 PUSH1 0x1 PUSH1 0x40 SHL SUB DUP2 GT PUSH2 0x5B9 JUMPI PUSH1 0x1F ADD PUSH1 0x1F NOT AND PUSH1 0x20 ADD SWAP1 JUMP JUMPDEST DUP2 PUSH1 0x1F DUP3 ADD SLT ISZERO PUSH2 0x3D3 JUMPI DUP1 CALLDATALOAD SWAP1 PUSH2 0x634 DUP3 PUSH2 0x602 JUMP JUMPDEST SWAP3 PUSH2 0x642 PUSH1 0x40 MLOAD SWAP5 DUP6 PUSH2 0x5CD JUMP JUMPDEST DUP3 DUP5 MSTORE PUSH1 0x20 DUP4 DUP4 ADD ADD GT PUSH2 0x3D3 JUMPI DUP2 PUSH0 SWAP3 PUSH1 0x20 DUP1 SWAP4 ADD DUP4 DUP7 ADD CALLDATACOPY DUP4 ADD ADD MSTORE SWAP1 JUMP JUMPDEST PUSH1 0x1 PUSH1 0x1 PUSH1 0x40 SHL SUB DUP2 GT PUSH2 0x5B9 JUMPI PUSH1 0x5 SHL PUSH1 0x20 ADD SWAP1 JUMP JUMPDEST SWAP1 DUP1 PUSH1 0x1F DUP4 ADD SLT ISZERO PUSH2 0x3D3 JUMPI DUP2 CALLDATALOAD SWAP1 PUSH2 0x692 DUP3 PUSH2 0x663 JUMP JUMPDEST SWAP3 PUSH2 0x6A0 PUSH1 0x40 MLOAD SWAP5 DUP6 PUSH2 0x5CD JUMP JUMPDEST DUP3 DUP5 MSTORE PUSH1 0x20 DUP1 DUP6 ADD SWAP4 PUSH1 0x5 SHL DUP3 ADD ADD SWAP2 DUP3 GT PUSH2 0x3D3 JUMPI PUSH1 0x20 ADD SWAP2 JUMPDEST DUP2 DUP4 LT PUSH2 0x6C8 JUMPI POP POP POP SWAP1 JUMP JUMPDEST DUP3 CALLDATALOAD PUSH1 0x1 PUSH1 0x1 PUSH1 0x80 SHL SUB DUP2 AND DUP2 SUB PUSH2 0x3D3 JUMPI DUP2 MSTORE PUSH1 0x20 SWAP3 DUP4 ADD SWAP3 ADD PUSH2 0x6BB JUMP JUMPDEST DUP2 PUSH1 0x1F DUP3 ADD SLT ISZERO PUSH2 0x3D3 JUMPI DUP1 MLOAD SWAP1 PUSH2 0x6FF DUP3 PUSH2 0x602 JUMP JUMPDEST SWAP3 PUSH2 0x70D PUSH1 0x40 MLOAD SWAP5 DUP6 PUSH2 0x5CD JUMP JUMPDEST DUP3 DUP5 MSTORE PUSH1 0x20 DUP4 DUP4 ADD ADD GT PUSH2 0x3D3 JUMPI DUP2 PUSH0 SWAP3 PUSH1 0x20 DUP1 SWAP4 ADD DUP4 DUP7 ADD MCOPY DUP4 ADD ADD MSTORE SWAP1 JUMP JUMPDEST SWAP1 DUP2 PUSH1 0x20 SWAP2 SUB SLT PUSH2 0x3D3 JUMPI MLOAD PUSH1 0xFF DUP2 AND DUP2 SUB PUSH2 0x3D3 JUMPI SWAP1 JUMP JUMPDEST DUP1 MLOAD DUP1 DUP4 MSTORE PUSH1 0x20 SWAP3 SWAP2 DUP2 SWAP1 DUP5 ADD DUP5 DUP5 ADD MCOPY PUSH0 DUP3 DUP3 ADD DUP5 ADD MSTORE PUSH1 0x1F ADD PUSH1 0x1F NOT AND ADD ADD SWAP1 JUMP JUMPDEST DUP1 MLOAD DUP3 LT ISZERO PUSH2 0x77F JUMPI PUSH1 0x20 SWAP2 PUSH1 0x5 SHL ADD ADD SWAP1 JUMP JUMPDEST PUSH4 0x4E487B71 PUSH1 0xE0 SHL PUSH0 MSTORE PUSH1 0x32 PUSH1 0x4 MSTORE PUSH1 0x24 PUSH0 REVERT JUMPDEST PUSH0 NOT DUP2 EQ PUSH2 0x7A1 JUMPI PUSH1 0x1 ADD SWAP1 JUMP JUMPDEST PUSH4 0x4E487B71 PUSH1 0xE0 SHL PUSH0 MSTORE PUSH1 0x11 PUSH1 0x4 MSTORE PUSH1 0x24 PUSH0 REVERT JUMPDEST SWAP2 SWAP1 DUP3 ADD DUP1 SWAP3 GT PUSH2 0x7A1 JUMPI JUMP JUMPDEST DUP2 ISZERO PUSH2 0x7CC JUMPI DIV SWAP1 JUMP JUMPDEST PUSH4 0x4E487B71 PUSH1 0xE0 SHL PUSH0 MSTORE PUSH1 0x12 PUSH1 0x4 MSTORE PUSH1 0x24 PUSH0 REVERT JUMPDEST SWAP2 SWAP1 SWAP2 DUP3 MLOAD DUP4 ADD SWAP3 PUSH1 0xA0 DUP2 PUSH1 0x20 DUP7 ADD SWAP6 SUB SLT PUSH2 0x3D3 JUMPI PUSH1 0x20 DUP2 ADD MLOAD PUSH1 0x1 PUSH1 0x1 PUSH1 0x40 SHL SUB DUP2 GT PUSH2 0x3D3 JUMPI DUP5 PUSH1 0x20 PUSH2 0x818 SWAP3 DUP5 ADD ADD PUSH2 0x6E8 JUMP JUMPDEST SWAP4 PUSH1 0x40 DUP3 ADD MLOAD PUSH1 0x1 PUSH1 0x1 PUSH1 0x40 SHL SUB DUP2 GT PUSH2 0x3D3 JUMPI DUP2 PUSH1 0x20 PUSH2 0x83B SWAP3 DUP6 ADD ADD PUSH2 0x6E8 JUMP JUMPDEST SWAP5 PUSH1 0x60 DUP4 ADD MLOAD PUSH1 0x1 PUSH1 0x1 PUSH1 0x40 SHL SUB DUP2 GT PUSH2 0x3D3 JUMPI DUP3 PUSH1 0x20 PUSH2 0x85E SWAP3 DUP7 ADD ADD PUSH2 0x6E8 JUMP JUMPDEST SWAP2 PUSH1 0x80 DUP5 ADD MLOAD PUSH1 0x1 PUSH1 0x1 PUSH1 0x40 SHL SUB DUP2 GT PUSH2 0x3D3 JUMPI DUP2 PUSH1 0x20 PUSH2 0x881 SWAP3 DUP8 ADD ADD PUSH2 0x6E8 JUMP JUMPDEST POP PUSH1 0xA0 DUP5 ADD MLOAD SWAP1 PUSH1 0x1 PUSH1 0x1 PUSH1 0x40 SHL SUB DUP3 GT PUSH2 0x3D3 JUMPI PUSH1 0x20 PUSH2 0x8A6 SWAP3 PUSH1 0x4 SWAP7 ADD ADD PUSH2 0x6E8 JUMP JUMPDEST DUP5 MLOAD PUSH1 0x40 MLOAD PUSH4 0x313CE567 PUSH1 0xE0 SHL DUP2 MSTORE SWAP5 PUSH1 0x20 SWAP2 DUP7 SWAP2 SWAP1 DUP3 SWAP1 PUSH1 0x1 PUSH1 0x1 PUSH1 0xA0 SHL SUB AND GAS STATICCALL SWAP3 DUP4 ISZERO PUSH2 0x3DF JUMPI PUSH1 0x4 SWAP5 PUSH0 SWAP5 PUSH2 0xCCE JUMPI JUMPDEST POP PUSH1 0x20 DUP7 DUP2 ADD MLOAD PUSH1 0x40 MLOAD PUSH4 0x313CE567 PUSH1 0xE0 SHL DUP2 MSTORE SWAP7 DUP8 SWAP2 DUP3 SWAP1 PUSH1 0x1 PUSH1 0x1 PUSH1 0xA0 SHL SUB AND GAS STATICCALL SWAP5 DUP6 ISZERO PUSH2 0x3DF JUMPI PUSH0 SWAP6 PUSH2 0xC9D JUMPI JUMPDEST POP PUSH1 0x40 MLOAD SWAP8 PUSH2 0x91C PUSH1 0xA0 DUP11 PUSH2 0x5CD JUMP JUMPDEST PUSH1 0x4 DUP10 MSTORE PUSH1 0x20 DUP10 ADD PUSH1 0x80 CALLDATASIZE DUP3 CALLDATACOPY PUSH0 SWAP5 PUSH1 0x40 DUP2 MLOAD LT ISZERO PUSH2 0xC0A JUMPI JUMPDEST POP POP PUSH1 0x40 DUP2 MLOAD LT ISZERO PUSH2 0xB77 JUMPI JUMPDEST POP PUSH1 0x40 DUP2 MLOAD LT ISZERO PUSH2 0xAE4 JUMPI JUMPDEST POP PUSH1 0x40 DUP2 MLOAD LT ISZERO PUSH2 0xA4D JUMPI JUMPDEST POP DUP1 PUSH2 0x9C1 JUMPI POP PUSH2 0x9A6 SWAP4 SWAP5 POP PUSH2 0x991 SWAP1 PUSH1 0x60 PUSH1 0xE0 DUP6 ADD SWAP4 DUP5 MLOAD ISZERO ISZERO SWAP3 DUP4 PUSH0 EQ PUSH2 0x9BA JUMPI DUP1 SWAP4 JUMPDEST ISZERO PUSH2 0x9B2 JUMPI POP SWAP5 JUMPDEST ADD MLOAD PUSH2 0xD61 JUMP JUMPDEST SWAP1 MLOAD ISZERO PUSH2 0x9A9 JUMPI PUSH2 0x9A1 SWAP1 PUSH2 0xFA3 JUMP JUMPDEST PUSH2 0x1056 JUMP JUMPDEST SWAP1 JUMP JUMPDEST PUSH2 0x9A1 SWAP1 PUSH2 0xEE8 JUMP JUMPDEST SWAP1 POP SWAP5 PUSH2 0x98A JUMP JUMPDEST DUP2 SWAP4 PUSH2 0x982 JUMP JUMPDEST PUSH0 SWAP6 PUSH0 JUMPDEST DUP3 DUP2 LT PUSH2 0xA2C JUMPI POP POP PUSH2 0x9DF PUSH2 0xA04 SWAP2 PUSH2 0x9A6 SWAP7 SWAP8 PUSH2 0x7C2 JUMP JUMPDEST SWAP2 PUSH1 0x60 PUSH1 0xE0 DUP7 ADD SWAP5 DUP6 MLOAD ISZERO ISZERO SWAP3 DUP4 PUSH0 EQ PUSH2 0xA25 JUMPI DUP1 SWAP4 JUMPDEST ISZERO PUSH2 0xA1D JUMPI POP SWAP6 ADD MLOAD PUSH2 0xD61 JUMP JUMPDEST SWAP2 MLOAD ISZERO PUSH2 0xA14 JUMPI PUSH2 0x9A1 SWAP2 PUSH2 0xE5B JUMP JUMPDEST PUSH2 0x9A1 SWAP2 PUSH2 0xDAA JUMP JUMPDEST SWAP1 POP SWAP6 PUSH2 0x98A JUMP JUMPDEST DUP2 SWAP4 PUSH2 0x9F6 JUMP JUMPDEST SWAP1 SWAP7 PUSH2 0xA45 PUSH1 0x1 SWAP2 PUSH2 0xA3E DUP5 DUP12 PUSH2 0x76B JUMP JUMPDEST MLOAD SWAP1 PUSH2 0x7B5 JUMP JUMPDEST SWAP8 SWAP2 ADD PUSH2 0x9C5 JUMP JUMPDEST PUSH1 0x20 PUSH2 0xA74 SWAP2 PUSH1 0x40 MLOAD DUP1 SWAP4 DUP2 SWAP3 PUSH4 0x640EA9A3 PUSH1 0xE1 SHL DUP4 MSTORE DUP5 PUSH1 0x4 DUP5 ADD MSTORE PUSH1 0x24 DUP4 ADD SWAP1 PUSH2 0x747 JUMP JUMPDEST SUB DUP2 ADDRESS GAS STATICCALL PUSH0 SWAP2 DUP2 PUSH2 0xAB0 JUMPI JUMPDEST POP ISZERO PUSH2 0x95B JUMPI DUP1 ISZERO PUSH2 0x95B JUMPI SWAP1 PUSH2 0xA9A PUSH2 0xAAA SWAP3 PUSH2 0xCEF JUMP JUMPDEST PUSH2 0xAA4 DUP3 DUP10 PUSH2 0x76B JUMP JUMPDEST MSTORE PUSH2 0x793 JUMP JUMPDEST PUSH0 PUSH2 0x95B JUMP JUMPDEST SWAP1 SWAP2 POP PUSH1 0x20 DUP2 RETURNDATASIZE PUSH1 0x20 GT PUSH2 0xADC JUMPI JUMPDEST DUP2 PUSH2 0xACC PUSH1 0x20 SWAP4 DUP4 PUSH2 0x5CD JUMP JUMPDEST DUP2 ADD SUB SLT PUSH2 0x3D3 JUMPI MLOAD SWAP1 PUSH0 PUSH2 0xA81 JUMP JUMPDEST RETURNDATASIZE SWAP2 POP PUSH2 0xABF JUMP JUMPDEST PUSH1 0x20 PUSH2 0xB0B SWAP2 PUSH1 0x40 MLOAD DUP1 SWAP4 DUP2 SWAP3 PUSH4 0x640EA9A3 PUSH1 0xE1 SHL DUP4 MSTORE DUP5 PUSH1 0x4 DUP5 ADD MSTORE PUSH1 0x24 DUP4 ADD SWAP1 PUSH2 0x747 JUMP JUMPDEST SUB DUP2 ADDRESS GAS STATICCALL PUSH0 SWAP2 DUP2 PUSH2 0xB43 JUMPI JUMPDEST POP ISZERO PUSH2 0x94F JUMPI DUP1 ISZERO PUSH2 0x94F JUMPI SWAP2 PUSH2 0xB32 PUSH2 0xB3C SWAP3 SWAP4 PUSH2 0xCEF JUMP JUMPDEST PUSH2 0xAA4 DUP3 DUP11 PUSH2 0x76B JUMP JUMPDEST SWAP1 PUSH0 PUSH2 0x94F JUMP JUMPDEST SWAP1 SWAP2 POP PUSH1 0x20 DUP2 RETURNDATASIZE PUSH1 0x20 GT PUSH2 0xB6F JUMPI JUMPDEST DUP2 PUSH2 0xB5F PUSH1 0x20 SWAP4 DUP4 PUSH2 0x5CD JUMP JUMPDEST DUP2 ADD SUB SLT PUSH2 0x3D3 JUMPI MLOAD SWAP1 PUSH0 PUSH2 0xB18 JUMP JUMPDEST RETURNDATASIZE SWAP2 POP PUSH2 0xB52 JUMP JUMPDEST PUSH1 0x20 PUSH2 0xB9E SWAP2 PUSH1 0x40 MLOAD DUP1 SWAP4 DUP2 SWAP3 PUSH4 0x640EA9A3 PUSH1 0xE1 SHL DUP4 MSTORE DUP5 PUSH1 0x4 DUP5 ADD MSTORE PUSH1 0x24 DUP4 ADD SWAP1 PUSH2 0x747 JUMP JUMPDEST SUB DUP2 ADDRESS GAS STATICCALL PUSH0 SWAP2 DUP2 PUSH2 0xBD6 JUMPI JUMPDEST POP ISZERO PUSH2 0x943 JUMPI DUP1 ISZERO PUSH2 0x943 JUMPI SWAP3 PUSH2 0xBC5 PUSH2 0xBCF SWAP3 SWAP5 PUSH2 0xCEF JUMP JUMPDEST PUSH2 0xAA4 DUP3 DUP12 PUSH2 0x76B JUMP JUMPDEST SWAP2 PUSH0 PUSH2 0x943 JUMP JUMPDEST SWAP1 SWAP2 POP PUSH1 0x20 DUP2 RETURNDATASIZE PUSH1 0x20 GT PUSH2 0xC02 JUMPI JUMPDEST DUP2 PUSH2 0xBF2 PUSH1 0x20 SWAP4 DUP4 PUSH2 0x5CD JUMP JUMPDEST DUP2 ADD SUB SLT PUSH2 0x3D3 JUMPI MLOAD SWAP1 PUSH0 PUSH2 0xBAB JUMP JUMPDEST RETURNDATASIZE SWAP2 POP PUSH2 0xBE5 JUMP JUMPDEST PUSH1 0x20 PUSH2 0xC31 SWAP2 PUSH1 0x40 MLOAD DUP1 SWAP4 DUP2 SWAP3 PUSH4 0x640EA9A3 PUSH1 0xE1 SHL DUP4 MSTORE DUP5 PUSH1 0x4 DUP5 ADD MSTORE PUSH1 0x24 DUP4 ADD SWAP1 PUSH2 0x747 JUMP JUMPDEST SUB DUP2 ADDRESS GAS STATICCALL PUSH0 SWAP2 DUP2 PUSH2 0xC69 JUMPI JUMPDEST POP ISZERO PUSH2 0x936 JUMPI DUP1 ISZERO PUSH2 0x936 JUMPI PUSH2 0xC56 SWAP2 SWAP3 SWAP6 POP PUSH2 0xCEF JUMP JUMPDEST SWAP1 DUP10 MLOAD ISZERO PUSH2 0x77F JUMPI MSTORE PUSH1 0x1 SWAP3 PUSH0 DUP1 PUSH2 0x936 JUMP JUMPDEST SWAP1 SWAP2 POP PUSH1 0x20 DUP2 RETURNDATASIZE PUSH1 0x20 GT PUSH2 0xC95 JUMPI JUMPDEST DUP2 PUSH2 0xC85 PUSH1 0x20 SWAP4 DUP4 PUSH2 0x5CD JUMP JUMPDEST DUP2 ADD SUB SLT PUSH2 0x3D3 JUMPI MLOAD SWAP1 PUSH0 PUSH2 0xC3E JUMP JUMPDEST RETURNDATASIZE SWAP2 POP PUSH2 0xC78 JUMP JUMPDEST PUSH2 0xCC0 SWAP2 SWAP6 POP PUSH1 0x20 RETURNDATASIZE PUSH1 0x20 GT PUSH2 0xCC7 JUMPI JUMPDEST PUSH2 0xCB8 DUP2 DUP4 PUSH2 0x5CD JUMP JUMPDEST DUP2 ADD SWAP1 PUSH2 0x72E JUMP JUMPDEST SWAP4 PUSH0 PUSH2 0x90C JUMP JUMPDEST POP RETURNDATASIZE PUSH2 0xCAE JUMP JUMPDEST PUSH2 0xCE8 SWAP2 SWAP5 POP PUSH1 0x20 RETURNDATASIZE PUSH1 0x20 GT PUSH2 0xCC7 JUMPI PUSH2 0xCB8 DUP2 DUP4 PUSH2 0x5CD JUMP JUMPDEST SWAP3 PUSH0 PUSH2 0x8DA JUMP JUMPDEST PUSH8 0xDE0B6B3A7640000 DUP2 LT ISZERO PUSH2 0x9A6 JUMPI DUP1 ISZERO PUSH2 0x7CC JUMPI PUSH15 0xC097CE7BC90715B34B9F1000000000 DIV SWAP1 JUMP JUMPDEST PUSH1 0xFF PUSH1 0x11 NOT SWAP2 AND ADD SWAP1 PUSH1 0xFF DUP3 GT PUSH2 0x7A1 JUMPI JUMP JUMPDEST PUSH1 0xFF AND PUSH1 0x12 SUB SWAP1 PUSH1 0xFF DUP3 GT PUSH2 0x7A1 JUMPI JUMP JUMPDEST PUSH1 0xFF AND PUSH1 0x4D DUP2 GT PUSH2 0x7A1 JUMPI PUSH1 0xA EXP SWAP1 JUMP JUMPDEST DUP2 DUP2 MUL SWAP3 SWAP2 DUP2 ISZERO SWAP2 DUP5 DIV EQ OR ISZERO PUSH2 0x7A1 JUMPI JUMP JUMPDEST PUSH1 0xFF DUP3 AND PUSH1 0x12 DUP2 EQ PUSH2 0xDA4 JUMPI PUSH1 0x12 GT ISZERO PUSH2 0xD8F JUMPI PUSH2 0xD89 PUSH2 0xD84 PUSH2 0x9A6 SWAP4 PUSH2 0xD2C JUMP JUMPDEST PUSH2 0xD3D JUMP JUMPDEST SWAP1 PUSH2 0xD4E JUMP JUMPDEST PUSH2 0xD9E PUSH2 0xD84 PUSH2 0x9A6 SWAP4 PUSH2 0xD19 JUMP JUMPDEST SWAP1 PUSH2 0x7C2 JUMP JUMPDEST POP SWAP1 POP SWAP1 JUMP JUMPDEST DUP1 ISZERO DUP1 ISZERO PUSH2 0xE54 JUMPI JUMPDEST PUSH2 0xE4E JUMPI PUSH25 0x12725DD1D243ABA0E75FE645CC4873F9E65AFE688C928E1F21 DUP2 GT ISZERO PUSH2 0xE2A JUMPI PUSH2 0xDE2 DUP3 DUP3 PUSH2 0x7C2 JUMP JUMPDEST SWAP1 DUP3 ISZERO PUSH2 0x7CC JUMPI PUSH8 0xDE0B6B3A7640000 SWAP1 DUP2 DUP4 MUL SWAP3 DUP1 DUP5 DIV DUP4 EQ SWAP1 ISZERO OR ISZERO PUSH2 0x7A1 JUMPI DUP4 SWAP1 MOD DUP2 DUP2 MUL SWAP2 DUP2 DUP4 DIV EQ SWAP1 ISZERO OR ISZERO PUSH2 0x7A1 JUMPI PUSH2 0x9A6 SWAP3 PUSH2 0xE24 SWAP2 PUSH2 0x7C2 JUMP JUMPDEST SWAP1 PUSH2 0x7B5 JUMP JUMPDEST SWAP1 PUSH8 0xDE0B6B3A7640000 SWAP2 DUP3 DUP2 MUL SWAP3 DUP2 DUP5 DIV EQ SWAP1 ISZERO OR ISZERO PUSH2 0x7A1 JUMPI PUSH2 0x9A6 SWAP2 PUSH2 0x7C2 JUMP JUMPDEST POP POP PUSH0 SWAP1 JUMP JUMPDEST POP PUSH0 PUSH2 0xDB3 JUMP JUMPDEST SWAP1 PUSH0 DUP3 ISZERO DUP1 ISZERO PUSH2 0xEE0 JUMPI JUMPDEST PUSH2 0xED9 JUMPI DUP2 ISZERO PUSH2 0x7CC JUMPI DUP2 PUSH0 NOT DIV DUP4 GT ISZERO PUSH2 0xEC1 JUMPI DUP1 PUSH2 0xEAD JUMPI POP SWAP1 PUSH8 0xDE0B6B3A7640000 PUSH2 0xEA6 DUP4 DUP3 PUSH2 0xE9F PUSH2 0x9A6 SWAP7 DUP3 DUP8 DIV PUSH2 0xD4E JUMP JUMPDEST SWAP5 MOD PUSH2 0xD4E JUMP JUMPDEST DIV SWAP1 PUSH2 0x7B5 JUMP JUMPDEST PUSH4 0x4E487B71 PUSH1 0xE0 SHL DUP2 MSTORE PUSH1 0x12 PUSH1 0x4 MSTORE PUSH1 0x24 SWAP1 REVERT JUMPDEST POP PUSH2 0xED5 SWAP1 PUSH8 0xDE0B6B3A7640000 SWAP3 PUSH2 0xD4E JUMP JUMPDEST DIV SWAP1 JUMP JUMPDEST POP POP POP PUSH0 SWAP1 JUMP JUMPDEST POP DUP2 ISZERO PUSH2 0xE66 JUMP JUMPDEST DUP1 ISZERO DUP1 ISZERO PUSH2 0xF9C JUMPI JUMPDEST PUSH2 0xF97 JUMPI PUSH25 0x12725DD1D243ABA0E75FE645CC4873F9E65AFE688C928E1F21 DUP2 GT ISZERO PUSH2 0xF6E JUMPI PUSH9 0xF3F20B8DFA69D00000 DUP2 DIV PUSH8 0xDE0B6B3A7640000 SWAP2 DUP3 DUP3 MUL SWAP2 DUP1 DUP4 DIV DUP5 EQ SWAP1 ISZERO OR ISZERO PUSH2 0x7A1 JUMPI PUSH9 0xF3F20B8DFA69D00000 SWAP1 MOD DUP3 DUP2 MUL SWAP3 DUP2 DUP5 DIV EQ SWAP1 ISZERO OR ISZERO PUSH2 0x7A1 JUMPI PUSH9 0xF3F20B8DFA69D00000 PUSH2 0x9A6 SWAP3 DIV SWAP1 PUSH2 0x7B5 JUMP JUMPDEST PUSH8 0xDE0B6B3A7640000 SWAP1 DUP2 DUP2 MUL SWAP2 DUP2 DUP4 DIV EQ SWAP1 ISZERO OR ISZERO PUSH2 0x7A1 JUMPI PUSH9 0xF3F20B8DFA69D00000 SWAP1 DIV SWAP1 JUMP JUMPDEST POP PUSH0 SWAP1 JUMP JUMPDEST POP PUSH0 PUSH2 0xEF1 JUMP JUMPDEST DUP1 ISZERO DUP1 ISZERO PUSH2 0x104F JUMPI JUMPDEST PUSH2 0xF97 JUMPI PUSH24 0x10CA672562512A36FB1B7157E14F5FC7799C5333B326F65 DUP2 GT ISZERO PUSH2 0x1026 JUMPI PUSH8 0xDE0B6B3A7640000 DUP2 DIV PUSH9 0xF3F20B8DFA69D00000 SWAP2 DUP3 DUP3 MUL SWAP2 DUP1 DUP4 DIV DUP5 EQ SWAP1 ISZERO OR ISZERO PUSH2 0x7A1 JUMPI PUSH8 0xDE0B6B3A7640000 SWAP1 MOD DUP3 DUP2 MUL SWAP3 DUP2 DUP5 DIV EQ SWAP1 ISZERO OR ISZERO PUSH2 0x7A1 JUMPI PUSH8 0xDE0B6B3A7640000 PUSH2 0x9A6 SWAP3 DIV SWAP1 PUSH2 0x7B5 JUMP JUMPDEST PUSH9 0xF3F20B8DFA69D00000 SWAP1 DUP2 DUP2 MUL SWAP2 DUP2 DUP4 DIV EQ SWAP1 ISZERO OR ISZERO PUSH2 0x7A1 JUMPI PUSH8 0xDE0B6B3A7640000 SWAP1 DIV SWAP1 JUMP JUMPDEST POP PUSH0 PUSH2 0xFAC JUMP JUMPDEST PUSH1 0xFF DUP3 AND PUSH1 0x12 DUP2 EQ PUSH2 0xDA4 JUMPI PUSH1 0x12 GT ISZERO PUSH2 0x1079 JUMPI PUSH2 0xD9E PUSH2 0xD84 PUSH2 0x9A6 SWAP4 PUSH2 0xD2C JUMP JUMPDEST PUSH2 0xD89 PUSH2 0xD84 PUSH2 0x9A6 SWAP4 PUSH2 0xD19 JUMP INVALID LOG2 PUSH5 0x6970667358 0x22 SLT KECCAK256 0xD3 CALL LOG3 CREATE 0x4B 0x24 0xF6 TLOAD PUSH12 0x917019AC711EC06529084F82 0xA6 BLOCKHASH 0xDD DUP7 ADDRESS EQ MCOPY PUSH6 0x7C076864736F PUSH13 0x634300081E0033000000000000 "},"methodIdentifiers":{"_decodePrice(bytes)":"c81d5346","quote((address,address,address,uint256,uint128,uint128,uint16,bool),bytes)":"5e3344d0","quoteBatch((address,address,address,uint256[],uint128[],uint128[],uint16[],bool),bytes)":"db90d100"}}}}}