{"contracts/PoolManager.sol":{"PoolManager":{"abi":[{"inputs":[{"internalType":"address","name":"_defaultAlpha","type":"address"},{"internalType":"address","name":"_defaultBeta","type":"address"}],"stateMutability":"nonpayable","type":"constructor"},{"inputs":[{"internalType":"uint256","name":"required","type":"uint256"},{"internalType":"uint256","name":"available","type":"uint256"}],"name":"PoolManager__InsufficientAsset0","type":"error"},{"inputs":[{"internalType":"uint256","name":"required","type":"uint256"},{"internalType":"uint256","name":"available","type":"uint256"}],"name":"PoolManager__InsufficientAsset1","type":"error"},{"inputs":[],"name":"PoolManager__InsufficientLiquidityMinted","type":"error"},{"inputs":[{"internalType":"uint256","name":"minOut","type":"uint256"},{"internalType":"uint256","name":"actual","type":"uint256"}],"name":"PoolManager__InsufficientOutput","type":"error"},{"inputs":[{"internalType":"uint256","name":"amount0","type":"uint256"},{"internalType":"uint256","name":"amount1","type":"uint256"}],"name":"PoolManager__InsufficientWithdrawal","type":"error"},{"inputs":[],"name":"PoolManager__InvalidQuote","type":"error"},{"inputs":[{"internalType":"uint256","name":"poolID","type":"uint256"}],"name":"PoolManager__PoolAlreadyExists","type":"error"},{"anonymous":false,"inputs":[{"indexed":true,"internalType":"address","name":"owner","type":"address"},{"indexed":true,"internalType":"address","name":"spender","type":"address"},{"indexed":true,"internalType":"uint256","name":"id","type":"uint256"},{"indexed":false,"internalType":"uint256","name":"amount","type":"uint256"}],"name":"Approval","type":"event"},{"anonymous":false,"inputs":[{"indexed":true,"internalType":"address","name":"provider","type":"address"},{"indexed":false,"internalType":"bool","name":"hit","type":"bool"}],"name":"MarketDataCache","type":"event"},{"anonymous":false,"inputs":[{"indexed":true,"internalType":"address","name":"owner","type":"address"},{"indexed":true,"internalType":"address","name":"operator","type":"address"},{"indexed":false,"internalType":"bool","name":"approved","type":"bool"}],"name":"OperatorSet","type":"event"},{"anonymous":false,"inputs":[{"indexed":true,"internalType":"uint256","name":"poolID","type":"uint256"},{"indexed":false,"internalType":"address","name":"asset0","type":"address"},{"indexed":false,"internalType":"address","name":"asset1","type":"address"},{"indexed":false,"internalType":"address","name":"quoter","type":"address"},{"indexed":false,"internalType":"bytes3","name":"markings","type":"bytes3"}],"name":"PoolCreated","type":"event"},{"anonymous":false,"inputs":[{"indexed":false,"internalType":"address","name":"caller","type":"address"},{"indexed":true,"internalType":"address","name":"from","type":"address"},{"indexed":true,"internalType":"address","name":"to","type":"address"},{"indexed":true,"internalType":"uint256","name":"id","type":"uint256"},{"indexed":false,"internalType":"uint256","name":"amount","type":"uint256"}],"name":"Transfer","type":"event"},{"inputs":[{"internalType":"uint8","name":"pointer","type":"uint8"},{"internalType":"address","name":"alphaAddress","type":"address"}],"name":"addAlphaMarketAddress","outputs":[],"stateMutability":"nonpayable","type":"function"},{"inputs":[{"internalType":"uint8","name":"pointer","type":"uint8"},{"internalType":"address","name":"betaAddress","type":"address"}],"name":"addBetaMarketAddress","outputs":[],"stateMutability":"nonpayable","type":"function"},{"inputs":[{"internalType":"address","name":"asset0","type":"address"},{"internalType":"address","name":"asset1","type":"address"},{"internalType":"address","name":"quoter","type":"address"},{"internalType":"bytes3","name":"markings","type":"bytes3"},{"internalType":"uint256","name":"amount0","type":"uint256"},{"internalType":"uint256","name":"amount1","type":"uint256"}],"name":"addLiquidity","outputs":[{"internalType":"uint256","name":"liquidity","type":"uint256"}],"stateMutability":"payable","type":"function"},{"inputs":[{"internalType":"address","name":"owner","type":"address"},{"internalType":"address","name":"spender","type":"address"},{"internalType":"uint256","name":"id","type":"uint256"}],"name":"allowance","outputs":[{"internalType":"uint256","name":"","type":"uint256"}],"stateMutability":"view","type":"function"},{"inputs":[{"internalType":"address","name":"spender","type":"address"},{"internalType":"uint256","name":"id","type":"uint256"},{"internalType":"uint256","name":"amount","type":"uint256"}],"name":"approve","outputs":[{"internalType":"bool","name":"","type":"bool"}],"stateMutability":"nonpayable","type":"function"},{"inputs":[{"internalType":"address","name":"owner","type":"address"},{"internalType":"uint256","name":"id","type":"uint256"}],"name":"balanceOf","outputs":[{"internalType":"uint256","name":"","type":"uint256"}],"stateMutability":"view","type":"function"},{"inputs":[{"components":[{"internalType":"address","name":"asset0","type":"address"},{"internalType":"address","name":"asset1","type":"address"},{"internalType":"address","name":"quoter","type":"address"},{"internalType":"bytes3[]","name":"markings","type":"bytes3[]"},{"internalType":"uint256[]","name":"amounts","type":"uint256[]"},{"internalType":"bool","name":"zeroForOne","type":"bool"}],"internalType":"struct Hop[]","name":"hops","type":"tuple[]"},{"internalType":"uint256","name":"amountIn","type":"uint256"},{"internalType":"uint256","name":"minAmountOut","type":"uint256"}],"name":"batchSwap","outputs":[{"internalType":"uint256","name":"amountOut","type":"uint256"}],"stateMutability":"payable","type":"function"},{"inputs":[{"internalType":"address","name":"asset0","type":"address"},{"internalType":"address","name":"asset1","type":"address"},{"internalType":"address","name":"quoter","type":"address"},{"internalType":"bytes3","name":"markings","type":"bytes3"}],"name":"createPool","outputs":[{"internalType":"uint256","name":"poolID","type":"uint256"}],"stateMutability":"nonpayable","type":"function"},{"inputs":[],"name":"defaultAlpha","outputs":[{"internalType":"address","name":"","type":"address"}],"stateMutability":"view","type":"function"},{"inputs":[],"name":"defaultBeta","outputs":[{"internalType":"address","name":"","type":"address"}],"stateMutability":"view","type":"function"},{"inputs":[{"internalType":"address","name":"callback","type":"address"},{"internalType":"bytes","name":"data","type":"bytes"},{"internalType":"address[]","name":"tokens","type":"address[]"}],"name":"flashSession","outputs":[],"stateMutability":"payable","type":"function"},{"inputs":[{"internalType":"uint8","name":"pointer","type":"uint8"}],"name":"getAlphaMarketAddress","outputs":[{"internalType":"address","name":"alphaAddress","type":"address"}],"stateMutability":"view","type":"function"},{"inputs":[{"internalType":"uint8","name":"pointer","type":"uint8"}],"name":"getBetaMarketAddress","outputs":[{"internalType":"address","name":"betaAddress","type":"address"}],"stateMutability":"view","type":"function"},{"inputs":[{"internalType":"uint256","name":"poolId","type":"uint256"}],"name":"getInventory","outputs":[{"internalType":"uint128","name":"asset0","type":"uint128"},{"internalType":"uint128","name":"asset1","type":"uint128"}],"stateMutability":"view","type":"function"},{"inputs":[{"internalType":"uint256","name":"poolID","type":"uint256"}],"name":"getPoolInfo","outputs":[{"internalType":"address","name":"asset0","type":"address"},{"internalType":"address","name":"asset1","type":"address"},{"internalType":"address","name":"quoter","type":"address"},{"internalType":"bytes3","name":"markings","type":"bytes3"}],"stateMutability":"view","type":"function"},{"inputs":[{"components":[{"internalType":"address","name":"asset0","type":"address"},{"internalType":"address","name":"asset1","type":"address"},{"internalType":"address","name":"quoter","type":"address"},{"internalType":"uint256[]","name":"amount","type":"uint256[]"},{"internalType":"bool","name":"zeroForOne","type":"bool"},{"internalType":"bytes3[]","name":"marking","type":"bytes3[]"}],"internalType":"struct SwapParams","name":"p","type":"tuple"},{"internalType":"uint128","name":"asset0Balance","type":"uint128"},{"internalType":"uint128","name":"asset1Balance","type":"uint128"}],"name":"getQuote","outputs":[{"internalType":"uint256","name":"quote","type":"uint256"},{"internalType":"uint256","name":"poolID","type":"uint256"}],"stateMutability":"nonpayable","type":"function"},{"inputs":[{"components":[{"internalType":"address","name":"asset0","type":"address"},{"internalType":"address","name":"asset1","type":"address"},{"internalType":"address","name":"quoter","type":"address"},{"internalType":"uint256[]","name":"amount","type":"uint256[]"},{"internalType":"bool","name":"zeroForOne","type":"bool"},{"internalType":"bytes3[]","name":"marking","type":"bytes3[]"}],"internalType":"struct SwapParams","name":"p","type":"tuple"},{"internalType":"uint128[]","name":"asset0Balances","type":"uint128[]"},{"internalType":"uint128[]","name":"asset1Balances","type":"uint128[]"}],"name":"getQuoteBatch","outputs":[{"internalType":"uint256[]","name":"quote","type":"uint256[]"},{"internalType":"uint256[]","name":"poolID","type":"uint256[]"}],"stateMutability":"nonpayable","type":"function"},{"inputs":[{"internalType":"address","name":"owner","type":"address"},{"internalType":"address","name":"spender","type":"address"}],"name":"isOperator","outputs":[{"internalType":"bool","name":"","type":"bool"}],"stateMutability":"view","type":"function"},{"inputs":[{"internalType":"uint8","name":"pointer","type":"uint8"}],"name":"removeAlphaMarketAddress","outputs":[],"stateMutability":"nonpayable","type":"function"},{"inputs":[{"internalType":"uint8","name":"pointer","type":"uint8"}],"name":"removeBetaMarketAddress","outputs":[],"stateMutability":"nonpayable","type":"function"},{"inputs":[{"internalType":"address","name":"asset0","type":"address"},{"internalType":"address","name":"asset1","type":"address"},{"internalType":"address","name":"quoter","type":"address"},{"internalType":"bytes3","name":"markings","type":"bytes3"},{"internalType":"uint256","name":"liquidity","type":"uint256"}],"name":"removeLiquidity","outputs":[{"internalType":"uint256","name":"amount0","type":"uint256"},{"internalType":"uint256","name":"amount1","type":"uint256"}],"stateMutability":"nonpayable","type":"function"},{"inputs":[{"components":[{"internalType":"address","name":"asset0","type":"address"},{"internalType":"address","name":"asset1","type":"address"},{"internalType":"address","name":"quoter","type":"address"},{"internalType":"uint256[]","name":"amount","type":"uint256[]"},{"internalType":"bool","name":"zeroForOne","type":"bool"},{"internalType":"bytes3[]","name":"marking","type":"bytes3[]"}],"internalType":"struct SwapParams","name":"p","type":"tuple"},{"internalType":"uint128","name":"asset0Balance","type":"uint128"},{"internalType":"uint128","name":"asset1Balance","type":"uint128"}],"name":"routerGetQuote","outputs":[{"internalType":"uint256","name":"quote","type":"uint256"},{"internalType":"uint256","name":"poolID","type":"uint256"}],"stateMutability":"nonpayable","type":"function"},{"inputs":[{"components":[{"internalType":"address","name":"asset0","type":"address"},{"internalType":"address","name":"asset1","type":"address"},{"internalType":"address","name":"quoter","type":"address"},{"internalType":"uint256[]","name":"amount","type":"uint256[]"},{"internalType":"bool","name":"zeroForOne","type":"bool"},{"internalType":"bytes3[]","name":"marking","type":"bytes3[]"}],"internalType":"struct SwapParams","name":"p","type":"tuple"},{"internalType":"uint128[]","name":"asset0Balances","type":"uint128[]"},{"internalType":"uint128[]","name":"asset1Balances","type":"uint128[]"}],"name":"routerGetQuoteBatch","outputs":[{"internalType":"uint256[]","name":"quote","type":"uint256[]"},{"internalType":"uint256[]","name":"poolID","type":"uint256[]"}],"stateMutability":"nonpayable","type":"function"},{"inputs":[{"internalType":"address","name":"operator","type":"address"},{"internalType":"bool","name":"approved","type":"bool"}],"name":"setOperator","outputs":[{"internalType":"bool","name":"","type":"bool"}],"stateMutability":"nonpayable","type":"function"},{"inputs":[{"internalType":"bytes4","name":"interfaceId","type":"bytes4"}],"name":"supportsInterface","outputs":[{"internalType":"bool","name":"","type":"bool"}],"stateMutability":"view","type":"function"},{"inputs":[{"internalType":"address","name":"asset0","type":"address"},{"internalType":"address","name":"asset1","type":"address"},{"internalType":"address","name":"quoter","type":"address"},{"internalType":"bytes3","name":"markings","type":"bytes3"},{"internalType":"uint256","name":"amountIn","type":"uint256"},{"internalType":"bool","name":"zeroForOne","type":"bool"},{"internalType":"uint256","name":"minAmountOut","type":"uint256"}],"name":"swap","outputs":[{"internalType":"uint256","name":"amountOut","type":"uint256"}],"stateMutability":"payable","type":"function"},{"inputs":[{"internalType":"uint256","name":"poolID","type":"uint256"}],"name":"totalLiquidity","outputs":[{"internalType":"uint256","name":"","type":"uint256"}],"stateMutability":"view","type":"function"},{"inputs":[{"internalType":"address","name":"receiver","type":"address"},{"internalType":"uint256","name":"id","type":"uint256"},{"internalType":"uint256","name":"amount","type":"uint256"}],"name":"transfer","outputs":[{"internalType":"bool","name":"","type":"bool"}],"stateMutability":"nonpayable","type":"function"},{"inputs":[{"internalType":"address","name":"sender","type":"address"},{"internalType":"address","name":"receiver","type":"address"},{"internalType":"uint256","name":"id","type":"uint256"},{"internalType":"uint256","name":"amount","type":"uint256"}],"name":"transferFrom","outputs":[{"internalType":"bool","name":"","type":"bool"}],"stateMutability":"nonpayable","type":"function"}],"evm":{"bytecode":{"linkReferences":{},"object":"60c0346100b257601f6142aa38819003918201601f19168301916001600160401b038311848410176100b65780849260409485528339810103126100b257610052602061004b836100ca565b92016100ca565b9060805260a0526040516141cb90816100df823960805181818161108d01528181611fcc015281816121d20152818161275001526128e9015260a051818181610711015281816120110152818161228e01528181612790015261299e0152f35b5f80fd5b634e487b7160e01b5f52604160045260245ffd5b51906001600160a01b03821682036100b25756fe60806040526004361015610011575f80fd5b5f3560e01c8062fdd58e146101d957806301ffc9a7146101d457806304f71ef614610170578063095bcdb6146101cf57806319920a5f146101ca5780632f380b35146101c5578063426a8493146101c0578063460c6df8146101bb578063558a7297146101b65780635670f55a146101b1578063598af9e7146101ac5780635b298d32146101a75780635dfb78af146101a257806360a80dbb1461018957806361408f261461019d5780637dc27c951461019857806383e66c2e146101935780638e832e081461018e5780638f155291146101895780639d2ec6e414610184578063a1a44dad1461017f578063b5e60c3c1461017a578063b6363cf214610175578063c279171d14610170578063cb1f2f381461016b578063d2615fc814610166578063d92bc84c14610161578063e513315b1461015c5763fe99049a14610157575f80fd5b61189f565b61162e565b6113de565b611398565b611149565b610605565b6110e6565b6110bc565b611078565b610efc565b610da4565b610eb7565b610e71565b610e12565b610dcd565b610ccb565b610c4b565b610bde565b6109cc565b610930565b6108cf565b61083e565b610740565b6106fc565b610653565b610249565b610200565b6001600160a01b038116036101ef57565b5f80fd5b35906101fe826101de565b565b346101ef5760403660031901126101ef5760043561021d816101de565b6024359060018060a01b03165f52600160205260405f20905f52602052602060405f2054604051908152f35b346101ef5760203660031901126101ef5760043563ffffffff60e01b81168091036101ef576020906301ffc9a760e01b811490811561028e575b506040519015158152f35b630f632fb360e01b1490505f610283565b634e487b7160e01b5f52604160045260245ffd5b608081019081106001600160401b038211176102ce57604052565b61029f565b90601f801991011681019081106001600160401b038211176102ce57604052565b604051906101fe60c0836102d3565b604051906101fe6080836102d3565b604051906101fe610100836102d3565b6001600160401b0381116102ce5760051b60200190565b92919061034581610322565b9361035360405195866102d3565b602085838152019160051b81019283116101ef57905b82821061037557505050565b8135815260209182019101610369565b9080601f830112156101ef578160206103a093359101610339565b90565b801515036101ef57565b35906101fe826103a3565b6001600160e81b03198116036101ef57565b9291906103d681610322565b936103e460405195866102d3565b602085838152019160051b81019283116101ef57905b82821061040657505050565b602080918335610415816103b8565b8152019101906103fa565b9080601f830112156101ef578160206103a0933591016103ca565b91909160c0818403126101ef576104506102f4565b9261045a826101f3565b8452610468602083016101f3565b6020850152610479604083016101f3565b604085015260608201356001600160401b0381116101ef578161049d918401610385565b60608501526104ae608083016103ad565b608085015260a08201356001600160401b0381116101ef576104d09201610420565b60a0830152565b9080601f830112156101ef578135906104ef82610322565b926104fd60405194856102d3565b82845260208085019360051b8201019182116101ef57602001915b8183106105255750505090565b82356001600160801b03811681036101ef57815260209283019201610518565b60606003198201126101ef576004356001600160401b0381116101ef578161056f9160040161043b565b916024356001600160401b0381116101ef578261058e916004016104d7565b91604435906001600160401b0382116101ef576103a0916004016104d7565b90602080835192838152019201905f5b8181106105ca5750505090565b82518452602093840193909201916001016105bd565b90916105f76103a0936040845260408401906105ad565b9160208184039101526105ad565b346101ef5761061c61061636610545565b91611da2565b9061062c604051928392836105e0565b0390f35b60609060031901126101ef57600435610648816101de565b906024359060443590565b346101ef5761066136610630565b9091335f52600160205260405f20835f5260205260405f208054908382039182116106ed575560018060a01b031690815f5260016020526106ad8360405f20905f5260205260405f2090565b6106b8828254612392565b9055604080513380825260208201939093525f5160206141765f395f51905f5291819081015b0390a460405160018152602090f35b612363565b5f9103126101ef57565b346101ef575f3660031901126101ef576040517f00000000000000000000000000000000000000000000000000000000000000006001600160a01b03168152602090f35b346101ef5760203660031901126101ef576004355f6060604051610763816102b3565b82815282602082015282604082015201525f52600760205260405f206040519061078c826102b3565b80546001600160a01b0390811680845260018301548216602085018190526002909301549182166040850181905260489290921b6001600160e81b031916606094909401849052909261062c91610803906107f5906107e89081565b956001600160a01b031690565b916001600160e81b03191690565b604080516001600160a01b039586168152958516602087015291909316908401526001600160e81b0319909116606083015281906080820190565b346101ef5761084c36610630565b9091335f5260026020526108738160405f209060018060a01b03165f5260205260405f2090565b835f526020528160405f205560405191825260018060a01b0316907fb3fd5071835887567a0671151121894ddccc2842f1d10bedad13e0d17cace9a760203392a4602060405160018152f35b6004359060ff821682036101ef57565b346101ef5760403660031901126101ef5761092e6108eb6108bf565b60ff602435916108fa836101de565b166109076010821061239f565b5f52600360205260405f209060018060a01b03166001600160601b0360a01b825416179055565b005b346101ef5760403660031901126101ef5760043561094d816101de565b6024359061095a826103a3565b335f908152602081815260408083206001600160a01b038516845290915290209115159160ff1981541660ff841617905560405191825260018060a01b0316907fceb576d9f15e4e200fdb5096d64d5dfd667e16def20c1eefd14256d8e3faa26760203392a360405160018152602090f35b346101ef5760803660031901126101ef576004356109e9816101de565b6024356109f5816101de565b60443591610a02836101de565b60643591610a0f836103b8565b610a1f610a1a612f46565b612f89565b610a2b83858385612cd4565b9260018060a01b03610a586002610a4a875f52600760205260405f2090565b01546001600160a01b031690565b16610bca5761062c9484937f68df9a4eb7aacbe8f43763bfbc9f7ca135a5397190ea1cce2558db52dc2f36929391929091906001600160a01b038083169084161015610bbf57610ba291935b610b66610aaf610303565b6001600160a01b03861681526001600160a01b03871660208201526001600160a01b03831660408201526001600160e81b031984166060820152610afb895f52600760205260405f2090565b815181546001600160a01b03199081166001600160a01b039283161783556020840151600184018054909216908316179055604083015160029092018054606090940151929091166001600160b81b03199093169290921760489190911c62ffffff60a01b16179055565b604080516001600160a01b03958616815295851660208701529316928401929092526001600160e81b0319909116606083015281906080820190565b0390a25f610bae612f46565b5d6040519081529081906020820190565b610ba2919293610aa4565b63e1ecc13360e01b5f52600484905260245ffd5b346101ef5760603660031901126101ef57600435610bfb816101de565b610c36602435610c0a816101de565b6044359260018060a01b03165f52600260205260405f209060018060a01b03165f5260205260405f2090565b905f52602052602060405f2054604051908152f35b346101ef5760203660031901126101ef5760406001600160801b03610c8a6004355f52600660205260405f2054906001600160801b0382169160801c90565b835191831682529091166020820152f35b9181601f840112156101ef578235916001600160401b0383116101ef576020808501948460051b0101116101ef57565b60603660031901126101ef57600435610ce3816101de565b6024356001600160401b0381116101ef57366023820112156101ef578060040135906001600160401b0382116101ef5736602483830101116101ef57604435916001600160401b0383116101ef5761092e93610d456024943690600401610c9b565b94909301906123eb565b60606003198201126101ef57600435906001600160401b0382116101ef57610d799160040161043b565b906024356001600160801b03811681036101ef57906044356001600160801b03811681036101ef5790565b346101ef57610dbb610db536610d4f565b916125f6565b60408051928352602083019190915290f35b346101ef5760203660031901126101ef5760ff610de86108bf565b16610df56010821061239f565b5f90815260046020526040902080546001600160a01b0319169055005b346101ef5760403660031901126101ef5761092e610e2e6108bf565b60ff60243591610e3d836101de565b16610e4a6010821061239f565b5f52600460205260405f209060018060a01b03166001600160601b0360a01b825416179055565b346101ef5760203660031901126101ef5760ff610e8c6108bf565b16610e996010821061239f565b5f526004602052602060018060a01b0360405f205416604051908152f35b346101ef5760203660031901126101ef5760ff610ed26108bf565b16610edf6010821061239f565b5f90815260036020526040902080546001600160a01b0319169055005b60603660031901126101ef576004356001600160401b0381116101ef57610f27903690600401610c9b565b60443591602435610f39610a1a612f46565b610f448315156130cd565b915f905f925f915b808310610fb05750610f6a9150610f659050333061355b565b5c1590565b610f9d575b5050818110610f855761062c905f610bae612f46565b63d438755d60e01b5f5260049190915260245260445ffd5b610fa991349133613293565b5f80610f6f565b909194610fbe868385613103565b861580610fca85612377565b891491611043575b81611002575b9160019391610ff393805f14610ffc57345b30943394613846565b95019190610f4c565b5f610fea565b9650918160019361101860a0610ff39501613125565b15611035576110296020830161312f565b98919350919350610fd8565b61103e8261312f565b611029565b81965061105260a08401613125565b15611067576110608361312f565b9650610fd2565b6110736020840161312f565b611060565b346101ef575f3660031901126101ef576040517f00000000000000000000000000000000000000000000000000000000000000006001600160a01b03168152602090f35b346101ef5760203660031901126101ef576004355f526005602052602060405f2054604051908152f35b346101ef5760403660031901126101ef57602060ff61113d60043561110a816101de565b60243590611117826101de565b60018060a01b03165f525f845260405f209060018060a01b03165f5260205260405f2090565b54166040519015158152f35b346101ef5760a03660031901126101ef57600435611166816101de565b6001600160801b0360243561117a816101de565b60443592611187846101de565b6111b7606435611196816103b8565b608435956111a5610a1a612f46565b6111b0871515612a38565b8484612cd4565b61123f61122d8561122561120c6111e6865f52600660205260405f2054906001600160801b0382169160801c90565b99906112056111fd895f52600560205260405f2090565b541515612a84565b168a612b0f565b61121e865f52600560205260405f2090565b5490612b22565b961687612b0f565b61121e835f52600560205260405f2090565b94841580611390575b61137757908161125c6112ab938333613139565b611279611271835f52600560205260405f2090565b918254612385565b90556112906001600160801b038616600f0b612b40565b6112a56001600160801b038816600f0b612b40565b916131b8565b6001600160a01b0382811690821610906112ec90821561136b576112e5859487925b85156113645780955b1561135c5750945b843361320e565b833361320e565b6112f9610f65333061355b565b61131b575b50505f611309612f46565b5d604080519182526020820192909252f35b61134f6113559261134661132d612b60565b9361133785611ab5565b6001600160a01b039091169052565b61133783611ac7565b33612f95565b5f806112fe565b9050946112de565b81956112d6565b6112e5869486926112cd565b63d5de620560e01b5f526004859052602486905260445ffd5b508515611248565b346101ef5760203660031901126101ef5760ff6113b36108bf565b166113c06010821061239f565b5f526003602052602060018060a01b0360405f205416604051908152f35b60e03660031901126101ef576004356113f6816101de565b60243590611403826101de565b60443590611410826101de565b60643561141c816103b8565b6084359160a4359161142d836103a3565b60c435611438612f46565b61144190612f89565b61144d82878986612cd4565b9187611471845f52600660205260405f2054906001600160801b0382169160801c90565b989080938a928a611480611a4d565b611488611a4d565b926114916102f4565b6001600160a01b038d168152976001600160a01b031660208901526001600160a01b03166040880152606087019081528b1515608088015260a08701928352516114da90611ab5565b52516114e590611ab5565b6001600160e81b031990911690526114fc926125f6565b5096871561161f5787869161151093613221565b808610611608575061062c95611589926115829261156d906001600160a01b03808516908416101561160157865b80156115e6576001600160801b038916600f0b905b156115d3576112a56001600160801b038b16600f0b612b40565b84156115cc5780945b156115c4575093612b82565b823361320e565b61159483833361320e565b6115a1610f65333061355b565b6115b1575b50505f610bae612f46565b6115bd91349133613293565b5f806115a6565b905093612b82565b8194611576565b6001600160801b038916600f0b916131b8565b6115fb6001600160801b038b16600f0b612b40565b90611553565b861561153e565b63d438755d60e01b5f52600452602485905260445ffd5b6314033f2160e11b5f5260045ffd5b60c03660031901126101ef57600435611646816101de565b602435611652816101de565b6044359161165f836101de565b6064359161166c836103b8565b6084359360a4359061167f610a1a612f46565b61168b85828587612cd4565b956001600160a01b03848116908616109485156118995793945b156118935791945b5f878152600660205260409020546001600160801b0381169060801c9190926116de895f52600560205260405f2090565b546117c7575050826001600160801b038061172c8a9561062c9b6117629661177b991515806117be575b61171190612b92565b6117238d61171e89612ac7565b612b22565b925b8d88613401565b9861174061173985612b82565b893361320e565b61175361174c82612b82565b8a3361320e565b16600f0b9116600f0b836131b8565b61176d8582336134ce565b5f52600560205260405f2090565b611786848254612392565b9055611795610f65333061355b565b6117a45750505f610bae612f46565b6117b66115bd9261134661132d612b60565b34903361302a565b508c1515611708565b838661186761186c946118578b670de0b6b3a7640000999e996118508a986118376117f0611a4d565b916118276117fc611a4d565b966118176118086102f4565b6001600160a01b03909d168d52565b6001600160a01b031660208c0152565b6001600160a01b031660408a0152565b606088018190525f608089015260a08801938452611ab5565b5251611ab5565b6001600160e81b03199091169052565b6125f6565b5092831561161f576001600160801b038061172c61062c9a866117629661177b9992611725565b946116ad565b946116a5565b346101ef5760803660031901126101ef576004356118bc816101de565b6024356118c8816101de565b604435915f5160206141765f395f51905f526106de606435936001600160a01b0384169361192a90879061191d903388141580611a19575b611989576001600160a01b03165f90815260016020526040902090565b905f5260205260405f2090565b611935868254612385565b90556001600160a01b0381165f90815260016020526040902061195990879061191d565b611964868254612392565b90556040805133815260208101969096526001600160a01b0390911694918291820190565b6119c08361191d336119ab8560018060a01b03165f52600260205260405f2090565b9060018060a01b03165f5260205260405f2090565b5489600182016119e6575b50506001600160a01b03165f90815260016020526040902090565b6119ef91612385565b611a118461191d336119ab8660018060a01b03165f52600260205260405f2090565b555f896119cb565b50611a48611a44611a3d336119ab8560018060a01b03165f525f60205260405f2090565b5460ff1690565b1590565b611900565b60408051909190611a5e83826102d3565b6001815291601f1901366020840137565b90611a7982610322565b611a8660405191826102d3565b8281528092611a97601f1991610322565b0190602036910137565b634e487b7160e01b5f52603260045260245ffd5b805115611ac25760200190565b611aa1565b805160011015611ac25760400190565b8051821015611ac25760209160051b010190565b15611af257565b60405162461bcd60e51b8152602060048201526014602482015273426574612061646472657373206973207a65726f60601b6044820152606490fd5b9080601f830112156101ef578151611b4581610322565b92611b5360405194856102d3565b81845260208085019260051b8201019283116101ef57602001905b828210611b7b5750505090565b8151815260209182019101611b6e565b906020828203126101ef5781516001600160401b0381116101ef576103a09201611b2e565b90602080835192838152019201905f5b818110611bcd5750505090565b82516001600160801b0316845260209384019390920191600101611bc0565b90602080835192838152019201905f5b818110611c095750505090565b825161ffff16845260209384019390920191600101611bfc565b80516001600160a01b03168252906103a0906020838101516001600160a01b0316908201526040838101516001600160a01b03169082015260e080611cb8611ca6611c94611c82606089015161010060608901526101008801906105ad565b60808901518782036080890152611bb0565b60a088015186820360a0880152611bb0565b60c087015185820360c0870152611bec565b9401511515910152565b805180835260209291819084018484015e5f828201840152601f01601f1916010190565b9091611cfd6103a093604084526040840190611c23565b916020818403910152611cc2565b6040513d5f823e3d90fd5b15611d1d57565b60405162461bcd60e51b8152602060048201526015602482015274416c7068612061646472657373206973207a65726f60581b6044820152606490fd5b9060206103a0928181520190611c23565b91611d9490611d866103a09593606086526060860190611c23565b908482036020860152611cc2565b916040818403910152611cc2565b90929160a0820192611db5845151611a6f565b91611dc1855151611a6f565b91611dcd865151611a6f565b96611df1611dec611dde8951611ab5565b516001600160e81b03191690565b612c24565b925f5b88518051821015611e745790611e6e8b611e6583611e5060c0611e5c8f8f611e5686611e50611e29611dde60019f8490611ad7565b85516020870151604090970151919687926001600160a01b03908116929181169116612cd4565b92611ad7565b52612c24565b015161ffff1690565b9061ffff169052565b01611df4565b505093919650939491968251611e8f9060018060a01b031690565b6020840180519196909490916001600160a01b03166040820180519094906001600160a01b03169760608401519460808501958651611ecd90151590565b94611ed6610312565b6001600160a01b03909d168d526001600160a01b031660208d01526001600160a01b03909a1660408c019081529960608c015260808b015260a08a015260c0890152151560e0880152516001600160a01b031693516001600160a01b031691516001600160a01b03169051151591611f4c610312565b6001600160a01b0390951685526001600160a01b031660208501526001600160a01b031660408401525f606084018190526080840181905260a0840181905260c0840152151560e0830152865115158080612356575b15612145575050945f92918361207f61209d969798611fc46040860151151590565b831461211a577f0000000000000000000000000000000000000000000000000000000000000000945b81611ffb6060830151151590565b85146120d65761207991506120736120676120677f0000000000000000000000000000000000000000000000000000000000000000985b6120466001600160a01b038c161515611d16565b61205a6001600160a01b038b161515611aeb565b516001600160a01b031690565b6001600160a01b031690565b96612dbd565b93612dbd565b60405163014b201760e01b8152968795869485939160048501611d6b565b03925af19081156120d1575f916120b2575091565b6120ce91503d805f833e6120c681836102d3565b810190611b8b565b91565b611d0b565b6120736120676120676121146121076120f660a061207998015160ff1690565b60ff165f52600460205260405f2090565b546001600160a01b031690565b98612032565b61213f61210761212e608088015160ff1690565b60ff165f52600360205260405f2090565b94611fed565b9096908015908180612340575b1561219857505050505f92939450829161217b61206761206761209d945160018060a01b031690565b9060405194858094819363145ecc6360e21b835260048301611d5a565b8061232a575b1561224d575061209d949596505f939291816121c0604061220d940151151590565b861461222a57506122076120676120677f0000000000000000000000000000000000000000000000000000000000000000955b61205a6001600160a01b0388161515611d16565b92612dbd565b918360405180968195829462db90d160e81b845260048401611ce6565b61206761206761224761210761212e608061220796015160ff1690565b956121f3565b9495948061231d575b612261575b50505050565b6122c39496505f9392918161227c606061220d940151151590565b86146122fa57506122076120676120677f0000000000000000000000000000000000000000000000000000000000000000955b61205a6001600160a01b0388161515611aeb565b03925af19081156120d1575f916122e0575b50915f80808061225b565b6122f491503d805f833e6120c681836102d3565b5f6122d5565b6120676120676123176121076120f660a061220796015160ff1690565b956122af565b5060208101511515612256565b5061233b611a446020840151151590565b61219e565b50612351611a446020850151151590565b612152565b5060208801511515611fa2565b634e487b7160e01b5f52601160045260245ffd5b5f198101919082116106ed57565b919082039182116106ed57565b919082018092116106ed57565b156123a657565b60405162461bcd60e51b815260206004820152601d60248201527f496e76616c696420706f696e7465723a206d75737420626520302d31350000006044820152606490fd5b939291936123fa610a1a612f46565b6001612406333061355b565b5d6001600160a01b031693843b156101ef57600494815f604081958151998a9687958693631c6e724760e31b8552602084860152816024860152604485013782810182018401859052601f01601f19168201010301925af19081156120d1576124829361247c92612497575b50349236916124b1565b3361302a565b61248b336130c2565b5f612494612f46565b5d565b806124a55f6124ab936102d3565b806106f2565b5f612472565b9291906124bd81610322565b936124cb60405195866102d3565b602085838152019160051b81019283116101ef57905b8282106124ed57505050565b6020809183356124fc816101de565b8152019101906124e1565b908160209103126101ef575190565b80516001600160a01b03908116835260208083015182169084015260408083015190911690830152606080820151908301526080808201516001600160801b0316908301526101fe919060e090819060a0818101516001600160801b03169085015260c08181015161ffff169085015201511515910152565b806125a1610120926103a09594612516565b816101008201520190611cc2565b610100810192916101fe9190612516565b916125e7906125d3846103a09694612516565b610140610100850152610140840190611cc2565b91610120818403910152611cc2565b805190925f9290916001600160a01b0316602085018051909491906001600160a01b03166040870180519197909290916001600160a01b03169760a0830198895161264090611ab5565b516001600160e81b0319169161265593612cd4565b965161266090611ab5565b516001600160e81b03191661267490612c24565b81519095906001600160a01b031696516001600160a01b031692516001600160a01b03169460608301516126a790611ab5565b5160c088015161ffff166080909401511515946126c2610312565b6001600160a01b03909a168a526001600160a01b031660208a01526001600160a01b03909616604089019081529560608901526001600160801b031660808801526001600160801b031660a087015261ffff1660c0860152151560e0850152825115158080612a2b575b1561286157505091816127e29361274860406020950151151590565b1561284657827f0000000000000000000000000000000000000000000000000000000000000000925b60608101511561282057506127c4816120795f936120736120676120677f0000000000000000000000000000000000000000000000000000000000000000986120466001600160a01b038c161515611d16565b6040516301eebc2d60e11b81529687958694859391600485016125c0565b03925af19081156120d1575f916127f7575091565b6120ce915060203d602011612819575b61281181836102d3565b810190612507565b503d612807565b816120795f936120736120676120676121146121076120f660a06127c49a015160ff1690565b8261285b61210761212e608086015160ff1690565b92612771565b9192918015908180612a15575b156128b157505050506127e25f926128946120676120676020955160018060a01b031690565b9060405194858094819363160f04bd60e21b8352600483016125af565b806129ff575b1561295b5750509160209183826128d460406127e2970151151590565b1561293b5761291d91506122076120676120677f00000000000000000000000000000000000000000000000000000000000000009561205a6001600160a01b0388161515611d16565b915f6040518096819582946305e3344d60e41b84526004840161258f565b61220761206761206761224761210761212e608061291d98015160ff1690565b909593929190806129f2575b61297057505050565b6127e29395509081836129896060602096950151151590565b156129d25761291d91506122076120676120677f00000000000000000000000000000000000000000000000000000000000000009561205a6001600160a01b0388161515611aeb565b6122076120676120676123176121076120f660a061291d98015160ff1690565b5060208101511515612967565b50612a10611a446020850151151590565b6128b7565b50612a26611a446020860151151590565b61286e565b506020840151151561272c565b15612a3f57565b60405162461bcd60e51b815260206004820152601860248201527f496e76616c6964206c697175696469747920616d6f756e7400000000000000006044820152606490fd5b15612a8b57565b60405162461bcd60e51b8152602060048201526014602482015273139bc81b1a5c5d5a591a5d1e481a5b881c1bdbdb60621b6044820152606490fd5b90670de0b6b3a7640000820291808304670de0b6b3a764000014901517156106ed57565b9067120a871cc002000082029180830467120a871cc002000014901517156106ed57565b818102929181159184041417156106ed57565b8115612b2c570490565b634e487b7160e01b5f52601260045260245ffd5b600f0b6f7fffffffffffffffffffffffffffffff1981146106ed575f0390565b60405160609190612b7183826102d3565b6002815291601f1901366020840137565b600160ff1b81146106ed575f0390565b15612b9957565b60405162461bcd60e51b815260206004820152601760248201527f496e76616c696420696e697469616c20616d6f756e74730000000000000000006044820152606490fd5b6040519060e082018281106001600160401b038211176102ce576040525f60c0838281528260208201528260408201528260608201528260808201528260a08201520152565b6103a0610fff612cc8612c35612bde565b9360e81c612c556001612c4e83627fffff9060011c1690565b1615158652565b6001811615156020860152612c85612c7c6001600284901c623fffff165b1662ffffff1690565b15156040870152565b612ca5612c9c6001600384901c621fffff16612c73565b15156060870152565b600f600482901c81166080870152600882901c1660a0860152600c1c610fff1690565b1661ffff1660c0830152565b9092906001600160a01b038085169082161015612d465792915b6040516bffffffffffffffffffffffff19606095861b81166020830190815294861b811660348301529190941b1660488401526001600160e81b031916605c830152603f825290612d40605f826102d3565b51902090565b91612cee565b6020818303126101ef578051906001600160401b0382116101ef570181601f820112156101ef578051906001600160401b0382116102ce5760405192612d9c601f8401601f1916602001856102d3565b828452602083830101116101ef57815f9260208093018386015e8301015290565b90606091805c801580612f31575b15612eeb575b508251159182612e1c575b50604051911582526001600160a01b0316907fd34145bf6de6d1b18053ad66a4a1af093071a5ab67c05b8bfce98fd95ffb0d899080602081015b0390a290565b604051633bd1104b60e01b815293505f9084908190612e3e90600483016125af565b0381836001600160a01b0386165af19283156120d1575f93612ea1575b50612e167fd34145bf6de6d1b18053ad66a4a1af093071a5ab67c05b8bfce98fd95ffb0d8991848051612e91575b509150612ddc565b612e9b9082613527565b5f612e89565b7fd34145bf6de6d1b18053ad66a4a1af093071a5ab67c05b8bfce98fd95ffb0d89919350612ee3612e16913d805f833e612edb81836102d3565b810190612d4c565b939150612e5b565b9250601f60405193808552018060051c5f5b818110612f18575050601f191683016020016040525f612dd1565b80600180928601015c60208260051b8901015201612efd565b9350604051935f855260208501604052612dcb565b60405160208101907f626529a6be7cb2fb96a7ed93849b4ef74c980495dfe61fd514c95dcd9da51c3582523060601b604082015260348152612d406054826102d3565b805c6101ef576001905d565b8151915f5b838110612fa75750505050565b6001906001600160a01b03612fbc8285611ad7565b5116612fc981863061392f565b5c80612fd8575b505001612f9a565b5f91612ff8918381131561300057612ff1908883613731565b863061392f565b5d5f80612fd0565b61300c61301e91612b82565b821585146130235784905b8984613657565b612ff1565b8490613017565b90918251925f5b84811061303f575050505050565b6001906001600160a01b036130548285611ad7565b511661306181873061392f565b5c80613070575b505001613031565b5f91613090918381131561309857613089908983613731565b873061392f565b5d5f80613068565b6130a46130b691612b82565b821585146130bb5788905b8a84613657565b613089565b84906130af565b6124945f913061355b565b156130d457565b60405162461bcd60e51b81526020600482015260076024820152664e6f20686f707360c81b6044820152606490fd5b9190811015611ac25760051b8101359060be19813603018212156101ef570190565b356103a0816103a3565b356103a0816101de565b91909160018060a01b0316805f52600160205260405f20835f5260205260405f208054908382039182116106ed57556040805133815260208101939093525f925f5160206141765f395f51905f5291819081015b0390a4565b90600f0b90600f0b019060016001607f1b0319821260016001607f1b038313176106ed57565b9091815f5260066020526001600160801b036131eb6131e160405f205495838716600f0b613192565b928560801d613192565b81199060801b16911617918203613200575050565b5f52600660205260405f2055565b90613219913061392f565b90815c01905d565b6001600160801b0392935f146132545750169080821061323f575050565b630173586760e01b5f5260045260245260445ffd5b90501690808210613263575050565b6368580a1960e01b5f5260045260245260445ffd5b9190915f83820193841291129080158216911516176106ed57565b9092306132ad84846132a688828661392f565b5c9361392f565b5c916001600160a01b038581169290871680841461337657918161331095935f6101fe9a9694125f14613356576132e66132f592612b82565b9061334f5782905b8887613657565b5f83131561331557505061330a908486613731565b826137a2565b6137a2565b5f8312613325575b50505061330a565b61333161333f93612b82565b9161334757905b8587613657565b5f808061331d565b505f90613338565b5f906132ee565b505f8113613365575b506132f5565b613370908786613731565b5f61335f565b92506101fe96959361338791613278565b925f8412156133b3575061339d61331093612b82565b916133ab57905b8385613657565b505f906133a4565b92915050825f82136133c8575b5050506137a2565b6133d192613731565b5f80826133c0565b6001600160801b03670de0b6b3a7640000911602906001600160801b0382169182036106ed57565b929493919093825f52600560205260405f2054155f14613441575050506134289250612392565b905b811561343257565b63283eeadf60e01b5f5260045ffd5b90929193670de0b6b3a7640000810290808204670de0b6b3a764000014901517156106ed578161347091612b22565b82018092116106ed576134b161171e936001600160801b036134aa6134c19461171e61349e6134c89b6133d9565b6001600160801b031690565b9116612392565b936005905f5260205260405f2090565b5490612b0f565b9061342a565b91909160018060a01b031690815f52600160205260405f20835f5260205260405f208054908282018092116106ed57556040805133815260208101929092525f915f5160206141765f395f51905f52918190810161318d565b601f825180835d0160051c915f5b8381106135425750505050565b80602060019260051b8401015182828601015d01613535565b906040519060208201927fe88690b85c82523984f05d1f281684a73aa4d4303bca19cfe29aa89ae744616a84526001600160601b03199060601b1660408301526001600160601b03199060601b16605482015260488152612d406068826102d3565b908160209103126101ef57516103a0816103a3565b156135d957565b60405162461bcd60e51b8152602060048201526015602482015274115490cc8c081d1c985b9cd9995c8819985a5b1959605a1b6044820152606490fd5b1561361d57565b60405162461bcd60e51b8152602060048201526012602482015271125b98dbdc9c9958dd08115512081cd95b9d60721b6044820152606490fd5b6001600160a01b031692908361367357506101fe925014613616565b91906136f9576040516323b872dd60e01b81526001600160a01b0390921660048301523060248301526044820152906020908290815f81606481015b03925af180156120d1576101fe915f916136ca575b506135d2565b6136ec915060203d6020116136f2575b6136e481836102d3565b8101906135bd565b5f6136c4565b503d6136da565b60405162461bcd60e51b815260206004820152601060248201526f115512081b9bdd08195e1c1958dd195960821b6044820152606490fd5b6001600160a01b03168061376b57505f808093819382908215613761575b6001600160a01b031690f1156120d157565b6108fc915061374f565b60405163a9059cbb60e01b81526001600160a01b0390921660048301526024820192909252906020908290815f81604481016136af565b5f91612494913061392f565b903590601e19813603018212156101ef57018035906001600160401b0382116101ef57602001918160051b360383136101ef57565b156137ea57565b60405162461bcd60e51b81526020600482015260116024820152704d69736d6174636865642061727261797360781b6044820152606490fd5b9015611ac25790565b9190811015611ac25760051b0190565b356103a0816103b8565b9594939291506060860161385a81886137ae565b9050156138fc5761388661387160808901896137ae565b905061387d838a6137ae565b919050146137e3565b600161389282896137ae565b9050145f146138f057866138a86103a09861312f565b916138b56020830161312f565b6138e860a06138e16138dc6138d66138cf6040890161312f565b96886137ae565b90613823565b61383c565b9401613125565b936005613e7a565b506103a0956005613ac6565b60405162461bcd60e51b815260206004820152600b60248201526a4e6f206d61726b696e677360a81b6044820152606490fd5b916040519160208301937f71aa94563c1d78d77df681ad802fc1a81ea7d00cffe4bbe002400e1d66de80d285526001600160601b03199060601b1660408401526001600160601b03199060601b1660548301526001600160601b03199060601b166068820152605c8152612d40607c826102d3565b9190916040818403126101ef5780516001600160401b0381116101ef57836139cd918301611b2e565b9260208201516001600160401b0381116101ef576103a09201611b2e565b90602080835192838152019201905f5b818110613a085750505090565b82516001600160e81b0319168452602093840193909201916001016139fb565b80516001600160a01b0390811683526020808301518216908401526040808301519091169083015260608082015160c09184018290526103a0939160a091613a72918401906105ad565b9260808101511515608084015201519060a08184039101526139eb565b91613ab890613aaa6103a09593606086526060860190613a28565b908482036020860152611bb0565b916040818403910152611bb0565b96949590929391966060840197613add89866137ae565b969050613e37575b50613aef85611a6f565b91613af986611a6f565b905f5b878110613da15750815f91858389613bc0613be29d9e9f613b94613bb9613b228561312f565b94613bab613b326020830161312f565b94613b67613ba4613b456040860161312f565b613b5260808701876137ae565b939094613b6160a08901613125565b976137ae565b989099613b84613b756102f4565b6001600160a01b03909e168e52565b6001600160a01b031660208d0152565b6001600160a01b031660408b0152565b3691610339565b606087015215156080860152565b36916103ca565b60a082015260405163027b8f7b60e11b81529c8d958694859360048501613a8f565b03926001600160a01b03165af19081156120d1575f975f92613d7a575b505f5b878110613c7e57505050505090613c2b9495613c259392613c2f575b5050612377565b90611ad7565b5190565b81613c3f60a0613c699401613125565b15613c70576020613c50910161312f565b613c62613c5c85612377565b87611ad7565b519161320e565b5f80613c1e565b613c799061312f565b613c50565b80613d408a89613ca884613ca1600197613c9b60808601866137ae565b9061382c565b3593611ad7565b51613ce6613cc6613cb9878d611ad7565b516001600160801b031690565b82613cd4613cb9898c611ad7565b613ce060a08701613125565b92613221565b613cf08589611ad7565b5192613cfe60a08401613125565b15613d5a57613d1d60a06001600160801b038316600f0b945b01613125565b15613d4657506001600160801b03613d389116600f0b612b40565b915b88613f9e565b01613c02565b6001600160801b03915016600f0b91613d3a565b613d1d60a0613d746001600160801b038516600f0b612b40565b94613d17565b909750613d9991503d805f833e613d9181836102d3565b8101906139a4565b90965f613bff565b600190613e31613e27613e0c613deb8f8c613dbb8161312f565b91613de56138dc89613c9b613dd26020870161312f565b94613ddf6040880161312f565b966137ae565b92612cd4565b886001915f520160205260405f2054906001600160801b0382169160801c90565b613e198589949394611ad7565b906001600160801b03169052565b613e198389611ad7565b01613afc565b613e6590613e4760a08701613125565b15613e6b57613e5e613e588761312f565b91612b82565b908961320e565b5f613ae5565b613e5e613e586020880161312f565b9185809c9b829893979b99959a969a613e958c82868c612cd4565b96613f75575b8885613ec289896001915f520160205260405f2054906001600160801b0382169160801c90565b9e8f948298613ed298939561403c565b9b8c809a613edf93613221565b613f1a928915613f5a576001600160801b038216600f0b915b8a15613f485750613f146001600160801b038a16600f0b612b40565b92613f9e565b613f26575b5050505050565b613f369415613f4057509061320e565b5f82818080613f1f565b90509061320e565b6001600160801b0316600f0b92613f9e565b613f6f6001600160801b038a16600f0b612b40565b91613ef8565b8215613f9557613f90895b613f8987612b82565b908d61320e565b613e9b565b613f9084613f80565b6001909392930191815f52826020526001600160801b03613fd6613fcc60405f205496838816600f0b613192565b928660801d613192565b81199060801b16911617928303613fec57505050565b5f5260205260405f2055565b91908260409103126101ef576020825192015190565b9193926001600160801b03908161402f604094606087526060870190613a28565b9616602085015216910152565b6140e098935f926140b26040989a9799956140a3614058611a4d565b938d61406386611ab5565b5261407961406f611a4d565b9661185788611ab5565b6140936140846102f4565b6001600160a01b039098168852565b6001600160a01b03166020870152565b6001600160a01b0316848a0152565b6060830152871515608083015260a082015285516360a80dbb60e01b8152988995869485936004850161400e565b03926001600160a01b03165af19283156120d1575f93614143575b50821561410757505090565b909150156141295761411b6103a091612aeb565b670de0b6b3a7640000900490565b6141356103a091612ac7565b67120a871cc0020000900490565b61416691935060403d60401161416e575b61415e81836102d3565b810190613ff8565b50915f6140fb565b503d61415456fe1b3d7edb2e9c0b0e7c525b20aaaef0f5940d2ed71663c7d39266ecafac728859a26469706673582212204bfc5b255cf6495eeb81962ec8fac21702e3b6e1c94672309965e8c90e8710e764736f6c634300081e0033","opcodes":"PUSH1 0xC0 CALLVALUE PUSH2 0xB2 JUMPI PUSH1 0x1F PUSH2 0x42AA CODESIZE DUP2 SWAP1 SUB SWAP2 DUP3 ADD PUSH1 0x1F NOT AND DUP4 ADD SWAP2 PUSH1 0x1 PUSH1 0x1 PUSH1 0x40 SHL SUB DUP4 GT DUP5 DUP5 LT OR PUSH2 0xB6 JUMPI DUP1 DUP5 SWAP3 PUSH1 0x40 SWAP5 DUP6 MSTORE DUP4 CODECOPY DUP2 ADD SUB SLT PUSH2 0xB2 JUMPI PUSH2 0x52 PUSH1 0x20 PUSH2 0x4B DUP4 PUSH2 0xCA JUMP JUMPDEST SWAP3 ADD PUSH2 0xCA JUMP JUMPDEST SWAP1 PUSH1 0x80 MSTORE PUSH1 0xA0 MSTORE PUSH1 0x40 MLOAD PUSH2 0x41CB SWAP1 DUP2 PUSH2 0xDF DUP3 CODECOPY PUSH1 0x80 MLOAD DUP2 DUP2 DUP2 PUSH2 0x108D ADD MSTORE DUP2 DUP2 PUSH2 0x1FCC ADD MSTORE DUP2 DUP2 PUSH2 0x21D2 ADD MSTORE DUP2 DUP2 PUSH2 0x2750 ADD MSTORE PUSH2 0x28E9 ADD MSTORE PUSH1 0xA0 MLOAD DUP2 DUP2 DUP2 PUSH2 0x711 ADD MSTORE DUP2 DUP2 PUSH2 0x2011 ADD MSTORE DUP2 DUP2 PUSH2 0x228E ADD MSTORE DUP2 DUP2 PUSH2 0x2790 ADD MSTORE PUSH2 0x299E ADD MSTORE RETURN JUMPDEST PUSH0 DUP1 REVERT JUMPDEST PUSH4 0x4E487B71 PUSH1 0xE0 SHL PUSH0 MSTORE PUSH1 0x41 PUSH1 0x4 MSTORE PUSH1 0x24 PUSH0 REVERT JUMPDEST MLOAD SWAP1 PUSH1 0x1 PUSH1 0x1 PUSH1 0xA0 SHL SUB DUP3 AND DUP3 SUB PUSH2 0xB2 JUMPI JUMP INVALID PUSH1 0x80 PUSH1 0x40 MSTORE PUSH1 0x4 CALLDATASIZE LT ISZERO PUSH2 0x11 JUMPI PUSH0 DUP1 REVERT JUMPDEST PUSH0 CALLDATALOAD PUSH1 0xE0 SHR DUP1 PUSH3 0xFDD58E EQ PUSH2 0x1D9 JUMPI DUP1 PUSH4 0x1FFC9A7 EQ PUSH2 0x1D4 JUMPI DUP1 PUSH4 0x4F71EF6 EQ PUSH2 0x170 JUMPI DUP1 PUSH4 0x95BCDB6 EQ PUSH2 0x1CF JUMPI DUP1 PUSH4 0x19920A5F EQ PUSH2 0x1CA JUMPI DUP1 PUSH4 0x2F380B35 EQ PUSH2 0x1C5 JUMPI DUP1 PUSH4 0x426A8493 EQ PUSH2 0x1C0 JUMPI DUP1 PUSH4 0x460C6DF8 EQ PUSH2 0x1BB JUMPI DUP1 PUSH4 0x558A7297 EQ PUSH2 0x1B6 JUMPI DUP1 PUSH4 0x5670F55A EQ PUSH2 0x1B1 JUMPI DUP1 PUSH4 0x598AF9E7 EQ PUSH2 0x1AC JUMPI DUP1 PUSH4 0x5B298D32 EQ PUSH2 0x1A7 JUMPI DUP1 PUSH4 0x5DFB78AF EQ PUSH2 0x1A2 JUMPI DUP1 PUSH4 0x60A80DBB EQ PUSH2 0x189 JUMPI DUP1 PUSH4 0x61408F26 EQ PUSH2 0x19D JUMPI DUP1 PUSH4 0x7DC27C95 EQ PUSH2 0x198 JUMPI DUP1 PUSH4 0x83E66C2E EQ PUSH2 0x193 JUMPI DUP1 PUSH4 0x8E832E08 EQ PUSH2 0x18E JUMPI DUP1 PUSH4 0x8F155291 EQ PUSH2 0x189 JUMPI DUP1 PUSH4 0x9D2EC6E4 EQ PUSH2 0x184 JUMPI DUP1 PUSH4 0xA1A44DAD EQ PUSH2 0x17F JUMPI DUP1 PUSH4 0xB5E60C3C EQ PUSH2 0x17A JUMPI DUP1 PUSH4 0xB6363CF2 EQ PUSH2 0x175 JUMPI DUP1 PUSH4 0xC279171D EQ PUSH2 0x170 JUMPI DUP1 PUSH4 0xCB1F2F38 EQ PUSH2 0x16B JUMPI DUP1 PUSH4 0xD2615FC8 EQ PUSH2 0x166 JUMPI DUP1 PUSH4 0xD92BC84C EQ PUSH2 0x161 JUMPI DUP1 PUSH4 0xE513315B EQ PUSH2 0x15C JUMPI PUSH4 0xFE99049A EQ PUSH2 0x157 JUMPI PUSH0 DUP1 REVERT JUMPDEST PUSH2 0x189F JUMP JUMPDEST PUSH2 0x162E JUMP JUMPDEST PUSH2 0x13DE JUMP JUMPDEST PUSH2 0x1398 JUMP JUMPDEST PUSH2 0x1149 JUMP JUMPDEST PUSH2 0x605 JUMP JUMPDEST PUSH2 0x10E6 JUMP JUMPDEST PUSH2 0x10BC JUMP JUMPDEST PUSH2 0x1078 JUMP JUMPDEST PUSH2 0xEFC JUMP JUMPDEST PUSH2 0xDA4 JUMP JUMPDEST PUSH2 0xEB7 JUMP JUMPDEST PUSH2 0xE71 JUMP JUMPDEST PUSH2 0xE12 JUMP JUMPDEST PUSH2 0xDCD JUMP JUMPDEST PUSH2 0xCCB JUMP JUMPDEST PUSH2 0xC4B JUMP JUMPDEST PUSH2 0xBDE JUMP JUMPDEST PUSH2 0x9CC JUMP JUMPDEST PUSH2 0x930 JUMP JUMPDEST PUSH2 0x8CF JUMP JUMPDEST PUSH2 0x83E JUMP JUMPDEST PUSH2 0x740 JUMP JUMPDEST PUSH2 0x6FC JUMP JUMPDEST PUSH2 0x653 JUMP JUMPDEST PUSH2 0x249 JUMP JUMPDEST PUSH2 0x200 JUMP JUMPDEST PUSH1 0x1 PUSH1 0x1 PUSH1 0xA0 SHL SUB DUP2 AND SUB PUSH2 0x1EF JUMPI JUMP JUMPDEST PUSH0 DUP1 REVERT JUMPDEST CALLDATALOAD SWAP1 PUSH2 0x1FE DUP3 PUSH2 0x1DE JUMP JUMPDEST JUMP JUMPDEST CALLVALUE PUSH2 0x1EF JUMPI PUSH1 0x40 CALLDATASIZE PUSH1 0x3 NOT ADD SLT PUSH2 0x1EF JUMPI PUSH1 0x4 CALLDATALOAD PUSH2 0x21D DUP2 PUSH2 0x1DE JUMP JUMPDEST PUSH1 0x24 CALLDATALOAD SWAP1 PUSH1 0x1 DUP1 PUSH1 0xA0 SHL SUB AND PUSH0 MSTORE PUSH1 0x1 PUSH1 0x20 MSTORE PUSH1 0x40 PUSH0 KECCAK256 SWAP1 PUSH0 MSTORE PUSH1 0x20 MSTORE PUSH1 0x20 PUSH1 0x40 PUSH0 KECCAK256 SLOAD PUSH1 0x40 MLOAD SWAP1 DUP2 MSTORE RETURN JUMPDEST CALLVALUE PUSH2 0x1EF JUMPI PUSH1 0x20 CALLDATASIZE PUSH1 0x3 NOT ADD SLT PUSH2 0x1EF JUMPI PUSH1 0x4 CALLDATALOAD PUSH4 0xFFFFFFFF PUSH1 0xE0 SHL DUP2 AND DUP1 SWAP2 SUB PUSH2 0x1EF JUMPI PUSH1 0x20 SWAP1 PUSH4 0x1FFC9A7 PUSH1 0xE0 SHL DUP2 EQ SWAP1 DUP2 ISZERO PUSH2 0x28E JUMPI JUMPDEST POP PUSH1 0x40 MLOAD SWAP1 ISZERO ISZERO DUP2 MSTORE RETURN JUMPDEST PUSH4 0xF632FB3 PUSH1 0xE0 SHL EQ SWAP1 POP PUSH0 PUSH2 0x283 JUMP JUMPDEST PUSH4 0x4E487B71 PUSH1 0xE0 SHL PUSH0 MSTORE PUSH1 0x41 PUSH1 0x4 MSTORE PUSH1 0x24 PUSH0 REVERT JUMPDEST PUSH1 0x80 DUP2 ADD SWAP1 DUP2 LT PUSH1 0x1 PUSH1 0x1 PUSH1 0x40 SHL SUB DUP3 GT OR PUSH2 0x2CE JUMPI PUSH1 0x40 MSTORE JUMP JUMPDEST PUSH2 0x29F JUMP JUMPDEST SWAP1 PUSH1 0x1F DUP1 NOT SWAP2 ADD AND DUP2 ADD SWAP1 DUP2 LT PUSH1 0x1 PUSH1 0x1 PUSH1 0x40 SHL SUB DUP3 GT OR PUSH2 0x2CE JUMPI PUSH1 0x40 MSTORE JUMP JUMPDEST PUSH1 0x40 MLOAD SWAP1 PUSH2 0x1FE PUSH1 0xC0 DUP4 PUSH2 0x2D3 JUMP JUMPDEST PUSH1 0x40 MLOAD SWAP1 PUSH2 0x1FE PUSH1 0x80 DUP4 PUSH2 0x2D3 JUMP JUMPDEST PUSH1 0x40 MLOAD SWAP1 PUSH2 0x1FE PUSH2 0x100 DUP4 PUSH2 0x2D3 JUMP JUMPDEST PUSH1 0x1 PUSH1 0x1 PUSH1 0x40 SHL SUB DUP2 GT PUSH2 0x2CE JUMPI PUSH1 0x5 SHL PUSH1 0x20 ADD SWAP1 JUMP JUMPDEST SWAP3 SWAP2 SWAP1 PUSH2 0x345 DUP2 PUSH2 0x322 JUMP JUMPDEST SWAP4 PUSH2 0x353 PUSH1 0x40 MLOAD SWAP6 DUP7 PUSH2 0x2D3 JUMP JUMPDEST PUSH1 0x20 DUP6 DUP4 DUP2 MSTORE ADD SWAP2 PUSH1 0x5 SHL DUP2 ADD SWAP3 DUP4 GT PUSH2 0x1EF JUMPI SWAP1 JUMPDEST DUP3 DUP3 LT PUSH2 0x375 JUMPI POP POP POP JUMP JUMPDEST DUP2 CALLDATALOAD DUP2 MSTORE PUSH1 0x20 SWAP2 DUP3 ADD SWAP2 ADD PUSH2 0x369 JUMP JUMPDEST SWAP1 DUP1 PUSH1 0x1F DUP4 ADD SLT ISZERO PUSH2 0x1EF JUMPI DUP2 PUSH1 0x20 PUSH2 0x3A0 SWAP4 CALLDATALOAD SWAP2 ADD PUSH2 0x339 JUMP JUMPDEST SWAP1 JUMP JUMPDEST DUP1 ISZERO ISZERO SUB PUSH2 0x1EF JUMPI JUMP JUMPDEST CALLDATALOAD SWAP1 PUSH2 0x1FE DUP3 PUSH2 0x3A3 JUMP JUMPDEST PUSH1 0x1 PUSH1 0x1 PUSH1 0xE8 SHL SUB NOT DUP2 AND SUB PUSH2 0x1EF JUMPI JUMP JUMPDEST SWAP3 SWAP2 SWAP1 PUSH2 0x3D6 DUP2 PUSH2 0x322 JUMP JUMPDEST SWAP4 PUSH2 0x3E4 PUSH1 0x40 MLOAD SWAP6 DUP7 PUSH2 0x2D3 JUMP JUMPDEST PUSH1 0x20 DUP6 DUP4 DUP2 MSTORE ADD SWAP2 PUSH1 0x5 SHL DUP2 ADD SWAP3 DUP4 GT PUSH2 0x1EF JUMPI SWAP1 JUMPDEST DUP3 DUP3 LT PUSH2 0x406 JUMPI POP POP POP JUMP JUMPDEST PUSH1 0x20 DUP1 SWAP2 DUP4 CALLDATALOAD PUSH2 0x415 DUP2 PUSH2 0x3B8 JUMP JUMPDEST DUP2 MSTORE ADD SWAP2 ADD SWAP1 PUSH2 0x3FA JUMP JUMPDEST SWAP1 DUP1 PUSH1 0x1F DUP4 ADD SLT ISZERO PUSH2 0x1EF JUMPI DUP2 PUSH1 0x20 PUSH2 0x3A0 SWAP4 CALLDATALOAD SWAP2 ADD PUSH2 0x3CA JUMP JUMPDEST SWAP2 SWAP1 SWAP2 PUSH1 0xC0 DUP2 DUP5 SUB SLT PUSH2 0x1EF JUMPI PUSH2 0x450 PUSH2 0x2F4 JUMP JUMPDEST SWAP3 PUSH2 0x45A DUP3 PUSH2 0x1F3 JUMP JUMPDEST DUP5 MSTORE PUSH2 0x468 PUSH1 0x20 DUP4 ADD PUSH2 0x1F3 JUMP JUMPDEST PUSH1 0x20 DUP6 ADD MSTORE PUSH2 0x479 PUSH1 0x40 DUP4 ADD PUSH2 0x1F3 JUMP JUMPDEST PUSH1 0x40 DUP6 ADD MSTORE PUSH1 0x60 DUP3 ADD CALLDATALOAD PUSH1 0x1 PUSH1 0x1 PUSH1 0x40 SHL SUB DUP2 GT PUSH2 0x1EF JUMPI DUP2 PUSH2 0x49D SWAP2 DUP5 ADD PUSH2 0x385 JUMP JUMPDEST PUSH1 0x60 DUP6 ADD MSTORE PUSH2 0x4AE PUSH1 0x80 DUP4 ADD PUSH2 0x3AD JUMP JUMPDEST PUSH1 0x80 DUP6 ADD MSTORE PUSH1 0xA0 DUP3 ADD CALLDATALOAD PUSH1 0x1 PUSH1 0x1 PUSH1 0x40 SHL SUB DUP2 GT PUSH2 0x1EF JUMPI PUSH2 0x4D0 SWAP3 ADD PUSH2 0x420 JUMP JUMPDEST PUSH1 0xA0 DUP4 ADD MSTORE JUMP JUMPDEST SWAP1 DUP1 PUSH1 0x1F DUP4 ADD SLT ISZERO PUSH2 0x1EF JUMPI DUP2 CALLDATALOAD SWAP1 PUSH2 0x4EF DUP3 PUSH2 0x322 JUMP JUMPDEST SWAP3 PUSH2 0x4FD PUSH1 0x40 MLOAD SWAP5 DUP6 PUSH2 0x2D3 JUMP JUMPDEST DUP3 DUP5 MSTORE PUSH1 0x20 DUP1 DUP6 ADD SWAP4 PUSH1 0x5 SHL DUP3 ADD ADD SWAP2 DUP3 GT PUSH2 0x1EF JUMPI PUSH1 0x20 ADD SWAP2 JUMPDEST DUP2 DUP4 LT PUSH2 0x525 JUMPI POP POP POP SWAP1 JUMP JUMPDEST DUP3 CALLDATALOAD PUSH1 0x1 PUSH1 0x1 PUSH1 0x80 SHL SUB DUP2 AND DUP2 SUB PUSH2 0x1EF JUMPI DUP2 MSTORE PUSH1 0x20 SWAP3 DUP4 ADD SWAP3 ADD PUSH2 0x518 JUMP JUMPDEST PUSH1 0x60 PUSH1 0x3 NOT DUP3 ADD SLT PUSH2 0x1EF JUMPI PUSH1 0x4 CALLDATALOAD PUSH1 0x1 PUSH1 0x1 PUSH1 0x40 SHL SUB DUP2 GT PUSH2 0x1EF JUMPI DUP2 PUSH2 0x56F SWAP2 PUSH1 0x4 ADD PUSH2 0x43B JUMP JUMPDEST SWAP2 PUSH1 0x24 CALLDATALOAD PUSH1 0x1 PUSH1 0x1 PUSH1 0x40 SHL SUB DUP2 GT PUSH2 0x1EF JUMPI DUP3 PUSH2 0x58E SWAP2 PUSH1 0x4 ADD PUSH2 0x4D7 JUMP JUMPDEST SWAP2 PUSH1 0x44 CALLDATALOAD SWAP1 PUSH1 0x1 PUSH1 0x1 PUSH1 0x40 SHL SUB DUP3 GT PUSH2 0x1EF JUMPI PUSH2 0x3A0 SWAP2 PUSH1 0x4 ADD PUSH2 0x4D7 JUMP JUMPDEST SWAP1 PUSH1 0x20 DUP1 DUP4 MLOAD SWAP3 DUP4 DUP2 MSTORE ADD SWAP3 ADD SWAP1 PUSH0 JUMPDEST DUP2 DUP2 LT PUSH2 0x5CA JUMPI POP POP POP SWAP1 JUMP JUMPDEST DUP3 MLOAD DUP5 MSTORE PUSH1 0x20 SWAP4 DUP5 ADD SWAP4 SWAP1 SWAP3 ADD SWAP2 PUSH1 0x1 ADD PUSH2 0x5BD JUMP JUMPDEST SWAP1 SWAP2 PUSH2 0x5F7 PUSH2 0x3A0 SWAP4 PUSH1 0x40 DUP5 MSTORE PUSH1 0x40 DUP5 ADD SWAP1 PUSH2 0x5AD JUMP JUMPDEST SWAP2 PUSH1 0x20 DUP2 DUP5 SUB SWAP2 ADD MSTORE PUSH2 0x5AD JUMP JUMPDEST CALLVALUE PUSH2 0x1EF JUMPI PUSH2 0x61C PUSH2 0x616 CALLDATASIZE PUSH2 0x545 JUMP JUMPDEST SWAP2 PUSH2 0x1DA2 JUMP JUMPDEST SWAP1 PUSH2 0x62C PUSH1 0x40 MLOAD SWAP3 DUP4 SWAP3 DUP4 PUSH2 0x5E0 JUMP JUMPDEST SUB SWAP1 RETURN JUMPDEST PUSH1 0x60 SWAP1 PUSH1 0x3 NOT ADD SLT PUSH2 0x1EF JUMPI PUSH1 0x4 CALLDATALOAD PUSH2 0x648 DUP2 PUSH2 0x1DE JUMP JUMPDEST SWAP1 PUSH1 0x24 CALLDATALOAD SWAP1 PUSH1 0x44 CALLDATALOAD SWAP1 JUMP JUMPDEST CALLVALUE PUSH2 0x1EF JUMPI PUSH2 0x661 CALLDATASIZE PUSH2 0x630 JUMP JUMPDEST SWAP1 SWAP2 CALLER PUSH0 MSTORE PUSH1 0x1 PUSH1 0x20 MSTORE PUSH1 0x40 PUSH0 KECCAK256 DUP4 PUSH0 MSTORE PUSH1 0x20 MSTORE PUSH1 0x40 PUSH0 KECCAK256 DUP1 SLOAD SWAP1 DUP4 DUP3 SUB SWAP2 DUP3 GT PUSH2 0x6ED JUMPI SSTORE PUSH1 0x1 DUP1 PUSH1 0xA0 SHL SUB AND SWAP1 DUP2 PUSH0 MSTORE PUSH1 0x1 PUSH1 0x20 MSTORE PUSH2 0x6AD DUP4 PUSH1 0x40 PUSH0 KECCAK256 SWAP1 PUSH0 MSTORE PUSH1 0x20 MSTORE PUSH1 0x40 PUSH0 KECCAK256 SWAP1 JUMP JUMPDEST PUSH2 0x6B8 DUP3 DUP3 SLOAD PUSH2 0x2392 JUMP JUMPDEST SWAP1 SSTORE PUSH1 0x40 DUP1 MLOAD CALLER DUP1 DUP3 MSTORE PUSH1 0x20 DUP3 ADD SWAP4 SWAP1 SWAP4 MSTORE PUSH0 MLOAD PUSH1 0x20 PUSH2 0x4176 PUSH0 CODECOPY PUSH0 MLOAD SWAP1 PUSH0 MSTORE SWAP2 DUP2 SWAP1 DUP2 ADD JUMPDEST SUB SWAP1 LOG4 PUSH1 0x40 MLOAD PUSH1 0x1 DUP2 MSTORE PUSH1 0x20 SWAP1 RETURN JUMPDEST PUSH2 0x2363 JUMP JUMPDEST PUSH0 SWAP2 SUB SLT PUSH2 0x1EF JUMPI JUMP JUMPDEST CALLVALUE PUSH2 0x1EF JUMPI PUSH0 CALLDATASIZE PUSH1 0x3 NOT ADD SLT PUSH2 0x1EF JUMPI PUSH1 0x40 MLOAD PUSH32 0x0 PUSH1 0x1 PUSH1 0x1 PUSH1 0xA0 SHL SUB AND DUP2 MSTORE PUSH1 0x20 SWAP1 RETURN JUMPDEST CALLVALUE PUSH2 0x1EF JUMPI PUSH1 0x20 CALLDATASIZE PUSH1 0x3 NOT ADD SLT PUSH2 0x1EF JUMPI PUSH1 0x4 CALLDATALOAD PUSH0 PUSH1 0x60 PUSH1 0x40 MLOAD PUSH2 0x763 DUP2 PUSH2 0x2B3 JUMP JUMPDEST DUP3 DUP2 MSTORE DUP3 PUSH1 0x20 DUP3 ADD MSTORE DUP3 PUSH1 0x40 DUP3 ADD MSTORE ADD MSTORE PUSH0 MSTORE PUSH1 0x7 PUSH1 0x20 MSTORE PUSH1 0x40 PUSH0 KECCAK256 PUSH1 0x40 MLOAD SWAP1 PUSH2 0x78C DUP3 PUSH2 0x2B3 JUMP JUMPDEST DUP1 SLOAD PUSH1 0x1 PUSH1 0x1 PUSH1 0xA0 SHL SUB SWAP1 DUP2 AND DUP1 DUP5 MSTORE PUSH1 0x1 DUP4 ADD SLOAD DUP3 AND PUSH1 0x20 DUP6 ADD DUP2 SWAP1 MSTORE PUSH1 0x2 SWAP1 SWAP4 ADD SLOAD SWAP2 DUP3 AND PUSH1 0x40 DUP6 ADD DUP2 SWAP1 MSTORE PUSH1 0x48 SWAP3 SWAP1 SWAP3 SHL PUSH1 0x1 PUSH1 0x1 PUSH1 0xE8 SHL SUB NOT AND PUSH1 0x60 SWAP5 SWAP1 SWAP5 ADD DUP5 SWAP1 MSTORE SWAP1 SWAP3 PUSH2 0x62C SWAP2 PUSH2 0x803 SWAP1 PUSH2 0x7F5 SWAP1 PUSH2 0x7E8 SWAP1 DUP2 JUMP JUMPDEST SWAP6 PUSH1 0x1 PUSH1 0x1 PUSH1 0xA0 SHL SUB AND SWAP1 JUMP JUMPDEST SWAP2 PUSH1 0x1 PUSH1 0x1 PUSH1 0xE8 SHL SUB NOT AND SWAP1 JUMP JUMPDEST PUSH1 0x40 DUP1 MLOAD PUSH1 0x1 PUSH1 0x1 PUSH1 0xA0 SHL SUB SWAP6 DUP7 AND DUP2 MSTORE SWAP6 DUP6 AND PUSH1 0x20 DUP8 ADD MSTORE SWAP2 SWAP1 SWAP4 AND SWAP1 DUP5 ADD MSTORE PUSH1 0x1 PUSH1 0x1 PUSH1 0xE8 SHL SUB NOT SWAP1 SWAP2 AND PUSH1 0x60 DUP4 ADD MSTORE DUP2 SWAP1 PUSH1 0x80 DUP3 ADD SWAP1 JUMP JUMPDEST CALLVALUE PUSH2 0x1EF JUMPI PUSH2 0x84C CALLDATASIZE PUSH2 0x630 JUMP JUMPDEST SWAP1 SWAP2 CALLER PUSH0 MSTORE PUSH1 0x2 PUSH1 0x20 MSTORE PUSH2 0x873 DUP2 PUSH1 0x40 PUSH0 KECCAK256 SWAP1 PUSH1 0x1 DUP1 PUSH1 0xA0 SHL SUB AND PUSH0 MSTORE PUSH1 0x20 MSTORE PUSH1 0x40 PUSH0 KECCAK256 SWAP1 JUMP JUMPDEST DUP4 PUSH0 MSTORE PUSH1 0x20 MSTORE DUP2 PUSH1 0x40 PUSH0 KECCAK256 SSTORE PUSH1 0x40 MLOAD SWAP2 DUP3 MSTORE PUSH1 0x1 DUP1 PUSH1 0xA0 SHL SUB AND SWAP1 PUSH32 0xB3FD5071835887567A0671151121894DDCCC2842F1D10BEDAD13E0D17CACE9A7 PUSH1 0x20 CALLER SWAP3 LOG4 PUSH1 0x20 PUSH1 0x40 MLOAD PUSH1 0x1 DUP2 MSTORE RETURN JUMPDEST PUSH1 0x4 CALLDATALOAD SWAP1 PUSH1 0xFF DUP3 AND DUP3 SUB PUSH2 0x1EF JUMPI JUMP JUMPDEST CALLVALUE PUSH2 0x1EF JUMPI PUSH1 0x40 CALLDATASIZE PUSH1 0x3 NOT ADD SLT PUSH2 0x1EF JUMPI PUSH2 0x92E PUSH2 0x8EB PUSH2 0x8BF JUMP JUMPDEST PUSH1 0xFF PUSH1 0x24 CALLDATALOAD SWAP2 PUSH2 0x8FA DUP4 PUSH2 0x1DE JUMP JUMPDEST AND PUSH2 0x907 PUSH1 0x10 DUP3 LT PUSH2 0x239F JUMP JUMPDEST PUSH0 MSTORE PUSH1 0x3 PUSH1 0x20 MSTORE PUSH1 0x40 PUSH0 KECCAK256 SWAP1 PUSH1 0x1 DUP1 PUSH1 0xA0 SHL SUB AND PUSH1 0x1 PUSH1 0x1 PUSH1 0x60 SHL SUB PUSH1 0xA0 SHL DUP3 SLOAD AND OR SWAP1 SSTORE JUMP JUMPDEST STOP JUMPDEST CALLVALUE PUSH2 0x1EF JUMPI PUSH1 0x40 CALLDATASIZE PUSH1 0x3 NOT ADD SLT PUSH2 0x1EF JUMPI PUSH1 0x4 CALLDATALOAD PUSH2 0x94D DUP2 PUSH2 0x1DE JUMP JUMPDEST PUSH1 0x24 CALLDATALOAD SWAP1 PUSH2 0x95A DUP3 PUSH2 0x3A3 JUMP JUMPDEST CALLER PUSH0 SWAP1 DUP2 MSTORE PUSH1 0x20 DUP2 DUP2 MSTORE PUSH1 0x40 DUP1 DUP4 KECCAK256 PUSH1 0x1 PUSH1 0x1 PUSH1 0xA0 SHL SUB DUP6 AND DUP5 MSTORE SWAP1 SWAP2 MSTORE SWAP1 KECCAK256 SWAP2 ISZERO ISZERO SWAP2 PUSH1 0xFF NOT DUP2 SLOAD AND PUSH1 0xFF DUP5 AND OR SWAP1 SSTORE PUSH1 0x40 MLOAD SWAP2 DUP3 MSTORE PUSH1 0x1 DUP1 PUSH1 0xA0 SHL SUB AND SWAP1 PUSH32 0xCEB576D9F15E4E200FDB5096D64D5DFD667E16DEF20C1EEFD14256D8E3FAA267 PUSH1 0x20 CALLER SWAP3 LOG3 PUSH1 0x40 MLOAD PUSH1 0x1 DUP2 MSTORE PUSH1 0x20 SWAP1 RETURN JUMPDEST CALLVALUE PUSH2 0x1EF JUMPI PUSH1 0x80 CALLDATASIZE PUSH1 0x3 NOT ADD SLT PUSH2 0x1EF JUMPI PUSH1 0x4 CALLDATALOAD PUSH2 0x9E9 DUP2 PUSH2 0x1DE JUMP JUMPDEST PUSH1 0x24 CALLDATALOAD PUSH2 0x9F5 DUP2 PUSH2 0x1DE JUMP JUMPDEST PUSH1 0x44 CALLDATALOAD SWAP2 PUSH2 0xA02 DUP4 PUSH2 0x1DE JUMP JUMPDEST PUSH1 0x64 CALLDATALOAD SWAP2 PUSH2 0xA0F DUP4 PUSH2 0x3B8 JUMP JUMPDEST PUSH2 0xA1F PUSH2 0xA1A PUSH2 0x2F46 JUMP JUMPDEST PUSH2 0x2F89 JUMP JUMPDEST PUSH2 0xA2B DUP4 DUP6 DUP4 DUP6 PUSH2 0x2CD4 JUMP JUMPDEST SWAP3 PUSH1 0x1 DUP1 PUSH1 0xA0 SHL SUB PUSH2 0xA58 PUSH1 0x2 PUSH2 0xA4A DUP8 PUSH0 MSTORE PUSH1 0x7 PUSH1 0x20 MSTORE PUSH1 0x40 PUSH0 KECCAK256 SWAP1 JUMP JUMPDEST ADD SLOAD PUSH1 0x1 PUSH1 0x1 PUSH1 0xA0 SHL SUB AND SWAP1 JUMP JUMPDEST AND PUSH2 0xBCA JUMPI PUSH2 0x62C SWAP5 DUP5 SWAP4 PUSH32 0x68DF9A4EB7AACBE8F43763BFBC9F7CA135A5397190EA1CCE2558DB52DC2F3692 SWAP4 SWAP2 SWAP3 SWAP1 SWAP2 SWAP1 PUSH1 0x1 PUSH1 0x1 PUSH1 0xA0 SHL SUB DUP1 DUP4 AND SWAP1 DUP5 AND LT ISZERO PUSH2 0xBBF JUMPI PUSH2 0xBA2 SWAP2 SWAP4 JUMPDEST PUSH2 0xB66 PUSH2 0xAAF PUSH2 0x303 JUMP JUMPDEST PUSH1 0x1 PUSH1 0x1 PUSH1 0xA0 SHL SUB DUP7 AND DUP2 MSTORE PUSH1 0x1 PUSH1 0x1 PUSH1 0xA0 SHL SUB DUP8 AND PUSH1 0x20 DUP3 ADD MSTORE PUSH1 0x1 PUSH1 0x1 PUSH1 0xA0 SHL SUB DUP4 AND PUSH1 0x40 DUP3 ADD MSTORE PUSH1 0x1 PUSH1 0x1 PUSH1 0xE8 SHL SUB NOT DUP5 AND PUSH1 0x60 DUP3 ADD MSTORE PUSH2 0xAFB DUP10 PUSH0 MSTORE PUSH1 0x7 PUSH1 0x20 MSTORE PUSH1 0x40 PUSH0 KECCAK256 SWAP1 JUMP JUMPDEST DUP2 MLOAD DUP2 SLOAD PUSH1 0x1 PUSH1 0x1 PUSH1 0xA0 SHL SUB NOT SWAP1 DUP2 AND PUSH1 0x1 PUSH1 0x1 PUSH1 0xA0 SHL SUB SWAP3 DUP4 AND OR DUP4 SSTORE PUSH1 0x20 DUP5 ADD MLOAD PUSH1 0x1 DUP5 ADD DUP1 SLOAD SWAP1 SWAP3 AND SWAP1 DUP4 AND OR SWAP1 SSTORE PUSH1 0x40 DUP4 ADD MLOAD PUSH1 0x2 SWAP1 SWAP3 ADD DUP1 SLOAD PUSH1 0x60 SWAP1 SWAP5 ADD MLOAD SWAP3 SWAP1 SWAP2 AND PUSH1 0x1 PUSH1 0x1 PUSH1 0xB8 SHL SUB NOT SWAP1 SWAP4 AND SWAP3 SWAP1 SWAP3 OR PUSH1 0x48 SWAP2 SWAP1 SWAP2 SHR PUSH3 0xFFFFFF PUSH1 0xA0 SHL AND OR SWAP1 SSTORE JUMP JUMPDEST PUSH1 0x40 DUP1 MLOAD PUSH1 0x1 PUSH1 0x1 PUSH1 0xA0 SHL SUB SWAP6 DUP7 AND DUP2 MSTORE SWAP6 DUP6 AND PUSH1 0x20 DUP8 ADD MSTORE SWAP4 AND SWAP3 DUP5 ADD SWAP3 SWAP1 SWAP3 MSTORE PUSH1 0x1 PUSH1 0x1 PUSH1 0xE8 SHL SUB NOT SWAP1 SWAP2 AND PUSH1 0x60 DUP4 ADD MSTORE DUP2 SWAP1 PUSH1 0x80 DUP3 ADD SWAP1 JUMP JUMPDEST SUB SWAP1 LOG2 PUSH0 PUSH2 0xBAE PUSH2 0x2F46 JUMP JUMPDEST TSTORE PUSH1 0x40 MLOAD SWAP1 DUP2 MSTORE SWAP1 DUP2 SWAP1 PUSH1 0x20 DUP3 ADD SWAP1 JUMP JUMPDEST PUSH2 0xBA2 SWAP2 SWAP3 SWAP4 PUSH2 0xAA4 JUMP JUMPDEST PUSH4 0xE1ECC133 PUSH1 0xE0 SHL PUSH0 MSTORE PUSH1 0x4 DUP5 SWAP1 MSTORE PUSH1 0x24 PUSH0 REVERT JUMPDEST CALLVALUE PUSH2 0x1EF JUMPI PUSH1 0x60 CALLDATASIZE PUSH1 0x3 NOT ADD SLT PUSH2 0x1EF JUMPI PUSH1 0x4 CALLDATALOAD PUSH2 0xBFB DUP2 PUSH2 0x1DE JUMP JUMPDEST PUSH2 0xC36 PUSH1 0x24 CALLDATALOAD PUSH2 0xC0A DUP2 PUSH2 0x1DE JUMP JUMPDEST PUSH1 0x44 CALLDATALOAD SWAP3 PUSH1 0x1 DUP1 PUSH1 0xA0 SHL SUB AND PUSH0 MSTORE PUSH1 0x2 PUSH1 0x20 MSTORE PUSH1 0x40 PUSH0 KECCAK256 SWAP1 PUSH1 0x1 DUP1 PUSH1 0xA0 SHL SUB AND PUSH0 MSTORE PUSH1 0x20 MSTORE PUSH1 0x40 PUSH0 KECCAK256 SWAP1 JUMP JUMPDEST SWAP1 PUSH0 MSTORE PUSH1 0x20 MSTORE PUSH1 0x20 PUSH1 0x40 PUSH0 KECCAK256 SLOAD PUSH1 0x40 MLOAD SWAP1 DUP2 MSTORE RETURN JUMPDEST CALLVALUE PUSH2 0x1EF JUMPI PUSH1 0x20 CALLDATASIZE PUSH1 0x3 NOT ADD SLT PUSH2 0x1EF JUMPI PUSH1 0x40 PUSH1 0x1 PUSH1 0x1 PUSH1 0x80 SHL SUB PUSH2 0xC8A PUSH1 0x4 CALLDATALOAD PUSH0 MSTORE PUSH1 0x6 PUSH1 0x20 MSTORE PUSH1 0x40 PUSH0 KECCAK256 SLOAD SWAP1 PUSH1 0x1 PUSH1 0x1 PUSH1 0x80 SHL SUB DUP3 AND SWAP2 PUSH1 0x80 SHR SWAP1 JUMP JUMPDEST DUP4 MLOAD SWAP2 DUP4 AND DUP3 MSTORE SWAP1 SWAP2 AND PUSH1 0x20 DUP3 ADD MSTORE RETURN JUMPDEST SWAP2 DUP2 PUSH1 0x1F DUP5 ADD SLT ISZERO PUSH2 0x1EF JUMPI DUP3 CALLDATALOAD SWAP2 PUSH1 0x1 PUSH1 0x1 PUSH1 0x40 SHL SUB DUP4 GT PUSH2 0x1EF JUMPI PUSH1 0x20 DUP1 DUP6 ADD SWAP5 DUP5 PUSH1 0x5 SHL ADD ADD GT PUSH2 0x1EF JUMPI JUMP JUMPDEST PUSH1 0x60 CALLDATASIZE PUSH1 0x3 NOT ADD SLT PUSH2 0x1EF JUMPI PUSH1 0x4 CALLDATALOAD PUSH2 0xCE3 DUP2 PUSH2 0x1DE JUMP JUMPDEST PUSH1 0x24 CALLDATALOAD PUSH1 0x1 PUSH1 0x1 PUSH1 0x40 SHL SUB DUP2 GT PUSH2 0x1EF JUMPI CALLDATASIZE PUSH1 0x23 DUP3 ADD SLT ISZERO PUSH2 0x1EF JUMPI DUP1 PUSH1 0x4 ADD CALLDATALOAD SWAP1 PUSH1 0x1 PUSH1 0x1 PUSH1 0x40 SHL SUB DUP3 GT PUSH2 0x1EF JUMPI CALLDATASIZE PUSH1 0x24 DUP4 DUP4 ADD ADD GT PUSH2 0x1EF JUMPI PUSH1 0x44 CALLDATALOAD SWAP2 PUSH1 0x1 PUSH1 0x1 PUSH1 0x40 SHL SUB DUP4 GT PUSH2 0x1EF JUMPI PUSH2 0x92E SWAP4 PUSH2 0xD45 PUSH1 0x24 SWAP5 CALLDATASIZE SWAP1 PUSH1 0x4 ADD PUSH2 0xC9B JUMP JUMPDEST SWAP5 SWAP1 SWAP4 ADD SWAP1 PUSH2 0x23EB JUMP JUMPDEST PUSH1 0x60 PUSH1 0x3 NOT DUP3 ADD SLT PUSH2 0x1EF JUMPI PUSH1 0x4 CALLDATALOAD SWAP1 PUSH1 0x1 PUSH1 0x1 PUSH1 0x40 SHL SUB DUP3 GT PUSH2 0x1EF JUMPI PUSH2 0xD79 SWAP2 PUSH1 0x4 ADD PUSH2 0x43B JUMP JUMPDEST SWAP1 PUSH1 0x24 CALLDATALOAD PUSH1 0x1 PUSH1 0x1 PUSH1 0x80 SHL SUB DUP2 AND DUP2 SUB PUSH2 0x1EF JUMPI SWAP1 PUSH1 0x44 CALLDATALOAD PUSH1 0x1 PUSH1 0x1 PUSH1 0x80 SHL SUB DUP2 AND DUP2 SUB PUSH2 0x1EF JUMPI SWAP1 JUMP JUMPDEST CALLVALUE PUSH2 0x1EF JUMPI PUSH2 0xDBB PUSH2 0xDB5 CALLDATASIZE PUSH2 0xD4F JUMP JUMPDEST SWAP2 PUSH2 0x25F6 JUMP JUMPDEST PUSH1 0x40 DUP1 MLOAD SWAP3 DUP4 MSTORE PUSH1 0x20 DUP4 ADD SWAP2 SWAP1 SWAP2 MSTORE SWAP1 RETURN JUMPDEST CALLVALUE PUSH2 0x1EF JUMPI PUSH1 0x20 CALLDATASIZE PUSH1 0x3 NOT ADD SLT PUSH2 0x1EF JUMPI PUSH1 0xFF PUSH2 0xDE8 PUSH2 0x8BF JUMP JUMPDEST AND PUSH2 0xDF5 PUSH1 0x10 DUP3 LT PUSH2 0x239F JUMP JUMPDEST PUSH0 SWAP1 DUP2 MSTORE PUSH1 0x4 PUSH1 0x20 MSTORE PUSH1 0x40 SWAP1 KECCAK256 DUP1 SLOAD PUSH1 0x1 PUSH1 0x1 PUSH1 0xA0 SHL SUB NOT AND SWAP1 SSTORE STOP JUMPDEST CALLVALUE PUSH2 0x1EF JUMPI PUSH1 0x40 CALLDATASIZE PUSH1 0x3 NOT ADD SLT PUSH2 0x1EF JUMPI PUSH2 0x92E PUSH2 0xE2E PUSH2 0x8BF JUMP JUMPDEST PUSH1 0xFF PUSH1 0x24 CALLDATALOAD SWAP2 PUSH2 0xE3D DUP4 PUSH2 0x1DE JUMP JUMPDEST AND PUSH2 0xE4A PUSH1 0x10 DUP3 LT PUSH2 0x239F JUMP JUMPDEST PUSH0 MSTORE PUSH1 0x4 PUSH1 0x20 MSTORE PUSH1 0x40 PUSH0 KECCAK256 SWAP1 PUSH1 0x1 DUP1 PUSH1 0xA0 SHL SUB AND PUSH1 0x1 PUSH1 0x1 PUSH1 0x60 SHL SUB PUSH1 0xA0 SHL DUP3 SLOAD AND OR SWAP1 SSTORE JUMP JUMPDEST CALLVALUE PUSH2 0x1EF JUMPI PUSH1 0x20 CALLDATASIZE PUSH1 0x3 NOT ADD SLT PUSH2 0x1EF JUMPI PUSH1 0xFF PUSH2 0xE8C PUSH2 0x8BF JUMP JUMPDEST AND PUSH2 0xE99 PUSH1 0x10 DUP3 LT PUSH2 0x239F JUMP JUMPDEST PUSH0 MSTORE PUSH1 0x4 PUSH1 0x20 MSTORE PUSH1 0x20 PUSH1 0x1 DUP1 PUSH1 0xA0 SHL SUB PUSH1 0x40 PUSH0 KECCAK256 SLOAD AND PUSH1 0x40 MLOAD SWAP1 DUP2 MSTORE RETURN JUMPDEST CALLVALUE PUSH2 0x1EF JUMPI PUSH1 0x20 CALLDATASIZE PUSH1 0x3 NOT ADD SLT PUSH2 0x1EF JUMPI PUSH1 0xFF PUSH2 0xED2 PUSH2 0x8BF JUMP JUMPDEST AND PUSH2 0xEDF PUSH1 0x10 DUP3 LT PUSH2 0x239F JUMP JUMPDEST PUSH0 SWAP1 DUP2 MSTORE PUSH1 0x3 PUSH1 0x20 MSTORE PUSH1 0x40 SWAP1 KECCAK256 DUP1 SLOAD PUSH1 0x1 PUSH1 0x1 PUSH1 0xA0 SHL SUB NOT AND SWAP1 SSTORE STOP JUMPDEST PUSH1 0x60 CALLDATASIZE PUSH1 0x3 NOT ADD SLT PUSH2 0x1EF JUMPI PUSH1 0x4 CALLDATALOAD PUSH1 0x1 PUSH1 0x1 PUSH1 0x40 SHL SUB DUP2 GT PUSH2 0x1EF JUMPI PUSH2 0xF27 SWAP1 CALLDATASIZE SWAP1 PUSH1 0x4 ADD PUSH2 0xC9B JUMP JUMPDEST PUSH1 0x44 CALLDATALOAD SWAP2 PUSH1 0x24 CALLDATALOAD PUSH2 0xF39 PUSH2 0xA1A PUSH2 0x2F46 JUMP JUMPDEST PUSH2 0xF44 DUP4 ISZERO ISZERO PUSH2 0x30CD JUMP JUMPDEST SWAP2 PUSH0 SWAP1 PUSH0 SWAP3 PUSH0 SWAP2 JUMPDEST DUP1 DUP4 LT PUSH2 0xFB0 JUMPI POP PUSH2 0xF6A SWAP2 POP PUSH2 0xF65 SWAP1 POP CALLER ADDRESS PUSH2 0x355B JUMP JUMPDEST TLOAD ISZERO SWAP1 JUMP JUMPDEST PUSH2 0xF9D JUMPI JUMPDEST POP POP DUP2 DUP2 LT PUSH2 0xF85 JUMPI PUSH2 0x62C SWAP1 PUSH0 PUSH2 0xBAE PUSH2 0x2F46 JUMP JUMPDEST PUSH4 0xD438755D PUSH1 0xE0 SHL PUSH0 MSTORE PUSH1 0x4 SWAP2 SWAP1 SWAP2 MSTORE PUSH1 0x24 MSTORE PUSH1 0x44 PUSH0 REVERT JUMPDEST PUSH2 0xFA9 SWAP2 CALLVALUE SWAP2 CALLER PUSH2 0x3293 JUMP JUMPDEST PUSH0 DUP1 PUSH2 0xF6F JUMP JUMPDEST SWAP1 SWAP2 SWAP5 PUSH2 0xFBE DUP7 DUP4 DUP6 PUSH2 0x3103 JUMP JUMPDEST DUP7 ISZERO DUP1 PUSH2 0xFCA DUP6 PUSH2 0x2377 JUMP JUMPDEST DUP10 EQ SWAP2 PUSH2 0x1043 JUMPI JUMPDEST DUP2 PUSH2 0x1002 JUMPI JUMPDEST SWAP2 PUSH1 0x1 SWAP4 SWAP2 PUSH2 0xFF3 SWAP4 DUP1 PUSH0 EQ PUSH2 0xFFC JUMPI CALLVALUE JUMPDEST ADDRESS SWAP5 CALLER SWAP5 PUSH2 0x3846 JUMP JUMPDEST SWAP6 ADD SWAP2 SWAP1 PUSH2 0xF4C JUMP JUMPDEST PUSH0 PUSH2 0xFEA JUMP JUMPDEST SWAP7 POP SWAP2 DUP2 PUSH1 0x1 SWAP4 PUSH2 0x1018 PUSH1 0xA0 PUSH2 0xFF3 SWAP6 ADD PUSH2 0x3125 JUMP JUMPDEST ISZERO PUSH2 0x1035 JUMPI PUSH2 0x1029 PUSH1 0x20 DUP4 ADD PUSH2 0x312F JUMP JUMPDEST SWAP9 SWAP2 SWAP4 POP SWAP2 SWAP4 POP PUSH2 0xFD8 JUMP JUMPDEST PUSH2 0x103E DUP3 PUSH2 0x312F JUMP JUMPDEST PUSH2 0x1029 JUMP JUMPDEST DUP2 SWAP7 POP PUSH2 0x1052 PUSH1 0xA0 DUP5 ADD PUSH2 0x3125 JUMP JUMPDEST ISZERO PUSH2 0x1067 JUMPI PUSH2 0x1060 DUP4 PUSH2 0x312F JUMP JUMPDEST SWAP7 POP PUSH2 0xFD2 JUMP JUMPDEST PUSH2 0x1073 PUSH1 0x20 DUP5 ADD PUSH2 0x312F JUMP JUMPDEST PUSH2 0x1060 JUMP JUMPDEST CALLVALUE PUSH2 0x1EF JUMPI PUSH0 CALLDATASIZE PUSH1 0x3 NOT ADD SLT PUSH2 0x1EF JUMPI PUSH1 0x40 MLOAD PUSH32 0x0 PUSH1 0x1 PUSH1 0x1 PUSH1 0xA0 SHL SUB AND DUP2 MSTORE PUSH1 0x20 SWAP1 RETURN JUMPDEST CALLVALUE PUSH2 0x1EF JUMPI PUSH1 0x20 CALLDATASIZE PUSH1 0x3 NOT ADD SLT PUSH2 0x1EF JUMPI PUSH1 0x4 CALLDATALOAD PUSH0 MSTORE PUSH1 0x5 PUSH1 0x20 MSTORE PUSH1 0x20 PUSH1 0x40 PUSH0 KECCAK256 SLOAD PUSH1 0x40 MLOAD SWAP1 DUP2 MSTORE RETURN JUMPDEST CALLVALUE PUSH2 0x1EF JUMPI PUSH1 0x40 CALLDATASIZE PUSH1 0x3 NOT ADD SLT PUSH2 0x1EF JUMPI PUSH1 0x20 PUSH1 0xFF PUSH2 0x113D PUSH1 0x4 CALLDATALOAD PUSH2 0x110A DUP2 PUSH2 0x1DE JUMP JUMPDEST PUSH1 0x24 CALLDATALOAD SWAP1 PUSH2 0x1117 DUP3 PUSH2 0x1DE JUMP JUMPDEST PUSH1 0x1 DUP1 PUSH1 0xA0 SHL SUB AND PUSH0 MSTORE PUSH0 DUP5 MSTORE PUSH1 0x40 PUSH0 KECCAK256 SWAP1 PUSH1 0x1 DUP1 PUSH1 0xA0 SHL SUB AND PUSH0 MSTORE PUSH1 0x20 MSTORE PUSH1 0x40 PUSH0 KECCAK256 SWAP1 JUMP JUMPDEST SLOAD AND PUSH1 0x40 MLOAD SWAP1 ISZERO ISZERO DUP2 MSTORE RETURN JUMPDEST CALLVALUE PUSH2 0x1EF JUMPI PUSH1 0xA0 CALLDATASIZE PUSH1 0x3 NOT ADD SLT PUSH2 0x1EF JUMPI PUSH1 0x4 CALLDATALOAD PUSH2 0x1166 DUP2 PUSH2 0x1DE JUMP JUMPDEST PUSH1 0x1 PUSH1 0x1 PUSH1 0x80 SHL SUB PUSH1 0x24 CALLDATALOAD PUSH2 0x117A DUP2 PUSH2 0x1DE JUMP JUMPDEST PUSH1 0x44 CALLDATALOAD SWAP3 PUSH2 0x1187 DUP5 PUSH2 0x1DE JUMP JUMPDEST PUSH2 0x11B7 PUSH1 0x64 CALLDATALOAD PUSH2 0x1196 DUP2 PUSH2 0x3B8 JUMP JUMPDEST PUSH1 0x84 CALLDATALOAD SWAP6 PUSH2 0x11A5 PUSH2 0xA1A PUSH2 0x2F46 JUMP JUMPDEST PUSH2 0x11B0 DUP8 ISZERO ISZERO PUSH2 0x2A38 JUMP JUMPDEST DUP5 DUP5 PUSH2 0x2CD4 JUMP JUMPDEST PUSH2 0x123F PUSH2 0x122D DUP6 PUSH2 0x1225 PUSH2 0x120C PUSH2 0x11E6 DUP7 PUSH0 MSTORE PUSH1 0x6 PUSH1 0x20 MSTORE PUSH1 0x40 PUSH0 KECCAK256 SLOAD SWAP1 PUSH1 0x1 PUSH1 0x1 PUSH1 0x80 SHL SUB DUP3 AND SWAP2 PUSH1 0x80 SHR SWAP1 JUMP JUMPDEST SWAP10 SWAP1 PUSH2 0x1205 PUSH2 0x11FD DUP10 PUSH0 MSTORE PUSH1 0x5 PUSH1 0x20 MSTORE PUSH1 0x40 PUSH0 KECCAK256 SWAP1 JUMP JUMPDEST SLOAD ISZERO ISZERO PUSH2 0x2A84 JUMP JUMPDEST AND DUP11 PUSH2 0x2B0F JUMP JUMPDEST PUSH2 0x121E DUP7 PUSH0 MSTORE PUSH1 0x5 PUSH1 0x20 MSTORE PUSH1 0x40 PUSH0 KECCAK256 SWAP1 JUMP JUMPDEST SLOAD SWAP1 PUSH2 0x2B22 JUMP JUMPDEST SWAP7 AND DUP8 PUSH2 0x2B0F JUMP JUMPDEST PUSH2 0x121E DUP4 PUSH0 MSTORE PUSH1 0x5 PUSH1 0x20 MSTORE PUSH1 0x40 PUSH0 KECCAK256 SWAP1 JUMP JUMPDEST SWAP5 DUP5 ISZERO DUP1 PUSH2 0x1390 JUMPI JUMPDEST PUSH2 0x1377 JUMPI SWAP1 DUP2 PUSH2 0x125C PUSH2 0x12AB SWAP4 DUP4 CALLER PUSH2 0x3139 JUMP JUMPDEST PUSH2 0x1279 PUSH2 0x1271 DUP4 PUSH0 MSTORE PUSH1 0x5 PUSH1 0x20 MSTORE PUSH1 0x40 PUSH0 KECCAK256 SWAP1 JUMP JUMPDEST SWAP2 DUP3 SLOAD PUSH2 0x2385 JUMP JUMPDEST SWAP1 SSTORE PUSH2 0x1290 PUSH1 0x1 PUSH1 0x1 PUSH1 0x80 SHL SUB DUP7 AND PUSH1 0xF SIGNEXTEND PUSH2 0x2B40 JUMP JUMPDEST PUSH2 0x12A5 PUSH1 0x1 PUSH1 0x1 PUSH1 0x80 SHL SUB DUP9 AND PUSH1 0xF SIGNEXTEND PUSH2 0x2B40 JUMP JUMPDEST SWAP2 PUSH2 0x31B8 JUMP JUMPDEST PUSH1 0x1 PUSH1 0x1 PUSH1 0xA0 SHL SUB DUP3 DUP2 AND SWAP1 DUP3 AND LT SWAP1 PUSH2 0x12EC SWAP1 DUP3 ISZERO PUSH2 0x136B JUMPI PUSH2 0x12E5 DUP6 SWAP5 DUP8 SWAP3 JUMPDEST DUP6 ISZERO PUSH2 0x1364 JUMPI DUP1 SWAP6 JUMPDEST ISZERO PUSH2 0x135C JUMPI POP SWAP5 JUMPDEST DUP5 CALLER PUSH2 0x320E JUMP JUMPDEST DUP4 CALLER PUSH2 0x320E JUMP JUMPDEST PUSH2 0x12F9 PUSH2 0xF65 CALLER ADDRESS PUSH2 0x355B JUMP JUMPDEST PUSH2 0x131B JUMPI JUMPDEST POP POP PUSH0 PUSH2 0x1309 PUSH2 0x2F46 JUMP JUMPDEST TSTORE PUSH1 0x40 DUP1 MLOAD SWAP2 DUP3 MSTORE PUSH1 0x20 DUP3 ADD SWAP3 SWAP1 SWAP3 MSTORE RETURN JUMPDEST PUSH2 0x134F PUSH2 0x1355 SWAP3 PUSH2 0x1346 PUSH2 0x132D PUSH2 0x2B60 JUMP JUMPDEST SWAP4 PUSH2 0x1337 DUP6 PUSH2 0x1AB5 JUMP JUMPDEST PUSH1 0x1 PUSH1 0x1 PUSH1 0xA0 SHL SUB SWAP1 SWAP2 AND SWAP1 MSTORE JUMP JUMPDEST PUSH2 0x1337 DUP4 PUSH2 0x1AC7 JUMP JUMPDEST CALLER PUSH2 0x2F95 JUMP JUMPDEST PUSH0 DUP1 PUSH2 0x12FE JUMP JUMPDEST SWAP1 POP SWAP5 PUSH2 0x12DE JUMP JUMPDEST DUP2 SWAP6 PUSH2 0x12D6 JUMP JUMPDEST PUSH2 0x12E5 DUP7 SWAP5 DUP7 SWAP3 PUSH2 0x12CD JUMP JUMPDEST PUSH4 0xD5DE6205 PUSH1 0xE0 SHL PUSH0 MSTORE PUSH1 0x4 DUP6 SWAP1 MSTORE PUSH1 0x24 DUP7 SWAP1 MSTORE PUSH1 0x44 PUSH0 REVERT JUMPDEST POP DUP6 ISZERO PUSH2 0x1248 JUMP JUMPDEST CALLVALUE PUSH2 0x1EF JUMPI PUSH1 0x20 CALLDATASIZE PUSH1 0x3 NOT ADD SLT PUSH2 0x1EF JUMPI PUSH1 0xFF PUSH2 0x13B3 PUSH2 0x8BF JUMP JUMPDEST AND PUSH2 0x13C0 PUSH1 0x10 DUP3 LT PUSH2 0x239F JUMP JUMPDEST PUSH0 MSTORE PUSH1 0x3 PUSH1 0x20 MSTORE PUSH1 0x20 PUSH1 0x1 DUP1 PUSH1 0xA0 SHL SUB PUSH1 0x40 PUSH0 KECCAK256 SLOAD AND PUSH1 0x40 MLOAD SWAP1 DUP2 MSTORE RETURN JUMPDEST PUSH1 0xE0 CALLDATASIZE PUSH1 0x3 NOT ADD SLT PUSH2 0x1EF JUMPI PUSH1 0x4 CALLDATALOAD PUSH2 0x13F6 DUP2 PUSH2 0x1DE JUMP JUMPDEST PUSH1 0x24 CALLDATALOAD SWAP1 PUSH2 0x1403 DUP3 PUSH2 0x1DE JUMP JUMPDEST PUSH1 0x44 CALLDATALOAD SWAP1 PUSH2 0x1410 DUP3 PUSH2 0x1DE JUMP JUMPDEST PUSH1 0x64 CALLDATALOAD PUSH2 0x141C DUP2 PUSH2 0x3B8 JUMP JUMPDEST PUSH1 0x84 CALLDATALOAD SWAP2 PUSH1 0xA4 CALLDATALOAD SWAP2 PUSH2 0x142D DUP4 PUSH2 0x3A3 JUMP JUMPDEST PUSH1 0xC4 CALLDATALOAD PUSH2 0x1438 PUSH2 0x2F46 JUMP JUMPDEST PUSH2 0x1441 SWAP1 PUSH2 0x2F89 JUMP JUMPDEST PUSH2 0x144D DUP3 DUP8 DUP10 DUP7 PUSH2 0x2CD4 JUMP JUMPDEST SWAP2 DUP8 PUSH2 0x1471 DUP5 PUSH0 MSTORE PUSH1 0x6 PUSH1 0x20 MSTORE PUSH1 0x40 PUSH0 KECCAK256 SLOAD SWAP1 PUSH1 0x1 PUSH1 0x1 PUSH1 0x80 SHL SUB DUP3 AND SWAP2 PUSH1 0x80 SHR SWAP1 JUMP JUMPDEST SWAP9 SWAP1 DUP1 SWAP4 DUP11 SWAP3 DUP11 PUSH2 0x1480 PUSH2 0x1A4D JUMP JUMPDEST PUSH2 0x1488 PUSH2 0x1A4D JUMP JUMPDEST SWAP3 PUSH2 0x1491 PUSH2 0x2F4 JUMP JUMPDEST PUSH1 0x1 PUSH1 0x1 PUSH1 0xA0 SHL SUB DUP14 AND DUP2 MSTORE SWAP8 PUSH1 0x1 PUSH1 0x1 PUSH1 0xA0 SHL SUB AND PUSH1 0x20 DUP10 ADD MSTORE PUSH1 0x1 PUSH1 0x1 PUSH1 0xA0 SHL SUB AND PUSH1 0x40 DUP9 ADD MSTORE PUSH1 0x60 DUP8 ADD SWAP1 DUP2 MSTORE DUP12 ISZERO ISZERO PUSH1 0x80 DUP9 ADD MSTORE PUSH1 0xA0 DUP8 ADD SWAP3 DUP4 MSTORE MLOAD PUSH2 0x14DA SWAP1 PUSH2 0x1AB5 JUMP JUMPDEST MSTORE MLOAD PUSH2 0x14E5 SWAP1 PUSH2 0x1AB5 JUMP JUMPDEST PUSH1 0x1 PUSH1 0x1 PUSH1 0xE8 SHL SUB NOT SWAP1 SWAP2 AND SWAP1 MSTORE PUSH2 0x14FC SWAP3 PUSH2 0x25F6 JUMP JUMPDEST POP SWAP7 DUP8 ISZERO PUSH2 0x161F JUMPI DUP8 DUP7 SWAP2 PUSH2 0x1510 SWAP4 PUSH2 0x3221 JUMP JUMPDEST DUP1 DUP7 LT PUSH2 0x1608 JUMPI POP PUSH2 0x62C SWAP6 PUSH2 0x1589 SWAP3 PUSH2 0x1582 SWAP3 PUSH2 0x156D SWAP1 PUSH1 0x1 PUSH1 0x1 PUSH1 0xA0 SHL SUB DUP1 DUP6 AND SWAP1 DUP5 AND LT ISZERO PUSH2 0x1601 JUMPI DUP7 JUMPDEST DUP1 ISZERO PUSH2 0x15E6 JUMPI PUSH1 0x1 PUSH1 0x1 PUSH1 0x80 SHL SUB DUP10 AND PUSH1 0xF SIGNEXTEND SWAP1 JUMPDEST ISZERO PUSH2 0x15D3 JUMPI PUSH2 0x12A5 PUSH1 0x1 PUSH1 0x1 PUSH1 0x80 SHL SUB DUP12 AND PUSH1 0xF SIGNEXTEND PUSH2 0x2B40 JUMP JUMPDEST DUP5 ISZERO PUSH2 0x15CC JUMPI DUP1 SWAP5 JUMPDEST ISZERO PUSH2 0x15C4 JUMPI POP SWAP4 PUSH2 0x2B82 JUMP JUMPDEST DUP3 CALLER PUSH2 0x320E JUMP JUMPDEST PUSH2 0x1594 DUP4 DUP4 CALLER PUSH2 0x320E JUMP JUMPDEST PUSH2 0x15A1 PUSH2 0xF65 CALLER ADDRESS PUSH2 0x355B JUMP JUMPDEST PUSH2 0x15B1 JUMPI JUMPDEST POP POP PUSH0 PUSH2 0xBAE PUSH2 0x2F46 JUMP JUMPDEST PUSH2 0x15BD SWAP2 CALLVALUE SWAP2 CALLER PUSH2 0x3293 JUMP JUMPDEST PUSH0 DUP1 PUSH2 0x15A6 JUMP JUMPDEST SWAP1 POP SWAP4 PUSH2 0x2B82 JUMP JUMPDEST DUP2 SWAP5 PUSH2 0x1576 JUMP JUMPDEST PUSH1 0x1 PUSH1 0x1 PUSH1 0x80 SHL SUB DUP10 AND PUSH1 0xF SIGNEXTEND SWAP2 PUSH2 0x31B8 JUMP JUMPDEST PUSH2 0x15FB PUSH1 0x1 PUSH1 0x1 PUSH1 0x80 SHL SUB DUP12 AND PUSH1 0xF SIGNEXTEND PUSH2 0x2B40 JUMP JUMPDEST SWAP1 PUSH2 0x1553 JUMP JUMPDEST DUP7 ISZERO PUSH2 0x153E JUMP JUMPDEST PUSH4 0xD438755D PUSH1 0xE0 SHL PUSH0 MSTORE PUSH1 0x4 MSTORE PUSH1 0x24 DUP6 SWAP1 MSTORE PUSH1 0x44 PUSH0 REVERT JUMPDEST PUSH4 0x14033F21 PUSH1 0xE1 SHL PUSH0 MSTORE PUSH1 0x4 PUSH0 REVERT JUMPDEST PUSH1 0xC0 CALLDATASIZE PUSH1 0x3 NOT ADD SLT PUSH2 0x1EF JUMPI PUSH1 0x4 CALLDATALOAD PUSH2 0x1646 DUP2 PUSH2 0x1DE JUMP JUMPDEST PUSH1 0x24 CALLDATALOAD PUSH2 0x1652 DUP2 PUSH2 0x1DE JUMP JUMPDEST PUSH1 0x44 CALLDATALOAD SWAP2 PUSH2 0x165F DUP4 PUSH2 0x1DE JUMP JUMPDEST PUSH1 0x64 CALLDATALOAD SWAP2 PUSH2 0x166C DUP4 PUSH2 0x3B8 JUMP JUMPDEST PUSH1 0x84 CALLDATALOAD SWAP4 PUSH1 0xA4 CALLDATALOAD SWAP1 PUSH2 0x167F PUSH2 0xA1A PUSH2 0x2F46 JUMP JUMPDEST PUSH2 0x168B DUP6 DUP3 DUP6 DUP8 PUSH2 0x2CD4 JUMP JUMPDEST SWAP6 PUSH1 0x1 PUSH1 0x1 PUSH1 0xA0 SHL SUB DUP5 DUP2 AND SWAP1 DUP7 AND LT SWAP5 DUP6 ISZERO PUSH2 0x1899 JUMPI SWAP4 SWAP5 JUMPDEST ISZERO PUSH2 0x1893 JUMPI SWAP2 SWAP5 JUMPDEST PUSH0 DUP8 DUP2 MSTORE PUSH1 0x6 PUSH1 0x20 MSTORE PUSH1 0x40 SWAP1 KECCAK256 SLOAD PUSH1 0x1 PUSH1 0x1 PUSH1 0x80 SHL SUB DUP2 AND SWAP1 PUSH1 0x80 SHR SWAP2 SWAP1 SWAP3 PUSH2 0x16DE DUP10 PUSH0 MSTORE PUSH1 0x5 PUSH1 0x20 MSTORE PUSH1 0x40 PUSH0 KECCAK256 SWAP1 JUMP JUMPDEST SLOAD PUSH2 0x17C7 JUMPI POP POP DUP3 PUSH1 0x1 PUSH1 0x1 PUSH1 0x80 SHL SUB DUP1 PUSH2 0x172C DUP11 SWAP6 PUSH2 0x62C SWAP12 PUSH2 0x1762 SWAP7 PUSH2 0x177B SWAP10 ISZERO ISZERO DUP1 PUSH2 0x17BE JUMPI JUMPDEST PUSH2 0x1711 SWAP1 PUSH2 0x2B92 JUMP JUMPDEST PUSH2 0x1723 DUP14 PUSH2 0x171E DUP10 PUSH2 0x2AC7 JUMP JUMPDEST PUSH2 0x2B22 JUMP JUMPDEST SWAP3 JUMPDEST DUP14 DUP9 PUSH2 0x3401 JUMP JUMPDEST SWAP9 PUSH2 0x1740 PUSH2 0x1739 DUP6 PUSH2 0x2B82 JUMP JUMPDEST DUP10 CALLER PUSH2 0x320E JUMP JUMPDEST PUSH2 0x1753 PUSH2 0x174C DUP3 PUSH2 0x2B82 JUMP JUMPDEST DUP11 CALLER PUSH2 0x320E JUMP JUMPDEST AND PUSH1 0xF SIGNEXTEND SWAP2 AND PUSH1 0xF SIGNEXTEND DUP4 PUSH2 0x31B8 JUMP JUMPDEST PUSH2 0x176D DUP6 DUP3 CALLER PUSH2 0x34CE JUMP JUMPDEST PUSH0 MSTORE PUSH1 0x5 PUSH1 0x20 MSTORE PUSH1 0x40 PUSH0 KECCAK256 SWAP1 JUMP JUMPDEST PUSH2 0x1786 DUP5 DUP3 SLOAD PUSH2 0x2392 JUMP JUMPDEST SWAP1 SSTORE PUSH2 0x1795 PUSH2 0xF65 CALLER ADDRESS PUSH2 0x355B JUMP JUMPDEST PUSH2 0x17A4 JUMPI POP POP PUSH0 PUSH2 0xBAE PUSH2 0x2F46 JUMP JUMPDEST PUSH2 0x17B6 PUSH2 0x15BD SWAP3 PUSH2 0x1346 PUSH2 0x132D PUSH2 0x2B60 JUMP JUMPDEST CALLVALUE SWAP1 CALLER PUSH2 0x302A JUMP JUMPDEST POP DUP13 ISZERO ISZERO PUSH2 0x1708 JUMP JUMPDEST DUP4 DUP7 PUSH2 0x1867 PUSH2 0x186C SWAP5 PUSH2 0x1857 DUP12 PUSH8 0xDE0B6B3A7640000 SWAP10 SWAP15 SWAP10 PUSH2 0x1850 DUP11 SWAP9 PUSH2 0x1837 PUSH2 0x17F0 PUSH2 0x1A4D JUMP JUMPDEST SWAP2 PUSH2 0x1827 PUSH2 0x17FC PUSH2 0x1A4D JUMP JUMPDEST SWAP7 PUSH2 0x1817 PUSH2 0x1808 PUSH2 0x2F4 JUMP JUMPDEST PUSH1 0x1 PUSH1 0x1 PUSH1 0xA0 SHL SUB SWAP1 SWAP14 AND DUP14 MSTORE JUMP JUMPDEST PUSH1 0x1 PUSH1 0x1 PUSH1 0xA0 SHL SUB AND PUSH1 0x20 DUP13 ADD MSTORE JUMP JUMPDEST PUSH1 0x1 PUSH1 0x1 PUSH1 0xA0 SHL SUB AND PUSH1 0x40 DUP11 ADD MSTORE JUMP JUMPDEST PUSH1 0x60 DUP9 ADD DUP2 SWAP1 MSTORE PUSH0 PUSH1 0x80 DUP10 ADD MSTORE PUSH1 0xA0 DUP9 ADD SWAP4 DUP5 MSTORE PUSH2 0x1AB5 JUMP JUMPDEST MSTORE MLOAD PUSH2 0x1AB5 JUMP JUMPDEST PUSH1 0x1 PUSH1 0x1 PUSH1 0xE8 SHL SUB NOT SWAP1 SWAP2 AND SWAP1 MSTORE JUMP JUMPDEST PUSH2 0x25F6 JUMP JUMPDEST POP SWAP3 DUP4 ISZERO PUSH2 0x161F JUMPI PUSH1 0x1 PUSH1 0x1 PUSH1 0x80 SHL SUB DUP1 PUSH2 0x172C PUSH2 0x62C SWAP11 DUP7 PUSH2 0x1762 SWAP7 PUSH2 0x177B SWAP10 SWAP3 PUSH2 0x1725 JUMP JUMPDEST SWAP5 PUSH2 0x16AD JUMP JUMPDEST SWAP5 PUSH2 0x16A5 JUMP JUMPDEST CALLVALUE PUSH2 0x1EF JUMPI PUSH1 0x80 CALLDATASIZE PUSH1 0x3 NOT ADD SLT PUSH2 0x1EF JUMPI PUSH1 0x4 CALLDATALOAD PUSH2 0x18BC DUP2 PUSH2 0x1DE JUMP JUMPDEST PUSH1 0x24 CALLDATALOAD PUSH2 0x18C8 DUP2 PUSH2 0x1DE JUMP JUMPDEST PUSH1 0x44 CALLDATALOAD SWAP2 PUSH0 MLOAD PUSH1 0x20 PUSH2 0x4176 PUSH0 CODECOPY PUSH0 MLOAD SWAP1 PUSH0 MSTORE PUSH2 0x6DE PUSH1 0x64 CALLDATALOAD SWAP4 PUSH1 0x1 PUSH1 0x1 PUSH1 0xA0 SHL SUB DUP5 AND SWAP4 PUSH2 0x192A SWAP1 DUP8 SWAP1 PUSH2 0x191D SWAP1 CALLER DUP9 EQ ISZERO DUP1 PUSH2 0x1A19 JUMPI JUMPDEST PUSH2 0x1989 JUMPI PUSH1 0x1 PUSH1 0x1 PUSH1 0xA0 SHL SUB AND PUSH0 SWAP1 DUP2 MSTORE PUSH1 0x1 PUSH1 0x20 MSTORE PUSH1 0x40 SWAP1 KECCAK256 SWAP1 JUMP JUMPDEST SWAP1 PUSH0 MSTORE PUSH1 0x20 MSTORE PUSH1 0x40 PUSH0 KECCAK256 SWAP1 JUMP JUMPDEST PUSH2 0x1935 DUP7 DUP3 SLOAD PUSH2 0x2385 JUMP JUMPDEST SWAP1 SSTORE PUSH1 0x1 PUSH1 0x1 PUSH1 0xA0 SHL SUB DUP2 AND PUSH0 SWAP1 DUP2 MSTORE PUSH1 0x1 PUSH1 0x20 MSTORE PUSH1 0x40 SWAP1 KECCAK256 PUSH2 0x1959 SWAP1 DUP8 SWAP1 PUSH2 0x191D JUMP JUMPDEST PUSH2 0x1964 DUP7 DUP3 SLOAD PUSH2 0x2392 JUMP JUMPDEST SWAP1 SSTORE PUSH1 0x40 DUP1 MLOAD CALLER DUP2 MSTORE PUSH1 0x20 DUP2 ADD SWAP7 SWAP1 SWAP7 MSTORE PUSH1 0x1 PUSH1 0x1 PUSH1 0xA0 SHL SUB SWAP1 SWAP2 AND SWAP5 SWAP2 DUP3 SWAP2 DUP3 ADD SWAP1 JUMP JUMPDEST PUSH2 0x19C0 DUP4 PUSH2 0x191D CALLER PUSH2 0x19AB DUP6 PUSH1 0x1 DUP1 PUSH1 0xA0 SHL SUB AND PUSH0 MSTORE PUSH1 0x2 PUSH1 0x20 MSTORE PUSH1 0x40 PUSH0 KECCAK256 SWAP1 JUMP JUMPDEST SWAP1 PUSH1 0x1 DUP1 PUSH1 0xA0 SHL SUB AND PUSH0 MSTORE PUSH1 0x20 MSTORE PUSH1 0x40 PUSH0 KECCAK256 SWAP1 JUMP JUMPDEST SLOAD DUP10 PUSH1 0x1 DUP3 ADD PUSH2 0x19E6 JUMPI JUMPDEST POP POP PUSH1 0x1 PUSH1 0x1 PUSH1 0xA0 SHL SUB AND PUSH0 SWAP1 DUP2 MSTORE PUSH1 0x1 PUSH1 0x20 MSTORE PUSH1 0x40 SWAP1 KECCAK256 SWAP1 JUMP JUMPDEST PUSH2 0x19EF SWAP2 PUSH2 0x2385 JUMP JUMPDEST PUSH2 0x1A11 DUP5 PUSH2 0x191D CALLER PUSH2 0x19AB DUP7 PUSH1 0x1 DUP1 PUSH1 0xA0 SHL SUB AND PUSH0 MSTORE PUSH1 0x2 PUSH1 0x20 MSTORE PUSH1 0x40 PUSH0 KECCAK256 SWAP1 JUMP JUMPDEST SSTORE PUSH0 DUP10 PUSH2 0x19CB JUMP JUMPDEST POP PUSH2 0x1A48 PUSH2 0x1A44 PUSH2 0x1A3D CALLER PUSH2 0x19AB DUP6 PUSH1 0x1 DUP1 PUSH1 0xA0 SHL SUB AND PUSH0 MSTORE PUSH0 PUSH1 0x20 MSTORE PUSH1 0x40 PUSH0 KECCAK256 SWAP1 JUMP JUMPDEST SLOAD PUSH1 0xFF AND SWAP1 JUMP JUMPDEST ISZERO SWAP1 JUMP JUMPDEST PUSH2 0x1900 JUMP JUMPDEST PUSH1 0x40 DUP1 MLOAD SWAP1 SWAP2 SWAP1 PUSH2 0x1A5E DUP4 DUP3 PUSH2 0x2D3 JUMP JUMPDEST PUSH1 0x1 DUP2 MSTORE SWAP2 PUSH1 0x1F NOT ADD CALLDATASIZE PUSH1 0x20 DUP5 ADD CALLDATACOPY JUMP JUMPDEST SWAP1 PUSH2 0x1A79 DUP3 PUSH2 0x322 JUMP JUMPDEST PUSH2 0x1A86 PUSH1 0x40 MLOAD SWAP2 DUP3 PUSH2 0x2D3 JUMP JUMPDEST DUP3 DUP2 MSTORE DUP1 SWAP3 PUSH2 0x1A97 PUSH1 0x1F NOT SWAP2 PUSH2 0x322 JUMP JUMPDEST ADD SWAP1 PUSH1 0x20 CALLDATASIZE SWAP2 ADD CALLDATACOPY JUMP JUMPDEST PUSH4 0x4E487B71 PUSH1 0xE0 SHL PUSH0 MSTORE PUSH1 0x32 PUSH1 0x4 MSTORE PUSH1 0x24 PUSH0 REVERT JUMPDEST DUP1 MLOAD ISZERO PUSH2 0x1AC2 JUMPI PUSH1 0x20 ADD SWAP1 JUMP JUMPDEST PUSH2 0x1AA1 JUMP JUMPDEST DUP1 MLOAD PUSH1 0x1 LT ISZERO PUSH2 0x1AC2 JUMPI PUSH1 0x40 ADD SWAP1 JUMP JUMPDEST DUP1 MLOAD DUP3 LT ISZERO PUSH2 0x1AC2 JUMPI PUSH1 0x20 SWAP2 PUSH1 0x5 SHL ADD ADD SWAP1 JUMP JUMPDEST ISZERO PUSH2 0x1AF2 JUMPI JUMP JUMPDEST PUSH1 0x40 MLOAD PUSH3 0x461BCD PUSH1 0xE5 SHL DUP2 MSTORE PUSH1 0x20 PUSH1 0x4 DUP3 ADD MSTORE PUSH1 0x14 PUSH1 0x24 DUP3 ADD MSTORE PUSH20 0x426574612061646472657373206973207A65726F PUSH1 0x60 SHL PUSH1 0x44 DUP3 ADD MSTORE PUSH1 0x64 SWAP1 REVERT JUMPDEST SWAP1 DUP1 PUSH1 0x1F DUP4 ADD SLT ISZERO PUSH2 0x1EF JUMPI DUP2 MLOAD PUSH2 0x1B45 DUP2 PUSH2 0x322 JUMP JUMPDEST SWAP3 PUSH2 0x1B53 PUSH1 0x40 MLOAD SWAP5 DUP6 PUSH2 0x2D3 JUMP JUMPDEST DUP2 DUP5 MSTORE PUSH1 0x20 DUP1 DUP6 ADD SWAP3 PUSH1 0x5 SHL DUP3 ADD ADD SWAP3 DUP4 GT PUSH2 0x1EF JUMPI PUSH1 0x20 ADD SWAP1 JUMPDEST DUP3 DUP3 LT PUSH2 0x1B7B JUMPI POP POP POP SWAP1 JUMP JUMPDEST DUP2 MLOAD DUP2 MSTORE PUSH1 0x20 SWAP2 DUP3 ADD SWAP2 ADD PUSH2 0x1B6E JUMP JUMPDEST SWAP1 PUSH1 0x20 DUP3 DUP3 SUB SLT PUSH2 0x1EF JUMPI DUP2 MLOAD PUSH1 0x1 PUSH1 0x1 PUSH1 0x40 SHL SUB DUP2 GT PUSH2 0x1EF JUMPI PUSH2 0x3A0 SWAP3 ADD PUSH2 0x1B2E JUMP JUMPDEST SWAP1 PUSH1 0x20 DUP1 DUP4 MLOAD SWAP3 DUP4 DUP2 MSTORE ADD SWAP3 ADD SWAP1 PUSH0 JUMPDEST DUP2 DUP2 LT PUSH2 0x1BCD JUMPI POP POP POP SWAP1 JUMP JUMPDEST DUP3 MLOAD PUSH1 0x1 PUSH1 0x1 PUSH1 0x80 SHL SUB AND DUP5 MSTORE PUSH1 0x20 SWAP4 DUP5 ADD SWAP4 SWAP1 SWAP3 ADD SWAP2 PUSH1 0x1 ADD PUSH2 0x1BC0 JUMP JUMPDEST SWAP1 PUSH1 0x20 DUP1 DUP4 MLOAD SWAP3 DUP4 DUP2 MSTORE ADD SWAP3 ADD SWAP1 PUSH0 JUMPDEST DUP2 DUP2 LT PUSH2 0x1C09 JUMPI POP POP POP SWAP1 JUMP JUMPDEST DUP3 MLOAD PUSH2 0xFFFF AND DUP5 MSTORE PUSH1 0x20 SWAP4 DUP5 ADD SWAP4 SWAP1 SWAP3 ADD SWAP2 PUSH1 0x1 ADD PUSH2 0x1BFC JUMP JUMPDEST DUP1 MLOAD PUSH1 0x1 PUSH1 0x1 PUSH1 0xA0 SHL SUB AND DUP3 MSTORE SWAP1 PUSH2 0x3A0 SWAP1 PUSH1 0x20 DUP4 DUP2 ADD MLOAD PUSH1 0x1 PUSH1 0x1 PUSH1 0xA0 SHL SUB AND SWAP1 DUP3 ADD MSTORE PUSH1 0x40 DUP4 DUP2 ADD MLOAD PUSH1 0x1 PUSH1 0x1 PUSH1 0xA0 SHL SUB AND SWAP1 DUP3 ADD MSTORE PUSH1 0xE0 DUP1 PUSH2 0x1CB8 PUSH2 0x1CA6 PUSH2 0x1C94 PUSH2 0x1C82 PUSH1 0x60 DUP10 ADD MLOAD PUSH2 0x100 PUSH1 0x60 DUP10 ADD MSTORE PUSH2 0x100 DUP9 ADD SWAP1 PUSH2 0x5AD JUMP JUMPDEST PUSH1 0x80 DUP10 ADD MLOAD DUP8 DUP3 SUB PUSH1 0x80 DUP10 ADD MSTORE PUSH2 0x1BB0 JUMP JUMPDEST PUSH1 0xA0 DUP9 ADD MLOAD DUP7 DUP3 SUB PUSH1 0xA0 DUP9 ADD MSTORE PUSH2 0x1BB0 JUMP JUMPDEST PUSH1 0xC0 DUP8 ADD MLOAD DUP6 DUP3 SUB PUSH1 0xC0 DUP8 ADD MSTORE PUSH2 0x1BEC JUMP JUMPDEST SWAP5 ADD MLOAD ISZERO ISZERO SWAP2 ADD MSTORE JUMP JUMPDEST DUP1 MLOAD DUP1 DUP4 MSTORE PUSH1 0x20 SWAP3 SWAP2 DUP2 SWAP1 DUP5 ADD DUP5 DUP5 ADD MCOPY PUSH0 DUP3 DUP3 ADD DUP5 ADD MSTORE PUSH1 0x1F ADD PUSH1 0x1F NOT AND ADD ADD SWAP1 JUMP JUMPDEST SWAP1 SWAP2 PUSH2 0x1CFD PUSH2 0x3A0 SWAP4 PUSH1 0x40 DUP5 MSTORE PUSH1 0x40 DUP5 ADD SWAP1 PUSH2 0x1C23 JUMP JUMPDEST SWAP2 PUSH1 0x20 DUP2 DUP5 SUB SWAP2 ADD MSTORE PUSH2 0x1CC2 JUMP JUMPDEST PUSH1 0x40 MLOAD RETURNDATASIZE PUSH0 DUP3 RETURNDATACOPY RETURNDATASIZE SWAP1 REVERT JUMPDEST ISZERO PUSH2 0x1D1D JUMPI JUMP JUMPDEST PUSH1 0x40 MLOAD PUSH3 0x461BCD PUSH1 0xE5 SHL DUP2 MSTORE PUSH1 0x20 PUSH1 0x4 DUP3 ADD MSTORE PUSH1 0x15 PUSH1 0x24 DUP3 ADD MSTORE PUSH21 0x416C7068612061646472657373206973207A65726F PUSH1 0x58 SHL PUSH1 0x44 DUP3 ADD MSTORE PUSH1 0x64 SWAP1 REVERT JUMPDEST SWAP1 PUSH1 0x20 PUSH2 0x3A0 SWAP3 DUP2 DUP2 MSTORE ADD SWAP1 PUSH2 0x1C23 JUMP JUMPDEST SWAP2 PUSH2 0x1D94 SWAP1 PUSH2 0x1D86 PUSH2 0x3A0 SWAP6 SWAP4 PUSH1 0x60 DUP7 MSTORE PUSH1 0x60 DUP7 ADD SWAP1 PUSH2 0x1C23 JUMP JUMPDEST SWAP1 DUP5 DUP3 SUB PUSH1 0x20 DUP7 ADD MSTORE PUSH2 0x1CC2 JUMP JUMPDEST SWAP2 PUSH1 0x40 DUP2 DUP5 SUB SWAP2 ADD MSTORE PUSH2 0x1CC2 JUMP JUMPDEST SWAP1 SWAP3 SWAP2 PUSH1 0xA0 DUP3 ADD SWAP3 PUSH2 0x1DB5 DUP5 MLOAD MLOAD PUSH2 0x1A6F JUMP JUMPDEST SWAP2 PUSH2 0x1DC1 DUP6 MLOAD MLOAD PUSH2 0x1A6F JUMP JUMPDEST SWAP2 PUSH2 0x1DCD DUP7 MLOAD MLOAD PUSH2 0x1A6F JUMP JUMPDEST SWAP7 PUSH2 0x1DF1 PUSH2 0x1DEC PUSH2 0x1DDE DUP10 MLOAD PUSH2 0x1AB5 JUMP JUMPDEST MLOAD PUSH1 0x1 PUSH1 0x1 PUSH1 0xE8 SHL SUB NOT AND SWAP1 JUMP JUMPDEST PUSH2 0x2C24 JUMP JUMPDEST SWAP3 PUSH0 JUMPDEST DUP9 MLOAD DUP1 MLOAD DUP3 LT ISZERO PUSH2 0x1E74 JUMPI SWAP1 PUSH2 0x1E6E DUP12 PUSH2 0x1E65 DUP4 PUSH2 0x1E50 PUSH1 0xC0 PUSH2 0x1E5C DUP16 DUP16 PUSH2 0x1E56 DUP7 PUSH2 0x1E50 PUSH2 0x1E29 PUSH2 0x1DDE PUSH1 0x1 SWAP16 DUP5 SWAP1 PUSH2 0x1AD7 JUMP JUMPDEST DUP6 MLOAD PUSH1 0x20 DUP8 ADD MLOAD PUSH1 0x40 SWAP1 SWAP8 ADD MLOAD SWAP2 SWAP7 DUP8 SWAP3 PUSH1 0x1 PUSH1 0x1 PUSH1 0xA0 SHL SUB SWAP1 DUP2 AND SWAP3 SWAP2 DUP2 AND SWAP2 AND PUSH2 0x2CD4 JUMP JUMPDEST SWAP3 PUSH2 0x1AD7 JUMP JUMPDEST MSTORE PUSH2 0x2C24 JUMP JUMPDEST ADD MLOAD PUSH2 0xFFFF AND SWAP1 JUMP JUMPDEST SWAP1 PUSH2 0xFFFF AND SWAP1 MSTORE JUMP JUMPDEST ADD PUSH2 0x1DF4 JUMP JUMPDEST POP POP SWAP4 SWAP2 SWAP7 POP SWAP4 SWAP5 SWAP2 SWAP7 DUP3 MLOAD PUSH2 0x1E8F SWAP1 PUSH1 0x1 DUP1 PUSH1 0xA0 SHL SUB AND SWAP1 JUMP JUMPDEST PUSH1 0x20 DUP5 ADD DUP1 MLOAD SWAP2 SWAP7 SWAP1 SWAP5 SWAP1 SWAP2 PUSH1 0x1 PUSH1 0x1 PUSH1 0xA0 SHL SUB AND PUSH1 0x40 DUP3 ADD DUP1 MLOAD SWAP1 SWAP5 SWAP1 PUSH1 0x1 PUSH1 0x1 PUSH1 0xA0 SHL SUB AND SWAP8 PUSH1 0x60 DUP5 ADD MLOAD SWAP5 PUSH1 0x80 DUP6 ADD SWAP6 DUP7 MLOAD PUSH2 0x1ECD SWAP1 ISZERO ISZERO SWAP1 JUMP JUMPDEST SWAP5 PUSH2 0x1ED6 PUSH2 0x312 JUMP JUMPDEST PUSH1 0x1 PUSH1 0x1 PUSH1 0xA0 SHL SUB SWAP1 SWAP14 AND DUP14 MSTORE PUSH1 0x1 PUSH1 0x1 PUSH1 0xA0 SHL SUB AND PUSH1 0x20 DUP14 ADD MSTORE PUSH1 0x1 PUSH1 0x1 PUSH1 0xA0 SHL SUB SWAP1 SWAP11 AND PUSH1 0x40 DUP13 ADD SWAP1 DUP2 MSTORE SWAP10 PUSH1 0x60 DUP13 ADD MSTORE PUSH1 0x80 DUP12 ADD MSTORE PUSH1 0xA0 DUP11 ADD MSTORE PUSH1 0xC0 DUP10 ADD MSTORE ISZERO ISZERO PUSH1 0xE0 DUP9 ADD MSTORE MLOAD PUSH1 0x1 PUSH1 0x1 PUSH1 0xA0 SHL SUB AND SWAP4 MLOAD PUSH1 0x1 PUSH1 0x1 PUSH1 0xA0 SHL SUB AND SWAP2 MLOAD PUSH1 0x1 PUSH1 0x1 PUSH1 0xA0 SHL SUB AND SWAP1 MLOAD ISZERO ISZERO SWAP2 PUSH2 0x1F4C PUSH2 0x312 JUMP JUMPDEST PUSH1 0x1 PUSH1 0x1 PUSH1 0xA0 SHL SUB SWAP1 SWAP6 AND DUP6 MSTORE PUSH1 0x1 PUSH1 0x1 PUSH1 0xA0 SHL SUB AND PUSH1 0x20 DUP6 ADD MSTORE PUSH1 0x1 PUSH1 0x1 PUSH1 0xA0 SHL SUB AND PUSH1 0x40 DUP5 ADD MSTORE PUSH0 PUSH1 0x60 DUP5 ADD DUP2 SWAP1 MSTORE PUSH1 0x80 DUP5 ADD DUP2 SWAP1 MSTORE PUSH1 0xA0 DUP5 ADD DUP2 SWAP1 MSTORE PUSH1 0xC0 DUP5 ADD MSTORE ISZERO ISZERO PUSH1 0xE0 DUP4 ADD MSTORE DUP7 MLOAD ISZERO ISZERO DUP1 DUP1 PUSH2 0x2356 JUMPI JUMPDEST ISZERO PUSH2 0x2145 JUMPI POP POP SWAP5 PUSH0 SWAP3 SWAP2 DUP4 PUSH2 0x207F PUSH2 0x209D SWAP7 SWAP8 SWAP9 PUSH2 0x1FC4 PUSH1 0x40 DUP7 ADD MLOAD ISZERO ISZERO SWAP1 JUMP JUMPDEST DUP4 EQ PUSH2 0x211A JUMPI PUSH32 0x0 SWAP5 JUMPDEST DUP2 PUSH2 0x1FFB PUSH1 0x60 DUP4 ADD MLOAD ISZERO ISZERO SWAP1 JUMP JUMPDEST DUP6 EQ PUSH2 0x20D6 JUMPI PUSH2 0x2079 SWAP2 POP PUSH2 0x2073 PUSH2 0x2067 PUSH2 0x2067 PUSH32 0x0 SWAP9 JUMPDEST PUSH2 0x2046 PUSH1 0x1 PUSH1 0x1 PUSH1 0xA0 SHL SUB DUP13 AND ISZERO ISZERO PUSH2 0x1D16 JUMP JUMPDEST PUSH2 0x205A PUSH1 0x1 PUSH1 0x1 PUSH1 0xA0 SHL SUB DUP12 AND ISZERO ISZERO PUSH2 0x1AEB JUMP JUMPDEST MLOAD PUSH1 0x1 PUSH1 0x1 PUSH1 0xA0 SHL SUB AND SWAP1 JUMP JUMPDEST PUSH1 0x1 PUSH1 0x1 PUSH1 0xA0 SHL SUB AND SWAP1 JUMP JUMPDEST SWAP7 PUSH2 0x2DBD JUMP JUMPDEST SWAP4 PUSH2 0x2DBD JUMP JUMPDEST PUSH1 0x40 MLOAD PUSH4 0x14B2017 PUSH1 0xE0 SHL DUP2 MSTORE SWAP7 DUP8 SWAP6 DUP7 SWAP5 DUP6 SWAP4 SWAP2 PUSH1 0x4 DUP6 ADD PUSH2 0x1D6B JUMP JUMPDEST SUB SWAP3 GAS CALL SWAP1 DUP2 ISZERO PUSH2 0x20D1 JUMPI PUSH0 SWAP2 PUSH2 0x20B2 JUMPI POP SWAP2 JUMP JUMPDEST PUSH2 0x20CE SWAP2 POP RETURNDATASIZE DUP1 PUSH0 DUP4 RETURNDATACOPY PUSH2 0x20C6 DUP2 DUP4 PUSH2 0x2D3 JUMP JUMPDEST DUP2 ADD SWAP1 PUSH2 0x1B8B JUMP JUMPDEST SWAP2 JUMP JUMPDEST PUSH2 0x1D0B JUMP JUMPDEST PUSH2 0x2073 PUSH2 0x2067 PUSH2 0x2067 PUSH2 0x2114 PUSH2 0x2107 PUSH2 0x20F6 PUSH1 0xA0 PUSH2 0x2079 SWAP9 ADD MLOAD PUSH1 0xFF AND SWAP1 JUMP JUMPDEST PUSH1 0xFF AND PUSH0 MSTORE PUSH1 0x4 PUSH1 0x20 MSTORE PUSH1 0x40 PUSH0 KECCAK256 SWAP1 JUMP JUMPDEST SLOAD PUSH1 0x1 PUSH1 0x1 PUSH1 0xA0 SHL SUB AND SWAP1 JUMP JUMPDEST SWAP9 PUSH2 0x2032 JUMP JUMPDEST PUSH2 0x213F PUSH2 0x2107 PUSH2 0x212E PUSH1 0x80 DUP9 ADD MLOAD PUSH1 0xFF AND SWAP1 JUMP JUMPDEST PUSH1 0xFF AND PUSH0 MSTORE PUSH1 0x3 PUSH1 0x20 MSTORE PUSH1 0x40 PUSH0 KECCAK256 SWAP1 JUMP JUMPDEST SWAP5 PUSH2 0x1FED JUMP JUMPDEST SWAP1 SWAP7 SWAP1 DUP1 ISZERO SWAP1 DUP2 DUP1 PUSH2 0x2340 JUMPI JUMPDEST ISZERO PUSH2 0x2198 JUMPI POP POP POP POP PUSH0 SWAP3 SWAP4 SWAP5 POP DUP3 SWAP2 PUSH2 0x217B PUSH2 0x2067 PUSH2 0x2067 PUSH2 0x209D SWAP5 MLOAD PUSH1 0x1 DUP1 PUSH1 0xA0 SHL SUB AND SWAP1 JUMP JUMPDEST SWAP1 PUSH1 0x40 MLOAD SWAP5 DUP6 DUP1 SWAP5 DUP2 SWAP4 PUSH4 0x145ECC63 PUSH1 0xE2 SHL DUP4 MSTORE PUSH1 0x4 DUP4 ADD PUSH2 0x1D5A JUMP JUMPDEST DUP1 PUSH2 0x232A JUMPI JUMPDEST ISZERO PUSH2 0x224D JUMPI POP PUSH2 0x209D SWAP5 SWAP6 SWAP7 POP PUSH0 SWAP4 SWAP3 SWAP2 DUP2 PUSH2 0x21C0 PUSH1 0x40 PUSH2 0x220D SWAP5 ADD MLOAD ISZERO ISZERO SWAP1 JUMP JUMPDEST DUP7 EQ PUSH2 0x222A JUMPI POP PUSH2 0x2207 PUSH2 0x2067 PUSH2 0x2067 PUSH32 0x0 SWAP6 JUMPDEST PUSH2 0x205A PUSH1 0x1 PUSH1 0x1 PUSH1 0xA0 SHL SUB DUP9 AND ISZERO ISZERO PUSH2 0x1D16 JUMP JUMPDEST SWAP3 PUSH2 0x2DBD JUMP JUMPDEST SWAP2 DUP4 PUSH1 0x40 MLOAD DUP1 SWAP7 DUP2 SWAP6 DUP3 SWAP5 PUSH3 0xDB90D1 PUSH1 0xE8 SHL DUP5 MSTORE PUSH1 0x4 DUP5 ADD PUSH2 0x1CE6 JUMP JUMPDEST PUSH2 0x2067 PUSH2 0x2067 PUSH2 0x2247 PUSH2 0x2107 PUSH2 0x212E PUSH1 0x80 PUSH2 0x2207 SWAP7 ADD MLOAD PUSH1 0xFF AND SWAP1 JUMP JUMPDEST SWAP6 PUSH2 0x21F3 JUMP JUMPDEST SWAP5 SWAP6 SWAP5 DUP1 PUSH2 0x231D JUMPI JUMPDEST PUSH2 0x2261 JUMPI JUMPDEST POP POP POP POP JUMP JUMPDEST PUSH2 0x22C3 SWAP5 SWAP7 POP PUSH0 SWAP4 SWAP3 SWAP2 DUP2 PUSH2 0x227C PUSH1 0x60 PUSH2 0x220D SWAP5 ADD MLOAD ISZERO ISZERO SWAP1 JUMP JUMPDEST DUP7 EQ PUSH2 0x22FA JUMPI POP PUSH2 0x2207 PUSH2 0x2067 PUSH2 0x2067 PUSH32 0x0 SWAP6 JUMPDEST PUSH2 0x205A PUSH1 0x1 PUSH1 0x1 PUSH1 0xA0 SHL SUB DUP9 AND ISZERO ISZERO PUSH2 0x1AEB JUMP JUMPDEST SUB SWAP3 GAS CALL SWAP1 DUP2 ISZERO PUSH2 0x20D1 JUMPI PUSH0 SWAP2 PUSH2 0x22E0 JUMPI JUMPDEST POP SWAP2 PUSH0 DUP1 DUP1 DUP1 PUSH2 0x225B JUMP JUMPDEST PUSH2 0x22F4 SWAP2 POP RETURNDATASIZE DUP1 PUSH0 DUP4 RETURNDATACOPY PUSH2 0x20C6 DUP2 DUP4 PUSH2 0x2D3 JUMP JUMPDEST PUSH0 PUSH2 0x22D5 JUMP JUMPDEST PUSH2 0x2067 PUSH2 0x2067 PUSH2 0x2317 PUSH2 0x2107 PUSH2 0x20F6 PUSH1 0xA0 PUSH2 0x2207 SWAP7 ADD MLOAD PUSH1 0xFF AND SWAP1 JUMP JUMPDEST SWAP6 PUSH2 0x22AF JUMP JUMPDEST POP PUSH1 0x20 DUP2 ADD MLOAD ISZERO ISZERO PUSH2 0x2256 JUMP JUMPDEST POP PUSH2 0x233B PUSH2 0x1A44 PUSH1 0x20 DUP5 ADD MLOAD ISZERO ISZERO SWAP1 JUMP JUMPDEST PUSH2 0x219E JUMP JUMPDEST POP PUSH2 0x2351 PUSH2 0x1A44 PUSH1 0x20 DUP6 ADD MLOAD ISZERO ISZERO SWAP1 JUMP JUMPDEST PUSH2 0x2152 JUMP JUMPDEST POP PUSH1 0x20 DUP9 ADD MLOAD ISZERO ISZERO PUSH2 0x1FA2 JUMP JUMPDEST PUSH4 0x4E487B71 PUSH1 0xE0 SHL PUSH0 MSTORE PUSH1 0x11 PUSH1 0x4 MSTORE PUSH1 0x24 PUSH0 REVERT JUMPDEST PUSH0 NOT DUP2 ADD SWAP2 SWAP1 DUP3 GT PUSH2 0x6ED JUMPI JUMP JUMPDEST SWAP2 SWAP1 DUP3 SUB SWAP2 DUP3 GT PUSH2 0x6ED JUMPI JUMP JUMPDEST SWAP2 SWAP1 DUP3 ADD DUP1 SWAP3 GT PUSH2 0x6ED JUMPI JUMP JUMPDEST ISZERO PUSH2 0x23A6 JUMPI JUMP JUMPDEST PUSH1 0x40 MLOAD PUSH3 0x461BCD PUSH1 0xE5 SHL DUP2 MSTORE PUSH1 0x20 PUSH1 0x4 DUP3 ADD MSTORE PUSH1 0x1D PUSH1 0x24 DUP3 ADD MSTORE PUSH32 0x496E76616C696420706F696E7465723A206D75737420626520302D3135000000 PUSH1 0x44 DUP3 ADD MSTORE PUSH1 0x64 SWAP1 REVERT JUMPDEST SWAP4 SWAP3 SWAP2 SWAP4 PUSH2 0x23FA PUSH2 0xA1A PUSH2 0x2F46 JUMP JUMPDEST PUSH1 0x1 PUSH2 0x2406 CALLER ADDRESS PUSH2 0x355B JUMP JUMPDEST TSTORE PUSH1 0x1 PUSH1 0x1 PUSH1 0xA0 SHL SUB AND SWAP4 DUP5 EXTCODESIZE ISZERO PUSH2 0x1EF JUMPI PUSH1 0x4 SWAP5 DUP2 PUSH0 PUSH1 0x40 DUP2 SWAP6 DUP2 MLOAD SWAP10 DUP11 SWAP7 DUP8 SWAP6 DUP7 SWAP4 PUSH4 0x1C6E7247 PUSH1 0xE3 SHL DUP6 MSTORE PUSH1 0x20 DUP5 DUP7 ADD MSTORE DUP2 PUSH1 0x24 DUP7 ADD MSTORE PUSH1 0x44 DUP6 ADD CALLDATACOPY DUP3 DUP2 ADD DUP3 ADD DUP5 ADD DUP6 SWAP1 MSTORE PUSH1 0x1F ADD PUSH1 0x1F NOT AND DUP3 ADD ADD SUB ADD SWAP3 GAS CALL SWAP1 DUP2 ISZERO PUSH2 0x20D1 JUMPI PUSH2 0x2482 SWAP4 PUSH2 0x247C SWAP3 PUSH2 0x2497 JUMPI JUMPDEST POP CALLVALUE SWAP3 CALLDATASIZE SWAP2 PUSH2 0x24B1 JUMP JUMPDEST CALLER PUSH2 0x302A JUMP JUMPDEST PUSH2 0x248B CALLER PUSH2 0x30C2 JUMP JUMPDEST PUSH0 PUSH2 0x2494 PUSH2 0x2F46 JUMP JUMPDEST TSTORE JUMP JUMPDEST DUP1 PUSH2 0x24A5 PUSH0 PUSH2 0x24AB SWAP4 PUSH2 0x2D3 JUMP JUMPDEST DUP1 PUSH2 0x6F2 JUMP JUMPDEST PUSH0 PUSH2 0x2472 JUMP JUMPDEST SWAP3 SWAP2 SWAP1 PUSH2 0x24BD DUP2 PUSH2 0x322 JUMP JUMPDEST SWAP4 PUSH2 0x24CB PUSH1 0x40 MLOAD SWAP6 DUP7 PUSH2 0x2D3 JUMP JUMPDEST PUSH1 0x20 DUP6 DUP4 DUP2 MSTORE ADD SWAP2 PUSH1 0x5 SHL DUP2 ADD SWAP3 DUP4 GT PUSH2 0x1EF JUMPI SWAP1 JUMPDEST DUP3 DUP3 LT PUSH2 0x24ED JUMPI POP POP POP JUMP JUMPDEST PUSH1 0x20 DUP1 SWAP2 DUP4 CALLDATALOAD PUSH2 0x24FC DUP2 PUSH2 0x1DE JUMP JUMPDEST DUP2 MSTORE ADD SWAP2 ADD SWAP1 PUSH2 0x24E1 JUMP JUMPDEST SWAP1 DUP2 PUSH1 0x20 SWAP2 SUB SLT PUSH2 0x1EF JUMPI MLOAD SWAP1 JUMP JUMPDEST DUP1 MLOAD PUSH1 0x1 PUSH1 0x1 PUSH1 0xA0 SHL SUB SWAP1 DUP2 AND DUP4 MSTORE PUSH1 0x20 DUP1 DUP4 ADD MLOAD DUP3 AND SWAP1 DUP5 ADD MSTORE PUSH1 0x40 DUP1 DUP4 ADD MLOAD SWAP1 SWAP2 AND SWAP1 DUP4 ADD MSTORE PUSH1 0x60 DUP1 DUP3 ADD MLOAD SWAP1 DUP4 ADD MSTORE PUSH1 0x80 DUP1 DUP3 ADD MLOAD PUSH1 0x1 PUSH1 0x1 PUSH1 0x80 SHL SUB AND SWAP1 DUP4 ADD MSTORE PUSH2 0x1FE SWAP2 SWAP1 PUSH1 0xE0 SWAP1 DUP2 SWAP1 PUSH1 0xA0 DUP2 DUP2 ADD MLOAD PUSH1 0x1 PUSH1 0x1 PUSH1 0x80 SHL SUB AND SWAP1 DUP6 ADD MSTORE PUSH1 0xC0 DUP2 DUP2 ADD MLOAD PUSH2 0xFFFF AND SWAP1 DUP6 ADD MSTORE ADD MLOAD ISZERO ISZERO SWAP2 ADD MSTORE JUMP JUMPDEST DUP1 PUSH2 0x25A1 PUSH2 0x120 SWAP3 PUSH2 0x3A0 SWAP6 SWAP5 PUSH2 0x2516 JUMP JUMPDEST DUP2 PUSH2 0x100 DUP3 ADD MSTORE ADD SWAP1 PUSH2 0x1CC2 JUMP JUMPDEST PUSH2 0x100 DUP2 ADD SWAP3 SWAP2 PUSH2 0x1FE SWAP2 SWAP1 PUSH2 0x2516 JUMP JUMPDEST SWAP2 PUSH2 0x25E7 SWAP1 PUSH2 0x25D3 DUP5 PUSH2 0x3A0 SWAP7 SWAP5 PUSH2 0x2516 JUMP JUMPDEST PUSH2 0x140 PUSH2 0x100 DUP6 ADD MSTORE PUSH2 0x140 DUP5 ADD SWAP1 PUSH2 0x1CC2 JUMP JUMPDEST SWAP2 PUSH2 0x120 DUP2 DUP5 SUB SWAP2 ADD MSTORE PUSH2 0x1CC2 JUMP JUMPDEST DUP1 MLOAD SWAP1 SWAP3 PUSH0 SWAP3 SWAP1 SWAP2 PUSH1 0x1 PUSH1 0x1 PUSH1 0xA0 SHL SUB AND PUSH1 0x20 DUP6 ADD DUP1 MLOAD SWAP1 SWAP5 SWAP2 SWAP1 PUSH1 0x1 PUSH1 0x1 PUSH1 0xA0 SHL SUB AND PUSH1 0x40 DUP8 ADD DUP1 MLOAD SWAP2 SWAP8 SWAP1 SWAP3 SWAP1 SWAP2 PUSH1 0x1 PUSH1 0x1 PUSH1 0xA0 SHL SUB AND SWAP8 PUSH1 0xA0 DUP4 ADD SWAP9 DUP10 MLOAD PUSH2 0x2640 SWAP1 PUSH2 0x1AB5 JUMP JUMPDEST MLOAD PUSH1 0x1 PUSH1 0x1 PUSH1 0xE8 SHL SUB NOT AND SWAP2 PUSH2 0x2655 SWAP4 PUSH2 0x2CD4 JUMP JUMPDEST SWAP7 MLOAD PUSH2 0x2660 SWAP1 PUSH2 0x1AB5 JUMP JUMPDEST MLOAD PUSH1 0x1 PUSH1 0x1 PUSH1 0xE8 SHL SUB NOT AND PUSH2 0x2674 SWAP1 PUSH2 0x2C24 JUMP JUMPDEST DUP2 MLOAD SWAP1 SWAP6 SWAP1 PUSH1 0x1 PUSH1 0x1 PUSH1 0xA0 SHL SUB AND SWAP7 MLOAD PUSH1 0x1 PUSH1 0x1 PUSH1 0xA0 SHL SUB AND SWAP3 MLOAD PUSH1 0x1 PUSH1 0x1 PUSH1 0xA0 SHL SUB AND SWAP5 PUSH1 0x60 DUP4 ADD MLOAD PUSH2 0x26A7 SWAP1 PUSH2 0x1AB5 JUMP JUMPDEST MLOAD PUSH1 0xC0 DUP9 ADD MLOAD PUSH2 0xFFFF AND PUSH1 0x80 SWAP1 SWAP5 ADD MLOAD ISZERO ISZERO SWAP5 PUSH2 0x26C2 PUSH2 0x312 JUMP JUMPDEST PUSH1 0x1 PUSH1 0x1 PUSH1 0xA0 SHL SUB SWAP1 SWAP11 AND DUP11 MSTORE PUSH1 0x1 PUSH1 0x1 PUSH1 0xA0 SHL SUB AND PUSH1 0x20 DUP11 ADD MSTORE PUSH1 0x1 PUSH1 0x1 PUSH1 0xA0 SHL SUB SWAP1 SWAP7 AND PUSH1 0x40 DUP10 ADD SWAP1 DUP2 MSTORE SWAP6 PUSH1 0x60 DUP10 ADD MSTORE PUSH1 0x1 PUSH1 0x1 PUSH1 0x80 SHL SUB AND PUSH1 0x80 DUP9 ADD MSTORE PUSH1 0x1 PUSH1 0x1 PUSH1 0x80 SHL SUB AND PUSH1 0xA0 DUP8 ADD MSTORE PUSH2 0xFFFF AND PUSH1 0xC0 DUP7 ADD MSTORE ISZERO ISZERO PUSH1 0xE0 DUP6 ADD MSTORE DUP3 MLOAD ISZERO ISZERO DUP1 DUP1 PUSH2 0x2A2B JUMPI JUMPDEST ISZERO PUSH2 0x2861 JUMPI POP POP SWAP2 DUP2 PUSH2 0x27E2 SWAP4 PUSH2 0x2748 PUSH1 0x40 PUSH1 0x20 SWAP6 ADD MLOAD ISZERO ISZERO SWAP1 JUMP JUMPDEST ISZERO PUSH2 0x2846 JUMPI DUP3 PUSH32 0x0 SWAP3 JUMPDEST PUSH1 0x60 DUP2 ADD MLOAD ISZERO PUSH2 0x2820 JUMPI POP PUSH2 0x27C4 DUP2 PUSH2 0x2079 PUSH0 SWAP4 PUSH2 0x2073 PUSH2 0x2067 PUSH2 0x2067 PUSH32 0x0 SWAP9 PUSH2 0x2046 PUSH1 0x1 PUSH1 0x1 PUSH1 0xA0 SHL SUB DUP13 AND ISZERO ISZERO PUSH2 0x1D16 JUMP JUMPDEST PUSH1 0x40 MLOAD PUSH4 0x1EEBC2D PUSH1 0xE1 SHL DUP2 MSTORE SWAP7 DUP8 SWAP6 DUP7 SWAP5 DUP6 SWAP4 SWAP2 PUSH1 0x4 DUP6 ADD PUSH2 0x25C0 JUMP JUMPDEST SUB SWAP3 GAS CALL SWAP1 DUP2 ISZERO PUSH2 0x20D1 JUMPI PUSH0 SWAP2 PUSH2 0x27F7 JUMPI POP SWAP2 JUMP JUMPDEST PUSH2 0x20CE SWAP2 POP PUSH1 0x20 RETURNDATASIZE PUSH1 0x20 GT PUSH2 0x2819 JUMPI JUMPDEST PUSH2 0x2811 DUP2 DUP4 PUSH2 0x2D3 JUMP JUMPDEST DUP2 ADD SWAP1 PUSH2 0x2507 JUMP JUMPDEST POP RETURNDATASIZE PUSH2 0x2807 JUMP JUMPDEST DUP2 PUSH2 0x2079 PUSH0 SWAP4 PUSH2 0x2073 PUSH2 0x2067 PUSH2 0x2067 PUSH2 0x2114 PUSH2 0x2107 PUSH2 0x20F6 PUSH1 0xA0 PUSH2 0x27C4 SWAP11 ADD MLOAD PUSH1 0xFF AND SWAP1 JUMP JUMPDEST DUP3 PUSH2 0x285B PUSH2 0x2107 PUSH2 0x212E PUSH1 0x80 DUP7 ADD MLOAD PUSH1 0xFF AND SWAP1 JUMP JUMPDEST SWAP3 PUSH2 0x2771 JUMP JUMPDEST SWAP2 SWAP3 SWAP2 DUP1 ISZERO SWAP1 DUP2 DUP1 PUSH2 0x2A15 JUMPI JUMPDEST ISZERO PUSH2 0x28B1 JUMPI POP POP POP POP PUSH2 0x27E2 PUSH0 SWAP3 PUSH2 0x2894 PUSH2 0x2067 PUSH2 0x2067 PUSH1 0x20 SWAP6 MLOAD PUSH1 0x1 DUP1 PUSH1 0xA0 SHL SUB AND SWAP1 JUMP JUMPDEST SWAP1 PUSH1 0x40 MLOAD SWAP5 DUP6 DUP1 SWAP5 DUP2 SWAP4 PUSH4 0x160F04BD PUSH1 0xE2 SHL DUP4 MSTORE PUSH1 0x4 DUP4 ADD PUSH2 0x25AF JUMP JUMPDEST DUP1 PUSH2 0x29FF JUMPI JUMPDEST ISZERO PUSH2 0x295B JUMPI POP POP SWAP2 PUSH1 0x20 SWAP2 DUP4 DUP3 PUSH2 0x28D4 PUSH1 0x40 PUSH2 0x27E2 SWAP8 ADD MLOAD ISZERO ISZERO SWAP1 JUMP JUMPDEST ISZERO PUSH2 0x293B JUMPI PUSH2 0x291D SWAP2 POP PUSH2 0x2207 PUSH2 0x2067 PUSH2 0x2067 PUSH32 0x0 SWAP6 PUSH2 0x205A PUSH1 0x1 PUSH1 0x1 PUSH1 0xA0 SHL SUB DUP9 AND ISZERO ISZERO PUSH2 0x1D16 JUMP JUMPDEST SWAP2 PUSH0 PUSH1 0x40 MLOAD DUP1 SWAP7 DUP2 SWAP6 DUP3 SWAP5 PUSH4 0x5E3344D PUSH1 0xE4 SHL DUP5 MSTORE PUSH1 0x4 DUP5 ADD PUSH2 0x258F JUMP JUMPDEST PUSH2 0x2207 PUSH2 0x2067 PUSH2 0x2067 PUSH2 0x2247 PUSH2 0x2107 PUSH2 0x212E PUSH1 0x80 PUSH2 0x291D SWAP9 ADD MLOAD PUSH1 0xFF AND SWAP1 JUMP JUMPDEST SWAP1 SWAP6 SWAP4 SWAP3 SWAP2 SWAP1 DUP1 PUSH2 0x29F2 JUMPI JUMPDEST PUSH2 0x2970 JUMPI POP POP POP JUMP JUMPDEST PUSH2 0x27E2 SWAP4 SWAP6 POP SWAP1 DUP2 DUP4 PUSH2 0x2989 PUSH1 0x60 PUSH1 0x20 SWAP7 SWAP6 ADD MLOAD ISZERO ISZERO SWAP1 JUMP JUMPDEST ISZERO PUSH2 0x29D2 JUMPI PUSH2 0x291D SWAP2 POP PUSH2 0x2207 PUSH2 0x2067 PUSH2 0x2067 PUSH32 0x0 SWAP6 PUSH2 0x205A PUSH1 0x1 PUSH1 0x1 PUSH1 0xA0 SHL SUB DUP9 AND ISZERO ISZERO PUSH2 0x1AEB JUMP JUMPDEST PUSH2 0x2207 PUSH2 0x2067 PUSH2 0x2067 PUSH2 0x2317 PUSH2 0x2107 PUSH2 0x20F6 PUSH1 0xA0 PUSH2 0x291D SWAP9 ADD MLOAD PUSH1 0xFF AND SWAP1 JUMP JUMPDEST POP PUSH1 0x20 DUP2 ADD MLOAD ISZERO ISZERO PUSH2 0x2967 JUMP JUMPDEST POP PUSH2 0x2A10 PUSH2 0x1A44 PUSH1 0x20 DUP6 ADD MLOAD ISZERO ISZERO SWAP1 JUMP JUMPDEST PUSH2 0x28B7 JUMP JUMPDEST POP PUSH2 0x2A26 PUSH2 0x1A44 PUSH1 0x20 DUP7 ADD MLOAD ISZERO ISZERO SWAP1 JUMP JUMPDEST PUSH2 0x286E JUMP JUMPDEST POP PUSH1 0x20 DUP5 ADD MLOAD ISZERO ISZERO PUSH2 0x272C JUMP JUMPDEST ISZERO PUSH2 0x2A3F JUMPI JUMP JUMPDEST PUSH1 0x40 MLOAD PUSH3 0x461BCD PUSH1 0xE5 SHL DUP2 MSTORE PUSH1 0x20 PUSH1 0x4 DUP3 ADD MSTORE PUSH1 0x18 PUSH1 0x24 DUP3 ADD MSTORE PUSH32 0x496E76616C6964206C697175696469747920616D6F756E740000000000000000 PUSH1 0x44 DUP3 ADD MSTORE PUSH1 0x64 SWAP1 REVERT JUMPDEST ISZERO PUSH2 0x2A8B JUMPI JUMP JUMPDEST PUSH1 0x40 MLOAD PUSH3 0x461BCD PUSH1 0xE5 SHL DUP2 MSTORE PUSH1 0x20 PUSH1 0x4 DUP3 ADD MSTORE PUSH1 0x14 PUSH1 0x24 DUP3 ADD MSTORE PUSH20 0x139BC81B1A5C5D5A591A5D1E481A5B881C1BDBDB PUSH1 0x62 SHL PUSH1 0x44 DUP3 ADD MSTORE PUSH1 0x64 SWAP1 REVERT JUMPDEST SWAP1 PUSH8 0xDE0B6B3A7640000 DUP3 MUL SWAP2 DUP1 DUP4 DIV PUSH8 0xDE0B6B3A7640000 EQ SWAP1 ISZERO OR ISZERO PUSH2 0x6ED JUMPI JUMP JUMPDEST SWAP1 PUSH8 0x120A871CC0020000 DUP3 MUL SWAP2 DUP1 DUP4 DIV PUSH8 0x120A871CC0020000 EQ SWAP1 ISZERO OR ISZERO PUSH2 0x6ED JUMPI JUMP JUMPDEST DUP2 DUP2 MUL SWAP3 SWAP2 DUP2 ISZERO SWAP2 DUP5 DIV EQ OR ISZERO PUSH2 0x6ED JUMPI JUMP JUMPDEST DUP2 ISZERO PUSH2 0x2B2C JUMPI DIV SWAP1 JUMP JUMPDEST PUSH4 0x4E487B71 PUSH1 0xE0 SHL PUSH0 MSTORE PUSH1 0x12 PUSH1 0x4 MSTORE PUSH1 0x24 PUSH0 REVERT JUMPDEST PUSH1 0xF SIGNEXTEND PUSH16 0x7FFFFFFFFFFFFFFFFFFFFFFFFFFFFFFF NOT DUP2 EQ PUSH2 0x6ED JUMPI PUSH0 SUB SWAP1 JUMP JUMPDEST PUSH1 0x40 MLOAD PUSH1 0x60 SWAP2 SWAP1 PUSH2 0x2B71 DUP4 DUP3 PUSH2 0x2D3 JUMP JUMPDEST PUSH1 0x2 DUP2 MSTORE SWAP2 PUSH1 0x1F NOT ADD CALLDATASIZE PUSH1 0x20 DUP5 ADD CALLDATACOPY JUMP JUMPDEST PUSH1 0x1 PUSH1 0xFF SHL DUP2 EQ PUSH2 0x6ED JUMPI PUSH0 SUB SWAP1 JUMP JUMPDEST ISZERO PUSH2 0x2B99 JUMPI JUMP JUMPDEST PUSH1 0x40 MLOAD PUSH3 0x461BCD PUSH1 0xE5 SHL DUP2 MSTORE PUSH1 0x20 PUSH1 0x4 DUP3 ADD MSTORE PUSH1 0x17 PUSH1 0x24 DUP3 ADD MSTORE PUSH32 0x496E76616C696420696E697469616C20616D6F756E7473000000000000000000 PUSH1 0x44 DUP3 ADD MSTORE PUSH1 0x64 SWAP1 REVERT JUMPDEST PUSH1 0x40 MLOAD SWAP1 PUSH1 0xE0 DUP3 ADD DUP3 DUP2 LT PUSH1 0x1 PUSH1 0x1 PUSH1 0x40 SHL SUB DUP3 GT OR PUSH2 0x2CE JUMPI PUSH1 0x40 MSTORE PUSH0 PUSH1 0xC0 DUP4 DUP3 DUP2 MSTORE DUP3 PUSH1 0x20 DUP3 ADD MSTORE DUP3 PUSH1 0x40 DUP3 ADD MSTORE DUP3 PUSH1 0x60 DUP3 ADD MSTORE DUP3 PUSH1 0x80 DUP3 ADD MSTORE DUP3 PUSH1 0xA0 DUP3 ADD MSTORE ADD MSTORE JUMP JUMPDEST PUSH2 0x3A0 PUSH2 0xFFF PUSH2 0x2CC8 PUSH2 0x2C35 PUSH2 0x2BDE JUMP JUMPDEST SWAP4 PUSH1 0xE8 SHR PUSH2 0x2C55 PUSH1 0x1 PUSH2 0x2C4E DUP4 PUSH3 0x7FFFFF SWAP1 PUSH1 0x1 SHR AND SWAP1 JUMP JUMPDEST AND ISZERO ISZERO DUP7 MSTORE JUMP JUMPDEST PUSH1 0x1 DUP2 AND ISZERO ISZERO PUSH1 0x20 DUP7 ADD MSTORE PUSH2 0x2C85 PUSH2 0x2C7C PUSH1 0x1 PUSH1 0x2 DUP5 SWAP1 SHR PUSH3 0x3FFFFF AND JUMPDEST AND PUSH3 0xFFFFFF AND SWAP1 JUMP JUMPDEST ISZERO ISZERO PUSH1 0x40 DUP8 ADD MSTORE JUMP JUMPDEST PUSH2 0x2CA5 PUSH2 0x2C9C PUSH1 0x1 PUSH1 0x3 DUP5 SWAP1 SHR PUSH3 0x1FFFFF AND PUSH2 0x2C73 JUMP JUMPDEST ISZERO ISZERO PUSH1 0x60 DUP8 ADD MSTORE JUMP JUMPDEST PUSH1 0xF PUSH1 0x4 DUP3 SWAP1 SHR DUP2 AND PUSH1 0x80 DUP8 ADD MSTORE PUSH1 0x8 DUP3 SWAP1 SHR AND PUSH1 0xA0 DUP7 ADD MSTORE PUSH1 0xC SHR PUSH2 0xFFF AND SWAP1 JUMP JUMPDEST AND PUSH2 0xFFFF AND PUSH1 0xC0 DUP4 ADD MSTORE JUMP JUMPDEST SWAP1 SWAP3 SWAP1 PUSH1 0x1 PUSH1 0x1 PUSH1 0xA0 SHL SUB DUP1 DUP6 AND SWAP1 DUP3 AND LT ISZERO PUSH2 0x2D46 JUMPI SWAP3 SWAP2 JUMPDEST PUSH1 0x40 MLOAD PUSH12 0xFFFFFFFFFFFFFFFFFFFFFFFF NOT PUSH1 0x60 SWAP6 DUP7 SHL DUP2 AND PUSH1 0x20 DUP4 ADD SWAP1 DUP2 MSTORE SWAP5 DUP7 SHL DUP2 AND PUSH1 0x34 DUP4 ADD MSTORE SWAP2 SWAP1 SWAP5 SHL AND PUSH1 0x48 DUP5 ADD MSTORE PUSH1 0x1 PUSH1 0x1 PUSH1 0xE8 SHL SUB NOT AND PUSH1 0x5C DUP4 ADD MSTORE PUSH1 0x3F DUP3 MSTORE SWAP1 PUSH2 0x2D40 PUSH1 0x5F DUP3 PUSH2 0x2D3 JUMP JUMPDEST MLOAD SWAP1 KECCAK256 SWAP1 JUMP JUMPDEST SWAP2 PUSH2 0x2CEE JUMP JUMPDEST PUSH1 0x20 DUP2 DUP4 SUB SLT PUSH2 0x1EF JUMPI DUP1 MLOAD SWAP1 PUSH1 0x1 PUSH1 0x1 PUSH1 0x40 SHL SUB DUP3 GT PUSH2 0x1EF JUMPI ADD DUP2 PUSH1 0x1F DUP3 ADD SLT ISZERO PUSH2 0x1EF JUMPI DUP1 MLOAD SWAP1 PUSH1 0x1 PUSH1 0x1 PUSH1 0x40 SHL SUB DUP3 GT PUSH2 0x2CE JUMPI PUSH1 0x40 MLOAD SWAP3 PUSH2 0x2D9C PUSH1 0x1F DUP5 ADD PUSH1 0x1F NOT AND PUSH1 0x20 ADD DUP6 PUSH2 0x2D3 JUMP JUMPDEST DUP3 DUP5 MSTORE PUSH1 0x20 DUP4 DUP4 ADD ADD GT PUSH2 0x1EF JUMPI DUP2 PUSH0 SWAP3 PUSH1 0x20 DUP1 SWAP4 ADD DUP4 DUP7 ADD MCOPY DUP4 ADD ADD MSTORE SWAP1 JUMP JUMPDEST SWAP1 PUSH1 0x60 SWAP2 DUP1 TLOAD DUP1 ISZERO DUP1 PUSH2 0x2F31 JUMPI JUMPDEST ISZERO PUSH2 0x2EEB JUMPI JUMPDEST POP DUP3 MLOAD ISZERO SWAP2 DUP3 PUSH2 0x2E1C JUMPI JUMPDEST POP PUSH1 0x40 MLOAD SWAP2 ISZERO DUP3 MSTORE PUSH1 0x1 PUSH1 0x1 PUSH1 0xA0 SHL SUB AND SWAP1 PUSH32 0xD34145BF6DE6D1B18053AD66A4A1AF093071A5AB67C05B8BFCE98FD95FFB0D89 SWAP1 DUP1 PUSH1 0x20 DUP2 ADD JUMPDEST SUB SWAP1 LOG2 SWAP1 JUMP JUMPDEST PUSH1 0x40 MLOAD PUSH4 0x3BD1104B PUSH1 0xE0 SHL DUP2 MSTORE SWAP4 POP PUSH0 SWAP1 DUP5 SWAP1 DUP2 SWAP1 PUSH2 0x2E3E SWAP1 PUSH1 0x4 DUP4 ADD PUSH2 0x25AF JUMP JUMPDEST SUB DUP2 DUP4 PUSH1 0x1 PUSH1 0x1 PUSH1 0xA0 SHL SUB DUP7 AND GAS CALL SWAP3 DUP4 ISZERO PUSH2 0x20D1 JUMPI PUSH0 SWAP4 PUSH2 0x2EA1 JUMPI JUMPDEST POP PUSH2 0x2E16 PUSH32 0xD34145BF6DE6D1B18053AD66A4A1AF093071A5AB67C05B8BFCE98FD95FFB0D89 SWAP2 DUP5 DUP1 MLOAD PUSH2 0x2E91 JUMPI JUMPDEST POP SWAP2 POP PUSH2 0x2DDC JUMP JUMPDEST PUSH2 0x2E9B SWAP1 DUP3 PUSH2 0x3527 JUMP JUMPDEST PUSH0 PUSH2 0x2E89 JUMP JUMPDEST PUSH32 0xD34145BF6DE6D1B18053AD66A4A1AF093071A5AB67C05B8BFCE98FD95FFB0D89 SWAP2 SWAP4 POP PUSH2 0x2EE3 PUSH2 0x2E16 SWAP2 RETURNDATASIZE DUP1 PUSH0 DUP4 RETURNDATACOPY PUSH2 0x2EDB DUP2 DUP4 PUSH2 0x2D3 JUMP JUMPDEST DUP2 ADD SWAP1 PUSH2 0x2D4C JUMP JUMPDEST SWAP4 SWAP2 POP PUSH2 0x2E5B JUMP JUMPDEST SWAP3 POP PUSH1 0x1F PUSH1 0x40 MLOAD SWAP4 DUP1 DUP6 MSTORE ADD DUP1 PUSH1 0x5 SHR PUSH0 JUMPDEST DUP2 DUP2 LT PUSH2 0x2F18 JUMPI POP POP PUSH1 0x1F NOT AND DUP4 ADD PUSH1 0x20 ADD PUSH1 0x40 MSTORE PUSH0 PUSH2 0x2DD1 JUMP JUMPDEST DUP1 PUSH1 0x1 DUP1 SWAP3 DUP7 ADD ADD TLOAD PUSH1 0x20 DUP3 PUSH1 0x5 SHL DUP10 ADD ADD MSTORE ADD PUSH2 0x2EFD JUMP JUMPDEST SWAP4 POP PUSH1 0x40 MLOAD SWAP4 PUSH0 DUP6 MSTORE PUSH1 0x20 DUP6 ADD PUSH1 0x40 MSTORE PUSH2 0x2DCB JUMP JUMPDEST PUSH1 0x40 MLOAD PUSH1 0x20 DUP2 ADD SWAP1 PUSH32 0x626529A6BE7CB2FB96A7ED93849B4EF74C980495DFE61FD514C95DCD9DA51C35 DUP3 MSTORE ADDRESS PUSH1 0x60 SHL PUSH1 0x40 DUP3 ADD MSTORE PUSH1 0x34 DUP2 MSTORE PUSH2 0x2D40 PUSH1 0x54 DUP3 PUSH2 0x2D3 JUMP JUMPDEST DUP1 TLOAD PUSH2 0x1EF JUMPI PUSH1 0x1 SWAP1 TSTORE JUMP JUMPDEST DUP2 MLOAD SWAP2 PUSH0 JUMPDEST DUP4 DUP2 LT PUSH2 0x2FA7 JUMPI POP POP POP POP JUMP JUMPDEST PUSH1 0x1 SWAP1 PUSH1 0x1 PUSH1 0x1 PUSH1 0xA0 SHL SUB PUSH2 0x2FBC DUP3 DUP6 PUSH2 0x1AD7 JUMP JUMPDEST MLOAD AND PUSH2 0x2FC9 DUP2 DUP7 ADDRESS PUSH2 0x392F JUMP JUMPDEST TLOAD DUP1 PUSH2 0x2FD8 JUMPI JUMPDEST POP POP ADD PUSH2 0x2F9A JUMP JUMPDEST PUSH0 SWAP2 PUSH2 0x2FF8 SWAP2 DUP4 DUP2 SGT ISZERO PUSH2 0x3000 JUMPI PUSH2 0x2FF1 SWAP1 DUP9 DUP4 PUSH2 0x3731 JUMP JUMPDEST DUP7 ADDRESS PUSH2 0x392F JUMP JUMPDEST TSTORE PUSH0 DUP1 PUSH2 0x2FD0 JUMP JUMPDEST PUSH2 0x300C PUSH2 0x301E SWAP2 PUSH2 0x2B82 JUMP JUMPDEST DUP3 ISZERO DUP6 EQ PUSH2 0x3023 JUMPI DUP5 SWAP1 JUMPDEST DUP10 DUP5 PUSH2 0x3657 JUMP JUMPDEST PUSH2 0x2FF1 JUMP JUMPDEST DUP5 SWAP1 PUSH2 0x3017 JUMP JUMPDEST SWAP1 SWAP2 DUP3 MLOAD SWAP3 PUSH0 JUMPDEST DUP5 DUP2 LT PUSH2 0x303F JUMPI POP POP POP POP POP JUMP JUMPDEST PUSH1 0x1 SWAP1 PUSH1 0x1 PUSH1 0x1 PUSH1 0xA0 SHL SUB PUSH2 0x3054 DUP3 DUP6 PUSH2 0x1AD7 JUMP JUMPDEST MLOAD AND PUSH2 0x3061 DUP2 DUP8 ADDRESS PUSH2 0x392F JUMP JUMPDEST TLOAD DUP1 PUSH2 0x3070 JUMPI JUMPDEST POP POP ADD PUSH2 0x3031 JUMP JUMPDEST PUSH0 SWAP2 PUSH2 0x3090 SWAP2 DUP4 DUP2 SGT ISZERO PUSH2 0x3098 JUMPI PUSH2 0x3089 SWAP1 DUP10 DUP4 PUSH2 0x3731 JUMP JUMPDEST DUP8 ADDRESS PUSH2 0x392F JUMP JUMPDEST TSTORE PUSH0 DUP1 PUSH2 0x3068 JUMP JUMPDEST PUSH2 0x30A4 PUSH2 0x30B6 SWAP2 PUSH2 0x2B82 JUMP JUMPDEST DUP3 ISZERO DUP6 EQ PUSH2 0x30BB JUMPI DUP9 SWAP1 JUMPDEST DUP11 DUP5 PUSH2 0x3657 JUMP JUMPDEST PUSH2 0x3089 JUMP JUMPDEST DUP5 SWAP1 PUSH2 0x30AF JUMP JUMPDEST PUSH2 0x2494 PUSH0 SWAP2 ADDRESS PUSH2 0x355B JUMP JUMPDEST ISZERO PUSH2 0x30D4 JUMPI JUMP JUMPDEST PUSH1 0x40 MLOAD PUSH3 0x461BCD PUSH1 0xE5 SHL DUP2 MSTORE PUSH1 0x20 PUSH1 0x4 DUP3 ADD MSTORE PUSH1 0x7 PUSH1 0x24 DUP3 ADD MSTORE PUSH7 0x4E6F20686F7073 PUSH1 0xC8 SHL PUSH1 0x44 DUP3 ADD MSTORE PUSH1 0x64 SWAP1 REVERT JUMPDEST SWAP2 SWAP1 DUP2 LT ISZERO PUSH2 0x1AC2 JUMPI PUSH1 0x5 SHL DUP2 ADD CALLDATALOAD SWAP1 PUSH1 0xBE NOT DUP2 CALLDATASIZE SUB ADD DUP3 SLT ISZERO PUSH2 0x1EF JUMPI ADD SWAP1 JUMP JUMPDEST CALLDATALOAD PUSH2 0x3A0 DUP2 PUSH2 0x3A3 JUMP JUMPDEST CALLDATALOAD PUSH2 0x3A0 DUP2 PUSH2 0x1DE JUMP JUMPDEST SWAP2 SWAP1 SWAP2 PUSH1 0x1 DUP1 PUSH1 0xA0 SHL SUB AND DUP1 PUSH0 MSTORE PUSH1 0x1 PUSH1 0x20 MSTORE PUSH1 0x40 PUSH0 KECCAK256 DUP4 PUSH0 MSTORE PUSH1 0x20 MSTORE PUSH1 0x40 PUSH0 KECCAK256 DUP1 SLOAD SWAP1 DUP4 DUP3 SUB SWAP2 DUP3 GT PUSH2 0x6ED JUMPI SSTORE PUSH1 0x40 DUP1 MLOAD CALLER DUP2 MSTORE PUSH1 0x20 DUP2 ADD SWAP4 SWAP1 SWAP4 MSTORE PUSH0 SWAP3 PUSH0 MLOAD PUSH1 0x20 PUSH2 0x4176 PUSH0 CODECOPY PUSH0 MLOAD SWAP1 PUSH0 MSTORE SWAP2 DUP2 SWAP1 DUP2 ADD JUMPDEST SUB SWAP1 LOG4 JUMP JUMPDEST SWAP1 PUSH1 0xF SIGNEXTEND SWAP1 PUSH1 0xF SIGNEXTEND ADD SWAP1 PUSH1 0x1 PUSH1 0x1 PUSH1 0x7F SHL SUB NOT DUP3 SLT PUSH1 0x1 PUSH1 0x1 PUSH1 0x7F SHL SUB DUP4 SGT OR PUSH2 0x6ED JUMPI JUMP JUMPDEST SWAP1 SWAP2 DUP2 PUSH0 MSTORE PUSH1 0x6 PUSH1 0x20 MSTORE PUSH1 0x1 PUSH1 0x1 PUSH1 0x80 SHL SUB PUSH2 0x31EB PUSH2 0x31E1 PUSH1 0x40 PUSH0 KECCAK256 SLOAD SWAP6 DUP4 DUP8 AND PUSH1 0xF SIGNEXTEND PUSH2 0x3192 JUMP JUMPDEST SWAP3 DUP6 PUSH1 0x80 SAR PUSH2 0x3192 JUMP JUMPDEST DUP2 NOT SWAP1 PUSH1 0x80 SHL AND SWAP2 AND OR SWAP2 DUP3 SUB PUSH2 0x3200 JUMPI POP POP JUMP JUMPDEST PUSH0 MSTORE PUSH1 0x6 PUSH1 0x20 MSTORE PUSH1 0x40 PUSH0 KECCAK256 SSTORE JUMP JUMPDEST SWAP1 PUSH2 0x3219 SWAP2 ADDRESS PUSH2 0x392F JUMP JUMPDEST SWAP1 DUP2 TLOAD ADD SWAP1 TSTORE JUMP JUMPDEST PUSH1 0x1 PUSH1 0x1 PUSH1 0x80 SHL SUB SWAP3 SWAP4 PUSH0 EQ PUSH2 0x3254 JUMPI POP AND SWAP1 DUP1 DUP3 LT PUSH2 0x323F JUMPI POP POP JUMP JUMPDEST PUSH4 0x1735867 PUSH1 0xE0 SHL PUSH0 MSTORE PUSH1 0x4 MSTORE PUSH1 0x24 MSTORE PUSH1 0x44 PUSH0 REVERT JUMPDEST SWAP1 POP AND SWAP1 DUP1 DUP3 LT PUSH2 0x3263 JUMPI POP POP JUMP JUMPDEST PUSH4 0x68580A19 PUSH1 0xE0 SHL PUSH0 MSTORE PUSH1 0x4 MSTORE PUSH1 0x24 MSTORE PUSH1 0x44 PUSH0 REVERT JUMPDEST SWAP2 SWAP1 SWAP2 PUSH0 DUP4 DUP3 ADD SWAP4 DUP5 SLT SWAP2 SLT SWAP1 DUP1 ISZERO DUP3 AND SWAP2 ISZERO AND OR PUSH2 0x6ED JUMPI JUMP JUMPDEST SWAP1 SWAP3 ADDRESS PUSH2 0x32AD DUP5 DUP5 PUSH2 0x32A6 DUP9 DUP3 DUP7 PUSH2 0x392F JUMP JUMPDEST TLOAD SWAP4 PUSH2 0x392F JUMP JUMPDEST TLOAD SWAP2 PUSH1 0x1 PUSH1 0x1 PUSH1 0xA0 SHL SUB DUP6 DUP2 AND SWAP3 SWAP1 DUP8 AND DUP1 DUP5 EQ PUSH2 0x3376 JUMPI SWAP2 DUP2 PUSH2 0x3310 SWAP6 SWAP4 PUSH0 PUSH2 0x1FE SWAP11 SWAP7 SWAP5 SLT PUSH0 EQ PUSH2 0x3356 JUMPI PUSH2 0x32E6 PUSH2 0x32F5 SWAP3 PUSH2 0x2B82 JUMP JUMPDEST SWAP1 PUSH2 0x334F JUMPI DUP3 SWAP1 JUMPDEST DUP9 DUP8 PUSH2 0x3657 JUMP JUMPDEST PUSH0 DUP4 SGT ISZERO PUSH2 0x3315 JUMPI POP POP PUSH2 0x330A SWAP1 DUP5 DUP7 PUSH2 0x3731 JUMP JUMPDEST DUP3 PUSH2 0x37A2 JUMP JUMPDEST PUSH2 0x37A2 JUMP JUMPDEST PUSH0 DUP4 SLT PUSH2 0x3325 JUMPI JUMPDEST POP POP POP PUSH2 0x330A JUMP JUMPDEST PUSH2 0x3331 PUSH2 0x333F SWAP4 PUSH2 0x2B82 JUMP JUMPDEST SWAP2 PUSH2 0x3347 JUMPI SWAP1 JUMPDEST DUP6 DUP8 PUSH2 0x3657 JUMP JUMPDEST PUSH0 DUP1 DUP1 PUSH2 0x331D JUMP JUMPDEST POP PUSH0 SWAP1 PUSH2 0x3338 JUMP JUMPDEST PUSH0 SWAP1 PUSH2 0x32EE JUMP JUMPDEST POP PUSH0 DUP2 SGT PUSH2 0x3365 JUMPI JUMPDEST POP PUSH2 0x32F5 JUMP JUMPDEST PUSH2 0x3370 SWAP1 DUP8 DUP7 PUSH2 0x3731 JUMP JUMPDEST PUSH0 PUSH2 0x335F JUMP JUMPDEST SWAP3 POP PUSH2 0x1FE SWAP7 SWAP6 SWAP4 PUSH2 0x3387 SWAP2 PUSH2 0x3278 JUMP JUMPDEST SWAP3 PUSH0 DUP5 SLT ISZERO PUSH2 0x33B3 JUMPI POP PUSH2 0x339D PUSH2 0x3310 SWAP4 PUSH2 0x2B82 JUMP JUMPDEST SWAP2 PUSH2 0x33AB JUMPI SWAP1 JUMPDEST DUP4 DUP6 PUSH2 0x3657 JUMP JUMPDEST POP PUSH0 SWAP1 PUSH2 0x33A4 JUMP JUMPDEST SWAP3 SWAP2 POP POP DUP3 PUSH0 DUP3 SGT PUSH2 0x33C8 JUMPI JUMPDEST POP POP POP PUSH2 0x37A2 JUMP JUMPDEST PUSH2 0x33D1 SWAP3 PUSH2 0x3731 JUMP JUMPDEST PUSH0 DUP1 DUP3 PUSH2 0x33C0 JUMP JUMPDEST PUSH1 0x1 PUSH1 0x1 PUSH1 0x80 SHL SUB PUSH8 0xDE0B6B3A7640000 SWAP2 AND MUL SWAP1 PUSH1 0x1 PUSH1 0x1 PUSH1 0x80 SHL SUB DUP3 AND SWAP2 DUP3 SUB PUSH2 0x6ED JUMPI JUMP JUMPDEST SWAP3 SWAP5 SWAP4 SWAP2 SWAP1 SWAP4 DUP3 PUSH0 MSTORE PUSH1 0x5 PUSH1 0x20 MSTORE PUSH1 0x40 PUSH0 KECCAK256 SLOAD ISZERO PUSH0 EQ PUSH2 0x3441 JUMPI POP POP POP PUSH2 0x3428 SWAP3 POP PUSH2 0x2392 JUMP JUMPDEST SWAP1 JUMPDEST DUP2 ISZERO PUSH2 0x3432 JUMPI JUMP JUMPDEST PUSH4 0x283EEADF PUSH1 0xE0 SHL PUSH0 MSTORE PUSH1 0x4 PUSH0 REVERT JUMPDEST SWAP1 SWAP3 SWAP2 SWAP4 PUSH8 0xDE0B6B3A7640000 DUP2 MUL SWAP1 DUP1 DUP3 DIV PUSH8 0xDE0B6B3A7640000 EQ SWAP1 ISZERO OR ISZERO PUSH2 0x6ED JUMPI DUP2 PUSH2 0x3470 SWAP2 PUSH2 0x2B22 JUMP JUMPDEST DUP3 ADD DUP1 SWAP3 GT PUSH2 0x6ED JUMPI PUSH2 0x34B1 PUSH2 0x171E SWAP4 PUSH1 0x1 PUSH1 0x1 PUSH1 0x80 SHL SUB PUSH2 0x34AA PUSH2 0x34C1 SWAP5 PUSH2 0x171E PUSH2 0x349E PUSH2 0x34C8 SWAP12 PUSH2 0x33D9 JUMP JUMPDEST PUSH1 0x1 PUSH1 0x1 PUSH1 0x80 SHL SUB AND SWAP1 JUMP JUMPDEST SWAP2 AND PUSH2 0x2392 JUMP JUMPDEST SWAP4 PUSH1 0x5 SWAP1 PUSH0 MSTORE PUSH1 0x20 MSTORE PUSH1 0x40 PUSH0 KECCAK256 SWAP1 JUMP JUMPDEST SLOAD SWAP1 PUSH2 0x2B0F JUMP JUMPDEST SWAP1 PUSH2 0x342A JUMP JUMPDEST SWAP2 SWAP1 SWAP2 PUSH1 0x1 DUP1 PUSH1 0xA0 SHL SUB AND SWAP1 DUP2 PUSH0 MSTORE PUSH1 0x1 PUSH1 0x20 MSTORE PUSH1 0x40 PUSH0 KECCAK256 DUP4 PUSH0 MSTORE PUSH1 0x20 MSTORE PUSH1 0x40 PUSH0 KECCAK256 DUP1 SLOAD SWAP1 DUP3 DUP3 ADD DUP1 SWAP3 GT PUSH2 0x6ED JUMPI SSTORE PUSH1 0x40 DUP1 MLOAD CALLER DUP2 MSTORE PUSH1 0x20 DUP2 ADD SWAP3 SWAP1 SWAP3 MSTORE PUSH0 SWAP2 PUSH0 MLOAD PUSH1 0x20 PUSH2 0x4176 PUSH0 CODECOPY PUSH0 MLOAD SWAP1 PUSH0 MSTORE SWAP2 DUP2 SWAP1 DUP2 ADD PUSH2 0x318D JUMP JUMPDEST PUSH1 0x1F DUP3 MLOAD DUP1 DUP4 TSTORE ADD PUSH1 0x5 SHR SWAP2 PUSH0 JUMPDEST DUP4 DUP2 LT PUSH2 0x3542 JUMPI POP POP POP POP JUMP JUMPDEST DUP1 PUSH1 0x20 PUSH1 0x1 SWAP3 PUSH1 0x5 SHL DUP5 ADD ADD MLOAD DUP3 DUP3 DUP7 ADD ADD TSTORE ADD PUSH2 0x3535 JUMP JUMPDEST SWAP1 PUSH1 0x40 MLOAD SWAP1 PUSH1 0x20 DUP3 ADD SWAP3 PUSH32 0xE88690B85C82523984F05D1F281684A73AA4D4303BCA19CFE29AA89AE744616A DUP5 MSTORE PUSH1 0x1 PUSH1 0x1 PUSH1 0x60 SHL SUB NOT SWAP1 PUSH1 0x60 SHL AND PUSH1 0x40 DUP4 ADD MSTORE PUSH1 0x1 PUSH1 0x1 PUSH1 0x60 SHL SUB NOT SWAP1 PUSH1 0x60 SHL AND PUSH1 0x54 DUP3 ADD MSTORE PUSH1 0x48 DUP2 MSTORE PUSH2 0x2D40 PUSH1 0x68 DUP3 PUSH2 0x2D3 JUMP JUMPDEST SWAP1 DUP2 PUSH1 0x20 SWAP2 SUB SLT PUSH2 0x1EF JUMPI MLOAD PUSH2 0x3A0 DUP2 PUSH2 0x3A3 JUMP JUMPDEST ISZERO PUSH2 0x35D9 JUMPI JUMP JUMPDEST PUSH1 0x40 MLOAD PUSH3 0x461BCD PUSH1 0xE5 SHL DUP2 MSTORE PUSH1 0x20 PUSH1 0x4 DUP3 ADD MSTORE PUSH1 0x15 PUSH1 0x24 DUP3 ADD MSTORE PUSH21 0x115490CC8C081D1C985B9CD9995C8819985A5B1959 PUSH1 0x5A SHL PUSH1 0x44 DUP3 ADD MSTORE PUSH1 0x64 SWAP1 REVERT JUMPDEST ISZERO PUSH2 0x361D JUMPI JUMP JUMPDEST PUSH1 0x40 MLOAD PUSH3 0x461BCD PUSH1 0xE5 SHL DUP2 MSTORE PUSH1 0x20 PUSH1 0x4 DUP3 ADD MSTORE PUSH1 0x12 PUSH1 0x24 DUP3 ADD MSTORE PUSH18 0x125B98DBDC9C9958DD08115512081CD95B9D PUSH1 0x72 SHL PUSH1 0x44 DUP3 ADD MSTORE PUSH1 0x64 SWAP1 REVERT JUMPDEST PUSH1 0x1 PUSH1 0x1 PUSH1 0xA0 SHL SUB AND SWAP3 SWAP1 DUP4 PUSH2 0x3673 JUMPI POP PUSH2 0x1FE SWAP3 POP EQ PUSH2 0x3616 JUMP JUMPDEST SWAP2 SWAP1 PUSH2 0x36F9 JUMPI PUSH1 0x40 MLOAD PUSH4 0x23B872DD PUSH1 0xE0 SHL DUP2 MSTORE PUSH1 0x1 PUSH1 0x1 PUSH1 0xA0 SHL SUB SWAP1 SWAP3 AND PUSH1 0x4 DUP4 ADD MSTORE ADDRESS PUSH1 0x24 DUP4 ADD MSTORE PUSH1 0x44 DUP3 ADD MSTORE SWAP1 PUSH1 0x20 SWAP1 DUP3 SWAP1 DUP2 PUSH0 DUP2 PUSH1 0x64 DUP2 ADD JUMPDEST SUB SWAP3 GAS CALL DUP1 ISZERO PUSH2 0x20D1 JUMPI PUSH2 0x1FE SWAP2 PUSH0 SWAP2 PUSH2 0x36CA JUMPI JUMPDEST POP PUSH2 0x35D2 JUMP JUMPDEST PUSH2 0x36EC SWAP2 POP PUSH1 0x20 RETURNDATASIZE PUSH1 0x20 GT PUSH2 0x36F2 JUMPI JUMPDEST PUSH2 0x36E4 DUP2 DUP4 PUSH2 0x2D3 JUMP JUMPDEST DUP2 ADD SWAP1 PUSH2 0x35BD JUMP JUMPDEST PUSH0 PUSH2 0x36C4 JUMP JUMPDEST POP RETURNDATASIZE PUSH2 0x36DA JUMP JUMPDEST PUSH1 0x40 MLOAD PUSH3 0x461BCD PUSH1 0xE5 SHL DUP2 MSTORE PUSH1 0x20 PUSH1 0x4 DUP3 ADD MSTORE PUSH1 0x10 PUSH1 0x24 DUP3 ADD MSTORE PUSH16 0x115512081B9BDD08195E1C1958DD1959 PUSH1 0x82 SHL PUSH1 0x44 DUP3 ADD MSTORE PUSH1 0x64 SWAP1 REVERT JUMPDEST PUSH1 0x1 PUSH1 0x1 PUSH1 0xA0 SHL SUB AND DUP1 PUSH2 0x376B JUMPI POP PUSH0 DUP1 DUP1 SWAP4 DUP2 SWAP4 DUP3 SWAP1 DUP3 ISZERO PUSH2 0x3761 JUMPI JUMPDEST PUSH1 0x1 PUSH1 0x1 PUSH1 0xA0 SHL SUB AND SWAP1 CALL ISZERO PUSH2 0x20D1 JUMPI JUMP JUMPDEST PUSH2 0x8FC SWAP2 POP PUSH2 0x374F JUMP JUMPDEST PUSH1 0x40 MLOAD PUSH4 0xA9059CBB PUSH1 0xE0 SHL DUP2 MSTORE PUSH1 0x1 PUSH1 0x1 PUSH1 0xA0 SHL SUB SWAP1 SWAP3 AND PUSH1 0x4 DUP4 ADD MSTORE PUSH1 0x24 DUP3 ADD SWAP3 SWAP1 SWAP3 MSTORE SWAP1 PUSH1 0x20 SWAP1 DUP3 SWAP1 DUP2 PUSH0 DUP2 PUSH1 0x44 DUP2 ADD PUSH2 0x36AF JUMP JUMPDEST PUSH0 SWAP2 PUSH2 0x2494 SWAP2 ADDRESS PUSH2 0x392F JUMP JUMPDEST SWAP1 CALLDATALOAD SWAP1 PUSH1 0x1E NOT DUP2 CALLDATASIZE SUB ADD DUP3 SLT ISZERO PUSH2 0x1EF JUMPI ADD DUP1 CALLDATALOAD SWAP1 PUSH1 0x1 PUSH1 0x1 PUSH1 0x40 SHL SUB DUP3 GT PUSH2 0x1EF JUMPI PUSH1 0x20 ADD SWAP2 DUP2 PUSH1 0x5 SHL CALLDATASIZE SUB DUP4 SGT PUSH2 0x1EF JUMPI JUMP JUMPDEST ISZERO PUSH2 0x37EA JUMPI JUMP JUMPDEST PUSH1 0x40 MLOAD PUSH3 0x461BCD PUSH1 0xE5 SHL DUP2 MSTORE PUSH1 0x20 PUSH1 0x4 DUP3 ADD MSTORE PUSH1 0x11 PUSH1 0x24 DUP3 ADD MSTORE PUSH17 0x4D69736D61746368656420617272617973 PUSH1 0x78 SHL PUSH1 0x44 DUP3 ADD MSTORE PUSH1 0x64 SWAP1 REVERT JUMPDEST SWAP1 ISZERO PUSH2 0x1AC2 JUMPI SWAP1 JUMP JUMPDEST SWAP2 SWAP1 DUP2 LT ISZERO PUSH2 0x1AC2 JUMPI PUSH1 0x5 SHL ADD SWAP1 JUMP JUMPDEST CALLDATALOAD PUSH2 0x3A0 DUP2 PUSH2 0x3B8 JUMP JUMPDEST SWAP6 SWAP5 SWAP4 SWAP3 SWAP2 POP PUSH1 0x60 DUP7 ADD PUSH2 0x385A DUP2 DUP9 PUSH2 0x37AE JUMP JUMPDEST SWAP1 POP ISZERO PUSH2 0x38FC JUMPI PUSH2 0x3886 PUSH2 0x3871 PUSH1 0x80 DUP10 ADD DUP10 PUSH2 0x37AE JUMP JUMPDEST SWAP1 POP PUSH2 0x387D DUP4 DUP11 PUSH2 0x37AE JUMP JUMPDEST SWAP2 SWAP1 POP EQ PUSH2 0x37E3 JUMP JUMPDEST PUSH1 0x1 PUSH2 0x3892 DUP3 DUP10 PUSH2 0x37AE JUMP JUMPDEST SWAP1 POP EQ PUSH0 EQ PUSH2 0x38F0 JUMPI DUP7 PUSH2 0x38A8 PUSH2 0x3A0 SWAP9 PUSH2 0x312F JUMP JUMPDEST SWAP2 PUSH2 0x38B5 PUSH1 0x20 DUP4 ADD PUSH2 0x312F JUMP JUMPDEST PUSH2 0x38E8 PUSH1 0xA0 PUSH2 0x38E1 PUSH2 0x38DC PUSH2 0x38D6 PUSH2 0x38CF PUSH1 0x40 DUP10 ADD PUSH2 0x312F JUMP JUMPDEST SWAP7 DUP9 PUSH2 0x37AE JUMP JUMPDEST SWAP1 PUSH2 0x3823 JUMP JUMPDEST PUSH2 0x383C JUMP JUMPDEST SWAP5 ADD PUSH2 0x3125 JUMP JUMPDEST SWAP4 PUSH1 0x5 PUSH2 0x3E7A JUMP JUMPDEST POP PUSH2 0x3A0 SWAP6 PUSH1 0x5 PUSH2 0x3AC6 JUMP JUMPDEST PUSH1 0x40 MLOAD PUSH3 0x461BCD PUSH1 0xE5 SHL DUP2 MSTORE PUSH1 0x20 PUSH1 0x4 DUP3 ADD MSTORE PUSH1 0xB PUSH1 0x24 DUP3 ADD MSTORE PUSH11 0x4E6F206D61726B696E6773 PUSH1 0xA8 SHL PUSH1 0x44 DUP3 ADD MSTORE PUSH1 0x64 SWAP1 REVERT JUMPDEST SWAP2 PUSH1 0x40 MLOAD SWAP2 PUSH1 0x20 DUP4 ADD SWAP4 PUSH32 0x71AA94563C1D78D77DF681AD802FC1A81EA7D00CFFE4BBE002400E1D66DE80D2 DUP6 MSTORE PUSH1 0x1 PUSH1 0x1 PUSH1 0x60 SHL SUB NOT SWAP1 PUSH1 0x60 SHL AND PUSH1 0x40 DUP5 ADD MSTORE PUSH1 0x1 PUSH1 0x1 PUSH1 0x60 SHL SUB NOT SWAP1 PUSH1 0x60 SHL AND PUSH1 0x54 DUP4 ADD MSTORE PUSH1 0x1 PUSH1 0x1 PUSH1 0x60 SHL SUB NOT SWAP1 PUSH1 0x60 SHL AND PUSH1 0x68 DUP3 ADD MSTORE PUSH1 0x5C DUP2 MSTORE PUSH2 0x2D40 PUSH1 0x7C DUP3 PUSH2 0x2D3 JUMP JUMPDEST SWAP2 SWAP1 SWAP2 PUSH1 0x40 DUP2 DUP5 SUB SLT PUSH2 0x1EF JUMPI DUP1 MLOAD PUSH1 0x1 PUSH1 0x1 PUSH1 0x40 SHL SUB DUP2 GT PUSH2 0x1EF JUMPI DUP4 PUSH2 0x39CD SWAP2 DUP4 ADD PUSH2 0x1B2E JUMP JUMPDEST SWAP3 PUSH1 0x20 DUP3 ADD MLOAD PUSH1 0x1 PUSH1 0x1 PUSH1 0x40 SHL SUB DUP2 GT PUSH2 0x1EF JUMPI PUSH2 0x3A0 SWAP3 ADD PUSH2 0x1B2E JUMP JUMPDEST SWAP1 PUSH1 0x20 DUP1 DUP4 MLOAD SWAP3 DUP4 DUP2 MSTORE ADD SWAP3 ADD SWAP1 PUSH0 JUMPDEST DUP2 DUP2 LT PUSH2 0x3A08 JUMPI POP POP POP SWAP1 JUMP JUMPDEST DUP3 MLOAD PUSH1 0x1 PUSH1 0x1 PUSH1 0xE8 SHL SUB NOT AND DUP5 MSTORE PUSH1 0x20 SWAP4 DUP5 ADD SWAP4 SWAP1 SWAP3 ADD SWAP2 PUSH1 0x1 ADD PUSH2 0x39FB JUMP JUMPDEST DUP1 MLOAD PUSH1 0x1 PUSH1 0x1 PUSH1 0xA0 SHL SUB SWAP1 DUP2 AND DUP4 MSTORE PUSH1 0x20 DUP1 DUP4 ADD MLOAD DUP3 AND SWAP1 DUP5 ADD MSTORE PUSH1 0x40 DUP1 DUP4 ADD MLOAD SWAP1 SWAP2 AND SWAP1 DUP4 ADD MSTORE PUSH1 0x60 DUP1 DUP3 ADD MLOAD PUSH1 0xC0 SWAP2 DUP5 ADD DUP3 SWAP1 MSTORE PUSH2 0x3A0 SWAP4 SWAP2 PUSH1 0xA0 SWAP2 PUSH2 0x3A72 SWAP2 DUP5 ADD SWAP1 PUSH2 0x5AD JUMP JUMPDEST SWAP3 PUSH1 0x80 DUP2 ADD MLOAD ISZERO ISZERO PUSH1 0x80 DUP5 ADD MSTORE ADD MLOAD SWAP1 PUSH1 0xA0 DUP2 DUP5 SUB SWAP2 ADD MSTORE PUSH2 0x39EB JUMP JUMPDEST SWAP2 PUSH2 0x3AB8 SWAP1 PUSH2 0x3AAA PUSH2 0x3A0 SWAP6 SWAP4 PUSH1 0x60 DUP7 MSTORE PUSH1 0x60 DUP7 ADD SWAP1 PUSH2 0x3A28 JUMP JUMPDEST SWAP1 DUP5 DUP3 SUB PUSH1 0x20 DUP7 ADD MSTORE PUSH2 0x1BB0 JUMP JUMPDEST SWAP2 PUSH1 0x40 DUP2 DUP5 SUB SWAP2 ADD MSTORE PUSH2 0x1BB0 JUMP JUMPDEST SWAP7 SWAP5 SWAP6 SWAP1 SWAP3 SWAP4 SWAP2 SWAP7 PUSH1 0x60 DUP5 ADD SWAP8 PUSH2 0x3ADD DUP10 DUP7 PUSH2 0x37AE JUMP JUMPDEST SWAP7 SWAP1 POP PUSH2 0x3E37 JUMPI JUMPDEST POP PUSH2 0x3AEF DUP6 PUSH2 0x1A6F JUMP JUMPDEST SWAP2 PUSH2 0x3AF9 DUP7 PUSH2 0x1A6F JUMP JUMPDEST SWAP1 PUSH0 JUMPDEST DUP8 DUP2 LT PUSH2 0x3DA1 JUMPI POP DUP2 PUSH0 SWAP2 DUP6 DUP4 DUP10 PUSH2 0x3BC0 PUSH2 0x3BE2 SWAP14 SWAP15 SWAP16 PUSH2 0x3B94 PUSH2 0x3BB9 PUSH2 0x3B22 DUP6 PUSH2 0x312F JUMP JUMPDEST SWAP5 PUSH2 0x3BAB PUSH2 0x3B32 PUSH1 0x20 DUP4 ADD PUSH2 0x312F JUMP JUMPDEST SWAP5 PUSH2 0x3B67 PUSH2 0x3BA4 PUSH2 0x3B45 PUSH1 0x40 DUP7 ADD PUSH2 0x312F JUMP JUMPDEST PUSH2 0x3B52 PUSH1 0x80 DUP8 ADD DUP8 PUSH2 0x37AE JUMP JUMPDEST SWAP4 SWAP1 SWAP5 PUSH2 0x3B61 PUSH1 0xA0 DUP10 ADD PUSH2 0x3125 JUMP JUMPDEST SWAP8 PUSH2 0x37AE JUMP JUMPDEST SWAP9 SWAP1 SWAP10 PUSH2 0x3B84 PUSH2 0x3B75 PUSH2 0x2F4 JUMP JUMPDEST PUSH1 0x1 PUSH1 0x1 PUSH1 0xA0 SHL SUB SWAP1 SWAP15 AND DUP15 MSTORE JUMP JUMPDEST PUSH1 0x1 PUSH1 0x1 PUSH1 0xA0 SHL SUB AND PUSH1 0x20 DUP14 ADD MSTORE JUMP JUMPDEST PUSH1 0x1 PUSH1 0x1 PUSH1 0xA0 SHL SUB AND PUSH1 0x40 DUP12 ADD MSTORE JUMP JUMPDEST CALLDATASIZE SWAP2 PUSH2 0x339 JUMP JUMPDEST PUSH1 0x60 DUP8 ADD MSTORE ISZERO ISZERO PUSH1 0x80 DUP7 ADD MSTORE JUMP JUMPDEST CALLDATASIZE SWAP2 PUSH2 0x3CA JUMP JUMPDEST PUSH1 0xA0 DUP3 ADD MSTORE PUSH1 0x40 MLOAD PUSH4 0x27B8F7B PUSH1 0xE1 SHL DUP2 MSTORE SWAP13 DUP14 SWAP6 DUP7 SWAP5 DUP6 SWAP4 PUSH1 0x4 DUP6 ADD PUSH2 0x3A8F JUMP JUMPDEST SUB SWAP3 PUSH1 0x1 PUSH1 0x1 PUSH1 0xA0 SHL SUB AND GAS CALL SWAP1 DUP2 ISZERO PUSH2 0x20D1 JUMPI PUSH0 SWAP8 PUSH0 SWAP3 PUSH2 0x3D7A JUMPI JUMPDEST POP PUSH0 JUMPDEST DUP8 DUP2 LT PUSH2 0x3C7E JUMPI POP POP POP POP POP SWAP1 PUSH2 0x3C2B SWAP5 SWAP6 PUSH2 0x3C25 SWAP4 SWAP3 PUSH2 0x3C2F JUMPI JUMPDEST POP POP PUSH2 0x2377 JUMP JUMPDEST SWAP1 PUSH2 0x1AD7 JUMP JUMPDEST MLOAD SWAP1 JUMP JUMPDEST DUP2 PUSH2 0x3C3F PUSH1 0xA0 PUSH2 0x3C69 SWAP5 ADD PUSH2 0x3125 JUMP JUMPDEST ISZERO PUSH2 0x3C70 JUMPI PUSH1 0x20 PUSH2 0x3C50 SWAP2 ADD PUSH2 0x312F JUMP JUMPDEST PUSH2 0x3C62 PUSH2 0x3C5C DUP6 PUSH2 0x2377 JUMP JUMPDEST DUP8 PUSH2 0x1AD7 JUMP JUMPDEST MLOAD SWAP2 PUSH2 0x320E JUMP JUMPDEST PUSH0 DUP1 PUSH2 0x3C1E JUMP JUMPDEST PUSH2 0x3C79 SWAP1 PUSH2 0x312F JUMP JUMPDEST PUSH2 0x3C50 JUMP JUMPDEST DUP1 PUSH2 0x3D40 DUP11 DUP10 PUSH2 0x3CA8 DUP5 PUSH2 0x3CA1 PUSH1 0x1 SWAP8 PUSH2 0x3C9B PUSH1 0x80 DUP7 ADD DUP7 PUSH2 0x37AE JUMP JUMPDEST SWAP1 PUSH2 0x382C JUMP JUMPDEST CALLDATALOAD SWAP4 PUSH2 0x1AD7 JUMP JUMPDEST MLOAD PUSH2 0x3CE6 PUSH2 0x3CC6 PUSH2 0x3CB9 DUP8 DUP14 PUSH2 0x1AD7 JUMP JUMPDEST MLOAD PUSH1 0x1 PUSH1 0x1 PUSH1 0x80 SHL SUB AND SWAP1 JUMP JUMPDEST DUP3 PUSH2 0x3CD4 PUSH2 0x3CB9 DUP10 DUP13 PUSH2 0x1AD7 JUMP JUMPDEST PUSH2 0x3CE0 PUSH1 0xA0 DUP8 ADD PUSH2 0x3125 JUMP JUMPDEST SWAP3 PUSH2 0x3221 JUMP JUMPDEST PUSH2 0x3CF0 DUP6 DUP10 PUSH2 0x1AD7 JUMP JUMPDEST MLOAD SWAP3 PUSH2 0x3CFE PUSH1 0xA0 DUP5 ADD PUSH2 0x3125 JUMP JUMPDEST ISZERO PUSH2 0x3D5A JUMPI PUSH2 0x3D1D PUSH1 0xA0 PUSH1 0x1 PUSH1 0x1 PUSH1 0x80 SHL SUB DUP4 AND PUSH1 0xF SIGNEXTEND SWAP5 JUMPDEST ADD PUSH2 0x3125 JUMP JUMPDEST ISZERO PUSH2 0x3D46 JUMPI POP PUSH1 0x1 PUSH1 0x1 PUSH1 0x80 SHL SUB PUSH2 0x3D38 SWAP2 AND PUSH1 0xF SIGNEXTEND PUSH2 0x2B40 JUMP JUMPDEST SWAP2 JUMPDEST DUP9 PUSH2 0x3F9E JUMP JUMPDEST ADD PUSH2 0x3C02 JUMP JUMPDEST PUSH1 0x1 PUSH1 0x1 PUSH1 0x80 SHL SUB SWAP2 POP AND PUSH1 0xF SIGNEXTEND SWAP2 PUSH2 0x3D3A JUMP JUMPDEST PUSH2 0x3D1D PUSH1 0xA0 PUSH2 0x3D74 PUSH1 0x1 PUSH1 0x1 PUSH1 0x80 SHL SUB DUP6 AND PUSH1 0xF SIGNEXTEND PUSH2 0x2B40 JUMP JUMPDEST SWAP5 PUSH2 0x3D17 JUMP JUMPDEST SWAP1 SWAP8 POP PUSH2 0x3D99 SWAP2 POP RETURNDATASIZE DUP1 PUSH0 DUP4 RETURNDATACOPY PUSH2 0x3D91 DUP2 DUP4 PUSH2 0x2D3 JUMP JUMPDEST DUP2 ADD SWAP1 PUSH2 0x39A4 JUMP JUMPDEST SWAP1 SWAP7 PUSH0 PUSH2 0x3BFF JUMP JUMPDEST PUSH1 0x1 SWAP1 PUSH2 0x3E31 PUSH2 0x3E27 PUSH2 0x3E0C PUSH2 0x3DEB DUP16 DUP13 PUSH2 0x3DBB DUP2 PUSH2 0x312F JUMP JUMPDEST SWAP2 PUSH2 0x3DE5 PUSH2 0x38DC DUP10 PUSH2 0x3C9B PUSH2 0x3DD2 PUSH1 0x20 DUP8 ADD PUSH2 0x312F JUMP JUMPDEST SWAP5 PUSH2 0x3DDF PUSH1 0x40 DUP9 ADD PUSH2 0x312F JUMP JUMPDEST SWAP7 PUSH2 0x37AE JUMP JUMPDEST SWAP3 PUSH2 0x2CD4 JUMP JUMPDEST DUP9 PUSH1 0x1 SWAP2 PUSH0 MSTORE ADD PUSH1 0x20 MSTORE PUSH1 0x40 PUSH0 KECCAK256 SLOAD SWAP1 PUSH1 0x1 PUSH1 0x1 PUSH1 0x80 SHL SUB DUP3 AND SWAP2 PUSH1 0x80 SHR SWAP1 JUMP JUMPDEST PUSH2 0x3E19 DUP6 DUP10 SWAP5 SWAP4 SWAP5 PUSH2 0x1AD7 JUMP JUMPDEST SWAP1 PUSH1 0x1 PUSH1 0x1 PUSH1 0x80 SHL SUB AND SWAP1 MSTORE JUMP JUMPDEST PUSH2 0x3E19 DUP4 DUP10 PUSH2 0x1AD7 JUMP JUMPDEST ADD PUSH2 0x3AFC JUMP JUMPDEST PUSH2 0x3E65 SWAP1 PUSH2 0x3E47 PUSH1 0xA0 DUP8 ADD PUSH2 0x3125 JUMP JUMPDEST ISZERO PUSH2 0x3E6B JUMPI PUSH2 0x3E5E PUSH2 0x3E58 DUP8 PUSH2 0x312F JUMP JUMPDEST SWAP2 PUSH2 0x2B82 JUMP JUMPDEST SWAP1 DUP10 PUSH2 0x320E JUMP JUMPDEST PUSH0 PUSH2 0x3AE5 JUMP JUMPDEST PUSH2 0x3E5E PUSH2 0x3E58 PUSH1 0x20 DUP9 ADD PUSH2 0x312F JUMP JUMPDEST SWAP2 DUP6 DUP1 SWAP13 SWAP12 DUP3 SWAP9 SWAP4 SWAP8 SWAP12 SWAP10 SWAP6 SWAP11 SWAP7 SWAP11 PUSH2 0x3E95 DUP13 DUP3 DUP7 DUP13 PUSH2 0x2CD4 JUMP JUMPDEST SWAP7 PUSH2 0x3F75 JUMPI JUMPDEST DUP9 DUP6 PUSH2 0x3EC2 DUP10 DUP10 PUSH1 0x1 SWAP2 PUSH0 MSTORE ADD PUSH1 0x20 MSTORE PUSH1 0x40 PUSH0 KECCAK256 SLOAD SWAP1 PUSH1 0x1 PUSH1 0x1 PUSH1 0x80 SHL SUB DUP3 AND SWAP2 PUSH1 0x80 SHR SWAP1 JUMP JUMPDEST SWAP15 DUP16 SWAP5 DUP3 SWAP9 PUSH2 0x3ED2 SWAP9 SWAP4 SWAP6 PUSH2 0x403C JUMP JUMPDEST SWAP12 DUP13 DUP1 SWAP11 PUSH2 0x3EDF SWAP4 PUSH2 0x3221 JUMP JUMPDEST PUSH2 0x3F1A SWAP3 DUP10 ISZERO PUSH2 0x3F5A JUMPI PUSH1 0x1 PUSH1 0x1 PUSH1 0x80 SHL SUB DUP3 AND PUSH1 0xF SIGNEXTEND SWAP2 JUMPDEST DUP11 ISZERO PUSH2 0x3F48 JUMPI POP PUSH2 0x3F14 PUSH1 0x1 PUSH1 0x1 PUSH1 0x80 SHL SUB DUP11 AND PUSH1 0xF SIGNEXTEND PUSH2 0x2B40 JUMP JUMPDEST SWAP3 PUSH2 0x3F9E JUMP JUMPDEST PUSH2 0x3F26 JUMPI JUMPDEST POP POP POP POP POP JUMP JUMPDEST PUSH2 0x3F36 SWAP5 ISZERO PUSH2 0x3F40 JUMPI POP SWAP1 PUSH2 0x320E JUMP JUMPDEST PUSH0 DUP3 DUP2 DUP1 DUP1 PUSH2 0x3F1F JUMP JUMPDEST SWAP1 POP SWAP1 PUSH2 0x320E JUMP JUMPDEST PUSH1 0x1 PUSH1 0x1 PUSH1 0x80 SHL SUB AND PUSH1 0xF SIGNEXTEND SWAP3 PUSH2 0x3F9E JUMP JUMPDEST PUSH2 0x3F6F PUSH1 0x1 PUSH1 0x1 PUSH1 0x80 SHL SUB DUP11 AND PUSH1 0xF SIGNEXTEND PUSH2 0x2B40 JUMP JUMPDEST SWAP2 PUSH2 0x3EF8 JUMP JUMPDEST DUP3 ISZERO PUSH2 0x3F95 JUMPI PUSH2 0x3F90 DUP10 JUMPDEST PUSH2 0x3F89 DUP8 PUSH2 0x2B82 JUMP JUMPDEST SWAP1 DUP14 PUSH2 0x320E JUMP JUMPDEST PUSH2 0x3E9B JUMP JUMPDEST PUSH2 0x3F90 DUP5 PUSH2 0x3F80 JUMP JUMPDEST PUSH1 0x1 SWAP1 SWAP4 SWAP3 SWAP4 ADD SWAP2 DUP2 PUSH0 MSTORE DUP3 PUSH1 0x20 MSTORE PUSH1 0x1 PUSH1 0x1 PUSH1 0x80 SHL SUB PUSH2 0x3FD6 PUSH2 0x3FCC PUSH1 0x40 PUSH0 KECCAK256 SLOAD SWAP7 DUP4 DUP9 AND PUSH1 0xF SIGNEXTEND PUSH2 0x3192 JUMP JUMPDEST SWAP3 DUP7 PUSH1 0x80 SAR PUSH2 0x3192 JUMP JUMPDEST DUP2 NOT SWAP1 PUSH1 0x80 SHL AND SWAP2 AND OR SWAP3 DUP4 SUB PUSH2 0x3FEC JUMPI POP POP POP JUMP JUMPDEST PUSH0 MSTORE PUSH1 0x20 MSTORE PUSH1 0x40 PUSH0 KECCAK256 SSTORE JUMP JUMPDEST SWAP2 SWAP1 DUP3 PUSH1 0x40 SWAP2 SUB SLT PUSH2 0x1EF JUMPI PUSH1 0x20 DUP3 MLOAD SWAP3 ADD MLOAD SWAP1 JUMP JUMPDEST SWAP2 SWAP4 SWAP3 PUSH1 0x1 PUSH1 0x1 PUSH1 0x80 SHL SUB SWAP1 DUP2 PUSH2 0x402F PUSH1 0x40 SWAP5 PUSH1 0x60 DUP8 MSTORE PUSH1 0x60 DUP8 ADD SWAP1 PUSH2 0x3A28 JUMP JUMPDEST SWAP7 AND PUSH1 0x20 DUP6 ADD MSTORE AND SWAP2 ADD MSTORE JUMP JUMPDEST PUSH2 0x40E0 SWAP9 SWAP4 PUSH0 SWAP3 PUSH2 0x40B2 PUSH1 0x40 SWAP9 SWAP11 SWAP8 SWAP10 SWAP6 PUSH2 0x40A3 PUSH2 0x4058 PUSH2 0x1A4D JUMP JUMPDEST SWAP4 DUP14 PUSH2 0x4063 DUP7 PUSH2 0x1AB5 JUMP JUMPDEST MSTORE PUSH2 0x4079 PUSH2 0x406F PUSH2 0x1A4D JUMP JUMPDEST SWAP7 PUSH2 0x1857 DUP9 PUSH2 0x1AB5 JUMP JUMPDEST PUSH2 0x4093 PUSH2 0x4084 PUSH2 0x2F4 JUMP JUMPDEST PUSH1 0x1 PUSH1 0x1 PUSH1 0xA0 SHL SUB SWAP1 SWAP9 AND DUP9 MSTORE JUMP JUMPDEST PUSH1 0x1 PUSH1 0x1 PUSH1 0xA0 SHL SUB AND PUSH1 0x20 DUP8 ADD MSTORE JUMP JUMPDEST PUSH1 0x1 PUSH1 0x1 PUSH1 0xA0 SHL SUB AND DUP5 DUP11 ADD MSTORE JUMP JUMPDEST PUSH1 0x60 DUP4 ADD MSTORE DUP8 ISZERO ISZERO PUSH1 0x80 DUP4 ADD MSTORE PUSH1 0xA0 DUP3 ADD MSTORE DUP6 MLOAD PUSH4 0x60A80DBB PUSH1 0xE0 SHL DUP2 MSTORE SWAP9 DUP10 SWAP6 DUP7 SWAP5 DUP6 SWAP4 PUSH1 0x4 DUP6 ADD PUSH2 0x400E JUMP JUMPDEST SUB SWAP3 PUSH1 0x1 PUSH1 0x1 PUSH1 0xA0 SHL SUB AND GAS CALL SWAP3 DUP4 ISZERO PUSH2 0x20D1 JUMPI PUSH0 SWAP4 PUSH2 0x4143 JUMPI JUMPDEST POP DUP3 ISZERO PUSH2 0x4107 JUMPI POP POP SWAP1 JUMP JUMPDEST SWAP1 SWAP2 POP ISZERO PUSH2 0x4129 JUMPI PUSH2 0x411B PUSH2 0x3A0 SWAP2 PUSH2 0x2AEB JUMP JUMPDEST PUSH8 0xDE0B6B3A7640000 SWAP1 DIV SWAP1 JUMP JUMPDEST PUSH2 0x4135 PUSH2 0x3A0 SWAP2 PUSH2 0x2AC7 JUMP JUMPDEST PUSH8 0x120A871CC0020000 SWAP1 DIV SWAP1 JUMP JUMPDEST PUSH2 0x4166 SWAP2 SWAP4 POP PUSH1 0x40 RETURNDATASIZE PUSH1 0x40 GT PUSH2 0x416E JUMPI JUMPDEST PUSH2 0x415E DUP2 DUP4 PUSH2 0x2D3 JUMP JUMPDEST DUP2 ADD SWAP1 PUSH2 0x3FF8 JUMP JUMPDEST POP SWAP2 PUSH0 PUSH2 0x40FB JUMP JUMPDEST POP RETURNDATASIZE PUSH2 0x4154 JUMP INVALID SHL RETURNDATASIZE PUSH31 0xDB2E9C0B0E7C525B20AAAEF0F5940D2ED71663C7D39266ECAFAC728859A264 PUSH10 0x706673582212204BFC5B 0x25 TLOAD 0xF6 BLOBHASH MCOPY 0xEB DUP2 SWAP7 0x2E 0xC8 STATICCALL 0xC2 OR MUL CALLF 0xB6E1 0xC9 CHAINID PUSH19 0x309965E8C90E8710E764736F6C634300081E00 CALLER "},"methodIdentifiers":{"addAlphaMarketAddress(uint8,address)":"460c6df8","addBetaMarketAddress(uint8,address)":"7dc27c95","addLiquidity(address,address,address,bytes3,uint256,uint256)":"e513315b","allowance(address,address,uint256)":"598af9e7","approve(address,uint256,uint256)":"426a8493","balanceOf(address,uint256)":"00fdd58e","batchSwap((address,address,address,bytes3[],uint256[],bool)[],uint256,uint256)":"9d2ec6e4","createPool(address,address,address,bytes3)":"5670f55a","defaultAlpha()":"a1a44dad","defaultBeta()":"19920a5f","flashSession(address,bytes,address[])":"5dfb78af","getAlphaMarketAddress(uint8)":"d2615fc8","getBetaMarketAddress(uint8)":"83e66c2e","getInventory(uint256)":"5b298d32","getPoolInfo(uint256)":"2f380b35","getQuote((address,address,address,uint256[],bool,bytes3[]),uint128,uint128)":"60a80dbb","getQuoteBatch((address,address,address,uint256[],bool,bytes3[]),uint128[],uint128[])":"04f71ef6","isOperator(address,address)":"b6363cf2","removeAlphaMarketAddress(uint8)":"8e832e08","removeBetaMarketAddress(uint8)":"61408f26","removeLiquidity(address,address,address,bytes3,uint256)":"cb1f2f38","routerGetQuote((address,address,address,uint256[],bool,bytes3[]),uint128,uint128)":"8f155291","routerGetQuoteBatch((address,address,address,uint256[],bool,bytes3[]),uint128[],uint128[])":"c279171d","setOperator(address,bool)":"558a7297","supportsInterface(bytes4)":"01ffc9a7","swap(address,address,address,bytes3,uint256,bool,uint256)":"d92bc84c","totalLiquidity(uint256)":"b5e60c3c","transfer(address,uint256,uint256)":"095bcdb6","transferFrom(address,address,uint256,uint256)":"fe99049a"}}}}}