{"contracts/PoolManager.sol":{"PoolManager":{"abi":[{"inputs":[{"internalType":"address","name":"_defaultAlpha","type":"address"},{"internalType":"address","name":"_defaultBeta","type":"address"}],"stateMutability":"nonpayable","type":"constructor"},{"inputs":[{"internalType":"uint256","name":"required","type":"uint256"},{"internalType":"uint256","name":"available","type":"uint256"}],"name":"PoolManager__InsufficientAsset0","type":"error"},{"inputs":[{"internalType":"uint256","name":"required","type":"uint256"},{"internalType":"uint256","name":"available","type":"uint256"}],"name":"PoolManager__InsufficientAsset1","type":"error"},{"inputs":[],"name":"PoolManager__InsufficientLiquidityMinted","type":"error"},{"inputs":[{"internalType":"uint256","name":"minOut","type":"uint256"},{"internalType":"uint256","name":"actual","type":"uint256"}],"name":"PoolManager__InsufficientOutput","type":"error"},{"inputs":[{"internalType":"uint256","name":"amount0","type":"uint256"},{"internalType":"uint256","name":"amount1","type":"uint256"}],"name":"PoolManager__InsufficientWithdrawal","type":"error"},{"inputs":[],"name":"PoolManager__InvalidQuote","type":"error"},{"inputs":[{"internalType":"uint256","name":"poolID","type":"uint256"}],"name":"PoolManager__PoolAlreadyExists","type":"error"},{"anonymous":false,"inputs":[{"indexed":true,"internalType":"address","name":"owner","type":"address"},{"indexed":true,"internalType":"address","name":"spender","type":"address"},{"indexed":true,"internalType":"uint256","name":"id","type":"uint256"},{"indexed":false,"internalType":"uint256","name":"amount","type":"uint256"}],"name":"Approval","type":"event"},{"anonymous":false,"inputs":[{"indexed":true,"internalType":"address","name":"provider","type":"address"},{"indexed":false,"internalType":"bool","name":"hit","type":"bool"}],"name":"MarketDataCache","type":"event"},{"anonymous":false,"inputs":[{"indexed":true,"internalType":"address","name":"owner","type":"address"},{"indexed":true,"internalType":"address","name":"operator","type":"address"},{"indexed":false,"internalType":"bool","name":"approved","type":"bool"}],"name":"OperatorSet","type":"event"},{"anonymous":false,"inputs":[{"indexed":true,"internalType":"uint256","name":"poolID","type":"uint256"},{"indexed":false,"internalType":"address","name":"asset0","type":"address"},{"indexed":false,"internalType":"address","name":"asset1","type":"address"},{"indexed":false,"internalType":"address","name":"quoter","type":"address"},{"indexed":false,"internalType":"bytes3","name":"markings","type":"bytes3"}],"name":"PoolCreated","type":"event"},{"anonymous":false,"inputs":[{"indexed":false,"internalType":"address","name":"caller","type":"address"},{"indexed":true,"internalType":"address","name":"from","type":"address"},{"indexed":true,"internalType":"address","name":"to","type":"address"},{"indexed":true,"internalType":"uint256","name":"id","type":"uint256"},{"indexed":false,"internalType":"uint256","name":"amount","type":"uint256"}],"name":"Transfer","type":"event"},{"inputs":[{"internalType":"uint8","name":"pointer","type":"uint8"},{"internalType":"address","name":"alphaAddress","type":"address"}],"name":"addAlphaMarketAddress","outputs":[],"stateMutability":"nonpayable","type":"function"},{"inputs":[{"internalType":"uint8","name":"pointer","type":"uint8"},{"internalType":"address","name":"betaAddress","type":"address"}],"name":"addBetaMarketAddress","outputs":[],"stateMutability":"nonpayable","type":"function"},{"inputs":[{"internalType":"address","name":"asset0","type":"address"},{"internalType":"address","name":"asset1","type":"address"},{"internalType":"address","name":"quoter","type":"address"},{"internalType":"bytes3","name":"markings","type":"bytes3"},{"internalType":"uint256","name":"amount0","type":"uint256"},{"internalType":"uint256","name":"amount1","type":"uint256"}],"name":"addLiquidity","outputs":[{"internalType":"uint256","name":"liquidity","type":"uint256"}],"stateMutability":"payable","type":"function"},{"inputs":[{"internalType":"address","name":"owner","type":"address"},{"internalType":"address","name":"spender","type":"address"},{"internalType":"uint256","name":"id","type":"uint256"}],"name":"allowance","outputs":[{"internalType":"uint256","name":"","type":"uint256"}],"stateMutability":"view","type":"function"},{"inputs":[{"internalType":"address","name":"spender","type":"address"},{"internalType":"uint256","name":"id","type":"uint256"},{"internalType":"uint256","name":"amount","type":"uint256"}],"name":"approve","outputs":[{"internalType":"bool","name":"","type":"bool"}],"stateMutability":"nonpayable","type":"function"},{"inputs":[{"internalType":"address","name":"owner","type":"address"},{"internalType":"uint256","name":"id","type":"uint256"}],"name":"balanceOf","outputs":[{"internalType":"uint256","name":"","type":"uint256"}],"stateMutability":"view","type":"function"},{"inputs":[{"components":[{"internalType":"address","name":"asset0","type":"address"},{"internalType":"address","name":"asset1","type":"address"},{"internalType":"address","name":"quoter","type":"address"},{"internalType":"bytes3[]","name":"markings","type":"bytes3[]"},{"internalType":"uint256[]","name":"amounts","type":"uint256[]"},{"internalType":"bool","name":"zeroForOne","type":"bool"}],"internalType":"struct Hop[]","name":"hops","type":"tuple[]"},{"internalType":"uint256","name":"amountIn","type":"uint256"},{"internalType":"uint256","name":"minAmountOut","type":"uint256"}],"name":"batchSwap","outputs":[{"internalType":"uint256","name":"amountOut","type":"uint256"}],"stateMutability":"payable","type":"function"},{"inputs":[{"internalType":"address","name":"asset0","type":"address"},{"internalType":"address","name":"asset1","type":"address"},{"internalType":"address","name":"quoter","type":"address"},{"internalType":"bytes3","name":"markings","type":"bytes3"}],"name":"createPool","outputs":[{"internalType":"uint256","name":"poolID","type":"uint256"}],"stateMutability":"nonpayable","type":"function"},{"inputs":[],"name":"defaultAlpha","outputs":[{"internalType":"address","name":"","type":"address"}],"stateMutability":"view","type":"function"},{"inputs":[],"name":"defaultBeta","outputs":[{"internalType":"address","name":"","type":"address"}],"stateMutability":"view","type":"function"},{"inputs":[{"internalType":"address","name":"callback","type":"address"},{"internalType":"bytes","name":"data","type":"bytes"},{"internalType":"address[]","name":"tokens","type":"address[]"}],"name":"flashSession","outputs":[],"stateMutability":"payable","type":"function"},{"inputs":[{"internalType":"uint8","name":"pointer","type":"uint8"}],"name":"getAlphaMarketAddress","outputs":[{"internalType":"address","name":"alphaAddress","type":"address"}],"stateMutability":"view","type":"function"},{"inputs":[{"internalType":"uint8","name":"pointer","type":"uint8"}],"name":"getBetaMarketAddress","outputs":[{"internalType":"address","name":"betaAddress","type":"address"}],"stateMutability":"view","type":"function"},{"inputs":[{"internalType":"uint256","name":"poolId","type":"uint256"}],"name":"getInventory","outputs":[{"internalType":"uint128","name":"asset0","type":"uint128"},{"internalType":"uint128","name":"asset1","type":"uint128"}],"stateMutability":"view","type":"function"},{"inputs":[{"internalType":"uint256","name":"poolID","type":"uint256"}],"name":"getPoolInfo","outputs":[{"internalType":"address","name":"asset0","type":"address"},{"internalType":"address","name":"asset1","type":"address"},{"internalType":"address","name":"quoter","type":"address"},{"internalType":"bytes3","name":"markings","type":"bytes3"}],"stateMutability":"view","type":"function"},{"inputs":[{"components":[{"internalType":"address","name":"asset0","type":"address"},{"internalType":"address","name":"asset1","type":"address"},{"internalType":"address","name":"quoter","type":"address"},{"internalType":"uint256[]","name":"amount","type":"uint256[]"},{"internalType":"bool","name":"zeroForOne","type":"bool"},{"internalType":"bytes3[]","name":"marking","type":"bytes3[]"}],"internalType":"struct SwapParams","name":"p","type":"tuple"},{"internalType":"uint128","name":"asset0Balance","type":"uint128"},{"internalType":"uint128","name":"asset1Balance","type":"uint128"}],"name":"getQuote","outputs":[{"internalType":"uint256","name":"quote","type":"uint256"},{"internalType":"uint256","name":"poolID","type":"uint256"}],"stateMutability":"nonpayable","type":"function"},{"inputs":[{"components":[{"internalType":"address","name":"asset0","type":"address"},{"internalType":"address","name":"asset1","type":"address"},{"internalType":"address","name":"quoter","type":"address"},{"internalType":"uint256[]","name":"amount","type":"uint256[]"},{"internalType":"bool","name":"zeroForOne","type":"bool"},{"internalType":"bytes3[]","name":"marking","type":"bytes3[]"}],"internalType":"struct SwapParams","name":"p","type":"tuple"},{"internalType":"uint128[]","name":"asset0Balances","type":"uint128[]"},{"internalType":"uint128[]","name":"asset1Balances","type":"uint128[]"}],"name":"getQuoteBatch","outputs":[{"internalType":"uint256[]","name":"quote","type":"uint256[]"},{"internalType":"uint256[]","name":"poolID","type":"uint256[]"}],"stateMutability":"nonpayable","type":"function"},{"inputs":[{"internalType":"address","name":"owner","type":"address"},{"internalType":"address","name":"spender","type":"address"}],"name":"isOperator","outputs":[{"internalType":"bool","name":"","type":"bool"}],"stateMutability":"view","type":"function"},{"inputs":[{"internalType":"uint8","name":"pointer","type":"uint8"}],"name":"removeAlphaMarketAddress","outputs":[],"stateMutability":"nonpayable","type":"function"},{"inputs":[{"internalType":"uint8","name":"pointer","type":"uint8"}],"name":"removeBetaMarketAddress","outputs":[],"stateMutability":"nonpayable","type":"function"},{"inputs":[{"internalType":"address","name":"asset0","type":"address"},{"internalType":"address","name":"asset1","type":"address"},{"internalType":"address","name":"quoter","type":"address"},{"internalType":"bytes3","name":"markings","type":"bytes3"},{"internalType":"uint256","name":"liquidity","type":"uint256"}],"name":"removeLiquidity","outputs":[{"internalType":"uint256","name":"amount0","type":"uint256"},{"internalType":"uint256","name":"amount1","type":"uint256"}],"stateMutability":"nonpayable","type":"function"},{"inputs":[{"components":[{"internalType":"address","name":"asset0","type":"address"},{"internalType":"address","name":"asset1","type":"address"},{"internalType":"address","name":"quoter","type":"address"},{"internalType":"uint256[]","name":"amount","type":"uint256[]"},{"internalType":"bool","name":"zeroForOne","type":"bool"},{"internalType":"bytes3[]","name":"marking","type":"bytes3[]"}],"internalType":"struct SwapParams","name":"p","type":"tuple"},{"internalType":"uint128","name":"asset0Balance","type":"uint128"},{"internalType":"uint128","name":"asset1Balance","type":"uint128"}],"name":"routerGetQuote","outputs":[{"internalType":"uint256","name":"quote","type":"uint256"},{"internalType":"uint256","name":"poolID","type":"uint256"}],"stateMutability":"nonpayable","type":"function"},{"inputs":[{"components":[{"internalType":"address","name":"asset0","type":"address"},{"internalType":"address","name":"asset1","type":"address"},{"internalType":"address","name":"quoter","type":"address"},{"internalType":"uint256[]","name":"amount","type":"uint256[]"},{"internalType":"bool","name":"zeroForOne","type":"bool"},{"internalType":"bytes3[]","name":"marking","type":"bytes3[]"}],"internalType":"struct SwapParams","name":"p","type":"tuple"},{"internalType":"uint128[]","name":"asset0Balances","type":"uint128[]"},{"internalType":"uint128[]","name":"asset1Balances","type":"uint128[]"}],"name":"routerGetQuoteBatch","outputs":[{"internalType":"uint256[]","name":"quote","type":"uint256[]"},{"internalType":"uint256[]","name":"poolID","type":"uint256[]"}],"stateMutability":"nonpayable","type":"function"},{"inputs":[{"internalType":"address","name":"operator","type":"address"},{"internalType":"bool","name":"approved","type":"bool"}],"name":"setOperator","outputs":[{"internalType":"bool","name":"","type":"bool"}],"stateMutability":"nonpayable","type":"function"},{"inputs":[{"internalType":"bytes4","name":"interfaceId","type":"bytes4"}],"name":"supportsInterface","outputs":[{"internalType":"bool","name":"","type":"bool"}],"stateMutability":"view","type":"function"},{"inputs":[{"internalType":"address","name":"asset0","type":"address"},{"internalType":"address","name":"asset1","type":"address"},{"internalType":"address","name":"quoter","type":"address"},{"internalType":"bytes3","name":"markings","type":"bytes3"},{"internalType":"uint256","name":"amountIn","type":"uint256"},{"internalType":"bool","name":"zeroForOne","type":"bool"},{"internalType":"uint256","name":"minAmountOut","type":"uint256"}],"name":"swap","outputs":[{"internalType":"uint256","name":"amountOut","type":"uint256"}],"stateMutability":"payable","type":"function"},{"inputs":[{"internalType":"uint256","name":"poolID","type":"uint256"}],"name":"totalLiquidity","outputs":[{"internalType":"uint256","name":"","type":"uint256"}],"stateMutability":"view","type":"function"},{"inputs":[{"internalType":"address","name":"receiver","type":"address"},{"internalType":"uint256","name":"id","type":"uint256"},{"internalType":"uint256","name":"amount","type":"uint256"}],"name":"transfer","outputs":[{"internalType":"bool","name":"","type":"bool"}],"stateMutability":"nonpayable","type":"function"},{"inputs":[{"internalType":"address","name":"sender","type":"address"},{"internalType":"address","name":"receiver","type":"address"},{"internalType":"uint256","name":"id","type":"uint256"},{"internalType":"uint256","name":"amount","type":"uint256"}],"name":"transferFrom","outputs":[{"internalType":"bool","name":"","type":"bool"}],"stateMutability":"nonpayable","type":"function"}],"evm":{"bytecode":{"linkReferences":{},"object":"60c0346100b257601f6141e238819003918201601f19168301916001600160401b038311848410176100b65780849260409485528339810103126100b257610052602061004b836100ca565b92016100ca565b9060805260a05260405161410390816100df823960805181818161108d01528181611ecd015281816120d30152818161265101526127ea015260a05181818161071101528181611f120152818161218f01528181612691015261289f0152f35b5f80fd5b634e487b7160e01b5f52604160045260245ffd5b51906001600160a01b03821682036100b25756fe60806040526004361015610011575f80fd5b5f3560e01c8062fdd58e146101d957806301ffc9a7146101d457806304f71ef614610170578063095bcdb6146101cf57806319920a5f146101ca5780632f380b35146101c5578063426a8493146101c0578063460c6df8146101bb578063558a7297146101b65780635670f55a146101b1578063598af9e7146101ac5780635b298d32146101a75780635dfb78af146101a257806360a80dbb1461018957806361408f261461019d5780637dc27c951461019857806383e66c2e146101935780638e832e081461018e5780638f155291146101895780639d2ec6e414610184578063a1a44dad1461017f578063b5e60c3c1461017a578063b6363cf214610175578063c279171d14610170578063cb1f2f381461016b578063d2615fc814610166578063d92bc84c14610161578063e513315b1461015c5763fe99049a14610157575f80fd5b6117b0565b61157b565b61135b565b611315565b611149565b610605565b6110e6565b6110bc565b611078565b610efc565b610da4565b610eb7565b610e71565b610e12565b610dcd565b610ccb565b610c4b565b610bde565b6109cc565b610930565b6108cf565b61083e565b610740565b6106fc565b610653565b610249565b610200565b6001600160a01b038116036101ef57565b5f80fd5b35906101fe826101de565b565b346101ef5760403660031901126101ef5760043561021d816101de565b6024359060018060a01b03165f52600160205260405f20905f52602052602060405f2054604051908152f35b346101ef5760203660031901126101ef5760043563ffffffff60e01b81168091036101ef576020906301ffc9a760e01b811490811561028e575b506040519015158152f35b630f632fb360e01b1490505f610283565b634e487b7160e01b5f52604160045260245ffd5b608081019081106001600160401b038211176102ce57604052565b61029f565b90601f801991011681019081106001600160401b038211176102ce57604052565b604051906101fe60c0836102d3565b604051906101fe6080836102d3565b604051906101fe610100836102d3565b6001600160401b0381116102ce5760051b60200190565b92919061034581610322565b9361035360405195866102d3565b602085838152019160051b81019283116101ef57905b82821061037557505050565b8135815260209182019101610369565b9080601f830112156101ef578160206103a093359101610339565b90565b801515036101ef57565b35906101fe826103a3565b6001600160e81b03198116036101ef57565b9291906103d681610322565b936103e460405195866102d3565b602085838152019160051b81019283116101ef57905b82821061040657505050565b602080918335610415816103b8565b8152019101906103fa565b9080601f830112156101ef578160206103a0933591016103ca565b91909160c0818403126101ef576104506102f4565b9261045a826101f3565b8452610468602083016101f3565b6020850152610479604083016101f3565b604085015260608201356001600160401b0381116101ef578161049d918401610385565b60608501526104ae608083016103ad565b608085015260a08201356001600160401b0381116101ef576104d09201610420565b60a0830152565b9080601f830112156101ef578135906104ef82610322565b926104fd60405194856102d3565b82845260208085019360051b8201019182116101ef57602001915b8183106105255750505090565b82356001600160801b03811681036101ef57815260209283019201610518565b60606003198201126101ef576004356001600160401b0381116101ef578161056f9160040161043b565b916024356001600160401b0381116101ef578261058e916004016104d7565b91604435906001600160401b0382116101ef576103a0916004016104d7565b90602080835192838152019201905f5b8181106105ca5750505090565b82518452602093840193909201916001016105bd565b90916105f76103a0936040845260408401906105ad565b9160208184039101526105ad565b346101ef5761061c61061636610545565b91611ca3565b9061062c604051928392836105e0565b0390f35b60609060031901126101ef57600435610648816101de565b906024359060443590565b346101ef5761066136610630565b9091335f52600160205260405f20835f5260205260405f208054908382039182116106ed575560018060a01b031690815f5260016020526106ad8360405f20905f5260205260405f2090565b6106b8828254612293565b9055604080513380825260208201939093525f5160206140ae5f395f51905f5291819081015b0390a460405160018152602090f35b612264565b5f9103126101ef57565b346101ef575f3660031901126101ef576040517f00000000000000000000000000000000000000000000000000000000000000006001600160a01b03168152602090f35b346101ef5760203660031901126101ef576004355f6060604051610763816102b3565b82815282602082015282604082015201525f52600760205260405f206040519061078c826102b3565b80546001600160a01b0390811680845260018301548216602085018190526002909301549182166040850181905260489290921b6001600160e81b031916606094909401849052909261062c91610803906107f5906107e89081565b956001600160a01b031690565b916001600160e81b03191690565b604080516001600160a01b039586168152958516602087015291909316908401526001600160e81b0319909116606083015281906080820190565b346101ef5761084c36610630565b9091335f5260026020526108738160405f209060018060a01b03165f5260205260405f2090565b835f526020528160405f205560405191825260018060a01b0316907fb3fd5071835887567a0671151121894ddccc2842f1d10bedad13e0d17cace9a760203392a4602060405160018152f35b6004359060ff821682036101ef57565b346101ef5760403660031901126101ef5761092e6108eb6108bf565b60ff602435916108fa836101de565b16610907601082106122a0565b5f52600360205260405f209060018060a01b03166001600160601b0360a01b825416179055565b005b346101ef5760403660031901126101ef5760043561094d816101de565b6024359061095a826103a3565b335f908152602081815260408083206001600160a01b038516845290915290209115159160ff1981541660ff841617905560405191825260018060a01b0316907fceb576d9f15e4e200fdb5096d64d5dfd667e16def20c1eefd14256d8e3faa26760203392a360405160018152602090f35b346101ef5760803660031901126101ef576004356109e9816101de565b6024356109f5816101de565b60443591610a02836101de565b60643591610a0f836103b8565b610a1f610a1a612e15565b612e58565b610a2b83858385612ba3565b9260018060a01b03610a586002610a4a875f52600760205260405f2090565b01546001600160a01b031690565b16610bca5761062c9484937f68df9a4eb7aacbe8f43763bfbc9f7ca135a5397190ea1cce2558db52dc2f36929391929091906001600160a01b038083169084161015610bbf57610ba291935b610b66610aaf610303565b6001600160a01b03861681526001600160a01b03871660208201526001600160a01b03831660408201526001600160e81b031984166060820152610afb895f52600760205260405f2090565b815181546001600160a01b03199081166001600160a01b039283161783556020840151600184018054909216908316179055604083015160029092018054606090940151929091166001600160b81b03199093169290921760489190911c62ffffff60a01b16179055565b604080516001600160a01b03958616815295851660208701529316928401929092526001600160e81b0319909116606083015281906080820190565b0390a25f610bae612e15565b5d6040519081529081906020820190565b610ba2919293610aa4565b63e1ecc13360e01b5f52600484905260245ffd5b346101ef5760603660031901126101ef57600435610bfb816101de565b610c36602435610c0a816101de565b6044359260018060a01b03165f52600260205260405f209060018060a01b03165f5260205260405f2090565b905f52602052602060405f2054604051908152f35b346101ef5760203660031901126101ef5760406001600160801b03610c8a6004355f52600660205260405f2054906001600160801b0382169160801c90565b835191831682529091166020820152f35b9181601f840112156101ef578235916001600160401b0383116101ef576020808501948460051b0101116101ef57565b60603660031901126101ef57600435610ce3816101de565b6024356001600160401b0381116101ef57366023820112156101ef578060040135906001600160401b0382116101ef5736602483830101116101ef57604435916001600160401b0383116101ef5761092e93610d456024943690600401610c9b565b94909301906122ec565b60606003198201126101ef57600435906001600160401b0382116101ef57610d799160040161043b565b906024356001600160801b03811681036101ef57906044356001600160801b03811681036101ef5790565b346101ef57610dbb610db536610d4f565b916124f7565b60408051928352602083019190915290f35b346101ef5760203660031901126101ef5760ff610de86108bf565b16610df5601082106122a0565b5f90815260046020526040902080546001600160a01b0319169055005b346101ef5760403660031901126101ef5761092e610e2e6108bf565b60ff60243591610e3d836101de565b16610e4a601082106122a0565b5f52600460205260405f209060018060a01b03166001600160601b0360a01b825416179055565b346101ef5760203660031901126101ef5760ff610e8c6108bf565b16610e99601082106122a0565b5f526004602052602060018060a01b0360405f205416604051908152f35b346101ef5760203660031901126101ef5760ff610ed26108bf565b16610edf601082106122a0565b5f90815260036020526040902080546001600160a01b0319169055005b60603660031901126101ef576004356001600160401b0381116101ef57610f27903690600401610c9b565b60443591602435610f39610a1a612e15565b610f44831515612f17565b915f905f925f915b808310610fb05750610f6a9150610f6590503330613373565b5c1590565b610f9d575b5050818110610f855761062c905f610bae612e15565b63d438755d60e01b5f5260049190915260245260445ffd5b610fa99134913361370f565b5f80610f6f565b909194610fbe868385612f4d565b861580610fca85612278565b891491611043575b81611002575b9160019391610ff393805f14610ffc57345b3094339461360b565b95019190610f4c565b5f610fea565b9650918160019361101860a0610ff39501612f6f565b156110355761102960208301612f79565b98919350919350610fd8565b61103e82612f79565b611029565b81965061105260a08401612f6f565b156110675761106083612f79565b9650610fd2565b61107360208401612f79565b611060565b346101ef575f3660031901126101ef576040517f00000000000000000000000000000000000000000000000000000000000000006001600160a01b03168152602090f35b346101ef5760203660031901126101ef576004355f526005602052602060405f2054604051908152f35b346101ef5760403660031901126101ef57602060ff61113d60043561110a816101de565b60243590611117826101de565b60018060a01b03165f525f845260405f209060018060a01b03165f5260205260405f2090565b54166040519015158152f35b346101ef5760a03660031901126101ef57600435611166816101de565b60243590611173826101de565b6001600160801b0360443591611188836101de565b6111b8606435611197816103b8565b608435946111a6610a1a612e15565b6111b1861515612939565b8684612ba3565b9361124161122f8461122761120e6111e88a5f52600660205260405f2054906001600160801b0382169160801c90565b98906112076111ff8d5f52600560205260405f2090565b541515612985565b1689612a10565b6112208a5f52600560205260405f2090565b5490612a23565b951686612a10565b611220875f52600560205260405f2090565b9383158061130d575b6112f45785816112636112b2936112d197989933612f83565b611280611278835f52600560205260405f2090565b918254612286565b90556112976001600160801b038716600f0b612a41565b6112ac6001600160801b038916600f0b612a41565b91613002565b6001600160a01b0381811690831610156112ec578385915b3393613058565b5f6112da612e15565b5d604080519182526020820192909252f35b8484916112ca565b63d5de620560e01b5f526004849052602485905260445ffd5b50841561124a565b346101ef5760203660031901126101ef5760ff6113306108bf565b1661133d601082106122a0565b5f526003602052602060018060a01b0360405f205416604051908152f35b60e03660031901126101ef57600435611373816101de565b6024358091611381826101de565b60443561138d816101de565b6064359061139a826103b8565b60843560a435926113aa846103a3565b818560c435926113bb610a1a612e15565b6113c781878b85612ba3565b95871561157557825b338534906113dd93613089565b5f878152600660205260409020546001600160801b0381169060801c9a81958c94929361140861195e565b9061141161195e565b9361141a6102f4565b6001600160a01b0390991689526001600160a01b031660208901526001600160a01b03166040880152606087019081528b1515608088015260a0870192835251611463906119c6565b525161146e906119c6565b6001600160e81b03199091169052611485926124f7565b50968715611566578786916114999361319a565b80861061154f575061062c9561150a949093909290916114fb91906001600160a01b0380871690861610156115475783905b811561152c576001600160801b038116600f0b915b1561151a57506112ac6001600160801b038916600f0b612a41565b1561151357505b8233916130a7565b5f610bae612e15565b9050611502565b6001600160801b0316600f0b91613002565b6115416001600160801b038a16600f0b612a41565b916114e0565b8315906114cb565b63d438755d60e01b5f52600452602485905260445ffd5b6314033f2160e11b5f5260045ffd5b896113d0565b60c03660031901126101ef57600435611593816101de565b60243561159f816101de565b604435916115ac836101de565b606435926115b9846103b8565b6084359160a435916115cc610a1a612e15565b6115d886828785612ba3565b936001600160a01b03868116908416109283156117aa5795925b156117a45792955b5f858152600660205260409020546001600160801b0381169060801c91909261162b875f52600560205260405f2090565b546116d15750506001600160801b0361062c9761168a6116999561167e88968a86976116b29c9b1515806116c8575b61166390612a61565b611675876116708c6129c8565b612a23565b925b878b613219565b998387339334936130b2565b16600f0b9116600f0b83613002565b6116a48382336132e6565b5f52600560205260405f2090565b6116bd828254612293565b90555f610bae612e15565b5086151561165a565b83886117726117779461176289670de0b6b3a764000061175b8a989b9e9d9b6117426116fb61195e565b9161173261170761195e565b966117226117136102f4565b6001600160a01b03909d168d52565b6001600160a01b031660208c0152565b6001600160a01b031660408a0152565b606088018190525f608089015260a088019384526119c6565b52516119c6565b6001600160e81b03199091169052565b6124f7565b509485156115665761062c9761168a6116999561167e6001600160801b0395948987966116b29c92611677565b956115fa565b926115f2565b346101ef5760803660031901126101ef576004356117cd816101de565b6024356117d9816101de565b604435915f5160206140ae5f395f51905f526106de606435936001600160a01b0384169361183b90879061182e90338814158061192a575b61189a576001600160a01b03165f90815260016020526040902090565b905f5260205260405f2090565b611846868254612286565b90556001600160a01b0381165f90815260016020526040902061186a90879061182e565b611875868254612293565b90556040805133815260208101969096526001600160a01b0390911694918291820190565b6118d18361182e336118bc8560018060a01b03165f52600260205260405f2090565b9060018060a01b03165f5260205260405f2090565b5489600182016118f7575b50506001600160a01b03165f90815260016020526040902090565b61190091612286565b6119228461182e336118bc8660018060a01b03165f52600260205260405f2090565b555f896118dc565b5061195961195561194e336118bc8560018060a01b03165f525f60205260405f2090565b5460ff1690565b1590565b611811565b6040805190919061196f83826102d3565b6001815291601f1901366020840137565b9061198a82610322565b61199760405191826102d3565b82815280926119a8601f1991610322565b0190602036910137565b634e487b7160e01b5f52603260045260245ffd5b8051156119d35760200190565b6119b2565b80518210156119d35760209160051b010190565b156119f357565b60405162461bcd60e51b8152602060048201526014602482015273426574612061646472657373206973207a65726f60601b6044820152606490fd5b9080601f830112156101ef578151611a4681610322565b92611a5460405194856102d3565b81845260208085019260051b8201019283116101ef57602001905b828210611a7c5750505090565b8151815260209182019101611a6f565b906020828203126101ef5781516001600160401b0381116101ef576103a09201611a2f565b90602080835192838152019201905f5b818110611ace5750505090565b82516001600160801b0316845260209384019390920191600101611ac1565b90602080835192838152019201905f5b818110611b0a5750505090565b825161ffff16845260209384019390920191600101611afd565b80516001600160a01b03168252906103a0906020838101516001600160a01b0316908201526040838101516001600160a01b03169082015260e080611bb9611ba7611b95611b83606089015161010060608901526101008801906105ad565b60808901518782036080890152611ab1565b60a088015186820360a0880152611ab1565b60c087015185820360c0870152611aed565b9401511515910152565b805180835260209291819084018484015e5f828201840152601f01601f1916010190565b9091611bfe6103a093604084526040840190611b24565b916020818403910152611bc3565b6040513d5f823e3d90fd5b15611c1e57565b60405162461bcd60e51b8152602060048201526015602482015274416c7068612061646472657373206973207a65726f60581b6044820152606490fd5b9060206103a0928181520190611b24565b91611c9590611c876103a09593606086526060860190611b24565b908482036020860152611bc3565b916040818403910152611bc3565b90929160a0820192611cb6845151611980565b91611cc2855151611980565b91611cce865151611980565b96611cf2611ced611cdf89516119c6565b516001600160e81b03191690565b612af3565b925f5b88518051821015611d755790611d6f8b611d6683611d5160c0611d5d8f8f611d5786611d51611d2a611cdf60019f84906119d8565b85516020870151604090970151919687926001600160a01b03908116929181169116612ba3565b926119d8565b52612af3565b015161ffff1690565b9061ffff169052565b01611cf5565b505093919650939491968251611d909060018060a01b031690565b6020840180519196909490916001600160a01b03166040820180519094906001600160a01b03169760608401519460808501958651611dce90151590565b94611dd7610312565b6001600160a01b03909d168d526001600160a01b031660208d01526001600160a01b03909a1660408c019081529960608c015260808b015260a08a015260c0890152151560e0880152516001600160a01b031693516001600160a01b031691516001600160a01b03169051151591611e4d610312565b6001600160a01b0390951685526001600160a01b031660208501526001600160a01b031660408401525f606084018190526080840181905260a0840181905260c0840152151560e0830152865115158080612257575b15612046575050945f929183611f80611f9e969798611ec56040860151151590565b831461201b577f0000000000000000000000000000000000000000000000000000000000000000945b81611efc6060830151151590565b8514611fd757611f7a9150611f74611f68611f687f0000000000000000000000000000000000000000000000000000000000000000985b611f476001600160a01b038c161515611c17565b611f5b6001600160a01b038b1615156119ec565b516001600160a01b031690565b6001600160a01b031690565b96612c8c565b93612c8c565b60405163014b201760e01b8152968795869485939160048501611c6c565b03925af1908115611fd2575f91611fb3575091565b611fcf91503d805f833e611fc781836102d3565b810190611a8c565b91565b611c0c565b611f74611f68611f68612015612008611ff760a0611f7a98015160ff1690565b60ff165f52600460205260405f2090565b546001600160a01b031690565b98611f33565b61204061200861202f608088015160ff1690565b60ff165f52600360205260405f2090565b94611eee565b9096908015908180612241575b1561209957505050505f92939450829161207c611f68611f68611f9e945160018060a01b031690565b9060405194858094819363145ecc6360e21b835260048301611c5b565b8061222b575b1561214e5750611f9e949596505f939291816120c1604061210e940151151590565b861461212b5750612108611f68611f687f0000000000000000000000000000000000000000000000000000000000000000955b611f5b6001600160a01b0388161515611c17565b92612c8c565b918360405180968195829462db90d160e81b845260048401611be7565b611f68611f6861214861200861202f608061210896015160ff1690565b956120f4565b9495948061221e575b612162575b50505050565b6121c49496505f9392918161217d606061210e940151151590565b86146121fb5750612108611f68611f687f0000000000000000000000000000000000000000000000000000000000000000955b611f5b6001600160a01b03881615156119ec565b03925af1908115611fd2575f916121e1575b50915f80808061215c565b6121f591503d805f833e611fc781836102d3565b5f6121d6565b611f68611f68612218612008611ff760a061210896015160ff1690565b956121b0565b5060208101511515612157565b5061223c6119556020840151151590565b61209f565b506122526119556020850151151590565b612053565b5060208801511515611ea3565b634e487b7160e01b5f52601160045260245ffd5b5f198101919082116106ed57565b919082039182116106ed57565b919082018092116106ed57565b156122a757565b60405162461bcd60e51b815260206004820152601d60248201527f496e76616c696420706f696e7465723a206d75737420626520302d31350000006044820152606490fd5b939291936122fb610a1a612e15565b60016123073330613373565b5d6001600160a01b031693843b156101ef57600494815f604081958151998a9687958693631c6e724760e31b8552602084860152816024860152604485013782810182018401859052601f01601f19168201010301925af1908115611fd2576123839361237d92612398575b50349236916123b2565b33612e74565b61238c33612f0c565b5f612395612e15565b5d565b806123a65f6123ac936102d3565b806106f2565b5f612373565b9291906123be81610322565b936123cc60405195866102d3565b602085838152019160051b81019283116101ef57905b8282106123ee57505050565b6020809183356123fd816101de565b8152019101906123e2565b908160209103126101ef575190565b80516001600160a01b03908116835260208083015182169084015260408083015190911690830152606080820151908301526080808201516001600160801b0316908301526101fe919060e090819060a0818101516001600160801b03169085015260c08181015161ffff169085015201511515910152565b806124a2610120926103a09594612417565b816101008201520190611bc3565b610100810192916101fe9190612417565b916124e8906124d4846103a09694612417565b610140610100850152610140840190611bc3565b91610120818403910152611bc3565b805190925f9290916001600160a01b0316602085018051909491906001600160a01b03166040870180519197909290916001600160a01b03169760a08301988951612541906119c6565b516001600160e81b0319169161255693612ba3565b9651612561906119c6565b516001600160e81b03191661257590612af3565b81519095906001600160a01b031696516001600160a01b031692516001600160a01b03169460608301516125a8906119c6565b5160c088015161ffff166080909401511515946125c3610312565b6001600160a01b03909a168a526001600160a01b031660208a01526001600160a01b03909616604089019081529560608901526001600160801b031660808801526001600160801b031660a087015261ffff1660c0860152151560e085015282511515808061292c575b1561276257505091816126e39361264960406020950151151590565b1561274757827f0000000000000000000000000000000000000000000000000000000000000000925b60608101511561272157506126c581611f7a5f93611f74611f68611f687f000000000000000000000000000000000000000000000000000000000000000098611f476001600160a01b038c161515611c17565b6040516301eebc2d60e11b81529687958694859391600485016124c1565b03925af1908115611fd2575f916126f8575091565b611fcf915060203d60201161271a575b61271281836102d3565b810190612408565b503d612708565b81611f7a5f93611f74611f68611f68612015612008611ff760a06126c59a015160ff1690565b8261275c61200861202f608086015160ff1690565b92612672565b9192918015908180612916575b156127b257505050506126e35f92612795611f68611f686020955160018060a01b031690565b9060405194858094819363160f04bd60e21b8352600483016124b0565b80612900575b1561285c5750509160209183826127d560406126e3970151151590565b1561283c5761281e9150612108611f68611f687f000000000000000000000000000000000000000000000000000000000000000095611f5b6001600160a01b0388161515611c17565b915f6040518096819582946305e3344d60e41b845260048401612490565b612108611f68611f6861214861200861202f608061281e98015160ff1690565b909593929190806128f3575b61287157505050565b6126e393955090818361288a6060602096950151151590565b156128d35761281e9150612108611f68611f687f000000000000000000000000000000000000000000000000000000000000000095611f5b6001600160a01b03881615156119ec565b612108611f68611f68612218612008611ff760a061281e98015160ff1690565b5060208101511515612868565b506129116119556020850151151590565b6127b8565b506129276119556020860151151590565b61276f565b506020840151151561262d565b1561294057565b60405162461bcd60e51b815260206004820152601860248201527f496e76616c6964206c697175696469747920616d6f756e7400000000000000006044820152606490fd5b1561298c57565b60405162461bcd60e51b8152602060048201526014602482015273139bc81b1a5c5d5a591a5d1e481a5b881c1bdbdb60621b6044820152606490fd5b90670de0b6b3a7640000820291808304670de0b6b3a764000014901517156106ed57565b9067120a871cc002000082029180830467120a871cc002000014901517156106ed57565b818102929181159184041417156106ed57565b8115612a2d570490565b634e487b7160e01b5f52601260045260245ffd5b600f0b6f7fffffffffffffffffffffffffffffff1981146106ed575f0390565b15612a6857565b60405162461bcd60e51b815260206004820152601760248201527f496e76616c696420696e697469616c20616d6f756e74730000000000000000006044820152606490fd5b6040519060e082018281106001600160401b038211176102ce576040525f60c0838281528260208201528260408201528260608201528260808201528260a08201520152565b6103a0610fff612b97612b04612aad565b9360e81c612b246001612b1d83627fffff9060011c1690565b1615158652565b6001811615156020860152612b54612b4b6001600284901c623fffff165b1662ffffff1690565b15156040870152565b612b74612b6b6001600384901c621fffff16612b42565b15156060870152565b600f600482901c81166080870152600882901c1660a0860152600c1c610fff1690565b1661ffff1660c0830152565b9092906001600160a01b038085169082161015612c155792915b6040516bffffffffffffffffffffffff19606095861b81166020830190815294861b811660348301529190941b1660488401526001600160e81b031916605c830152603f825290612c0f605f826102d3565b51902090565b91612bbd565b6020818303126101ef578051906001600160401b0382116101ef570181601f820112156101ef578051906001600160401b0382116102ce5760405192612c6b601f8401601f1916602001856102d3565b828452602083830101116101ef57815f9260208093018386015e8301015290565b90606091805c801580612e00575b15612dba575b508251159182612ceb575b50604051911582526001600160a01b0316907fd34145bf6de6d1b18053ad66a4a1af093071a5ab67c05b8bfce98fd95ffb0d899080602081015b0390a290565b604051633bd1104b60e01b815293505f9084908190612d0d90600483016124b0565b0381836001600160a01b0386165af1928315611fd2575f93612d70575b50612ce57fd34145bf6de6d1b18053ad66a4a1af093071a5ab67c05b8bfce98fd95ffb0d8991848051612d60575b509150612cab565b612d6a908261333f565b5f612d58565b7fd34145bf6de6d1b18053ad66a4a1af093071a5ab67c05b8bfce98fd95ffb0d89919350612db2612ce5913d805f833e612daa81836102d3565b810190612c1b565b939150612d2a565b9250601f60405193808552018060051c5f5b818110612de7575050601f191683016020016040525f612ca0565b80600180928601015c60208260051b8901015201612dcc565b9350604051935f855260208501604052612c9a565b60405160208101907f626529a6be7cb2fb96a7ed93849b4ef74c980495dfe61fd514c95dcd9da51c3582523060601b604082015260348152612c0f6054826102d3565b805c6101ef576001905d565b600160ff1b81146106ed575f0390565b90918251925f5b848110612e89575050505050565b6001906001600160a01b03612e9e82856119d8565b5116612eab818730613854565b5c80612eba575b505001612e7b565b5f91612eda9183811315612ee257612ed39089836134f6565b8730613854565b5d5f80612eb2565b612eee612f0091612e64565b82158514612f055788905b8a846134ae565b612ed3565b8490612ef9565b6123955f9130613373565b15612f1e57565b60405162461bcd60e51b81526020600482015260076024820152664e6f20686f707360c81b6044820152606490fd5b91908110156119d35760051b8101359060be19813603018212156101ef570190565b356103a0816103a3565b356103a0816101de565b91909160018060a01b0316805f52600160205260405f20835f5260205260405f208054908382039182116106ed57556040805133815260208101939093525f925f5160206140ae5f395f51905f5291819081015b0390a4565b90600f0b90600f0b019060016001607f1b0319821260016001607f1b038313176106ed57565b9091815f5260066020526001600160801b0361303561302b60405f205495838716600f0b612fdc565b928560801d612fdc565b81199060801b1691161791820361304a575050565b5f52600660205260405f2055565b9093918281613078575b5050508161306f57505050565b6101fe926134f6565b613081926134f6565b5f8082613062565b92816130955750505050565b61309e936134ae565b5f80808061215c565b918161306f57505050565b919390938581613188575b5050505080159182156130d05750505050565b6001600160a01b0316806130ea57505061309e915061346d565b60209250613139936130fc60016133d5565b6040516323b872dd60e01b81526001600160a01b0390911660048201523060248201526044810192909252909283919082905f9082906064820190565b03925af18015611fd257613154915f91613159575b50613429565b61309e565b61317b915060203d602011613181575b61317381836102d3565b810190613414565b5f61314e565b503d613169565b613191936134ae565b5f8080856130bd565b6001600160801b0392935f146131cd575016908082106131b8575050565b630173586760e01b5f5260045260245260445ffd5b905016908082106131dc575050565b6368580a1960e01b5f5260045260245260445ffd5b6001600160801b03670de0b6b3a7640000911602906001600160801b0382169182036106ed57565b929493919093825f52600560205260405f2054155f14613259575050506132409250612293565b905b811561324a57565b63283eeadf60e01b5f5260045ffd5b90929193670de0b6b3a7640000810290808204670de0b6b3a764000014901517156106ed578161328891612a23565b82018092116106ed576132c9611670936001600160801b036132c26132d9946116706132b66132e09b6131f1565b6001600160801b031690565b9116612293565b936005905f5260205260405f2090565b5490612a10565b90613242565b91909160018060a01b031690815f52600160205260405f20835f5260205260405f208054908282018092116106ed57556040805133815260208101929092525f915f5160206140ae5f395f51905f529181908101612fd7565b601f825180835d0160051c915f5b83811061335a5750505050565b80602060019260051b8401015182828601015d0161334d565b906040519060208201927fe88690b85c82523984f05d1f281684a73aa4d4303bca19cfe29aa89ae744616a84526001600160601b03199060601b1660408301526001600160601b03199060601b16605482015260488152612c0f6068826102d3565b156133dc57565b60405162461bcd60e51b815260206004820152601060248201526f115512081b9bdd08195e1c1958dd195960821b6044820152606490fd5b908160209103126101ef57516103a0816103a3565b1561343057565b60405162461bcd60e51b8152602060048201526015602482015274115490cc8c081d1c985b9cd9995c8819985a5b1959605a1b6044820152606490fd5b1561347457565b60405162461bcd60e51b8152602060048201526012602482015271125b98dbdc9c9958dd08115512081cd95b9d60721b6044820152606490fd5b9092906001600160a01b0316806134cb57506101fe92501461346d565b6134dc936130fc60209493156133d5565b03925af18015611fd2576101fe915f916131595750613429565b6001600160a01b03168061353057505f808093819382908215613526575b6001600160a01b031690f115611fd257565b6108fc9150613514565b60405163a9059cbb60e01b81526001600160a01b0390921660048301526024820192909252906020908290815f81604481016134dc565b5f916123959130613854565b903590601e19813603018212156101ef57018035906001600160401b0382116101ef57602001918160051b360383136101ef57565b156135af57565b60405162461bcd60e51b81526020600482015260116024820152704d69736d6174636865642061727261797360781b6044820152606490fd5b90156119d35790565b91908110156119d35760051b0190565b356103a0816103b8565b9594939291506060860161361f8188613573565b9050156136c15761364b6136366080890189613573565b9050613642838a613573565b919050146135a8565b60016136578289613573565b9050145f146136b5578661366d6103a098612f79565b9161367a60208301612f79565b6136ad60a06136a66136a161369b61369460408901612f79565b9688613573565b906135e8565b613601565b9401612f6f565b936005613d9f565b506103a09560056139eb565b60405162461bcd60e51b815260206004820152600b60248201526a4e6f206d61726b696e677360a81b6044820152606490fd5b9190915f83820193841291129080158216911516176106ed57565b909261371c848330613854565b5c613728848430613854565b5c916001600160a01b03858116929087168084146137f157918161378b95935f6101fe9a9694125f146137d15761376161377092612e64565b906137ca5782905b88876134ae565b5f8313156137905750506137859084866134f6565b82613567565b613567565b5f83126137a0575b505050613785565b6137ac6137ba93612e64565b916137c257905b85876134ae565b5f8080613798565b505f906137b3565b5f90613769565b505f81136137e0575b50613770565b6137eb9087866134f6565b5f6137da565b92506101fe969593613802916136f4565b925f84121561382e575061381861378b93612e64565b9161382657905b83856134ae565b505f9061381f565b92915050825f8213613843575b505050613567565b61384c926134f6565b5f808261383b565b916040519160208301937f71aa94563c1d78d77df681ad802fc1a81ea7d00cffe4bbe002400e1d66de80d285526001600160601b03199060601b1660408401526001600160601b03199060601b1660548301526001600160601b03199060601b166068820152605c8152612c0f607c826102d3565b9190916040818403126101ef5780516001600160401b0381116101ef57836138f2918301611a2f565b9260208201516001600160401b0381116101ef576103a09201611a2f565b90602080835192838152019201905f5b81811061392d5750505090565b82516001600160e81b031916845260209384019390920191600101613920565b80516001600160a01b0390811683526020808301518216908401526040808301519091169083015260608082015160c09184018290526103a0939160a091613997918401906105ad565b9260808101511515608084015201519060a0818403910152613910565b916139dd906139cf6103a0959360608652606086019061394d565b908482036020860152611ab1565b916040818403910152611ab1565b96949590929391966060840197613a028986613573565b969050613d5c575b50613a1485611980565b91613a1e86611980565b905f5b878110613cc65750815f91858389613ae5613b079d9e9f613ab9613ade613a4785612f79565b94613ad0613a5760208301612f79565b94613a8c613ac9613a6a60408601612f79565b613a776080870187613573565b939094613a8660a08901612f6f565b97613573565b989099613aa9613a9a6102f4565b6001600160a01b03909e168e52565b6001600160a01b031660208d0152565b6001600160a01b031660408b0152565b3691610339565b606087015215156080860152565b36916103ca565b60a082015260405163027b8f7b60e11b81529c8d9586948593600485016139b4565b03926001600160a01b03165af1908115611fd2575f975f92613c9f575b505f5b878110613ba357505050505090613b509495613b4a9392613b54575b5050612278565b906119d8565b5190565b81613b6460a0613b8e9401612f6f565b15613b95576020613b759101612f79565b613b87613b8185612278565b876119d8565b5191613ec3565b5f80613b43565b613b9e90612f79565b613b75565b80613c658a89613bcd84613bc6600197613bc06080860186613573565b906135f1565b35936119d8565b51613c0b613beb613bde878d6119d8565b516001600160801b031690565b82613bf9613bde898c6119d8565b613c0560a08701612f6f565b9261319a565b613c1585896119d8565b5192613c2360a08401612f6f565b15613c7f57613c4260a06001600160801b038316600f0b945b01612f6f565b15613c6b57506001600160801b03613c5d9116600f0b612a41565b915b88613ed6565b01613b27565b6001600160801b03915016600f0b91613c5f565b613c4260a0613c996001600160801b038516600f0b612a41565b94613c3c565b909750613cbe91503d805f833e613cb681836102d3565b8101906138c9565b90965f613b24565b600190613d56613d4c613d31613d108f8c613ce081612f79565b91613d0a6136a189613bc0613cf760208701612f79565b94613d0460408801612f79565b96613573565b92612ba3565b886001915f520160205260405f2054906001600160801b0382169160801c90565b613d3e85899493946119d8565b906001600160801b03169052565b613d3e83896119d8565b01613a21565b613d8a90613d6c60a08701612f6f565b15613d9057613d83613d7d87612f79565b91612e64565b9089613ec3565b5f613a0a565b613d83613d7d60208801612f79565b9185809c9b829893979b99959a969a613dba8c82868c612ba3565b96613e9a575b8885613de789896001915f520160205260405f2054906001600160801b0382169160801c90565b9e8f948298613df7989395613f74565b9b8c809a613e049361319a565b613e3f928915613e7f576001600160801b038216600f0b915b8a15613e6d5750613e396001600160801b038a16600f0b612a41565b92613ed6565b613e4b575b5050505050565b613e5b9415613e65575090613ec3565b5f82818080613e44565b905090613ec3565b6001600160801b0316600f0b92613ed6565b613e946001600160801b038a16600f0b612a41565b91613e1d565b8215613eba57613eb5895b613eae87612e64565b908d613ec3565b613dc0565b613eb584613ea5565b90613ece9130613854565b90815c01905d565b6001909392930191815f52826020526001600160801b03613f0e613f0460405f205496838816600f0b612fdc565b928660801d612fdc565b81199060801b16911617928303613f2457505050565b5f5260205260405f2055565b91908260409103126101ef576020825192015190565b9193926001600160801b039081613f6760409460608752606087019061394d565b9616602085015216910152565b61401898935f92613fea6040989a979995613fdb613f9061195e565b938d613f9b866119c6565b52613fb1613fa761195e565b96611762886119c6565b613fcb613fbc6102f4565b6001600160a01b039098168852565b6001600160a01b03166020870152565b6001600160a01b0316848a0152565b6060830152871515608083015260a082015285516360a80dbb60e01b81529889958694859360048501613f46565b03926001600160a01b03165af1928315611fd2575f9361407b575b50821561403f57505090565b90915015614061576140536103a0916129ec565b670de0b6b3a7640000900490565b61406d6103a0916129c8565b67120a871cc0020000900490565b61409e91935060403d6040116140a6575b61409681836102d3565b810190613f30565b50915f614033565b503d61408c56fe1b3d7edb2e9c0b0e7c525b20aaaef0f5940d2ed71663c7d39266ecafac728859a2646970667358221220d14494fbf98b2c73e106a3c21181793449cddbc3a9a8ae20f1efc80a0167069f64736f6c634300081e0033","opcodes":"PUSH1 0xC0 CALLVALUE PUSH2 0xB2 JUMPI PUSH1 0x1F PUSH2 0x41E2 CODESIZE DUP2 SWAP1 SUB SWAP2 DUP3 ADD PUSH1 0x1F NOT AND DUP4 ADD SWAP2 PUSH1 0x1 PUSH1 0x1 PUSH1 0x40 SHL SUB DUP4 GT DUP5 DUP5 LT OR PUSH2 0xB6 JUMPI DUP1 DUP5 SWAP3 PUSH1 0x40 SWAP5 DUP6 MSTORE DUP4 CODECOPY DUP2 ADD SUB SLT PUSH2 0xB2 JUMPI PUSH2 0x52 PUSH1 0x20 PUSH2 0x4B DUP4 PUSH2 0xCA JUMP JUMPDEST SWAP3 ADD PUSH2 0xCA JUMP JUMPDEST SWAP1 PUSH1 0x80 MSTORE PUSH1 0xA0 MSTORE PUSH1 0x40 MLOAD PUSH2 0x4103 SWAP1 DUP2 PUSH2 0xDF DUP3 CODECOPY PUSH1 0x80 MLOAD DUP2 DUP2 DUP2 PUSH2 0x108D ADD MSTORE DUP2 DUP2 PUSH2 0x1ECD ADD MSTORE DUP2 DUP2 PUSH2 0x20D3 ADD MSTORE DUP2 DUP2 PUSH2 0x2651 ADD MSTORE PUSH2 0x27EA ADD MSTORE PUSH1 0xA0 MLOAD DUP2 DUP2 DUP2 PUSH2 0x711 ADD MSTORE DUP2 DUP2 PUSH2 0x1F12 ADD MSTORE DUP2 DUP2 PUSH2 0x218F ADD MSTORE DUP2 DUP2 PUSH2 0x2691 ADD MSTORE PUSH2 0x289F ADD MSTORE RETURN JUMPDEST PUSH0 DUP1 REVERT JUMPDEST PUSH4 0x4E487B71 PUSH1 0xE0 SHL PUSH0 MSTORE PUSH1 0x41 PUSH1 0x4 MSTORE PUSH1 0x24 PUSH0 REVERT JUMPDEST MLOAD SWAP1 PUSH1 0x1 PUSH1 0x1 PUSH1 0xA0 SHL SUB DUP3 AND DUP3 SUB PUSH2 0xB2 JUMPI JUMP INVALID PUSH1 0x80 PUSH1 0x40 MSTORE PUSH1 0x4 CALLDATASIZE LT ISZERO PUSH2 0x11 JUMPI PUSH0 DUP1 REVERT JUMPDEST PUSH0 CALLDATALOAD PUSH1 0xE0 SHR DUP1 PUSH3 0xFDD58E EQ PUSH2 0x1D9 JUMPI DUP1 PUSH4 0x1FFC9A7 EQ PUSH2 0x1D4 JUMPI DUP1 PUSH4 0x4F71EF6 EQ PUSH2 0x170 JUMPI DUP1 PUSH4 0x95BCDB6 EQ PUSH2 0x1CF JUMPI DUP1 PUSH4 0x19920A5F EQ PUSH2 0x1CA JUMPI DUP1 PUSH4 0x2F380B35 EQ PUSH2 0x1C5 JUMPI DUP1 PUSH4 0x426A8493 EQ PUSH2 0x1C0 JUMPI DUP1 PUSH4 0x460C6DF8 EQ PUSH2 0x1BB JUMPI DUP1 PUSH4 0x558A7297 EQ PUSH2 0x1B6 JUMPI DUP1 PUSH4 0x5670F55A EQ PUSH2 0x1B1 JUMPI DUP1 PUSH4 0x598AF9E7 EQ PUSH2 0x1AC JUMPI DUP1 PUSH4 0x5B298D32 EQ PUSH2 0x1A7 JUMPI DUP1 PUSH4 0x5DFB78AF EQ PUSH2 0x1A2 JUMPI DUP1 PUSH4 0x60A80DBB EQ PUSH2 0x189 JUMPI DUP1 PUSH4 0x61408F26 EQ PUSH2 0x19D JUMPI DUP1 PUSH4 0x7DC27C95 EQ PUSH2 0x198 JUMPI DUP1 PUSH4 0x83E66C2E EQ PUSH2 0x193 JUMPI DUP1 PUSH4 0x8E832E08 EQ PUSH2 0x18E JUMPI DUP1 PUSH4 0x8F155291 EQ PUSH2 0x189 JUMPI DUP1 PUSH4 0x9D2EC6E4 EQ PUSH2 0x184 JUMPI DUP1 PUSH4 0xA1A44DAD EQ PUSH2 0x17F JUMPI DUP1 PUSH4 0xB5E60C3C EQ PUSH2 0x17A JUMPI DUP1 PUSH4 0xB6363CF2 EQ PUSH2 0x175 JUMPI DUP1 PUSH4 0xC279171D EQ PUSH2 0x170 JUMPI DUP1 PUSH4 0xCB1F2F38 EQ PUSH2 0x16B JUMPI DUP1 PUSH4 0xD2615FC8 EQ PUSH2 0x166 JUMPI DUP1 PUSH4 0xD92BC84C EQ PUSH2 0x161 JUMPI DUP1 PUSH4 0xE513315B EQ PUSH2 0x15C JUMPI PUSH4 0xFE99049A EQ PUSH2 0x157 JUMPI PUSH0 DUP1 REVERT JUMPDEST PUSH2 0x17B0 JUMP JUMPDEST PUSH2 0x157B JUMP JUMPDEST PUSH2 0x135B JUMP JUMPDEST PUSH2 0x1315 JUMP JUMPDEST PUSH2 0x1149 JUMP JUMPDEST PUSH2 0x605 JUMP JUMPDEST PUSH2 0x10E6 JUMP JUMPDEST PUSH2 0x10BC JUMP JUMPDEST PUSH2 0x1078 JUMP JUMPDEST PUSH2 0xEFC JUMP JUMPDEST PUSH2 0xDA4 JUMP JUMPDEST PUSH2 0xEB7 JUMP JUMPDEST PUSH2 0xE71 JUMP JUMPDEST PUSH2 0xE12 JUMP JUMPDEST PUSH2 0xDCD JUMP JUMPDEST PUSH2 0xCCB JUMP JUMPDEST PUSH2 0xC4B JUMP JUMPDEST PUSH2 0xBDE JUMP JUMPDEST PUSH2 0x9CC JUMP JUMPDEST PUSH2 0x930 JUMP JUMPDEST PUSH2 0x8CF JUMP JUMPDEST PUSH2 0x83E JUMP JUMPDEST PUSH2 0x740 JUMP JUMPDEST PUSH2 0x6FC JUMP JUMPDEST PUSH2 0x653 JUMP JUMPDEST PUSH2 0x249 JUMP JUMPDEST PUSH2 0x200 JUMP JUMPDEST PUSH1 0x1 PUSH1 0x1 PUSH1 0xA0 SHL SUB DUP2 AND SUB PUSH2 0x1EF JUMPI JUMP JUMPDEST PUSH0 DUP1 REVERT JUMPDEST CALLDATALOAD SWAP1 PUSH2 0x1FE DUP3 PUSH2 0x1DE JUMP JUMPDEST JUMP JUMPDEST CALLVALUE PUSH2 0x1EF JUMPI PUSH1 0x40 CALLDATASIZE PUSH1 0x3 NOT ADD SLT PUSH2 0x1EF JUMPI PUSH1 0x4 CALLDATALOAD PUSH2 0x21D DUP2 PUSH2 0x1DE JUMP JUMPDEST PUSH1 0x24 CALLDATALOAD SWAP1 PUSH1 0x1 DUP1 PUSH1 0xA0 SHL SUB AND PUSH0 MSTORE PUSH1 0x1 PUSH1 0x20 MSTORE PUSH1 0x40 PUSH0 KECCAK256 SWAP1 PUSH0 MSTORE PUSH1 0x20 MSTORE PUSH1 0x20 PUSH1 0x40 PUSH0 KECCAK256 SLOAD PUSH1 0x40 MLOAD SWAP1 DUP2 MSTORE RETURN JUMPDEST CALLVALUE PUSH2 0x1EF JUMPI PUSH1 0x20 CALLDATASIZE PUSH1 0x3 NOT ADD SLT PUSH2 0x1EF JUMPI PUSH1 0x4 CALLDATALOAD PUSH4 0xFFFFFFFF PUSH1 0xE0 SHL DUP2 AND DUP1 SWAP2 SUB PUSH2 0x1EF JUMPI PUSH1 0x20 SWAP1 PUSH4 0x1FFC9A7 PUSH1 0xE0 SHL DUP2 EQ SWAP1 DUP2 ISZERO PUSH2 0x28E JUMPI JUMPDEST POP PUSH1 0x40 MLOAD SWAP1 ISZERO ISZERO DUP2 MSTORE RETURN JUMPDEST PUSH4 0xF632FB3 PUSH1 0xE0 SHL EQ SWAP1 POP PUSH0 PUSH2 0x283 JUMP JUMPDEST PUSH4 0x4E487B71 PUSH1 0xE0 SHL PUSH0 MSTORE PUSH1 0x41 PUSH1 0x4 MSTORE PUSH1 0x24 PUSH0 REVERT JUMPDEST PUSH1 0x80 DUP2 ADD SWAP1 DUP2 LT PUSH1 0x1 PUSH1 0x1 PUSH1 0x40 SHL SUB DUP3 GT OR PUSH2 0x2CE JUMPI PUSH1 0x40 MSTORE JUMP JUMPDEST PUSH2 0x29F JUMP JUMPDEST SWAP1 PUSH1 0x1F DUP1 NOT SWAP2 ADD AND DUP2 ADD SWAP1 DUP2 LT PUSH1 0x1 PUSH1 0x1 PUSH1 0x40 SHL SUB DUP3 GT OR PUSH2 0x2CE JUMPI PUSH1 0x40 MSTORE JUMP JUMPDEST PUSH1 0x40 MLOAD SWAP1 PUSH2 0x1FE PUSH1 0xC0 DUP4 PUSH2 0x2D3 JUMP JUMPDEST PUSH1 0x40 MLOAD SWAP1 PUSH2 0x1FE PUSH1 0x80 DUP4 PUSH2 0x2D3 JUMP JUMPDEST PUSH1 0x40 MLOAD SWAP1 PUSH2 0x1FE PUSH2 0x100 DUP4 PUSH2 0x2D3 JUMP JUMPDEST PUSH1 0x1 PUSH1 0x1 PUSH1 0x40 SHL SUB DUP2 GT PUSH2 0x2CE JUMPI PUSH1 0x5 SHL PUSH1 0x20 ADD SWAP1 JUMP JUMPDEST SWAP3 SWAP2 SWAP1 PUSH2 0x345 DUP2 PUSH2 0x322 JUMP JUMPDEST SWAP4 PUSH2 0x353 PUSH1 0x40 MLOAD SWAP6 DUP7 PUSH2 0x2D3 JUMP JUMPDEST PUSH1 0x20 DUP6 DUP4 DUP2 MSTORE ADD SWAP2 PUSH1 0x5 SHL DUP2 ADD SWAP3 DUP4 GT PUSH2 0x1EF JUMPI SWAP1 JUMPDEST DUP3 DUP3 LT PUSH2 0x375 JUMPI POP POP POP JUMP JUMPDEST DUP2 CALLDATALOAD DUP2 MSTORE PUSH1 0x20 SWAP2 DUP3 ADD SWAP2 ADD PUSH2 0x369 JUMP JUMPDEST SWAP1 DUP1 PUSH1 0x1F DUP4 ADD SLT ISZERO PUSH2 0x1EF JUMPI DUP2 PUSH1 0x20 PUSH2 0x3A0 SWAP4 CALLDATALOAD SWAP2 ADD PUSH2 0x339 JUMP JUMPDEST SWAP1 JUMP JUMPDEST DUP1 ISZERO ISZERO SUB PUSH2 0x1EF JUMPI JUMP JUMPDEST CALLDATALOAD SWAP1 PUSH2 0x1FE DUP3 PUSH2 0x3A3 JUMP JUMPDEST PUSH1 0x1 PUSH1 0x1 PUSH1 0xE8 SHL SUB NOT DUP2 AND SUB PUSH2 0x1EF JUMPI JUMP JUMPDEST SWAP3 SWAP2 SWAP1 PUSH2 0x3D6 DUP2 PUSH2 0x322 JUMP JUMPDEST SWAP4 PUSH2 0x3E4 PUSH1 0x40 MLOAD SWAP6 DUP7 PUSH2 0x2D3 JUMP JUMPDEST PUSH1 0x20 DUP6 DUP4 DUP2 MSTORE ADD SWAP2 PUSH1 0x5 SHL DUP2 ADD SWAP3 DUP4 GT PUSH2 0x1EF JUMPI SWAP1 JUMPDEST DUP3 DUP3 LT PUSH2 0x406 JUMPI POP POP POP JUMP JUMPDEST PUSH1 0x20 DUP1 SWAP2 DUP4 CALLDATALOAD PUSH2 0x415 DUP2 PUSH2 0x3B8 JUMP JUMPDEST DUP2 MSTORE ADD SWAP2 ADD SWAP1 PUSH2 0x3FA JUMP JUMPDEST SWAP1 DUP1 PUSH1 0x1F DUP4 ADD SLT ISZERO PUSH2 0x1EF JUMPI DUP2 PUSH1 0x20 PUSH2 0x3A0 SWAP4 CALLDATALOAD SWAP2 ADD PUSH2 0x3CA JUMP JUMPDEST SWAP2 SWAP1 SWAP2 PUSH1 0xC0 DUP2 DUP5 SUB SLT PUSH2 0x1EF JUMPI PUSH2 0x450 PUSH2 0x2F4 JUMP JUMPDEST SWAP3 PUSH2 0x45A DUP3 PUSH2 0x1F3 JUMP JUMPDEST DUP5 MSTORE PUSH2 0x468 PUSH1 0x20 DUP4 ADD PUSH2 0x1F3 JUMP JUMPDEST PUSH1 0x20 DUP6 ADD MSTORE PUSH2 0x479 PUSH1 0x40 DUP4 ADD PUSH2 0x1F3 JUMP JUMPDEST PUSH1 0x40 DUP6 ADD MSTORE PUSH1 0x60 DUP3 ADD CALLDATALOAD PUSH1 0x1 PUSH1 0x1 PUSH1 0x40 SHL SUB DUP2 GT PUSH2 0x1EF JUMPI DUP2 PUSH2 0x49D SWAP2 DUP5 ADD PUSH2 0x385 JUMP JUMPDEST PUSH1 0x60 DUP6 ADD MSTORE PUSH2 0x4AE PUSH1 0x80 DUP4 ADD PUSH2 0x3AD JUMP JUMPDEST PUSH1 0x80 DUP6 ADD MSTORE PUSH1 0xA0 DUP3 ADD CALLDATALOAD PUSH1 0x1 PUSH1 0x1 PUSH1 0x40 SHL SUB DUP2 GT PUSH2 0x1EF JUMPI PUSH2 0x4D0 SWAP3 ADD PUSH2 0x420 JUMP JUMPDEST PUSH1 0xA0 DUP4 ADD MSTORE JUMP JUMPDEST SWAP1 DUP1 PUSH1 0x1F DUP4 ADD SLT ISZERO PUSH2 0x1EF JUMPI DUP2 CALLDATALOAD SWAP1 PUSH2 0x4EF DUP3 PUSH2 0x322 JUMP JUMPDEST SWAP3 PUSH2 0x4FD PUSH1 0x40 MLOAD SWAP5 DUP6 PUSH2 0x2D3 JUMP JUMPDEST DUP3 DUP5 MSTORE PUSH1 0x20 DUP1 DUP6 ADD SWAP4 PUSH1 0x5 SHL DUP3 ADD ADD SWAP2 DUP3 GT PUSH2 0x1EF JUMPI PUSH1 0x20 ADD SWAP2 JUMPDEST DUP2 DUP4 LT PUSH2 0x525 JUMPI POP POP POP SWAP1 JUMP JUMPDEST DUP3 CALLDATALOAD PUSH1 0x1 PUSH1 0x1 PUSH1 0x80 SHL SUB DUP2 AND DUP2 SUB PUSH2 0x1EF JUMPI DUP2 MSTORE PUSH1 0x20 SWAP3 DUP4 ADD SWAP3 ADD PUSH2 0x518 JUMP JUMPDEST PUSH1 0x60 PUSH1 0x3 NOT DUP3 ADD SLT PUSH2 0x1EF JUMPI PUSH1 0x4 CALLDATALOAD PUSH1 0x1 PUSH1 0x1 PUSH1 0x40 SHL SUB DUP2 GT PUSH2 0x1EF JUMPI DUP2 PUSH2 0x56F SWAP2 PUSH1 0x4 ADD PUSH2 0x43B JUMP JUMPDEST SWAP2 PUSH1 0x24 CALLDATALOAD PUSH1 0x1 PUSH1 0x1 PUSH1 0x40 SHL SUB DUP2 GT PUSH2 0x1EF JUMPI DUP3 PUSH2 0x58E SWAP2 PUSH1 0x4 ADD PUSH2 0x4D7 JUMP JUMPDEST SWAP2 PUSH1 0x44 CALLDATALOAD SWAP1 PUSH1 0x1 PUSH1 0x1 PUSH1 0x40 SHL SUB DUP3 GT PUSH2 0x1EF JUMPI PUSH2 0x3A0 SWAP2 PUSH1 0x4 ADD PUSH2 0x4D7 JUMP JUMPDEST SWAP1 PUSH1 0x20 DUP1 DUP4 MLOAD SWAP3 DUP4 DUP2 MSTORE ADD SWAP3 ADD SWAP1 PUSH0 JUMPDEST DUP2 DUP2 LT PUSH2 0x5CA JUMPI POP POP POP SWAP1 JUMP JUMPDEST DUP3 MLOAD DUP5 MSTORE PUSH1 0x20 SWAP4 DUP5 ADD SWAP4 SWAP1 SWAP3 ADD SWAP2 PUSH1 0x1 ADD PUSH2 0x5BD JUMP JUMPDEST SWAP1 SWAP2 PUSH2 0x5F7 PUSH2 0x3A0 SWAP4 PUSH1 0x40 DUP5 MSTORE PUSH1 0x40 DUP5 ADD SWAP1 PUSH2 0x5AD JUMP JUMPDEST SWAP2 PUSH1 0x20 DUP2 DUP5 SUB SWAP2 ADD MSTORE PUSH2 0x5AD JUMP JUMPDEST CALLVALUE PUSH2 0x1EF JUMPI PUSH2 0x61C PUSH2 0x616 CALLDATASIZE PUSH2 0x545 JUMP JUMPDEST SWAP2 PUSH2 0x1CA3 JUMP JUMPDEST SWAP1 PUSH2 0x62C PUSH1 0x40 MLOAD SWAP3 DUP4 SWAP3 DUP4 PUSH2 0x5E0 JUMP JUMPDEST SUB SWAP1 RETURN JUMPDEST PUSH1 0x60 SWAP1 PUSH1 0x3 NOT ADD SLT PUSH2 0x1EF JUMPI PUSH1 0x4 CALLDATALOAD PUSH2 0x648 DUP2 PUSH2 0x1DE JUMP JUMPDEST SWAP1 PUSH1 0x24 CALLDATALOAD SWAP1 PUSH1 0x44 CALLDATALOAD SWAP1 JUMP JUMPDEST CALLVALUE PUSH2 0x1EF JUMPI PUSH2 0x661 CALLDATASIZE PUSH2 0x630 JUMP JUMPDEST SWAP1 SWAP2 CALLER PUSH0 MSTORE PUSH1 0x1 PUSH1 0x20 MSTORE PUSH1 0x40 PUSH0 KECCAK256 DUP4 PUSH0 MSTORE PUSH1 0x20 MSTORE PUSH1 0x40 PUSH0 KECCAK256 DUP1 SLOAD SWAP1 DUP4 DUP3 SUB SWAP2 DUP3 GT PUSH2 0x6ED JUMPI SSTORE PUSH1 0x1 DUP1 PUSH1 0xA0 SHL SUB AND SWAP1 DUP2 PUSH0 MSTORE PUSH1 0x1 PUSH1 0x20 MSTORE PUSH2 0x6AD DUP4 PUSH1 0x40 PUSH0 KECCAK256 SWAP1 PUSH0 MSTORE PUSH1 0x20 MSTORE PUSH1 0x40 PUSH0 KECCAK256 SWAP1 JUMP JUMPDEST PUSH2 0x6B8 DUP3 DUP3 SLOAD PUSH2 0x2293 JUMP JUMPDEST SWAP1 SSTORE PUSH1 0x40 DUP1 MLOAD CALLER DUP1 DUP3 MSTORE PUSH1 0x20 DUP3 ADD SWAP4 SWAP1 SWAP4 MSTORE PUSH0 MLOAD PUSH1 0x20 PUSH2 0x40AE PUSH0 CODECOPY PUSH0 MLOAD SWAP1 PUSH0 MSTORE SWAP2 DUP2 SWAP1 DUP2 ADD JUMPDEST SUB SWAP1 LOG4 PUSH1 0x40 MLOAD PUSH1 0x1 DUP2 MSTORE PUSH1 0x20 SWAP1 RETURN JUMPDEST PUSH2 0x2264 JUMP JUMPDEST PUSH0 SWAP2 SUB SLT PUSH2 0x1EF JUMPI JUMP JUMPDEST CALLVALUE PUSH2 0x1EF JUMPI PUSH0 CALLDATASIZE PUSH1 0x3 NOT ADD SLT PUSH2 0x1EF JUMPI PUSH1 0x40 MLOAD PUSH32 0x0 PUSH1 0x1 PUSH1 0x1 PUSH1 0xA0 SHL SUB AND DUP2 MSTORE PUSH1 0x20 SWAP1 RETURN JUMPDEST CALLVALUE PUSH2 0x1EF JUMPI PUSH1 0x20 CALLDATASIZE PUSH1 0x3 NOT ADD SLT PUSH2 0x1EF JUMPI PUSH1 0x4 CALLDATALOAD PUSH0 PUSH1 0x60 PUSH1 0x40 MLOAD PUSH2 0x763 DUP2 PUSH2 0x2B3 JUMP JUMPDEST DUP3 DUP2 MSTORE DUP3 PUSH1 0x20 DUP3 ADD MSTORE DUP3 PUSH1 0x40 DUP3 ADD MSTORE ADD MSTORE PUSH0 MSTORE PUSH1 0x7 PUSH1 0x20 MSTORE PUSH1 0x40 PUSH0 KECCAK256 PUSH1 0x40 MLOAD SWAP1 PUSH2 0x78C DUP3 PUSH2 0x2B3 JUMP JUMPDEST DUP1 SLOAD PUSH1 0x1 PUSH1 0x1 PUSH1 0xA0 SHL SUB SWAP1 DUP2 AND DUP1 DUP5 MSTORE PUSH1 0x1 DUP4 ADD SLOAD DUP3 AND PUSH1 0x20 DUP6 ADD DUP2 SWAP1 MSTORE PUSH1 0x2 SWAP1 SWAP4 ADD SLOAD SWAP2 DUP3 AND PUSH1 0x40 DUP6 ADD DUP2 SWAP1 MSTORE PUSH1 0x48 SWAP3 SWAP1 SWAP3 SHL PUSH1 0x1 PUSH1 0x1 PUSH1 0xE8 SHL SUB NOT AND PUSH1 0x60 SWAP5 SWAP1 SWAP5 ADD DUP5 SWAP1 MSTORE SWAP1 SWAP3 PUSH2 0x62C SWAP2 PUSH2 0x803 SWAP1 PUSH2 0x7F5 SWAP1 PUSH2 0x7E8 SWAP1 DUP2 JUMP JUMPDEST SWAP6 PUSH1 0x1 PUSH1 0x1 PUSH1 0xA0 SHL SUB AND SWAP1 JUMP JUMPDEST SWAP2 PUSH1 0x1 PUSH1 0x1 PUSH1 0xE8 SHL SUB NOT AND SWAP1 JUMP JUMPDEST PUSH1 0x40 DUP1 MLOAD PUSH1 0x1 PUSH1 0x1 PUSH1 0xA0 SHL SUB SWAP6 DUP7 AND DUP2 MSTORE SWAP6 DUP6 AND PUSH1 0x20 DUP8 ADD MSTORE SWAP2 SWAP1 SWAP4 AND SWAP1 DUP5 ADD MSTORE PUSH1 0x1 PUSH1 0x1 PUSH1 0xE8 SHL SUB NOT SWAP1 SWAP2 AND PUSH1 0x60 DUP4 ADD MSTORE DUP2 SWAP1 PUSH1 0x80 DUP3 ADD SWAP1 JUMP JUMPDEST CALLVALUE PUSH2 0x1EF JUMPI PUSH2 0x84C CALLDATASIZE PUSH2 0x630 JUMP JUMPDEST SWAP1 SWAP2 CALLER PUSH0 MSTORE PUSH1 0x2 PUSH1 0x20 MSTORE PUSH2 0x873 DUP2 PUSH1 0x40 PUSH0 KECCAK256 SWAP1 PUSH1 0x1 DUP1 PUSH1 0xA0 SHL SUB AND PUSH0 MSTORE PUSH1 0x20 MSTORE PUSH1 0x40 PUSH0 KECCAK256 SWAP1 JUMP JUMPDEST DUP4 PUSH0 MSTORE PUSH1 0x20 MSTORE DUP2 PUSH1 0x40 PUSH0 KECCAK256 SSTORE PUSH1 0x40 MLOAD SWAP2 DUP3 MSTORE PUSH1 0x1 DUP1 PUSH1 0xA0 SHL SUB AND SWAP1 PUSH32 0xB3FD5071835887567A0671151121894DDCCC2842F1D10BEDAD13E0D17CACE9A7 PUSH1 0x20 CALLER SWAP3 LOG4 PUSH1 0x20 PUSH1 0x40 MLOAD PUSH1 0x1 DUP2 MSTORE RETURN JUMPDEST PUSH1 0x4 CALLDATALOAD SWAP1 PUSH1 0xFF DUP3 AND DUP3 SUB PUSH2 0x1EF JUMPI JUMP JUMPDEST CALLVALUE PUSH2 0x1EF JUMPI PUSH1 0x40 CALLDATASIZE PUSH1 0x3 NOT ADD SLT PUSH2 0x1EF JUMPI PUSH2 0x92E PUSH2 0x8EB PUSH2 0x8BF JUMP JUMPDEST PUSH1 0xFF PUSH1 0x24 CALLDATALOAD SWAP2 PUSH2 0x8FA DUP4 PUSH2 0x1DE JUMP JUMPDEST AND PUSH2 0x907 PUSH1 0x10 DUP3 LT PUSH2 0x22A0 JUMP JUMPDEST PUSH0 MSTORE PUSH1 0x3 PUSH1 0x20 MSTORE PUSH1 0x40 PUSH0 KECCAK256 SWAP1 PUSH1 0x1 DUP1 PUSH1 0xA0 SHL SUB AND PUSH1 0x1 PUSH1 0x1 PUSH1 0x60 SHL SUB PUSH1 0xA0 SHL DUP3 SLOAD AND OR SWAP1 SSTORE JUMP JUMPDEST STOP JUMPDEST CALLVALUE PUSH2 0x1EF JUMPI PUSH1 0x40 CALLDATASIZE PUSH1 0x3 NOT ADD SLT PUSH2 0x1EF JUMPI PUSH1 0x4 CALLDATALOAD PUSH2 0x94D DUP2 PUSH2 0x1DE JUMP JUMPDEST PUSH1 0x24 CALLDATALOAD SWAP1 PUSH2 0x95A DUP3 PUSH2 0x3A3 JUMP JUMPDEST CALLER PUSH0 SWAP1 DUP2 MSTORE PUSH1 0x20 DUP2 DUP2 MSTORE PUSH1 0x40 DUP1 DUP4 KECCAK256 PUSH1 0x1 PUSH1 0x1 PUSH1 0xA0 SHL SUB DUP6 AND DUP5 MSTORE SWAP1 SWAP2 MSTORE SWAP1 KECCAK256 SWAP2 ISZERO ISZERO SWAP2 PUSH1 0xFF NOT DUP2 SLOAD AND PUSH1 0xFF DUP5 AND OR SWAP1 SSTORE PUSH1 0x40 MLOAD SWAP2 DUP3 MSTORE PUSH1 0x1 DUP1 PUSH1 0xA0 SHL SUB AND SWAP1 PUSH32 0xCEB576D9F15E4E200FDB5096D64D5DFD667E16DEF20C1EEFD14256D8E3FAA267 PUSH1 0x20 CALLER SWAP3 LOG3 PUSH1 0x40 MLOAD PUSH1 0x1 DUP2 MSTORE PUSH1 0x20 SWAP1 RETURN JUMPDEST CALLVALUE PUSH2 0x1EF JUMPI PUSH1 0x80 CALLDATASIZE PUSH1 0x3 NOT ADD SLT PUSH2 0x1EF JUMPI PUSH1 0x4 CALLDATALOAD PUSH2 0x9E9 DUP2 PUSH2 0x1DE JUMP JUMPDEST PUSH1 0x24 CALLDATALOAD PUSH2 0x9F5 DUP2 PUSH2 0x1DE JUMP JUMPDEST PUSH1 0x44 CALLDATALOAD SWAP2 PUSH2 0xA02 DUP4 PUSH2 0x1DE JUMP JUMPDEST PUSH1 0x64 CALLDATALOAD SWAP2 PUSH2 0xA0F DUP4 PUSH2 0x3B8 JUMP JUMPDEST PUSH2 0xA1F PUSH2 0xA1A PUSH2 0x2E15 JUMP JUMPDEST PUSH2 0x2E58 JUMP JUMPDEST PUSH2 0xA2B DUP4 DUP6 DUP4 DUP6 PUSH2 0x2BA3 JUMP JUMPDEST SWAP3 PUSH1 0x1 DUP1 PUSH1 0xA0 SHL SUB PUSH2 0xA58 PUSH1 0x2 PUSH2 0xA4A DUP8 PUSH0 MSTORE PUSH1 0x7 PUSH1 0x20 MSTORE PUSH1 0x40 PUSH0 KECCAK256 SWAP1 JUMP JUMPDEST ADD SLOAD PUSH1 0x1 PUSH1 0x1 PUSH1 0xA0 SHL SUB AND SWAP1 JUMP JUMPDEST AND PUSH2 0xBCA JUMPI PUSH2 0x62C SWAP5 DUP5 SWAP4 PUSH32 0x68DF9A4EB7AACBE8F43763BFBC9F7CA135A5397190EA1CCE2558DB52DC2F3692 SWAP4 SWAP2 SWAP3 SWAP1 SWAP2 SWAP1 PUSH1 0x1 PUSH1 0x1 PUSH1 0xA0 SHL SUB DUP1 DUP4 AND SWAP1 DUP5 AND LT ISZERO PUSH2 0xBBF JUMPI PUSH2 0xBA2 SWAP2 SWAP4 JUMPDEST PUSH2 0xB66 PUSH2 0xAAF PUSH2 0x303 JUMP JUMPDEST PUSH1 0x1 PUSH1 0x1 PUSH1 0xA0 SHL SUB DUP7 AND DUP2 MSTORE PUSH1 0x1 PUSH1 0x1 PUSH1 0xA0 SHL SUB DUP8 AND PUSH1 0x20 DUP3 ADD MSTORE PUSH1 0x1 PUSH1 0x1 PUSH1 0xA0 SHL SUB DUP4 AND PUSH1 0x40 DUP3 ADD MSTORE PUSH1 0x1 PUSH1 0x1 PUSH1 0xE8 SHL SUB NOT DUP5 AND PUSH1 0x60 DUP3 ADD MSTORE PUSH2 0xAFB DUP10 PUSH0 MSTORE PUSH1 0x7 PUSH1 0x20 MSTORE PUSH1 0x40 PUSH0 KECCAK256 SWAP1 JUMP JUMPDEST DUP2 MLOAD DUP2 SLOAD PUSH1 0x1 PUSH1 0x1 PUSH1 0xA0 SHL SUB NOT SWAP1 DUP2 AND PUSH1 0x1 PUSH1 0x1 PUSH1 0xA0 SHL SUB SWAP3 DUP4 AND OR DUP4 SSTORE PUSH1 0x20 DUP5 ADD MLOAD PUSH1 0x1 DUP5 ADD DUP1 SLOAD SWAP1 SWAP3 AND SWAP1 DUP4 AND OR SWAP1 SSTORE PUSH1 0x40 DUP4 ADD MLOAD PUSH1 0x2 SWAP1 SWAP3 ADD DUP1 SLOAD PUSH1 0x60 SWAP1 SWAP5 ADD MLOAD SWAP3 SWAP1 SWAP2 AND PUSH1 0x1 PUSH1 0x1 PUSH1 0xB8 SHL SUB NOT SWAP1 SWAP4 AND SWAP3 SWAP1 SWAP3 OR PUSH1 0x48 SWAP2 SWAP1 SWAP2 SHR PUSH3 0xFFFFFF PUSH1 0xA0 SHL AND OR SWAP1 SSTORE JUMP JUMPDEST PUSH1 0x40 DUP1 MLOAD PUSH1 0x1 PUSH1 0x1 PUSH1 0xA0 SHL SUB SWAP6 DUP7 AND DUP2 MSTORE SWAP6 DUP6 AND PUSH1 0x20 DUP8 ADD MSTORE SWAP4 AND SWAP3 DUP5 ADD SWAP3 SWAP1 SWAP3 MSTORE PUSH1 0x1 PUSH1 0x1 PUSH1 0xE8 SHL SUB NOT SWAP1 SWAP2 AND PUSH1 0x60 DUP4 ADD MSTORE DUP2 SWAP1 PUSH1 0x80 DUP3 ADD SWAP1 JUMP JUMPDEST SUB SWAP1 LOG2 PUSH0 PUSH2 0xBAE PUSH2 0x2E15 JUMP JUMPDEST TSTORE PUSH1 0x40 MLOAD SWAP1 DUP2 MSTORE SWAP1 DUP2 SWAP1 PUSH1 0x20 DUP3 ADD SWAP1 JUMP JUMPDEST PUSH2 0xBA2 SWAP2 SWAP3 SWAP4 PUSH2 0xAA4 JUMP JUMPDEST PUSH4 0xE1ECC133 PUSH1 0xE0 SHL PUSH0 MSTORE PUSH1 0x4 DUP5 SWAP1 MSTORE PUSH1 0x24 PUSH0 REVERT JUMPDEST CALLVALUE PUSH2 0x1EF JUMPI PUSH1 0x60 CALLDATASIZE PUSH1 0x3 NOT ADD SLT PUSH2 0x1EF JUMPI PUSH1 0x4 CALLDATALOAD PUSH2 0xBFB DUP2 PUSH2 0x1DE JUMP JUMPDEST PUSH2 0xC36 PUSH1 0x24 CALLDATALOAD PUSH2 0xC0A DUP2 PUSH2 0x1DE JUMP JUMPDEST PUSH1 0x44 CALLDATALOAD SWAP3 PUSH1 0x1 DUP1 PUSH1 0xA0 SHL SUB AND PUSH0 MSTORE PUSH1 0x2 PUSH1 0x20 MSTORE PUSH1 0x40 PUSH0 KECCAK256 SWAP1 PUSH1 0x1 DUP1 PUSH1 0xA0 SHL SUB AND PUSH0 MSTORE PUSH1 0x20 MSTORE PUSH1 0x40 PUSH0 KECCAK256 SWAP1 JUMP JUMPDEST SWAP1 PUSH0 MSTORE PUSH1 0x20 MSTORE PUSH1 0x20 PUSH1 0x40 PUSH0 KECCAK256 SLOAD PUSH1 0x40 MLOAD SWAP1 DUP2 MSTORE RETURN JUMPDEST CALLVALUE PUSH2 0x1EF JUMPI PUSH1 0x20 CALLDATASIZE PUSH1 0x3 NOT ADD SLT PUSH2 0x1EF JUMPI PUSH1 0x40 PUSH1 0x1 PUSH1 0x1 PUSH1 0x80 SHL SUB PUSH2 0xC8A PUSH1 0x4 CALLDATALOAD PUSH0 MSTORE PUSH1 0x6 PUSH1 0x20 MSTORE PUSH1 0x40 PUSH0 KECCAK256 SLOAD SWAP1 PUSH1 0x1 PUSH1 0x1 PUSH1 0x80 SHL SUB DUP3 AND SWAP2 PUSH1 0x80 SHR SWAP1 JUMP JUMPDEST DUP4 MLOAD SWAP2 DUP4 AND DUP3 MSTORE SWAP1 SWAP2 AND PUSH1 0x20 DUP3 ADD MSTORE RETURN JUMPDEST SWAP2 DUP2 PUSH1 0x1F DUP5 ADD SLT ISZERO PUSH2 0x1EF JUMPI DUP3 CALLDATALOAD SWAP2 PUSH1 0x1 PUSH1 0x1 PUSH1 0x40 SHL SUB DUP4 GT PUSH2 0x1EF JUMPI PUSH1 0x20 DUP1 DUP6 ADD SWAP5 DUP5 PUSH1 0x5 SHL ADD ADD GT PUSH2 0x1EF JUMPI JUMP JUMPDEST PUSH1 0x60 CALLDATASIZE PUSH1 0x3 NOT ADD SLT PUSH2 0x1EF JUMPI PUSH1 0x4 CALLDATALOAD PUSH2 0xCE3 DUP2 PUSH2 0x1DE JUMP JUMPDEST PUSH1 0x24 CALLDATALOAD PUSH1 0x1 PUSH1 0x1 PUSH1 0x40 SHL SUB DUP2 GT PUSH2 0x1EF JUMPI CALLDATASIZE PUSH1 0x23 DUP3 ADD SLT ISZERO PUSH2 0x1EF JUMPI DUP1 PUSH1 0x4 ADD CALLDATALOAD SWAP1 PUSH1 0x1 PUSH1 0x1 PUSH1 0x40 SHL SUB DUP3 GT PUSH2 0x1EF JUMPI CALLDATASIZE PUSH1 0x24 DUP4 DUP4 ADD ADD GT PUSH2 0x1EF JUMPI PUSH1 0x44 CALLDATALOAD SWAP2 PUSH1 0x1 PUSH1 0x1 PUSH1 0x40 SHL SUB DUP4 GT PUSH2 0x1EF JUMPI PUSH2 0x92E SWAP4 PUSH2 0xD45 PUSH1 0x24 SWAP5 CALLDATASIZE SWAP1 PUSH1 0x4 ADD PUSH2 0xC9B JUMP JUMPDEST SWAP5 SWAP1 SWAP4 ADD SWAP1 PUSH2 0x22EC JUMP JUMPDEST PUSH1 0x60 PUSH1 0x3 NOT DUP3 ADD SLT PUSH2 0x1EF JUMPI PUSH1 0x4 CALLDATALOAD SWAP1 PUSH1 0x1 PUSH1 0x1 PUSH1 0x40 SHL SUB DUP3 GT PUSH2 0x1EF JUMPI PUSH2 0xD79 SWAP2 PUSH1 0x4 ADD PUSH2 0x43B JUMP JUMPDEST SWAP1 PUSH1 0x24 CALLDATALOAD PUSH1 0x1 PUSH1 0x1 PUSH1 0x80 SHL SUB DUP2 AND DUP2 SUB PUSH2 0x1EF JUMPI SWAP1 PUSH1 0x44 CALLDATALOAD PUSH1 0x1 PUSH1 0x1 PUSH1 0x80 SHL SUB DUP2 AND DUP2 SUB PUSH2 0x1EF JUMPI SWAP1 JUMP JUMPDEST CALLVALUE PUSH2 0x1EF JUMPI PUSH2 0xDBB PUSH2 0xDB5 CALLDATASIZE PUSH2 0xD4F JUMP JUMPDEST SWAP2 PUSH2 0x24F7 JUMP JUMPDEST PUSH1 0x40 DUP1 MLOAD SWAP3 DUP4 MSTORE PUSH1 0x20 DUP4 ADD SWAP2 SWAP1 SWAP2 MSTORE SWAP1 RETURN JUMPDEST CALLVALUE PUSH2 0x1EF JUMPI PUSH1 0x20 CALLDATASIZE PUSH1 0x3 NOT ADD SLT PUSH2 0x1EF JUMPI PUSH1 0xFF PUSH2 0xDE8 PUSH2 0x8BF JUMP JUMPDEST AND PUSH2 0xDF5 PUSH1 0x10 DUP3 LT PUSH2 0x22A0 JUMP JUMPDEST PUSH0 SWAP1 DUP2 MSTORE PUSH1 0x4 PUSH1 0x20 MSTORE PUSH1 0x40 SWAP1 KECCAK256 DUP1 SLOAD PUSH1 0x1 PUSH1 0x1 PUSH1 0xA0 SHL SUB NOT AND SWAP1 SSTORE STOP JUMPDEST CALLVALUE PUSH2 0x1EF JUMPI PUSH1 0x40 CALLDATASIZE PUSH1 0x3 NOT ADD SLT PUSH2 0x1EF JUMPI PUSH2 0x92E PUSH2 0xE2E PUSH2 0x8BF JUMP JUMPDEST PUSH1 0xFF PUSH1 0x24 CALLDATALOAD SWAP2 PUSH2 0xE3D DUP4 PUSH2 0x1DE JUMP JUMPDEST AND PUSH2 0xE4A PUSH1 0x10 DUP3 LT PUSH2 0x22A0 JUMP JUMPDEST PUSH0 MSTORE PUSH1 0x4 PUSH1 0x20 MSTORE PUSH1 0x40 PUSH0 KECCAK256 SWAP1 PUSH1 0x1 DUP1 PUSH1 0xA0 SHL SUB AND PUSH1 0x1 PUSH1 0x1 PUSH1 0x60 SHL SUB PUSH1 0xA0 SHL DUP3 SLOAD AND OR SWAP1 SSTORE JUMP JUMPDEST CALLVALUE PUSH2 0x1EF JUMPI PUSH1 0x20 CALLDATASIZE PUSH1 0x3 NOT ADD SLT PUSH2 0x1EF JUMPI PUSH1 0xFF PUSH2 0xE8C PUSH2 0x8BF JUMP JUMPDEST AND PUSH2 0xE99 PUSH1 0x10 DUP3 LT PUSH2 0x22A0 JUMP JUMPDEST PUSH0 MSTORE PUSH1 0x4 PUSH1 0x20 MSTORE PUSH1 0x20 PUSH1 0x1 DUP1 PUSH1 0xA0 SHL SUB PUSH1 0x40 PUSH0 KECCAK256 SLOAD AND PUSH1 0x40 MLOAD SWAP1 DUP2 MSTORE RETURN JUMPDEST CALLVALUE PUSH2 0x1EF JUMPI PUSH1 0x20 CALLDATASIZE PUSH1 0x3 NOT ADD SLT PUSH2 0x1EF JUMPI PUSH1 0xFF PUSH2 0xED2 PUSH2 0x8BF JUMP JUMPDEST AND PUSH2 0xEDF PUSH1 0x10 DUP3 LT PUSH2 0x22A0 JUMP JUMPDEST PUSH0 SWAP1 DUP2 MSTORE PUSH1 0x3 PUSH1 0x20 MSTORE PUSH1 0x40 SWAP1 KECCAK256 DUP1 SLOAD PUSH1 0x1 PUSH1 0x1 PUSH1 0xA0 SHL SUB NOT AND SWAP1 SSTORE STOP JUMPDEST PUSH1 0x60 CALLDATASIZE PUSH1 0x3 NOT ADD SLT PUSH2 0x1EF JUMPI PUSH1 0x4 CALLDATALOAD PUSH1 0x1 PUSH1 0x1 PUSH1 0x40 SHL SUB DUP2 GT PUSH2 0x1EF JUMPI PUSH2 0xF27 SWAP1 CALLDATASIZE SWAP1 PUSH1 0x4 ADD PUSH2 0xC9B JUMP JUMPDEST PUSH1 0x44 CALLDATALOAD SWAP2 PUSH1 0x24 CALLDATALOAD PUSH2 0xF39 PUSH2 0xA1A PUSH2 0x2E15 JUMP JUMPDEST PUSH2 0xF44 DUP4 ISZERO ISZERO PUSH2 0x2F17 JUMP JUMPDEST SWAP2 PUSH0 SWAP1 PUSH0 SWAP3 PUSH0 SWAP2 JUMPDEST DUP1 DUP4 LT PUSH2 0xFB0 JUMPI POP PUSH2 0xF6A SWAP2 POP PUSH2 0xF65 SWAP1 POP CALLER ADDRESS PUSH2 0x3373 JUMP JUMPDEST TLOAD ISZERO SWAP1 JUMP JUMPDEST PUSH2 0xF9D JUMPI JUMPDEST POP POP DUP2 DUP2 LT PUSH2 0xF85 JUMPI PUSH2 0x62C SWAP1 PUSH0 PUSH2 0xBAE PUSH2 0x2E15 JUMP JUMPDEST PUSH4 0xD438755D PUSH1 0xE0 SHL PUSH0 MSTORE PUSH1 0x4 SWAP2 SWAP1 SWAP2 MSTORE PUSH1 0x24 MSTORE PUSH1 0x44 PUSH0 REVERT JUMPDEST PUSH2 0xFA9 SWAP2 CALLVALUE SWAP2 CALLER PUSH2 0x370F JUMP JUMPDEST PUSH0 DUP1 PUSH2 0xF6F JUMP JUMPDEST SWAP1 SWAP2 SWAP5 PUSH2 0xFBE DUP7 DUP4 DUP6 PUSH2 0x2F4D JUMP JUMPDEST DUP7 ISZERO DUP1 PUSH2 0xFCA DUP6 PUSH2 0x2278 JUMP JUMPDEST DUP10 EQ SWAP2 PUSH2 0x1043 JUMPI JUMPDEST DUP2 PUSH2 0x1002 JUMPI JUMPDEST SWAP2 PUSH1 0x1 SWAP4 SWAP2 PUSH2 0xFF3 SWAP4 DUP1 PUSH0 EQ PUSH2 0xFFC JUMPI CALLVALUE JUMPDEST ADDRESS SWAP5 CALLER SWAP5 PUSH2 0x360B JUMP JUMPDEST SWAP6 ADD SWAP2 SWAP1 PUSH2 0xF4C JUMP JUMPDEST PUSH0 PUSH2 0xFEA JUMP JUMPDEST SWAP7 POP SWAP2 DUP2 PUSH1 0x1 SWAP4 PUSH2 0x1018 PUSH1 0xA0 PUSH2 0xFF3 SWAP6 ADD PUSH2 0x2F6F JUMP JUMPDEST ISZERO PUSH2 0x1035 JUMPI PUSH2 0x1029 PUSH1 0x20 DUP4 ADD PUSH2 0x2F79 JUMP JUMPDEST SWAP9 SWAP2 SWAP4 POP SWAP2 SWAP4 POP PUSH2 0xFD8 JUMP JUMPDEST PUSH2 0x103E DUP3 PUSH2 0x2F79 JUMP JUMPDEST PUSH2 0x1029 JUMP JUMPDEST DUP2 SWAP7 POP PUSH2 0x1052 PUSH1 0xA0 DUP5 ADD PUSH2 0x2F6F JUMP JUMPDEST ISZERO PUSH2 0x1067 JUMPI PUSH2 0x1060 DUP4 PUSH2 0x2F79 JUMP JUMPDEST SWAP7 POP PUSH2 0xFD2 JUMP JUMPDEST PUSH2 0x1073 PUSH1 0x20 DUP5 ADD PUSH2 0x2F79 JUMP JUMPDEST PUSH2 0x1060 JUMP JUMPDEST CALLVALUE PUSH2 0x1EF JUMPI PUSH0 CALLDATASIZE PUSH1 0x3 NOT ADD SLT PUSH2 0x1EF JUMPI PUSH1 0x40 MLOAD PUSH32 0x0 PUSH1 0x1 PUSH1 0x1 PUSH1 0xA0 SHL SUB AND DUP2 MSTORE PUSH1 0x20 SWAP1 RETURN JUMPDEST CALLVALUE PUSH2 0x1EF JUMPI PUSH1 0x20 CALLDATASIZE PUSH1 0x3 NOT ADD SLT PUSH2 0x1EF JUMPI PUSH1 0x4 CALLDATALOAD PUSH0 MSTORE PUSH1 0x5 PUSH1 0x20 MSTORE PUSH1 0x20 PUSH1 0x40 PUSH0 KECCAK256 SLOAD PUSH1 0x40 MLOAD SWAP1 DUP2 MSTORE RETURN JUMPDEST CALLVALUE PUSH2 0x1EF JUMPI PUSH1 0x40 CALLDATASIZE PUSH1 0x3 NOT ADD SLT PUSH2 0x1EF JUMPI PUSH1 0x20 PUSH1 0xFF PUSH2 0x113D PUSH1 0x4 CALLDATALOAD PUSH2 0x110A DUP2 PUSH2 0x1DE JUMP JUMPDEST PUSH1 0x24 CALLDATALOAD SWAP1 PUSH2 0x1117 DUP3 PUSH2 0x1DE JUMP JUMPDEST PUSH1 0x1 DUP1 PUSH1 0xA0 SHL SUB AND PUSH0 MSTORE PUSH0 DUP5 MSTORE PUSH1 0x40 PUSH0 KECCAK256 SWAP1 PUSH1 0x1 DUP1 PUSH1 0xA0 SHL SUB AND PUSH0 MSTORE PUSH1 0x20 MSTORE PUSH1 0x40 PUSH0 KECCAK256 SWAP1 JUMP JUMPDEST SLOAD AND PUSH1 0x40 MLOAD SWAP1 ISZERO ISZERO DUP2 MSTORE RETURN JUMPDEST CALLVALUE PUSH2 0x1EF JUMPI PUSH1 0xA0 CALLDATASIZE PUSH1 0x3 NOT ADD SLT PUSH2 0x1EF JUMPI PUSH1 0x4 CALLDATALOAD PUSH2 0x1166 DUP2 PUSH2 0x1DE JUMP JUMPDEST PUSH1 0x24 CALLDATALOAD SWAP1 PUSH2 0x1173 DUP3 PUSH2 0x1DE JUMP JUMPDEST PUSH1 0x1 PUSH1 0x1 PUSH1 0x80 SHL SUB PUSH1 0x44 CALLDATALOAD SWAP2 PUSH2 0x1188 DUP4 PUSH2 0x1DE JUMP JUMPDEST PUSH2 0x11B8 PUSH1 0x64 CALLDATALOAD PUSH2 0x1197 DUP2 PUSH2 0x3B8 JUMP JUMPDEST PUSH1 0x84 CALLDATALOAD SWAP5 PUSH2 0x11A6 PUSH2 0xA1A PUSH2 0x2E15 JUMP JUMPDEST PUSH2 0x11B1 DUP7 ISZERO ISZERO PUSH2 0x2939 JUMP JUMPDEST DUP7 DUP5 PUSH2 0x2BA3 JUMP JUMPDEST SWAP4 PUSH2 0x1241 PUSH2 0x122F DUP5 PUSH2 0x1227 PUSH2 0x120E PUSH2 0x11E8 DUP11 PUSH0 MSTORE PUSH1 0x6 PUSH1 0x20 MSTORE PUSH1 0x40 PUSH0 KECCAK256 SLOAD SWAP1 PUSH1 0x1 PUSH1 0x1 PUSH1 0x80 SHL SUB DUP3 AND SWAP2 PUSH1 0x80 SHR SWAP1 JUMP JUMPDEST SWAP9 SWAP1 PUSH2 0x1207 PUSH2 0x11FF DUP14 PUSH0 MSTORE PUSH1 0x5 PUSH1 0x20 MSTORE PUSH1 0x40 PUSH0 KECCAK256 SWAP1 JUMP JUMPDEST SLOAD ISZERO ISZERO PUSH2 0x2985 JUMP JUMPDEST AND DUP10 PUSH2 0x2A10 JUMP JUMPDEST PUSH2 0x1220 DUP11 PUSH0 MSTORE PUSH1 0x5 PUSH1 0x20 MSTORE PUSH1 0x40 PUSH0 KECCAK256 SWAP1 JUMP JUMPDEST SLOAD SWAP1 PUSH2 0x2A23 JUMP JUMPDEST SWAP6 AND DUP7 PUSH2 0x2A10 JUMP JUMPDEST PUSH2 0x1220 DUP8 PUSH0 MSTORE PUSH1 0x5 PUSH1 0x20 MSTORE PUSH1 0x40 PUSH0 KECCAK256 SWAP1 JUMP JUMPDEST SWAP4 DUP4 ISZERO DUP1 PUSH2 0x130D JUMPI JUMPDEST PUSH2 0x12F4 JUMPI DUP6 DUP2 PUSH2 0x1263 PUSH2 0x12B2 SWAP4 PUSH2 0x12D1 SWAP8 SWAP9 SWAP10 CALLER PUSH2 0x2F83 JUMP JUMPDEST PUSH2 0x1280 PUSH2 0x1278 DUP4 PUSH0 MSTORE PUSH1 0x5 PUSH1 0x20 MSTORE PUSH1 0x40 PUSH0 KECCAK256 SWAP1 JUMP JUMPDEST SWAP2 DUP3 SLOAD PUSH2 0x2286 JUMP JUMPDEST SWAP1 SSTORE PUSH2 0x1297 PUSH1 0x1 PUSH1 0x1 PUSH1 0x80 SHL SUB DUP8 AND PUSH1 0xF SIGNEXTEND PUSH2 0x2A41 JUMP JUMPDEST PUSH2 0x12AC PUSH1 0x1 PUSH1 0x1 PUSH1 0x80 SHL SUB DUP10 AND PUSH1 0xF SIGNEXTEND PUSH2 0x2A41 JUMP JUMPDEST SWAP2 PUSH2 0x3002 JUMP JUMPDEST PUSH1 0x1 PUSH1 0x1 PUSH1 0xA0 SHL SUB DUP2 DUP2 AND SWAP1 DUP4 AND LT ISZERO PUSH2 0x12EC JUMPI DUP4 DUP6 SWAP2 JUMPDEST CALLER SWAP4 PUSH2 0x3058 JUMP JUMPDEST PUSH0 PUSH2 0x12DA PUSH2 0x2E15 JUMP JUMPDEST TSTORE PUSH1 0x40 DUP1 MLOAD SWAP2 DUP3 MSTORE PUSH1 0x20 DUP3 ADD SWAP3 SWAP1 SWAP3 MSTORE RETURN JUMPDEST DUP5 DUP5 SWAP2 PUSH2 0x12CA JUMP JUMPDEST PUSH4 0xD5DE6205 PUSH1 0xE0 SHL PUSH0 MSTORE PUSH1 0x4 DUP5 SWAP1 MSTORE PUSH1 0x24 DUP6 SWAP1 MSTORE PUSH1 0x44 PUSH0 REVERT JUMPDEST POP DUP5 ISZERO PUSH2 0x124A JUMP JUMPDEST CALLVALUE PUSH2 0x1EF JUMPI PUSH1 0x20 CALLDATASIZE PUSH1 0x3 NOT ADD SLT PUSH2 0x1EF JUMPI PUSH1 0xFF PUSH2 0x1330 PUSH2 0x8BF JUMP JUMPDEST AND PUSH2 0x133D PUSH1 0x10 DUP3 LT PUSH2 0x22A0 JUMP JUMPDEST PUSH0 MSTORE PUSH1 0x3 PUSH1 0x20 MSTORE PUSH1 0x20 PUSH1 0x1 DUP1 PUSH1 0xA0 SHL SUB PUSH1 0x40 PUSH0 KECCAK256 SLOAD AND PUSH1 0x40 MLOAD SWAP1 DUP2 MSTORE RETURN JUMPDEST PUSH1 0xE0 CALLDATASIZE PUSH1 0x3 NOT ADD SLT PUSH2 0x1EF JUMPI PUSH1 0x4 CALLDATALOAD PUSH2 0x1373 DUP2 PUSH2 0x1DE JUMP JUMPDEST PUSH1 0x24 CALLDATALOAD DUP1 SWAP2 PUSH2 0x1381 DUP3 PUSH2 0x1DE JUMP JUMPDEST PUSH1 0x44 CALLDATALOAD PUSH2 0x138D DUP2 PUSH2 0x1DE JUMP JUMPDEST PUSH1 0x64 CALLDATALOAD SWAP1 PUSH2 0x139A DUP3 PUSH2 0x3B8 JUMP JUMPDEST PUSH1 0x84 CALLDATALOAD PUSH1 0xA4 CALLDATALOAD SWAP3 PUSH2 0x13AA DUP5 PUSH2 0x3A3 JUMP JUMPDEST DUP2 DUP6 PUSH1 0xC4 CALLDATALOAD SWAP3 PUSH2 0x13BB PUSH2 0xA1A PUSH2 0x2E15 JUMP JUMPDEST PUSH2 0x13C7 DUP2 DUP8 DUP12 DUP6 PUSH2 0x2BA3 JUMP JUMPDEST SWAP6 DUP8 ISZERO PUSH2 0x1575 JUMPI DUP3 JUMPDEST CALLER DUP6 CALLVALUE SWAP1 PUSH2 0x13DD SWAP4 PUSH2 0x3089 JUMP JUMPDEST PUSH0 DUP8 DUP2 MSTORE PUSH1 0x6 PUSH1 0x20 MSTORE PUSH1 0x40 SWAP1 KECCAK256 SLOAD PUSH1 0x1 PUSH1 0x1 PUSH1 0x80 SHL SUB DUP2 AND SWAP1 PUSH1 0x80 SHR SWAP11 DUP2 SWAP6 DUP13 SWAP5 SWAP3 SWAP4 PUSH2 0x1408 PUSH2 0x195E JUMP JUMPDEST SWAP1 PUSH2 0x1411 PUSH2 0x195E JUMP JUMPDEST SWAP4 PUSH2 0x141A PUSH2 0x2F4 JUMP JUMPDEST PUSH1 0x1 PUSH1 0x1 PUSH1 0xA0 SHL SUB SWAP1 SWAP10 AND DUP10 MSTORE PUSH1 0x1 PUSH1 0x1 PUSH1 0xA0 SHL SUB AND PUSH1 0x20 DUP10 ADD MSTORE PUSH1 0x1 PUSH1 0x1 PUSH1 0xA0 SHL SUB AND PUSH1 0x40 DUP9 ADD MSTORE PUSH1 0x60 DUP8 ADD SWAP1 DUP2 MSTORE DUP12 ISZERO ISZERO PUSH1 0x80 DUP9 ADD MSTORE PUSH1 0xA0 DUP8 ADD SWAP3 DUP4 MSTORE MLOAD PUSH2 0x1463 SWAP1 PUSH2 0x19C6 JUMP JUMPDEST MSTORE MLOAD PUSH2 0x146E SWAP1 PUSH2 0x19C6 JUMP JUMPDEST PUSH1 0x1 PUSH1 0x1 PUSH1 0xE8 SHL SUB NOT SWAP1 SWAP2 AND SWAP1 MSTORE PUSH2 0x1485 SWAP3 PUSH2 0x24F7 JUMP JUMPDEST POP SWAP7 DUP8 ISZERO PUSH2 0x1566 JUMPI DUP8 DUP7 SWAP2 PUSH2 0x1499 SWAP4 PUSH2 0x319A JUMP JUMPDEST DUP1 DUP7 LT PUSH2 0x154F JUMPI POP PUSH2 0x62C SWAP6 PUSH2 0x150A SWAP5 SWAP1 SWAP4 SWAP1 SWAP3 SWAP1 SWAP2 PUSH2 0x14FB SWAP2 SWAP1 PUSH1 0x1 PUSH1 0x1 PUSH1 0xA0 SHL SUB DUP1 DUP8 AND SWAP1 DUP7 AND LT ISZERO PUSH2 0x1547 JUMPI DUP4 SWAP1 JUMPDEST DUP2 ISZERO PUSH2 0x152C JUMPI PUSH1 0x1 PUSH1 0x1 PUSH1 0x80 SHL SUB DUP2 AND PUSH1 0xF SIGNEXTEND SWAP2 JUMPDEST ISZERO PUSH2 0x151A JUMPI POP PUSH2 0x12AC PUSH1 0x1 PUSH1 0x1 PUSH1 0x80 SHL SUB DUP10 AND PUSH1 0xF SIGNEXTEND PUSH2 0x2A41 JUMP JUMPDEST ISZERO PUSH2 0x1513 JUMPI POP JUMPDEST DUP3 CALLER SWAP2 PUSH2 0x30A7 JUMP JUMPDEST PUSH0 PUSH2 0xBAE PUSH2 0x2E15 JUMP JUMPDEST SWAP1 POP PUSH2 0x1502 JUMP JUMPDEST PUSH1 0x1 PUSH1 0x1 PUSH1 0x80 SHL SUB AND PUSH1 0xF SIGNEXTEND SWAP2 PUSH2 0x3002 JUMP JUMPDEST PUSH2 0x1541 PUSH1 0x1 PUSH1 0x1 PUSH1 0x80 SHL SUB DUP11 AND PUSH1 0xF SIGNEXTEND PUSH2 0x2A41 JUMP JUMPDEST SWAP2 PUSH2 0x14E0 JUMP JUMPDEST DUP4 ISZERO SWAP1 PUSH2 0x14CB JUMP JUMPDEST PUSH4 0xD438755D PUSH1 0xE0 SHL PUSH0 MSTORE PUSH1 0x4 MSTORE PUSH1 0x24 DUP6 SWAP1 MSTORE PUSH1 0x44 PUSH0 REVERT JUMPDEST PUSH4 0x14033F21 PUSH1 0xE1 SHL PUSH0 MSTORE PUSH1 0x4 PUSH0 REVERT JUMPDEST DUP10 PUSH2 0x13D0 JUMP JUMPDEST PUSH1 0xC0 CALLDATASIZE PUSH1 0x3 NOT ADD SLT PUSH2 0x1EF JUMPI PUSH1 0x4 CALLDATALOAD PUSH2 0x1593 DUP2 PUSH2 0x1DE JUMP JUMPDEST PUSH1 0x24 CALLDATALOAD PUSH2 0x159F DUP2 PUSH2 0x1DE JUMP JUMPDEST PUSH1 0x44 CALLDATALOAD SWAP2 PUSH2 0x15AC DUP4 PUSH2 0x1DE JUMP JUMPDEST PUSH1 0x64 CALLDATALOAD SWAP3 PUSH2 0x15B9 DUP5 PUSH2 0x3B8 JUMP JUMPDEST PUSH1 0x84 CALLDATALOAD SWAP2 PUSH1 0xA4 CALLDATALOAD SWAP2 PUSH2 0x15CC PUSH2 0xA1A PUSH2 0x2E15 JUMP JUMPDEST PUSH2 0x15D8 DUP7 DUP3 DUP8 DUP6 PUSH2 0x2BA3 JUMP JUMPDEST SWAP4 PUSH1 0x1 PUSH1 0x1 PUSH1 0xA0 SHL SUB DUP7 DUP2 AND SWAP1 DUP5 AND LT SWAP3 DUP4 ISZERO PUSH2 0x17AA JUMPI SWAP6 SWAP3 JUMPDEST ISZERO PUSH2 0x17A4 JUMPI SWAP3 SWAP6 JUMPDEST PUSH0 DUP6 DUP2 MSTORE PUSH1 0x6 PUSH1 0x20 MSTORE PUSH1 0x40 SWAP1 KECCAK256 SLOAD PUSH1 0x1 PUSH1 0x1 PUSH1 0x80 SHL SUB DUP2 AND SWAP1 PUSH1 0x80 SHR SWAP2 SWAP1 SWAP3 PUSH2 0x162B DUP8 PUSH0 MSTORE PUSH1 0x5 PUSH1 0x20 MSTORE PUSH1 0x40 PUSH0 KECCAK256 SWAP1 JUMP JUMPDEST SLOAD PUSH2 0x16D1 JUMPI POP POP PUSH1 0x1 PUSH1 0x1 PUSH1 0x80 SHL SUB PUSH2 0x62C SWAP8 PUSH2 0x168A PUSH2 0x1699 SWAP6 PUSH2 0x167E DUP9 SWAP7 DUP11 DUP7 SWAP8 PUSH2 0x16B2 SWAP13 SWAP12 ISZERO ISZERO DUP1 PUSH2 0x16C8 JUMPI JUMPDEST PUSH2 0x1663 SWAP1 PUSH2 0x2A61 JUMP JUMPDEST PUSH2 0x1675 DUP8 PUSH2 0x1670 DUP13 PUSH2 0x29C8 JUMP JUMPDEST PUSH2 0x2A23 JUMP JUMPDEST SWAP3 JUMPDEST DUP8 DUP12 PUSH2 0x3219 JUMP JUMPDEST SWAP10 DUP4 DUP8 CALLER SWAP4 CALLVALUE SWAP4 PUSH2 0x30B2 JUMP JUMPDEST AND PUSH1 0xF SIGNEXTEND SWAP2 AND PUSH1 0xF SIGNEXTEND DUP4 PUSH2 0x3002 JUMP JUMPDEST PUSH2 0x16A4 DUP4 DUP3 CALLER PUSH2 0x32E6 JUMP JUMPDEST PUSH0 MSTORE PUSH1 0x5 PUSH1 0x20 MSTORE PUSH1 0x40 PUSH0 KECCAK256 SWAP1 JUMP JUMPDEST PUSH2 0x16BD DUP3 DUP3 SLOAD PUSH2 0x2293 JUMP JUMPDEST SWAP1 SSTORE PUSH0 PUSH2 0xBAE PUSH2 0x2E15 JUMP JUMPDEST POP DUP7 ISZERO ISZERO PUSH2 0x165A JUMP JUMPDEST DUP4 DUP9 PUSH2 0x1772 PUSH2 0x1777 SWAP5 PUSH2 0x1762 DUP10 PUSH8 0xDE0B6B3A7640000 PUSH2 0x175B DUP11 SWAP9 SWAP12 SWAP15 SWAP14 SWAP12 PUSH2 0x1742 PUSH2 0x16FB PUSH2 0x195E JUMP JUMPDEST SWAP2 PUSH2 0x1732 PUSH2 0x1707 PUSH2 0x195E JUMP JUMPDEST SWAP7 PUSH2 0x1722 PUSH2 0x1713 PUSH2 0x2F4 JUMP JUMPDEST PUSH1 0x1 PUSH1 0x1 PUSH1 0xA0 SHL SUB SWAP1 SWAP14 AND DUP14 MSTORE JUMP JUMPDEST PUSH1 0x1 PUSH1 0x1 PUSH1 0xA0 SHL SUB AND PUSH1 0x20 DUP13 ADD MSTORE JUMP JUMPDEST PUSH1 0x1 PUSH1 0x1 PUSH1 0xA0 SHL SUB AND PUSH1 0x40 DUP11 ADD MSTORE JUMP JUMPDEST PUSH1 0x60 DUP9 ADD DUP2 SWAP1 MSTORE PUSH0 PUSH1 0x80 DUP10 ADD MSTORE PUSH1 0xA0 DUP9 ADD SWAP4 DUP5 MSTORE PUSH2 0x19C6 JUMP JUMPDEST MSTORE MLOAD PUSH2 0x19C6 JUMP JUMPDEST PUSH1 0x1 PUSH1 0x1 PUSH1 0xE8 SHL SUB NOT SWAP1 SWAP2 AND SWAP1 MSTORE JUMP JUMPDEST PUSH2 0x24F7 JUMP JUMPDEST POP SWAP5 DUP6 ISZERO PUSH2 0x1566 JUMPI PUSH2 0x62C SWAP8 PUSH2 0x168A PUSH2 0x1699 SWAP6 PUSH2 0x167E PUSH1 0x1 PUSH1 0x1 PUSH1 0x80 SHL SUB SWAP6 SWAP5 DUP10 DUP8 SWAP7 PUSH2 0x16B2 SWAP13 SWAP3 PUSH2 0x1677 JUMP JUMPDEST SWAP6 PUSH2 0x15FA JUMP JUMPDEST SWAP3 PUSH2 0x15F2 JUMP JUMPDEST CALLVALUE PUSH2 0x1EF JUMPI PUSH1 0x80 CALLDATASIZE PUSH1 0x3 NOT ADD SLT PUSH2 0x1EF JUMPI PUSH1 0x4 CALLDATALOAD PUSH2 0x17CD DUP2 PUSH2 0x1DE JUMP JUMPDEST PUSH1 0x24 CALLDATALOAD PUSH2 0x17D9 DUP2 PUSH2 0x1DE JUMP JUMPDEST PUSH1 0x44 CALLDATALOAD SWAP2 PUSH0 MLOAD PUSH1 0x20 PUSH2 0x40AE PUSH0 CODECOPY PUSH0 MLOAD SWAP1 PUSH0 MSTORE PUSH2 0x6DE PUSH1 0x64 CALLDATALOAD SWAP4 PUSH1 0x1 PUSH1 0x1 PUSH1 0xA0 SHL SUB DUP5 AND SWAP4 PUSH2 0x183B SWAP1 DUP8 SWAP1 PUSH2 0x182E SWAP1 CALLER DUP9 EQ ISZERO DUP1 PUSH2 0x192A JUMPI JUMPDEST PUSH2 0x189A JUMPI PUSH1 0x1 PUSH1 0x1 PUSH1 0xA0 SHL SUB AND PUSH0 SWAP1 DUP2 MSTORE PUSH1 0x1 PUSH1 0x20 MSTORE PUSH1 0x40 SWAP1 KECCAK256 SWAP1 JUMP JUMPDEST SWAP1 PUSH0 MSTORE PUSH1 0x20 MSTORE PUSH1 0x40 PUSH0 KECCAK256 SWAP1 JUMP JUMPDEST PUSH2 0x1846 DUP7 DUP3 SLOAD PUSH2 0x2286 JUMP JUMPDEST SWAP1 SSTORE PUSH1 0x1 PUSH1 0x1 PUSH1 0xA0 SHL SUB DUP2 AND PUSH0 SWAP1 DUP2 MSTORE PUSH1 0x1 PUSH1 0x20 MSTORE PUSH1 0x40 SWAP1 KECCAK256 PUSH2 0x186A SWAP1 DUP8 SWAP1 PUSH2 0x182E JUMP JUMPDEST PUSH2 0x1875 DUP7 DUP3 SLOAD PUSH2 0x2293 JUMP JUMPDEST SWAP1 SSTORE PUSH1 0x40 DUP1 MLOAD CALLER DUP2 MSTORE PUSH1 0x20 DUP2 ADD SWAP7 SWAP1 SWAP7 MSTORE PUSH1 0x1 PUSH1 0x1 PUSH1 0xA0 SHL SUB SWAP1 SWAP2 AND SWAP5 SWAP2 DUP3 SWAP2 DUP3 ADD SWAP1 JUMP JUMPDEST PUSH2 0x18D1 DUP4 PUSH2 0x182E CALLER PUSH2 0x18BC DUP6 PUSH1 0x1 DUP1 PUSH1 0xA0 SHL SUB AND PUSH0 MSTORE PUSH1 0x2 PUSH1 0x20 MSTORE PUSH1 0x40 PUSH0 KECCAK256 SWAP1 JUMP JUMPDEST SWAP1 PUSH1 0x1 DUP1 PUSH1 0xA0 SHL SUB AND PUSH0 MSTORE PUSH1 0x20 MSTORE PUSH1 0x40 PUSH0 KECCAK256 SWAP1 JUMP JUMPDEST SLOAD DUP10 PUSH1 0x1 DUP3 ADD PUSH2 0x18F7 JUMPI JUMPDEST POP POP PUSH1 0x1 PUSH1 0x1 PUSH1 0xA0 SHL SUB AND PUSH0 SWAP1 DUP2 MSTORE PUSH1 0x1 PUSH1 0x20 MSTORE PUSH1 0x40 SWAP1 KECCAK256 SWAP1 JUMP JUMPDEST PUSH2 0x1900 SWAP2 PUSH2 0x2286 JUMP JUMPDEST PUSH2 0x1922 DUP5 PUSH2 0x182E CALLER PUSH2 0x18BC DUP7 PUSH1 0x1 DUP1 PUSH1 0xA0 SHL SUB AND PUSH0 MSTORE PUSH1 0x2 PUSH1 0x20 MSTORE PUSH1 0x40 PUSH0 KECCAK256 SWAP1 JUMP JUMPDEST SSTORE PUSH0 DUP10 PUSH2 0x18DC JUMP JUMPDEST POP PUSH2 0x1959 PUSH2 0x1955 PUSH2 0x194E CALLER PUSH2 0x18BC DUP6 PUSH1 0x1 DUP1 PUSH1 0xA0 SHL SUB AND PUSH0 MSTORE PUSH0 PUSH1 0x20 MSTORE PUSH1 0x40 PUSH0 KECCAK256 SWAP1 JUMP JUMPDEST SLOAD PUSH1 0xFF AND SWAP1 JUMP JUMPDEST ISZERO SWAP1 JUMP JUMPDEST PUSH2 0x1811 JUMP JUMPDEST PUSH1 0x40 DUP1 MLOAD SWAP1 SWAP2 SWAP1 PUSH2 0x196F DUP4 DUP3 PUSH2 0x2D3 JUMP JUMPDEST PUSH1 0x1 DUP2 MSTORE SWAP2 PUSH1 0x1F NOT ADD CALLDATASIZE PUSH1 0x20 DUP5 ADD CALLDATACOPY JUMP JUMPDEST SWAP1 PUSH2 0x198A DUP3 PUSH2 0x322 JUMP JUMPDEST PUSH2 0x1997 PUSH1 0x40 MLOAD SWAP2 DUP3 PUSH2 0x2D3 JUMP JUMPDEST DUP3 DUP2 MSTORE DUP1 SWAP3 PUSH2 0x19A8 PUSH1 0x1F NOT SWAP2 PUSH2 0x322 JUMP JUMPDEST ADD SWAP1 PUSH1 0x20 CALLDATASIZE SWAP2 ADD CALLDATACOPY JUMP JUMPDEST PUSH4 0x4E487B71 PUSH1 0xE0 SHL PUSH0 MSTORE PUSH1 0x32 PUSH1 0x4 MSTORE PUSH1 0x24 PUSH0 REVERT JUMPDEST DUP1 MLOAD ISZERO PUSH2 0x19D3 JUMPI PUSH1 0x20 ADD SWAP1 JUMP JUMPDEST PUSH2 0x19B2 JUMP JUMPDEST DUP1 MLOAD DUP3 LT ISZERO PUSH2 0x19D3 JUMPI PUSH1 0x20 SWAP2 PUSH1 0x5 SHL ADD ADD SWAP1 JUMP JUMPDEST ISZERO PUSH2 0x19F3 JUMPI JUMP JUMPDEST PUSH1 0x40 MLOAD PUSH3 0x461BCD PUSH1 0xE5 SHL DUP2 MSTORE PUSH1 0x20 PUSH1 0x4 DUP3 ADD MSTORE PUSH1 0x14 PUSH1 0x24 DUP3 ADD MSTORE PUSH20 0x426574612061646472657373206973207A65726F PUSH1 0x60 SHL PUSH1 0x44 DUP3 ADD MSTORE PUSH1 0x64 SWAP1 REVERT JUMPDEST SWAP1 DUP1 PUSH1 0x1F DUP4 ADD SLT ISZERO PUSH2 0x1EF JUMPI DUP2 MLOAD PUSH2 0x1A46 DUP2 PUSH2 0x322 JUMP JUMPDEST SWAP3 PUSH2 0x1A54 PUSH1 0x40 MLOAD SWAP5 DUP6 PUSH2 0x2D3 JUMP JUMPDEST DUP2 DUP5 MSTORE PUSH1 0x20 DUP1 DUP6 ADD SWAP3 PUSH1 0x5 SHL DUP3 ADD ADD SWAP3 DUP4 GT PUSH2 0x1EF JUMPI PUSH1 0x20 ADD SWAP1 JUMPDEST DUP3 DUP3 LT PUSH2 0x1A7C JUMPI POP POP POP SWAP1 JUMP JUMPDEST DUP2 MLOAD DUP2 MSTORE PUSH1 0x20 SWAP2 DUP3 ADD SWAP2 ADD PUSH2 0x1A6F JUMP JUMPDEST SWAP1 PUSH1 0x20 DUP3 DUP3 SUB SLT PUSH2 0x1EF JUMPI DUP2 MLOAD PUSH1 0x1 PUSH1 0x1 PUSH1 0x40 SHL SUB DUP2 GT PUSH2 0x1EF JUMPI PUSH2 0x3A0 SWAP3 ADD PUSH2 0x1A2F JUMP JUMPDEST SWAP1 PUSH1 0x20 DUP1 DUP4 MLOAD SWAP3 DUP4 DUP2 MSTORE ADD SWAP3 ADD SWAP1 PUSH0 JUMPDEST DUP2 DUP2 LT PUSH2 0x1ACE JUMPI POP POP POP SWAP1 JUMP JUMPDEST DUP3 MLOAD PUSH1 0x1 PUSH1 0x1 PUSH1 0x80 SHL SUB AND DUP5 MSTORE PUSH1 0x20 SWAP4 DUP5 ADD SWAP4 SWAP1 SWAP3 ADD SWAP2 PUSH1 0x1 ADD PUSH2 0x1AC1 JUMP JUMPDEST SWAP1 PUSH1 0x20 DUP1 DUP4 MLOAD SWAP3 DUP4 DUP2 MSTORE ADD SWAP3 ADD SWAP1 PUSH0 JUMPDEST DUP2 DUP2 LT PUSH2 0x1B0A JUMPI POP POP POP SWAP1 JUMP JUMPDEST DUP3 MLOAD PUSH2 0xFFFF AND DUP5 MSTORE PUSH1 0x20 SWAP4 DUP5 ADD SWAP4 SWAP1 SWAP3 ADD SWAP2 PUSH1 0x1 ADD PUSH2 0x1AFD JUMP JUMPDEST DUP1 MLOAD PUSH1 0x1 PUSH1 0x1 PUSH1 0xA0 SHL SUB AND DUP3 MSTORE SWAP1 PUSH2 0x3A0 SWAP1 PUSH1 0x20 DUP4 DUP2 ADD MLOAD PUSH1 0x1 PUSH1 0x1 PUSH1 0xA0 SHL SUB AND SWAP1 DUP3 ADD MSTORE PUSH1 0x40 DUP4 DUP2 ADD MLOAD PUSH1 0x1 PUSH1 0x1 PUSH1 0xA0 SHL SUB AND SWAP1 DUP3 ADD MSTORE PUSH1 0xE0 DUP1 PUSH2 0x1BB9 PUSH2 0x1BA7 PUSH2 0x1B95 PUSH2 0x1B83 PUSH1 0x60 DUP10 ADD MLOAD PUSH2 0x100 PUSH1 0x60 DUP10 ADD MSTORE PUSH2 0x100 DUP9 ADD SWAP1 PUSH2 0x5AD JUMP JUMPDEST PUSH1 0x80 DUP10 ADD MLOAD DUP8 DUP3 SUB PUSH1 0x80 DUP10 ADD MSTORE PUSH2 0x1AB1 JUMP JUMPDEST PUSH1 0xA0 DUP9 ADD MLOAD DUP7 DUP3 SUB PUSH1 0xA0 DUP9 ADD MSTORE PUSH2 0x1AB1 JUMP JUMPDEST PUSH1 0xC0 DUP8 ADD MLOAD DUP6 DUP3 SUB PUSH1 0xC0 DUP8 ADD MSTORE PUSH2 0x1AED JUMP JUMPDEST SWAP5 ADD MLOAD ISZERO ISZERO SWAP2 ADD MSTORE JUMP JUMPDEST DUP1 MLOAD DUP1 DUP4 MSTORE PUSH1 0x20 SWAP3 SWAP2 DUP2 SWAP1 DUP5 ADD DUP5 DUP5 ADD MCOPY PUSH0 DUP3 DUP3 ADD DUP5 ADD MSTORE PUSH1 0x1F ADD PUSH1 0x1F NOT AND ADD ADD SWAP1 JUMP JUMPDEST SWAP1 SWAP2 PUSH2 0x1BFE PUSH2 0x3A0 SWAP4 PUSH1 0x40 DUP5 MSTORE PUSH1 0x40 DUP5 ADD SWAP1 PUSH2 0x1B24 JUMP JUMPDEST SWAP2 PUSH1 0x20 DUP2 DUP5 SUB SWAP2 ADD MSTORE PUSH2 0x1BC3 JUMP JUMPDEST PUSH1 0x40 MLOAD RETURNDATASIZE PUSH0 DUP3 RETURNDATACOPY RETURNDATASIZE SWAP1 REVERT JUMPDEST ISZERO PUSH2 0x1C1E JUMPI JUMP JUMPDEST PUSH1 0x40 MLOAD PUSH3 0x461BCD PUSH1 0xE5 SHL DUP2 MSTORE PUSH1 0x20 PUSH1 0x4 DUP3 ADD MSTORE PUSH1 0x15 PUSH1 0x24 DUP3 ADD MSTORE PUSH21 0x416C7068612061646472657373206973207A65726F PUSH1 0x58 SHL PUSH1 0x44 DUP3 ADD MSTORE PUSH1 0x64 SWAP1 REVERT JUMPDEST SWAP1 PUSH1 0x20 PUSH2 0x3A0 SWAP3 DUP2 DUP2 MSTORE ADD SWAP1 PUSH2 0x1B24 JUMP JUMPDEST SWAP2 PUSH2 0x1C95 SWAP1 PUSH2 0x1C87 PUSH2 0x3A0 SWAP6 SWAP4 PUSH1 0x60 DUP7 MSTORE PUSH1 0x60 DUP7 ADD SWAP1 PUSH2 0x1B24 JUMP JUMPDEST SWAP1 DUP5 DUP3 SUB PUSH1 0x20 DUP7 ADD MSTORE PUSH2 0x1BC3 JUMP JUMPDEST SWAP2 PUSH1 0x40 DUP2 DUP5 SUB SWAP2 ADD MSTORE PUSH2 0x1BC3 JUMP JUMPDEST SWAP1 SWAP3 SWAP2 PUSH1 0xA0 DUP3 ADD SWAP3 PUSH2 0x1CB6 DUP5 MLOAD MLOAD PUSH2 0x1980 JUMP JUMPDEST SWAP2 PUSH2 0x1CC2 DUP6 MLOAD MLOAD PUSH2 0x1980 JUMP JUMPDEST SWAP2 PUSH2 0x1CCE DUP7 MLOAD MLOAD PUSH2 0x1980 JUMP JUMPDEST SWAP7 PUSH2 0x1CF2 PUSH2 0x1CED PUSH2 0x1CDF DUP10 MLOAD PUSH2 0x19C6 JUMP JUMPDEST MLOAD PUSH1 0x1 PUSH1 0x1 PUSH1 0xE8 SHL SUB NOT AND SWAP1 JUMP JUMPDEST PUSH2 0x2AF3 JUMP JUMPDEST SWAP3 PUSH0 JUMPDEST DUP9 MLOAD DUP1 MLOAD DUP3 LT ISZERO PUSH2 0x1D75 JUMPI SWAP1 PUSH2 0x1D6F DUP12 PUSH2 0x1D66 DUP4 PUSH2 0x1D51 PUSH1 0xC0 PUSH2 0x1D5D DUP16 DUP16 PUSH2 0x1D57 DUP7 PUSH2 0x1D51 PUSH2 0x1D2A PUSH2 0x1CDF PUSH1 0x1 SWAP16 DUP5 SWAP1 PUSH2 0x19D8 JUMP JUMPDEST DUP6 MLOAD PUSH1 0x20 DUP8 ADD MLOAD PUSH1 0x40 SWAP1 SWAP8 ADD MLOAD SWAP2 SWAP7 DUP8 SWAP3 PUSH1 0x1 PUSH1 0x1 PUSH1 0xA0 SHL SUB SWAP1 DUP2 AND SWAP3 SWAP2 DUP2 AND SWAP2 AND PUSH2 0x2BA3 JUMP JUMPDEST SWAP3 PUSH2 0x19D8 JUMP JUMPDEST MSTORE PUSH2 0x2AF3 JUMP JUMPDEST ADD MLOAD PUSH2 0xFFFF AND SWAP1 JUMP JUMPDEST SWAP1 PUSH2 0xFFFF AND SWAP1 MSTORE JUMP JUMPDEST ADD PUSH2 0x1CF5 JUMP JUMPDEST POP POP SWAP4 SWAP2 SWAP7 POP SWAP4 SWAP5 SWAP2 SWAP7 DUP3 MLOAD PUSH2 0x1D90 SWAP1 PUSH1 0x1 DUP1 PUSH1 0xA0 SHL SUB AND SWAP1 JUMP JUMPDEST PUSH1 0x20 DUP5 ADD DUP1 MLOAD SWAP2 SWAP7 SWAP1 SWAP5 SWAP1 SWAP2 PUSH1 0x1 PUSH1 0x1 PUSH1 0xA0 SHL SUB AND PUSH1 0x40 DUP3 ADD DUP1 MLOAD SWAP1 SWAP5 SWAP1 PUSH1 0x1 PUSH1 0x1 PUSH1 0xA0 SHL SUB AND SWAP8 PUSH1 0x60 DUP5 ADD MLOAD SWAP5 PUSH1 0x80 DUP6 ADD SWAP6 DUP7 MLOAD PUSH2 0x1DCE SWAP1 ISZERO ISZERO SWAP1 JUMP JUMPDEST SWAP5 PUSH2 0x1DD7 PUSH2 0x312 JUMP JUMPDEST PUSH1 0x1 PUSH1 0x1 PUSH1 0xA0 SHL SUB SWAP1 SWAP14 AND DUP14 MSTORE PUSH1 0x1 PUSH1 0x1 PUSH1 0xA0 SHL SUB AND PUSH1 0x20 DUP14 ADD MSTORE PUSH1 0x1 PUSH1 0x1 PUSH1 0xA0 SHL SUB SWAP1 SWAP11 AND PUSH1 0x40 DUP13 ADD SWAP1 DUP2 MSTORE SWAP10 PUSH1 0x60 DUP13 ADD MSTORE PUSH1 0x80 DUP12 ADD MSTORE PUSH1 0xA0 DUP11 ADD MSTORE PUSH1 0xC0 DUP10 ADD MSTORE ISZERO ISZERO PUSH1 0xE0 DUP9 ADD MSTORE MLOAD PUSH1 0x1 PUSH1 0x1 PUSH1 0xA0 SHL SUB AND SWAP4 MLOAD PUSH1 0x1 PUSH1 0x1 PUSH1 0xA0 SHL SUB AND SWAP2 MLOAD PUSH1 0x1 PUSH1 0x1 PUSH1 0xA0 SHL SUB AND SWAP1 MLOAD ISZERO ISZERO SWAP2 PUSH2 0x1E4D PUSH2 0x312 JUMP JUMPDEST PUSH1 0x1 PUSH1 0x1 PUSH1 0xA0 SHL SUB SWAP1 SWAP6 AND DUP6 MSTORE PUSH1 0x1 PUSH1 0x1 PUSH1 0xA0 SHL SUB AND PUSH1 0x20 DUP6 ADD MSTORE PUSH1 0x1 PUSH1 0x1 PUSH1 0xA0 SHL SUB AND PUSH1 0x40 DUP5 ADD MSTORE PUSH0 PUSH1 0x60 DUP5 ADD DUP2 SWAP1 MSTORE PUSH1 0x80 DUP5 ADD DUP2 SWAP1 MSTORE PUSH1 0xA0 DUP5 ADD DUP2 SWAP1 MSTORE PUSH1 0xC0 DUP5 ADD MSTORE ISZERO ISZERO PUSH1 0xE0 DUP4 ADD MSTORE DUP7 MLOAD ISZERO ISZERO DUP1 DUP1 PUSH2 0x2257 JUMPI JUMPDEST ISZERO PUSH2 0x2046 JUMPI POP POP SWAP5 PUSH0 SWAP3 SWAP2 DUP4 PUSH2 0x1F80 PUSH2 0x1F9E SWAP7 SWAP8 SWAP9 PUSH2 0x1EC5 PUSH1 0x40 DUP7 ADD MLOAD ISZERO ISZERO SWAP1 JUMP JUMPDEST DUP4 EQ PUSH2 0x201B JUMPI PUSH32 0x0 SWAP5 JUMPDEST DUP2 PUSH2 0x1EFC PUSH1 0x60 DUP4 ADD MLOAD ISZERO ISZERO SWAP1 JUMP JUMPDEST DUP6 EQ PUSH2 0x1FD7 JUMPI PUSH2 0x1F7A SWAP2 POP PUSH2 0x1F74 PUSH2 0x1F68 PUSH2 0x1F68 PUSH32 0x0 SWAP9 JUMPDEST PUSH2 0x1F47 PUSH1 0x1 PUSH1 0x1 PUSH1 0xA0 SHL SUB DUP13 AND ISZERO ISZERO PUSH2 0x1C17 JUMP JUMPDEST PUSH2 0x1F5B PUSH1 0x1 PUSH1 0x1 PUSH1 0xA0 SHL SUB DUP12 AND ISZERO ISZERO PUSH2 0x19EC JUMP JUMPDEST MLOAD PUSH1 0x1 PUSH1 0x1 PUSH1 0xA0 SHL SUB AND SWAP1 JUMP JUMPDEST PUSH1 0x1 PUSH1 0x1 PUSH1 0xA0 SHL SUB AND SWAP1 JUMP JUMPDEST SWAP7 PUSH2 0x2C8C JUMP JUMPDEST SWAP4 PUSH2 0x2C8C JUMP JUMPDEST PUSH1 0x40 MLOAD PUSH4 0x14B2017 PUSH1 0xE0 SHL DUP2 MSTORE SWAP7 DUP8 SWAP6 DUP7 SWAP5 DUP6 SWAP4 SWAP2 PUSH1 0x4 DUP6 ADD PUSH2 0x1C6C JUMP JUMPDEST SUB SWAP3 GAS CALL SWAP1 DUP2 ISZERO PUSH2 0x1FD2 JUMPI PUSH0 SWAP2 PUSH2 0x1FB3 JUMPI POP SWAP2 JUMP JUMPDEST PUSH2 0x1FCF SWAP2 POP RETURNDATASIZE DUP1 PUSH0 DUP4 RETURNDATACOPY PUSH2 0x1FC7 DUP2 DUP4 PUSH2 0x2D3 JUMP JUMPDEST DUP2 ADD SWAP1 PUSH2 0x1A8C JUMP JUMPDEST SWAP2 JUMP JUMPDEST PUSH2 0x1C0C JUMP JUMPDEST PUSH2 0x1F74 PUSH2 0x1F68 PUSH2 0x1F68 PUSH2 0x2015 PUSH2 0x2008 PUSH2 0x1FF7 PUSH1 0xA0 PUSH2 0x1F7A SWAP9 ADD MLOAD PUSH1 0xFF AND SWAP1 JUMP JUMPDEST PUSH1 0xFF AND PUSH0 MSTORE PUSH1 0x4 PUSH1 0x20 MSTORE PUSH1 0x40 PUSH0 KECCAK256 SWAP1 JUMP JUMPDEST SLOAD PUSH1 0x1 PUSH1 0x1 PUSH1 0xA0 SHL SUB AND SWAP1 JUMP JUMPDEST SWAP9 PUSH2 0x1F33 JUMP JUMPDEST PUSH2 0x2040 PUSH2 0x2008 PUSH2 0x202F PUSH1 0x80 DUP9 ADD MLOAD PUSH1 0xFF AND SWAP1 JUMP JUMPDEST PUSH1 0xFF AND PUSH0 MSTORE PUSH1 0x3 PUSH1 0x20 MSTORE PUSH1 0x40 PUSH0 KECCAK256 SWAP1 JUMP JUMPDEST SWAP5 PUSH2 0x1EEE JUMP JUMPDEST SWAP1 SWAP7 SWAP1 DUP1 ISZERO SWAP1 DUP2 DUP1 PUSH2 0x2241 JUMPI JUMPDEST ISZERO PUSH2 0x2099 JUMPI POP POP POP POP PUSH0 SWAP3 SWAP4 SWAP5 POP DUP3 SWAP2 PUSH2 0x207C PUSH2 0x1F68 PUSH2 0x1F68 PUSH2 0x1F9E SWAP5 MLOAD PUSH1 0x1 DUP1 PUSH1 0xA0 SHL SUB AND SWAP1 JUMP JUMPDEST SWAP1 PUSH1 0x40 MLOAD SWAP5 DUP6 DUP1 SWAP5 DUP2 SWAP4 PUSH4 0x145ECC63 PUSH1 0xE2 SHL DUP4 MSTORE PUSH1 0x4 DUP4 ADD PUSH2 0x1C5B JUMP JUMPDEST DUP1 PUSH2 0x222B JUMPI JUMPDEST ISZERO PUSH2 0x214E JUMPI POP PUSH2 0x1F9E SWAP5 SWAP6 SWAP7 POP PUSH0 SWAP4 SWAP3 SWAP2 DUP2 PUSH2 0x20C1 PUSH1 0x40 PUSH2 0x210E SWAP5 ADD MLOAD ISZERO ISZERO SWAP1 JUMP JUMPDEST DUP7 EQ PUSH2 0x212B JUMPI POP PUSH2 0x2108 PUSH2 0x1F68 PUSH2 0x1F68 PUSH32 0x0 SWAP6 JUMPDEST PUSH2 0x1F5B PUSH1 0x1 PUSH1 0x1 PUSH1 0xA0 SHL SUB DUP9 AND ISZERO ISZERO PUSH2 0x1C17 JUMP JUMPDEST SWAP3 PUSH2 0x2C8C JUMP JUMPDEST SWAP2 DUP4 PUSH1 0x40 MLOAD DUP1 SWAP7 DUP2 SWAP6 DUP3 SWAP5 PUSH3 0xDB90D1 PUSH1 0xE8 SHL DUP5 MSTORE PUSH1 0x4 DUP5 ADD PUSH2 0x1BE7 JUMP JUMPDEST PUSH2 0x1F68 PUSH2 0x1F68 PUSH2 0x2148 PUSH2 0x2008 PUSH2 0x202F PUSH1 0x80 PUSH2 0x2108 SWAP7 ADD MLOAD PUSH1 0xFF AND SWAP1 JUMP JUMPDEST SWAP6 PUSH2 0x20F4 JUMP JUMPDEST SWAP5 SWAP6 SWAP5 DUP1 PUSH2 0x221E JUMPI JUMPDEST PUSH2 0x2162 JUMPI JUMPDEST POP POP POP POP JUMP JUMPDEST PUSH2 0x21C4 SWAP5 SWAP7 POP PUSH0 SWAP4 SWAP3 SWAP2 DUP2 PUSH2 0x217D PUSH1 0x60 PUSH2 0x210E SWAP5 ADD MLOAD ISZERO ISZERO SWAP1 JUMP JUMPDEST DUP7 EQ PUSH2 0x21FB JUMPI POP PUSH2 0x2108 PUSH2 0x1F68 PUSH2 0x1F68 PUSH32 0x0 SWAP6 JUMPDEST PUSH2 0x1F5B PUSH1 0x1 PUSH1 0x1 PUSH1 0xA0 SHL SUB DUP9 AND ISZERO ISZERO PUSH2 0x19EC JUMP JUMPDEST SUB SWAP3 GAS CALL SWAP1 DUP2 ISZERO PUSH2 0x1FD2 JUMPI PUSH0 SWAP2 PUSH2 0x21E1 JUMPI JUMPDEST POP SWAP2 PUSH0 DUP1 DUP1 DUP1 PUSH2 0x215C JUMP JUMPDEST PUSH2 0x21F5 SWAP2 POP RETURNDATASIZE DUP1 PUSH0 DUP4 RETURNDATACOPY PUSH2 0x1FC7 DUP2 DUP4 PUSH2 0x2D3 JUMP JUMPDEST PUSH0 PUSH2 0x21D6 JUMP JUMPDEST PUSH2 0x1F68 PUSH2 0x1F68 PUSH2 0x2218 PUSH2 0x2008 PUSH2 0x1FF7 PUSH1 0xA0 PUSH2 0x2108 SWAP7 ADD MLOAD PUSH1 0xFF AND SWAP1 JUMP JUMPDEST SWAP6 PUSH2 0x21B0 JUMP JUMPDEST POP PUSH1 0x20 DUP2 ADD MLOAD ISZERO ISZERO PUSH2 0x2157 JUMP JUMPDEST POP PUSH2 0x223C PUSH2 0x1955 PUSH1 0x20 DUP5 ADD MLOAD ISZERO ISZERO SWAP1 JUMP JUMPDEST PUSH2 0x209F JUMP JUMPDEST POP PUSH2 0x2252 PUSH2 0x1955 PUSH1 0x20 DUP6 ADD MLOAD ISZERO ISZERO SWAP1 JUMP JUMPDEST PUSH2 0x2053 JUMP JUMPDEST POP PUSH1 0x20 DUP9 ADD MLOAD ISZERO ISZERO PUSH2 0x1EA3 JUMP JUMPDEST PUSH4 0x4E487B71 PUSH1 0xE0 SHL PUSH0 MSTORE PUSH1 0x11 PUSH1 0x4 MSTORE PUSH1 0x24 PUSH0 REVERT JUMPDEST PUSH0 NOT DUP2 ADD SWAP2 SWAP1 DUP3 GT PUSH2 0x6ED JUMPI JUMP JUMPDEST SWAP2 SWAP1 DUP3 SUB SWAP2 DUP3 GT PUSH2 0x6ED JUMPI JUMP JUMPDEST SWAP2 SWAP1 DUP3 ADD DUP1 SWAP3 GT PUSH2 0x6ED JUMPI JUMP JUMPDEST ISZERO PUSH2 0x22A7 JUMPI JUMP JUMPDEST PUSH1 0x40 MLOAD PUSH3 0x461BCD PUSH1 0xE5 SHL DUP2 MSTORE PUSH1 0x20 PUSH1 0x4 DUP3 ADD MSTORE PUSH1 0x1D PUSH1 0x24 DUP3 ADD MSTORE PUSH32 0x496E76616C696420706F696E7465723A206D75737420626520302D3135000000 PUSH1 0x44 DUP3 ADD MSTORE PUSH1 0x64 SWAP1 REVERT JUMPDEST SWAP4 SWAP3 SWAP2 SWAP4 PUSH2 0x22FB PUSH2 0xA1A PUSH2 0x2E15 JUMP JUMPDEST PUSH1 0x1 PUSH2 0x2307 CALLER ADDRESS PUSH2 0x3373 JUMP JUMPDEST TSTORE PUSH1 0x1 PUSH1 0x1 PUSH1 0xA0 SHL SUB AND SWAP4 DUP5 EXTCODESIZE ISZERO PUSH2 0x1EF JUMPI PUSH1 0x4 SWAP5 DUP2 PUSH0 PUSH1 0x40 DUP2 SWAP6 DUP2 MLOAD SWAP10 DUP11 SWAP7 DUP8 SWAP6 DUP7 SWAP4 PUSH4 0x1C6E7247 PUSH1 0xE3 SHL DUP6 MSTORE PUSH1 0x20 DUP5 DUP7 ADD MSTORE DUP2 PUSH1 0x24 DUP7 ADD MSTORE PUSH1 0x44 DUP6 ADD CALLDATACOPY DUP3 DUP2 ADD DUP3 ADD DUP5 ADD DUP6 SWAP1 MSTORE PUSH1 0x1F ADD PUSH1 0x1F NOT AND DUP3 ADD ADD SUB ADD SWAP3 GAS CALL SWAP1 DUP2 ISZERO PUSH2 0x1FD2 JUMPI PUSH2 0x2383 SWAP4 PUSH2 0x237D SWAP3 PUSH2 0x2398 JUMPI JUMPDEST POP CALLVALUE SWAP3 CALLDATASIZE SWAP2 PUSH2 0x23B2 JUMP JUMPDEST CALLER PUSH2 0x2E74 JUMP JUMPDEST PUSH2 0x238C CALLER PUSH2 0x2F0C JUMP JUMPDEST PUSH0 PUSH2 0x2395 PUSH2 0x2E15 JUMP JUMPDEST TSTORE JUMP JUMPDEST DUP1 PUSH2 0x23A6 PUSH0 PUSH2 0x23AC SWAP4 PUSH2 0x2D3 JUMP JUMPDEST DUP1 PUSH2 0x6F2 JUMP JUMPDEST PUSH0 PUSH2 0x2373 JUMP JUMPDEST SWAP3 SWAP2 SWAP1 PUSH2 0x23BE DUP2 PUSH2 0x322 JUMP JUMPDEST SWAP4 PUSH2 0x23CC PUSH1 0x40 MLOAD SWAP6 DUP7 PUSH2 0x2D3 JUMP JUMPDEST PUSH1 0x20 DUP6 DUP4 DUP2 MSTORE ADD SWAP2 PUSH1 0x5 SHL DUP2 ADD SWAP3 DUP4 GT PUSH2 0x1EF JUMPI SWAP1 JUMPDEST DUP3 DUP3 LT PUSH2 0x23EE JUMPI POP POP POP JUMP JUMPDEST PUSH1 0x20 DUP1 SWAP2 DUP4 CALLDATALOAD PUSH2 0x23FD DUP2 PUSH2 0x1DE JUMP JUMPDEST DUP2 MSTORE ADD SWAP2 ADD SWAP1 PUSH2 0x23E2 JUMP JUMPDEST SWAP1 DUP2 PUSH1 0x20 SWAP2 SUB SLT PUSH2 0x1EF JUMPI MLOAD SWAP1 JUMP JUMPDEST DUP1 MLOAD PUSH1 0x1 PUSH1 0x1 PUSH1 0xA0 SHL SUB SWAP1 DUP2 AND DUP4 MSTORE PUSH1 0x20 DUP1 DUP4 ADD MLOAD DUP3 AND SWAP1 DUP5 ADD MSTORE PUSH1 0x40 DUP1 DUP4 ADD MLOAD SWAP1 SWAP2 AND SWAP1 DUP4 ADD MSTORE PUSH1 0x60 DUP1 DUP3 ADD MLOAD SWAP1 DUP4 ADD MSTORE PUSH1 0x80 DUP1 DUP3 ADD MLOAD PUSH1 0x1 PUSH1 0x1 PUSH1 0x80 SHL SUB AND SWAP1 DUP4 ADD MSTORE PUSH2 0x1FE SWAP2 SWAP1 PUSH1 0xE0 SWAP1 DUP2 SWAP1 PUSH1 0xA0 DUP2 DUP2 ADD MLOAD PUSH1 0x1 PUSH1 0x1 PUSH1 0x80 SHL SUB AND SWAP1 DUP6 ADD MSTORE PUSH1 0xC0 DUP2 DUP2 ADD MLOAD PUSH2 0xFFFF AND SWAP1 DUP6 ADD MSTORE ADD MLOAD ISZERO ISZERO SWAP2 ADD MSTORE JUMP JUMPDEST DUP1 PUSH2 0x24A2 PUSH2 0x120 SWAP3 PUSH2 0x3A0 SWAP6 SWAP5 PUSH2 0x2417 JUMP JUMPDEST DUP2 PUSH2 0x100 DUP3 ADD MSTORE ADD SWAP1 PUSH2 0x1BC3 JUMP JUMPDEST PUSH2 0x100 DUP2 ADD SWAP3 SWAP2 PUSH2 0x1FE SWAP2 SWAP1 PUSH2 0x2417 JUMP JUMPDEST SWAP2 PUSH2 0x24E8 SWAP1 PUSH2 0x24D4 DUP5 PUSH2 0x3A0 SWAP7 SWAP5 PUSH2 0x2417 JUMP JUMPDEST PUSH2 0x140 PUSH2 0x100 DUP6 ADD MSTORE PUSH2 0x140 DUP5 ADD SWAP1 PUSH2 0x1BC3 JUMP JUMPDEST SWAP2 PUSH2 0x120 DUP2 DUP5 SUB SWAP2 ADD MSTORE PUSH2 0x1BC3 JUMP JUMPDEST DUP1 MLOAD SWAP1 SWAP3 PUSH0 SWAP3 SWAP1 SWAP2 PUSH1 0x1 PUSH1 0x1 PUSH1 0xA0 SHL SUB AND PUSH1 0x20 DUP6 ADD DUP1 MLOAD SWAP1 SWAP5 SWAP2 SWAP1 PUSH1 0x1 PUSH1 0x1 PUSH1 0xA0 SHL SUB AND PUSH1 0x40 DUP8 ADD DUP1 MLOAD SWAP2 SWAP8 SWAP1 SWAP3 SWAP1 SWAP2 PUSH1 0x1 PUSH1 0x1 PUSH1 0xA0 SHL SUB AND SWAP8 PUSH1 0xA0 DUP4 ADD SWAP9 DUP10 MLOAD PUSH2 0x2541 SWAP1 PUSH2 0x19C6 JUMP JUMPDEST MLOAD PUSH1 0x1 PUSH1 0x1 PUSH1 0xE8 SHL SUB NOT AND SWAP2 PUSH2 0x2556 SWAP4 PUSH2 0x2BA3 JUMP JUMPDEST SWAP7 MLOAD PUSH2 0x2561 SWAP1 PUSH2 0x19C6 JUMP JUMPDEST MLOAD PUSH1 0x1 PUSH1 0x1 PUSH1 0xE8 SHL SUB NOT AND PUSH2 0x2575 SWAP1 PUSH2 0x2AF3 JUMP JUMPDEST DUP2 MLOAD SWAP1 SWAP6 SWAP1 PUSH1 0x1 PUSH1 0x1 PUSH1 0xA0 SHL SUB AND SWAP7 MLOAD PUSH1 0x1 PUSH1 0x1 PUSH1 0xA0 SHL SUB AND SWAP3 MLOAD PUSH1 0x1 PUSH1 0x1 PUSH1 0xA0 SHL SUB AND SWAP5 PUSH1 0x60 DUP4 ADD MLOAD PUSH2 0x25A8 SWAP1 PUSH2 0x19C6 JUMP JUMPDEST MLOAD PUSH1 0xC0 DUP9 ADD MLOAD PUSH2 0xFFFF AND PUSH1 0x80 SWAP1 SWAP5 ADD MLOAD ISZERO ISZERO SWAP5 PUSH2 0x25C3 PUSH2 0x312 JUMP JUMPDEST PUSH1 0x1 PUSH1 0x1 PUSH1 0xA0 SHL SUB SWAP1 SWAP11 AND DUP11 MSTORE PUSH1 0x1 PUSH1 0x1 PUSH1 0xA0 SHL SUB AND PUSH1 0x20 DUP11 ADD MSTORE PUSH1 0x1 PUSH1 0x1 PUSH1 0xA0 SHL SUB SWAP1 SWAP7 AND PUSH1 0x40 DUP10 ADD SWAP1 DUP2 MSTORE SWAP6 PUSH1 0x60 DUP10 ADD MSTORE PUSH1 0x1 PUSH1 0x1 PUSH1 0x80 SHL SUB AND PUSH1 0x80 DUP9 ADD MSTORE PUSH1 0x1 PUSH1 0x1 PUSH1 0x80 SHL SUB AND PUSH1 0xA0 DUP8 ADD MSTORE PUSH2 0xFFFF AND PUSH1 0xC0 DUP7 ADD MSTORE ISZERO ISZERO PUSH1 0xE0 DUP6 ADD MSTORE DUP3 MLOAD ISZERO ISZERO DUP1 DUP1 PUSH2 0x292C JUMPI JUMPDEST ISZERO PUSH2 0x2762 JUMPI POP POP SWAP2 DUP2 PUSH2 0x26E3 SWAP4 PUSH2 0x2649 PUSH1 0x40 PUSH1 0x20 SWAP6 ADD MLOAD ISZERO ISZERO SWAP1 JUMP JUMPDEST ISZERO PUSH2 0x2747 JUMPI DUP3 PUSH32 0x0 SWAP3 JUMPDEST PUSH1 0x60 DUP2 ADD MLOAD ISZERO PUSH2 0x2721 JUMPI POP PUSH2 0x26C5 DUP2 PUSH2 0x1F7A PUSH0 SWAP4 PUSH2 0x1F74 PUSH2 0x1F68 PUSH2 0x1F68 PUSH32 0x0 SWAP9 PUSH2 0x1F47 PUSH1 0x1 PUSH1 0x1 PUSH1 0xA0 SHL SUB DUP13 AND ISZERO ISZERO PUSH2 0x1C17 JUMP JUMPDEST PUSH1 0x40 MLOAD PUSH4 0x1EEBC2D PUSH1 0xE1 SHL DUP2 MSTORE SWAP7 DUP8 SWAP6 DUP7 SWAP5 DUP6 SWAP4 SWAP2 PUSH1 0x4 DUP6 ADD PUSH2 0x24C1 JUMP JUMPDEST SUB SWAP3 GAS CALL SWAP1 DUP2 ISZERO PUSH2 0x1FD2 JUMPI PUSH0 SWAP2 PUSH2 0x26F8 JUMPI POP SWAP2 JUMP JUMPDEST PUSH2 0x1FCF SWAP2 POP PUSH1 0x20 RETURNDATASIZE PUSH1 0x20 GT PUSH2 0x271A JUMPI JUMPDEST PUSH2 0x2712 DUP2 DUP4 PUSH2 0x2D3 JUMP JUMPDEST DUP2 ADD SWAP1 PUSH2 0x2408 JUMP JUMPDEST POP RETURNDATASIZE PUSH2 0x2708 JUMP JUMPDEST DUP2 PUSH2 0x1F7A PUSH0 SWAP4 PUSH2 0x1F74 PUSH2 0x1F68 PUSH2 0x1F68 PUSH2 0x2015 PUSH2 0x2008 PUSH2 0x1FF7 PUSH1 0xA0 PUSH2 0x26C5 SWAP11 ADD MLOAD PUSH1 0xFF AND SWAP1 JUMP JUMPDEST DUP3 PUSH2 0x275C PUSH2 0x2008 PUSH2 0x202F PUSH1 0x80 DUP7 ADD MLOAD PUSH1 0xFF AND SWAP1 JUMP JUMPDEST SWAP3 PUSH2 0x2672 JUMP JUMPDEST SWAP2 SWAP3 SWAP2 DUP1 ISZERO SWAP1 DUP2 DUP1 PUSH2 0x2916 JUMPI JUMPDEST ISZERO PUSH2 0x27B2 JUMPI POP POP POP POP PUSH2 0x26E3 PUSH0 SWAP3 PUSH2 0x2795 PUSH2 0x1F68 PUSH2 0x1F68 PUSH1 0x20 SWAP6 MLOAD PUSH1 0x1 DUP1 PUSH1 0xA0 SHL SUB AND SWAP1 JUMP JUMPDEST SWAP1 PUSH1 0x40 MLOAD SWAP5 DUP6 DUP1 SWAP5 DUP2 SWAP4 PUSH4 0x160F04BD PUSH1 0xE2 SHL DUP4 MSTORE PUSH1 0x4 DUP4 ADD PUSH2 0x24B0 JUMP JUMPDEST DUP1 PUSH2 0x2900 JUMPI JUMPDEST ISZERO PUSH2 0x285C JUMPI POP POP SWAP2 PUSH1 0x20 SWAP2 DUP4 DUP3 PUSH2 0x27D5 PUSH1 0x40 PUSH2 0x26E3 SWAP8 ADD MLOAD ISZERO ISZERO SWAP1 JUMP JUMPDEST ISZERO PUSH2 0x283C JUMPI PUSH2 0x281E SWAP2 POP PUSH2 0x2108 PUSH2 0x1F68 PUSH2 0x1F68 PUSH32 0x0 SWAP6 PUSH2 0x1F5B PUSH1 0x1 PUSH1 0x1 PUSH1 0xA0 SHL SUB DUP9 AND ISZERO ISZERO PUSH2 0x1C17 JUMP JUMPDEST SWAP2 PUSH0 PUSH1 0x40 MLOAD DUP1 SWAP7 DUP2 SWAP6 DUP3 SWAP5 PUSH4 0x5E3344D PUSH1 0xE4 SHL DUP5 MSTORE PUSH1 0x4 DUP5 ADD PUSH2 0x2490 JUMP JUMPDEST PUSH2 0x2108 PUSH2 0x1F68 PUSH2 0x1F68 PUSH2 0x2148 PUSH2 0x2008 PUSH2 0x202F PUSH1 0x80 PUSH2 0x281E SWAP9 ADD MLOAD PUSH1 0xFF AND SWAP1 JUMP JUMPDEST SWAP1 SWAP6 SWAP4 SWAP3 SWAP2 SWAP1 DUP1 PUSH2 0x28F3 JUMPI JUMPDEST PUSH2 0x2871 JUMPI POP POP POP JUMP JUMPDEST PUSH2 0x26E3 SWAP4 SWAP6 POP SWAP1 DUP2 DUP4 PUSH2 0x288A PUSH1 0x60 PUSH1 0x20 SWAP7 SWAP6 ADD MLOAD ISZERO ISZERO SWAP1 JUMP JUMPDEST ISZERO PUSH2 0x28D3 JUMPI PUSH2 0x281E SWAP2 POP PUSH2 0x2108 PUSH2 0x1F68 PUSH2 0x1F68 PUSH32 0x0 SWAP6 PUSH2 0x1F5B PUSH1 0x1 PUSH1 0x1 PUSH1 0xA0 SHL SUB DUP9 AND ISZERO ISZERO PUSH2 0x19EC JUMP JUMPDEST PUSH2 0x2108 PUSH2 0x1F68 PUSH2 0x1F68 PUSH2 0x2218 PUSH2 0x2008 PUSH2 0x1FF7 PUSH1 0xA0 PUSH2 0x281E SWAP9 ADD MLOAD PUSH1 0xFF AND SWAP1 JUMP JUMPDEST POP PUSH1 0x20 DUP2 ADD MLOAD ISZERO ISZERO PUSH2 0x2868 JUMP JUMPDEST POP PUSH2 0x2911 PUSH2 0x1955 PUSH1 0x20 DUP6 ADD MLOAD ISZERO ISZERO SWAP1 JUMP JUMPDEST PUSH2 0x27B8 JUMP JUMPDEST POP PUSH2 0x2927 PUSH2 0x1955 PUSH1 0x20 DUP7 ADD MLOAD ISZERO ISZERO SWAP1 JUMP JUMPDEST PUSH2 0x276F JUMP JUMPDEST POP PUSH1 0x20 DUP5 ADD MLOAD ISZERO ISZERO PUSH2 0x262D JUMP JUMPDEST ISZERO PUSH2 0x2940 JUMPI JUMP JUMPDEST PUSH1 0x40 MLOAD PUSH3 0x461BCD PUSH1 0xE5 SHL DUP2 MSTORE PUSH1 0x20 PUSH1 0x4 DUP3 ADD MSTORE PUSH1 0x18 PUSH1 0x24 DUP3 ADD MSTORE PUSH32 0x496E76616C6964206C697175696469747920616D6F756E740000000000000000 PUSH1 0x44 DUP3 ADD MSTORE PUSH1 0x64 SWAP1 REVERT JUMPDEST ISZERO PUSH2 0x298C JUMPI JUMP JUMPDEST PUSH1 0x40 MLOAD PUSH3 0x461BCD PUSH1 0xE5 SHL DUP2 MSTORE PUSH1 0x20 PUSH1 0x4 DUP3 ADD MSTORE PUSH1 0x14 PUSH1 0x24 DUP3 ADD MSTORE PUSH20 0x139BC81B1A5C5D5A591A5D1E481A5B881C1BDBDB PUSH1 0x62 SHL PUSH1 0x44 DUP3 ADD MSTORE PUSH1 0x64 SWAP1 REVERT JUMPDEST SWAP1 PUSH8 0xDE0B6B3A7640000 DUP3 MUL SWAP2 DUP1 DUP4 DIV PUSH8 0xDE0B6B3A7640000 EQ SWAP1 ISZERO OR ISZERO PUSH2 0x6ED JUMPI JUMP JUMPDEST SWAP1 PUSH8 0x120A871CC0020000 DUP3 MUL SWAP2 DUP1 DUP4 DIV PUSH8 0x120A871CC0020000 EQ SWAP1 ISZERO OR ISZERO PUSH2 0x6ED JUMPI JUMP JUMPDEST DUP2 DUP2 MUL SWAP3 SWAP2 DUP2 ISZERO SWAP2 DUP5 DIV EQ OR ISZERO PUSH2 0x6ED JUMPI JUMP JUMPDEST DUP2 ISZERO PUSH2 0x2A2D JUMPI DIV SWAP1 JUMP JUMPDEST PUSH4 0x4E487B71 PUSH1 0xE0 SHL PUSH0 MSTORE PUSH1 0x12 PUSH1 0x4 MSTORE PUSH1 0x24 PUSH0 REVERT JUMPDEST PUSH1 0xF SIGNEXTEND PUSH16 0x7FFFFFFFFFFFFFFFFFFFFFFFFFFFFFFF NOT DUP2 EQ PUSH2 0x6ED JUMPI PUSH0 SUB SWAP1 JUMP JUMPDEST ISZERO PUSH2 0x2A68 JUMPI JUMP JUMPDEST PUSH1 0x40 MLOAD PUSH3 0x461BCD PUSH1 0xE5 SHL DUP2 MSTORE PUSH1 0x20 PUSH1 0x4 DUP3 ADD MSTORE PUSH1 0x17 PUSH1 0x24 DUP3 ADD MSTORE PUSH32 0x496E76616C696420696E697469616C20616D6F756E7473000000000000000000 PUSH1 0x44 DUP3 ADD MSTORE PUSH1 0x64 SWAP1 REVERT JUMPDEST PUSH1 0x40 MLOAD SWAP1 PUSH1 0xE0 DUP3 ADD DUP3 DUP2 LT PUSH1 0x1 PUSH1 0x1 PUSH1 0x40 SHL SUB DUP3 GT OR PUSH2 0x2CE JUMPI PUSH1 0x40 MSTORE PUSH0 PUSH1 0xC0 DUP4 DUP3 DUP2 MSTORE DUP3 PUSH1 0x20 DUP3 ADD MSTORE DUP3 PUSH1 0x40 DUP3 ADD MSTORE DUP3 PUSH1 0x60 DUP3 ADD MSTORE DUP3 PUSH1 0x80 DUP3 ADD MSTORE DUP3 PUSH1 0xA0 DUP3 ADD MSTORE ADD MSTORE JUMP JUMPDEST PUSH2 0x3A0 PUSH2 0xFFF PUSH2 0x2B97 PUSH2 0x2B04 PUSH2 0x2AAD JUMP JUMPDEST SWAP4 PUSH1 0xE8 SHR PUSH2 0x2B24 PUSH1 0x1 PUSH2 0x2B1D DUP4 PUSH3 0x7FFFFF SWAP1 PUSH1 0x1 SHR AND SWAP1 JUMP JUMPDEST AND ISZERO ISZERO DUP7 MSTORE JUMP JUMPDEST PUSH1 0x1 DUP2 AND ISZERO ISZERO PUSH1 0x20 DUP7 ADD MSTORE PUSH2 0x2B54 PUSH2 0x2B4B PUSH1 0x1 PUSH1 0x2 DUP5 SWAP1 SHR PUSH3 0x3FFFFF AND JUMPDEST AND PUSH3 0xFFFFFF AND SWAP1 JUMP JUMPDEST ISZERO ISZERO PUSH1 0x40 DUP8 ADD MSTORE JUMP JUMPDEST PUSH2 0x2B74 PUSH2 0x2B6B PUSH1 0x1 PUSH1 0x3 DUP5 SWAP1 SHR PUSH3 0x1FFFFF AND PUSH2 0x2B42 JUMP JUMPDEST ISZERO ISZERO PUSH1 0x60 DUP8 ADD MSTORE JUMP JUMPDEST PUSH1 0xF PUSH1 0x4 DUP3 SWAP1 SHR DUP2 AND PUSH1 0x80 DUP8 ADD MSTORE PUSH1 0x8 DUP3 SWAP1 SHR AND PUSH1 0xA0 DUP7 ADD MSTORE PUSH1 0xC SHR PUSH2 0xFFF AND SWAP1 JUMP JUMPDEST AND PUSH2 0xFFFF AND PUSH1 0xC0 DUP4 ADD MSTORE JUMP JUMPDEST SWAP1 SWAP3 SWAP1 PUSH1 0x1 PUSH1 0x1 PUSH1 0xA0 SHL SUB DUP1 DUP6 AND SWAP1 DUP3 AND LT ISZERO PUSH2 0x2C15 JUMPI SWAP3 SWAP2 JUMPDEST PUSH1 0x40 MLOAD PUSH12 0xFFFFFFFFFFFFFFFFFFFFFFFF NOT PUSH1 0x60 SWAP6 DUP7 SHL DUP2 AND PUSH1 0x20 DUP4 ADD SWAP1 DUP2 MSTORE SWAP5 DUP7 SHL DUP2 AND PUSH1 0x34 DUP4 ADD MSTORE SWAP2 SWAP1 SWAP5 SHL AND PUSH1 0x48 DUP5 ADD MSTORE PUSH1 0x1 PUSH1 0x1 PUSH1 0xE8 SHL SUB NOT AND PUSH1 0x5C DUP4 ADD MSTORE PUSH1 0x3F DUP3 MSTORE SWAP1 PUSH2 0x2C0F PUSH1 0x5F DUP3 PUSH2 0x2D3 JUMP JUMPDEST MLOAD SWAP1 KECCAK256 SWAP1 JUMP JUMPDEST SWAP2 PUSH2 0x2BBD JUMP JUMPDEST PUSH1 0x20 DUP2 DUP4 SUB SLT PUSH2 0x1EF JUMPI DUP1 MLOAD SWAP1 PUSH1 0x1 PUSH1 0x1 PUSH1 0x40 SHL SUB DUP3 GT PUSH2 0x1EF JUMPI ADD DUP2 PUSH1 0x1F DUP3 ADD SLT ISZERO PUSH2 0x1EF JUMPI DUP1 MLOAD SWAP1 PUSH1 0x1 PUSH1 0x1 PUSH1 0x40 SHL SUB DUP3 GT PUSH2 0x2CE JUMPI PUSH1 0x40 MLOAD SWAP3 PUSH2 0x2C6B PUSH1 0x1F DUP5 ADD PUSH1 0x1F NOT AND PUSH1 0x20 ADD DUP6 PUSH2 0x2D3 JUMP JUMPDEST DUP3 DUP5 MSTORE PUSH1 0x20 DUP4 DUP4 ADD ADD GT PUSH2 0x1EF JUMPI DUP2 PUSH0 SWAP3 PUSH1 0x20 DUP1 SWAP4 ADD DUP4 DUP7 ADD MCOPY DUP4 ADD ADD MSTORE SWAP1 JUMP JUMPDEST SWAP1 PUSH1 0x60 SWAP2 DUP1 TLOAD DUP1 ISZERO DUP1 PUSH2 0x2E00 JUMPI JUMPDEST ISZERO PUSH2 0x2DBA JUMPI JUMPDEST POP DUP3 MLOAD ISZERO SWAP2 DUP3 PUSH2 0x2CEB JUMPI JUMPDEST POP PUSH1 0x40 MLOAD SWAP2 ISZERO DUP3 MSTORE PUSH1 0x1 PUSH1 0x1 PUSH1 0xA0 SHL SUB AND SWAP1 PUSH32 0xD34145BF6DE6D1B18053AD66A4A1AF093071A5AB67C05B8BFCE98FD95FFB0D89 SWAP1 DUP1 PUSH1 0x20 DUP2 ADD JUMPDEST SUB SWAP1 LOG2 SWAP1 JUMP JUMPDEST PUSH1 0x40 MLOAD PUSH4 0x3BD1104B PUSH1 0xE0 SHL DUP2 MSTORE SWAP4 POP PUSH0 SWAP1 DUP5 SWAP1 DUP2 SWAP1 PUSH2 0x2D0D SWAP1 PUSH1 0x4 DUP4 ADD PUSH2 0x24B0 JUMP JUMPDEST SUB DUP2 DUP4 PUSH1 0x1 PUSH1 0x1 PUSH1 0xA0 SHL SUB DUP7 AND GAS CALL SWAP3 DUP4 ISZERO PUSH2 0x1FD2 JUMPI PUSH0 SWAP4 PUSH2 0x2D70 JUMPI JUMPDEST POP PUSH2 0x2CE5 PUSH32 0xD34145BF6DE6D1B18053AD66A4A1AF093071A5AB67C05B8BFCE98FD95FFB0D89 SWAP2 DUP5 DUP1 MLOAD PUSH2 0x2D60 JUMPI JUMPDEST POP SWAP2 POP PUSH2 0x2CAB JUMP JUMPDEST PUSH2 0x2D6A SWAP1 DUP3 PUSH2 0x333F JUMP JUMPDEST PUSH0 PUSH2 0x2D58 JUMP JUMPDEST PUSH32 0xD34145BF6DE6D1B18053AD66A4A1AF093071A5AB67C05B8BFCE98FD95FFB0D89 SWAP2 SWAP4 POP PUSH2 0x2DB2 PUSH2 0x2CE5 SWAP2 RETURNDATASIZE DUP1 PUSH0 DUP4 RETURNDATACOPY PUSH2 0x2DAA DUP2 DUP4 PUSH2 0x2D3 JUMP JUMPDEST DUP2 ADD SWAP1 PUSH2 0x2C1B JUMP JUMPDEST SWAP4 SWAP2 POP PUSH2 0x2D2A JUMP JUMPDEST SWAP3 POP PUSH1 0x1F PUSH1 0x40 MLOAD SWAP4 DUP1 DUP6 MSTORE ADD DUP1 PUSH1 0x5 SHR PUSH0 JUMPDEST DUP2 DUP2 LT PUSH2 0x2DE7 JUMPI POP POP PUSH1 0x1F NOT AND DUP4 ADD PUSH1 0x20 ADD PUSH1 0x40 MSTORE PUSH0 PUSH2 0x2CA0 JUMP JUMPDEST DUP1 PUSH1 0x1 DUP1 SWAP3 DUP7 ADD ADD TLOAD PUSH1 0x20 DUP3 PUSH1 0x5 SHL DUP10 ADD ADD MSTORE ADD PUSH2 0x2DCC JUMP JUMPDEST SWAP4 POP PUSH1 0x40 MLOAD SWAP4 PUSH0 DUP6 MSTORE PUSH1 0x20 DUP6 ADD PUSH1 0x40 MSTORE PUSH2 0x2C9A JUMP JUMPDEST PUSH1 0x40 MLOAD PUSH1 0x20 DUP2 ADD SWAP1 PUSH32 0x626529A6BE7CB2FB96A7ED93849B4EF74C980495DFE61FD514C95DCD9DA51C35 DUP3 MSTORE ADDRESS PUSH1 0x60 SHL PUSH1 0x40 DUP3 ADD MSTORE PUSH1 0x34 DUP2 MSTORE PUSH2 0x2C0F PUSH1 0x54 DUP3 PUSH2 0x2D3 JUMP JUMPDEST DUP1 TLOAD PUSH2 0x1EF JUMPI PUSH1 0x1 SWAP1 TSTORE JUMP JUMPDEST PUSH1 0x1 PUSH1 0xFF SHL DUP2 EQ PUSH2 0x6ED JUMPI PUSH0 SUB SWAP1 JUMP JUMPDEST SWAP1 SWAP2 DUP3 MLOAD SWAP3 PUSH0 JUMPDEST DUP5 DUP2 LT PUSH2 0x2E89 JUMPI POP POP POP POP POP JUMP JUMPDEST PUSH1 0x1 SWAP1 PUSH1 0x1 PUSH1 0x1 PUSH1 0xA0 SHL SUB PUSH2 0x2E9E DUP3 DUP6 PUSH2 0x19D8 JUMP JUMPDEST MLOAD AND PUSH2 0x2EAB DUP2 DUP8 ADDRESS PUSH2 0x3854 JUMP JUMPDEST TLOAD DUP1 PUSH2 0x2EBA JUMPI JUMPDEST POP POP ADD PUSH2 0x2E7B JUMP JUMPDEST PUSH0 SWAP2 PUSH2 0x2EDA SWAP2 DUP4 DUP2 SGT ISZERO PUSH2 0x2EE2 JUMPI PUSH2 0x2ED3 SWAP1 DUP10 DUP4 PUSH2 0x34F6 JUMP JUMPDEST DUP8 ADDRESS PUSH2 0x3854 JUMP JUMPDEST TSTORE PUSH0 DUP1 PUSH2 0x2EB2 JUMP JUMPDEST PUSH2 0x2EEE PUSH2 0x2F00 SWAP2 PUSH2 0x2E64 JUMP JUMPDEST DUP3 ISZERO DUP6 EQ PUSH2 0x2F05 JUMPI DUP9 SWAP1 JUMPDEST DUP11 DUP5 PUSH2 0x34AE JUMP JUMPDEST PUSH2 0x2ED3 JUMP JUMPDEST DUP5 SWAP1 PUSH2 0x2EF9 JUMP JUMPDEST PUSH2 0x2395 PUSH0 SWAP2 ADDRESS PUSH2 0x3373 JUMP JUMPDEST ISZERO PUSH2 0x2F1E JUMPI JUMP JUMPDEST PUSH1 0x40 MLOAD PUSH3 0x461BCD PUSH1 0xE5 SHL DUP2 MSTORE PUSH1 0x20 PUSH1 0x4 DUP3 ADD MSTORE PUSH1 0x7 PUSH1 0x24 DUP3 ADD MSTORE PUSH7 0x4E6F20686F7073 PUSH1 0xC8 SHL PUSH1 0x44 DUP3 ADD MSTORE PUSH1 0x64 SWAP1 REVERT JUMPDEST SWAP2 SWAP1 DUP2 LT ISZERO PUSH2 0x19D3 JUMPI PUSH1 0x5 SHL DUP2 ADD CALLDATALOAD SWAP1 PUSH1 0xBE NOT DUP2 CALLDATASIZE SUB ADD DUP3 SLT ISZERO PUSH2 0x1EF JUMPI ADD SWAP1 JUMP JUMPDEST CALLDATALOAD PUSH2 0x3A0 DUP2 PUSH2 0x3A3 JUMP JUMPDEST CALLDATALOAD PUSH2 0x3A0 DUP2 PUSH2 0x1DE JUMP JUMPDEST SWAP2 SWAP1 SWAP2 PUSH1 0x1 DUP1 PUSH1 0xA0 SHL SUB AND DUP1 PUSH0 MSTORE PUSH1 0x1 PUSH1 0x20 MSTORE PUSH1 0x40 PUSH0 KECCAK256 DUP4 PUSH0 MSTORE PUSH1 0x20 MSTORE PUSH1 0x40 PUSH0 KECCAK256 DUP1 SLOAD SWAP1 DUP4 DUP3 SUB SWAP2 DUP3 GT PUSH2 0x6ED JUMPI SSTORE PUSH1 0x40 DUP1 MLOAD CALLER DUP2 MSTORE PUSH1 0x20 DUP2 ADD SWAP4 SWAP1 SWAP4 MSTORE PUSH0 SWAP3 PUSH0 MLOAD PUSH1 0x20 PUSH2 0x40AE PUSH0 CODECOPY PUSH0 MLOAD SWAP1 PUSH0 MSTORE SWAP2 DUP2 SWAP1 DUP2 ADD JUMPDEST SUB SWAP1 LOG4 JUMP JUMPDEST SWAP1 PUSH1 0xF SIGNEXTEND SWAP1 PUSH1 0xF SIGNEXTEND ADD SWAP1 PUSH1 0x1 PUSH1 0x1 PUSH1 0x7F SHL SUB NOT DUP3 SLT PUSH1 0x1 PUSH1 0x1 PUSH1 0x7F SHL SUB DUP4 SGT OR PUSH2 0x6ED JUMPI JUMP JUMPDEST SWAP1 SWAP2 DUP2 PUSH0 MSTORE PUSH1 0x6 PUSH1 0x20 MSTORE PUSH1 0x1 PUSH1 0x1 PUSH1 0x80 SHL SUB PUSH2 0x3035 PUSH2 0x302B PUSH1 0x40 PUSH0 KECCAK256 SLOAD SWAP6 DUP4 DUP8 AND PUSH1 0xF SIGNEXTEND PUSH2 0x2FDC JUMP JUMPDEST SWAP3 DUP6 PUSH1 0x80 SAR PUSH2 0x2FDC JUMP JUMPDEST DUP2 NOT SWAP1 PUSH1 0x80 SHL AND SWAP2 AND OR SWAP2 DUP3 SUB PUSH2 0x304A JUMPI POP POP JUMP JUMPDEST PUSH0 MSTORE PUSH1 0x6 PUSH1 0x20 MSTORE PUSH1 0x40 PUSH0 KECCAK256 SSTORE JUMP JUMPDEST SWAP1 SWAP4 SWAP2 DUP3 DUP2 PUSH2 0x3078 JUMPI JUMPDEST POP POP POP DUP2 PUSH2 0x306F JUMPI POP POP POP JUMP JUMPDEST PUSH2 0x1FE SWAP3 PUSH2 0x34F6 JUMP JUMPDEST PUSH2 0x3081 SWAP3 PUSH2 0x34F6 JUMP JUMPDEST PUSH0 DUP1 DUP3 PUSH2 0x3062 JUMP JUMPDEST SWAP3 DUP2 PUSH2 0x3095 JUMPI POP POP POP POP JUMP JUMPDEST PUSH2 0x309E SWAP4 PUSH2 0x34AE JUMP JUMPDEST PUSH0 DUP1 DUP1 DUP1 PUSH2 0x215C JUMP JUMPDEST SWAP2 DUP2 PUSH2 0x306F JUMPI POP POP POP JUMP JUMPDEST SWAP2 SWAP4 SWAP1 SWAP4 DUP6 DUP2 PUSH2 0x3188 JUMPI JUMPDEST POP POP POP POP DUP1 ISZERO SWAP2 DUP3 ISZERO PUSH2 0x30D0 JUMPI POP POP POP POP JUMP JUMPDEST PUSH1 0x1 PUSH1 0x1 PUSH1 0xA0 SHL SUB AND DUP1 PUSH2 0x30EA JUMPI POP POP PUSH2 0x309E SWAP2 POP PUSH2 0x346D JUMP JUMPDEST PUSH1 0x20 SWAP3 POP PUSH2 0x3139 SWAP4 PUSH2 0x30FC PUSH1 0x1 PUSH2 0x33D5 JUMP JUMPDEST PUSH1 0x40 MLOAD PUSH4 0x23B872DD PUSH1 0xE0 SHL DUP2 MSTORE PUSH1 0x1 PUSH1 0x1 PUSH1 0xA0 SHL SUB SWAP1 SWAP2 AND PUSH1 0x4 DUP3 ADD MSTORE ADDRESS PUSH1 0x24 DUP3 ADD MSTORE PUSH1 0x44 DUP2 ADD SWAP3 SWAP1 SWAP3 MSTORE SWAP1 SWAP3 DUP4 SWAP2 SWAP1 DUP3 SWAP1 PUSH0 SWAP1 DUP3 SWAP1 PUSH1 0x64 DUP3 ADD SWAP1 JUMP JUMPDEST SUB SWAP3 GAS CALL DUP1 ISZERO PUSH2 0x1FD2 JUMPI PUSH2 0x3154 SWAP2 PUSH0 SWAP2 PUSH2 0x3159 JUMPI JUMPDEST POP PUSH2 0x3429 JUMP JUMPDEST PUSH2 0x309E JUMP JUMPDEST PUSH2 0x317B SWAP2 POP PUSH1 0x20 RETURNDATASIZE PUSH1 0x20 GT PUSH2 0x3181 JUMPI JUMPDEST PUSH2 0x3173 DUP2 DUP4 PUSH2 0x2D3 JUMP JUMPDEST DUP2 ADD SWAP1 PUSH2 0x3414 JUMP JUMPDEST PUSH0 PUSH2 0x314E JUMP JUMPDEST POP RETURNDATASIZE PUSH2 0x3169 JUMP JUMPDEST PUSH2 0x3191 SWAP4 PUSH2 0x34AE JUMP JUMPDEST PUSH0 DUP1 DUP1 DUP6 PUSH2 0x30BD JUMP JUMPDEST PUSH1 0x1 PUSH1 0x1 PUSH1 0x80 SHL SUB SWAP3 SWAP4 PUSH0 EQ PUSH2 0x31CD JUMPI POP AND SWAP1 DUP1 DUP3 LT PUSH2 0x31B8 JUMPI POP POP JUMP JUMPDEST PUSH4 0x1735867 PUSH1 0xE0 SHL PUSH0 MSTORE PUSH1 0x4 MSTORE PUSH1 0x24 MSTORE PUSH1 0x44 PUSH0 REVERT JUMPDEST SWAP1 POP AND SWAP1 DUP1 DUP3 LT PUSH2 0x31DC JUMPI POP POP JUMP JUMPDEST PUSH4 0x68580A19 PUSH1 0xE0 SHL PUSH0 MSTORE PUSH1 0x4 MSTORE PUSH1 0x24 MSTORE PUSH1 0x44 PUSH0 REVERT JUMPDEST PUSH1 0x1 PUSH1 0x1 PUSH1 0x80 SHL SUB PUSH8 0xDE0B6B3A7640000 SWAP2 AND MUL SWAP1 PUSH1 0x1 PUSH1 0x1 PUSH1 0x80 SHL SUB DUP3 AND SWAP2 DUP3 SUB PUSH2 0x6ED JUMPI JUMP JUMPDEST SWAP3 SWAP5 SWAP4 SWAP2 SWAP1 SWAP4 DUP3 PUSH0 MSTORE PUSH1 0x5 PUSH1 0x20 MSTORE PUSH1 0x40 PUSH0 KECCAK256 SLOAD ISZERO PUSH0 EQ PUSH2 0x3259 JUMPI POP POP POP PUSH2 0x3240 SWAP3 POP PUSH2 0x2293 JUMP JUMPDEST SWAP1 JUMPDEST DUP2 ISZERO PUSH2 0x324A JUMPI JUMP JUMPDEST PUSH4 0x283EEADF PUSH1 0xE0 SHL PUSH0 MSTORE PUSH1 0x4 PUSH0 REVERT JUMPDEST SWAP1 SWAP3 SWAP2 SWAP4 PUSH8 0xDE0B6B3A7640000 DUP2 MUL SWAP1 DUP1 DUP3 DIV PUSH8 0xDE0B6B3A7640000 EQ SWAP1 ISZERO OR ISZERO PUSH2 0x6ED JUMPI DUP2 PUSH2 0x3288 SWAP2 PUSH2 0x2A23 JUMP JUMPDEST DUP3 ADD DUP1 SWAP3 GT PUSH2 0x6ED JUMPI PUSH2 0x32C9 PUSH2 0x1670 SWAP4 PUSH1 0x1 PUSH1 0x1 PUSH1 0x80 SHL SUB PUSH2 0x32C2 PUSH2 0x32D9 SWAP5 PUSH2 0x1670 PUSH2 0x32B6 PUSH2 0x32E0 SWAP12 PUSH2 0x31F1 JUMP JUMPDEST PUSH1 0x1 PUSH1 0x1 PUSH1 0x80 SHL SUB AND SWAP1 JUMP JUMPDEST SWAP2 AND PUSH2 0x2293 JUMP JUMPDEST SWAP4 PUSH1 0x5 SWAP1 PUSH0 MSTORE PUSH1 0x20 MSTORE PUSH1 0x40 PUSH0 KECCAK256 SWAP1 JUMP JUMPDEST SLOAD SWAP1 PUSH2 0x2A10 JUMP JUMPDEST SWAP1 PUSH2 0x3242 JUMP JUMPDEST SWAP2 SWAP1 SWAP2 PUSH1 0x1 DUP1 PUSH1 0xA0 SHL SUB AND SWAP1 DUP2 PUSH0 MSTORE PUSH1 0x1 PUSH1 0x20 MSTORE PUSH1 0x40 PUSH0 KECCAK256 DUP4 PUSH0 MSTORE PUSH1 0x20 MSTORE PUSH1 0x40 PUSH0 KECCAK256 DUP1 SLOAD SWAP1 DUP3 DUP3 ADD DUP1 SWAP3 GT PUSH2 0x6ED JUMPI SSTORE PUSH1 0x40 DUP1 MLOAD CALLER DUP2 MSTORE PUSH1 0x20 DUP2 ADD SWAP3 SWAP1 SWAP3 MSTORE PUSH0 SWAP2 PUSH0 MLOAD PUSH1 0x20 PUSH2 0x40AE PUSH0 CODECOPY PUSH0 MLOAD SWAP1 PUSH0 MSTORE SWAP2 DUP2 SWAP1 DUP2 ADD PUSH2 0x2FD7 JUMP JUMPDEST PUSH1 0x1F DUP3 MLOAD DUP1 DUP4 TSTORE ADD PUSH1 0x5 SHR SWAP2 PUSH0 JUMPDEST DUP4 DUP2 LT PUSH2 0x335A JUMPI POP POP POP POP JUMP JUMPDEST DUP1 PUSH1 0x20 PUSH1 0x1 SWAP3 PUSH1 0x5 SHL DUP5 ADD ADD MLOAD DUP3 DUP3 DUP7 ADD ADD TSTORE ADD PUSH2 0x334D JUMP JUMPDEST SWAP1 PUSH1 0x40 MLOAD SWAP1 PUSH1 0x20 DUP3 ADD SWAP3 PUSH32 0xE88690B85C82523984F05D1F281684A73AA4D4303BCA19CFE29AA89AE744616A DUP5 MSTORE PUSH1 0x1 PUSH1 0x1 PUSH1 0x60 SHL SUB NOT SWAP1 PUSH1 0x60 SHL AND PUSH1 0x40 DUP4 ADD MSTORE PUSH1 0x1 PUSH1 0x1 PUSH1 0x60 SHL SUB NOT SWAP1 PUSH1 0x60 SHL AND PUSH1 0x54 DUP3 ADD MSTORE PUSH1 0x48 DUP2 MSTORE PUSH2 0x2C0F PUSH1 0x68 DUP3 PUSH2 0x2D3 JUMP JUMPDEST ISZERO PUSH2 0x33DC JUMPI JUMP JUMPDEST PUSH1 0x40 MLOAD PUSH3 0x461BCD PUSH1 0xE5 SHL DUP2 MSTORE PUSH1 0x20 PUSH1 0x4 DUP3 ADD MSTORE PUSH1 0x10 PUSH1 0x24 DUP3 ADD MSTORE PUSH16 0x115512081B9BDD08195E1C1958DD1959 PUSH1 0x82 SHL PUSH1 0x44 DUP3 ADD MSTORE PUSH1 0x64 SWAP1 REVERT JUMPDEST SWAP1 DUP2 PUSH1 0x20 SWAP2 SUB SLT PUSH2 0x1EF JUMPI MLOAD PUSH2 0x3A0 DUP2 PUSH2 0x3A3 JUMP JUMPDEST ISZERO PUSH2 0x3430 JUMPI JUMP JUMPDEST PUSH1 0x40 MLOAD PUSH3 0x461BCD PUSH1 0xE5 SHL DUP2 MSTORE PUSH1 0x20 PUSH1 0x4 DUP3 ADD MSTORE PUSH1 0x15 PUSH1 0x24 DUP3 ADD MSTORE PUSH21 0x115490CC8C081D1C985B9CD9995C8819985A5B1959 PUSH1 0x5A SHL PUSH1 0x44 DUP3 ADD MSTORE PUSH1 0x64 SWAP1 REVERT JUMPDEST ISZERO PUSH2 0x3474 JUMPI JUMP JUMPDEST PUSH1 0x40 MLOAD PUSH3 0x461BCD PUSH1 0xE5 SHL DUP2 MSTORE PUSH1 0x20 PUSH1 0x4 DUP3 ADD MSTORE PUSH1 0x12 PUSH1 0x24 DUP3 ADD MSTORE PUSH18 0x125B98DBDC9C9958DD08115512081CD95B9D PUSH1 0x72 SHL PUSH1 0x44 DUP3 ADD MSTORE PUSH1 0x64 SWAP1 REVERT JUMPDEST SWAP1 SWAP3 SWAP1 PUSH1 0x1 PUSH1 0x1 PUSH1 0xA0 SHL SUB AND DUP1 PUSH2 0x34CB JUMPI POP PUSH2 0x1FE SWAP3 POP EQ PUSH2 0x346D JUMP JUMPDEST PUSH2 0x34DC SWAP4 PUSH2 0x30FC PUSH1 0x20 SWAP5 SWAP4 ISZERO PUSH2 0x33D5 JUMP JUMPDEST SUB SWAP3 GAS CALL DUP1 ISZERO PUSH2 0x1FD2 JUMPI PUSH2 0x1FE SWAP2 PUSH0 SWAP2 PUSH2 0x3159 JUMPI POP PUSH2 0x3429 JUMP JUMPDEST PUSH1 0x1 PUSH1 0x1 PUSH1 0xA0 SHL SUB AND DUP1 PUSH2 0x3530 JUMPI POP PUSH0 DUP1 DUP1 SWAP4 DUP2 SWAP4 DUP3 SWAP1 DUP3 ISZERO PUSH2 0x3526 JUMPI JUMPDEST PUSH1 0x1 PUSH1 0x1 PUSH1 0xA0 SHL SUB AND SWAP1 CALL ISZERO PUSH2 0x1FD2 JUMPI JUMP JUMPDEST PUSH2 0x8FC SWAP2 POP PUSH2 0x3514 JUMP JUMPDEST PUSH1 0x40 MLOAD PUSH4 0xA9059CBB PUSH1 0xE0 SHL DUP2 MSTORE PUSH1 0x1 PUSH1 0x1 PUSH1 0xA0 SHL SUB SWAP1 SWAP3 AND PUSH1 0x4 DUP4 ADD MSTORE PUSH1 0x24 DUP3 ADD SWAP3 SWAP1 SWAP3 MSTORE SWAP1 PUSH1 0x20 SWAP1 DUP3 SWAP1 DUP2 PUSH0 DUP2 PUSH1 0x44 DUP2 ADD PUSH2 0x34DC JUMP JUMPDEST PUSH0 SWAP2 PUSH2 0x2395 SWAP2 ADDRESS PUSH2 0x3854 JUMP JUMPDEST SWAP1 CALLDATALOAD SWAP1 PUSH1 0x1E NOT DUP2 CALLDATASIZE SUB ADD DUP3 SLT ISZERO PUSH2 0x1EF JUMPI ADD DUP1 CALLDATALOAD SWAP1 PUSH1 0x1 PUSH1 0x1 PUSH1 0x40 SHL SUB DUP3 GT PUSH2 0x1EF JUMPI PUSH1 0x20 ADD SWAP2 DUP2 PUSH1 0x5 SHL CALLDATASIZE SUB DUP4 SGT PUSH2 0x1EF JUMPI JUMP JUMPDEST ISZERO PUSH2 0x35AF JUMPI JUMP JUMPDEST PUSH1 0x40 MLOAD PUSH3 0x461BCD PUSH1 0xE5 SHL DUP2 MSTORE PUSH1 0x20 PUSH1 0x4 DUP3 ADD MSTORE PUSH1 0x11 PUSH1 0x24 DUP3 ADD MSTORE PUSH17 0x4D69736D61746368656420617272617973 PUSH1 0x78 SHL PUSH1 0x44 DUP3 ADD MSTORE PUSH1 0x64 SWAP1 REVERT JUMPDEST SWAP1 ISZERO PUSH2 0x19D3 JUMPI SWAP1 JUMP JUMPDEST SWAP2 SWAP1 DUP2 LT ISZERO PUSH2 0x19D3 JUMPI PUSH1 0x5 SHL ADD SWAP1 JUMP JUMPDEST CALLDATALOAD PUSH2 0x3A0 DUP2 PUSH2 0x3B8 JUMP JUMPDEST SWAP6 SWAP5 SWAP4 SWAP3 SWAP2 POP PUSH1 0x60 DUP7 ADD PUSH2 0x361F DUP2 DUP9 PUSH2 0x3573 JUMP JUMPDEST SWAP1 POP ISZERO PUSH2 0x36C1 JUMPI PUSH2 0x364B PUSH2 0x3636 PUSH1 0x80 DUP10 ADD DUP10 PUSH2 0x3573 JUMP JUMPDEST SWAP1 POP PUSH2 0x3642 DUP4 DUP11 PUSH2 0x3573 JUMP JUMPDEST SWAP2 SWAP1 POP EQ PUSH2 0x35A8 JUMP JUMPDEST PUSH1 0x1 PUSH2 0x3657 DUP3 DUP10 PUSH2 0x3573 JUMP JUMPDEST SWAP1 POP EQ PUSH0 EQ PUSH2 0x36B5 JUMPI DUP7 PUSH2 0x366D PUSH2 0x3A0 SWAP9 PUSH2 0x2F79 JUMP JUMPDEST SWAP2 PUSH2 0x367A PUSH1 0x20 DUP4 ADD PUSH2 0x2F79 JUMP JUMPDEST PUSH2 0x36AD PUSH1 0xA0 PUSH2 0x36A6 PUSH2 0x36A1 PUSH2 0x369B PUSH2 0x3694 PUSH1 0x40 DUP10 ADD PUSH2 0x2F79 JUMP JUMPDEST SWAP7 DUP9 PUSH2 0x3573 JUMP JUMPDEST SWAP1 PUSH2 0x35E8 JUMP JUMPDEST PUSH2 0x3601 JUMP JUMPDEST SWAP5 ADD PUSH2 0x2F6F JUMP JUMPDEST SWAP4 PUSH1 0x5 PUSH2 0x3D9F JUMP JUMPDEST POP PUSH2 0x3A0 SWAP6 PUSH1 0x5 PUSH2 0x39EB JUMP JUMPDEST PUSH1 0x40 MLOAD PUSH3 0x461BCD PUSH1 0xE5 SHL DUP2 MSTORE PUSH1 0x20 PUSH1 0x4 DUP3 ADD MSTORE PUSH1 0xB PUSH1 0x24 DUP3 ADD MSTORE PUSH11 0x4E6F206D61726B696E6773 PUSH1 0xA8 SHL PUSH1 0x44 DUP3 ADD MSTORE PUSH1 0x64 SWAP1 REVERT JUMPDEST SWAP2 SWAP1 SWAP2 PUSH0 DUP4 DUP3 ADD SWAP4 DUP5 SLT SWAP2 SLT SWAP1 DUP1 ISZERO DUP3 AND SWAP2 ISZERO AND OR PUSH2 0x6ED JUMPI JUMP JUMPDEST SWAP1 SWAP3 PUSH2 0x371C DUP5 DUP4 ADDRESS PUSH2 0x3854 JUMP JUMPDEST TLOAD PUSH2 0x3728 DUP5 DUP5 ADDRESS PUSH2 0x3854 JUMP JUMPDEST TLOAD SWAP2 PUSH1 0x1 PUSH1 0x1 PUSH1 0xA0 SHL SUB DUP6 DUP2 AND SWAP3 SWAP1 DUP8 AND DUP1 DUP5 EQ PUSH2 0x37F1 JUMPI SWAP2 DUP2 PUSH2 0x378B SWAP6 SWAP4 PUSH0 PUSH2 0x1FE SWAP11 SWAP7 SWAP5 SLT PUSH0 EQ PUSH2 0x37D1 JUMPI PUSH2 0x3761 PUSH2 0x3770 SWAP3 PUSH2 0x2E64 JUMP JUMPDEST SWAP1 PUSH2 0x37CA JUMPI DUP3 SWAP1 JUMPDEST DUP9 DUP8 PUSH2 0x34AE JUMP JUMPDEST PUSH0 DUP4 SGT ISZERO PUSH2 0x3790 JUMPI POP POP PUSH2 0x3785 SWAP1 DUP5 DUP7 PUSH2 0x34F6 JUMP JUMPDEST DUP3 PUSH2 0x3567 JUMP JUMPDEST PUSH2 0x3567 JUMP JUMPDEST PUSH0 DUP4 SLT PUSH2 0x37A0 JUMPI JUMPDEST POP POP POP PUSH2 0x3785 JUMP JUMPDEST PUSH2 0x37AC PUSH2 0x37BA SWAP4 PUSH2 0x2E64 JUMP JUMPDEST SWAP2 PUSH2 0x37C2 JUMPI SWAP1 JUMPDEST DUP6 DUP8 PUSH2 0x34AE JUMP JUMPDEST PUSH0 DUP1 DUP1 PUSH2 0x3798 JUMP JUMPDEST POP PUSH0 SWAP1 PUSH2 0x37B3 JUMP JUMPDEST PUSH0 SWAP1 PUSH2 0x3769 JUMP JUMPDEST POP PUSH0 DUP2 SGT PUSH2 0x37E0 JUMPI JUMPDEST POP PUSH2 0x3770 JUMP JUMPDEST PUSH2 0x37EB SWAP1 DUP8 DUP7 PUSH2 0x34F6 JUMP JUMPDEST PUSH0 PUSH2 0x37DA JUMP JUMPDEST SWAP3 POP PUSH2 0x1FE SWAP7 SWAP6 SWAP4 PUSH2 0x3802 SWAP2 PUSH2 0x36F4 JUMP JUMPDEST SWAP3 PUSH0 DUP5 SLT ISZERO PUSH2 0x382E JUMPI POP PUSH2 0x3818 PUSH2 0x378B SWAP4 PUSH2 0x2E64 JUMP JUMPDEST SWAP2 PUSH2 0x3826 JUMPI SWAP1 JUMPDEST DUP4 DUP6 PUSH2 0x34AE JUMP JUMPDEST POP PUSH0 SWAP1 PUSH2 0x381F JUMP JUMPDEST SWAP3 SWAP2 POP POP DUP3 PUSH0 DUP3 SGT PUSH2 0x3843 JUMPI JUMPDEST POP POP POP PUSH2 0x3567 JUMP JUMPDEST PUSH2 0x384C SWAP3 PUSH2 0x34F6 JUMP JUMPDEST PUSH0 DUP1 DUP3 PUSH2 0x383B JUMP JUMPDEST SWAP2 PUSH1 0x40 MLOAD SWAP2 PUSH1 0x20 DUP4 ADD SWAP4 PUSH32 0x71AA94563C1D78D77DF681AD802FC1A81EA7D00CFFE4BBE002400E1D66DE80D2 DUP6 MSTORE PUSH1 0x1 PUSH1 0x1 PUSH1 0x60 SHL SUB NOT SWAP1 PUSH1 0x60 SHL AND PUSH1 0x40 DUP5 ADD MSTORE PUSH1 0x1 PUSH1 0x1 PUSH1 0x60 SHL SUB NOT SWAP1 PUSH1 0x60 SHL AND PUSH1 0x54 DUP4 ADD MSTORE PUSH1 0x1 PUSH1 0x1 PUSH1 0x60 SHL SUB NOT SWAP1 PUSH1 0x60 SHL AND PUSH1 0x68 DUP3 ADD MSTORE PUSH1 0x5C DUP2 MSTORE PUSH2 0x2C0F PUSH1 0x7C DUP3 PUSH2 0x2D3 JUMP JUMPDEST SWAP2 SWAP1 SWAP2 PUSH1 0x40 DUP2 DUP5 SUB SLT PUSH2 0x1EF JUMPI DUP1 MLOAD PUSH1 0x1 PUSH1 0x1 PUSH1 0x40 SHL SUB DUP2 GT PUSH2 0x1EF JUMPI DUP4 PUSH2 0x38F2 SWAP2 DUP4 ADD PUSH2 0x1A2F JUMP JUMPDEST SWAP3 PUSH1 0x20 DUP3 ADD MLOAD PUSH1 0x1 PUSH1 0x1 PUSH1 0x40 SHL SUB DUP2 GT PUSH2 0x1EF JUMPI PUSH2 0x3A0 SWAP3 ADD PUSH2 0x1A2F JUMP JUMPDEST SWAP1 PUSH1 0x20 DUP1 DUP4 MLOAD SWAP3 DUP4 DUP2 MSTORE ADD SWAP3 ADD SWAP1 PUSH0 JUMPDEST DUP2 DUP2 LT PUSH2 0x392D JUMPI POP POP POP SWAP1 JUMP JUMPDEST DUP3 MLOAD PUSH1 0x1 PUSH1 0x1 PUSH1 0xE8 SHL SUB NOT AND DUP5 MSTORE PUSH1 0x20 SWAP4 DUP5 ADD SWAP4 SWAP1 SWAP3 ADD SWAP2 PUSH1 0x1 ADD PUSH2 0x3920 JUMP JUMPDEST DUP1 MLOAD PUSH1 0x1 PUSH1 0x1 PUSH1 0xA0 SHL SUB SWAP1 DUP2 AND DUP4 MSTORE PUSH1 0x20 DUP1 DUP4 ADD MLOAD DUP3 AND SWAP1 DUP5 ADD MSTORE PUSH1 0x40 DUP1 DUP4 ADD MLOAD SWAP1 SWAP2 AND SWAP1 DUP4 ADD MSTORE PUSH1 0x60 DUP1 DUP3 ADD MLOAD PUSH1 0xC0 SWAP2 DUP5 ADD DUP3 SWAP1 MSTORE PUSH2 0x3A0 SWAP4 SWAP2 PUSH1 0xA0 SWAP2 PUSH2 0x3997 SWAP2 DUP5 ADD SWAP1 PUSH2 0x5AD JUMP JUMPDEST SWAP3 PUSH1 0x80 DUP2 ADD MLOAD ISZERO ISZERO PUSH1 0x80 DUP5 ADD MSTORE ADD MLOAD SWAP1 PUSH1 0xA0 DUP2 DUP5 SUB SWAP2 ADD MSTORE PUSH2 0x3910 JUMP JUMPDEST SWAP2 PUSH2 0x39DD SWAP1 PUSH2 0x39CF PUSH2 0x3A0 SWAP6 SWAP4 PUSH1 0x60 DUP7 MSTORE PUSH1 0x60 DUP7 ADD SWAP1 PUSH2 0x394D JUMP JUMPDEST SWAP1 DUP5 DUP3 SUB PUSH1 0x20 DUP7 ADD MSTORE PUSH2 0x1AB1 JUMP JUMPDEST SWAP2 PUSH1 0x40 DUP2 DUP5 SUB SWAP2 ADD MSTORE PUSH2 0x1AB1 JUMP JUMPDEST SWAP7 SWAP5 SWAP6 SWAP1 SWAP3 SWAP4 SWAP2 SWAP7 PUSH1 0x60 DUP5 ADD SWAP8 PUSH2 0x3A02 DUP10 DUP7 PUSH2 0x3573 JUMP JUMPDEST SWAP7 SWAP1 POP PUSH2 0x3D5C JUMPI JUMPDEST POP PUSH2 0x3A14 DUP6 PUSH2 0x1980 JUMP JUMPDEST SWAP2 PUSH2 0x3A1E DUP7 PUSH2 0x1980 JUMP JUMPDEST SWAP1 PUSH0 JUMPDEST DUP8 DUP2 LT PUSH2 0x3CC6 JUMPI POP DUP2 PUSH0 SWAP2 DUP6 DUP4 DUP10 PUSH2 0x3AE5 PUSH2 0x3B07 SWAP14 SWAP15 SWAP16 PUSH2 0x3AB9 PUSH2 0x3ADE PUSH2 0x3A47 DUP6 PUSH2 0x2F79 JUMP JUMPDEST SWAP5 PUSH2 0x3AD0 PUSH2 0x3A57 PUSH1 0x20 DUP4 ADD PUSH2 0x2F79 JUMP JUMPDEST SWAP5 PUSH2 0x3A8C PUSH2 0x3AC9 PUSH2 0x3A6A PUSH1 0x40 DUP7 ADD PUSH2 0x2F79 JUMP JUMPDEST PUSH2 0x3A77 PUSH1 0x80 DUP8 ADD DUP8 PUSH2 0x3573 JUMP JUMPDEST SWAP4 SWAP1 SWAP5 PUSH2 0x3A86 PUSH1 0xA0 DUP10 ADD PUSH2 0x2F6F JUMP JUMPDEST SWAP8 PUSH2 0x3573 JUMP JUMPDEST SWAP9 SWAP1 SWAP10 PUSH2 0x3AA9 PUSH2 0x3A9A PUSH2 0x2F4 JUMP JUMPDEST PUSH1 0x1 PUSH1 0x1 PUSH1 0xA0 SHL SUB SWAP1 SWAP15 AND DUP15 MSTORE JUMP JUMPDEST PUSH1 0x1 PUSH1 0x1 PUSH1 0xA0 SHL SUB AND PUSH1 0x20 DUP14 ADD MSTORE JUMP JUMPDEST PUSH1 0x1 PUSH1 0x1 PUSH1 0xA0 SHL SUB AND PUSH1 0x40 DUP12 ADD MSTORE JUMP JUMPDEST CALLDATASIZE SWAP2 PUSH2 0x339 JUMP JUMPDEST PUSH1 0x60 DUP8 ADD MSTORE ISZERO ISZERO PUSH1 0x80 DUP7 ADD MSTORE JUMP JUMPDEST CALLDATASIZE SWAP2 PUSH2 0x3CA JUMP JUMPDEST PUSH1 0xA0 DUP3 ADD MSTORE PUSH1 0x40 MLOAD PUSH4 0x27B8F7B PUSH1 0xE1 SHL DUP2 MSTORE SWAP13 DUP14 SWAP6 DUP7 SWAP5 DUP6 SWAP4 PUSH1 0x4 DUP6 ADD PUSH2 0x39B4 JUMP JUMPDEST SUB SWAP3 PUSH1 0x1 PUSH1 0x1 PUSH1 0xA0 SHL SUB AND GAS CALL SWAP1 DUP2 ISZERO PUSH2 0x1FD2 JUMPI PUSH0 SWAP8 PUSH0 SWAP3 PUSH2 0x3C9F JUMPI JUMPDEST POP PUSH0 JUMPDEST DUP8 DUP2 LT PUSH2 0x3BA3 JUMPI POP POP POP POP POP SWAP1 PUSH2 0x3B50 SWAP5 SWAP6 PUSH2 0x3B4A SWAP4 SWAP3 PUSH2 0x3B54 JUMPI JUMPDEST POP POP PUSH2 0x2278 JUMP JUMPDEST SWAP1 PUSH2 0x19D8 JUMP JUMPDEST MLOAD SWAP1 JUMP JUMPDEST DUP2 PUSH2 0x3B64 PUSH1 0xA0 PUSH2 0x3B8E SWAP5 ADD PUSH2 0x2F6F JUMP JUMPDEST ISZERO PUSH2 0x3B95 JUMPI PUSH1 0x20 PUSH2 0x3B75 SWAP2 ADD PUSH2 0x2F79 JUMP JUMPDEST PUSH2 0x3B87 PUSH2 0x3B81 DUP6 PUSH2 0x2278 JUMP JUMPDEST DUP8 PUSH2 0x19D8 JUMP JUMPDEST MLOAD SWAP2 PUSH2 0x3EC3 JUMP JUMPDEST PUSH0 DUP1 PUSH2 0x3B43 JUMP JUMPDEST PUSH2 0x3B9E SWAP1 PUSH2 0x2F79 JUMP JUMPDEST PUSH2 0x3B75 JUMP JUMPDEST DUP1 PUSH2 0x3C65 DUP11 DUP10 PUSH2 0x3BCD DUP5 PUSH2 0x3BC6 PUSH1 0x1 SWAP8 PUSH2 0x3BC0 PUSH1 0x80 DUP7 ADD DUP7 PUSH2 0x3573 JUMP JUMPDEST SWAP1 PUSH2 0x35F1 JUMP JUMPDEST CALLDATALOAD SWAP4 PUSH2 0x19D8 JUMP JUMPDEST MLOAD PUSH2 0x3C0B PUSH2 0x3BEB PUSH2 0x3BDE DUP8 DUP14 PUSH2 0x19D8 JUMP JUMPDEST MLOAD PUSH1 0x1 PUSH1 0x1 PUSH1 0x80 SHL SUB AND SWAP1 JUMP JUMPDEST DUP3 PUSH2 0x3BF9 PUSH2 0x3BDE DUP10 DUP13 PUSH2 0x19D8 JUMP JUMPDEST PUSH2 0x3C05 PUSH1 0xA0 DUP8 ADD PUSH2 0x2F6F JUMP JUMPDEST SWAP3 PUSH2 0x319A JUMP JUMPDEST PUSH2 0x3C15 DUP6 DUP10 PUSH2 0x19D8 JUMP JUMPDEST MLOAD SWAP3 PUSH2 0x3C23 PUSH1 0xA0 DUP5 ADD PUSH2 0x2F6F JUMP JUMPDEST ISZERO PUSH2 0x3C7F JUMPI PUSH2 0x3C42 PUSH1 0xA0 PUSH1 0x1 PUSH1 0x1 PUSH1 0x80 SHL SUB DUP4 AND PUSH1 0xF SIGNEXTEND SWAP5 JUMPDEST ADD PUSH2 0x2F6F JUMP JUMPDEST ISZERO PUSH2 0x3C6B JUMPI POP PUSH1 0x1 PUSH1 0x1 PUSH1 0x80 SHL SUB PUSH2 0x3C5D SWAP2 AND PUSH1 0xF SIGNEXTEND PUSH2 0x2A41 JUMP JUMPDEST SWAP2 JUMPDEST DUP9 PUSH2 0x3ED6 JUMP JUMPDEST ADD PUSH2 0x3B27 JUMP JUMPDEST PUSH1 0x1 PUSH1 0x1 PUSH1 0x80 SHL SUB SWAP2 POP AND PUSH1 0xF SIGNEXTEND SWAP2 PUSH2 0x3C5F JUMP JUMPDEST PUSH2 0x3C42 PUSH1 0xA0 PUSH2 0x3C99 PUSH1 0x1 PUSH1 0x1 PUSH1 0x80 SHL SUB DUP6 AND PUSH1 0xF SIGNEXTEND PUSH2 0x2A41 JUMP JUMPDEST SWAP5 PUSH2 0x3C3C JUMP JUMPDEST SWAP1 SWAP8 POP PUSH2 0x3CBE SWAP2 POP RETURNDATASIZE DUP1 PUSH0 DUP4 RETURNDATACOPY PUSH2 0x3CB6 DUP2 DUP4 PUSH2 0x2D3 JUMP JUMPDEST DUP2 ADD SWAP1 PUSH2 0x38C9 JUMP JUMPDEST SWAP1 SWAP7 PUSH0 PUSH2 0x3B24 JUMP JUMPDEST PUSH1 0x1 SWAP1 PUSH2 0x3D56 PUSH2 0x3D4C PUSH2 0x3D31 PUSH2 0x3D10 DUP16 DUP13 PUSH2 0x3CE0 DUP2 PUSH2 0x2F79 JUMP JUMPDEST SWAP2 PUSH2 0x3D0A PUSH2 0x36A1 DUP10 PUSH2 0x3BC0 PUSH2 0x3CF7 PUSH1 0x20 DUP8 ADD PUSH2 0x2F79 JUMP JUMPDEST SWAP5 PUSH2 0x3D04 PUSH1 0x40 DUP9 ADD PUSH2 0x2F79 JUMP JUMPDEST SWAP7 PUSH2 0x3573 JUMP JUMPDEST SWAP3 PUSH2 0x2BA3 JUMP JUMPDEST DUP9 PUSH1 0x1 SWAP2 PUSH0 MSTORE ADD PUSH1 0x20 MSTORE PUSH1 0x40 PUSH0 KECCAK256 SLOAD SWAP1 PUSH1 0x1 PUSH1 0x1 PUSH1 0x80 SHL SUB DUP3 AND SWAP2 PUSH1 0x80 SHR SWAP1 JUMP JUMPDEST PUSH2 0x3D3E DUP6 DUP10 SWAP5 SWAP4 SWAP5 PUSH2 0x19D8 JUMP JUMPDEST SWAP1 PUSH1 0x1 PUSH1 0x1 PUSH1 0x80 SHL SUB AND SWAP1 MSTORE JUMP JUMPDEST PUSH2 0x3D3E DUP4 DUP10 PUSH2 0x19D8 JUMP JUMPDEST ADD PUSH2 0x3A21 JUMP JUMPDEST PUSH2 0x3D8A SWAP1 PUSH2 0x3D6C PUSH1 0xA0 DUP8 ADD PUSH2 0x2F6F JUMP JUMPDEST ISZERO PUSH2 0x3D90 JUMPI PUSH2 0x3D83 PUSH2 0x3D7D DUP8 PUSH2 0x2F79 JUMP JUMPDEST SWAP2 PUSH2 0x2E64 JUMP JUMPDEST SWAP1 DUP10 PUSH2 0x3EC3 JUMP JUMPDEST PUSH0 PUSH2 0x3A0A JUMP JUMPDEST PUSH2 0x3D83 PUSH2 0x3D7D PUSH1 0x20 DUP9 ADD PUSH2 0x2F79 JUMP JUMPDEST SWAP2 DUP6 DUP1 SWAP13 SWAP12 DUP3 SWAP9 SWAP4 SWAP8 SWAP12 SWAP10 SWAP6 SWAP11 SWAP7 SWAP11 PUSH2 0x3DBA DUP13 DUP3 DUP7 DUP13 PUSH2 0x2BA3 JUMP JUMPDEST SWAP7 PUSH2 0x3E9A JUMPI JUMPDEST DUP9 DUP6 PUSH2 0x3DE7 DUP10 DUP10 PUSH1 0x1 SWAP2 PUSH0 MSTORE ADD PUSH1 0x20 MSTORE PUSH1 0x40 PUSH0 KECCAK256 SLOAD SWAP1 PUSH1 0x1 PUSH1 0x1 PUSH1 0x80 SHL SUB DUP3 AND SWAP2 PUSH1 0x80 SHR SWAP1 JUMP JUMPDEST SWAP15 DUP16 SWAP5 DUP3 SWAP9 PUSH2 0x3DF7 SWAP9 SWAP4 SWAP6 PUSH2 0x3F74 JUMP JUMPDEST SWAP12 DUP13 DUP1 SWAP11 PUSH2 0x3E04 SWAP4 PUSH2 0x319A JUMP JUMPDEST PUSH2 0x3E3F SWAP3 DUP10 ISZERO PUSH2 0x3E7F JUMPI PUSH1 0x1 PUSH1 0x1 PUSH1 0x80 SHL SUB DUP3 AND PUSH1 0xF SIGNEXTEND SWAP2 JUMPDEST DUP11 ISZERO PUSH2 0x3E6D JUMPI POP PUSH2 0x3E39 PUSH1 0x1 PUSH1 0x1 PUSH1 0x80 SHL SUB DUP11 AND PUSH1 0xF SIGNEXTEND PUSH2 0x2A41 JUMP JUMPDEST SWAP3 PUSH2 0x3ED6 JUMP JUMPDEST PUSH2 0x3E4B JUMPI JUMPDEST POP POP POP POP POP JUMP JUMPDEST PUSH2 0x3E5B SWAP5 ISZERO PUSH2 0x3E65 JUMPI POP SWAP1 PUSH2 0x3EC3 JUMP JUMPDEST PUSH0 DUP3 DUP2 DUP1 DUP1 PUSH2 0x3E44 JUMP JUMPDEST SWAP1 POP SWAP1 PUSH2 0x3EC3 JUMP JUMPDEST PUSH1 0x1 PUSH1 0x1 PUSH1 0x80 SHL SUB AND PUSH1 0xF SIGNEXTEND SWAP3 PUSH2 0x3ED6 JUMP JUMPDEST PUSH2 0x3E94 PUSH1 0x1 PUSH1 0x1 PUSH1 0x80 SHL SUB DUP11 AND PUSH1 0xF SIGNEXTEND PUSH2 0x2A41 JUMP JUMPDEST SWAP2 PUSH2 0x3E1D JUMP JUMPDEST DUP3 ISZERO PUSH2 0x3EBA JUMPI PUSH2 0x3EB5 DUP10 JUMPDEST PUSH2 0x3EAE DUP8 PUSH2 0x2E64 JUMP JUMPDEST SWAP1 DUP14 PUSH2 0x3EC3 JUMP JUMPDEST PUSH2 0x3DC0 JUMP JUMPDEST PUSH2 0x3EB5 DUP5 PUSH2 0x3EA5 JUMP JUMPDEST SWAP1 PUSH2 0x3ECE SWAP2 ADDRESS PUSH2 0x3854 JUMP JUMPDEST SWAP1 DUP2 TLOAD ADD SWAP1 TSTORE JUMP JUMPDEST PUSH1 0x1 SWAP1 SWAP4 SWAP3 SWAP4 ADD SWAP2 DUP2 PUSH0 MSTORE DUP3 PUSH1 0x20 MSTORE PUSH1 0x1 PUSH1 0x1 PUSH1 0x80 SHL SUB PUSH2 0x3F0E PUSH2 0x3F04 PUSH1 0x40 PUSH0 KECCAK256 SLOAD SWAP7 DUP4 DUP9 AND PUSH1 0xF SIGNEXTEND PUSH2 0x2FDC JUMP JUMPDEST SWAP3 DUP7 PUSH1 0x80 SAR PUSH2 0x2FDC JUMP JUMPDEST DUP2 NOT SWAP1 PUSH1 0x80 SHL AND SWAP2 AND OR SWAP3 DUP4 SUB PUSH2 0x3F24 JUMPI POP POP POP JUMP JUMPDEST PUSH0 MSTORE PUSH1 0x20 MSTORE PUSH1 0x40 PUSH0 KECCAK256 SSTORE JUMP JUMPDEST SWAP2 SWAP1 DUP3 PUSH1 0x40 SWAP2 SUB SLT PUSH2 0x1EF JUMPI PUSH1 0x20 DUP3 MLOAD SWAP3 ADD MLOAD SWAP1 JUMP JUMPDEST SWAP2 SWAP4 SWAP3 PUSH1 0x1 PUSH1 0x1 PUSH1 0x80 SHL SUB SWAP1 DUP2 PUSH2 0x3F67 PUSH1 0x40 SWAP5 PUSH1 0x60 DUP8 MSTORE PUSH1 0x60 DUP8 ADD SWAP1 PUSH2 0x394D JUMP JUMPDEST SWAP7 AND PUSH1 0x20 DUP6 ADD MSTORE AND SWAP2 ADD MSTORE JUMP JUMPDEST PUSH2 0x4018 SWAP9 SWAP4 PUSH0 SWAP3 PUSH2 0x3FEA PUSH1 0x40 SWAP9 SWAP11 SWAP8 SWAP10 SWAP6 PUSH2 0x3FDB PUSH2 0x3F90 PUSH2 0x195E JUMP JUMPDEST SWAP4 DUP14 PUSH2 0x3F9B DUP7 PUSH2 0x19C6 JUMP JUMPDEST MSTORE PUSH2 0x3FB1 PUSH2 0x3FA7 PUSH2 0x195E JUMP JUMPDEST SWAP7 PUSH2 0x1762 DUP9 PUSH2 0x19C6 JUMP JUMPDEST PUSH2 0x3FCB PUSH2 0x3FBC PUSH2 0x2F4 JUMP JUMPDEST PUSH1 0x1 PUSH1 0x1 PUSH1 0xA0 SHL SUB SWAP1 SWAP9 AND DUP9 MSTORE JUMP JUMPDEST PUSH1 0x1 PUSH1 0x1 PUSH1 0xA0 SHL SUB AND PUSH1 0x20 DUP8 ADD MSTORE JUMP JUMPDEST PUSH1 0x1 PUSH1 0x1 PUSH1 0xA0 SHL SUB AND DUP5 DUP11 ADD MSTORE JUMP JUMPDEST PUSH1 0x60 DUP4 ADD MSTORE DUP8 ISZERO ISZERO PUSH1 0x80 DUP4 ADD MSTORE PUSH1 0xA0 DUP3 ADD MSTORE DUP6 MLOAD PUSH4 0x60A80DBB PUSH1 0xE0 SHL DUP2 MSTORE SWAP9 DUP10 SWAP6 DUP7 SWAP5 DUP6 SWAP4 PUSH1 0x4 DUP6 ADD PUSH2 0x3F46 JUMP JUMPDEST SUB SWAP3 PUSH1 0x1 PUSH1 0x1 PUSH1 0xA0 SHL SUB AND GAS CALL SWAP3 DUP4 ISZERO PUSH2 0x1FD2 JUMPI PUSH0 SWAP4 PUSH2 0x407B JUMPI JUMPDEST POP DUP3 ISZERO PUSH2 0x403F JUMPI POP POP SWAP1 JUMP JUMPDEST SWAP1 SWAP2 POP ISZERO PUSH2 0x4061 JUMPI PUSH2 0x4053 PUSH2 0x3A0 SWAP2 PUSH2 0x29EC JUMP JUMPDEST PUSH8 0xDE0B6B3A7640000 SWAP1 DIV SWAP1 JUMP JUMPDEST PUSH2 0x406D PUSH2 0x3A0 SWAP2 PUSH2 0x29C8 JUMP JUMPDEST PUSH8 0x120A871CC0020000 SWAP1 DIV SWAP1 JUMP JUMPDEST PUSH2 0x409E SWAP2 SWAP4 POP PUSH1 0x40 RETURNDATASIZE PUSH1 0x40 GT PUSH2 0x40A6 JUMPI JUMPDEST PUSH2 0x4096 DUP2 DUP4 PUSH2 0x2D3 JUMP JUMPDEST DUP2 ADD SWAP1 PUSH2 0x3F30 JUMP JUMPDEST POP SWAP2 PUSH0 PUSH2 0x4033 JUMP JUMPDEST POP RETURNDATASIZE PUSH2 0x408C JUMP INVALID SHL RETURNDATASIZE PUSH31 0xDB2E9C0B0E7C525B20AAAEF0F5940D2ED71663C7D39266ECAFAC728859A264 PUSH10 0x70667358221220D14494 EXTSTATICCALL EXTDELEGATECALL DUP12 0x2C PUSH20 0xE106A3C21181793449CDDBC3A9A8AE20F1EFC80A ADD PUSH8 0x69F64736F6C6343 STOP ADDMOD 0x1E STOP CALLER "},"methodIdentifiers":{"addAlphaMarketAddress(uint8,address)":"460c6df8","addBetaMarketAddress(uint8,address)":"7dc27c95","addLiquidity(address,address,address,bytes3,uint256,uint256)":"e513315b","allowance(address,address,uint256)":"598af9e7","approve(address,uint256,uint256)":"426a8493","balanceOf(address,uint256)":"00fdd58e","batchSwap((address,address,address,bytes3[],uint256[],bool)[],uint256,uint256)":"9d2ec6e4","createPool(address,address,address,bytes3)":"5670f55a","defaultAlpha()":"a1a44dad","defaultBeta()":"19920a5f","flashSession(address,bytes,address[])":"5dfb78af","getAlphaMarketAddress(uint8)":"d2615fc8","getBetaMarketAddress(uint8)":"83e66c2e","getInventory(uint256)":"5b298d32","getPoolInfo(uint256)":"2f380b35","getQuote((address,address,address,uint256[],bool,bytes3[]),uint128,uint128)":"60a80dbb","getQuoteBatch((address,address,address,uint256[],bool,bytes3[]),uint128[],uint128[])":"04f71ef6","isOperator(address,address)":"b6363cf2","removeAlphaMarketAddress(uint8)":"8e832e08","removeBetaMarketAddress(uint8)":"61408f26","removeLiquidity(address,address,address,bytes3,uint256)":"cb1f2f38","routerGetQuote((address,address,address,uint256[],bool,bytes3[]),uint128,uint128)":"8f155291","routerGetQuoteBatch((address,address,address,uint256[],bool,bytes3[]),uint128[],uint128[])":"c279171d","setOperator(address,bool)":"558a7297","supportsInterface(bytes4)":"01ffc9a7","swap(address,address,address,bytes3,uint256,bool,uint256)":"d92bc84c","totalLiquidity(uint256)":"b5e60c3c","transfer(address,uint256,uint256)":"095bcdb6","transferFrom(address,address,uint256,uint256)":"fe99049a"}}}}}