{"contracts/DataBridges/AlphaDataBridgeAdapter.sol":{"AlphaDataBridgeAdapter":{"abi":[{"inputs":[{"internalType":"address","name":"_inner","type":"address"},{"internalType":"address","name":"_forcedAsset0","type":"address"},{"internalType":"address","name":"_forcedAsset1","type":"address"}],"stateMutability":"nonpayable","type":"constructor"},{"inputs":[],"name":"forcedAsset0","outputs":[{"internalType":"address","name":"","type":"address"}],"stateMutability":"view","type":"function"},{"inputs":[],"name":"forcedAsset1","outputs":[{"internalType":"address","name":"","type":"address"}],"stateMutability":"view","type":"function"},{"inputs":[{"components":[{"internalType":"address","name":"asset0","type":"address"},{"internalType":"address","name":"asset1","type":"address"},{"internalType":"address","name":"quoter","type":"address"},{"internalType":"uint256","name":"amount","type":"uint256"},{"internalType":"uint128","name":"asset0Balance","type":"uint128"},{"internalType":"uint128","name":"asset1Balance","type":"uint128"},{"internalType":"uint16","name":"bucketID","type":"uint16"},{"internalType":"bool","name":"zeroForOne","type":"bool"}],"internalType":"struct QuoteParams","name":"params","type":"tuple"}],"name":"getData","outputs":[{"internalType":"bytes","name":"","type":"bytes"}],"stateMutability":"nonpayable","type":"function"},{"inputs":[],"name":"inner","outputs":[{"internalType":"address","name":"","type":"address"}],"stateMutability":"view","type":"function"}],"evm":{"bytecode":{"linkReferences":{},"object":"60e0346100a757601f61053c38819003918201601f19168301916001600160401b038311848410176100ab578084926060946040528339810103126100a757610047816100bf565b906100606040610059602084016100bf565b92016100bf565b9160805260a05260c05260405161046890816100d4823960805181818160a501526102a4015260a051818181605d01526101c8015260c0518181816101ed01526103c40152f35b5f80fd5b634e487b7160e01b5f52604160045260245ffd5b51906001600160a01b03821682036100a75756fe6080806040526004361015610012575f80fd5b5f3560e01c908163292a02b1146103b2575080633bd1104b146100d45780634adb7729146100905763810eff9214610048575f80fd5b3461008c575f36600319011261008c576040517f00000000000000000000000000000000000000000000000000000000000000006001600160a01b03168152602090f35b5f80fd5b3461008c575f36600319011261008c576040517f00000000000000000000000000000000000000000000000000000000000000006001600160a01b03168152602090f35b3461008c5761010036600319011261008c576040516100f2816103f3565b6004356001600160a01b038116810361008c5781526024356001600160a01b038116810361008c5760208201526044356001600160a01b038116919082810361008c576040820152606435806060830152608435916001600160801b0383169283810361008c57608082015260a435906001600160801b0382169182810361008c5760a082015260c4359161ffff83169283810361008c5760c083015260e435918215159586840361008c5761ffff956001600160801b039460e086940152604051986101be8a6103f3565b6001600160a01b037f000000000000000000000000000000000000000000000000000000000000000081168b527f0000000000000000000000000000000000000000000000000000000000000000811660208c019081526040808d0193845260608d0194855260808d0195865260a08d0197885260c08d01998a5260e08d019b8c5251633bd1104b60e01b81529b51821660048d015251811660248c01529051811660448b0152905160648a0152905191909116608488015290519190911660a486015290519190911660c48401529051151560e48301525f90829061010490829084907f0000000000000000000000000000000000000000000000000000000000000000165af19081156103a7575f91610305575b6020604083815192839181835280519182918282860152018484015e5f828201840152601f01601f19168101030190f35b90503d805f833e6103168183610410565b81019060208183031261008c5780519067ffffffffffffffff821161008c570181601f8201121561008c5780519167ffffffffffffffff8311610393576040519061036b601f8501601f191660200183610410565b8382526020848401011161008c575f602084819582604096018386015e8301015291506102d4565b634e487b7160e01b5f52604160045260245ffd5b6040513d5f823e3d90fd5b3461008c575f36600319011261008c577f00000000000000000000000000000000000000000000000000000000000000006001600160a01b03168152602090f35b610100810190811067ffffffffffffffff82111761039357604052565b90601f8019910116810190811067ffffffffffffffff8211176103935760405256fea2646970667358221220fe11ae3682606a39038cf0961fe866788d7825c48b7c9595183d17d1e4317b0264736f6c634300081e0033","opcodes":"PUSH1 0xE0 CALLVALUE PUSH2 0xA7 JUMPI PUSH1 0x1F PUSH2 0x53C CODESIZE DUP2 SWAP1 SUB SWAP2 DUP3 ADD PUSH1 0x1F NOT AND DUP4 ADD SWAP2 PUSH1 0x1 PUSH1 0x1 PUSH1 0x40 SHL SUB DUP4 GT DUP5 DUP5 LT OR PUSH2 0xAB JUMPI DUP1 DUP5 SWAP3 PUSH1 0x60 SWAP5 PUSH1 0x40 MSTORE DUP4 CODECOPY DUP2 ADD SUB SLT PUSH2 0xA7 JUMPI PUSH2 0x47 DUP2 PUSH2 0xBF JUMP JUMPDEST SWAP1 PUSH2 0x60 PUSH1 0x40 PUSH2 0x59 PUSH1 0x20 DUP5 ADD PUSH2 0xBF JUMP JUMPDEST SWAP3 ADD PUSH2 0xBF JUMP JUMPDEST SWAP2 PUSH1 0x80 MSTORE PUSH1 0xA0 MSTORE PUSH1 0xC0 MSTORE PUSH1 0x40 MLOAD PUSH2 0x468 SWAP1 DUP2 PUSH2 0xD4 DUP3 CODECOPY PUSH1 0x80 MLOAD DUP2 DUP2 DUP2 PUSH1 0xA5 ADD MSTORE PUSH2 0x2A4 ADD MSTORE PUSH1 0xA0 MLOAD DUP2 DUP2 DUP2 PUSH1 0x5D ADD MSTORE PUSH2 0x1C8 ADD MSTORE PUSH1 0xC0 MLOAD DUP2 DUP2 DUP2 PUSH2 0x1ED ADD MSTORE PUSH2 0x3C4 ADD MSTORE RETURN JUMPDEST PUSH0 DUP1 REVERT JUMPDEST PUSH4 0x4E487B71 PUSH1 0xE0 SHL PUSH0 MSTORE PUSH1 0x41 PUSH1 0x4 MSTORE PUSH1 0x24 PUSH0 REVERT JUMPDEST MLOAD SWAP1 PUSH1 0x1 PUSH1 0x1 PUSH1 0xA0 SHL SUB DUP3 AND DUP3 SUB PUSH2 0xA7 JUMPI JUMP INVALID PUSH1 0x80 DUP1 PUSH1 0x40 MSTORE PUSH1 0x4 CALLDATASIZE LT ISZERO PUSH2 0x12 JUMPI PUSH0 DUP1 REVERT JUMPDEST PUSH0 CALLDATALOAD PUSH1 0xE0 SHR SWAP1 DUP2 PUSH4 0x292A02B1 EQ PUSH2 0x3B2 JUMPI POP DUP1 PUSH4 0x3BD1104B EQ PUSH2 0xD4 JUMPI DUP1 PUSH4 0x4ADB7729 EQ PUSH2 0x90 JUMPI PUSH4 0x810EFF92 EQ PUSH2 0x48 JUMPI PUSH0 DUP1 REVERT JUMPDEST CALLVALUE PUSH2 0x8C JUMPI PUSH0 CALLDATASIZE PUSH1 0x3 NOT ADD SLT PUSH2 0x8C JUMPI PUSH1 0x40 MLOAD PUSH32 0x0 PUSH1 0x1 PUSH1 0x1 PUSH1 0xA0 SHL SUB AND DUP2 MSTORE PUSH1 0x20 SWAP1 RETURN JUMPDEST PUSH0 DUP1 REVERT JUMPDEST CALLVALUE PUSH2 0x8C JUMPI PUSH0 CALLDATASIZE PUSH1 0x3 NOT ADD SLT PUSH2 0x8C JUMPI PUSH1 0x40 MLOAD PUSH32 0x0 PUSH1 0x1 PUSH1 0x1 PUSH1 0xA0 SHL SUB AND DUP2 MSTORE PUSH1 0x20 SWAP1 RETURN JUMPDEST CALLVALUE PUSH2 0x8C JUMPI PUSH2 0x100 CALLDATASIZE PUSH1 0x3 NOT ADD SLT PUSH2 0x8C JUMPI PUSH1 0x40 MLOAD PUSH2 0xF2 DUP2 PUSH2 0x3F3 JUMP JUMPDEST PUSH1 0x4 CALLDATALOAD PUSH1 0x1 PUSH1 0x1 PUSH1 0xA0 SHL SUB DUP2 AND DUP2 SUB PUSH2 0x8C JUMPI DUP2 MSTORE PUSH1 0x24 CALLDATALOAD PUSH1 0x1 PUSH1 0x1 PUSH1 0xA0 SHL SUB DUP2 AND DUP2 SUB PUSH2 0x8C JUMPI PUSH1 0x20 DUP3 ADD MSTORE PUSH1 0x44 CALLDATALOAD PUSH1 0x1 PUSH1 0x1 PUSH1 0xA0 SHL SUB DUP2 AND SWAP2 SWAP1 DUP3 DUP2 SUB PUSH2 0x8C JUMPI PUSH1 0x40 DUP3 ADD MSTORE PUSH1 0x64 CALLDATALOAD DUP1 PUSH1 0x60 DUP4 ADD MSTORE PUSH1 0x84 CALLDATALOAD SWAP2 PUSH1 0x1 PUSH1 0x1 PUSH1 0x80 SHL SUB DUP4 AND SWAP3 DUP4 DUP2 SUB PUSH2 0x8C JUMPI PUSH1 0x80 DUP3 ADD MSTORE PUSH1 0xA4 CALLDATALOAD SWAP1 PUSH1 0x1 PUSH1 0x1 PUSH1 0x80 SHL SUB DUP3 AND SWAP2 DUP3 DUP2 SUB PUSH2 0x8C JUMPI PUSH1 0xA0 DUP3 ADD MSTORE PUSH1 0xC4 CALLDATALOAD SWAP2 PUSH2 0xFFFF DUP4 AND SWAP3 DUP4 DUP2 SUB PUSH2 0x8C JUMPI PUSH1 0xC0 DUP4 ADD MSTORE PUSH1 0xE4 CALLDATALOAD SWAP2 DUP3 ISZERO ISZERO SWAP6 DUP7 DUP5 SUB PUSH2 0x8C JUMPI PUSH2 0xFFFF SWAP6 PUSH1 0x1 PUSH1 0x1 PUSH1 0x80 SHL SUB SWAP5 PUSH1 0xE0 DUP7 SWAP5 ADD MSTORE PUSH1 0x40 MLOAD SWAP9 PUSH2 0x1BE DUP11 PUSH2 0x3F3 JUMP JUMPDEST PUSH1 0x1 PUSH1 0x1 PUSH1 0xA0 SHL SUB PUSH32 0x0 DUP2 AND DUP12 MSTORE PUSH32 0x0 DUP2 AND PUSH1 0x20 DUP13 ADD SWAP1 DUP2 MSTORE PUSH1 0x40 DUP1 DUP14 ADD SWAP4 DUP5 MSTORE PUSH1 0x60 DUP14 ADD SWAP5 DUP6 MSTORE PUSH1 0x80 DUP14 ADD SWAP6 DUP7 MSTORE PUSH1 0xA0 DUP14 ADD SWAP8 DUP9 MSTORE PUSH1 0xC0 DUP14 ADD SWAP10 DUP11 MSTORE PUSH1 0xE0 DUP14 ADD SWAP12 DUP13 MSTORE MLOAD PUSH4 0x3BD1104B PUSH1 0xE0 SHL DUP2 MSTORE SWAP12 MLOAD DUP3 AND PUSH1 0x4 DUP14 ADD MSTORE MLOAD DUP2 AND PUSH1 0x24 DUP13 ADD MSTORE SWAP1 MLOAD DUP2 AND PUSH1 0x44 DUP12 ADD MSTORE SWAP1 MLOAD PUSH1 0x64 DUP11 ADD MSTORE SWAP1 MLOAD SWAP2 SWAP1 SWAP2 AND PUSH1 0x84 DUP9 ADD MSTORE SWAP1 MLOAD SWAP2 SWAP1 SWAP2 AND PUSH1 0xA4 DUP7 ADD MSTORE SWAP1 MLOAD SWAP2 SWAP1 SWAP2 AND PUSH1 0xC4 DUP5 ADD MSTORE SWAP1 MLOAD ISZERO ISZERO PUSH1 0xE4 DUP4 ADD MSTORE PUSH0 SWAP1 DUP3 SWAP1 PUSH2 0x104 SWAP1 DUP3 SWAP1 DUP5 SWAP1 PUSH32 0x0 AND GAS CALL SWAP1 DUP2 ISZERO PUSH2 0x3A7 JUMPI PUSH0 SWAP2 PUSH2 0x305 JUMPI JUMPDEST PUSH1 0x20 PUSH1 0x40 DUP4 DUP2 MLOAD SWAP3 DUP4 SWAP2 DUP2 DUP4 MSTORE DUP1 MLOAD SWAP2 DUP3 SWAP2 DUP3 DUP3 DUP7 ADD MSTORE ADD DUP5 DUP5 ADD MCOPY PUSH0 DUP3 DUP3 ADD DUP5 ADD MSTORE PUSH1 0x1F ADD PUSH1 0x1F NOT AND DUP2 ADD SUB ADD SWAP1 RETURN JUMPDEST SWAP1 POP RETURNDATASIZE DUP1 PUSH0 DUP4 RETURNDATACOPY PUSH2 0x316 DUP2 DUP4 PUSH2 0x410 JUMP JUMPDEST DUP2 ADD SWAP1 PUSH1 0x20 DUP2 DUP4 SUB SLT PUSH2 0x8C JUMPI DUP1 MLOAD SWAP1 PUSH8 0xFFFFFFFFFFFFFFFF DUP3 GT PUSH2 0x8C JUMPI ADD DUP2 PUSH1 0x1F DUP3 ADD SLT ISZERO PUSH2 0x8C JUMPI DUP1 MLOAD SWAP2 PUSH8 0xFFFFFFFFFFFFFFFF DUP4 GT PUSH2 0x393 JUMPI PUSH1 0x40 MLOAD SWAP1 PUSH2 0x36B PUSH1 0x1F DUP6 ADD PUSH1 0x1F NOT AND PUSH1 0x20 ADD DUP4 PUSH2 0x410 JUMP JUMPDEST DUP4 DUP3 MSTORE PUSH1 0x20 DUP5 DUP5 ADD ADD GT PUSH2 0x8C JUMPI PUSH0 PUSH1 0x20 DUP5 DUP2 SWAP6 DUP3 PUSH1 0x40 SWAP7 ADD DUP4 DUP7 ADD MCOPY DUP4 ADD ADD MSTORE SWAP2 POP PUSH2 0x2D4 JUMP JUMPDEST PUSH4 0x4E487B71 PUSH1 0xE0 SHL PUSH0 MSTORE PUSH1 0x41 PUSH1 0x4 MSTORE PUSH1 0x24 PUSH0 REVERT JUMPDEST PUSH1 0x40 MLOAD RETURNDATASIZE PUSH0 DUP3 RETURNDATACOPY RETURNDATASIZE SWAP1 REVERT JUMPDEST CALLVALUE PUSH2 0x8C JUMPI PUSH0 CALLDATASIZE PUSH1 0x3 NOT ADD SLT PUSH2 0x8C JUMPI PUSH32 0x0 PUSH1 0x1 PUSH1 0x1 PUSH1 0xA0 SHL SUB AND DUP2 MSTORE PUSH1 0x20 SWAP1 RETURN JUMPDEST PUSH2 0x100 DUP2 ADD SWAP1 DUP2 LT PUSH8 0xFFFFFFFFFFFFFFFF DUP3 GT OR PUSH2 0x393 JUMPI PUSH1 0x40 MSTORE JUMP JUMPDEST SWAP1 PUSH1 0x1F DUP1 NOT SWAP2 ADD AND DUP2 ADD SWAP1 DUP2 LT PUSH8 0xFFFFFFFFFFFFFFFF DUP3 GT OR PUSH2 0x393 JUMPI PUSH1 0x40 MSTORE JUMP INVALID LOG2 PUSH5 0x6970667358 0x22 SLT KECCAK256 INVALID GT 0xAE CALLDATASIZE DUP3 PUSH1 0x6A CODECOPY SUB DUP13 CREATE SWAP7 0x1F 0xE8 PUSH7 0x788D7825C48B7C SWAP6 SWAP6 XOR RETURNDATASIZE OR DATALOADN 0xE431 PUSH28 0x264736F6C634300081E003300000000000000000000000000000000 "},"methodIdentifiers":{"forcedAsset0()":"810eff92","forcedAsset1()":"292a02b1","getData((address,address,address,uint256,uint128,uint128,uint16,bool))":"3bd1104b","inner()":"4adb7729"}}}}}