{"contracts/DataBridges/MockAlphaDataBridge.sol":{"MockAlphaDataBridge":{"abi":[{"inputs":[{"internalType":"uint256","name":"_spotPrice","type":"uint256"},{"internalType":"uint256","name":"_twapPrice","type":"uint256"}],"stateMutability":"nonpayable","type":"constructor"},{"inputs":[{"components":[{"internalType":"address","name":"asset0","type":"address"},{"internalType":"address","name":"asset1","type":"address"},{"internalType":"address","name":"quoter","type":"address"},{"internalType":"uint256","name":"amount","type":"uint256"},{"internalType":"uint128","name":"asset0Balance","type":"uint128"},{"internalType":"uint128","name":"asset1Balance","type":"uint128"},{"internalType":"uint16","name":"bucketID","type":"uint16"},{"internalType":"bool","name":"zeroForOne","type":"bool"}],"internalType":"struct QuoteParams","name":"","type":"tuple"}],"name":"getData","outputs":[{"internalType":"bytes","name":"","type":"bytes"}],"stateMutability":"view","type":"function"},{"inputs":[],"name":"spotPrice","outputs":[{"internalType":"uint256","name":"","type":"uint256"}],"stateMutability":"view","type":"function"},{"inputs":[],"name":"twapPrice","outputs":[{"internalType":"uint256","name":"","type":"uint256"}],"stateMutability":"view","type":"function"},{"inputs":[{"internalType":"uint256","name":"_spotPrice","type":"uint256"},{"internalType":"uint256","name":"_twapPrice","type":"uint256"}],"name":"updatePrices","outputs":[],"stateMutability":"nonpayable","type":"function"}],"evm":{"bytecode":{"linkReferences":{},"object":"608034605657601f61028b38819003918201601f19168301916001600160401b03831184841017605a57808492604094855283398101031260565760208151910151905f5560015560405161021c908161006f8239f35b5f80fd5b634e487b7160e01b5f52604160045260245ffdfe6080806040526004361015610012575f80fd5b5f3560e01c908163398482d8146101cd575080633bd1104b14610087578063a20a41cf1461006a5763ef88d7f014610048575f80fd5b34610066576040366003190112610066576004355f55602435600155005b5f80fd5b34610066575f366003190112610066576020600154604051908152f35b346100665761010036600319011261006657604051610100810181811067ffffffffffffffff8211176101b9576040526004356001600160a01b03811681036100665781526024356001600160a01b03811681036100665760208201526044356001600160a01b038116810361006657604082015260643560608201526084356001600160801b038116810361006657608082015260a4356001600160801b03811681036100665760a082015260c43561ffff811681036100665760c082015260e4359081151582036100665760e001525f546001546040519060208201928352604082015260408152606081019080821067ffffffffffffffff8311176101b95760409182528151928391602083525180918160208501528484015e5f828201840152601f01601f19168101030190f35b634e487b7160e01b5f52604160045260245ffd5b34610066575f366003190112610066576020905f548152f3fea2646970667358221220c8cad80b07eb1ab5e7c1d9e76b0fed655c5d171083b810d8c023db6cb098ecfc64736f6c634300081e0033","opcodes":"PUSH1 0x80 CALLVALUE PUSH1 0x56 JUMPI PUSH1 0x1F PUSH2 0x28B CODESIZE DUP2 SWAP1 SUB SWAP2 DUP3 ADD PUSH1 0x1F NOT AND DUP4 ADD SWAP2 PUSH1 0x1 PUSH1 0x1 PUSH1 0x40 SHL SUB DUP4 GT DUP5 DUP5 LT OR PUSH1 0x5A JUMPI DUP1 DUP5 SWAP3 PUSH1 0x40 SWAP5 DUP6 MSTORE DUP4 CODECOPY DUP2 ADD SUB SLT PUSH1 0x56 JUMPI PUSH1 0x20 DUP2 MLOAD SWAP2 ADD MLOAD SWAP1 PUSH0 SSTORE PUSH1 0x1 SSTORE PUSH1 0x40 MLOAD PUSH2 0x21C SWAP1 DUP2 PUSH2 0x6F DUP3 CODECOPY RETURN JUMPDEST PUSH0 DUP1 REVERT JUMPDEST PUSH4 0x4E487B71 PUSH1 0xE0 SHL PUSH0 MSTORE PUSH1 0x41 PUSH1 0x4 MSTORE PUSH1 0x24 PUSH0 REVERT INVALID PUSH1 0x80 DUP1 PUSH1 0x40 MSTORE PUSH1 0x4 CALLDATASIZE LT ISZERO PUSH2 0x12 JUMPI PUSH0 DUP1 REVERT JUMPDEST PUSH0 CALLDATALOAD PUSH1 0xE0 SHR SWAP1 DUP2 PUSH4 0x398482D8 EQ PUSH2 0x1CD JUMPI POP DUP1 PUSH4 0x3BD1104B EQ PUSH2 0x87 JUMPI DUP1 PUSH4 0xA20A41CF EQ PUSH2 0x6A JUMPI PUSH4 0xEF88D7F0 EQ PUSH2 0x48 JUMPI PUSH0 DUP1 REVERT JUMPDEST CALLVALUE PUSH2 0x66 JUMPI PUSH1 0x40 CALLDATASIZE PUSH1 0x3 NOT ADD SLT PUSH2 0x66 JUMPI PUSH1 0x4 CALLDATALOAD PUSH0 SSTORE PUSH1 0x24 CALLDATALOAD PUSH1 0x1 SSTORE STOP JUMPDEST PUSH0 DUP1 REVERT JUMPDEST CALLVALUE PUSH2 0x66 JUMPI PUSH0 CALLDATASIZE PUSH1 0x3 NOT ADD SLT PUSH2 0x66 JUMPI PUSH1 0x20 PUSH1 0x1 SLOAD PUSH1 0x40 MLOAD SWAP1 DUP2 MSTORE RETURN JUMPDEST CALLVALUE PUSH2 0x66 JUMPI PUSH2 0x100 CALLDATASIZE PUSH1 0x3 NOT ADD SLT PUSH2 0x66 JUMPI PUSH1 0x40 MLOAD PUSH2 0x100 DUP2 ADD DUP2 DUP2 LT PUSH8 0xFFFFFFFFFFFFFFFF DUP3 GT OR PUSH2 0x1B9 JUMPI PUSH1 0x40 MSTORE PUSH1 0x4 CALLDATALOAD PUSH1 0x1 PUSH1 0x1 PUSH1 0xA0 SHL SUB DUP2 AND DUP2 SUB PUSH2 0x66 JUMPI DUP2 MSTORE PUSH1 0x24 CALLDATALOAD PUSH1 0x1 PUSH1 0x1 PUSH1 0xA0 SHL SUB DUP2 AND DUP2 SUB PUSH2 0x66 JUMPI PUSH1 0x20 DUP3 ADD MSTORE PUSH1 0x44 CALLDATALOAD PUSH1 0x1 PUSH1 0x1 PUSH1 0xA0 SHL SUB DUP2 AND DUP2 SUB PUSH2 0x66 JUMPI PUSH1 0x40 DUP3 ADD MSTORE PUSH1 0x64 CALLDATALOAD PUSH1 0x60 DUP3 ADD MSTORE PUSH1 0x84 CALLDATALOAD PUSH1 0x1 PUSH1 0x1 PUSH1 0x80 SHL SUB DUP2 AND DUP2 SUB PUSH2 0x66 JUMPI PUSH1 0x80 DUP3 ADD MSTORE PUSH1 0xA4 CALLDATALOAD PUSH1 0x1 PUSH1 0x1 PUSH1 0x80 SHL SUB DUP2 AND DUP2 SUB PUSH2 0x66 JUMPI PUSH1 0xA0 DUP3 ADD MSTORE PUSH1 0xC4 CALLDATALOAD PUSH2 0xFFFF DUP2 AND DUP2 SUB PUSH2 0x66 JUMPI PUSH1 0xC0 DUP3 ADD MSTORE PUSH1 0xE4 CALLDATALOAD SWAP1 DUP2 ISZERO ISZERO DUP3 SUB PUSH2 0x66 JUMPI PUSH1 0xE0 ADD MSTORE PUSH0 SLOAD PUSH1 0x1 SLOAD PUSH1 0x40 MLOAD SWAP1 PUSH1 0x20 DUP3 ADD SWAP3 DUP4 MSTORE PUSH1 0x40 DUP3 ADD MSTORE PUSH1 0x40 DUP2 MSTORE PUSH1 0x60 DUP2 ADD SWAP1 DUP1 DUP3 LT PUSH8 0xFFFFFFFFFFFFFFFF DUP4 GT OR PUSH2 0x1B9 JUMPI PUSH1 0x40 SWAP2 DUP3 MSTORE DUP2 MLOAD SWAP3 DUP4 SWAP2 PUSH1 0x20 DUP4 MSTORE MLOAD DUP1 SWAP2 DUP2 PUSH1 0x20 DUP6 ADD MSTORE DUP5 DUP5 ADD MCOPY PUSH0 DUP3 DUP3 ADD DUP5 ADD MSTORE PUSH1 0x1F ADD PUSH1 0x1F NOT AND DUP2 ADD SUB ADD SWAP1 RETURN JUMPDEST PUSH4 0x4E487B71 PUSH1 0xE0 SHL PUSH0 MSTORE PUSH1 0x41 PUSH1 0x4 MSTORE PUSH1 0x24 PUSH0 REVERT JUMPDEST CALLVALUE PUSH2 0x66 JUMPI PUSH0 CALLDATASIZE PUSH1 0x3 NOT ADD SLT PUSH2 0x66 JUMPI PUSH1 0x20 SWAP1 PUSH0 SLOAD DUP2 MSTORE RETURN INVALID LOG2 PUSH5 0x6970667358 0x22 SLT KECCAK256 0xC8 0xCA 0xD8 SIGNEXTEND SMOD 0xEB BYTE 0xB5 SWAPN 0xC1 0xD9 SWAPN 0x6B 0xF 0xED PUSH6 0x5C5D171083B8 LT 0xD8 0xC0 0x23 0xDB PUSH13 0xB098ECFC64736F6C634300081E STOP CALLER "},"methodIdentifiers":{"getData((address,address,address,uint256,uint128,uint128,uint16,bool))":"3bd1104b","spotPrice()":"398482d8","twapPrice()":"a20a41cf","updatePrices(uint256,uint256)":"ef88d7f0"}}}}}