{"contracts/DataBridges/AlphaDataBridgeOnchainAggregator.sol":{"AlphaDataBridgeOnchainAggregator":{"abi":[{"inputs":[{"components":[{"internalType":"address","name":"pool","type":"address"},{"internalType":"uint8","name":"kind","type":"uint8"},{"internalType":"uint24","name":"v3TwapWindow","type":"uint24"}],"internalType":"struct AlphaDataBridgeOnchainAggregator.PoolConfig","name":"_a","type":"tuple"},{"components":[{"internalType":"address","name":"pool","type":"address"},{"internalType":"uint8","name":"kind","type":"uint8"},{"internalType":"uint24","name":"v3TwapWindow","type":"uint24"}],"internalType":"struct AlphaDataBridgeOnchainAggregator.PoolConfig","name":"_b","type":"tuple"},{"components":[{"internalType":"address","name":"pool","type":"address"},{"internalType":"uint8","name":"kind","type":"uint8"},{"internalType":"uint24","name":"v3TwapWindow","type":"uint24"}],"internalType":"struct AlphaDataBridgeOnchainAggregator.PoolConfig","name":"_c","type":"tuple"}],"stateMutability":"nonpayable","type":"constructor"},{"inputs":[],"name":"dexA","outputs":[{"internalType":"address","name":"pool","type":"address"},{"internalType":"uint8","name":"kind","type":"uint8"},{"internalType":"uint24","name":"v3TwapWindow","type":"uint24"}],"stateMutability":"view","type":"function"},{"inputs":[],"name":"dexB","outputs":[{"internalType":"address","name":"pool","type":"address"},{"internalType":"uint8","name":"kind","type":"uint8"},{"internalType":"uint24","name":"v3TwapWindow","type":"uint24"}],"stateMutability":"view","type":"function"},{"inputs":[],"name":"dexC","outputs":[{"internalType":"address","name":"pool","type":"address"},{"internalType":"uint8","name":"kind","type":"uint8"},{"internalType":"uint24","name":"v3TwapWindow","type":"uint24"}],"stateMutability":"view","type":"function"},{"inputs":[{"components":[{"internalType":"address","name":"asset0","type":"address"},{"internalType":"address","name":"asset1","type":"address"},{"internalType":"address","name":"quoter","type":"address"},{"internalType":"uint256","name":"amount","type":"uint256"},{"internalType":"uint128","name":"asset0Balance","type":"uint128"},{"internalType":"uint128","name":"asset1Balance","type":"uint128"},{"internalType":"uint16","name":"bucketID","type":"uint16"},{"internalType":"bool","name":"zeroForOne","type":"bool"}],"internalType":"struct QuoteParams","name":"params","type":"tuple"}],"name":"getData","outputs":[{"internalType":"bytes","name":"","type":"bytes"}],"stateMutability":"view","type":"function"}],"evm":{"bytecode":{"linkReferences":{},"object":"60806040523461011757604051610dea3881900390601f8201601f19168301906001600160401b0382118483101761011b5782916040528339810190610120818303126101175761006a610053838361012f565b9260c0610063826060860161012f565b930161012f565b82515f805460208087015160409788015162ffffff60a81b60a891821b811660ff60a01b60a094851b81166001600160a01b03998a166001600160c01b03199889161717919091179096558851600180548b8701519b8d0151851b84169b861b8916928a1690881617919091179990991790985586516002805494890151988b015190921b9098169690911b909316959093169216919091179290921717905551610c4d908161019d8239f35b5f80fd5b634e487b7160e01b5f52604160045260245ffd5b919082606091031261011757604051606081016001600160401b0381118282101761011b576040528251909283916001600160a01b038116810361011757825260208101519060ff8216820361011757604091602084015201519062ffffff82168203610117576040015256fe6080806040526004361015610012575f80fd5b5f3560e01c908163027fa4751461034b575080633bd1104b146100d35780634c02a7a7146100905763fa29e6b114610048575f80fd5b3461008c575f36600319011261008c57600154604080516001600160a01b038316815260a083901c60ff16602082015260a89290921c62ffffff1690820152606090f35b5f80fd5b3461008c575f36600319011261008c575f54604080516001600160a01b038316815260a083901c60ff16602082015260a89290921c62ffffff1690820152606090f35b3461008c5761010036600319011261008c57604051610100810181811067ffffffffffffffff821117610337576040526004356001600160a01b038116810361008c5781526024356001600160a01b038116810361008c5760208201526044356001600160a01b038116810361008c57604082015260643560608201526084356001600160801b038116810361008c57608082015260a4356001600160801b038116810361008c5760a082015260c43561ffff8116810361008c5760c082015260e435801515810361008c5760e082015260406102fe61030c6101e78484516101bb81610389565b5f546001600160a01b038116825260a081901c60ff16602083015260a81c62ffffff1686820152610453565b6102616102268787516101f981610389565b6001546001600160a01b038116825260a081901c60ff16602083015260a81c62ffffff1689820152610453565b919097875161023481610389565b6002546001600160a01b038116825260a081901c60ff16602083015260a81c62ffffff1689820152610453565b929087519861027160808b6103a5565b60038a52606095863660208d013789519661028d6080896103a5565b600388523660208901376102a08b6103df565b526102aa8a610400565b526102b489610410565b526102be846103df565b526102c883610400565b526102d282610410565b5283519283916102ed60208401978789526060850190610420565b838103601f19018785015290610420565b03601f1981018352826103a5565b8151928391602083525180918160208501528484015e5f828201840152601f01601f19168101030190f35b634e487b7160e01b5f52604160045260245ffd5b3461008c575f36600319011261008c576002546001600160a01b038116825260a081901c60ff16602083015260a81c62ffffff166040820152606090f35b6060810190811067ffffffffffffffff82111761033757604052565b90601f8019910116810190811067ffffffffffffffff82111761033757604052565b67ffffffffffffffff81116103375760051b60200190565b8051156103ec5760200190565b634e487b7160e01b5f52603260045260245ffd5b8051600110156103ec5760400190565b8051600210156103ec5760600190565b90602080835192838152019201905f5b81811061043d5750505090565b8251845260209384019390920191600101610430565b9060ff602083015116600281145f1461068157509051604051630240bc6b60e21b81526001600160a01b0390911690606081600481855afa908115610585575f905f92610622575b506001600160701b0316908115801580610610575b156105da57670de0b6b3a76400008302928304670de0b6b3a76400001417156105c6576001600160701b03169081156105b257049060405192630dfe168160e01b8452602084600481855afa918215610585576004945f93610590575b506020906040519586809263d21220a760e01b82525afa801561058557610552945f91610556575b5081516020909201516001600160a01b0390811693921691610b5a565b8091565b610578915060203d60201161057e575b61057081836103a5565b810190610a4f565b5f610535565b503d610566565b6040513d5f823e3d90fd5b60209193506105ab90823d841161057e5761057081836103a5565b929061050d565b634e487b7160e01b5f52601260045260245ffd5b634e487b7160e01b5f52601160045260245ffd5b60405162461bcd60e51b815260206004820152600e60248201526d656d70747920726573657276657360901b6044820152606490fd5b506001600160701b03821615156104b0565b9150506060813d606011610679575b8161063e606093836103a5565b8101031261008c5761064f81610a6e565b604061065d60208401610a6e565b92015163ffffffff81160361008c576001600160701b0361049b565b3d9150610631565b6003036109ef5762ffffff604060018060a01b038451169301511690604051633850c7bd60e01b815260e081600481875afa908115610585575f91610963575b506106de906106d9906001600160a01b031680610a82565b610afa565b604051630dfe168160e01b8152602081600481885afa908115610585575f91610944575b5060405163d21220a760e01b815292602084600481895afa801561058557610747945f91610556575081516020909201516001600160a01b0390811693921691610b5a565b91811561093b575b60405161075d6060826103a5565b60028152602081019262ffffff9060403686371661077a826103df565b525f61078582610400565b5260405163883bdbfd60e01b815260206004820152905160248201819052909283916044830191905f5b81811061091c575050509181805f9403915afa908115610585575f9161080b575b506107e76107dd82610400565b5160060b916103df565b5160060b9003667fffffffffffff811390667fffffffffffff1913176105c6578091565b90503d805f833e61081c81836103a5565b810160408282031261008c57815167ffffffffffffffff811161008c5782019181601f8401121561008c578251610852816103c7565b9361086060405195866103a5565b81855260208086019260051b8201019084821161008c57602001915b8183106109025750505060208101519067ffffffffffffffff821161008c570181601f8201121561008c578051906020806108b6846103c7565b6108c360405191826103a5565b848152019260051b82010192831161008c57602001905b8282106108ea575050505f6107d0565b602080916108f784610a2c565b8152019101906108da565b82518060060b810361008c5781526020928301920161087c565b825163ffffffff168452869450602093840193909201916001016107af565b603c915061074f565b61095d915060203d60201161057e5761057081836103a5565b5f610702565b905060e0813d60e0116109e7575b8161097e60e093836103a5565b8101031261008c5761098f81610a2c565b9060208101518060020b0361008c576109aa60408201610a40565b506109b760608201610a40565b506109c460808201610a40565b5060a081015160ff81160361008c5760c001518015150361008c576106d96106c1565b3d9150610971565b60405162461bcd60e51b81526020600482015260156024820152741d5b9cdd5c1c1bdc9d1959081c1bdbdb081ada5b99605a1b6044820152606490fd5b51906001600160a01b038216820361008c57565b519061ffff8216820361008c57565b9081602091031261008c57516001600160a01b038116810361008c5790565b51906001600160701b038216820361008c57565b5f198282099082810292838084109303928084039314610af157600160601b831015610ac157600160601b910990828211900360a01b910360601c1790565b60405162461bcd60e51b81526020600482015260086024820152676f766572666c6f7760c01b6044820152606490fd5b50505060601c90565b5f19670de0b6b3a76400008209670de0b6b3a7640000820291828083109203918083039214610b5257600160601b821015610ac157600160601b90670de0b6b3a7640000900990828211900360a01b910360601c1790565b505060601c90565b90926001600160a01b03928316929091169081831480610c02575b15610b81575050505090565b6001600160a01b0316149182610bef575b505015610bb35780156105b2576ec097ce7bc90715b34b9f10000000000490565b60405162461bcd60e51b81526020600482015260146024820152730e0c2d2e440e8ded6cadce640dad2e6dac2e8c6d60631b6044820152606490fd5b6001600160a01b03161490505f80610b92565b506001600160a01b0384811690821614610b7556fea26469706673582212205e5f2d7a79ccd77e87ea1e1995e4ca1510007cc8ead703a28aa1fe700a21307b64736f6c634300081e0033","opcodes":"PUSH1 0x80 PUSH1 0x40 MSTORE CALLVALUE PUSH2 0x117 JUMPI PUSH1 0x40 MLOAD PUSH2 0xDEA CODESIZE DUP2 SWAP1 SUB SWAP1 PUSH1 0x1F DUP3 ADD PUSH1 0x1F NOT AND DUP4 ADD SWAP1 PUSH1 0x1 PUSH1 0x1 PUSH1 0x40 SHL SUB DUP3 GT DUP5 DUP4 LT OR PUSH2 0x11B JUMPI DUP3 SWAP2 PUSH1 0x40 MSTORE DUP4 CODECOPY DUP2 ADD SWAP1 PUSH2 0x120 DUP2 DUP4 SUB SLT PUSH2 0x117 JUMPI PUSH2 0x6A PUSH2 0x53 DUP4 DUP4 PUSH2 0x12F JUMP JUMPDEST SWAP3 PUSH1 0xC0 PUSH2 0x63 DUP3 PUSH1 0x60 DUP7 ADD PUSH2 0x12F JUMP JUMPDEST SWAP4 ADD PUSH2 0x12F JUMP JUMPDEST DUP3 MLOAD PUSH0 DUP1 SLOAD PUSH1 0x20 DUP1 DUP8 ADD MLOAD PUSH1 0x40 SWAP8 DUP9 ADD MLOAD PUSH3 0xFFFFFF PUSH1 0xA8 SHL PUSH1 0xA8 SWAP2 DUP3 SHL DUP2 AND PUSH1 0xFF PUSH1 0xA0 SHL PUSH1 0xA0 SWAP5 DUP6 SHL DUP2 AND PUSH1 0x1 PUSH1 0x1 PUSH1 0xA0 SHL SUB SWAP10 DUP11 AND PUSH1 0x1 PUSH1 0x1 PUSH1 0xC0 SHL SUB NOT SWAP9 DUP10 AND OR OR SWAP2 SWAP1 SWAP2 OR SWAP1 SWAP7 SSTORE DUP9 MLOAD PUSH1 0x1 DUP1 SLOAD DUP12 DUP8 ADD MLOAD SWAP12 DUP14 ADD MLOAD DUP6 SHL DUP5 AND SWAP12 DUP7 SHL DUP10 AND SWAP3 DUP11 AND SWAP1 DUP9 AND OR SWAP2 SWAP1 SWAP2 OR SWAP10 SWAP1 SWAP10 OR SWAP1 SWAP9 SSTORE DUP7 MLOAD PUSH1 0x2 DUP1 SLOAD SWAP5 DUP10 ADD MLOAD SWAP9 DUP12 ADD MLOAD SWAP1 SWAP3 SHL SWAP1 SWAP9 AND SWAP7 SWAP1 SWAP2 SHL SWAP1 SWAP4 AND SWAP6 SWAP1 SWAP4 AND SWAP3 AND SWAP2 SWAP1 SWAP2 OR SWAP3 SWAP1 SWAP3 OR OR SWAP1 SSTORE MLOAD PUSH2 0xC4D SWAP1 DUP2 PUSH2 0x19D DUP3 CODECOPY RETURN JUMPDEST PUSH0 DUP1 REVERT JUMPDEST PUSH4 0x4E487B71 PUSH1 0xE0 SHL PUSH0 MSTORE PUSH1 0x41 PUSH1 0x4 MSTORE PUSH1 0x24 PUSH0 REVERT JUMPDEST SWAP2 SWAP1 DUP3 PUSH1 0x60 SWAP2 SUB SLT PUSH2 0x117 JUMPI PUSH1 0x40 MLOAD PUSH1 0x60 DUP2 ADD PUSH1 0x1 PUSH1 0x1 PUSH1 0x40 SHL SUB DUP2 GT DUP3 DUP3 LT OR PUSH2 0x11B JUMPI PUSH1 0x40 MSTORE DUP3 MLOAD SWAP1 SWAP3 DUP4 SWAP2 PUSH1 0x1 PUSH1 0x1 PUSH1 0xA0 SHL SUB DUP2 AND DUP2 SUB PUSH2 0x117 JUMPI DUP3 MSTORE PUSH1 0x20 DUP2 ADD MLOAD SWAP1 PUSH1 0xFF DUP3 AND DUP3 SUB PUSH2 0x117 JUMPI PUSH1 0x40 SWAP2 PUSH1 0x20 DUP5 ADD MSTORE ADD MLOAD SWAP1 PUSH3 0xFFFFFF DUP3 AND DUP3 SUB PUSH2 0x117 JUMPI PUSH1 0x40 ADD MSTORE JUMP INVALID PUSH1 0x80 DUP1 PUSH1 0x40 MSTORE PUSH1 0x4 CALLDATASIZE LT ISZERO PUSH2 0x12 JUMPI PUSH0 DUP1 REVERT JUMPDEST PUSH0 CALLDATALOAD PUSH1 0xE0 SHR SWAP1 DUP2 PUSH4 0x27FA475 EQ PUSH2 0x34B JUMPI POP DUP1 PUSH4 0x3BD1104B EQ PUSH2 0xD3 JUMPI DUP1 PUSH4 0x4C02A7A7 EQ PUSH2 0x90 JUMPI PUSH4 0xFA29E6B1 EQ PUSH2 0x48 JUMPI PUSH0 DUP1 REVERT JUMPDEST CALLVALUE PUSH2 0x8C JUMPI PUSH0 CALLDATASIZE PUSH1 0x3 NOT ADD SLT PUSH2 0x8C JUMPI PUSH1 0x1 SLOAD PUSH1 0x40 DUP1 MLOAD PUSH1 0x1 PUSH1 0x1 PUSH1 0xA0 SHL SUB DUP4 AND DUP2 MSTORE PUSH1 0xA0 DUP4 SWAP1 SHR PUSH1 0xFF AND PUSH1 0x20 DUP3 ADD MSTORE PUSH1 0xA8 SWAP3 SWAP1 SWAP3 SHR PUSH3 0xFFFFFF AND SWAP1 DUP3 ADD MSTORE PUSH1 0x60 SWAP1 RETURN JUMPDEST PUSH0 DUP1 REVERT JUMPDEST CALLVALUE PUSH2 0x8C JUMPI PUSH0 CALLDATASIZE PUSH1 0x3 NOT ADD SLT PUSH2 0x8C JUMPI PUSH0 SLOAD PUSH1 0x40 DUP1 MLOAD PUSH1 0x1 PUSH1 0x1 PUSH1 0xA0 SHL SUB DUP4 AND DUP2 MSTORE PUSH1 0xA0 DUP4 SWAP1 SHR PUSH1 0xFF AND PUSH1 0x20 DUP3 ADD MSTORE PUSH1 0xA8 SWAP3 SWAP1 SWAP3 SHR PUSH3 0xFFFFFF AND SWAP1 DUP3 ADD MSTORE PUSH1 0x60 SWAP1 RETURN JUMPDEST CALLVALUE PUSH2 0x8C JUMPI PUSH2 0x100 CALLDATASIZE PUSH1 0x3 NOT ADD SLT PUSH2 0x8C JUMPI PUSH1 0x40 MLOAD PUSH2 0x100 DUP2 ADD DUP2 DUP2 LT PUSH8 0xFFFFFFFFFFFFFFFF DUP3 GT OR PUSH2 0x337 JUMPI PUSH1 0x40 MSTORE PUSH1 0x4 CALLDATALOAD PUSH1 0x1 PUSH1 0x1 PUSH1 0xA0 SHL SUB DUP2 AND DUP2 SUB PUSH2 0x8C JUMPI DUP2 MSTORE PUSH1 0x24 CALLDATALOAD PUSH1 0x1 PUSH1 0x1 PUSH1 0xA0 SHL SUB DUP2 AND DUP2 SUB PUSH2 0x8C JUMPI PUSH1 0x20 DUP3 ADD MSTORE PUSH1 0x44 CALLDATALOAD PUSH1 0x1 PUSH1 0x1 PUSH1 0xA0 SHL SUB DUP2 AND DUP2 SUB PUSH2 0x8C JUMPI PUSH1 0x40 DUP3 ADD MSTORE PUSH1 0x64 CALLDATALOAD PUSH1 0x60 DUP3 ADD MSTORE PUSH1 0x84 CALLDATALOAD PUSH1 0x1 PUSH1 0x1 PUSH1 0x80 SHL SUB DUP2 AND DUP2 SUB PUSH2 0x8C JUMPI PUSH1 0x80 DUP3 ADD MSTORE PUSH1 0xA4 CALLDATALOAD PUSH1 0x1 PUSH1 0x1 PUSH1 0x80 SHL SUB DUP2 AND DUP2 SUB PUSH2 0x8C JUMPI PUSH1 0xA0 DUP3 ADD MSTORE PUSH1 0xC4 CALLDATALOAD PUSH2 0xFFFF DUP2 AND DUP2 SUB PUSH2 0x8C JUMPI PUSH1 0xC0 DUP3 ADD MSTORE PUSH1 0xE4 CALLDATALOAD DUP1 ISZERO ISZERO DUP2 SUB PUSH2 0x8C JUMPI PUSH1 0xE0 DUP3 ADD MSTORE PUSH1 0x40 PUSH2 0x2FE PUSH2 0x30C PUSH2 0x1E7 DUP5 DUP5 MLOAD PUSH2 0x1BB DUP2 PUSH2 0x389 JUMP JUMPDEST PUSH0 SLOAD PUSH1 0x1 PUSH1 0x1 PUSH1 0xA0 SHL SUB DUP2 AND DUP3 MSTORE PUSH1 0xA0 DUP2 SWAP1 SHR PUSH1 0xFF AND PUSH1 0x20 DUP4 ADD MSTORE PUSH1 0xA8 SHR PUSH3 0xFFFFFF AND DUP7 DUP3 ADD MSTORE PUSH2 0x453 JUMP JUMPDEST PUSH2 0x261 PUSH2 0x226 DUP8 DUP8 MLOAD PUSH2 0x1F9 DUP2 PUSH2 0x389 JUMP JUMPDEST PUSH1 0x1 SLOAD PUSH1 0x1 PUSH1 0x1 PUSH1 0xA0 SHL SUB DUP2 AND DUP3 MSTORE PUSH1 0xA0 DUP2 SWAP1 SHR PUSH1 0xFF AND PUSH1 0x20 DUP4 ADD MSTORE PUSH1 0xA8 SHR PUSH3 0xFFFFFF AND DUP10 DUP3 ADD MSTORE PUSH2 0x453 JUMP JUMPDEST SWAP2 SWAP1 SWAP8 DUP8 MLOAD PUSH2 0x234 DUP2 PUSH2 0x389 JUMP JUMPDEST PUSH1 0x2 SLOAD PUSH1 0x1 PUSH1 0x1 PUSH1 0xA0 SHL SUB DUP2 AND DUP3 MSTORE PUSH1 0xA0 DUP2 SWAP1 SHR PUSH1 0xFF AND PUSH1 0x20 DUP4 ADD MSTORE PUSH1 0xA8 SHR PUSH3 0xFFFFFF AND DUP10 DUP3 ADD MSTORE PUSH2 0x453 JUMP JUMPDEST SWAP3 SWAP1 DUP8 MLOAD SWAP9 PUSH2 0x271 PUSH1 0x80 DUP12 PUSH2 0x3A5 JUMP JUMPDEST PUSH1 0x3 DUP11 MSTORE PUSH1 0x60 SWAP6 DUP7 CALLDATASIZE PUSH1 0x20 DUP14 ADD CALLDATACOPY DUP10 MLOAD SWAP7 PUSH2 0x28D PUSH1 0x80 DUP10 PUSH2 0x3A5 JUMP JUMPDEST PUSH1 0x3 DUP9 MSTORE CALLDATASIZE PUSH1 0x20 DUP10 ADD CALLDATACOPY PUSH2 0x2A0 DUP12 PUSH2 0x3DF JUMP JUMPDEST MSTORE PUSH2 0x2AA DUP11 PUSH2 0x400 JUMP JUMPDEST MSTORE PUSH2 0x2B4 DUP10 PUSH2 0x410 JUMP JUMPDEST MSTORE PUSH2 0x2BE DUP5 PUSH2 0x3DF JUMP JUMPDEST MSTORE PUSH2 0x2C8 DUP4 PUSH2 0x400 JUMP JUMPDEST MSTORE PUSH2 0x2D2 DUP3 PUSH2 0x410 JUMP JUMPDEST MSTORE DUP4 MLOAD SWAP3 DUP4 SWAP2 PUSH2 0x2ED PUSH1 0x20 DUP5 ADD SWAP8 DUP8 DUP10 MSTORE PUSH1 0x60 DUP6 ADD SWAP1 PUSH2 0x420 JUMP JUMPDEST DUP4 DUP2 SUB PUSH1 0x1F NOT ADD DUP8 DUP6 ADD MSTORE SWAP1 PUSH2 0x420 JUMP JUMPDEST SUB PUSH1 0x1F NOT DUP2 ADD DUP4 MSTORE DUP3 PUSH2 0x3A5 JUMP JUMPDEST DUP2 MLOAD SWAP3 DUP4 SWAP2 PUSH1 0x20 DUP4 MSTORE MLOAD DUP1 SWAP2 DUP2 PUSH1 0x20 DUP6 ADD MSTORE DUP5 DUP5 ADD MCOPY PUSH0 DUP3 DUP3 ADD DUP5 ADD MSTORE PUSH1 0x1F ADD PUSH1 0x1F NOT AND DUP2 ADD SUB ADD SWAP1 RETURN JUMPDEST PUSH4 0x4E487B71 PUSH1 0xE0 SHL PUSH0 MSTORE PUSH1 0x41 PUSH1 0x4 MSTORE PUSH1 0x24 PUSH0 REVERT JUMPDEST CALLVALUE PUSH2 0x8C JUMPI PUSH0 CALLDATASIZE PUSH1 0x3 NOT ADD SLT PUSH2 0x8C JUMPI PUSH1 0x2 SLOAD PUSH1 0x1 PUSH1 0x1 PUSH1 0xA0 SHL SUB DUP2 AND DUP3 MSTORE PUSH1 0xA0 DUP2 SWAP1 SHR PUSH1 0xFF AND PUSH1 0x20 DUP4 ADD MSTORE PUSH1 0xA8 SHR PUSH3 0xFFFFFF AND PUSH1 0x40 DUP3 ADD MSTORE PUSH1 0x60 SWAP1 RETURN JUMPDEST PUSH1 0x60 DUP2 ADD SWAP1 DUP2 LT PUSH8 0xFFFFFFFFFFFFFFFF DUP3 GT OR PUSH2 0x337 JUMPI PUSH1 0x40 MSTORE JUMP JUMPDEST SWAP1 PUSH1 0x1F DUP1 NOT SWAP2 ADD AND DUP2 ADD SWAP1 DUP2 LT PUSH8 0xFFFFFFFFFFFFFFFF DUP3 GT OR PUSH2 0x337 JUMPI PUSH1 0x40 MSTORE JUMP JUMPDEST PUSH8 0xFFFFFFFFFFFFFFFF DUP2 GT PUSH2 0x337 JUMPI PUSH1 0x5 SHL PUSH1 0x20 ADD SWAP1 JUMP JUMPDEST DUP1 MLOAD ISZERO PUSH2 0x3EC JUMPI PUSH1 0x20 ADD SWAP1 JUMP JUMPDEST PUSH4 0x4E487B71 PUSH1 0xE0 SHL PUSH0 MSTORE PUSH1 0x32 PUSH1 0x4 MSTORE PUSH1 0x24 PUSH0 REVERT JUMPDEST DUP1 MLOAD PUSH1 0x1 LT ISZERO PUSH2 0x3EC JUMPI PUSH1 0x40 ADD SWAP1 JUMP JUMPDEST DUP1 MLOAD PUSH1 0x2 LT ISZERO PUSH2 0x3EC JUMPI PUSH1 0x60 ADD SWAP1 JUMP JUMPDEST SWAP1 PUSH1 0x20 DUP1 DUP4 MLOAD SWAP3 DUP4 DUP2 MSTORE ADD SWAP3 ADD SWAP1 PUSH0 JUMPDEST DUP2 DUP2 LT PUSH2 0x43D JUMPI POP POP POP SWAP1 JUMP JUMPDEST DUP3 MLOAD DUP5 MSTORE PUSH1 0x20 SWAP4 DUP5 ADD SWAP4 SWAP1 SWAP3 ADD SWAP2 PUSH1 0x1 ADD PUSH2 0x430 JUMP JUMPDEST SWAP1 PUSH1 0xFF PUSH1 0x20 DUP4 ADD MLOAD AND PUSH1 0x2 DUP2 EQ PUSH0 EQ PUSH2 0x681 JUMPI POP SWAP1 MLOAD PUSH1 0x40 MLOAD PUSH4 0x240BC6B PUSH1 0xE2 SHL DUP2 MSTORE PUSH1 0x1 PUSH1 0x1 PUSH1 0xA0 SHL SUB SWAP1 SWAP2 AND SWAP1 PUSH1 0x60 DUP2 PUSH1 0x4 DUP2 DUP6 GAS STATICCALL SWAP1 DUP2 ISZERO PUSH2 0x585 JUMPI PUSH0 SWAP1 PUSH0 SWAP3 PUSH2 0x622 JUMPI JUMPDEST POP PUSH1 0x1 PUSH1 0x1 PUSH1 0x70 SHL SUB AND SWAP1 DUP2 ISZERO DUP1 ISZERO DUP1 PUSH2 0x610 JUMPI JUMPDEST ISZERO PUSH2 0x5DA JUMPI PUSH8 0xDE0B6B3A7640000 DUP4 MUL SWAP3 DUP4 DIV PUSH8 0xDE0B6B3A7640000 EQ OR ISZERO PUSH2 0x5C6 JUMPI PUSH1 0x1 PUSH1 0x1 PUSH1 0x70 SHL SUB AND SWAP1 DUP2 ISZERO PUSH2 0x5B2 JUMPI DIV SWAP1 PUSH1 0x40 MLOAD SWAP3 PUSH4 0xDFE1681 PUSH1 0xE0 SHL DUP5 MSTORE PUSH1 0x20 DUP5 PUSH1 0x4 DUP2 DUP6 GAS STATICCALL SWAP2 DUP3 ISZERO PUSH2 0x585 JUMPI PUSH1 0x4 SWAP5 PUSH0 SWAP4 PUSH2 0x590 JUMPI JUMPDEST POP PUSH1 0x20 SWAP1 PUSH1 0x40 MLOAD SWAP6 DUP7 DUP1 SWAP3 PUSH4 0xD21220A7 PUSH1 0xE0 SHL DUP3 MSTORE GAS STATICCALL DUP1 ISZERO PUSH2 0x585 JUMPI PUSH2 0x552 SWAP5 PUSH0 SWAP2 PUSH2 0x556 JUMPI JUMPDEST POP DUP2 MLOAD PUSH1 0x20 SWAP1 SWAP3 ADD MLOAD PUSH1 0x1 PUSH1 0x1 PUSH1 0xA0 SHL SUB SWAP1 DUP2 AND SWAP4 SWAP3 AND SWAP2 PUSH2 0xB5A JUMP JUMPDEST DUP1 SWAP2 JUMP JUMPDEST PUSH2 0x578 SWAP2 POP PUSH1 0x20 RETURNDATASIZE PUSH1 0x20 GT PUSH2 0x57E JUMPI JUMPDEST PUSH2 0x570 DUP2 DUP4 PUSH2 0x3A5 JUMP JUMPDEST DUP2 ADD SWAP1 PUSH2 0xA4F JUMP JUMPDEST PUSH0 PUSH2 0x535 JUMP JUMPDEST POP RETURNDATASIZE PUSH2 0x566 JUMP JUMPDEST PUSH1 0x40 MLOAD RETURNDATASIZE PUSH0 DUP3 RETURNDATACOPY RETURNDATASIZE SWAP1 REVERT JUMPDEST PUSH1 0x20 SWAP2 SWAP4 POP PUSH2 0x5AB SWAP1 DUP3 RETURNDATASIZE DUP5 GT PUSH2 0x57E JUMPI PUSH2 0x570 DUP2 DUP4 PUSH2 0x3A5 JUMP JUMPDEST SWAP3 SWAP1 PUSH2 0x50D JUMP JUMPDEST PUSH4 0x4E487B71 PUSH1 0xE0 SHL PUSH0 MSTORE PUSH1 0x12 PUSH1 0x4 MSTORE PUSH1 0x24 PUSH0 REVERT JUMPDEST PUSH4 0x4E487B71 PUSH1 0xE0 SHL PUSH0 MSTORE PUSH1 0x11 PUSH1 0x4 MSTORE PUSH1 0x24 PUSH0 REVERT JUMPDEST PUSH1 0x40 MLOAD PUSH3 0x461BCD PUSH1 0xE5 SHL DUP2 MSTORE PUSH1 0x20 PUSH1 0x4 DUP3 ADD MSTORE PUSH1 0xE PUSH1 0x24 DUP3 ADD MSTORE PUSH14 0x656D707479207265736572766573 PUSH1 0x90 SHL PUSH1 0x44 DUP3 ADD MSTORE PUSH1 0x64 SWAP1 REVERT JUMPDEST POP PUSH1 0x1 PUSH1 0x1 PUSH1 0x70 SHL SUB DUP3 AND ISZERO ISZERO PUSH2 0x4B0 JUMP JUMPDEST SWAP2 POP POP PUSH1 0x60 DUP2 RETURNDATASIZE PUSH1 0x60 GT PUSH2 0x679 JUMPI JUMPDEST DUP2 PUSH2 0x63E PUSH1 0x60 SWAP4 DUP4 PUSH2 0x3A5 JUMP JUMPDEST DUP2 ADD SUB SLT PUSH2 0x8C JUMPI PUSH2 0x64F DUP2 PUSH2 0xA6E JUMP JUMPDEST PUSH1 0x40 PUSH2 0x65D PUSH1 0x20 DUP5 ADD PUSH2 0xA6E JUMP JUMPDEST SWAP3 ADD MLOAD PUSH4 0xFFFFFFFF DUP2 AND SUB PUSH2 0x8C JUMPI PUSH1 0x1 PUSH1 0x1 PUSH1 0x70 SHL SUB PUSH2 0x49B JUMP JUMPDEST RETURNDATASIZE SWAP2 POP PUSH2 0x631 JUMP JUMPDEST PUSH1 0x3 SUB PUSH2 0x9EF JUMPI PUSH3 0xFFFFFF PUSH1 0x40 PUSH1 0x1 DUP1 PUSH1 0xA0 SHL SUB DUP5 MLOAD AND SWAP4 ADD MLOAD AND SWAP1 PUSH1 0x40 MLOAD PUSH4 0x3850C7BD PUSH1 0xE0 SHL DUP2 MSTORE PUSH1 0xE0 DUP2 PUSH1 0x4 DUP2 DUP8 GAS STATICCALL SWAP1 DUP2 ISZERO PUSH2 0x585 JUMPI PUSH0 SWAP2 PUSH2 0x963 JUMPI JUMPDEST POP PUSH2 0x6DE SWAP1 PUSH2 0x6D9 SWAP1 PUSH1 0x1 PUSH1 0x1 PUSH1 0xA0 SHL SUB AND DUP1 PUSH2 0xA82 JUMP JUMPDEST PUSH2 0xAFA JUMP JUMPDEST PUSH1 0x40 MLOAD PUSH4 0xDFE1681 PUSH1 0xE0 SHL DUP2 MSTORE PUSH1 0x20 DUP2 PUSH1 0x4 DUP2 DUP9 GAS STATICCALL SWAP1 DUP2 ISZERO PUSH2 0x585 JUMPI PUSH0 SWAP2 PUSH2 0x944 JUMPI JUMPDEST POP PUSH1 0x40 MLOAD PUSH4 0xD21220A7 PUSH1 0xE0 SHL DUP2 MSTORE SWAP3 PUSH1 0x20 DUP5 PUSH1 0x4 DUP2 DUP10 GAS STATICCALL DUP1 ISZERO PUSH2 0x585 JUMPI PUSH2 0x747 SWAP5 PUSH0 SWAP2 PUSH2 0x556 JUMPI POP DUP2 MLOAD PUSH1 0x20 SWAP1 SWAP3 ADD MLOAD PUSH1 0x1 PUSH1 0x1 PUSH1 0xA0 SHL SUB SWAP1 DUP2 AND SWAP4 SWAP3 AND SWAP2 PUSH2 0xB5A JUMP JUMPDEST SWAP2 DUP2 ISZERO PUSH2 0x93B JUMPI JUMPDEST PUSH1 0x40 MLOAD PUSH2 0x75D PUSH1 0x60 DUP3 PUSH2 0x3A5 JUMP JUMPDEST PUSH1 0x2 DUP2 MSTORE PUSH1 0x20 DUP2 ADD SWAP3 PUSH3 0xFFFFFF SWAP1 PUSH1 0x40 CALLDATASIZE DUP7 CALLDATACOPY AND PUSH2 0x77A DUP3 PUSH2 0x3DF JUMP JUMPDEST MSTORE PUSH0 PUSH2 0x785 DUP3 PUSH2 0x400 JUMP JUMPDEST MSTORE PUSH1 0x40 MLOAD PUSH4 0x883BDBFD PUSH1 0xE0 SHL DUP2 MSTORE PUSH1 0x20 PUSH1 0x4 DUP3 ADD MSTORE SWAP1 MLOAD PUSH1 0x24 DUP3 ADD DUP2 SWAP1 MSTORE SWAP1 SWAP3 DUP4 SWAP2 PUSH1 0x44 DUP4 ADD SWAP2 SWAP1 PUSH0 JUMPDEST DUP2 DUP2 LT PUSH2 0x91C JUMPI POP POP POP SWAP2 DUP2 DUP1 PUSH0 SWAP5 SUB SWAP2 GAS STATICCALL SWAP1 DUP2 ISZERO PUSH2 0x585 JUMPI PUSH0 SWAP2 PUSH2 0x80B JUMPI JUMPDEST POP PUSH2 0x7E7 PUSH2 0x7DD DUP3 PUSH2 0x400 JUMP JUMPDEST MLOAD PUSH1 0x6 SIGNEXTEND SWAP2 PUSH2 0x3DF JUMP JUMPDEST MLOAD PUSH1 0x6 SIGNEXTEND SWAP1 SUB PUSH7 0x7FFFFFFFFFFFFF DUP2 SGT SWAP1 PUSH7 0x7FFFFFFFFFFFFF NOT SGT OR PUSH2 0x5C6 JUMPI DUP1 SWAP2 JUMP JUMPDEST SWAP1 POP RETURNDATASIZE DUP1 PUSH0 DUP4 RETURNDATACOPY PUSH2 0x81C DUP2 DUP4 PUSH2 0x3A5 JUMP JUMPDEST DUP2 ADD PUSH1 0x40 DUP3 DUP3 SUB SLT PUSH2 0x8C JUMPI DUP2 MLOAD PUSH8 0xFFFFFFFFFFFFFFFF DUP2 GT PUSH2 0x8C JUMPI DUP3 ADD SWAP2 DUP2 PUSH1 0x1F DUP5 ADD SLT ISZERO PUSH2 0x8C JUMPI DUP3 MLOAD PUSH2 0x852 DUP2 PUSH2 0x3C7 JUMP JUMPDEST SWAP4 PUSH2 0x860 PUSH1 0x40 MLOAD SWAP6 DUP7 PUSH2 0x3A5 JUMP JUMPDEST DUP2 DUP6 MSTORE PUSH1 0x20 DUP1 DUP7 ADD SWAP3 PUSH1 0x5 SHL DUP3 ADD ADD SWAP1 DUP5 DUP3 GT PUSH2 0x8C JUMPI PUSH1 0x20 ADD SWAP2 JUMPDEST DUP2 DUP4 LT PUSH2 0x902 JUMPI POP POP POP PUSH1 0x20 DUP2 ADD MLOAD SWAP1 PUSH8 0xFFFFFFFFFFFFFFFF DUP3 GT PUSH2 0x8C JUMPI ADD DUP2 PUSH1 0x1F DUP3 ADD SLT ISZERO PUSH2 0x8C JUMPI DUP1 MLOAD SWAP1 PUSH1 0x20 DUP1 PUSH2 0x8B6 DUP5 PUSH2 0x3C7 JUMP JUMPDEST PUSH2 0x8C3 PUSH1 0x40 MLOAD SWAP2 DUP3 PUSH2 0x3A5 JUMP JUMPDEST DUP5 DUP2 MSTORE ADD SWAP3 PUSH1 0x5 SHL DUP3 ADD ADD SWAP3 DUP4 GT PUSH2 0x8C JUMPI PUSH1 0x20 ADD SWAP1 JUMPDEST DUP3 DUP3 LT PUSH2 0x8EA JUMPI POP POP POP PUSH0 PUSH2 0x7D0 JUMP JUMPDEST PUSH1 0x20 DUP1 SWAP2 PUSH2 0x8F7 DUP5 PUSH2 0xA2C JUMP JUMPDEST DUP2 MSTORE ADD SWAP2 ADD SWAP1 PUSH2 0x8DA JUMP JUMPDEST DUP3 MLOAD DUP1 PUSH1 0x6 SIGNEXTEND DUP2 SUB PUSH2 0x8C JUMPI DUP2 MSTORE PUSH1 0x20 SWAP3 DUP4 ADD SWAP3 ADD PUSH2 0x87C JUMP JUMPDEST DUP3 MLOAD PUSH4 0xFFFFFFFF AND DUP5 MSTORE DUP7 SWAP5 POP PUSH1 0x20 SWAP4 DUP5 ADD SWAP4 SWAP1 SWAP3 ADD SWAP2 PUSH1 0x1 ADD PUSH2 0x7AF JUMP JUMPDEST PUSH1 0x3C SWAP2 POP PUSH2 0x74F JUMP JUMPDEST PUSH2 0x95D SWAP2 POP PUSH1 0x20 RETURNDATASIZE PUSH1 0x20 GT PUSH2 0x57E JUMPI PUSH2 0x570 DUP2 DUP4 PUSH2 0x3A5 JUMP JUMPDEST PUSH0 PUSH2 0x702 JUMP JUMPDEST SWAP1 POP PUSH1 0xE0 DUP2 RETURNDATASIZE PUSH1 0xE0 GT PUSH2 0x9E7 JUMPI JUMPDEST DUP2 PUSH2 0x97E PUSH1 0xE0 SWAP4 DUP4 PUSH2 0x3A5 JUMP JUMPDEST DUP2 ADD SUB SLT PUSH2 0x8C JUMPI PUSH2 0x98F DUP2 PUSH2 0xA2C JUMP JUMPDEST SWAP1 PUSH1 0x20 DUP2 ADD MLOAD DUP1 PUSH1 0x2 SIGNEXTEND SUB PUSH2 0x8C JUMPI PUSH2 0x9AA PUSH1 0x40 DUP3 ADD PUSH2 0xA40 JUMP JUMPDEST POP PUSH2 0x9B7 PUSH1 0x60 DUP3 ADD PUSH2 0xA40 JUMP JUMPDEST POP PUSH2 0x9C4 PUSH1 0x80 DUP3 ADD PUSH2 0xA40 JUMP JUMPDEST POP PUSH1 0xA0 DUP2 ADD MLOAD PUSH1 0xFF DUP2 AND SUB PUSH2 0x8C JUMPI PUSH1 0xC0 ADD MLOAD DUP1 ISZERO ISZERO SUB PUSH2 0x8C JUMPI PUSH2 0x6D9 PUSH2 0x6C1 JUMP JUMPDEST RETURNDATASIZE SWAP2 POP PUSH2 0x971 JUMP JUMPDEST PUSH1 0x40 MLOAD PUSH3 0x461BCD PUSH1 0xE5 SHL DUP2 MSTORE PUSH1 0x20 PUSH1 0x4 DUP3 ADD MSTORE PUSH1 0x15 PUSH1 0x24 DUP3 ADD MSTORE PUSH21 0x1D5B9CDD5C1C1BDC9D1959081C1BDBDB081ADA5B99 PUSH1 0x5A SHL PUSH1 0x44 DUP3 ADD MSTORE PUSH1 0x64 SWAP1 REVERT JUMPDEST MLOAD SWAP1 PUSH1 0x1 PUSH1 0x1 PUSH1 0xA0 SHL SUB DUP3 AND DUP3 SUB PUSH2 0x8C JUMPI JUMP JUMPDEST MLOAD SWAP1 PUSH2 0xFFFF DUP3 AND DUP3 SUB PUSH2 0x8C JUMPI JUMP JUMPDEST SWAP1 DUP2 PUSH1 0x20 SWAP2 SUB SLT PUSH2 0x8C JUMPI MLOAD PUSH1 0x1 PUSH1 0x1 PUSH1 0xA0 SHL SUB DUP2 AND DUP2 SUB PUSH2 0x8C JUMPI SWAP1 JUMP JUMPDEST MLOAD SWAP1 PUSH1 0x1 PUSH1 0x1 PUSH1 0x70 SHL SUB DUP3 AND DUP3 SUB PUSH2 0x8C JUMPI JUMP JUMPDEST PUSH0 NOT DUP3 DUP3 MULMOD SWAP1 DUP3 DUP2 MUL SWAP3 DUP4 DUP1 DUP5 LT SWAP4 SUB SWAP3 DUP1 DUP5 SUB SWAP4 EQ PUSH2 0xAF1 JUMPI PUSH1 0x1 PUSH1 0x60 SHL DUP4 LT ISZERO PUSH2 0xAC1 JUMPI PUSH1 0x1 PUSH1 0x60 SHL SWAP2 MULMOD SWAP1 DUP3 DUP3 GT SWAP1 SUB PUSH1 0xA0 SHL SWAP2 SUB PUSH1 0x60 SHR OR SWAP1 JUMP JUMPDEST PUSH1 0x40 MLOAD PUSH3 0x461BCD PUSH1 0xE5 SHL DUP2 MSTORE PUSH1 0x20 PUSH1 0x4 DUP3 ADD MSTORE PUSH1 0x8 PUSH1 0x24 DUP3 ADD MSTORE PUSH8 0x6F766572666C6F77 PUSH1 0xC0 SHL PUSH1 0x44 DUP3 ADD MSTORE PUSH1 0x64 SWAP1 REVERT JUMPDEST POP POP POP PUSH1 0x60 SHR SWAP1 JUMP JUMPDEST PUSH0 NOT PUSH8 0xDE0B6B3A7640000 DUP3 MULMOD PUSH8 0xDE0B6B3A7640000 DUP3 MUL SWAP2 DUP3 DUP1 DUP4 LT SWAP3 SUB SWAP2 DUP1 DUP4 SUB SWAP3 EQ PUSH2 0xB52 JUMPI PUSH1 0x1 PUSH1 0x60 SHL DUP3 LT ISZERO PUSH2 0xAC1 JUMPI PUSH1 0x1 PUSH1 0x60 SHL SWAP1 PUSH8 0xDE0B6B3A7640000 SWAP1 MULMOD SWAP1 DUP3 DUP3 GT SWAP1 SUB PUSH1 0xA0 SHL SWAP2 SUB PUSH1 0x60 SHR OR SWAP1 JUMP JUMPDEST POP POP PUSH1 0x60 SHR SWAP1 JUMP JUMPDEST SWAP1 SWAP3 PUSH1 0x1 PUSH1 0x1 PUSH1 0xA0 SHL SUB SWAP3 DUP4 AND SWAP3 SWAP1 SWAP2 AND SWAP1 DUP2 DUP4 EQ DUP1 PUSH2 0xC02 JUMPI JUMPDEST ISZERO PUSH2 0xB81 JUMPI POP POP POP POP SWAP1 JUMP JUMPDEST PUSH1 0x1 PUSH1 0x1 PUSH1 0xA0 SHL SUB AND EQ SWAP2 DUP3 PUSH2 0xBEF JUMPI JUMPDEST POP POP ISZERO PUSH2 0xBB3 JUMPI DUP1 ISZERO PUSH2 0x5B2 JUMPI PUSH15 0xC097CE7BC90715B34B9F1000000000 DIV SWAP1 JUMP JUMPDEST PUSH1 0x40 MLOAD PUSH3 0x461BCD PUSH1 0xE5 SHL DUP2 MSTORE PUSH1 0x20 PUSH1 0x4 DUP3 ADD MSTORE PUSH1 0x14 PUSH1 0x24 DUP3 ADD MSTORE PUSH20 0xE0C2D2E440E8DED6CADCE640DAD2E6DAC2E8C6D PUSH1 0x63 SHL PUSH1 0x44 DUP3 ADD MSTORE PUSH1 0x64 SWAP1 REVERT JUMPDEST PUSH1 0x1 PUSH1 0x1 PUSH1 0xA0 SHL SUB AND EQ SWAP1 POP PUSH0 DUP1 PUSH2 0xB92 JUMP JUMPDEST POP PUSH1 0x1 PUSH1 0x1 PUSH1 0xA0 SHL SUB DUP5 DUP2 AND SWAP1 DUP3 AND EQ PUSH2 0xB75 JUMP INVALID LOG2 PUSH5 0x6970667358 0x22 SLT KECCAK256 MCOPY PUSH0 0x2D PUSH27 0x79CCD77E87EA1E1995E4CA1510007CC8EAD703A28AA1FE700A2130 PUSH28 0x64736F6C634300081E00330000000000000000000000000000000000 "},"methodIdentifiers":{"dexA()":"4c02a7a7","dexB()":"fa29e6b1","dexC()":"027fa475","getData((address,address,address,uint256,uint128,uint128,uint16,bool))":"3bd1104b"}}}}}