{"contracts/PoolManager.sol":{"PoolManager":{"abi":[{"inputs":[{"internalType":"address","name":"_defaultAlpha","type":"address"},{"internalType":"address","name":"_defaultBeta","type":"address"}],"stateMutability":"nonpayable","type":"constructor"},{"inputs":[{"internalType":"uint256","name":"required","type":"uint256"},{"internalType":"uint256","name":"available","type":"uint256"}],"name":"PoolManager__InsufficientAsset0","type":"error"},{"inputs":[{"internalType":"uint256","name":"required","type":"uint256"},{"internalType":"uint256","name":"available","type":"uint256"}],"name":"PoolManager__InsufficientAsset1","type":"error"},{"inputs":[],"name":"PoolManager__InsufficientLiquidityMinted","type":"error"},{"inputs":[{"internalType":"uint256","name":"minOut","type":"uint256"},{"internalType":"uint256","name":"actual","type":"uint256"}],"name":"PoolManager__InsufficientOutput","type":"error"},{"inputs":[{"internalType":"uint256","name":"amount0","type":"uint256"},{"internalType":"uint256","name":"amount1","type":"uint256"}],"name":"PoolManager__InsufficientWithdrawal","type":"error"},{"anonymous":false,"inputs":[{"indexed":true,"internalType":"address","name":"owner","type":"address"},{"indexed":true,"internalType":"address","name":"spender","type":"address"},{"indexed":true,"internalType":"uint256","name":"id","type":"uint256"},{"indexed":false,"internalType":"uint256","name":"amount","type":"uint256"}],"name":"Approval","type":"event"},{"anonymous":false,"inputs":[{"indexed":true,"internalType":"address","name":"owner","type":"address"},{"indexed":true,"internalType":"address","name":"operator","type":"address"},{"indexed":false,"internalType":"bool","name":"approved","type":"bool"}],"name":"OperatorSet","type":"event"},{"anonymous":false,"inputs":[{"indexed":true,"internalType":"uint256","name":"poolID","type":"uint256"},{"indexed":false,"internalType":"address","name":"asset0","type":"address"},{"indexed":false,"internalType":"address","name":"asset1","type":"address"},{"indexed":false,"internalType":"address","name":"quoter","type":"address"},{"indexed":false,"internalType":"bytes3","name":"markings","type":"bytes3"}],"name":"PoolCreated","type":"event"},{"anonymous":false,"inputs":[{"indexed":false,"internalType":"uint8","name":"step","type":"uint8"},{"indexed":false,"internalType":"uint256","name":"value","type":"uint256"}],"name":"SwapStep","type":"event"},{"anonymous":false,"inputs":[{"indexed":false,"internalType":"address","name":"caller","type":"address"},{"indexed":true,"internalType":"address","name":"from","type":"address"},{"indexed":true,"internalType":"address","name":"to","type":"address"},{"indexed":true,"internalType":"uint256","name":"id","type":"uint256"},{"indexed":false,"internalType":"uint256","name":"amount","type":"uint256"}],"name":"Transfer","type":"event"},{"inputs":[{"internalType":"uint8","name":"pointer","type":"uint8"},{"internalType":"address","name":"alphaAddress","type":"address"}],"name":"addAlphaMarketAddress","outputs":[],"stateMutability":"nonpayable","type":"function"},{"inputs":[{"internalType":"uint8","name":"pointer","type":"uint8"},{"internalType":"address","name":"betaAddress","type":"address"}],"name":"addBetaMarketAddress","outputs":[],"stateMutability":"nonpayable","type":"function"},{"inputs":[{"internalType":"address","name":"asset0","type":"address"},{"internalType":"address","name":"asset1","type":"address"},{"internalType":"address","name":"quoter","type":"address"},{"internalType":"bytes3","name":"markings","type":"bytes3"},{"internalType":"uint256","name":"amount0","type":"uint256"},{"internalType":"uint256","name":"amount1","type":"uint256"}],"name":"addLiquidity","outputs":[{"internalType":"uint256","name":"liquidity","type":"uint256"}],"stateMutability":"payable","type":"function"},{"inputs":[{"internalType":"address","name":"owner","type":"address"},{"internalType":"address","name":"spender","type":"address"},{"internalType":"uint256","name":"id","type":"uint256"}],"name":"allowance","outputs":[{"internalType":"uint256","name":"","type":"uint256"}],"stateMutability":"view","type":"function"},{"inputs":[{"internalType":"address","name":"spender","type":"address"},{"internalType":"uint256","name":"id","type":"uint256"},{"internalType":"uint256","name":"amount","type":"uint256"}],"name":"approve","outputs":[{"internalType":"bool","name":"","type":"bool"}],"stateMutability":"nonpayable","type":"function"},{"inputs":[{"internalType":"address","name":"owner","type":"address"},{"internalType":"uint256","name":"id","type":"uint256"}],"name":"balanceOf","outputs":[{"internalType":"uint256","name":"","type":"uint256"}],"stateMutability":"view","type":"function"},{"inputs":[{"components":[{"internalType":"address","name":"asset0","type":"address"},{"internalType":"address","name":"asset1","type":"address"},{"internalType":"address","name":"quoter","type":"address"},{"internalType":"bytes3","name":"marking","type":"bytes3"},{"internalType":"bool","name":"zeroForOne","type":"bool"}],"internalType":"struct PoolManager.Hop[]","name":"hops","type":"tuple[]"},{"internalType":"uint256","name":"amountIn","type":"uint256"},{"internalType":"uint256","name":"minAmountOut","type":"uint256"}],"name":"batchSwap","outputs":[{"internalType":"uint256","name":"amountOut","type":"uint256"}],"stateMutability":"payable","type":"function"},{"inputs":[{"internalType":"address","name":"asset0","type":"address"},{"internalType":"address","name":"asset1","type":"address"},{"internalType":"address","name":"quoter","type":"address"},{"internalType":"bytes3","name":"markings","type":"bytes3"}],"name":"createPool","outputs":[{"internalType":"uint256","name":"poolID","type":"uint256"}],"stateMutability":"nonpayable","type":"function"},{"inputs":[],"name":"defaultAlpha","outputs":[{"internalType":"address","name":"","type":"address"}],"stateMutability":"view","type":"function"},{"inputs":[],"name":"defaultBeta","outputs":[{"internalType":"address","name":"","type":"address"}],"stateMutability":"view","type":"function"},{"inputs":[{"internalType":"address","name":"","type":"address"},{"internalType":"address","name":"","type":"address"},{"internalType":"uint128","name":"","type":"uint128"},{"internalType":"uint128","name":"","type":"uint128"}],"name":"dummyQuoter","outputs":[{"internalType":"uint256","name":"rate","type":"uint256"}],"stateMutability":"pure","type":"function"},{"inputs":[{"internalType":"uint8","name":"pointer","type":"uint8"}],"name":"getAlphaMarketAddress","outputs":[{"internalType":"address","name":"alphaAddress","type":"address"}],"stateMutability":"view","type":"function"},{"inputs":[{"internalType":"uint8","name":"pointer","type":"uint8"}],"name":"getBetaMarketAddress","outputs":[{"internalType":"address","name":"betaAddress","type":"address"}],"stateMutability":"view","type":"function"},{"inputs":[{"internalType":"uint256","name":"poolId","type":"uint256"}],"name":"getInventory","outputs":[{"internalType":"uint128","name":"asset0","type":"uint128"},{"internalType":"uint128","name":"asset1","type":"uint128"}],"stateMutability":"view","type":"function"},{"inputs":[{"internalType":"address","name":"owner","type":"address"},{"internalType":"address","name":"spender","type":"address"}],"name":"isOperator","outputs":[{"internalType":"bool","name":"","type":"bool"}],"stateMutability":"view","type":"function"},{"inputs":[{"internalType":"uint8","name":"pointer","type":"uint8"}],"name":"removeAlphaMarketAddress","outputs":[],"stateMutability":"nonpayable","type":"function"},{"inputs":[{"internalType":"uint8","name":"pointer","type":"uint8"}],"name":"removeBetaMarketAddress","outputs":[],"stateMutability":"nonpayable","type":"function"},{"inputs":[{"internalType":"address","name":"asset0","type":"address"},{"internalType":"address","name":"asset1","type":"address"},{"internalType":"address","name":"quoter","type":"address"},{"internalType":"bytes3","name":"markings","type":"bytes3"},{"internalType":"uint256","name":"liquidity","type":"uint256"}],"name":"removeLiquidity","outputs":[{"internalType":"uint256","name":"amount0","type":"uint256"},{"internalType":"uint256","name":"amount1","type":"uint256"}],"stateMutability":"nonpayable","type":"function"},{"inputs":[{"internalType":"address","name":"operator","type":"address"},{"internalType":"bool","name":"approved","type":"bool"}],"name":"setOperator","outputs":[{"internalType":"bool","name":"","type":"bool"}],"stateMutability":"nonpayable","type":"function"},{"inputs":[{"internalType":"bytes4","name":"interfaceId","type":"bytes4"}],"name":"supportsInterface","outputs":[{"internalType":"bool","name":"","type":"bool"}],"stateMutability":"view","type":"function"},{"inputs":[{"internalType":"address","name":"asset0","type":"address"},{"internalType":"address","name":"asset1","type":"address"},{"internalType":"address","name":"quoter","type":"address"},{"internalType":"bytes3","name":"markings","type":"bytes3"},{"internalType":"uint256","name":"amountIn","type":"uint256"},{"internalType":"bool","name":"zeroForOne","type":"bool"},{"internalType":"uint256","name":"minAmountOut","type":"uint256"}],"name":"swap","outputs":[{"internalType":"uint256","name":"amountOut","type":"uint256"}],"stateMutability":"payable","type":"function"},{"inputs":[{"internalType":"uint256","name":"poolID","type":"uint256"}],"name":"totalLiquidity","outputs":[{"internalType":"uint256","name":"","type":"uint256"}],"stateMutability":"view","type":"function"},{"inputs":[{"internalType":"address","name":"receiver","type":"address"},{"internalType":"uint256","name":"id","type":"uint256"},{"internalType":"uint256","name":"amount","type":"uint256"}],"name":"transfer","outputs":[{"internalType":"bool","name":"","type":"bool"}],"stateMutability":"nonpayable","type":"function"},{"inputs":[{"internalType":"address","name":"sender","type":"address"},{"internalType":"address","name":"receiver","type":"address"},{"internalType":"uint256","name":"id","type":"uint256"},{"internalType":"uint256","name":"amount","type":"uint256"}],"name":"transferFrom","outputs":[{"internalType":"bool","name":"","type":"bool"}],"stateMutability":"nonpayable","type":"function"}],"evm":{"bytecode":{"linkReferences":{},"object":"60c03461008857601f6125ba38819003918201601f19168301916001600160401b0383118484101761008c57808492604094855283398101031261008857610052602061004b836100a0565b92016100a0565b9060805260a05260405161250590816100b5823960805181818161083d0152611c34015260a0518181816103280152611c610152f35b5f80fd5b634e487b7160e01b5f52604160045260245ffd5b51906001600160a01b03821682036100885756fe60806040526004361015610011575f80fd5b5f3560e01c8062fdd58e1461019357806301ffc9a71461018e578063095bcdb61461018957806319920a5f14610184578063426a84931461017f578063460c6df81461017a578063558a7297146101755780635670f55a14610170578063598af9e71461016b5780635b298d321461016657806361408f26146101615780637dc27c951461015c57806383e66c2e146101575780638785bec0146101525780638e832e081461014d578063a1a44dad14610148578063b5e60c3c14610143578063b6363cf21461013e578063b69e399214610139578063cb1f2f3814610134578063d2615fc81461012f578063d92bc84c1461012a578063e513315b146101255763fe99049a14610120575f80fd5b61105e565b610ebd565b610b4b565b610b05565b61096d565b6108f9565b610896565b61086c565b610828565b6107e3565b610798565b610726565b6106c2565b61067d565b61062d565b6105c0565b610506565b610458565b6103e8565b610357565b610313565b61026f565b6101f6565b6101ad565b6001600160a01b038116036101a957565b5f80fd5b346101a95760403660031901126101a9576004356101ca81610198565b6024359060018060a01b03165f52600160205260405f20905f52602052602060405f2054604051908152f35b346101a95760203660031901126101a95760043563ffffffff60e01b81168091036101a9576020906301ffc9a760e01b811490811561023b575b506040519015158152f35b630f632fb360e01b1490505f610230565b60609060031901126101a95760043561026481610198565b906024359060443590565b346101a95761027d3661024c565b9091335f52600160205260405f20835f5260205260405f2080549083820391821161030e575560018060a01b031690815f5260016020526102c98360405f20905f5260205260405f2090565b6102d482825461123b565b9055604080513380825260208201939093525f5160206124905f395f51905f5291819081015b0390a46040516001815280602081015b0390f35b61120c565b346101a9575f3660031901126101a9576040517f00000000000000000000000000000000000000000000000000000000000000006001600160a01b03168152602090f35b346101a9576103653661024c565b9091335f52600260205261038c8160405f209060018060a01b03165f5260205260405f2090565b835f526020528160405f205560405191825260018060a01b0316907fb3fd5071835887567a0671151121894ddccc2842f1d10bedad13e0d17cace9a760203392a4602060405160018152f35b6004359060ff821682036101a957565b346101a95760403660031901126101a95761044c6104046103d8565b60ff6024359161041383610198565b1661042060108210611248565b5f52600360205260405f209060018060a01b03166bffffffffffffffffffffffff60a01b825416179055565b005b801515036101a957565b346101a95760403660031901126101a95760043561047581610198565b602435906104828261044e565b335f908152602081815260408083206001600160a01b038516845290915290209115159160ff1981541660ff841617905560405191825260018060a01b0316907fceb576d9f15e4e200fdb5096d64d5dfd667e16def20c1eefd14256d8e3faa26760203392a360405160018152602090f35b6001600160e81b03198116036101a957565b346101a95760803660031901126101a95761030a60043561052681610198565b60243561053281610198565b7f68df9a4eb7aacbe8f43763bfbc9f7ca135a5397190ea1cce2558db52dc2f369260806044359361056285610198565b60643561056e816104f4565b61057a8187878561178f565b604080516001600160a01b039485168152968416602088015292909616918501919091526001600160e81b03191660608401528392a26040519081529081906020820190565b346101a95760603660031901126101a9576004356105dd81610198565b6106186024356105ec81610198565b6044359260018060a01b03165f52600260205260405f209060018060a01b03165f5260205260405f2090565b905f52602052602060405f2054604051908152f35b346101a95760203660031901126101a95760406001600160801b0361066c6004355f52600660205260405f2054906001600160801b0382169160801c90565b835191831682529091166020820152f35b346101a95760203660031901126101a95760ff6106986103d8565b166106a560108210611248565b5f90815260046020526040902080546001600160a01b0319169055005b346101a95760403660031901126101a95761044c6106de6103d8565b60ff602435916106ed83610198565b166106fa60108210611248565b5f52600460205260405f209060018060a01b03166bffffffffffffffffffffffff60a01b825416179055565b346101a95760203660031901126101a95760ff6107416103d8565b1661074e60108210611248565b5f526004602052602060018060a01b0360405f205416604051908152f35b604435906001600160801b03821682036101a957565b606435906001600160801b03821682036101a957565b346101a95760803660031901126101a9576107b4600435610198565b6107bf602435610198565b6107c761076c565b506107d0610782565b50602060405167120a871cc00200008152f35b346101a95760203660031901126101a95760ff6107fe6103d8565b1661080b60108210611248565b5f90815260036020526040902080546001600160a01b0319169055005b346101a9575f3660031901126101a9576040517f00000000000000000000000000000000000000000000000000000000000000006001600160a01b03168152602090f35b346101a95760203660031901126101a9576004355f526005602052602060405f2054604051908152f35b346101a95760403660031901126101a957602060ff6108ed6004356108ba81610198565b602435906108c782610198565b60018060a01b03165f525f845260405f209060018060a01b03165f5260205260405f2090565b54166040519015158152f35b60603660031901126101a95760043567ffffffffffffffff81116101a957366023820112156101a957806004013567ffffffffffffffff81116101a95736602460a08302840101116101a95761030a9161095d9160243590602460443593016112bd565b6040519081529081906020820190565b346101a95760a03660031901126101a95760043561098a81610198565b6001600160801b036024359161099f83610198565b604435926109ac84610198565b6109d16064356109bb816104f4565b608435956109ca87151561136a565b838561178f565b610a59610a4785610a3f610a26610a00865f52600660205260405f2054906001600160801b0382169160801c90565b9990610a1f610a17895f52600560205260405f2090565b5415156113b6565b168a611441565b610a38865f52600560205260405f2090565b5490611454565b961687611441565b610a38835f52600560205260405f2090565b94841580610afd575b610ae457610ad39392610acc8383610a7d89958b97336117eb565b610a9a610a92835f52600560205260405f2090565b91825461122e565b9055610ab16001600160801b038516600f0b611472565b610ac66001600160801b038716600f0b611472565b9161186a565b33936118c0565b604080519182526020820192909252f35b63d5de620560e01b5f526004859052602486905260445ffd5b508515610a62565b346101a95760203660031901126101a95760ff610b206103d8565b16610b2d60108210611248565b5f526003602052602060018060a01b0360405f205416604051908152f35b60e03660031901126101a957600435610b6381610198565b6024358091610b7182610198565b604435610b7d81610198565b60643590610b8a826104f4565b60843560a43592610b9a8461044e565b81848660c435935f5160206124b05f395f51905f5260405180610bc98782919060206040840193600181520152565b0390a1610bd881888c8561178f565b968315610eb757825b33863490610bee936118f1565b60405180610c088a82919060206040840193600281520152565b035f5160206124b05f395f51905f5291a15f888152600660205260409020546001600160801b0381169060801c9b819682936001600160801b038f969416610c509060801b90565b60408051600381526001600160801b0389169290921760208301525f5160206124b05f395f51905f5291a1610c836114ee565b90610c8c6114ee565b93610c956114cd565b6001600160a01b0390991689526001600160a01b031660208901526001600160a01b0316604088015260608701908152871515608088015260a0870192835251610cde90611510565b5251610ce990611510565b6001600160e81b03199091169052610d0092611bad565b50610d4092908015610e6f579889915b5f5160206124b05f395f51905f5260405180610d388682919060206040840193600481520152565b0390a1611f97565b808610610e58575091610db1610dea949261030a97945f5160206124b05f395f51905f5260405180610d7d81905f60206040840193600581520152565b0390a18315610e3d576001600160801b038116600f0b905b8415610e2b5750610ac66001600160801b038916600f0b611472565b5f5160206124b05f395f51905f5260405180610dd881905f60206040840193600681520152565b0390a115610e2457505b823391611910565b5f5160206124b05f395f51905f5260405180610e1181905f60206040840193600781520152565b0390a16040519081529081906020820190565b9050610de2565b6001600160801b0316600f0b9161186a565b610e526001600160801b038916600f0b611472565b90610d95565b63d438755d60e01b5f52600452602485905260445ffd5b508115610e9857610e90610e828661141d565b670de0b6b3a7640000900490565b988991610d10565b610eb2610ea4866113f9565b67120a871cc0020000900490565b610e90565b8a610be1565b60c03660031901126101a957600435610ed581610198565b602435610ee181610198565b60443590610eee82610198565b60643591610efb836104f4565b610f0d6084359360a43592848761178f565b90610f30825f52600660205260405f2054906001600160801b0382169160801c90565b90835f52600560205260405f2054155f14610fd0575050610f51818561123b565b935b8415610fc1576001600160801b038083610f7c610fa49761030a9a610f8b97873393349361191b565b16600f0b9116600f0b8361186a565b610f96838233612016565b5f52600560205260405f2090565b610faf82825461123b565b90556040519081529081906020820190565b63283eeadf60e01b5f5260045ffd5b670de0b6b3a76400008302838104670de0b6b3a7640000148415171561030e5767120a871cc0020000900486019081871161030e57611039611053916001600160801b03611032610ea461102661105898611fee565b6001600160801b031690565b911661123b565b9161104c865f52600560205260405f2090565b5490611441565b611454565b93610f53565b346101a95760803660031901126101a95760043561107b81610198565b60243561108781610198565b604435915f5160206124905f395f51905f526102fa606435936001600160a01b038416936110e99087906110dc9033881415806111d8575b611148576001600160a01b03165f90815260016020526040902090565b905f5260205260405f2090565b6110f486825461122e565b90556001600160a01b0381165f9081526001602052604090206111189087906110dc565b61112386825461123b565b90556040805133815260208101969096526001600160a01b0390911694918291820190565b61117f836110dc3361116a8560018060a01b03165f52600260205260405f2090565b9060018060a01b03165f5260205260405f2090565b5489600182016111a5575b50506001600160a01b03165f90815260016020526040902090565b6111ae9161122e565b6111d0846110dc3361116a8660018060a01b03165f52600260205260405f2090565b555f8961118a565b506112076112036111fc3361116a8560018060a01b03165f525f60205260405f2090565b5460ff1690565b1590565b6110bf565b634e487b7160e01b5f52601160045260245ffd5b5f1981019190821161030e57565b9190820391821161030e57565b9190820180921161030e57565b1561124f57565b60405162461bcd60e51b815260206004820152601d60248201527f496e76616c696420706f696e7465723a206d75737420626520302d31350000006044820152606490fd5b634e487b7160e01b5f52603260045260245ffd5b91908110156112b85760a0020190565b611294565b91939293811561133b5791905f915b8183106112f85750505080928082106112e3575050565b63d438755d60e01b5f5260045260245260445ffd5b90919261132b600191851561130c86611220565b87149061131a8888886112a8565b9281156113345734905b339461153e565b930191906112cc565b5f90611324565b60405162461bcd60e51b81526020600482015260076024820152664e6f20686f707360c81b6044820152606490fd5b1561137157565b60405162461bcd60e51b815260206004820152601860248201527f496e76616c6964206c697175696469747920616d6f756e7400000000000000006044820152606490fd5b156113bd57565b60405162461bcd60e51b8152602060048201526014602482015273139bc81b1a5c5d5a591a5d1e481a5b881c1bdbdb60621b6044820152606490fd5b90670de0b6b3a7640000820291808304670de0b6b3a7640000149015171561030e57565b9067120a871cc002000082029180830467120a871cc0020000149015171561030e57565b8181029291811591840414171561030e57565b811561145e570490565b634e487b7160e01b5f52601260045260245ffd5b600f0b6f7fffffffffffffffffffffffffffffff19811461030e575f0390565b634e487b7160e01b5f52604160045260245ffd5b90601f8019910116810190811067ffffffffffffffff8211176114c857604052565b611492565b604051906114dc60c0836114a6565b565b604051906114dc610100836114a6565b604080519091906114ff83826114a6565b6001815291601f1901366020840137565b8051156112b85760200190565b3561152781610198565b90565b35611527816104f4565b356115278161044e565b9594929593919361154e8161151d565b92602082019261155d8461151d565b968661158460408601976115708961151d565b606088019b61157e8d61152a565b9261178f565b9a61175a575b50505f898152600660205260409020546001600160801b0381169060801c9990958a876115b56114ee565b9a856115c08d611510565b526115c96114ee565b906115d39061152a565b6115dc82611510565b6001600160e81b031990911690526115f38861151d565b936115fd8a61151d565b906116079061151d565b9c60808a019d6116168f611534565b9261161f6114cd565b6001600160a01b0390981688526001600160a01b031660208801526001600160a01b0316604087015260608601521515608085015260a084015261166292611bad565b506116c7929080156117225761168690975b88809d6116808d611534565b92611f97565b61168f89611534565b15611707576001600160801b038116600f0b905b6116ac8a611534565b15610e2b5750610ac66001600160801b038816600f0b611472565b6116d3575b5050505050565b6116df6116f395611534565b156116fd57506116ee9061151d565b611910565b5f808080806116cc565b6116ee915061151d565b61171c6001600160801b038816600f0b611472565b906116a3565b5061172c89611534565b1561174657611686611740610e828361141d565b97611674565b611686611755610ea4836113f9565b611740565b61177e9161176a60808701611534565b1561178557836117798761151d565b6118f1565b5f8661158a565b836117798861151d565b604051606091821b6bffffffffffffffffffffffff199081166020830190815293831b811660348301529390911b90921660488301526001600160e81b0319909216605c820152603f81526117e5605f826114a6565b51902090565b91909160018060a01b0316805f52600160205260405f20835f5260205260405f2080549083820391821161030e57556040805133815260208101939093525f925f5160206124905f395f51905f5291819081015b0390a4565b90600f0b90600f0b019060016001607f1b0319821260016001607f1b0383131761030e57565b9091815f5260066020526001600160801b0361189d61189360405f205495838716600f0b611844565b928560801d611844565b81199060801b169116179182036118b2575050565b5f52600660205260405f2055565b90939182816118e0575b505050816118d757505050565b6114dc926120c8565b6118e9926120c8565b5f80826118ca565b92816118fe575b50505050565b611907936121cf565b5f8080806118f8565b91816118d757505050565b9193909385816119f6575b5050505080159182156119395750505050565b6001600160a01b031680611953575050611907915061218e565b602092506119a293611965600161214f565b6040516323b872dd60e01b81526001600160a01b0390911660048201523060248201526044810192909252909283919082905f9082906064820190565b03925af180156119f1576119bd915f916119c2575b50612084565b611907565b6119e4915060203d6020116119ea575b6119dc81836114a6565b81019061206f565b5f6119b7565b503d6119d2565b611b5b565b6119ff936121cf565b5f808085611926565b15611a0f57565b60405162461bcd60e51b8152602060048201526015602482015274416c7068612061646472657373206973207a65726f60581b6044820152606490fd5b15611a5357565b60405162461bcd60e51b8152602060048201526014602482015273426574612061646472657373206973207a65726f60601b6044820152606490fd5b908160209103126101a9575190565b80516001600160a01b03908116835260208083015182169084015260408083015190911690830152606080820151908301526080808201516001600160801b0316908301526114dc919060e090819060a0818101516001600160801b03169085015260c08181015161ffff169085015201511515910152565b805180835260209291819084018484015e5f828201840152601f01601f1916010190565b80611b4d610120926115279594611a9e565b816101008201520190611b17565b6040513d5f823e3d90fd5b610100810192916114dc9190611a9e565b91611b9e90611b8a846115279694611a9e565b610140610100850152610140840190611b17565b91610120818403910152611b17565b8051611c05935f9390916001600160a01b0316936020840194611c1f611c1a611c05611c13611be28a5160018060a01b031690565b60408a018051909691906001600160a01b03169061157e60a08d019e8f51611510565b516001600160e81b03191690565b9951611510565b612244565b90611c2d6040830151151590565b15611f6c577f0000000000000000000000000000000000000000000000000000000000000000955b606083015115611f34577f0000000000000000000000000000000000000000000000000000000000000000955b611c966001600160a01b0389161515611a08565b611caa6001600160a01b0388161515611a4c565b81516001600160a01b031698516001600160a01b031692516001600160a01b0316956060830151611cda90611510565b5160c086015161ffff16608090940151151594611cf56114de565b6001600160a01b03909c168c526001600160a01b031660208c01526001600160a01b0390971660408b019081529660608b01526001600160801b031660808a01526001600160801b031660a089015261ffff1660c0880152151560e087015280511515908180611f27575b15611e06575050509183915f611da784611da1611dc598611d9b611d8f611d8f60209b5160018060a01b031690565b6001600160a01b031690565b96612367565b93612367565b6040516301eebc2d60e11b8152968795869485939160048501611b77565b03925af19081156119f1575f91611dda575091565b611dfc915060203d602011611dff575b611df481836114a6565b810190611a8f565b91565b503d611dea565b92949391928115918280611f11575b15611e5a57505050505050611dc55f92611e3d611d8f611d8f6020955160018060a01b031690565b9060405194858094819363160f04bd60e21b835260048301611b66565b94959480611efb575b15611eb1575050505091602091611e9382611e8d611d8f611d8f611dc5985160018060a01b031690565b92612367565b915f6040518096819582946305e3344d60e41b845260048401611b3b565b929795945090929181611eed575b50611ec957505050565b611dc593955090611e9383611e8d611d8f611d8f602097965160018060a01b031690565b60200151151590505f611ebf565b50611f0c6112036020830151151590565b611e63565b50611f226112036020840151151590565b611e15565b5060208101511515611d60565b611f66611f59611f4860a086015160ff1690565b60ff165f52600460205260405f2090565b546001600160a01b031690565b95611c82565b611f91611f59611f80608085015160ff1690565b60ff165f52600360205260405f2090565b95611c55565b6001600160801b0392935f14611fca57501690808210611fb5575050565b630173586760e01b5f5260045260245260445ffd5b90501690808210611fd9575050565b6368580a1960e01b5f5260045260245260445ffd5b6001600160801b03670de0b6b3a7640000911602906001600160801b03821691820361030e57565b91909160018060a01b031690815f52600160205260405f20835f5260205260405f2080549082820180921161030e57556040805133815260208101929092525f915f5160206124905f395f51905f52918190810161183f565b908160209103126101a957516115278161044e565b1561208b57565b60405162461bcd60e51b8152602060048201526015602482015274115490cc8c081d1c985b9cd9995c8819985a5b1959605a1b6044820152606490fd5b6001600160a01b03168061210257505f8080938193829082156120f8575b6001600160a01b031690f1156119f157565b6108fc91506120e6565b60405163a9059cbb60e01b81526001600160a01b0390921660048301526024820192909252906020908290815f81604481015b03925af180156119f1576114dc915f916119c25750612084565b1561215657565b60405162461bcd60e51b815260206004820152601060248201526f115512081b9bdd08195e1c1958dd195960821b6044820152606490fd5b1561219557565b60405162461bcd60e51b8152602060048201526012602482015271125b98dbdc9c9958dd08115512081cd95b9d60721b6044820152606490fd5b9092906001600160a01b0316806121ec57506114dc92501461218e565b61213593611965602094931561214f565b6040519060e0820182811067ffffffffffffffff8211176114c8576040525f60c0838281528260208201528260408201528260608201528260808201528260a08201520152565b611527610fff6122e86122556121fd565b9360e81c612275600161226e83627fffff9060011c1690565b1615158652565b60018116151560208601526122a561229c6001600284901c623fffff165b1662ffffff1690565b15156040870152565b6122c56122bc6001600384901c621fffff16612293565b15156060870152565b600f600482901c81166080870152600882901c1660a0860152600c1c610fff1690565b1661ffff1660c0830152565b6020818303126101a95780519067ffffffffffffffff82116101a9570181601f820112156101a95780519067ffffffffffffffff82116114c85760405192612346601f8401601f1916602001856114a6565b828452602083830101116101a957815f9260208093018386015e8301015290565b606091815c801580612446575b15612400575b5082511561238757505090565b604051633bd1104b60e01b815292505f90839081906123a99060048301611b66565b0381836001600160a01b0386165af19182156119f1575f926123dc575b508180516123d357505090565b6115279161245b565b6123f99192503d805f833e6123f181836114a6565b8101906122f4565b905f6123c6565b9250601f60405193808552018060051c5f5b81811061242d575050601f191683016020016040525f61237a565b80600180928701015c60208260051b8901015201612412565b9350604051935f855260208501604052612374565b601f825180835d0160051c915f5b8381106124765750505050565b80602060019260051b8401015182828601015d0161246956fe1b3d7edb2e9c0b0e7c525b20aaaef0f5940d2ed71663c7d39266ecafac728859b6bbc7eec4140798b63d438d8f58ee3a60d3257379d24e11515c329bed0c825ea264697066735822122027d593c66353c286a974ae12c774df806a4a43a0d41a1603189c6fe13e21c80064736f6c634300081e0033","opcodes":"PUSH1 0xC0 CALLVALUE PUSH2 0x88 JUMPI PUSH1 0x1F PUSH2 0x25BA CODESIZE DUP2 SWAP1 SUB SWAP2 DUP3 ADD PUSH1 0x1F NOT AND DUP4 ADD SWAP2 PUSH1 0x1 PUSH1 0x1 PUSH1 0x40 SHL SUB DUP4 GT DUP5 DUP5 LT OR PUSH2 0x8C JUMPI DUP1 DUP5 SWAP3 PUSH1 0x40 SWAP5 DUP6 MSTORE DUP4 CODECOPY DUP2 ADD SUB SLT PUSH2 0x88 JUMPI PUSH2 0x52 PUSH1 0x20 PUSH2 0x4B DUP4 PUSH2 0xA0 JUMP JUMPDEST SWAP3 ADD PUSH2 0xA0 JUMP JUMPDEST SWAP1 PUSH1 0x80 MSTORE PUSH1 0xA0 MSTORE PUSH1 0x40 MLOAD PUSH2 0x2505 SWAP1 DUP2 PUSH2 0xB5 DUP3 CODECOPY PUSH1 0x80 MLOAD DUP2 DUP2 DUP2 PUSH2 0x83D ADD MSTORE PUSH2 0x1C34 ADD MSTORE PUSH1 0xA0 MLOAD DUP2 DUP2 DUP2 PUSH2 0x328 ADD MSTORE PUSH2 0x1C61 ADD MSTORE RETURN JUMPDEST PUSH0 DUP1 REVERT JUMPDEST PUSH4 0x4E487B71 PUSH1 0xE0 SHL PUSH0 MSTORE PUSH1 0x41 PUSH1 0x4 MSTORE PUSH1 0x24 PUSH0 REVERT JUMPDEST MLOAD SWAP1 PUSH1 0x1 PUSH1 0x1 PUSH1 0xA0 SHL SUB DUP3 AND DUP3 SUB PUSH2 0x88 JUMPI JUMP INVALID PUSH1 0x80 PUSH1 0x40 MSTORE PUSH1 0x4 CALLDATASIZE LT ISZERO PUSH2 0x11 JUMPI PUSH0 DUP1 REVERT JUMPDEST PUSH0 CALLDATALOAD PUSH1 0xE0 SHR DUP1 PUSH3 0xFDD58E EQ PUSH2 0x193 JUMPI DUP1 PUSH4 0x1FFC9A7 EQ PUSH2 0x18E JUMPI DUP1 PUSH4 0x95BCDB6 EQ PUSH2 0x189 JUMPI DUP1 PUSH4 0x19920A5F EQ PUSH2 0x184 JUMPI DUP1 PUSH4 0x426A8493 EQ PUSH2 0x17F JUMPI DUP1 PUSH4 0x460C6DF8 EQ PUSH2 0x17A JUMPI DUP1 PUSH4 0x558A7297 EQ PUSH2 0x175 JUMPI DUP1 PUSH4 0x5670F55A EQ PUSH2 0x170 JUMPI DUP1 PUSH4 0x598AF9E7 EQ PUSH2 0x16B JUMPI DUP1 PUSH4 0x5B298D32 EQ PUSH2 0x166 JUMPI DUP1 PUSH4 0x61408F26 EQ PUSH2 0x161 JUMPI DUP1 PUSH4 0x7DC27C95 EQ PUSH2 0x15C JUMPI DUP1 PUSH4 0x83E66C2E EQ PUSH2 0x157 JUMPI DUP1 PUSH4 0x8785BEC0 EQ PUSH2 0x152 JUMPI DUP1 PUSH4 0x8E832E08 EQ PUSH2 0x14D JUMPI DUP1 PUSH4 0xA1A44DAD EQ PUSH2 0x148 JUMPI DUP1 PUSH4 0xB5E60C3C EQ PUSH2 0x143 JUMPI DUP1 PUSH4 0xB6363CF2 EQ PUSH2 0x13E JUMPI DUP1 PUSH4 0xB69E3992 EQ PUSH2 0x139 JUMPI DUP1 PUSH4 0xCB1F2F38 EQ PUSH2 0x134 JUMPI DUP1 PUSH4 0xD2615FC8 EQ PUSH2 0x12F JUMPI DUP1 PUSH4 0xD92BC84C EQ PUSH2 0x12A JUMPI DUP1 PUSH4 0xE513315B EQ PUSH2 0x125 JUMPI PUSH4 0xFE99049A EQ PUSH2 0x120 JUMPI PUSH0 DUP1 REVERT JUMPDEST PUSH2 0x105E JUMP JUMPDEST PUSH2 0xEBD JUMP JUMPDEST PUSH2 0xB4B JUMP JUMPDEST PUSH2 0xB05 JUMP JUMPDEST PUSH2 0x96D JUMP JUMPDEST PUSH2 0x8F9 JUMP JUMPDEST PUSH2 0x896 JUMP JUMPDEST PUSH2 0x86C JUMP JUMPDEST PUSH2 0x828 JUMP JUMPDEST PUSH2 0x7E3 JUMP JUMPDEST PUSH2 0x798 JUMP JUMPDEST PUSH2 0x726 JUMP JUMPDEST PUSH2 0x6C2 JUMP JUMPDEST PUSH2 0x67D JUMP JUMPDEST PUSH2 0x62D JUMP JUMPDEST PUSH2 0x5C0 JUMP JUMPDEST PUSH2 0x506 JUMP JUMPDEST PUSH2 0x458 JUMP JUMPDEST PUSH2 0x3E8 JUMP JUMPDEST PUSH2 0x357 JUMP JUMPDEST PUSH2 0x313 JUMP JUMPDEST PUSH2 0x26F JUMP JUMPDEST PUSH2 0x1F6 JUMP JUMPDEST PUSH2 0x1AD JUMP JUMPDEST PUSH1 0x1 PUSH1 0x1 PUSH1 0xA0 SHL SUB DUP2 AND SUB PUSH2 0x1A9 JUMPI JUMP JUMPDEST PUSH0 DUP1 REVERT JUMPDEST CALLVALUE PUSH2 0x1A9 JUMPI PUSH1 0x40 CALLDATASIZE PUSH1 0x3 NOT ADD SLT PUSH2 0x1A9 JUMPI PUSH1 0x4 CALLDATALOAD PUSH2 0x1CA DUP2 PUSH2 0x198 JUMP JUMPDEST PUSH1 0x24 CALLDATALOAD SWAP1 PUSH1 0x1 DUP1 PUSH1 0xA0 SHL SUB AND PUSH0 MSTORE PUSH1 0x1 PUSH1 0x20 MSTORE PUSH1 0x40 PUSH0 KECCAK256 SWAP1 PUSH0 MSTORE PUSH1 0x20 MSTORE PUSH1 0x20 PUSH1 0x40 PUSH0 KECCAK256 SLOAD PUSH1 0x40 MLOAD SWAP1 DUP2 MSTORE RETURN JUMPDEST CALLVALUE PUSH2 0x1A9 JUMPI PUSH1 0x20 CALLDATASIZE PUSH1 0x3 NOT ADD SLT PUSH2 0x1A9 JUMPI PUSH1 0x4 CALLDATALOAD PUSH4 0xFFFFFFFF PUSH1 0xE0 SHL DUP2 AND DUP1 SWAP2 SUB PUSH2 0x1A9 JUMPI PUSH1 0x20 SWAP1 PUSH4 0x1FFC9A7 PUSH1 0xE0 SHL DUP2 EQ SWAP1 DUP2 ISZERO PUSH2 0x23B JUMPI JUMPDEST POP PUSH1 0x40 MLOAD SWAP1 ISZERO ISZERO DUP2 MSTORE RETURN JUMPDEST PUSH4 0xF632FB3 PUSH1 0xE0 SHL EQ SWAP1 POP PUSH0 PUSH2 0x230 JUMP JUMPDEST PUSH1 0x60 SWAP1 PUSH1 0x3 NOT ADD SLT PUSH2 0x1A9 JUMPI PUSH1 0x4 CALLDATALOAD PUSH2 0x264 DUP2 PUSH2 0x198 JUMP JUMPDEST SWAP1 PUSH1 0x24 CALLDATALOAD SWAP1 PUSH1 0x44 CALLDATALOAD SWAP1 JUMP JUMPDEST CALLVALUE PUSH2 0x1A9 JUMPI PUSH2 0x27D CALLDATASIZE PUSH2 0x24C JUMP JUMPDEST SWAP1 SWAP2 CALLER PUSH0 MSTORE PUSH1 0x1 PUSH1 0x20 MSTORE PUSH1 0x40 PUSH0 KECCAK256 DUP4 PUSH0 MSTORE PUSH1 0x20 MSTORE PUSH1 0x40 PUSH0 KECCAK256 DUP1 SLOAD SWAP1 DUP4 DUP3 SUB SWAP2 DUP3 GT PUSH2 0x30E JUMPI SSTORE PUSH1 0x1 DUP1 PUSH1 0xA0 SHL SUB AND SWAP1 DUP2 PUSH0 MSTORE PUSH1 0x1 PUSH1 0x20 MSTORE PUSH2 0x2C9 DUP4 PUSH1 0x40 PUSH0 KECCAK256 SWAP1 PUSH0 MSTORE PUSH1 0x20 MSTORE PUSH1 0x40 PUSH0 KECCAK256 SWAP1 JUMP JUMPDEST PUSH2 0x2D4 DUP3 DUP3 SLOAD PUSH2 0x123B JUMP JUMPDEST SWAP1 SSTORE PUSH1 0x40 DUP1 MLOAD CALLER DUP1 DUP3 MSTORE PUSH1 0x20 DUP3 ADD SWAP4 SWAP1 SWAP4 MSTORE PUSH0 MLOAD PUSH1 0x20 PUSH2 0x2490 PUSH0 CODECOPY PUSH0 MLOAD SWAP1 PUSH0 MSTORE SWAP2 DUP2 SWAP1 DUP2 ADD JUMPDEST SUB SWAP1 LOG4 PUSH1 0x40 MLOAD PUSH1 0x1 DUP2 MSTORE DUP1 PUSH1 0x20 DUP2 ADD JUMPDEST SUB SWAP1 RETURN JUMPDEST PUSH2 0x120C JUMP JUMPDEST CALLVALUE PUSH2 0x1A9 JUMPI PUSH0 CALLDATASIZE PUSH1 0x3 NOT ADD SLT PUSH2 0x1A9 JUMPI PUSH1 0x40 MLOAD PUSH32 0x0 PUSH1 0x1 PUSH1 0x1 PUSH1 0xA0 SHL SUB AND DUP2 MSTORE PUSH1 0x20 SWAP1 RETURN JUMPDEST CALLVALUE PUSH2 0x1A9 JUMPI PUSH2 0x365 CALLDATASIZE PUSH2 0x24C JUMP JUMPDEST SWAP1 SWAP2 CALLER PUSH0 MSTORE PUSH1 0x2 PUSH1 0x20 MSTORE PUSH2 0x38C DUP2 PUSH1 0x40 PUSH0 KECCAK256 SWAP1 PUSH1 0x1 DUP1 PUSH1 0xA0 SHL SUB AND PUSH0 MSTORE PUSH1 0x20 MSTORE PUSH1 0x40 PUSH0 KECCAK256 SWAP1 JUMP JUMPDEST DUP4 PUSH0 MSTORE PUSH1 0x20 MSTORE DUP2 PUSH1 0x40 PUSH0 KECCAK256 SSTORE PUSH1 0x40 MLOAD SWAP2 DUP3 MSTORE PUSH1 0x1 DUP1 PUSH1 0xA0 SHL SUB AND SWAP1 PUSH32 0xB3FD5071835887567A0671151121894DDCCC2842F1D10BEDAD13E0D17CACE9A7 PUSH1 0x20 CALLER SWAP3 LOG4 PUSH1 0x20 PUSH1 0x40 MLOAD PUSH1 0x1 DUP2 MSTORE RETURN JUMPDEST PUSH1 0x4 CALLDATALOAD SWAP1 PUSH1 0xFF DUP3 AND DUP3 SUB PUSH2 0x1A9 JUMPI JUMP JUMPDEST CALLVALUE PUSH2 0x1A9 JUMPI PUSH1 0x40 CALLDATASIZE PUSH1 0x3 NOT ADD SLT PUSH2 0x1A9 JUMPI PUSH2 0x44C PUSH2 0x404 PUSH2 0x3D8 JUMP JUMPDEST PUSH1 0xFF PUSH1 0x24 CALLDATALOAD SWAP2 PUSH2 0x413 DUP4 PUSH2 0x198 JUMP JUMPDEST AND PUSH2 0x420 PUSH1 0x10 DUP3 LT PUSH2 0x1248 JUMP JUMPDEST PUSH0 MSTORE PUSH1 0x3 PUSH1 0x20 MSTORE PUSH1 0x40 PUSH0 KECCAK256 SWAP1 PUSH1 0x1 DUP1 PUSH1 0xA0 SHL SUB AND PUSH12 0xFFFFFFFFFFFFFFFFFFFFFFFF PUSH1 0xA0 SHL DUP3 SLOAD AND OR SWAP1 SSTORE JUMP JUMPDEST STOP JUMPDEST DUP1 ISZERO ISZERO SUB PUSH2 0x1A9 JUMPI JUMP JUMPDEST CALLVALUE PUSH2 0x1A9 JUMPI PUSH1 0x40 CALLDATASIZE PUSH1 0x3 NOT ADD SLT PUSH2 0x1A9 JUMPI PUSH1 0x4 CALLDATALOAD PUSH2 0x475 DUP2 PUSH2 0x198 JUMP JUMPDEST PUSH1 0x24 CALLDATALOAD SWAP1 PUSH2 0x482 DUP3 PUSH2 0x44E JUMP JUMPDEST CALLER PUSH0 SWAP1 DUP2 MSTORE PUSH1 0x20 DUP2 DUP2 MSTORE PUSH1 0x40 DUP1 DUP4 KECCAK256 PUSH1 0x1 PUSH1 0x1 PUSH1 0xA0 SHL SUB DUP6 AND DUP5 MSTORE SWAP1 SWAP2 MSTORE SWAP1 KECCAK256 SWAP2 ISZERO ISZERO SWAP2 PUSH1 0xFF NOT DUP2 SLOAD AND PUSH1 0xFF DUP5 AND OR SWAP1 SSTORE PUSH1 0x40 MLOAD SWAP2 DUP3 MSTORE PUSH1 0x1 DUP1 PUSH1 0xA0 SHL SUB AND SWAP1 PUSH32 0xCEB576D9F15E4E200FDB5096D64D5DFD667E16DEF20C1EEFD14256D8E3FAA267 PUSH1 0x20 CALLER SWAP3 LOG3 PUSH1 0x40 MLOAD PUSH1 0x1 DUP2 MSTORE PUSH1 0x20 SWAP1 RETURN JUMPDEST PUSH1 0x1 PUSH1 0x1 PUSH1 0xE8 SHL SUB NOT DUP2 AND SUB PUSH2 0x1A9 JUMPI JUMP JUMPDEST CALLVALUE PUSH2 0x1A9 JUMPI PUSH1 0x80 CALLDATASIZE PUSH1 0x3 NOT ADD SLT PUSH2 0x1A9 JUMPI PUSH2 0x30A PUSH1 0x4 CALLDATALOAD PUSH2 0x526 DUP2 PUSH2 0x198 JUMP JUMPDEST PUSH1 0x24 CALLDATALOAD PUSH2 0x532 DUP2 PUSH2 0x198 JUMP JUMPDEST PUSH32 0x68DF9A4EB7AACBE8F43763BFBC9F7CA135A5397190EA1CCE2558DB52DC2F3692 PUSH1 0x80 PUSH1 0x44 CALLDATALOAD SWAP4 PUSH2 0x562 DUP6 PUSH2 0x198 JUMP JUMPDEST PUSH1 0x64 CALLDATALOAD PUSH2 0x56E DUP2 PUSH2 0x4F4 JUMP JUMPDEST PUSH2 0x57A DUP2 DUP8 DUP8 DUP6 PUSH2 0x178F JUMP JUMPDEST PUSH1 0x40 DUP1 MLOAD PUSH1 0x1 PUSH1 0x1 PUSH1 0xA0 SHL SUB SWAP5 DUP6 AND DUP2 MSTORE SWAP7 DUP5 AND PUSH1 0x20 DUP9 ADD MSTORE SWAP3 SWAP1 SWAP7 AND SWAP2 DUP6 ADD SWAP2 SWAP1 SWAP2 MSTORE PUSH1 0x1 PUSH1 0x1 PUSH1 0xE8 SHL SUB NOT AND PUSH1 0x60 DUP5 ADD MSTORE DUP4 SWAP3 LOG2 PUSH1 0x40 MLOAD SWAP1 DUP2 MSTORE SWAP1 DUP2 SWAP1 PUSH1 0x20 DUP3 ADD SWAP1 JUMP JUMPDEST CALLVALUE PUSH2 0x1A9 JUMPI PUSH1 0x60 CALLDATASIZE PUSH1 0x3 NOT ADD SLT PUSH2 0x1A9 JUMPI PUSH1 0x4 CALLDATALOAD PUSH2 0x5DD DUP2 PUSH2 0x198 JUMP JUMPDEST PUSH2 0x618 PUSH1 0x24 CALLDATALOAD PUSH2 0x5EC DUP2 PUSH2 0x198 JUMP JUMPDEST PUSH1 0x44 CALLDATALOAD SWAP3 PUSH1 0x1 DUP1 PUSH1 0xA0 SHL SUB AND PUSH0 MSTORE PUSH1 0x2 PUSH1 0x20 MSTORE PUSH1 0x40 PUSH0 KECCAK256 SWAP1 PUSH1 0x1 DUP1 PUSH1 0xA0 SHL SUB AND PUSH0 MSTORE PUSH1 0x20 MSTORE PUSH1 0x40 PUSH0 KECCAK256 SWAP1 JUMP JUMPDEST SWAP1 PUSH0 MSTORE PUSH1 0x20 MSTORE PUSH1 0x20 PUSH1 0x40 PUSH0 KECCAK256 SLOAD PUSH1 0x40 MLOAD SWAP1 DUP2 MSTORE RETURN JUMPDEST CALLVALUE PUSH2 0x1A9 JUMPI PUSH1 0x20 CALLDATASIZE PUSH1 0x3 NOT ADD SLT PUSH2 0x1A9 JUMPI PUSH1 0x40 PUSH1 0x1 PUSH1 0x1 PUSH1 0x80 SHL SUB PUSH2 0x66C PUSH1 0x4 CALLDATALOAD PUSH0 MSTORE PUSH1 0x6 PUSH1 0x20 MSTORE PUSH1 0x40 PUSH0 KECCAK256 SLOAD SWAP1 PUSH1 0x1 PUSH1 0x1 PUSH1 0x80 SHL SUB DUP3 AND SWAP2 PUSH1 0x80 SHR SWAP1 JUMP JUMPDEST DUP4 MLOAD SWAP2 DUP4 AND DUP3 MSTORE SWAP1 SWAP2 AND PUSH1 0x20 DUP3 ADD MSTORE RETURN JUMPDEST CALLVALUE PUSH2 0x1A9 JUMPI PUSH1 0x20 CALLDATASIZE PUSH1 0x3 NOT ADD SLT PUSH2 0x1A9 JUMPI PUSH1 0xFF PUSH2 0x698 PUSH2 0x3D8 JUMP JUMPDEST AND PUSH2 0x6A5 PUSH1 0x10 DUP3 LT PUSH2 0x1248 JUMP JUMPDEST PUSH0 SWAP1 DUP2 MSTORE PUSH1 0x4 PUSH1 0x20 MSTORE PUSH1 0x40 SWAP1 KECCAK256 DUP1 SLOAD PUSH1 0x1 PUSH1 0x1 PUSH1 0xA0 SHL SUB NOT AND SWAP1 SSTORE STOP JUMPDEST CALLVALUE PUSH2 0x1A9 JUMPI PUSH1 0x40 CALLDATASIZE PUSH1 0x3 NOT ADD SLT PUSH2 0x1A9 JUMPI PUSH2 0x44C PUSH2 0x6DE PUSH2 0x3D8 JUMP JUMPDEST PUSH1 0xFF PUSH1 0x24 CALLDATALOAD SWAP2 PUSH2 0x6ED DUP4 PUSH2 0x198 JUMP JUMPDEST AND PUSH2 0x6FA PUSH1 0x10 DUP3 LT PUSH2 0x1248 JUMP JUMPDEST PUSH0 MSTORE PUSH1 0x4 PUSH1 0x20 MSTORE PUSH1 0x40 PUSH0 KECCAK256 SWAP1 PUSH1 0x1 DUP1 PUSH1 0xA0 SHL SUB AND PUSH12 0xFFFFFFFFFFFFFFFFFFFFFFFF PUSH1 0xA0 SHL DUP3 SLOAD AND OR SWAP1 SSTORE JUMP JUMPDEST CALLVALUE PUSH2 0x1A9 JUMPI PUSH1 0x20 CALLDATASIZE PUSH1 0x3 NOT ADD SLT PUSH2 0x1A9 JUMPI PUSH1 0xFF PUSH2 0x741 PUSH2 0x3D8 JUMP JUMPDEST AND PUSH2 0x74E PUSH1 0x10 DUP3 LT PUSH2 0x1248 JUMP JUMPDEST PUSH0 MSTORE PUSH1 0x4 PUSH1 0x20 MSTORE PUSH1 0x20 PUSH1 0x1 DUP1 PUSH1 0xA0 SHL SUB PUSH1 0x40 PUSH0 KECCAK256 SLOAD AND PUSH1 0x40 MLOAD SWAP1 DUP2 MSTORE RETURN JUMPDEST PUSH1 0x44 CALLDATALOAD SWAP1 PUSH1 0x1 PUSH1 0x1 PUSH1 0x80 SHL SUB DUP3 AND DUP3 SUB PUSH2 0x1A9 JUMPI JUMP JUMPDEST PUSH1 0x64 CALLDATALOAD SWAP1 PUSH1 0x1 PUSH1 0x1 PUSH1 0x80 SHL SUB DUP3 AND DUP3 SUB PUSH2 0x1A9 JUMPI JUMP JUMPDEST CALLVALUE PUSH2 0x1A9 JUMPI PUSH1 0x80 CALLDATASIZE PUSH1 0x3 NOT ADD SLT PUSH2 0x1A9 JUMPI PUSH2 0x7B4 PUSH1 0x4 CALLDATALOAD PUSH2 0x198 JUMP JUMPDEST PUSH2 0x7BF PUSH1 0x24 CALLDATALOAD PUSH2 0x198 JUMP JUMPDEST PUSH2 0x7C7 PUSH2 0x76C JUMP JUMPDEST POP PUSH2 0x7D0 PUSH2 0x782 JUMP JUMPDEST POP PUSH1 0x20 PUSH1 0x40 MLOAD PUSH8 0x120A871CC0020000 DUP2 MSTORE RETURN JUMPDEST CALLVALUE PUSH2 0x1A9 JUMPI PUSH1 0x20 CALLDATASIZE PUSH1 0x3 NOT ADD SLT PUSH2 0x1A9 JUMPI PUSH1 0xFF PUSH2 0x7FE PUSH2 0x3D8 JUMP JUMPDEST AND PUSH2 0x80B PUSH1 0x10 DUP3 LT PUSH2 0x1248 JUMP JUMPDEST PUSH0 SWAP1 DUP2 MSTORE PUSH1 0x3 PUSH1 0x20 MSTORE PUSH1 0x40 SWAP1 KECCAK256 DUP1 SLOAD PUSH1 0x1 PUSH1 0x1 PUSH1 0xA0 SHL SUB NOT AND SWAP1 SSTORE STOP JUMPDEST CALLVALUE PUSH2 0x1A9 JUMPI PUSH0 CALLDATASIZE PUSH1 0x3 NOT ADD SLT PUSH2 0x1A9 JUMPI PUSH1 0x40 MLOAD PUSH32 0x0 PUSH1 0x1 PUSH1 0x1 PUSH1 0xA0 SHL SUB AND DUP2 MSTORE PUSH1 0x20 SWAP1 RETURN JUMPDEST CALLVALUE PUSH2 0x1A9 JUMPI PUSH1 0x20 CALLDATASIZE PUSH1 0x3 NOT ADD SLT PUSH2 0x1A9 JUMPI PUSH1 0x4 CALLDATALOAD PUSH0 MSTORE PUSH1 0x5 PUSH1 0x20 MSTORE PUSH1 0x20 PUSH1 0x40 PUSH0 KECCAK256 SLOAD PUSH1 0x40 MLOAD SWAP1 DUP2 MSTORE RETURN JUMPDEST CALLVALUE PUSH2 0x1A9 JUMPI PUSH1 0x40 CALLDATASIZE PUSH1 0x3 NOT ADD SLT PUSH2 0x1A9 JUMPI PUSH1 0x20 PUSH1 0xFF PUSH2 0x8ED PUSH1 0x4 CALLDATALOAD PUSH2 0x8BA DUP2 PUSH2 0x198 JUMP JUMPDEST PUSH1 0x24 CALLDATALOAD SWAP1 PUSH2 0x8C7 DUP3 PUSH2 0x198 JUMP JUMPDEST PUSH1 0x1 DUP1 PUSH1 0xA0 SHL SUB AND PUSH0 MSTORE PUSH0 DUP5 MSTORE PUSH1 0x40 PUSH0 KECCAK256 SWAP1 PUSH1 0x1 DUP1 PUSH1 0xA0 SHL SUB AND PUSH0 MSTORE PUSH1 0x20 MSTORE PUSH1 0x40 PUSH0 KECCAK256 SWAP1 JUMP JUMPDEST SLOAD AND PUSH1 0x40 MLOAD SWAP1 ISZERO ISZERO DUP2 MSTORE RETURN JUMPDEST PUSH1 0x60 CALLDATASIZE PUSH1 0x3 NOT ADD SLT PUSH2 0x1A9 JUMPI PUSH1 0x4 CALLDATALOAD PUSH8 0xFFFFFFFFFFFFFFFF DUP2 GT PUSH2 0x1A9 JUMPI CALLDATASIZE PUSH1 0x23 DUP3 ADD SLT ISZERO PUSH2 0x1A9 JUMPI DUP1 PUSH1 0x4 ADD CALLDATALOAD PUSH8 0xFFFFFFFFFFFFFFFF DUP2 GT PUSH2 0x1A9 JUMPI CALLDATASIZE PUSH1 0x24 PUSH1 0xA0 DUP4 MUL DUP5 ADD ADD GT PUSH2 0x1A9 JUMPI PUSH2 0x30A SWAP2 PUSH2 0x95D SWAP2 PUSH1 0x24 CALLDATALOAD SWAP1 PUSH1 0x24 PUSH1 0x44 CALLDATALOAD SWAP4 ADD PUSH2 0x12BD JUMP JUMPDEST PUSH1 0x40 MLOAD SWAP1 DUP2 MSTORE SWAP1 DUP2 SWAP1 PUSH1 0x20 DUP3 ADD SWAP1 JUMP JUMPDEST CALLVALUE PUSH2 0x1A9 JUMPI PUSH1 0xA0 CALLDATASIZE PUSH1 0x3 NOT ADD SLT PUSH2 0x1A9 JUMPI PUSH1 0x4 CALLDATALOAD PUSH2 0x98A DUP2 PUSH2 0x198 JUMP JUMPDEST PUSH1 0x1 PUSH1 0x1 PUSH1 0x80 SHL SUB PUSH1 0x24 CALLDATALOAD SWAP2 PUSH2 0x99F DUP4 PUSH2 0x198 JUMP JUMPDEST PUSH1 0x44 CALLDATALOAD SWAP3 PUSH2 0x9AC DUP5 PUSH2 0x198 JUMP JUMPDEST PUSH2 0x9D1 PUSH1 0x64 CALLDATALOAD PUSH2 0x9BB DUP2 PUSH2 0x4F4 JUMP JUMPDEST PUSH1 0x84 CALLDATALOAD SWAP6 PUSH2 0x9CA DUP8 ISZERO ISZERO PUSH2 0x136A JUMP JUMPDEST DUP4 DUP6 PUSH2 0x178F JUMP JUMPDEST PUSH2 0xA59 PUSH2 0xA47 DUP6 PUSH2 0xA3F PUSH2 0xA26 PUSH2 0xA00 DUP7 PUSH0 MSTORE PUSH1 0x6 PUSH1 0x20 MSTORE PUSH1 0x40 PUSH0 KECCAK256 SLOAD SWAP1 PUSH1 0x1 PUSH1 0x1 PUSH1 0x80 SHL SUB DUP3 AND SWAP2 PUSH1 0x80 SHR SWAP1 JUMP JUMPDEST SWAP10 SWAP1 PUSH2 0xA1F PUSH2 0xA17 DUP10 PUSH0 MSTORE PUSH1 0x5 PUSH1 0x20 MSTORE PUSH1 0x40 PUSH0 KECCAK256 SWAP1 JUMP JUMPDEST SLOAD ISZERO ISZERO PUSH2 0x13B6 JUMP JUMPDEST AND DUP11 PUSH2 0x1441 JUMP JUMPDEST PUSH2 0xA38 DUP7 PUSH0 MSTORE PUSH1 0x5 PUSH1 0x20 MSTORE PUSH1 0x40 PUSH0 KECCAK256 SWAP1 JUMP JUMPDEST SLOAD SWAP1 PUSH2 0x1454 JUMP JUMPDEST SWAP7 AND DUP8 PUSH2 0x1441 JUMP JUMPDEST PUSH2 0xA38 DUP4 PUSH0 MSTORE PUSH1 0x5 PUSH1 0x20 MSTORE PUSH1 0x40 PUSH0 KECCAK256 SWAP1 JUMP JUMPDEST SWAP5 DUP5 ISZERO DUP1 PUSH2 0xAFD JUMPI JUMPDEST PUSH2 0xAE4 JUMPI PUSH2 0xAD3 SWAP4 SWAP3 PUSH2 0xACC DUP4 DUP4 PUSH2 0xA7D DUP10 SWAP6 DUP12 SWAP8 CALLER PUSH2 0x17EB JUMP JUMPDEST PUSH2 0xA9A PUSH2 0xA92 DUP4 PUSH0 MSTORE PUSH1 0x5 PUSH1 0x20 MSTORE PUSH1 0x40 PUSH0 KECCAK256 SWAP1 JUMP JUMPDEST SWAP2 DUP3 SLOAD PUSH2 0x122E JUMP JUMPDEST SWAP1 SSTORE PUSH2 0xAB1 PUSH1 0x1 PUSH1 0x1 PUSH1 0x80 SHL SUB DUP6 AND PUSH1 0xF SIGNEXTEND PUSH2 0x1472 JUMP JUMPDEST PUSH2 0xAC6 PUSH1 0x1 PUSH1 0x1 PUSH1 0x80 SHL SUB DUP8 AND PUSH1 0xF SIGNEXTEND PUSH2 0x1472 JUMP JUMPDEST SWAP2 PUSH2 0x186A JUMP JUMPDEST CALLER SWAP4 PUSH2 0x18C0 JUMP JUMPDEST PUSH1 0x40 DUP1 MLOAD SWAP2 DUP3 MSTORE PUSH1 0x20 DUP3 ADD SWAP3 SWAP1 SWAP3 MSTORE RETURN JUMPDEST PUSH4 0xD5DE6205 PUSH1 0xE0 SHL PUSH0 MSTORE PUSH1 0x4 DUP6 SWAP1 MSTORE PUSH1 0x24 DUP7 SWAP1 MSTORE PUSH1 0x44 PUSH0 REVERT JUMPDEST POP DUP6 ISZERO PUSH2 0xA62 JUMP JUMPDEST CALLVALUE PUSH2 0x1A9 JUMPI PUSH1 0x20 CALLDATASIZE PUSH1 0x3 NOT ADD SLT PUSH2 0x1A9 JUMPI PUSH1 0xFF PUSH2 0xB20 PUSH2 0x3D8 JUMP JUMPDEST AND PUSH2 0xB2D PUSH1 0x10 DUP3 LT PUSH2 0x1248 JUMP JUMPDEST PUSH0 MSTORE PUSH1 0x3 PUSH1 0x20 MSTORE PUSH1 0x20 PUSH1 0x1 DUP1 PUSH1 0xA0 SHL SUB PUSH1 0x40 PUSH0 KECCAK256 SLOAD AND PUSH1 0x40 MLOAD SWAP1 DUP2 MSTORE RETURN JUMPDEST PUSH1 0xE0 CALLDATASIZE PUSH1 0x3 NOT ADD SLT PUSH2 0x1A9 JUMPI PUSH1 0x4 CALLDATALOAD PUSH2 0xB63 DUP2 PUSH2 0x198 JUMP JUMPDEST PUSH1 0x24 CALLDATALOAD DUP1 SWAP2 PUSH2 0xB71 DUP3 PUSH2 0x198 JUMP JUMPDEST PUSH1 0x44 CALLDATALOAD PUSH2 0xB7D DUP2 PUSH2 0x198 JUMP JUMPDEST PUSH1 0x64 CALLDATALOAD SWAP1 PUSH2 0xB8A DUP3 PUSH2 0x4F4 JUMP JUMPDEST PUSH1 0x84 CALLDATALOAD PUSH1 0xA4 CALLDATALOAD SWAP3 PUSH2 0xB9A DUP5 PUSH2 0x44E JUMP JUMPDEST DUP2 DUP5 DUP7 PUSH1 0xC4 CALLDATALOAD SWAP4 PUSH0 MLOAD PUSH1 0x20 PUSH2 0x24B0 PUSH0 CODECOPY PUSH0 MLOAD SWAP1 PUSH0 MSTORE PUSH1 0x40 MLOAD DUP1 PUSH2 0xBC9 DUP8 DUP3 SWAP2 SWAP1 PUSH1 0x20 PUSH1 0x40 DUP5 ADD SWAP4 PUSH1 0x1 DUP2 MSTORE ADD MSTORE JUMP JUMPDEST SUB SWAP1 LOG1 PUSH2 0xBD8 DUP2 DUP9 DUP13 DUP6 PUSH2 0x178F JUMP JUMPDEST SWAP7 DUP4 ISZERO PUSH2 0xEB7 JUMPI DUP3 JUMPDEST CALLER DUP7 CALLVALUE SWAP1 PUSH2 0xBEE SWAP4 PUSH2 0x18F1 JUMP JUMPDEST PUSH1 0x40 MLOAD DUP1 PUSH2 0xC08 DUP11 DUP3 SWAP2 SWAP1 PUSH1 0x20 PUSH1 0x40 DUP5 ADD SWAP4 PUSH1 0x2 DUP2 MSTORE ADD MSTORE JUMP JUMPDEST SUB PUSH0 MLOAD PUSH1 0x20 PUSH2 0x24B0 PUSH0 CODECOPY PUSH0 MLOAD SWAP1 PUSH0 MSTORE SWAP2 LOG1 PUSH0 DUP9 DUP2 MSTORE PUSH1 0x6 PUSH1 0x20 MSTORE PUSH1 0x40 SWAP1 KECCAK256 SLOAD PUSH1 0x1 PUSH1 0x1 PUSH1 0x80 SHL SUB DUP2 AND SWAP1 PUSH1 0x80 SHR SWAP12 DUP2 SWAP7 DUP3 SWAP4 PUSH1 0x1 PUSH1 0x1 PUSH1 0x80 SHL SUB DUP16 SWAP7 SWAP5 AND PUSH2 0xC50 SWAP1 PUSH1 0x80 SHL SWAP1 JUMP JUMPDEST PUSH1 0x40 DUP1 MLOAD PUSH1 0x3 DUP2 MSTORE PUSH1 0x1 PUSH1 0x1 PUSH1 0x80 SHL SUB DUP10 AND SWAP3 SWAP1 SWAP3 OR PUSH1 0x20 DUP4 ADD MSTORE PUSH0 MLOAD PUSH1 0x20 PUSH2 0x24B0 PUSH0 CODECOPY PUSH0 MLOAD SWAP1 PUSH0 MSTORE SWAP2 LOG1 PUSH2 0xC83 PUSH2 0x14EE JUMP JUMPDEST SWAP1 PUSH2 0xC8C PUSH2 0x14EE JUMP JUMPDEST SWAP4 PUSH2 0xC95 PUSH2 0x14CD JUMP JUMPDEST PUSH1 0x1 PUSH1 0x1 PUSH1 0xA0 SHL SUB SWAP1 SWAP10 AND DUP10 MSTORE PUSH1 0x1 PUSH1 0x1 PUSH1 0xA0 SHL SUB AND PUSH1 0x20 DUP10 ADD MSTORE PUSH1 0x1 PUSH1 0x1 PUSH1 0xA0 SHL SUB AND PUSH1 0x40 DUP9 ADD MSTORE PUSH1 0x60 DUP8 ADD SWAP1 DUP2 MSTORE DUP8 ISZERO ISZERO PUSH1 0x80 DUP9 ADD MSTORE PUSH1 0xA0 DUP8 ADD SWAP3 DUP4 MSTORE MLOAD PUSH2 0xCDE SWAP1 PUSH2 0x1510 JUMP JUMPDEST MSTORE MLOAD PUSH2 0xCE9 SWAP1 PUSH2 0x1510 JUMP JUMPDEST PUSH1 0x1 PUSH1 0x1 PUSH1 0xE8 SHL SUB NOT SWAP1 SWAP2 AND SWAP1 MSTORE PUSH2 0xD00 SWAP3 PUSH2 0x1BAD JUMP JUMPDEST POP PUSH2 0xD40 SWAP3 SWAP1 DUP1 ISZERO PUSH2 0xE6F JUMPI SWAP9 DUP10 SWAP2 JUMPDEST PUSH0 MLOAD PUSH1 0x20 PUSH2 0x24B0 PUSH0 CODECOPY PUSH0 MLOAD SWAP1 PUSH0 MSTORE PUSH1 0x40 MLOAD DUP1 PUSH2 0xD38 DUP7 DUP3 SWAP2 SWAP1 PUSH1 0x20 PUSH1 0x40 DUP5 ADD SWAP4 PUSH1 0x4 DUP2 MSTORE ADD MSTORE JUMP JUMPDEST SUB SWAP1 LOG1 PUSH2 0x1F97 JUMP JUMPDEST DUP1 DUP7 LT PUSH2 0xE58 JUMPI POP SWAP2 PUSH2 0xDB1 PUSH2 0xDEA SWAP5 SWAP3 PUSH2 0x30A SWAP8 SWAP5 PUSH0 MLOAD PUSH1 0x20 PUSH2 0x24B0 PUSH0 CODECOPY PUSH0 MLOAD SWAP1 PUSH0 MSTORE PUSH1 0x40 MLOAD DUP1 PUSH2 0xD7D DUP2 SWAP1 PUSH0 PUSH1 0x20 PUSH1 0x40 DUP5 ADD SWAP4 PUSH1 0x5 DUP2 MSTORE ADD MSTORE JUMP JUMPDEST SUB SWAP1 LOG1 DUP4 ISZERO PUSH2 0xE3D JUMPI PUSH1 0x1 PUSH1 0x1 PUSH1 0x80 SHL SUB DUP2 AND PUSH1 0xF SIGNEXTEND SWAP1 JUMPDEST DUP5 ISZERO PUSH2 0xE2B JUMPI POP PUSH2 0xAC6 PUSH1 0x1 PUSH1 0x1 PUSH1 0x80 SHL SUB DUP10 AND PUSH1 0xF SIGNEXTEND PUSH2 0x1472 JUMP JUMPDEST PUSH0 MLOAD PUSH1 0x20 PUSH2 0x24B0 PUSH0 CODECOPY PUSH0 MLOAD SWAP1 PUSH0 MSTORE PUSH1 0x40 MLOAD DUP1 PUSH2 0xDD8 DUP2 SWAP1 PUSH0 PUSH1 0x20 PUSH1 0x40 DUP5 ADD SWAP4 PUSH1 0x6 DUP2 MSTORE ADD MSTORE JUMP JUMPDEST SUB SWAP1 LOG1 ISZERO PUSH2 0xE24 JUMPI POP JUMPDEST DUP3 CALLER SWAP2 PUSH2 0x1910 JUMP JUMPDEST PUSH0 MLOAD PUSH1 0x20 PUSH2 0x24B0 PUSH0 CODECOPY PUSH0 MLOAD SWAP1 PUSH0 MSTORE PUSH1 0x40 MLOAD DUP1 PUSH2 0xE11 DUP2 SWAP1 PUSH0 PUSH1 0x20 PUSH1 0x40 DUP5 ADD SWAP4 PUSH1 0x7 DUP2 MSTORE ADD MSTORE JUMP JUMPDEST SUB SWAP1 LOG1 PUSH1 0x40 MLOAD SWAP1 DUP2 MSTORE SWAP1 DUP2 SWAP1 PUSH1 0x20 DUP3 ADD SWAP1 JUMP JUMPDEST SWAP1 POP PUSH2 0xDE2 JUMP JUMPDEST PUSH1 0x1 PUSH1 0x1 PUSH1 0x80 SHL SUB AND PUSH1 0xF SIGNEXTEND SWAP2 PUSH2 0x186A JUMP JUMPDEST PUSH2 0xE52 PUSH1 0x1 PUSH1 0x1 PUSH1 0x80 SHL SUB DUP10 AND PUSH1 0xF SIGNEXTEND PUSH2 0x1472 JUMP JUMPDEST SWAP1 PUSH2 0xD95 JUMP JUMPDEST PUSH4 0xD438755D PUSH1 0xE0 SHL PUSH0 MSTORE PUSH1 0x4 MSTORE PUSH1 0x24 DUP6 SWAP1 MSTORE PUSH1 0x44 PUSH0 REVERT JUMPDEST POP DUP2 ISZERO PUSH2 0xE98 JUMPI PUSH2 0xE90 PUSH2 0xE82 DUP7 PUSH2 0x141D JUMP JUMPDEST PUSH8 0xDE0B6B3A7640000 SWAP1 DIV SWAP1 JUMP JUMPDEST SWAP9 DUP10 SWAP2 PUSH2 0xD10 JUMP JUMPDEST PUSH2 0xEB2 PUSH2 0xEA4 DUP7 PUSH2 0x13F9 JUMP JUMPDEST PUSH8 0x120A871CC0020000 SWAP1 DIV SWAP1 JUMP JUMPDEST PUSH2 0xE90 JUMP JUMPDEST DUP11 PUSH2 0xBE1 JUMP JUMPDEST PUSH1 0xC0 CALLDATASIZE PUSH1 0x3 NOT ADD SLT PUSH2 0x1A9 JUMPI PUSH1 0x4 CALLDATALOAD PUSH2 0xED5 DUP2 PUSH2 0x198 JUMP JUMPDEST PUSH1 0x24 CALLDATALOAD PUSH2 0xEE1 DUP2 PUSH2 0x198 JUMP JUMPDEST PUSH1 0x44 CALLDATALOAD SWAP1 PUSH2 0xEEE DUP3 PUSH2 0x198 JUMP JUMPDEST PUSH1 0x64 CALLDATALOAD SWAP2 PUSH2 0xEFB DUP4 PUSH2 0x4F4 JUMP JUMPDEST PUSH2 0xF0D PUSH1 0x84 CALLDATALOAD SWAP4 PUSH1 0xA4 CALLDATALOAD SWAP3 DUP5 DUP8 PUSH2 0x178F JUMP JUMPDEST SWAP1 PUSH2 0xF30 DUP3 PUSH0 MSTORE PUSH1 0x6 PUSH1 0x20 MSTORE PUSH1 0x40 PUSH0 KECCAK256 SLOAD SWAP1 PUSH1 0x1 PUSH1 0x1 PUSH1 0x80 SHL SUB DUP3 AND SWAP2 PUSH1 0x80 SHR SWAP1 JUMP JUMPDEST SWAP1 DUP4 PUSH0 MSTORE PUSH1 0x5 PUSH1 0x20 MSTORE PUSH1 0x40 PUSH0 KECCAK256 SLOAD ISZERO PUSH0 EQ PUSH2 0xFD0 JUMPI POP POP PUSH2 0xF51 DUP2 DUP6 PUSH2 0x123B JUMP JUMPDEST SWAP4 JUMPDEST DUP5 ISZERO PUSH2 0xFC1 JUMPI PUSH1 0x1 PUSH1 0x1 PUSH1 0x80 SHL SUB DUP1 DUP4 PUSH2 0xF7C PUSH2 0xFA4 SWAP8 PUSH2 0x30A SWAP11 PUSH2 0xF8B SWAP8 DUP8 CALLER SWAP4 CALLVALUE SWAP4 PUSH2 0x191B JUMP JUMPDEST AND PUSH1 0xF SIGNEXTEND SWAP2 AND PUSH1 0xF SIGNEXTEND DUP4 PUSH2 0x186A JUMP JUMPDEST PUSH2 0xF96 DUP4 DUP3 CALLER PUSH2 0x2016 JUMP JUMPDEST PUSH0 MSTORE PUSH1 0x5 PUSH1 0x20 MSTORE PUSH1 0x40 PUSH0 KECCAK256 SWAP1 JUMP JUMPDEST PUSH2 0xFAF DUP3 DUP3 SLOAD PUSH2 0x123B JUMP JUMPDEST SWAP1 SSTORE PUSH1 0x40 MLOAD SWAP1 DUP2 MSTORE SWAP1 DUP2 SWAP1 PUSH1 0x20 DUP3 ADD SWAP1 JUMP JUMPDEST PUSH4 0x283EEADF PUSH1 0xE0 SHL PUSH0 MSTORE PUSH1 0x4 PUSH0 REVERT JUMPDEST PUSH8 0xDE0B6B3A7640000 DUP4 MUL DUP4 DUP2 DIV PUSH8 0xDE0B6B3A7640000 EQ DUP5 ISZERO OR ISZERO PUSH2 0x30E JUMPI PUSH8 0x120A871CC0020000 SWAP1 DIV DUP7 ADD SWAP1 DUP2 DUP8 GT PUSH2 0x30E JUMPI PUSH2 0x1039 PUSH2 0x1053 SWAP2 PUSH1 0x1 PUSH1 0x1 PUSH1 0x80 SHL SUB PUSH2 0x1032 PUSH2 0xEA4 PUSH2 0x1026 PUSH2 0x1058 SWAP9 PUSH2 0x1FEE JUMP JUMPDEST PUSH1 0x1 PUSH1 0x1 PUSH1 0x80 SHL SUB AND SWAP1 JUMP JUMPDEST SWAP2 AND PUSH2 0x123B JUMP JUMPDEST SWAP2 PUSH2 0x104C DUP7 PUSH0 MSTORE PUSH1 0x5 PUSH1 0x20 MSTORE PUSH1 0x40 PUSH0 KECCAK256 SWAP1 JUMP JUMPDEST SLOAD SWAP1 PUSH2 0x1441 JUMP JUMPDEST PUSH2 0x1454 JUMP JUMPDEST SWAP4 PUSH2 0xF53 JUMP JUMPDEST CALLVALUE PUSH2 0x1A9 JUMPI PUSH1 0x80 CALLDATASIZE PUSH1 0x3 NOT ADD SLT PUSH2 0x1A9 JUMPI PUSH1 0x4 CALLDATALOAD PUSH2 0x107B DUP2 PUSH2 0x198 JUMP JUMPDEST PUSH1 0x24 CALLDATALOAD PUSH2 0x1087 DUP2 PUSH2 0x198 JUMP JUMPDEST PUSH1 0x44 CALLDATALOAD SWAP2 PUSH0 MLOAD PUSH1 0x20 PUSH2 0x2490 PUSH0 CODECOPY PUSH0 MLOAD SWAP1 PUSH0 MSTORE PUSH2 0x2FA PUSH1 0x64 CALLDATALOAD SWAP4 PUSH1 0x1 PUSH1 0x1 PUSH1 0xA0 SHL SUB DUP5 AND SWAP4 PUSH2 0x10E9 SWAP1 DUP8 SWAP1 PUSH2 0x10DC SWAP1 CALLER DUP9 EQ ISZERO DUP1 PUSH2 0x11D8 JUMPI JUMPDEST PUSH2 0x1148 JUMPI PUSH1 0x1 PUSH1 0x1 PUSH1 0xA0 SHL SUB AND PUSH0 SWAP1 DUP2 MSTORE PUSH1 0x1 PUSH1 0x20 MSTORE PUSH1 0x40 SWAP1 KECCAK256 SWAP1 JUMP JUMPDEST SWAP1 PUSH0 MSTORE PUSH1 0x20 MSTORE PUSH1 0x40 PUSH0 KECCAK256 SWAP1 JUMP JUMPDEST PUSH2 0x10F4 DUP7 DUP3 SLOAD PUSH2 0x122E JUMP JUMPDEST SWAP1 SSTORE PUSH1 0x1 PUSH1 0x1 PUSH1 0xA0 SHL SUB DUP2 AND PUSH0 SWAP1 DUP2 MSTORE PUSH1 0x1 PUSH1 0x20 MSTORE PUSH1 0x40 SWAP1 KECCAK256 PUSH2 0x1118 SWAP1 DUP8 SWAP1 PUSH2 0x10DC JUMP JUMPDEST PUSH2 0x1123 DUP7 DUP3 SLOAD PUSH2 0x123B JUMP JUMPDEST SWAP1 SSTORE PUSH1 0x40 DUP1 MLOAD CALLER DUP2 MSTORE PUSH1 0x20 DUP2 ADD SWAP7 SWAP1 SWAP7 MSTORE PUSH1 0x1 PUSH1 0x1 PUSH1 0xA0 SHL SUB SWAP1 SWAP2 AND SWAP5 SWAP2 DUP3 SWAP2 DUP3 ADD SWAP1 JUMP JUMPDEST PUSH2 0x117F DUP4 PUSH2 0x10DC CALLER PUSH2 0x116A DUP6 PUSH1 0x1 DUP1 PUSH1 0xA0 SHL SUB AND PUSH0 MSTORE PUSH1 0x2 PUSH1 0x20 MSTORE PUSH1 0x40 PUSH0 KECCAK256 SWAP1 JUMP JUMPDEST SWAP1 PUSH1 0x1 DUP1 PUSH1 0xA0 SHL SUB AND PUSH0 MSTORE PUSH1 0x20 MSTORE PUSH1 0x40 PUSH0 KECCAK256 SWAP1 JUMP JUMPDEST SLOAD DUP10 PUSH1 0x1 DUP3 ADD PUSH2 0x11A5 JUMPI JUMPDEST POP POP PUSH1 0x1 PUSH1 0x1 PUSH1 0xA0 SHL SUB AND PUSH0 SWAP1 DUP2 MSTORE PUSH1 0x1 PUSH1 0x20 MSTORE PUSH1 0x40 SWAP1 KECCAK256 SWAP1 JUMP JUMPDEST PUSH2 0x11AE SWAP2 PUSH2 0x122E JUMP JUMPDEST PUSH2 0x11D0 DUP5 PUSH2 0x10DC CALLER PUSH2 0x116A DUP7 PUSH1 0x1 DUP1 PUSH1 0xA0 SHL SUB AND PUSH0 MSTORE PUSH1 0x2 PUSH1 0x20 MSTORE PUSH1 0x40 PUSH0 KECCAK256 SWAP1 JUMP JUMPDEST SSTORE PUSH0 DUP10 PUSH2 0x118A JUMP JUMPDEST POP PUSH2 0x1207 PUSH2 0x1203 PUSH2 0x11FC CALLER PUSH2 0x116A DUP6 PUSH1 0x1 DUP1 PUSH1 0xA0 SHL SUB AND PUSH0 MSTORE PUSH0 PUSH1 0x20 MSTORE PUSH1 0x40 PUSH0 KECCAK256 SWAP1 JUMP JUMPDEST SLOAD PUSH1 0xFF AND SWAP1 JUMP JUMPDEST ISZERO SWAP1 JUMP JUMPDEST PUSH2 0x10BF JUMP JUMPDEST PUSH4 0x4E487B71 PUSH1 0xE0 SHL PUSH0 MSTORE PUSH1 0x11 PUSH1 0x4 MSTORE PUSH1 0x24 PUSH0 REVERT JUMPDEST PUSH0 NOT DUP2 ADD SWAP2 SWAP1 DUP3 GT PUSH2 0x30E JUMPI JUMP JUMPDEST SWAP2 SWAP1 DUP3 SUB SWAP2 DUP3 GT PUSH2 0x30E JUMPI JUMP JUMPDEST SWAP2 SWAP1 DUP3 ADD DUP1 SWAP3 GT PUSH2 0x30E JUMPI JUMP JUMPDEST ISZERO PUSH2 0x124F JUMPI JUMP JUMPDEST PUSH1 0x40 MLOAD PUSH3 0x461BCD PUSH1 0xE5 SHL DUP2 MSTORE PUSH1 0x20 PUSH1 0x4 DUP3 ADD MSTORE PUSH1 0x1D PUSH1 0x24 DUP3 ADD MSTORE PUSH32 0x496E76616C696420706F696E7465723A206D75737420626520302D3135000000 PUSH1 0x44 DUP3 ADD MSTORE PUSH1 0x64 SWAP1 REVERT JUMPDEST PUSH4 0x4E487B71 PUSH1 0xE0 SHL PUSH0 MSTORE PUSH1 0x32 PUSH1 0x4 MSTORE PUSH1 0x24 PUSH0 REVERT JUMPDEST SWAP2 SWAP1 DUP2 LT ISZERO PUSH2 0x12B8 JUMPI PUSH1 0xA0 MUL ADD SWAP1 JUMP JUMPDEST PUSH2 0x1294 JUMP JUMPDEST SWAP2 SWAP4 SWAP3 SWAP4 DUP2 ISZERO PUSH2 0x133B JUMPI SWAP2 SWAP1 PUSH0 SWAP2 JUMPDEST DUP2 DUP4 LT PUSH2 0x12F8 JUMPI POP POP POP DUP1 SWAP3 DUP1 DUP3 LT PUSH2 0x12E3 JUMPI POP POP JUMP JUMPDEST PUSH4 0xD438755D PUSH1 0xE0 SHL PUSH0 MSTORE PUSH1 0x4 MSTORE PUSH1 0x24 MSTORE PUSH1 0x44 PUSH0 REVERT JUMPDEST SWAP1 SWAP2 SWAP3 PUSH2 0x132B PUSH1 0x1 SWAP2 DUP6 ISZERO PUSH2 0x130C DUP7 PUSH2 0x1220 JUMP JUMPDEST DUP8 EQ SWAP1 PUSH2 0x131A DUP9 DUP9 DUP9 PUSH2 0x12A8 JUMP JUMPDEST SWAP3 DUP2 ISZERO PUSH2 0x1334 JUMPI CALLVALUE SWAP1 JUMPDEST CALLER SWAP5 PUSH2 0x153E JUMP JUMPDEST SWAP4 ADD SWAP2 SWAP1 PUSH2 0x12CC JUMP JUMPDEST PUSH0 SWAP1 PUSH2 0x1324 JUMP JUMPDEST PUSH1 0x40 MLOAD PUSH3 0x461BCD PUSH1 0xE5 SHL DUP2 MSTORE PUSH1 0x20 PUSH1 0x4 DUP3 ADD MSTORE PUSH1 0x7 PUSH1 0x24 DUP3 ADD MSTORE PUSH7 0x4E6F20686F7073 PUSH1 0xC8 SHL PUSH1 0x44 DUP3 ADD MSTORE PUSH1 0x64 SWAP1 REVERT JUMPDEST ISZERO PUSH2 0x1371 JUMPI JUMP JUMPDEST PUSH1 0x40 MLOAD PUSH3 0x461BCD PUSH1 0xE5 SHL DUP2 MSTORE PUSH1 0x20 PUSH1 0x4 DUP3 ADD MSTORE PUSH1 0x18 PUSH1 0x24 DUP3 ADD MSTORE PUSH32 0x496E76616C6964206C697175696469747920616D6F756E740000000000000000 PUSH1 0x44 DUP3 ADD MSTORE PUSH1 0x64 SWAP1 REVERT JUMPDEST ISZERO PUSH2 0x13BD JUMPI JUMP JUMPDEST PUSH1 0x40 MLOAD PUSH3 0x461BCD PUSH1 0xE5 SHL DUP2 MSTORE PUSH1 0x20 PUSH1 0x4 DUP3 ADD MSTORE PUSH1 0x14 PUSH1 0x24 DUP3 ADD MSTORE PUSH20 0x139BC81B1A5C5D5A591A5D1E481A5B881C1BDBDB PUSH1 0x62 SHL PUSH1 0x44 DUP3 ADD MSTORE PUSH1 0x64 SWAP1 REVERT JUMPDEST SWAP1 PUSH8 0xDE0B6B3A7640000 DUP3 MUL SWAP2 DUP1 DUP4 DIV PUSH8 0xDE0B6B3A7640000 EQ SWAP1 ISZERO OR ISZERO PUSH2 0x30E JUMPI JUMP JUMPDEST SWAP1 PUSH8 0x120A871CC0020000 DUP3 MUL SWAP2 DUP1 DUP4 DIV PUSH8 0x120A871CC0020000 EQ SWAP1 ISZERO OR ISZERO PUSH2 0x30E JUMPI JUMP JUMPDEST DUP2 DUP2 MUL SWAP3 SWAP2 DUP2 ISZERO SWAP2 DUP5 DIV EQ OR ISZERO PUSH2 0x30E JUMPI JUMP JUMPDEST DUP2 ISZERO PUSH2 0x145E JUMPI DIV SWAP1 JUMP JUMPDEST PUSH4 0x4E487B71 PUSH1 0xE0 SHL PUSH0 MSTORE PUSH1 0x12 PUSH1 0x4 MSTORE PUSH1 0x24 PUSH0 REVERT JUMPDEST PUSH1 0xF SIGNEXTEND PUSH16 0x7FFFFFFFFFFFFFFFFFFFFFFFFFFFFFFF NOT DUP2 EQ PUSH2 0x30E JUMPI PUSH0 SUB SWAP1 JUMP JUMPDEST PUSH4 0x4E487B71 PUSH1 0xE0 SHL PUSH0 MSTORE PUSH1 0x41 PUSH1 0x4 MSTORE PUSH1 0x24 PUSH0 REVERT JUMPDEST SWAP1 PUSH1 0x1F DUP1 NOT SWAP2 ADD AND DUP2 ADD SWAP1 DUP2 LT PUSH8 0xFFFFFFFFFFFFFFFF DUP3 GT OR PUSH2 0x14C8 JUMPI PUSH1 0x40 MSTORE JUMP JUMPDEST PUSH2 0x1492 JUMP JUMPDEST PUSH1 0x40 MLOAD SWAP1 PUSH2 0x14DC PUSH1 0xC0 DUP4 PUSH2 0x14A6 JUMP JUMPDEST JUMP JUMPDEST PUSH1 0x40 MLOAD SWAP1 PUSH2 0x14DC PUSH2 0x100 DUP4 PUSH2 0x14A6 JUMP JUMPDEST PUSH1 0x40 DUP1 MLOAD SWAP1 SWAP2 SWAP1 PUSH2 0x14FF DUP4 DUP3 PUSH2 0x14A6 JUMP JUMPDEST PUSH1 0x1 DUP2 MSTORE SWAP2 PUSH1 0x1F NOT ADD CALLDATASIZE PUSH1 0x20 DUP5 ADD CALLDATACOPY JUMP JUMPDEST DUP1 MLOAD ISZERO PUSH2 0x12B8 JUMPI PUSH1 0x20 ADD SWAP1 JUMP JUMPDEST CALLDATALOAD PUSH2 0x1527 DUP2 PUSH2 0x198 JUMP JUMPDEST SWAP1 JUMP JUMPDEST CALLDATALOAD PUSH2 0x1527 DUP2 PUSH2 0x4F4 JUMP JUMPDEST CALLDATALOAD PUSH2 0x1527 DUP2 PUSH2 0x44E JUMP JUMPDEST SWAP6 SWAP5 SWAP3 SWAP6 SWAP4 SWAP2 SWAP4 PUSH2 0x154E DUP2 PUSH2 0x151D JUMP JUMPDEST SWAP3 PUSH1 0x20 DUP3 ADD SWAP3 PUSH2 0x155D DUP5 PUSH2 0x151D JUMP JUMPDEST SWAP7 DUP7 PUSH2 0x1584 PUSH1 0x40 DUP7 ADD SWAP8 PUSH2 0x1570 DUP10 PUSH2 0x151D JUMP JUMPDEST PUSH1 0x60 DUP9 ADD SWAP12 PUSH2 0x157E DUP14 PUSH2 0x152A JUMP JUMPDEST SWAP3 PUSH2 0x178F JUMP JUMPDEST SWAP11 PUSH2 0x175A JUMPI JUMPDEST POP POP PUSH0 DUP10 DUP2 MSTORE PUSH1 0x6 PUSH1 0x20 MSTORE PUSH1 0x40 SWAP1 KECCAK256 SLOAD PUSH1 0x1 PUSH1 0x1 PUSH1 0x80 SHL SUB DUP2 AND SWAP1 PUSH1 0x80 SHR SWAP10 SWAP1 SWAP6 DUP11 DUP8 PUSH2 0x15B5 PUSH2 0x14EE JUMP JUMPDEST SWAP11 DUP6 PUSH2 0x15C0 DUP14 PUSH2 0x1510 JUMP JUMPDEST MSTORE PUSH2 0x15C9 PUSH2 0x14EE JUMP JUMPDEST SWAP1 PUSH2 0x15D3 SWAP1 PUSH2 0x152A JUMP JUMPDEST PUSH2 0x15DC DUP3 PUSH2 0x1510 JUMP JUMPDEST PUSH1 0x1 PUSH1 0x1 PUSH1 0xE8 SHL SUB NOT SWAP1 SWAP2 AND SWAP1 MSTORE PUSH2 0x15F3 DUP9 PUSH2 0x151D JUMP JUMPDEST SWAP4 PUSH2 0x15FD DUP11 PUSH2 0x151D JUMP JUMPDEST SWAP1 PUSH2 0x1607 SWAP1 PUSH2 0x151D JUMP JUMPDEST SWAP13 PUSH1 0x80 DUP11 ADD SWAP14 PUSH2 0x1616 DUP16 PUSH2 0x1534 JUMP JUMPDEST SWAP3 PUSH2 0x161F PUSH2 0x14CD JUMP JUMPDEST PUSH1 0x1 PUSH1 0x1 PUSH1 0xA0 SHL SUB SWAP1 SWAP9 AND DUP9 MSTORE PUSH1 0x1 PUSH1 0x1 PUSH1 0xA0 SHL SUB AND PUSH1 0x20 DUP9 ADD MSTORE PUSH1 0x1 PUSH1 0x1 PUSH1 0xA0 SHL SUB AND PUSH1 0x40 DUP8 ADD MSTORE PUSH1 0x60 DUP7 ADD MSTORE ISZERO ISZERO PUSH1 0x80 DUP6 ADD MSTORE PUSH1 0xA0 DUP5 ADD MSTORE PUSH2 0x1662 SWAP3 PUSH2 0x1BAD JUMP JUMPDEST POP PUSH2 0x16C7 SWAP3 SWAP1 DUP1 ISZERO PUSH2 0x1722 JUMPI PUSH2 0x1686 SWAP1 SWAP8 JUMPDEST DUP9 DUP1 SWAP14 PUSH2 0x1680 DUP14 PUSH2 0x1534 JUMP JUMPDEST SWAP3 PUSH2 0x1F97 JUMP JUMPDEST PUSH2 0x168F DUP10 PUSH2 0x1534 JUMP JUMPDEST ISZERO PUSH2 0x1707 JUMPI PUSH1 0x1 PUSH1 0x1 PUSH1 0x80 SHL SUB DUP2 AND PUSH1 0xF SIGNEXTEND SWAP1 JUMPDEST PUSH2 0x16AC DUP11 PUSH2 0x1534 JUMP JUMPDEST ISZERO PUSH2 0xE2B JUMPI POP PUSH2 0xAC6 PUSH1 0x1 PUSH1 0x1 PUSH1 0x80 SHL SUB DUP9 AND PUSH1 0xF SIGNEXTEND PUSH2 0x1472 JUMP JUMPDEST PUSH2 0x16D3 JUMPI JUMPDEST POP POP POP POP POP JUMP JUMPDEST PUSH2 0x16DF PUSH2 0x16F3 SWAP6 PUSH2 0x1534 JUMP JUMPDEST ISZERO PUSH2 0x16FD JUMPI POP PUSH2 0x16EE SWAP1 PUSH2 0x151D JUMP JUMPDEST PUSH2 0x1910 JUMP JUMPDEST PUSH0 DUP1 DUP1 DUP1 DUP1 PUSH2 0x16CC JUMP JUMPDEST PUSH2 0x16EE SWAP2 POP PUSH2 0x151D JUMP JUMPDEST PUSH2 0x171C PUSH1 0x1 PUSH1 0x1 PUSH1 0x80 SHL SUB DUP9 AND PUSH1 0xF SIGNEXTEND PUSH2 0x1472 JUMP JUMPDEST SWAP1 PUSH2 0x16A3 JUMP JUMPDEST POP PUSH2 0x172C DUP10 PUSH2 0x1534 JUMP JUMPDEST ISZERO PUSH2 0x1746 JUMPI PUSH2 0x1686 PUSH2 0x1740 PUSH2 0xE82 DUP4 PUSH2 0x141D JUMP JUMPDEST SWAP8 PUSH2 0x1674 JUMP JUMPDEST PUSH2 0x1686 PUSH2 0x1755 PUSH2 0xEA4 DUP4 PUSH2 0x13F9 JUMP JUMPDEST PUSH2 0x1740 JUMP JUMPDEST PUSH2 0x177E SWAP2 PUSH2 0x176A PUSH1 0x80 DUP8 ADD PUSH2 0x1534 JUMP JUMPDEST ISZERO PUSH2 0x1785 JUMPI DUP4 PUSH2 0x1779 DUP8 PUSH2 0x151D JUMP JUMPDEST PUSH2 0x18F1 JUMP JUMPDEST PUSH0 DUP7 PUSH2 0x158A JUMP JUMPDEST DUP4 PUSH2 0x1779 DUP9 PUSH2 0x151D JUMP JUMPDEST PUSH1 0x40 MLOAD PUSH1 0x60 SWAP2 DUP3 SHL PUSH12 0xFFFFFFFFFFFFFFFFFFFFFFFF NOT SWAP1 DUP2 AND PUSH1 0x20 DUP4 ADD SWAP1 DUP2 MSTORE SWAP4 DUP4 SHL DUP2 AND PUSH1 0x34 DUP4 ADD MSTORE SWAP4 SWAP1 SWAP2 SHL SWAP1 SWAP3 AND PUSH1 0x48 DUP4 ADD MSTORE PUSH1 0x1 PUSH1 0x1 PUSH1 0xE8 SHL SUB NOT SWAP1 SWAP3 AND PUSH1 0x5C DUP3 ADD MSTORE PUSH1 0x3F DUP2 MSTORE PUSH2 0x17E5 PUSH1 0x5F DUP3 PUSH2 0x14A6 JUMP JUMPDEST MLOAD SWAP1 KECCAK256 SWAP1 JUMP JUMPDEST SWAP2 SWAP1 SWAP2 PUSH1 0x1 DUP1 PUSH1 0xA0 SHL SUB AND DUP1 PUSH0 MSTORE PUSH1 0x1 PUSH1 0x20 MSTORE PUSH1 0x40 PUSH0 KECCAK256 DUP4 PUSH0 MSTORE PUSH1 0x20 MSTORE PUSH1 0x40 PUSH0 KECCAK256 DUP1 SLOAD SWAP1 DUP4 DUP3 SUB SWAP2 DUP3 GT PUSH2 0x30E JUMPI SSTORE PUSH1 0x40 DUP1 MLOAD CALLER DUP2 MSTORE PUSH1 0x20 DUP2 ADD SWAP4 SWAP1 SWAP4 MSTORE PUSH0 SWAP3 PUSH0 MLOAD PUSH1 0x20 PUSH2 0x2490 PUSH0 CODECOPY PUSH0 MLOAD SWAP1 PUSH0 MSTORE SWAP2 DUP2 SWAP1 DUP2 ADD JUMPDEST SUB SWAP1 LOG4 JUMP JUMPDEST SWAP1 PUSH1 0xF SIGNEXTEND SWAP1 PUSH1 0xF SIGNEXTEND ADD SWAP1 PUSH1 0x1 PUSH1 0x1 PUSH1 0x7F SHL SUB NOT DUP3 SLT PUSH1 0x1 PUSH1 0x1 PUSH1 0x7F SHL SUB DUP4 SGT OR PUSH2 0x30E JUMPI JUMP JUMPDEST SWAP1 SWAP2 DUP2 PUSH0 MSTORE PUSH1 0x6 PUSH1 0x20 MSTORE PUSH1 0x1 PUSH1 0x1 PUSH1 0x80 SHL SUB PUSH2 0x189D PUSH2 0x1893 PUSH1 0x40 PUSH0 KECCAK256 SLOAD SWAP6 DUP4 DUP8 AND PUSH1 0xF SIGNEXTEND PUSH2 0x1844 JUMP JUMPDEST SWAP3 DUP6 PUSH1 0x80 SAR PUSH2 0x1844 JUMP JUMPDEST DUP2 NOT SWAP1 PUSH1 0x80 SHL AND SWAP2 AND OR SWAP2 DUP3 SUB PUSH2 0x18B2 JUMPI POP POP JUMP JUMPDEST PUSH0 MSTORE PUSH1 0x6 PUSH1 0x20 MSTORE PUSH1 0x40 PUSH0 KECCAK256 SSTORE JUMP JUMPDEST SWAP1 SWAP4 SWAP2 DUP3 DUP2 PUSH2 0x18E0 JUMPI JUMPDEST POP POP POP DUP2 PUSH2 0x18D7 JUMPI POP POP POP JUMP JUMPDEST PUSH2 0x14DC SWAP3 PUSH2 0x20C8 JUMP JUMPDEST PUSH2 0x18E9 SWAP3 PUSH2 0x20C8 JUMP JUMPDEST PUSH0 DUP1 DUP3 PUSH2 0x18CA JUMP JUMPDEST SWAP3 DUP2 PUSH2 0x18FE JUMPI JUMPDEST POP POP POP POP JUMP JUMPDEST PUSH2 0x1907 SWAP4 PUSH2 0x21CF JUMP JUMPDEST PUSH0 DUP1 DUP1 DUP1 PUSH2 0x18F8 JUMP JUMPDEST SWAP2 DUP2 PUSH2 0x18D7 JUMPI POP POP POP JUMP JUMPDEST SWAP2 SWAP4 SWAP1 SWAP4 DUP6 DUP2 PUSH2 0x19F6 JUMPI JUMPDEST POP POP POP POP DUP1 ISZERO SWAP2 DUP3 ISZERO PUSH2 0x1939 JUMPI POP POP POP POP JUMP JUMPDEST PUSH1 0x1 PUSH1 0x1 PUSH1 0xA0 SHL SUB AND DUP1 PUSH2 0x1953 JUMPI POP POP PUSH2 0x1907 SWAP2 POP PUSH2 0x218E JUMP JUMPDEST PUSH1 0x20 SWAP3 POP PUSH2 0x19A2 SWAP4 PUSH2 0x1965 PUSH1 0x1 PUSH2 0x214F JUMP JUMPDEST PUSH1 0x40 MLOAD PUSH4 0x23B872DD PUSH1 0xE0 SHL DUP2 MSTORE PUSH1 0x1 PUSH1 0x1 PUSH1 0xA0 SHL SUB SWAP1 SWAP2 AND PUSH1 0x4 DUP3 ADD MSTORE ADDRESS PUSH1 0x24 DUP3 ADD MSTORE PUSH1 0x44 DUP2 ADD SWAP3 SWAP1 SWAP3 MSTORE SWAP1 SWAP3 DUP4 SWAP2 SWAP1 DUP3 SWAP1 PUSH0 SWAP1 DUP3 SWAP1 PUSH1 0x64 DUP3 ADD SWAP1 JUMP JUMPDEST SUB SWAP3 GAS CALL DUP1 ISZERO PUSH2 0x19F1 JUMPI PUSH2 0x19BD SWAP2 PUSH0 SWAP2 PUSH2 0x19C2 JUMPI JUMPDEST POP PUSH2 0x2084 JUMP JUMPDEST PUSH2 0x1907 JUMP JUMPDEST PUSH2 0x19E4 SWAP2 POP PUSH1 0x20 RETURNDATASIZE PUSH1 0x20 GT PUSH2 0x19EA JUMPI JUMPDEST PUSH2 0x19DC DUP2 DUP4 PUSH2 0x14A6 JUMP JUMPDEST DUP2 ADD SWAP1 PUSH2 0x206F JUMP JUMPDEST PUSH0 PUSH2 0x19B7 JUMP JUMPDEST POP RETURNDATASIZE PUSH2 0x19D2 JUMP JUMPDEST PUSH2 0x1B5B JUMP JUMPDEST PUSH2 0x19FF SWAP4 PUSH2 0x21CF JUMP JUMPDEST PUSH0 DUP1 DUP1 DUP6 PUSH2 0x1926 JUMP JUMPDEST ISZERO PUSH2 0x1A0F JUMPI JUMP JUMPDEST PUSH1 0x40 MLOAD PUSH3 0x461BCD PUSH1 0xE5 SHL DUP2 MSTORE PUSH1 0x20 PUSH1 0x4 DUP3 ADD MSTORE PUSH1 0x15 PUSH1 0x24 DUP3 ADD MSTORE PUSH21 0x416C7068612061646472657373206973207A65726F PUSH1 0x58 SHL PUSH1 0x44 DUP3 ADD MSTORE PUSH1 0x64 SWAP1 REVERT JUMPDEST ISZERO PUSH2 0x1A53 JUMPI JUMP JUMPDEST PUSH1 0x40 MLOAD PUSH3 0x461BCD PUSH1 0xE5 SHL DUP2 MSTORE PUSH1 0x20 PUSH1 0x4 DUP3 ADD MSTORE PUSH1 0x14 PUSH1 0x24 DUP3 ADD MSTORE PUSH20 0x426574612061646472657373206973207A65726F PUSH1 0x60 SHL PUSH1 0x44 DUP3 ADD MSTORE PUSH1 0x64 SWAP1 REVERT JUMPDEST SWAP1 DUP2 PUSH1 0x20 SWAP2 SUB SLT PUSH2 0x1A9 JUMPI MLOAD SWAP1 JUMP JUMPDEST DUP1 MLOAD PUSH1 0x1 PUSH1 0x1 PUSH1 0xA0 SHL SUB SWAP1 DUP2 AND DUP4 MSTORE PUSH1 0x20 DUP1 DUP4 ADD MLOAD DUP3 AND SWAP1 DUP5 ADD MSTORE PUSH1 0x40 DUP1 DUP4 ADD MLOAD SWAP1 SWAP2 AND SWAP1 DUP4 ADD MSTORE PUSH1 0x60 DUP1 DUP3 ADD MLOAD SWAP1 DUP4 ADD MSTORE PUSH1 0x80 DUP1 DUP3 ADD MLOAD PUSH1 0x1 PUSH1 0x1 PUSH1 0x80 SHL SUB AND SWAP1 DUP4 ADD MSTORE PUSH2 0x14DC SWAP2 SWAP1 PUSH1 0xE0 SWAP1 DUP2 SWAP1 PUSH1 0xA0 DUP2 DUP2 ADD MLOAD PUSH1 0x1 PUSH1 0x1 PUSH1 0x80 SHL SUB AND SWAP1 DUP6 ADD MSTORE PUSH1 0xC0 DUP2 DUP2 ADD MLOAD PUSH2 0xFFFF AND SWAP1 DUP6 ADD MSTORE ADD MLOAD ISZERO ISZERO SWAP2 ADD MSTORE JUMP JUMPDEST DUP1 MLOAD DUP1 DUP4 MSTORE PUSH1 0x20 SWAP3 SWAP2 DUP2 SWAP1 DUP5 ADD DUP5 DUP5 ADD MCOPY PUSH0 DUP3 DUP3 ADD DUP5 ADD MSTORE PUSH1 0x1F ADD PUSH1 0x1F NOT AND ADD ADD SWAP1 JUMP JUMPDEST DUP1 PUSH2 0x1B4D PUSH2 0x120 SWAP3 PUSH2 0x1527 SWAP6 SWAP5 PUSH2 0x1A9E JUMP JUMPDEST DUP2 PUSH2 0x100 DUP3 ADD MSTORE ADD SWAP1 PUSH2 0x1B17 JUMP JUMPDEST PUSH1 0x40 MLOAD RETURNDATASIZE PUSH0 DUP3 RETURNDATACOPY RETURNDATASIZE SWAP1 REVERT JUMPDEST PUSH2 0x100 DUP2 ADD SWAP3 SWAP2 PUSH2 0x14DC SWAP2 SWAP1 PUSH2 0x1A9E JUMP JUMPDEST SWAP2 PUSH2 0x1B9E SWAP1 PUSH2 0x1B8A DUP5 PUSH2 0x1527 SWAP7 SWAP5 PUSH2 0x1A9E JUMP JUMPDEST PUSH2 0x140 PUSH2 0x100 DUP6 ADD MSTORE PUSH2 0x140 DUP5 ADD SWAP1 PUSH2 0x1B17 JUMP JUMPDEST SWAP2 PUSH2 0x120 DUP2 DUP5 SUB SWAP2 ADD MSTORE PUSH2 0x1B17 JUMP JUMPDEST DUP1 MLOAD PUSH2 0x1C05 SWAP4 PUSH0 SWAP4 SWAP1 SWAP2 PUSH1 0x1 PUSH1 0x1 PUSH1 0xA0 SHL SUB AND SWAP4 PUSH1 0x20 DUP5 ADD SWAP5 PUSH2 0x1C1F PUSH2 0x1C1A PUSH2 0x1C05 PUSH2 0x1C13 PUSH2 0x1BE2 DUP11 MLOAD PUSH1 0x1 DUP1 PUSH1 0xA0 SHL SUB AND SWAP1 JUMP JUMPDEST PUSH1 0x40 DUP11 ADD DUP1 MLOAD SWAP1 SWAP7 SWAP2 SWAP1 PUSH1 0x1 PUSH1 0x1 PUSH1 0xA0 SHL SUB AND SWAP1 PUSH2 0x157E PUSH1 0xA0 DUP14 ADD SWAP15 DUP16 MLOAD PUSH2 0x1510 JUMP JUMPDEST MLOAD PUSH1 0x1 PUSH1 0x1 PUSH1 0xE8 SHL SUB NOT AND SWAP1 JUMP JUMPDEST SWAP10 MLOAD PUSH2 0x1510 JUMP JUMPDEST PUSH2 0x2244 JUMP JUMPDEST SWAP1 PUSH2 0x1C2D PUSH1 0x40 DUP4 ADD MLOAD ISZERO ISZERO SWAP1 JUMP JUMPDEST ISZERO PUSH2 0x1F6C JUMPI PUSH32 0x0 SWAP6 JUMPDEST PUSH1 0x60 DUP4 ADD MLOAD ISZERO PUSH2 0x1F34 JUMPI PUSH32 0x0 SWAP6 JUMPDEST PUSH2 0x1C96 PUSH1 0x1 PUSH1 0x1 PUSH1 0xA0 SHL SUB DUP10 AND ISZERO ISZERO PUSH2 0x1A08 JUMP JUMPDEST PUSH2 0x1CAA PUSH1 0x1 PUSH1 0x1 PUSH1 0xA0 SHL SUB DUP9 AND ISZERO ISZERO PUSH2 0x1A4C JUMP JUMPDEST DUP2 MLOAD PUSH1 0x1 PUSH1 0x1 PUSH1 0xA0 SHL SUB AND SWAP9 MLOAD PUSH1 0x1 PUSH1 0x1 PUSH1 0xA0 SHL SUB AND SWAP3 MLOAD PUSH1 0x1 PUSH1 0x1 PUSH1 0xA0 SHL SUB AND SWAP6 PUSH1 0x60 DUP4 ADD MLOAD PUSH2 0x1CDA SWAP1 PUSH2 0x1510 JUMP JUMPDEST MLOAD PUSH1 0xC0 DUP7 ADD MLOAD PUSH2 0xFFFF AND PUSH1 0x80 SWAP1 SWAP5 ADD MLOAD ISZERO ISZERO SWAP5 PUSH2 0x1CF5 PUSH2 0x14DE JUMP JUMPDEST PUSH1 0x1 PUSH1 0x1 PUSH1 0xA0 SHL SUB SWAP1 SWAP13 AND DUP13 MSTORE PUSH1 0x1 PUSH1 0x1 PUSH1 0xA0 SHL SUB AND PUSH1 0x20 DUP13 ADD MSTORE PUSH1 0x1 PUSH1 0x1 PUSH1 0xA0 SHL SUB SWAP1 SWAP8 AND PUSH1 0x40 DUP12 ADD SWAP1 DUP2 MSTORE SWAP7 PUSH1 0x60 DUP12 ADD MSTORE PUSH1 0x1 PUSH1 0x1 PUSH1 0x80 SHL SUB AND PUSH1 0x80 DUP11 ADD MSTORE PUSH1 0x1 PUSH1 0x1 PUSH1 0x80 SHL SUB AND PUSH1 0xA0 DUP10 ADD MSTORE PUSH2 0xFFFF AND PUSH1 0xC0 DUP9 ADD MSTORE ISZERO ISZERO PUSH1 0xE0 DUP8 ADD MSTORE DUP1 MLOAD ISZERO ISZERO SWAP1 DUP2 DUP1 PUSH2 0x1F27 JUMPI JUMPDEST ISZERO PUSH2 0x1E06 JUMPI POP POP POP SWAP2 DUP4 SWAP2 PUSH0 PUSH2 0x1DA7 DUP5 PUSH2 0x1DA1 PUSH2 0x1DC5 SWAP9 PUSH2 0x1D9B PUSH2 0x1D8F PUSH2 0x1D8F PUSH1 0x20 SWAP12 MLOAD PUSH1 0x1 DUP1 PUSH1 0xA0 SHL SUB AND SWAP1 JUMP JUMPDEST PUSH1 0x1 PUSH1 0x1 PUSH1 0xA0 SHL SUB AND SWAP1 JUMP JUMPDEST SWAP7 PUSH2 0x2367 JUMP JUMPDEST SWAP4 PUSH2 0x2367 JUMP JUMPDEST PUSH1 0x40 MLOAD PUSH4 0x1EEBC2D PUSH1 0xE1 SHL DUP2 MSTORE SWAP7 DUP8 SWAP6 DUP7 SWAP5 DUP6 SWAP4 SWAP2 PUSH1 0x4 DUP6 ADD PUSH2 0x1B77 JUMP JUMPDEST SUB SWAP3 GAS CALL SWAP1 DUP2 ISZERO PUSH2 0x19F1 JUMPI PUSH0 SWAP2 PUSH2 0x1DDA JUMPI POP SWAP2 JUMP JUMPDEST PUSH2 0x1DFC SWAP2 POP PUSH1 0x20 RETURNDATASIZE PUSH1 0x20 GT PUSH2 0x1DFF JUMPI JUMPDEST PUSH2 0x1DF4 DUP2 DUP4 PUSH2 0x14A6 JUMP JUMPDEST DUP2 ADD SWAP1 PUSH2 0x1A8F JUMP JUMPDEST SWAP2 JUMP JUMPDEST POP RETURNDATASIZE PUSH2 0x1DEA JUMP JUMPDEST SWAP3 SWAP5 SWAP4 SWAP2 SWAP3 DUP2 ISZERO SWAP2 DUP3 DUP1 PUSH2 0x1F11 JUMPI JUMPDEST ISZERO PUSH2 0x1E5A JUMPI POP POP POP POP POP POP PUSH2 0x1DC5 PUSH0 SWAP3 PUSH2 0x1E3D PUSH2 0x1D8F PUSH2 0x1D8F PUSH1 0x20 SWAP6 MLOAD PUSH1 0x1 DUP1 PUSH1 0xA0 SHL SUB AND SWAP1 JUMP JUMPDEST SWAP1 PUSH1 0x40 MLOAD SWAP5 DUP6 DUP1 SWAP5 DUP2 SWAP4 PUSH4 0x160F04BD PUSH1 0xE2 SHL DUP4 MSTORE PUSH1 0x4 DUP4 ADD PUSH2 0x1B66 JUMP JUMPDEST SWAP5 SWAP6 SWAP5 DUP1 PUSH2 0x1EFB JUMPI JUMPDEST ISZERO PUSH2 0x1EB1 JUMPI POP POP POP POP SWAP2 PUSH1 0x20 SWAP2 PUSH2 0x1E93 DUP3 PUSH2 0x1E8D PUSH2 0x1D8F PUSH2 0x1D8F PUSH2 0x1DC5 SWAP9 MLOAD PUSH1 0x1 DUP1 PUSH1 0xA0 SHL SUB AND SWAP1 JUMP JUMPDEST SWAP3 PUSH2 0x2367 JUMP JUMPDEST SWAP2 PUSH0 PUSH1 0x40 MLOAD DUP1 SWAP7 DUP2 SWAP6 DUP3 SWAP5 PUSH4 0x5E3344D PUSH1 0xE4 SHL DUP5 MSTORE PUSH1 0x4 DUP5 ADD PUSH2 0x1B3B JUMP JUMPDEST SWAP3 SWAP8 SWAP6 SWAP5 POP SWAP1 SWAP3 SWAP2 DUP2 PUSH2 0x1EED JUMPI JUMPDEST POP PUSH2 0x1EC9 JUMPI POP POP POP JUMP JUMPDEST PUSH2 0x1DC5 SWAP4 SWAP6 POP SWAP1 PUSH2 0x1E93 DUP4 PUSH2 0x1E8D PUSH2 0x1D8F PUSH2 0x1D8F PUSH1 0x20 SWAP8 SWAP7 MLOAD PUSH1 0x1 DUP1 PUSH1 0xA0 SHL SUB AND SWAP1 JUMP JUMPDEST PUSH1 0x20 ADD MLOAD ISZERO ISZERO SWAP1 POP PUSH0 PUSH2 0x1EBF JUMP JUMPDEST POP PUSH2 0x1F0C PUSH2 0x1203 PUSH1 0x20 DUP4 ADD MLOAD ISZERO ISZERO SWAP1 JUMP JUMPDEST PUSH2 0x1E63 JUMP JUMPDEST POP PUSH2 0x1F22 PUSH2 0x1203 PUSH1 0x20 DUP5 ADD MLOAD ISZERO ISZERO SWAP1 JUMP JUMPDEST PUSH2 0x1E15 JUMP JUMPDEST POP PUSH1 0x20 DUP2 ADD MLOAD ISZERO ISZERO PUSH2 0x1D60 JUMP JUMPDEST PUSH2 0x1F66 PUSH2 0x1F59 PUSH2 0x1F48 PUSH1 0xA0 DUP7 ADD MLOAD PUSH1 0xFF AND SWAP1 JUMP JUMPDEST PUSH1 0xFF AND PUSH0 MSTORE PUSH1 0x4 PUSH1 0x20 MSTORE PUSH1 0x40 PUSH0 KECCAK256 SWAP1 JUMP JUMPDEST SLOAD PUSH1 0x1 PUSH1 0x1 PUSH1 0xA0 SHL SUB AND SWAP1 JUMP JUMPDEST SWAP6 PUSH2 0x1C82 JUMP JUMPDEST PUSH2 0x1F91 PUSH2 0x1F59 PUSH2 0x1F80 PUSH1 0x80 DUP6 ADD MLOAD PUSH1 0xFF AND SWAP1 JUMP JUMPDEST PUSH1 0xFF AND PUSH0 MSTORE PUSH1 0x3 PUSH1 0x20 MSTORE PUSH1 0x40 PUSH0 KECCAK256 SWAP1 JUMP JUMPDEST SWAP6 PUSH2 0x1C55 JUMP JUMPDEST PUSH1 0x1 PUSH1 0x1 PUSH1 0x80 SHL SUB SWAP3 SWAP4 PUSH0 EQ PUSH2 0x1FCA JUMPI POP AND SWAP1 DUP1 DUP3 LT PUSH2 0x1FB5 JUMPI POP POP JUMP JUMPDEST PUSH4 0x1735867 PUSH1 0xE0 SHL PUSH0 MSTORE PUSH1 0x4 MSTORE PUSH1 0x24 MSTORE PUSH1 0x44 PUSH0 REVERT JUMPDEST SWAP1 POP AND SWAP1 DUP1 DUP3 LT PUSH2 0x1FD9 JUMPI POP POP JUMP JUMPDEST PUSH4 0x68580A19 PUSH1 0xE0 SHL PUSH0 MSTORE PUSH1 0x4 MSTORE PUSH1 0x24 MSTORE PUSH1 0x44 PUSH0 REVERT JUMPDEST PUSH1 0x1 PUSH1 0x1 PUSH1 0x80 SHL SUB PUSH8 0xDE0B6B3A7640000 SWAP2 AND MUL SWAP1 PUSH1 0x1 PUSH1 0x1 PUSH1 0x80 SHL SUB DUP3 AND SWAP2 DUP3 SUB PUSH2 0x30E JUMPI JUMP JUMPDEST SWAP2 SWAP1 SWAP2 PUSH1 0x1 DUP1 PUSH1 0xA0 SHL SUB AND SWAP1 DUP2 PUSH0 MSTORE PUSH1 0x1 PUSH1 0x20 MSTORE PUSH1 0x40 PUSH0 KECCAK256 DUP4 PUSH0 MSTORE PUSH1 0x20 MSTORE PUSH1 0x40 PUSH0 KECCAK256 DUP1 SLOAD SWAP1 DUP3 DUP3 ADD DUP1 SWAP3 GT PUSH2 0x30E JUMPI SSTORE PUSH1 0x40 DUP1 MLOAD CALLER DUP2 MSTORE PUSH1 0x20 DUP2 ADD SWAP3 SWAP1 SWAP3 MSTORE PUSH0 SWAP2 PUSH0 MLOAD PUSH1 0x20 PUSH2 0x2490 PUSH0 CODECOPY PUSH0 MLOAD SWAP1 PUSH0 MSTORE SWAP2 DUP2 SWAP1 DUP2 ADD PUSH2 0x183F JUMP JUMPDEST SWAP1 DUP2 PUSH1 0x20 SWAP2 SUB SLT PUSH2 0x1A9 JUMPI MLOAD PUSH2 0x1527 DUP2 PUSH2 0x44E JUMP JUMPDEST ISZERO PUSH2 0x208B JUMPI JUMP JUMPDEST PUSH1 0x40 MLOAD PUSH3 0x461BCD PUSH1 0xE5 SHL DUP2 MSTORE PUSH1 0x20 PUSH1 0x4 DUP3 ADD MSTORE PUSH1 0x15 PUSH1 0x24 DUP3 ADD MSTORE PUSH21 0x115490CC8C081D1C985B9CD9995C8819985A5B1959 PUSH1 0x5A SHL PUSH1 0x44 DUP3 ADD MSTORE PUSH1 0x64 SWAP1 REVERT JUMPDEST PUSH1 0x1 PUSH1 0x1 PUSH1 0xA0 SHL SUB AND DUP1 PUSH2 0x2102 JUMPI POP PUSH0 DUP1 DUP1 SWAP4 DUP2 SWAP4 DUP3 SWAP1 DUP3 ISZERO PUSH2 0x20F8 JUMPI JUMPDEST PUSH1 0x1 PUSH1 0x1 PUSH1 0xA0 SHL SUB AND SWAP1 CALL ISZERO PUSH2 0x19F1 JUMPI JUMP JUMPDEST PUSH2 0x8FC SWAP2 POP PUSH2 0x20E6 JUMP JUMPDEST PUSH1 0x40 MLOAD PUSH4 0xA9059CBB PUSH1 0xE0 SHL DUP2 MSTORE PUSH1 0x1 PUSH1 0x1 PUSH1 0xA0 SHL SUB SWAP1 SWAP3 AND PUSH1 0x4 DUP4 ADD MSTORE PUSH1 0x24 DUP3 ADD SWAP3 SWAP1 SWAP3 MSTORE SWAP1 PUSH1 0x20 SWAP1 DUP3 SWAP1 DUP2 PUSH0 DUP2 PUSH1 0x44 DUP2 ADD JUMPDEST SUB SWAP3 GAS CALL DUP1 ISZERO PUSH2 0x19F1 JUMPI PUSH2 0x14DC SWAP2 PUSH0 SWAP2 PUSH2 0x19C2 JUMPI POP PUSH2 0x2084 JUMP JUMPDEST ISZERO PUSH2 0x2156 JUMPI JUMP JUMPDEST PUSH1 0x40 MLOAD PUSH3 0x461BCD PUSH1 0xE5 SHL DUP2 MSTORE PUSH1 0x20 PUSH1 0x4 DUP3 ADD MSTORE PUSH1 0x10 PUSH1 0x24 DUP3 ADD MSTORE PUSH16 0x115512081B9BDD08195E1C1958DD1959 PUSH1 0x82 SHL PUSH1 0x44 DUP3 ADD MSTORE PUSH1 0x64 SWAP1 REVERT JUMPDEST ISZERO PUSH2 0x2195 JUMPI JUMP JUMPDEST PUSH1 0x40 MLOAD PUSH3 0x461BCD PUSH1 0xE5 SHL DUP2 MSTORE PUSH1 0x20 PUSH1 0x4 DUP3 ADD MSTORE PUSH1 0x12 PUSH1 0x24 DUP3 ADD MSTORE PUSH18 0x125B98DBDC9C9958DD08115512081CD95B9D PUSH1 0x72 SHL PUSH1 0x44 DUP3 ADD MSTORE PUSH1 0x64 SWAP1 REVERT JUMPDEST SWAP1 SWAP3 SWAP1 PUSH1 0x1 PUSH1 0x1 PUSH1 0xA0 SHL SUB AND DUP1 PUSH2 0x21EC JUMPI POP PUSH2 0x14DC SWAP3 POP EQ PUSH2 0x218E JUMP JUMPDEST PUSH2 0x2135 SWAP4 PUSH2 0x1965 PUSH1 0x20 SWAP5 SWAP4 ISZERO PUSH2 0x214F JUMP JUMPDEST PUSH1 0x40 MLOAD SWAP1 PUSH1 0xE0 DUP3 ADD DUP3 DUP2 LT PUSH8 0xFFFFFFFFFFFFFFFF DUP3 GT OR PUSH2 0x14C8 JUMPI PUSH1 0x40 MSTORE PUSH0 PUSH1 0xC0 DUP4 DUP3 DUP2 MSTORE DUP3 PUSH1 0x20 DUP3 ADD MSTORE DUP3 PUSH1 0x40 DUP3 ADD MSTORE DUP3 PUSH1 0x60 DUP3 ADD MSTORE DUP3 PUSH1 0x80 DUP3 ADD MSTORE DUP3 PUSH1 0xA0 DUP3 ADD MSTORE ADD MSTORE JUMP JUMPDEST PUSH2 0x1527 PUSH2 0xFFF PUSH2 0x22E8 PUSH2 0x2255 PUSH2 0x21FD JUMP JUMPDEST SWAP4 PUSH1 0xE8 SHR PUSH2 0x2275 PUSH1 0x1 PUSH2 0x226E DUP4 PUSH3 0x7FFFFF SWAP1 PUSH1 0x1 SHR AND SWAP1 JUMP JUMPDEST AND ISZERO ISZERO DUP7 MSTORE JUMP JUMPDEST PUSH1 0x1 DUP2 AND ISZERO ISZERO PUSH1 0x20 DUP7 ADD MSTORE PUSH2 0x22A5 PUSH2 0x229C PUSH1 0x1 PUSH1 0x2 DUP5 SWAP1 SHR PUSH3 0x3FFFFF AND JUMPDEST AND PUSH3 0xFFFFFF AND SWAP1 JUMP JUMPDEST ISZERO ISZERO PUSH1 0x40 DUP8 ADD MSTORE JUMP JUMPDEST PUSH2 0x22C5 PUSH2 0x22BC PUSH1 0x1 PUSH1 0x3 DUP5 SWAP1 SHR PUSH3 0x1FFFFF AND PUSH2 0x2293 JUMP JUMPDEST ISZERO ISZERO PUSH1 0x60 DUP8 ADD MSTORE JUMP JUMPDEST PUSH1 0xF PUSH1 0x4 DUP3 SWAP1 SHR DUP2 AND PUSH1 0x80 DUP8 ADD MSTORE PUSH1 0x8 DUP3 SWAP1 SHR AND PUSH1 0xA0 DUP7 ADD MSTORE PUSH1 0xC SHR PUSH2 0xFFF AND SWAP1 JUMP JUMPDEST AND PUSH2 0xFFFF AND PUSH1 0xC0 DUP4 ADD MSTORE JUMP JUMPDEST PUSH1 0x20 DUP2 DUP4 SUB SLT PUSH2 0x1A9 JUMPI DUP1 MLOAD SWAP1 PUSH8 0xFFFFFFFFFFFFFFFF DUP3 GT PUSH2 0x1A9 JUMPI ADD DUP2 PUSH1 0x1F DUP3 ADD SLT ISZERO PUSH2 0x1A9 JUMPI DUP1 MLOAD SWAP1 PUSH8 0xFFFFFFFFFFFFFFFF DUP3 GT PUSH2 0x14C8 JUMPI PUSH1 0x40 MLOAD SWAP3 PUSH2 0x2346 PUSH1 0x1F DUP5 ADD PUSH1 0x1F NOT AND PUSH1 0x20 ADD DUP6 PUSH2 0x14A6 JUMP JUMPDEST DUP3 DUP5 MSTORE PUSH1 0x20 DUP4 DUP4 ADD ADD GT PUSH2 0x1A9 JUMPI DUP2 PUSH0 SWAP3 PUSH1 0x20 DUP1 SWAP4 ADD DUP4 DUP7 ADD MCOPY DUP4 ADD ADD MSTORE SWAP1 JUMP JUMPDEST PUSH1 0x60 SWAP2 DUP2 TLOAD DUP1 ISZERO DUP1 PUSH2 0x2446 JUMPI JUMPDEST ISZERO PUSH2 0x2400 JUMPI JUMPDEST POP DUP3 MLOAD ISZERO PUSH2 0x2387 JUMPI POP POP SWAP1 JUMP JUMPDEST PUSH1 0x40 MLOAD PUSH4 0x3BD1104B PUSH1 0xE0 SHL DUP2 MSTORE SWAP3 POP PUSH0 SWAP1 DUP4 SWAP1 DUP2 SWAP1 PUSH2 0x23A9 SWAP1 PUSH1 0x4 DUP4 ADD PUSH2 0x1B66 JUMP JUMPDEST SUB DUP2 DUP4 PUSH1 0x1 PUSH1 0x1 PUSH1 0xA0 SHL SUB DUP7 AND GAS CALL SWAP2 DUP3 ISZERO PUSH2 0x19F1 JUMPI PUSH0 SWAP3 PUSH2 0x23DC JUMPI JUMPDEST POP DUP2 DUP1 MLOAD PUSH2 0x23D3 JUMPI POP POP SWAP1 JUMP JUMPDEST PUSH2 0x1527 SWAP2 PUSH2 0x245B JUMP JUMPDEST PUSH2 0x23F9 SWAP2 SWAP3 POP RETURNDATASIZE DUP1 PUSH0 DUP4 RETURNDATACOPY PUSH2 0x23F1 DUP2 DUP4 PUSH2 0x14A6 JUMP JUMPDEST DUP2 ADD SWAP1 PUSH2 0x22F4 JUMP JUMPDEST SWAP1 PUSH0 PUSH2 0x23C6 JUMP JUMPDEST SWAP3 POP PUSH1 0x1F PUSH1 0x40 MLOAD SWAP4 DUP1 DUP6 MSTORE ADD DUP1 PUSH1 0x5 SHR PUSH0 JUMPDEST DUP2 DUP2 LT PUSH2 0x242D JUMPI POP POP PUSH1 0x1F NOT AND DUP4 ADD PUSH1 0x20 ADD PUSH1 0x40 MSTORE PUSH0 PUSH2 0x237A JUMP JUMPDEST DUP1 PUSH1 0x1 DUP1 SWAP3 DUP8 ADD ADD TLOAD PUSH1 0x20 DUP3 PUSH1 0x5 SHL DUP10 ADD ADD MSTORE ADD PUSH2 0x2412 JUMP JUMPDEST SWAP4 POP PUSH1 0x40 MLOAD SWAP4 PUSH0 DUP6 MSTORE PUSH1 0x20 DUP6 ADD PUSH1 0x40 MSTORE PUSH2 0x2374 JUMP JUMPDEST PUSH1 0x1F DUP3 MLOAD DUP1 DUP4 TSTORE ADD PUSH1 0x5 SHR SWAP2 PUSH0 JUMPDEST DUP4 DUP2 LT PUSH2 0x2476 JUMPI POP POP POP POP JUMP JUMPDEST DUP1 PUSH1 0x20 PUSH1 0x1 SWAP3 PUSH1 0x5 SHL DUP5 ADD ADD MLOAD DUP3 DUP3 DUP7 ADD ADD TSTORE ADD PUSH2 0x2469 JUMP INVALID SHL RETURNDATASIZE PUSH31 0xDB2E9C0B0E7C525B20AAAEF0F5940D2ED71663C7D39266ECAFAC728859B6BB 0xC7 RETURNCONTRACT 0xC4 EQ SMOD SWAP9 0xB6 RETURNDATASIZE NUMBER DUP14 DUP16 PC RETURNCONTRACT 0x3A PUSH1 0xD3 0x25 PUSH20 0x79D24E11515C329BED0C825EA264697066735822 SLT KECCAK256 0x27 0xD5 SWAP4 0xC6 PUSH4 0x53C286A9 PUSH21 0xAE12C774DF806A4A43A0D41A1603189C6FE13E21C8 STOP PUSH5 0x736F6C6343 STOP ADDMOD 0x1E STOP CALLER "},"methodIdentifiers":{"addAlphaMarketAddress(uint8,address)":"460c6df8","addBetaMarketAddress(uint8,address)":"7dc27c95","addLiquidity(address,address,address,bytes3,uint256,uint256)":"e513315b","allowance(address,address,uint256)":"598af9e7","approve(address,uint256,uint256)":"426a8493","balanceOf(address,uint256)":"00fdd58e","batchSwap((address,address,address,bytes3,bool)[],uint256,uint256)":"b69e3992","createPool(address,address,address,bytes3)":"5670f55a","defaultAlpha()":"a1a44dad","defaultBeta()":"19920a5f","dummyQuoter(address,address,uint128,uint128)":"8785bec0","getAlphaMarketAddress(uint8)":"d2615fc8","getBetaMarketAddress(uint8)":"83e66c2e","getInventory(uint256)":"5b298d32","isOperator(address,address)":"b6363cf2","removeAlphaMarketAddress(uint8)":"8e832e08","removeBetaMarketAddress(uint8)":"61408f26","removeLiquidity(address,address,address,bytes3,uint256)":"cb1f2f38","setOperator(address,bool)":"558a7297","supportsInterface(bytes4)":"01ffc9a7","swap(address,address,address,bytes3,uint256,bool,uint256)":"d92bc84c","totalLiquidity(uint256)":"b5e60c3c","transfer(address,uint256,uint256)":"095bcdb6","transferFrom(address,address,uint256,uint256)":"fe99049a"}}}}}