{"contracts/quoters/SimpleQuoter.sol":{"SimpleQuoter":{"abi":[{"inputs":[{"components":[{"internalType":"address","name":"asset0","type":"address"},{"internalType":"address","name":"asset1","type":"address"},{"internalType":"address","name":"quoter","type":"address"},{"internalType":"uint256","name":"amount","type":"uint256"},{"internalType":"uint128","name":"asset0Balance","type":"uint128"},{"internalType":"uint128","name":"asset1Balance","type":"uint128"},{"internalType":"uint16","name":"bucketID","type":"uint16"},{"internalType":"bool","name":"zeroForOne","type":"bool"}],"internalType":"struct QuoteParams","name":"params","type":"tuple"}],"name":"quote","outputs":[{"internalType":"uint256","name":"quote","type":"uint256"}],"stateMutability":"pure","type":"function"},{"inputs":[{"components":[{"internalType":"address","name":"asset0","type":"address"},{"internalType":"address","name":"asset1","type":"address"},{"internalType":"address","name":"quoter","type":"address"},{"internalType":"uint256[]","name":"amount","type":"uint256[]"},{"internalType":"uint128[]","name":"asset0Balances","type":"uint128[]"},{"internalType":"uint128[]","name":"asset1Balances","type":"uint128[]"},{"internalType":"uint16[]","name":"bucketID","type":"uint16[]"},{"internalType":"bool","name":"zeroForOne","type":"bool"}],"internalType":"struct QuoteParamsBatch","name":"params","type":"tuple"}],"name":"quoteBatch","outputs":[{"internalType":"uint256[]","name":"quotes","type":"uint256[]"}],"stateMutability":"pure","type":"function"}],"evm":{"bytecode":{"linkReferences":{},"object":"60808060405234601557610645908161001a8239f35b5f80fdfe60806040526004361015610011575f80fd5b5f3560e01c8063517b318c1461018a5763583c12f41461002f575f80fd5b3461018657610100366003190112610186576100496104be565b6004356001600160a01b03811681036101865781526024356001600160a01b03811681036101865760208201526044356001600160a01b03811681036101865760408201526064356060820191818352608435916001600160801b03831690818403610186576080830193845260a435926001600160801b03841684036101865760a0810193845260c43561ffff811681036101865760c082015260e435801515918282036101865760e0015215610165575050826001600160801b0361011c610127938261012d9751915116906105d1565b9351169051906105e4565b906105f1565b6103e58102908082046103e51490151715610151576020906103e860405191048152f35b634e487b7160e01b5f52601160045260245ffd5b61012792935061011c61018195926001600160801b03926105d1565b61012d565b5f80fd5b346101865760203660031901126101865760043567ffffffffffffffff8111610186576101006003198236030112610186576101c46104be565b6101d082600401610519565b81526101de60248301610519565b60208201526101ef60448301610519565b6040820152606482013567ffffffffffffffff8111610186578201366023820112156101865760048101359061022c6102278361052d565b6104f3565b91602060048185848152019260051b840101019136831161018657602401905b8282106104ae5750505060608201908152608483013567ffffffffffffffff8111610186576102819060043691860101610545565b6080830190815260a484013567ffffffffffffffff8111610186576102ac9060043691870101610545565b9360a0840194855260c481013567ffffffffffffffff8111610186578101366023820112156101865760048101356102e66102278261052d565b91602060048185858152019360051b830101019036821161018657602401915b8183106104935750505060c085015260e401359283151584036101865760e0019283528151519361034561033c6102278761052d565b9580875261052d565b6020860190601f19013682375f5b8451805182101561044f578651829015610405576103c0915061037a6103969188516105a9565b516001600160801b0361038e8588516105a9565b5116906105d1565b6101276001600160801b036103ac8589516105a9565b51166103b9858a516105a9565b51906105e4565b6103ca82896105a9565b525b6103d681886105a9565b51906103e58202918083046103e51490151715610151576103e8600192046103fe828a6105a9565b5201610353565b6104156104299161043f936105a9565b516001600160801b0361038e8589516105a9565b6101276001600160801b036103ac8588516105a9565b61044982896105a9565b526103cc565b8288604051918291602083019060208452518091526040830191905f5b81811061047a575050500390f35b825184528594506020938401939092019160010161046c565b823561ffff8116810361018657815260209283019201610306565b813581526020918201910161024c565b60405190610100820182811067ffffffffffffffff8211176104df57604052565b634e487b7160e01b5f52604160045260245ffd5b6040519190601f01601f1916820167ffffffffffffffff8111838210176104df57604052565b35906001600160a01b038216820361018657565b67ffffffffffffffff81116104df5760051b60200190565b9080601f83011215610186578135906105606102278361052d565b9260208085858152019360051b82010191821161018657602001915b8183106105895750505090565b82356001600160801b03811681036101865781526020928301920161057c565b80518210156105bd5760209160051b010190565b634e487b7160e01b5f52603260045260245ffd5b8181029291811591840414171561015157565b9190820180921161015157565b81156105fb570490565b634e487b7160e01b5f52601260045260245ffdfea2646970667358221220bab55868cbb5da3be4b2fbc632a38894b99ff01923b178e89b9adc6ad9758ecf64736f6c634300081e0033","opcodes":"PUSH1 0x80 DUP1 PUSH1 0x40 MSTORE CALLVALUE PUSH1 0x15 JUMPI PUSH2 0x645 SWAP1 DUP2 PUSH2 0x1A DUP3 CODECOPY RETURN JUMPDEST PUSH0 DUP1 REVERT INVALID PUSH1 0x80 PUSH1 0x40 MSTORE PUSH1 0x4 CALLDATASIZE LT ISZERO PUSH2 0x11 JUMPI PUSH0 DUP1 REVERT JUMPDEST PUSH0 CALLDATALOAD PUSH1 0xE0 SHR DUP1 PUSH4 0x517B318C EQ PUSH2 0x18A JUMPI PUSH4 0x583C12F4 EQ PUSH2 0x2F JUMPI PUSH0 DUP1 REVERT JUMPDEST CALLVALUE PUSH2 0x186 JUMPI PUSH2 0x100 CALLDATASIZE PUSH1 0x3 NOT ADD SLT PUSH2 0x186 JUMPI PUSH2 0x49 PUSH2 0x4BE JUMP JUMPDEST PUSH1 0x4 CALLDATALOAD PUSH1 0x1 PUSH1 0x1 PUSH1 0xA0 SHL SUB DUP2 AND DUP2 SUB PUSH2 0x186 JUMPI DUP2 MSTORE PUSH1 0x24 CALLDATALOAD PUSH1 0x1 PUSH1 0x1 PUSH1 0xA0 SHL SUB DUP2 AND DUP2 SUB PUSH2 0x186 JUMPI PUSH1 0x20 DUP3 ADD MSTORE PUSH1 0x44 CALLDATALOAD PUSH1 0x1 PUSH1 0x1 PUSH1 0xA0 SHL SUB DUP2 AND DUP2 SUB PUSH2 0x186 JUMPI PUSH1 0x40 DUP3 ADD MSTORE PUSH1 0x64 CALLDATALOAD PUSH1 0x60 DUP3 ADD SWAP2 DUP2 DUP4 MSTORE PUSH1 0x84 CALLDATALOAD SWAP2 PUSH1 0x1 PUSH1 0x1 PUSH1 0x80 SHL SUB DUP4 AND SWAP1 DUP2 DUP5 SUB PUSH2 0x186 JUMPI PUSH1 0x80 DUP4 ADD SWAP4 DUP5 MSTORE PUSH1 0xA4 CALLDATALOAD SWAP3 PUSH1 0x1 PUSH1 0x1 PUSH1 0x80 SHL SUB DUP5 AND DUP5 SUB PUSH2 0x186 JUMPI PUSH1 0xA0 DUP2 ADD SWAP4 DUP5 MSTORE PUSH1 0xC4 CALLDATALOAD PUSH2 0xFFFF DUP2 AND DUP2 SUB PUSH2 0x186 JUMPI PUSH1 0xC0 DUP3 ADD MSTORE PUSH1 0xE4 CALLDATALOAD DUP1 ISZERO ISZERO SWAP2 DUP3 DUP3 SUB PUSH2 0x186 JUMPI PUSH1 0xE0 ADD MSTORE ISZERO PUSH2 0x165 JUMPI POP POP DUP3 PUSH1 0x1 PUSH1 0x1 PUSH1 0x80 SHL SUB PUSH2 0x11C PUSH2 0x127 SWAP4 DUP3 PUSH2 0x12D SWAP8 MLOAD SWAP2 MLOAD AND SWAP1 PUSH2 0x5D1 JUMP JUMPDEST SWAP4 MLOAD AND SWAP1 MLOAD SWAP1 PUSH2 0x5E4 JUMP JUMPDEST SWAP1 PUSH2 0x5F1 JUMP JUMPDEST PUSH2 0x3E5 DUP2 MUL SWAP1 DUP1 DUP3 DIV PUSH2 0x3E5 EQ SWAP1 ISZERO OR ISZERO PUSH2 0x151 JUMPI PUSH1 0x20 SWAP1 PUSH2 0x3E8 PUSH1 0x40 MLOAD SWAP2 DIV DUP2 MSTORE RETURN JUMPDEST PUSH4 0x4E487B71 PUSH1 0xE0 SHL PUSH0 MSTORE PUSH1 0x11 PUSH1 0x4 MSTORE PUSH1 0x24 PUSH0 REVERT JUMPDEST PUSH2 0x127 SWAP3 SWAP4 POP PUSH2 0x11C PUSH2 0x181 SWAP6 SWAP3 PUSH1 0x1 PUSH1 0x1 PUSH1 0x80 SHL SUB SWAP3 PUSH2 0x5D1 JUMP JUMPDEST PUSH2 0x12D JUMP JUMPDEST PUSH0 DUP1 REVERT JUMPDEST CALLVALUE PUSH2 0x186 JUMPI PUSH1 0x20 CALLDATASIZE PUSH1 0x3 NOT ADD SLT PUSH2 0x186 JUMPI PUSH1 0x4 CALLDATALOAD PUSH8 0xFFFFFFFFFFFFFFFF DUP2 GT PUSH2 0x186 JUMPI PUSH2 0x100 PUSH1 0x3 NOT DUP3 CALLDATASIZE SUB ADD SLT PUSH2 0x186 JUMPI PUSH2 0x1C4 PUSH2 0x4BE JUMP JUMPDEST PUSH2 0x1D0 DUP3 PUSH1 0x4 ADD PUSH2 0x519 JUMP JUMPDEST DUP2 MSTORE PUSH2 0x1DE PUSH1 0x24 DUP4 ADD PUSH2 0x519 JUMP JUMPDEST PUSH1 0x20 DUP3 ADD MSTORE PUSH2 0x1EF PUSH1 0x44 DUP4 ADD PUSH2 0x519 JUMP JUMPDEST PUSH1 0x40 DUP3 ADD MSTORE PUSH1 0x64 DUP3 ADD CALLDATALOAD PUSH8 0xFFFFFFFFFFFFFFFF DUP2 GT PUSH2 0x186 JUMPI DUP3 ADD CALLDATASIZE PUSH1 0x23 DUP3 ADD SLT ISZERO PUSH2 0x186 JUMPI PUSH1 0x4 DUP2 ADD CALLDATALOAD SWAP1 PUSH2 0x22C PUSH2 0x227 DUP4 PUSH2 0x52D JUMP JUMPDEST PUSH2 0x4F3 JUMP JUMPDEST SWAP2 PUSH1 0x20 PUSH1 0x4 DUP2 DUP6 DUP5 DUP2 MSTORE ADD SWAP3 PUSH1 0x5 SHL DUP5 ADD ADD ADD SWAP2 CALLDATASIZE DUP4 GT PUSH2 0x186 JUMPI PUSH1 0x24 ADD SWAP1 JUMPDEST DUP3 DUP3 LT PUSH2 0x4AE JUMPI POP POP POP PUSH1 0x60 DUP3 ADD SWAP1 DUP2 MSTORE PUSH1 0x84 DUP4 ADD CALLDATALOAD PUSH8 0xFFFFFFFFFFFFFFFF DUP2 GT PUSH2 0x186 JUMPI PUSH2 0x281 SWAP1 PUSH1 0x4 CALLDATASIZE SWAP2 DUP7 ADD ADD PUSH2 0x545 JUMP JUMPDEST PUSH1 0x80 DUP4 ADD SWAP1 DUP2 MSTORE PUSH1 0xA4 DUP5 ADD CALLDATALOAD PUSH8 0xFFFFFFFFFFFFFFFF DUP2 GT PUSH2 0x186 JUMPI PUSH2 0x2AC SWAP1 PUSH1 0x4 CALLDATASIZE SWAP2 DUP8 ADD ADD PUSH2 0x545 JUMP JUMPDEST SWAP4 PUSH1 0xA0 DUP5 ADD SWAP5 DUP6 MSTORE PUSH1 0xC4 DUP2 ADD CALLDATALOAD PUSH8 0xFFFFFFFFFFFFFFFF DUP2 GT PUSH2 0x186 JUMPI DUP2 ADD CALLDATASIZE PUSH1 0x23 DUP3 ADD SLT ISZERO PUSH2 0x186 JUMPI PUSH1 0x4 DUP2 ADD CALLDATALOAD PUSH2 0x2E6 PUSH2 0x227 DUP3 PUSH2 0x52D JUMP JUMPDEST SWAP2 PUSH1 0x20 PUSH1 0x4 DUP2 DUP6 DUP6 DUP2 MSTORE ADD SWAP4 PUSH1 0x5 SHL DUP4 ADD ADD ADD SWAP1 CALLDATASIZE DUP3 GT PUSH2 0x186 JUMPI PUSH1 0x24 ADD SWAP2 JUMPDEST DUP2 DUP4 LT PUSH2 0x493 JUMPI POP POP POP PUSH1 0xC0 DUP6 ADD MSTORE PUSH1 0xE4 ADD CALLDATALOAD SWAP3 DUP4 ISZERO ISZERO DUP5 SUB PUSH2 0x186 JUMPI PUSH1 0xE0 ADD SWAP3 DUP4 MSTORE DUP2 MLOAD MLOAD SWAP4 PUSH2 0x345 PUSH2 0x33C PUSH2 0x227 DUP8 PUSH2 0x52D JUMP JUMPDEST SWAP6 DUP1 DUP8 MSTORE PUSH2 0x52D JUMP JUMPDEST PUSH1 0x20 DUP7 ADD SWAP1 PUSH1 0x1F NOT ADD CALLDATASIZE DUP3 CALLDATACOPY PUSH0 JUMPDEST DUP5 MLOAD DUP1 MLOAD DUP3 LT ISZERO PUSH2 0x44F JUMPI DUP7 MLOAD DUP3 SWAP1 ISZERO PUSH2 0x405 JUMPI PUSH2 0x3C0 SWAP2 POP PUSH2 0x37A PUSH2 0x396 SWAP2 DUP9 MLOAD PUSH2 0x5A9 JUMP JUMPDEST MLOAD PUSH1 0x1 PUSH1 0x1 PUSH1 0x80 SHL SUB PUSH2 0x38E DUP6 DUP9 MLOAD PUSH2 0x5A9 JUMP JUMPDEST MLOAD AND SWAP1 PUSH2 0x5D1 JUMP JUMPDEST PUSH2 0x127 PUSH1 0x1 PUSH1 0x1 PUSH1 0x80 SHL SUB PUSH2 0x3AC DUP6 DUP10 MLOAD PUSH2 0x5A9 JUMP JUMPDEST MLOAD AND PUSH2 0x3B9 DUP6 DUP11 MLOAD PUSH2 0x5A9 JUMP JUMPDEST MLOAD SWAP1 PUSH2 0x5E4 JUMP JUMPDEST PUSH2 0x3CA DUP3 DUP10 PUSH2 0x5A9 JUMP JUMPDEST MSTORE JUMPDEST PUSH2 0x3D6 DUP2 DUP9 PUSH2 0x5A9 JUMP JUMPDEST MLOAD SWAP1 PUSH2 0x3E5 DUP3 MUL SWAP2 DUP1 DUP4 DIV PUSH2 0x3E5 EQ SWAP1 ISZERO OR ISZERO PUSH2 0x151 JUMPI PUSH2 0x3E8 PUSH1 0x1 SWAP3 DIV PUSH2 0x3FE DUP3 DUP11 PUSH2 0x5A9 JUMP JUMPDEST MSTORE ADD PUSH2 0x353 JUMP JUMPDEST PUSH2 0x415 PUSH2 0x429 SWAP2 PUSH2 0x43F SWAP4 PUSH2 0x5A9 JUMP JUMPDEST MLOAD PUSH1 0x1 PUSH1 0x1 PUSH1 0x80 SHL SUB PUSH2 0x38E DUP6 DUP10 MLOAD PUSH2 0x5A9 JUMP JUMPDEST PUSH2 0x127 PUSH1 0x1 PUSH1 0x1 PUSH1 0x80 SHL SUB PUSH2 0x3AC DUP6 DUP9 MLOAD PUSH2 0x5A9 JUMP JUMPDEST PUSH2 0x449 DUP3 DUP10 PUSH2 0x5A9 JUMP JUMPDEST MSTORE PUSH2 0x3CC JUMP JUMPDEST DUP3 DUP9 PUSH1 0x40 MLOAD SWAP2 DUP3 SWAP2 PUSH1 0x20 DUP4 ADD SWAP1 PUSH1 0x20 DUP5 MSTORE MLOAD DUP1 SWAP2 MSTORE PUSH1 0x40 DUP4 ADD SWAP2 SWAP1 PUSH0 JUMPDEST DUP2 DUP2 LT PUSH2 0x47A JUMPI POP POP POP SUB SWAP1 RETURN JUMPDEST DUP3 MLOAD DUP5 MSTORE DUP6 SWAP5 POP PUSH1 0x20 SWAP4 DUP5 ADD SWAP4 SWAP1 SWAP3 ADD SWAP2 PUSH1 0x1 ADD PUSH2 0x46C JUMP JUMPDEST DUP3 CALLDATALOAD PUSH2 0xFFFF DUP2 AND DUP2 SUB PUSH2 0x186 JUMPI DUP2 MSTORE PUSH1 0x20 SWAP3 DUP4 ADD SWAP3 ADD PUSH2 0x306 JUMP JUMPDEST DUP2 CALLDATALOAD DUP2 MSTORE PUSH1 0x20 SWAP2 DUP3 ADD SWAP2 ADD PUSH2 0x24C JUMP JUMPDEST PUSH1 0x40 MLOAD SWAP1 PUSH2 0x100 DUP3 ADD DUP3 DUP2 LT PUSH8 0xFFFFFFFFFFFFFFFF DUP3 GT OR PUSH2 0x4DF JUMPI PUSH1 0x40 MSTORE JUMP JUMPDEST PUSH4 0x4E487B71 PUSH1 0xE0 SHL PUSH0 MSTORE PUSH1 0x41 PUSH1 0x4 MSTORE PUSH1 0x24 PUSH0 REVERT JUMPDEST PUSH1 0x40 MLOAD SWAP2 SWAP1 PUSH1 0x1F ADD PUSH1 0x1F NOT AND DUP3 ADD PUSH8 0xFFFFFFFFFFFFFFFF DUP2 GT DUP4 DUP3 LT OR PUSH2 0x4DF JUMPI PUSH1 0x40 MSTORE JUMP JUMPDEST CALLDATALOAD SWAP1 PUSH1 0x1 PUSH1 0x1 PUSH1 0xA0 SHL SUB DUP3 AND DUP3 SUB PUSH2 0x186 JUMPI JUMP JUMPDEST PUSH8 0xFFFFFFFFFFFFFFFF DUP2 GT PUSH2 0x4DF JUMPI PUSH1 0x5 SHL PUSH1 0x20 ADD SWAP1 JUMP JUMPDEST SWAP1 DUP1 PUSH1 0x1F DUP4 ADD SLT ISZERO PUSH2 0x186 JUMPI DUP2 CALLDATALOAD SWAP1 PUSH2 0x560 PUSH2 0x227 DUP4 PUSH2 0x52D JUMP JUMPDEST SWAP3 PUSH1 0x20 DUP1 DUP6 DUP6 DUP2 MSTORE ADD SWAP4 PUSH1 0x5 SHL DUP3 ADD ADD SWAP2 DUP3 GT PUSH2 0x186 JUMPI PUSH1 0x20 ADD SWAP2 JUMPDEST DUP2 DUP4 LT PUSH2 0x589 JUMPI POP POP POP SWAP1 JUMP JUMPDEST DUP3 CALLDATALOAD PUSH1 0x1 PUSH1 0x1 PUSH1 0x80 SHL SUB DUP2 AND DUP2 SUB PUSH2 0x186 JUMPI DUP2 MSTORE PUSH1 0x20 SWAP3 DUP4 ADD SWAP3 ADD PUSH2 0x57C JUMP JUMPDEST DUP1 MLOAD DUP3 LT ISZERO PUSH2 0x5BD JUMPI PUSH1 0x20 SWAP2 PUSH1 0x5 SHL ADD ADD SWAP1 JUMP JUMPDEST PUSH4 0x4E487B71 PUSH1 0xE0 SHL PUSH0 MSTORE PUSH1 0x32 PUSH1 0x4 MSTORE PUSH1 0x24 PUSH0 REVERT JUMPDEST DUP2 DUP2 MUL SWAP3 SWAP2 DUP2 ISZERO SWAP2 DUP5 DIV EQ OR ISZERO PUSH2 0x151 JUMPI JUMP JUMPDEST SWAP2 SWAP1 DUP3 ADD DUP1 SWAP3 GT PUSH2 0x151 JUMPI JUMP JUMPDEST DUP2 ISZERO PUSH2 0x5FB JUMPI DIV SWAP1 JUMP JUMPDEST PUSH4 0x4E487B71 PUSH1 0xE0 SHL PUSH0 MSTORE PUSH1 0x12 PUSH1 0x4 MSTORE PUSH1 0x24 PUSH0 REVERT INVALID LOG2 PUSH5 0x6970667358 0x22 SLT KECCAK256 0xBA 0xB5 PC PUSH9 0xCBB5DA3BE4B2FBC632 LOG3 DUP9 SWAP5 0xB9 SWAP16 CREATE NOT 0x23 0xB1 PUSH25 0xE89B9ADC6AD9758ECF64736F6C634300081E00330000000000 "},"methodIdentifiers":{"quote((address,address,address,uint256,uint128,uint128,uint16,bool))":"583c12f4","quoteBatch((address,address,address,uint256[],uint128[],uint128[],uint16[],bool))":"517b318c"}}}}}