{"contracts/ERC6909Extended.sol":{"ERC6909Extended":{"abi":[{"anonymous":false,"inputs":[{"indexed":true,"internalType":"address","name":"owner","type":"address"},{"indexed":true,"internalType":"address","name":"operator","type":"address"},{"indexed":false,"internalType":"bool","name":"approved","type":"bool"}],"name":"ApprovalForAll","type":"event"},{"anonymous":false,"inputs":[{"indexed":true,"internalType":"address","name":"from","type":"address"},{"indexed":true,"internalType":"address","name":"to","type":"address"},{"indexed":true,"internalType":"uint256","name":"id","type":"uint256"},{"indexed":false,"internalType":"uint256","name":"amount","type":"uint256"}],"name":"Transfer","type":"event"},{"inputs":[{"internalType":"uint256","name":"","type":"uint256"},{"internalType":"address","name":"","type":"address"}],"name":"balanceOf","outputs":[{"internalType":"uint256","name":"","type":"uint256"}],"stateMutability":"view","type":"function"},{"inputs":[{"internalType":"uint256","name":"poolId","type":"uint256"}],"name":"getInventory","outputs":[{"internalType":"uint128","name":"asset0","type":"uint128"},{"internalType":"uint128","name":"asset1","type":"uint128"}],"stateMutability":"view","type":"function"},{"inputs":[{"internalType":"address","name":"","type":"address"},{"internalType":"address","name":"","type":"address"}],"name":"isApprovedForAll","outputs":[{"internalType":"bool","name":"","type":"bool"}],"stateMutability":"view","type":"function"},{"inputs":[{"internalType":"uint256","name":"","type":"uint256"}],"name":"poolInventories","outputs":[{"internalType":"uint256","name":"","type":"uint256"}],"stateMutability":"view","type":"function"},{"inputs":[{"internalType":"address","name":"operator","type":"address"},{"internalType":"bool","name":"approved","type":"bool"}],"name":"setApprovalForAll","outputs":[],"stateMutability":"nonpayable","type":"function"},{"inputs":[{"internalType":"address","name":"to","type":"address"},{"internalType":"uint256","name":"id","type":"uint256"},{"internalType":"uint256","name":"amount","type":"uint256"}],"name":"transfer","outputs":[{"internalType":"bool","name":"","type":"bool"}],"stateMutability":"nonpayable","type":"function"},{"inputs":[{"internalType":"address","name":"from","type":"address"},{"internalType":"address","name":"to","type":"address"},{"internalType":"uint256","name":"id","type":"uint256"},{"internalType":"uint256","name":"amount","type":"uint256"}],"name":"transferFrom","outputs":[{"internalType":"bool","name":"","type":"bool"}],"stateMutability":"nonpayable","type":"function"}],"evm":{"bytecode":{"linkReferences":{},"object":"608080604052346015576104ed908161001a8239f35b5f80fdfe60806040526004361015610011575f80fd5b5f3560e01c8063095bcdb61461033e5780633656eec2146102fb5780635b298d32146102b85780636028898d1461028e578063a22cb46514610205578063e985e9c5146101ae5763fe99049a14610066575f80fd5b346101aa5760803660031901126101aa5761007f61041a565b610087610430565b60443591606435916001600160a01b03909116903382148015610188575b156101545760207f9ed053bb818ff08b8353cd46f78db1f0799f31c9e4458fdb425c10eccd2efc4491855f525f825260405f20845f5282526100ed8560405f20541015610446565b855f525f825260405f20845f52825260405f2061010b868254610489565b90555f86815280835260408082206001600160a01b03841683528452902080546101369087906104aa565b90556040519485526001600160a01b031693a4602060405160018152f35b60405162461bcd60e51b815260206004820152600c60248201526b139bdd08185c1c1c9bdd995960a21b6044820152606490fd5b505f82815260016020908152604080832033845290915290205460ff166100a5565b5f80fd5b346101aa5760403660031901126101aa576101c761041a565b6101cf610430565b9060018060a01b03165f52600160205260405f209060018060a01b03165f52602052602060ff60405f2054166040519015158152f35b346101aa5760403660031901126101aa5761021e61041a565b602435908115158092036101aa57335f52600160205260405f2060018060a01b0382165f5260205260405f2060ff1981541660ff841617905560405191825260018060a01b0316907f17307eab39ab6107e8899845ad3d59bd9653f200f220920489ca2b5937696c3160203392a3005b346101aa5760203660031901126101aa576004355f526002602052602060405f2054604051908152f35b346101aa5760203660031901126101aa576004355f5260026020526040805f20548151906fffffffffffffffffffffffffffffffff8116825260801c6020820152f35b346101aa5760403660031901126101aa57610314610430565b6004355f525f60205260405f209060018060a01b03165f52602052602060405f2054604051908152f35b346101aa5760603660031901126101aa5761035761041a565b6024359060443590825f525f60205260405f2060018060a01b0333165f526020526103888260405f20541015610446565b5f83815260208181526040808320338452909152902080546103ab908490610489565b9055825f525f60205260405f2060018060a01b0382165f5260205260405f206103d58382546104aa565b90556040519182526001600160a01b03169033907f9ed053bb818ff08b8353cd46f78db1f0799f31c9e4458fdb425c10eccd2efc4490602090a4602060405160018152f35b600435906001600160a01b03821682036101aa57565b602435906001600160a01b03821682036101aa57565b1561044d57565b60405162461bcd60e51b8152602060048201526014602482015273496e73756666696369656e742062616c616e636560601b6044820152606490fd5b9190820391821161049657565b634e487b7160e01b5f52601160045260245ffd5b919082018092116104965756fea264697066735822122089cf7f6b0bab45ef2c070cdf828d0f833ab8e6576352b8d1fb55ca681822bee264736f6c634300081e0033","opcodes":"PUSH1 0x80 DUP1 PUSH1 0x40 MSTORE CALLVALUE PUSH1 0x15 JUMPI PUSH2 0x4ED SWAP1 DUP2 PUSH2 0x1A DUP3 CODECOPY RETURN JUMPDEST PUSH0 DUP1 REVERT INVALID PUSH1 0x80 PUSH1 0x40 MSTORE PUSH1 0x4 CALLDATASIZE LT ISZERO PUSH2 0x11 JUMPI PUSH0 DUP1 REVERT JUMPDEST PUSH0 CALLDATALOAD PUSH1 0xE0 SHR DUP1 PUSH4 0x95BCDB6 EQ PUSH2 0x33E JUMPI DUP1 PUSH4 0x3656EEC2 EQ PUSH2 0x2FB JUMPI DUP1 PUSH4 0x5B298D32 EQ PUSH2 0x2B8 JUMPI DUP1 PUSH4 0x6028898D EQ PUSH2 0x28E JUMPI DUP1 PUSH4 0xA22CB465 EQ PUSH2 0x205 JUMPI DUP1 PUSH4 0xE985E9C5 EQ PUSH2 0x1AE JUMPI PUSH4 0xFE99049A EQ PUSH2 0x66 JUMPI PUSH0 DUP1 REVERT JUMPDEST CALLVALUE PUSH2 0x1AA JUMPI PUSH1 0x80 CALLDATASIZE PUSH1 0x3 NOT ADD SLT PUSH2 0x1AA JUMPI PUSH2 0x7F PUSH2 0x41A JUMP JUMPDEST PUSH2 0x87 PUSH2 0x430 JUMP JUMPDEST PUSH1 0x44 CALLDATALOAD SWAP2 PUSH1 0x64 CALLDATALOAD SWAP2 PUSH1 0x1 PUSH1 0x1 PUSH1 0xA0 SHL SUB SWAP1 SWAP2 AND SWAP1 CALLER DUP3 EQ DUP1 ISZERO PUSH2 0x188 JUMPI JUMPDEST ISZERO PUSH2 0x154 JUMPI PUSH1 0x20 PUSH32 0x9ED053BB818FF08B8353CD46F78DB1F0799F31C9E4458FDB425C10ECCD2EFC44 SWAP2 DUP6 PUSH0 MSTORE PUSH0 DUP3 MSTORE PUSH1 0x40 PUSH0 KECCAK256 DUP5 PUSH0 MSTORE DUP3 MSTORE PUSH2 0xED DUP6 PUSH1 0x40 PUSH0 KECCAK256 SLOAD LT ISZERO PUSH2 0x446 JUMP JUMPDEST DUP6 PUSH0 MSTORE PUSH0 DUP3 MSTORE PUSH1 0x40 PUSH0 KECCAK256 DUP5 PUSH0 MSTORE DUP3 MSTORE PUSH1 0x40 PUSH0 KECCAK256 PUSH2 0x10B DUP7 DUP3 SLOAD PUSH2 0x489 JUMP JUMPDEST SWAP1 SSTORE PUSH0 DUP7 DUP2 MSTORE DUP1 DUP4 MSTORE PUSH1 0x40 DUP1 DUP3 KECCAK256 PUSH1 0x1 PUSH1 0x1 PUSH1 0xA0 SHL SUB DUP5 AND DUP4 MSTORE DUP5 MSTORE SWAP1 KECCAK256 DUP1 SLOAD PUSH2 0x136 SWAP1 DUP8 SWAP1 PUSH2 0x4AA JUMP JUMPDEST SWAP1 SSTORE PUSH1 0x40 MLOAD SWAP5 DUP6 MSTORE PUSH1 0x1 PUSH1 0x1 PUSH1 0xA0 SHL SUB AND SWAP4 LOG4 PUSH1 0x20 PUSH1 0x40 MLOAD PUSH1 0x1 DUP2 MSTORE RETURN JUMPDEST PUSH1 0x40 MLOAD PUSH3 0x461BCD PUSH1 0xE5 SHL DUP2 MSTORE PUSH1 0x20 PUSH1 0x4 DUP3 ADD MSTORE PUSH1 0xC PUSH1 0x24 DUP3 ADD MSTORE PUSH12 0x139BDD08185C1C1C9BDD9959 PUSH1 0xA2 SHL PUSH1 0x44 DUP3 ADD MSTORE PUSH1 0x64 SWAP1 REVERT JUMPDEST POP PUSH0 DUP3 DUP2 MSTORE PUSH1 0x1 PUSH1 0x20 SWAP1 DUP2 MSTORE PUSH1 0x40 DUP1 DUP4 KECCAK256 CALLER DUP5 MSTORE SWAP1 SWAP2 MSTORE SWAP1 KECCAK256 SLOAD PUSH1 0xFF AND PUSH2 0xA5 JUMP JUMPDEST PUSH0 DUP1 REVERT JUMPDEST CALLVALUE PUSH2 0x1AA JUMPI PUSH1 0x40 CALLDATASIZE PUSH1 0x3 NOT ADD SLT PUSH2 0x1AA JUMPI PUSH2 0x1C7 PUSH2 0x41A JUMP JUMPDEST PUSH2 0x1CF PUSH2 0x430 JUMP JUMPDEST SWAP1 PUSH1 0x1 DUP1 PUSH1 0xA0 SHL SUB AND PUSH0 MSTORE PUSH1 0x1 PUSH1 0x20 MSTORE PUSH1 0x40 PUSH0 KECCAK256 SWAP1 PUSH1 0x1 DUP1 PUSH1 0xA0 SHL SUB AND PUSH0 MSTORE PUSH1 0x20 MSTORE PUSH1 0x20 PUSH1 0xFF PUSH1 0x40 PUSH0 KECCAK256 SLOAD AND PUSH1 0x40 MLOAD SWAP1 ISZERO ISZERO DUP2 MSTORE RETURN JUMPDEST CALLVALUE PUSH2 0x1AA JUMPI PUSH1 0x40 CALLDATASIZE PUSH1 0x3 NOT ADD SLT PUSH2 0x1AA JUMPI PUSH2 0x21E PUSH2 0x41A JUMP JUMPDEST PUSH1 0x24 CALLDATALOAD SWAP1 DUP2 ISZERO ISZERO DUP1 SWAP3 SUB PUSH2 0x1AA JUMPI CALLER PUSH0 MSTORE PUSH1 0x1 PUSH1 0x20 MSTORE PUSH1 0x40 PUSH0 KECCAK256 PUSH1 0x1 DUP1 PUSH1 0xA0 SHL SUB DUP3 AND PUSH0 MSTORE PUSH1 0x20 MSTORE PUSH1 0x40 PUSH0 KECCAK256 PUSH1 0xFF NOT DUP2 SLOAD AND PUSH1 0xFF DUP5 AND OR SWAP1 SSTORE PUSH1 0x40 MLOAD SWAP2 DUP3 MSTORE PUSH1 0x1 DUP1 PUSH1 0xA0 SHL SUB AND SWAP1 PUSH32 0x17307EAB39AB6107E8899845AD3D59BD9653F200F220920489CA2B5937696C31 PUSH1 0x20 CALLER SWAP3 LOG3 STOP JUMPDEST CALLVALUE PUSH2 0x1AA JUMPI PUSH1 0x20 CALLDATASIZE PUSH1 0x3 NOT ADD SLT PUSH2 0x1AA JUMPI PUSH1 0x4 CALLDATALOAD PUSH0 MSTORE PUSH1 0x2 PUSH1 0x20 MSTORE PUSH1 0x20 PUSH1 0x40 PUSH0 KECCAK256 SLOAD PUSH1 0x40 MLOAD SWAP1 DUP2 MSTORE RETURN JUMPDEST CALLVALUE PUSH2 0x1AA JUMPI PUSH1 0x20 CALLDATASIZE PUSH1 0x3 NOT ADD SLT PUSH2 0x1AA JUMPI PUSH1 0x4 CALLDATALOAD PUSH0 MSTORE PUSH1 0x2 PUSH1 0x20 MSTORE PUSH1 0x40 DUP1 PUSH0 KECCAK256 SLOAD DUP2 MLOAD SWAP1 PUSH16 0xFFFFFFFFFFFFFFFFFFFFFFFFFFFFFFFF DUP2 AND DUP3 MSTORE PUSH1 0x80 SHR PUSH1 0x20 DUP3 ADD MSTORE RETURN JUMPDEST CALLVALUE PUSH2 0x1AA JUMPI PUSH1 0x40 CALLDATASIZE PUSH1 0x3 NOT ADD SLT PUSH2 0x1AA JUMPI PUSH2 0x314 PUSH2 0x430 JUMP JUMPDEST PUSH1 0x4 CALLDATALOAD PUSH0 MSTORE PUSH0 PUSH1 0x20 MSTORE PUSH1 0x40 PUSH0 KECCAK256 SWAP1 PUSH1 0x1 DUP1 PUSH1 0xA0 SHL SUB AND PUSH0 MSTORE PUSH1 0x20 MSTORE PUSH1 0x20 PUSH1 0x40 PUSH0 KECCAK256 SLOAD PUSH1 0x40 MLOAD SWAP1 DUP2 MSTORE RETURN JUMPDEST CALLVALUE PUSH2 0x1AA JUMPI PUSH1 0x60 CALLDATASIZE PUSH1 0x3 NOT ADD SLT PUSH2 0x1AA JUMPI PUSH2 0x357 PUSH2 0x41A JUMP JUMPDEST PUSH1 0x24 CALLDATALOAD SWAP1 PUSH1 0x44 CALLDATALOAD SWAP1 DUP3 PUSH0 MSTORE PUSH0 PUSH1 0x20 MSTORE PUSH1 0x40 PUSH0 KECCAK256 PUSH1 0x1 DUP1 PUSH1 0xA0 SHL SUB CALLER AND PUSH0 MSTORE PUSH1 0x20 MSTORE PUSH2 0x388 DUP3 PUSH1 0x40 PUSH0 KECCAK256 SLOAD LT ISZERO PUSH2 0x446 JUMP JUMPDEST PUSH0 DUP4 DUP2 MSTORE PUSH1 0x20 DUP2 DUP2 MSTORE PUSH1 0x40 DUP1 DUP4 KECCAK256 CALLER DUP5 MSTORE SWAP1 SWAP2 MSTORE SWAP1 KECCAK256 DUP1 SLOAD PUSH2 0x3AB SWAP1 DUP5 SWAP1 PUSH2 0x489 JUMP JUMPDEST SWAP1 SSTORE DUP3 PUSH0 MSTORE PUSH0 PUSH1 0x20 MSTORE PUSH1 0x40 PUSH0 KECCAK256 PUSH1 0x1 DUP1 PUSH1 0xA0 SHL SUB DUP3 AND PUSH0 MSTORE PUSH1 0x20 MSTORE PUSH1 0x40 PUSH0 KECCAK256 PUSH2 0x3D5 DUP4 DUP3 SLOAD PUSH2 0x4AA JUMP JUMPDEST SWAP1 SSTORE PUSH1 0x40 MLOAD SWAP2 DUP3 MSTORE PUSH1 0x1 PUSH1 0x1 PUSH1 0xA0 SHL SUB AND SWAP1 CALLER SWAP1 PUSH32 0x9ED053BB818FF08B8353CD46F78DB1F0799F31C9E4458FDB425C10ECCD2EFC44 SWAP1 PUSH1 0x20 SWAP1 LOG4 PUSH1 0x20 PUSH1 0x40 MLOAD PUSH1 0x1 DUP2 MSTORE RETURN JUMPDEST PUSH1 0x4 CALLDATALOAD SWAP1 PUSH1 0x1 PUSH1 0x1 PUSH1 0xA0 SHL SUB DUP3 AND DUP3 SUB PUSH2 0x1AA JUMPI JUMP JUMPDEST PUSH1 0x24 CALLDATALOAD SWAP1 PUSH1 0x1 PUSH1 0x1 PUSH1 0xA0 SHL SUB DUP3 AND DUP3 SUB PUSH2 0x1AA JUMPI JUMP JUMPDEST ISZERO PUSH2 0x44D JUMPI JUMP JUMPDEST PUSH1 0x40 MLOAD PUSH3 0x461BCD PUSH1 0xE5 SHL DUP2 MSTORE PUSH1 0x20 PUSH1 0x4 DUP3 ADD MSTORE PUSH1 0x14 PUSH1 0x24 DUP3 ADD MSTORE PUSH20 0x496E73756666696369656E742062616C616E6365 PUSH1 0x60 SHL PUSH1 0x44 DUP3 ADD MSTORE PUSH1 0x64 SWAP1 REVERT JUMPDEST SWAP2 SWAP1 DUP3 SUB SWAP2 DUP3 GT PUSH2 0x496 JUMPI JUMP JUMPDEST PUSH4 0x4E487B71 PUSH1 0xE0 SHL PUSH0 MSTORE PUSH1 0x11 PUSH1 0x4 MSTORE PUSH1 0x24 PUSH0 REVERT JUMPDEST SWAP2 SWAP1 DUP3 ADD DUP1 SWAP3 GT PUSH2 0x496 JUMPI JUMP INVALID LOG2 PUSH5 0x6970667358 0x22 SLT KECCAK256 DUP10 0xCF PUSH32 0x6B0BAB45EF2C070CDF828D0F833AB8E6576352B8D1FB55CA681822BEE264736F PUSH13 0x634300081E0033000000000000 "},"methodIdentifiers":{"balanceOf(uint256,address)":"3656eec2","getInventory(uint256)":"5b298d32","isApprovedForAll(address,address)":"e985e9c5","poolInventories(uint256)":"6028898d","setApprovalForAll(address,bool)":"a22cb465","transfer(address,uint256,uint256)":"095bcdb6","transferFrom(address,address,uint256,uint256)":"fe99049a"}}}}}