{"contracts/TestTransientStorage.sol":{"TestTransientStorage":{"abi":[{"inputs":[],"name":"getStoredValue","outputs":[{"internalType":"uint256","name":"value","type":"uint256"}],"stateMutability":"view","type":"function"},{"inputs":[{"internalType":"address","name":"addr","type":"address"}],"name":"testAddressBasedSlots","outputs":[{"internalType":"uint256","name":"stored","type":"uint256"},{"internalType":"uint256","name":"loaded","type":"uint256"}],"stateMutability":"nonpayable","type":"function"},{"inputs":[],"name":"testBasicTransientStorage","outputs":[{"internalType":"uint256","name":"value","type":"uint256"}],"stateMutability":"nonpayable","type":"function"},{"inputs":[{"internalType":"bytes","name":"data","type":"bytes"}],"name":"testCachingBehavior","outputs":[{"internalType":"bytes","name":"firstLoad","type":"bytes"},{"internalType":"bytes","name":"secondLoad","type":"bytes"},{"internalType":"bool","name":"matches","type":"bool"}],"stateMutability":"nonpayable","type":"function"},{"inputs":[{"internalType":"bytes","name":"data","type":"bytes"}],"name":"testHashStorage","outputs":[{"internalType":"bytes32","name":"storedHash","type":"bytes32"},{"internalType":"bytes32","name":"loadedHash","type":"bytes32"}],"stateMutability":"nonpayable","type":"function"},{"inputs":[],"name":"testMultipleStores","outputs":[{"internalType":"uint256","name":"val1","type":"uint256"},{"internalType":"uint256","name":"val2","type":"uint256"},{"internalType":"uint256","name":"val3","type":"uint256"}],"stateMutability":"nonpayable","type":"function"},{"inputs":[{"internalType":"bytes","name":"testData","type":"bytes"}],"name":"testTransientStorageLibrary","outputs":[{"internalType":"bytes","name":"storedData","type":"bytes"},{"internalType":"bytes","name":"loadedData","type":"bytes"}],"stateMutability":"nonpayable","type":"function"}],"evm":{"bytecode":{"linkReferences":{},"object":"608080604052346015576104f6908161001a8239f35b5f80fdfe60806040526004361015610011575f80fd5b5f3560e01c80630d336a21146100845780630ffe524e1461007f578063217ac19e1461007a578063acc03b9914610075578063c76e9a8714610070578063ca7ac2791461006b5763f498d93514610066575f80fd5b610372565b6102dc565b610207565b610104565b6100c6565b6100a4565b346100a0575f3660031901126100a05760015c60805260206080f35b5f80fd5b346100a0575f3660031901126100a057602a60015d602060015c604051908152f35b346100a0575f3660031901126100a057606460105d60c860205d61012c60305d606060105c60205c60305c9060405192835260208301526040820152f35b346100a05760203660031901126100a0576004356001600160a01b03811681036100a057806103e76040925d5c8151906103e782526020820152f35b634e487b7160e01b5f52604160045260245ffd5b60206003198201126100a05760043567ffffffffffffffff81116100a057816023820112156100a05780600401359067ffffffffffffffff82116101de5760405192601f8301601f19908116603f0116840167ffffffffffffffff8111858210176101de57604052828452602483830101116100a057815f92602460209301838601378301015290565b610140565b805180835260209291819084018484015e5f828201840152601f01601f1916010190565b346100a05761021536610154565b601f8151807399999999999999999999999999999999999999995d0160051c5f5b8181106102b1576102838361024961039c565b9061025261039c565b82516020840120815160208301208114928361029d575b5050610291906040519485946060865260608601906101e3565b9084820360208601526101e3565b90151560408301520390f35b805160209091012014915061029185610269565b80602060019260051b8501015173999999999999999999999999999999999999999a82015d01610236565b346100a0576102ea36610154565b601f8151807312345678901234567890123456789012345678905d0160051c5f5b818110610347576103358361034361032161042e565b6040519384936040855260408501906101e3565b9083820360208501526101e3565b0390f35b80602060019260051b8501015173123456789012345678901234567890123456789182015d0161030b565b346100a057604061038236610154565b602081519101208060025d60025c82519182526020820152f35b6060907399999999999999999999999999999999999999995c801580610419575b156103c55750565b9150601f60405192808452018060051c5f5b8181106103ee575050601f19168201602001604052565b8073999999999999999999999999999999999999999a600192015c60208260051b88010152016103d7565b9250604051925f8452602084016040526103bd565b6060907312345678901234567890123456789012345678905c8015806104ab575b156104575750565b9150601f60405192808452018060051c5f5b818110610480575050601f19168201602001604052565b80731234567890123456789012345678901234567891600192015c60208260051b8801015201610469565b9250604051925f84526020840160405261044f56fea2646970667358221220c278392b9f162693864f6db33d2d4827eb01274945e7d92b2d016d243299e01d64736f6c634300081e0033","opcodes":"PUSH1 0x80 DUP1 PUSH1 0x40 MSTORE CALLVALUE PUSH1 0x15 JUMPI PUSH2 0x4F6 SWAP1 DUP2 PUSH2 0x1A DUP3 CODECOPY RETURN JUMPDEST PUSH0 DUP1 REVERT INVALID PUSH1 0x80 PUSH1 0x40 MSTORE PUSH1 0x4 CALLDATASIZE LT ISZERO PUSH2 0x11 JUMPI PUSH0 DUP1 REVERT JUMPDEST PUSH0 CALLDATALOAD PUSH1 0xE0 SHR DUP1 PUSH4 0xD336A21 EQ PUSH2 0x84 JUMPI DUP1 PUSH4 0xFFE524E EQ PUSH2 0x7F JUMPI DUP1 PUSH4 0x217AC19E EQ PUSH2 0x7A JUMPI DUP1 PUSH4 0xACC03B99 EQ PUSH2 0x75 JUMPI DUP1 PUSH4 0xC76E9A87 EQ PUSH2 0x70 JUMPI DUP1 PUSH4 0xCA7AC279 EQ PUSH2 0x6B JUMPI PUSH4 0xF498D935 EQ PUSH2 0x66 JUMPI PUSH0 DUP1 REVERT JUMPDEST PUSH2 0x372 JUMP JUMPDEST PUSH2 0x2DC JUMP JUMPDEST PUSH2 0x207 JUMP JUMPDEST PUSH2 0x104 JUMP JUMPDEST PUSH2 0xC6 JUMP JUMPDEST PUSH2 0xA4 JUMP JUMPDEST CALLVALUE PUSH2 0xA0 JUMPI PUSH0 CALLDATASIZE PUSH1 0x3 NOT ADD SLT PUSH2 0xA0 JUMPI PUSH1 0x1 TLOAD PUSH1 0x80 MSTORE PUSH1 0x20 PUSH1 0x80 RETURN JUMPDEST PUSH0 DUP1 REVERT JUMPDEST CALLVALUE PUSH2 0xA0 JUMPI PUSH0 CALLDATASIZE PUSH1 0x3 NOT ADD SLT PUSH2 0xA0 JUMPI PUSH1 0x2A PUSH1 0x1 TSTORE PUSH1 0x20 PUSH1 0x1 TLOAD PUSH1 0x40 MLOAD SWAP1 DUP2 MSTORE RETURN JUMPDEST CALLVALUE PUSH2 0xA0 JUMPI PUSH0 CALLDATASIZE PUSH1 0x3 NOT ADD SLT PUSH2 0xA0 JUMPI PUSH1 0x64 PUSH1 0x10 TSTORE PUSH1 0xC8 PUSH1 0x20 TSTORE PUSH2 0x12C PUSH1 0x30 TSTORE PUSH1 0x60 PUSH1 0x10 TLOAD PUSH1 0x20 TLOAD PUSH1 0x30 TLOAD SWAP1 PUSH1 0x40 MLOAD SWAP3 DUP4 MSTORE PUSH1 0x20 DUP4 ADD MSTORE PUSH1 0x40 DUP3 ADD MSTORE RETURN JUMPDEST CALLVALUE PUSH2 0xA0 JUMPI PUSH1 0x20 CALLDATASIZE PUSH1 0x3 NOT ADD SLT PUSH2 0xA0 JUMPI PUSH1 0x4 CALLDATALOAD PUSH1 0x1 PUSH1 0x1 PUSH1 0xA0 SHL SUB DUP2 AND DUP2 SUB PUSH2 0xA0 JUMPI DUP1 PUSH2 0x3E7 PUSH1 0x40 SWAP3 TSTORE TLOAD DUP2 MLOAD SWAP1 PUSH2 0x3E7 DUP3 MSTORE PUSH1 0x20 DUP3 ADD MSTORE RETURN JUMPDEST PUSH4 0x4E487B71 PUSH1 0xE0 SHL PUSH0 MSTORE PUSH1 0x41 PUSH1 0x4 MSTORE PUSH1 0x24 PUSH0 REVERT JUMPDEST PUSH1 0x20 PUSH1 0x3 NOT DUP3 ADD SLT PUSH2 0xA0 JUMPI PUSH1 0x4 CALLDATALOAD PUSH8 0xFFFFFFFFFFFFFFFF DUP2 GT PUSH2 0xA0 JUMPI DUP2 PUSH1 0x23 DUP3 ADD SLT ISZERO PUSH2 0xA0 JUMPI DUP1 PUSH1 0x4 ADD CALLDATALOAD SWAP1 PUSH8 0xFFFFFFFFFFFFFFFF DUP3 GT PUSH2 0x1DE JUMPI PUSH1 0x40 MLOAD SWAP3 PUSH1 0x1F DUP4 ADD PUSH1 0x1F NOT SWAP1 DUP2 AND PUSH1 0x3F ADD AND DUP5 ADD PUSH8 0xFFFFFFFFFFFFFFFF DUP2 GT DUP6 DUP3 LT OR PUSH2 0x1DE JUMPI PUSH1 0x40 MSTORE DUP3 DUP5 MSTORE PUSH1 0x24 DUP4 DUP4 ADD ADD GT PUSH2 0xA0 JUMPI DUP2 PUSH0 SWAP3 PUSH1 0x24 PUSH1 0x20 SWAP4 ADD DUP4 DUP7 ADD CALLDATACOPY DUP4 ADD ADD MSTORE SWAP1 JUMP JUMPDEST PUSH2 0x140 JUMP JUMPDEST DUP1 MLOAD DUP1 DUP4 MSTORE PUSH1 0x20 SWAP3 SWAP2 DUP2 SWAP1 DUP5 ADD DUP5 DUP5 ADD MCOPY PUSH0 DUP3 DUP3 ADD DUP5 ADD MSTORE PUSH1 0x1F ADD PUSH1 0x1F NOT AND ADD ADD SWAP1 JUMP JUMPDEST CALLVALUE PUSH2 0xA0 JUMPI PUSH2 0x215 CALLDATASIZE PUSH2 0x154 JUMP JUMPDEST PUSH1 0x1F DUP2 MLOAD DUP1 PUSH20 0x9999999999999999999999999999999999999999 TSTORE ADD PUSH1 0x5 SHR PUSH0 JUMPDEST DUP2 DUP2 LT PUSH2 0x2B1 JUMPI PUSH2 0x283 DUP4 PUSH2 0x249 PUSH2 0x39C JUMP JUMPDEST SWAP1 PUSH2 0x252 PUSH2 0x39C JUMP JUMPDEST DUP3 MLOAD PUSH1 0x20 DUP5 ADD KECCAK256 DUP2 MLOAD PUSH1 0x20 DUP4 ADD KECCAK256 DUP2 EQ SWAP3 DUP4 PUSH2 0x29D JUMPI JUMPDEST POP POP PUSH2 0x291 SWAP1 PUSH1 0x40 MLOAD SWAP5 DUP6 SWAP5 PUSH1 0x60 DUP7 MSTORE PUSH1 0x60 DUP7 ADD SWAP1 PUSH2 0x1E3 JUMP JUMPDEST SWAP1 DUP5 DUP3 SUB PUSH1 0x20 DUP7 ADD MSTORE PUSH2 0x1E3 JUMP JUMPDEST SWAP1 ISZERO ISZERO PUSH1 0x40 DUP4 ADD MSTORE SUB SWAP1 RETURN JUMPDEST DUP1 MLOAD PUSH1 0x20 SWAP1 SWAP2 ADD KECCAK256 EQ SWAP2 POP PUSH2 0x291 DUP6 PUSH2 0x269 JUMP JUMPDEST DUP1 PUSH1 0x20 PUSH1 0x1 SWAP3 PUSH1 0x5 SHL DUP6 ADD ADD MLOAD PUSH20 0x999999999999999999999999999999999999999A DUP3 ADD TSTORE ADD PUSH2 0x236 JUMP JUMPDEST CALLVALUE PUSH2 0xA0 JUMPI PUSH2 0x2EA CALLDATASIZE PUSH2 0x154 JUMP JUMPDEST PUSH1 0x1F DUP2 MLOAD DUP1 PUSH20 0x1234567890123456789012345678901234567890 TSTORE ADD PUSH1 0x5 SHR PUSH0 JUMPDEST DUP2 DUP2 LT PUSH2 0x347 JUMPI PUSH2 0x335 DUP4 PUSH2 0x343 PUSH2 0x321 PUSH2 0x42E JUMP JUMPDEST PUSH1 0x40 MLOAD SWAP4 DUP5 SWAP4 PUSH1 0x40 DUP6 MSTORE PUSH1 0x40 DUP6 ADD SWAP1 PUSH2 0x1E3 JUMP JUMPDEST SWAP1 DUP4 DUP3 SUB PUSH1 0x20 DUP6 ADD MSTORE PUSH2 0x1E3 JUMP JUMPDEST SUB SWAP1 RETURN JUMPDEST DUP1 PUSH1 0x20 PUSH1 0x1 SWAP3 PUSH1 0x5 SHL DUP6 ADD ADD MLOAD PUSH20 0x1234567890123456789012345678901234567891 DUP3 ADD TSTORE ADD PUSH2 0x30B JUMP JUMPDEST CALLVALUE PUSH2 0xA0 JUMPI PUSH1 0x40 PUSH2 0x382 CALLDATASIZE PUSH2 0x154 JUMP JUMPDEST PUSH1 0x20 DUP2 MLOAD SWAP2 ADD KECCAK256 DUP1 PUSH1 0x2 TSTORE PUSH1 0x2 TLOAD DUP3 MLOAD SWAP2 DUP3 MSTORE PUSH1 0x20 DUP3 ADD MSTORE RETURN JUMPDEST PUSH1 0x60 SWAP1 PUSH20 0x9999999999999999999999999999999999999999 TLOAD DUP1 ISZERO DUP1 PUSH2 0x419 JUMPI JUMPDEST ISZERO PUSH2 0x3C5 JUMPI POP JUMP JUMPDEST SWAP2 POP PUSH1 0x1F PUSH1 0x40 MLOAD SWAP3 DUP1 DUP5 MSTORE ADD DUP1 PUSH1 0x5 SHR PUSH0 JUMPDEST DUP2 DUP2 LT PUSH2 0x3EE JUMPI POP POP PUSH1 0x1F NOT AND DUP3 ADD PUSH1 0x20 ADD PUSH1 0x40 MSTORE JUMP JUMPDEST DUP1 PUSH20 0x999999999999999999999999999999999999999A PUSH1 0x1 SWAP3 ADD TLOAD PUSH1 0x20 DUP3 PUSH1 0x5 SHL DUP9 ADD ADD MSTORE ADD PUSH2 0x3D7 JUMP JUMPDEST SWAP3 POP PUSH1 0x40 MLOAD SWAP3 PUSH0 DUP5 MSTORE PUSH1 0x20 DUP5 ADD PUSH1 0x40 MSTORE PUSH2 0x3BD JUMP JUMPDEST PUSH1 0x60 SWAP1 PUSH20 0x1234567890123456789012345678901234567890 TLOAD DUP1 ISZERO DUP1 PUSH2 0x4AB JUMPI JUMPDEST ISZERO PUSH2 0x457 JUMPI POP JUMP JUMPDEST SWAP2 POP PUSH1 0x1F PUSH1 0x40 MLOAD SWAP3 DUP1 DUP5 MSTORE ADD DUP1 PUSH1 0x5 SHR PUSH0 JUMPDEST DUP2 DUP2 LT PUSH2 0x480 JUMPI POP POP PUSH1 0x1F NOT AND DUP3 ADD PUSH1 0x20 ADD PUSH1 0x40 MSTORE JUMP JUMPDEST DUP1 PUSH20 0x1234567890123456789012345678901234567891 PUSH1 0x1 SWAP3 ADD TLOAD PUSH1 0x20 DUP3 PUSH1 0x5 SHL DUP9 ADD ADD MSTORE ADD PUSH2 0x469 JUMP JUMPDEST SWAP3 POP PUSH1 0x40 MLOAD SWAP3 PUSH0 DUP5 MSTORE PUSH1 0x20 DUP5 ADD PUSH1 0x40 MSTORE PUSH2 0x44F JUMP INVALID LOG2 PUSH5 0x6970667358 0x22 SLT KECCAK256 0xC2 PUSH25 0x392B9F162693864F6DB33D2D4827EB01274945E7D92B2D016D 0x24 ORIGIN SWAP10 RJUMP 0x1D64 PUSH20 0x6F6C634300081E00330000000000000000000000 "},"methodIdentifiers":{"getStoredValue()":"0d336a21","testAddressBasedSlots(address)":"acc03b99","testBasicTransientStorage()":"0ffe524e","testCachingBehavior(bytes)":"c76e9a87","testHashStorage(bytes)":"f498d935","testMultipleStores()":"217ac19e","testTransientStorageLibrary(bytes)":"ca7ac279"}}}}}