{"contracts/quoters/DualDataQuoter.sol":{"DualDataQuoter":{"abi":[{"inputs":[{"components":[{"internalType":"address","name":"asset0","type":"address"},{"internalType":"address","name":"asset1","type":"address"},{"internalType":"address","name":"quoter","type":"address"},{"internalType":"uint256","name":"amount","type":"uint256"},{"internalType":"uint128","name":"asset0Balance","type":"uint128"},{"internalType":"uint128","name":"asset1Balance","type":"uint128"},{"internalType":"uint16","name":"bucketID","type":"uint16"},{"internalType":"bool","name":"zeroForOne","type":"bool"}],"internalType":"struct QuoteParams","name":"params","type":"tuple"},{"internalType":"bytes","name":"alphaData","type":"bytes"},{"internalType":"bytes","name":"betaData","type":"bytes"}],"name":"quote","outputs":[{"internalType":"uint256","name":"quote","type":"uint256"}],"stateMutability":"pure","type":"function"},{"inputs":[{"components":[{"internalType":"address","name":"asset0","type":"address"},{"internalType":"address","name":"asset1","type":"address"},{"internalType":"address","name":"quoter","type":"address"},{"internalType":"uint256[]","name":"amount","type":"uint256[]"},{"internalType":"uint128[]","name":"asset0Balances","type":"uint128[]"},{"internalType":"uint128[]","name":"asset1Balances","type":"uint128[]"},{"internalType":"uint16[]","name":"bucketID","type":"uint16[]"},{"internalType":"bool","name":"zeroForOne","type":"bool"}],"internalType":"struct QuoteParamsBatch","name":"params","type":"tuple"},{"internalType":"bytes","name":"alphaData","type":"bytes"},{"internalType":"bytes","name":"betaData","type":"bytes"}],"name":"quoteBatch","outputs":[{"internalType":"uint256[]","name":"quotes","type":"uint256[]"}],"stateMutability":"pure","type":"function"}],"evm":{"bytecode":{"linkReferences":{},"object":"6080806040523460155761088a908161001a8239f35b5f80fdfe60806040526004361015610011575f80fd5b5f3560e01c8063014b20171461029c576303dd785a1461002f575f80fd5b346102985736600319016101408112610298576101001361029857610052610692565b6004356001600160a01b03811681036102985781526024356001600160a01b03811681036102985760208201526044356001600160a01b03811681036102985760408201526060810160643581526084356001600160801b038116810361029857608083015260a4356001600160801b03811681036102985760a083015260c43561ffff811681036102985760c083015260e4359182151583036102985760e001918252610104356001600160401b0381116102985761011690369060040161077a565b610124356001600160401b0381116102985761013961014991369060040161077a565b91602080825183010191016107cb565b909160208151918180820193849201010312610298575190818311156102885761017382846107e1565b925b60288202918083046028149015171561024357602381029080820460231490151715610243576101a491610801565b601982029180830460191490151715610243576064916101c391610801565b04906103e88102908082046103e8149015171561024357816101e49161080e565b6127100390612710821161024357612710916101ff916107ee565b92519204911561025757670de0b6b3a76400009161021d91516107ee565b045b6103e38102908082046103e31490151715610243576020906103e860405191048152f35b634e487b7160e01b5f52601160045260245ffd5b5190670de0b6b3a7640000820291808304670de0b6b3a76400001490151715610243576102839161080e565b61021f565b61029283836107e1565b92610175565b5f80fd5b34610298576060366003190112610298576004356001600160401b038111610298576101006003198236030112610298576102d5610692565b6102e1826004016106eb565b81526102ef602483016106eb565b6020820152610300604483016106eb565b604082015260648201356001600160401b03811161029857820191366023840112156102985760048301359261033d610338856106ff565b6106c6565b93602060048187848152019260051b840101019136831161029857602401905b828210610682575050506060820192835260848101356001600160401b038111610298576103919060043691840101610716565b608083015260a48101356001600160401b038111610298576103b99060043691840101610716565b60a083015260c48101356001600160401b038111610298578101366023820112156102985760048101356103ef610338826106ff565b91602060048185858152019360051b830101019036821161029857602401915b8183106106675750505060c083015260e401359081151582036102985760e0019081526024356001600160401b0381116102985761045190369060040161077a565b6044356001600160401b0381116102985761013961047391369060040161077a565b909160208151918180820193849201010312610298575190818311156106575761049d82846107e1565b925b60288202918083046028149015171561024357602381029080820460231490151715610243576104ce91610801565b601982029180830460191490151715610243576064916104ed91610801565b04906103e88102908082046103e81490151715610243578161050e9161080e565b612710039061271082116102435761271091610529916107ee565b048251519261054661053d610338866106ff565b948086526106ff565b6020850190601f19013682375f5b825180518210156106135785518290156105ce57670de0b6b3a764000091508561058261058892875161082c565b516107ee565b04610593828861082c565b525b61059f818761082c565b51906103e38202918083046103e31490151715610243576103e8600192046105c7828961082c565b5201610554565b6105d79161082c565b51670de0b6b3a7640000810290808204670de0b6b3a7640000149015171561024357846106039161080e565b61060d828861082c565b52610595565b8287604051918291602083019060208452518091526040830191905f5b81811061063e575050500390f35b8251845285945060209384019390920191600101610630565b61066183836107e1565b9261049f565b823561ffff811681036102985781526020928301920161040f565b813581526020918201910161035d565b6040519061010082018281106001600160401b038211176106b257604052565b634e487b7160e01b5f52604160045260245ffd5b6040519190601f01601f191682016001600160401b038111838210176106b257604052565b35906001600160a01b038216820361029857565b6001600160401b0381116106b25760051b60200190565b9080601f8301121561029857813590610731610338836106ff565b9260208085858152019360051b82010191821161029857602001915b81831061075a5750505090565b82356001600160801b03811681036102985781526020928301920161074d565b81601f82011215610298578035906001600160401b0382116106b2576107a9601f8301601f19166020016106c6565b928284526020838301011161029857815f926020809301838601378301015290565b9190826040910312610298576020825192015190565b9190820391821161024357565b8181029291811591840414171561024357565b9190820180921161024357565b8115610818570490565b634e487b7160e01b5f52601260045260245ffd5b80518210156108405760209160051b010190565b634e487b7160e01b5f52603260045260245ffdfea26469706673582212204066538b886b41496a7fd1cbc69f6b3e7602f49a4897540a97c3084c4f02de1464736f6c634300081e0033","opcodes":"PUSH1 0x80 DUP1 PUSH1 0x40 MSTORE CALLVALUE PUSH1 0x15 JUMPI PUSH2 0x88A SWAP1 DUP2 PUSH2 0x1A DUP3 CODECOPY RETURN JUMPDEST PUSH0 DUP1 REVERT INVALID PUSH1 0x80 PUSH1 0x40 MSTORE PUSH1 0x4 CALLDATASIZE LT ISZERO PUSH2 0x11 JUMPI PUSH0 DUP1 REVERT JUMPDEST PUSH0 CALLDATALOAD PUSH1 0xE0 SHR DUP1 PUSH4 0x14B2017 EQ PUSH2 0x29C JUMPI PUSH4 0x3DD785A EQ PUSH2 0x2F JUMPI PUSH0 DUP1 REVERT JUMPDEST CALLVALUE PUSH2 0x298 JUMPI CALLDATASIZE PUSH1 0x3 NOT ADD PUSH2 0x140 DUP2 SLT PUSH2 0x298 JUMPI PUSH2 0x100 SGT PUSH2 0x298 JUMPI PUSH2 0x52 PUSH2 0x692 JUMP JUMPDEST PUSH1 0x4 CALLDATALOAD PUSH1 0x1 PUSH1 0x1 PUSH1 0xA0 SHL SUB DUP2 AND DUP2 SUB PUSH2 0x298 JUMPI DUP2 MSTORE PUSH1 0x24 CALLDATALOAD PUSH1 0x1 PUSH1 0x1 PUSH1 0xA0 SHL SUB DUP2 AND DUP2 SUB PUSH2 0x298 JUMPI PUSH1 0x20 DUP3 ADD MSTORE PUSH1 0x44 CALLDATALOAD PUSH1 0x1 PUSH1 0x1 PUSH1 0xA0 SHL SUB DUP2 AND DUP2 SUB PUSH2 0x298 JUMPI PUSH1 0x40 DUP3 ADD MSTORE PUSH1 0x60 DUP2 ADD PUSH1 0x64 CALLDATALOAD DUP2 MSTORE PUSH1 0x84 CALLDATALOAD PUSH1 0x1 PUSH1 0x1 PUSH1 0x80 SHL SUB DUP2 AND DUP2 SUB PUSH2 0x298 JUMPI PUSH1 0x80 DUP4 ADD MSTORE PUSH1 0xA4 CALLDATALOAD PUSH1 0x1 PUSH1 0x1 PUSH1 0x80 SHL SUB DUP2 AND DUP2 SUB PUSH2 0x298 JUMPI PUSH1 0xA0 DUP4 ADD MSTORE PUSH1 0xC4 CALLDATALOAD PUSH2 0xFFFF DUP2 AND DUP2 SUB PUSH2 0x298 JUMPI PUSH1 0xC0 DUP4 ADD MSTORE PUSH1 0xE4 CALLDATALOAD SWAP2 DUP3 ISZERO ISZERO DUP4 SUB PUSH2 0x298 JUMPI PUSH1 0xE0 ADD SWAP2 DUP3 MSTORE PUSH2 0x104 CALLDATALOAD PUSH1 0x1 PUSH1 0x1 PUSH1 0x40 SHL SUB DUP2 GT PUSH2 0x298 JUMPI PUSH2 0x116 SWAP1 CALLDATASIZE SWAP1 PUSH1 0x4 ADD PUSH2 0x77A JUMP JUMPDEST PUSH2 0x124 CALLDATALOAD PUSH1 0x1 PUSH1 0x1 PUSH1 0x40 SHL SUB DUP2 GT PUSH2 0x298 JUMPI PUSH2 0x139 PUSH2 0x149 SWAP2 CALLDATASIZE SWAP1 PUSH1 0x4 ADD PUSH2 0x77A JUMP JUMPDEST SWAP2 PUSH1 0x20 DUP1 DUP3 MLOAD DUP4 ADD ADD SWAP2 ADD PUSH2 0x7CB JUMP JUMPDEST SWAP1 SWAP2 PUSH1 0x20 DUP2 MLOAD SWAP2 DUP2 DUP1 DUP3 ADD SWAP4 DUP5 SWAP3 ADD ADD SUB SLT PUSH2 0x298 JUMPI MLOAD SWAP1 DUP2 DUP4 GT ISZERO PUSH2 0x288 JUMPI PUSH2 0x173 DUP3 DUP5 PUSH2 0x7E1 JUMP JUMPDEST SWAP3 JUMPDEST PUSH1 0x28 DUP3 MUL SWAP2 DUP1 DUP4 DIV PUSH1 0x28 EQ SWAP1 ISZERO OR ISZERO PUSH2 0x243 JUMPI PUSH1 0x23 DUP2 MUL SWAP1 DUP1 DUP3 DIV PUSH1 0x23 EQ SWAP1 ISZERO OR ISZERO PUSH2 0x243 JUMPI PUSH2 0x1A4 SWAP2 PUSH2 0x801 JUMP JUMPDEST PUSH1 0x19 DUP3 MUL SWAP2 DUP1 DUP4 DIV PUSH1 0x19 EQ SWAP1 ISZERO OR ISZERO PUSH2 0x243 JUMPI PUSH1 0x64 SWAP2 PUSH2 0x1C3 SWAP2 PUSH2 0x801 JUMP JUMPDEST DIV SWAP1 PUSH2 0x3E8 DUP2 MUL SWAP1 DUP1 DUP3 DIV PUSH2 0x3E8 EQ SWAP1 ISZERO OR ISZERO PUSH2 0x243 JUMPI DUP2 PUSH2 0x1E4 SWAP2 PUSH2 0x80E JUMP JUMPDEST PUSH2 0x2710 SUB SWAP1 PUSH2 0x2710 DUP3 GT PUSH2 0x243 JUMPI PUSH2 0x2710 SWAP2 PUSH2 0x1FF SWAP2 PUSH2 0x7EE JUMP JUMPDEST SWAP3 MLOAD SWAP3 DIV SWAP2 ISZERO PUSH2 0x257 JUMPI PUSH8 0xDE0B6B3A7640000 SWAP2 PUSH2 0x21D SWAP2 MLOAD PUSH2 0x7EE JUMP JUMPDEST DIV JUMPDEST PUSH2 0x3E3 DUP2 MUL SWAP1 DUP1 DUP3 DIV PUSH2 0x3E3 EQ SWAP1 ISZERO OR ISZERO PUSH2 0x243 JUMPI PUSH1 0x20 SWAP1 PUSH2 0x3E8 PUSH1 0x40 MLOAD SWAP2 DIV DUP2 MSTORE RETURN JUMPDEST PUSH4 0x4E487B71 PUSH1 0xE0 SHL PUSH0 MSTORE PUSH1 0x11 PUSH1 0x4 MSTORE PUSH1 0x24 PUSH0 REVERT JUMPDEST MLOAD SWAP1 PUSH8 0xDE0B6B3A7640000 DUP3 MUL SWAP2 DUP1 DUP4 DIV PUSH8 0xDE0B6B3A7640000 EQ SWAP1 ISZERO OR ISZERO PUSH2 0x243 JUMPI PUSH2 0x283 SWAP2 PUSH2 0x80E JUMP JUMPDEST PUSH2 0x21F JUMP JUMPDEST PUSH2 0x292 DUP4 DUP4 PUSH2 0x7E1 JUMP JUMPDEST SWAP3 PUSH2 0x175 JUMP JUMPDEST PUSH0 DUP1 REVERT JUMPDEST CALLVALUE PUSH2 0x298 JUMPI PUSH1 0x60 CALLDATASIZE PUSH1 0x3 NOT ADD SLT PUSH2 0x298 JUMPI PUSH1 0x4 CALLDATALOAD PUSH1 0x1 PUSH1 0x1 PUSH1 0x40 SHL SUB DUP2 GT PUSH2 0x298 JUMPI PUSH2 0x100 PUSH1 0x3 NOT DUP3 CALLDATASIZE SUB ADD SLT PUSH2 0x298 JUMPI PUSH2 0x2D5 PUSH2 0x692 JUMP JUMPDEST PUSH2 0x2E1 DUP3 PUSH1 0x4 ADD PUSH2 0x6EB JUMP JUMPDEST DUP2 MSTORE PUSH2 0x2EF PUSH1 0x24 DUP4 ADD PUSH2 0x6EB JUMP JUMPDEST PUSH1 0x20 DUP3 ADD MSTORE PUSH2 0x300 PUSH1 0x44 DUP4 ADD PUSH2 0x6EB JUMP JUMPDEST PUSH1 0x40 DUP3 ADD MSTORE PUSH1 0x64 DUP3 ADD CALLDATALOAD PUSH1 0x1 PUSH1 0x1 PUSH1 0x40 SHL SUB DUP2 GT PUSH2 0x298 JUMPI DUP3 ADD SWAP2 CALLDATASIZE PUSH1 0x23 DUP5 ADD SLT ISZERO PUSH2 0x298 JUMPI PUSH1 0x4 DUP4 ADD CALLDATALOAD SWAP3 PUSH2 0x33D PUSH2 0x338 DUP6 PUSH2 0x6FF JUMP JUMPDEST PUSH2 0x6C6 JUMP JUMPDEST SWAP4 PUSH1 0x20 PUSH1 0x4 DUP2 DUP8 DUP5 DUP2 MSTORE ADD SWAP3 PUSH1 0x5 SHL DUP5 ADD ADD ADD SWAP2 CALLDATASIZE DUP4 GT PUSH2 0x298 JUMPI PUSH1 0x24 ADD SWAP1 JUMPDEST DUP3 DUP3 LT PUSH2 0x682 JUMPI POP POP POP PUSH1 0x60 DUP3 ADD SWAP3 DUP4 MSTORE PUSH1 0x84 DUP2 ADD CALLDATALOAD PUSH1 0x1 PUSH1 0x1 PUSH1 0x40 SHL SUB DUP2 GT PUSH2 0x298 JUMPI PUSH2 0x391 SWAP1 PUSH1 0x4 CALLDATASIZE SWAP2 DUP5 ADD ADD PUSH2 0x716 JUMP JUMPDEST PUSH1 0x80 DUP4 ADD MSTORE PUSH1 0xA4 DUP2 ADD CALLDATALOAD PUSH1 0x1 PUSH1 0x1 PUSH1 0x40 SHL SUB DUP2 GT PUSH2 0x298 JUMPI PUSH2 0x3B9 SWAP1 PUSH1 0x4 CALLDATASIZE SWAP2 DUP5 ADD ADD PUSH2 0x716 JUMP JUMPDEST PUSH1 0xA0 DUP4 ADD MSTORE PUSH1 0xC4 DUP2 ADD CALLDATALOAD PUSH1 0x1 PUSH1 0x1 PUSH1 0x40 SHL SUB DUP2 GT PUSH2 0x298 JUMPI DUP2 ADD CALLDATASIZE PUSH1 0x23 DUP3 ADD SLT ISZERO PUSH2 0x298 JUMPI PUSH1 0x4 DUP2 ADD CALLDATALOAD PUSH2 0x3EF PUSH2 0x338 DUP3 PUSH2 0x6FF JUMP JUMPDEST SWAP2 PUSH1 0x20 PUSH1 0x4 DUP2 DUP6 DUP6 DUP2 MSTORE ADD SWAP4 PUSH1 0x5 SHL DUP4 ADD ADD ADD SWAP1 CALLDATASIZE DUP3 GT PUSH2 0x298 JUMPI PUSH1 0x24 ADD SWAP2 JUMPDEST DUP2 DUP4 LT PUSH2 0x667 JUMPI POP POP POP PUSH1 0xC0 DUP4 ADD MSTORE PUSH1 0xE4 ADD CALLDATALOAD SWAP1 DUP2 ISZERO ISZERO DUP3 SUB PUSH2 0x298 JUMPI PUSH1 0xE0 ADD SWAP1 DUP2 MSTORE PUSH1 0x24 CALLDATALOAD PUSH1 0x1 PUSH1 0x1 PUSH1 0x40 SHL SUB DUP2 GT PUSH2 0x298 JUMPI PUSH2 0x451 SWAP1 CALLDATASIZE SWAP1 PUSH1 0x4 ADD PUSH2 0x77A JUMP JUMPDEST PUSH1 0x44 CALLDATALOAD PUSH1 0x1 PUSH1 0x1 PUSH1 0x40 SHL SUB DUP2 GT PUSH2 0x298 JUMPI PUSH2 0x139 PUSH2 0x473 SWAP2 CALLDATASIZE SWAP1 PUSH1 0x4 ADD PUSH2 0x77A JUMP JUMPDEST SWAP1 SWAP2 PUSH1 0x20 DUP2 MLOAD SWAP2 DUP2 DUP1 DUP3 ADD SWAP4 DUP5 SWAP3 ADD ADD SUB SLT PUSH2 0x298 JUMPI MLOAD SWAP1 DUP2 DUP4 GT ISZERO PUSH2 0x657 JUMPI PUSH2 0x49D DUP3 DUP5 PUSH2 0x7E1 JUMP JUMPDEST SWAP3 JUMPDEST PUSH1 0x28 DUP3 MUL SWAP2 DUP1 DUP4 DIV PUSH1 0x28 EQ SWAP1 ISZERO OR ISZERO PUSH2 0x243 JUMPI PUSH1 0x23 DUP2 MUL SWAP1 DUP1 DUP3 DIV PUSH1 0x23 EQ SWAP1 ISZERO OR ISZERO PUSH2 0x243 JUMPI PUSH2 0x4CE SWAP2 PUSH2 0x801 JUMP JUMPDEST PUSH1 0x19 DUP3 MUL SWAP2 DUP1 DUP4 DIV PUSH1 0x19 EQ SWAP1 ISZERO OR ISZERO PUSH2 0x243 JUMPI PUSH1 0x64 SWAP2 PUSH2 0x4ED SWAP2 PUSH2 0x801 JUMP JUMPDEST DIV SWAP1 PUSH2 0x3E8 DUP2 MUL SWAP1 DUP1 DUP3 DIV PUSH2 0x3E8 EQ SWAP1 ISZERO OR ISZERO PUSH2 0x243 JUMPI DUP2 PUSH2 0x50E SWAP2 PUSH2 0x80E JUMP JUMPDEST PUSH2 0x2710 SUB SWAP1 PUSH2 0x2710 DUP3 GT PUSH2 0x243 JUMPI PUSH2 0x2710 SWAP2 PUSH2 0x529 SWAP2 PUSH2 0x7EE JUMP JUMPDEST DIV DUP3 MLOAD MLOAD SWAP3 PUSH2 0x546 PUSH2 0x53D PUSH2 0x338 DUP7 PUSH2 0x6FF JUMP JUMPDEST SWAP5 DUP1 DUP7 MSTORE PUSH2 0x6FF JUMP JUMPDEST PUSH1 0x20 DUP6 ADD SWAP1 PUSH1 0x1F NOT ADD CALLDATASIZE DUP3 CALLDATACOPY PUSH0 JUMPDEST DUP3 MLOAD DUP1 MLOAD DUP3 LT ISZERO PUSH2 0x613 JUMPI DUP6 MLOAD DUP3 SWAP1 ISZERO PUSH2 0x5CE JUMPI PUSH8 0xDE0B6B3A7640000 SWAP2 POP DUP6 PUSH2 0x582 PUSH2 0x588 SWAP3 DUP8 MLOAD PUSH2 0x82C JUMP JUMPDEST MLOAD PUSH2 0x7EE JUMP JUMPDEST DIV PUSH2 0x593 DUP3 DUP9 PUSH2 0x82C JUMP JUMPDEST MSTORE JUMPDEST PUSH2 0x59F DUP2 DUP8 PUSH2 0x82C JUMP JUMPDEST MLOAD SWAP1 PUSH2 0x3E3 DUP3 MUL SWAP2 DUP1 DUP4 DIV PUSH2 0x3E3 EQ SWAP1 ISZERO OR ISZERO PUSH2 0x243 JUMPI PUSH2 0x3E8 PUSH1 0x1 SWAP3 DIV PUSH2 0x5C7 DUP3 DUP10 PUSH2 0x82C JUMP JUMPDEST MSTORE ADD PUSH2 0x554 JUMP JUMPDEST PUSH2 0x5D7 SWAP2 PUSH2 0x82C JUMP JUMPDEST MLOAD PUSH8 0xDE0B6B3A7640000 DUP2 MUL SWAP1 DUP1 DUP3 DIV PUSH8 0xDE0B6B3A7640000 EQ SWAP1 ISZERO OR ISZERO PUSH2 0x243 JUMPI DUP5 PUSH2 0x603 SWAP2 PUSH2 0x80E JUMP JUMPDEST PUSH2 0x60D DUP3 DUP9 PUSH2 0x82C JUMP JUMPDEST MSTORE PUSH2 0x595 JUMP JUMPDEST DUP3 DUP8 PUSH1 0x40 MLOAD SWAP2 DUP3 SWAP2 PUSH1 0x20 DUP4 ADD SWAP1 PUSH1 0x20 DUP5 MSTORE MLOAD DUP1 SWAP2 MSTORE PUSH1 0x40 DUP4 ADD SWAP2 SWAP1 PUSH0 JUMPDEST DUP2 DUP2 LT PUSH2 0x63E JUMPI POP POP POP SUB SWAP1 RETURN JUMPDEST DUP3 MLOAD DUP5 MSTORE DUP6 SWAP5 POP PUSH1 0x20 SWAP4 DUP5 ADD SWAP4 SWAP1 SWAP3 ADD SWAP2 PUSH1 0x1 ADD PUSH2 0x630 JUMP JUMPDEST PUSH2 0x661 DUP4 DUP4 PUSH2 0x7E1 JUMP JUMPDEST SWAP3 PUSH2 0x49F JUMP JUMPDEST DUP3 CALLDATALOAD PUSH2 0xFFFF DUP2 AND DUP2 SUB PUSH2 0x298 JUMPI DUP2 MSTORE PUSH1 0x20 SWAP3 DUP4 ADD SWAP3 ADD PUSH2 0x40F JUMP JUMPDEST DUP2 CALLDATALOAD DUP2 MSTORE PUSH1 0x20 SWAP2 DUP3 ADD SWAP2 ADD PUSH2 0x35D JUMP JUMPDEST PUSH1 0x40 MLOAD SWAP1 PUSH2 0x100 DUP3 ADD DUP3 DUP2 LT PUSH1 0x1 PUSH1 0x1 PUSH1 0x40 SHL SUB DUP3 GT OR PUSH2 0x6B2 JUMPI PUSH1 0x40 MSTORE JUMP JUMPDEST PUSH4 0x4E487B71 PUSH1 0xE0 SHL PUSH0 MSTORE PUSH1 0x41 PUSH1 0x4 MSTORE PUSH1 0x24 PUSH0 REVERT JUMPDEST PUSH1 0x40 MLOAD SWAP2 SWAP1 PUSH1 0x1F ADD PUSH1 0x1F NOT AND DUP3 ADD PUSH1 0x1 PUSH1 0x1 PUSH1 0x40 SHL SUB DUP2 GT DUP4 DUP3 LT OR PUSH2 0x6B2 JUMPI PUSH1 0x40 MSTORE JUMP JUMPDEST CALLDATALOAD SWAP1 PUSH1 0x1 PUSH1 0x1 PUSH1 0xA0 SHL SUB DUP3 AND DUP3 SUB PUSH2 0x298 JUMPI JUMP JUMPDEST PUSH1 0x1 PUSH1 0x1 PUSH1 0x40 SHL SUB DUP2 GT PUSH2 0x6B2 JUMPI PUSH1 0x5 SHL PUSH1 0x20 ADD SWAP1 JUMP JUMPDEST SWAP1 DUP1 PUSH1 0x1F DUP4 ADD SLT ISZERO PUSH2 0x298 JUMPI DUP2 CALLDATALOAD SWAP1 PUSH2 0x731 PUSH2 0x338 DUP4 PUSH2 0x6FF JUMP JUMPDEST SWAP3 PUSH1 0x20 DUP1 DUP6 DUP6 DUP2 MSTORE ADD SWAP4 PUSH1 0x5 SHL DUP3 ADD ADD SWAP2 DUP3 GT PUSH2 0x298 JUMPI PUSH1 0x20 ADD SWAP2 JUMPDEST DUP2 DUP4 LT PUSH2 0x75A JUMPI POP POP POP SWAP1 JUMP JUMPDEST DUP3 CALLDATALOAD PUSH1 0x1 PUSH1 0x1 PUSH1 0x80 SHL SUB DUP2 AND DUP2 SUB PUSH2 0x298 JUMPI DUP2 MSTORE PUSH1 0x20 SWAP3 DUP4 ADD SWAP3 ADD PUSH2 0x74D JUMP JUMPDEST DUP2 PUSH1 0x1F DUP3 ADD SLT ISZERO PUSH2 0x298 JUMPI DUP1 CALLDATALOAD SWAP1 PUSH1 0x1 PUSH1 0x1 PUSH1 0x40 SHL SUB DUP3 GT PUSH2 0x6B2 JUMPI PUSH2 0x7A9 PUSH1 0x1F DUP4 ADD PUSH1 0x1F NOT AND PUSH1 0x20 ADD PUSH2 0x6C6 JUMP JUMPDEST SWAP3 DUP3 DUP5 MSTORE PUSH1 0x20 DUP4 DUP4 ADD ADD GT PUSH2 0x298 JUMPI DUP2 PUSH0 SWAP3 PUSH1 0x20 DUP1 SWAP4 ADD DUP4 DUP7 ADD CALLDATACOPY DUP4 ADD ADD MSTORE SWAP1 JUMP JUMPDEST SWAP2 SWAP1 DUP3 PUSH1 0x40 SWAP2 SUB SLT PUSH2 0x298 JUMPI PUSH1 0x20 DUP3 MLOAD SWAP3 ADD MLOAD SWAP1 JUMP JUMPDEST SWAP2 SWAP1 DUP3 SUB SWAP2 DUP3 GT PUSH2 0x243 JUMPI JUMP JUMPDEST DUP2 DUP2 MUL SWAP3 SWAP2 DUP2 ISZERO SWAP2 DUP5 DIV EQ OR ISZERO PUSH2 0x243 JUMPI JUMP JUMPDEST SWAP2 SWAP1 DUP3 ADD DUP1 SWAP3 GT PUSH2 0x243 JUMPI JUMP JUMPDEST DUP2 ISZERO PUSH2 0x818 JUMPI DIV SWAP1 JUMP JUMPDEST PUSH4 0x4E487B71 PUSH1 0xE0 SHL PUSH0 MSTORE PUSH1 0x12 PUSH1 0x4 MSTORE PUSH1 0x24 PUSH0 REVERT JUMPDEST DUP1 MLOAD DUP3 LT ISZERO PUSH2 0x840 JUMPI PUSH1 0x20 SWAP2 PUSH1 0x5 SHL ADD ADD SWAP1 JUMP JUMPDEST PUSH4 0x4E487B71 PUSH1 0xE0 SHL PUSH0 MSTORE PUSH1 0x32 PUSH1 0x4 MSTORE PUSH1 0x24 PUSH0 REVERT INVALID LOG2 PUSH5 0x6970667358 0x22 SLT KECCAK256 BLOCKHASH PUSH7 0x538B886B41496A PUSH32 0xD1CBC69F6B3E7602F49A4897540A97C3084C4F02DE1464736F6C634300081E00 CALLER "},"methodIdentifiers":{"quote((address,address,address,uint256,uint128,uint128,uint16,bool),bytes,bytes)":"03dd785a","quoteBatch((address,address,address,uint256[],uint128[],uint128[],uint16[],bool),bytes,bytes)":"014b2017"}}}}}