{"contracts/z_remix_test/FlashSessionComplexCallback.sol":{"FlashSessionComplexCallback":{"abi":[{"inputs":[{"internalType":"address","name":"_pm","type":"address"},{"internalType":"address","name":"_A","type":"address"},{"internalType":"address","name":"_B","type":"address"},{"internalType":"address","name":"_C","type":"address"},{"internalType":"address","name":"_simple","type":"address"},{"internalType":"address","name":"_alpha","type":"address"},{"internalType":"bytes3","name":"_SIMPLE","type":"bytes3"},{"internalType":"bytes3","name":"_ALPHA","type":"bytes3"},{"internalType":"uint256","name":"_add0","type":"uint256"},{"internalType":"uint256","name":"_add1","type":"uint256"},{"internalType":"uint256","name":"_swapAmt","type":"uint256"}],"stateMutability":"nonpayable","type":"constructor"},{"inputs":[],"name":"A","outputs":[{"internalType":"address","name":"","type":"address"}],"stateMutability":"view","type":"function"},{"inputs":[],"name":"ALPHA","outputs":[{"internalType":"bytes3","name":"","type":"bytes3"}],"stateMutability":"view","type":"function"},{"inputs":[],"name":"B","outputs":[{"internalType":"address","name":"","type":"address"}],"stateMutability":"view","type":"function"},{"inputs":[],"name":"C","outputs":[{"internalType":"address","name":"","type":"address"}],"stateMutability":"view","type":"function"},{"inputs":[],"name":"SIMPLE","outputs":[{"internalType":"bytes3","name":"","type":"bytes3"}],"stateMutability":"view","type":"function"},{"inputs":[],"name":"add0","outputs":[{"internalType":"uint256","name":"","type":"uint256"}],"stateMutability":"view","type":"function"},{"inputs":[],"name":"add1","outputs":[{"internalType":"uint256","name":"","type":"uint256"}],"stateMutability":"view","type":"function"},{"inputs":[],"name":"alpha","outputs":[{"internalType":"address","name":"","type":"address"}],"stateMutability":"view","type":"function"},{"inputs":[{"internalType":"bytes","name":"","type":"bytes"}],"name":"flashCallback","outputs":[],"stateMutability":"nonpayable","type":"function"},{"inputs":[],"name":"poolManager","outputs":[{"internalType":"contract IPoolManager","name":"","type":"address"}],"stateMutability":"view","type":"function"},{"inputs":[],"name":"simple","outputs":[{"internalType":"address","name":"","type":"address"}],"stateMutability":"view","type":"function"},{"inputs":[],"name":"swapAmt","outputs":[{"internalType":"uint256","name":"","type":"uint256"}],"stateMutability":"view","type":"function"}],"evm":{"bytecode":{"linkReferences":{},"object":"6101e0346101a957601f610d2038819003918201601f19168301916001600160401b038311848410176101ad57808492610160946040528339810103126101a957610049816101c1565b90610056602082016101c1565b610062604083016101c1565b61006e606084016101c1565b61007a608085016101c1565b61008660a086016101c1565b9061009360c087016101d5565b926100a060e088016101d5565b94610100880151966101406101208a01519901519960018060a01b031660805260a05260c05260e05261010052610120526101405261016052610180526101a0526101c052604051610b3590816101eb82396080518181816101ee015261079f015260a05181818160fd0152610188015260c05181818161023a0152610924015260e0518181816102a601526108a6015261010051818181610219015261075b0152610120518181816102c801526107e301526101405181818160b401526101cc0152610160518181816102ea0152610861015261018051818181610263015261082901526101a0518181816101aa015261096801526101c05181818161037701526108ec0152f35b5f80fd5b634e487b7160e01b5f52604160045260245ffd5b51906001600160a01b03821682036101a957565b51906001600160e81b0319821682036101a95756fe6080806040526004361015610012575f80fd5b5f3560e01c90816235921a146109535750806332e7c5bf1461090f5780634b656d07146108d557806383dfe5fd14610891578063b0bb1c5a1461084c578063b9e25dd114610812578063db1d0fd5146107ce578063dc4c90d31461078a578063df201a4614610746578063e37392381461012c578063f446c1d0146100e85763f84b592a1461009f575f80fd5b346100e4575f3660031901126100e4576040517f00000000000000000000000000000000000000000000000000000000000000006001600160e81b0319168152602090f35b5f80fd5b346100e4575f3660031901126100e4576040517f00000000000000000000000000000000000000000000000000000000000000006001600160a01b03168152602090f35b346100e45760203660031901126100e45760043567ffffffffffffffff81116100e457366023820112156100e457806004013567ffffffffffffffff81116100e457369101602401116100e45760405163e513315b60e01b81527f0000000000000000000000000000000000000000000000000000000000000000907f0000000000000000000000000000000000000000000000000000000000000000907f0000000000000000000000000000000000000000000000000000000000000000907f00000000000000000000000000000000000000000000000000000000000000006001600160a01b0316907f00000000000000000000000000000000000000000000000000000000000000007f00000000000000000000000000000000000000000000000000000000000000006020838061028f897f00000000000000000000000000000000000000000000000000000000000000008a88888f600488016109dd565b03815f885af1928315610548575f93610712575b507f0000000000000000000000000000000000000000000000000000000000000000927f0000000000000000000000000000000000000000000000000000000000000000957f00000000000000000000000000000000000000000000000000000000000000009860208a8961032f8c6040519d8e94859463e513315b60e01b86528d8c600488016109dd565b03815f8b5af1988915610548575f996106de575b50604051918a606061035581866109bb565b60028552601f1981015f5b81811061069b57505061037283610aa4565b6103f87f0000000000000000000000000000000000000000000000000000000000000000936103a085610ad8565b604051906103ad8261098b565b6001600160a01b0389811683528c811660208401819052908e166040840152868301959095526080820152600160a08201526103e889610a21565b526103f288610a21565b50610aa4565b6104048460011c610ad8565b90604051926104128461098b565b83526001600160a01b038c811660208501528e166040840152838301526080820152600160a082015261044486610a42565b5261044e85610a42565b5060405194859163274bb1b960e21b83526064830181600485015282518091526084840191602060848360051b8701019401925f915b8383106105a5575050505050819060209360248301526001604483015203815f8c5af192831561054857859361056f575b506040936104d79185519788958695631963e5e760e31b875260048701610a68565b03815f885af18015610548576040965f9361050e92610553575b508751631963e5e760e31b81529889978896879560048701610a68565b03925af180156105485761051e57005b61053f9060403d604011610541575b61053781836109bb565b810190610a52565b005b503d61052d565b6040513d5f823e3d90fd5b61056990893d8b116105415761053781836109bb565b506104f1565b9092506020813d60201161059d575b8161058b602093836109bb565b810103126100e45750839160406104b5565b3d915061057e565b919396955091936083198a820301835286519060c081019160018060a01b03815116825260018060a01b03602082015116602083015260018060a01b036040820151166040830152838101519260c0858401528351809152602060e084019401905f905b808210610678575050506080810151928281036080840152602080855192838152019401905f905b8082106106605750505060019260209260a0808594015115159101529801930193019092899596949293610484565b90919460208060019288518152019601920190610631565b82516001600160e81b031916865260209586019590920191600190910190610609565b602091929693506040516106ae8161098b565b5f81525f838201525f604082015287808201528760808201525f60a082015282828601015201908d929591610360565b9098506020813d60201161070a575b816106fa602093836109bb565b810103126100e45751978a610343565b3d91506106ed565b9092506020813d60201161073e575b8161072e602093836109bb565b810103126100e4575191876102a3565b3d9150610721565b346100e4575f3660031901126100e4576040517f00000000000000000000000000000000000000000000000000000000000000006001600160a01b03168152602090f35b346100e4575f3660031901126100e4576040517f00000000000000000000000000000000000000000000000000000000000000006001600160a01b03168152602090f35b346100e4575f3660031901126100e4576040517f00000000000000000000000000000000000000000000000000000000000000006001600160a01b03168152602090f35b346100e4575f3660031901126100e45760206040517f00000000000000000000000000000000000000000000000000000000000000008152f35b346100e4575f3660031901126100e4576040517f00000000000000000000000000000000000000000000000000000000000000006001600160e81b0319168152602090f35b346100e4575f3660031901126100e4576040517f00000000000000000000000000000000000000000000000000000000000000006001600160a01b03168152602090f35b346100e4575f3660031901126100e45760206040517f00000000000000000000000000000000000000000000000000000000000000008152f35b346100e4575f3660031901126100e4576040517f00000000000000000000000000000000000000000000000000000000000000006001600160a01b03168152602090f35b346100e4575f3660031901126100e4576020907f00000000000000000000000000000000000000000000000000000000000000008152f35b60c0810190811067ffffffffffffffff8211176109a757604052565b634e487b7160e01b5f52604160045260245ffd5b90601f8019910116810190811067ffffffffffffffff8211176109a757604052565b6001600160a01b039182168152918116602083015290911660408201526001600160e81b03199091166060820152608081019190915260a081019190915260c00190565b805115610a2e5760200190565b634e487b7160e01b5f52603260045260245ffd5b805160011015610a2e5760400190565b91908260409103126100e4576020825192015190565b6001600160a01b039182168152918116602083015290911660408201526001600160e81b03199091166060820152608081019190915260a00190565b9060405191610ab46040846109bb565b6001835260203681850137610ac883610a21565b6001600160e81b03199091169052565b9060405191610ae86040846109bb565b6001835260203681850137610afc83610a21565b5256fea264697066735822122024bd144b8044a9a4845de667ed1deb0557f820f5af43e4fe62b31c1156c0957964736f6c634300081e0033","opcodes":"PUSH2 0x1E0 CALLVALUE PUSH2 0x1A9 JUMPI PUSH1 0x1F PUSH2 0xD20 CODESIZE DUP2 SWAP1 SUB SWAP2 DUP3 ADD PUSH1 0x1F NOT AND DUP4 ADD SWAP2 PUSH1 0x1 PUSH1 0x1 PUSH1 0x40 SHL SUB DUP4 GT DUP5 DUP5 LT OR PUSH2 0x1AD JUMPI DUP1 DUP5 SWAP3 PUSH2 0x160 SWAP5 PUSH1 0x40 MSTORE DUP4 CODECOPY DUP2 ADD SUB SLT PUSH2 0x1A9 JUMPI PUSH2 0x49 DUP2 PUSH2 0x1C1 JUMP JUMPDEST SWAP1 PUSH2 0x56 PUSH1 0x20 DUP3 ADD PUSH2 0x1C1 JUMP JUMPDEST PUSH2 0x62 PUSH1 0x40 DUP4 ADD PUSH2 0x1C1 JUMP JUMPDEST PUSH2 0x6E PUSH1 0x60 DUP5 ADD PUSH2 0x1C1 JUMP JUMPDEST PUSH2 0x7A PUSH1 0x80 DUP6 ADD PUSH2 0x1C1 JUMP JUMPDEST PUSH2 0x86 PUSH1 0xA0 DUP7 ADD PUSH2 0x1C1 JUMP JUMPDEST SWAP1 PUSH2 0x93 PUSH1 0xC0 DUP8 ADD PUSH2 0x1D5 JUMP JUMPDEST SWAP3 PUSH2 0xA0 PUSH1 0xE0 DUP9 ADD PUSH2 0x1D5 JUMP JUMPDEST SWAP5 PUSH2 0x100 DUP9 ADD MLOAD SWAP7 PUSH2 0x140 PUSH2 0x120 DUP11 ADD MLOAD SWAP10 ADD MLOAD SWAP10 PUSH1 0x1 DUP1 PUSH1 0xA0 SHL SUB AND PUSH1 0x80 MSTORE PUSH1 0xA0 MSTORE PUSH1 0xC0 MSTORE PUSH1 0xE0 MSTORE PUSH2 0x100 MSTORE PUSH2 0x120 MSTORE PUSH2 0x140 MSTORE PUSH2 0x160 MSTORE PUSH2 0x180 MSTORE PUSH2 0x1A0 MSTORE PUSH2 0x1C0 MSTORE PUSH1 0x40 MLOAD PUSH2 0xB35 SWAP1 DUP2 PUSH2 0x1EB DUP3 CODECOPY PUSH1 0x80 MLOAD DUP2 DUP2 DUP2 PUSH2 0x1EE ADD MSTORE PUSH2 0x79F ADD MSTORE PUSH1 0xA0 MLOAD DUP2 DUP2 DUP2 PUSH1 0xFD ADD MSTORE PUSH2 0x188 ADD MSTORE PUSH1 0xC0 MLOAD DUP2 DUP2 DUP2 PUSH2 0x23A ADD MSTORE PUSH2 0x924 ADD MSTORE PUSH1 0xE0 MLOAD DUP2 DUP2 DUP2 PUSH2 0x2A6 ADD MSTORE PUSH2 0x8A6 ADD MSTORE PUSH2 0x100 MLOAD DUP2 DUP2 DUP2 PUSH2 0x219 ADD MSTORE PUSH2 0x75B ADD MSTORE PUSH2 0x120 MLOAD DUP2 DUP2 DUP2 PUSH2 0x2C8 ADD MSTORE PUSH2 0x7E3 ADD MSTORE PUSH2 0x140 MLOAD DUP2 DUP2 DUP2 PUSH1 0xB4 ADD MSTORE PUSH2 0x1CC ADD MSTORE PUSH2 0x160 MLOAD DUP2 DUP2 DUP2 PUSH2 0x2EA ADD MSTORE PUSH2 0x861 ADD MSTORE PUSH2 0x180 MLOAD DUP2 DUP2 DUP2 PUSH2 0x263 ADD MSTORE PUSH2 0x829 ADD MSTORE PUSH2 0x1A0 MLOAD DUP2 DUP2 DUP2 PUSH2 0x1AA ADD MSTORE PUSH2 0x968 ADD MSTORE PUSH2 0x1C0 MLOAD DUP2 DUP2 DUP2 PUSH2 0x377 ADD MSTORE PUSH2 0x8EC ADD MSTORE RETURN JUMPDEST PUSH0 DUP1 REVERT JUMPDEST PUSH4 0x4E487B71 PUSH1 0xE0 SHL PUSH0 MSTORE PUSH1 0x41 PUSH1 0x4 MSTORE PUSH1 0x24 PUSH0 REVERT JUMPDEST MLOAD SWAP1 PUSH1 0x1 PUSH1 0x1 PUSH1 0xA0 SHL SUB DUP3 AND DUP3 SUB PUSH2 0x1A9 JUMPI JUMP JUMPDEST MLOAD SWAP1 PUSH1 0x1 PUSH1 0x1 PUSH1 0xE8 SHL SUB NOT DUP3 AND DUP3 SUB PUSH2 0x1A9 JUMPI JUMP INVALID PUSH1 0x80 DUP1 PUSH1 0x40 MSTORE PUSH1 0x4 CALLDATASIZE LT ISZERO PUSH2 0x12 JUMPI PUSH0 DUP1 REVERT JUMPDEST PUSH0 CALLDATALOAD PUSH1 0xE0 SHR SWAP1 DUP2 PUSH3 0x35921A EQ PUSH2 0x953 JUMPI POP DUP1 PUSH4 0x32E7C5BF EQ PUSH2 0x90F JUMPI DUP1 PUSH4 0x4B656D07 EQ PUSH2 0x8D5 JUMPI DUP1 PUSH4 0x83DFE5FD EQ PUSH2 0x891 JUMPI DUP1 PUSH4 0xB0BB1C5A EQ PUSH2 0x84C JUMPI DUP1 PUSH4 0xB9E25DD1 EQ PUSH2 0x812 JUMPI DUP1 PUSH4 0xDB1D0FD5 EQ PUSH2 0x7CE JUMPI DUP1 PUSH4 0xDC4C90D3 EQ PUSH2 0x78A JUMPI DUP1 PUSH4 0xDF201A46 EQ PUSH2 0x746 JUMPI DUP1 PUSH4 0xE3739238 EQ PUSH2 0x12C JUMPI DUP1 PUSH4 0xF446C1D0 EQ PUSH2 0xE8 JUMPI PUSH4 0xF84B592A EQ PUSH2 0x9F JUMPI PUSH0 DUP1 REVERT JUMPDEST CALLVALUE PUSH2 0xE4 JUMPI PUSH0 CALLDATASIZE PUSH1 0x3 NOT ADD SLT PUSH2 0xE4 JUMPI PUSH1 0x40 MLOAD PUSH32 0x0 PUSH1 0x1 PUSH1 0x1 PUSH1 0xE8 SHL SUB NOT AND DUP2 MSTORE PUSH1 0x20 SWAP1 RETURN JUMPDEST PUSH0 DUP1 REVERT JUMPDEST CALLVALUE PUSH2 0xE4 JUMPI PUSH0 CALLDATASIZE PUSH1 0x3 NOT ADD SLT PUSH2 0xE4 JUMPI PUSH1 0x40 MLOAD PUSH32 0x0 PUSH1 0x1 PUSH1 0x1 PUSH1 0xA0 SHL SUB AND DUP2 MSTORE PUSH1 0x20 SWAP1 RETURN JUMPDEST CALLVALUE PUSH2 0xE4 JUMPI PUSH1 0x20 CALLDATASIZE PUSH1 0x3 NOT ADD SLT PUSH2 0xE4 JUMPI PUSH1 0x4 CALLDATALOAD PUSH8 0xFFFFFFFFFFFFFFFF DUP2 GT PUSH2 0xE4 JUMPI CALLDATASIZE PUSH1 0x23 DUP3 ADD SLT ISZERO PUSH2 0xE4 JUMPI DUP1 PUSH1 0x4 ADD CALLDATALOAD PUSH8 0xFFFFFFFFFFFFFFFF DUP2 GT PUSH2 0xE4 JUMPI CALLDATASIZE SWAP2 ADD PUSH1 0x24 ADD GT PUSH2 0xE4 JUMPI PUSH1 0x40 MLOAD PUSH4 0xE513315B PUSH1 0xE0 SHL DUP2 MSTORE PUSH32 0x0 SWAP1 PUSH32 0x0 SWAP1 PUSH32 0x0 SWAP1 PUSH32 0x0 PUSH1 0x1 PUSH1 0x1 PUSH1 0xA0 SHL SUB AND SWAP1 PUSH32 0x0 PUSH32 0x0 PUSH1 0x20 DUP4 DUP1 PUSH2 0x28F DUP10 PUSH32 0x0 DUP11 DUP9 DUP9 DUP16 PUSH1 0x4 DUP9 ADD PUSH2 0x9DD JUMP JUMPDEST SUB DUP2 PUSH0 DUP9 GAS CALL SWAP3 DUP4 ISZERO PUSH2 0x548 JUMPI PUSH0 SWAP4 PUSH2 0x712 JUMPI JUMPDEST POP PUSH32 0x0 SWAP3 PUSH32 0x0 SWAP6 PUSH32 0x0 SWAP9 PUSH1 0x20 DUP11 DUP10 PUSH2 0x32F DUP13 PUSH1 0x40 MLOAD SWAP14 DUP15 SWAP5 DUP6 SWAP5 PUSH4 0xE513315B PUSH1 0xE0 SHL DUP7 MSTORE DUP14 DUP13 PUSH1 0x4 DUP9 ADD PUSH2 0x9DD JUMP JUMPDEST SUB DUP2 PUSH0 DUP12 GAS CALL SWAP9 DUP10 ISZERO PUSH2 0x548 JUMPI PUSH0 SWAP10 PUSH2 0x6DE JUMPI JUMPDEST POP PUSH1 0x40 MLOAD SWAP2 DUP11 PUSH1 0x60 PUSH2 0x355 DUP2 DUP7 PUSH2 0x9BB JUMP JUMPDEST PUSH1 0x2 DUP6 MSTORE PUSH1 0x1F NOT DUP2 ADD PUSH0 JUMPDEST DUP2 DUP2 LT PUSH2 0x69B JUMPI POP POP PUSH2 0x372 DUP4 PUSH2 0xAA4 JUMP JUMPDEST PUSH2 0x3F8 PUSH32 0x0 SWAP4 PUSH2 0x3A0 DUP6 PUSH2 0xAD8 JUMP JUMPDEST PUSH1 0x40 MLOAD SWAP1 PUSH2 0x3AD DUP3 PUSH2 0x98B JUMP JUMPDEST PUSH1 0x1 PUSH1 0x1 PUSH1 0xA0 SHL SUB DUP10 DUP2 AND DUP4 MSTORE DUP13 DUP2 AND PUSH1 0x20 DUP5 ADD DUP2 SWAP1 MSTORE SWAP1 DUP15 AND PUSH1 0x40 DUP5 ADD MSTORE DUP7 DUP4 ADD SWAP6 SWAP1 SWAP6 MSTORE PUSH1 0x80 DUP3 ADD MSTORE PUSH1 0x1 PUSH1 0xA0 DUP3 ADD MSTORE PUSH2 0x3E8 DUP10 PUSH2 0xA21 JUMP JUMPDEST MSTORE PUSH2 0x3F2 DUP9 PUSH2 0xA21 JUMP JUMPDEST POP PUSH2 0xAA4 JUMP JUMPDEST PUSH2 0x404 DUP5 PUSH1 0x1 SHR PUSH2 0xAD8 JUMP JUMPDEST SWAP1 PUSH1 0x40 MLOAD SWAP3 PUSH2 0x412 DUP5 PUSH2 0x98B JUMP JUMPDEST DUP4 MSTORE PUSH1 0x1 PUSH1 0x1 PUSH1 0xA0 SHL SUB DUP13 DUP2 AND PUSH1 0x20 DUP6 ADD MSTORE DUP15 AND PUSH1 0x40 DUP5 ADD MSTORE DUP4 DUP4 ADD MSTORE PUSH1 0x80 DUP3 ADD MSTORE PUSH1 0x1 PUSH1 0xA0 DUP3 ADD MSTORE PUSH2 0x444 DUP7 PUSH2 0xA42 JUMP JUMPDEST MSTORE PUSH2 0x44E DUP6 PUSH2 0xA42 JUMP JUMPDEST POP PUSH1 0x40 MLOAD SWAP5 DUP6 SWAP2 PUSH4 0x274BB1B9 PUSH1 0xE2 SHL DUP4 MSTORE PUSH1 0x64 DUP4 ADD DUP2 PUSH1 0x4 DUP6 ADD MSTORE DUP3 MLOAD DUP1 SWAP2 MSTORE PUSH1 0x84 DUP5 ADD SWAP2 PUSH1 0x20 PUSH1 0x84 DUP4 PUSH1 0x5 SHL DUP8 ADD ADD SWAP5 ADD SWAP3 PUSH0 SWAP2 JUMPDEST DUP4 DUP4 LT PUSH2 0x5A5 JUMPI POP POP POP POP POP DUP2 SWAP1 PUSH1 0x20 SWAP4 PUSH1 0x24 DUP4 ADD MSTORE PUSH1 0x1 PUSH1 0x44 DUP4 ADD MSTORE SUB DUP2 PUSH0 DUP13 GAS CALL SWAP3 DUP4 ISZERO PUSH2 0x548 JUMPI DUP6 SWAP4 PUSH2 0x56F JUMPI JUMPDEST POP PUSH1 0x40 SWAP4 PUSH2 0x4D7 SWAP2 DUP6 MLOAD SWAP8 DUP9 SWAP6 DUP7 SWAP6 PUSH4 0x1963E5E7 PUSH1 0xE3 SHL DUP8 MSTORE PUSH1 0x4 DUP8 ADD PUSH2 0xA68 JUMP JUMPDEST SUB DUP2 PUSH0 DUP9 GAS CALL DUP1 ISZERO PUSH2 0x548 JUMPI PUSH1 0x40 SWAP7 PUSH0 SWAP4 PUSH2 0x50E SWAP3 PUSH2 0x553 JUMPI JUMPDEST POP DUP8 MLOAD PUSH4 0x1963E5E7 PUSH1 0xE3 SHL DUP2 MSTORE SWAP9 DUP10 SWAP8 DUP9 SWAP7 DUP8 SWAP6 PUSH1 0x4 DUP8 ADD PUSH2 0xA68 JUMP JUMPDEST SUB SWAP3 GAS CALL DUP1 ISZERO PUSH2 0x548 JUMPI PUSH2 0x51E JUMPI STOP JUMPDEST PUSH2 0x53F SWAP1 PUSH1 0x40 RETURNDATASIZE PUSH1 0x40 GT PUSH2 0x541 JUMPI JUMPDEST PUSH2 0x537 DUP2 DUP4 PUSH2 0x9BB JUMP JUMPDEST DUP2 ADD SWAP1 PUSH2 0xA52 JUMP JUMPDEST STOP JUMPDEST POP RETURNDATASIZE PUSH2 0x52D JUMP JUMPDEST PUSH1 0x40 MLOAD RETURNDATASIZE PUSH0 DUP3 RETURNDATACOPY RETURNDATASIZE SWAP1 REVERT JUMPDEST PUSH2 0x569 SWAP1 DUP10 RETURNDATASIZE DUP12 GT PUSH2 0x541 JUMPI PUSH2 0x537 DUP2 DUP4 PUSH2 0x9BB JUMP JUMPDEST POP PUSH2 0x4F1 JUMP JUMPDEST SWAP1 SWAP3 POP PUSH1 0x20 DUP2 RETURNDATASIZE PUSH1 0x20 GT PUSH2 0x59D JUMPI JUMPDEST DUP2 PUSH2 0x58B PUSH1 0x20 SWAP4 DUP4 PUSH2 0x9BB JUMP JUMPDEST DUP2 ADD SUB SLT PUSH2 0xE4 JUMPI POP DUP4 SWAP2 PUSH1 0x40 PUSH2 0x4B5 JUMP JUMPDEST RETURNDATASIZE SWAP2 POP PUSH2 0x57E JUMP JUMPDEST SWAP2 SWAP4 SWAP7 SWAP6 POP SWAP2 SWAP4 PUSH1 0x83 NOT DUP11 DUP3 SUB ADD DUP4 MSTORE DUP7 MLOAD SWAP1 PUSH1 0xC0 DUP2 ADD SWAP2 PUSH1 0x1 DUP1 PUSH1 0xA0 SHL SUB DUP2 MLOAD AND DUP3 MSTORE PUSH1 0x1 DUP1 PUSH1 0xA0 SHL SUB PUSH1 0x20 DUP3 ADD MLOAD AND PUSH1 0x20 DUP4 ADD MSTORE PUSH1 0x1 DUP1 PUSH1 0xA0 SHL SUB PUSH1 0x40 DUP3 ADD MLOAD AND PUSH1 0x40 DUP4 ADD MSTORE DUP4 DUP2 ADD MLOAD SWAP3 PUSH1 0xC0 DUP6 DUP5 ADD MSTORE DUP4 MLOAD DUP1 SWAP2 MSTORE PUSH1 0x20 PUSH1 0xE0 DUP5 ADD SWAP5 ADD SWAP1 PUSH0 SWAP1 JUMPDEST DUP1 DUP3 LT PUSH2 0x678 JUMPI POP POP POP PUSH1 0x80 DUP2 ADD MLOAD SWAP3 DUP3 DUP2 SUB PUSH1 0x80 DUP5 ADD MSTORE PUSH1 0x20 DUP1 DUP6 MLOAD SWAP3 DUP4 DUP2 MSTORE ADD SWAP5 ADD SWAP1 PUSH0 SWAP1 JUMPDEST DUP1 DUP3 LT PUSH2 0x660 JUMPI POP POP POP PUSH1 0x1 SWAP3 PUSH1 0x20 SWAP3 PUSH1 0xA0 DUP1 DUP6 SWAP5 ADD MLOAD ISZERO ISZERO SWAP2 ADD MSTORE SWAP9 ADD SWAP4 ADD SWAP4 ADD SWAP1 SWAP3 DUP10 SWAP6 SWAP7 SWAP5 SWAP3 SWAP4 PUSH2 0x484 JUMP JUMPDEST SWAP1 SWAP2 SWAP5 PUSH1 0x20 DUP1 PUSH1 0x1 SWAP3 DUP9 MLOAD DUP2 MSTORE ADD SWAP7 ADD SWAP3 ADD SWAP1 PUSH2 0x631 JUMP JUMPDEST DUP3 MLOAD PUSH1 0x1 PUSH1 0x1 PUSH1 0xE8 SHL SUB NOT AND DUP7 MSTORE PUSH1 0x20 SWAP6 DUP7 ADD SWAP6 SWAP1 SWAP3 ADD SWAP2 PUSH1 0x1 SWAP1 SWAP2 ADD SWAP1 PUSH2 0x609 JUMP JUMPDEST PUSH1 0x20 SWAP2 SWAP3 SWAP7 SWAP4 POP PUSH1 0x40 MLOAD PUSH2 0x6AE DUP2 PUSH2 0x98B JUMP JUMPDEST PUSH0 DUP2 MSTORE PUSH0 DUP4 DUP3 ADD MSTORE PUSH0 PUSH1 0x40 DUP3 ADD MSTORE DUP8 DUP1 DUP3 ADD MSTORE DUP8 PUSH1 0x80 DUP3 ADD MSTORE PUSH0 PUSH1 0xA0 DUP3 ADD MSTORE DUP3 DUP3 DUP7 ADD ADD MSTORE ADD SWAP1 DUP14 SWAP3 SWAP6 SWAP2 PUSH2 0x360 JUMP JUMPDEST SWAP1 SWAP9 POP PUSH1 0x20 DUP2 RETURNDATASIZE PUSH1 0x20 GT PUSH2 0x70A JUMPI JUMPDEST DUP2 PUSH2 0x6FA PUSH1 0x20 SWAP4 DUP4 PUSH2 0x9BB JUMP JUMPDEST DUP2 ADD SUB SLT PUSH2 0xE4 JUMPI MLOAD SWAP8 DUP11 PUSH2 0x343 JUMP JUMPDEST RETURNDATASIZE SWAP2 POP PUSH2 0x6ED JUMP JUMPDEST SWAP1 SWAP3 POP PUSH1 0x20 DUP2 RETURNDATASIZE PUSH1 0x20 GT PUSH2 0x73E JUMPI JUMPDEST DUP2 PUSH2 0x72E PUSH1 0x20 SWAP4 DUP4 PUSH2 0x9BB JUMP JUMPDEST DUP2 ADD SUB SLT PUSH2 0xE4 JUMPI MLOAD SWAP2 DUP8 PUSH2 0x2A3 JUMP JUMPDEST RETURNDATASIZE SWAP2 POP PUSH2 0x721 JUMP JUMPDEST CALLVALUE PUSH2 0xE4 JUMPI PUSH0 CALLDATASIZE PUSH1 0x3 NOT ADD SLT PUSH2 0xE4 JUMPI PUSH1 0x40 MLOAD PUSH32 0x0 PUSH1 0x1 PUSH1 0x1 PUSH1 0xA0 SHL SUB AND DUP2 MSTORE PUSH1 0x20 SWAP1 RETURN JUMPDEST CALLVALUE PUSH2 0xE4 JUMPI PUSH0 CALLDATASIZE PUSH1 0x3 NOT ADD SLT PUSH2 0xE4 JUMPI PUSH1 0x40 MLOAD PUSH32 0x0 PUSH1 0x1 PUSH1 0x1 PUSH1 0xA0 SHL SUB AND DUP2 MSTORE PUSH1 0x20 SWAP1 RETURN JUMPDEST CALLVALUE PUSH2 0xE4 JUMPI PUSH0 CALLDATASIZE PUSH1 0x3 NOT ADD SLT PUSH2 0xE4 JUMPI PUSH1 0x40 MLOAD PUSH32 0x0 PUSH1 0x1 PUSH1 0x1 PUSH1 0xA0 SHL SUB AND DUP2 MSTORE PUSH1 0x20 SWAP1 RETURN JUMPDEST CALLVALUE PUSH2 0xE4 JUMPI PUSH0 CALLDATASIZE PUSH1 0x3 NOT ADD SLT PUSH2 0xE4 JUMPI PUSH1 0x20 PUSH1 0x40 MLOAD PUSH32 0x0 DUP2 MSTORE RETURN JUMPDEST CALLVALUE PUSH2 0xE4 JUMPI PUSH0 CALLDATASIZE PUSH1 0x3 NOT ADD SLT PUSH2 0xE4 JUMPI PUSH1 0x40 MLOAD PUSH32 0x0 PUSH1 0x1 PUSH1 0x1 PUSH1 0xE8 SHL SUB NOT AND DUP2 MSTORE PUSH1 0x20 SWAP1 RETURN JUMPDEST CALLVALUE PUSH2 0xE4 JUMPI PUSH0 CALLDATASIZE PUSH1 0x3 NOT ADD SLT PUSH2 0xE4 JUMPI PUSH1 0x40 MLOAD PUSH32 0x0 PUSH1 0x1 PUSH1 0x1 PUSH1 0xA0 SHL SUB AND DUP2 MSTORE PUSH1 0x20 SWAP1 RETURN JUMPDEST CALLVALUE PUSH2 0xE4 JUMPI PUSH0 CALLDATASIZE PUSH1 0x3 NOT ADD SLT PUSH2 0xE4 JUMPI PUSH1 0x20 PUSH1 0x40 MLOAD PUSH32 0x0 DUP2 MSTORE RETURN JUMPDEST CALLVALUE PUSH2 0xE4 JUMPI PUSH0 CALLDATASIZE PUSH1 0x3 NOT ADD SLT PUSH2 0xE4 JUMPI PUSH1 0x40 MLOAD PUSH32 0x0 PUSH1 0x1 PUSH1 0x1 PUSH1 0xA0 SHL SUB AND DUP2 MSTORE PUSH1 0x20 SWAP1 RETURN JUMPDEST CALLVALUE PUSH2 0xE4 JUMPI PUSH0 CALLDATASIZE PUSH1 0x3 NOT ADD SLT PUSH2 0xE4 JUMPI PUSH1 0x20 SWAP1 PUSH32 0x0 DUP2 MSTORE RETURN JUMPDEST PUSH1 0xC0 DUP2 ADD SWAP1 DUP2 LT PUSH8 0xFFFFFFFFFFFFFFFF DUP3 GT OR PUSH2 0x9A7 JUMPI PUSH1 0x40 MSTORE JUMP JUMPDEST PUSH4 0x4E487B71 PUSH1 0xE0 SHL PUSH0 MSTORE PUSH1 0x41 PUSH1 0x4 MSTORE PUSH1 0x24 PUSH0 REVERT JUMPDEST SWAP1 PUSH1 0x1F DUP1 NOT SWAP2 ADD AND DUP2 ADD SWAP1 DUP2 LT PUSH8 0xFFFFFFFFFFFFFFFF DUP3 GT OR PUSH2 0x9A7 JUMPI PUSH1 0x40 MSTORE JUMP JUMPDEST PUSH1 0x1 PUSH1 0x1 PUSH1 0xA0 SHL SUB SWAP2 DUP3 AND DUP2 MSTORE SWAP2 DUP2 AND PUSH1 0x20 DUP4 ADD MSTORE SWAP1 SWAP2 AND PUSH1 0x40 DUP3 ADD MSTORE PUSH1 0x1 PUSH1 0x1 PUSH1 0xE8 SHL SUB NOT SWAP1 SWAP2 AND PUSH1 0x60 DUP3 ADD MSTORE PUSH1 0x80 DUP2 ADD SWAP2 SWAP1 SWAP2 MSTORE PUSH1 0xA0 DUP2 ADD SWAP2 SWAP1 SWAP2 MSTORE PUSH1 0xC0 ADD SWAP1 JUMP JUMPDEST DUP1 MLOAD ISZERO PUSH2 0xA2E JUMPI PUSH1 0x20 ADD SWAP1 JUMP JUMPDEST PUSH4 0x4E487B71 PUSH1 0xE0 SHL PUSH0 MSTORE PUSH1 0x32 PUSH1 0x4 MSTORE PUSH1 0x24 PUSH0 REVERT JUMPDEST DUP1 MLOAD PUSH1 0x1 LT ISZERO PUSH2 0xA2E JUMPI PUSH1 0x40 ADD SWAP1 JUMP JUMPDEST SWAP2 SWAP1 DUP3 PUSH1 0x40 SWAP2 SUB SLT PUSH2 0xE4 JUMPI PUSH1 0x20 DUP3 MLOAD SWAP3 ADD MLOAD SWAP1 JUMP JUMPDEST PUSH1 0x1 PUSH1 0x1 PUSH1 0xA0 SHL SUB SWAP2 DUP3 AND DUP2 MSTORE SWAP2 DUP2 AND PUSH1 0x20 DUP4 ADD MSTORE SWAP1 SWAP2 AND PUSH1 0x40 DUP3 ADD MSTORE PUSH1 0x1 PUSH1 0x1 PUSH1 0xE8 SHL SUB NOT SWAP1 SWAP2 AND PUSH1 0x60 DUP3 ADD MSTORE PUSH1 0x80 DUP2 ADD SWAP2 SWAP1 SWAP2 MSTORE PUSH1 0xA0 ADD SWAP1 JUMP JUMPDEST SWAP1 PUSH1 0x40 MLOAD SWAP2 PUSH2 0xAB4 PUSH1 0x40 DUP5 PUSH2 0x9BB JUMP JUMPDEST PUSH1 0x1 DUP4 MSTORE PUSH1 0x20 CALLDATASIZE DUP2 DUP6 ADD CALLDATACOPY PUSH2 0xAC8 DUP4 PUSH2 0xA21 JUMP JUMPDEST PUSH1 0x1 PUSH1 0x1 PUSH1 0xE8 SHL SUB NOT SWAP1 SWAP2 AND SWAP1 MSTORE JUMP JUMPDEST SWAP1 PUSH1 0x40 MLOAD SWAP2 PUSH2 0xAE8 PUSH1 0x40 DUP5 PUSH2 0x9BB JUMP JUMPDEST PUSH1 0x1 DUP4 MSTORE PUSH1 0x20 CALLDATASIZE DUP2 DUP6 ADD CALLDATACOPY PUSH2 0xAFC DUP4 PUSH2 0xA21 JUMP JUMPDEST MSTORE JUMP INVALID LOG2 PUSH5 0x6970667358 0x22 SLT KECCAK256 0x24 0xBD EQ 0x4B DUP1 PREVRANDAO 0xA9 LOG4 DUP5 TSTORE DUPN 0x67 0xED SAR 0xEB SDIV JUMPI EXTCALL KECCAK256 CREATE2 0xAF NUMBER RETF INVALID PUSH3 0xB31C11 JUMP 0xC0 SWAP6 PUSH26 0x64736F6C634300081E0033000000000000000000000000000000 "},"methodIdentifiers":{"A()":"f446c1d0","ALPHA()":"b0bb1c5a","B()":"32e7c5bf","C()":"83dfe5fd","SIMPLE()":"f84b592a","add0()":"b9e25dd1","add1()":"0035921a","alpha()":"db1d0fd5","flashCallback(bytes)":"e3739238","poolManager()":"dc4c90d3","simple()":"df201a46","swapAmt()":"4b656d07"}}}}}