{"contracts/Core/PoolRegistry.sol":{"PoolRegistry":{"abi":[{"inputs":[{"internalType":"address","name":"_poolManager","type":"address"}],"stateMutability":"nonpayable","type":"constructor"},{"anonymous":false,"inputs":[{"indexed":true,"internalType":"uint256","name":"poolId","type":"uint256"},{"indexed":false,"internalType":"uint256","name":"timestamp","type":"uint256"}],"name":"PoolDeactivated","type":"event"},{"anonymous":false,"inputs":[{"indexed":true,"internalType":"uint256","name":"poolId","type":"uint256"},{"indexed":false,"internalType":"string","name":"name","type":"string"},{"indexed":false,"internalType":"string","name":"description","type":"string"}],"name":"PoolMetadataUpdated","type":"event"},{"anonymous":false,"inputs":[{"indexed":true,"internalType":"uint256","name":"poolId","type":"uint256"},{"indexed":false,"internalType":"uint256","name":"timestamp","type":"uint256"}],"name":"PoolReactivated","type":"event"},{"anonymous":false,"inputs":[{"indexed":true,"internalType":"uint256","name":"poolId","type":"uint256"},{"indexed":true,"internalType":"address","name":"asset0","type":"address"},{"indexed":true,"internalType":"address","name":"asset1","type":"address"},{"indexed":false,"internalType":"address","name":"quoter","type":"address"},{"indexed":false,"internalType":"bytes3","name":"markings","type":"bytes3"},{"indexed":false,"internalType":"uint256","name":"timestamp","type":"uint256"}],"name":"PoolRegistered","type":"event"},{"anonymous":false,"inputs":[{"indexed":true,"internalType":"uint256","name":"poolId","type":"uint256"},{"indexed":false,"internalType":"uint256","name":"swapCount","type":"uint256"},{"indexed":false,"internalType":"uint256","name":"volume","type":"uint256"},{"indexed":false,"internalType":"uint256","name":"fees","type":"uint256"}],"name":"PoolStatisticsUpdated","type":"event"},{"inputs":[{"internalType":"uint256","name":"","type":"uint256"}],"name":"allPoolIds","outputs":[{"internalType":"uint256","name":"","type":"uint256"}],"stateMutability":"view","type":"function"},{"inputs":[{"internalType":"address","name":"","type":"address"}],"name":"authorized","outputs":[{"internalType":"bool","name":"","type":"bool"}],"stateMutability":"view","type":"function"},{"inputs":[{"internalType":"uint256","name":"poolId","type":"uint256"}],"name":"deactivatePool","outputs":[],"stateMutability":"nonpayable","type":"function"},{"inputs":[],"name":"getAllPoolIds","outputs":[{"internalType":"uint256[]","name":"","type":"uint256[]"}],"stateMutability":"view","type":"function"},{"inputs":[{"internalType":"address","name":"asset0","type":"address"},{"internalType":"address","name":"asset1","type":"address"},{"internalType":"address","name":"quoter","type":"address"},{"internalType":"bytes3","name":"markings","type":"bytes3"}],"name":"getPoolByKey","outputs":[{"internalType":"uint256","name":"","type":"uint256"}],"stateMutability":"view","type":"function"},{"inputs":[{"internalType":"uint256","name":"poolId","type":"uint256"}],"name":"getPoolDetails","outputs":[{"components":[{"internalType":"address","name":"asset0","type":"address"},{"internalType":"address","name":"asset1","type":"address"},{"internalType":"address","name":"quoter","type":"address"},{"internalType":"bytes3","name":"markings","type":"bytes3"},{"internalType":"uint256","name":"createdAt","type":"uint256"},{"internalType":"uint256","name":"totalVolume","type":"uint256"},{"internalType":"uint256","name":"totalFees","type":"uint256"},{"internalType":"bool","name":"isActive","type":"bool"},{"internalType":"string","name":"name","type":"string"},{"internalType":"string","name":"description","type":"string"}],"internalType":"struct PoolRegistry.PoolMetadata","name":"metadata","type":"tuple"},{"components":[{"internalType":"uint256","name":"swapCount","type":"uint256"},{"internalType":"uint256","name":"liquidityEventCount","type":"uint256"},{"internalType":"uint256","name":"lastActivityTimestamp","type":"uint256"},{"internalType":"uint256","name":"highestLiquidity","type":"uint256"},{"internalType":"uint256","name":"lowestLiquidity","type":"uint256"},{"internalType":"uint128","name":"avgSwapSize","type":"uint128"}],"internalType":"struct PoolRegistry.PoolStatistics","name":"statistics","type":"tuple"}],"stateMutability":"view","type":"function"},{"inputs":[{"internalType":"address","name":"asset","type":"address"}],"name":"getPoolsByAsset","outputs":[{"internalType":"uint256[]","name":"","type":"uint256[]"}],"stateMutability":"view","type":"function"},{"inputs":[{"internalType":"address","name":"quoter","type":"address"}],"name":"getPoolsByQuoter","outputs":[{"internalType":"uint256[]","name":"","type":"uint256[]"}],"stateMutability":"view","type":"function"},{"inputs":[{"internalType":"uint256","name":"poolId","type":"uint256"}],"name":"isPoolActive","outputs":[{"internalType":"bool","name":"","type":"bool"}],"stateMutability":"view","type":"function"},{"inputs":[{"internalType":"bytes32","name":"","type":"bytes32"}],"name":"poolLookup","outputs":[{"internalType":"uint256","name":"","type":"uint256"}],"stateMutability":"view","type":"function"},{"inputs":[],"name":"poolManager","outputs":[{"internalType":"address","name":"","type":"address"}],"stateMutability":"view","type":"function"},{"inputs":[{"internalType":"uint256","name":"","type":"uint256"}],"name":"poolMetadata","outputs":[{"internalType":"address","name":"asset0","type":"address"},{"internalType":"address","name":"asset1","type":"address"},{"internalType":"address","name":"quoter","type":"address"},{"internalType":"bytes3","name":"markings","type":"bytes3"},{"internalType":"uint256","name":"createdAt","type":"uint256"},{"internalType":"uint256","name":"totalVolume","type":"uint256"},{"internalType":"uint256","name":"totalFees","type":"uint256"},{"internalType":"bool","name":"isActive","type":"bool"},{"internalType":"string","name":"name","type":"string"},{"internalType":"string","name":"description","type":"string"}],"stateMutability":"view","type":"function"},{"inputs":[{"internalType":"uint256","name":"","type":"uint256"}],"name":"poolStatistics","outputs":[{"internalType":"uint256","name":"swapCount","type":"uint256"},{"internalType":"uint256","name":"liquidityEventCount","type":"uint256"},{"internalType":"uint256","name":"lastActivityTimestamp","type":"uint256"},{"internalType":"uint256","name":"highestLiquidity","type":"uint256"},{"internalType":"uint256","name":"lowestLiquidity","type":"uint256"},{"internalType":"uint128","name":"avgSwapSize","type":"uint128"}],"stateMutability":"view","type":"function"},{"inputs":[{"internalType":"address","name":"","type":"address"},{"internalType":"uint256","name":"","type":"uint256"}],"name":"poolsByAsset","outputs":[{"internalType":"uint256","name":"","type":"uint256"}],"stateMutability":"view","type":"function"},{"inputs":[{"internalType":"address","name":"","type":"address"},{"internalType":"uint256","name":"","type":"uint256"}],"name":"poolsByQuoter","outputs":[{"internalType":"uint256","name":"","type":"uint256"}],"stateMutability":"view","type":"function"},{"inputs":[{"internalType":"uint256","name":"poolId","type":"uint256"}],"name":"reactivatePool","outputs":[],"stateMutability":"nonpayable","type":"function"},{"inputs":[{"internalType":"uint256","name":"poolId","type":"uint256"},{"internalType":"uint256","name":"currentLiquidity","type":"uint256"}],"name":"recordLiquidityEvent","outputs":[],"stateMutability":"nonpayable","type":"function"},{"inputs":[{"internalType":"uint256","name":"poolId","type":"uint256"},{"internalType":"uint256","name":"swapSize","type":"uint256"},{"internalType":"uint256","name":"volumeInUSD","type":"uint256"},{"internalType":"uint256","name":"feesCollected","type":"uint256"}],"name":"recordSwap","outputs":[],"stateMutability":"nonpayable","type":"function"},{"inputs":[{"internalType":"uint256","name":"poolId","type":"uint256"},{"internalType":"address","name":"asset0","type":"address"},{"internalType":"address","name":"asset1","type":"address"},{"internalType":"address","name":"quoter","type":"address"},{"internalType":"bytes3","name":"markings","type":"bytes3"}],"name":"registerPool","outputs":[{"internalType":"bool","name":"","type":"bool"}],"stateMutability":"nonpayable","type":"function"},{"inputs":[{"internalType":"address","name":"account","type":"address"},{"internalType":"bool","name":"status","type":"bool"}],"name":"setAuthorized","outputs":[],"stateMutability":"nonpayable","type":"function"},{"inputs":[],"name":"totalPools","outputs":[{"internalType":"uint256","name":"","type":"uint256"}],"stateMutability":"view","type":"function"},{"inputs":[{"internalType":"uint256","name":"poolId","type":"uint256"},{"internalType":"string","name":"name","type":"string"},{"internalType":"string","name":"description","type":"string"}],"name":"updatePoolMetadata","outputs":[],"stateMutability":"nonpayable","type":"function"}],"evm":{"bytecode":{"linkReferences":{},"object":"608034607057601f61190138819003918201601f19168301916001600160401b03831184841017607457808492602094604052833981010312607057516001600160a01b03811690819003607057600780546001600160a01b03191691909117905560405161187890816100898239f35b5f80fd5b634e487b7160e01b5f52604160045260245ffdfe60806040526004361015610011575f80fd5b5f3560e01c80631c50f93314610f5157806340c415e914610df257806356a8093414610d7457806357739c2314610cfc5780636103867914610c78578063711bf9b214610c145780638534fb4614610b3b578063864125871461082c578063887bbdd2146107ba5780638eeabc3614610771578063904a66ca146107075780639abd9b0514610620578063ab3c7e5214610603578063ac5a9d97146105d9578063b4340e6a14610567578063b8764c39146102ef578063b9181611146102b2578063bbbaf8c814610281578063dc4c90d314610259578063e9b3d22014610201578063f19c3d5b1461017d5763fcb72a9c1461010b575f80fd5b3461017957602036600319011261017957600435600654811015610179576006548110156101655760065f527ff652222313e28459528d920b65115c16c04f3efc82aaedc97be59f3f377c0d3f0154604051908152602090f35b634e487b7160e01b5f52603260045260245ffd5b5f80fd5b34610179575f3660031901126101795760405180602060065491828152019060065f527ff652222313e28459528d920b65115c16c04f3efc82aaedc97be59f3f377c0d3f905f5b8181106101eb576101e7856101db818703826110ed565b60405191829182611201565b0390f35b82548452602090930192600192830192016101c4565b346101795760403660031901126101795761021a61103a565b6001600160a01b03165f908152600360205260409020805460243591908210156101795760209161024a9161123a565b90549060031b1c604051908152f35b34610179575f366003190112610179576007546040516001600160a01b039091168152602090f35b34610179576020366003190112610179576004355f525f602052602060ff600660405f200154166040519015158152f35b34610179576020366003190112610179576001600160a01b036102d361103a565b165f526008602052602060ff60405f2054166040519015158152f35b346101795760203660031901126101795761052c6004356060610120604051610317816110b4565b5f81525f60208201525f60408201525f838201525f60808201525f60a08201525f60c08201525f60e08201528261010082015201525f60a060405161035b816110d1565b8281528260208201528260408201528260608201528260808201520152805f525f60205260405f20905f52600160205260405f206104206008604051936103a1856110b4565b80546001600160a01b0390811686526001820154811660208701526002820154908116604087015260481b6001600160e81b031916606086015260038101546080860152600481015460a0860152600581015460c0860152600681015460ff16151560e08601526104146007820161110f565b6101008601520161110f565b6101208301526001600160801b0360056040519261043d846110d1565b805484526001810154602085015260028101546040850152600381015460608501526004810154608085015201541660a08201526001600160801b0360a060405194859460e08652600180841b0381511660e0870152600180841b03602082015116610100870152600180841b0360408201511661012087015262ffffff60e81b60608201511661014087015260808101516101608701528281015161018087015260c08101516101a087015260e081015115156101c08701526101206105176101008301516101406101e08a01526102208901906111af565b91015186820360df19016102008801526111af565b928051602086015260208101516040860152604081015160608601526060810151608086015260808101518286015201511660c08301520390f35b34610179576020366003190112610179576001600160a01b0361058861103a565b165f52600360205260405f206040519081602082549182815201915f5260205f20905f5b8181106105c3576101e7856101db818703826110ed565b82548452602090930192600192830192016105ac565b34610179576020366003190112610179576004355f526002602052602060405f2054604051908152f35b34610179575f366003190112610179576020600554604051908152f35b346101795760203660031901126101795760043560018060a01b0360075416331480156106ef575b6106519061124f565b805f525f60205260ff600660405f20015416156106aa57805f525f602052600660405f200160ff1981541690557f35e8784e70e18f30e0d262a23d57e3b0b384329e79eec7566083c2bd2a207ac86020604051428152a2005b60405162461bcd60e51b815260206004820152601e60248201527f506f6f6c52656769737472793a20416c726561647920696e61637469766500006044820152606490fd5b50335f9081526008602052604090205460ff16610648565b34610179576020366003190112610179576004355f52600160205260c060405f2080549060018101549060028101546003820154906001600160801b03600560048501549401541693604051958652602086015260408501526060840152608083015260a0820152f35b346101795760403660031901126101795761078a61103a565b6001600160a01b03165f908152600460205260409020805460243591908210156101795760209161024a9161123a565b34610179576020366003190112610179576001600160a01b036107db61103a565b165f52600460205260405f206040519081602082549182815201915f5260205f20905f5b818110610816576101e7856101db818703826110ed565b82548452602090930192600192830192016107ff565b346101795760603660031901126101795760043560243567ffffffffffffffff8111610179576108609036906004016111d3565b919060443567ffffffffffffffff8111610179576108829036906004016111d3565b939060018060a01b036007541633148015610b23575b6108a19061124f565b835f525f602052600360405f20015415610ade57835f525f602052600760405f200167ffffffffffffffff8311610a5c576108e6836108e0835461107c565b83611344565b5f83601f8111600114610a7b5780610912925f91610a70575b508160011b915f199060031b1c19161790565b90555b835f525f602052600860405f20019467ffffffffffffffff8111610a5c5761094781610941885461107c565b88611344565b5f95601f82116001146109d357906109c3929161099b82807f61ce440896fbb9ead9897dc071277c647adf0ff569c51e91659311377be192f2999a5f916109c857508160011b915f199060031b1c19161790565b90555b6109b5604051958695604087526040870191611822565b918483036020860152611822565b0390a2005b90508501358b6108ff565b601f198216815f5260205f20905f5b818110610a445750907f61ce440896fbb9ead9897dc071277c647adf0ff569c51e91659311377be192f29798846109c39695949310610a2b575b5050600182811b01905561099e565b8401355f19600385901b60f8161c191690558880610a1c565b858a013583556020998a0199600190930192016109e2565b634e487b7160e01b5f52604160045260245ffd5b9050860135896108ff565b50601f19841690825f528460205f20925f5b818110610ac3575010610aaa575b5050600183811b019055610915565b8501355f19600386901b60f8161c191690558680610a9b565b88840135855560019094019360209384019388935001610a8d565b60405162461bcd60e51b815260206004820152601c60248201527f506f6f6c52656769737472793a20506f6f6c206e6f7420666f756e64000000006044820152606490fd5b50335f9081526008602052604090205460ff16610898565b34610179576020366003190112610179576004355f525f60205260405f2060018060a01b038154166101e760018060a01b0360018401541692610c056002820154916003810154600482015460058301549060ff60068501541692610bae6008610ba76007880161110f565b960161110f565b966040519a8b9a8b5260208b015260018060a01b03811660408b015262ffffff60e81b9060481b1660608a0152608089015260a088015260c0870152151560e08601526101406101008601526101408501906111af565b908382036101208501526111af565b3461017957604036600319011261017957610c2d61103a565b602435801515810361017957610c7691610c5260018060a01b0360075416331461129b565b60018060a01b03165f52600860205260405f209060ff801983541691151516179055565b005b3461017957604036600319011261017957602435610ca160018060a01b0360075416331461129b565b6004355f526001602052600460405f2060018101610cbf81546112e7565b9055426002820155826003820180548211610cf4575b5050018054821080610ceb575b610ce857005b55005b50811515610ce2565b558284610cd5565b346101795760a036600319011261017957610d15611050565b610d1d611066565b906064356001600160a01b038116810361017957608435906001600160e81b03198216820361017957602093610d6a93610d6260018060a01b0360075416331461129b565b6004356113ce565b6040519015158152f35b3461017957608036600319011261017957610d8d61103a565b610d95611050565b610d9d611066565b90606435906001600160e81b03198216820361017957610dcb610dd992604051948593602085019788611302565b03601f1981018352826110ed565b5190205f526002602052602060405f2054604051908152f35b3461017957608036600319011261017957600435602435610e1e60018060a01b0360075416331461129b565b815f52600160205260405f20825f525f60205260405f2090610e4081546112e7565b81554260028201556005810180546001600160801b031680610edd575090606092916001600160801b03807fa9ad825c466c695042e8c123d5916c2dbfbf8e45516e3ca4d57e774f54d53a2f9616166001600160801b03198254161790555b60056004830192610eb360443585546112f5565b8094550190610ec560643583546112f5565b809255549160405192835260208301526040820152a2005b92919060098402938404600903610f3d576001600160801b0380600a610f267fa9ad825c466c695042e8c123d5916c2dbfbf8e45516e3ca4d57e774f54d53a2f986060986112f5565b0416166001600160801b0319825416179055610e9f565b634e487b7160e01b5f52601160045260245ffd5b346101795760203660031901126101795760043560018060a01b036007541633148015611022575b610f829061124f565b805f525f60205260ff600660405f20015416610fdd57805f525f602052600660405f2001600160ff198254161790557fb05047591e05f3336f31e01dc28512fe8438fe3b8e0a9aa189c8e4ee1cedd0fe6020604051428152a2005b60405162461bcd60e51b815260206004820152601c60248201527f506f6f6c52656769737472793a20416c726561647920616374697665000000006044820152606490fd5b50335f9081526008602052604090205460ff16610f79565b600435906001600160a01b038216820361017957565b602435906001600160a01b038216820361017957565b604435906001600160a01b038216820361017957565b90600182811c921680156110aa575b602083101461109657565b634e487b7160e01b5f52602260045260245ffd5b91607f169161108b565b610140810190811067ffffffffffffffff821117610a5c57604052565b60c0810190811067ffffffffffffffff821117610a5c57604052565b90601f8019910116810190811067ffffffffffffffff821117610a5c57604052565b9060405191825f8254926111228461107c565b808452936001811690811561118d5750600114611149575b50611147925003836110ed565b565b90505f9291925260205f20905f915b818310611171575050906020611147928201015f61113a565b6020919350806001915483858901015201910190918492611158565b90506020925061114794915060ff191682840152151560051b8201015f61113a565b805180835260209291819084018484015e5f828201840152601f01601f1916010190565b9181601f840112156101795782359167ffffffffffffffff8311610179576020838186019501011161017957565b60206040818301928281528451809452019201905f5b8181106112245750505090565b8251845260209384019390920191600101611217565b8054821015610165575f5260205f2001905f90565b1561125657565b60405162461bcd60e51b815260206004820152601c60248201527f506f6f6c52656769737472793a204e6f7420617574686f72697a6564000000006044820152606490fd5b156112a257565b60405162461bcd60e51b815260206004820152601d60248201527f506f6f6c52656769737472793a204e6f7420506f6f6c4d616e616765720000006044820152606490fd5b5f198114610f3d5760010190565b91908201809211610f3d57565b606091821b6bffffffffffffffffffffffff19908116825292821b8316601482015292901b1660288201526001600160e81b0319909116603c820152603f0190565b601f821161135157505050565b5f5260205f20906020601f840160051c83019310611389575b601f0160051c01905b81811061137e575050565b5f8155600101611373565b909150819061136a565b90815491600160401b831015610a5c57826113b69160016111479501815561123a565b90919082549060031b91821b915f19901b1916179055565b91825f525f602052600360405f20015461181957604051916113ef836110b4565b60018060a01b03811694858452602084019260018060a01b0381169788855286604087019660018060a01b038516968789526115216060830162ffffff60e81b86169a8b82526080850142815260a08601905f825260c08701925f845260e0880194600186526040519761146460208a6110ed565b5f89526101008a019889526040519a61147e60208d6110ed565b5f808d526101208c019c8d5290815260208190526040902099518a546001600160a01b039182166001600160a01b0319918216178c55915160018c0180549183169190931617909155915160028a018054925162ffffff60a01b60489190911c16919093166001600160b81b0319909216919091171790555160038701555160048601555160058501555160068401805460ff191691151560ff16919091179055565b518051600783019167ffffffffffffffff8211610a5c5761154c82611546855461107c565b85611344565b602090601f83116001146117b25791806115809260089695945f9261173b575b50508160011b915f199060031b1c19161790565b90555b01905180519067ffffffffffffffff8211610a5c576115a682611546855461107c565b602090601f83116001146117465782611670969593610dcb95936115de935f9261173b5750508160011b915f199060031b1c19161790565b90555b6040516115ed816110d1565b5f81526001600160801b036005818c602085015f81526040860142815260608701905f825260808801925f19845260a08901945f86525f52600160205260405f20985189555160018901555160028801555160038701555160048601555116920191166001600160801b0319825416179055604051948593602085019788611302565b5190205f5260026020528260405f2055835f5260036020526116958360405f20611393565b838503611721575b805f5260046020526116b28360405f20611393565b60065490600160401b821015610a5c577f69b97470ff43d2d8913d41c9fe539897945b5ae1943643ad4b8302ea38c1d842926116fc856113b685600160609701600655600661123a565b6117076005546112e7565b6005556040519182526020820152426040820152a4600190565b845f5260036020526117368360405f20611393565b61169d565b015190505f8061156c565b90601f19831691845f52815f20925f5b81811061179a5750926001928592611670999896610dcb989610611782575b505050811b0190556115e1565b01515f1960f88460031b161c191690555f8080611775565b92936020600181928786015181550195019301611756565b90601f19831691845f52815f20925f5b8181106118015750916001939185600898979694106117e9575b505050811b019055611583565b01515f1960f88460031b161c191690555f80806117dc565b929360206001819287860151815501950193016117c2565b50505050505f90565b908060209392818452848401375f828201840152601f01601f191601019056fea26469706673582212205cbebe3560ffc1eb9c224867ae1922e4c5951e8ae7377a4e92942dac8759d1d664736f6c634300081e0033","opcodes":"PUSH1 0x80 CALLVALUE PUSH1 0x70 JUMPI PUSH1 0x1F PUSH2 0x1901 CODESIZE DUP2 SWAP1 SUB SWAP2 DUP3 ADD PUSH1 0x1F NOT AND DUP4 ADD SWAP2 PUSH1 0x1 PUSH1 0x1 PUSH1 0x40 SHL SUB DUP4 GT DUP5 DUP5 LT OR PUSH1 0x74 JUMPI DUP1 DUP5 SWAP3 PUSH1 0x20 SWAP5 PUSH1 0x40 MSTORE DUP4 CODECOPY DUP2 ADD SUB SLT PUSH1 0x70 JUMPI MLOAD PUSH1 0x1 PUSH1 0x1 PUSH1 0xA0 SHL SUB DUP2 AND SWAP1 DUP2 SWAP1 SUB PUSH1 0x70 JUMPI PUSH1 0x7 DUP1 SLOAD PUSH1 0x1 PUSH1 0x1 PUSH1 0xA0 SHL SUB NOT AND SWAP2 SWAP1 SWAP2 OR SWAP1 SSTORE PUSH1 0x40 MLOAD PUSH2 0x1878 SWAP1 DUP2 PUSH2 0x89 DUP3 CODECOPY RETURN JUMPDEST PUSH0 DUP1 REVERT JUMPDEST PUSH4 0x4E487B71 PUSH1 0xE0 SHL PUSH0 MSTORE PUSH1 0x41 PUSH1 0x4 MSTORE PUSH1 0x24 PUSH0 REVERT INVALID PUSH1 0x80 PUSH1 0x40 MSTORE PUSH1 0x4 CALLDATASIZE LT ISZERO PUSH2 0x11 JUMPI PUSH0 DUP1 REVERT JUMPDEST PUSH0 CALLDATALOAD PUSH1 0xE0 SHR DUP1 PUSH4 0x1C50F933 EQ PUSH2 0xF51 JUMPI DUP1 PUSH4 0x40C415E9 EQ PUSH2 0xDF2 JUMPI DUP1 PUSH4 0x56A80934 EQ PUSH2 0xD74 JUMPI DUP1 PUSH4 0x57739C23 EQ PUSH2 0xCFC JUMPI DUP1 PUSH4 0x61038679 EQ PUSH2 0xC78 JUMPI DUP1 PUSH4 0x711BF9B2 EQ PUSH2 0xC14 JUMPI DUP1 PUSH4 0x8534FB46 EQ PUSH2 0xB3B JUMPI DUP1 PUSH4 0x86412587 EQ PUSH2 0x82C JUMPI DUP1 PUSH4 0x887BBDD2 EQ PUSH2 0x7BA JUMPI DUP1 PUSH4 0x8EEABC36 EQ PUSH2 0x771 JUMPI DUP1 PUSH4 0x904A66CA EQ PUSH2 0x707 JUMPI DUP1 PUSH4 0x9ABD9B05 EQ PUSH2 0x620 JUMPI DUP1 PUSH4 0xAB3C7E52 EQ PUSH2 0x603 JUMPI DUP1 PUSH4 0xAC5A9D97 EQ PUSH2 0x5D9 JUMPI DUP1 PUSH4 0xB4340E6A EQ PUSH2 0x567 JUMPI DUP1 PUSH4 0xB8764C39 EQ PUSH2 0x2EF JUMPI DUP1 PUSH4 0xB9181611 EQ PUSH2 0x2B2 JUMPI DUP1 PUSH4 0xBBBAF8C8 EQ PUSH2 0x281 JUMPI DUP1 PUSH4 0xDC4C90D3 EQ PUSH2 0x259 JUMPI DUP1 PUSH4 0xE9B3D220 EQ PUSH2 0x201 JUMPI DUP1 PUSH4 0xF19C3D5B EQ PUSH2 0x17D JUMPI PUSH4 0xFCB72A9C EQ PUSH2 0x10B JUMPI PUSH0 DUP1 REVERT JUMPDEST CALLVALUE PUSH2 0x179 JUMPI PUSH1 0x20 CALLDATASIZE PUSH1 0x3 NOT ADD SLT PUSH2 0x179 JUMPI PUSH1 0x4 CALLDATALOAD PUSH1 0x6 SLOAD DUP2 LT ISZERO PUSH2 0x179 JUMPI PUSH1 0x6 SLOAD DUP2 LT ISZERO PUSH2 0x165 JUMPI PUSH1 0x6 PUSH0 MSTORE PUSH32 0xF652222313E28459528D920B65115C16C04F3EFC82AAEDC97BE59F3F377C0D3F ADD SLOAD PUSH1 0x40 MLOAD SWAP1 DUP2 MSTORE PUSH1 0x20 SWAP1 RETURN JUMPDEST PUSH4 0x4E487B71 PUSH1 0xE0 SHL PUSH0 MSTORE PUSH1 0x32 PUSH1 0x4 MSTORE PUSH1 0x24 PUSH0 REVERT JUMPDEST PUSH0 DUP1 REVERT JUMPDEST CALLVALUE PUSH2 0x179 JUMPI PUSH0 CALLDATASIZE PUSH1 0x3 NOT ADD SLT PUSH2 0x179 JUMPI PUSH1 0x40 MLOAD DUP1 PUSH1 0x20 PUSH1 0x6 SLOAD SWAP2 DUP3 DUP2 MSTORE ADD SWAP1 PUSH1 0x6 PUSH0 MSTORE PUSH32 0xF652222313E28459528D920B65115C16C04F3EFC82AAEDC97BE59F3F377C0D3F SWAP1 PUSH0 JUMPDEST DUP2 DUP2 LT PUSH2 0x1EB JUMPI PUSH2 0x1E7 DUP6 PUSH2 0x1DB DUP2 DUP8 SUB DUP3 PUSH2 0x10ED JUMP JUMPDEST PUSH1 0x40 MLOAD SWAP2 DUP3 SWAP2 DUP3 PUSH2 0x1201 JUMP JUMPDEST SUB SWAP1 RETURN JUMPDEST DUP3 SLOAD DUP5 MSTORE PUSH1 0x20 SWAP1 SWAP4 ADD SWAP3 PUSH1 0x1 SWAP3 DUP4 ADD SWAP3 ADD PUSH2 0x1C4 JUMP JUMPDEST CALLVALUE PUSH2 0x179 JUMPI PUSH1 0x40 CALLDATASIZE PUSH1 0x3 NOT ADD SLT PUSH2 0x179 JUMPI PUSH2 0x21A PUSH2 0x103A JUMP JUMPDEST PUSH1 0x1 PUSH1 0x1 PUSH1 0xA0 SHL SUB AND PUSH0 SWAP1 DUP2 MSTORE PUSH1 0x3 PUSH1 0x20 MSTORE PUSH1 0x40 SWAP1 KECCAK256 DUP1 SLOAD PUSH1 0x24 CALLDATALOAD SWAP2 SWAP1 DUP3 LT ISZERO PUSH2 0x179 JUMPI PUSH1 0x20 SWAP2 PUSH2 0x24A SWAP2 PUSH2 0x123A JUMP JUMPDEST SWAP1 SLOAD SWAP1 PUSH1 0x3 SHL SHR PUSH1 0x40 MLOAD SWAP1 DUP2 MSTORE RETURN JUMPDEST CALLVALUE PUSH2 0x179 JUMPI PUSH0 CALLDATASIZE PUSH1 0x3 NOT ADD SLT PUSH2 0x179 JUMPI PUSH1 0x7 SLOAD PUSH1 0x40 MLOAD PUSH1 0x1 PUSH1 0x1 PUSH1 0xA0 SHL SUB SWAP1 SWAP2 AND DUP2 MSTORE PUSH1 0x20 SWAP1 RETURN JUMPDEST CALLVALUE PUSH2 0x179 JUMPI PUSH1 0x20 CALLDATASIZE PUSH1 0x3 NOT ADD SLT PUSH2 0x179 JUMPI PUSH1 0x4 CALLDATALOAD PUSH0 MSTORE PUSH0 PUSH1 0x20 MSTORE PUSH1 0x20 PUSH1 0xFF PUSH1 0x6 PUSH1 0x40 PUSH0 KECCAK256 ADD SLOAD AND PUSH1 0x40 MLOAD SWAP1 ISZERO ISZERO DUP2 MSTORE RETURN JUMPDEST CALLVALUE PUSH2 0x179 JUMPI PUSH1 0x20 CALLDATASIZE PUSH1 0x3 NOT ADD SLT PUSH2 0x179 JUMPI PUSH1 0x1 PUSH1 0x1 PUSH1 0xA0 SHL SUB PUSH2 0x2D3 PUSH2 0x103A JUMP JUMPDEST AND PUSH0 MSTORE PUSH1 0x8 PUSH1 0x20 MSTORE PUSH1 0x20 PUSH1 0xFF PUSH1 0x40 PUSH0 KECCAK256 SLOAD AND PUSH1 0x40 MLOAD SWAP1 ISZERO ISZERO DUP2 MSTORE RETURN JUMPDEST CALLVALUE PUSH2 0x179 JUMPI PUSH1 0x20 CALLDATASIZE PUSH1 0x3 NOT ADD SLT PUSH2 0x179 JUMPI PUSH2 0x52C PUSH1 0x4 CALLDATALOAD PUSH1 0x60 PUSH2 0x120 PUSH1 0x40 MLOAD PUSH2 0x317 DUP2 PUSH2 0x10B4 JUMP JUMPDEST PUSH0 DUP2 MSTORE PUSH0 PUSH1 0x20 DUP3 ADD MSTORE PUSH0 PUSH1 0x40 DUP3 ADD MSTORE PUSH0 DUP4 DUP3 ADD MSTORE PUSH0 PUSH1 0x80 DUP3 ADD MSTORE PUSH0 PUSH1 0xA0 DUP3 ADD MSTORE PUSH0 PUSH1 0xC0 DUP3 ADD MSTORE PUSH0 PUSH1 0xE0 DUP3 ADD MSTORE DUP3 PUSH2 0x100 DUP3 ADD MSTORE ADD MSTORE PUSH0 PUSH1 0xA0 PUSH1 0x40 MLOAD PUSH2 0x35B DUP2 PUSH2 0x10D1 JUMP JUMPDEST DUP3 DUP2 MSTORE DUP3 PUSH1 0x20 DUP3 ADD MSTORE DUP3 PUSH1 0x40 DUP3 ADD MSTORE DUP3 PUSH1 0x60 DUP3 ADD MSTORE DUP3 PUSH1 0x80 DUP3 ADD MSTORE ADD MSTORE DUP1 PUSH0 MSTORE PUSH0 PUSH1 0x20 MSTORE PUSH1 0x40 PUSH0 KECCAK256 SWAP1 PUSH0 MSTORE PUSH1 0x1 PUSH1 0x20 MSTORE PUSH1 0x40 PUSH0 KECCAK256 PUSH2 0x420 PUSH1 0x8 PUSH1 0x40 MLOAD SWAP4 PUSH2 0x3A1 DUP6 PUSH2 0x10B4 JUMP JUMPDEST DUP1 SLOAD PUSH1 0x1 PUSH1 0x1 PUSH1 0xA0 SHL SUB SWAP1 DUP2 AND DUP7 MSTORE PUSH1 0x1 DUP3 ADD SLOAD DUP2 AND PUSH1 0x20 DUP8 ADD MSTORE PUSH1 0x2 DUP3 ADD SLOAD SWAP1 DUP2 AND PUSH1 0x40 DUP8 ADD MSTORE PUSH1 0x48 SHL PUSH1 0x1 PUSH1 0x1 PUSH1 0xE8 SHL SUB NOT AND PUSH1 0x60 DUP7 ADD MSTORE PUSH1 0x3 DUP2 ADD SLOAD PUSH1 0x80 DUP7 ADD MSTORE PUSH1 0x4 DUP2 ADD SLOAD PUSH1 0xA0 DUP7 ADD MSTORE PUSH1 0x5 DUP2 ADD SLOAD PUSH1 0xC0 DUP7 ADD MSTORE PUSH1 0x6 DUP2 ADD SLOAD PUSH1 0xFF AND ISZERO ISZERO PUSH1 0xE0 DUP7 ADD MSTORE PUSH2 0x414 PUSH1 0x7 DUP3 ADD PUSH2 0x110F JUMP JUMPDEST PUSH2 0x100 DUP7 ADD MSTORE ADD PUSH2 0x110F JUMP JUMPDEST PUSH2 0x120 DUP4 ADD MSTORE PUSH1 0x1 PUSH1 0x1 PUSH1 0x80 SHL SUB PUSH1 0x5 PUSH1 0x40 MLOAD SWAP3 PUSH2 0x43D DUP5 PUSH2 0x10D1 JUMP JUMPDEST DUP1 SLOAD DUP5 MSTORE PUSH1 0x1 DUP2 ADD SLOAD PUSH1 0x20 DUP6 ADD MSTORE PUSH1 0x2 DUP2 ADD SLOAD PUSH1 0x40 DUP6 ADD MSTORE PUSH1 0x3 DUP2 ADD SLOAD PUSH1 0x60 DUP6 ADD MSTORE PUSH1 0x4 DUP2 ADD SLOAD PUSH1 0x80 DUP6 ADD MSTORE ADD SLOAD AND PUSH1 0xA0 DUP3 ADD MSTORE PUSH1 0x1 PUSH1 0x1 PUSH1 0x80 SHL SUB PUSH1 0xA0 PUSH1 0x40 MLOAD SWAP5 DUP6 SWAP5 PUSH1 0xE0 DUP7 MSTORE PUSH1 0x1 DUP1 DUP5 SHL SUB DUP2 MLOAD AND PUSH1 0xE0 DUP8 ADD MSTORE PUSH1 0x1 DUP1 DUP5 SHL SUB PUSH1 0x20 DUP3 ADD MLOAD AND PUSH2 0x100 DUP8 ADD MSTORE PUSH1 0x1 DUP1 DUP5 SHL SUB PUSH1 0x40 DUP3 ADD MLOAD AND PUSH2 0x120 DUP8 ADD MSTORE PUSH3 0xFFFFFF PUSH1 0xE8 SHL PUSH1 0x60 DUP3 ADD MLOAD AND PUSH2 0x140 DUP8 ADD MSTORE PUSH1 0x80 DUP2 ADD MLOAD PUSH2 0x160 DUP8 ADD MSTORE DUP3 DUP2 ADD MLOAD PUSH2 0x180 DUP8 ADD MSTORE PUSH1 0xC0 DUP2 ADD MLOAD PUSH2 0x1A0 DUP8 ADD MSTORE PUSH1 0xE0 DUP2 ADD MLOAD ISZERO ISZERO PUSH2 0x1C0 DUP8 ADD MSTORE PUSH2 0x120 PUSH2 0x517 PUSH2 0x100 DUP4 ADD MLOAD PUSH2 0x140 PUSH2 0x1E0 DUP11 ADD MSTORE PUSH2 0x220 DUP10 ADD SWAP1 PUSH2 0x11AF JUMP JUMPDEST SWAP2 ADD MLOAD DUP7 DUP3 SUB PUSH1 0xDF NOT ADD PUSH2 0x200 DUP9 ADD MSTORE PUSH2 0x11AF JUMP JUMPDEST SWAP3 DUP1 MLOAD PUSH1 0x20 DUP7 ADD MSTORE PUSH1 0x20 DUP2 ADD MLOAD PUSH1 0x40 DUP7 ADD MSTORE PUSH1 0x40 DUP2 ADD MLOAD PUSH1 0x60 DUP7 ADD MSTORE PUSH1 0x60 DUP2 ADD MLOAD PUSH1 0x80 DUP7 ADD MSTORE PUSH1 0x80 DUP2 ADD MLOAD DUP3 DUP7 ADD MSTORE ADD MLOAD AND PUSH1 0xC0 DUP4 ADD MSTORE SUB SWAP1 RETURN JUMPDEST CALLVALUE PUSH2 0x179 JUMPI PUSH1 0x20 CALLDATASIZE PUSH1 0x3 NOT ADD SLT PUSH2 0x179 JUMPI PUSH1 0x1 PUSH1 0x1 PUSH1 0xA0 SHL SUB PUSH2 0x588 PUSH2 0x103A JUMP JUMPDEST AND PUSH0 MSTORE PUSH1 0x3 PUSH1 0x20 MSTORE PUSH1 0x40 PUSH0 KECCAK256 PUSH1 0x40 MLOAD SWAP1 DUP2 PUSH1 0x20 DUP3 SLOAD SWAP2 DUP3 DUP2 MSTORE ADD SWAP2 PUSH0 MSTORE PUSH1 0x20 PUSH0 KECCAK256 SWAP1 PUSH0 JUMPDEST DUP2 DUP2 LT PUSH2 0x5C3 JUMPI PUSH2 0x1E7 DUP6 PUSH2 0x1DB DUP2 DUP8 SUB DUP3 PUSH2 0x10ED JUMP JUMPDEST DUP3 SLOAD DUP5 MSTORE PUSH1 0x20 SWAP1 SWAP4 ADD SWAP3 PUSH1 0x1 SWAP3 DUP4 ADD SWAP3 ADD PUSH2 0x5AC JUMP JUMPDEST CALLVALUE PUSH2 0x179 JUMPI PUSH1 0x20 CALLDATASIZE PUSH1 0x3 NOT ADD SLT PUSH2 0x179 JUMPI PUSH1 0x4 CALLDATALOAD PUSH0 MSTORE PUSH1 0x2 PUSH1 0x20 MSTORE PUSH1 0x20 PUSH1 0x40 PUSH0 KECCAK256 SLOAD PUSH1 0x40 MLOAD SWAP1 DUP2 MSTORE RETURN JUMPDEST CALLVALUE PUSH2 0x179 JUMPI PUSH0 CALLDATASIZE PUSH1 0x3 NOT ADD SLT PUSH2 0x179 JUMPI PUSH1 0x20 PUSH1 0x5 SLOAD PUSH1 0x40 MLOAD SWAP1 DUP2 MSTORE RETURN JUMPDEST CALLVALUE PUSH2 0x179 JUMPI PUSH1 0x20 CALLDATASIZE PUSH1 0x3 NOT ADD SLT PUSH2 0x179 JUMPI PUSH1 0x4 CALLDATALOAD PUSH1 0x1 DUP1 PUSH1 0xA0 SHL SUB PUSH1 0x7 SLOAD AND CALLER EQ DUP1 ISZERO PUSH2 0x6EF JUMPI JUMPDEST PUSH2 0x651 SWAP1 PUSH2 0x124F JUMP JUMPDEST DUP1 PUSH0 MSTORE PUSH0 PUSH1 0x20 MSTORE PUSH1 0xFF PUSH1 0x6 PUSH1 0x40 PUSH0 KECCAK256 ADD SLOAD AND ISZERO PUSH2 0x6AA JUMPI DUP1 PUSH0 MSTORE PUSH0 PUSH1 0x20 MSTORE PUSH1 0x6 PUSH1 0x40 PUSH0 KECCAK256 ADD PUSH1 0xFF NOT DUP2 SLOAD AND SWAP1 SSTORE PUSH32 0x35E8784E70E18F30E0D262A23D57E3B0B384329E79EEC7566083C2BD2A207AC8 PUSH1 0x20 PUSH1 0x40 MLOAD TIMESTAMP DUP2 MSTORE LOG2 STOP JUMPDEST PUSH1 0x40 MLOAD PUSH3 0x461BCD PUSH1 0xE5 SHL DUP2 MSTORE PUSH1 0x20 PUSH1 0x4 DUP3 ADD MSTORE PUSH1 0x1E PUSH1 0x24 DUP3 ADD MSTORE PUSH32 0x506F6F6C52656769737472793A20416C726561647920696E6163746976650000 PUSH1 0x44 DUP3 ADD MSTORE PUSH1 0x64 SWAP1 REVERT JUMPDEST POP CALLER PUSH0 SWAP1 DUP2 MSTORE PUSH1 0x8 PUSH1 0x20 MSTORE PUSH1 0x40 SWAP1 KECCAK256 SLOAD PUSH1 0xFF AND PUSH2 0x648 JUMP JUMPDEST CALLVALUE PUSH2 0x179 JUMPI PUSH1 0x20 CALLDATASIZE PUSH1 0x3 NOT ADD SLT PUSH2 0x179 JUMPI PUSH1 0x4 CALLDATALOAD PUSH0 MSTORE PUSH1 0x1 PUSH1 0x20 MSTORE PUSH1 0xC0 PUSH1 0x40 PUSH0 KECCAK256 DUP1 SLOAD SWAP1 PUSH1 0x1 DUP2 ADD SLOAD SWAP1 PUSH1 0x2 DUP2 ADD SLOAD PUSH1 0x3 DUP3 ADD SLOAD SWAP1 PUSH1 0x1 PUSH1 0x1 PUSH1 0x80 SHL SUB PUSH1 0x5 PUSH1 0x4 DUP6 ADD SLOAD SWAP5 ADD SLOAD AND SWAP4 PUSH1 0x40 MLOAD SWAP6 DUP7 MSTORE PUSH1 0x20 DUP7 ADD MSTORE PUSH1 0x40 DUP6 ADD MSTORE PUSH1 0x60 DUP5 ADD MSTORE PUSH1 0x80 DUP4 ADD MSTORE PUSH1 0xA0 DUP3 ADD MSTORE RETURN JUMPDEST CALLVALUE PUSH2 0x179 JUMPI PUSH1 0x40 CALLDATASIZE PUSH1 0x3 NOT ADD SLT PUSH2 0x179 JUMPI PUSH2 0x78A PUSH2 0x103A JUMP JUMPDEST PUSH1 0x1 PUSH1 0x1 PUSH1 0xA0 SHL SUB AND PUSH0 SWAP1 DUP2 MSTORE PUSH1 0x4 PUSH1 0x20 MSTORE PUSH1 0x40 SWAP1 KECCAK256 DUP1 SLOAD PUSH1 0x24 CALLDATALOAD SWAP2 SWAP1 DUP3 LT ISZERO PUSH2 0x179 JUMPI PUSH1 0x20 SWAP2 PUSH2 0x24A SWAP2 PUSH2 0x123A JUMP JUMPDEST CALLVALUE PUSH2 0x179 JUMPI PUSH1 0x20 CALLDATASIZE PUSH1 0x3 NOT ADD SLT PUSH2 0x179 JUMPI PUSH1 0x1 PUSH1 0x1 PUSH1 0xA0 SHL SUB PUSH2 0x7DB PUSH2 0x103A JUMP JUMPDEST AND PUSH0 MSTORE PUSH1 0x4 PUSH1 0x20 MSTORE PUSH1 0x40 PUSH0 KECCAK256 PUSH1 0x40 MLOAD SWAP1 DUP2 PUSH1 0x20 DUP3 SLOAD SWAP2 DUP3 DUP2 MSTORE ADD SWAP2 PUSH0 MSTORE PUSH1 0x20 PUSH0 KECCAK256 SWAP1 PUSH0 JUMPDEST DUP2 DUP2 LT PUSH2 0x816 JUMPI PUSH2 0x1E7 DUP6 PUSH2 0x1DB DUP2 DUP8 SUB DUP3 PUSH2 0x10ED JUMP JUMPDEST DUP3 SLOAD DUP5 MSTORE PUSH1 0x20 SWAP1 SWAP4 ADD SWAP3 PUSH1 0x1 SWAP3 DUP4 ADD SWAP3 ADD PUSH2 0x7FF JUMP JUMPDEST CALLVALUE PUSH2 0x179 JUMPI PUSH1 0x60 CALLDATASIZE PUSH1 0x3 NOT ADD SLT PUSH2 0x179 JUMPI PUSH1 0x4 CALLDATALOAD PUSH1 0x24 CALLDATALOAD PUSH8 0xFFFFFFFFFFFFFFFF DUP2 GT PUSH2 0x179 JUMPI PUSH2 0x860 SWAP1 CALLDATASIZE SWAP1 PUSH1 0x4 ADD PUSH2 0x11D3 JUMP JUMPDEST SWAP2 SWAP1 PUSH1 0x44 CALLDATALOAD PUSH8 0xFFFFFFFFFFFFFFFF DUP2 GT PUSH2 0x179 JUMPI PUSH2 0x882 SWAP1 CALLDATASIZE SWAP1 PUSH1 0x4 ADD PUSH2 0x11D3 JUMP JUMPDEST SWAP4 SWAP1 PUSH1 0x1 DUP1 PUSH1 0xA0 SHL SUB PUSH1 0x7 SLOAD AND CALLER EQ DUP1 ISZERO PUSH2 0xB23 JUMPI JUMPDEST PUSH2 0x8A1 SWAP1 PUSH2 0x124F JUMP JUMPDEST DUP4 PUSH0 MSTORE PUSH0 PUSH1 0x20 MSTORE PUSH1 0x3 PUSH1 0x40 PUSH0 KECCAK256 ADD SLOAD ISZERO PUSH2 0xADE JUMPI DUP4 PUSH0 MSTORE PUSH0 PUSH1 0x20 MSTORE PUSH1 0x7 PUSH1 0x40 PUSH0 KECCAK256 ADD PUSH8 0xFFFFFFFFFFFFFFFF DUP4 GT PUSH2 0xA5C JUMPI PUSH2 0x8E6 DUP4 PUSH2 0x8E0 DUP4 SLOAD PUSH2 0x107C JUMP JUMPDEST DUP4 PUSH2 0x1344 JUMP JUMPDEST PUSH0 DUP4 PUSH1 0x1F DUP2 GT PUSH1 0x1 EQ PUSH2 0xA7B JUMPI DUP1 PUSH2 0x912 SWAP3 PUSH0 SWAP2 PUSH2 0xA70 JUMPI JUMPDEST POP DUP2 PUSH1 0x1 SHL SWAP2 PUSH0 NOT SWAP1 PUSH1 0x3 SHL SHR NOT AND OR SWAP1 JUMP JUMPDEST SWAP1 SSTORE JUMPDEST DUP4 PUSH0 MSTORE PUSH0 PUSH1 0x20 MSTORE PUSH1 0x8 PUSH1 0x40 PUSH0 KECCAK256 ADD SWAP5 PUSH8 0xFFFFFFFFFFFFFFFF DUP2 GT PUSH2 0xA5C JUMPI PUSH2 0x947 DUP2 PUSH2 0x941 DUP9 SLOAD PUSH2 0x107C JUMP JUMPDEST DUP9 PUSH2 0x1344 JUMP JUMPDEST PUSH0 SWAP6 PUSH1 0x1F DUP3 GT PUSH1 0x1 EQ PUSH2 0x9D3 JUMPI SWAP1 PUSH2 0x9C3 SWAP3 SWAP2 PUSH2 0x99B DUP3 DUP1 PUSH32 0x61CE440896FBB9EAD9897DC071277C647ADF0FF569C51E91659311377BE192F2 SWAP10 SWAP11 PUSH0 SWAP2 PUSH2 0x9C8 JUMPI POP DUP2 PUSH1 0x1 SHL SWAP2 PUSH0 NOT SWAP1 PUSH1 0x3 SHL SHR NOT AND OR SWAP1 JUMP JUMPDEST SWAP1 SSTORE JUMPDEST PUSH2 0x9B5 PUSH1 0x40 MLOAD SWAP6 DUP7 SWAP6 PUSH1 0x40 DUP8 MSTORE PUSH1 0x40 DUP8 ADD SWAP2 PUSH2 0x1822 JUMP JUMPDEST SWAP2 DUP5 DUP4 SUB PUSH1 0x20 DUP7 ADD MSTORE PUSH2 0x1822 JUMP JUMPDEST SUB SWAP1 LOG2 STOP JUMPDEST SWAP1 POP DUP6 ADD CALLDATALOAD DUP12 PUSH2 0x8FF JUMP JUMPDEST PUSH1 0x1F NOT DUP3 AND DUP2 PUSH0 MSTORE PUSH1 0x20 PUSH0 KECCAK256 SWAP1 PUSH0 JUMPDEST DUP2 DUP2 LT PUSH2 0xA44 JUMPI POP SWAP1 PUSH32 0x61CE440896FBB9EAD9897DC071277C647ADF0FF569C51E91659311377BE192F2 SWAP8 SWAP9 DUP5 PUSH2 0x9C3 SWAP7 SWAP6 SWAP5 SWAP4 LT PUSH2 0xA2B JUMPI JUMPDEST POP POP PUSH1 0x1 DUP3 DUP2 SHL ADD SWAP1 SSTORE PUSH2 0x99E JUMP JUMPDEST DUP5 ADD CALLDATALOAD PUSH0 NOT PUSH1 0x3 DUP6 SWAP1 SHL PUSH1 0xF8 AND SHR NOT AND SWAP1 SSTORE DUP9 DUP1 PUSH2 0xA1C JUMP JUMPDEST DUP6 DUP11 ADD CALLDATALOAD DUP4 SSTORE PUSH1 0x20 SWAP10 DUP11 ADD SWAP10 PUSH1 0x1 SWAP1 SWAP4 ADD SWAP3 ADD PUSH2 0x9E2 JUMP JUMPDEST PUSH4 0x4E487B71 PUSH1 0xE0 SHL PUSH0 MSTORE PUSH1 0x41 PUSH1 0x4 MSTORE PUSH1 0x24 PUSH0 REVERT JUMPDEST SWAP1 POP DUP7 ADD CALLDATALOAD DUP10 PUSH2 0x8FF JUMP JUMPDEST POP PUSH1 0x1F NOT DUP5 AND SWAP1 DUP3 PUSH0 MSTORE DUP5 PUSH1 0x20 PUSH0 KECCAK256 SWAP3 PUSH0 JUMPDEST DUP2 DUP2 LT PUSH2 0xAC3 JUMPI POP LT PUSH2 0xAAA JUMPI JUMPDEST POP POP PUSH1 0x1 DUP4 DUP2 SHL ADD SWAP1 SSTORE PUSH2 0x915 JUMP JUMPDEST DUP6 ADD CALLDATALOAD PUSH0 NOT PUSH1 0x3 DUP7 SWAP1 SHL PUSH1 0xF8 AND SHR NOT AND SWAP1 SSTORE DUP7 DUP1 PUSH2 0xA9B JUMP JUMPDEST DUP9 DUP5 ADD CALLDATALOAD DUP6 SSTORE PUSH1 0x1 SWAP1 SWAP5 ADD SWAP4 PUSH1 0x20 SWAP4 DUP5 ADD SWAP4 DUP9 SWAP4 POP ADD PUSH2 0xA8D JUMP JUMPDEST PUSH1 0x40 MLOAD PUSH3 0x461BCD PUSH1 0xE5 SHL DUP2 MSTORE PUSH1 0x20 PUSH1 0x4 DUP3 ADD MSTORE PUSH1 0x1C PUSH1 0x24 DUP3 ADD MSTORE PUSH32 0x506F6F6C52656769737472793A20506F6F6C206E6F7420666F756E6400000000 PUSH1 0x44 DUP3 ADD MSTORE PUSH1 0x64 SWAP1 REVERT JUMPDEST POP CALLER PUSH0 SWAP1 DUP2 MSTORE PUSH1 0x8 PUSH1 0x20 MSTORE PUSH1 0x40 SWAP1 KECCAK256 SLOAD PUSH1 0xFF AND PUSH2 0x898 JUMP JUMPDEST CALLVALUE PUSH2 0x179 JUMPI PUSH1 0x20 CALLDATASIZE PUSH1 0x3 NOT ADD SLT PUSH2 0x179 JUMPI PUSH1 0x4 CALLDATALOAD PUSH0 MSTORE PUSH0 PUSH1 0x20 MSTORE PUSH1 0x40 PUSH0 KECCAK256 PUSH1 0x1 DUP1 PUSH1 0xA0 SHL SUB DUP2 SLOAD AND PUSH2 0x1E7 PUSH1 0x1 DUP1 PUSH1 0xA0 SHL SUB PUSH1 0x1 DUP5 ADD SLOAD AND SWAP3 PUSH2 0xC05 PUSH1 0x2 DUP3 ADD SLOAD SWAP2 PUSH1 0x3 DUP2 ADD SLOAD PUSH1 0x4 DUP3 ADD SLOAD PUSH1 0x5 DUP4 ADD SLOAD SWAP1 PUSH1 0xFF PUSH1 0x6 DUP6 ADD SLOAD AND SWAP3 PUSH2 0xBAE PUSH1 0x8 PUSH2 0xBA7 PUSH1 0x7 DUP9 ADD PUSH2 0x110F JUMP JUMPDEST SWAP7 ADD PUSH2 0x110F JUMP JUMPDEST SWAP7 PUSH1 0x40 MLOAD SWAP11 DUP12 SWAP11 DUP12 MSTORE PUSH1 0x20 DUP12 ADD MSTORE PUSH1 0x1 DUP1 PUSH1 0xA0 SHL SUB DUP2 AND PUSH1 0x40 DUP12 ADD MSTORE PUSH3 0xFFFFFF PUSH1 0xE8 SHL SWAP1 PUSH1 0x48 SHL AND PUSH1 0x60 DUP11 ADD MSTORE PUSH1 0x80 DUP10 ADD MSTORE PUSH1 0xA0 DUP9 ADD MSTORE PUSH1 0xC0 DUP8 ADD MSTORE ISZERO ISZERO PUSH1 0xE0 DUP7 ADD MSTORE PUSH2 0x140 PUSH2 0x100 DUP7 ADD MSTORE PUSH2 0x140 DUP6 ADD SWAP1 PUSH2 0x11AF JUMP JUMPDEST SWAP1 DUP4 DUP3 SUB PUSH2 0x120 DUP6 ADD MSTORE PUSH2 0x11AF JUMP JUMPDEST CALLVALUE PUSH2 0x179 JUMPI PUSH1 0x40 CALLDATASIZE PUSH1 0x3 NOT ADD SLT PUSH2 0x179 JUMPI PUSH2 0xC2D PUSH2 0x103A JUMP JUMPDEST PUSH1 0x24 CALLDATALOAD DUP1 ISZERO ISZERO DUP2 SUB PUSH2 0x179 JUMPI PUSH2 0xC76 SWAP2 PUSH2 0xC52 PUSH1 0x1 DUP1 PUSH1 0xA0 SHL SUB PUSH1 0x7 SLOAD AND CALLER EQ PUSH2 0x129B JUMP JUMPDEST PUSH1 0x1 DUP1 PUSH1 0xA0 SHL SUB AND PUSH0 MSTORE PUSH1 0x8 PUSH1 0x20 MSTORE PUSH1 0x40 PUSH0 KECCAK256 SWAP1 PUSH1 0xFF DUP1 NOT DUP4 SLOAD AND SWAP2 ISZERO ISZERO AND OR SWAP1 SSTORE JUMP JUMPDEST STOP JUMPDEST CALLVALUE PUSH2 0x179 JUMPI PUSH1 0x40 CALLDATASIZE PUSH1 0x3 NOT ADD SLT PUSH2 0x179 JUMPI PUSH1 0x24 CALLDATALOAD PUSH2 0xCA1 PUSH1 0x1 DUP1 PUSH1 0xA0 SHL SUB PUSH1 0x7 SLOAD AND CALLER EQ PUSH2 0x129B JUMP JUMPDEST PUSH1 0x4 CALLDATALOAD PUSH0 MSTORE PUSH1 0x1 PUSH1 0x20 MSTORE PUSH1 0x4 PUSH1 0x40 PUSH0 KECCAK256 PUSH1 0x1 DUP2 ADD PUSH2 0xCBF DUP2 SLOAD PUSH2 0x12E7 JUMP JUMPDEST SWAP1 SSTORE TIMESTAMP PUSH1 0x2 DUP3 ADD SSTORE DUP3 PUSH1 0x3 DUP3 ADD DUP1 SLOAD DUP3 GT PUSH2 0xCF4 JUMPI JUMPDEST POP POP ADD DUP1 SLOAD DUP3 LT DUP1 PUSH2 0xCEB JUMPI JUMPDEST PUSH2 0xCE8 JUMPI STOP JUMPDEST SSTORE STOP JUMPDEST POP DUP2 ISZERO ISZERO PUSH2 0xCE2 JUMP JUMPDEST SSTORE DUP3 DUP5 PUSH2 0xCD5 JUMP JUMPDEST CALLVALUE PUSH2 0x179 JUMPI PUSH1 0xA0 CALLDATASIZE PUSH1 0x3 NOT ADD SLT PUSH2 0x179 JUMPI PUSH2 0xD15 PUSH2 0x1050 JUMP JUMPDEST PUSH2 0xD1D PUSH2 0x1066 JUMP JUMPDEST SWAP1 PUSH1 0x64 CALLDATALOAD PUSH1 0x1 PUSH1 0x1 PUSH1 0xA0 SHL SUB DUP2 AND DUP2 SUB PUSH2 0x179 JUMPI PUSH1 0x84 CALLDATALOAD SWAP1 PUSH1 0x1 PUSH1 0x1 PUSH1 0xE8 SHL SUB NOT DUP3 AND DUP3 SUB PUSH2 0x179 JUMPI PUSH1 0x20 SWAP4 PUSH2 0xD6A SWAP4 PUSH2 0xD62 PUSH1 0x1 DUP1 PUSH1 0xA0 SHL SUB PUSH1 0x7 SLOAD AND CALLER EQ PUSH2 0x129B JUMP JUMPDEST PUSH1 0x4 CALLDATALOAD PUSH2 0x13CE JUMP JUMPDEST PUSH1 0x40 MLOAD SWAP1 ISZERO ISZERO DUP2 MSTORE RETURN JUMPDEST CALLVALUE PUSH2 0x179 JUMPI PUSH1 0x80 CALLDATASIZE PUSH1 0x3 NOT ADD SLT PUSH2 0x179 JUMPI PUSH2 0xD8D PUSH2 0x103A JUMP JUMPDEST PUSH2 0xD95 PUSH2 0x1050 JUMP JUMPDEST PUSH2 0xD9D PUSH2 0x1066 JUMP JUMPDEST SWAP1 PUSH1 0x64 CALLDATALOAD SWAP1 PUSH1 0x1 PUSH1 0x1 PUSH1 0xE8 SHL SUB NOT DUP3 AND DUP3 SUB PUSH2 0x179 JUMPI PUSH2 0xDCB PUSH2 0xDD9 SWAP3 PUSH1 0x40 MLOAD SWAP5 DUP6 SWAP4 PUSH1 0x20 DUP6 ADD SWAP8 DUP9 PUSH2 0x1302 JUMP JUMPDEST SUB PUSH1 0x1F NOT DUP2 ADD DUP4 MSTORE DUP3 PUSH2 0x10ED JUMP JUMPDEST MLOAD SWAP1 KECCAK256 PUSH0 MSTORE PUSH1 0x2 PUSH1 0x20 MSTORE PUSH1 0x20 PUSH1 0x40 PUSH0 KECCAK256 SLOAD PUSH1 0x40 MLOAD SWAP1 DUP2 MSTORE RETURN JUMPDEST CALLVALUE PUSH2 0x179 JUMPI PUSH1 0x80 CALLDATASIZE PUSH1 0x3 NOT ADD SLT PUSH2 0x179 JUMPI PUSH1 0x4 CALLDATALOAD PUSH1 0x24 CALLDATALOAD PUSH2 0xE1E PUSH1 0x1 DUP1 PUSH1 0xA0 SHL SUB PUSH1 0x7 SLOAD AND CALLER EQ PUSH2 0x129B JUMP JUMPDEST DUP2 PUSH0 MSTORE PUSH1 0x1 PUSH1 0x20 MSTORE PUSH1 0x40 PUSH0 KECCAK256 DUP3 PUSH0 MSTORE PUSH0 PUSH1 0x20 MSTORE PUSH1 0x40 PUSH0 KECCAK256 SWAP1 PUSH2 0xE40 DUP2 SLOAD PUSH2 0x12E7 JUMP JUMPDEST DUP2 SSTORE TIMESTAMP PUSH1 0x2 DUP3 ADD SSTORE PUSH1 0x5 DUP2 ADD DUP1 SLOAD PUSH1 0x1 PUSH1 0x1 PUSH1 0x80 SHL SUB AND DUP1 PUSH2 0xEDD JUMPI POP SWAP1 PUSH1 0x60 SWAP3 SWAP2 PUSH1 0x1 PUSH1 0x1 PUSH1 0x80 SHL SUB DUP1 PUSH32 0xA9AD825C466C695042E8C123D5916C2DBFBF8E45516E3CA4D57E774F54D53A2F SWAP7 AND AND PUSH1 0x1 PUSH1 0x1 PUSH1 0x80 SHL SUB NOT DUP3 SLOAD AND OR SWAP1 SSTORE JUMPDEST PUSH1 0x5 PUSH1 0x4 DUP4 ADD SWAP3 PUSH2 0xEB3 PUSH1 0x44 CALLDATALOAD DUP6 SLOAD PUSH2 0x12F5 JUMP JUMPDEST DUP1 SWAP5 SSTORE ADD SWAP1 PUSH2 0xEC5 PUSH1 0x64 CALLDATALOAD DUP4 SLOAD PUSH2 0x12F5 JUMP JUMPDEST DUP1 SWAP3 SSTORE SLOAD SWAP2 PUSH1 0x40 MLOAD SWAP3 DUP4 MSTORE PUSH1 0x20 DUP4 ADD MSTORE PUSH1 0x40 DUP3 ADD MSTORE LOG2 STOP JUMPDEST SWAP3 SWAP2 SWAP1 PUSH1 0x9 DUP5 MUL SWAP4 DUP5 DIV PUSH1 0x9 SUB PUSH2 0xF3D JUMPI PUSH1 0x1 PUSH1 0x1 PUSH1 0x80 SHL SUB DUP1 PUSH1 0xA PUSH2 0xF26 PUSH32 0xA9AD825C466C695042E8C123D5916C2DBFBF8E45516E3CA4D57E774F54D53A2F SWAP9 PUSH1 0x60 SWAP9 PUSH2 0x12F5 JUMP JUMPDEST DIV AND AND PUSH1 0x1 PUSH1 0x1 PUSH1 0x80 SHL SUB NOT DUP3 SLOAD AND OR SWAP1 SSTORE PUSH2 0xE9F JUMP JUMPDEST PUSH4 0x4E487B71 PUSH1 0xE0 SHL PUSH0 MSTORE PUSH1 0x11 PUSH1 0x4 MSTORE PUSH1 0x24 PUSH0 REVERT JUMPDEST CALLVALUE PUSH2 0x179 JUMPI PUSH1 0x20 CALLDATASIZE PUSH1 0x3 NOT ADD SLT PUSH2 0x179 JUMPI PUSH1 0x4 CALLDATALOAD PUSH1 0x1 DUP1 PUSH1 0xA0 SHL SUB PUSH1 0x7 SLOAD AND CALLER EQ DUP1 ISZERO PUSH2 0x1022 JUMPI JUMPDEST PUSH2 0xF82 SWAP1 PUSH2 0x124F JUMP JUMPDEST DUP1 PUSH0 MSTORE PUSH0 PUSH1 0x20 MSTORE PUSH1 0xFF PUSH1 0x6 PUSH1 0x40 PUSH0 KECCAK256 ADD SLOAD AND PUSH2 0xFDD JUMPI DUP1 PUSH0 MSTORE PUSH0 PUSH1 0x20 MSTORE PUSH1 0x6 PUSH1 0x40 PUSH0 KECCAK256 ADD PUSH1 0x1 PUSH1 0xFF NOT DUP3 SLOAD AND OR SWAP1 SSTORE PUSH32 0xB05047591E05F3336F31E01DC28512FE8438FE3B8E0A9AA189C8E4EE1CEDD0FE PUSH1 0x20 PUSH1 0x40 MLOAD TIMESTAMP DUP2 MSTORE LOG2 STOP JUMPDEST PUSH1 0x40 MLOAD PUSH3 0x461BCD PUSH1 0xE5 SHL DUP2 MSTORE PUSH1 0x20 PUSH1 0x4 DUP3 ADD MSTORE PUSH1 0x1C PUSH1 0x24 DUP3 ADD MSTORE PUSH32 0x506F6F6C52656769737472793A20416C72656164792061637469766500000000 PUSH1 0x44 DUP3 ADD MSTORE PUSH1 0x64 SWAP1 REVERT JUMPDEST POP CALLER PUSH0 SWAP1 DUP2 MSTORE PUSH1 0x8 PUSH1 0x20 MSTORE PUSH1 0x40 SWAP1 KECCAK256 SLOAD PUSH1 0xFF AND PUSH2 0xF79 JUMP JUMPDEST PUSH1 0x4 CALLDATALOAD SWAP1 PUSH1 0x1 PUSH1 0x1 PUSH1 0xA0 SHL SUB DUP3 AND DUP3 SUB PUSH2 0x179 JUMPI JUMP JUMPDEST PUSH1 0x24 CALLDATALOAD SWAP1 PUSH1 0x1 PUSH1 0x1 PUSH1 0xA0 SHL SUB DUP3 AND DUP3 SUB PUSH2 0x179 JUMPI JUMP JUMPDEST PUSH1 0x44 CALLDATALOAD SWAP1 PUSH1 0x1 PUSH1 0x1 PUSH1 0xA0 SHL SUB DUP3 AND DUP3 SUB PUSH2 0x179 JUMPI JUMP JUMPDEST SWAP1 PUSH1 0x1 DUP3 DUP2 SHR SWAP3 AND DUP1 ISZERO PUSH2 0x10AA JUMPI JUMPDEST PUSH1 0x20 DUP4 LT EQ PUSH2 0x1096 JUMPI JUMP JUMPDEST PUSH4 0x4E487B71 PUSH1 0xE0 SHL PUSH0 MSTORE PUSH1 0x22 PUSH1 0x4 MSTORE PUSH1 0x24 PUSH0 REVERT JUMPDEST SWAP2 PUSH1 0x7F AND SWAP2 PUSH2 0x108B JUMP JUMPDEST PUSH2 0x140 DUP2 ADD SWAP1 DUP2 LT PUSH8 0xFFFFFFFFFFFFFFFF DUP3 GT OR PUSH2 0xA5C JUMPI PUSH1 0x40 MSTORE JUMP JUMPDEST PUSH1 0xC0 DUP2 ADD SWAP1 DUP2 LT PUSH8 0xFFFFFFFFFFFFFFFF DUP3 GT OR PUSH2 0xA5C JUMPI PUSH1 0x40 MSTORE JUMP JUMPDEST SWAP1 PUSH1 0x1F DUP1 NOT SWAP2 ADD AND DUP2 ADD SWAP1 DUP2 LT PUSH8 0xFFFFFFFFFFFFFFFF DUP3 GT OR PUSH2 0xA5C JUMPI PUSH1 0x40 MSTORE JUMP JUMPDEST SWAP1 PUSH1 0x40 MLOAD SWAP2 DUP3 PUSH0 DUP3 SLOAD SWAP3 PUSH2 0x1122 DUP5 PUSH2 0x107C JUMP JUMPDEST DUP1 DUP5 MSTORE SWAP4 PUSH1 0x1 DUP2 AND SWAP1 DUP2 ISZERO PUSH2 0x118D JUMPI POP PUSH1 0x1 EQ PUSH2 0x1149 JUMPI JUMPDEST POP PUSH2 0x1147 SWAP3 POP SUB DUP4 PUSH2 0x10ED JUMP JUMPDEST JUMP JUMPDEST SWAP1 POP PUSH0 SWAP3 SWAP2 SWAP3 MSTORE PUSH1 0x20 PUSH0 KECCAK256 SWAP1 PUSH0 SWAP2 JUMPDEST DUP2 DUP4 LT PUSH2 0x1171 JUMPI POP POP SWAP1 PUSH1 0x20 PUSH2 0x1147 SWAP3 DUP3 ADD ADD PUSH0 PUSH2 0x113A JUMP JUMPDEST PUSH1 0x20 SWAP2 SWAP4 POP DUP1 PUSH1 0x1 SWAP2 SLOAD DUP4 DUP6 DUP10 ADD ADD MSTORE ADD SWAP2 ADD SWAP1 SWAP2 DUP5 SWAP3 PUSH2 0x1158 JUMP JUMPDEST SWAP1 POP PUSH1 0x20 SWAP3 POP PUSH2 0x1147 SWAP5 SWAP2 POP PUSH1 0xFF NOT AND DUP3 DUP5 ADD MSTORE ISZERO ISZERO PUSH1 0x5 SHL DUP3 ADD ADD PUSH0 PUSH2 0x113A JUMP JUMPDEST DUP1 MLOAD DUP1 DUP4 MSTORE PUSH1 0x20 SWAP3 SWAP2 DUP2 SWAP1 DUP5 ADD DUP5 DUP5 ADD MCOPY PUSH0 DUP3 DUP3 ADD DUP5 ADD MSTORE PUSH1 0x1F ADD PUSH1 0x1F NOT AND ADD ADD SWAP1 JUMP JUMPDEST SWAP2 DUP2 PUSH1 0x1F DUP5 ADD SLT ISZERO PUSH2 0x179 JUMPI DUP3 CALLDATALOAD SWAP2 PUSH8 0xFFFFFFFFFFFFFFFF DUP4 GT PUSH2 0x179 JUMPI PUSH1 0x20 DUP4 DUP2 DUP7 ADD SWAP6 ADD ADD GT PUSH2 0x179 JUMPI JUMP JUMPDEST PUSH1 0x20 PUSH1 0x40 DUP2 DUP4 ADD SWAP3 DUP3 DUP2 MSTORE DUP5 MLOAD DUP1 SWAP5 MSTORE ADD SWAP3 ADD SWAP1 PUSH0 JUMPDEST DUP2 DUP2 LT PUSH2 0x1224 JUMPI POP POP POP SWAP1 JUMP JUMPDEST DUP3 MLOAD DUP5 MSTORE PUSH1 0x20 SWAP4 DUP5 ADD SWAP4 SWAP1 SWAP3 ADD SWAP2 PUSH1 0x1 ADD PUSH2 0x1217 JUMP JUMPDEST DUP1 SLOAD DUP3 LT ISZERO PUSH2 0x165 JUMPI PUSH0 MSTORE PUSH1 0x20 PUSH0 KECCAK256 ADD SWAP1 PUSH0 SWAP1 JUMP JUMPDEST ISZERO PUSH2 0x1256 JUMPI JUMP JUMPDEST PUSH1 0x40 MLOAD PUSH3 0x461BCD PUSH1 0xE5 SHL DUP2 MSTORE PUSH1 0x20 PUSH1 0x4 DUP3 ADD MSTORE PUSH1 0x1C PUSH1 0x24 DUP3 ADD MSTORE PUSH32 0x506F6F6C52656769737472793A204E6F7420617574686F72697A656400000000 PUSH1 0x44 DUP3 ADD MSTORE PUSH1 0x64 SWAP1 REVERT JUMPDEST ISZERO PUSH2 0x12A2 JUMPI JUMP JUMPDEST PUSH1 0x40 MLOAD PUSH3 0x461BCD PUSH1 0xE5 SHL DUP2 MSTORE PUSH1 0x20 PUSH1 0x4 DUP3 ADD MSTORE PUSH1 0x1D PUSH1 0x24 DUP3 ADD MSTORE PUSH32 0x506F6F6C52656769737472793A204E6F7420506F6F6C4D616E61676572000000 PUSH1 0x44 DUP3 ADD MSTORE PUSH1 0x64 SWAP1 REVERT JUMPDEST PUSH0 NOT DUP2 EQ PUSH2 0xF3D JUMPI PUSH1 0x1 ADD SWAP1 JUMP JUMPDEST SWAP2 SWAP1 DUP3 ADD DUP1 SWAP3 GT PUSH2 0xF3D JUMPI JUMP JUMPDEST PUSH1 0x60 SWAP2 DUP3 SHL PUSH12 0xFFFFFFFFFFFFFFFFFFFFFFFF NOT SWAP1 DUP2 AND DUP3 MSTORE SWAP3 DUP3 SHL DUP4 AND PUSH1 0x14 DUP3 ADD MSTORE SWAP3 SWAP1 SHL AND PUSH1 0x28 DUP3 ADD MSTORE PUSH1 0x1 PUSH1 0x1 PUSH1 0xE8 SHL SUB NOT SWAP1 SWAP2 AND PUSH1 0x3C DUP3 ADD MSTORE PUSH1 0x3F ADD SWAP1 JUMP JUMPDEST PUSH1 0x1F DUP3 GT PUSH2 0x1351 JUMPI POP POP POP JUMP JUMPDEST PUSH0 MSTORE PUSH1 0x20 PUSH0 KECCAK256 SWAP1 PUSH1 0x20 PUSH1 0x1F DUP5 ADD PUSH1 0x5 SHR DUP4 ADD SWAP4 LT PUSH2 0x1389 JUMPI JUMPDEST PUSH1 0x1F ADD PUSH1 0x5 SHR ADD SWAP1 JUMPDEST DUP2 DUP2 LT PUSH2 0x137E JUMPI POP POP JUMP JUMPDEST PUSH0 DUP2 SSTORE PUSH1 0x1 ADD PUSH2 0x1373 JUMP JUMPDEST SWAP1 SWAP2 POP DUP2 SWAP1 PUSH2 0x136A JUMP JUMPDEST SWAP1 DUP2 SLOAD SWAP2 PUSH1 0x1 PUSH1 0x40 SHL DUP4 LT ISZERO PUSH2 0xA5C JUMPI DUP3 PUSH2 0x13B6 SWAP2 PUSH1 0x1 PUSH2 0x1147 SWAP6 ADD DUP2 SSTORE PUSH2 0x123A JUMP JUMPDEST SWAP1 SWAP2 SWAP1 DUP3 SLOAD SWAP1 PUSH1 0x3 SHL SWAP2 DUP3 SHL SWAP2 PUSH0 NOT SWAP1 SHL NOT AND OR SWAP1 SSTORE JUMP JUMPDEST SWAP2 DUP3 PUSH0 MSTORE PUSH0 PUSH1 0x20 MSTORE PUSH1 0x3 PUSH1 0x40 PUSH0 KECCAK256 ADD SLOAD PUSH2 0x1819 JUMPI PUSH1 0x40 MLOAD SWAP2 PUSH2 0x13EF DUP4 PUSH2 0x10B4 JUMP JUMPDEST PUSH1 0x1 DUP1 PUSH1 0xA0 SHL SUB DUP2 AND SWAP5 DUP6 DUP5 MSTORE PUSH1 0x20 DUP5 ADD SWAP3 PUSH1 0x1 DUP1 PUSH1 0xA0 SHL SUB DUP2 AND SWAP8 DUP9 DUP6 MSTORE DUP7 PUSH1 0x40 DUP8 ADD SWAP7 PUSH1 0x1 DUP1 PUSH1 0xA0 SHL SUB DUP6 AND SWAP7 DUP8 DUP10 MSTORE PUSH2 0x1521 PUSH1 0x60 DUP4 ADD PUSH3 0xFFFFFF PUSH1 0xE8 SHL DUP7 AND SWAP11 DUP12 DUP3 MSTORE PUSH1 0x80 DUP6 ADD TIMESTAMP DUP2 MSTORE PUSH1 0xA0 DUP7 ADD SWAP1 PUSH0 DUP3 MSTORE PUSH1 0xC0 DUP8 ADD SWAP3 PUSH0 DUP5 MSTORE PUSH1 0xE0 DUP9 ADD SWAP5 PUSH1 0x1 DUP7 MSTORE PUSH1 0x40 MLOAD SWAP8 PUSH2 0x1464 PUSH1 0x20 DUP11 PUSH2 0x10ED JUMP JUMPDEST PUSH0 DUP10 MSTORE PUSH2 0x100 DUP11 ADD SWAP9 DUP10 MSTORE PUSH1 0x40 MLOAD SWAP11 PUSH2 0x147E PUSH1 0x20 DUP14 PUSH2 0x10ED JUMP JUMPDEST PUSH0 DUP1 DUP14 MSTORE PUSH2 0x120 DUP13 ADD SWAP13 DUP14 MSTORE SWAP1 DUP2 MSTORE PUSH1 0x20 DUP2 SWAP1 MSTORE PUSH1 0x40 SWAP1 KECCAK256 SWAP10 MLOAD DUP11 SLOAD PUSH1 0x1 PUSH1 0x1 PUSH1 0xA0 SHL SUB SWAP2 DUP3 AND PUSH1 0x1 PUSH1 0x1 PUSH1 0xA0 SHL SUB NOT SWAP2 DUP3 AND OR DUP13 SSTORE SWAP2 MLOAD PUSH1 0x1 DUP13 ADD DUP1 SLOAD SWAP2 DUP4 AND SWAP2 SWAP1 SWAP4 AND OR SWAP1 SWAP2 SSTORE SWAP2 MLOAD PUSH1 0x2 DUP11 ADD DUP1 SLOAD SWAP3 MLOAD PUSH3 0xFFFFFF PUSH1 0xA0 SHL PUSH1 0x48 SWAP2 SWAP1 SWAP2 SHR AND SWAP2 SWAP1 SWAP4 AND PUSH1 0x1 PUSH1 0x1 PUSH1 0xB8 SHL SUB NOT SWAP1 SWAP3 AND SWAP2 SWAP1 SWAP2 OR OR SWAP1 SSTORE MLOAD PUSH1 0x3 DUP8 ADD SSTORE MLOAD PUSH1 0x4 DUP7 ADD SSTORE MLOAD PUSH1 0x5 DUP6 ADD SSTORE MLOAD PUSH1 0x6 DUP5 ADD DUP1 SLOAD PUSH1 0xFF NOT AND SWAP2 ISZERO ISZERO PUSH1 0xFF AND SWAP2 SWAP1 SWAP2 OR SWAP1 SSTORE JUMP JUMPDEST MLOAD DUP1 MLOAD PUSH1 0x7 DUP4 ADD SWAP2 PUSH8 0xFFFFFFFFFFFFFFFF DUP3 GT PUSH2 0xA5C JUMPI PUSH2 0x154C DUP3 PUSH2 0x1546 DUP6 SLOAD PUSH2 0x107C JUMP JUMPDEST DUP6 PUSH2 0x1344 JUMP JUMPDEST PUSH1 0x20 SWAP1 PUSH1 0x1F DUP4 GT PUSH1 0x1 EQ PUSH2 0x17B2 JUMPI SWAP2 DUP1 PUSH2 0x1580 SWAP3 PUSH1 0x8 SWAP7 SWAP6 SWAP5 PUSH0 SWAP3 PUSH2 0x173B JUMPI JUMPDEST POP POP DUP2 PUSH1 0x1 SHL SWAP2 PUSH0 NOT SWAP1 PUSH1 0x3 SHL SHR NOT AND OR SWAP1 JUMP JUMPDEST SWAP1 SSTORE JUMPDEST ADD SWAP1 MLOAD DUP1 MLOAD SWAP1 PUSH8 0xFFFFFFFFFFFFFFFF DUP3 GT PUSH2 0xA5C JUMPI PUSH2 0x15A6 DUP3 PUSH2 0x1546 DUP6 SLOAD PUSH2 0x107C JUMP JUMPDEST PUSH1 0x20 SWAP1 PUSH1 0x1F DUP4 GT PUSH1 0x1 EQ PUSH2 0x1746 JUMPI DUP3 PUSH2 0x1670 SWAP7 SWAP6 SWAP4 PUSH2 0xDCB SWAP6 SWAP4 PUSH2 0x15DE SWAP4 PUSH0 SWAP3 PUSH2 0x173B JUMPI POP POP DUP2 PUSH1 0x1 SHL SWAP2 PUSH0 NOT SWAP1 PUSH1 0x3 SHL SHR NOT AND OR SWAP1 JUMP JUMPDEST SWAP1 SSTORE JUMPDEST PUSH1 0x40 MLOAD PUSH2 0x15ED DUP2 PUSH2 0x10D1 JUMP JUMPDEST PUSH0 DUP2 MSTORE PUSH1 0x1 PUSH1 0x1 PUSH1 0x80 SHL SUB PUSH1 0x5 DUP2 DUP13 PUSH1 0x20 DUP6 ADD PUSH0 DUP2 MSTORE PUSH1 0x40 DUP7 ADD TIMESTAMP DUP2 MSTORE PUSH1 0x60 DUP8 ADD SWAP1 PUSH0 DUP3 MSTORE PUSH1 0x80 DUP9 ADD SWAP3 PUSH0 NOT DUP5 MSTORE PUSH1 0xA0 DUP10 ADD SWAP5 PUSH0 DUP7 MSTORE PUSH0 MSTORE PUSH1 0x1 PUSH1 0x20 MSTORE PUSH1 0x40 PUSH0 KECCAK256 SWAP9 MLOAD DUP10 SSTORE MLOAD PUSH1 0x1 DUP10 ADD SSTORE MLOAD PUSH1 0x2 DUP9 ADD SSTORE MLOAD PUSH1 0x3 DUP8 ADD SSTORE MLOAD PUSH1 0x4 DUP7 ADD SSTORE MLOAD AND SWAP3 ADD SWAP2 AND PUSH1 0x1 PUSH1 0x1 PUSH1 0x80 SHL SUB NOT DUP3 SLOAD AND OR SWAP1 SSTORE PUSH1 0x40 MLOAD SWAP5 DUP6 SWAP4 PUSH1 0x20 DUP6 ADD SWAP8 DUP9 PUSH2 0x1302 JUMP JUMPDEST MLOAD SWAP1 KECCAK256 PUSH0 MSTORE PUSH1 0x2 PUSH1 0x20 MSTORE DUP3 PUSH1 0x40 PUSH0 KECCAK256 SSTORE DUP4 PUSH0 MSTORE PUSH1 0x3 PUSH1 0x20 MSTORE PUSH2 0x1695 DUP4 PUSH1 0x40 PUSH0 KECCAK256 PUSH2 0x1393 JUMP JUMPDEST DUP4 DUP6 SUB PUSH2 0x1721 JUMPI JUMPDEST DUP1 PUSH0 MSTORE PUSH1 0x4 PUSH1 0x20 MSTORE PUSH2 0x16B2 DUP4 PUSH1 0x40 PUSH0 KECCAK256 PUSH2 0x1393 JUMP JUMPDEST PUSH1 0x6 SLOAD SWAP1 PUSH1 0x1 PUSH1 0x40 SHL DUP3 LT ISZERO PUSH2 0xA5C JUMPI PUSH32 0x69B97470FF43D2D8913D41C9FE539897945B5AE1943643AD4B8302EA38C1D842 SWAP3 PUSH2 0x16FC DUP6 PUSH2 0x13B6 DUP6 PUSH1 0x1 PUSH1 0x60 SWAP8 ADD PUSH1 0x6 SSTORE PUSH1 0x6 PUSH2 0x123A JUMP JUMPDEST PUSH2 0x1707 PUSH1 0x5 SLOAD PUSH2 0x12E7 JUMP JUMPDEST PUSH1 0x5 SSTORE PUSH1 0x40 MLOAD SWAP2 DUP3 MSTORE PUSH1 0x20 DUP3 ADD MSTORE TIMESTAMP PUSH1 0x40 DUP3 ADD MSTORE LOG4 PUSH1 0x1 SWAP1 JUMP JUMPDEST DUP5 PUSH0 MSTORE PUSH1 0x3 PUSH1 0x20 MSTORE PUSH2 0x1736 DUP4 PUSH1 0x40 PUSH0 KECCAK256 PUSH2 0x1393 JUMP JUMPDEST PUSH2 0x169D JUMP JUMPDEST ADD MLOAD SWAP1 POP PUSH0 DUP1 PUSH2 0x156C JUMP JUMPDEST SWAP1 PUSH1 0x1F NOT DUP4 AND SWAP2 DUP5 PUSH0 MSTORE DUP2 PUSH0 KECCAK256 SWAP3 PUSH0 JUMPDEST DUP2 DUP2 LT PUSH2 0x179A JUMPI POP SWAP3 PUSH1 0x1 SWAP3 DUP6 SWAP3 PUSH2 0x1670 SWAP10 SWAP9 SWAP7 PUSH2 0xDCB SWAP9 SWAP7 LT PUSH2 0x1782 JUMPI JUMPDEST POP POP POP DUP2 SHL ADD SWAP1 SSTORE PUSH2 0x15E1 JUMP JUMPDEST ADD MLOAD PUSH0 NOT PUSH1 0xF8 DUP5 PUSH1 0x3 SHL AND SHR NOT AND SWAP1 SSTORE PUSH0 DUP1 DUP1 PUSH2 0x1775 JUMP JUMPDEST SWAP3 SWAP4 PUSH1 0x20 PUSH1 0x1 DUP2 SWAP3 DUP8 DUP7 ADD MLOAD DUP2 SSTORE ADD SWAP6 ADD SWAP4 ADD PUSH2 0x1756 JUMP JUMPDEST SWAP1 PUSH1 0x1F NOT DUP4 AND SWAP2 DUP5 PUSH0 MSTORE DUP2 PUSH0 KECCAK256 SWAP3 PUSH0 JUMPDEST DUP2 DUP2 LT PUSH2 0x1801 JUMPI POP SWAP2 PUSH1 0x1 SWAP4 SWAP2 DUP6 PUSH1 0x8 SWAP9 SWAP8 SWAP7 SWAP5 LT PUSH2 0x17E9 JUMPI JUMPDEST POP POP POP DUP2 SHL ADD SWAP1 SSTORE PUSH2 0x1583 JUMP JUMPDEST ADD MLOAD PUSH0 NOT PUSH1 0xF8 DUP5 PUSH1 0x3 SHL AND SHR NOT AND SWAP1 SSTORE PUSH0 DUP1 DUP1 PUSH2 0x17DC JUMP JUMPDEST SWAP3 SWAP4 PUSH1 0x20 PUSH1 0x1 DUP2 SWAP3 DUP8 DUP7 ADD MLOAD DUP2 SSTORE ADD SWAP6 ADD SWAP4 ADD PUSH2 0x17C2 JUMP JUMPDEST POP POP POP POP POP PUSH0 SWAP1 JUMP JUMPDEST SWAP1 DUP1 PUSH1 0x20 SWAP4 SWAP3 DUP2 DUP5 MSTORE DUP5 DUP5 ADD CALLDATACOPY PUSH0 DUP3 DUP3 ADD DUP5 ADD MSTORE PUSH1 0x1F ADD PUSH1 0x1F NOT AND ADD ADD SWAP1 JUMP INVALID LOG2 PUSH5 0x6970667358 0x22 SLT KECCAK256 TLOAD 0xBE 0xBE CALLDATALOAD PUSH1 0xFF 0xC1 0xEB SWAP13 0x22 BASEFEE PUSH8 0xAE1922E4C5951E8A SWAPN 0x37 PUSH27 0x4E92942DAC8759D1D664736F6C634300081E003300000000000000 "},"methodIdentifiers":{"allPoolIds(uint256)":"fcb72a9c","authorized(address)":"b9181611","deactivatePool(uint256)":"9abd9b05","getAllPoolIds()":"f19c3d5b","getPoolByKey(address,address,address,bytes3)":"56a80934","getPoolDetails(uint256)":"b8764c39","getPoolsByAsset(address)":"b4340e6a","getPoolsByQuoter(address)":"887bbdd2","isPoolActive(uint256)":"bbbaf8c8","poolLookup(bytes32)":"ac5a9d97","poolManager()":"dc4c90d3","poolMetadata(uint256)":"8534fb46","poolStatistics(uint256)":"904a66ca","poolsByAsset(address,uint256)":"e9b3d220","poolsByQuoter(address,uint256)":"8eeabc36","reactivatePool(uint256)":"1c50f933","recordLiquidityEvent(uint256,uint256)":"61038679","recordSwap(uint256,uint256,uint256,uint256)":"40c415e9","registerPool(uint256,address,address,address,bytes3)":"57739c23","setAuthorized(address,bool)":"711bf9b2","totalPools()":"ab3c7e52","updatePoolMetadata(uint256,string,string)":"86412587"}}}}}