{"contracts/Core/security/MEVProtection.sol":{"MEVProtection":{"abi":[{"inputs":[{"internalType":"address","name":"_poolManager","type":"address"}],"stateMutability":"nonpayable","type":"constructor"},{"anonymous":false,"inputs":[{"indexed":true,"internalType":"uint256","name":"poolId","type":"uint256"},{"indexed":false,"internalType":"uint256","name":"baseFee","type":"uint256"},{"indexed":false,"internalType":"uint256","name":"surgeFee","type":"uint256"},{"indexed":false,"internalType":"uint256","name":"totalFee","type":"uint256"}],"name":"DynamicFeeApplied","type":"event"},{"anonymous":false,"inputs":[{"indexed":true,"internalType":"uint256","name":"poolId","type":"uint256"},{"indexed":true,"internalType":"uint256","name":"orderId","type":"uint256"},{"indexed":false,"internalType":"uint256","name":"startPrice","type":"uint256"},{"indexed":false,"internalType":"uint256","name":"endPrice","type":"uint256"}],"name":"GradualOrderCreated","type":"event"},{"anonymous":false,"inputs":[{"indexed":true,"internalType":"uint256","name":"poolId","type":"uint256"},{"indexed":false,"internalType":"uint8","name":"protectionLevel","type":"uint8"},{"indexed":false,"internalType":"uint256","name":"threshold","type":"uint256"},{"indexed":false,"internalType":"string","name":"description","type":"string"}],"name":"MEVConfigSet","type":"event"},{"anonymous":false,"inputs":[{"indexed":true,"internalType":"uint256","name":"poolId","type":"uint256"},{"indexed":true,"internalType":"address","name":"suspectedAttacker","type":"address"},{"indexed":false,"internalType":"uint256","name":"suspicionScore","type":"uint256"}],"name":"SandwichAttackDetected","type":"event"},{"anonymous":false,"inputs":[{"indexed":true,"internalType":"uint256","name":"poolId","type":"uint256"},{"indexed":true,"internalType":"address","name":"trader","type":"address"},{"indexed":false,"internalType":"bytes32","name":"commitHash","type":"bytes32"},{"indexed":false,"internalType":"uint256","name":"revealDeadline","type":"uint256"}],"name":"TradeCommitted","type":"event"},{"anonymous":false,"inputs":[{"indexed":true,"internalType":"uint256","name":"poolId","type":"uint256"},{"indexed":true,"internalType":"address","name":"trader","type":"address"},{"indexed":false,"internalType":"uint256","name":"amountIn","type":"uint256"},{"indexed":false,"internalType":"uint256","name":"amountOut","type":"uint256"}],"name":"TradeRevealed","type":"event"},{"inputs":[{"internalType":"uint256","name":"poolId","type":"uint256"},{"internalType":"address","name":"trader","type":"address"}],"name":"canTrade","outputs":[{"internalType":"bool","name":"allowed","type":"bool"},{"internalType":"uint256","name":"timeRemaining","type":"uint256"}],"stateMutability":"view","type":"function"},{"inputs":[{"internalType":"uint256","name":"poolId","type":"uint256"},{"internalType":"address","name":"trader","type":"address"},{"internalType":"uint256","name":"amountIn","type":"uint256"},{"internalType":"bool","name":"isLargeTrade","type":"bool"}],"name":"checkTradeProtection","outputs":[{"internalType":"bool","name":"needsProtection","type":"bool"},{"internalType":"uint8","name":"protectionType","type":"uint8"},{"internalType":"uint256","name":"adjustedFee","type":"uint256"}],"stateMutability":"view","type":"function"},{"inputs":[{"internalType":"uint256","name":"poolId","type":"uint256"},{"internalType":"bytes32","name":"commitHash","type":"bytes32"}],"name":"commitTrade","outputs":[{"internalType":"uint256","name":"revealDeadline","type":"uint256"}],"stateMutability":"nonpayable","type":"function"},{"inputs":[{"internalType":"uint256","name":"","type":"uint256"},{"internalType":"address","name":"","type":"address"}],"name":"commitments","outputs":[{"internalType":"bytes32","name":"commitHash","type":"bytes32"},{"internalType":"uint256","name":"commitBlock","type":"uint256"},{"internalType":"address","name":"trader","type":"address"},{"internalType":"uint256","name":"deadline","type":"uint256"}],"stateMutability":"view","type":"function"},{"inputs":[{"internalType":"uint256","name":"poolId","type":"uint256"},{"internalType":"uint8","name":"level","type":"uint8"},{"internalType":"uint256","name":"threshold","type":"uint256"}],"name":"configurePoolProtection","outputs":[],"stateMutability":"nonpayable","type":"function"},{"inputs":[{"internalType":"uint256","name":"poolId","type":"uint256"},{"internalType":"uint256","name":"amountIn","type":"uint256"},{"internalType":"uint256","name":"startPrice","type":"uint256"},{"internalType":"uint256","name":"endPrice","type":"uint256"}],"name":"createGradualOrder","outputs":[{"internalType":"uint256","name":"orderId","type":"uint256"}],"stateMutability":"nonpayable","type":"function"},{"inputs":[{"internalType":"uint256","name":"poolId","type":"uint256"},{"internalType":"address","name":"trader","type":"address"},{"internalType":"uint256","name":"amountIn","type":"uint256"},{"internalType":"bool","name":"isBuy","type":"bool"}],"name":"detectSandwichPattern","outputs":[{"internalType":"bool","name":"suspected","type":"bool"}],"stateMutability":"nonpayable","type":"function"},{"inputs":[{"internalType":"uint256","name":"poolId","type":"uint256"},{"internalType":"uint256","name":"orderId","type":"uint256"}],"name":"getCurrentGradualPrice","outputs":[{"internalType":"uint256","name":"currentPrice","type":"uint256"}],"stateMutability":"view","type":"function"},{"inputs":[{"internalType":"uint256","name":"poolId","type":"uint256"}],"name":"getPoolMEVConfig","outputs":[{"internalType":"uint8","name":"protectionLevel","type":"uint8"},{"internalType":"string","name":"description","type":"string"},{"internalType":"uint256","name":"estimatedGasOverhead","type":"uint256"},{"internalType":"uint256","name":"currentFee","type":"uint256"}],"stateMutability":"view","type":"function"},{"inputs":[{"internalType":"uint256","name":"","type":"uint256"},{"internalType":"uint256","name":"","type":"uint256"}],"name":"gradualOrders","outputs":[{"internalType":"uint256","name":"startPrice","type":"uint256"},{"internalType":"uint256","name":"endPrice","type":"uint256"},{"internalType":"uint256","name":"startBlock","type":"uint256"},{"internalType":"uint256","name":"endBlock","type":"uint256"},{"internalType":"uint256","name":"amountRemaining","type":"uint256"}],"stateMutability":"view","type":"function"},{"inputs":[{"internalType":"uint256","name":"poolId","type":"uint256"}],"name":"hasProtection","outputs":[{"internalType":"bool","name":"","type":"bool"}],"stateMutability":"view","type":"function"},{"inputs":[{"internalType":"uint256","name":"poolId","type":"uint256"},{"internalType":"address","name":"trader","type":"address"}],"name":"isWhitelisted","outputs":[{"internalType":"bool","name":"","type":"bool"}],"stateMutability":"view","type":"function"},{"inputs":[],"name":"nextOrderId","outputs":[{"internalType":"uint256","name":"","type":"uint256"}],"stateMutability":"view","type":"function"},{"inputs":[{"internalType":"uint256","name":"","type":"uint256"}],"name":"poolConfigs","outputs":[{"internalType":"uint8","name":"protectionLevel","type":"uint8"},{"internalType":"uint256","name":"largeTradeThreshold","type":"uint256"},{"internalType":"uint256","name":"baseFee","type":"uint256"},{"internalType":"uint256","name":"surgeFee","type":"uint256"},{"internalType":"uint256","name":"commitRevealDelay","type":"uint256"},{"internalType":"uint256","name":"gradualFillBlocks","type":"uint256"},{"internalType":"uint256","name":"timeLockPeriod","type":"uint256"}],"stateMutability":"view","type":"function"},{"inputs":[],"name":"poolManager","outputs":[{"internalType":"address","name":"","type":"address"}],"stateMutability":"view","type":"function"},{"inputs":[{"internalType":"uint256","name":"poolId","type":"uint256"},{"internalType":"uint256","name":"baseFee","type":"uint256"},{"internalType":"uint256","name":"surgeFee","type":"uint256"},{"internalType":"uint256","name":"commitDelay","type":"uint256"},{"internalType":"uint256","name":"gradualBlocks","type":"uint256"},{"internalType":"uint256","name":"timeLock","type":"uint256"}],"name":"setCustomParameters","outputs":[],"stateMutability":"nonpayable","type":"function"},{"inputs":[{"internalType":"uint256","name":"poolId","type":"uint256"},{"internalType":"address[]","name":"addresses","type":"address[]"},{"internalType":"bool","name":"add","type":"bool"}],"name":"updateWhitelist","outputs":[],"stateMutability":"nonpayable","type":"function"},{"inputs":[{"internalType":"uint256","name":"poolId","type":"uint256"},{"internalType":"address","name":"trader","type":"address"},{"internalType":"uint256","name":"amountIn","type":"uint256"},{"internalType":"bool","name":"zeroForOne","type":"bool"},{"internalType":"uint256","name":"minAmountOut","type":"uint256"},{"internalType":"uint256","name":"nonce","type":"uint256"}],"name":"verifyAndReveal","outputs":[{"internalType":"bool","name":"valid","type":"bool"}],"stateMutability":"view","type":"function"}],"evm":{"bytecode":{"linkReferences":{},"object":"60a03461008657601f611a2238819003918201601f19168301916001600160401b0383118484101761008a5780849260209460405283398101031261008657516001600160a01b038116810361008657608052604051611983908161009f82396080518181816101c1015281816102060152818161046501528181610a7c0152610d720152f35b5f80fd5b634e487b7160e01b5f52604160045260245ffdfe60806040526004361015610011575f80fd5b5f3560e01c806303bf6a7214610f595780630f5ba21714610eec5780632a58b33014610ecf578063301e3ecb14610d0d57806353ec34a414610b3b578063560903e514610b0d5780636e45f43814610a565780637d22c35c14610a2657806387184999146107385780639326b63314610704578063951b70a3146105335780639cbe6cd11461040e578063a8cc4f6e146103d8578063ab17e604146103b7578063d96edd2d146101f0578063dc4c90d3146101ac578063e90d4c061461013e5763f552771a146100df575f80fd5b3461013a576100ed36611127565b905f52600260205260405f20905f5260205260a060405f20805490600181015490600281015460046003830154920154926040519485526020850152604084015260608301526080820152f35b5f80fd5b3461013a57604036600319011261013a576101576110b6565b6004355f52600160205260405f209060018060a01b03165f52602052608060405f20805490600181015490600360018060a01b0360028301541691015491604051938452602084015260408301526060820152f35b3461013a575f36600319011261013a576040517f00000000000000000000000000000000000000000000000000000000000000006001600160a01b03168152602090f35b3461013a576101fe366110f0565b5091610234337f00000000000000000000000000000000000000000000000000000000000000006001600160a01b0316146111b4565b805f52600460205260405f2092600384019360018060a01b0384165f5284602052601e61026560405f205442611326565b1061039f575b60018101948554431480610382575b61036a575b815492600984029380850460091490151715610340576102a3600a9160029561120b565b04825543865560018060a01b0385165f5260205260405f204290550180549384159081159081610354575b5061032e575b506020935054906005821192836102f1575b505050604051908152f35b6040519283526001600160a01b0316917f1ca8130a6ac08a7d79eff185ffd91619a3aada50d0cddb4f870b4da14f0f8a4e908590a38280806102e6565b610340576020935f19018155846102d4565b634e487b7160e01b5f52601160045260245ffd5b905054600a8101809111610340574311866102ce565b6002820180549060028201809211610340575561027f565b5081548060011b908082046002149015171561034057831161027a565b6002810180549060038201809211610340575561026b565b3461013a5760206103d06103ca36611127565b90611706565b604051908152f35b3461013a57606060ff6103f66103ed366110f0565b9290915061144e565b91929060405193151584521660208301526040820152f35b3461013a57606036600319011261013a5760043560243560ff81169081810361013a577fc13b7d179e63fcf1dac77ebeda85633a8f31fdf01f64f4b859ba8d972fa0d99491604435916104f6906104d890610493337f00000000000000000000000000000000000000000000000000000000000000006001600160a01b0316146111b4565b865f525f60205260405f208460ff1982541617815585600182015560088216610520575b60018216610514575b60028216610508575b601082166104fb575b506117e0565b604051938493845260208401526060604084015260608301906110cc565b0390a2005b6006600c910155876104d2565b600a60058201556104c9565b600260048201556104c0565b601e6002820155606460038201556104b7565b3461013a57608036600319011261013a5760043560443560643590825f525f60205260405f209260405161056681611159565b60ff855416815260018501546020820152600285015460408201526003850154606082015260048501546080820152600760058601549560a08301968752600681015460c0840152016040519081602082549182815201915f5260205f20905f5b8181106106e557505050906105e181600294930382611192565b60e08201525116156106a057600354925f19841461034057604084937fc6884dfc09d2ce5a94ac723ee6fceb32cb0146ae00f6ec6670c8efbf8afc3a639261063360209860018801600355514361120b565b600484519161064183611176565b8483528a83019084825286840143815260608501918252608085019260243584528a5f5260028e52885f208c5f528e52885f209551865551600186015551600285015551600384015551910155825191825287820152a3604051908152f35b60405162461bcd60e51b815260206004820152601d60248201527f4d45563a204772616475616c2066696c6c206e6f7420656e61626c65640000006044820152606490fd5b82546001600160a01b03168452602090930192600192830192016105c7565b3461013a57604036600319011261013a57604061072a6107226110b6565b600435611333565b825191151582526020820152f35b3461013a57602036600319011261013a57600435805f525f60205260405f209060076040519261076784611159565b60ff815416845260018101546020850152600281015460408501526003810154606085015260048101546080850152600581015460a0850152600681015460c085015201604051808260208294549384815201905f5260205f20925f5b818110610a045750506107d992500382611192565b60e083015260ff825116906107ed826117e0565b9251905f91600181166109fa575b600281166109e7575b600481166109d4575b600881166109c1575b6010166109ae575b805f525f60205260405f20906040519061083782611159565b60ff8354168252600183015460208301526002830154916040810192835260076003850154946060830195865260048101546080840152600581015460a0840152600681015460c0840152019060405180928391602082549182815201915f5260205f20905f5b81811061098c5750505060e092916108b7910384611192565b01525f52600460205260405f2090516108d4600183015443611326565b6003811015610963575082516108e99161120b565b91600560028301541161094c575b505b5415801561092e575b5061091f60405194859485526080602086015260808501906110cc565b91604084015260608301520390f35b610938575f610902565b634e487b7160e01b5f52601260045260245ffd5b9161095c91925160011c9061120b565b90856108f7565b600a9093919310610975575b506108f9565b9161098591925160011c9061120b565b908561096f565b82546001600160a01b031684528694506020909301926001928301920161089e565b906113888101809111610340579061081e565b91614e2081018091116103405791610816565b916127108101809111610340579161080d565b9161753081018091116103405791610804565b61c35092506107fb565b84546001600160a01b03168352600194850194869450602090930192016107c4565b3461013a57604036600319011261013a576020610a4c610a446110b6565b600435611218565b6040519015158152f35b3461013a5760c036600319011261013a5760a435602435608435606435604435610aaa337f00000000000000000000000000000000000000000000000000000000000000006001600160a01b0316146111b4565b6004355f525f60205260405f209380610b02575b5080610af7575b5080610aec575b5080610ae1575b5081610adb57005b60060155005b600582015582610ad3565b600483015583610acc565b600384015584610ac5565b600285015585610abe565b3461013a57602036600319011261013a576004355f525f602052602060ff60405f2054161515604051908152f35b3461013a57604036600319011261013a5760043560243590805f525f60205260405f2091604051610b6b81611159565b60ff8454168152600184015460208201526002840154604082015260038401546060820152600760048501549460808301958652600581015460a0840152600681015460c0840152016040519081602082549182815201915f5260205f20905f5b818110610cee5750505090610be681600194930382611192565b60e0820152511615610ca957610bff602093514361120b565b91604051610c0c8161113d565b8281526003858201438152604083013381526060840191878352855f526001895260405f2060018060a01b0333165f52895260405f2094518555516001850155600284019060018060a01b039051166001600160601b0360a01b8254161790555191015560405191825282848301527f82a0efb21693770bfe3ce1da032668e19071f947bbbcf1c98492c144997d81ac60403393a3604051908152f35b60405162461bcd60e51b815260206004820152601e60248201527f4d45563a20436f6d6d69742d72657665616c206e6f7420656e61626c656400006044820152606490fd5b82546001600160a01b0316845260209093019260019283019201610bcc565b3461013a57606036600319011261013a5760243567ffffffffffffffff811161013a573660238201121561013a5780600401359067ffffffffffffffff821161013a573660248360051b8301011161013a5760443590811515820361013a57610da0337f00000000000000000000000000000000000000000000000000000000000000006001600160a01b0316146111b4565b6004355f525f60205260405f2091600483541615610e8a5715610e5a5760075f939201925b82811015610e58576024600582901b830101356001600160a01b038116919082900361013a5784549168010000000000000000831015610e445760018301808755831015610e3057600192865f5260205f2001906001600160601b0360a01b82541617905501610dc5565b634e487b7160e01b5f52603260045260245ffd5b634e487b7160e01b5f52604160045260245ffd5b005b5060070180545f8255915081610e6c57005b5f5260205f20908101905b81811015610e58575f8155600101610e77565b60405162461bcd60e51b815260206004820152601760248201527f4d45563a204e6f742061207072697661746520706f6f6c0000000000000000006044820152606490fd5b3461013a575f36600319011261013a576020600354604051908152f35b3461013a57602036600319011261013a576004355f525f60205260e060405f2060ff81541690600181015490600281015460038201546004830154916006600585015494015494604051968752602087015260408601526060850152608084015260a083015260c0820152f35b3461013a5760c036600319011261013a57600435610f756110b6565b6064359182151580930361013a57805f52600160205260405f2060018060a01b0383165f5260205260405f209160405192610faf8461113d565b8054845260018101546020850181905260028201546001600160a01b0316604086015260039091015460608501908152904311156110805751431161104b57602093604051918583019384526001600160601b03199060601b166040830152604435605483015260f81b6074820152608435607582015260a43560958201526095815261103d60b582611192565b519020905114604051908152f35b60405162461bcd60e51b815260206004820152600d60248201526c4d45563a20546f6f206c61746560981b6044820152606490fd5b60405162461bcd60e51b815260206004820152600e60248201526d4d45563a20546f6f206561726c7960901b6044820152606490fd5b602435906001600160a01b038216820361013a57565b805180835260209291819084018484015e5f828201840152601f01601f1916010190565b608090600319011261013a57600435906024356001600160a01b038116810361013a579060443590606435801515810361013a5790565b604090600319011261013a576004359060243590565b6080810190811067ffffffffffffffff821117610e4457604052565b610100810190811067ffffffffffffffff821117610e4457604052565b60a0810190811067ffffffffffffffff821117610e4457604052565b90601f8019910116810190811067ffffffffffffffff821117610e4457604052565b156111bb57565b60405162461bcd60e51b815260206004820152601560248201527426a2ab1d102737ba103837b7b61036b0b730b3b2b960591b6044820152606490fd5b8181029291811591840414171561034057565b9190820180921161034057565b5f525f60205260405f209060076040519261123284611159565b60ff815416845260018101546020850152600281015460408501526003810154606085015260048101546080850152600581015460a0850152600681015460c0850152019160405180938491602082549182815201915f5260205f20905f5b81811061130457505050600492916112aa910385611192565b60e081019384525116156112fd575f91518051925b838110156112f557600581901b8201602001516001600160a01b038481169116146112ec576001016112bf565b50505050600190565b505050505f90565b5050600190565b82546001600160a01b0316845287945060209093019260019283019201611291565b9190820391821161034057565b90815f525f60205260405f209160405161134c81611159565b60ff845416815260018401546020820152600284015460408201526003840154606082015260048401546080820152600584015460a0820152600760068501549460c08301958652016040519081602082549182815201915f5260205f20905f5b81811061142f57505050906113c781601094930382611192565b60e0820152511615611425575f526004602052600360405f20019060018060a01b03165f5260205260405f2054801561141c576114049042611326565b9051908181101561141c5761141891611326565b5f91565b50506001905f90565b5050506001905f90565b82546001600160a01b03168452602090930192600192830192016113ad565b929092805f525f60205260405f20936040519461146a86611159565b60ff8154168652600181015495602081019687526007600283015492604083019384526003810154606084015260048101546080840152600581015460a0840152600681015460c084015201604051808260208294549384815201905f5260205f20925f5b8181106116da5750506114e492500382611192565b60e0820152519460ff86169687156116cb5781156116ad575b5015806116a1575b61169457600195946008161561168d5750815f525f60205260405f20906040519261152f84611159565b60ff83541684528683015460208501526002830154936040810194855260076003850154946060830195865260048101546080840152600581015460a0840152600681015460c08401520160405191828093602084549182815201935f5260205f20908c5f5b82811061166c57505050506115ae9060e0930384611192565b01525f52600460205260405f2092516115ca8785015443611326565b6003811015611651575082516115df9161120b565b92600560028201541161163c575b5490816115fb575b50505090565b60648102908082046064149015171561034057600a9161161a916116fc565b11611627575b80806115f5565b90611636915160021c9061120b565b5f611620565b9261164b908351881c9061120b565b926115ed565b600a9094919410156115ed579261164b908351881c9061120b565b83546001600160a01b03168752602090960195879450928101928101611595565b9150505190565b515f955085945092915050565b50602085161515611505565b518015159150816116c0575b505f6114fd565b90508210155f6116b9565b5050515f955085945092915050565b84546001600160a01b03168352600194850194869450602090930192016114cf565b8115610938570490565b5f52600260205260405f20905f5260205260405f2060405161172781611176565b81548152600182015491602082019280845260028201546040840191818352600384015460046060870195828752015460808701524310156117d757509061177261177c9243611326565b9251905190611326565b92825181518082115f146117b9575050926117aa6117af926117a56117b6968651905190611326565b6111f8565b6116fc565b9051611326565b90565b6117b6959250926117a56117aa926117d095611326565b905161120b565b94505050505090565b60ff16801561191d57600881146118ed57601881146118b1576009811461187557603f1461183a57604051611816604082611192565b601481527321bab9ba37b69021b7b73334b3bab930ba34b7b760611b602082015290565b604051611848604082611192565b601881527f4d6178696d756d3a20416c6c2050726f74656374696f6e730000000000000000602082015290565b50604051611884604082611192565b601a81527f486967683a20436f6d6d69742d52657665616c202b2046656573000000000000602082015290565b506040516118c0604082611192565b601781527f4d656469756d3a2046656573202b2054696d656c6f636b000000000000000000602082015290565b506040516118fc604082611192565b60118152704c6f773a2044796e616d6963204665657360781b602082015290565b5060405161192c604082611192565b601181527027379026a2ab10283937ba32b1ba34b7b760791b60208201529056fea264697066735822122001c5c7dc4abd6eed3841d29b96cb776eabea63181718ee054c0e1ca3526d8a8264736f6c634300081e0033","opcodes":"PUSH1 0xA0 CALLVALUE PUSH2 0x86 JUMPI PUSH1 0x1F PUSH2 0x1A22 CODESIZE DUP2 SWAP1 SUB SWAP2 DUP3 ADD PUSH1 0x1F NOT AND DUP4 ADD SWAP2 PUSH1 0x1 PUSH1 0x1 PUSH1 0x40 SHL SUB DUP4 GT DUP5 DUP5 LT OR PUSH2 0x8A JUMPI DUP1 DUP5 SWAP3 PUSH1 0x20 SWAP5 PUSH1 0x40 MSTORE DUP4 CODECOPY DUP2 ADD SUB SLT PUSH2 0x86 JUMPI MLOAD PUSH1 0x1 PUSH1 0x1 PUSH1 0xA0 SHL SUB DUP2 AND DUP2 SUB PUSH2 0x86 JUMPI PUSH1 0x80 MSTORE PUSH1 0x40 MLOAD PUSH2 0x1983 SWAP1 DUP2 PUSH2 0x9F DUP3 CODECOPY PUSH1 0x80 MLOAD DUP2 DUP2 DUP2 PUSH2 0x1C1 ADD MSTORE DUP2 DUP2 PUSH2 0x206 ADD MSTORE DUP2 DUP2 PUSH2 0x465 ADD MSTORE DUP2 DUP2 PUSH2 0xA7C ADD MSTORE PUSH2 0xD72 ADD MSTORE RETURN JUMPDEST PUSH0 DUP1 REVERT JUMPDEST PUSH4 0x4E487B71 PUSH1 0xE0 SHL PUSH0 MSTORE PUSH1 0x41 PUSH1 0x4 MSTORE PUSH1 0x24 PUSH0 REVERT INVALID PUSH1 0x80 PUSH1 0x40 MSTORE PUSH1 0x4 CALLDATASIZE LT ISZERO PUSH2 0x11 JUMPI PUSH0 DUP1 REVERT JUMPDEST PUSH0 CALLDATALOAD PUSH1 0xE0 SHR DUP1 PUSH4 0x3BF6A72 EQ PUSH2 0xF59 JUMPI DUP1 PUSH4 0xF5BA217 EQ PUSH2 0xEEC JUMPI DUP1 PUSH4 0x2A58B330 EQ PUSH2 0xECF JUMPI DUP1 PUSH4 0x301E3ECB EQ PUSH2 0xD0D JUMPI DUP1 PUSH4 0x53EC34A4 EQ PUSH2 0xB3B JUMPI DUP1 PUSH4 0x560903E5 EQ PUSH2 0xB0D JUMPI DUP1 PUSH4 0x6E45F438 EQ PUSH2 0xA56 JUMPI DUP1 PUSH4 0x7D22C35C EQ PUSH2 0xA26 JUMPI DUP1 PUSH4 0x87184999 EQ PUSH2 0x738 JUMPI DUP1 PUSH4 0x9326B633 EQ PUSH2 0x704 JUMPI DUP1 PUSH4 0x951B70A3 EQ PUSH2 0x533 JUMPI DUP1 PUSH4 0x9CBE6CD1 EQ PUSH2 0x40E JUMPI DUP1 PUSH4 0xA8CC4F6E EQ PUSH2 0x3D8 JUMPI DUP1 PUSH4 0xAB17E604 EQ PUSH2 0x3B7 JUMPI DUP1 PUSH4 0xD96EDD2D EQ PUSH2 0x1F0 JUMPI DUP1 PUSH4 0xDC4C90D3 EQ PUSH2 0x1AC JUMPI DUP1 PUSH4 0xE90D4C06 EQ PUSH2 0x13E JUMPI PUSH4 0xF552771A EQ PUSH2 0xDF JUMPI PUSH0 DUP1 REVERT JUMPDEST CALLVALUE PUSH2 0x13A JUMPI PUSH2 0xED CALLDATASIZE PUSH2 0x1127 JUMP JUMPDEST SWAP1 PUSH0 MSTORE PUSH1 0x2 PUSH1 0x20 MSTORE PUSH1 0x40 PUSH0 KECCAK256 SWAP1 PUSH0 MSTORE PUSH1 0x20 MSTORE PUSH1 0xA0 PUSH1 0x40 PUSH0 KECCAK256 DUP1 SLOAD SWAP1 PUSH1 0x1 DUP2 ADD SLOAD SWAP1 PUSH1 0x2 DUP2 ADD SLOAD PUSH1 0x4 PUSH1 0x3 DUP4 ADD SLOAD SWAP3 ADD SLOAD SWAP3 PUSH1 0x40 MLOAD SWAP5 DUP6 MSTORE PUSH1 0x20 DUP6 ADD MSTORE PUSH1 0x40 DUP5 ADD MSTORE PUSH1 0x60 DUP4 ADD MSTORE PUSH1 0x80 DUP3 ADD MSTORE RETURN JUMPDEST PUSH0 DUP1 REVERT JUMPDEST CALLVALUE PUSH2 0x13A JUMPI PUSH1 0x40 CALLDATASIZE PUSH1 0x3 NOT ADD SLT PUSH2 0x13A JUMPI PUSH2 0x157 PUSH2 0x10B6 JUMP JUMPDEST PUSH1 0x4 CALLDATALOAD PUSH0 MSTORE PUSH1 0x1 PUSH1 0x20 MSTORE PUSH1 0x40 PUSH0 KECCAK256 SWAP1 PUSH1 0x1 DUP1 PUSH1 0xA0 SHL SUB AND PUSH0 MSTORE PUSH1 0x20 MSTORE PUSH1 0x80 PUSH1 0x40 PUSH0 KECCAK256 DUP1 SLOAD SWAP1 PUSH1 0x1 DUP2 ADD SLOAD SWAP1 PUSH1 0x3 PUSH1 0x1 DUP1 PUSH1 0xA0 SHL SUB PUSH1 0x2 DUP4 ADD SLOAD AND SWAP2 ADD SLOAD SWAP2 PUSH1 0x40 MLOAD SWAP4 DUP5 MSTORE PUSH1 0x20 DUP5 ADD MSTORE PUSH1 0x40 DUP4 ADD MSTORE PUSH1 0x60 DUP3 ADD MSTORE RETURN JUMPDEST CALLVALUE PUSH2 0x13A JUMPI PUSH0 CALLDATASIZE PUSH1 0x3 NOT ADD SLT PUSH2 0x13A JUMPI PUSH1 0x40 MLOAD PUSH32 0x0 PUSH1 0x1 PUSH1 0x1 PUSH1 0xA0 SHL SUB AND DUP2 MSTORE PUSH1 0x20 SWAP1 RETURN JUMPDEST CALLVALUE PUSH2 0x13A JUMPI PUSH2 0x1FE CALLDATASIZE PUSH2 0x10F0 JUMP JUMPDEST POP SWAP2 PUSH2 0x234 CALLER PUSH32 0x0 PUSH1 0x1 PUSH1 0x1 PUSH1 0xA0 SHL SUB AND EQ PUSH2 0x11B4 JUMP JUMPDEST DUP1 PUSH0 MSTORE PUSH1 0x4 PUSH1 0x20 MSTORE PUSH1 0x40 PUSH0 KECCAK256 SWAP3 PUSH1 0x3 DUP5 ADD SWAP4 PUSH1 0x1 DUP1 PUSH1 0xA0 SHL SUB DUP5 AND PUSH0 MSTORE DUP5 PUSH1 0x20 MSTORE PUSH1 0x1E PUSH2 0x265 PUSH1 0x40 PUSH0 KECCAK256 SLOAD TIMESTAMP PUSH2 0x1326 JUMP JUMPDEST LT PUSH2 0x39F JUMPI JUMPDEST PUSH1 0x1 DUP2 ADD SWAP5 DUP6 SLOAD NUMBER EQ DUP1 PUSH2 0x382 JUMPI JUMPDEST PUSH2 0x36A JUMPI JUMPDEST DUP2 SLOAD SWAP3 PUSH1 0x9 DUP5 MUL SWAP4 DUP1 DUP6 DIV PUSH1 0x9 EQ SWAP1 ISZERO OR ISZERO PUSH2 0x340 JUMPI PUSH2 0x2A3 PUSH1 0xA SWAP2 PUSH1 0x2 SWAP6 PUSH2 0x120B JUMP JUMPDEST DIV DUP3 SSTORE NUMBER DUP7 SSTORE PUSH1 0x1 DUP1 PUSH1 0xA0 SHL SUB DUP6 AND PUSH0 MSTORE PUSH1 0x20 MSTORE PUSH1 0x40 PUSH0 KECCAK256 TIMESTAMP SWAP1 SSTORE ADD DUP1 SLOAD SWAP4 DUP5 ISZERO SWAP1 DUP2 ISZERO SWAP1 DUP2 PUSH2 0x354 JUMPI JUMPDEST POP PUSH2 0x32E JUMPI JUMPDEST POP PUSH1 0x20 SWAP4 POP SLOAD SWAP1 PUSH1 0x5 DUP3 GT SWAP3 DUP4 PUSH2 0x2F1 JUMPI JUMPDEST POP POP POP PUSH1 0x40 MLOAD SWAP1 DUP2 MSTORE RETURN JUMPDEST PUSH1 0x40 MLOAD SWAP3 DUP4 MSTORE PUSH1 0x1 PUSH1 0x1 PUSH1 0xA0 SHL SUB AND SWAP2 PUSH32 0x1CA8130A6AC08A7D79EFF185FFD91619A3AADA50D0CDDB4F870B4DA14F0F8A4E SWAP1 DUP6 SWAP1 LOG3 DUP3 DUP1 DUP1 PUSH2 0x2E6 JUMP JUMPDEST PUSH2 0x340 JUMPI PUSH1 0x20 SWAP4 PUSH0 NOT ADD DUP2 SSTORE DUP5 PUSH2 0x2D4 JUMP JUMPDEST PUSH4 0x4E487B71 PUSH1 0xE0 SHL PUSH0 MSTORE PUSH1 0x11 PUSH1 0x4 MSTORE PUSH1 0x24 PUSH0 REVERT JUMPDEST SWAP1 POP SLOAD PUSH1 0xA DUP2 ADD DUP1 SWAP2 GT PUSH2 0x340 JUMPI NUMBER GT DUP7 PUSH2 0x2CE JUMP JUMPDEST PUSH1 0x2 DUP3 ADD DUP1 SLOAD SWAP1 PUSH1 0x2 DUP3 ADD DUP1 SWAP3 GT PUSH2 0x340 JUMPI SSTORE PUSH2 0x27F JUMP JUMPDEST POP DUP2 SLOAD DUP1 PUSH1 0x1 SHL SWAP1 DUP1 DUP3 DIV PUSH1 0x2 EQ SWAP1 ISZERO OR ISZERO PUSH2 0x340 JUMPI DUP4 GT PUSH2 0x27A JUMP JUMPDEST PUSH1 0x2 DUP2 ADD DUP1 SLOAD SWAP1 PUSH1 0x3 DUP3 ADD DUP1 SWAP3 GT PUSH2 0x340 JUMPI SSTORE PUSH2 0x26B JUMP JUMPDEST CALLVALUE PUSH2 0x13A JUMPI PUSH1 0x20 PUSH2 0x3D0 PUSH2 0x3CA CALLDATASIZE PUSH2 0x1127 JUMP JUMPDEST SWAP1 PUSH2 0x1706 JUMP JUMPDEST PUSH1 0x40 MLOAD SWAP1 DUP2 MSTORE RETURN JUMPDEST CALLVALUE PUSH2 0x13A JUMPI PUSH1 0x60 PUSH1 0xFF PUSH2 0x3F6 PUSH2 0x3ED CALLDATASIZE PUSH2 0x10F0 JUMP JUMPDEST SWAP3 SWAP1 SWAP2 POP PUSH2 0x144E JUMP JUMPDEST SWAP2 SWAP3 SWAP1 PUSH1 0x40 MLOAD SWAP4 ISZERO ISZERO DUP5 MSTORE AND PUSH1 0x20 DUP4 ADD MSTORE PUSH1 0x40 DUP3 ADD MSTORE RETURN JUMPDEST CALLVALUE PUSH2 0x13A JUMPI PUSH1 0x60 CALLDATASIZE PUSH1 0x3 NOT ADD SLT PUSH2 0x13A JUMPI PUSH1 0x4 CALLDATALOAD PUSH1 0x24 CALLDATALOAD PUSH1 0xFF DUP2 AND SWAP1 DUP2 DUP2 SUB PUSH2 0x13A JUMPI PUSH32 0xC13B7D179E63FCF1DAC77EBEDA85633A8F31FDF01F64F4B859BA8D972FA0D994 SWAP2 PUSH1 0x44 CALLDATALOAD SWAP2 PUSH2 0x4F6 SWAP1 PUSH2 0x4D8 SWAP1 PUSH2 0x493 CALLER PUSH32 0x0 PUSH1 0x1 PUSH1 0x1 PUSH1 0xA0 SHL SUB AND EQ PUSH2 0x11B4 JUMP JUMPDEST DUP7 PUSH0 MSTORE PUSH0 PUSH1 0x20 MSTORE PUSH1 0x40 PUSH0 KECCAK256 DUP5 PUSH1 0xFF NOT DUP3 SLOAD AND OR DUP2 SSTORE DUP6 PUSH1 0x1 DUP3 ADD SSTORE PUSH1 0x8 DUP3 AND PUSH2 0x520 JUMPI JUMPDEST PUSH1 0x1 DUP3 AND PUSH2 0x514 JUMPI JUMPDEST PUSH1 0x2 DUP3 AND PUSH2 0x508 JUMPI JUMPDEST PUSH1 0x10 DUP3 AND PUSH2 0x4FB JUMPI JUMPDEST POP PUSH2 0x17E0 JUMP JUMPDEST PUSH1 0x40 MLOAD SWAP4 DUP5 SWAP4 DUP5 MSTORE PUSH1 0x20 DUP5 ADD MSTORE PUSH1 0x60 PUSH1 0x40 DUP5 ADD MSTORE PUSH1 0x60 DUP4 ADD SWAP1 PUSH2 0x10CC JUMP JUMPDEST SUB SWAP1 LOG2 STOP JUMPDEST PUSH1 0x6 PUSH1 0xC SWAP2 ADD SSTORE DUP8 PUSH2 0x4D2 JUMP JUMPDEST PUSH1 0xA PUSH1 0x5 DUP3 ADD SSTORE PUSH2 0x4C9 JUMP JUMPDEST PUSH1 0x2 PUSH1 0x4 DUP3 ADD SSTORE PUSH2 0x4C0 JUMP JUMPDEST PUSH1 0x1E PUSH1 0x2 DUP3 ADD SSTORE PUSH1 0x64 PUSH1 0x3 DUP3 ADD SSTORE PUSH2 0x4B7 JUMP JUMPDEST CALLVALUE PUSH2 0x13A JUMPI PUSH1 0x80 CALLDATASIZE PUSH1 0x3 NOT ADD SLT PUSH2 0x13A JUMPI PUSH1 0x4 CALLDATALOAD PUSH1 0x44 CALLDATALOAD PUSH1 0x64 CALLDATALOAD SWAP1 DUP3 PUSH0 MSTORE PUSH0 PUSH1 0x20 MSTORE PUSH1 0x40 PUSH0 KECCAK256 SWAP3 PUSH1 0x40 MLOAD PUSH2 0x566 DUP2 PUSH2 0x1159 JUMP JUMPDEST PUSH1 0xFF DUP6 SLOAD AND DUP2 MSTORE PUSH1 0x1 DUP6 ADD SLOAD PUSH1 0x20 DUP3 ADD MSTORE PUSH1 0x2 DUP6 ADD SLOAD PUSH1 0x40 DUP3 ADD MSTORE PUSH1 0x3 DUP6 ADD SLOAD PUSH1 0x60 DUP3 ADD MSTORE PUSH1 0x4 DUP6 ADD SLOAD PUSH1 0x80 DUP3 ADD MSTORE PUSH1 0x7 PUSH1 0x5 DUP7 ADD SLOAD SWAP6 PUSH1 0xA0 DUP4 ADD SWAP7 DUP8 MSTORE PUSH1 0x6 DUP2 ADD SLOAD PUSH1 0xC0 DUP5 ADD MSTORE ADD PUSH1 0x40 MLOAD SWAP1 DUP2 PUSH1 0x20 DUP3 SLOAD SWAP2 DUP3 DUP2 MSTORE ADD SWAP2 PUSH0 MSTORE PUSH1 0x20 PUSH0 KECCAK256 SWAP1 PUSH0 JUMPDEST DUP2 DUP2 LT PUSH2 0x6E5 JUMPI POP POP POP SWAP1 PUSH2 0x5E1 DUP2 PUSH1 0x2 SWAP5 SWAP4 SUB DUP3 PUSH2 0x1192 JUMP JUMPDEST PUSH1 0xE0 DUP3 ADD MSTORE MLOAD AND ISZERO PUSH2 0x6A0 JUMPI PUSH1 0x3 SLOAD SWAP3 PUSH0 NOT DUP5 EQ PUSH2 0x340 JUMPI PUSH1 0x40 DUP5 SWAP4 PUSH32 0xC6884DFC09D2CE5A94AC723EE6FCEB32CB0146AE00F6EC6670C8EFBF8AFC3A63 SWAP3 PUSH2 0x633 PUSH1 0x20 SWAP9 PUSH1 0x1 DUP9 ADD PUSH1 0x3 SSTORE MLOAD NUMBER PUSH2 0x120B JUMP JUMPDEST PUSH1 0x4 DUP5 MLOAD SWAP2 PUSH2 0x641 DUP4 PUSH2 0x1176 JUMP JUMPDEST DUP5 DUP4 MSTORE DUP11 DUP4 ADD SWAP1 DUP5 DUP3 MSTORE DUP7 DUP5 ADD NUMBER DUP2 MSTORE PUSH1 0x60 DUP6 ADD SWAP2 DUP3 MSTORE PUSH1 0x80 DUP6 ADD SWAP3 PUSH1 0x24 CALLDATALOAD DUP5 MSTORE DUP11 PUSH0 MSTORE PUSH1 0x2 DUP15 MSTORE DUP9 PUSH0 KECCAK256 DUP13 PUSH0 MSTORE DUP15 MSTORE DUP9 PUSH0 KECCAK256 SWAP6 MLOAD DUP7 SSTORE MLOAD PUSH1 0x1 DUP7 ADD SSTORE MLOAD PUSH1 0x2 DUP6 ADD SSTORE MLOAD PUSH1 0x3 DUP5 ADD SSTORE MLOAD SWAP2 ADD SSTORE DUP3 MLOAD SWAP2 DUP3 MSTORE DUP8 DUP3 ADD MSTORE LOG3 PUSH1 0x40 MLOAD SWAP1 DUP2 MSTORE RETURN JUMPDEST PUSH1 0x40 MLOAD PUSH3 0x461BCD PUSH1 0xE5 SHL DUP2 MSTORE PUSH1 0x20 PUSH1 0x4 DUP3 ADD MSTORE PUSH1 0x1D PUSH1 0x24 DUP3 ADD MSTORE PUSH32 0x4D45563A204772616475616C2066696C6C206E6F7420656E61626C6564000000 PUSH1 0x44 DUP3 ADD MSTORE PUSH1 0x64 SWAP1 REVERT JUMPDEST DUP3 SLOAD PUSH1 0x1 PUSH1 0x1 PUSH1 0xA0 SHL SUB AND DUP5 MSTORE PUSH1 0x20 SWAP1 SWAP4 ADD SWAP3 PUSH1 0x1 SWAP3 DUP4 ADD SWAP3 ADD PUSH2 0x5C7 JUMP JUMPDEST CALLVALUE PUSH2 0x13A JUMPI PUSH1 0x40 CALLDATASIZE PUSH1 0x3 NOT ADD SLT PUSH2 0x13A JUMPI PUSH1 0x40 PUSH2 0x72A PUSH2 0x722 PUSH2 0x10B6 JUMP JUMPDEST PUSH1 0x4 CALLDATALOAD PUSH2 0x1333 JUMP JUMPDEST DUP3 MLOAD SWAP2 ISZERO ISZERO DUP3 MSTORE PUSH1 0x20 DUP3 ADD MSTORE RETURN JUMPDEST CALLVALUE PUSH2 0x13A JUMPI PUSH1 0x20 CALLDATASIZE PUSH1 0x3 NOT ADD SLT PUSH2 0x13A JUMPI PUSH1 0x4 CALLDATALOAD DUP1 PUSH0 MSTORE PUSH0 PUSH1 0x20 MSTORE PUSH1 0x40 PUSH0 KECCAK256 SWAP1 PUSH1 0x7 PUSH1 0x40 MLOAD SWAP3 PUSH2 0x767 DUP5 PUSH2 0x1159 JUMP JUMPDEST PUSH1 0xFF DUP2 SLOAD AND DUP5 MSTORE PUSH1 0x1 DUP2 ADD SLOAD PUSH1 0x20 DUP6 ADD MSTORE PUSH1 0x2 DUP2 ADD SLOAD PUSH1 0x40 DUP6 ADD MSTORE PUSH1 0x3 DUP2 ADD SLOAD PUSH1 0x60 DUP6 ADD MSTORE PUSH1 0x4 DUP2 ADD SLOAD PUSH1 0x80 DUP6 ADD MSTORE PUSH1 0x5 DUP2 ADD SLOAD PUSH1 0xA0 DUP6 ADD MSTORE PUSH1 0x6 DUP2 ADD SLOAD PUSH1 0xC0 DUP6 ADD MSTORE ADD PUSH1 0x40 MLOAD DUP1 DUP3 PUSH1 0x20 DUP3 SWAP5 SLOAD SWAP4 DUP5 DUP2 MSTORE ADD SWAP1 PUSH0 MSTORE PUSH1 0x20 PUSH0 KECCAK256 SWAP3 PUSH0 JUMPDEST DUP2 DUP2 LT PUSH2 0xA04 JUMPI POP POP PUSH2 0x7D9 SWAP3 POP SUB DUP3 PUSH2 0x1192 JUMP JUMPDEST PUSH1 0xE0 DUP4 ADD MSTORE PUSH1 0xFF DUP3 MLOAD AND SWAP1 PUSH2 0x7ED DUP3 PUSH2 0x17E0 JUMP JUMPDEST SWAP3 MLOAD SWAP1 PUSH0 SWAP2 PUSH1 0x1 DUP2 AND PUSH2 0x9FA JUMPI JUMPDEST PUSH1 0x2 DUP2 AND PUSH2 0x9E7 JUMPI JUMPDEST PUSH1 0x4 DUP2 AND PUSH2 0x9D4 JUMPI JUMPDEST PUSH1 0x8 DUP2 AND PUSH2 0x9C1 JUMPI JUMPDEST PUSH1 0x10 AND PUSH2 0x9AE JUMPI JUMPDEST DUP1 PUSH0 MSTORE PUSH0 PUSH1 0x20 MSTORE PUSH1 0x40 PUSH0 KECCAK256 SWAP1 PUSH1 0x40 MLOAD SWAP1 PUSH2 0x837 DUP3 PUSH2 0x1159 JUMP JUMPDEST PUSH1 0xFF DUP4 SLOAD AND DUP3 MSTORE PUSH1 0x1 DUP4 ADD SLOAD PUSH1 0x20 DUP4 ADD MSTORE PUSH1 0x2 DUP4 ADD SLOAD SWAP2 PUSH1 0x40 DUP2 ADD SWAP3 DUP4 MSTORE PUSH1 0x7 PUSH1 0x3 DUP6 ADD SLOAD SWAP5 PUSH1 0x60 DUP4 ADD SWAP6 DUP7 MSTORE PUSH1 0x4 DUP2 ADD SLOAD PUSH1 0x80 DUP5 ADD MSTORE PUSH1 0x5 DUP2 ADD SLOAD PUSH1 0xA0 DUP5 ADD MSTORE PUSH1 0x6 DUP2 ADD SLOAD PUSH1 0xC0 DUP5 ADD MSTORE ADD SWAP1 PUSH1 0x40 MLOAD DUP1 SWAP3 DUP4 SWAP2 PUSH1 0x20 DUP3 SLOAD SWAP2 DUP3 DUP2 MSTORE ADD SWAP2 PUSH0 MSTORE PUSH1 0x20 PUSH0 KECCAK256 SWAP1 PUSH0 JUMPDEST DUP2 DUP2 LT PUSH2 0x98C JUMPI POP POP POP PUSH1 0xE0 SWAP3 SWAP2 PUSH2 0x8B7 SWAP2 SUB DUP5 PUSH2 0x1192 JUMP JUMPDEST ADD MSTORE PUSH0 MSTORE PUSH1 0x4 PUSH1 0x20 MSTORE PUSH1 0x40 PUSH0 KECCAK256 SWAP1 MLOAD PUSH2 0x8D4 PUSH1 0x1 DUP4 ADD SLOAD NUMBER PUSH2 0x1326 JUMP JUMPDEST PUSH1 0x3 DUP2 LT ISZERO PUSH2 0x963 JUMPI POP DUP3 MLOAD PUSH2 0x8E9 SWAP2 PUSH2 0x120B JUMP JUMPDEST SWAP2 PUSH1 0x5 PUSH1 0x2 DUP4 ADD SLOAD GT PUSH2 0x94C JUMPI JUMPDEST POP JUMPDEST SLOAD ISZERO DUP1 ISZERO PUSH2 0x92E JUMPI JUMPDEST POP PUSH2 0x91F PUSH1 0x40 MLOAD SWAP5 DUP6 SWAP5 DUP6 MSTORE PUSH1 0x80 PUSH1 0x20 DUP7 ADD MSTORE PUSH1 0x80 DUP6 ADD SWAP1 PUSH2 0x10CC JUMP JUMPDEST SWAP2 PUSH1 0x40 DUP5 ADD MSTORE PUSH1 0x60 DUP4 ADD MSTORE SUB SWAP1 RETURN JUMPDEST PUSH2 0x938 JUMPI PUSH0 PUSH2 0x902 JUMP JUMPDEST PUSH4 0x4E487B71 PUSH1 0xE0 SHL PUSH0 MSTORE PUSH1 0x12 PUSH1 0x4 MSTORE PUSH1 0x24 PUSH0 REVERT JUMPDEST SWAP2 PUSH2 0x95C SWAP2 SWAP3 MLOAD PUSH1 0x1 SHR SWAP1 PUSH2 0x120B JUMP JUMPDEST SWAP1 DUP6 PUSH2 0x8F7 JUMP JUMPDEST PUSH1 0xA SWAP1 SWAP4 SWAP2 SWAP4 LT PUSH2 0x975 JUMPI JUMPDEST POP PUSH2 0x8F9 JUMP JUMPDEST SWAP2 PUSH2 0x985 SWAP2 SWAP3 MLOAD PUSH1 0x1 SHR SWAP1 PUSH2 0x120B JUMP JUMPDEST SWAP1 DUP6 PUSH2 0x96F JUMP JUMPDEST DUP3 SLOAD PUSH1 0x1 PUSH1 0x1 PUSH1 0xA0 SHL SUB AND DUP5 MSTORE DUP7 SWAP5 POP PUSH1 0x20 SWAP1 SWAP4 ADD SWAP3 PUSH1 0x1 SWAP3 DUP4 ADD SWAP3 ADD PUSH2 0x89E JUMP JUMPDEST SWAP1 PUSH2 0x1388 DUP2 ADD DUP1 SWAP2 GT PUSH2 0x340 JUMPI SWAP1 PUSH2 0x81E JUMP JUMPDEST SWAP2 PUSH2 0x4E20 DUP2 ADD DUP1 SWAP2 GT PUSH2 0x340 JUMPI SWAP2 PUSH2 0x816 JUMP JUMPDEST SWAP2 PUSH2 0x2710 DUP2 ADD DUP1 SWAP2 GT PUSH2 0x340 JUMPI SWAP2 PUSH2 0x80D JUMP JUMPDEST SWAP2 PUSH2 0x7530 DUP2 ADD DUP1 SWAP2 GT PUSH2 0x340 JUMPI SWAP2 PUSH2 0x804 JUMP JUMPDEST PUSH2 0xC350 SWAP3 POP PUSH2 0x7FB JUMP JUMPDEST DUP5 SLOAD PUSH1 0x1 PUSH1 0x1 PUSH1 0xA0 SHL SUB AND DUP4 MSTORE PUSH1 0x1 SWAP5 DUP6 ADD SWAP5 DUP7 SWAP5 POP PUSH1 0x20 SWAP1 SWAP4 ADD SWAP3 ADD PUSH2 0x7C4 JUMP JUMPDEST CALLVALUE PUSH2 0x13A JUMPI PUSH1 0x40 CALLDATASIZE PUSH1 0x3 NOT ADD SLT PUSH2 0x13A JUMPI PUSH1 0x20 PUSH2 0xA4C PUSH2 0xA44 PUSH2 0x10B6 JUMP JUMPDEST PUSH1 0x4 CALLDATALOAD PUSH2 0x1218 JUMP JUMPDEST PUSH1 0x40 MLOAD SWAP1 ISZERO ISZERO DUP2 MSTORE RETURN JUMPDEST CALLVALUE PUSH2 0x13A JUMPI PUSH1 0xC0 CALLDATASIZE PUSH1 0x3 NOT ADD SLT PUSH2 0x13A JUMPI PUSH1 0xA4 CALLDATALOAD PUSH1 0x24 CALLDATALOAD PUSH1 0x84 CALLDATALOAD PUSH1 0x64 CALLDATALOAD PUSH1 0x44 CALLDATALOAD PUSH2 0xAAA CALLER PUSH32 0x0 PUSH1 0x1 PUSH1 0x1 PUSH1 0xA0 SHL SUB AND EQ PUSH2 0x11B4 JUMP JUMPDEST PUSH1 0x4 CALLDATALOAD PUSH0 MSTORE PUSH0 PUSH1 0x20 MSTORE PUSH1 0x40 PUSH0 KECCAK256 SWAP4 DUP1 PUSH2 0xB02 JUMPI JUMPDEST POP DUP1 PUSH2 0xAF7 JUMPI JUMPDEST POP DUP1 PUSH2 0xAEC JUMPI JUMPDEST POP DUP1 PUSH2 0xAE1 JUMPI JUMPDEST POP DUP2 PUSH2 0xADB JUMPI STOP JUMPDEST PUSH1 0x6 ADD SSTORE STOP JUMPDEST PUSH1 0x5 DUP3 ADD SSTORE DUP3 PUSH2 0xAD3 JUMP JUMPDEST PUSH1 0x4 DUP4 ADD SSTORE DUP4 PUSH2 0xACC JUMP JUMPDEST PUSH1 0x3 DUP5 ADD SSTORE DUP5 PUSH2 0xAC5 JUMP JUMPDEST PUSH1 0x2 DUP6 ADD SSTORE DUP6 PUSH2 0xABE JUMP JUMPDEST CALLVALUE PUSH2 0x13A JUMPI PUSH1 0x20 CALLDATASIZE PUSH1 0x3 NOT ADD SLT PUSH2 0x13A JUMPI PUSH1 0x4 CALLDATALOAD PUSH0 MSTORE PUSH0 PUSH1 0x20 MSTORE PUSH1 0x20 PUSH1 0xFF PUSH1 0x40 PUSH0 KECCAK256 SLOAD AND ISZERO ISZERO PUSH1 0x40 MLOAD SWAP1 DUP2 MSTORE RETURN JUMPDEST CALLVALUE PUSH2 0x13A JUMPI PUSH1 0x40 CALLDATASIZE PUSH1 0x3 NOT ADD SLT PUSH2 0x13A JUMPI PUSH1 0x4 CALLDATALOAD PUSH1 0x24 CALLDATALOAD SWAP1 DUP1 PUSH0 MSTORE PUSH0 PUSH1 0x20 MSTORE PUSH1 0x40 PUSH0 KECCAK256 SWAP2 PUSH1 0x40 MLOAD PUSH2 0xB6B DUP2 PUSH2 0x1159 JUMP JUMPDEST PUSH1 0xFF DUP5 SLOAD AND DUP2 MSTORE PUSH1 0x1 DUP5 ADD SLOAD PUSH1 0x20 DUP3 ADD MSTORE PUSH1 0x2 DUP5 ADD SLOAD PUSH1 0x40 DUP3 ADD MSTORE PUSH1 0x3 DUP5 ADD SLOAD PUSH1 0x60 DUP3 ADD MSTORE PUSH1 0x7 PUSH1 0x4 DUP6 ADD SLOAD SWAP5 PUSH1 0x80 DUP4 ADD SWAP6 DUP7 MSTORE PUSH1 0x5 DUP2 ADD SLOAD PUSH1 0xA0 DUP5 ADD MSTORE PUSH1 0x6 DUP2 ADD SLOAD PUSH1 0xC0 DUP5 ADD MSTORE ADD PUSH1 0x40 MLOAD SWAP1 DUP2 PUSH1 0x20 DUP3 SLOAD SWAP2 DUP3 DUP2 MSTORE ADD SWAP2 PUSH0 MSTORE PUSH1 0x20 PUSH0 KECCAK256 SWAP1 PUSH0 JUMPDEST DUP2 DUP2 LT PUSH2 0xCEE JUMPI POP POP POP SWAP1 PUSH2 0xBE6 DUP2 PUSH1 0x1 SWAP5 SWAP4 SUB DUP3 PUSH2 0x1192 JUMP JUMPDEST PUSH1 0xE0 DUP3 ADD MSTORE MLOAD AND ISZERO PUSH2 0xCA9 JUMPI PUSH2 0xBFF PUSH1 0x20 SWAP4 MLOAD NUMBER PUSH2 0x120B JUMP JUMPDEST SWAP2 PUSH1 0x40 MLOAD PUSH2 0xC0C DUP2 PUSH2 0x113D JUMP JUMPDEST DUP3 DUP2 MSTORE PUSH1 0x3 DUP6 DUP3 ADD NUMBER DUP2 MSTORE PUSH1 0x40 DUP4 ADD CALLER DUP2 MSTORE PUSH1 0x60 DUP5 ADD SWAP2 DUP8 DUP4 MSTORE DUP6 PUSH0 MSTORE PUSH1 0x1 DUP10 MSTORE PUSH1 0x40 PUSH0 KECCAK256 PUSH1 0x1 DUP1 PUSH1 0xA0 SHL SUB CALLER AND PUSH0 MSTORE DUP10 MSTORE PUSH1 0x40 PUSH0 KECCAK256 SWAP5 MLOAD DUP6 SSTORE MLOAD PUSH1 0x1 DUP6 ADD SSTORE PUSH1 0x2 DUP5 ADD SWAP1 PUSH1 0x1 DUP1 PUSH1 0xA0 SHL SUB SWAP1 MLOAD AND PUSH1 0x1 PUSH1 0x1 PUSH1 0x60 SHL SUB PUSH1 0xA0 SHL DUP3 SLOAD AND OR SWAP1 SSTORE MLOAD SWAP2 ADD SSTORE PUSH1 0x40 MLOAD SWAP2 DUP3 MSTORE DUP3 DUP5 DUP4 ADD MSTORE PUSH32 0x82A0EFB21693770BFE3CE1DA032668E19071F947BBBCF1C98492C144997D81AC PUSH1 0x40 CALLER SWAP4 LOG3 PUSH1 0x40 MLOAD SWAP1 DUP2 MSTORE RETURN JUMPDEST PUSH1 0x40 MLOAD PUSH3 0x461BCD PUSH1 0xE5 SHL DUP2 MSTORE PUSH1 0x20 PUSH1 0x4 DUP3 ADD MSTORE PUSH1 0x1E PUSH1 0x24 DUP3 ADD MSTORE PUSH32 0x4D45563A20436F6D6D69742D72657665616C206E6F7420656E61626C65640000 PUSH1 0x44 DUP3 ADD MSTORE PUSH1 0x64 SWAP1 REVERT JUMPDEST DUP3 SLOAD PUSH1 0x1 PUSH1 0x1 PUSH1 0xA0 SHL SUB AND DUP5 MSTORE PUSH1 0x20 SWAP1 SWAP4 ADD SWAP3 PUSH1 0x1 SWAP3 DUP4 ADD SWAP3 ADD PUSH2 0xBCC JUMP JUMPDEST CALLVALUE PUSH2 0x13A JUMPI PUSH1 0x60 CALLDATASIZE PUSH1 0x3 NOT ADD SLT PUSH2 0x13A JUMPI PUSH1 0x24 CALLDATALOAD PUSH8 0xFFFFFFFFFFFFFFFF DUP2 GT PUSH2 0x13A JUMPI CALLDATASIZE PUSH1 0x23 DUP3 ADD SLT ISZERO PUSH2 0x13A JUMPI DUP1 PUSH1 0x4 ADD CALLDATALOAD SWAP1 PUSH8 0xFFFFFFFFFFFFFFFF DUP3 GT PUSH2 0x13A JUMPI CALLDATASIZE PUSH1 0x24 DUP4 PUSH1 0x5 SHL DUP4 ADD ADD GT PUSH2 0x13A JUMPI PUSH1 0x44 CALLDATALOAD SWAP1 DUP2 ISZERO ISZERO DUP3 SUB PUSH2 0x13A JUMPI PUSH2 0xDA0 CALLER PUSH32 0x0 PUSH1 0x1 PUSH1 0x1 PUSH1 0xA0 SHL SUB AND EQ PUSH2 0x11B4 JUMP JUMPDEST PUSH1 0x4 CALLDATALOAD PUSH0 MSTORE PUSH0 PUSH1 0x20 MSTORE PUSH1 0x40 PUSH0 KECCAK256 SWAP2 PUSH1 0x4 DUP4 SLOAD AND ISZERO PUSH2 0xE8A JUMPI ISZERO PUSH2 0xE5A JUMPI PUSH1 0x7 PUSH0 SWAP4 SWAP3 ADD SWAP3 JUMPDEST DUP3 DUP2 LT ISZERO PUSH2 0xE58 JUMPI PUSH1 0x24 PUSH1 0x5 DUP3 SWAP1 SHL DUP4 ADD ADD CALLDATALOAD PUSH1 0x1 PUSH1 0x1 PUSH1 0xA0 SHL SUB DUP2 AND SWAP2 SWAP1 DUP3 SWAP1 SUB PUSH2 0x13A JUMPI DUP5 SLOAD SWAP2 PUSH9 0x10000000000000000 DUP4 LT ISZERO PUSH2 0xE44 JUMPI PUSH1 0x1 DUP4 ADD DUP1 DUP8 SSTORE DUP4 LT ISZERO PUSH2 0xE30 JUMPI PUSH1 0x1 SWAP3 DUP7 PUSH0 MSTORE PUSH1 0x20 PUSH0 KECCAK256 ADD SWAP1 PUSH1 0x1 PUSH1 0x1 PUSH1 0x60 SHL SUB PUSH1 0xA0 SHL DUP3 SLOAD AND OR SWAP1 SSTORE ADD PUSH2 0xDC5 JUMP JUMPDEST PUSH4 0x4E487B71 PUSH1 0xE0 SHL PUSH0 MSTORE PUSH1 0x32 PUSH1 0x4 MSTORE PUSH1 0x24 PUSH0 REVERT JUMPDEST PUSH4 0x4E487B71 PUSH1 0xE0 SHL PUSH0 MSTORE PUSH1 0x41 PUSH1 0x4 MSTORE PUSH1 0x24 PUSH0 REVERT JUMPDEST STOP JUMPDEST POP PUSH1 0x7 ADD DUP1 SLOAD PUSH0 DUP3 SSTORE SWAP2 POP DUP2 PUSH2 0xE6C JUMPI STOP JUMPDEST PUSH0 MSTORE PUSH1 0x20 PUSH0 KECCAK256 SWAP1 DUP2 ADD SWAP1 JUMPDEST DUP2 DUP2 LT ISZERO PUSH2 0xE58 JUMPI PUSH0 DUP2 SSTORE PUSH1 0x1 ADD PUSH2 0xE77 JUMP JUMPDEST PUSH1 0x40 MLOAD PUSH3 0x461BCD PUSH1 0xE5 SHL DUP2 MSTORE PUSH1 0x20 PUSH1 0x4 DUP3 ADD MSTORE PUSH1 0x17 PUSH1 0x24 DUP3 ADD MSTORE PUSH32 0x4D45563A204E6F742061207072697661746520706F6F6C000000000000000000 PUSH1 0x44 DUP3 ADD MSTORE PUSH1 0x64 SWAP1 REVERT JUMPDEST CALLVALUE PUSH2 0x13A JUMPI PUSH0 CALLDATASIZE PUSH1 0x3 NOT ADD SLT PUSH2 0x13A JUMPI PUSH1 0x20 PUSH1 0x3 SLOAD PUSH1 0x40 MLOAD SWAP1 DUP2 MSTORE RETURN JUMPDEST CALLVALUE PUSH2 0x13A JUMPI PUSH1 0x20 CALLDATASIZE PUSH1 0x3 NOT ADD SLT PUSH2 0x13A JUMPI PUSH1 0x4 CALLDATALOAD PUSH0 MSTORE PUSH0 PUSH1 0x20 MSTORE PUSH1 0xE0 PUSH1 0x40 PUSH0 KECCAK256 PUSH1 0xFF DUP2 SLOAD AND SWAP1 PUSH1 0x1 DUP2 ADD SLOAD SWAP1 PUSH1 0x2 DUP2 ADD SLOAD PUSH1 0x3 DUP3 ADD SLOAD PUSH1 0x4 DUP4 ADD SLOAD SWAP2 PUSH1 0x6 PUSH1 0x5 DUP6 ADD SLOAD SWAP5 ADD SLOAD SWAP5 PUSH1 0x40 MLOAD SWAP7 DUP8 MSTORE PUSH1 0x20 DUP8 ADD MSTORE PUSH1 0x40 DUP7 ADD MSTORE PUSH1 0x60 DUP6 ADD MSTORE PUSH1 0x80 DUP5 ADD MSTORE PUSH1 0xA0 DUP4 ADD MSTORE PUSH1 0xC0 DUP3 ADD MSTORE RETURN JUMPDEST CALLVALUE PUSH2 0x13A JUMPI PUSH1 0xC0 CALLDATASIZE PUSH1 0x3 NOT ADD SLT PUSH2 0x13A JUMPI PUSH1 0x4 CALLDATALOAD PUSH2 0xF75 PUSH2 0x10B6 JUMP JUMPDEST PUSH1 0x64 CALLDATALOAD SWAP2 DUP3 ISZERO ISZERO DUP1 SWAP4 SUB PUSH2 0x13A JUMPI DUP1 PUSH0 MSTORE PUSH1 0x1 PUSH1 0x20 MSTORE PUSH1 0x40 PUSH0 KECCAK256 PUSH1 0x1 DUP1 PUSH1 0xA0 SHL SUB DUP4 AND PUSH0 MSTORE PUSH1 0x20 MSTORE PUSH1 0x40 PUSH0 KECCAK256 SWAP2 PUSH1 0x40 MLOAD SWAP3 PUSH2 0xFAF DUP5 PUSH2 0x113D JUMP JUMPDEST DUP1 SLOAD DUP5 MSTORE PUSH1 0x1 DUP2 ADD SLOAD PUSH1 0x20 DUP6 ADD DUP2 SWAP1 MSTORE PUSH1 0x2 DUP3 ADD SLOAD PUSH1 0x1 PUSH1 0x1 PUSH1 0xA0 SHL SUB AND PUSH1 0x40 DUP7 ADD MSTORE PUSH1 0x3 SWAP1 SWAP2 ADD SLOAD PUSH1 0x60 DUP6 ADD SWAP1 DUP2 MSTORE SWAP1 NUMBER GT ISZERO PUSH2 0x1080 JUMPI MLOAD NUMBER GT PUSH2 0x104B JUMPI PUSH1 0x20 SWAP4 PUSH1 0x40 MLOAD SWAP2 DUP6 DUP4 ADD SWAP4 DUP5 MSTORE PUSH1 0x1 PUSH1 0x1 PUSH1 0x60 SHL SUB NOT SWAP1 PUSH1 0x60 SHL AND PUSH1 0x40 DUP4 ADD MSTORE PUSH1 0x44 CALLDATALOAD PUSH1 0x54 DUP4 ADD MSTORE PUSH1 0xF8 SHL PUSH1 0x74 DUP3 ADD MSTORE PUSH1 0x84 CALLDATALOAD PUSH1 0x75 DUP3 ADD MSTORE PUSH1 0xA4 CALLDATALOAD PUSH1 0x95 DUP3 ADD MSTORE PUSH1 0x95 DUP2 MSTORE PUSH2 0x103D PUSH1 0xB5 DUP3 PUSH2 0x1192 JUMP JUMPDEST MLOAD SWAP1 KECCAK256 SWAP1 MLOAD EQ PUSH1 0x40 MLOAD SWAP1 DUP2 MSTORE RETURN JUMPDEST PUSH1 0x40 MLOAD PUSH3 0x461BCD PUSH1 0xE5 SHL DUP2 MSTORE PUSH1 0x20 PUSH1 0x4 DUP3 ADD MSTORE PUSH1 0xD PUSH1 0x24 DUP3 ADD MSTORE PUSH13 0x4D45563A20546F6F206C617465 PUSH1 0x98 SHL PUSH1 0x44 DUP3 ADD MSTORE PUSH1 0x64 SWAP1 REVERT JUMPDEST PUSH1 0x40 MLOAD PUSH3 0x461BCD PUSH1 0xE5 SHL DUP2 MSTORE PUSH1 0x20 PUSH1 0x4 DUP3 ADD MSTORE PUSH1 0xE PUSH1 0x24 DUP3 ADD MSTORE PUSH14 0x4D45563A20546F6F206561726C79 PUSH1 0x90 SHL PUSH1 0x44 DUP3 ADD MSTORE PUSH1 0x64 SWAP1 REVERT JUMPDEST PUSH1 0x24 CALLDATALOAD SWAP1 PUSH1 0x1 PUSH1 0x1 PUSH1 0xA0 SHL SUB DUP3 AND DUP3 SUB PUSH2 0x13A JUMPI JUMP JUMPDEST DUP1 MLOAD DUP1 DUP4 MSTORE PUSH1 0x20 SWAP3 SWAP2 DUP2 SWAP1 DUP5 ADD DUP5 DUP5 ADD MCOPY PUSH0 DUP3 DUP3 ADD DUP5 ADD MSTORE PUSH1 0x1F ADD PUSH1 0x1F NOT AND ADD ADD SWAP1 JUMP JUMPDEST PUSH1 0x80 SWAP1 PUSH1 0x3 NOT ADD SLT PUSH2 0x13A JUMPI PUSH1 0x4 CALLDATALOAD SWAP1 PUSH1 0x24 CALLDATALOAD PUSH1 0x1 PUSH1 0x1 PUSH1 0xA0 SHL SUB DUP2 AND DUP2 SUB PUSH2 0x13A JUMPI SWAP1 PUSH1 0x44 CALLDATALOAD SWAP1 PUSH1 0x64 CALLDATALOAD DUP1 ISZERO ISZERO DUP2 SUB PUSH2 0x13A JUMPI SWAP1 JUMP JUMPDEST PUSH1 0x40 SWAP1 PUSH1 0x3 NOT ADD SLT PUSH2 0x13A JUMPI PUSH1 0x4 CALLDATALOAD SWAP1 PUSH1 0x24 CALLDATALOAD SWAP1 JUMP JUMPDEST PUSH1 0x80 DUP2 ADD SWAP1 DUP2 LT PUSH8 0xFFFFFFFFFFFFFFFF DUP3 GT OR PUSH2 0xE44 JUMPI PUSH1 0x40 MSTORE JUMP JUMPDEST PUSH2 0x100 DUP2 ADD SWAP1 DUP2 LT PUSH8 0xFFFFFFFFFFFFFFFF DUP3 GT OR PUSH2 0xE44 JUMPI PUSH1 0x40 MSTORE JUMP JUMPDEST PUSH1 0xA0 DUP2 ADD SWAP1 DUP2 LT PUSH8 0xFFFFFFFFFFFFFFFF DUP3 GT OR PUSH2 0xE44 JUMPI PUSH1 0x40 MSTORE JUMP JUMPDEST SWAP1 PUSH1 0x1F DUP1 NOT SWAP2 ADD AND DUP2 ADD SWAP1 DUP2 LT PUSH8 0xFFFFFFFFFFFFFFFF DUP3 GT OR PUSH2 0xE44 JUMPI PUSH1 0x40 MSTORE JUMP JUMPDEST ISZERO PUSH2 0x11BB JUMPI JUMP JUMPDEST PUSH1 0x40 MLOAD PUSH3 0x461BCD PUSH1 0xE5 SHL DUP2 MSTORE PUSH1 0x20 PUSH1 0x4 DUP3 ADD MSTORE PUSH1 0x15 PUSH1 0x24 DUP3 ADD MSTORE PUSH21 0x26A2AB1D102737BA103837B7B61036B0B730B3B2B9 PUSH1 0x59 SHL PUSH1 0x44 DUP3 ADD MSTORE PUSH1 0x64 SWAP1 REVERT JUMPDEST DUP2 DUP2 MUL SWAP3 SWAP2 DUP2 ISZERO SWAP2 DUP5 DIV EQ OR ISZERO PUSH2 0x340 JUMPI JUMP JUMPDEST SWAP2 SWAP1 DUP3 ADD DUP1 SWAP3 GT PUSH2 0x340 JUMPI JUMP JUMPDEST PUSH0 MSTORE PUSH0 PUSH1 0x20 MSTORE PUSH1 0x40 PUSH0 KECCAK256 SWAP1 PUSH1 0x7 PUSH1 0x40 MLOAD SWAP3 PUSH2 0x1232 DUP5 PUSH2 0x1159 JUMP JUMPDEST PUSH1 0xFF DUP2 SLOAD AND DUP5 MSTORE PUSH1 0x1 DUP2 ADD SLOAD PUSH1 0x20 DUP6 ADD MSTORE PUSH1 0x2 DUP2 ADD SLOAD PUSH1 0x40 DUP6 ADD MSTORE PUSH1 0x3 DUP2 ADD SLOAD PUSH1 0x60 DUP6 ADD MSTORE PUSH1 0x4 DUP2 ADD SLOAD PUSH1 0x80 DUP6 ADD MSTORE PUSH1 0x5 DUP2 ADD SLOAD PUSH1 0xA0 DUP6 ADD MSTORE PUSH1 0x6 DUP2 ADD SLOAD PUSH1 0xC0 DUP6 ADD MSTORE ADD SWAP2 PUSH1 0x40 MLOAD DUP1 SWAP4 DUP5 SWAP2 PUSH1 0x20 DUP3 SLOAD SWAP2 DUP3 DUP2 MSTORE ADD SWAP2 PUSH0 MSTORE PUSH1 0x20 PUSH0 KECCAK256 SWAP1 PUSH0 JUMPDEST DUP2 DUP2 LT PUSH2 0x1304 JUMPI POP POP POP PUSH1 0x4 SWAP3 SWAP2 PUSH2 0x12AA SWAP2 SUB DUP6 PUSH2 0x1192 JUMP JUMPDEST PUSH1 0xE0 DUP2 ADD SWAP4 DUP5 MSTORE MLOAD AND ISZERO PUSH2 0x12FD JUMPI PUSH0 SWAP2 MLOAD DUP1 MLOAD SWAP3 JUMPDEST DUP4 DUP2 LT ISZERO PUSH2 0x12F5 JUMPI PUSH1 0x5 DUP2 SWAP1 SHL DUP3 ADD PUSH1 0x20 ADD MLOAD PUSH1 0x1 PUSH1 0x1 PUSH1 0xA0 SHL SUB DUP5 DUP2 AND SWAP2 AND EQ PUSH2 0x12EC JUMPI PUSH1 0x1 ADD PUSH2 0x12BF JUMP JUMPDEST POP POP POP POP PUSH1 0x1 SWAP1 JUMP JUMPDEST POP POP POP POP PUSH0 SWAP1 JUMP JUMPDEST POP POP PUSH1 0x1 SWAP1 JUMP JUMPDEST DUP3 SLOAD PUSH1 0x1 PUSH1 0x1 PUSH1 0xA0 SHL SUB AND DUP5 MSTORE DUP8 SWAP5 POP PUSH1 0x20 SWAP1 SWAP4 ADD SWAP3 PUSH1 0x1 SWAP3 DUP4 ADD SWAP3 ADD PUSH2 0x1291 JUMP JUMPDEST SWAP2 SWAP1 DUP3 SUB SWAP2 DUP3 GT PUSH2 0x340 JUMPI JUMP JUMPDEST SWAP1 DUP2 PUSH0 MSTORE PUSH0 PUSH1 0x20 MSTORE PUSH1 0x40 PUSH0 KECCAK256 SWAP2 PUSH1 0x40 MLOAD PUSH2 0x134C DUP2 PUSH2 0x1159 JUMP JUMPDEST PUSH1 0xFF DUP5 SLOAD AND DUP2 MSTORE PUSH1 0x1 DUP5 ADD SLOAD PUSH1 0x20 DUP3 ADD MSTORE PUSH1 0x2 DUP5 ADD SLOAD PUSH1 0x40 DUP3 ADD MSTORE PUSH1 0x3 DUP5 ADD SLOAD PUSH1 0x60 DUP3 ADD MSTORE PUSH1 0x4 DUP5 ADD SLOAD PUSH1 0x80 DUP3 ADD MSTORE PUSH1 0x5 DUP5 ADD SLOAD PUSH1 0xA0 DUP3 ADD MSTORE PUSH1 0x7 PUSH1 0x6 DUP6 ADD SLOAD SWAP5 PUSH1 0xC0 DUP4 ADD SWAP6 DUP7 MSTORE ADD PUSH1 0x40 MLOAD SWAP1 DUP2 PUSH1 0x20 DUP3 SLOAD SWAP2 DUP3 DUP2 MSTORE ADD SWAP2 PUSH0 MSTORE PUSH1 0x20 PUSH0 KECCAK256 SWAP1 PUSH0 JUMPDEST DUP2 DUP2 LT PUSH2 0x142F JUMPI POP POP POP SWAP1 PUSH2 0x13C7 DUP2 PUSH1 0x10 SWAP5 SWAP4 SUB DUP3 PUSH2 0x1192 JUMP JUMPDEST PUSH1 0xE0 DUP3 ADD MSTORE MLOAD AND ISZERO PUSH2 0x1425 JUMPI PUSH0 MSTORE PUSH1 0x4 PUSH1 0x20 MSTORE PUSH1 0x3 PUSH1 0x40 PUSH0 KECCAK256 ADD SWAP1 PUSH1 0x1 DUP1 PUSH1 0xA0 SHL SUB AND PUSH0 MSTORE PUSH1 0x20 MSTORE PUSH1 0x40 PUSH0 KECCAK256 SLOAD DUP1 ISZERO PUSH2 0x141C JUMPI PUSH2 0x1404 SWAP1 TIMESTAMP PUSH2 0x1326 JUMP JUMPDEST SWAP1 MLOAD SWAP1 DUP2 DUP2 LT ISZERO PUSH2 0x141C JUMPI PUSH2 0x1418 SWAP2 PUSH2 0x1326 JUMP JUMPDEST PUSH0 SWAP2 JUMP JUMPDEST POP POP PUSH1 0x1 SWAP1 PUSH0 SWAP1 JUMP JUMPDEST POP POP POP PUSH1 0x1 SWAP1 PUSH0 SWAP1 JUMP JUMPDEST DUP3 SLOAD PUSH1 0x1 PUSH1 0x1 PUSH1 0xA0 SHL SUB AND DUP5 MSTORE PUSH1 0x20 SWAP1 SWAP4 ADD SWAP3 PUSH1 0x1 SWAP3 DUP4 ADD SWAP3 ADD PUSH2 0x13AD JUMP JUMPDEST SWAP3 SWAP1 SWAP3 DUP1 PUSH0 MSTORE PUSH0 PUSH1 0x20 MSTORE PUSH1 0x40 PUSH0 KECCAK256 SWAP4 PUSH1 0x40 MLOAD SWAP5 PUSH2 0x146A DUP7 PUSH2 0x1159 JUMP JUMPDEST PUSH1 0xFF DUP2 SLOAD AND DUP7 MSTORE PUSH1 0x1 DUP2 ADD SLOAD SWAP6 PUSH1 0x20 DUP2 ADD SWAP7 DUP8 MSTORE PUSH1 0x7 PUSH1 0x2 DUP4 ADD SLOAD SWAP3 PUSH1 0x40 DUP4 ADD SWAP4 DUP5 MSTORE PUSH1 0x3 DUP2 ADD SLOAD PUSH1 0x60 DUP5 ADD MSTORE PUSH1 0x4 DUP2 ADD SLOAD PUSH1 0x80 DUP5 ADD MSTORE PUSH1 0x5 DUP2 ADD SLOAD PUSH1 0xA0 DUP5 ADD MSTORE PUSH1 0x6 DUP2 ADD SLOAD PUSH1 0xC0 DUP5 ADD MSTORE ADD PUSH1 0x40 MLOAD DUP1 DUP3 PUSH1 0x20 DUP3 SWAP5 SLOAD SWAP4 DUP5 DUP2 MSTORE ADD SWAP1 PUSH0 MSTORE PUSH1 0x20 PUSH0 KECCAK256 SWAP3 PUSH0 JUMPDEST DUP2 DUP2 LT PUSH2 0x16DA JUMPI POP POP PUSH2 0x14E4 SWAP3 POP SUB DUP3 PUSH2 0x1192 JUMP JUMPDEST PUSH1 0xE0 DUP3 ADD MSTORE MLOAD SWAP5 PUSH1 0xFF DUP7 AND SWAP7 DUP8 ISZERO PUSH2 0x16CB JUMPI DUP2 ISZERO PUSH2 0x16AD JUMPI JUMPDEST POP ISZERO DUP1 PUSH2 0x16A1 JUMPI JUMPDEST PUSH2 0x1694 JUMPI PUSH1 0x1 SWAP6 SWAP5 PUSH1 0x8 AND ISZERO PUSH2 0x168D JUMPI POP DUP2 PUSH0 MSTORE PUSH0 PUSH1 0x20 MSTORE PUSH1 0x40 PUSH0 KECCAK256 SWAP1 PUSH1 0x40 MLOAD SWAP3 PUSH2 0x152F DUP5 PUSH2 0x1159 JUMP JUMPDEST PUSH1 0xFF DUP4 SLOAD AND DUP5 MSTORE DUP7 DUP4 ADD SLOAD PUSH1 0x20 DUP6 ADD MSTORE PUSH1 0x2 DUP4 ADD SLOAD SWAP4 PUSH1 0x40 DUP2 ADD SWAP5 DUP6 MSTORE PUSH1 0x7 PUSH1 0x3 DUP6 ADD SLOAD SWAP5 PUSH1 0x60 DUP4 ADD SWAP6 DUP7 MSTORE PUSH1 0x4 DUP2 ADD SLOAD PUSH1 0x80 DUP5 ADD MSTORE PUSH1 0x5 DUP2 ADD SLOAD PUSH1 0xA0 DUP5 ADD MSTORE PUSH1 0x6 DUP2 ADD SLOAD PUSH1 0xC0 DUP5 ADD MSTORE ADD PUSH1 0x40 MLOAD SWAP2 DUP3 DUP1 SWAP4 PUSH1 0x20 DUP5 SLOAD SWAP2 DUP3 DUP2 MSTORE ADD SWAP4 PUSH0 MSTORE PUSH1 0x20 PUSH0 KECCAK256 SWAP1 DUP13 PUSH0 JUMPDEST DUP3 DUP2 LT PUSH2 0x166C JUMPI POP POP POP POP PUSH2 0x15AE SWAP1 PUSH1 0xE0 SWAP4 SUB DUP5 PUSH2 0x1192 JUMP JUMPDEST ADD MSTORE PUSH0 MSTORE PUSH1 0x4 PUSH1 0x20 MSTORE PUSH1 0x40 PUSH0 KECCAK256 SWAP3 MLOAD PUSH2 0x15CA DUP8 DUP6 ADD SLOAD NUMBER PUSH2 0x1326 JUMP JUMPDEST PUSH1 0x3 DUP2 LT ISZERO PUSH2 0x1651 JUMPI POP DUP3 MLOAD PUSH2 0x15DF SWAP2 PUSH2 0x120B JUMP JUMPDEST SWAP3 PUSH1 0x5 PUSH1 0x2 DUP3 ADD SLOAD GT PUSH2 0x163C JUMPI JUMPDEST SLOAD SWAP1 DUP2 PUSH2 0x15FB JUMPI JUMPDEST POP POP POP SWAP1 JUMP JUMPDEST PUSH1 0x64 DUP2 MUL SWAP1 DUP1 DUP3 DIV PUSH1 0x64 EQ SWAP1 ISZERO OR ISZERO PUSH2 0x340 JUMPI PUSH1 0xA SWAP2 PUSH2 0x161A SWAP2 PUSH2 0x16FC JUMP JUMPDEST GT PUSH2 0x1627 JUMPI JUMPDEST DUP1 DUP1 PUSH2 0x15F5 JUMP JUMPDEST SWAP1 PUSH2 0x1636 SWAP2 MLOAD PUSH1 0x2 SHR SWAP1 PUSH2 0x120B JUMP JUMPDEST PUSH0 PUSH2 0x1620 JUMP JUMPDEST SWAP3 PUSH2 0x164B SWAP1 DUP4 MLOAD DUP9 SHR SWAP1 PUSH2 0x120B JUMP JUMPDEST SWAP3 PUSH2 0x15ED JUMP JUMPDEST PUSH1 0xA SWAP1 SWAP5 SWAP2 SWAP5 LT ISZERO PUSH2 0x15ED JUMPI SWAP3 PUSH2 0x164B SWAP1 DUP4 MLOAD DUP9 SHR SWAP1 PUSH2 0x120B JUMP JUMPDEST DUP4 SLOAD PUSH1 0x1 PUSH1 0x1 PUSH1 0xA0 SHL SUB AND DUP8 MSTORE PUSH1 0x20 SWAP1 SWAP7 ADD SWAP6 DUP8 SWAP5 POP SWAP3 DUP2 ADD SWAP3 DUP2 ADD PUSH2 0x1595 JUMP JUMPDEST SWAP2 POP POP MLOAD SWAP1 JUMP JUMPDEST MLOAD PUSH0 SWAP6 POP DUP6 SWAP5 POP SWAP3 SWAP2 POP POP JUMP JUMPDEST POP PUSH1 0x20 DUP6 AND ISZERO ISZERO PUSH2 0x1505 JUMP JUMPDEST MLOAD DUP1 ISZERO ISZERO SWAP2 POP DUP2 PUSH2 0x16C0 JUMPI JUMPDEST POP PUSH0 PUSH2 0x14FD JUMP JUMPDEST SWAP1 POP DUP3 LT ISZERO PUSH0 PUSH2 0x16B9 JUMP JUMPDEST POP POP MLOAD PUSH0 SWAP6 POP DUP6 SWAP5 POP SWAP3 SWAP2 POP POP JUMP JUMPDEST DUP5 SLOAD PUSH1 0x1 PUSH1 0x1 PUSH1 0xA0 SHL SUB AND DUP4 MSTORE PUSH1 0x1 SWAP5 DUP6 ADD SWAP5 DUP7 SWAP5 POP PUSH1 0x20 SWAP1 SWAP4 ADD SWAP3 ADD PUSH2 0x14CF JUMP JUMPDEST DUP2 ISZERO PUSH2 0x938 JUMPI DIV SWAP1 JUMP JUMPDEST PUSH0 MSTORE PUSH1 0x2 PUSH1 0x20 MSTORE PUSH1 0x40 PUSH0 KECCAK256 SWAP1 PUSH0 MSTORE PUSH1 0x20 MSTORE PUSH1 0x40 PUSH0 KECCAK256 PUSH1 0x40 MLOAD PUSH2 0x1727 DUP2 PUSH2 0x1176 JUMP JUMPDEST DUP2 SLOAD DUP2 MSTORE PUSH1 0x1 DUP3 ADD SLOAD SWAP2 PUSH1 0x20 DUP3 ADD SWAP3 DUP1 DUP5 MSTORE PUSH1 0x2 DUP3 ADD SLOAD PUSH1 0x40 DUP5 ADD SWAP2 DUP2 DUP4 MSTORE PUSH1 0x3 DUP5 ADD SLOAD PUSH1 0x4 PUSH1 0x60 DUP8 ADD SWAP6 DUP3 DUP8 MSTORE ADD SLOAD PUSH1 0x80 DUP8 ADD MSTORE NUMBER LT ISZERO PUSH2 0x17D7 JUMPI POP SWAP1 PUSH2 0x1772 PUSH2 0x177C SWAP3 NUMBER PUSH2 0x1326 JUMP JUMPDEST SWAP3 MLOAD SWAP1 MLOAD SWAP1 PUSH2 0x1326 JUMP JUMPDEST SWAP3 DUP3 MLOAD DUP2 MLOAD DUP1 DUP3 GT PUSH0 EQ PUSH2 0x17B9 JUMPI POP POP SWAP3 PUSH2 0x17AA PUSH2 0x17AF SWAP3 PUSH2 0x17A5 PUSH2 0x17B6 SWAP7 DUP7 MLOAD SWAP1 MLOAD SWAP1 PUSH2 0x1326 JUMP JUMPDEST PUSH2 0x11F8 JUMP JUMPDEST PUSH2 0x16FC JUMP JUMPDEST SWAP1 MLOAD PUSH2 0x1326 JUMP JUMPDEST SWAP1 JUMP JUMPDEST PUSH2 0x17B6 SWAP6 SWAP3 POP SWAP3 PUSH2 0x17A5 PUSH2 0x17AA SWAP3 PUSH2 0x17D0 SWAP6 PUSH2 0x1326 JUMP JUMPDEST SWAP1 MLOAD PUSH2 0x120B JUMP JUMPDEST SWAP5 POP POP POP POP POP SWAP1 JUMP JUMPDEST PUSH1 0xFF AND DUP1 ISZERO PUSH2 0x191D JUMPI PUSH1 0x8 DUP2 EQ PUSH2 0x18ED JUMPI PUSH1 0x18 DUP2 EQ PUSH2 0x18B1 JUMPI PUSH1 0x9 DUP2 EQ PUSH2 0x1875 JUMPI PUSH1 0x3F EQ PUSH2 0x183A JUMPI PUSH1 0x40 MLOAD PUSH2 0x1816 PUSH1 0x40 DUP3 PUSH2 0x1192 JUMP JUMPDEST PUSH1 0x14 DUP2 MSTORE PUSH20 0x21BAB9BA37B69021B7B73334B3BAB930BA34B7B7 PUSH1 0x61 SHL PUSH1 0x20 DUP3 ADD MSTORE SWAP1 JUMP JUMPDEST PUSH1 0x40 MLOAD PUSH2 0x1848 PUSH1 0x40 DUP3 PUSH2 0x1192 JUMP JUMPDEST PUSH1 0x18 DUP2 MSTORE PUSH32 0x4D6178696D756D3A20416C6C2050726F74656374696F6E730000000000000000 PUSH1 0x20 DUP3 ADD MSTORE SWAP1 JUMP JUMPDEST POP PUSH1 0x40 MLOAD PUSH2 0x1884 PUSH1 0x40 DUP3 PUSH2 0x1192 JUMP JUMPDEST PUSH1 0x1A DUP2 MSTORE PUSH32 0x486967683A20436F6D6D69742D52657665616C202B2046656573000000000000 PUSH1 0x20 DUP3 ADD MSTORE SWAP1 JUMP JUMPDEST POP PUSH1 0x40 MLOAD PUSH2 0x18C0 PUSH1 0x40 DUP3 PUSH2 0x1192 JUMP JUMPDEST PUSH1 0x17 DUP2 MSTORE PUSH32 0x4D656469756D3A2046656573202B2054696D656C6F636B000000000000000000 PUSH1 0x20 DUP3 ADD MSTORE SWAP1 JUMP JUMPDEST POP PUSH1 0x40 MLOAD PUSH2 0x18FC PUSH1 0x40 DUP3 PUSH2 0x1192 JUMP JUMPDEST PUSH1 0x11 DUP2 MSTORE PUSH17 0x4C6F773A2044796E616D69632046656573 PUSH1 0x78 SHL PUSH1 0x20 DUP3 ADD MSTORE SWAP1 JUMP JUMPDEST POP PUSH1 0x40 MLOAD PUSH2 0x192C PUSH1 0x40 DUP3 PUSH2 0x1192 JUMP JUMPDEST PUSH1 0x11 DUP2 MSTORE PUSH17 0x27379026A2AB10283937BA32B1BA34B7B7 PUSH1 0x79 SHL PUSH1 0x20 DUP3 ADD MSTORE SWAP1 JUMP INVALID LOG2 PUSH5 0x6970667358 0x22 SLT KECCAK256 ADD 0xC5 0xC7 0xDC BLOBBASEFEE 0xBD PUSH15 0xED3841D29B96CB776EABEA63181718 RETURNCONTRACT 0x5 0x4C 0xE SHR LOG3 MSTORE PUSH14 0x8A8264736F6C634300081E003300 "},"methodIdentifiers":{"canTrade(uint256,address)":"9326b633","checkTradeProtection(uint256,address,uint256,bool)":"a8cc4f6e","commitTrade(uint256,bytes32)":"53ec34a4","commitments(uint256,address)":"e90d4c06","configurePoolProtection(uint256,uint8,uint256)":"9cbe6cd1","createGradualOrder(uint256,uint256,uint256,uint256)":"951b70a3","detectSandwichPattern(uint256,address,uint256,bool)":"d96edd2d","getCurrentGradualPrice(uint256,uint256)":"ab17e604","getPoolMEVConfig(uint256)":"87184999","gradualOrders(uint256,uint256)":"f552771a","hasProtection(uint256)":"560903e5","isWhitelisted(uint256,address)":"7d22c35c","nextOrderId()":"2a58b330","poolConfigs(uint256)":"0f5ba217","poolManager()":"dc4c90d3","setCustomParameters(uint256,uint256,uint256,uint256,uint256,uint256)":"6e45f438","updateWhitelist(uint256,address[],bool)":"301e3ecb","verifyAndReveal(uint256,address,uint256,bool,uint256,uint256)":"03bf6a72"}}}}}