{"contracts/Core/security/CircuitBreaker.sol":{"CircuitBreaker":{"abi":[{"inputs":[{"internalType":"address","name":"_poolManager","type":"address"}],"stateMutability":"nonpayable","type":"constructor"},{"anonymous":false,"inputs":[{"indexed":true,"internalType":"uint256","name":"poolId","type":"uint256"}],"name":"CircuitBreakerReset","type":"event"},{"anonymous":false,"inputs":[{"indexed":true,"internalType":"uint256","name":"poolId","type":"uint256"},{"indexed":false,"internalType":"string","name":"reason","type":"string"},{"indexed":false,"internalType":"uint256","name":"pausedUntil","type":"uint256"}],"name":"CircuitBreakerTriggered","type":"event"},{"anonymous":false,"inputs":[{"indexed":false,"internalType":"uint256","name":"pausedUntil","type":"uint256"}],"name":"GlobalPauseActivated","type":"event"},{"anonymous":false,"inputs":[],"name":"GlobalPauseDeactivated","type":"event"},{"anonymous":false,"inputs":[{"indexed":true,"internalType":"uint256","name":"poolId","type":"uint256"},{"indexed":false,"internalType":"uint256","name":"maxSwapSize","type":"uint256"},{"indexed":false,"internalType":"uint256","name":"dailyVolumeLimit","type":"uint256"},{"indexed":false,"internalType":"uint256","name":"cooldownPeriod","type":"uint256"}],"name":"LimitsUpdated","type":"event"},{"anonymous":false,"inputs":[{"indexed":true,"internalType":"uint256","name":"poolId","type":"uint256"},{"indexed":false,"internalType":"string","name":"activityType","type":"string"},{"indexed":false,"internalType":"uint256","name":"severity","type":"uint256"}],"name":"SuspiciousActivityDetected","type":"event"},{"inputs":[],"name":"DEFAULT_COOLDOWN","outputs":[{"internalType":"uint256","name":"","type":"uint256"}],"stateMutability":"view","type":"function"},{"inputs":[],"name":"MAX_CONSECUTIVE_FAILURES","outputs":[{"internalType":"uint256","name":"","type":"uint256"}],"stateMutability":"view","type":"function"},{"inputs":[],"name":"SUSPICIOUS_ACTIVITY_THRESHOLD","outputs":[{"internalType":"uint256","name":"","type":"uint256"}],"stateMutability":"view","type":"function"},{"inputs":[],"name":"VOLUME_RESET_PERIOD","outputs":[{"internalType":"uint256","name":"","type":"uint256"}],"stateMutability":"view","type":"function"},{"inputs":[{"internalType":"uint256","name":"duration","type":"uint256"}],"name":"activateGlobalPause","outputs":[],"stateMutability":"nonpayable","type":"function"},{"inputs":[{"internalType":"uint256","name":"poolId","type":"uint256"},{"internalType":"uint256","name":"operationSize","type":"uint256"},{"internalType":"bool","name":"isLargeOperation","type":"bool"}],"name":"checkOperation","outputs":[{"internalType":"bool","name":"allowed","type":"bool"},{"internalType":"string","name":"reason","type":"string"}],"stateMutability":"view","type":"function"},{"inputs":[],"name":"deactivateGlobalPause","outputs":[],"stateMutability":"nonpayable","type":"function"},{"inputs":[{"internalType":"uint256","name":"poolId","type":"uint256"}],"name":"getRemainingCooldown","outputs":[{"internalType":"uint256","name":"","type":"uint256"}],"stateMutability":"view","type":"function"},{"inputs":[],"name":"globalPause","outputs":[{"internalType":"bool","name":"","type":"bool"}],"stateMutability":"view","type":"function"},{"inputs":[],"name":"globalPauseUntil","outputs":[{"internalType":"uint256","name":"","type":"uint256"}],"stateMutability":"view","type":"function"},{"inputs":[{"internalType":"address","name":"","type":"address"}],"name":"guardians","outputs":[{"internalType":"bool","name":"","type":"bool"}],"stateMutability":"view","type":"function"},{"inputs":[{"internalType":"uint256","name":"poolId","type":"uint256"}],"name":"isPoolPaused","outputs":[{"internalType":"bool","name":"","type":"bool"}],"stateMutability":"view","type":"function"},{"inputs":[{"internalType":"uint256","name":"poolId","type":"uint256"},{"internalType":"uint256","name":"duration","type":"uint256"}],"name":"pausePool","outputs":[],"stateMutability":"nonpayable","type":"function"},{"inputs":[{"internalType":"uint256","name":"","type":"uint256"}],"name":"poolActivity","outputs":[{"internalType":"uint256","name":"lastLargeOperation","type":"uint256"},{"internalType":"uint256","name":"dailyVolume","type":"uint256"},{"internalType":"uint256","name":"lastVolumeReset","type":"uint256"},{"internalType":"uint256","name":"consecutiveFailures","type":"uint256"},{"internalType":"uint256","name":"suspiciousActivity","type":"uint256"}],"stateMutability":"view","type":"function"},{"inputs":[{"internalType":"uint256","name":"","type":"uint256"}],"name":"poolLimits","outputs":[{"internalType":"uint256","name":"maxSwapSize","type":"uint256"},{"internalType":"uint256","name":"dailyVolumeLimit","type":"uint256"},{"internalType":"uint256","name":"cooldownPeriod","type":"uint256"},{"internalType":"uint256","name":"maxPriceImpact","type":"uint256"},{"internalType":"bool","name":"isPaused","type":"bool"},{"internalType":"uint256","name":"pausedUntil","type":"uint256"}],"stateMutability":"view","type":"function"},{"inputs":[],"name":"poolManager","outputs":[{"internalType":"address","name":"","type":"address"}],"stateMutability":"view","type":"function"},{"inputs":[{"internalType":"uint256","name":"poolId","type":"uint256"}],"name":"recordFailure","outputs":[],"stateMutability":"nonpayable","type":"function"},{"inputs":[{"internalType":"uint256","name":"poolId","type":"uint256"},{"internalType":"uint256","name":"operationSize","type":"uint256"},{"internalType":"bool","name":"isLargeOperation","type":"bool"}],"name":"recordSuccess","outputs":[],"stateMutability":"nonpayable","type":"function"},{"inputs":[{"internalType":"uint256","name":"poolId","type":"uint256"},{"internalType":"string","name":"activityType","type":"string"},{"internalType":"uint256","name":"severity","type":"uint256"}],"name":"reportSuspiciousActivity","outputs":[],"stateMutability":"nonpayable","type":"function"},{"inputs":[{"internalType":"uint256","name":"poolId","type":"uint256"}],"name":"resumePool","outputs":[],"stateMutability":"nonpayable","type":"function"},{"inputs":[{"internalType":"address","name":"guardian","type":"address"},{"internalType":"bool","name":"status","type":"bool"}],"name":"setGuardian","outputs":[],"stateMutability":"nonpayable","type":"function"},{"inputs":[{"internalType":"uint256","name":"poolId","type":"uint256"},{"internalType":"uint256","name":"maxSwapSize","type":"uint256"},{"internalType":"uint256","name":"dailyVolumeLimit","type":"uint256"},{"internalType":"uint256","name":"cooldownPeriod","type":"uint256"},{"internalType":"uint256","name":"maxPriceImpact","type":"uint256"}],"name":"setPoolLimits","outputs":[],"stateMutability":"nonpayable","type":"function"}],"evm":{"bytecode":{"linkReferences":{},"object":"608034608657601f61125338819003918201601f19168301916001600160401b03831184841017608a57808492602094604052833981010312608657516001600160a01b03811690819003608657600480546001600160a01b031916821790555f9081526005602052604090819020805460ff19166001179055516111b4908161009f8239f35b5f80fd5b634e487b7160e01b5f52604160045260245ffdfe6080806040526004361015610012575f80fd5b5f3560e01c9081630633b14a14610b4e57508063119108e914610a5357806328084b33146109b35780632b8a1c5a1461094f57806334d73c41146109325780633a8d158a1461088f5780633c1ecc91146107a45780633c7a075c14610789578063565287501461076c5780635e0368351461054c5780636375184a146105315780636795346b14610493578063827059ff146104785780638e3dcabf1461045257806391d97362146103da57806399d6a7a0146103b25780639afe92f31461034d578063a5e6e8c5146102f7578063c2205a141461021b578063dc4c90d3146101f3578063f12d54d8146101d15763f8732a701461010e575f80fd5b346101cd5760203660031901126101cd57600435335f52600560205260ff60405f20541680156101b9575b61014290610caa565b6002805460ff191660011790558061018757507fa8896645e3eff73e980c042766e1d21e78378b0df9fb4bc68cb7a122ca6823f060205f5b80600355604051908152a1005b60206101b47fa8896645e3eff73e980c042766e1d21e78378b0df9fb4bc68cb7a122ca6823f09242610cf6565b61017a565b506004546001600160a01b03163314610139565b5f80fd5b346101cd575f3660031901126101cd57602060ff600254166040519015158152f35b346101cd575f3660031901126101cd576004546040516001600160a01b039091168152602090f35b346101cd5760a03660031901126101cd576004357fe3eb5d4eccdae2d96efa105f65c8db865f9fc72984f2b879a27448fed50d181560606024356044356064359061027160018060a01b03600454163314610be4565b610279610c30565b8381526005602082018381526102e060408401868152888501608435815260808601915f835260a08701945f86528d5f525f60205260405f2097518855516001880155516002870155516003860155511515600485019060ff801983541691151516179055565b5191015560405192835260208301526040820152a2005b346101cd5760203660031901126101cd576004355f52600160205260a060405f20805490600181015490600281015460046003830154920154926040519485526020850152604084015260608301526080820152f35b346101cd5760203660031901126101cd576004355f525f60205260c060405f208054906001810154906002810154600382015490600560ff600485015416930154936040519586526020860152604085015260608401521515608083015260a0820152f35b346101cd5760203660031901126101cd5760206103d060043561107c565b6040519015158152f35b346101cd575f3660031901126101cd57335f52600560205260ff60405f205416801561043e575b61040a90610caa565b60ff19600254166002555f6003557fb8da01427a864e7d1daf1f3047f673cee057dc56bb678ae20f12233b16f845ea5f80a1005b506004546001600160a01b03163314610401565b346101cd5760203660031901126101cd576020610470600435610fba565b604051908152f35b346101cd575f3660031901126101cd576020604051603c8152f35b346101cd576104a136610b9d565b9060ff60025416158015610526575b156104e1576104be92610d03565b906104dd60405192839215158352604060208401526040830190610bc0565b0390f35b60405162461bcd60e51b815260206004820152601f60248201527f43697263756974427265616b65723a20476c6f62616c6c7920706175736564006044820152606490fd5b5060035442116104b0565b346101cd575f3660031901126101cd57602060405160038152f35b346101cd5760603660031901126101cd5760043560243567ffffffffffffffff81116101cd57366023820112156101cd5780600401359067ffffffffffffffff82116101cd5736602483830101116101cd5760443590335f52600560205260ff60405f2054168015610758575b6105c290610caa565b8115158061074d575b15610715577f74cad5199163f0f418ae8f7ff1cd41a55f99adc62116f73090fa431b589a496b602460608693600596855f526001602052600460405f200196610615818954610cf6565b809855816040519586946040865282604087015201858501375f8383018501526020830152601f01601f19168101030190a2101561064f57005b6106596040610c84565b601d81527f537573706963696f7573206163746976697479207468726573686f6c640000006020820152815f525f602052600460405f2001600160ff198254161790556154604201804211610701575f838152602081905260409081902060050182905580518181527f852d074b1070f084be2b0e237453ef02a9ea5bd34f1223e5826e723ac10d632e939092839290916106f691840190610bc0565b9060208301520390a2005b634e487b7160e01b5f52601160045260245ffd5b60405162461bcd60e51b815260206004820152601060248201526f496e76616c696420736576657269747960801b6044820152606490fd5b50600a8211156105cb565b506004546001600160a01b031633146105b9565b346101cd575f3660031901126101cd576020604051620151808152f35b346101cd575f3660031901126101cd57602060405160058152f35b346101cd5760403660031901126101cd57600435602435335f52600560205260ff60405f205416801561087b575b6107db90610caa565b815f525f602052600460405f2001600160ff1982541617905580155f1461086c57505f5b815f525f602052600560405f200155805f525f6020527f852d074b1070f084be2b0e237453ef02a9ea5bd34f1223e5826e723ac10d632e6080600560405f2001546040519060408252600c60408301526b4d616e75616c20706175736560a01b60608301526020820152a2005b6108769042610cf6565b6107ff565b506004546001600160a01b031633146107d2565b346101cd5760203660031901126101cd57600435335f52600560205260ff60405f205416801561091e575b6108c390610caa565b5f818152602081815260408083206004818101805460ff1916905560059091018490556001909252822060038101839055018190557fcdce3dd4437cfe68002ed06c2f62be3eae06c268cb56d71b3c98825f4f9d7d349080a2005b506004546001600160a01b031633146108ba565b346101cd575f3660031901126101cd576020600354604051908152f35b346101cd5760403660031901126101cd57610968610b87565b60243580151581036101cd576109b19161098d60018060a01b03600454163314610be4565b60018060a01b03165f52600560205260405f209060ff801983541691151516179055565b005b346101cd576109c136610b9d565b6109d960018060a09594951b03600454163314610be4565b5f918252600160205260408220600381019290925560028201805462015180810194908490861061070157600495421115610a3b57600101554290555b610a33575b01805480158015610a2857005b610701575f19019055005b428155610a1b565b610a4c919250600101918254610cf6565b9055610a16565b346101cd5760203660031901126101cd57600435610a7c60018060a01b03600454163314610be4565b805f526001602052600360405f20018054905f198214610701576001600392018091551015610aa757005b610ab16040610c84565b601881527f4d617820636f6e7365637574697665206661696c7572657300000000000000006020820152815f525f602052600460405f2001600160ff19825416179055610e104201804211610701575f838152602081905260409081902060050182905580518181527f852d074b1070f084be2b0e237453ef02a9ea5bd34f1223e5826e723ac10d632e939092839290916106f691840190610bc0565b346101cd5760203660031901126101cd576020906001600160a01b03610b72610b87565b165f526005825260ff60405f20541615158152f35b600435906001600160a01b03821682036101cd57565b60609060031901126101cd57600435906024359060443580151581036101cd5790565b805180835260209291819084018484015e5f828201840152601f01601f1916010190565b15610beb57565b60405162461bcd60e51b815260206004820152601f60248201527f43697263756974427265616b65723a204e6f7420506f6f6c4d616e61676572006044820152606490fd5b6040519060c0820182811067ffffffffffffffff821117610c5057604052565b634e487b7160e01b5f52604160045260245ffd5b6040519060a0820182811067ffffffffffffffff821117610c5057604052565b6040519190601f01601f1916820167ffffffffffffffff811183821017610c5057604052565b15610cb157565b60405162461bcd60e51b815260206004820152601c60248201527f43697263756974427265616b65723a204e6f7420677561726469616e000000006044820152606490fd5b9190820180921161070157565b91825f525f60205260405f2091610d18610c30565b93835485526001840154926020860193845260028501546040870190815260038601546060880152600560ff6004880154169660808901971515885201549160a08801928352835f52600160205260405f2097610d73610c64565b938954855260018a0154602086015260028a01546040860152600460038b01549a606087019b8c5201549860808601998a5251610f67575b50518015159081610f5d575b50610f245780610f1a575b610ec9575b50508251610e6d575b505050600590511015610e3357600390511015610dfa57600190610df46020610c84565b5f815290565b5f90610e066040610c84565b601d81527f546f6f206d616e7920636f6e7365637574697665206661696c75726573000000602082015290565b505f90610e406040610c84565b601c81527f537573706963696f757320616374697669747920646574656374656400000000602082015290565b90610e7a610e7f9261111e565b610cf6565b905110610e8e575f8080610dd0565b50505f90610e9c6040610c84565b601a81527f45786365656473206461696c7920766f6c756d65206c696d6974000000000000602082015290565b610ed69151905190610cf6565b4210610ee3575f80610dc7565b50505050505f90610ef46040610c84565b6016815275436f6f6c646f776e20706572696f642061637469766560501b602082015290565b5080511515610dc2565b50505050505050505f90610f386040610c84565b601581527445786365656473206d617820737761702073697a6560581b602082015290565b905085115f610db7565b518015908115610fb0575b50610f7d575f610dab565b5050505050505050505f90610f926040610c84565b600e81526d141bdbdb081a5cc81c185d5cd95960921b602082015290565b905042105f610f72565b805f52600160205260405f20906004610fd1610c64565b9280548452600181015460208501526002810154604085015260038101546060850152015460808301525f525f60205260405f20611055611010610c30565b825481526001830154602082015260028301549060a0600560408301958487526003810154606085015260ff6004820154161515608085015201549101528351610cf6565b421015611076576110699151905190610cf6565b4281039081116107015790565b50505f90565b60ff6002541680611100575b6110fa575f525f60205260405f2060a06110a0610c30565b82548152600183015460208201526002830154604082015260038301546060820152600560ff60048501541615159384608084015201549182910152816110e5575090565b8015915081156110f3575090565b9050421090565b50600190565b506003548015908115611114575b50611088565b905042105f61110e565b5f52600160205260405f20611131610c64565b90805482526001810154916020810192835260806004600284015493846040850152600381015460608501520154910152620151808101809111610701574211611179575190565b505f9056fea2646970667358221220ee577cfec2f765118f2b340aacb720ad4f10a707051a1b0e9365d6210b71098864736f6c634300081e0033","opcodes":"PUSH1 0x80 CALLVALUE PUSH1 0x86 JUMPI PUSH1 0x1F PUSH2 0x1253 CODESIZE DUP2 SWAP1 SUB SWAP2 DUP3 ADD PUSH1 0x1F NOT AND DUP4 ADD SWAP2 PUSH1 0x1 PUSH1 0x1 PUSH1 0x40 SHL SUB DUP4 GT DUP5 DUP5 LT OR PUSH1 0x8A JUMPI DUP1 DUP5 SWAP3 PUSH1 0x20 SWAP5 PUSH1 0x40 MSTORE DUP4 CODECOPY DUP2 ADD SUB SLT PUSH1 0x86 JUMPI MLOAD PUSH1 0x1 PUSH1 0x1 PUSH1 0xA0 SHL SUB DUP2 AND SWAP1 DUP2 SWAP1 SUB PUSH1 0x86 JUMPI PUSH1 0x4 DUP1 SLOAD PUSH1 0x1 PUSH1 0x1 PUSH1 0xA0 SHL SUB NOT AND DUP3 OR SWAP1 SSTORE PUSH0 SWAP1 DUP2 MSTORE PUSH1 0x5 PUSH1 0x20 MSTORE PUSH1 0x40 SWAP1 DUP2 SWAP1 KECCAK256 DUP1 SLOAD PUSH1 0xFF NOT AND PUSH1 0x1 OR SWAP1 SSTORE MLOAD PUSH2 0x11B4 SWAP1 DUP2 PUSH2 0x9F DUP3 CODECOPY RETURN JUMPDEST PUSH0 DUP1 REVERT JUMPDEST PUSH4 0x4E487B71 PUSH1 0xE0 SHL PUSH0 MSTORE PUSH1 0x41 PUSH1 0x4 MSTORE PUSH1 0x24 PUSH0 REVERT INVALID PUSH1 0x80 DUP1 PUSH1 0x40 MSTORE PUSH1 0x4 CALLDATASIZE LT ISZERO PUSH2 0x12 JUMPI PUSH0 DUP1 REVERT JUMPDEST PUSH0 CALLDATALOAD PUSH1 0xE0 SHR SWAP1 DUP2 PUSH4 0x633B14A EQ PUSH2 0xB4E JUMPI POP DUP1 PUSH4 0x119108E9 EQ PUSH2 0xA53 JUMPI DUP1 PUSH4 0x28084B33 EQ PUSH2 0x9B3 JUMPI DUP1 PUSH4 0x2B8A1C5A EQ PUSH2 0x94F JUMPI DUP1 PUSH4 0x34D73C41 EQ PUSH2 0x932 JUMPI DUP1 PUSH4 0x3A8D158A EQ PUSH2 0x88F JUMPI DUP1 PUSH4 0x3C1ECC91 EQ PUSH2 0x7A4 JUMPI DUP1 PUSH4 0x3C7A075C EQ PUSH2 0x789 JUMPI DUP1 PUSH4 0x56528750 EQ PUSH2 0x76C JUMPI DUP1 PUSH4 0x5E036835 EQ PUSH2 0x54C JUMPI DUP1 PUSH4 0x6375184A EQ PUSH2 0x531 JUMPI DUP1 PUSH4 0x6795346B EQ PUSH2 0x493 JUMPI DUP1 PUSH4 0x827059FF EQ PUSH2 0x478 JUMPI DUP1 PUSH4 0x8E3DCABF EQ PUSH2 0x452 JUMPI DUP1 PUSH4 0x91D97362 EQ PUSH2 0x3DA JUMPI DUP1 PUSH4 0x99D6A7A0 EQ PUSH2 0x3B2 JUMPI DUP1 PUSH4 0x9AFE92F3 EQ PUSH2 0x34D JUMPI DUP1 PUSH4 0xA5E6E8C5 EQ PUSH2 0x2F7 JUMPI DUP1 PUSH4 0xC2205A14 EQ PUSH2 0x21B JUMPI DUP1 PUSH4 0xDC4C90D3 EQ PUSH2 0x1F3 JUMPI DUP1 PUSH4 0xF12D54D8 EQ PUSH2 0x1D1 JUMPI PUSH4 0xF8732A70 EQ PUSH2 0x10E JUMPI PUSH0 DUP1 REVERT JUMPDEST CALLVALUE PUSH2 0x1CD JUMPI PUSH1 0x20 CALLDATASIZE PUSH1 0x3 NOT ADD SLT PUSH2 0x1CD JUMPI PUSH1 0x4 CALLDATALOAD CALLER PUSH0 MSTORE PUSH1 0x5 PUSH1 0x20 MSTORE PUSH1 0xFF PUSH1 0x40 PUSH0 KECCAK256 SLOAD AND DUP1 ISZERO PUSH2 0x1B9 JUMPI JUMPDEST PUSH2 0x142 SWAP1 PUSH2 0xCAA JUMP JUMPDEST PUSH1 0x2 DUP1 SLOAD PUSH1 0xFF NOT AND PUSH1 0x1 OR SWAP1 SSTORE DUP1 PUSH2 0x187 JUMPI POP PUSH32 0xA8896645E3EFF73E980C042766E1D21E78378B0DF9FB4BC68CB7A122CA6823F0 PUSH1 0x20 PUSH0 JUMPDEST DUP1 PUSH1 0x3 SSTORE PUSH1 0x40 MLOAD SWAP1 DUP2 MSTORE LOG1 STOP JUMPDEST PUSH1 0x20 PUSH2 0x1B4 PUSH32 0xA8896645E3EFF73E980C042766E1D21E78378B0DF9FB4BC68CB7A122CA6823F0 SWAP3 TIMESTAMP PUSH2 0xCF6 JUMP JUMPDEST PUSH2 0x17A JUMP JUMPDEST POP PUSH1 0x4 SLOAD PUSH1 0x1 PUSH1 0x1 PUSH1 0xA0 SHL SUB AND CALLER EQ PUSH2 0x139 JUMP JUMPDEST PUSH0 DUP1 REVERT JUMPDEST CALLVALUE PUSH2 0x1CD JUMPI PUSH0 CALLDATASIZE PUSH1 0x3 NOT ADD SLT PUSH2 0x1CD JUMPI PUSH1 0x20 PUSH1 0xFF PUSH1 0x2 SLOAD AND PUSH1 0x40 MLOAD SWAP1 ISZERO ISZERO DUP2 MSTORE RETURN JUMPDEST CALLVALUE PUSH2 0x1CD JUMPI PUSH0 CALLDATASIZE PUSH1 0x3 NOT ADD SLT PUSH2 0x1CD JUMPI PUSH1 0x4 SLOAD PUSH1 0x40 MLOAD PUSH1 0x1 PUSH1 0x1 PUSH1 0xA0 SHL SUB SWAP1 SWAP2 AND DUP2 MSTORE PUSH1 0x20 SWAP1 RETURN JUMPDEST CALLVALUE PUSH2 0x1CD JUMPI PUSH1 0xA0 CALLDATASIZE PUSH1 0x3 NOT ADD SLT PUSH2 0x1CD JUMPI PUSH1 0x4 CALLDATALOAD PUSH32 0xE3EB5D4ECCDAE2D96EFA105F65C8DB865F9FC72984F2B879A27448FED50D1815 PUSH1 0x60 PUSH1 0x24 CALLDATALOAD PUSH1 0x44 CALLDATALOAD PUSH1 0x64 CALLDATALOAD SWAP1 PUSH2 0x271 PUSH1 0x1 DUP1 PUSH1 0xA0 SHL SUB PUSH1 0x4 SLOAD AND CALLER EQ PUSH2 0xBE4 JUMP JUMPDEST PUSH2 0x279 PUSH2 0xC30 JUMP JUMPDEST DUP4 DUP2 MSTORE PUSH1 0x5 PUSH1 0x20 DUP3 ADD DUP4 DUP2 MSTORE PUSH2 0x2E0 PUSH1 0x40 DUP5 ADD DUP7 DUP2 MSTORE DUP9 DUP6 ADD PUSH1 0x84 CALLDATALOAD DUP2 MSTORE PUSH1 0x80 DUP7 ADD SWAP2 PUSH0 DUP4 MSTORE PUSH1 0xA0 DUP8 ADD SWAP5 PUSH0 DUP7 MSTORE DUP14 PUSH0 MSTORE PUSH0 PUSH1 0x20 MSTORE PUSH1 0x40 PUSH0 KECCAK256 SWAP8 MLOAD DUP9 SSTORE MLOAD PUSH1 0x1 DUP9 ADD SSTORE MLOAD PUSH1 0x2 DUP8 ADD SSTORE MLOAD PUSH1 0x3 DUP7 ADD SSTORE MLOAD ISZERO ISZERO PUSH1 0x4 DUP6 ADD SWAP1 PUSH1 0xFF DUP1 NOT DUP4 SLOAD AND SWAP2 ISZERO ISZERO AND OR SWAP1 SSTORE JUMP JUMPDEST MLOAD SWAP2 ADD SSTORE PUSH1 0x40 MLOAD SWAP3 DUP4 MSTORE PUSH1 0x20 DUP4 ADD MSTORE PUSH1 0x40 DUP3 ADD MSTORE LOG2 STOP JUMPDEST CALLVALUE PUSH2 0x1CD JUMPI PUSH1 0x20 CALLDATASIZE PUSH1 0x3 NOT ADD SLT PUSH2 0x1CD JUMPI PUSH1 0x4 CALLDATALOAD PUSH0 MSTORE PUSH1 0x1 PUSH1 0x20 MSTORE PUSH1 0xA0 PUSH1 0x40 PUSH0 KECCAK256 DUP1 SLOAD SWAP1 PUSH1 0x1 DUP2 ADD SLOAD SWAP1 PUSH1 0x2 DUP2 ADD SLOAD PUSH1 0x4 PUSH1 0x3 DUP4 ADD SLOAD SWAP3 ADD SLOAD SWAP3 PUSH1 0x40 MLOAD SWAP5 DUP6 MSTORE PUSH1 0x20 DUP6 ADD MSTORE PUSH1 0x40 DUP5 ADD MSTORE PUSH1 0x60 DUP4 ADD MSTORE PUSH1 0x80 DUP3 ADD MSTORE RETURN JUMPDEST CALLVALUE PUSH2 0x1CD JUMPI PUSH1 0x20 CALLDATASIZE PUSH1 0x3 NOT ADD SLT PUSH2 0x1CD JUMPI PUSH1 0x4 CALLDATALOAD PUSH0 MSTORE PUSH0 PUSH1 0x20 MSTORE PUSH1 0xC0 PUSH1 0x40 PUSH0 KECCAK256 DUP1 SLOAD SWAP1 PUSH1 0x1 DUP2 ADD SLOAD SWAP1 PUSH1 0x2 DUP2 ADD SLOAD PUSH1 0x3 DUP3 ADD SLOAD SWAP1 PUSH1 0x5 PUSH1 0xFF PUSH1 0x4 DUP6 ADD SLOAD AND SWAP4 ADD SLOAD SWAP4 PUSH1 0x40 MLOAD SWAP6 DUP7 MSTORE PUSH1 0x20 DUP7 ADD MSTORE PUSH1 0x40 DUP6 ADD MSTORE PUSH1 0x60 DUP5 ADD MSTORE ISZERO ISZERO PUSH1 0x80 DUP4 ADD MSTORE PUSH1 0xA0 DUP3 ADD MSTORE RETURN JUMPDEST CALLVALUE PUSH2 0x1CD JUMPI PUSH1 0x20 CALLDATASIZE PUSH1 0x3 NOT ADD SLT PUSH2 0x1CD JUMPI PUSH1 0x20 PUSH2 0x3D0 PUSH1 0x4 CALLDATALOAD PUSH2 0x107C JUMP JUMPDEST PUSH1 0x40 MLOAD SWAP1 ISZERO ISZERO DUP2 MSTORE RETURN JUMPDEST CALLVALUE PUSH2 0x1CD JUMPI PUSH0 CALLDATASIZE PUSH1 0x3 NOT ADD SLT PUSH2 0x1CD JUMPI CALLER PUSH0 MSTORE PUSH1 0x5 PUSH1 0x20 MSTORE PUSH1 0xFF PUSH1 0x40 PUSH0 KECCAK256 SLOAD AND DUP1 ISZERO PUSH2 0x43E JUMPI JUMPDEST PUSH2 0x40A SWAP1 PUSH2 0xCAA JUMP JUMPDEST PUSH1 0xFF NOT PUSH1 0x2 SLOAD AND PUSH1 0x2 SSTORE PUSH0 PUSH1 0x3 SSTORE PUSH32 0xB8DA01427A864E7D1DAF1F3047F673CEE057DC56BB678AE20F12233B16F845EA PUSH0 DUP1 LOG1 STOP JUMPDEST POP PUSH1 0x4 SLOAD PUSH1 0x1 PUSH1 0x1 PUSH1 0xA0 SHL SUB AND CALLER EQ PUSH2 0x401 JUMP JUMPDEST CALLVALUE PUSH2 0x1CD JUMPI PUSH1 0x20 CALLDATASIZE PUSH1 0x3 NOT ADD SLT PUSH2 0x1CD JUMPI PUSH1 0x20 PUSH2 0x470 PUSH1 0x4 CALLDATALOAD PUSH2 0xFBA JUMP JUMPDEST PUSH1 0x40 MLOAD SWAP1 DUP2 MSTORE RETURN JUMPDEST CALLVALUE PUSH2 0x1CD JUMPI PUSH0 CALLDATASIZE PUSH1 0x3 NOT ADD SLT PUSH2 0x1CD JUMPI PUSH1 0x20 PUSH1 0x40 MLOAD PUSH1 0x3C DUP2 MSTORE RETURN JUMPDEST CALLVALUE PUSH2 0x1CD JUMPI PUSH2 0x4A1 CALLDATASIZE PUSH2 0xB9D JUMP JUMPDEST SWAP1 PUSH1 0xFF PUSH1 0x2 SLOAD AND ISZERO DUP1 ISZERO PUSH2 0x526 JUMPI JUMPDEST ISZERO PUSH2 0x4E1 JUMPI PUSH2 0x4BE SWAP3 PUSH2 0xD03 JUMP JUMPDEST SWAP1 PUSH2 0x4DD PUSH1 0x40 MLOAD SWAP3 DUP4 SWAP3 ISZERO ISZERO DUP4 MSTORE PUSH1 0x40 PUSH1 0x20 DUP5 ADD MSTORE PUSH1 0x40 DUP4 ADD SWAP1 PUSH2 0xBC0 JUMP JUMPDEST SUB SWAP1 RETURN JUMPDEST PUSH1 0x40 MLOAD PUSH3 0x461BCD PUSH1 0xE5 SHL DUP2 MSTORE PUSH1 0x20 PUSH1 0x4 DUP3 ADD MSTORE PUSH1 0x1F PUSH1 0x24 DUP3 ADD MSTORE PUSH32 0x43697263756974427265616B65723A20476C6F62616C6C792070617573656400 PUSH1 0x44 DUP3 ADD MSTORE PUSH1 0x64 SWAP1 REVERT JUMPDEST POP PUSH1 0x3 SLOAD TIMESTAMP GT PUSH2 0x4B0 JUMP JUMPDEST CALLVALUE PUSH2 0x1CD JUMPI PUSH0 CALLDATASIZE PUSH1 0x3 NOT ADD SLT PUSH2 0x1CD JUMPI PUSH1 0x20 PUSH1 0x40 MLOAD PUSH1 0x3 DUP2 MSTORE RETURN JUMPDEST CALLVALUE PUSH2 0x1CD JUMPI PUSH1 0x60 CALLDATASIZE PUSH1 0x3 NOT ADD SLT PUSH2 0x1CD JUMPI PUSH1 0x4 CALLDATALOAD PUSH1 0x24 CALLDATALOAD PUSH8 0xFFFFFFFFFFFFFFFF DUP2 GT PUSH2 0x1CD JUMPI CALLDATASIZE PUSH1 0x23 DUP3 ADD SLT ISZERO PUSH2 0x1CD JUMPI DUP1 PUSH1 0x4 ADD CALLDATALOAD SWAP1 PUSH8 0xFFFFFFFFFFFFFFFF DUP3 GT PUSH2 0x1CD JUMPI CALLDATASIZE PUSH1 0x24 DUP4 DUP4 ADD ADD GT PUSH2 0x1CD JUMPI PUSH1 0x44 CALLDATALOAD SWAP1 CALLER PUSH0 MSTORE PUSH1 0x5 PUSH1 0x20 MSTORE PUSH1 0xFF PUSH1 0x40 PUSH0 KECCAK256 SLOAD AND DUP1 ISZERO PUSH2 0x758 JUMPI JUMPDEST PUSH2 0x5C2 SWAP1 PUSH2 0xCAA JUMP JUMPDEST DUP2 ISZERO ISZERO DUP1 PUSH2 0x74D JUMPI JUMPDEST ISZERO PUSH2 0x715 JUMPI PUSH32 0x74CAD5199163F0F418AE8F7FF1CD41A55F99ADC62116F73090FA431B589A496B PUSH1 0x24 PUSH1 0x60 DUP7 SWAP4 PUSH1 0x5 SWAP7 DUP6 PUSH0 MSTORE PUSH1 0x1 PUSH1 0x20 MSTORE PUSH1 0x4 PUSH1 0x40 PUSH0 KECCAK256 ADD SWAP7 PUSH2 0x615 DUP2 DUP10 SLOAD PUSH2 0xCF6 JUMP JUMPDEST DUP1 SWAP9 SSTORE DUP2 PUSH1 0x40 MLOAD SWAP6 DUP7 SWAP5 PUSH1 0x40 DUP7 MSTORE DUP3 PUSH1 0x40 DUP8 ADD MSTORE ADD DUP6 DUP6 ADD CALLDATACOPY PUSH0 DUP4 DUP4 ADD DUP6 ADD MSTORE PUSH1 0x20 DUP4 ADD MSTORE PUSH1 0x1F ADD PUSH1 0x1F NOT AND DUP2 ADD SUB ADD SWAP1 LOG2 LT ISZERO PUSH2 0x64F JUMPI STOP JUMPDEST PUSH2 0x659 PUSH1 0x40 PUSH2 0xC84 JUMP JUMPDEST PUSH1 0x1D DUP2 MSTORE PUSH32 0x537573706963696F7573206163746976697479207468726573686F6C64000000 PUSH1 0x20 DUP3 ADD MSTORE DUP2 PUSH0 MSTORE PUSH0 PUSH1 0x20 MSTORE PUSH1 0x4 PUSH1 0x40 PUSH0 KECCAK256 ADD PUSH1 0x1 PUSH1 0xFF NOT DUP3 SLOAD AND OR SWAP1 SSTORE PUSH2 0x5460 TIMESTAMP ADD DUP1 TIMESTAMP GT PUSH2 0x701 JUMPI PUSH0 DUP4 DUP2 MSTORE PUSH1 0x20 DUP2 SWAP1 MSTORE PUSH1 0x40 SWAP1 DUP2 SWAP1 KECCAK256 PUSH1 0x5 ADD DUP3 SWAP1 SSTORE DUP1 MLOAD DUP2 DUP2 MSTORE PUSH32 0x852D074B1070F084BE2B0E237453EF02A9EA5BD34F1223E5826E723AC10D632E SWAP4 SWAP1 SWAP3 DUP4 SWAP3 SWAP1 SWAP2 PUSH2 0x6F6 SWAP2 DUP5 ADD SWAP1 PUSH2 0xBC0 JUMP JUMPDEST SWAP1 PUSH1 0x20 DUP4 ADD MSTORE SUB SWAP1 LOG2 STOP JUMPDEST PUSH4 0x4E487B71 PUSH1 0xE0 SHL PUSH0 MSTORE PUSH1 0x11 PUSH1 0x4 MSTORE PUSH1 0x24 PUSH0 REVERT JUMPDEST PUSH1 0x40 MLOAD PUSH3 0x461BCD PUSH1 0xE5 SHL DUP2 MSTORE PUSH1 0x20 PUSH1 0x4 DUP3 ADD MSTORE PUSH1 0x10 PUSH1 0x24 DUP3 ADD MSTORE PUSH16 0x496E76616C6964207365766572697479 PUSH1 0x80 SHL PUSH1 0x44 DUP3 ADD MSTORE PUSH1 0x64 SWAP1 REVERT JUMPDEST POP PUSH1 0xA DUP3 GT ISZERO PUSH2 0x5CB JUMP JUMPDEST POP PUSH1 0x4 SLOAD PUSH1 0x1 PUSH1 0x1 PUSH1 0xA0 SHL SUB AND CALLER EQ PUSH2 0x5B9 JUMP JUMPDEST CALLVALUE PUSH2 0x1CD JUMPI PUSH0 CALLDATASIZE PUSH1 0x3 NOT ADD SLT PUSH2 0x1CD JUMPI PUSH1 0x20 PUSH1 0x40 MLOAD PUSH3 0x15180 DUP2 MSTORE RETURN JUMPDEST CALLVALUE PUSH2 0x1CD JUMPI PUSH0 CALLDATASIZE PUSH1 0x3 NOT ADD SLT PUSH2 0x1CD JUMPI PUSH1 0x20 PUSH1 0x40 MLOAD PUSH1 0x5 DUP2 MSTORE RETURN JUMPDEST CALLVALUE PUSH2 0x1CD JUMPI PUSH1 0x40 CALLDATASIZE PUSH1 0x3 NOT ADD SLT PUSH2 0x1CD JUMPI PUSH1 0x4 CALLDATALOAD PUSH1 0x24 CALLDATALOAD CALLER PUSH0 MSTORE PUSH1 0x5 PUSH1 0x20 MSTORE PUSH1 0xFF PUSH1 0x40 PUSH0 KECCAK256 SLOAD AND DUP1 ISZERO PUSH2 0x87B JUMPI JUMPDEST PUSH2 0x7DB SWAP1 PUSH2 0xCAA JUMP JUMPDEST DUP2 PUSH0 MSTORE PUSH0 PUSH1 0x20 MSTORE PUSH1 0x4 PUSH1 0x40 PUSH0 KECCAK256 ADD PUSH1 0x1 PUSH1 0xFF NOT DUP3 SLOAD AND OR SWAP1 SSTORE DUP1 ISZERO PUSH0 EQ PUSH2 0x86C JUMPI POP PUSH0 JUMPDEST DUP2 PUSH0 MSTORE PUSH0 PUSH1 0x20 MSTORE PUSH1 0x5 PUSH1 0x40 PUSH0 KECCAK256 ADD SSTORE DUP1 PUSH0 MSTORE PUSH0 PUSH1 0x20 MSTORE PUSH32 0x852D074B1070F084BE2B0E237453EF02A9EA5BD34F1223E5826E723AC10D632E PUSH1 0x80 PUSH1 0x5 PUSH1 0x40 PUSH0 KECCAK256 ADD SLOAD PUSH1 0x40 MLOAD SWAP1 PUSH1 0x40 DUP3 MSTORE PUSH1 0xC PUSH1 0x40 DUP4 ADD MSTORE PUSH12 0x4D616E75616C207061757365 PUSH1 0xA0 SHL PUSH1 0x60 DUP4 ADD MSTORE PUSH1 0x20 DUP3 ADD MSTORE LOG2 STOP JUMPDEST PUSH2 0x876 SWAP1 TIMESTAMP PUSH2 0xCF6 JUMP JUMPDEST PUSH2 0x7FF JUMP JUMPDEST POP PUSH1 0x4 SLOAD PUSH1 0x1 PUSH1 0x1 PUSH1 0xA0 SHL SUB AND CALLER EQ PUSH2 0x7D2 JUMP JUMPDEST CALLVALUE PUSH2 0x1CD JUMPI PUSH1 0x20 CALLDATASIZE PUSH1 0x3 NOT ADD SLT PUSH2 0x1CD JUMPI PUSH1 0x4 CALLDATALOAD CALLER PUSH0 MSTORE PUSH1 0x5 PUSH1 0x20 MSTORE PUSH1 0xFF PUSH1 0x40 PUSH0 KECCAK256 SLOAD AND DUP1 ISZERO PUSH2 0x91E JUMPI JUMPDEST PUSH2 0x8C3 SWAP1 PUSH2 0xCAA JUMP JUMPDEST PUSH0 DUP2 DUP2 MSTORE PUSH1 0x20 DUP2 DUP2 MSTORE PUSH1 0x40 DUP1 DUP4 KECCAK256 PUSH1 0x4 DUP2 DUP2 ADD DUP1 SLOAD PUSH1 0xFF NOT AND SWAP1 SSTORE PUSH1 0x5 SWAP1 SWAP2 ADD DUP5 SWAP1 SSTORE PUSH1 0x1 SWAP1 SWAP3 MSTORE DUP3 KECCAK256 PUSH1 0x3 DUP2 ADD DUP4 SWAP1 SSTORE ADD DUP2 SWAP1 SSTORE PUSH32 0xCDCE3DD4437CFE68002ED06C2F62BE3EAE06C268CB56D71B3C98825F4F9D7D34 SWAP1 DUP1 LOG2 STOP JUMPDEST POP PUSH1 0x4 SLOAD PUSH1 0x1 PUSH1 0x1 PUSH1 0xA0 SHL SUB AND CALLER EQ PUSH2 0x8BA JUMP JUMPDEST CALLVALUE PUSH2 0x1CD JUMPI PUSH0 CALLDATASIZE PUSH1 0x3 NOT ADD SLT PUSH2 0x1CD JUMPI PUSH1 0x20 PUSH1 0x3 SLOAD PUSH1 0x40 MLOAD SWAP1 DUP2 MSTORE RETURN JUMPDEST CALLVALUE PUSH2 0x1CD JUMPI PUSH1 0x40 CALLDATASIZE PUSH1 0x3 NOT ADD SLT PUSH2 0x1CD JUMPI PUSH2 0x968 PUSH2 0xB87 JUMP JUMPDEST PUSH1 0x24 CALLDATALOAD DUP1 ISZERO ISZERO DUP2 SUB PUSH2 0x1CD JUMPI PUSH2 0x9B1 SWAP2 PUSH2 0x98D PUSH1 0x1 DUP1 PUSH1 0xA0 SHL SUB PUSH1 0x4 SLOAD AND CALLER EQ PUSH2 0xBE4 JUMP JUMPDEST PUSH1 0x1 DUP1 PUSH1 0xA0 SHL SUB AND PUSH0 MSTORE PUSH1 0x5 PUSH1 0x20 MSTORE PUSH1 0x40 PUSH0 KECCAK256 SWAP1 PUSH1 0xFF DUP1 NOT DUP4 SLOAD AND SWAP2 ISZERO ISZERO AND OR SWAP1 SSTORE JUMP JUMPDEST STOP JUMPDEST CALLVALUE PUSH2 0x1CD JUMPI PUSH2 0x9C1 CALLDATASIZE PUSH2 0xB9D JUMP JUMPDEST PUSH2 0x9D9 PUSH1 0x1 DUP1 PUSH1 0xA0 SWAP6 SWAP5 SWAP6 SHL SUB PUSH1 0x4 SLOAD AND CALLER EQ PUSH2 0xBE4 JUMP JUMPDEST PUSH0 SWAP2 DUP3 MSTORE PUSH1 0x1 PUSH1 0x20 MSTORE PUSH1 0x40 DUP3 KECCAK256 PUSH1 0x3 DUP2 ADD SWAP3 SWAP1 SWAP3 SSTORE PUSH1 0x2 DUP3 ADD DUP1 SLOAD PUSH3 0x15180 DUP2 ADD SWAP5 SWAP1 DUP5 SWAP1 DUP7 LT PUSH2 0x701 JUMPI PUSH1 0x4 SWAP6 TIMESTAMP GT ISZERO PUSH2 0xA3B JUMPI PUSH1 0x1 ADD SSTORE TIMESTAMP SWAP1 SSTORE JUMPDEST PUSH2 0xA33 JUMPI JUMPDEST ADD DUP1 SLOAD DUP1 ISZERO DUP1 ISZERO PUSH2 0xA28 JUMPI STOP JUMPDEST PUSH2 0x701 JUMPI PUSH0 NOT ADD SWAP1 SSTORE STOP JUMPDEST TIMESTAMP DUP2 SSTORE PUSH2 0xA1B JUMP JUMPDEST PUSH2 0xA4C SWAP2 SWAP3 POP PUSH1 0x1 ADD SWAP2 DUP3 SLOAD PUSH2 0xCF6 JUMP JUMPDEST SWAP1 SSTORE PUSH2 0xA16 JUMP JUMPDEST CALLVALUE PUSH2 0x1CD JUMPI PUSH1 0x20 CALLDATASIZE PUSH1 0x3 NOT ADD SLT PUSH2 0x1CD JUMPI PUSH1 0x4 CALLDATALOAD PUSH2 0xA7C PUSH1 0x1 DUP1 PUSH1 0xA0 SHL SUB PUSH1 0x4 SLOAD AND CALLER EQ PUSH2 0xBE4 JUMP JUMPDEST DUP1 PUSH0 MSTORE PUSH1 0x1 PUSH1 0x20 MSTORE PUSH1 0x3 PUSH1 0x40 PUSH0 KECCAK256 ADD DUP1 SLOAD SWAP1 PUSH0 NOT DUP3 EQ PUSH2 0x701 JUMPI PUSH1 0x1 PUSH1 0x3 SWAP3 ADD DUP1 SWAP2 SSTORE LT ISZERO PUSH2 0xAA7 JUMPI STOP JUMPDEST PUSH2 0xAB1 PUSH1 0x40 PUSH2 0xC84 JUMP JUMPDEST PUSH1 0x18 DUP2 MSTORE PUSH32 0x4D617820636F6E7365637574697665206661696C757265730000000000000000 PUSH1 0x20 DUP3 ADD MSTORE DUP2 PUSH0 MSTORE PUSH0 PUSH1 0x20 MSTORE PUSH1 0x4 PUSH1 0x40 PUSH0 KECCAK256 ADD PUSH1 0x1 PUSH1 0xFF NOT DUP3 SLOAD AND OR SWAP1 SSTORE PUSH2 0xE10 TIMESTAMP ADD DUP1 TIMESTAMP GT PUSH2 0x701 JUMPI PUSH0 DUP4 DUP2 MSTORE PUSH1 0x20 DUP2 SWAP1 MSTORE PUSH1 0x40 SWAP1 DUP2 SWAP1 KECCAK256 PUSH1 0x5 ADD DUP3 SWAP1 SSTORE DUP1 MLOAD DUP2 DUP2 MSTORE PUSH32 0x852D074B1070F084BE2B0E237453EF02A9EA5BD34F1223E5826E723AC10D632E SWAP4 SWAP1 SWAP3 DUP4 SWAP3 SWAP1 SWAP2 PUSH2 0x6F6 SWAP2 DUP5 ADD SWAP1 PUSH2 0xBC0 JUMP JUMPDEST CALLVALUE PUSH2 0x1CD JUMPI PUSH1 0x20 CALLDATASIZE PUSH1 0x3 NOT ADD SLT PUSH2 0x1CD JUMPI PUSH1 0x20 SWAP1 PUSH1 0x1 PUSH1 0x1 PUSH1 0xA0 SHL SUB PUSH2 0xB72 PUSH2 0xB87 JUMP JUMPDEST AND PUSH0 MSTORE PUSH1 0x5 DUP3 MSTORE PUSH1 0xFF PUSH1 0x40 PUSH0 KECCAK256 SLOAD AND ISZERO ISZERO DUP2 MSTORE RETURN JUMPDEST PUSH1 0x4 CALLDATALOAD SWAP1 PUSH1 0x1 PUSH1 0x1 PUSH1 0xA0 SHL SUB DUP3 AND DUP3 SUB PUSH2 0x1CD JUMPI JUMP JUMPDEST PUSH1 0x60 SWAP1 PUSH1 0x3 NOT ADD SLT PUSH2 0x1CD JUMPI PUSH1 0x4 CALLDATALOAD SWAP1 PUSH1 0x24 CALLDATALOAD SWAP1 PUSH1 0x44 CALLDATALOAD DUP1 ISZERO ISZERO DUP2 SUB PUSH2 0x1CD JUMPI SWAP1 JUMP JUMPDEST DUP1 MLOAD DUP1 DUP4 MSTORE PUSH1 0x20 SWAP3 SWAP2 DUP2 SWAP1 DUP5 ADD DUP5 DUP5 ADD MCOPY PUSH0 DUP3 DUP3 ADD DUP5 ADD MSTORE PUSH1 0x1F ADD PUSH1 0x1F NOT AND ADD ADD SWAP1 JUMP JUMPDEST ISZERO PUSH2 0xBEB JUMPI JUMP JUMPDEST PUSH1 0x40 MLOAD PUSH3 0x461BCD PUSH1 0xE5 SHL DUP2 MSTORE PUSH1 0x20 PUSH1 0x4 DUP3 ADD MSTORE PUSH1 0x1F PUSH1 0x24 DUP3 ADD MSTORE PUSH32 0x43697263756974427265616B65723A204E6F7420506F6F6C4D616E6167657200 PUSH1 0x44 DUP3 ADD MSTORE PUSH1 0x64 SWAP1 REVERT JUMPDEST PUSH1 0x40 MLOAD SWAP1 PUSH1 0xC0 DUP3 ADD DUP3 DUP2 LT PUSH8 0xFFFFFFFFFFFFFFFF DUP3 GT OR PUSH2 0xC50 JUMPI PUSH1 0x40 MSTORE JUMP JUMPDEST PUSH4 0x4E487B71 PUSH1 0xE0 SHL PUSH0 MSTORE PUSH1 0x41 PUSH1 0x4 MSTORE PUSH1 0x24 PUSH0 REVERT JUMPDEST PUSH1 0x40 MLOAD SWAP1 PUSH1 0xA0 DUP3 ADD DUP3 DUP2 LT PUSH8 0xFFFFFFFFFFFFFFFF DUP3 GT OR PUSH2 0xC50 JUMPI PUSH1 0x40 MSTORE JUMP JUMPDEST PUSH1 0x40 MLOAD SWAP2 SWAP1 PUSH1 0x1F ADD PUSH1 0x1F NOT AND DUP3 ADD PUSH8 0xFFFFFFFFFFFFFFFF DUP2 GT DUP4 DUP3 LT OR PUSH2 0xC50 JUMPI PUSH1 0x40 MSTORE JUMP JUMPDEST ISZERO PUSH2 0xCB1 JUMPI JUMP JUMPDEST PUSH1 0x40 MLOAD PUSH3 0x461BCD PUSH1 0xE5 SHL DUP2 MSTORE PUSH1 0x20 PUSH1 0x4 DUP3 ADD MSTORE PUSH1 0x1C PUSH1 0x24 DUP3 ADD MSTORE PUSH32 0x43697263756974427265616B65723A204E6F7420677561726469616E00000000 PUSH1 0x44 DUP3 ADD MSTORE PUSH1 0x64 SWAP1 REVERT JUMPDEST SWAP2 SWAP1 DUP3 ADD DUP1 SWAP3 GT PUSH2 0x701 JUMPI JUMP JUMPDEST SWAP2 DUP3 PUSH0 MSTORE PUSH0 PUSH1 0x20 MSTORE PUSH1 0x40 PUSH0 KECCAK256 SWAP2 PUSH2 0xD18 PUSH2 0xC30 JUMP JUMPDEST SWAP4 DUP4 SLOAD DUP6 MSTORE PUSH1 0x1 DUP5 ADD SLOAD SWAP3 PUSH1 0x20 DUP7 ADD SWAP4 DUP5 MSTORE PUSH1 0x2 DUP6 ADD SLOAD PUSH1 0x40 DUP8 ADD SWAP1 DUP2 MSTORE PUSH1 0x3 DUP7 ADD SLOAD PUSH1 0x60 DUP9 ADD MSTORE PUSH1 0x5 PUSH1 0xFF PUSH1 0x4 DUP9 ADD SLOAD AND SWAP7 PUSH1 0x80 DUP10 ADD SWAP8 ISZERO ISZERO DUP9 MSTORE ADD SLOAD SWAP2 PUSH1 0xA0 DUP9 ADD SWAP3 DUP4 MSTORE DUP4 PUSH0 MSTORE PUSH1 0x1 PUSH1 0x20 MSTORE PUSH1 0x40 PUSH0 KECCAK256 SWAP8 PUSH2 0xD73 PUSH2 0xC64 JUMP JUMPDEST SWAP4 DUP10 SLOAD DUP6 MSTORE PUSH1 0x1 DUP11 ADD SLOAD PUSH1 0x20 DUP7 ADD MSTORE PUSH1 0x2 DUP11 ADD SLOAD PUSH1 0x40 DUP7 ADD MSTORE PUSH1 0x4 PUSH1 0x3 DUP12 ADD SLOAD SWAP11 PUSH1 0x60 DUP8 ADD SWAP12 DUP13 MSTORE ADD SLOAD SWAP9 PUSH1 0x80 DUP7 ADD SWAP10 DUP11 MSTORE MLOAD PUSH2 0xF67 JUMPI JUMPDEST POP MLOAD DUP1 ISZERO ISZERO SWAP1 DUP2 PUSH2 0xF5D JUMPI JUMPDEST POP PUSH2 0xF24 JUMPI DUP1 PUSH2 0xF1A JUMPI JUMPDEST PUSH2 0xEC9 JUMPI JUMPDEST POP POP DUP3 MLOAD PUSH2 0xE6D JUMPI JUMPDEST POP POP POP PUSH1 0x5 SWAP1 MLOAD LT ISZERO PUSH2 0xE33 JUMPI PUSH1 0x3 SWAP1 MLOAD LT ISZERO PUSH2 0xDFA JUMPI PUSH1 0x1 SWAP1 PUSH2 0xDF4 PUSH1 0x20 PUSH2 0xC84 JUMP JUMPDEST PUSH0 DUP2 MSTORE SWAP1 JUMP JUMPDEST PUSH0 SWAP1 PUSH2 0xE06 PUSH1 0x40 PUSH2 0xC84 JUMP JUMPDEST PUSH1 0x1D DUP2 MSTORE PUSH32 0x546F6F206D616E7920636F6E7365637574697665206661696C75726573000000 PUSH1 0x20 DUP3 ADD MSTORE SWAP1 JUMP JUMPDEST POP PUSH0 SWAP1 PUSH2 0xE40 PUSH1 0x40 PUSH2 0xC84 JUMP JUMPDEST PUSH1 0x1C DUP2 MSTORE PUSH32 0x537573706963696F757320616374697669747920646574656374656400000000 PUSH1 0x20 DUP3 ADD MSTORE SWAP1 JUMP JUMPDEST SWAP1 PUSH2 0xE7A PUSH2 0xE7F SWAP3 PUSH2 0x111E JUMP JUMPDEST PUSH2 0xCF6 JUMP JUMPDEST SWAP1 MLOAD LT PUSH2 0xE8E JUMPI PUSH0 DUP1 DUP1 PUSH2 0xDD0 JUMP JUMPDEST POP POP PUSH0 SWAP1 PUSH2 0xE9C PUSH1 0x40 PUSH2 0xC84 JUMP JUMPDEST PUSH1 0x1A DUP2 MSTORE PUSH32 0x45786365656473206461696C7920766F6C756D65206C696D6974000000000000 PUSH1 0x20 DUP3 ADD MSTORE SWAP1 JUMP JUMPDEST PUSH2 0xED6 SWAP2 MLOAD SWAP1 MLOAD SWAP1 PUSH2 0xCF6 JUMP JUMPDEST TIMESTAMP LT PUSH2 0xEE3 JUMPI PUSH0 DUP1 PUSH2 0xDC7 JUMP JUMPDEST POP POP POP POP POP PUSH0 SWAP1 PUSH2 0xEF4 PUSH1 0x40 PUSH2 0xC84 JUMP JUMPDEST PUSH1 0x16 DUP2 MSTORE PUSH22 0x436F6F6C646F776E20706572696F6420616374697665 PUSH1 0x50 SHL PUSH1 0x20 DUP3 ADD MSTORE SWAP1 JUMP JUMPDEST POP DUP1 MLOAD ISZERO ISZERO PUSH2 0xDC2 JUMP JUMPDEST POP POP POP POP POP POP POP POP PUSH0 SWAP1 PUSH2 0xF38 PUSH1 0x40 PUSH2 0xC84 JUMP JUMPDEST PUSH1 0x15 DUP2 MSTORE PUSH21 0x45786365656473206D617820737761702073697A65 PUSH1 0x58 SHL PUSH1 0x20 DUP3 ADD MSTORE SWAP1 JUMP JUMPDEST SWAP1 POP DUP6 GT PUSH0 PUSH2 0xDB7 JUMP JUMPDEST MLOAD DUP1 ISZERO SWAP1 DUP2 ISZERO PUSH2 0xFB0 JUMPI JUMPDEST POP PUSH2 0xF7D JUMPI PUSH0 PUSH2 0xDAB JUMP JUMPDEST POP POP POP POP POP POP POP POP POP PUSH0 SWAP1 PUSH2 0xF92 PUSH1 0x40 PUSH2 0xC84 JUMP JUMPDEST PUSH1 0xE DUP2 MSTORE PUSH14 0x141BDBDB081A5CC81C185D5CD959 PUSH1 0x92 SHL PUSH1 0x20 DUP3 ADD MSTORE SWAP1 JUMP JUMPDEST SWAP1 POP TIMESTAMP LT PUSH0 PUSH2 0xF72 JUMP JUMPDEST DUP1 PUSH0 MSTORE PUSH1 0x1 PUSH1 0x20 MSTORE PUSH1 0x40 PUSH0 KECCAK256 SWAP1 PUSH1 0x4 PUSH2 0xFD1 PUSH2 0xC64 JUMP JUMPDEST SWAP3 DUP1 SLOAD DUP5 MSTORE PUSH1 0x1 DUP2 ADD SLOAD PUSH1 0x20 DUP6 ADD MSTORE PUSH1 0x2 DUP2 ADD SLOAD PUSH1 0x40 DUP6 ADD MSTORE PUSH1 0x3 DUP2 ADD SLOAD PUSH1 0x60 DUP6 ADD MSTORE ADD SLOAD PUSH1 0x80 DUP4 ADD MSTORE PUSH0 MSTORE PUSH0 PUSH1 0x20 MSTORE PUSH1 0x40 PUSH0 KECCAK256 PUSH2 0x1055 PUSH2 0x1010 PUSH2 0xC30 JUMP JUMPDEST DUP3 SLOAD DUP2 MSTORE PUSH1 0x1 DUP4 ADD SLOAD PUSH1 0x20 DUP3 ADD MSTORE PUSH1 0x2 DUP4 ADD SLOAD SWAP1 PUSH1 0xA0 PUSH1 0x5 PUSH1 0x40 DUP4 ADD SWAP6 DUP5 DUP8 MSTORE PUSH1 0x3 DUP2 ADD SLOAD PUSH1 0x60 DUP6 ADD MSTORE PUSH1 0xFF PUSH1 0x4 DUP3 ADD SLOAD AND ISZERO ISZERO PUSH1 0x80 DUP6 ADD MSTORE ADD SLOAD SWAP2 ADD MSTORE DUP4 MLOAD PUSH2 0xCF6 JUMP JUMPDEST TIMESTAMP LT ISZERO PUSH2 0x1076 JUMPI PUSH2 0x1069 SWAP2 MLOAD SWAP1 MLOAD SWAP1 PUSH2 0xCF6 JUMP JUMPDEST TIMESTAMP DUP2 SUB SWAP1 DUP2 GT PUSH2 0x701 JUMPI SWAP1 JUMP JUMPDEST POP POP PUSH0 SWAP1 JUMP JUMPDEST PUSH1 0xFF PUSH1 0x2 SLOAD AND DUP1 PUSH2 0x1100 JUMPI JUMPDEST PUSH2 0x10FA JUMPI PUSH0 MSTORE PUSH0 PUSH1 0x20 MSTORE PUSH1 0x40 PUSH0 KECCAK256 PUSH1 0xA0 PUSH2 0x10A0 PUSH2 0xC30 JUMP JUMPDEST DUP3 SLOAD DUP2 MSTORE PUSH1 0x1 DUP4 ADD SLOAD PUSH1 0x20 DUP3 ADD MSTORE PUSH1 0x2 DUP4 ADD SLOAD PUSH1 0x40 DUP3 ADD MSTORE PUSH1 0x3 DUP4 ADD SLOAD PUSH1 0x60 DUP3 ADD MSTORE PUSH1 0x5 PUSH1 0xFF PUSH1 0x4 DUP6 ADD SLOAD AND ISZERO ISZERO SWAP4 DUP5 PUSH1 0x80 DUP5 ADD MSTORE ADD SLOAD SWAP2 DUP3 SWAP2 ADD MSTORE DUP2 PUSH2 0x10E5 JUMPI POP SWAP1 JUMP JUMPDEST DUP1 ISZERO SWAP2 POP DUP2 ISZERO PUSH2 0x10F3 JUMPI POP SWAP1 JUMP JUMPDEST SWAP1 POP TIMESTAMP LT SWAP1 JUMP JUMPDEST POP PUSH1 0x1 SWAP1 JUMP JUMPDEST POP PUSH1 0x3 SLOAD DUP1 ISZERO SWAP1 DUP2 ISZERO PUSH2 0x1114 JUMPI JUMPDEST POP PUSH2 0x1088 JUMP JUMPDEST SWAP1 POP TIMESTAMP LT PUSH0 PUSH2 0x110E JUMP JUMPDEST PUSH0 MSTORE PUSH1 0x1 PUSH1 0x20 MSTORE PUSH1 0x40 PUSH0 KECCAK256 PUSH2 0x1131 PUSH2 0xC64 JUMP JUMPDEST SWAP1 DUP1 SLOAD DUP3 MSTORE PUSH1 0x1 DUP2 ADD SLOAD SWAP2 PUSH1 0x20 DUP2 ADD SWAP3 DUP4 MSTORE PUSH1 0x80 PUSH1 0x4 PUSH1 0x2 DUP5 ADD SLOAD SWAP4 DUP5 PUSH1 0x40 DUP6 ADD MSTORE PUSH1 0x3 DUP2 ADD SLOAD PUSH1 0x60 DUP6 ADD MSTORE ADD SLOAD SWAP2 ADD MSTORE PUSH3 0x15180 DUP2 ADD DUP1 SWAP2 GT PUSH2 0x701 JUMPI TIMESTAMP GT PUSH2 0x1179 JUMPI MLOAD SWAP1 JUMP JUMPDEST POP PUSH0 SWAP1 JUMP INVALID LOG2 PUSH5 0x6970667358 0x22 SLT KECCAK256 RETURNCONTRACT 0x57 PUSH29 0xFEC2F765118F2B340AACB720AD4F10A707051A1B0E9365D6210B710988 PUSH5 0x736F6C6343 STOP ADDMOD 0x1E STOP CALLER "},"methodIdentifiers":{"DEFAULT_COOLDOWN()":"827059ff","MAX_CONSECUTIVE_FAILURES()":"6375184a","SUSPICIOUS_ACTIVITY_THRESHOLD()":"3c7a075c","VOLUME_RESET_PERIOD()":"56528750","activateGlobalPause(uint256)":"f8732a70","checkOperation(uint256,uint256,bool)":"6795346b","deactivateGlobalPause()":"91d97362","getRemainingCooldown(uint256)":"8e3dcabf","globalPause()":"f12d54d8","globalPauseUntil()":"34d73c41","guardians(address)":"0633b14a","isPoolPaused(uint256)":"99d6a7a0","pausePool(uint256,uint256)":"3c1ecc91","poolActivity(uint256)":"a5e6e8c5","poolLimits(uint256)":"9afe92f3","poolManager()":"dc4c90d3","recordFailure(uint256)":"119108e9","recordSuccess(uint256,uint256,bool)":"28084b33","reportSuspiciousActivity(uint256,string,uint256)":"5e036835","resumePool(uint256)":"3a8d158a","setGuardian(address,bool)":"2b8a1c5a","setPoolLimits(uint256,uint256,uint256,uint256,uint256)":"c2205a14"}}}}}