{"contracts/Core/PoolManager.sol":{"PoolManager":{"abi":[{"inputs":[{"internalType":"address","name":"_defaultData0Bridge","type":"address"},{"internalType":"address","name":"_defaultData1Bridge","type":"address"},{"internalType":"address","name":"_defaultData2Bridge","type":"address"},{"internalType":"address","name":"_defaultData3Bridge","type":"address"}],"stateMutability":"nonpayable","type":"constructor"},{"inputs":[],"name":"AssetTransferLib__Erc20TransferFailed","type":"error"},{"inputs":[],"name":"AssetTransferLib__EthNotExpected","type":"error"},{"inputs":[],"name":"AssetTransferLib__IncorrectEthSent","type":"error"},{"inputs":[],"name":"CommitReveal__CommitmentExpired","type":"error"},{"inputs":[],"name":"CommitReveal__CommitmentTooNew","type":"error"},{"inputs":[],"name":"CommitReveal__InvalidCommitment","type":"error"},{"inputs":[],"name":"CommitReveal__InvalidNonce","type":"error"},{"inputs":[{"internalType":"uint256","name":"required","type":"uint256"},{"internalType":"uint256","name":"available","type":"uint256"}],"name":"PoolManager__InsufficientAsset0","type":"error"},{"inputs":[{"internalType":"uint256","name":"required","type":"uint256"},{"internalType":"uint256","name":"available","type":"uint256"}],"name":"PoolManager__InsufficientAsset1","type":"error"},{"inputs":[],"name":"PoolManager__InsufficientLiquidityMinted","type":"error"},{"inputs":[{"internalType":"uint256","name":"minOut","type":"uint256"},{"internalType":"uint256","name":"actual","type":"uint256"}],"name":"PoolManager__InsufficientOutput","type":"error"},{"inputs":[{"internalType":"uint256","name":"amount0","type":"uint256"},{"internalType":"uint256","name":"amount1","type":"uint256"}],"name":"PoolManager__InsufficientWithdrawal","type":"error"},{"inputs":[],"name":"PoolManager__InvalidInitialAmounts","type":"error"},{"inputs":[],"name":"PoolManager__InvalidLiquidityAmount","type":"error"},{"inputs":[],"name":"PoolManager__InvalidQuote","type":"error"},{"inputs":[],"name":"PoolManager__MismatchedArrays","type":"error"},{"inputs":[],"name":"PoolManager__NoHops","type":"error"},{"inputs":[],"name":"PoolManager__NoLiquidity","type":"error"},{"inputs":[],"name":"PoolManager__NoMarkings","type":"error"},{"inputs":[{"internalType":"uint256","name":"poolID","type":"uint256"}],"name":"PoolManager__PoolAlreadyExists","type":"error"},{"anonymous":false,"inputs":[{"indexed":true,"internalType":"address","name":"owner","type":"address"},{"indexed":true,"internalType":"address","name":"spender","type":"address"},{"indexed":true,"internalType":"uint256","name":"id","type":"uint256"},{"indexed":false,"internalType":"uint256","name":"amount","type":"uint256"}],"name":"Approval","type":"event"},{"anonymous":false,"inputs":[{"indexed":true,"internalType":"bytes32","name":"commitment","type":"bytes32"},{"indexed":true,"internalType":"address","name":"trader","type":"address"}],"name":"CommittedSwapExecuted","type":"event"},{"anonymous":false,"inputs":[{"indexed":true,"internalType":"address","name":"owner","type":"address"},{"indexed":true,"internalType":"address","name":"operator","type":"address"},{"indexed":false,"internalType":"bool","name":"approved","type":"bool"}],"name":"OperatorSet","type":"event"},{"anonymous":false,"inputs":[{"indexed":true,"internalType":"uint256","name":"poolID","type":"uint256"},{"indexed":false,"internalType":"address","name":"asset0","type":"address"},{"indexed":false,"internalType":"address","name":"asset1","type":"address"},{"indexed":false,"internalType":"address","name":"quoter","type":"address"},{"indexed":false,"internalType":"bytes3","name":"markings","type":"bytes3"}],"name":"PoolCreated","type":"event"},{"anonymous":false,"inputs":[{"indexed":true,"internalType":"uint256","name":"poolID","type":"uint256"},{"indexed":false,"internalType":"address","name":"treasury","type":"address"},{"indexed":false,"internalType":"uint256","name":"feeAsset0","type":"uint256"},{"indexed":false,"internalType":"uint256","name":"feeAsset1","type":"uint256"}],"name":"ProtocolFeeCharged","type":"event"},{"anonymous":false,"inputs":[{"indexed":false,"internalType":"address","name":"treasury","type":"address"},{"indexed":false,"internalType":"uint16","name":"feeBps","type":"uint16"}],"name":"ProtocolFeeConfigured","type":"event"},{"anonymous":false,"inputs":[{"indexed":true,"internalType":"bytes32","name":"commitment","type":"bytes32"},{"indexed":true,"internalType":"address","name":"trader","type":"address"},{"indexed":false,"internalType":"uint32","name":"blockNumber","type":"uint32"}],"name":"SwapCommitted","type":"event"},{"anonymous":false,"inputs":[{"indexed":false,"internalType":"address","name":"caller","type":"address"},{"indexed":true,"internalType":"address","name":"from","type":"address"},{"indexed":true,"internalType":"address","name":"to","type":"address"},{"indexed":true,"internalType":"uint256","name":"id","type":"uint256"},{"indexed":false,"internalType":"uint256","name":"amount","type":"uint256"}],"name":"Transfer","type":"event"},{"inputs":[{"internalType":"bytes","name":"data","type":"bytes"}],"name":"_decodeTwoBytes","outputs":[{"internalType":"bytes","name":"a","type":"bytes"},{"internalType":"bytes","name":"b","type":"bytes"}],"stateMutability":"pure","type":"function"},{"inputs":[{"internalType":"address","name":"asset0","type":"address"},{"internalType":"address","name":"asset1","type":"address"},{"internalType":"address","name":"quoter","type":"address"},{"internalType":"bytes3","name":"markings","type":"bytes3"},{"internalType":"uint256","name":"amount0","type":"uint256"},{"internalType":"uint256","name":"amount1","type":"uint256"}],"name":"addLiquidity","outputs":[{"internalType":"uint256","name":"liquidity","type":"uint256"}],"stateMutability":"payable","type":"function"},{"inputs":[{"internalType":"address","name":"owner","type":"address"},{"internalType":"address","name":"spender","type":"address"},{"internalType":"uint256","name":"id","type":"uint256"}],"name":"allowance","outputs":[{"internalType":"uint256","name":"","type":"uint256"}],"stateMutability":"view","type":"function"},{"inputs":[{"internalType":"address","name":"spender","type":"address"},{"internalType":"uint256","name":"id","type":"uint256"},{"internalType":"uint256","name":"amount","type":"uint256"}],"name":"approve","outputs":[{"internalType":"bool","name":"","type":"bool"}],"stateMutability":"nonpayable","type":"function"},{"inputs":[{"internalType":"address","name":"owner","type":"address"},{"internalType":"uint256","name":"id","type":"uint256"}],"name":"balanceOf","outputs":[{"internalType":"uint256","name":"","type":"uint256"}],"stateMutability":"view","type":"function"},{"inputs":[{"components":[{"internalType":"address","name":"asset0","type":"address"},{"internalType":"address","name":"asset1","type":"address"},{"internalType":"address","name":"quoter","type":"address"},{"internalType":"bytes3[]","name":"markings","type":"bytes3[]"},{"internalType":"uint256[]","name":"amounts","type":"uint256[]"},{"internalType":"bool","name":"zeroForOne","type":"bool"}],"internalType":"struct Hop[]","name":"hops","type":"tuple[]"},{"internalType":"uint256","name":"amountIn","type":"uint256"},{"internalType":"uint256","name":"minAmountOut","type":"uint256"}],"name":"batchSwap","outputs":[{"internalType":"uint256","name":"amountOut","type":"uint256"}],"stateMutability":"payable","type":"function"},{"inputs":[{"internalType":"bytes32","name":"commitment","type":"bytes32"}],"name":"commitSwap","outputs":[],"stateMutability":"nonpayable","type":"function"},{"inputs":[{"internalType":"address","name":"treasury","type":"address"},{"internalType":"uint16","name":"feeBps","type":"uint16"}],"name":"configureProtocolFee","outputs":[],"stateMutability":"nonpayable","type":"function"},{"inputs":[{"internalType":"address","name":"asset0","type":"address"},{"internalType":"address","name":"asset1","type":"address"},{"internalType":"address","name":"quoter","type":"address"},{"internalType":"bytes3","name":"markings","type":"bytes3"}],"name":"createPool","outputs":[{"internalType":"uint256","name":"poolID","type":"uint256"}],"stateMutability":"nonpayable","type":"function"},{"inputs":[],"name":"defaultData0Bridge","outputs":[{"internalType":"address","name":"","type":"address"}],"stateMutability":"view","type":"function"},{"inputs":[],"name":"defaultData1Bridge","outputs":[{"internalType":"address","name":"","type":"address"}],"stateMutability":"view","type":"function"},{"inputs":[],"name":"defaultData2Bridge","outputs":[{"internalType":"address","name":"","type":"address"}],"stateMutability":"view","type":"function"},{"inputs":[],"name":"defaultData3Bridge","outputs":[{"internalType":"address","name":"","type":"address"}],"stateMutability":"view","type":"function"},{"inputs":[{"internalType":"address","name":"asset0","type":"address"},{"internalType":"address","name":"asset1","type":"address"},{"internalType":"address","name":"quoter","type":"address"},{"internalType":"bytes3","name":"markings","type":"bytes3"},{"internalType":"uint256","name":"amountIn","type":"uint256"},{"internalType":"bool","name":"zeroForOne","type":"bool"},{"internalType":"uint256","name":"minAmountOut","type":"uint256"},{"internalType":"uint64","name":"nonce","type":"uint64"},{"internalType":"bytes32","name":"salt","type":"bytes32"}],"name":"executeCommittedSwap","outputs":[{"internalType":"uint256","name":"amountOut","type":"uint256"}],"stateMutability":"payable","type":"function"},{"inputs":[{"internalType":"address","name":"callback","type":"address"},{"internalType":"bytes","name":"data","type":"bytes"},{"internalType":"address[]","name":"tokens","type":"address[]"}],"name":"flashSession","outputs":[],"stateMutability":"payable","type":"function"},{"inputs":[{"internalType":"address","name":"callback","type":"address"},{"internalType":"bytes","name":"data","type":"bytes"},{"internalType":"address[]","name":"tokens","type":"address[]"}],"name":"flashSessionWithReturn","outputs":[{"internalType":"int256[]","name":"deltas","type":"int256[]"}],"stateMutability":"payable","type":"function"},{"inputs":[{"internalType":"address","name":"trader","type":"address"}],"name":"getCommitNonce","outputs":[{"internalType":"uint64","name":"nonce","type":"uint64"}],"stateMutability":"view","type":"function"},{"inputs":[{"internalType":"uint256","name":"poolId","type":"uint256"}],"name":"getInventory","outputs":[{"internalType":"uint128","name":"asset0","type":"uint128"},{"internalType":"uint128","name":"asset1","type":"uint128"}],"stateMutability":"view","type":"function"},{"inputs":[{"internalType":"uint256","name":"poolID","type":"uint256"}],"name":"getPoolInfo","outputs":[{"internalType":"address","name":"asset0","type":"address"},{"internalType":"address","name":"asset1","type":"address"},{"internalType":"address","name":"quoter","type":"address"},{"internalType":"bytes3","name":"markings","type":"bytes3"}],"stateMutability":"view","type":"function"},{"inputs":[{"components":[{"internalType":"address","name":"asset0","type":"address"},{"internalType":"address","name":"asset1","type":"address"},{"internalType":"address","name":"quoter","type":"address"},{"internalType":"uint256[]","name":"amount","type":"uint256[]"},{"internalType":"bool","name":"zeroForOne","type":"bool"},{"internalType":"bytes3[]","name":"marking","type":"bytes3[]"},{"internalType":"bytes4","name":"traderProtection","type":"bytes4"}],"internalType":"struct SwapParams","name":"p","type":"tuple"},{"internalType":"uint128","name":"asset0Balance","type":"uint128"},{"internalType":"uint128","name":"asset1Balance","type":"uint128"}],"name":"getQuote","outputs":[{"internalType":"uint256","name":"quote","type":"uint256"},{"internalType":"uint256","name":"poolID","type":"uint256"}],"stateMutability":"nonpayable","type":"function"},{"inputs":[{"components":[{"internalType":"address","name":"asset0","type":"address"},{"internalType":"address","name":"asset1","type":"address"},{"internalType":"address","name":"quoter","type":"address"},{"internalType":"uint256[]","name":"amount","type":"uint256[]"},{"internalType":"bool","name":"zeroForOne","type":"bool"},{"internalType":"bytes3[]","name":"marking","type":"bytes3[]"},{"internalType":"bytes4","name":"traderProtection","type":"bytes4"}],"internalType":"struct SwapParams","name":"p","type":"tuple"},{"internalType":"uint128[]","name":"asset0Balances","type":"uint128[]"},{"internalType":"uint128[]","name":"asset1Balances","type":"uint128[]"}],"name":"getQuoteBatch","outputs":[{"internalType":"uint256[]","name":"quote","type":"uint256[]"},{"internalType":"uint256[]","name":"poolID","type":"uint256[]"}],"stateMutability":"nonpayable","type":"function"},{"inputs":[{"internalType":"address","name":"user","type":"address"},{"internalType":"address[]","name":"tokens","type":"address[]"}],"name":"getUserDeltas","outputs":[{"internalType":"int256[]","name":"deltas","type":"int256[]"}],"stateMutability":"view","type":"function"},{"inputs":[{"internalType":"address","name":"owner","type":"address"},{"internalType":"address","name":"spender","type":"address"}],"name":"isOperator","outputs":[{"internalType":"bool","name":"","type":"bool"}],"stateMutability":"view","type":"function"},{"inputs":[{"internalType":"address","name":"asset0","type":"address"},{"internalType":"address","name":"asset1","type":"address"},{"internalType":"address","name":"quoter","type":"address"},{"internalType":"bytes3","name":"markings","type":"bytes3"},{"internalType":"uint256","name":"liquidity","type":"uint256"}],"name":"removeLiquidity","outputs":[{"internalType":"uint256","name":"amount0","type":"uint256"},{"internalType":"uint256","name":"amount1","type":"uint256"}],"stateMutability":"nonpayable","type":"function"},{"inputs":[{"components":[{"internalType":"address","name":"asset0","type":"address"},{"internalType":"address","name":"asset1","type":"address"},{"internalType":"address","name":"quoter","type":"address"},{"internalType":"uint256[]","name":"amount","type":"uint256[]"},{"internalType":"bool","name":"zeroForOne","type":"bool"},{"internalType":"bytes3[]","name":"marking","type":"bytes3[]"},{"internalType":"bytes4","name":"traderProtection","type":"bytes4"}],"internalType":"struct SwapParams","name":"p","type":"tuple"},{"internalType":"uint128","name":"asset0Balance","type":"uint128"},{"internalType":"uint128","name":"asset1Balance","type":"uint128"}],"name":"routerGetQuote","outputs":[{"internalType":"uint256","name":"quote","type":"uint256"},{"internalType":"uint256","name":"poolID","type":"uint256"}],"stateMutability":"nonpayable","type":"function"},{"inputs":[{"components":[{"internalType":"address","name":"asset0","type":"address"},{"internalType":"address","name":"asset1","type":"address"},{"internalType":"address","name":"quoter","type":"address"},{"internalType":"uint256[]","name":"amount","type":"uint256[]"},{"internalType":"bool","name":"zeroForOne","type":"bool"},{"internalType":"bytes3[]","name":"marking","type":"bytes3[]"},{"internalType":"bytes4","name":"traderProtection","type":"bytes4"}],"internalType":"struct SwapParams","name":"p","type":"tuple"},{"internalType":"uint128[]","name":"asset0Balances","type":"uint128[]"},{"internalType":"uint128[]","name":"asset1Balances","type":"uint128[]"}],"name":"routerGetQuoteBatch","outputs":[{"internalType":"uint256[]","name":"quote","type":"uint256[]"},{"internalType":"uint256[]","name":"poolID","type":"uint256[]"}],"stateMutability":"nonpayable","type":"function"},{"inputs":[{"internalType":"address","name":"operator","type":"address"},{"internalType":"bool","name":"approved","type":"bool"}],"name":"setOperator","outputs":[{"internalType":"bool","name":"","type":"bool"}],"stateMutability":"nonpayable","type":"function"},{"inputs":[{"internalType":"bytes4","name":"interfaceId","type":"bytes4"}],"name":"supportsInterface","outputs":[{"internalType":"bool","name":"","type":"bool"}],"stateMutability":"view","type":"function"},{"inputs":[{"internalType":"address","name":"asset0","type":"address"},{"internalType":"address","name":"asset1","type":"address"},{"internalType":"address","name":"quoter","type":"address"},{"internalType":"bytes3","name":"markings","type":"bytes3"},{"internalType":"uint256","name":"amountIn","type":"uint256"},{"internalType":"bool","name":"zeroForOne","type":"bool"},{"internalType":"uint256","name":"minAmountOut","type":"uint256"}],"name":"swap","outputs":[{"internalType":"uint256","name":"amountOut","type":"uint256"}],"stateMutability":"payable","type":"function"},{"inputs":[{"internalType":"uint256","name":"poolID","type":"uint256"}],"name":"totalLiquidity","outputs":[{"internalType":"uint256","name":"","type":"uint256"}],"stateMutability":"view","type":"function"},{"inputs":[{"internalType":"address","name":"receiver","type":"address"},{"internalType":"uint256","name":"id","type":"uint256"},{"internalType":"uint256","name":"amount","type":"uint256"}],"name":"transfer","outputs":[{"internalType":"bool","name":"","type":"bool"}],"stateMutability":"nonpayable","type":"function"},{"inputs":[{"internalType":"address","name":"sender","type":"address"},{"internalType":"address","name":"receiver","type":"address"},{"internalType":"uint256","name":"id","type":"uint256"},{"internalType":"uint256","name":"amount","type":"uint256"}],"name":"transferFrom","outputs":[{"internalType":"bool","name":"","type":"bool"}],"stateMutability":"nonpayable","type":"function"}],"evm":{"bytecode":{"linkReferences":{},"object":"610100346100e557601f6148e838819003918201601f19168301916001600160401b038311848410176100e9578084926080946040528339810103126100e557610048816100fd565b90610055602082016100fd565b61006d6060610066604085016100fd565b93016100fd565b9260805260a05260c05260e0526040516147d6908161011282396080518181816109a40152818161222a01526127df015260a051818181610a69015281816122600152612818015260c0518181816102f90152818161229b0152612856015260e051818181610960015281816122d3015261288e0152f35b5f80fd5b634e487b7160e01b5f52604160045260245ffd5b51906001600160a01b03821682036100e55756fe60806040526004361015610011575f80fd5b5f3560e01c8062fdd58e1461020957806301ffc9a714610204578063091f15b0146101ff578063095bcdb6146101fa57806321e24384146101965780632f380b35146101f5578063314e2321146101f057806331b4ae17146101eb5780633d465aae146101e6578063426a8493146101e157806346fe6514146101dc5780634dbb4c5e146101d7578063558a7297146101d25780635670f55a146101cd578063598af9e7146101c85780635b298d32146101c35780635b7499b5146101be5780635dfb78af146101b957806366387140146101b457806394756e9b146101af5780639d2ec6e4146101aa578063a465ba0f146101a5578063a74713cf146101a5578063b5e60c3c146101a0578063b6363cf21461019b578063bdf48f8e14610196578063cb1f2f3814610191578063d92bc84c1461018c578063e513315b14610187578063ea157acf14610182578063f9158ee51461017d5763fe99049a14610178575f80fd5b611be0565b611b5f565b611a2b565b6116f7565b61167f565b6113c3565b610768565b611360565b611336565b61130d565b611105565b611062565b61101e565b610f52565b610e71565b610e3a565b610dcd565b610bbb565b610b1f565b610a98565b610a54565b6109d3565b61098f565b61094b565b6108f6565b61078f565b61034b565b6102e4565b61028e565b610230565b6001600160a01b0381160361021f57565b5f80fd5b359061022e8261020e565b565b3461021f57604036600319011261021f5760043561024d8161020e565b6024359060018060a01b03165f52600160205260405f20905f52602052602060405f2054604051908152f35b35906001600160e01b03198216820361021f57565b3461021f57602036600319011261021f5760043563ffffffff60e01b811680910361021f576020906301ffc9a760e01b81149081156102d3575b506040519015158152f35b630f632fb360e01b1490505f6102c8565b3461021f575f36600319011261021f576040517f00000000000000000000000000000000000000000000000000000000000000006001600160a01b03168152602090f35b606090600319011261021f576004356103408161020e565b906024359060443590565b3461021f5761035936610328565b9091335f52600160205260405f20835f5260205260405f208054908382039182116103ea575560018060a01b031690815f5260016020526103a58360405f20905f5260205260405f2090565b6103b0828254611dbd565b9055604080513380825260208201939093525f5160206147815f395f51905f5291819081015b0390a46040516001815280602081015b0390f35b611d8e565b634e487b7160e01b5f52604160045260245ffd5b608081019081106001600160401b0382111761041e57604052565b6103ef565b90601f801991011681019081106001600160401b0382111761041e57604052565b6040519061022e60e083610423565b6040519061022e608083610423565b6040519061022e61010083610423565b6001600160401b03811161041e5760051b60200190565b92919061049581610472565b936104a36040519586610423565b602085838152019160051b810192831161021f57905b8282106104c557505050565b81358152602091820191016104b9565b9080601f8301121561021f578160206104f093359101610489565b90565b8015150361021f57565b359061022e826104f3565b6001600160e81b031981160361021f57565b92919061052681610472565b936105346040519586610423565b602085838152019160051b810192831161021f57905b82821061055657505050565b60208091833561056581610508565b81520191019061054a565b9080601f8301121561021f578160206104f09335910161051a565b91909160e08184031261021f576105a0610444565b926105aa82610223565b84526105b860208301610223565b60208501526105c960408301610223565b604085015260608201356001600160401b03811161021f57816105ed9184016104d5565b60608501526105fe608083016104fd565b608085015260a0820135916001600160401b03831161021f5761062860c092610633948301610570565b60a086015201610279565b60c0830152565b9080601f8301121561021f5781359061065282610472565b926106606040519485610423565b82845260208085019360051b82010191821161021f57602001915b8183106106885750505090565b82356001600160801b038116810361021f5781526020928301920161067b565b606060031982011261021f576004356001600160401b03811161021f57816106d29160040161058b565b916024356001600160401b03811161021f57826106f19160040161063a565b91604435906001600160401b03821161021f576104f09160040161063a565b90602080835192838152019201905f5b81811061072d5750505090565b8251845260209384019390920191600101610720565b909161075a6104f093604084526040840190610710565b916020818403910152610710565b3461021f5761077f610779366106a8565b916125dc565b906103e660405192839283610743565b3461021f57602036600319011261021f576004355f60606040516107b281610403565b82815282602082015282604082015201525f52600560205260405f20604051906107db82610403565b80546001600160a01b0390811680845260018301548216602085018190526002909301549182166040850181905260489290921b6001600160e81b03191660609490940184905290926103e69161085290610844906108379081565b956001600160a01b031690565b916001600160e81b03191690565b604080516001600160a01b039586168152958516602087015291909316908401526001600160e81b0319909116606083015281906080820190565b9181601f8401121561021f578235916001600160401b03831161021f576020808501948460051b01011161021f57565b60206040818301928281528451809452019201905f5b8181106108e05750505090565b82518452602093840193909201916001016108d3565b3461021f57604036600319011261021f576004356109138161020e565b6024356001600160401b03811161021f576103e69161093961093f92369060040161088d565b91611e37565b604051918291826108bd565b3461021f575f36600319011261021f576040517f00000000000000000000000000000000000000000000000000000000000000006001600160a01b03168152602090f35b3461021f575f36600319011261021f576040517f00000000000000000000000000000000000000000000000000000000000000006001600160a01b03168152602090f35b3461021f576109e136610328565b9091335f526002602052610a088160405f209060018060a01b03165f5260205260405f2090565b835f526020528160405f205560405191825260018060a01b0316907fb3fd5071835887567a0671151121894ddccc2842f1d10bedad13e0d17cace9a760203392a4602060405160018152f35b3461021f575f36600319011261021f576040517f00000000000000000000000000000000000000000000000000000000000000006001600160a01b03168152602090f35b61012036600319011261021f57600435610ab18161020e565b602435610abd8161020e565b60443591610aca8361020e565b606435610ad681610508565b60843560a435610ae5816104f3565b60c4359160e435936001600160401b038516850361021f576103e697610b0f976101043597611ead565b6040519081529081906020820190565b3461021f57604036600319011261021f57600435610b3c8161020e565b60243590610b49826104f3565b335f908152602081815260408083206001600160a01b038516845290915290209115159160ff1981541660ff841617905560405191825260018060a01b0316907fceb576d9f15e4e200fdb5096d64d5dfd667e16def20c1eefd14256d8e3faa26760203392a360405160018152602090f35b3461021f57608036600319011261021f57600435610bd88161020e565b602435610be48161020e565b60443591610bf18361020e565b60643591610bfe83610508565b610c0e610c09612b08565b612b51565b610c1a838583856131a6565b9260018060a01b03610c476002610c39875f52600560205260405f2090565b01546001600160a01b031690565b16610db9576103e69484937f68df9a4eb7aacbe8f43763bfbc9f7ca135a5397190ea1cce2558db52dc2f36929391929091906001600160a01b038083169084161015610dae57610d9191935b610d55610c9e610453565b6001600160a01b03861681526001600160a01b03871660208201526001600160a01b03831660408201526001600160e81b031984166060820152610cea895f52600560205260405f2090565b815181546001600160a01b03199081166001600160a01b039283161783556020840151600184018054909216908316179055604083015160029092018054606090940151929091166001600160b81b03199093169290921760489190911c62ffffff60a01b16179055565b604080516001600160a01b03958616815295851660208701529316928401929092526001600160e81b0319909116606083015281906080820190565b0390a25f610d9d612b08565b5d6040519081529081906020820190565b610d91919293610c93565b63e1ecc13360e01b5f52600484905260245ffd5b3461021f57606036600319011261021f57600435610dea8161020e565b610e25602435610df98161020e565b6044359260018060a01b03165f52600260205260405f209060018060a01b03165f5260205260405f2090565b905f52602052602060405f2054604051908152f35b3461021f57602036600319011261021f5760406001600160801b03610e60600435612ec9565b835191831682529091166020820152f35b3461021f57602036600319011261021f5760043563ffffffff431690805f52600860205260405f208263ffffffff198254161790556040519182527ff76330af9ed35739f4663e9f2c2726c5c60a98c86b8e6c087b0b54d818c0099b60203393a3005b90606060031983011261021f57600435610eed8161020e565b91602435916001600160401b03831161021f578160238401121561021f578260040135926001600160401b03841161021f57826024858301011161021f576024019291604435906001600160401b03821161021f57610f4e9160040161088d565b9091565b610f5b36610ed4565b9391610f65612ee7565b92610f6f84612b51565b6001610f7b3330613b83565b5d610f8533612f50565b6001600160a01b031693843b1561021f57604051631c6e724760e31b8152915f918391610fb59160048401611f60565b95818381819903925af1801561101957610ffb575b508293610fdd610fe39234923691611f92565b3361302e565b610feb6130c6565b5f610ff63330613b83565b5d5d80f35b610fe39193509361100f5f610fdd96610423565b5f93915093610fca565b611f87565b3461021f57602036600319011261021f5760043561103b8161020e565b60018060a01b03165f52600960205260206001600160401b0360405f205416604051908152f35b3461021f57604036600319011261021f5760043561107f8161020e565b60243561ffff81169182820361021f57600680546001600160a01b0319166001600160a01b0383161790557f42bc0dce68a76f2cb7882e7da1060360603348ede3c834d9239472d409103ef8926040926006805461ffff60a01b191660a09290921b61ffff60a01b1691909117905582516001600160a01b0390921682526020820152a1005b606036600319011261021f576004356001600160401b03811161021f5761113090369060040161088d565b60443591602435611142610c09612b08565b61114a613115565b906001600160a01b038216156112b0575b83156112a1579261117760a0611171838661315f565b0161319c565b1561128c5761118e611189828561315f565b611dfc565b925b6111a860a06111716111a185611da2565b858561317a565b1561126f576111c460206111be6111a185611da2565b01611dfc565b91905b5f915b80831061122f57506111e891506111e390508330613b83565b5c1590565b61121c575b505050818110611204576103e6905f610d9d612b08565b63d438755d60e01b5f5260049190915260245260445ffd5b611227923492613a3e565b5f80806111ed565b909195611261600191866112448a868861317a565b918a1561125087611da2565b8c1491811561126a575b3094613d85565b960191906111ca565b61125a565b61128561118961127e84611da2565b848461317a565b91906111c7565b61129b60206111be838661315f565b92611190565b63145dbb4560e21b5f5260045ffd5b33915061115b565b606060031982011261021f57600435906001600160401b03821161021f576112e29160040161058b565b906024356001600160801b038116810361021f57906044356001600160801b038116810361021f5790565b3461021f5761132461131e366112b8565b916120ec565b60408051928352602083019190915290f35b3461021f57602036600319011261021f576004355f526003602052602060405f2054604051908152f35b3461021f57604036600319011261021f57602060ff6113b76004356113848161020e565b602435906113918261020e565b60018060a01b03165f525f845260405f209060018060a01b03165f5260205260405f2090565b54166040519015158152f35b3461021f5760a036600319011261021f576004356113e08161020e565b6024356113ec8161020e565b604435916113f98361020e565b6064359261140684610508565b60843593611415610c09612b08565b8415611670576114269184846131a6565b9061143082612ec9565b939061144c611447855f52600360205260405f2090565b541590565b611661576001600160801b039461146291613467565b9161146d83856134b2565b6114be6114ac866114a461148b61148389612ec9565b9a168b61299a565b61149d895f52600360205260405f2090565b54906129ad565b97168861299a565b61149d865f52600360205260405f2090565b95851580611659575b61164057916115c19493916115b2936114de613115565b906001600160a01b03821615611638575b6114fa81888461373d565b61151761150f885f52600360205260405f2090565b918254611db0565b905561154d6115316001600160801b038a16600f0b6129cb565b6115466001600160801b038c16600f0b6129cb565b90886137bc565b6001600160a01b03838116908316109161158e90831561162c576115878a958c925b86156116255780965b1561161d5750955b8585613812565b8483613812565b61159b6111e38230613b83565b6115dc575b5050506115ac83612ec9565b90613825565b905f52600760205260405f2055565b5f6115ca612b08565b5d604080519182526020820192909252f35b611610611615936116076115ee6129eb565b946115f886611e06565b6001600160a01b039091169052565b6115f884611e13565b612f99565b5f80806115a0565b905095611580565b8196611578565b6115878b958b9261156f565b3391506114ef565b63d5de620560e01b5f526004869052602487905260445ffd5b5086156114c7565b63c303013160e01b5f5260045ffd5b6394240c0560e01b5f5260045ffd5b60e036600319011261021f5760206116e560043561169c8161020e565b6024356116a88161020e565b6044356116b48161020e565b6064356116c081610508565b6084359160a435936116d1856104f3565b60c435956116e0610c09612b08565b612ce4565b5f6116ee612b08565b5d604051908152f35b60c036600319011261021f5760043561170f8161020e565b60243561171b8161020e565b604435906117288261020e565b6064359161173583610508565b6084359060a43593611748610c09612b08565b611754818386896131a6565b6001600160a01b0385811690881610969093908715611a255794965b15611a1f5794955b61178184612ec9565b819491948194611799885f52600360205260405f2090565b54611911575050505085151580611908575b156118f9578661189b956115b29486946117d06103e69b6117cb8c612952565b6129ad565b9586915b6117e6825f52600360205260405f2090565b546118d8575b6117f793868d613853565b97611800613115565b926001600160a01b038416156118d0575b906001600160801b03806118549361183261182b85612a0d565b8789613812565b61184561183e82612a0d565b8989613812565b16600f0b9116600f0b886137bc565b61185f8887846138fe565b611871865f52600360205260405f2090565b61187c898254611dbd565b905561188b6111e38330613b83565b6118a4575050506115ac83612ec9565b5f610d9d612b08565b6118c9611615936118c06118b66129eb565b936115f885611e06565b6115f883611e13565b349161302e565b339350611811565b506118e392506134b2565b6117f784876118f181612ec9565b9093506117ec565b630726b13f60e41b5f5260045ffd5b508615156117ab565b61192483839c9795999a9c989698613467565b978815611947575b50505050916103e6976115b29492868861189b9998966117d4565b87959998508b916119df6119f49699670de0b6b3a76400006119d86119ef956119b86119716123cf565b916119a861197d6123cf565b96611998611989610444565b6001600160a01b03909d168d52565b6001600160a01b031660208c0152565b6001600160a01b031660408a0152565b606088019081525f608089015260a088019384525f60c089015251611e06565b5251611e06565b6001600160e81b03199091169052565b6120ec565b50918215611a105793949193909290919087828261189b61192c565b6314033f2160e11b5f5260045ffd5b95611778565b96611770565b611a3436610ed4565b5f949391929491611a43612ee7565b94611a4d86612b51565b6001611a593330613b83565b5d611a6333612f50565b6001600160a01b031695863b1561021f57611a97965f9283604051809a81958294631c6e724760e31b845260048401611f60565b03925af1948515611019576103e695611ae5575b50611ac69192611ac034610fdd368585611f92565b33611e37565b91611acf6130c6565b611ad83361310a565b5d604051918291826108bd565b611ac692505f611af491610423565b5f91611aab565b6001600160401b03811161041e57601f01601f191660200190565b805180835260209291819084018484015e5f828201840152601f01601f1916010190565b9091611b516104f093604084526040840190611b16565b916020818403910152611b16565b3461021f57602036600319011261021f576004356001600160401b03811161021f573660238201121561021f578060040135611b9a81611afb565b90611ba86040519283610423565b808252366024828501011161021f576020815f926024611bd096018386013783010152612a63565b906103e660405192839283611b3a565b3461021f57608036600319011261021f57600435611bfd8161020e565b602435611c098161020e565b604435915f5160206147815f395f51905f526103d6606435936001600160a01b03841693611c6b908790611c5e903388141580611d5a575b611cca576001600160a01b03165f90815260016020526040902090565b905f5260205260405f2090565b611c76868254611db0565b90556001600160a01b0381165f908152600160205260409020611c9a908790611c5e565b611ca5868254611dbd565b90556040805133815260208101969096526001600160a01b0390911694918291820190565b611d0183611c5e33611cec8560018060a01b03165f52600260205260405f2090565b9060018060a01b03165f5260205260405f2090565b548960018201611d27575b50506001600160a01b03165f90815260016020526040902090565b611d3091611db0565b611d5284611c5e33611cec8660018060a01b03165f52600260205260405f2090565b555f89611d0c565b50611d89611d85611d7e33611cec8560018060a01b03165f525f60205260405f2090565b5460ff1690565b1590565b611c41565b634e487b7160e01b5f52601160045260245ffd5b5f198101919082116103ea57565b919082039182116103ea57565b919082018092116103ea57565b634e487b7160e01b5f52603260045260245ffd5b9015611de75790565b611dca565b9190811015611de75760051b0190565b356104f08161020e565b805115611de75760200190565b805160011015611de75760400190565b8051821015611de75760209160051b010190565b929192611e4384610472565b90611e516040519283610423565b848252601f19611e6086610472565b0136602084013781945f5b818110611e79575050505050565b80611e9b611e8a6001938589611dec565b35611e948161020e565b8530613957565b5c611ea68287611e23565b5201611e6b565b90919293949596611f4d90611f5399611ec7610c09612b08565b604080516001600160a01b038681166020830190815288821693830193909352881660608201526001600160e81b03198916608082015260a081018a90528a151560c082015260e081018c90526001600160401b03841661010082015233610120820152916101408301526101408252611f4361016083610423565b3391519020612b94565b50612ce4565b905f611f5d612b08565b5d565b90918060409360208452816020850152848401375f828201840152601f01601f1916010190565b6040513d5f823e3d90fd5b929190611f9e81610472565b93611fac6040519586610423565b602085838152019160051b810192831161021f57905b828210611fce57505050565b602080918335611fdd8161020e565b815201910190611fc2565b60405190611ff7602083610423565b5f8252565b926120286104f0959361201a61203694608088526080880190611b16565b908682036020880152611b16565b908482036040860152611b16565b916060818403910152611b16565b9081602091031261021f575190565b80516001600160a01b03908116835260208083015182169084015260408083015190911690830152606080820151908301526080808201516001600160801b03169083015261022e919060e090819060a0818101516001600160801b03169085015260c08181015161ffff169085015201511515910152565b806120de610120926104f09594612053565b816101008201520190611b16565b805160208201805160408401805160a086018051909894979694959294936001600160a01b039384169390811692169061212590611e06565b516001600160e81b0319169161213a936131a6565b955161214590611e06565b516001600160e81b03191661215990613218565b81519093906001600160a01b031695516001600160a01b031692516001600160a01b031694606083015161218c90611e06565b51608086015161ffff166080909401511515946121a7610462565b6001600160a01b0390991689526001600160a01b031660208901526001600160a01b03909616604088019081529560608801526001600160801b031660808701526001600160801b031660a086015261ffff1660c0850152151560e0840152805115155f149261232e61232261232260209561234c976123bf5761231561224e867f0000000000000000000000000000000000000000000000000000000000000000613320565b87890151156123ae57612307612284887f0000000000000000000000000000000000000000000000000000000000000000613320565b985b60408101511561239b576122c860606122bf8b7f0000000000000000000000000000000000000000000000000000000000000000613320565b925b0151151590565b1561238d576122f7897f0000000000000000000000000000000000000000000000000000000000000000613320565b905b6040519a8b948d8601611ffc565b03601f198101885287610423565b516001600160a01b031690565b6001600160a01b031690565b905f6040518096819582946305e3344d60e41b8452600484016120cc565b03925af1908115611019575f91612361575091565b612383915060203d602011612386575b61237b8183610423565b810190612044565b91565b503d612371565b612395611fe8565b906122f9565b6122c860606123a8611fe8565b926122c1565b6123076123b9611fe8565b98612286565b6123156123ca611fe8565b61224e565b604080519091906123e08382610423565b6001815291601f1901366020840137565b906123fb82610472565b6124086040519182610423565b8281528092612419601f1991610472565b0190602036910137565b9080601f8301121561021f57815161243a81610472565b926124486040519485610423565b81845260208085019260051b82010192831161021f57602001905b8282106124705750505090565b8151815260209182019101612463565b9060208282031261021f5781516001600160401b03811161021f576104f09201612423565b90602080835192838152019201905f5b8181106124c25750505090565b82516001600160801b03168452602093840193909201916001016124b5565b90602080835192838152019201905f5b8181106124fe5750505090565b825161ffff168452602093840193909201916001016124f1565b604080825282516001600160a01b0316908201526104f0929060208301516001600160a01b0316606082015260408301516001600160a01b031660808201526125cf60e06125c26125ab612596612580606089015161010060a0890152610140880190610710565b6080890151878203603f190160c08901526124a5565b60a0880151868203603f1901858801526124a5565b60c0870151858203603f19016101008701526124e1565b9401511515610120830152565b6020818403910152611b16565b90919260a08201926125ef8451516123f1565b916125fb8551516123f1565b506126078551516123f1565b9561262b6126266126188851611e06565b516001600160e81b03191690565b613218565b5f5b875180518210156126b157906126ab612698608061268f8b8b6126898761268361265c6126188360019d611e23565b85516020870151604090970151919687926001600160a01b039081169291811691166131a6565b92611e23565b52613218565b015161ffff1690565b6126a2838d611e23565b9061ffff169052565b0161262d565b5050855160208701805160408901805160608b015160808c018051999e9b9d50929b969a94996001600160a01b03968716999398948716969093919216901515956126fa610462565b6001600160a01b03909a168a526001600160a01b031660208a01526001600160a01b031660408901526060880152608087015260a086015260c0850152151560e0840152516001600160a01b031692516001600160a01b031685519091906001600160a01b0316905115159161276e610462565b6001600160a01b0390951685526001600160a01b031660208501526001600160a01b031660408401525f606084018190526080840181905260a0840181905260c0840152151560e0830152825115155f146123226123226128e0966123155f976128c39561294157612307612803897f00000000000000000000000000000000000000000000000000000000000000006133b2565b915b602081015115158b146129335761283c8a7f00000000000000000000000000000000000000000000000000000000000000006133b2565b995b604082015115158c1461292057612882606061287a837f00000000000000000000000000000000000000000000000000000000000000006133b2565b930151151590565b8c14612911576128b2907f00000000000000000000000000000000000000000000000000000000000000006133b2565b905b6040519a8b9460208601611ffc565b908360405180968195829462db90d160e81b845260048401612518565b03925af1908115611019575f916128f5575091565b61238391503d805f833e6129098183610423565b810190612480565b5061291a611fe8565b906128b4565b612882606061292d611fe8565b936122c1565b61293b611fe8565b9961283e565b61230761294c611fe8565b91612805565b90670de0b6b3a7640000820291808304670de0b6b3a764000014901517156103ea57565b9067120a871cc002000082029180830467120a871cc002000014901517156103ea57565b818102929181159184041417156103ea57565b81156129b7570490565b634e487b7160e01b5f52601260045260245ffd5b600f0b6f7fffffffffffffffffffffffffffffff1981146103ea575f0390565b604051606091906129fc8382610423565b6002815291601f1901366020840137565b600160ff1b81146103ea575f0390565b81601f8201121561021f57805190612a3482611afb565b92612a426040519485610423565b8284526020838301011161021f57815f9260208093018386015e8301015290565b80518101906040816020840193031261021f5760208101516001600160401b03811161021f57826020612a9892840101612a1d565b916040820151916001600160401b03831161021f57610f4e9201602001612a1d565b90604051612ac781610403565b82546001600160a01b03908116825260018401548116602083015260029390930154928316604082015260489290921b6001600160e81b0319166060830152565b60405160208101907f626529a6be7cb2fb96a7ed93849b4ef74c980495dfe61fd514c95dcd9da51c3582523060601b604082015260348152612b4b605482610423565b51902090565b805c61021f576001905d565b63ffffffff6101009116019063ffffffff82116103ea57565b6001600160401b036001911601906001600160401b0382116103ea57565b91612bb5612bab846008905f5260205260405f2090565b5463ffffffff1690565b63ffffffff81168015612cd557431115612cc657612bd5612bde91612b5d565b63ffffffff1690565b4311612cb7576001600160a01b0382165f908152600960205260409020546001600160401b03166001600160401b03821603612ca857612c43612c7591612c3e612c31866008905f5260205260405f2090565b805463ffffffff19169055565b612b76565b6001600160a01b0383165f908152600960205260409020906001600160401b03166001600160401b0319825416179055565b6001600160a01b0316907f5ed00d9781aaac5f5ab01a93ece28fca0f8ffe70c108140274d8fec00477ce805f80a3600190565b632071cf9f60e11b5f5260045ffd5b63586b1f3960e01b5f5260045ffd5b630376613560e51b5f5260045ffd5b63ea3c1a4f60e01b5f5260045ffd5b9695939296612cf1613115565b946001600160a01b03861615612ec1575b612d0e898585856131a6565b90612d1882612ec9565b818197929c8b8a612d276123cf565b612d2f6123cf565b92612d38610444565b6001600160a01b038c168152976001600160a01b038d1660208a01526001600160a01b03166040890152606088019182521515608088015260a087019283525f60c088015251612d8790611e06565b5251612d9290611e06565b6001600160e81b03199091169052612da9926120ec565b50948515611a10578886612dbe92819d6139cc565b808510612eaa5750612e459392612e3e92612e3792612e22906001600160a01b038085169084161015612ea3578a5b8015612e88576001600160801b038a16600f0b905b15612e7557612e1c6001600160801b038916600f0b6129cb565b916137bc565b8815612e6e5780985b15612e66575094612a0d565b8686613812565b8284613812565b612e526111e38330613b83565b612e5b57505050565b61022e923492613a3e565b905094612a0d565b8198612e2b565b6001600160801b038a16600f0b916137bc565b612e9d6001600160801b038916600f0b6129cb565b90612e02565b8a15612ded565b63d438755d60e01b5f52600452602484905260445ffd5b339550612d02565b5f52600460205260405f2054906001600160801b0382169160801c90565b60405160208101907f626529a6be7cb2fb96a7ed93849b4ef74c980495dfe61fd514c95dcd9da51c3582523060601b60408201527f88f108d443a200407df3d92fc06ed196d7b48635560cc21c3b1819792e11c1a7605482015260548152612b4b607482610423565b60405160208101907f507ba82850c15277b79bae90c6e97b66228a117b64d05e46b3182d141df61ce282523060601b604082015260348152612f93605482610423565b5190205d565b8151915f5b838110612fab5750505050565b6001906001600160a01b03612fc08285611e23565b5116612fcd818630613957565b5c80612fdc575b505001612f9e565b5f91612ffc918381131561300457612ff5908883613cc9565b8630613957565b5d5f80612fd4565b61301061302291612a0d565b821585146130275784905b8984613bfa565b612ff5565b849061301b565b90918251925f5b848110613043575050505050565b6001906001600160a01b036130588285611e23565b5116613065818730613957565b5c80613074575b505001613035565b5f91613094918381131561309c5761308d908983613cc9565b8730613957565b5d5f8061306c565b6130a86130ba91612a0d565b821585146130bf5788905b8a84613bfa565b61308d565b84906130b3565b5f60405160208101907f507ba82850c15277b79bae90c6e97b66228a117b64d05e46b3182d141df61ce282523060601b604082015260348152612f93605482610423565b611f5d5f9130613b83565b60405160208101907f507ba82850c15277b79bae90c6e97b66228a117b64d05e46b3182d141df61ce282523060601b604082015260348152613158605482610423565b5190205c90565b9015611de75780359060be198136030182121561021f570190565b9190811015611de75760051b8101359060be198136030182121561021f570190565b356104f0816104f3565b9092906001600160a01b0380851690821610156132125792915b6040516bffffffffffffffffffffffff19606095861b81166020830190815294861b811660348301529190941b1660488401526001600160e81b031916605c830152603f825290612b4b605f82610423565b916131c0565b6040519060a08201908282106001600160401b0383111761041e576132de610fff916104f0936040525f85525f60208601525f60408601525f60608601525f608086015260e81c613270600182161515869015159052565b61329361328a600183811c627fffff165b1662ffffff1690565b15156020870152565b6132b36132aa6001600284901c623fffff16613281565b15156040870152565b6132d36132ca6001600384901c621fffff16613281565b15156060870152565b60041c620fffff1690565b1661ffff166080830152565b9060208282031261021f5781516001600160401b03811161021f576104f09201612a1d565b6101008101929161022e9190612053565b6001600160a01b0381169081156133a7573b1561339d575f9182916040518094818094633bd1104b60e01b825261335f60048301610100810192612053565b03925af15f9181613379575b506104f057506104f0611fe8565b6133969192503d805f833e61338e8183610423565b8101906132ea565b905f61336b565b50506104f0611fe8565b5050506104f0611fe8565b6001600160a01b03811680156133a757813b156133a7576133d282613e54565b8051909390156133e3575b50505090565b604051633bd1104b60e01b815293505f918491829084908290613409906004830161330f565b03925af15f928161344b575b5061342c575050613424611fe8565b5f80806133dd565b81805161343b575b5050613424565b61344491613ec7565b5f80613434565b6134609193503d805f833e61338e8183610423565b915f613415565b906001600160801b03169081156134ac576001600160801b031690670de0b6b3a7640000820291808304670de0b6b3a764000014901517156103ea576104f0916129ad565b50505f90565b6006549091906134d06001600160a01b0382169160a01c61ffff1690565b906001600160a01b038116158015613731575b61372b575f848152600460205260409020546001600160801b0381169060801c926001600160801b0382169182158061371a575b61370457858561352692613825565b5f8781526007602052604090205491828211156136fa5761ffff6135506135609461355894611db0565b91169061299a565b612710900490565b9283156136f2576001600160801b031661359461358e613580878461299a565b670de0b6b3a7640000900490565b83611dbd565b80156136e9577fe7c2742bfe08378628d04b12904afd6d2ba3e77d93558b70cc5b82b5e5121562956135df6135da6135d36135ee946117cb888b61299a565b8098611db0565b612952565b90806136e357506001906129ad565b918085116136d9575b50908161368d9282116136d1575b5061363c61361e6001600160801b038616600f0b6129cb565b6136336001600160801b038416600f0b6129cb565b90886003613efb565b613657613652876005905f5260205260405f2090565b612aba565b846136b4575b818481613692575b50505060405193849384604091949392606082019560018060a01b0316825260208201520152565b0390a2565b602092909201516136ac92906001600160a01b0316613cc9565b5f8184613665565b80516136cc90869086906001600160a01b0316613cc9565b61365d565b90505f613605565b935061368d6135f7565b906129ad565b50505050505050565b505050505050565b5050505050505050565b5050505f93845250506007602052506040812055565b506001600160801b03851615613517565b50505050565b5061ffff8216156134e3565b91909160018060a01b0316805f52600160205260405f20835f5260205260405f208054908382039182116103ea57556040805133815260208101939093525f925f5160206147815f395f51905f5291819081015b0390a4565b90600f0b90600f0b019060016001607f1b0319821260016001607f1b038313176103ea57565b9091815f5260046020526001600160801b036137ef6137e560405f205495838716600f0b613796565b928560801d613796565b81199060801b16911617918203613804575050565b5f52600460205260405f2055565b9061381d9130613957565b90815c01905d565b91613843670de0b6b3a7640000916001600160801b0380941661299a565b0491169081018091116103ea5790565b92909394855f52600360205260405f2054155f14613891575050506138789250611dbd565b905b811561388257565b63283eeadf60e01b5f5260045ffd5b9091936138a782670de0b6b3a76400009261299a565b0483018093116103ea576138ce670de0b6b3a7640000916001600160801b0380941661299a565b0492169182018092116103ea576138f16138f8936003905f5260205260405f2090565b5490613f5c565b9061387a565b91909160018060a01b031690815f52600160205260405f20835f5260205260405f208054908282018092116103ea57556040805133815260208101929092525f915f5160206147815f395f51905f529181908101613791565b916040519160208301937f71aa94563c1d78d77df681ad802fc1a81ea7d00cffe4bbe002400e1d66de80d285526001600160601b03199060601b1660408401526001600160601b03199060601b1660548301526001600160601b03199060601b166068820152605c8152612b4b607c82610423565b6001600160801b0392935f146139ff575016908082106139ea575050565b630173586760e01b5f5260045260245260445ffd5b90501690808210613a0e575050565b6368580a1960e01b5f5260045260245260445ffd5b9190915f83820193841291129080158216911516176103ea57565b9092613a4b848330613957565b5c613a57848430613957565b5c916001600160a01b0385811692908716808414613b20579181613aba95935f61022e9a9694125f14613b0057613a90613a9f92612a0d565b90613af95782905b8887613bfa565b5f831315613abf575050613ab4908486613cc9565b82613d3a565b613d3a565b5f8312613acf575b505050613ab4565b613adb613ae993612a0d565b91613af157905b8587613bfa565b5f8080613ac7565b505f90613ae2565b5f90613a98565b505f8113613b0f575b50613a9f565b613b1a908786613cc9565b5f613b09565b925061022e969593613b3191613a23565b925f841215613b5d5750613b47613aba93612a0d565b91613b5557905b8385613bfa565b505f90613b4e565b92915050825f8213613b72575b505050613d3a565b613b7b92613cc9565b5f8082613b6a565b906040519060208201927fe88690b85c82523984f05d1f281684a73aa4d4303bca19cfe29aa89ae744616a84526001600160601b03199060601b1660408301526001600160601b03199060601b16605482015260488152612b4b606882610423565b9081602091031261021f57516104f0816104f3565b9192916001600160a01b03169081613c2457505003613c1557565b63a7adb78f60e01b5f5260045ffd5b91929092613cba576040516323b872dd60e01b81526001600160a01b0390921660048301523060248301526044820152906020908290815f81606481015b03925af1908115611019575f91613c8b575b5015613c7c57565b633773869160e01b5f5260045ffd5b613cad915060203d602011613cb3575b613ca58183610423565b810190613be5565b5f613c74565b503d613c9b565b63dc4087eb60e01b5f5260045ffd5b6001600160a01b031680613d0357505f808093819382908215613cf9575b6001600160a01b031690f11561101957565b6108fc9150613ce7565b60405163a9059cbb60e01b81526001600160a01b0390921660048301526024820192909252906020908290815f8160448101613c62565b5f91611f5d9130613957565b903590601e198136030182121561021f57018035906001600160401b03821161021f57602001918160051b3603831361021f57565b356104f081610508565b949392919060608601613d988188613d46565b905015613e4557613dac6080880188613d46565b9050613db88289613d46565b91905003613e36576001613dcc8289613d46565b9050145f14613e2a5786613de26104f098611dfc565b91613def60208301611dfc565b613e2260a0613e1b613e16613e10613e0960408901611dfc565b9688613d46565b90611dde565b613d7b565b940161319c565b9360036144e6565b506104f095600361412c565b6305a7a8f960e11b5f5260045ffd5b63040e8c7760e51b5f5260045ffd5b90606091805c90811580613eb2575b15613e6c575050565b909250601f6040519380855201908160051c905f5b828110613e9957505050601f19168201602001604052565b80600180928401015c60208260051b8901015201613e81565b9350604051935f855260208501604052613e63565b601f825180835d0160051c915f5b838110613ee25750505050565b80602060019260051b8401015182828601015d01613ed5565b6001909392930191815f52826020526001600160801b03613f33613f2960405f205496838816600f0b613796565b928660801d613796565b81199060801b16911617928303613f4957505050565b5f5260205260405f2055565b1561021f57565b90915f198383099280830292838086109503948086039514613fda57908291613f86868411613f55565b09600182190182168092046002816003021880820260020302808202600203028082026002030280820260020302808202600203028091026002030293600183805f03040190848311900302920304170290565b50509150613fe9821515613f55565b0490565b91909160408184031261021f5780516001600160401b03811161021f5783614016918301612423565b9260208201516001600160401b03811161021f576104f09201612423565b90602080835192838152019201905f5b8181106140515750505090565b82516001600160e81b031916845260209384019390920191600101614044565b906104f09060018060a01b03835116815260018060a01b03602084015116602082015260018060a01b03604084015116604082015260c0806140e36140c5606087015160e0606087015260e0860190610710565b60808781015115159086015260a087015185820360a0870152614034565b9401516001600160e01b031916910152565b9161411e906141106104f09593606086526060860190614071565b9084820360208601526124a5565b9160408184039101526124a5565b969495909293919660608401976141438986613d46565b9690506144a3575b50614155856123f1565b9161415f866123f1565b905f5b87811061440d5750815f9185838961422661424f9d9e9f6141fa61421f61418885611dfc565b9461421161419860208301611dfc565b946141cd61420a6141ab60408601611dfc565b6141b86080870187613d46565b9390946141c760a0890161319c565b97613d46565b9890996141ea6141db610444565b6001600160a01b03909e168e52565b6001600160a01b031660208d0152565b6001600160a01b031660408b0152565b3691610489565b606087015215156080860152565b369161051a565b60a082015260c08101829052604051635efa47c760e11b81529c8d9586948593600485016140f5565b03926001600160a01b03165af1908115611019575f975f926143e6575b505f5b8781106142eb575050505050906142989495614292939261429c575b5050611da2565b90611e23565b5190565b816142ac60a06142d6940161319c565b156142dd5760206142bd9101611dfc565b6142cf6142c985611da2565b87611e23565b5191613812565b5f8061428b565b6142e690611dfc565b6142bd565b806143ac8a896143158461430e6001976143086080860186613d46565b90611dec565b3593611e23565b51614353614333614326878d611e23565b516001600160801b031690565b82614341614326898c611e23565b61434d60a0870161319c565b926139cc565b61435d8589611e23565b519261436b60a0840161319c565b156143c65761438960a06001600160801b038316600f0b940161319c565b156143b257506001600160801b036143a49116600f0b6129cb565b915b88613efb565b0161426f565b6001600160801b03915016600f0b916143a6565b61438960a06143e06001600160801b038516600f0b6129cb565b94611171565b90975061440591503d805f833e6143fd8183610423565b810190613fed565b90965f61426c565b60019061449d6144936144786144578f8c61442781611dfc565b91614451613e168961430861443e60208701611dfc565b9461444b60408801611dfc565b96613d46565b926131a6565b886001915f520160205260405f2054906001600160801b0382169160801c90565b6144858589949394611e23565b906001600160801b03169052565b6144858389611e23565b01614162565b6144d1906144b360a0870161319c565b156144d7576144ca6144c487611dfc565b91612a0d565b9089613812565b5f61414b565b6144ca6144c460208801611dfc565b9185809c9b829893979b99959a969a6145018c82868c6131a6565b966145e1575b888561452e89896001915f520160205260405f2054906001600160801b0382169160801c90565b9e8f94829861453e98939561464e565b9b8c809a61454b936139cc565b6145869289156145c6576001600160801b038216600f0b915b8a156145b457506145806001600160801b038a16600f0b6129cb565b92613efb565b614592575b5050505050565b6145a294156145ac575090613812565b5f8281808061458b565b905090613812565b6001600160801b0316600f0b92613efb565b6145db6001600160801b038a16600f0b6129cb565b91614564565b8215614601576145fc895b6145f587612a0d565b908d613812565b614507565b6145fc846145ec565b919082604091031261021f576020825192015190565b9193926001600160801b039081614641604094606087526060870190614071565b9616602085015216910152565b6146f998935f926146c46040989a9799956146b561466a6123cf565b938d61467586611e06565b5261468b6146816123cf565b966119df88611e06565b6146a5614696610444565b6001600160a01b039098168852565b6001600160a01b03166020870152565b6001600160a01b0316848a0152565b6060830152871515608083015260a082015260c08101829052855163a74713cf60e01b81529889958694859360048501614620565b03926001600160a01b03165af1928315611019575f9361474e575b50821561472057505090565b90915015614734576135806104f091612976565b6147406104f091612952565b67120a871cc0020000900490565b61477191935060403d604011614779575b6147698183610423565b81019061460a565b50915f614714565b503d61475f56fe1b3d7edb2e9c0b0e7c525b20aaaef0f5940d2ed71663c7d39266ecafac728859a264697066735822122011901e1e0ba7f01eda5bda82fbc2e503a199703501f32f966dadda5fc81c8bd264736f6c634300081e0033","opcodes":"PUSH2 0x100 CALLVALUE PUSH2 0xE5 JUMPI PUSH1 0x1F PUSH2 0x48E8 CODESIZE DUP2 SWAP1 SUB SWAP2 DUP3 ADD PUSH1 0x1F NOT AND DUP4 ADD SWAP2 PUSH1 0x1 PUSH1 0x1 PUSH1 0x40 SHL SUB DUP4 GT DUP5 DUP5 LT OR PUSH2 0xE9 JUMPI DUP1 DUP5 SWAP3 PUSH1 0x80 SWAP5 PUSH1 0x40 MSTORE DUP4 CODECOPY DUP2 ADD SUB SLT PUSH2 0xE5 JUMPI PUSH2 0x48 DUP2 PUSH2 0xFD JUMP JUMPDEST SWAP1 PUSH2 0x55 PUSH1 0x20 DUP3 ADD PUSH2 0xFD JUMP JUMPDEST PUSH2 0x6D PUSH1 0x60 PUSH2 0x66 PUSH1 0x40 DUP6 ADD PUSH2 0xFD JUMP JUMPDEST SWAP4 ADD PUSH2 0xFD JUMP JUMPDEST SWAP3 PUSH1 0x80 MSTORE PUSH1 0xA0 MSTORE PUSH1 0xC0 MSTORE PUSH1 0xE0 MSTORE PUSH1 0x40 MLOAD PUSH2 0x47D6 SWAP1 DUP2 PUSH2 0x112 DUP3 CODECOPY PUSH1 0x80 MLOAD DUP2 DUP2 DUP2 PUSH2 0x9A4 ADD MSTORE DUP2 DUP2 PUSH2 0x222A ADD MSTORE PUSH2 0x27DF ADD MSTORE PUSH1 0xA0 MLOAD DUP2 DUP2 DUP2 PUSH2 0xA69 ADD MSTORE DUP2 DUP2 PUSH2 0x2260 ADD MSTORE PUSH2 0x2818 ADD MSTORE PUSH1 0xC0 MLOAD DUP2 DUP2 DUP2 PUSH2 0x2F9 ADD MSTORE DUP2 DUP2 PUSH2 0x229B ADD MSTORE PUSH2 0x2856 ADD MSTORE PUSH1 0xE0 MLOAD DUP2 DUP2 DUP2 PUSH2 0x960 ADD MSTORE DUP2 DUP2 PUSH2 0x22D3 ADD MSTORE PUSH2 0x288E ADD MSTORE RETURN JUMPDEST PUSH0 DUP1 REVERT JUMPDEST PUSH4 0x4E487B71 PUSH1 0xE0 SHL PUSH0 MSTORE PUSH1 0x41 PUSH1 0x4 MSTORE PUSH1 0x24 PUSH0 REVERT JUMPDEST MLOAD SWAP1 PUSH1 0x1 PUSH1 0x1 PUSH1 0xA0 SHL SUB DUP3 AND DUP3 SUB PUSH2 0xE5 JUMPI JUMP INVALID PUSH1 0x80 PUSH1 0x40 MSTORE PUSH1 0x4 CALLDATASIZE LT ISZERO PUSH2 0x11 JUMPI PUSH0 DUP1 REVERT JUMPDEST PUSH0 CALLDATALOAD PUSH1 0xE0 SHR DUP1 PUSH3 0xFDD58E EQ PUSH2 0x209 JUMPI DUP1 PUSH4 0x1FFC9A7 EQ PUSH2 0x204 JUMPI DUP1 PUSH4 0x91F15B0 EQ PUSH2 0x1FF JUMPI DUP1 PUSH4 0x95BCDB6 EQ PUSH2 0x1FA JUMPI DUP1 PUSH4 0x21E24384 EQ PUSH2 0x196 JUMPI DUP1 PUSH4 0x2F380B35 EQ PUSH2 0x1F5 JUMPI DUP1 PUSH4 0x314E2321 EQ PUSH2 0x1F0 JUMPI DUP1 PUSH4 0x31B4AE17 EQ PUSH2 0x1EB JUMPI DUP1 PUSH4 0x3D465AAE EQ PUSH2 0x1E6 JUMPI DUP1 PUSH4 0x426A8493 EQ PUSH2 0x1E1 JUMPI DUP1 PUSH4 0x46FE6514 EQ PUSH2 0x1DC JUMPI DUP1 PUSH4 0x4DBB4C5E EQ PUSH2 0x1D7 JUMPI DUP1 PUSH4 0x558A7297 EQ PUSH2 0x1D2 JUMPI DUP1 PUSH4 0x5670F55A EQ PUSH2 0x1CD JUMPI DUP1 PUSH4 0x598AF9E7 EQ PUSH2 0x1C8 JUMPI DUP1 PUSH4 0x5B298D32 EQ PUSH2 0x1C3 JUMPI DUP1 PUSH4 0x5B7499B5 EQ PUSH2 0x1BE JUMPI DUP1 PUSH4 0x5DFB78AF EQ PUSH2 0x1B9 JUMPI DUP1 PUSH4 0x66387140 EQ PUSH2 0x1B4 JUMPI DUP1 PUSH4 0x94756E9B EQ PUSH2 0x1AF JUMPI DUP1 PUSH4 0x9D2EC6E4 EQ PUSH2 0x1AA JUMPI DUP1 PUSH4 0xA465BA0F EQ PUSH2 0x1A5 JUMPI DUP1 PUSH4 0xA74713CF EQ PUSH2 0x1A5 JUMPI DUP1 PUSH4 0xB5E60C3C EQ PUSH2 0x1A0 JUMPI DUP1 PUSH4 0xB6363CF2 EQ PUSH2 0x19B JUMPI DUP1 PUSH4 0xBDF48F8E EQ PUSH2 0x196 JUMPI DUP1 PUSH4 0xCB1F2F38 EQ PUSH2 0x191 JUMPI DUP1 PUSH4 0xD92BC84C EQ PUSH2 0x18C JUMPI DUP1 PUSH4 0xE513315B EQ PUSH2 0x187 JUMPI DUP1 PUSH4 0xEA157ACF EQ PUSH2 0x182 JUMPI DUP1 PUSH4 0xF9158EE5 EQ PUSH2 0x17D JUMPI PUSH4 0xFE99049A EQ PUSH2 0x178 JUMPI PUSH0 DUP1 REVERT JUMPDEST PUSH2 0x1BE0 JUMP JUMPDEST PUSH2 0x1B5F JUMP JUMPDEST PUSH2 0x1A2B JUMP JUMPDEST PUSH2 0x16F7 JUMP JUMPDEST PUSH2 0x167F JUMP JUMPDEST PUSH2 0x13C3 JUMP JUMPDEST PUSH2 0x768 JUMP JUMPDEST PUSH2 0x1360 JUMP JUMPDEST PUSH2 0x1336 JUMP JUMPDEST PUSH2 0x130D JUMP JUMPDEST PUSH2 0x1105 JUMP JUMPDEST PUSH2 0x1062 JUMP JUMPDEST PUSH2 0x101E JUMP JUMPDEST PUSH2 0xF52 JUMP JUMPDEST PUSH2 0xE71 JUMP JUMPDEST PUSH2 0xE3A JUMP JUMPDEST PUSH2 0xDCD JUMP JUMPDEST PUSH2 0xBBB JUMP JUMPDEST PUSH2 0xB1F JUMP JUMPDEST PUSH2 0xA98 JUMP JUMPDEST PUSH2 0xA54 JUMP JUMPDEST PUSH2 0x9D3 JUMP JUMPDEST PUSH2 0x98F JUMP JUMPDEST PUSH2 0x94B JUMP JUMPDEST PUSH2 0x8F6 JUMP JUMPDEST PUSH2 0x78F JUMP JUMPDEST PUSH2 0x34B JUMP JUMPDEST PUSH2 0x2E4 JUMP JUMPDEST PUSH2 0x28E JUMP JUMPDEST PUSH2 0x230 JUMP JUMPDEST PUSH1 0x1 PUSH1 0x1 PUSH1 0xA0 SHL SUB DUP2 AND SUB PUSH2 0x21F JUMPI JUMP JUMPDEST PUSH0 DUP1 REVERT JUMPDEST CALLDATALOAD SWAP1 PUSH2 0x22E DUP3 PUSH2 0x20E JUMP JUMPDEST JUMP JUMPDEST CALLVALUE PUSH2 0x21F JUMPI PUSH1 0x40 CALLDATASIZE PUSH1 0x3 NOT ADD SLT PUSH2 0x21F JUMPI PUSH1 0x4 CALLDATALOAD PUSH2 0x24D DUP2 PUSH2 0x20E JUMP JUMPDEST PUSH1 0x24 CALLDATALOAD SWAP1 PUSH1 0x1 DUP1 PUSH1 0xA0 SHL SUB AND PUSH0 MSTORE PUSH1 0x1 PUSH1 0x20 MSTORE PUSH1 0x40 PUSH0 KECCAK256 SWAP1 PUSH0 MSTORE PUSH1 0x20 MSTORE PUSH1 0x20 PUSH1 0x40 PUSH0 KECCAK256 SLOAD PUSH1 0x40 MLOAD SWAP1 DUP2 MSTORE RETURN JUMPDEST CALLDATALOAD SWAP1 PUSH1 0x1 PUSH1 0x1 PUSH1 0xE0 SHL SUB NOT DUP3 AND DUP3 SUB PUSH2 0x21F JUMPI JUMP JUMPDEST CALLVALUE PUSH2 0x21F JUMPI PUSH1 0x20 CALLDATASIZE PUSH1 0x3 NOT ADD SLT PUSH2 0x21F JUMPI PUSH1 0x4 CALLDATALOAD PUSH4 0xFFFFFFFF PUSH1 0xE0 SHL DUP2 AND DUP1 SWAP2 SUB PUSH2 0x21F JUMPI PUSH1 0x20 SWAP1 PUSH4 0x1FFC9A7 PUSH1 0xE0 SHL DUP2 EQ SWAP1 DUP2 ISZERO PUSH2 0x2D3 JUMPI JUMPDEST POP PUSH1 0x40 MLOAD SWAP1 ISZERO ISZERO DUP2 MSTORE RETURN JUMPDEST PUSH4 0xF632FB3 PUSH1 0xE0 SHL EQ SWAP1 POP PUSH0 PUSH2 0x2C8 JUMP JUMPDEST CALLVALUE PUSH2 0x21F JUMPI PUSH0 CALLDATASIZE PUSH1 0x3 NOT ADD SLT PUSH2 0x21F JUMPI PUSH1 0x40 MLOAD PUSH32 0x0 PUSH1 0x1 PUSH1 0x1 PUSH1 0xA0 SHL SUB AND DUP2 MSTORE PUSH1 0x20 SWAP1 RETURN JUMPDEST PUSH1 0x60 SWAP1 PUSH1 0x3 NOT ADD SLT PUSH2 0x21F JUMPI PUSH1 0x4 CALLDATALOAD PUSH2 0x340 DUP2 PUSH2 0x20E JUMP JUMPDEST SWAP1 PUSH1 0x24 CALLDATALOAD SWAP1 PUSH1 0x44 CALLDATALOAD SWAP1 JUMP JUMPDEST CALLVALUE PUSH2 0x21F JUMPI PUSH2 0x359 CALLDATASIZE PUSH2 0x328 JUMP JUMPDEST SWAP1 SWAP2 CALLER PUSH0 MSTORE PUSH1 0x1 PUSH1 0x20 MSTORE PUSH1 0x40 PUSH0 KECCAK256 DUP4 PUSH0 MSTORE PUSH1 0x20 MSTORE PUSH1 0x40 PUSH0 KECCAK256 DUP1 SLOAD SWAP1 DUP4 DUP3 SUB SWAP2 DUP3 GT PUSH2 0x3EA JUMPI SSTORE PUSH1 0x1 DUP1 PUSH1 0xA0 SHL SUB AND SWAP1 DUP2 PUSH0 MSTORE PUSH1 0x1 PUSH1 0x20 MSTORE PUSH2 0x3A5 DUP4 PUSH1 0x40 PUSH0 KECCAK256 SWAP1 PUSH0 MSTORE PUSH1 0x20 MSTORE PUSH1 0x40 PUSH0 KECCAK256 SWAP1 JUMP JUMPDEST PUSH2 0x3B0 DUP3 DUP3 SLOAD PUSH2 0x1DBD JUMP JUMPDEST SWAP1 SSTORE PUSH1 0x40 DUP1 MLOAD CALLER DUP1 DUP3 MSTORE PUSH1 0x20 DUP3 ADD SWAP4 SWAP1 SWAP4 MSTORE PUSH0 MLOAD PUSH1 0x20 PUSH2 0x4781 PUSH0 CODECOPY PUSH0 MLOAD SWAP1 PUSH0 MSTORE SWAP2 DUP2 SWAP1 DUP2 ADD JUMPDEST SUB SWAP1 LOG4 PUSH1 0x40 MLOAD PUSH1 0x1 DUP2 MSTORE DUP1 PUSH1 0x20 DUP2 ADD JUMPDEST SUB SWAP1 RETURN JUMPDEST PUSH2 0x1D8E JUMP JUMPDEST PUSH4 0x4E487B71 PUSH1 0xE0 SHL PUSH0 MSTORE PUSH1 0x41 PUSH1 0x4 MSTORE PUSH1 0x24 PUSH0 REVERT JUMPDEST PUSH1 0x80 DUP2 ADD SWAP1 DUP2 LT PUSH1 0x1 PUSH1 0x1 PUSH1 0x40 SHL SUB DUP3 GT OR PUSH2 0x41E JUMPI PUSH1 0x40 MSTORE JUMP JUMPDEST PUSH2 0x3EF JUMP JUMPDEST SWAP1 PUSH1 0x1F DUP1 NOT SWAP2 ADD AND DUP2 ADD SWAP1 DUP2 LT PUSH1 0x1 PUSH1 0x1 PUSH1 0x40 SHL SUB DUP3 GT OR PUSH2 0x41E JUMPI PUSH1 0x40 MSTORE JUMP JUMPDEST PUSH1 0x40 MLOAD SWAP1 PUSH2 0x22E PUSH1 0xE0 DUP4 PUSH2 0x423 JUMP JUMPDEST PUSH1 0x40 MLOAD SWAP1 PUSH2 0x22E PUSH1 0x80 DUP4 PUSH2 0x423 JUMP JUMPDEST PUSH1 0x40 MLOAD SWAP1 PUSH2 0x22E PUSH2 0x100 DUP4 PUSH2 0x423 JUMP JUMPDEST PUSH1 0x1 PUSH1 0x1 PUSH1 0x40 SHL SUB DUP2 GT PUSH2 0x41E JUMPI PUSH1 0x5 SHL PUSH1 0x20 ADD SWAP1 JUMP JUMPDEST SWAP3 SWAP2 SWAP1 PUSH2 0x495 DUP2 PUSH2 0x472 JUMP JUMPDEST SWAP4 PUSH2 0x4A3 PUSH1 0x40 MLOAD SWAP6 DUP7 PUSH2 0x423 JUMP JUMPDEST PUSH1 0x20 DUP6 DUP4 DUP2 MSTORE ADD SWAP2 PUSH1 0x5 SHL DUP2 ADD SWAP3 DUP4 GT PUSH2 0x21F JUMPI SWAP1 JUMPDEST DUP3 DUP3 LT PUSH2 0x4C5 JUMPI POP POP POP JUMP JUMPDEST DUP2 CALLDATALOAD DUP2 MSTORE PUSH1 0x20 SWAP2 DUP3 ADD SWAP2 ADD PUSH2 0x4B9 JUMP JUMPDEST SWAP1 DUP1 PUSH1 0x1F DUP4 ADD SLT ISZERO PUSH2 0x21F JUMPI DUP2 PUSH1 0x20 PUSH2 0x4F0 SWAP4 CALLDATALOAD SWAP2 ADD PUSH2 0x489 JUMP JUMPDEST SWAP1 JUMP JUMPDEST DUP1 ISZERO ISZERO SUB PUSH2 0x21F JUMPI JUMP JUMPDEST CALLDATALOAD SWAP1 PUSH2 0x22E DUP3 PUSH2 0x4F3 JUMP JUMPDEST PUSH1 0x1 PUSH1 0x1 PUSH1 0xE8 SHL SUB NOT DUP2 AND SUB PUSH2 0x21F JUMPI JUMP JUMPDEST SWAP3 SWAP2 SWAP1 PUSH2 0x526 DUP2 PUSH2 0x472 JUMP JUMPDEST SWAP4 PUSH2 0x534 PUSH1 0x40 MLOAD SWAP6 DUP7 PUSH2 0x423 JUMP JUMPDEST PUSH1 0x20 DUP6 DUP4 DUP2 MSTORE ADD SWAP2 PUSH1 0x5 SHL DUP2 ADD SWAP3 DUP4 GT PUSH2 0x21F JUMPI SWAP1 JUMPDEST DUP3 DUP3 LT PUSH2 0x556 JUMPI POP POP POP JUMP JUMPDEST PUSH1 0x20 DUP1 SWAP2 DUP4 CALLDATALOAD PUSH2 0x565 DUP2 PUSH2 0x508 JUMP JUMPDEST DUP2 MSTORE ADD SWAP2 ADD SWAP1 PUSH2 0x54A JUMP JUMPDEST SWAP1 DUP1 PUSH1 0x1F DUP4 ADD SLT ISZERO PUSH2 0x21F JUMPI DUP2 PUSH1 0x20 PUSH2 0x4F0 SWAP4 CALLDATALOAD SWAP2 ADD PUSH2 0x51A JUMP JUMPDEST SWAP2 SWAP1 SWAP2 PUSH1 0xE0 DUP2 DUP5 SUB SLT PUSH2 0x21F JUMPI PUSH2 0x5A0 PUSH2 0x444 JUMP JUMPDEST SWAP3 PUSH2 0x5AA DUP3 PUSH2 0x223 JUMP JUMPDEST DUP5 MSTORE PUSH2 0x5B8 PUSH1 0x20 DUP4 ADD PUSH2 0x223 JUMP JUMPDEST PUSH1 0x20 DUP6 ADD MSTORE PUSH2 0x5C9 PUSH1 0x40 DUP4 ADD PUSH2 0x223 JUMP JUMPDEST PUSH1 0x40 DUP6 ADD MSTORE PUSH1 0x60 DUP3 ADD CALLDATALOAD PUSH1 0x1 PUSH1 0x1 PUSH1 0x40 SHL SUB DUP2 GT PUSH2 0x21F JUMPI DUP2 PUSH2 0x5ED SWAP2 DUP5 ADD PUSH2 0x4D5 JUMP JUMPDEST PUSH1 0x60 DUP6 ADD MSTORE PUSH2 0x5FE PUSH1 0x80 DUP4 ADD PUSH2 0x4FD JUMP JUMPDEST PUSH1 0x80 DUP6 ADD MSTORE PUSH1 0xA0 DUP3 ADD CALLDATALOAD SWAP2 PUSH1 0x1 PUSH1 0x1 PUSH1 0x40 SHL SUB DUP4 GT PUSH2 0x21F JUMPI PUSH2 0x628 PUSH1 0xC0 SWAP3 PUSH2 0x633 SWAP5 DUP4 ADD PUSH2 0x570 JUMP JUMPDEST PUSH1 0xA0 DUP7 ADD MSTORE ADD PUSH2 0x279 JUMP JUMPDEST PUSH1 0xC0 DUP4 ADD MSTORE JUMP JUMPDEST SWAP1 DUP1 PUSH1 0x1F DUP4 ADD SLT ISZERO PUSH2 0x21F JUMPI DUP2 CALLDATALOAD SWAP1 PUSH2 0x652 DUP3 PUSH2 0x472 JUMP JUMPDEST SWAP3 PUSH2 0x660 PUSH1 0x40 MLOAD SWAP5 DUP6 PUSH2 0x423 JUMP JUMPDEST DUP3 DUP5 MSTORE PUSH1 0x20 DUP1 DUP6 ADD SWAP4 PUSH1 0x5 SHL DUP3 ADD ADD SWAP2 DUP3 GT PUSH2 0x21F JUMPI PUSH1 0x20 ADD SWAP2 JUMPDEST DUP2 DUP4 LT PUSH2 0x688 JUMPI POP POP POP SWAP1 JUMP JUMPDEST DUP3 CALLDATALOAD PUSH1 0x1 PUSH1 0x1 PUSH1 0x80 SHL SUB DUP2 AND DUP2 SUB PUSH2 0x21F JUMPI DUP2 MSTORE PUSH1 0x20 SWAP3 DUP4 ADD SWAP3 ADD PUSH2 0x67B JUMP JUMPDEST PUSH1 0x60 PUSH1 0x3 NOT DUP3 ADD SLT PUSH2 0x21F JUMPI PUSH1 0x4 CALLDATALOAD PUSH1 0x1 PUSH1 0x1 PUSH1 0x40 SHL SUB DUP2 GT PUSH2 0x21F JUMPI DUP2 PUSH2 0x6D2 SWAP2 PUSH1 0x4 ADD PUSH2 0x58B JUMP JUMPDEST SWAP2 PUSH1 0x24 CALLDATALOAD PUSH1 0x1 PUSH1 0x1 PUSH1 0x40 SHL SUB DUP2 GT PUSH2 0x21F JUMPI DUP3 PUSH2 0x6F1 SWAP2 PUSH1 0x4 ADD PUSH2 0x63A JUMP JUMPDEST SWAP2 PUSH1 0x44 CALLDATALOAD SWAP1 PUSH1 0x1 PUSH1 0x1 PUSH1 0x40 SHL SUB DUP3 GT PUSH2 0x21F JUMPI PUSH2 0x4F0 SWAP2 PUSH1 0x4 ADD PUSH2 0x63A JUMP JUMPDEST SWAP1 PUSH1 0x20 DUP1 DUP4 MLOAD SWAP3 DUP4 DUP2 MSTORE ADD SWAP3 ADD SWAP1 PUSH0 JUMPDEST DUP2 DUP2 LT PUSH2 0x72D JUMPI POP POP POP SWAP1 JUMP JUMPDEST DUP3 MLOAD DUP5 MSTORE PUSH1 0x20 SWAP4 DUP5 ADD SWAP4 SWAP1 SWAP3 ADD SWAP2 PUSH1 0x1 ADD PUSH2 0x720 JUMP JUMPDEST SWAP1 SWAP2 PUSH2 0x75A PUSH2 0x4F0 SWAP4 PUSH1 0x40 DUP5 MSTORE PUSH1 0x40 DUP5 ADD SWAP1 PUSH2 0x710 JUMP JUMPDEST SWAP2 PUSH1 0x20 DUP2 DUP5 SUB SWAP2 ADD MSTORE PUSH2 0x710 JUMP JUMPDEST CALLVALUE PUSH2 0x21F JUMPI PUSH2 0x77F PUSH2 0x779 CALLDATASIZE PUSH2 0x6A8 JUMP JUMPDEST SWAP2 PUSH2 0x25DC JUMP JUMPDEST SWAP1 PUSH2 0x3E6 PUSH1 0x40 MLOAD SWAP3 DUP4 SWAP3 DUP4 PUSH2 0x743 JUMP JUMPDEST CALLVALUE PUSH2 0x21F JUMPI PUSH1 0x20 CALLDATASIZE PUSH1 0x3 NOT ADD SLT PUSH2 0x21F JUMPI PUSH1 0x4 CALLDATALOAD PUSH0 PUSH1 0x60 PUSH1 0x40 MLOAD PUSH2 0x7B2 DUP2 PUSH2 0x403 JUMP JUMPDEST DUP3 DUP2 MSTORE DUP3 PUSH1 0x20 DUP3 ADD MSTORE DUP3 PUSH1 0x40 DUP3 ADD MSTORE ADD MSTORE PUSH0 MSTORE PUSH1 0x5 PUSH1 0x20 MSTORE PUSH1 0x40 PUSH0 KECCAK256 PUSH1 0x40 MLOAD SWAP1 PUSH2 0x7DB DUP3 PUSH2 0x403 JUMP JUMPDEST DUP1 SLOAD PUSH1 0x1 PUSH1 0x1 PUSH1 0xA0 SHL SUB SWAP1 DUP2 AND DUP1 DUP5 MSTORE PUSH1 0x1 DUP4 ADD SLOAD DUP3 AND PUSH1 0x20 DUP6 ADD DUP2 SWAP1 MSTORE PUSH1 0x2 SWAP1 SWAP4 ADD SLOAD SWAP2 DUP3 AND PUSH1 0x40 DUP6 ADD DUP2 SWAP1 MSTORE PUSH1 0x48 SWAP3 SWAP1 SWAP3 SHL PUSH1 0x1 PUSH1 0x1 PUSH1 0xE8 SHL SUB NOT AND PUSH1 0x60 SWAP5 SWAP1 SWAP5 ADD DUP5 SWAP1 MSTORE SWAP1 SWAP3 PUSH2 0x3E6 SWAP2 PUSH2 0x852 SWAP1 PUSH2 0x844 SWAP1 PUSH2 0x837 SWAP1 DUP2 JUMP JUMPDEST SWAP6 PUSH1 0x1 PUSH1 0x1 PUSH1 0xA0 SHL SUB AND SWAP1 JUMP JUMPDEST SWAP2 PUSH1 0x1 PUSH1 0x1 PUSH1 0xE8 SHL SUB NOT AND SWAP1 JUMP JUMPDEST PUSH1 0x40 DUP1 MLOAD PUSH1 0x1 PUSH1 0x1 PUSH1 0xA0 SHL SUB SWAP6 DUP7 AND DUP2 MSTORE SWAP6 DUP6 AND PUSH1 0x20 DUP8 ADD MSTORE SWAP2 SWAP1 SWAP4 AND SWAP1 DUP5 ADD MSTORE PUSH1 0x1 PUSH1 0x1 PUSH1 0xE8 SHL SUB NOT SWAP1 SWAP2 AND PUSH1 0x60 DUP4 ADD MSTORE DUP2 SWAP1 PUSH1 0x80 DUP3 ADD SWAP1 JUMP JUMPDEST SWAP2 DUP2 PUSH1 0x1F DUP5 ADD SLT ISZERO PUSH2 0x21F JUMPI DUP3 CALLDATALOAD SWAP2 PUSH1 0x1 PUSH1 0x1 PUSH1 0x40 SHL SUB DUP4 GT PUSH2 0x21F JUMPI PUSH1 0x20 DUP1 DUP6 ADD SWAP5 DUP5 PUSH1 0x5 SHL ADD ADD GT PUSH2 0x21F JUMPI JUMP JUMPDEST PUSH1 0x20 PUSH1 0x40 DUP2 DUP4 ADD SWAP3 DUP3 DUP2 MSTORE DUP5 MLOAD DUP1 SWAP5 MSTORE ADD SWAP3 ADD SWAP1 PUSH0 JUMPDEST DUP2 DUP2 LT PUSH2 0x8E0 JUMPI POP POP POP SWAP1 JUMP JUMPDEST DUP3 MLOAD DUP5 MSTORE PUSH1 0x20 SWAP4 DUP5 ADD SWAP4 SWAP1 SWAP3 ADD SWAP2 PUSH1 0x1 ADD PUSH2 0x8D3 JUMP JUMPDEST CALLVALUE PUSH2 0x21F JUMPI PUSH1 0x40 CALLDATASIZE PUSH1 0x3 NOT ADD SLT PUSH2 0x21F JUMPI PUSH1 0x4 CALLDATALOAD PUSH2 0x913 DUP2 PUSH2 0x20E JUMP JUMPDEST PUSH1 0x24 CALLDATALOAD PUSH1 0x1 PUSH1 0x1 PUSH1 0x40 SHL SUB DUP2 GT PUSH2 0x21F JUMPI PUSH2 0x3E6 SWAP2 PUSH2 0x939 PUSH2 0x93F SWAP3 CALLDATASIZE SWAP1 PUSH1 0x4 ADD PUSH2 0x88D JUMP JUMPDEST SWAP2 PUSH2 0x1E37 JUMP JUMPDEST PUSH1 0x40 MLOAD SWAP2 DUP3 SWAP2 DUP3 PUSH2 0x8BD JUMP JUMPDEST CALLVALUE PUSH2 0x21F JUMPI PUSH0 CALLDATASIZE PUSH1 0x3 NOT ADD SLT PUSH2 0x21F JUMPI PUSH1 0x40 MLOAD PUSH32 0x0 PUSH1 0x1 PUSH1 0x1 PUSH1 0xA0 SHL SUB AND DUP2 MSTORE PUSH1 0x20 SWAP1 RETURN JUMPDEST CALLVALUE PUSH2 0x21F JUMPI PUSH0 CALLDATASIZE PUSH1 0x3 NOT ADD SLT PUSH2 0x21F JUMPI PUSH1 0x40 MLOAD PUSH32 0x0 PUSH1 0x1 PUSH1 0x1 PUSH1 0xA0 SHL SUB AND DUP2 MSTORE PUSH1 0x20 SWAP1 RETURN JUMPDEST CALLVALUE PUSH2 0x21F JUMPI PUSH2 0x9E1 CALLDATASIZE PUSH2 0x328 JUMP JUMPDEST SWAP1 SWAP2 CALLER PUSH0 MSTORE PUSH1 0x2 PUSH1 0x20 MSTORE PUSH2 0xA08 DUP2 PUSH1 0x40 PUSH0 KECCAK256 SWAP1 PUSH1 0x1 DUP1 PUSH1 0xA0 SHL SUB AND PUSH0 MSTORE PUSH1 0x20 MSTORE PUSH1 0x40 PUSH0 KECCAK256 SWAP1 JUMP JUMPDEST DUP4 PUSH0 MSTORE PUSH1 0x20 MSTORE DUP2 PUSH1 0x40 PUSH0 KECCAK256 SSTORE PUSH1 0x40 MLOAD SWAP2 DUP3 MSTORE PUSH1 0x1 DUP1 PUSH1 0xA0 SHL SUB AND SWAP1 PUSH32 0xB3FD5071835887567A0671151121894DDCCC2842F1D10BEDAD13E0D17CACE9A7 PUSH1 0x20 CALLER SWAP3 LOG4 PUSH1 0x20 PUSH1 0x40 MLOAD PUSH1 0x1 DUP2 MSTORE RETURN JUMPDEST CALLVALUE PUSH2 0x21F JUMPI PUSH0 CALLDATASIZE PUSH1 0x3 NOT ADD SLT PUSH2 0x21F JUMPI PUSH1 0x40 MLOAD PUSH32 0x0 PUSH1 0x1 PUSH1 0x1 PUSH1 0xA0 SHL SUB AND DUP2 MSTORE PUSH1 0x20 SWAP1 RETURN JUMPDEST PUSH2 0x120 CALLDATASIZE PUSH1 0x3 NOT ADD SLT PUSH2 0x21F JUMPI PUSH1 0x4 CALLDATALOAD PUSH2 0xAB1 DUP2 PUSH2 0x20E JUMP JUMPDEST PUSH1 0x24 CALLDATALOAD PUSH2 0xABD DUP2 PUSH2 0x20E JUMP JUMPDEST PUSH1 0x44 CALLDATALOAD SWAP2 PUSH2 0xACA DUP4 PUSH2 0x20E JUMP JUMPDEST PUSH1 0x64 CALLDATALOAD PUSH2 0xAD6 DUP2 PUSH2 0x508 JUMP JUMPDEST PUSH1 0x84 CALLDATALOAD PUSH1 0xA4 CALLDATALOAD PUSH2 0xAE5 DUP2 PUSH2 0x4F3 JUMP JUMPDEST PUSH1 0xC4 CALLDATALOAD SWAP2 PUSH1 0xE4 CALLDATALOAD SWAP4 PUSH1 0x1 PUSH1 0x1 PUSH1 0x40 SHL SUB DUP6 AND DUP6 SUB PUSH2 0x21F JUMPI PUSH2 0x3E6 SWAP8 PUSH2 0xB0F SWAP8 PUSH2 0x104 CALLDATALOAD SWAP8 PUSH2 0x1EAD JUMP JUMPDEST PUSH1 0x40 MLOAD SWAP1 DUP2 MSTORE SWAP1 DUP2 SWAP1 PUSH1 0x20 DUP3 ADD SWAP1 JUMP JUMPDEST CALLVALUE PUSH2 0x21F JUMPI PUSH1 0x40 CALLDATASIZE PUSH1 0x3 NOT ADD SLT PUSH2 0x21F JUMPI PUSH1 0x4 CALLDATALOAD PUSH2 0xB3C DUP2 PUSH2 0x20E JUMP JUMPDEST PUSH1 0x24 CALLDATALOAD SWAP1 PUSH2 0xB49 DUP3 PUSH2 0x4F3 JUMP JUMPDEST CALLER PUSH0 SWAP1 DUP2 MSTORE PUSH1 0x20 DUP2 DUP2 MSTORE PUSH1 0x40 DUP1 DUP4 KECCAK256 PUSH1 0x1 PUSH1 0x1 PUSH1 0xA0 SHL SUB DUP6 AND DUP5 MSTORE SWAP1 SWAP2 MSTORE SWAP1 KECCAK256 SWAP2 ISZERO ISZERO SWAP2 PUSH1 0xFF NOT DUP2 SLOAD AND PUSH1 0xFF DUP5 AND OR SWAP1 SSTORE PUSH1 0x40 MLOAD SWAP2 DUP3 MSTORE PUSH1 0x1 DUP1 PUSH1 0xA0 SHL SUB AND SWAP1 PUSH32 0xCEB576D9F15E4E200FDB5096D64D5DFD667E16DEF20C1EEFD14256D8E3FAA267 PUSH1 0x20 CALLER SWAP3 LOG3 PUSH1 0x40 MLOAD PUSH1 0x1 DUP2 MSTORE PUSH1 0x20 SWAP1 RETURN JUMPDEST CALLVALUE PUSH2 0x21F JUMPI PUSH1 0x80 CALLDATASIZE PUSH1 0x3 NOT ADD SLT PUSH2 0x21F JUMPI PUSH1 0x4 CALLDATALOAD PUSH2 0xBD8 DUP2 PUSH2 0x20E JUMP JUMPDEST PUSH1 0x24 CALLDATALOAD PUSH2 0xBE4 DUP2 PUSH2 0x20E JUMP JUMPDEST PUSH1 0x44 CALLDATALOAD SWAP2 PUSH2 0xBF1 DUP4 PUSH2 0x20E JUMP JUMPDEST PUSH1 0x64 CALLDATALOAD SWAP2 PUSH2 0xBFE DUP4 PUSH2 0x508 JUMP JUMPDEST PUSH2 0xC0E PUSH2 0xC09 PUSH2 0x2B08 JUMP JUMPDEST PUSH2 0x2B51 JUMP JUMPDEST PUSH2 0xC1A DUP4 DUP6 DUP4 DUP6 PUSH2 0x31A6 JUMP JUMPDEST SWAP3 PUSH1 0x1 DUP1 PUSH1 0xA0 SHL SUB PUSH2 0xC47 PUSH1 0x2 PUSH2 0xC39 DUP8 PUSH0 MSTORE PUSH1 0x5 PUSH1 0x20 MSTORE PUSH1 0x40 PUSH0 KECCAK256 SWAP1 JUMP JUMPDEST ADD SLOAD PUSH1 0x1 PUSH1 0x1 PUSH1 0xA0 SHL SUB AND SWAP1 JUMP JUMPDEST AND PUSH2 0xDB9 JUMPI PUSH2 0x3E6 SWAP5 DUP5 SWAP4 PUSH32 0x68DF9A4EB7AACBE8F43763BFBC9F7CA135A5397190EA1CCE2558DB52DC2F3692 SWAP4 SWAP2 SWAP3 SWAP1 SWAP2 SWAP1 PUSH1 0x1 PUSH1 0x1 PUSH1 0xA0 SHL SUB DUP1 DUP4 AND SWAP1 DUP5 AND LT ISZERO PUSH2 0xDAE JUMPI PUSH2 0xD91 SWAP2 SWAP4 JUMPDEST PUSH2 0xD55 PUSH2 0xC9E PUSH2 0x453 JUMP JUMPDEST PUSH1 0x1 PUSH1 0x1 PUSH1 0xA0 SHL SUB DUP7 AND DUP2 MSTORE PUSH1 0x1 PUSH1 0x1 PUSH1 0xA0 SHL SUB DUP8 AND PUSH1 0x20 DUP3 ADD MSTORE PUSH1 0x1 PUSH1 0x1 PUSH1 0xA0 SHL SUB DUP4 AND PUSH1 0x40 DUP3 ADD MSTORE PUSH1 0x1 PUSH1 0x1 PUSH1 0xE8 SHL SUB NOT DUP5 AND PUSH1 0x60 DUP3 ADD MSTORE PUSH2 0xCEA DUP10 PUSH0 MSTORE PUSH1 0x5 PUSH1 0x20 MSTORE PUSH1 0x40 PUSH0 KECCAK256 SWAP1 JUMP JUMPDEST DUP2 MLOAD DUP2 SLOAD PUSH1 0x1 PUSH1 0x1 PUSH1 0xA0 SHL SUB NOT SWAP1 DUP2 AND PUSH1 0x1 PUSH1 0x1 PUSH1 0xA0 SHL SUB SWAP3 DUP4 AND OR DUP4 SSTORE PUSH1 0x20 DUP5 ADD MLOAD PUSH1 0x1 DUP5 ADD DUP1 SLOAD SWAP1 SWAP3 AND SWAP1 DUP4 AND OR SWAP1 SSTORE PUSH1 0x40 DUP4 ADD MLOAD PUSH1 0x2 SWAP1 SWAP3 ADD DUP1 SLOAD PUSH1 0x60 SWAP1 SWAP5 ADD MLOAD SWAP3 SWAP1 SWAP2 AND PUSH1 0x1 PUSH1 0x1 PUSH1 0xB8 SHL SUB NOT SWAP1 SWAP4 AND SWAP3 SWAP1 SWAP3 OR PUSH1 0x48 SWAP2 SWAP1 SWAP2 SHR PUSH3 0xFFFFFF PUSH1 0xA0 SHL AND OR SWAP1 SSTORE JUMP JUMPDEST PUSH1 0x40 DUP1 MLOAD PUSH1 0x1 PUSH1 0x1 PUSH1 0xA0 SHL SUB SWAP6 DUP7 AND DUP2 MSTORE SWAP6 DUP6 AND PUSH1 0x20 DUP8 ADD MSTORE SWAP4 AND SWAP3 DUP5 ADD SWAP3 SWAP1 SWAP3 MSTORE PUSH1 0x1 PUSH1 0x1 PUSH1 0xE8 SHL SUB NOT SWAP1 SWAP2 AND PUSH1 0x60 DUP4 ADD MSTORE DUP2 SWAP1 PUSH1 0x80 DUP3 ADD SWAP1 JUMP JUMPDEST SUB SWAP1 LOG2 PUSH0 PUSH2 0xD9D PUSH2 0x2B08 JUMP JUMPDEST TSTORE PUSH1 0x40 MLOAD SWAP1 DUP2 MSTORE SWAP1 DUP2 SWAP1 PUSH1 0x20 DUP3 ADD SWAP1 JUMP JUMPDEST PUSH2 0xD91 SWAP2 SWAP3 SWAP4 PUSH2 0xC93 JUMP JUMPDEST PUSH4 0xE1ECC133 PUSH1 0xE0 SHL PUSH0 MSTORE PUSH1 0x4 DUP5 SWAP1 MSTORE PUSH1 0x24 PUSH0 REVERT JUMPDEST CALLVALUE PUSH2 0x21F JUMPI PUSH1 0x60 CALLDATASIZE PUSH1 0x3 NOT ADD SLT PUSH2 0x21F JUMPI PUSH1 0x4 CALLDATALOAD PUSH2 0xDEA DUP2 PUSH2 0x20E JUMP JUMPDEST PUSH2 0xE25 PUSH1 0x24 CALLDATALOAD PUSH2 0xDF9 DUP2 PUSH2 0x20E JUMP JUMPDEST PUSH1 0x44 CALLDATALOAD SWAP3 PUSH1 0x1 DUP1 PUSH1 0xA0 SHL SUB AND PUSH0 MSTORE PUSH1 0x2 PUSH1 0x20 MSTORE PUSH1 0x40 PUSH0 KECCAK256 SWAP1 PUSH1 0x1 DUP1 PUSH1 0xA0 SHL SUB AND PUSH0 MSTORE PUSH1 0x20 MSTORE PUSH1 0x40 PUSH0 KECCAK256 SWAP1 JUMP JUMPDEST SWAP1 PUSH0 MSTORE PUSH1 0x20 MSTORE PUSH1 0x20 PUSH1 0x40 PUSH0 KECCAK256 SLOAD PUSH1 0x40 MLOAD SWAP1 DUP2 MSTORE RETURN JUMPDEST CALLVALUE PUSH2 0x21F JUMPI PUSH1 0x20 CALLDATASIZE PUSH1 0x3 NOT ADD SLT PUSH2 0x21F JUMPI PUSH1 0x40 PUSH1 0x1 PUSH1 0x1 PUSH1 0x80 SHL SUB PUSH2 0xE60 PUSH1 0x4 CALLDATALOAD PUSH2 0x2EC9 JUMP JUMPDEST DUP4 MLOAD SWAP2 DUP4 AND DUP3 MSTORE SWAP1 SWAP2 AND PUSH1 0x20 DUP3 ADD MSTORE RETURN JUMPDEST CALLVALUE PUSH2 0x21F JUMPI PUSH1 0x20 CALLDATASIZE PUSH1 0x3 NOT ADD SLT PUSH2 0x21F JUMPI PUSH1 0x4 CALLDATALOAD PUSH4 0xFFFFFFFF NUMBER AND SWAP1 DUP1 PUSH0 MSTORE PUSH1 0x8 PUSH1 0x20 MSTORE PUSH1 0x40 PUSH0 KECCAK256 DUP3 PUSH4 0xFFFFFFFF NOT DUP3 SLOAD AND OR SWAP1 SSTORE PUSH1 0x40 MLOAD SWAP2 DUP3 MSTORE PUSH32 0xF76330AF9ED35739F4663E9F2C2726C5C60A98C86B8E6C087B0B54D818C0099B PUSH1 0x20 CALLER SWAP4 LOG3 STOP JUMPDEST SWAP1 PUSH1 0x60 PUSH1 0x3 NOT DUP4 ADD SLT PUSH2 0x21F JUMPI PUSH1 0x4 CALLDATALOAD PUSH2 0xEED DUP2 PUSH2 0x20E JUMP JUMPDEST SWAP2 PUSH1 0x24 CALLDATALOAD SWAP2 PUSH1 0x1 PUSH1 0x1 PUSH1 0x40 SHL SUB DUP4 GT PUSH2 0x21F JUMPI DUP2 PUSH1 0x23 DUP5 ADD SLT ISZERO PUSH2 0x21F JUMPI DUP3 PUSH1 0x4 ADD CALLDATALOAD SWAP3 PUSH1 0x1 PUSH1 0x1 PUSH1 0x40 SHL SUB DUP5 GT PUSH2 0x21F JUMPI DUP3 PUSH1 0x24 DUP6 DUP4 ADD ADD GT PUSH2 0x21F JUMPI PUSH1 0x24 ADD SWAP3 SWAP2 PUSH1 0x44 CALLDATALOAD SWAP1 PUSH1 0x1 PUSH1 0x1 PUSH1 0x40 SHL SUB DUP3 GT PUSH2 0x21F JUMPI PUSH2 0xF4E SWAP2 PUSH1 0x4 ADD PUSH2 0x88D JUMP JUMPDEST SWAP1 SWAP2 JUMP JUMPDEST PUSH2 0xF5B CALLDATASIZE PUSH2 0xED4 JUMP JUMPDEST SWAP4 SWAP2 PUSH2 0xF65 PUSH2 0x2EE7 JUMP JUMPDEST SWAP3 PUSH2 0xF6F DUP5 PUSH2 0x2B51 JUMP JUMPDEST PUSH1 0x1 PUSH2 0xF7B CALLER ADDRESS PUSH2 0x3B83 JUMP JUMPDEST TSTORE PUSH2 0xF85 CALLER PUSH2 0x2F50 JUMP JUMPDEST PUSH1 0x1 PUSH1 0x1 PUSH1 0xA0 SHL SUB AND SWAP4 DUP5 EXTCODESIZE ISZERO PUSH2 0x21F JUMPI PUSH1 0x40 MLOAD PUSH4 0x1C6E7247 PUSH1 0xE3 SHL DUP2 MSTORE SWAP2 PUSH0 SWAP2 DUP4 SWAP2 PUSH2 0xFB5 SWAP2 PUSH1 0x4 DUP5 ADD PUSH2 0x1F60 JUMP JUMPDEST SWAP6 DUP2 DUP4 DUP2 DUP2 SWAP10 SUB SWAP3 GAS CALL DUP1 ISZERO PUSH2 0x1019 JUMPI PUSH2 0xFFB JUMPI JUMPDEST POP DUP3 SWAP4 PUSH2 0xFDD PUSH2 0xFE3 SWAP3 CALLVALUE SWAP3 CALLDATASIZE SWAP2 PUSH2 0x1F92 JUMP JUMPDEST CALLER PUSH2 0x302E JUMP JUMPDEST PUSH2 0xFEB PUSH2 0x30C6 JUMP JUMPDEST PUSH0 PUSH2 0xFF6 CALLER ADDRESS PUSH2 0x3B83 JUMP JUMPDEST TSTORE TSTORE DUP1 RETURN JUMPDEST PUSH2 0xFE3 SWAP2 SWAP4 POP SWAP4 PUSH2 0x100F PUSH0 PUSH2 0xFDD SWAP7 PUSH2 0x423 JUMP JUMPDEST PUSH0 SWAP4 SWAP2 POP SWAP4 PUSH2 0xFCA JUMP JUMPDEST PUSH2 0x1F87 JUMP JUMPDEST CALLVALUE PUSH2 0x21F JUMPI PUSH1 0x20 CALLDATASIZE PUSH1 0x3 NOT ADD SLT PUSH2 0x21F JUMPI PUSH1 0x4 CALLDATALOAD PUSH2 0x103B DUP2 PUSH2 0x20E JUMP JUMPDEST PUSH1 0x1 DUP1 PUSH1 0xA0 SHL SUB AND PUSH0 MSTORE PUSH1 0x9 PUSH1 0x20 MSTORE PUSH1 0x20 PUSH1 0x1 PUSH1 0x1 PUSH1 0x40 SHL SUB PUSH1 0x40 PUSH0 KECCAK256 SLOAD AND PUSH1 0x40 MLOAD SWAP1 DUP2 MSTORE RETURN JUMPDEST CALLVALUE PUSH2 0x21F JUMPI PUSH1 0x40 CALLDATASIZE PUSH1 0x3 NOT ADD SLT PUSH2 0x21F JUMPI PUSH1 0x4 CALLDATALOAD PUSH2 0x107F DUP2 PUSH2 0x20E JUMP JUMPDEST PUSH1 0x24 CALLDATALOAD PUSH2 0xFFFF DUP2 AND SWAP2 DUP3 DUP3 SUB PUSH2 0x21F JUMPI PUSH1 0x6 DUP1 SLOAD PUSH1 0x1 PUSH1 0x1 PUSH1 0xA0 SHL SUB NOT AND PUSH1 0x1 PUSH1 0x1 PUSH1 0xA0 SHL SUB DUP4 AND OR SWAP1 SSTORE PUSH32 0x42BC0DCE68A76F2CB7882E7DA1060360603348EDE3C834D9239472D409103EF8 SWAP3 PUSH1 0x40 SWAP3 PUSH1 0x6 DUP1 SLOAD PUSH2 0xFFFF PUSH1 0xA0 SHL NOT AND PUSH1 0xA0 SWAP3 SWAP1 SWAP3 SHL PUSH2 0xFFFF PUSH1 0xA0 SHL AND SWAP2 SWAP1 SWAP2 OR SWAP1 SSTORE DUP3 MLOAD PUSH1 0x1 PUSH1 0x1 PUSH1 0xA0 SHL SUB SWAP1 SWAP3 AND DUP3 MSTORE PUSH1 0x20 DUP3 ADD MSTORE LOG1 STOP JUMPDEST PUSH1 0x60 CALLDATASIZE PUSH1 0x3 NOT ADD SLT PUSH2 0x21F JUMPI PUSH1 0x4 CALLDATALOAD PUSH1 0x1 PUSH1 0x1 PUSH1 0x40 SHL SUB DUP2 GT PUSH2 0x21F JUMPI PUSH2 0x1130 SWAP1 CALLDATASIZE SWAP1 PUSH1 0x4 ADD PUSH2 0x88D JUMP JUMPDEST PUSH1 0x44 CALLDATALOAD SWAP2 PUSH1 0x24 CALLDATALOAD PUSH2 0x1142 PUSH2 0xC09 PUSH2 0x2B08 JUMP JUMPDEST PUSH2 0x114A PUSH2 0x3115 JUMP JUMPDEST SWAP1 PUSH1 0x1 PUSH1 0x1 PUSH1 0xA0 SHL SUB DUP3 AND ISZERO PUSH2 0x12B0 JUMPI JUMPDEST DUP4 ISZERO PUSH2 0x12A1 JUMPI SWAP3 PUSH2 0x1177 PUSH1 0xA0 PUSH2 0x1171 DUP4 DUP7 PUSH2 0x315F JUMP JUMPDEST ADD PUSH2 0x319C JUMP JUMPDEST ISZERO PUSH2 0x128C JUMPI PUSH2 0x118E PUSH2 0x1189 DUP3 DUP6 PUSH2 0x315F JUMP JUMPDEST PUSH2 0x1DFC JUMP JUMPDEST SWAP3 JUMPDEST PUSH2 0x11A8 PUSH1 0xA0 PUSH2 0x1171 PUSH2 0x11A1 DUP6 PUSH2 0x1DA2 JUMP JUMPDEST DUP6 DUP6 PUSH2 0x317A JUMP JUMPDEST ISZERO PUSH2 0x126F JUMPI PUSH2 0x11C4 PUSH1 0x20 PUSH2 0x11BE PUSH2 0x11A1 DUP6 PUSH2 0x1DA2 JUMP JUMPDEST ADD PUSH2 0x1DFC JUMP JUMPDEST SWAP2 SWAP1 JUMPDEST PUSH0 SWAP2 JUMPDEST DUP1 DUP4 LT PUSH2 0x122F JUMPI POP PUSH2 0x11E8 SWAP2 POP PUSH2 0x11E3 SWAP1 POP DUP4 ADDRESS PUSH2 0x3B83 JUMP JUMPDEST TLOAD ISZERO SWAP1 JUMP JUMPDEST PUSH2 0x121C JUMPI JUMPDEST POP POP POP DUP2 DUP2 LT PUSH2 0x1204 JUMPI PUSH2 0x3E6 SWAP1 PUSH0 PUSH2 0xD9D PUSH2 0x2B08 JUMP JUMPDEST PUSH4 0xD438755D PUSH1 0xE0 SHL PUSH0 MSTORE PUSH1 0x4 SWAP2 SWAP1 SWAP2 MSTORE PUSH1 0x24 MSTORE PUSH1 0x44 PUSH0 REVERT JUMPDEST PUSH2 0x1227 SWAP3 CALLVALUE SWAP3 PUSH2 0x3A3E JUMP JUMPDEST PUSH0 DUP1 DUP1 PUSH2 0x11ED JUMP JUMPDEST SWAP1 SWAP2 SWAP6 PUSH2 0x1261 PUSH1 0x1 SWAP2 DUP7 PUSH2 0x1244 DUP11 DUP7 DUP9 PUSH2 0x317A JUMP JUMPDEST SWAP2 DUP11 ISZERO PUSH2 0x1250 DUP8 PUSH2 0x1DA2 JUMP JUMPDEST DUP13 EQ SWAP2 DUP2 ISZERO PUSH2 0x126A JUMPI JUMPDEST ADDRESS SWAP5 PUSH2 0x3D85 JUMP JUMPDEST SWAP7 ADD SWAP2 SWAP1 PUSH2 0x11CA JUMP JUMPDEST PUSH2 0x125A JUMP JUMPDEST PUSH2 0x1285 PUSH2 0x1189 PUSH2 0x127E DUP5 PUSH2 0x1DA2 JUMP JUMPDEST DUP5 DUP5 PUSH2 0x317A JUMP JUMPDEST SWAP2 SWAP1 PUSH2 0x11C7 JUMP JUMPDEST PUSH2 0x129B PUSH1 0x20 PUSH2 0x11BE DUP4 DUP7 PUSH2 0x315F JUMP JUMPDEST SWAP3 PUSH2 0x1190 JUMP JUMPDEST PUSH4 0x145DBB45 PUSH1 0xE2 SHL PUSH0 MSTORE PUSH1 0x4 PUSH0 REVERT JUMPDEST CALLER SWAP2 POP PUSH2 0x115B JUMP JUMPDEST PUSH1 0x60 PUSH1 0x3 NOT DUP3 ADD SLT PUSH2 0x21F JUMPI PUSH1 0x4 CALLDATALOAD SWAP1 PUSH1 0x1 PUSH1 0x1 PUSH1 0x40 SHL SUB DUP3 GT PUSH2 0x21F JUMPI PUSH2 0x12E2 SWAP2 PUSH1 0x4 ADD PUSH2 0x58B JUMP JUMPDEST SWAP1 PUSH1 0x24 CALLDATALOAD PUSH1 0x1 PUSH1 0x1 PUSH1 0x80 SHL SUB DUP2 AND DUP2 SUB PUSH2 0x21F JUMPI SWAP1 PUSH1 0x44 CALLDATALOAD PUSH1 0x1 PUSH1 0x1 PUSH1 0x80 SHL SUB DUP2 AND DUP2 SUB PUSH2 0x21F JUMPI SWAP1 JUMP JUMPDEST CALLVALUE PUSH2 0x21F JUMPI PUSH2 0x1324 PUSH2 0x131E CALLDATASIZE PUSH2 0x12B8 JUMP JUMPDEST SWAP2 PUSH2 0x20EC JUMP JUMPDEST PUSH1 0x40 DUP1 MLOAD SWAP3 DUP4 MSTORE PUSH1 0x20 DUP4 ADD SWAP2 SWAP1 SWAP2 MSTORE SWAP1 RETURN JUMPDEST CALLVALUE PUSH2 0x21F JUMPI PUSH1 0x20 CALLDATASIZE PUSH1 0x3 NOT ADD SLT PUSH2 0x21F JUMPI PUSH1 0x4 CALLDATALOAD PUSH0 MSTORE PUSH1 0x3 PUSH1 0x20 MSTORE PUSH1 0x20 PUSH1 0x40 PUSH0 KECCAK256 SLOAD PUSH1 0x40 MLOAD SWAP1 DUP2 MSTORE RETURN JUMPDEST CALLVALUE PUSH2 0x21F JUMPI PUSH1 0x40 CALLDATASIZE PUSH1 0x3 NOT ADD SLT PUSH2 0x21F JUMPI PUSH1 0x20 PUSH1 0xFF PUSH2 0x13B7 PUSH1 0x4 CALLDATALOAD PUSH2 0x1384 DUP2 PUSH2 0x20E JUMP JUMPDEST PUSH1 0x24 CALLDATALOAD SWAP1 PUSH2 0x1391 DUP3 PUSH2 0x20E JUMP JUMPDEST PUSH1 0x1 DUP1 PUSH1 0xA0 SHL SUB AND PUSH0 MSTORE PUSH0 DUP5 MSTORE PUSH1 0x40 PUSH0 KECCAK256 SWAP1 PUSH1 0x1 DUP1 PUSH1 0xA0 SHL SUB AND PUSH0 MSTORE PUSH1 0x20 MSTORE PUSH1 0x40 PUSH0 KECCAK256 SWAP1 JUMP JUMPDEST SLOAD AND PUSH1 0x40 MLOAD SWAP1 ISZERO ISZERO DUP2 MSTORE RETURN JUMPDEST CALLVALUE PUSH2 0x21F JUMPI PUSH1 0xA0 CALLDATASIZE PUSH1 0x3 NOT ADD SLT PUSH2 0x21F JUMPI PUSH1 0x4 CALLDATALOAD PUSH2 0x13E0 DUP2 PUSH2 0x20E JUMP JUMPDEST PUSH1 0x24 CALLDATALOAD PUSH2 0x13EC DUP2 PUSH2 0x20E JUMP JUMPDEST PUSH1 0x44 CALLDATALOAD SWAP2 PUSH2 0x13F9 DUP4 PUSH2 0x20E JUMP JUMPDEST PUSH1 0x64 CALLDATALOAD SWAP3 PUSH2 0x1406 DUP5 PUSH2 0x508 JUMP JUMPDEST PUSH1 0x84 CALLDATALOAD SWAP4 PUSH2 0x1415 PUSH2 0xC09 PUSH2 0x2B08 JUMP JUMPDEST DUP5 ISZERO PUSH2 0x1670 JUMPI PUSH2 0x1426 SWAP2 DUP5 DUP5 PUSH2 0x31A6 JUMP JUMPDEST SWAP1 PUSH2 0x1430 DUP3 PUSH2 0x2EC9 JUMP JUMPDEST SWAP4 SWAP1 PUSH2 0x144C PUSH2 0x1447 DUP6 PUSH0 MSTORE PUSH1 0x3 PUSH1 0x20 MSTORE PUSH1 0x40 PUSH0 KECCAK256 SWAP1 JUMP JUMPDEST SLOAD ISZERO SWAP1 JUMP JUMPDEST PUSH2 0x1661 JUMPI PUSH1 0x1 PUSH1 0x1 PUSH1 0x80 SHL SUB SWAP5 PUSH2 0x1462 SWAP2 PUSH2 0x3467 JUMP JUMPDEST SWAP2 PUSH2 0x146D DUP4 DUP6 PUSH2 0x34B2 JUMP JUMPDEST PUSH2 0x14BE PUSH2 0x14AC DUP7 PUSH2 0x14A4 PUSH2 0x148B PUSH2 0x1483 DUP10 PUSH2 0x2EC9 JUMP JUMPDEST SWAP11 AND DUP12 PUSH2 0x299A JUMP JUMPDEST PUSH2 0x149D DUP10 PUSH0 MSTORE PUSH1 0x3 PUSH1 0x20 MSTORE PUSH1 0x40 PUSH0 KECCAK256 SWAP1 JUMP JUMPDEST SLOAD SWAP1 PUSH2 0x29AD JUMP JUMPDEST SWAP8 AND DUP9 PUSH2 0x299A JUMP JUMPDEST PUSH2 0x149D DUP7 PUSH0 MSTORE PUSH1 0x3 PUSH1 0x20 MSTORE PUSH1 0x40 PUSH0 KECCAK256 SWAP1 JUMP JUMPDEST SWAP6 DUP6 ISZERO DUP1 PUSH2 0x1659 JUMPI JUMPDEST PUSH2 0x1640 JUMPI SWAP2 PUSH2 0x15C1 SWAP5 SWAP4 SWAP2 PUSH2 0x15B2 SWAP4 PUSH2 0x14DE PUSH2 0x3115 JUMP JUMPDEST SWAP1 PUSH1 0x1 PUSH1 0x1 PUSH1 0xA0 SHL SUB DUP3 AND ISZERO PUSH2 0x1638 JUMPI JUMPDEST PUSH2 0x14FA DUP2 DUP9 DUP5 PUSH2 0x373D JUMP JUMPDEST PUSH2 0x1517 PUSH2 0x150F DUP9 PUSH0 MSTORE PUSH1 0x3 PUSH1 0x20 MSTORE PUSH1 0x40 PUSH0 KECCAK256 SWAP1 JUMP JUMPDEST SWAP2 DUP3 SLOAD PUSH2 0x1DB0 JUMP JUMPDEST SWAP1 SSTORE PUSH2 0x154D PUSH2 0x1531 PUSH1 0x1 PUSH1 0x1 PUSH1 0x80 SHL SUB DUP11 AND PUSH1 0xF SIGNEXTEND PUSH2 0x29CB JUMP JUMPDEST PUSH2 0x1546 PUSH1 0x1 PUSH1 0x1 PUSH1 0x80 SHL SUB DUP13 AND PUSH1 0xF SIGNEXTEND PUSH2 0x29CB JUMP JUMPDEST SWAP1 DUP9 PUSH2 0x37BC JUMP JUMPDEST PUSH1 0x1 PUSH1 0x1 PUSH1 0xA0 SHL SUB DUP4 DUP2 AND SWAP1 DUP4 AND LT SWAP2 PUSH2 0x158E SWAP1 DUP4 ISZERO PUSH2 0x162C JUMPI PUSH2 0x1587 DUP11 SWAP6 DUP13 SWAP3 JUMPDEST DUP7 ISZERO PUSH2 0x1625 JUMPI DUP1 SWAP7 JUMPDEST ISZERO PUSH2 0x161D JUMPI POP SWAP6 JUMPDEST DUP6 DUP6 PUSH2 0x3812 JUMP JUMPDEST DUP5 DUP4 PUSH2 0x3812 JUMP JUMPDEST PUSH2 0x159B PUSH2 0x11E3 DUP3 ADDRESS PUSH2 0x3B83 JUMP JUMPDEST PUSH2 0x15DC JUMPI JUMPDEST POP POP POP PUSH2 0x15AC DUP4 PUSH2 0x2EC9 JUMP JUMPDEST SWAP1 PUSH2 0x3825 JUMP JUMPDEST SWAP1 PUSH0 MSTORE PUSH1 0x7 PUSH1 0x20 MSTORE PUSH1 0x40 PUSH0 KECCAK256 SSTORE JUMP JUMPDEST PUSH0 PUSH2 0x15CA PUSH2 0x2B08 JUMP JUMPDEST TSTORE PUSH1 0x40 DUP1 MLOAD SWAP2 DUP3 MSTORE PUSH1 0x20 DUP3 ADD SWAP3 SWAP1 SWAP3 MSTORE RETURN JUMPDEST PUSH2 0x1610 PUSH2 0x1615 SWAP4 PUSH2 0x1607 PUSH2 0x15EE PUSH2 0x29EB JUMP JUMPDEST SWAP5 PUSH2 0x15F8 DUP7 PUSH2 0x1E06 JUMP JUMPDEST PUSH1 0x1 PUSH1 0x1 PUSH1 0xA0 SHL SUB SWAP1 SWAP2 AND SWAP1 MSTORE JUMP JUMPDEST PUSH2 0x15F8 DUP5 PUSH2 0x1E13 JUMP JUMPDEST PUSH2 0x2F99 JUMP JUMPDEST PUSH0 DUP1 DUP1 PUSH2 0x15A0 JUMP JUMPDEST SWAP1 POP SWAP6 PUSH2 0x1580 JUMP JUMPDEST DUP2 SWAP7 PUSH2 0x1578 JUMP JUMPDEST PUSH2 0x1587 DUP12 SWAP6 DUP12 SWAP3 PUSH2 0x156F JUMP JUMPDEST CALLER SWAP2 POP PUSH2 0x14EF JUMP JUMPDEST PUSH4 0xD5DE6205 PUSH1 0xE0 SHL PUSH0 MSTORE PUSH1 0x4 DUP7 SWAP1 MSTORE PUSH1 0x24 DUP8 SWAP1 MSTORE PUSH1 0x44 PUSH0 REVERT JUMPDEST POP DUP7 ISZERO PUSH2 0x14C7 JUMP JUMPDEST PUSH4 0xC3030131 PUSH1 0xE0 SHL PUSH0 MSTORE PUSH1 0x4 PUSH0 REVERT JUMPDEST PUSH4 0x94240C05 PUSH1 0xE0 SHL PUSH0 MSTORE PUSH1 0x4 PUSH0 REVERT JUMPDEST PUSH1 0xE0 CALLDATASIZE PUSH1 0x3 NOT ADD SLT PUSH2 0x21F JUMPI PUSH1 0x20 PUSH2 0x16E5 PUSH1 0x4 CALLDATALOAD PUSH2 0x169C DUP2 PUSH2 0x20E JUMP JUMPDEST PUSH1 0x24 CALLDATALOAD PUSH2 0x16A8 DUP2 PUSH2 0x20E JUMP JUMPDEST PUSH1 0x44 CALLDATALOAD PUSH2 0x16B4 DUP2 PUSH2 0x20E JUMP JUMPDEST PUSH1 0x64 CALLDATALOAD PUSH2 0x16C0 DUP2 PUSH2 0x508 JUMP JUMPDEST PUSH1 0x84 CALLDATALOAD SWAP2 PUSH1 0xA4 CALLDATALOAD SWAP4 PUSH2 0x16D1 DUP6 PUSH2 0x4F3 JUMP JUMPDEST PUSH1 0xC4 CALLDATALOAD SWAP6 PUSH2 0x16E0 PUSH2 0xC09 PUSH2 0x2B08 JUMP JUMPDEST PUSH2 0x2CE4 JUMP JUMPDEST PUSH0 PUSH2 0x16EE PUSH2 0x2B08 JUMP JUMPDEST TSTORE PUSH1 0x40 MLOAD SWAP1 DUP2 MSTORE RETURN JUMPDEST PUSH1 0xC0 CALLDATASIZE PUSH1 0x3 NOT ADD SLT PUSH2 0x21F JUMPI PUSH1 0x4 CALLDATALOAD PUSH2 0x170F DUP2 PUSH2 0x20E JUMP JUMPDEST PUSH1 0x24 CALLDATALOAD PUSH2 0x171B DUP2 PUSH2 0x20E JUMP JUMPDEST PUSH1 0x44 CALLDATALOAD SWAP1 PUSH2 0x1728 DUP3 PUSH2 0x20E JUMP JUMPDEST PUSH1 0x64 CALLDATALOAD SWAP2 PUSH2 0x1735 DUP4 PUSH2 0x508 JUMP JUMPDEST PUSH1 0x84 CALLDATALOAD SWAP1 PUSH1 0xA4 CALLDATALOAD SWAP4 PUSH2 0x1748 PUSH2 0xC09 PUSH2 0x2B08 JUMP JUMPDEST PUSH2 0x1754 DUP2 DUP4 DUP7 DUP10 PUSH2 0x31A6 JUMP JUMPDEST PUSH1 0x1 PUSH1 0x1 PUSH1 0xA0 SHL SUB DUP6 DUP2 AND SWAP1 DUP9 AND LT SWAP7 SWAP1 SWAP4 SWAP1 DUP8 ISZERO PUSH2 0x1A25 JUMPI SWAP5 SWAP7 JUMPDEST ISZERO PUSH2 0x1A1F JUMPI SWAP5 SWAP6 JUMPDEST PUSH2 0x1781 DUP5 PUSH2 0x2EC9 JUMP JUMPDEST DUP2 SWAP5 SWAP2 SWAP5 DUP2 SWAP5 PUSH2 0x1799 DUP9 PUSH0 MSTORE PUSH1 0x3 PUSH1 0x20 MSTORE PUSH1 0x40 PUSH0 KECCAK256 SWAP1 JUMP JUMPDEST SLOAD PUSH2 0x1911 JUMPI POP POP POP POP DUP6 ISZERO ISZERO DUP1 PUSH2 0x1908 JUMPI JUMPDEST ISZERO PUSH2 0x18F9 JUMPI DUP7 PUSH2 0x189B SWAP6 PUSH2 0x15B2 SWAP5 DUP7 SWAP5 PUSH2 0x17D0 PUSH2 0x3E6 SWAP12 PUSH2 0x17CB DUP13 PUSH2 0x2952 JUMP JUMPDEST PUSH2 0x29AD JUMP JUMPDEST SWAP6 DUP7 SWAP2 JUMPDEST PUSH2 0x17E6 DUP3 PUSH0 MSTORE PUSH1 0x3 PUSH1 0x20 MSTORE PUSH1 0x40 PUSH0 KECCAK256 SWAP1 JUMP JUMPDEST SLOAD PUSH2 0x18D8 JUMPI JUMPDEST PUSH2 0x17F7 SWAP4 DUP7 DUP14 PUSH2 0x3853 JUMP JUMPDEST SWAP8 PUSH2 0x1800 PUSH2 0x3115 JUMP JUMPDEST SWAP3 PUSH1 0x1 PUSH1 0x1 PUSH1 0xA0 SHL SUB DUP5 AND ISZERO PUSH2 0x18D0 JUMPI JUMPDEST SWAP1 PUSH1 0x1 PUSH1 0x1 PUSH1 0x80 SHL SUB DUP1 PUSH2 0x1854 SWAP4 PUSH2 0x1832 PUSH2 0x182B DUP6 PUSH2 0x2A0D JUMP JUMPDEST DUP8 DUP10 PUSH2 0x3812 JUMP JUMPDEST PUSH2 0x1845 PUSH2 0x183E DUP3 PUSH2 0x2A0D JUMP JUMPDEST DUP10 DUP10 PUSH2 0x3812 JUMP JUMPDEST AND PUSH1 0xF SIGNEXTEND SWAP2 AND PUSH1 0xF SIGNEXTEND DUP9 PUSH2 0x37BC JUMP JUMPDEST PUSH2 0x185F DUP9 DUP8 DUP5 PUSH2 0x38FE JUMP JUMPDEST PUSH2 0x1871 DUP7 PUSH0 MSTORE PUSH1 0x3 PUSH1 0x20 MSTORE PUSH1 0x40 PUSH0 KECCAK256 SWAP1 JUMP JUMPDEST PUSH2 0x187C DUP10 DUP3 SLOAD PUSH2 0x1DBD JUMP JUMPDEST SWAP1 SSTORE PUSH2 0x188B PUSH2 0x11E3 DUP4 ADDRESS PUSH2 0x3B83 JUMP JUMPDEST PUSH2 0x18A4 JUMPI POP POP POP PUSH2 0x15AC DUP4 PUSH2 0x2EC9 JUMP JUMPDEST PUSH0 PUSH2 0xD9D PUSH2 0x2B08 JUMP JUMPDEST PUSH2 0x18C9 PUSH2 0x1615 SWAP4 PUSH2 0x18C0 PUSH2 0x18B6 PUSH2 0x29EB JUMP JUMPDEST SWAP4 PUSH2 0x15F8 DUP6 PUSH2 0x1E06 JUMP JUMPDEST PUSH2 0x15F8 DUP4 PUSH2 0x1E13 JUMP JUMPDEST CALLVALUE SWAP2 PUSH2 0x302E JUMP JUMPDEST CALLER SWAP4 POP PUSH2 0x1811 JUMP JUMPDEST POP PUSH2 0x18E3 SWAP3 POP PUSH2 0x34B2 JUMP JUMPDEST PUSH2 0x17F7 DUP5 DUP8 PUSH2 0x18F1 DUP2 PUSH2 0x2EC9 JUMP JUMPDEST SWAP1 SWAP4 POP PUSH2 0x17EC JUMP JUMPDEST PUSH4 0x726B13F PUSH1 0xE4 SHL PUSH0 MSTORE PUSH1 0x4 PUSH0 REVERT JUMPDEST POP DUP7 ISZERO ISZERO PUSH2 0x17AB JUMP JUMPDEST PUSH2 0x1924 DUP4 DUP4 SWAP13 SWAP8 SWAP6 SWAP10 SWAP11 SWAP13 SWAP9 SWAP7 SWAP9 PUSH2 0x3467 JUMP JUMPDEST SWAP8 DUP9 ISZERO PUSH2 0x1947 JUMPI JUMPDEST POP POP POP POP SWAP2 PUSH2 0x3E6 SWAP8 PUSH2 0x15B2 SWAP5 SWAP3 DUP7 DUP9 PUSH2 0x189B SWAP10 SWAP9 SWAP7 PUSH2 0x17D4 JUMP JUMPDEST DUP8 SWAP6 SWAP10 SWAP9 POP DUP12 SWAP2 PUSH2 0x19DF PUSH2 0x19F4 SWAP7 SWAP10 PUSH8 0xDE0B6B3A7640000 PUSH2 0x19D8 PUSH2 0x19EF SWAP6 PUSH2 0x19B8 PUSH2 0x1971 PUSH2 0x23CF JUMP JUMPDEST SWAP2 PUSH2 0x19A8 PUSH2 0x197D PUSH2 0x23CF JUMP JUMPDEST SWAP7 PUSH2 0x1998 PUSH2 0x1989 PUSH2 0x444 JUMP JUMPDEST PUSH1 0x1 PUSH1 0x1 PUSH1 0xA0 SHL SUB SWAP1 SWAP14 AND DUP14 MSTORE JUMP JUMPDEST PUSH1 0x1 PUSH1 0x1 PUSH1 0xA0 SHL SUB AND PUSH1 0x20 DUP13 ADD MSTORE JUMP JUMPDEST PUSH1 0x1 PUSH1 0x1 PUSH1 0xA0 SHL SUB AND PUSH1 0x40 DUP11 ADD MSTORE JUMP JUMPDEST PUSH1 0x60 DUP9 ADD SWAP1 DUP2 MSTORE PUSH0 PUSH1 0x80 DUP10 ADD MSTORE PUSH1 0xA0 DUP9 ADD SWAP4 DUP5 MSTORE PUSH0 PUSH1 0xC0 DUP10 ADD MSTORE MLOAD PUSH2 0x1E06 JUMP JUMPDEST MSTORE MLOAD PUSH2 0x1E06 JUMP JUMPDEST PUSH1 0x1 PUSH1 0x1 PUSH1 0xE8 SHL SUB NOT SWAP1 SWAP2 AND SWAP1 MSTORE JUMP JUMPDEST PUSH2 0x20EC JUMP JUMPDEST POP SWAP2 DUP3 ISZERO PUSH2 0x1A10 JUMPI SWAP4 SWAP5 SWAP2 SWAP4 SWAP1 SWAP3 SWAP1 SWAP2 SWAP1 DUP8 DUP3 DUP3 PUSH2 0x189B PUSH2 0x192C JUMP JUMPDEST PUSH4 0x14033F21 PUSH1 0xE1 SHL PUSH0 MSTORE PUSH1 0x4 PUSH0 REVERT JUMPDEST SWAP6 PUSH2 0x1778 JUMP JUMPDEST SWAP7 PUSH2 0x1770 JUMP JUMPDEST PUSH2 0x1A34 CALLDATASIZE PUSH2 0xED4 JUMP JUMPDEST PUSH0 SWAP5 SWAP4 SWAP2 SWAP3 SWAP5 SWAP2 PUSH2 0x1A43 PUSH2 0x2EE7 JUMP JUMPDEST SWAP5 PUSH2 0x1A4D DUP7 PUSH2 0x2B51 JUMP JUMPDEST PUSH1 0x1 PUSH2 0x1A59 CALLER ADDRESS PUSH2 0x3B83 JUMP JUMPDEST TSTORE PUSH2 0x1A63 CALLER PUSH2 0x2F50 JUMP JUMPDEST PUSH1 0x1 PUSH1 0x1 PUSH1 0xA0 SHL SUB AND SWAP6 DUP7 EXTCODESIZE ISZERO PUSH2 0x21F JUMPI PUSH2 0x1A97 SWAP7 PUSH0 SWAP3 DUP4 PUSH1 0x40 MLOAD DUP1 SWAP11 DUP2 SWAP6 DUP3 SWAP5 PUSH4 0x1C6E7247 PUSH1 0xE3 SHL DUP5 MSTORE PUSH1 0x4 DUP5 ADD PUSH2 0x1F60 JUMP JUMPDEST SUB SWAP3 GAS CALL SWAP5 DUP6 ISZERO PUSH2 0x1019 JUMPI PUSH2 0x3E6 SWAP6 PUSH2 0x1AE5 JUMPI JUMPDEST POP PUSH2 0x1AC6 SWAP2 SWAP3 PUSH2 0x1AC0 CALLVALUE PUSH2 0xFDD CALLDATASIZE DUP6 DUP6 PUSH2 0x1F92 JUMP JUMPDEST CALLER PUSH2 0x1E37 JUMP JUMPDEST SWAP2 PUSH2 0x1ACF PUSH2 0x30C6 JUMP JUMPDEST PUSH2 0x1AD8 CALLER PUSH2 0x310A JUMP JUMPDEST TSTORE PUSH1 0x40 MLOAD SWAP2 DUP3 SWAP2 DUP3 PUSH2 0x8BD JUMP JUMPDEST PUSH2 0x1AC6 SWAP3 POP PUSH0 PUSH2 0x1AF4 SWAP2 PUSH2 0x423 JUMP JUMPDEST PUSH0 SWAP2 PUSH2 0x1AAB JUMP JUMPDEST PUSH1 0x1 PUSH1 0x1 PUSH1 0x40 SHL SUB DUP2 GT PUSH2 0x41E JUMPI PUSH1 0x1F ADD PUSH1 0x1F NOT AND PUSH1 0x20 ADD SWAP1 JUMP JUMPDEST DUP1 MLOAD DUP1 DUP4 MSTORE PUSH1 0x20 SWAP3 SWAP2 DUP2 SWAP1 DUP5 ADD DUP5 DUP5 ADD MCOPY PUSH0 DUP3 DUP3 ADD DUP5 ADD MSTORE PUSH1 0x1F ADD PUSH1 0x1F NOT AND ADD ADD SWAP1 JUMP JUMPDEST SWAP1 SWAP2 PUSH2 0x1B51 PUSH2 0x4F0 SWAP4 PUSH1 0x40 DUP5 MSTORE PUSH1 0x40 DUP5 ADD SWAP1 PUSH2 0x1B16 JUMP JUMPDEST SWAP2 PUSH1 0x20 DUP2 DUP5 SUB SWAP2 ADD MSTORE PUSH2 0x1B16 JUMP JUMPDEST CALLVALUE PUSH2 0x21F JUMPI PUSH1 0x20 CALLDATASIZE PUSH1 0x3 NOT ADD SLT PUSH2 0x21F JUMPI PUSH1 0x4 CALLDATALOAD PUSH1 0x1 PUSH1 0x1 PUSH1 0x40 SHL SUB DUP2 GT PUSH2 0x21F JUMPI CALLDATASIZE PUSH1 0x23 DUP3 ADD SLT ISZERO PUSH2 0x21F JUMPI DUP1 PUSH1 0x4 ADD CALLDATALOAD PUSH2 0x1B9A DUP2 PUSH2 0x1AFB JUMP JUMPDEST SWAP1 PUSH2 0x1BA8 PUSH1 0x40 MLOAD SWAP3 DUP4 PUSH2 0x423 JUMP JUMPDEST DUP1 DUP3 MSTORE CALLDATASIZE PUSH1 0x24 DUP3 DUP6 ADD ADD GT PUSH2 0x21F JUMPI PUSH1 0x20 DUP2 PUSH0 SWAP3 PUSH1 0x24 PUSH2 0x1BD0 SWAP7 ADD DUP4 DUP7 ADD CALLDATACOPY DUP4 ADD ADD MSTORE PUSH2 0x2A63 JUMP JUMPDEST SWAP1 PUSH2 0x3E6 PUSH1 0x40 MLOAD SWAP3 DUP4 SWAP3 DUP4 PUSH2 0x1B3A JUMP JUMPDEST CALLVALUE PUSH2 0x21F JUMPI PUSH1 0x80 CALLDATASIZE PUSH1 0x3 NOT ADD SLT PUSH2 0x21F JUMPI PUSH1 0x4 CALLDATALOAD PUSH2 0x1BFD DUP2 PUSH2 0x20E JUMP JUMPDEST PUSH1 0x24 CALLDATALOAD PUSH2 0x1C09 DUP2 PUSH2 0x20E JUMP JUMPDEST PUSH1 0x44 CALLDATALOAD SWAP2 PUSH0 MLOAD PUSH1 0x20 PUSH2 0x4781 PUSH0 CODECOPY PUSH0 MLOAD SWAP1 PUSH0 MSTORE PUSH2 0x3D6 PUSH1 0x64 CALLDATALOAD SWAP4 PUSH1 0x1 PUSH1 0x1 PUSH1 0xA0 SHL SUB DUP5 AND SWAP4 PUSH2 0x1C6B SWAP1 DUP8 SWAP1 PUSH2 0x1C5E SWAP1 CALLER DUP9 EQ ISZERO DUP1 PUSH2 0x1D5A JUMPI JUMPDEST PUSH2 0x1CCA JUMPI PUSH1 0x1 PUSH1 0x1 PUSH1 0xA0 SHL SUB AND PUSH0 SWAP1 DUP2 MSTORE PUSH1 0x1 PUSH1 0x20 MSTORE PUSH1 0x40 SWAP1 KECCAK256 SWAP1 JUMP JUMPDEST SWAP1 PUSH0 MSTORE PUSH1 0x20 MSTORE PUSH1 0x40 PUSH0 KECCAK256 SWAP1 JUMP JUMPDEST PUSH2 0x1C76 DUP7 DUP3 SLOAD PUSH2 0x1DB0 JUMP JUMPDEST SWAP1 SSTORE PUSH1 0x1 PUSH1 0x1 PUSH1 0xA0 SHL SUB DUP2 AND PUSH0 SWAP1 DUP2 MSTORE PUSH1 0x1 PUSH1 0x20 MSTORE PUSH1 0x40 SWAP1 KECCAK256 PUSH2 0x1C9A SWAP1 DUP8 SWAP1 PUSH2 0x1C5E JUMP JUMPDEST PUSH2 0x1CA5 DUP7 DUP3 SLOAD PUSH2 0x1DBD JUMP JUMPDEST SWAP1 SSTORE PUSH1 0x40 DUP1 MLOAD CALLER DUP2 MSTORE PUSH1 0x20 DUP2 ADD SWAP7 SWAP1 SWAP7 MSTORE PUSH1 0x1 PUSH1 0x1 PUSH1 0xA0 SHL SUB SWAP1 SWAP2 AND SWAP5 SWAP2 DUP3 SWAP2 DUP3 ADD SWAP1 JUMP JUMPDEST PUSH2 0x1D01 DUP4 PUSH2 0x1C5E CALLER PUSH2 0x1CEC DUP6 PUSH1 0x1 DUP1 PUSH1 0xA0 SHL SUB AND PUSH0 MSTORE PUSH1 0x2 PUSH1 0x20 MSTORE PUSH1 0x40 PUSH0 KECCAK256 SWAP1 JUMP JUMPDEST SWAP1 PUSH1 0x1 DUP1 PUSH1 0xA0 SHL SUB AND PUSH0 MSTORE PUSH1 0x20 MSTORE PUSH1 0x40 PUSH0 KECCAK256 SWAP1 JUMP JUMPDEST SLOAD DUP10 PUSH1 0x1 DUP3 ADD PUSH2 0x1D27 JUMPI JUMPDEST POP POP PUSH1 0x1 PUSH1 0x1 PUSH1 0xA0 SHL SUB AND PUSH0 SWAP1 DUP2 MSTORE PUSH1 0x1 PUSH1 0x20 MSTORE PUSH1 0x40 SWAP1 KECCAK256 SWAP1 JUMP JUMPDEST PUSH2 0x1D30 SWAP2 PUSH2 0x1DB0 JUMP JUMPDEST PUSH2 0x1D52 DUP5 PUSH2 0x1C5E CALLER PUSH2 0x1CEC DUP7 PUSH1 0x1 DUP1 PUSH1 0xA0 SHL SUB AND PUSH0 MSTORE PUSH1 0x2 PUSH1 0x20 MSTORE PUSH1 0x40 PUSH0 KECCAK256 SWAP1 JUMP JUMPDEST SSTORE PUSH0 DUP10 PUSH2 0x1D0C JUMP JUMPDEST POP PUSH2 0x1D89 PUSH2 0x1D85 PUSH2 0x1D7E CALLER PUSH2 0x1CEC DUP6 PUSH1 0x1 DUP1 PUSH1 0xA0 SHL SUB AND PUSH0 MSTORE PUSH0 PUSH1 0x20 MSTORE PUSH1 0x40 PUSH0 KECCAK256 SWAP1 JUMP JUMPDEST SLOAD PUSH1 0xFF AND SWAP1 JUMP JUMPDEST ISZERO SWAP1 JUMP JUMPDEST PUSH2 0x1C41 JUMP JUMPDEST PUSH4 0x4E487B71 PUSH1 0xE0 SHL PUSH0 MSTORE PUSH1 0x11 PUSH1 0x4 MSTORE PUSH1 0x24 PUSH0 REVERT JUMPDEST PUSH0 NOT DUP2 ADD SWAP2 SWAP1 DUP3 GT PUSH2 0x3EA JUMPI JUMP JUMPDEST SWAP2 SWAP1 DUP3 SUB SWAP2 DUP3 GT PUSH2 0x3EA JUMPI JUMP JUMPDEST SWAP2 SWAP1 DUP3 ADD DUP1 SWAP3 GT PUSH2 0x3EA JUMPI JUMP JUMPDEST PUSH4 0x4E487B71 PUSH1 0xE0 SHL PUSH0 MSTORE PUSH1 0x32 PUSH1 0x4 MSTORE PUSH1 0x24 PUSH0 REVERT JUMPDEST SWAP1 ISZERO PUSH2 0x1DE7 JUMPI SWAP1 JUMP JUMPDEST PUSH2 0x1DCA JUMP JUMPDEST SWAP2 SWAP1 DUP2 LT ISZERO PUSH2 0x1DE7 JUMPI PUSH1 0x5 SHL ADD SWAP1 JUMP JUMPDEST CALLDATALOAD PUSH2 0x4F0 DUP2 PUSH2 0x20E JUMP JUMPDEST DUP1 MLOAD ISZERO PUSH2 0x1DE7 JUMPI PUSH1 0x20 ADD SWAP1 JUMP JUMPDEST DUP1 MLOAD PUSH1 0x1 LT ISZERO PUSH2 0x1DE7 JUMPI PUSH1 0x40 ADD SWAP1 JUMP JUMPDEST DUP1 MLOAD DUP3 LT ISZERO PUSH2 0x1DE7 JUMPI PUSH1 0x20 SWAP2 PUSH1 0x5 SHL ADD ADD SWAP1 JUMP JUMPDEST SWAP3 SWAP2 SWAP3 PUSH2 0x1E43 DUP5 PUSH2 0x472 JUMP JUMPDEST SWAP1 PUSH2 0x1E51 PUSH1 0x40 MLOAD SWAP3 DUP4 PUSH2 0x423 JUMP JUMPDEST DUP5 DUP3 MSTORE PUSH1 0x1F NOT PUSH2 0x1E60 DUP7 PUSH2 0x472 JUMP JUMPDEST ADD CALLDATASIZE PUSH1 0x20 DUP5 ADD CALLDATACOPY DUP2 SWAP5 PUSH0 JUMPDEST DUP2 DUP2 LT PUSH2 0x1E79 JUMPI POP POP POP POP POP JUMP JUMPDEST DUP1 PUSH2 0x1E9B PUSH2 0x1E8A PUSH1 0x1 SWAP4 DUP6 DUP10 PUSH2 0x1DEC JUMP JUMPDEST CALLDATALOAD PUSH2 0x1E94 DUP2 PUSH2 0x20E JUMP JUMPDEST DUP6 ADDRESS PUSH2 0x3957 JUMP JUMPDEST TLOAD PUSH2 0x1EA6 DUP3 DUP8 PUSH2 0x1E23 JUMP JUMPDEST MSTORE ADD PUSH2 0x1E6B JUMP JUMPDEST SWAP1 SWAP2 SWAP3 SWAP4 SWAP5 SWAP6 SWAP7 PUSH2 0x1F4D SWAP1 PUSH2 0x1F53 SWAP10 PUSH2 0x1EC7 PUSH2 0xC09 PUSH2 0x2B08 JUMP JUMPDEST PUSH1 0x40 DUP1 MLOAD PUSH1 0x1 PUSH1 0x1 PUSH1 0xA0 SHL SUB DUP7 DUP2 AND PUSH1 0x20 DUP4 ADD SWAP1 DUP2 MSTORE DUP9 DUP3 AND SWAP4 DUP4 ADD SWAP4 SWAP1 SWAP4 MSTORE DUP9 AND PUSH1 0x60 DUP3 ADD MSTORE PUSH1 0x1 PUSH1 0x1 PUSH1 0xE8 SHL SUB NOT DUP10 AND PUSH1 0x80 DUP3 ADD MSTORE PUSH1 0xA0 DUP2 ADD DUP11 SWAP1 MSTORE DUP11 ISZERO ISZERO PUSH1 0xC0 DUP3 ADD MSTORE PUSH1 0xE0 DUP2 ADD DUP13 SWAP1 MSTORE PUSH1 0x1 PUSH1 0x1 PUSH1 0x40 SHL SUB DUP5 AND PUSH2 0x100 DUP3 ADD MSTORE CALLER PUSH2 0x120 DUP3 ADD MSTORE SWAP2 PUSH2 0x140 DUP4 ADD MSTORE PUSH2 0x140 DUP3 MSTORE PUSH2 0x1F43 PUSH2 0x160 DUP4 PUSH2 0x423 JUMP JUMPDEST CALLER SWAP2 MLOAD SWAP1 KECCAK256 PUSH2 0x2B94 JUMP JUMPDEST POP PUSH2 0x2CE4 JUMP JUMPDEST SWAP1 PUSH0 PUSH2 0x1F5D PUSH2 0x2B08 JUMP JUMPDEST TSTORE JUMP JUMPDEST SWAP1 SWAP2 DUP1 PUSH1 0x40 SWAP4 PUSH1 0x20 DUP5 MSTORE DUP2 PUSH1 0x20 DUP6 ADD MSTORE DUP5 DUP5 ADD CALLDATACOPY PUSH0 DUP3 DUP3 ADD DUP5 ADD MSTORE PUSH1 0x1F ADD PUSH1 0x1F NOT AND ADD ADD SWAP1 JUMP JUMPDEST PUSH1 0x40 MLOAD RETURNDATASIZE PUSH0 DUP3 RETURNDATACOPY RETURNDATASIZE SWAP1 REVERT JUMPDEST SWAP3 SWAP2 SWAP1 PUSH2 0x1F9E DUP2 PUSH2 0x472 JUMP JUMPDEST SWAP4 PUSH2 0x1FAC PUSH1 0x40 MLOAD SWAP6 DUP7 PUSH2 0x423 JUMP JUMPDEST PUSH1 0x20 DUP6 DUP4 DUP2 MSTORE ADD SWAP2 PUSH1 0x5 SHL DUP2 ADD SWAP3 DUP4 GT PUSH2 0x21F JUMPI SWAP1 JUMPDEST DUP3 DUP3 LT PUSH2 0x1FCE JUMPI POP POP POP JUMP JUMPDEST PUSH1 0x20 DUP1 SWAP2 DUP4 CALLDATALOAD PUSH2 0x1FDD DUP2 PUSH2 0x20E JUMP JUMPDEST DUP2 MSTORE ADD SWAP2 ADD SWAP1 PUSH2 0x1FC2 JUMP JUMPDEST PUSH1 0x40 MLOAD SWAP1 PUSH2 0x1FF7 PUSH1 0x20 DUP4 PUSH2 0x423 JUMP JUMPDEST PUSH0 DUP3 MSTORE JUMP JUMPDEST SWAP3 PUSH2 0x2028 PUSH2 0x4F0 SWAP6 SWAP4 PUSH2 0x201A PUSH2 0x2036 SWAP5 PUSH1 0x80 DUP9 MSTORE PUSH1 0x80 DUP9 ADD SWAP1 PUSH2 0x1B16 JUMP JUMPDEST SWAP1 DUP7 DUP3 SUB PUSH1 0x20 DUP9 ADD MSTORE PUSH2 0x1B16 JUMP JUMPDEST SWAP1 DUP5 DUP3 SUB PUSH1 0x40 DUP7 ADD MSTORE PUSH2 0x1B16 JUMP JUMPDEST SWAP2 PUSH1 0x60 DUP2 DUP5 SUB SWAP2 ADD MSTORE PUSH2 0x1B16 JUMP JUMPDEST SWAP1 DUP2 PUSH1 0x20 SWAP2 SUB SLT PUSH2 0x21F JUMPI MLOAD SWAP1 JUMP JUMPDEST DUP1 MLOAD PUSH1 0x1 PUSH1 0x1 PUSH1 0xA0 SHL SUB SWAP1 DUP2 AND DUP4 MSTORE PUSH1 0x20 DUP1 DUP4 ADD MLOAD DUP3 AND SWAP1 DUP5 ADD MSTORE PUSH1 0x40 DUP1 DUP4 ADD MLOAD SWAP1 SWAP2 AND SWAP1 DUP4 ADD MSTORE PUSH1 0x60 DUP1 DUP3 ADD MLOAD SWAP1 DUP4 ADD MSTORE PUSH1 0x80 DUP1 DUP3 ADD MLOAD PUSH1 0x1 PUSH1 0x1 PUSH1 0x80 SHL SUB AND SWAP1 DUP4 ADD MSTORE PUSH2 0x22E SWAP2 SWAP1 PUSH1 0xE0 SWAP1 DUP2 SWAP1 PUSH1 0xA0 DUP2 DUP2 ADD MLOAD PUSH1 0x1 PUSH1 0x1 PUSH1 0x80 SHL SUB AND SWAP1 DUP6 ADD MSTORE PUSH1 0xC0 DUP2 DUP2 ADD MLOAD PUSH2 0xFFFF AND SWAP1 DUP6 ADD MSTORE ADD MLOAD ISZERO ISZERO SWAP2 ADD MSTORE JUMP JUMPDEST DUP1 PUSH2 0x20DE PUSH2 0x120 SWAP3 PUSH2 0x4F0 SWAP6 SWAP5 PUSH2 0x2053 JUMP JUMPDEST DUP2 PUSH2 0x100 DUP3 ADD MSTORE ADD SWAP1 PUSH2 0x1B16 JUMP JUMPDEST DUP1 MLOAD PUSH1 0x20 DUP3 ADD DUP1 MLOAD PUSH1 0x40 DUP5 ADD DUP1 MLOAD PUSH1 0xA0 DUP7 ADD DUP1 MLOAD SWAP1 SWAP9 SWAP5 SWAP8 SWAP7 SWAP5 SWAP6 SWAP3 SWAP5 SWAP4 PUSH1 0x1 PUSH1 0x1 PUSH1 0xA0 SHL SUB SWAP4 DUP5 AND SWAP4 SWAP1 DUP2 AND SWAP3 AND SWAP1 PUSH2 0x2125 SWAP1 PUSH2 0x1E06 JUMP JUMPDEST MLOAD PUSH1 0x1 PUSH1 0x1 PUSH1 0xE8 SHL SUB NOT AND SWAP2 PUSH2 0x213A SWAP4 PUSH2 0x31A6 JUMP JUMPDEST SWAP6 MLOAD PUSH2 0x2145 SWAP1 PUSH2 0x1E06 JUMP JUMPDEST MLOAD PUSH1 0x1 PUSH1 0x1 PUSH1 0xE8 SHL SUB NOT AND PUSH2 0x2159 SWAP1 PUSH2 0x3218 JUMP JUMPDEST DUP2 MLOAD SWAP1 SWAP4 SWAP1 PUSH1 0x1 PUSH1 0x1 PUSH1 0xA0 SHL SUB AND SWAP6 MLOAD PUSH1 0x1 PUSH1 0x1 PUSH1 0xA0 SHL SUB AND SWAP3 MLOAD PUSH1 0x1 PUSH1 0x1 PUSH1 0xA0 SHL SUB AND SWAP5 PUSH1 0x60 DUP4 ADD MLOAD PUSH2 0x218C SWAP1 PUSH2 0x1E06 JUMP JUMPDEST MLOAD PUSH1 0x80 DUP7 ADD MLOAD PUSH2 0xFFFF AND PUSH1 0x80 SWAP1 SWAP5 ADD MLOAD ISZERO ISZERO SWAP5 PUSH2 0x21A7 PUSH2 0x462 JUMP JUMPDEST PUSH1 0x1 PUSH1 0x1 PUSH1 0xA0 SHL SUB SWAP1 SWAP10 AND DUP10 MSTORE PUSH1 0x1 PUSH1 0x1 PUSH1 0xA0 SHL SUB AND PUSH1 0x20 DUP10 ADD MSTORE PUSH1 0x1 PUSH1 0x1 PUSH1 0xA0 SHL SUB SWAP1 SWAP7 AND PUSH1 0x40 DUP9 ADD SWAP1 DUP2 MSTORE SWAP6 PUSH1 0x60 DUP9 ADD MSTORE PUSH1 0x1 PUSH1 0x1 PUSH1 0x80 SHL SUB AND PUSH1 0x80 DUP8 ADD MSTORE PUSH1 0x1 PUSH1 0x1 PUSH1 0x80 SHL SUB AND PUSH1 0xA0 DUP7 ADD MSTORE PUSH2 0xFFFF AND PUSH1 0xC0 DUP6 ADD MSTORE ISZERO ISZERO PUSH1 0xE0 DUP5 ADD MSTORE DUP1 MLOAD ISZERO ISZERO PUSH0 EQ SWAP3 PUSH2 0x232E PUSH2 0x2322 PUSH2 0x2322 PUSH1 0x20 SWAP6 PUSH2 0x234C SWAP8 PUSH2 0x23BF JUMPI PUSH2 0x2315 PUSH2 0x224E DUP7 PUSH32 0x0 PUSH2 0x3320 JUMP JUMPDEST DUP8 DUP10 ADD MLOAD ISZERO PUSH2 0x23AE JUMPI PUSH2 0x2307 PUSH2 0x2284 DUP9 PUSH32 0x0 PUSH2 0x3320 JUMP JUMPDEST SWAP9 JUMPDEST PUSH1 0x40 DUP2 ADD MLOAD ISZERO PUSH2 0x239B JUMPI PUSH2 0x22C8 PUSH1 0x60 PUSH2 0x22BF DUP12 PUSH32 0x0 PUSH2 0x3320 JUMP JUMPDEST SWAP3 JUMPDEST ADD MLOAD ISZERO ISZERO SWAP1 JUMP JUMPDEST ISZERO PUSH2 0x238D JUMPI PUSH2 0x22F7 DUP10 PUSH32 0x0 PUSH2 0x3320 JUMP JUMPDEST SWAP1 JUMPDEST PUSH1 0x40 MLOAD SWAP11 DUP12 SWAP5 DUP14 DUP7 ADD PUSH2 0x1FFC JUMP JUMPDEST SUB PUSH1 0x1F NOT DUP2 ADD DUP9 MSTORE DUP8 PUSH2 0x423 JUMP JUMPDEST MLOAD PUSH1 0x1 PUSH1 0x1 PUSH1 0xA0 SHL SUB AND SWAP1 JUMP JUMPDEST PUSH1 0x1 PUSH1 0x1 PUSH1 0xA0 SHL SUB AND SWAP1 JUMP JUMPDEST SWAP1 PUSH0 PUSH1 0x40 MLOAD DUP1 SWAP7 DUP2 SWAP6 DUP3 SWAP5 PUSH4 0x5E3344D PUSH1 0xE4 SHL DUP5 MSTORE PUSH1 0x4 DUP5 ADD PUSH2 0x20CC JUMP JUMPDEST SUB SWAP3 GAS CALL SWAP1 DUP2 ISZERO PUSH2 0x1019 JUMPI PUSH0 SWAP2 PUSH2 0x2361 JUMPI POP SWAP2 JUMP JUMPDEST PUSH2 0x2383 SWAP2 POP PUSH1 0x20 RETURNDATASIZE PUSH1 0x20 GT PUSH2 0x2386 JUMPI JUMPDEST PUSH2 0x237B DUP2 DUP4 PUSH2 0x423 JUMP JUMPDEST DUP2 ADD SWAP1 PUSH2 0x2044 JUMP JUMPDEST SWAP2 JUMP JUMPDEST POP RETURNDATASIZE PUSH2 0x2371 JUMP JUMPDEST PUSH2 0x2395 PUSH2 0x1FE8 JUMP JUMPDEST SWAP1 PUSH2 0x22F9 JUMP JUMPDEST PUSH2 0x22C8 PUSH1 0x60 PUSH2 0x23A8 PUSH2 0x1FE8 JUMP JUMPDEST SWAP3 PUSH2 0x22C1 JUMP JUMPDEST PUSH2 0x2307 PUSH2 0x23B9 PUSH2 0x1FE8 JUMP JUMPDEST SWAP9 PUSH2 0x2286 JUMP JUMPDEST PUSH2 0x2315 PUSH2 0x23CA PUSH2 0x1FE8 JUMP JUMPDEST PUSH2 0x224E JUMP JUMPDEST PUSH1 0x40 DUP1 MLOAD SWAP1 SWAP2 SWAP1 PUSH2 0x23E0 DUP4 DUP3 PUSH2 0x423 JUMP JUMPDEST PUSH1 0x1 DUP2 MSTORE SWAP2 PUSH1 0x1F NOT ADD CALLDATASIZE PUSH1 0x20 DUP5 ADD CALLDATACOPY JUMP JUMPDEST SWAP1 PUSH2 0x23FB DUP3 PUSH2 0x472 JUMP JUMPDEST PUSH2 0x2408 PUSH1 0x40 MLOAD SWAP2 DUP3 PUSH2 0x423 JUMP JUMPDEST DUP3 DUP2 MSTORE DUP1 SWAP3 PUSH2 0x2419 PUSH1 0x1F NOT SWAP2 PUSH2 0x472 JUMP JUMPDEST ADD SWAP1 PUSH1 0x20 CALLDATASIZE SWAP2 ADD CALLDATACOPY JUMP JUMPDEST SWAP1 DUP1 PUSH1 0x1F DUP4 ADD SLT ISZERO PUSH2 0x21F JUMPI DUP2 MLOAD PUSH2 0x243A DUP2 PUSH2 0x472 JUMP JUMPDEST SWAP3 PUSH2 0x2448 PUSH1 0x40 MLOAD SWAP5 DUP6 PUSH2 0x423 JUMP JUMPDEST DUP2 DUP5 MSTORE PUSH1 0x20 DUP1 DUP6 ADD SWAP3 PUSH1 0x5 SHL DUP3 ADD ADD SWAP3 DUP4 GT PUSH2 0x21F JUMPI PUSH1 0x20 ADD SWAP1 JUMPDEST DUP3 DUP3 LT PUSH2 0x2470 JUMPI POP POP POP SWAP1 JUMP JUMPDEST DUP2 MLOAD DUP2 MSTORE PUSH1 0x20 SWAP2 DUP3 ADD SWAP2 ADD PUSH2 0x2463 JUMP JUMPDEST SWAP1 PUSH1 0x20 DUP3 DUP3 SUB SLT PUSH2 0x21F JUMPI DUP2 MLOAD PUSH1 0x1 PUSH1 0x1 PUSH1 0x40 SHL SUB DUP2 GT PUSH2 0x21F JUMPI PUSH2 0x4F0 SWAP3 ADD PUSH2 0x2423 JUMP JUMPDEST SWAP1 PUSH1 0x20 DUP1 DUP4 MLOAD SWAP3 DUP4 DUP2 MSTORE ADD SWAP3 ADD SWAP1 PUSH0 JUMPDEST DUP2 DUP2 LT PUSH2 0x24C2 JUMPI POP POP POP SWAP1 JUMP JUMPDEST DUP3 MLOAD PUSH1 0x1 PUSH1 0x1 PUSH1 0x80 SHL SUB AND DUP5 MSTORE PUSH1 0x20 SWAP4 DUP5 ADD SWAP4 SWAP1 SWAP3 ADD SWAP2 PUSH1 0x1 ADD PUSH2 0x24B5 JUMP JUMPDEST SWAP1 PUSH1 0x20 DUP1 DUP4 MLOAD SWAP3 DUP4 DUP2 MSTORE ADD SWAP3 ADD SWAP1 PUSH0 JUMPDEST DUP2 DUP2 LT PUSH2 0x24FE JUMPI POP POP POP SWAP1 JUMP JUMPDEST DUP3 MLOAD PUSH2 0xFFFF AND DUP5 MSTORE PUSH1 0x20 SWAP4 DUP5 ADD SWAP4 SWAP1 SWAP3 ADD SWAP2 PUSH1 0x1 ADD PUSH2 0x24F1 JUMP JUMPDEST PUSH1 0x40 DUP1 DUP3 MSTORE DUP3 MLOAD PUSH1 0x1 PUSH1 0x1 PUSH1 0xA0 SHL SUB AND SWAP1 DUP3 ADD MSTORE PUSH2 0x4F0 SWAP3 SWAP1 PUSH1 0x20 DUP4 ADD MLOAD PUSH1 0x1 PUSH1 0x1 PUSH1 0xA0 SHL SUB AND PUSH1 0x60 DUP3 ADD MSTORE PUSH1 0x40 DUP4 ADD MLOAD PUSH1 0x1 PUSH1 0x1 PUSH1 0xA0 SHL SUB AND PUSH1 0x80 DUP3 ADD MSTORE PUSH2 0x25CF PUSH1 0xE0 PUSH2 0x25C2 PUSH2 0x25AB PUSH2 0x2596 PUSH2 0x2580 PUSH1 0x60 DUP10 ADD MLOAD PUSH2 0x100 PUSH1 0xA0 DUP10 ADD MSTORE PUSH2 0x140 DUP9 ADD SWAP1 PUSH2 0x710 JUMP JUMPDEST PUSH1 0x80 DUP10 ADD MLOAD DUP8 DUP3 SUB PUSH1 0x3F NOT ADD PUSH1 0xC0 DUP10 ADD MSTORE PUSH2 0x24A5 JUMP JUMPDEST PUSH1 0xA0 DUP9 ADD MLOAD DUP7 DUP3 SUB PUSH1 0x3F NOT ADD DUP6 DUP9 ADD MSTORE PUSH2 0x24A5 JUMP JUMPDEST PUSH1 0xC0 DUP8 ADD MLOAD DUP6 DUP3 SUB PUSH1 0x3F NOT ADD PUSH2 0x100 DUP8 ADD MSTORE PUSH2 0x24E1 JUMP JUMPDEST SWAP5 ADD MLOAD ISZERO ISZERO PUSH2 0x120 DUP4 ADD MSTORE JUMP JUMPDEST PUSH1 0x20 DUP2 DUP5 SUB SWAP2 ADD MSTORE PUSH2 0x1B16 JUMP JUMPDEST SWAP1 SWAP2 SWAP3 PUSH1 0xA0 DUP3 ADD SWAP3 PUSH2 0x25EF DUP5 MLOAD MLOAD PUSH2 0x23F1 JUMP JUMPDEST SWAP2 PUSH2 0x25FB DUP6 MLOAD MLOAD PUSH2 0x23F1 JUMP JUMPDEST POP PUSH2 0x2607 DUP6 MLOAD MLOAD PUSH2 0x23F1 JUMP JUMPDEST SWAP6 PUSH2 0x262B PUSH2 0x2626 PUSH2 0x2618 DUP9 MLOAD PUSH2 0x1E06 JUMP JUMPDEST MLOAD PUSH1 0x1 PUSH1 0x1 PUSH1 0xE8 SHL SUB NOT AND SWAP1 JUMP JUMPDEST PUSH2 0x3218 JUMP JUMPDEST PUSH0 JUMPDEST DUP8 MLOAD DUP1 MLOAD DUP3 LT ISZERO PUSH2 0x26B1 JUMPI SWAP1 PUSH2 0x26AB PUSH2 0x2698 PUSH1 0x80 PUSH2 0x268F DUP12 DUP12 PUSH2 0x2689 DUP8 PUSH2 0x2683 PUSH2 0x265C PUSH2 0x2618 DUP4 PUSH1 0x1 SWAP14 PUSH2 0x1E23 JUMP JUMPDEST DUP6 MLOAD PUSH1 0x20 DUP8 ADD MLOAD PUSH1 0x40 SWAP1 SWAP8 ADD MLOAD SWAP2 SWAP7 DUP8 SWAP3 PUSH1 0x1 PUSH1 0x1 PUSH1 0xA0 SHL SUB SWAP1 DUP2 AND SWAP3 SWAP2 DUP2 AND SWAP2 AND PUSH2 0x31A6 JUMP JUMPDEST SWAP3 PUSH2 0x1E23 JUMP JUMPDEST MSTORE PUSH2 0x3218 JUMP JUMPDEST ADD MLOAD PUSH2 0xFFFF AND SWAP1 JUMP JUMPDEST PUSH2 0x26A2 DUP4 DUP14 PUSH2 0x1E23 JUMP JUMPDEST SWAP1 PUSH2 0xFFFF AND SWAP1 MSTORE JUMP JUMPDEST ADD PUSH2 0x262D JUMP JUMPDEST POP POP DUP6 MLOAD PUSH1 0x20 DUP8 ADD DUP1 MLOAD PUSH1 0x40 DUP10 ADD DUP1 MLOAD PUSH1 0x60 DUP12 ADD MLOAD PUSH1 0x80 DUP13 ADD DUP1 MLOAD SWAP10 SWAP15 SWAP12 SWAP14 POP SWAP3 SWAP12 SWAP7 SWAP11 SWAP5 SWAP10 PUSH1 0x1 PUSH1 0x1 PUSH1 0xA0 SHL SUB SWAP7 DUP8 AND SWAP10 SWAP4 SWAP9 SWAP5 DUP8 AND SWAP7 SWAP1 SWAP4 SWAP2 SWAP3 AND SWAP1 ISZERO ISZERO SWAP6 PUSH2 0x26FA PUSH2 0x462 JUMP JUMPDEST PUSH1 0x1 PUSH1 0x1 PUSH1 0xA0 SHL SUB SWAP1 SWAP11 AND DUP11 MSTORE PUSH1 0x1 PUSH1 0x1 PUSH1 0xA0 SHL SUB AND PUSH1 0x20 DUP11 ADD MSTORE PUSH1 0x1 PUSH1 0x1 PUSH1 0xA0 SHL SUB AND PUSH1 0x40 DUP10 ADD MSTORE PUSH1 0x60 DUP9 ADD MSTORE PUSH1 0x80 DUP8 ADD MSTORE PUSH1 0xA0 DUP7 ADD MSTORE PUSH1 0xC0 DUP6 ADD MSTORE ISZERO ISZERO PUSH1 0xE0 DUP5 ADD MSTORE MLOAD PUSH1 0x1 PUSH1 0x1 PUSH1 0xA0 SHL SUB AND SWAP3 MLOAD PUSH1 0x1 PUSH1 0x1 PUSH1 0xA0 SHL SUB AND DUP6 MLOAD SWAP1 SWAP2 SWAP1 PUSH1 0x1 PUSH1 0x1 PUSH1 0xA0 SHL SUB AND SWAP1 MLOAD ISZERO ISZERO SWAP2 PUSH2 0x276E PUSH2 0x462 JUMP JUMPDEST PUSH1 0x1 PUSH1 0x1 PUSH1 0xA0 SHL SUB SWAP1 SWAP6 AND DUP6 MSTORE PUSH1 0x1 PUSH1 0x1 PUSH1 0xA0 SHL SUB AND PUSH1 0x20 DUP6 ADD MSTORE PUSH1 0x1 PUSH1 0x1 PUSH1 0xA0 SHL SUB AND PUSH1 0x40 DUP5 ADD MSTORE PUSH0 PUSH1 0x60 DUP5 ADD DUP2 SWAP1 MSTORE PUSH1 0x80 DUP5 ADD DUP2 SWAP1 MSTORE PUSH1 0xA0 DUP5 ADD DUP2 SWAP1 MSTORE PUSH1 0xC0 DUP5 ADD MSTORE ISZERO ISZERO PUSH1 0xE0 DUP4 ADD MSTORE DUP3 MLOAD ISZERO ISZERO PUSH0 EQ PUSH2 0x2322 PUSH2 0x2322 PUSH2 0x28E0 SWAP7 PUSH2 0x2315 PUSH0 SWAP8 PUSH2 0x28C3 SWAP6 PUSH2 0x2941 JUMPI PUSH2 0x2307 PUSH2 0x2803 DUP10 PUSH32 0x0 PUSH2 0x33B2 JUMP JUMPDEST SWAP2 JUMPDEST PUSH1 0x20 DUP2 ADD MLOAD ISZERO ISZERO DUP12 EQ PUSH2 0x2933 JUMPI PUSH2 0x283C DUP11 PUSH32 0x0 PUSH2 0x33B2 JUMP JUMPDEST SWAP10 JUMPDEST PUSH1 0x40 DUP3 ADD MLOAD ISZERO ISZERO DUP13 EQ PUSH2 0x2920 JUMPI PUSH2 0x2882 PUSH1 0x60 PUSH2 0x287A DUP4 PUSH32 0x0 PUSH2 0x33B2 JUMP JUMPDEST SWAP4 ADD MLOAD ISZERO ISZERO SWAP1 JUMP JUMPDEST DUP13 EQ PUSH2 0x2911 JUMPI PUSH2 0x28B2 SWAP1 PUSH32 0x0 PUSH2 0x33B2 JUMP JUMPDEST SWAP1 JUMPDEST PUSH1 0x40 MLOAD SWAP11 DUP12 SWAP5 PUSH1 0x20 DUP7 ADD PUSH2 0x1FFC JUMP JUMPDEST SWAP1 DUP4 PUSH1 0x40 MLOAD DUP1 SWAP7 DUP2 SWAP6 DUP3 SWAP5 PUSH3 0xDB90D1 PUSH1 0xE8 SHL DUP5 MSTORE PUSH1 0x4 DUP5 ADD PUSH2 0x2518 JUMP JUMPDEST SUB SWAP3 GAS CALL SWAP1 DUP2 ISZERO PUSH2 0x1019 JUMPI PUSH0 SWAP2 PUSH2 0x28F5 JUMPI POP SWAP2 JUMP JUMPDEST PUSH2 0x2383 SWAP2 POP RETURNDATASIZE DUP1 PUSH0 DUP4 RETURNDATACOPY PUSH2 0x2909 DUP2 DUP4 PUSH2 0x423 JUMP JUMPDEST DUP2 ADD SWAP1 PUSH2 0x2480 JUMP JUMPDEST POP PUSH2 0x291A PUSH2 0x1FE8 JUMP JUMPDEST SWAP1 PUSH2 0x28B4 JUMP JUMPDEST PUSH2 0x2882 PUSH1 0x60 PUSH2 0x292D PUSH2 0x1FE8 JUMP JUMPDEST SWAP4 PUSH2 0x22C1 JUMP JUMPDEST PUSH2 0x293B PUSH2 0x1FE8 JUMP JUMPDEST SWAP10 PUSH2 0x283E JUMP JUMPDEST PUSH2 0x2307 PUSH2 0x294C PUSH2 0x1FE8 JUMP JUMPDEST SWAP2 PUSH2 0x2805 JUMP JUMPDEST SWAP1 PUSH8 0xDE0B6B3A7640000 DUP3 MUL SWAP2 DUP1 DUP4 DIV PUSH8 0xDE0B6B3A7640000 EQ SWAP1 ISZERO OR ISZERO PUSH2 0x3EA JUMPI JUMP JUMPDEST SWAP1 PUSH8 0x120A871CC0020000 DUP3 MUL SWAP2 DUP1 DUP4 DIV PUSH8 0x120A871CC0020000 EQ SWAP1 ISZERO OR ISZERO PUSH2 0x3EA JUMPI JUMP JUMPDEST DUP2 DUP2 MUL SWAP3 SWAP2 DUP2 ISZERO SWAP2 DUP5 DIV EQ OR ISZERO PUSH2 0x3EA JUMPI JUMP JUMPDEST DUP2 ISZERO PUSH2 0x29B7 JUMPI DIV SWAP1 JUMP JUMPDEST PUSH4 0x4E487B71 PUSH1 0xE0 SHL PUSH0 MSTORE PUSH1 0x12 PUSH1 0x4 MSTORE PUSH1 0x24 PUSH0 REVERT JUMPDEST PUSH1 0xF SIGNEXTEND PUSH16 0x7FFFFFFFFFFFFFFFFFFFFFFFFFFFFFFF NOT DUP2 EQ PUSH2 0x3EA JUMPI PUSH0 SUB SWAP1 JUMP JUMPDEST PUSH1 0x40 MLOAD PUSH1 0x60 SWAP2 SWAP1 PUSH2 0x29FC DUP4 DUP3 PUSH2 0x423 JUMP JUMPDEST PUSH1 0x2 DUP2 MSTORE SWAP2 PUSH1 0x1F NOT ADD CALLDATASIZE PUSH1 0x20 DUP5 ADD CALLDATACOPY JUMP JUMPDEST PUSH1 0x1 PUSH1 0xFF SHL DUP2 EQ PUSH2 0x3EA JUMPI PUSH0 SUB SWAP1 JUMP JUMPDEST DUP2 PUSH1 0x1F DUP3 ADD SLT ISZERO PUSH2 0x21F JUMPI DUP1 MLOAD SWAP1 PUSH2 0x2A34 DUP3 PUSH2 0x1AFB JUMP JUMPDEST SWAP3 PUSH2 0x2A42 PUSH1 0x40 MLOAD SWAP5 DUP6 PUSH2 0x423 JUMP JUMPDEST DUP3 DUP5 MSTORE PUSH1 0x20 DUP4 DUP4 ADD ADD GT PUSH2 0x21F JUMPI DUP2 PUSH0 SWAP3 PUSH1 0x20 DUP1 SWAP4 ADD DUP4 DUP7 ADD MCOPY DUP4 ADD ADD MSTORE SWAP1 JUMP JUMPDEST DUP1 MLOAD DUP2 ADD SWAP1 PUSH1 0x40 DUP2 PUSH1 0x20 DUP5 ADD SWAP4 SUB SLT PUSH2 0x21F JUMPI PUSH1 0x20 DUP2 ADD MLOAD PUSH1 0x1 PUSH1 0x1 PUSH1 0x40 SHL SUB DUP2 GT PUSH2 0x21F JUMPI DUP3 PUSH1 0x20 PUSH2 0x2A98 SWAP3 DUP5 ADD ADD PUSH2 0x2A1D JUMP JUMPDEST SWAP2 PUSH1 0x40 DUP3 ADD MLOAD SWAP2 PUSH1 0x1 PUSH1 0x1 PUSH1 0x40 SHL SUB DUP4 GT PUSH2 0x21F JUMPI PUSH2 0xF4E SWAP3 ADD PUSH1 0x20 ADD PUSH2 0x2A1D JUMP JUMPDEST SWAP1 PUSH1 0x40 MLOAD PUSH2 0x2AC7 DUP2 PUSH2 0x403 JUMP JUMPDEST DUP3 SLOAD PUSH1 0x1 PUSH1 0x1 PUSH1 0xA0 SHL SUB SWAP1 DUP2 AND DUP3 MSTORE PUSH1 0x1 DUP5 ADD SLOAD DUP2 AND PUSH1 0x20 DUP4 ADD MSTORE PUSH1 0x2 SWAP4 SWAP1 SWAP4 ADD SLOAD SWAP3 DUP4 AND PUSH1 0x40 DUP3 ADD MSTORE PUSH1 0x48 SWAP3 SWAP1 SWAP3 SHL PUSH1 0x1 PUSH1 0x1 PUSH1 0xE8 SHL SUB NOT AND PUSH1 0x60 DUP4 ADD MSTORE JUMP JUMPDEST PUSH1 0x40 MLOAD PUSH1 0x20 DUP2 ADD SWAP1 PUSH32 0x626529A6BE7CB2FB96A7ED93849B4EF74C980495DFE61FD514C95DCD9DA51C35 DUP3 MSTORE ADDRESS PUSH1 0x60 SHL PUSH1 0x40 DUP3 ADD MSTORE PUSH1 0x34 DUP2 MSTORE PUSH2 0x2B4B PUSH1 0x54 DUP3 PUSH2 0x423 JUMP JUMPDEST MLOAD SWAP1 KECCAK256 SWAP1 JUMP JUMPDEST DUP1 TLOAD PUSH2 0x21F JUMPI PUSH1 0x1 SWAP1 TSTORE JUMP JUMPDEST PUSH4 0xFFFFFFFF PUSH2 0x100 SWAP2 AND ADD SWAP1 PUSH4 0xFFFFFFFF DUP3 GT PUSH2 0x3EA JUMPI JUMP JUMPDEST PUSH1 0x1 PUSH1 0x1 PUSH1 0x40 SHL SUB PUSH1 0x1 SWAP2 AND ADD SWAP1 PUSH1 0x1 PUSH1 0x1 PUSH1 0x40 SHL SUB DUP3 GT PUSH2 0x3EA JUMPI JUMP JUMPDEST SWAP2 PUSH2 0x2BB5 PUSH2 0x2BAB DUP5 PUSH1 0x8 SWAP1 PUSH0 MSTORE PUSH1 0x20 MSTORE PUSH1 0x40 PUSH0 KECCAK256 SWAP1 JUMP JUMPDEST SLOAD PUSH4 0xFFFFFFFF AND SWAP1 JUMP JUMPDEST PUSH4 0xFFFFFFFF DUP2 AND DUP1 ISZERO PUSH2 0x2CD5 JUMPI NUMBER GT ISZERO PUSH2 0x2CC6 JUMPI PUSH2 0x2BD5 PUSH2 0x2BDE SWAP2 PUSH2 0x2B5D JUMP JUMPDEST PUSH4 0xFFFFFFFF AND SWAP1 JUMP JUMPDEST NUMBER GT PUSH2 0x2CB7 JUMPI PUSH1 0x1 PUSH1 0x1 PUSH1 0xA0 SHL SUB DUP3 AND PUSH0 SWAP1 DUP2 MSTORE PUSH1 0x9 PUSH1 0x20 MSTORE PUSH1 0x40 SWAP1 KECCAK256 SLOAD PUSH1 0x1 PUSH1 0x1 PUSH1 0x40 SHL SUB AND PUSH1 0x1 PUSH1 0x1 PUSH1 0x40 SHL SUB DUP3 AND SUB PUSH2 0x2CA8 JUMPI PUSH2 0x2C43 PUSH2 0x2C75 SWAP2 PUSH2 0x2C3E PUSH2 0x2C31 DUP7 PUSH1 0x8 SWAP1 PUSH0 MSTORE PUSH1 0x20 MSTORE PUSH1 0x40 PUSH0 KECCAK256 SWAP1 JUMP JUMPDEST DUP1 SLOAD PUSH4 0xFFFFFFFF NOT AND SWAP1 SSTORE JUMP JUMPDEST PUSH2 0x2B76 JUMP JUMPDEST PUSH1 0x1 PUSH1 0x1 PUSH1 0xA0 SHL SUB DUP4 AND PUSH0 SWAP1 DUP2 MSTORE PUSH1 0x9 PUSH1 0x20 MSTORE PUSH1 0x40 SWAP1 KECCAK256 SWAP1 PUSH1 0x1 PUSH1 0x1 PUSH1 0x40 SHL SUB AND PUSH1 0x1 PUSH1 0x1 PUSH1 0x40 SHL SUB NOT DUP3 SLOAD AND OR SWAP1 SSTORE JUMP JUMPDEST PUSH1 0x1 PUSH1 0x1 PUSH1 0xA0 SHL SUB AND SWAP1 PUSH32 0x5ED00D9781AAAC5F5AB01A93ECE28FCA0F8FFE70C108140274D8FEC00477CE80 PUSH0 DUP1 LOG3 PUSH1 0x1 SWAP1 JUMP JUMPDEST PUSH4 0x2071CF9F PUSH1 0xE1 SHL PUSH0 MSTORE PUSH1 0x4 PUSH0 REVERT JUMPDEST PUSH4 0x586B1F39 PUSH1 0xE0 SHL PUSH0 MSTORE PUSH1 0x4 PUSH0 REVERT JUMPDEST PUSH4 0x3766135 PUSH1 0xE5 SHL PUSH0 MSTORE PUSH1 0x4 PUSH0 REVERT JUMPDEST PUSH4 0xEA3C1A4F PUSH1 0xE0 SHL PUSH0 MSTORE PUSH1 0x4 PUSH0 REVERT JUMPDEST SWAP7 SWAP6 SWAP4 SWAP3 SWAP7 PUSH2 0x2CF1 PUSH2 0x3115 JUMP JUMPDEST SWAP5 PUSH1 0x1 PUSH1 0x1 PUSH1 0xA0 SHL SUB DUP7 AND ISZERO PUSH2 0x2EC1 JUMPI JUMPDEST PUSH2 0x2D0E DUP10 DUP6 DUP6 DUP6 PUSH2 0x31A6 JUMP JUMPDEST SWAP1 PUSH2 0x2D18 DUP3 PUSH2 0x2EC9 JUMP JUMPDEST DUP2 DUP2 SWAP8 SWAP3 SWAP13 DUP12 DUP11 PUSH2 0x2D27 PUSH2 0x23CF JUMP JUMPDEST PUSH2 0x2D2F PUSH2 0x23CF JUMP JUMPDEST SWAP3 PUSH2 0x2D38 PUSH2 0x444 JUMP JUMPDEST PUSH1 0x1 PUSH1 0x1 PUSH1 0xA0 SHL SUB DUP13 AND DUP2 MSTORE SWAP8 PUSH1 0x1 PUSH1 0x1 PUSH1 0xA0 SHL SUB DUP14 AND PUSH1 0x20 DUP11 ADD MSTORE PUSH1 0x1 PUSH1 0x1 PUSH1 0xA0 SHL SUB AND PUSH1 0x40 DUP10 ADD MSTORE PUSH1 0x60 DUP9 ADD SWAP2 DUP3 MSTORE ISZERO ISZERO PUSH1 0x80 DUP9 ADD MSTORE PUSH1 0xA0 DUP8 ADD SWAP3 DUP4 MSTORE PUSH0 PUSH1 0xC0 DUP9 ADD MSTORE MLOAD PUSH2 0x2D87 SWAP1 PUSH2 0x1E06 JUMP JUMPDEST MSTORE MLOAD PUSH2 0x2D92 SWAP1 PUSH2 0x1E06 JUMP JUMPDEST PUSH1 0x1 PUSH1 0x1 PUSH1 0xE8 SHL SUB NOT SWAP1 SWAP2 AND SWAP1 MSTORE PUSH2 0x2DA9 SWAP3 PUSH2 0x20EC JUMP JUMPDEST POP SWAP5 DUP6 ISZERO PUSH2 0x1A10 JUMPI DUP9 DUP7 PUSH2 0x2DBE SWAP3 DUP2 SWAP14 PUSH2 0x39CC JUMP JUMPDEST DUP1 DUP6 LT PUSH2 0x2EAA JUMPI POP PUSH2 0x2E45 SWAP4 SWAP3 PUSH2 0x2E3E SWAP3 PUSH2 0x2E37 SWAP3 PUSH2 0x2E22 SWAP1 PUSH1 0x1 PUSH1 0x1 PUSH1 0xA0 SHL SUB DUP1 DUP6 AND SWAP1 DUP5 AND LT ISZERO PUSH2 0x2EA3 JUMPI DUP11 JUMPDEST DUP1 ISZERO PUSH2 0x2E88 JUMPI PUSH1 0x1 PUSH1 0x1 PUSH1 0x80 SHL SUB DUP11 AND PUSH1 0xF SIGNEXTEND SWAP1 JUMPDEST ISZERO PUSH2 0x2E75 JUMPI PUSH2 0x2E1C PUSH1 0x1 PUSH1 0x1 PUSH1 0x80 SHL SUB DUP10 AND PUSH1 0xF SIGNEXTEND PUSH2 0x29CB JUMP JUMPDEST SWAP2 PUSH2 0x37BC JUMP JUMPDEST DUP9 ISZERO PUSH2 0x2E6E JUMPI DUP1 SWAP9 JUMPDEST ISZERO PUSH2 0x2E66 JUMPI POP SWAP5 PUSH2 0x2A0D JUMP JUMPDEST DUP7 DUP7 PUSH2 0x3812 JUMP JUMPDEST DUP3 DUP5 PUSH2 0x3812 JUMP JUMPDEST PUSH2 0x2E52 PUSH2 0x11E3 DUP4 ADDRESS PUSH2 0x3B83 JUMP JUMPDEST PUSH2 0x2E5B JUMPI POP POP POP JUMP JUMPDEST PUSH2 0x22E SWAP3 CALLVALUE SWAP3 PUSH2 0x3A3E JUMP JUMPDEST SWAP1 POP SWAP5 PUSH2 0x2A0D JUMP JUMPDEST DUP2 SWAP9 PUSH2 0x2E2B JUMP JUMPDEST PUSH1 0x1 PUSH1 0x1 PUSH1 0x80 SHL SUB DUP11 AND PUSH1 0xF SIGNEXTEND SWAP2 PUSH2 0x37BC JUMP JUMPDEST PUSH2 0x2E9D PUSH1 0x1 PUSH1 0x1 PUSH1 0x80 SHL SUB DUP10 AND PUSH1 0xF SIGNEXTEND PUSH2 0x29CB JUMP JUMPDEST SWAP1 PUSH2 0x2E02 JUMP JUMPDEST DUP11 ISZERO PUSH2 0x2DED JUMP JUMPDEST PUSH4 0xD438755D PUSH1 0xE0 SHL PUSH0 MSTORE PUSH1 0x4 MSTORE PUSH1 0x24 DUP5 SWAP1 MSTORE PUSH1 0x44 PUSH0 REVERT JUMPDEST CALLER SWAP6 POP PUSH2 0x2D02 JUMP JUMPDEST PUSH0 MSTORE PUSH1 0x4 PUSH1 0x20 MSTORE PUSH1 0x40 PUSH0 KECCAK256 SLOAD SWAP1 PUSH1 0x1 PUSH1 0x1 PUSH1 0x80 SHL SUB DUP3 AND SWAP2 PUSH1 0x80 SHR SWAP1 JUMP JUMPDEST PUSH1 0x40 MLOAD PUSH1 0x20 DUP2 ADD SWAP1 PUSH32 0x626529A6BE7CB2FB96A7ED93849B4EF74C980495DFE61FD514C95DCD9DA51C35 DUP3 MSTORE ADDRESS PUSH1 0x60 SHL PUSH1 0x40 DUP3 ADD MSTORE PUSH32 0x88F108D443A200407DF3D92FC06ED196D7B48635560CC21C3B1819792E11C1A7 PUSH1 0x54 DUP3 ADD MSTORE PUSH1 0x54 DUP2 MSTORE PUSH2 0x2B4B PUSH1 0x74 DUP3 PUSH2 0x423 JUMP JUMPDEST PUSH1 0x40 MLOAD PUSH1 0x20 DUP2 ADD SWAP1 PUSH32 0x507BA82850C15277B79BAE90C6E97B66228A117B64D05E46B3182D141DF61CE2 DUP3 MSTORE ADDRESS PUSH1 0x60 SHL PUSH1 0x40 DUP3 ADD MSTORE PUSH1 0x34 DUP2 MSTORE PUSH2 0x2F93 PUSH1 0x54 DUP3 PUSH2 0x423 JUMP JUMPDEST MLOAD SWAP1 KECCAK256 TSTORE JUMP JUMPDEST DUP2 MLOAD SWAP2 PUSH0 JUMPDEST DUP4 DUP2 LT PUSH2 0x2FAB JUMPI POP POP POP POP JUMP JUMPDEST PUSH1 0x1 SWAP1 PUSH1 0x1 PUSH1 0x1 PUSH1 0xA0 SHL SUB PUSH2 0x2FC0 DUP3 DUP6 PUSH2 0x1E23 JUMP JUMPDEST MLOAD AND PUSH2 0x2FCD DUP2 DUP7 ADDRESS PUSH2 0x3957 JUMP JUMPDEST TLOAD DUP1 PUSH2 0x2FDC JUMPI JUMPDEST POP POP ADD PUSH2 0x2F9E JUMP JUMPDEST PUSH0 SWAP2 PUSH2 0x2FFC SWAP2 DUP4 DUP2 SGT ISZERO PUSH2 0x3004 JUMPI PUSH2 0x2FF5 SWAP1 DUP9 DUP4 PUSH2 0x3CC9 JUMP JUMPDEST DUP7 ADDRESS PUSH2 0x3957 JUMP JUMPDEST TSTORE PUSH0 DUP1 PUSH2 0x2FD4 JUMP JUMPDEST PUSH2 0x3010 PUSH2 0x3022 SWAP2 PUSH2 0x2A0D JUMP JUMPDEST DUP3 ISZERO DUP6 EQ PUSH2 0x3027 JUMPI DUP5 SWAP1 JUMPDEST DUP10 DUP5 PUSH2 0x3BFA JUMP JUMPDEST PUSH2 0x2FF5 JUMP JUMPDEST DUP5 SWAP1 PUSH2 0x301B JUMP JUMPDEST SWAP1 SWAP2 DUP3 MLOAD SWAP3 PUSH0 JUMPDEST DUP5 DUP2 LT PUSH2 0x3043 JUMPI POP POP POP POP POP JUMP JUMPDEST PUSH1 0x1 SWAP1 PUSH1 0x1 PUSH1 0x1 PUSH1 0xA0 SHL SUB PUSH2 0x3058 DUP3 DUP6 PUSH2 0x1E23 JUMP JUMPDEST MLOAD AND PUSH2 0x3065 DUP2 DUP8 ADDRESS PUSH2 0x3957 JUMP JUMPDEST TLOAD DUP1 PUSH2 0x3074 JUMPI JUMPDEST POP POP ADD PUSH2 0x3035 JUMP JUMPDEST PUSH0 SWAP2 PUSH2 0x3094 SWAP2 DUP4 DUP2 SGT ISZERO PUSH2 0x309C JUMPI PUSH2 0x308D SWAP1 DUP10 DUP4 PUSH2 0x3CC9 JUMP JUMPDEST DUP8 ADDRESS PUSH2 0x3957 JUMP JUMPDEST TSTORE PUSH0 DUP1 PUSH2 0x306C JUMP JUMPDEST PUSH2 0x30A8 PUSH2 0x30BA SWAP2 PUSH2 0x2A0D JUMP JUMPDEST DUP3 ISZERO DUP6 EQ PUSH2 0x30BF JUMPI DUP9 SWAP1 JUMPDEST DUP11 DUP5 PUSH2 0x3BFA JUMP JUMPDEST PUSH2 0x308D JUMP JUMPDEST DUP5 SWAP1 PUSH2 0x30B3 JUMP JUMPDEST PUSH0 PUSH1 0x40 MLOAD PUSH1 0x20 DUP2 ADD SWAP1 PUSH32 0x507BA82850C15277B79BAE90C6E97B66228A117B64D05E46B3182D141DF61CE2 DUP3 MSTORE ADDRESS PUSH1 0x60 SHL PUSH1 0x40 DUP3 ADD MSTORE PUSH1 0x34 DUP2 MSTORE PUSH2 0x2F93 PUSH1 0x54 DUP3 PUSH2 0x423 JUMP JUMPDEST PUSH2 0x1F5D PUSH0 SWAP2 ADDRESS PUSH2 0x3B83 JUMP JUMPDEST PUSH1 0x40 MLOAD PUSH1 0x20 DUP2 ADD SWAP1 PUSH32 0x507BA82850C15277B79BAE90C6E97B66228A117B64D05E46B3182D141DF61CE2 DUP3 MSTORE ADDRESS PUSH1 0x60 SHL PUSH1 0x40 DUP3 ADD MSTORE PUSH1 0x34 DUP2 MSTORE PUSH2 0x3158 PUSH1 0x54 DUP3 PUSH2 0x423 JUMP JUMPDEST MLOAD SWAP1 KECCAK256 TLOAD SWAP1 JUMP JUMPDEST SWAP1 ISZERO PUSH2 0x1DE7 JUMPI DUP1 CALLDATALOAD SWAP1 PUSH1 0xBE NOT DUP2 CALLDATASIZE SUB ADD DUP3 SLT ISZERO PUSH2 0x21F JUMPI ADD SWAP1 JUMP JUMPDEST SWAP2 SWAP1 DUP2 LT ISZERO PUSH2 0x1DE7 JUMPI PUSH1 0x5 SHL DUP2 ADD CALLDATALOAD SWAP1 PUSH1 0xBE NOT DUP2 CALLDATASIZE SUB ADD DUP3 SLT ISZERO PUSH2 0x21F JUMPI ADD SWAP1 JUMP JUMPDEST CALLDATALOAD PUSH2 0x4F0 DUP2 PUSH2 0x4F3 JUMP JUMPDEST SWAP1 SWAP3 SWAP1 PUSH1 0x1 PUSH1 0x1 PUSH1 0xA0 SHL SUB DUP1 DUP6 AND SWAP1 DUP3 AND LT ISZERO PUSH2 0x3212 JUMPI SWAP3 SWAP2 JUMPDEST PUSH1 0x40 MLOAD PUSH12 0xFFFFFFFFFFFFFFFFFFFFFFFF NOT PUSH1 0x60 SWAP6 DUP7 SHL DUP2 AND PUSH1 0x20 DUP4 ADD SWAP1 DUP2 MSTORE SWAP5 DUP7 SHL DUP2 AND PUSH1 0x34 DUP4 ADD MSTORE SWAP2 SWAP1 SWAP5 SHL AND PUSH1 0x48 DUP5 ADD MSTORE PUSH1 0x1 PUSH1 0x1 PUSH1 0xE8 SHL SUB NOT AND PUSH1 0x5C DUP4 ADD MSTORE PUSH1 0x3F DUP3 MSTORE SWAP1 PUSH2 0x2B4B PUSH1 0x5F DUP3 PUSH2 0x423 JUMP JUMPDEST SWAP2 PUSH2 0x31C0 JUMP JUMPDEST PUSH1 0x40 MLOAD SWAP1 PUSH1 0xA0 DUP3 ADD SWAP1 DUP3 DUP3 LT PUSH1 0x1 PUSH1 0x1 PUSH1 0x40 SHL SUB DUP4 GT OR PUSH2 0x41E JUMPI PUSH2 0x32DE PUSH2 0xFFF SWAP2 PUSH2 0x4F0 SWAP4 PUSH1 0x40 MSTORE PUSH0 DUP6 MSTORE PUSH0 PUSH1 0x20 DUP7 ADD MSTORE PUSH0 PUSH1 0x40 DUP7 ADD MSTORE PUSH0 PUSH1 0x60 DUP7 ADD MSTORE PUSH0 PUSH1 0x80 DUP7 ADD MSTORE PUSH1 0xE8 SHR PUSH2 0x3270 PUSH1 0x1 DUP3 AND ISZERO ISZERO DUP7 SWAP1 ISZERO ISZERO SWAP1 MSTORE JUMP JUMPDEST PUSH2 0x3293 PUSH2 0x328A PUSH1 0x1 DUP4 DUP2 SHR PUSH3 0x7FFFFF AND JUMPDEST AND PUSH3 0xFFFFFF AND SWAP1 JUMP JUMPDEST ISZERO ISZERO PUSH1 0x20 DUP8 ADD MSTORE JUMP JUMPDEST PUSH2 0x32B3 PUSH2 0x32AA PUSH1 0x1 PUSH1 0x2 DUP5 SWAP1 SHR PUSH3 0x3FFFFF AND PUSH2 0x3281 JUMP JUMPDEST ISZERO ISZERO PUSH1 0x40 DUP8 ADD MSTORE JUMP JUMPDEST PUSH2 0x32D3 PUSH2 0x32CA PUSH1 0x1 PUSH1 0x3 DUP5 SWAP1 SHR PUSH3 0x1FFFFF AND PUSH2 0x3281 JUMP JUMPDEST ISZERO ISZERO PUSH1 0x60 DUP8 ADD MSTORE JUMP JUMPDEST PUSH1 0x4 SHR PUSH3 0xFFFFF AND SWAP1 JUMP JUMPDEST AND PUSH2 0xFFFF AND PUSH1 0x80 DUP4 ADD MSTORE JUMP JUMPDEST SWAP1 PUSH1 0x20 DUP3 DUP3 SUB SLT PUSH2 0x21F JUMPI DUP2 MLOAD PUSH1 0x1 PUSH1 0x1 PUSH1 0x40 SHL SUB DUP2 GT PUSH2 0x21F JUMPI PUSH2 0x4F0 SWAP3 ADD PUSH2 0x2A1D JUMP JUMPDEST PUSH2 0x100 DUP2 ADD SWAP3 SWAP2 PUSH2 0x22E SWAP2 SWAP1 PUSH2 0x2053 JUMP JUMPDEST PUSH1 0x1 PUSH1 0x1 PUSH1 0xA0 SHL SUB DUP2 AND SWAP1 DUP2 ISZERO PUSH2 0x33A7 JUMPI EXTCODESIZE ISZERO PUSH2 0x339D JUMPI PUSH0 SWAP2 DUP3 SWAP2 PUSH1 0x40 MLOAD DUP1 SWAP5 DUP2 DUP1 SWAP5 PUSH4 0x3BD1104B PUSH1 0xE0 SHL DUP3 MSTORE PUSH2 0x335F PUSH1 0x4 DUP4 ADD PUSH2 0x100 DUP2 ADD SWAP3 PUSH2 0x2053 JUMP JUMPDEST SUB SWAP3 GAS CALL PUSH0 SWAP2 DUP2 PUSH2 0x3379 JUMPI JUMPDEST POP PUSH2 0x4F0 JUMPI POP PUSH2 0x4F0 PUSH2 0x1FE8 JUMP JUMPDEST PUSH2 0x3396 SWAP2 SWAP3 POP RETURNDATASIZE DUP1 PUSH0 DUP4 RETURNDATACOPY PUSH2 0x338E DUP2 DUP4 PUSH2 0x423 JUMP JUMPDEST DUP2 ADD SWAP1 PUSH2 0x32EA JUMP JUMPDEST SWAP1 PUSH0 PUSH2 0x336B JUMP JUMPDEST POP POP PUSH2 0x4F0 PUSH2 0x1FE8 JUMP JUMPDEST POP POP POP PUSH2 0x4F0 PUSH2 0x1FE8 JUMP JUMPDEST PUSH1 0x1 PUSH1 0x1 PUSH1 0xA0 SHL SUB DUP2 AND DUP1 ISZERO PUSH2 0x33A7 JUMPI DUP2 EXTCODESIZE ISZERO PUSH2 0x33A7 JUMPI PUSH2 0x33D2 DUP3 PUSH2 0x3E54 JUMP JUMPDEST DUP1 MLOAD SWAP1 SWAP4 SWAP1 ISZERO PUSH2 0x33E3 JUMPI JUMPDEST POP POP POP SWAP1 JUMP JUMPDEST PUSH1 0x40 MLOAD PUSH4 0x3BD1104B PUSH1 0xE0 SHL DUP2 MSTORE SWAP4 POP PUSH0 SWAP2 DUP5 SWAP2 DUP3 SWAP1 DUP5 SWAP1 DUP3 SWAP1 PUSH2 0x3409 SWAP1 PUSH1 0x4 DUP4 ADD PUSH2 0x330F JUMP JUMPDEST SUB SWAP3 GAS CALL PUSH0 SWAP3 DUP2 PUSH2 0x344B JUMPI JUMPDEST POP PUSH2 0x342C JUMPI POP POP PUSH2 0x3424 PUSH2 0x1FE8 JUMP JUMPDEST PUSH0 DUP1 DUP1 PUSH2 0x33DD JUMP JUMPDEST DUP2 DUP1 MLOAD PUSH2 0x343B JUMPI JUMPDEST POP POP PUSH2 0x3424 JUMP JUMPDEST PUSH2 0x3444 SWAP2 PUSH2 0x3EC7 JUMP JUMPDEST PUSH0 DUP1 PUSH2 0x3434 JUMP JUMPDEST PUSH2 0x3460 SWAP2 SWAP4 POP RETURNDATASIZE DUP1 PUSH0 DUP4 RETURNDATACOPY PUSH2 0x338E DUP2 DUP4 PUSH2 0x423 JUMP JUMPDEST SWAP2 PUSH0 PUSH2 0x3415 JUMP JUMPDEST SWAP1 PUSH1 0x1 PUSH1 0x1 PUSH1 0x80 SHL SUB AND SWAP1 DUP2 ISZERO PUSH2 0x34AC JUMPI PUSH1 0x1 PUSH1 0x1 PUSH1 0x80 SHL SUB AND SWAP1 PUSH8 0xDE0B6B3A7640000 DUP3 MUL SWAP2 DUP1 DUP4 DIV PUSH8 0xDE0B6B3A7640000 EQ SWAP1 ISZERO OR ISZERO PUSH2 0x3EA JUMPI PUSH2 0x4F0 SWAP2 PUSH2 0x29AD JUMP JUMPDEST POP POP PUSH0 SWAP1 JUMP JUMPDEST PUSH1 0x6 SLOAD SWAP1 SWAP2 SWAP1 PUSH2 0x34D0 PUSH1 0x1 PUSH1 0x1 PUSH1 0xA0 SHL SUB DUP3 AND SWAP2 PUSH1 0xA0 SHR PUSH2 0xFFFF AND SWAP1 JUMP JUMPDEST SWAP1 PUSH1 0x1 PUSH1 0x1 PUSH1 0xA0 SHL SUB DUP2 AND ISZERO DUP1 ISZERO PUSH2 0x3731 JUMPI JUMPDEST PUSH2 0x372B JUMPI PUSH0 DUP5 DUP2 MSTORE PUSH1 0x4 PUSH1 0x20 MSTORE PUSH1 0x40 SWAP1 KECCAK256 SLOAD PUSH1 0x1 PUSH1 0x1 PUSH1 0x80 SHL SUB DUP2 AND SWAP1 PUSH1 0x80 SHR SWAP3 PUSH1 0x1 PUSH1 0x1 PUSH1 0x80 SHL SUB DUP3 AND SWAP2 DUP3 ISZERO DUP1 PUSH2 0x371A JUMPI JUMPDEST PUSH2 0x3704 JUMPI DUP6 DUP6 PUSH2 0x3526 SWAP3 PUSH2 0x3825 JUMP JUMPDEST PUSH0 DUP8 DUP2 MSTORE PUSH1 0x7 PUSH1 0x20 MSTORE PUSH1 0x40 SWAP1 KECCAK256 SLOAD SWAP2 DUP3 DUP3 GT ISZERO PUSH2 0x36FA JUMPI PUSH2 0xFFFF PUSH2 0x3550 PUSH2 0x3560 SWAP5 PUSH2 0x3558 SWAP5 PUSH2 0x1DB0 JUMP JUMPDEST SWAP2 AND SWAP1 PUSH2 0x299A JUMP JUMPDEST PUSH2 0x2710 SWAP1 DIV SWAP1 JUMP JUMPDEST SWAP3 DUP4 ISZERO PUSH2 0x36F2 JUMPI PUSH1 0x1 PUSH1 0x1 PUSH1 0x80 SHL SUB AND PUSH2 0x3594 PUSH2 0x358E PUSH2 0x3580 DUP8 DUP5 PUSH2 0x299A JUMP JUMPDEST PUSH8 0xDE0B6B3A7640000 SWAP1 DIV SWAP1 JUMP JUMPDEST DUP4 PUSH2 0x1DBD JUMP JUMPDEST DUP1 ISZERO PUSH2 0x36E9 JUMPI PUSH32 0xE7C2742BFE08378628D04B12904AFD6D2BA3E77D93558B70CC5B82B5E5121562 SWAP6 PUSH2 0x35DF PUSH2 0x35DA PUSH2 0x35D3 PUSH2 0x35EE SWAP5 PUSH2 0x17CB DUP9 DUP12 PUSH2 0x299A JUMP JUMPDEST DUP1 SWAP9 PUSH2 0x1DB0 JUMP JUMPDEST PUSH2 0x2952 JUMP JUMPDEST SWAP1 DUP1 PUSH2 0x36E3 JUMPI POP PUSH1 0x1 SWAP1 PUSH2 0x29AD JUMP JUMPDEST SWAP2 DUP1 DUP6 GT PUSH2 0x36D9 JUMPI JUMPDEST POP SWAP1 DUP2 PUSH2 0x368D SWAP3 DUP3 GT PUSH2 0x36D1 JUMPI JUMPDEST POP PUSH2 0x363C PUSH2 0x361E PUSH1 0x1 PUSH1 0x1 PUSH1 0x80 SHL SUB DUP7 AND PUSH1 0xF SIGNEXTEND PUSH2 0x29CB JUMP JUMPDEST PUSH2 0x3633 PUSH1 0x1 PUSH1 0x1 PUSH1 0x80 SHL SUB DUP5 AND PUSH1 0xF SIGNEXTEND PUSH2 0x29CB JUMP JUMPDEST SWAP1 DUP9 PUSH1 0x3 PUSH2 0x3EFB JUMP JUMPDEST PUSH2 0x3657 PUSH2 0x3652 DUP8 PUSH1 0x5 SWAP1 PUSH0 MSTORE PUSH1 0x20 MSTORE PUSH1 0x40 PUSH0 KECCAK256 SWAP1 JUMP JUMPDEST PUSH2 0x2ABA JUMP JUMPDEST DUP5 PUSH2 0x36B4 JUMPI JUMPDEST DUP2 DUP5 DUP2 PUSH2 0x3692 JUMPI JUMPDEST POP POP POP PUSH1 0x40 MLOAD SWAP4 DUP5 SWAP4 DUP5 PUSH1 0x40 SWAP2 SWAP5 SWAP4 SWAP3 PUSH1 0x60 DUP3 ADD SWAP6 PUSH1 0x1 DUP1 PUSH1 0xA0 SHL SUB AND DUP3 MSTORE PUSH1 0x20 DUP3 ADD MSTORE ADD MSTORE JUMP JUMPDEST SUB SWAP1 LOG2 JUMP JUMPDEST PUSH1 0x20 SWAP3 SWAP1 SWAP3 ADD MLOAD PUSH2 0x36AC SWAP3 SWAP1 PUSH1 0x1 PUSH1 0x1 PUSH1 0xA0 SHL SUB AND PUSH2 0x3CC9 JUMP JUMPDEST PUSH0 DUP2 DUP5 PUSH2 0x3665 JUMP JUMPDEST DUP1 MLOAD PUSH2 0x36CC SWAP1 DUP7 SWAP1 DUP7 SWAP1 PUSH1 0x1 PUSH1 0x1 PUSH1 0xA0 SHL SUB AND PUSH2 0x3CC9 JUMP JUMPDEST PUSH2 0x365D JUMP JUMPDEST SWAP1 POP PUSH0 PUSH2 0x3605 JUMP JUMPDEST SWAP4 POP PUSH2 0x368D PUSH2 0x35F7 JUMP JUMPDEST SWAP1 PUSH2 0x29AD JUMP JUMPDEST POP POP POP POP POP POP POP JUMP JUMPDEST POP POP POP POP POP POP JUMP JUMPDEST POP POP POP POP POP POP POP POP JUMP JUMPDEST POP POP POP PUSH0 SWAP4 DUP5 MSTORE POP POP PUSH1 0x7 PUSH1 0x20 MSTORE POP PUSH1 0x40 DUP2 KECCAK256 SSTORE JUMP JUMPDEST POP PUSH1 0x1 PUSH1 0x1 PUSH1 0x80 SHL SUB DUP6 AND ISZERO PUSH2 0x3517 JUMP JUMPDEST POP POP POP POP JUMP JUMPDEST POP PUSH2 0xFFFF DUP3 AND ISZERO PUSH2 0x34E3 JUMP JUMPDEST SWAP2 SWAP1 SWAP2 PUSH1 0x1 DUP1 PUSH1 0xA0 SHL SUB AND DUP1 PUSH0 MSTORE PUSH1 0x1 PUSH1 0x20 MSTORE PUSH1 0x40 PUSH0 KECCAK256 DUP4 PUSH0 MSTORE PUSH1 0x20 MSTORE PUSH1 0x40 PUSH0 KECCAK256 DUP1 SLOAD SWAP1 DUP4 DUP3 SUB SWAP2 DUP3 GT PUSH2 0x3EA JUMPI SSTORE PUSH1 0x40 DUP1 MLOAD CALLER DUP2 MSTORE PUSH1 0x20 DUP2 ADD SWAP4 SWAP1 SWAP4 MSTORE PUSH0 SWAP3 PUSH0 MLOAD PUSH1 0x20 PUSH2 0x4781 PUSH0 CODECOPY PUSH0 MLOAD SWAP1 PUSH0 MSTORE SWAP2 DUP2 SWAP1 DUP2 ADD JUMPDEST SUB SWAP1 LOG4 JUMP JUMPDEST SWAP1 PUSH1 0xF SIGNEXTEND SWAP1 PUSH1 0xF SIGNEXTEND ADD SWAP1 PUSH1 0x1 PUSH1 0x1 PUSH1 0x7F SHL SUB NOT DUP3 SLT PUSH1 0x1 PUSH1 0x1 PUSH1 0x7F SHL SUB DUP4 SGT OR PUSH2 0x3EA JUMPI JUMP JUMPDEST SWAP1 SWAP2 DUP2 PUSH0 MSTORE PUSH1 0x4 PUSH1 0x20 MSTORE PUSH1 0x1 PUSH1 0x1 PUSH1 0x80 SHL SUB PUSH2 0x37EF PUSH2 0x37E5 PUSH1 0x40 PUSH0 KECCAK256 SLOAD SWAP6 DUP4 DUP8 AND PUSH1 0xF SIGNEXTEND PUSH2 0x3796 JUMP JUMPDEST SWAP3 DUP6 PUSH1 0x80 SAR PUSH2 0x3796 JUMP JUMPDEST DUP2 NOT SWAP1 PUSH1 0x80 SHL AND SWAP2 AND OR SWAP2 DUP3 SUB PUSH2 0x3804 JUMPI POP POP JUMP JUMPDEST PUSH0 MSTORE PUSH1 0x4 PUSH1 0x20 MSTORE PUSH1 0x40 PUSH0 KECCAK256 SSTORE JUMP JUMPDEST SWAP1 PUSH2 0x381D SWAP2 ADDRESS PUSH2 0x3957 JUMP JUMPDEST SWAP1 DUP2 TLOAD ADD SWAP1 TSTORE JUMP JUMPDEST SWAP2 PUSH2 0x3843 PUSH8 0xDE0B6B3A7640000 SWAP2 PUSH1 0x1 PUSH1 0x1 PUSH1 0x80 SHL SUB DUP1 SWAP5 AND PUSH2 0x299A JUMP JUMPDEST DIV SWAP2 AND SWAP1 DUP2 ADD DUP1 SWAP2 GT PUSH2 0x3EA JUMPI SWAP1 JUMP JUMPDEST SWAP3 SWAP1 SWAP4 SWAP5 DUP6 PUSH0 MSTORE PUSH1 0x3 PUSH1 0x20 MSTORE PUSH1 0x40 PUSH0 KECCAK256 SLOAD ISZERO PUSH0 EQ PUSH2 0x3891 JUMPI POP POP POP PUSH2 0x3878 SWAP3 POP PUSH2 0x1DBD JUMP JUMPDEST SWAP1 JUMPDEST DUP2 ISZERO PUSH2 0x3882 JUMPI JUMP JUMPDEST PUSH4 0x283EEADF PUSH1 0xE0 SHL PUSH0 MSTORE PUSH1 0x4 PUSH0 REVERT JUMPDEST SWAP1 SWAP2 SWAP4 PUSH2 0x38A7 DUP3 PUSH8 0xDE0B6B3A7640000 SWAP3 PUSH2 0x299A JUMP JUMPDEST DIV DUP4 ADD DUP1 SWAP4 GT PUSH2 0x3EA JUMPI PUSH2 0x38CE PUSH8 0xDE0B6B3A7640000 SWAP2 PUSH1 0x1 PUSH1 0x1 PUSH1 0x80 SHL SUB DUP1 SWAP5 AND PUSH2 0x299A JUMP JUMPDEST DIV SWAP3 AND SWAP2 DUP3 ADD DUP1 SWAP3 GT PUSH2 0x3EA JUMPI PUSH2 0x38F1 PUSH2 0x38F8 SWAP4 PUSH1 0x3 SWAP1 PUSH0 MSTORE PUSH1 0x20 MSTORE PUSH1 0x40 PUSH0 KECCAK256 SWAP1 JUMP JUMPDEST SLOAD SWAP1 PUSH2 0x3F5C JUMP JUMPDEST SWAP1 PUSH2 0x387A JUMP JUMPDEST SWAP2 SWAP1 SWAP2 PUSH1 0x1 DUP1 PUSH1 0xA0 SHL SUB AND SWAP1 DUP2 PUSH0 MSTORE PUSH1 0x1 PUSH1 0x20 MSTORE PUSH1 0x40 PUSH0 KECCAK256 DUP4 PUSH0 MSTORE PUSH1 0x20 MSTORE PUSH1 0x40 PUSH0 KECCAK256 DUP1 SLOAD SWAP1 DUP3 DUP3 ADD DUP1 SWAP3 GT PUSH2 0x3EA JUMPI SSTORE PUSH1 0x40 DUP1 MLOAD CALLER DUP2 MSTORE PUSH1 0x20 DUP2 ADD SWAP3 SWAP1 SWAP3 MSTORE PUSH0 SWAP2 PUSH0 MLOAD PUSH1 0x20 PUSH2 0x4781 PUSH0 CODECOPY PUSH0 MLOAD SWAP1 PUSH0 MSTORE SWAP2 DUP2 SWAP1 DUP2 ADD PUSH2 0x3791 JUMP JUMPDEST SWAP2 PUSH1 0x40 MLOAD SWAP2 PUSH1 0x20 DUP4 ADD SWAP4 PUSH32 0x71AA94563C1D78D77DF681AD802FC1A81EA7D00CFFE4BBE002400E1D66DE80D2 DUP6 MSTORE PUSH1 0x1 PUSH1 0x1 PUSH1 0x60 SHL SUB NOT SWAP1 PUSH1 0x60 SHL AND PUSH1 0x40 DUP5 ADD MSTORE PUSH1 0x1 PUSH1 0x1 PUSH1 0x60 SHL SUB NOT SWAP1 PUSH1 0x60 SHL AND PUSH1 0x54 DUP4 ADD MSTORE PUSH1 0x1 PUSH1 0x1 PUSH1 0x60 SHL SUB NOT SWAP1 PUSH1 0x60 SHL AND PUSH1 0x68 DUP3 ADD MSTORE PUSH1 0x5C DUP2 MSTORE PUSH2 0x2B4B PUSH1 0x7C DUP3 PUSH2 0x423 JUMP JUMPDEST PUSH1 0x1 PUSH1 0x1 PUSH1 0x80 SHL SUB SWAP3 SWAP4 PUSH0 EQ PUSH2 0x39FF JUMPI POP AND SWAP1 DUP1 DUP3 LT PUSH2 0x39EA JUMPI POP POP JUMP JUMPDEST PUSH4 0x1735867 PUSH1 0xE0 SHL PUSH0 MSTORE PUSH1 0x4 MSTORE PUSH1 0x24 MSTORE PUSH1 0x44 PUSH0 REVERT JUMPDEST SWAP1 POP AND SWAP1 DUP1 DUP3 LT PUSH2 0x3A0E JUMPI POP POP JUMP JUMPDEST PUSH4 0x68580A19 PUSH1 0xE0 SHL PUSH0 MSTORE PUSH1 0x4 MSTORE PUSH1 0x24 MSTORE PUSH1 0x44 PUSH0 REVERT JUMPDEST SWAP2 SWAP1 SWAP2 PUSH0 DUP4 DUP3 ADD SWAP4 DUP5 SLT SWAP2 SLT SWAP1 DUP1 ISZERO DUP3 AND SWAP2 ISZERO AND OR PUSH2 0x3EA JUMPI JUMP JUMPDEST SWAP1 SWAP3 PUSH2 0x3A4B DUP5 DUP4 ADDRESS PUSH2 0x3957 JUMP JUMPDEST TLOAD PUSH2 0x3A57 DUP5 DUP5 ADDRESS PUSH2 0x3957 JUMP JUMPDEST TLOAD SWAP2 PUSH1 0x1 PUSH1 0x1 PUSH1 0xA0 SHL SUB DUP6 DUP2 AND SWAP3 SWAP1 DUP8 AND DUP1 DUP5 EQ PUSH2 0x3B20 JUMPI SWAP2 DUP2 PUSH2 0x3ABA SWAP6 SWAP4 PUSH0 PUSH2 0x22E SWAP11 SWAP7 SWAP5 SLT PUSH0 EQ PUSH2 0x3B00 JUMPI PUSH2 0x3A90 PUSH2 0x3A9F SWAP3 PUSH2 0x2A0D JUMP JUMPDEST SWAP1 PUSH2 0x3AF9 JUMPI DUP3 SWAP1 JUMPDEST DUP9 DUP8 PUSH2 0x3BFA JUMP JUMPDEST PUSH0 DUP4 SGT ISZERO PUSH2 0x3ABF JUMPI POP POP PUSH2 0x3AB4 SWAP1 DUP5 DUP7 PUSH2 0x3CC9 JUMP JUMPDEST DUP3 PUSH2 0x3D3A JUMP JUMPDEST PUSH2 0x3D3A JUMP JUMPDEST PUSH0 DUP4 SLT PUSH2 0x3ACF JUMPI JUMPDEST POP POP POP PUSH2 0x3AB4 JUMP JUMPDEST PUSH2 0x3ADB PUSH2 0x3AE9 SWAP4 PUSH2 0x2A0D JUMP JUMPDEST SWAP2 PUSH2 0x3AF1 JUMPI SWAP1 JUMPDEST DUP6 DUP8 PUSH2 0x3BFA JUMP JUMPDEST PUSH0 DUP1 DUP1 PUSH2 0x3AC7 JUMP JUMPDEST POP PUSH0 SWAP1 PUSH2 0x3AE2 JUMP JUMPDEST PUSH0 SWAP1 PUSH2 0x3A98 JUMP JUMPDEST POP PUSH0 DUP2 SGT PUSH2 0x3B0F JUMPI JUMPDEST POP PUSH2 0x3A9F JUMP JUMPDEST PUSH2 0x3B1A SWAP1 DUP8 DUP7 PUSH2 0x3CC9 JUMP JUMPDEST PUSH0 PUSH2 0x3B09 JUMP JUMPDEST SWAP3 POP PUSH2 0x22E SWAP7 SWAP6 SWAP4 PUSH2 0x3B31 SWAP2 PUSH2 0x3A23 JUMP JUMPDEST SWAP3 PUSH0 DUP5 SLT ISZERO PUSH2 0x3B5D JUMPI POP PUSH2 0x3B47 PUSH2 0x3ABA SWAP4 PUSH2 0x2A0D JUMP JUMPDEST SWAP2 PUSH2 0x3B55 JUMPI SWAP1 JUMPDEST DUP4 DUP6 PUSH2 0x3BFA JUMP JUMPDEST POP PUSH0 SWAP1 PUSH2 0x3B4E JUMP JUMPDEST SWAP3 SWAP2 POP POP DUP3 PUSH0 DUP3 SGT PUSH2 0x3B72 JUMPI JUMPDEST POP POP POP PUSH2 0x3D3A JUMP JUMPDEST PUSH2 0x3B7B SWAP3 PUSH2 0x3CC9 JUMP JUMPDEST PUSH0 DUP1 DUP3 PUSH2 0x3B6A JUMP JUMPDEST SWAP1 PUSH1 0x40 MLOAD SWAP1 PUSH1 0x20 DUP3 ADD SWAP3 PUSH32 0xE88690B85C82523984F05D1F281684A73AA4D4303BCA19CFE29AA89AE744616A DUP5 MSTORE PUSH1 0x1 PUSH1 0x1 PUSH1 0x60 SHL SUB NOT SWAP1 PUSH1 0x60 SHL AND PUSH1 0x40 DUP4 ADD MSTORE PUSH1 0x1 PUSH1 0x1 PUSH1 0x60 SHL SUB NOT SWAP1 PUSH1 0x60 SHL AND PUSH1 0x54 DUP3 ADD MSTORE PUSH1 0x48 DUP2 MSTORE PUSH2 0x2B4B PUSH1 0x68 DUP3 PUSH2 0x423 JUMP JUMPDEST SWAP1 DUP2 PUSH1 0x20 SWAP2 SUB SLT PUSH2 0x21F JUMPI MLOAD PUSH2 0x4F0 DUP2 PUSH2 0x4F3 JUMP JUMPDEST SWAP2 SWAP3 SWAP2 PUSH1 0x1 PUSH1 0x1 PUSH1 0xA0 SHL SUB AND SWAP1 DUP2 PUSH2 0x3C24 JUMPI POP POP SUB PUSH2 0x3C15 JUMPI JUMP JUMPDEST PUSH4 0xA7ADB78F PUSH1 0xE0 SHL PUSH0 MSTORE PUSH1 0x4 PUSH0 REVERT JUMPDEST SWAP2 SWAP3 SWAP1 SWAP3 PUSH2 0x3CBA JUMPI PUSH1 0x40 MLOAD PUSH4 0x23B872DD PUSH1 0xE0 SHL DUP2 MSTORE PUSH1 0x1 PUSH1 0x1 PUSH1 0xA0 SHL SUB SWAP1 SWAP3 AND PUSH1 0x4 DUP4 ADD MSTORE ADDRESS PUSH1 0x24 DUP4 ADD MSTORE PUSH1 0x44 DUP3 ADD MSTORE SWAP1 PUSH1 0x20 SWAP1 DUP3 SWAP1 DUP2 PUSH0 DUP2 PUSH1 0x64 DUP2 ADD JUMPDEST SUB SWAP3 GAS CALL SWAP1 DUP2 ISZERO PUSH2 0x1019 JUMPI PUSH0 SWAP2 PUSH2 0x3C8B JUMPI JUMPDEST POP ISZERO PUSH2 0x3C7C JUMPI JUMP JUMPDEST PUSH4 0x37738691 PUSH1 0xE0 SHL PUSH0 MSTORE PUSH1 0x4 PUSH0 REVERT JUMPDEST PUSH2 0x3CAD SWAP2 POP PUSH1 0x20 RETURNDATASIZE PUSH1 0x20 GT PUSH2 0x3CB3 JUMPI JUMPDEST PUSH2 0x3CA5 DUP2 DUP4 PUSH2 0x423 JUMP JUMPDEST DUP2 ADD SWAP1 PUSH2 0x3BE5 JUMP JUMPDEST PUSH0 PUSH2 0x3C74 JUMP JUMPDEST POP RETURNDATASIZE PUSH2 0x3C9B JUMP JUMPDEST PUSH4 0xDC4087EB PUSH1 0xE0 SHL PUSH0 MSTORE PUSH1 0x4 PUSH0 REVERT JUMPDEST PUSH1 0x1 PUSH1 0x1 PUSH1 0xA0 SHL SUB AND DUP1 PUSH2 0x3D03 JUMPI POP PUSH0 DUP1 DUP1 SWAP4 DUP2 SWAP4 DUP3 SWAP1 DUP3 ISZERO PUSH2 0x3CF9 JUMPI JUMPDEST PUSH1 0x1 PUSH1 0x1 PUSH1 0xA0 SHL SUB AND SWAP1 CALL ISZERO PUSH2 0x1019 JUMPI JUMP JUMPDEST PUSH2 0x8FC SWAP2 POP PUSH2 0x3CE7 JUMP JUMPDEST PUSH1 0x40 MLOAD PUSH4 0xA9059CBB PUSH1 0xE0 SHL DUP2 MSTORE PUSH1 0x1 PUSH1 0x1 PUSH1 0xA0 SHL SUB SWAP1 SWAP3 AND PUSH1 0x4 DUP4 ADD MSTORE PUSH1 0x24 DUP3 ADD SWAP3 SWAP1 SWAP3 MSTORE SWAP1 PUSH1 0x20 SWAP1 DUP3 SWAP1 DUP2 PUSH0 DUP2 PUSH1 0x44 DUP2 ADD PUSH2 0x3C62 JUMP JUMPDEST PUSH0 SWAP2 PUSH2 0x1F5D SWAP2 ADDRESS PUSH2 0x3957 JUMP JUMPDEST SWAP1 CALLDATALOAD SWAP1 PUSH1 0x1E NOT DUP2 CALLDATASIZE SUB ADD DUP3 SLT ISZERO PUSH2 0x21F JUMPI ADD DUP1 CALLDATALOAD SWAP1 PUSH1 0x1 PUSH1 0x1 PUSH1 0x40 SHL SUB DUP3 GT PUSH2 0x21F JUMPI PUSH1 0x20 ADD SWAP2 DUP2 PUSH1 0x5 SHL CALLDATASIZE SUB DUP4 SGT PUSH2 0x21F JUMPI JUMP JUMPDEST CALLDATALOAD PUSH2 0x4F0 DUP2 PUSH2 0x508 JUMP JUMPDEST SWAP5 SWAP4 SWAP3 SWAP2 SWAP1 PUSH1 0x60 DUP7 ADD PUSH2 0x3D98 DUP2 DUP9 PUSH2 0x3D46 JUMP JUMPDEST SWAP1 POP ISZERO PUSH2 0x3E45 JUMPI PUSH2 0x3DAC PUSH1 0x80 DUP9 ADD DUP9 PUSH2 0x3D46 JUMP JUMPDEST SWAP1 POP PUSH2 0x3DB8 DUP3 DUP10 PUSH2 0x3D46 JUMP JUMPDEST SWAP2 SWAP1 POP SUB PUSH2 0x3E36 JUMPI PUSH1 0x1 PUSH2 0x3DCC DUP3 DUP10 PUSH2 0x3D46 JUMP JUMPDEST SWAP1 POP EQ PUSH0 EQ PUSH2 0x3E2A JUMPI DUP7 PUSH2 0x3DE2 PUSH2 0x4F0 SWAP9 PUSH2 0x1DFC JUMP JUMPDEST SWAP2 PUSH2 0x3DEF PUSH1 0x20 DUP4 ADD PUSH2 0x1DFC JUMP JUMPDEST PUSH2 0x3E22 PUSH1 0xA0 PUSH2 0x3E1B PUSH2 0x3E16 PUSH2 0x3E10 PUSH2 0x3E09 PUSH1 0x40 DUP10 ADD PUSH2 0x1DFC JUMP JUMPDEST SWAP7 DUP9 PUSH2 0x3D46 JUMP JUMPDEST SWAP1 PUSH2 0x1DDE JUMP JUMPDEST PUSH2 0x3D7B JUMP JUMPDEST SWAP5 ADD PUSH2 0x319C JUMP JUMPDEST SWAP4 PUSH1 0x3 PUSH2 0x44E6 JUMP JUMPDEST POP PUSH2 0x4F0 SWAP6 PUSH1 0x3 PUSH2 0x412C JUMP JUMPDEST PUSH4 0x5A7A8F9 PUSH1 0xE1 SHL PUSH0 MSTORE PUSH1 0x4 PUSH0 REVERT JUMPDEST PUSH4 0x40E8C77 PUSH1 0xE5 SHL PUSH0 MSTORE PUSH1 0x4 PUSH0 REVERT JUMPDEST SWAP1 PUSH1 0x60 SWAP2 DUP1 TLOAD SWAP1 DUP2 ISZERO DUP1 PUSH2 0x3EB2 JUMPI JUMPDEST ISZERO PUSH2 0x3E6C JUMPI POP POP JUMP JUMPDEST SWAP1 SWAP3 POP PUSH1 0x1F PUSH1 0x40 MLOAD SWAP4 DUP1 DUP6 MSTORE ADD SWAP1 DUP2 PUSH1 0x5 SHR SWAP1 PUSH0 JUMPDEST DUP3 DUP2 LT PUSH2 0x3E99 JUMPI POP POP POP PUSH1 0x1F NOT AND DUP3 ADD PUSH1 0x20 ADD PUSH1 0x40 MSTORE JUMP JUMPDEST DUP1 PUSH1 0x1 DUP1 SWAP3 DUP5 ADD ADD TLOAD PUSH1 0x20 DUP3 PUSH1 0x5 SHL DUP10 ADD ADD MSTORE ADD PUSH2 0x3E81 JUMP JUMPDEST SWAP4 POP PUSH1 0x40 MLOAD SWAP4 PUSH0 DUP6 MSTORE PUSH1 0x20 DUP6 ADD PUSH1 0x40 MSTORE PUSH2 0x3E63 JUMP JUMPDEST PUSH1 0x1F DUP3 MLOAD DUP1 DUP4 TSTORE ADD PUSH1 0x5 SHR SWAP2 PUSH0 JUMPDEST DUP4 DUP2 LT PUSH2 0x3EE2 JUMPI POP POP POP POP JUMP JUMPDEST DUP1 PUSH1 0x20 PUSH1 0x1 SWAP3 PUSH1 0x5 SHL DUP5 ADD ADD MLOAD DUP3 DUP3 DUP7 ADD ADD TSTORE ADD PUSH2 0x3ED5 JUMP JUMPDEST PUSH1 0x1 SWAP1 SWAP4 SWAP3 SWAP4 ADD SWAP2 DUP2 PUSH0 MSTORE DUP3 PUSH1 0x20 MSTORE PUSH1 0x1 PUSH1 0x1 PUSH1 0x80 SHL SUB PUSH2 0x3F33 PUSH2 0x3F29 PUSH1 0x40 PUSH0 KECCAK256 SLOAD SWAP7 DUP4 DUP9 AND PUSH1 0xF SIGNEXTEND PUSH2 0x3796 JUMP JUMPDEST SWAP3 DUP7 PUSH1 0x80 SAR PUSH2 0x3796 JUMP JUMPDEST DUP2 NOT SWAP1 PUSH1 0x80 SHL AND SWAP2 AND OR SWAP3 DUP4 SUB PUSH2 0x3F49 JUMPI POP POP POP JUMP JUMPDEST PUSH0 MSTORE PUSH1 0x20 MSTORE PUSH1 0x40 PUSH0 KECCAK256 SSTORE JUMP JUMPDEST ISZERO PUSH2 0x21F JUMPI JUMP JUMPDEST SWAP1 SWAP2 PUSH0 NOT DUP4 DUP4 MULMOD SWAP3 DUP1 DUP4 MUL SWAP3 DUP4 DUP1 DUP7 LT SWAP6 SUB SWAP5 DUP1 DUP7 SUB SWAP6 EQ PUSH2 0x3FDA JUMPI SWAP1 DUP3 SWAP2 PUSH2 0x3F86 DUP7 DUP5 GT PUSH2 0x3F55 JUMP JUMPDEST MULMOD PUSH1 0x1 DUP3 NOT ADD DUP3 AND DUP1 SWAP3 DIV PUSH1 0x2 DUP2 PUSH1 0x3 MUL XOR DUP1 DUP3 MUL PUSH1 0x2 SUB MUL DUP1 DUP3 MUL PUSH1 0x2 SUB MUL DUP1 DUP3 MUL PUSH1 0x2 SUB MUL DUP1 DUP3 MUL PUSH1 0x2 SUB MUL DUP1 DUP3 MUL PUSH1 0x2 SUB MUL DUP1 SWAP2 MUL PUSH1 0x2 SUB MUL SWAP4 PUSH1 0x1 DUP4 DUP1 PUSH0 SUB DIV ADD SWAP1 DUP5 DUP4 GT SWAP1 SUB MUL SWAP3 SUB DIV OR MUL SWAP1 JUMP JUMPDEST POP POP SWAP2 POP PUSH2 0x3FE9 DUP3 ISZERO ISZERO PUSH2 0x3F55 JUMP JUMPDEST DIV SWAP1 JUMP JUMPDEST SWAP2 SWAP1 SWAP2 PUSH1 0x40 DUP2 DUP5 SUB SLT PUSH2 0x21F JUMPI DUP1 MLOAD PUSH1 0x1 PUSH1 0x1 PUSH1 0x40 SHL SUB DUP2 GT PUSH2 0x21F JUMPI DUP4 PUSH2 0x4016 SWAP2 DUP4 ADD PUSH2 0x2423 JUMP JUMPDEST SWAP3 PUSH1 0x20 DUP3 ADD MLOAD PUSH1 0x1 PUSH1 0x1 PUSH1 0x40 SHL SUB DUP2 GT PUSH2 0x21F JUMPI PUSH2 0x4F0 SWAP3 ADD PUSH2 0x2423 JUMP JUMPDEST SWAP1 PUSH1 0x20 DUP1 DUP4 MLOAD SWAP3 DUP4 DUP2 MSTORE ADD SWAP3 ADD SWAP1 PUSH0 JUMPDEST DUP2 DUP2 LT PUSH2 0x4051 JUMPI POP POP POP SWAP1 JUMP JUMPDEST DUP3 MLOAD PUSH1 0x1 PUSH1 0x1 PUSH1 0xE8 SHL SUB NOT AND DUP5 MSTORE PUSH1 0x20 SWAP4 DUP5 ADD SWAP4 SWAP1 SWAP3 ADD SWAP2 PUSH1 0x1 ADD PUSH2 0x4044 JUMP JUMPDEST SWAP1 PUSH2 0x4F0 SWAP1 PUSH1 0x1 DUP1 PUSH1 0xA0 SHL SUB DUP4 MLOAD AND DUP2 MSTORE PUSH1 0x1 DUP1 PUSH1 0xA0 SHL SUB PUSH1 0x20 DUP5 ADD MLOAD AND PUSH1 0x20 DUP3 ADD MSTORE PUSH1 0x1 DUP1 PUSH1 0xA0 SHL SUB PUSH1 0x40 DUP5 ADD MLOAD AND PUSH1 0x40 DUP3 ADD MSTORE PUSH1 0xC0 DUP1 PUSH2 0x40E3 PUSH2 0x40C5 PUSH1 0x60 DUP8 ADD MLOAD PUSH1 0xE0 PUSH1 0x60 DUP8 ADD MSTORE PUSH1 0xE0 DUP7 ADD SWAP1 PUSH2 0x710 JUMP JUMPDEST PUSH1 0x80 DUP8 DUP2 ADD MLOAD ISZERO ISZERO SWAP1 DUP7 ADD MSTORE PUSH1 0xA0 DUP8 ADD MLOAD DUP6 DUP3 SUB PUSH1 0xA0 DUP8 ADD MSTORE PUSH2 0x4034 JUMP JUMPDEST SWAP5 ADD MLOAD PUSH1 0x1 PUSH1 0x1 PUSH1 0xE0 SHL SUB NOT AND SWAP2 ADD MSTORE JUMP JUMPDEST SWAP2 PUSH2 0x411E SWAP1 PUSH2 0x4110 PUSH2 0x4F0 SWAP6 SWAP4 PUSH1 0x60 DUP7 MSTORE PUSH1 0x60 DUP7 ADD SWAP1 PUSH2 0x4071 JUMP JUMPDEST SWAP1 DUP5 DUP3 SUB PUSH1 0x20 DUP7 ADD MSTORE PUSH2 0x24A5 JUMP JUMPDEST SWAP2 PUSH1 0x40 DUP2 DUP5 SUB SWAP2 ADD MSTORE PUSH2 0x24A5 JUMP JUMPDEST SWAP7 SWAP5 SWAP6 SWAP1 SWAP3 SWAP4 SWAP2 SWAP7 PUSH1 0x60 DUP5 ADD SWAP8 PUSH2 0x4143 DUP10 DUP7 PUSH2 0x3D46 JUMP JUMPDEST SWAP7 SWAP1 POP PUSH2 0x44A3 JUMPI JUMPDEST POP PUSH2 0x4155 DUP6 PUSH2 0x23F1 JUMP JUMPDEST SWAP2 PUSH2 0x415F DUP7 PUSH2 0x23F1 JUMP JUMPDEST SWAP1 PUSH0 JUMPDEST DUP8 DUP2 LT PUSH2 0x440D JUMPI POP DUP2 PUSH0 SWAP2 DUP6 DUP4 DUP10 PUSH2 0x4226 PUSH2 0x424F SWAP14 SWAP15 SWAP16 PUSH2 0x41FA PUSH2 0x421F PUSH2 0x4188 DUP6 PUSH2 0x1DFC JUMP JUMPDEST SWAP5 PUSH2 0x4211 PUSH2 0x4198 PUSH1 0x20 DUP4 ADD PUSH2 0x1DFC JUMP JUMPDEST SWAP5 PUSH2 0x41CD PUSH2 0x420A PUSH2 0x41AB PUSH1 0x40 DUP7 ADD PUSH2 0x1DFC JUMP JUMPDEST PUSH2 0x41B8 PUSH1 0x80 DUP8 ADD DUP8 PUSH2 0x3D46 JUMP JUMPDEST SWAP4 SWAP1 SWAP5 PUSH2 0x41C7 PUSH1 0xA0 DUP10 ADD PUSH2 0x319C JUMP JUMPDEST SWAP8 PUSH2 0x3D46 JUMP JUMPDEST SWAP9 SWAP1 SWAP10 PUSH2 0x41EA PUSH2 0x41DB PUSH2 0x444 JUMP JUMPDEST PUSH1 0x1 PUSH1 0x1 PUSH1 0xA0 SHL SUB SWAP1 SWAP15 AND DUP15 MSTORE JUMP JUMPDEST PUSH1 0x1 PUSH1 0x1 PUSH1 0xA0 SHL SUB AND PUSH1 0x20 DUP14 ADD MSTORE JUMP JUMPDEST PUSH1 0x1 PUSH1 0x1 PUSH1 0xA0 SHL SUB AND PUSH1 0x40 DUP12 ADD MSTORE JUMP JUMPDEST CALLDATASIZE SWAP2 PUSH2 0x489 JUMP JUMPDEST PUSH1 0x60 DUP8 ADD MSTORE ISZERO ISZERO PUSH1 0x80 DUP7 ADD MSTORE JUMP JUMPDEST CALLDATASIZE SWAP2 PUSH2 0x51A JUMP JUMPDEST PUSH1 0xA0 DUP3 ADD MSTORE PUSH1 0xC0 DUP2 ADD DUP3 SWAP1 MSTORE PUSH1 0x40 MLOAD PUSH4 0x5EFA47C7 PUSH1 0xE1 SHL DUP2 MSTORE SWAP13 DUP14 SWAP6 DUP7 SWAP5 DUP6 SWAP4 PUSH1 0x4 DUP6 ADD PUSH2 0x40F5 JUMP JUMPDEST SUB SWAP3 PUSH1 0x1 PUSH1 0x1 PUSH1 0xA0 SHL SUB AND GAS CALL SWAP1 DUP2 ISZERO PUSH2 0x1019 JUMPI PUSH0 SWAP8 PUSH0 SWAP3 PUSH2 0x43E6 JUMPI JUMPDEST POP PUSH0 JUMPDEST DUP8 DUP2 LT PUSH2 0x42EB JUMPI POP POP POP POP POP SWAP1 PUSH2 0x4298 SWAP5 SWAP6 PUSH2 0x4292 SWAP4 SWAP3 PUSH2 0x429C JUMPI JUMPDEST POP POP PUSH2 0x1DA2 JUMP JUMPDEST SWAP1 PUSH2 0x1E23 JUMP JUMPDEST MLOAD SWAP1 JUMP JUMPDEST DUP2 PUSH2 0x42AC PUSH1 0xA0 PUSH2 0x42D6 SWAP5 ADD PUSH2 0x319C JUMP JUMPDEST ISZERO PUSH2 0x42DD JUMPI PUSH1 0x20 PUSH2 0x42BD SWAP2 ADD PUSH2 0x1DFC JUMP JUMPDEST PUSH2 0x42CF PUSH2 0x42C9 DUP6 PUSH2 0x1DA2 JUMP JUMPDEST DUP8 PUSH2 0x1E23 JUMP JUMPDEST MLOAD SWAP2 PUSH2 0x3812 JUMP JUMPDEST PUSH0 DUP1 PUSH2 0x428B JUMP JUMPDEST PUSH2 0x42E6 SWAP1 PUSH2 0x1DFC JUMP JUMPDEST PUSH2 0x42BD JUMP JUMPDEST DUP1 PUSH2 0x43AC DUP11 DUP10 PUSH2 0x4315 DUP5 PUSH2 0x430E PUSH1 0x1 SWAP8 PUSH2 0x4308 PUSH1 0x80 DUP7 ADD DUP7 PUSH2 0x3D46 JUMP JUMPDEST SWAP1 PUSH2 0x1DEC JUMP JUMPDEST CALLDATALOAD SWAP4 PUSH2 0x1E23 JUMP JUMPDEST MLOAD PUSH2 0x4353 PUSH2 0x4333 PUSH2 0x4326 DUP8 DUP14 PUSH2 0x1E23 JUMP JUMPDEST MLOAD PUSH1 0x1 PUSH1 0x1 PUSH1 0x80 SHL SUB AND SWAP1 JUMP JUMPDEST DUP3 PUSH2 0x4341 PUSH2 0x4326 DUP10 DUP13 PUSH2 0x1E23 JUMP JUMPDEST PUSH2 0x434D PUSH1 0xA0 DUP8 ADD PUSH2 0x319C JUMP JUMPDEST SWAP3 PUSH2 0x39CC JUMP JUMPDEST PUSH2 0x435D DUP6 DUP10 PUSH2 0x1E23 JUMP JUMPDEST MLOAD SWAP3 PUSH2 0x436B PUSH1 0xA0 DUP5 ADD PUSH2 0x319C JUMP JUMPDEST ISZERO PUSH2 0x43C6 JUMPI PUSH2 0x4389 PUSH1 0xA0 PUSH1 0x1 PUSH1 0x1 PUSH1 0x80 SHL SUB DUP4 AND PUSH1 0xF SIGNEXTEND SWAP5 ADD PUSH2 0x319C JUMP JUMPDEST ISZERO PUSH2 0x43B2 JUMPI POP PUSH1 0x1 PUSH1 0x1 PUSH1 0x80 SHL SUB PUSH2 0x43A4 SWAP2 AND PUSH1 0xF SIGNEXTEND PUSH2 0x29CB JUMP JUMPDEST SWAP2 JUMPDEST DUP9 PUSH2 0x3EFB JUMP JUMPDEST ADD PUSH2 0x426F JUMP JUMPDEST PUSH1 0x1 PUSH1 0x1 PUSH1 0x80 SHL SUB SWAP2 POP AND PUSH1 0xF SIGNEXTEND SWAP2 PUSH2 0x43A6 JUMP JUMPDEST PUSH2 0x4389 PUSH1 0xA0 PUSH2 0x43E0 PUSH1 0x1 PUSH1 0x1 PUSH1 0x80 SHL SUB DUP6 AND PUSH1 0xF SIGNEXTEND PUSH2 0x29CB JUMP JUMPDEST SWAP5 PUSH2 0x1171 JUMP JUMPDEST SWAP1 SWAP8 POP PUSH2 0x4405 SWAP2 POP RETURNDATASIZE DUP1 PUSH0 DUP4 RETURNDATACOPY PUSH2 0x43FD DUP2 DUP4 PUSH2 0x423 JUMP JUMPDEST DUP2 ADD SWAP1 PUSH2 0x3FED JUMP JUMPDEST SWAP1 SWAP7 PUSH0 PUSH2 0x426C JUMP JUMPDEST PUSH1 0x1 SWAP1 PUSH2 0x449D PUSH2 0x4493 PUSH2 0x4478 PUSH2 0x4457 DUP16 DUP13 PUSH2 0x4427 DUP2 PUSH2 0x1DFC JUMP JUMPDEST SWAP2 PUSH2 0x4451 PUSH2 0x3E16 DUP10 PUSH2 0x4308 PUSH2 0x443E PUSH1 0x20 DUP8 ADD PUSH2 0x1DFC JUMP JUMPDEST SWAP5 PUSH2 0x444B PUSH1 0x40 DUP9 ADD PUSH2 0x1DFC JUMP JUMPDEST SWAP7 PUSH2 0x3D46 JUMP JUMPDEST SWAP3 PUSH2 0x31A6 JUMP JUMPDEST DUP9 PUSH1 0x1 SWAP2 PUSH0 MSTORE ADD PUSH1 0x20 MSTORE PUSH1 0x40 PUSH0 KECCAK256 SLOAD SWAP1 PUSH1 0x1 PUSH1 0x1 PUSH1 0x80 SHL SUB DUP3 AND SWAP2 PUSH1 0x80 SHR SWAP1 JUMP JUMPDEST PUSH2 0x4485 DUP6 DUP10 SWAP5 SWAP4 SWAP5 PUSH2 0x1E23 JUMP JUMPDEST SWAP1 PUSH1 0x1 PUSH1 0x1 PUSH1 0x80 SHL SUB AND SWAP1 MSTORE JUMP JUMPDEST PUSH2 0x4485 DUP4 DUP10 PUSH2 0x1E23 JUMP JUMPDEST ADD PUSH2 0x4162 JUMP JUMPDEST PUSH2 0x44D1 SWAP1 PUSH2 0x44B3 PUSH1 0xA0 DUP8 ADD PUSH2 0x319C JUMP JUMPDEST ISZERO PUSH2 0x44D7 JUMPI PUSH2 0x44CA PUSH2 0x44C4 DUP8 PUSH2 0x1DFC JUMP JUMPDEST SWAP2 PUSH2 0x2A0D JUMP JUMPDEST SWAP1 DUP10 PUSH2 0x3812 JUMP JUMPDEST PUSH0 PUSH2 0x414B JUMP JUMPDEST PUSH2 0x44CA PUSH2 0x44C4 PUSH1 0x20 DUP9 ADD PUSH2 0x1DFC JUMP JUMPDEST SWAP2 DUP6 DUP1 SWAP13 SWAP12 DUP3 SWAP9 SWAP4 SWAP8 SWAP12 SWAP10 SWAP6 SWAP11 SWAP7 SWAP11 PUSH2 0x4501 DUP13 DUP3 DUP7 DUP13 PUSH2 0x31A6 JUMP JUMPDEST SWAP7 PUSH2 0x45E1 JUMPI JUMPDEST DUP9 DUP6 PUSH2 0x452E DUP10 DUP10 PUSH1 0x1 SWAP2 PUSH0 MSTORE ADD PUSH1 0x20 MSTORE PUSH1 0x40 PUSH0 KECCAK256 SLOAD SWAP1 PUSH1 0x1 PUSH1 0x1 PUSH1 0x80 SHL SUB DUP3 AND SWAP2 PUSH1 0x80 SHR SWAP1 JUMP JUMPDEST SWAP15 DUP16 SWAP5 DUP3 SWAP9 PUSH2 0x453E SWAP9 SWAP4 SWAP6 PUSH2 0x464E JUMP JUMPDEST SWAP12 DUP13 DUP1 SWAP11 PUSH2 0x454B SWAP4 PUSH2 0x39CC JUMP JUMPDEST PUSH2 0x4586 SWAP3 DUP10 ISZERO PUSH2 0x45C6 JUMPI PUSH1 0x1 PUSH1 0x1 PUSH1 0x80 SHL SUB DUP3 AND PUSH1 0xF SIGNEXTEND SWAP2 JUMPDEST DUP11 ISZERO PUSH2 0x45B4 JUMPI POP PUSH2 0x4580 PUSH1 0x1 PUSH1 0x1 PUSH1 0x80 SHL SUB DUP11 AND PUSH1 0xF SIGNEXTEND PUSH2 0x29CB JUMP JUMPDEST SWAP3 PUSH2 0x3EFB JUMP JUMPDEST PUSH2 0x4592 JUMPI JUMPDEST POP POP POP POP POP JUMP JUMPDEST PUSH2 0x45A2 SWAP5 ISZERO PUSH2 0x45AC JUMPI POP SWAP1 PUSH2 0x3812 JUMP JUMPDEST PUSH0 DUP3 DUP2 DUP1 DUP1 PUSH2 0x458B JUMP JUMPDEST SWAP1 POP SWAP1 PUSH2 0x3812 JUMP JUMPDEST PUSH1 0x1 PUSH1 0x1 PUSH1 0x80 SHL SUB AND PUSH1 0xF SIGNEXTEND SWAP3 PUSH2 0x3EFB JUMP JUMPDEST PUSH2 0x45DB PUSH1 0x1 PUSH1 0x1 PUSH1 0x80 SHL SUB DUP11 AND PUSH1 0xF SIGNEXTEND PUSH2 0x29CB JUMP JUMPDEST SWAP2 PUSH2 0x4564 JUMP JUMPDEST DUP3 ISZERO PUSH2 0x4601 JUMPI PUSH2 0x45FC DUP10 JUMPDEST PUSH2 0x45F5 DUP8 PUSH2 0x2A0D JUMP JUMPDEST SWAP1 DUP14 PUSH2 0x3812 JUMP JUMPDEST PUSH2 0x4507 JUMP JUMPDEST PUSH2 0x45FC DUP5 PUSH2 0x45EC JUMP JUMPDEST SWAP2 SWAP1 DUP3 PUSH1 0x40 SWAP2 SUB SLT PUSH2 0x21F JUMPI PUSH1 0x20 DUP3 MLOAD SWAP3 ADD MLOAD SWAP1 JUMP JUMPDEST SWAP2 SWAP4 SWAP3 PUSH1 0x1 PUSH1 0x1 PUSH1 0x80 SHL SUB SWAP1 DUP2 PUSH2 0x4641 PUSH1 0x40 SWAP5 PUSH1 0x60 DUP8 MSTORE PUSH1 0x60 DUP8 ADD SWAP1 PUSH2 0x4071 JUMP JUMPDEST SWAP7 AND PUSH1 0x20 DUP6 ADD MSTORE AND SWAP2 ADD MSTORE JUMP JUMPDEST PUSH2 0x46F9 SWAP9 SWAP4 PUSH0 SWAP3 PUSH2 0x46C4 PUSH1 0x40 SWAP9 SWAP11 SWAP8 SWAP10 SWAP6 PUSH2 0x46B5 PUSH2 0x466A PUSH2 0x23CF JUMP JUMPDEST SWAP4 DUP14 PUSH2 0x4675 DUP7 PUSH2 0x1E06 JUMP JUMPDEST MSTORE PUSH2 0x468B PUSH2 0x4681 PUSH2 0x23CF JUMP JUMPDEST SWAP7 PUSH2 0x19DF DUP9 PUSH2 0x1E06 JUMP JUMPDEST PUSH2 0x46A5 PUSH2 0x4696 PUSH2 0x444 JUMP JUMPDEST PUSH1 0x1 PUSH1 0x1 PUSH1 0xA0 SHL SUB SWAP1 SWAP9 AND DUP9 MSTORE JUMP JUMPDEST PUSH1 0x1 PUSH1 0x1 PUSH1 0xA0 SHL SUB AND PUSH1 0x20 DUP8 ADD MSTORE JUMP JUMPDEST PUSH1 0x1 PUSH1 0x1 PUSH1 0xA0 SHL SUB AND DUP5 DUP11 ADD MSTORE JUMP JUMPDEST PUSH1 0x60 DUP4 ADD MSTORE DUP8 ISZERO ISZERO PUSH1 0x80 DUP4 ADD MSTORE PUSH1 0xA0 DUP3 ADD MSTORE PUSH1 0xC0 DUP2 ADD DUP3 SWAP1 MSTORE DUP6 MLOAD PUSH4 0xA74713CF PUSH1 0xE0 SHL DUP2 MSTORE SWAP9 DUP10 SWAP6 DUP7 SWAP5 DUP6 SWAP4 PUSH1 0x4 DUP6 ADD PUSH2 0x4620 JUMP JUMPDEST SUB SWAP3 PUSH1 0x1 PUSH1 0x1 PUSH1 0xA0 SHL SUB AND GAS CALL SWAP3 DUP4 ISZERO PUSH2 0x1019 JUMPI PUSH0 SWAP4 PUSH2 0x474E JUMPI JUMPDEST POP DUP3 ISZERO PUSH2 0x4720 JUMPI POP POP SWAP1 JUMP JUMPDEST SWAP1 SWAP2 POP ISZERO PUSH2 0x4734 JUMPI PUSH2 0x3580 PUSH2 0x4F0 SWAP2 PUSH2 0x2976 JUMP JUMPDEST PUSH2 0x4740 PUSH2 0x4F0 SWAP2 PUSH2 0x2952 JUMP JUMPDEST PUSH8 0x120A871CC0020000 SWAP1 DIV SWAP1 JUMP JUMPDEST PUSH2 0x4771 SWAP2 SWAP4 POP PUSH1 0x40 RETURNDATASIZE PUSH1 0x40 GT PUSH2 0x4779 JUMPI JUMPDEST PUSH2 0x4769 DUP2 DUP4 PUSH2 0x423 JUMP JUMPDEST DUP2 ADD SWAP1 PUSH2 0x460A JUMP JUMPDEST POP SWAP2 PUSH0 PUSH2 0x4714 JUMP JUMPDEST POP RETURNDATASIZE PUSH2 0x475F JUMP INVALID SHL RETURNDATASIZE PUSH31 0xDB2E9C0B0E7C525B20AAAEF0F5940D2ED71663C7D39266ECAFAC728859A264 PUSH10 0x7066735822122011901E 0x1E SIGNEXTEND 0xA7 CREATE 0x1E 0xDA JUMPDEST 0xDA DUP3 EXTSTATICCALL 0xC2 JUMPF 0x3A1 SWAP10 PUSH17 0x3501F32F966DADDA5FC81C8BD264736F6C PUSH4 0x4300081E STOP CALLER "},"methodIdentifiers":{"_decodeTwoBytes(bytes)":"f9158ee5","addLiquidity(address,address,address,bytes3,uint256,uint256)":"e513315b","allowance(address,address,uint256)":"598af9e7","approve(address,uint256,uint256)":"426a8493","balanceOf(address,uint256)":"00fdd58e","batchSwap((address,address,address,bytes3[],uint256[],bool)[],uint256,uint256)":"9d2ec6e4","commitSwap(bytes32)":"5b7499b5","configureProtocolFee(address,uint16)":"94756e9b","createPool(address,address,address,bytes3)":"5670f55a","defaultData0Bridge()":"3d465aae","defaultData1Bridge()":"46fe6514","defaultData2Bridge()":"091f15b0","defaultData3Bridge()":"31b4ae17","executeCommittedSwap(address,address,address,bytes3,uint256,bool,uint256,uint64,bytes32)":"4dbb4c5e","flashSession(address,bytes,address[])":"5dfb78af","flashSessionWithReturn(address,bytes,address[])":"ea157acf","getCommitNonce(address)":"66387140","getInventory(uint256)":"5b298d32","getPoolInfo(uint256)":"2f380b35","getQuote((address,address,address,uint256[],bool,bytes3[],bytes4),uint128,uint128)":"a74713cf","getQuoteBatch((address,address,address,uint256[],bool,bytes3[],bytes4),uint128[],uint128[])":"bdf48f8e","getUserDeltas(address,address[])":"314e2321","isOperator(address,address)":"b6363cf2","removeLiquidity(address,address,address,bytes3,uint256)":"cb1f2f38","routerGetQuote((address,address,address,uint256[],bool,bytes3[],bytes4),uint128,uint128)":"a465ba0f","routerGetQuoteBatch((address,address,address,uint256[],bool,bytes3[],bytes4),uint128[],uint128[])":"21e24384","setOperator(address,bool)":"558a7297","supportsInterface(bytes4)":"01ffc9a7","swap(address,address,address,bytes3,uint256,bool,uint256)":"d92bc84c","totalLiquidity(uint256)":"b5e60c3c","transfer(address,uint256,uint256)":"095bcdb6","transferFrom(address,address,uint256,uint256)":"fe99049a"}}}}}