{"contracts/Peripheral/DataBridges/real/UniswapV3DataBridge.sol":{"UniswapV3DataBridge":{"abi":[{"inputs":[{"internalType":"address","name":"_factory","type":"address"},{"internalType":"uint24","name":"_fee","type":"uint24"},{"internalType":"uint24","name":"","type":"uint24"},{"internalType":"address","name":"_ext0","type":"address"},{"internalType":"address","name":"_ext1","type":"address"},{"internalType":"address","name":"_alias0","type":"address"},{"internalType":"address","name":"_alias1","type":"address"}],"stateMutability":"nonpayable","type":"constructor"},{"inputs":[],"name":"Math__DivByZero","type":"error"},{"inputs":[],"name":"Math__Overflow","type":"error"},{"inputs":[],"name":"UniswapV3__PairMismatch","type":"error"},{"inputs":[],"name":"UniswapV3__PoolMissing","type":"error"},{"inputs":[],"name":"UniswapV3__PoolUninitialized","type":"error"},{"inputs":[],"name":"UniswapV3__SpotZero","type":"error"},{"inputs":[],"name":"canonicalExt0","outputs":[{"internalType":"address","name":"","type":"address"}],"stateMutability":"view","type":"function"},{"inputs":[],"name":"canonicalExt1","outputs":[{"internalType":"address","name":"","type":"address"}],"stateMutability":"view","type":"function"},{"inputs":[],"name":"factory","outputs":[{"internalType":"address","name":"","type":"address"}],"stateMutability":"view","type":"function"},{"inputs":[],"name":"fee","outputs":[{"internalType":"uint24","name":"","type":"uint24"}],"stateMutability":"view","type":"function"},{"inputs":[{"components":[{"internalType":"address","name":"asset0","type":"address"},{"internalType":"address","name":"asset1","type":"address"},{"internalType":"address","name":"quoter","type":"address"},{"internalType":"uint256","name":"amount","type":"uint256"},{"internalType":"uint128","name":"asset0Balance","type":"uint128"},{"internalType":"uint128","name":"asset1Balance","type":"uint128"},{"internalType":"uint16","name":"bucketID","type":"uint16"},{"internalType":"bool","name":"zeroForOne","type":"bool"}],"internalType":"struct QuoteParams","name":"params","type":"tuple"}],"name":"getData","outputs":[{"internalType":"bytes","name":"","type":"bytes"}],"stateMutability":"view","type":"function"},{"inputs":[],"name":"internalAlias0","outputs":[{"internalType":"address","name":"","type":"address"}],"stateMutability":"view","type":"function"},{"inputs":[],"name":"internalAlias1","outputs":[{"internalType":"address","name":"","type":"address"}],"stateMutability":"view","type":"function"}],"evm":{"bytecode":{"linkReferences":{},"object":"6101403461010957601f610a9838819003918201601f19168301916001600160401b0383118484101761010d5780849260e0946040528339810103126101095761004881610121565b61005460208301610135565b9161006160408201610135565b5061006e60608201610121565b9061007b60808201610121565b61009360c061008c60a08501610121565b9301610121565b9260805260a05260c05260e05261010052610120526040516109529081610146823960805181818161010501526102d2015260a0518181816101d101526102f3015260c0518160c1015260e0518161018d01526101005181818161014901526103850152610120518181816084015261034f0152f35b5f80fd5b634e487b7160e01b5f52604160045260245ffd5b51906001600160a01b038216820361010957565b519062ffffff821682036101095756fe6080806040526004361015610012575f80fd5b5f3560e01c9081633bd1104b1461020057508063a6b12823146101bc578063b24a485b14610178578063c45a015514610134578063cd852366146100f0578063dd82b275146100ac5763ddca3f4314610069575f80fd5b346100a8575f3660031901126100a857602060405162ffffff7f0000000000000000000000000000000000000000000000000000000000000000168152f35b5f80fd5b346100a8575f3660031901126100a8576040517f00000000000000000000000000000000000000000000000000000000000000006001600160a01b03168152602090f35b346100a8575f3660031901126100a8576040517f00000000000000000000000000000000000000000000000000000000000000006001600160a01b03168152602090f35b346100a8575f3660031901126100a8576040517f00000000000000000000000000000000000000000000000000000000000000006001600160a01b03168152602090f35b346100a8575f3660031901126100a8576040517f00000000000000000000000000000000000000000000000000000000000000006001600160a01b03168152602090f35b346100a8575f3660031901126100a8576040517f00000000000000000000000000000000000000000000000000000000000000006001600160a01b03168152602090f35b346100a8576101003660031901126100a857610100810181811067ffffffffffffffff82111761079b576040526004356001600160a01b03811681036100a85781526024356001600160a01b03811681036100a857602082019081526044356001600160a01b03811681036100a857604083015260643560608301526084356001600160801b03811681036100a857608083015260a4356001600160801b03811681036100a85760a083015260c43561ffff811681036100a85760c083015260e43580151581036100a85760e08301527f00000000000000000000000000000000000000000000000000000000000000007f0000000000000000000000000000000000000000000000000000000000000000806001600160a01b0380821690841611610792575b50604051630b4c774160e11b81526001600160a01b03928316600482015290821660248201527f000000000000000000000000000000000000000000000000000000000000000062ffffff16604482015290602090829060649082907f0000000000000000000000000000000000000000000000000000000000000000165afa908115610628575f91610773575b506001600160a01b0316801561076457604051633850c7bd60e01b815260e081600481855afa908115610628575f916106d1575b506001600160a01b031680156106c257604051630dfe168160e01b815291602083600481845afa908115610628576004935f926106a0575b506020906040519485809263d21220a760e01b82525afa928315610628575f9361066f575b5060405163313ce56760e01b8152926001600160a01b03919091169190602084600481865afa938415610628575f94610633575b5060405163313ce56760e01b81526001600160a01b0391909116939091602083600481885afa928315610628575f936105e6575b506104bb8160ff9261081b565b9116601201806012116105d25760ff6104d66104dd9261080d565b931661080d565b916001600160a01b03831683036105d2576104fb9260601b91610877565b93516001600160a01b0316828114806105bf575b1561056257505050505b604080516020810192835242828201528181526105376060826107af565b8151928391602083525180918160208501528484015e5f828201840152601f01601f19168101030190f35b1491826105ab575b50501561059c57801561058d576ec097ce7bc90715b34b9f100000000004610519565b630ab4c68160e41b5f5260045ffd5b63c5a45bcf60e01b5f5260045ffd5b516001600160a01b0316149050828061056a565b5083516001600160a01b0316821461050f565b634e487b7160e01b5f52601160045260245ffd5b9092506020813d602011610620575b81610602602093836107af565b810103126100a8576104bb61061860ff926107ff565b9391506104ae565b3d91506105f5565b6040513d5f823e3d90fd5b9093506020813d602011610667575b8161064f602093836107af565b810103126100a857610660906107ff565b928661047a565b3d9150610642565b61069291935060203d602011610699575b61068a81836107af565b8101906107d1565b9185610446565b503d610680565b60209192506106bb90823d84116106995761068a81836107af565b9190610421565b630f4b87fd60e41b5f5260045ffd5b905060e0813d60e01161075c575b816106ec60e093836107af565b810103126100a8578051906001600160a01b03821682036100a85760208101518060020b036100a85780610724604060c093016107f0565b50610731606082016107f0565b5061073e608082016107f0565b5061074b60a082016107ff565b500151801515036100a857846103e9565b3d91506106df565b631ab3e9e760e11b5f5260045ffd5b61078c915060203d6020116106995761068a81836107af565b836103b5565b91905084610327565b634e487b7160e01b5f52604160045260245ffd5b90601f8019910116810190811067ffffffffffffffff82111761079b57604052565b908160209103126100a857516001600160a01b03811681036100a85790565b519061ffff821682036100a857565b519060ff821682036100a857565b604d81116105d257600a0a90565b5f91905f19828209918082029384808510940393808503941461086d57600160601b84101561085e5750600160601b910990828211900360a01b910360601c1790565b637f39b44d60e01b8152600490fd5b5050505060601c90565b915f1982840992828102928380861095039480860395146108ff57848311156108f057829109600182190182168092046002816003021880820260020302808202600203028082026002030280820260020302808202600203028091026002030293600183805f03040190848311900302920304170290565b637f39b44d60e01b5f5260045ffd5b50508092501561090d570490565b639f93261560e01b5f5260045ffdfea264697066735822122010022dfc52b62c849e5bf2e99991871d1b79352c89c6c35512344f0aac8b637964736f6c634300081e0033","opcodes":"PUSH2 0x140 CALLVALUE PUSH2 0x109 JUMPI PUSH1 0x1F PUSH2 0xA98 CODESIZE DUP2 SWAP1 SUB SWAP2 DUP3 ADD PUSH1 0x1F NOT AND DUP4 ADD SWAP2 PUSH1 0x1 PUSH1 0x1 PUSH1 0x40 SHL SUB DUP4 GT DUP5 DUP5 LT OR PUSH2 0x10D JUMPI DUP1 DUP5 SWAP3 PUSH1 0xE0 SWAP5 PUSH1 0x40 MSTORE DUP4 CODECOPY DUP2 ADD SUB SLT PUSH2 0x109 JUMPI PUSH2 0x48 DUP2 PUSH2 0x121 JUMP JUMPDEST PUSH2 0x54 PUSH1 0x20 DUP4 ADD PUSH2 0x135 JUMP JUMPDEST SWAP2 PUSH2 0x61 PUSH1 0x40 DUP3 ADD PUSH2 0x135 JUMP JUMPDEST POP PUSH2 0x6E PUSH1 0x60 DUP3 ADD PUSH2 0x121 JUMP JUMPDEST SWAP1 PUSH2 0x7B PUSH1 0x80 DUP3 ADD PUSH2 0x121 JUMP JUMPDEST PUSH2 0x93 PUSH1 0xC0 PUSH2 0x8C PUSH1 0xA0 DUP6 ADD PUSH2 0x121 JUMP JUMPDEST SWAP4 ADD PUSH2 0x121 JUMP JUMPDEST SWAP3 PUSH1 0x80 MSTORE PUSH1 0xA0 MSTORE PUSH1 0xC0 MSTORE PUSH1 0xE0 MSTORE PUSH2 0x100 MSTORE PUSH2 0x120 MSTORE PUSH1 0x40 MLOAD PUSH2 0x952 SWAP1 DUP2 PUSH2 0x146 DUP3 CODECOPY PUSH1 0x80 MLOAD DUP2 DUP2 DUP2 PUSH2 0x105 ADD MSTORE PUSH2 0x2D2 ADD MSTORE PUSH1 0xA0 MLOAD DUP2 DUP2 DUP2 PUSH2 0x1D1 ADD MSTORE PUSH2 0x2F3 ADD MSTORE PUSH1 0xC0 MLOAD DUP2 PUSH1 0xC1 ADD MSTORE PUSH1 0xE0 MLOAD DUP2 PUSH2 0x18D ADD MSTORE PUSH2 0x100 MLOAD DUP2 DUP2 DUP2 PUSH2 0x149 ADD MSTORE PUSH2 0x385 ADD MSTORE PUSH2 0x120 MLOAD DUP2 DUP2 DUP2 PUSH1 0x84 ADD MSTORE PUSH2 0x34F ADD MSTORE RETURN JUMPDEST PUSH0 DUP1 REVERT JUMPDEST PUSH4 0x4E487B71 PUSH1 0xE0 SHL PUSH0 MSTORE PUSH1 0x41 PUSH1 0x4 MSTORE PUSH1 0x24 PUSH0 REVERT JUMPDEST MLOAD SWAP1 PUSH1 0x1 PUSH1 0x1 PUSH1 0xA0 SHL SUB DUP3 AND DUP3 SUB PUSH2 0x109 JUMPI JUMP JUMPDEST MLOAD SWAP1 PUSH3 0xFFFFFF DUP3 AND DUP3 SUB PUSH2 0x109 JUMPI JUMP INVALID PUSH1 0x80 DUP1 PUSH1 0x40 MSTORE PUSH1 0x4 CALLDATASIZE LT ISZERO PUSH2 0x12 JUMPI PUSH0 DUP1 REVERT JUMPDEST PUSH0 CALLDATALOAD PUSH1 0xE0 SHR SWAP1 DUP2 PUSH4 0x3BD1104B EQ PUSH2 0x200 JUMPI POP DUP1 PUSH4 0xA6B12823 EQ PUSH2 0x1BC JUMPI DUP1 PUSH4 0xB24A485B EQ PUSH2 0x178 JUMPI DUP1 PUSH4 0xC45A0155 EQ PUSH2 0x134 JUMPI DUP1 PUSH4 0xCD852366 EQ PUSH2 0xF0 JUMPI DUP1 PUSH4 0xDD82B275 EQ PUSH2 0xAC JUMPI PUSH4 0xDDCA3F43 EQ PUSH2 0x69 JUMPI PUSH0 DUP1 REVERT JUMPDEST CALLVALUE PUSH2 0xA8 JUMPI PUSH0 CALLDATASIZE PUSH1 0x3 NOT ADD SLT PUSH2 0xA8 JUMPI PUSH1 0x20 PUSH1 0x40 MLOAD PUSH3 0xFFFFFF PUSH32 0x0 AND DUP2 MSTORE RETURN JUMPDEST PUSH0 DUP1 REVERT JUMPDEST CALLVALUE PUSH2 0xA8 JUMPI PUSH0 CALLDATASIZE PUSH1 0x3 NOT ADD SLT PUSH2 0xA8 JUMPI PUSH1 0x40 MLOAD PUSH32 0x0 PUSH1 0x1 PUSH1 0x1 PUSH1 0xA0 SHL SUB AND DUP2 MSTORE PUSH1 0x20 SWAP1 RETURN JUMPDEST CALLVALUE PUSH2 0xA8 JUMPI PUSH0 CALLDATASIZE PUSH1 0x3 NOT ADD SLT PUSH2 0xA8 JUMPI PUSH1 0x40 MLOAD PUSH32 0x0 PUSH1 0x1 PUSH1 0x1 PUSH1 0xA0 SHL SUB AND DUP2 MSTORE PUSH1 0x20 SWAP1 RETURN JUMPDEST CALLVALUE PUSH2 0xA8 JUMPI PUSH0 CALLDATASIZE PUSH1 0x3 NOT ADD SLT PUSH2 0xA8 JUMPI PUSH1 0x40 MLOAD PUSH32 0x0 PUSH1 0x1 PUSH1 0x1 PUSH1 0xA0 SHL SUB AND DUP2 MSTORE PUSH1 0x20 SWAP1 RETURN JUMPDEST CALLVALUE PUSH2 0xA8 JUMPI PUSH0 CALLDATASIZE PUSH1 0x3 NOT ADD SLT PUSH2 0xA8 JUMPI PUSH1 0x40 MLOAD PUSH32 0x0 PUSH1 0x1 PUSH1 0x1 PUSH1 0xA0 SHL SUB AND DUP2 MSTORE PUSH1 0x20 SWAP1 RETURN JUMPDEST CALLVALUE PUSH2 0xA8 JUMPI PUSH0 CALLDATASIZE PUSH1 0x3 NOT ADD SLT PUSH2 0xA8 JUMPI PUSH1 0x40 MLOAD PUSH32 0x0 PUSH1 0x1 PUSH1 0x1 PUSH1 0xA0 SHL SUB AND DUP2 MSTORE PUSH1 0x20 SWAP1 RETURN JUMPDEST CALLVALUE PUSH2 0xA8 JUMPI PUSH2 0x100 CALLDATASIZE PUSH1 0x3 NOT ADD SLT PUSH2 0xA8 JUMPI PUSH2 0x100 DUP2 ADD DUP2 DUP2 LT PUSH8 0xFFFFFFFFFFFFFFFF DUP3 GT OR PUSH2 0x79B JUMPI PUSH1 0x40 MSTORE PUSH1 0x4 CALLDATALOAD PUSH1 0x1 PUSH1 0x1 PUSH1 0xA0 SHL SUB DUP2 AND DUP2 SUB PUSH2 0xA8 JUMPI DUP2 MSTORE PUSH1 0x24 CALLDATALOAD PUSH1 0x1 PUSH1 0x1 PUSH1 0xA0 SHL SUB DUP2 AND DUP2 SUB PUSH2 0xA8 JUMPI PUSH1 0x20 DUP3 ADD SWAP1 DUP2 MSTORE PUSH1 0x44 CALLDATALOAD PUSH1 0x1 PUSH1 0x1 PUSH1 0xA0 SHL SUB DUP2 AND DUP2 SUB PUSH2 0xA8 JUMPI PUSH1 0x40 DUP4 ADD MSTORE PUSH1 0x64 CALLDATALOAD PUSH1 0x60 DUP4 ADD MSTORE PUSH1 0x84 CALLDATALOAD PUSH1 0x1 PUSH1 0x1 PUSH1 0x80 SHL SUB DUP2 AND DUP2 SUB PUSH2 0xA8 JUMPI PUSH1 0x80 DUP4 ADD MSTORE PUSH1 0xA4 CALLDATALOAD PUSH1 0x1 PUSH1 0x1 PUSH1 0x80 SHL SUB DUP2 AND DUP2 SUB PUSH2 0xA8 JUMPI PUSH1 0xA0 DUP4 ADD MSTORE PUSH1 0xC4 CALLDATALOAD PUSH2 0xFFFF DUP2 AND DUP2 SUB PUSH2 0xA8 JUMPI PUSH1 0xC0 DUP4 ADD MSTORE PUSH1 0xE4 CALLDATALOAD DUP1 ISZERO ISZERO DUP2 SUB PUSH2 0xA8 JUMPI PUSH1 0xE0 DUP4 ADD MSTORE PUSH32 0x0 PUSH32 0x0 DUP1 PUSH1 0x1 PUSH1 0x1 PUSH1 0xA0 SHL SUB DUP1 DUP3 AND SWAP1 DUP5 AND GT PUSH2 0x792 JUMPI JUMPDEST POP PUSH1 0x40 MLOAD PUSH4 0xB4C7741 PUSH1 0xE1 SHL DUP2 MSTORE PUSH1 0x1 PUSH1 0x1 PUSH1 0xA0 SHL SUB SWAP3 DUP4 AND PUSH1 0x4 DUP3 ADD MSTORE SWAP1 DUP3 AND PUSH1 0x24 DUP3 ADD MSTORE PUSH32 0x0 PUSH3 0xFFFFFF AND PUSH1 0x44 DUP3 ADD MSTORE SWAP1 PUSH1 0x20 SWAP1 DUP3 SWAP1 PUSH1 0x64 SWAP1 DUP3 SWAP1 PUSH32 0x0 AND GAS STATICCALL SWAP1 DUP2 ISZERO PUSH2 0x628 JUMPI PUSH0 SWAP2 PUSH2 0x773 JUMPI JUMPDEST POP PUSH1 0x1 PUSH1 0x1 PUSH1 0xA0 SHL SUB AND DUP1 ISZERO PUSH2 0x764 JUMPI PUSH1 0x40 MLOAD PUSH4 0x3850C7BD PUSH1 0xE0 SHL DUP2 MSTORE PUSH1 0xE0 DUP2 PUSH1 0x4 DUP2 DUP6 GAS STATICCALL SWAP1 DUP2 ISZERO PUSH2 0x628 JUMPI PUSH0 SWAP2 PUSH2 0x6D1 JUMPI JUMPDEST POP PUSH1 0x1 PUSH1 0x1 PUSH1 0xA0 SHL SUB AND DUP1 ISZERO PUSH2 0x6C2 JUMPI PUSH1 0x40 MLOAD PUSH4 0xDFE1681 PUSH1 0xE0 SHL DUP2 MSTORE SWAP2 PUSH1 0x20 DUP4 PUSH1 0x4 DUP2 DUP5 GAS STATICCALL SWAP1 DUP2 ISZERO PUSH2 0x628 JUMPI PUSH1 0x4 SWAP4 PUSH0 SWAP3 PUSH2 0x6A0 JUMPI JUMPDEST POP PUSH1 0x20 SWAP1 PUSH1 0x40 MLOAD SWAP5 DUP6 DUP1 SWAP3 PUSH4 0xD21220A7 PUSH1 0xE0 SHL DUP3 MSTORE GAS STATICCALL SWAP3 DUP4 ISZERO PUSH2 0x628 JUMPI PUSH0 SWAP4 PUSH2 0x66F JUMPI JUMPDEST POP PUSH1 0x40 MLOAD PUSH4 0x313CE567 PUSH1 0xE0 SHL DUP2 MSTORE SWAP3 PUSH1 0x1 PUSH1 0x1 PUSH1 0xA0 SHL SUB SWAP2 SWAP1 SWAP2 AND SWAP2 SWAP1 PUSH1 0x20 DUP5 PUSH1 0x4 DUP2 DUP7 GAS STATICCALL SWAP4 DUP5 ISZERO PUSH2 0x628 JUMPI PUSH0 SWAP5 PUSH2 0x633 JUMPI JUMPDEST POP PUSH1 0x40 MLOAD PUSH4 0x313CE567 PUSH1 0xE0 SHL DUP2 MSTORE PUSH1 0x1 PUSH1 0x1 PUSH1 0xA0 SHL SUB SWAP2 SWAP1 SWAP2 AND SWAP4 SWAP1 SWAP2 PUSH1 0x20 DUP4 PUSH1 0x4 DUP2 DUP9 GAS STATICCALL SWAP3 DUP4 ISZERO PUSH2 0x628 JUMPI PUSH0 SWAP4 PUSH2 0x5E6 JUMPI JUMPDEST POP PUSH2 0x4BB DUP2 PUSH1 0xFF SWAP3 PUSH2 0x81B JUMP JUMPDEST SWAP2 AND PUSH1 0x12 ADD DUP1 PUSH1 0x12 GT PUSH2 0x5D2 JUMPI PUSH1 0xFF PUSH2 0x4D6 PUSH2 0x4DD SWAP3 PUSH2 0x80D JUMP JUMPDEST SWAP4 AND PUSH2 0x80D JUMP JUMPDEST SWAP2 PUSH1 0x1 PUSH1 0x1 PUSH1 0xA0 SHL SUB DUP4 AND DUP4 SUB PUSH2 0x5D2 JUMPI PUSH2 0x4FB SWAP3 PUSH1 0x60 SHL SWAP2 PUSH2 0x877 JUMP JUMPDEST SWAP4 MLOAD PUSH1 0x1 PUSH1 0x1 PUSH1 0xA0 SHL SUB AND DUP3 DUP2 EQ DUP1 PUSH2 0x5BF JUMPI JUMPDEST ISZERO PUSH2 0x562 JUMPI POP POP POP POP JUMPDEST PUSH1 0x40 DUP1 MLOAD PUSH1 0x20 DUP2 ADD SWAP3 DUP4 MSTORE TIMESTAMP DUP3 DUP3 ADD MSTORE DUP2 DUP2 MSTORE PUSH2 0x537 PUSH1 0x60 DUP3 PUSH2 0x7AF JUMP JUMPDEST DUP2 MLOAD SWAP3 DUP4 SWAP2 PUSH1 0x20 DUP4 MSTORE MLOAD DUP1 SWAP2 DUP2 PUSH1 0x20 DUP6 ADD MSTORE DUP5 DUP5 ADD MCOPY PUSH0 DUP3 DUP3 ADD DUP5 ADD MSTORE PUSH1 0x1F ADD PUSH1 0x1F NOT AND DUP2 ADD SUB ADD SWAP1 RETURN JUMPDEST EQ SWAP2 DUP3 PUSH2 0x5AB JUMPI JUMPDEST POP POP ISZERO PUSH2 0x59C JUMPI DUP1 ISZERO PUSH2 0x58D JUMPI PUSH15 0xC097CE7BC90715B34B9F1000000000 DIV PUSH2 0x519 JUMP JUMPDEST PUSH4 0xAB4C681 PUSH1 0xE4 SHL PUSH0 MSTORE PUSH1 0x4 PUSH0 REVERT JUMPDEST PUSH4 0xC5A45BCF PUSH1 0xE0 SHL PUSH0 MSTORE PUSH1 0x4 PUSH0 REVERT JUMPDEST MLOAD PUSH1 0x1 PUSH1 0x1 PUSH1 0xA0 SHL SUB AND EQ SWAP1 POP DUP3 DUP1 PUSH2 0x56A JUMP JUMPDEST POP DUP4 MLOAD PUSH1 0x1 PUSH1 0x1 PUSH1 0xA0 SHL SUB AND DUP3 EQ PUSH2 0x50F JUMP JUMPDEST PUSH4 0x4E487B71 PUSH1 0xE0 SHL PUSH0 MSTORE PUSH1 0x11 PUSH1 0x4 MSTORE PUSH1 0x24 PUSH0 REVERT JUMPDEST SWAP1 SWAP3 POP PUSH1 0x20 DUP2 RETURNDATASIZE PUSH1 0x20 GT PUSH2 0x620 JUMPI JUMPDEST DUP2 PUSH2 0x602 PUSH1 0x20 SWAP4 DUP4 PUSH2 0x7AF JUMP JUMPDEST DUP2 ADD SUB SLT PUSH2 0xA8 JUMPI PUSH2 0x4BB PUSH2 0x618 PUSH1 0xFF SWAP3 PUSH2 0x7FF JUMP JUMPDEST SWAP4 SWAP2 POP PUSH2 0x4AE JUMP JUMPDEST RETURNDATASIZE SWAP2 POP PUSH2 0x5F5 JUMP JUMPDEST PUSH1 0x40 MLOAD RETURNDATASIZE PUSH0 DUP3 RETURNDATACOPY RETURNDATASIZE SWAP1 REVERT JUMPDEST SWAP1 SWAP4 POP PUSH1 0x20 DUP2 RETURNDATASIZE PUSH1 0x20 GT PUSH2 0x667 JUMPI JUMPDEST DUP2 PUSH2 0x64F PUSH1 0x20 SWAP4 DUP4 PUSH2 0x7AF JUMP JUMPDEST DUP2 ADD SUB SLT PUSH2 0xA8 JUMPI PUSH2 0x660 SWAP1 PUSH2 0x7FF JUMP JUMPDEST SWAP3 DUP7 PUSH2 0x47A JUMP JUMPDEST RETURNDATASIZE SWAP2 POP PUSH2 0x642 JUMP JUMPDEST PUSH2 0x692 SWAP2 SWAP4 POP PUSH1 0x20 RETURNDATASIZE PUSH1 0x20 GT PUSH2 0x699 JUMPI JUMPDEST PUSH2 0x68A DUP2 DUP4 PUSH2 0x7AF JUMP JUMPDEST DUP2 ADD SWAP1 PUSH2 0x7D1 JUMP JUMPDEST SWAP2 DUP6 PUSH2 0x446 JUMP JUMPDEST POP RETURNDATASIZE PUSH2 0x680 JUMP JUMPDEST PUSH1 0x20 SWAP2 SWAP3 POP PUSH2 0x6BB SWAP1 DUP3 RETURNDATASIZE DUP5 GT PUSH2 0x699 JUMPI PUSH2 0x68A DUP2 DUP4 PUSH2 0x7AF JUMP JUMPDEST SWAP2 SWAP1 PUSH2 0x421 JUMP JUMPDEST PUSH4 0xF4B87FD PUSH1 0xE4 SHL PUSH0 MSTORE PUSH1 0x4 PUSH0 REVERT JUMPDEST SWAP1 POP PUSH1 0xE0 DUP2 RETURNDATASIZE PUSH1 0xE0 GT PUSH2 0x75C JUMPI JUMPDEST DUP2 PUSH2 0x6EC PUSH1 0xE0 SWAP4 DUP4 PUSH2 0x7AF JUMP JUMPDEST DUP2 ADD SUB SLT PUSH2 0xA8 JUMPI DUP1 MLOAD SWAP1 PUSH1 0x1 PUSH1 0x1 PUSH1 0xA0 SHL SUB DUP3 AND DUP3 SUB PUSH2 0xA8 JUMPI PUSH1 0x20 DUP2 ADD MLOAD DUP1 PUSH1 0x2 SIGNEXTEND SUB PUSH2 0xA8 JUMPI DUP1 PUSH2 0x724 PUSH1 0x40 PUSH1 0xC0 SWAP4 ADD PUSH2 0x7F0 JUMP JUMPDEST POP PUSH2 0x731 PUSH1 0x60 DUP3 ADD PUSH2 0x7F0 JUMP JUMPDEST POP PUSH2 0x73E PUSH1 0x80 DUP3 ADD PUSH2 0x7F0 JUMP JUMPDEST POP PUSH2 0x74B PUSH1 0xA0 DUP3 ADD PUSH2 0x7FF JUMP JUMPDEST POP ADD MLOAD DUP1 ISZERO ISZERO SUB PUSH2 0xA8 JUMPI DUP5 PUSH2 0x3E9 JUMP JUMPDEST RETURNDATASIZE SWAP2 POP PUSH2 0x6DF JUMP JUMPDEST PUSH4 0x1AB3E9E7 PUSH1 0xE1 SHL PUSH0 MSTORE PUSH1 0x4 PUSH0 REVERT JUMPDEST PUSH2 0x78C SWAP2 POP PUSH1 0x20 RETURNDATASIZE PUSH1 0x20 GT PUSH2 0x699 JUMPI PUSH2 0x68A DUP2 DUP4 PUSH2 0x7AF JUMP JUMPDEST DUP4 PUSH2 0x3B5 JUMP JUMPDEST SWAP2 SWAP1 POP DUP5 PUSH2 0x327 JUMP JUMPDEST PUSH4 0x4E487B71 PUSH1 0xE0 SHL PUSH0 MSTORE PUSH1 0x41 PUSH1 0x4 MSTORE PUSH1 0x24 PUSH0 REVERT JUMPDEST SWAP1 PUSH1 0x1F DUP1 NOT SWAP2 ADD AND DUP2 ADD SWAP1 DUP2 LT PUSH8 0xFFFFFFFFFFFFFFFF DUP3 GT OR PUSH2 0x79B JUMPI PUSH1 0x40 MSTORE JUMP JUMPDEST SWAP1 DUP2 PUSH1 0x20 SWAP2 SUB SLT PUSH2 0xA8 JUMPI MLOAD PUSH1 0x1 PUSH1 0x1 PUSH1 0xA0 SHL SUB DUP2 AND DUP2 SUB PUSH2 0xA8 JUMPI SWAP1 JUMP JUMPDEST MLOAD SWAP1 PUSH2 0xFFFF DUP3 AND DUP3 SUB PUSH2 0xA8 JUMPI JUMP JUMPDEST MLOAD SWAP1 PUSH1 0xFF DUP3 AND DUP3 SUB PUSH2 0xA8 JUMPI JUMP JUMPDEST PUSH1 0x4D DUP2 GT PUSH2 0x5D2 JUMPI PUSH1 0xA EXP SWAP1 JUMP JUMPDEST PUSH0 SWAP2 SWAP1 PUSH0 NOT DUP3 DUP3 MULMOD SWAP2 DUP1 DUP3 MUL SWAP4 DUP5 DUP1 DUP6 LT SWAP5 SUB SWAP4 DUP1 DUP6 SUB SWAP5 EQ PUSH2 0x86D JUMPI PUSH1 0x1 PUSH1 0x60 SHL DUP5 LT ISZERO PUSH2 0x85E JUMPI POP PUSH1 0x1 PUSH1 0x60 SHL SWAP2 MULMOD SWAP1 DUP3 DUP3 GT SWAP1 SUB PUSH1 0xA0 SHL SWAP2 SUB PUSH1 0x60 SHR OR SWAP1 JUMP JUMPDEST PUSH4 0x7F39B44D PUSH1 0xE0 SHL DUP2 MSTORE PUSH1 0x4 SWAP1 REVERT JUMPDEST POP POP POP POP PUSH1 0x60 SHR SWAP1 JUMP JUMPDEST SWAP2 PUSH0 NOT DUP3 DUP5 MULMOD SWAP3 DUP3 DUP2 MUL SWAP3 DUP4 DUP1 DUP7 LT SWAP6 SUB SWAP5 DUP1 DUP7 SUB SWAP6 EQ PUSH2 0x8FF JUMPI DUP5 DUP4 GT ISZERO PUSH2 0x8F0 JUMPI DUP3 SWAP2 MULMOD PUSH1 0x1 DUP3 NOT ADD DUP3 AND DUP1 SWAP3 DIV PUSH1 0x2 DUP2 PUSH1 0x3 MUL XOR DUP1 DUP3 MUL PUSH1 0x2 SUB MUL DUP1 DUP3 MUL PUSH1 0x2 SUB MUL DUP1 DUP3 MUL PUSH1 0x2 SUB MUL DUP1 DUP3 MUL PUSH1 0x2 SUB MUL DUP1 DUP3 MUL PUSH1 0x2 SUB MUL DUP1 SWAP2 MUL PUSH1 0x2 SUB MUL SWAP4 PUSH1 0x1 DUP4 DUP1 PUSH0 SUB DIV ADD SWAP1 DUP5 DUP4 GT SWAP1 SUB MUL SWAP3 SUB DIV OR MUL SWAP1 JUMP JUMPDEST PUSH4 0x7F39B44D PUSH1 0xE0 SHL PUSH0 MSTORE PUSH1 0x4 PUSH0 REVERT JUMPDEST POP POP DUP1 SWAP3 POP ISZERO PUSH2 0x90D JUMPI DIV SWAP1 JUMP JUMPDEST PUSH4 0x9F932615 PUSH1 0xE0 SHL PUSH0 MSTORE PUSH1 0x4 PUSH0 REVERT INVALID LOG2 PUSH5 0x6970667358 0x22 SLT KECCAK256 LT MUL 0x2D 0xFC MSTORE 0xB6 0x2C DUP5 SWAP15 JUMPDEST CALLCODE 0xE9 SWAP10 SWAP2 DUP8 SAR SHL PUSH26 0x352C89C6C35512344F0AAC8B637964736F6C634300081E003300 "},"methodIdentifiers":{"canonicalExt0()":"cd852366","canonicalExt1()":"a6b12823","factory()":"c45a0155","fee()":"ddca3f43","getData((address,address,address,uint256,uint128,uint128,uint16,bool))":"3bd1104b","internalAlias0()":"dd82b275","internalAlias1()":"b24a485b"}}}}}