{"contracts/Peripheral/DataBridges/real/UniswapV2DataBridge.sol":{"UniswapV2DataBridge":{"abi":[{"inputs":[{"internalType":"address","name":"_factory","type":"address"},{"internalType":"address","name":"_ext0","type":"address"},{"internalType":"address","name":"_ext1","type":"address"},{"internalType":"address","name":"_alias0","type":"address"},{"internalType":"address","name":"_alias1","type":"address"}],"stateMutability":"nonpayable","type":"constructor"},{"inputs":[],"name":"Math__DivByZero","type":"error"},{"inputs":[],"name":"Math__Overflow","type":"error"},{"inputs":[],"name":"UniswapV2__EmptyReserves","type":"error"},{"inputs":[],"name":"UniswapV2__PairMissing","type":"error"},{"inputs":[],"name":"UniswapV2__PairTokensMismatch","type":"error"},{"inputs":[],"name":"canonicalExt0","outputs":[{"internalType":"address","name":"","type":"address"}],"stateMutability":"view","type":"function"},{"inputs":[],"name":"canonicalExt1","outputs":[{"internalType":"address","name":"","type":"address"}],"stateMutability":"view","type":"function"},{"inputs":[],"name":"factory","outputs":[{"internalType":"address","name":"","type":"address"}],"stateMutability":"view","type":"function"},{"inputs":[{"components":[{"internalType":"address","name":"asset0","type":"address"},{"internalType":"address","name":"asset1","type":"address"},{"internalType":"address","name":"quoter","type":"address"},{"internalType":"uint256","name":"amount","type":"uint256"},{"internalType":"uint128","name":"asset0Balance","type":"uint128"},{"internalType":"uint128","name":"asset1Balance","type":"uint128"},{"internalType":"uint16","name":"bucketID","type":"uint16"},{"internalType":"bool","name":"zeroForOne","type":"bool"}],"internalType":"struct QuoteParams","name":"params","type":"tuple"}],"name":"getData","outputs":[{"internalType":"bytes","name":"","type":"bytes"}],"stateMutability":"view","type":"function"},{"inputs":[],"name":"internalAlias0","outputs":[{"internalType":"address","name":"","type":"address"}],"stateMutability":"view","type":"function"},{"inputs":[],"name":"internalAlias1","outputs":[{"internalType":"address","name":"","type":"address"}],"stateMutability":"view","type":"function"},{"inputs":[],"name":"twapWindow","outputs":[{"internalType":"uint24","name":"","type":"uint24"}],"stateMutability":"view","type":"function"}],"evm":{"bytecode":{"linkReferences":{},"object":"6101403461012b57601f610cbc38819003918201601f19168301916001600160401b0383118484101761012f5780849260a09460405283398101031261012b5761004881610143565b9061005560208201610143565b9061006260408201610143565b61007a608061007360608501610143565b9301610143565b9260805260a05260c05260e05261010052612a3061012052604051610b649081610158823960805181818160c6015281816102e70152818161088f01526109e4015260a0518181816101920152818161030f015281816108c10152818161094701528181610a1c0152610ab7015260c051818181607e015261097d015260e05181818161014e015281816109ac0152610b0601526101005181818161010a0152610341015261012051816101dc0152f35b5f80fd5b634e487b7160e01b5f52604160045260245ffd5b51906001600160a01b038216820361012b5756fe6080806040526004361015610012575f80fd5b5f3560e01c9081633bd1104b14610200575080638107e133146101c1578063a6b128231461017d578063b24a485b14610139578063c45a0155146100f5578063cd852366146100b15763dd82b27514610069575f80fd5b346100ad575f3660031901126100ad576040517f00000000000000000000000000000000000000000000000000000000000000006001600160a01b03168152602090f35b5f80fd5b346100ad575f3660031901126100ad576040517f00000000000000000000000000000000000000000000000000000000000000006001600160a01b03168152602090f35b346100ad575f3660031901126100ad576040517f00000000000000000000000000000000000000000000000000000000000000006001600160a01b03168152602090f35b346100ad575f3660031901126100ad576040517f00000000000000000000000000000000000000000000000000000000000000006001600160a01b03168152602090f35b346100ad575f3660031901126100ad576040517f00000000000000000000000000000000000000000000000000000000000000006001600160a01b03168152602090f35b346100ad575f3660031901126100ad57602060405162ffffff7f0000000000000000000000000000000000000000000000000000000000000000168152f35b346100ad576101003660031901126100ad57610100810181811067ffffffffffffffff821117610750576040526004356001600160a01b03811681036100ad5781526024356001600160a01b03811681036100ad57602082019081526044356001600160a01b03811681036100ad57604083015260643560608301526084356001600160801b03811681036100ad57608083015260a4356001600160801b03811681036100ad5760a083015260c43561ffff811681036100ad5760c083015260e43580151581036100ad5760e083015260405163e6a4390560e01b81526001600160a01b037f0000000000000000000000000000000000000000000000000000000000000000811660048301527f000000000000000000000000000000000000000000000000000000000000000081166024830152602090829060449082907f0000000000000000000000000000000000000000000000000000000000000000165afa9081156105d5575f91610731575b506001600160a01b031690811561072257604051630240bc6b60e21b8152606081600481865afa9081156105d5575f905f926106c3575b506001600160701b031690811515806106b1575b156106a357604051630dfe168160e01b8152602081600481885afa9081156105d5576004916020915f91610686575b5060405163313ce56760e01b815292839182906001600160a01b03165afa9081156105d5575f91610667575b5060405163d21220a760e01b8152602081600481895afa9081156105d5576004916020915f9161064a575b5060405163313ce56760e01b815292839182906001600160a01b03165afa80156105d55760ff915f9161061b575b5016601201806012116106075761049a60ff6104936001600160701b03936107d2565b93166107d2565b9216828102928184041490151715610607576104b5926107e0565b604051630dfe168160e01b815292602084600481845afa9384156105d5575f946105e0575b509060206004926040519384809263d21220a760e01b82525afa80156105d5576105259461050f935f926105a4575b50610885565b925190516001600160a01b03908116911661096f565b15610574575b60408051602081019283524282820152818152610549606082610764565b8151928391602083525180918160208501528484015e5f828201840152601f01601f19168101030190f35b8015610590576ec097ce7bc90715b34b9f10000000000461052b565b634e487b7160e01b5f52601260045260245ffd5b6105c791925060203d6020116105ce575b6105bf8183610764565b810190610786565b9087610509565b503d6105b5565b6040513d5f823e3d90fd5b6004929194506105fe602091823d84116105ce576105bf8183610764565b949192506104da565b634e487b7160e01b5f52601160045260245ffd5b61063d915060203d602011610643575b6106358183610764565b8101906107b9565b88610470565b503d61062b565b6106619150823d84116105ce576105bf8183610764565b89610442565b610680915060203d602011610643576106358183610764565b86610417565b61069d9150823d84116105ce576105bf8183610764565b886103eb565b626a8eb760e61b5f5260045ffd5b506001600160701b03811615156103bc565b9150506060813d60601161071a575b816106df60609383610764565b810103126100ad576106f0816107a5565b60406106fe602084016107a5565b92015163ffffffff8116036100ad576001600160701b036103a8565b3d91506106d2565b63f3dca29560e01b5f5260045ffd5b61074a915060203d6020116105ce576105bf8183610764565b83610371565b634e487b7160e01b5f52604160045260245ffd5b90601f8019910116810190811067ffffffffffffffff82111761075057604052565b908160209103126100ad57516001600160a01b03811681036100ad5790565b51906001600160701b03821682036100ad57565b908160209103126100ad575160ff811681036100ad5790565b604d811161060757600a0a90565b915f198284099282810292838086109503948086039514610868578483111561085957829109600182190182168092046002816003021880820260020302808202600203028082026002030280820260020302808202600203028091026002030293600183805f03040190848311900302920304170290565b637f39b44d60e01b5f5260045ffd5b505080925015610876570490565b639f93261560e01b5f5260045ffd5b6001600160a01b037f00000000000000000000000000000000000000000000000000000000000000008116911680821480610939575b610933577f00000000000000000000000000000000000000000000000000000000000000006001600160a01b0316149182610920575b50506109065763032f4b3f60e31b5f5260045ffd5b8015610590576ec097ce7bc90715b34b9f10000000000490565b6001600160a01b03161490505f806108f1565b50505090565b506001600160a01b038381167f0000000000000000000000000000000000000000000000000000000000000000909116146108bb565b6001600160a01b03908116907f00000000000000000000000000000000000000000000000000000000000000001681811480610af8575b610aa1577f00000000000000000000000000000000000000000000000000000000000000006001600160a01b031682149081610ae5575b50610adf577f00000000000000000000000000000000000000000000000000000000000000006001600160a01b03169080821480610aa9575b610aa1577f00000000000000000000000000000000000000000000000000000000000000006001600160a01b0316149182610a8e575b5050610a8a5760405162461bcd60e51b815260206004820152601060248201526f3ab739bab83837b93a32b2103830b4b960811b6044820152606490fd5b5f90565b6001600160a01b03161490505f80610a4c565b505050600190565b506001600160a01b038381167f000000000000000000000000000000000000000000000000000000000000000090911614610a16565b50505f90565b6001600160a01b0384161490505f6109dd565b506001600160a01b038381167f0000000000000000000000000000000000000000000000000000000000000000909116146109a656fea264697066735822122000aa4fc73efd184bce76b6bb5d22ffbc9ec7a8ab606e299e822c890fd6f711ec64736f6c634300081e0033","opcodes":"PUSH2 0x140 CALLVALUE PUSH2 0x12B JUMPI PUSH1 0x1F PUSH2 0xCBC CODESIZE DUP2 SWAP1 SUB SWAP2 DUP3 ADD PUSH1 0x1F NOT AND DUP4 ADD SWAP2 PUSH1 0x1 PUSH1 0x1 PUSH1 0x40 SHL SUB DUP4 GT DUP5 DUP5 LT OR PUSH2 0x12F JUMPI DUP1 DUP5 SWAP3 PUSH1 0xA0 SWAP5 PUSH1 0x40 MSTORE DUP4 CODECOPY DUP2 ADD SUB SLT PUSH2 0x12B JUMPI PUSH2 0x48 DUP2 PUSH2 0x143 JUMP JUMPDEST SWAP1 PUSH2 0x55 PUSH1 0x20 DUP3 ADD PUSH2 0x143 JUMP JUMPDEST SWAP1 PUSH2 0x62 PUSH1 0x40 DUP3 ADD PUSH2 0x143 JUMP JUMPDEST PUSH2 0x7A PUSH1 0x80 PUSH2 0x73 PUSH1 0x60 DUP6 ADD PUSH2 0x143 JUMP JUMPDEST SWAP4 ADD PUSH2 0x143 JUMP JUMPDEST SWAP3 PUSH1 0x80 MSTORE PUSH1 0xA0 MSTORE PUSH1 0xC0 MSTORE PUSH1 0xE0 MSTORE PUSH2 0x100 MSTORE PUSH2 0x2A30 PUSH2 0x120 MSTORE PUSH1 0x40 MLOAD PUSH2 0xB64 SWAP1 DUP2 PUSH2 0x158 DUP3 CODECOPY PUSH1 0x80 MLOAD DUP2 DUP2 DUP2 PUSH1 0xC6 ADD MSTORE DUP2 DUP2 PUSH2 0x2E7 ADD MSTORE DUP2 DUP2 PUSH2 0x88F ADD MSTORE PUSH2 0x9E4 ADD MSTORE PUSH1 0xA0 MLOAD DUP2 DUP2 DUP2 PUSH2 0x192 ADD MSTORE DUP2 DUP2 PUSH2 0x30F ADD MSTORE DUP2 DUP2 PUSH2 0x8C1 ADD MSTORE DUP2 DUP2 PUSH2 0x947 ADD MSTORE DUP2 DUP2 PUSH2 0xA1C ADD MSTORE PUSH2 0xAB7 ADD MSTORE PUSH1 0xC0 MLOAD DUP2 DUP2 DUP2 PUSH1 0x7E ADD MSTORE PUSH2 0x97D ADD MSTORE PUSH1 0xE0 MLOAD DUP2 DUP2 DUP2 PUSH2 0x14E ADD MSTORE DUP2 DUP2 PUSH2 0x9AC ADD MSTORE PUSH2 0xB06 ADD MSTORE PUSH2 0x100 MLOAD DUP2 DUP2 DUP2 PUSH2 0x10A ADD MSTORE PUSH2 0x341 ADD MSTORE PUSH2 0x120 MLOAD DUP2 PUSH2 0x1DC ADD MSTORE RETURN JUMPDEST PUSH0 DUP1 REVERT JUMPDEST PUSH4 0x4E487B71 PUSH1 0xE0 SHL PUSH0 MSTORE PUSH1 0x41 PUSH1 0x4 MSTORE PUSH1 0x24 PUSH0 REVERT JUMPDEST MLOAD SWAP1 PUSH1 0x1 PUSH1 0x1 PUSH1 0xA0 SHL SUB DUP3 AND DUP3 SUB PUSH2 0x12B JUMPI JUMP INVALID PUSH1 0x80 DUP1 PUSH1 0x40 MSTORE PUSH1 0x4 CALLDATASIZE LT ISZERO PUSH2 0x12 JUMPI PUSH0 DUP1 REVERT JUMPDEST PUSH0 CALLDATALOAD PUSH1 0xE0 SHR SWAP1 DUP2 PUSH4 0x3BD1104B EQ PUSH2 0x200 JUMPI POP DUP1 PUSH4 0x8107E133 EQ PUSH2 0x1C1 JUMPI DUP1 PUSH4 0xA6B12823 EQ PUSH2 0x17D JUMPI DUP1 PUSH4 0xB24A485B EQ PUSH2 0x139 JUMPI DUP1 PUSH4 0xC45A0155 EQ PUSH2 0xF5 JUMPI DUP1 PUSH4 0xCD852366 EQ PUSH2 0xB1 JUMPI PUSH4 0xDD82B275 EQ PUSH2 0x69 JUMPI PUSH0 DUP1 REVERT JUMPDEST CALLVALUE PUSH2 0xAD JUMPI PUSH0 CALLDATASIZE PUSH1 0x3 NOT ADD SLT PUSH2 0xAD JUMPI PUSH1 0x40 MLOAD PUSH32 0x0 PUSH1 0x1 PUSH1 0x1 PUSH1 0xA0 SHL SUB AND DUP2 MSTORE PUSH1 0x20 SWAP1 RETURN JUMPDEST PUSH0 DUP1 REVERT JUMPDEST CALLVALUE PUSH2 0xAD JUMPI PUSH0 CALLDATASIZE PUSH1 0x3 NOT ADD SLT PUSH2 0xAD JUMPI PUSH1 0x40 MLOAD PUSH32 0x0 PUSH1 0x1 PUSH1 0x1 PUSH1 0xA0 SHL SUB AND DUP2 MSTORE PUSH1 0x20 SWAP1 RETURN JUMPDEST CALLVALUE PUSH2 0xAD JUMPI PUSH0 CALLDATASIZE PUSH1 0x3 NOT ADD SLT PUSH2 0xAD JUMPI PUSH1 0x40 MLOAD PUSH32 0x0 PUSH1 0x1 PUSH1 0x1 PUSH1 0xA0 SHL SUB AND DUP2 MSTORE PUSH1 0x20 SWAP1 RETURN JUMPDEST CALLVALUE PUSH2 0xAD JUMPI PUSH0 CALLDATASIZE PUSH1 0x3 NOT ADD SLT PUSH2 0xAD JUMPI PUSH1 0x40 MLOAD PUSH32 0x0 PUSH1 0x1 PUSH1 0x1 PUSH1 0xA0 SHL SUB AND DUP2 MSTORE PUSH1 0x20 SWAP1 RETURN JUMPDEST CALLVALUE PUSH2 0xAD JUMPI PUSH0 CALLDATASIZE PUSH1 0x3 NOT ADD SLT PUSH2 0xAD JUMPI PUSH1 0x40 MLOAD PUSH32 0x0 PUSH1 0x1 PUSH1 0x1 PUSH1 0xA0 SHL SUB AND DUP2 MSTORE PUSH1 0x20 SWAP1 RETURN JUMPDEST CALLVALUE PUSH2 0xAD JUMPI PUSH0 CALLDATASIZE PUSH1 0x3 NOT ADD SLT PUSH2 0xAD JUMPI PUSH1 0x20 PUSH1 0x40 MLOAD PUSH3 0xFFFFFF PUSH32 0x0 AND DUP2 MSTORE RETURN JUMPDEST CALLVALUE PUSH2 0xAD JUMPI PUSH2 0x100 CALLDATASIZE PUSH1 0x3 NOT ADD SLT PUSH2 0xAD JUMPI PUSH2 0x100 DUP2 ADD DUP2 DUP2 LT PUSH8 0xFFFFFFFFFFFFFFFF DUP3 GT OR PUSH2 0x750 JUMPI PUSH1 0x40 MSTORE PUSH1 0x4 CALLDATALOAD PUSH1 0x1 PUSH1 0x1 PUSH1 0xA0 SHL SUB DUP2 AND DUP2 SUB PUSH2 0xAD JUMPI DUP2 MSTORE PUSH1 0x24 CALLDATALOAD PUSH1 0x1 PUSH1 0x1 PUSH1 0xA0 SHL SUB DUP2 AND DUP2 SUB PUSH2 0xAD JUMPI PUSH1 0x20 DUP3 ADD SWAP1 DUP2 MSTORE PUSH1 0x44 CALLDATALOAD PUSH1 0x1 PUSH1 0x1 PUSH1 0xA0 SHL SUB DUP2 AND DUP2 SUB PUSH2 0xAD JUMPI PUSH1 0x40 DUP4 ADD MSTORE PUSH1 0x64 CALLDATALOAD PUSH1 0x60 DUP4 ADD MSTORE PUSH1 0x84 CALLDATALOAD PUSH1 0x1 PUSH1 0x1 PUSH1 0x80 SHL SUB DUP2 AND DUP2 SUB PUSH2 0xAD JUMPI PUSH1 0x80 DUP4 ADD MSTORE PUSH1 0xA4 CALLDATALOAD PUSH1 0x1 PUSH1 0x1 PUSH1 0x80 SHL SUB DUP2 AND DUP2 SUB PUSH2 0xAD JUMPI PUSH1 0xA0 DUP4 ADD MSTORE PUSH1 0xC4 CALLDATALOAD PUSH2 0xFFFF DUP2 AND DUP2 SUB PUSH2 0xAD JUMPI PUSH1 0xC0 DUP4 ADD MSTORE PUSH1 0xE4 CALLDATALOAD DUP1 ISZERO ISZERO DUP2 SUB PUSH2 0xAD JUMPI PUSH1 0xE0 DUP4 ADD MSTORE PUSH1 0x40 MLOAD PUSH4 0xE6A43905 PUSH1 0xE0 SHL DUP2 MSTORE PUSH1 0x1 PUSH1 0x1 PUSH1 0xA0 SHL SUB PUSH32 0x0 DUP2 AND PUSH1 0x4 DUP4 ADD MSTORE PUSH32 0x0 DUP2 AND PUSH1 0x24 DUP4 ADD MSTORE PUSH1 0x20 SWAP1 DUP3 SWAP1 PUSH1 0x44 SWAP1 DUP3 SWAP1 PUSH32 0x0 AND GAS STATICCALL SWAP1 DUP2 ISZERO PUSH2 0x5D5 JUMPI PUSH0 SWAP2 PUSH2 0x731 JUMPI JUMPDEST POP PUSH1 0x1 PUSH1 0x1 PUSH1 0xA0 SHL SUB AND SWAP1 DUP2 ISZERO PUSH2 0x722 JUMPI PUSH1 0x40 MLOAD PUSH4 0x240BC6B PUSH1 0xE2 SHL DUP2 MSTORE PUSH1 0x60 DUP2 PUSH1 0x4 DUP2 DUP7 GAS STATICCALL SWAP1 DUP2 ISZERO PUSH2 0x5D5 JUMPI PUSH0 SWAP1 PUSH0 SWAP3 PUSH2 0x6C3 JUMPI JUMPDEST POP PUSH1 0x1 PUSH1 0x1 PUSH1 0x70 SHL SUB AND SWAP1 DUP2 ISZERO ISZERO DUP1 PUSH2 0x6B1 JUMPI JUMPDEST ISZERO PUSH2 0x6A3 JUMPI PUSH1 0x40 MLOAD PUSH4 0xDFE1681 PUSH1 0xE0 SHL DUP2 MSTORE PUSH1 0x20 DUP2 PUSH1 0x4 DUP2 DUP9 GAS STATICCALL SWAP1 DUP2 ISZERO PUSH2 0x5D5 JUMPI PUSH1 0x4 SWAP2 PUSH1 0x20 SWAP2 PUSH0 SWAP2 PUSH2 0x686 JUMPI JUMPDEST POP PUSH1 0x40 MLOAD PUSH4 0x313CE567 PUSH1 0xE0 SHL DUP2 MSTORE SWAP3 DUP4 SWAP2 DUP3 SWAP1 PUSH1 0x1 PUSH1 0x1 PUSH1 0xA0 SHL SUB AND GAS STATICCALL SWAP1 DUP2 ISZERO PUSH2 0x5D5 JUMPI PUSH0 SWAP2 PUSH2 0x667 JUMPI JUMPDEST POP PUSH1 0x40 MLOAD PUSH4 0xD21220A7 PUSH1 0xE0 SHL DUP2 MSTORE PUSH1 0x20 DUP2 PUSH1 0x4 DUP2 DUP10 GAS STATICCALL SWAP1 DUP2 ISZERO PUSH2 0x5D5 JUMPI PUSH1 0x4 SWAP2 PUSH1 0x20 SWAP2 PUSH0 SWAP2 PUSH2 0x64A JUMPI JUMPDEST POP PUSH1 0x40 MLOAD PUSH4 0x313CE567 PUSH1 0xE0 SHL DUP2 MSTORE SWAP3 DUP4 SWAP2 DUP3 SWAP1 PUSH1 0x1 PUSH1 0x1 PUSH1 0xA0 SHL SUB AND GAS STATICCALL DUP1 ISZERO PUSH2 0x5D5 JUMPI PUSH1 0xFF SWAP2 PUSH0 SWAP2 PUSH2 0x61B JUMPI JUMPDEST POP AND PUSH1 0x12 ADD DUP1 PUSH1 0x12 GT PUSH2 0x607 JUMPI PUSH2 0x49A PUSH1 0xFF PUSH2 0x493 PUSH1 0x1 PUSH1 0x1 PUSH1 0x70 SHL SUB SWAP4 PUSH2 0x7D2 JUMP JUMPDEST SWAP4 AND PUSH2 0x7D2 JUMP JUMPDEST SWAP3 AND DUP3 DUP2 MUL SWAP3 DUP2 DUP5 DIV EQ SWAP1 ISZERO OR ISZERO PUSH2 0x607 JUMPI PUSH2 0x4B5 SWAP3 PUSH2 0x7E0 JUMP JUMPDEST PUSH1 0x40 MLOAD PUSH4 0xDFE1681 PUSH1 0xE0 SHL DUP2 MSTORE SWAP3 PUSH1 0x20 DUP5 PUSH1 0x4 DUP2 DUP5 GAS STATICCALL SWAP4 DUP5 ISZERO PUSH2 0x5D5 JUMPI PUSH0 SWAP5 PUSH2 0x5E0 JUMPI JUMPDEST POP SWAP1 PUSH1 0x20 PUSH1 0x4 SWAP3 PUSH1 0x40 MLOAD SWAP4 DUP5 DUP1 SWAP3 PUSH4 0xD21220A7 PUSH1 0xE0 SHL DUP3 MSTORE GAS STATICCALL DUP1 ISZERO PUSH2 0x5D5 JUMPI PUSH2 0x525 SWAP5 PUSH2 0x50F SWAP4 PUSH0 SWAP3 PUSH2 0x5A4 JUMPI JUMPDEST POP PUSH2 0x885 JUMP JUMPDEST SWAP3 MLOAD SWAP1 MLOAD PUSH1 0x1 PUSH1 0x1 PUSH1 0xA0 SHL SUB SWAP1 DUP2 AND SWAP2 AND PUSH2 0x96F JUMP JUMPDEST ISZERO PUSH2 0x574 JUMPI JUMPDEST PUSH1 0x40 DUP1 MLOAD PUSH1 0x20 DUP2 ADD SWAP3 DUP4 MSTORE TIMESTAMP DUP3 DUP3 ADD MSTORE DUP2 DUP2 MSTORE PUSH2 0x549 PUSH1 0x60 DUP3 PUSH2 0x764 JUMP JUMPDEST DUP2 MLOAD SWAP3 DUP4 SWAP2 PUSH1 0x20 DUP4 MSTORE MLOAD DUP1 SWAP2 DUP2 PUSH1 0x20 DUP6 ADD MSTORE DUP5 DUP5 ADD MCOPY PUSH0 DUP3 DUP3 ADD DUP5 ADD MSTORE PUSH1 0x1F ADD PUSH1 0x1F NOT AND DUP2 ADD SUB ADD SWAP1 RETURN JUMPDEST DUP1 ISZERO PUSH2 0x590 JUMPI PUSH15 0xC097CE7BC90715B34B9F1000000000 DIV PUSH2 0x52B JUMP JUMPDEST PUSH4 0x4E487B71 PUSH1 0xE0 SHL PUSH0 MSTORE PUSH1 0x12 PUSH1 0x4 MSTORE PUSH1 0x24 PUSH0 REVERT JUMPDEST PUSH2 0x5C7 SWAP2 SWAP3 POP PUSH1 0x20 RETURNDATASIZE PUSH1 0x20 GT PUSH2 0x5CE JUMPI JUMPDEST PUSH2 0x5BF DUP2 DUP4 PUSH2 0x764 JUMP JUMPDEST DUP2 ADD SWAP1 PUSH2 0x786 JUMP JUMPDEST SWAP1 DUP8 PUSH2 0x509 JUMP JUMPDEST POP RETURNDATASIZE PUSH2 0x5B5 JUMP JUMPDEST PUSH1 0x40 MLOAD RETURNDATASIZE PUSH0 DUP3 RETURNDATACOPY RETURNDATASIZE SWAP1 REVERT JUMPDEST PUSH1 0x4 SWAP3 SWAP2 SWAP5 POP PUSH2 0x5FE PUSH1 0x20 SWAP2 DUP3 RETURNDATASIZE DUP5 GT PUSH2 0x5CE JUMPI PUSH2 0x5BF DUP2 DUP4 PUSH2 0x764 JUMP JUMPDEST SWAP5 SWAP2 SWAP3 POP PUSH2 0x4DA JUMP JUMPDEST PUSH4 0x4E487B71 PUSH1 0xE0 SHL PUSH0 MSTORE PUSH1 0x11 PUSH1 0x4 MSTORE PUSH1 0x24 PUSH0 REVERT JUMPDEST PUSH2 0x63D SWAP2 POP PUSH1 0x20 RETURNDATASIZE PUSH1 0x20 GT PUSH2 0x643 JUMPI JUMPDEST PUSH2 0x635 DUP2 DUP4 PUSH2 0x764 JUMP JUMPDEST DUP2 ADD SWAP1 PUSH2 0x7B9 JUMP JUMPDEST DUP9 PUSH2 0x470 JUMP JUMPDEST POP RETURNDATASIZE PUSH2 0x62B JUMP JUMPDEST PUSH2 0x661 SWAP2 POP DUP3 RETURNDATASIZE DUP5 GT PUSH2 0x5CE JUMPI PUSH2 0x5BF DUP2 DUP4 PUSH2 0x764 JUMP JUMPDEST DUP10 PUSH2 0x442 JUMP JUMPDEST PUSH2 0x680 SWAP2 POP PUSH1 0x20 RETURNDATASIZE PUSH1 0x20 GT PUSH2 0x643 JUMPI PUSH2 0x635 DUP2 DUP4 PUSH2 0x764 JUMP JUMPDEST DUP7 PUSH2 0x417 JUMP JUMPDEST PUSH2 0x69D SWAP2 POP DUP3 RETURNDATASIZE DUP5 GT PUSH2 0x5CE JUMPI PUSH2 0x5BF DUP2 DUP4 PUSH2 0x764 JUMP JUMPDEST DUP9 PUSH2 0x3EB JUMP JUMPDEST PUSH3 0x6A8EB7 PUSH1 0xE6 SHL PUSH0 MSTORE PUSH1 0x4 PUSH0 REVERT JUMPDEST POP PUSH1 0x1 PUSH1 0x1 PUSH1 0x70 SHL SUB DUP2 AND ISZERO ISZERO PUSH2 0x3BC JUMP JUMPDEST SWAP2 POP POP PUSH1 0x60 DUP2 RETURNDATASIZE PUSH1 0x60 GT PUSH2 0x71A JUMPI JUMPDEST DUP2 PUSH2 0x6DF PUSH1 0x60 SWAP4 DUP4 PUSH2 0x764 JUMP JUMPDEST DUP2 ADD SUB SLT PUSH2 0xAD JUMPI PUSH2 0x6F0 DUP2 PUSH2 0x7A5 JUMP JUMPDEST PUSH1 0x40 PUSH2 0x6FE PUSH1 0x20 DUP5 ADD PUSH2 0x7A5 JUMP JUMPDEST SWAP3 ADD MLOAD PUSH4 0xFFFFFFFF DUP2 AND SUB PUSH2 0xAD JUMPI PUSH1 0x1 PUSH1 0x1 PUSH1 0x70 SHL SUB PUSH2 0x3A8 JUMP JUMPDEST RETURNDATASIZE SWAP2 POP PUSH2 0x6D2 JUMP JUMPDEST PUSH4 0xF3DCA295 PUSH1 0xE0 SHL PUSH0 MSTORE PUSH1 0x4 PUSH0 REVERT JUMPDEST PUSH2 0x74A SWAP2 POP PUSH1 0x20 RETURNDATASIZE PUSH1 0x20 GT PUSH2 0x5CE JUMPI PUSH2 0x5BF DUP2 DUP4 PUSH2 0x764 JUMP JUMPDEST DUP4 PUSH2 0x371 JUMP JUMPDEST PUSH4 0x4E487B71 PUSH1 0xE0 SHL PUSH0 MSTORE PUSH1 0x41 PUSH1 0x4 MSTORE PUSH1 0x24 PUSH0 REVERT JUMPDEST SWAP1 PUSH1 0x1F DUP1 NOT SWAP2 ADD AND DUP2 ADD SWAP1 DUP2 LT PUSH8 0xFFFFFFFFFFFFFFFF DUP3 GT OR PUSH2 0x750 JUMPI PUSH1 0x40 MSTORE JUMP JUMPDEST SWAP1 DUP2 PUSH1 0x20 SWAP2 SUB SLT PUSH2 0xAD JUMPI MLOAD PUSH1 0x1 PUSH1 0x1 PUSH1 0xA0 SHL SUB DUP2 AND DUP2 SUB PUSH2 0xAD JUMPI SWAP1 JUMP JUMPDEST MLOAD SWAP1 PUSH1 0x1 PUSH1 0x1 PUSH1 0x70 SHL SUB DUP3 AND DUP3 SUB PUSH2 0xAD JUMPI JUMP JUMPDEST SWAP1 DUP2 PUSH1 0x20 SWAP2 SUB SLT PUSH2 0xAD JUMPI MLOAD PUSH1 0xFF DUP2 AND DUP2 SUB PUSH2 0xAD JUMPI SWAP1 JUMP JUMPDEST PUSH1 0x4D DUP2 GT PUSH2 0x607 JUMPI PUSH1 0xA EXP SWAP1 JUMP JUMPDEST SWAP2 PUSH0 NOT DUP3 DUP5 MULMOD SWAP3 DUP3 DUP2 MUL SWAP3 DUP4 DUP1 DUP7 LT SWAP6 SUB SWAP5 DUP1 DUP7 SUB SWAP6 EQ PUSH2 0x868 JUMPI DUP5 DUP4 GT ISZERO PUSH2 0x859 JUMPI DUP3 SWAP2 MULMOD PUSH1 0x1 DUP3 NOT ADD DUP3 AND DUP1 SWAP3 DIV PUSH1 0x2 DUP2 PUSH1 0x3 MUL XOR DUP1 DUP3 MUL PUSH1 0x2 SUB MUL DUP1 DUP3 MUL PUSH1 0x2 SUB MUL DUP1 DUP3 MUL PUSH1 0x2 SUB MUL DUP1 DUP3 MUL PUSH1 0x2 SUB MUL DUP1 DUP3 MUL PUSH1 0x2 SUB MUL DUP1 SWAP2 MUL PUSH1 0x2 SUB MUL SWAP4 PUSH1 0x1 DUP4 DUP1 PUSH0 SUB DIV ADD SWAP1 DUP5 DUP4 GT SWAP1 SUB MUL SWAP3 SUB DIV OR MUL SWAP1 JUMP JUMPDEST PUSH4 0x7F39B44D PUSH1 0xE0 SHL PUSH0 MSTORE PUSH1 0x4 PUSH0 REVERT JUMPDEST POP POP DUP1 SWAP3 POP ISZERO PUSH2 0x876 JUMPI DIV SWAP1 JUMP JUMPDEST PUSH4 0x9F932615 PUSH1 0xE0 SHL PUSH0 MSTORE PUSH1 0x4 PUSH0 REVERT JUMPDEST PUSH1 0x1 PUSH1 0x1 PUSH1 0xA0 SHL SUB PUSH32 0x0 DUP2 AND SWAP2 AND DUP1 DUP3 EQ DUP1 PUSH2 0x939 JUMPI JUMPDEST PUSH2 0x933 JUMPI PUSH32 0x0 PUSH1 0x1 PUSH1 0x1 PUSH1 0xA0 SHL SUB AND EQ SWAP2 DUP3 PUSH2 0x920 JUMPI JUMPDEST POP POP PUSH2 0x906 JUMPI PUSH4 0x32F4B3F PUSH1 0xE3 SHL PUSH0 MSTORE PUSH1 0x4 PUSH0 REVERT JUMPDEST DUP1 ISZERO PUSH2 0x590 JUMPI PUSH15 0xC097CE7BC90715B34B9F1000000000 DIV SWAP1 JUMP JUMPDEST PUSH1 0x1 PUSH1 0x1 PUSH1 0xA0 SHL SUB AND EQ SWAP1 POP PUSH0 DUP1 PUSH2 0x8F1 JUMP JUMPDEST POP POP POP SWAP1 JUMP JUMPDEST POP PUSH1 0x1 PUSH1 0x1 PUSH1 0xA0 SHL SUB DUP4 DUP2 AND PUSH32 0x0 SWAP1 SWAP2 AND EQ PUSH2 0x8BB JUMP JUMPDEST PUSH1 0x1 PUSH1 0x1 PUSH1 0xA0 SHL SUB SWAP1 DUP2 AND SWAP1 PUSH32 0x0 AND DUP2 DUP2 EQ DUP1 PUSH2 0xAF8 JUMPI JUMPDEST PUSH2 0xAA1 JUMPI PUSH32 0x0 PUSH1 0x1 PUSH1 0x1 PUSH1 0xA0 SHL SUB AND DUP3 EQ SWAP1 DUP2 PUSH2 0xAE5 JUMPI JUMPDEST POP PUSH2 0xADF JUMPI PUSH32 0x0 PUSH1 0x1 PUSH1 0x1 PUSH1 0xA0 SHL SUB AND SWAP1 DUP1 DUP3 EQ DUP1 PUSH2 0xAA9 JUMPI JUMPDEST PUSH2 0xAA1 JUMPI PUSH32 0x0 PUSH1 0x1 PUSH1 0x1 PUSH1 0xA0 SHL SUB AND EQ SWAP2 DUP3 PUSH2 0xA8E JUMPI JUMPDEST POP POP PUSH2 0xA8A JUMPI PUSH1 0x40 MLOAD PUSH3 0x461BCD PUSH1 0xE5 SHL DUP2 MSTORE PUSH1 0x20 PUSH1 0x4 DUP3 ADD MSTORE PUSH1 0x10 PUSH1 0x24 DUP3 ADD MSTORE PUSH16 0x3AB739BAB83837B93A32B2103830B4B9 PUSH1 0x81 SHL PUSH1 0x44 DUP3 ADD MSTORE PUSH1 0x64 SWAP1 REVERT JUMPDEST PUSH0 SWAP1 JUMP JUMPDEST PUSH1 0x1 PUSH1 0x1 PUSH1 0xA0 SHL SUB AND EQ SWAP1 POP PUSH0 DUP1 PUSH2 0xA4C JUMP JUMPDEST POP POP POP PUSH1 0x1 SWAP1 JUMP JUMPDEST POP PUSH1 0x1 PUSH1 0x1 PUSH1 0xA0 SHL SUB DUP4 DUP2 AND PUSH32 0x0 SWAP1 SWAP2 AND EQ PUSH2 0xA16 JUMP JUMPDEST POP POP PUSH0 SWAP1 JUMP JUMPDEST PUSH1 0x1 PUSH1 0x1 PUSH1 0xA0 SHL SUB DUP5 AND EQ SWAP1 POP PUSH0 PUSH2 0x9DD JUMP JUMPDEST POP PUSH1 0x1 PUSH1 0x1 PUSH1 0xA0 SHL SUB DUP4 DUP2 AND PUSH32 0x0 SWAP1 SWAP2 AND EQ PUSH2 0x9A6 JUMP INVALID LOG2 PUSH5 0x6970667358 0x22 SLT KECCAK256 STOP 0xAA 0x4F 0xC7 RETURNDATACOPY REVERT XOR 0x4B 0xCE PUSH23 0xB6BB5D22FFBC9EC7A8AB606E299E822C890FD6F711EC64 PUSH20 0x6F6C634300081E00330000000000000000000000 "},"methodIdentifiers":{"canonicalExt0()":"cd852366","canonicalExt1()":"a6b12823","factory()":"c45a0155","getData((address,address,address,uint256,uint128,uint128,uint16,bool))":"3bd1104b","internalAlias0()":"dd82b275","internalAlias1()":"b24a485b","twapWindow()":"8107e133"}}}}}