{"contracts/Core/PoolManager.sol":{"PoolManager":{"abi":[{"inputs":[{"internalType":"address","name":"_defaultMarketData","type":"address"},{"internalType":"address","name":"_unused","type":"address"}],"stateMutability":"nonpayable","type":"constructor"},{"inputs":[{"internalType":"uint256","name":"required","type":"uint256"},{"internalType":"uint256","name":"available","type":"uint256"}],"name":"PoolManager__InsufficientAsset0","type":"error"},{"inputs":[{"internalType":"uint256","name":"required","type":"uint256"},{"internalType":"uint256","name":"available","type":"uint256"}],"name":"PoolManager__InsufficientAsset1","type":"error"},{"inputs":[],"name":"PoolManager__InsufficientLiquidityMinted","type":"error"},{"inputs":[{"internalType":"uint256","name":"minOut","type":"uint256"},{"internalType":"uint256","name":"actual","type":"uint256"}],"name":"PoolManager__InsufficientOutput","type":"error"},{"inputs":[{"internalType":"uint256","name":"amount0","type":"uint256"},{"internalType":"uint256","name":"amount1","type":"uint256"}],"name":"PoolManager__InsufficientWithdrawal","type":"error"},{"inputs":[],"name":"PoolManager__InvalidQuote","type":"error"},{"inputs":[{"internalType":"uint256","name":"poolID","type":"uint256"}],"name":"PoolManager__PoolAlreadyExists","type":"error"},{"anonymous":false,"inputs":[{"indexed":true,"internalType":"address","name":"owner","type":"address"},{"indexed":true,"internalType":"address","name":"spender","type":"address"},{"indexed":true,"internalType":"uint256","name":"id","type":"uint256"},{"indexed":false,"internalType":"uint256","name":"amount","type":"uint256"}],"name":"Approval","type":"event"},{"anonymous":false,"inputs":[{"indexed":true,"internalType":"address","name":"provider","type":"address"},{"indexed":false,"internalType":"bool","name":"hit","type":"bool"}],"name":"MarketDataCache","type":"event"},{"anonymous":false,"inputs":[{"indexed":true,"internalType":"address","name":"owner","type":"address"},{"indexed":true,"internalType":"address","name":"operator","type":"address"},{"indexed":false,"internalType":"bool","name":"approved","type":"bool"}],"name":"OperatorSet","type":"event"},{"anonymous":false,"inputs":[{"indexed":true,"internalType":"uint256","name":"poolID","type":"uint256"},{"indexed":false,"internalType":"address","name":"asset0","type":"address"},{"indexed":false,"internalType":"address","name":"asset1","type":"address"},{"indexed":false,"internalType":"address","name":"quoter","type":"address"},{"indexed":false,"internalType":"bytes3","name":"markings","type":"bytes3"}],"name":"PoolCreated","type":"event"},{"anonymous":false,"inputs":[{"indexed":false,"internalType":"address","name":"caller","type":"address"},{"indexed":true,"internalType":"address","name":"from","type":"address"},{"indexed":true,"internalType":"address","name":"to","type":"address"},{"indexed":true,"internalType":"uint256","name":"id","type":"uint256"},{"indexed":false,"internalType":"uint256","name":"amount","type":"uint256"}],"name":"Transfer","type":"event"},{"inputs":[{"internalType":"bytes","name":"data","type":"bytes"}],"name":"_decodeTwoBytes","outputs":[{"internalType":"bytes","name":"a","type":"bytes"},{"internalType":"bytes","name":"b","type":"bytes"}],"stateMutability":"pure","type":"function"},{"inputs":[{"internalType":"address","name":"asset0","type":"address"},{"internalType":"address","name":"asset1","type":"address"},{"internalType":"address","name":"quoter","type":"address"},{"internalType":"bytes3","name":"markings","type":"bytes3"},{"internalType":"uint256","name":"amount0","type":"uint256"},{"internalType":"uint256","name":"amount1","type":"uint256"}],"name":"addLiquidity","outputs":[{"internalType":"uint256","name":"liquidity","type":"uint256"}],"stateMutability":"payable","type":"function"},{"inputs":[{"internalType":"uint16","name":"pointer","type":"uint16"},{"internalType":"address","name":"marketAddress","type":"address"}],"name":"addMarketAddress","outputs":[],"stateMutability":"nonpayable","type":"function"},{"inputs":[{"internalType":"address","name":"owner","type":"address"},{"internalType":"address","name":"spender","type":"address"},{"internalType":"uint256","name":"id","type":"uint256"}],"name":"allowance","outputs":[{"internalType":"uint256","name":"","type":"uint256"}],"stateMutability":"view","type":"function"},{"inputs":[{"internalType":"address","name":"spender","type":"address"},{"internalType":"uint256","name":"id","type":"uint256"},{"internalType":"uint256","name":"amount","type":"uint256"}],"name":"approve","outputs":[{"internalType":"bool","name":"","type":"bool"}],"stateMutability":"nonpayable","type":"function"},{"inputs":[{"internalType":"address","name":"owner","type":"address"},{"internalType":"uint256","name":"id","type":"uint256"}],"name":"balanceOf","outputs":[{"internalType":"uint256","name":"","type":"uint256"}],"stateMutability":"view","type":"function"},{"inputs":[{"components":[{"internalType":"address","name":"asset0","type":"address"},{"internalType":"address","name":"asset1","type":"address"},{"internalType":"address","name":"quoter","type":"address"},{"internalType":"bytes3[]","name":"markings","type":"bytes3[]"},{"internalType":"uint256[]","name":"amounts","type":"uint256[]"},{"internalType":"bool","name":"zeroForOne","type":"bool"}],"internalType":"struct Hop[]","name":"hops","type":"tuple[]"},{"internalType":"uint256","name":"amountIn","type":"uint256"},{"internalType":"uint256","name":"minAmountOut","type":"uint256"}],"name":"batchSwap","outputs":[{"internalType":"uint256","name":"amountOut","type":"uint256"}],"stateMutability":"payable","type":"function"},{"inputs":[{"internalType":"address","name":"asset0","type":"address"},{"internalType":"address","name":"asset1","type":"address"},{"internalType":"address","name":"quoter","type":"address"},{"internalType":"bytes3","name":"markings","type":"bytes3"}],"name":"createPool","outputs":[{"internalType":"uint256","name":"poolID","type":"uint256"}],"stateMutability":"nonpayable","type":"function"},{"inputs":[],"name":"defaultMarketData","outputs":[{"internalType":"address","name":"","type":"address"}],"stateMutability":"view","type":"function"},{"inputs":[{"internalType":"address","name":"callback","type":"address"},{"internalType":"bytes","name":"data","type":"bytes"},{"internalType":"address[]","name":"tokens","type":"address[]"}],"name":"flashSession","outputs":[],"stateMutability":"payable","type":"function"},{"inputs":[{"internalType":"address","name":"callback","type":"address"},{"internalType":"bytes","name":"data","type":"bytes"},{"internalType":"address[]","name":"tokens","type":"address[]"}],"name":"flashSessionWithReturn","outputs":[{"internalType":"int256[]","name":"deltas","type":"int256[]"}],"stateMutability":"payable","type":"function"},{"inputs":[{"internalType":"uint256","name":"poolId","type":"uint256"}],"name":"getInventory","outputs":[{"internalType":"uint128","name":"asset0","type":"uint128"},{"internalType":"uint128","name":"asset1","type":"uint128"}],"stateMutability":"view","type":"function"},{"inputs":[{"internalType":"uint16","name":"pointer","type":"uint16"}],"name":"getMarketAddress","outputs":[{"internalType":"address","name":"marketAddress","type":"address"}],"stateMutability":"view","type":"function"},{"inputs":[{"internalType":"uint256","name":"poolID","type":"uint256"}],"name":"getPoolInfo","outputs":[{"internalType":"address","name":"asset0","type":"address"},{"internalType":"address","name":"asset1","type":"address"},{"internalType":"address","name":"quoter","type":"address"},{"internalType":"bytes3","name":"markings","type":"bytes3"}],"stateMutability":"view","type":"function"},{"inputs":[{"components":[{"internalType":"address","name":"asset0","type":"address"},{"internalType":"address","name":"asset1","type":"address"},{"internalType":"address","name":"quoter","type":"address"},{"internalType":"uint256[]","name":"amount","type":"uint256[]"},{"internalType":"bool","name":"zeroForOne","type":"bool"},{"internalType":"bytes3[]","name":"marking","type":"bytes3[]"}],"internalType":"struct SwapParams","name":"p","type":"tuple"},{"internalType":"uint128","name":"asset0Balance","type":"uint128"},{"internalType":"uint128","name":"asset1Balance","type":"uint128"}],"name":"getQuote","outputs":[{"internalType":"uint256","name":"quote","type":"uint256"},{"internalType":"uint256","name":"poolID","type":"uint256"}],"stateMutability":"nonpayable","type":"function"},{"inputs":[{"components":[{"internalType":"address","name":"asset0","type":"address"},{"internalType":"address","name":"asset1","type":"address"},{"internalType":"address","name":"quoter","type":"address"},{"internalType":"uint256[]","name":"amount","type":"uint256[]"},{"internalType":"bool","name":"zeroForOne","type":"bool"},{"internalType":"bytes3[]","name":"marking","type":"bytes3[]"}],"internalType":"struct SwapParams","name":"p","type":"tuple"},{"internalType":"uint128[]","name":"asset0Balances","type":"uint128[]"},{"internalType":"uint128[]","name":"asset1Balances","type":"uint128[]"}],"name":"getQuoteBatch","outputs":[{"internalType":"uint256[]","name":"quote","type":"uint256[]"},{"internalType":"uint256[]","name":"poolID","type":"uint256[]"}],"stateMutability":"nonpayable","type":"function"},{"inputs":[{"internalType":"address","name":"user","type":"address"},{"internalType":"address[]","name":"tokens","type":"address[]"}],"name":"getUserDeltas","outputs":[{"internalType":"int256[]","name":"deltas","type":"int256[]"}],"stateMutability":"view","type":"function"},{"inputs":[{"internalType":"address","name":"owner","type":"address"},{"internalType":"address","name":"spender","type":"address"}],"name":"isOperator","outputs":[{"internalType":"bool","name":"","type":"bool"}],"stateMutability":"view","type":"function"},{"inputs":[],"name":"legacyDefaultBeta","outputs":[{"internalType":"address","name":"","type":"address"}],"stateMutability":"view","type":"function"},{"inputs":[{"internalType":"address","name":"asset0","type":"address"},{"internalType":"address","name":"asset1","type":"address"},{"internalType":"address","name":"quoter","type":"address"},{"internalType":"bytes3","name":"markings","type":"bytes3"},{"internalType":"uint256","name":"liquidity","type":"uint256"}],"name":"removeLiquidity","outputs":[{"internalType":"uint256","name":"amount0","type":"uint256"},{"internalType":"uint256","name":"amount1","type":"uint256"}],"stateMutability":"nonpayable","type":"function"},{"inputs":[{"internalType":"uint16","name":"pointer","type":"uint16"}],"name":"removeMarketAddress","outputs":[],"stateMutability":"nonpayable","type":"function"},{"inputs":[{"components":[{"internalType":"address","name":"asset0","type":"address"},{"internalType":"address","name":"asset1","type":"address"},{"internalType":"address","name":"quoter","type":"address"},{"internalType":"uint256[]","name":"amount","type":"uint256[]"},{"internalType":"bool","name":"zeroForOne","type":"bool"},{"internalType":"bytes3[]","name":"marking","type":"bytes3[]"}],"internalType":"struct SwapParams","name":"p","type":"tuple"},{"internalType":"uint128","name":"asset0Balance","type":"uint128"},{"internalType":"uint128","name":"asset1Balance","type":"uint128"}],"name":"routerGetQuote","outputs":[{"internalType":"uint256","name":"quote","type":"uint256"},{"internalType":"uint256","name":"poolID","type":"uint256"}],"stateMutability":"nonpayable","type":"function"},{"inputs":[{"components":[{"internalType":"address","name":"asset0","type":"address"},{"internalType":"address","name":"asset1","type":"address"},{"internalType":"address","name":"quoter","type":"address"},{"internalType":"uint256[]","name":"amount","type":"uint256[]"},{"internalType":"bool","name":"zeroForOne","type":"bool"},{"internalType":"bytes3[]","name":"marking","type":"bytes3[]"}],"internalType":"struct SwapParams","name":"p","type":"tuple"},{"internalType":"uint128[]","name":"asset0Balances","type":"uint128[]"},{"internalType":"uint128[]","name":"asset1Balances","type":"uint128[]"}],"name":"routerGetQuoteBatch","outputs":[{"internalType":"uint256[]","name":"quote","type":"uint256[]"},{"internalType":"uint256[]","name":"poolID","type":"uint256[]"}],"stateMutability":"nonpayable","type":"function"},{"inputs":[{"internalType":"address","name":"operator","type":"address"},{"internalType":"bool","name":"approved","type":"bool"}],"name":"setOperator","outputs":[{"internalType":"bool","name":"","type":"bool"}],"stateMutability":"nonpayable","type":"function"},{"inputs":[{"internalType":"bytes4","name":"interfaceId","type":"bytes4"}],"name":"supportsInterface","outputs":[{"internalType":"bool","name":"","type":"bool"}],"stateMutability":"view","type":"function"},{"inputs":[{"internalType":"address","name":"asset0","type":"address"},{"internalType":"address","name":"asset1","type":"address"},{"internalType":"address","name":"quoter","type":"address"},{"internalType":"bytes3","name":"markings","type":"bytes3"},{"internalType":"uint256","name":"amountIn","type":"uint256"},{"internalType":"bool","name":"zeroForOne","type":"bool"},{"internalType":"uint256","name":"minAmountOut","type":"uint256"}],"name":"swap","outputs":[{"internalType":"uint256","name":"amountOut","type":"uint256"}],"stateMutability":"payable","type":"function"},{"inputs":[{"internalType":"uint256","name":"poolID","type":"uint256"}],"name":"totalLiquidity","outputs":[{"internalType":"uint256","name":"","type":"uint256"}],"stateMutability":"view","type":"function"},{"inputs":[{"internalType":"address","name":"receiver","type":"address"},{"internalType":"uint256","name":"id","type":"uint256"},{"internalType":"uint256","name":"amount","type":"uint256"}],"name":"transfer","outputs":[{"internalType":"bool","name":"","type":"bool"}],"stateMutability":"nonpayable","type":"function"},{"inputs":[{"internalType":"address","name":"sender","type":"address"},{"internalType":"address","name":"receiver","type":"address"},{"internalType":"uint256","name":"id","type":"uint256"},{"internalType":"uint256","name":"amount","type":"uint256"}],"name":"transferFrom","outputs":[{"internalType":"bool","name":"","type":"bool"}],"stateMutability":"nonpayable","type":"function"}],"evm":{"bytecode":{"linkReferences":{},"object":"60c03461009657601f61427a38819003918201601f19168301916001600160401b0383118484101761009a57808492604094855283398101031261009657610052602061004b836100ae565b92016100ae565b9060805260a0526040516141b790816100c38239608051818181610f8001528181612209015281816123830152818161279001526128db015260a05181610c420152f35b5f80fd5b634e487b7160e01b5f52604160045260245ffd5b51906001600160a01b03821682036100965756fe60806040526004361015610011575f80fd5b5f3560e01c8062fdd58e146101d957806301ffc9a7146101d457806304f71ef614610175578063095bcdb6146101cf57806319a8e9b4146101ca5780632f380b35146101c5578063314e2321146101c0578063426a8493146101bb578063558a7297146101b65780635670f55a146101b1578063583a5570146101ac578063598af9e7146101a75780635b298d32146101a25780635dfb78af1461019d57806360a80dbb1461018e5780636634ce7a1461019857806376023539146101935780638f1552911461018e578063927f010e146101895780639d2ec6e414610184578063b5e60c3c1461017f578063b6363cf21461017a578063c279171d14610175578063cb1f2f3814610170578063d92bc84c1461016b578063e513315b14610166578063ea157acf14610161578063f9158ee51461015c5763fe99049a14610157575f80fd5b611b13565b611a92565b61195e565b6116cb565b61145f565b6111ed565b610605565b61118a565b611160565b610faf565b610f6b565b610ecd565b610f30565b610ef6565b610dac565b610cde565b610c71565b610c2d565b610a1b565b61097f565b6108fe565b6108a9565b610759565b610703565b610653565b610249565b610200565b6001600160a01b038116036101ef57565b5f80fd5b35906101fe826101de565b565b346101ef5760403660031901126101ef5760043561021d816101de565b6024359060018060a01b03165f52600160205260405f20905f52602052602060405f2054604051908152f35b346101ef5760203660031901126101ef5760043563ffffffff60e01b81168091036101ef576020906301ffc9a760e01b811490811561028e575b506040519015158152f35b630f632fb360e01b1490505f610283565b634e487b7160e01b5f52604160045260245ffd5b608081019081106001600160401b038211176102ce57604052565b61029f565b90601f801991011681019081106001600160401b038211176102ce57604052565b604051906101fe60c0836102d3565b604051906101fe6080836102d3565b604051906101fe610100836102d3565b6001600160401b0381116102ce5760051b60200190565b92919061034581610322565b9361035360405195866102d3565b602085838152019160051b81019283116101ef57905b82821061037557505050565b8135815260209182019101610369565b9080601f830112156101ef578160206103a093359101610339565b90565b801515036101ef57565b35906101fe826103a3565b6001600160e81b03198116036101ef57565b9291906103d681610322565b936103e460405195866102d3565b602085838152019160051b81019283116101ef57905b82821061040657505050565b602080918335610415816103b8565b8152019101906103fa565b9080601f830112156101ef578160206103a0933591016103ca565b91909160c0818403126101ef576104506102f4565b9261045a826101f3565b8452610468602083016101f3565b6020850152610479604083016101f3565b604085015260608201356001600160401b0381116101ef578161049d918401610385565b60608501526104ae608083016103ad565b608085015260a08201356001600160401b0381116101ef576104d09201610420565b60a0830152565b9080601f830112156101ef578135906104ef82610322565b926104fd60405194856102d3565b82845260208085019360051b8201019182116101ef57602001915b8183106105255750505090565b82356001600160801b03811681036101ef57815260209283019201610518565b60606003198201126101ef576004356001600160401b0381116101ef578161056f9160040161043b565b916024356001600160401b0381116101ef578261058e916004016104d7565b91604435906001600160401b0382116101ef576103a0916004016104d7565b90602080835192838152019201905f5b8181106105ca5750505090565b82518452602093840193909201916001016105bd565b90916105f76103a0936040845260408401906105ad565b9160208184039101526105ad565b346101ef5761061c61061636610545565b91611fd5565b9061062c604051928392836105e0565b0390f35b60609060031901126101ef57600435610648816101de565b906024359060443590565b346101ef5761066136610630565b9091335f52600160205260405f20835f5260205260405f208054908382039182116106ed575560018060a01b031690815f5260016020526106ad8360405f20905f5260205260405f2090565b6106b8828254612488565b9055604080513380825260208201939093525f5160206141625f395f51905f5291819081015b0390a460405160018152602090f35b612459565b6004359061ffff821682036101ef57565b346101ef5760403660031901126101ef5761075761071f6106f2565b61ffff6024359161072f836101de565b165f52600360205260405f209060018060a01b03166001600160601b0360a01b825416179055565b005b346101ef5760203660031901126101ef57600435610775612b3d565b505f52600660205260405f206040519061078e826102b3565b80546001600160a01b0390811680845260018301548216602085018190526002909301549182166040850181905260489290921b6001600160e81b031916606094909401849052909261062c91610805906107f7906107ea9081565b956001600160a01b031690565b916001600160e81b03191690565b604080516001600160a01b039586168152958516602087015291909316908401526001600160e81b0319909116606083015281906080820190565b9181601f840112156101ef578235916001600160401b0383116101ef576020808501948460051b0101116101ef57565b60206040818301928281528451809452019201905f5b8181106108935750505090565b8251845260209384019390920191600101610886565b346101ef5760403660031901126101ef576004356108c6816101de565b6024356001600160401b0381116101ef5761062c916108ec6108f2923690600401610840565b916124b8565b60405191829182610870565b346101ef5761090c36610630565b9091335f5260026020526109338160405f209060018060a01b03165f5260205260405f2090565b835f526020528160405f205560405191825260018060a01b0316907fb3fd5071835887567a0671151121894ddccc2842f1d10bedad13e0d17cace9a760203392a4602060405160018152f35b346101ef5760403660031901126101ef5760043561099c816101de565b602435906109a9826103a3565b335f908152602081815260408083206001600160a01b038516845290915290209115159160ff1981541660ff841617905560405191825260018060a01b0316907fceb576d9f15e4e200fdb5096d64d5dfd667e16def20c1eefd14256d8e3faa26760203392a360405160018152602090f35b346101ef5760803660031901126101ef57600435610a38816101de565b602435610a44816101de565b60443591610a51836101de565b60643591610a5e836103b8565b610a6e610a69612da0565b612de3565b610a7a83858385612bac565b9260018060a01b03610aa76002610a99875f52600660205260405f2090565b01546001600160a01b031690565b16610c195761062c9484937f68df9a4eb7aacbe8f43763bfbc9f7ca135a5397190ea1cce2558db52dc2f36929391929091906001600160a01b038083169084161015610c0e57610bf191935b610bb5610afe610303565b6001600160a01b03861681526001600160a01b03871660208201526001600160a01b03831660408201526001600160e81b031984166060820152610b4a895f52600660205260405f2090565b815181546001600160a01b03199081166001600160a01b039283161783556020840151600184018054909216908316179055604083015160029092018054606090940151929091166001600160b81b03199093169290921760489190911c62ffffff60a01b16179055565b604080516001600160a01b03958616815295851660208701529316928401929092526001600160e81b0319909116606083015281906080820190565b0390a25f610bfd612da0565b5d6040519081529081906020820190565b610bf1919293610af3565b63e1ecc13360e01b5f52600484905260245ffd5b346101ef575f3660031901126101ef576040517f00000000000000000000000000000000000000000000000000000000000000006001600160a01b03168152602090f35b346101ef5760603660031901126101ef57600435610c8e816101de565b610cc9602435610c9d816101de565b6044359260018060a01b03165f52600260205260405f209060018060a01b03165f5260205260405f2090565b905f52602052602060405f2054604051908152f35b346101ef5760203660031901126101ef5760406001600160801b03610d1d6004355f52600560205260405f2054906001600160801b0382169160801c90565b835191831682529091166020820152f35b9060606003198301126101ef57600435610d47816101de565b91602435916001600160401b0383116101ef57816023840112156101ef578260040135926001600160401b0384116101ef5782602485830101116101ef576024019291604435906001600160401b0382116101ef57610da891600401610840565b9091565b610db536610d2e565b9391610dbf612def565b92610dc984612de3565b6001610dd533306135d5565b5d610ddf33612e58565b6001600160a01b031693843b156101ef57604051631c6e724760e31b8152915f918391610e0f916004840161252e565b95818381819903925af18015610e7357610e55575b508293610e37610e3d9234923691612555565b33612f36565b610e45612fce565b5f610e5033306135d5565b5d5d80f35b610e3d91935093610e695f610e37966102d3565b5f93915093610e24565b611f2c565b60606003198201126101ef57600435906001600160401b0382116101ef57610ea29160040161043b565b906024356001600160801b03811681036101ef57906044356001600160801b03811681036101ef5790565b346101ef57610ee4610ede36610e78565b91612653565b60408051928352602083019190915290f35b346101ef5760203660031901126101ef5761ffff610f126106f2565b165f90815260036020526040902080546001600160a01b0319169055005b346101ef5760203660031901126101ef5761ffff610f4c6106f2565b165f526003602052602060018060a01b0360405f205416604051908152f35b346101ef575f3660031901126101ef576040517f00000000000000000000000000000000000000000000000000000000000000006001600160a01b03168152602090f35b60603660031901126101ef576004356001600160401b0381116101ef57610fda903690600401610840565b60443591602435610fec610a69612da0565b610ff4613020565b906001600160a01b03821615611158575b611012849394151561306a565b925f925f915f915b80831061107f57506110389150611033905083306135d5565b5c1590565b61106c575b5050508181106110545761062c905f610bfd612da0565b63d438755d60e01b5f5260049190915260245260445ffd5b611077923492613226565b5f808061103d565b90919561108d8783856130a0565b908715809161109b8561246d565b8a149261111b575b90829188936110d8575b916110c8939160019593815f146110d15734905b30956138a7565b9601919061101a565b5f906110c1565b96509183916110c8936110ef60a0600197016130c2565b1561110d57611100602085016124ae565b98919395509193506110ad565b611116846124ae565b611100565b8298509087929161112e60a086016130c2565b156111475761113c856124ae565b9950909192506110a3565b611153602086016124ae565b61113c565b339150611005565b346101ef5760203660031901126101ef576004355f526004602052602060405f2054604051908152f35b346101ef5760403660031901126101ef57602060ff6111e16004356111ae816101de565b602435906111bb826101de565b60018060a01b03165f525f845260405f209060018060a01b03165f5260205260405f2090565b54166040519015158152f35b346101ef5760a03660031901126101ef5760043561120a816101de565b6001600160801b0360243561121e816101de565b6044359261122b846101de565b61125b60643561123a816103b8565b60843595611249610a69612da0565b611254871515612984565b8484612bac565b936112e46112d2856112ca6112b161128b8a5f52600560205260405f2054906001600160801b0382169160801c90565b99906112aa6112a28d5f52600460205260405f2090565b5415156129d0565b1686612a5b565b6112c38a5f52600460205260405f2090565b5490612a6e565b961683612a5b565b6112c3875f52600460205260405f2090565b94841580611457575b61143e576112f9613020565b906001600160a01b03821615611436575b8261131a839483611369956130cc565b61133761132f835f52600460205260405f2090565b91825461247b565b905561134e6001600160801b038716600f0b612a8c565b6113636001600160801b038916600f0b612a8c565b9161314b565b6001600160a01b0383811690831610916113aa90831561142a576113a3869588925b86156114235780965b1561141b5750955b85856131a1565b84836131a1565b6113b761103382306135d5565b6113da575b5050505f6113c8612da0565b5d604080519182526020820192909252f35b61140e611413936114056113ec612aac565b946113f686611d29565b6001600160a01b039091169052565b6113f684611d3b565b612ea1565b5f80806113bc565b90509561139c565b8196611394565b6113a38795879261138b565b33915061130a565b63d5de620560e01b5f526004859052602486905260445ffd5b5085156112ed565b60e03660031901126101ef57600435611477816101de565b60243590611484826101de565b60443590611491826101de565b60643561149d816103b8565b60843560a435926114ad846103a3565b60c435926114bc610a69612da0565b6114c4613020565b936001600160a01b038516156116c3575b6114e182888a86612bac565b9188611505845f52600560205260405f2054906001600160801b0382169160801c90565b999080938b9289611514611cc1565b61151c611cc1565b926115256102f4565b6001600160a01b038d168152976001600160a01b031660208901526001600160a01b03166040880152606087019081528d1515608088015260a087019283525161156e90611d29565b525161157990611d29565b6001600160e81b0319909116905261159092612653565b509788156116b4578888916115a4936131b4565b80871061169d575061062c9661161d9261161692611601906001600160a01b03808516908416101561169657885b801561167b576001600160801b038816600f0b905b15611668576113636001600160801b038c16600f0b612a8c565b86156116615780965b15611659575092612ace565b84846131a1565b6116288482846131a1565b61163561103383306135d5565b611646575b5050505f610bfd612da0565b611651923492613226565b5f808061163a565b905092612ace565b819661160a565b6001600160801b038816600f0b9161314b565b6116906001600160801b038c16600f0b612a8c565b906115e7565b88156115d2565b63d438755d60e01b5f52600452602486905260445ffd5b6314033f2160e11b5f5260045ffd5b3394506114d5565b60c03660031901126101ef576004356116e3816101de565b6024356116ef816101de565b604435916116fc836101de565b606435611708816103b8565b60a4359260843561171a610a69612da0565b61172683878487612bac565b6001600160a01b03838116908616109490919085156119585792945b156119525794925b5f828152600560205260409020546001600160801b0381169060801c91909761177b845f52600460205260405f2090565b5461189957505061062c96826117b89288151580611890575b61179d90612ade565b6117af876117aa8b612a13565b612a6e565b925b878a613393565b946117c1613020565b936001600160a01b03851615611888575b816001600160801b0380611819936117f76117f06118329897612ace565b898b6131a1565b61180a61180382612ace565b8b8b6131a1565b16600f0b9116600f0b8361314b565b611824868286613460565b5f52600460205260405f2090565b61183d858254612488565b905561184c61103383306135d5565b61185c575050505f610bfd612da0565b6118816116519361187861186e612aac565b936113f685611d29565b6113f683611d3b565b3491612f36565b3394506117d2565b50861515611794565b888561193661193b946119268b670de0b6b3a764000061191f8a986119066118bf611cc1565b916118f66118cb611cc1565b966118e66118d76102f4565b6001600160a01b03909d168d52565b6001600160a01b031660208c0152565b6001600160a01b031660408a0152565b606088018190525f608089015260a08801938452611d29565b5251611d29565b6001600160e81b03199091169052565b612653565b509687156116b457826117b89261062c99926117b1565b9261174a565b94611742565b61196736610d2e565b5f949391929491611976612def565b9461198086612de3565b600161198c33306135d5565b5d61199633612e58565b6001600160a01b031695863b156101ef576119ca965f9283604051809a81958294631c6e724760e31b84526004840161252e565b03925af1948515610e735761062c95611a18575b506119f991926119f334610e37368585612555565b336124b8565b91611a02612fce565b611a0b33613012565b5d60405191829182610870565b6119f992505f611a27916102d3565b5f916119de565b6001600160401b0381116102ce57601f01601f191660200190565b805180835260209291819084018484015e5f828201840152601f01601f1916010190565b9091611a846103a093604084526040840190611a49565b916020818403910152611a49565b346101ef5760203660031901126101ef576004356001600160401b0381116101ef57366023820112156101ef578060040135611acd81611a2e565b90611adb60405192836102d3565b80825236602482850101116101ef576020815f926024611b0396018386013783010152612b2a565b9061062c60405192839283611a6d565b346101ef5760803660031901126101ef57600435611b30816101de565b602435611b3c816101de565b604435915f5160206141625f395f51905f526106de606435936001600160a01b03841693611b9e908790611b91903388141580611c8d575b611bfd576001600160a01b03165f90815260016020526040902090565b905f5260205260405f2090565b611ba986825461247b565b90556001600160a01b0381165f908152600160205260409020611bcd908790611b91565b611bd8868254612488565b90556040805133815260208101969096526001600160a01b0390911694918291820190565b611c3483611b9133611c1f8560018060a01b03165f52600260205260405f2090565b9060018060a01b03165f5260205260405f2090565b548960018201611c5a575b50506001600160a01b03165f90815260016020526040902090565b611c639161247b565b611c8584611b9133611c1f8660018060a01b03165f52600260205260405f2090565b555f89611c3f565b50611cbc611cb8611cb133611c1f8560018060a01b03165f525f60205260405f2090565b5460ff1690565b1590565b611b74565b60408051909190611cd283826102d3565b6001815291601f1901366020840137565b90611ced82610322565b611cfa60405191826102d3565b8281528092611d0b601f1991610322565b0190602036910137565b634e487b7160e01b5f52603260045260245ffd5b805115611d365760200190565b611d15565b805160011015611d365760400190565b8051821015611d365760209160051b010190565b60405190611d6e6020836102d3565b5f8252565b9080601f830112156101ef578151611d8a81610322565b92611d9860405194856102d3565b81845260208085019260051b8201019283116101ef57602001905b828210611dc05750505090565b8151815260209182019101611db3565b906020828203126101ef5781516001600160401b0381116101ef576103a09201611d73565b90602080835192838152019201905f5b818110611e125750505090565b82516001600160801b0316845260209384019390920191600101611e05565b90602080835192838152019201905f5b818110611e4e5750505090565b825161ffff16845260209384019390920191600101611e41565b604080825282516001600160a01b0316908201526103a0929060208301516001600160a01b0316606082015260408301516001600160a01b03166080820152611f1f60e0611f12611efb611ee6611ed0606089015161010060a08901526101408801906105ad565b6080890151878203603f190160c0890152611df5565b60a0880151868203603f190185880152611df5565b60c0870151858203603f1901610100870152611e31565b9401511515610120830152565b6020818403910152611a49565b6040513d5f823e3d90fd5b81601f820112156101ef57805190611f4e82611a2e565b92611f5c60405194856102d3565b828452602083830101116101ef57815f9260208093018386015e8301015290565b9190916040818403126101ef5780516001600160401b0381116101ef5783611fa6918301611f37565b9260208201516001600160401b0381116101ef576103a09201611f37565b9060206103a0928181520190611a49565b91909160a0810192611fe8845151611ce3565b94611ff4855151611ce3565b50612000855151611ce3565b9361202461201f6120118851611d29565b516001600160e81b03191690565b612b61565b5f5b875180518210156120aa57906120a461209160606120888a8e6120828761207c6120556120118360019d611d4b565b85516020870151604090970151919687926001600160a01b03908116929181169116612bac565b92611d4b565b52612b61565b015161ffff1690565b61209b838b611d4b565b9061ffff169052565b01612026565b505084519297965090949290916001600160a01b03166020850180519195909490916001600160a01b03166040830180519098919291906001600160a01b03169460608501516080860196875161210090151590565b95612109610312565b6001600160a01b03909c168c526001600160a01b031660208c01526001600160a01b031660408b015260608a0152608089015260a088015260c0870152151560e08601526020830151156123e057925f94926121fc61223d936121d961218a61217c6122bc9b995160018060a01b031690565b95516001600160a01b031690565b885192511515926001600160a01b0316906121c9906121b96121aa610312565b6001600160a01b039099168952565b6001600160a01b03166020880152565b6001600160a01b03166040860152565b8760608501528760808501528760a08501528760c085015260e084019015159052565b8051151586146123a757507f00000000000000000000000000000000000000000000000000000000000000005b6001600160a01b0381161561238057612c5a565b80511584146122f0575061229f612293612293612258611d5f565b612284612263611d5f565b9161227660405193849260208401611a6d565b03601f1981018352826102d3565b945b516001600160a01b031690565b6001600160a01b031690565b908360405180968195829462db90d160e81b845260048401611e68565b03925af1908115610e73575f916122d1575091565b6122ed91503d805f833e6122e581836102d3565b810190611dd0565b91565b61229361229361229f9260405163f9158ee560e01b81528781806123178560048301611fc4565b0381305afa908189918a9361235a575b5015891461234257505061233c612263611d5f565b94612286565b61233c91925061227660405193849260208401611a6d565b90925061237991503d808b833e61237181836102d3565b810190611f7d565b915f612327565b507f0000000000000000000000000000000000000000000000000000000000000000612c5a565b6123ce6123bc60406123db93015161ffff1690565b61ffff165f52600360205260405f2090565b546001600160a01b031690565b612229565b5050505061242b915f9161229f6122936122936123fe989798611d5f565b9461228661240a611d5f565b9661241d60405198899260208401611a6d565b03601f1981018852876102d3565b03925af1908115610e73575f9161244157509190565b61245591503d805f833e6122e581836102d3565b9190565b634e487b7160e01b5f52601160045260245ffd5b5f198101919082116106ed57565b919082039182116106ed57565b919082018092116106ed57565b9015611d365790565b9190811015611d365760051b0190565b356103a0816101de565b9291926124c484610322565b906124d260405192836102d3565b848252601f196124e186610322565b0136602084013781945f5b8181106124fa575050505050565b8061251c61250b600193858961249e565b35612515816101de565b8530613560565b5c6125278287611d4b565b52016124ec565b90918060409360208452816020850152848401375f828201840152601f01601f1916010190565b92919061256181610322565b9361256f60405195866102d3565b602085838152019160051b81019283116101ef57905b82821061259157505050565b6020809183356125a0816101de565b815201910190612585565b908160209103126101ef575190565b80516001600160a01b03908116835260208083015182169084015260408083015190911690830152606080820151908301526080808201516001600160801b0316908301526101fe919060e090819060a0818101516001600160801b03169085015260c08181015161ffff169085015201511515910152565b80612645610120926103a095946125ba565b816101008201520190611a49565b805160208201805160408401805160a0860180519098949694959294936001600160a01b039384169390811692169061268b90611d29565b516001600160e81b031916916126a093612bac565b95516126ab90611d29565b516001600160e81b0319166126bf90612b61565b81519093906001600160a01b031694516001600160a01b031692516001600160a01b03169560608301516126f290611d29565b51606086015161ffff1660809094015115159461270d610312565b6001600160a01b0390981688526001600160a01b031660208801526001600160a01b03909716604087019081529660608701526001600160801b031660808601526001600160801b031660a085015261ffff1660c0840152151560e083015260208101511561291b57916020918361278861281d9551151590565b1561290157507f00000000000000000000000000000000000000000000000000000000000000005b816001600160a01b038216156128d9575b6127ca91612c5a565b805161285b57506127ff6122936122936127e2611d5f565b6122846127ed611d5f565b916122766040519384928b8401611a6d565b905f6040518096819582946305e3344d60e41b845260048401612633565b03925af1908115610e73575f91612832575091565b6122ed915060203d602011612854575b61284c81836102d3565b8101906125ab565b503d612842565b6122936122936127ff9260405163f9158ee560e01b81525f81806128828560048301611fc4565b0381305afa90815f915f936128bb575b506128a457505061233c6127ed611d5f565b61233c9192506122766040519384928b8401611a6d565b9092506128d291503d805f833e61237181836102d3565b915f612892565b7f000000000000000000000000000000000000000000000000000000000000000091506127c1565b6123ce6123bc604061291693015161ffff1690565b6127b0565b50612955916020916127ff612293612293612937989798611d5f565b94612286612943611d5f565b9661241d6040519889928b8401611a6d565b03925af1908115610e73575f9161296b57509190565b612455915060203d6020116128545761284c81836102d3565b1561298b57565b60405162461bcd60e51b815260206004820152601860248201527f496e76616c6964206c697175696469747920616d6f756e7400000000000000006044820152606490fd5b156129d757565b60405162461bcd60e51b8152602060048201526014602482015273139bc81b1a5c5d5a591a5d1e481a5b881c1bdbdb60621b6044820152606490fd5b90670de0b6b3a7640000820291808304670de0b6b3a764000014901517156106ed57565b9067120a871cc002000082029180830467120a871cc002000014901517156106ed57565b818102929181159184041417156106ed57565b8115612a78570490565b634e487b7160e01b5f52601260045260245ffd5b600f0b6f7fffffffffffffffffffffffffffffff1981146106ed575f0390565b60405160609190612abd83826102d3565b6002815291601f1901366020840137565b600160ff1b81146106ed575f0390565b15612ae557565b60405162461bcd60e51b815260206004820152601760248201527f496e76616c696420696e697469616c20616d6f756e74730000000000000000006044820152606490fd5b610da89060208082518301019101611f7d565b60405190612b4a826102b3565b5f6060838281528260208201528260408201520152565b6103a0610fff80612b70612b3d565b60e885901c60019081161515825260e986901c161515602082015260ea85901c6103ff16604082015260f49490941c161661ffff166060830152565b9092906001600160a01b038085169082161015612c1e5792915b6040516bffffffffffffffffffffffff19606095861b81166020830190815294861b811660348301529190941b1660488401526001600160e81b031916605c830152603f825290612c18605f826102d3565b51902090565b91612bc6565b906020828203126101ef5781516001600160401b0381116101ef576103a09201611f37565b610100810192916101fe91906125ba565b906001600160a01b038216908115612d9557823b15612d9557612c7c836134b9565b928351159182612cbe575b5050604051901581527fd34145bf6de6d1b18053ad66a4a1af093071a5ab67c05b8bfce98fd95ffb0d899080602081015b0390a290565b604051633bd1104b60e01b81529294505f9083908190612ce19060048301612c49565b038183875af15f9281612d71575b50612d2a5750507fd34145bf6de6d1b18053ad66a4a1af093071a5ab67c05b8bfce98fd95ffb0d89612cb8612d22611d5f565b935b91612c87565b8193612cb8917fd34145bf6de6d1b18053ad66a4a1af093071a5ab67c05b8bfce98fd95ffb0d8993958051612d61575b5050612d24565b612d6a9161352c565b5f80612d5a565b612d8e9193503d805f833e612d8681836102d3565b810190612c24565b915f612cef565b5050506103a0611d5f565b60405160208101907f626529a6be7cb2fb96a7ed93849b4ef74c980495dfe61fd514c95dcd9da51c3582523060601b604082015260348152612c186054826102d3565b805c6101ef576001905d565b60405160208101907f626529a6be7cb2fb96a7ed93849b4ef74c980495dfe61fd514c95dcd9da51c3582523060601b60408201527f88f108d443a200407df3d92fc06ed196d7b48635560cc21c3b1819792e11c1a7605482015260548152612c186074826102d3565b60405160208101907f507ba82850c15277b79bae90c6e97b66228a117b64d05e46b3182d141df61ce282523060601b604082015260348152612e9b6054826102d3565b5190205d565b8151915f5b838110612eb35750505050565b6001906001600160a01b03612ec88285611d4b565b5116612ed5818630613560565b5c80612ee4575b505001612ea6565b5f91612f049183811315612f0c57612efd9088836137ab565b8630613560565b5d5f80612edc565b612f18612f2a91612ace565b82158514612f2f5784905b89846136d1565b612efd565b8490612f23565b90918251925f5b848110612f4b575050505050565b6001906001600160a01b03612f608285611d4b565b5116612f6d818730613560565b5c80612f7c575b505001612f3d565b5f91612f9c9183811315612fa457612f959089836137ab565b8730613560565b5d5f80612f74565b612fb0612fc291612ace565b82158514612fc75788905b8a846136d1565b612f95565b8490612fbb565b5f60405160208101907f507ba82850c15277b79bae90c6e97b66228a117b64d05e46b3182d141df61ce282523060601b604082015260348152612e9b6054826102d3565b61301d5f91306135d5565b5d565b60405160208101907f507ba82850c15277b79bae90c6e97b66228a117b64d05e46b3182d141df61ce282523060601b6040820152603481526130636054826102d3565b5190205c90565b1561307157565b60405162461bcd60e51b81526020600482015260076024820152664e6f20686f707360c81b6044820152606490fd5b9190811015611d365760051b8101359060be19813603018212156101ef570190565b356103a0816103a3565b91909160018060a01b0316805f52600160205260405f20835f5260205260405f208054908382039182116106ed57556040805133815260208101939093525f925f5160206141625f395f51905f5291819081015b0390a4565b90600f0b90600f0b019060016001607f1b0319821260016001607f1b038313176106ed57565b9091815f5260056020526001600160801b0361317e61317460405f205495838716600f0b613125565b928560801d613125565b81199060801b16911617918203613193575050565b5f52600560205260405f2055565b906131ac9130613560565b90815c01905d565b6001600160801b0392935f146131e7575016908082106131d2575050565b630173586760e01b5f5260045260245260445ffd5b905016908082106131f6575050565b6368580a1960e01b5f5260045260245260445ffd5b9190915f83820193841291129080158216911516176106ed57565b9092613233848330613560565b5c61323f848430613560565b5c916001600160a01b03858116929087168084146133085791816132a295935f6101fe9a9694125f146132e85761327861328792612ace565b906132e15782905b88876136d1565b5f8313156132a757505061329c9084866137ab565b8261381c565b61381c565b5f83126132b7575b50505061329c565b6132c36132d193612ace565b916132d957905b85876136d1565b5f80806132af565b505f906132ca565b5f90613280565b505f81136132f7575b50613287565b6133029087866137ab565b5f6132f1565b92506101fe9695936133199161320b565b925f841215613345575061332f6132a293612ace565b9161333d57905b83856136d1565b505f90613336565b92915050825f821361335a575b50505061381c565b613363926137ab565b5f8082613352565b6001600160801b03670de0b6b3a7640000911602906001600160801b0382169182036106ed57565b929493919093825f52600460205260405f2054155f146133d3575050506133ba9250612488565b905b81156133c457565b63283eeadf60e01b5f5260045ffd5b90929193670de0b6b3a7640000810290808204670de0b6b3a764000014901517156106ed578161340291612a6e565b82018092116106ed576134436117aa936001600160801b0361343c613453946117aa61343061345a9b61336b565b6001600160801b031690565b9116612488565b936004905f5260205260405f2090565b5490612a5b565b906133bc565b91909160018060a01b031690815f52600160205260405f20835f5260205260405f208054908282018092116106ed57556040805133815260208101929092525f915f5160206141625f395f51905f529181908101613120565b90606091805c90811580613517575b156134d1575050565b909250601f6040519380855201908160051c905f5b8281106134fe57505050601f19168201602001604052565b80600180928401015c60208260051b89010152016134e6565b9350604051935f8552602085016040526134c8565b601f825180835d0160051c915f5b8381106135475750505050565b80602060019260051b8401015182828601015d0161353a565b916040519160208301937f71aa94563c1d78d77df681ad802fc1a81ea7d00cffe4bbe002400e1d66de80d285526001600160601b03199060601b1660408401526001600160601b03199060601b1660548301526001600160601b03199060601b166068820152605c8152612c18607c826102d3565b906040519060208201927fe88690b85c82523984f05d1f281684a73aa4d4303bca19cfe29aa89ae744616a84526001600160601b03199060601b1660408301526001600160601b03199060601b16605482015260488152612c186068826102d3565b908160209103126101ef57516103a0816103a3565b1561365357565b60405162461bcd60e51b8152602060048201526015602482015274115490cc8c081d1c985b9cd9995c8819985a5b1959605a1b6044820152606490fd5b1561369757565b60405162461bcd60e51b8152602060048201526012602482015271125b98dbdc9c9958dd08115512081cd95b9d60721b6044820152606490fd5b6001600160a01b03169290836136ed57506101fe925014613690565b9190613773576040516323b872dd60e01b81526001600160a01b0390921660048301523060248301526044820152906020908290815f81606481015b03925af18015610e73576101fe915f91613744575b5061364c565b613766915060203d60201161376c575b61375e81836102d3565b810190613637565b5f61373e565b503d613754565b60405162461bcd60e51b815260206004820152601060248201526f115512081b9bdd08195e1c1958dd195960821b6044820152606490fd5b6001600160a01b0316806137e557505f8080938193829082156137db575b6001600160a01b031690f115610e7357565b6108fc91506137c9565b60405163a9059cbb60e01b81526001600160a01b0390921660048301526024820192909252906020908290815f8160448101613729565b5f9161301d9130613560565b903590601e19813603018212156101ef57018035906001600160401b0382116101ef57602001918160051b360383136101ef57565b1561386457565b60405162461bcd60e51b81526020600482015260116024820152704d69736d6174636865642061727261797360781b6044820152606490fd5b356103a0816103b8565b959493929150606086016138bb8188613828565b90501561395d576138e76138d26080890189613828565b90506138de838a613828565b9190501461385d565b60016138f38289613828565b9050145f1461395157866139096103a0986124ae565b91613916602083016124ae565b61394960a061394261393d613937613930604089016124ae565b9688613828565b90612495565b61389d565b94016130c2565b936004613e66565b506103a0956004613ab2565b60405162461bcd60e51b815260206004820152600b60248201526a4e6f206d61726b696e677360a81b6044820152606490fd5b9190916040818403126101ef5780516001600160401b0381116101ef57836139b9918301611d73565b9260208201516001600160401b0381116101ef576103a09201611d73565b90602080835192838152019201905f5b8181106139f45750505090565b82516001600160e81b0319168452602093840193909201916001016139e7565b80516001600160a01b0390811683526020808301518216908401526040808301519091169083015260608082015160c09184018290526103a0939160a091613a5e918401906105ad565b9260808101511515608084015201519060a08184039101526139d7565b91613aa490613a966103a09593606086526060860190613a14565b908482036020860152611df5565b916040818403910152611df5565b96949590929391966060840197613ac98986613828565b969050613e23575b50613adb85611ce3565b91613ae586611ce3565b905f5b878110613d8d5750815f91858389613bac613bce9d9e9f613b80613ba5613b0e856124ae565b94613b97613b1e602083016124ae565b94613b53613b90613b31604086016124ae565b613b3e6080870187613828565b939094613b4d60a089016130c2565b97613828565b989099613b70613b616102f4565b6001600160a01b03909e168e52565b6001600160a01b031660208d0152565b6001600160a01b031660408b0152565b3691610339565b606087015215156080860152565b36916103ca565b60a082015260405163027b8f7b60e11b81529c8d958694859360048501613a7b565b03926001600160a01b03165af1908115610e73575f975f92613d66575b505f5b878110613c6a57505050505090613c179495613c119392613c1b575b505061246d565b90611d4b565b5190565b81613c2b60a0613c5594016130c2565b15613c5c576020613c3c91016124ae565b613c4e613c488561246d565b87611d4b565b51916131a1565b5f80613c0a565b613c65906124ae565b613c3c565b80613d2c8a89613c9484613c8d600197613c876080860186613828565b9061249e565b3593611d4b565b51613cd2613cb2613ca5878d611d4b565b516001600160801b031690565b82613cc0613ca5898c611d4b565b613ccc60a087016130c2565b926131b4565b613cdc8589611d4b565b5192613cea60a084016130c2565b15613d4657613d0960a06001600160801b038316600f0b945b016130c2565b15613d3257506001600160801b03613d249116600f0b612a8c565b915b88613f8a565b01613bee565b6001600160801b03915016600f0b91613d26565b613d0960a0613d606001600160801b038516600f0b612a8c565b94613d03565b909750613d8591503d805f833e613d7d81836102d3565b810190613990565b90965f613beb565b600190613e1d613e13613df8613dd78f8c613da7816124ae565b91613dd161393d89613c87613dbe602087016124ae565b94613dcb604088016124ae565b96613828565b92612bac565b886001915f520160205260405f2054906001600160801b0382169160801c90565b613e058589949394611d4b565b906001600160801b03169052565b613e058389611d4b565b01613ae8565b613e5190613e3360a087016130c2565b15613e5757613e4a613e44876124ae565b91612ace565b90896131a1565b5f613ad1565b613e4a613e44602088016124ae565b9185809c9b829893979b99959a969a613e818c82868c612bac565b96613f61575b8885613eae89896001915f520160205260405f2054906001600160801b0382169160801c90565b9e8f948298613ebe989395614028565b9b8c809a613ecb936131b4565b613f06928915613f46576001600160801b038216600f0b915b8a15613f345750613f006001600160801b038a16600f0b612a8c565b92613f8a565b613f12575b5050505050565b613f229415613f2c5750906131a1565b5f82818080613f0b565b9050906131a1565b6001600160801b0316600f0b92613f8a565b613f5b6001600160801b038a16600f0b612a8c565b91613ee4565b8215613f8157613f7c895b613f7587612ace565b908d6131a1565b613e87565b613f7c84613f6c565b6001909392930191815f52826020526001600160801b03613fc2613fb860405f205496838816600f0b613125565b928660801d613125565b81199060801b16911617928303613fd857505050565b5f5260205260405f2055565b91908260409103126101ef576020825192015190565b9193926001600160801b03908161401b604094606087526060870190613a14565b9616602085015216910152565b6140cc98935f9261409e6040989a97999561408f614044611cc1565b938d61404f86611d29565b5261406561405b611cc1565b9661192688611d29565b61407f6140706102f4565b6001600160a01b039098168852565b6001600160a01b03166020870152565b6001600160a01b0316848a0152565b6060830152871515608083015260a082015285516360a80dbb60e01b81529889958694859360048501613ffa565b03926001600160a01b03165af1928315610e73575f9361412f575b5082156140f357505090565b90915015614115576141076103a091612a37565b670de0b6b3a7640000900490565b6141216103a091612a13565b67120a871cc0020000900490565b61415291935060403d60401161415a575b61414a81836102d3565b810190613fe4565b50915f6140e7565b503d61414056fe1b3d7edb2e9c0b0e7c525b20aaaef0f5940d2ed71663c7d39266ecafac728859a264697066735822122095e67cbfea33ba1c19fb7b34b37830161fb1e0a13a51529e122dcc124797d71464736f6c634300081e0033","opcodes":"PUSH1 0xC0 CALLVALUE PUSH2 0x96 JUMPI PUSH1 0x1F PUSH2 0x427A CODESIZE DUP2 SWAP1 SUB SWAP2 DUP3 ADD PUSH1 0x1F NOT AND DUP4 ADD SWAP2 PUSH1 0x1 PUSH1 0x1 PUSH1 0x40 SHL SUB DUP4 GT DUP5 DUP5 LT OR PUSH2 0x9A JUMPI DUP1 DUP5 SWAP3 PUSH1 0x40 SWAP5 DUP6 MSTORE DUP4 CODECOPY DUP2 ADD SUB SLT PUSH2 0x96 JUMPI PUSH2 0x52 PUSH1 0x20 PUSH2 0x4B DUP4 PUSH2 0xAE JUMP JUMPDEST SWAP3 ADD PUSH2 0xAE JUMP JUMPDEST SWAP1 PUSH1 0x80 MSTORE PUSH1 0xA0 MSTORE PUSH1 0x40 MLOAD PUSH2 0x41B7 SWAP1 DUP2 PUSH2 0xC3 DUP3 CODECOPY PUSH1 0x80 MLOAD DUP2 DUP2 DUP2 PUSH2 0xF80 ADD MSTORE DUP2 DUP2 PUSH2 0x2209 ADD MSTORE DUP2 DUP2 PUSH2 0x2383 ADD MSTORE DUP2 DUP2 PUSH2 0x2790 ADD MSTORE PUSH2 0x28DB ADD MSTORE PUSH1 0xA0 MLOAD DUP2 PUSH2 0xC42 ADD MSTORE RETURN JUMPDEST PUSH0 DUP1 REVERT JUMPDEST PUSH4 0x4E487B71 PUSH1 0xE0 SHL PUSH0 MSTORE PUSH1 0x41 PUSH1 0x4 MSTORE PUSH1 0x24 PUSH0 REVERT JUMPDEST MLOAD SWAP1 PUSH1 0x1 PUSH1 0x1 PUSH1 0xA0 SHL SUB DUP3 AND DUP3 SUB PUSH2 0x96 JUMPI JUMP INVALID PUSH1 0x80 PUSH1 0x40 MSTORE PUSH1 0x4 CALLDATASIZE LT ISZERO PUSH2 0x11 JUMPI PUSH0 DUP1 REVERT JUMPDEST PUSH0 CALLDATALOAD PUSH1 0xE0 SHR DUP1 PUSH3 0xFDD58E EQ PUSH2 0x1D9 JUMPI DUP1 PUSH4 0x1FFC9A7 EQ PUSH2 0x1D4 JUMPI DUP1 PUSH4 0x4F71EF6 EQ PUSH2 0x175 JUMPI DUP1 PUSH4 0x95BCDB6 EQ PUSH2 0x1CF JUMPI DUP1 PUSH4 0x19A8E9B4 EQ PUSH2 0x1CA JUMPI DUP1 PUSH4 0x2F380B35 EQ PUSH2 0x1C5 JUMPI DUP1 PUSH4 0x314E2321 EQ PUSH2 0x1C0 JUMPI DUP1 PUSH4 0x426A8493 EQ PUSH2 0x1BB JUMPI DUP1 PUSH4 0x558A7297 EQ PUSH2 0x1B6 JUMPI DUP1 PUSH4 0x5670F55A EQ PUSH2 0x1B1 JUMPI DUP1 PUSH4 0x583A5570 EQ PUSH2 0x1AC JUMPI DUP1 PUSH4 0x598AF9E7 EQ PUSH2 0x1A7 JUMPI DUP1 PUSH4 0x5B298D32 EQ PUSH2 0x1A2 JUMPI DUP1 PUSH4 0x5DFB78AF EQ PUSH2 0x19D JUMPI DUP1 PUSH4 0x60A80DBB EQ PUSH2 0x18E JUMPI DUP1 PUSH4 0x6634CE7A EQ PUSH2 0x198 JUMPI DUP1 PUSH4 0x76023539 EQ PUSH2 0x193 JUMPI DUP1 PUSH4 0x8F155291 EQ PUSH2 0x18E JUMPI DUP1 PUSH4 0x927F010E EQ PUSH2 0x189 JUMPI DUP1 PUSH4 0x9D2EC6E4 EQ PUSH2 0x184 JUMPI DUP1 PUSH4 0xB5E60C3C EQ PUSH2 0x17F JUMPI DUP1 PUSH4 0xB6363CF2 EQ PUSH2 0x17A JUMPI DUP1 PUSH4 0xC279171D EQ PUSH2 0x175 JUMPI DUP1 PUSH4 0xCB1F2F38 EQ PUSH2 0x170 JUMPI DUP1 PUSH4 0xD92BC84C EQ PUSH2 0x16B JUMPI DUP1 PUSH4 0xE513315B EQ PUSH2 0x166 JUMPI DUP1 PUSH4 0xEA157ACF EQ PUSH2 0x161 JUMPI DUP1 PUSH4 0xF9158EE5 EQ PUSH2 0x15C JUMPI PUSH4 0xFE99049A EQ PUSH2 0x157 JUMPI PUSH0 DUP1 REVERT JUMPDEST PUSH2 0x1B13 JUMP JUMPDEST PUSH2 0x1A92 JUMP JUMPDEST PUSH2 0x195E JUMP JUMPDEST PUSH2 0x16CB JUMP JUMPDEST PUSH2 0x145F JUMP JUMPDEST PUSH2 0x11ED JUMP JUMPDEST PUSH2 0x605 JUMP JUMPDEST PUSH2 0x118A JUMP JUMPDEST PUSH2 0x1160 JUMP JUMPDEST PUSH2 0xFAF JUMP JUMPDEST PUSH2 0xF6B JUMP JUMPDEST PUSH2 0xECD JUMP JUMPDEST PUSH2 0xF30 JUMP JUMPDEST PUSH2 0xEF6 JUMP JUMPDEST PUSH2 0xDAC JUMP JUMPDEST PUSH2 0xCDE JUMP JUMPDEST PUSH2 0xC71 JUMP JUMPDEST PUSH2 0xC2D JUMP JUMPDEST PUSH2 0xA1B JUMP JUMPDEST PUSH2 0x97F JUMP JUMPDEST PUSH2 0x8FE JUMP JUMPDEST PUSH2 0x8A9 JUMP JUMPDEST PUSH2 0x759 JUMP JUMPDEST PUSH2 0x703 JUMP JUMPDEST PUSH2 0x653 JUMP JUMPDEST PUSH2 0x249 JUMP JUMPDEST PUSH2 0x200 JUMP JUMPDEST PUSH1 0x1 PUSH1 0x1 PUSH1 0xA0 SHL SUB DUP2 AND SUB PUSH2 0x1EF JUMPI JUMP JUMPDEST PUSH0 DUP1 REVERT JUMPDEST CALLDATALOAD SWAP1 PUSH2 0x1FE DUP3 PUSH2 0x1DE JUMP JUMPDEST JUMP JUMPDEST CALLVALUE PUSH2 0x1EF JUMPI PUSH1 0x40 CALLDATASIZE PUSH1 0x3 NOT ADD SLT PUSH2 0x1EF JUMPI PUSH1 0x4 CALLDATALOAD PUSH2 0x21D DUP2 PUSH2 0x1DE JUMP JUMPDEST PUSH1 0x24 CALLDATALOAD SWAP1 PUSH1 0x1 DUP1 PUSH1 0xA0 SHL SUB AND PUSH0 MSTORE PUSH1 0x1 PUSH1 0x20 MSTORE PUSH1 0x40 PUSH0 KECCAK256 SWAP1 PUSH0 MSTORE PUSH1 0x20 MSTORE PUSH1 0x20 PUSH1 0x40 PUSH0 KECCAK256 SLOAD PUSH1 0x40 MLOAD SWAP1 DUP2 MSTORE RETURN JUMPDEST CALLVALUE PUSH2 0x1EF JUMPI PUSH1 0x20 CALLDATASIZE PUSH1 0x3 NOT ADD SLT PUSH2 0x1EF JUMPI PUSH1 0x4 CALLDATALOAD PUSH4 0xFFFFFFFF PUSH1 0xE0 SHL DUP2 AND DUP1 SWAP2 SUB PUSH2 0x1EF JUMPI PUSH1 0x20 SWAP1 PUSH4 0x1FFC9A7 PUSH1 0xE0 SHL DUP2 EQ SWAP1 DUP2 ISZERO PUSH2 0x28E JUMPI JUMPDEST POP PUSH1 0x40 MLOAD SWAP1 ISZERO ISZERO DUP2 MSTORE RETURN JUMPDEST PUSH4 0xF632FB3 PUSH1 0xE0 SHL EQ SWAP1 POP PUSH0 PUSH2 0x283 JUMP JUMPDEST PUSH4 0x4E487B71 PUSH1 0xE0 SHL PUSH0 MSTORE PUSH1 0x41 PUSH1 0x4 MSTORE PUSH1 0x24 PUSH0 REVERT JUMPDEST PUSH1 0x80 DUP2 ADD SWAP1 DUP2 LT PUSH1 0x1 PUSH1 0x1 PUSH1 0x40 SHL SUB DUP3 GT OR PUSH2 0x2CE JUMPI PUSH1 0x40 MSTORE JUMP JUMPDEST PUSH2 0x29F JUMP JUMPDEST SWAP1 PUSH1 0x1F DUP1 NOT SWAP2 ADD AND DUP2 ADD SWAP1 DUP2 LT PUSH1 0x1 PUSH1 0x1 PUSH1 0x40 SHL SUB DUP3 GT OR PUSH2 0x2CE JUMPI PUSH1 0x40 MSTORE JUMP JUMPDEST PUSH1 0x40 MLOAD SWAP1 PUSH2 0x1FE PUSH1 0xC0 DUP4 PUSH2 0x2D3 JUMP JUMPDEST PUSH1 0x40 MLOAD SWAP1 PUSH2 0x1FE PUSH1 0x80 DUP4 PUSH2 0x2D3 JUMP JUMPDEST PUSH1 0x40 MLOAD SWAP1 PUSH2 0x1FE PUSH2 0x100 DUP4 PUSH2 0x2D3 JUMP JUMPDEST PUSH1 0x1 PUSH1 0x1 PUSH1 0x40 SHL SUB DUP2 GT PUSH2 0x2CE JUMPI PUSH1 0x5 SHL PUSH1 0x20 ADD SWAP1 JUMP JUMPDEST SWAP3 SWAP2 SWAP1 PUSH2 0x345 DUP2 PUSH2 0x322 JUMP JUMPDEST SWAP4 PUSH2 0x353 PUSH1 0x40 MLOAD SWAP6 DUP7 PUSH2 0x2D3 JUMP JUMPDEST PUSH1 0x20 DUP6 DUP4 DUP2 MSTORE ADD SWAP2 PUSH1 0x5 SHL DUP2 ADD SWAP3 DUP4 GT PUSH2 0x1EF JUMPI SWAP1 JUMPDEST DUP3 DUP3 LT PUSH2 0x375 JUMPI POP POP POP JUMP JUMPDEST DUP2 CALLDATALOAD DUP2 MSTORE PUSH1 0x20 SWAP2 DUP3 ADD SWAP2 ADD PUSH2 0x369 JUMP JUMPDEST SWAP1 DUP1 PUSH1 0x1F DUP4 ADD SLT ISZERO PUSH2 0x1EF JUMPI DUP2 PUSH1 0x20 PUSH2 0x3A0 SWAP4 CALLDATALOAD SWAP2 ADD PUSH2 0x339 JUMP JUMPDEST SWAP1 JUMP JUMPDEST DUP1 ISZERO ISZERO SUB PUSH2 0x1EF JUMPI JUMP JUMPDEST CALLDATALOAD SWAP1 PUSH2 0x1FE DUP3 PUSH2 0x3A3 JUMP JUMPDEST PUSH1 0x1 PUSH1 0x1 PUSH1 0xE8 SHL SUB NOT DUP2 AND SUB PUSH2 0x1EF JUMPI JUMP JUMPDEST SWAP3 SWAP2 SWAP1 PUSH2 0x3D6 DUP2 PUSH2 0x322 JUMP JUMPDEST SWAP4 PUSH2 0x3E4 PUSH1 0x40 MLOAD SWAP6 DUP7 PUSH2 0x2D3 JUMP JUMPDEST PUSH1 0x20 DUP6 DUP4 DUP2 MSTORE ADD SWAP2 PUSH1 0x5 SHL DUP2 ADD SWAP3 DUP4 GT PUSH2 0x1EF JUMPI SWAP1 JUMPDEST DUP3 DUP3 LT PUSH2 0x406 JUMPI POP POP POP JUMP JUMPDEST PUSH1 0x20 DUP1 SWAP2 DUP4 CALLDATALOAD PUSH2 0x415 DUP2 PUSH2 0x3B8 JUMP JUMPDEST DUP2 MSTORE ADD SWAP2 ADD SWAP1 PUSH2 0x3FA JUMP JUMPDEST SWAP1 DUP1 PUSH1 0x1F DUP4 ADD SLT ISZERO PUSH2 0x1EF JUMPI DUP2 PUSH1 0x20 PUSH2 0x3A0 SWAP4 CALLDATALOAD SWAP2 ADD PUSH2 0x3CA JUMP JUMPDEST SWAP2 SWAP1 SWAP2 PUSH1 0xC0 DUP2 DUP5 SUB SLT PUSH2 0x1EF JUMPI PUSH2 0x450 PUSH2 0x2F4 JUMP JUMPDEST SWAP3 PUSH2 0x45A DUP3 PUSH2 0x1F3 JUMP JUMPDEST DUP5 MSTORE PUSH2 0x468 PUSH1 0x20 DUP4 ADD PUSH2 0x1F3 JUMP JUMPDEST PUSH1 0x20 DUP6 ADD MSTORE PUSH2 0x479 PUSH1 0x40 DUP4 ADD PUSH2 0x1F3 JUMP JUMPDEST PUSH1 0x40 DUP6 ADD MSTORE PUSH1 0x60 DUP3 ADD CALLDATALOAD PUSH1 0x1 PUSH1 0x1 PUSH1 0x40 SHL SUB DUP2 GT PUSH2 0x1EF JUMPI DUP2 PUSH2 0x49D SWAP2 DUP5 ADD PUSH2 0x385 JUMP JUMPDEST PUSH1 0x60 DUP6 ADD MSTORE PUSH2 0x4AE PUSH1 0x80 DUP4 ADD PUSH2 0x3AD JUMP JUMPDEST PUSH1 0x80 DUP6 ADD MSTORE PUSH1 0xA0 DUP3 ADD CALLDATALOAD PUSH1 0x1 PUSH1 0x1 PUSH1 0x40 SHL SUB DUP2 GT PUSH2 0x1EF JUMPI PUSH2 0x4D0 SWAP3 ADD PUSH2 0x420 JUMP JUMPDEST PUSH1 0xA0 DUP4 ADD MSTORE JUMP JUMPDEST SWAP1 DUP1 PUSH1 0x1F DUP4 ADD SLT ISZERO PUSH2 0x1EF JUMPI DUP2 CALLDATALOAD SWAP1 PUSH2 0x4EF DUP3 PUSH2 0x322 JUMP JUMPDEST SWAP3 PUSH2 0x4FD PUSH1 0x40 MLOAD SWAP5 DUP6 PUSH2 0x2D3 JUMP JUMPDEST DUP3 DUP5 MSTORE PUSH1 0x20 DUP1 DUP6 ADD SWAP4 PUSH1 0x5 SHL DUP3 ADD ADD SWAP2 DUP3 GT PUSH2 0x1EF JUMPI PUSH1 0x20 ADD SWAP2 JUMPDEST DUP2 DUP4 LT PUSH2 0x525 JUMPI POP POP POP SWAP1 JUMP JUMPDEST DUP3 CALLDATALOAD PUSH1 0x1 PUSH1 0x1 PUSH1 0x80 SHL SUB DUP2 AND DUP2 SUB PUSH2 0x1EF JUMPI DUP2 MSTORE PUSH1 0x20 SWAP3 DUP4 ADD SWAP3 ADD PUSH2 0x518 JUMP JUMPDEST PUSH1 0x60 PUSH1 0x3 NOT DUP3 ADD SLT PUSH2 0x1EF JUMPI PUSH1 0x4 CALLDATALOAD PUSH1 0x1 PUSH1 0x1 PUSH1 0x40 SHL SUB DUP2 GT PUSH2 0x1EF JUMPI DUP2 PUSH2 0x56F SWAP2 PUSH1 0x4 ADD PUSH2 0x43B JUMP JUMPDEST SWAP2 PUSH1 0x24 CALLDATALOAD PUSH1 0x1 PUSH1 0x1 PUSH1 0x40 SHL SUB DUP2 GT PUSH2 0x1EF JUMPI DUP3 PUSH2 0x58E SWAP2 PUSH1 0x4 ADD PUSH2 0x4D7 JUMP JUMPDEST SWAP2 PUSH1 0x44 CALLDATALOAD SWAP1 PUSH1 0x1 PUSH1 0x1 PUSH1 0x40 SHL SUB DUP3 GT PUSH2 0x1EF JUMPI PUSH2 0x3A0 SWAP2 PUSH1 0x4 ADD PUSH2 0x4D7 JUMP JUMPDEST SWAP1 PUSH1 0x20 DUP1 DUP4 MLOAD SWAP3 DUP4 DUP2 MSTORE ADD SWAP3 ADD SWAP1 PUSH0 JUMPDEST DUP2 DUP2 LT PUSH2 0x5CA JUMPI POP POP POP SWAP1 JUMP JUMPDEST DUP3 MLOAD DUP5 MSTORE PUSH1 0x20 SWAP4 DUP5 ADD SWAP4 SWAP1 SWAP3 ADD SWAP2 PUSH1 0x1 ADD PUSH2 0x5BD JUMP JUMPDEST SWAP1 SWAP2 PUSH2 0x5F7 PUSH2 0x3A0 SWAP4 PUSH1 0x40 DUP5 MSTORE PUSH1 0x40 DUP5 ADD SWAP1 PUSH2 0x5AD JUMP JUMPDEST SWAP2 PUSH1 0x20 DUP2 DUP5 SUB SWAP2 ADD MSTORE PUSH2 0x5AD JUMP JUMPDEST CALLVALUE PUSH2 0x1EF JUMPI PUSH2 0x61C PUSH2 0x616 CALLDATASIZE PUSH2 0x545 JUMP JUMPDEST SWAP2 PUSH2 0x1FD5 JUMP JUMPDEST SWAP1 PUSH2 0x62C PUSH1 0x40 MLOAD SWAP3 DUP4 SWAP3 DUP4 PUSH2 0x5E0 JUMP JUMPDEST SUB SWAP1 RETURN JUMPDEST PUSH1 0x60 SWAP1 PUSH1 0x3 NOT ADD SLT PUSH2 0x1EF JUMPI PUSH1 0x4 CALLDATALOAD PUSH2 0x648 DUP2 PUSH2 0x1DE JUMP JUMPDEST SWAP1 PUSH1 0x24 CALLDATALOAD SWAP1 PUSH1 0x44 CALLDATALOAD SWAP1 JUMP JUMPDEST CALLVALUE PUSH2 0x1EF JUMPI PUSH2 0x661 CALLDATASIZE PUSH2 0x630 JUMP JUMPDEST SWAP1 SWAP2 CALLER PUSH0 MSTORE PUSH1 0x1 PUSH1 0x20 MSTORE PUSH1 0x40 PUSH0 KECCAK256 DUP4 PUSH0 MSTORE PUSH1 0x20 MSTORE PUSH1 0x40 PUSH0 KECCAK256 DUP1 SLOAD SWAP1 DUP4 DUP3 SUB SWAP2 DUP3 GT PUSH2 0x6ED JUMPI SSTORE PUSH1 0x1 DUP1 PUSH1 0xA0 SHL SUB AND SWAP1 DUP2 PUSH0 MSTORE PUSH1 0x1 PUSH1 0x20 MSTORE PUSH2 0x6AD DUP4 PUSH1 0x40 PUSH0 KECCAK256 SWAP1 PUSH0 MSTORE PUSH1 0x20 MSTORE PUSH1 0x40 PUSH0 KECCAK256 SWAP1 JUMP JUMPDEST PUSH2 0x6B8 DUP3 DUP3 SLOAD PUSH2 0x2488 JUMP JUMPDEST SWAP1 SSTORE PUSH1 0x40 DUP1 MLOAD CALLER DUP1 DUP3 MSTORE PUSH1 0x20 DUP3 ADD SWAP4 SWAP1 SWAP4 MSTORE PUSH0 MLOAD PUSH1 0x20 PUSH2 0x4162 PUSH0 CODECOPY PUSH0 MLOAD SWAP1 PUSH0 MSTORE SWAP2 DUP2 SWAP1 DUP2 ADD JUMPDEST SUB SWAP1 LOG4 PUSH1 0x40 MLOAD PUSH1 0x1 DUP2 MSTORE PUSH1 0x20 SWAP1 RETURN JUMPDEST PUSH2 0x2459 JUMP JUMPDEST PUSH1 0x4 CALLDATALOAD SWAP1 PUSH2 0xFFFF DUP3 AND DUP3 SUB PUSH2 0x1EF JUMPI JUMP JUMPDEST CALLVALUE PUSH2 0x1EF JUMPI PUSH1 0x40 CALLDATASIZE PUSH1 0x3 NOT ADD SLT PUSH2 0x1EF JUMPI PUSH2 0x757 PUSH2 0x71F PUSH2 0x6F2 JUMP JUMPDEST PUSH2 0xFFFF PUSH1 0x24 CALLDATALOAD SWAP2 PUSH2 0x72F DUP4 PUSH2 0x1DE JUMP JUMPDEST AND PUSH0 MSTORE PUSH1 0x3 PUSH1 0x20 MSTORE PUSH1 0x40 PUSH0 KECCAK256 SWAP1 PUSH1 0x1 DUP1 PUSH1 0xA0 SHL SUB AND PUSH1 0x1 PUSH1 0x1 PUSH1 0x60 SHL SUB PUSH1 0xA0 SHL DUP3 SLOAD AND OR SWAP1 SSTORE JUMP JUMPDEST STOP JUMPDEST CALLVALUE PUSH2 0x1EF JUMPI PUSH1 0x20 CALLDATASIZE PUSH1 0x3 NOT ADD SLT PUSH2 0x1EF JUMPI PUSH1 0x4 CALLDATALOAD PUSH2 0x775 PUSH2 0x2B3D JUMP JUMPDEST POP PUSH0 MSTORE PUSH1 0x6 PUSH1 0x20 MSTORE PUSH1 0x40 PUSH0 KECCAK256 PUSH1 0x40 MLOAD SWAP1 PUSH2 0x78E DUP3 PUSH2 0x2B3 JUMP JUMPDEST DUP1 SLOAD PUSH1 0x1 PUSH1 0x1 PUSH1 0xA0 SHL SUB SWAP1 DUP2 AND DUP1 DUP5 MSTORE PUSH1 0x1 DUP4 ADD SLOAD DUP3 AND PUSH1 0x20 DUP6 ADD DUP2 SWAP1 MSTORE PUSH1 0x2 SWAP1 SWAP4 ADD SLOAD SWAP2 DUP3 AND PUSH1 0x40 DUP6 ADD DUP2 SWAP1 MSTORE PUSH1 0x48 SWAP3 SWAP1 SWAP3 SHL PUSH1 0x1 PUSH1 0x1 PUSH1 0xE8 SHL SUB NOT AND PUSH1 0x60 SWAP5 SWAP1 SWAP5 ADD DUP5 SWAP1 MSTORE SWAP1 SWAP3 PUSH2 0x62C SWAP2 PUSH2 0x805 SWAP1 PUSH2 0x7F7 SWAP1 PUSH2 0x7EA SWAP1 DUP2 JUMP JUMPDEST SWAP6 PUSH1 0x1 PUSH1 0x1 PUSH1 0xA0 SHL SUB AND SWAP1 JUMP JUMPDEST SWAP2 PUSH1 0x1 PUSH1 0x1 PUSH1 0xE8 SHL SUB NOT AND SWAP1 JUMP JUMPDEST PUSH1 0x40 DUP1 MLOAD PUSH1 0x1 PUSH1 0x1 PUSH1 0xA0 SHL SUB SWAP6 DUP7 AND DUP2 MSTORE SWAP6 DUP6 AND PUSH1 0x20 DUP8 ADD MSTORE SWAP2 SWAP1 SWAP4 AND SWAP1 DUP5 ADD MSTORE PUSH1 0x1 PUSH1 0x1 PUSH1 0xE8 SHL SUB NOT SWAP1 SWAP2 AND PUSH1 0x60 DUP4 ADD MSTORE DUP2 SWAP1 PUSH1 0x80 DUP3 ADD SWAP1 JUMP JUMPDEST SWAP2 DUP2 PUSH1 0x1F DUP5 ADD SLT ISZERO PUSH2 0x1EF JUMPI DUP3 CALLDATALOAD SWAP2 PUSH1 0x1 PUSH1 0x1 PUSH1 0x40 SHL SUB DUP4 GT PUSH2 0x1EF JUMPI PUSH1 0x20 DUP1 DUP6 ADD SWAP5 DUP5 PUSH1 0x5 SHL ADD ADD GT PUSH2 0x1EF JUMPI JUMP JUMPDEST PUSH1 0x20 PUSH1 0x40 DUP2 DUP4 ADD SWAP3 DUP3 DUP2 MSTORE DUP5 MLOAD DUP1 SWAP5 MSTORE ADD SWAP3 ADD SWAP1 PUSH0 JUMPDEST DUP2 DUP2 LT PUSH2 0x893 JUMPI POP POP POP SWAP1 JUMP JUMPDEST DUP3 MLOAD DUP5 MSTORE PUSH1 0x20 SWAP4 DUP5 ADD SWAP4 SWAP1 SWAP3 ADD SWAP2 PUSH1 0x1 ADD PUSH2 0x886 JUMP JUMPDEST CALLVALUE PUSH2 0x1EF JUMPI PUSH1 0x40 CALLDATASIZE PUSH1 0x3 NOT ADD SLT PUSH2 0x1EF JUMPI PUSH1 0x4 CALLDATALOAD PUSH2 0x8C6 DUP2 PUSH2 0x1DE JUMP JUMPDEST PUSH1 0x24 CALLDATALOAD PUSH1 0x1 PUSH1 0x1 PUSH1 0x40 SHL SUB DUP2 GT PUSH2 0x1EF JUMPI PUSH2 0x62C SWAP2 PUSH2 0x8EC PUSH2 0x8F2 SWAP3 CALLDATASIZE SWAP1 PUSH1 0x4 ADD PUSH2 0x840 JUMP JUMPDEST SWAP2 PUSH2 0x24B8 JUMP JUMPDEST PUSH1 0x40 MLOAD SWAP2 DUP3 SWAP2 DUP3 PUSH2 0x870 JUMP JUMPDEST CALLVALUE PUSH2 0x1EF JUMPI PUSH2 0x90C CALLDATASIZE PUSH2 0x630 JUMP JUMPDEST SWAP1 SWAP2 CALLER PUSH0 MSTORE PUSH1 0x2 PUSH1 0x20 MSTORE PUSH2 0x933 DUP2 PUSH1 0x40 PUSH0 KECCAK256 SWAP1 PUSH1 0x1 DUP1 PUSH1 0xA0 SHL SUB AND PUSH0 MSTORE PUSH1 0x20 MSTORE PUSH1 0x40 PUSH0 KECCAK256 SWAP1 JUMP JUMPDEST DUP4 PUSH0 MSTORE PUSH1 0x20 MSTORE DUP2 PUSH1 0x40 PUSH0 KECCAK256 SSTORE PUSH1 0x40 MLOAD SWAP2 DUP3 MSTORE PUSH1 0x1 DUP1 PUSH1 0xA0 SHL SUB AND SWAP1 PUSH32 0xB3FD5071835887567A0671151121894DDCCC2842F1D10BEDAD13E0D17CACE9A7 PUSH1 0x20 CALLER SWAP3 LOG4 PUSH1 0x20 PUSH1 0x40 MLOAD PUSH1 0x1 DUP2 MSTORE RETURN JUMPDEST CALLVALUE PUSH2 0x1EF JUMPI PUSH1 0x40 CALLDATASIZE PUSH1 0x3 NOT ADD SLT PUSH2 0x1EF JUMPI PUSH1 0x4 CALLDATALOAD PUSH2 0x99C DUP2 PUSH2 0x1DE JUMP JUMPDEST PUSH1 0x24 CALLDATALOAD SWAP1 PUSH2 0x9A9 DUP3 PUSH2 0x3A3 JUMP JUMPDEST CALLER PUSH0 SWAP1 DUP2 MSTORE PUSH1 0x20 DUP2 DUP2 MSTORE PUSH1 0x40 DUP1 DUP4 KECCAK256 PUSH1 0x1 PUSH1 0x1 PUSH1 0xA0 SHL SUB DUP6 AND DUP5 MSTORE SWAP1 SWAP2 MSTORE SWAP1 KECCAK256 SWAP2 ISZERO ISZERO SWAP2 PUSH1 0xFF NOT DUP2 SLOAD AND PUSH1 0xFF DUP5 AND OR SWAP1 SSTORE PUSH1 0x40 MLOAD SWAP2 DUP3 MSTORE PUSH1 0x1 DUP1 PUSH1 0xA0 SHL SUB AND SWAP1 PUSH32 0xCEB576D9F15E4E200FDB5096D64D5DFD667E16DEF20C1EEFD14256D8E3FAA267 PUSH1 0x20 CALLER SWAP3 LOG3 PUSH1 0x40 MLOAD PUSH1 0x1 DUP2 MSTORE PUSH1 0x20 SWAP1 RETURN JUMPDEST CALLVALUE PUSH2 0x1EF JUMPI PUSH1 0x80 CALLDATASIZE PUSH1 0x3 NOT ADD SLT PUSH2 0x1EF JUMPI PUSH1 0x4 CALLDATALOAD PUSH2 0xA38 DUP2 PUSH2 0x1DE JUMP JUMPDEST PUSH1 0x24 CALLDATALOAD PUSH2 0xA44 DUP2 PUSH2 0x1DE JUMP JUMPDEST PUSH1 0x44 CALLDATALOAD SWAP2 PUSH2 0xA51 DUP4 PUSH2 0x1DE JUMP JUMPDEST PUSH1 0x64 CALLDATALOAD SWAP2 PUSH2 0xA5E DUP4 PUSH2 0x3B8 JUMP JUMPDEST PUSH2 0xA6E PUSH2 0xA69 PUSH2 0x2DA0 JUMP JUMPDEST PUSH2 0x2DE3 JUMP JUMPDEST PUSH2 0xA7A DUP4 DUP6 DUP4 DUP6 PUSH2 0x2BAC JUMP JUMPDEST SWAP3 PUSH1 0x1 DUP1 PUSH1 0xA0 SHL SUB PUSH2 0xAA7 PUSH1 0x2 PUSH2 0xA99 DUP8 PUSH0 MSTORE PUSH1 0x6 PUSH1 0x20 MSTORE PUSH1 0x40 PUSH0 KECCAK256 SWAP1 JUMP JUMPDEST ADD SLOAD PUSH1 0x1 PUSH1 0x1 PUSH1 0xA0 SHL SUB AND SWAP1 JUMP JUMPDEST AND PUSH2 0xC19 JUMPI PUSH2 0x62C SWAP5 DUP5 SWAP4 PUSH32 0x68DF9A4EB7AACBE8F43763BFBC9F7CA135A5397190EA1CCE2558DB52DC2F3692 SWAP4 SWAP2 SWAP3 SWAP1 SWAP2 SWAP1 PUSH1 0x1 PUSH1 0x1 PUSH1 0xA0 SHL SUB DUP1 DUP4 AND SWAP1 DUP5 AND LT ISZERO PUSH2 0xC0E JUMPI PUSH2 0xBF1 SWAP2 SWAP4 JUMPDEST PUSH2 0xBB5 PUSH2 0xAFE PUSH2 0x303 JUMP JUMPDEST PUSH1 0x1 PUSH1 0x1 PUSH1 0xA0 SHL SUB DUP7 AND DUP2 MSTORE PUSH1 0x1 PUSH1 0x1 PUSH1 0xA0 SHL SUB DUP8 AND PUSH1 0x20 DUP3 ADD MSTORE PUSH1 0x1 PUSH1 0x1 PUSH1 0xA0 SHL SUB DUP4 AND PUSH1 0x40 DUP3 ADD MSTORE PUSH1 0x1 PUSH1 0x1 PUSH1 0xE8 SHL SUB NOT DUP5 AND PUSH1 0x60 DUP3 ADD MSTORE PUSH2 0xB4A DUP10 PUSH0 MSTORE PUSH1 0x6 PUSH1 0x20 MSTORE PUSH1 0x40 PUSH0 KECCAK256 SWAP1 JUMP JUMPDEST DUP2 MLOAD DUP2 SLOAD PUSH1 0x1 PUSH1 0x1 PUSH1 0xA0 SHL SUB NOT SWAP1 DUP2 AND PUSH1 0x1 PUSH1 0x1 PUSH1 0xA0 SHL SUB SWAP3 DUP4 AND OR DUP4 SSTORE PUSH1 0x20 DUP5 ADD MLOAD PUSH1 0x1 DUP5 ADD DUP1 SLOAD SWAP1 SWAP3 AND SWAP1 DUP4 AND OR SWAP1 SSTORE PUSH1 0x40 DUP4 ADD MLOAD PUSH1 0x2 SWAP1 SWAP3 ADD DUP1 SLOAD PUSH1 0x60 SWAP1 SWAP5 ADD MLOAD SWAP3 SWAP1 SWAP2 AND PUSH1 0x1 PUSH1 0x1 PUSH1 0xB8 SHL SUB NOT SWAP1 SWAP4 AND SWAP3 SWAP1 SWAP3 OR PUSH1 0x48 SWAP2 SWAP1 SWAP2 SHR PUSH3 0xFFFFFF PUSH1 0xA0 SHL AND OR SWAP1 SSTORE JUMP JUMPDEST PUSH1 0x40 DUP1 MLOAD PUSH1 0x1 PUSH1 0x1 PUSH1 0xA0 SHL SUB SWAP6 DUP7 AND DUP2 MSTORE SWAP6 DUP6 AND PUSH1 0x20 DUP8 ADD MSTORE SWAP4 AND SWAP3 DUP5 ADD SWAP3 SWAP1 SWAP3 MSTORE PUSH1 0x1 PUSH1 0x1 PUSH1 0xE8 SHL SUB NOT SWAP1 SWAP2 AND PUSH1 0x60 DUP4 ADD MSTORE DUP2 SWAP1 PUSH1 0x80 DUP3 ADD SWAP1 JUMP JUMPDEST SUB SWAP1 LOG2 PUSH0 PUSH2 0xBFD PUSH2 0x2DA0 JUMP JUMPDEST TSTORE PUSH1 0x40 MLOAD SWAP1 DUP2 MSTORE SWAP1 DUP2 SWAP1 PUSH1 0x20 DUP3 ADD SWAP1 JUMP JUMPDEST PUSH2 0xBF1 SWAP2 SWAP3 SWAP4 PUSH2 0xAF3 JUMP JUMPDEST PUSH4 0xE1ECC133 PUSH1 0xE0 SHL PUSH0 MSTORE PUSH1 0x4 DUP5 SWAP1 MSTORE PUSH1 0x24 PUSH0 REVERT JUMPDEST CALLVALUE PUSH2 0x1EF JUMPI PUSH0 CALLDATASIZE PUSH1 0x3 NOT ADD SLT PUSH2 0x1EF JUMPI PUSH1 0x40 MLOAD PUSH32 0x0 PUSH1 0x1 PUSH1 0x1 PUSH1 0xA0 SHL SUB AND DUP2 MSTORE PUSH1 0x20 SWAP1 RETURN JUMPDEST CALLVALUE PUSH2 0x1EF JUMPI PUSH1 0x60 CALLDATASIZE PUSH1 0x3 NOT ADD SLT PUSH2 0x1EF JUMPI PUSH1 0x4 CALLDATALOAD PUSH2 0xC8E DUP2 PUSH2 0x1DE JUMP JUMPDEST PUSH2 0xCC9 PUSH1 0x24 CALLDATALOAD PUSH2 0xC9D DUP2 PUSH2 0x1DE JUMP JUMPDEST PUSH1 0x44 CALLDATALOAD SWAP3 PUSH1 0x1 DUP1 PUSH1 0xA0 SHL SUB AND PUSH0 MSTORE PUSH1 0x2 PUSH1 0x20 MSTORE PUSH1 0x40 PUSH0 KECCAK256 SWAP1 PUSH1 0x1 DUP1 PUSH1 0xA0 SHL SUB AND PUSH0 MSTORE PUSH1 0x20 MSTORE PUSH1 0x40 PUSH0 KECCAK256 SWAP1 JUMP JUMPDEST SWAP1 PUSH0 MSTORE PUSH1 0x20 MSTORE PUSH1 0x20 PUSH1 0x40 PUSH0 KECCAK256 SLOAD PUSH1 0x40 MLOAD SWAP1 DUP2 MSTORE RETURN JUMPDEST CALLVALUE PUSH2 0x1EF JUMPI PUSH1 0x20 CALLDATASIZE PUSH1 0x3 NOT ADD SLT PUSH2 0x1EF JUMPI PUSH1 0x40 PUSH1 0x1 PUSH1 0x1 PUSH1 0x80 SHL SUB PUSH2 0xD1D PUSH1 0x4 CALLDATALOAD PUSH0 MSTORE PUSH1 0x5 PUSH1 0x20 MSTORE PUSH1 0x40 PUSH0 KECCAK256 SLOAD SWAP1 PUSH1 0x1 PUSH1 0x1 PUSH1 0x80 SHL SUB DUP3 AND SWAP2 PUSH1 0x80 SHR SWAP1 JUMP JUMPDEST DUP4 MLOAD SWAP2 DUP4 AND DUP3 MSTORE SWAP1 SWAP2 AND PUSH1 0x20 DUP3 ADD MSTORE RETURN JUMPDEST SWAP1 PUSH1 0x60 PUSH1 0x3 NOT DUP4 ADD SLT PUSH2 0x1EF JUMPI PUSH1 0x4 CALLDATALOAD PUSH2 0xD47 DUP2 PUSH2 0x1DE JUMP JUMPDEST SWAP2 PUSH1 0x24 CALLDATALOAD SWAP2 PUSH1 0x1 PUSH1 0x1 PUSH1 0x40 SHL SUB DUP4 GT PUSH2 0x1EF JUMPI DUP2 PUSH1 0x23 DUP5 ADD SLT ISZERO PUSH2 0x1EF JUMPI DUP3 PUSH1 0x4 ADD CALLDATALOAD SWAP3 PUSH1 0x1 PUSH1 0x1 PUSH1 0x40 SHL SUB DUP5 GT PUSH2 0x1EF JUMPI DUP3 PUSH1 0x24 DUP6 DUP4 ADD ADD GT PUSH2 0x1EF JUMPI PUSH1 0x24 ADD SWAP3 SWAP2 PUSH1 0x44 CALLDATALOAD SWAP1 PUSH1 0x1 PUSH1 0x1 PUSH1 0x40 SHL SUB DUP3 GT PUSH2 0x1EF JUMPI PUSH2 0xDA8 SWAP2 PUSH1 0x4 ADD PUSH2 0x840 JUMP JUMPDEST SWAP1 SWAP2 JUMP JUMPDEST PUSH2 0xDB5 CALLDATASIZE PUSH2 0xD2E JUMP JUMPDEST SWAP4 SWAP2 PUSH2 0xDBF PUSH2 0x2DEF JUMP JUMPDEST SWAP3 PUSH2 0xDC9 DUP5 PUSH2 0x2DE3 JUMP JUMPDEST PUSH1 0x1 PUSH2 0xDD5 CALLER ADDRESS PUSH2 0x35D5 JUMP JUMPDEST TSTORE PUSH2 0xDDF CALLER PUSH2 0x2E58 JUMP JUMPDEST PUSH1 0x1 PUSH1 0x1 PUSH1 0xA0 SHL SUB AND SWAP4 DUP5 EXTCODESIZE ISZERO PUSH2 0x1EF JUMPI PUSH1 0x40 MLOAD PUSH4 0x1C6E7247 PUSH1 0xE3 SHL DUP2 MSTORE SWAP2 PUSH0 SWAP2 DUP4 SWAP2 PUSH2 0xE0F SWAP2 PUSH1 0x4 DUP5 ADD PUSH2 0x252E JUMP JUMPDEST SWAP6 DUP2 DUP4 DUP2 DUP2 SWAP10 SUB SWAP3 GAS CALL DUP1 ISZERO PUSH2 0xE73 JUMPI PUSH2 0xE55 JUMPI JUMPDEST POP DUP3 SWAP4 PUSH2 0xE37 PUSH2 0xE3D SWAP3 CALLVALUE SWAP3 CALLDATASIZE SWAP2 PUSH2 0x2555 JUMP JUMPDEST CALLER PUSH2 0x2F36 JUMP JUMPDEST PUSH2 0xE45 PUSH2 0x2FCE JUMP JUMPDEST PUSH0 PUSH2 0xE50 CALLER ADDRESS PUSH2 0x35D5 JUMP JUMPDEST TSTORE TSTORE DUP1 RETURN JUMPDEST PUSH2 0xE3D SWAP2 SWAP4 POP SWAP4 PUSH2 0xE69 PUSH0 PUSH2 0xE37 SWAP7 PUSH2 0x2D3 JUMP JUMPDEST PUSH0 SWAP4 SWAP2 POP SWAP4 PUSH2 0xE24 JUMP JUMPDEST PUSH2 0x1F2C JUMP JUMPDEST PUSH1 0x60 PUSH1 0x3 NOT DUP3 ADD SLT PUSH2 0x1EF JUMPI PUSH1 0x4 CALLDATALOAD SWAP1 PUSH1 0x1 PUSH1 0x1 PUSH1 0x40 SHL SUB DUP3 GT PUSH2 0x1EF JUMPI PUSH2 0xEA2 SWAP2 PUSH1 0x4 ADD PUSH2 0x43B JUMP JUMPDEST SWAP1 PUSH1 0x24 CALLDATALOAD PUSH1 0x1 PUSH1 0x1 PUSH1 0x80 SHL SUB DUP2 AND DUP2 SUB PUSH2 0x1EF JUMPI SWAP1 PUSH1 0x44 CALLDATALOAD PUSH1 0x1 PUSH1 0x1 PUSH1 0x80 SHL SUB DUP2 AND DUP2 SUB PUSH2 0x1EF JUMPI SWAP1 JUMP JUMPDEST CALLVALUE PUSH2 0x1EF JUMPI PUSH2 0xEE4 PUSH2 0xEDE CALLDATASIZE PUSH2 0xE78 JUMP JUMPDEST SWAP2 PUSH2 0x2653 JUMP JUMPDEST PUSH1 0x40 DUP1 MLOAD SWAP3 DUP4 MSTORE PUSH1 0x20 DUP4 ADD SWAP2 SWAP1 SWAP2 MSTORE SWAP1 RETURN JUMPDEST CALLVALUE PUSH2 0x1EF JUMPI PUSH1 0x20 CALLDATASIZE PUSH1 0x3 NOT ADD SLT PUSH2 0x1EF JUMPI PUSH2 0xFFFF PUSH2 0xF12 PUSH2 0x6F2 JUMP JUMPDEST AND PUSH0 SWAP1 DUP2 MSTORE PUSH1 0x3 PUSH1 0x20 MSTORE PUSH1 0x40 SWAP1 KECCAK256 DUP1 SLOAD PUSH1 0x1 PUSH1 0x1 PUSH1 0xA0 SHL SUB NOT AND SWAP1 SSTORE STOP JUMPDEST CALLVALUE PUSH2 0x1EF JUMPI PUSH1 0x20 CALLDATASIZE PUSH1 0x3 NOT ADD SLT PUSH2 0x1EF JUMPI PUSH2 0xFFFF PUSH2 0xF4C PUSH2 0x6F2 JUMP JUMPDEST AND PUSH0 MSTORE PUSH1 0x3 PUSH1 0x20 MSTORE PUSH1 0x20 PUSH1 0x1 DUP1 PUSH1 0xA0 SHL SUB PUSH1 0x40 PUSH0 KECCAK256 SLOAD AND PUSH1 0x40 MLOAD SWAP1 DUP2 MSTORE RETURN JUMPDEST CALLVALUE PUSH2 0x1EF JUMPI PUSH0 CALLDATASIZE PUSH1 0x3 NOT ADD SLT PUSH2 0x1EF JUMPI PUSH1 0x40 MLOAD PUSH32 0x0 PUSH1 0x1 PUSH1 0x1 PUSH1 0xA0 SHL SUB AND DUP2 MSTORE PUSH1 0x20 SWAP1 RETURN JUMPDEST PUSH1 0x60 CALLDATASIZE PUSH1 0x3 NOT ADD SLT PUSH2 0x1EF JUMPI PUSH1 0x4 CALLDATALOAD PUSH1 0x1 PUSH1 0x1 PUSH1 0x40 SHL SUB DUP2 GT PUSH2 0x1EF JUMPI PUSH2 0xFDA SWAP1 CALLDATASIZE SWAP1 PUSH1 0x4 ADD PUSH2 0x840 JUMP JUMPDEST PUSH1 0x44 CALLDATALOAD SWAP2 PUSH1 0x24 CALLDATALOAD PUSH2 0xFEC PUSH2 0xA69 PUSH2 0x2DA0 JUMP JUMPDEST PUSH2 0xFF4 PUSH2 0x3020 JUMP JUMPDEST SWAP1 PUSH1 0x1 PUSH1 0x1 PUSH1 0xA0 SHL SUB DUP3 AND ISZERO PUSH2 0x1158 JUMPI JUMPDEST PUSH2 0x1012 DUP5 SWAP4 SWAP5 ISZERO ISZERO PUSH2 0x306A JUMP JUMPDEST SWAP3 PUSH0 SWAP3 PUSH0 SWAP2 PUSH0 SWAP2 JUMPDEST DUP1 DUP4 LT PUSH2 0x107F JUMPI POP PUSH2 0x1038 SWAP2 POP PUSH2 0x1033 SWAP1 POP DUP4 ADDRESS PUSH2 0x35D5 JUMP JUMPDEST TLOAD ISZERO SWAP1 JUMP JUMPDEST PUSH2 0x106C JUMPI JUMPDEST POP POP POP DUP2 DUP2 LT PUSH2 0x1054 JUMPI PUSH2 0x62C SWAP1 PUSH0 PUSH2 0xBFD PUSH2 0x2DA0 JUMP JUMPDEST PUSH4 0xD438755D PUSH1 0xE0 SHL PUSH0 MSTORE PUSH1 0x4 SWAP2 SWAP1 SWAP2 MSTORE PUSH1 0x24 MSTORE PUSH1 0x44 PUSH0 REVERT JUMPDEST PUSH2 0x1077 SWAP3 CALLVALUE SWAP3 PUSH2 0x3226 JUMP JUMPDEST PUSH0 DUP1 DUP1 PUSH2 0x103D JUMP JUMPDEST SWAP1 SWAP2 SWAP6 PUSH2 0x108D DUP8 DUP4 DUP6 PUSH2 0x30A0 JUMP JUMPDEST SWAP1 DUP8 ISZERO DUP1 SWAP2 PUSH2 0x109B DUP6 PUSH2 0x246D JUMP JUMPDEST DUP11 EQ SWAP3 PUSH2 0x111B JUMPI JUMPDEST SWAP1 DUP3 SWAP2 DUP9 SWAP4 PUSH2 0x10D8 JUMPI JUMPDEST SWAP2 PUSH2 0x10C8 SWAP4 SWAP2 PUSH1 0x1 SWAP6 SWAP4 DUP2 PUSH0 EQ PUSH2 0x10D1 JUMPI CALLVALUE SWAP1 JUMPDEST ADDRESS SWAP6 PUSH2 0x38A7 JUMP JUMPDEST SWAP7 ADD SWAP2 SWAP1 PUSH2 0x101A JUMP JUMPDEST PUSH0 SWAP1 PUSH2 0x10C1 JUMP JUMPDEST SWAP7 POP SWAP2 DUP4 SWAP2 PUSH2 0x10C8 SWAP4 PUSH2 0x10EF PUSH1 0xA0 PUSH1 0x1 SWAP8 ADD PUSH2 0x30C2 JUMP JUMPDEST ISZERO PUSH2 0x110D JUMPI PUSH2 0x1100 PUSH1 0x20 DUP6 ADD PUSH2 0x24AE JUMP JUMPDEST SWAP9 SWAP2 SWAP4 SWAP6 POP SWAP2 SWAP4 POP PUSH2 0x10AD JUMP JUMPDEST PUSH2 0x1116 DUP5 PUSH2 0x24AE JUMP JUMPDEST PUSH2 0x1100 JUMP JUMPDEST DUP3 SWAP9 POP SWAP1 DUP8 SWAP3 SWAP2 PUSH2 0x112E PUSH1 0xA0 DUP7 ADD PUSH2 0x30C2 JUMP JUMPDEST ISZERO PUSH2 0x1147 JUMPI PUSH2 0x113C DUP6 PUSH2 0x24AE JUMP JUMPDEST SWAP10 POP SWAP1 SWAP2 SWAP3 POP PUSH2 0x10A3 JUMP JUMPDEST PUSH2 0x1153 PUSH1 0x20 DUP7 ADD PUSH2 0x24AE JUMP JUMPDEST PUSH2 0x113C JUMP JUMPDEST CALLER SWAP2 POP PUSH2 0x1005 JUMP JUMPDEST CALLVALUE PUSH2 0x1EF JUMPI PUSH1 0x20 CALLDATASIZE PUSH1 0x3 NOT ADD SLT PUSH2 0x1EF JUMPI PUSH1 0x4 CALLDATALOAD PUSH0 MSTORE PUSH1 0x4 PUSH1 0x20 MSTORE PUSH1 0x20 PUSH1 0x40 PUSH0 KECCAK256 SLOAD PUSH1 0x40 MLOAD SWAP1 DUP2 MSTORE RETURN JUMPDEST CALLVALUE PUSH2 0x1EF JUMPI PUSH1 0x40 CALLDATASIZE PUSH1 0x3 NOT ADD SLT PUSH2 0x1EF JUMPI PUSH1 0x20 PUSH1 0xFF PUSH2 0x11E1 PUSH1 0x4 CALLDATALOAD PUSH2 0x11AE DUP2 PUSH2 0x1DE JUMP JUMPDEST PUSH1 0x24 CALLDATALOAD SWAP1 PUSH2 0x11BB DUP3 PUSH2 0x1DE JUMP JUMPDEST PUSH1 0x1 DUP1 PUSH1 0xA0 SHL SUB AND PUSH0 MSTORE PUSH0 DUP5 MSTORE PUSH1 0x40 PUSH0 KECCAK256 SWAP1 PUSH1 0x1 DUP1 PUSH1 0xA0 SHL SUB AND PUSH0 MSTORE PUSH1 0x20 MSTORE PUSH1 0x40 PUSH0 KECCAK256 SWAP1 JUMP JUMPDEST SLOAD AND PUSH1 0x40 MLOAD SWAP1 ISZERO ISZERO DUP2 MSTORE RETURN JUMPDEST CALLVALUE PUSH2 0x1EF JUMPI PUSH1 0xA0 CALLDATASIZE PUSH1 0x3 NOT ADD SLT PUSH2 0x1EF JUMPI PUSH1 0x4 CALLDATALOAD PUSH2 0x120A DUP2 PUSH2 0x1DE JUMP JUMPDEST PUSH1 0x1 PUSH1 0x1 PUSH1 0x80 SHL SUB PUSH1 0x24 CALLDATALOAD PUSH2 0x121E DUP2 PUSH2 0x1DE JUMP JUMPDEST PUSH1 0x44 CALLDATALOAD SWAP3 PUSH2 0x122B DUP5 PUSH2 0x1DE JUMP JUMPDEST PUSH2 0x125B PUSH1 0x64 CALLDATALOAD PUSH2 0x123A DUP2 PUSH2 0x3B8 JUMP JUMPDEST PUSH1 0x84 CALLDATALOAD SWAP6 PUSH2 0x1249 PUSH2 0xA69 PUSH2 0x2DA0 JUMP JUMPDEST PUSH2 0x1254 DUP8 ISZERO ISZERO PUSH2 0x2984 JUMP JUMPDEST DUP5 DUP5 PUSH2 0x2BAC JUMP JUMPDEST SWAP4 PUSH2 0x12E4 PUSH2 0x12D2 DUP6 PUSH2 0x12CA PUSH2 0x12B1 PUSH2 0x128B DUP11 PUSH0 MSTORE PUSH1 0x5 PUSH1 0x20 MSTORE PUSH1 0x40 PUSH0 KECCAK256 SLOAD SWAP1 PUSH1 0x1 PUSH1 0x1 PUSH1 0x80 SHL SUB DUP3 AND SWAP2 PUSH1 0x80 SHR SWAP1 JUMP JUMPDEST SWAP10 SWAP1 PUSH2 0x12AA PUSH2 0x12A2 DUP14 PUSH0 MSTORE PUSH1 0x4 PUSH1 0x20 MSTORE PUSH1 0x40 PUSH0 KECCAK256 SWAP1 JUMP JUMPDEST SLOAD ISZERO ISZERO PUSH2 0x29D0 JUMP JUMPDEST AND DUP7 PUSH2 0x2A5B JUMP JUMPDEST PUSH2 0x12C3 DUP11 PUSH0 MSTORE PUSH1 0x4 PUSH1 0x20 MSTORE PUSH1 0x40 PUSH0 KECCAK256 SWAP1 JUMP JUMPDEST SLOAD SWAP1 PUSH2 0x2A6E JUMP JUMPDEST SWAP7 AND DUP4 PUSH2 0x2A5B JUMP JUMPDEST PUSH2 0x12C3 DUP8 PUSH0 MSTORE PUSH1 0x4 PUSH1 0x20 MSTORE PUSH1 0x40 PUSH0 KECCAK256 SWAP1 JUMP JUMPDEST SWAP5 DUP5 ISZERO DUP1 PUSH2 0x1457 JUMPI JUMPDEST PUSH2 0x143E JUMPI PUSH2 0x12F9 PUSH2 0x3020 JUMP JUMPDEST SWAP1 PUSH1 0x1 PUSH1 0x1 PUSH1 0xA0 SHL SUB DUP3 AND ISZERO PUSH2 0x1436 JUMPI JUMPDEST DUP3 PUSH2 0x131A DUP4 SWAP5 DUP4 PUSH2 0x1369 SWAP6 PUSH2 0x30CC JUMP JUMPDEST PUSH2 0x1337 PUSH2 0x132F DUP4 PUSH0 MSTORE PUSH1 0x4 PUSH1 0x20 MSTORE PUSH1 0x40 PUSH0 KECCAK256 SWAP1 JUMP JUMPDEST SWAP2 DUP3 SLOAD PUSH2 0x247B JUMP JUMPDEST SWAP1 SSTORE PUSH2 0x134E PUSH1 0x1 PUSH1 0x1 PUSH1 0x80 SHL SUB DUP8 AND PUSH1 0xF SIGNEXTEND PUSH2 0x2A8C JUMP JUMPDEST PUSH2 0x1363 PUSH1 0x1 PUSH1 0x1 PUSH1 0x80 SHL SUB DUP10 AND PUSH1 0xF SIGNEXTEND PUSH2 0x2A8C JUMP JUMPDEST SWAP2 PUSH2 0x314B JUMP JUMPDEST PUSH1 0x1 PUSH1 0x1 PUSH1 0xA0 SHL SUB DUP4 DUP2 AND SWAP1 DUP4 AND LT SWAP2 PUSH2 0x13AA SWAP1 DUP4 ISZERO PUSH2 0x142A JUMPI PUSH2 0x13A3 DUP7 SWAP6 DUP9 SWAP3 JUMPDEST DUP7 ISZERO PUSH2 0x1423 JUMPI DUP1 SWAP7 JUMPDEST ISZERO PUSH2 0x141B JUMPI POP SWAP6 JUMPDEST DUP6 DUP6 PUSH2 0x31A1 JUMP JUMPDEST DUP5 DUP4 PUSH2 0x31A1 JUMP JUMPDEST PUSH2 0x13B7 PUSH2 0x1033 DUP3 ADDRESS PUSH2 0x35D5 JUMP JUMPDEST PUSH2 0x13DA JUMPI JUMPDEST POP POP POP PUSH0 PUSH2 0x13C8 PUSH2 0x2DA0 JUMP JUMPDEST TSTORE PUSH1 0x40 DUP1 MLOAD SWAP2 DUP3 MSTORE PUSH1 0x20 DUP3 ADD SWAP3 SWAP1 SWAP3 MSTORE RETURN JUMPDEST PUSH2 0x140E PUSH2 0x1413 SWAP4 PUSH2 0x1405 PUSH2 0x13EC PUSH2 0x2AAC JUMP JUMPDEST SWAP5 PUSH2 0x13F6 DUP7 PUSH2 0x1D29 JUMP JUMPDEST PUSH1 0x1 PUSH1 0x1 PUSH1 0xA0 SHL SUB SWAP1 SWAP2 AND SWAP1 MSTORE JUMP JUMPDEST PUSH2 0x13F6 DUP5 PUSH2 0x1D3B JUMP JUMPDEST PUSH2 0x2EA1 JUMP JUMPDEST PUSH0 DUP1 DUP1 PUSH2 0x13BC JUMP JUMPDEST SWAP1 POP SWAP6 PUSH2 0x139C JUMP JUMPDEST DUP2 SWAP7 PUSH2 0x1394 JUMP JUMPDEST PUSH2 0x13A3 DUP8 SWAP6 DUP8 SWAP3 PUSH2 0x138B JUMP JUMPDEST CALLER SWAP2 POP PUSH2 0x130A JUMP JUMPDEST PUSH4 0xD5DE6205 PUSH1 0xE0 SHL PUSH0 MSTORE PUSH1 0x4 DUP6 SWAP1 MSTORE PUSH1 0x24 DUP7 SWAP1 MSTORE PUSH1 0x44 PUSH0 REVERT JUMPDEST POP DUP6 ISZERO PUSH2 0x12ED JUMP JUMPDEST PUSH1 0xE0 CALLDATASIZE PUSH1 0x3 NOT ADD SLT PUSH2 0x1EF JUMPI PUSH1 0x4 CALLDATALOAD PUSH2 0x1477 DUP2 PUSH2 0x1DE JUMP JUMPDEST PUSH1 0x24 CALLDATALOAD SWAP1 PUSH2 0x1484 DUP3 PUSH2 0x1DE JUMP JUMPDEST PUSH1 0x44 CALLDATALOAD SWAP1 PUSH2 0x1491 DUP3 PUSH2 0x1DE JUMP JUMPDEST PUSH1 0x64 CALLDATALOAD PUSH2 0x149D DUP2 PUSH2 0x3B8 JUMP JUMPDEST PUSH1 0x84 CALLDATALOAD PUSH1 0xA4 CALLDATALOAD SWAP3 PUSH2 0x14AD DUP5 PUSH2 0x3A3 JUMP JUMPDEST PUSH1 0xC4 CALLDATALOAD SWAP3 PUSH2 0x14BC PUSH2 0xA69 PUSH2 0x2DA0 JUMP JUMPDEST PUSH2 0x14C4 PUSH2 0x3020 JUMP JUMPDEST SWAP4 PUSH1 0x1 PUSH1 0x1 PUSH1 0xA0 SHL SUB DUP6 AND ISZERO PUSH2 0x16C3 JUMPI JUMPDEST PUSH2 0x14E1 DUP3 DUP9 DUP11 DUP7 PUSH2 0x2BAC JUMP JUMPDEST SWAP2 DUP9 PUSH2 0x1505 DUP5 PUSH0 MSTORE PUSH1 0x5 PUSH1 0x20 MSTORE PUSH1 0x40 PUSH0 KECCAK256 SLOAD SWAP1 PUSH1 0x1 PUSH1 0x1 PUSH1 0x80 SHL SUB DUP3 AND SWAP2 PUSH1 0x80 SHR SWAP1 JUMP JUMPDEST SWAP10 SWAP1 DUP1 SWAP4 DUP12 SWAP3 DUP10 PUSH2 0x1514 PUSH2 0x1CC1 JUMP JUMPDEST PUSH2 0x151C PUSH2 0x1CC1 JUMP JUMPDEST SWAP3 PUSH2 0x1525 PUSH2 0x2F4 JUMP JUMPDEST PUSH1 0x1 PUSH1 0x1 PUSH1 0xA0 SHL SUB DUP14 AND DUP2 MSTORE SWAP8 PUSH1 0x1 PUSH1 0x1 PUSH1 0xA0 SHL SUB AND PUSH1 0x20 DUP10 ADD MSTORE PUSH1 0x1 PUSH1 0x1 PUSH1 0xA0 SHL SUB AND PUSH1 0x40 DUP9 ADD MSTORE PUSH1 0x60 DUP8 ADD SWAP1 DUP2 MSTORE DUP14 ISZERO ISZERO PUSH1 0x80 DUP9 ADD MSTORE PUSH1 0xA0 DUP8 ADD SWAP3 DUP4 MSTORE MLOAD PUSH2 0x156E SWAP1 PUSH2 0x1D29 JUMP JUMPDEST MSTORE MLOAD PUSH2 0x1579 SWAP1 PUSH2 0x1D29 JUMP JUMPDEST PUSH1 0x1 PUSH1 0x1 PUSH1 0xE8 SHL SUB NOT SWAP1 SWAP2 AND SWAP1 MSTORE PUSH2 0x1590 SWAP3 PUSH2 0x2653 JUMP JUMPDEST POP SWAP8 DUP9 ISZERO PUSH2 0x16B4 JUMPI DUP9 DUP9 SWAP2 PUSH2 0x15A4 SWAP4 PUSH2 0x31B4 JUMP JUMPDEST DUP1 DUP8 LT PUSH2 0x169D JUMPI POP PUSH2 0x62C SWAP7 PUSH2 0x161D SWAP3 PUSH2 0x1616 SWAP3 PUSH2 0x1601 SWAP1 PUSH1 0x1 PUSH1 0x1 PUSH1 0xA0 SHL SUB DUP1 DUP6 AND SWAP1 DUP5 AND LT ISZERO PUSH2 0x1696 JUMPI DUP9 JUMPDEST DUP1 ISZERO PUSH2 0x167B JUMPI PUSH1 0x1 PUSH1 0x1 PUSH1 0x80 SHL SUB DUP9 AND PUSH1 0xF SIGNEXTEND SWAP1 JUMPDEST ISZERO PUSH2 0x1668 JUMPI PUSH2 0x1363 PUSH1 0x1 PUSH1 0x1 PUSH1 0x80 SHL SUB DUP13 AND PUSH1 0xF SIGNEXTEND PUSH2 0x2A8C JUMP JUMPDEST DUP7 ISZERO PUSH2 0x1661 JUMPI DUP1 SWAP7 JUMPDEST ISZERO PUSH2 0x1659 JUMPI POP SWAP3 PUSH2 0x2ACE JUMP JUMPDEST DUP5 DUP5 PUSH2 0x31A1 JUMP JUMPDEST PUSH2 0x1628 DUP5 DUP3 DUP5 PUSH2 0x31A1 JUMP JUMPDEST PUSH2 0x1635 PUSH2 0x1033 DUP4 ADDRESS PUSH2 0x35D5 JUMP JUMPDEST PUSH2 0x1646 JUMPI JUMPDEST POP POP POP PUSH0 PUSH2 0xBFD PUSH2 0x2DA0 JUMP JUMPDEST PUSH2 0x1651 SWAP3 CALLVALUE SWAP3 PUSH2 0x3226 JUMP JUMPDEST PUSH0 DUP1 DUP1 PUSH2 0x163A JUMP JUMPDEST SWAP1 POP SWAP3 PUSH2 0x2ACE JUMP JUMPDEST DUP2 SWAP7 PUSH2 0x160A JUMP JUMPDEST PUSH1 0x1 PUSH1 0x1 PUSH1 0x80 SHL SUB DUP9 AND PUSH1 0xF SIGNEXTEND SWAP2 PUSH2 0x314B JUMP JUMPDEST PUSH2 0x1690 PUSH1 0x1 PUSH1 0x1 PUSH1 0x80 SHL SUB DUP13 AND PUSH1 0xF SIGNEXTEND PUSH2 0x2A8C JUMP JUMPDEST SWAP1 PUSH2 0x15E7 JUMP JUMPDEST DUP9 ISZERO PUSH2 0x15D2 JUMP JUMPDEST PUSH4 0xD438755D PUSH1 0xE0 SHL PUSH0 MSTORE PUSH1 0x4 MSTORE PUSH1 0x24 DUP7 SWAP1 MSTORE PUSH1 0x44 PUSH0 REVERT JUMPDEST PUSH4 0x14033F21 PUSH1 0xE1 SHL PUSH0 MSTORE PUSH1 0x4 PUSH0 REVERT JUMPDEST CALLER SWAP5 POP PUSH2 0x14D5 JUMP JUMPDEST PUSH1 0xC0 CALLDATASIZE PUSH1 0x3 NOT ADD SLT PUSH2 0x1EF JUMPI PUSH1 0x4 CALLDATALOAD PUSH2 0x16E3 DUP2 PUSH2 0x1DE JUMP JUMPDEST PUSH1 0x24 CALLDATALOAD PUSH2 0x16EF DUP2 PUSH2 0x1DE JUMP JUMPDEST PUSH1 0x44 CALLDATALOAD SWAP2 PUSH2 0x16FC DUP4 PUSH2 0x1DE JUMP JUMPDEST PUSH1 0x64 CALLDATALOAD PUSH2 0x1708 DUP2 PUSH2 0x3B8 JUMP JUMPDEST PUSH1 0xA4 CALLDATALOAD SWAP3 PUSH1 0x84 CALLDATALOAD PUSH2 0x171A PUSH2 0xA69 PUSH2 0x2DA0 JUMP JUMPDEST PUSH2 0x1726 DUP4 DUP8 DUP5 DUP8 PUSH2 0x2BAC JUMP JUMPDEST PUSH1 0x1 PUSH1 0x1 PUSH1 0xA0 SHL SUB DUP4 DUP2 AND SWAP1 DUP7 AND LT SWAP5 SWAP1 SWAP2 SWAP1 DUP6 ISZERO PUSH2 0x1958 JUMPI SWAP3 SWAP5 JUMPDEST ISZERO PUSH2 0x1952 JUMPI SWAP5 SWAP3 JUMPDEST PUSH0 DUP3 DUP2 MSTORE PUSH1 0x5 PUSH1 0x20 MSTORE PUSH1 0x40 SWAP1 KECCAK256 SLOAD PUSH1 0x1 PUSH1 0x1 PUSH1 0x80 SHL SUB DUP2 AND SWAP1 PUSH1 0x80 SHR SWAP2 SWAP1 SWAP8 PUSH2 0x177B DUP5 PUSH0 MSTORE PUSH1 0x4 PUSH1 0x20 MSTORE PUSH1 0x40 PUSH0 KECCAK256 SWAP1 JUMP JUMPDEST SLOAD PUSH2 0x1899 JUMPI POP POP PUSH2 0x62C SWAP7 DUP3 PUSH2 0x17B8 SWAP3 DUP9 ISZERO ISZERO DUP1 PUSH2 0x1890 JUMPI JUMPDEST PUSH2 0x179D SWAP1 PUSH2 0x2ADE JUMP JUMPDEST PUSH2 0x17AF DUP8 PUSH2 0x17AA DUP12 PUSH2 0x2A13 JUMP JUMPDEST PUSH2 0x2A6E JUMP JUMPDEST SWAP3 JUMPDEST DUP8 DUP11 PUSH2 0x3393 JUMP JUMPDEST SWAP5 PUSH2 0x17C1 PUSH2 0x3020 JUMP JUMPDEST SWAP4 PUSH1 0x1 PUSH1 0x1 PUSH1 0xA0 SHL SUB DUP6 AND ISZERO PUSH2 0x1888 JUMPI JUMPDEST DUP2 PUSH1 0x1 PUSH1 0x1 PUSH1 0x80 SHL SUB DUP1 PUSH2 0x1819 SWAP4 PUSH2 0x17F7 PUSH2 0x17F0 PUSH2 0x1832 SWAP9 SWAP8 PUSH2 0x2ACE JUMP JUMPDEST DUP10 DUP12 PUSH2 0x31A1 JUMP JUMPDEST PUSH2 0x180A PUSH2 0x1803 DUP3 PUSH2 0x2ACE JUMP JUMPDEST DUP12 DUP12 PUSH2 0x31A1 JUMP JUMPDEST AND PUSH1 0xF SIGNEXTEND SWAP2 AND PUSH1 0xF SIGNEXTEND DUP4 PUSH2 0x314B JUMP JUMPDEST PUSH2 0x1824 DUP7 DUP3 DUP7 PUSH2 0x3460 JUMP JUMPDEST PUSH0 MSTORE PUSH1 0x4 PUSH1 0x20 MSTORE PUSH1 0x40 PUSH0 KECCAK256 SWAP1 JUMP JUMPDEST PUSH2 0x183D DUP6 DUP3 SLOAD PUSH2 0x2488 JUMP JUMPDEST SWAP1 SSTORE PUSH2 0x184C PUSH2 0x1033 DUP4 ADDRESS PUSH2 0x35D5 JUMP JUMPDEST PUSH2 0x185C JUMPI POP POP POP PUSH0 PUSH2 0xBFD PUSH2 0x2DA0 JUMP JUMPDEST PUSH2 0x1881 PUSH2 0x1651 SWAP4 PUSH2 0x1878 PUSH2 0x186E PUSH2 0x2AAC JUMP JUMPDEST SWAP4 PUSH2 0x13F6 DUP6 PUSH2 0x1D29 JUMP JUMPDEST PUSH2 0x13F6 DUP4 PUSH2 0x1D3B JUMP JUMPDEST CALLVALUE SWAP2 PUSH2 0x2F36 JUMP JUMPDEST CALLER SWAP5 POP PUSH2 0x17D2 JUMP JUMPDEST POP DUP7 ISZERO ISZERO PUSH2 0x1794 JUMP JUMPDEST DUP9 DUP6 PUSH2 0x1936 PUSH2 0x193B SWAP5 PUSH2 0x1926 DUP12 PUSH8 0xDE0B6B3A7640000 PUSH2 0x191F DUP11 SWAP9 PUSH2 0x1906 PUSH2 0x18BF PUSH2 0x1CC1 JUMP JUMPDEST SWAP2 PUSH2 0x18F6 PUSH2 0x18CB PUSH2 0x1CC1 JUMP JUMPDEST SWAP7 PUSH2 0x18E6 PUSH2 0x18D7 PUSH2 0x2F4 JUMP JUMPDEST PUSH1 0x1 PUSH1 0x1 PUSH1 0xA0 SHL SUB SWAP1 SWAP14 AND DUP14 MSTORE JUMP JUMPDEST PUSH1 0x1 PUSH1 0x1 PUSH1 0xA0 SHL SUB AND PUSH1 0x20 DUP13 ADD MSTORE JUMP JUMPDEST PUSH1 0x1 PUSH1 0x1 PUSH1 0xA0 SHL SUB AND PUSH1 0x40 DUP11 ADD MSTORE JUMP JUMPDEST PUSH1 0x60 DUP9 ADD DUP2 SWAP1 MSTORE PUSH0 PUSH1 0x80 DUP10 ADD MSTORE PUSH1 0xA0 DUP9 ADD SWAP4 DUP5 MSTORE PUSH2 0x1D29 JUMP JUMPDEST MSTORE MLOAD PUSH2 0x1D29 JUMP JUMPDEST PUSH1 0x1 PUSH1 0x1 PUSH1 0xE8 SHL SUB NOT SWAP1 SWAP2 AND SWAP1 MSTORE JUMP JUMPDEST PUSH2 0x2653 JUMP JUMPDEST POP SWAP7 DUP8 ISZERO PUSH2 0x16B4 JUMPI DUP3 PUSH2 0x17B8 SWAP3 PUSH2 0x62C SWAP10 SWAP3 PUSH2 0x17B1 JUMP JUMPDEST SWAP3 PUSH2 0x174A JUMP JUMPDEST SWAP5 PUSH2 0x1742 JUMP JUMPDEST PUSH2 0x1967 CALLDATASIZE PUSH2 0xD2E JUMP JUMPDEST PUSH0 SWAP5 SWAP4 SWAP2 SWAP3 SWAP5 SWAP2 PUSH2 0x1976 PUSH2 0x2DEF JUMP JUMPDEST SWAP5 PUSH2 0x1980 DUP7 PUSH2 0x2DE3 JUMP JUMPDEST PUSH1 0x1 PUSH2 0x198C CALLER ADDRESS PUSH2 0x35D5 JUMP JUMPDEST TSTORE PUSH2 0x1996 CALLER PUSH2 0x2E58 JUMP JUMPDEST PUSH1 0x1 PUSH1 0x1 PUSH1 0xA0 SHL SUB AND SWAP6 DUP7 EXTCODESIZE ISZERO PUSH2 0x1EF JUMPI PUSH2 0x19CA SWAP7 PUSH0 SWAP3 DUP4 PUSH1 0x40 MLOAD DUP1 SWAP11 DUP2 SWAP6 DUP3 SWAP5 PUSH4 0x1C6E7247 PUSH1 0xE3 SHL DUP5 MSTORE PUSH1 0x4 DUP5 ADD PUSH2 0x252E JUMP JUMPDEST SUB SWAP3 GAS CALL SWAP5 DUP6 ISZERO PUSH2 0xE73 JUMPI PUSH2 0x62C SWAP6 PUSH2 0x1A18 JUMPI JUMPDEST POP PUSH2 0x19F9 SWAP2 SWAP3 PUSH2 0x19F3 CALLVALUE PUSH2 0xE37 CALLDATASIZE DUP6 DUP6 PUSH2 0x2555 JUMP JUMPDEST CALLER PUSH2 0x24B8 JUMP JUMPDEST SWAP2 PUSH2 0x1A02 PUSH2 0x2FCE JUMP JUMPDEST PUSH2 0x1A0B CALLER PUSH2 0x3012 JUMP JUMPDEST TSTORE PUSH1 0x40 MLOAD SWAP2 DUP3 SWAP2 DUP3 PUSH2 0x870 JUMP JUMPDEST PUSH2 0x19F9 SWAP3 POP PUSH0 PUSH2 0x1A27 SWAP2 PUSH2 0x2D3 JUMP JUMPDEST PUSH0 SWAP2 PUSH2 0x19DE JUMP JUMPDEST PUSH1 0x1 PUSH1 0x1 PUSH1 0x40 SHL SUB DUP2 GT PUSH2 0x2CE JUMPI PUSH1 0x1F ADD PUSH1 0x1F NOT AND PUSH1 0x20 ADD SWAP1 JUMP JUMPDEST DUP1 MLOAD DUP1 DUP4 MSTORE PUSH1 0x20 SWAP3 SWAP2 DUP2 SWAP1 DUP5 ADD DUP5 DUP5 ADD MCOPY PUSH0 DUP3 DUP3 ADD DUP5 ADD MSTORE PUSH1 0x1F ADD PUSH1 0x1F NOT AND ADD ADD SWAP1 JUMP JUMPDEST SWAP1 SWAP2 PUSH2 0x1A84 PUSH2 0x3A0 SWAP4 PUSH1 0x40 DUP5 MSTORE PUSH1 0x40 DUP5 ADD SWAP1 PUSH2 0x1A49 JUMP JUMPDEST SWAP2 PUSH1 0x20 DUP2 DUP5 SUB SWAP2 ADD MSTORE PUSH2 0x1A49 JUMP JUMPDEST CALLVALUE PUSH2 0x1EF JUMPI PUSH1 0x20 CALLDATASIZE PUSH1 0x3 NOT ADD SLT PUSH2 0x1EF JUMPI PUSH1 0x4 CALLDATALOAD PUSH1 0x1 PUSH1 0x1 PUSH1 0x40 SHL SUB DUP2 GT PUSH2 0x1EF JUMPI CALLDATASIZE PUSH1 0x23 DUP3 ADD SLT ISZERO PUSH2 0x1EF JUMPI DUP1 PUSH1 0x4 ADD CALLDATALOAD PUSH2 0x1ACD DUP2 PUSH2 0x1A2E JUMP JUMPDEST SWAP1 PUSH2 0x1ADB PUSH1 0x40 MLOAD SWAP3 DUP4 PUSH2 0x2D3 JUMP JUMPDEST DUP1 DUP3 MSTORE CALLDATASIZE PUSH1 0x24 DUP3 DUP6 ADD ADD GT PUSH2 0x1EF JUMPI PUSH1 0x20 DUP2 PUSH0 SWAP3 PUSH1 0x24 PUSH2 0x1B03 SWAP7 ADD DUP4 DUP7 ADD CALLDATACOPY DUP4 ADD ADD MSTORE PUSH2 0x2B2A JUMP JUMPDEST SWAP1 PUSH2 0x62C PUSH1 0x40 MLOAD SWAP3 DUP4 SWAP3 DUP4 PUSH2 0x1A6D JUMP JUMPDEST CALLVALUE PUSH2 0x1EF JUMPI PUSH1 0x80 CALLDATASIZE PUSH1 0x3 NOT ADD SLT PUSH2 0x1EF JUMPI PUSH1 0x4 CALLDATALOAD PUSH2 0x1B30 DUP2 PUSH2 0x1DE JUMP JUMPDEST PUSH1 0x24 CALLDATALOAD PUSH2 0x1B3C DUP2 PUSH2 0x1DE JUMP JUMPDEST PUSH1 0x44 CALLDATALOAD SWAP2 PUSH0 MLOAD PUSH1 0x20 PUSH2 0x4162 PUSH0 CODECOPY PUSH0 MLOAD SWAP1 PUSH0 MSTORE PUSH2 0x6DE PUSH1 0x64 CALLDATALOAD SWAP4 PUSH1 0x1 PUSH1 0x1 PUSH1 0xA0 SHL SUB DUP5 AND SWAP4 PUSH2 0x1B9E SWAP1 DUP8 SWAP1 PUSH2 0x1B91 SWAP1 CALLER DUP9 EQ ISZERO DUP1 PUSH2 0x1C8D JUMPI JUMPDEST PUSH2 0x1BFD JUMPI PUSH1 0x1 PUSH1 0x1 PUSH1 0xA0 SHL SUB AND PUSH0 SWAP1 DUP2 MSTORE PUSH1 0x1 PUSH1 0x20 MSTORE PUSH1 0x40 SWAP1 KECCAK256 SWAP1 JUMP JUMPDEST SWAP1 PUSH0 MSTORE PUSH1 0x20 MSTORE PUSH1 0x40 PUSH0 KECCAK256 SWAP1 JUMP JUMPDEST PUSH2 0x1BA9 DUP7 DUP3 SLOAD PUSH2 0x247B JUMP JUMPDEST SWAP1 SSTORE PUSH1 0x1 PUSH1 0x1 PUSH1 0xA0 SHL SUB DUP2 AND PUSH0 SWAP1 DUP2 MSTORE PUSH1 0x1 PUSH1 0x20 MSTORE PUSH1 0x40 SWAP1 KECCAK256 PUSH2 0x1BCD SWAP1 DUP8 SWAP1 PUSH2 0x1B91 JUMP JUMPDEST PUSH2 0x1BD8 DUP7 DUP3 SLOAD PUSH2 0x2488 JUMP JUMPDEST SWAP1 SSTORE PUSH1 0x40 DUP1 MLOAD CALLER DUP2 MSTORE PUSH1 0x20 DUP2 ADD SWAP7 SWAP1 SWAP7 MSTORE PUSH1 0x1 PUSH1 0x1 PUSH1 0xA0 SHL SUB SWAP1 SWAP2 AND SWAP5 SWAP2 DUP3 SWAP2 DUP3 ADD SWAP1 JUMP JUMPDEST PUSH2 0x1C34 DUP4 PUSH2 0x1B91 CALLER PUSH2 0x1C1F DUP6 PUSH1 0x1 DUP1 PUSH1 0xA0 SHL SUB AND PUSH0 MSTORE PUSH1 0x2 PUSH1 0x20 MSTORE PUSH1 0x40 PUSH0 KECCAK256 SWAP1 JUMP JUMPDEST SWAP1 PUSH1 0x1 DUP1 PUSH1 0xA0 SHL SUB AND PUSH0 MSTORE PUSH1 0x20 MSTORE PUSH1 0x40 PUSH0 KECCAK256 SWAP1 JUMP JUMPDEST SLOAD DUP10 PUSH1 0x1 DUP3 ADD PUSH2 0x1C5A JUMPI JUMPDEST POP POP PUSH1 0x1 PUSH1 0x1 PUSH1 0xA0 SHL SUB AND PUSH0 SWAP1 DUP2 MSTORE PUSH1 0x1 PUSH1 0x20 MSTORE PUSH1 0x40 SWAP1 KECCAK256 SWAP1 JUMP JUMPDEST PUSH2 0x1C63 SWAP2 PUSH2 0x247B JUMP JUMPDEST PUSH2 0x1C85 DUP5 PUSH2 0x1B91 CALLER PUSH2 0x1C1F DUP7 PUSH1 0x1 DUP1 PUSH1 0xA0 SHL SUB AND PUSH0 MSTORE PUSH1 0x2 PUSH1 0x20 MSTORE PUSH1 0x40 PUSH0 KECCAK256 SWAP1 JUMP JUMPDEST SSTORE PUSH0 DUP10 PUSH2 0x1C3F JUMP JUMPDEST POP PUSH2 0x1CBC PUSH2 0x1CB8 PUSH2 0x1CB1 CALLER PUSH2 0x1C1F DUP6 PUSH1 0x1 DUP1 PUSH1 0xA0 SHL SUB AND PUSH0 MSTORE PUSH0 PUSH1 0x20 MSTORE PUSH1 0x40 PUSH0 KECCAK256 SWAP1 JUMP JUMPDEST SLOAD PUSH1 0xFF AND SWAP1 JUMP JUMPDEST ISZERO SWAP1 JUMP JUMPDEST PUSH2 0x1B74 JUMP JUMPDEST PUSH1 0x40 DUP1 MLOAD SWAP1 SWAP2 SWAP1 PUSH2 0x1CD2 DUP4 DUP3 PUSH2 0x2D3 JUMP JUMPDEST PUSH1 0x1 DUP2 MSTORE SWAP2 PUSH1 0x1F NOT ADD CALLDATASIZE PUSH1 0x20 DUP5 ADD CALLDATACOPY JUMP JUMPDEST SWAP1 PUSH2 0x1CED DUP3 PUSH2 0x322 JUMP JUMPDEST PUSH2 0x1CFA PUSH1 0x40 MLOAD SWAP2 DUP3 PUSH2 0x2D3 JUMP JUMPDEST DUP3 DUP2 MSTORE DUP1 SWAP3 PUSH2 0x1D0B PUSH1 0x1F NOT SWAP2 PUSH2 0x322 JUMP JUMPDEST ADD SWAP1 PUSH1 0x20 CALLDATASIZE SWAP2 ADD CALLDATACOPY JUMP JUMPDEST PUSH4 0x4E487B71 PUSH1 0xE0 SHL PUSH0 MSTORE PUSH1 0x32 PUSH1 0x4 MSTORE PUSH1 0x24 PUSH0 REVERT JUMPDEST DUP1 MLOAD ISZERO PUSH2 0x1D36 JUMPI PUSH1 0x20 ADD SWAP1 JUMP JUMPDEST PUSH2 0x1D15 JUMP JUMPDEST DUP1 MLOAD PUSH1 0x1 LT ISZERO PUSH2 0x1D36 JUMPI PUSH1 0x40 ADD SWAP1 JUMP JUMPDEST DUP1 MLOAD DUP3 LT ISZERO PUSH2 0x1D36 JUMPI PUSH1 0x20 SWAP2 PUSH1 0x5 SHL ADD ADD SWAP1 JUMP JUMPDEST PUSH1 0x40 MLOAD SWAP1 PUSH2 0x1D6E PUSH1 0x20 DUP4 PUSH2 0x2D3 JUMP JUMPDEST PUSH0 DUP3 MSTORE JUMP JUMPDEST SWAP1 DUP1 PUSH1 0x1F DUP4 ADD SLT ISZERO PUSH2 0x1EF JUMPI DUP2 MLOAD PUSH2 0x1D8A DUP2 PUSH2 0x322 JUMP JUMPDEST SWAP3 PUSH2 0x1D98 PUSH1 0x40 MLOAD SWAP5 DUP6 PUSH2 0x2D3 JUMP JUMPDEST DUP2 DUP5 MSTORE PUSH1 0x20 DUP1 DUP6 ADD SWAP3 PUSH1 0x5 SHL DUP3 ADD ADD SWAP3 DUP4 GT PUSH2 0x1EF JUMPI PUSH1 0x20 ADD SWAP1 JUMPDEST DUP3 DUP3 LT PUSH2 0x1DC0 JUMPI POP POP POP SWAP1 JUMP JUMPDEST DUP2 MLOAD DUP2 MSTORE PUSH1 0x20 SWAP2 DUP3 ADD SWAP2 ADD PUSH2 0x1DB3 JUMP JUMPDEST SWAP1 PUSH1 0x20 DUP3 DUP3 SUB SLT PUSH2 0x1EF JUMPI DUP2 MLOAD PUSH1 0x1 PUSH1 0x1 PUSH1 0x40 SHL SUB DUP2 GT PUSH2 0x1EF JUMPI PUSH2 0x3A0 SWAP3 ADD PUSH2 0x1D73 JUMP JUMPDEST SWAP1 PUSH1 0x20 DUP1 DUP4 MLOAD SWAP3 DUP4 DUP2 MSTORE ADD SWAP3 ADD SWAP1 PUSH0 JUMPDEST DUP2 DUP2 LT PUSH2 0x1E12 JUMPI POP POP POP SWAP1 JUMP JUMPDEST DUP3 MLOAD PUSH1 0x1 PUSH1 0x1 PUSH1 0x80 SHL SUB AND DUP5 MSTORE PUSH1 0x20 SWAP4 DUP5 ADD SWAP4 SWAP1 SWAP3 ADD SWAP2 PUSH1 0x1 ADD PUSH2 0x1E05 JUMP JUMPDEST SWAP1 PUSH1 0x20 DUP1 DUP4 MLOAD SWAP3 DUP4 DUP2 MSTORE ADD SWAP3 ADD SWAP1 PUSH0 JUMPDEST DUP2 DUP2 LT PUSH2 0x1E4E JUMPI POP POP POP SWAP1 JUMP JUMPDEST DUP3 MLOAD PUSH2 0xFFFF AND DUP5 MSTORE PUSH1 0x20 SWAP4 DUP5 ADD SWAP4 SWAP1 SWAP3 ADD SWAP2 PUSH1 0x1 ADD PUSH2 0x1E41 JUMP JUMPDEST PUSH1 0x40 DUP1 DUP3 MSTORE DUP3 MLOAD PUSH1 0x1 PUSH1 0x1 PUSH1 0xA0 SHL SUB AND SWAP1 DUP3 ADD MSTORE PUSH2 0x3A0 SWAP3 SWAP1 PUSH1 0x20 DUP4 ADD MLOAD PUSH1 0x1 PUSH1 0x1 PUSH1 0xA0 SHL SUB AND PUSH1 0x60 DUP3 ADD MSTORE PUSH1 0x40 DUP4 ADD MLOAD PUSH1 0x1 PUSH1 0x1 PUSH1 0xA0 SHL SUB AND PUSH1 0x80 DUP3 ADD MSTORE PUSH2 0x1F1F PUSH1 0xE0 PUSH2 0x1F12 PUSH2 0x1EFB PUSH2 0x1EE6 PUSH2 0x1ED0 PUSH1 0x60 DUP10 ADD MLOAD PUSH2 0x100 PUSH1 0xA0 DUP10 ADD MSTORE PUSH2 0x140 DUP9 ADD SWAP1 PUSH2 0x5AD JUMP JUMPDEST PUSH1 0x80 DUP10 ADD MLOAD DUP8 DUP3 SUB PUSH1 0x3F NOT ADD PUSH1 0xC0 DUP10 ADD MSTORE PUSH2 0x1DF5 JUMP JUMPDEST PUSH1 0xA0 DUP9 ADD MLOAD DUP7 DUP3 SUB PUSH1 0x3F NOT ADD DUP6 DUP9 ADD MSTORE PUSH2 0x1DF5 JUMP JUMPDEST PUSH1 0xC0 DUP8 ADD MLOAD DUP6 DUP3 SUB PUSH1 0x3F NOT ADD PUSH2 0x100 DUP8 ADD MSTORE PUSH2 0x1E31 JUMP JUMPDEST SWAP5 ADD MLOAD ISZERO ISZERO PUSH2 0x120 DUP4 ADD MSTORE JUMP JUMPDEST PUSH1 0x20 DUP2 DUP5 SUB SWAP2 ADD MSTORE PUSH2 0x1A49 JUMP JUMPDEST PUSH1 0x40 MLOAD RETURNDATASIZE PUSH0 DUP3 RETURNDATACOPY RETURNDATASIZE SWAP1 REVERT JUMPDEST DUP2 PUSH1 0x1F DUP3 ADD SLT ISZERO PUSH2 0x1EF JUMPI DUP1 MLOAD SWAP1 PUSH2 0x1F4E DUP3 PUSH2 0x1A2E JUMP JUMPDEST SWAP3 PUSH2 0x1F5C PUSH1 0x40 MLOAD SWAP5 DUP6 PUSH2 0x2D3 JUMP JUMPDEST DUP3 DUP5 MSTORE PUSH1 0x20 DUP4 DUP4 ADD ADD GT PUSH2 0x1EF JUMPI DUP2 PUSH0 SWAP3 PUSH1 0x20 DUP1 SWAP4 ADD DUP4 DUP7 ADD MCOPY DUP4 ADD ADD MSTORE SWAP1 JUMP JUMPDEST SWAP2 SWAP1 SWAP2 PUSH1 0x40 DUP2 DUP5 SUB SLT PUSH2 0x1EF JUMPI DUP1 MLOAD PUSH1 0x1 PUSH1 0x1 PUSH1 0x40 SHL SUB DUP2 GT PUSH2 0x1EF JUMPI DUP4 PUSH2 0x1FA6 SWAP2 DUP4 ADD PUSH2 0x1F37 JUMP JUMPDEST SWAP3 PUSH1 0x20 DUP3 ADD MLOAD PUSH1 0x1 PUSH1 0x1 PUSH1 0x40 SHL SUB DUP2 GT PUSH2 0x1EF JUMPI PUSH2 0x3A0 SWAP3 ADD PUSH2 0x1F37 JUMP JUMPDEST SWAP1 PUSH1 0x20 PUSH2 0x3A0 SWAP3 DUP2 DUP2 MSTORE ADD SWAP1 PUSH2 0x1A49 JUMP JUMPDEST SWAP2 SWAP1 SWAP2 PUSH1 0xA0 DUP2 ADD SWAP3 PUSH2 0x1FE8 DUP5 MLOAD MLOAD PUSH2 0x1CE3 JUMP JUMPDEST SWAP5 PUSH2 0x1FF4 DUP6 MLOAD MLOAD PUSH2 0x1CE3 JUMP JUMPDEST POP PUSH2 0x2000 DUP6 MLOAD MLOAD PUSH2 0x1CE3 JUMP JUMPDEST SWAP4 PUSH2 0x2024 PUSH2 0x201F PUSH2 0x2011 DUP9 MLOAD PUSH2 0x1D29 JUMP JUMPDEST MLOAD PUSH1 0x1 PUSH1 0x1 PUSH1 0xE8 SHL SUB NOT AND SWAP1 JUMP JUMPDEST PUSH2 0x2B61 JUMP JUMPDEST PUSH0 JUMPDEST DUP8 MLOAD DUP1 MLOAD DUP3 LT ISZERO PUSH2 0x20AA JUMPI SWAP1 PUSH2 0x20A4 PUSH2 0x2091 PUSH1 0x60 PUSH2 0x2088 DUP11 DUP15 PUSH2 0x2082 DUP8 PUSH2 0x207C PUSH2 0x2055 PUSH2 0x2011 DUP4 PUSH1 0x1 SWAP14 PUSH2 0x1D4B JUMP JUMPDEST DUP6 MLOAD PUSH1 0x20 DUP8 ADD MLOAD PUSH1 0x40 SWAP1 SWAP8 ADD MLOAD SWAP2 SWAP7 DUP8 SWAP3 PUSH1 0x1 PUSH1 0x1 PUSH1 0xA0 SHL SUB SWAP1 DUP2 AND SWAP3 SWAP2 DUP2 AND SWAP2 AND PUSH2 0x2BAC JUMP JUMPDEST SWAP3 PUSH2 0x1D4B JUMP JUMPDEST MSTORE PUSH2 0x2B61 JUMP JUMPDEST ADD MLOAD PUSH2 0xFFFF AND SWAP1 JUMP JUMPDEST PUSH2 0x209B DUP4 DUP12 PUSH2 0x1D4B JUMP JUMPDEST SWAP1 PUSH2 0xFFFF AND SWAP1 MSTORE JUMP JUMPDEST ADD PUSH2 0x2026 JUMP JUMPDEST POP POP DUP5 MLOAD SWAP3 SWAP8 SWAP7 POP SWAP1 SWAP5 SWAP3 SWAP1 SWAP2 PUSH1 0x1 PUSH1 0x1 PUSH1 0xA0 SHL SUB AND PUSH1 0x20 DUP6 ADD DUP1 MLOAD SWAP2 SWAP6 SWAP1 SWAP5 SWAP1 SWAP2 PUSH1 0x1 PUSH1 0x1 PUSH1 0xA0 SHL SUB AND PUSH1 0x40 DUP4 ADD DUP1 MLOAD SWAP1 SWAP9 SWAP2 SWAP3 SWAP2 SWAP1 PUSH1 0x1 PUSH1 0x1 PUSH1 0xA0 SHL SUB AND SWAP5 PUSH1 0x60 DUP6 ADD MLOAD PUSH1 0x80 DUP7 ADD SWAP7 DUP8 MLOAD PUSH2 0x2100 SWAP1 ISZERO ISZERO SWAP1 JUMP JUMPDEST SWAP6 PUSH2 0x2109 PUSH2 0x312 JUMP JUMPDEST PUSH1 0x1 PUSH1 0x1 PUSH1 0xA0 SHL SUB SWAP1 SWAP13 AND DUP13 MSTORE PUSH1 0x1 PUSH1 0x1 PUSH1 0xA0 SHL SUB AND PUSH1 0x20 DUP13 ADD MSTORE PUSH1 0x1 PUSH1 0x1 PUSH1 0xA0 SHL SUB AND PUSH1 0x40 DUP12 ADD MSTORE PUSH1 0x60 DUP11 ADD MSTORE PUSH1 0x80 DUP10 ADD MSTORE PUSH1 0xA0 DUP9 ADD MSTORE PUSH1 0xC0 DUP8 ADD MSTORE ISZERO ISZERO PUSH1 0xE0 DUP7 ADD MSTORE PUSH1 0x20 DUP4 ADD MLOAD ISZERO PUSH2 0x23E0 JUMPI SWAP3 PUSH0 SWAP5 SWAP3 PUSH2 0x21FC PUSH2 0x223D SWAP4 PUSH2 0x21D9 PUSH2 0x218A PUSH2 0x217C PUSH2 0x22BC SWAP12 SWAP10 MLOAD PUSH1 0x1 DUP1 PUSH1 0xA0 SHL SUB AND SWAP1 JUMP JUMPDEST SWAP6 MLOAD PUSH1 0x1 PUSH1 0x1 PUSH1 0xA0 SHL SUB AND SWAP1 JUMP JUMPDEST DUP9 MLOAD SWAP3 MLOAD ISZERO ISZERO SWAP3 PUSH1 0x1 PUSH1 0x1 PUSH1 0xA0 SHL SUB AND SWAP1 PUSH2 0x21C9 SWAP1 PUSH2 0x21B9 PUSH2 0x21AA PUSH2 0x312 JUMP JUMPDEST PUSH1 0x1 PUSH1 0x1 PUSH1 0xA0 SHL SUB SWAP1 SWAP10 AND DUP10 MSTORE JUMP JUMPDEST PUSH1 0x1 PUSH1 0x1 PUSH1 0xA0 SHL SUB AND PUSH1 0x20 DUP9 ADD MSTORE JUMP JUMPDEST PUSH1 0x1 PUSH1 0x1 PUSH1 0xA0 SHL SUB AND PUSH1 0x40 DUP7 ADD MSTORE JUMP JUMPDEST DUP8 PUSH1 0x60 DUP6 ADD MSTORE DUP8 PUSH1 0x80 DUP6 ADD MSTORE DUP8 PUSH1 0xA0 DUP6 ADD MSTORE DUP8 PUSH1 0xC0 DUP6 ADD MSTORE PUSH1 0xE0 DUP5 ADD SWAP1 ISZERO ISZERO SWAP1 MSTORE JUMP JUMPDEST DUP1 MLOAD ISZERO ISZERO DUP7 EQ PUSH2 0x23A7 JUMPI POP PUSH32 0x0 JUMPDEST PUSH1 0x1 PUSH1 0x1 PUSH1 0xA0 SHL SUB DUP2 AND ISZERO PUSH2 0x2380 JUMPI PUSH2 0x2C5A JUMP JUMPDEST DUP1 MLOAD ISZERO DUP5 EQ PUSH2 0x22F0 JUMPI POP PUSH2 0x229F PUSH2 0x2293 PUSH2 0x2293 PUSH2 0x2258 PUSH2 0x1D5F JUMP JUMPDEST PUSH2 0x2284 PUSH2 0x2263 PUSH2 0x1D5F JUMP JUMPDEST SWAP2 PUSH2 0x2276 PUSH1 0x40 MLOAD SWAP4 DUP5 SWAP3 PUSH1 0x20 DUP5 ADD PUSH2 0x1A6D JUMP JUMPDEST SUB PUSH1 0x1F NOT DUP2 ADD DUP4 MSTORE DUP3 PUSH2 0x2D3 JUMP JUMPDEST SWAP5 JUMPDEST MLOAD PUSH1 0x1 PUSH1 0x1 PUSH1 0xA0 SHL SUB AND SWAP1 JUMP JUMPDEST PUSH1 0x1 PUSH1 0x1 PUSH1 0xA0 SHL SUB AND SWAP1 JUMP JUMPDEST SWAP1 DUP4 PUSH1 0x40 MLOAD DUP1 SWAP7 DUP2 SWAP6 DUP3 SWAP5 PUSH3 0xDB90D1 PUSH1 0xE8 SHL DUP5 MSTORE PUSH1 0x4 DUP5 ADD PUSH2 0x1E68 JUMP JUMPDEST SUB SWAP3 GAS CALL SWAP1 DUP2 ISZERO PUSH2 0xE73 JUMPI PUSH0 SWAP2 PUSH2 0x22D1 JUMPI POP SWAP2 JUMP JUMPDEST PUSH2 0x22ED SWAP2 POP RETURNDATASIZE DUP1 PUSH0 DUP4 RETURNDATACOPY PUSH2 0x22E5 DUP2 DUP4 PUSH2 0x2D3 JUMP JUMPDEST DUP2 ADD SWAP1 PUSH2 0x1DD0 JUMP JUMPDEST SWAP2 JUMP JUMPDEST PUSH2 0x2293 PUSH2 0x2293 PUSH2 0x229F SWAP3 PUSH1 0x40 MLOAD PUSH4 0xF9158EE5 PUSH1 0xE0 SHL DUP2 MSTORE DUP8 DUP2 DUP1 PUSH2 0x2317 DUP6 PUSH1 0x4 DUP4 ADD PUSH2 0x1FC4 JUMP JUMPDEST SUB DUP2 ADDRESS GAS STATICCALL SWAP1 DUP2 DUP10 SWAP2 DUP11 SWAP4 PUSH2 0x235A JUMPI JUMPDEST POP ISZERO DUP10 EQ PUSH2 0x2342 JUMPI POP POP PUSH2 0x233C PUSH2 0x2263 PUSH2 0x1D5F JUMP JUMPDEST SWAP5 PUSH2 0x2286 JUMP JUMPDEST PUSH2 0x233C SWAP2 SWAP3 POP PUSH2 0x2276 PUSH1 0x40 MLOAD SWAP4 DUP5 SWAP3 PUSH1 0x20 DUP5 ADD PUSH2 0x1A6D JUMP JUMPDEST SWAP1 SWAP3 POP PUSH2 0x2379 SWAP2 POP RETURNDATASIZE DUP1 DUP12 DUP4 RETURNDATACOPY PUSH2 0x2371 DUP2 DUP4 PUSH2 0x2D3 JUMP JUMPDEST DUP2 ADD SWAP1 PUSH2 0x1F7D JUMP JUMPDEST SWAP2 PUSH0 PUSH2 0x2327 JUMP JUMPDEST POP PUSH32 0x0 PUSH2 0x2C5A JUMP JUMPDEST PUSH2 0x23CE PUSH2 0x23BC PUSH1 0x40 PUSH2 0x23DB SWAP4 ADD MLOAD PUSH2 0xFFFF AND SWAP1 JUMP JUMPDEST PUSH2 0xFFFF AND PUSH0 MSTORE PUSH1 0x3 PUSH1 0x20 MSTORE PUSH1 0x40 PUSH0 KECCAK256 SWAP1 JUMP JUMPDEST SLOAD PUSH1 0x1 PUSH1 0x1 PUSH1 0xA0 SHL SUB AND SWAP1 JUMP JUMPDEST PUSH2 0x2229 JUMP JUMPDEST POP POP POP POP PUSH2 0x242B SWAP2 PUSH0 SWAP2 PUSH2 0x229F PUSH2 0x2293 PUSH2 0x2293 PUSH2 0x23FE SWAP9 SWAP8 SWAP9 PUSH2 0x1D5F JUMP JUMPDEST SWAP5 PUSH2 0x2286 PUSH2 0x240A PUSH2 0x1D5F JUMP JUMPDEST SWAP7 PUSH2 0x241D PUSH1 0x40 MLOAD SWAP9 DUP10 SWAP3 PUSH1 0x20 DUP5 ADD PUSH2 0x1A6D JUMP JUMPDEST SUB PUSH1 0x1F NOT DUP2 ADD DUP9 MSTORE DUP8 PUSH2 0x2D3 JUMP JUMPDEST SUB SWAP3 GAS CALL SWAP1 DUP2 ISZERO PUSH2 0xE73 JUMPI PUSH0 SWAP2 PUSH2 0x2441 JUMPI POP SWAP2 SWAP1 JUMP JUMPDEST PUSH2 0x2455 SWAP2 POP RETURNDATASIZE DUP1 PUSH0 DUP4 RETURNDATACOPY PUSH2 0x22E5 DUP2 DUP4 PUSH2 0x2D3 JUMP JUMPDEST SWAP2 SWAP1 JUMP JUMPDEST PUSH4 0x4E487B71 PUSH1 0xE0 SHL PUSH0 MSTORE PUSH1 0x11 PUSH1 0x4 MSTORE PUSH1 0x24 PUSH0 REVERT JUMPDEST PUSH0 NOT DUP2 ADD SWAP2 SWAP1 DUP3 GT PUSH2 0x6ED JUMPI JUMP JUMPDEST SWAP2 SWAP1 DUP3 SUB SWAP2 DUP3 GT PUSH2 0x6ED JUMPI JUMP JUMPDEST SWAP2 SWAP1 DUP3 ADD DUP1 SWAP3 GT PUSH2 0x6ED JUMPI JUMP JUMPDEST SWAP1 ISZERO PUSH2 0x1D36 JUMPI SWAP1 JUMP JUMPDEST SWAP2 SWAP1 DUP2 LT ISZERO PUSH2 0x1D36 JUMPI PUSH1 0x5 SHL ADD SWAP1 JUMP JUMPDEST CALLDATALOAD PUSH2 0x3A0 DUP2 PUSH2 0x1DE JUMP JUMPDEST SWAP3 SWAP2 SWAP3 PUSH2 0x24C4 DUP5 PUSH2 0x322 JUMP JUMPDEST SWAP1 PUSH2 0x24D2 PUSH1 0x40 MLOAD SWAP3 DUP4 PUSH2 0x2D3 JUMP JUMPDEST DUP5 DUP3 MSTORE PUSH1 0x1F NOT PUSH2 0x24E1 DUP7 PUSH2 0x322 JUMP JUMPDEST ADD CALLDATASIZE PUSH1 0x20 DUP5 ADD CALLDATACOPY DUP2 SWAP5 PUSH0 JUMPDEST DUP2 DUP2 LT PUSH2 0x24FA JUMPI POP POP POP POP POP JUMP JUMPDEST DUP1 PUSH2 0x251C PUSH2 0x250B PUSH1 0x1 SWAP4 DUP6 DUP10 PUSH2 0x249E JUMP JUMPDEST CALLDATALOAD PUSH2 0x2515 DUP2 PUSH2 0x1DE JUMP JUMPDEST DUP6 ADDRESS PUSH2 0x3560 JUMP JUMPDEST TLOAD PUSH2 0x2527 DUP3 DUP8 PUSH2 0x1D4B JUMP JUMPDEST MSTORE ADD PUSH2 0x24EC JUMP JUMPDEST SWAP1 SWAP2 DUP1 PUSH1 0x40 SWAP4 PUSH1 0x20 DUP5 MSTORE DUP2 PUSH1 0x20 DUP6 ADD MSTORE DUP5 DUP5 ADD CALLDATACOPY PUSH0 DUP3 DUP3 ADD DUP5 ADD MSTORE PUSH1 0x1F ADD PUSH1 0x1F NOT AND ADD ADD SWAP1 JUMP JUMPDEST SWAP3 SWAP2 SWAP1 PUSH2 0x2561 DUP2 PUSH2 0x322 JUMP JUMPDEST SWAP4 PUSH2 0x256F PUSH1 0x40 MLOAD SWAP6 DUP7 PUSH2 0x2D3 JUMP JUMPDEST PUSH1 0x20 DUP6 DUP4 DUP2 MSTORE ADD SWAP2 PUSH1 0x5 SHL DUP2 ADD SWAP3 DUP4 GT PUSH2 0x1EF JUMPI SWAP1 JUMPDEST DUP3 DUP3 LT PUSH2 0x2591 JUMPI POP POP POP JUMP JUMPDEST PUSH1 0x20 DUP1 SWAP2 DUP4 CALLDATALOAD PUSH2 0x25A0 DUP2 PUSH2 0x1DE JUMP JUMPDEST DUP2 MSTORE ADD SWAP2 ADD SWAP1 PUSH2 0x2585 JUMP JUMPDEST SWAP1 DUP2 PUSH1 0x20 SWAP2 SUB SLT PUSH2 0x1EF JUMPI MLOAD SWAP1 JUMP JUMPDEST DUP1 MLOAD PUSH1 0x1 PUSH1 0x1 PUSH1 0xA0 SHL SUB SWAP1 DUP2 AND DUP4 MSTORE PUSH1 0x20 DUP1 DUP4 ADD MLOAD DUP3 AND SWAP1 DUP5 ADD MSTORE PUSH1 0x40 DUP1 DUP4 ADD MLOAD SWAP1 SWAP2 AND SWAP1 DUP4 ADD MSTORE PUSH1 0x60 DUP1 DUP3 ADD MLOAD SWAP1 DUP4 ADD MSTORE PUSH1 0x80 DUP1 DUP3 ADD MLOAD PUSH1 0x1 PUSH1 0x1 PUSH1 0x80 SHL SUB AND SWAP1 DUP4 ADD MSTORE PUSH2 0x1FE SWAP2 SWAP1 PUSH1 0xE0 SWAP1 DUP2 SWAP1 PUSH1 0xA0 DUP2 DUP2 ADD MLOAD PUSH1 0x1 PUSH1 0x1 PUSH1 0x80 SHL SUB AND SWAP1 DUP6 ADD MSTORE PUSH1 0xC0 DUP2 DUP2 ADD MLOAD PUSH2 0xFFFF AND SWAP1 DUP6 ADD MSTORE ADD MLOAD ISZERO ISZERO SWAP2 ADD MSTORE JUMP JUMPDEST DUP1 PUSH2 0x2645 PUSH2 0x120 SWAP3 PUSH2 0x3A0 SWAP6 SWAP5 PUSH2 0x25BA JUMP JUMPDEST DUP2 PUSH2 0x100 DUP3 ADD MSTORE ADD SWAP1 PUSH2 0x1A49 JUMP JUMPDEST DUP1 MLOAD PUSH1 0x20 DUP3 ADD DUP1 MLOAD PUSH1 0x40 DUP5 ADD DUP1 MLOAD PUSH1 0xA0 DUP7 ADD DUP1 MLOAD SWAP1 SWAP9 SWAP5 SWAP7 SWAP5 SWAP6 SWAP3 SWAP5 SWAP4 PUSH1 0x1 PUSH1 0x1 PUSH1 0xA0 SHL SUB SWAP4 DUP5 AND SWAP4 SWAP1 DUP2 AND SWAP3 AND SWAP1 PUSH2 0x268B SWAP1 PUSH2 0x1D29 JUMP JUMPDEST MLOAD PUSH1 0x1 PUSH1 0x1 PUSH1 0xE8 SHL SUB NOT AND SWAP2 PUSH2 0x26A0 SWAP4 PUSH2 0x2BAC JUMP JUMPDEST SWAP6 MLOAD PUSH2 0x26AB SWAP1 PUSH2 0x1D29 JUMP JUMPDEST MLOAD PUSH1 0x1 PUSH1 0x1 PUSH1 0xE8 SHL SUB NOT AND PUSH2 0x26BF SWAP1 PUSH2 0x2B61 JUMP JUMPDEST DUP2 MLOAD SWAP1 SWAP4 SWAP1 PUSH1 0x1 PUSH1 0x1 PUSH1 0xA0 SHL SUB AND SWAP5 MLOAD PUSH1 0x1 PUSH1 0x1 PUSH1 0xA0 SHL SUB AND SWAP3 MLOAD PUSH1 0x1 PUSH1 0x1 PUSH1 0xA0 SHL SUB AND SWAP6 PUSH1 0x60 DUP4 ADD MLOAD PUSH2 0x26F2 SWAP1 PUSH2 0x1D29 JUMP JUMPDEST MLOAD PUSH1 0x60 DUP7 ADD MLOAD PUSH2 0xFFFF AND PUSH1 0x80 SWAP1 SWAP5 ADD MLOAD ISZERO ISZERO SWAP5 PUSH2 0x270D PUSH2 0x312 JUMP JUMPDEST PUSH1 0x1 PUSH1 0x1 PUSH1 0xA0 SHL SUB SWAP1 SWAP9 AND DUP9 MSTORE PUSH1 0x1 PUSH1 0x1 PUSH1 0xA0 SHL SUB AND PUSH1 0x20 DUP9 ADD MSTORE PUSH1 0x1 PUSH1 0x1 PUSH1 0xA0 SHL SUB SWAP1 SWAP8 AND PUSH1 0x40 DUP8 ADD SWAP1 DUP2 MSTORE SWAP7 PUSH1 0x60 DUP8 ADD MSTORE PUSH1 0x1 PUSH1 0x1 PUSH1 0x80 SHL SUB AND PUSH1 0x80 DUP7 ADD MSTORE PUSH1 0x1 PUSH1 0x1 PUSH1 0x80 SHL SUB AND PUSH1 0xA0 DUP6 ADD MSTORE PUSH2 0xFFFF AND PUSH1 0xC0 DUP5 ADD MSTORE ISZERO ISZERO PUSH1 0xE0 DUP4 ADD MSTORE PUSH1 0x20 DUP2 ADD MLOAD ISZERO PUSH2 0x291B JUMPI SWAP2 PUSH1 0x20 SWAP2 DUP4 PUSH2 0x2788 PUSH2 0x281D SWAP6 MLOAD ISZERO ISZERO SWAP1 JUMP JUMPDEST ISZERO PUSH2 0x2901 JUMPI POP PUSH32 0x0 JUMPDEST DUP2 PUSH1 0x1 PUSH1 0x1 PUSH1 0xA0 SHL SUB DUP3 AND ISZERO PUSH2 0x28D9 JUMPI JUMPDEST PUSH2 0x27CA SWAP2 PUSH2 0x2C5A JUMP JUMPDEST DUP1 MLOAD PUSH2 0x285B JUMPI POP PUSH2 0x27FF PUSH2 0x2293 PUSH2 0x2293 PUSH2 0x27E2 PUSH2 0x1D5F JUMP JUMPDEST PUSH2 0x2284 PUSH2 0x27ED PUSH2 0x1D5F JUMP JUMPDEST SWAP2 PUSH2 0x2276 PUSH1 0x40 MLOAD SWAP4 DUP5 SWAP3 DUP12 DUP5 ADD PUSH2 0x1A6D JUMP JUMPDEST SWAP1 PUSH0 PUSH1 0x40 MLOAD DUP1 SWAP7 DUP2 SWAP6 DUP3 SWAP5 PUSH4 0x5E3344D PUSH1 0xE4 SHL DUP5 MSTORE PUSH1 0x4 DUP5 ADD PUSH2 0x2633 JUMP JUMPDEST SUB SWAP3 GAS CALL SWAP1 DUP2 ISZERO PUSH2 0xE73 JUMPI PUSH0 SWAP2 PUSH2 0x2832 JUMPI POP SWAP2 JUMP JUMPDEST PUSH2 0x22ED SWAP2 POP PUSH1 0x20 RETURNDATASIZE PUSH1 0x20 GT PUSH2 0x2854 JUMPI JUMPDEST PUSH2 0x284C DUP2 DUP4 PUSH2 0x2D3 JUMP JUMPDEST DUP2 ADD SWAP1 PUSH2 0x25AB JUMP JUMPDEST POP RETURNDATASIZE PUSH2 0x2842 JUMP JUMPDEST PUSH2 0x2293 PUSH2 0x2293 PUSH2 0x27FF SWAP3 PUSH1 0x40 MLOAD PUSH4 0xF9158EE5 PUSH1 0xE0 SHL DUP2 MSTORE PUSH0 DUP2 DUP1 PUSH2 0x2882 DUP6 PUSH1 0x4 DUP4 ADD PUSH2 0x1FC4 JUMP JUMPDEST SUB DUP2 ADDRESS GAS STATICCALL SWAP1 DUP2 PUSH0 SWAP2 PUSH0 SWAP4 PUSH2 0x28BB JUMPI JUMPDEST POP PUSH2 0x28A4 JUMPI POP POP PUSH2 0x233C PUSH2 0x27ED PUSH2 0x1D5F JUMP JUMPDEST PUSH2 0x233C SWAP2 SWAP3 POP PUSH2 0x2276 PUSH1 0x40 MLOAD SWAP4 DUP5 SWAP3 DUP12 DUP5 ADD PUSH2 0x1A6D JUMP JUMPDEST SWAP1 SWAP3 POP PUSH2 0x28D2 SWAP2 POP RETURNDATASIZE DUP1 PUSH0 DUP4 RETURNDATACOPY PUSH2 0x2371 DUP2 DUP4 PUSH2 0x2D3 JUMP JUMPDEST SWAP2 PUSH0 PUSH2 0x2892 JUMP JUMPDEST PUSH32 0x0 SWAP2 POP PUSH2 0x27C1 JUMP JUMPDEST PUSH2 0x23CE PUSH2 0x23BC PUSH1 0x40 PUSH2 0x2916 SWAP4 ADD MLOAD PUSH2 0xFFFF AND SWAP1 JUMP JUMPDEST PUSH2 0x27B0 JUMP JUMPDEST POP PUSH2 0x2955 SWAP2 PUSH1 0x20 SWAP2 PUSH2 0x27FF PUSH2 0x2293 PUSH2 0x2293 PUSH2 0x2937 SWAP9 SWAP8 SWAP9 PUSH2 0x1D5F JUMP JUMPDEST SWAP5 PUSH2 0x2286 PUSH2 0x2943 PUSH2 0x1D5F JUMP JUMPDEST SWAP7 PUSH2 0x241D PUSH1 0x40 MLOAD SWAP9 DUP10 SWAP3 DUP12 DUP5 ADD PUSH2 0x1A6D JUMP JUMPDEST SUB SWAP3 GAS CALL SWAP1 DUP2 ISZERO PUSH2 0xE73 JUMPI PUSH0 SWAP2 PUSH2 0x296B JUMPI POP SWAP2 SWAP1 JUMP JUMPDEST PUSH2 0x2455 SWAP2 POP PUSH1 0x20 RETURNDATASIZE PUSH1 0x20 GT PUSH2 0x2854 JUMPI PUSH2 0x284C DUP2 DUP4 PUSH2 0x2D3 JUMP JUMPDEST ISZERO PUSH2 0x298B JUMPI JUMP JUMPDEST PUSH1 0x40 MLOAD PUSH3 0x461BCD PUSH1 0xE5 SHL DUP2 MSTORE PUSH1 0x20 PUSH1 0x4 DUP3 ADD MSTORE PUSH1 0x18 PUSH1 0x24 DUP3 ADD MSTORE PUSH32 0x496E76616C6964206C697175696469747920616D6F756E740000000000000000 PUSH1 0x44 DUP3 ADD MSTORE PUSH1 0x64 SWAP1 REVERT JUMPDEST ISZERO PUSH2 0x29D7 JUMPI JUMP JUMPDEST PUSH1 0x40 MLOAD PUSH3 0x461BCD PUSH1 0xE5 SHL DUP2 MSTORE PUSH1 0x20 PUSH1 0x4 DUP3 ADD MSTORE PUSH1 0x14 PUSH1 0x24 DUP3 ADD MSTORE PUSH20 0x139BC81B1A5C5D5A591A5D1E481A5B881C1BDBDB PUSH1 0x62 SHL PUSH1 0x44 DUP3 ADD MSTORE PUSH1 0x64 SWAP1 REVERT JUMPDEST SWAP1 PUSH8 0xDE0B6B3A7640000 DUP3 MUL SWAP2 DUP1 DUP4 DIV PUSH8 0xDE0B6B3A7640000 EQ SWAP1 ISZERO OR ISZERO PUSH2 0x6ED JUMPI JUMP JUMPDEST SWAP1 PUSH8 0x120A871CC0020000 DUP3 MUL SWAP2 DUP1 DUP4 DIV PUSH8 0x120A871CC0020000 EQ SWAP1 ISZERO OR ISZERO PUSH2 0x6ED JUMPI JUMP JUMPDEST DUP2 DUP2 MUL SWAP3 SWAP2 DUP2 ISZERO SWAP2 DUP5 DIV EQ OR ISZERO PUSH2 0x6ED JUMPI JUMP JUMPDEST DUP2 ISZERO PUSH2 0x2A78 JUMPI DIV SWAP1 JUMP JUMPDEST PUSH4 0x4E487B71 PUSH1 0xE0 SHL PUSH0 MSTORE PUSH1 0x12 PUSH1 0x4 MSTORE PUSH1 0x24 PUSH0 REVERT JUMPDEST PUSH1 0xF SIGNEXTEND PUSH16 0x7FFFFFFFFFFFFFFFFFFFFFFFFFFFFFFF NOT DUP2 EQ PUSH2 0x6ED JUMPI PUSH0 SUB SWAP1 JUMP JUMPDEST PUSH1 0x40 MLOAD PUSH1 0x60 SWAP2 SWAP1 PUSH2 0x2ABD DUP4 DUP3 PUSH2 0x2D3 JUMP JUMPDEST PUSH1 0x2 DUP2 MSTORE SWAP2 PUSH1 0x1F NOT ADD CALLDATASIZE PUSH1 0x20 DUP5 ADD CALLDATACOPY JUMP JUMPDEST PUSH1 0x1 PUSH1 0xFF SHL DUP2 EQ PUSH2 0x6ED JUMPI PUSH0 SUB SWAP1 JUMP JUMPDEST ISZERO PUSH2 0x2AE5 JUMPI JUMP JUMPDEST PUSH1 0x40 MLOAD PUSH3 0x461BCD PUSH1 0xE5 SHL DUP2 MSTORE PUSH1 0x20 PUSH1 0x4 DUP3 ADD MSTORE PUSH1 0x17 PUSH1 0x24 DUP3 ADD MSTORE PUSH32 0x496E76616C696420696E697469616C20616D6F756E7473000000000000000000 PUSH1 0x44 DUP3 ADD MSTORE PUSH1 0x64 SWAP1 REVERT JUMPDEST PUSH2 0xDA8 SWAP1 PUSH1 0x20 DUP1 DUP3 MLOAD DUP4 ADD ADD SWAP2 ADD PUSH2 0x1F7D JUMP JUMPDEST PUSH1 0x40 MLOAD SWAP1 PUSH2 0x2B4A DUP3 PUSH2 0x2B3 JUMP JUMPDEST PUSH0 PUSH1 0x60 DUP4 DUP3 DUP2 MSTORE DUP3 PUSH1 0x20 DUP3 ADD MSTORE DUP3 PUSH1 0x40 DUP3 ADD MSTORE ADD MSTORE JUMP JUMPDEST PUSH2 0x3A0 PUSH2 0xFFF DUP1 PUSH2 0x2B70 PUSH2 0x2B3D JUMP JUMPDEST PUSH1 0xE8 DUP6 SWAP1 SHR PUSH1 0x1 SWAP1 DUP2 AND ISZERO ISZERO DUP3 MSTORE PUSH1 0xE9 DUP7 SWAP1 SHR AND ISZERO ISZERO PUSH1 0x20 DUP3 ADD MSTORE PUSH1 0xEA DUP6 SWAP1 SHR PUSH2 0x3FF AND PUSH1 0x40 DUP3 ADD MSTORE PUSH1 0xF4 SWAP5 SWAP1 SWAP5 SHR AND AND PUSH2 0xFFFF AND PUSH1 0x60 DUP4 ADD MSTORE JUMP JUMPDEST SWAP1 SWAP3 SWAP1 PUSH1 0x1 PUSH1 0x1 PUSH1 0xA0 SHL SUB DUP1 DUP6 AND SWAP1 DUP3 AND LT ISZERO PUSH2 0x2C1E JUMPI SWAP3 SWAP2 JUMPDEST PUSH1 0x40 MLOAD PUSH12 0xFFFFFFFFFFFFFFFFFFFFFFFF NOT PUSH1 0x60 SWAP6 DUP7 SHL DUP2 AND PUSH1 0x20 DUP4 ADD SWAP1 DUP2 MSTORE SWAP5 DUP7 SHL DUP2 AND PUSH1 0x34 DUP4 ADD MSTORE SWAP2 SWAP1 SWAP5 SHL AND PUSH1 0x48 DUP5 ADD MSTORE PUSH1 0x1 PUSH1 0x1 PUSH1 0xE8 SHL SUB NOT AND PUSH1 0x5C DUP4 ADD MSTORE PUSH1 0x3F DUP3 MSTORE SWAP1 PUSH2 0x2C18 PUSH1 0x5F DUP3 PUSH2 0x2D3 JUMP JUMPDEST MLOAD SWAP1 KECCAK256 SWAP1 JUMP JUMPDEST SWAP2 PUSH2 0x2BC6 JUMP JUMPDEST SWAP1 PUSH1 0x20 DUP3 DUP3 SUB SLT PUSH2 0x1EF JUMPI DUP2 MLOAD PUSH1 0x1 PUSH1 0x1 PUSH1 0x40 SHL SUB DUP2 GT PUSH2 0x1EF JUMPI PUSH2 0x3A0 SWAP3 ADD PUSH2 0x1F37 JUMP JUMPDEST PUSH2 0x100 DUP2 ADD SWAP3 SWAP2 PUSH2 0x1FE SWAP2 SWAP1 PUSH2 0x25BA JUMP JUMPDEST SWAP1 PUSH1 0x1 PUSH1 0x1 PUSH1 0xA0 SHL SUB DUP3 AND SWAP1 DUP2 ISZERO PUSH2 0x2D95 JUMPI DUP3 EXTCODESIZE ISZERO PUSH2 0x2D95 JUMPI PUSH2 0x2C7C DUP4 PUSH2 0x34B9 JUMP JUMPDEST SWAP3 DUP4 MLOAD ISZERO SWAP2 DUP3 PUSH2 0x2CBE JUMPI JUMPDEST POP POP PUSH1 0x40 MLOAD SWAP1 ISZERO DUP2 MSTORE PUSH32 0xD34145BF6DE6D1B18053AD66A4A1AF093071A5AB67C05B8BFCE98FD95FFB0D89 SWAP1 DUP1 PUSH1 0x20 DUP2 ADD JUMPDEST SUB SWAP1 LOG2 SWAP1 JUMP JUMPDEST PUSH1 0x40 MLOAD PUSH4 0x3BD1104B PUSH1 0xE0 SHL DUP2 MSTORE SWAP3 SWAP5 POP PUSH0 SWAP1 DUP4 SWAP1 DUP2 SWAP1 PUSH2 0x2CE1 SWAP1 PUSH1 0x4 DUP4 ADD PUSH2 0x2C49 JUMP JUMPDEST SUB DUP2 DUP4 DUP8 GAS CALL PUSH0 SWAP3 DUP2 PUSH2 0x2D71 JUMPI JUMPDEST POP PUSH2 0x2D2A JUMPI POP POP PUSH32 0xD34145BF6DE6D1B18053AD66A4A1AF093071A5AB67C05B8BFCE98FD95FFB0D89 PUSH2 0x2CB8 PUSH2 0x2D22 PUSH2 0x1D5F JUMP JUMPDEST SWAP4 JUMPDEST SWAP2 PUSH2 0x2C87 JUMP JUMPDEST DUP2 SWAP4 PUSH2 0x2CB8 SWAP2 PUSH32 0xD34145BF6DE6D1B18053AD66A4A1AF093071A5AB67C05B8BFCE98FD95FFB0D89 SWAP4 SWAP6 DUP1 MLOAD PUSH2 0x2D61 JUMPI JUMPDEST POP POP PUSH2 0x2D24 JUMP JUMPDEST PUSH2 0x2D6A SWAP2 PUSH2 0x352C JUMP JUMPDEST PUSH0 DUP1 PUSH2 0x2D5A JUMP JUMPDEST PUSH2 0x2D8E SWAP2 SWAP4 POP RETURNDATASIZE DUP1 PUSH0 DUP4 RETURNDATACOPY PUSH2 0x2D86 DUP2 DUP4 PUSH2 0x2D3 JUMP JUMPDEST DUP2 ADD SWAP1 PUSH2 0x2C24 JUMP JUMPDEST SWAP2 PUSH0 PUSH2 0x2CEF JUMP JUMPDEST POP POP POP PUSH2 0x3A0 PUSH2 0x1D5F JUMP JUMPDEST PUSH1 0x40 MLOAD PUSH1 0x20 DUP2 ADD SWAP1 PUSH32 0x626529A6BE7CB2FB96A7ED93849B4EF74C980495DFE61FD514C95DCD9DA51C35 DUP3 MSTORE ADDRESS PUSH1 0x60 SHL PUSH1 0x40 DUP3 ADD MSTORE PUSH1 0x34 DUP2 MSTORE PUSH2 0x2C18 PUSH1 0x54 DUP3 PUSH2 0x2D3 JUMP JUMPDEST DUP1 TLOAD PUSH2 0x1EF JUMPI PUSH1 0x1 SWAP1 TSTORE JUMP JUMPDEST PUSH1 0x40 MLOAD PUSH1 0x20 DUP2 ADD SWAP1 PUSH32 0x626529A6BE7CB2FB96A7ED93849B4EF74C980495DFE61FD514C95DCD9DA51C35 DUP3 MSTORE ADDRESS PUSH1 0x60 SHL PUSH1 0x40 DUP3 ADD MSTORE PUSH32 0x88F108D443A200407DF3D92FC06ED196D7B48635560CC21C3B1819792E11C1A7 PUSH1 0x54 DUP3 ADD MSTORE PUSH1 0x54 DUP2 MSTORE PUSH2 0x2C18 PUSH1 0x74 DUP3 PUSH2 0x2D3 JUMP JUMPDEST PUSH1 0x40 MLOAD PUSH1 0x20 DUP2 ADD SWAP1 PUSH32 0x507BA82850C15277B79BAE90C6E97B66228A117B64D05E46B3182D141DF61CE2 DUP3 MSTORE ADDRESS PUSH1 0x60 SHL PUSH1 0x40 DUP3 ADD MSTORE PUSH1 0x34 DUP2 MSTORE PUSH2 0x2E9B PUSH1 0x54 DUP3 PUSH2 0x2D3 JUMP JUMPDEST MLOAD SWAP1 KECCAK256 TSTORE JUMP JUMPDEST DUP2 MLOAD SWAP2 PUSH0 JUMPDEST DUP4 DUP2 LT PUSH2 0x2EB3 JUMPI POP POP POP POP JUMP JUMPDEST PUSH1 0x1 SWAP1 PUSH1 0x1 PUSH1 0x1 PUSH1 0xA0 SHL SUB PUSH2 0x2EC8 DUP3 DUP6 PUSH2 0x1D4B JUMP JUMPDEST MLOAD AND PUSH2 0x2ED5 DUP2 DUP7 ADDRESS PUSH2 0x3560 JUMP JUMPDEST TLOAD DUP1 PUSH2 0x2EE4 JUMPI JUMPDEST POP POP ADD PUSH2 0x2EA6 JUMP JUMPDEST PUSH0 SWAP2 PUSH2 0x2F04 SWAP2 DUP4 DUP2 SGT ISZERO PUSH2 0x2F0C JUMPI PUSH2 0x2EFD SWAP1 DUP9 DUP4 PUSH2 0x37AB JUMP JUMPDEST DUP7 ADDRESS PUSH2 0x3560 JUMP JUMPDEST TSTORE PUSH0 DUP1 PUSH2 0x2EDC JUMP JUMPDEST PUSH2 0x2F18 PUSH2 0x2F2A SWAP2 PUSH2 0x2ACE JUMP JUMPDEST DUP3 ISZERO DUP6 EQ PUSH2 0x2F2F JUMPI DUP5 SWAP1 JUMPDEST DUP10 DUP5 PUSH2 0x36D1 JUMP JUMPDEST PUSH2 0x2EFD JUMP JUMPDEST DUP5 SWAP1 PUSH2 0x2F23 JUMP JUMPDEST SWAP1 SWAP2 DUP3 MLOAD SWAP3 PUSH0 JUMPDEST DUP5 DUP2 LT PUSH2 0x2F4B JUMPI POP POP POP POP POP JUMP JUMPDEST PUSH1 0x1 SWAP1 PUSH1 0x1 PUSH1 0x1 PUSH1 0xA0 SHL SUB PUSH2 0x2F60 DUP3 DUP6 PUSH2 0x1D4B JUMP JUMPDEST MLOAD AND PUSH2 0x2F6D DUP2 DUP8 ADDRESS PUSH2 0x3560 JUMP JUMPDEST TLOAD DUP1 PUSH2 0x2F7C JUMPI JUMPDEST POP POP ADD PUSH2 0x2F3D JUMP JUMPDEST PUSH0 SWAP2 PUSH2 0x2F9C SWAP2 DUP4 DUP2 SGT ISZERO PUSH2 0x2FA4 JUMPI PUSH2 0x2F95 SWAP1 DUP10 DUP4 PUSH2 0x37AB JUMP JUMPDEST DUP8 ADDRESS PUSH2 0x3560 JUMP JUMPDEST TSTORE PUSH0 DUP1 PUSH2 0x2F74 JUMP JUMPDEST PUSH2 0x2FB0 PUSH2 0x2FC2 SWAP2 PUSH2 0x2ACE JUMP JUMPDEST DUP3 ISZERO DUP6 EQ PUSH2 0x2FC7 JUMPI DUP9 SWAP1 JUMPDEST DUP11 DUP5 PUSH2 0x36D1 JUMP JUMPDEST PUSH2 0x2F95 JUMP JUMPDEST DUP5 SWAP1 PUSH2 0x2FBB JUMP JUMPDEST PUSH0 PUSH1 0x40 MLOAD PUSH1 0x20 DUP2 ADD SWAP1 PUSH32 0x507BA82850C15277B79BAE90C6E97B66228A117B64D05E46B3182D141DF61CE2 DUP3 MSTORE ADDRESS PUSH1 0x60 SHL PUSH1 0x40 DUP3 ADD MSTORE PUSH1 0x34 DUP2 MSTORE PUSH2 0x2E9B PUSH1 0x54 DUP3 PUSH2 0x2D3 JUMP JUMPDEST PUSH2 0x301D PUSH0 SWAP2 ADDRESS PUSH2 0x35D5 JUMP JUMPDEST TSTORE JUMP JUMPDEST PUSH1 0x40 MLOAD PUSH1 0x20 DUP2 ADD SWAP1 PUSH32 0x507BA82850C15277B79BAE90C6E97B66228A117B64D05E46B3182D141DF61CE2 DUP3 MSTORE ADDRESS PUSH1 0x60 SHL PUSH1 0x40 DUP3 ADD MSTORE PUSH1 0x34 DUP2 MSTORE PUSH2 0x3063 PUSH1 0x54 DUP3 PUSH2 0x2D3 JUMP JUMPDEST MLOAD SWAP1 KECCAK256 TLOAD SWAP1 JUMP JUMPDEST ISZERO PUSH2 0x3071 JUMPI JUMP JUMPDEST PUSH1 0x40 MLOAD PUSH3 0x461BCD PUSH1 0xE5 SHL DUP2 MSTORE PUSH1 0x20 PUSH1 0x4 DUP3 ADD MSTORE PUSH1 0x7 PUSH1 0x24 DUP3 ADD MSTORE PUSH7 0x4E6F20686F7073 PUSH1 0xC8 SHL PUSH1 0x44 DUP3 ADD MSTORE PUSH1 0x64 SWAP1 REVERT JUMPDEST SWAP2 SWAP1 DUP2 LT ISZERO PUSH2 0x1D36 JUMPI PUSH1 0x5 SHL DUP2 ADD CALLDATALOAD SWAP1 PUSH1 0xBE NOT DUP2 CALLDATASIZE SUB ADD DUP3 SLT ISZERO PUSH2 0x1EF JUMPI ADD SWAP1 JUMP JUMPDEST CALLDATALOAD PUSH2 0x3A0 DUP2 PUSH2 0x3A3 JUMP JUMPDEST SWAP2 SWAP1 SWAP2 PUSH1 0x1 DUP1 PUSH1 0xA0 SHL SUB AND DUP1 PUSH0 MSTORE PUSH1 0x1 PUSH1 0x20 MSTORE PUSH1 0x40 PUSH0 KECCAK256 DUP4 PUSH0 MSTORE PUSH1 0x20 MSTORE PUSH1 0x40 PUSH0 KECCAK256 DUP1 SLOAD SWAP1 DUP4 DUP3 SUB SWAP2 DUP3 GT PUSH2 0x6ED JUMPI SSTORE PUSH1 0x40 DUP1 MLOAD CALLER DUP2 MSTORE PUSH1 0x20 DUP2 ADD SWAP4 SWAP1 SWAP4 MSTORE PUSH0 SWAP3 PUSH0 MLOAD PUSH1 0x20 PUSH2 0x4162 PUSH0 CODECOPY PUSH0 MLOAD SWAP1 PUSH0 MSTORE SWAP2 DUP2 SWAP1 DUP2 ADD JUMPDEST SUB SWAP1 LOG4 JUMP JUMPDEST SWAP1 PUSH1 0xF SIGNEXTEND SWAP1 PUSH1 0xF SIGNEXTEND ADD SWAP1 PUSH1 0x1 PUSH1 0x1 PUSH1 0x7F SHL SUB NOT DUP3 SLT PUSH1 0x1 PUSH1 0x1 PUSH1 0x7F SHL SUB DUP4 SGT OR PUSH2 0x6ED JUMPI JUMP JUMPDEST SWAP1 SWAP2 DUP2 PUSH0 MSTORE PUSH1 0x5 PUSH1 0x20 MSTORE PUSH1 0x1 PUSH1 0x1 PUSH1 0x80 SHL SUB PUSH2 0x317E PUSH2 0x3174 PUSH1 0x40 PUSH0 KECCAK256 SLOAD SWAP6 DUP4 DUP8 AND PUSH1 0xF SIGNEXTEND PUSH2 0x3125 JUMP JUMPDEST SWAP3 DUP6 PUSH1 0x80 SAR PUSH2 0x3125 JUMP JUMPDEST DUP2 NOT SWAP1 PUSH1 0x80 SHL AND SWAP2 AND OR SWAP2 DUP3 SUB PUSH2 0x3193 JUMPI POP POP JUMP JUMPDEST PUSH0 MSTORE PUSH1 0x5 PUSH1 0x20 MSTORE PUSH1 0x40 PUSH0 KECCAK256 SSTORE JUMP JUMPDEST SWAP1 PUSH2 0x31AC SWAP2 ADDRESS PUSH2 0x3560 JUMP JUMPDEST SWAP1 DUP2 TLOAD ADD SWAP1 TSTORE JUMP JUMPDEST PUSH1 0x1 PUSH1 0x1 PUSH1 0x80 SHL SUB SWAP3 SWAP4 PUSH0 EQ PUSH2 0x31E7 JUMPI POP AND SWAP1 DUP1 DUP3 LT PUSH2 0x31D2 JUMPI POP POP JUMP JUMPDEST PUSH4 0x1735867 PUSH1 0xE0 SHL PUSH0 MSTORE PUSH1 0x4 MSTORE PUSH1 0x24 MSTORE PUSH1 0x44 PUSH0 REVERT JUMPDEST SWAP1 POP AND SWAP1 DUP1 DUP3 LT PUSH2 0x31F6 JUMPI POP POP JUMP JUMPDEST PUSH4 0x68580A19 PUSH1 0xE0 SHL PUSH0 MSTORE PUSH1 0x4 MSTORE PUSH1 0x24 MSTORE PUSH1 0x44 PUSH0 REVERT JUMPDEST SWAP2 SWAP1 SWAP2 PUSH0 DUP4 DUP3 ADD SWAP4 DUP5 SLT SWAP2 SLT SWAP1 DUP1 ISZERO DUP3 AND SWAP2 ISZERO AND OR PUSH2 0x6ED JUMPI JUMP JUMPDEST SWAP1 SWAP3 PUSH2 0x3233 DUP5 DUP4 ADDRESS PUSH2 0x3560 JUMP JUMPDEST TLOAD PUSH2 0x323F DUP5 DUP5 ADDRESS PUSH2 0x3560 JUMP JUMPDEST TLOAD SWAP2 PUSH1 0x1 PUSH1 0x1 PUSH1 0xA0 SHL SUB DUP6 DUP2 AND SWAP3 SWAP1 DUP8 AND DUP1 DUP5 EQ PUSH2 0x3308 JUMPI SWAP2 DUP2 PUSH2 0x32A2 SWAP6 SWAP4 PUSH0 PUSH2 0x1FE SWAP11 SWAP7 SWAP5 SLT PUSH0 EQ PUSH2 0x32E8 JUMPI PUSH2 0x3278 PUSH2 0x3287 SWAP3 PUSH2 0x2ACE JUMP JUMPDEST SWAP1 PUSH2 0x32E1 JUMPI DUP3 SWAP1 JUMPDEST DUP9 DUP8 PUSH2 0x36D1 JUMP JUMPDEST PUSH0 DUP4 SGT ISZERO PUSH2 0x32A7 JUMPI POP POP PUSH2 0x329C SWAP1 DUP5 DUP7 PUSH2 0x37AB JUMP JUMPDEST DUP3 PUSH2 0x381C JUMP JUMPDEST PUSH2 0x381C JUMP JUMPDEST PUSH0 DUP4 SLT PUSH2 0x32B7 JUMPI JUMPDEST POP POP POP PUSH2 0x329C JUMP JUMPDEST PUSH2 0x32C3 PUSH2 0x32D1 SWAP4 PUSH2 0x2ACE JUMP JUMPDEST SWAP2 PUSH2 0x32D9 JUMPI SWAP1 JUMPDEST DUP6 DUP8 PUSH2 0x36D1 JUMP JUMPDEST PUSH0 DUP1 DUP1 PUSH2 0x32AF JUMP JUMPDEST POP PUSH0 SWAP1 PUSH2 0x32CA JUMP JUMPDEST PUSH0 SWAP1 PUSH2 0x3280 JUMP JUMPDEST POP PUSH0 DUP2 SGT PUSH2 0x32F7 JUMPI JUMPDEST POP PUSH2 0x3287 JUMP JUMPDEST PUSH2 0x3302 SWAP1 DUP8 DUP7 PUSH2 0x37AB JUMP JUMPDEST PUSH0 PUSH2 0x32F1 JUMP JUMPDEST SWAP3 POP PUSH2 0x1FE SWAP7 SWAP6 SWAP4 PUSH2 0x3319 SWAP2 PUSH2 0x320B JUMP JUMPDEST SWAP3 PUSH0 DUP5 SLT ISZERO PUSH2 0x3345 JUMPI POP PUSH2 0x332F PUSH2 0x32A2 SWAP4 PUSH2 0x2ACE JUMP JUMPDEST SWAP2 PUSH2 0x333D JUMPI SWAP1 JUMPDEST DUP4 DUP6 PUSH2 0x36D1 JUMP JUMPDEST POP PUSH0 SWAP1 PUSH2 0x3336 JUMP JUMPDEST SWAP3 SWAP2 POP POP DUP3 PUSH0 DUP3 SGT PUSH2 0x335A JUMPI JUMPDEST POP POP POP PUSH2 0x381C JUMP JUMPDEST PUSH2 0x3363 SWAP3 PUSH2 0x37AB JUMP JUMPDEST PUSH0 DUP1 DUP3 PUSH2 0x3352 JUMP JUMPDEST PUSH1 0x1 PUSH1 0x1 PUSH1 0x80 SHL SUB PUSH8 0xDE0B6B3A7640000 SWAP2 AND MUL SWAP1 PUSH1 0x1 PUSH1 0x1 PUSH1 0x80 SHL SUB DUP3 AND SWAP2 DUP3 SUB PUSH2 0x6ED JUMPI JUMP JUMPDEST SWAP3 SWAP5 SWAP4 SWAP2 SWAP1 SWAP4 DUP3 PUSH0 MSTORE PUSH1 0x4 PUSH1 0x20 MSTORE PUSH1 0x40 PUSH0 KECCAK256 SLOAD ISZERO PUSH0 EQ PUSH2 0x33D3 JUMPI POP POP POP PUSH2 0x33BA SWAP3 POP PUSH2 0x2488 JUMP JUMPDEST SWAP1 JUMPDEST DUP2 ISZERO PUSH2 0x33C4 JUMPI JUMP JUMPDEST PUSH4 0x283EEADF PUSH1 0xE0 SHL PUSH0 MSTORE PUSH1 0x4 PUSH0 REVERT JUMPDEST SWAP1 SWAP3 SWAP2 SWAP4 PUSH8 0xDE0B6B3A7640000 DUP2 MUL SWAP1 DUP1 DUP3 DIV PUSH8 0xDE0B6B3A7640000 EQ SWAP1 ISZERO OR ISZERO PUSH2 0x6ED JUMPI DUP2 PUSH2 0x3402 SWAP2 PUSH2 0x2A6E JUMP JUMPDEST DUP3 ADD DUP1 SWAP3 GT PUSH2 0x6ED JUMPI PUSH2 0x3443 PUSH2 0x17AA SWAP4 PUSH1 0x1 PUSH1 0x1 PUSH1 0x80 SHL SUB PUSH2 0x343C PUSH2 0x3453 SWAP5 PUSH2 0x17AA PUSH2 0x3430 PUSH2 0x345A SWAP12 PUSH2 0x336B JUMP JUMPDEST PUSH1 0x1 PUSH1 0x1 PUSH1 0x80 SHL SUB AND SWAP1 JUMP JUMPDEST SWAP2 AND PUSH2 0x2488 JUMP JUMPDEST SWAP4 PUSH1 0x4 SWAP1 PUSH0 MSTORE PUSH1 0x20 MSTORE PUSH1 0x40 PUSH0 KECCAK256 SWAP1 JUMP JUMPDEST SLOAD SWAP1 PUSH2 0x2A5B JUMP JUMPDEST SWAP1 PUSH2 0x33BC JUMP JUMPDEST SWAP2 SWAP1 SWAP2 PUSH1 0x1 DUP1 PUSH1 0xA0 SHL SUB AND SWAP1 DUP2 PUSH0 MSTORE PUSH1 0x1 PUSH1 0x20 MSTORE PUSH1 0x40 PUSH0 KECCAK256 DUP4 PUSH0 MSTORE PUSH1 0x20 MSTORE PUSH1 0x40 PUSH0 KECCAK256 DUP1 SLOAD SWAP1 DUP3 DUP3 ADD DUP1 SWAP3 GT PUSH2 0x6ED JUMPI SSTORE PUSH1 0x40 DUP1 MLOAD CALLER DUP2 MSTORE PUSH1 0x20 DUP2 ADD SWAP3 SWAP1 SWAP3 MSTORE PUSH0 SWAP2 PUSH0 MLOAD PUSH1 0x20 PUSH2 0x4162 PUSH0 CODECOPY PUSH0 MLOAD SWAP1 PUSH0 MSTORE SWAP2 DUP2 SWAP1 DUP2 ADD PUSH2 0x3120 JUMP JUMPDEST SWAP1 PUSH1 0x60 SWAP2 DUP1 TLOAD SWAP1 DUP2 ISZERO DUP1 PUSH2 0x3517 JUMPI JUMPDEST ISZERO PUSH2 0x34D1 JUMPI POP POP JUMP JUMPDEST SWAP1 SWAP3 POP PUSH1 0x1F PUSH1 0x40 MLOAD SWAP4 DUP1 DUP6 MSTORE ADD SWAP1 DUP2 PUSH1 0x5 SHR SWAP1 PUSH0 JUMPDEST DUP3 DUP2 LT PUSH2 0x34FE JUMPI POP POP POP PUSH1 0x1F NOT AND DUP3 ADD PUSH1 0x20 ADD PUSH1 0x40 MSTORE JUMP JUMPDEST DUP1 PUSH1 0x1 DUP1 SWAP3 DUP5 ADD ADD TLOAD PUSH1 0x20 DUP3 PUSH1 0x5 SHL DUP10 ADD ADD MSTORE ADD PUSH2 0x34E6 JUMP JUMPDEST SWAP4 POP PUSH1 0x40 MLOAD SWAP4 PUSH0 DUP6 MSTORE PUSH1 0x20 DUP6 ADD PUSH1 0x40 MSTORE PUSH2 0x34C8 JUMP JUMPDEST PUSH1 0x1F DUP3 MLOAD DUP1 DUP4 TSTORE ADD PUSH1 0x5 SHR SWAP2 PUSH0 JUMPDEST DUP4 DUP2 LT PUSH2 0x3547 JUMPI POP POP POP POP JUMP JUMPDEST DUP1 PUSH1 0x20 PUSH1 0x1 SWAP3 PUSH1 0x5 SHL DUP5 ADD ADD MLOAD DUP3 DUP3 DUP7 ADD ADD TSTORE ADD PUSH2 0x353A JUMP JUMPDEST SWAP2 PUSH1 0x40 MLOAD SWAP2 PUSH1 0x20 DUP4 ADD SWAP4 PUSH32 0x71AA94563C1D78D77DF681AD802FC1A81EA7D00CFFE4BBE002400E1D66DE80D2 DUP6 MSTORE PUSH1 0x1 PUSH1 0x1 PUSH1 0x60 SHL SUB NOT SWAP1 PUSH1 0x60 SHL AND PUSH1 0x40 DUP5 ADD MSTORE PUSH1 0x1 PUSH1 0x1 PUSH1 0x60 SHL SUB NOT SWAP1 PUSH1 0x60 SHL AND PUSH1 0x54 DUP4 ADD MSTORE PUSH1 0x1 PUSH1 0x1 PUSH1 0x60 SHL SUB NOT SWAP1 PUSH1 0x60 SHL AND PUSH1 0x68 DUP3 ADD MSTORE PUSH1 0x5C DUP2 MSTORE PUSH2 0x2C18 PUSH1 0x7C DUP3 PUSH2 0x2D3 JUMP JUMPDEST SWAP1 PUSH1 0x40 MLOAD SWAP1 PUSH1 0x20 DUP3 ADD SWAP3 PUSH32 0xE88690B85C82523984F05D1F281684A73AA4D4303BCA19CFE29AA89AE744616A DUP5 MSTORE PUSH1 0x1 PUSH1 0x1 PUSH1 0x60 SHL SUB NOT SWAP1 PUSH1 0x60 SHL AND PUSH1 0x40 DUP4 ADD MSTORE PUSH1 0x1 PUSH1 0x1 PUSH1 0x60 SHL SUB NOT SWAP1 PUSH1 0x60 SHL AND PUSH1 0x54 DUP3 ADD MSTORE PUSH1 0x48 DUP2 MSTORE PUSH2 0x2C18 PUSH1 0x68 DUP3 PUSH2 0x2D3 JUMP JUMPDEST SWAP1 DUP2 PUSH1 0x20 SWAP2 SUB SLT PUSH2 0x1EF JUMPI MLOAD PUSH2 0x3A0 DUP2 PUSH2 0x3A3 JUMP JUMPDEST ISZERO PUSH2 0x3653 JUMPI JUMP JUMPDEST PUSH1 0x40 MLOAD PUSH3 0x461BCD PUSH1 0xE5 SHL DUP2 MSTORE PUSH1 0x20 PUSH1 0x4 DUP3 ADD MSTORE PUSH1 0x15 PUSH1 0x24 DUP3 ADD MSTORE PUSH21 0x115490CC8C081D1C985B9CD9995C8819985A5B1959 PUSH1 0x5A SHL PUSH1 0x44 DUP3 ADD MSTORE PUSH1 0x64 SWAP1 REVERT JUMPDEST ISZERO PUSH2 0x3697 JUMPI JUMP JUMPDEST PUSH1 0x40 MLOAD PUSH3 0x461BCD PUSH1 0xE5 SHL DUP2 MSTORE PUSH1 0x20 PUSH1 0x4 DUP3 ADD MSTORE PUSH1 0x12 PUSH1 0x24 DUP3 ADD MSTORE PUSH18 0x125B98DBDC9C9958DD08115512081CD95B9D PUSH1 0x72 SHL PUSH1 0x44 DUP3 ADD MSTORE PUSH1 0x64 SWAP1 REVERT JUMPDEST PUSH1 0x1 PUSH1 0x1 PUSH1 0xA0 SHL SUB AND SWAP3 SWAP1 DUP4 PUSH2 0x36ED JUMPI POP PUSH2 0x1FE SWAP3 POP EQ PUSH2 0x3690 JUMP JUMPDEST SWAP2 SWAP1 PUSH2 0x3773 JUMPI PUSH1 0x40 MLOAD PUSH4 0x23B872DD PUSH1 0xE0 SHL DUP2 MSTORE PUSH1 0x1 PUSH1 0x1 PUSH1 0xA0 SHL SUB SWAP1 SWAP3 AND PUSH1 0x4 DUP4 ADD MSTORE ADDRESS PUSH1 0x24 DUP4 ADD MSTORE PUSH1 0x44 DUP3 ADD MSTORE SWAP1 PUSH1 0x20 SWAP1 DUP3 SWAP1 DUP2 PUSH0 DUP2 PUSH1 0x64 DUP2 ADD JUMPDEST SUB SWAP3 GAS CALL DUP1 ISZERO PUSH2 0xE73 JUMPI PUSH2 0x1FE SWAP2 PUSH0 SWAP2 PUSH2 0x3744 JUMPI JUMPDEST POP PUSH2 0x364C JUMP JUMPDEST PUSH2 0x3766 SWAP2 POP PUSH1 0x20 RETURNDATASIZE PUSH1 0x20 GT PUSH2 0x376C JUMPI JUMPDEST PUSH2 0x375E DUP2 DUP4 PUSH2 0x2D3 JUMP JUMPDEST DUP2 ADD SWAP1 PUSH2 0x3637 JUMP JUMPDEST PUSH0 PUSH2 0x373E JUMP JUMPDEST POP RETURNDATASIZE PUSH2 0x3754 JUMP JUMPDEST PUSH1 0x40 MLOAD PUSH3 0x461BCD PUSH1 0xE5 SHL DUP2 MSTORE PUSH1 0x20 PUSH1 0x4 DUP3 ADD MSTORE PUSH1 0x10 PUSH1 0x24 DUP3 ADD MSTORE PUSH16 0x115512081B9BDD08195E1C1958DD1959 PUSH1 0x82 SHL PUSH1 0x44 DUP3 ADD MSTORE PUSH1 0x64 SWAP1 REVERT JUMPDEST PUSH1 0x1 PUSH1 0x1 PUSH1 0xA0 SHL SUB AND DUP1 PUSH2 0x37E5 JUMPI POP PUSH0 DUP1 DUP1 SWAP4 DUP2 SWAP4 DUP3 SWAP1 DUP3 ISZERO PUSH2 0x37DB JUMPI JUMPDEST PUSH1 0x1 PUSH1 0x1 PUSH1 0xA0 SHL SUB AND SWAP1 CALL ISZERO PUSH2 0xE73 JUMPI JUMP JUMPDEST PUSH2 0x8FC SWAP2 POP PUSH2 0x37C9 JUMP JUMPDEST PUSH1 0x40 MLOAD PUSH4 0xA9059CBB PUSH1 0xE0 SHL DUP2 MSTORE PUSH1 0x1 PUSH1 0x1 PUSH1 0xA0 SHL SUB SWAP1 SWAP3 AND PUSH1 0x4 DUP4 ADD MSTORE PUSH1 0x24 DUP3 ADD SWAP3 SWAP1 SWAP3 MSTORE SWAP1 PUSH1 0x20 SWAP1 DUP3 SWAP1 DUP2 PUSH0 DUP2 PUSH1 0x44 DUP2 ADD PUSH2 0x3729 JUMP JUMPDEST PUSH0 SWAP2 PUSH2 0x301D SWAP2 ADDRESS PUSH2 0x3560 JUMP JUMPDEST SWAP1 CALLDATALOAD SWAP1 PUSH1 0x1E NOT DUP2 CALLDATASIZE SUB ADD DUP3 SLT ISZERO PUSH2 0x1EF JUMPI ADD DUP1 CALLDATALOAD SWAP1 PUSH1 0x1 PUSH1 0x1 PUSH1 0x40 SHL SUB DUP3 GT PUSH2 0x1EF JUMPI PUSH1 0x20 ADD SWAP2 DUP2 PUSH1 0x5 SHL CALLDATASIZE SUB DUP4 SGT PUSH2 0x1EF JUMPI JUMP JUMPDEST ISZERO PUSH2 0x3864 JUMPI JUMP JUMPDEST PUSH1 0x40 MLOAD PUSH3 0x461BCD PUSH1 0xE5 SHL DUP2 MSTORE PUSH1 0x20 PUSH1 0x4 DUP3 ADD MSTORE PUSH1 0x11 PUSH1 0x24 DUP3 ADD MSTORE PUSH17 0x4D69736D61746368656420617272617973 PUSH1 0x78 SHL PUSH1 0x44 DUP3 ADD MSTORE PUSH1 0x64 SWAP1 REVERT JUMPDEST CALLDATALOAD PUSH2 0x3A0 DUP2 PUSH2 0x3B8 JUMP JUMPDEST SWAP6 SWAP5 SWAP4 SWAP3 SWAP2 POP PUSH1 0x60 DUP7 ADD PUSH2 0x38BB DUP2 DUP9 PUSH2 0x3828 JUMP JUMPDEST SWAP1 POP ISZERO PUSH2 0x395D JUMPI PUSH2 0x38E7 PUSH2 0x38D2 PUSH1 0x80 DUP10 ADD DUP10 PUSH2 0x3828 JUMP JUMPDEST SWAP1 POP PUSH2 0x38DE DUP4 DUP11 PUSH2 0x3828 JUMP JUMPDEST SWAP2 SWAP1 POP EQ PUSH2 0x385D JUMP JUMPDEST PUSH1 0x1 PUSH2 0x38F3 DUP3 DUP10 PUSH2 0x3828 JUMP JUMPDEST SWAP1 POP EQ PUSH0 EQ PUSH2 0x3951 JUMPI DUP7 PUSH2 0x3909 PUSH2 0x3A0 SWAP9 PUSH2 0x24AE JUMP JUMPDEST SWAP2 PUSH2 0x3916 PUSH1 0x20 DUP4 ADD PUSH2 0x24AE JUMP JUMPDEST PUSH2 0x3949 PUSH1 0xA0 PUSH2 0x3942 PUSH2 0x393D PUSH2 0x3937 PUSH2 0x3930 PUSH1 0x40 DUP10 ADD PUSH2 0x24AE JUMP JUMPDEST SWAP7 DUP9 PUSH2 0x3828 JUMP JUMPDEST SWAP1 PUSH2 0x2495 JUMP JUMPDEST PUSH2 0x389D JUMP JUMPDEST SWAP5 ADD PUSH2 0x30C2 JUMP JUMPDEST SWAP4 PUSH1 0x4 PUSH2 0x3E66 JUMP JUMPDEST POP PUSH2 0x3A0 SWAP6 PUSH1 0x4 PUSH2 0x3AB2 JUMP JUMPDEST PUSH1 0x40 MLOAD PUSH3 0x461BCD PUSH1 0xE5 SHL DUP2 MSTORE PUSH1 0x20 PUSH1 0x4 DUP3 ADD MSTORE PUSH1 0xB PUSH1 0x24 DUP3 ADD MSTORE PUSH11 0x4E6F206D61726B696E6773 PUSH1 0xA8 SHL PUSH1 0x44 DUP3 ADD MSTORE PUSH1 0x64 SWAP1 REVERT JUMPDEST SWAP2 SWAP1 SWAP2 PUSH1 0x40 DUP2 DUP5 SUB SLT PUSH2 0x1EF JUMPI DUP1 MLOAD PUSH1 0x1 PUSH1 0x1 PUSH1 0x40 SHL SUB DUP2 GT PUSH2 0x1EF JUMPI DUP4 PUSH2 0x39B9 SWAP2 DUP4 ADD PUSH2 0x1D73 JUMP JUMPDEST SWAP3 PUSH1 0x20 DUP3 ADD MLOAD PUSH1 0x1 PUSH1 0x1 PUSH1 0x40 SHL SUB DUP2 GT PUSH2 0x1EF JUMPI PUSH2 0x3A0 SWAP3 ADD PUSH2 0x1D73 JUMP JUMPDEST SWAP1 PUSH1 0x20 DUP1 DUP4 MLOAD SWAP3 DUP4 DUP2 MSTORE ADD SWAP3 ADD SWAP1 PUSH0 JUMPDEST DUP2 DUP2 LT PUSH2 0x39F4 JUMPI POP POP POP SWAP1 JUMP JUMPDEST DUP3 MLOAD PUSH1 0x1 PUSH1 0x1 PUSH1 0xE8 SHL SUB NOT AND DUP5 MSTORE PUSH1 0x20 SWAP4 DUP5 ADD SWAP4 SWAP1 SWAP3 ADD SWAP2 PUSH1 0x1 ADD PUSH2 0x39E7 JUMP JUMPDEST DUP1 MLOAD PUSH1 0x1 PUSH1 0x1 PUSH1 0xA0 SHL SUB SWAP1 DUP2 AND DUP4 MSTORE PUSH1 0x20 DUP1 DUP4 ADD MLOAD DUP3 AND SWAP1 DUP5 ADD MSTORE PUSH1 0x40 DUP1 DUP4 ADD MLOAD SWAP1 SWAP2 AND SWAP1 DUP4 ADD MSTORE PUSH1 0x60 DUP1 DUP3 ADD MLOAD PUSH1 0xC0 SWAP2 DUP5 ADD DUP3 SWAP1 MSTORE PUSH2 0x3A0 SWAP4 SWAP2 PUSH1 0xA0 SWAP2 PUSH2 0x3A5E SWAP2 DUP5 ADD SWAP1 PUSH2 0x5AD JUMP JUMPDEST SWAP3 PUSH1 0x80 DUP2 ADD MLOAD ISZERO ISZERO PUSH1 0x80 DUP5 ADD MSTORE ADD MLOAD SWAP1 PUSH1 0xA0 DUP2 DUP5 SUB SWAP2 ADD MSTORE PUSH2 0x39D7 JUMP JUMPDEST SWAP2 PUSH2 0x3AA4 SWAP1 PUSH2 0x3A96 PUSH2 0x3A0 SWAP6 SWAP4 PUSH1 0x60 DUP7 MSTORE PUSH1 0x60 DUP7 ADD SWAP1 PUSH2 0x3A14 JUMP JUMPDEST SWAP1 DUP5 DUP3 SUB PUSH1 0x20 DUP7 ADD MSTORE PUSH2 0x1DF5 JUMP JUMPDEST SWAP2 PUSH1 0x40 DUP2 DUP5 SUB SWAP2 ADD MSTORE PUSH2 0x1DF5 JUMP JUMPDEST SWAP7 SWAP5 SWAP6 SWAP1 SWAP3 SWAP4 SWAP2 SWAP7 PUSH1 0x60 DUP5 ADD SWAP8 PUSH2 0x3AC9 DUP10 DUP7 PUSH2 0x3828 JUMP JUMPDEST SWAP7 SWAP1 POP PUSH2 0x3E23 JUMPI JUMPDEST POP PUSH2 0x3ADB DUP6 PUSH2 0x1CE3 JUMP JUMPDEST SWAP2 PUSH2 0x3AE5 DUP7 PUSH2 0x1CE3 JUMP JUMPDEST SWAP1 PUSH0 JUMPDEST DUP8 DUP2 LT PUSH2 0x3D8D JUMPI POP DUP2 PUSH0 SWAP2 DUP6 DUP4 DUP10 PUSH2 0x3BAC PUSH2 0x3BCE SWAP14 SWAP15 SWAP16 PUSH2 0x3B80 PUSH2 0x3BA5 PUSH2 0x3B0E DUP6 PUSH2 0x24AE JUMP JUMPDEST SWAP5 PUSH2 0x3B97 PUSH2 0x3B1E PUSH1 0x20 DUP4 ADD PUSH2 0x24AE JUMP JUMPDEST SWAP5 PUSH2 0x3B53 PUSH2 0x3B90 PUSH2 0x3B31 PUSH1 0x40 DUP7 ADD PUSH2 0x24AE JUMP JUMPDEST PUSH2 0x3B3E PUSH1 0x80 DUP8 ADD DUP8 PUSH2 0x3828 JUMP JUMPDEST SWAP4 SWAP1 SWAP5 PUSH2 0x3B4D PUSH1 0xA0 DUP10 ADD PUSH2 0x30C2 JUMP JUMPDEST SWAP8 PUSH2 0x3828 JUMP JUMPDEST SWAP9 SWAP1 SWAP10 PUSH2 0x3B70 PUSH2 0x3B61 PUSH2 0x2F4 JUMP JUMPDEST PUSH1 0x1 PUSH1 0x1 PUSH1 0xA0 SHL SUB SWAP1 SWAP15 AND DUP15 MSTORE JUMP JUMPDEST PUSH1 0x1 PUSH1 0x1 PUSH1 0xA0 SHL SUB AND PUSH1 0x20 DUP14 ADD MSTORE JUMP JUMPDEST PUSH1 0x1 PUSH1 0x1 PUSH1 0xA0 SHL SUB AND PUSH1 0x40 DUP12 ADD MSTORE JUMP JUMPDEST CALLDATASIZE SWAP2 PUSH2 0x339 JUMP JUMPDEST PUSH1 0x60 DUP8 ADD MSTORE ISZERO ISZERO PUSH1 0x80 DUP7 ADD MSTORE JUMP JUMPDEST CALLDATASIZE SWAP2 PUSH2 0x3CA JUMP JUMPDEST PUSH1 0xA0 DUP3 ADD MSTORE PUSH1 0x40 MLOAD PUSH4 0x27B8F7B PUSH1 0xE1 SHL DUP2 MSTORE SWAP13 DUP14 SWAP6 DUP7 SWAP5 DUP6 SWAP4 PUSH1 0x4 DUP6 ADD PUSH2 0x3A7B JUMP JUMPDEST SUB SWAP3 PUSH1 0x1 PUSH1 0x1 PUSH1 0xA0 SHL SUB AND GAS CALL SWAP1 DUP2 ISZERO PUSH2 0xE73 JUMPI PUSH0 SWAP8 PUSH0 SWAP3 PUSH2 0x3D66 JUMPI JUMPDEST POP PUSH0 JUMPDEST DUP8 DUP2 LT PUSH2 0x3C6A JUMPI POP POP POP POP POP SWAP1 PUSH2 0x3C17 SWAP5 SWAP6 PUSH2 0x3C11 SWAP4 SWAP3 PUSH2 0x3C1B JUMPI JUMPDEST POP POP PUSH2 0x246D JUMP JUMPDEST SWAP1 PUSH2 0x1D4B JUMP JUMPDEST MLOAD SWAP1 JUMP JUMPDEST DUP2 PUSH2 0x3C2B PUSH1 0xA0 PUSH2 0x3C55 SWAP5 ADD PUSH2 0x30C2 JUMP JUMPDEST ISZERO PUSH2 0x3C5C JUMPI PUSH1 0x20 PUSH2 0x3C3C SWAP2 ADD PUSH2 0x24AE JUMP JUMPDEST PUSH2 0x3C4E PUSH2 0x3C48 DUP6 PUSH2 0x246D JUMP JUMPDEST DUP8 PUSH2 0x1D4B JUMP JUMPDEST MLOAD SWAP2 PUSH2 0x31A1 JUMP JUMPDEST PUSH0 DUP1 PUSH2 0x3C0A JUMP JUMPDEST PUSH2 0x3C65 SWAP1 PUSH2 0x24AE JUMP JUMPDEST PUSH2 0x3C3C JUMP JUMPDEST DUP1 PUSH2 0x3D2C DUP11 DUP10 PUSH2 0x3C94 DUP5 PUSH2 0x3C8D PUSH1 0x1 SWAP8 PUSH2 0x3C87 PUSH1 0x80 DUP7 ADD DUP7 PUSH2 0x3828 JUMP JUMPDEST SWAP1 PUSH2 0x249E JUMP JUMPDEST CALLDATALOAD SWAP4 PUSH2 0x1D4B JUMP JUMPDEST MLOAD PUSH2 0x3CD2 PUSH2 0x3CB2 PUSH2 0x3CA5 DUP8 DUP14 PUSH2 0x1D4B JUMP JUMPDEST MLOAD PUSH1 0x1 PUSH1 0x1 PUSH1 0x80 SHL SUB AND SWAP1 JUMP JUMPDEST DUP3 PUSH2 0x3CC0 PUSH2 0x3CA5 DUP10 DUP13 PUSH2 0x1D4B JUMP JUMPDEST PUSH2 0x3CCC PUSH1 0xA0 DUP8 ADD PUSH2 0x30C2 JUMP JUMPDEST SWAP3 PUSH2 0x31B4 JUMP JUMPDEST PUSH2 0x3CDC DUP6 DUP10 PUSH2 0x1D4B JUMP JUMPDEST MLOAD SWAP3 PUSH2 0x3CEA PUSH1 0xA0 DUP5 ADD PUSH2 0x30C2 JUMP JUMPDEST ISZERO PUSH2 0x3D46 JUMPI PUSH2 0x3D09 PUSH1 0xA0 PUSH1 0x1 PUSH1 0x1 PUSH1 0x80 SHL SUB DUP4 AND PUSH1 0xF SIGNEXTEND SWAP5 JUMPDEST ADD PUSH2 0x30C2 JUMP JUMPDEST ISZERO PUSH2 0x3D32 JUMPI POP PUSH1 0x1 PUSH1 0x1 PUSH1 0x80 SHL SUB PUSH2 0x3D24 SWAP2 AND PUSH1 0xF SIGNEXTEND PUSH2 0x2A8C JUMP JUMPDEST SWAP2 JUMPDEST DUP9 PUSH2 0x3F8A JUMP JUMPDEST ADD PUSH2 0x3BEE JUMP JUMPDEST PUSH1 0x1 PUSH1 0x1 PUSH1 0x80 SHL SUB SWAP2 POP AND PUSH1 0xF SIGNEXTEND SWAP2 PUSH2 0x3D26 JUMP JUMPDEST PUSH2 0x3D09 PUSH1 0xA0 PUSH2 0x3D60 PUSH1 0x1 PUSH1 0x1 PUSH1 0x80 SHL SUB DUP6 AND PUSH1 0xF SIGNEXTEND PUSH2 0x2A8C JUMP JUMPDEST SWAP5 PUSH2 0x3D03 JUMP JUMPDEST SWAP1 SWAP8 POP PUSH2 0x3D85 SWAP2 POP RETURNDATASIZE DUP1 PUSH0 DUP4 RETURNDATACOPY PUSH2 0x3D7D DUP2 DUP4 PUSH2 0x2D3 JUMP JUMPDEST DUP2 ADD SWAP1 PUSH2 0x3990 JUMP JUMPDEST SWAP1 SWAP7 PUSH0 PUSH2 0x3BEB JUMP JUMPDEST PUSH1 0x1 SWAP1 PUSH2 0x3E1D PUSH2 0x3E13 PUSH2 0x3DF8 PUSH2 0x3DD7 DUP16 DUP13 PUSH2 0x3DA7 DUP2 PUSH2 0x24AE JUMP JUMPDEST SWAP2 PUSH2 0x3DD1 PUSH2 0x393D DUP10 PUSH2 0x3C87 PUSH2 0x3DBE PUSH1 0x20 DUP8 ADD PUSH2 0x24AE JUMP JUMPDEST SWAP5 PUSH2 0x3DCB PUSH1 0x40 DUP9 ADD PUSH2 0x24AE JUMP JUMPDEST SWAP7 PUSH2 0x3828 JUMP JUMPDEST SWAP3 PUSH2 0x2BAC JUMP JUMPDEST DUP9 PUSH1 0x1 SWAP2 PUSH0 MSTORE ADD PUSH1 0x20 MSTORE PUSH1 0x40 PUSH0 KECCAK256 SLOAD SWAP1 PUSH1 0x1 PUSH1 0x1 PUSH1 0x80 SHL SUB DUP3 AND SWAP2 PUSH1 0x80 SHR SWAP1 JUMP JUMPDEST PUSH2 0x3E05 DUP6 DUP10 SWAP5 SWAP4 SWAP5 PUSH2 0x1D4B JUMP JUMPDEST SWAP1 PUSH1 0x1 PUSH1 0x1 PUSH1 0x80 SHL SUB AND SWAP1 MSTORE JUMP JUMPDEST PUSH2 0x3E05 DUP4 DUP10 PUSH2 0x1D4B JUMP JUMPDEST ADD PUSH2 0x3AE8 JUMP JUMPDEST PUSH2 0x3E51 SWAP1 PUSH2 0x3E33 PUSH1 0xA0 DUP8 ADD PUSH2 0x30C2 JUMP JUMPDEST ISZERO PUSH2 0x3E57 JUMPI PUSH2 0x3E4A PUSH2 0x3E44 DUP8 PUSH2 0x24AE JUMP JUMPDEST SWAP2 PUSH2 0x2ACE JUMP JUMPDEST SWAP1 DUP10 PUSH2 0x31A1 JUMP JUMPDEST PUSH0 PUSH2 0x3AD1 JUMP JUMPDEST PUSH2 0x3E4A PUSH2 0x3E44 PUSH1 0x20 DUP9 ADD PUSH2 0x24AE JUMP JUMPDEST SWAP2 DUP6 DUP1 SWAP13 SWAP12 DUP3 SWAP9 SWAP4 SWAP8 SWAP12 SWAP10 SWAP6 SWAP11 SWAP7 SWAP11 PUSH2 0x3E81 DUP13 DUP3 DUP7 DUP13 PUSH2 0x2BAC JUMP JUMPDEST SWAP7 PUSH2 0x3F61 JUMPI JUMPDEST DUP9 DUP6 PUSH2 0x3EAE DUP10 DUP10 PUSH1 0x1 SWAP2 PUSH0 MSTORE ADD PUSH1 0x20 MSTORE PUSH1 0x40 PUSH0 KECCAK256 SLOAD SWAP1 PUSH1 0x1 PUSH1 0x1 PUSH1 0x80 SHL SUB DUP3 AND SWAP2 PUSH1 0x80 SHR SWAP1 JUMP JUMPDEST SWAP15 DUP16 SWAP5 DUP3 SWAP9 PUSH2 0x3EBE SWAP9 SWAP4 SWAP6 PUSH2 0x4028 JUMP JUMPDEST SWAP12 DUP13 DUP1 SWAP11 PUSH2 0x3ECB SWAP4 PUSH2 0x31B4 JUMP JUMPDEST PUSH2 0x3F06 SWAP3 DUP10 ISZERO PUSH2 0x3F46 JUMPI PUSH1 0x1 PUSH1 0x1 PUSH1 0x80 SHL SUB DUP3 AND PUSH1 0xF SIGNEXTEND SWAP2 JUMPDEST DUP11 ISZERO PUSH2 0x3F34 JUMPI POP PUSH2 0x3F00 PUSH1 0x1 PUSH1 0x1 PUSH1 0x80 SHL SUB DUP11 AND PUSH1 0xF SIGNEXTEND PUSH2 0x2A8C JUMP JUMPDEST SWAP3 PUSH2 0x3F8A JUMP JUMPDEST PUSH2 0x3F12 JUMPI JUMPDEST POP POP POP POP POP JUMP JUMPDEST PUSH2 0x3F22 SWAP5 ISZERO PUSH2 0x3F2C JUMPI POP SWAP1 PUSH2 0x31A1 JUMP JUMPDEST PUSH0 DUP3 DUP2 DUP1 DUP1 PUSH2 0x3F0B JUMP JUMPDEST SWAP1 POP SWAP1 PUSH2 0x31A1 JUMP JUMPDEST PUSH1 0x1 PUSH1 0x1 PUSH1 0x80 SHL SUB AND PUSH1 0xF SIGNEXTEND SWAP3 PUSH2 0x3F8A JUMP JUMPDEST PUSH2 0x3F5B PUSH1 0x1 PUSH1 0x1 PUSH1 0x80 SHL SUB DUP11 AND PUSH1 0xF SIGNEXTEND PUSH2 0x2A8C JUMP JUMPDEST SWAP2 PUSH2 0x3EE4 JUMP JUMPDEST DUP3 ISZERO PUSH2 0x3F81 JUMPI PUSH2 0x3F7C DUP10 JUMPDEST PUSH2 0x3F75 DUP8 PUSH2 0x2ACE JUMP JUMPDEST SWAP1 DUP14 PUSH2 0x31A1 JUMP JUMPDEST PUSH2 0x3E87 JUMP JUMPDEST PUSH2 0x3F7C DUP5 PUSH2 0x3F6C JUMP JUMPDEST PUSH1 0x1 SWAP1 SWAP4 SWAP3 SWAP4 ADD SWAP2 DUP2 PUSH0 MSTORE DUP3 PUSH1 0x20 MSTORE PUSH1 0x1 PUSH1 0x1 PUSH1 0x80 SHL SUB PUSH2 0x3FC2 PUSH2 0x3FB8 PUSH1 0x40 PUSH0 KECCAK256 SLOAD SWAP7 DUP4 DUP9 AND PUSH1 0xF SIGNEXTEND PUSH2 0x3125 JUMP JUMPDEST SWAP3 DUP7 PUSH1 0x80 SAR PUSH2 0x3125 JUMP JUMPDEST DUP2 NOT SWAP1 PUSH1 0x80 SHL AND SWAP2 AND OR SWAP3 DUP4 SUB PUSH2 0x3FD8 JUMPI POP POP POP JUMP JUMPDEST PUSH0 MSTORE PUSH1 0x20 MSTORE PUSH1 0x40 PUSH0 KECCAK256 SSTORE JUMP JUMPDEST SWAP2 SWAP1 DUP3 PUSH1 0x40 SWAP2 SUB SLT PUSH2 0x1EF JUMPI PUSH1 0x20 DUP3 MLOAD SWAP3 ADD MLOAD SWAP1 JUMP JUMPDEST SWAP2 SWAP4 SWAP3 PUSH1 0x1 PUSH1 0x1 PUSH1 0x80 SHL SUB SWAP1 DUP2 PUSH2 0x401B PUSH1 0x40 SWAP5 PUSH1 0x60 DUP8 MSTORE PUSH1 0x60 DUP8 ADD SWAP1 PUSH2 0x3A14 JUMP JUMPDEST SWAP7 AND PUSH1 0x20 DUP6 ADD MSTORE AND SWAP2 ADD MSTORE JUMP JUMPDEST PUSH2 0x40CC SWAP9 SWAP4 PUSH0 SWAP3 PUSH2 0x409E PUSH1 0x40 SWAP9 SWAP11 SWAP8 SWAP10 SWAP6 PUSH2 0x408F PUSH2 0x4044 PUSH2 0x1CC1 JUMP JUMPDEST SWAP4 DUP14 PUSH2 0x404F DUP7 PUSH2 0x1D29 JUMP JUMPDEST MSTORE PUSH2 0x4065 PUSH2 0x405B PUSH2 0x1CC1 JUMP JUMPDEST SWAP7 PUSH2 0x1926 DUP9 PUSH2 0x1D29 JUMP JUMPDEST PUSH2 0x407F PUSH2 0x4070 PUSH2 0x2F4 JUMP JUMPDEST PUSH1 0x1 PUSH1 0x1 PUSH1 0xA0 SHL SUB SWAP1 SWAP9 AND DUP9 MSTORE JUMP JUMPDEST PUSH1 0x1 PUSH1 0x1 PUSH1 0xA0 SHL SUB AND PUSH1 0x20 DUP8 ADD MSTORE JUMP JUMPDEST PUSH1 0x1 PUSH1 0x1 PUSH1 0xA0 SHL SUB AND DUP5 DUP11 ADD MSTORE JUMP JUMPDEST PUSH1 0x60 DUP4 ADD MSTORE DUP8 ISZERO ISZERO PUSH1 0x80 DUP4 ADD MSTORE PUSH1 0xA0 DUP3 ADD MSTORE DUP6 MLOAD PUSH4 0x60A80DBB PUSH1 0xE0 SHL DUP2 MSTORE SWAP9 DUP10 SWAP6 DUP7 SWAP5 DUP6 SWAP4 PUSH1 0x4 DUP6 ADD PUSH2 0x3FFA JUMP JUMPDEST SUB SWAP3 PUSH1 0x1 PUSH1 0x1 PUSH1 0xA0 SHL SUB AND GAS CALL SWAP3 DUP4 ISZERO PUSH2 0xE73 JUMPI PUSH0 SWAP4 PUSH2 0x412F JUMPI JUMPDEST POP DUP3 ISZERO PUSH2 0x40F3 JUMPI POP POP SWAP1 JUMP JUMPDEST SWAP1 SWAP2 POP ISZERO PUSH2 0x4115 JUMPI PUSH2 0x4107 PUSH2 0x3A0 SWAP2 PUSH2 0x2A37 JUMP JUMPDEST PUSH8 0xDE0B6B3A7640000 SWAP1 DIV SWAP1 JUMP JUMPDEST PUSH2 0x4121 PUSH2 0x3A0 SWAP2 PUSH2 0x2A13 JUMP JUMPDEST PUSH8 0x120A871CC0020000 SWAP1 DIV SWAP1 JUMP JUMPDEST PUSH2 0x4152 SWAP2 SWAP4 POP PUSH1 0x40 RETURNDATASIZE PUSH1 0x40 GT PUSH2 0x415A JUMPI JUMPDEST PUSH2 0x414A DUP2 DUP4 PUSH2 0x2D3 JUMP JUMPDEST DUP2 ADD SWAP1 PUSH2 0x3FE4 JUMP JUMPDEST POP SWAP2 PUSH0 PUSH2 0x40E7 JUMP JUMPDEST POP RETURNDATASIZE PUSH2 0x4140 JUMP INVALID SHL RETURNDATASIZE PUSH31 0xDB2E9C0B0E7C525B20AAAEF0F5940D2ED71663C7D39266ECAFAC728859A264 PUSH10 0x7066735822122095E67C 0xBF 0xEA CALLER 0xBA SHR NOT EXTSTATICCALL PUSH28 0x34B37830161FB1E0A13A51529E122DCC124797D71464736F6C634300 ADDMOD 0x1E STOP CALLER "},"methodIdentifiers":{"_decodeTwoBytes(bytes)":"f9158ee5","addLiquidity(address,address,address,bytes3,uint256,uint256)":"e513315b","addMarketAddress(uint16,address)":"19a8e9b4","allowance(address,address,uint256)":"598af9e7","approve(address,uint256,uint256)":"426a8493","balanceOf(address,uint256)":"00fdd58e","batchSwap((address,address,address,bytes3[],uint256[],bool)[],uint256,uint256)":"9d2ec6e4","createPool(address,address,address,bytes3)":"5670f55a","defaultMarketData()":"927f010e","flashSession(address,bytes,address[])":"5dfb78af","flashSessionWithReturn(address,bytes,address[])":"ea157acf","getInventory(uint256)":"5b298d32","getMarketAddress(uint16)":"76023539","getPoolInfo(uint256)":"2f380b35","getQuote((address,address,address,uint256[],bool,bytes3[]),uint128,uint128)":"60a80dbb","getQuoteBatch((address,address,address,uint256[],bool,bytes3[]),uint128[],uint128[])":"04f71ef6","getUserDeltas(address,address[])":"314e2321","isOperator(address,address)":"b6363cf2","legacyDefaultBeta()":"583a5570","removeLiquidity(address,address,address,bytes3,uint256)":"cb1f2f38","removeMarketAddress(uint16)":"6634ce7a","routerGetQuote((address,address,address,uint256[],bool,bytes3[]),uint128,uint128)":"8f155291","routerGetQuoteBatch((address,address,address,uint256[],bool,bytes3[]),uint128[],uint128[])":"c279171d","setOperator(address,bool)":"558a7297","supportsInterface(bytes4)":"01ffc9a7","swap(address,address,address,bytes3,uint256,bool,uint256)":"d92bc84c","totalLiquidity(uint256)":"b5e60c3c","transfer(address,uint256,uint256)":"095bcdb6","transferFrom(address,address,uint256,uint256)":"fe99049a"}}}}}