{"contracts/Peripheral/DataBridges/AlphaDataBridgeOnchainAggregator.sol":{"AlphaDataBridgeOnchainAggregator":{"abi":[{"inputs":[{"components":[{"internalType":"address","name":"pool","type":"address"},{"internalType":"uint8","name":"kind","type":"uint8"},{"internalType":"uint24","name":"v3TwapWindow","type":"uint24"}],"internalType":"struct AlphaDataBridgeOnchainAggregator.PoolConfig","name":"_a","type":"tuple"},{"components":[{"internalType":"address","name":"pool","type":"address"},{"internalType":"uint8","name":"kind","type":"uint8"},{"internalType":"uint24","name":"v3TwapWindow","type":"uint24"}],"internalType":"struct AlphaDataBridgeOnchainAggregator.PoolConfig","name":"_b","type":"tuple"},{"components":[{"internalType":"address","name":"pool","type":"address"},{"internalType":"uint8","name":"kind","type":"uint8"},{"internalType":"uint24","name":"v3TwapWindow","type":"uint24"}],"internalType":"struct AlphaDataBridgeOnchainAggregator.PoolConfig","name":"_c","type":"tuple"},{"internalType":"address","name":"_canonicalExt0","type":"address"},{"internalType":"address","name":"_canonicalExt1","type":"address"},{"internalType":"address","name":"_internalAlias0","type":"address"},{"internalType":"address","name":"_internalAlias1","type":"address"}],"stateMutability":"nonpayable","type":"constructor"},{"inputs":[],"name":"canonicalExt0","outputs":[{"internalType":"address","name":"","type":"address"}],"stateMutability":"view","type":"function"},{"inputs":[],"name":"canonicalExt1","outputs":[{"internalType":"address","name":"","type":"address"}],"stateMutability":"view","type":"function"},{"inputs":[],"name":"dexA","outputs":[{"internalType":"address","name":"pool","type":"address"},{"internalType":"uint8","name":"kind","type":"uint8"},{"internalType":"uint24","name":"v3TwapWindow","type":"uint24"}],"stateMutability":"view","type":"function"},{"inputs":[],"name":"dexB","outputs":[{"internalType":"address","name":"pool","type":"address"},{"internalType":"uint8","name":"kind","type":"uint8"},{"internalType":"uint24","name":"v3TwapWindow","type":"uint24"}],"stateMutability":"view","type":"function"},{"inputs":[],"name":"dexC","outputs":[{"internalType":"address","name":"pool","type":"address"},{"internalType":"uint8","name":"kind","type":"uint8"},{"internalType":"uint24","name":"v3TwapWindow","type":"uint24"}],"stateMutability":"view","type":"function"},{"inputs":[{"components":[{"internalType":"address","name":"asset0","type":"address"},{"internalType":"address","name":"asset1","type":"address"},{"internalType":"address","name":"quoter","type":"address"},{"internalType":"uint256","name":"amount","type":"uint256"},{"internalType":"uint128","name":"asset0Balance","type":"uint128"},{"internalType":"uint128","name":"asset1Balance","type":"uint128"},{"internalType":"uint16","name":"bucketID","type":"uint16"},{"internalType":"bool","name":"zeroForOne","type":"bool"}],"internalType":"struct QuoteParams","name":"params","type":"tuple"}],"name":"getData","outputs":[{"internalType":"bytes","name":"","type":"bytes"}],"stateMutability":"view","type":"function"},{"inputs":[],"name":"internalAlias0","outputs":[{"internalType":"address","name":"","type":"address"}],"stateMutability":"view","type":"function"},{"inputs":[],"name":"internalAlias1","outputs":[{"internalType":"address","name":"","type":"address"}],"stateMutability":"view","type":"function"}],"evm":{"bytecode":{"linkReferences":{},"object":"6080604052346101fa5760405161116e3881900390601f8201601f19168301906001600160401b038211848310176101fe57829160405283398101906101a0818303126101fa576100508282610226565b9161006b6100618260608501610226565b9160c08401610226565b6100786101208401610212565b906100866101408501610212565b926100a161018061009a6101608801610212565b9601610212565b9560018060a01b0381511660018060a01b03195f5416175f556020810151905f5490604062ffffff60a81b91015160a81b169160ff60a01b9060a01b169063ffffffff60a01b191617175f5560018060a01b0381511660018060a01b0319600154161760015560208101519060015490604062ffffff60a81b91015160a81b169160ff60a01b9060a01b169063ffffffff60a01b1916171760015560018060a01b0381511660018060a01b0319600254161760025560208101519060025490604062ffffff60a81b91015160a81b169160ff60a01b9060a01b169063ffffffff60a01b1916171760025560018060a01b031660018060a01b0319600354161760035560018060a01b031660018060a01b0319600454161760045560018060a01b031660018060a01b0319600554161760055560018060a01b031660018060a01b03196006541617600655604051610ee590816102898239f35b5f80fd5b634e487b7160e01b5f52604160045260245ffd5b51906001600160a01b03821682036101fa57565b91908260609103126101fa57604051606081016001600160401b038111828210176101fe57604052809261025981610212565b825260208101519060ff821682036101fa57604091602084015201519062ffffff821682036101fa576040015256fe6080806040526004361015610012575f80fd5b5f3560e01c908163027fa47514610514575080633bd1104b1461019f5780634c02a7a71461015c578063a6b1282314610134578063b24a485b1461010c578063cd852366146100e4578063dd82b275146100bc5763fa29e6b114610074575f80fd5b346100b8575f3660031901126100b857600154604080516001600160a01b038316815260a083901c60ff16602082015260a89290921c62ffffff1690820152606090f35b5f80fd5b346100b8575f3660031901126100b8576005546040516001600160a01b039091168152602090f35b346100b8575f3660031901126100b8576003546040516001600160a01b039091168152602090f35b346100b8575f3660031901126100b8576006546040516001600160a01b039091168152602090f35b346100b8575f3660031901126100b8576004546040516001600160a01b039091168152602090f35b346100b8575f3660031901126100b8575f54604080516001600160a01b038316815260a083901c60ff16602082015260a89290921c62ffffff1690820152606090f35b346100b8576101003660031901126100b857604051610100810181811067ffffffffffffffff821117610500576040526004356001600160a01b03811681036100b85781526024356001600160a01b03811681036100b857602082019081526044356001600160a01b03811681036100b857604083015260643560608301526084356001600160801b03811681036100b857608083015260a4356001600160801b03811681036100b85760a083015260c43561ffff811681036100b85760c083015260e43580151581036100b85760e08301526102ae60405161028181610552565b5f546001600160a01b038116825260a081901c60ff16602083015260a81c62ffffff16604082015261061c565b8193919281906102f16040516102c381610552565b6001546001600160a01b038116825260a081901c60ff16602083015260a81c62ffffff16604082015261061c565b9690938497809561033560405161030781610552565b6002546001600160a01b038116825260a081901c60ff16602083015260a81c62ffffff16604082015261061c565b98519551909586958a93929091610358916001600160a01b039081169116610bb4565b15610440575b8b60406104076104158e8e8e8e8e87519861037a60808b61056e565b60038a52606095863660208d013789519661039660808961056e565b600388523660208901376103a98b6105a8565b526103b38a6105c9565b526103bd896105d9565b526103c7846105a8565b526103d1836105c9565b526103db826105d9565b5283519283916103f6602084019787895260608501906105e9565b838103601f190187850152906105e9565b03601f19810183528261056e565b8151928391602083525180918160208501528484015e5f828201840152601f01601f19168101030190f35b95509550955095509550955080156104ec576a0c097ce7bc90715b34b9f160241b049080156104ec576a0c097ce7bc90715b34b9f160241b049480156104ec576a0c097ce7bc90715b34b9f160241b049380156104ec576a0c097ce7bc90715b34b9f160241b049280156104ec576a0c097ce7bc90715b34b9f160241b049382156104ec5760409461040794610415946a0c097ce7bc90715b34b9f160241b049581949783968b61035e565b634e487b7160e01b5f52601260045260245ffd5b634e487b7160e01b5f52604160045260245ffd5b346100b8575f3660031901126100b8576002546001600160a01b038116825260a081901c60ff16602083015260a81c62ffffff166040820152606090f35b6060810190811067ffffffffffffffff82111761050057604052565b90601f8019910116810190811067ffffffffffffffff82111761050057604052565b67ffffffffffffffff81116105005760051b60200190565b8051156105b55760200190565b634e487b7160e01b5f52603260045260245ffd5b8051600110156105b55760400190565b8051600210156105b55760600190565b90602080835192838152019201905f5b8181106106065750505090565b82518452602093840193909201916001016105f9565b602081015160ff166002810361081d575051604051630240bc6b60e21b81526001600160a01b0390911690606081600481855afa908115610735575f905f926107be575b506001600160701b03169081158015806107ac575b1561077657670de0b6b3a76400008302928304670de0b6b3a7640000141715610762576001600160701b03169081156104ec570460405191630dfe168160e01b8352602083600481845afa908115610735576004935f92610740575b506020906040519485809263d21220a760e01b82525afa90811561073557610700935f92610704575b50610df1565b8091565b61072791925060203d60201161072e575b61071f818361056e565b810190610ce6565b905f6106fa565b503d610715565b6040513d5f823e3d90fd5b602091925061075b90823d841161072e5761071f818361056e565b91906106d1565b634e487b7160e01b5f52601160045260245ffd5b60405162461bcd60e51b815260206004820152600e60248201526d656d70747920726573657276657360901b6044820152606490fd5b506001600160701b0382161515610675565b9150506060813d606011610815575b816107da6060938361056e565b810103126100b8576107eb81610d05565b60406107f960208401610d05565b92015163ffffffff8116036100b8576001600160701b03610660565b3d91506107cd565b600303610b775762ffffff604060018060a01b0383511692015116604051633850c7bd60e01b815260e081600481865afa908115610735575f91610aeb575b5061087990610874906001600160a01b031680610d19565b610d91565b604051630dfe168160e01b815290602082600481875afa918215610735575f92610aca575b5060405163d21220a760e01b815291602083600481885afa908115610735576108cd935f926107045750610df1565b918115610ac1575b6040516108e360608261056e565b60028152602081019262ffffff90604036863716610900826105a8565b525f61090b826105c9565b5260405163883bdbfd60e01b815260206004820152905160248201819052909283916044830191905f5b818110610aa2575050509181805f9403915afa908115610735575f91610991575b5061096d610963826105c9565b5160060b916105a8565b5160060b9003667fffffffffffff811390667fffffffffffff191317610762578091565b90503d805f833e6109a2818361056e565b81016040828203126100b857815167ffffffffffffffff81116100b85782019181601f840112156100b85782516109d881610590565b936109e6604051958661056e565b81855260208086019260051b820101908482116100b857602001915b818310610a885750505060208101519067ffffffffffffffff82116100b8570181601f820112156100b857805190602080610a3c84610590565b610a49604051918261056e565b848152019260051b8201019283116100b857602001905b828210610a70575050505f610956565b60208091610a7d84610cc3565b815201910190610a60565b82518060060b81036100b857815260209283019201610a02565b825163ffffffff16845286945060209384019390920191600101610935565b603c91506108d5565b610ae491925060203d60201161072e5761071f818361056e565b905f61089e565b905060e0813d60e011610b6f575b81610b0660e0938361056e565b810103126100b857610b1781610cc3565b9060208101518060020b036100b857610b3260408201610cd7565b50610b3f60608201610cd7565b50610b4c60808201610cd7565b5060a081015160ff8116036100b85760c00151801515036100b85761087461085c565b3d9150610af9565b60405162461bcd60e51b81526020600482015260156024820152741d5b9cdd5c1c1bdc9d1959081c1bdbdb081ada5b99605a1b6044820152606490fd5b6005546001600160a01b03918216911681811480610cac575b610c74576006546001600160a01b031682149081610c99575b50610c93576003546001600160a01b03169080821480610c7c575b610c74576004546001600160a01b0316149182610c61575b5050610c5d5760405162461bcd60e51b81526020600482015260166024820152753ab739bab83837b93a32b21030b9b9b2ba103830b4b960511b6044820152606490fd5b5f90565b6001600160a01b03161490505f80610c19565b505050600190565b506004546001600160a01b03848116911614610c01565b50505f90565b6001600160a01b0384161490505f610be6565b506006546001600160a01b03848116911614610bcd565b51906001600160a01b03821682036100b857565b519061ffff821682036100b857565b908160209103126100b857516001600160a01b03811681036100b85790565b51906001600160701b03821682036100b857565b5f198282099082810292838084109303928084039314610d8857600160601b831015610d5857600160601b910990828211900360a01b910360601c1790565b60405162461bcd60e51b81526020600482015260086024820152676f766572666c6f7760c01b6044820152606490fd5b50505060601c90565b5f19670de0b6b3a76400008209670de0b6b3a7640000820291828083109203918083039214610de957600160601b821015610d5857600160601b90670de0b6b3a7640000900990828211900360a01b910360601c1790565b505060601c90565b6003546001600160a01b03908116911680821480610e98575b15610e155750505090565b6004546001600160a01b0316149182610e85575b505015610e495780156104ec576a0c097ce7bc90715b34b9f160241b0490565b60405162461bcd60e51b81526020600482015260146024820152730e0c2d2e440e8ded6cadce640dad2e6dac2e8c6d60631b6044820152606490fd5b6001600160a01b03161490505f80610e29565b506004546001600160a01b03848116911614610e0a56fea26469706673582212202555665011739ebef09f127a9d1be48b7482777c18d7205c58f350b2887ddf3b64736f6c634300081e0033","opcodes":"PUSH1 0x80 PUSH1 0x40 MSTORE CALLVALUE PUSH2 0x1FA JUMPI PUSH1 0x40 MLOAD PUSH2 0x116E CODESIZE DUP2 SWAP1 SUB SWAP1 PUSH1 0x1F DUP3 ADD PUSH1 0x1F NOT AND DUP4 ADD SWAP1 PUSH1 0x1 PUSH1 0x1 PUSH1 0x40 SHL SUB DUP3 GT DUP5 DUP4 LT OR PUSH2 0x1FE JUMPI DUP3 SWAP2 PUSH1 0x40 MSTORE DUP4 CODECOPY DUP2 ADD SWAP1 PUSH2 0x1A0 DUP2 DUP4 SUB SLT PUSH2 0x1FA JUMPI PUSH2 0x50 DUP3 DUP3 PUSH2 0x226 JUMP JUMPDEST SWAP2 PUSH2 0x6B PUSH2 0x61 DUP3 PUSH1 0x60 DUP6 ADD PUSH2 0x226 JUMP JUMPDEST SWAP2 PUSH1 0xC0 DUP5 ADD PUSH2 0x226 JUMP JUMPDEST PUSH2 0x78 PUSH2 0x120 DUP5 ADD PUSH2 0x212 JUMP JUMPDEST SWAP1 PUSH2 0x86 PUSH2 0x140 DUP6 ADD PUSH2 0x212 JUMP JUMPDEST SWAP3 PUSH2 0xA1 PUSH2 0x180 PUSH2 0x9A PUSH2 0x160 DUP9 ADD PUSH2 0x212 JUMP JUMPDEST SWAP7 ADD PUSH2 0x212 JUMP JUMPDEST SWAP6 PUSH1 0x1 DUP1 PUSH1 0xA0 SHL SUB DUP2 MLOAD AND PUSH1 0x1 DUP1 PUSH1 0xA0 SHL SUB NOT PUSH0 SLOAD AND OR PUSH0 SSTORE PUSH1 0x20 DUP2 ADD MLOAD SWAP1 PUSH0 SLOAD SWAP1 PUSH1 0x40 PUSH3 0xFFFFFF PUSH1 0xA8 SHL SWAP2 ADD MLOAD PUSH1 0xA8 SHL AND SWAP2 PUSH1 0xFF PUSH1 0xA0 SHL SWAP1 PUSH1 0xA0 SHL AND SWAP1 PUSH4 0xFFFFFFFF PUSH1 0xA0 SHL NOT AND OR OR PUSH0 SSTORE PUSH1 0x1 DUP1 PUSH1 0xA0 SHL SUB DUP2 MLOAD AND PUSH1 0x1 DUP1 PUSH1 0xA0 SHL SUB NOT PUSH1 0x1 SLOAD AND OR PUSH1 0x1 SSTORE PUSH1 0x20 DUP2 ADD MLOAD SWAP1 PUSH1 0x1 SLOAD SWAP1 PUSH1 0x40 PUSH3 0xFFFFFF PUSH1 0xA8 SHL SWAP2 ADD MLOAD PUSH1 0xA8 SHL AND SWAP2 PUSH1 0xFF PUSH1 0xA0 SHL SWAP1 PUSH1 0xA0 SHL AND SWAP1 PUSH4 0xFFFFFFFF PUSH1 0xA0 SHL NOT AND OR OR PUSH1 0x1 SSTORE PUSH1 0x1 DUP1 PUSH1 0xA0 SHL SUB DUP2 MLOAD AND PUSH1 0x1 DUP1 PUSH1 0xA0 SHL SUB NOT PUSH1 0x2 SLOAD AND OR PUSH1 0x2 SSTORE PUSH1 0x20 DUP2 ADD MLOAD SWAP1 PUSH1 0x2 SLOAD SWAP1 PUSH1 0x40 PUSH3 0xFFFFFF PUSH1 0xA8 SHL SWAP2 ADD MLOAD PUSH1 0xA8 SHL AND SWAP2 PUSH1 0xFF PUSH1 0xA0 SHL SWAP1 PUSH1 0xA0 SHL AND SWAP1 PUSH4 0xFFFFFFFF PUSH1 0xA0 SHL NOT AND OR OR PUSH1 0x2 SSTORE PUSH1 0x1 DUP1 PUSH1 0xA0 SHL SUB AND PUSH1 0x1 DUP1 PUSH1 0xA0 SHL SUB NOT PUSH1 0x3 SLOAD AND OR PUSH1 0x3 SSTORE PUSH1 0x1 DUP1 PUSH1 0xA0 SHL SUB AND PUSH1 0x1 DUP1 PUSH1 0xA0 SHL SUB NOT PUSH1 0x4 SLOAD AND OR PUSH1 0x4 SSTORE PUSH1 0x1 DUP1 PUSH1 0xA0 SHL SUB AND PUSH1 0x1 DUP1 PUSH1 0xA0 SHL SUB NOT PUSH1 0x5 SLOAD AND OR PUSH1 0x5 SSTORE PUSH1 0x1 DUP1 PUSH1 0xA0 SHL SUB AND PUSH1 0x1 DUP1 PUSH1 0xA0 SHL SUB NOT PUSH1 0x6 SLOAD AND OR PUSH1 0x6 SSTORE PUSH1 0x40 MLOAD PUSH2 0xEE5 SWAP1 DUP2 PUSH2 0x289 DUP3 CODECOPY RETURN JUMPDEST PUSH0 DUP1 REVERT JUMPDEST PUSH4 0x4E487B71 PUSH1 0xE0 SHL PUSH0 MSTORE PUSH1 0x41 PUSH1 0x4 MSTORE PUSH1 0x24 PUSH0 REVERT JUMPDEST MLOAD SWAP1 PUSH1 0x1 PUSH1 0x1 PUSH1 0xA0 SHL SUB DUP3 AND DUP3 SUB PUSH2 0x1FA JUMPI JUMP JUMPDEST SWAP2 SWAP1 DUP3 PUSH1 0x60 SWAP2 SUB SLT PUSH2 0x1FA JUMPI PUSH1 0x40 MLOAD PUSH1 0x60 DUP2 ADD PUSH1 0x1 PUSH1 0x1 PUSH1 0x40 SHL SUB DUP2 GT DUP3 DUP3 LT OR PUSH2 0x1FE JUMPI PUSH1 0x40 MSTORE DUP1 SWAP3 PUSH2 0x259 DUP2 PUSH2 0x212 JUMP JUMPDEST DUP3 MSTORE PUSH1 0x20 DUP2 ADD MLOAD SWAP1 PUSH1 0xFF DUP3 AND DUP3 SUB PUSH2 0x1FA JUMPI PUSH1 0x40 SWAP2 PUSH1 0x20 DUP5 ADD MSTORE ADD MLOAD SWAP1 PUSH3 0xFFFFFF DUP3 AND DUP3 SUB PUSH2 0x1FA JUMPI PUSH1 0x40 ADD MSTORE JUMP INVALID PUSH1 0x80 DUP1 PUSH1 0x40 MSTORE PUSH1 0x4 CALLDATASIZE LT ISZERO PUSH2 0x12 JUMPI PUSH0 DUP1 REVERT JUMPDEST PUSH0 CALLDATALOAD PUSH1 0xE0 SHR SWAP1 DUP2 PUSH4 0x27FA475 EQ PUSH2 0x514 JUMPI POP DUP1 PUSH4 0x3BD1104B EQ PUSH2 0x19F JUMPI DUP1 PUSH4 0x4C02A7A7 EQ PUSH2 0x15C JUMPI DUP1 PUSH4 0xA6B12823 EQ PUSH2 0x134 JUMPI DUP1 PUSH4 0xB24A485B EQ PUSH2 0x10C JUMPI DUP1 PUSH4 0xCD852366 EQ PUSH2 0xE4 JUMPI DUP1 PUSH4 0xDD82B275 EQ PUSH2 0xBC JUMPI PUSH4 0xFA29E6B1 EQ PUSH2 0x74 JUMPI PUSH0 DUP1 REVERT JUMPDEST CALLVALUE PUSH2 0xB8 JUMPI PUSH0 CALLDATASIZE PUSH1 0x3 NOT ADD SLT PUSH2 0xB8 JUMPI PUSH1 0x1 SLOAD PUSH1 0x40 DUP1 MLOAD PUSH1 0x1 PUSH1 0x1 PUSH1 0xA0 SHL SUB DUP4 AND DUP2 MSTORE PUSH1 0xA0 DUP4 SWAP1 SHR PUSH1 0xFF AND PUSH1 0x20 DUP3 ADD MSTORE PUSH1 0xA8 SWAP3 SWAP1 SWAP3 SHR PUSH3 0xFFFFFF AND SWAP1 DUP3 ADD MSTORE PUSH1 0x60 SWAP1 RETURN JUMPDEST PUSH0 DUP1 REVERT JUMPDEST CALLVALUE PUSH2 0xB8 JUMPI PUSH0 CALLDATASIZE PUSH1 0x3 NOT ADD SLT PUSH2 0xB8 JUMPI PUSH1 0x5 SLOAD PUSH1 0x40 MLOAD PUSH1 0x1 PUSH1 0x1 PUSH1 0xA0 SHL SUB SWAP1 SWAP2 AND DUP2 MSTORE PUSH1 0x20 SWAP1 RETURN JUMPDEST CALLVALUE PUSH2 0xB8 JUMPI PUSH0 CALLDATASIZE PUSH1 0x3 NOT ADD SLT PUSH2 0xB8 JUMPI PUSH1 0x3 SLOAD PUSH1 0x40 MLOAD PUSH1 0x1 PUSH1 0x1 PUSH1 0xA0 SHL SUB SWAP1 SWAP2 AND DUP2 MSTORE PUSH1 0x20 SWAP1 RETURN JUMPDEST CALLVALUE PUSH2 0xB8 JUMPI PUSH0 CALLDATASIZE PUSH1 0x3 NOT ADD SLT PUSH2 0xB8 JUMPI PUSH1 0x6 SLOAD PUSH1 0x40 MLOAD PUSH1 0x1 PUSH1 0x1 PUSH1 0xA0 SHL SUB SWAP1 SWAP2 AND DUP2 MSTORE PUSH1 0x20 SWAP1 RETURN JUMPDEST CALLVALUE PUSH2 0xB8 JUMPI PUSH0 CALLDATASIZE PUSH1 0x3 NOT ADD SLT PUSH2 0xB8 JUMPI PUSH1 0x4 SLOAD PUSH1 0x40 MLOAD PUSH1 0x1 PUSH1 0x1 PUSH1 0xA0 SHL SUB SWAP1 SWAP2 AND DUP2 MSTORE PUSH1 0x20 SWAP1 RETURN JUMPDEST CALLVALUE PUSH2 0xB8 JUMPI PUSH0 CALLDATASIZE PUSH1 0x3 NOT ADD SLT PUSH2 0xB8 JUMPI PUSH0 SLOAD PUSH1 0x40 DUP1 MLOAD PUSH1 0x1 PUSH1 0x1 PUSH1 0xA0 SHL SUB DUP4 AND DUP2 MSTORE PUSH1 0xA0 DUP4 SWAP1 SHR PUSH1 0xFF AND PUSH1 0x20 DUP3 ADD MSTORE PUSH1 0xA8 SWAP3 SWAP1 SWAP3 SHR PUSH3 0xFFFFFF AND SWAP1 DUP3 ADD MSTORE PUSH1 0x60 SWAP1 RETURN JUMPDEST CALLVALUE PUSH2 0xB8 JUMPI PUSH2 0x100 CALLDATASIZE PUSH1 0x3 NOT ADD SLT PUSH2 0xB8 JUMPI PUSH1 0x40 MLOAD PUSH2 0x100 DUP2 ADD DUP2 DUP2 LT PUSH8 0xFFFFFFFFFFFFFFFF DUP3 GT OR PUSH2 0x500 JUMPI PUSH1 0x40 MSTORE PUSH1 0x4 CALLDATALOAD PUSH1 0x1 PUSH1 0x1 PUSH1 0xA0 SHL SUB DUP2 AND DUP2 SUB PUSH2 0xB8 JUMPI DUP2 MSTORE PUSH1 0x24 CALLDATALOAD PUSH1 0x1 PUSH1 0x1 PUSH1 0xA0 SHL SUB DUP2 AND DUP2 SUB PUSH2 0xB8 JUMPI PUSH1 0x20 DUP3 ADD SWAP1 DUP2 MSTORE PUSH1 0x44 CALLDATALOAD PUSH1 0x1 PUSH1 0x1 PUSH1 0xA0 SHL SUB DUP2 AND DUP2 SUB PUSH2 0xB8 JUMPI PUSH1 0x40 DUP4 ADD MSTORE PUSH1 0x64 CALLDATALOAD PUSH1 0x60 DUP4 ADD MSTORE PUSH1 0x84 CALLDATALOAD PUSH1 0x1 PUSH1 0x1 PUSH1 0x80 SHL SUB DUP2 AND DUP2 SUB PUSH2 0xB8 JUMPI PUSH1 0x80 DUP4 ADD MSTORE PUSH1 0xA4 CALLDATALOAD PUSH1 0x1 PUSH1 0x1 PUSH1 0x80 SHL SUB DUP2 AND DUP2 SUB PUSH2 0xB8 JUMPI PUSH1 0xA0 DUP4 ADD MSTORE PUSH1 0xC4 CALLDATALOAD PUSH2 0xFFFF DUP2 AND DUP2 SUB PUSH2 0xB8 JUMPI PUSH1 0xC0 DUP4 ADD MSTORE PUSH1 0xE4 CALLDATALOAD DUP1 ISZERO ISZERO DUP2 SUB PUSH2 0xB8 JUMPI PUSH1 0xE0 DUP4 ADD MSTORE PUSH2 0x2AE PUSH1 0x40 MLOAD PUSH2 0x281 DUP2 PUSH2 0x552 JUMP JUMPDEST PUSH0 SLOAD PUSH1 0x1 PUSH1 0x1 PUSH1 0xA0 SHL SUB DUP2 AND DUP3 MSTORE PUSH1 0xA0 DUP2 SWAP1 SHR PUSH1 0xFF AND PUSH1 0x20 DUP4 ADD MSTORE PUSH1 0xA8 SHR PUSH3 0xFFFFFF AND PUSH1 0x40 DUP3 ADD MSTORE PUSH2 0x61C JUMP JUMPDEST DUP2 SWAP4 SWAP2 SWAP3 DUP2 SWAP1 PUSH2 0x2F1 PUSH1 0x40 MLOAD PUSH2 0x2C3 DUP2 PUSH2 0x552 JUMP JUMPDEST PUSH1 0x1 SLOAD PUSH1 0x1 PUSH1 0x1 PUSH1 0xA0 SHL SUB DUP2 AND DUP3 MSTORE PUSH1 0xA0 DUP2 SWAP1 SHR PUSH1 0xFF AND PUSH1 0x20 DUP4 ADD MSTORE PUSH1 0xA8 SHR PUSH3 0xFFFFFF AND PUSH1 0x40 DUP3 ADD MSTORE PUSH2 0x61C JUMP JUMPDEST SWAP7 SWAP1 SWAP4 DUP5 SWAP8 DUP1 SWAP6 PUSH2 0x335 PUSH1 0x40 MLOAD PUSH2 0x307 DUP2 PUSH2 0x552 JUMP JUMPDEST PUSH1 0x2 SLOAD PUSH1 0x1 PUSH1 0x1 PUSH1 0xA0 SHL SUB DUP2 AND DUP3 MSTORE PUSH1 0xA0 DUP2 SWAP1 SHR PUSH1 0xFF AND PUSH1 0x20 DUP4 ADD MSTORE PUSH1 0xA8 SHR PUSH3 0xFFFFFF AND PUSH1 0x40 DUP3 ADD MSTORE PUSH2 0x61C JUMP JUMPDEST SWAP9 MLOAD SWAP6 MLOAD SWAP1 SWAP6 DUP7 SWAP6 DUP11 SWAP4 SWAP3 SWAP1 SWAP2 PUSH2 0x358 SWAP2 PUSH1 0x1 PUSH1 0x1 PUSH1 0xA0 SHL SUB SWAP1 DUP2 AND SWAP2 AND PUSH2 0xBB4 JUMP JUMPDEST ISZERO PUSH2 0x440 JUMPI JUMPDEST DUP12 PUSH1 0x40 PUSH2 0x407 PUSH2 0x415 DUP15 DUP15 DUP15 DUP15 DUP15 DUP8 MLOAD SWAP9 PUSH2 0x37A PUSH1 0x80 DUP12 PUSH2 0x56E JUMP JUMPDEST PUSH1 0x3 DUP11 MSTORE PUSH1 0x60 SWAP6 DUP7 CALLDATASIZE PUSH1 0x20 DUP14 ADD CALLDATACOPY DUP10 MLOAD SWAP7 PUSH2 0x396 PUSH1 0x80 DUP10 PUSH2 0x56E JUMP JUMPDEST PUSH1 0x3 DUP9 MSTORE CALLDATASIZE PUSH1 0x20 DUP10 ADD CALLDATACOPY PUSH2 0x3A9 DUP12 PUSH2 0x5A8 JUMP JUMPDEST MSTORE PUSH2 0x3B3 DUP11 PUSH2 0x5C9 JUMP JUMPDEST MSTORE PUSH2 0x3BD DUP10 PUSH2 0x5D9 JUMP JUMPDEST MSTORE PUSH2 0x3C7 DUP5 PUSH2 0x5A8 JUMP JUMPDEST MSTORE PUSH2 0x3D1 DUP4 PUSH2 0x5C9 JUMP JUMPDEST MSTORE PUSH2 0x3DB DUP3 PUSH2 0x5D9 JUMP JUMPDEST MSTORE DUP4 MLOAD SWAP3 DUP4 SWAP2 PUSH2 0x3F6 PUSH1 0x20 DUP5 ADD SWAP8 DUP8 DUP10 MSTORE PUSH1 0x60 DUP6 ADD SWAP1 PUSH2 0x5E9 JUMP JUMPDEST DUP4 DUP2 SUB PUSH1 0x1F NOT ADD DUP8 DUP6 ADD MSTORE SWAP1 PUSH2 0x5E9 JUMP JUMPDEST SUB PUSH1 0x1F NOT DUP2 ADD DUP4 MSTORE DUP3 PUSH2 0x56E JUMP JUMPDEST DUP2 MLOAD SWAP3 DUP4 SWAP2 PUSH1 0x20 DUP4 MSTORE MLOAD DUP1 SWAP2 DUP2 PUSH1 0x20 DUP6 ADD MSTORE DUP5 DUP5 ADD MCOPY PUSH0 DUP3 DUP3 ADD DUP5 ADD MSTORE PUSH1 0x1F ADD PUSH1 0x1F NOT AND DUP2 ADD SUB ADD SWAP1 RETURN JUMPDEST SWAP6 POP SWAP6 POP SWAP6 POP SWAP6 POP SWAP6 POP SWAP6 POP DUP1 ISZERO PUSH2 0x4EC JUMPI PUSH11 0xC097CE7BC90715B34B9F1 PUSH1 0x24 SHL DIV SWAP1 DUP1 ISZERO PUSH2 0x4EC JUMPI PUSH11 0xC097CE7BC90715B34B9F1 PUSH1 0x24 SHL DIV SWAP5 DUP1 ISZERO PUSH2 0x4EC JUMPI PUSH11 0xC097CE7BC90715B34B9F1 PUSH1 0x24 SHL DIV SWAP4 DUP1 ISZERO PUSH2 0x4EC JUMPI PUSH11 0xC097CE7BC90715B34B9F1 PUSH1 0x24 SHL DIV SWAP3 DUP1 ISZERO PUSH2 0x4EC JUMPI PUSH11 0xC097CE7BC90715B34B9F1 PUSH1 0x24 SHL DIV SWAP4 DUP3 ISZERO PUSH2 0x4EC JUMPI PUSH1 0x40 SWAP5 PUSH2 0x407 SWAP5 PUSH2 0x415 SWAP5 PUSH11 0xC097CE7BC90715B34B9F1 PUSH1 0x24 SHL DIV SWAP6 DUP2 SWAP5 SWAP8 DUP4 SWAP7 DUP12 PUSH2 0x35E JUMP JUMPDEST PUSH4 0x4E487B71 PUSH1 0xE0 SHL PUSH0 MSTORE PUSH1 0x12 PUSH1 0x4 MSTORE PUSH1 0x24 PUSH0 REVERT JUMPDEST PUSH4 0x4E487B71 PUSH1 0xE0 SHL PUSH0 MSTORE PUSH1 0x41 PUSH1 0x4 MSTORE PUSH1 0x24 PUSH0 REVERT JUMPDEST CALLVALUE PUSH2 0xB8 JUMPI PUSH0 CALLDATASIZE PUSH1 0x3 NOT ADD SLT PUSH2 0xB8 JUMPI PUSH1 0x2 SLOAD PUSH1 0x1 PUSH1 0x1 PUSH1 0xA0 SHL SUB DUP2 AND DUP3 MSTORE PUSH1 0xA0 DUP2 SWAP1 SHR PUSH1 0xFF AND PUSH1 0x20 DUP4 ADD MSTORE PUSH1 0xA8 SHR PUSH3 0xFFFFFF AND PUSH1 0x40 DUP3 ADD MSTORE PUSH1 0x60 SWAP1 RETURN JUMPDEST PUSH1 0x60 DUP2 ADD SWAP1 DUP2 LT PUSH8 0xFFFFFFFFFFFFFFFF DUP3 GT OR PUSH2 0x500 JUMPI PUSH1 0x40 MSTORE JUMP JUMPDEST SWAP1 PUSH1 0x1F DUP1 NOT SWAP2 ADD AND DUP2 ADD SWAP1 DUP2 LT PUSH8 0xFFFFFFFFFFFFFFFF DUP3 GT OR PUSH2 0x500 JUMPI PUSH1 0x40 MSTORE JUMP JUMPDEST PUSH8 0xFFFFFFFFFFFFFFFF DUP2 GT PUSH2 0x500 JUMPI PUSH1 0x5 SHL PUSH1 0x20 ADD SWAP1 JUMP JUMPDEST DUP1 MLOAD ISZERO PUSH2 0x5B5 JUMPI PUSH1 0x20 ADD SWAP1 JUMP JUMPDEST PUSH4 0x4E487B71 PUSH1 0xE0 SHL PUSH0 MSTORE PUSH1 0x32 PUSH1 0x4 MSTORE PUSH1 0x24 PUSH0 REVERT JUMPDEST DUP1 MLOAD PUSH1 0x1 LT ISZERO PUSH2 0x5B5 JUMPI PUSH1 0x40 ADD SWAP1 JUMP JUMPDEST DUP1 MLOAD PUSH1 0x2 LT ISZERO PUSH2 0x5B5 JUMPI PUSH1 0x60 ADD SWAP1 JUMP JUMPDEST SWAP1 PUSH1 0x20 DUP1 DUP4 MLOAD SWAP3 DUP4 DUP2 MSTORE ADD SWAP3 ADD SWAP1 PUSH0 JUMPDEST DUP2 DUP2 LT PUSH2 0x606 JUMPI POP POP POP SWAP1 JUMP JUMPDEST DUP3 MLOAD DUP5 MSTORE PUSH1 0x20 SWAP4 DUP5 ADD SWAP4 SWAP1 SWAP3 ADD SWAP2 PUSH1 0x1 ADD PUSH2 0x5F9 JUMP JUMPDEST PUSH1 0x20 DUP2 ADD MLOAD PUSH1 0xFF AND PUSH1 0x2 DUP2 SUB PUSH2 0x81D JUMPI POP MLOAD PUSH1 0x40 MLOAD PUSH4 0x240BC6B PUSH1 0xE2 SHL DUP2 MSTORE PUSH1 0x1 PUSH1 0x1 PUSH1 0xA0 SHL SUB SWAP1 SWAP2 AND SWAP1 PUSH1 0x60 DUP2 PUSH1 0x4 DUP2 DUP6 GAS STATICCALL SWAP1 DUP2 ISZERO PUSH2 0x735 JUMPI PUSH0 SWAP1 PUSH0 SWAP3 PUSH2 0x7BE JUMPI JUMPDEST POP PUSH1 0x1 PUSH1 0x1 PUSH1 0x70 SHL SUB AND SWAP1 DUP2 ISZERO DUP1 ISZERO DUP1 PUSH2 0x7AC JUMPI JUMPDEST ISZERO PUSH2 0x776 JUMPI PUSH8 0xDE0B6B3A7640000 DUP4 MUL SWAP3 DUP4 DIV PUSH8 0xDE0B6B3A7640000 EQ OR ISZERO PUSH2 0x762 JUMPI PUSH1 0x1 PUSH1 0x1 PUSH1 0x70 SHL SUB AND SWAP1 DUP2 ISZERO PUSH2 0x4EC JUMPI DIV PUSH1 0x40 MLOAD SWAP2 PUSH4 0xDFE1681 PUSH1 0xE0 SHL DUP4 MSTORE PUSH1 0x20 DUP4 PUSH1 0x4 DUP2 DUP5 GAS STATICCALL SWAP1 DUP2 ISZERO PUSH2 0x735 JUMPI PUSH1 0x4 SWAP4 PUSH0 SWAP3 PUSH2 0x740 JUMPI JUMPDEST POP PUSH1 0x20 SWAP1 PUSH1 0x40 MLOAD SWAP5 DUP6 DUP1 SWAP3 PUSH4 0xD21220A7 PUSH1 0xE0 SHL DUP3 MSTORE GAS STATICCALL SWAP1 DUP2 ISZERO PUSH2 0x735 JUMPI PUSH2 0x700 SWAP4 PUSH0 SWAP3 PUSH2 0x704 JUMPI JUMPDEST POP PUSH2 0xDF1 JUMP JUMPDEST DUP1 SWAP2 JUMP JUMPDEST PUSH2 0x727 SWAP2 SWAP3 POP PUSH1 0x20 RETURNDATASIZE PUSH1 0x20 GT PUSH2 0x72E JUMPI JUMPDEST PUSH2 0x71F DUP2 DUP4 PUSH2 0x56E JUMP JUMPDEST DUP2 ADD SWAP1 PUSH2 0xCE6 JUMP JUMPDEST SWAP1 PUSH0 PUSH2 0x6FA JUMP JUMPDEST POP RETURNDATASIZE PUSH2 0x715 JUMP JUMPDEST PUSH1 0x40 MLOAD RETURNDATASIZE PUSH0 DUP3 RETURNDATACOPY RETURNDATASIZE SWAP1 REVERT JUMPDEST PUSH1 0x20 SWAP2 SWAP3 POP PUSH2 0x75B SWAP1 DUP3 RETURNDATASIZE DUP5 GT PUSH2 0x72E JUMPI PUSH2 0x71F DUP2 DUP4 PUSH2 0x56E JUMP JUMPDEST SWAP2 SWAP1 PUSH2 0x6D1 JUMP JUMPDEST PUSH4 0x4E487B71 PUSH1 0xE0 SHL PUSH0 MSTORE PUSH1 0x11 PUSH1 0x4 MSTORE PUSH1 0x24 PUSH0 REVERT JUMPDEST PUSH1 0x40 MLOAD PUSH3 0x461BCD PUSH1 0xE5 SHL DUP2 MSTORE PUSH1 0x20 PUSH1 0x4 DUP3 ADD MSTORE PUSH1 0xE PUSH1 0x24 DUP3 ADD MSTORE PUSH14 0x656D707479207265736572766573 PUSH1 0x90 SHL PUSH1 0x44 DUP3 ADD MSTORE PUSH1 0x64 SWAP1 REVERT JUMPDEST POP PUSH1 0x1 PUSH1 0x1 PUSH1 0x70 SHL SUB DUP3 AND ISZERO ISZERO PUSH2 0x675 JUMP JUMPDEST SWAP2 POP POP PUSH1 0x60 DUP2 RETURNDATASIZE PUSH1 0x60 GT PUSH2 0x815 JUMPI JUMPDEST DUP2 PUSH2 0x7DA PUSH1 0x60 SWAP4 DUP4 PUSH2 0x56E JUMP JUMPDEST DUP2 ADD SUB SLT PUSH2 0xB8 JUMPI PUSH2 0x7EB DUP2 PUSH2 0xD05 JUMP JUMPDEST PUSH1 0x40 PUSH2 0x7F9 PUSH1 0x20 DUP5 ADD PUSH2 0xD05 JUMP JUMPDEST SWAP3 ADD MLOAD PUSH4 0xFFFFFFFF DUP2 AND SUB PUSH2 0xB8 JUMPI PUSH1 0x1 PUSH1 0x1 PUSH1 0x70 SHL SUB PUSH2 0x660 JUMP JUMPDEST RETURNDATASIZE SWAP2 POP PUSH2 0x7CD JUMP JUMPDEST PUSH1 0x3 SUB PUSH2 0xB77 JUMPI PUSH3 0xFFFFFF PUSH1 0x40 PUSH1 0x1 DUP1 PUSH1 0xA0 SHL SUB DUP4 MLOAD AND SWAP3 ADD MLOAD AND PUSH1 0x40 MLOAD PUSH4 0x3850C7BD PUSH1 0xE0 SHL DUP2 MSTORE PUSH1 0xE0 DUP2 PUSH1 0x4 DUP2 DUP7 GAS STATICCALL SWAP1 DUP2 ISZERO PUSH2 0x735 JUMPI PUSH0 SWAP2 PUSH2 0xAEB JUMPI JUMPDEST POP PUSH2 0x879 SWAP1 PUSH2 0x874 SWAP1 PUSH1 0x1 PUSH1 0x1 PUSH1 0xA0 SHL SUB AND DUP1 PUSH2 0xD19 JUMP JUMPDEST PUSH2 0xD91 JUMP JUMPDEST PUSH1 0x40 MLOAD PUSH4 0xDFE1681 PUSH1 0xE0 SHL DUP2 MSTORE SWAP1 PUSH1 0x20 DUP3 PUSH1 0x4 DUP2 DUP8 GAS STATICCALL SWAP2 DUP3 ISZERO PUSH2 0x735 JUMPI PUSH0 SWAP3 PUSH2 0xACA JUMPI JUMPDEST POP PUSH1 0x40 MLOAD PUSH4 0xD21220A7 PUSH1 0xE0 SHL DUP2 MSTORE SWAP2 PUSH1 0x20 DUP4 PUSH1 0x4 DUP2 DUP9 GAS STATICCALL SWAP1 DUP2 ISZERO PUSH2 0x735 JUMPI PUSH2 0x8CD SWAP4 PUSH0 SWAP3 PUSH2 0x704 JUMPI POP PUSH2 0xDF1 JUMP JUMPDEST SWAP2 DUP2 ISZERO PUSH2 0xAC1 JUMPI JUMPDEST PUSH1 0x40 MLOAD PUSH2 0x8E3 PUSH1 0x60 DUP3 PUSH2 0x56E JUMP JUMPDEST PUSH1 0x2 DUP2 MSTORE PUSH1 0x20 DUP2 ADD SWAP3 PUSH3 0xFFFFFF SWAP1 PUSH1 0x40 CALLDATASIZE DUP7 CALLDATACOPY AND PUSH2 0x900 DUP3 PUSH2 0x5A8 JUMP JUMPDEST MSTORE PUSH0 PUSH2 0x90B DUP3 PUSH2 0x5C9 JUMP JUMPDEST MSTORE PUSH1 0x40 MLOAD PUSH4 0x883BDBFD PUSH1 0xE0 SHL DUP2 MSTORE PUSH1 0x20 PUSH1 0x4 DUP3 ADD MSTORE SWAP1 MLOAD PUSH1 0x24 DUP3 ADD DUP2 SWAP1 MSTORE SWAP1 SWAP3 DUP4 SWAP2 PUSH1 0x44 DUP4 ADD SWAP2 SWAP1 PUSH0 JUMPDEST DUP2 DUP2 LT PUSH2 0xAA2 JUMPI POP POP POP SWAP2 DUP2 DUP1 PUSH0 SWAP5 SUB SWAP2 GAS STATICCALL SWAP1 DUP2 ISZERO PUSH2 0x735 JUMPI PUSH0 SWAP2 PUSH2 0x991 JUMPI JUMPDEST POP PUSH2 0x96D PUSH2 0x963 DUP3 PUSH2 0x5C9 JUMP JUMPDEST MLOAD PUSH1 0x6 SIGNEXTEND SWAP2 PUSH2 0x5A8 JUMP JUMPDEST MLOAD PUSH1 0x6 SIGNEXTEND SWAP1 SUB PUSH7 0x7FFFFFFFFFFFFF DUP2 SGT SWAP1 PUSH7 0x7FFFFFFFFFFFFF NOT SGT OR PUSH2 0x762 JUMPI DUP1 SWAP2 JUMP JUMPDEST SWAP1 POP RETURNDATASIZE DUP1 PUSH0 DUP4 RETURNDATACOPY PUSH2 0x9A2 DUP2 DUP4 PUSH2 0x56E JUMP JUMPDEST DUP2 ADD PUSH1 0x40 DUP3 DUP3 SUB SLT PUSH2 0xB8 JUMPI DUP2 MLOAD PUSH8 0xFFFFFFFFFFFFFFFF DUP2 GT PUSH2 0xB8 JUMPI DUP3 ADD SWAP2 DUP2 PUSH1 0x1F DUP5 ADD SLT ISZERO PUSH2 0xB8 JUMPI DUP3 MLOAD PUSH2 0x9D8 DUP2 PUSH2 0x590 JUMP JUMPDEST SWAP4 PUSH2 0x9E6 PUSH1 0x40 MLOAD SWAP6 DUP7 PUSH2 0x56E JUMP JUMPDEST DUP2 DUP6 MSTORE PUSH1 0x20 DUP1 DUP7 ADD SWAP3 PUSH1 0x5 SHL DUP3 ADD ADD SWAP1 DUP5 DUP3 GT PUSH2 0xB8 JUMPI PUSH1 0x20 ADD SWAP2 JUMPDEST DUP2 DUP4 LT PUSH2 0xA88 JUMPI POP POP POP PUSH1 0x20 DUP2 ADD MLOAD SWAP1 PUSH8 0xFFFFFFFFFFFFFFFF DUP3 GT PUSH2 0xB8 JUMPI ADD DUP2 PUSH1 0x1F DUP3 ADD SLT ISZERO PUSH2 0xB8 JUMPI DUP1 MLOAD SWAP1 PUSH1 0x20 DUP1 PUSH2 0xA3C DUP5 PUSH2 0x590 JUMP JUMPDEST PUSH2 0xA49 PUSH1 0x40 MLOAD SWAP2 DUP3 PUSH2 0x56E JUMP JUMPDEST DUP5 DUP2 MSTORE ADD SWAP3 PUSH1 0x5 SHL DUP3 ADD ADD SWAP3 DUP4 GT PUSH2 0xB8 JUMPI PUSH1 0x20 ADD SWAP1 JUMPDEST DUP3 DUP3 LT PUSH2 0xA70 JUMPI POP POP POP PUSH0 PUSH2 0x956 JUMP JUMPDEST PUSH1 0x20 DUP1 SWAP2 PUSH2 0xA7D DUP5 PUSH2 0xCC3 JUMP JUMPDEST DUP2 MSTORE ADD SWAP2 ADD SWAP1 PUSH2 0xA60 JUMP JUMPDEST DUP3 MLOAD DUP1 PUSH1 0x6 SIGNEXTEND DUP2 SUB PUSH2 0xB8 JUMPI DUP2 MSTORE PUSH1 0x20 SWAP3 DUP4 ADD SWAP3 ADD PUSH2 0xA02 JUMP JUMPDEST DUP3 MLOAD PUSH4 0xFFFFFFFF AND DUP5 MSTORE DUP7 SWAP5 POP PUSH1 0x20 SWAP4 DUP5 ADD SWAP4 SWAP1 SWAP3 ADD SWAP2 PUSH1 0x1 ADD PUSH2 0x935 JUMP JUMPDEST PUSH1 0x3C SWAP2 POP PUSH2 0x8D5 JUMP JUMPDEST PUSH2 0xAE4 SWAP2 SWAP3 POP PUSH1 0x20 RETURNDATASIZE PUSH1 0x20 GT PUSH2 0x72E JUMPI PUSH2 0x71F DUP2 DUP4 PUSH2 0x56E JUMP JUMPDEST SWAP1 PUSH0 PUSH2 0x89E JUMP JUMPDEST SWAP1 POP PUSH1 0xE0 DUP2 RETURNDATASIZE PUSH1 0xE0 GT PUSH2 0xB6F JUMPI JUMPDEST DUP2 PUSH2 0xB06 PUSH1 0xE0 SWAP4 DUP4 PUSH2 0x56E JUMP JUMPDEST DUP2 ADD SUB SLT PUSH2 0xB8 JUMPI PUSH2 0xB17 DUP2 PUSH2 0xCC3 JUMP JUMPDEST SWAP1 PUSH1 0x20 DUP2 ADD MLOAD DUP1 PUSH1 0x2 SIGNEXTEND SUB PUSH2 0xB8 JUMPI PUSH2 0xB32 PUSH1 0x40 DUP3 ADD PUSH2 0xCD7 JUMP JUMPDEST POP PUSH2 0xB3F PUSH1 0x60 DUP3 ADD PUSH2 0xCD7 JUMP JUMPDEST POP PUSH2 0xB4C PUSH1 0x80 DUP3 ADD PUSH2 0xCD7 JUMP JUMPDEST POP PUSH1 0xA0 DUP2 ADD MLOAD PUSH1 0xFF DUP2 AND SUB PUSH2 0xB8 JUMPI PUSH1 0xC0 ADD MLOAD DUP1 ISZERO ISZERO SUB PUSH2 0xB8 JUMPI PUSH2 0x874 PUSH2 0x85C JUMP JUMPDEST RETURNDATASIZE SWAP2 POP PUSH2 0xAF9 JUMP JUMPDEST PUSH1 0x40 MLOAD PUSH3 0x461BCD PUSH1 0xE5 SHL DUP2 MSTORE PUSH1 0x20 PUSH1 0x4 DUP3 ADD MSTORE PUSH1 0x15 PUSH1 0x24 DUP3 ADD MSTORE PUSH21 0x1D5B9CDD5C1C1BDC9D1959081C1BDBDB081ADA5B99 PUSH1 0x5A SHL PUSH1 0x44 DUP3 ADD MSTORE PUSH1 0x64 SWAP1 REVERT JUMPDEST PUSH1 0x5 SLOAD PUSH1 0x1 PUSH1 0x1 PUSH1 0xA0 SHL SUB SWAP2 DUP3 AND SWAP2 AND DUP2 DUP2 EQ DUP1 PUSH2 0xCAC JUMPI JUMPDEST PUSH2 0xC74 JUMPI PUSH1 0x6 SLOAD PUSH1 0x1 PUSH1 0x1 PUSH1 0xA0 SHL SUB AND DUP3 EQ SWAP1 DUP2 PUSH2 0xC99 JUMPI JUMPDEST POP PUSH2 0xC93 JUMPI PUSH1 0x3 SLOAD PUSH1 0x1 PUSH1 0x1 PUSH1 0xA0 SHL SUB AND SWAP1 DUP1 DUP3 EQ DUP1 PUSH2 0xC7C JUMPI JUMPDEST PUSH2 0xC74 JUMPI PUSH1 0x4 SLOAD PUSH1 0x1 PUSH1 0x1 PUSH1 0xA0 SHL SUB AND EQ SWAP2 DUP3 PUSH2 0xC61 JUMPI JUMPDEST POP POP PUSH2 0xC5D JUMPI PUSH1 0x40 MLOAD PUSH3 0x461BCD PUSH1 0xE5 SHL DUP2 MSTORE PUSH1 0x20 PUSH1 0x4 DUP3 ADD MSTORE PUSH1 0x16 PUSH1 0x24 DUP3 ADD MSTORE PUSH22 0x3AB739BAB83837B93A32B21030B9B9B2BA103830B4B9 PUSH1 0x51 SHL PUSH1 0x44 DUP3 ADD MSTORE PUSH1 0x64 SWAP1 REVERT JUMPDEST PUSH0 SWAP1 JUMP JUMPDEST PUSH1 0x1 PUSH1 0x1 PUSH1 0xA0 SHL SUB AND EQ SWAP1 POP PUSH0 DUP1 PUSH2 0xC19 JUMP JUMPDEST POP POP POP PUSH1 0x1 SWAP1 JUMP JUMPDEST POP PUSH1 0x4 SLOAD PUSH1 0x1 PUSH1 0x1 PUSH1 0xA0 SHL SUB DUP5 DUP2 AND SWAP2 AND EQ PUSH2 0xC01 JUMP JUMPDEST POP POP PUSH0 SWAP1 JUMP JUMPDEST PUSH1 0x1 PUSH1 0x1 PUSH1 0xA0 SHL SUB DUP5 AND EQ SWAP1 POP PUSH0 PUSH2 0xBE6 JUMP JUMPDEST POP PUSH1 0x6 SLOAD PUSH1 0x1 PUSH1 0x1 PUSH1 0xA0 SHL SUB DUP5 DUP2 AND SWAP2 AND EQ PUSH2 0xBCD JUMP JUMPDEST MLOAD SWAP1 PUSH1 0x1 PUSH1 0x1 PUSH1 0xA0 SHL SUB DUP3 AND DUP3 SUB PUSH2 0xB8 JUMPI JUMP JUMPDEST MLOAD SWAP1 PUSH2 0xFFFF DUP3 AND DUP3 SUB PUSH2 0xB8 JUMPI JUMP JUMPDEST SWAP1 DUP2 PUSH1 0x20 SWAP2 SUB SLT PUSH2 0xB8 JUMPI MLOAD PUSH1 0x1 PUSH1 0x1 PUSH1 0xA0 SHL SUB DUP2 AND DUP2 SUB PUSH2 0xB8 JUMPI SWAP1 JUMP JUMPDEST MLOAD SWAP1 PUSH1 0x1 PUSH1 0x1 PUSH1 0x70 SHL SUB DUP3 AND DUP3 SUB PUSH2 0xB8 JUMPI JUMP JUMPDEST PUSH0 NOT DUP3 DUP3 MULMOD SWAP1 DUP3 DUP2 MUL SWAP3 DUP4 DUP1 DUP5 LT SWAP4 SUB SWAP3 DUP1 DUP5 SUB SWAP4 EQ PUSH2 0xD88 JUMPI PUSH1 0x1 PUSH1 0x60 SHL DUP4 LT ISZERO PUSH2 0xD58 JUMPI PUSH1 0x1 PUSH1 0x60 SHL SWAP2 MULMOD SWAP1 DUP3 DUP3 GT SWAP1 SUB PUSH1 0xA0 SHL SWAP2 SUB PUSH1 0x60 SHR OR SWAP1 JUMP JUMPDEST PUSH1 0x40 MLOAD PUSH3 0x461BCD PUSH1 0xE5 SHL DUP2 MSTORE PUSH1 0x20 PUSH1 0x4 DUP3 ADD MSTORE PUSH1 0x8 PUSH1 0x24 DUP3 ADD MSTORE PUSH8 0x6F766572666C6F77 PUSH1 0xC0 SHL PUSH1 0x44 DUP3 ADD MSTORE PUSH1 0x64 SWAP1 REVERT JUMPDEST POP POP POP PUSH1 0x60 SHR SWAP1 JUMP JUMPDEST PUSH0 NOT PUSH8 0xDE0B6B3A7640000 DUP3 MULMOD PUSH8 0xDE0B6B3A7640000 DUP3 MUL SWAP2 DUP3 DUP1 DUP4 LT SWAP3 SUB SWAP2 DUP1 DUP4 SUB SWAP3 EQ PUSH2 0xDE9 JUMPI PUSH1 0x1 PUSH1 0x60 SHL DUP3 LT ISZERO PUSH2 0xD58 JUMPI PUSH1 0x1 PUSH1 0x60 SHL SWAP1 PUSH8 0xDE0B6B3A7640000 SWAP1 MULMOD SWAP1 DUP3 DUP3 GT SWAP1 SUB PUSH1 0xA0 SHL SWAP2 SUB PUSH1 0x60 SHR OR SWAP1 JUMP JUMPDEST POP POP PUSH1 0x60 SHR SWAP1 JUMP JUMPDEST PUSH1 0x3 SLOAD PUSH1 0x1 PUSH1 0x1 PUSH1 0xA0 SHL SUB SWAP1 DUP2 AND SWAP2 AND DUP1 DUP3 EQ DUP1 PUSH2 0xE98 JUMPI JUMPDEST ISZERO PUSH2 0xE15 JUMPI POP POP POP SWAP1 JUMP JUMPDEST PUSH1 0x4 SLOAD PUSH1 0x1 PUSH1 0x1 PUSH1 0xA0 SHL SUB AND EQ SWAP2 DUP3 PUSH2 0xE85 JUMPI JUMPDEST POP POP ISZERO PUSH2 0xE49 JUMPI DUP1 ISZERO PUSH2 0x4EC JUMPI PUSH11 0xC097CE7BC90715B34B9F1 PUSH1 0x24 SHL DIV SWAP1 JUMP JUMPDEST PUSH1 0x40 MLOAD PUSH3 0x461BCD PUSH1 0xE5 SHL DUP2 MSTORE PUSH1 0x20 PUSH1 0x4 DUP3 ADD MSTORE PUSH1 0x14 PUSH1 0x24 DUP3 ADD MSTORE PUSH20 0xE0C2D2E440E8DED6CADCE640DAD2E6DAC2E8C6D PUSH1 0x63 SHL PUSH1 0x44 DUP3 ADD MSTORE PUSH1 0x64 SWAP1 REVERT JUMPDEST PUSH1 0x1 PUSH1 0x1 PUSH1 0xA0 SHL SUB AND EQ SWAP1 POP PUSH0 DUP1 PUSH2 0xE29 JUMP JUMPDEST POP PUSH1 0x4 SLOAD PUSH1 0x1 PUSH1 0x1 PUSH1 0xA0 SHL SUB DUP5 DUP2 AND SWAP2 AND EQ PUSH2 0xE0A JUMP INVALID LOG2 PUSH5 0x6970667358 0x22 SLT KECCAK256 0x25 SSTORE PUSH7 0x5011739EBEF09F SLT PUSH27 0x9D1BE48B7482777C18D7205C58F350B2887DDF3B64736F6C634300 ADDMOD 0x1E STOP CALLER "},"methodIdentifiers":{"canonicalExt0()":"cd852366","canonicalExt1()":"a6b12823","dexA()":"4c02a7a7","dexB()":"fa29e6b1","dexC()":"027fa475","getData((address,address,address,uint256,uint128,uint128,uint16,bool))":"3bd1104b","internalAlias0()":"dd82b275","internalAlias1()":"b24a485b"}}}}}