{"contracts/Peripheral/quoters/real/RealDataBridge/tests/StoicovQuoterHarness.sol":{"StoicovQuoterHarness":{"abi":[{"inputs":[{"internalType":"uint8","name":"kIdx","type":"uint8"},{"internalType":"uint8","name":"invMode","type":"uint8"},{"internalType":"bool","name":"gammaSelHigh","type":"bool"},{"internalType":"bool","name":"sigmaFixed","type":"bool"},{"internalType":"bool","name":"gammaZero","type":"bool"}],"name":"buildBucketID","outputs":[{"internalType":"uint16","name":"","type":"uint16"}],"stateMutability":"pure","type":"function"},{"inputs":[{"internalType":"uint16","name":"bucketID","type":"uint16"},{"internalType":"uint32","name":"sigma2TauPpb","type":"uint32"}],"name":"deltaStarPrecomp","outputs":[{"internalType":"uint64","name":"","type":"uint64"}],"stateMutability":"pure","type":"function"},{"inputs":[{"internalType":"uint8","name":"idx","type":"uint8"},{"internalType":"uint32","name":"scalePpb","type":"uint32"}],"name":"gammaFromScaleAndIdx","outputs":[{"internalType":"uint32","name":"","type":"uint32"}],"stateMutability":"pure","type":"function"},{"inputs":[],"name":"gammaHighScalePpb","outputs":[{"internalType":"uint32","name":"","type":"uint32"}],"stateMutability":"pure","type":"function"},{"inputs":[],"name":"gammaLowScalePpb","outputs":[{"internalType":"uint32","name":"","type":"uint32"}],"stateMutability":"pure","type":"function"},{"inputs":[],"name":"gammaMidScalePpb","outputs":[{"internalType":"uint32","name":"","type":"uint32"}],"stateMutability":"pure","type":"function"},{"inputs":[{"internalType":"uint16","name":"bucketID","type":"uint16"}],"name":"gammaScalePpbOf","outputs":[{"internalType":"uint32","name":"","type":"uint32"}],"stateMutability":"pure","type":"function"},{"inputs":[{"internalType":"uint8","name":"idx","type":"uint8"}],"name":"invKppbFromIdx","outputs":[{"internalType":"uint32","name":"","type":"uint32"}],"stateMutability":"pure","type":"function"},{"inputs":[{"components":[{"internalType":"address","name":"asset0","type":"address"},{"internalType":"address","name":"asset1","type":"address"},{"internalType":"address","name":"quoter","type":"address"},{"internalType":"uint256","name":"amount","type":"uint256"},{"internalType":"uint128","name":"asset0Balance","type":"uint128"},{"internalType":"uint128","name":"asset1Balance","type":"uint128"},{"internalType":"uint16","name":"bucketID","type":"uint16"},{"internalType":"bool","name":"zeroForOne","type":"bool"},{"internalType":"uint8","name":"functionFlags","type":"uint8"}],"internalType":"struct QuoteParams","name":"params","type":"tuple"},{"internalType":"bytes","name":"data","type":"bytes"}],"name":"quote","outputs":[{"internalType":"uint256","name":"","type":"uint256"}],"stateMutability":"view","type":"function"},{"inputs":[{"components":[{"internalType":"address","name":"asset0","type":"address"},{"internalType":"address","name":"asset1","type":"address"},{"internalType":"address","name":"quoter","type":"address"},{"internalType":"uint256[]","name":"amount","type":"uint256[]"},{"internalType":"uint128[]","name":"asset0Balances","type":"uint128[]"},{"internalType":"uint128[]","name":"asset1Balances","type":"uint128[]"},{"internalType":"uint16[]","name":"bucketID","type":"uint16[]"},{"internalType":"bool","name":"zeroForOne","type":"bool"},{"internalType":"uint8","name":"functionFlags","type":"uint8"}],"internalType":"struct QuoteParamsBatch","name":"params","type":"tuple"},{"internalType":"bytes","name":"data","type":"bytes"}],"name":"quoteBatch","outputs":[{"internalType":"uint256[]","name":"quotes","type":"uint256[]"}],"stateMutability":"view","type":"function"},{"inputs":[{"internalType":"uint16","name":"bucketID","type":"uint16"}],"name":"requiresSigmaData","outputs":[{"internalType":"bool","name":"","type":"bool"}],"stateMutability":"pure","type":"function"},{"inputs":[{"internalType":"uint16","name":"bucketID","type":"uint16"}],"name":"sigmaIsFixed","outputs":[{"internalType":"bool","name":"","type":"bool"}],"stateMutability":"pure","type":"function"},{"inputs":[{"internalType":"uint8","name":"idx","type":"uint8"},{"internalType":"uint32","name":"gammaPpb","type":"uint32"}],"name":"term2ByGammaFromIdx","outputs":[{"internalType":"uint32","name":"","type":"uint32"}],"stateMutability":"pure","type":"function"}],"evm":{"bytecode":{"linkReferences":{},"object":"60808060405234601557611ac9908161001a8239f35b5f80fdfe6080806040526004361015610012575f80fd5b5f3560e01c9081630234beb714610849575080633c1ee1d21461081d5780634a42e6ed146107e057806365d8f9e2146107c25780636f96a0a31461079557806372e072791461030f57806382e8a97c146102ec5780639b6f3a48146102b2578063abfebfd1146101a2578063ceb5ee6414610188578063d8035700146100f5578063e3463b7a146100d75763f1ae5ea3146100ab575f80fd5b346100d35760203660031901126100d357602060806100c8610877565b161515604051908152f35b5f80fd5b346100d3575f3660031901126100d3576020604051633b9aca008152f35b346100d35760a03660031901126100d35761010e610888565b60243560ff811681036100d3576044359081151582036100d35760643580151581036100d3576084359182151583036100d3576030600f602096169160041b16179261017e575b610174575b61016b575b61ffff60405191168152f35b6101001761015f565b906080179061015a565b9160401791610155565b346100d3575f3660031901126100d35760206040515f8152f35b346100d357366003190161014081126100d357610120136100d3576040516101c9816108ab565b6004356001600160a01b03811681036100d35781526024356001600160a01b03811681036100d35760208201526044356001600160a01b03811681036100d357604082015260643560608201526084356001600160801b03811681036100d357608082015260a4356001600160801b03811681036100d35760a082015260c43561ffff811681036100d35760c082015260e43580151581036100d35760e08201526101043560ff811681036100d357610100820152610124356001600160401b0381116100d3576020916102a46102aa9236906004016109cc565b90610bae565b604051908152f35b346100d35760403660031901126100d35760206102de6102d0610888565b6102d8610898565b90611341565b63ffffffff60405191168152f35b346100d35760203660031901126100d35760206102de61030a610888565b61189c565b346100d35760403660031901126100d3576004356001600160401b0381116100d35761012060031982360301126100d35760405161034c816108ab565b61035882600401610918565b815261036660248301610918565b916020820192835261037a60448201610918565b926040830193845260648201356001600160401b0381116100d3578201366023820112156100d3576004810135906103b18261092c565b916103bf60405193846108f7565b808352602060048185019260051b84010101913683116100d357602401905b828210610785575050506060840190815260848301356001600160401b0381116100d3576104129060043691860101610943565b926080850193845260a48101356001600160401b0381116100d35761043d9060043691840101610943565b9060a0860191825260c48101356001600160401b0381116100d357810190366023830112156100d35760048201356104748161092c565b9261048260405194856108f7565b818452602060048186019360051b83010101903682116100d357602401915b81831061076a5750505060c0870191825260e48101359081151582036100d35760e0880191825261010401359160ff831683036100d35761010088019283526024356001600160401b0381116100d3576105029098959836906004016109cc565b93885151976105296105138a61092c565b996105216040519b8c6108f7565b808b5261092c565b60208a0190601f190136823760208701975f5b8c51805182101561072657908e8989898f9589868080808f958d600160a01b600190039051169c600160a01b600190039051169a600160a01b600190039051169461058691610a32565b5194519061059391610a32565b516001600160801b03169451906105a991610a32565b516001600160801b03169451906105bf91610a32565b5161ffff1694511515955160ff1696604051996105db8b6108ab565b8a5260208a019081526040808b0192835260608b0193845260808b0194855260a08b0195865260c08b0196875260e08b019788526101008b019889525163abfebfd160e01b815299516001600160a01b0390811660048c01529051811660248b01529051166044890152516064880152516001600160801b03908116608488015290511660a48601525161ffff1660c485015251151560e48401525160ff16610104830152610140610124830152895161014483018190528290808d61016484015e808201610164015f9052601f1990601f011681010361016401823091815a93602094fa801561071b578d925f916106e3575b506106dc82600194610a32565b520161053c565b9250506020823d8211610713575b816106fe602093836108f7565b810103126100d35790518c91906106dc6106cf565b3d91506106f1565b6040513d5f823e3d90fd5b838d604051918291602083019060208452518091526040830191905f5b818110610751575050500390f35b8251845285945060209384019390920191600101610743565b823561ffff811681036100d3578152602092830192016104a1565b81358152602091820191016103de565b346100d35760203660031901126100d35760206107b86107b3610877565b610a12565b6040519015158152f35b346100d3575f3660031901126100d3576020604051631dcd65008152f35b346100d35760403660031901126100d357602061080c6107fe610877565b610806610898565b9061123f565b6001600160401b0360405191168152f35b346100d35760403660031901126100d35760206102de61083b610888565b610843610898565b9061181f565b346100d35760203660031901126100d35760209063ffffffff61087261086d610877565b6111f5565b168152f35b6004359061ffff821682036100d357565b6004359060ff821682036100d357565b6024359063ffffffff821682036100d357565b61012081019081106001600160401b038211176108c757604052565b634e487b7160e01b5f52604160045260245ffd5b61020081019081106001600160401b038211176108c757604052565b90601f801991011681019081106001600160401b038211176108c757604052565b35906001600160a01b03821682036100d357565b6001600160401b0381116108c75760051b60200190565b9080601f830112156100d35781359061095b8261092c565b9261096960405194856108f7565b82845260208085019360051b8201019182116100d357602001915b8183106109915750505090565b82356001600160801b03811681036100d357815260209283019201610984565b6001600160401b0381116108c757601f01601f191660200190565b81601f820112156100d3578035906109e3826109b1565b926109f160405194856108f7565b828452602083830101116100d357815f926020809301838601378301015290565b63ffffffff610a20826111f5565b1615610a2d576080161590565b505f90565b8051821015610a465760209160051b010190565b634e487b7160e01b5f52603260045260245ffd5b81601f820112156100d357805190610a71826109b1565b92610a7f60405194856108f7565b828452602083830101116100d357815f9260208093018386015e8301015290565b519060ff821682036100d357565b51906001600160801b03821682036100d357565b519061ffff821682036100d357565b91908201809211610ade57565b634e487b7160e01b5f52601160045260245ffd5b5f198114610ade5760010190565b8115610b0a570490565b634e487b7160e01b5f52601260045260245ffd5b81810292918115918404141715610ade57565b90633b9aca00820291808305633b9aca001490151715610ade57565b81810292915f8212600160ff1b821416610ade578184051490151715610ade57565b8115610b0a57600160ff1b81145f19831416610ade570590565b81810392915f138015828513169184121617610ade57565b91908203918211610ade57565b908051810160a082602083019203126100d35760208201516001600160401b0381116100d357816020610be392850101610a5a565b5060408201516001600160401b0381116100d357816020610c0692850101610a5a565b5060608201516001600160401b0381116100d357816020610c2992850101610a5a565b5060808201516001600160401b0381116100d357816020610c4c92850101610a5a565b5060a0820151916001600160401b0383116100d357610c6e9201602001610a5a565b805180156111ee578161010091810103126100d357610c8f60208201610aa0565b610c9b60408301610aae565b91610ca860608201610aae565b91610cb560808301610aae565b93610cc260a08401610aae565b60c08401516001600160401b038116036100d357610cef610100610ce860e08701610ac2565b9501610ac2565b955f955f93600186161515806111dc575b6111c7575b50600285161515806111b5575b61118f575b506004841615158061117d575b611157575b5060088316151580611145575b611121575b50801561111757610d566001600160801b0391600495610b00565b169160e0860191825115155f146111035786516020906001600160a01b03165b60405163313ce56760e01b815296879182906001600160a01b03165afa93841561071b575f946110c7575b835160049650156110b4576020888101516001600160a01b03165b60405163313ce56760e01b815297889182906001600160a01b03165afa95861561071b575f96611078575b5060c08801519661ffff881693610e3261ffff600f8b1692610e08886111f5565b96610e138886611341565b955f916020811615158061106d575b15611040575050505b1680610b1e565b90600a820291808304600a1490151715610ade57610e4f8161189c565b946080610e5c828461181f565b9b1615610fd857610e7160039160ff9361181f565b965b60041c161660018103610fc4575060015b610e8d84611378565b60808c01516001600160801b03169160a08d01516001600160801b03169c6060019c8d518a51151591610ebf956115fd565b9163ffffffff1690610ed091610b1e565b633b9aca009004633b9aca009004610ee791610b4d565b610ef19082610b4d565b633b9aca009005610f0191610b89565b6001600160801b03169563ffffffff169063ffffffff1690610f2291610b89565b9063ffffffff1690818101918212905f13908015821691151617610ade575f8112610fbd575b63ffffffff169384633b9aca0003633b9aca008111610ade57610f736001600160801b0391836113f6565b1694633b9aca00019081633b9aca0011610ade576001600160801b0391610f99916113f6565b915191169015610fb15750610fae93516117e4565b90565b9250610fae935161179d565b505f610f48565b600203610fd2576002610e84565b5f610e84565b50508063ffffffff831680158015611038575b15610ffd57505060ff60035f96610e73565b633b9aca009161100c91610b1e565b04620186a0810290808204620186a01490151715610ade57600363ffffffff60ff9260011c1696610e73565b508115610feb565b60409192935016151580611062575b61105a575b50610e2b565b90505f611054565b50828116151561104f565b508484161515610e22565b9095506020813d6020116110ac575b81611094602093836108f7565b810103126100d3576110a590610aa0565b945f610de7565b3d9150611087565b87516020906001600160a01b0316610dbc565b93506020853d6020116110fb575b816110e2602093836108f7565b810103126100d3576110f5600495610aa0565b93610da1565b3d91506110d5565b6020878101516001600160a01b0316610d76565b5050505050505f90565b61113f91946001600160801b03611139921690610ad1565b93610af2565b5f610d3b565b506001600160801b0381161515610d36565b6111769192956001600160801b03611170921690610ad1565b94610af2565b905f610d29565b506001600160801b0381161515610d24565b6111ae9193966001600160801b036111a8921690610ad1565b95610af2565b915f610d17565b506001600160801b0381161515610d12565b6001600160801b03169650600193505f610d05565b506001600160801b0381161515610d00565b5050505f90565b6101008116610a2d57600481901c60031615610a2d5760061c60011661121d57631dcd650090565b633b9aca0090565b9063ffffffff8091169116019063ffffffff8211610ade57565b90600f82169061124e836111f5565b906112588361189c565b9363ffffffff831615611334576080166112de5781633b9aca0061129361129d9363ffffffff8061128a81988a611341565b16911690610b1e565b60011c049361181f565b92169163ffffffff6112af8385610ad1565b91169081116112d6576112cd6112d2926001600160401b0394610ad1565b610ba1565b1690565b505f92915050565b50916112f9836112f363ffffffff958561181f565b9361181f565b91836113058484611225565b9116931683116112d65763ffffffff9161131e91611225565b160363ffffffff8111610ade5763ffffffff1690565b5050505063ffffffff1690565b9063ffffffff1680156113725761136d633b9aca009163ffffffff6113668195611957565b1690610b1e565b041690565b50505f90565b5f19633b9aca008209633b9aca008202918280831092039180830392146113ee5781600160401b11156113c357633b9aca00600160401b910990828211900360c01b910360401c1790565b60405162461bcd60e51b815260206004820152600360248201526213d19360ea1b6044820152606490fd5b505060401c90565b5f19828209828202918280831092039180830392146114575781633b9aca0011156113c3577f88f2cfb83100cb4e69e7c79c58b316e597157d372fb9787e8e47ce423a2e9c6d93633b9aca00910990828211900360f71b910360091c170290565b5050633b9aca0091500490565b5f19600160401b8209918160401b918280851094039380850394146114e657838211156113c357600160401b829109600182190182168092046002816003021880820260020302808202600203028082026002030280820260020302808202600203028091026002030293600183805f03040190848311900302920304170290565b50809250156114f3570490565b606460405162461bcd60e51b81526020600482015260046024820152630444956360e41b6044820152fd5b5f19828209908281029283808410930392808403931461155d5782600160401b11156113c357600160401b910990828211900360c01b910360401c1790565b50505060401c90565b915f1982840992828102928380861095039480860395146115df57848311156113c357829109600182190182168092046002816003021880820260020302808202600203028082026002030280820260020302808202600203028091026002030293600183805f03040190848311900302920304170290565b5050809250156114f3570490565b600160ff1b8114610ade575f0390565b909492919394633b9aca00810290808204633b9aca001490151715610ade578361162691610b00565b911561172d578381111561171e57633b9aca0061164d846116478785610ba1565b96610b1e565b0492633b9aca00840293808504633b9aca001490151715610ade5785809361168461167e6116849461168a98610b00565b82610ad1565b93611a15565b91600381101561170a576116fc576116b291905f81126116ed57905b5f81126116df57610b89565b633b9aca0081136116d657633b9ac9ff1981126116cc5790565b50633b9ac9ff1990565b50633b9aca0090565b6116e8906115ed565b610b89565b6116f6906115ed565b906116a6565b61170591610b89565b6116b2565b634e487b7160e01b5f52602160045260245ffd5b633b9aca0061164d845f611647565b92633b9aca00819392930290808204633b9aca001490151715610ade576116848561168a9461178261177c86611764859888610b00565b80851115611788576117769085610ba1565b96610b00565b88610ad1565b96611a15565b505f611776565b604d8111610ade57600a0a90565b9092919281156117dc57610fae936001600160801b03926117ce60ff6117c7816117d4961661178f565b931661178f565b90611566565b911690611464565b505050505f90565b929083156117dc57610fae936001600160801b0361181260ff61180b8161181a961661178f565b961661178f565b93169061151e565b611566565b9063ffffffff81161561137257633b9aca0061184d63ffffffff610e2b611847829587611341565b95611957565b04911690620186a0820291808304620186a01490151715610ade576001600160ff1b0381168103610ade5763ffffffff916112d29160011b90610b00565b906010811015610a465760051b0190565b61195263ffffffff9160ff604051916118b4836108db565b61c3508352620186a060208401526203d09060408401526207a1206060840152620b71b06080840152620f424060a08401526216e36060c0840152621e848060e0840152622dc6c0610100840152624c4b40610120840152627270e06101408401526298968061016084015262e4e1c06101808401526301312d006101a08401526301c9c3806101c08401526302faf0806101e0840152169061188b565b511690565b61195263ffffffff9160ff6040519161196f836108db565b63773594008352633b9aca0060208401526317d784006040840152630bebc20060608401526307f2815560808401526305f5e10060a08401526303f940ab60c08401526302faf08060e08401526301fca0556101008401526301312d0061012084015262cb7355610140840152629896806101608401526265b9ab610180840152624c4b406101a08401526232dcd56101c0840152621e84806101e0840152169061188b565b9190611a218184610ad1565b9182156117dc57600381101561170a5780611a715750508160011b9180830560021490151715610ade57611a57611a5c92610b31565b610b6f565b633b9ac9ff198101908113600116610ade5790565b600103611a855750611a57610fae92610b31565b610fae9250611a5790610b3156fea26469706673582212204a04fbde683b6037581f50d80ca86709b5cb2b4c77bdc6984d90334b2635640664736f6c634300081e0033","opcodes":"PUSH1 0x80 DUP1 PUSH1 0x40 MSTORE CALLVALUE PUSH1 0x15 JUMPI PUSH2 0x1AC9 SWAP1 DUP2 PUSH2 0x1A DUP3 CODECOPY RETURN JUMPDEST PUSH0 DUP1 REVERT INVALID PUSH1 0x80 DUP1 PUSH1 0x40 MSTORE PUSH1 0x4 CALLDATASIZE LT ISZERO PUSH2 0x12 JUMPI PUSH0 DUP1 REVERT JUMPDEST PUSH0 CALLDATALOAD PUSH1 0xE0 SHR SWAP1 DUP2 PUSH4 0x234BEB7 EQ PUSH2 0x849 JUMPI POP DUP1 PUSH4 0x3C1EE1D2 EQ PUSH2 0x81D JUMPI DUP1 PUSH4 0x4A42E6ED EQ PUSH2 0x7E0 JUMPI DUP1 PUSH4 0x65D8F9E2 EQ PUSH2 0x7C2 JUMPI DUP1 PUSH4 0x6F96A0A3 EQ PUSH2 0x795 JUMPI DUP1 PUSH4 0x72E07279 EQ PUSH2 0x30F JUMPI DUP1 PUSH4 0x82E8A97C EQ PUSH2 0x2EC JUMPI DUP1 PUSH4 0x9B6F3A48 EQ PUSH2 0x2B2 JUMPI DUP1 PUSH4 0xABFEBFD1 EQ PUSH2 0x1A2 JUMPI DUP1 PUSH4 0xCEB5EE64 EQ PUSH2 0x188 JUMPI DUP1 PUSH4 0xD8035700 EQ PUSH2 0xF5 JUMPI DUP1 PUSH4 0xE3463B7A EQ PUSH2 0xD7 JUMPI PUSH4 0xF1AE5EA3 EQ PUSH2 0xAB JUMPI PUSH0 DUP1 REVERT JUMPDEST CALLVALUE PUSH2 0xD3 JUMPI PUSH1 0x20 CALLDATASIZE PUSH1 0x3 NOT ADD SLT PUSH2 0xD3 JUMPI PUSH1 0x20 PUSH1 0x80 PUSH2 0xC8 PUSH2 0x877 JUMP JUMPDEST AND ISZERO ISZERO PUSH1 0x40 MLOAD SWAP1 DUP2 MSTORE RETURN JUMPDEST PUSH0 DUP1 REVERT JUMPDEST CALLVALUE PUSH2 0xD3 JUMPI PUSH0 CALLDATASIZE PUSH1 0x3 NOT ADD SLT PUSH2 0xD3 JUMPI PUSH1 0x20 PUSH1 0x40 MLOAD PUSH4 0x3B9ACA00 DUP2 MSTORE RETURN JUMPDEST CALLVALUE PUSH2 0xD3 JUMPI PUSH1 0xA0 CALLDATASIZE PUSH1 0x3 NOT ADD SLT PUSH2 0xD3 JUMPI PUSH2 0x10E PUSH2 0x888 JUMP JUMPDEST PUSH1 0x24 CALLDATALOAD PUSH1 0xFF DUP2 AND DUP2 SUB PUSH2 0xD3 JUMPI PUSH1 0x44 CALLDATALOAD SWAP1 DUP2 ISZERO ISZERO DUP3 SUB PUSH2 0xD3 JUMPI PUSH1 0x64 CALLDATALOAD DUP1 ISZERO ISZERO DUP2 SUB PUSH2 0xD3 JUMPI PUSH1 0x84 CALLDATALOAD SWAP2 DUP3 ISZERO ISZERO DUP4 SUB PUSH2 0xD3 JUMPI PUSH1 0x30 PUSH1 0xF PUSH1 0x20 SWAP7 AND SWAP2 PUSH1 0x4 SHL AND OR SWAP3 PUSH2 0x17E JUMPI JUMPDEST PUSH2 0x174 JUMPI JUMPDEST PUSH2 0x16B JUMPI JUMPDEST PUSH2 0xFFFF PUSH1 0x40 MLOAD SWAP2 AND DUP2 MSTORE RETURN JUMPDEST PUSH2 0x100 OR PUSH2 0x15F JUMP JUMPDEST SWAP1 PUSH1 0x80 OR SWAP1 PUSH2 0x15A JUMP JUMPDEST SWAP2 PUSH1 0x40 OR SWAP2 PUSH2 0x155 JUMP JUMPDEST CALLVALUE PUSH2 0xD3 JUMPI PUSH0 CALLDATASIZE PUSH1 0x3 NOT ADD SLT PUSH2 0xD3 JUMPI PUSH1 0x20 PUSH1 0x40 MLOAD PUSH0 DUP2 MSTORE RETURN JUMPDEST CALLVALUE PUSH2 0xD3 JUMPI CALLDATASIZE PUSH1 0x3 NOT ADD PUSH2 0x140 DUP2 SLT PUSH2 0xD3 JUMPI PUSH2 0x120 SGT PUSH2 0xD3 JUMPI PUSH1 0x40 MLOAD PUSH2 0x1C9 DUP2 PUSH2 0x8AB JUMP JUMPDEST PUSH1 0x4 CALLDATALOAD PUSH1 0x1 PUSH1 0x1 PUSH1 0xA0 SHL SUB DUP2 AND DUP2 SUB PUSH2 0xD3 JUMPI DUP2 MSTORE PUSH1 0x24 CALLDATALOAD PUSH1 0x1 PUSH1 0x1 PUSH1 0xA0 SHL SUB DUP2 AND DUP2 SUB PUSH2 0xD3 JUMPI PUSH1 0x20 DUP3 ADD MSTORE PUSH1 0x44 CALLDATALOAD PUSH1 0x1 PUSH1 0x1 PUSH1 0xA0 SHL SUB DUP2 AND DUP2 SUB PUSH2 0xD3 JUMPI PUSH1 0x40 DUP3 ADD MSTORE PUSH1 0x64 CALLDATALOAD PUSH1 0x60 DUP3 ADD MSTORE PUSH1 0x84 CALLDATALOAD PUSH1 0x1 PUSH1 0x1 PUSH1 0x80 SHL SUB DUP2 AND DUP2 SUB PUSH2 0xD3 JUMPI PUSH1 0x80 DUP3 ADD MSTORE PUSH1 0xA4 CALLDATALOAD PUSH1 0x1 PUSH1 0x1 PUSH1 0x80 SHL SUB DUP2 AND DUP2 SUB PUSH2 0xD3 JUMPI PUSH1 0xA0 DUP3 ADD MSTORE PUSH1 0xC4 CALLDATALOAD PUSH2 0xFFFF DUP2 AND DUP2 SUB PUSH2 0xD3 JUMPI PUSH1 0xC0 DUP3 ADD MSTORE PUSH1 0xE4 CALLDATALOAD DUP1 ISZERO ISZERO DUP2 SUB PUSH2 0xD3 JUMPI PUSH1 0xE0 DUP3 ADD MSTORE PUSH2 0x104 CALLDATALOAD PUSH1 0xFF DUP2 AND DUP2 SUB PUSH2 0xD3 JUMPI PUSH2 0x100 DUP3 ADD MSTORE PUSH2 0x124 CALLDATALOAD PUSH1 0x1 PUSH1 0x1 PUSH1 0x40 SHL SUB DUP2 GT PUSH2 0xD3 JUMPI PUSH1 0x20 SWAP2 PUSH2 0x2A4 PUSH2 0x2AA SWAP3 CALLDATASIZE SWAP1 PUSH1 0x4 ADD PUSH2 0x9CC JUMP JUMPDEST SWAP1 PUSH2 0xBAE JUMP JUMPDEST PUSH1 0x40 MLOAD SWAP1 DUP2 MSTORE RETURN JUMPDEST CALLVALUE PUSH2 0xD3 JUMPI PUSH1 0x40 CALLDATASIZE PUSH1 0x3 NOT ADD SLT PUSH2 0xD3 JUMPI PUSH1 0x20 PUSH2 0x2DE PUSH2 0x2D0 PUSH2 0x888 JUMP JUMPDEST PUSH2 0x2D8 PUSH2 0x898 JUMP JUMPDEST SWAP1 PUSH2 0x1341 JUMP JUMPDEST PUSH4 0xFFFFFFFF PUSH1 0x40 MLOAD SWAP2 AND DUP2 MSTORE RETURN JUMPDEST CALLVALUE PUSH2 0xD3 JUMPI PUSH1 0x20 CALLDATASIZE PUSH1 0x3 NOT ADD SLT PUSH2 0xD3 JUMPI PUSH1 0x20 PUSH2 0x2DE PUSH2 0x30A PUSH2 0x888 JUMP JUMPDEST PUSH2 0x189C JUMP JUMPDEST CALLVALUE PUSH2 0xD3 JUMPI PUSH1 0x40 CALLDATASIZE PUSH1 0x3 NOT ADD SLT PUSH2 0xD3 JUMPI PUSH1 0x4 CALLDATALOAD PUSH1 0x1 PUSH1 0x1 PUSH1 0x40 SHL SUB DUP2 GT PUSH2 0xD3 JUMPI PUSH2 0x120 PUSH1 0x3 NOT DUP3 CALLDATASIZE SUB ADD SLT PUSH2 0xD3 JUMPI PUSH1 0x40 MLOAD PUSH2 0x34C DUP2 PUSH2 0x8AB JUMP JUMPDEST PUSH2 0x358 DUP3 PUSH1 0x4 ADD PUSH2 0x918 JUMP JUMPDEST DUP2 MSTORE PUSH2 0x366 PUSH1 0x24 DUP4 ADD PUSH2 0x918 JUMP JUMPDEST SWAP2 PUSH1 0x20 DUP3 ADD SWAP3 DUP4 MSTORE PUSH2 0x37A PUSH1 0x44 DUP3 ADD PUSH2 0x918 JUMP JUMPDEST SWAP3 PUSH1 0x40 DUP4 ADD SWAP4 DUP5 MSTORE PUSH1 0x64 DUP3 ADD CALLDATALOAD PUSH1 0x1 PUSH1 0x1 PUSH1 0x40 SHL SUB DUP2 GT PUSH2 0xD3 JUMPI DUP3 ADD CALLDATASIZE PUSH1 0x23 DUP3 ADD SLT ISZERO PUSH2 0xD3 JUMPI PUSH1 0x4 DUP2 ADD CALLDATALOAD SWAP1 PUSH2 0x3B1 DUP3 PUSH2 0x92C JUMP JUMPDEST SWAP2 PUSH2 0x3BF PUSH1 0x40 MLOAD SWAP4 DUP5 PUSH2 0x8F7 JUMP JUMPDEST DUP1 DUP4 MSTORE PUSH1 0x20 PUSH1 0x4 DUP2 DUP6 ADD SWAP3 PUSH1 0x5 SHL DUP5 ADD ADD ADD SWAP2 CALLDATASIZE DUP4 GT PUSH2 0xD3 JUMPI PUSH1 0x24 ADD SWAP1 JUMPDEST DUP3 DUP3 LT PUSH2 0x785 JUMPI POP POP POP PUSH1 0x60 DUP5 ADD SWAP1 DUP2 MSTORE PUSH1 0x84 DUP4 ADD CALLDATALOAD PUSH1 0x1 PUSH1 0x1 PUSH1 0x40 SHL SUB DUP2 GT PUSH2 0xD3 JUMPI PUSH2 0x412 SWAP1 PUSH1 0x4 CALLDATASIZE SWAP2 DUP7 ADD ADD PUSH2 0x943 JUMP JUMPDEST SWAP3 PUSH1 0x80 DUP6 ADD SWAP4 DUP5 MSTORE PUSH1 0xA4 DUP2 ADD CALLDATALOAD PUSH1 0x1 PUSH1 0x1 PUSH1 0x40 SHL SUB DUP2 GT PUSH2 0xD3 JUMPI PUSH2 0x43D SWAP1 PUSH1 0x4 CALLDATASIZE SWAP2 DUP5 ADD ADD PUSH2 0x943 JUMP JUMPDEST SWAP1 PUSH1 0xA0 DUP7 ADD SWAP2 DUP3 MSTORE PUSH1 0xC4 DUP2 ADD CALLDATALOAD PUSH1 0x1 PUSH1 0x1 PUSH1 0x40 SHL SUB DUP2 GT PUSH2 0xD3 JUMPI DUP2 ADD SWAP1 CALLDATASIZE PUSH1 0x23 DUP4 ADD SLT ISZERO PUSH2 0xD3 JUMPI PUSH1 0x4 DUP3 ADD CALLDATALOAD PUSH2 0x474 DUP2 PUSH2 0x92C JUMP JUMPDEST SWAP3 PUSH2 0x482 PUSH1 0x40 MLOAD SWAP5 DUP6 PUSH2 0x8F7 JUMP JUMPDEST DUP2 DUP5 MSTORE PUSH1 0x20 PUSH1 0x4 DUP2 DUP7 ADD SWAP4 PUSH1 0x5 SHL DUP4 ADD ADD ADD SWAP1 CALLDATASIZE DUP3 GT PUSH2 0xD3 JUMPI PUSH1 0x24 ADD SWAP2 JUMPDEST DUP2 DUP4 LT PUSH2 0x76A JUMPI POP POP POP PUSH1 0xC0 DUP8 ADD SWAP2 DUP3 MSTORE PUSH1 0xE4 DUP2 ADD CALLDATALOAD SWAP1 DUP2 ISZERO ISZERO DUP3 SUB PUSH2 0xD3 JUMPI PUSH1 0xE0 DUP9 ADD SWAP2 DUP3 MSTORE PUSH2 0x104 ADD CALLDATALOAD SWAP2 PUSH1 0xFF DUP4 AND DUP4 SUB PUSH2 0xD3 JUMPI PUSH2 0x100 DUP9 ADD SWAP3 DUP4 MSTORE PUSH1 0x24 CALLDATALOAD PUSH1 0x1 PUSH1 0x1 PUSH1 0x40 SHL SUB DUP2 GT PUSH2 0xD3 JUMPI PUSH2 0x502 SWAP1 SWAP9 SWAP6 SWAP9 CALLDATASIZE SWAP1 PUSH1 0x4 ADD PUSH2 0x9CC JUMP JUMPDEST SWAP4 DUP9 MLOAD MLOAD SWAP8 PUSH2 0x529 PUSH2 0x513 DUP11 PUSH2 0x92C JUMP JUMPDEST SWAP10 PUSH2 0x521 PUSH1 0x40 MLOAD SWAP12 DUP13 PUSH2 0x8F7 JUMP JUMPDEST DUP1 DUP12 MSTORE PUSH2 0x92C JUMP JUMPDEST PUSH1 0x20 DUP11 ADD SWAP1 PUSH1 0x1F NOT ADD CALLDATASIZE DUP3 CALLDATACOPY PUSH1 0x20 DUP8 ADD SWAP8 PUSH0 JUMPDEST DUP13 MLOAD DUP1 MLOAD DUP3 LT ISZERO PUSH2 0x726 JUMPI SWAP1 DUP15 DUP10 DUP10 DUP10 DUP16 SWAP6 DUP10 DUP7 DUP1 DUP1 DUP1 DUP16 SWAP6 DUP14 PUSH1 0x1 PUSH1 0xA0 SHL PUSH1 0x1 SWAP1 SUB SWAP1 MLOAD AND SWAP13 PUSH1 0x1 PUSH1 0xA0 SHL PUSH1 0x1 SWAP1 SUB SWAP1 MLOAD AND SWAP11 PUSH1 0x1 PUSH1 0xA0 SHL PUSH1 0x1 SWAP1 SUB SWAP1 MLOAD AND SWAP5 PUSH2 0x586 SWAP2 PUSH2 0xA32 JUMP JUMPDEST MLOAD SWAP5 MLOAD SWAP1 PUSH2 0x593 SWAP2 PUSH2 0xA32 JUMP JUMPDEST MLOAD PUSH1 0x1 PUSH1 0x1 PUSH1 0x80 SHL SUB AND SWAP5 MLOAD SWAP1 PUSH2 0x5A9 SWAP2 PUSH2 0xA32 JUMP JUMPDEST MLOAD PUSH1 0x1 PUSH1 0x1 PUSH1 0x80 SHL SUB AND SWAP5 MLOAD SWAP1 PUSH2 0x5BF SWAP2 PUSH2 0xA32 JUMP JUMPDEST MLOAD PUSH2 0xFFFF AND SWAP5 MLOAD ISZERO ISZERO SWAP6 MLOAD PUSH1 0xFF AND SWAP7 PUSH1 0x40 MLOAD SWAP10 PUSH2 0x5DB DUP12 PUSH2 0x8AB JUMP JUMPDEST DUP11 MSTORE PUSH1 0x20 DUP11 ADD SWAP1 DUP2 MSTORE PUSH1 0x40 DUP1 DUP12 ADD SWAP3 DUP4 MSTORE PUSH1 0x60 DUP12 ADD SWAP4 DUP5 MSTORE PUSH1 0x80 DUP12 ADD SWAP5 DUP6 MSTORE PUSH1 0xA0 DUP12 ADD SWAP6 DUP7 MSTORE PUSH1 0xC0 DUP12 ADD SWAP7 DUP8 MSTORE PUSH1 0xE0 DUP12 ADD SWAP8 DUP9 MSTORE PUSH2 0x100 DUP12 ADD SWAP9 DUP10 MSTORE MLOAD PUSH4 0xABFEBFD1 PUSH1 0xE0 SHL DUP2 MSTORE SWAP10 MLOAD PUSH1 0x1 PUSH1 0x1 PUSH1 0xA0 SHL SUB SWAP1 DUP2 AND PUSH1 0x4 DUP13 ADD MSTORE SWAP1 MLOAD DUP2 AND PUSH1 0x24 DUP12 ADD MSTORE SWAP1 MLOAD AND PUSH1 0x44 DUP10 ADD MSTORE MLOAD PUSH1 0x64 DUP9 ADD MSTORE MLOAD PUSH1 0x1 PUSH1 0x1 PUSH1 0x80 SHL SUB SWAP1 DUP2 AND PUSH1 0x84 DUP9 ADD MSTORE SWAP1 MLOAD AND PUSH1 0xA4 DUP7 ADD MSTORE MLOAD PUSH2 0xFFFF AND PUSH1 0xC4 DUP6 ADD MSTORE MLOAD ISZERO ISZERO PUSH1 0xE4 DUP5 ADD MSTORE MLOAD PUSH1 0xFF AND PUSH2 0x104 DUP4 ADD MSTORE PUSH2 0x140 PUSH2 0x124 DUP4 ADD MSTORE DUP10 MLOAD PUSH2 0x144 DUP4 ADD DUP2 SWAP1 MSTORE DUP3 SWAP1 DUP1 DUP14 PUSH2 0x164 DUP5 ADD MCOPY DUP1 DUP3 ADD PUSH2 0x164 ADD PUSH0 SWAP1 MSTORE PUSH1 0x1F NOT SWAP1 PUSH1 0x1F ADD AND DUP2 ADD SUB PUSH2 0x164 ADD DUP3 ADDRESS SWAP2 DUP2 GAS SWAP4 PUSH1 0x20 SWAP5 STATICCALL DUP1 ISZERO PUSH2 0x71B JUMPI DUP14 SWAP3 PUSH0 SWAP2 PUSH2 0x6E3 JUMPI JUMPDEST POP PUSH2 0x6DC DUP3 PUSH1 0x1 SWAP5 PUSH2 0xA32 JUMP JUMPDEST MSTORE ADD PUSH2 0x53C JUMP JUMPDEST SWAP3 POP POP PUSH1 0x20 DUP3 RETURNDATASIZE DUP3 GT PUSH2 0x713 JUMPI JUMPDEST DUP2 PUSH2 0x6FE PUSH1 0x20 SWAP4 DUP4 PUSH2 0x8F7 JUMP JUMPDEST DUP2 ADD SUB SLT PUSH2 0xD3 JUMPI SWAP1 MLOAD DUP13 SWAP2 SWAP1 PUSH2 0x6DC PUSH2 0x6CF JUMP JUMPDEST RETURNDATASIZE SWAP2 POP PUSH2 0x6F1 JUMP JUMPDEST PUSH1 0x40 MLOAD RETURNDATASIZE PUSH0 DUP3 RETURNDATACOPY RETURNDATASIZE SWAP1 REVERT JUMPDEST DUP4 DUP14 PUSH1 0x40 MLOAD SWAP2 DUP3 SWAP2 PUSH1 0x20 DUP4 ADD SWAP1 PUSH1 0x20 DUP5 MSTORE MLOAD DUP1 SWAP2 MSTORE PUSH1 0x40 DUP4 ADD SWAP2 SWAP1 PUSH0 JUMPDEST DUP2 DUP2 LT PUSH2 0x751 JUMPI POP POP POP SUB SWAP1 RETURN JUMPDEST DUP3 MLOAD DUP5 MSTORE DUP6 SWAP5 POP PUSH1 0x20 SWAP4 DUP5 ADD SWAP4 SWAP1 SWAP3 ADD SWAP2 PUSH1 0x1 ADD PUSH2 0x743 JUMP JUMPDEST DUP3 CALLDATALOAD PUSH2 0xFFFF DUP2 AND DUP2 SUB PUSH2 0xD3 JUMPI DUP2 MSTORE PUSH1 0x20 SWAP3 DUP4 ADD SWAP3 ADD PUSH2 0x4A1 JUMP JUMPDEST DUP2 CALLDATALOAD DUP2 MSTORE PUSH1 0x20 SWAP2 DUP3 ADD SWAP2 ADD PUSH2 0x3DE JUMP JUMPDEST CALLVALUE PUSH2 0xD3 JUMPI PUSH1 0x20 CALLDATASIZE PUSH1 0x3 NOT ADD SLT PUSH2 0xD3 JUMPI PUSH1 0x20 PUSH2 0x7B8 PUSH2 0x7B3 PUSH2 0x877 JUMP JUMPDEST PUSH2 0xA12 JUMP JUMPDEST PUSH1 0x40 MLOAD SWAP1 ISZERO ISZERO DUP2 MSTORE RETURN JUMPDEST CALLVALUE PUSH2 0xD3 JUMPI PUSH0 CALLDATASIZE PUSH1 0x3 NOT ADD SLT PUSH2 0xD3 JUMPI PUSH1 0x20 PUSH1 0x40 MLOAD PUSH4 0x1DCD6500 DUP2 MSTORE RETURN JUMPDEST CALLVALUE PUSH2 0xD3 JUMPI PUSH1 0x40 CALLDATASIZE PUSH1 0x3 NOT ADD SLT PUSH2 0xD3 JUMPI PUSH1 0x20 PUSH2 0x80C PUSH2 0x7FE PUSH2 0x877 JUMP JUMPDEST PUSH2 0x806 PUSH2 0x898 JUMP JUMPDEST SWAP1 PUSH2 0x123F JUMP JUMPDEST PUSH1 0x1 PUSH1 0x1 PUSH1 0x40 SHL SUB PUSH1 0x40 MLOAD SWAP2 AND DUP2 MSTORE RETURN JUMPDEST CALLVALUE PUSH2 0xD3 JUMPI PUSH1 0x40 CALLDATASIZE PUSH1 0x3 NOT ADD SLT PUSH2 0xD3 JUMPI PUSH1 0x20 PUSH2 0x2DE PUSH2 0x83B PUSH2 0x888 JUMP JUMPDEST PUSH2 0x843 PUSH2 0x898 JUMP JUMPDEST SWAP1 PUSH2 0x181F JUMP JUMPDEST CALLVALUE PUSH2 0xD3 JUMPI PUSH1 0x20 CALLDATASIZE PUSH1 0x3 NOT ADD SLT PUSH2 0xD3 JUMPI PUSH1 0x20 SWAP1 PUSH4 0xFFFFFFFF PUSH2 0x872 PUSH2 0x86D PUSH2 0x877 JUMP JUMPDEST PUSH2 0x11F5 JUMP JUMPDEST AND DUP2 MSTORE RETURN JUMPDEST PUSH1 0x4 CALLDATALOAD SWAP1 PUSH2 0xFFFF DUP3 AND DUP3 SUB PUSH2 0xD3 JUMPI JUMP JUMPDEST PUSH1 0x4 CALLDATALOAD SWAP1 PUSH1 0xFF DUP3 AND DUP3 SUB PUSH2 0xD3 JUMPI JUMP JUMPDEST PUSH1 0x24 CALLDATALOAD SWAP1 PUSH4 0xFFFFFFFF DUP3 AND DUP3 SUB PUSH2 0xD3 JUMPI JUMP JUMPDEST PUSH2 0x120 DUP2 ADD SWAP1 DUP2 LT PUSH1 0x1 PUSH1 0x1 PUSH1 0x40 SHL SUB DUP3 GT OR PUSH2 0x8C7 JUMPI PUSH1 0x40 MSTORE JUMP JUMPDEST PUSH4 0x4E487B71 PUSH1 0xE0 SHL PUSH0 MSTORE PUSH1 0x41 PUSH1 0x4 MSTORE PUSH1 0x24 PUSH0 REVERT JUMPDEST PUSH2 0x200 DUP2 ADD SWAP1 DUP2 LT PUSH1 0x1 PUSH1 0x1 PUSH1 0x40 SHL SUB DUP3 GT OR PUSH2 0x8C7 JUMPI PUSH1 0x40 MSTORE JUMP JUMPDEST SWAP1 PUSH1 0x1F DUP1 NOT SWAP2 ADD AND DUP2 ADD SWAP1 DUP2 LT PUSH1 0x1 PUSH1 0x1 PUSH1 0x40 SHL SUB DUP3 GT OR PUSH2 0x8C7 JUMPI PUSH1 0x40 MSTORE JUMP JUMPDEST CALLDATALOAD SWAP1 PUSH1 0x1 PUSH1 0x1 PUSH1 0xA0 SHL SUB DUP3 AND DUP3 SUB PUSH2 0xD3 JUMPI JUMP JUMPDEST PUSH1 0x1 PUSH1 0x1 PUSH1 0x40 SHL SUB DUP2 GT PUSH2 0x8C7 JUMPI PUSH1 0x5 SHL PUSH1 0x20 ADD SWAP1 JUMP JUMPDEST SWAP1 DUP1 PUSH1 0x1F DUP4 ADD SLT ISZERO PUSH2 0xD3 JUMPI DUP2 CALLDATALOAD SWAP1 PUSH2 0x95B DUP3 PUSH2 0x92C JUMP JUMPDEST SWAP3 PUSH2 0x969 PUSH1 0x40 MLOAD SWAP5 DUP6 PUSH2 0x8F7 JUMP JUMPDEST DUP3 DUP5 MSTORE PUSH1 0x20 DUP1 DUP6 ADD SWAP4 PUSH1 0x5 SHL DUP3 ADD ADD SWAP2 DUP3 GT PUSH2 0xD3 JUMPI PUSH1 0x20 ADD SWAP2 JUMPDEST DUP2 DUP4 LT PUSH2 0x991 JUMPI POP POP POP SWAP1 JUMP JUMPDEST DUP3 CALLDATALOAD PUSH1 0x1 PUSH1 0x1 PUSH1 0x80 SHL SUB DUP2 AND DUP2 SUB PUSH2 0xD3 JUMPI DUP2 MSTORE PUSH1 0x20 SWAP3 DUP4 ADD SWAP3 ADD PUSH2 0x984 JUMP JUMPDEST PUSH1 0x1 PUSH1 0x1 PUSH1 0x40 SHL SUB DUP2 GT PUSH2 0x8C7 JUMPI PUSH1 0x1F ADD PUSH1 0x1F NOT AND PUSH1 0x20 ADD SWAP1 JUMP JUMPDEST DUP2 PUSH1 0x1F DUP3 ADD SLT ISZERO PUSH2 0xD3 JUMPI DUP1 CALLDATALOAD SWAP1 PUSH2 0x9E3 DUP3 PUSH2 0x9B1 JUMP JUMPDEST SWAP3 PUSH2 0x9F1 PUSH1 0x40 MLOAD SWAP5 DUP6 PUSH2 0x8F7 JUMP JUMPDEST DUP3 DUP5 MSTORE PUSH1 0x20 DUP4 DUP4 ADD ADD GT PUSH2 0xD3 JUMPI DUP2 PUSH0 SWAP3 PUSH1 0x20 DUP1 SWAP4 ADD DUP4 DUP7 ADD CALLDATACOPY DUP4 ADD ADD MSTORE SWAP1 JUMP JUMPDEST PUSH4 0xFFFFFFFF PUSH2 0xA20 DUP3 PUSH2 0x11F5 JUMP JUMPDEST AND ISZERO PUSH2 0xA2D JUMPI PUSH1 0x80 AND ISZERO SWAP1 JUMP JUMPDEST POP PUSH0 SWAP1 JUMP JUMPDEST DUP1 MLOAD DUP3 LT ISZERO PUSH2 0xA46 JUMPI PUSH1 0x20 SWAP2 PUSH1 0x5 SHL ADD ADD SWAP1 JUMP JUMPDEST PUSH4 0x4E487B71 PUSH1 0xE0 SHL PUSH0 MSTORE PUSH1 0x32 PUSH1 0x4 MSTORE PUSH1 0x24 PUSH0 REVERT JUMPDEST DUP2 PUSH1 0x1F DUP3 ADD SLT ISZERO PUSH2 0xD3 JUMPI DUP1 MLOAD SWAP1 PUSH2 0xA71 DUP3 PUSH2 0x9B1 JUMP JUMPDEST SWAP3 PUSH2 0xA7F PUSH1 0x40 MLOAD SWAP5 DUP6 PUSH2 0x8F7 JUMP JUMPDEST DUP3 DUP5 MSTORE PUSH1 0x20 DUP4 DUP4 ADD ADD GT PUSH2 0xD3 JUMPI DUP2 PUSH0 SWAP3 PUSH1 0x20 DUP1 SWAP4 ADD DUP4 DUP7 ADD MCOPY DUP4 ADD ADD MSTORE SWAP1 JUMP JUMPDEST MLOAD SWAP1 PUSH1 0xFF DUP3 AND DUP3 SUB PUSH2 0xD3 JUMPI JUMP JUMPDEST MLOAD SWAP1 PUSH1 0x1 PUSH1 0x1 PUSH1 0x80 SHL SUB DUP3 AND DUP3 SUB PUSH2 0xD3 JUMPI JUMP JUMPDEST MLOAD SWAP1 PUSH2 0xFFFF DUP3 AND DUP3 SUB PUSH2 0xD3 JUMPI JUMP JUMPDEST SWAP2 SWAP1 DUP3 ADD DUP1 SWAP3 GT PUSH2 0xADE JUMPI JUMP JUMPDEST PUSH4 0x4E487B71 PUSH1 0xE0 SHL PUSH0 MSTORE PUSH1 0x11 PUSH1 0x4 MSTORE PUSH1 0x24 PUSH0 REVERT JUMPDEST PUSH0 NOT DUP2 EQ PUSH2 0xADE JUMPI PUSH1 0x1 ADD SWAP1 JUMP JUMPDEST DUP2 ISZERO PUSH2 0xB0A JUMPI DIV SWAP1 JUMP JUMPDEST PUSH4 0x4E487B71 PUSH1 0xE0 SHL PUSH0 MSTORE PUSH1 0x12 PUSH1 0x4 MSTORE PUSH1 0x24 PUSH0 REVERT JUMPDEST DUP2 DUP2 MUL SWAP3 SWAP2 DUP2 ISZERO SWAP2 DUP5 DIV EQ OR ISZERO PUSH2 0xADE JUMPI JUMP JUMPDEST SWAP1 PUSH4 0x3B9ACA00 DUP3 MUL SWAP2 DUP1 DUP4 SDIV PUSH4 0x3B9ACA00 EQ SWAP1 ISZERO OR ISZERO PUSH2 0xADE JUMPI JUMP JUMPDEST DUP2 DUP2 MUL SWAP3 SWAP2 PUSH0 DUP3 SLT PUSH1 0x1 PUSH1 0xFF SHL DUP3 EQ AND PUSH2 0xADE JUMPI DUP2 DUP5 SDIV EQ SWAP1 ISZERO OR ISZERO PUSH2 0xADE JUMPI JUMP JUMPDEST DUP2 ISZERO PUSH2 0xB0A JUMPI PUSH1 0x1 PUSH1 0xFF SHL DUP2 EQ PUSH0 NOT DUP4 EQ AND PUSH2 0xADE JUMPI SDIV SWAP1 JUMP JUMPDEST DUP2 DUP2 SUB SWAP3 SWAP2 PUSH0 SGT DUP1 ISZERO DUP3 DUP6 SGT AND SWAP2 DUP5 SLT AND OR PUSH2 0xADE JUMPI JUMP JUMPDEST SWAP2 SWAP1 DUP3 SUB SWAP2 DUP3 GT PUSH2 0xADE JUMPI JUMP JUMPDEST SWAP1 DUP1 MLOAD DUP2 ADD PUSH1 0xA0 DUP3 PUSH1 0x20 DUP4 ADD SWAP3 SUB SLT PUSH2 0xD3 JUMPI PUSH1 0x20 DUP3 ADD MLOAD PUSH1 0x1 PUSH1 0x1 PUSH1 0x40 SHL SUB DUP2 GT PUSH2 0xD3 JUMPI DUP2 PUSH1 0x20 PUSH2 0xBE3 SWAP3 DUP6 ADD ADD PUSH2 0xA5A JUMP JUMPDEST POP PUSH1 0x40 DUP3 ADD MLOAD PUSH1 0x1 PUSH1 0x1 PUSH1 0x40 SHL SUB DUP2 GT PUSH2 0xD3 JUMPI DUP2 PUSH1 0x20 PUSH2 0xC06 SWAP3 DUP6 ADD ADD PUSH2 0xA5A JUMP JUMPDEST POP PUSH1 0x60 DUP3 ADD MLOAD PUSH1 0x1 PUSH1 0x1 PUSH1 0x40 SHL SUB DUP2 GT PUSH2 0xD3 JUMPI DUP2 PUSH1 0x20 PUSH2 0xC29 SWAP3 DUP6 ADD ADD PUSH2 0xA5A JUMP JUMPDEST POP PUSH1 0x80 DUP3 ADD MLOAD PUSH1 0x1 PUSH1 0x1 PUSH1 0x40 SHL SUB DUP2 GT PUSH2 0xD3 JUMPI DUP2 PUSH1 0x20 PUSH2 0xC4C SWAP3 DUP6 ADD ADD PUSH2 0xA5A JUMP JUMPDEST POP PUSH1 0xA0 DUP3 ADD MLOAD SWAP2 PUSH1 0x1 PUSH1 0x1 PUSH1 0x40 SHL SUB DUP4 GT PUSH2 0xD3 JUMPI PUSH2 0xC6E SWAP3 ADD PUSH1 0x20 ADD PUSH2 0xA5A JUMP JUMPDEST DUP1 MLOAD DUP1 ISZERO PUSH2 0x11EE JUMPI DUP2 PUSH2 0x100 SWAP2 DUP2 ADD SUB SLT PUSH2 0xD3 JUMPI PUSH2 0xC8F PUSH1 0x20 DUP3 ADD PUSH2 0xAA0 JUMP JUMPDEST PUSH2 0xC9B PUSH1 0x40 DUP4 ADD PUSH2 0xAAE JUMP JUMPDEST SWAP2 PUSH2 0xCA8 PUSH1 0x60 DUP3 ADD PUSH2 0xAAE JUMP JUMPDEST SWAP2 PUSH2 0xCB5 PUSH1 0x80 DUP4 ADD PUSH2 0xAAE JUMP JUMPDEST SWAP4 PUSH2 0xCC2 PUSH1 0xA0 DUP5 ADD PUSH2 0xAAE JUMP JUMPDEST PUSH1 0xC0 DUP5 ADD MLOAD PUSH1 0x1 PUSH1 0x1 PUSH1 0x40 SHL SUB DUP2 AND SUB PUSH2 0xD3 JUMPI PUSH2 0xCEF PUSH2 0x100 PUSH2 0xCE8 PUSH1 0xE0 DUP8 ADD PUSH2 0xAC2 JUMP JUMPDEST SWAP6 ADD PUSH2 0xAC2 JUMP JUMPDEST SWAP6 PUSH0 SWAP6 PUSH0 SWAP4 PUSH1 0x1 DUP7 AND ISZERO ISZERO DUP1 PUSH2 0x11DC JUMPI JUMPDEST PUSH2 0x11C7 JUMPI JUMPDEST POP PUSH1 0x2 DUP6 AND ISZERO ISZERO DUP1 PUSH2 0x11B5 JUMPI JUMPDEST PUSH2 0x118F JUMPI JUMPDEST POP PUSH1 0x4 DUP5 AND ISZERO ISZERO DUP1 PUSH2 0x117D JUMPI JUMPDEST PUSH2 0x1157 JUMPI JUMPDEST POP PUSH1 0x8 DUP4 AND ISZERO ISZERO DUP1 PUSH2 0x1145 JUMPI JUMPDEST PUSH2 0x1121 JUMPI JUMPDEST POP DUP1 ISZERO PUSH2 0x1117 JUMPI PUSH2 0xD56 PUSH1 0x1 PUSH1 0x1 PUSH1 0x80 SHL SUB SWAP2 PUSH1 0x4 SWAP6 PUSH2 0xB00 JUMP JUMPDEST AND SWAP2 PUSH1 0xE0 DUP7 ADD SWAP2 DUP3 MLOAD ISZERO ISZERO PUSH0 EQ PUSH2 0x1103 JUMPI DUP7 MLOAD PUSH1 0x20 SWAP1 PUSH1 0x1 PUSH1 0x1 PUSH1 0xA0 SHL SUB AND JUMPDEST PUSH1 0x40 MLOAD PUSH4 0x313CE567 PUSH1 0xE0 SHL DUP2 MSTORE SWAP7 DUP8 SWAP2 DUP3 SWAP1 PUSH1 0x1 PUSH1 0x1 PUSH1 0xA0 SHL SUB AND GAS STATICCALL SWAP4 DUP5 ISZERO PUSH2 0x71B JUMPI PUSH0 SWAP5 PUSH2 0x10C7 JUMPI JUMPDEST DUP4 MLOAD PUSH1 0x4 SWAP7 POP ISZERO PUSH2 0x10B4 JUMPI PUSH1 0x20 DUP9 DUP2 ADD MLOAD PUSH1 0x1 PUSH1 0x1 PUSH1 0xA0 SHL SUB AND JUMPDEST PUSH1 0x40 MLOAD PUSH4 0x313CE567 PUSH1 0xE0 SHL DUP2 MSTORE SWAP8 DUP9 SWAP2 DUP3 SWAP1 PUSH1 0x1 PUSH1 0x1 PUSH1 0xA0 SHL SUB AND GAS STATICCALL SWAP6 DUP7 ISZERO PUSH2 0x71B JUMPI PUSH0 SWAP7 PUSH2 0x1078 JUMPI JUMPDEST POP PUSH1 0xC0 DUP9 ADD MLOAD SWAP7 PUSH2 0xFFFF DUP9 AND SWAP4 PUSH2 0xE32 PUSH2 0xFFFF PUSH1 0xF DUP12 AND SWAP3 PUSH2 0xE08 DUP9 PUSH2 0x11F5 JUMP JUMPDEST SWAP7 PUSH2 0xE13 DUP9 DUP7 PUSH2 0x1341 JUMP JUMPDEST SWAP6 PUSH0 SWAP2 PUSH1 0x20 DUP2 AND ISZERO ISZERO DUP1 PUSH2 0x106D JUMPI JUMPDEST ISZERO PUSH2 0x1040 JUMPI POP POP POP JUMPDEST AND DUP1 PUSH2 0xB1E JUMP JUMPDEST SWAP1 PUSH1 0xA DUP3 MUL SWAP2 DUP1 DUP4 DIV PUSH1 0xA EQ SWAP1 ISZERO OR ISZERO PUSH2 0xADE JUMPI PUSH2 0xE4F DUP2 PUSH2 0x189C JUMP JUMPDEST SWAP5 PUSH1 0x80 PUSH2 0xE5C DUP3 DUP5 PUSH2 0x181F JUMP JUMPDEST SWAP12 AND ISZERO PUSH2 0xFD8 JUMPI PUSH2 0xE71 PUSH1 0x3 SWAP2 PUSH1 0xFF SWAP4 PUSH2 0x181F JUMP JUMPDEST SWAP7 JUMPDEST PUSH1 0x4 SHR AND AND PUSH1 0x1 DUP2 SUB PUSH2 0xFC4 JUMPI POP PUSH1 0x1 JUMPDEST PUSH2 0xE8D DUP5 PUSH2 0x1378 JUMP JUMPDEST PUSH1 0x80 DUP13 ADD MLOAD PUSH1 0x1 PUSH1 0x1 PUSH1 0x80 SHL SUB AND SWAP2 PUSH1 0xA0 DUP14 ADD MLOAD PUSH1 0x1 PUSH1 0x1 PUSH1 0x80 SHL SUB AND SWAP13 PUSH1 0x60 ADD SWAP13 DUP14 MLOAD DUP11 MLOAD ISZERO ISZERO SWAP2 PUSH2 0xEBF SWAP6 PUSH2 0x15FD JUMP JUMPDEST SWAP2 PUSH4 0xFFFFFFFF AND SWAP1 PUSH2 0xED0 SWAP2 PUSH2 0xB1E JUMP JUMPDEST PUSH4 0x3B9ACA00 SWAP1 DIV PUSH4 0x3B9ACA00 SWAP1 DIV PUSH2 0xEE7 SWAP2 PUSH2 0xB4D JUMP JUMPDEST PUSH2 0xEF1 SWAP1 DUP3 PUSH2 0xB4D JUMP JUMPDEST PUSH4 0x3B9ACA00 SWAP1 SDIV PUSH2 0xF01 SWAP2 PUSH2 0xB89 JUMP JUMPDEST PUSH1 0x1 PUSH1 0x1 PUSH1 0x80 SHL SUB AND SWAP6 PUSH4 0xFFFFFFFF AND SWAP1 PUSH4 0xFFFFFFFF AND SWAP1 PUSH2 0xF22 SWAP2 PUSH2 0xB89 JUMP JUMPDEST SWAP1 PUSH4 0xFFFFFFFF AND SWAP1 DUP2 DUP2 ADD SWAP2 DUP3 SLT SWAP1 PUSH0 SGT SWAP1 DUP1 ISZERO DUP3 AND SWAP2 ISZERO AND OR PUSH2 0xADE JUMPI PUSH0 DUP2 SLT PUSH2 0xFBD JUMPI JUMPDEST PUSH4 0xFFFFFFFF AND SWAP4 DUP5 PUSH4 0x3B9ACA00 SUB PUSH4 0x3B9ACA00 DUP2 GT PUSH2 0xADE JUMPI PUSH2 0xF73 PUSH1 0x1 PUSH1 0x1 PUSH1 0x80 SHL SUB SWAP2 DUP4 PUSH2 0x13F6 JUMP JUMPDEST AND SWAP5 PUSH4 0x3B9ACA00 ADD SWAP1 DUP2 PUSH4 0x3B9ACA00 GT PUSH2 0xADE JUMPI PUSH1 0x1 PUSH1 0x1 PUSH1 0x80 SHL SUB SWAP2 PUSH2 0xF99 SWAP2 PUSH2 0x13F6 JUMP JUMPDEST SWAP2 MLOAD SWAP2 AND SWAP1 ISZERO PUSH2 0xFB1 JUMPI POP PUSH2 0xFAE SWAP4 MLOAD PUSH2 0x17E4 JUMP JUMPDEST SWAP1 JUMP JUMPDEST SWAP3 POP PUSH2 0xFAE SWAP4 MLOAD PUSH2 0x179D JUMP JUMPDEST POP PUSH0 PUSH2 0xF48 JUMP JUMPDEST PUSH1 0x2 SUB PUSH2 0xFD2 JUMPI PUSH1 0x2 PUSH2 0xE84 JUMP JUMPDEST PUSH0 PUSH2 0xE84 JUMP JUMPDEST POP POP DUP1 PUSH4 0xFFFFFFFF DUP4 AND DUP1 ISZERO DUP1 ISZERO PUSH2 0x1038 JUMPI JUMPDEST ISZERO PUSH2 0xFFD JUMPI POP POP PUSH1 0xFF PUSH1 0x3 PUSH0 SWAP7 PUSH2 0xE73 JUMP JUMPDEST PUSH4 0x3B9ACA00 SWAP2 PUSH2 0x100C SWAP2 PUSH2 0xB1E JUMP JUMPDEST DIV PUSH3 0x186A0 DUP2 MUL SWAP1 DUP1 DUP3 DIV PUSH3 0x186A0 EQ SWAP1 ISZERO OR ISZERO PUSH2 0xADE JUMPI PUSH1 0x3 PUSH4 0xFFFFFFFF PUSH1 0xFF SWAP3 PUSH1 0x1 SHR AND SWAP7 PUSH2 0xE73 JUMP JUMPDEST POP DUP2 ISZERO PUSH2 0xFEB JUMP JUMPDEST PUSH1 0x40 SWAP2 SWAP3 SWAP4 POP AND ISZERO ISZERO DUP1 PUSH2 0x1062 JUMPI JUMPDEST PUSH2 0x105A JUMPI JUMPDEST POP PUSH2 0xE2B JUMP JUMPDEST SWAP1 POP PUSH0 PUSH2 0x1054 JUMP JUMPDEST POP DUP3 DUP2 AND ISZERO ISZERO PUSH2 0x104F JUMP JUMPDEST POP DUP5 DUP5 AND ISZERO ISZERO PUSH2 0xE22 JUMP JUMPDEST SWAP1 SWAP6 POP PUSH1 0x20 DUP2 RETURNDATASIZE PUSH1 0x20 GT PUSH2 0x10AC JUMPI JUMPDEST DUP2 PUSH2 0x1094 PUSH1 0x20 SWAP4 DUP4 PUSH2 0x8F7 JUMP JUMPDEST DUP2 ADD SUB SLT PUSH2 0xD3 JUMPI PUSH2 0x10A5 SWAP1 PUSH2 0xAA0 JUMP JUMPDEST SWAP5 PUSH0 PUSH2 0xDE7 JUMP JUMPDEST RETURNDATASIZE SWAP2 POP PUSH2 0x1087 JUMP JUMPDEST DUP8 MLOAD PUSH1 0x20 SWAP1 PUSH1 0x1 PUSH1 0x1 PUSH1 0xA0 SHL SUB AND PUSH2 0xDBC JUMP JUMPDEST SWAP4 POP PUSH1 0x20 DUP6 RETURNDATASIZE PUSH1 0x20 GT PUSH2 0x10FB JUMPI JUMPDEST DUP2 PUSH2 0x10E2 PUSH1 0x20 SWAP4 DUP4 PUSH2 0x8F7 JUMP JUMPDEST DUP2 ADD SUB SLT PUSH2 0xD3 JUMPI PUSH2 0x10F5 PUSH1 0x4 SWAP6 PUSH2 0xAA0 JUMP JUMPDEST SWAP4 PUSH2 0xDA1 JUMP JUMPDEST RETURNDATASIZE SWAP2 POP PUSH2 0x10D5 JUMP JUMPDEST PUSH1 0x20 DUP8 DUP2 ADD MLOAD PUSH1 0x1 PUSH1 0x1 PUSH1 0xA0 SHL SUB AND PUSH2 0xD76 JUMP JUMPDEST POP POP POP POP POP POP PUSH0 SWAP1 JUMP JUMPDEST PUSH2 0x113F SWAP2 SWAP5 PUSH1 0x1 PUSH1 0x1 PUSH1 0x80 SHL SUB PUSH2 0x1139 SWAP3 AND SWAP1 PUSH2 0xAD1 JUMP JUMPDEST SWAP4 PUSH2 0xAF2 JUMP JUMPDEST PUSH0 PUSH2 0xD3B JUMP JUMPDEST POP PUSH1 0x1 PUSH1 0x1 PUSH1 0x80 SHL SUB DUP2 AND ISZERO ISZERO PUSH2 0xD36 JUMP JUMPDEST PUSH2 0x1176 SWAP2 SWAP3 SWAP6 PUSH1 0x1 PUSH1 0x1 PUSH1 0x80 SHL SUB PUSH2 0x1170 SWAP3 AND SWAP1 PUSH2 0xAD1 JUMP JUMPDEST SWAP5 PUSH2 0xAF2 JUMP JUMPDEST SWAP1 PUSH0 PUSH2 0xD29 JUMP JUMPDEST POP PUSH1 0x1 PUSH1 0x1 PUSH1 0x80 SHL SUB DUP2 AND ISZERO ISZERO PUSH2 0xD24 JUMP JUMPDEST PUSH2 0x11AE SWAP2 SWAP4 SWAP7 PUSH1 0x1 PUSH1 0x1 PUSH1 0x80 SHL SUB PUSH2 0x11A8 SWAP3 AND SWAP1 PUSH2 0xAD1 JUMP JUMPDEST SWAP6 PUSH2 0xAF2 JUMP JUMPDEST SWAP2 PUSH0 PUSH2 0xD17 JUMP JUMPDEST POP PUSH1 0x1 PUSH1 0x1 PUSH1 0x80 SHL SUB DUP2 AND ISZERO ISZERO PUSH2 0xD12 JUMP JUMPDEST PUSH1 0x1 PUSH1 0x1 PUSH1 0x80 SHL SUB AND SWAP7 POP PUSH1 0x1 SWAP4 POP PUSH0 PUSH2 0xD05 JUMP JUMPDEST POP PUSH1 0x1 PUSH1 0x1 PUSH1 0x80 SHL SUB DUP2 AND ISZERO ISZERO PUSH2 0xD00 JUMP JUMPDEST POP POP POP PUSH0 SWAP1 JUMP JUMPDEST PUSH2 0x100 DUP2 AND PUSH2 0xA2D JUMPI PUSH1 0x4 DUP2 SWAP1 SHR PUSH1 0x3 AND ISZERO PUSH2 0xA2D JUMPI PUSH1 0x6 SHR PUSH1 0x1 AND PUSH2 0x121D JUMPI PUSH4 0x1DCD6500 SWAP1 JUMP JUMPDEST PUSH4 0x3B9ACA00 SWAP1 JUMP JUMPDEST SWAP1 PUSH4 0xFFFFFFFF DUP1 SWAP2 AND SWAP2 AND ADD SWAP1 PUSH4 0xFFFFFFFF DUP3 GT PUSH2 0xADE JUMPI JUMP JUMPDEST SWAP1 PUSH1 0xF DUP3 AND SWAP1 PUSH2 0x124E DUP4 PUSH2 0x11F5 JUMP JUMPDEST SWAP1 PUSH2 0x1258 DUP4 PUSH2 0x189C JUMP JUMPDEST SWAP4 PUSH4 0xFFFFFFFF DUP4 AND ISZERO PUSH2 0x1334 JUMPI PUSH1 0x80 AND PUSH2 0x12DE JUMPI DUP2 PUSH4 0x3B9ACA00 PUSH2 0x1293 PUSH2 0x129D SWAP4 PUSH4 0xFFFFFFFF DUP1 PUSH2 0x128A DUP2 SWAP9 DUP11 PUSH2 0x1341 JUMP JUMPDEST AND SWAP2 AND SWAP1 PUSH2 0xB1E JUMP JUMPDEST PUSH1 0x1 SHR DIV SWAP4 PUSH2 0x181F JUMP JUMPDEST SWAP3 AND SWAP2 PUSH4 0xFFFFFFFF PUSH2 0x12AF DUP4 DUP6 PUSH2 0xAD1 JUMP JUMPDEST SWAP2 AND SWAP1 DUP2 GT PUSH2 0x12D6 JUMPI PUSH2 0x12CD PUSH2 0x12D2 SWAP3 PUSH1 0x1 PUSH1 0x1 PUSH1 0x40 SHL SUB SWAP5 PUSH2 0xAD1 JUMP JUMPDEST PUSH2 0xBA1 JUMP JUMPDEST AND SWAP1 JUMP JUMPDEST POP PUSH0 SWAP3 SWAP2 POP POP JUMP JUMPDEST POP SWAP2 PUSH2 0x12F9 DUP4 PUSH2 0x12F3 PUSH4 0xFFFFFFFF SWAP6 DUP6 PUSH2 0x181F JUMP JUMPDEST SWAP4 PUSH2 0x181F JUMP JUMPDEST SWAP2 DUP4 PUSH2 0x1305 DUP5 DUP5 PUSH2 0x1225 JUMP JUMPDEST SWAP2 AND SWAP4 AND DUP4 GT PUSH2 0x12D6 JUMPI PUSH4 0xFFFFFFFF SWAP2 PUSH2 0x131E SWAP2 PUSH2 0x1225 JUMP JUMPDEST AND SUB PUSH4 0xFFFFFFFF DUP2 GT PUSH2 0xADE JUMPI PUSH4 0xFFFFFFFF AND SWAP1 JUMP JUMPDEST POP POP POP POP PUSH4 0xFFFFFFFF AND SWAP1 JUMP JUMPDEST SWAP1 PUSH4 0xFFFFFFFF AND DUP1 ISZERO PUSH2 0x1372 JUMPI PUSH2 0x136D PUSH4 0x3B9ACA00 SWAP2 PUSH4 0xFFFFFFFF PUSH2 0x1366 DUP2 SWAP6 PUSH2 0x1957 JUMP JUMPDEST AND SWAP1 PUSH2 0xB1E JUMP JUMPDEST DIV AND SWAP1 JUMP JUMPDEST POP POP PUSH0 SWAP1 JUMP JUMPDEST PUSH0 NOT PUSH4 0x3B9ACA00 DUP3 MULMOD PUSH4 0x3B9ACA00 DUP3 MUL SWAP2 DUP3 DUP1 DUP4 LT SWAP3 SUB SWAP2 DUP1 DUP4 SUB SWAP3 EQ PUSH2 0x13EE JUMPI DUP2 PUSH1 0x1 PUSH1 0x40 SHL GT ISZERO PUSH2 0x13C3 JUMPI PUSH4 0x3B9ACA00 PUSH1 0x1 PUSH1 0x40 SHL SWAP2 MULMOD SWAP1 DUP3 DUP3 GT SWAP1 SUB PUSH1 0xC0 SHL SWAP2 SUB PUSH1 0x40 SHR OR SWAP1 JUMP JUMPDEST PUSH1 0x40 MLOAD PUSH3 0x461BCD PUSH1 0xE5 SHL DUP2 MSTORE PUSH1 0x20 PUSH1 0x4 DUP3 ADD MSTORE PUSH1 0x3 PUSH1 0x24 DUP3 ADD MSTORE PUSH3 0x13D193 PUSH1 0xEA SHL PUSH1 0x44 DUP3 ADD MSTORE PUSH1 0x64 SWAP1 REVERT JUMPDEST POP POP PUSH1 0x40 SHR SWAP1 JUMP JUMPDEST PUSH0 NOT DUP3 DUP3 MULMOD DUP3 DUP3 MUL SWAP2 DUP3 DUP1 DUP4 LT SWAP3 SUB SWAP2 DUP1 DUP4 SUB SWAP3 EQ PUSH2 0x1457 JUMPI DUP2 PUSH4 0x3B9ACA00 GT ISZERO PUSH2 0x13C3 JUMPI PUSH32 0x88F2CFB83100CB4E69E7C79C58B316E597157D372FB9787E8E47CE423A2E9C6D SWAP4 PUSH4 0x3B9ACA00 SWAP2 MULMOD SWAP1 DUP3 DUP3 GT SWAP1 SUB PUSH1 0xF7 SHL SWAP2 SUB PUSH1 0x9 SHR OR MUL SWAP1 JUMP JUMPDEST POP POP PUSH4 0x3B9ACA00 SWAP2 POP DIV SWAP1 JUMP JUMPDEST PUSH0 NOT PUSH1 0x1 PUSH1 0x40 SHL DUP3 MULMOD SWAP2 DUP2 PUSH1 0x40 SHL SWAP2 DUP3 DUP1 DUP6 LT SWAP5 SUB SWAP4 DUP1 DUP6 SUB SWAP5 EQ PUSH2 0x14E6 JUMPI DUP4 DUP3 GT ISZERO PUSH2 0x13C3 JUMPI PUSH1 0x1 PUSH1 0x40 SHL DUP3 SWAP2 MULMOD PUSH1 0x1 DUP3 NOT ADD DUP3 AND DUP1 SWAP3 DIV PUSH1 0x2 DUP2 PUSH1 0x3 MUL XOR DUP1 DUP3 MUL PUSH1 0x2 SUB MUL DUP1 DUP3 MUL PUSH1 0x2 SUB MUL DUP1 DUP3 MUL PUSH1 0x2 SUB MUL DUP1 DUP3 MUL PUSH1 0x2 SUB MUL DUP1 DUP3 MUL PUSH1 0x2 SUB MUL DUP1 SWAP2 MUL PUSH1 0x2 SUB MUL SWAP4 PUSH1 0x1 DUP4 DUP1 PUSH0 SUB DIV ADD SWAP1 DUP5 DUP4 GT SWAP1 SUB MUL SWAP3 SUB DIV OR MUL SWAP1 JUMP JUMPDEST POP DUP1 SWAP3 POP ISZERO PUSH2 0x14F3 JUMPI DIV SWAP1 JUMP JUMPDEST PUSH1 0x64 PUSH1 0x40 MLOAD PUSH3 0x461BCD PUSH1 0xE5 SHL DUP2 MSTORE PUSH1 0x20 PUSH1 0x4 DUP3 ADD MSTORE PUSH1 0x4 PUSH1 0x24 DUP3 ADD MSTORE PUSH4 0x4449563 PUSH1 0xE4 SHL PUSH1 0x44 DUP3 ADD MSTORE REVERT JUMPDEST PUSH0 NOT DUP3 DUP3 MULMOD SWAP1 DUP3 DUP2 MUL SWAP3 DUP4 DUP1 DUP5 LT SWAP4 SUB SWAP3 DUP1 DUP5 SUB SWAP4 EQ PUSH2 0x155D JUMPI DUP3 PUSH1 0x1 PUSH1 0x40 SHL GT ISZERO PUSH2 0x13C3 JUMPI PUSH1 0x1 PUSH1 0x40 SHL SWAP2 MULMOD SWAP1 DUP3 DUP3 GT SWAP1 SUB PUSH1 0xC0 SHL SWAP2 SUB PUSH1 0x40 SHR OR SWAP1 JUMP JUMPDEST POP POP POP PUSH1 0x40 SHR SWAP1 JUMP JUMPDEST SWAP2 PUSH0 NOT DUP3 DUP5 MULMOD SWAP3 DUP3 DUP2 MUL SWAP3 DUP4 DUP1 DUP7 LT SWAP6 SUB SWAP5 DUP1 DUP7 SUB SWAP6 EQ PUSH2 0x15DF JUMPI DUP5 DUP4 GT ISZERO PUSH2 0x13C3 JUMPI DUP3 SWAP2 MULMOD PUSH1 0x1 DUP3 NOT ADD DUP3 AND DUP1 SWAP3 DIV PUSH1 0x2 DUP2 PUSH1 0x3 MUL XOR DUP1 DUP3 MUL PUSH1 0x2 SUB MUL DUP1 DUP3 MUL PUSH1 0x2 SUB MUL DUP1 DUP3 MUL PUSH1 0x2 SUB MUL DUP1 DUP3 MUL PUSH1 0x2 SUB MUL DUP1 DUP3 MUL PUSH1 0x2 SUB MUL DUP1 SWAP2 MUL PUSH1 0x2 SUB MUL SWAP4 PUSH1 0x1 DUP4 DUP1 PUSH0 SUB DIV ADD SWAP1 DUP5 DUP4 GT SWAP1 SUB MUL SWAP3 SUB DIV OR MUL SWAP1 JUMP JUMPDEST POP POP DUP1 SWAP3 POP ISZERO PUSH2 0x14F3 JUMPI DIV SWAP1 JUMP JUMPDEST PUSH1 0x1 PUSH1 0xFF SHL DUP2 EQ PUSH2 0xADE JUMPI PUSH0 SUB SWAP1 JUMP JUMPDEST SWAP1 SWAP5 SWAP3 SWAP2 SWAP4 SWAP5 PUSH4 0x3B9ACA00 DUP2 MUL SWAP1 DUP1 DUP3 DIV PUSH4 0x3B9ACA00 EQ SWAP1 ISZERO OR ISZERO PUSH2 0xADE JUMPI DUP4 PUSH2 0x1626 SWAP2 PUSH2 0xB00 JUMP JUMPDEST SWAP2 ISZERO PUSH2 0x172D JUMPI DUP4 DUP2 GT ISZERO PUSH2 0x171E JUMPI PUSH4 0x3B9ACA00 PUSH2 0x164D DUP5 PUSH2 0x1647 DUP8 DUP6 PUSH2 0xBA1 JUMP JUMPDEST SWAP7 PUSH2 0xB1E JUMP JUMPDEST DIV SWAP3 PUSH4 0x3B9ACA00 DUP5 MUL SWAP4 DUP1 DUP6 DIV PUSH4 0x3B9ACA00 EQ SWAP1 ISZERO OR ISZERO PUSH2 0xADE JUMPI DUP6 DUP1 SWAP4 PUSH2 0x1684 PUSH2 0x167E PUSH2 0x1684 SWAP5 PUSH2 0x168A SWAP9 PUSH2 0xB00 JUMP JUMPDEST DUP3 PUSH2 0xAD1 JUMP JUMPDEST SWAP4 PUSH2 0x1A15 JUMP JUMPDEST SWAP2 PUSH1 0x3 DUP2 LT ISZERO PUSH2 0x170A JUMPI PUSH2 0x16FC JUMPI PUSH2 0x16B2 SWAP2 SWAP1 PUSH0 DUP2 SLT PUSH2 0x16ED JUMPI SWAP1 JUMPDEST PUSH0 DUP2 SLT PUSH2 0x16DF JUMPI PUSH2 0xB89 JUMP JUMPDEST PUSH4 0x3B9ACA00 DUP2 SGT PUSH2 0x16D6 JUMPI PUSH4 0x3B9AC9FF NOT DUP2 SLT PUSH2 0x16CC JUMPI SWAP1 JUMP JUMPDEST POP PUSH4 0x3B9AC9FF NOT SWAP1 JUMP JUMPDEST POP PUSH4 0x3B9ACA00 SWAP1 JUMP JUMPDEST PUSH2 0x16E8 SWAP1 PUSH2 0x15ED JUMP JUMPDEST PUSH2 0xB89 JUMP JUMPDEST PUSH2 0x16F6 SWAP1 PUSH2 0x15ED JUMP JUMPDEST SWAP1 PUSH2 0x16A6 JUMP JUMPDEST PUSH2 0x1705 SWAP2 PUSH2 0xB89 JUMP JUMPDEST PUSH2 0x16B2 JUMP JUMPDEST PUSH4 0x4E487B71 PUSH1 0xE0 SHL PUSH0 MSTORE PUSH1 0x21 PUSH1 0x4 MSTORE PUSH1 0x24 PUSH0 REVERT JUMPDEST PUSH4 0x3B9ACA00 PUSH2 0x164D DUP5 PUSH0 PUSH2 0x1647 JUMP JUMPDEST SWAP3 PUSH4 0x3B9ACA00 DUP2 SWAP4 SWAP3 SWAP4 MUL SWAP1 DUP1 DUP3 DIV PUSH4 0x3B9ACA00 EQ SWAP1 ISZERO OR ISZERO PUSH2 0xADE JUMPI PUSH2 0x1684 DUP6 PUSH2 0x168A SWAP5 PUSH2 0x1782 PUSH2 0x177C DUP7 PUSH2 0x1764 DUP6 SWAP9 DUP9 PUSH2 0xB00 JUMP JUMPDEST DUP1 DUP6 GT ISZERO PUSH2 0x1788 JUMPI PUSH2 0x1776 SWAP1 DUP6 PUSH2 0xBA1 JUMP JUMPDEST SWAP7 PUSH2 0xB00 JUMP JUMPDEST DUP9 PUSH2 0xAD1 JUMP JUMPDEST SWAP7 PUSH2 0x1A15 JUMP JUMPDEST POP PUSH0 PUSH2 0x1776 JUMP JUMPDEST PUSH1 0x4D DUP2 GT PUSH2 0xADE JUMPI PUSH1 0xA EXP SWAP1 JUMP JUMPDEST SWAP1 SWAP3 SWAP2 SWAP3 DUP2 ISZERO PUSH2 0x17DC JUMPI PUSH2 0xFAE SWAP4 PUSH1 0x1 PUSH1 0x1 PUSH1 0x80 SHL SUB SWAP3 PUSH2 0x17CE PUSH1 0xFF PUSH2 0x17C7 DUP2 PUSH2 0x17D4 SWAP7 AND PUSH2 0x178F JUMP JUMPDEST SWAP4 AND PUSH2 0x178F JUMP JUMPDEST SWAP1 PUSH2 0x1566 JUMP JUMPDEST SWAP2 AND SWAP1 PUSH2 0x1464 JUMP JUMPDEST POP POP POP POP PUSH0 SWAP1 JUMP JUMPDEST SWAP3 SWAP1 DUP4 ISZERO PUSH2 0x17DC JUMPI PUSH2 0xFAE SWAP4 PUSH1 0x1 PUSH1 0x1 PUSH1 0x80 SHL SUB PUSH2 0x1812 PUSH1 0xFF PUSH2 0x180B DUP2 PUSH2 0x181A SWAP7 AND PUSH2 0x178F JUMP JUMPDEST SWAP7 AND PUSH2 0x178F JUMP JUMPDEST SWAP4 AND SWAP1 PUSH2 0x151E JUMP JUMPDEST PUSH2 0x1566 JUMP JUMPDEST SWAP1 PUSH4 0xFFFFFFFF DUP2 AND ISZERO PUSH2 0x1372 JUMPI PUSH4 0x3B9ACA00 PUSH2 0x184D PUSH4 0xFFFFFFFF PUSH2 0xE2B PUSH2 0x1847 DUP3 SWAP6 DUP8 PUSH2 0x1341 JUMP JUMPDEST SWAP6 PUSH2 0x1957 JUMP JUMPDEST DIV SWAP2 AND SWAP1 PUSH3 0x186A0 DUP3 MUL SWAP2 DUP1 DUP4 DIV PUSH3 0x186A0 EQ SWAP1 ISZERO OR ISZERO PUSH2 0xADE JUMPI PUSH1 0x1 PUSH1 0x1 PUSH1 0xFF SHL SUB DUP2 AND DUP2 SUB PUSH2 0xADE JUMPI PUSH4 0xFFFFFFFF SWAP2 PUSH2 0x12D2 SWAP2 PUSH1 0x1 SHL SWAP1 PUSH2 0xB00 JUMP JUMPDEST SWAP1 PUSH1 0x10 DUP2 LT ISZERO PUSH2 0xA46 JUMPI PUSH1 0x5 SHL ADD SWAP1 JUMP JUMPDEST PUSH2 0x1952 PUSH4 0xFFFFFFFF SWAP2 PUSH1 0xFF PUSH1 0x40 MLOAD SWAP2 PUSH2 0x18B4 DUP4 PUSH2 0x8DB JUMP JUMPDEST PUSH2 0xC350 DUP4 MSTORE PUSH3 0x186A0 PUSH1 0x20 DUP5 ADD MSTORE PUSH3 0x3D090 PUSH1 0x40 DUP5 ADD MSTORE PUSH3 0x7A120 PUSH1 0x60 DUP5 ADD MSTORE PUSH3 0xB71B0 PUSH1 0x80 DUP5 ADD MSTORE PUSH3 0xF4240 PUSH1 0xA0 DUP5 ADD MSTORE PUSH3 0x16E360 PUSH1 0xC0 DUP5 ADD MSTORE PUSH3 0x1E8480 PUSH1 0xE0 DUP5 ADD MSTORE PUSH3 0x2DC6C0 PUSH2 0x100 DUP5 ADD MSTORE PUSH3 0x4C4B40 PUSH2 0x120 DUP5 ADD MSTORE PUSH3 0x7270E0 PUSH2 0x140 DUP5 ADD MSTORE PUSH3 0x989680 PUSH2 0x160 DUP5 ADD MSTORE PUSH3 0xE4E1C0 PUSH2 0x180 DUP5 ADD MSTORE PUSH4 0x1312D00 PUSH2 0x1A0 DUP5 ADD MSTORE PUSH4 0x1C9C380 PUSH2 0x1C0 DUP5 ADD MSTORE PUSH4 0x2FAF080 PUSH2 0x1E0 DUP5 ADD MSTORE AND SWAP1 PUSH2 0x188B JUMP JUMPDEST MLOAD AND SWAP1 JUMP JUMPDEST PUSH2 0x1952 PUSH4 0xFFFFFFFF SWAP2 PUSH1 0xFF PUSH1 0x40 MLOAD SWAP2 PUSH2 0x196F DUP4 PUSH2 0x8DB JUMP JUMPDEST PUSH4 0x77359400 DUP4 MSTORE PUSH4 0x3B9ACA00 PUSH1 0x20 DUP5 ADD MSTORE PUSH4 0x17D78400 PUSH1 0x40 DUP5 ADD MSTORE PUSH4 0xBEBC200 PUSH1 0x60 DUP5 ADD MSTORE PUSH4 0x7F28155 PUSH1 0x80 DUP5 ADD MSTORE PUSH4 0x5F5E100 PUSH1 0xA0 DUP5 ADD MSTORE PUSH4 0x3F940AB PUSH1 0xC0 DUP5 ADD MSTORE PUSH4 0x2FAF080 PUSH1 0xE0 DUP5 ADD MSTORE PUSH4 0x1FCA055 PUSH2 0x100 DUP5 ADD MSTORE PUSH4 0x1312D00 PUSH2 0x120 DUP5 ADD MSTORE PUSH3 0xCB7355 PUSH2 0x140 DUP5 ADD MSTORE PUSH3 0x989680 PUSH2 0x160 DUP5 ADD MSTORE PUSH3 0x65B9AB PUSH2 0x180 DUP5 ADD MSTORE PUSH3 0x4C4B40 PUSH2 0x1A0 DUP5 ADD MSTORE PUSH3 0x32DCD5 PUSH2 0x1C0 DUP5 ADD MSTORE PUSH3 0x1E8480 PUSH2 0x1E0 DUP5 ADD MSTORE AND SWAP1 PUSH2 0x188B JUMP JUMPDEST SWAP2 SWAP1 PUSH2 0x1A21 DUP2 DUP5 PUSH2 0xAD1 JUMP JUMPDEST SWAP2 DUP3 ISZERO PUSH2 0x17DC JUMPI PUSH1 0x3 DUP2 LT ISZERO PUSH2 0x170A JUMPI DUP1 PUSH2 0x1A71 JUMPI POP POP DUP2 PUSH1 0x1 SHL SWAP2 DUP1 DUP4 SDIV PUSH1 0x2 EQ SWAP1 ISZERO OR ISZERO PUSH2 0xADE JUMPI PUSH2 0x1A57 PUSH2 0x1A5C SWAP3 PUSH2 0xB31 JUMP JUMPDEST PUSH2 0xB6F JUMP JUMPDEST PUSH4 0x3B9AC9FF NOT DUP2 ADD SWAP1 DUP2 SGT PUSH1 0x1 AND PUSH2 0xADE JUMPI SWAP1 JUMP JUMPDEST PUSH1 0x1 SUB PUSH2 0x1A85 JUMPI POP PUSH2 0x1A57 PUSH2 0xFAE SWAP3 PUSH2 0xB31 JUMP JUMPDEST PUSH2 0xFAE SWAP3 POP PUSH2 0x1A57 SWAP1 PUSH2 0xB31 JUMP INVALID LOG2 PUSH5 0x6970667358 0x22 SLT KECCAK256 BLOBBASEFEE DIV EXTSTATICCALL 0xDE PUSH9 0x3B6037581F50D80CA8 PUSH8 0x9B5CB2B4C77BDC6 SWAP9 0x4D SWAP1 CALLER 0x4B 0x26 CALLDATALOAD PUSH5 0x664736F6C PUSH4 0x4300081E STOP CALLER "},"methodIdentifiers":{"buildBucketID(uint8,uint8,bool,bool,bool)":"d8035700","deltaStarPrecomp(uint16,uint32)":"4a42e6ed","gammaFromScaleAndIdx(uint8,uint32)":"9b6f3a48","gammaHighScalePpb()":"e3463b7a","gammaLowScalePpb()":"ceb5ee64","gammaMidScalePpb()":"65d8f9e2","gammaScalePpbOf(uint16)":"0234beb7","invKppbFromIdx(uint8)":"82e8a97c","quote((address,address,address,uint256,uint128,uint128,uint16,bool,uint8),bytes)":"abfebfd1","quoteBatch((address,address,address,uint256[],uint128[],uint128[],uint16[],bool,uint8),bytes)":"72e07279","requiresSigmaData(uint16)":"6f96a0a3","sigmaIsFixed(uint16)":"f1ae5ea3","term2ByGammaFromIdx(uint8,uint32)":"3c1ee1d2"}}}}}