{"contracts/Peripheral/quoters/real/RealDataBridge/StoicovQuoter.sol":{"StoicovQuoter":{"abi":[{"inputs":[{"components":[{"internalType":"address","name":"asset0","type":"address"},{"internalType":"address","name":"asset1","type":"address"},{"internalType":"address","name":"quoter","type":"address"},{"internalType":"uint256","name":"amount","type":"uint256"},{"internalType":"uint128","name":"asset0Balance","type":"uint128"},{"internalType":"uint128","name":"asset1Balance","type":"uint128"},{"internalType":"uint16","name":"bucketID","type":"uint16"},{"internalType":"bool","name":"zeroForOne","type":"bool"},{"internalType":"uint8","name":"functionFlags","type":"uint8"}],"internalType":"struct QuoteParams","name":"params","type":"tuple"},{"internalType":"bytes","name":"data","type":"bytes"}],"name":"quote","outputs":[{"internalType":"uint256","name":"","type":"uint256"}],"stateMutability":"view","type":"function"},{"inputs":[{"components":[{"internalType":"address","name":"asset0","type":"address"},{"internalType":"address","name":"asset1","type":"address"},{"internalType":"address","name":"quoter","type":"address"},{"internalType":"uint256[]","name":"amount","type":"uint256[]"},{"internalType":"uint128[]","name":"asset0Balances","type":"uint128[]"},{"internalType":"uint128[]","name":"asset1Balances","type":"uint128[]"},{"internalType":"uint16[]","name":"bucketID","type":"uint16[]"},{"internalType":"bool","name":"zeroForOne","type":"bool"},{"internalType":"uint8","name":"functionFlags","type":"uint8"}],"internalType":"struct QuoteParamsBatch","name":"params","type":"tuple"},{"internalType":"bytes","name":"data","type":"bytes"}],"name":"quoteBatch","outputs":[{"internalType":"uint256[]","name":"quotes","type":"uint256[]"}],"stateMutability":"view","type":"function"},{"inputs":[{"internalType":"uint16","name":"bucketID","type":"uint16"}],"name":"requiresSigmaData","outputs":[{"internalType":"bool","name":"","type":"bool"}],"stateMutability":"pure","type":"function"}],"evm":{"bytecode":{"linkReferences":{},"object":"608080604052346015576116fa908161001a8239f35b5f80fdfe6080806040526004361015610012575f80fd5b5f3560e01c9081636f96a0a3146105d75750806372e07279146101515763abfebfd11461003d575f80fd5b3461014d573660031901610140811261014d576101201361014d5760405161006481610608565b6004356001600160a01b038116810361014d5781526024356001600160a01b038116810361014d5760208201526044356001600160a01b038116810361014d57604082015260643560608201526084356001600160801b038116810361014d57608082015260a4356001600160801b038116810361014d5760a082015260c43561ffff8116810361014d5760c082015260e435801515810361014d5760e08201526101043560ff8116810361014d57610100820152610124356001600160401b03811161014d5760209161013f610145923690600401610729565b9061090b565b604051908152f35b5f80fd5b3461014d57604036600319011261014d576004356001600160401b03811161014d57610120600319823603011261014d5760405161018e81610608565b61019a82600401610675565b81526101a860248301610675565b91602082019283526101bc60448201610675565b926040830193845260648201356001600160401b03811161014d5782013660238201121561014d576004810135906101f382610689565b916102016040519384610654565b808352602060048185019260051b840101019136831161014d57602401905b8282106105c7575050506060840190815260848301356001600160401b03811161014d5761025490600436918601016106a0565b926080850193845260a48101356001600160401b03811161014d5761027f90600436918401016106a0565b9060a0860191825260c48101356001600160401b03811161014d578101903660238301121561014d5760048201356102b681610689565b926102c46040519485610654565b818452602060048186019360051b830101019036821161014d57602401915b8183106105ac5750505060c0870191825260e481013590811515820361014d5760e0880191825261010401359160ff8316830361014d5761010088019283526024356001600160401b03811161014d57610344909895983690600401610729565b938851519761036b6103558a610689565b996103636040519b8c610654565b808b52610689565b60208a0190601f190136823760208701975f5b8c51805182101561056857908e8989898f9589868080808f958d600160a01b600190039051169c600160a01b600190039051169a600160a01b60019003905116946103c89161078f565b519451906103d59161078f565b516001600160801b03169451906103eb9161078f565b516001600160801b03169451906104019161078f565b5161ffff1694511515955160ff16966040519961041d8b610608565b8a5260208a019081526040808b0192835260608b0193845260808b0194855260a08b0195865260c08b0196875260e08b019788526101008b019889525163abfebfd160e01b815299516001600160a01b0390811660048c01529051811660248b01529051166044890152516064880152516001600160801b03908116608488015290511660a48601525161ffff1660c485015251151560e48401525160ff16610104830152610140610124830152895161014483018190528290808d61016484015e808201610164015f9052601f1990601f011681010361016401823091815a93602094fa801561055d578d925f91610525575b5061051e8260019461078f565b520161037e565b9250506020823d8211610555575b8161054060209383610654565b8101031261014d5790518c919061051e610511565b3d9150610533565b6040513d5f823e3d90fd5b838d604051918291602083019060208452518091526040830191905f5b818110610593575050500390f35b8251845285945060209384019390920191600101610585565b823561ffff8116810361014d578152602092830192016102e3565b8135815260209182019101610220565b3461014d57602036600319011261014d576004359061ffff8216820361014d5761060260209261076f565b15158152f35b61012081019081106001600160401b0382111761062457604052565b634e487b7160e01b5f52604160045260245ffd5b61020081019081106001600160401b0382111761062457604052565b90601f801991011681019081106001600160401b0382111761062457604052565b35906001600160a01b038216820361014d57565b6001600160401b0381116106245760051b60200190565b9080601f8301121561014d578135906106b882610689565b926106c66040519485610654565b82845260208085019360051b82010191821161014d57602001915b8183106106ee5750505090565b82356001600160801b038116810361014d578152602092830192016106e1565b6001600160401b03811161062457601f01601f191660200190565b81601f8201121561014d578035906107408261070e565b9261074e6040519485610654565b8284526020838301011161014d57815f926020809301838601378301015290565b63ffffffff61077d82610ff4565b161561078a576080161590565b505f90565b80518210156107a35760209160051b010190565b634e487b7160e01b5f52603260045260245ffd5b81601f8201121561014d578051906107ce8261070e565b926107dc6040519485610654565b8284526020838301011161014d57815f9260208093018386015e8301015290565b519060ff8216820361014d57565b51906001600160801b038216820361014d57565b519061ffff8216820361014d57565b9190820180921161083b57565b634e487b7160e01b5f52601160045260245ffd5b5f19811461083b5760010190565b8115610867570490565b634e487b7160e01b5f52601260045260245ffd5b8181029291811591840414171561083b57565b90633b9aca00820291808305633b9aca00149015171561083b57565b81810292915f8212600160ff1b82141661083b57818405149015171561083b57565b811561086757600160ff1b81145f1983141661083b570590565b81810392915f13801582851316918412161761083b57565b9190820391821161083b57565b908051810160a0826020830192031261014d5760208201516001600160401b03811161014d57816020610940928501016107b7565b5060408201516001600160401b03811161014d57816020610963928501016107b7565b5060608201516001600160401b03811161014d57816020610986928501016107b7565b5060808201516001600160401b03811161014d578160206109a9928501016107b7565b5060a0820151916001600160401b03831161014d576109cb92016020016107b7565b80518015610fed5781610100918101031261014d576109ec602082016107fd565b6109f86040830161080b565b91610a056060820161080b565b91610a126080830161080b565b93610a1f60a0840161080b565b60c08401516001600160401b0381160361014d57610a4c610100610a4560e0870161081f565b950161081f565b955f955f9360018616151580610fdb575b610fc6575b5060028516151580610fb4575b610f8e575b5060048416151580610f7c575b610f56575b5060088316151580610f44575b610f20575b508015610f1657610ab36001600160801b039160049561085d565b169160e0860191825115155f14610f025786516020906001600160a01b03165b60405163313ce56760e01b815296879182906001600160a01b03165afa93841561055d575f94610ec6575b83516004965015610eb3576020888101516001600160a01b03165b60405163313ce56760e01b815297889182906001600160a01b03165afa95861561055d575f96610e77575b5060c08801519661ffff881693610b8f61ffff600f8b1692610b6588610ff4565b96610b708886611024565b955f9160208116151580610e6c575b15610e3f575050505b168061087b565b90600a820291808304600a149015171561083b5763ffffffff610c5482604051610bb881610638565b61c3508152620186a060208201526203d09060408201526207a1206060820152620b71b06080820152620f424060a08201526216e36060c0820152621e848060e0820152622dc6c0610100820152624c4b40610120820152627270e06101408201526298968061016082015262e4e1c06101808201526301312d006101a08201526301c9c3806101c08201526302faf0806101e0820152611502565b5116946080610c6382846115d6565b9b1615610dd757610c7860039160ff936115d6565b965b60041c161660018103610dc3575060015b610c948461105b565b60808c01516001600160801b03169160a08d01516001600160801b03169c6060019c8d518a51151591610cc6956112e0565b9163ffffffff1690610cd79161087b565b633b9aca009004633b9aca009004610cee916108aa565b610cf890826108aa565b633b9aca009005610d08916108e6565b6001600160801b03169563ffffffff16610d21916108e6565b9063ffffffff1690818101918212905f1390801582169115161761083b575f8112610dbc575b63ffffffff169384633b9aca0003633b9aca00811161083b57610d726001600160801b0391836110d9565b1694633b9aca00019081633b9aca001161083b576001600160801b0391610d98916110d9565b915191169015610db05750610dad93516114c7565b90565b9250610dad9351611480565b505f610d47565b600203610dd1576002610c8b565b5f610c8b565b50508063ffffffff831680158015610e37575b15610dfc57505060ff60035f96610c7a565b633b9aca0091610e0b9161087b565b04620186a0810290808204620186a0149015171561083b57600363ffffffff60ff9260011c1696610c7a565b508115610dea565b60409192935016151580610e61575b610e59575b50610b88565b90505f610e53565b508281161515610e4e565b508484161515610b7f565b9095506020813d602011610eab575b81610e9360209383610654565b8101031261014d57610ea4906107fd565b945f610b44565b3d9150610e86565b87516020906001600160a01b0316610b19565b93506020853d602011610efa575b81610ee160209383610654565b8101031261014d57610ef46004956107fd565b93610afe565b3d9150610ed4565b6020878101516001600160a01b0316610ad3565b5050505050505f90565b610f3e91946001600160801b03610f3892169061082e565b9361084f565b5f610a98565b506001600160801b0381161515610a93565b610f759192956001600160801b03610f6f92169061082e565b9461084f565b905f610a86565b506001600160801b0381161515610a81565b610fad9193966001600160801b03610fa792169061082e565b9561084f565b915f610a74565b506001600160801b0381161515610a6f565b6001600160801b03169650600193505f610a62565b506001600160801b0381161515610a5d565b5050505f90565b610100811661078a57600481901c6003161561078a5760061c60011661101c57631dcd650090565b633b9aca0090565b9063ffffffff16801561105557611050633b9aca009163ffffffff6110498195611513565b169061087b565b041690565b50505f90565b5f19633b9aca008209633b9aca008202918280831092039180830392146110d15781600160401b11156110a657633b9aca00600160401b910990828211900360c01b910360401c1790565b60405162461bcd60e51b815260206004820152600360248201526213d19360ea1b6044820152606490fd5b505060401c90565b5f198282098282029182808310920391808303921461113a5781633b9aca0011156110a6577f88f2cfb83100cb4e69e7c79c58b316e597157d372fb9787e8e47ce423a2e9c6d93633b9aca00910990828211900360f71b910360091c170290565b5050633b9aca0091500490565b5f19600160401b8209918160401b918280851094039380850394146111c957838211156110a657600160401b829109600182190182168092046002816003021880820260020302808202600203028082026002030280820260020302808202600203028091026002030293600183805f03040190848311900302920304170290565b50809250156111d6570490565b606460405162461bcd60e51b81526020600482015260046024820152630444956360e41b6044820152fd5b5f1982820990828102928380841093039280840393146112405782600160401b11156110a657600160401b910990828211900360c01b910360401c1790565b50505060401c90565b915f1982840992828102928380861095039480860395146112c257848311156110a657829109600182190182168092046002816003021880820260020302808202600203028082026002030280820260020302808202600203028091026002030293600183805f03040190848311900302920304170290565b5050809250156111d6570490565b600160ff1b811461083b575f0390565b909492919394633b9aca00810290808204633b9aca00149015171561083b57836113099161085d565b9115611410578381111561140157633b9aca006113308461132a87856108fe565b9661087b565b0492633b9aca00840293808504633b9aca00149015171561083b578580936113676113616113679461136d9861085d565b8261082e565b93611646565b9160038110156113ed576113df5761139591905f81126113d057905b5f81126113c2576108e6565b633b9aca0081136113b957633b9ac9ff1981126113af5790565b50633b9ac9ff1990565b50633b9aca0090565b6113cb906112d0565b6108e6565b6113d9906112d0565b90611389565b6113e8916108e6565b611395565b634e487b7160e01b5f52602160045260245ffd5b633b9aca00611330845f61132a565b92633b9aca00819392930290808204633b9aca00149015171561083b576113678561136d9461146561145f8661144785988861085d565b8085111561146b5761145990856108fe565b9661085d565b8861082e565b96611646565b505f611459565b604d811161083b57600a0a90565b9092919281156114bf57610dad936001600160801b03926114b160ff6114aa816114b79616611472565b9316611472565b90611249565b911690611147565b505050505f90565b929083156114bf57610dad936001600160801b036114f560ff6114ee816114fd9616611472565b9616611472565b931690611201565b611249565b9060108110156107a35760051b0190565b6115d163ffffffff9160ff6040519161152b83610638565b63773594008352633b9aca0060208401526317d784006040840152630bebc20060608401526307f2815560808401526305f5e10060a08401526303f940ab60c08401526302faf08060e08401526301fca0556101008401526301312d0061012084015262cb7355610140840152629896806101608401526265b9ab610180840152624c4b406101a08401526232dcd56101c0840152621e84806101e08401521690611502565b511690565b9063ffffffff81161561105557633b9aca0061160463ffffffff610b886115fe829587611024565b95611513565b04911690620186a0820291808304620186a0149015171561083b576001600160ff1b038116810361083b5763ffffffff916116429160011b9061085d565b1690565b9190611652818461082e565b9182156114bf5760038110156113ed57806116a25750508160011b918083056002149015171561083b5761168861168d9261088e565b6108cc565b633b9ac9ff19810190811360011661083b5790565b6001036116b65750611688610dad9261088e565b610dad92506116889061088e56fea2646970667358221220d2a645c835143dd5f913c4fb891e0948c9f5edbb27d32934ab06c5190a199d5164736f6c634300081e0033","opcodes":"PUSH1 0x80 DUP1 PUSH1 0x40 MSTORE CALLVALUE PUSH1 0x15 JUMPI PUSH2 0x16FA SWAP1 DUP2 PUSH2 0x1A DUP3 CODECOPY RETURN JUMPDEST PUSH0 DUP1 REVERT INVALID PUSH1 0x80 DUP1 PUSH1 0x40 MSTORE PUSH1 0x4 CALLDATASIZE LT ISZERO PUSH2 0x12 JUMPI PUSH0 DUP1 REVERT JUMPDEST PUSH0 CALLDATALOAD PUSH1 0xE0 SHR SWAP1 DUP2 PUSH4 0x6F96A0A3 EQ PUSH2 0x5D7 JUMPI POP DUP1 PUSH4 0x72E07279 EQ PUSH2 0x151 JUMPI PUSH4 0xABFEBFD1 EQ PUSH2 0x3D JUMPI PUSH0 DUP1 REVERT JUMPDEST CALLVALUE PUSH2 0x14D JUMPI CALLDATASIZE PUSH1 0x3 NOT ADD PUSH2 0x140 DUP2 SLT PUSH2 0x14D JUMPI PUSH2 0x120 SGT PUSH2 0x14D JUMPI PUSH1 0x40 MLOAD PUSH2 0x64 DUP2 PUSH2 0x608 JUMP JUMPDEST PUSH1 0x4 CALLDATALOAD PUSH1 0x1 PUSH1 0x1 PUSH1 0xA0 SHL SUB DUP2 AND DUP2 SUB PUSH2 0x14D JUMPI DUP2 MSTORE PUSH1 0x24 CALLDATALOAD PUSH1 0x1 PUSH1 0x1 PUSH1 0xA0 SHL SUB DUP2 AND DUP2 SUB PUSH2 0x14D JUMPI PUSH1 0x20 DUP3 ADD MSTORE PUSH1 0x44 CALLDATALOAD PUSH1 0x1 PUSH1 0x1 PUSH1 0xA0 SHL SUB DUP2 AND DUP2 SUB PUSH2 0x14D JUMPI PUSH1 0x40 DUP3 ADD MSTORE PUSH1 0x64 CALLDATALOAD PUSH1 0x60 DUP3 ADD MSTORE PUSH1 0x84 CALLDATALOAD PUSH1 0x1 PUSH1 0x1 PUSH1 0x80 SHL SUB DUP2 AND DUP2 SUB PUSH2 0x14D JUMPI PUSH1 0x80 DUP3 ADD MSTORE PUSH1 0xA4 CALLDATALOAD PUSH1 0x1 PUSH1 0x1 PUSH1 0x80 SHL SUB DUP2 AND DUP2 SUB PUSH2 0x14D JUMPI PUSH1 0xA0 DUP3 ADD MSTORE PUSH1 0xC4 CALLDATALOAD PUSH2 0xFFFF DUP2 AND DUP2 SUB PUSH2 0x14D JUMPI PUSH1 0xC0 DUP3 ADD MSTORE PUSH1 0xE4 CALLDATALOAD DUP1 ISZERO ISZERO DUP2 SUB PUSH2 0x14D JUMPI PUSH1 0xE0 DUP3 ADD MSTORE PUSH2 0x104 CALLDATALOAD PUSH1 0xFF DUP2 AND DUP2 SUB PUSH2 0x14D JUMPI PUSH2 0x100 DUP3 ADD MSTORE PUSH2 0x124 CALLDATALOAD PUSH1 0x1 PUSH1 0x1 PUSH1 0x40 SHL SUB DUP2 GT PUSH2 0x14D JUMPI PUSH1 0x20 SWAP2 PUSH2 0x13F PUSH2 0x145 SWAP3 CALLDATASIZE SWAP1 PUSH1 0x4 ADD PUSH2 0x729 JUMP JUMPDEST SWAP1 PUSH2 0x90B JUMP JUMPDEST PUSH1 0x40 MLOAD SWAP1 DUP2 MSTORE RETURN JUMPDEST PUSH0 DUP1 REVERT JUMPDEST CALLVALUE PUSH2 0x14D JUMPI PUSH1 0x40 CALLDATASIZE PUSH1 0x3 NOT ADD SLT PUSH2 0x14D JUMPI PUSH1 0x4 CALLDATALOAD PUSH1 0x1 PUSH1 0x1 PUSH1 0x40 SHL SUB DUP2 GT PUSH2 0x14D JUMPI PUSH2 0x120 PUSH1 0x3 NOT DUP3 CALLDATASIZE SUB ADD SLT PUSH2 0x14D JUMPI PUSH1 0x40 MLOAD PUSH2 0x18E DUP2 PUSH2 0x608 JUMP JUMPDEST PUSH2 0x19A DUP3 PUSH1 0x4 ADD PUSH2 0x675 JUMP JUMPDEST DUP2 MSTORE PUSH2 0x1A8 PUSH1 0x24 DUP4 ADD PUSH2 0x675 JUMP JUMPDEST SWAP2 PUSH1 0x20 DUP3 ADD SWAP3 DUP4 MSTORE PUSH2 0x1BC PUSH1 0x44 DUP3 ADD PUSH2 0x675 JUMP JUMPDEST SWAP3 PUSH1 0x40 DUP4 ADD SWAP4 DUP5 MSTORE PUSH1 0x64 DUP3 ADD CALLDATALOAD PUSH1 0x1 PUSH1 0x1 PUSH1 0x40 SHL SUB DUP2 GT PUSH2 0x14D JUMPI DUP3 ADD CALLDATASIZE PUSH1 0x23 DUP3 ADD SLT ISZERO PUSH2 0x14D JUMPI PUSH1 0x4 DUP2 ADD CALLDATALOAD SWAP1 PUSH2 0x1F3 DUP3 PUSH2 0x689 JUMP JUMPDEST SWAP2 PUSH2 0x201 PUSH1 0x40 MLOAD SWAP4 DUP5 PUSH2 0x654 JUMP JUMPDEST DUP1 DUP4 MSTORE PUSH1 0x20 PUSH1 0x4 DUP2 DUP6 ADD SWAP3 PUSH1 0x5 SHL DUP5 ADD ADD ADD SWAP2 CALLDATASIZE DUP4 GT PUSH2 0x14D JUMPI PUSH1 0x24 ADD SWAP1 JUMPDEST DUP3 DUP3 LT PUSH2 0x5C7 JUMPI POP POP POP PUSH1 0x60 DUP5 ADD SWAP1 DUP2 MSTORE PUSH1 0x84 DUP4 ADD CALLDATALOAD PUSH1 0x1 PUSH1 0x1 PUSH1 0x40 SHL SUB DUP2 GT PUSH2 0x14D JUMPI PUSH2 0x254 SWAP1 PUSH1 0x4 CALLDATASIZE SWAP2 DUP7 ADD ADD PUSH2 0x6A0 JUMP JUMPDEST SWAP3 PUSH1 0x80 DUP6 ADD SWAP4 DUP5 MSTORE PUSH1 0xA4 DUP2 ADD CALLDATALOAD PUSH1 0x1 PUSH1 0x1 PUSH1 0x40 SHL SUB DUP2 GT PUSH2 0x14D JUMPI PUSH2 0x27F SWAP1 PUSH1 0x4 CALLDATASIZE SWAP2 DUP5 ADD ADD PUSH2 0x6A0 JUMP JUMPDEST SWAP1 PUSH1 0xA0 DUP7 ADD SWAP2 DUP3 MSTORE PUSH1 0xC4 DUP2 ADD CALLDATALOAD PUSH1 0x1 PUSH1 0x1 PUSH1 0x40 SHL SUB DUP2 GT PUSH2 0x14D JUMPI DUP2 ADD SWAP1 CALLDATASIZE PUSH1 0x23 DUP4 ADD SLT ISZERO PUSH2 0x14D JUMPI PUSH1 0x4 DUP3 ADD CALLDATALOAD PUSH2 0x2B6 DUP2 PUSH2 0x689 JUMP JUMPDEST SWAP3 PUSH2 0x2C4 PUSH1 0x40 MLOAD SWAP5 DUP6 PUSH2 0x654 JUMP JUMPDEST DUP2 DUP5 MSTORE PUSH1 0x20 PUSH1 0x4 DUP2 DUP7 ADD SWAP4 PUSH1 0x5 SHL DUP4 ADD ADD ADD SWAP1 CALLDATASIZE DUP3 GT PUSH2 0x14D JUMPI PUSH1 0x24 ADD SWAP2 JUMPDEST DUP2 DUP4 LT PUSH2 0x5AC JUMPI POP POP POP PUSH1 0xC0 DUP8 ADD SWAP2 DUP3 MSTORE PUSH1 0xE4 DUP2 ADD CALLDATALOAD SWAP1 DUP2 ISZERO ISZERO DUP3 SUB PUSH2 0x14D JUMPI PUSH1 0xE0 DUP9 ADD SWAP2 DUP3 MSTORE PUSH2 0x104 ADD CALLDATALOAD SWAP2 PUSH1 0xFF DUP4 AND DUP4 SUB PUSH2 0x14D JUMPI PUSH2 0x100 DUP9 ADD SWAP3 DUP4 MSTORE PUSH1 0x24 CALLDATALOAD PUSH1 0x1 PUSH1 0x1 PUSH1 0x40 SHL SUB DUP2 GT PUSH2 0x14D JUMPI PUSH2 0x344 SWAP1 SWAP9 SWAP6 SWAP9 CALLDATASIZE SWAP1 PUSH1 0x4 ADD PUSH2 0x729 JUMP JUMPDEST SWAP4 DUP9 MLOAD MLOAD SWAP8 PUSH2 0x36B PUSH2 0x355 DUP11 PUSH2 0x689 JUMP JUMPDEST SWAP10 PUSH2 0x363 PUSH1 0x40 MLOAD SWAP12 DUP13 PUSH2 0x654 JUMP JUMPDEST DUP1 DUP12 MSTORE PUSH2 0x689 JUMP JUMPDEST PUSH1 0x20 DUP11 ADD SWAP1 PUSH1 0x1F NOT ADD CALLDATASIZE DUP3 CALLDATACOPY PUSH1 0x20 DUP8 ADD SWAP8 PUSH0 JUMPDEST DUP13 MLOAD DUP1 MLOAD DUP3 LT ISZERO PUSH2 0x568 JUMPI SWAP1 DUP15 DUP10 DUP10 DUP10 DUP16 SWAP6 DUP10 DUP7 DUP1 DUP1 DUP1 DUP16 SWAP6 DUP14 PUSH1 0x1 PUSH1 0xA0 SHL PUSH1 0x1 SWAP1 SUB SWAP1 MLOAD AND SWAP13 PUSH1 0x1 PUSH1 0xA0 SHL PUSH1 0x1 SWAP1 SUB SWAP1 MLOAD AND SWAP11 PUSH1 0x1 PUSH1 0xA0 SHL PUSH1 0x1 SWAP1 SUB SWAP1 MLOAD AND SWAP5 PUSH2 0x3C8 SWAP2 PUSH2 0x78F JUMP JUMPDEST MLOAD SWAP5 MLOAD SWAP1 PUSH2 0x3D5 SWAP2 PUSH2 0x78F JUMP JUMPDEST MLOAD PUSH1 0x1 PUSH1 0x1 PUSH1 0x80 SHL SUB AND SWAP5 MLOAD SWAP1 PUSH2 0x3EB SWAP2 PUSH2 0x78F JUMP JUMPDEST MLOAD PUSH1 0x1 PUSH1 0x1 PUSH1 0x80 SHL SUB AND SWAP5 MLOAD SWAP1 PUSH2 0x401 SWAP2 PUSH2 0x78F JUMP JUMPDEST MLOAD PUSH2 0xFFFF AND SWAP5 MLOAD ISZERO ISZERO SWAP6 MLOAD PUSH1 0xFF AND SWAP7 PUSH1 0x40 MLOAD SWAP10 PUSH2 0x41D DUP12 PUSH2 0x608 JUMP JUMPDEST DUP11 MSTORE PUSH1 0x20 DUP11 ADD SWAP1 DUP2 MSTORE PUSH1 0x40 DUP1 DUP12 ADD SWAP3 DUP4 MSTORE PUSH1 0x60 DUP12 ADD SWAP4 DUP5 MSTORE PUSH1 0x80 DUP12 ADD SWAP5 DUP6 MSTORE PUSH1 0xA0 DUP12 ADD SWAP6 DUP7 MSTORE PUSH1 0xC0 DUP12 ADD SWAP7 DUP8 MSTORE PUSH1 0xE0 DUP12 ADD SWAP8 DUP9 MSTORE PUSH2 0x100 DUP12 ADD SWAP9 DUP10 MSTORE MLOAD PUSH4 0xABFEBFD1 PUSH1 0xE0 SHL DUP2 MSTORE SWAP10 MLOAD PUSH1 0x1 PUSH1 0x1 PUSH1 0xA0 SHL SUB SWAP1 DUP2 AND PUSH1 0x4 DUP13 ADD MSTORE SWAP1 MLOAD DUP2 AND PUSH1 0x24 DUP12 ADD MSTORE SWAP1 MLOAD AND PUSH1 0x44 DUP10 ADD MSTORE MLOAD PUSH1 0x64 DUP9 ADD MSTORE MLOAD PUSH1 0x1 PUSH1 0x1 PUSH1 0x80 SHL SUB SWAP1 DUP2 AND PUSH1 0x84 DUP9 ADD MSTORE SWAP1 MLOAD AND PUSH1 0xA4 DUP7 ADD MSTORE MLOAD PUSH2 0xFFFF AND PUSH1 0xC4 DUP6 ADD MSTORE MLOAD ISZERO ISZERO PUSH1 0xE4 DUP5 ADD MSTORE MLOAD PUSH1 0xFF AND PUSH2 0x104 DUP4 ADD MSTORE PUSH2 0x140 PUSH2 0x124 DUP4 ADD MSTORE DUP10 MLOAD PUSH2 0x144 DUP4 ADD DUP2 SWAP1 MSTORE DUP3 SWAP1 DUP1 DUP14 PUSH2 0x164 DUP5 ADD MCOPY DUP1 DUP3 ADD PUSH2 0x164 ADD PUSH0 SWAP1 MSTORE PUSH1 0x1F NOT SWAP1 PUSH1 0x1F ADD AND DUP2 ADD SUB PUSH2 0x164 ADD DUP3 ADDRESS SWAP2 DUP2 GAS SWAP4 PUSH1 0x20 SWAP5 STATICCALL DUP1 ISZERO PUSH2 0x55D JUMPI DUP14 SWAP3 PUSH0 SWAP2 PUSH2 0x525 JUMPI JUMPDEST POP PUSH2 0x51E DUP3 PUSH1 0x1 SWAP5 PUSH2 0x78F JUMP JUMPDEST MSTORE ADD PUSH2 0x37E JUMP JUMPDEST SWAP3 POP POP PUSH1 0x20 DUP3 RETURNDATASIZE DUP3 GT PUSH2 0x555 JUMPI JUMPDEST DUP2 PUSH2 0x540 PUSH1 0x20 SWAP4 DUP4 PUSH2 0x654 JUMP JUMPDEST DUP2 ADD SUB SLT PUSH2 0x14D JUMPI SWAP1 MLOAD DUP13 SWAP2 SWAP1 PUSH2 0x51E PUSH2 0x511 JUMP JUMPDEST RETURNDATASIZE SWAP2 POP PUSH2 0x533 JUMP JUMPDEST PUSH1 0x40 MLOAD RETURNDATASIZE PUSH0 DUP3 RETURNDATACOPY RETURNDATASIZE SWAP1 REVERT JUMPDEST DUP4 DUP14 PUSH1 0x40 MLOAD SWAP2 DUP3 SWAP2 PUSH1 0x20 DUP4 ADD SWAP1 PUSH1 0x20 DUP5 MSTORE MLOAD DUP1 SWAP2 MSTORE PUSH1 0x40 DUP4 ADD SWAP2 SWAP1 PUSH0 JUMPDEST DUP2 DUP2 LT PUSH2 0x593 JUMPI POP POP POP SUB SWAP1 RETURN JUMPDEST DUP3 MLOAD DUP5 MSTORE DUP6 SWAP5 POP PUSH1 0x20 SWAP4 DUP5 ADD SWAP4 SWAP1 SWAP3 ADD SWAP2 PUSH1 0x1 ADD PUSH2 0x585 JUMP JUMPDEST DUP3 CALLDATALOAD PUSH2 0xFFFF DUP2 AND DUP2 SUB PUSH2 0x14D JUMPI DUP2 MSTORE PUSH1 0x20 SWAP3 DUP4 ADD SWAP3 ADD PUSH2 0x2E3 JUMP JUMPDEST DUP2 CALLDATALOAD DUP2 MSTORE PUSH1 0x20 SWAP2 DUP3 ADD SWAP2 ADD PUSH2 0x220 JUMP JUMPDEST CALLVALUE PUSH2 0x14D JUMPI PUSH1 0x20 CALLDATASIZE PUSH1 0x3 NOT ADD SLT PUSH2 0x14D JUMPI PUSH1 0x4 CALLDATALOAD SWAP1 PUSH2 0xFFFF DUP3 AND DUP3 SUB PUSH2 0x14D JUMPI PUSH2 0x602 PUSH1 0x20 SWAP3 PUSH2 0x76F JUMP JUMPDEST ISZERO ISZERO DUP2 MSTORE RETURN JUMPDEST PUSH2 0x120 DUP2 ADD SWAP1 DUP2 LT PUSH1 0x1 PUSH1 0x1 PUSH1 0x40 SHL SUB DUP3 GT OR PUSH2 0x624 JUMPI PUSH1 0x40 MSTORE JUMP JUMPDEST PUSH4 0x4E487B71 PUSH1 0xE0 SHL PUSH0 MSTORE PUSH1 0x41 PUSH1 0x4 MSTORE PUSH1 0x24 PUSH0 REVERT JUMPDEST PUSH2 0x200 DUP2 ADD SWAP1 DUP2 LT PUSH1 0x1 PUSH1 0x1 PUSH1 0x40 SHL SUB DUP3 GT OR PUSH2 0x624 JUMPI PUSH1 0x40 MSTORE JUMP JUMPDEST SWAP1 PUSH1 0x1F DUP1 NOT SWAP2 ADD AND DUP2 ADD SWAP1 DUP2 LT PUSH1 0x1 PUSH1 0x1 PUSH1 0x40 SHL SUB DUP3 GT OR PUSH2 0x624 JUMPI PUSH1 0x40 MSTORE JUMP JUMPDEST CALLDATALOAD SWAP1 PUSH1 0x1 PUSH1 0x1 PUSH1 0xA0 SHL SUB DUP3 AND DUP3 SUB PUSH2 0x14D JUMPI JUMP JUMPDEST PUSH1 0x1 PUSH1 0x1 PUSH1 0x40 SHL SUB DUP2 GT PUSH2 0x624 JUMPI PUSH1 0x5 SHL PUSH1 0x20 ADD SWAP1 JUMP JUMPDEST SWAP1 DUP1 PUSH1 0x1F DUP4 ADD SLT ISZERO PUSH2 0x14D JUMPI DUP2 CALLDATALOAD SWAP1 PUSH2 0x6B8 DUP3 PUSH2 0x689 JUMP JUMPDEST SWAP3 PUSH2 0x6C6 PUSH1 0x40 MLOAD SWAP5 DUP6 PUSH2 0x654 JUMP JUMPDEST DUP3 DUP5 MSTORE PUSH1 0x20 DUP1 DUP6 ADD SWAP4 PUSH1 0x5 SHL DUP3 ADD ADD SWAP2 DUP3 GT PUSH2 0x14D JUMPI PUSH1 0x20 ADD SWAP2 JUMPDEST DUP2 DUP4 LT PUSH2 0x6EE JUMPI POP POP POP SWAP1 JUMP JUMPDEST DUP3 CALLDATALOAD PUSH1 0x1 PUSH1 0x1 PUSH1 0x80 SHL SUB DUP2 AND DUP2 SUB PUSH2 0x14D JUMPI DUP2 MSTORE PUSH1 0x20 SWAP3 DUP4 ADD SWAP3 ADD PUSH2 0x6E1 JUMP JUMPDEST PUSH1 0x1 PUSH1 0x1 PUSH1 0x40 SHL SUB DUP2 GT PUSH2 0x624 JUMPI PUSH1 0x1F ADD PUSH1 0x1F NOT AND PUSH1 0x20 ADD SWAP1 JUMP JUMPDEST DUP2 PUSH1 0x1F DUP3 ADD SLT ISZERO PUSH2 0x14D JUMPI DUP1 CALLDATALOAD SWAP1 PUSH2 0x740 DUP3 PUSH2 0x70E JUMP JUMPDEST SWAP3 PUSH2 0x74E PUSH1 0x40 MLOAD SWAP5 DUP6 PUSH2 0x654 JUMP JUMPDEST DUP3 DUP5 MSTORE PUSH1 0x20 DUP4 DUP4 ADD ADD GT PUSH2 0x14D JUMPI DUP2 PUSH0 SWAP3 PUSH1 0x20 DUP1 SWAP4 ADD DUP4 DUP7 ADD CALLDATACOPY DUP4 ADD ADD MSTORE SWAP1 JUMP JUMPDEST PUSH4 0xFFFFFFFF PUSH2 0x77D DUP3 PUSH2 0xFF4 JUMP JUMPDEST AND ISZERO PUSH2 0x78A JUMPI PUSH1 0x80 AND ISZERO SWAP1 JUMP JUMPDEST POP PUSH0 SWAP1 JUMP JUMPDEST DUP1 MLOAD DUP3 LT ISZERO PUSH2 0x7A3 JUMPI PUSH1 0x20 SWAP2 PUSH1 0x5 SHL ADD ADD SWAP1 JUMP JUMPDEST PUSH4 0x4E487B71 PUSH1 0xE0 SHL PUSH0 MSTORE PUSH1 0x32 PUSH1 0x4 MSTORE PUSH1 0x24 PUSH0 REVERT JUMPDEST DUP2 PUSH1 0x1F DUP3 ADD SLT ISZERO PUSH2 0x14D JUMPI DUP1 MLOAD SWAP1 PUSH2 0x7CE DUP3 PUSH2 0x70E JUMP JUMPDEST SWAP3 PUSH2 0x7DC PUSH1 0x40 MLOAD SWAP5 DUP6 PUSH2 0x654 JUMP JUMPDEST DUP3 DUP5 MSTORE PUSH1 0x20 DUP4 DUP4 ADD ADD GT PUSH2 0x14D JUMPI DUP2 PUSH0 SWAP3 PUSH1 0x20 DUP1 SWAP4 ADD DUP4 DUP7 ADD MCOPY DUP4 ADD ADD MSTORE SWAP1 JUMP JUMPDEST MLOAD SWAP1 PUSH1 0xFF DUP3 AND DUP3 SUB PUSH2 0x14D JUMPI JUMP JUMPDEST MLOAD SWAP1 PUSH1 0x1 PUSH1 0x1 PUSH1 0x80 SHL SUB DUP3 AND DUP3 SUB PUSH2 0x14D JUMPI JUMP JUMPDEST MLOAD SWAP1 PUSH2 0xFFFF DUP3 AND DUP3 SUB PUSH2 0x14D JUMPI JUMP JUMPDEST SWAP2 SWAP1 DUP3 ADD DUP1 SWAP3 GT PUSH2 0x83B JUMPI JUMP JUMPDEST PUSH4 0x4E487B71 PUSH1 0xE0 SHL PUSH0 MSTORE PUSH1 0x11 PUSH1 0x4 MSTORE PUSH1 0x24 PUSH0 REVERT JUMPDEST PUSH0 NOT DUP2 EQ PUSH2 0x83B JUMPI PUSH1 0x1 ADD SWAP1 JUMP JUMPDEST DUP2 ISZERO PUSH2 0x867 JUMPI DIV SWAP1 JUMP JUMPDEST PUSH4 0x4E487B71 PUSH1 0xE0 SHL PUSH0 MSTORE PUSH1 0x12 PUSH1 0x4 MSTORE PUSH1 0x24 PUSH0 REVERT JUMPDEST DUP2 DUP2 MUL SWAP3 SWAP2 DUP2 ISZERO SWAP2 DUP5 DIV EQ OR ISZERO PUSH2 0x83B JUMPI JUMP JUMPDEST SWAP1 PUSH4 0x3B9ACA00 DUP3 MUL SWAP2 DUP1 DUP4 SDIV PUSH4 0x3B9ACA00 EQ SWAP1 ISZERO OR ISZERO PUSH2 0x83B JUMPI JUMP JUMPDEST DUP2 DUP2 MUL SWAP3 SWAP2 PUSH0 DUP3 SLT PUSH1 0x1 PUSH1 0xFF SHL DUP3 EQ AND PUSH2 0x83B JUMPI DUP2 DUP5 SDIV EQ SWAP1 ISZERO OR ISZERO PUSH2 0x83B JUMPI JUMP JUMPDEST DUP2 ISZERO PUSH2 0x867 JUMPI PUSH1 0x1 PUSH1 0xFF SHL DUP2 EQ PUSH0 NOT DUP4 EQ AND PUSH2 0x83B JUMPI SDIV SWAP1 JUMP JUMPDEST DUP2 DUP2 SUB SWAP3 SWAP2 PUSH0 SGT DUP1 ISZERO DUP3 DUP6 SGT AND SWAP2 DUP5 SLT AND OR PUSH2 0x83B JUMPI JUMP JUMPDEST SWAP2 SWAP1 DUP3 SUB SWAP2 DUP3 GT PUSH2 0x83B JUMPI JUMP JUMPDEST SWAP1 DUP1 MLOAD DUP2 ADD PUSH1 0xA0 DUP3 PUSH1 0x20 DUP4 ADD SWAP3 SUB SLT PUSH2 0x14D JUMPI PUSH1 0x20 DUP3 ADD MLOAD PUSH1 0x1 PUSH1 0x1 PUSH1 0x40 SHL SUB DUP2 GT PUSH2 0x14D JUMPI DUP2 PUSH1 0x20 PUSH2 0x940 SWAP3 DUP6 ADD ADD PUSH2 0x7B7 JUMP JUMPDEST POP PUSH1 0x40 DUP3 ADD MLOAD PUSH1 0x1 PUSH1 0x1 PUSH1 0x40 SHL SUB DUP2 GT PUSH2 0x14D JUMPI DUP2 PUSH1 0x20 PUSH2 0x963 SWAP3 DUP6 ADD ADD PUSH2 0x7B7 JUMP JUMPDEST POP PUSH1 0x60 DUP3 ADD MLOAD PUSH1 0x1 PUSH1 0x1 PUSH1 0x40 SHL SUB DUP2 GT PUSH2 0x14D JUMPI DUP2 PUSH1 0x20 PUSH2 0x986 SWAP3 DUP6 ADD ADD PUSH2 0x7B7 JUMP JUMPDEST POP PUSH1 0x80 DUP3 ADD MLOAD PUSH1 0x1 PUSH1 0x1 PUSH1 0x40 SHL SUB DUP2 GT PUSH2 0x14D JUMPI DUP2 PUSH1 0x20 PUSH2 0x9A9 SWAP3 DUP6 ADD ADD PUSH2 0x7B7 JUMP JUMPDEST POP PUSH1 0xA0 DUP3 ADD MLOAD SWAP2 PUSH1 0x1 PUSH1 0x1 PUSH1 0x40 SHL SUB DUP4 GT PUSH2 0x14D JUMPI PUSH2 0x9CB SWAP3 ADD PUSH1 0x20 ADD PUSH2 0x7B7 JUMP JUMPDEST DUP1 MLOAD DUP1 ISZERO PUSH2 0xFED JUMPI DUP2 PUSH2 0x100 SWAP2 DUP2 ADD SUB SLT PUSH2 0x14D JUMPI PUSH2 0x9EC PUSH1 0x20 DUP3 ADD PUSH2 0x7FD JUMP JUMPDEST PUSH2 0x9F8 PUSH1 0x40 DUP4 ADD PUSH2 0x80B JUMP JUMPDEST SWAP2 PUSH2 0xA05 PUSH1 0x60 DUP3 ADD PUSH2 0x80B JUMP JUMPDEST SWAP2 PUSH2 0xA12 PUSH1 0x80 DUP4 ADD PUSH2 0x80B JUMP JUMPDEST SWAP4 PUSH2 0xA1F PUSH1 0xA0 DUP5 ADD PUSH2 0x80B JUMP JUMPDEST PUSH1 0xC0 DUP5 ADD MLOAD PUSH1 0x1 PUSH1 0x1 PUSH1 0x40 SHL SUB DUP2 AND SUB PUSH2 0x14D JUMPI PUSH2 0xA4C PUSH2 0x100 PUSH2 0xA45 PUSH1 0xE0 DUP8 ADD PUSH2 0x81F JUMP JUMPDEST SWAP6 ADD PUSH2 0x81F JUMP JUMPDEST SWAP6 PUSH0 SWAP6 PUSH0 SWAP4 PUSH1 0x1 DUP7 AND ISZERO ISZERO DUP1 PUSH2 0xFDB JUMPI JUMPDEST PUSH2 0xFC6 JUMPI JUMPDEST POP PUSH1 0x2 DUP6 AND ISZERO ISZERO DUP1 PUSH2 0xFB4 JUMPI JUMPDEST PUSH2 0xF8E JUMPI JUMPDEST POP PUSH1 0x4 DUP5 AND ISZERO ISZERO DUP1 PUSH2 0xF7C JUMPI JUMPDEST PUSH2 0xF56 JUMPI JUMPDEST POP PUSH1 0x8 DUP4 AND ISZERO ISZERO DUP1 PUSH2 0xF44 JUMPI JUMPDEST PUSH2 0xF20 JUMPI JUMPDEST POP DUP1 ISZERO PUSH2 0xF16 JUMPI PUSH2 0xAB3 PUSH1 0x1 PUSH1 0x1 PUSH1 0x80 SHL SUB SWAP2 PUSH1 0x4 SWAP6 PUSH2 0x85D JUMP JUMPDEST AND SWAP2 PUSH1 0xE0 DUP7 ADD SWAP2 DUP3 MLOAD ISZERO ISZERO PUSH0 EQ PUSH2 0xF02 JUMPI DUP7 MLOAD PUSH1 0x20 SWAP1 PUSH1 0x1 PUSH1 0x1 PUSH1 0xA0 SHL SUB AND JUMPDEST PUSH1 0x40 MLOAD PUSH4 0x313CE567 PUSH1 0xE0 SHL DUP2 MSTORE SWAP7 DUP8 SWAP2 DUP3 SWAP1 PUSH1 0x1 PUSH1 0x1 PUSH1 0xA0 SHL SUB AND GAS STATICCALL SWAP4 DUP5 ISZERO PUSH2 0x55D JUMPI PUSH0 SWAP5 PUSH2 0xEC6 JUMPI JUMPDEST DUP4 MLOAD PUSH1 0x4 SWAP7 POP ISZERO PUSH2 0xEB3 JUMPI PUSH1 0x20 DUP9 DUP2 ADD MLOAD PUSH1 0x1 PUSH1 0x1 PUSH1 0xA0 SHL SUB AND JUMPDEST PUSH1 0x40 MLOAD PUSH4 0x313CE567 PUSH1 0xE0 SHL DUP2 MSTORE SWAP8 DUP9 SWAP2 DUP3 SWAP1 PUSH1 0x1 PUSH1 0x1 PUSH1 0xA0 SHL SUB AND GAS STATICCALL SWAP6 DUP7 ISZERO PUSH2 0x55D JUMPI PUSH0 SWAP7 PUSH2 0xE77 JUMPI JUMPDEST POP PUSH1 0xC0 DUP9 ADD MLOAD SWAP7 PUSH2 0xFFFF DUP9 AND SWAP4 PUSH2 0xB8F PUSH2 0xFFFF PUSH1 0xF DUP12 AND SWAP3 PUSH2 0xB65 DUP9 PUSH2 0xFF4 JUMP JUMPDEST SWAP7 PUSH2 0xB70 DUP9 DUP7 PUSH2 0x1024 JUMP JUMPDEST SWAP6 PUSH0 SWAP2 PUSH1 0x20 DUP2 AND ISZERO ISZERO DUP1 PUSH2 0xE6C JUMPI JUMPDEST ISZERO PUSH2 0xE3F JUMPI POP POP POP JUMPDEST AND DUP1 PUSH2 0x87B JUMP JUMPDEST SWAP1 PUSH1 0xA DUP3 MUL SWAP2 DUP1 DUP4 DIV PUSH1 0xA EQ SWAP1 ISZERO OR ISZERO PUSH2 0x83B JUMPI PUSH4 0xFFFFFFFF PUSH2 0xC54 DUP3 PUSH1 0x40 MLOAD PUSH2 0xBB8 DUP2 PUSH2 0x638 JUMP JUMPDEST PUSH2 0xC350 DUP2 MSTORE PUSH3 0x186A0 PUSH1 0x20 DUP3 ADD MSTORE PUSH3 0x3D090 PUSH1 0x40 DUP3 ADD MSTORE PUSH3 0x7A120 PUSH1 0x60 DUP3 ADD MSTORE PUSH3 0xB71B0 PUSH1 0x80 DUP3 ADD MSTORE PUSH3 0xF4240 PUSH1 0xA0 DUP3 ADD MSTORE PUSH3 0x16E360 PUSH1 0xC0 DUP3 ADD MSTORE PUSH3 0x1E8480 PUSH1 0xE0 DUP3 ADD MSTORE PUSH3 0x2DC6C0 PUSH2 0x100 DUP3 ADD MSTORE PUSH3 0x4C4B40 PUSH2 0x120 DUP3 ADD MSTORE PUSH3 0x7270E0 PUSH2 0x140 DUP3 ADD MSTORE PUSH3 0x989680 PUSH2 0x160 DUP3 ADD MSTORE PUSH3 0xE4E1C0 PUSH2 0x180 DUP3 ADD MSTORE PUSH4 0x1312D00 PUSH2 0x1A0 DUP3 ADD MSTORE PUSH4 0x1C9C380 PUSH2 0x1C0 DUP3 ADD MSTORE PUSH4 0x2FAF080 PUSH2 0x1E0 DUP3 ADD MSTORE PUSH2 0x1502 JUMP JUMPDEST MLOAD AND SWAP5 PUSH1 0x80 PUSH2 0xC63 DUP3 DUP5 PUSH2 0x15D6 JUMP JUMPDEST SWAP12 AND ISZERO PUSH2 0xDD7 JUMPI PUSH2 0xC78 PUSH1 0x3 SWAP2 PUSH1 0xFF SWAP4 PUSH2 0x15D6 JUMP JUMPDEST SWAP7 JUMPDEST PUSH1 0x4 SHR AND AND PUSH1 0x1 DUP2 SUB PUSH2 0xDC3 JUMPI POP PUSH1 0x1 JUMPDEST PUSH2 0xC94 DUP5 PUSH2 0x105B JUMP JUMPDEST PUSH1 0x80 DUP13 ADD MLOAD PUSH1 0x1 PUSH1 0x1 PUSH1 0x80 SHL SUB AND SWAP2 PUSH1 0xA0 DUP14 ADD MLOAD PUSH1 0x1 PUSH1 0x1 PUSH1 0x80 SHL SUB AND SWAP13 PUSH1 0x60 ADD SWAP13 DUP14 MLOAD DUP11 MLOAD ISZERO ISZERO SWAP2 PUSH2 0xCC6 SWAP6 PUSH2 0x12E0 JUMP JUMPDEST SWAP2 PUSH4 0xFFFFFFFF AND SWAP1 PUSH2 0xCD7 SWAP2 PUSH2 0x87B JUMP JUMPDEST PUSH4 0x3B9ACA00 SWAP1 DIV PUSH4 0x3B9ACA00 SWAP1 DIV PUSH2 0xCEE SWAP2 PUSH2 0x8AA JUMP JUMPDEST PUSH2 0xCF8 SWAP1 DUP3 PUSH2 0x8AA JUMP JUMPDEST PUSH4 0x3B9ACA00 SWAP1 SDIV PUSH2 0xD08 SWAP2 PUSH2 0x8E6 JUMP JUMPDEST PUSH1 0x1 PUSH1 0x1 PUSH1 0x80 SHL SUB AND SWAP6 PUSH4 0xFFFFFFFF AND PUSH2 0xD21 SWAP2 PUSH2 0x8E6 JUMP JUMPDEST SWAP1 PUSH4 0xFFFFFFFF AND SWAP1 DUP2 DUP2 ADD SWAP2 DUP3 SLT SWAP1 PUSH0 SGT SWAP1 DUP1 ISZERO DUP3 AND SWAP2 ISZERO AND OR PUSH2 0x83B JUMPI PUSH0 DUP2 SLT PUSH2 0xDBC JUMPI JUMPDEST PUSH4 0xFFFFFFFF AND SWAP4 DUP5 PUSH4 0x3B9ACA00 SUB PUSH4 0x3B9ACA00 DUP2 GT PUSH2 0x83B JUMPI PUSH2 0xD72 PUSH1 0x1 PUSH1 0x1 PUSH1 0x80 SHL SUB SWAP2 DUP4 PUSH2 0x10D9 JUMP JUMPDEST AND SWAP5 PUSH4 0x3B9ACA00 ADD SWAP1 DUP2 PUSH4 0x3B9ACA00 GT PUSH2 0x83B JUMPI PUSH1 0x1 PUSH1 0x1 PUSH1 0x80 SHL SUB SWAP2 PUSH2 0xD98 SWAP2 PUSH2 0x10D9 JUMP JUMPDEST SWAP2 MLOAD SWAP2 AND SWAP1 ISZERO PUSH2 0xDB0 JUMPI POP PUSH2 0xDAD SWAP4 MLOAD PUSH2 0x14C7 JUMP JUMPDEST SWAP1 JUMP JUMPDEST SWAP3 POP PUSH2 0xDAD SWAP4 MLOAD PUSH2 0x1480 JUMP JUMPDEST POP PUSH0 PUSH2 0xD47 JUMP JUMPDEST PUSH1 0x2 SUB PUSH2 0xDD1 JUMPI PUSH1 0x2 PUSH2 0xC8B JUMP JUMPDEST PUSH0 PUSH2 0xC8B JUMP JUMPDEST POP POP DUP1 PUSH4 0xFFFFFFFF DUP4 AND DUP1 ISZERO DUP1 ISZERO PUSH2 0xE37 JUMPI JUMPDEST ISZERO PUSH2 0xDFC JUMPI POP POP PUSH1 0xFF PUSH1 0x3 PUSH0 SWAP7 PUSH2 0xC7A JUMP JUMPDEST PUSH4 0x3B9ACA00 SWAP2 PUSH2 0xE0B SWAP2 PUSH2 0x87B JUMP JUMPDEST DIV PUSH3 0x186A0 DUP2 MUL SWAP1 DUP1 DUP3 DIV PUSH3 0x186A0 EQ SWAP1 ISZERO OR ISZERO PUSH2 0x83B JUMPI PUSH1 0x3 PUSH4 0xFFFFFFFF PUSH1 0xFF SWAP3 PUSH1 0x1 SHR AND SWAP7 PUSH2 0xC7A JUMP JUMPDEST POP DUP2 ISZERO PUSH2 0xDEA JUMP JUMPDEST PUSH1 0x40 SWAP2 SWAP3 SWAP4 POP AND ISZERO ISZERO DUP1 PUSH2 0xE61 JUMPI JUMPDEST PUSH2 0xE59 JUMPI JUMPDEST POP PUSH2 0xB88 JUMP JUMPDEST SWAP1 POP PUSH0 PUSH2 0xE53 JUMP JUMPDEST POP DUP3 DUP2 AND ISZERO ISZERO PUSH2 0xE4E JUMP JUMPDEST POP DUP5 DUP5 AND ISZERO ISZERO PUSH2 0xB7F JUMP JUMPDEST SWAP1 SWAP6 POP PUSH1 0x20 DUP2 RETURNDATASIZE PUSH1 0x20 GT PUSH2 0xEAB JUMPI JUMPDEST DUP2 PUSH2 0xE93 PUSH1 0x20 SWAP4 DUP4 PUSH2 0x654 JUMP JUMPDEST DUP2 ADD SUB SLT PUSH2 0x14D JUMPI PUSH2 0xEA4 SWAP1 PUSH2 0x7FD JUMP JUMPDEST SWAP5 PUSH0 PUSH2 0xB44 JUMP JUMPDEST RETURNDATASIZE SWAP2 POP PUSH2 0xE86 JUMP JUMPDEST DUP8 MLOAD PUSH1 0x20 SWAP1 PUSH1 0x1 PUSH1 0x1 PUSH1 0xA0 SHL SUB AND PUSH2 0xB19 JUMP JUMPDEST SWAP4 POP PUSH1 0x20 DUP6 RETURNDATASIZE PUSH1 0x20 GT PUSH2 0xEFA JUMPI JUMPDEST DUP2 PUSH2 0xEE1 PUSH1 0x20 SWAP4 DUP4 PUSH2 0x654 JUMP JUMPDEST DUP2 ADD SUB SLT PUSH2 0x14D JUMPI PUSH2 0xEF4 PUSH1 0x4 SWAP6 PUSH2 0x7FD JUMP JUMPDEST SWAP4 PUSH2 0xAFE JUMP JUMPDEST RETURNDATASIZE SWAP2 POP PUSH2 0xED4 JUMP JUMPDEST PUSH1 0x20 DUP8 DUP2 ADD MLOAD PUSH1 0x1 PUSH1 0x1 PUSH1 0xA0 SHL SUB AND PUSH2 0xAD3 JUMP JUMPDEST POP POP POP POP POP POP PUSH0 SWAP1 JUMP JUMPDEST PUSH2 0xF3E SWAP2 SWAP5 PUSH1 0x1 PUSH1 0x1 PUSH1 0x80 SHL SUB PUSH2 0xF38 SWAP3 AND SWAP1 PUSH2 0x82E JUMP JUMPDEST SWAP4 PUSH2 0x84F JUMP JUMPDEST PUSH0 PUSH2 0xA98 JUMP JUMPDEST POP PUSH1 0x1 PUSH1 0x1 PUSH1 0x80 SHL SUB DUP2 AND ISZERO ISZERO PUSH2 0xA93 JUMP JUMPDEST PUSH2 0xF75 SWAP2 SWAP3 SWAP6 PUSH1 0x1 PUSH1 0x1 PUSH1 0x80 SHL SUB PUSH2 0xF6F SWAP3 AND SWAP1 PUSH2 0x82E JUMP JUMPDEST SWAP5 PUSH2 0x84F JUMP JUMPDEST SWAP1 PUSH0 PUSH2 0xA86 JUMP JUMPDEST POP PUSH1 0x1 PUSH1 0x1 PUSH1 0x80 SHL SUB DUP2 AND ISZERO ISZERO PUSH2 0xA81 JUMP JUMPDEST PUSH2 0xFAD SWAP2 SWAP4 SWAP7 PUSH1 0x1 PUSH1 0x1 PUSH1 0x80 SHL SUB PUSH2 0xFA7 SWAP3 AND SWAP1 PUSH2 0x82E JUMP JUMPDEST SWAP6 PUSH2 0x84F JUMP JUMPDEST SWAP2 PUSH0 PUSH2 0xA74 JUMP JUMPDEST POP PUSH1 0x1 PUSH1 0x1 PUSH1 0x80 SHL SUB DUP2 AND ISZERO ISZERO PUSH2 0xA6F JUMP JUMPDEST PUSH1 0x1 PUSH1 0x1 PUSH1 0x80 SHL SUB AND SWAP7 POP PUSH1 0x1 SWAP4 POP PUSH0 PUSH2 0xA62 JUMP JUMPDEST POP PUSH1 0x1 PUSH1 0x1 PUSH1 0x80 SHL SUB DUP2 AND ISZERO ISZERO PUSH2 0xA5D JUMP JUMPDEST POP POP POP PUSH0 SWAP1 JUMP JUMPDEST PUSH2 0x100 DUP2 AND PUSH2 0x78A JUMPI PUSH1 0x4 DUP2 SWAP1 SHR PUSH1 0x3 AND ISZERO PUSH2 0x78A JUMPI PUSH1 0x6 SHR PUSH1 0x1 AND PUSH2 0x101C JUMPI PUSH4 0x1DCD6500 SWAP1 JUMP JUMPDEST PUSH4 0x3B9ACA00 SWAP1 JUMP JUMPDEST SWAP1 PUSH4 0xFFFFFFFF AND DUP1 ISZERO PUSH2 0x1055 JUMPI PUSH2 0x1050 PUSH4 0x3B9ACA00 SWAP2 PUSH4 0xFFFFFFFF PUSH2 0x1049 DUP2 SWAP6 PUSH2 0x1513 JUMP JUMPDEST AND SWAP1 PUSH2 0x87B JUMP JUMPDEST DIV AND SWAP1 JUMP JUMPDEST POP POP PUSH0 SWAP1 JUMP JUMPDEST PUSH0 NOT PUSH4 0x3B9ACA00 DUP3 MULMOD PUSH4 0x3B9ACA00 DUP3 MUL SWAP2 DUP3 DUP1 DUP4 LT SWAP3 SUB SWAP2 DUP1 DUP4 SUB SWAP3 EQ PUSH2 0x10D1 JUMPI DUP2 PUSH1 0x1 PUSH1 0x40 SHL GT ISZERO PUSH2 0x10A6 JUMPI PUSH4 0x3B9ACA00 PUSH1 0x1 PUSH1 0x40 SHL SWAP2 MULMOD SWAP1 DUP3 DUP3 GT SWAP1 SUB PUSH1 0xC0 SHL SWAP2 SUB PUSH1 0x40 SHR OR SWAP1 JUMP JUMPDEST PUSH1 0x40 MLOAD PUSH3 0x461BCD PUSH1 0xE5 SHL DUP2 MSTORE PUSH1 0x20 PUSH1 0x4 DUP3 ADD MSTORE PUSH1 0x3 PUSH1 0x24 DUP3 ADD MSTORE PUSH3 0x13D193 PUSH1 0xEA SHL PUSH1 0x44 DUP3 ADD MSTORE PUSH1 0x64 SWAP1 REVERT JUMPDEST POP POP PUSH1 0x40 SHR SWAP1 JUMP JUMPDEST PUSH0 NOT DUP3 DUP3 MULMOD DUP3 DUP3 MUL SWAP2 DUP3 DUP1 DUP4 LT SWAP3 SUB SWAP2 DUP1 DUP4 SUB SWAP3 EQ PUSH2 0x113A JUMPI DUP2 PUSH4 0x3B9ACA00 GT ISZERO PUSH2 0x10A6 JUMPI PUSH32 0x88F2CFB83100CB4E69E7C79C58B316E597157D372FB9787E8E47CE423A2E9C6D SWAP4 PUSH4 0x3B9ACA00 SWAP2 MULMOD SWAP1 DUP3 DUP3 GT SWAP1 SUB PUSH1 0xF7 SHL SWAP2 SUB PUSH1 0x9 SHR OR MUL SWAP1 JUMP JUMPDEST POP POP PUSH4 0x3B9ACA00 SWAP2 POP DIV SWAP1 JUMP JUMPDEST PUSH0 NOT PUSH1 0x1 PUSH1 0x40 SHL DUP3 MULMOD SWAP2 DUP2 PUSH1 0x40 SHL SWAP2 DUP3 DUP1 DUP6 LT SWAP5 SUB SWAP4 DUP1 DUP6 SUB SWAP5 EQ PUSH2 0x11C9 JUMPI DUP4 DUP3 GT ISZERO PUSH2 0x10A6 JUMPI PUSH1 0x1 PUSH1 0x40 SHL DUP3 SWAP2 MULMOD PUSH1 0x1 DUP3 NOT ADD DUP3 AND DUP1 SWAP3 DIV PUSH1 0x2 DUP2 PUSH1 0x3 MUL XOR DUP1 DUP3 MUL PUSH1 0x2 SUB MUL DUP1 DUP3 MUL PUSH1 0x2 SUB MUL DUP1 DUP3 MUL PUSH1 0x2 SUB MUL DUP1 DUP3 MUL PUSH1 0x2 SUB MUL DUP1 DUP3 MUL PUSH1 0x2 SUB MUL DUP1 SWAP2 MUL PUSH1 0x2 SUB MUL SWAP4 PUSH1 0x1 DUP4 DUP1 PUSH0 SUB DIV ADD SWAP1 DUP5 DUP4 GT SWAP1 SUB MUL SWAP3 SUB DIV OR MUL SWAP1 JUMP JUMPDEST POP DUP1 SWAP3 POP ISZERO PUSH2 0x11D6 JUMPI DIV SWAP1 JUMP JUMPDEST PUSH1 0x64 PUSH1 0x40 MLOAD PUSH3 0x461BCD PUSH1 0xE5 SHL DUP2 MSTORE PUSH1 0x20 PUSH1 0x4 DUP3 ADD MSTORE PUSH1 0x4 PUSH1 0x24 DUP3 ADD MSTORE PUSH4 0x4449563 PUSH1 0xE4 SHL PUSH1 0x44 DUP3 ADD MSTORE REVERT JUMPDEST PUSH0 NOT DUP3 DUP3 MULMOD SWAP1 DUP3 DUP2 MUL SWAP3 DUP4 DUP1 DUP5 LT SWAP4 SUB SWAP3 DUP1 DUP5 SUB SWAP4 EQ PUSH2 0x1240 JUMPI DUP3 PUSH1 0x1 PUSH1 0x40 SHL GT ISZERO PUSH2 0x10A6 JUMPI PUSH1 0x1 PUSH1 0x40 SHL SWAP2 MULMOD SWAP1 DUP3 DUP3 GT SWAP1 SUB PUSH1 0xC0 SHL SWAP2 SUB PUSH1 0x40 SHR OR SWAP1 JUMP JUMPDEST POP POP POP PUSH1 0x40 SHR SWAP1 JUMP JUMPDEST SWAP2 PUSH0 NOT DUP3 DUP5 MULMOD SWAP3 DUP3 DUP2 MUL SWAP3 DUP4 DUP1 DUP7 LT SWAP6 SUB SWAP5 DUP1 DUP7 SUB SWAP6 EQ PUSH2 0x12C2 JUMPI DUP5 DUP4 GT ISZERO PUSH2 0x10A6 JUMPI DUP3 SWAP2 MULMOD PUSH1 0x1 DUP3 NOT ADD DUP3 AND DUP1 SWAP3 DIV PUSH1 0x2 DUP2 PUSH1 0x3 MUL XOR DUP1 DUP3 MUL PUSH1 0x2 SUB MUL DUP1 DUP3 MUL PUSH1 0x2 SUB MUL DUP1 DUP3 MUL PUSH1 0x2 SUB MUL DUP1 DUP3 MUL PUSH1 0x2 SUB MUL DUP1 DUP3 MUL PUSH1 0x2 SUB MUL DUP1 SWAP2 MUL PUSH1 0x2 SUB MUL SWAP4 PUSH1 0x1 DUP4 DUP1 PUSH0 SUB DIV ADD SWAP1 DUP5 DUP4 GT SWAP1 SUB MUL SWAP3 SUB DIV OR MUL SWAP1 JUMP JUMPDEST POP POP DUP1 SWAP3 POP ISZERO PUSH2 0x11D6 JUMPI DIV SWAP1 JUMP JUMPDEST PUSH1 0x1 PUSH1 0xFF SHL DUP2 EQ PUSH2 0x83B JUMPI PUSH0 SUB SWAP1 JUMP JUMPDEST SWAP1 SWAP5 SWAP3 SWAP2 SWAP4 SWAP5 PUSH4 0x3B9ACA00 DUP2 MUL SWAP1 DUP1 DUP3 DIV PUSH4 0x3B9ACA00 EQ SWAP1 ISZERO OR ISZERO PUSH2 0x83B JUMPI DUP4 PUSH2 0x1309 SWAP2 PUSH2 0x85D JUMP JUMPDEST SWAP2 ISZERO PUSH2 0x1410 JUMPI DUP4 DUP2 GT ISZERO PUSH2 0x1401 JUMPI PUSH4 0x3B9ACA00 PUSH2 0x1330 DUP5 PUSH2 0x132A DUP8 DUP6 PUSH2 0x8FE JUMP JUMPDEST SWAP7 PUSH2 0x87B JUMP JUMPDEST DIV SWAP3 PUSH4 0x3B9ACA00 DUP5 MUL SWAP4 DUP1 DUP6 DIV PUSH4 0x3B9ACA00 EQ SWAP1 ISZERO OR ISZERO PUSH2 0x83B JUMPI DUP6 DUP1 SWAP4 PUSH2 0x1367 PUSH2 0x1361 PUSH2 0x1367 SWAP5 PUSH2 0x136D SWAP9 PUSH2 0x85D JUMP JUMPDEST DUP3 PUSH2 0x82E JUMP JUMPDEST SWAP4 PUSH2 0x1646 JUMP JUMPDEST SWAP2 PUSH1 0x3 DUP2 LT ISZERO PUSH2 0x13ED JUMPI PUSH2 0x13DF JUMPI PUSH2 0x1395 SWAP2 SWAP1 PUSH0 DUP2 SLT PUSH2 0x13D0 JUMPI SWAP1 JUMPDEST PUSH0 DUP2 SLT PUSH2 0x13C2 JUMPI PUSH2 0x8E6 JUMP JUMPDEST PUSH4 0x3B9ACA00 DUP2 SGT PUSH2 0x13B9 JUMPI PUSH4 0x3B9AC9FF NOT DUP2 SLT PUSH2 0x13AF JUMPI SWAP1 JUMP JUMPDEST POP PUSH4 0x3B9AC9FF NOT SWAP1 JUMP JUMPDEST POP PUSH4 0x3B9ACA00 SWAP1 JUMP JUMPDEST PUSH2 0x13CB SWAP1 PUSH2 0x12D0 JUMP JUMPDEST PUSH2 0x8E6 JUMP JUMPDEST PUSH2 0x13D9 SWAP1 PUSH2 0x12D0 JUMP JUMPDEST SWAP1 PUSH2 0x1389 JUMP JUMPDEST PUSH2 0x13E8 SWAP2 PUSH2 0x8E6 JUMP JUMPDEST PUSH2 0x1395 JUMP JUMPDEST PUSH4 0x4E487B71 PUSH1 0xE0 SHL PUSH0 MSTORE PUSH1 0x21 PUSH1 0x4 MSTORE PUSH1 0x24 PUSH0 REVERT JUMPDEST PUSH4 0x3B9ACA00 PUSH2 0x1330 DUP5 PUSH0 PUSH2 0x132A JUMP JUMPDEST SWAP3 PUSH4 0x3B9ACA00 DUP2 SWAP4 SWAP3 SWAP4 MUL SWAP1 DUP1 DUP3 DIV PUSH4 0x3B9ACA00 EQ SWAP1 ISZERO OR ISZERO PUSH2 0x83B JUMPI PUSH2 0x1367 DUP6 PUSH2 0x136D SWAP5 PUSH2 0x1465 PUSH2 0x145F DUP7 PUSH2 0x1447 DUP6 SWAP9 DUP9 PUSH2 0x85D JUMP JUMPDEST DUP1 DUP6 GT ISZERO PUSH2 0x146B JUMPI PUSH2 0x1459 SWAP1 DUP6 PUSH2 0x8FE JUMP JUMPDEST SWAP7 PUSH2 0x85D JUMP JUMPDEST DUP9 PUSH2 0x82E JUMP JUMPDEST SWAP7 PUSH2 0x1646 JUMP JUMPDEST POP PUSH0 PUSH2 0x1459 JUMP JUMPDEST PUSH1 0x4D DUP2 GT PUSH2 0x83B JUMPI PUSH1 0xA EXP SWAP1 JUMP JUMPDEST SWAP1 SWAP3 SWAP2 SWAP3 DUP2 ISZERO PUSH2 0x14BF JUMPI PUSH2 0xDAD SWAP4 PUSH1 0x1 PUSH1 0x1 PUSH1 0x80 SHL SUB SWAP3 PUSH2 0x14B1 PUSH1 0xFF PUSH2 0x14AA DUP2 PUSH2 0x14B7 SWAP7 AND PUSH2 0x1472 JUMP JUMPDEST SWAP4 AND PUSH2 0x1472 JUMP JUMPDEST SWAP1 PUSH2 0x1249 JUMP JUMPDEST SWAP2 AND SWAP1 PUSH2 0x1147 JUMP JUMPDEST POP POP POP POP PUSH0 SWAP1 JUMP JUMPDEST SWAP3 SWAP1 DUP4 ISZERO PUSH2 0x14BF JUMPI PUSH2 0xDAD SWAP4 PUSH1 0x1 PUSH1 0x1 PUSH1 0x80 SHL SUB PUSH2 0x14F5 PUSH1 0xFF PUSH2 0x14EE DUP2 PUSH2 0x14FD SWAP7 AND PUSH2 0x1472 JUMP JUMPDEST SWAP7 AND PUSH2 0x1472 JUMP JUMPDEST SWAP4 AND SWAP1 PUSH2 0x1201 JUMP JUMPDEST PUSH2 0x1249 JUMP JUMPDEST SWAP1 PUSH1 0x10 DUP2 LT ISZERO PUSH2 0x7A3 JUMPI PUSH1 0x5 SHL ADD SWAP1 JUMP JUMPDEST PUSH2 0x15D1 PUSH4 0xFFFFFFFF SWAP2 PUSH1 0xFF PUSH1 0x40 MLOAD SWAP2 PUSH2 0x152B DUP4 PUSH2 0x638 JUMP JUMPDEST PUSH4 0x77359400 DUP4 MSTORE PUSH4 0x3B9ACA00 PUSH1 0x20 DUP5 ADD MSTORE PUSH4 0x17D78400 PUSH1 0x40 DUP5 ADD MSTORE PUSH4 0xBEBC200 PUSH1 0x60 DUP5 ADD MSTORE PUSH4 0x7F28155 PUSH1 0x80 DUP5 ADD MSTORE PUSH4 0x5F5E100 PUSH1 0xA0 DUP5 ADD MSTORE PUSH4 0x3F940AB PUSH1 0xC0 DUP5 ADD MSTORE PUSH4 0x2FAF080 PUSH1 0xE0 DUP5 ADD MSTORE PUSH4 0x1FCA055 PUSH2 0x100 DUP5 ADD MSTORE PUSH4 0x1312D00 PUSH2 0x120 DUP5 ADD MSTORE PUSH3 0xCB7355 PUSH2 0x140 DUP5 ADD MSTORE PUSH3 0x989680 PUSH2 0x160 DUP5 ADD MSTORE PUSH3 0x65B9AB PUSH2 0x180 DUP5 ADD MSTORE PUSH3 0x4C4B40 PUSH2 0x1A0 DUP5 ADD MSTORE PUSH3 0x32DCD5 PUSH2 0x1C0 DUP5 ADD MSTORE PUSH3 0x1E8480 PUSH2 0x1E0 DUP5 ADD MSTORE AND SWAP1 PUSH2 0x1502 JUMP JUMPDEST MLOAD AND SWAP1 JUMP JUMPDEST SWAP1 PUSH4 0xFFFFFFFF DUP2 AND ISZERO PUSH2 0x1055 JUMPI PUSH4 0x3B9ACA00 PUSH2 0x1604 PUSH4 0xFFFFFFFF PUSH2 0xB88 PUSH2 0x15FE DUP3 SWAP6 DUP8 PUSH2 0x1024 JUMP JUMPDEST SWAP6 PUSH2 0x1513 JUMP JUMPDEST DIV SWAP2 AND SWAP1 PUSH3 0x186A0 DUP3 MUL SWAP2 DUP1 DUP4 DIV PUSH3 0x186A0 EQ SWAP1 ISZERO OR ISZERO PUSH2 0x83B JUMPI PUSH1 0x1 PUSH1 0x1 PUSH1 0xFF SHL SUB DUP2 AND DUP2 SUB PUSH2 0x83B JUMPI PUSH4 0xFFFFFFFF SWAP2 PUSH2 0x1642 SWAP2 PUSH1 0x1 SHL SWAP1 PUSH2 0x85D JUMP JUMPDEST AND SWAP1 JUMP JUMPDEST SWAP2 SWAP1 PUSH2 0x1652 DUP2 DUP5 PUSH2 0x82E JUMP JUMPDEST SWAP2 DUP3 ISZERO PUSH2 0x14BF JUMPI PUSH1 0x3 DUP2 LT ISZERO PUSH2 0x13ED JUMPI DUP1 PUSH2 0x16A2 JUMPI POP POP DUP2 PUSH1 0x1 SHL SWAP2 DUP1 DUP4 SDIV PUSH1 0x2 EQ SWAP1 ISZERO OR ISZERO PUSH2 0x83B JUMPI PUSH2 0x1688 PUSH2 0x168D SWAP3 PUSH2 0x88E JUMP JUMPDEST PUSH2 0x8CC JUMP JUMPDEST PUSH4 0x3B9AC9FF NOT DUP2 ADD SWAP1 DUP2 SGT PUSH1 0x1 AND PUSH2 0x83B JUMPI SWAP1 JUMP JUMPDEST PUSH1 0x1 SUB PUSH2 0x16B6 JUMPI POP PUSH2 0x1688 PUSH2 0xDAD SWAP3 PUSH2 0x88E JUMP JUMPDEST PUSH2 0xDAD SWAP3 POP PUSH2 0x1688 SWAP1 PUSH2 0x88E JUMP INVALID LOG2 PUSH5 0x6970667358 0x22 SLT KECCAK256 0xD2 0xA6 GASLIMIT 0xC8 CALLDATALOAD EQ RETURNDATASIZE 0xD5 EXTDELEGATECALL SGT 0xC4 EXTSTATICCALL DUP10 0x1E MULMOD BASEFEE 0xC9 CREATE2 0xED 0xBB 0x27 0xD3 0x29 CALLVALUE 0xAB MOD 0xC5 NOT EXP NOT SWAP14 MLOAD PUSH5 0x736F6C6343 STOP ADDMOD 0x1E STOP CALLER "},"methodIdentifiers":{"quote((address,address,address,uint256,uint128,uint128,uint16,bool,uint8),bytes)":"abfebfd1","quoteBatch((address,address,address,uint256[],uint128[],uint128[],uint16[],bool,uint8),bytes)":"72e07279","requiresSigmaData(uint16)":"6f96a0a3"}}}}}