{"contracts/Peripheral/DataBridges/dummy/MockStoicovDataBridge125.sol":{"MockStoicovDataBridge125":{"abi":[{"inputs":[{"components":[{"internalType":"address","name":"asset0","type":"address"},{"internalType":"address","name":"asset1","type":"address"},{"internalType":"address","name":"quoter","type":"address"},{"internalType":"uint256","name":"amount","type":"uint256"},{"internalType":"uint128","name":"asset0Balance","type":"uint128"},{"internalType":"uint128","name":"asset1Balance","type":"uint128"},{"internalType":"uint16","name":"bucketID","type":"uint16"},{"internalType":"bool","name":"zeroForOne","type":"bool"},{"internalType":"uint8","name":"functionFlags","type":"uint8"}],"internalType":"struct QuoteParams","name":"","type":"tuple"}],"name":"getData","outputs":[{"internalType":"bytes","name":"","type":"bytes"}],"stateMutability":"view","type":"function"},{"inputs":[],"name":"midQ","outputs":[{"internalType":"uint128","name":"","type":"uint128"}],"stateMutability":"view","type":"function"},{"inputs":[],"name":"stdevShortBps","outputs":[{"internalType":"uint16","name":"","type":"uint16"}],"stateMutability":"view","type":"function"}],"evm":{"bytecode":{"linkReferences":{},"object":"60c060405234604657664189374bc6a7ef6080526130d460a0526040516102ca908161004b8239608051818181605c01526101cc015260a051818181609e01526102060152f35b5f80fdfe6080806040526004361015610012575f80fd5b5f3560e01c908163406304ea146100c25750806374b7b5f5146100845763bee3af901461003d575f80fd5b34610080575f3660031901126100805760206040516001600160801b037f0000000000000000000000000000000000000000000000000000000000000000168152f35b5f80fd5b34610080575f36600319011261008057602060405161ffff7f0000000000000000000000000000000000000000000000000000000000000000168152f35b346100805761012036600319011261008057610120810181811067ffffffffffffffff821117610280576040526004356001600160a01b03811681036100805781526024356001600160a01b03811681036100805760208201526044356001600160a01b038116810361008057604082015260643560608201526084356001600160801b038116810361008057608082015260a4356001600160801b03811681036100805760a082015260c43561ffff811681036100805760c082015260e43580151581036100805760e0820152610104359060ff821682036100805761010001526040516020810190602882525f60408201525f60608201525f60808201526001600160801b037f00000000000000000000000000000000000000000000000000000000000000001660a082015267ffffffffffffffff421660c082015261ffff7f00000000000000000000000000000000000000000000000000000000000000001660e08201525f610100820152610100815261012081019080821067ffffffffffffffff8311176102805760409182528151928391602083525180918160208501528484015e5f828201840152601f01601f19168101030190f35b634e487b7160e01b5f52604160045260245ffdfea264697066735822122024666ac49e40ec8e0c61035355c5639d82012b259204de2a9861c6ec6b64d75464736f6c634300081e0033","opcodes":"PUSH1 0xC0 PUSH1 0x40 MSTORE CALLVALUE PUSH1 0x46 JUMPI PUSH7 0x4189374BC6A7EF PUSH1 0x80 MSTORE PUSH2 0x30D4 PUSH1 0xA0 MSTORE PUSH1 0x40 MLOAD PUSH2 0x2CA SWAP1 DUP2 PUSH2 0x4B DUP3 CODECOPY PUSH1 0x80 MLOAD DUP2 DUP2 DUP2 PUSH1 0x5C ADD MSTORE PUSH2 0x1CC ADD MSTORE PUSH1 0xA0 MLOAD DUP2 DUP2 DUP2 PUSH1 0x9E ADD MSTORE PUSH2 0x206 ADD MSTORE RETURN JUMPDEST PUSH0 DUP1 REVERT INVALID PUSH1 0x80 DUP1 PUSH1 0x40 MSTORE PUSH1 0x4 CALLDATASIZE LT ISZERO PUSH2 0x12 JUMPI PUSH0 DUP1 REVERT JUMPDEST PUSH0 CALLDATALOAD PUSH1 0xE0 SHR SWAP1 DUP2 PUSH4 0x406304EA EQ PUSH2 0xC2 JUMPI POP DUP1 PUSH4 0x74B7B5F5 EQ PUSH2 0x84 JUMPI PUSH4 0xBEE3AF90 EQ PUSH2 0x3D JUMPI PUSH0 DUP1 REVERT JUMPDEST CALLVALUE PUSH2 0x80 JUMPI PUSH0 CALLDATASIZE PUSH1 0x3 NOT ADD SLT PUSH2 0x80 JUMPI PUSH1 0x20 PUSH1 0x40 MLOAD PUSH1 0x1 PUSH1 0x1 PUSH1 0x80 SHL SUB PUSH32 0x0 AND DUP2 MSTORE RETURN JUMPDEST PUSH0 DUP1 REVERT JUMPDEST CALLVALUE PUSH2 0x80 JUMPI PUSH0 CALLDATASIZE PUSH1 0x3 NOT ADD SLT PUSH2 0x80 JUMPI PUSH1 0x20 PUSH1 0x40 MLOAD PUSH2 0xFFFF PUSH32 0x0 AND DUP2 MSTORE RETURN JUMPDEST CALLVALUE PUSH2 0x80 JUMPI PUSH2 0x120 CALLDATASIZE PUSH1 0x3 NOT ADD SLT PUSH2 0x80 JUMPI PUSH2 0x120 DUP2 ADD DUP2 DUP2 LT PUSH8 0xFFFFFFFFFFFFFFFF DUP3 GT OR PUSH2 0x280 JUMPI PUSH1 0x40 MSTORE PUSH1 0x4 CALLDATALOAD PUSH1 0x1 PUSH1 0x1 PUSH1 0xA0 SHL SUB DUP2 AND DUP2 SUB PUSH2 0x80 JUMPI DUP2 MSTORE PUSH1 0x24 CALLDATALOAD PUSH1 0x1 PUSH1 0x1 PUSH1 0xA0 SHL SUB DUP2 AND DUP2 SUB PUSH2 0x80 JUMPI PUSH1 0x20 DUP3 ADD MSTORE PUSH1 0x44 CALLDATALOAD PUSH1 0x1 PUSH1 0x1 PUSH1 0xA0 SHL SUB DUP2 AND DUP2 SUB PUSH2 0x80 JUMPI PUSH1 0x40 DUP3 ADD MSTORE PUSH1 0x64 CALLDATALOAD PUSH1 0x60 DUP3 ADD MSTORE PUSH1 0x84 CALLDATALOAD PUSH1 0x1 PUSH1 0x1 PUSH1 0x80 SHL SUB DUP2 AND DUP2 SUB PUSH2 0x80 JUMPI PUSH1 0x80 DUP3 ADD MSTORE PUSH1 0xA4 CALLDATALOAD PUSH1 0x1 PUSH1 0x1 PUSH1 0x80 SHL SUB DUP2 AND DUP2 SUB PUSH2 0x80 JUMPI PUSH1 0xA0 DUP3 ADD MSTORE PUSH1 0xC4 CALLDATALOAD PUSH2 0xFFFF DUP2 AND DUP2 SUB PUSH2 0x80 JUMPI PUSH1 0xC0 DUP3 ADD MSTORE PUSH1 0xE4 CALLDATALOAD DUP1 ISZERO ISZERO DUP2 SUB PUSH2 0x80 JUMPI PUSH1 0xE0 DUP3 ADD MSTORE PUSH2 0x104 CALLDATALOAD SWAP1 PUSH1 0xFF DUP3 AND DUP3 SUB PUSH2 0x80 JUMPI PUSH2 0x100 ADD MSTORE PUSH1 0x40 MLOAD PUSH1 0x20 DUP2 ADD SWAP1 PUSH1 0x28 DUP3 MSTORE PUSH0 PUSH1 0x40 DUP3 ADD MSTORE PUSH0 PUSH1 0x60 DUP3 ADD MSTORE PUSH0 PUSH1 0x80 DUP3 ADD MSTORE PUSH1 0x1 PUSH1 0x1 PUSH1 0x80 SHL SUB PUSH32 0x0 AND PUSH1 0xA0 DUP3 ADD MSTORE PUSH8 0xFFFFFFFFFFFFFFFF TIMESTAMP AND PUSH1 0xC0 DUP3 ADD MSTORE PUSH2 0xFFFF PUSH32 0x0 AND PUSH1 0xE0 DUP3 ADD MSTORE PUSH0 PUSH2 0x100 DUP3 ADD MSTORE PUSH2 0x100 DUP2 MSTORE PUSH2 0x120 DUP2 ADD SWAP1 DUP1 DUP3 LT PUSH8 0xFFFFFFFFFFFFFFFF DUP4 GT OR PUSH2 0x280 JUMPI PUSH1 0x40 SWAP2 DUP3 MSTORE DUP2 MLOAD SWAP3 DUP4 SWAP2 PUSH1 0x20 DUP4 MSTORE MLOAD DUP1 SWAP2 DUP2 PUSH1 0x20 DUP6 ADD MSTORE DUP5 DUP5 ADD MCOPY PUSH0 DUP3 DUP3 ADD DUP5 ADD MSTORE PUSH1 0x1F ADD PUSH1 0x1F NOT AND DUP2 ADD SUB ADD SWAP1 RETURN JUMPDEST PUSH4 0x4E487B71 PUSH1 0xE0 SHL PUSH0 MSTORE PUSH1 0x41 PUSH1 0x4 MSTORE PUSH1 0x24 PUSH0 REVERT INVALID LOG2 PUSH5 0x6970667358 0x22 SLT KECCAK256 0x24 PUSH7 0x6AC49E40EC8E0C PUSH2 0x353 SSTORE 0xC5 PUSH4 0x9D82012B 0x25 SWAP3 DIV 0xDE 0x2A SWAP9 PUSH2 0xC6EC PUSH12 0x64D75464736F6C634300081E STOP CALLER "},"methodIdentifiers":{"getData((address,address,address,uint256,uint128,uint128,uint16,bool,uint8))":"406304ea","midQ()":"bee3af90","stdevShortBps()":"74b7b5f5"}}}}}