{"contracts/Peripheral/DataBridges/real/UniswapV2DataBridge.sol":{"UniswapV2DataBridge":{"abi":[{"inputs":[{"internalType":"address","name":"_factory","type":"address"},{"internalType":"address","name":"_ext0","type":"address"},{"internalType":"address","name":"_ext1","type":"address"},{"internalType":"address","name":"_alias0","type":"address"},{"internalType":"address","name":"_alias1","type":"address"}],"stateMutability":"nonpayable","type":"constructor"},{"inputs":[],"name":"Math__DivByZero","type":"error"},{"inputs":[],"name":"Math__Overflow","type":"error"},{"inputs":[],"name":"UniswapV2__EmptyReserves","type":"error"},{"inputs":[],"name":"UniswapV2__PairMissing","type":"error"},{"inputs":[],"name":"UniswapV2__PairTokensMismatch","type":"error"},{"inputs":[],"name":"canonicalExt0","outputs":[{"internalType":"address","name":"","type":"address"}],"stateMutability":"view","type":"function"},{"inputs":[],"name":"canonicalExt1","outputs":[{"internalType":"address","name":"","type":"address"}],"stateMutability":"view","type":"function"},{"inputs":[],"name":"factory","outputs":[{"internalType":"address","name":"","type":"address"}],"stateMutability":"view","type":"function"},{"inputs":[{"components":[{"internalType":"address","name":"asset0","type":"address"},{"internalType":"address","name":"asset1","type":"address"},{"internalType":"address","name":"quoter","type":"address"},{"internalType":"uint256","name":"amount","type":"uint256"},{"internalType":"uint128","name":"asset0Balance","type":"uint128"},{"internalType":"uint128","name":"asset1Balance","type":"uint128"},{"internalType":"uint16","name":"bucketID","type":"uint16"},{"internalType":"bool","name":"zeroForOne","type":"bool"}],"internalType":"struct QuoteParams","name":"params","type":"tuple"}],"name":"getData","outputs":[{"internalType":"bytes","name":"","type":"bytes"}],"stateMutability":"view","type":"function"},{"inputs":[],"name":"internalAlias0","outputs":[{"internalType":"address","name":"","type":"address"}],"stateMutability":"view","type":"function"},{"inputs":[],"name":"internalAlias1","outputs":[{"internalType":"address","name":"","type":"address"}],"stateMutability":"view","type":"function"},{"inputs":[],"name":"twapWindow","outputs":[{"internalType":"uint24","name":"","type":"uint24"}],"stateMutability":"view","type":"function"}],"evm":{"bytecode":{"linkReferences":{},"object":"610140346100ec57601f6109ac38819003918201601f19168301916001600160401b038311848410176100f05780849260a0946040528339810103126100ec5761004881610104565b9061005560208201610104565b9061006260408201610104565b61007a608061007360608501610104565b9301610104565b9260805260a05260c05260e05261010052612a30610120526040516108939081610119823960805181818160c601526102e8015260a0518181816101920152610310015260c05181607e015260e0518161014e01526101005181818161010a0152610342015261012051816101dc0152f35b5f80fd5b634e487b7160e01b5f52604160045260245ffd5b51906001600160a01b03821682036100ec5756fe6080806040526004361015610012575f80fd5b5f3560e01c9081633bd1104b14610200575080638107e133146101c1578063a6b128231461017d578063b24a485b14610139578063c45a0155146100f5578063cd852366146100b15763dd82b27514610069575f80fd5b346100ad575f3660031901126100ad576040517f00000000000000000000000000000000000000000000000000000000000000006001600160a01b03168152602090f35b5f80fd5b346100ad575f3660031901126100ad576040517f00000000000000000000000000000000000000000000000000000000000000006001600160a01b03168152602090f35b346100ad575f3660031901126100ad576040517f00000000000000000000000000000000000000000000000000000000000000006001600160a01b03168152602090f35b346100ad575f3660031901126100ad576040517f00000000000000000000000000000000000000000000000000000000000000006001600160a01b03168152602090f35b346100ad575f3660031901126100ad576040517f00000000000000000000000000000000000000000000000000000000000000006001600160a01b03168152602090f35b346100ad575f3660031901126100ad57602060405162ffffff7f0000000000000000000000000000000000000000000000000000000000000000168152f35b346100ad576101003660031901126100ad57610100810181811067ffffffffffffffff821117610715576040526004356001600160a01b03811681036100ad578152602435906001600160a01b03821682036100ad57602081019182526044356001600160a01b03811681036100ad57604082015260643560608201526084356001600160801b03811681036100ad57608082015260a4356001600160801b03811681036100ad5760a082015260c43561ffff811681036100ad5760c082015260e43580151581036100ad5760e082015260405163e6a4390560e01b81526001600160a01b037f0000000000000000000000000000000000000000000000000000000000000000811660048301527f000000000000000000000000000000000000000000000000000000000000000081166024830152602090829060449082907f0000000000000000000000000000000000000000000000000000000000000000165afa9081156105e9575f916106f6575b506001600160a01b03169081156106e757604051630240bc6b60e21b815291606083600481845afa9283156105e9575f905f94610688575b506001600160701b03169384151580610676575b1561066857604051630dfe168160e01b815291602083600481845afa9081156105e9576004935f92610646575b506020906040519485809263d21220a760e01b82525afa9283156105e9575f93610615575b5060405163313ce56760e01b8152926001600160a01b039190911690602084600481855afa9384156105e9575f946105f4575b5060405163313ce56760e01b8152946001600160a01b039190911690602086600481855afa9586156105e9575f966105b8575b50516001600160a01b0316828114806105a5575b15610530575050505060ff16601201928360121161051c576104cc6001600160701b03916104c660ff6104bf6104d398610797565b9516610797565b906107a5565b92166107b8565b604080516020810192835242828201528181526104f1606082610729565b8151928391602083525180918160208501528484015e5f828201840152601f01601f19168101030190f35b634e487b7160e01b5f52601160045260245ffd5b969596949394149182610591575b5050156105825760ff166012018060121161051c5761057d936001600160701b0361057060ff6104bf61057795610797565b91166107a5565b916107b8565b6104d3565b63032f4b3f60e31b5f5260045ffd5b516001600160a01b0316149050858061053e565b5083516001600160a01b0316821461048a565b6105db91965060203d6020116105e2575b6105d38183610729565b81019061077e565b9488610476565b503d6105c9565b6040513d5f823e3d90fd5b61060e91945060203d6020116105e2576105d38183610729565b9287610443565b61063891935060203d60201161063f575b6106308183610729565b81019061074b565b9186610410565b503d610626565b602091925061066190823d841161063f576106308183610729565b91906103eb565b626a8eb760e61b5f5260045ffd5b506001600160701b03841615156103be565b9350506060833d6060116106df575b816106a460609383610729565b810103126100ad576106b58361076a565b60406106c36020860161076a565b94015163ffffffff8116036100ad576001600160701b036103aa565b3d9150610697565b63f3dca29560e01b5f5260045ffd5b61070f915060203d60201161063f576106308183610729565b83610372565b634e487b7160e01b5f52604160045260245ffd5b90601f8019910116810190811067ffffffffffffffff82111761071557604052565b908160209103126100ad57516001600160a01b03811681036100ad5790565b51906001600160701b03821682036100ad57565b908160209103126100ad575160ff811681036100ad5790565b604d811161051c57600a0a90565b8181029291811591840414171561051c57565b915f198284099282810292838086109503948086039514610840578483111561083157829109600182190182168092046002816003021880820260020302808202600203028082026002030280820260020302808202600203028091026002030293600183805f03040190848311900302920304170290565b637f39b44d60e01b5f5260045ffd5b50508092501561084e570490565b639f93261560e01b5f5260045ffdfea26469706673582212202449ab26ecc83f61a629ca6fd9660e3f51d7dc6d8e5ad6d8927209e8b4357fd964736f6c634300081e0033","opcodes":"PUSH2 0x140 CALLVALUE PUSH2 0xEC JUMPI PUSH1 0x1F PUSH2 0x9AC CODESIZE DUP2 SWAP1 SUB SWAP2 DUP3 ADD PUSH1 0x1F NOT AND DUP4 ADD SWAP2 PUSH1 0x1 PUSH1 0x1 PUSH1 0x40 SHL SUB DUP4 GT DUP5 DUP5 LT OR PUSH2 0xF0 JUMPI DUP1 DUP5 SWAP3 PUSH1 0xA0 SWAP5 PUSH1 0x40 MSTORE DUP4 CODECOPY DUP2 ADD SUB SLT PUSH2 0xEC JUMPI PUSH2 0x48 DUP2 PUSH2 0x104 JUMP JUMPDEST SWAP1 PUSH2 0x55 PUSH1 0x20 DUP3 ADD PUSH2 0x104 JUMP JUMPDEST SWAP1 PUSH2 0x62 PUSH1 0x40 DUP3 ADD PUSH2 0x104 JUMP JUMPDEST PUSH2 0x7A PUSH1 0x80 PUSH2 0x73 PUSH1 0x60 DUP6 ADD PUSH2 0x104 JUMP JUMPDEST SWAP4 ADD PUSH2 0x104 JUMP JUMPDEST SWAP3 PUSH1 0x80 MSTORE PUSH1 0xA0 MSTORE PUSH1 0xC0 MSTORE PUSH1 0xE0 MSTORE PUSH2 0x100 MSTORE PUSH2 0x2A30 PUSH2 0x120 MSTORE PUSH1 0x40 MLOAD PUSH2 0x893 SWAP1 DUP2 PUSH2 0x119 DUP3 CODECOPY PUSH1 0x80 MLOAD DUP2 DUP2 DUP2 PUSH1 0xC6 ADD MSTORE PUSH2 0x2E8 ADD MSTORE PUSH1 0xA0 MLOAD DUP2 DUP2 DUP2 PUSH2 0x192 ADD MSTORE PUSH2 0x310 ADD MSTORE PUSH1 0xC0 MLOAD DUP2 PUSH1 0x7E ADD MSTORE PUSH1 0xE0 MLOAD DUP2 PUSH2 0x14E ADD MSTORE PUSH2 0x100 MLOAD DUP2 DUP2 DUP2 PUSH2 0x10A ADD MSTORE PUSH2 0x342 ADD MSTORE PUSH2 0x120 MLOAD DUP2 PUSH2 0x1DC ADD MSTORE RETURN JUMPDEST PUSH0 DUP1 REVERT JUMPDEST PUSH4 0x4E487B71 PUSH1 0xE0 SHL PUSH0 MSTORE PUSH1 0x41 PUSH1 0x4 MSTORE PUSH1 0x24 PUSH0 REVERT JUMPDEST MLOAD SWAP1 PUSH1 0x1 PUSH1 0x1 PUSH1 0xA0 SHL SUB DUP3 AND DUP3 SUB PUSH2 0xEC JUMPI JUMP INVALID PUSH1 0x80 DUP1 PUSH1 0x40 MSTORE PUSH1 0x4 CALLDATASIZE LT ISZERO PUSH2 0x12 JUMPI PUSH0 DUP1 REVERT JUMPDEST PUSH0 CALLDATALOAD PUSH1 0xE0 SHR SWAP1 DUP2 PUSH4 0x3BD1104B EQ PUSH2 0x200 JUMPI POP DUP1 PUSH4 0x8107E133 EQ PUSH2 0x1C1 JUMPI DUP1 PUSH4 0xA6B12823 EQ PUSH2 0x17D JUMPI DUP1 PUSH4 0xB24A485B EQ PUSH2 0x139 JUMPI DUP1 PUSH4 0xC45A0155 EQ PUSH2 0xF5 JUMPI DUP1 PUSH4 0xCD852366 EQ PUSH2 0xB1 JUMPI PUSH4 0xDD82B275 EQ PUSH2 0x69 JUMPI PUSH0 DUP1 REVERT JUMPDEST CALLVALUE PUSH2 0xAD JUMPI PUSH0 CALLDATASIZE PUSH1 0x3 NOT ADD SLT PUSH2 0xAD JUMPI PUSH1 0x40 MLOAD PUSH32 0x0 PUSH1 0x1 PUSH1 0x1 PUSH1 0xA0 SHL SUB AND DUP2 MSTORE PUSH1 0x20 SWAP1 RETURN JUMPDEST PUSH0 DUP1 REVERT JUMPDEST CALLVALUE PUSH2 0xAD JUMPI PUSH0 CALLDATASIZE PUSH1 0x3 NOT ADD SLT PUSH2 0xAD JUMPI PUSH1 0x40 MLOAD PUSH32 0x0 PUSH1 0x1 PUSH1 0x1 PUSH1 0xA0 SHL SUB AND DUP2 MSTORE PUSH1 0x20 SWAP1 RETURN JUMPDEST CALLVALUE PUSH2 0xAD JUMPI PUSH0 CALLDATASIZE PUSH1 0x3 NOT ADD SLT PUSH2 0xAD JUMPI PUSH1 0x40 MLOAD PUSH32 0x0 PUSH1 0x1 PUSH1 0x1 PUSH1 0xA0 SHL SUB AND DUP2 MSTORE PUSH1 0x20 SWAP1 RETURN JUMPDEST CALLVALUE PUSH2 0xAD JUMPI PUSH0 CALLDATASIZE PUSH1 0x3 NOT ADD SLT PUSH2 0xAD JUMPI PUSH1 0x40 MLOAD PUSH32 0x0 PUSH1 0x1 PUSH1 0x1 PUSH1 0xA0 SHL SUB AND DUP2 MSTORE PUSH1 0x20 SWAP1 RETURN JUMPDEST CALLVALUE PUSH2 0xAD JUMPI PUSH0 CALLDATASIZE PUSH1 0x3 NOT ADD SLT PUSH2 0xAD JUMPI PUSH1 0x40 MLOAD PUSH32 0x0 PUSH1 0x1 PUSH1 0x1 PUSH1 0xA0 SHL SUB AND DUP2 MSTORE PUSH1 0x20 SWAP1 RETURN JUMPDEST CALLVALUE PUSH2 0xAD JUMPI PUSH0 CALLDATASIZE PUSH1 0x3 NOT ADD SLT PUSH2 0xAD JUMPI PUSH1 0x20 PUSH1 0x40 MLOAD PUSH3 0xFFFFFF PUSH32 0x0 AND DUP2 MSTORE RETURN JUMPDEST CALLVALUE PUSH2 0xAD JUMPI PUSH2 0x100 CALLDATASIZE PUSH1 0x3 NOT ADD SLT PUSH2 0xAD JUMPI PUSH2 0x100 DUP2 ADD DUP2 DUP2 LT PUSH8 0xFFFFFFFFFFFFFFFF DUP3 GT OR PUSH2 0x715 JUMPI PUSH1 0x40 MSTORE PUSH1 0x4 CALLDATALOAD PUSH1 0x1 PUSH1 0x1 PUSH1 0xA0 SHL SUB DUP2 AND DUP2 SUB PUSH2 0xAD JUMPI DUP2 MSTORE PUSH1 0x24 CALLDATALOAD SWAP1 PUSH1 0x1 PUSH1 0x1 PUSH1 0xA0 SHL SUB DUP3 AND DUP3 SUB PUSH2 0xAD JUMPI PUSH1 0x20 DUP2 ADD SWAP2 DUP3 MSTORE PUSH1 0x44 CALLDATALOAD PUSH1 0x1 PUSH1 0x1 PUSH1 0xA0 SHL SUB DUP2 AND DUP2 SUB PUSH2 0xAD JUMPI PUSH1 0x40 DUP3 ADD MSTORE PUSH1 0x64 CALLDATALOAD PUSH1 0x60 DUP3 ADD MSTORE PUSH1 0x84 CALLDATALOAD PUSH1 0x1 PUSH1 0x1 PUSH1 0x80 SHL SUB DUP2 AND DUP2 SUB PUSH2 0xAD JUMPI PUSH1 0x80 DUP3 ADD MSTORE PUSH1 0xA4 CALLDATALOAD PUSH1 0x1 PUSH1 0x1 PUSH1 0x80 SHL SUB DUP2 AND DUP2 SUB PUSH2 0xAD JUMPI PUSH1 0xA0 DUP3 ADD MSTORE PUSH1 0xC4 CALLDATALOAD PUSH2 0xFFFF DUP2 AND DUP2 SUB PUSH2 0xAD JUMPI PUSH1 0xC0 DUP3 ADD MSTORE PUSH1 0xE4 CALLDATALOAD DUP1 ISZERO ISZERO DUP2 SUB PUSH2 0xAD JUMPI PUSH1 0xE0 DUP3 ADD MSTORE PUSH1 0x40 MLOAD PUSH4 0xE6A43905 PUSH1 0xE0 SHL DUP2 MSTORE PUSH1 0x1 PUSH1 0x1 PUSH1 0xA0 SHL SUB PUSH32 0x0 DUP2 AND PUSH1 0x4 DUP4 ADD MSTORE PUSH32 0x0 DUP2 AND PUSH1 0x24 DUP4 ADD MSTORE PUSH1 0x20 SWAP1 DUP3 SWAP1 PUSH1 0x44 SWAP1 DUP3 SWAP1 PUSH32 0x0 AND GAS STATICCALL SWAP1 DUP2 ISZERO PUSH2 0x5E9 JUMPI PUSH0 SWAP2 PUSH2 0x6F6 JUMPI JUMPDEST POP PUSH1 0x1 PUSH1 0x1 PUSH1 0xA0 SHL SUB AND SWAP1 DUP2 ISZERO PUSH2 0x6E7 JUMPI PUSH1 0x40 MLOAD PUSH4 0x240BC6B PUSH1 0xE2 SHL DUP2 MSTORE SWAP2 PUSH1 0x60 DUP4 PUSH1 0x4 DUP2 DUP5 GAS STATICCALL SWAP3 DUP4 ISZERO PUSH2 0x5E9 JUMPI PUSH0 SWAP1 PUSH0 SWAP5 PUSH2 0x688 JUMPI JUMPDEST POP PUSH1 0x1 PUSH1 0x1 PUSH1 0x70 SHL SUB AND SWAP4 DUP5 ISZERO ISZERO DUP1 PUSH2 0x676 JUMPI JUMPDEST ISZERO PUSH2 0x668 JUMPI PUSH1 0x40 MLOAD PUSH4 0xDFE1681 PUSH1 0xE0 SHL DUP2 MSTORE SWAP2 PUSH1 0x20 DUP4 PUSH1 0x4 DUP2 DUP5 GAS STATICCALL SWAP1 DUP2 ISZERO PUSH2 0x5E9 JUMPI PUSH1 0x4 SWAP4 PUSH0 SWAP3 PUSH2 0x646 JUMPI JUMPDEST POP PUSH1 0x20 SWAP1 PUSH1 0x40 MLOAD SWAP5 DUP6 DUP1 SWAP3 PUSH4 0xD21220A7 PUSH1 0xE0 SHL DUP3 MSTORE GAS STATICCALL SWAP3 DUP4 ISZERO PUSH2 0x5E9 JUMPI PUSH0 SWAP4 PUSH2 0x615 JUMPI JUMPDEST POP PUSH1 0x40 MLOAD PUSH4 0x313CE567 PUSH1 0xE0 SHL DUP2 MSTORE SWAP3 PUSH1 0x1 PUSH1 0x1 PUSH1 0xA0 SHL SUB SWAP2 SWAP1 SWAP2 AND SWAP1 PUSH1 0x20 DUP5 PUSH1 0x4 DUP2 DUP6 GAS STATICCALL SWAP4 DUP5 ISZERO PUSH2 0x5E9 JUMPI PUSH0 SWAP5 PUSH2 0x5F4 JUMPI JUMPDEST POP PUSH1 0x40 MLOAD PUSH4 0x313CE567 PUSH1 0xE0 SHL DUP2 MSTORE SWAP5 PUSH1 0x1 PUSH1 0x1 PUSH1 0xA0 SHL SUB SWAP2 SWAP1 SWAP2 AND SWAP1 PUSH1 0x20 DUP7 PUSH1 0x4 DUP2 DUP6 GAS STATICCALL SWAP6 DUP7 ISZERO PUSH2 0x5E9 JUMPI PUSH0 SWAP7 PUSH2 0x5B8 JUMPI JUMPDEST POP MLOAD PUSH1 0x1 PUSH1 0x1 PUSH1 0xA0 SHL SUB AND DUP3 DUP2 EQ DUP1 PUSH2 0x5A5 JUMPI JUMPDEST ISZERO PUSH2 0x530 JUMPI POP POP POP POP PUSH1 0xFF AND PUSH1 0x12 ADD SWAP3 DUP4 PUSH1 0x12 GT PUSH2 0x51C JUMPI PUSH2 0x4CC PUSH1 0x1 PUSH1 0x1 PUSH1 0x70 SHL SUB SWAP2 PUSH2 0x4C6 PUSH1 0xFF PUSH2 0x4BF PUSH2 0x4D3 SWAP9 PUSH2 0x797 JUMP JUMPDEST SWAP6 AND PUSH2 0x797 JUMP JUMPDEST SWAP1 PUSH2 0x7A5 JUMP JUMPDEST SWAP3 AND PUSH2 0x7B8 JUMP JUMPDEST PUSH1 0x40 DUP1 MLOAD PUSH1 0x20 DUP2 ADD SWAP3 DUP4 MSTORE TIMESTAMP DUP3 DUP3 ADD MSTORE DUP2 DUP2 MSTORE PUSH2 0x4F1 PUSH1 0x60 DUP3 PUSH2 0x729 JUMP JUMPDEST DUP2 MLOAD SWAP3 DUP4 SWAP2 PUSH1 0x20 DUP4 MSTORE MLOAD DUP1 SWAP2 DUP2 PUSH1 0x20 DUP6 ADD MSTORE DUP5 DUP5 ADD MCOPY PUSH0 DUP3 DUP3 ADD DUP5 ADD MSTORE PUSH1 0x1F ADD PUSH1 0x1F NOT AND DUP2 ADD SUB ADD SWAP1 RETURN JUMPDEST PUSH4 0x4E487B71 PUSH1 0xE0 SHL PUSH0 MSTORE PUSH1 0x11 PUSH1 0x4 MSTORE PUSH1 0x24 PUSH0 REVERT JUMPDEST SWAP7 SWAP6 SWAP7 SWAP5 SWAP4 SWAP5 EQ SWAP2 DUP3 PUSH2 0x591 JUMPI JUMPDEST POP POP ISZERO PUSH2 0x582 JUMPI PUSH1 0xFF AND PUSH1 0x12 ADD DUP1 PUSH1 0x12 GT PUSH2 0x51C JUMPI PUSH2 0x57D SWAP4 PUSH1 0x1 PUSH1 0x1 PUSH1 0x70 SHL SUB PUSH2 0x570 PUSH1 0xFF PUSH2 0x4BF PUSH2 0x577 SWAP6 PUSH2 0x797 JUMP JUMPDEST SWAP2 AND PUSH2 0x7A5 JUMP JUMPDEST SWAP2 PUSH2 0x7B8 JUMP JUMPDEST PUSH2 0x4D3 JUMP JUMPDEST PUSH4 0x32F4B3F PUSH1 0xE3 SHL PUSH0 MSTORE PUSH1 0x4 PUSH0 REVERT JUMPDEST MLOAD PUSH1 0x1 PUSH1 0x1 PUSH1 0xA0 SHL SUB AND EQ SWAP1 POP DUP6 DUP1 PUSH2 0x53E JUMP JUMPDEST POP DUP4 MLOAD PUSH1 0x1 PUSH1 0x1 PUSH1 0xA0 SHL SUB AND DUP3 EQ PUSH2 0x48A JUMP JUMPDEST PUSH2 0x5DB SWAP2 SWAP7 POP PUSH1 0x20 RETURNDATASIZE PUSH1 0x20 GT PUSH2 0x5E2 JUMPI JUMPDEST PUSH2 0x5D3 DUP2 DUP4 PUSH2 0x729 JUMP JUMPDEST DUP2 ADD SWAP1 PUSH2 0x77E JUMP JUMPDEST SWAP5 DUP9 PUSH2 0x476 JUMP JUMPDEST POP RETURNDATASIZE PUSH2 0x5C9 JUMP JUMPDEST PUSH1 0x40 MLOAD RETURNDATASIZE PUSH0 DUP3 RETURNDATACOPY RETURNDATASIZE SWAP1 REVERT JUMPDEST PUSH2 0x60E SWAP2 SWAP5 POP PUSH1 0x20 RETURNDATASIZE PUSH1 0x20 GT PUSH2 0x5E2 JUMPI PUSH2 0x5D3 DUP2 DUP4 PUSH2 0x729 JUMP JUMPDEST SWAP3 DUP8 PUSH2 0x443 JUMP JUMPDEST PUSH2 0x638 SWAP2 SWAP4 POP PUSH1 0x20 RETURNDATASIZE PUSH1 0x20 GT PUSH2 0x63F JUMPI JUMPDEST PUSH2 0x630 DUP2 DUP4 PUSH2 0x729 JUMP JUMPDEST DUP2 ADD SWAP1 PUSH2 0x74B JUMP JUMPDEST SWAP2 DUP7 PUSH2 0x410 JUMP JUMPDEST POP RETURNDATASIZE PUSH2 0x626 JUMP JUMPDEST PUSH1 0x20 SWAP2 SWAP3 POP PUSH2 0x661 SWAP1 DUP3 RETURNDATASIZE DUP5 GT PUSH2 0x63F JUMPI PUSH2 0x630 DUP2 DUP4 PUSH2 0x729 JUMP JUMPDEST SWAP2 SWAP1 PUSH2 0x3EB JUMP JUMPDEST PUSH3 0x6A8EB7 PUSH1 0xE6 SHL PUSH0 MSTORE PUSH1 0x4 PUSH0 REVERT JUMPDEST POP PUSH1 0x1 PUSH1 0x1 PUSH1 0x70 SHL SUB DUP5 AND ISZERO ISZERO PUSH2 0x3BE JUMP JUMPDEST SWAP4 POP POP PUSH1 0x60 DUP4 RETURNDATASIZE PUSH1 0x60 GT PUSH2 0x6DF JUMPI JUMPDEST DUP2 PUSH2 0x6A4 PUSH1 0x60 SWAP4 DUP4 PUSH2 0x729 JUMP JUMPDEST DUP2 ADD SUB SLT PUSH2 0xAD JUMPI PUSH2 0x6B5 DUP4 PUSH2 0x76A JUMP JUMPDEST PUSH1 0x40 PUSH2 0x6C3 PUSH1 0x20 DUP7 ADD PUSH2 0x76A JUMP JUMPDEST SWAP5 ADD MLOAD PUSH4 0xFFFFFFFF DUP2 AND SUB PUSH2 0xAD JUMPI PUSH1 0x1 PUSH1 0x1 PUSH1 0x70 SHL SUB PUSH2 0x3AA JUMP JUMPDEST RETURNDATASIZE SWAP2 POP PUSH2 0x697 JUMP JUMPDEST PUSH4 0xF3DCA295 PUSH1 0xE0 SHL PUSH0 MSTORE PUSH1 0x4 PUSH0 REVERT JUMPDEST PUSH2 0x70F SWAP2 POP PUSH1 0x20 RETURNDATASIZE PUSH1 0x20 GT PUSH2 0x63F JUMPI PUSH2 0x630 DUP2 DUP4 PUSH2 0x729 JUMP JUMPDEST DUP4 PUSH2 0x372 JUMP JUMPDEST PUSH4 0x4E487B71 PUSH1 0xE0 SHL PUSH0 MSTORE PUSH1 0x41 PUSH1 0x4 MSTORE PUSH1 0x24 PUSH0 REVERT JUMPDEST SWAP1 PUSH1 0x1F DUP1 NOT SWAP2 ADD AND DUP2 ADD SWAP1 DUP2 LT PUSH8 0xFFFFFFFFFFFFFFFF DUP3 GT OR PUSH2 0x715 JUMPI PUSH1 0x40 MSTORE JUMP JUMPDEST SWAP1 DUP2 PUSH1 0x20 SWAP2 SUB SLT PUSH2 0xAD JUMPI MLOAD PUSH1 0x1 PUSH1 0x1 PUSH1 0xA0 SHL SUB DUP2 AND DUP2 SUB PUSH2 0xAD JUMPI SWAP1 JUMP JUMPDEST MLOAD SWAP1 PUSH1 0x1 PUSH1 0x1 PUSH1 0x70 SHL SUB DUP3 AND DUP3 SUB PUSH2 0xAD JUMPI JUMP JUMPDEST SWAP1 DUP2 PUSH1 0x20 SWAP2 SUB SLT PUSH2 0xAD JUMPI MLOAD PUSH1 0xFF DUP2 AND DUP2 SUB PUSH2 0xAD JUMPI SWAP1 JUMP JUMPDEST PUSH1 0x4D DUP2 GT PUSH2 0x51C JUMPI PUSH1 0xA EXP SWAP1 JUMP JUMPDEST DUP2 DUP2 MUL SWAP3 SWAP2 DUP2 ISZERO SWAP2 DUP5 DIV EQ OR ISZERO PUSH2 0x51C JUMPI JUMP JUMPDEST SWAP2 PUSH0 NOT DUP3 DUP5 MULMOD SWAP3 DUP3 DUP2 MUL SWAP3 DUP4 DUP1 DUP7 LT SWAP6 SUB SWAP5 DUP1 DUP7 SUB SWAP6 EQ PUSH2 0x840 JUMPI DUP5 DUP4 GT ISZERO PUSH2 0x831 JUMPI DUP3 SWAP2 MULMOD PUSH1 0x1 DUP3 NOT ADD DUP3 AND DUP1 SWAP3 DIV PUSH1 0x2 DUP2 PUSH1 0x3 MUL XOR DUP1 DUP3 MUL PUSH1 0x2 SUB MUL DUP1 DUP3 MUL PUSH1 0x2 SUB MUL DUP1 DUP3 MUL PUSH1 0x2 SUB MUL DUP1 DUP3 MUL PUSH1 0x2 SUB MUL DUP1 DUP3 MUL PUSH1 0x2 SUB MUL DUP1 SWAP2 MUL PUSH1 0x2 SUB MUL SWAP4 PUSH1 0x1 DUP4 DUP1 PUSH0 SUB DIV ADD SWAP1 DUP5 DUP4 GT SWAP1 SUB MUL SWAP3 SUB DIV OR MUL SWAP1 JUMP JUMPDEST PUSH4 0x7F39B44D PUSH1 0xE0 SHL PUSH0 MSTORE PUSH1 0x4 PUSH0 REVERT JUMPDEST POP POP DUP1 SWAP3 POP ISZERO PUSH2 0x84E JUMPI DIV SWAP1 JUMP JUMPDEST PUSH4 0x9F932615 PUSH1 0xE0 SHL PUSH0 MSTORE PUSH1 0x4 PUSH0 REVERT INVALID LOG2 PUSH5 0x6970667358 0x22 SLT KECCAK256 0x24 BLOBHASH 0xAB 0x26 EOFCREATE 0xC8 EXTCODEHASH PUSH2 0xA629 0xCA PUSH16 0xD9660E3F51D7DC6D8E5AD6D8927209E8 0xB4 CALLDATALOAD PUSH32 0xD964736F6C634300081E00330000000000000000000000000000000000000000 "},"methodIdentifiers":{"canonicalExt0()":"cd852366","canonicalExt1()":"a6b12823","factory()":"c45a0155","getData((address,address,address,uint256,uint128,uint128,uint16,bool))":"3bd1104b","internalAlias0()":"dd82b275","internalAlias1()":"b24a485b","twapWindow()":"8107e133"}}}}}