{"contracts/Peripheral/flash_test/FlashSwapTwiceCallback.sol":{"FlashSwapTwiceCallback":{"abi":[{"inputs":[{"internalType":"bytes","name":"data","type":"bytes"}],"name":"flashCallback","outputs":[],"stateMutability":"nonpayable","type":"function"}],"evm":{"bytecode":{"linkReferences":{},"object":"60808060405234601557610290908161001a8239f35b5f80fdfe6080806040526004361015610012575f80fd5b5f3560e01c63e373923814610025575f80fd5b346101ac5760203660031901126101ac5760043567ffffffffffffffff81116101ac57366023820112156101ac57806004013567ffffffffffffffff81116101ac5781013660248201116101ac5760e090829003126101ac5761008a602482016101b8565b610096604483016101b8565b6100a2606484016101b8565b6100ae608485016101b8565b9260a4850135906001600160e81b0319821682036101ac5763364af21360e21b87526001600160a01b039485169692851694908116931691602081806100ff60c48a0135868c8b8a60048701610211565b03815f885af1801561017657610181575b5060209461013c60e4935f93604051998a988997889663364af21360e21b885201359360048701610211565b03925af180156101765761014c57005b61016d9060203d60201161016f575b61016581836101cc565b810190610202565b005b503d61015b565b6040513d5f823e3d90fd5b946020863d6020116101b0575b8161019b602093836101cc565b810103126101ac5794506020610110565b5f80fd5b3d915061018e565b35906001600160a01b03821682036101ac57565b90601f8019910116810190811067ffffffffffffffff8211176101ee57604052565b634e487b7160e01b5f52604160045260245ffd5b908160209103126101ac575190565b6001600160a01b039182168152918116602083015290911660408201526001600160e81b031990911660608201526080810191909152600160a08201525f60c082015260e0019056fea2646970667358221220ec8cae617519897827c9aef576a25c3799828da6ae9744bb5f4933b625cdcdba64736f6c634300081e0033","opcodes":"PUSH1 0x80 DUP1 PUSH1 0x40 MSTORE CALLVALUE PUSH1 0x15 JUMPI PUSH2 0x290 SWAP1 DUP2 PUSH2 0x1A DUP3 CODECOPY RETURN JUMPDEST PUSH0 DUP1 REVERT INVALID PUSH1 0x80 DUP1 PUSH1 0x40 MSTORE PUSH1 0x4 CALLDATASIZE LT ISZERO PUSH2 0x12 JUMPI PUSH0 DUP1 REVERT JUMPDEST PUSH0 CALLDATALOAD PUSH1 0xE0 SHR PUSH4 0xE3739238 EQ PUSH2 0x25 JUMPI PUSH0 DUP1 REVERT JUMPDEST CALLVALUE PUSH2 0x1AC JUMPI PUSH1 0x20 CALLDATASIZE PUSH1 0x3 NOT ADD SLT PUSH2 0x1AC JUMPI PUSH1 0x4 CALLDATALOAD PUSH8 0xFFFFFFFFFFFFFFFF DUP2 GT PUSH2 0x1AC JUMPI CALLDATASIZE PUSH1 0x23 DUP3 ADD SLT ISZERO PUSH2 0x1AC JUMPI DUP1 PUSH1 0x4 ADD CALLDATALOAD PUSH8 0xFFFFFFFFFFFFFFFF DUP2 GT PUSH2 0x1AC JUMPI DUP2 ADD CALLDATASIZE PUSH1 0x24 DUP3 ADD GT PUSH2 0x1AC JUMPI PUSH1 0xE0 SWAP1 DUP3 SWAP1 SUB SLT PUSH2 0x1AC JUMPI PUSH2 0x8A PUSH1 0x24 DUP3 ADD PUSH2 0x1B8 JUMP JUMPDEST PUSH2 0x96 PUSH1 0x44 DUP4 ADD PUSH2 0x1B8 JUMP JUMPDEST PUSH2 0xA2 PUSH1 0x64 DUP5 ADD PUSH2 0x1B8 JUMP JUMPDEST PUSH2 0xAE PUSH1 0x84 DUP6 ADD PUSH2 0x1B8 JUMP JUMPDEST SWAP3 PUSH1 0xA4 DUP6 ADD CALLDATALOAD SWAP1 PUSH1 0x1 PUSH1 0x1 PUSH1 0xE8 SHL SUB NOT DUP3 AND DUP3 SUB PUSH2 0x1AC JUMPI PUSH4 0x364AF213 PUSH1 0xE2 SHL DUP8 MSTORE PUSH1 0x1 PUSH1 0x1 PUSH1 0xA0 SHL SUB SWAP5 DUP6 AND SWAP7 SWAP3 DUP6 AND SWAP5 SWAP1 DUP2 AND SWAP4 AND SWAP2 PUSH1 0x20 DUP2 DUP1 PUSH2 0xFF PUSH1 0xC4 DUP11 ADD CALLDATALOAD DUP7 DUP13 DUP12 DUP11 PUSH1 0x4 DUP8 ADD PUSH2 0x211 JUMP JUMPDEST SUB DUP2 PUSH0 DUP9 GAS CALL DUP1 ISZERO PUSH2 0x176 JUMPI PUSH2 0x181 JUMPI JUMPDEST POP PUSH1 0x20 SWAP5 PUSH2 0x13C PUSH1 0xE4 SWAP4 PUSH0 SWAP4 PUSH1 0x40 MLOAD SWAP10 DUP11 SWAP9 DUP10 SWAP8 DUP9 SWAP7 PUSH4 0x364AF213 PUSH1 0xE2 SHL DUP9 MSTORE ADD CALLDATALOAD SWAP4 PUSH1 0x4 DUP8 ADD PUSH2 0x211 JUMP JUMPDEST SUB SWAP3 GAS CALL DUP1 ISZERO PUSH2 0x176 JUMPI PUSH2 0x14C JUMPI STOP JUMPDEST PUSH2 0x16D SWAP1 PUSH1 0x20 RETURNDATASIZE PUSH1 0x20 GT PUSH2 0x16F JUMPI JUMPDEST PUSH2 0x165 DUP2 DUP4 PUSH2 0x1CC JUMP JUMPDEST DUP2 ADD SWAP1 PUSH2 0x202 JUMP JUMPDEST STOP JUMPDEST POP RETURNDATASIZE PUSH2 0x15B JUMP JUMPDEST PUSH1 0x40 MLOAD RETURNDATASIZE PUSH0 DUP3 RETURNDATACOPY RETURNDATASIZE SWAP1 REVERT JUMPDEST SWAP5 PUSH1 0x20 DUP7 RETURNDATASIZE PUSH1 0x20 GT PUSH2 0x1B0 JUMPI JUMPDEST DUP2 PUSH2 0x19B PUSH1 0x20 SWAP4 DUP4 PUSH2 0x1CC JUMP JUMPDEST DUP2 ADD SUB SLT PUSH2 0x1AC JUMPI SWAP5 POP PUSH1 0x20 PUSH2 0x110 JUMP JUMPDEST PUSH0 DUP1 REVERT JUMPDEST RETURNDATASIZE SWAP2 POP PUSH2 0x18E JUMP JUMPDEST CALLDATALOAD SWAP1 PUSH1 0x1 PUSH1 0x1 PUSH1 0xA0 SHL SUB DUP3 AND DUP3 SUB PUSH2 0x1AC JUMPI JUMP JUMPDEST SWAP1 PUSH1 0x1F DUP1 NOT SWAP2 ADD AND DUP2 ADD SWAP1 DUP2 LT PUSH8 0xFFFFFFFFFFFFFFFF DUP3 GT OR PUSH2 0x1EE JUMPI PUSH1 0x40 MSTORE JUMP JUMPDEST PUSH4 0x4E487B71 PUSH1 0xE0 SHL PUSH0 MSTORE PUSH1 0x41 PUSH1 0x4 MSTORE PUSH1 0x24 PUSH0 REVERT JUMPDEST SWAP1 DUP2 PUSH1 0x20 SWAP2 SUB SLT PUSH2 0x1AC JUMPI MLOAD SWAP1 JUMP JUMPDEST PUSH1 0x1 PUSH1 0x1 PUSH1 0xA0 SHL SUB SWAP2 DUP3 AND DUP2 MSTORE SWAP2 DUP2 AND PUSH1 0x20 DUP4 ADD MSTORE SWAP1 SWAP2 AND PUSH1 0x40 DUP3 ADD MSTORE PUSH1 0x1 PUSH1 0x1 PUSH1 0xE8 SHL SUB NOT SWAP1 SWAP2 AND PUSH1 0x60 DUP3 ADD MSTORE PUSH1 0x80 DUP2 ADD SWAP2 SWAP1 SWAP2 MSTORE PUSH1 0x1 PUSH1 0xA0 DUP3 ADD MSTORE PUSH0 PUSH1 0xC0 DUP3 ADD MSTORE PUSH1 0xE0 ADD SWAP1 JUMP INVALID LOG2 PUSH5 0x6970667358 0x22 SLT KECCAK256 EOFCREATE 0x8C 0xAE PUSH2 0x7519 DUP10 PUSH25 0x27C9AEF576A25C3799828DA6AE9744BB5F4933B625CDCDBA64 PUSH20 0x6F6C634300081E00330000000000000000000000 "},"methodIdentifiers":{"flashCallback(bytes)":"e3739238"}}}}}