{"contracts/test/CREATE2Factory.sol":{"CREATE2Factory":{"abi":[{"anonymous":false,"inputs":[{"indexed":true,"internalType":"address","name":"addr","type":"address"},{"indexed":false,"internalType":"bytes32","name":"salt","type":"bytes32"}],"name":"Deployed","type":"event"},{"inputs":[{"internalType":"bytes","name":"bytecode","type":"bytes"},{"internalType":"bytes32","name":"salt","type":"bytes32"}],"name":"computeAddress","outputs":[{"internalType":"address","name":"","type":"address"}],"stateMutability":"view","type":"function"},{"inputs":[{"internalType":"bytes","name":"bytecode","type":"bytes"},{"internalType":"bytes32","name":"salt","type":"bytes32"}],"name":"deploy","outputs":[{"internalType":"address","name":"addr","type":"address"}],"stateMutability":"nonpayable","type":"function"}],"evm":{"bytecode":{"linkReferences":{},"object":"60808060405234601557610239908161001a8239f35b5f80fdfe60806040526004361015610011575f80fd5b5f3560e01c80633e4b9f7a1461003457634af63f021461002f575f80fd5b61016c565b346100b1576100ad610093610048366100f0565b90602081519101209060405191602083019160ff60f81b83523060601b602185015260358401526055830152605582526100836075836100c9565b905190206001600160a01b031690565b6040516001600160a01b0390911681529081906020820190565b0390f35b5f80fd5b634e487b7160e01b5f52604160045260245ffd5b90601f8019910116810190811067ffffffffffffffff8211176100eb57604052565b6100b5565b60406003198201126100b15760043567ffffffffffffffff81116100b157816023820112156100b15780600401359067ffffffffffffffff82116100eb5760405192610146601f8401601f1916602001856100c9565b828452602483830101116100b157815f9260246020930183860137830101529060243590565b346100b15761017a366100f0565b815190916001600160a01b039183916020015ff5169081156101cd577f94bfd9af14ef450884c8a7ddb5734e2e1e14e70a1c84f0801cc5a29e34d2642860208392604051908152a2604051908152602090f35b60405162461bcd60e51b815260206004820152600e60248201526d10d4915055114c8819985a5b195960921b6044820152606490fdfea26469706673582212208cd862b17cc38bb9239c37bc0052e3f47e991d344dc8d1e7540d47f2ecb823a264736f6c634300081e0033","opcodes":"PUSH1 0x80 DUP1 PUSH1 0x40 MSTORE CALLVALUE PUSH1 0x15 JUMPI PUSH2 0x239 SWAP1 DUP2 PUSH2 0x1A DUP3 CODECOPY RETURN JUMPDEST PUSH0 DUP1 REVERT INVALID PUSH1 0x80 PUSH1 0x40 MSTORE PUSH1 0x4 CALLDATASIZE LT ISZERO PUSH2 0x11 JUMPI PUSH0 DUP1 REVERT JUMPDEST PUSH0 CALLDATALOAD PUSH1 0xE0 SHR DUP1 PUSH4 0x3E4B9F7A EQ PUSH2 0x34 JUMPI PUSH4 0x4AF63F02 EQ PUSH2 0x2F JUMPI PUSH0 DUP1 REVERT JUMPDEST PUSH2 0x16C JUMP JUMPDEST CALLVALUE PUSH2 0xB1 JUMPI PUSH2 0xAD PUSH2 0x93 PUSH2 0x48 CALLDATASIZE PUSH2 0xF0 JUMP JUMPDEST SWAP1 PUSH1 0x20 DUP2 MLOAD SWAP2 ADD KECCAK256 SWAP1 PUSH1 0x40 MLOAD SWAP2 PUSH1 0x20 DUP4 ADD SWAP2 PUSH1 0xFF PUSH1 0xF8 SHL DUP4 MSTORE ADDRESS PUSH1 0x60 SHL PUSH1 0x21 DUP6 ADD MSTORE PUSH1 0x35 DUP5 ADD MSTORE PUSH1 0x55 DUP4 ADD MSTORE PUSH1 0x55 DUP3 MSTORE PUSH2 0x83 PUSH1 0x75 DUP4 PUSH2 0xC9 JUMP JUMPDEST SWAP1 MLOAD SWAP1 KECCAK256 PUSH1 0x1 PUSH1 0x1 PUSH1 0xA0 SHL SUB AND SWAP1 JUMP JUMPDEST PUSH1 0x40 MLOAD PUSH1 0x1 PUSH1 0x1 PUSH1 0xA0 SHL SUB SWAP1 SWAP2 AND DUP2 MSTORE SWAP1 DUP2 SWAP1 PUSH1 0x20 DUP3 ADD SWAP1 JUMP JUMPDEST SUB SWAP1 RETURN JUMPDEST PUSH0 DUP1 REVERT JUMPDEST PUSH4 0x4E487B71 PUSH1 0xE0 SHL PUSH0 MSTORE PUSH1 0x41 PUSH1 0x4 MSTORE PUSH1 0x24 PUSH0 REVERT JUMPDEST SWAP1 PUSH1 0x1F DUP1 NOT SWAP2 ADD AND DUP2 ADD SWAP1 DUP2 LT PUSH8 0xFFFFFFFFFFFFFFFF DUP3 GT OR PUSH2 0xEB JUMPI PUSH1 0x40 MSTORE JUMP JUMPDEST PUSH2 0xB5 JUMP JUMPDEST PUSH1 0x40 PUSH1 0x3 NOT DUP3 ADD SLT PUSH2 0xB1 JUMPI PUSH1 0x4 CALLDATALOAD PUSH8 0xFFFFFFFFFFFFFFFF DUP2 GT PUSH2 0xB1 JUMPI DUP2 PUSH1 0x23 DUP3 ADD SLT ISZERO PUSH2 0xB1 JUMPI DUP1 PUSH1 0x4 ADD CALLDATALOAD SWAP1 PUSH8 0xFFFFFFFFFFFFFFFF DUP3 GT PUSH2 0xEB JUMPI PUSH1 0x40 MLOAD SWAP3 PUSH2 0x146 PUSH1 0x1F DUP5 ADD PUSH1 0x1F NOT AND PUSH1 0x20 ADD DUP6 PUSH2 0xC9 JUMP JUMPDEST DUP3 DUP5 MSTORE PUSH1 0x24 DUP4 DUP4 ADD ADD GT PUSH2 0xB1 JUMPI DUP2 PUSH0 SWAP3 PUSH1 0x24 PUSH1 0x20 SWAP4 ADD DUP4 DUP7 ADD CALLDATACOPY DUP4 ADD ADD MSTORE SWAP1 PUSH1 0x24 CALLDATALOAD SWAP1 JUMP JUMPDEST CALLVALUE PUSH2 0xB1 JUMPI PUSH2 0x17A CALLDATASIZE PUSH2 0xF0 JUMP JUMPDEST DUP2 MLOAD SWAP1 SWAP2 PUSH1 0x1 PUSH1 0x1 PUSH1 0xA0 SHL SUB SWAP2 DUP4 SWAP2 PUSH1 0x20 ADD PUSH0 CREATE2 AND SWAP1 DUP2 ISZERO PUSH2 0x1CD JUMPI PUSH32 0x94BFD9AF14EF450884C8A7DDB5734E2E1E14E70A1C84F0801CC5A29E34D26428 PUSH1 0x20 DUP4 SWAP3 PUSH1 0x40 MLOAD SWAP1 DUP2 MSTORE LOG2 PUSH1 0x40 MLOAD SWAP1 DUP2 MSTORE PUSH1 0x20 SWAP1 RETURN JUMPDEST PUSH1 0x40 MLOAD PUSH3 0x461BCD PUSH1 0xE5 SHL DUP2 MSTORE PUSH1 0x20 PUSH1 0x4 DUP3 ADD MSTORE PUSH1 0xE PUSH1 0x24 DUP3 ADD MSTORE PUSH14 0x10D4915055114C8819985A5B1959 PUSH1 0x92 SHL PUSH1 0x44 DUP3 ADD MSTORE PUSH1 0x64 SWAP1 REVERT INVALID LOG2 PUSH5 0x6970667358 0x22 SLT KECCAK256 DUP13 0xD8 PUSH3 0xB17CC3 DUP12 0xB9 0x23 SWAP13 CALLDATACOPY 0xBC STOP MSTORE CALLF 0xF47E SWAP10 SAR CALLVALUE 0x4D 0xC8 DATALOADN 0xE754 0xD SELFBALANCE CALLCODE EOFCREATE 0xB8 0x23 LOG2 PUSH5 0x736F6C6343 STOP ADDMOD 0x1E STOP CALLER "},"methodIdentifiers":{"computeAddress(bytes,bytes32)":"3e4b9f7a","deploy(bytes,bytes32)":"4af63f02"}}}}}