{"contracts/Peripheral/quoters/adapters/DataAdapterHelper.sol":{"DataAdapterHelper":{"abi":[{"inputs":[{"internalType":"bytes","name":"rawData","type":"bytes"}],"name":"decodeChainlink","outputs":[{"internalType":"uint256","name":"spot","type":"uint256"},{"internalType":"uint256","name":"updatedAt","type":"uint256"}],"stateMutability":"pure","type":"function"},{"inputs":[{"internalType":"bytes","name":"rawData","type":"bytes"}],"name":"decodeRedStone","outputs":[{"internalType":"uint256","name":"spot","type":"uint256"},{"internalType":"uint256","name":"updatedAt","type":"uint256"}],"stateMutability":"pure","type":"function"},{"inputs":[{"internalType":"bytes","name":"rawData","type":"bytes"}],"name":"decodeV2Data","outputs":[{"internalType":"uint256","name":"spot","type":"uint256"},{"internalType":"uint256","name":"twap","type":"uint256"}],"stateMutability":"pure","type":"function"},{"inputs":[{"internalType":"bytes","name":"rawData","type":"bytes"}],"name":"decodeV3Data","outputs":[{"internalType":"uint256","name":"spot","type":"uint256"},{"internalType":"uint256","name":"spot2","type":"uint256"}],"stateMutability":"pure","type":"function"},{"inputs":[{"internalType":"bytes","name":"rawData","type":"bytes"}],"name":"decodeV3TWAP","outputs":[{"internalType":"uint256","name":"spot","type":"uint256"},{"internalType":"uint256","name":"twap","type":"uint256"}],"stateMutability":"pure","type":"function"}],"evm":{"bytecode":{"linkReferences":{},"object":"6080806040523460155761014e908161001a8239f35b5f80fdfe60806040526004361015610011575f80fd5b5f3560e01c80630a58ef98146100505780632b6b36571461005057806388f6a80d146100505780638b12d09c146100505763cc1b89d214610050575f80fd5b346101005760203660031901126101005760043567ffffffffffffffff8111610100573660238201121561010057806004013567ffffffffffffffff81116101045760405190601f8101601f19908116603f0116820167ffffffffffffffff811183821017610104576040528082526020820192366024838301011161010057815f9260246020930186378301015260408180518101031261010057604080925191015182519182526020820152f35b5f80fd5b634e487b7160e01b5f52604160045260245ffdfea26469706673582212206325617a1b2b75b1b6ee05e361abf29740f00ba00353569b52307975bc97008264736f6c634300081e0033","opcodes":"PUSH1 0x80 DUP1 PUSH1 0x40 MSTORE CALLVALUE PUSH1 0x15 JUMPI PUSH2 0x14E SWAP1 DUP2 PUSH2 0x1A DUP3 CODECOPY RETURN JUMPDEST PUSH0 DUP1 REVERT INVALID PUSH1 0x80 PUSH1 0x40 MSTORE PUSH1 0x4 CALLDATASIZE LT ISZERO PUSH2 0x11 JUMPI PUSH0 DUP1 REVERT JUMPDEST PUSH0 CALLDATALOAD PUSH1 0xE0 SHR DUP1 PUSH4 0xA58EF98 EQ PUSH2 0x50 JUMPI DUP1 PUSH4 0x2B6B3657 EQ PUSH2 0x50 JUMPI DUP1 PUSH4 0x88F6A80D EQ PUSH2 0x50 JUMPI DUP1 PUSH4 0x8B12D09C EQ PUSH2 0x50 JUMPI PUSH4 0xCC1B89D2 EQ PUSH2 0x50 JUMPI PUSH0 DUP1 REVERT JUMPDEST CALLVALUE PUSH2 0x100 JUMPI PUSH1 0x20 CALLDATASIZE PUSH1 0x3 NOT ADD SLT PUSH2 0x100 JUMPI PUSH1 0x4 CALLDATALOAD PUSH8 0xFFFFFFFFFFFFFFFF DUP2 GT PUSH2 0x100 JUMPI CALLDATASIZE PUSH1 0x23 DUP3 ADD SLT ISZERO PUSH2 0x100 JUMPI DUP1 PUSH1 0x4 ADD CALLDATALOAD PUSH8 0xFFFFFFFFFFFFFFFF DUP2 GT PUSH2 0x104 JUMPI PUSH1 0x40 MLOAD SWAP1 PUSH1 0x1F DUP2 ADD PUSH1 0x1F NOT SWAP1 DUP2 AND PUSH1 0x3F ADD AND DUP3 ADD PUSH8 0xFFFFFFFFFFFFFFFF DUP2 GT DUP4 DUP3 LT OR PUSH2 0x104 JUMPI PUSH1 0x40 MSTORE DUP1 DUP3 MSTORE PUSH1 0x20 DUP3 ADD SWAP3 CALLDATASIZE PUSH1 0x24 DUP4 DUP4 ADD ADD GT PUSH2 0x100 JUMPI DUP2 PUSH0 SWAP3 PUSH1 0x24 PUSH1 0x20 SWAP4 ADD DUP7 CALLDATACOPY DUP4 ADD ADD MSTORE PUSH1 0x40 DUP2 DUP1 MLOAD DUP2 ADD SUB SLT PUSH2 0x100 JUMPI PUSH1 0x40 DUP1 SWAP3 MLOAD SWAP2 ADD MLOAD DUP3 MLOAD SWAP2 DUP3 MSTORE PUSH1 0x20 DUP3 ADD MSTORE RETURN JUMPDEST PUSH0 DUP1 REVERT JUMPDEST PUSH4 0x4E487B71 PUSH1 0xE0 SHL PUSH0 MSTORE PUSH1 0x41 PUSH1 0x4 MSTORE PUSH1 0x24 PUSH0 REVERT INVALID LOG2 PUSH5 0x6970667358 0x22 SLT KECCAK256 PUSH4 0x25617A1B 0x2B PUSH22 0xB1B6EE05E361ABF29740F00BA00353569B52307975BC SWAP8 STOP DUP3 PUSH5 0x736F6C6343 STOP ADDMOD 0x1E STOP CALLER "},"methodIdentifiers":{"decodeChainlink(bytes)":"cc1b89d2","decodeRedStone(bytes)":"88f6a80d","decodeV2Data(bytes)":"0a58ef98","decodeV3Data(bytes)":"2b6b3657","decodeV3TWAP(bytes)":"8b12d09c"}}}}}