{"contracts/Peripheral/quoters/dummyRealData/V3DataRedStoneQuoterFixed.sol":{"V3DataRedStoneQuoterFixed":{"abi":[{"inputs":[{"internalType":"address","name":"_v3dataBridge","type":"address"},{"internalType":"address","name":"_redstoneBridge","type":"address"}],"stateMutability":"nonpayable","type":"constructor"},{"inputs":[{"components":[{"internalType":"address","name":"asset0","type":"address"},{"internalType":"address","name":"asset1","type":"address"},{"internalType":"address","name":"quoter","type":"address"},{"internalType":"uint256","name":"amount","type":"uint256"},{"internalType":"uint128","name":"asset0Balance","type":"uint128"},{"internalType":"uint128","name":"asset1Balance","type":"uint128"},{"internalType":"uint16","name":"bucketID","type":"uint16"},{"internalType":"bool","name":"zeroForOne","type":"bool"}],"internalType":"struct QuoteParams","name":"params","type":"tuple"},{"internalType":"bytes","name":"","type":"bytes"}],"name":"quote","outputs":[{"internalType":"uint256","name":"","type":"uint256"}],"stateMutability":"nonpayable","type":"function"},{"inputs":[{"components":[{"internalType":"address","name":"asset0","type":"address"},{"internalType":"address","name":"asset1","type":"address"},{"internalType":"address","name":"quoter","type":"address"},{"internalType":"uint256[]","name":"amount","type":"uint256[]"},{"internalType":"uint128[]","name":"asset0Balances","type":"uint128[]"},{"internalType":"uint128[]","name":"asset1Balances","type":"uint128[]"},{"internalType":"uint16[]","name":"bucketID","type":"uint16[]"},{"internalType":"bool","name":"zeroForOne","type":"bool"}],"internalType":"struct QuoteParamsBatch","name":"params","type":"tuple"},{"internalType":"bytes","name":"","type":"bytes"}],"name":"quoteBatch","outputs":[{"internalType":"uint256[]","name":"quotes","type":"uint256[]"}],"stateMutability":"nonpayable","type":"function"},{"inputs":[],"name":"redstoneBridge","outputs":[{"internalType":"contract IDataBridge","name":"","type":"address"}],"stateMutability":"view","type":"function"},{"inputs":[],"name":"v3dataBridge","outputs":[{"internalType":"contract IDataBridge","name":"","type":"address"}],"stateMutability":"view","type":"function"}],"evm":{"bytecode":{"linkReferences":{},"object":"60c03461009357601f610ca838819003918201601f19168301916001600160401b0383118484101761009757808492604094855283398101031261009357610052602061004b836100ab565b92016100ab565b6001600160a01b039182166080521660a052604051610be890816100c0823960805181818161041e0152610564015260a0518181816105c201526107c70152f35b5f80fd5b634e487b7160e01b5f52604160045260245ffd5b51906001600160a01b03821682036100935756fe6080806040526004361015610012575f80fd5b5f3560e01c9081632aa78cc8146107b5575080635e3344d01461044d578063ccb72658146104095763db90d10014610048575f80fd5b34610383576040366003190112610383576004356001600160401b0381116103835761010060031982360301126103835760405190610086826107f6565b61009281600401610862565b82526100a060248201610862565b91602081019283526100b460448301610862565b6040820190815260648301356001600160401b0381116103835783019236602385011215610383576004840135936100eb856108d7565b946100f96040519687610841565b808652602060048188019260051b840101019136831161038357602401905b8282106103f9575050506060830193845260848101356001600160401b0381116103835761014c90600436918401016108ee565b906080840191825260a48101356001600160401b0381116103835761017790600436918401016108ee565b60a0850190815260c48201356001600160401b03811161038357820191366023840112156103835760048301356101ad816108d7565b936101bb6040519586610841565b818552602060048187019360051b830101019036821161038357602401915b8183106103de5750505060c0860192835260e401359283151584036103835760e086019384526024356001600160401b0381116103835761021f903690600401610891565b5086515195610246610230886108d7565b9761023e604051998a610841565b8089526108d7565b602088019190601f19013683375f5b895190815181101561039a5782518c518a516001600160a01b0392831694918316921690610284908490610a77565b518388519061029291610a77565b516001600160801b0316848a51906102a991610a77565b516001600160801b031691858c51906102c191610a77565b5161ffff16938d51151595604051986102d98a6107f6565b8952602089015260408801526060870152608086015260a085015260c084015260e0830152604051916305e3344d60e41b835260048301610319916109be565b6101206101048301525f6101248301528180305a925f61014492602095f1801561038f575f90610359575b60019250610352828c610a77565b5201610255565b506020823d8211610387575b8161037260209383610841565b810103126103835760019151610344565b5f80fd5b3d9150610365565b6040513d5f823e3d90fd5b838a604051918291602083019060208452518091526040830191905f5b8181106103c5575050500390f35b82518452859450602093840193909201916001016103b7565b823561ffff81168103610383578152602092830192016101da565b8135815260209182019101610118565b34610383575f366003190112610383576040517f00000000000000000000000000000000000000000000000000000000000000006001600160a01b03168152602090f35b346103835736600319016101208112610383576101001361038357604051610474816107f6565b6004356001600160a01b03811681036103835781526024356001600160a01b03811681036103835760208201526044356001600160a01b038116810361038357604082015260608101906064358252608435916001600160801b0383168303610383576080820192835260a435926001600160801b03841684036103835760a0830193845260c43561ffff811681036103835760c084015260e4359384151585036103835760e08401948552610104356001600160401b03811161038357610540903690600401610891565b50604051633bd1104b60e01b815261055b60048201866109be565b5f8161010481837f00000000000000000000000000000000000000000000000000000000000000006001600160a01b03165af190811561038f575f9161079b575b50604051633bd1104b60e01b8152946105b99060048701906109be565b5f8561010481837f00000000000000000000000000000000000000000000000000000000000000006001600160a01b03165af194851561038f575f9561076f575b5061060761060d91610ad9565b94610b48565b945f955f95606081015161074c575b50606081015115158061073d575b610709575b5051156106e357826001600160801b036106556106609382610666975191511690610a39565b935116905190610a4c565b90610a59565b915b816106a8575b50506103e38102908082046103e31490151715610694576020906103e860405191048152f35b634e487b7160e01b5f52601160045260245ffd5b916064826106bc6106d0946103e896610a59565b50106106d85761ffff6103f75b1690610a39565b04818061066e565b61ffff6103f06106c9565b90826001600160801b036106556106609382610703975191511690610a39565b91610668565b95909495516032810290808204603214901517156106945761072a91610a4c565b946032810180911161069457938661062f565b5061074781610b91565b61062a565b91965094505160328102908082046032149015171561069457946032948761061c565b61060d919550610793610607913d805f833e61078b8183610841565b81019061095c565b9591506105fa565b6107af91503d805f833e61078b8183610841565b8661059c565b34610383575f366003190112610383577f00000000000000000000000000000000000000000000000000000000000000006001600160a01b03168152602090f35b61010081019081106001600160401b0382111761081257604052565b634e487b7160e01b5f52604160045260245ffd5b608081019081106001600160401b0382111761081257604052565b90601f801991011681019081106001600160401b0382111761081257604052565b35906001600160a01b038216820361038357565b6001600160401b03811161081257601f01601f191660200190565b81601f82011215610383578035906108a882610876565b926108b66040519485610841565b8284526020838301011161038357815f926020809301838601378301015290565b6001600160401b0381116108125760051b60200190565b9080601f8301121561038357813590610906826108d7565b926109146040519485610841565b82845260208085019360051b82010191821161038357602001915b81831061093c5750505090565b82356001600160801b03811681036103835781526020928301920161092f565b602081830312610383578051906001600160401b038211610383570181601f820112156103835780519061098f82610876565b9261099d6040519485610841565b8284526020838301011161038357815f9260208093018386015e8301015290565b60e0809160018060a01b03815116845260018060a01b03602082015116602085015260018060a01b036040820151166040850152606081015160608501526001600160801b0360808201511660808501526001600160801b0360a08201511660a085015261ffff60c08201511660c085015201511515910152565b8181029291811591840414171561069457565b9190820180921161069457565b8115610a63570490565b634e487b7160e01b5f52601260045260245ffd5b8051821015610a8b5760209160051b010190565b634e487b7160e01b5f52603260045260245ffd5b60405190610aac82610826565b5f6060838281528260208201528260408201520152565b9190826040910312610383576020825192015190565b610ae1610a9f565b50805115610b235780602080610afc93518301019101610ac3565b5060405190610b0a82610826565b8082525f60208301525f60408301521515606082015290565b50604051610b3081610826565b5f81525f60208201525f60408201525f606082015290565b610b50610a9f565b50805115610b235780602080610b6b93518301019101610ac3565b9060405191610b7983610826565b8183525f602084015260408301521515606082015290565b604001518015610bac57420342811161069457610708101590565b5060019056fea264697066735822122023931fdf6e55bc6c962e2e797535db5f2daa1b1d45ff27fb2ddefd6165bfbae564736f6c634300081e0033","opcodes":"PUSH1 0xC0 CALLVALUE PUSH2 0x93 JUMPI PUSH1 0x1F PUSH2 0xCA8 CODESIZE DUP2 SWAP1 SUB SWAP2 DUP3 ADD PUSH1 0x1F NOT AND DUP4 ADD SWAP2 PUSH1 0x1 PUSH1 0x1 PUSH1 0x40 SHL SUB DUP4 GT DUP5 DUP5 LT OR PUSH2 0x97 JUMPI DUP1 DUP5 SWAP3 PUSH1 0x40 SWAP5 DUP6 MSTORE DUP4 CODECOPY DUP2 ADD SUB SLT PUSH2 0x93 JUMPI PUSH2 0x52 PUSH1 0x20 PUSH2 0x4B DUP4 PUSH2 0xAB JUMP JUMPDEST SWAP3 ADD PUSH2 0xAB JUMP JUMPDEST PUSH1 0x1 PUSH1 0x1 PUSH1 0xA0 SHL SUB SWAP2 DUP3 AND PUSH1 0x80 MSTORE AND PUSH1 0xA0 MSTORE PUSH1 0x40 MLOAD PUSH2 0xBE8 SWAP1 DUP2 PUSH2 0xC0 DUP3 CODECOPY PUSH1 0x80 MLOAD DUP2 DUP2 DUP2 PUSH2 0x41E ADD MSTORE PUSH2 0x564 ADD MSTORE PUSH1 0xA0 MLOAD DUP2 DUP2 DUP2 PUSH2 0x5C2 ADD MSTORE PUSH2 0x7C7 ADD MSTORE RETURN JUMPDEST PUSH0 DUP1 REVERT JUMPDEST PUSH4 0x4E487B71 PUSH1 0xE0 SHL PUSH0 MSTORE PUSH1 0x41 PUSH1 0x4 MSTORE PUSH1 0x24 PUSH0 REVERT JUMPDEST MLOAD SWAP1 PUSH1 0x1 PUSH1 0x1 PUSH1 0xA0 SHL SUB DUP3 AND DUP3 SUB PUSH2 0x93 JUMPI JUMP INVALID PUSH1 0x80 DUP1 PUSH1 0x40 MSTORE PUSH1 0x4 CALLDATASIZE LT ISZERO PUSH2 0x12 JUMPI PUSH0 DUP1 REVERT JUMPDEST PUSH0 CALLDATALOAD PUSH1 0xE0 SHR SWAP1 DUP2 PUSH4 0x2AA78CC8 EQ PUSH2 0x7B5 JUMPI POP DUP1 PUSH4 0x5E3344D0 EQ PUSH2 0x44D JUMPI DUP1 PUSH4 0xCCB72658 EQ PUSH2 0x409 JUMPI PUSH4 0xDB90D100 EQ PUSH2 0x48 JUMPI PUSH0 DUP1 REVERT JUMPDEST CALLVALUE PUSH2 0x383 JUMPI PUSH1 0x40 CALLDATASIZE PUSH1 0x3 NOT ADD SLT PUSH2 0x383 JUMPI PUSH1 0x4 CALLDATALOAD PUSH1 0x1 PUSH1 0x1 PUSH1 0x40 SHL SUB DUP2 GT PUSH2 0x383 JUMPI PUSH2 0x100 PUSH1 0x3 NOT DUP3 CALLDATASIZE SUB ADD SLT PUSH2 0x383 JUMPI PUSH1 0x40 MLOAD SWAP1 PUSH2 0x86 DUP3 PUSH2 0x7F6 JUMP JUMPDEST PUSH2 0x92 DUP2 PUSH1 0x4 ADD PUSH2 0x862 JUMP JUMPDEST DUP3 MSTORE PUSH2 0xA0 PUSH1 0x24 DUP3 ADD PUSH2 0x862 JUMP JUMPDEST SWAP2 PUSH1 0x20 DUP2 ADD SWAP3 DUP4 MSTORE PUSH2 0xB4 PUSH1 0x44 DUP4 ADD PUSH2 0x862 JUMP JUMPDEST PUSH1 0x40 DUP3 ADD SWAP1 DUP2 MSTORE PUSH1 0x64 DUP4 ADD CALLDATALOAD PUSH1 0x1 PUSH1 0x1 PUSH1 0x40 SHL SUB DUP2 GT PUSH2 0x383 JUMPI DUP4 ADD SWAP3 CALLDATASIZE PUSH1 0x23 DUP6 ADD SLT ISZERO PUSH2 0x383 JUMPI PUSH1 0x4 DUP5 ADD CALLDATALOAD SWAP4 PUSH2 0xEB DUP6 PUSH2 0x8D7 JUMP JUMPDEST SWAP5 PUSH2 0xF9 PUSH1 0x40 MLOAD SWAP7 DUP8 PUSH2 0x841 JUMP JUMPDEST DUP1 DUP7 MSTORE PUSH1 0x20 PUSH1 0x4 DUP2 DUP9 ADD SWAP3 PUSH1 0x5 SHL DUP5 ADD ADD ADD SWAP2 CALLDATASIZE DUP4 GT PUSH2 0x383 JUMPI PUSH1 0x24 ADD SWAP1 JUMPDEST DUP3 DUP3 LT PUSH2 0x3F9 JUMPI POP POP POP PUSH1 0x60 DUP4 ADD SWAP4 DUP5 MSTORE PUSH1 0x84 DUP2 ADD CALLDATALOAD PUSH1 0x1 PUSH1 0x1 PUSH1 0x40 SHL SUB DUP2 GT PUSH2 0x383 JUMPI PUSH2 0x14C SWAP1 PUSH1 0x4 CALLDATASIZE SWAP2 DUP5 ADD ADD PUSH2 0x8EE JUMP JUMPDEST SWAP1 PUSH1 0x80 DUP5 ADD SWAP2 DUP3 MSTORE PUSH1 0xA4 DUP2 ADD CALLDATALOAD PUSH1 0x1 PUSH1 0x1 PUSH1 0x40 SHL SUB DUP2 GT PUSH2 0x383 JUMPI PUSH2 0x177 SWAP1 PUSH1 0x4 CALLDATASIZE SWAP2 DUP5 ADD ADD PUSH2 0x8EE JUMP JUMPDEST PUSH1 0xA0 DUP6 ADD SWAP1 DUP2 MSTORE PUSH1 0xC4 DUP3 ADD CALLDATALOAD PUSH1 0x1 PUSH1 0x1 PUSH1 0x40 SHL SUB DUP2 GT PUSH2 0x383 JUMPI DUP3 ADD SWAP2 CALLDATASIZE PUSH1 0x23 DUP5 ADD SLT ISZERO PUSH2 0x383 JUMPI PUSH1 0x4 DUP4 ADD CALLDATALOAD PUSH2 0x1AD DUP2 PUSH2 0x8D7 JUMP JUMPDEST SWAP4 PUSH2 0x1BB PUSH1 0x40 MLOAD SWAP6 DUP7 PUSH2 0x841 JUMP JUMPDEST DUP2 DUP6 MSTORE PUSH1 0x20 PUSH1 0x4 DUP2 DUP8 ADD SWAP4 PUSH1 0x5 SHL DUP4 ADD ADD ADD SWAP1 CALLDATASIZE DUP3 GT PUSH2 0x383 JUMPI PUSH1 0x24 ADD SWAP2 JUMPDEST DUP2 DUP4 LT PUSH2 0x3DE JUMPI POP POP POP PUSH1 0xC0 DUP7 ADD SWAP3 DUP4 MSTORE PUSH1 0xE4 ADD CALLDATALOAD SWAP3 DUP4 ISZERO ISZERO DUP5 SUB PUSH2 0x383 JUMPI PUSH1 0xE0 DUP7 ADD SWAP4 DUP5 MSTORE PUSH1 0x24 CALLDATALOAD PUSH1 0x1 PUSH1 0x1 PUSH1 0x40 SHL SUB DUP2 GT PUSH2 0x383 JUMPI PUSH2 0x21F SWAP1 CALLDATASIZE SWAP1 PUSH1 0x4 ADD PUSH2 0x891 JUMP JUMPDEST POP DUP7 MLOAD MLOAD SWAP6 PUSH2 0x246 PUSH2 0x230 DUP9 PUSH2 0x8D7 JUMP JUMPDEST SWAP8 PUSH2 0x23E PUSH1 0x40 MLOAD SWAP10 DUP11 PUSH2 0x841 JUMP JUMPDEST DUP1 DUP10 MSTORE PUSH2 0x8D7 JUMP JUMPDEST PUSH1 0x20 DUP9 ADD SWAP2 SWAP1 PUSH1 0x1F NOT ADD CALLDATASIZE DUP4 CALLDATACOPY PUSH0 JUMPDEST DUP10 MLOAD SWAP1 DUP2 MLOAD DUP2 LT ISZERO PUSH2 0x39A JUMPI DUP3 MLOAD DUP13 MLOAD DUP11 MLOAD PUSH1 0x1 PUSH1 0x1 PUSH1 0xA0 SHL SUB SWAP3 DUP4 AND SWAP5 SWAP2 DUP4 AND SWAP3 AND SWAP1 PUSH2 0x284 SWAP1 DUP5 SWAP1 PUSH2 0xA77 JUMP JUMPDEST MLOAD DUP4 DUP9 MLOAD SWAP1 PUSH2 0x292 SWAP2 PUSH2 0xA77 JUMP JUMPDEST MLOAD PUSH1 0x1 PUSH1 0x1 PUSH1 0x80 SHL SUB AND DUP5 DUP11 MLOAD SWAP1 PUSH2 0x2A9 SWAP2 PUSH2 0xA77 JUMP JUMPDEST MLOAD PUSH1 0x1 PUSH1 0x1 PUSH1 0x80 SHL SUB AND SWAP2 DUP6 DUP13 MLOAD SWAP1 PUSH2 0x2C1 SWAP2 PUSH2 0xA77 JUMP JUMPDEST MLOAD PUSH2 0xFFFF AND SWAP4 DUP14 MLOAD ISZERO ISZERO SWAP6 PUSH1 0x40 MLOAD SWAP9 PUSH2 0x2D9 DUP11 PUSH2 0x7F6 JUMP JUMPDEST DUP10 MSTORE PUSH1 0x20 DUP10 ADD MSTORE PUSH1 0x40 DUP9 ADD MSTORE PUSH1 0x60 DUP8 ADD MSTORE PUSH1 0x80 DUP7 ADD MSTORE PUSH1 0xA0 DUP6 ADD MSTORE PUSH1 0xC0 DUP5 ADD MSTORE PUSH1 0xE0 DUP4 ADD MSTORE PUSH1 0x40 MLOAD SWAP2 PUSH4 0x5E3344D PUSH1 0xE4 SHL DUP4 MSTORE PUSH1 0x4 DUP4 ADD PUSH2 0x319 SWAP2 PUSH2 0x9BE JUMP JUMPDEST PUSH2 0x120 PUSH2 0x104 DUP4 ADD MSTORE PUSH0 PUSH2 0x124 DUP4 ADD MSTORE DUP2 DUP1 ADDRESS GAS SWAP3 PUSH0 PUSH2 0x144 SWAP3 PUSH1 0x20 SWAP6 CALL DUP1 ISZERO PUSH2 0x38F JUMPI PUSH0 SWAP1 PUSH2 0x359 JUMPI JUMPDEST PUSH1 0x1 SWAP3 POP PUSH2 0x352 DUP3 DUP13 PUSH2 0xA77 JUMP JUMPDEST MSTORE ADD PUSH2 0x255 JUMP JUMPDEST POP PUSH1 0x20 DUP3 RETURNDATASIZE DUP3 GT PUSH2 0x387 JUMPI JUMPDEST DUP2 PUSH2 0x372 PUSH1 0x20 SWAP4 DUP4 PUSH2 0x841 JUMP JUMPDEST DUP2 ADD SUB SLT PUSH2 0x383 JUMPI PUSH1 0x1 SWAP2 MLOAD PUSH2 0x344 JUMP JUMPDEST PUSH0 DUP1 REVERT JUMPDEST RETURNDATASIZE SWAP2 POP PUSH2 0x365 JUMP JUMPDEST PUSH1 0x40 MLOAD RETURNDATASIZE PUSH0 DUP3 RETURNDATACOPY RETURNDATASIZE SWAP1 REVERT JUMPDEST DUP4 DUP11 PUSH1 0x40 MLOAD SWAP2 DUP3 SWAP2 PUSH1 0x20 DUP4 ADD SWAP1 PUSH1 0x20 DUP5 MSTORE MLOAD DUP1 SWAP2 MSTORE PUSH1 0x40 DUP4 ADD SWAP2 SWAP1 PUSH0 JUMPDEST DUP2 DUP2 LT PUSH2 0x3C5 JUMPI POP POP POP SUB SWAP1 RETURN JUMPDEST DUP3 MLOAD DUP5 MSTORE DUP6 SWAP5 POP PUSH1 0x20 SWAP4 DUP5 ADD SWAP4 SWAP1 SWAP3 ADD SWAP2 PUSH1 0x1 ADD PUSH2 0x3B7 JUMP JUMPDEST DUP3 CALLDATALOAD PUSH2 0xFFFF DUP2 AND DUP2 SUB PUSH2 0x383 JUMPI DUP2 MSTORE PUSH1 0x20 SWAP3 DUP4 ADD SWAP3 ADD PUSH2 0x1DA JUMP JUMPDEST DUP2 CALLDATALOAD DUP2 MSTORE PUSH1 0x20 SWAP2 DUP3 ADD SWAP2 ADD PUSH2 0x118 JUMP JUMPDEST CALLVALUE PUSH2 0x383 JUMPI PUSH0 CALLDATASIZE PUSH1 0x3 NOT ADD SLT PUSH2 0x383 JUMPI PUSH1 0x40 MLOAD PUSH32 0x0 PUSH1 0x1 PUSH1 0x1 PUSH1 0xA0 SHL SUB AND DUP2 MSTORE PUSH1 0x20 SWAP1 RETURN JUMPDEST CALLVALUE PUSH2 0x383 JUMPI CALLDATASIZE PUSH1 0x3 NOT ADD PUSH2 0x120 DUP2 SLT PUSH2 0x383 JUMPI PUSH2 0x100 SGT PUSH2 0x383 JUMPI PUSH1 0x40 MLOAD PUSH2 0x474 DUP2 PUSH2 0x7F6 JUMP JUMPDEST PUSH1 0x4 CALLDATALOAD PUSH1 0x1 PUSH1 0x1 PUSH1 0xA0 SHL SUB DUP2 AND DUP2 SUB PUSH2 0x383 JUMPI DUP2 MSTORE PUSH1 0x24 CALLDATALOAD PUSH1 0x1 PUSH1 0x1 PUSH1 0xA0 SHL SUB DUP2 AND DUP2 SUB PUSH2 0x383 JUMPI PUSH1 0x20 DUP3 ADD MSTORE PUSH1 0x44 CALLDATALOAD PUSH1 0x1 PUSH1 0x1 PUSH1 0xA0 SHL SUB DUP2 AND DUP2 SUB PUSH2 0x383 JUMPI PUSH1 0x40 DUP3 ADD MSTORE PUSH1 0x60 DUP2 ADD SWAP1 PUSH1 0x64 CALLDATALOAD DUP3 MSTORE PUSH1 0x84 CALLDATALOAD SWAP2 PUSH1 0x1 PUSH1 0x1 PUSH1 0x80 SHL SUB DUP4 AND DUP4 SUB PUSH2 0x383 JUMPI PUSH1 0x80 DUP3 ADD SWAP3 DUP4 MSTORE PUSH1 0xA4 CALLDATALOAD SWAP3 PUSH1 0x1 PUSH1 0x1 PUSH1 0x80 SHL SUB DUP5 AND DUP5 SUB PUSH2 0x383 JUMPI PUSH1 0xA0 DUP4 ADD SWAP4 DUP5 MSTORE PUSH1 0xC4 CALLDATALOAD PUSH2 0xFFFF DUP2 AND DUP2 SUB PUSH2 0x383 JUMPI PUSH1 0xC0 DUP5 ADD MSTORE PUSH1 0xE4 CALLDATALOAD SWAP4 DUP5 ISZERO ISZERO DUP6 SUB PUSH2 0x383 JUMPI PUSH1 0xE0 DUP5 ADD SWAP5 DUP6 MSTORE PUSH2 0x104 CALLDATALOAD PUSH1 0x1 PUSH1 0x1 PUSH1 0x40 SHL SUB DUP2 GT PUSH2 0x383 JUMPI PUSH2 0x540 SWAP1 CALLDATASIZE SWAP1 PUSH1 0x4 ADD PUSH2 0x891 JUMP JUMPDEST POP PUSH1 0x40 MLOAD PUSH4 0x3BD1104B PUSH1 0xE0 SHL DUP2 MSTORE PUSH2 0x55B PUSH1 0x4 DUP3 ADD DUP7 PUSH2 0x9BE JUMP JUMPDEST PUSH0 DUP2 PUSH2 0x104 DUP2 DUP4 PUSH32 0x0 PUSH1 0x1 PUSH1 0x1 PUSH1 0xA0 SHL SUB AND GAS CALL SWAP1 DUP2 ISZERO PUSH2 0x38F JUMPI PUSH0 SWAP2 PUSH2 0x79B JUMPI JUMPDEST POP PUSH1 0x40 MLOAD PUSH4 0x3BD1104B PUSH1 0xE0 SHL DUP2 MSTORE SWAP5 PUSH2 0x5B9 SWAP1 PUSH1 0x4 DUP8 ADD SWAP1 PUSH2 0x9BE JUMP JUMPDEST PUSH0 DUP6 PUSH2 0x104 DUP2 DUP4 PUSH32 0x0 PUSH1 0x1 PUSH1 0x1 PUSH1 0xA0 SHL SUB AND GAS CALL SWAP5 DUP6 ISZERO PUSH2 0x38F JUMPI PUSH0 SWAP6 PUSH2 0x76F JUMPI JUMPDEST POP PUSH2 0x607 PUSH2 0x60D SWAP2 PUSH2 0xAD9 JUMP JUMPDEST SWAP5 PUSH2 0xB48 JUMP JUMPDEST SWAP5 PUSH0 SWAP6 PUSH0 SWAP6 PUSH1 0x60 DUP2 ADD MLOAD PUSH2 0x74C JUMPI JUMPDEST POP PUSH1 0x60 DUP2 ADD MLOAD ISZERO ISZERO DUP1 PUSH2 0x73D JUMPI JUMPDEST PUSH2 0x709 JUMPI JUMPDEST POP MLOAD ISZERO PUSH2 0x6E3 JUMPI DUP3 PUSH1 0x1 PUSH1 0x1 PUSH1 0x80 SHL SUB PUSH2 0x655 PUSH2 0x660 SWAP4 DUP3 PUSH2 0x666 SWAP8 MLOAD SWAP2 MLOAD AND SWAP1 PUSH2 0xA39 JUMP JUMPDEST SWAP4 MLOAD AND SWAP1 MLOAD SWAP1 PUSH2 0xA4C JUMP JUMPDEST SWAP1 PUSH2 0xA59 JUMP JUMPDEST SWAP2 JUMPDEST DUP2 PUSH2 0x6A8 JUMPI JUMPDEST POP POP PUSH2 0x3E3 DUP2 MUL SWAP1 DUP1 DUP3 DIV PUSH2 0x3E3 EQ SWAP1 ISZERO OR ISZERO PUSH2 0x694 JUMPI PUSH1 0x20 SWAP1 PUSH2 0x3E8 PUSH1 0x40 MLOAD SWAP2 DIV DUP2 MSTORE RETURN JUMPDEST PUSH4 0x4E487B71 PUSH1 0xE0 SHL PUSH0 MSTORE PUSH1 0x11 PUSH1 0x4 MSTORE PUSH1 0x24 PUSH0 REVERT JUMPDEST SWAP2 PUSH1 0x64 DUP3 PUSH2 0x6BC PUSH2 0x6D0 SWAP5 PUSH2 0x3E8 SWAP7 PUSH2 0xA59 JUMP JUMPDEST POP LT PUSH2 0x6D8 JUMPI PUSH2 0xFFFF PUSH2 0x3F7 JUMPDEST AND SWAP1 PUSH2 0xA39 JUMP JUMPDEST DIV DUP2 DUP1 PUSH2 0x66E JUMP JUMPDEST PUSH2 0xFFFF PUSH2 0x3F0 PUSH2 0x6C9 JUMP JUMPDEST SWAP1 DUP3 PUSH1 0x1 PUSH1 0x1 PUSH1 0x80 SHL SUB PUSH2 0x655 PUSH2 0x660 SWAP4 DUP3 PUSH2 0x703 SWAP8 MLOAD SWAP2 MLOAD AND SWAP1 PUSH2 0xA39 JUMP JUMPDEST SWAP2 PUSH2 0x668 JUMP JUMPDEST SWAP6 SWAP1 SWAP5 SWAP6 MLOAD PUSH1 0x32 DUP2 MUL SWAP1 DUP1 DUP3 DIV PUSH1 0x32 EQ SWAP1 ISZERO OR ISZERO PUSH2 0x694 JUMPI PUSH2 0x72A SWAP2 PUSH2 0xA4C JUMP JUMPDEST SWAP5 PUSH1 0x32 DUP2 ADD DUP1 SWAP2 GT PUSH2 0x694 JUMPI SWAP4 DUP7 PUSH2 0x62F JUMP JUMPDEST POP PUSH2 0x747 DUP2 PUSH2 0xB91 JUMP JUMPDEST PUSH2 0x62A JUMP JUMPDEST SWAP2 SWAP7 POP SWAP5 POP MLOAD PUSH1 0x32 DUP2 MUL SWAP1 DUP1 DUP3 DIV PUSH1 0x32 EQ SWAP1 ISZERO OR ISZERO PUSH2 0x694 JUMPI SWAP5 PUSH1 0x32 SWAP5 DUP8 PUSH2 0x61C JUMP JUMPDEST PUSH2 0x60D SWAP2 SWAP6 POP PUSH2 0x793 PUSH2 0x607 SWAP2 RETURNDATASIZE DUP1 PUSH0 DUP4 RETURNDATACOPY PUSH2 0x78B DUP2 DUP4 PUSH2 0x841 JUMP JUMPDEST DUP2 ADD SWAP1 PUSH2 0x95C JUMP JUMPDEST SWAP6 SWAP2 POP PUSH2 0x5FA JUMP JUMPDEST PUSH2 0x7AF SWAP2 POP RETURNDATASIZE DUP1 PUSH0 DUP4 RETURNDATACOPY PUSH2 0x78B DUP2 DUP4 PUSH2 0x841 JUMP JUMPDEST DUP7 PUSH2 0x59C JUMP JUMPDEST CALLVALUE PUSH2 0x383 JUMPI PUSH0 CALLDATASIZE PUSH1 0x3 NOT ADD SLT PUSH2 0x383 JUMPI PUSH32 0x0 PUSH1 0x1 PUSH1 0x1 PUSH1 0xA0 SHL SUB AND DUP2 MSTORE PUSH1 0x20 SWAP1 RETURN JUMPDEST PUSH2 0x100 DUP2 ADD SWAP1 DUP2 LT PUSH1 0x1 PUSH1 0x1 PUSH1 0x40 SHL SUB DUP3 GT OR PUSH2 0x812 JUMPI PUSH1 0x40 MSTORE JUMP JUMPDEST PUSH4 0x4E487B71 PUSH1 0xE0 SHL PUSH0 MSTORE PUSH1 0x41 PUSH1 0x4 MSTORE PUSH1 0x24 PUSH0 REVERT JUMPDEST PUSH1 0x80 DUP2 ADD SWAP1 DUP2 LT PUSH1 0x1 PUSH1 0x1 PUSH1 0x40 SHL SUB DUP3 GT OR PUSH2 0x812 JUMPI PUSH1 0x40 MSTORE JUMP JUMPDEST SWAP1 PUSH1 0x1F DUP1 NOT SWAP2 ADD AND DUP2 ADD SWAP1 DUP2 LT PUSH1 0x1 PUSH1 0x1 PUSH1 0x40 SHL SUB DUP3 GT OR PUSH2 0x812 JUMPI PUSH1 0x40 MSTORE JUMP JUMPDEST CALLDATALOAD SWAP1 PUSH1 0x1 PUSH1 0x1 PUSH1 0xA0 SHL SUB DUP3 AND DUP3 SUB PUSH2 0x383 JUMPI JUMP JUMPDEST PUSH1 0x1 PUSH1 0x1 PUSH1 0x40 SHL SUB DUP2 GT PUSH2 0x812 JUMPI PUSH1 0x1F ADD PUSH1 0x1F NOT AND PUSH1 0x20 ADD SWAP1 JUMP JUMPDEST DUP2 PUSH1 0x1F DUP3 ADD SLT ISZERO PUSH2 0x383 JUMPI DUP1 CALLDATALOAD SWAP1 PUSH2 0x8A8 DUP3 PUSH2 0x876 JUMP JUMPDEST SWAP3 PUSH2 0x8B6 PUSH1 0x40 MLOAD SWAP5 DUP6 PUSH2 0x841 JUMP JUMPDEST DUP3 DUP5 MSTORE PUSH1 0x20 DUP4 DUP4 ADD ADD GT PUSH2 0x383 JUMPI DUP2 PUSH0 SWAP3 PUSH1 0x20 DUP1 SWAP4 ADD DUP4 DUP7 ADD CALLDATACOPY DUP4 ADD ADD MSTORE SWAP1 JUMP JUMPDEST PUSH1 0x1 PUSH1 0x1 PUSH1 0x40 SHL SUB DUP2 GT PUSH2 0x812 JUMPI PUSH1 0x5 SHL PUSH1 0x20 ADD SWAP1 JUMP JUMPDEST SWAP1 DUP1 PUSH1 0x1F DUP4 ADD SLT ISZERO PUSH2 0x383 JUMPI DUP2 CALLDATALOAD SWAP1 PUSH2 0x906 DUP3 PUSH2 0x8D7 JUMP JUMPDEST SWAP3 PUSH2 0x914 PUSH1 0x40 MLOAD SWAP5 DUP6 PUSH2 0x841 JUMP JUMPDEST DUP3 DUP5 MSTORE PUSH1 0x20 DUP1 DUP6 ADD SWAP4 PUSH1 0x5 SHL DUP3 ADD ADD SWAP2 DUP3 GT PUSH2 0x383 JUMPI PUSH1 0x20 ADD SWAP2 JUMPDEST DUP2 DUP4 LT PUSH2 0x93C JUMPI POP POP POP SWAP1 JUMP JUMPDEST DUP3 CALLDATALOAD PUSH1 0x1 PUSH1 0x1 PUSH1 0x80 SHL SUB DUP2 AND DUP2 SUB PUSH2 0x383 JUMPI DUP2 MSTORE PUSH1 0x20 SWAP3 DUP4 ADD SWAP3 ADD PUSH2 0x92F JUMP JUMPDEST PUSH1 0x20 DUP2 DUP4 SUB SLT PUSH2 0x383 JUMPI DUP1 MLOAD SWAP1 PUSH1 0x1 PUSH1 0x1 PUSH1 0x40 SHL SUB DUP3 GT PUSH2 0x383 JUMPI ADD DUP2 PUSH1 0x1F DUP3 ADD SLT ISZERO PUSH2 0x383 JUMPI DUP1 MLOAD SWAP1 PUSH2 0x98F DUP3 PUSH2 0x876 JUMP JUMPDEST SWAP3 PUSH2 0x99D PUSH1 0x40 MLOAD SWAP5 DUP6 PUSH2 0x841 JUMP JUMPDEST DUP3 DUP5 MSTORE PUSH1 0x20 DUP4 DUP4 ADD ADD GT PUSH2 0x383 JUMPI DUP2 PUSH0 SWAP3 PUSH1 0x20 DUP1 SWAP4 ADD DUP4 DUP7 ADD MCOPY DUP4 ADD ADD MSTORE SWAP1 JUMP JUMPDEST PUSH1 0xE0 DUP1 SWAP2 PUSH1 0x1 DUP1 PUSH1 0xA0 SHL SUB DUP2 MLOAD AND DUP5 MSTORE PUSH1 0x1 DUP1 PUSH1 0xA0 SHL SUB PUSH1 0x20 DUP3 ADD MLOAD AND PUSH1 0x20 DUP6 ADD MSTORE PUSH1 0x1 DUP1 PUSH1 0xA0 SHL SUB PUSH1 0x40 DUP3 ADD MLOAD AND PUSH1 0x40 DUP6 ADD MSTORE PUSH1 0x60 DUP2 ADD MLOAD PUSH1 0x60 DUP6 ADD MSTORE PUSH1 0x1 PUSH1 0x1 PUSH1 0x80 SHL SUB PUSH1 0x80 DUP3 ADD MLOAD AND PUSH1 0x80 DUP6 ADD MSTORE PUSH1 0x1 PUSH1 0x1 PUSH1 0x80 SHL SUB PUSH1 0xA0 DUP3 ADD MLOAD AND PUSH1 0xA0 DUP6 ADD MSTORE PUSH2 0xFFFF PUSH1 0xC0 DUP3 ADD MLOAD AND PUSH1 0xC0 DUP6 ADD MSTORE ADD MLOAD ISZERO ISZERO SWAP2 ADD MSTORE JUMP JUMPDEST DUP2 DUP2 MUL SWAP3 SWAP2 DUP2 ISZERO SWAP2 DUP5 DIV EQ OR ISZERO PUSH2 0x694 JUMPI JUMP JUMPDEST SWAP2 SWAP1 DUP3 ADD DUP1 SWAP3 GT PUSH2 0x694 JUMPI JUMP JUMPDEST DUP2 ISZERO PUSH2 0xA63 JUMPI DIV SWAP1 JUMP JUMPDEST PUSH4 0x4E487B71 PUSH1 0xE0 SHL PUSH0 MSTORE PUSH1 0x12 PUSH1 0x4 MSTORE PUSH1 0x24 PUSH0 REVERT JUMPDEST DUP1 MLOAD DUP3 LT ISZERO PUSH2 0xA8B JUMPI PUSH1 0x20 SWAP2 PUSH1 0x5 SHL ADD ADD SWAP1 JUMP JUMPDEST PUSH4 0x4E487B71 PUSH1 0xE0 SHL PUSH0 MSTORE PUSH1 0x32 PUSH1 0x4 MSTORE PUSH1 0x24 PUSH0 REVERT JUMPDEST PUSH1 0x40 MLOAD SWAP1 PUSH2 0xAAC DUP3 PUSH2 0x826 JUMP JUMPDEST PUSH0 PUSH1 0x60 DUP4 DUP3 DUP2 MSTORE DUP3 PUSH1 0x20 DUP3 ADD MSTORE DUP3 PUSH1 0x40 DUP3 ADD MSTORE ADD MSTORE JUMP JUMPDEST SWAP2 SWAP1 DUP3 PUSH1 0x40 SWAP2 SUB SLT PUSH2 0x383 JUMPI PUSH1 0x20 DUP3 MLOAD SWAP3 ADD MLOAD SWAP1 JUMP JUMPDEST PUSH2 0xAE1 PUSH2 0xA9F JUMP JUMPDEST POP DUP1 MLOAD ISZERO PUSH2 0xB23 JUMPI DUP1 PUSH1 0x20 DUP1 PUSH2 0xAFC SWAP4 MLOAD DUP4 ADD ADD SWAP2 ADD PUSH2 0xAC3 JUMP JUMPDEST POP PUSH1 0x40 MLOAD SWAP1 PUSH2 0xB0A DUP3 PUSH2 0x826 JUMP JUMPDEST DUP1 DUP3 MSTORE PUSH0 PUSH1 0x20 DUP4 ADD MSTORE PUSH0 PUSH1 0x40 DUP4 ADD MSTORE ISZERO ISZERO PUSH1 0x60 DUP3 ADD MSTORE SWAP1 JUMP JUMPDEST POP PUSH1 0x40 MLOAD PUSH2 0xB30 DUP2 PUSH2 0x826 JUMP JUMPDEST PUSH0 DUP2 MSTORE PUSH0 PUSH1 0x20 DUP3 ADD MSTORE PUSH0 PUSH1 0x40 DUP3 ADD MSTORE PUSH0 PUSH1 0x60 DUP3 ADD MSTORE SWAP1 JUMP JUMPDEST PUSH2 0xB50 PUSH2 0xA9F JUMP JUMPDEST POP DUP1 MLOAD ISZERO PUSH2 0xB23 JUMPI DUP1 PUSH1 0x20 DUP1 PUSH2 0xB6B SWAP4 MLOAD DUP4 ADD ADD SWAP2 ADD PUSH2 0xAC3 JUMP JUMPDEST SWAP1 PUSH1 0x40 MLOAD SWAP2 PUSH2 0xB79 DUP4 PUSH2 0x826 JUMP JUMPDEST DUP2 DUP4 MSTORE PUSH0 PUSH1 0x20 DUP5 ADD MSTORE PUSH1 0x40 DUP4 ADD MSTORE ISZERO ISZERO PUSH1 0x60 DUP3 ADD MSTORE SWAP1 JUMP JUMPDEST PUSH1 0x40 ADD MLOAD DUP1 ISZERO PUSH2 0xBAC JUMPI TIMESTAMP SUB TIMESTAMP DUP2 GT PUSH2 0x694 JUMPI PUSH2 0x708 LT ISZERO SWAP1 JUMP JUMPDEST POP PUSH1 0x1 SWAP1 JUMP INVALID LOG2 PUSH5 0x6970667358 0x22 SLT KECCAK256 0x23 SWAP4 0x1F 0xDF PUSH15 0x55BC6C962E2E797535DB5F2DAA1B1D GASLIMIT SELFDESTRUCT 0x27 EXTSTATICCALL 0x2D 0xDE REVERT PUSH2 0x65BF 0xBA JUMPF 0x6473 PUSH16 0x6C634300081E00330000000000000000 "},"methodIdentifiers":{"quote((address,address,address,uint256,uint128,uint128,uint16,bool),bytes)":"5e3344d0","quoteBatch((address,address,address,uint256[],uint128[],uint128[],uint16[],bool),bytes)":"db90d100","redstoneBridge()":"2aa78cc8","v3dataBridge()":"ccb72658"}}}}}