{"contracts/Peripheral/quoters/dummyRealData/V2V3TWAPQuoterFixed.sol":{"V2V3TWAPQuoterFixed":{"abi":[{"inputs":[{"internalType":"address","name":"_uniV2Bridge","type":"address"},{"internalType":"address","name":"_sushiV2Bridge","type":"address"},{"internalType":"address","name":"_v3twapBridge","type":"address"}],"stateMutability":"nonpayable","type":"constructor"},{"inputs":[{"components":[{"internalType":"address","name":"asset0","type":"address"},{"internalType":"address","name":"asset1","type":"address"},{"internalType":"address","name":"quoter","type":"address"},{"internalType":"uint256","name":"amount","type":"uint256"},{"internalType":"uint128","name":"asset0Balance","type":"uint128"},{"internalType":"uint128","name":"asset1Balance","type":"uint128"},{"internalType":"uint16","name":"bucketID","type":"uint16"},{"internalType":"bool","name":"zeroForOne","type":"bool"}],"internalType":"struct QuoteParams","name":"params","type":"tuple"},{"internalType":"bytes","name":"","type":"bytes"}],"name":"quote","outputs":[{"internalType":"uint256","name":"","type":"uint256"}],"stateMutability":"nonpayable","type":"function"},{"inputs":[{"components":[{"internalType":"address","name":"asset0","type":"address"},{"internalType":"address","name":"asset1","type":"address"},{"internalType":"address","name":"quoter","type":"address"},{"internalType":"uint256[]","name":"amount","type":"uint256[]"},{"internalType":"uint128[]","name":"asset0Balances","type":"uint128[]"},{"internalType":"uint128[]","name":"asset1Balances","type":"uint128[]"},{"internalType":"uint16[]","name":"bucketID","type":"uint16[]"},{"internalType":"bool","name":"zeroForOne","type":"bool"}],"internalType":"struct QuoteParamsBatch","name":"params","type":"tuple"},{"internalType":"bytes","name":"","type":"bytes"}],"name":"quoteBatch","outputs":[{"internalType":"uint256[]","name":"quotes","type":"uint256[]"}],"stateMutability":"nonpayable","type":"function"},{"inputs":[],"name":"sushiV2Bridge","outputs":[{"internalType":"contract IDataBridge","name":"","type":"address"}],"stateMutability":"view","type":"function"},{"inputs":[],"name":"uniV2Bridge","outputs":[{"internalType":"contract IDataBridge","name":"","type":"address"}],"stateMutability":"view","type":"function"},{"inputs":[],"name":"v3twapBridge","outputs":[{"internalType":"contract IDataBridge","name":"","type":"address"}],"stateMutability":"view","type":"function"}],"evm":{"bytecode":{"linkReferences":{},"object":"60e0346100b757601f610e9638819003918201601f19168301916001600160401b038311848410176100bb578084926060946040528339810103126100b757610047816100cf565b906100606040610059602084016100cf565b92016100cf565b6001600160a01b0392831660805290821660a0521660c052604051610db290816100e4823960805181818161058f0152610952015260a05181818161042901526105ec015260c05181818161064a01526109930152f35b5f80fd5b634e487b7160e01b5f52604160045260245ffd5b51906001600160a01b03821682036100b75756fe6080806040526004361015610012575f80fd5b5f3560e01c9081633414c2a91461098157508063380cc26c1461093d5780635e3344d0146104585780637a65d3a1146104145763db90d10014610053575f80fd5b3461038e57604036600319011261038e576004356001600160401b03811161038e57610100600319823603011261038e5760405190610091826109c2565b61009d81600401610a2e565b82526100ab60248201610a2e565b91602081019283526100bf60448301610a2e565b6040820190815260648301356001600160401b03811161038e578301923660238501121561038e576004840135936100f685610aa3565b946101046040519687610a0d565b808652602060048188019260051b840101019136831161038e57602401905b828210610404575050506060830193845260848101356001600160401b03811161038e576101579060043691840101610aba565b906080840191825260a48101356001600160401b03811161038e576101829060043691840101610aba565b60a0850190815260c48201356001600160401b03811161038e578201913660238401121561038e5760048301356101b881610aa3565b936101c66040519586610a0d565b818552602060048187019360051b830101019036821161038e57602401915b8183106103e95750505060c0860192835260e4013592831515840361038e5760e086019384526024356001600160401b03811161038e5761022a903690600401610a5d565b508651519561025161023b88610aa3565b97610249604051998a610a0d565b808952610aa3565b602088019190601f19013683375f5b89519081518110156103a55782518c518a516001600160a01b039283169491831692169061028f908490610c05565b518388519061029d91610c05565b516001600160801b0316848a51906102b491610c05565b516001600160801b031691858c51906102cc91610c05565b5161ffff16938d51151595604051986102e48a6109c2565b8952602089015260408801526060870152608086015260a085015260c084015260e0830152604051916305e3344d60e41b83526004830161032491610b8a565b6101206101048301525f6101248301528180305a925f61014492602095f1801561039a575f90610364575b6001925061035d828c610c05565b5201610260565b506020823d8211610392575b8161037d60209383610a0d565b8101031261038e576001915161034f565b5f80fd5b3d9150610370565b6040513d5f823e3d90fd5b838a604051918291602083019060208452518091526040830191905f5b8181106103d0575050500390f35b82518452859450602093840193909201916001016103c2565b823561ffff8116810361038e578152602092830192016101e5565b8135815260209182019101610123565b3461038e575f36600319011261038e576040517f00000000000000000000000000000000000000000000000000000000000000006001600160a01b03168152602090f35b3461038e573660031901610120811261038e576101001361038e5760405161047f816109c2565b6004356001600160a01b038116810361038e5781526024356001600160a01b038116810361038e5760208201526044356001600160a01b038116810361038e57604082015260608101906064358252608435916001600160801b038316830361038e576080820192835260a435916001600160801b038316830361038e5760a0810192835260c43561ffff8116810361038e5760c082015260e43591821515830361038e5760e08201928352610104356001600160401b03811161038e5761054b903690600401610a5d565b506040519461055b608087610a0d565b6003865260208601926060368537604051633bd1104b60e01b81525f94906105866004820184610b8a565b5f8161010481837f00000000000000000000000000000000000000000000000000000000000000006001600160a01b03165af15f9181610921575b506108cb575b5050604051633bd1104b60e01b81526105e36004820183610b8a565b5f8161010481837f00000000000000000000000000000000000000000000000000000000000000006001600160a01b03165af15f91816108af575b5061086e575b50604051633bd1104b60e01b815290610641906004830190610b8a565b5f8161010481837f00000000000000000000000000000000000000000000000000000000000000006001600160a01b03165af15f918161084a575b50610803575b508215948515956107be575f965f5b85811061079d5750506103e89484602097948794610714946106b661071a998d610c48565b94511561077757826001600160801b036106dc6106e793826106ed975191511690610c66565b935116905190610c3b565b90610c48565b945b84928161076d575b50610740575b60038110610723575061ffff6103e65b1693610c66565b04610c66565b04604051908152f35b6002036107355761ffff6103e461070d565b61ffff6103e261070d565b90506003811061075357610406906106fd565b60028103610764576103fc906106fd565b6103f2906106fd565b90501515896106f7565b90826001600160801b036106dc6106e79382610797975191511690610c66565b946106ef565b90976107b66001916107af848c610c05565b5190610c3b565b989101610691565b60405162461bcd60e51b815260206004820152601760248201527f4e6f207072696365206461746120617661696c61626c650000000000000000006044820152606490fd5b61080c90610d21565b606081015115610682576020810151919361083b929091811561084257505b6108358289610c05565b52610c19565b9186610682565b90505161082b565b6108679192503d805f833e61085f8183610a0d565b810190610b28565b908861067c565b61087790610cb3565b60608101511561062457602081015191946108a092909181156108a757505b610835828a610c05565b9287610624565b905051610896565b6108c49192503d805f833e61085f8183610a0d565b908961061e565b6108d490610cb3565b6060810151156105c757602081015192955090919081156109185750905b875115610904575260019287806105c7565b634e487b7160e01b5f52603260045260245ffd5b905051906108f2565b6109369192503d805f833e61085f8183610a0d565b908a6105c1565b3461038e575f36600319011261038e576040517f00000000000000000000000000000000000000000000000000000000000000006001600160a01b03168152602090f35b3461038e575f36600319011261038e577f00000000000000000000000000000000000000000000000000000000000000006001600160a01b03168152602090f35b61010081019081106001600160401b038211176109de57604052565b634e487b7160e01b5f52604160045260245ffd5b608081019081106001600160401b038211176109de57604052565b90601f801991011681019081106001600160401b038211176109de57604052565b35906001600160a01b038216820361038e57565b6001600160401b0381116109de57601f01601f191660200190565b81601f8201121561038e57803590610a7482610a42565b92610a826040519485610a0d565b8284526020838301011161038e57815f926020809301838601378301015290565b6001600160401b0381116109de5760051b60200190565b9080601f8301121561038e57813590610ad282610aa3565b92610ae06040519485610a0d565b82845260208085019360051b82010191821161038e57602001915b818310610b085750505090565b82356001600160801b038116810361038e57815260209283019201610afb565b60208183031261038e578051906001600160401b03821161038e570181601f8201121561038e57805190610b5b82610a42565b92610b696040519485610a0d565b8284526020838301011161038e57815f9260208093018386015e8301015290565b60e0809160018060a01b03815116845260018060a01b03602082015116602085015260018060a01b036040820151166040850152606081015160608501526001600160801b0360808201511660808501526001600160801b0360a08201511660a085015261ffff60c08201511660c085015201511515910152565b80518210156109045760209160051b010190565b5f198114610c275760010190565b634e487b7160e01b5f52601160045260245ffd5b91908201809211610c2757565b8115610c52570490565b634e487b7160e01b5f52601260045260245ffd5b81810292918115918404141715610c2757565b60405190610c86826109f2565b5f6060838281528260208201528260408201520152565b919082604091031261038e576020825192015190565b610cbb610c79565b50805115610cfc5780602080610cd693518301019101610c9d565b9060405191610ce4836109f2565b81835260208301525f60408301521515606082015290565b50604051610d09816109f2565b5f81525f60208201525f60408201525f606082015290565b610d29610c79565b50805115610cfc5780602080610d4493518301019101610c9d565b8115159081610d72575b60405192610d5b846109f2565b835260208301525f60408301521515606082015290565b8015159150610d4e56fea2646970667358221220541708325bc5e80cb8c7e766540863ec2017d8e3f7050cf84bc5788cac24351064736f6c634300081e0033","opcodes":"PUSH1 0xE0 CALLVALUE PUSH2 0xB7 JUMPI PUSH1 0x1F PUSH2 0xE96 CODESIZE DUP2 SWAP1 SUB SWAP2 DUP3 ADD PUSH1 0x1F NOT AND DUP4 ADD SWAP2 PUSH1 0x1 PUSH1 0x1 PUSH1 0x40 SHL SUB DUP4 GT DUP5 DUP5 LT OR PUSH2 0xBB JUMPI DUP1 DUP5 SWAP3 PUSH1 0x60 SWAP5 PUSH1 0x40 MSTORE DUP4 CODECOPY DUP2 ADD SUB SLT PUSH2 0xB7 JUMPI PUSH2 0x47 DUP2 PUSH2 0xCF JUMP JUMPDEST SWAP1 PUSH2 0x60 PUSH1 0x40 PUSH2 0x59 PUSH1 0x20 DUP5 ADD PUSH2 0xCF JUMP JUMPDEST SWAP3 ADD PUSH2 0xCF JUMP JUMPDEST PUSH1 0x1 PUSH1 0x1 PUSH1 0xA0 SHL SUB SWAP3 DUP4 AND PUSH1 0x80 MSTORE SWAP1 DUP3 AND PUSH1 0xA0 MSTORE AND PUSH1 0xC0 MSTORE PUSH1 0x40 MLOAD PUSH2 0xDB2 SWAP1 DUP2 PUSH2 0xE4 DUP3 CODECOPY PUSH1 0x80 MLOAD DUP2 DUP2 DUP2 PUSH2 0x58F ADD MSTORE PUSH2 0x952 ADD MSTORE PUSH1 0xA0 MLOAD DUP2 DUP2 DUP2 PUSH2 0x429 ADD MSTORE PUSH2 0x5EC ADD MSTORE PUSH1 0xC0 MLOAD DUP2 DUP2 DUP2 PUSH2 0x64A ADD MSTORE PUSH2 0x993 ADD MSTORE RETURN JUMPDEST PUSH0 DUP1 REVERT JUMPDEST PUSH4 0x4E487B71 PUSH1 0xE0 SHL PUSH0 MSTORE PUSH1 0x41 PUSH1 0x4 MSTORE PUSH1 0x24 PUSH0 REVERT JUMPDEST MLOAD SWAP1 PUSH1 0x1 PUSH1 0x1 PUSH1 0xA0 SHL SUB DUP3 AND DUP3 SUB PUSH2 0xB7 JUMPI JUMP INVALID PUSH1 0x80 DUP1 PUSH1 0x40 MSTORE PUSH1 0x4 CALLDATASIZE LT ISZERO PUSH2 0x12 JUMPI PUSH0 DUP1 REVERT JUMPDEST PUSH0 CALLDATALOAD PUSH1 0xE0 SHR SWAP1 DUP2 PUSH4 0x3414C2A9 EQ PUSH2 0x981 JUMPI POP DUP1 PUSH4 0x380CC26C EQ PUSH2 0x93D JUMPI DUP1 PUSH4 0x5E3344D0 EQ PUSH2 0x458 JUMPI DUP1 PUSH4 0x7A65D3A1 EQ PUSH2 0x414 JUMPI PUSH4 0xDB90D100 EQ PUSH2 0x53 JUMPI PUSH0 DUP1 REVERT JUMPDEST CALLVALUE PUSH2 0x38E JUMPI PUSH1 0x40 CALLDATASIZE PUSH1 0x3 NOT ADD SLT PUSH2 0x38E JUMPI PUSH1 0x4 CALLDATALOAD PUSH1 0x1 PUSH1 0x1 PUSH1 0x40 SHL SUB DUP2 GT PUSH2 0x38E JUMPI PUSH2 0x100 PUSH1 0x3 NOT DUP3 CALLDATASIZE SUB ADD SLT PUSH2 0x38E JUMPI PUSH1 0x40 MLOAD SWAP1 PUSH2 0x91 DUP3 PUSH2 0x9C2 JUMP JUMPDEST PUSH2 0x9D DUP2 PUSH1 0x4 ADD PUSH2 0xA2E JUMP JUMPDEST DUP3 MSTORE PUSH2 0xAB PUSH1 0x24 DUP3 ADD PUSH2 0xA2E JUMP JUMPDEST SWAP2 PUSH1 0x20 DUP2 ADD SWAP3 DUP4 MSTORE PUSH2 0xBF PUSH1 0x44 DUP4 ADD PUSH2 0xA2E JUMP JUMPDEST PUSH1 0x40 DUP3 ADD SWAP1 DUP2 MSTORE PUSH1 0x64 DUP4 ADD CALLDATALOAD PUSH1 0x1 PUSH1 0x1 PUSH1 0x40 SHL SUB DUP2 GT PUSH2 0x38E JUMPI DUP4 ADD SWAP3 CALLDATASIZE PUSH1 0x23 DUP6 ADD SLT ISZERO PUSH2 0x38E JUMPI PUSH1 0x4 DUP5 ADD CALLDATALOAD SWAP4 PUSH2 0xF6 DUP6 PUSH2 0xAA3 JUMP JUMPDEST SWAP5 PUSH2 0x104 PUSH1 0x40 MLOAD SWAP7 DUP8 PUSH2 0xA0D JUMP JUMPDEST DUP1 DUP7 MSTORE PUSH1 0x20 PUSH1 0x4 DUP2 DUP9 ADD SWAP3 PUSH1 0x5 SHL DUP5 ADD ADD ADD SWAP2 CALLDATASIZE DUP4 GT PUSH2 0x38E JUMPI PUSH1 0x24 ADD SWAP1 JUMPDEST DUP3 DUP3 LT PUSH2 0x404 JUMPI POP POP POP PUSH1 0x60 DUP4 ADD SWAP4 DUP5 MSTORE PUSH1 0x84 DUP2 ADD CALLDATALOAD PUSH1 0x1 PUSH1 0x1 PUSH1 0x40 SHL SUB DUP2 GT PUSH2 0x38E JUMPI PUSH2 0x157 SWAP1 PUSH1 0x4 CALLDATASIZE SWAP2 DUP5 ADD ADD PUSH2 0xABA JUMP JUMPDEST SWAP1 PUSH1 0x80 DUP5 ADD SWAP2 DUP3 MSTORE PUSH1 0xA4 DUP2 ADD CALLDATALOAD PUSH1 0x1 PUSH1 0x1 PUSH1 0x40 SHL SUB DUP2 GT PUSH2 0x38E JUMPI PUSH2 0x182 SWAP1 PUSH1 0x4 CALLDATASIZE SWAP2 DUP5 ADD ADD PUSH2 0xABA JUMP JUMPDEST PUSH1 0xA0 DUP6 ADD SWAP1 DUP2 MSTORE PUSH1 0xC4 DUP3 ADD CALLDATALOAD PUSH1 0x1 PUSH1 0x1 PUSH1 0x40 SHL SUB DUP2 GT PUSH2 0x38E JUMPI DUP3 ADD SWAP2 CALLDATASIZE PUSH1 0x23 DUP5 ADD SLT ISZERO PUSH2 0x38E JUMPI PUSH1 0x4 DUP4 ADD CALLDATALOAD PUSH2 0x1B8 DUP2 PUSH2 0xAA3 JUMP JUMPDEST SWAP4 PUSH2 0x1C6 PUSH1 0x40 MLOAD SWAP6 DUP7 PUSH2 0xA0D JUMP JUMPDEST DUP2 DUP6 MSTORE PUSH1 0x20 PUSH1 0x4 DUP2 DUP8 ADD SWAP4 PUSH1 0x5 SHL DUP4 ADD ADD ADD SWAP1 CALLDATASIZE DUP3 GT PUSH2 0x38E JUMPI PUSH1 0x24 ADD SWAP2 JUMPDEST DUP2 DUP4 LT PUSH2 0x3E9 JUMPI POP POP POP PUSH1 0xC0 DUP7 ADD SWAP3 DUP4 MSTORE PUSH1 0xE4 ADD CALLDATALOAD SWAP3 DUP4 ISZERO ISZERO DUP5 SUB PUSH2 0x38E JUMPI PUSH1 0xE0 DUP7 ADD SWAP4 DUP5 MSTORE PUSH1 0x24 CALLDATALOAD PUSH1 0x1 PUSH1 0x1 PUSH1 0x40 SHL SUB DUP2 GT PUSH2 0x38E JUMPI PUSH2 0x22A SWAP1 CALLDATASIZE SWAP1 PUSH1 0x4 ADD PUSH2 0xA5D JUMP JUMPDEST POP DUP7 MLOAD MLOAD SWAP6 PUSH2 0x251 PUSH2 0x23B DUP9 PUSH2 0xAA3 JUMP JUMPDEST SWAP8 PUSH2 0x249 PUSH1 0x40 MLOAD SWAP10 DUP11 PUSH2 0xA0D JUMP JUMPDEST DUP1 DUP10 MSTORE PUSH2 0xAA3 JUMP JUMPDEST PUSH1 0x20 DUP9 ADD SWAP2 SWAP1 PUSH1 0x1F NOT ADD CALLDATASIZE DUP4 CALLDATACOPY PUSH0 JUMPDEST DUP10 MLOAD SWAP1 DUP2 MLOAD DUP2 LT ISZERO PUSH2 0x3A5 JUMPI DUP3 MLOAD DUP13 MLOAD DUP11 MLOAD PUSH1 0x1 PUSH1 0x1 PUSH1 0xA0 SHL SUB SWAP3 DUP4 AND SWAP5 SWAP2 DUP4 AND SWAP3 AND SWAP1 PUSH2 0x28F SWAP1 DUP5 SWAP1 PUSH2 0xC05 JUMP JUMPDEST MLOAD DUP4 DUP9 MLOAD SWAP1 PUSH2 0x29D SWAP2 PUSH2 0xC05 JUMP JUMPDEST MLOAD PUSH1 0x1 PUSH1 0x1 PUSH1 0x80 SHL SUB AND DUP5 DUP11 MLOAD SWAP1 PUSH2 0x2B4 SWAP2 PUSH2 0xC05 JUMP JUMPDEST MLOAD PUSH1 0x1 PUSH1 0x1 PUSH1 0x80 SHL SUB AND SWAP2 DUP6 DUP13 MLOAD SWAP1 PUSH2 0x2CC SWAP2 PUSH2 0xC05 JUMP JUMPDEST MLOAD PUSH2 0xFFFF AND SWAP4 DUP14 MLOAD ISZERO ISZERO SWAP6 PUSH1 0x40 MLOAD SWAP9 PUSH2 0x2E4 DUP11 PUSH2 0x9C2 JUMP JUMPDEST DUP10 MSTORE PUSH1 0x20 DUP10 ADD MSTORE PUSH1 0x40 DUP9 ADD MSTORE PUSH1 0x60 DUP8 ADD MSTORE PUSH1 0x80 DUP7 ADD MSTORE PUSH1 0xA0 DUP6 ADD MSTORE PUSH1 0xC0 DUP5 ADD MSTORE PUSH1 0xE0 DUP4 ADD MSTORE PUSH1 0x40 MLOAD SWAP2 PUSH4 0x5E3344D PUSH1 0xE4 SHL DUP4 MSTORE PUSH1 0x4 DUP4 ADD PUSH2 0x324 SWAP2 PUSH2 0xB8A JUMP JUMPDEST PUSH2 0x120 PUSH2 0x104 DUP4 ADD MSTORE PUSH0 PUSH2 0x124 DUP4 ADD MSTORE DUP2 DUP1 ADDRESS GAS SWAP3 PUSH0 PUSH2 0x144 SWAP3 PUSH1 0x20 SWAP6 CALL DUP1 ISZERO PUSH2 0x39A JUMPI PUSH0 SWAP1 PUSH2 0x364 JUMPI JUMPDEST PUSH1 0x1 SWAP3 POP PUSH2 0x35D DUP3 DUP13 PUSH2 0xC05 JUMP JUMPDEST MSTORE ADD PUSH2 0x260 JUMP JUMPDEST POP PUSH1 0x20 DUP3 RETURNDATASIZE DUP3 GT PUSH2 0x392 JUMPI JUMPDEST DUP2 PUSH2 0x37D PUSH1 0x20 SWAP4 DUP4 PUSH2 0xA0D JUMP JUMPDEST DUP2 ADD SUB SLT PUSH2 0x38E JUMPI PUSH1 0x1 SWAP2 MLOAD PUSH2 0x34F JUMP JUMPDEST PUSH0 DUP1 REVERT JUMPDEST RETURNDATASIZE SWAP2 POP PUSH2 0x370 JUMP JUMPDEST PUSH1 0x40 MLOAD RETURNDATASIZE PUSH0 DUP3 RETURNDATACOPY RETURNDATASIZE SWAP1 REVERT JUMPDEST DUP4 DUP11 PUSH1 0x40 MLOAD SWAP2 DUP3 SWAP2 PUSH1 0x20 DUP4 ADD SWAP1 PUSH1 0x20 DUP5 MSTORE MLOAD DUP1 SWAP2 MSTORE PUSH1 0x40 DUP4 ADD SWAP2 SWAP1 PUSH0 JUMPDEST DUP2 DUP2 LT PUSH2 0x3D0 JUMPI POP POP POP SUB SWAP1 RETURN JUMPDEST DUP3 MLOAD DUP5 MSTORE DUP6 SWAP5 POP PUSH1 0x20 SWAP4 DUP5 ADD SWAP4 SWAP1 SWAP3 ADD SWAP2 PUSH1 0x1 ADD PUSH2 0x3C2 JUMP JUMPDEST DUP3 CALLDATALOAD PUSH2 0xFFFF DUP2 AND DUP2 SUB PUSH2 0x38E JUMPI DUP2 MSTORE PUSH1 0x20 SWAP3 DUP4 ADD SWAP3 ADD PUSH2 0x1E5 JUMP JUMPDEST DUP2 CALLDATALOAD DUP2 MSTORE PUSH1 0x20 SWAP2 DUP3 ADD SWAP2 ADD PUSH2 0x123 JUMP JUMPDEST CALLVALUE PUSH2 0x38E JUMPI PUSH0 CALLDATASIZE PUSH1 0x3 NOT ADD SLT PUSH2 0x38E JUMPI PUSH1 0x40 MLOAD PUSH32 0x0 PUSH1 0x1 PUSH1 0x1 PUSH1 0xA0 SHL SUB AND DUP2 MSTORE PUSH1 0x20 SWAP1 RETURN JUMPDEST CALLVALUE PUSH2 0x38E JUMPI CALLDATASIZE PUSH1 0x3 NOT ADD PUSH2 0x120 DUP2 SLT PUSH2 0x38E JUMPI PUSH2 0x100 SGT PUSH2 0x38E JUMPI PUSH1 0x40 MLOAD PUSH2 0x47F DUP2 PUSH2 0x9C2 JUMP JUMPDEST PUSH1 0x4 CALLDATALOAD PUSH1 0x1 PUSH1 0x1 PUSH1 0xA0 SHL SUB DUP2 AND DUP2 SUB PUSH2 0x38E JUMPI DUP2 MSTORE PUSH1 0x24 CALLDATALOAD PUSH1 0x1 PUSH1 0x1 PUSH1 0xA0 SHL SUB DUP2 AND DUP2 SUB PUSH2 0x38E JUMPI PUSH1 0x20 DUP3 ADD MSTORE PUSH1 0x44 CALLDATALOAD PUSH1 0x1 PUSH1 0x1 PUSH1 0xA0 SHL SUB DUP2 AND DUP2 SUB PUSH2 0x38E JUMPI PUSH1 0x40 DUP3 ADD MSTORE PUSH1 0x60 DUP2 ADD SWAP1 PUSH1 0x64 CALLDATALOAD DUP3 MSTORE PUSH1 0x84 CALLDATALOAD SWAP2 PUSH1 0x1 PUSH1 0x1 PUSH1 0x80 SHL SUB DUP4 AND DUP4 SUB PUSH2 0x38E JUMPI PUSH1 0x80 DUP3 ADD SWAP3 DUP4 MSTORE PUSH1 0xA4 CALLDATALOAD SWAP2 PUSH1 0x1 PUSH1 0x1 PUSH1 0x80 SHL SUB DUP4 AND DUP4 SUB PUSH2 0x38E JUMPI PUSH1 0xA0 DUP2 ADD SWAP3 DUP4 MSTORE PUSH1 0xC4 CALLDATALOAD PUSH2 0xFFFF DUP2 AND DUP2 SUB PUSH2 0x38E JUMPI PUSH1 0xC0 DUP3 ADD MSTORE PUSH1 0xE4 CALLDATALOAD SWAP2 DUP3 ISZERO ISZERO DUP4 SUB PUSH2 0x38E JUMPI PUSH1 0xE0 DUP3 ADD SWAP3 DUP4 MSTORE PUSH2 0x104 CALLDATALOAD PUSH1 0x1 PUSH1 0x1 PUSH1 0x40 SHL SUB DUP2 GT PUSH2 0x38E JUMPI PUSH2 0x54B SWAP1 CALLDATASIZE SWAP1 PUSH1 0x4 ADD PUSH2 0xA5D JUMP JUMPDEST POP PUSH1 0x40 MLOAD SWAP5 PUSH2 0x55B PUSH1 0x80 DUP8 PUSH2 0xA0D JUMP JUMPDEST PUSH1 0x3 DUP7 MSTORE PUSH1 0x20 DUP7 ADD SWAP3 PUSH1 0x60 CALLDATASIZE DUP6 CALLDATACOPY PUSH1 0x40 MLOAD PUSH4 0x3BD1104B PUSH1 0xE0 SHL DUP2 MSTORE PUSH0 SWAP5 SWAP1 PUSH2 0x586 PUSH1 0x4 DUP3 ADD DUP5 PUSH2 0xB8A JUMP JUMPDEST PUSH0 DUP2 PUSH2 0x104 DUP2 DUP4 PUSH32 0x0 PUSH1 0x1 PUSH1 0x1 PUSH1 0xA0 SHL SUB AND GAS CALL PUSH0 SWAP2 DUP2 PUSH2 0x921 JUMPI JUMPDEST POP PUSH2 0x8CB JUMPI JUMPDEST POP POP PUSH1 0x40 MLOAD PUSH4 0x3BD1104B PUSH1 0xE0 SHL DUP2 MSTORE PUSH2 0x5E3 PUSH1 0x4 DUP3 ADD DUP4 PUSH2 0xB8A JUMP JUMPDEST PUSH0 DUP2 PUSH2 0x104 DUP2 DUP4 PUSH32 0x0 PUSH1 0x1 PUSH1 0x1 PUSH1 0xA0 SHL SUB AND GAS CALL PUSH0 SWAP2 DUP2 PUSH2 0x8AF JUMPI JUMPDEST POP PUSH2 0x86E JUMPI JUMPDEST POP PUSH1 0x40 MLOAD PUSH4 0x3BD1104B PUSH1 0xE0 SHL DUP2 MSTORE SWAP1 PUSH2 0x641 SWAP1 PUSH1 0x4 DUP4 ADD SWAP1 PUSH2 0xB8A JUMP JUMPDEST PUSH0 DUP2 PUSH2 0x104 DUP2 DUP4 PUSH32 0x0 PUSH1 0x1 PUSH1 0x1 PUSH1 0xA0 SHL SUB AND GAS CALL PUSH0 SWAP2 DUP2 PUSH2 0x84A JUMPI JUMPDEST POP PUSH2 0x803 JUMPI JUMPDEST POP DUP3 ISZERO SWAP5 DUP6 ISZERO SWAP6 PUSH2 0x7BE JUMPI PUSH0 SWAP7 PUSH0 JUMPDEST DUP6 DUP2 LT PUSH2 0x79D JUMPI POP POP PUSH2 0x3E8 SWAP5 DUP5 PUSH1 0x20 SWAP8 SWAP5 DUP8 SWAP5 PUSH2 0x714 SWAP5 PUSH2 0x6B6 PUSH2 0x71A SWAP10 DUP14 PUSH2 0xC48 JUMP JUMPDEST SWAP5 MLOAD ISZERO PUSH2 0x777 JUMPI DUP3 PUSH1 0x1 PUSH1 0x1 PUSH1 0x80 SHL SUB PUSH2 0x6DC PUSH2 0x6E7 SWAP4 DUP3 PUSH2 0x6ED SWAP8 MLOAD SWAP2 MLOAD AND SWAP1 PUSH2 0xC66 JUMP JUMPDEST SWAP4 MLOAD AND SWAP1 MLOAD SWAP1 PUSH2 0xC3B JUMP JUMPDEST SWAP1 PUSH2 0xC48 JUMP JUMPDEST SWAP5 JUMPDEST DUP5 SWAP3 DUP2 PUSH2 0x76D JUMPI JUMPDEST POP PUSH2 0x740 JUMPI JUMPDEST PUSH1 0x3 DUP2 LT PUSH2 0x723 JUMPI POP PUSH2 0xFFFF PUSH2 0x3E6 JUMPDEST AND SWAP4 PUSH2 0xC66 JUMP JUMPDEST DIV PUSH2 0xC66 JUMP JUMPDEST DIV PUSH1 0x40 MLOAD SWAP1 DUP2 MSTORE RETURN JUMPDEST PUSH1 0x2 SUB PUSH2 0x735 JUMPI PUSH2 0xFFFF PUSH2 0x3E4 PUSH2 0x70D JUMP JUMPDEST PUSH2 0xFFFF PUSH2 0x3E2 PUSH2 0x70D JUMP JUMPDEST SWAP1 POP PUSH1 0x3 DUP2 LT PUSH2 0x753 JUMPI PUSH2 0x406 SWAP1 PUSH2 0x6FD JUMP JUMPDEST PUSH1 0x2 DUP2 SUB PUSH2 0x764 JUMPI PUSH2 0x3FC SWAP1 PUSH2 0x6FD JUMP JUMPDEST PUSH2 0x3F2 SWAP1 PUSH2 0x6FD JUMP JUMPDEST SWAP1 POP ISZERO ISZERO DUP10 PUSH2 0x6F7 JUMP JUMPDEST SWAP1 DUP3 PUSH1 0x1 PUSH1 0x1 PUSH1 0x80 SHL SUB PUSH2 0x6DC PUSH2 0x6E7 SWAP4 DUP3 PUSH2 0x797 SWAP8 MLOAD SWAP2 MLOAD AND SWAP1 PUSH2 0xC66 JUMP JUMPDEST SWAP5 PUSH2 0x6EF JUMP JUMPDEST SWAP1 SWAP8 PUSH2 0x7B6 PUSH1 0x1 SWAP2 PUSH2 0x7AF DUP5 DUP13 PUSH2 0xC05 JUMP JUMPDEST MLOAD SWAP1 PUSH2 0xC3B JUMP JUMPDEST SWAP9 SWAP2 ADD PUSH2 0x691 JUMP JUMPDEST PUSH1 0x40 MLOAD PUSH3 0x461BCD PUSH1 0xE5 SHL DUP2 MSTORE PUSH1 0x20 PUSH1 0x4 DUP3 ADD MSTORE PUSH1 0x17 PUSH1 0x24 DUP3 ADD MSTORE PUSH32 0x4E6F207072696365206461746120617661696C61626C65000000000000000000 PUSH1 0x44 DUP3 ADD MSTORE PUSH1 0x64 SWAP1 REVERT JUMPDEST PUSH2 0x80C SWAP1 PUSH2 0xD21 JUMP JUMPDEST PUSH1 0x60 DUP2 ADD MLOAD ISZERO PUSH2 0x682 JUMPI PUSH1 0x20 DUP2 ADD MLOAD SWAP2 SWAP4 PUSH2 0x83B SWAP3 SWAP1 SWAP2 DUP2 ISZERO PUSH2 0x842 JUMPI POP JUMPDEST PUSH2 0x835 DUP3 DUP10 PUSH2 0xC05 JUMP JUMPDEST MSTORE PUSH2 0xC19 JUMP JUMPDEST SWAP2 DUP7 PUSH2 0x682 JUMP JUMPDEST SWAP1 POP MLOAD PUSH2 0x82B JUMP JUMPDEST PUSH2 0x867 SWAP2 SWAP3 POP RETURNDATASIZE DUP1 PUSH0 DUP4 RETURNDATACOPY PUSH2 0x85F DUP2 DUP4 PUSH2 0xA0D JUMP JUMPDEST DUP2 ADD SWAP1 PUSH2 0xB28 JUMP JUMPDEST SWAP1 DUP9 PUSH2 0x67C JUMP JUMPDEST PUSH2 0x877 SWAP1 PUSH2 0xCB3 JUMP JUMPDEST PUSH1 0x60 DUP2 ADD MLOAD ISZERO PUSH2 0x624 JUMPI PUSH1 0x20 DUP2 ADD MLOAD SWAP2 SWAP5 PUSH2 0x8A0 SWAP3 SWAP1 SWAP2 DUP2 ISZERO PUSH2 0x8A7 JUMPI POP JUMPDEST PUSH2 0x835 DUP3 DUP11 PUSH2 0xC05 JUMP JUMPDEST SWAP3 DUP8 PUSH2 0x624 JUMP JUMPDEST SWAP1 POP MLOAD PUSH2 0x896 JUMP JUMPDEST PUSH2 0x8C4 SWAP2 SWAP3 POP RETURNDATASIZE DUP1 PUSH0 DUP4 RETURNDATACOPY PUSH2 0x85F DUP2 DUP4 PUSH2 0xA0D JUMP JUMPDEST SWAP1 DUP10 PUSH2 0x61E JUMP JUMPDEST PUSH2 0x8D4 SWAP1 PUSH2 0xCB3 JUMP JUMPDEST PUSH1 0x60 DUP2 ADD MLOAD ISZERO PUSH2 0x5C7 JUMPI PUSH1 0x20 DUP2 ADD MLOAD SWAP3 SWAP6 POP SWAP1 SWAP2 SWAP1 DUP2 ISZERO PUSH2 0x918 JUMPI POP SWAP1 JUMPDEST DUP8 MLOAD ISZERO PUSH2 0x904 JUMPI MSTORE PUSH1 0x1 SWAP3 DUP8 DUP1 PUSH2 0x5C7 JUMP JUMPDEST PUSH4 0x4E487B71 PUSH1 0xE0 SHL PUSH0 MSTORE PUSH1 0x32 PUSH1 0x4 MSTORE PUSH1 0x24 PUSH0 REVERT JUMPDEST SWAP1 POP MLOAD SWAP1 PUSH2 0x8F2 JUMP JUMPDEST PUSH2 0x936 SWAP2 SWAP3 POP RETURNDATASIZE DUP1 PUSH0 DUP4 RETURNDATACOPY PUSH2 0x85F DUP2 DUP4 PUSH2 0xA0D JUMP JUMPDEST SWAP1 DUP11 PUSH2 0x5C1 JUMP JUMPDEST CALLVALUE PUSH2 0x38E JUMPI PUSH0 CALLDATASIZE PUSH1 0x3 NOT ADD SLT PUSH2 0x38E JUMPI PUSH1 0x40 MLOAD PUSH32 0x0 PUSH1 0x1 PUSH1 0x1 PUSH1 0xA0 SHL SUB AND DUP2 MSTORE PUSH1 0x20 SWAP1 RETURN JUMPDEST CALLVALUE PUSH2 0x38E JUMPI PUSH0 CALLDATASIZE PUSH1 0x3 NOT ADD SLT PUSH2 0x38E JUMPI PUSH32 0x0 PUSH1 0x1 PUSH1 0x1 PUSH1 0xA0 SHL SUB AND DUP2 MSTORE PUSH1 0x20 SWAP1 RETURN JUMPDEST PUSH2 0x100 DUP2 ADD SWAP1 DUP2 LT PUSH1 0x1 PUSH1 0x1 PUSH1 0x40 SHL SUB DUP3 GT OR PUSH2 0x9DE JUMPI PUSH1 0x40 MSTORE JUMP JUMPDEST PUSH4 0x4E487B71 PUSH1 0xE0 SHL PUSH0 MSTORE PUSH1 0x41 PUSH1 0x4 MSTORE PUSH1 0x24 PUSH0 REVERT JUMPDEST PUSH1 0x80 DUP2 ADD SWAP1 DUP2 LT PUSH1 0x1 PUSH1 0x1 PUSH1 0x40 SHL SUB DUP3 GT OR PUSH2 0x9DE JUMPI PUSH1 0x40 MSTORE JUMP JUMPDEST SWAP1 PUSH1 0x1F DUP1 NOT SWAP2 ADD AND DUP2 ADD SWAP1 DUP2 LT PUSH1 0x1 PUSH1 0x1 PUSH1 0x40 SHL SUB DUP3 GT OR PUSH2 0x9DE JUMPI PUSH1 0x40 MSTORE JUMP JUMPDEST CALLDATALOAD SWAP1 PUSH1 0x1 PUSH1 0x1 PUSH1 0xA0 SHL SUB DUP3 AND DUP3 SUB PUSH2 0x38E JUMPI JUMP JUMPDEST PUSH1 0x1 PUSH1 0x1 PUSH1 0x40 SHL SUB DUP2 GT PUSH2 0x9DE JUMPI PUSH1 0x1F ADD PUSH1 0x1F NOT AND PUSH1 0x20 ADD SWAP1 JUMP JUMPDEST DUP2 PUSH1 0x1F DUP3 ADD SLT ISZERO PUSH2 0x38E JUMPI DUP1 CALLDATALOAD SWAP1 PUSH2 0xA74 DUP3 PUSH2 0xA42 JUMP JUMPDEST SWAP3 PUSH2 0xA82 PUSH1 0x40 MLOAD SWAP5 DUP6 PUSH2 0xA0D JUMP JUMPDEST DUP3 DUP5 MSTORE PUSH1 0x20 DUP4 DUP4 ADD ADD GT PUSH2 0x38E JUMPI DUP2 PUSH0 SWAP3 PUSH1 0x20 DUP1 SWAP4 ADD DUP4 DUP7 ADD CALLDATACOPY DUP4 ADD ADD MSTORE SWAP1 JUMP JUMPDEST PUSH1 0x1 PUSH1 0x1 PUSH1 0x40 SHL SUB DUP2 GT PUSH2 0x9DE JUMPI PUSH1 0x5 SHL PUSH1 0x20 ADD SWAP1 JUMP JUMPDEST SWAP1 DUP1 PUSH1 0x1F DUP4 ADD SLT ISZERO PUSH2 0x38E JUMPI DUP2 CALLDATALOAD SWAP1 PUSH2 0xAD2 DUP3 PUSH2 0xAA3 JUMP JUMPDEST SWAP3 PUSH2 0xAE0 PUSH1 0x40 MLOAD SWAP5 DUP6 PUSH2 0xA0D JUMP JUMPDEST DUP3 DUP5 MSTORE PUSH1 0x20 DUP1 DUP6 ADD SWAP4 PUSH1 0x5 SHL DUP3 ADD ADD SWAP2 DUP3 GT PUSH2 0x38E JUMPI PUSH1 0x20 ADD SWAP2 JUMPDEST DUP2 DUP4 LT PUSH2 0xB08 JUMPI POP POP POP SWAP1 JUMP JUMPDEST DUP3 CALLDATALOAD PUSH1 0x1 PUSH1 0x1 PUSH1 0x80 SHL SUB DUP2 AND DUP2 SUB PUSH2 0x38E JUMPI DUP2 MSTORE PUSH1 0x20 SWAP3 DUP4 ADD SWAP3 ADD PUSH2 0xAFB JUMP JUMPDEST PUSH1 0x20 DUP2 DUP4 SUB SLT PUSH2 0x38E JUMPI DUP1 MLOAD SWAP1 PUSH1 0x1 PUSH1 0x1 PUSH1 0x40 SHL SUB DUP3 GT PUSH2 0x38E JUMPI ADD DUP2 PUSH1 0x1F DUP3 ADD SLT ISZERO PUSH2 0x38E JUMPI DUP1 MLOAD SWAP1 PUSH2 0xB5B DUP3 PUSH2 0xA42 JUMP JUMPDEST SWAP3 PUSH2 0xB69 PUSH1 0x40 MLOAD SWAP5 DUP6 PUSH2 0xA0D JUMP JUMPDEST DUP3 DUP5 MSTORE PUSH1 0x20 DUP4 DUP4 ADD ADD GT PUSH2 0x38E JUMPI DUP2 PUSH0 SWAP3 PUSH1 0x20 DUP1 SWAP4 ADD DUP4 DUP7 ADD MCOPY DUP4 ADD ADD MSTORE SWAP1 JUMP JUMPDEST PUSH1 0xE0 DUP1 SWAP2 PUSH1 0x1 DUP1 PUSH1 0xA0 SHL SUB DUP2 MLOAD AND DUP5 MSTORE PUSH1 0x1 DUP1 PUSH1 0xA0 SHL SUB PUSH1 0x20 DUP3 ADD MLOAD AND PUSH1 0x20 DUP6 ADD MSTORE PUSH1 0x1 DUP1 PUSH1 0xA0 SHL SUB PUSH1 0x40 DUP3 ADD MLOAD AND PUSH1 0x40 DUP6 ADD MSTORE PUSH1 0x60 DUP2 ADD MLOAD PUSH1 0x60 DUP6 ADD MSTORE PUSH1 0x1 PUSH1 0x1 PUSH1 0x80 SHL SUB PUSH1 0x80 DUP3 ADD MLOAD AND PUSH1 0x80 DUP6 ADD MSTORE PUSH1 0x1 PUSH1 0x1 PUSH1 0x80 SHL SUB PUSH1 0xA0 DUP3 ADD MLOAD AND PUSH1 0xA0 DUP6 ADD MSTORE PUSH2 0xFFFF PUSH1 0xC0 DUP3 ADD MLOAD AND PUSH1 0xC0 DUP6 ADD MSTORE ADD MLOAD ISZERO ISZERO SWAP2 ADD MSTORE JUMP JUMPDEST DUP1 MLOAD DUP3 LT ISZERO PUSH2 0x904 JUMPI PUSH1 0x20 SWAP2 PUSH1 0x5 SHL ADD ADD SWAP1 JUMP JUMPDEST PUSH0 NOT DUP2 EQ PUSH2 0xC27 JUMPI PUSH1 0x1 ADD SWAP1 JUMP JUMPDEST PUSH4 0x4E487B71 PUSH1 0xE0 SHL PUSH0 MSTORE PUSH1 0x11 PUSH1 0x4 MSTORE PUSH1 0x24 PUSH0 REVERT JUMPDEST SWAP2 SWAP1 DUP3 ADD DUP1 SWAP3 GT PUSH2 0xC27 JUMPI JUMP JUMPDEST DUP2 ISZERO PUSH2 0xC52 JUMPI DIV SWAP1 JUMP JUMPDEST PUSH4 0x4E487B71 PUSH1 0xE0 SHL PUSH0 MSTORE PUSH1 0x12 PUSH1 0x4 MSTORE PUSH1 0x24 PUSH0 REVERT JUMPDEST DUP2 DUP2 MUL SWAP3 SWAP2 DUP2 ISZERO SWAP2 DUP5 DIV EQ OR ISZERO PUSH2 0xC27 JUMPI JUMP JUMPDEST PUSH1 0x40 MLOAD SWAP1 PUSH2 0xC86 DUP3 PUSH2 0x9F2 JUMP JUMPDEST PUSH0 PUSH1 0x60 DUP4 DUP3 DUP2 MSTORE DUP3 PUSH1 0x20 DUP3 ADD MSTORE DUP3 PUSH1 0x40 DUP3 ADD MSTORE ADD MSTORE JUMP JUMPDEST SWAP2 SWAP1 DUP3 PUSH1 0x40 SWAP2 SUB SLT PUSH2 0x38E JUMPI PUSH1 0x20 DUP3 MLOAD SWAP3 ADD MLOAD SWAP1 JUMP JUMPDEST PUSH2 0xCBB PUSH2 0xC79 JUMP JUMPDEST POP DUP1 MLOAD ISZERO PUSH2 0xCFC JUMPI DUP1 PUSH1 0x20 DUP1 PUSH2 0xCD6 SWAP4 MLOAD DUP4 ADD ADD SWAP2 ADD PUSH2 0xC9D JUMP JUMPDEST SWAP1 PUSH1 0x40 MLOAD SWAP2 PUSH2 0xCE4 DUP4 PUSH2 0x9F2 JUMP JUMPDEST DUP2 DUP4 MSTORE PUSH1 0x20 DUP4 ADD MSTORE PUSH0 PUSH1 0x40 DUP4 ADD MSTORE ISZERO ISZERO PUSH1 0x60 DUP3 ADD MSTORE SWAP1 JUMP JUMPDEST POP PUSH1 0x40 MLOAD PUSH2 0xD09 DUP2 PUSH2 0x9F2 JUMP JUMPDEST PUSH0 DUP2 MSTORE PUSH0 PUSH1 0x20 DUP3 ADD MSTORE PUSH0 PUSH1 0x40 DUP3 ADD MSTORE PUSH0 PUSH1 0x60 DUP3 ADD MSTORE SWAP1 JUMP JUMPDEST PUSH2 0xD29 PUSH2 0xC79 JUMP JUMPDEST POP DUP1 MLOAD ISZERO PUSH2 0xCFC JUMPI DUP1 PUSH1 0x20 DUP1 PUSH2 0xD44 SWAP4 MLOAD DUP4 ADD ADD SWAP2 ADD PUSH2 0xC9D JUMP JUMPDEST DUP2 ISZERO ISZERO SWAP1 DUP2 PUSH2 0xD72 JUMPI JUMPDEST PUSH1 0x40 MLOAD SWAP3 PUSH2 0xD5B DUP5 PUSH2 0x9F2 JUMP JUMPDEST DUP4 MSTORE PUSH1 0x20 DUP4 ADD MSTORE PUSH0 PUSH1 0x40 DUP4 ADD MSTORE ISZERO ISZERO PUSH1 0x60 DUP3 ADD MSTORE SWAP1 JUMP JUMPDEST DUP1 ISZERO ISZERO SWAP2 POP PUSH2 0xD4E JUMP INVALID LOG2 PUSH5 0x6970667358 0x22 SLT KECCAK256 SLOAD OR ADDMOD ORIGIN JUMPDEST 0xC5 0xE8 0xC 0xB8 0xC7 SWAPN 0x66 SLOAD ADDMOD PUSH4 0xEC2017D8 CALLF 0xF705 0xC EXTCALL 0x4B 0xC5 PUSH25 0x8CAC24351064736F6C634300081E0033000000000000000000 "},"methodIdentifiers":{"quote((address,address,address,uint256,uint128,uint128,uint16,bool),bytes)":"5e3344d0","quoteBatch((address,address,address,uint256[],uint128[],uint128[],uint16[],bool),bytes)":"db90d100","sushiV2Bridge()":"7a65d3a1","uniV2Bridge()":"380cc26c","v3twapBridge()":"3414c2a9"}}}}}