{"contracts/Peripheral/DataBridges/real/ChainlinkDataBridge.sol":{"ChainlinkDataBridge":{"abi":[{"inputs":[{"internalType":"address","name":"_registry","type":"address"}],"stateMutability":"nonpayable","type":"constructor"},{"inputs":[],"name":"USD","outputs":[{"internalType":"address","name":"","type":"address"}],"stateMutability":"view","type":"function"},{"inputs":[{"components":[{"internalType":"address","name":"asset0","type":"address"},{"internalType":"address","name":"asset1","type":"address"},{"internalType":"address","name":"quoter","type":"address"},{"internalType":"uint256","name":"amount","type":"uint256"},{"internalType":"uint128","name":"asset0Balance","type":"uint128"},{"internalType":"uint128","name":"asset1Balance","type":"uint128"},{"internalType":"uint16","name":"bucketID","type":"uint16"},{"internalType":"bool","name":"zeroForOne","type":"bool"}],"internalType":"struct QuoteParams","name":"params","type":"tuple"}],"name":"getData","outputs":[{"internalType":"bytes","name":"","type":"bytes"}],"stateMutability":"view","type":"function"},{"inputs":[],"name":"registry","outputs":[{"internalType":"address","name":"","type":"address"}],"stateMutability":"view","type":"function"}],"evm":{"bytecode":{"linkReferences":{},"object":"60a034606c57601f61050f38819003918201601f19168301916001600160401b03831184841017607057808492602094604052833981010312606c57516001600160a01b0381168103606c5760805260405161048a90816100858239608051818181605201526103040152f35b5f80fd5b634e487b7160e01b5f52604160045260245ffdfe6080806040526004361015610012575f80fd5b5f3560e01c9081631bf6c21b14610264575080633bd1104b1461008557637b1039991461003d575f80fd5b34610081575f366003190112610081576040517f00000000000000000000000000000000000000000000000000000000000000006001600160a01b03168152602090f35b5f80fd5b346100815761010036600319011261008157604051610100810181811067ffffffffffffffff821117610250576040526004356001600160a01b03811690818103610081578252602435916001600160a01b038316830361008157602081019283526044356001600160a01b038116810361008157604082015260643560608201526084356001600160801b038116810361008157608082015260a4356001600160801b03811681036100815760a082015260c43561ffff811681036100815760c082015260e4359081151582036100815760ff9261017f9260e061016b9301526102db565b9451909492906001600160a01b03166102db565b94166012019160ff831161023c576101a66101a0916101a06101ac956102a0565b906102b1565b956102a0565b90811561020f576040928082101561020857505b8251916020830194048452828201528181526101dd60608261027e565b8151928391602083525180918160208501528484015e5f828201840152601f01601f19168101030190f35b90506101c0565b60405162461bcd60e51b8152602060048201526005602482015264064656e3d360dc1b6044820152606490fd5b634e487b7160e01b5f52601160045260245ffd5b634e487b7160e01b5f52604160045260245ffd5b34610081575f366003190112610081578061034860209252f35b90601f8019910116810190811067ffffffffffffffff82111761025057604052565b60ff16604d811161023c57600a0a90565b8181029291811591840414171561023c57565b519069ffffffffffffffffffff8216820361008157565b60405163bcfd032d60e01b81526001600160a01b039182166004820181905261034860248301527f0000000000000000000000000000000000000000000000000000000000000000909216929060a081604481875afa9283156103c1575f915f946103fe575b505f8213156103cc57602090604460405180978193630b1c5a7560e31b8352600483015261034860248301525afa9384156103c1575f94610383575b50929190565b9093506020813d6020116103b9575b8161039f6020938361027e565b81010312610081575160ff8116810361008157925f61037d565b3d9150610392565b6040513d5f823e3d90fd5b60405162461bcd60e51b815260206004820152600a6024820152693130b21030b739bbb2b960b11b6044820152606490fd5b9150925060a0813d60a01161044c575b8161041b60a0938361027e565b810103126100815761042c816102c4565b5060208101516104436080606084015193016102c4565b5090925f610341565b3d915061040e56fea26469706673582212203157bbf0f73e863e384214e0f084311529c62bd3fa886929ab0d78b536f640cf64736f6c634300081e0033","opcodes":"PUSH1 0xA0 CALLVALUE PUSH1 0x6C JUMPI PUSH1 0x1F PUSH2 0x50F CODESIZE DUP2 SWAP1 SUB SWAP2 DUP3 ADD PUSH1 0x1F NOT AND DUP4 ADD SWAP2 PUSH1 0x1 PUSH1 0x1 PUSH1 0x40 SHL SUB DUP4 GT DUP5 DUP5 LT OR PUSH1 0x70 JUMPI DUP1 DUP5 SWAP3 PUSH1 0x20 SWAP5 PUSH1 0x40 MSTORE DUP4 CODECOPY DUP2 ADD SUB SLT PUSH1 0x6C JUMPI MLOAD PUSH1 0x1 PUSH1 0x1 PUSH1 0xA0 SHL SUB DUP2 AND DUP2 SUB PUSH1 0x6C JUMPI PUSH1 0x80 MSTORE PUSH1 0x40 MLOAD PUSH2 0x48A SWAP1 DUP2 PUSH2 0x85 DUP3 CODECOPY PUSH1 0x80 MLOAD DUP2 DUP2 DUP2 PUSH1 0x52 ADD MSTORE PUSH2 0x304 ADD MSTORE RETURN JUMPDEST PUSH0 DUP1 REVERT JUMPDEST PUSH4 0x4E487B71 PUSH1 0xE0 SHL PUSH0 MSTORE PUSH1 0x41 PUSH1 0x4 MSTORE PUSH1 0x24 PUSH0 REVERT INVALID PUSH1 0x80 DUP1 PUSH1 0x40 MSTORE PUSH1 0x4 CALLDATASIZE LT ISZERO PUSH2 0x12 JUMPI PUSH0 DUP1 REVERT JUMPDEST PUSH0 CALLDATALOAD PUSH1 0xE0 SHR SWAP1 DUP2 PUSH4 0x1BF6C21B EQ PUSH2 0x264 JUMPI POP DUP1 PUSH4 0x3BD1104B EQ PUSH2 0x85 JUMPI PUSH4 0x7B103999 EQ PUSH2 0x3D JUMPI PUSH0 DUP1 REVERT JUMPDEST CALLVALUE PUSH2 0x81 JUMPI PUSH0 CALLDATASIZE PUSH1 0x3 NOT ADD SLT PUSH2 0x81 JUMPI PUSH1 0x40 MLOAD PUSH32 0x0 PUSH1 0x1 PUSH1 0x1 PUSH1 0xA0 SHL SUB AND DUP2 MSTORE PUSH1 0x20 SWAP1 RETURN JUMPDEST PUSH0 DUP1 REVERT JUMPDEST CALLVALUE PUSH2 0x81 JUMPI PUSH2 0x100 CALLDATASIZE PUSH1 0x3 NOT ADD SLT PUSH2 0x81 JUMPI PUSH1 0x40 MLOAD PUSH2 0x100 DUP2 ADD DUP2 DUP2 LT PUSH8 0xFFFFFFFFFFFFFFFF DUP3 GT OR PUSH2 0x250 JUMPI PUSH1 0x40 MSTORE PUSH1 0x4 CALLDATALOAD PUSH1 0x1 PUSH1 0x1 PUSH1 0xA0 SHL SUB DUP2 AND SWAP1 DUP2 DUP2 SUB PUSH2 0x81 JUMPI DUP3 MSTORE PUSH1 0x24 CALLDATALOAD SWAP2 PUSH1 0x1 PUSH1 0x1 PUSH1 0xA0 SHL SUB DUP4 AND DUP4 SUB PUSH2 0x81 JUMPI PUSH1 0x20 DUP2 ADD SWAP3 DUP4 MSTORE PUSH1 0x44 CALLDATALOAD PUSH1 0x1 PUSH1 0x1 PUSH1 0xA0 SHL SUB DUP2 AND DUP2 SUB PUSH2 0x81 JUMPI PUSH1 0x40 DUP3 ADD MSTORE PUSH1 0x64 CALLDATALOAD PUSH1 0x60 DUP3 ADD MSTORE PUSH1 0x84 CALLDATALOAD PUSH1 0x1 PUSH1 0x1 PUSH1 0x80 SHL SUB DUP2 AND DUP2 SUB PUSH2 0x81 JUMPI PUSH1 0x80 DUP3 ADD MSTORE PUSH1 0xA4 CALLDATALOAD PUSH1 0x1 PUSH1 0x1 PUSH1 0x80 SHL SUB DUP2 AND DUP2 SUB PUSH2 0x81 JUMPI PUSH1 0xA0 DUP3 ADD MSTORE PUSH1 0xC4 CALLDATALOAD PUSH2 0xFFFF DUP2 AND DUP2 SUB PUSH2 0x81 JUMPI PUSH1 0xC0 DUP3 ADD MSTORE PUSH1 0xE4 CALLDATALOAD SWAP1 DUP2 ISZERO ISZERO DUP3 SUB PUSH2 0x81 JUMPI PUSH1 0xFF SWAP3 PUSH2 0x17F SWAP3 PUSH1 0xE0 PUSH2 0x16B SWAP4 ADD MSTORE PUSH2 0x2DB JUMP JUMPDEST SWAP5 MLOAD SWAP1 SWAP5 SWAP3 SWAP1 PUSH1 0x1 PUSH1 0x1 PUSH1 0xA0 SHL SUB AND PUSH2 0x2DB JUMP JUMPDEST SWAP5 AND PUSH1 0x12 ADD SWAP2 PUSH1 0xFF DUP4 GT PUSH2 0x23C JUMPI PUSH2 0x1A6 PUSH2 0x1A0 SWAP2 PUSH2 0x1A0 PUSH2 0x1AC SWAP6 PUSH2 0x2A0 JUMP JUMPDEST SWAP1 PUSH2 0x2B1 JUMP JUMPDEST SWAP6 PUSH2 0x2A0 JUMP JUMPDEST SWAP1 DUP2 ISZERO PUSH2 0x20F JUMPI PUSH1 0x40 SWAP3 DUP1 DUP3 LT ISZERO PUSH2 0x208 JUMPI POP JUMPDEST DUP3 MLOAD SWAP2 PUSH1 0x20 DUP4 ADD SWAP5 DIV DUP5 MSTORE DUP3 DUP3 ADD MSTORE DUP2 DUP2 MSTORE PUSH2 0x1DD PUSH1 0x60 DUP3 PUSH2 0x27E JUMP JUMPDEST DUP2 MLOAD SWAP3 DUP4 SWAP2 PUSH1 0x20 DUP4 MSTORE MLOAD DUP1 SWAP2 DUP2 PUSH1 0x20 DUP6 ADD MSTORE DUP5 DUP5 ADD MCOPY PUSH0 DUP3 DUP3 ADD DUP5 ADD MSTORE PUSH1 0x1F ADD PUSH1 0x1F NOT AND DUP2 ADD SUB ADD SWAP1 RETURN JUMPDEST SWAP1 POP PUSH2 0x1C0 JUMP JUMPDEST PUSH1 0x40 MLOAD PUSH3 0x461BCD PUSH1 0xE5 SHL DUP2 MSTORE PUSH1 0x20 PUSH1 0x4 DUP3 ADD MSTORE PUSH1 0x5 PUSH1 0x24 DUP3 ADD MSTORE PUSH5 0x64656E3D3 PUSH1 0xDC SHL PUSH1 0x44 DUP3 ADD MSTORE PUSH1 0x64 SWAP1 REVERT JUMPDEST PUSH4 0x4E487B71 PUSH1 0xE0 SHL PUSH0 MSTORE PUSH1 0x11 PUSH1 0x4 MSTORE PUSH1 0x24 PUSH0 REVERT JUMPDEST PUSH4 0x4E487B71 PUSH1 0xE0 SHL PUSH0 MSTORE PUSH1 0x41 PUSH1 0x4 MSTORE PUSH1 0x24 PUSH0 REVERT JUMPDEST CALLVALUE PUSH2 0x81 JUMPI PUSH0 CALLDATASIZE PUSH1 0x3 NOT ADD SLT PUSH2 0x81 JUMPI DUP1 PUSH2 0x348 PUSH1 0x20 SWAP3 MSTORE RETURN JUMPDEST SWAP1 PUSH1 0x1F DUP1 NOT SWAP2 ADD AND DUP2 ADD SWAP1 DUP2 LT PUSH8 0xFFFFFFFFFFFFFFFF DUP3 GT OR PUSH2 0x250 JUMPI PUSH1 0x40 MSTORE JUMP JUMPDEST PUSH1 0xFF AND PUSH1 0x4D DUP2 GT PUSH2 0x23C JUMPI PUSH1 0xA EXP SWAP1 JUMP JUMPDEST DUP2 DUP2 MUL SWAP3 SWAP2 DUP2 ISZERO SWAP2 DUP5 DIV EQ OR ISZERO PUSH2 0x23C JUMPI JUMP JUMPDEST MLOAD SWAP1 PUSH10 0xFFFFFFFFFFFFFFFFFFFF DUP3 AND DUP3 SUB PUSH2 0x81 JUMPI JUMP JUMPDEST PUSH1 0x40 MLOAD PUSH4 0xBCFD032D PUSH1 0xE0 SHL DUP2 MSTORE PUSH1 0x1 PUSH1 0x1 PUSH1 0xA0 SHL SUB SWAP2 DUP3 AND PUSH1 0x4 DUP3 ADD DUP2 SWAP1 MSTORE PUSH2 0x348 PUSH1 0x24 DUP4 ADD MSTORE PUSH32 0x0 SWAP1 SWAP3 AND SWAP3 SWAP1 PUSH1 0xA0 DUP2 PUSH1 0x44 DUP2 DUP8 GAS STATICCALL SWAP3 DUP4 ISZERO PUSH2 0x3C1 JUMPI PUSH0 SWAP2 PUSH0 SWAP5 PUSH2 0x3FE JUMPI JUMPDEST POP PUSH0 DUP3 SGT ISZERO PUSH2 0x3CC JUMPI PUSH1 0x20 SWAP1 PUSH1 0x44 PUSH1 0x40 MLOAD DUP1 SWAP8 DUP2 SWAP4 PUSH4 0xB1C5A75 PUSH1 0xE3 SHL DUP4 MSTORE PUSH1 0x4 DUP4 ADD MSTORE PUSH2 0x348 PUSH1 0x24 DUP4 ADD MSTORE GAS STATICCALL SWAP4 DUP5 ISZERO PUSH2 0x3C1 JUMPI PUSH0 SWAP5 PUSH2 0x383 JUMPI JUMPDEST POP SWAP3 SWAP2 SWAP1 JUMP JUMPDEST SWAP1 SWAP4 POP PUSH1 0x20 DUP2 RETURNDATASIZE PUSH1 0x20 GT PUSH2 0x3B9 JUMPI JUMPDEST DUP2 PUSH2 0x39F PUSH1 0x20 SWAP4 DUP4 PUSH2 0x27E JUMP JUMPDEST DUP2 ADD SUB SLT PUSH2 0x81 JUMPI MLOAD PUSH1 0xFF DUP2 AND DUP2 SUB PUSH2 0x81 JUMPI SWAP3 PUSH0 PUSH2 0x37D JUMP JUMPDEST RETURNDATASIZE SWAP2 POP PUSH2 0x392 JUMP JUMPDEST PUSH1 0x40 MLOAD RETURNDATASIZE PUSH0 DUP3 RETURNDATACOPY RETURNDATASIZE SWAP1 REVERT JUMPDEST PUSH1 0x40 MLOAD PUSH3 0x461BCD PUSH1 0xE5 SHL DUP2 MSTORE PUSH1 0x20 PUSH1 0x4 DUP3 ADD MSTORE PUSH1 0xA PUSH1 0x24 DUP3 ADD MSTORE PUSH10 0x3130B21030B739BBB2B9 PUSH1 0xB1 SHL PUSH1 0x44 DUP3 ADD MSTORE PUSH1 0x64 SWAP1 REVERT JUMPDEST SWAP2 POP SWAP3 POP PUSH1 0xA0 DUP2 RETURNDATASIZE PUSH1 0xA0 GT PUSH2 0x44C JUMPI JUMPDEST DUP2 PUSH2 0x41B PUSH1 0xA0 SWAP4 DUP4 PUSH2 0x27E JUMP JUMPDEST DUP2 ADD SUB SLT PUSH2 0x81 JUMPI PUSH2 0x42C DUP2 PUSH2 0x2C4 JUMP JUMPDEST POP PUSH1 0x20 DUP2 ADD MLOAD PUSH2 0x443 PUSH1 0x80 PUSH1 0x60 DUP5 ADD MLOAD SWAP4 ADD PUSH2 0x2C4 JUMP JUMPDEST POP SWAP1 SWAP3 PUSH0 PUSH2 0x341 JUMP JUMPDEST RETURNDATASIZE SWAP2 POP PUSH2 0x40E JUMP INVALID LOG2 PUSH5 0x6970667358 0x22 SLT KECCAK256 BALANCE JUMPI 0xBB CREATE 0xF7 RETURNDATACOPY DUP7 RETURNDATACOPY CODESIZE TIMESTAMP EQ RJUMP 0xF084 BALANCE ISZERO 0x29 0xC6 0x2B 0xD3 STATICCALL DUP9 PUSH10 0x29AB0D78B536F640CF64 PUSH20 0x6F6C634300081E00330000000000000000000000 "},"methodIdentifiers":{"USD()":"1bf6c21b","getData((address,address,address,uint256,uint128,uint128,uint16,bool))":"3bd1104b","registry()":"7b103999"}}}}}