{"contracts/z_remix_test/FlashSessionCallback.sol":{"FlashSessionCallback":{"abi":[{"inputs":[{"internalType":"address","name":"_poolManager","type":"address"},{"internalType":"address","name":"_asset0","type":"address"},{"internalType":"address","name":"_asset1","type":"address"},{"internalType":"address","name":"_quoter","type":"address"},{"internalType":"bytes3","name":"_markings","type":"bytes3"},{"internalType":"uint256","name":"_amount0","type":"uint256"},{"internalType":"uint256","name":"_amount1","type":"uint256"}],"stateMutability":"nonpayable","type":"constructor"},{"inputs":[],"name":"amount0","outputs":[{"internalType":"uint256","name":"","type":"uint256"}],"stateMutability":"view","type":"function"},{"inputs":[],"name":"amount1","outputs":[{"internalType":"uint256","name":"","type":"uint256"}],"stateMutability":"view","type":"function"},{"inputs":[],"name":"asset0","outputs":[{"internalType":"address","name":"","type":"address"}],"stateMutability":"view","type":"function"},{"inputs":[],"name":"asset1","outputs":[{"internalType":"address","name":"","type":"address"}],"stateMutability":"view","type":"function"},{"inputs":[{"internalType":"bytes","name":"","type":"bytes"}],"name":"flashCallback","outputs":[],"stateMutability":"nonpayable","type":"function"},{"inputs":[],"name":"markings","outputs":[{"internalType":"bytes3","name":"","type":"bytes3"}],"stateMutability":"view","type":"function"},{"inputs":[],"name":"poolManager","outputs":[{"internalType":"contract IPoolManager","name":"","type":"address"}],"stateMutability":"view","type":"function"},{"inputs":[],"name":"quoter","outputs":[{"internalType":"address","name":"","type":"address"}],"stateMutability":"view","type":"function"}],"evm":{"bytecode":{"linkReferences":{},"object":"6101603461012f57601f61065238819003918201601f19168301916001600160401b038311848410176101335780849260e09460405283398101031261012f5761004881610147565b9061005560208201610147565b61006160408301610147565b61006d60608401610147565b9060808401519262ffffff60e81b8416840361012f5760c060a08601519501519560018060a01b031660805260a05260c05260e0526101005261012052610140526040516104f6908161015c82396080518181816102140152610313015260a051818181610116015261039b015260c0518181816101400152610419015260e05181818161016a015261035701526101005181818161019d015261045a0152610120518181816101c601526103e1015261014051818181608b01526101ec0152f35b5f80fd5b634e487b7160e01b5f52604160045260245ffd5b51906001600160a01b038216820361012f5756fe6080806040526004361015610012575f80fd5b5f3560e01c9081636c4ebd0514610448575080637cd5f3f9146104045780639906d175146103ca578063c509b6a214610386578063c6bbd5a714610342578063dc4c90d3146102fe578063e3739238146100b25763f400fde414610074575f80fd5b346100ae575f3660031901126100ae5760206040517f00000000000000000000000000000000000000000000000000000000000000008152f35b5f80fd5b346100ae5760203660031901126100ae5760043567ffffffffffffffff81116100ae57366023820112156100ae57806004013567ffffffffffffffff81116100ae57369101602401116100ae5760405163e513315b60e01b81526001600160a01b037f00000000000000000000000000000000000000000000000000000000000000008116600483018190527f00000000000000000000000000000000000000000000000000000000000000008216602484018190527f00000000000000000000000000000000000000000000000000000000000000008316604485018190526001600160e81b03197f000000000000000000000000000000000000000000000000000000000000000016606486018190527f000000000000000000000000000000000000000000000000000000000000000060848701527f000000000000000000000000000000000000000000000000000000000000000060a487015290947f0000000000000000000000000000000000000000000000000000000000000000909416939192919060208260c4815f895af19182156102bc575f926102c7575b5060409460a493925f9287519889978896631963e5e760e31b8852600488015260248701526044860152606485015260848401525af180156102bc5761029557005b604090813d83116102b5575b6102ab818361048a565b810103126100ae57005b503d6102a1565b6040513d5f823e3d90fd5b909291506020813d6020116102f6575b816102e46020938361048a565b810103126100ae575190916040610253565b3d91506102d7565b346100ae575f3660031901126100ae576040517f00000000000000000000000000000000000000000000000000000000000000006001600160a01b03168152602090f35b346100ae575f3660031901126100ae576040517f00000000000000000000000000000000000000000000000000000000000000006001600160a01b03168152602090f35b346100ae575f3660031901126100ae576040517f00000000000000000000000000000000000000000000000000000000000000006001600160a01b03168152602090f35b346100ae575f3660031901126100ae5760206040517f00000000000000000000000000000000000000000000000000000000000000008152f35b346100ae575f3660031901126100ae576040517f00000000000000000000000000000000000000000000000000000000000000006001600160a01b03168152602090f35b346100ae575f3660031901126100ae577f00000000000000000000000000000000000000000000000000000000000000006001600160e81b0319168152602090f35b90601f8019910116810190811067ffffffffffffffff8211176104ac57604052565b634e487b7160e01b5f52604160045260245ffdfea2646970667358221220e5d36ee270a2bcc76b197521b67485feef49e2ce7bb28a285518a8a6d706f7c164736f6c634300081e0033","opcodes":"PUSH2 0x160 CALLVALUE PUSH2 0x12F JUMPI PUSH1 0x1F PUSH2 0x652 CODESIZE DUP2 SWAP1 SUB SWAP2 DUP3 ADD PUSH1 0x1F NOT AND DUP4 ADD SWAP2 PUSH1 0x1 PUSH1 0x1 PUSH1 0x40 SHL SUB DUP4 GT DUP5 DUP5 LT OR PUSH2 0x133 JUMPI DUP1 DUP5 SWAP3 PUSH1 0xE0 SWAP5 PUSH1 0x40 MSTORE DUP4 CODECOPY DUP2 ADD SUB SLT PUSH2 0x12F JUMPI PUSH2 0x48 DUP2 PUSH2 0x147 JUMP JUMPDEST SWAP1 PUSH2 0x55 PUSH1 0x20 DUP3 ADD PUSH2 0x147 JUMP JUMPDEST PUSH2 0x61 PUSH1 0x40 DUP4 ADD PUSH2 0x147 JUMP JUMPDEST PUSH2 0x6D PUSH1 0x60 DUP5 ADD PUSH2 0x147 JUMP JUMPDEST SWAP1 PUSH1 0x80 DUP5 ADD MLOAD SWAP3 PUSH3 0xFFFFFF PUSH1 0xE8 SHL DUP5 AND DUP5 SUB PUSH2 0x12F JUMPI PUSH1 0xC0 PUSH1 0xA0 DUP7 ADD MLOAD SWAP6 ADD MLOAD SWAP6 PUSH1 0x1 DUP1 PUSH1 0xA0 SHL SUB AND PUSH1 0x80 MSTORE PUSH1 0xA0 MSTORE PUSH1 0xC0 MSTORE PUSH1 0xE0 MSTORE PUSH2 0x100 MSTORE PUSH2 0x120 MSTORE PUSH2 0x140 MSTORE PUSH1 0x40 MLOAD PUSH2 0x4F6 SWAP1 DUP2 PUSH2 0x15C DUP3 CODECOPY PUSH1 0x80 MLOAD DUP2 DUP2 DUP2 PUSH2 0x214 ADD MSTORE PUSH2 0x313 ADD MSTORE PUSH1 0xA0 MLOAD DUP2 DUP2 DUP2 PUSH2 0x116 ADD MSTORE PUSH2 0x39B ADD MSTORE PUSH1 0xC0 MLOAD DUP2 DUP2 DUP2 PUSH2 0x140 ADD MSTORE PUSH2 0x419 ADD MSTORE PUSH1 0xE0 MLOAD DUP2 DUP2 DUP2 PUSH2 0x16A ADD MSTORE PUSH2 0x357 ADD MSTORE PUSH2 0x100 MLOAD DUP2 DUP2 DUP2 PUSH2 0x19D ADD MSTORE PUSH2 0x45A ADD MSTORE PUSH2 0x120 MLOAD DUP2 DUP2 DUP2 PUSH2 0x1C6 ADD MSTORE PUSH2 0x3E1 ADD MSTORE PUSH2 0x140 MLOAD DUP2 DUP2 DUP2 PUSH1 0x8B ADD MSTORE PUSH2 0x1EC ADD MSTORE RETURN JUMPDEST PUSH0 DUP1 REVERT JUMPDEST PUSH4 0x4E487B71 PUSH1 0xE0 SHL PUSH0 MSTORE PUSH1 0x41 PUSH1 0x4 MSTORE PUSH1 0x24 PUSH0 REVERT JUMPDEST MLOAD SWAP1 PUSH1 0x1 PUSH1 0x1 PUSH1 0xA0 SHL SUB DUP3 AND DUP3 SUB PUSH2 0x12F JUMPI JUMP INVALID PUSH1 0x80 DUP1 PUSH1 0x40 MSTORE PUSH1 0x4 CALLDATASIZE LT ISZERO PUSH2 0x12 JUMPI PUSH0 DUP1 REVERT JUMPDEST PUSH0 CALLDATALOAD PUSH1 0xE0 SHR SWAP1 DUP2 PUSH4 0x6C4EBD05 EQ PUSH2 0x448 JUMPI POP DUP1 PUSH4 0x7CD5F3F9 EQ PUSH2 0x404 JUMPI DUP1 PUSH4 0x9906D175 EQ PUSH2 0x3CA JUMPI DUP1 PUSH4 0xC509B6A2 EQ PUSH2 0x386 JUMPI DUP1 PUSH4 0xC6BBD5A7 EQ PUSH2 0x342 JUMPI DUP1 PUSH4 0xDC4C90D3 EQ PUSH2 0x2FE JUMPI DUP1 PUSH4 0xE3739238 EQ PUSH2 0xB2 JUMPI PUSH4 0xF400FDE4 EQ PUSH2 0x74 JUMPI PUSH0 DUP1 REVERT JUMPDEST CALLVALUE PUSH2 0xAE JUMPI PUSH0 CALLDATASIZE PUSH1 0x3 NOT ADD SLT PUSH2 0xAE JUMPI PUSH1 0x20 PUSH1 0x40 MLOAD PUSH32 0x0 DUP2 MSTORE RETURN JUMPDEST PUSH0 DUP1 REVERT JUMPDEST CALLVALUE PUSH2 0xAE JUMPI PUSH1 0x20 CALLDATASIZE PUSH1 0x3 NOT ADD SLT PUSH2 0xAE JUMPI PUSH1 0x4 CALLDATALOAD PUSH8 0xFFFFFFFFFFFFFFFF DUP2 GT PUSH2 0xAE JUMPI CALLDATASIZE PUSH1 0x23 DUP3 ADD SLT ISZERO PUSH2 0xAE JUMPI DUP1 PUSH1 0x4 ADD CALLDATALOAD PUSH8 0xFFFFFFFFFFFFFFFF DUP2 GT PUSH2 0xAE JUMPI CALLDATASIZE SWAP2 ADD PUSH1 0x24 ADD GT PUSH2 0xAE JUMPI PUSH1 0x40 MLOAD PUSH4 0xE513315B PUSH1 0xE0 SHL DUP2 MSTORE PUSH1 0x1 PUSH1 0x1 PUSH1 0xA0 SHL SUB PUSH32 0x0 DUP2 AND PUSH1 0x4 DUP4 ADD DUP2 SWAP1 MSTORE PUSH32 0x0 DUP3 AND PUSH1 0x24 DUP5 ADD DUP2 SWAP1 MSTORE PUSH32 0x0 DUP4 AND PUSH1 0x44 DUP6 ADD DUP2 SWAP1 MSTORE PUSH1 0x1 PUSH1 0x1 PUSH1 0xE8 SHL SUB NOT PUSH32 0x0 AND PUSH1 0x64 DUP7 ADD DUP2 SWAP1 MSTORE PUSH32 0x0 PUSH1 0x84 DUP8 ADD MSTORE PUSH32 0x0 PUSH1 0xA4 DUP8 ADD MSTORE SWAP1 SWAP5 PUSH32 0x0 SWAP1 SWAP5 AND SWAP4 SWAP2 SWAP3 SWAP2 SWAP1 PUSH1 0x20 DUP3 PUSH1 0xC4 DUP2 PUSH0 DUP10 GAS CALL SWAP2 DUP3 ISZERO PUSH2 0x2BC JUMPI PUSH0 SWAP3 PUSH2 0x2C7 JUMPI JUMPDEST POP PUSH1 0x40 SWAP5 PUSH1 0xA4 SWAP4 SWAP3 PUSH0 SWAP3 DUP8 MLOAD SWAP9 DUP10 SWAP8 DUP9 SWAP7 PUSH4 0x1963E5E7 PUSH1 0xE3 SHL DUP9 MSTORE PUSH1 0x4 DUP9 ADD MSTORE PUSH1 0x24 DUP8 ADD MSTORE PUSH1 0x44 DUP7 ADD MSTORE PUSH1 0x64 DUP6 ADD MSTORE PUSH1 0x84 DUP5 ADD MSTORE GAS CALL DUP1 ISZERO PUSH2 0x2BC JUMPI PUSH2 0x295 JUMPI STOP JUMPDEST PUSH1 0x40 SWAP1 DUP2 RETURNDATASIZE DUP4 GT PUSH2 0x2B5 JUMPI JUMPDEST PUSH2 0x2AB DUP2 DUP4 PUSH2 0x48A JUMP JUMPDEST DUP2 ADD SUB SLT PUSH2 0xAE JUMPI STOP JUMPDEST POP RETURNDATASIZE PUSH2 0x2A1 JUMP JUMPDEST PUSH1 0x40 MLOAD RETURNDATASIZE PUSH0 DUP3 RETURNDATACOPY RETURNDATASIZE SWAP1 REVERT JUMPDEST SWAP1 SWAP3 SWAP2 POP PUSH1 0x20 DUP2 RETURNDATASIZE PUSH1 0x20 GT PUSH2 0x2F6 JUMPI JUMPDEST DUP2 PUSH2 0x2E4 PUSH1 0x20 SWAP4 DUP4 PUSH2 0x48A JUMP JUMPDEST DUP2 ADD SUB SLT PUSH2 0xAE JUMPI MLOAD SWAP1 SWAP2 PUSH1 0x40 PUSH2 0x253 JUMP JUMPDEST RETURNDATASIZE SWAP2 POP PUSH2 0x2D7 JUMP JUMPDEST CALLVALUE PUSH2 0xAE JUMPI PUSH0 CALLDATASIZE PUSH1 0x3 NOT ADD SLT PUSH2 0xAE JUMPI PUSH1 0x40 MLOAD PUSH32 0x0 PUSH1 0x1 PUSH1 0x1 PUSH1 0xA0 SHL SUB AND DUP2 MSTORE PUSH1 0x20 SWAP1 RETURN JUMPDEST CALLVALUE PUSH2 0xAE JUMPI PUSH0 CALLDATASIZE PUSH1 0x3 NOT ADD SLT PUSH2 0xAE JUMPI PUSH1 0x40 MLOAD PUSH32 0x0 PUSH1 0x1 PUSH1 0x1 PUSH1 0xA0 SHL SUB AND DUP2 MSTORE PUSH1 0x20 SWAP1 RETURN JUMPDEST CALLVALUE PUSH2 0xAE JUMPI PUSH0 CALLDATASIZE PUSH1 0x3 NOT ADD SLT PUSH2 0xAE JUMPI PUSH1 0x40 MLOAD PUSH32 0x0 PUSH1 0x1 PUSH1 0x1 PUSH1 0xA0 SHL SUB AND DUP2 MSTORE PUSH1 0x20 SWAP1 RETURN JUMPDEST CALLVALUE PUSH2 0xAE JUMPI PUSH0 CALLDATASIZE PUSH1 0x3 NOT ADD SLT PUSH2 0xAE JUMPI PUSH1 0x20 PUSH1 0x40 MLOAD PUSH32 0x0 DUP2 MSTORE RETURN JUMPDEST CALLVALUE PUSH2 0xAE JUMPI PUSH0 CALLDATASIZE PUSH1 0x3 NOT ADD SLT PUSH2 0xAE JUMPI PUSH1 0x40 MLOAD PUSH32 0x0 PUSH1 0x1 PUSH1 0x1 PUSH1 0xA0 SHL SUB AND DUP2 MSTORE PUSH1 0x20 SWAP1 RETURN JUMPDEST CALLVALUE PUSH2 0xAE JUMPI PUSH0 CALLDATASIZE PUSH1 0x3 NOT ADD SLT PUSH2 0xAE JUMPI PUSH32 0x0 PUSH1 0x1 PUSH1 0x1 PUSH1 0xE8 SHL SUB NOT AND DUP2 MSTORE PUSH1 0x20 SWAP1 RETURN JUMPDEST SWAP1 PUSH1 0x1F DUP1 NOT SWAP2 ADD AND DUP2 ADD SWAP1 DUP2 LT PUSH8 0xFFFFFFFFFFFFFFFF DUP3 GT OR PUSH2 0x4AC JUMPI PUSH1 0x40 MSTORE JUMP JUMPDEST PUSH4 0x4E487B71 PUSH1 0xE0 SHL PUSH0 MSTORE PUSH1 0x41 PUSH1 0x4 MSTORE PUSH1 0x24 PUSH0 REVERT INVALID LOG2 PUSH5 0x6970667358 0x22 SLT KECCAK256 JUMPF 0xD36E 0xE2 PUSH17 0xA2BCC76B197521B67485FEEF49E2CE7BB2 DUP11 0x28 SSTORE XOR 0xA8 0xA6 0xD7 MOD 0xF7 0xC1 PUSH5 0x736F6C6343 STOP ADDMOD 0x1E STOP CALLER "},"methodIdentifiers":{"amount0()":"9906d175","amount1()":"f400fde4","asset0()":"c509b6a2","asset1()":"7cd5f3f9","flashCallback(bytes)":"e3739238","markings()":"6c4ebd05","poolManager()":"dc4c90d3","quoter()":"c6bbd5a7"}}}}}