{"contracts/Peripheral/DataBridges/real/OtherV2DataBridge.sol":{"OtherV2DataBridge":{"abi":[{"inputs":[{"internalType":"address","name":"_pair","type":"address"},{"internalType":"address","name":"_ext0","type":"address"},{"internalType":"address","name":"_ext1","type":"address"},{"internalType":"address","name":"_alias0","type":"address"},{"internalType":"address","name":"_alias1","type":"address"}],"stateMutability":"nonpayable","type":"constructor"},{"inputs":[],"name":"canonicalExt0","outputs":[{"internalType":"address","name":"","type":"address"}],"stateMutability":"view","type":"function"},{"inputs":[],"name":"canonicalExt1","outputs":[{"internalType":"address","name":"","type":"address"}],"stateMutability":"view","type":"function"},{"inputs":[{"components":[{"internalType":"address","name":"asset0","type":"address"},{"internalType":"address","name":"asset1","type":"address"},{"internalType":"address","name":"quoter","type":"address"},{"internalType":"uint256","name":"amount","type":"uint256"},{"internalType":"uint128","name":"asset0Balance","type":"uint128"},{"internalType":"uint128","name":"asset1Balance","type":"uint128"},{"internalType":"uint16","name":"bucketID","type":"uint16"},{"internalType":"bool","name":"zeroForOne","type":"bool"}],"internalType":"struct QuoteParams","name":"params","type":"tuple"}],"name":"getData","outputs":[{"internalType":"bytes","name":"","type":"bytes"}],"stateMutability":"view","type":"function"},{"inputs":[],"name":"internalAlias0","outputs":[{"internalType":"address","name":"","type":"address"}],"stateMutability":"view","type":"function"},{"inputs":[],"name":"internalAlias1","outputs":[{"internalType":"address","name":"","type":"address"}],"stateMutability":"view","type":"function"},{"inputs":[],"name":"pair","outputs":[{"internalType":"address","name":"","type":"address"}],"stateMutability":"view","type":"function"}],"evm":{"bytecode":{"linkReferences":{},"object":"6101203461010b57601f6109db38819003918201601f19168301916001600160401b0383118484101761010f5780849260a09460405283398101031261010b5761004881610123565b9061005560208201610123565b9061006260408201610123565b61007a608061007360608501610123565b9301610123565b9260805260a05260c05260e052610100526040516108a39081610138823960805181818160bb015281816105a10152610723015260a051818181610187015281816105d3015281816106860152818161075b01526107f6015260c051818181607301526106bc015260e05181818160ff015281816106eb015261084501526101005181818161014301526102950152f35b5f80fd5b634e487b7160e01b5f52604160045260245ffd5b51906001600160a01b038216820361010b5756fe6080806040526004361015610012575f80fd5b5f3560e01c9081633bd1104b146101b657508063a6b1282314610172578063a8aa1b311461012e578063b24a485b146100ea578063cd852366146100a65763dd82b2751461005e575f80fd5b346100a2575f3660031901126100a2576040517f00000000000000000000000000000000000000000000000000000000000000006001600160a01b03168152602090f35b5f80fd5b346100a2575f3660031901126100a2576040517f00000000000000000000000000000000000000000000000000000000000000006001600160a01b03168152602090f35b346100a2575f3660031901126100a2576040517f00000000000000000000000000000000000000000000000000000000000000006001600160a01b03168152602090f35b346100a2575f3660031901126100a2576040517f00000000000000000000000000000000000000000000000000000000000000006001600160a01b03168152602090f35b346100a2575f3660031901126100a2576040517f00000000000000000000000000000000000000000000000000000000000000006001600160a01b03168152602090f35b346100a2576101003660031901126100a257610100810181811067ffffffffffffffff82111761052e576040526004356001600160a01b03811681036100a25781526024356001600160a01b03811681036100a257602082019081526044356001600160a01b03811681036100a257604083015260643560608301526084356001600160801b03811681036100a257608083015260a4356001600160801b03811681036100a25760a083015260c43561ffff811681036100a25760c083015260e43580151581036100a25760e0830152604051630240bc6b60e21b81527f00000000000000000000000000000000000000000000000000000000000000006001600160a01b03169190606081600481865afa908115610441575f905f926104cf575b506001600160701b03169081158015806104bd575b1561048757670de0b6b3a76400008302928304670de0b6b3a7640000141715610473576001600160701b03169081156103fc570460405192630dfe168160e01b8452602084600481845afa938415610441575f9461044c575b509060206004926040519384809263d21220a760e01b82525afa8015610441576103919461037b935f92610410575b50610597565b925190516001600160a01b0390811691166106ae565b156103e0575b604080516020810192808452828201528181526103b5606082610542565b8151928391602083525180918160208501528484015e5f828201840152601f01601f19168101030190f35b80156103fc576ec097ce7bc90715b34b9f100000000004610397565b634e487b7160e01b5f52601260045260245ffd5b61043391925060203d60201161043a575b61042b8183610542565b810190610578565b9087610375565b503d610421565b6040513d5f823e3d90fd5b60049291945061046a602091823d841161043a5761042b8183610542565b94919250610346565b634e487b7160e01b5f52601160045260245ffd5b60405162461bcd60e51b815260206004820152600e60248201526d656d70747920726573657276657360901b6044820152606490fd5b506001600160701b03821615156102ed565b9150506060813d606011610526575b816104eb60609383610542565b810103126100a2576104fc81610564565b604061050a60208401610564565b92015163ffffffff8116036100a2576001600160701b036102d8565b3d91506104de565b634e487b7160e01b5f52604160045260245ffd5b90601f8019910116810190811067ffffffffffffffff82111761052e57604052565b51906001600160701b03821682036100a257565b908160209103126100a257516001600160a01b03811681036100a25790565b6001600160a01b037f00000000000000000000000000000000000000000000000000000000000000008116911680821480610678575b610672577f00000000000000000000000000000000000000000000000000000000000000006001600160a01b031614918261065f575b50506106455760405162461bcd60e51b81526020600482015260146024820152730e0c2d2e440e8ded6cadce640dad2e6dac2e8c6d60631b6044820152606490fd5b80156103fc576ec097ce7bc90715b34b9f10000000000490565b6001600160a01b03161490505f80610603565b50505090565b506001600160a01b038381167f0000000000000000000000000000000000000000000000000000000000000000909116146105cd565b6001600160a01b03908116907f00000000000000000000000000000000000000000000000000000000000000001681811480610837575b6107e0577f00000000000000000000000000000000000000000000000000000000000000006001600160a01b031682149081610824575b5061081e577f00000000000000000000000000000000000000000000000000000000000000006001600160a01b031690808214806107e8575b6107e0577f00000000000000000000000000000000000000000000000000000000000000006001600160a01b03161491826107cd575b50506107c95760405162461bcd60e51b815260206004820152601060248201526f3ab739bab83837b93a32b2103830b4b960811b6044820152606490fd5b5f90565b6001600160a01b03161490505f8061078b565b505050600190565b506001600160a01b038381167f000000000000000000000000000000000000000000000000000000000000000090911614610755565b50505f90565b6001600160a01b0384161490505f61071c565b506001600160a01b038381167f0000000000000000000000000000000000000000000000000000000000000000909116146106e556fea26469706673582212202f1b1e265b2a3bd1ba3ea41da2b47c0b2009435579f1f5d1713f0c9dda95955664736f6c634300081e0033","opcodes":"PUSH2 0x120 CALLVALUE PUSH2 0x10B JUMPI PUSH1 0x1F PUSH2 0x9DB CODESIZE DUP2 SWAP1 SUB SWAP2 DUP3 ADD PUSH1 0x1F NOT AND DUP4 ADD SWAP2 PUSH1 0x1 PUSH1 0x1 PUSH1 0x40 SHL SUB DUP4 GT DUP5 DUP5 LT OR PUSH2 0x10F JUMPI DUP1 DUP5 SWAP3 PUSH1 0xA0 SWAP5 PUSH1 0x40 MSTORE DUP4 CODECOPY DUP2 ADD SUB SLT PUSH2 0x10B JUMPI PUSH2 0x48 DUP2 PUSH2 0x123 JUMP JUMPDEST SWAP1 PUSH2 0x55 PUSH1 0x20 DUP3 ADD PUSH2 0x123 JUMP JUMPDEST SWAP1 PUSH2 0x62 PUSH1 0x40 DUP3 ADD PUSH2 0x123 JUMP JUMPDEST PUSH2 0x7A PUSH1 0x80 PUSH2 0x73 PUSH1 0x60 DUP6 ADD PUSH2 0x123 JUMP JUMPDEST SWAP4 ADD PUSH2 0x123 JUMP JUMPDEST SWAP3 PUSH1 0x80 MSTORE PUSH1 0xA0 MSTORE PUSH1 0xC0 MSTORE PUSH1 0xE0 MSTORE PUSH2 0x100 MSTORE PUSH1 0x40 MLOAD PUSH2 0x8A3 SWAP1 DUP2 PUSH2 0x138 DUP3 CODECOPY PUSH1 0x80 MLOAD DUP2 DUP2 DUP2 PUSH1 0xBB ADD MSTORE DUP2 DUP2 PUSH2 0x5A1 ADD MSTORE PUSH2 0x723 ADD MSTORE PUSH1 0xA0 MLOAD DUP2 DUP2 DUP2 PUSH2 0x187 ADD MSTORE DUP2 DUP2 PUSH2 0x5D3 ADD MSTORE DUP2 DUP2 PUSH2 0x686 ADD MSTORE DUP2 DUP2 PUSH2 0x75B ADD MSTORE PUSH2 0x7F6 ADD MSTORE PUSH1 0xC0 MLOAD DUP2 DUP2 DUP2 PUSH1 0x73 ADD MSTORE PUSH2 0x6BC ADD MSTORE PUSH1 0xE0 MLOAD DUP2 DUP2 DUP2 PUSH1 0xFF ADD MSTORE DUP2 DUP2 PUSH2 0x6EB ADD MSTORE PUSH2 0x845 ADD MSTORE PUSH2 0x100 MLOAD DUP2 DUP2 DUP2 PUSH2 0x143 ADD MSTORE PUSH2 0x295 ADD MSTORE RETURN JUMPDEST PUSH0 DUP1 REVERT JUMPDEST PUSH4 0x4E487B71 PUSH1 0xE0 SHL PUSH0 MSTORE PUSH1 0x41 PUSH1 0x4 MSTORE PUSH1 0x24 PUSH0 REVERT JUMPDEST MLOAD SWAP1 PUSH1 0x1 PUSH1 0x1 PUSH1 0xA0 SHL SUB DUP3 AND DUP3 SUB PUSH2 0x10B JUMPI JUMP INVALID PUSH1 0x80 DUP1 PUSH1 0x40 MSTORE PUSH1 0x4 CALLDATASIZE LT ISZERO PUSH2 0x12 JUMPI PUSH0 DUP1 REVERT JUMPDEST PUSH0 CALLDATALOAD PUSH1 0xE0 SHR SWAP1 DUP2 PUSH4 0x3BD1104B EQ PUSH2 0x1B6 JUMPI POP DUP1 PUSH4 0xA6B12823 EQ PUSH2 0x172 JUMPI DUP1 PUSH4 0xA8AA1B31 EQ PUSH2 0x12E JUMPI DUP1 PUSH4 0xB24A485B EQ PUSH2 0xEA JUMPI DUP1 PUSH4 0xCD852366 EQ PUSH2 0xA6 JUMPI PUSH4 0xDD82B275 EQ PUSH2 0x5E JUMPI PUSH0 DUP1 REVERT JUMPDEST CALLVALUE PUSH2 0xA2 JUMPI PUSH0 CALLDATASIZE PUSH1 0x3 NOT ADD SLT PUSH2 0xA2 JUMPI PUSH1 0x40 MLOAD PUSH32 0x0 PUSH1 0x1 PUSH1 0x1 PUSH1 0xA0 SHL SUB AND DUP2 MSTORE PUSH1 0x20 SWAP1 RETURN JUMPDEST PUSH0 DUP1 REVERT JUMPDEST CALLVALUE PUSH2 0xA2 JUMPI PUSH0 CALLDATASIZE PUSH1 0x3 NOT ADD SLT PUSH2 0xA2 JUMPI PUSH1 0x40 MLOAD PUSH32 0x0 PUSH1 0x1 PUSH1 0x1 PUSH1 0xA0 SHL SUB AND DUP2 MSTORE PUSH1 0x20 SWAP1 RETURN JUMPDEST CALLVALUE PUSH2 0xA2 JUMPI PUSH0 CALLDATASIZE PUSH1 0x3 NOT ADD SLT PUSH2 0xA2 JUMPI PUSH1 0x40 MLOAD PUSH32 0x0 PUSH1 0x1 PUSH1 0x1 PUSH1 0xA0 SHL SUB AND DUP2 MSTORE PUSH1 0x20 SWAP1 RETURN JUMPDEST CALLVALUE PUSH2 0xA2 JUMPI PUSH0 CALLDATASIZE PUSH1 0x3 NOT ADD SLT PUSH2 0xA2 JUMPI PUSH1 0x40 MLOAD PUSH32 0x0 PUSH1 0x1 PUSH1 0x1 PUSH1 0xA0 SHL SUB AND DUP2 MSTORE PUSH1 0x20 SWAP1 RETURN JUMPDEST CALLVALUE PUSH2 0xA2 JUMPI PUSH0 CALLDATASIZE PUSH1 0x3 NOT ADD SLT PUSH2 0xA2 JUMPI PUSH1 0x40 MLOAD PUSH32 0x0 PUSH1 0x1 PUSH1 0x1 PUSH1 0xA0 SHL SUB AND DUP2 MSTORE PUSH1 0x20 SWAP1 RETURN JUMPDEST CALLVALUE PUSH2 0xA2 JUMPI PUSH2 0x100 CALLDATASIZE PUSH1 0x3 NOT ADD SLT PUSH2 0xA2 JUMPI PUSH2 0x100 DUP2 ADD DUP2 DUP2 LT PUSH8 0xFFFFFFFFFFFFFFFF DUP3 GT OR PUSH2 0x52E JUMPI PUSH1 0x40 MSTORE PUSH1 0x4 CALLDATALOAD PUSH1 0x1 PUSH1 0x1 PUSH1 0xA0 SHL SUB DUP2 AND DUP2 SUB PUSH2 0xA2 JUMPI DUP2 MSTORE PUSH1 0x24 CALLDATALOAD PUSH1 0x1 PUSH1 0x1 PUSH1 0xA0 SHL SUB DUP2 AND DUP2 SUB PUSH2 0xA2 JUMPI PUSH1 0x20 DUP3 ADD SWAP1 DUP2 MSTORE PUSH1 0x44 CALLDATALOAD PUSH1 0x1 PUSH1 0x1 PUSH1 0xA0 SHL SUB DUP2 AND DUP2 SUB PUSH2 0xA2 JUMPI PUSH1 0x40 DUP4 ADD MSTORE PUSH1 0x64 CALLDATALOAD PUSH1 0x60 DUP4 ADD MSTORE PUSH1 0x84 CALLDATALOAD PUSH1 0x1 PUSH1 0x1 PUSH1 0x80 SHL SUB DUP2 AND DUP2 SUB PUSH2 0xA2 JUMPI PUSH1 0x80 DUP4 ADD MSTORE PUSH1 0xA4 CALLDATALOAD PUSH1 0x1 PUSH1 0x1 PUSH1 0x80 SHL SUB DUP2 AND DUP2 SUB PUSH2 0xA2 JUMPI PUSH1 0xA0 DUP4 ADD MSTORE PUSH1 0xC4 CALLDATALOAD PUSH2 0xFFFF DUP2 AND DUP2 SUB PUSH2 0xA2 JUMPI PUSH1 0xC0 DUP4 ADD MSTORE PUSH1 0xE4 CALLDATALOAD DUP1 ISZERO ISZERO DUP2 SUB PUSH2 0xA2 JUMPI PUSH1 0xE0 DUP4 ADD MSTORE PUSH1 0x40 MLOAD PUSH4 0x240BC6B PUSH1 0xE2 SHL DUP2 MSTORE PUSH32 0x0 PUSH1 0x1 PUSH1 0x1 PUSH1 0xA0 SHL SUB AND SWAP2 SWAP1 PUSH1 0x60 DUP2 PUSH1 0x4 DUP2 DUP7 GAS STATICCALL SWAP1 DUP2 ISZERO PUSH2 0x441 JUMPI PUSH0 SWAP1 PUSH0 SWAP3 PUSH2 0x4CF JUMPI JUMPDEST POP PUSH1 0x1 PUSH1 0x1 PUSH1 0x70 SHL SUB AND SWAP1 DUP2 ISZERO DUP1 ISZERO DUP1 PUSH2 0x4BD JUMPI JUMPDEST ISZERO PUSH2 0x487 JUMPI PUSH8 0xDE0B6B3A7640000 DUP4 MUL SWAP3 DUP4 DIV PUSH8 0xDE0B6B3A7640000 EQ OR ISZERO PUSH2 0x473 JUMPI PUSH1 0x1 PUSH1 0x1 PUSH1 0x70 SHL SUB AND SWAP1 DUP2 ISZERO PUSH2 0x3FC JUMPI DIV PUSH1 0x40 MLOAD SWAP3 PUSH4 0xDFE1681 PUSH1 0xE0 SHL DUP5 MSTORE PUSH1 0x20 DUP5 PUSH1 0x4 DUP2 DUP5 GAS STATICCALL SWAP4 DUP5 ISZERO PUSH2 0x441 JUMPI PUSH0 SWAP5 PUSH2 0x44C JUMPI JUMPDEST POP SWAP1 PUSH1 0x20 PUSH1 0x4 SWAP3 PUSH1 0x40 MLOAD SWAP4 DUP5 DUP1 SWAP3 PUSH4 0xD21220A7 PUSH1 0xE0 SHL DUP3 MSTORE GAS STATICCALL DUP1 ISZERO PUSH2 0x441 JUMPI PUSH2 0x391 SWAP5 PUSH2 0x37B SWAP4 PUSH0 SWAP3 PUSH2 0x410 JUMPI JUMPDEST POP PUSH2 0x597 JUMP JUMPDEST SWAP3 MLOAD SWAP1 MLOAD PUSH1 0x1 PUSH1 0x1 PUSH1 0xA0 SHL SUB SWAP1 DUP2 AND SWAP2 AND PUSH2 0x6AE JUMP JUMPDEST ISZERO PUSH2 0x3E0 JUMPI JUMPDEST PUSH1 0x40 DUP1 MLOAD PUSH1 0x20 DUP2 ADD SWAP3 DUP1 DUP5 MSTORE DUP3 DUP3 ADD MSTORE DUP2 DUP2 MSTORE PUSH2 0x3B5 PUSH1 0x60 DUP3 PUSH2 0x542 JUMP JUMPDEST DUP2 MLOAD SWAP3 DUP4 SWAP2 PUSH1 0x20 DUP4 MSTORE MLOAD DUP1 SWAP2 DUP2 PUSH1 0x20 DUP6 ADD MSTORE DUP5 DUP5 ADD MCOPY PUSH0 DUP3 DUP3 ADD DUP5 ADD MSTORE PUSH1 0x1F ADD PUSH1 0x1F NOT AND DUP2 ADD SUB ADD SWAP1 RETURN JUMPDEST DUP1 ISZERO PUSH2 0x3FC JUMPI PUSH15 0xC097CE7BC90715B34B9F1000000000 DIV PUSH2 0x397 JUMP JUMPDEST PUSH4 0x4E487B71 PUSH1 0xE0 SHL PUSH0 MSTORE PUSH1 0x12 PUSH1 0x4 MSTORE PUSH1 0x24 PUSH0 REVERT JUMPDEST PUSH2 0x433 SWAP2 SWAP3 POP PUSH1 0x20 RETURNDATASIZE PUSH1 0x20 GT PUSH2 0x43A JUMPI JUMPDEST PUSH2 0x42B DUP2 DUP4 PUSH2 0x542 JUMP JUMPDEST DUP2 ADD SWAP1 PUSH2 0x578 JUMP JUMPDEST SWAP1 DUP8 PUSH2 0x375 JUMP JUMPDEST POP RETURNDATASIZE PUSH2 0x421 JUMP JUMPDEST PUSH1 0x40 MLOAD RETURNDATASIZE PUSH0 DUP3 RETURNDATACOPY RETURNDATASIZE SWAP1 REVERT JUMPDEST PUSH1 0x4 SWAP3 SWAP2 SWAP5 POP PUSH2 0x46A PUSH1 0x20 SWAP2 DUP3 RETURNDATASIZE DUP5 GT PUSH2 0x43A JUMPI PUSH2 0x42B DUP2 DUP4 PUSH2 0x542 JUMP JUMPDEST SWAP5 SWAP2 SWAP3 POP PUSH2 0x346 JUMP JUMPDEST PUSH4 0x4E487B71 PUSH1 0xE0 SHL PUSH0 MSTORE PUSH1 0x11 PUSH1 0x4 MSTORE PUSH1 0x24 PUSH0 REVERT JUMPDEST PUSH1 0x40 MLOAD PUSH3 0x461BCD PUSH1 0xE5 SHL DUP2 MSTORE PUSH1 0x20 PUSH1 0x4 DUP3 ADD MSTORE PUSH1 0xE PUSH1 0x24 DUP3 ADD MSTORE PUSH14 0x656D707479207265736572766573 PUSH1 0x90 SHL PUSH1 0x44 DUP3 ADD MSTORE PUSH1 0x64 SWAP1 REVERT JUMPDEST POP PUSH1 0x1 PUSH1 0x1 PUSH1 0x70 SHL SUB DUP3 AND ISZERO ISZERO PUSH2 0x2ED JUMP JUMPDEST SWAP2 POP POP PUSH1 0x60 DUP2 RETURNDATASIZE PUSH1 0x60 GT PUSH2 0x526 JUMPI JUMPDEST DUP2 PUSH2 0x4EB PUSH1 0x60 SWAP4 DUP4 PUSH2 0x542 JUMP JUMPDEST DUP2 ADD SUB SLT PUSH2 0xA2 JUMPI PUSH2 0x4FC DUP2 PUSH2 0x564 JUMP JUMPDEST PUSH1 0x40 PUSH2 0x50A PUSH1 0x20 DUP5 ADD PUSH2 0x564 JUMP JUMPDEST SWAP3 ADD MLOAD PUSH4 0xFFFFFFFF DUP2 AND SUB PUSH2 0xA2 JUMPI PUSH1 0x1 PUSH1 0x1 PUSH1 0x70 SHL SUB PUSH2 0x2D8 JUMP JUMPDEST RETURNDATASIZE SWAP2 POP PUSH2 0x4DE JUMP JUMPDEST PUSH4 0x4E487B71 PUSH1 0xE0 SHL PUSH0 MSTORE PUSH1 0x41 PUSH1 0x4 MSTORE PUSH1 0x24 PUSH0 REVERT JUMPDEST SWAP1 PUSH1 0x1F DUP1 NOT SWAP2 ADD AND DUP2 ADD SWAP1 DUP2 LT PUSH8 0xFFFFFFFFFFFFFFFF DUP3 GT OR PUSH2 0x52E JUMPI PUSH1 0x40 MSTORE JUMP JUMPDEST MLOAD SWAP1 PUSH1 0x1 PUSH1 0x1 PUSH1 0x70 SHL SUB DUP3 AND DUP3 SUB PUSH2 0xA2 JUMPI JUMP JUMPDEST SWAP1 DUP2 PUSH1 0x20 SWAP2 SUB SLT PUSH2 0xA2 JUMPI MLOAD PUSH1 0x1 PUSH1 0x1 PUSH1 0xA0 SHL SUB DUP2 AND DUP2 SUB PUSH2 0xA2 JUMPI SWAP1 JUMP JUMPDEST PUSH1 0x1 PUSH1 0x1 PUSH1 0xA0 SHL SUB PUSH32 0x0 DUP2 AND SWAP2 AND DUP1 DUP3 EQ DUP1 PUSH2 0x678 JUMPI JUMPDEST PUSH2 0x672 JUMPI PUSH32 0x0 PUSH1 0x1 PUSH1 0x1 PUSH1 0xA0 SHL SUB AND EQ SWAP2 DUP3 PUSH2 0x65F JUMPI JUMPDEST POP POP PUSH2 0x645 JUMPI PUSH1 0x40 MLOAD PUSH3 0x461BCD PUSH1 0xE5 SHL DUP2 MSTORE PUSH1 0x20 PUSH1 0x4 DUP3 ADD MSTORE PUSH1 0x14 PUSH1 0x24 DUP3 ADD MSTORE PUSH20 0xE0C2D2E440E8DED6CADCE640DAD2E6DAC2E8C6D PUSH1 0x63 SHL PUSH1 0x44 DUP3 ADD MSTORE PUSH1 0x64 SWAP1 REVERT JUMPDEST DUP1 ISZERO PUSH2 0x3FC JUMPI PUSH15 0xC097CE7BC90715B34B9F1000000000 DIV SWAP1 JUMP JUMPDEST PUSH1 0x1 PUSH1 0x1 PUSH1 0xA0 SHL SUB AND EQ SWAP1 POP PUSH0 DUP1 PUSH2 0x603 JUMP JUMPDEST POP POP POP SWAP1 JUMP JUMPDEST POP PUSH1 0x1 PUSH1 0x1 PUSH1 0xA0 SHL SUB DUP4 DUP2 AND PUSH32 0x0 SWAP1 SWAP2 AND EQ PUSH2 0x5CD JUMP JUMPDEST PUSH1 0x1 PUSH1 0x1 PUSH1 0xA0 SHL SUB SWAP1 DUP2 AND SWAP1 PUSH32 0x0 AND DUP2 DUP2 EQ DUP1 PUSH2 0x837 JUMPI JUMPDEST PUSH2 0x7E0 JUMPI PUSH32 0x0 PUSH1 0x1 PUSH1 0x1 PUSH1 0xA0 SHL SUB AND DUP3 EQ SWAP1 DUP2 PUSH2 0x824 JUMPI JUMPDEST POP PUSH2 0x81E JUMPI PUSH32 0x0 PUSH1 0x1 PUSH1 0x1 PUSH1 0xA0 SHL SUB AND SWAP1 DUP1 DUP3 EQ DUP1 PUSH2 0x7E8 JUMPI JUMPDEST PUSH2 0x7E0 JUMPI PUSH32 0x0 PUSH1 0x1 PUSH1 0x1 PUSH1 0xA0 SHL SUB AND EQ SWAP2 DUP3 PUSH2 0x7CD JUMPI JUMPDEST POP POP PUSH2 0x7C9 JUMPI PUSH1 0x40 MLOAD PUSH3 0x461BCD PUSH1 0xE5 SHL DUP2 MSTORE PUSH1 0x20 PUSH1 0x4 DUP3 ADD MSTORE PUSH1 0x10 PUSH1 0x24 DUP3 ADD MSTORE PUSH16 0x3AB739BAB83837B93A32B2103830B4B9 PUSH1 0x81 SHL PUSH1 0x44 DUP3 ADD MSTORE PUSH1 0x64 SWAP1 REVERT JUMPDEST PUSH0 SWAP1 JUMP JUMPDEST PUSH1 0x1 PUSH1 0x1 PUSH1 0xA0 SHL SUB AND EQ SWAP1 POP PUSH0 DUP1 PUSH2 0x78B JUMP JUMPDEST POP POP POP PUSH1 0x1 SWAP1 JUMP JUMPDEST POP PUSH1 0x1 PUSH1 0x1 PUSH1 0xA0 SHL SUB DUP4 DUP2 AND PUSH32 0x0 SWAP1 SWAP2 AND EQ PUSH2 0x755 JUMP JUMPDEST POP POP PUSH0 SWAP1 JUMP JUMPDEST PUSH1 0x1 PUSH1 0x1 PUSH1 0xA0 SHL SUB DUP5 AND EQ SWAP1 POP PUSH0 PUSH2 0x71C JUMP JUMPDEST POP PUSH1 0x1 PUSH1 0x1 PUSH1 0xA0 SHL SUB DUP4 DUP2 AND PUSH32 0x0 SWAP1 SWAP2 AND EQ PUSH2 0x6E5 JUMP INVALID LOG2 PUSH5 0x6970667358 0x22 SLT KECCAK256 0x2F SHL 0x1E 0x26 JUMPDEST 0x2A EXTCODESIZE DATALOADN 0xBA3E LOG4 SAR LOG2 0xB4 PUSH29 0xB2009435579F1F5D1713F0C9DDA95955664736F6C634300081E003300 "},"methodIdentifiers":{"canonicalExt0()":"cd852366","canonicalExt1()":"a6b12823","getData((address,address,address,uint256,uint128,uint128,uint16,bool))":"3bd1104b","internalAlias0()":"dd82b275","internalAlias1()":"b24a485b","pair()":"a8aa1b31"}}}}}