{"contracts/PoolManager.sol":{"PoolManager":{"abi":[{"inputs":[{"internalType":"address","name":"_defaultAlpha","type":"address"},{"internalType":"address","name":"_defaultBeta","type":"address"}],"stateMutability":"nonpayable","type":"constructor"},{"inputs":[{"internalType":"uint256","name":"required","type":"uint256"},{"internalType":"uint256","name":"available","type":"uint256"}],"name":"PoolManager__InsufficientAsset0","type":"error"},{"inputs":[{"internalType":"uint256","name":"required","type":"uint256"},{"internalType":"uint256","name":"available","type":"uint256"}],"name":"PoolManager__InsufficientAsset1","type":"error"},{"inputs":[],"name":"PoolManager__InsufficientLiquidityMinted","type":"error"},{"inputs":[{"internalType":"uint256","name":"minOut","type":"uint256"},{"internalType":"uint256","name":"actual","type":"uint256"}],"name":"PoolManager__InsufficientOutput","type":"error"},{"inputs":[{"internalType":"uint256","name":"amount0","type":"uint256"},{"internalType":"uint256","name":"amount1","type":"uint256"}],"name":"PoolManager__InsufficientWithdrawal","type":"error"},{"inputs":[],"name":"PoolManager__InvalidQuote","type":"error"},{"inputs":[{"internalType":"uint256","name":"poolID","type":"uint256"}],"name":"PoolManager__PoolAlreadyExists","type":"error"},{"anonymous":false,"inputs":[{"indexed":true,"internalType":"address","name":"owner","type":"address"},{"indexed":true,"internalType":"address","name":"spender","type":"address"},{"indexed":true,"internalType":"uint256","name":"id","type":"uint256"},{"indexed":false,"internalType":"uint256","name":"amount","type":"uint256"}],"name":"Approval","type":"event"},{"anonymous":false,"inputs":[{"indexed":true,"internalType":"address","name":"provider","type":"address"},{"indexed":false,"internalType":"bool","name":"hit","type":"bool"}],"name":"MarketDataCache","type":"event"},{"anonymous":false,"inputs":[{"indexed":true,"internalType":"address","name":"owner","type":"address"},{"indexed":true,"internalType":"address","name":"operator","type":"address"},{"indexed":false,"internalType":"bool","name":"approved","type":"bool"}],"name":"OperatorSet","type":"event"},{"anonymous":false,"inputs":[{"indexed":true,"internalType":"uint256","name":"poolID","type":"uint256"},{"indexed":false,"internalType":"address","name":"asset0","type":"address"},{"indexed":false,"internalType":"address","name":"asset1","type":"address"},{"indexed":false,"internalType":"address","name":"quoter","type":"address"},{"indexed":false,"internalType":"bytes3","name":"markings","type":"bytes3"}],"name":"PoolCreated","type":"event"},{"anonymous":false,"inputs":[{"indexed":false,"internalType":"address","name":"caller","type":"address"},{"indexed":true,"internalType":"address","name":"from","type":"address"},{"indexed":true,"internalType":"address","name":"to","type":"address"},{"indexed":true,"internalType":"uint256","name":"id","type":"uint256"},{"indexed":false,"internalType":"uint256","name":"amount","type":"uint256"}],"name":"Transfer","type":"event"},{"inputs":[{"internalType":"uint8","name":"pointer","type":"uint8"},{"internalType":"address","name":"alphaAddress","type":"address"}],"name":"addAlphaMarketAddress","outputs":[],"stateMutability":"nonpayable","type":"function"},{"inputs":[{"internalType":"uint8","name":"pointer","type":"uint8"},{"internalType":"address","name":"betaAddress","type":"address"}],"name":"addBetaMarketAddress","outputs":[],"stateMutability":"nonpayable","type":"function"},{"inputs":[{"internalType":"address","name":"asset0","type":"address"},{"internalType":"address","name":"asset1","type":"address"},{"internalType":"address","name":"quoter","type":"address"},{"internalType":"bytes3","name":"markings","type":"bytes3"},{"internalType":"uint256","name":"amount0","type":"uint256"},{"internalType":"uint256","name":"amount1","type":"uint256"}],"name":"addLiquidity","outputs":[{"internalType":"uint256","name":"liquidity","type":"uint256"}],"stateMutability":"payable","type":"function"},{"inputs":[{"internalType":"address","name":"owner","type":"address"},{"internalType":"address","name":"spender","type":"address"},{"internalType":"uint256","name":"id","type":"uint256"}],"name":"allowance","outputs":[{"internalType":"uint256","name":"","type":"uint256"}],"stateMutability":"view","type":"function"},{"inputs":[{"internalType":"address","name":"spender","type":"address"},{"internalType":"uint256","name":"id","type":"uint256"},{"internalType":"uint256","name":"amount","type":"uint256"}],"name":"approve","outputs":[{"internalType":"bool","name":"","type":"bool"}],"stateMutability":"nonpayable","type":"function"},{"inputs":[{"internalType":"address","name":"owner","type":"address"},{"internalType":"uint256","name":"id","type":"uint256"}],"name":"balanceOf","outputs":[{"internalType":"uint256","name":"","type":"uint256"}],"stateMutability":"view","type":"function"},{"inputs":[{"components":[{"internalType":"address","name":"asset0","type":"address"},{"internalType":"address","name":"asset1","type":"address"},{"internalType":"address","name":"quoter","type":"address"},{"internalType":"bytes3[]","name":"markings","type":"bytes3[]"},{"internalType":"uint256[]","name":"amounts","type":"uint256[]"},{"internalType":"bool","name":"zeroForOne","type":"bool"}],"internalType":"struct Hop[]","name":"hops","type":"tuple[]"},{"internalType":"uint256","name":"amountIn","type":"uint256"},{"internalType":"uint256","name":"minAmountOut","type":"uint256"}],"name":"batchSwap","outputs":[{"internalType":"uint256","name":"amountOut","type":"uint256"}],"stateMutability":"payable","type":"function"},{"inputs":[{"internalType":"address","name":"asset0","type":"address"},{"internalType":"address","name":"asset1","type":"address"},{"internalType":"address","name":"quoter","type":"address"},{"internalType":"bytes3","name":"markings","type":"bytes3"}],"name":"createPool","outputs":[{"internalType":"uint256","name":"poolID","type":"uint256"}],"stateMutability":"nonpayable","type":"function"},{"inputs":[],"name":"defaultAlpha","outputs":[{"internalType":"address","name":"","type":"address"}],"stateMutability":"view","type":"function"},{"inputs":[],"name":"defaultBeta","outputs":[{"internalType":"address","name":"","type":"address"}],"stateMutability":"view","type":"function"},{"inputs":[{"internalType":"address","name":"callback","type":"address"},{"internalType":"bytes","name":"data","type":"bytes"},{"internalType":"address[]","name":"tokens","type":"address[]"}],"name":"flashSession","outputs":[],"stateMutability":"payable","type":"function"},{"inputs":[{"internalType":"address","name":"callback","type":"address"},{"internalType":"bytes","name":"data","type":"bytes"},{"internalType":"address[]","name":"tokens","type":"address[]"}],"name":"flashSessionWithReturn","outputs":[{"internalType":"int256[]","name":"deltas","type":"int256[]"}],"stateMutability":"payable","type":"function"},{"inputs":[{"internalType":"uint8","name":"pointer","type":"uint8"}],"name":"getAlphaMarketAddress","outputs":[{"internalType":"address","name":"alphaAddress","type":"address"}],"stateMutability":"view","type":"function"},{"inputs":[{"internalType":"uint8","name":"pointer","type":"uint8"}],"name":"getBetaMarketAddress","outputs":[{"internalType":"address","name":"betaAddress","type":"address"}],"stateMutability":"view","type":"function"},{"inputs":[{"internalType":"uint256","name":"poolId","type":"uint256"}],"name":"getInventory","outputs":[{"internalType":"uint128","name":"asset0","type":"uint128"},{"internalType":"uint128","name":"asset1","type":"uint128"}],"stateMutability":"view","type":"function"},{"inputs":[{"internalType":"uint256","name":"poolID","type":"uint256"}],"name":"getPoolInfo","outputs":[{"internalType":"address","name":"asset0","type":"address"},{"internalType":"address","name":"asset1","type":"address"},{"internalType":"address","name":"quoter","type":"address"},{"internalType":"bytes3","name":"markings","type":"bytes3"}],"stateMutability":"view","type":"function"},{"inputs":[{"components":[{"internalType":"address","name":"asset0","type":"address"},{"internalType":"address","name":"asset1","type":"address"},{"internalType":"address","name":"quoter","type":"address"},{"internalType":"uint256[]","name":"amount","type":"uint256[]"},{"internalType":"bool","name":"zeroForOne","type":"bool"},{"internalType":"bytes3[]","name":"marking","type":"bytes3[]"}],"internalType":"struct SwapParams","name":"p","type":"tuple"},{"internalType":"uint128","name":"asset0Balance","type":"uint128"},{"internalType":"uint128","name":"asset1Balance","type":"uint128"}],"name":"getQuote","outputs":[{"internalType":"uint256","name":"quote","type":"uint256"},{"internalType":"uint256","name":"poolID","type":"uint256"}],"stateMutability":"nonpayable","type":"function"},{"inputs":[{"components":[{"internalType":"address","name":"asset0","type":"address"},{"internalType":"address","name":"asset1","type":"address"},{"internalType":"address","name":"quoter","type":"address"},{"internalType":"uint256[]","name":"amount","type":"uint256[]"},{"internalType":"bool","name":"zeroForOne","type":"bool"},{"internalType":"bytes3[]","name":"marking","type":"bytes3[]"}],"internalType":"struct SwapParams","name":"p","type":"tuple"},{"internalType":"uint128[]","name":"asset0Balances","type":"uint128[]"},{"internalType":"uint128[]","name":"asset1Balances","type":"uint128[]"}],"name":"getQuoteBatch","outputs":[{"internalType":"uint256[]","name":"quote","type":"uint256[]"},{"internalType":"uint256[]","name":"poolID","type":"uint256[]"}],"stateMutability":"nonpayable","type":"function"},{"inputs":[{"internalType":"address","name":"user","type":"address"},{"internalType":"address[]","name":"tokens","type":"address[]"}],"name":"getUserDeltas","outputs":[{"internalType":"int256[]","name":"deltas","type":"int256[]"}],"stateMutability":"view","type":"function"},{"inputs":[{"internalType":"address","name":"owner","type":"address"},{"internalType":"address","name":"spender","type":"address"}],"name":"isOperator","outputs":[{"internalType":"bool","name":"","type":"bool"}],"stateMutability":"view","type":"function"},{"inputs":[{"internalType":"uint8","name":"pointer","type":"uint8"}],"name":"removeAlphaMarketAddress","outputs":[],"stateMutability":"nonpayable","type":"function"},{"inputs":[{"internalType":"uint8","name":"pointer","type":"uint8"}],"name":"removeBetaMarketAddress","outputs":[],"stateMutability":"nonpayable","type":"function"},{"inputs":[{"internalType":"address","name":"asset0","type":"address"},{"internalType":"address","name":"asset1","type":"address"},{"internalType":"address","name":"quoter","type":"address"},{"internalType":"bytes3","name":"markings","type":"bytes3"},{"internalType":"uint256","name":"liquidity","type":"uint256"}],"name":"removeLiquidity","outputs":[{"internalType":"uint256","name":"amount0","type":"uint256"},{"internalType":"uint256","name":"amount1","type":"uint256"}],"stateMutability":"nonpayable","type":"function"},{"inputs":[{"components":[{"internalType":"address","name":"asset0","type":"address"},{"internalType":"address","name":"asset1","type":"address"},{"internalType":"address","name":"quoter","type":"address"},{"internalType":"uint256[]","name":"amount","type":"uint256[]"},{"internalType":"bool","name":"zeroForOne","type":"bool"},{"internalType":"bytes3[]","name":"marking","type":"bytes3[]"}],"internalType":"struct SwapParams","name":"p","type":"tuple"},{"internalType":"uint128","name":"asset0Balance","type":"uint128"},{"internalType":"uint128","name":"asset1Balance","type":"uint128"}],"name":"routerGetQuote","outputs":[{"internalType":"uint256","name":"quote","type":"uint256"},{"internalType":"uint256","name":"poolID","type":"uint256"}],"stateMutability":"nonpayable","type":"function"},{"inputs":[{"components":[{"internalType":"address","name":"asset0","type":"address"},{"internalType":"address","name":"asset1","type":"address"},{"internalType":"address","name":"quoter","type":"address"},{"internalType":"uint256[]","name":"amount","type":"uint256[]"},{"internalType":"bool","name":"zeroForOne","type":"bool"},{"internalType":"bytes3[]","name":"marking","type":"bytes3[]"}],"internalType":"struct SwapParams","name":"p","type":"tuple"},{"internalType":"uint128[]","name":"asset0Balances","type":"uint128[]"},{"internalType":"uint128[]","name":"asset1Balances","type":"uint128[]"}],"name":"routerGetQuoteBatch","outputs":[{"internalType":"uint256[]","name":"quote","type":"uint256[]"},{"internalType":"uint256[]","name":"poolID","type":"uint256[]"}],"stateMutability":"nonpayable","type":"function"},{"inputs":[{"internalType":"address","name":"operator","type":"address"},{"internalType":"bool","name":"approved","type":"bool"}],"name":"setOperator","outputs":[{"internalType":"bool","name":"","type":"bool"}],"stateMutability":"nonpayable","type":"function"},{"inputs":[{"internalType":"bytes4","name":"interfaceId","type":"bytes4"}],"name":"supportsInterface","outputs":[{"internalType":"bool","name":"","type":"bool"}],"stateMutability":"view","type":"function"},{"inputs":[{"internalType":"address","name":"asset0","type":"address"},{"internalType":"address","name":"asset1","type":"address"},{"internalType":"address","name":"quoter","type":"address"},{"internalType":"bytes3","name":"markings","type":"bytes3"},{"internalType":"uint256","name":"amountIn","type":"uint256"},{"internalType":"bool","name":"zeroForOne","type":"bool"},{"internalType":"uint256","name":"minAmountOut","type":"uint256"}],"name":"swap","outputs":[{"internalType":"uint256","name":"amountOut","type":"uint256"}],"stateMutability":"payable","type":"function"},{"inputs":[{"internalType":"uint256","name":"poolID","type":"uint256"}],"name":"totalLiquidity","outputs":[{"internalType":"uint256","name":"","type":"uint256"}],"stateMutability":"view","type":"function"},{"inputs":[{"internalType":"address","name":"receiver","type":"address"},{"internalType":"uint256","name":"id","type":"uint256"},{"internalType":"uint256","name":"amount","type":"uint256"}],"name":"transfer","outputs":[{"internalType":"bool","name":"","type":"bool"}],"stateMutability":"nonpayable","type":"function"},{"inputs":[{"internalType":"address","name":"sender","type":"address"},{"internalType":"address","name":"receiver","type":"address"},{"internalType":"uint256","name":"id","type":"uint256"},{"internalType":"uint256","name":"amount","type":"uint256"}],"name":"transferFrom","outputs":[{"internalType":"bool","name":"","type":"bool"}],"stateMutability":"nonpayable","type":"function"}],"evm":{"bytecode":{"linkReferences":{},"object":"60c03461009657601f61438738819003918201601f19168301916001600160401b0383118484101761009a57808492604094855283398101031261009657610052602061004b836100ae565b92016100ae565b9060805260a0526040516142c490816100c3823960805181818161122c0152818161241801526129a7015260a051818181610727015281816122de01526129310152f35b5f80fd5b634e487b7160e01b5f52604160045260245ffd5b51906001600160a01b03821682036100965756fe60806040526004361015610011575f80fd5b5f3560e01c8062fdd58e146101f957806301ffc9a7146101f457806304f71ef61461018b578063095bcdb6146101ef57806319920a5f146101ea5780632f380b35146101e5578063314e2321146101e0578063426a8493146101db578063460c6df8146101d6578063558a7297146101d15780635670f55a146101cc578063598af9e7146101c75780635b298d32146101c25780635dfb78af146101bd57806360a80dbb146101a457806361408f26146101b85780637dc27c95146101b357806383e66c2e146101ae5780638e832e08146101a95780638f155291146101a45780639d2ec6e41461019f578063a1a44dad1461019a578063b5e60c3c14610195578063b6363cf214610190578063c279171d1461018b578063cb1f2f3814610186578063d2615fc814610181578063d92bc84c1461017c578063e513315b14610177578063ea157acf146101725763fe99049a1461016d575f80fd5b611b6f565b611a9f565b61180c565b6115a0565b61155a565b6112e8565b610625565b611285565b61125b565b611217565b611066565b610f0e565b611021565b610fdb565b610f7c565b610f37565b610ded565b610d1f565b610cb2565b610aa0565b610a04565b6109a3565b610912565b6108bd565b610756565b610712565b610673565b610269565b610220565b6001600160a01b0381160361020f57565b5f80fd5b359061021e826101fe565b565b3461020f57604036600319011261020f5760043561023d816101fe565b6024359060018060a01b03165f52600160205260405f20905f52602052602060405f2054604051908152f35b3461020f57602036600319011261020f5760043563ffffffff60e01b811680910361020f576020906301ffc9a760e01b81149081156102ae575b506040519015158152f35b630f632fb360e01b1490505f6102a3565b634e487b7160e01b5f52604160045260245ffd5b608081019081106001600160401b038211176102ee57604052565b6102bf565b90601f801991011681019081106001600160401b038211176102ee57604052565b6040519061021e60c0836102f3565b6040519061021e6080836102f3565b6040519061021e610100836102f3565b6001600160401b0381116102ee5760051b60200190565b92919061036581610342565b9361037360405195866102f3565b602085838152019160051b810192831161020f57905b82821061039557505050565b8135815260209182019101610389565b9080601f8301121561020f578160206103c093359101610359565b90565b8015150361020f57565b359061021e826103c3565b6001600160e81b031981160361020f57565b9291906103f681610342565b9361040460405195866102f3565b602085838152019160051b810192831161020f57905b82821061042657505050565b602080918335610435816103d8565b81520191019061041a565b9080601f8301121561020f578160206103c0933591016103ea565b91909160c08184031261020f57610470610314565b9261047a82610213565b845261048860208301610213565b602085015261049960408301610213565b604085015260608201356001600160401b03811161020f57816104bd9184016103a5565b60608501526104ce608083016103cd565b608085015260a08201356001600160401b03811161020f576104f09201610440565b60a0830152565b9080601f8301121561020f5781359061050f82610342565b9261051d60405194856102f3565b82845260208085019360051b82010191821161020f57602001915b8183106105455750505090565b82356001600160801b038116810361020f57815260209283019201610538565b606060031982011261020f576004356001600160401b03811161020f578161058f9160040161045b565b916024356001600160401b03811161020f57826105ae916004016104f7565b91604435906001600160401b03821161020f576103c0916004016104f7565b90602080835192838152019201905f5b8181106105ea5750505090565b82518452602093840193909201916001016105dd565b90916106176103c0936040845260408401906105cd565b9160208184039101526105cd565b3461020f5761063c61063636610565565b91612092565b9061064c60405192839283610600565b0390f35b606090600319011261020f57600435610668816101fe565b906024359060443590565b3461020f5761068136610650565b9091335f52600160205260405f20835f5260205260405f2080549083820391821161070d575560018060a01b031690815f5260016020526106cd8360405f20905f5260205260405f2090565b6106d8828254612549565b9055604080513380825260208201939093525f51602061426f5f395f51905f5291819081015b0390a460405160018152602090f35b61251a565b3461020f575f36600319011261020f576040517f00000000000000000000000000000000000000000000000000000000000000006001600160a01b03168152602090f35b3461020f57602036600319011261020f576004355f6060604051610779816102d3565b82815282602082015282604082015201525f52600760205260405f20604051906107a2826102d3565b80546001600160a01b0390811680845260018301548216602085018190526002909301549182166040850181905260489290921b6001600160e81b031916606094909401849052909261064c916108199061080b906107fe9081565b956001600160a01b031690565b916001600160e81b03191690565b604080516001600160a01b039586168152958516602087015291909316908401526001600160e81b0319909116606083015281906080820190565b9181601f8401121561020f578235916001600160401b03831161020f576020808501948460051b01011161020f57565b60206040818301928281528451809452019201905f5b8181106108a75750505090565b825184526020938401939092019160010161089a565b3461020f57604036600319011261020f576004356108da816101fe565b6024356001600160401b03811161020f5761064c91610900610906923690600401610854565b91612579565b60405191829182610884565b3461020f5761092036610650565b9091335f5260026020526109478160405f209060018060a01b03165f5260205260405f2090565b835f526020528160405f205560405191825260018060a01b0316907fb3fd5071835887567a0671151121894ddccc2842f1d10bedad13e0d17cace9a760203392a4602060405160018152f35b6004359060ff8216820361020f57565b3461020f57604036600319011261020f57610a026109bf610993565b60ff602435916109ce836101fe565b166109db601082106125ef565b5f52600360205260405f209060018060a01b03166001600160601b0360a01b825416179055565b005b3461020f57604036600319011261020f57600435610a21816101fe565b60243590610a2e826103c3565b335f908152602081815260408083206001600160a01b038516845290915290209115159160ff1981541660ff841617905560405191825260018060a01b0316907fceb576d9f15e4e200fdb5096d64d5dfd667e16def20c1eefd14256d8e3faa26760203392a360405160018152602090f35b3461020f57608036600319011261020f57600435610abd816101fe565b602435610ac9816101fe565b60443591610ad6836101fe565b60643591610ae3836103d8565b610af3610aee612f20565b612f63565b610aff83858385612c9d565b9260018060a01b03610b2c6002610b1e875f52600760205260405f2090565b01546001600160a01b031690565b16610c9e5761064c9484937f68df9a4eb7aacbe8f43763bfbc9f7ca135a5397190ea1cce2558db52dc2f36929391929091906001600160a01b038083169084161015610c9357610c7691935b610c3a610b83610323565b6001600160a01b03861681526001600160a01b03871660208201526001600160a01b03831660408201526001600160e81b031984166060820152610bcf895f52600760205260405f2090565b815181546001600160a01b03199081166001600160a01b039283161783556020840151600184018054909216908316179055604083015160029092018054606090940151929091166001600160b81b03199093169290921760489190911c62ffffff60a01b16179055565b604080516001600160a01b03958616815295851660208701529316928401929092526001600160e81b0319909116606083015281906080820190565b0390a25f610c82612f20565b5d6040519081529081906020820190565b610c76919293610b78565b63e1ecc13360e01b5f52600484905260245ffd5b3461020f57606036600319011261020f57600435610ccf816101fe565b610d0a602435610cde816101fe565b6044359260018060a01b03165f52600260205260405f209060018060a01b03165f5260205260405f2090565b905f52602052602060405f2054604051908152f35b3461020f57602036600319011261020f5760406001600160801b03610d5e6004355f52600660205260405f2054906001600160801b0382169160801c90565b835191831682529091166020820152f35b90606060031983011261020f57600435610d88816101fe565b91602435916001600160401b03831161020f578160238401121561020f578260040135926001600160401b03841161020f57826024858301011161020f576024019291604435906001600160401b03821161020f57610de991600401610854565b9091565b610df636610d6f565b9391610e00612f6f565b92610e0a84612f63565b6001610e1633306136e2565b5d610e2033612fd8565b6001600160a01b031693843b1561020f57604051631c6e724760e31b8152915f918391610e50916004840161263b565b95818381819903925af18015610eb457610e96575b508293610e78610e7e9234923691612662565b336130b6565b610e8661314e565b5f610e9133306136e2565b5d5d80f35b610e7e91935093610eaa5f610e78966102f3565b5f93915093610e65565b612087565b606060031982011261020f57600435906001600160401b03821161020f57610ee39160040161045b565b906024356001600160801b038116810361020f57906044356001600160801b038116810361020f5790565b3461020f57610f25610f1f36610eb9565b91612760565b60408051928352602083019190915290f35b3461020f57602036600319011261020f5760ff610f52610993565b16610f5f601082106125ef565b5f90815260046020526040902080546001600160a01b0319169055005b3461020f57604036600319011261020f57610a02610f98610993565b60ff60243591610fa7836101fe565b16610fb4601082106125ef565b5f52600460205260405f209060018060a01b03166001600160601b0360a01b825416179055565b3461020f57602036600319011261020f5760ff610ff6610993565b16611003601082106125ef565b5f526004602052602060018060a01b0360405f205416604051908152f35b3461020f57602036600319011261020f5760ff61103c610993565b16611049601082106125ef565b5f90815260036020526040902080546001600160a01b0319169055005b606036600319011261020f576004356001600160401b03811161020f57611091903690600401610854565b604435916024356110a3610aee612f20565b6110ab6131a0565b906001600160a01b0382161561120f575b6110c984939415156131ea565b925f925f915f915b80831061113657506110ef91506110ea905083306136e2565b5c1590565b611123575b50505081811061110b5761064c905f610c82612f20565b63d438755d60e01b5f5260049190915260245260445ffd5b61112e9234926133a6565b5f80806110f4565b909195611144878385613220565b90871580916111528561252e565b8a14926111d2575b908291889361118f575b9161117f939160019593815f146111885734905b30956139b4565b960191906110d1565b5f90611178565b965091839161117f936111a660a060019701613242565b156111c4576111b76020850161256f565b9891939550919350611164565b6111cd8461256f565b6111b7565b829850908792916111e560a08601613242565b156111fe576111f38561256f565b99509091925061115a565b61120a6020860161256f565b6111f3565b3391506110bc565b3461020f575f36600319011261020f576040517f00000000000000000000000000000000000000000000000000000000000000006001600160a01b03168152602090f35b3461020f57602036600319011261020f576004355f526005602052602060405f2054604051908152f35b3461020f57604036600319011261020f57602060ff6112dc6004356112a9816101fe565b602435906112b6826101fe565b60018060a01b03165f525f845260405f209060018060a01b03165f5260205260405f2090565b54166040519015158152f35b3461020f5760a036600319011261020f57600435611305816101fe565b6001600160801b03602435611319816101fe565b60443592611326846101fe565b611356606435611335816103d8565b60843595611344610aee612f20565b61134f871515612a01565b8484612c9d565b936113df6113cd856113c56113ac6113868a5f52600660205260405f2054906001600160801b0382169160801c90565b99906113a561139d8d5f52600560205260405f2090565b541515612a4d565b1686612ad8565b6113be8a5f52600560205260405f2090565b5490612aeb565b961683612ad8565b6113be875f52600560205260405f2090565b94841580611552575b611539576113f46131a0565b906001600160a01b03821615611531575b826114158394836114649561324c565b61143261142a835f52600560205260405f2090565b91825461253c565b90556114496001600160801b038716600f0b612b09565b61145e6001600160801b038916600f0b612b09565b916132cb565b6001600160a01b0383811690831610916114a59083156115255761149e869588925b861561151e5780965b156115165750955b8585613321565b8483613321565b6114b26110ea82306136e2565b6114d5575b5050505f6114c3612f20565b5d604080519182526020820192909252f35b61150961150e936115006114e7612b29565b946114f186611d85565b6001600160a01b039091169052565b6114f184611d97565b613021565b5f80806114b7565b905095611497565b819661148f565b61149e87958792611486565b339150611405565b63d5de620560e01b5f526004859052602486905260445ffd5b5085156113e8565b3461020f57602036600319011261020f5760ff611575610993565b16611582601082106125ef565b5f526003602052602060018060a01b0360405f205416604051908152f35b60e036600319011261020f576004356115b8816101fe565b602435906115c5826101fe565b604435906115d2826101fe565b6064356115de816103d8565b60843560a435926115ee846103c3565b60c435926115fd610aee612f20565b6116056131a0565b936001600160a01b03851615611804575b61162282888a86612c9d565b9188611646845f52600660205260405f2054906001600160801b0382169160801c90565b999080938b9289611655611d1d565b61165d611d1d565b92611666610314565b6001600160a01b038d168152976001600160a01b031660208901526001600160a01b03166040880152606087019081528d1515608088015260a08701928352516116af90611d85565b52516116ba90611d85565b6001600160e81b031990911690526116d192612760565b509788156117f5578888916116e593613334565b8087106117de575061064c9661175e9261175792611742906001600160a01b0380851690841610156117d757885b80156117bc576001600160801b038816600f0b905b156117a95761145e6001600160801b038c16600f0b612b09565b86156117a25780965b1561179a575092612b4b565b8484613321565b611769848284613321565b6117766110ea83306136e2565b611787575b5050505f610c82612f20565b6117929234926133a6565b5f808061177b565b905092612b4b565b819661174b565b6001600160801b038816600f0b916132cb565b6117d16001600160801b038c16600f0b612b09565b90611728565b8815611713565b63d438755d60e01b5f52600452602486905260445ffd5b6314033f2160e11b5f5260045ffd5b339450611616565b60c036600319011261020f57600435611824816101fe565b602435611830816101fe565b6044359161183d836101fe565b606435611849816103d8565b60a4359260843561185b610aee612f20565b61186783878487612c9d565b6001600160a01b0383811690861610949091908515611a995792945b15611a935794925b5f828152600660205260409020546001600160801b0381169060801c9190976118bc845f52600560205260405f2090565b546119da57505061064c96826118f992881515806119d1575b6118de90612b5b565b6118f0876118eb8b612a90565b612aeb565b925b878a613513565b946119026131a0565b936001600160a01b038516156119c9575b816001600160801b038061195a936119386119316119739897612b4b565b898b613321565b61194b61194482612b4b565b8b8b613321565b16600f0b9116600f0b836132cb565b6119658682866135e0565b5f52600560205260405f2090565b61197e858254612549565b905561198d6110ea83306136e2565b61199d575050505f610c82612f20565b6119c2611792936119b96119af612b29565b936114f185611d85565b6114f183611d97565b34916130b6565b339450611913565b508615156118d5565b8885611a77611a7c94611a678b670de0b6b3a7640000611a608a98611a47611a00611d1d565b91611a37611a0c611d1d565b96611a27611a18610314565b6001600160a01b03909d168d52565b6001600160a01b031660208c0152565b6001600160a01b031660408a0152565b606088018190525f608089015260a08801938452611d85565b5251611d85565b6001600160e81b03199091169052565b612760565b509687156117f557826118f99261064c99926118f2565b9261188b565b94611883565b611aa836610d6f565b5f949391929491611ab7612f6f565b94611ac186612f63565b6001611acd33306136e2565b5d611ad733612fd8565b6001600160a01b031695863b1561020f57611b0b965f9283604051809a81958294631c6e724760e31b84526004840161263b565b03925af1948515610eb45761064c95611b59575b50611b3a9192611b3434610e78368585612662565b33612579565b91611b4361314e565b611b4c33613192565b5d60405191829182610884565b611b3a92505f611b68916102f3565b5f91611b1f565b3461020f57608036600319011261020f57600435611b8c816101fe565b602435611b98816101fe565b604435915f51602061426f5f395f51905f526106fe606435936001600160a01b03841693611bfa908790611bed903388141580611ce9575b611c59576001600160a01b03165f90815260016020526040902090565b905f5260205260405f2090565b611c0586825461253c565b90556001600160a01b0381165f908152600160205260409020611c29908790611bed565b611c34868254612549565b90556040805133815260208101969096526001600160a01b0390911694918291820190565b611c9083611bed33611c7b8560018060a01b03165f52600260205260405f2090565b9060018060a01b03165f5260205260405f2090565b548960018201611cb6575b50506001600160a01b03165f90815260016020526040902090565b611cbf9161253c565b611ce184611bed33611c7b8660018060a01b03165f52600260205260405f2090565b555f89611c9b565b50611d18611d14611d0d33611c7b8560018060a01b03165f525f60205260405f2090565b5460ff1690565b1590565b611bd0565b60408051909190611d2e83826102f3565b6001815291601f1901366020840137565b90611d4982610342565b611d5660405191826102f3565b8281528092611d67601f1991610342565b0190602036910137565b634e487b7160e01b5f52603260045260245ffd5b805115611d925760200190565b611d71565b805160011015611d925760400190565b8051821015611d925760209160051b010190565b15611dc257565b60405162461bcd60e51b8152602060048201526015602482015274416c7068612061646472657373206973207a65726f60581b6044820152606490fd5b805191908290602001825e015f815290565b9061021e611e379260405193849160206060518060808387015e840101905f8252611dff565b03601f1981018452836102f3565b61021e90611e37611e6194936040519586936020850190611dff565b90611dff565b15611e6e57565b60405162461bcd60e51b8152602060048201526014602482015273426574612061646472657373206973207a65726f60601b6044820152606490fd5b9080601f8301121561020f578151611ec181610342565b92611ecf60405194856102f3565b81845260208085019260051b82010192831161020f57602001905b828210611ef75750505090565b8151815260209182019101611eea565b9060208282031261020f5781516001600160401b03811161020f576103c09201611eaa565b90602080835192838152019201905f5b818110611f495750505090565b82516001600160801b0316845260209384019390920191600101611f3c565b90602080835192838152019201905f5b818110611f855750505090565b825161ffff16845260209384019390920191600101611f78565b805180835260209291819084018484015e5f828201840152601f01601f1916010190565b604080825282516001600160a01b0316908201526103c0929060208301516001600160a01b0316606082015260408301516001600160a01b0316608082015261207a60e061206d61205661204161202b606089015161010060a08901526101408801906105cd565b6080890151878203603f190160c0890152611f2c565b60a0880151868203603f190185880152611f2c565b60c0870151858203603f1901610100870152611f68565b9401511515610120830152565b6020818403910152611f9f565b6040513d5f823e3d90fd5b9260a08401926120a3845151611d3f565b916120af855151611d3f565b506120bb855151611d3f565b936120df6120da6120cc8851611d85565b516001600160e81b03191690565b612bed565b5f5b87518051821015612165579061215f61214c60c06121438d8b61213d876121376121106120cc8360019d611da7565b85516020870151604090970151919687926001600160a01b03908116929181169116612c9d565b92611da7565b52612bed565b015161ffff1690565b612156838b611da7565b9061ffff169052565b016120e1565b505087519297949650909490939290916001600160a01b0316602084018051919390916001600160a01b03166040860180519094919291906001600160a01b0316986060880151608089019a8b516121bc90151590565b956121c5610332565b6001600160a01b03909a168a526001600160a01b031660208a01526001600160a01b031660408901526060880152608087015260a086015260c0850152151560e08401528451606094901515965f9661226a986123fb575b602081015161229e575b5050915161224d925061224191506001600160a01b031681565b6001600160a01b031690565b908360405180968195829462db90d160e81b845260048401611fc3565b03925af1908115610eb4575f9161227f575091565b61229b91503d805f833e61229381836102f3565b810190611f07565b91565b956123a661224194612241946123a18861237e6123ac978d6122c761224d9d9f60600151151590565b156123b4575061236e61234361233c61232e6123207f0000000000000000000000000000000000000000000000000000000000000000995b6123136001600160a01b038c161515611e67565b516001600160a01b031690565b99516001600160a01b031690565b95516001600160a01b031690565b9251151590565b9361235e61234f610332565b6001600160a01b039099168952565b6001600160a01b03166020880152565b6001600160a01b03166040860152565b8c60608501528c60808501528c60a08501528c60c085015260e084019015159052565b612d97565b90611e45565b94925f612227565b61234361233c61232e6123206123f56123e86123d760a061236e98015160ff1690565b60ff165f52600460205260405f2090565b546001600160a01b031690565b996122ff565b956124e56124ea9161241060408a0151151590565b8a146124f0577f00000000000000000000000000000000000000000000000000000000000000005b61244c6001600160a01b0382161515611dbb565b85516123a1906001600160a01b031688519093908d906001600160a01b03168b519092906124c5906001600160a01b03166124b561248a8c51151590565b956124a5612496610332565b6001600160a01b03909b168b52565b6001600160a01b031660208a0152565b6001600160a01b03166040880152565b8501528c60808501528c60a08501528c60c085015260e084019015159052565b611e11565b9561221d565b6125156123e861250460808c015160ff1690565b60ff165f52600360205260405f2090565b612438565b634e487b7160e01b5f52601160045260245ffd5b5f1981019190821161070d57565b9190820391821161070d57565b9190820180921161070d57565b9015611d925790565b9190811015611d925760051b0190565b356103c0816101fe565b92919261258584610342565b9061259360405192836102f3565b848252601f196125a286610342565b0136602084013781945f5b8181106125bb575050505050565b806125dd6125cc600193858961255f565b356125d6816101fe565b853061366d565b5c6125e88287611da7565b52016125ad565b156125f657565b60405162461bcd60e51b815260206004820152601d60248201527f496e76616c696420706f696e7465723a206d75737420626520302d31350000006044820152606490fd5b90918060409360208452816020850152848401375f828201840152601f01601f1916010190565b92919061266e81610342565b9361267c60405195866102f3565b602085838152019160051b810192831161020f57905b82821061269e57505050565b6020809183356126ad816101fe565b815201910190612692565b9081602091031261020f575190565b80516001600160a01b03908116835260208083015182169084015260408083015190911690830152606080820151908301526080808201516001600160801b03169083015261021e919060e090819060a0818101516001600160801b03169085015260c08181015161ffff169085015201511515910152565b80612752610120926103c095946126c7565b816101008201520190611f9f565b805160208201805160408401805160a08601805190989694959294936001600160a01b039384169390811692169061279790611d85565b516001600160e81b031916916127ac93612c9d565b95516127b790611d85565b516001600160e81b0319166127cb90612bed565b81519094906001600160a01b031693516001600160a01b031692516001600160a01b03169560608301516127fe90611d85565b5160c087015161ffff16608090940151151594612819610332565b6001600160a01b0390971687526001600160a01b031660208701526001600160a01b03909716604086019081529660608601526001600160801b031660808501526001600160801b031660a084015261ffff1660c0830152151560e08201528151606091901515936020936128ca9561298a575b80850151612908575b50516128ac90612241906001600160a01b031681565b905f6040518096819582946305e3344d60e41b845260048401612740565b03925af1908115610eb4575f916128df575091565b61229b915060203d602011612901575b6128f981836102f3565b8101906126b8565b503d6128ef565b6122416129656128ac939583866129256060612241970151151590565b1561296e576123a691507f00000000000000000000000000000000000000000000000000000000000000005b6123a16001600160a01b0382161515611e67565b94925050612896565b6129856123e86123d760a06123a695015160ff1690565b612951565b92506129996040840151151590565b156129e1576129db6124e5837f00000000000000000000000000000000000000000000000000000000000000005b6123a16001600160a01b0382161515611dbb565b9261288d565b6129db6124e5836129fc6123e8612504608089015160ff1690565b6129c7565b15612a0857565b60405162461bcd60e51b815260206004820152601860248201527f496e76616c6964206c697175696469747920616d6f756e7400000000000000006044820152606490fd5b15612a5457565b60405162461bcd60e51b8152602060048201526014602482015273139bc81b1a5c5d5a591a5d1e481a5b881c1bdbdb60621b6044820152606490fd5b90670de0b6b3a7640000820291808304670de0b6b3a7640000149015171561070d57565b9067120a871cc002000082029180830467120a871cc0020000149015171561070d57565b8181029291811591840414171561070d57565b8115612af5570490565b634e487b7160e01b5f52601260045260245ffd5b600f0b6f7fffffffffffffffffffffffffffffff19811461070d575f0390565b60405160609190612b3a83826102f3565b6002815291601f1901366020840137565b600160ff1b811461070d575f0390565b15612b6257565b60405162461bcd60e51b815260206004820152601760248201527f496e76616c696420696e697469616c20616d6f756e74730000000000000000006044820152606490fd5b6040519060e082018281106001600160401b038211176102ee576040525f60c0838281528260208201528260408201528260608201528260808201528260a08201520152565b6103c0610fff612c91612bfe612ba7565b9360e81c612c1e6001612c1783627fffff9060011c1690565b1615158652565b6001811615156020860152612c4e612c456001600284901c623fffff165b1662ffffff1690565b15156040870152565b612c6e612c656001600384901c621fffff16612c3c565b15156060870152565b600f600482901c81166080870152600882901c1660a0860152600c1c610fff1690565b1661ffff1660c0830152565b9092906001600160a01b038085169082161015612d0f5792915b6040516bffffffffffffffffffffffff19606095861b81166020830190815294861b811660348301529190941b1660488401526001600160e81b031916605c830152603f825290612d09605f826102f3565b51902090565b91612cb7565b60208183031261020f578051906001600160401b03821161020f570181601f8201121561020f578051906001600160401b0382116102ee5760405192612d65601f8401601f1916602001856102f3565b8284526020838301011161020f57815f9260208093018386015e8301015290565b6101008101929161021e91906126c7565b90606091805c801580612f0b575b15612ec5575b508251159182612df6575b50604051911582526001600160a01b0316907fd34145bf6de6d1b18053ad66a4a1af093071a5ab67c05b8bfce98fd95ffb0d899080602081015b0390a290565b604051633bd1104b60e01b815293505f9084908190612e189060048301612d86565b0381836001600160a01b0386165af1928315610eb4575f93612e7b575b50612df07fd34145bf6de6d1b18053ad66a4a1af093071a5ab67c05b8bfce98fd95ffb0d8991848051612e6b575b509150612db6565b612e759082613639565b5f612e63565b7fd34145bf6de6d1b18053ad66a4a1af093071a5ab67c05b8bfce98fd95ffb0d89919350612ebd612df0913d805f833e612eb581836102f3565b810190612d15565b939150612e35565b9250601f60405193808552018060051c5f5b818110612ef2575050601f191683016020016040525f612dab565b80600180928601015c60208260051b8901015201612ed7565b9350604051935f855260208501604052612da5565b60405160208101907f626529a6be7cb2fb96a7ed93849b4ef74c980495dfe61fd514c95dcd9da51c3582523060601b604082015260348152612d096054826102f3565b805c61020f576001905d565b60405160208101907f626529a6be7cb2fb96a7ed93849b4ef74c980495dfe61fd514c95dcd9da51c3582523060601b60408201527f88f108d443a200407df3d92fc06ed196d7b48635560cc21c3b1819792e11c1a7605482015260548152612d096074826102f3565b60405160208101907f507ba82850c15277b79bae90c6e97b66228a117b64d05e46b3182d141df61ce282523060601b60408201526034815261301b6054826102f3565b5190205d565b8151915f5b8381106130335750505050565b6001906001600160a01b036130488285611da7565b511661305581863061366d565b5c80613064575b505001613026565b5f91613084918381131561308c5761307d9088836138b8565b863061366d565b5d5f8061305c565b6130986130aa91612b4b565b821585146130af5784905b89846137de565b61307d565b84906130a3565b90918251925f5b8481106130cb575050505050565b6001906001600160a01b036130e08285611da7565b51166130ed81873061366d565b5c806130fc575b5050016130bd565b5f9161311c9183811315613124576131159089836138b8565b873061366d565b5d5f806130f4565b61313061314291612b4b565b821585146131475788905b8a846137de565b613115565b849061313b565b5f60405160208101907f507ba82850c15277b79bae90c6e97b66228a117b64d05e46b3182d141df61ce282523060601b60408201526034815261301b6054826102f3565b61319d5f91306136e2565b5d565b60405160208101907f507ba82850c15277b79bae90c6e97b66228a117b64d05e46b3182d141df61ce282523060601b6040820152603481526131e36054826102f3565b5190205c90565b156131f157565b60405162461bcd60e51b81526020600482015260076024820152664e6f20686f707360c81b6044820152606490fd5b9190811015611d925760051b8101359060be198136030182121561020f570190565b356103c0816103c3565b91909160018060a01b0316805f52600160205260405f20835f5260205260405f2080549083820391821161070d57556040805133815260208101939093525f925f51602061426f5f395f51905f5291819081015b0390a4565b90600f0b90600f0b019060016001607f1b0319821260016001607f1b0383131761070d57565b9091815f5260066020526001600160801b036132fe6132f460405f205495838716600f0b6132a5565b928560801d6132a5565b81199060801b16911617918203613313575050565b5f52600660205260405f2055565b9061332c913061366d565b90815c01905d565b6001600160801b0392935f1461336757501690808210613352575050565b630173586760e01b5f5260045260245260445ffd5b90501690808210613376575050565b6368580a1960e01b5f5260045260245260445ffd5b9190915f838201938412911290801582169115161761070d57565b90926133b384833061366d565b5c6133bf84843061366d565b5c916001600160a01b038581169290871680841461348857918161342295935f61021e9a9694125f14613468576133f861340792612b4b565b906134615782905b88876137de565b5f83131561342757505061341c9084866138b8565b82613929565b613929565b5f8312613437575b50505061341c565b61344361345193612b4b565b9161345957905b85876137de565b5f808061342f565b505f9061344a565b5f90613400565b505f8113613477575b50613407565b6134829087866138b8565b5f613471565b925061021e9695936134999161338b565b925f8412156134c557506134af61342293612b4b565b916134bd57905b83856137de565b505f906134b6565b92915050825f82136134da575b505050613929565b6134e3926138b8565b5f80826134d2565b6001600160801b03670de0b6b3a7640000911602906001600160801b03821691820361070d57565b929493919093825f52600560205260405f2054155f146135535750505061353a9250612549565b905b811561354457565b63283eeadf60e01b5f5260045ffd5b90929193670de0b6b3a7640000810290808204670de0b6b3a7640000149015171561070d578161358291612aeb565b820180921161070d576135c36118eb936001600160801b036135bc6135d3946118eb6135b06135da9b6134eb565b6001600160801b031690565b9116612549565b936005905f5260205260405f2090565b5490612ad8565b9061353c565b91909160018060a01b031690815f52600160205260405f20835f5260205260405f2080549082820180921161070d57556040805133815260208101929092525f915f51602061426f5f395f51905f5291819081016132a0565b601f825180835d0160051c915f5b8381106136545750505050565b80602060019260051b8401015182828601015d01613647565b916040519160208301937f71aa94563c1d78d77df681ad802fc1a81ea7d00cffe4bbe002400e1d66de80d285526001600160601b03199060601b1660408401526001600160601b03199060601b1660548301526001600160601b03199060601b166068820152605c8152612d09607c826102f3565b906040519060208201927fe88690b85c82523984f05d1f281684a73aa4d4303bca19cfe29aa89ae744616a84526001600160601b03199060601b1660408301526001600160601b03199060601b16605482015260488152612d096068826102f3565b9081602091031261020f57516103c0816103c3565b1561376057565b60405162461bcd60e51b8152602060048201526015602482015274115490cc8c081d1c985b9cd9995c8819985a5b1959605a1b6044820152606490fd5b156137a457565b60405162461bcd60e51b8152602060048201526012602482015271125b98dbdc9c9958dd08115512081cd95b9d60721b6044820152606490fd5b6001600160a01b03169290836137fa575061021e92501461379d565b9190613880576040516323b872dd60e01b81526001600160a01b0390921660048301523060248301526044820152906020908290815f81606481015b03925af18015610eb45761021e915f91613851575b50613759565b613873915060203d602011613879575b61386b81836102f3565b810190613744565b5f61384b565b503d613861565b60405162461bcd60e51b815260206004820152601060248201526f115512081b9bdd08195e1c1958dd195960821b6044820152606490fd5b6001600160a01b0316806138f257505f8080938193829082156138e8575b6001600160a01b031690f115610eb457565b6108fc91506138d6565b60405163a9059cbb60e01b81526001600160a01b0390921660048301526024820192909252906020908290815f8160448101613836565b5f9161319d913061366d565b903590601e198136030182121561020f57018035906001600160401b03821161020f57602001918160051b3603831361020f57565b1561397157565b60405162461bcd60e51b81526020600482015260116024820152704d69736d6174636865642061727261797360781b6044820152606490fd5b356103c0816103d8565b959493929150606086016139c88188613935565b905015613a6a576139f46139df6080890189613935565b90506139eb838a613935565b9190501461396a565b6001613a008289613935565b9050145f14613a5e5786613a166103c09861256f565b91613a236020830161256f565b613a5660a0613a4f613a4a613a44613a3d6040890161256f565b9688613935565b90612556565b6139aa565b9401613242565b936005613f73565b506103c0956005613bbf565b60405162461bcd60e51b815260206004820152600b60248201526a4e6f206d61726b696e677360a81b6044820152606490fd5b91909160408184031261020f5780516001600160401b03811161020f5783613ac6918301611eaa565b9260208201516001600160401b03811161020f576103c09201611eaa565b90602080835192838152019201905f5b818110613b015750505090565b82516001600160e81b031916845260209384019390920191600101613af4565b80516001600160a01b0390811683526020808301518216908401526040808301519091169083015260608082015160c09184018290526103c0939160a091613b6b918401906105cd565b9260808101511515608084015201519060a0818403910152613ae4565b91613bb190613ba36103c09593606086526060860190613b21565b908482036020860152611f2c565b916040818403910152611f2c565b96949590929391966060840197613bd68986613935565b969050613f30575b50613be885611d3f565b91613bf286611d3f565b905f5b878110613e9a5750815f91858389613cb9613cdb9d9e9f613c8d613cb2613c1b8561256f565b94613ca4613c2b6020830161256f565b94613c60613c9d613c3e6040860161256f565b613c4b6080870187613935565b939094613c5a60a08901613242565b97613935565b989099613c7d613c6e610314565b6001600160a01b03909e168e52565b6001600160a01b031660208d0152565b6001600160a01b031660408b0152565b3691610359565b606087015215156080860152565b36916103ea565b60a082015260405163027b8f7b60e11b81529c8d958694859360048501613b88565b03926001600160a01b03165af1908115610eb4575f975f92613e73575b505f5b878110613d7757505050505090613d249495613d1e9392613d28575b505061252e565b90611da7565b5190565b81613d3860a0613d629401613242565b15613d69576020613d49910161256f565b613d5b613d558561252e565b87611da7565b5191613321565b5f80613d17565b613d729061256f565b613d49565b80613e398a89613da184613d9a600197613d946080860186613935565b9061255f565b3593611da7565b51613ddf613dbf613db2878d611da7565b516001600160801b031690565b82613dcd613db2898c611da7565b613dd960a08701613242565b92613334565b613de98589611da7565b5192613df760a08401613242565b15613e5357613e1660a06001600160801b038316600f0b945b01613242565b15613e3f57506001600160801b03613e319116600f0b612b09565b915b88614097565b01613cfb565b6001600160801b03915016600f0b91613e33565b613e1660a0613e6d6001600160801b038516600f0b612b09565b94613e10565b909750613e9291503d805f833e613e8a81836102f3565b810190613a9d565b90965f613cf8565b600190613f2a613f20613f05613ee48f8c613eb48161256f565b91613ede613a4a89613d94613ecb6020870161256f565b94613ed86040880161256f565b96613935565b92612c9d565b886001915f520160205260405f2054906001600160801b0382169160801c90565b613f128589949394611da7565b906001600160801b03169052565b613f128389611da7565b01613bf5565b613f5e90613f4060a08701613242565b15613f6457613f57613f518761256f565b91612b4b565b9089613321565b5f613bde565b613f57613f516020880161256f565b9185809c9b829893979b99959a969a613f8e8c82868c612c9d565b9661406e575b8885613fbb89896001915f520160205260405f2054906001600160801b0382169160801c90565b9e8f948298613fcb989395614135565b9b8c809a613fd893613334565b614013928915614053576001600160801b038216600f0b915b8a15614041575061400d6001600160801b038a16600f0b612b09565b92614097565b61401f575b5050505050565b61402f9415614039575090613321565b5f82818080614018565b905090613321565b6001600160801b0316600f0b92614097565b6140686001600160801b038a16600f0b612b09565b91613ff1565b821561408e57614089895b61408287612b4b565b908d613321565b613f94565b61408984614079565b6001909392930191815f52826020526001600160801b036140cf6140c560405f205496838816600f0b6132a5565b928660801d6132a5565b81199060801b169116179283036140e557505050565b5f5260205260405f2055565b919082604091031261020f576020825192015190565b9193926001600160801b039081614128604094606087526060870190613b21565b9616602085015216910152565b6141d998935f926141ab6040989a97999561419c614151611d1d565b938d61415c86611d85565b52614172614168611d1d565b96611a6788611d85565b61418c61417d610314565b6001600160a01b039098168852565b6001600160a01b03166020870152565b6001600160a01b0316848a0152565b6060830152871515608083015260a082015285516360a80dbb60e01b81529889958694859360048501614107565b03926001600160a01b03165af1928315610eb4575f9361423c575b50821561420057505090565b90915015614222576142146103c091612ab4565b670de0b6b3a7640000900490565b61422e6103c091612a90565b67120a871cc0020000900490565b61425f91935060403d604011614267575b61425781836102f3565b8101906140f1565b50915f6141f4565b503d61424d56fe1b3d7edb2e9c0b0e7c525b20aaaef0f5940d2ed71663c7d39266ecafac728859a26469706673582212206aa1dd5c9b8a422f7002cb7599bb3c0b2bbf13eff03e052c84e17051f9c8488064736f6c634300081e0033","opcodes":"PUSH1 0xC0 CALLVALUE PUSH2 0x96 JUMPI PUSH1 0x1F PUSH2 0x4387 CODESIZE DUP2 SWAP1 SUB SWAP2 DUP3 ADD PUSH1 0x1F NOT AND DUP4 ADD SWAP2 PUSH1 0x1 PUSH1 0x1 PUSH1 0x40 SHL SUB DUP4 GT DUP5 DUP5 LT OR PUSH2 0x9A JUMPI DUP1 DUP5 SWAP3 PUSH1 0x40 SWAP5 DUP6 MSTORE DUP4 CODECOPY DUP2 ADD SUB SLT PUSH2 0x96 JUMPI PUSH2 0x52 PUSH1 0x20 PUSH2 0x4B DUP4 PUSH2 0xAE JUMP JUMPDEST SWAP3 ADD PUSH2 0xAE JUMP JUMPDEST SWAP1 PUSH1 0x80 MSTORE PUSH1 0xA0 MSTORE PUSH1 0x40 MLOAD PUSH2 0x42C4 SWAP1 DUP2 PUSH2 0xC3 DUP3 CODECOPY PUSH1 0x80 MLOAD DUP2 DUP2 DUP2 PUSH2 0x122C ADD MSTORE DUP2 DUP2 PUSH2 0x2418 ADD MSTORE PUSH2 0x29A7 ADD MSTORE PUSH1 0xA0 MLOAD DUP2 DUP2 DUP2 PUSH2 0x727 ADD MSTORE DUP2 DUP2 PUSH2 0x22DE ADD MSTORE PUSH2 0x2931 ADD MSTORE RETURN JUMPDEST PUSH0 DUP1 REVERT JUMPDEST PUSH4 0x4E487B71 PUSH1 0xE0 SHL PUSH0 MSTORE PUSH1 0x41 PUSH1 0x4 MSTORE PUSH1 0x24 PUSH0 REVERT JUMPDEST MLOAD SWAP1 PUSH1 0x1 PUSH1 0x1 PUSH1 0xA0 SHL SUB DUP3 AND DUP3 SUB PUSH2 0x96 JUMPI JUMP INVALID PUSH1 0x80 PUSH1 0x40 MSTORE PUSH1 0x4 CALLDATASIZE LT ISZERO PUSH2 0x11 JUMPI PUSH0 DUP1 REVERT JUMPDEST PUSH0 CALLDATALOAD PUSH1 0xE0 SHR DUP1 PUSH3 0xFDD58E EQ PUSH2 0x1F9 JUMPI DUP1 PUSH4 0x1FFC9A7 EQ PUSH2 0x1F4 JUMPI DUP1 PUSH4 0x4F71EF6 EQ PUSH2 0x18B JUMPI DUP1 PUSH4 0x95BCDB6 EQ PUSH2 0x1EF JUMPI DUP1 PUSH4 0x19920A5F EQ PUSH2 0x1EA JUMPI DUP1 PUSH4 0x2F380B35 EQ PUSH2 0x1E5 JUMPI DUP1 PUSH4 0x314E2321 EQ PUSH2 0x1E0 JUMPI DUP1 PUSH4 0x426A8493 EQ PUSH2 0x1DB JUMPI DUP1 PUSH4 0x460C6DF8 EQ PUSH2 0x1D6 JUMPI DUP1 PUSH4 0x558A7297 EQ PUSH2 0x1D1 JUMPI DUP1 PUSH4 0x5670F55A EQ PUSH2 0x1CC JUMPI DUP1 PUSH4 0x598AF9E7 EQ PUSH2 0x1C7 JUMPI DUP1 PUSH4 0x5B298D32 EQ PUSH2 0x1C2 JUMPI DUP1 PUSH4 0x5DFB78AF EQ PUSH2 0x1BD JUMPI DUP1 PUSH4 0x60A80DBB EQ PUSH2 0x1A4 JUMPI DUP1 PUSH4 0x61408F26 EQ PUSH2 0x1B8 JUMPI DUP1 PUSH4 0x7DC27C95 EQ PUSH2 0x1B3 JUMPI DUP1 PUSH4 0x83E66C2E EQ PUSH2 0x1AE JUMPI DUP1 PUSH4 0x8E832E08 EQ PUSH2 0x1A9 JUMPI DUP1 PUSH4 0x8F155291 EQ PUSH2 0x1A4 JUMPI DUP1 PUSH4 0x9D2EC6E4 EQ PUSH2 0x19F JUMPI DUP1 PUSH4 0xA1A44DAD EQ PUSH2 0x19A JUMPI DUP1 PUSH4 0xB5E60C3C EQ PUSH2 0x195 JUMPI DUP1 PUSH4 0xB6363CF2 EQ PUSH2 0x190 JUMPI DUP1 PUSH4 0xC279171D EQ PUSH2 0x18B JUMPI DUP1 PUSH4 0xCB1F2F38 EQ PUSH2 0x186 JUMPI DUP1 PUSH4 0xD2615FC8 EQ PUSH2 0x181 JUMPI DUP1 PUSH4 0xD92BC84C EQ PUSH2 0x17C JUMPI DUP1 PUSH4 0xE513315B EQ PUSH2 0x177 JUMPI DUP1 PUSH4 0xEA157ACF EQ PUSH2 0x172 JUMPI PUSH4 0xFE99049A EQ PUSH2 0x16D JUMPI PUSH0 DUP1 REVERT JUMPDEST PUSH2 0x1B6F JUMP JUMPDEST PUSH2 0x1A9F JUMP JUMPDEST PUSH2 0x180C JUMP JUMPDEST PUSH2 0x15A0 JUMP JUMPDEST PUSH2 0x155A JUMP JUMPDEST PUSH2 0x12E8 JUMP JUMPDEST PUSH2 0x625 JUMP JUMPDEST PUSH2 0x1285 JUMP JUMPDEST PUSH2 0x125B JUMP JUMPDEST PUSH2 0x1217 JUMP JUMPDEST PUSH2 0x1066 JUMP JUMPDEST PUSH2 0xF0E JUMP JUMPDEST PUSH2 0x1021 JUMP JUMPDEST PUSH2 0xFDB JUMP JUMPDEST PUSH2 0xF7C JUMP JUMPDEST PUSH2 0xF37 JUMP JUMPDEST PUSH2 0xDED JUMP JUMPDEST PUSH2 0xD1F JUMP JUMPDEST PUSH2 0xCB2 JUMP JUMPDEST PUSH2 0xAA0 JUMP JUMPDEST PUSH2 0xA04 JUMP JUMPDEST PUSH2 0x9A3 JUMP JUMPDEST PUSH2 0x912 JUMP JUMPDEST PUSH2 0x8BD JUMP JUMPDEST PUSH2 0x756 JUMP JUMPDEST PUSH2 0x712 JUMP JUMPDEST PUSH2 0x673 JUMP JUMPDEST PUSH2 0x269 JUMP JUMPDEST PUSH2 0x220 JUMP JUMPDEST PUSH1 0x1 PUSH1 0x1 PUSH1 0xA0 SHL SUB DUP2 AND SUB PUSH2 0x20F JUMPI JUMP JUMPDEST PUSH0 DUP1 REVERT JUMPDEST CALLDATALOAD SWAP1 PUSH2 0x21E DUP3 PUSH2 0x1FE JUMP JUMPDEST JUMP JUMPDEST CALLVALUE PUSH2 0x20F JUMPI PUSH1 0x40 CALLDATASIZE PUSH1 0x3 NOT ADD SLT PUSH2 0x20F JUMPI PUSH1 0x4 CALLDATALOAD PUSH2 0x23D DUP2 PUSH2 0x1FE JUMP JUMPDEST PUSH1 0x24 CALLDATALOAD SWAP1 PUSH1 0x1 DUP1 PUSH1 0xA0 SHL SUB AND PUSH0 MSTORE PUSH1 0x1 PUSH1 0x20 MSTORE PUSH1 0x40 PUSH0 KECCAK256 SWAP1 PUSH0 MSTORE PUSH1 0x20 MSTORE PUSH1 0x20 PUSH1 0x40 PUSH0 KECCAK256 SLOAD PUSH1 0x40 MLOAD SWAP1 DUP2 MSTORE RETURN JUMPDEST CALLVALUE PUSH2 0x20F JUMPI PUSH1 0x20 CALLDATASIZE PUSH1 0x3 NOT ADD SLT PUSH2 0x20F JUMPI PUSH1 0x4 CALLDATALOAD PUSH4 0xFFFFFFFF PUSH1 0xE0 SHL DUP2 AND DUP1 SWAP2 SUB PUSH2 0x20F JUMPI PUSH1 0x20 SWAP1 PUSH4 0x1FFC9A7 PUSH1 0xE0 SHL DUP2 EQ SWAP1 DUP2 ISZERO PUSH2 0x2AE JUMPI JUMPDEST POP PUSH1 0x40 MLOAD SWAP1 ISZERO ISZERO DUP2 MSTORE RETURN JUMPDEST PUSH4 0xF632FB3 PUSH1 0xE0 SHL EQ SWAP1 POP PUSH0 PUSH2 0x2A3 JUMP JUMPDEST PUSH4 0x4E487B71 PUSH1 0xE0 SHL PUSH0 MSTORE PUSH1 0x41 PUSH1 0x4 MSTORE PUSH1 0x24 PUSH0 REVERT JUMPDEST PUSH1 0x80 DUP2 ADD SWAP1 DUP2 LT PUSH1 0x1 PUSH1 0x1 PUSH1 0x40 SHL SUB DUP3 GT OR PUSH2 0x2EE JUMPI PUSH1 0x40 MSTORE JUMP JUMPDEST PUSH2 0x2BF JUMP JUMPDEST SWAP1 PUSH1 0x1F DUP1 NOT SWAP2 ADD AND DUP2 ADD SWAP1 DUP2 LT PUSH1 0x1 PUSH1 0x1 PUSH1 0x40 SHL SUB DUP3 GT OR PUSH2 0x2EE JUMPI PUSH1 0x40 MSTORE JUMP JUMPDEST PUSH1 0x40 MLOAD SWAP1 PUSH2 0x21E PUSH1 0xC0 DUP4 PUSH2 0x2F3 JUMP JUMPDEST PUSH1 0x40 MLOAD SWAP1 PUSH2 0x21E PUSH1 0x80 DUP4 PUSH2 0x2F3 JUMP JUMPDEST PUSH1 0x40 MLOAD SWAP1 PUSH2 0x21E PUSH2 0x100 DUP4 PUSH2 0x2F3 JUMP JUMPDEST PUSH1 0x1 PUSH1 0x1 PUSH1 0x40 SHL SUB DUP2 GT PUSH2 0x2EE JUMPI PUSH1 0x5 SHL PUSH1 0x20 ADD SWAP1 JUMP JUMPDEST SWAP3 SWAP2 SWAP1 PUSH2 0x365 DUP2 PUSH2 0x342 JUMP JUMPDEST SWAP4 PUSH2 0x373 PUSH1 0x40 MLOAD SWAP6 DUP7 PUSH2 0x2F3 JUMP JUMPDEST PUSH1 0x20 DUP6 DUP4 DUP2 MSTORE ADD SWAP2 PUSH1 0x5 SHL DUP2 ADD SWAP3 DUP4 GT PUSH2 0x20F JUMPI SWAP1 JUMPDEST DUP3 DUP3 LT PUSH2 0x395 JUMPI POP POP POP JUMP JUMPDEST DUP2 CALLDATALOAD DUP2 MSTORE PUSH1 0x20 SWAP2 DUP3 ADD SWAP2 ADD PUSH2 0x389 JUMP JUMPDEST SWAP1 DUP1 PUSH1 0x1F DUP4 ADD SLT ISZERO PUSH2 0x20F JUMPI DUP2 PUSH1 0x20 PUSH2 0x3C0 SWAP4 CALLDATALOAD SWAP2 ADD PUSH2 0x359 JUMP JUMPDEST SWAP1 JUMP JUMPDEST DUP1 ISZERO ISZERO SUB PUSH2 0x20F JUMPI JUMP JUMPDEST CALLDATALOAD SWAP1 PUSH2 0x21E DUP3 PUSH2 0x3C3 JUMP JUMPDEST PUSH1 0x1 PUSH1 0x1 PUSH1 0xE8 SHL SUB NOT DUP2 AND SUB PUSH2 0x20F JUMPI JUMP JUMPDEST SWAP3 SWAP2 SWAP1 PUSH2 0x3F6 DUP2 PUSH2 0x342 JUMP JUMPDEST SWAP4 PUSH2 0x404 PUSH1 0x40 MLOAD SWAP6 DUP7 PUSH2 0x2F3 JUMP JUMPDEST PUSH1 0x20 DUP6 DUP4 DUP2 MSTORE ADD SWAP2 PUSH1 0x5 SHL DUP2 ADD SWAP3 DUP4 GT PUSH2 0x20F JUMPI SWAP1 JUMPDEST DUP3 DUP3 LT PUSH2 0x426 JUMPI POP POP POP JUMP JUMPDEST PUSH1 0x20 DUP1 SWAP2 DUP4 CALLDATALOAD PUSH2 0x435 DUP2 PUSH2 0x3D8 JUMP JUMPDEST DUP2 MSTORE ADD SWAP2 ADD SWAP1 PUSH2 0x41A JUMP JUMPDEST SWAP1 DUP1 PUSH1 0x1F DUP4 ADD SLT ISZERO PUSH2 0x20F JUMPI DUP2 PUSH1 0x20 PUSH2 0x3C0 SWAP4 CALLDATALOAD SWAP2 ADD PUSH2 0x3EA JUMP JUMPDEST SWAP2 SWAP1 SWAP2 PUSH1 0xC0 DUP2 DUP5 SUB SLT PUSH2 0x20F JUMPI PUSH2 0x470 PUSH2 0x314 JUMP JUMPDEST SWAP3 PUSH2 0x47A DUP3 PUSH2 0x213 JUMP JUMPDEST DUP5 MSTORE PUSH2 0x488 PUSH1 0x20 DUP4 ADD PUSH2 0x213 JUMP JUMPDEST PUSH1 0x20 DUP6 ADD MSTORE PUSH2 0x499 PUSH1 0x40 DUP4 ADD PUSH2 0x213 JUMP JUMPDEST PUSH1 0x40 DUP6 ADD MSTORE PUSH1 0x60 DUP3 ADD CALLDATALOAD PUSH1 0x1 PUSH1 0x1 PUSH1 0x40 SHL SUB DUP2 GT PUSH2 0x20F JUMPI DUP2 PUSH2 0x4BD SWAP2 DUP5 ADD PUSH2 0x3A5 JUMP JUMPDEST PUSH1 0x60 DUP6 ADD MSTORE PUSH2 0x4CE PUSH1 0x80 DUP4 ADD PUSH2 0x3CD JUMP JUMPDEST PUSH1 0x80 DUP6 ADD MSTORE PUSH1 0xA0 DUP3 ADD CALLDATALOAD PUSH1 0x1 PUSH1 0x1 PUSH1 0x40 SHL SUB DUP2 GT PUSH2 0x20F JUMPI PUSH2 0x4F0 SWAP3 ADD PUSH2 0x440 JUMP JUMPDEST PUSH1 0xA0 DUP4 ADD MSTORE JUMP JUMPDEST SWAP1 DUP1 PUSH1 0x1F DUP4 ADD SLT ISZERO PUSH2 0x20F JUMPI DUP2 CALLDATALOAD SWAP1 PUSH2 0x50F DUP3 PUSH2 0x342 JUMP JUMPDEST SWAP3 PUSH2 0x51D PUSH1 0x40 MLOAD SWAP5 DUP6 PUSH2 0x2F3 JUMP JUMPDEST DUP3 DUP5 MSTORE PUSH1 0x20 DUP1 DUP6 ADD SWAP4 PUSH1 0x5 SHL DUP3 ADD ADD SWAP2 DUP3 GT PUSH2 0x20F JUMPI PUSH1 0x20 ADD SWAP2 JUMPDEST DUP2 DUP4 LT PUSH2 0x545 JUMPI POP POP POP SWAP1 JUMP JUMPDEST DUP3 CALLDATALOAD PUSH1 0x1 PUSH1 0x1 PUSH1 0x80 SHL SUB DUP2 AND DUP2 SUB PUSH2 0x20F JUMPI DUP2 MSTORE PUSH1 0x20 SWAP3 DUP4 ADD SWAP3 ADD PUSH2 0x538 JUMP JUMPDEST PUSH1 0x60 PUSH1 0x3 NOT DUP3 ADD SLT PUSH2 0x20F JUMPI PUSH1 0x4 CALLDATALOAD PUSH1 0x1 PUSH1 0x1 PUSH1 0x40 SHL SUB DUP2 GT PUSH2 0x20F JUMPI DUP2 PUSH2 0x58F SWAP2 PUSH1 0x4 ADD PUSH2 0x45B JUMP JUMPDEST SWAP2 PUSH1 0x24 CALLDATALOAD PUSH1 0x1 PUSH1 0x1 PUSH1 0x40 SHL SUB DUP2 GT PUSH2 0x20F JUMPI DUP3 PUSH2 0x5AE SWAP2 PUSH1 0x4 ADD PUSH2 0x4F7 JUMP JUMPDEST SWAP2 PUSH1 0x44 CALLDATALOAD SWAP1 PUSH1 0x1 PUSH1 0x1 PUSH1 0x40 SHL SUB DUP3 GT PUSH2 0x20F JUMPI PUSH2 0x3C0 SWAP2 PUSH1 0x4 ADD PUSH2 0x4F7 JUMP JUMPDEST SWAP1 PUSH1 0x20 DUP1 DUP4 MLOAD SWAP3 DUP4 DUP2 MSTORE ADD SWAP3 ADD SWAP1 PUSH0 JUMPDEST DUP2 DUP2 LT PUSH2 0x5EA JUMPI POP POP POP SWAP1 JUMP JUMPDEST DUP3 MLOAD DUP5 MSTORE PUSH1 0x20 SWAP4 DUP5 ADD SWAP4 SWAP1 SWAP3 ADD SWAP2 PUSH1 0x1 ADD PUSH2 0x5DD JUMP JUMPDEST SWAP1 SWAP2 PUSH2 0x617 PUSH2 0x3C0 SWAP4 PUSH1 0x40 DUP5 MSTORE PUSH1 0x40 DUP5 ADD SWAP1 PUSH2 0x5CD JUMP JUMPDEST SWAP2 PUSH1 0x20 DUP2 DUP5 SUB SWAP2 ADD MSTORE PUSH2 0x5CD JUMP JUMPDEST CALLVALUE PUSH2 0x20F JUMPI PUSH2 0x63C PUSH2 0x636 CALLDATASIZE PUSH2 0x565 JUMP JUMPDEST SWAP2 PUSH2 0x2092 JUMP JUMPDEST SWAP1 PUSH2 0x64C PUSH1 0x40 MLOAD SWAP3 DUP4 SWAP3 DUP4 PUSH2 0x600 JUMP JUMPDEST SUB SWAP1 RETURN JUMPDEST PUSH1 0x60 SWAP1 PUSH1 0x3 NOT ADD SLT PUSH2 0x20F JUMPI PUSH1 0x4 CALLDATALOAD PUSH2 0x668 DUP2 PUSH2 0x1FE JUMP JUMPDEST SWAP1 PUSH1 0x24 CALLDATALOAD SWAP1 PUSH1 0x44 CALLDATALOAD SWAP1 JUMP JUMPDEST CALLVALUE PUSH2 0x20F JUMPI PUSH2 0x681 CALLDATASIZE PUSH2 0x650 JUMP JUMPDEST SWAP1 SWAP2 CALLER PUSH0 MSTORE PUSH1 0x1 PUSH1 0x20 MSTORE PUSH1 0x40 PUSH0 KECCAK256 DUP4 PUSH0 MSTORE PUSH1 0x20 MSTORE PUSH1 0x40 PUSH0 KECCAK256 DUP1 SLOAD SWAP1 DUP4 DUP3 SUB SWAP2 DUP3 GT PUSH2 0x70D JUMPI SSTORE PUSH1 0x1 DUP1 PUSH1 0xA0 SHL SUB AND SWAP1 DUP2 PUSH0 MSTORE PUSH1 0x1 PUSH1 0x20 MSTORE PUSH2 0x6CD DUP4 PUSH1 0x40 PUSH0 KECCAK256 SWAP1 PUSH0 MSTORE PUSH1 0x20 MSTORE PUSH1 0x40 PUSH0 KECCAK256 SWAP1 JUMP JUMPDEST PUSH2 0x6D8 DUP3 DUP3 SLOAD PUSH2 0x2549 JUMP JUMPDEST SWAP1 SSTORE PUSH1 0x40 DUP1 MLOAD CALLER DUP1 DUP3 MSTORE PUSH1 0x20 DUP3 ADD SWAP4 SWAP1 SWAP4 MSTORE PUSH0 MLOAD PUSH1 0x20 PUSH2 0x426F PUSH0 CODECOPY PUSH0 MLOAD SWAP1 PUSH0 MSTORE SWAP2 DUP2 SWAP1 DUP2 ADD JUMPDEST SUB SWAP1 LOG4 PUSH1 0x40 MLOAD PUSH1 0x1 DUP2 MSTORE PUSH1 0x20 SWAP1 RETURN JUMPDEST PUSH2 0x251A JUMP JUMPDEST CALLVALUE PUSH2 0x20F JUMPI PUSH0 CALLDATASIZE PUSH1 0x3 NOT ADD SLT PUSH2 0x20F JUMPI PUSH1 0x40 MLOAD PUSH32 0x0 PUSH1 0x1 PUSH1 0x1 PUSH1 0xA0 SHL SUB AND DUP2 MSTORE PUSH1 0x20 SWAP1 RETURN JUMPDEST CALLVALUE PUSH2 0x20F JUMPI PUSH1 0x20 CALLDATASIZE PUSH1 0x3 NOT ADD SLT PUSH2 0x20F JUMPI PUSH1 0x4 CALLDATALOAD PUSH0 PUSH1 0x60 PUSH1 0x40 MLOAD PUSH2 0x779 DUP2 PUSH2 0x2D3 JUMP JUMPDEST DUP3 DUP2 MSTORE DUP3 PUSH1 0x20 DUP3 ADD MSTORE DUP3 PUSH1 0x40 DUP3 ADD MSTORE ADD MSTORE PUSH0 MSTORE PUSH1 0x7 PUSH1 0x20 MSTORE PUSH1 0x40 PUSH0 KECCAK256 PUSH1 0x40 MLOAD SWAP1 PUSH2 0x7A2 DUP3 PUSH2 0x2D3 JUMP JUMPDEST DUP1 SLOAD PUSH1 0x1 PUSH1 0x1 PUSH1 0xA0 SHL SUB SWAP1 DUP2 AND DUP1 DUP5 MSTORE PUSH1 0x1 DUP4 ADD SLOAD DUP3 AND PUSH1 0x20 DUP6 ADD DUP2 SWAP1 MSTORE PUSH1 0x2 SWAP1 SWAP4 ADD SLOAD SWAP2 DUP3 AND PUSH1 0x40 DUP6 ADD DUP2 SWAP1 MSTORE PUSH1 0x48 SWAP3 SWAP1 SWAP3 SHL PUSH1 0x1 PUSH1 0x1 PUSH1 0xE8 SHL SUB NOT AND PUSH1 0x60 SWAP5 SWAP1 SWAP5 ADD DUP5 SWAP1 MSTORE SWAP1 SWAP3 PUSH2 0x64C SWAP2 PUSH2 0x819 SWAP1 PUSH2 0x80B SWAP1 PUSH2 0x7FE SWAP1 DUP2 JUMP JUMPDEST SWAP6 PUSH1 0x1 PUSH1 0x1 PUSH1 0xA0 SHL SUB AND SWAP1 JUMP JUMPDEST SWAP2 PUSH1 0x1 PUSH1 0x1 PUSH1 0xE8 SHL SUB NOT AND SWAP1 JUMP JUMPDEST PUSH1 0x40 DUP1 MLOAD PUSH1 0x1 PUSH1 0x1 PUSH1 0xA0 SHL SUB SWAP6 DUP7 AND DUP2 MSTORE SWAP6 DUP6 AND PUSH1 0x20 DUP8 ADD MSTORE SWAP2 SWAP1 SWAP4 AND SWAP1 DUP5 ADD MSTORE PUSH1 0x1 PUSH1 0x1 PUSH1 0xE8 SHL SUB NOT SWAP1 SWAP2 AND PUSH1 0x60 DUP4 ADD MSTORE DUP2 SWAP1 PUSH1 0x80 DUP3 ADD SWAP1 JUMP JUMPDEST SWAP2 DUP2 PUSH1 0x1F DUP5 ADD SLT ISZERO PUSH2 0x20F JUMPI DUP3 CALLDATALOAD SWAP2 PUSH1 0x1 PUSH1 0x1 PUSH1 0x40 SHL SUB DUP4 GT PUSH2 0x20F JUMPI PUSH1 0x20 DUP1 DUP6 ADD SWAP5 DUP5 PUSH1 0x5 SHL ADD ADD GT PUSH2 0x20F JUMPI JUMP JUMPDEST PUSH1 0x20 PUSH1 0x40 DUP2 DUP4 ADD SWAP3 DUP3 DUP2 MSTORE DUP5 MLOAD DUP1 SWAP5 MSTORE ADD SWAP3 ADD SWAP1 PUSH0 JUMPDEST DUP2 DUP2 LT PUSH2 0x8A7 JUMPI POP POP POP SWAP1 JUMP JUMPDEST DUP3 MLOAD DUP5 MSTORE PUSH1 0x20 SWAP4 DUP5 ADD SWAP4 SWAP1 SWAP3 ADD SWAP2 PUSH1 0x1 ADD PUSH2 0x89A JUMP JUMPDEST CALLVALUE PUSH2 0x20F JUMPI PUSH1 0x40 CALLDATASIZE PUSH1 0x3 NOT ADD SLT PUSH2 0x20F JUMPI PUSH1 0x4 CALLDATALOAD PUSH2 0x8DA DUP2 PUSH2 0x1FE JUMP JUMPDEST PUSH1 0x24 CALLDATALOAD PUSH1 0x1 PUSH1 0x1 PUSH1 0x40 SHL SUB DUP2 GT PUSH2 0x20F JUMPI PUSH2 0x64C SWAP2 PUSH2 0x900 PUSH2 0x906 SWAP3 CALLDATASIZE SWAP1 PUSH1 0x4 ADD PUSH2 0x854 JUMP JUMPDEST SWAP2 PUSH2 0x2579 JUMP JUMPDEST PUSH1 0x40 MLOAD SWAP2 DUP3 SWAP2 DUP3 PUSH2 0x884 JUMP JUMPDEST CALLVALUE PUSH2 0x20F JUMPI PUSH2 0x920 CALLDATASIZE PUSH2 0x650 JUMP JUMPDEST SWAP1 SWAP2 CALLER PUSH0 MSTORE PUSH1 0x2 PUSH1 0x20 MSTORE PUSH2 0x947 DUP2 PUSH1 0x40 PUSH0 KECCAK256 SWAP1 PUSH1 0x1 DUP1 PUSH1 0xA0 SHL SUB AND PUSH0 MSTORE PUSH1 0x20 MSTORE PUSH1 0x40 PUSH0 KECCAK256 SWAP1 JUMP JUMPDEST DUP4 PUSH0 MSTORE PUSH1 0x20 MSTORE DUP2 PUSH1 0x40 PUSH0 KECCAK256 SSTORE PUSH1 0x40 MLOAD SWAP2 DUP3 MSTORE PUSH1 0x1 DUP1 PUSH1 0xA0 SHL SUB AND SWAP1 PUSH32 0xB3FD5071835887567A0671151121894DDCCC2842F1D10BEDAD13E0D17CACE9A7 PUSH1 0x20 CALLER SWAP3 LOG4 PUSH1 0x20 PUSH1 0x40 MLOAD PUSH1 0x1 DUP2 MSTORE RETURN JUMPDEST PUSH1 0x4 CALLDATALOAD SWAP1 PUSH1 0xFF DUP3 AND DUP3 SUB PUSH2 0x20F JUMPI JUMP JUMPDEST CALLVALUE PUSH2 0x20F JUMPI PUSH1 0x40 CALLDATASIZE PUSH1 0x3 NOT ADD SLT PUSH2 0x20F JUMPI PUSH2 0xA02 PUSH2 0x9BF PUSH2 0x993 JUMP JUMPDEST PUSH1 0xFF PUSH1 0x24 CALLDATALOAD SWAP2 PUSH2 0x9CE DUP4 PUSH2 0x1FE JUMP JUMPDEST AND PUSH2 0x9DB PUSH1 0x10 DUP3 LT PUSH2 0x25EF JUMP JUMPDEST PUSH0 MSTORE PUSH1 0x3 PUSH1 0x20 MSTORE PUSH1 0x40 PUSH0 KECCAK256 SWAP1 PUSH1 0x1 DUP1 PUSH1 0xA0 SHL SUB AND PUSH1 0x1 PUSH1 0x1 PUSH1 0x60 SHL SUB PUSH1 0xA0 SHL DUP3 SLOAD AND OR SWAP1 SSTORE JUMP JUMPDEST STOP JUMPDEST CALLVALUE PUSH2 0x20F JUMPI PUSH1 0x40 CALLDATASIZE PUSH1 0x3 NOT ADD SLT PUSH2 0x20F JUMPI PUSH1 0x4 CALLDATALOAD PUSH2 0xA21 DUP2 PUSH2 0x1FE JUMP JUMPDEST PUSH1 0x24 CALLDATALOAD SWAP1 PUSH2 0xA2E DUP3 PUSH2 0x3C3 JUMP JUMPDEST CALLER PUSH0 SWAP1 DUP2 MSTORE PUSH1 0x20 DUP2 DUP2 MSTORE PUSH1 0x40 DUP1 DUP4 KECCAK256 PUSH1 0x1 PUSH1 0x1 PUSH1 0xA0 SHL SUB DUP6 AND DUP5 MSTORE SWAP1 SWAP2 MSTORE SWAP1 KECCAK256 SWAP2 ISZERO ISZERO SWAP2 PUSH1 0xFF NOT DUP2 SLOAD AND PUSH1 0xFF DUP5 AND OR SWAP1 SSTORE PUSH1 0x40 MLOAD SWAP2 DUP3 MSTORE PUSH1 0x1 DUP1 PUSH1 0xA0 SHL SUB AND SWAP1 PUSH32 0xCEB576D9F15E4E200FDB5096D64D5DFD667E16DEF20C1EEFD14256D8E3FAA267 PUSH1 0x20 CALLER SWAP3 LOG3 PUSH1 0x40 MLOAD PUSH1 0x1 DUP2 MSTORE PUSH1 0x20 SWAP1 RETURN JUMPDEST CALLVALUE PUSH2 0x20F JUMPI PUSH1 0x80 CALLDATASIZE PUSH1 0x3 NOT ADD SLT PUSH2 0x20F JUMPI PUSH1 0x4 CALLDATALOAD PUSH2 0xABD DUP2 PUSH2 0x1FE JUMP JUMPDEST PUSH1 0x24 CALLDATALOAD PUSH2 0xAC9 DUP2 PUSH2 0x1FE JUMP JUMPDEST PUSH1 0x44 CALLDATALOAD SWAP2 PUSH2 0xAD6 DUP4 PUSH2 0x1FE JUMP JUMPDEST PUSH1 0x64 CALLDATALOAD SWAP2 PUSH2 0xAE3 DUP4 PUSH2 0x3D8 JUMP JUMPDEST PUSH2 0xAF3 PUSH2 0xAEE PUSH2 0x2F20 JUMP JUMPDEST PUSH2 0x2F63 JUMP JUMPDEST PUSH2 0xAFF DUP4 DUP6 DUP4 DUP6 PUSH2 0x2C9D JUMP JUMPDEST SWAP3 PUSH1 0x1 DUP1 PUSH1 0xA0 SHL SUB PUSH2 0xB2C PUSH1 0x2 PUSH2 0xB1E DUP8 PUSH0 MSTORE PUSH1 0x7 PUSH1 0x20 MSTORE PUSH1 0x40 PUSH0 KECCAK256 SWAP1 JUMP JUMPDEST ADD SLOAD PUSH1 0x1 PUSH1 0x1 PUSH1 0xA0 SHL SUB AND SWAP1 JUMP JUMPDEST AND PUSH2 0xC9E JUMPI PUSH2 0x64C SWAP5 DUP5 SWAP4 PUSH32 0x68DF9A4EB7AACBE8F43763BFBC9F7CA135A5397190EA1CCE2558DB52DC2F3692 SWAP4 SWAP2 SWAP3 SWAP1 SWAP2 SWAP1 PUSH1 0x1 PUSH1 0x1 PUSH1 0xA0 SHL SUB DUP1 DUP4 AND SWAP1 DUP5 AND LT ISZERO PUSH2 0xC93 JUMPI PUSH2 0xC76 SWAP2 SWAP4 JUMPDEST PUSH2 0xC3A PUSH2 0xB83 PUSH2 0x323 JUMP JUMPDEST PUSH1 0x1 PUSH1 0x1 PUSH1 0xA0 SHL SUB DUP7 AND DUP2 MSTORE PUSH1 0x1 PUSH1 0x1 PUSH1 0xA0 SHL SUB DUP8 AND PUSH1 0x20 DUP3 ADD MSTORE PUSH1 0x1 PUSH1 0x1 PUSH1 0xA0 SHL SUB DUP4 AND PUSH1 0x40 DUP3 ADD MSTORE PUSH1 0x1 PUSH1 0x1 PUSH1 0xE8 SHL SUB NOT DUP5 AND PUSH1 0x60 DUP3 ADD MSTORE PUSH2 0xBCF DUP10 PUSH0 MSTORE PUSH1 0x7 PUSH1 0x20 MSTORE PUSH1 0x40 PUSH0 KECCAK256 SWAP1 JUMP JUMPDEST DUP2 MLOAD DUP2 SLOAD PUSH1 0x1 PUSH1 0x1 PUSH1 0xA0 SHL SUB NOT SWAP1 DUP2 AND PUSH1 0x1 PUSH1 0x1 PUSH1 0xA0 SHL SUB SWAP3 DUP4 AND OR DUP4 SSTORE PUSH1 0x20 DUP5 ADD MLOAD PUSH1 0x1 DUP5 ADD DUP1 SLOAD SWAP1 SWAP3 AND SWAP1 DUP4 AND OR SWAP1 SSTORE PUSH1 0x40 DUP4 ADD MLOAD PUSH1 0x2 SWAP1 SWAP3 ADD DUP1 SLOAD PUSH1 0x60 SWAP1 SWAP5 ADD MLOAD SWAP3 SWAP1 SWAP2 AND PUSH1 0x1 PUSH1 0x1 PUSH1 0xB8 SHL SUB NOT SWAP1 SWAP4 AND SWAP3 SWAP1 SWAP3 OR PUSH1 0x48 SWAP2 SWAP1 SWAP2 SHR PUSH3 0xFFFFFF PUSH1 0xA0 SHL AND OR SWAP1 SSTORE JUMP JUMPDEST PUSH1 0x40 DUP1 MLOAD PUSH1 0x1 PUSH1 0x1 PUSH1 0xA0 SHL SUB SWAP6 DUP7 AND DUP2 MSTORE SWAP6 DUP6 AND PUSH1 0x20 DUP8 ADD MSTORE SWAP4 AND SWAP3 DUP5 ADD SWAP3 SWAP1 SWAP3 MSTORE PUSH1 0x1 PUSH1 0x1 PUSH1 0xE8 SHL SUB NOT SWAP1 SWAP2 AND PUSH1 0x60 DUP4 ADD MSTORE DUP2 SWAP1 PUSH1 0x80 DUP3 ADD SWAP1 JUMP JUMPDEST SUB SWAP1 LOG2 PUSH0 PUSH2 0xC82 PUSH2 0x2F20 JUMP JUMPDEST TSTORE PUSH1 0x40 MLOAD SWAP1 DUP2 MSTORE SWAP1 DUP2 SWAP1 PUSH1 0x20 DUP3 ADD SWAP1 JUMP JUMPDEST PUSH2 0xC76 SWAP2 SWAP3 SWAP4 PUSH2 0xB78 JUMP JUMPDEST PUSH4 0xE1ECC133 PUSH1 0xE0 SHL PUSH0 MSTORE PUSH1 0x4 DUP5 SWAP1 MSTORE PUSH1 0x24 PUSH0 REVERT JUMPDEST CALLVALUE PUSH2 0x20F JUMPI PUSH1 0x60 CALLDATASIZE PUSH1 0x3 NOT ADD SLT PUSH2 0x20F JUMPI PUSH1 0x4 CALLDATALOAD PUSH2 0xCCF DUP2 PUSH2 0x1FE JUMP JUMPDEST PUSH2 0xD0A PUSH1 0x24 CALLDATALOAD PUSH2 0xCDE DUP2 PUSH2 0x1FE JUMP JUMPDEST PUSH1 0x44 CALLDATALOAD SWAP3 PUSH1 0x1 DUP1 PUSH1 0xA0 SHL SUB AND PUSH0 MSTORE PUSH1 0x2 PUSH1 0x20 MSTORE PUSH1 0x40 PUSH0 KECCAK256 SWAP1 PUSH1 0x1 DUP1 PUSH1 0xA0 SHL SUB AND PUSH0 MSTORE PUSH1 0x20 MSTORE PUSH1 0x40 PUSH0 KECCAK256 SWAP1 JUMP JUMPDEST SWAP1 PUSH0 MSTORE PUSH1 0x20 MSTORE PUSH1 0x20 PUSH1 0x40 PUSH0 KECCAK256 SLOAD PUSH1 0x40 MLOAD SWAP1 DUP2 MSTORE RETURN JUMPDEST CALLVALUE PUSH2 0x20F JUMPI PUSH1 0x20 CALLDATASIZE PUSH1 0x3 NOT ADD SLT PUSH2 0x20F JUMPI PUSH1 0x40 PUSH1 0x1 PUSH1 0x1 PUSH1 0x80 SHL SUB PUSH2 0xD5E PUSH1 0x4 CALLDATALOAD PUSH0 MSTORE PUSH1 0x6 PUSH1 0x20 MSTORE PUSH1 0x40 PUSH0 KECCAK256 SLOAD SWAP1 PUSH1 0x1 PUSH1 0x1 PUSH1 0x80 SHL SUB DUP3 AND SWAP2 PUSH1 0x80 SHR SWAP1 JUMP JUMPDEST DUP4 MLOAD SWAP2 DUP4 AND DUP3 MSTORE SWAP1 SWAP2 AND PUSH1 0x20 DUP3 ADD MSTORE RETURN JUMPDEST SWAP1 PUSH1 0x60 PUSH1 0x3 NOT DUP4 ADD SLT PUSH2 0x20F JUMPI PUSH1 0x4 CALLDATALOAD PUSH2 0xD88 DUP2 PUSH2 0x1FE JUMP JUMPDEST SWAP2 PUSH1 0x24 CALLDATALOAD SWAP2 PUSH1 0x1 PUSH1 0x1 PUSH1 0x40 SHL SUB DUP4 GT PUSH2 0x20F JUMPI DUP2 PUSH1 0x23 DUP5 ADD SLT ISZERO PUSH2 0x20F JUMPI DUP3 PUSH1 0x4 ADD CALLDATALOAD SWAP3 PUSH1 0x1 PUSH1 0x1 PUSH1 0x40 SHL SUB DUP5 GT PUSH2 0x20F JUMPI DUP3 PUSH1 0x24 DUP6 DUP4 ADD ADD GT PUSH2 0x20F JUMPI PUSH1 0x24 ADD SWAP3 SWAP2 PUSH1 0x44 CALLDATALOAD SWAP1 PUSH1 0x1 PUSH1 0x1 PUSH1 0x40 SHL SUB DUP3 GT PUSH2 0x20F JUMPI PUSH2 0xDE9 SWAP2 PUSH1 0x4 ADD PUSH2 0x854 JUMP JUMPDEST SWAP1 SWAP2 JUMP JUMPDEST PUSH2 0xDF6 CALLDATASIZE PUSH2 0xD6F JUMP JUMPDEST SWAP4 SWAP2 PUSH2 0xE00 PUSH2 0x2F6F JUMP JUMPDEST SWAP3 PUSH2 0xE0A DUP5 PUSH2 0x2F63 JUMP JUMPDEST PUSH1 0x1 PUSH2 0xE16 CALLER ADDRESS PUSH2 0x36E2 JUMP JUMPDEST TSTORE PUSH2 0xE20 CALLER PUSH2 0x2FD8 JUMP JUMPDEST PUSH1 0x1 PUSH1 0x1 PUSH1 0xA0 SHL SUB AND SWAP4 DUP5 EXTCODESIZE ISZERO PUSH2 0x20F JUMPI PUSH1 0x40 MLOAD PUSH4 0x1C6E7247 PUSH1 0xE3 SHL DUP2 MSTORE SWAP2 PUSH0 SWAP2 DUP4 SWAP2 PUSH2 0xE50 SWAP2 PUSH1 0x4 DUP5 ADD PUSH2 0x263B JUMP JUMPDEST SWAP6 DUP2 DUP4 DUP2 DUP2 SWAP10 SUB SWAP3 GAS CALL DUP1 ISZERO PUSH2 0xEB4 JUMPI PUSH2 0xE96 JUMPI JUMPDEST POP DUP3 SWAP4 PUSH2 0xE78 PUSH2 0xE7E SWAP3 CALLVALUE SWAP3 CALLDATASIZE SWAP2 PUSH2 0x2662 JUMP JUMPDEST CALLER PUSH2 0x30B6 JUMP JUMPDEST PUSH2 0xE86 PUSH2 0x314E JUMP JUMPDEST PUSH0 PUSH2 0xE91 CALLER ADDRESS PUSH2 0x36E2 JUMP JUMPDEST TSTORE TSTORE DUP1 RETURN JUMPDEST PUSH2 0xE7E SWAP2 SWAP4 POP SWAP4 PUSH2 0xEAA PUSH0 PUSH2 0xE78 SWAP7 PUSH2 0x2F3 JUMP JUMPDEST PUSH0 SWAP4 SWAP2 POP SWAP4 PUSH2 0xE65 JUMP JUMPDEST PUSH2 0x2087 JUMP JUMPDEST PUSH1 0x60 PUSH1 0x3 NOT DUP3 ADD SLT PUSH2 0x20F JUMPI PUSH1 0x4 CALLDATALOAD SWAP1 PUSH1 0x1 PUSH1 0x1 PUSH1 0x40 SHL SUB DUP3 GT PUSH2 0x20F JUMPI PUSH2 0xEE3 SWAP2 PUSH1 0x4 ADD PUSH2 0x45B JUMP JUMPDEST SWAP1 PUSH1 0x24 CALLDATALOAD PUSH1 0x1 PUSH1 0x1 PUSH1 0x80 SHL SUB DUP2 AND DUP2 SUB PUSH2 0x20F JUMPI SWAP1 PUSH1 0x44 CALLDATALOAD PUSH1 0x1 PUSH1 0x1 PUSH1 0x80 SHL SUB DUP2 AND DUP2 SUB PUSH2 0x20F JUMPI SWAP1 JUMP JUMPDEST CALLVALUE PUSH2 0x20F JUMPI PUSH2 0xF25 PUSH2 0xF1F CALLDATASIZE PUSH2 0xEB9 JUMP JUMPDEST SWAP2 PUSH2 0x2760 JUMP JUMPDEST PUSH1 0x40 DUP1 MLOAD SWAP3 DUP4 MSTORE PUSH1 0x20 DUP4 ADD SWAP2 SWAP1 SWAP2 MSTORE SWAP1 RETURN JUMPDEST CALLVALUE PUSH2 0x20F JUMPI PUSH1 0x20 CALLDATASIZE PUSH1 0x3 NOT ADD SLT PUSH2 0x20F JUMPI PUSH1 0xFF PUSH2 0xF52 PUSH2 0x993 JUMP JUMPDEST AND PUSH2 0xF5F PUSH1 0x10 DUP3 LT PUSH2 0x25EF JUMP JUMPDEST PUSH0 SWAP1 DUP2 MSTORE PUSH1 0x4 PUSH1 0x20 MSTORE PUSH1 0x40 SWAP1 KECCAK256 DUP1 SLOAD PUSH1 0x1 PUSH1 0x1 PUSH1 0xA0 SHL SUB NOT AND SWAP1 SSTORE STOP JUMPDEST CALLVALUE PUSH2 0x20F JUMPI PUSH1 0x40 CALLDATASIZE PUSH1 0x3 NOT ADD SLT PUSH2 0x20F JUMPI PUSH2 0xA02 PUSH2 0xF98 PUSH2 0x993 JUMP JUMPDEST PUSH1 0xFF PUSH1 0x24 CALLDATALOAD SWAP2 PUSH2 0xFA7 DUP4 PUSH2 0x1FE JUMP JUMPDEST AND PUSH2 0xFB4 PUSH1 0x10 DUP3 LT PUSH2 0x25EF JUMP JUMPDEST PUSH0 MSTORE PUSH1 0x4 PUSH1 0x20 MSTORE PUSH1 0x40 PUSH0 KECCAK256 SWAP1 PUSH1 0x1 DUP1 PUSH1 0xA0 SHL SUB AND PUSH1 0x1 PUSH1 0x1 PUSH1 0x60 SHL SUB PUSH1 0xA0 SHL DUP3 SLOAD AND OR SWAP1 SSTORE JUMP JUMPDEST CALLVALUE PUSH2 0x20F JUMPI PUSH1 0x20 CALLDATASIZE PUSH1 0x3 NOT ADD SLT PUSH2 0x20F JUMPI PUSH1 0xFF PUSH2 0xFF6 PUSH2 0x993 JUMP JUMPDEST AND PUSH2 0x1003 PUSH1 0x10 DUP3 LT PUSH2 0x25EF JUMP JUMPDEST PUSH0 MSTORE PUSH1 0x4 PUSH1 0x20 MSTORE PUSH1 0x20 PUSH1 0x1 DUP1 PUSH1 0xA0 SHL SUB PUSH1 0x40 PUSH0 KECCAK256 SLOAD AND PUSH1 0x40 MLOAD SWAP1 DUP2 MSTORE RETURN JUMPDEST CALLVALUE PUSH2 0x20F JUMPI PUSH1 0x20 CALLDATASIZE PUSH1 0x3 NOT ADD SLT PUSH2 0x20F JUMPI PUSH1 0xFF PUSH2 0x103C PUSH2 0x993 JUMP JUMPDEST AND PUSH2 0x1049 PUSH1 0x10 DUP3 LT PUSH2 0x25EF JUMP JUMPDEST PUSH0 SWAP1 DUP2 MSTORE PUSH1 0x3 PUSH1 0x20 MSTORE PUSH1 0x40 SWAP1 KECCAK256 DUP1 SLOAD PUSH1 0x1 PUSH1 0x1 PUSH1 0xA0 SHL SUB NOT AND SWAP1 SSTORE STOP JUMPDEST PUSH1 0x60 CALLDATASIZE PUSH1 0x3 NOT ADD SLT PUSH2 0x20F JUMPI PUSH1 0x4 CALLDATALOAD PUSH1 0x1 PUSH1 0x1 PUSH1 0x40 SHL SUB DUP2 GT PUSH2 0x20F JUMPI PUSH2 0x1091 SWAP1 CALLDATASIZE SWAP1 PUSH1 0x4 ADD PUSH2 0x854 JUMP JUMPDEST PUSH1 0x44 CALLDATALOAD SWAP2 PUSH1 0x24 CALLDATALOAD PUSH2 0x10A3 PUSH2 0xAEE PUSH2 0x2F20 JUMP JUMPDEST PUSH2 0x10AB PUSH2 0x31A0 JUMP JUMPDEST SWAP1 PUSH1 0x1 PUSH1 0x1 PUSH1 0xA0 SHL SUB DUP3 AND ISZERO PUSH2 0x120F JUMPI JUMPDEST PUSH2 0x10C9 DUP5 SWAP4 SWAP5 ISZERO ISZERO PUSH2 0x31EA JUMP JUMPDEST SWAP3 PUSH0 SWAP3 PUSH0 SWAP2 PUSH0 SWAP2 JUMPDEST DUP1 DUP4 LT PUSH2 0x1136 JUMPI POP PUSH2 0x10EF SWAP2 POP PUSH2 0x10EA SWAP1 POP DUP4 ADDRESS PUSH2 0x36E2 JUMP JUMPDEST TLOAD ISZERO SWAP1 JUMP JUMPDEST PUSH2 0x1123 JUMPI JUMPDEST POP POP POP DUP2 DUP2 LT PUSH2 0x110B JUMPI PUSH2 0x64C SWAP1 PUSH0 PUSH2 0xC82 PUSH2 0x2F20 JUMP JUMPDEST PUSH4 0xD438755D PUSH1 0xE0 SHL PUSH0 MSTORE PUSH1 0x4 SWAP2 SWAP1 SWAP2 MSTORE PUSH1 0x24 MSTORE PUSH1 0x44 PUSH0 REVERT JUMPDEST PUSH2 0x112E SWAP3 CALLVALUE SWAP3 PUSH2 0x33A6 JUMP JUMPDEST PUSH0 DUP1 DUP1 PUSH2 0x10F4 JUMP JUMPDEST SWAP1 SWAP2 SWAP6 PUSH2 0x1144 DUP8 DUP4 DUP6 PUSH2 0x3220 JUMP JUMPDEST SWAP1 DUP8 ISZERO DUP1 SWAP2 PUSH2 0x1152 DUP6 PUSH2 0x252E JUMP JUMPDEST DUP11 EQ SWAP3 PUSH2 0x11D2 JUMPI JUMPDEST SWAP1 DUP3 SWAP2 DUP9 SWAP4 PUSH2 0x118F JUMPI JUMPDEST SWAP2 PUSH2 0x117F SWAP4 SWAP2 PUSH1 0x1 SWAP6 SWAP4 DUP2 PUSH0 EQ PUSH2 0x1188 JUMPI CALLVALUE SWAP1 JUMPDEST ADDRESS SWAP6 PUSH2 0x39B4 JUMP JUMPDEST SWAP7 ADD SWAP2 SWAP1 PUSH2 0x10D1 JUMP JUMPDEST PUSH0 SWAP1 PUSH2 0x1178 JUMP JUMPDEST SWAP7 POP SWAP2 DUP4 SWAP2 PUSH2 0x117F SWAP4 PUSH2 0x11A6 PUSH1 0xA0 PUSH1 0x1 SWAP8 ADD PUSH2 0x3242 JUMP JUMPDEST ISZERO PUSH2 0x11C4 JUMPI PUSH2 0x11B7 PUSH1 0x20 DUP6 ADD PUSH2 0x256F JUMP JUMPDEST SWAP9 SWAP2 SWAP4 SWAP6 POP SWAP2 SWAP4 POP PUSH2 0x1164 JUMP JUMPDEST PUSH2 0x11CD DUP5 PUSH2 0x256F JUMP JUMPDEST PUSH2 0x11B7 JUMP JUMPDEST DUP3 SWAP9 POP SWAP1 DUP8 SWAP3 SWAP2 PUSH2 0x11E5 PUSH1 0xA0 DUP7 ADD PUSH2 0x3242 JUMP JUMPDEST ISZERO PUSH2 0x11FE JUMPI PUSH2 0x11F3 DUP6 PUSH2 0x256F JUMP JUMPDEST SWAP10 POP SWAP1 SWAP2 SWAP3 POP PUSH2 0x115A JUMP JUMPDEST PUSH2 0x120A PUSH1 0x20 DUP7 ADD PUSH2 0x256F JUMP JUMPDEST PUSH2 0x11F3 JUMP JUMPDEST CALLER SWAP2 POP PUSH2 0x10BC JUMP JUMPDEST CALLVALUE PUSH2 0x20F JUMPI PUSH0 CALLDATASIZE PUSH1 0x3 NOT ADD SLT PUSH2 0x20F JUMPI PUSH1 0x40 MLOAD PUSH32 0x0 PUSH1 0x1 PUSH1 0x1 PUSH1 0xA0 SHL SUB AND DUP2 MSTORE PUSH1 0x20 SWAP1 RETURN JUMPDEST CALLVALUE PUSH2 0x20F JUMPI PUSH1 0x20 CALLDATASIZE PUSH1 0x3 NOT ADD SLT PUSH2 0x20F JUMPI PUSH1 0x4 CALLDATALOAD PUSH0 MSTORE PUSH1 0x5 PUSH1 0x20 MSTORE PUSH1 0x20 PUSH1 0x40 PUSH0 KECCAK256 SLOAD PUSH1 0x40 MLOAD SWAP1 DUP2 MSTORE RETURN JUMPDEST CALLVALUE PUSH2 0x20F JUMPI PUSH1 0x40 CALLDATASIZE PUSH1 0x3 NOT ADD SLT PUSH2 0x20F JUMPI PUSH1 0x20 PUSH1 0xFF PUSH2 0x12DC PUSH1 0x4 CALLDATALOAD PUSH2 0x12A9 DUP2 PUSH2 0x1FE JUMP JUMPDEST PUSH1 0x24 CALLDATALOAD SWAP1 PUSH2 0x12B6 DUP3 PUSH2 0x1FE JUMP JUMPDEST PUSH1 0x1 DUP1 PUSH1 0xA0 SHL SUB AND PUSH0 MSTORE PUSH0 DUP5 MSTORE PUSH1 0x40 PUSH0 KECCAK256 SWAP1 PUSH1 0x1 DUP1 PUSH1 0xA0 SHL SUB AND PUSH0 MSTORE PUSH1 0x20 MSTORE PUSH1 0x40 PUSH0 KECCAK256 SWAP1 JUMP JUMPDEST SLOAD AND PUSH1 0x40 MLOAD SWAP1 ISZERO ISZERO DUP2 MSTORE RETURN JUMPDEST CALLVALUE PUSH2 0x20F JUMPI PUSH1 0xA0 CALLDATASIZE PUSH1 0x3 NOT ADD SLT PUSH2 0x20F JUMPI PUSH1 0x4 CALLDATALOAD PUSH2 0x1305 DUP2 PUSH2 0x1FE JUMP JUMPDEST PUSH1 0x1 PUSH1 0x1 PUSH1 0x80 SHL SUB PUSH1 0x24 CALLDATALOAD PUSH2 0x1319 DUP2 PUSH2 0x1FE JUMP JUMPDEST PUSH1 0x44 CALLDATALOAD SWAP3 PUSH2 0x1326 DUP5 PUSH2 0x1FE JUMP JUMPDEST PUSH2 0x1356 PUSH1 0x64 CALLDATALOAD PUSH2 0x1335 DUP2 PUSH2 0x3D8 JUMP JUMPDEST PUSH1 0x84 CALLDATALOAD SWAP6 PUSH2 0x1344 PUSH2 0xAEE PUSH2 0x2F20 JUMP JUMPDEST PUSH2 0x134F DUP8 ISZERO ISZERO PUSH2 0x2A01 JUMP JUMPDEST DUP5 DUP5 PUSH2 0x2C9D JUMP JUMPDEST SWAP4 PUSH2 0x13DF PUSH2 0x13CD DUP6 PUSH2 0x13C5 PUSH2 0x13AC PUSH2 0x1386 DUP11 PUSH0 MSTORE PUSH1 0x6 PUSH1 0x20 MSTORE PUSH1 0x40 PUSH0 KECCAK256 SLOAD SWAP1 PUSH1 0x1 PUSH1 0x1 PUSH1 0x80 SHL SUB DUP3 AND SWAP2 PUSH1 0x80 SHR SWAP1 JUMP JUMPDEST SWAP10 SWAP1 PUSH2 0x13A5 PUSH2 0x139D DUP14 PUSH0 MSTORE PUSH1 0x5 PUSH1 0x20 MSTORE PUSH1 0x40 PUSH0 KECCAK256 SWAP1 JUMP JUMPDEST SLOAD ISZERO ISZERO PUSH2 0x2A4D JUMP JUMPDEST AND DUP7 PUSH2 0x2AD8 JUMP JUMPDEST PUSH2 0x13BE DUP11 PUSH0 MSTORE PUSH1 0x5 PUSH1 0x20 MSTORE PUSH1 0x40 PUSH0 KECCAK256 SWAP1 JUMP JUMPDEST SLOAD SWAP1 PUSH2 0x2AEB JUMP JUMPDEST SWAP7 AND DUP4 PUSH2 0x2AD8 JUMP JUMPDEST PUSH2 0x13BE DUP8 PUSH0 MSTORE PUSH1 0x5 PUSH1 0x20 MSTORE PUSH1 0x40 PUSH0 KECCAK256 SWAP1 JUMP JUMPDEST SWAP5 DUP5 ISZERO DUP1 PUSH2 0x1552 JUMPI JUMPDEST PUSH2 0x1539 JUMPI PUSH2 0x13F4 PUSH2 0x31A0 JUMP JUMPDEST SWAP1 PUSH1 0x1 PUSH1 0x1 PUSH1 0xA0 SHL SUB DUP3 AND ISZERO PUSH2 0x1531 JUMPI JUMPDEST DUP3 PUSH2 0x1415 DUP4 SWAP5 DUP4 PUSH2 0x1464 SWAP6 PUSH2 0x324C JUMP JUMPDEST PUSH2 0x1432 PUSH2 0x142A DUP4 PUSH0 MSTORE PUSH1 0x5 PUSH1 0x20 MSTORE PUSH1 0x40 PUSH0 KECCAK256 SWAP1 JUMP JUMPDEST SWAP2 DUP3 SLOAD PUSH2 0x253C JUMP JUMPDEST SWAP1 SSTORE PUSH2 0x1449 PUSH1 0x1 PUSH1 0x1 PUSH1 0x80 SHL SUB DUP8 AND PUSH1 0xF SIGNEXTEND PUSH2 0x2B09 JUMP JUMPDEST PUSH2 0x145E PUSH1 0x1 PUSH1 0x1 PUSH1 0x80 SHL SUB DUP10 AND PUSH1 0xF SIGNEXTEND PUSH2 0x2B09 JUMP JUMPDEST SWAP2 PUSH2 0x32CB JUMP JUMPDEST PUSH1 0x1 PUSH1 0x1 PUSH1 0xA0 SHL SUB DUP4 DUP2 AND SWAP1 DUP4 AND LT SWAP2 PUSH2 0x14A5 SWAP1 DUP4 ISZERO PUSH2 0x1525 JUMPI PUSH2 0x149E DUP7 SWAP6 DUP9 SWAP3 JUMPDEST DUP7 ISZERO PUSH2 0x151E JUMPI DUP1 SWAP7 JUMPDEST ISZERO PUSH2 0x1516 JUMPI POP SWAP6 JUMPDEST DUP6 DUP6 PUSH2 0x3321 JUMP JUMPDEST DUP5 DUP4 PUSH2 0x3321 JUMP JUMPDEST PUSH2 0x14B2 PUSH2 0x10EA DUP3 ADDRESS PUSH2 0x36E2 JUMP JUMPDEST PUSH2 0x14D5 JUMPI JUMPDEST POP POP POP PUSH0 PUSH2 0x14C3 PUSH2 0x2F20 JUMP JUMPDEST TSTORE PUSH1 0x40 DUP1 MLOAD SWAP2 DUP3 MSTORE PUSH1 0x20 DUP3 ADD SWAP3 SWAP1 SWAP3 MSTORE RETURN JUMPDEST PUSH2 0x1509 PUSH2 0x150E SWAP4 PUSH2 0x1500 PUSH2 0x14E7 PUSH2 0x2B29 JUMP JUMPDEST SWAP5 PUSH2 0x14F1 DUP7 PUSH2 0x1D85 JUMP JUMPDEST PUSH1 0x1 PUSH1 0x1 PUSH1 0xA0 SHL SUB SWAP1 SWAP2 AND SWAP1 MSTORE JUMP JUMPDEST PUSH2 0x14F1 DUP5 PUSH2 0x1D97 JUMP JUMPDEST PUSH2 0x3021 JUMP JUMPDEST PUSH0 DUP1 DUP1 PUSH2 0x14B7 JUMP JUMPDEST SWAP1 POP SWAP6 PUSH2 0x1497 JUMP JUMPDEST DUP2 SWAP7 PUSH2 0x148F JUMP JUMPDEST PUSH2 0x149E DUP8 SWAP6 DUP8 SWAP3 PUSH2 0x1486 JUMP JUMPDEST CALLER SWAP2 POP PUSH2 0x1405 JUMP JUMPDEST PUSH4 0xD5DE6205 PUSH1 0xE0 SHL PUSH0 MSTORE PUSH1 0x4 DUP6 SWAP1 MSTORE PUSH1 0x24 DUP7 SWAP1 MSTORE PUSH1 0x44 PUSH0 REVERT JUMPDEST POP DUP6 ISZERO PUSH2 0x13E8 JUMP JUMPDEST CALLVALUE PUSH2 0x20F JUMPI PUSH1 0x20 CALLDATASIZE PUSH1 0x3 NOT ADD SLT PUSH2 0x20F JUMPI PUSH1 0xFF PUSH2 0x1575 PUSH2 0x993 JUMP JUMPDEST AND PUSH2 0x1582 PUSH1 0x10 DUP3 LT PUSH2 0x25EF JUMP JUMPDEST PUSH0 MSTORE PUSH1 0x3 PUSH1 0x20 MSTORE PUSH1 0x20 PUSH1 0x1 DUP1 PUSH1 0xA0 SHL SUB PUSH1 0x40 PUSH0 KECCAK256 SLOAD AND PUSH1 0x40 MLOAD SWAP1 DUP2 MSTORE RETURN JUMPDEST PUSH1 0xE0 CALLDATASIZE PUSH1 0x3 NOT ADD SLT PUSH2 0x20F JUMPI PUSH1 0x4 CALLDATALOAD PUSH2 0x15B8 DUP2 PUSH2 0x1FE JUMP JUMPDEST PUSH1 0x24 CALLDATALOAD SWAP1 PUSH2 0x15C5 DUP3 PUSH2 0x1FE JUMP JUMPDEST PUSH1 0x44 CALLDATALOAD SWAP1 PUSH2 0x15D2 DUP3 PUSH2 0x1FE JUMP JUMPDEST PUSH1 0x64 CALLDATALOAD PUSH2 0x15DE DUP2 PUSH2 0x3D8 JUMP JUMPDEST PUSH1 0x84 CALLDATALOAD PUSH1 0xA4 CALLDATALOAD SWAP3 PUSH2 0x15EE DUP5 PUSH2 0x3C3 JUMP JUMPDEST PUSH1 0xC4 CALLDATALOAD SWAP3 PUSH2 0x15FD PUSH2 0xAEE PUSH2 0x2F20 JUMP JUMPDEST PUSH2 0x1605 PUSH2 0x31A0 JUMP JUMPDEST SWAP4 PUSH1 0x1 PUSH1 0x1 PUSH1 0xA0 SHL SUB DUP6 AND ISZERO PUSH2 0x1804 JUMPI JUMPDEST PUSH2 0x1622 DUP3 DUP9 DUP11 DUP7 PUSH2 0x2C9D JUMP JUMPDEST SWAP2 DUP9 PUSH2 0x1646 DUP5 PUSH0 MSTORE PUSH1 0x6 PUSH1 0x20 MSTORE PUSH1 0x40 PUSH0 KECCAK256 SLOAD SWAP1 PUSH1 0x1 PUSH1 0x1 PUSH1 0x80 SHL SUB DUP3 AND SWAP2 PUSH1 0x80 SHR SWAP1 JUMP JUMPDEST SWAP10 SWAP1 DUP1 SWAP4 DUP12 SWAP3 DUP10 PUSH2 0x1655 PUSH2 0x1D1D JUMP JUMPDEST PUSH2 0x165D PUSH2 0x1D1D JUMP JUMPDEST SWAP3 PUSH2 0x1666 PUSH2 0x314 JUMP JUMPDEST PUSH1 0x1 PUSH1 0x1 PUSH1 0xA0 SHL SUB DUP14 AND DUP2 MSTORE SWAP8 PUSH1 0x1 PUSH1 0x1 PUSH1 0xA0 SHL SUB AND PUSH1 0x20 DUP10 ADD MSTORE PUSH1 0x1 PUSH1 0x1 PUSH1 0xA0 SHL SUB AND PUSH1 0x40 DUP9 ADD MSTORE PUSH1 0x60 DUP8 ADD SWAP1 DUP2 MSTORE DUP14 ISZERO ISZERO PUSH1 0x80 DUP9 ADD MSTORE PUSH1 0xA0 DUP8 ADD SWAP3 DUP4 MSTORE MLOAD PUSH2 0x16AF SWAP1 PUSH2 0x1D85 JUMP JUMPDEST MSTORE MLOAD PUSH2 0x16BA SWAP1 PUSH2 0x1D85 JUMP JUMPDEST PUSH1 0x1 PUSH1 0x1 PUSH1 0xE8 SHL SUB NOT SWAP1 SWAP2 AND SWAP1 MSTORE PUSH2 0x16D1 SWAP3 PUSH2 0x2760 JUMP JUMPDEST POP SWAP8 DUP9 ISZERO PUSH2 0x17F5 JUMPI DUP9 DUP9 SWAP2 PUSH2 0x16E5 SWAP4 PUSH2 0x3334 JUMP JUMPDEST DUP1 DUP8 LT PUSH2 0x17DE JUMPI POP PUSH2 0x64C SWAP7 PUSH2 0x175E SWAP3 PUSH2 0x1757 SWAP3 PUSH2 0x1742 SWAP1 PUSH1 0x1 PUSH1 0x1 PUSH1 0xA0 SHL SUB DUP1 DUP6 AND SWAP1 DUP5 AND LT ISZERO PUSH2 0x17D7 JUMPI DUP9 JUMPDEST DUP1 ISZERO PUSH2 0x17BC JUMPI PUSH1 0x1 PUSH1 0x1 PUSH1 0x80 SHL SUB DUP9 AND PUSH1 0xF SIGNEXTEND SWAP1 JUMPDEST ISZERO PUSH2 0x17A9 JUMPI PUSH2 0x145E PUSH1 0x1 PUSH1 0x1 PUSH1 0x80 SHL SUB DUP13 AND PUSH1 0xF SIGNEXTEND PUSH2 0x2B09 JUMP JUMPDEST DUP7 ISZERO PUSH2 0x17A2 JUMPI DUP1 SWAP7 JUMPDEST ISZERO PUSH2 0x179A JUMPI POP SWAP3 PUSH2 0x2B4B JUMP JUMPDEST DUP5 DUP5 PUSH2 0x3321 JUMP JUMPDEST PUSH2 0x1769 DUP5 DUP3 DUP5 PUSH2 0x3321 JUMP JUMPDEST PUSH2 0x1776 PUSH2 0x10EA DUP4 ADDRESS PUSH2 0x36E2 JUMP JUMPDEST PUSH2 0x1787 JUMPI JUMPDEST POP POP POP PUSH0 PUSH2 0xC82 PUSH2 0x2F20 JUMP JUMPDEST PUSH2 0x1792 SWAP3 CALLVALUE SWAP3 PUSH2 0x33A6 JUMP JUMPDEST PUSH0 DUP1 DUP1 PUSH2 0x177B JUMP JUMPDEST SWAP1 POP SWAP3 PUSH2 0x2B4B JUMP JUMPDEST DUP2 SWAP7 PUSH2 0x174B JUMP JUMPDEST PUSH1 0x1 PUSH1 0x1 PUSH1 0x80 SHL SUB DUP9 AND PUSH1 0xF SIGNEXTEND SWAP2 PUSH2 0x32CB JUMP JUMPDEST PUSH2 0x17D1 PUSH1 0x1 PUSH1 0x1 PUSH1 0x80 SHL SUB DUP13 AND PUSH1 0xF SIGNEXTEND PUSH2 0x2B09 JUMP JUMPDEST SWAP1 PUSH2 0x1728 JUMP JUMPDEST DUP9 ISZERO PUSH2 0x1713 JUMP JUMPDEST PUSH4 0xD438755D PUSH1 0xE0 SHL PUSH0 MSTORE PUSH1 0x4 MSTORE PUSH1 0x24 DUP7 SWAP1 MSTORE PUSH1 0x44 PUSH0 REVERT JUMPDEST PUSH4 0x14033F21 PUSH1 0xE1 SHL PUSH0 MSTORE PUSH1 0x4 PUSH0 REVERT JUMPDEST CALLER SWAP5 POP PUSH2 0x1616 JUMP JUMPDEST PUSH1 0xC0 CALLDATASIZE PUSH1 0x3 NOT ADD SLT PUSH2 0x20F JUMPI PUSH1 0x4 CALLDATALOAD PUSH2 0x1824 DUP2 PUSH2 0x1FE JUMP JUMPDEST PUSH1 0x24 CALLDATALOAD PUSH2 0x1830 DUP2 PUSH2 0x1FE JUMP JUMPDEST PUSH1 0x44 CALLDATALOAD SWAP2 PUSH2 0x183D DUP4 PUSH2 0x1FE JUMP JUMPDEST PUSH1 0x64 CALLDATALOAD PUSH2 0x1849 DUP2 PUSH2 0x3D8 JUMP JUMPDEST PUSH1 0xA4 CALLDATALOAD SWAP3 PUSH1 0x84 CALLDATALOAD PUSH2 0x185B PUSH2 0xAEE PUSH2 0x2F20 JUMP JUMPDEST PUSH2 0x1867 DUP4 DUP8 DUP5 DUP8 PUSH2 0x2C9D JUMP JUMPDEST PUSH1 0x1 PUSH1 0x1 PUSH1 0xA0 SHL SUB DUP4 DUP2 AND SWAP1 DUP7 AND LT SWAP5 SWAP1 SWAP2 SWAP1 DUP6 ISZERO PUSH2 0x1A99 JUMPI SWAP3 SWAP5 JUMPDEST ISZERO PUSH2 0x1A93 JUMPI SWAP5 SWAP3 JUMPDEST PUSH0 DUP3 DUP2 MSTORE PUSH1 0x6 PUSH1 0x20 MSTORE PUSH1 0x40 SWAP1 KECCAK256 SLOAD PUSH1 0x1 PUSH1 0x1 PUSH1 0x80 SHL SUB DUP2 AND SWAP1 PUSH1 0x80 SHR SWAP2 SWAP1 SWAP8 PUSH2 0x18BC DUP5 PUSH0 MSTORE PUSH1 0x5 PUSH1 0x20 MSTORE PUSH1 0x40 PUSH0 KECCAK256 SWAP1 JUMP JUMPDEST SLOAD PUSH2 0x19DA JUMPI POP POP PUSH2 0x64C SWAP7 DUP3 PUSH2 0x18F9 SWAP3 DUP9 ISZERO ISZERO DUP1 PUSH2 0x19D1 JUMPI JUMPDEST PUSH2 0x18DE SWAP1 PUSH2 0x2B5B JUMP JUMPDEST PUSH2 0x18F0 DUP8 PUSH2 0x18EB DUP12 PUSH2 0x2A90 JUMP JUMPDEST PUSH2 0x2AEB JUMP JUMPDEST SWAP3 JUMPDEST DUP8 DUP11 PUSH2 0x3513 JUMP JUMPDEST SWAP5 PUSH2 0x1902 PUSH2 0x31A0 JUMP JUMPDEST SWAP4 PUSH1 0x1 PUSH1 0x1 PUSH1 0xA0 SHL SUB DUP6 AND ISZERO PUSH2 0x19C9 JUMPI JUMPDEST DUP2 PUSH1 0x1 PUSH1 0x1 PUSH1 0x80 SHL SUB DUP1 PUSH2 0x195A SWAP4 PUSH2 0x1938 PUSH2 0x1931 PUSH2 0x1973 SWAP9 SWAP8 PUSH2 0x2B4B JUMP JUMPDEST DUP10 DUP12 PUSH2 0x3321 JUMP JUMPDEST PUSH2 0x194B PUSH2 0x1944 DUP3 PUSH2 0x2B4B JUMP JUMPDEST DUP12 DUP12 PUSH2 0x3321 JUMP JUMPDEST AND PUSH1 0xF SIGNEXTEND SWAP2 AND PUSH1 0xF SIGNEXTEND DUP4 PUSH2 0x32CB JUMP JUMPDEST PUSH2 0x1965 DUP7 DUP3 DUP7 PUSH2 0x35E0 JUMP JUMPDEST PUSH0 MSTORE PUSH1 0x5 PUSH1 0x20 MSTORE PUSH1 0x40 PUSH0 KECCAK256 SWAP1 JUMP JUMPDEST PUSH2 0x197E DUP6 DUP3 SLOAD PUSH2 0x2549 JUMP JUMPDEST SWAP1 SSTORE PUSH2 0x198D PUSH2 0x10EA DUP4 ADDRESS PUSH2 0x36E2 JUMP JUMPDEST PUSH2 0x199D JUMPI POP POP POP PUSH0 PUSH2 0xC82 PUSH2 0x2F20 JUMP JUMPDEST PUSH2 0x19C2 PUSH2 0x1792 SWAP4 PUSH2 0x19B9 PUSH2 0x19AF PUSH2 0x2B29 JUMP JUMPDEST SWAP4 PUSH2 0x14F1 DUP6 PUSH2 0x1D85 JUMP JUMPDEST PUSH2 0x14F1 DUP4 PUSH2 0x1D97 JUMP JUMPDEST CALLVALUE SWAP2 PUSH2 0x30B6 JUMP JUMPDEST CALLER SWAP5 POP PUSH2 0x1913 JUMP JUMPDEST POP DUP7 ISZERO ISZERO PUSH2 0x18D5 JUMP JUMPDEST DUP9 DUP6 PUSH2 0x1A77 PUSH2 0x1A7C SWAP5 PUSH2 0x1A67 DUP12 PUSH8 0xDE0B6B3A7640000 PUSH2 0x1A60 DUP11 SWAP9 PUSH2 0x1A47 PUSH2 0x1A00 PUSH2 0x1D1D JUMP JUMPDEST SWAP2 PUSH2 0x1A37 PUSH2 0x1A0C PUSH2 0x1D1D JUMP JUMPDEST SWAP7 PUSH2 0x1A27 PUSH2 0x1A18 PUSH2 0x314 JUMP JUMPDEST PUSH1 0x1 PUSH1 0x1 PUSH1 0xA0 SHL SUB SWAP1 SWAP14 AND DUP14 MSTORE JUMP JUMPDEST PUSH1 0x1 PUSH1 0x1 PUSH1 0xA0 SHL SUB AND PUSH1 0x20 DUP13 ADD MSTORE JUMP JUMPDEST PUSH1 0x1 PUSH1 0x1 PUSH1 0xA0 SHL SUB AND PUSH1 0x40 DUP11 ADD MSTORE JUMP JUMPDEST PUSH1 0x60 DUP9 ADD DUP2 SWAP1 MSTORE PUSH0 PUSH1 0x80 DUP10 ADD MSTORE PUSH1 0xA0 DUP9 ADD SWAP4 DUP5 MSTORE PUSH2 0x1D85 JUMP JUMPDEST MSTORE MLOAD PUSH2 0x1D85 JUMP JUMPDEST PUSH1 0x1 PUSH1 0x1 PUSH1 0xE8 SHL SUB NOT SWAP1 SWAP2 AND SWAP1 MSTORE JUMP JUMPDEST PUSH2 0x2760 JUMP JUMPDEST POP SWAP7 DUP8 ISZERO PUSH2 0x17F5 JUMPI DUP3 PUSH2 0x18F9 SWAP3 PUSH2 0x64C SWAP10 SWAP3 PUSH2 0x18F2 JUMP JUMPDEST SWAP3 PUSH2 0x188B JUMP JUMPDEST SWAP5 PUSH2 0x1883 JUMP JUMPDEST PUSH2 0x1AA8 CALLDATASIZE PUSH2 0xD6F JUMP JUMPDEST PUSH0 SWAP5 SWAP4 SWAP2 SWAP3 SWAP5 SWAP2 PUSH2 0x1AB7 PUSH2 0x2F6F JUMP JUMPDEST SWAP5 PUSH2 0x1AC1 DUP7 PUSH2 0x2F63 JUMP JUMPDEST PUSH1 0x1 PUSH2 0x1ACD CALLER ADDRESS PUSH2 0x36E2 JUMP JUMPDEST TSTORE PUSH2 0x1AD7 CALLER PUSH2 0x2FD8 JUMP JUMPDEST PUSH1 0x1 PUSH1 0x1 PUSH1 0xA0 SHL SUB AND SWAP6 DUP7 EXTCODESIZE ISZERO PUSH2 0x20F JUMPI PUSH2 0x1B0B SWAP7 PUSH0 SWAP3 DUP4 PUSH1 0x40 MLOAD DUP1 SWAP11 DUP2 SWAP6 DUP3 SWAP5 PUSH4 0x1C6E7247 PUSH1 0xE3 SHL DUP5 MSTORE PUSH1 0x4 DUP5 ADD PUSH2 0x263B JUMP JUMPDEST SUB SWAP3 GAS CALL SWAP5 DUP6 ISZERO PUSH2 0xEB4 JUMPI PUSH2 0x64C SWAP6 PUSH2 0x1B59 JUMPI JUMPDEST POP PUSH2 0x1B3A SWAP2 SWAP3 PUSH2 0x1B34 CALLVALUE PUSH2 0xE78 CALLDATASIZE DUP6 DUP6 PUSH2 0x2662 JUMP JUMPDEST CALLER PUSH2 0x2579 JUMP JUMPDEST SWAP2 PUSH2 0x1B43 PUSH2 0x314E JUMP JUMPDEST PUSH2 0x1B4C CALLER PUSH2 0x3192 JUMP JUMPDEST TSTORE PUSH1 0x40 MLOAD SWAP2 DUP3 SWAP2 DUP3 PUSH2 0x884 JUMP JUMPDEST PUSH2 0x1B3A SWAP3 POP PUSH0 PUSH2 0x1B68 SWAP2 PUSH2 0x2F3 JUMP JUMPDEST PUSH0 SWAP2 PUSH2 0x1B1F JUMP JUMPDEST CALLVALUE PUSH2 0x20F JUMPI PUSH1 0x80 CALLDATASIZE PUSH1 0x3 NOT ADD SLT PUSH2 0x20F JUMPI PUSH1 0x4 CALLDATALOAD PUSH2 0x1B8C DUP2 PUSH2 0x1FE JUMP JUMPDEST PUSH1 0x24 CALLDATALOAD PUSH2 0x1B98 DUP2 PUSH2 0x1FE JUMP JUMPDEST PUSH1 0x44 CALLDATALOAD SWAP2 PUSH0 MLOAD PUSH1 0x20 PUSH2 0x426F PUSH0 CODECOPY PUSH0 MLOAD SWAP1 PUSH0 MSTORE PUSH2 0x6FE PUSH1 0x64 CALLDATALOAD SWAP4 PUSH1 0x1 PUSH1 0x1 PUSH1 0xA0 SHL SUB DUP5 AND SWAP4 PUSH2 0x1BFA SWAP1 DUP8 SWAP1 PUSH2 0x1BED SWAP1 CALLER DUP9 EQ ISZERO DUP1 PUSH2 0x1CE9 JUMPI JUMPDEST PUSH2 0x1C59 JUMPI PUSH1 0x1 PUSH1 0x1 PUSH1 0xA0 SHL SUB AND PUSH0 SWAP1 DUP2 MSTORE PUSH1 0x1 PUSH1 0x20 MSTORE PUSH1 0x40 SWAP1 KECCAK256 SWAP1 JUMP JUMPDEST SWAP1 PUSH0 MSTORE PUSH1 0x20 MSTORE PUSH1 0x40 PUSH0 KECCAK256 SWAP1 JUMP JUMPDEST PUSH2 0x1C05 DUP7 DUP3 SLOAD PUSH2 0x253C JUMP JUMPDEST SWAP1 SSTORE PUSH1 0x1 PUSH1 0x1 PUSH1 0xA0 SHL SUB DUP2 AND PUSH0 SWAP1 DUP2 MSTORE PUSH1 0x1 PUSH1 0x20 MSTORE PUSH1 0x40 SWAP1 KECCAK256 PUSH2 0x1C29 SWAP1 DUP8 SWAP1 PUSH2 0x1BED JUMP JUMPDEST PUSH2 0x1C34 DUP7 DUP3 SLOAD PUSH2 0x2549 JUMP JUMPDEST SWAP1 SSTORE PUSH1 0x40 DUP1 MLOAD CALLER DUP2 MSTORE PUSH1 0x20 DUP2 ADD SWAP7 SWAP1 SWAP7 MSTORE PUSH1 0x1 PUSH1 0x1 PUSH1 0xA0 SHL SUB SWAP1 SWAP2 AND SWAP5 SWAP2 DUP3 SWAP2 DUP3 ADD SWAP1 JUMP JUMPDEST PUSH2 0x1C90 DUP4 PUSH2 0x1BED CALLER PUSH2 0x1C7B DUP6 PUSH1 0x1 DUP1 PUSH1 0xA0 SHL SUB AND PUSH0 MSTORE PUSH1 0x2 PUSH1 0x20 MSTORE PUSH1 0x40 PUSH0 KECCAK256 SWAP1 JUMP JUMPDEST SWAP1 PUSH1 0x1 DUP1 PUSH1 0xA0 SHL SUB AND PUSH0 MSTORE PUSH1 0x20 MSTORE PUSH1 0x40 PUSH0 KECCAK256 SWAP1 JUMP JUMPDEST SLOAD DUP10 PUSH1 0x1 DUP3 ADD PUSH2 0x1CB6 JUMPI JUMPDEST POP POP PUSH1 0x1 PUSH1 0x1 PUSH1 0xA0 SHL SUB AND PUSH0 SWAP1 DUP2 MSTORE PUSH1 0x1 PUSH1 0x20 MSTORE PUSH1 0x40 SWAP1 KECCAK256 SWAP1 JUMP JUMPDEST PUSH2 0x1CBF SWAP2 PUSH2 0x253C JUMP JUMPDEST PUSH2 0x1CE1 DUP5 PUSH2 0x1BED CALLER PUSH2 0x1C7B DUP7 PUSH1 0x1 DUP1 PUSH1 0xA0 SHL SUB AND PUSH0 MSTORE PUSH1 0x2 PUSH1 0x20 MSTORE PUSH1 0x40 PUSH0 KECCAK256 SWAP1 JUMP JUMPDEST SSTORE PUSH0 DUP10 PUSH2 0x1C9B JUMP JUMPDEST POP PUSH2 0x1D18 PUSH2 0x1D14 PUSH2 0x1D0D CALLER PUSH2 0x1C7B DUP6 PUSH1 0x1 DUP1 PUSH1 0xA0 SHL SUB AND PUSH0 MSTORE PUSH0 PUSH1 0x20 MSTORE PUSH1 0x40 PUSH0 KECCAK256 SWAP1 JUMP JUMPDEST SLOAD PUSH1 0xFF AND SWAP1 JUMP JUMPDEST ISZERO SWAP1 JUMP JUMPDEST PUSH2 0x1BD0 JUMP JUMPDEST PUSH1 0x40 DUP1 MLOAD SWAP1 SWAP2 SWAP1 PUSH2 0x1D2E DUP4 DUP3 PUSH2 0x2F3 JUMP JUMPDEST PUSH1 0x1 DUP2 MSTORE SWAP2 PUSH1 0x1F NOT ADD CALLDATASIZE PUSH1 0x20 DUP5 ADD CALLDATACOPY JUMP JUMPDEST SWAP1 PUSH2 0x1D49 DUP3 PUSH2 0x342 JUMP JUMPDEST PUSH2 0x1D56 PUSH1 0x40 MLOAD SWAP2 DUP3 PUSH2 0x2F3 JUMP JUMPDEST DUP3 DUP2 MSTORE DUP1 SWAP3 PUSH2 0x1D67 PUSH1 0x1F NOT SWAP2 PUSH2 0x342 JUMP JUMPDEST ADD SWAP1 PUSH1 0x20 CALLDATASIZE SWAP2 ADD CALLDATACOPY JUMP JUMPDEST PUSH4 0x4E487B71 PUSH1 0xE0 SHL PUSH0 MSTORE PUSH1 0x32 PUSH1 0x4 MSTORE PUSH1 0x24 PUSH0 REVERT JUMPDEST DUP1 MLOAD ISZERO PUSH2 0x1D92 JUMPI PUSH1 0x20 ADD SWAP1 JUMP JUMPDEST PUSH2 0x1D71 JUMP JUMPDEST DUP1 MLOAD PUSH1 0x1 LT ISZERO PUSH2 0x1D92 JUMPI PUSH1 0x40 ADD SWAP1 JUMP JUMPDEST DUP1 MLOAD DUP3 LT ISZERO PUSH2 0x1D92 JUMPI PUSH1 0x20 SWAP2 PUSH1 0x5 SHL ADD ADD SWAP1 JUMP JUMPDEST ISZERO PUSH2 0x1DC2 JUMPI JUMP JUMPDEST PUSH1 0x40 MLOAD PUSH3 0x461BCD PUSH1 0xE5 SHL DUP2 MSTORE PUSH1 0x20 PUSH1 0x4 DUP3 ADD MSTORE PUSH1 0x15 PUSH1 0x24 DUP3 ADD MSTORE PUSH21 0x416C7068612061646472657373206973207A65726F PUSH1 0x58 SHL PUSH1 0x44 DUP3 ADD MSTORE PUSH1 0x64 SWAP1 REVERT JUMPDEST DUP1 MLOAD SWAP2 SWAP1 DUP3 SWAP1 PUSH1 0x20 ADD DUP3 MCOPY ADD PUSH0 DUP2 MSTORE SWAP1 JUMP JUMPDEST SWAP1 PUSH2 0x21E PUSH2 0x1E37 SWAP3 PUSH1 0x40 MLOAD SWAP4 DUP5 SWAP2 PUSH1 0x20 PUSH1 0x60 MLOAD DUP1 PUSH1 0x80 DUP4 DUP8 ADD MCOPY DUP5 ADD ADD SWAP1 PUSH0 DUP3 MSTORE PUSH2 0x1DFF JUMP JUMPDEST SUB PUSH1 0x1F NOT DUP2 ADD DUP5 MSTORE DUP4 PUSH2 0x2F3 JUMP JUMPDEST PUSH2 0x21E SWAP1 PUSH2 0x1E37 PUSH2 0x1E61 SWAP5 SWAP4 PUSH1 0x40 MLOAD SWAP6 DUP7 SWAP4 PUSH1 0x20 DUP6 ADD SWAP1 PUSH2 0x1DFF JUMP JUMPDEST SWAP1 PUSH2 0x1DFF JUMP JUMPDEST ISZERO PUSH2 0x1E6E JUMPI JUMP JUMPDEST PUSH1 0x40 MLOAD PUSH3 0x461BCD PUSH1 0xE5 SHL DUP2 MSTORE PUSH1 0x20 PUSH1 0x4 DUP3 ADD MSTORE PUSH1 0x14 PUSH1 0x24 DUP3 ADD MSTORE PUSH20 0x426574612061646472657373206973207A65726F PUSH1 0x60 SHL PUSH1 0x44 DUP3 ADD MSTORE PUSH1 0x64 SWAP1 REVERT JUMPDEST SWAP1 DUP1 PUSH1 0x1F DUP4 ADD SLT ISZERO PUSH2 0x20F JUMPI DUP2 MLOAD PUSH2 0x1EC1 DUP2 PUSH2 0x342 JUMP JUMPDEST SWAP3 PUSH2 0x1ECF PUSH1 0x40 MLOAD SWAP5 DUP6 PUSH2 0x2F3 JUMP JUMPDEST DUP2 DUP5 MSTORE PUSH1 0x20 DUP1 DUP6 ADD SWAP3 PUSH1 0x5 SHL DUP3 ADD ADD SWAP3 DUP4 GT PUSH2 0x20F JUMPI PUSH1 0x20 ADD SWAP1 JUMPDEST DUP3 DUP3 LT PUSH2 0x1EF7 JUMPI POP POP POP SWAP1 JUMP JUMPDEST DUP2 MLOAD DUP2 MSTORE PUSH1 0x20 SWAP2 DUP3 ADD SWAP2 ADD PUSH2 0x1EEA JUMP JUMPDEST SWAP1 PUSH1 0x20 DUP3 DUP3 SUB SLT PUSH2 0x20F JUMPI DUP2 MLOAD PUSH1 0x1 PUSH1 0x1 PUSH1 0x40 SHL SUB DUP2 GT PUSH2 0x20F JUMPI PUSH2 0x3C0 SWAP3 ADD PUSH2 0x1EAA JUMP JUMPDEST SWAP1 PUSH1 0x20 DUP1 DUP4 MLOAD SWAP3 DUP4 DUP2 MSTORE ADD SWAP3 ADD SWAP1 PUSH0 JUMPDEST DUP2 DUP2 LT PUSH2 0x1F49 JUMPI POP POP POP SWAP1 JUMP JUMPDEST DUP3 MLOAD PUSH1 0x1 PUSH1 0x1 PUSH1 0x80 SHL SUB AND DUP5 MSTORE PUSH1 0x20 SWAP4 DUP5 ADD SWAP4 SWAP1 SWAP3 ADD SWAP2 PUSH1 0x1 ADD PUSH2 0x1F3C JUMP JUMPDEST SWAP1 PUSH1 0x20 DUP1 DUP4 MLOAD SWAP3 DUP4 DUP2 MSTORE ADD SWAP3 ADD SWAP1 PUSH0 JUMPDEST DUP2 DUP2 LT PUSH2 0x1F85 JUMPI POP POP POP SWAP1 JUMP JUMPDEST DUP3 MLOAD PUSH2 0xFFFF AND DUP5 MSTORE PUSH1 0x20 SWAP4 DUP5 ADD SWAP4 SWAP1 SWAP3 ADD SWAP2 PUSH1 0x1 ADD PUSH2 0x1F78 JUMP JUMPDEST DUP1 MLOAD DUP1 DUP4 MSTORE PUSH1 0x20 SWAP3 SWAP2 DUP2 SWAP1 DUP5 ADD DUP5 DUP5 ADD MCOPY PUSH0 DUP3 DUP3 ADD DUP5 ADD MSTORE PUSH1 0x1F ADD PUSH1 0x1F NOT AND ADD ADD SWAP1 JUMP JUMPDEST PUSH1 0x40 DUP1 DUP3 MSTORE DUP3 MLOAD PUSH1 0x1 PUSH1 0x1 PUSH1 0xA0 SHL SUB AND SWAP1 DUP3 ADD MSTORE PUSH2 0x3C0 SWAP3 SWAP1 PUSH1 0x20 DUP4 ADD MLOAD PUSH1 0x1 PUSH1 0x1 PUSH1 0xA0 SHL SUB AND PUSH1 0x60 DUP3 ADD MSTORE PUSH1 0x40 DUP4 ADD MLOAD PUSH1 0x1 PUSH1 0x1 PUSH1 0xA0 SHL SUB AND PUSH1 0x80 DUP3 ADD MSTORE PUSH2 0x207A PUSH1 0xE0 PUSH2 0x206D PUSH2 0x2056 PUSH2 0x2041 PUSH2 0x202B PUSH1 0x60 DUP10 ADD MLOAD PUSH2 0x100 PUSH1 0xA0 DUP10 ADD MSTORE PUSH2 0x140 DUP9 ADD SWAP1 PUSH2 0x5CD JUMP JUMPDEST PUSH1 0x80 DUP10 ADD MLOAD DUP8 DUP3 SUB PUSH1 0x3F NOT ADD PUSH1 0xC0 DUP10 ADD MSTORE PUSH2 0x1F2C JUMP JUMPDEST PUSH1 0xA0 DUP9 ADD MLOAD DUP7 DUP3 SUB PUSH1 0x3F NOT ADD DUP6 DUP9 ADD MSTORE PUSH2 0x1F2C JUMP JUMPDEST PUSH1 0xC0 DUP8 ADD MLOAD DUP6 DUP3 SUB PUSH1 0x3F NOT ADD PUSH2 0x100 DUP8 ADD MSTORE PUSH2 0x1F68 JUMP JUMPDEST SWAP5 ADD MLOAD ISZERO ISZERO PUSH2 0x120 DUP4 ADD MSTORE JUMP JUMPDEST PUSH1 0x20 DUP2 DUP5 SUB SWAP2 ADD MSTORE PUSH2 0x1F9F JUMP JUMPDEST PUSH1 0x40 MLOAD RETURNDATASIZE PUSH0 DUP3 RETURNDATACOPY RETURNDATASIZE SWAP1 REVERT JUMPDEST SWAP3 PUSH1 0xA0 DUP5 ADD SWAP3 PUSH2 0x20A3 DUP5 MLOAD MLOAD PUSH2 0x1D3F JUMP JUMPDEST SWAP2 PUSH2 0x20AF DUP6 MLOAD MLOAD PUSH2 0x1D3F JUMP JUMPDEST POP PUSH2 0x20BB DUP6 MLOAD MLOAD PUSH2 0x1D3F JUMP JUMPDEST SWAP4 PUSH2 0x20DF PUSH2 0x20DA PUSH2 0x20CC DUP9 MLOAD PUSH2 0x1D85 JUMP JUMPDEST MLOAD PUSH1 0x1 PUSH1 0x1 PUSH1 0xE8 SHL SUB NOT AND SWAP1 JUMP JUMPDEST PUSH2 0x2BED JUMP JUMPDEST PUSH0 JUMPDEST DUP8 MLOAD DUP1 MLOAD DUP3 LT ISZERO PUSH2 0x2165 JUMPI SWAP1 PUSH2 0x215F PUSH2 0x214C PUSH1 0xC0 PUSH2 0x2143 DUP14 DUP12 PUSH2 0x213D DUP8 PUSH2 0x2137 PUSH2 0x2110 PUSH2 0x20CC DUP4 PUSH1 0x1 SWAP14 PUSH2 0x1DA7 JUMP JUMPDEST DUP6 MLOAD PUSH1 0x20 DUP8 ADD MLOAD PUSH1 0x40 SWAP1 SWAP8 ADD MLOAD SWAP2 SWAP7 DUP8 SWAP3 PUSH1 0x1 PUSH1 0x1 PUSH1 0xA0 SHL SUB SWAP1 DUP2 AND SWAP3 SWAP2 DUP2 AND SWAP2 AND PUSH2 0x2C9D JUMP JUMPDEST SWAP3 PUSH2 0x1DA7 JUMP JUMPDEST MSTORE PUSH2 0x2BED JUMP JUMPDEST ADD MLOAD PUSH2 0xFFFF AND SWAP1 JUMP JUMPDEST PUSH2 0x2156 DUP4 DUP12 PUSH2 0x1DA7 JUMP JUMPDEST SWAP1 PUSH2 0xFFFF AND SWAP1 MSTORE JUMP JUMPDEST ADD PUSH2 0x20E1 JUMP JUMPDEST POP POP DUP8 MLOAD SWAP3 SWAP8 SWAP5 SWAP7 POP SWAP1 SWAP5 SWAP1 SWAP4 SWAP3 SWAP1 SWAP2 PUSH1 0x1 PUSH1 0x1 PUSH1 0xA0 SHL SUB AND PUSH1 0x20 DUP5 ADD DUP1 MLOAD SWAP2 SWAP4 SWAP1 SWAP2 PUSH1 0x1 PUSH1 0x1 PUSH1 0xA0 SHL SUB AND PUSH1 0x40 DUP7 ADD DUP1 MLOAD SWAP1 SWAP5 SWAP2 SWAP3 SWAP2 SWAP1 PUSH1 0x1 PUSH1 0x1 PUSH1 0xA0 SHL SUB AND SWAP9 PUSH1 0x60 DUP9 ADD MLOAD PUSH1 0x80 DUP10 ADD SWAP11 DUP12 MLOAD PUSH2 0x21BC SWAP1 ISZERO ISZERO SWAP1 JUMP JUMPDEST SWAP6 PUSH2 0x21C5 PUSH2 0x332 JUMP JUMPDEST PUSH1 0x1 PUSH1 0x1 PUSH1 0xA0 SHL SUB SWAP1 SWAP11 AND DUP11 MSTORE PUSH1 0x1 PUSH1 0x1 PUSH1 0xA0 SHL SUB AND PUSH1 0x20 DUP11 ADD MSTORE PUSH1 0x1 PUSH1 0x1 PUSH1 0xA0 SHL SUB AND PUSH1 0x40 DUP10 ADD MSTORE PUSH1 0x60 DUP9 ADD MSTORE PUSH1 0x80 DUP8 ADD MSTORE PUSH1 0xA0 DUP7 ADD MSTORE PUSH1 0xC0 DUP6 ADD MSTORE ISZERO ISZERO PUSH1 0xE0 DUP5 ADD MSTORE DUP5 MLOAD PUSH1 0x60 SWAP5 SWAP1 ISZERO ISZERO SWAP7 PUSH0 SWAP7 PUSH2 0x226A SWAP9 PUSH2 0x23FB JUMPI JUMPDEST PUSH1 0x20 DUP2 ADD MLOAD PUSH2 0x229E JUMPI JUMPDEST POP POP SWAP2 MLOAD PUSH2 0x224D SWAP3 POP PUSH2 0x2241 SWAP2 POP PUSH1 0x1 PUSH1 0x1 PUSH1 0xA0 SHL SUB AND DUP2 JUMP JUMPDEST PUSH1 0x1 PUSH1 0x1 PUSH1 0xA0 SHL SUB AND SWAP1 JUMP JUMPDEST SWAP1 DUP4 PUSH1 0x40 MLOAD DUP1 SWAP7 DUP2 SWAP6 DUP3 SWAP5 PUSH3 0xDB90D1 PUSH1 0xE8 SHL DUP5 MSTORE PUSH1 0x4 DUP5 ADD PUSH2 0x1FC3 JUMP JUMPDEST SUB SWAP3 GAS CALL SWAP1 DUP2 ISZERO PUSH2 0xEB4 JUMPI PUSH0 SWAP2 PUSH2 0x227F JUMPI POP SWAP2 JUMP JUMPDEST PUSH2 0x229B SWAP2 POP RETURNDATASIZE DUP1 PUSH0 DUP4 RETURNDATACOPY PUSH2 0x2293 DUP2 DUP4 PUSH2 0x2F3 JUMP JUMPDEST DUP2 ADD SWAP1 PUSH2 0x1F07 JUMP JUMPDEST SWAP2 JUMP JUMPDEST SWAP6 PUSH2 0x23A6 PUSH2 0x2241 SWAP5 PUSH2 0x2241 SWAP5 PUSH2 0x23A1 DUP9 PUSH2 0x237E PUSH2 0x23AC SWAP8 DUP14 PUSH2 0x22C7 PUSH2 0x224D SWAP14 SWAP16 PUSH1 0x60 ADD MLOAD ISZERO ISZERO SWAP1 JUMP JUMPDEST ISZERO PUSH2 0x23B4 JUMPI POP PUSH2 0x236E PUSH2 0x2343 PUSH2 0x233C PUSH2 0x232E PUSH2 0x2320 PUSH32 0x0 SWAP10 JUMPDEST PUSH2 0x2313 PUSH1 0x1 PUSH1 0x1 PUSH1 0xA0 SHL SUB DUP13 AND ISZERO ISZERO PUSH2 0x1E67 JUMP JUMPDEST MLOAD PUSH1 0x1 PUSH1 0x1 PUSH1 0xA0 SHL SUB AND SWAP1 JUMP JUMPDEST SWAP10 MLOAD PUSH1 0x1 PUSH1 0x1 PUSH1 0xA0 SHL SUB AND SWAP1 JUMP JUMPDEST SWAP6 MLOAD PUSH1 0x1 PUSH1 0x1 PUSH1 0xA0 SHL SUB AND SWAP1 JUMP JUMPDEST SWAP3 MLOAD ISZERO ISZERO SWAP1 JUMP JUMPDEST SWAP4 PUSH2 0x235E PUSH2 0x234F PUSH2 0x332 JUMP JUMPDEST PUSH1 0x1 PUSH1 0x1 PUSH1 0xA0 SHL SUB SWAP1 SWAP10 AND DUP10 MSTORE JUMP JUMPDEST PUSH1 0x1 PUSH1 0x1 PUSH1 0xA0 SHL SUB AND PUSH1 0x20 DUP9 ADD MSTORE JUMP JUMPDEST PUSH1 0x1 PUSH1 0x1 PUSH1 0xA0 SHL SUB AND PUSH1 0x40 DUP7 ADD MSTORE JUMP JUMPDEST DUP13 PUSH1 0x60 DUP6 ADD MSTORE DUP13 PUSH1 0x80 DUP6 ADD MSTORE DUP13 PUSH1 0xA0 DUP6 ADD MSTORE DUP13 PUSH1 0xC0 DUP6 ADD MSTORE PUSH1 0xE0 DUP5 ADD SWAP1 ISZERO ISZERO SWAP1 MSTORE JUMP JUMPDEST PUSH2 0x2D97 JUMP JUMPDEST SWAP1 PUSH2 0x1E45 JUMP JUMPDEST SWAP5 SWAP3 PUSH0 PUSH2 0x2227 JUMP JUMPDEST PUSH2 0x2343 PUSH2 0x233C PUSH2 0x232E PUSH2 0x2320 PUSH2 0x23F5 PUSH2 0x23E8 PUSH2 0x23D7 PUSH1 0xA0 PUSH2 0x236E SWAP9 ADD MLOAD PUSH1 0xFF AND SWAP1 JUMP JUMPDEST PUSH1 0xFF AND PUSH0 MSTORE PUSH1 0x4 PUSH1 0x20 MSTORE PUSH1 0x40 PUSH0 KECCAK256 SWAP1 JUMP JUMPDEST SLOAD PUSH1 0x1 PUSH1 0x1 PUSH1 0xA0 SHL SUB AND SWAP1 JUMP JUMPDEST SWAP10 PUSH2 0x22FF JUMP JUMPDEST SWAP6 PUSH2 0x24E5 PUSH2 0x24EA SWAP2 PUSH2 0x2410 PUSH1 0x40 DUP11 ADD MLOAD ISZERO ISZERO SWAP1 JUMP JUMPDEST DUP11 EQ PUSH2 0x24F0 JUMPI PUSH32 0x0 JUMPDEST PUSH2 0x244C PUSH1 0x1 PUSH1 0x1 PUSH1 0xA0 SHL SUB DUP3 AND ISZERO ISZERO PUSH2 0x1DBB JUMP JUMPDEST DUP6 MLOAD PUSH2 0x23A1 SWAP1 PUSH1 0x1 PUSH1 0x1 PUSH1 0xA0 SHL SUB AND DUP9 MLOAD SWAP1 SWAP4 SWAP1 DUP14 SWAP1 PUSH1 0x1 PUSH1 0x1 PUSH1 0xA0 SHL SUB AND DUP12 MLOAD SWAP1 SWAP3 SWAP1 PUSH2 0x24C5 SWAP1 PUSH1 0x1 PUSH1 0x1 PUSH1 0xA0 SHL SUB AND PUSH2 0x24B5 PUSH2 0x248A DUP13 MLOAD ISZERO ISZERO SWAP1 JUMP JUMPDEST SWAP6 PUSH2 0x24A5 PUSH2 0x2496 PUSH2 0x332 JUMP JUMPDEST PUSH1 0x1 PUSH1 0x1 PUSH1 0xA0 SHL SUB SWAP1 SWAP12 AND DUP12 MSTORE JUMP JUMPDEST PUSH1 0x1 PUSH1 0x1 PUSH1 0xA0 SHL SUB AND PUSH1 0x20 DUP11 ADD MSTORE JUMP JUMPDEST PUSH1 0x1 PUSH1 0x1 PUSH1 0xA0 SHL SUB AND PUSH1 0x40 DUP9 ADD MSTORE JUMP JUMPDEST DUP6 ADD MSTORE DUP13 PUSH1 0x80 DUP6 ADD MSTORE DUP13 PUSH1 0xA0 DUP6 ADD MSTORE DUP13 PUSH1 0xC0 DUP6 ADD MSTORE PUSH1 0xE0 DUP5 ADD SWAP1 ISZERO ISZERO SWAP1 MSTORE JUMP JUMPDEST PUSH2 0x1E11 JUMP JUMPDEST SWAP6 PUSH2 0x221D JUMP JUMPDEST PUSH2 0x2515 PUSH2 0x23E8 PUSH2 0x2504 PUSH1 0x80 DUP13 ADD MLOAD PUSH1 0xFF AND SWAP1 JUMP JUMPDEST PUSH1 0xFF AND PUSH0 MSTORE PUSH1 0x3 PUSH1 0x20 MSTORE PUSH1 0x40 PUSH0 KECCAK256 SWAP1 JUMP JUMPDEST PUSH2 0x2438 JUMP JUMPDEST PUSH4 0x4E487B71 PUSH1 0xE0 SHL PUSH0 MSTORE PUSH1 0x11 PUSH1 0x4 MSTORE PUSH1 0x24 PUSH0 REVERT JUMPDEST PUSH0 NOT DUP2 ADD SWAP2 SWAP1 DUP3 GT PUSH2 0x70D JUMPI JUMP JUMPDEST SWAP2 SWAP1 DUP3 SUB SWAP2 DUP3 GT PUSH2 0x70D JUMPI JUMP JUMPDEST SWAP2 SWAP1 DUP3 ADD DUP1 SWAP3 GT PUSH2 0x70D JUMPI JUMP JUMPDEST SWAP1 ISZERO PUSH2 0x1D92 JUMPI SWAP1 JUMP JUMPDEST SWAP2 SWAP1 DUP2 LT ISZERO PUSH2 0x1D92 JUMPI PUSH1 0x5 SHL ADD SWAP1 JUMP JUMPDEST CALLDATALOAD PUSH2 0x3C0 DUP2 PUSH2 0x1FE JUMP JUMPDEST SWAP3 SWAP2 SWAP3 PUSH2 0x2585 DUP5 PUSH2 0x342 JUMP JUMPDEST SWAP1 PUSH2 0x2593 PUSH1 0x40 MLOAD SWAP3 DUP4 PUSH2 0x2F3 JUMP JUMPDEST DUP5 DUP3 MSTORE PUSH1 0x1F NOT PUSH2 0x25A2 DUP7 PUSH2 0x342 JUMP JUMPDEST ADD CALLDATASIZE PUSH1 0x20 DUP5 ADD CALLDATACOPY DUP2 SWAP5 PUSH0 JUMPDEST DUP2 DUP2 LT PUSH2 0x25BB JUMPI POP POP POP POP POP JUMP JUMPDEST DUP1 PUSH2 0x25DD PUSH2 0x25CC PUSH1 0x1 SWAP4 DUP6 DUP10 PUSH2 0x255F JUMP JUMPDEST CALLDATALOAD PUSH2 0x25D6 DUP2 PUSH2 0x1FE JUMP JUMPDEST DUP6 ADDRESS PUSH2 0x366D JUMP JUMPDEST TLOAD PUSH2 0x25E8 DUP3 DUP8 PUSH2 0x1DA7 JUMP JUMPDEST MSTORE ADD PUSH2 0x25AD JUMP JUMPDEST ISZERO PUSH2 0x25F6 JUMPI JUMP JUMPDEST PUSH1 0x40 MLOAD PUSH3 0x461BCD PUSH1 0xE5 SHL DUP2 MSTORE PUSH1 0x20 PUSH1 0x4 DUP3 ADD MSTORE PUSH1 0x1D PUSH1 0x24 DUP3 ADD MSTORE PUSH32 0x496E76616C696420706F696E7465723A206D75737420626520302D3135000000 PUSH1 0x44 DUP3 ADD MSTORE PUSH1 0x64 SWAP1 REVERT JUMPDEST SWAP1 SWAP2 DUP1 PUSH1 0x40 SWAP4 PUSH1 0x20 DUP5 MSTORE DUP2 PUSH1 0x20 DUP6 ADD MSTORE DUP5 DUP5 ADD CALLDATACOPY PUSH0 DUP3 DUP3 ADD DUP5 ADD MSTORE PUSH1 0x1F ADD PUSH1 0x1F NOT AND ADD ADD SWAP1 JUMP JUMPDEST SWAP3 SWAP2 SWAP1 PUSH2 0x266E DUP2 PUSH2 0x342 JUMP JUMPDEST SWAP4 PUSH2 0x267C PUSH1 0x40 MLOAD SWAP6 DUP7 PUSH2 0x2F3 JUMP JUMPDEST PUSH1 0x20 DUP6 DUP4 DUP2 MSTORE ADD SWAP2 PUSH1 0x5 SHL DUP2 ADD SWAP3 DUP4 GT PUSH2 0x20F JUMPI SWAP1 JUMPDEST DUP3 DUP3 LT PUSH2 0x269E JUMPI POP POP POP JUMP JUMPDEST PUSH1 0x20 DUP1 SWAP2 DUP4 CALLDATALOAD PUSH2 0x26AD DUP2 PUSH2 0x1FE JUMP JUMPDEST DUP2 MSTORE ADD SWAP2 ADD SWAP1 PUSH2 0x2692 JUMP JUMPDEST SWAP1 DUP2 PUSH1 0x20 SWAP2 SUB SLT PUSH2 0x20F JUMPI MLOAD SWAP1 JUMP JUMPDEST DUP1 MLOAD PUSH1 0x1 PUSH1 0x1 PUSH1 0xA0 SHL SUB SWAP1 DUP2 AND DUP4 MSTORE PUSH1 0x20 DUP1 DUP4 ADD MLOAD DUP3 AND SWAP1 DUP5 ADD MSTORE PUSH1 0x40 DUP1 DUP4 ADD MLOAD SWAP1 SWAP2 AND SWAP1 DUP4 ADD MSTORE PUSH1 0x60 DUP1 DUP3 ADD MLOAD SWAP1 DUP4 ADD MSTORE PUSH1 0x80 DUP1 DUP3 ADD MLOAD PUSH1 0x1 PUSH1 0x1 PUSH1 0x80 SHL SUB AND SWAP1 DUP4 ADD MSTORE PUSH2 0x21E SWAP2 SWAP1 PUSH1 0xE0 SWAP1 DUP2 SWAP1 PUSH1 0xA0 DUP2 DUP2 ADD MLOAD PUSH1 0x1 PUSH1 0x1 PUSH1 0x80 SHL SUB AND SWAP1 DUP6 ADD MSTORE PUSH1 0xC0 DUP2 DUP2 ADD MLOAD PUSH2 0xFFFF AND SWAP1 DUP6 ADD MSTORE ADD MLOAD ISZERO ISZERO SWAP2 ADD MSTORE JUMP JUMPDEST DUP1 PUSH2 0x2752 PUSH2 0x120 SWAP3 PUSH2 0x3C0 SWAP6 SWAP5 PUSH2 0x26C7 JUMP JUMPDEST DUP2 PUSH2 0x100 DUP3 ADD MSTORE ADD SWAP1 PUSH2 0x1F9F JUMP JUMPDEST DUP1 MLOAD PUSH1 0x20 DUP3 ADD DUP1 MLOAD PUSH1 0x40 DUP5 ADD DUP1 MLOAD PUSH1 0xA0 DUP7 ADD DUP1 MLOAD SWAP1 SWAP9 SWAP7 SWAP5 SWAP6 SWAP3 SWAP5 SWAP4 PUSH1 0x1 PUSH1 0x1 PUSH1 0xA0 SHL SUB SWAP4 DUP5 AND SWAP4 SWAP1 DUP2 AND SWAP3 AND SWAP1 PUSH2 0x2797 SWAP1 PUSH2 0x1D85 JUMP JUMPDEST MLOAD PUSH1 0x1 PUSH1 0x1 PUSH1 0xE8 SHL SUB NOT AND SWAP2 PUSH2 0x27AC SWAP4 PUSH2 0x2C9D JUMP JUMPDEST SWAP6 MLOAD PUSH2 0x27B7 SWAP1 PUSH2 0x1D85 JUMP JUMPDEST MLOAD PUSH1 0x1 PUSH1 0x1 PUSH1 0xE8 SHL SUB NOT AND PUSH2 0x27CB SWAP1 PUSH2 0x2BED JUMP JUMPDEST DUP2 MLOAD SWAP1 SWAP5 SWAP1 PUSH1 0x1 PUSH1 0x1 PUSH1 0xA0 SHL SUB AND SWAP4 MLOAD PUSH1 0x1 PUSH1 0x1 PUSH1 0xA0 SHL SUB AND SWAP3 MLOAD PUSH1 0x1 PUSH1 0x1 PUSH1 0xA0 SHL SUB AND SWAP6 PUSH1 0x60 DUP4 ADD MLOAD PUSH2 0x27FE SWAP1 PUSH2 0x1D85 JUMP JUMPDEST MLOAD PUSH1 0xC0 DUP8 ADD MLOAD PUSH2 0xFFFF AND PUSH1 0x80 SWAP1 SWAP5 ADD MLOAD ISZERO ISZERO SWAP5 PUSH2 0x2819 PUSH2 0x332 JUMP JUMPDEST PUSH1 0x1 PUSH1 0x1 PUSH1 0xA0 SHL SUB SWAP1 SWAP8 AND DUP8 MSTORE PUSH1 0x1 PUSH1 0x1 PUSH1 0xA0 SHL SUB AND PUSH1 0x20 DUP8 ADD MSTORE PUSH1 0x1 PUSH1 0x1 PUSH1 0xA0 SHL SUB SWAP1 SWAP8 AND PUSH1 0x40 DUP7 ADD SWAP1 DUP2 MSTORE SWAP7 PUSH1 0x60 DUP7 ADD MSTORE PUSH1 0x1 PUSH1 0x1 PUSH1 0x80 SHL SUB AND PUSH1 0x80 DUP6 ADD MSTORE PUSH1 0x1 PUSH1 0x1 PUSH1 0x80 SHL SUB AND PUSH1 0xA0 DUP5 ADD MSTORE PUSH2 0xFFFF AND PUSH1 0xC0 DUP4 ADD MSTORE ISZERO ISZERO PUSH1 0xE0 DUP3 ADD MSTORE DUP2 MLOAD PUSH1 0x60 SWAP2 SWAP1 ISZERO ISZERO SWAP4 PUSH1 0x20 SWAP4 PUSH2 0x28CA SWAP6 PUSH2 0x298A JUMPI JUMPDEST DUP1 DUP6 ADD MLOAD PUSH2 0x2908 JUMPI JUMPDEST POP MLOAD PUSH2 0x28AC SWAP1 PUSH2 0x2241 SWAP1 PUSH1 0x1 PUSH1 0x1 PUSH1 0xA0 SHL SUB AND DUP2 JUMP JUMPDEST SWAP1 PUSH0 PUSH1 0x40 MLOAD DUP1 SWAP7 DUP2 SWAP6 DUP3 SWAP5 PUSH4 0x5E3344D PUSH1 0xE4 SHL DUP5 MSTORE PUSH1 0x4 DUP5 ADD PUSH2 0x2740 JUMP JUMPDEST SUB SWAP3 GAS CALL SWAP1 DUP2 ISZERO PUSH2 0xEB4 JUMPI PUSH0 SWAP2 PUSH2 0x28DF JUMPI POP SWAP2 JUMP JUMPDEST PUSH2 0x229B SWAP2 POP PUSH1 0x20 RETURNDATASIZE PUSH1 0x20 GT PUSH2 0x2901 JUMPI JUMPDEST PUSH2 0x28F9 DUP2 DUP4 PUSH2 0x2F3 JUMP JUMPDEST DUP2 ADD SWAP1 PUSH2 0x26B8 JUMP JUMPDEST POP RETURNDATASIZE PUSH2 0x28EF JUMP JUMPDEST PUSH2 0x2241 PUSH2 0x2965 PUSH2 0x28AC SWAP4 SWAP6 DUP4 DUP7 PUSH2 0x2925 PUSH1 0x60 PUSH2 0x2241 SWAP8 ADD MLOAD ISZERO ISZERO SWAP1 JUMP JUMPDEST ISZERO PUSH2 0x296E JUMPI PUSH2 0x23A6 SWAP2 POP PUSH32 0x0 JUMPDEST PUSH2 0x23A1 PUSH1 0x1 PUSH1 0x1 PUSH1 0xA0 SHL SUB DUP3 AND ISZERO ISZERO PUSH2 0x1E67 JUMP JUMPDEST SWAP5 SWAP3 POP POP PUSH2 0x2896 JUMP JUMPDEST PUSH2 0x2985 PUSH2 0x23E8 PUSH2 0x23D7 PUSH1 0xA0 PUSH2 0x23A6 SWAP6 ADD MLOAD PUSH1 0xFF AND SWAP1 JUMP JUMPDEST PUSH2 0x2951 JUMP JUMPDEST SWAP3 POP PUSH2 0x2999 PUSH1 0x40 DUP5 ADD MLOAD ISZERO ISZERO SWAP1 JUMP JUMPDEST ISZERO PUSH2 0x29E1 JUMPI PUSH2 0x29DB PUSH2 0x24E5 DUP4 PUSH32 0x0 JUMPDEST PUSH2 0x23A1 PUSH1 0x1 PUSH1 0x1 PUSH1 0xA0 SHL SUB DUP3 AND ISZERO ISZERO PUSH2 0x1DBB JUMP JUMPDEST SWAP3 PUSH2 0x288D JUMP JUMPDEST PUSH2 0x29DB PUSH2 0x24E5 DUP4 PUSH2 0x29FC PUSH2 0x23E8 PUSH2 0x2504 PUSH1 0x80 DUP10 ADD MLOAD PUSH1 0xFF AND SWAP1 JUMP JUMPDEST PUSH2 0x29C7 JUMP JUMPDEST ISZERO PUSH2 0x2A08 JUMPI JUMP JUMPDEST PUSH1 0x40 MLOAD PUSH3 0x461BCD PUSH1 0xE5 SHL DUP2 MSTORE PUSH1 0x20 PUSH1 0x4 DUP3 ADD MSTORE PUSH1 0x18 PUSH1 0x24 DUP3 ADD MSTORE PUSH32 0x496E76616C6964206C697175696469747920616D6F756E740000000000000000 PUSH1 0x44 DUP3 ADD MSTORE PUSH1 0x64 SWAP1 REVERT JUMPDEST ISZERO PUSH2 0x2A54 JUMPI JUMP JUMPDEST PUSH1 0x40 MLOAD PUSH3 0x461BCD PUSH1 0xE5 SHL DUP2 MSTORE PUSH1 0x20 PUSH1 0x4 DUP3 ADD MSTORE PUSH1 0x14 PUSH1 0x24 DUP3 ADD MSTORE PUSH20 0x139BC81B1A5C5D5A591A5D1E481A5B881C1BDBDB PUSH1 0x62 SHL PUSH1 0x44 DUP3 ADD MSTORE PUSH1 0x64 SWAP1 REVERT JUMPDEST SWAP1 PUSH8 0xDE0B6B3A7640000 DUP3 MUL SWAP2 DUP1 DUP4 DIV PUSH8 0xDE0B6B3A7640000 EQ SWAP1 ISZERO OR ISZERO PUSH2 0x70D JUMPI JUMP JUMPDEST SWAP1 PUSH8 0x120A871CC0020000 DUP3 MUL SWAP2 DUP1 DUP4 DIV PUSH8 0x120A871CC0020000 EQ SWAP1 ISZERO OR ISZERO PUSH2 0x70D JUMPI JUMP JUMPDEST DUP2 DUP2 MUL SWAP3 SWAP2 DUP2 ISZERO SWAP2 DUP5 DIV EQ OR ISZERO PUSH2 0x70D JUMPI JUMP JUMPDEST DUP2 ISZERO PUSH2 0x2AF5 JUMPI DIV SWAP1 JUMP JUMPDEST PUSH4 0x4E487B71 PUSH1 0xE0 SHL PUSH0 MSTORE PUSH1 0x12 PUSH1 0x4 MSTORE PUSH1 0x24 PUSH0 REVERT JUMPDEST PUSH1 0xF SIGNEXTEND PUSH16 0x7FFFFFFFFFFFFFFFFFFFFFFFFFFFFFFF NOT DUP2 EQ PUSH2 0x70D JUMPI PUSH0 SUB SWAP1 JUMP JUMPDEST PUSH1 0x40 MLOAD PUSH1 0x60 SWAP2 SWAP1 PUSH2 0x2B3A DUP4 DUP3 PUSH2 0x2F3 JUMP JUMPDEST PUSH1 0x2 DUP2 MSTORE SWAP2 PUSH1 0x1F NOT ADD CALLDATASIZE PUSH1 0x20 DUP5 ADD CALLDATACOPY JUMP JUMPDEST PUSH1 0x1 PUSH1 0xFF SHL DUP2 EQ PUSH2 0x70D JUMPI PUSH0 SUB SWAP1 JUMP JUMPDEST ISZERO PUSH2 0x2B62 JUMPI JUMP JUMPDEST PUSH1 0x40 MLOAD PUSH3 0x461BCD PUSH1 0xE5 SHL DUP2 MSTORE PUSH1 0x20 PUSH1 0x4 DUP3 ADD MSTORE PUSH1 0x17 PUSH1 0x24 DUP3 ADD MSTORE PUSH32 0x496E76616C696420696E697469616C20616D6F756E7473000000000000000000 PUSH1 0x44 DUP3 ADD MSTORE PUSH1 0x64 SWAP1 REVERT JUMPDEST PUSH1 0x40 MLOAD SWAP1 PUSH1 0xE0 DUP3 ADD DUP3 DUP2 LT PUSH1 0x1 PUSH1 0x1 PUSH1 0x40 SHL SUB DUP3 GT OR PUSH2 0x2EE JUMPI PUSH1 0x40 MSTORE PUSH0 PUSH1 0xC0 DUP4 DUP3 DUP2 MSTORE DUP3 PUSH1 0x20 DUP3 ADD MSTORE DUP3 PUSH1 0x40 DUP3 ADD MSTORE DUP3 PUSH1 0x60 DUP3 ADD MSTORE DUP3 PUSH1 0x80 DUP3 ADD MSTORE DUP3 PUSH1 0xA0 DUP3 ADD MSTORE ADD MSTORE JUMP JUMPDEST PUSH2 0x3C0 PUSH2 0xFFF PUSH2 0x2C91 PUSH2 0x2BFE PUSH2 0x2BA7 JUMP JUMPDEST SWAP4 PUSH1 0xE8 SHR PUSH2 0x2C1E PUSH1 0x1 PUSH2 0x2C17 DUP4 PUSH3 0x7FFFFF SWAP1 PUSH1 0x1 SHR AND SWAP1 JUMP JUMPDEST AND ISZERO ISZERO DUP7 MSTORE JUMP JUMPDEST PUSH1 0x1 DUP2 AND ISZERO ISZERO PUSH1 0x20 DUP7 ADD MSTORE PUSH2 0x2C4E PUSH2 0x2C45 PUSH1 0x1 PUSH1 0x2 DUP5 SWAP1 SHR PUSH3 0x3FFFFF AND JUMPDEST AND PUSH3 0xFFFFFF AND SWAP1 JUMP JUMPDEST ISZERO ISZERO PUSH1 0x40 DUP8 ADD MSTORE JUMP JUMPDEST PUSH2 0x2C6E PUSH2 0x2C65 PUSH1 0x1 PUSH1 0x3 DUP5 SWAP1 SHR PUSH3 0x1FFFFF AND PUSH2 0x2C3C JUMP JUMPDEST ISZERO ISZERO PUSH1 0x60 DUP8 ADD MSTORE JUMP JUMPDEST PUSH1 0xF PUSH1 0x4 DUP3 SWAP1 SHR DUP2 AND PUSH1 0x80 DUP8 ADD MSTORE PUSH1 0x8 DUP3 SWAP1 SHR AND PUSH1 0xA0 DUP7 ADD MSTORE PUSH1 0xC SHR PUSH2 0xFFF AND SWAP1 JUMP JUMPDEST AND PUSH2 0xFFFF AND PUSH1 0xC0 DUP4 ADD MSTORE JUMP JUMPDEST SWAP1 SWAP3 SWAP1 PUSH1 0x1 PUSH1 0x1 PUSH1 0xA0 SHL SUB DUP1 DUP6 AND SWAP1 DUP3 AND LT ISZERO PUSH2 0x2D0F JUMPI SWAP3 SWAP2 JUMPDEST PUSH1 0x40 MLOAD PUSH12 0xFFFFFFFFFFFFFFFFFFFFFFFF NOT PUSH1 0x60 SWAP6 DUP7 SHL DUP2 AND PUSH1 0x20 DUP4 ADD SWAP1 DUP2 MSTORE SWAP5 DUP7 SHL DUP2 AND PUSH1 0x34 DUP4 ADD MSTORE SWAP2 SWAP1 SWAP5 SHL AND PUSH1 0x48 DUP5 ADD MSTORE PUSH1 0x1 PUSH1 0x1 PUSH1 0xE8 SHL SUB NOT AND PUSH1 0x5C DUP4 ADD MSTORE PUSH1 0x3F DUP3 MSTORE SWAP1 PUSH2 0x2D09 PUSH1 0x5F DUP3 PUSH2 0x2F3 JUMP JUMPDEST MLOAD SWAP1 KECCAK256 SWAP1 JUMP JUMPDEST SWAP2 PUSH2 0x2CB7 JUMP JUMPDEST PUSH1 0x20 DUP2 DUP4 SUB SLT PUSH2 0x20F JUMPI DUP1 MLOAD SWAP1 PUSH1 0x1 PUSH1 0x1 PUSH1 0x40 SHL SUB DUP3 GT PUSH2 0x20F JUMPI ADD DUP2 PUSH1 0x1F DUP3 ADD SLT ISZERO PUSH2 0x20F JUMPI DUP1 MLOAD SWAP1 PUSH1 0x1 PUSH1 0x1 PUSH1 0x40 SHL SUB DUP3 GT PUSH2 0x2EE JUMPI PUSH1 0x40 MLOAD SWAP3 PUSH2 0x2D65 PUSH1 0x1F DUP5 ADD PUSH1 0x1F NOT AND PUSH1 0x20 ADD DUP6 PUSH2 0x2F3 JUMP JUMPDEST DUP3 DUP5 MSTORE PUSH1 0x20 DUP4 DUP4 ADD ADD GT PUSH2 0x20F JUMPI DUP2 PUSH0 SWAP3 PUSH1 0x20 DUP1 SWAP4 ADD DUP4 DUP7 ADD MCOPY DUP4 ADD ADD MSTORE SWAP1 JUMP JUMPDEST PUSH2 0x100 DUP2 ADD SWAP3 SWAP2 PUSH2 0x21E SWAP2 SWAP1 PUSH2 0x26C7 JUMP JUMPDEST SWAP1 PUSH1 0x60 SWAP2 DUP1 TLOAD DUP1 ISZERO DUP1 PUSH2 0x2F0B JUMPI JUMPDEST ISZERO PUSH2 0x2EC5 JUMPI JUMPDEST POP DUP3 MLOAD ISZERO SWAP2 DUP3 PUSH2 0x2DF6 JUMPI JUMPDEST POP PUSH1 0x40 MLOAD SWAP2 ISZERO DUP3 MSTORE PUSH1 0x1 PUSH1 0x1 PUSH1 0xA0 SHL SUB AND SWAP1 PUSH32 0xD34145BF6DE6D1B18053AD66A4A1AF093071A5AB67C05B8BFCE98FD95FFB0D89 SWAP1 DUP1 PUSH1 0x20 DUP2 ADD JUMPDEST SUB SWAP1 LOG2 SWAP1 JUMP JUMPDEST PUSH1 0x40 MLOAD PUSH4 0x3BD1104B PUSH1 0xE0 SHL DUP2 MSTORE SWAP4 POP PUSH0 SWAP1 DUP5 SWAP1 DUP2 SWAP1 PUSH2 0x2E18 SWAP1 PUSH1 0x4 DUP4 ADD PUSH2 0x2D86 JUMP JUMPDEST SUB DUP2 DUP4 PUSH1 0x1 PUSH1 0x1 PUSH1 0xA0 SHL SUB DUP7 AND GAS CALL SWAP3 DUP4 ISZERO PUSH2 0xEB4 JUMPI PUSH0 SWAP4 PUSH2 0x2E7B JUMPI JUMPDEST POP PUSH2 0x2DF0 PUSH32 0xD34145BF6DE6D1B18053AD66A4A1AF093071A5AB67C05B8BFCE98FD95FFB0D89 SWAP2 DUP5 DUP1 MLOAD PUSH2 0x2E6B JUMPI JUMPDEST POP SWAP2 POP PUSH2 0x2DB6 JUMP JUMPDEST PUSH2 0x2E75 SWAP1 DUP3 PUSH2 0x3639 JUMP JUMPDEST PUSH0 PUSH2 0x2E63 JUMP JUMPDEST PUSH32 0xD34145BF6DE6D1B18053AD66A4A1AF093071A5AB67C05B8BFCE98FD95FFB0D89 SWAP2 SWAP4 POP PUSH2 0x2EBD PUSH2 0x2DF0 SWAP2 RETURNDATASIZE DUP1 PUSH0 DUP4 RETURNDATACOPY PUSH2 0x2EB5 DUP2 DUP4 PUSH2 0x2F3 JUMP JUMPDEST DUP2 ADD SWAP1 PUSH2 0x2D15 JUMP JUMPDEST SWAP4 SWAP2 POP PUSH2 0x2E35 JUMP JUMPDEST SWAP3 POP PUSH1 0x1F PUSH1 0x40 MLOAD SWAP4 DUP1 DUP6 MSTORE ADD DUP1 PUSH1 0x5 SHR PUSH0 JUMPDEST DUP2 DUP2 LT PUSH2 0x2EF2 JUMPI POP POP PUSH1 0x1F NOT AND DUP4 ADD PUSH1 0x20 ADD PUSH1 0x40 MSTORE PUSH0 PUSH2 0x2DAB JUMP JUMPDEST DUP1 PUSH1 0x1 DUP1 SWAP3 DUP7 ADD ADD TLOAD PUSH1 0x20 DUP3 PUSH1 0x5 SHL DUP10 ADD ADD MSTORE ADD PUSH2 0x2ED7 JUMP JUMPDEST SWAP4 POP PUSH1 0x40 MLOAD SWAP4 PUSH0 DUP6 MSTORE PUSH1 0x20 DUP6 ADD PUSH1 0x40 MSTORE PUSH2 0x2DA5 JUMP JUMPDEST PUSH1 0x40 MLOAD PUSH1 0x20 DUP2 ADD SWAP1 PUSH32 0x626529A6BE7CB2FB96A7ED93849B4EF74C980495DFE61FD514C95DCD9DA51C35 DUP3 MSTORE ADDRESS PUSH1 0x60 SHL PUSH1 0x40 DUP3 ADD MSTORE PUSH1 0x34 DUP2 MSTORE PUSH2 0x2D09 PUSH1 0x54 DUP3 PUSH2 0x2F3 JUMP JUMPDEST DUP1 TLOAD PUSH2 0x20F JUMPI PUSH1 0x1 SWAP1 TSTORE JUMP JUMPDEST PUSH1 0x40 MLOAD PUSH1 0x20 DUP2 ADD SWAP1 PUSH32 0x626529A6BE7CB2FB96A7ED93849B4EF74C980495DFE61FD514C95DCD9DA51C35 DUP3 MSTORE ADDRESS PUSH1 0x60 SHL PUSH1 0x40 DUP3 ADD MSTORE PUSH32 0x88F108D443A200407DF3D92FC06ED196D7B48635560CC21C3B1819792E11C1A7 PUSH1 0x54 DUP3 ADD MSTORE PUSH1 0x54 DUP2 MSTORE PUSH2 0x2D09 PUSH1 0x74 DUP3 PUSH2 0x2F3 JUMP JUMPDEST PUSH1 0x40 MLOAD PUSH1 0x20 DUP2 ADD SWAP1 PUSH32 0x507BA82850C15277B79BAE90C6E97B66228A117B64D05E46B3182D141DF61CE2 DUP3 MSTORE ADDRESS PUSH1 0x60 SHL PUSH1 0x40 DUP3 ADD MSTORE PUSH1 0x34 DUP2 MSTORE PUSH2 0x301B PUSH1 0x54 DUP3 PUSH2 0x2F3 JUMP JUMPDEST MLOAD SWAP1 KECCAK256 TSTORE JUMP JUMPDEST DUP2 MLOAD SWAP2 PUSH0 JUMPDEST DUP4 DUP2 LT PUSH2 0x3033 JUMPI POP POP POP POP JUMP JUMPDEST PUSH1 0x1 SWAP1 PUSH1 0x1 PUSH1 0x1 PUSH1 0xA0 SHL SUB PUSH2 0x3048 DUP3 DUP6 PUSH2 0x1DA7 JUMP JUMPDEST MLOAD AND PUSH2 0x3055 DUP2 DUP7 ADDRESS PUSH2 0x366D JUMP JUMPDEST TLOAD DUP1 PUSH2 0x3064 JUMPI JUMPDEST POP POP ADD PUSH2 0x3026 JUMP JUMPDEST PUSH0 SWAP2 PUSH2 0x3084 SWAP2 DUP4 DUP2 SGT ISZERO PUSH2 0x308C JUMPI PUSH2 0x307D SWAP1 DUP9 DUP4 PUSH2 0x38B8 JUMP JUMPDEST DUP7 ADDRESS PUSH2 0x366D JUMP JUMPDEST TSTORE PUSH0 DUP1 PUSH2 0x305C JUMP JUMPDEST PUSH2 0x3098 PUSH2 0x30AA SWAP2 PUSH2 0x2B4B JUMP JUMPDEST DUP3 ISZERO DUP6 EQ PUSH2 0x30AF JUMPI DUP5 SWAP1 JUMPDEST DUP10 DUP5 PUSH2 0x37DE JUMP JUMPDEST PUSH2 0x307D JUMP JUMPDEST DUP5 SWAP1 PUSH2 0x30A3 JUMP JUMPDEST SWAP1 SWAP2 DUP3 MLOAD SWAP3 PUSH0 JUMPDEST DUP5 DUP2 LT PUSH2 0x30CB JUMPI POP POP POP POP POP JUMP JUMPDEST PUSH1 0x1 SWAP1 PUSH1 0x1 PUSH1 0x1 PUSH1 0xA0 SHL SUB PUSH2 0x30E0 DUP3 DUP6 PUSH2 0x1DA7 JUMP JUMPDEST MLOAD AND PUSH2 0x30ED DUP2 DUP8 ADDRESS PUSH2 0x366D JUMP JUMPDEST TLOAD DUP1 PUSH2 0x30FC JUMPI JUMPDEST POP POP ADD PUSH2 0x30BD JUMP JUMPDEST PUSH0 SWAP2 PUSH2 0x311C SWAP2 DUP4 DUP2 SGT ISZERO PUSH2 0x3124 JUMPI PUSH2 0x3115 SWAP1 DUP10 DUP4 PUSH2 0x38B8 JUMP JUMPDEST DUP8 ADDRESS PUSH2 0x366D JUMP JUMPDEST TSTORE PUSH0 DUP1 PUSH2 0x30F4 JUMP JUMPDEST PUSH2 0x3130 PUSH2 0x3142 SWAP2 PUSH2 0x2B4B JUMP JUMPDEST DUP3 ISZERO DUP6 EQ PUSH2 0x3147 JUMPI DUP9 SWAP1 JUMPDEST DUP11 DUP5 PUSH2 0x37DE JUMP JUMPDEST PUSH2 0x3115 JUMP JUMPDEST DUP5 SWAP1 PUSH2 0x313B JUMP JUMPDEST PUSH0 PUSH1 0x40 MLOAD PUSH1 0x20 DUP2 ADD SWAP1 PUSH32 0x507BA82850C15277B79BAE90C6E97B66228A117B64D05E46B3182D141DF61CE2 DUP3 MSTORE ADDRESS PUSH1 0x60 SHL PUSH1 0x40 DUP3 ADD MSTORE PUSH1 0x34 DUP2 MSTORE PUSH2 0x301B PUSH1 0x54 DUP3 PUSH2 0x2F3 JUMP JUMPDEST PUSH2 0x319D PUSH0 SWAP2 ADDRESS PUSH2 0x36E2 JUMP JUMPDEST TSTORE JUMP JUMPDEST PUSH1 0x40 MLOAD PUSH1 0x20 DUP2 ADD SWAP1 PUSH32 0x507BA82850C15277B79BAE90C6E97B66228A117B64D05E46B3182D141DF61CE2 DUP3 MSTORE ADDRESS PUSH1 0x60 SHL PUSH1 0x40 DUP3 ADD MSTORE PUSH1 0x34 DUP2 MSTORE PUSH2 0x31E3 PUSH1 0x54 DUP3 PUSH2 0x2F3 JUMP JUMPDEST MLOAD SWAP1 KECCAK256 TLOAD SWAP1 JUMP JUMPDEST ISZERO PUSH2 0x31F1 JUMPI JUMP JUMPDEST PUSH1 0x40 MLOAD PUSH3 0x461BCD PUSH1 0xE5 SHL DUP2 MSTORE PUSH1 0x20 PUSH1 0x4 DUP3 ADD MSTORE PUSH1 0x7 PUSH1 0x24 DUP3 ADD MSTORE PUSH7 0x4E6F20686F7073 PUSH1 0xC8 SHL PUSH1 0x44 DUP3 ADD MSTORE PUSH1 0x64 SWAP1 REVERT JUMPDEST SWAP2 SWAP1 DUP2 LT ISZERO PUSH2 0x1D92 JUMPI PUSH1 0x5 SHL DUP2 ADD CALLDATALOAD SWAP1 PUSH1 0xBE NOT DUP2 CALLDATASIZE SUB ADD DUP3 SLT ISZERO PUSH2 0x20F JUMPI ADD SWAP1 JUMP JUMPDEST CALLDATALOAD PUSH2 0x3C0 DUP2 PUSH2 0x3C3 JUMP JUMPDEST SWAP2 SWAP1 SWAP2 PUSH1 0x1 DUP1 PUSH1 0xA0 SHL SUB AND DUP1 PUSH0 MSTORE PUSH1 0x1 PUSH1 0x20 MSTORE PUSH1 0x40 PUSH0 KECCAK256 DUP4 PUSH0 MSTORE PUSH1 0x20 MSTORE PUSH1 0x40 PUSH0 KECCAK256 DUP1 SLOAD SWAP1 DUP4 DUP3 SUB SWAP2 DUP3 GT PUSH2 0x70D JUMPI SSTORE PUSH1 0x40 DUP1 MLOAD CALLER DUP2 MSTORE PUSH1 0x20 DUP2 ADD SWAP4 SWAP1 SWAP4 MSTORE PUSH0 SWAP3 PUSH0 MLOAD PUSH1 0x20 PUSH2 0x426F PUSH0 CODECOPY PUSH0 MLOAD SWAP1 PUSH0 MSTORE SWAP2 DUP2 SWAP1 DUP2 ADD JUMPDEST SUB SWAP1 LOG4 JUMP JUMPDEST SWAP1 PUSH1 0xF SIGNEXTEND SWAP1 PUSH1 0xF SIGNEXTEND ADD SWAP1 PUSH1 0x1 PUSH1 0x1 PUSH1 0x7F SHL SUB NOT DUP3 SLT PUSH1 0x1 PUSH1 0x1 PUSH1 0x7F SHL SUB DUP4 SGT OR PUSH2 0x70D JUMPI JUMP JUMPDEST SWAP1 SWAP2 DUP2 PUSH0 MSTORE PUSH1 0x6 PUSH1 0x20 MSTORE PUSH1 0x1 PUSH1 0x1 PUSH1 0x80 SHL SUB PUSH2 0x32FE PUSH2 0x32F4 PUSH1 0x40 PUSH0 KECCAK256 SLOAD SWAP6 DUP4 DUP8 AND PUSH1 0xF SIGNEXTEND PUSH2 0x32A5 JUMP JUMPDEST SWAP3 DUP6 PUSH1 0x80 SAR PUSH2 0x32A5 JUMP JUMPDEST DUP2 NOT SWAP1 PUSH1 0x80 SHL AND SWAP2 AND OR SWAP2 DUP3 SUB PUSH2 0x3313 JUMPI POP POP JUMP JUMPDEST PUSH0 MSTORE PUSH1 0x6 PUSH1 0x20 MSTORE PUSH1 0x40 PUSH0 KECCAK256 SSTORE JUMP JUMPDEST SWAP1 PUSH2 0x332C SWAP2 ADDRESS PUSH2 0x366D JUMP JUMPDEST SWAP1 DUP2 TLOAD ADD SWAP1 TSTORE JUMP JUMPDEST PUSH1 0x1 PUSH1 0x1 PUSH1 0x80 SHL SUB SWAP3 SWAP4 PUSH0 EQ PUSH2 0x3367 JUMPI POP AND SWAP1 DUP1 DUP3 LT PUSH2 0x3352 JUMPI POP POP JUMP JUMPDEST PUSH4 0x1735867 PUSH1 0xE0 SHL PUSH0 MSTORE PUSH1 0x4 MSTORE PUSH1 0x24 MSTORE PUSH1 0x44 PUSH0 REVERT JUMPDEST SWAP1 POP AND SWAP1 DUP1 DUP3 LT PUSH2 0x3376 JUMPI POP POP JUMP JUMPDEST PUSH4 0x68580A19 PUSH1 0xE0 SHL PUSH0 MSTORE PUSH1 0x4 MSTORE PUSH1 0x24 MSTORE PUSH1 0x44 PUSH0 REVERT JUMPDEST SWAP2 SWAP1 SWAP2 PUSH0 DUP4 DUP3 ADD SWAP4 DUP5 SLT SWAP2 SLT SWAP1 DUP1 ISZERO DUP3 AND SWAP2 ISZERO AND OR PUSH2 0x70D JUMPI JUMP JUMPDEST SWAP1 SWAP3 PUSH2 0x33B3 DUP5 DUP4 ADDRESS PUSH2 0x366D JUMP JUMPDEST TLOAD PUSH2 0x33BF DUP5 DUP5 ADDRESS PUSH2 0x366D JUMP JUMPDEST TLOAD SWAP2 PUSH1 0x1 PUSH1 0x1 PUSH1 0xA0 SHL SUB DUP6 DUP2 AND SWAP3 SWAP1 DUP8 AND DUP1 DUP5 EQ PUSH2 0x3488 JUMPI SWAP2 DUP2 PUSH2 0x3422 SWAP6 SWAP4 PUSH0 PUSH2 0x21E SWAP11 SWAP7 SWAP5 SLT PUSH0 EQ PUSH2 0x3468 JUMPI PUSH2 0x33F8 PUSH2 0x3407 SWAP3 PUSH2 0x2B4B JUMP JUMPDEST SWAP1 PUSH2 0x3461 JUMPI DUP3 SWAP1 JUMPDEST DUP9 DUP8 PUSH2 0x37DE JUMP JUMPDEST PUSH0 DUP4 SGT ISZERO PUSH2 0x3427 JUMPI POP POP PUSH2 0x341C SWAP1 DUP5 DUP7 PUSH2 0x38B8 JUMP JUMPDEST DUP3 PUSH2 0x3929 JUMP JUMPDEST PUSH2 0x3929 JUMP JUMPDEST PUSH0 DUP4 SLT PUSH2 0x3437 JUMPI JUMPDEST POP POP POP PUSH2 0x341C JUMP JUMPDEST PUSH2 0x3443 PUSH2 0x3451 SWAP4 PUSH2 0x2B4B JUMP JUMPDEST SWAP2 PUSH2 0x3459 JUMPI SWAP1 JUMPDEST DUP6 DUP8 PUSH2 0x37DE JUMP JUMPDEST PUSH0 DUP1 DUP1 PUSH2 0x342F JUMP JUMPDEST POP PUSH0 SWAP1 PUSH2 0x344A JUMP JUMPDEST PUSH0 SWAP1 PUSH2 0x3400 JUMP JUMPDEST POP PUSH0 DUP2 SGT PUSH2 0x3477 JUMPI JUMPDEST POP PUSH2 0x3407 JUMP JUMPDEST PUSH2 0x3482 SWAP1 DUP8 DUP7 PUSH2 0x38B8 JUMP JUMPDEST PUSH0 PUSH2 0x3471 JUMP JUMPDEST SWAP3 POP PUSH2 0x21E SWAP7 SWAP6 SWAP4 PUSH2 0x3499 SWAP2 PUSH2 0x338B JUMP JUMPDEST SWAP3 PUSH0 DUP5 SLT ISZERO PUSH2 0x34C5 JUMPI POP PUSH2 0x34AF PUSH2 0x3422 SWAP4 PUSH2 0x2B4B JUMP JUMPDEST SWAP2 PUSH2 0x34BD JUMPI SWAP1 JUMPDEST DUP4 DUP6 PUSH2 0x37DE JUMP JUMPDEST POP PUSH0 SWAP1 PUSH2 0x34B6 JUMP JUMPDEST SWAP3 SWAP2 POP POP DUP3 PUSH0 DUP3 SGT PUSH2 0x34DA JUMPI JUMPDEST POP POP POP PUSH2 0x3929 JUMP JUMPDEST PUSH2 0x34E3 SWAP3 PUSH2 0x38B8 JUMP JUMPDEST PUSH0 DUP1 DUP3 PUSH2 0x34D2 JUMP JUMPDEST PUSH1 0x1 PUSH1 0x1 PUSH1 0x80 SHL SUB PUSH8 0xDE0B6B3A7640000 SWAP2 AND MUL SWAP1 PUSH1 0x1 PUSH1 0x1 PUSH1 0x80 SHL SUB DUP3 AND SWAP2 DUP3 SUB PUSH2 0x70D JUMPI JUMP JUMPDEST SWAP3 SWAP5 SWAP4 SWAP2 SWAP1 SWAP4 DUP3 PUSH0 MSTORE PUSH1 0x5 PUSH1 0x20 MSTORE PUSH1 0x40 PUSH0 KECCAK256 SLOAD ISZERO PUSH0 EQ PUSH2 0x3553 JUMPI POP POP POP PUSH2 0x353A SWAP3 POP PUSH2 0x2549 JUMP JUMPDEST SWAP1 JUMPDEST DUP2 ISZERO PUSH2 0x3544 JUMPI JUMP JUMPDEST PUSH4 0x283EEADF PUSH1 0xE0 SHL PUSH0 MSTORE PUSH1 0x4 PUSH0 REVERT JUMPDEST SWAP1 SWAP3 SWAP2 SWAP4 PUSH8 0xDE0B6B3A7640000 DUP2 MUL SWAP1 DUP1 DUP3 DIV PUSH8 0xDE0B6B3A7640000 EQ SWAP1 ISZERO OR ISZERO PUSH2 0x70D JUMPI DUP2 PUSH2 0x3582 SWAP2 PUSH2 0x2AEB JUMP JUMPDEST DUP3 ADD DUP1 SWAP3 GT PUSH2 0x70D JUMPI PUSH2 0x35C3 PUSH2 0x18EB SWAP4 PUSH1 0x1 PUSH1 0x1 PUSH1 0x80 SHL SUB PUSH2 0x35BC PUSH2 0x35D3 SWAP5 PUSH2 0x18EB PUSH2 0x35B0 PUSH2 0x35DA SWAP12 PUSH2 0x34EB JUMP JUMPDEST PUSH1 0x1 PUSH1 0x1 PUSH1 0x80 SHL SUB AND SWAP1 JUMP JUMPDEST SWAP2 AND PUSH2 0x2549 JUMP JUMPDEST SWAP4 PUSH1 0x5 SWAP1 PUSH0 MSTORE PUSH1 0x20 MSTORE PUSH1 0x40 PUSH0 KECCAK256 SWAP1 JUMP JUMPDEST SLOAD SWAP1 PUSH2 0x2AD8 JUMP JUMPDEST SWAP1 PUSH2 0x353C JUMP JUMPDEST SWAP2 SWAP1 SWAP2 PUSH1 0x1 DUP1 PUSH1 0xA0 SHL SUB AND SWAP1 DUP2 PUSH0 MSTORE PUSH1 0x1 PUSH1 0x20 MSTORE PUSH1 0x40 PUSH0 KECCAK256 DUP4 PUSH0 MSTORE PUSH1 0x20 MSTORE PUSH1 0x40 PUSH0 KECCAK256 DUP1 SLOAD SWAP1 DUP3 DUP3 ADD DUP1 SWAP3 GT PUSH2 0x70D JUMPI SSTORE PUSH1 0x40 DUP1 MLOAD CALLER DUP2 MSTORE PUSH1 0x20 DUP2 ADD SWAP3 SWAP1 SWAP3 MSTORE PUSH0 SWAP2 PUSH0 MLOAD PUSH1 0x20 PUSH2 0x426F PUSH0 CODECOPY PUSH0 MLOAD SWAP1 PUSH0 MSTORE SWAP2 DUP2 SWAP1 DUP2 ADD PUSH2 0x32A0 JUMP JUMPDEST PUSH1 0x1F DUP3 MLOAD DUP1 DUP4 TSTORE ADD PUSH1 0x5 SHR SWAP2 PUSH0 JUMPDEST DUP4 DUP2 LT PUSH2 0x3654 JUMPI POP POP POP POP JUMP JUMPDEST DUP1 PUSH1 0x20 PUSH1 0x1 SWAP3 PUSH1 0x5 SHL DUP5 ADD ADD MLOAD DUP3 DUP3 DUP7 ADD ADD TSTORE ADD PUSH2 0x3647 JUMP JUMPDEST SWAP2 PUSH1 0x40 MLOAD SWAP2 PUSH1 0x20 DUP4 ADD SWAP4 PUSH32 0x71AA94563C1D78D77DF681AD802FC1A81EA7D00CFFE4BBE002400E1D66DE80D2 DUP6 MSTORE PUSH1 0x1 PUSH1 0x1 PUSH1 0x60 SHL SUB NOT SWAP1 PUSH1 0x60 SHL AND PUSH1 0x40 DUP5 ADD MSTORE PUSH1 0x1 PUSH1 0x1 PUSH1 0x60 SHL SUB NOT SWAP1 PUSH1 0x60 SHL AND PUSH1 0x54 DUP4 ADD MSTORE PUSH1 0x1 PUSH1 0x1 PUSH1 0x60 SHL SUB NOT SWAP1 PUSH1 0x60 SHL AND PUSH1 0x68 DUP3 ADD MSTORE PUSH1 0x5C DUP2 MSTORE PUSH2 0x2D09 PUSH1 0x7C DUP3 PUSH2 0x2F3 JUMP JUMPDEST SWAP1 PUSH1 0x40 MLOAD SWAP1 PUSH1 0x20 DUP3 ADD SWAP3 PUSH32 0xE88690B85C82523984F05D1F281684A73AA4D4303BCA19CFE29AA89AE744616A DUP5 MSTORE PUSH1 0x1 PUSH1 0x1 PUSH1 0x60 SHL SUB NOT SWAP1 PUSH1 0x60 SHL AND PUSH1 0x40 DUP4 ADD MSTORE PUSH1 0x1 PUSH1 0x1 PUSH1 0x60 SHL SUB NOT SWAP1 PUSH1 0x60 SHL AND PUSH1 0x54 DUP3 ADD MSTORE PUSH1 0x48 DUP2 MSTORE PUSH2 0x2D09 PUSH1 0x68 DUP3 PUSH2 0x2F3 JUMP JUMPDEST SWAP1 DUP2 PUSH1 0x20 SWAP2 SUB SLT PUSH2 0x20F JUMPI MLOAD PUSH2 0x3C0 DUP2 PUSH2 0x3C3 JUMP JUMPDEST ISZERO PUSH2 0x3760 JUMPI JUMP JUMPDEST PUSH1 0x40 MLOAD PUSH3 0x461BCD PUSH1 0xE5 SHL DUP2 MSTORE PUSH1 0x20 PUSH1 0x4 DUP3 ADD MSTORE PUSH1 0x15 PUSH1 0x24 DUP3 ADD MSTORE PUSH21 0x115490CC8C081D1C985B9CD9995C8819985A5B1959 PUSH1 0x5A SHL PUSH1 0x44 DUP3 ADD MSTORE PUSH1 0x64 SWAP1 REVERT JUMPDEST ISZERO PUSH2 0x37A4 JUMPI JUMP JUMPDEST PUSH1 0x40 MLOAD PUSH3 0x461BCD PUSH1 0xE5 SHL DUP2 MSTORE PUSH1 0x20 PUSH1 0x4 DUP3 ADD MSTORE PUSH1 0x12 PUSH1 0x24 DUP3 ADD MSTORE PUSH18 0x125B98DBDC9C9958DD08115512081CD95B9D PUSH1 0x72 SHL PUSH1 0x44 DUP3 ADD MSTORE PUSH1 0x64 SWAP1 REVERT JUMPDEST PUSH1 0x1 PUSH1 0x1 PUSH1 0xA0 SHL SUB AND SWAP3 SWAP1 DUP4 PUSH2 0x37FA JUMPI POP PUSH2 0x21E SWAP3 POP EQ PUSH2 0x379D JUMP JUMPDEST SWAP2 SWAP1 PUSH2 0x3880 JUMPI PUSH1 0x40 MLOAD PUSH4 0x23B872DD PUSH1 0xE0 SHL DUP2 MSTORE PUSH1 0x1 PUSH1 0x1 PUSH1 0xA0 SHL SUB SWAP1 SWAP3 AND PUSH1 0x4 DUP4 ADD MSTORE ADDRESS PUSH1 0x24 DUP4 ADD MSTORE PUSH1 0x44 DUP3 ADD MSTORE SWAP1 PUSH1 0x20 SWAP1 DUP3 SWAP1 DUP2 PUSH0 DUP2 PUSH1 0x64 DUP2 ADD JUMPDEST SUB SWAP3 GAS CALL DUP1 ISZERO PUSH2 0xEB4 JUMPI PUSH2 0x21E SWAP2 PUSH0 SWAP2 PUSH2 0x3851 JUMPI JUMPDEST POP PUSH2 0x3759 JUMP JUMPDEST PUSH2 0x3873 SWAP2 POP PUSH1 0x20 RETURNDATASIZE PUSH1 0x20 GT PUSH2 0x3879 JUMPI JUMPDEST PUSH2 0x386B DUP2 DUP4 PUSH2 0x2F3 JUMP JUMPDEST DUP2 ADD SWAP1 PUSH2 0x3744 JUMP JUMPDEST PUSH0 PUSH2 0x384B JUMP JUMPDEST POP RETURNDATASIZE PUSH2 0x3861 JUMP JUMPDEST PUSH1 0x40 MLOAD PUSH3 0x461BCD PUSH1 0xE5 SHL DUP2 MSTORE PUSH1 0x20 PUSH1 0x4 DUP3 ADD MSTORE PUSH1 0x10 PUSH1 0x24 DUP3 ADD MSTORE PUSH16 0x115512081B9BDD08195E1C1958DD1959 PUSH1 0x82 SHL PUSH1 0x44 DUP3 ADD MSTORE PUSH1 0x64 SWAP1 REVERT JUMPDEST PUSH1 0x1 PUSH1 0x1 PUSH1 0xA0 SHL SUB AND DUP1 PUSH2 0x38F2 JUMPI POP PUSH0 DUP1 DUP1 SWAP4 DUP2 SWAP4 DUP3 SWAP1 DUP3 ISZERO PUSH2 0x38E8 JUMPI JUMPDEST PUSH1 0x1 PUSH1 0x1 PUSH1 0xA0 SHL SUB AND SWAP1 CALL ISZERO PUSH2 0xEB4 JUMPI JUMP JUMPDEST PUSH2 0x8FC SWAP2 POP PUSH2 0x38D6 JUMP JUMPDEST PUSH1 0x40 MLOAD PUSH4 0xA9059CBB PUSH1 0xE0 SHL DUP2 MSTORE PUSH1 0x1 PUSH1 0x1 PUSH1 0xA0 SHL SUB SWAP1 SWAP3 AND PUSH1 0x4 DUP4 ADD MSTORE PUSH1 0x24 DUP3 ADD SWAP3 SWAP1 SWAP3 MSTORE SWAP1 PUSH1 0x20 SWAP1 DUP3 SWAP1 DUP2 PUSH0 DUP2 PUSH1 0x44 DUP2 ADD PUSH2 0x3836 JUMP JUMPDEST PUSH0 SWAP2 PUSH2 0x319D SWAP2 ADDRESS PUSH2 0x366D JUMP JUMPDEST SWAP1 CALLDATALOAD SWAP1 PUSH1 0x1E NOT DUP2 CALLDATASIZE SUB ADD DUP3 SLT ISZERO PUSH2 0x20F JUMPI ADD DUP1 CALLDATALOAD SWAP1 PUSH1 0x1 PUSH1 0x1 PUSH1 0x40 SHL SUB DUP3 GT PUSH2 0x20F JUMPI PUSH1 0x20 ADD SWAP2 DUP2 PUSH1 0x5 SHL CALLDATASIZE SUB DUP4 SGT PUSH2 0x20F JUMPI JUMP JUMPDEST ISZERO PUSH2 0x3971 JUMPI JUMP JUMPDEST PUSH1 0x40 MLOAD PUSH3 0x461BCD PUSH1 0xE5 SHL DUP2 MSTORE PUSH1 0x20 PUSH1 0x4 DUP3 ADD MSTORE PUSH1 0x11 PUSH1 0x24 DUP3 ADD MSTORE PUSH17 0x4D69736D61746368656420617272617973 PUSH1 0x78 SHL PUSH1 0x44 DUP3 ADD MSTORE PUSH1 0x64 SWAP1 REVERT JUMPDEST CALLDATALOAD PUSH2 0x3C0 DUP2 PUSH2 0x3D8 JUMP JUMPDEST SWAP6 SWAP5 SWAP4 SWAP3 SWAP2 POP PUSH1 0x60 DUP7 ADD PUSH2 0x39C8 DUP2 DUP9 PUSH2 0x3935 JUMP JUMPDEST SWAP1 POP ISZERO PUSH2 0x3A6A JUMPI PUSH2 0x39F4 PUSH2 0x39DF PUSH1 0x80 DUP10 ADD DUP10 PUSH2 0x3935 JUMP JUMPDEST SWAP1 POP PUSH2 0x39EB DUP4 DUP11 PUSH2 0x3935 JUMP JUMPDEST SWAP2 SWAP1 POP EQ PUSH2 0x396A JUMP JUMPDEST PUSH1 0x1 PUSH2 0x3A00 DUP3 DUP10 PUSH2 0x3935 JUMP JUMPDEST SWAP1 POP EQ PUSH0 EQ PUSH2 0x3A5E JUMPI DUP7 PUSH2 0x3A16 PUSH2 0x3C0 SWAP9 PUSH2 0x256F JUMP JUMPDEST SWAP2 PUSH2 0x3A23 PUSH1 0x20 DUP4 ADD PUSH2 0x256F JUMP JUMPDEST PUSH2 0x3A56 PUSH1 0xA0 PUSH2 0x3A4F PUSH2 0x3A4A PUSH2 0x3A44 PUSH2 0x3A3D PUSH1 0x40 DUP10 ADD PUSH2 0x256F JUMP JUMPDEST SWAP7 DUP9 PUSH2 0x3935 JUMP JUMPDEST SWAP1 PUSH2 0x2556 JUMP JUMPDEST PUSH2 0x39AA JUMP JUMPDEST SWAP5 ADD PUSH2 0x3242 JUMP JUMPDEST SWAP4 PUSH1 0x5 PUSH2 0x3F73 JUMP JUMPDEST POP PUSH2 0x3C0 SWAP6 PUSH1 0x5 PUSH2 0x3BBF JUMP JUMPDEST PUSH1 0x40 MLOAD PUSH3 0x461BCD PUSH1 0xE5 SHL DUP2 MSTORE PUSH1 0x20 PUSH1 0x4 DUP3 ADD MSTORE PUSH1 0xB PUSH1 0x24 DUP3 ADD MSTORE PUSH11 0x4E6F206D61726B696E6773 PUSH1 0xA8 SHL PUSH1 0x44 DUP3 ADD MSTORE PUSH1 0x64 SWAP1 REVERT JUMPDEST SWAP2 SWAP1 SWAP2 PUSH1 0x40 DUP2 DUP5 SUB SLT PUSH2 0x20F JUMPI DUP1 MLOAD PUSH1 0x1 PUSH1 0x1 PUSH1 0x40 SHL SUB DUP2 GT PUSH2 0x20F JUMPI DUP4 PUSH2 0x3AC6 SWAP2 DUP4 ADD PUSH2 0x1EAA JUMP JUMPDEST SWAP3 PUSH1 0x20 DUP3 ADD MLOAD PUSH1 0x1 PUSH1 0x1 PUSH1 0x40 SHL SUB DUP2 GT PUSH2 0x20F JUMPI PUSH2 0x3C0 SWAP3 ADD PUSH2 0x1EAA JUMP JUMPDEST SWAP1 PUSH1 0x20 DUP1 DUP4 MLOAD SWAP3 DUP4 DUP2 MSTORE ADD SWAP3 ADD SWAP1 PUSH0 JUMPDEST DUP2 DUP2 LT PUSH2 0x3B01 JUMPI POP POP POP SWAP1 JUMP JUMPDEST DUP3 MLOAD PUSH1 0x1 PUSH1 0x1 PUSH1 0xE8 SHL SUB NOT AND DUP5 MSTORE PUSH1 0x20 SWAP4 DUP5 ADD SWAP4 SWAP1 SWAP3 ADD SWAP2 PUSH1 0x1 ADD PUSH2 0x3AF4 JUMP JUMPDEST DUP1 MLOAD PUSH1 0x1 PUSH1 0x1 PUSH1 0xA0 SHL SUB SWAP1 DUP2 AND DUP4 MSTORE PUSH1 0x20 DUP1 DUP4 ADD MLOAD DUP3 AND SWAP1 DUP5 ADD MSTORE PUSH1 0x40 DUP1 DUP4 ADD MLOAD SWAP1 SWAP2 AND SWAP1 DUP4 ADD MSTORE PUSH1 0x60 DUP1 DUP3 ADD MLOAD PUSH1 0xC0 SWAP2 DUP5 ADD DUP3 SWAP1 MSTORE PUSH2 0x3C0 SWAP4 SWAP2 PUSH1 0xA0 SWAP2 PUSH2 0x3B6B SWAP2 DUP5 ADD SWAP1 PUSH2 0x5CD JUMP JUMPDEST SWAP3 PUSH1 0x80 DUP2 ADD MLOAD ISZERO ISZERO PUSH1 0x80 DUP5 ADD MSTORE ADD MLOAD SWAP1 PUSH1 0xA0 DUP2 DUP5 SUB SWAP2 ADD MSTORE PUSH2 0x3AE4 JUMP JUMPDEST SWAP2 PUSH2 0x3BB1 SWAP1 PUSH2 0x3BA3 PUSH2 0x3C0 SWAP6 SWAP4 PUSH1 0x60 DUP7 MSTORE PUSH1 0x60 DUP7 ADD SWAP1 PUSH2 0x3B21 JUMP JUMPDEST SWAP1 DUP5 DUP3 SUB PUSH1 0x20 DUP7 ADD MSTORE PUSH2 0x1F2C JUMP JUMPDEST SWAP2 PUSH1 0x40 DUP2 DUP5 SUB SWAP2 ADD MSTORE PUSH2 0x1F2C JUMP JUMPDEST SWAP7 SWAP5 SWAP6 SWAP1 SWAP3 SWAP4 SWAP2 SWAP7 PUSH1 0x60 DUP5 ADD SWAP8 PUSH2 0x3BD6 DUP10 DUP7 PUSH2 0x3935 JUMP JUMPDEST SWAP7 SWAP1 POP PUSH2 0x3F30 JUMPI JUMPDEST POP PUSH2 0x3BE8 DUP6 PUSH2 0x1D3F JUMP JUMPDEST SWAP2 PUSH2 0x3BF2 DUP7 PUSH2 0x1D3F JUMP JUMPDEST SWAP1 PUSH0 JUMPDEST DUP8 DUP2 LT PUSH2 0x3E9A JUMPI POP DUP2 PUSH0 SWAP2 DUP6 DUP4 DUP10 PUSH2 0x3CB9 PUSH2 0x3CDB SWAP14 SWAP15 SWAP16 PUSH2 0x3C8D PUSH2 0x3CB2 PUSH2 0x3C1B DUP6 PUSH2 0x256F JUMP JUMPDEST SWAP5 PUSH2 0x3CA4 PUSH2 0x3C2B PUSH1 0x20 DUP4 ADD PUSH2 0x256F JUMP JUMPDEST SWAP5 PUSH2 0x3C60 PUSH2 0x3C9D PUSH2 0x3C3E PUSH1 0x40 DUP7 ADD PUSH2 0x256F JUMP JUMPDEST PUSH2 0x3C4B PUSH1 0x80 DUP8 ADD DUP8 PUSH2 0x3935 JUMP JUMPDEST SWAP4 SWAP1 SWAP5 PUSH2 0x3C5A PUSH1 0xA0 DUP10 ADD PUSH2 0x3242 JUMP JUMPDEST SWAP8 PUSH2 0x3935 JUMP JUMPDEST SWAP9 SWAP1 SWAP10 PUSH2 0x3C7D PUSH2 0x3C6E PUSH2 0x314 JUMP JUMPDEST PUSH1 0x1 PUSH1 0x1 PUSH1 0xA0 SHL SUB SWAP1 SWAP15 AND DUP15 MSTORE JUMP JUMPDEST PUSH1 0x1 PUSH1 0x1 PUSH1 0xA0 SHL SUB AND PUSH1 0x20 DUP14 ADD MSTORE JUMP JUMPDEST PUSH1 0x1 PUSH1 0x1 PUSH1 0xA0 SHL SUB AND PUSH1 0x40 DUP12 ADD MSTORE JUMP JUMPDEST CALLDATASIZE SWAP2 PUSH2 0x359 JUMP JUMPDEST PUSH1 0x60 DUP8 ADD MSTORE ISZERO ISZERO PUSH1 0x80 DUP7 ADD MSTORE JUMP JUMPDEST CALLDATASIZE SWAP2 PUSH2 0x3EA JUMP JUMPDEST PUSH1 0xA0 DUP3 ADD MSTORE PUSH1 0x40 MLOAD PUSH4 0x27B8F7B PUSH1 0xE1 SHL DUP2 MSTORE SWAP13 DUP14 SWAP6 DUP7 SWAP5 DUP6 SWAP4 PUSH1 0x4 DUP6 ADD PUSH2 0x3B88 JUMP JUMPDEST SUB SWAP3 PUSH1 0x1 PUSH1 0x1 PUSH1 0xA0 SHL SUB AND GAS CALL SWAP1 DUP2 ISZERO PUSH2 0xEB4 JUMPI PUSH0 SWAP8 PUSH0 SWAP3 PUSH2 0x3E73 JUMPI JUMPDEST POP PUSH0 JUMPDEST DUP8 DUP2 LT PUSH2 0x3D77 JUMPI POP POP POP POP POP SWAP1 PUSH2 0x3D24 SWAP5 SWAP6 PUSH2 0x3D1E SWAP4 SWAP3 PUSH2 0x3D28 JUMPI JUMPDEST POP POP PUSH2 0x252E JUMP JUMPDEST SWAP1 PUSH2 0x1DA7 JUMP JUMPDEST MLOAD SWAP1 JUMP JUMPDEST DUP2 PUSH2 0x3D38 PUSH1 0xA0 PUSH2 0x3D62 SWAP5 ADD PUSH2 0x3242 JUMP JUMPDEST ISZERO PUSH2 0x3D69 JUMPI PUSH1 0x20 PUSH2 0x3D49 SWAP2 ADD PUSH2 0x256F JUMP JUMPDEST PUSH2 0x3D5B PUSH2 0x3D55 DUP6 PUSH2 0x252E JUMP JUMPDEST DUP8 PUSH2 0x1DA7 JUMP JUMPDEST MLOAD SWAP2 PUSH2 0x3321 JUMP JUMPDEST PUSH0 DUP1 PUSH2 0x3D17 JUMP JUMPDEST PUSH2 0x3D72 SWAP1 PUSH2 0x256F JUMP JUMPDEST PUSH2 0x3D49 JUMP JUMPDEST DUP1 PUSH2 0x3E39 DUP11 DUP10 PUSH2 0x3DA1 DUP5 PUSH2 0x3D9A PUSH1 0x1 SWAP8 PUSH2 0x3D94 PUSH1 0x80 DUP7 ADD DUP7 PUSH2 0x3935 JUMP JUMPDEST SWAP1 PUSH2 0x255F JUMP JUMPDEST CALLDATALOAD SWAP4 PUSH2 0x1DA7 JUMP JUMPDEST MLOAD PUSH2 0x3DDF PUSH2 0x3DBF PUSH2 0x3DB2 DUP8 DUP14 PUSH2 0x1DA7 JUMP JUMPDEST MLOAD PUSH1 0x1 PUSH1 0x1 PUSH1 0x80 SHL SUB AND SWAP1 JUMP JUMPDEST DUP3 PUSH2 0x3DCD PUSH2 0x3DB2 DUP10 DUP13 PUSH2 0x1DA7 JUMP JUMPDEST PUSH2 0x3DD9 PUSH1 0xA0 DUP8 ADD PUSH2 0x3242 JUMP JUMPDEST SWAP3 PUSH2 0x3334 JUMP JUMPDEST PUSH2 0x3DE9 DUP6 DUP10 PUSH2 0x1DA7 JUMP JUMPDEST MLOAD SWAP3 PUSH2 0x3DF7 PUSH1 0xA0 DUP5 ADD PUSH2 0x3242 JUMP JUMPDEST ISZERO PUSH2 0x3E53 JUMPI PUSH2 0x3E16 PUSH1 0xA0 PUSH1 0x1 PUSH1 0x1 PUSH1 0x80 SHL SUB DUP4 AND PUSH1 0xF SIGNEXTEND SWAP5 JUMPDEST ADD PUSH2 0x3242 JUMP JUMPDEST ISZERO PUSH2 0x3E3F JUMPI POP PUSH1 0x1 PUSH1 0x1 PUSH1 0x80 SHL SUB PUSH2 0x3E31 SWAP2 AND PUSH1 0xF SIGNEXTEND PUSH2 0x2B09 JUMP JUMPDEST SWAP2 JUMPDEST DUP9 PUSH2 0x4097 JUMP JUMPDEST ADD PUSH2 0x3CFB JUMP JUMPDEST PUSH1 0x1 PUSH1 0x1 PUSH1 0x80 SHL SUB SWAP2 POP AND PUSH1 0xF SIGNEXTEND SWAP2 PUSH2 0x3E33 JUMP JUMPDEST PUSH2 0x3E16 PUSH1 0xA0 PUSH2 0x3E6D PUSH1 0x1 PUSH1 0x1 PUSH1 0x80 SHL SUB DUP6 AND PUSH1 0xF SIGNEXTEND PUSH2 0x2B09 JUMP JUMPDEST SWAP5 PUSH2 0x3E10 JUMP JUMPDEST SWAP1 SWAP8 POP PUSH2 0x3E92 SWAP2 POP RETURNDATASIZE DUP1 PUSH0 DUP4 RETURNDATACOPY PUSH2 0x3E8A DUP2 DUP4 PUSH2 0x2F3 JUMP JUMPDEST DUP2 ADD SWAP1 PUSH2 0x3A9D JUMP JUMPDEST SWAP1 SWAP7 PUSH0 PUSH2 0x3CF8 JUMP JUMPDEST PUSH1 0x1 SWAP1 PUSH2 0x3F2A PUSH2 0x3F20 PUSH2 0x3F05 PUSH2 0x3EE4 DUP16 DUP13 PUSH2 0x3EB4 DUP2 PUSH2 0x256F JUMP JUMPDEST SWAP2 PUSH2 0x3EDE PUSH2 0x3A4A DUP10 PUSH2 0x3D94 PUSH2 0x3ECB PUSH1 0x20 DUP8 ADD PUSH2 0x256F JUMP JUMPDEST SWAP5 PUSH2 0x3ED8 PUSH1 0x40 DUP9 ADD PUSH2 0x256F JUMP JUMPDEST SWAP7 PUSH2 0x3935 JUMP JUMPDEST SWAP3 PUSH2 0x2C9D JUMP JUMPDEST DUP9 PUSH1 0x1 SWAP2 PUSH0 MSTORE ADD PUSH1 0x20 MSTORE PUSH1 0x40 PUSH0 KECCAK256 SLOAD SWAP1 PUSH1 0x1 PUSH1 0x1 PUSH1 0x80 SHL SUB DUP3 AND SWAP2 PUSH1 0x80 SHR SWAP1 JUMP JUMPDEST PUSH2 0x3F12 DUP6 DUP10 SWAP5 SWAP4 SWAP5 PUSH2 0x1DA7 JUMP JUMPDEST SWAP1 PUSH1 0x1 PUSH1 0x1 PUSH1 0x80 SHL SUB AND SWAP1 MSTORE JUMP JUMPDEST PUSH2 0x3F12 DUP4 DUP10 PUSH2 0x1DA7 JUMP JUMPDEST ADD PUSH2 0x3BF5 JUMP JUMPDEST PUSH2 0x3F5E SWAP1 PUSH2 0x3F40 PUSH1 0xA0 DUP8 ADD PUSH2 0x3242 JUMP JUMPDEST ISZERO PUSH2 0x3F64 JUMPI PUSH2 0x3F57 PUSH2 0x3F51 DUP8 PUSH2 0x256F JUMP JUMPDEST SWAP2 PUSH2 0x2B4B JUMP JUMPDEST SWAP1 DUP10 PUSH2 0x3321 JUMP JUMPDEST PUSH0 PUSH2 0x3BDE JUMP JUMPDEST PUSH2 0x3F57 PUSH2 0x3F51 PUSH1 0x20 DUP9 ADD PUSH2 0x256F JUMP JUMPDEST SWAP2 DUP6 DUP1 SWAP13 SWAP12 DUP3 SWAP9 SWAP4 SWAP8 SWAP12 SWAP10 SWAP6 SWAP11 SWAP7 SWAP11 PUSH2 0x3F8E DUP13 DUP3 DUP7 DUP13 PUSH2 0x2C9D JUMP JUMPDEST SWAP7 PUSH2 0x406E JUMPI JUMPDEST DUP9 DUP6 PUSH2 0x3FBB DUP10 DUP10 PUSH1 0x1 SWAP2 PUSH0 MSTORE ADD PUSH1 0x20 MSTORE PUSH1 0x40 PUSH0 KECCAK256 SLOAD SWAP1 PUSH1 0x1 PUSH1 0x1 PUSH1 0x80 SHL SUB DUP3 AND SWAP2 PUSH1 0x80 SHR SWAP1 JUMP JUMPDEST SWAP15 DUP16 SWAP5 DUP3 SWAP9 PUSH2 0x3FCB SWAP9 SWAP4 SWAP6 PUSH2 0x4135 JUMP JUMPDEST SWAP12 DUP13 DUP1 SWAP11 PUSH2 0x3FD8 SWAP4 PUSH2 0x3334 JUMP JUMPDEST PUSH2 0x4013 SWAP3 DUP10 ISZERO PUSH2 0x4053 JUMPI PUSH1 0x1 PUSH1 0x1 PUSH1 0x80 SHL SUB DUP3 AND PUSH1 0xF SIGNEXTEND SWAP2 JUMPDEST DUP11 ISZERO PUSH2 0x4041 JUMPI POP PUSH2 0x400D PUSH1 0x1 PUSH1 0x1 PUSH1 0x80 SHL SUB DUP11 AND PUSH1 0xF SIGNEXTEND PUSH2 0x2B09 JUMP JUMPDEST SWAP3 PUSH2 0x4097 JUMP JUMPDEST PUSH2 0x401F JUMPI JUMPDEST POP POP POP POP POP JUMP JUMPDEST PUSH2 0x402F SWAP5 ISZERO PUSH2 0x4039 JUMPI POP SWAP1 PUSH2 0x3321 JUMP JUMPDEST PUSH0 DUP3 DUP2 DUP1 DUP1 PUSH2 0x4018 JUMP JUMPDEST SWAP1 POP SWAP1 PUSH2 0x3321 JUMP JUMPDEST PUSH1 0x1 PUSH1 0x1 PUSH1 0x80 SHL SUB AND PUSH1 0xF SIGNEXTEND SWAP3 PUSH2 0x4097 JUMP JUMPDEST PUSH2 0x4068 PUSH1 0x1 PUSH1 0x1 PUSH1 0x80 SHL SUB DUP11 AND PUSH1 0xF SIGNEXTEND PUSH2 0x2B09 JUMP JUMPDEST SWAP2 PUSH2 0x3FF1 JUMP JUMPDEST DUP3 ISZERO PUSH2 0x408E JUMPI PUSH2 0x4089 DUP10 JUMPDEST PUSH2 0x4082 DUP8 PUSH2 0x2B4B JUMP JUMPDEST SWAP1 DUP14 PUSH2 0x3321 JUMP JUMPDEST PUSH2 0x3F94 JUMP JUMPDEST PUSH2 0x4089 DUP5 PUSH2 0x4079 JUMP JUMPDEST PUSH1 0x1 SWAP1 SWAP4 SWAP3 SWAP4 ADD SWAP2 DUP2 PUSH0 MSTORE DUP3 PUSH1 0x20 MSTORE PUSH1 0x1 PUSH1 0x1 PUSH1 0x80 SHL SUB PUSH2 0x40CF PUSH2 0x40C5 PUSH1 0x40 PUSH0 KECCAK256 SLOAD SWAP7 DUP4 DUP9 AND PUSH1 0xF SIGNEXTEND PUSH2 0x32A5 JUMP JUMPDEST SWAP3 DUP7 PUSH1 0x80 SAR PUSH2 0x32A5 JUMP JUMPDEST DUP2 NOT SWAP1 PUSH1 0x80 SHL AND SWAP2 AND OR SWAP3 DUP4 SUB PUSH2 0x40E5 JUMPI POP POP POP JUMP JUMPDEST PUSH0 MSTORE PUSH1 0x20 MSTORE PUSH1 0x40 PUSH0 KECCAK256 SSTORE JUMP JUMPDEST SWAP2 SWAP1 DUP3 PUSH1 0x40 SWAP2 SUB SLT PUSH2 0x20F JUMPI PUSH1 0x20 DUP3 MLOAD SWAP3 ADD MLOAD SWAP1 JUMP JUMPDEST SWAP2 SWAP4 SWAP3 PUSH1 0x1 PUSH1 0x1 PUSH1 0x80 SHL SUB SWAP1 DUP2 PUSH2 0x4128 PUSH1 0x40 SWAP5 PUSH1 0x60 DUP8 MSTORE PUSH1 0x60 DUP8 ADD SWAP1 PUSH2 0x3B21 JUMP JUMPDEST SWAP7 AND PUSH1 0x20 DUP6 ADD MSTORE AND SWAP2 ADD MSTORE JUMP JUMPDEST PUSH2 0x41D9 SWAP9 SWAP4 PUSH0 SWAP3 PUSH2 0x41AB PUSH1 0x40 SWAP9 SWAP11 SWAP8 SWAP10 SWAP6 PUSH2 0x419C PUSH2 0x4151 PUSH2 0x1D1D JUMP JUMPDEST SWAP4 DUP14 PUSH2 0x415C DUP7 PUSH2 0x1D85 JUMP JUMPDEST MSTORE PUSH2 0x4172 PUSH2 0x4168 PUSH2 0x1D1D JUMP JUMPDEST SWAP7 PUSH2 0x1A67 DUP9 PUSH2 0x1D85 JUMP JUMPDEST PUSH2 0x418C PUSH2 0x417D PUSH2 0x314 JUMP JUMPDEST PUSH1 0x1 PUSH1 0x1 PUSH1 0xA0 SHL SUB SWAP1 SWAP9 AND DUP9 MSTORE JUMP JUMPDEST PUSH1 0x1 PUSH1 0x1 PUSH1 0xA0 SHL SUB AND PUSH1 0x20 DUP8 ADD MSTORE JUMP JUMPDEST PUSH1 0x1 PUSH1 0x1 PUSH1 0xA0 SHL SUB AND DUP5 DUP11 ADD MSTORE JUMP JUMPDEST PUSH1 0x60 DUP4 ADD MSTORE DUP8 ISZERO ISZERO PUSH1 0x80 DUP4 ADD MSTORE PUSH1 0xA0 DUP3 ADD MSTORE DUP6 MLOAD PUSH4 0x60A80DBB PUSH1 0xE0 SHL DUP2 MSTORE SWAP9 DUP10 SWAP6 DUP7 SWAP5 DUP6 SWAP4 PUSH1 0x4 DUP6 ADD PUSH2 0x4107 JUMP JUMPDEST SUB SWAP3 PUSH1 0x1 PUSH1 0x1 PUSH1 0xA0 SHL SUB AND GAS CALL SWAP3 DUP4 ISZERO PUSH2 0xEB4 JUMPI PUSH0 SWAP4 PUSH2 0x423C JUMPI JUMPDEST POP DUP3 ISZERO PUSH2 0x4200 JUMPI POP POP SWAP1 JUMP JUMPDEST SWAP1 SWAP2 POP ISZERO PUSH2 0x4222 JUMPI PUSH2 0x4214 PUSH2 0x3C0 SWAP2 PUSH2 0x2AB4 JUMP JUMPDEST PUSH8 0xDE0B6B3A7640000 SWAP1 DIV SWAP1 JUMP JUMPDEST PUSH2 0x422E PUSH2 0x3C0 SWAP2 PUSH2 0x2A90 JUMP JUMPDEST PUSH8 0x120A871CC0020000 SWAP1 DIV SWAP1 JUMP JUMPDEST PUSH2 0x425F SWAP2 SWAP4 POP PUSH1 0x40 RETURNDATASIZE PUSH1 0x40 GT PUSH2 0x4267 JUMPI JUMPDEST PUSH2 0x4257 DUP2 DUP4 PUSH2 0x2F3 JUMP JUMPDEST DUP2 ADD SWAP1 PUSH2 0x40F1 JUMP JUMPDEST POP SWAP2 PUSH0 PUSH2 0x41F4 JUMP JUMPDEST POP RETURNDATASIZE PUSH2 0x424D JUMP INVALID SHL RETURNDATASIZE PUSH31 0xDB2E9C0B0E7C525B20AAAEF0F5940D2ED71663C7D39266ECAFAC728859A264 PUSH10 0x706673582212206AA1DD TLOAD SWAP12 DUP11 TIMESTAMP 0x2F PUSH17 0x2CB7599BB3C0B2BBF13EFF03E052C84E1 PUSH17 0x51F9C8488064736F6C634300081E003300 "},"methodIdentifiers":{"addAlphaMarketAddress(uint8,address)":"460c6df8","addBetaMarketAddress(uint8,address)":"7dc27c95","addLiquidity(address,address,address,bytes3,uint256,uint256)":"e513315b","allowance(address,address,uint256)":"598af9e7","approve(address,uint256,uint256)":"426a8493","balanceOf(address,uint256)":"00fdd58e","batchSwap((address,address,address,bytes3[],uint256[],bool)[],uint256,uint256)":"9d2ec6e4","createPool(address,address,address,bytes3)":"5670f55a","defaultAlpha()":"a1a44dad","defaultBeta()":"19920a5f","flashSession(address,bytes,address[])":"5dfb78af","flashSessionWithReturn(address,bytes,address[])":"ea157acf","getAlphaMarketAddress(uint8)":"d2615fc8","getBetaMarketAddress(uint8)":"83e66c2e","getInventory(uint256)":"5b298d32","getPoolInfo(uint256)":"2f380b35","getQuote((address,address,address,uint256[],bool,bytes3[]),uint128,uint128)":"60a80dbb","getQuoteBatch((address,address,address,uint256[],bool,bytes3[]),uint128[],uint128[])":"04f71ef6","getUserDeltas(address,address[])":"314e2321","isOperator(address,address)":"b6363cf2","removeAlphaMarketAddress(uint8)":"8e832e08","removeBetaMarketAddress(uint8)":"61408f26","removeLiquidity(address,address,address,bytes3,uint256)":"cb1f2f38","routerGetQuote((address,address,address,uint256[],bool,bytes3[]),uint128,uint128)":"8f155291","routerGetQuoteBatch((address,address,address,uint256[],bool,bytes3[]),uint128[],uint128[])":"c279171d","setOperator(address,bool)":"558a7297","supportsInterface(bytes4)":"01ffc9a7","swap(address,address,address,bytes3,uint256,bool,uint256)":"d92bc84c","totalLiquidity(uint256)":"b5e60c3c","transfer(address,uint256,uint256)":"095bcdb6","transferFrom(address,address,uint256,uint256)":"fe99049a"}}}}}