{"contracts/Peripheral/DataBridges/real/UniswapV2DataBridge.sol":{"UniswapV2DataBridge":{"abi":[{"inputs":[{"internalType":"address","name":"_factory","type":"address"},{"internalType":"address","name":"_ext0","type":"address"},{"internalType":"address","name":"_ext1","type":"address"},{"internalType":"address","name":"_alias0","type":"address"},{"internalType":"address","name":"_alias1","type":"address"}],"stateMutability":"nonpayable","type":"constructor"},{"inputs":[],"name":"canonicalExt0","outputs":[{"internalType":"address","name":"","type":"address"}],"stateMutability":"view","type":"function"},{"inputs":[],"name":"canonicalExt1","outputs":[{"internalType":"address","name":"","type":"address"}],"stateMutability":"view","type":"function"},{"inputs":[],"name":"factory","outputs":[{"internalType":"address","name":"","type":"address"}],"stateMutability":"view","type":"function"},{"inputs":[{"components":[{"internalType":"address","name":"asset0","type":"address"},{"internalType":"address","name":"asset1","type":"address"},{"internalType":"address","name":"quoter","type":"address"},{"internalType":"uint256","name":"amount","type":"uint256"},{"internalType":"uint128","name":"asset0Balance","type":"uint128"},{"internalType":"uint128","name":"asset1Balance","type":"uint128"},{"internalType":"uint16","name":"bucketID","type":"uint16"},{"internalType":"bool","name":"zeroForOne","type":"bool"}],"internalType":"struct QuoteParams","name":"params","type":"tuple"}],"name":"getData","outputs":[{"internalType":"bytes","name":"","type":"bytes"}],"stateMutability":"view","type":"function"},{"inputs":[],"name":"internalAlias0","outputs":[{"internalType":"address","name":"","type":"address"}],"stateMutability":"view","type":"function"},{"inputs":[],"name":"internalAlias1","outputs":[{"internalType":"address","name":"","type":"address"}],"stateMutability":"view","type":"function"}],"evm":{"bytecode":{"linkReferences":{},"object":"6101203461011957601f610ac238819003918201601f19168301916001600160401b0383118484101761011d5780849260a0946040528339810103126101195761004881610131565b9061005560208201610131565b9061006260408201610131565b61007a608061007360608501610131565b9301610131565b9260805260a05260c05260e0526101005260405161097c9081610146823960805181818160bb0152818161029d0152818161067a01526107fc015260a051818181610187015281816102c5015281816106ac0152818161075f0152818161083401526108cf015260c05181818160730152610795015260e051818181610143015281816107c4015261091e01526101005181818160ff01526102f70152f35b5f80fd5b634e487b7160e01b5f52604160045260245ffd5b51906001600160a01b03821682036101195756fe6080806040526004361015610012575f80fd5b5f3560e01c9081633bd1104b146101b657508063a6b1282314610172578063b24a485b1461012e578063c45a0155146100ea578063cd852366146100a65763dd82b2751461005e575f80fd5b346100a2575f3660031901126100a2576040517f00000000000000000000000000000000000000000000000000000000000000006001600160a01b03168152602090f35b5f80fd5b346100a2575f3660031901126100a2576040517f00000000000000000000000000000000000000000000000000000000000000006001600160a01b03168152602090f35b346100a2575f3660031901126100a2576040517f00000000000000000000000000000000000000000000000000000000000000006001600160a01b03168152602090f35b346100a2575f3660031901126100a2576040517f00000000000000000000000000000000000000000000000000000000000000006001600160a01b03168152602090f35b346100a2575f3660031901126100a2576040517f00000000000000000000000000000000000000000000000000000000000000006001600160a01b03168152602090f35b346100a2576101003660031901126100a257610100810181811067ffffffffffffffff821117610607576040526004356001600160a01b03811681036100a25781526024356001600160a01b03811681036100a257602082019081526044356001600160a01b03811681036100a257604083015260643560608301526084356001600160801b03811681036100a257608083015260a4356001600160801b03811681036100a25760a083015260c43561ffff811681036100a25760c083015260e43580151581036100a25760e083015260405163e6a4390560e01b81526001600160a01b037f0000000000000000000000000000000000000000000000000000000000000000811660048301527f000000000000000000000000000000000000000000000000000000000000000081166024830152602090829060449082907f0000000000000000000000000000000000000000000000000000000000000000165afa9081156104c7575f916105e8575b506001600160a01b03169081156105b457604051630240bc6b60e21b8152606081600481865afa9081156104c7575f905f92610555575b506001600160701b0316908115801580610543575b1561050d57670de0b6b3a76400008302928304670de0b6b3a76400001417156104f9576001600160701b0316908115610482570460405192630dfe168160e01b8452602084600481845afa9384156104c7575f946104d2575b509060206004926040519384809263d21220a760e01b82525afa80156104c75761041794610401935f92610496575b50610670565b925190516001600160a01b039081169116610787565b15610466575b6040805160208101928084528282015281815261043b60608261061b565b8151928391602083525180918160208501528484015e5f828201840152601f01601f19168101030190f35b8015610482576ec097ce7bc90715b34b9f10000000000461041d565b634e487b7160e01b5f52601260045260245ffd5b6104b991925060203d6020116104c0575b6104b1818361061b565b81019061063d565b90876103fb565b503d6104a7565b6040513d5f823e3d90fd5b6004929194506104f0602091823d84116104c0576104b1818361061b565b949192506103cc565b634e487b7160e01b5f52601160045260245ffd5b60405162461bcd60e51b815260206004820152600e60248201526d656d70747920726573657276657360901b6044820152606490fd5b506001600160701b0382161515610373565b9150506060813d6060116105ac575b816105716060938361061b565b810103126100a2576105828161065c565b60406105906020840161065c565b92015163ffffffff8116036100a2576001600160701b0361035e565b3d9150610564565b60405162461bcd60e51b815260206004820152600c60248201526b70616972206d697373696e6760a01b6044820152606490fd5b610601915060203d6020116104c0576104b1818361061b565b83610327565b634e487b7160e01b5f52604160045260245ffd5b90601f8019910116810190811067ffffffffffffffff82111761060757604052565b908160209103126100a257516001600160a01b03811681036100a25790565b51906001600160701b03821682036100a257565b6001600160a01b037f00000000000000000000000000000000000000000000000000000000000000008116911680821480610751575b61074b577f00000000000000000000000000000000000000000000000000000000000000006001600160a01b0316149182610738575b505061071e5760405162461bcd60e51b81526020600482015260146024820152730e0c2d2e440e8ded6cadce640dad2e6dac2e8c6d60631b6044820152606490fd5b8015610482576ec097ce7bc90715b34b9f10000000000490565b6001600160a01b03161490505f806106dc565b50505090565b506001600160a01b038381167f0000000000000000000000000000000000000000000000000000000000000000909116146106a6565b6001600160a01b03908116907f00000000000000000000000000000000000000000000000000000000000000001681811480610910575b6108b9577f00000000000000000000000000000000000000000000000000000000000000006001600160a01b0316821490816108fd575b506108f7577f00000000000000000000000000000000000000000000000000000000000000006001600160a01b031690808214806108c1575b6108b9577f00000000000000000000000000000000000000000000000000000000000000006001600160a01b03161491826108a6575b50506108a25760405162461bcd60e51b815260206004820152601060248201526f3ab739bab83837b93a32b2103830b4b960811b6044820152606490fd5b5f90565b6001600160a01b03161490505f80610864565b505050600190565b506001600160a01b038381167f00000000000000000000000000000000000000000000000000000000000000009091161461082e565b50505f90565b6001600160a01b0384161490505f6107f5565b506001600160a01b038381167f0000000000000000000000000000000000000000000000000000000000000000909116146107be56fea2646970667358221220df0636312a98a6596b924972f6710a2867e6e52e91aad8eb350a2329be717dbd64736f6c634300081e0033","opcodes":"PUSH2 0x120 CALLVALUE PUSH2 0x119 JUMPI PUSH1 0x1F PUSH2 0xAC2 CODESIZE DUP2 SWAP1 SUB SWAP2 DUP3 ADD PUSH1 0x1F NOT AND DUP4 ADD SWAP2 PUSH1 0x1 PUSH1 0x1 PUSH1 0x40 SHL SUB DUP4 GT DUP5 DUP5 LT OR PUSH2 0x11D JUMPI DUP1 DUP5 SWAP3 PUSH1 0xA0 SWAP5 PUSH1 0x40 MSTORE DUP4 CODECOPY DUP2 ADD SUB SLT PUSH2 0x119 JUMPI PUSH2 0x48 DUP2 PUSH2 0x131 JUMP JUMPDEST SWAP1 PUSH2 0x55 PUSH1 0x20 DUP3 ADD PUSH2 0x131 JUMP JUMPDEST SWAP1 PUSH2 0x62 PUSH1 0x40 DUP3 ADD PUSH2 0x131 JUMP JUMPDEST PUSH2 0x7A PUSH1 0x80 PUSH2 0x73 PUSH1 0x60 DUP6 ADD PUSH2 0x131 JUMP JUMPDEST SWAP4 ADD PUSH2 0x131 JUMP JUMPDEST SWAP3 PUSH1 0x80 MSTORE PUSH1 0xA0 MSTORE PUSH1 0xC0 MSTORE PUSH1 0xE0 MSTORE PUSH2 0x100 MSTORE PUSH1 0x40 MLOAD PUSH2 0x97C SWAP1 DUP2 PUSH2 0x146 DUP3 CODECOPY PUSH1 0x80 MLOAD DUP2 DUP2 DUP2 PUSH1 0xBB ADD MSTORE DUP2 DUP2 PUSH2 0x29D ADD MSTORE DUP2 DUP2 PUSH2 0x67A ADD MSTORE PUSH2 0x7FC ADD MSTORE PUSH1 0xA0 MLOAD DUP2 DUP2 DUP2 PUSH2 0x187 ADD MSTORE DUP2 DUP2 PUSH2 0x2C5 ADD MSTORE DUP2 DUP2 PUSH2 0x6AC ADD MSTORE DUP2 DUP2 PUSH2 0x75F ADD MSTORE DUP2 DUP2 PUSH2 0x834 ADD MSTORE PUSH2 0x8CF ADD MSTORE PUSH1 0xC0 MLOAD DUP2 DUP2 DUP2 PUSH1 0x73 ADD MSTORE PUSH2 0x795 ADD MSTORE PUSH1 0xE0 MLOAD DUP2 DUP2 DUP2 PUSH2 0x143 ADD MSTORE DUP2 DUP2 PUSH2 0x7C4 ADD MSTORE PUSH2 0x91E ADD MSTORE PUSH2 0x100 MLOAD DUP2 DUP2 DUP2 PUSH1 0xFF ADD MSTORE PUSH2 0x2F7 ADD MSTORE RETURN JUMPDEST PUSH0 DUP1 REVERT JUMPDEST PUSH4 0x4E487B71 PUSH1 0xE0 SHL PUSH0 MSTORE PUSH1 0x41 PUSH1 0x4 MSTORE PUSH1 0x24 PUSH0 REVERT JUMPDEST MLOAD SWAP1 PUSH1 0x1 PUSH1 0x1 PUSH1 0xA0 SHL SUB DUP3 AND DUP3 SUB PUSH2 0x119 JUMPI JUMP INVALID PUSH1 0x80 DUP1 PUSH1 0x40 MSTORE PUSH1 0x4 CALLDATASIZE LT ISZERO PUSH2 0x12 JUMPI PUSH0 DUP1 REVERT JUMPDEST PUSH0 CALLDATALOAD PUSH1 0xE0 SHR SWAP1 DUP2 PUSH4 0x3BD1104B EQ PUSH2 0x1B6 JUMPI POP DUP1 PUSH4 0xA6B12823 EQ PUSH2 0x172 JUMPI DUP1 PUSH4 0xB24A485B EQ PUSH2 0x12E JUMPI DUP1 PUSH4 0xC45A0155 EQ PUSH2 0xEA JUMPI DUP1 PUSH4 0xCD852366 EQ PUSH2 0xA6 JUMPI PUSH4 0xDD82B275 EQ PUSH2 0x5E JUMPI PUSH0 DUP1 REVERT JUMPDEST CALLVALUE PUSH2 0xA2 JUMPI PUSH0 CALLDATASIZE PUSH1 0x3 NOT ADD SLT PUSH2 0xA2 JUMPI PUSH1 0x40 MLOAD PUSH32 0x0 PUSH1 0x1 PUSH1 0x1 PUSH1 0xA0 SHL SUB AND DUP2 MSTORE PUSH1 0x20 SWAP1 RETURN JUMPDEST PUSH0 DUP1 REVERT JUMPDEST CALLVALUE PUSH2 0xA2 JUMPI PUSH0 CALLDATASIZE PUSH1 0x3 NOT ADD SLT PUSH2 0xA2 JUMPI PUSH1 0x40 MLOAD PUSH32 0x0 PUSH1 0x1 PUSH1 0x1 PUSH1 0xA0 SHL SUB AND DUP2 MSTORE PUSH1 0x20 SWAP1 RETURN JUMPDEST CALLVALUE PUSH2 0xA2 JUMPI PUSH0 CALLDATASIZE PUSH1 0x3 NOT ADD SLT PUSH2 0xA2 JUMPI PUSH1 0x40 MLOAD PUSH32 0x0 PUSH1 0x1 PUSH1 0x1 PUSH1 0xA0 SHL SUB AND DUP2 MSTORE PUSH1 0x20 SWAP1 RETURN JUMPDEST CALLVALUE PUSH2 0xA2 JUMPI PUSH0 CALLDATASIZE PUSH1 0x3 NOT ADD SLT PUSH2 0xA2 JUMPI PUSH1 0x40 MLOAD PUSH32 0x0 PUSH1 0x1 PUSH1 0x1 PUSH1 0xA0 SHL SUB AND DUP2 MSTORE PUSH1 0x20 SWAP1 RETURN JUMPDEST CALLVALUE PUSH2 0xA2 JUMPI PUSH0 CALLDATASIZE PUSH1 0x3 NOT ADD SLT PUSH2 0xA2 JUMPI PUSH1 0x40 MLOAD PUSH32 0x0 PUSH1 0x1 PUSH1 0x1 PUSH1 0xA0 SHL SUB AND DUP2 MSTORE PUSH1 0x20 SWAP1 RETURN JUMPDEST CALLVALUE PUSH2 0xA2 JUMPI PUSH2 0x100 CALLDATASIZE PUSH1 0x3 NOT ADD SLT PUSH2 0xA2 JUMPI PUSH2 0x100 DUP2 ADD DUP2 DUP2 LT PUSH8 0xFFFFFFFFFFFFFFFF DUP3 GT OR PUSH2 0x607 JUMPI PUSH1 0x40 MSTORE PUSH1 0x4 CALLDATALOAD PUSH1 0x1 PUSH1 0x1 PUSH1 0xA0 SHL SUB DUP2 AND DUP2 SUB PUSH2 0xA2 JUMPI DUP2 MSTORE PUSH1 0x24 CALLDATALOAD PUSH1 0x1 PUSH1 0x1 PUSH1 0xA0 SHL SUB DUP2 AND DUP2 SUB PUSH2 0xA2 JUMPI PUSH1 0x20 DUP3 ADD SWAP1 DUP2 MSTORE PUSH1 0x44 CALLDATALOAD PUSH1 0x1 PUSH1 0x1 PUSH1 0xA0 SHL SUB DUP2 AND DUP2 SUB PUSH2 0xA2 JUMPI PUSH1 0x40 DUP4 ADD MSTORE PUSH1 0x64 CALLDATALOAD PUSH1 0x60 DUP4 ADD MSTORE PUSH1 0x84 CALLDATALOAD PUSH1 0x1 PUSH1 0x1 PUSH1 0x80 SHL SUB DUP2 AND DUP2 SUB PUSH2 0xA2 JUMPI PUSH1 0x80 DUP4 ADD MSTORE PUSH1 0xA4 CALLDATALOAD PUSH1 0x1 PUSH1 0x1 PUSH1 0x80 SHL SUB DUP2 AND DUP2 SUB PUSH2 0xA2 JUMPI PUSH1 0xA0 DUP4 ADD MSTORE PUSH1 0xC4 CALLDATALOAD PUSH2 0xFFFF DUP2 AND DUP2 SUB PUSH2 0xA2 JUMPI PUSH1 0xC0 DUP4 ADD MSTORE PUSH1 0xE4 CALLDATALOAD DUP1 ISZERO ISZERO DUP2 SUB PUSH2 0xA2 JUMPI PUSH1 0xE0 DUP4 ADD MSTORE PUSH1 0x40 MLOAD PUSH4 0xE6A43905 PUSH1 0xE0 SHL DUP2 MSTORE PUSH1 0x1 PUSH1 0x1 PUSH1 0xA0 SHL SUB PUSH32 0x0 DUP2 AND PUSH1 0x4 DUP4 ADD MSTORE PUSH32 0x0 DUP2 AND PUSH1 0x24 DUP4 ADD MSTORE PUSH1 0x20 SWAP1 DUP3 SWAP1 PUSH1 0x44 SWAP1 DUP3 SWAP1 PUSH32 0x0 AND GAS STATICCALL SWAP1 DUP2 ISZERO PUSH2 0x4C7 JUMPI PUSH0 SWAP2 PUSH2 0x5E8 JUMPI JUMPDEST POP PUSH1 0x1 PUSH1 0x1 PUSH1 0xA0 SHL SUB AND SWAP1 DUP2 ISZERO PUSH2 0x5B4 JUMPI PUSH1 0x40 MLOAD PUSH4 0x240BC6B PUSH1 0xE2 SHL DUP2 MSTORE PUSH1 0x60 DUP2 PUSH1 0x4 DUP2 DUP7 GAS STATICCALL SWAP1 DUP2 ISZERO PUSH2 0x4C7 JUMPI PUSH0 SWAP1 PUSH0 SWAP3 PUSH2 0x555 JUMPI JUMPDEST POP PUSH1 0x1 PUSH1 0x1 PUSH1 0x70 SHL SUB AND SWAP1 DUP2 ISZERO DUP1 ISZERO DUP1 PUSH2 0x543 JUMPI JUMPDEST ISZERO PUSH2 0x50D JUMPI PUSH8 0xDE0B6B3A7640000 DUP4 MUL SWAP3 DUP4 DIV PUSH8 0xDE0B6B3A7640000 EQ OR ISZERO PUSH2 0x4F9 JUMPI PUSH1 0x1 PUSH1 0x1 PUSH1 0x70 SHL SUB AND SWAP1 DUP2 ISZERO PUSH2 0x482 JUMPI DIV PUSH1 0x40 MLOAD SWAP3 PUSH4 0xDFE1681 PUSH1 0xE0 SHL DUP5 MSTORE PUSH1 0x20 DUP5 PUSH1 0x4 DUP2 DUP5 GAS STATICCALL SWAP4 DUP5 ISZERO PUSH2 0x4C7 JUMPI PUSH0 SWAP5 PUSH2 0x4D2 JUMPI JUMPDEST POP SWAP1 PUSH1 0x20 PUSH1 0x4 SWAP3 PUSH1 0x40 MLOAD SWAP4 DUP5 DUP1 SWAP3 PUSH4 0xD21220A7 PUSH1 0xE0 SHL DUP3 MSTORE GAS STATICCALL DUP1 ISZERO PUSH2 0x4C7 JUMPI PUSH2 0x417 SWAP5 PUSH2 0x401 SWAP4 PUSH0 SWAP3 PUSH2 0x496 JUMPI JUMPDEST POP PUSH2 0x670 JUMP JUMPDEST SWAP3 MLOAD SWAP1 MLOAD PUSH1 0x1 PUSH1 0x1 PUSH1 0xA0 SHL SUB SWAP1 DUP2 AND SWAP2 AND PUSH2 0x787 JUMP JUMPDEST ISZERO PUSH2 0x466 JUMPI JUMPDEST PUSH1 0x40 DUP1 MLOAD PUSH1 0x20 DUP2 ADD SWAP3 DUP1 DUP5 MSTORE DUP3 DUP3 ADD MSTORE DUP2 DUP2 MSTORE PUSH2 0x43B PUSH1 0x60 DUP3 PUSH2 0x61B JUMP JUMPDEST DUP2 MLOAD SWAP3 DUP4 SWAP2 PUSH1 0x20 DUP4 MSTORE MLOAD DUP1 SWAP2 DUP2 PUSH1 0x20 DUP6 ADD MSTORE DUP5 DUP5 ADD MCOPY PUSH0 DUP3 DUP3 ADD DUP5 ADD MSTORE PUSH1 0x1F ADD PUSH1 0x1F NOT AND DUP2 ADD SUB ADD SWAP1 RETURN JUMPDEST DUP1 ISZERO PUSH2 0x482 JUMPI PUSH15 0xC097CE7BC90715B34B9F1000000000 DIV PUSH2 0x41D JUMP JUMPDEST PUSH4 0x4E487B71 PUSH1 0xE0 SHL PUSH0 MSTORE PUSH1 0x12 PUSH1 0x4 MSTORE PUSH1 0x24 PUSH0 REVERT JUMPDEST PUSH2 0x4B9 SWAP2 SWAP3 POP PUSH1 0x20 RETURNDATASIZE PUSH1 0x20 GT PUSH2 0x4C0 JUMPI JUMPDEST PUSH2 0x4B1 DUP2 DUP4 PUSH2 0x61B JUMP JUMPDEST DUP2 ADD SWAP1 PUSH2 0x63D JUMP JUMPDEST SWAP1 DUP8 PUSH2 0x3FB JUMP JUMPDEST POP RETURNDATASIZE PUSH2 0x4A7 JUMP JUMPDEST PUSH1 0x40 MLOAD RETURNDATASIZE PUSH0 DUP3 RETURNDATACOPY RETURNDATASIZE SWAP1 REVERT JUMPDEST PUSH1 0x4 SWAP3 SWAP2 SWAP5 POP PUSH2 0x4F0 PUSH1 0x20 SWAP2 DUP3 RETURNDATASIZE DUP5 GT PUSH2 0x4C0 JUMPI PUSH2 0x4B1 DUP2 DUP4 PUSH2 0x61B JUMP JUMPDEST SWAP5 SWAP2 SWAP3 POP PUSH2 0x3CC JUMP JUMPDEST PUSH4 0x4E487B71 PUSH1 0xE0 SHL PUSH0 MSTORE PUSH1 0x11 PUSH1 0x4 MSTORE PUSH1 0x24 PUSH0 REVERT JUMPDEST PUSH1 0x40 MLOAD PUSH3 0x461BCD PUSH1 0xE5 SHL DUP2 MSTORE PUSH1 0x20 PUSH1 0x4 DUP3 ADD MSTORE PUSH1 0xE PUSH1 0x24 DUP3 ADD MSTORE PUSH14 0x656D707479207265736572766573 PUSH1 0x90 SHL PUSH1 0x44 DUP3 ADD MSTORE PUSH1 0x64 SWAP1 REVERT JUMPDEST POP PUSH1 0x1 PUSH1 0x1 PUSH1 0x70 SHL SUB DUP3 AND ISZERO ISZERO PUSH2 0x373 JUMP JUMPDEST SWAP2 POP POP PUSH1 0x60 DUP2 RETURNDATASIZE PUSH1 0x60 GT PUSH2 0x5AC JUMPI JUMPDEST DUP2 PUSH2 0x571 PUSH1 0x60 SWAP4 DUP4 PUSH2 0x61B JUMP JUMPDEST DUP2 ADD SUB SLT PUSH2 0xA2 JUMPI PUSH2 0x582 DUP2 PUSH2 0x65C JUMP JUMPDEST PUSH1 0x40 PUSH2 0x590 PUSH1 0x20 DUP5 ADD PUSH2 0x65C JUMP JUMPDEST SWAP3 ADD MLOAD PUSH4 0xFFFFFFFF DUP2 AND SUB PUSH2 0xA2 JUMPI PUSH1 0x1 PUSH1 0x1 PUSH1 0x70 SHL SUB PUSH2 0x35E JUMP JUMPDEST RETURNDATASIZE SWAP2 POP PUSH2 0x564 JUMP JUMPDEST PUSH1 0x40 MLOAD PUSH3 0x461BCD PUSH1 0xE5 SHL DUP2 MSTORE PUSH1 0x20 PUSH1 0x4 DUP3 ADD MSTORE PUSH1 0xC PUSH1 0x24 DUP3 ADD MSTORE PUSH12 0x70616972206D697373696E67 PUSH1 0xA0 SHL PUSH1 0x44 DUP3 ADD MSTORE PUSH1 0x64 SWAP1 REVERT JUMPDEST PUSH2 0x601 SWAP2 POP PUSH1 0x20 RETURNDATASIZE PUSH1 0x20 GT PUSH2 0x4C0 JUMPI PUSH2 0x4B1 DUP2 DUP4 PUSH2 0x61B JUMP JUMPDEST DUP4 PUSH2 0x327 JUMP JUMPDEST PUSH4 0x4E487B71 PUSH1 0xE0 SHL PUSH0 MSTORE PUSH1 0x41 PUSH1 0x4 MSTORE PUSH1 0x24 PUSH0 REVERT JUMPDEST SWAP1 PUSH1 0x1F DUP1 NOT SWAP2 ADD AND DUP2 ADD SWAP1 DUP2 LT PUSH8 0xFFFFFFFFFFFFFFFF DUP3 GT OR PUSH2 0x607 JUMPI PUSH1 0x40 MSTORE JUMP JUMPDEST SWAP1 DUP2 PUSH1 0x20 SWAP2 SUB SLT PUSH2 0xA2 JUMPI MLOAD PUSH1 0x1 PUSH1 0x1 PUSH1 0xA0 SHL SUB DUP2 AND DUP2 SUB PUSH2 0xA2 JUMPI SWAP1 JUMP JUMPDEST MLOAD SWAP1 PUSH1 0x1 PUSH1 0x1 PUSH1 0x70 SHL SUB DUP3 AND DUP3 SUB PUSH2 0xA2 JUMPI JUMP JUMPDEST PUSH1 0x1 PUSH1 0x1 PUSH1 0xA0 SHL SUB PUSH32 0x0 DUP2 AND SWAP2 AND DUP1 DUP3 EQ DUP1 PUSH2 0x751 JUMPI JUMPDEST PUSH2 0x74B JUMPI PUSH32 0x0 PUSH1 0x1 PUSH1 0x1 PUSH1 0xA0 SHL SUB AND EQ SWAP2 DUP3 PUSH2 0x738 JUMPI JUMPDEST POP POP PUSH2 0x71E JUMPI PUSH1 0x40 MLOAD PUSH3 0x461BCD PUSH1 0xE5 SHL DUP2 MSTORE PUSH1 0x20 PUSH1 0x4 DUP3 ADD MSTORE PUSH1 0x14 PUSH1 0x24 DUP3 ADD MSTORE PUSH20 0xE0C2D2E440E8DED6CADCE640DAD2E6DAC2E8C6D PUSH1 0x63 SHL PUSH1 0x44 DUP3 ADD MSTORE PUSH1 0x64 SWAP1 REVERT JUMPDEST DUP1 ISZERO PUSH2 0x482 JUMPI PUSH15 0xC097CE7BC90715B34B9F1000000000 DIV SWAP1 JUMP JUMPDEST PUSH1 0x1 PUSH1 0x1 PUSH1 0xA0 SHL SUB AND EQ SWAP1 POP PUSH0 DUP1 PUSH2 0x6DC JUMP JUMPDEST POP POP POP SWAP1 JUMP JUMPDEST POP PUSH1 0x1 PUSH1 0x1 PUSH1 0xA0 SHL SUB DUP4 DUP2 AND PUSH32 0x0 SWAP1 SWAP2 AND EQ PUSH2 0x6A6 JUMP JUMPDEST PUSH1 0x1 PUSH1 0x1 PUSH1 0xA0 SHL SUB SWAP1 DUP2 AND SWAP1 PUSH32 0x0 AND DUP2 DUP2 EQ DUP1 PUSH2 0x910 JUMPI JUMPDEST PUSH2 0x8B9 JUMPI PUSH32 0x0 PUSH1 0x1 PUSH1 0x1 PUSH1 0xA0 SHL SUB AND DUP3 EQ SWAP1 DUP2 PUSH2 0x8FD JUMPI JUMPDEST POP PUSH2 0x8F7 JUMPI PUSH32 0x0 PUSH1 0x1 PUSH1 0x1 PUSH1 0xA0 SHL SUB AND SWAP1 DUP1 DUP3 EQ DUP1 PUSH2 0x8C1 JUMPI JUMPDEST PUSH2 0x8B9 JUMPI PUSH32 0x0 PUSH1 0x1 PUSH1 0x1 PUSH1 0xA0 SHL SUB AND EQ SWAP2 DUP3 PUSH2 0x8A6 JUMPI JUMPDEST POP POP PUSH2 0x8A2 JUMPI PUSH1 0x40 MLOAD PUSH3 0x461BCD PUSH1 0xE5 SHL DUP2 MSTORE PUSH1 0x20 PUSH1 0x4 DUP3 ADD MSTORE PUSH1 0x10 PUSH1 0x24 DUP3 ADD MSTORE PUSH16 0x3AB739BAB83837B93A32B2103830B4B9 PUSH1 0x81 SHL PUSH1 0x44 DUP3 ADD MSTORE PUSH1 0x64 SWAP1 REVERT JUMPDEST PUSH0 SWAP1 JUMP JUMPDEST PUSH1 0x1 PUSH1 0x1 PUSH1 0xA0 SHL SUB AND EQ SWAP1 POP PUSH0 DUP1 PUSH2 0x864 JUMP JUMPDEST POP POP POP PUSH1 0x1 SWAP1 JUMP JUMPDEST POP PUSH1 0x1 PUSH1 0x1 PUSH1 0xA0 SHL SUB DUP4 DUP2 AND PUSH32 0x0 SWAP1 SWAP2 AND EQ PUSH2 0x82E JUMP JUMPDEST POP POP PUSH0 SWAP1 JUMP JUMPDEST PUSH1 0x1 PUSH1 0x1 PUSH1 0xA0 SHL SUB DUP5 AND EQ SWAP1 POP PUSH0 PUSH2 0x7F5 JUMP JUMPDEST POP PUSH1 0x1 PUSH1 0x1 PUSH1 0xA0 SHL SUB DUP4 DUP2 AND PUSH32 0x0 SWAP1 SWAP2 AND EQ PUSH2 0x7BE JUMP INVALID LOG2 PUSH5 0x6970667358 0x22 SLT KECCAK256 0xDF MOD CALLDATASIZE BALANCE 0x2A SWAP9 0xA6 MSIZE PUSH12 0x924972F6710A2867E6E52E91 0xAA 0xD8 0xEB CALLDATALOAD EXP 0x23 0x29 0xBE PUSH18 0x7DBD64736F6C634300081E00330000000000 "},"methodIdentifiers":{"canonicalExt0()":"cd852366","canonicalExt1()":"a6b12823","factory()":"c45a0155","getData((address,address,address,uint256,uint128,uint128,uint16,bool))":"3bd1104b","internalAlias0()":"dd82b275","internalAlias1()":"b24a485b"}}}}}