{"contracts/Peripheral/DataBridges/real/UniswapV3DataBridge.sol":{"UniswapV3DataBridge":{"abi":[{"inputs":[{"internalType":"address","name":"_factory","type":"address"},{"internalType":"uint24","name":"_fee","type":"uint24"},{"internalType":"uint24","name":"_window","type":"uint24"},{"internalType":"address","name":"_ext0","type":"address"},{"internalType":"address","name":"_ext1","type":"address"},{"internalType":"address","name":"_alias0","type":"address"},{"internalType":"address","name":"_alias1","type":"address"}],"stateMutability":"nonpayable","type":"constructor"},{"inputs":[],"name":"canonicalExt0","outputs":[{"internalType":"address","name":"","type":"address"}],"stateMutability":"view","type":"function"},{"inputs":[],"name":"canonicalExt1","outputs":[{"internalType":"address","name":"","type":"address"}],"stateMutability":"view","type":"function"},{"inputs":[],"name":"factory","outputs":[{"internalType":"address","name":"","type":"address"}],"stateMutability":"view","type":"function"},{"inputs":[],"name":"fee","outputs":[{"internalType":"uint24","name":"","type":"uint24"}],"stateMutability":"view","type":"function"},{"inputs":[{"components":[{"internalType":"address","name":"asset0","type":"address"},{"internalType":"address","name":"asset1","type":"address"},{"internalType":"address","name":"quoter","type":"address"},{"internalType":"uint256","name":"amount","type":"uint256"},{"internalType":"uint128","name":"asset0Balance","type":"uint128"},{"internalType":"uint128","name":"asset1Balance","type":"uint128"},{"internalType":"uint16","name":"bucketID","type":"uint16"},{"internalType":"bool","name":"zeroForOne","type":"bool"}],"internalType":"struct QuoteParams","name":"params","type":"tuple"}],"name":"getData","outputs":[{"internalType":"bytes","name":"","type":"bytes"}],"stateMutability":"view","type":"function"},{"inputs":[],"name":"internalAlias0","outputs":[{"internalType":"address","name":"","type":"address"}],"stateMutability":"view","type":"function"},{"inputs":[],"name":"internalAlias1","outputs":[{"internalType":"address","name":"","type":"address"}],"stateMutability":"view","type":"function"},{"inputs":[],"name":"twapWindow","outputs":[{"internalType":"uint24","name":"","type":"uint24"}],"stateMutability":"view","type":"function"}],"evm":{"bytecode":{"linkReferences":{},"object":"6101603461015f57601f610bc638819003918201601f19168301916001600160401b038311848410176101635780849260e09460405283398101031261015f5761004881610177565b6100546020830161018b565b906100616040840161018b565b9261006e60608201610177565b9061007b60808201610177565b61009360c061008c60a08501610177565b9301610177565b9260805260a05260c05260e052610100526101205262ffffff8116155f1461015a5750612a305b61014052604051610a2a908161019c82396080518181816101100152818161033101526108aa015260a0518181816101dc01528181610359015281816108e2015261097d015260c05181818160cc0152610843015260e0518181816101980152818161087201526109cc01526101005181818161015401526103b6015261012051818181608f0152610385015261014051818181610226015261047d0152f35b6100ba565b5f80fd5b634e487b7160e01b5f52604160045260245ffd5b51906001600160a01b038216820361015f57565b519062ffffff8216820361015f5756fe6080806040526004361015610012575f80fd5b5f3560e01c9081633bd1104b1461024a575080638107e1331461020b578063a6b12823146101c7578063b24a485b14610183578063c45a01551461013f578063cd852366146100fb578063dd82b275146100b75763ddca3f4314610074575f80fd5b346100b3575f3660031901126100b357602060405162ffffff7f0000000000000000000000000000000000000000000000000000000000000000168152f35b5f80fd5b346100b3575f3660031901126100b3576040517f00000000000000000000000000000000000000000000000000000000000000006001600160a01b03168152602090f35b346100b3575f3660031901126100b3576040517f00000000000000000000000000000000000000000000000000000000000000006001600160a01b03168152602090f35b346100b3575f3660031901126100b3576040517f00000000000000000000000000000000000000000000000000000000000000006001600160a01b03168152602090f35b346100b3575f3660031901126100b3576040517f00000000000000000000000000000000000000000000000000000000000000006001600160a01b03168152602090f35b346100b3575f3660031901126100b3576040517f00000000000000000000000000000000000000000000000000000000000000006001600160a01b03168152602090f35b346100b3575f3660031901126100b357602060405162ffffff7f0000000000000000000000000000000000000000000000000000000000000000168152f35b346100b3576101003660031901126100b357610100810181811067ffffffffffffffff8211176107c4576040526004356001600160a01b03811681036100b35781526024356001600160a01b03811681036100b357602082019081526044356001600160a01b03811681036100b357604083015260643560608301526084356001600160801b03811681036100b357608083015260a4356001600160801b03811681036100b35760a083015260c43561ffff811681036100b35760c083015260e43580151581036100b35760e0830152604051630b4c774160e11b81526001600160a01b037f0000000000000000000000000000000000000000000000000000000000000000811660048301527f00000000000000000000000000000000000000000000000000000000000000008116602483015262ffffff7f0000000000000000000000000000000000000000000000000000000000000000166044830152602090829060649082907f0000000000000000000000000000000000000000000000000000000000000000165afa90811561064c575f91610782575b506001600160a01b031690811561074e57604051633850c7bd60e01b81529060e082600481865afa91821561064c575f926106bc575b50925192516001600160a01b039182168002606090811c670de0b6b3a764000002901c9361044e929182169116610835565b1561068a575b604051906104636060836107d8565b600282526020820160403682378251156106765762ffffff7f0000000000000000000000000000000000000000000000000000000000000000168152825160011015610676575f60408085018290525163883bdbfd60e01b815260206004820152935160248501819052849260448401929091905b818110610657575050509181805f9403915afa801561064c57610540575b50604080516020810192808452828201528181526105156060826107d8565b8151928391602083525180918160208501528484015e5f828201840152601f01601f19168101030190f35b3d805f833e61054f81836107d8565b8101906040818303126100b357805167ffffffffffffffff81116100b357810182601f820112156100b3578051906020806105898461081d565b61059660405191826107d8565b848152019260051b820101908482116100b357602001915b8183106106325750505060208101519067ffffffffffffffff82116100b3570181601f820112156100b3578051906020806105e88461081d565b6105f560405191826107d8565b848152019260051b8201019283116100b357602001905b82821061061a5750506104f6565b60208091610627846107fa565b81520191019061060c565b82518060060b81036100b3578152602092830192016105ae565b6040513d5f823e3d90fd5b825163ffffffff168452869450602093840193909201916001016104d8565b634e487b7160e01b5f52603260045260245ffd5b9080156106a8576ec097ce7bc90715b34b9f10000000000490610454565b634e487b7160e01b5f52601260045260245ffd5b915060e0823d60e011610746575b816106d760e093836107d8565b810103126100b3576106e8826107fa565b9160208101518060020b036100b3576107036040820161080e565b506107106060820161080e565b5061071d6080820161080e565b5060a081015160ff8116036100b35760c00151801515036100b357670de0b6b3a764000061041c565b3d91506106ca565b60405162461bcd60e51b815260206004820152600c60248201526b706f6f6c206d697373696e6760a01b6044820152606490fd5b90506020813d6020116107bc575b8161079d602093836107d8565b810103126100b357516001600160a01b03811681036100b357836103e6565b3d9150610790565b634e487b7160e01b5f52604160045260245ffd5b90601f8019910116810190811067ffffffffffffffff8211176107c457604052565b51906001600160a01b03821682036100b357565b519061ffff821682036100b357565b67ffffffffffffffff81116107c45760051b60200190565b6001600160a01b03908116907f000000000000000000000000000000000000000000000000000000000000000016818114806109be575b610967577f00000000000000000000000000000000000000000000000000000000000000006001600160a01b0316821490816109ab575b506109a5577f00000000000000000000000000000000000000000000000000000000000000006001600160a01b0316908082148061096f575b610967577f00000000000000000000000000000000000000000000000000000000000000006001600160a01b0316149182610954575b50506109505760405162461bcd60e51b815260206004820152601060248201526f3ab739bab83837b93a32b2103830b4b960811b6044820152606490fd5b5f90565b6001600160a01b03161490505f80610912565b505050600190565b506001600160a01b038381167f0000000000000000000000000000000000000000000000000000000000000000909116146108dc565b50505f90565b6001600160a01b0384161490505f6108a3565b506001600160a01b038381167f00000000000000000000000000000000000000000000000000000000000000009091161461086c56fea2646970667358221220f45fe0b4bb1f1cdb78fe7066db5211ee786d76c11b5a22e0215ec1f7ff2318b464736f6c634300081e0033","opcodes":"PUSH2 0x160 CALLVALUE PUSH2 0x15F JUMPI PUSH1 0x1F PUSH2 0xBC6 CODESIZE DUP2 SWAP1 SUB SWAP2 DUP3 ADD PUSH1 0x1F NOT AND DUP4 ADD SWAP2 PUSH1 0x1 PUSH1 0x1 PUSH1 0x40 SHL SUB DUP4 GT DUP5 DUP5 LT OR PUSH2 0x163 JUMPI DUP1 DUP5 SWAP3 PUSH1 0xE0 SWAP5 PUSH1 0x40 MSTORE DUP4 CODECOPY DUP2 ADD SUB SLT PUSH2 0x15F JUMPI PUSH2 0x48 DUP2 PUSH2 0x177 JUMP JUMPDEST PUSH2 0x54 PUSH1 0x20 DUP4 ADD PUSH2 0x18B JUMP JUMPDEST SWAP1 PUSH2 0x61 PUSH1 0x40 DUP5 ADD PUSH2 0x18B JUMP JUMPDEST SWAP3 PUSH2 0x6E PUSH1 0x60 DUP3 ADD PUSH2 0x177 JUMP JUMPDEST SWAP1 PUSH2 0x7B PUSH1 0x80 DUP3 ADD PUSH2 0x177 JUMP JUMPDEST PUSH2 0x93 PUSH1 0xC0 PUSH2 0x8C PUSH1 0xA0 DUP6 ADD PUSH2 0x177 JUMP JUMPDEST SWAP4 ADD PUSH2 0x177 JUMP JUMPDEST SWAP3 PUSH1 0x80 MSTORE PUSH1 0xA0 MSTORE PUSH1 0xC0 MSTORE PUSH1 0xE0 MSTORE PUSH2 0x100 MSTORE PUSH2 0x120 MSTORE PUSH3 0xFFFFFF DUP2 AND ISZERO PUSH0 EQ PUSH2 0x15A JUMPI POP PUSH2 0x2A30 JUMPDEST PUSH2 0x140 MSTORE PUSH1 0x40 MLOAD PUSH2 0xA2A SWAP1 DUP2 PUSH2 0x19C DUP3 CODECOPY PUSH1 0x80 MLOAD DUP2 DUP2 DUP2 PUSH2 0x110 ADD MSTORE DUP2 DUP2 PUSH2 0x331 ADD MSTORE PUSH2 0x8AA ADD MSTORE PUSH1 0xA0 MLOAD DUP2 DUP2 DUP2 PUSH2 0x1DC ADD MSTORE DUP2 DUP2 PUSH2 0x359 ADD MSTORE DUP2 DUP2 PUSH2 0x8E2 ADD MSTORE PUSH2 0x97D ADD MSTORE PUSH1 0xC0 MLOAD DUP2 DUP2 DUP2 PUSH1 0xCC ADD MSTORE PUSH2 0x843 ADD MSTORE PUSH1 0xE0 MLOAD DUP2 DUP2 DUP2 PUSH2 0x198 ADD MSTORE DUP2 DUP2 PUSH2 0x872 ADD MSTORE PUSH2 0x9CC ADD MSTORE PUSH2 0x100 MLOAD DUP2 DUP2 DUP2 PUSH2 0x154 ADD MSTORE PUSH2 0x3B6 ADD MSTORE PUSH2 0x120 MLOAD DUP2 DUP2 DUP2 PUSH1 0x8F ADD MSTORE PUSH2 0x385 ADD MSTORE PUSH2 0x140 MLOAD DUP2 DUP2 DUP2 PUSH2 0x226 ADD MSTORE PUSH2 0x47D ADD MSTORE RETURN JUMPDEST PUSH2 0xBA JUMP JUMPDEST PUSH0 DUP1 REVERT JUMPDEST PUSH4 0x4E487B71 PUSH1 0xE0 SHL PUSH0 MSTORE PUSH1 0x41 PUSH1 0x4 MSTORE PUSH1 0x24 PUSH0 REVERT JUMPDEST MLOAD SWAP1 PUSH1 0x1 PUSH1 0x1 PUSH1 0xA0 SHL SUB DUP3 AND DUP3 SUB PUSH2 0x15F JUMPI JUMP JUMPDEST MLOAD SWAP1 PUSH3 0xFFFFFF DUP3 AND DUP3 SUB PUSH2 0x15F JUMPI JUMP INVALID PUSH1 0x80 DUP1 PUSH1 0x40 MSTORE PUSH1 0x4 CALLDATASIZE LT ISZERO PUSH2 0x12 JUMPI PUSH0 DUP1 REVERT JUMPDEST PUSH0 CALLDATALOAD PUSH1 0xE0 SHR SWAP1 DUP2 PUSH4 0x3BD1104B EQ PUSH2 0x24A JUMPI POP DUP1 PUSH4 0x8107E133 EQ PUSH2 0x20B JUMPI DUP1 PUSH4 0xA6B12823 EQ PUSH2 0x1C7 JUMPI DUP1 PUSH4 0xB24A485B EQ PUSH2 0x183 JUMPI DUP1 PUSH4 0xC45A0155 EQ PUSH2 0x13F JUMPI DUP1 PUSH4 0xCD852366 EQ PUSH2 0xFB JUMPI DUP1 PUSH4 0xDD82B275 EQ PUSH2 0xB7 JUMPI PUSH4 0xDDCA3F43 EQ PUSH2 0x74 JUMPI PUSH0 DUP1 REVERT JUMPDEST CALLVALUE PUSH2 0xB3 JUMPI PUSH0 CALLDATASIZE PUSH1 0x3 NOT ADD SLT PUSH2 0xB3 JUMPI PUSH1 0x20 PUSH1 0x40 MLOAD PUSH3 0xFFFFFF PUSH32 0x0 AND DUP2 MSTORE RETURN JUMPDEST PUSH0 DUP1 REVERT JUMPDEST CALLVALUE PUSH2 0xB3 JUMPI PUSH0 CALLDATASIZE PUSH1 0x3 NOT ADD SLT PUSH2 0xB3 JUMPI PUSH1 0x40 MLOAD PUSH32 0x0 PUSH1 0x1 PUSH1 0x1 PUSH1 0xA0 SHL SUB AND DUP2 MSTORE PUSH1 0x20 SWAP1 RETURN JUMPDEST CALLVALUE PUSH2 0xB3 JUMPI PUSH0 CALLDATASIZE PUSH1 0x3 NOT ADD SLT PUSH2 0xB3 JUMPI PUSH1 0x40 MLOAD PUSH32 0x0 PUSH1 0x1 PUSH1 0x1 PUSH1 0xA0 SHL SUB AND DUP2 MSTORE PUSH1 0x20 SWAP1 RETURN JUMPDEST CALLVALUE PUSH2 0xB3 JUMPI PUSH0 CALLDATASIZE PUSH1 0x3 NOT ADD SLT PUSH2 0xB3 JUMPI PUSH1 0x40 MLOAD PUSH32 0x0 PUSH1 0x1 PUSH1 0x1 PUSH1 0xA0 SHL SUB AND DUP2 MSTORE PUSH1 0x20 SWAP1 RETURN JUMPDEST CALLVALUE PUSH2 0xB3 JUMPI PUSH0 CALLDATASIZE PUSH1 0x3 NOT ADD SLT PUSH2 0xB3 JUMPI PUSH1 0x40 MLOAD PUSH32 0x0 PUSH1 0x1 PUSH1 0x1 PUSH1 0xA0 SHL SUB AND DUP2 MSTORE PUSH1 0x20 SWAP1 RETURN JUMPDEST CALLVALUE PUSH2 0xB3 JUMPI PUSH0 CALLDATASIZE PUSH1 0x3 NOT ADD SLT PUSH2 0xB3 JUMPI PUSH1 0x40 MLOAD PUSH32 0x0 PUSH1 0x1 PUSH1 0x1 PUSH1 0xA0 SHL SUB AND DUP2 MSTORE PUSH1 0x20 SWAP1 RETURN JUMPDEST CALLVALUE PUSH2 0xB3 JUMPI PUSH0 CALLDATASIZE PUSH1 0x3 NOT ADD SLT PUSH2 0xB3 JUMPI PUSH1 0x20 PUSH1 0x40 MLOAD PUSH3 0xFFFFFF PUSH32 0x0 AND DUP2 MSTORE RETURN JUMPDEST CALLVALUE PUSH2 0xB3 JUMPI PUSH2 0x100 CALLDATASIZE PUSH1 0x3 NOT ADD SLT PUSH2 0xB3 JUMPI PUSH2 0x100 DUP2 ADD DUP2 DUP2 LT PUSH8 0xFFFFFFFFFFFFFFFF DUP3 GT OR PUSH2 0x7C4 JUMPI PUSH1 0x40 MSTORE PUSH1 0x4 CALLDATALOAD PUSH1 0x1 PUSH1 0x1 PUSH1 0xA0 SHL SUB DUP2 AND DUP2 SUB PUSH2 0xB3 JUMPI DUP2 MSTORE PUSH1 0x24 CALLDATALOAD PUSH1 0x1 PUSH1 0x1 PUSH1 0xA0 SHL SUB DUP2 AND DUP2 SUB PUSH2 0xB3 JUMPI PUSH1 0x20 DUP3 ADD SWAP1 DUP2 MSTORE PUSH1 0x44 CALLDATALOAD PUSH1 0x1 PUSH1 0x1 PUSH1 0xA0 SHL SUB DUP2 AND DUP2 SUB PUSH2 0xB3 JUMPI PUSH1 0x40 DUP4 ADD MSTORE PUSH1 0x64 CALLDATALOAD PUSH1 0x60 DUP4 ADD MSTORE PUSH1 0x84 CALLDATALOAD PUSH1 0x1 PUSH1 0x1 PUSH1 0x80 SHL SUB DUP2 AND DUP2 SUB PUSH2 0xB3 JUMPI PUSH1 0x80 DUP4 ADD MSTORE PUSH1 0xA4 CALLDATALOAD PUSH1 0x1 PUSH1 0x1 PUSH1 0x80 SHL SUB DUP2 AND DUP2 SUB PUSH2 0xB3 JUMPI PUSH1 0xA0 DUP4 ADD MSTORE PUSH1 0xC4 CALLDATALOAD PUSH2 0xFFFF DUP2 AND DUP2 SUB PUSH2 0xB3 JUMPI PUSH1 0xC0 DUP4 ADD MSTORE PUSH1 0xE4 CALLDATALOAD DUP1 ISZERO ISZERO DUP2 SUB PUSH2 0xB3 JUMPI PUSH1 0xE0 DUP4 ADD MSTORE PUSH1 0x40 MLOAD PUSH4 0xB4C7741 PUSH1 0xE1 SHL DUP2 MSTORE PUSH1 0x1 PUSH1 0x1 PUSH1 0xA0 SHL SUB PUSH32 0x0 DUP2 AND PUSH1 0x4 DUP4 ADD MSTORE PUSH32 0x0 DUP2 AND PUSH1 0x24 DUP4 ADD MSTORE PUSH3 0xFFFFFF PUSH32 0x0 AND PUSH1 0x44 DUP4 ADD MSTORE PUSH1 0x20 SWAP1 DUP3 SWAP1 PUSH1 0x64 SWAP1 DUP3 SWAP1 PUSH32 0x0 AND GAS STATICCALL SWAP1 DUP2 ISZERO PUSH2 0x64C JUMPI PUSH0 SWAP2 PUSH2 0x782 JUMPI JUMPDEST POP PUSH1 0x1 PUSH1 0x1 PUSH1 0xA0 SHL SUB AND SWAP1 DUP2 ISZERO PUSH2 0x74E JUMPI PUSH1 0x40 MLOAD PUSH4 0x3850C7BD PUSH1 0xE0 SHL DUP2 MSTORE SWAP1 PUSH1 0xE0 DUP3 PUSH1 0x4 DUP2 DUP7 GAS STATICCALL SWAP2 DUP3 ISZERO PUSH2 0x64C JUMPI PUSH0 SWAP3 PUSH2 0x6BC JUMPI JUMPDEST POP SWAP3 MLOAD SWAP3 MLOAD PUSH1 0x1 PUSH1 0x1 PUSH1 0xA0 SHL SUB SWAP2 DUP3 AND DUP1 MUL PUSH1 0x60 SWAP1 DUP2 SHR PUSH8 0xDE0B6B3A7640000 MUL SWAP1 SHR SWAP4 PUSH2 0x44E SWAP3 SWAP2 DUP3 AND SWAP2 AND PUSH2 0x835 JUMP JUMPDEST ISZERO PUSH2 0x68A JUMPI JUMPDEST PUSH1 0x40 MLOAD SWAP1 PUSH2 0x463 PUSH1 0x60 DUP4 PUSH2 0x7D8 JUMP JUMPDEST PUSH1 0x2 DUP3 MSTORE PUSH1 0x20 DUP3 ADD PUSH1 0x40 CALLDATASIZE DUP3 CALLDATACOPY DUP3 MLOAD ISZERO PUSH2 0x676 JUMPI PUSH3 0xFFFFFF PUSH32 0x0 AND DUP2 MSTORE DUP3 MLOAD PUSH1 0x1 LT ISZERO PUSH2 0x676 JUMPI PUSH0 PUSH1 0x40 DUP1 DUP6 ADD DUP3 SWAP1 MSTORE MLOAD PUSH4 0x883BDBFD PUSH1 0xE0 SHL DUP2 MSTORE PUSH1 0x20 PUSH1 0x4 DUP3 ADD MSTORE SWAP4 MLOAD PUSH1 0x24 DUP6 ADD DUP2 SWAP1 MSTORE DUP5 SWAP3 PUSH1 0x44 DUP5 ADD SWAP3 SWAP1 SWAP2 SWAP1 JUMPDEST DUP2 DUP2 LT PUSH2 0x657 JUMPI POP POP POP SWAP2 DUP2 DUP1 PUSH0 SWAP5 SUB SWAP2 GAS STATICCALL DUP1 ISZERO PUSH2 0x64C JUMPI PUSH2 0x540 JUMPI JUMPDEST POP PUSH1 0x40 DUP1 MLOAD PUSH1 0x20 DUP2 ADD SWAP3 DUP1 DUP5 MSTORE DUP3 DUP3 ADD MSTORE DUP2 DUP2 MSTORE PUSH2 0x515 PUSH1 0x60 DUP3 PUSH2 0x7D8 JUMP JUMPDEST DUP2 MLOAD SWAP3 DUP4 SWAP2 PUSH1 0x20 DUP4 MSTORE MLOAD DUP1 SWAP2 DUP2 PUSH1 0x20 DUP6 ADD MSTORE DUP5 DUP5 ADD MCOPY PUSH0 DUP3 DUP3 ADD DUP5 ADD MSTORE PUSH1 0x1F ADD PUSH1 0x1F NOT AND DUP2 ADD SUB ADD SWAP1 RETURN JUMPDEST RETURNDATASIZE DUP1 PUSH0 DUP4 RETURNDATACOPY PUSH2 0x54F DUP2 DUP4 PUSH2 0x7D8 JUMP JUMPDEST DUP2 ADD SWAP1 PUSH1 0x40 DUP2 DUP4 SUB SLT PUSH2 0xB3 JUMPI DUP1 MLOAD PUSH8 0xFFFFFFFFFFFFFFFF DUP2 GT PUSH2 0xB3 JUMPI DUP2 ADD DUP3 PUSH1 0x1F DUP3 ADD SLT ISZERO PUSH2 0xB3 JUMPI DUP1 MLOAD SWAP1 PUSH1 0x20 DUP1 PUSH2 0x589 DUP5 PUSH2 0x81D JUMP JUMPDEST PUSH2 0x596 PUSH1 0x40 MLOAD SWAP2 DUP3 PUSH2 0x7D8 JUMP JUMPDEST DUP5 DUP2 MSTORE ADD SWAP3 PUSH1 0x5 SHL DUP3 ADD ADD SWAP1 DUP5 DUP3 GT PUSH2 0xB3 JUMPI PUSH1 0x20 ADD SWAP2 JUMPDEST DUP2 DUP4 LT PUSH2 0x632 JUMPI POP POP POP PUSH1 0x20 DUP2 ADD MLOAD SWAP1 PUSH8 0xFFFFFFFFFFFFFFFF DUP3 GT PUSH2 0xB3 JUMPI ADD DUP2 PUSH1 0x1F DUP3 ADD SLT ISZERO PUSH2 0xB3 JUMPI DUP1 MLOAD SWAP1 PUSH1 0x20 DUP1 PUSH2 0x5E8 DUP5 PUSH2 0x81D JUMP JUMPDEST PUSH2 0x5F5 PUSH1 0x40 MLOAD SWAP2 DUP3 PUSH2 0x7D8 JUMP JUMPDEST DUP5 DUP2 MSTORE ADD SWAP3 PUSH1 0x5 SHL DUP3 ADD ADD SWAP3 DUP4 GT PUSH2 0xB3 JUMPI PUSH1 0x20 ADD SWAP1 JUMPDEST DUP3 DUP3 LT PUSH2 0x61A JUMPI POP POP PUSH2 0x4F6 JUMP JUMPDEST PUSH1 0x20 DUP1 SWAP2 PUSH2 0x627 DUP5 PUSH2 0x7FA JUMP JUMPDEST DUP2 MSTORE ADD SWAP2 ADD SWAP1 PUSH2 0x60C JUMP JUMPDEST DUP3 MLOAD DUP1 PUSH1 0x6 SIGNEXTEND DUP2 SUB PUSH2 0xB3 JUMPI DUP2 MSTORE PUSH1 0x20 SWAP3 DUP4 ADD SWAP3 ADD PUSH2 0x5AE JUMP JUMPDEST PUSH1 0x40 MLOAD RETURNDATASIZE PUSH0 DUP3 RETURNDATACOPY RETURNDATASIZE SWAP1 REVERT JUMPDEST DUP3 MLOAD PUSH4 0xFFFFFFFF AND DUP5 MSTORE DUP7 SWAP5 POP PUSH1 0x20 SWAP4 DUP5 ADD SWAP4 SWAP1 SWAP3 ADD SWAP2 PUSH1 0x1 ADD PUSH2 0x4D8 JUMP JUMPDEST PUSH4 0x4E487B71 PUSH1 0xE0 SHL PUSH0 MSTORE PUSH1 0x32 PUSH1 0x4 MSTORE PUSH1 0x24 PUSH0 REVERT JUMPDEST SWAP1 DUP1 ISZERO PUSH2 0x6A8 JUMPI PUSH15 0xC097CE7BC90715B34B9F1000000000 DIV SWAP1 PUSH2 0x454 JUMP JUMPDEST PUSH4 0x4E487B71 PUSH1 0xE0 SHL PUSH0 MSTORE PUSH1 0x12 PUSH1 0x4 MSTORE PUSH1 0x24 PUSH0 REVERT JUMPDEST SWAP2 POP PUSH1 0xE0 DUP3 RETURNDATASIZE PUSH1 0xE0 GT PUSH2 0x746 JUMPI JUMPDEST DUP2 PUSH2 0x6D7 PUSH1 0xE0 SWAP4 DUP4 PUSH2 0x7D8 JUMP JUMPDEST DUP2 ADD SUB SLT PUSH2 0xB3 JUMPI PUSH2 0x6E8 DUP3 PUSH2 0x7FA JUMP JUMPDEST SWAP2 PUSH1 0x20 DUP2 ADD MLOAD DUP1 PUSH1 0x2 SIGNEXTEND SUB PUSH2 0xB3 JUMPI PUSH2 0x703 PUSH1 0x40 DUP3 ADD PUSH2 0x80E JUMP JUMPDEST POP PUSH2 0x710 PUSH1 0x60 DUP3 ADD PUSH2 0x80E JUMP JUMPDEST POP PUSH2 0x71D PUSH1 0x80 DUP3 ADD PUSH2 0x80E JUMP JUMPDEST POP PUSH1 0xA0 DUP2 ADD MLOAD PUSH1 0xFF DUP2 AND SUB PUSH2 0xB3 JUMPI PUSH1 0xC0 ADD MLOAD DUP1 ISZERO ISZERO SUB PUSH2 0xB3 JUMPI PUSH8 0xDE0B6B3A7640000 PUSH2 0x41C JUMP JUMPDEST RETURNDATASIZE SWAP2 POP PUSH2 0x6CA JUMP JUMPDEST PUSH1 0x40 MLOAD PUSH3 0x461BCD PUSH1 0xE5 SHL DUP2 MSTORE PUSH1 0x20 PUSH1 0x4 DUP3 ADD MSTORE PUSH1 0xC PUSH1 0x24 DUP3 ADD MSTORE PUSH12 0x706F6F6C206D697373696E67 PUSH1 0xA0 SHL PUSH1 0x44 DUP3 ADD MSTORE PUSH1 0x64 SWAP1 REVERT JUMPDEST SWAP1 POP PUSH1 0x20 DUP2 RETURNDATASIZE PUSH1 0x20 GT PUSH2 0x7BC JUMPI JUMPDEST DUP2 PUSH2 0x79D PUSH1 0x20 SWAP4 DUP4 PUSH2 0x7D8 JUMP JUMPDEST DUP2 ADD SUB SLT PUSH2 0xB3 JUMPI MLOAD PUSH1 0x1 PUSH1 0x1 PUSH1 0xA0 SHL SUB DUP2 AND DUP2 SUB PUSH2 0xB3 JUMPI DUP4 PUSH2 0x3E6 JUMP JUMPDEST RETURNDATASIZE SWAP2 POP PUSH2 0x790 JUMP JUMPDEST PUSH4 0x4E487B71 PUSH1 0xE0 SHL PUSH0 MSTORE PUSH1 0x41 PUSH1 0x4 MSTORE PUSH1 0x24 PUSH0 REVERT JUMPDEST SWAP1 PUSH1 0x1F DUP1 NOT SWAP2 ADD AND DUP2 ADD SWAP1 DUP2 LT PUSH8 0xFFFFFFFFFFFFFFFF DUP3 GT OR PUSH2 0x7C4 JUMPI PUSH1 0x40 MSTORE JUMP JUMPDEST MLOAD SWAP1 PUSH1 0x1 PUSH1 0x1 PUSH1 0xA0 SHL SUB DUP3 AND DUP3 SUB PUSH2 0xB3 JUMPI JUMP JUMPDEST MLOAD SWAP1 PUSH2 0xFFFF DUP3 AND DUP3 SUB PUSH2 0xB3 JUMPI JUMP JUMPDEST PUSH8 0xFFFFFFFFFFFFFFFF DUP2 GT PUSH2 0x7C4 JUMPI PUSH1 0x5 SHL PUSH1 0x20 ADD SWAP1 JUMP JUMPDEST PUSH1 0x1 PUSH1 0x1 PUSH1 0xA0 SHL SUB SWAP1 DUP2 AND SWAP1 PUSH32 0x0 AND DUP2 DUP2 EQ DUP1 PUSH2 0x9BE JUMPI JUMPDEST PUSH2 0x967 JUMPI PUSH32 0x0 PUSH1 0x1 PUSH1 0x1 PUSH1 0xA0 SHL SUB AND DUP3 EQ SWAP1 DUP2 PUSH2 0x9AB JUMPI JUMPDEST POP PUSH2 0x9A5 JUMPI PUSH32 0x0 PUSH1 0x1 PUSH1 0x1 PUSH1 0xA0 SHL SUB AND SWAP1 DUP1 DUP3 EQ DUP1 PUSH2 0x96F JUMPI JUMPDEST PUSH2 0x967 JUMPI PUSH32 0x0 PUSH1 0x1 PUSH1 0x1 PUSH1 0xA0 SHL SUB AND EQ SWAP2 DUP3 PUSH2 0x954 JUMPI JUMPDEST POP POP PUSH2 0x950 JUMPI PUSH1 0x40 MLOAD PUSH3 0x461BCD PUSH1 0xE5 SHL DUP2 MSTORE PUSH1 0x20 PUSH1 0x4 DUP3 ADD MSTORE PUSH1 0x10 PUSH1 0x24 DUP3 ADD MSTORE PUSH16 0x3AB739BAB83837B93A32B2103830B4B9 PUSH1 0x81 SHL PUSH1 0x44 DUP3 ADD MSTORE PUSH1 0x64 SWAP1 REVERT JUMPDEST PUSH0 SWAP1 JUMP JUMPDEST PUSH1 0x1 PUSH1 0x1 PUSH1 0xA0 SHL SUB AND EQ SWAP1 POP PUSH0 DUP1 PUSH2 0x912 JUMP JUMPDEST POP POP POP PUSH1 0x1 SWAP1 JUMP JUMPDEST POP PUSH1 0x1 PUSH1 0x1 PUSH1 0xA0 SHL SUB DUP4 DUP2 AND PUSH32 0x0 SWAP1 SWAP2 AND EQ PUSH2 0x8DC JUMP JUMPDEST POP POP PUSH0 SWAP1 JUMP JUMPDEST PUSH1 0x1 PUSH1 0x1 PUSH1 0xA0 SHL SUB DUP5 AND EQ SWAP1 POP PUSH0 PUSH2 0x8A3 JUMP JUMPDEST POP PUSH1 0x1 PUSH1 0x1 PUSH1 0xA0 SHL SUB DUP4 DUP2 AND PUSH32 0x0 SWAP1 SWAP2 AND EQ PUSH2 0x86C JUMP INVALID LOG2 PUSH5 0x6970667358 0x22 SLT KECCAK256 DELEGATECALL PUSH0 RJUMP 0xB4BB 0x1F SHR 0xDB PUSH25 0xFE7066DB5211EE786D76C11B5A22E0215EC1F7FF2318B46473 PUSH16 0x6C634300081E00330000000000000000 "},"methodIdentifiers":{"canonicalExt0()":"cd852366","canonicalExt1()":"a6b12823","factory()":"c45a0155","fee()":"ddca3f43","getData((address,address,address,uint256,uint128,uint128,uint16,bool))":"3bd1104b","internalAlias0()":"dd82b275","internalAlias1()":"b24a485b","twapWindow()":"8107e133"}}}}}