{"contracts/Peripheral/DataBridges/real/SushiV2DataBridge.sol":{"SushiV2DataBridge":{"abi":[{"inputs":[{"internalType":"address","name":"_factory","type":"address"},{"internalType":"address","name":"_ext0","type":"address"},{"internalType":"address","name":"_ext1","type":"address"}],"stateMutability":"nonpayable","type":"constructor"},{"inputs":[],"name":"canonicalExt0","outputs":[{"internalType":"address","name":"","type":"address"}],"stateMutability":"view","type":"function"},{"inputs":[],"name":"canonicalExt1","outputs":[{"internalType":"address","name":"","type":"address"}],"stateMutability":"view","type":"function"},{"inputs":[],"name":"factory","outputs":[{"internalType":"address","name":"","type":"address"}],"stateMutability":"view","type":"function"},{"inputs":[{"components":[{"internalType":"address","name":"asset0","type":"address"},{"internalType":"address","name":"asset1","type":"address"},{"internalType":"address","name":"quoter","type":"address"},{"internalType":"uint256","name":"amount","type":"uint256"},{"internalType":"uint128","name":"asset0Balance","type":"uint128"},{"internalType":"uint128","name":"asset1Balance","type":"uint128"},{"internalType":"uint16","name":"bucketID","type":"uint16"},{"internalType":"bool","name":"zeroForOne","type":"bool"}],"internalType":"struct QuoteParams","name":"params","type":"tuple"}],"name":"getData","outputs":[{"internalType":"bytes","name":"","type":"bytes"}],"stateMutability":"view","type":"function"}],"evm":{"bytecode":{"linkReferences":{},"object":"60e0346100a657601f61078f38819003918201601f19168301916001600160401b038311848410176100aa578084926060946040528339810103126100a657610047816100be565b906100606040610059602084016100be565b92016100be565b9160805260a05260c0526040516106bc90816100d3823960805181818160a50152610259015260a051818181605d01526101ff015260c05181818160e901526102270152f35b5f80fd5b634e487b7160e01b5f52604160045260245ffd5b51906001600160a01b03821682036100a65756fe6080806040526004361015610012575f80fd5b5f3560e01c9081633bd1104b1461011857508063a6b12823146100d4578063c45a0155146100905763cd85236614610048575f80fd5b3461008c575f36600319011261008c576040517f00000000000000000000000000000000000000000000000000000000000000006001600160a01b03168152602090f35b5f80fd5b3461008c575f36600319011261008c576040517f00000000000000000000000000000000000000000000000000000000000000006001600160a01b03168152602090f35b3461008c575f36600319011261008c576040517f00000000000000000000000000000000000000000000000000000000000000006001600160a01b03168152602090f35b3461008c5761010036600319011261008c57610100810181811067ffffffffffffffff82111761040a576040526004356001600160a01b038116810361008c5781526024356001600160a01b038116810361008c57602082019081526044356001600160a01b038116810361008c57604083015260643560608301526084356001600160801b038116810361008c57608083015260a4356001600160801b038116810361008c5760a083015260c43561ffff8116810361008c5760c083015260e435801515810361008c5760e083015260405163e6a4390560e01b81526001600160a01b037f0000000000000000000000000000000000000000000000000000000000000000811660048301527f000000000000000000000000000000000000000000000000000000000000000081166024830152602090829060449082907f0000000000000000000000000000000000000000000000000000000000000000165afa90811561050a575f91610612575b506001600160a01b031680156105de57604051630240bc6b60e21b815290606082600481845afa91821561050a575f905f9361057f575b506001600160701b031680159283158061056d575b1561053757604051630dfe168160e01b815293602085600481875afa93841561050a576004955f95610515575b506020906040519687809263d21220a760e01b82525afa94851561050a575f956104d9575b50670de0b6b3a76400008302928304670de0b6b3a76400001417156104c5576001600160701b03169081156104525794519404936001600160a01b0391821692911690828214806104af575b1561041e57505050505b604051906040820182811067ffffffffffffffff82111761040a5760405280825260208201526040516020810191825f905b600282106103f457846040858181526103c9606082610631565b8151928391602083525180918160208501528484015e5f828201840152601f01601f19168101030190f35b60208060019285518152019301910190916103af565b634e487b7160e01b5f52604160045260245ffd5b6001600160a01b031614918261049b575b505015610466578015610452576ec097ce7bc90715b34b9f10000000000461037d565b634e487b7160e01b5f52601260045260245ffd5b60405162461bcd60e51b815260206004820152600d60248201526c0e0c2d2e440dad2e6dac2e8c6d609b1b6044820152606490fd5b516001600160a01b0316149050828061042f565b5083516001600160a01b03828116911614610373565b634e487b7160e01b5f52601160045260245ffd5b6104fc91955060203d602011610503575b6104f48183610631565b810190610653565b9387610327565b503d6104ea565b6040513d5f823e3d90fd5b602091955061053090823d8411610503576104f48183610631565b9490610302565b60405162461bcd60e51b815260206004820152600e60248201526d656d70747920726573657276657360901b6044820152606490fd5b506001600160701b03811615156102d5565b9250506060823d6060116105d6575b8161059b60609383610631565b8101031261008c576105ac82610672565b60406105ba60208501610672565b93015163ffffffff81160361008c576001600160701b036102c0565b3d915061058e565b60405162461bcd60e51b815260206004820152600c60248201526b70616972206d697373696e6760a01b6044820152606490fd5b61062b915060203d602011610503576104f48183610631565b83610289565b90601f8019910116810190811067ffffffffffffffff82111761040a57604052565b9081602091031261008c57516001600160a01b038116810361008c5790565b51906001600160701b038216820361008c5756fea26469706673582212207a34f39f6aee0dac846f41bd872c78e1ed2d2fc1d7cab8aa102c0f1ca9cefc8964736f6c634300081e0033","opcodes":"PUSH1 0xE0 CALLVALUE PUSH2 0xA6 JUMPI PUSH1 0x1F PUSH2 0x78F CODESIZE DUP2 SWAP1 SUB SWAP2 DUP3 ADD PUSH1 0x1F NOT AND DUP4 ADD SWAP2 PUSH1 0x1 PUSH1 0x1 PUSH1 0x40 SHL SUB DUP4 GT DUP5 DUP5 LT OR PUSH2 0xAA JUMPI DUP1 DUP5 SWAP3 PUSH1 0x60 SWAP5 PUSH1 0x40 MSTORE DUP4 CODECOPY DUP2 ADD SUB SLT PUSH2 0xA6 JUMPI PUSH2 0x47 DUP2 PUSH2 0xBE JUMP JUMPDEST SWAP1 PUSH2 0x60 PUSH1 0x40 PUSH2 0x59 PUSH1 0x20 DUP5 ADD PUSH2 0xBE JUMP JUMPDEST SWAP3 ADD PUSH2 0xBE JUMP JUMPDEST SWAP2 PUSH1 0x80 MSTORE PUSH1 0xA0 MSTORE PUSH1 0xC0 MSTORE PUSH1 0x40 MLOAD PUSH2 0x6BC SWAP1 DUP2 PUSH2 0xD3 DUP3 CODECOPY PUSH1 0x80 MLOAD DUP2 DUP2 DUP2 PUSH1 0xA5 ADD MSTORE PUSH2 0x259 ADD MSTORE PUSH1 0xA0 MLOAD DUP2 DUP2 DUP2 PUSH1 0x5D ADD MSTORE PUSH2 0x1FF ADD MSTORE PUSH1 0xC0 MLOAD DUP2 DUP2 DUP2 PUSH1 0xE9 ADD MSTORE PUSH2 0x227 ADD MSTORE RETURN JUMPDEST PUSH0 DUP1 REVERT JUMPDEST PUSH4 0x4E487B71 PUSH1 0xE0 SHL PUSH0 MSTORE PUSH1 0x41 PUSH1 0x4 MSTORE PUSH1 0x24 PUSH0 REVERT JUMPDEST MLOAD SWAP1 PUSH1 0x1 PUSH1 0x1 PUSH1 0xA0 SHL SUB DUP3 AND DUP3 SUB PUSH2 0xA6 JUMPI JUMP INVALID PUSH1 0x80 DUP1 PUSH1 0x40 MSTORE PUSH1 0x4 CALLDATASIZE LT ISZERO PUSH2 0x12 JUMPI PUSH0 DUP1 REVERT JUMPDEST PUSH0 CALLDATALOAD PUSH1 0xE0 SHR SWAP1 DUP2 PUSH4 0x3BD1104B EQ PUSH2 0x118 JUMPI POP DUP1 PUSH4 0xA6B12823 EQ PUSH2 0xD4 JUMPI DUP1 PUSH4 0xC45A0155 EQ PUSH2 0x90 JUMPI PUSH4 0xCD852366 EQ PUSH2 0x48 JUMPI PUSH0 DUP1 REVERT JUMPDEST CALLVALUE PUSH2 0x8C JUMPI PUSH0 CALLDATASIZE PUSH1 0x3 NOT ADD SLT PUSH2 0x8C JUMPI PUSH1 0x40 MLOAD PUSH32 0x0 PUSH1 0x1 PUSH1 0x1 PUSH1 0xA0 SHL SUB AND DUP2 MSTORE PUSH1 0x20 SWAP1 RETURN JUMPDEST PUSH0 DUP1 REVERT JUMPDEST CALLVALUE PUSH2 0x8C JUMPI PUSH0 CALLDATASIZE PUSH1 0x3 NOT ADD SLT PUSH2 0x8C JUMPI PUSH1 0x40 MLOAD PUSH32 0x0 PUSH1 0x1 PUSH1 0x1 PUSH1 0xA0 SHL SUB AND DUP2 MSTORE PUSH1 0x20 SWAP1 RETURN JUMPDEST CALLVALUE PUSH2 0x8C JUMPI PUSH0 CALLDATASIZE PUSH1 0x3 NOT ADD SLT PUSH2 0x8C JUMPI PUSH1 0x40 MLOAD PUSH32 0x0 PUSH1 0x1 PUSH1 0x1 PUSH1 0xA0 SHL SUB AND DUP2 MSTORE PUSH1 0x20 SWAP1 RETURN JUMPDEST CALLVALUE PUSH2 0x8C JUMPI PUSH2 0x100 CALLDATASIZE PUSH1 0x3 NOT ADD SLT PUSH2 0x8C JUMPI PUSH2 0x100 DUP2 ADD DUP2 DUP2 LT PUSH8 0xFFFFFFFFFFFFFFFF DUP3 GT OR PUSH2 0x40A JUMPI PUSH1 0x40 MSTORE PUSH1 0x4 CALLDATALOAD PUSH1 0x1 PUSH1 0x1 PUSH1 0xA0 SHL SUB DUP2 AND DUP2 SUB PUSH2 0x8C JUMPI DUP2 MSTORE PUSH1 0x24 CALLDATALOAD PUSH1 0x1 PUSH1 0x1 PUSH1 0xA0 SHL SUB DUP2 AND DUP2 SUB PUSH2 0x8C JUMPI PUSH1 0x20 DUP3 ADD SWAP1 DUP2 MSTORE PUSH1 0x44 CALLDATALOAD PUSH1 0x1 PUSH1 0x1 PUSH1 0xA0 SHL SUB DUP2 AND DUP2 SUB PUSH2 0x8C JUMPI PUSH1 0x40 DUP4 ADD MSTORE PUSH1 0x64 CALLDATALOAD PUSH1 0x60 DUP4 ADD MSTORE PUSH1 0x84 CALLDATALOAD PUSH1 0x1 PUSH1 0x1 PUSH1 0x80 SHL SUB DUP2 AND DUP2 SUB PUSH2 0x8C JUMPI PUSH1 0x80 DUP4 ADD MSTORE PUSH1 0xA4 CALLDATALOAD PUSH1 0x1 PUSH1 0x1 PUSH1 0x80 SHL SUB DUP2 AND DUP2 SUB PUSH2 0x8C JUMPI PUSH1 0xA0 DUP4 ADD MSTORE PUSH1 0xC4 CALLDATALOAD PUSH2 0xFFFF DUP2 AND DUP2 SUB PUSH2 0x8C JUMPI PUSH1 0xC0 DUP4 ADD MSTORE PUSH1 0xE4 CALLDATALOAD DUP1 ISZERO ISZERO DUP2 SUB PUSH2 0x8C JUMPI PUSH1 0xE0 DUP4 ADD MSTORE PUSH1 0x40 MLOAD PUSH4 0xE6A43905 PUSH1 0xE0 SHL DUP2 MSTORE PUSH1 0x1 PUSH1 0x1 PUSH1 0xA0 SHL SUB PUSH32 0x0 DUP2 AND PUSH1 0x4 DUP4 ADD MSTORE PUSH32 0x0 DUP2 AND PUSH1 0x24 DUP4 ADD MSTORE PUSH1 0x20 SWAP1 DUP3 SWAP1 PUSH1 0x44 SWAP1 DUP3 SWAP1 PUSH32 0x0 AND GAS STATICCALL SWAP1 DUP2 ISZERO PUSH2 0x50A JUMPI PUSH0 SWAP2 PUSH2 0x612 JUMPI JUMPDEST POP PUSH1 0x1 PUSH1 0x1 PUSH1 0xA0 SHL SUB AND DUP1 ISZERO PUSH2 0x5DE JUMPI PUSH1 0x40 MLOAD PUSH4 0x240BC6B PUSH1 0xE2 SHL DUP2 MSTORE SWAP1 PUSH1 0x60 DUP3 PUSH1 0x4 DUP2 DUP5 GAS STATICCALL SWAP2 DUP3 ISZERO PUSH2 0x50A JUMPI PUSH0 SWAP1 PUSH0 SWAP4 PUSH2 0x57F JUMPI JUMPDEST POP PUSH1 0x1 PUSH1 0x1 PUSH1 0x70 SHL SUB AND DUP1 ISZERO SWAP3 DUP4 ISZERO DUP1 PUSH2 0x56D JUMPI JUMPDEST ISZERO PUSH2 0x537 JUMPI PUSH1 0x40 MLOAD PUSH4 0xDFE1681 PUSH1 0xE0 SHL DUP2 MSTORE SWAP4 PUSH1 0x20 DUP6 PUSH1 0x4 DUP2 DUP8 GAS STATICCALL SWAP4 DUP5 ISZERO PUSH2 0x50A JUMPI PUSH1 0x4 SWAP6 PUSH0 SWAP6 PUSH2 0x515 JUMPI JUMPDEST POP PUSH1 0x20 SWAP1 PUSH1 0x40 MLOAD SWAP7 DUP8 DUP1 SWAP3 PUSH4 0xD21220A7 PUSH1 0xE0 SHL DUP3 MSTORE GAS STATICCALL SWAP5 DUP6 ISZERO PUSH2 0x50A JUMPI PUSH0 SWAP6 PUSH2 0x4D9 JUMPI JUMPDEST POP PUSH8 0xDE0B6B3A7640000 DUP4 MUL SWAP3 DUP4 DIV PUSH8 0xDE0B6B3A7640000 EQ OR ISZERO PUSH2 0x4C5 JUMPI PUSH1 0x1 PUSH1 0x1 PUSH1 0x70 SHL SUB AND SWAP1 DUP2 ISZERO PUSH2 0x452 JUMPI SWAP5 MLOAD SWAP5 DIV SWAP4 PUSH1 0x1 PUSH1 0x1 PUSH1 0xA0 SHL SUB SWAP2 DUP3 AND SWAP3 SWAP2 AND SWAP1 DUP3 DUP3 EQ DUP1 PUSH2 0x4AF JUMPI JUMPDEST ISZERO PUSH2 0x41E JUMPI POP POP POP POP JUMPDEST PUSH1 0x40 MLOAD SWAP1 PUSH1 0x40 DUP3 ADD DUP3 DUP2 LT PUSH8 0xFFFFFFFFFFFFFFFF DUP3 GT OR PUSH2 0x40A JUMPI PUSH1 0x40 MSTORE DUP1 DUP3 MSTORE PUSH1 0x20 DUP3 ADD MSTORE PUSH1 0x40 MLOAD PUSH1 0x20 DUP2 ADD SWAP2 DUP3 PUSH0 SWAP1 JUMPDEST PUSH1 0x2 DUP3 LT PUSH2 0x3F4 JUMPI DUP5 PUSH1 0x40 DUP6 DUP2 DUP2 MSTORE PUSH2 0x3C9 PUSH1 0x60 DUP3 PUSH2 0x631 JUMP JUMPDEST DUP2 MLOAD SWAP3 DUP4 SWAP2 PUSH1 0x20 DUP4 MSTORE MLOAD DUP1 SWAP2 DUP2 PUSH1 0x20 DUP6 ADD MSTORE DUP5 DUP5 ADD MCOPY PUSH0 DUP3 DUP3 ADD DUP5 ADD MSTORE PUSH1 0x1F ADD PUSH1 0x1F NOT AND DUP2 ADD SUB ADD SWAP1 RETURN JUMPDEST PUSH1 0x20 DUP1 PUSH1 0x1 SWAP3 DUP6 MLOAD DUP2 MSTORE ADD SWAP4 ADD SWAP2 ADD SWAP1 SWAP2 PUSH2 0x3AF JUMP JUMPDEST PUSH4 0x4E487B71 PUSH1 0xE0 SHL PUSH0 MSTORE PUSH1 0x41 PUSH1 0x4 MSTORE PUSH1 0x24 PUSH0 REVERT JUMPDEST PUSH1 0x1 PUSH1 0x1 PUSH1 0xA0 SHL SUB AND EQ SWAP2 DUP3 PUSH2 0x49B JUMPI JUMPDEST POP POP ISZERO PUSH2 0x466 JUMPI DUP1 ISZERO PUSH2 0x452 JUMPI PUSH15 0xC097CE7BC90715B34B9F1000000000 DIV PUSH2 0x37D JUMP JUMPDEST PUSH4 0x4E487B71 PUSH1 0xE0 SHL PUSH0 MSTORE PUSH1 0x12 PUSH1 0x4 MSTORE PUSH1 0x24 PUSH0 REVERT JUMPDEST PUSH1 0x40 MLOAD PUSH3 0x461BCD PUSH1 0xE5 SHL DUP2 MSTORE PUSH1 0x20 PUSH1 0x4 DUP3 ADD MSTORE PUSH1 0xD PUSH1 0x24 DUP3 ADD MSTORE PUSH13 0xE0C2D2E440DAD2E6DAC2E8C6D PUSH1 0x9B SHL PUSH1 0x44 DUP3 ADD MSTORE PUSH1 0x64 SWAP1 REVERT JUMPDEST MLOAD PUSH1 0x1 PUSH1 0x1 PUSH1 0xA0 SHL SUB AND EQ SWAP1 POP DUP3 DUP1 PUSH2 0x42F JUMP JUMPDEST POP DUP4 MLOAD PUSH1 0x1 PUSH1 0x1 PUSH1 0xA0 SHL SUB DUP3 DUP2 AND SWAP2 AND EQ PUSH2 0x373 JUMP JUMPDEST PUSH4 0x4E487B71 PUSH1 0xE0 SHL PUSH0 MSTORE PUSH1 0x11 PUSH1 0x4 MSTORE PUSH1 0x24 PUSH0 REVERT JUMPDEST PUSH2 0x4FC SWAP2 SWAP6 POP PUSH1 0x20 RETURNDATASIZE PUSH1 0x20 GT PUSH2 0x503 JUMPI JUMPDEST PUSH2 0x4F4 DUP2 DUP4 PUSH2 0x631 JUMP JUMPDEST DUP2 ADD SWAP1 PUSH2 0x653 JUMP JUMPDEST SWAP4 DUP8 PUSH2 0x327 JUMP JUMPDEST POP RETURNDATASIZE PUSH2 0x4EA JUMP JUMPDEST PUSH1 0x40 MLOAD RETURNDATASIZE PUSH0 DUP3 RETURNDATACOPY RETURNDATASIZE SWAP1 REVERT JUMPDEST PUSH1 0x20 SWAP2 SWAP6 POP PUSH2 0x530 SWAP1 DUP3 RETURNDATASIZE DUP5 GT PUSH2 0x503 JUMPI PUSH2 0x4F4 DUP2 DUP4 PUSH2 0x631 JUMP JUMPDEST SWAP5 SWAP1 PUSH2 0x302 JUMP JUMPDEST PUSH1 0x40 MLOAD PUSH3 0x461BCD PUSH1 0xE5 SHL DUP2 MSTORE PUSH1 0x20 PUSH1 0x4 DUP3 ADD MSTORE PUSH1 0xE PUSH1 0x24 DUP3 ADD MSTORE PUSH14 0x656D707479207265736572766573 PUSH1 0x90 SHL PUSH1 0x44 DUP3 ADD MSTORE PUSH1 0x64 SWAP1 REVERT JUMPDEST POP PUSH1 0x1 PUSH1 0x1 PUSH1 0x70 SHL SUB DUP2 AND ISZERO ISZERO PUSH2 0x2D5 JUMP JUMPDEST SWAP3 POP POP PUSH1 0x60 DUP3 RETURNDATASIZE PUSH1 0x60 GT PUSH2 0x5D6 JUMPI JUMPDEST DUP2 PUSH2 0x59B PUSH1 0x60 SWAP4 DUP4 PUSH2 0x631 JUMP JUMPDEST DUP2 ADD SUB SLT PUSH2 0x8C JUMPI PUSH2 0x5AC DUP3 PUSH2 0x672 JUMP JUMPDEST PUSH1 0x40 PUSH2 0x5BA PUSH1 0x20 DUP6 ADD PUSH2 0x672 JUMP JUMPDEST SWAP4 ADD MLOAD PUSH4 0xFFFFFFFF DUP2 AND SUB PUSH2 0x8C JUMPI PUSH1 0x1 PUSH1 0x1 PUSH1 0x70 SHL SUB PUSH2 0x2C0 JUMP JUMPDEST RETURNDATASIZE SWAP2 POP PUSH2 0x58E JUMP JUMPDEST PUSH1 0x40 MLOAD PUSH3 0x461BCD PUSH1 0xE5 SHL DUP2 MSTORE PUSH1 0x20 PUSH1 0x4 DUP3 ADD MSTORE PUSH1 0xC PUSH1 0x24 DUP3 ADD MSTORE PUSH12 0x70616972206D697373696E67 PUSH1 0xA0 SHL PUSH1 0x44 DUP3 ADD MSTORE PUSH1 0x64 SWAP1 REVERT JUMPDEST PUSH2 0x62B SWAP2 POP PUSH1 0x20 RETURNDATASIZE PUSH1 0x20 GT PUSH2 0x503 JUMPI PUSH2 0x4F4 DUP2 DUP4 PUSH2 0x631 JUMP JUMPDEST DUP4 PUSH2 0x289 JUMP JUMPDEST SWAP1 PUSH1 0x1F DUP1 NOT SWAP2 ADD AND DUP2 ADD SWAP1 DUP2 LT PUSH8 0xFFFFFFFFFFFFFFFF DUP3 GT OR PUSH2 0x40A JUMPI PUSH1 0x40 MSTORE JUMP JUMPDEST SWAP1 DUP2 PUSH1 0x20 SWAP2 SUB SLT PUSH2 0x8C JUMPI MLOAD PUSH1 0x1 PUSH1 0x1 PUSH1 0xA0 SHL SUB DUP2 AND DUP2 SUB PUSH2 0x8C JUMPI SWAP1 JUMP JUMPDEST MLOAD SWAP1 PUSH1 0x1 PUSH1 0x1 PUSH1 0x70 SHL SUB DUP3 AND DUP3 SUB PUSH2 0x8C JUMPI JUMP INVALID LOG2 PUSH5 0x6970667358 0x22 SLT KECCAK256 PUSH27 0x34F39F6AEE0DAC846F41BD872C78E1ED2D2FC1D7CAB8AA102C0F1C 0xA9 0xCE 0xFC DUP10 PUSH5 0x736F6C6343 STOP ADDMOD 0x1E STOP CALLER "},"methodIdentifiers":{"canonicalExt0()":"cd852366","canonicalExt1()":"a6b12823","factory()":"c45a0155","getData((address,address,address,uint256,uint128,uint128,uint16,bool))":"3bd1104b"}}}}}