{"contracts/Peripheral/quoters/real/RealDataBridge/tests/StoicovQuoterHarness.sol":{"StoicovQuoterHarness":{"abi":[{"inputs":[{"internalType":"uint8","name":"kIdx","type":"uint8"},{"internalType":"uint8","name":"invMode","type":"uint8"},{"internalType":"bool","name":"gammaSelHigh","type":"bool"},{"internalType":"bool","name":"sigmaFixed","type":"bool"},{"internalType":"bool","name":"gammaZero","type":"bool"}],"name":"buildBucketID","outputs":[{"internalType":"uint16","name":"","type":"uint16"}],"stateMutability":"pure","type":"function"},{"inputs":[{"components":[{"internalType":"address","name":"asset0","type":"address"},{"internalType":"address","name":"asset1","type":"address"},{"internalType":"address","name":"quoter","type":"address"},{"internalType":"uint256","name":"amount","type":"uint256"},{"internalType":"uint128","name":"asset0Balance","type":"uint128"},{"internalType":"uint128","name":"asset1Balance","type":"uint128"},{"internalType":"uint16","name":"bucketID","type":"uint16"},{"internalType":"bool","name":"zeroForOne","type":"bool"},{"internalType":"uint8","name":"functionFlags","type":"uint8"}],"internalType":"struct QuoteParams","name":"params","type":"tuple"},{"internalType":"bytes","name":"data","type":"bytes"}],"name":"debugPrices","outputs":[{"internalType":"uint128","name":"midQ","type":"uint128"},{"internalType":"uint128","name":"reservationQ","type":"uint128"},{"internalType":"uint128","name":"bidQ","type":"uint128"},{"internalType":"uint128","name":"askQ","type":"uint128"}],"stateMutability":"pure","type":"function"},{"inputs":[{"internalType":"uint16","name":"bucketID","type":"uint16"},{"internalType":"uint32","name":"sigma2TauPpb","type":"uint32"}],"name":"deltaStarPrecomp","outputs":[{"internalType":"uint64","name":"","type":"uint64"}],"stateMutability":"pure","type":"function"},{"inputs":[{"internalType":"uint8","name":"idx","type":"uint8"},{"internalType":"uint32","name":"scalePpb","type":"uint32"}],"name":"gammaFromScaleAndIdx","outputs":[{"internalType":"uint32","name":"","type":"uint32"}],"stateMutability":"pure","type":"function"},{"inputs":[],"name":"gammaHighPpb","outputs":[{"internalType":"uint32","name":"","type":"uint32"}],"stateMutability":"pure","type":"function"},{"inputs":[],"name":"gammaHighScalePpb","outputs":[{"internalType":"uint32","name":"","type":"uint32"}],"stateMutability":"pure","type":"function"},{"inputs":[],"name":"gammaLowScalePpb","outputs":[{"internalType":"uint32","name":"","type":"uint32"}],"stateMutability":"pure","type":"function"},{"inputs":[],"name":"gammaMidPpb","outputs":[{"internalType":"uint32","name":"","type":"uint32"}],"stateMutability":"pure","type":"function"},{"inputs":[],"name":"gammaMidScalePpb","outputs":[{"internalType":"uint32","name":"","type":"uint32"}],"stateMutability":"pure","type":"function"},{"inputs":[{"internalType":"uint16","name":"bucketID","type":"uint16"}],"name":"gammaScalePpbOf","outputs":[{"internalType":"uint32","name":"","type":"uint32"}],"stateMutability":"pure","type":"function"},{"inputs":[{"internalType":"uint8","name":"idx","type":"uint8"}],"name":"invKppbFromIdx","outputs":[{"internalType":"uint32","name":"","type":"uint32"}],"stateMutability":"pure","type":"function"},{"inputs":[{"components":[{"internalType":"address","name":"asset0","type":"address"},{"internalType":"address","name":"asset1","type":"address"},{"internalType":"address","name":"quoter","type":"address"},{"internalType":"uint256","name":"amount","type":"uint256"},{"internalType":"uint128","name":"asset0Balance","type":"uint128"},{"internalType":"uint128","name":"asset1Balance","type":"uint128"},{"internalType":"uint16","name":"bucketID","type":"uint16"},{"internalType":"bool","name":"zeroForOne","type":"bool"},{"internalType":"uint8","name":"functionFlags","type":"uint8"}],"internalType":"struct QuoteParams","name":"params","type":"tuple"},{"internalType":"bytes","name":"data","type":"bytes"}],"name":"quote","outputs":[{"internalType":"uint256","name":"","type":"uint256"}],"stateMutability":"view","type":"function"},{"inputs":[{"components":[{"internalType":"address","name":"asset0","type":"address"},{"internalType":"address","name":"asset1","type":"address"},{"internalType":"address","name":"quoter","type":"address"},{"internalType":"uint256[]","name":"amount","type":"uint256[]"},{"internalType":"uint128[]","name":"asset0Balances","type":"uint128[]"},{"internalType":"uint128[]","name":"asset1Balances","type":"uint128[]"},{"internalType":"uint16[]","name":"bucketID","type":"uint16[]"},{"internalType":"bool","name":"zeroForOne","type":"bool"},{"internalType":"uint8","name":"functionFlags","type":"uint8"}],"internalType":"struct QuoteParamsBatch","name":"params","type":"tuple"},{"internalType":"bytes","name":"data","type":"bytes"}],"name":"quoteBatch","outputs":[{"internalType":"uint256[]","name":"quotes","type":"uint256[]"}],"stateMutability":"view","type":"function"},{"inputs":[{"internalType":"uint16","name":"bucketID","type":"uint16"}],"name":"requiresSigmaData","outputs":[{"internalType":"bool","name":"","type":"bool"}],"stateMutability":"pure","type":"function"},{"inputs":[{"internalType":"uint16","name":"bucketID","type":"uint16"}],"name":"sigmaIsFixed","outputs":[{"internalType":"bool","name":"","type":"bool"}],"stateMutability":"pure","type":"function"},{"inputs":[{"internalType":"uint8","name":"idx","type":"uint8"},{"internalType":"uint32","name":"gammaPpb","type":"uint32"}],"name":"term2ByGammaFromIdx","outputs":[{"internalType":"uint32","name":"","type":"uint32"}],"stateMutability":"pure","type":"function"}],"evm":{"bytecode":{"linkReferences":{},"object":"6080806040523460155761217c908161001a8239f35b5f80fdfe6080806040526004361015610012575f80fd5b5f3560e01c9081630234beb71461078d575080633c1ee1d2146107615780634a42e6ed1461072457806365d8f9e2146101aa5780636f96a0a3146106f757806372e072791461027157806382e8a97c1461024e5780639b6f3a4814610214578063abfebfd1146101f3578063b3a3272c146101af578063b7ec31e1146101aa578063ceb5ee6414610190578063d8035700146100fd578063daf67cdd146100f8578063e3463b7a146100f85763f1ae5ea3146100cc575f80fd5b346100f45760203660031901126100f457602060806100e96107bb565b161515604051908152f35b5f80fd5b610a6f565b346100f45760a03660031901126100f4576101166107cc565b60243560ff811681036100f4576044359081151582036100f45760643580151581036100f4576084359182151583036100f4576030600f602096169160041b161792610186575b61017c575b610173575b61ffff60405191168152f35b61010017610167565b9060801790610162565b916040179161015d565b346100f4575f3660031901126100f45760206040515f8152f35b6107ef565b346100f45760806001600160801b0380806101d26101cc36610974565b9061154c565b93929590918160405197168752166020860152166040840152166060820152f35b346100f457602061020c61020636610974565b90610d9f565b604051908152f35b346100f45760403660031901126100f45760206102406102326107cc565b61023a6107dc565b90611a4d565b63ffffffff60405191168152f35b346100f45760203660031901126100f457602061024061026c6107cc565b611f75565b346100f45760403660031901126100f4576004356001600160401b0381116100f45761012060031982360301126100f4576040516102ae8161080d565b6102ba8260040161087a565b81526102c86024830161087a565b91602082019283526102dc6044820161087a565b926040830193845260648201356001600160401b0381116100f4578201366023820112156100f4576004810135906103138261088e565b916103216040519384610859565b808352602060048185019260051b84010101913683116100f457602401905b8282106106e7575050506060840190815260848301356001600160401b0381116100f45761037490600436918601016108a5565b926080850193845260a48101356001600160401b0381116100f45761039f90600436918401016108a5565b9060a0860191825260c48101356001600160401b0381116100f457810190366023830112156100f45760048201356103d68161088e565b926103e46040519485610859565b818452602060048186019360051b83010101903682116100f457602401915b8183106106cc5750505060c0870191825260e48101359081151582036100f45760e0880191825261010401359160ff831683036100f45761010088019283526024356001600160401b0381116100f45761046490989598369060040161092e565b938851519761048b6104758a61088e565b996104836040519b8c610859565b808b5261088e565b60208a0190601f190136823760208701975f5b8c51805182101561068857908e8989898f9589868080808f958d600160a01b600190039051169c600160a01b600190039051169a600160a01b60019003905116946104e891610aad565b519451906104f591610aad565b516001600160801b031694519061050b91610aad565b516001600160801b031694519061052191610aad565b5161ffff1694511515955160ff16966040519961053d8b61080d565b8a5260208a019081526040808b0192835260608b0193845260808b0194855260a08b0195865260c08b0196875260e08b019788526101008b019889525163abfebfd160e01b815299516001600160a01b0390811660048c01529051811660248b01529051166044890152516064880152516001600160801b03908116608488015290511660a48601525161ffff1660c485015251151560e48401525160ff16610104830152610140610124830152895161014483018190528290808d61016484015e808201610164015f9052601f1990601f011681010361016401823091815a93602094fa801561067d578d925f91610645575b5061063e82600194610aad565b520161049e565b9250506020823d8211610675575b8161066060209383610859565b810103126100f45790518c919061063e610631565b3d9150610653565b6040513d5f823e3d90fd5b838d604051918291602083019060208452518091526040830191905f5b8181106106b3575050500390f35b82518452859450602093840193909201916001016106a5565b823561ffff811681036100f457815260209283019201610403565b8135815260209182019101610340565b346100f45760203660031901126100f457602061071a6107156107bb565b610a8d565b6040519015158152f35b346100f45760403660031901126100f45760206107506107426107bb565b61074a6107dc565b9061194f565b6001600160401b0360405191168152f35b346100f45760403660031901126100f457602061024061077f6107cc565b6107876107dc565b90611ef8565b346100f45760203660031901126100f45760209063ffffffff6107b66107b16107bb565b611905565b168152f35b6004359061ffff821682036100f457565b6004359060ff821682036100f457565b6024359063ffffffff821682036100f457565b346100f4575f3660031901126100f4576020604051631dcd65008152f35b61012081019081106001600160401b0382111761082957604052565b634e487b7160e01b5f52604160045260245ffd5b61020081019081106001600160401b0382111761082957604052565b90601f801991011681019081106001600160401b0382111761082957604052565b35906001600160a01b03821682036100f457565b6001600160401b0381116108295760051b60200190565b9080601f830112156100f4578135906108bd8261088e565b926108cb6040519485610859565b82845260208085019360051b8201019182116100f457602001915b8183106108f35750505090565b82356001600160801b03811681036100f4578152602092830192016108e6565b6001600160401b03811161082957601f01601f191660200190565b81601f820112156100f45780359061094582610913565b926109536040519485610859565b828452602083830101116100f457815f926020809301838601378301015290565b90600319820161014081126100f457610120136100f4576040516109978161080d565b6004356001600160a01b03811681036100f45781526024356001600160a01b03811681036100f45760208201526044356001600160a01b03811681036100f457604082015260643560608201526084356001600160801b03811681036100f457608082015260a4356001600160801b03811681036100f45760a082015260c43561ffff811681036100f45760c082015260e43580151581036100f45760e08201526101043560ff811681036100f4576101008201529161012435906001600160401b0382116100f457610a6c9160040161092e565b90565b346100f4575f3660031901126100f4576020604051633b9aca008152f35b63ffffffff610a9b82611905565b1615610aa8576080161590565b505f90565b8051821015610ac15760209160051b010190565b634e487b7160e01b5f52603260045260245ffd5b81601f820112156100f457805190610aec82610913565b92610afa6040519485610859565b828452602083830101116100f457815f9260208093018386015e8301015290565b91909160a0818403126100f45780516001600160401b0381116100f45783610b44918301610ad5565b9260208201516001600160401b0381116100f45781610b64918401610ad5565b9260408301516001600160401b0381116100f45782610b84918501610ad5565b9260608101516001600160401b0381116100f45783610ba4918301610ad5565b9260808201516001600160401b0381116100f457610a6c9201610ad5565b519060ff821682036100f457565b51906001600160801b03821682036100f457565b519061ffff821682036100f457565b9190826101009103126100f457610c0982610bc2565b91610c1660208201610bd0565b91610c2360408301610bd0565b91610c3060608201610bd0565b91610c3d60808301610bd0565b9160a08101516001600160401b03811681036100f45791610a6c60e0610c6560c08501610be4565b9301610be4565b91908201809211610c7957565b634e487b7160e01b5f52601160045260245ffd5b5f198114610c795760010190565b8115610ca5570490565b634e487b7160e01b5f52601260045260245ffd5b81810292918115918404141715610c7957565b908160011b9180830560021490151715610c7957565b90633b9aca00820291808305633b9aca001490151715610c7957565b81810292915f8212600160ff1b821416610c79578184051490151715610c7957565b8115610ca557600160ff1b81145f19831416610c79570590565b90633b9ac9ff198201918213600116610c7957565b81810392915f138015828513169184121617610c7957565b600160ff1b8114610c79575f0390565b9190915f8382019384129112908015821691151617610c7957565b91908203918211610c7957565b90610db39060208082518301019101610b1b565b9350505050805190811561154557602080610dd2938301019101610bf3565b9495929150925f955f9360018916151580611533575b61151e575b506002881615158061150c575b6114e6575b50600487161515806114d4575b6114ae575b506008861615158061149c575b611478575b50801561146e57610e3e6001600160801b0391600495610c9b565b60e0870151911692901561145a5785516020906001600160a01b03165b60405163313ce56760e01b815295869182906001600160a01b03165afa92831561067d575f9361141e575b60e0870151600495501561140b576020878101516001600160a01b03165b60405163313ce56760e01b815296879182906001600160a01b03165afa94851561067d575f956113cf575b5060c087015161ffff811692600f821694610ee985611905565b98610ef48a88611a4d565b925f91602081161515806113c2575b1561138e57505050608090925b1615801592906113675750633b9aca00610f3863ffffffff610f3188611f75565b1680610cb9565b04945b610f4481611f75565b95610f4f8a83611ef8565b998415611318576003610f6460ff9285611ef8565b975b60041c161660018103611304575060015b610f8086611a7d565b5060a08c01516020808e015160405163313ce56760e01b8152926001600160801b03169190839060049082906001600160a01b03165afa91821561067d578e905f936112bf575b505160405163313ce56760e01b81529190602090839060049082906001600160a01b03165afa90811561067d5789925f9261127c575b509261100893611d00565b9060808d01611021836001600160801b03835116610c6c565b91826111c857505050505f935b156111835750611079633b9aca00926110746402540be40061105863ffffffff610f318897611f75565b049163ffffffff5f88121597885f1461117457915b1690610cb9565b610cb9565b04049015611166575b620186a0810290808205620186a01490151715610c79576110dc9363ffffffff806001600160801b036110ca8296633b9aca006110c36110d4985b83610cfe565b0590610d4f565b1699169116610d4f565b911690610d77565b5f811261115f575b63ffffffff169283633b9aca0003633b9aca008111610c795761110f6001600160801b039183611afb565b1693633b9aca00019081633b9aca0011610c79576001600160801b039161113591611afb565b60e08601519116901561115057506060610a6c940151611d47565b92506060610a6c940151611d00565b505f6110e4565b61116f90610d67565b611082565b61117d90610d67565b9161106d565b63ffffffff948592506110ca6001600160801b0391633b9aca006110c3816111c26110d49a826110dc9f9b8b9a8b6111bb9216610cb9565b0490610cfe565b056110bd565b60038110156112685760028103611203575050633b9aca00820291808304633b9aca001490151715610c79576111fd91610c9b565b9361102e565b9192509060010361123c576001600160801b0390511690633b9aca00820291808304633b9aca001490151715610c79576111fd91610c9b565b6111fd9161125e6112596001600160801b03611263945116610ccc565b610ce2565b610d20565b610d3a565b634e487b7160e01b5f52602160045260245ffd5b925090506020823d6020116112b7575b8161129960209383610859565b810103126100f457611008926112af8a93610bc2565b919093610ffd565b3d915061128c565b919250506020813d6020116112fc575b816112dc60209383610859565b810103126100f4578d9160206112f3600493610bc2565b93919250610fc7565b3d91506112cf565b600203611312576002610f77565b5f610f77565b5063ffffffff8316818115801561135f575b1561133c57505060ff60035f97610f66565b63ffffffff633b9aca0061135460039360ff95610cb9565b0460011c1697610f66565b50801561132a565b61ffff611375911680610cb9565b600a810290808204600a1490151715610c795794610f3b565b60409192959350161515806113b5575b6113ac575b50608090610f10565b925060806113a3565b5061ffff8116151561139e565b5061ffff84161515610f03565b9094506020813d602011611403575b816113eb60209383610859565b810103126100f4576113fc90610bc2565b935f610ecf565b3d91506113de565b86516020906001600160a01b0316610ea4565b92506020843d602011611452575b8161143960209383610859565b810103126100f45761144c600494610bc2565b92610e86565b3d915061142c565b6020868101516001600160a01b0316610e5b565b5050505050505f90565b61149691946001600160801b03611490921690610c6c565b93610c8d565b5f610e23565b506001600160801b0381161515610e1e565b6114cd9192956001600160801b036114c7921690610c6c565b94610c8d565b905f610e11565b506001600160801b0381161515610e0c565b6115059193966001600160801b036114ff921690610c6c565b95610c8d565b915f610dff565b506001600160801b0381161515610dfa565b6001600160801b03169650600193505f610ded565b506001600160801b0381161515610de8565b5050505f90565b91906115619060208082518301019101610b1b565b9350505050805180156118f85790602080611580938301019101610bf3565b979695939098949291505f925f94600188161515806118e6575b6118d1575b50600287161515806118bf575b611899575b5060048616151580611887575b611867575b5060088516151580611855575b611831575b508115611820576001600160801b03916115ee91610c9b565b169460c08201519161162c61ffff80851693600f86169661160e86611905565b995f9160208116151580611815575b156117e8575050501680610cb9565b91600a830292808404600a1490151715610c795760041c600316600181036117d4575060015b61165b88611a7d565b9060808301516001600160801b03169260a08101516001600160801b03169060608101519060e0015115159161169095611d82565b9061169b8685611a4d565b63ffffffff16916116ac8284610cb9565b633b9aca009004633b9aca0090046116c391610cfe565b6116cd9088610cfe565b633b9aca0090056116de9088610d4f565b6001600160801b0316956116f185611f75565b906116fc8187611ef8565b61172e96909563ffffffff956110d49590916080161561179157505061172485928392611ef8565b955b169116610d4f565b5f811261178a575b63ffffffff169081633b9aca0003633b9aca008111610c79576117616001600160801b039185611afb565b1691633b9aca000180633b9aca0011610c79576117866001600160801b039185611afb565b1690565b505f611736565b91508092501580156117cc575b156117ae57505082805f95611726565b84633b9aca006117c18294938394610cb9565b0460011c1695611726565b50801561179e565b6002036117e2576002611652565b5f611652565b6040919293501615158061180a575b611802575b50610f31565b90505f6117fc565b5082811615156117f7565b50848416151561161d565b505050509150505f905f905f905f90565b61184e916001600160801b03611848921690610c6c565b91610c8d565b905f6115d5565b506001600160801b03811615156115d0565b6118809193926001600160801b03611848921690610c6c565b915f6115c3565b506001600160801b03811615156115be565b6118b89194936001600160801b036118b2921690610c6c565b92610c8d565b925f6115b1565b506001600160801b03811615156115ac565b600195506001600160801b031693505f61159f565b506001600160801b038116151561159a565b505f925082918291508190565b6101008116610aa857600481901c60031615610aa85760061c60011661192d57631dcd650090565b633b9aca0090565b9063ffffffff8091169116019063ffffffff8211610c7957565b90600f82169061195e83611905565b9061196883611f75565b9363ffffffff831615611a40576080166119ea5781633b9aca006119a36119ad9363ffffffff8061199a81988a611a4d565b16911690610cb9565b60011c0493611ef8565b92169163ffffffff6119bf8385610c6c565b91169081116119e2576119dd611786926001600160401b0394610c6c565b610d92565b505f92915050565b5091611a05836119ff63ffffffff9585611ef8565b93611ef8565b9183611a118484611935565b9116931683116119e25763ffffffff91611a2a91611935565b160363ffffffff8111610c795763ffffffff1690565b5050505063ffffffff1690565b9063ffffffff168015611a7757611a72633b9aca009163ffffffff61106d8195612030565b041690565b50505f90565b5f19633b9aca008209633b9aca00820291828083109203918083039214611af35781600160401b1115611ac857633b9aca00600160401b910990828211900360c01b910360401c1790565b60405162461bcd60e51b815260206004820152600360248201526213d19360ea1b6044820152606490fd5b505060401c90565b5f1982820982820291828083109203918083039214611b5c5781633b9aca001115611ac8577f88f2cfb83100cb4e69e7c79c58b316e597157d372fb9787e8e47ce423a2e9c6d93633b9aca00910990828211900360f71b910360091c170290565b5050633b9aca0091500490565b5f19600160401b8209918160401b91828085109403938085039414611beb5783821115611ac857600160401b829109600182190182168092046002816003021880820260020302808202600203028082026002030280820260020302808202600203028091026002030293600183805f03040190848311900302920304170290565b5080925015611bf8570490565b606460405162461bcd60e51b81526020600482015260046024820152630444956360e41b6044820152fd5b5f198282099082810292838084109303928084039314611c625782600160401b1115611ac857600160401b910990828211900360c01b910360401c1790565b50505060401c90565b915f198284099282810292838086109503948086039514611ce45784831115611ac857829109600182190182168092046002816003021880820260020302808202600203028082026002030280820260020302808202600203028091026002030293600183805f03040190848311900302920304170290565b505080925015611bf8570490565b604d8111610c7957600a0a90565b909291928115611d3f57610a6c936001600160801b0392611d3160ff611d2a81611d379616611cf2565b9316611cf2565b90611c6b565b911690611b69565b505050505f90565b92908315611d3f57610a6c936001600160801b03611d7560ff611d6e81611d7d9616611cf2565b9616611cf2565b931690611c23565b611c6b565b909492919394633b9aca00810290808204633b9aca001490151715610c795783611dab91610c9b565b9115611e9657633b9aca00611dca84611dc48785610c6c565b96610cb9565b04633b9aca00810290808204633b9aca001490151715610c7957858093611df7611e0f96611e0994610c9b565b80821115611e8f57611e099082610d92565b936120ee565b91600381101561126857611e8157611e3791905f8112611e7257905b5f8112611e6457610d4f565b633b9aca008113611e5b57633b9ac9ff198112611e515790565b50633b9ac9ff1990565b50633b9aca0090565b611e6d90610d67565b610d4f565b611e7b90610d67565b90611e2b565b611e8a91610d4f565b611e37565b505f611e09565b92633b9aca00819392930290808204633b9aca001490151715610c7957611e0985611e0f94611ed985611ed3611ecd859888610c9b565b84610c6c565b95610c9b565b80881115611ef157611eeb9088610d92565b966120ee565b505f611eeb565b9063ffffffff811615611a7757633b9aca00611f2663ffffffff610f31611f20829587611a4d565b95612030565b04911690620186a0820291808304620186a01490151715610c79576001600160ff1b0381168103610c795763ffffffff916117869160011b90610c9b565b906010811015610ac15760051b0190565b61202b63ffffffff9160ff60405191611f8d8361083d565b61c3508352620186a060208401526203d09060408401526207a1206060840152620b71b06080840152620f424060a08401526216e36060c0840152621e848060e0840152622dc6c0610100840152624c4b40610120840152627270e06101408401526298968061016084015262e4e1c06101808401526301312d006101a08401526301c9c3806101c08401526302faf0806101e08401521690611f64565b511690565b61202b63ffffffff9160ff604051916120488361083d565b63773594008352633b9aca0060208401526317d784006040840152630bebc20060608401526307f2815560808401526305f5e10060a08401526303f940ab60c08401526302faf08060e08401526301fca0556101008401526301312d0061012084015262cb7355610140840152629896806101608401526265b9ab610180840152624c4b406101a08401526232dcd56101c0840152621e84806101e08401521690611f64565b91906120fa8184610c6c565b918215611d3f57600381101561126857806121245750506112639061125e611259610a6c94610ccc565b600103612138575061125e610a6c92610ce2565b610a6c925061125e90610ce256fea2646970667358221220144af396f34eb9ec8bf5af8b6a070b7adf266c840d2f5e947ae4967c7828f99a64736f6c634300081e0033","opcodes":"PUSH1 0x80 DUP1 PUSH1 0x40 MSTORE CALLVALUE PUSH1 0x15 JUMPI PUSH2 0x217C SWAP1 DUP2 PUSH2 0x1A DUP3 CODECOPY RETURN JUMPDEST PUSH0 DUP1 REVERT INVALID PUSH1 0x80 DUP1 PUSH1 0x40 MSTORE PUSH1 0x4 CALLDATASIZE LT ISZERO PUSH2 0x12 JUMPI PUSH0 DUP1 REVERT JUMPDEST PUSH0 CALLDATALOAD PUSH1 0xE0 SHR SWAP1 DUP2 PUSH4 0x234BEB7 EQ PUSH2 0x78D JUMPI POP DUP1 PUSH4 0x3C1EE1D2 EQ PUSH2 0x761 JUMPI DUP1 PUSH4 0x4A42E6ED EQ PUSH2 0x724 JUMPI DUP1 PUSH4 0x65D8F9E2 EQ PUSH2 0x1AA JUMPI DUP1 PUSH4 0x6F96A0A3 EQ PUSH2 0x6F7 JUMPI DUP1 PUSH4 0x72E07279 EQ PUSH2 0x271 JUMPI DUP1 PUSH4 0x82E8A97C EQ PUSH2 0x24E JUMPI DUP1 PUSH4 0x9B6F3A48 EQ PUSH2 0x214 JUMPI DUP1 PUSH4 0xABFEBFD1 EQ PUSH2 0x1F3 JUMPI DUP1 PUSH4 0xB3A3272C EQ PUSH2 0x1AF JUMPI DUP1 PUSH4 0xB7EC31E1 EQ PUSH2 0x1AA JUMPI DUP1 PUSH4 0xCEB5EE64 EQ PUSH2 0x190 JUMPI DUP1 PUSH4 0xD8035700 EQ PUSH2 0xFD JUMPI DUP1 PUSH4 0xDAF67CDD EQ PUSH2 0xF8 JUMPI DUP1 PUSH4 0xE3463B7A EQ PUSH2 0xF8 JUMPI PUSH4 0xF1AE5EA3 EQ PUSH2 0xCC JUMPI PUSH0 DUP1 REVERT JUMPDEST CALLVALUE PUSH2 0xF4 JUMPI PUSH1 0x20 CALLDATASIZE PUSH1 0x3 NOT ADD SLT PUSH2 0xF4 JUMPI PUSH1 0x20 PUSH1 0x80 PUSH2 0xE9 PUSH2 0x7BB JUMP JUMPDEST AND ISZERO ISZERO PUSH1 0x40 MLOAD SWAP1 DUP2 MSTORE RETURN JUMPDEST PUSH0 DUP1 REVERT JUMPDEST PUSH2 0xA6F JUMP JUMPDEST CALLVALUE PUSH2 0xF4 JUMPI PUSH1 0xA0 CALLDATASIZE PUSH1 0x3 NOT ADD SLT PUSH2 0xF4 JUMPI PUSH2 0x116 PUSH2 0x7CC JUMP JUMPDEST PUSH1 0x24 CALLDATALOAD PUSH1 0xFF DUP2 AND DUP2 SUB PUSH2 0xF4 JUMPI PUSH1 0x44 CALLDATALOAD SWAP1 DUP2 ISZERO ISZERO DUP3 SUB PUSH2 0xF4 JUMPI PUSH1 0x64 CALLDATALOAD DUP1 ISZERO ISZERO DUP2 SUB PUSH2 0xF4 JUMPI PUSH1 0x84 CALLDATALOAD SWAP2 DUP3 ISZERO ISZERO DUP4 SUB PUSH2 0xF4 JUMPI PUSH1 0x30 PUSH1 0xF PUSH1 0x20 SWAP7 AND SWAP2 PUSH1 0x4 SHL AND OR SWAP3 PUSH2 0x186 JUMPI JUMPDEST PUSH2 0x17C JUMPI JUMPDEST PUSH2 0x173 JUMPI JUMPDEST PUSH2 0xFFFF PUSH1 0x40 MLOAD SWAP2 AND DUP2 MSTORE RETURN JUMPDEST PUSH2 0x100 OR PUSH2 0x167 JUMP JUMPDEST SWAP1 PUSH1 0x80 OR SWAP1 PUSH2 0x162 JUMP JUMPDEST SWAP2 PUSH1 0x40 OR SWAP2 PUSH2 0x15D JUMP JUMPDEST CALLVALUE PUSH2 0xF4 JUMPI PUSH0 CALLDATASIZE PUSH1 0x3 NOT ADD SLT PUSH2 0xF4 JUMPI PUSH1 0x20 PUSH1 0x40 MLOAD PUSH0 DUP2 MSTORE RETURN JUMPDEST PUSH2 0x7EF JUMP JUMPDEST CALLVALUE PUSH2 0xF4 JUMPI PUSH1 0x80 PUSH1 0x1 PUSH1 0x1 PUSH1 0x80 SHL SUB DUP1 DUP1 PUSH2 0x1D2 PUSH2 0x1CC CALLDATASIZE PUSH2 0x974 JUMP JUMPDEST SWAP1 PUSH2 0x154C JUMP JUMPDEST SWAP4 SWAP3 SWAP6 SWAP1 SWAP2 DUP2 PUSH1 0x40 MLOAD SWAP8 AND DUP8 MSTORE AND PUSH1 0x20 DUP7 ADD MSTORE AND PUSH1 0x40 DUP5 ADD MSTORE AND PUSH1 0x60 DUP3 ADD MSTORE RETURN JUMPDEST CALLVALUE PUSH2 0xF4 JUMPI PUSH1 0x20 PUSH2 0x20C PUSH2 0x206 CALLDATASIZE PUSH2 0x974 JUMP JUMPDEST SWAP1 PUSH2 0xD9F JUMP JUMPDEST PUSH1 0x40 MLOAD SWAP1 DUP2 MSTORE RETURN JUMPDEST CALLVALUE PUSH2 0xF4 JUMPI PUSH1 0x40 CALLDATASIZE PUSH1 0x3 NOT ADD SLT PUSH2 0xF4 JUMPI PUSH1 0x20 PUSH2 0x240 PUSH2 0x232 PUSH2 0x7CC JUMP JUMPDEST PUSH2 0x23A PUSH2 0x7DC JUMP JUMPDEST SWAP1 PUSH2 0x1A4D JUMP JUMPDEST PUSH4 0xFFFFFFFF PUSH1 0x40 MLOAD SWAP2 AND DUP2 MSTORE RETURN JUMPDEST CALLVALUE PUSH2 0xF4 JUMPI PUSH1 0x20 CALLDATASIZE PUSH1 0x3 NOT ADD SLT PUSH2 0xF4 JUMPI PUSH1 0x20 PUSH2 0x240 PUSH2 0x26C PUSH2 0x7CC JUMP JUMPDEST PUSH2 0x1F75 JUMP JUMPDEST CALLVALUE PUSH2 0xF4 JUMPI PUSH1 0x40 CALLDATASIZE PUSH1 0x3 NOT ADD SLT PUSH2 0xF4 JUMPI PUSH1 0x4 CALLDATALOAD PUSH1 0x1 PUSH1 0x1 PUSH1 0x40 SHL SUB DUP2 GT PUSH2 0xF4 JUMPI PUSH2 0x120 PUSH1 0x3 NOT DUP3 CALLDATASIZE SUB ADD SLT PUSH2 0xF4 JUMPI PUSH1 0x40 MLOAD PUSH2 0x2AE DUP2 PUSH2 0x80D JUMP JUMPDEST PUSH2 0x2BA DUP3 PUSH1 0x4 ADD PUSH2 0x87A JUMP JUMPDEST DUP2 MSTORE PUSH2 0x2C8 PUSH1 0x24 DUP4 ADD PUSH2 0x87A JUMP JUMPDEST SWAP2 PUSH1 0x20 DUP3 ADD SWAP3 DUP4 MSTORE PUSH2 0x2DC PUSH1 0x44 DUP3 ADD PUSH2 0x87A JUMP JUMPDEST SWAP3 PUSH1 0x40 DUP4 ADD SWAP4 DUP5 MSTORE PUSH1 0x64 DUP3 ADD CALLDATALOAD PUSH1 0x1 PUSH1 0x1 PUSH1 0x40 SHL SUB DUP2 GT PUSH2 0xF4 JUMPI DUP3 ADD CALLDATASIZE PUSH1 0x23 DUP3 ADD SLT ISZERO PUSH2 0xF4 JUMPI PUSH1 0x4 DUP2 ADD CALLDATALOAD SWAP1 PUSH2 0x313 DUP3 PUSH2 0x88E JUMP JUMPDEST SWAP2 PUSH2 0x321 PUSH1 0x40 MLOAD SWAP4 DUP5 PUSH2 0x859 JUMP JUMPDEST DUP1 DUP4 MSTORE PUSH1 0x20 PUSH1 0x4 DUP2 DUP6 ADD SWAP3 PUSH1 0x5 SHL DUP5 ADD ADD ADD SWAP2 CALLDATASIZE DUP4 GT PUSH2 0xF4 JUMPI PUSH1 0x24 ADD SWAP1 JUMPDEST DUP3 DUP3 LT PUSH2 0x6E7 JUMPI POP POP POP PUSH1 0x60 DUP5 ADD SWAP1 DUP2 MSTORE PUSH1 0x84 DUP4 ADD CALLDATALOAD PUSH1 0x1 PUSH1 0x1 PUSH1 0x40 SHL SUB DUP2 GT PUSH2 0xF4 JUMPI PUSH2 0x374 SWAP1 PUSH1 0x4 CALLDATASIZE SWAP2 DUP7 ADD ADD PUSH2 0x8A5 JUMP JUMPDEST SWAP3 PUSH1 0x80 DUP6 ADD SWAP4 DUP5 MSTORE PUSH1 0xA4 DUP2 ADD CALLDATALOAD PUSH1 0x1 PUSH1 0x1 PUSH1 0x40 SHL SUB DUP2 GT PUSH2 0xF4 JUMPI PUSH2 0x39F SWAP1 PUSH1 0x4 CALLDATASIZE SWAP2 DUP5 ADD ADD PUSH2 0x8A5 JUMP JUMPDEST SWAP1 PUSH1 0xA0 DUP7 ADD SWAP2 DUP3 MSTORE PUSH1 0xC4 DUP2 ADD CALLDATALOAD PUSH1 0x1 PUSH1 0x1 PUSH1 0x40 SHL SUB DUP2 GT PUSH2 0xF4 JUMPI DUP2 ADD SWAP1 CALLDATASIZE PUSH1 0x23 DUP4 ADD SLT ISZERO PUSH2 0xF4 JUMPI PUSH1 0x4 DUP3 ADD CALLDATALOAD PUSH2 0x3D6 DUP2 PUSH2 0x88E JUMP JUMPDEST SWAP3 PUSH2 0x3E4 PUSH1 0x40 MLOAD SWAP5 DUP6 PUSH2 0x859 JUMP JUMPDEST DUP2 DUP5 MSTORE PUSH1 0x20 PUSH1 0x4 DUP2 DUP7 ADD SWAP4 PUSH1 0x5 SHL DUP4 ADD ADD ADD SWAP1 CALLDATASIZE DUP3 GT PUSH2 0xF4 JUMPI PUSH1 0x24 ADD SWAP2 JUMPDEST DUP2 DUP4 LT PUSH2 0x6CC JUMPI POP POP POP PUSH1 0xC0 DUP8 ADD SWAP2 DUP3 MSTORE PUSH1 0xE4 DUP2 ADD CALLDATALOAD SWAP1 DUP2 ISZERO ISZERO DUP3 SUB PUSH2 0xF4 JUMPI PUSH1 0xE0 DUP9 ADD SWAP2 DUP3 MSTORE PUSH2 0x104 ADD CALLDATALOAD SWAP2 PUSH1 0xFF DUP4 AND DUP4 SUB PUSH2 0xF4 JUMPI PUSH2 0x100 DUP9 ADD SWAP3 DUP4 MSTORE PUSH1 0x24 CALLDATALOAD PUSH1 0x1 PUSH1 0x1 PUSH1 0x40 SHL SUB DUP2 GT PUSH2 0xF4 JUMPI PUSH2 0x464 SWAP1 SWAP9 SWAP6 SWAP9 CALLDATASIZE SWAP1 PUSH1 0x4 ADD PUSH2 0x92E JUMP JUMPDEST SWAP4 DUP9 MLOAD MLOAD SWAP8 PUSH2 0x48B PUSH2 0x475 DUP11 PUSH2 0x88E JUMP JUMPDEST SWAP10 PUSH2 0x483 PUSH1 0x40 MLOAD SWAP12 DUP13 PUSH2 0x859 JUMP JUMPDEST DUP1 DUP12 MSTORE PUSH2 0x88E JUMP JUMPDEST PUSH1 0x20 DUP11 ADD SWAP1 PUSH1 0x1F NOT ADD CALLDATASIZE DUP3 CALLDATACOPY PUSH1 0x20 DUP8 ADD SWAP8 PUSH0 JUMPDEST DUP13 MLOAD DUP1 MLOAD DUP3 LT ISZERO PUSH2 0x688 JUMPI SWAP1 DUP15 DUP10 DUP10 DUP10 DUP16 SWAP6 DUP10 DUP7 DUP1 DUP1 DUP1 DUP16 SWAP6 DUP14 PUSH1 0x1 PUSH1 0xA0 SHL PUSH1 0x1 SWAP1 SUB SWAP1 MLOAD AND SWAP13 PUSH1 0x1 PUSH1 0xA0 SHL PUSH1 0x1 SWAP1 SUB SWAP1 MLOAD AND SWAP11 PUSH1 0x1 PUSH1 0xA0 SHL PUSH1 0x1 SWAP1 SUB SWAP1 MLOAD AND SWAP5 PUSH2 0x4E8 SWAP2 PUSH2 0xAAD JUMP JUMPDEST MLOAD SWAP5 MLOAD SWAP1 PUSH2 0x4F5 SWAP2 PUSH2 0xAAD JUMP JUMPDEST MLOAD PUSH1 0x1 PUSH1 0x1 PUSH1 0x80 SHL SUB AND SWAP5 MLOAD SWAP1 PUSH2 0x50B SWAP2 PUSH2 0xAAD JUMP JUMPDEST MLOAD PUSH1 0x1 PUSH1 0x1 PUSH1 0x80 SHL SUB AND SWAP5 MLOAD SWAP1 PUSH2 0x521 SWAP2 PUSH2 0xAAD JUMP JUMPDEST MLOAD PUSH2 0xFFFF AND SWAP5 MLOAD ISZERO ISZERO SWAP6 MLOAD PUSH1 0xFF AND SWAP7 PUSH1 0x40 MLOAD SWAP10 PUSH2 0x53D DUP12 PUSH2 0x80D JUMP JUMPDEST DUP11 MSTORE PUSH1 0x20 DUP11 ADD SWAP1 DUP2 MSTORE PUSH1 0x40 DUP1 DUP12 ADD SWAP3 DUP4 MSTORE PUSH1 0x60 DUP12 ADD SWAP4 DUP5 MSTORE PUSH1 0x80 DUP12 ADD SWAP5 DUP6 MSTORE PUSH1 0xA0 DUP12 ADD SWAP6 DUP7 MSTORE PUSH1 0xC0 DUP12 ADD SWAP7 DUP8 MSTORE PUSH1 0xE0 DUP12 ADD SWAP8 DUP9 MSTORE PUSH2 0x100 DUP12 ADD SWAP9 DUP10 MSTORE MLOAD PUSH4 0xABFEBFD1 PUSH1 0xE0 SHL DUP2 MSTORE SWAP10 MLOAD PUSH1 0x1 PUSH1 0x1 PUSH1 0xA0 SHL SUB SWAP1 DUP2 AND PUSH1 0x4 DUP13 ADD MSTORE SWAP1 MLOAD DUP2 AND PUSH1 0x24 DUP12 ADD MSTORE SWAP1 MLOAD AND PUSH1 0x44 DUP10 ADD MSTORE MLOAD PUSH1 0x64 DUP9 ADD MSTORE MLOAD PUSH1 0x1 PUSH1 0x1 PUSH1 0x80 SHL SUB SWAP1 DUP2 AND PUSH1 0x84 DUP9 ADD MSTORE SWAP1 MLOAD AND PUSH1 0xA4 DUP7 ADD MSTORE MLOAD PUSH2 0xFFFF AND PUSH1 0xC4 DUP6 ADD MSTORE MLOAD ISZERO ISZERO PUSH1 0xE4 DUP5 ADD MSTORE MLOAD PUSH1 0xFF AND PUSH2 0x104 DUP4 ADD MSTORE PUSH2 0x140 PUSH2 0x124 DUP4 ADD MSTORE DUP10 MLOAD PUSH2 0x144 DUP4 ADD DUP2 SWAP1 MSTORE DUP3 SWAP1 DUP1 DUP14 PUSH2 0x164 DUP5 ADD MCOPY DUP1 DUP3 ADD PUSH2 0x164 ADD PUSH0 SWAP1 MSTORE PUSH1 0x1F NOT SWAP1 PUSH1 0x1F ADD AND DUP2 ADD SUB PUSH2 0x164 ADD DUP3 ADDRESS SWAP2 DUP2 GAS SWAP4 PUSH1 0x20 SWAP5 STATICCALL DUP1 ISZERO PUSH2 0x67D JUMPI DUP14 SWAP3 PUSH0 SWAP2 PUSH2 0x645 JUMPI JUMPDEST POP PUSH2 0x63E DUP3 PUSH1 0x1 SWAP5 PUSH2 0xAAD JUMP JUMPDEST MSTORE ADD PUSH2 0x49E JUMP JUMPDEST SWAP3 POP POP PUSH1 0x20 DUP3 RETURNDATASIZE DUP3 GT PUSH2 0x675 JUMPI JUMPDEST DUP2 PUSH2 0x660 PUSH1 0x20 SWAP4 DUP4 PUSH2 0x859 JUMP JUMPDEST DUP2 ADD SUB SLT PUSH2 0xF4 JUMPI SWAP1 MLOAD DUP13 SWAP2 SWAP1 PUSH2 0x63E PUSH2 0x631 JUMP JUMPDEST RETURNDATASIZE SWAP2 POP PUSH2 0x653 JUMP JUMPDEST PUSH1 0x40 MLOAD RETURNDATASIZE PUSH0 DUP3 RETURNDATACOPY RETURNDATASIZE SWAP1 REVERT JUMPDEST DUP4 DUP14 PUSH1 0x40 MLOAD SWAP2 DUP3 SWAP2 PUSH1 0x20 DUP4 ADD SWAP1 PUSH1 0x20 DUP5 MSTORE MLOAD DUP1 SWAP2 MSTORE PUSH1 0x40 DUP4 ADD SWAP2 SWAP1 PUSH0 JUMPDEST DUP2 DUP2 LT PUSH2 0x6B3 JUMPI POP POP POP SUB SWAP1 RETURN JUMPDEST DUP3 MLOAD DUP5 MSTORE DUP6 SWAP5 POP PUSH1 0x20 SWAP4 DUP5 ADD SWAP4 SWAP1 SWAP3 ADD SWAP2 PUSH1 0x1 ADD PUSH2 0x6A5 JUMP JUMPDEST DUP3 CALLDATALOAD PUSH2 0xFFFF DUP2 AND DUP2 SUB PUSH2 0xF4 JUMPI DUP2 MSTORE PUSH1 0x20 SWAP3 DUP4 ADD SWAP3 ADD PUSH2 0x403 JUMP JUMPDEST DUP2 CALLDATALOAD DUP2 MSTORE PUSH1 0x20 SWAP2 DUP3 ADD SWAP2 ADD PUSH2 0x340 JUMP JUMPDEST CALLVALUE PUSH2 0xF4 JUMPI PUSH1 0x20 CALLDATASIZE PUSH1 0x3 NOT ADD SLT PUSH2 0xF4 JUMPI PUSH1 0x20 PUSH2 0x71A PUSH2 0x715 PUSH2 0x7BB JUMP JUMPDEST PUSH2 0xA8D JUMP JUMPDEST PUSH1 0x40 MLOAD SWAP1 ISZERO ISZERO DUP2 MSTORE RETURN JUMPDEST CALLVALUE PUSH2 0xF4 JUMPI PUSH1 0x40 CALLDATASIZE PUSH1 0x3 NOT ADD SLT PUSH2 0xF4 JUMPI PUSH1 0x20 PUSH2 0x750 PUSH2 0x742 PUSH2 0x7BB JUMP JUMPDEST PUSH2 0x74A PUSH2 0x7DC JUMP JUMPDEST SWAP1 PUSH2 0x194F JUMP JUMPDEST PUSH1 0x1 PUSH1 0x1 PUSH1 0x40 SHL SUB PUSH1 0x40 MLOAD SWAP2 AND DUP2 MSTORE RETURN JUMPDEST CALLVALUE PUSH2 0xF4 JUMPI PUSH1 0x40 CALLDATASIZE PUSH1 0x3 NOT ADD SLT PUSH2 0xF4 JUMPI PUSH1 0x20 PUSH2 0x240 PUSH2 0x77F PUSH2 0x7CC JUMP JUMPDEST PUSH2 0x787 PUSH2 0x7DC JUMP JUMPDEST SWAP1 PUSH2 0x1EF8 JUMP JUMPDEST CALLVALUE PUSH2 0xF4 JUMPI PUSH1 0x20 CALLDATASIZE PUSH1 0x3 NOT ADD SLT PUSH2 0xF4 JUMPI PUSH1 0x20 SWAP1 PUSH4 0xFFFFFFFF PUSH2 0x7B6 PUSH2 0x7B1 PUSH2 0x7BB JUMP JUMPDEST PUSH2 0x1905 JUMP JUMPDEST AND DUP2 MSTORE RETURN JUMPDEST PUSH1 0x4 CALLDATALOAD SWAP1 PUSH2 0xFFFF DUP3 AND DUP3 SUB PUSH2 0xF4 JUMPI JUMP JUMPDEST PUSH1 0x4 CALLDATALOAD SWAP1 PUSH1 0xFF DUP3 AND DUP3 SUB PUSH2 0xF4 JUMPI JUMP JUMPDEST PUSH1 0x24 CALLDATALOAD SWAP1 PUSH4 0xFFFFFFFF DUP3 AND DUP3 SUB PUSH2 0xF4 JUMPI JUMP JUMPDEST CALLVALUE PUSH2 0xF4 JUMPI PUSH0 CALLDATASIZE PUSH1 0x3 NOT ADD SLT PUSH2 0xF4 JUMPI PUSH1 0x20 PUSH1 0x40 MLOAD PUSH4 0x1DCD6500 DUP2 MSTORE RETURN JUMPDEST PUSH2 0x120 DUP2 ADD SWAP1 DUP2 LT PUSH1 0x1 PUSH1 0x1 PUSH1 0x40 SHL SUB DUP3 GT OR PUSH2 0x829 JUMPI PUSH1 0x40 MSTORE JUMP JUMPDEST PUSH4 0x4E487B71 PUSH1 0xE0 SHL PUSH0 MSTORE PUSH1 0x41 PUSH1 0x4 MSTORE PUSH1 0x24 PUSH0 REVERT JUMPDEST PUSH2 0x200 DUP2 ADD SWAP1 DUP2 LT PUSH1 0x1 PUSH1 0x1 PUSH1 0x40 SHL SUB DUP3 GT OR PUSH2 0x829 JUMPI PUSH1 0x40 MSTORE JUMP JUMPDEST SWAP1 PUSH1 0x1F DUP1 NOT SWAP2 ADD AND DUP2 ADD SWAP1 DUP2 LT PUSH1 0x1 PUSH1 0x1 PUSH1 0x40 SHL SUB DUP3 GT OR PUSH2 0x829 JUMPI PUSH1 0x40 MSTORE JUMP JUMPDEST CALLDATALOAD SWAP1 PUSH1 0x1 PUSH1 0x1 PUSH1 0xA0 SHL SUB DUP3 AND DUP3 SUB PUSH2 0xF4 JUMPI JUMP JUMPDEST PUSH1 0x1 PUSH1 0x1 PUSH1 0x40 SHL SUB DUP2 GT PUSH2 0x829 JUMPI PUSH1 0x5 SHL PUSH1 0x20 ADD SWAP1 JUMP JUMPDEST SWAP1 DUP1 PUSH1 0x1F DUP4 ADD SLT ISZERO PUSH2 0xF4 JUMPI DUP2 CALLDATALOAD SWAP1 PUSH2 0x8BD DUP3 PUSH2 0x88E JUMP JUMPDEST SWAP3 PUSH2 0x8CB PUSH1 0x40 MLOAD SWAP5 DUP6 PUSH2 0x859 JUMP JUMPDEST DUP3 DUP5 MSTORE PUSH1 0x20 DUP1 DUP6 ADD SWAP4 PUSH1 0x5 SHL DUP3 ADD ADD SWAP2 DUP3 GT PUSH2 0xF4 JUMPI PUSH1 0x20 ADD SWAP2 JUMPDEST DUP2 DUP4 LT PUSH2 0x8F3 JUMPI POP POP POP SWAP1 JUMP JUMPDEST DUP3 CALLDATALOAD PUSH1 0x1 PUSH1 0x1 PUSH1 0x80 SHL SUB DUP2 AND DUP2 SUB PUSH2 0xF4 JUMPI DUP2 MSTORE PUSH1 0x20 SWAP3 DUP4 ADD SWAP3 ADD PUSH2 0x8E6 JUMP JUMPDEST PUSH1 0x1 PUSH1 0x1 PUSH1 0x40 SHL SUB DUP2 GT PUSH2 0x829 JUMPI PUSH1 0x1F ADD PUSH1 0x1F NOT AND PUSH1 0x20 ADD SWAP1 JUMP JUMPDEST DUP2 PUSH1 0x1F DUP3 ADD SLT ISZERO PUSH2 0xF4 JUMPI DUP1 CALLDATALOAD SWAP1 PUSH2 0x945 DUP3 PUSH2 0x913 JUMP JUMPDEST SWAP3 PUSH2 0x953 PUSH1 0x40 MLOAD SWAP5 DUP6 PUSH2 0x859 JUMP JUMPDEST DUP3 DUP5 MSTORE PUSH1 0x20 DUP4 DUP4 ADD ADD GT PUSH2 0xF4 JUMPI DUP2 PUSH0 SWAP3 PUSH1 0x20 DUP1 SWAP4 ADD DUP4 DUP7 ADD CALLDATACOPY DUP4 ADD ADD MSTORE SWAP1 JUMP JUMPDEST SWAP1 PUSH1 0x3 NOT DUP3 ADD PUSH2 0x140 DUP2 SLT PUSH2 0xF4 JUMPI PUSH2 0x120 SGT PUSH2 0xF4 JUMPI PUSH1 0x40 MLOAD PUSH2 0x997 DUP2 PUSH2 0x80D JUMP JUMPDEST PUSH1 0x4 CALLDATALOAD PUSH1 0x1 PUSH1 0x1 PUSH1 0xA0 SHL SUB DUP2 AND DUP2 SUB PUSH2 0xF4 JUMPI DUP2 MSTORE PUSH1 0x24 CALLDATALOAD PUSH1 0x1 PUSH1 0x1 PUSH1 0xA0 SHL SUB DUP2 AND DUP2 SUB PUSH2 0xF4 JUMPI PUSH1 0x20 DUP3 ADD MSTORE PUSH1 0x44 CALLDATALOAD PUSH1 0x1 PUSH1 0x1 PUSH1 0xA0 SHL SUB DUP2 AND DUP2 SUB PUSH2 0xF4 JUMPI PUSH1 0x40 DUP3 ADD MSTORE PUSH1 0x64 CALLDATALOAD PUSH1 0x60 DUP3 ADD MSTORE PUSH1 0x84 CALLDATALOAD PUSH1 0x1 PUSH1 0x1 PUSH1 0x80 SHL SUB DUP2 AND DUP2 SUB PUSH2 0xF4 JUMPI PUSH1 0x80 DUP3 ADD MSTORE PUSH1 0xA4 CALLDATALOAD PUSH1 0x1 PUSH1 0x1 PUSH1 0x80 SHL SUB DUP2 AND DUP2 SUB PUSH2 0xF4 JUMPI PUSH1 0xA0 DUP3 ADD MSTORE PUSH1 0xC4 CALLDATALOAD PUSH2 0xFFFF DUP2 AND DUP2 SUB PUSH2 0xF4 JUMPI PUSH1 0xC0 DUP3 ADD MSTORE PUSH1 0xE4 CALLDATALOAD DUP1 ISZERO ISZERO DUP2 SUB PUSH2 0xF4 JUMPI PUSH1 0xE0 DUP3 ADD MSTORE PUSH2 0x104 CALLDATALOAD PUSH1 0xFF DUP2 AND DUP2 SUB PUSH2 0xF4 JUMPI PUSH2 0x100 DUP3 ADD MSTORE SWAP2 PUSH2 0x124 CALLDATALOAD SWAP1 PUSH1 0x1 PUSH1 0x1 PUSH1 0x40 SHL SUB DUP3 GT PUSH2 0xF4 JUMPI PUSH2 0xA6C SWAP2 PUSH1 0x4 ADD PUSH2 0x92E JUMP JUMPDEST SWAP1 JUMP JUMPDEST CALLVALUE PUSH2 0xF4 JUMPI PUSH0 CALLDATASIZE PUSH1 0x3 NOT ADD SLT PUSH2 0xF4 JUMPI PUSH1 0x20 PUSH1 0x40 MLOAD PUSH4 0x3B9ACA00 DUP2 MSTORE RETURN JUMPDEST PUSH4 0xFFFFFFFF PUSH2 0xA9B DUP3 PUSH2 0x1905 JUMP JUMPDEST AND ISZERO PUSH2 0xAA8 JUMPI PUSH1 0x80 AND ISZERO SWAP1 JUMP JUMPDEST POP PUSH0 SWAP1 JUMP JUMPDEST DUP1 MLOAD DUP3 LT ISZERO PUSH2 0xAC1 JUMPI PUSH1 0x20 SWAP2 PUSH1 0x5 SHL ADD ADD SWAP1 JUMP JUMPDEST PUSH4 0x4E487B71 PUSH1 0xE0 SHL PUSH0 MSTORE PUSH1 0x32 PUSH1 0x4 MSTORE PUSH1 0x24 PUSH0 REVERT JUMPDEST DUP2 PUSH1 0x1F DUP3 ADD SLT ISZERO PUSH2 0xF4 JUMPI DUP1 MLOAD SWAP1 PUSH2 0xAEC DUP3 PUSH2 0x913 JUMP JUMPDEST SWAP3 PUSH2 0xAFA PUSH1 0x40 MLOAD SWAP5 DUP6 PUSH2 0x859 JUMP JUMPDEST DUP3 DUP5 MSTORE PUSH1 0x20 DUP4 DUP4 ADD ADD GT PUSH2 0xF4 JUMPI DUP2 PUSH0 SWAP3 PUSH1 0x20 DUP1 SWAP4 ADD DUP4 DUP7 ADD MCOPY DUP4 ADD ADD MSTORE SWAP1 JUMP JUMPDEST SWAP2 SWAP1 SWAP2 PUSH1 0xA0 DUP2 DUP5 SUB SLT PUSH2 0xF4 JUMPI DUP1 MLOAD PUSH1 0x1 PUSH1 0x1 PUSH1 0x40 SHL SUB DUP2 GT PUSH2 0xF4 JUMPI DUP4 PUSH2 0xB44 SWAP2 DUP4 ADD PUSH2 0xAD5 JUMP JUMPDEST SWAP3 PUSH1 0x20 DUP3 ADD MLOAD PUSH1 0x1 PUSH1 0x1 PUSH1 0x40 SHL SUB DUP2 GT PUSH2 0xF4 JUMPI DUP2 PUSH2 0xB64 SWAP2 DUP5 ADD PUSH2 0xAD5 JUMP JUMPDEST SWAP3 PUSH1 0x40 DUP4 ADD MLOAD PUSH1 0x1 PUSH1 0x1 PUSH1 0x40 SHL SUB DUP2 GT PUSH2 0xF4 JUMPI DUP3 PUSH2 0xB84 SWAP2 DUP6 ADD PUSH2 0xAD5 JUMP JUMPDEST SWAP3 PUSH1 0x60 DUP2 ADD MLOAD PUSH1 0x1 PUSH1 0x1 PUSH1 0x40 SHL SUB DUP2 GT PUSH2 0xF4 JUMPI DUP4 PUSH2 0xBA4 SWAP2 DUP4 ADD PUSH2 0xAD5 JUMP JUMPDEST SWAP3 PUSH1 0x80 DUP3 ADD MLOAD PUSH1 0x1 PUSH1 0x1 PUSH1 0x40 SHL SUB DUP2 GT PUSH2 0xF4 JUMPI PUSH2 0xA6C SWAP3 ADD PUSH2 0xAD5 JUMP JUMPDEST MLOAD SWAP1 PUSH1 0xFF DUP3 AND DUP3 SUB PUSH2 0xF4 JUMPI JUMP JUMPDEST MLOAD SWAP1 PUSH1 0x1 PUSH1 0x1 PUSH1 0x80 SHL SUB DUP3 AND DUP3 SUB PUSH2 0xF4 JUMPI JUMP JUMPDEST MLOAD SWAP1 PUSH2 0xFFFF DUP3 AND DUP3 SUB PUSH2 0xF4 JUMPI JUMP JUMPDEST SWAP2 SWAP1 DUP3 PUSH2 0x100 SWAP2 SUB SLT PUSH2 0xF4 JUMPI PUSH2 0xC09 DUP3 PUSH2 0xBC2 JUMP JUMPDEST SWAP2 PUSH2 0xC16 PUSH1 0x20 DUP3 ADD PUSH2 0xBD0 JUMP JUMPDEST SWAP2 PUSH2 0xC23 PUSH1 0x40 DUP4 ADD PUSH2 0xBD0 JUMP JUMPDEST SWAP2 PUSH2 0xC30 PUSH1 0x60 DUP3 ADD PUSH2 0xBD0 JUMP JUMPDEST SWAP2 PUSH2 0xC3D PUSH1 0x80 DUP4 ADD PUSH2 0xBD0 JUMP JUMPDEST SWAP2 PUSH1 0xA0 DUP2 ADD MLOAD PUSH1 0x1 PUSH1 0x1 PUSH1 0x40 SHL SUB DUP2 AND DUP2 SUB PUSH2 0xF4 JUMPI SWAP2 PUSH2 0xA6C PUSH1 0xE0 PUSH2 0xC65 PUSH1 0xC0 DUP6 ADD PUSH2 0xBE4 JUMP JUMPDEST SWAP4 ADD PUSH2 0xBE4 JUMP JUMPDEST SWAP2 SWAP1 DUP3 ADD DUP1 SWAP3 GT PUSH2 0xC79 JUMPI JUMP JUMPDEST PUSH4 0x4E487B71 PUSH1 0xE0 SHL PUSH0 MSTORE PUSH1 0x11 PUSH1 0x4 MSTORE PUSH1 0x24 PUSH0 REVERT JUMPDEST PUSH0 NOT DUP2 EQ PUSH2 0xC79 JUMPI PUSH1 0x1 ADD SWAP1 JUMP JUMPDEST DUP2 ISZERO PUSH2 0xCA5 JUMPI DIV SWAP1 JUMP JUMPDEST PUSH4 0x4E487B71 PUSH1 0xE0 SHL PUSH0 MSTORE PUSH1 0x12 PUSH1 0x4 MSTORE PUSH1 0x24 PUSH0 REVERT JUMPDEST DUP2 DUP2 MUL SWAP3 SWAP2 DUP2 ISZERO SWAP2 DUP5 DIV EQ OR ISZERO PUSH2 0xC79 JUMPI JUMP JUMPDEST SWAP1 DUP2 PUSH1 0x1 SHL SWAP2 DUP1 DUP4 SDIV PUSH1 0x2 EQ SWAP1 ISZERO OR ISZERO PUSH2 0xC79 JUMPI JUMP JUMPDEST SWAP1 PUSH4 0x3B9ACA00 DUP3 MUL SWAP2 DUP1 DUP4 SDIV PUSH4 0x3B9ACA00 EQ SWAP1 ISZERO OR ISZERO PUSH2 0xC79 JUMPI JUMP JUMPDEST DUP2 DUP2 MUL SWAP3 SWAP2 PUSH0 DUP3 SLT PUSH1 0x1 PUSH1 0xFF SHL DUP3 EQ AND PUSH2 0xC79 JUMPI DUP2 DUP5 SDIV EQ SWAP1 ISZERO OR ISZERO PUSH2 0xC79 JUMPI JUMP JUMPDEST DUP2 ISZERO PUSH2 0xCA5 JUMPI PUSH1 0x1 PUSH1 0xFF SHL DUP2 EQ PUSH0 NOT DUP4 EQ AND PUSH2 0xC79 JUMPI SDIV SWAP1 JUMP JUMPDEST SWAP1 PUSH4 0x3B9AC9FF NOT DUP3 ADD SWAP2 DUP3 SGT PUSH1 0x1 AND PUSH2 0xC79 JUMPI JUMP JUMPDEST DUP2 DUP2 SUB SWAP3 SWAP2 PUSH0 SGT DUP1 ISZERO DUP3 DUP6 SGT AND SWAP2 DUP5 SLT AND OR PUSH2 0xC79 JUMPI JUMP JUMPDEST PUSH1 0x1 PUSH1 0xFF SHL DUP2 EQ PUSH2 0xC79 JUMPI PUSH0 SUB SWAP1 JUMP JUMPDEST SWAP2 SWAP1 SWAP2 PUSH0 DUP4 DUP3 ADD SWAP4 DUP5 SLT SWAP2 SLT SWAP1 DUP1 ISZERO DUP3 AND SWAP2 ISZERO AND OR PUSH2 0xC79 JUMPI JUMP JUMPDEST SWAP2 SWAP1 DUP3 SUB SWAP2 DUP3 GT PUSH2 0xC79 JUMPI JUMP JUMPDEST SWAP1 PUSH2 0xDB3 SWAP1 PUSH1 0x20 DUP1 DUP3 MLOAD DUP4 ADD ADD SWAP2 ADD PUSH2 0xB1B JUMP JUMPDEST SWAP4 POP POP POP POP DUP1 MLOAD SWAP1 DUP2 ISZERO PUSH2 0x1545 JUMPI PUSH1 0x20 DUP1 PUSH2 0xDD2 SWAP4 DUP4 ADD ADD SWAP2 ADD PUSH2 0xBF3 JUMP JUMPDEST SWAP5 SWAP6 SWAP3 SWAP2 POP SWAP3 PUSH0 SWAP6 PUSH0 SWAP4 PUSH1 0x1 DUP10 AND ISZERO ISZERO DUP1 PUSH2 0x1533 JUMPI JUMPDEST PUSH2 0x151E JUMPI JUMPDEST POP PUSH1 0x2 DUP9 AND ISZERO ISZERO DUP1 PUSH2 0x150C JUMPI JUMPDEST PUSH2 0x14E6 JUMPI JUMPDEST POP PUSH1 0x4 DUP8 AND ISZERO ISZERO DUP1 PUSH2 0x14D4 JUMPI JUMPDEST PUSH2 0x14AE JUMPI JUMPDEST POP PUSH1 0x8 DUP7 AND ISZERO ISZERO DUP1 PUSH2 0x149C JUMPI JUMPDEST PUSH2 0x1478 JUMPI JUMPDEST POP DUP1 ISZERO PUSH2 0x146E JUMPI PUSH2 0xE3E PUSH1 0x1 PUSH1 0x1 PUSH1 0x80 SHL SUB SWAP2 PUSH1 0x4 SWAP6 PUSH2 0xC9B JUMP JUMPDEST PUSH1 0xE0 DUP8 ADD MLOAD SWAP2 AND SWAP3 SWAP1 ISZERO PUSH2 0x145A JUMPI DUP6 MLOAD PUSH1 0x20 SWAP1 PUSH1 0x1 PUSH1 0x1 PUSH1 0xA0 SHL SUB AND JUMPDEST PUSH1 0x40 MLOAD PUSH4 0x313CE567 PUSH1 0xE0 SHL DUP2 MSTORE SWAP6 DUP7 SWAP2 DUP3 SWAP1 PUSH1 0x1 PUSH1 0x1 PUSH1 0xA0 SHL SUB AND GAS STATICCALL SWAP3 DUP4 ISZERO PUSH2 0x67D JUMPI PUSH0 SWAP4 PUSH2 0x141E JUMPI JUMPDEST PUSH1 0xE0 DUP8 ADD MLOAD PUSH1 0x4 SWAP6 POP ISZERO PUSH2 0x140B JUMPI PUSH1 0x20 DUP8 DUP2 ADD MLOAD PUSH1 0x1 PUSH1 0x1 PUSH1 0xA0 SHL SUB AND JUMPDEST PUSH1 0x40 MLOAD PUSH4 0x313CE567 PUSH1 0xE0 SHL DUP2 MSTORE SWAP7 DUP8 SWAP2 DUP3 SWAP1 PUSH1 0x1 PUSH1 0x1 PUSH1 0xA0 SHL SUB AND GAS STATICCALL SWAP5 DUP6 ISZERO PUSH2 0x67D JUMPI PUSH0 SWAP6 PUSH2 0x13CF JUMPI JUMPDEST POP PUSH1 0xC0 DUP8 ADD MLOAD PUSH2 0xFFFF DUP2 AND SWAP3 PUSH1 0xF DUP3 AND SWAP5 PUSH2 0xEE9 DUP6 PUSH2 0x1905 JUMP JUMPDEST SWAP9 PUSH2 0xEF4 DUP11 DUP9 PUSH2 0x1A4D JUMP JUMPDEST SWAP3 PUSH0 SWAP2 PUSH1 0x20 DUP2 AND ISZERO ISZERO DUP1 PUSH2 0x13C2 JUMPI JUMPDEST ISZERO PUSH2 0x138E JUMPI POP POP POP PUSH1 0x80 SWAP1 SWAP3 JUMPDEST AND ISZERO DUP1 ISZERO SWAP3 SWAP1 PUSH2 0x1367 JUMPI POP PUSH4 0x3B9ACA00 PUSH2 0xF38 PUSH4 0xFFFFFFFF PUSH2 0xF31 DUP9 PUSH2 0x1F75 JUMP JUMPDEST AND DUP1 PUSH2 0xCB9 JUMP JUMPDEST DIV SWAP5 JUMPDEST PUSH2 0xF44 DUP2 PUSH2 0x1F75 JUMP JUMPDEST SWAP6 PUSH2 0xF4F DUP11 DUP4 PUSH2 0x1EF8 JUMP JUMPDEST SWAP10 DUP5 ISZERO PUSH2 0x1318 JUMPI PUSH1 0x3 PUSH2 0xF64 PUSH1 0xFF SWAP3 DUP6 PUSH2 0x1EF8 JUMP JUMPDEST SWAP8 JUMPDEST PUSH1 0x4 SHR AND AND PUSH1 0x1 DUP2 SUB PUSH2 0x1304 JUMPI POP PUSH1 0x1 JUMPDEST PUSH2 0xF80 DUP7 PUSH2 0x1A7D JUMP JUMPDEST POP PUSH1 0xA0 DUP13 ADD MLOAD PUSH1 0x20 DUP1 DUP15 ADD MLOAD PUSH1 0x40 MLOAD PUSH4 0x313CE567 PUSH1 0xE0 SHL DUP2 MSTORE SWAP3 PUSH1 0x1 PUSH1 0x1 PUSH1 0x80 SHL SUB AND SWAP2 SWAP1 DUP4 SWAP1 PUSH1 0x4 SWAP1 DUP3 SWAP1 PUSH1 0x1 PUSH1 0x1 PUSH1 0xA0 SHL SUB AND GAS STATICCALL SWAP2 DUP3 ISZERO PUSH2 0x67D JUMPI DUP15 SWAP1 PUSH0 SWAP4 PUSH2 0x12BF JUMPI JUMPDEST POP MLOAD PUSH1 0x40 MLOAD PUSH4 0x313CE567 PUSH1 0xE0 SHL DUP2 MSTORE SWAP2 SWAP1 PUSH1 0x20 SWAP1 DUP4 SWAP1 PUSH1 0x4 SWAP1 DUP3 SWAP1 PUSH1 0x1 PUSH1 0x1 PUSH1 0xA0 SHL SUB AND GAS STATICCALL SWAP1 DUP2 ISZERO PUSH2 0x67D JUMPI DUP10 SWAP3 PUSH0 SWAP3 PUSH2 0x127C JUMPI JUMPDEST POP SWAP3 PUSH2 0x1008 SWAP4 PUSH2 0x1D00 JUMP JUMPDEST SWAP1 PUSH1 0x80 DUP14 ADD PUSH2 0x1021 DUP4 PUSH1 0x1 PUSH1 0x1 PUSH1 0x80 SHL SUB DUP4 MLOAD AND PUSH2 0xC6C JUMP JUMPDEST SWAP2 DUP3 PUSH2 0x11C8 JUMPI POP POP POP POP PUSH0 SWAP4 JUMPDEST ISZERO PUSH2 0x1183 JUMPI POP PUSH2 0x1079 PUSH4 0x3B9ACA00 SWAP3 PUSH2 0x1074 PUSH5 0x2540BE400 PUSH2 0x1058 PUSH4 0xFFFFFFFF PUSH2 0xF31 DUP9 SWAP8 PUSH2 0x1F75 JUMP JUMPDEST DIV SWAP2 PUSH4 0xFFFFFFFF PUSH0 DUP9 SLT ISZERO SWAP8 DUP9 PUSH0 EQ PUSH2 0x1174 JUMPI SWAP2 JUMPDEST AND SWAP1 PUSH2 0xCB9 JUMP JUMPDEST PUSH2 0xCB9 JUMP JUMPDEST DIV DIV SWAP1 ISZERO PUSH2 0x1166 JUMPI JUMPDEST PUSH3 0x186A0 DUP2 MUL SWAP1 DUP1 DUP3 SDIV PUSH3 0x186A0 EQ SWAP1 ISZERO OR ISZERO PUSH2 0xC79 JUMPI PUSH2 0x10DC SWAP4 PUSH4 0xFFFFFFFF DUP1 PUSH1 0x1 PUSH1 0x1 PUSH1 0x80 SHL SUB PUSH2 0x10CA DUP3 SWAP7 PUSH4 0x3B9ACA00 PUSH2 0x10C3 PUSH2 0x10D4 SWAP9 JUMPDEST DUP4 PUSH2 0xCFE JUMP JUMPDEST SDIV SWAP1 PUSH2 0xD4F JUMP JUMPDEST AND SWAP10 AND SWAP2 AND PUSH2 0xD4F JUMP JUMPDEST SWAP2 AND SWAP1 PUSH2 0xD77 JUMP JUMPDEST PUSH0 DUP2 SLT PUSH2 0x115F JUMPI JUMPDEST PUSH4 0xFFFFFFFF AND SWAP3 DUP4 PUSH4 0x3B9ACA00 SUB PUSH4 0x3B9ACA00 DUP2 GT PUSH2 0xC79 JUMPI PUSH2 0x110F PUSH1 0x1 PUSH1 0x1 PUSH1 0x80 SHL SUB SWAP2 DUP4 PUSH2 0x1AFB JUMP JUMPDEST AND SWAP4 PUSH4 0x3B9ACA00 ADD SWAP1 DUP2 PUSH4 0x3B9ACA00 GT PUSH2 0xC79 JUMPI PUSH1 0x1 PUSH1 0x1 PUSH1 0x80 SHL SUB SWAP2 PUSH2 0x1135 SWAP2 PUSH2 0x1AFB JUMP JUMPDEST PUSH1 0xE0 DUP7 ADD MLOAD SWAP2 AND SWAP1 ISZERO PUSH2 0x1150 JUMPI POP PUSH1 0x60 PUSH2 0xA6C SWAP5 ADD MLOAD PUSH2 0x1D47 JUMP JUMPDEST SWAP3 POP PUSH1 0x60 PUSH2 0xA6C SWAP5 ADD MLOAD PUSH2 0x1D00 JUMP JUMPDEST POP PUSH0 PUSH2 0x10E4 JUMP JUMPDEST PUSH2 0x116F SWAP1 PUSH2 0xD67 JUMP JUMPDEST PUSH2 0x1082 JUMP JUMPDEST PUSH2 0x117D SWAP1 PUSH2 0xD67 JUMP JUMPDEST SWAP2 PUSH2 0x106D JUMP JUMPDEST PUSH4 0xFFFFFFFF SWAP5 DUP6 SWAP3 POP PUSH2 0x10CA PUSH1 0x1 PUSH1 0x1 PUSH1 0x80 SHL SUB SWAP2 PUSH4 0x3B9ACA00 PUSH2 0x10C3 DUP2 PUSH2 0x11C2 PUSH2 0x10D4 SWAP11 DUP3 PUSH2 0x10DC SWAP16 SWAP12 DUP12 SWAP11 DUP12 PUSH2 0x11BB SWAP3 AND PUSH2 0xCB9 JUMP JUMPDEST DIV SWAP1 PUSH2 0xCFE JUMP JUMPDEST SDIV PUSH2 0x10BD JUMP JUMPDEST PUSH1 0x3 DUP2 LT ISZERO PUSH2 0x1268 JUMPI PUSH1 0x2 DUP2 SUB PUSH2 0x1203 JUMPI POP POP PUSH4 0x3B9ACA00 DUP3 MUL SWAP2 DUP1 DUP4 DIV PUSH4 0x3B9ACA00 EQ SWAP1 ISZERO OR ISZERO PUSH2 0xC79 JUMPI PUSH2 0x11FD SWAP2 PUSH2 0xC9B JUMP JUMPDEST SWAP4 PUSH2 0x102E JUMP JUMPDEST SWAP2 SWAP3 POP SWAP1 PUSH1 0x1 SUB PUSH2 0x123C JUMPI PUSH1 0x1 PUSH1 0x1 PUSH1 0x80 SHL SUB SWAP1 MLOAD AND SWAP1 PUSH4 0x3B9ACA00 DUP3 MUL SWAP2 DUP1 DUP4 DIV PUSH4 0x3B9ACA00 EQ SWAP1 ISZERO OR ISZERO PUSH2 0xC79 JUMPI PUSH2 0x11FD SWAP2 PUSH2 0xC9B JUMP JUMPDEST PUSH2 0x11FD SWAP2 PUSH2 0x125E PUSH2 0x1259 PUSH1 0x1 PUSH1 0x1 PUSH1 0x80 SHL SUB PUSH2 0x1263 SWAP5 MLOAD AND PUSH2 0xCCC JUMP JUMPDEST PUSH2 0xCE2 JUMP JUMPDEST PUSH2 0xD20 JUMP JUMPDEST PUSH2 0xD3A JUMP JUMPDEST PUSH4 0x4E487B71 PUSH1 0xE0 SHL PUSH0 MSTORE PUSH1 0x21 PUSH1 0x4 MSTORE PUSH1 0x24 PUSH0 REVERT JUMPDEST SWAP3 POP SWAP1 POP PUSH1 0x20 DUP3 RETURNDATASIZE PUSH1 0x20 GT PUSH2 0x12B7 JUMPI JUMPDEST DUP2 PUSH2 0x1299 PUSH1 0x20 SWAP4 DUP4 PUSH2 0x859 JUMP JUMPDEST DUP2 ADD SUB SLT PUSH2 0xF4 JUMPI PUSH2 0x1008 SWAP3 PUSH2 0x12AF DUP11 SWAP4 PUSH2 0xBC2 JUMP JUMPDEST SWAP2 SWAP1 SWAP4 PUSH2 0xFFD JUMP JUMPDEST RETURNDATASIZE SWAP2 POP PUSH2 0x128C JUMP JUMPDEST SWAP2 SWAP3 POP POP PUSH1 0x20 DUP2 RETURNDATASIZE PUSH1 0x20 GT PUSH2 0x12FC JUMPI JUMPDEST DUP2 PUSH2 0x12DC PUSH1 0x20 SWAP4 DUP4 PUSH2 0x859 JUMP JUMPDEST DUP2 ADD SUB SLT PUSH2 0xF4 JUMPI DUP14 SWAP2 PUSH1 0x20 PUSH2 0x12F3 PUSH1 0x4 SWAP4 PUSH2 0xBC2 JUMP JUMPDEST SWAP4 SWAP2 SWAP3 POP PUSH2 0xFC7 JUMP JUMPDEST RETURNDATASIZE SWAP2 POP PUSH2 0x12CF JUMP JUMPDEST PUSH1 0x2 SUB PUSH2 0x1312 JUMPI PUSH1 0x2 PUSH2 0xF77 JUMP JUMPDEST PUSH0 PUSH2 0xF77 JUMP JUMPDEST POP PUSH4 0xFFFFFFFF DUP4 AND DUP2 DUP2 ISZERO DUP1 ISZERO PUSH2 0x135F JUMPI JUMPDEST ISZERO PUSH2 0x133C JUMPI POP POP PUSH1 0xFF PUSH1 0x3 PUSH0 SWAP8 PUSH2 0xF66 JUMP JUMPDEST PUSH4 0xFFFFFFFF PUSH4 0x3B9ACA00 PUSH2 0x1354 PUSH1 0x3 SWAP4 PUSH1 0xFF SWAP6 PUSH2 0xCB9 JUMP JUMPDEST DIV PUSH1 0x1 SHR AND SWAP8 PUSH2 0xF66 JUMP JUMPDEST POP DUP1 ISZERO PUSH2 0x132A JUMP JUMPDEST PUSH2 0xFFFF PUSH2 0x1375 SWAP2 AND DUP1 PUSH2 0xCB9 JUMP JUMPDEST PUSH1 0xA DUP2 MUL SWAP1 DUP1 DUP3 DIV PUSH1 0xA EQ SWAP1 ISZERO OR ISZERO PUSH2 0xC79 JUMPI SWAP5 PUSH2 0xF3B JUMP JUMPDEST PUSH1 0x40 SWAP2 SWAP3 SWAP6 SWAP4 POP AND ISZERO ISZERO DUP1 PUSH2 0x13B5 JUMPI JUMPDEST PUSH2 0x13AC JUMPI JUMPDEST POP PUSH1 0x80 SWAP1 PUSH2 0xF10 JUMP JUMPDEST SWAP3 POP PUSH1 0x80 PUSH2 0x13A3 JUMP JUMPDEST POP PUSH2 0xFFFF DUP2 AND ISZERO ISZERO PUSH2 0x139E JUMP JUMPDEST POP PUSH2 0xFFFF DUP5 AND ISZERO ISZERO PUSH2 0xF03 JUMP JUMPDEST SWAP1 SWAP5 POP PUSH1 0x20 DUP2 RETURNDATASIZE PUSH1 0x20 GT PUSH2 0x1403 JUMPI JUMPDEST DUP2 PUSH2 0x13EB PUSH1 0x20 SWAP4 DUP4 PUSH2 0x859 JUMP JUMPDEST DUP2 ADD SUB SLT PUSH2 0xF4 JUMPI PUSH2 0x13FC SWAP1 PUSH2 0xBC2 JUMP JUMPDEST SWAP4 PUSH0 PUSH2 0xECF JUMP JUMPDEST RETURNDATASIZE SWAP2 POP PUSH2 0x13DE JUMP JUMPDEST DUP7 MLOAD PUSH1 0x20 SWAP1 PUSH1 0x1 PUSH1 0x1 PUSH1 0xA0 SHL SUB AND PUSH2 0xEA4 JUMP JUMPDEST SWAP3 POP PUSH1 0x20 DUP5 RETURNDATASIZE PUSH1 0x20 GT PUSH2 0x1452 JUMPI JUMPDEST DUP2 PUSH2 0x1439 PUSH1 0x20 SWAP4 DUP4 PUSH2 0x859 JUMP JUMPDEST DUP2 ADD SUB SLT PUSH2 0xF4 JUMPI PUSH2 0x144C PUSH1 0x4 SWAP5 PUSH2 0xBC2 JUMP JUMPDEST SWAP3 PUSH2 0xE86 JUMP JUMPDEST RETURNDATASIZE SWAP2 POP PUSH2 0x142C JUMP JUMPDEST PUSH1 0x20 DUP7 DUP2 ADD MLOAD PUSH1 0x1 PUSH1 0x1 PUSH1 0xA0 SHL SUB AND PUSH2 0xE5B JUMP JUMPDEST POP POP POP POP POP POP PUSH0 SWAP1 JUMP JUMPDEST PUSH2 0x1496 SWAP2 SWAP5 PUSH1 0x1 PUSH1 0x1 PUSH1 0x80 SHL SUB PUSH2 0x1490 SWAP3 AND SWAP1 PUSH2 0xC6C JUMP JUMPDEST SWAP4 PUSH2 0xC8D JUMP JUMPDEST PUSH0 PUSH2 0xE23 JUMP JUMPDEST POP PUSH1 0x1 PUSH1 0x1 PUSH1 0x80 SHL SUB DUP2 AND ISZERO ISZERO PUSH2 0xE1E JUMP JUMPDEST PUSH2 0x14CD SWAP2 SWAP3 SWAP6 PUSH1 0x1 PUSH1 0x1 PUSH1 0x80 SHL SUB PUSH2 0x14C7 SWAP3 AND SWAP1 PUSH2 0xC6C JUMP JUMPDEST SWAP5 PUSH2 0xC8D JUMP JUMPDEST SWAP1 PUSH0 PUSH2 0xE11 JUMP JUMPDEST POP PUSH1 0x1 PUSH1 0x1 PUSH1 0x80 SHL SUB DUP2 AND ISZERO ISZERO PUSH2 0xE0C JUMP JUMPDEST PUSH2 0x1505 SWAP2 SWAP4 SWAP7 PUSH1 0x1 PUSH1 0x1 PUSH1 0x80 SHL SUB PUSH2 0x14FF SWAP3 AND SWAP1 PUSH2 0xC6C JUMP JUMPDEST SWAP6 PUSH2 0xC8D JUMP JUMPDEST SWAP2 PUSH0 PUSH2 0xDFF JUMP JUMPDEST POP PUSH1 0x1 PUSH1 0x1 PUSH1 0x80 SHL SUB DUP2 AND ISZERO ISZERO PUSH2 0xDFA JUMP JUMPDEST PUSH1 0x1 PUSH1 0x1 PUSH1 0x80 SHL SUB AND SWAP7 POP PUSH1 0x1 SWAP4 POP PUSH0 PUSH2 0xDED JUMP JUMPDEST POP PUSH1 0x1 PUSH1 0x1 PUSH1 0x80 SHL SUB DUP2 AND ISZERO ISZERO PUSH2 0xDE8 JUMP JUMPDEST POP POP POP PUSH0 SWAP1 JUMP JUMPDEST SWAP2 SWAP1 PUSH2 0x1561 SWAP1 PUSH1 0x20 DUP1 DUP3 MLOAD DUP4 ADD ADD SWAP2 ADD PUSH2 0xB1B JUMP JUMPDEST SWAP4 POP POP POP POP DUP1 MLOAD DUP1 ISZERO PUSH2 0x18F8 JUMPI SWAP1 PUSH1 0x20 DUP1 PUSH2 0x1580 SWAP4 DUP4 ADD ADD SWAP2 ADD PUSH2 0xBF3 JUMP JUMPDEST SWAP8 SWAP7 SWAP6 SWAP4 SWAP1 SWAP9 SWAP5 SWAP3 SWAP2 POP PUSH0 SWAP3 PUSH0 SWAP5 PUSH1 0x1 DUP9 AND ISZERO ISZERO DUP1 PUSH2 0x18E6 JUMPI JUMPDEST PUSH2 0x18D1 JUMPI JUMPDEST POP PUSH1 0x2 DUP8 AND ISZERO ISZERO DUP1 PUSH2 0x18BF JUMPI JUMPDEST PUSH2 0x1899 JUMPI JUMPDEST POP PUSH1 0x4 DUP7 AND ISZERO ISZERO DUP1 PUSH2 0x1887 JUMPI JUMPDEST PUSH2 0x1867 JUMPI JUMPDEST POP PUSH1 0x8 DUP6 AND ISZERO ISZERO DUP1 PUSH2 0x1855 JUMPI JUMPDEST PUSH2 0x1831 JUMPI JUMPDEST POP DUP2 ISZERO PUSH2 0x1820 JUMPI PUSH1 0x1 PUSH1 0x1 PUSH1 0x80 SHL SUB SWAP2 PUSH2 0x15EE SWAP2 PUSH2 0xC9B JUMP JUMPDEST AND SWAP5 PUSH1 0xC0 DUP3 ADD MLOAD SWAP2 PUSH2 0x162C PUSH2 0xFFFF DUP1 DUP6 AND SWAP4 PUSH1 0xF DUP7 AND SWAP7 PUSH2 0x160E DUP7 PUSH2 0x1905 JUMP JUMPDEST SWAP10 PUSH0 SWAP2 PUSH1 0x20 DUP2 AND ISZERO ISZERO DUP1 PUSH2 0x1815 JUMPI JUMPDEST ISZERO PUSH2 0x17E8 JUMPI POP POP POP AND DUP1 PUSH2 0xCB9 JUMP JUMPDEST SWAP2 PUSH1 0xA DUP4 MUL SWAP3 DUP1 DUP5 DIV PUSH1 0xA EQ SWAP1 ISZERO OR ISZERO PUSH2 0xC79 JUMPI PUSH1 0x4 SHR PUSH1 0x3 AND PUSH1 0x1 DUP2 SUB PUSH2 0x17D4 JUMPI POP PUSH1 0x1 JUMPDEST PUSH2 0x165B DUP9 PUSH2 0x1A7D JUMP JUMPDEST SWAP1 PUSH1 0x80 DUP4 ADD MLOAD PUSH1 0x1 PUSH1 0x1 PUSH1 0x80 SHL SUB AND SWAP3 PUSH1 0xA0 DUP2 ADD MLOAD PUSH1 0x1 PUSH1 0x1 PUSH1 0x80 SHL SUB AND SWAP1 PUSH1 0x60 DUP2 ADD MLOAD SWAP1 PUSH1 0xE0 ADD MLOAD ISZERO ISZERO SWAP2 PUSH2 0x1690 SWAP6 PUSH2 0x1D82 JUMP JUMPDEST SWAP1 PUSH2 0x169B DUP7 DUP6 PUSH2 0x1A4D JUMP JUMPDEST PUSH4 0xFFFFFFFF AND SWAP2 PUSH2 0x16AC DUP3 DUP5 PUSH2 0xCB9 JUMP JUMPDEST PUSH4 0x3B9ACA00 SWAP1 DIV PUSH4 0x3B9ACA00 SWAP1 DIV PUSH2 0x16C3 SWAP2 PUSH2 0xCFE JUMP JUMPDEST PUSH2 0x16CD SWAP1 DUP9 PUSH2 0xCFE JUMP JUMPDEST PUSH4 0x3B9ACA00 SWAP1 SDIV PUSH2 0x16DE SWAP1 DUP9 PUSH2 0xD4F JUMP JUMPDEST PUSH1 0x1 PUSH1 0x1 PUSH1 0x80 SHL SUB AND SWAP6 PUSH2 0x16F1 DUP6 PUSH2 0x1F75 JUMP JUMPDEST SWAP1 PUSH2 0x16FC DUP2 DUP8 PUSH2 0x1EF8 JUMP JUMPDEST PUSH2 0x172E SWAP7 SWAP1 SWAP6 PUSH4 0xFFFFFFFF SWAP6 PUSH2 0x10D4 SWAP6 SWAP1 SWAP2 PUSH1 0x80 AND ISZERO PUSH2 0x1791 JUMPI POP POP PUSH2 0x1724 DUP6 SWAP3 DUP4 SWAP3 PUSH2 0x1EF8 JUMP JUMPDEST SWAP6 JUMPDEST AND SWAP2 AND PUSH2 0xD4F JUMP JUMPDEST PUSH0 DUP2 SLT PUSH2 0x178A JUMPI JUMPDEST PUSH4 0xFFFFFFFF AND SWAP1 DUP2 PUSH4 0x3B9ACA00 SUB PUSH4 0x3B9ACA00 DUP2 GT PUSH2 0xC79 JUMPI PUSH2 0x1761 PUSH1 0x1 PUSH1 0x1 PUSH1 0x80 SHL SUB SWAP2 DUP6 PUSH2 0x1AFB JUMP JUMPDEST AND SWAP2 PUSH4 0x3B9ACA00 ADD DUP1 PUSH4 0x3B9ACA00 GT PUSH2 0xC79 JUMPI PUSH2 0x1786 PUSH1 0x1 PUSH1 0x1 PUSH1 0x80 SHL SUB SWAP2 DUP6 PUSH2 0x1AFB JUMP JUMPDEST AND SWAP1 JUMP JUMPDEST POP PUSH0 PUSH2 0x1736 JUMP JUMPDEST SWAP2 POP DUP1 SWAP3 POP ISZERO DUP1 ISZERO PUSH2 0x17CC JUMPI JUMPDEST ISZERO PUSH2 0x17AE JUMPI POP POP DUP3 DUP1 PUSH0 SWAP6 PUSH2 0x1726 JUMP JUMPDEST DUP5 PUSH4 0x3B9ACA00 PUSH2 0x17C1 DUP3 SWAP5 SWAP4 DUP4 SWAP5 PUSH2 0xCB9 JUMP JUMPDEST DIV PUSH1 0x1 SHR AND SWAP6 PUSH2 0x1726 JUMP JUMPDEST POP DUP1 ISZERO PUSH2 0x179E JUMP JUMPDEST PUSH1 0x2 SUB PUSH2 0x17E2 JUMPI PUSH1 0x2 PUSH2 0x1652 JUMP JUMPDEST PUSH0 PUSH2 0x1652 JUMP JUMPDEST PUSH1 0x40 SWAP2 SWAP3 SWAP4 POP AND ISZERO ISZERO DUP1 PUSH2 0x180A JUMPI JUMPDEST PUSH2 0x1802 JUMPI JUMPDEST POP PUSH2 0xF31 JUMP JUMPDEST SWAP1 POP PUSH0 PUSH2 0x17FC JUMP JUMPDEST POP DUP3 DUP2 AND ISZERO ISZERO PUSH2 0x17F7 JUMP JUMPDEST POP DUP5 DUP5 AND ISZERO ISZERO PUSH2 0x161D JUMP JUMPDEST POP POP POP POP SWAP2 POP POP PUSH0 SWAP1 PUSH0 SWAP1 PUSH0 SWAP1 PUSH0 SWAP1 JUMP JUMPDEST PUSH2 0x184E SWAP2 PUSH1 0x1 PUSH1 0x1 PUSH1 0x80 SHL SUB PUSH2 0x1848 SWAP3 AND SWAP1 PUSH2 0xC6C JUMP JUMPDEST SWAP2 PUSH2 0xC8D JUMP JUMPDEST SWAP1 PUSH0 PUSH2 0x15D5 JUMP JUMPDEST POP PUSH1 0x1 PUSH1 0x1 PUSH1 0x80 SHL SUB DUP2 AND ISZERO ISZERO PUSH2 0x15D0 JUMP JUMPDEST PUSH2 0x1880 SWAP2 SWAP4 SWAP3 PUSH1 0x1 PUSH1 0x1 PUSH1 0x80 SHL SUB PUSH2 0x1848 SWAP3 AND SWAP1 PUSH2 0xC6C JUMP JUMPDEST SWAP2 PUSH0 PUSH2 0x15C3 JUMP JUMPDEST POP PUSH1 0x1 PUSH1 0x1 PUSH1 0x80 SHL SUB DUP2 AND ISZERO ISZERO PUSH2 0x15BE JUMP JUMPDEST PUSH2 0x18B8 SWAP2 SWAP5 SWAP4 PUSH1 0x1 PUSH1 0x1 PUSH1 0x80 SHL SUB PUSH2 0x18B2 SWAP3 AND SWAP1 PUSH2 0xC6C JUMP JUMPDEST SWAP3 PUSH2 0xC8D JUMP JUMPDEST SWAP3 PUSH0 PUSH2 0x15B1 JUMP JUMPDEST POP PUSH1 0x1 PUSH1 0x1 PUSH1 0x80 SHL SUB DUP2 AND ISZERO ISZERO PUSH2 0x15AC JUMP JUMPDEST PUSH1 0x1 SWAP6 POP PUSH1 0x1 PUSH1 0x1 PUSH1 0x80 SHL SUB AND SWAP4 POP PUSH0 PUSH2 0x159F JUMP JUMPDEST POP PUSH1 0x1 PUSH1 0x1 PUSH1 0x80 SHL SUB DUP2 AND ISZERO ISZERO PUSH2 0x159A JUMP JUMPDEST POP PUSH0 SWAP3 POP DUP3 SWAP2 DUP3 SWAP2 POP DUP2 SWAP1 JUMP JUMPDEST PUSH2 0x100 DUP2 AND PUSH2 0xAA8 JUMPI PUSH1 0x4 DUP2 SWAP1 SHR PUSH1 0x3 AND ISZERO PUSH2 0xAA8 JUMPI PUSH1 0x6 SHR PUSH1 0x1 AND PUSH2 0x192D JUMPI PUSH4 0x1DCD6500 SWAP1 JUMP JUMPDEST PUSH4 0x3B9ACA00 SWAP1 JUMP JUMPDEST SWAP1 PUSH4 0xFFFFFFFF DUP1 SWAP2 AND SWAP2 AND ADD SWAP1 PUSH4 0xFFFFFFFF DUP3 GT PUSH2 0xC79 JUMPI JUMP JUMPDEST SWAP1 PUSH1 0xF DUP3 AND SWAP1 PUSH2 0x195E DUP4 PUSH2 0x1905 JUMP JUMPDEST SWAP1 PUSH2 0x1968 DUP4 PUSH2 0x1F75 JUMP JUMPDEST SWAP4 PUSH4 0xFFFFFFFF DUP4 AND ISZERO PUSH2 0x1A40 JUMPI PUSH1 0x80 AND PUSH2 0x19EA JUMPI DUP2 PUSH4 0x3B9ACA00 PUSH2 0x19A3 PUSH2 0x19AD SWAP4 PUSH4 0xFFFFFFFF DUP1 PUSH2 0x199A DUP2 SWAP9 DUP11 PUSH2 0x1A4D JUMP JUMPDEST AND SWAP2 AND SWAP1 PUSH2 0xCB9 JUMP JUMPDEST PUSH1 0x1 SHR DIV SWAP4 PUSH2 0x1EF8 JUMP JUMPDEST SWAP3 AND SWAP2 PUSH4 0xFFFFFFFF PUSH2 0x19BF DUP4 DUP6 PUSH2 0xC6C JUMP JUMPDEST SWAP2 AND SWAP1 DUP2 GT PUSH2 0x19E2 JUMPI PUSH2 0x19DD PUSH2 0x1786 SWAP3 PUSH1 0x1 PUSH1 0x1 PUSH1 0x40 SHL SUB SWAP5 PUSH2 0xC6C JUMP JUMPDEST PUSH2 0xD92 JUMP JUMPDEST POP PUSH0 SWAP3 SWAP2 POP POP JUMP JUMPDEST POP SWAP2 PUSH2 0x1A05 DUP4 PUSH2 0x19FF PUSH4 0xFFFFFFFF SWAP6 DUP6 PUSH2 0x1EF8 JUMP JUMPDEST SWAP4 PUSH2 0x1EF8 JUMP JUMPDEST SWAP2 DUP4 PUSH2 0x1A11 DUP5 DUP5 PUSH2 0x1935 JUMP JUMPDEST SWAP2 AND SWAP4 AND DUP4 GT PUSH2 0x19E2 JUMPI PUSH4 0xFFFFFFFF SWAP2 PUSH2 0x1A2A SWAP2 PUSH2 0x1935 JUMP JUMPDEST AND SUB PUSH4 0xFFFFFFFF DUP2 GT PUSH2 0xC79 JUMPI PUSH4 0xFFFFFFFF AND SWAP1 JUMP JUMPDEST POP POP POP POP PUSH4 0xFFFFFFFF AND SWAP1 JUMP JUMPDEST SWAP1 PUSH4 0xFFFFFFFF AND DUP1 ISZERO PUSH2 0x1A77 JUMPI PUSH2 0x1A72 PUSH4 0x3B9ACA00 SWAP2 PUSH4 0xFFFFFFFF PUSH2 0x106D DUP2 SWAP6 PUSH2 0x2030 JUMP JUMPDEST DIV AND SWAP1 JUMP JUMPDEST POP POP PUSH0 SWAP1 JUMP JUMPDEST PUSH0 NOT PUSH4 0x3B9ACA00 DUP3 MULMOD PUSH4 0x3B9ACA00 DUP3 MUL SWAP2 DUP3 DUP1 DUP4 LT SWAP3 SUB SWAP2 DUP1 DUP4 SUB SWAP3 EQ PUSH2 0x1AF3 JUMPI DUP2 PUSH1 0x1 PUSH1 0x40 SHL GT ISZERO PUSH2 0x1AC8 JUMPI PUSH4 0x3B9ACA00 PUSH1 0x1 PUSH1 0x40 SHL SWAP2 MULMOD SWAP1 DUP3 DUP3 GT SWAP1 SUB PUSH1 0xC0 SHL SWAP2 SUB PUSH1 0x40 SHR OR SWAP1 JUMP JUMPDEST PUSH1 0x40 MLOAD PUSH3 0x461BCD PUSH1 0xE5 SHL DUP2 MSTORE PUSH1 0x20 PUSH1 0x4 DUP3 ADD MSTORE PUSH1 0x3 PUSH1 0x24 DUP3 ADD MSTORE PUSH3 0x13D193 PUSH1 0xEA SHL PUSH1 0x44 DUP3 ADD MSTORE PUSH1 0x64 SWAP1 REVERT JUMPDEST POP POP PUSH1 0x40 SHR SWAP1 JUMP JUMPDEST PUSH0 NOT DUP3 DUP3 MULMOD DUP3 DUP3 MUL SWAP2 DUP3 DUP1 DUP4 LT SWAP3 SUB SWAP2 DUP1 DUP4 SUB SWAP3 EQ PUSH2 0x1B5C JUMPI DUP2 PUSH4 0x3B9ACA00 GT ISZERO PUSH2 0x1AC8 JUMPI PUSH32 0x88F2CFB83100CB4E69E7C79C58B316E597157D372FB9787E8E47CE423A2E9C6D SWAP4 PUSH4 0x3B9ACA00 SWAP2 MULMOD SWAP1 DUP3 DUP3 GT SWAP1 SUB PUSH1 0xF7 SHL SWAP2 SUB PUSH1 0x9 SHR OR MUL SWAP1 JUMP JUMPDEST POP POP PUSH4 0x3B9ACA00 SWAP2 POP DIV SWAP1 JUMP JUMPDEST PUSH0 NOT PUSH1 0x1 PUSH1 0x40 SHL DUP3 MULMOD SWAP2 DUP2 PUSH1 0x40 SHL SWAP2 DUP3 DUP1 DUP6 LT SWAP5 SUB SWAP4 DUP1 DUP6 SUB SWAP5 EQ PUSH2 0x1BEB JUMPI DUP4 DUP3 GT ISZERO PUSH2 0x1AC8 JUMPI PUSH1 0x1 PUSH1 0x40 SHL DUP3 SWAP2 MULMOD PUSH1 0x1 DUP3 NOT ADD DUP3 AND DUP1 SWAP3 DIV PUSH1 0x2 DUP2 PUSH1 0x3 MUL XOR DUP1 DUP3 MUL PUSH1 0x2 SUB MUL DUP1 DUP3 MUL PUSH1 0x2 SUB MUL DUP1 DUP3 MUL PUSH1 0x2 SUB MUL DUP1 DUP3 MUL PUSH1 0x2 SUB MUL DUP1 DUP3 MUL PUSH1 0x2 SUB MUL DUP1 SWAP2 MUL PUSH1 0x2 SUB MUL SWAP4 PUSH1 0x1 DUP4 DUP1 PUSH0 SUB DIV ADD SWAP1 DUP5 DUP4 GT SWAP1 SUB MUL SWAP3 SUB DIV OR MUL SWAP1 JUMP JUMPDEST POP DUP1 SWAP3 POP ISZERO PUSH2 0x1BF8 JUMPI DIV SWAP1 JUMP JUMPDEST PUSH1 0x64 PUSH1 0x40 MLOAD PUSH3 0x461BCD PUSH1 0xE5 SHL DUP2 MSTORE PUSH1 0x20 PUSH1 0x4 DUP3 ADD MSTORE PUSH1 0x4 PUSH1 0x24 DUP3 ADD MSTORE PUSH4 0x4449563 PUSH1 0xE4 SHL PUSH1 0x44 DUP3 ADD MSTORE REVERT JUMPDEST PUSH0 NOT DUP3 DUP3 MULMOD SWAP1 DUP3 DUP2 MUL SWAP3 DUP4 DUP1 DUP5 LT SWAP4 SUB SWAP3 DUP1 DUP5 SUB SWAP4 EQ PUSH2 0x1C62 JUMPI DUP3 PUSH1 0x1 PUSH1 0x40 SHL GT ISZERO PUSH2 0x1AC8 JUMPI PUSH1 0x1 PUSH1 0x40 SHL SWAP2 MULMOD SWAP1 DUP3 DUP3 GT SWAP1 SUB PUSH1 0xC0 SHL SWAP2 SUB PUSH1 0x40 SHR OR SWAP1 JUMP JUMPDEST POP POP POP PUSH1 0x40 SHR SWAP1 JUMP JUMPDEST SWAP2 PUSH0 NOT DUP3 DUP5 MULMOD SWAP3 DUP3 DUP2 MUL SWAP3 DUP4 DUP1 DUP7 LT SWAP6 SUB SWAP5 DUP1 DUP7 SUB SWAP6 EQ PUSH2 0x1CE4 JUMPI DUP5 DUP4 GT ISZERO PUSH2 0x1AC8 JUMPI DUP3 SWAP2 MULMOD PUSH1 0x1 DUP3 NOT ADD DUP3 AND DUP1 SWAP3 DIV PUSH1 0x2 DUP2 PUSH1 0x3 MUL XOR DUP1 DUP3 MUL PUSH1 0x2 SUB MUL DUP1 DUP3 MUL PUSH1 0x2 SUB MUL DUP1 DUP3 MUL PUSH1 0x2 SUB MUL DUP1 DUP3 MUL PUSH1 0x2 SUB MUL DUP1 DUP3 MUL PUSH1 0x2 SUB MUL DUP1 SWAP2 MUL PUSH1 0x2 SUB MUL SWAP4 PUSH1 0x1 DUP4 DUP1 PUSH0 SUB DIV ADD SWAP1 DUP5 DUP4 GT SWAP1 SUB MUL SWAP3 SUB DIV OR MUL SWAP1 JUMP JUMPDEST POP POP DUP1 SWAP3 POP ISZERO PUSH2 0x1BF8 JUMPI DIV SWAP1 JUMP JUMPDEST PUSH1 0x4D DUP2 GT PUSH2 0xC79 JUMPI PUSH1 0xA EXP SWAP1 JUMP JUMPDEST SWAP1 SWAP3 SWAP2 SWAP3 DUP2 ISZERO PUSH2 0x1D3F JUMPI PUSH2 0xA6C SWAP4 PUSH1 0x1 PUSH1 0x1 PUSH1 0x80 SHL SUB SWAP3 PUSH2 0x1D31 PUSH1 0xFF PUSH2 0x1D2A DUP2 PUSH2 0x1D37 SWAP7 AND PUSH2 0x1CF2 JUMP JUMPDEST SWAP4 AND PUSH2 0x1CF2 JUMP JUMPDEST SWAP1 PUSH2 0x1C6B JUMP JUMPDEST SWAP2 AND SWAP1 PUSH2 0x1B69 JUMP JUMPDEST POP POP POP POP PUSH0 SWAP1 JUMP JUMPDEST SWAP3 SWAP1 DUP4 ISZERO PUSH2 0x1D3F JUMPI PUSH2 0xA6C SWAP4 PUSH1 0x1 PUSH1 0x1 PUSH1 0x80 SHL SUB PUSH2 0x1D75 PUSH1 0xFF PUSH2 0x1D6E DUP2 PUSH2 0x1D7D SWAP7 AND PUSH2 0x1CF2 JUMP JUMPDEST SWAP7 AND PUSH2 0x1CF2 JUMP JUMPDEST SWAP4 AND SWAP1 PUSH2 0x1C23 JUMP JUMPDEST PUSH2 0x1C6B JUMP JUMPDEST SWAP1 SWAP5 SWAP3 SWAP2 SWAP4 SWAP5 PUSH4 0x3B9ACA00 DUP2 MUL SWAP1 DUP1 DUP3 DIV PUSH4 0x3B9ACA00 EQ SWAP1 ISZERO OR ISZERO PUSH2 0xC79 JUMPI DUP4 PUSH2 0x1DAB SWAP2 PUSH2 0xC9B JUMP JUMPDEST SWAP2 ISZERO PUSH2 0x1E96 JUMPI PUSH4 0x3B9ACA00 PUSH2 0x1DCA DUP5 PUSH2 0x1DC4 DUP8 DUP6 PUSH2 0xC6C JUMP JUMPDEST SWAP7 PUSH2 0xCB9 JUMP JUMPDEST DIV PUSH4 0x3B9ACA00 DUP2 MUL SWAP1 DUP1 DUP3 DIV PUSH4 0x3B9ACA00 EQ SWAP1 ISZERO OR ISZERO PUSH2 0xC79 JUMPI DUP6 DUP1 SWAP4 PUSH2 0x1DF7 PUSH2 0x1E0F SWAP7 PUSH2 0x1E09 SWAP5 PUSH2 0xC9B JUMP JUMPDEST DUP1 DUP3 GT ISZERO PUSH2 0x1E8F JUMPI PUSH2 0x1E09 SWAP1 DUP3 PUSH2 0xD92 JUMP JUMPDEST SWAP4 PUSH2 0x20EE JUMP JUMPDEST SWAP2 PUSH1 0x3 DUP2 LT ISZERO PUSH2 0x1268 JUMPI PUSH2 0x1E81 JUMPI PUSH2 0x1E37 SWAP2 SWAP1 PUSH0 DUP2 SLT PUSH2 0x1E72 JUMPI SWAP1 JUMPDEST PUSH0 DUP2 SLT PUSH2 0x1E64 JUMPI PUSH2 0xD4F JUMP JUMPDEST PUSH4 0x3B9ACA00 DUP2 SGT PUSH2 0x1E5B JUMPI PUSH4 0x3B9AC9FF NOT DUP2 SLT PUSH2 0x1E51 JUMPI SWAP1 JUMP JUMPDEST POP PUSH4 0x3B9AC9FF NOT SWAP1 JUMP JUMPDEST POP PUSH4 0x3B9ACA00 SWAP1 JUMP JUMPDEST PUSH2 0x1E6D SWAP1 PUSH2 0xD67 JUMP JUMPDEST PUSH2 0xD4F JUMP JUMPDEST PUSH2 0x1E7B SWAP1 PUSH2 0xD67 JUMP JUMPDEST SWAP1 PUSH2 0x1E2B JUMP JUMPDEST PUSH2 0x1E8A SWAP2 PUSH2 0xD4F JUMP JUMPDEST PUSH2 0x1E37 JUMP JUMPDEST POP PUSH0 PUSH2 0x1E09 JUMP JUMPDEST SWAP3 PUSH4 0x3B9ACA00 DUP2 SWAP4 SWAP3 SWAP4 MUL SWAP1 DUP1 DUP3 DIV PUSH4 0x3B9ACA00 EQ SWAP1 ISZERO OR ISZERO PUSH2 0xC79 JUMPI PUSH2 0x1E09 DUP6 PUSH2 0x1E0F SWAP5 PUSH2 0x1ED9 DUP6 PUSH2 0x1ED3 PUSH2 0x1ECD DUP6 SWAP9 DUP9 PUSH2 0xC9B JUMP JUMPDEST DUP5 PUSH2 0xC6C JUMP JUMPDEST SWAP6 PUSH2 0xC9B JUMP JUMPDEST DUP1 DUP9 GT ISZERO PUSH2 0x1EF1 JUMPI PUSH2 0x1EEB SWAP1 DUP9 PUSH2 0xD92 JUMP JUMPDEST SWAP7 PUSH2 0x20EE JUMP JUMPDEST POP PUSH0 PUSH2 0x1EEB JUMP JUMPDEST SWAP1 PUSH4 0xFFFFFFFF DUP2 AND ISZERO PUSH2 0x1A77 JUMPI PUSH4 0x3B9ACA00 PUSH2 0x1F26 PUSH4 0xFFFFFFFF PUSH2 0xF31 PUSH2 0x1F20 DUP3 SWAP6 DUP8 PUSH2 0x1A4D JUMP JUMPDEST SWAP6 PUSH2 0x2030 JUMP JUMPDEST DIV SWAP2 AND SWAP1 PUSH3 0x186A0 DUP3 MUL SWAP2 DUP1 DUP4 DIV PUSH3 0x186A0 EQ SWAP1 ISZERO OR ISZERO PUSH2 0xC79 JUMPI PUSH1 0x1 PUSH1 0x1 PUSH1 0xFF SHL SUB DUP2 AND DUP2 SUB PUSH2 0xC79 JUMPI PUSH4 0xFFFFFFFF SWAP2 PUSH2 0x1786 SWAP2 PUSH1 0x1 SHL SWAP1 PUSH2 0xC9B JUMP JUMPDEST SWAP1 PUSH1 0x10 DUP2 LT ISZERO PUSH2 0xAC1 JUMPI PUSH1 0x5 SHL ADD SWAP1 JUMP JUMPDEST PUSH2 0x202B PUSH4 0xFFFFFFFF SWAP2 PUSH1 0xFF PUSH1 0x40 MLOAD SWAP2 PUSH2 0x1F8D DUP4 PUSH2 0x83D JUMP JUMPDEST PUSH2 0xC350 DUP4 MSTORE PUSH3 0x186A0 PUSH1 0x20 DUP5 ADD MSTORE PUSH3 0x3D090 PUSH1 0x40 DUP5 ADD MSTORE PUSH3 0x7A120 PUSH1 0x60 DUP5 ADD MSTORE PUSH3 0xB71B0 PUSH1 0x80 DUP5 ADD MSTORE PUSH3 0xF4240 PUSH1 0xA0 DUP5 ADD MSTORE PUSH3 0x16E360 PUSH1 0xC0 DUP5 ADD MSTORE PUSH3 0x1E8480 PUSH1 0xE0 DUP5 ADD MSTORE PUSH3 0x2DC6C0 PUSH2 0x100 DUP5 ADD MSTORE PUSH3 0x4C4B40 PUSH2 0x120 DUP5 ADD MSTORE PUSH3 0x7270E0 PUSH2 0x140 DUP5 ADD MSTORE PUSH3 0x989680 PUSH2 0x160 DUP5 ADD MSTORE PUSH3 0xE4E1C0 PUSH2 0x180 DUP5 ADD MSTORE PUSH4 0x1312D00 PUSH2 0x1A0 DUP5 ADD MSTORE PUSH4 0x1C9C380 PUSH2 0x1C0 DUP5 ADD MSTORE PUSH4 0x2FAF080 PUSH2 0x1E0 DUP5 ADD MSTORE AND SWAP1 PUSH2 0x1F64 JUMP JUMPDEST MLOAD AND SWAP1 JUMP JUMPDEST PUSH2 0x202B PUSH4 0xFFFFFFFF SWAP2 PUSH1 0xFF PUSH1 0x40 MLOAD SWAP2 PUSH2 0x2048 DUP4 PUSH2 0x83D JUMP JUMPDEST PUSH4 0x77359400 DUP4 MSTORE PUSH4 0x3B9ACA00 PUSH1 0x20 DUP5 ADD MSTORE PUSH4 0x17D78400 PUSH1 0x40 DUP5 ADD MSTORE PUSH4 0xBEBC200 PUSH1 0x60 DUP5 ADD MSTORE PUSH4 0x7F28155 PUSH1 0x80 DUP5 ADD MSTORE PUSH4 0x5F5E100 PUSH1 0xA0 DUP5 ADD MSTORE PUSH4 0x3F940AB PUSH1 0xC0 DUP5 ADD MSTORE PUSH4 0x2FAF080 PUSH1 0xE0 DUP5 ADD MSTORE PUSH4 0x1FCA055 PUSH2 0x100 DUP5 ADD MSTORE PUSH4 0x1312D00 PUSH2 0x120 DUP5 ADD MSTORE PUSH3 0xCB7355 PUSH2 0x140 DUP5 ADD MSTORE PUSH3 0x989680 PUSH2 0x160 DUP5 ADD MSTORE PUSH3 0x65B9AB PUSH2 0x180 DUP5 ADD MSTORE PUSH3 0x4C4B40 PUSH2 0x1A0 DUP5 ADD MSTORE PUSH3 0x32DCD5 PUSH2 0x1C0 DUP5 ADD MSTORE PUSH3 0x1E8480 PUSH2 0x1E0 DUP5 ADD MSTORE AND SWAP1 PUSH2 0x1F64 JUMP JUMPDEST SWAP2 SWAP1 PUSH2 0x20FA DUP2 DUP5 PUSH2 0xC6C JUMP JUMPDEST SWAP2 DUP3 ISZERO PUSH2 0x1D3F JUMPI PUSH1 0x3 DUP2 LT ISZERO PUSH2 0x1268 JUMPI DUP1 PUSH2 0x2124 JUMPI POP POP PUSH2 0x1263 SWAP1 PUSH2 0x125E PUSH2 0x1259 PUSH2 0xA6C SWAP5 PUSH2 0xCCC JUMP JUMPDEST PUSH1 0x1 SUB PUSH2 0x2138 JUMPI POP PUSH2 0x125E PUSH2 0xA6C SWAP3 PUSH2 0xCE2 JUMP JUMPDEST PUSH2 0xA6C SWAP3 POP PUSH2 0x125E SWAP1 PUSH2 0xCE2 JUMP INVALID LOG2 PUSH5 0x6970667358 0x22 SLT KECCAK256 EQ BLOBBASEFEE RETURN SWAP7 RETURN 0x4E 0xB9 EOFCREATE 0x8B CREATE2 0xAF DUP12 PUSH11 0x70B7ADF266C840D2F5E94 PUSH27 0xE4967C7828F99A64736F6C634300081E0033000000000000000000 "},"methodIdentifiers":{"buildBucketID(uint8,uint8,bool,bool,bool)":"d8035700","debugPrices((address,address,address,uint256,uint128,uint128,uint16,bool,uint8),bytes)":"b3a3272c","deltaStarPrecomp(uint16,uint32)":"4a42e6ed","gammaFromScaleAndIdx(uint8,uint32)":"9b6f3a48","gammaHighPpb()":"daf67cdd","gammaHighScalePpb()":"e3463b7a","gammaLowScalePpb()":"ceb5ee64","gammaMidPpb()":"b7ec31e1","gammaMidScalePpb()":"65d8f9e2","gammaScalePpbOf(uint16)":"0234beb7","invKppbFromIdx(uint8)":"82e8a97c","quote((address,address,address,uint256,uint128,uint128,uint16,bool,uint8),bytes)":"abfebfd1","quoteBatch((address,address,address,uint256[],uint128[],uint128[],uint16[],bool,uint8),bytes)":"72e07279","requiresSigmaData(uint16)":"6f96a0a3","sigmaIsFixed(uint16)":"f1ae5ea3","term2ByGammaFromIdx(uint8,uint32)":"3c1ee1d2"}}}}}