{"contracts/z_remix_test/FlashTwoSwapsCallback.sol":{"FlashTwoSwapsCallback":{"abi":[{"inputs":[{"internalType":"address","name":"_pm","type":"address"},{"internalType":"address","name":"_asset0","type":"address"},{"internalType":"address","name":"_asset1","type":"address"},{"internalType":"address","name":"_quoter","type":"address"},{"internalType":"bytes3","name":"_markings","type":"bytes3"},{"internalType":"uint256","name":"_amountIn","type":"uint256"}],"stateMutability":"nonpayable","type":"constructor"},{"inputs":[],"name":"amountIn","outputs":[{"internalType":"uint256","name":"","type":"uint256"}],"stateMutability":"view","type":"function"},{"inputs":[],"name":"asset0","outputs":[{"internalType":"address","name":"","type":"address"}],"stateMutability":"view","type":"function"},{"inputs":[],"name":"asset1","outputs":[{"internalType":"address","name":"","type":"address"}],"stateMutability":"view","type":"function"},{"inputs":[{"internalType":"bytes","name":"","type":"bytes"}],"name":"flashCallback","outputs":[],"stateMutability":"nonpayable","type":"function"},{"inputs":[],"name":"markings","outputs":[{"internalType":"bytes3","name":"","type":"bytes3"}],"stateMutability":"view","type":"function"},{"inputs":[],"name":"poolManager","outputs":[{"internalType":"contract IPoolManager","name":"","type":"address"}],"stateMutability":"view","type":"function"},{"inputs":[],"name":"quoter","outputs":[{"internalType":"address","name":"","type":"address"}],"stateMutability":"view","type":"function"}],"evm":{"bytecode":{"linkReferences":{},"object":"6101403461011557601f6105f438819003918201601f19168301916001600160401b038311848410176101195780849260c094604052833981010312610115576100488161012d565b906100556020820161012d565b6100616040830161012d565b61006d6060840161012d565b9160808401519362ffffff60e81b851685036101155760a0908101516001600160a01b039096166080525260c05260e05261010052610120526040516104b29081610142823960805181818161012b0152610275015260a05181818160e701526102fd015260c0518181816101560152610341015260e05181818161010901526102b901526101005181818160c5015261038501526101205181818161017801526103ca0152f35b5f80fd5b634e487b7160e01b5f52604160045260245ffd5b51906001600160a01b03821682036101155756fe6080806040526004361015610012575f80fd5b5f3560e01c9081636bed55a6146103b5575080636c4ebd05146103705780637cd5f3f91461032c578063c509b6a2146102e8578063c6bbd5a7146102a4578063dc4c90d3146102605763e373923814610069575f80fd5b346102545760203660031901126102545760043567ffffffffffffffff8111610254573660238201121561025457806004013567ffffffffffffffff811161025457369101602401116102545760405163364af21360e21b81527f0000000000000000000000000000000000000000000000000000000000000000907f0000000000000000000000000000000000000000000000000000000000000000907f0000000000000000000000000000000000000000000000000000000000000000907f00000000000000000000000000000000000000000000000000000000000000006001600160a01b0316907f0000000000000000000000000000000000000000000000000000000000000000907f000000000000000000000000000000000000000000000000000000000000000090602081806101ad858b8a898d60048701610432565b03815f885af1801561021e57610229575b506020946101e45f926040519889978896879563364af21360e21b875260048701610432565b03925af1801561021e576101f457005b6102159060203d602011610217575b61020d81836103ed565b810190610423565b005b503d610203565b6040513d5f823e3d90fd5b946020863d602011610258575b81610243602093836103ed565b8101031261025457945060206101be565b5f80fd5b3d9150610236565b34610254575f366003190112610254576040517f00000000000000000000000000000000000000000000000000000000000000006001600160a01b03168152602090f35b34610254575f366003190112610254576040517f00000000000000000000000000000000000000000000000000000000000000006001600160a01b03168152602090f35b34610254575f366003190112610254576040517f00000000000000000000000000000000000000000000000000000000000000006001600160a01b03168152602090f35b34610254575f366003190112610254576040517f00000000000000000000000000000000000000000000000000000000000000006001600160a01b03168152602090f35b34610254575f366003190112610254576040517f00000000000000000000000000000000000000000000000000000000000000006001600160e81b0319168152602090f35b34610254575f366003190112610254576020907f00000000000000000000000000000000000000000000000000000000000000008152f35b90601f8019910116810190811067ffffffffffffffff82111761040f57604052565b634e487b7160e01b5f52604160045260245ffd5b90816020910312610254575190565b6001600160a01b039182168152918116602083015290911660408201526001600160e81b031990911660608201526080810191909152600160a0820181905260c082015260e0019056fea26469706673582212207ec44ec317c9ed1410c597587045755028140d8f377a4c6fe3489c328939db7364736f6c634300081e0033","opcodes":"PUSH2 0x140 CALLVALUE PUSH2 0x115 JUMPI PUSH1 0x1F PUSH2 0x5F4 CODESIZE DUP2 SWAP1 SUB SWAP2 DUP3 ADD PUSH1 0x1F NOT AND DUP4 ADD SWAP2 PUSH1 0x1 PUSH1 0x1 PUSH1 0x40 SHL SUB DUP4 GT DUP5 DUP5 LT OR PUSH2 0x119 JUMPI DUP1 DUP5 SWAP3 PUSH1 0xC0 SWAP5 PUSH1 0x40 MSTORE DUP4 CODECOPY DUP2 ADD SUB SLT PUSH2 0x115 JUMPI PUSH2 0x48 DUP2 PUSH2 0x12D JUMP JUMPDEST SWAP1 PUSH2 0x55 PUSH1 0x20 DUP3 ADD PUSH2 0x12D JUMP JUMPDEST PUSH2 0x61 PUSH1 0x40 DUP4 ADD PUSH2 0x12D JUMP JUMPDEST PUSH2 0x6D PUSH1 0x60 DUP5 ADD PUSH2 0x12D JUMP JUMPDEST SWAP2 PUSH1 0x80 DUP5 ADD MLOAD SWAP4 PUSH3 0xFFFFFF PUSH1 0xE8 SHL DUP6 AND DUP6 SUB PUSH2 0x115 JUMPI PUSH1 0xA0 SWAP1 DUP2 ADD MLOAD PUSH1 0x1 PUSH1 0x1 PUSH1 0xA0 SHL SUB SWAP1 SWAP7 AND PUSH1 0x80 MSTORE MSTORE PUSH1 0xC0 MSTORE PUSH1 0xE0 MSTORE PUSH2 0x100 MSTORE PUSH2 0x120 MSTORE PUSH1 0x40 MLOAD PUSH2 0x4B2 SWAP1 DUP2 PUSH2 0x142 DUP3 CODECOPY PUSH1 0x80 MLOAD DUP2 DUP2 DUP2 PUSH2 0x12B ADD MSTORE PUSH2 0x275 ADD MSTORE PUSH1 0xA0 MLOAD DUP2 DUP2 DUP2 PUSH1 0xE7 ADD MSTORE PUSH2 0x2FD ADD MSTORE PUSH1 0xC0 MLOAD DUP2 DUP2 DUP2 PUSH2 0x156 ADD MSTORE PUSH2 0x341 ADD MSTORE PUSH1 0xE0 MLOAD DUP2 DUP2 DUP2 PUSH2 0x109 ADD MSTORE PUSH2 0x2B9 ADD MSTORE PUSH2 0x100 MLOAD DUP2 DUP2 DUP2 PUSH1 0xC5 ADD MSTORE PUSH2 0x385 ADD MSTORE PUSH2 0x120 MLOAD DUP2 DUP2 DUP2 PUSH2 0x178 ADD MSTORE PUSH2 0x3CA ADD MSTORE RETURN JUMPDEST PUSH0 DUP1 REVERT JUMPDEST PUSH4 0x4E487B71 PUSH1 0xE0 SHL PUSH0 MSTORE PUSH1 0x41 PUSH1 0x4 MSTORE PUSH1 0x24 PUSH0 REVERT JUMPDEST MLOAD SWAP1 PUSH1 0x1 PUSH1 0x1 PUSH1 0xA0 SHL SUB DUP3 AND DUP3 SUB PUSH2 0x115 JUMPI JUMP INVALID PUSH1 0x80 DUP1 PUSH1 0x40 MSTORE PUSH1 0x4 CALLDATASIZE LT ISZERO PUSH2 0x12 JUMPI PUSH0 DUP1 REVERT JUMPDEST PUSH0 CALLDATALOAD PUSH1 0xE0 SHR SWAP1 DUP2 PUSH4 0x6BED55A6 EQ PUSH2 0x3B5 JUMPI POP DUP1 PUSH4 0x6C4EBD05 EQ PUSH2 0x370 JUMPI DUP1 PUSH4 0x7CD5F3F9 EQ PUSH2 0x32C JUMPI DUP1 PUSH4 0xC509B6A2 EQ PUSH2 0x2E8 JUMPI DUP1 PUSH4 0xC6BBD5A7 EQ PUSH2 0x2A4 JUMPI DUP1 PUSH4 0xDC4C90D3 EQ PUSH2 0x260 JUMPI PUSH4 0xE3739238 EQ PUSH2 0x69 JUMPI PUSH0 DUP1 REVERT JUMPDEST CALLVALUE PUSH2 0x254 JUMPI PUSH1 0x20 CALLDATASIZE PUSH1 0x3 NOT ADD SLT PUSH2 0x254 JUMPI PUSH1 0x4 CALLDATALOAD PUSH8 0xFFFFFFFFFFFFFFFF DUP2 GT PUSH2 0x254 JUMPI CALLDATASIZE PUSH1 0x23 DUP3 ADD SLT ISZERO PUSH2 0x254 JUMPI DUP1 PUSH1 0x4 ADD CALLDATALOAD PUSH8 0xFFFFFFFFFFFFFFFF DUP2 GT PUSH2 0x254 JUMPI CALLDATASIZE SWAP2 ADD PUSH1 0x24 ADD GT PUSH2 0x254 JUMPI PUSH1 0x40 MLOAD PUSH4 0x364AF213 PUSH1 0xE2 SHL DUP2 MSTORE PUSH32 0x0 SWAP1 PUSH32 0x0 SWAP1 PUSH32 0x0 SWAP1 PUSH32 0x0 PUSH1 0x1 PUSH1 0x1 PUSH1 0xA0 SHL SUB AND SWAP1 PUSH32 0x0 SWAP1 PUSH32 0x0 SWAP1 PUSH1 0x20 DUP2 DUP1 PUSH2 0x1AD DUP6 DUP12 DUP11 DUP10 DUP14 PUSH1 0x4 DUP8 ADD PUSH2 0x432 JUMP JUMPDEST SUB DUP2 PUSH0 DUP9 GAS CALL DUP1 ISZERO PUSH2 0x21E JUMPI PUSH2 0x229 JUMPI JUMPDEST POP PUSH1 0x20 SWAP5 PUSH2 0x1E4 PUSH0 SWAP3 PUSH1 0x40 MLOAD SWAP9 DUP10 SWAP8 DUP9 SWAP7 DUP8 SWAP6 PUSH4 0x364AF213 PUSH1 0xE2 SHL DUP8 MSTORE PUSH1 0x4 DUP8 ADD PUSH2 0x432 JUMP JUMPDEST SUB SWAP3 GAS CALL DUP1 ISZERO PUSH2 0x21E JUMPI PUSH2 0x1F4 JUMPI STOP JUMPDEST PUSH2 0x215 SWAP1 PUSH1 0x20 RETURNDATASIZE PUSH1 0x20 GT PUSH2 0x217 JUMPI JUMPDEST PUSH2 0x20D DUP2 DUP4 PUSH2 0x3ED JUMP JUMPDEST DUP2 ADD SWAP1 PUSH2 0x423 JUMP JUMPDEST STOP JUMPDEST POP RETURNDATASIZE PUSH2 0x203 JUMP JUMPDEST PUSH1 0x40 MLOAD RETURNDATASIZE PUSH0 DUP3 RETURNDATACOPY RETURNDATASIZE SWAP1 REVERT JUMPDEST SWAP5 PUSH1 0x20 DUP7 RETURNDATASIZE PUSH1 0x20 GT PUSH2 0x258 JUMPI JUMPDEST DUP2 PUSH2 0x243 PUSH1 0x20 SWAP4 DUP4 PUSH2 0x3ED JUMP JUMPDEST DUP2 ADD SUB SLT PUSH2 0x254 JUMPI SWAP5 POP PUSH1 0x20 PUSH2 0x1BE JUMP JUMPDEST PUSH0 DUP1 REVERT JUMPDEST RETURNDATASIZE SWAP2 POP PUSH2 0x236 JUMP JUMPDEST CALLVALUE PUSH2 0x254 JUMPI PUSH0 CALLDATASIZE PUSH1 0x3 NOT ADD SLT PUSH2 0x254 JUMPI PUSH1 0x40 MLOAD PUSH32 0x0 PUSH1 0x1 PUSH1 0x1 PUSH1 0xA0 SHL SUB AND DUP2 MSTORE PUSH1 0x20 SWAP1 RETURN JUMPDEST CALLVALUE PUSH2 0x254 JUMPI PUSH0 CALLDATASIZE PUSH1 0x3 NOT ADD SLT PUSH2 0x254 JUMPI PUSH1 0x40 MLOAD PUSH32 0x0 PUSH1 0x1 PUSH1 0x1 PUSH1 0xA0 SHL SUB AND DUP2 MSTORE PUSH1 0x20 SWAP1 RETURN JUMPDEST CALLVALUE PUSH2 0x254 JUMPI PUSH0 CALLDATASIZE PUSH1 0x3 NOT ADD SLT PUSH2 0x254 JUMPI PUSH1 0x40 MLOAD PUSH32 0x0 PUSH1 0x1 PUSH1 0x1 PUSH1 0xA0 SHL SUB AND DUP2 MSTORE PUSH1 0x20 SWAP1 RETURN JUMPDEST CALLVALUE PUSH2 0x254 JUMPI PUSH0 CALLDATASIZE PUSH1 0x3 NOT ADD SLT PUSH2 0x254 JUMPI PUSH1 0x40 MLOAD PUSH32 0x0 PUSH1 0x1 PUSH1 0x1 PUSH1 0xA0 SHL SUB AND DUP2 MSTORE PUSH1 0x20 SWAP1 RETURN JUMPDEST CALLVALUE PUSH2 0x254 JUMPI PUSH0 CALLDATASIZE PUSH1 0x3 NOT ADD SLT PUSH2 0x254 JUMPI PUSH1 0x40 MLOAD PUSH32 0x0 PUSH1 0x1 PUSH1 0x1 PUSH1 0xE8 SHL SUB NOT AND DUP2 MSTORE PUSH1 0x20 SWAP1 RETURN JUMPDEST CALLVALUE PUSH2 0x254 JUMPI PUSH0 CALLDATASIZE PUSH1 0x3 NOT ADD SLT PUSH2 0x254 JUMPI PUSH1 0x20 SWAP1 PUSH32 0x0 DUP2 MSTORE RETURN JUMPDEST SWAP1 PUSH1 0x1F DUP1 NOT SWAP2 ADD AND DUP2 ADD SWAP1 DUP2 LT PUSH8 0xFFFFFFFFFFFFFFFF DUP3 GT OR PUSH2 0x40F JUMPI PUSH1 0x40 MSTORE JUMP JUMPDEST PUSH4 0x4E487B71 PUSH1 0xE0 SHL PUSH0 MSTORE PUSH1 0x41 PUSH1 0x4 MSTORE PUSH1 0x24 PUSH0 REVERT JUMPDEST SWAP1 DUP2 PUSH1 0x20 SWAP2 SUB SLT PUSH2 0x254 JUMPI MLOAD SWAP1 JUMP JUMPDEST PUSH1 0x1 PUSH1 0x1 PUSH1 0xA0 SHL SUB SWAP2 DUP3 AND DUP2 MSTORE SWAP2 DUP2 AND PUSH1 0x20 DUP4 ADD MSTORE SWAP1 SWAP2 AND PUSH1 0x40 DUP3 ADD MSTORE PUSH1 0x1 PUSH1 0x1 PUSH1 0xE8 SHL SUB NOT SWAP1 SWAP2 AND PUSH1 0x60 DUP3 ADD MSTORE PUSH1 0x80 DUP2 ADD SWAP2 SWAP1 SWAP2 MSTORE PUSH1 0x1 PUSH1 0xA0 DUP3 ADD DUP2 SWAP1 MSTORE PUSH1 0xC0 DUP3 ADD MSTORE PUSH1 0xE0 ADD SWAP1 JUMP INVALID LOG2 PUSH5 0x6970667358 0x22 SLT KECCAK256 PUSH31 0xC44EC317C9ED1410C597587045755028140D8F377A4C6FE3489C328939DB73 PUSH5 0x736F6C6343 STOP ADDMOD 0x1E STOP CALLER "},"methodIdentifiers":{"amountIn()":"6bed55a6","asset0()":"c509b6a2","asset1()":"7cd5f3f9","flashCallback(bytes)":"e3739238","markings()":"6c4ebd05","poolManager()":"dc4c90d3","quoter()":"c6bbd5a7"}}}}}