{"contracts/mocks/AlphaDataBridgeOnchainAggregator.sol":{"AlphaDataBridgeOnchainAggregator":{"abi":[{"inputs":[{"components":[{"internalType":"address","name":"pool","type":"address"},{"internalType":"uint8","name":"kind","type":"uint8"},{"internalType":"uint24","name":"v3TwapWindow","type":"uint24"}],"internalType":"struct AlphaDataBridgeOnchainAggregator.PoolConfig","name":"_a","type":"tuple"},{"components":[{"internalType":"address","name":"pool","type":"address"},{"internalType":"uint8","name":"kind","type":"uint8"},{"internalType":"uint24","name":"v3TwapWindow","type":"uint24"}],"internalType":"struct AlphaDataBridgeOnchainAggregator.PoolConfig","name":"_b","type":"tuple"},{"components":[{"internalType":"address","name":"pool","type":"address"},{"internalType":"uint8","name":"kind","type":"uint8"},{"internalType":"uint24","name":"v3TwapWindow","type":"uint24"}],"internalType":"struct AlphaDataBridgeOnchainAggregator.PoolConfig","name":"_c","type":"tuple"}],"stateMutability":"nonpayable","type":"constructor"},{"inputs":[],"name":"dexA","outputs":[{"internalType":"address","name":"pool","type":"address"},{"internalType":"uint8","name":"kind","type":"uint8"},{"internalType":"uint24","name":"v3TwapWindow","type":"uint24"}],"stateMutability":"view","type":"function"},{"inputs":[],"name":"dexB","outputs":[{"internalType":"address","name":"pool","type":"address"},{"internalType":"uint8","name":"kind","type":"uint8"},{"internalType":"uint24","name":"v3TwapWindow","type":"uint24"}],"stateMutability":"view","type":"function"},{"inputs":[],"name":"dexC","outputs":[{"internalType":"address","name":"pool","type":"address"},{"internalType":"uint8","name":"kind","type":"uint8"},{"internalType":"uint24","name":"v3TwapWindow","type":"uint24"}],"stateMutability":"view","type":"function"},{"inputs":[{"components":[{"internalType":"address","name":"asset0","type":"address"},{"internalType":"address","name":"asset1","type":"address"},{"internalType":"address","name":"quoter","type":"address"},{"internalType":"uint256","name":"amount","type":"uint256"},{"internalType":"uint128","name":"asset0Balance","type":"uint128"},{"internalType":"uint128","name":"asset1Balance","type":"uint128"},{"internalType":"uint16","name":"bucketID","type":"uint16"},{"internalType":"bool","name":"zeroForOne","type":"bool"}],"internalType":"struct QuoteParams","name":"params","type":"tuple"}],"name":"getData","outputs":[{"internalType":"bytes","name":"","type":"bytes"}],"stateMutability":"view","type":"function"}],"evm":{"bytecode":{"linkReferences":{},"object":"60806040523461011757604051610cd23881900390601f8201601f19168301906001600160401b0382118483101761011b5782916040528339810190610120818303126101175761006a610053838361012f565b9260c0610063826060860161012f565b930161012f565b82515f805460208087015160409788015162ffffff60a81b60a891821b811660ff60a01b60a094851b81166001600160a01b03998a166001600160c01b03199889161717919091179096558851600180548b8701519b8d0151851b84169b861b8916928a1690881617919091179990991790985586516002805494890151988b015190921b9098169690911b909316959093169216919091179290921717905551610b35908161019d8239f35b5f80fd5b634e487b7160e01b5f52604160045260245ffd5b919082606091031261011757604051606081016001600160401b0381118282101761011b576040528251909283916001600160a01b038116810361011757825260208101519060ff8216820361011757604091602084015201519062ffffff82168203610117576040015256fe6080806040526004361015610012575f80fd5b5f3560e01c908163027fa475146102de575080633bd1104b146100d35780634c02a7a7146100905763fa29e6b114610048575f80fd5b3461008c575f36600319011261008c57600154604080516001600160a01b038316815260a083901c60ff16602082015260a89290921c62ffffff1690820152606090f35b5f80fd5b3461008c575f36600319011261008c575f54604080516001600160a01b038316815260a083901c60ff16602082015260a89290921c62ffffff1690820152606090f35b3461008c5761010036600319011261008c57604051610100810181811067ffffffffffffffff8211176102ca576040526004356001600160a01b038116810361008c5781526024356001600160a01b038116810361008c5760208201526044356001600160a01b038116810361008c57604082015260643560608201526084356001600160801b038116810361008c57608082015260a4356001600160801b038116810361008c5760a082015260c43561ffff8116810361008c5760c082015260e435801515810361008c5760036102828360409360e061027b96015261027661026e846101f28488516101c68161031c565b5f546001600160a01b038116825260a081901c60ff16602083015260a81c62ffffff168a82015261037b565b9890610276610233878b516102068161031c565b6001546001600160a01b038116825260a081901c60ff16602083015260a81c62ffffff168d82015261037b565b9590978b516102418161031c565b6002546001600160a01b038116825260a081901c60ff16602083015260a81c62ffffff168d82015261037b565b97909261035a565b61035a565b049661035a565b04815190602082019384528282015281815261029f606082610338565b8151928391602083525180918160208501528484015e5f828201840152601f01601f19168101030190f35b634e487b7160e01b5f52604160045260245ffd5b3461008c575f36600319011261008c576002546001600160a01b038116825260a081901c60ff16602083015260a81c62ffffff166040820152606090f35b6060810190811067ffffffffffffffff8211176102ca57604052565b90601f8019910116810190811067ffffffffffffffff8211176102ca57604052565b9190820180921161036757565b634e487b7160e01b5f52601160045260245ffd5b9060ff602083015116600281145f1461059557509051604051630240bc6b60e21b81526001600160a01b0390911690606081600481855afa9081156104ad575f905f92610536575b506001600160701b0316908115801580610524575b156104ee57670de0b6b3a76400008302928304670de0b6b3a7640000141715610367576001600160701b03169081156104da57049060405192630dfe168160e01b8452602084600481855afa9182156104ad576004945f936104b8575b506020906040519586809263d21220a760e01b82525afa80156104ad5761047a945f9161047e575b5081516020909201516001600160a01b0390811693921691610a42565b8091565b6104a0915060203d6020116104a6575b6104988183610338565b8101906109c6565b5f61045d565b503d61048e565b6040513d5f823e3d90fd5b60209193506104d390823d84116104a6576104988183610338565b9290610435565b634e487b7160e01b5f52601260045260245ffd5b60405162461bcd60e51b815260206004820152600e60248201526d656d70747920726573657276657360901b6044820152606490fd5b506001600160701b03821615156103d8565b9150506060813d60601161058d575b8161055260609383610338565b8101031261008c5761056381610a2e565b604061057160208401610a2e565b92015163ffffffff81160361008c576001600160701b036103c3565b3d9150610545565b6003036109665762ffffff604060018060a01b038451169301511690604051633850c7bd60e01b815260e081600481875afa9081156104ad575f916108dc575b506001600160a01b0316808002919080830481149015171561036757670de0b6b3a7640000820291808304670de0b6b3a7640000149015171561036757604051630dfe168160e01b8152602081600481885afa9081156104ad575f916108bd575b5060405163d21220a760e01b815292602084600481895afa80156104ad57610683945f9161089e575b50835160209094015160c09290921c936001600160a01b0392831693921691610a42565b918115610895575b906040519161069b606084610338565b60028352602083019162ffffff9060403685371692836106ba826109fd565b525f6106c582610a1e565b5260405163883bdbfd60e01b815260206004820152905160248201819052909283916044830191905f5b818110610876575050509181805f9403915afa9081156104ad575f91610765575b5061072761071d82610a1e565b5160060b916109fd565b5160060b900390667fffffffffffff198212667fffffffffffff8313176103675780156104da575f191490600160ff1b9060060b1416610367578091565b90503d805f833e6107768183610338565b810160408282031261008c57815167ffffffffffffffff811161008c5782019181601f8401121561008c5782516107ac816109e5565b936107ba6040519586610338565b81855260208086019260051b8201019084821161008c57602001915b81831061085c5750505060208101519067ffffffffffffffff821161008c570181601f8201121561008c57805190602080610810846109e5565b61081d6040519182610338565b848152019260051b82010192831161008c57602001905b828210610844575050505f610710565b60208091610851846109a3565b815201910190610834565b82518060060b810361008c578152602092830192016107d6565b825163ffffffff168452869450602093840193909201916001016106ef565b603c915061068b565b6108b7915060203d6020116104a6576104988183610338565b5f61065f565b6108d6915060203d6020116104a6576104988183610338565b5f610636565b905060e0813d60e01161095e575b816108f760e09383610338565b8101031261008c57610908816109a3565b9060208101518060020b0361008c57610923604082016109b7565b50610930606082016109b7565b5061093d608082016109b7565b5060a081015160ff81160361008c5760c001518015150361008c575f6105d5565b3d91506108ea565b60405162461bcd60e51b81526020600482015260156024820152741d5b9cdd5c1c1bdc9d1959081c1bdbdb081ada5b99605a1b6044820152606490fd5b51906001600160a01b038216820361008c57565b519061ffff8216820361008c57565b9081602091031261008c57516001600160a01b038116810361008c5790565b67ffffffffffffffff81116102ca5760051b60200190565b805115610a0a5760200190565b634e487b7160e01b5f52603260045260245ffd5b805160011015610a0a5760400190565b51906001600160701b038216820361008c57565b90926001600160a01b03928316929091169081831480610aea575b15610a69575050505090565b6001600160a01b0316149182610ad7575b505015610a9b5780156104da576ec097ce7bc90715b34b9f10000000000490565b60405162461bcd60e51b81526020600482015260146024820152730e0c2d2e440e8ded6cadce640dad2e6dac2e8c6d60631b6044820152606490fd5b6001600160a01b03161490505f80610a7a565b506001600160a01b0384811690821614610a5d56fea26469706673582212207b4a4740ef998eb56d66e64715273b04ff5515908c457bc3aff0ac5bc906fb9664736f6c634300081e0033","opcodes":"PUSH1 0x80 PUSH1 0x40 MSTORE CALLVALUE PUSH2 0x117 JUMPI PUSH1 0x40 MLOAD PUSH2 0xCD2 CODESIZE DUP2 SWAP1 SUB SWAP1 PUSH1 0x1F DUP3 ADD PUSH1 0x1F NOT AND DUP4 ADD SWAP1 PUSH1 0x1 PUSH1 0x1 PUSH1 0x40 SHL SUB DUP3 GT DUP5 DUP4 LT OR PUSH2 0x11B JUMPI DUP3 SWAP2 PUSH1 0x40 MSTORE DUP4 CODECOPY DUP2 ADD SWAP1 PUSH2 0x120 DUP2 DUP4 SUB SLT PUSH2 0x117 JUMPI PUSH2 0x6A PUSH2 0x53 DUP4 DUP4 PUSH2 0x12F JUMP JUMPDEST SWAP3 PUSH1 0xC0 PUSH2 0x63 DUP3 PUSH1 0x60 DUP7 ADD PUSH2 0x12F JUMP JUMPDEST SWAP4 ADD PUSH2 0x12F JUMP JUMPDEST DUP3 MLOAD PUSH0 DUP1 SLOAD PUSH1 0x20 DUP1 DUP8 ADD MLOAD PUSH1 0x40 SWAP8 DUP9 ADD MLOAD PUSH3 0xFFFFFF PUSH1 0xA8 SHL PUSH1 0xA8 SWAP2 DUP3 SHL DUP2 AND PUSH1 0xFF PUSH1 0xA0 SHL PUSH1 0xA0 SWAP5 DUP6 SHL DUP2 AND PUSH1 0x1 PUSH1 0x1 PUSH1 0xA0 SHL SUB SWAP10 DUP11 AND PUSH1 0x1 PUSH1 0x1 PUSH1 0xC0 SHL SUB NOT SWAP9 DUP10 AND OR OR SWAP2 SWAP1 SWAP2 OR SWAP1 SWAP7 SSTORE DUP9 MLOAD PUSH1 0x1 DUP1 SLOAD DUP12 DUP8 ADD MLOAD SWAP12 DUP14 ADD MLOAD DUP6 SHL DUP5 AND SWAP12 DUP7 SHL DUP10 AND SWAP3 DUP11 AND SWAP1 DUP9 AND OR SWAP2 SWAP1 SWAP2 OR SWAP10 SWAP1 SWAP10 OR SWAP1 SWAP9 SSTORE DUP7 MLOAD PUSH1 0x2 DUP1 SLOAD SWAP5 DUP10 ADD MLOAD SWAP9 DUP12 ADD MLOAD SWAP1 SWAP3 SHL SWAP1 SWAP9 AND SWAP7 SWAP1 SWAP2 SHL SWAP1 SWAP4 AND SWAP6 SWAP1 SWAP4 AND SWAP3 AND SWAP2 SWAP1 SWAP2 OR SWAP3 SWAP1 SWAP3 OR OR SWAP1 SSTORE MLOAD PUSH2 0xB35 SWAP1 DUP2 PUSH2 0x19D DUP3 CODECOPY RETURN JUMPDEST PUSH0 DUP1 REVERT JUMPDEST PUSH4 0x4E487B71 PUSH1 0xE0 SHL PUSH0 MSTORE PUSH1 0x41 PUSH1 0x4 MSTORE PUSH1 0x24 PUSH0 REVERT JUMPDEST SWAP2 SWAP1 DUP3 PUSH1 0x60 SWAP2 SUB SLT PUSH2 0x117 JUMPI PUSH1 0x40 MLOAD PUSH1 0x60 DUP2 ADD PUSH1 0x1 PUSH1 0x1 PUSH1 0x40 SHL SUB DUP2 GT DUP3 DUP3 LT OR PUSH2 0x11B JUMPI PUSH1 0x40 MSTORE DUP3 MLOAD SWAP1 SWAP3 DUP4 SWAP2 PUSH1 0x1 PUSH1 0x1 PUSH1 0xA0 SHL SUB DUP2 AND DUP2 SUB PUSH2 0x117 JUMPI DUP3 MSTORE PUSH1 0x20 DUP2 ADD MLOAD SWAP1 PUSH1 0xFF DUP3 AND DUP3 SUB PUSH2 0x117 JUMPI PUSH1 0x40 SWAP2 PUSH1 0x20 DUP5 ADD MSTORE ADD MLOAD SWAP1 PUSH3 0xFFFFFF DUP3 AND DUP3 SUB PUSH2 0x117 JUMPI PUSH1 0x40 ADD MSTORE JUMP INVALID PUSH1 0x80 DUP1 PUSH1 0x40 MSTORE PUSH1 0x4 CALLDATASIZE LT ISZERO PUSH2 0x12 JUMPI PUSH0 DUP1 REVERT JUMPDEST PUSH0 CALLDATALOAD PUSH1 0xE0 SHR SWAP1 DUP2 PUSH4 0x27FA475 EQ PUSH2 0x2DE JUMPI POP DUP1 PUSH4 0x3BD1104B EQ PUSH2 0xD3 JUMPI DUP1 PUSH4 0x4C02A7A7 EQ PUSH2 0x90 JUMPI PUSH4 0xFA29E6B1 EQ PUSH2 0x48 JUMPI PUSH0 DUP1 REVERT JUMPDEST CALLVALUE PUSH2 0x8C JUMPI PUSH0 CALLDATASIZE PUSH1 0x3 NOT ADD SLT PUSH2 0x8C JUMPI PUSH1 0x1 SLOAD PUSH1 0x40 DUP1 MLOAD PUSH1 0x1 PUSH1 0x1 PUSH1 0xA0 SHL SUB DUP4 AND DUP2 MSTORE PUSH1 0xA0 DUP4 SWAP1 SHR PUSH1 0xFF AND PUSH1 0x20 DUP3 ADD MSTORE PUSH1 0xA8 SWAP3 SWAP1 SWAP3 SHR PUSH3 0xFFFFFF AND SWAP1 DUP3 ADD MSTORE PUSH1 0x60 SWAP1 RETURN JUMPDEST PUSH0 DUP1 REVERT JUMPDEST CALLVALUE PUSH2 0x8C JUMPI PUSH0 CALLDATASIZE PUSH1 0x3 NOT ADD SLT PUSH2 0x8C JUMPI PUSH0 SLOAD PUSH1 0x40 DUP1 MLOAD PUSH1 0x1 PUSH1 0x1 PUSH1 0xA0 SHL SUB DUP4 AND DUP2 MSTORE PUSH1 0xA0 DUP4 SWAP1 SHR PUSH1 0xFF AND PUSH1 0x20 DUP3 ADD MSTORE PUSH1 0xA8 SWAP3 SWAP1 SWAP3 SHR PUSH3 0xFFFFFF AND SWAP1 DUP3 ADD MSTORE PUSH1 0x60 SWAP1 RETURN JUMPDEST CALLVALUE PUSH2 0x8C JUMPI PUSH2 0x100 CALLDATASIZE PUSH1 0x3 NOT ADD SLT PUSH2 0x8C JUMPI PUSH1 0x40 MLOAD PUSH2 0x100 DUP2 ADD DUP2 DUP2 LT PUSH8 0xFFFFFFFFFFFFFFFF DUP3 GT OR PUSH2 0x2CA JUMPI PUSH1 0x40 MSTORE PUSH1 0x4 CALLDATALOAD PUSH1 0x1 PUSH1 0x1 PUSH1 0xA0 SHL SUB DUP2 AND DUP2 SUB PUSH2 0x8C JUMPI DUP2 MSTORE PUSH1 0x24 CALLDATALOAD PUSH1 0x1 PUSH1 0x1 PUSH1 0xA0 SHL SUB DUP2 AND DUP2 SUB PUSH2 0x8C JUMPI PUSH1 0x20 DUP3 ADD MSTORE PUSH1 0x44 CALLDATALOAD PUSH1 0x1 PUSH1 0x1 PUSH1 0xA0 SHL SUB DUP2 AND DUP2 SUB PUSH2 0x8C JUMPI PUSH1 0x40 DUP3 ADD MSTORE PUSH1 0x64 CALLDATALOAD PUSH1 0x60 DUP3 ADD MSTORE PUSH1 0x84 CALLDATALOAD PUSH1 0x1 PUSH1 0x1 PUSH1 0x80 SHL SUB DUP2 AND DUP2 SUB PUSH2 0x8C JUMPI PUSH1 0x80 DUP3 ADD MSTORE PUSH1 0xA4 CALLDATALOAD PUSH1 0x1 PUSH1 0x1 PUSH1 0x80 SHL SUB DUP2 AND DUP2 SUB PUSH2 0x8C JUMPI PUSH1 0xA0 DUP3 ADD MSTORE PUSH1 0xC4 CALLDATALOAD PUSH2 0xFFFF DUP2 AND DUP2 SUB PUSH2 0x8C JUMPI PUSH1 0xC0 DUP3 ADD MSTORE PUSH1 0xE4 CALLDATALOAD DUP1 ISZERO ISZERO DUP2 SUB PUSH2 0x8C JUMPI PUSH1 0x3 PUSH2 0x282 DUP4 PUSH1 0x40 SWAP4 PUSH1 0xE0 PUSH2 0x27B SWAP7 ADD MSTORE PUSH2 0x276 PUSH2 0x26E DUP5 PUSH2 0x1F2 DUP5 DUP9 MLOAD PUSH2 0x1C6 DUP2 PUSH2 0x31C JUMP JUMPDEST PUSH0 SLOAD PUSH1 0x1 PUSH1 0x1 PUSH1 0xA0 SHL SUB DUP2 AND DUP3 MSTORE PUSH1 0xA0 DUP2 SWAP1 SHR PUSH1 0xFF AND PUSH1 0x20 DUP4 ADD MSTORE PUSH1 0xA8 SHR PUSH3 0xFFFFFF AND DUP11 DUP3 ADD MSTORE PUSH2 0x37B JUMP JUMPDEST SWAP9 SWAP1 PUSH2 0x276 PUSH2 0x233 DUP8 DUP12 MLOAD PUSH2 0x206 DUP2 PUSH2 0x31C JUMP JUMPDEST PUSH1 0x1 SLOAD PUSH1 0x1 PUSH1 0x1 PUSH1 0xA0 SHL SUB DUP2 AND DUP3 MSTORE PUSH1 0xA0 DUP2 SWAP1 SHR PUSH1 0xFF AND PUSH1 0x20 DUP4 ADD MSTORE PUSH1 0xA8 SHR PUSH3 0xFFFFFF AND DUP14 DUP3 ADD MSTORE PUSH2 0x37B JUMP JUMPDEST SWAP6 SWAP1 SWAP8 DUP12 MLOAD PUSH2 0x241 DUP2 PUSH2 0x31C JUMP JUMPDEST PUSH1 0x2 SLOAD PUSH1 0x1 PUSH1 0x1 PUSH1 0xA0 SHL SUB DUP2 AND DUP3 MSTORE PUSH1 0xA0 DUP2 SWAP1 SHR PUSH1 0xFF AND PUSH1 0x20 DUP4 ADD MSTORE PUSH1 0xA8 SHR PUSH3 0xFFFFFF AND DUP14 DUP3 ADD MSTORE PUSH2 0x37B JUMP JUMPDEST SWAP8 SWAP1 SWAP3 PUSH2 0x35A JUMP JUMPDEST PUSH2 0x35A JUMP JUMPDEST DIV SWAP7 PUSH2 0x35A JUMP JUMPDEST DIV DUP2 MLOAD SWAP1 PUSH1 0x20 DUP3 ADD SWAP4 DUP5 MSTORE DUP3 DUP3 ADD MSTORE DUP2 DUP2 MSTORE PUSH2 0x29F PUSH1 0x60 DUP3 PUSH2 0x338 JUMP JUMPDEST DUP2 MLOAD SWAP3 DUP4 SWAP2 PUSH1 0x20 DUP4 MSTORE MLOAD DUP1 SWAP2 DUP2 PUSH1 0x20 DUP6 ADD MSTORE DUP5 DUP5 ADD MCOPY PUSH0 DUP3 DUP3 ADD DUP5 ADD MSTORE PUSH1 0x1F ADD PUSH1 0x1F NOT AND DUP2 ADD SUB ADD SWAP1 RETURN JUMPDEST PUSH4 0x4E487B71 PUSH1 0xE0 SHL PUSH0 MSTORE PUSH1 0x41 PUSH1 0x4 MSTORE PUSH1 0x24 PUSH0 REVERT JUMPDEST CALLVALUE PUSH2 0x8C JUMPI PUSH0 CALLDATASIZE PUSH1 0x3 NOT ADD SLT PUSH2 0x8C JUMPI PUSH1 0x2 SLOAD PUSH1 0x1 PUSH1 0x1 PUSH1 0xA0 SHL SUB DUP2 AND DUP3 MSTORE PUSH1 0xA0 DUP2 SWAP1 SHR PUSH1 0xFF AND PUSH1 0x20 DUP4 ADD MSTORE PUSH1 0xA8 SHR PUSH3 0xFFFFFF AND PUSH1 0x40 DUP3 ADD MSTORE PUSH1 0x60 SWAP1 RETURN JUMPDEST PUSH1 0x60 DUP2 ADD SWAP1 DUP2 LT PUSH8 0xFFFFFFFFFFFFFFFF DUP3 GT OR PUSH2 0x2CA JUMPI PUSH1 0x40 MSTORE JUMP JUMPDEST SWAP1 PUSH1 0x1F DUP1 NOT SWAP2 ADD AND DUP2 ADD SWAP1 DUP2 LT PUSH8 0xFFFFFFFFFFFFFFFF DUP3 GT OR PUSH2 0x2CA JUMPI PUSH1 0x40 MSTORE JUMP JUMPDEST SWAP2 SWAP1 DUP3 ADD DUP1 SWAP3 GT PUSH2 0x367 JUMPI JUMP JUMPDEST PUSH4 0x4E487B71 PUSH1 0xE0 SHL PUSH0 MSTORE PUSH1 0x11 PUSH1 0x4 MSTORE PUSH1 0x24 PUSH0 REVERT JUMPDEST SWAP1 PUSH1 0xFF PUSH1 0x20 DUP4 ADD MLOAD AND PUSH1 0x2 DUP2 EQ PUSH0 EQ PUSH2 0x595 JUMPI POP SWAP1 MLOAD PUSH1 0x40 MLOAD PUSH4 0x240BC6B PUSH1 0xE2 SHL DUP2 MSTORE PUSH1 0x1 PUSH1 0x1 PUSH1 0xA0 SHL SUB SWAP1 SWAP2 AND SWAP1 PUSH1 0x60 DUP2 PUSH1 0x4 DUP2 DUP6 GAS STATICCALL SWAP1 DUP2 ISZERO PUSH2 0x4AD JUMPI PUSH0 SWAP1 PUSH0 SWAP3 PUSH2 0x536 JUMPI JUMPDEST POP PUSH1 0x1 PUSH1 0x1 PUSH1 0x70 SHL SUB AND SWAP1 DUP2 ISZERO DUP1 ISZERO DUP1 PUSH2 0x524 JUMPI JUMPDEST ISZERO PUSH2 0x4EE JUMPI PUSH8 0xDE0B6B3A7640000 DUP4 MUL SWAP3 DUP4 DIV PUSH8 0xDE0B6B3A7640000 EQ OR ISZERO PUSH2 0x367 JUMPI PUSH1 0x1 PUSH1 0x1 PUSH1 0x70 SHL SUB AND SWAP1 DUP2 ISZERO PUSH2 0x4DA JUMPI DIV SWAP1 PUSH1 0x40 MLOAD SWAP3 PUSH4 0xDFE1681 PUSH1 0xE0 SHL DUP5 MSTORE PUSH1 0x20 DUP5 PUSH1 0x4 DUP2 DUP6 GAS STATICCALL SWAP2 DUP3 ISZERO PUSH2 0x4AD JUMPI PUSH1 0x4 SWAP5 PUSH0 SWAP4 PUSH2 0x4B8 JUMPI JUMPDEST POP PUSH1 0x20 SWAP1 PUSH1 0x40 MLOAD SWAP6 DUP7 DUP1 SWAP3 PUSH4 0xD21220A7 PUSH1 0xE0 SHL DUP3 MSTORE GAS STATICCALL DUP1 ISZERO PUSH2 0x4AD JUMPI PUSH2 0x47A SWAP5 PUSH0 SWAP2 PUSH2 0x47E JUMPI JUMPDEST POP DUP2 MLOAD PUSH1 0x20 SWAP1 SWAP3 ADD MLOAD PUSH1 0x1 PUSH1 0x1 PUSH1 0xA0 SHL SUB SWAP1 DUP2 AND SWAP4 SWAP3 AND SWAP2 PUSH2 0xA42 JUMP JUMPDEST DUP1 SWAP2 JUMP JUMPDEST PUSH2 0x4A0 SWAP2 POP PUSH1 0x20 RETURNDATASIZE PUSH1 0x20 GT PUSH2 0x4A6 JUMPI JUMPDEST PUSH2 0x498 DUP2 DUP4 PUSH2 0x338 JUMP JUMPDEST DUP2 ADD SWAP1 PUSH2 0x9C6 JUMP JUMPDEST PUSH0 PUSH2 0x45D JUMP JUMPDEST POP RETURNDATASIZE PUSH2 0x48E JUMP JUMPDEST PUSH1 0x40 MLOAD RETURNDATASIZE PUSH0 DUP3 RETURNDATACOPY RETURNDATASIZE SWAP1 REVERT JUMPDEST PUSH1 0x20 SWAP2 SWAP4 POP PUSH2 0x4D3 SWAP1 DUP3 RETURNDATASIZE DUP5 GT PUSH2 0x4A6 JUMPI PUSH2 0x498 DUP2 DUP4 PUSH2 0x338 JUMP JUMPDEST SWAP3 SWAP1 PUSH2 0x435 JUMP JUMPDEST PUSH4 0x4E487B71 PUSH1 0xE0 SHL PUSH0 MSTORE PUSH1 0x12 PUSH1 0x4 MSTORE PUSH1 0x24 PUSH0 REVERT JUMPDEST PUSH1 0x40 MLOAD PUSH3 0x461BCD PUSH1 0xE5 SHL DUP2 MSTORE PUSH1 0x20 PUSH1 0x4 DUP3 ADD MSTORE PUSH1 0xE PUSH1 0x24 DUP3 ADD MSTORE PUSH14 0x656D707479207265736572766573 PUSH1 0x90 SHL PUSH1 0x44 DUP3 ADD MSTORE PUSH1 0x64 SWAP1 REVERT JUMPDEST POP PUSH1 0x1 PUSH1 0x1 PUSH1 0x70 SHL SUB DUP3 AND ISZERO ISZERO PUSH2 0x3D8 JUMP JUMPDEST SWAP2 POP POP PUSH1 0x60 DUP2 RETURNDATASIZE PUSH1 0x60 GT PUSH2 0x58D JUMPI JUMPDEST DUP2 PUSH2 0x552 PUSH1 0x60 SWAP4 DUP4 PUSH2 0x338 JUMP JUMPDEST DUP2 ADD SUB SLT PUSH2 0x8C JUMPI PUSH2 0x563 DUP2 PUSH2 0xA2E JUMP JUMPDEST PUSH1 0x40 PUSH2 0x571 PUSH1 0x20 DUP5 ADD PUSH2 0xA2E JUMP JUMPDEST SWAP3 ADD MLOAD PUSH4 0xFFFFFFFF DUP2 AND SUB PUSH2 0x8C JUMPI PUSH1 0x1 PUSH1 0x1 PUSH1 0x70 SHL SUB PUSH2 0x3C3 JUMP JUMPDEST RETURNDATASIZE SWAP2 POP PUSH2 0x545 JUMP JUMPDEST PUSH1 0x3 SUB PUSH2 0x966 JUMPI PUSH3 0xFFFFFF PUSH1 0x40 PUSH1 0x1 DUP1 PUSH1 0xA0 SHL SUB DUP5 MLOAD AND SWAP4 ADD MLOAD AND SWAP1 PUSH1 0x40 MLOAD PUSH4 0x3850C7BD PUSH1 0xE0 SHL DUP2 MSTORE PUSH1 0xE0 DUP2 PUSH1 0x4 DUP2 DUP8 GAS STATICCALL SWAP1 DUP2 ISZERO PUSH2 0x4AD JUMPI PUSH0 SWAP2 PUSH2 0x8DC JUMPI JUMPDEST POP PUSH1 0x1 PUSH1 0x1 PUSH1 0xA0 SHL SUB AND DUP1 DUP1 MUL SWAP2 SWAP1 DUP1 DUP4 DIV DUP2 EQ SWAP1 ISZERO OR ISZERO PUSH2 0x367 JUMPI PUSH8 0xDE0B6B3A7640000 DUP3 MUL SWAP2 DUP1 DUP4 DIV PUSH8 0xDE0B6B3A7640000 EQ SWAP1 ISZERO OR ISZERO PUSH2 0x367 JUMPI PUSH1 0x40 MLOAD PUSH4 0xDFE1681 PUSH1 0xE0 SHL DUP2 MSTORE PUSH1 0x20 DUP2 PUSH1 0x4 DUP2 DUP9 GAS STATICCALL SWAP1 DUP2 ISZERO PUSH2 0x4AD JUMPI PUSH0 SWAP2 PUSH2 0x8BD JUMPI JUMPDEST POP PUSH1 0x40 MLOAD PUSH4 0xD21220A7 PUSH1 0xE0 SHL DUP2 MSTORE SWAP3 PUSH1 0x20 DUP5 PUSH1 0x4 DUP2 DUP10 GAS STATICCALL DUP1 ISZERO PUSH2 0x4AD JUMPI PUSH2 0x683 SWAP5 PUSH0 SWAP2 PUSH2 0x89E JUMPI JUMPDEST POP DUP4 MLOAD PUSH1 0x20 SWAP1 SWAP5 ADD MLOAD PUSH1 0xC0 SWAP3 SWAP1 SWAP3 SHR SWAP4 PUSH1 0x1 PUSH1 0x1 PUSH1 0xA0 SHL SUB SWAP3 DUP4 AND SWAP4 SWAP3 AND SWAP2 PUSH2 0xA42 JUMP JUMPDEST SWAP2 DUP2 ISZERO PUSH2 0x895 JUMPI JUMPDEST SWAP1 PUSH1 0x40 MLOAD SWAP2 PUSH2 0x69B PUSH1 0x60 DUP5 PUSH2 0x338 JUMP JUMPDEST PUSH1 0x2 DUP4 MSTORE PUSH1 0x20 DUP4 ADD SWAP2 PUSH3 0xFFFFFF SWAP1 PUSH1 0x40 CALLDATASIZE DUP6 CALLDATACOPY AND SWAP3 DUP4 PUSH2 0x6BA DUP3 PUSH2 0x9FD JUMP JUMPDEST MSTORE PUSH0 PUSH2 0x6C5 DUP3 PUSH2 0xA1E JUMP JUMPDEST MSTORE PUSH1 0x40 MLOAD PUSH4 0x883BDBFD PUSH1 0xE0 SHL DUP2 MSTORE PUSH1 0x20 PUSH1 0x4 DUP3 ADD MSTORE SWAP1 MLOAD PUSH1 0x24 DUP3 ADD DUP2 SWAP1 MSTORE SWAP1 SWAP3 DUP4 SWAP2 PUSH1 0x44 DUP4 ADD SWAP2 SWAP1 PUSH0 JUMPDEST DUP2 DUP2 LT PUSH2 0x876 JUMPI POP POP POP SWAP2 DUP2 DUP1 PUSH0 SWAP5 SUB SWAP2 GAS STATICCALL SWAP1 DUP2 ISZERO PUSH2 0x4AD JUMPI PUSH0 SWAP2 PUSH2 0x765 JUMPI JUMPDEST POP PUSH2 0x727 PUSH2 0x71D DUP3 PUSH2 0xA1E JUMP JUMPDEST MLOAD PUSH1 0x6 SIGNEXTEND SWAP2 PUSH2 0x9FD JUMP JUMPDEST MLOAD PUSH1 0x6 SIGNEXTEND SWAP1 SUB SWAP1 PUSH7 0x7FFFFFFFFFFFFF NOT DUP3 SLT PUSH7 0x7FFFFFFFFFFFFF DUP4 SGT OR PUSH2 0x367 JUMPI DUP1 ISZERO PUSH2 0x4DA JUMPI PUSH0 NOT EQ SWAP1 PUSH1 0x1 PUSH1 0xFF SHL SWAP1 PUSH1 0x6 SIGNEXTEND EQ AND PUSH2 0x367 JUMPI DUP1 SWAP2 JUMP JUMPDEST SWAP1 POP RETURNDATASIZE DUP1 PUSH0 DUP4 RETURNDATACOPY PUSH2 0x776 DUP2 DUP4 PUSH2 0x338 JUMP JUMPDEST DUP2 ADD PUSH1 0x40 DUP3 DUP3 SUB SLT PUSH2 0x8C JUMPI DUP2 MLOAD PUSH8 0xFFFFFFFFFFFFFFFF DUP2 GT PUSH2 0x8C JUMPI DUP3 ADD SWAP2 DUP2 PUSH1 0x1F DUP5 ADD SLT ISZERO PUSH2 0x8C JUMPI DUP3 MLOAD PUSH2 0x7AC DUP2 PUSH2 0x9E5 JUMP JUMPDEST SWAP4 PUSH2 0x7BA PUSH1 0x40 MLOAD SWAP6 DUP7 PUSH2 0x338 JUMP JUMPDEST DUP2 DUP6 MSTORE PUSH1 0x20 DUP1 DUP7 ADD SWAP3 PUSH1 0x5 SHL DUP3 ADD ADD SWAP1 DUP5 DUP3 GT PUSH2 0x8C JUMPI PUSH1 0x20 ADD SWAP2 JUMPDEST DUP2 DUP4 LT PUSH2 0x85C JUMPI POP POP POP PUSH1 0x20 DUP2 ADD MLOAD SWAP1 PUSH8 0xFFFFFFFFFFFFFFFF DUP3 GT PUSH2 0x8C JUMPI ADD DUP2 PUSH1 0x1F DUP3 ADD SLT ISZERO PUSH2 0x8C JUMPI DUP1 MLOAD SWAP1 PUSH1 0x20 DUP1 PUSH2 0x810 DUP5 PUSH2 0x9E5 JUMP JUMPDEST PUSH2 0x81D PUSH1 0x40 MLOAD SWAP2 DUP3 PUSH2 0x338 JUMP JUMPDEST DUP5 DUP2 MSTORE ADD SWAP3 PUSH1 0x5 SHL DUP3 ADD ADD SWAP3 DUP4 GT PUSH2 0x8C JUMPI PUSH1 0x20 ADD SWAP1 JUMPDEST DUP3 DUP3 LT PUSH2 0x844 JUMPI POP POP POP PUSH0 PUSH2 0x710 JUMP JUMPDEST PUSH1 0x20 DUP1 SWAP2 PUSH2 0x851 DUP5 PUSH2 0x9A3 JUMP JUMPDEST DUP2 MSTORE ADD SWAP2 ADD SWAP1 PUSH2 0x834 JUMP JUMPDEST DUP3 MLOAD DUP1 PUSH1 0x6 SIGNEXTEND DUP2 SUB PUSH2 0x8C JUMPI DUP2 MSTORE PUSH1 0x20 SWAP3 DUP4 ADD SWAP3 ADD PUSH2 0x7D6 JUMP JUMPDEST DUP3 MLOAD PUSH4 0xFFFFFFFF AND DUP5 MSTORE DUP7 SWAP5 POP PUSH1 0x20 SWAP4 DUP5 ADD SWAP4 SWAP1 SWAP3 ADD SWAP2 PUSH1 0x1 ADD PUSH2 0x6EF JUMP JUMPDEST PUSH1 0x3C SWAP2 POP PUSH2 0x68B JUMP JUMPDEST PUSH2 0x8B7 SWAP2 POP PUSH1 0x20 RETURNDATASIZE PUSH1 0x20 GT PUSH2 0x4A6 JUMPI PUSH2 0x498 DUP2 DUP4 PUSH2 0x338 JUMP JUMPDEST PUSH0 PUSH2 0x65F JUMP JUMPDEST PUSH2 0x8D6 SWAP2 POP PUSH1 0x20 RETURNDATASIZE PUSH1 0x20 GT PUSH2 0x4A6 JUMPI PUSH2 0x498 DUP2 DUP4 PUSH2 0x338 JUMP JUMPDEST PUSH0 PUSH2 0x636 JUMP JUMPDEST SWAP1 POP PUSH1 0xE0 DUP2 RETURNDATASIZE PUSH1 0xE0 GT PUSH2 0x95E JUMPI JUMPDEST DUP2 PUSH2 0x8F7 PUSH1 0xE0 SWAP4 DUP4 PUSH2 0x338 JUMP JUMPDEST DUP2 ADD SUB SLT PUSH2 0x8C JUMPI PUSH2 0x908 DUP2 PUSH2 0x9A3 JUMP JUMPDEST SWAP1 PUSH1 0x20 DUP2 ADD MLOAD DUP1 PUSH1 0x2 SIGNEXTEND SUB PUSH2 0x8C JUMPI PUSH2 0x923 PUSH1 0x40 DUP3 ADD PUSH2 0x9B7 JUMP JUMPDEST POP PUSH2 0x930 PUSH1 0x60 DUP3 ADD PUSH2 0x9B7 JUMP JUMPDEST POP PUSH2 0x93D PUSH1 0x80 DUP3 ADD PUSH2 0x9B7 JUMP JUMPDEST POP PUSH1 0xA0 DUP2 ADD MLOAD PUSH1 0xFF DUP2 AND SUB PUSH2 0x8C JUMPI PUSH1 0xC0 ADD MLOAD DUP1 ISZERO ISZERO SUB PUSH2 0x8C JUMPI PUSH0 PUSH2 0x5D5 JUMP JUMPDEST RETURNDATASIZE SWAP2 POP PUSH2 0x8EA JUMP JUMPDEST PUSH1 0x40 MLOAD PUSH3 0x461BCD PUSH1 0xE5 SHL DUP2 MSTORE PUSH1 0x20 PUSH1 0x4 DUP3 ADD MSTORE PUSH1 0x15 PUSH1 0x24 DUP3 ADD MSTORE PUSH21 0x1D5B9CDD5C1C1BDC9D1959081C1BDBDB081ADA5B99 PUSH1 0x5A SHL PUSH1 0x44 DUP3 ADD MSTORE PUSH1 0x64 SWAP1 REVERT JUMPDEST MLOAD SWAP1 PUSH1 0x1 PUSH1 0x1 PUSH1 0xA0 SHL SUB DUP3 AND DUP3 SUB PUSH2 0x8C JUMPI JUMP JUMPDEST MLOAD SWAP1 PUSH2 0xFFFF DUP3 AND DUP3 SUB PUSH2 0x8C JUMPI JUMP JUMPDEST SWAP1 DUP2 PUSH1 0x20 SWAP2 SUB SLT PUSH2 0x8C JUMPI MLOAD PUSH1 0x1 PUSH1 0x1 PUSH1 0xA0 SHL SUB DUP2 AND DUP2 SUB PUSH2 0x8C JUMPI SWAP1 JUMP JUMPDEST PUSH8 0xFFFFFFFFFFFFFFFF DUP2 GT PUSH2 0x2CA JUMPI PUSH1 0x5 SHL PUSH1 0x20 ADD SWAP1 JUMP JUMPDEST DUP1 MLOAD ISZERO PUSH2 0xA0A JUMPI PUSH1 0x20 ADD SWAP1 JUMP JUMPDEST PUSH4 0x4E487B71 PUSH1 0xE0 SHL PUSH0 MSTORE PUSH1 0x32 PUSH1 0x4 MSTORE PUSH1 0x24 PUSH0 REVERT JUMPDEST DUP1 MLOAD PUSH1 0x1 LT ISZERO PUSH2 0xA0A JUMPI PUSH1 0x40 ADD SWAP1 JUMP JUMPDEST MLOAD SWAP1 PUSH1 0x1 PUSH1 0x1 PUSH1 0x70 SHL SUB DUP3 AND DUP3 SUB PUSH2 0x8C JUMPI JUMP JUMPDEST SWAP1 SWAP3 PUSH1 0x1 PUSH1 0x1 PUSH1 0xA0 SHL SUB SWAP3 DUP4 AND SWAP3 SWAP1 SWAP2 AND SWAP1 DUP2 DUP4 EQ DUP1 PUSH2 0xAEA JUMPI JUMPDEST ISZERO PUSH2 0xA69 JUMPI POP POP POP POP SWAP1 JUMP JUMPDEST PUSH1 0x1 PUSH1 0x1 PUSH1 0xA0 SHL SUB AND EQ SWAP2 DUP3 PUSH2 0xAD7 JUMPI JUMPDEST POP POP ISZERO PUSH2 0xA9B JUMPI DUP1 ISZERO PUSH2 0x4DA JUMPI PUSH15 0xC097CE7BC90715B34B9F1000000000 DIV SWAP1 JUMP JUMPDEST PUSH1 0x40 MLOAD PUSH3 0x461BCD PUSH1 0xE5 SHL DUP2 MSTORE PUSH1 0x20 PUSH1 0x4 DUP3 ADD MSTORE PUSH1 0x14 PUSH1 0x24 DUP3 ADD MSTORE PUSH20 0xE0C2D2E440E8DED6CADCE640DAD2E6DAC2E8C6D PUSH1 0x63 SHL PUSH1 0x44 DUP3 ADD MSTORE PUSH1 0x64 SWAP1 REVERT JUMPDEST PUSH1 0x1 PUSH1 0x1 PUSH1 0xA0 SHL SUB AND EQ SWAP1 POP PUSH0 DUP1 PUSH2 0xA7A JUMP JUMPDEST POP PUSH1 0x1 PUSH1 0x1 PUSH1 0xA0 SHL SUB DUP5 DUP2 AND SWAP1 DUP3 AND EQ PUSH2 0xA5D JUMP INVALID LOG2 PUSH5 0x6970667358 0x22 SLT KECCAK256 PUSH28 0x4A4740EF998EB56D66E64715273B04FF5515908C457BC3AFF0AC5BC9 MOD EXTSTATICCALL SWAP7 PUSH5 0x736F6C6343 STOP ADDMOD 0x1E STOP CALLER "},"methodIdentifiers":{"dexA()":"4c02a7a7","dexB()":"fa29e6b1","dexC()":"027fa475","getData((address,address,address,uint256,uint128,uint128,uint16,bool))":"3bd1104b"}}}}}