{"contracts/Peripheral/quoters/dummy/RealDataBridge/V3TWAPChainlinkQuoter.sol":{"V3TWAPChainlinkQuoter":{"abi":[{"inputs":[{"internalType":"address","name":"_v3twapBridge","type":"address"},{"internalType":"address","name":"_chainlinkBridge","type":"address"}],"stateMutability":"nonpayable","type":"constructor"},{"inputs":[],"name":"chainlinkBridge","outputs":[{"internalType":"contract IDataBridge","name":"","type":"address"}],"stateMutability":"view","type":"function"},{"inputs":[{"components":[{"internalType":"address","name":"asset0","type":"address"},{"internalType":"address","name":"asset1","type":"address"},{"internalType":"address","name":"quoter","type":"address"},{"internalType":"uint256","name":"amount","type":"uint256"},{"internalType":"uint128","name":"asset0Balance","type":"uint128"},{"internalType":"uint128","name":"asset1Balance","type":"uint128"},{"internalType":"uint16","name":"bucketID","type":"uint16"},{"internalType":"bool","name":"zeroForOne","type":"bool"}],"internalType":"struct QuoteParams","name":"params","type":"tuple"},{"internalType":"bytes","name":"","type":"bytes"}],"name":"quote","outputs":[{"internalType":"uint256","name":"","type":"uint256"}],"stateMutability":"nonpayable","type":"function"},{"inputs":[{"components":[{"internalType":"address","name":"asset0","type":"address"},{"internalType":"address","name":"asset1","type":"address"},{"internalType":"address","name":"quoter","type":"address"},{"internalType":"uint256[]","name":"amount","type":"uint256[]"},{"internalType":"uint128[]","name":"asset0Balances","type":"uint128[]"},{"internalType":"uint128[]","name":"asset1Balances","type":"uint128[]"},{"internalType":"uint16[]","name":"bucketID","type":"uint16[]"},{"internalType":"bool","name":"zeroForOne","type":"bool"}],"internalType":"struct QuoteParamsBatch","name":"params","type":"tuple"},{"internalType":"bytes","name":"","type":"bytes"}],"name":"quoteBatch","outputs":[{"internalType":"uint256[]","name":"quotes","type":"uint256[]"}],"stateMutability":"nonpayable","type":"function"},{"inputs":[],"name":"v3twapBridge","outputs":[{"internalType":"contract IDataBridge","name":"","type":"address"}],"stateMutability":"view","type":"function"}],"evm":{"bytecode":{"linkReferences":{},"object":"60c03461009357601f610b1e38819003918201601f19168301916001600160401b0383118484101761009757808492604094855283398101031261009357610052602061004b836100ab565b92016100ab565b6001600160a01b039182166080521660a052604051610a5e90816100c08239608051818181610527015261070f015260a05181818161058501526107500152f35b5f80fd5b634e487b7160e01b5f52604160045260245ffd5b51906001600160a01b03821682036100935756fe6080806040526004361015610012575f80fd5b5f3560e01c90816313be54ff1461073e575080633414c2a9146106fa5780635e3344d01461040f5763db90d10014610048575f80fd5b346103895760403660031901126103895760043567ffffffffffffffff811161038957610100600319823603011261038957604051906100878261077f565b610093816004016107d2565b82526100a1602482016107d2565b91602081019283526100b5604483016107d2565b60408201908152606483013567ffffffffffffffff81116103895783019236602385011215610389576004840135936100ed85610848565b946100fb60405196876107b0565b808652602060048188019260051b840101019136831161038957602401905b8282106103ff5750505060608301938452608481013567ffffffffffffffff81116103895761014f9060043691840101610860565b906080840191825260a481013567ffffffffffffffff81116103895761017b9060043691840101610860565b60a0850190815260c482013567ffffffffffffffff811161038957820191366023840112156103895760048301356101b281610848565b936101c060405195866107b0565b818552602060048187019360051b830101019036821161038957602401915b8183106103e45750505060c0860192835260e401359283151584036103895760e0860193845260243567ffffffffffffffff811161038957610225903690600401610802565b508651519561024c61023688610848565b97610244604051998a6107b0565b808952610848565b602088019190601f19013683375f5b89519081518110156103a05782518c518a516001600160a01b039283169491831692169061028a908490610a00565b518388519061029891610a00565b516001600160801b0316848a51906102af91610a00565b516001600160801b031691858c51906102c791610a00565b5161ffff16938d51151595604051986102df8a61077f565b8952602089015260408801526060870152608086015260a085015260c084015260e0830152604051916305e3344d60e41b83526004830161031f91610931565b6101206101048301525f6101248301528180305a925f61014492602095f18015610395575f9061035f575b60019250610358828c610a00565b520161025b565b506020823d821161038d575b81610378602093836107b0565b81010312610389576001915161034a565b5f80fd5b3d915061036b565b6040513d5f823e3d90fd5b838a604051918291602083019060208452518091526040830191905f5b8181106103cb575050500390f35b82518452859450602093840193909201916001016103bd565b823561ffff81168103610389578152602092830192016101df565b813581526020918201910161011a565b3461038957366003190161012081126103895761010013610389576040516104368161077f565b6004356001600160a01b03811681036103895781526024356001600160a01b03811681036103895760208201526044356001600160a01b038116810361038957604082015260608101906064358252608435906001600160801b0382168203610389576080810191825260a435926001600160801b03841684036103895760a0820193845260c43561ffff811681036103895760c083015260e4359081151582036103895760e083019182526101043567ffffffffffffffff811161038957610503903690600401610802565b50604051633bd1104b60e01b815261051e6004820185610931565b5f8161010481837f00000000000000000000000000000000000000000000000000000000000000006001600160a01b03165af1908115610395575f916106e0575b50604051633bd1104b60e01b81529361057c906004860190610931565b5f8461010481837f00000000000000000000000000000000000000000000000000000000000000006001600160a01b03165af1938415610395575f946106b4575b506105d4816020806105e6945183010191016109ac565b949050602080825183010191016109ac565b5093603c840293808504603c14901517156106a0576028850294808604602814901517156106a05760209560646106236103e897610668976109d5565b94519404931561067b57826001600160801b0361064c610657938261065d9751915116906109c2565b9351169051906109d5565b906109e2565b8391610671576109c2565b04604051908152f35b6103fc91506109c2565b90826001600160801b0361064c610657938261069b9751915116906109c2565b61065d565b634e487b7160e01b5f52601160045260245ffd5b6105e69194506106d86105d4913d805f833e6106d081836107b0565b8101906108ce565b9491506105bd565b6106f491503d805f833e6106d081836107b0565b8661055f565b34610389575f366003190112610389576040517f00000000000000000000000000000000000000000000000000000000000000006001600160a01b03168152602090f35b34610389575f366003190112610389577f00000000000000000000000000000000000000000000000000000000000000006001600160a01b03168152602090f35b610100810190811067ffffffffffffffff82111761079c57604052565b634e487b7160e01b5f52604160045260245ffd5b90601f8019910116810190811067ffffffffffffffff82111761079c57604052565b35906001600160a01b038216820361038957565b67ffffffffffffffff811161079c57601f01601f191660200190565b81601f8201121561038957803590610819826107e6565b9261082760405194856107b0565b8284526020838301011161038957815f926020809301838601378301015290565b67ffffffffffffffff811161079c5760051b60200190565b9080601f830112156103895781359061087882610848565b9261088660405194856107b0565b82845260208085019360051b82010191821161038957602001915b8183106108ae5750505090565b82356001600160801b0381168103610389578152602092830192016108a1565b6020818303126103895780519067ffffffffffffffff8211610389570181601f8201121561038957805190610902826107e6565b9261091060405194856107b0565b8284526020838301011161038957815f9260208093018386015e8301015290565b60e0809160018060a01b03815116845260018060a01b03602082015116602085015260018060a01b036040820151166040850152606081015160608501526001600160801b0360808201511660808501526001600160801b0360a08201511660a085015261ffff60c08201511660c085015201511515910152565b9190826040910312610389576020825192015190565b818102929181159184041417156106a057565b919082018092116106a057565b81156109ec570490565b634e487b7160e01b5f52601260045260245ffd5b8051821015610a145760209160051b010190565b634e487b7160e01b5f52603260045260245ffdfea2646970667358221220f0d213bb50dc83ca971b6896387ffba1e3121c0310801c1cd5cb175816674ddd64736f6c634300081e0033","opcodes":"PUSH1 0xC0 CALLVALUE PUSH2 0x93 JUMPI PUSH1 0x1F PUSH2 0xB1E CODESIZE DUP2 SWAP1 SUB SWAP2 DUP3 ADD PUSH1 0x1F NOT AND DUP4 ADD SWAP2 PUSH1 0x1 PUSH1 0x1 PUSH1 0x40 SHL SUB DUP4 GT DUP5 DUP5 LT OR PUSH2 0x97 JUMPI DUP1 DUP5 SWAP3 PUSH1 0x40 SWAP5 DUP6 MSTORE DUP4 CODECOPY DUP2 ADD SUB SLT PUSH2 0x93 JUMPI PUSH2 0x52 PUSH1 0x20 PUSH2 0x4B DUP4 PUSH2 0xAB JUMP JUMPDEST SWAP3 ADD PUSH2 0xAB JUMP JUMPDEST PUSH1 0x1 PUSH1 0x1 PUSH1 0xA0 SHL SUB SWAP2 DUP3 AND PUSH1 0x80 MSTORE AND PUSH1 0xA0 MSTORE PUSH1 0x40 MLOAD PUSH2 0xA5E SWAP1 DUP2 PUSH2 0xC0 DUP3 CODECOPY PUSH1 0x80 MLOAD DUP2 DUP2 DUP2 PUSH2 0x527 ADD MSTORE PUSH2 0x70F ADD MSTORE PUSH1 0xA0 MLOAD DUP2 DUP2 DUP2 PUSH2 0x585 ADD MSTORE PUSH2 0x750 ADD MSTORE RETURN JUMPDEST PUSH0 DUP1 REVERT JUMPDEST PUSH4 0x4E487B71 PUSH1 0xE0 SHL PUSH0 MSTORE PUSH1 0x41 PUSH1 0x4 MSTORE PUSH1 0x24 PUSH0 REVERT JUMPDEST MLOAD SWAP1 PUSH1 0x1 PUSH1 0x1 PUSH1 0xA0 SHL SUB DUP3 AND DUP3 SUB PUSH2 0x93 JUMPI JUMP INVALID PUSH1 0x80 DUP1 PUSH1 0x40 MSTORE PUSH1 0x4 CALLDATASIZE LT ISZERO PUSH2 0x12 JUMPI PUSH0 DUP1 REVERT JUMPDEST PUSH0 CALLDATALOAD PUSH1 0xE0 SHR SWAP1 DUP2 PUSH4 0x13BE54FF EQ PUSH2 0x73E JUMPI POP DUP1 PUSH4 0x3414C2A9 EQ PUSH2 0x6FA JUMPI DUP1 PUSH4 0x5E3344D0 EQ PUSH2 0x40F JUMPI PUSH4 0xDB90D100 EQ PUSH2 0x48 JUMPI PUSH0 DUP1 REVERT JUMPDEST CALLVALUE PUSH2 0x389 JUMPI PUSH1 0x40 CALLDATASIZE PUSH1 0x3 NOT ADD SLT PUSH2 0x389 JUMPI PUSH1 0x4 CALLDATALOAD PUSH8 0xFFFFFFFFFFFFFFFF DUP2 GT PUSH2 0x389 JUMPI PUSH2 0x100 PUSH1 0x3 NOT DUP3 CALLDATASIZE SUB ADD SLT PUSH2 0x389 JUMPI PUSH1 0x40 MLOAD SWAP1 PUSH2 0x87 DUP3 PUSH2 0x77F JUMP JUMPDEST PUSH2 0x93 DUP2 PUSH1 0x4 ADD PUSH2 0x7D2 JUMP JUMPDEST DUP3 MSTORE PUSH2 0xA1 PUSH1 0x24 DUP3 ADD PUSH2 0x7D2 JUMP JUMPDEST SWAP2 PUSH1 0x20 DUP2 ADD SWAP3 DUP4 MSTORE PUSH2 0xB5 PUSH1 0x44 DUP4 ADD PUSH2 0x7D2 JUMP JUMPDEST PUSH1 0x40 DUP3 ADD SWAP1 DUP2 MSTORE PUSH1 0x64 DUP4 ADD CALLDATALOAD PUSH8 0xFFFFFFFFFFFFFFFF DUP2 GT PUSH2 0x389 JUMPI DUP4 ADD SWAP3 CALLDATASIZE PUSH1 0x23 DUP6 ADD SLT ISZERO PUSH2 0x389 JUMPI PUSH1 0x4 DUP5 ADD CALLDATALOAD SWAP4 PUSH2 0xED DUP6 PUSH2 0x848 JUMP JUMPDEST SWAP5 PUSH2 0xFB PUSH1 0x40 MLOAD SWAP7 DUP8 PUSH2 0x7B0 JUMP JUMPDEST DUP1 DUP7 MSTORE PUSH1 0x20 PUSH1 0x4 DUP2 DUP9 ADD SWAP3 PUSH1 0x5 SHL DUP5 ADD ADD ADD SWAP2 CALLDATASIZE DUP4 GT PUSH2 0x389 JUMPI PUSH1 0x24 ADD SWAP1 JUMPDEST DUP3 DUP3 LT PUSH2 0x3FF JUMPI POP POP POP PUSH1 0x60 DUP4 ADD SWAP4 DUP5 MSTORE PUSH1 0x84 DUP2 ADD CALLDATALOAD PUSH8 0xFFFFFFFFFFFFFFFF DUP2 GT PUSH2 0x389 JUMPI PUSH2 0x14F SWAP1 PUSH1 0x4 CALLDATASIZE SWAP2 DUP5 ADD ADD PUSH2 0x860 JUMP JUMPDEST SWAP1 PUSH1 0x80 DUP5 ADD SWAP2 DUP3 MSTORE PUSH1 0xA4 DUP2 ADD CALLDATALOAD PUSH8 0xFFFFFFFFFFFFFFFF DUP2 GT PUSH2 0x389 JUMPI PUSH2 0x17B SWAP1 PUSH1 0x4 CALLDATASIZE SWAP2 DUP5 ADD ADD PUSH2 0x860 JUMP JUMPDEST PUSH1 0xA0 DUP6 ADD SWAP1 DUP2 MSTORE PUSH1 0xC4 DUP3 ADD CALLDATALOAD PUSH8 0xFFFFFFFFFFFFFFFF DUP2 GT PUSH2 0x389 JUMPI DUP3 ADD SWAP2 CALLDATASIZE PUSH1 0x23 DUP5 ADD SLT ISZERO PUSH2 0x389 JUMPI PUSH1 0x4 DUP4 ADD CALLDATALOAD PUSH2 0x1B2 DUP2 PUSH2 0x848 JUMP JUMPDEST SWAP4 PUSH2 0x1C0 PUSH1 0x40 MLOAD SWAP6 DUP7 PUSH2 0x7B0 JUMP JUMPDEST DUP2 DUP6 MSTORE PUSH1 0x20 PUSH1 0x4 DUP2 DUP8 ADD SWAP4 PUSH1 0x5 SHL DUP4 ADD ADD ADD SWAP1 CALLDATASIZE DUP3 GT PUSH2 0x389 JUMPI PUSH1 0x24 ADD SWAP2 JUMPDEST DUP2 DUP4 LT PUSH2 0x3E4 JUMPI POP POP POP PUSH1 0xC0 DUP7 ADD SWAP3 DUP4 MSTORE PUSH1 0xE4 ADD CALLDATALOAD SWAP3 DUP4 ISZERO ISZERO DUP5 SUB PUSH2 0x389 JUMPI PUSH1 0xE0 DUP7 ADD SWAP4 DUP5 MSTORE PUSH1 0x24 CALLDATALOAD PUSH8 0xFFFFFFFFFFFFFFFF DUP2 GT PUSH2 0x389 JUMPI PUSH2 0x225 SWAP1 CALLDATASIZE SWAP1 PUSH1 0x4 ADD PUSH2 0x802 JUMP JUMPDEST POP DUP7 MLOAD MLOAD SWAP6 PUSH2 0x24C PUSH2 0x236 DUP9 PUSH2 0x848 JUMP JUMPDEST SWAP8 PUSH2 0x244 PUSH1 0x40 MLOAD SWAP10 DUP11 PUSH2 0x7B0 JUMP JUMPDEST DUP1 DUP10 MSTORE PUSH2 0x848 JUMP JUMPDEST PUSH1 0x20 DUP9 ADD SWAP2 SWAP1 PUSH1 0x1F NOT ADD CALLDATASIZE DUP4 CALLDATACOPY PUSH0 JUMPDEST DUP10 MLOAD SWAP1 DUP2 MLOAD DUP2 LT ISZERO PUSH2 0x3A0 JUMPI DUP3 MLOAD DUP13 MLOAD DUP11 MLOAD PUSH1 0x1 PUSH1 0x1 PUSH1 0xA0 SHL SUB SWAP3 DUP4 AND SWAP5 SWAP2 DUP4 AND SWAP3 AND SWAP1 PUSH2 0x28A SWAP1 DUP5 SWAP1 PUSH2 0xA00 JUMP JUMPDEST MLOAD DUP4 DUP9 MLOAD SWAP1 PUSH2 0x298 SWAP2 PUSH2 0xA00 JUMP JUMPDEST MLOAD PUSH1 0x1 PUSH1 0x1 PUSH1 0x80 SHL SUB AND DUP5 DUP11 MLOAD SWAP1 PUSH2 0x2AF SWAP2 PUSH2 0xA00 JUMP JUMPDEST MLOAD PUSH1 0x1 PUSH1 0x1 PUSH1 0x80 SHL SUB AND SWAP2 DUP6 DUP13 MLOAD SWAP1 PUSH2 0x2C7 SWAP2 PUSH2 0xA00 JUMP JUMPDEST MLOAD PUSH2 0xFFFF AND SWAP4 DUP14 MLOAD ISZERO ISZERO SWAP6 PUSH1 0x40 MLOAD SWAP9 PUSH2 0x2DF DUP11 PUSH2 0x77F JUMP JUMPDEST DUP10 MSTORE PUSH1 0x20 DUP10 ADD MSTORE PUSH1 0x40 DUP9 ADD MSTORE PUSH1 0x60 DUP8 ADD MSTORE PUSH1 0x80 DUP7 ADD MSTORE PUSH1 0xA0 DUP6 ADD MSTORE PUSH1 0xC0 DUP5 ADD MSTORE PUSH1 0xE0 DUP4 ADD MSTORE PUSH1 0x40 MLOAD SWAP2 PUSH4 0x5E3344D PUSH1 0xE4 SHL DUP4 MSTORE PUSH1 0x4 DUP4 ADD PUSH2 0x31F SWAP2 PUSH2 0x931 JUMP JUMPDEST PUSH2 0x120 PUSH2 0x104 DUP4 ADD MSTORE PUSH0 PUSH2 0x124 DUP4 ADD MSTORE DUP2 DUP1 ADDRESS GAS SWAP3 PUSH0 PUSH2 0x144 SWAP3 PUSH1 0x20 SWAP6 CALL DUP1 ISZERO PUSH2 0x395 JUMPI PUSH0 SWAP1 PUSH2 0x35F JUMPI JUMPDEST PUSH1 0x1 SWAP3 POP PUSH2 0x358 DUP3 DUP13 PUSH2 0xA00 JUMP JUMPDEST MSTORE ADD PUSH2 0x25B JUMP JUMPDEST POP PUSH1 0x20 DUP3 RETURNDATASIZE DUP3 GT PUSH2 0x38D JUMPI JUMPDEST DUP2 PUSH2 0x378 PUSH1 0x20 SWAP4 DUP4 PUSH2 0x7B0 JUMP JUMPDEST DUP2 ADD SUB SLT PUSH2 0x389 JUMPI PUSH1 0x1 SWAP2 MLOAD PUSH2 0x34A JUMP JUMPDEST PUSH0 DUP1 REVERT JUMPDEST RETURNDATASIZE SWAP2 POP PUSH2 0x36B JUMP JUMPDEST PUSH1 0x40 MLOAD RETURNDATASIZE PUSH0 DUP3 RETURNDATACOPY RETURNDATASIZE SWAP1 REVERT JUMPDEST DUP4 DUP11 PUSH1 0x40 MLOAD SWAP2 DUP3 SWAP2 PUSH1 0x20 DUP4 ADD SWAP1 PUSH1 0x20 DUP5 MSTORE MLOAD DUP1 SWAP2 MSTORE PUSH1 0x40 DUP4 ADD SWAP2 SWAP1 PUSH0 JUMPDEST DUP2 DUP2 LT PUSH2 0x3CB JUMPI POP POP POP SUB SWAP1 RETURN JUMPDEST DUP3 MLOAD DUP5 MSTORE DUP6 SWAP5 POP PUSH1 0x20 SWAP4 DUP5 ADD SWAP4 SWAP1 SWAP3 ADD SWAP2 PUSH1 0x1 ADD PUSH2 0x3BD JUMP JUMPDEST DUP3 CALLDATALOAD PUSH2 0xFFFF DUP2 AND DUP2 SUB PUSH2 0x389 JUMPI DUP2 MSTORE PUSH1 0x20 SWAP3 DUP4 ADD SWAP3 ADD PUSH2 0x1DF JUMP JUMPDEST DUP2 CALLDATALOAD DUP2 MSTORE PUSH1 0x20 SWAP2 DUP3 ADD SWAP2 ADD PUSH2 0x11A JUMP JUMPDEST CALLVALUE PUSH2 0x389 JUMPI CALLDATASIZE PUSH1 0x3 NOT ADD PUSH2 0x120 DUP2 SLT PUSH2 0x389 JUMPI PUSH2 0x100 SGT PUSH2 0x389 JUMPI PUSH1 0x40 MLOAD PUSH2 0x436 DUP2 PUSH2 0x77F JUMP JUMPDEST PUSH1 0x4 CALLDATALOAD PUSH1 0x1 PUSH1 0x1 PUSH1 0xA0 SHL SUB DUP2 AND DUP2 SUB PUSH2 0x389 JUMPI DUP2 MSTORE PUSH1 0x24 CALLDATALOAD PUSH1 0x1 PUSH1 0x1 PUSH1 0xA0 SHL SUB DUP2 AND DUP2 SUB PUSH2 0x389 JUMPI PUSH1 0x20 DUP3 ADD MSTORE PUSH1 0x44 CALLDATALOAD PUSH1 0x1 PUSH1 0x1 PUSH1 0xA0 SHL SUB DUP2 AND DUP2 SUB PUSH2 0x389 JUMPI PUSH1 0x40 DUP3 ADD MSTORE PUSH1 0x60 DUP2 ADD SWAP1 PUSH1 0x64 CALLDATALOAD DUP3 MSTORE PUSH1 0x84 CALLDATALOAD SWAP1 PUSH1 0x1 PUSH1 0x1 PUSH1 0x80 SHL SUB DUP3 AND DUP3 SUB PUSH2 0x389 JUMPI PUSH1 0x80 DUP2 ADD SWAP2 DUP3 MSTORE PUSH1 0xA4 CALLDATALOAD SWAP3 PUSH1 0x1 PUSH1 0x1 PUSH1 0x80 SHL SUB DUP5 AND DUP5 SUB PUSH2 0x389 JUMPI PUSH1 0xA0 DUP3 ADD SWAP4 DUP5 MSTORE PUSH1 0xC4 CALLDATALOAD PUSH2 0xFFFF DUP2 AND DUP2 SUB PUSH2 0x389 JUMPI PUSH1 0xC0 DUP4 ADD MSTORE PUSH1 0xE4 CALLDATALOAD SWAP1 DUP2 ISZERO ISZERO DUP3 SUB PUSH2 0x389 JUMPI PUSH1 0xE0 DUP4 ADD SWAP2 DUP3 MSTORE PUSH2 0x104 CALLDATALOAD PUSH8 0xFFFFFFFFFFFFFFFF DUP2 GT PUSH2 0x389 JUMPI PUSH2 0x503 SWAP1 CALLDATASIZE SWAP1 PUSH1 0x4 ADD PUSH2 0x802 JUMP JUMPDEST POP PUSH1 0x40 MLOAD PUSH4 0x3BD1104B PUSH1 0xE0 SHL DUP2 MSTORE PUSH2 0x51E PUSH1 0x4 DUP3 ADD DUP6 PUSH2 0x931 JUMP JUMPDEST PUSH0 DUP2 PUSH2 0x104 DUP2 DUP4 PUSH32 0x0 PUSH1 0x1 PUSH1 0x1 PUSH1 0xA0 SHL SUB AND GAS CALL SWAP1 DUP2 ISZERO PUSH2 0x395 JUMPI PUSH0 SWAP2 PUSH2 0x6E0 JUMPI JUMPDEST POP PUSH1 0x40 MLOAD PUSH4 0x3BD1104B PUSH1 0xE0 SHL DUP2 MSTORE SWAP4 PUSH2 0x57C SWAP1 PUSH1 0x4 DUP7 ADD SWAP1 PUSH2 0x931 JUMP JUMPDEST PUSH0 DUP5 PUSH2 0x104 DUP2 DUP4 PUSH32 0x0 PUSH1 0x1 PUSH1 0x1 PUSH1 0xA0 SHL SUB AND GAS CALL SWAP4 DUP5 ISZERO PUSH2 0x395 JUMPI PUSH0 SWAP5 PUSH2 0x6B4 JUMPI JUMPDEST POP PUSH2 0x5D4 DUP2 PUSH1 0x20 DUP1 PUSH2 0x5E6 SWAP5 MLOAD DUP4 ADD ADD SWAP2 ADD PUSH2 0x9AC JUMP JUMPDEST SWAP5 SWAP1 POP PUSH1 0x20 DUP1 DUP3 MLOAD DUP4 ADD ADD SWAP2 ADD PUSH2 0x9AC JUMP JUMPDEST POP SWAP4 PUSH1 0x3C DUP5 MUL SWAP4 DUP1 DUP6 DIV PUSH1 0x3C EQ SWAP1 ISZERO OR ISZERO PUSH2 0x6A0 JUMPI PUSH1 0x28 DUP6 MUL SWAP5 DUP1 DUP7 DIV PUSH1 0x28 EQ SWAP1 ISZERO OR ISZERO PUSH2 0x6A0 JUMPI PUSH1 0x20 SWAP6 PUSH1 0x64 PUSH2 0x623 PUSH2 0x3E8 SWAP8 PUSH2 0x668 SWAP8 PUSH2 0x9D5 JUMP JUMPDEST SWAP5 MLOAD SWAP5 DIV SWAP4 ISZERO PUSH2 0x67B JUMPI DUP3 PUSH1 0x1 PUSH1 0x1 PUSH1 0x80 SHL SUB PUSH2 0x64C PUSH2 0x657 SWAP4 DUP3 PUSH2 0x65D SWAP8 MLOAD SWAP2 MLOAD AND SWAP1 PUSH2 0x9C2 JUMP JUMPDEST SWAP4 MLOAD AND SWAP1 MLOAD SWAP1 PUSH2 0x9D5 JUMP JUMPDEST SWAP1 PUSH2 0x9E2 JUMP JUMPDEST DUP4 SWAP2 PUSH2 0x671 JUMPI PUSH2 0x9C2 JUMP JUMPDEST DIV PUSH1 0x40 MLOAD SWAP1 DUP2 MSTORE RETURN JUMPDEST PUSH2 0x3FC SWAP2 POP PUSH2 0x9C2 JUMP JUMPDEST SWAP1 DUP3 PUSH1 0x1 PUSH1 0x1 PUSH1 0x80 SHL SUB PUSH2 0x64C PUSH2 0x657 SWAP4 DUP3 PUSH2 0x69B SWAP8 MLOAD SWAP2 MLOAD AND SWAP1 PUSH2 0x9C2 JUMP JUMPDEST PUSH2 0x65D JUMP JUMPDEST PUSH4 0x4E487B71 PUSH1 0xE0 SHL PUSH0 MSTORE PUSH1 0x11 PUSH1 0x4 MSTORE PUSH1 0x24 PUSH0 REVERT JUMPDEST PUSH2 0x5E6 SWAP2 SWAP5 POP PUSH2 0x6D8 PUSH2 0x5D4 SWAP2 RETURNDATASIZE DUP1 PUSH0 DUP4 RETURNDATACOPY PUSH2 0x6D0 DUP2 DUP4 PUSH2 0x7B0 JUMP JUMPDEST DUP2 ADD SWAP1 PUSH2 0x8CE JUMP JUMPDEST SWAP5 SWAP2 POP PUSH2 0x5BD JUMP JUMPDEST PUSH2 0x6F4 SWAP2 POP RETURNDATASIZE DUP1 PUSH0 DUP4 RETURNDATACOPY PUSH2 0x6D0 DUP2 DUP4 PUSH2 0x7B0 JUMP JUMPDEST DUP7 PUSH2 0x55F JUMP JUMPDEST CALLVALUE PUSH2 0x389 JUMPI PUSH0 CALLDATASIZE PUSH1 0x3 NOT ADD SLT PUSH2 0x389 JUMPI PUSH1 0x40 MLOAD PUSH32 0x0 PUSH1 0x1 PUSH1 0x1 PUSH1 0xA0 SHL SUB AND DUP2 MSTORE PUSH1 0x20 SWAP1 RETURN JUMPDEST CALLVALUE PUSH2 0x389 JUMPI PUSH0 CALLDATASIZE PUSH1 0x3 NOT ADD SLT PUSH2 0x389 JUMPI PUSH32 0x0 PUSH1 0x1 PUSH1 0x1 PUSH1 0xA0 SHL SUB AND DUP2 MSTORE PUSH1 0x20 SWAP1 RETURN JUMPDEST PUSH2 0x100 DUP2 ADD SWAP1 DUP2 LT PUSH8 0xFFFFFFFFFFFFFFFF DUP3 GT OR PUSH2 0x79C JUMPI PUSH1 0x40 MSTORE JUMP JUMPDEST PUSH4 0x4E487B71 PUSH1 0xE0 SHL PUSH0 MSTORE PUSH1 0x41 PUSH1 0x4 MSTORE PUSH1 0x24 PUSH0 REVERT JUMPDEST SWAP1 PUSH1 0x1F DUP1 NOT SWAP2 ADD AND DUP2 ADD SWAP1 DUP2 LT PUSH8 0xFFFFFFFFFFFFFFFF DUP3 GT OR PUSH2 0x79C JUMPI PUSH1 0x40 MSTORE JUMP JUMPDEST CALLDATALOAD SWAP1 PUSH1 0x1 PUSH1 0x1 PUSH1 0xA0 SHL SUB DUP3 AND DUP3 SUB PUSH2 0x389 JUMPI JUMP JUMPDEST PUSH8 0xFFFFFFFFFFFFFFFF DUP2 GT PUSH2 0x79C JUMPI PUSH1 0x1F ADD PUSH1 0x1F NOT AND PUSH1 0x20 ADD SWAP1 JUMP JUMPDEST DUP2 PUSH1 0x1F DUP3 ADD SLT ISZERO PUSH2 0x389 JUMPI DUP1 CALLDATALOAD SWAP1 PUSH2 0x819 DUP3 PUSH2 0x7E6 JUMP JUMPDEST SWAP3 PUSH2 0x827 PUSH1 0x40 MLOAD SWAP5 DUP6 PUSH2 0x7B0 JUMP JUMPDEST DUP3 DUP5 MSTORE PUSH1 0x20 DUP4 DUP4 ADD ADD GT PUSH2 0x389 JUMPI DUP2 PUSH0 SWAP3 PUSH1 0x20 DUP1 SWAP4 ADD DUP4 DUP7 ADD CALLDATACOPY DUP4 ADD ADD MSTORE SWAP1 JUMP JUMPDEST PUSH8 0xFFFFFFFFFFFFFFFF DUP2 GT PUSH2 0x79C JUMPI PUSH1 0x5 SHL PUSH1 0x20 ADD SWAP1 JUMP JUMPDEST SWAP1 DUP1 PUSH1 0x1F DUP4 ADD SLT ISZERO PUSH2 0x389 JUMPI DUP2 CALLDATALOAD SWAP1 PUSH2 0x878 DUP3 PUSH2 0x848 JUMP JUMPDEST SWAP3 PUSH2 0x886 PUSH1 0x40 MLOAD SWAP5 DUP6 PUSH2 0x7B0 JUMP JUMPDEST DUP3 DUP5 MSTORE PUSH1 0x20 DUP1 DUP6 ADD SWAP4 PUSH1 0x5 SHL DUP3 ADD ADD SWAP2 DUP3 GT PUSH2 0x389 JUMPI PUSH1 0x20 ADD SWAP2 JUMPDEST DUP2 DUP4 LT PUSH2 0x8AE JUMPI POP POP POP SWAP1 JUMP JUMPDEST DUP3 CALLDATALOAD PUSH1 0x1 PUSH1 0x1 PUSH1 0x80 SHL SUB DUP2 AND DUP2 SUB PUSH2 0x389 JUMPI DUP2 MSTORE PUSH1 0x20 SWAP3 DUP4 ADD SWAP3 ADD PUSH2 0x8A1 JUMP JUMPDEST PUSH1 0x20 DUP2 DUP4 SUB SLT PUSH2 0x389 JUMPI DUP1 MLOAD SWAP1 PUSH8 0xFFFFFFFFFFFFFFFF DUP3 GT PUSH2 0x389 JUMPI ADD DUP2 PUSH1 0x1F DUP3 ADD SLT ISZERO PUSH2 0x389 JUMPI DUP1 MLOAD SWAP1 PUSH2 0x902 DUP3 PUSH2 0x7E6 JUMP JUMPDEST SWAP3 PUSH2 0x910 PUSH1 0x40 MLOAD SWAP5 DUP6 PUSH2 0x7B0 JUMP JUMPDEST DUP3 DUP5 MSTORE PUSH1 0x20 DUP4 DUP4 ADD ADD GT PUSH2 0x389 JUMPI DUP2 PUSH0 SWAP3 PUSH1 0x20 DUP1 SWAP4 ADD DUP4 DUP7 ADD MCOPY DUP4 ADD ADD MSTORE SWAP1 JUMP JUMPDEST PUSH1 0xE0 DUP1 SWAP2 PUSH1 0x1 DUP1 PUSH1 0xA0 SHL SUB DUP2 MLOAD AND DUP5 MSTORE PUSH1 0x1 DUP1 PUSH1 0xA0 SHL SUB PUSH1 0x20 DUP3 ADD MLOAD AND PUSH1 0x20 DUP6 ADD MSTORE PUSH1 0x1 DUP1 PUSH1 0xA0 SHL SUB PUSH1 0x40 DUP3 ADD MLOAD AND PUSH1 0x40 DUP6 ADD MSTORE PUSH1 0x60 DUP2 ADD MLOAD PUSH1 0x60 DUP6 ADD MSTORE PUSH1 0x1 PUSH1 0x1 PUSH1 0x80 SHL SUB PUSH1 0x80 DUP3 ADD MLOAD AND PUSH1 0x80 DUP6 ADD MSTORE PUSH1 0x1 PUSH1 0x1 PUSH1 0x80 SHL SUB PUSH1 0xA0 DUP3 ADD MLOAD AND PUSH1 0xA0 DUP6 ADD MSTORE PUSH2 0xFFFF PUSH1 0xC0 DUP3 ADD MLOAD AND PUSH1 0xC0 DUP6 ADD MSTORE ADD MLOAD ISZERO ISZERO SWAP2 ADD MSTORE JUMP JUMPDEST SWAP2 SWAP1 DUP3 PUSH1 0x40 SWAP2 SUB SLT PUSH2 0x389 JUMPI PUSH1 0x20 DUP3 MLOAD SWAP3 ADD MLOAD SWAP1 JUMP JUMPDEST DUP2 DUP2 MUL SWAP3 SWAP2 DUP2 ISZERO SWAP2 DUP5 DIV EQ OR ISZERO PUSH2 0x6A0 JUMPI JUMP JUMPDEST SWAP2 SWAP1 DUP3 ADD DUP1 SWAP3 GT PUSH2 0x6A0 JUMPI JUMP JUMPDEST DUP2 ISZERO PUSH2 0x9EC JUMPI DIV SWAP1 JUMP JUMPDEST PUSH4 0x4E487B71 PUSH1 0xE0 SHL PUSH0 MSTORE PUSH1 0x12 PUSH1 0x4 MSTORE PUSH1 0x24 PUSH0 REVERT JUMPDEST DUP1 MLOAD DUP3 LT ISZERO PUSH2 0xA14 JUMPI PUSH1 0x20 SWAP2 PUSH1 0x5 SHL ADD ADD SWAP1 JUMP JUMPDEST PUSH4 0x4E487B71 PUSH1 0xE0 SHL PUSH0 MSTORE PUSH1 0x32 PUSH1 0x4 MSTORE PUSH1 0x24 PUSH0 REVERT INVALID LOG2 PUSH5 0x6970667358 0x22 SLT KECCAK256 CREATE 0xD2 SGT 0xBB POP 0xDC DUP4 0xCA SWAP8 SHL PUSH9 0x96387FFBA1E3121C03 LT DUP1 SHR SHR 0xD5 0xCB OR PC AND PUSH8 0x4DDD64736F6C6343 STOP ADDMOD 0x1E STOP CALLER "},"methodIdentifiers":{"chainlinkBridge()":"13be54ff","quote((address,address,address,uint256,uint128,uint128,uint16,bool),bytes)":"5e3344d0","quoteBatch((address,address,address,uint256[],uint128[],uint128[],uint16[],bool),bytes)":"db90d100","v3twapBridge()":"3414c2a9"}}}}}