{"contracts/Peripheral/quoters/dummy/RealDataBridge/V2V3TWAPQuoter.sol":{"V2V3TWAPQuoter":{"abi":[{"inputs":[{"internalType":"address","name":"_uniV2Bridge","type":"address"},{"internalType":"address","name":"_sushiV2Bridge","type":"address"},{"internalType":"address","name":"_v3twapBridge","type":"address"}],"stateMutability":"nonpayable","type":"constructor"},{"inputs":[{"components":[{"internalType":"address","name":"asset0","type":"address"},{"internalType":"address","name":"asset1","type":"address"},{"internalType":"address","name":"quoter","type":"address"},{"internalType":"uint256","name":"amount","type":"uint256"},{"internalType":"uint128","name":"asset0Balance","type":"uint128"},{"internalType":"uint128","name":"asset1Balance","type":"uint128"},{"internalType":"uint16","name":"bucketID","type":"uint16"},{"internalType":"bool","name":"zeroForOne","type":"bool"}],"internalType":"struct QuoteParams","name":"params","type":"tuple"},{"internalType":"bytes","name":"","type":"bytes"}],"name":"quote","outputs":[{"internalType":"uint256","name":"","type":"uint256"}],"stateMutability":"nonpayable","type":"function"},{"inputs":[{"components":[{"internalType":"address","name":"asset0","type":"address"},{"internalType":"address","name":"asset1","type":"address"},{"internalType":"address","name":"quoter","type":"address"},{"internalType":"uint256[]","name":"amount","type":"uint256[]"},{"internalType":"uint128[]","name":"asset0Balances","type":"uint128[]"},{"internalType":"uint128[]","name":"asset1Balances","type":"uint128[]"},{"internalType":"uint16[]","name":"bucketID","type":"uint16[]"},{"internalType":"bool","name":"zeroForOne","type":"bool"}],"internalType":"struct QuoteParamsBatch","name":"params","type":"tuple"},{"internalType":"bytes","name":"","type":"bytes"}],"name":"quoteBatch","outputs":[{"internalType":"uint256[]","name":"quotes","type":"uint256[]"}],"stateMutability":"nonpayable","type":"function"},{"inputs":[],"name":"sushiV2Bridge","outputs":[{"internalType":"contract IDataBridge","name":"","type":"address"}],"stateMutability":"view","type":"function"},{"inputs":[],"name":"uniV2Bridge","outputs":[{"internalType":"contract IDataBridge","name":"","type":"address"}],"stateMutability":"view","type":"function"},{"inputs":[],"name":"v3twapBridge","outputs":[{"internalType":"contract IDataBridge","name":"","type":"address"}],"stateMutability":"view","type":"function"}],"evm":{"bytecode":{"linkReferences":{},"object":"60e0346100b757601f610d7338819003918201601f19168301916001600160401b038311848410176100bb578084926060946040528339810103126100b757610047816100cf565b906100606040610059602084016100cf565b92016100cf565b6001600160a01b0392831660805290821660a0521660c052604051610c8f90816100e482396080518181816105960152610932015260a05181818161042f01526105f3015260c05181818161065101526109730152f35b5f80fd5b634e487b7160e01b5f52604160045260245ffd5b51906001600160a01b03821682036100b75756fe6080806040526004361015610012575f80fd5b5f3560e01c9081633414c2a91461096157508063380cc26c1461091d5780635e3344d01461045e5780637a65d3a11461041a5763db90d10014610053575f80fd5b346103945760403660031901126103945760043567ffffffffffffffff81116103945761010060031982360301126103945760405190610092826109a2565b61009e816004016109f5565b82526100ac602482016109f5565b91602081019283526100c0604483016109f5565b60408201908152606483013567ffffffffffffffff81116103945783019236602385011215610394576004840135936100f885610a6b565b9461010660405196876109d3565b808652602060048188019260051b840101019136831161039457602401905b82821061040a5750505060608301938452608481013567ffffffffffffffff81116103945761015a9060043691840101610a83565b906080840191825260a481013567ffffffffffffffff8111610394576101869060043691840101610a83565b60a0850190815260c482013567ffffffffffffffff811161039457820191366023840112156103945760048301356101bd81610a6b565b936101cb60405195866109d3565b818552602060048187019360051b830101019036821161039457602401915b8183106103ef5750505060c0860192835260e401359283151584036103945760e0860193845260243567ffffffffffffffff811161039457610230903690600401610a25565b508651519561025761024188610a6b565b9761024f604051998a6109d3565b808952610a6b565b602088019190601f19013683375f5b89519081518110156103ab5782518c518a516001600160a01b0392831694918316921690610295908490610be5565b51838851906102a391610be5565b516001600160801b0316848a51906102ba91610be5565b516001600160801b031691858c51906102d291610be5565b5161ffff16938d51151595604051986102ea8a6109a2565b8952602089015260408801526060870152608086015260a085015260c084015260e0830152604051916305e3344d60e41b83526004830161032a91610b54565b6101206101048301525f6101248301528180305a925f61014492602095f180156103a0575f9061036a575b60019250610363828c610be5565b5201610266565b506020823d8211610398575b81610383602093836109d3565b810103126103945760019151610355565b5f80fd5b3d9150610376565b6040513d5f823e3d90fd5b838a604051918291602083019060208452518091526040830191905f5b8181106103d6575050500390f35b82518452859450602093840193909201916001016103c8565b823561ffff81168103610394578152602092830192016101ea565b8135815260209182019101610125565b34610394575f366003190112610394576040517f00000000000000000000000000000000000000000000000000000000000000006001600160a01b03168152602090f35b346103945736600319016101208112610394576101001361039457604051610485816109a2565b6004356001600160a01b03811681036103945781526024356001600160a01b03811681036103945760208201526044356001600160a01b038116810361039457604082015260608101906064358252608435916001600160801b0383168303610394576080820192835260a435916001600160801b03831683036103945760a0810192835260c43561ffff811681036103945760c082015260e4359182151583036103945760e082019283526101043567ffffffffffffffff811161039457610552903690600401610a25565b50604051946105626080876109d3565b6003865260208601926060368537604051633bd1104b60e01b81525f949061058d6004820184610b54565b5f8161010481837f00000000000000000000000000000000000000000000000000000000000000006001600160a01b03165af15f9181610901575b506108b3575b5050604051633bd1104b60e01b81526105ea6004820183610b54565b5f8161010481837f00000000000000000000000000000000000000000000000000000000000000006001600160a01b03165af15f9181610897575b5061086d575b50604051633bd1104b60e01b815290610648906004830190610b54565b5f8161010481837f00000000000000000000000000000000000000000000000000000000000000006001600160a01b03165af15f9181610849575b5061080a575b508215948515956107c5575f965f5b8581106107a45750506103e8948460209794879461071b946106bd610721998d610c28565b94511561077e57826001600160801b036106e36106ee93826106f4975191511690610c46565b935116905190610c1b565b90610c28565b945b849281610774575b50610747575b6003811061072a575061ffff6103e65b1693610c46565b04610c46565b04604051908152f35b60020361073c5761ffff6103e4610714565b61ffff6103e2610714565b90506003811061075a5761040690610704565b6002810361076b576103fc90610704565b6103f290610704565b90501515896106fe565b90826001600160801b036106e36106ee938261079e975191511690610c46565b946106f6565b90976107bd6001916107b6848c610be5565b5190610c1b565b989101610698565b60405162461bcd60e51b815260206004820152601760248201527f4e6f207072696365206461746120617661696c61626c650000000000000000006044820152606490fd5b926108228460208061083b9597518301019101610bcf565b90811561084257505b6108358289610be5565b52610bf9565b9186610689565b905061082b565b6108669192503d805f833e61085e81836109d3565b810190610af1565b9088610683565b93610885856020806108909598518301019101610bcf565b50610835828a610be5565b928761062b565b6108ac9192503d805f833e61085e81836109d3565b9089610625565b6108c99192955060208082518301019101610bcf565b9081156108f95750905b8751156108e5575260019287806105ce565b634e487b7160e01b5f52603260045260245ffd5b9050906108d3565b6109169192503d805f833e61085e81836109d3565b908a6105c8565b34610394575f366003190112610394576040517f00000000000000000000000000000000000000000000000000000000000000006001600160a01b03168152602090f35b34610394575f366003190112610394577f00000000000000000000000000000000000000000000000000000000000000006001600160a01b03168152602090f35b610100810190811067ffffffffffffffff8211176109bf57604052565b634e487b7160e01b5f52604160045260245ffd5b90601f8019910116810190811067ffffffffffffffff8211176109bf57604052565b35906001600160a01b038216820361039457565b67ffffffffffffffff81116109bf57601f01601f191660200190565b81601f8201121561039457803590610a3c82610a09565b92610a4a60405194856109d3565b8284526020838301011161039457815f926020809301838601378301015290565b67ffffffffffffffff81116109bf5760051b60200190565b9080601f8301121561039457813590610a9b82610a6b565b92610aa960405194856109d3565b82845260208085019360051b82010191821161039457602001915b818310610ad15750505090565b82356001600160801b038116810361039457815260209283019201610ac4565b6020818303126103945780519067ffffffffffffffff8211610394570181601f8201121561039457805190610b2582610a09565b92610b3360405194856109d3565b8284526020838301011161039457815f9260208093018386015e8301015290565b60e0809160018060a01b03815116845260018060a01b03602082015116602085015260018060a01b036040820151166040850152606081015160608501526001600160801b0360808201511660808501526001600160801b0360a08201511660a085015261ffff60c08201511660c085015201511515910152565b9190826040910312610394576020825192015190565b80518210156108e55760209160051b010190565b5f198114610c075760010190565b634e487b7160e01b5f52601160045260245ffd5b91908201809211610c0757565b8115610c32570490565b634e487b7160e01b5f52601260045260245ffd5b81810292918115918404141715610c075756fea26469706673582212205f7a1d9a2c3a234a4362e82d47568a641089035314e29d94f8a26d453e5d258264736f6c634300081e0033","opcodes":"PUSH1 0xE0 CALLVALUE PUSH2 0xB7 JUMPI PUSH1 0x1F PUSH2 0xD73 CODESIZE DUP2 SWAP1 SUB SWAP2 DUP3 ADD PUSH1 0x1F NOT AND DUP4 ADD SWAP2 PUSH1 0x1 PUSH1 0x1 PUSH1 0x40 SHL SUB DUP4 GT DUP5 DUP5 LT OR PUSH2 0xBB JUMPI DUP1 DUP5 SWAP3 PUSH1 0x60 SWAP5 PUSH1 0x40 MSTORE DUP4 CODECOPY DUP2 ADD SUB SLT PUSH2 0xB7 JUMPI PUSH2 0x47 DUP2 PUSH2 0xCF JUMP JUMPDEST SWAP1 PUSH2 0x60 PUSH1 0x40 PUSH2 0x59 PUSH1 0x20 DUP5 ADD PUSH2 0xCF JUMP JUMPDEST SWAP3 ADD PUSH2 0xCF JUMP JUMPDEST PUSH1 0x1 PUSH1 0x1 PUSH1 0xA0 SHL SUB SWAP3 DUP4 AND PUSH1 0x80 MSTORE SWAP1 DUP3 AND PUSH1 0xA0 MSTORE AND PUSH1 0xC0 MSTORE PUSH1 0x40 MLOAD PUSH2 0xC8F SWAP1 DUP2 PUSH2 0xE4 DUP3 CODECOPY PUSH1 0x80 MLOAD DUP2 DUP2 DUP2 PUSH2 0x596 ADD MSTORE PUSH2 0x932 ADD MSTORE PUSH1 0xA0 MLOAD DUP2 DUP2 DUP2 PUSH2 0x42F ADD MSTORE PUSH2 0x5F3 ADD MSTORE PUSH1 0xC0 MLOAD DUP2 DUP2 DUP2 PUSH2 0x651 ADD MSTORE PUSH2 0x973 ADD MSTORE RETURN JUMPDEST PUSH0 DUP1 REVERT JUMPDEST PUSH4 0x4E487B71 PUSH1 0xE0 SHL PUSH0 MSTORE PUSH1 0x41 PUSH1 0x4 MSTORE PUSH1 0x24 PUSH0 REVERT JUMPDEST MLOAD SWAP1 PUSH1 0x1 PUSH1 0x1 PUSH1 0xA0 SHL SUB DUP3 AND DUP3 SUB PUSH2 0xB7 JUMPI JUMP INVALID PUSH1 0x80 DUP1 PUSH1 0x40 MSTORE PUSH1 0x4 CALLDATASIZE LT ISZERO PUSH2 0x12 JUMPI PUSH0 DUP1 REVERT JUMPDEST PUSH0 CALLDATALOAD PUSH1 0xE0 SHR SWAP1 DUP2 PUSH4 0x3414C2A9 EQ PUSH2 0x961 JUMPI POP DUP1 PUSH4 0x380CC26C EQ PUSH2 0x91D JUMPI DUP1 PUSH4 0x5E3344D0 EQ PUSH2 0x45E JUMPI DUP1 PUSH4 0x7A65D3A1 EQ PUSH2 0x41A JUMPI PUSH4 0xDB90D100 EQ PUSH2 0x53 JUMPI PUSH0 DUP1 REVERT JUMPDEST CALLVALUE PUSH2 0x394 JUMPI PUSH1 0x40 CALLDATASIZE PUSH1 0x3 NOT ADD SLT PUSH2 0x394 JUMPI PUSH1 0x4 CALLDATALOAD PUSH8 0xFFFFFFFFFFFFFFFF DUP2 GT PUSH2 0x394 JUMPI PUSH2 0x100 PUSH1 0x3 NOT DUP3 CALLDATASIZE SUB ADD SLT PUSH2 0x394 JUMPI PUSH1 0x40 MLOAD SWAP1 PUSH2 0x92 DUP3 PUSH2 0x9A2 JUMP JUMPDEST PUSH2 0x9E DUP2 PUSH1 0x4 ADD PUSH2 0x9F5 JUMP JUMPDEST DUP3 MSTORE PUSH2 0xAC PUSH1 0x24 DUP3 ADD PUSH2 0x9F5 JUMP JUMPDEST SWAP2 PUSH1 0x20 DUP2 ADD SWAP3 DUP4 MSTORE PUSH2 0xC0 PUSH1 0x44 DUP4 ADD PUSH2 0x9F5 JUMP JUMPDEST PUSH1 0x40 DUP3 ADD SWAP1 DUP2 MSTORE PUSH1 0x64 DUP4 ADD CALLDATALOAD PUSH8 0xFFFFFFFFFFFFFFFF DUP2 GT PUSH2 0x394 JUMPI DUP4 ADD SWAP3 CALLDATASIZE PUSH1 0x23 DUP6 ADD SLT ISZERO PUSH2 0x394 JUMPI PUSH1 0x4 DUP5 ADD CALLDATALOAD SWAP4 PUSH2 0xF8 DUP6 PUSH2 0xA6B JUMP JUMPDEST SWAP5 PUSH2 0x106 PUSH1 0x40 MLOAD SWAP7 DUP8 PUSH2 0x9D3 JUMP JUMPDEST DUP1 DUP7 MSTORE PUSH1 0x20 PUSH1 0x4 DUP2 DUP9 ADD SWAP3 PUSH1 0x5 SHL DUP5 ADD ADD ADD SWAP2 CALLDATASIZE DUP4 GT PUSH2 0x394 JUMPI PUSH1 0x24 ADD SWAP1 JUMPDEST DUP3 DUP3 LT PUSH2 0x40A JUMPI POP POP POP PUSH1 0x60 DUP4 ADD SWAP4 DUP5 MSTORE PUSH1 0x84 DUP2 ADD CALLDATALOAD PUSH8 0xFFFFFFFFFFFFFFFF DUP2 GT PUSH2 0x394 JUMPI PUSH2 0x15A SWAP1 PUSH1 0x4 CALLDATASIZE SWAP2 DUP5 ADD ADD PUSH2 0xA83 JUMP JUMPDEST SWAP1 PUSH1 0x80 DUP5 ADD SWAP2 DUP3 MSTORE PUSH1 0xA4 DUP2 ADD CALLDATALOAD PUSH8 0xFFFFFFFFFFFFFFFF DUP2 GT PUSH2 0x394 JUMPI PUSH2 0x186 SWAP1 PUSH1 0x4 CALLDATASIZE SWAP2 DUP5 ADD ADD PUSH2 0xA83 JUMP JUMPDEST PUSH1 0xA0 DUP6 ADD SWAP1 DUP2 MSTORE PUSH1 0xC4 DUP3 ADD CALLDATALOAD PUSH8 0xFFFFFFFFFFFFFFFF DUP2 GT PUSH2 0x394 JUMPI DUP3 ADD SWAP2 CALLDATASIZE PUSH1 0x23 DUP5 ADD SLT ISZERO PUSH2 0x394 JUMPI PUSH1 0x4 DUP4 ADD CALLDATALOAD PUSH2 0x1BD DUP2 PUSH2 0xA6B JUMP JUMPDEST SWAP4 PUSH2 0x1CB PUSH1 0x40 MLOAD SWAP6 DUP7 PUSH2 0x9D3 JUMP JUMPDEST DUP2 DUP6 MSTORE PUSH1 0x20 PUSH1 0x4 DUP2 DUP8 ADD SWAP4 PUSH1 0x5 SHL DUP4 ADD ADD ADD SWAP1 CALLDATASIZE DUP3 GT PUSH2 0x394 JUMPI PUSH1 0x24 ADD SWAP2 JUMPDEST DUP2 DUP4 LT PUSH2 0x3EF JUMPI POP POP POP PUSH1 0xC0 DUP7 ADD SWAP3 DUP4 MSTORE PUSH1 0xE4 ADD CALLDATALOAD SWAP3 DUP4 ISZERO ISZERO DUP5 SUB PUSH2 0x394 JUMPI PUSH1 0xE0 DUP7 ADD SWAP4 DUP5 MSTORE PUSH1 0x24 CALLDATALOAD PUSH8 0xFFFFFFFFFFFFFFFF DUP2 GT PUSH2 0x394 JUMPI PUSH2 0x230 SWAP1 CALLDATASIZE SWAP1 PUSH1 0x4 ADD PUSH2 0xA25 JUMP JUMPDEST POP DUP7 MLOAD MLOAD SWAP6 PUSH2 0x257 PUSH2 0x241 DUP9 PUSH2 0xA6B JUMP JUMPDEST SWAP8 PUSH2 0x24F PUSH1 0x40 MLOAD SWAP10 DUP11 PUSH2 0x9D3 JUMP JUMPDEST DUP1 DUP10 MSTORE PUSH2 0xA6B JUMP JUMPDEST PUSH1 0x20 DUP9 ADD SWAP2 SWAP1 PUSH1 0x1F NOT ADD CALLDATASIZE DUP4 CALLDATACOPY PUSH0 JUMPDEST DUP10 MLOAD SWAP1 DUP2 MLOAD DUP2 LT ISZERO PUSH2 0x3AB JUMPI DUP3 MLOAD DUP13 MLOAD DUP11 MLOAD PUSH1 0x1 PUSH1 0x1 PUSH1 0xA0 SHL SUB SWAP3 DUP4 AND SWAP5 SWAP2 DUP4 AND SWAP3 AND SWAP1 PUSH2 0x295 SWAP1 DUP5 SWAP1 PUSH2 0xBE5 JUMP JUMPDEST MLOAD DUP4 DUP9 MLOAD SWAP1 PUSH2 0x2A3 SWAP2 PUSH2 0xBE5 JUMP JUMPDEST MLOAD PUSH1 0x1 PUSH1 0x1 PUSH1 0x80 SHL SUB AND DUP5 DUP11 MLOAD SWAP1 PUSH2 0x2BA SWAP2 PUSH2 0xBE5 JUMP JUMPDEST MLOAD PUSH1 0x1 PUSH1 0x1 PUSH1 0x80 SHL SUB AND SWAP2 DUP6 DUP13 MLOAD SWAP1 PUSH2 0x2D2 SWAP2 PUSH2 0xBE5 JUMP JUMPDEST MLOAD PUSH2 0xFFFF AND SWAP4 DUP14 MLOAD ISZERO ISZERO SWAP6 PUSH1 0x40 MLOAD SWAP9 PUSH2 0x2EA DUP11 PUSH2 0x9A2 JUMP JUMPDEST DUP10 MSTORE PUSH1 0x20 DUP10 ADD MSTORE PUSH1 0x40 DUP9 ADD MSTORE PUSH1 0x60 DUP8 ADD MSTORE PUSH1 0x80 DUP7 ADD MSTORE PUSH1 0xA0 DUP6 ADD MSTORE PUSH1 0xC0 DUP5 ADD MSTORE PUSH1 0xE0 DUP4 ADD MSTORE PUSH1 0x40 MLOAD SWAP2 PUSH4 0x5E3344D PUSH1 0xE4 SHL DUP4 MSTORE PUSH1 0x4 DUP4 ADD PUSH2 0x32A SWAP2 PUSH2 0xB54 JUMP JUMPDEST PUSH2 0x120 PUSH2 0x104 DUP4 ADD MSTORE PUSH0 PUSH2 0x124 DUP4 ADD MSTORE DUP2 DUP1 ADDRESS GAS SWAP3 PUSH0 PUSH2 0x144 SWAP3 PUSH1 0x20 SWAP6 CALL DUP1 ISZERO PUSH2 0x3A0 JUMPI PUSH0 SWAP1 PUSH2 0x36A JUMPI JUMPDEST PUSH1 0x1 SWAP3 POP PUSH2 0x363 DUP3 DUP13 PUSH2 0xBE5 JUMP JUMPDEST MSTORE ADD PUSH2 0x266 JUMP JUMPDEST POP PUSH1 0x20 DUP3 RETURNDATASIZE DUP3 GT PUSH2 0x398 JUMPI JUMPDEST DUP2 PUSH2 0x383 PUSH1 0x20 SWAP4 DUP4 PUSH2 0x9D3 JUMP JUMPDEST DUP2 ADD SUB SLT PUSH2 0x394 JUMPI PUSH1 0x1 SWAP2 MLOAD PUSH2 0x355 JUMP JUMPDEST PUSH0 DUP1 REVERT JUMPDEST RETURNDATASIZE SWAP2 POP PUSH2 0x376 JUMP JUMPDEST PUSH1 0x40 MLOAD RETURNDATASIZE PUSH0 DUP3 RETURNDATACOPY RETURNDATASIZE SWAP1 REVERT JUMPDEST DUP4 DUP11 PUSH1 0x40 MLOAD SWAP2 DUP3 SWAP2 PUSH1 0x20 DUP4 ADD SWAP1 PUSH1 0x20 DUP5 MSTORE MLOAD DUP1 SWAP2 MSTORE PUSH1 0x40 DUP4 ADD SWAP2 SWAP1 PUSH0 JUMPDEST DUP2 DUP2 LT PUSH2 0x3D6 JUMPI POP POP POP SUB SWAP1 RETURN JUMPDEST DUP3 MLOAD DUP5 MSTORE DUP6 SWAP5 POP PUSH1 0x20 SWAP4 DUP5 ADD SWAP4 SWAP1 SWAP3 ADD SWAP2 PUSH1 0x1 ADD PUSH2 0x3C8 JUMP JUMPDEST DUP3 CALLDATALOAD PUSH2 0xFFFF DUP2 AND DUP2 SUB PUSH2 0x394 JUMPI DUP2 MSTORE PUSH1 0x20 SWAP3 DUP4 ADD SWAP3 ADD PUSH2 0x1EA JUMP JUMPDEST DUP2 CALLDATALOAD DUP2 MSTORE PUSH1 0x20 SWAP2 DUP3 ADD SWAP2 ADD PUSH2 0x125 JUMP JUMPDEST CALLVALUE PUSH2 0x394 JUMPI PUSH0 CALLDATASIZE PUSH1 0x3 NOT ADD SLT PUSH2 0x394 JUMPI PUSH1 0x40 MLOAD PUSH32 0x0 PUSH1 0x1 PUSH1 0x1 PUSH1 0xA0 SHL SUB AND DUP2 MSTORE PUSH1 0x20 SWAP1 RETURN JUMPDEST CALLVALUE PUSH2 0x394 JUMPI CALLDATASIZE PUSH1 0x3 NOT ADD PUSH2 0x120 DUP2 SLT PUSH2 0x394 JUMPI PUSH2 0x100 SGT PUSH2 0x394 JUMPI PUSH1 0x40 MLOAD PUSH2 0x485 DUP2 PUSH2 0x9A2 JUMP JUMPDEST PUSH1 0x4 CALLDATALOAD PUSH1 0x1 PUSH1 0x1 PUSH1 0xA0 SHL SUB DUP2 AND DUP2 SUB PUSH2 0x394 JUMPI DUP2 MSTORE PUSH1 0x24 CALLDATALOAD PUSH1 0x1 PUSH1 0x1 PUSH1 0xA0 SHL SUB DUP2 AND DUP2 SUB PUSH2 0x394 JUMPI PUSH1 0x20 DUP3 ADD MSTORE PUSH1 0x44 CALLDATALOAD PUSH1 0x1 PUSH1 0x1 PUSH1 0xA0 SHL SUB DUP2 AND DUP2 SUB PUSH2 0x394 JUMPI PUSH1 0x40 DUP3 ADD MSTORE PUSH1 0x60 DUP2 ADD SWAP1 PUSH1 0x64 CALLDATALOAD DUP3 MSTORE PUSH1 0x84 CALLDATALOAD SWAP2 PUSH1 0x1 PUSH1 0x1 PUSH1 0x80 SHL SUB DUP4 AND DUP4 SUB PUSH2 0x394 JUMPI PUSH1 0x80 DUP3 ADD SWAP3 DUP4 MSTORE PUSH1 0xA4 CALLDATALOAD SWAP2 PUSH1 0x1 PUSH1 0x1 PUSH1 0x80 SHL SUB DUP4 AND DUP4 SUB PUSH2 0x394 JUMPI PUSH1 0xA0 DUP2 ADD SWAP3 DUP4 MSTORE PUSH1 0xC4 CALLDATALOAD PUSH2 0xFFFF DUP2 AND DUP2 SUB PUSH2 0x394 JUMPI PUSH1 0xC0 DUP3 ADD MSTORE PUSH1 0xE4 CALLDATALOAD SWAP2 DUP3 ISZERO ISZERO DUP4 SUB PUSH2 0x394 JUMPI PUSH1 0xE0 DUP3 ADD SWAP3 DUP4 MSTORE PUSH2 0x104 CALLDATALOAD PUSH8 0xFFFFFFFFFFFFFFFF DUP2 GT PUSH2 0x394 JUMPI PUSH2 0x552 SWAP1 CALLDATASIZE SWAP1 PUSH1 0x4 ADD PUSH2 0xA25 JUMP JUMPDEST POP PUSH1 0x40 MLOAD SWAP5 PUSH2 0x562 PUSH1 0x80 DUP8 PUSH2 0x9D3 JUMP JUMPDEST PUSH1 0x3 DUP7 MSTORE PUSH1 0x20 DUP7 ADD SWAP3 PUSH1 0x60 CALLDATASIZE DUP6 CALLDATACOPY PUSH1 0x40 MLOAD PUSH4 0x3BD1104B PUSH1 0xE0 SHL DUP2 MSTORE PUSH0 SWAP5 SWAP1 PUSH2 0x58D PUSH1 0x4 DUP3 ADD DUP5 PUSH2 0xB54 JUMP JUMPDEST PUSH0 DUP2 PUSH2 0x104 DUP2 DUP4 PUSH32 0x0 PUSH1 0x1 PUSH1 0x1 PUSH1 0xA0 SHL SUB AND GAS CALL PUSH0 SWAP2 DUP2 PUSH2 0x901 JUMPI JUMPDEST POP PUSH2 0x8B3 JUMPI JUMPDEST POP POP PUSH1 0x40 MLOAD PUSH4 0x3BD1104B PUSH1 0xE0 SHL DUP2 MSTORE PUSH2 0x5EA PUSH1 0x4 DUP3 ADD DUP4 PUSH2 0xB54 JUMP JUMPDEST PUSH0 DUP2 PUSH2 0x104 DUP2 DUP4 PUSH32 0x0 PUSH1 0x1 PUSH1 0x1 PUSH1 0xA0 SHL SUB AND GAS CALL PUSH0 SWAP2 DUP2 PUSH2 0x897 JUMPI JUMPDEST POP PUSH2 0x86D JUMPI JUMPDEST POP PUSH1 0x40 MLOAD PUSH4 0x3BD1104B PUSH1 0xE0 SHL DUP2 MSTORE SWAP1 PUSH2 0x648 SWAP1 PUSH1 0x4 DUP4 ADD SWAP1 PUSH2 0xB54 JUMP JUMPDEST PUSH0 DUP2 PUSH2 0x104 DUP2 DUP4 PUSH32 0x0 PUSH1 0x1 PUSH1 0x1 PUSH1 0xA0 SHL SUB AND GAS CALL PUSH0 SWAP2 DUP2 PUSH2 0x849 JUMPI JUMPDEST POP PUSH2 0x80A JUMPI JUMPDEST POP DUP3 ISZERO SWAP5 DUP6 ISZERO SWAP6 PUSH2 0x7C5 JUMPI PUSH0 SWAP7 PUSH0 JUMPDEST DUP6 DUP2 LT PUSH2 0x7A4 JUMPI POP POP PUSH2 0x3E8 SWAP5 DUP5 PUSH1 0x20 SWAP8 SWAP5 DUP8 SWAP5 PUSH2 0x71B SWAP5 PUSH2 0x6BD PUSH2 0x721 SWAP10 DUP14 PUSH2 0xC28 JUMP JUMPDEST SWAP5 MLOAD ISZERO PUSH2 0x77E JUMPI DUP3 PUSH1 0x1 PUSH1 0x1 PUSH1 0x80 SHL SUB PUSH2 0x6E3 PUSH2 0x6EE SWAP4 DUP3 PUSH2 0x6F4 SWAP8 MLOAD SWAP2 MLOAD AND SWAP1 PUSH2 0xC46 JUMP JUMPDEST SWAP4 MLOAD AND SWAP1 MLOAD SWAP1 PUSH2 0xC1B JUMP JUMPDEST SWAP1 PUSH2 0xC28 JUMP JUMPDEST SWAP5 JUMPDEST DUP5 SWAP3 DUP2 PUSH2 0x774 JUMPI JUMPDEST POP PUSH2 0x747 JUMPI JUMPDEST PUSH1 0x3 DUP2 LT PUSH2 0x72A JUMPI POP PUSH2 0xFFFF PUSH2 0x3E6 JUMPDEST AND SWAP4 PUSH2 0xC46 JUMP JUMPDEST DIV PUSH2 0xC46 JUMP JUMPDEST DIV PUSH1 0x40 MLOAD SWAP1 DUP2 MSTORE RETURN JUMPDEST PUSH1 0x2 SUB PUSH2 0x73C JUMPI PUSH2 0xFFFF PUSH2 0x3E4 PUSH2 0x714 JUMP JUMPDEST PUSH2 0xFFFF PUSH2 0x3E2 PUSH2 0x714 JUMP JUMPDEST SWAP1 POP PUSH1 0x3 DUP2 LT PUSH2 0x75A JUMPI PUSH2 0x406 SWAP1 PUSH2 0x704 JUMP JUMPDEST PUSH1 0x2 DUP2 SUB PUSH2 0x76B JUMPI PUSH2 0x3FC SWAP1 PUSH2 0x704 JUMP JUMPDEST PUSH2 0x3F2 SWAP1 PUSH2 0x704 JUMP JUMPDEST SWAP1 POP ISZERO ISZERO DUP10 PUSH2 0x6FE JUMP JUMPDEST SWAP1 DUP3 PUSH1 0x1 PUSH1 0x1 PUSH1 0x80 SHL SUB PUSH2 0x6E3 PUSH2 0x6EE SWAP4 DUP3 PUSH2 0x79E SWAP8 MLOAD SWAP2 MLOAD AND SWAP1 PUSH2 0xC46 JUMP JUMPDEST SWAP5 PUSH2 0x6F6 JUMP JUMPDEST SWAP1 SWAP8 PUSH2 0x7BD PUSH1 0x1 SWAP2 PUSH2 0x7B6 DUP5 DUP13 PUSH2 0xBE5 JUMP JUMPDEST MLOAD SWAP1 PUSH2 0xC1B JUMP JUMPDEST SWAP9 SWAP2 ADD PUSH2 0x698 JUMP JUMPDEST PUSH1 0x40 MLOAD PUSH3 0x461BCD PUSH1 0xE5 SHL DUP2 MSTORE PUSH1 0x20 PUSH1 0x4 DUP3 ADD MSTORE PUSH1 0x17 PUSH1 0x24 DUP3 ADD MSTORE PUSH32 0x4E6F207072696365206461746120617661696C61626C65000000000000000000 PUSH1 0x44 DUP3 ADD MSTORE PUSH1 0x64 SWAP1 REVERT JUMPDEST SWAP3 PUSH2 0x822 DUP5 PUSH1 0x20 DUP1 PUSH2 0x83B SWAP6 SWAP8 MLOAD DUP4 ADD ADD SWAP2 ADD PUSH2 0xBCF JUMP JUMPDEST SWAP1 DUP2 ISZERO PUSH2 0x842 JUMPI POP JUMPDEST PUSH2 0x835 DUP3 DUP10 PUSH2 0xBE5 JUMP JUMPDEST MSTORE PUSH2 0xBF9 JUMP JUMPDEST SWAP2 DUP7 PUSH2 0x689 JUMP JUMPDEST SWAP1 POP PUSH2 0x82B JUMP JUMPDEST PUSH2 0x866 SWAP2 SWAP3 POP RETURNDATASIZE DUP1 PUSH0 DUP4 RETURNDATACOPY PUSH2 0x85E DUP2 DUP4 PUSH2 0x9D3 JUMP JUMPDEST DUP2 ADD SWAP1 PUSH2 0xAF1 JUMP JUMPDEST SWAP1 DUP9 PUSH2 0x683 JUMP JUMPDEST SWAP4 PUSH2 0x885 DUP6 PUSH1 0x20 DUP1 PUSH2 0x890 SWAP6 SWAP9 MLOAD DUP4 ADD ADD SWAP2 ADD PUSH2 0xBCF JUMP JUMPDEST POP PUSH2 0x835 DUP3 DUP11 PUSH2 0xBE5 JUMP JUMPDEST SWAP3 DUP8 PUSH2 0x62B JUMP JUMPDEST PUSH2 0x8AC SWAP2 SWAP3 POP RETURNDATASIZE DUP1 PUSH0 DUP4 RETURNDATACOPY PUSH2 0x85E DUP2 DUP4 PUSH2 0x9D3 JUMP JUMPDEST SWAP1 DUP10 PUSH2 0x625 JUMP JUMPDEST PUSH2 0x8C9 SWAP2 SWAP3 SWAP6 POP PUSH1 0x20 DUP1 DUP3 MLOAD DUP4 ADD ADD SWAP2 ADD PUSH2 0xBCF JUMP JUMPDEST SWAP1 DUP2 ISZERO PUSH2 0x8F9 JUMPI POP SWAP1 JUMPDEST DUP8 MLOAD ISZERO PUSH2 0x8E5 JUMPI MSTORE PUSH1 0x1 SWAP3 DUP8 DUP1 PUSH2 0x5CE JUMP JUMPDEST PUSH4 0x4E487B71 PUSH1 0xE0 SHL PUSH0 MSTORE PUSH1 0x32 PUSH1 0x4 MSTORE PUSH1 0x24 PUSH0 REVERT JUMPDEST SWAP1 POP SWAP1 PUSH2 0x8D3 JUMP JUMPDEST PUSH2 0x916 SWAP2 SWAP3 POP RETURNDATASIZE DUP1 PUSH0 DUP4 RETURNDATACOPY PUSH2 0x85E DUP2 DUP4 PUSH2 0x9D3 JUMP JUMPDEST SWAP1 DUP11 PUSH2 0x5C8 JUMP JUMPDEST CALLVALUE PUSH2 0x394 JUMPI PUSH0 CALLDATASIZE PUSH1 0x3 NOT ADD SLT PUSH2 0x394 JUMPI PUSH1 0x40 MLOAD PUSH32 0x0 PUSH1 0x1 PUSH1 0x1 PUSH1 0xA0 SHL SUB AND DUP2 MSTORE PUSH1 0x20 SWAP1 RETURN JUMPDEST CALLVALUE PUSH2 0x394 JUMPI PUSH0 CALLDATASIZE PUSH1 0x3 NOT ADD SLT PUSH2 0x394 JUMPI PUSH32 0x0 PUSH1 0x1 PUSH1 0x1 PUSH1 0xA0 SHL SUB AND DUP2 MSTORE PUSH1 0x20 SWAP1 RETURN JUMPDEST PUSH2 0x100 DUP2 ADD SWAP1 DUP2 LT PUSH8 0xFFFFFFFFFFFFFFFF DUP3 GT OR PUSH2 0x9BF JUMPI PUSH1 0x40 MSTORE JUMP JUMPDEST PUSH4 0x4E487B71 PUSH1 0xE0 SHL PUSH0 MSTORE PUSH1 0x41 PUSH1 0x4 MSTORE PUSH1 0x24 PUSH0 REVERT JUMPDEST SWAP1 PUSH1 0x1F DUP1 NOT SWAP2 ADD AND DUP2 ADD SWAP1 DUP2 LT PUSH8 0xFFFFFFFFFFFFFFFF DUP3 GT OR PUSH2 0x9BF JUMPI PUSH1 0x40 MSTORE JUMP JUMPDEST CALLDATALOAD SWAP1 PUSH1 0x1 PUSH1 0x1 PUSH1 0xA0 SHL SUB DUP3 AND DUP3 SUB PUSH2 0x394 JUMPI JUMP JUMPDEST PUSH8 0xFFFFFFFFFFFFFFFF DUP2 GT PUSH2 0x9BF JUMPI PUSH1 0x1F ADD PUSH1 0x1F NOT AND PUSH1 0x20 ADD SWAP1 JUMP JUMPDEST DUP2 PUSH1 0x1F DUP3 ADD SLT ISZERO PUSH2 0x394 JUMPI DUP1 CALLDATALOAD SWAP1 PUSH2 0xA3C DUP3 PUSH2 0xA09 JUMP JUMPDEST SWAP3 PUSH2 0xA4A PUSH1 0x40 MLOAD SWAP5 DUP6 PUSH2 0x9D3 JUMP JUMPDEST DUP3 DUP5 MSTORE PUSH1 0x20 DUP4 DUP4 ADD ADD GT PUSH2 0x394 JUMPI DUP2 PUSH0 SWAP3 PUSH1 0x20 DUP1 SWAP4 ADD DUP4 DUP7 ADD CALLDATACOPY DUP4 ADD ADD MSTORE SWAP1 JUMP JUMPDEST PUSH8 0xFFFFFFFFFFFFFFFF DUP2 GT PUSH2 0x9BF JUMPI PUSH1 0x5 SHL PUSH1 0x20 ADD SWAP1 JUMP JUMPDEST SWAP1 DUP1 PUSH1 0x1F DUP4 ADD SLT ISZERO PUSH2 0x394 JUMPI DUP2 CALLDATALOAD SWAP1 PUSH2 0xA9B DUP3 PUSH2 0xA6B JUMP JUMPDEST SWAP3 PUSH2 0xAA9 PUSH1 0x40 MLOAD SWAP5 DUP6 PUSH2 0x9D3 JUMP JUMPDEST DUP3 DUP5 MSTORE PUSH1 0x20 DUP1 DUP6 ADD SWAP4 PUSH1 0x5 SHL DUP3 ADD ADD SWAP2 DUP3 GT PUSH2 0x394 JUMPI PUSH1 0x20 ADD SWAP2 JUMPDEST DUP2 DUP4 LT PUSH2 0xAD1 JUMPI POP POP POP SWAP1 JUMP JUMPDEST DUP3 CALLDATALOAD PUSH1 0x1 PUSH1 0x1 PUSH1 0x80 SHL SUB DUP2 AND DUP2 SUB PUSH2 0x394 JUMPI DUP2 MSTORE PUSH1 0x20 SWAP3 DUP4 ADD SWAP3 ADD PUSH2 0xAC4 JUMP JUMPDEST PUSH1 0x20 DUP2 DUP4 SUB SLT PUSH2 0x394 JUMPI DUP1 MLOAD SWAP1 PUSH8 0xFFFFFFFFFFFFFFFF DUP3 GT PUSH2 0x394 JUMPI ADD DUP2 PUSH1 0x1F DUP3 ADD SLT ISZERO PUSH2 0x394 JUMPI DUP1 MLOAD SWAP1 PUSH2 0xB25 DUP3 PUSH2 0xA09 JUMP JUMPDEST SWAP3 PUSH2 0xB33 PUSH1 0x40 MLOAD SWAP5 DUP6 PUSH2 0x9D3 JUMP JUMPDEST DUP3 DUP5 MSTORE PUSH1 0x20 DUP4 DUP4 ADD ADD GT PUSH2 0x394 JUMPI DUP2 PUSH0 SWAP3 PUSH1 0x20 DUP1 SWAP4 ADD DUP4 DUP7 ADD MCOPY DUP4 ADD ADD MSTORE SWAP1 JUMP JUMPDEST PUSH1 0xE0 DUP1 SWAP2 PUSH1 0x1 DUP1 PUSH1 0xA0 SHL SUB DUP2 MLOAD AND DUP5 MSTORE PUSH1 0x1 DUP1 PUSH1 0xA0 SHL SUB PUSH1 0x20 DUP3 ADD MLOAD AND PUSH1 0x20 DUP6 ADD MSTORE PUSH1 0x1 DUP1 PUSH1 0xA0 SHL SUB PUSH1 0x40 DUP3 ADD MLOAD AND PUSH1 0x40 DUP6 ADD MSTORE PUSH1 0x60 DUP2 ADD MLOAD PUSH1 0x60 DUP6 ADD MSTORE PUSH1 0x1 PUSH1 0x1 PUSH1 0x80 SHL SUB PUSH1 0x80 DUP3 ADD MLOAD AND PUSH1 0x80 DUP6 ADD MSTORE PUSH1 0x1 PUSH1 0x1 PUSH1 0x80 SHL SUB PUSH1 0xA0 DUP3 ADD MLOAD AND PUSH1 0xA0 DUP6 ADD MSTORE PUSH2 0xFFFF PUSH1 0xC0 DUP3 ADD MLOAD AND PUSH1 0xC0 DUP6 ADD MSTORE ADD MLOAD ISZERO ISZERO SWAP2 ADD MSTORE JUMP JUMPDEST SWAP2 SWAP1 DUP3 PUSH1 0x40 SWAP2 SUB SLT PUSH2 0x394 JUMPI PUSH1 0x20 DUP3 MLOAD SWAP3 ADD MLOAD SWAP1 JUMP JUMPDEST DUP1 MLOAD DUP3 LT ISZERO PUSH2 0x8E5 JUMPI PUSH1 0x20 SWAP2 PUSH1 0x5 SHL ADD ADD SWAP1 JUMP JUMPDEST PUSH0 NOT DUP2 EQ PUSH2 0xC07 JUMPI PUSH1 0x1 ADD SWAP1 JUMP JUMPDEST PUSH4 0x4E487B71 PUSH1 0xE0 SHL PUSH0 MSTORE PUSH1 0x11 PUSH1 0x4 MSTORE PUSH1 0x24 PUSH0 REVERT JUMPDEST SWAP2 SWAP1 DUP3 ADD DUP1 SWAP3 GT PUSH2 0xC07 JUMPI JUMP JUMPDEST DUP2 ISZERO PUSH2 0xC32 JUMPI DIV SWAP1 JUMP JUMPDEST PUSH4 0x4E487B71 PUSH1 0xE0 SHL PUSH0 MSTORE PUSH1 0x12 PUSH1 0x4 MSTORE PUSH1 0x24 PUSH0 REVERT JUMPDEST DUP2 DUP2 MUL SWAP3 SWAP2 DUP2 ISZERO SWAP2 DUP5 DIV EQ OR ISZERO PUSH2 0xC07 JUMPI JUMP INVALID LOG2 PUSH5 0x6970667358 0x22 SLT KECCAK256 PUSH0 PUSH27 0x1D9A2C3A234A4362E82D47568A641089035314E29D94F8A26D453E TSTORE 0x25 DUP3 PUSH5 0x736F6C6343 STOP ADDMOD 0x1E STOP CALLER "},"methodIdentifiers":{"quote((address,address,address,uint256,uint128,uint128,uint16,bool),bytes)":"5e3344d0","quoteBatch((address,address,address,uint256[],uint128[],uint128[],uint16[],bool),bytes)":"db90d100","sushiV2Bridge()":"7a65d3a1","uniV2Bridge()":"380cc26c","v3twapBridge()":"3414c2a9"}}}}}