{"contracts/QuoteRequester.sol":{"QuoteRequester":{"abi":[{"inputs":[{"internalType":"address","name":"_defaultAlpha","type":"address"},{"internalType":"address","name":"_defaultBeta","type":"address"}],"stateMutability":"nonpayable","type":"constructor"},{"inputs":[{"internalType":"uint8","name":"pointer","type":"uint8"},{"internalType":"address","name":"alphaAddress","type":"address"}],"name":"addAlphaMarketAddress","outputs":[],"stateMutability":"nonpayable","type":"function"},{"inputs":[{"internalType":"uint8","name":"pointer","type":"uint8"},{"internalType":"address","name":"betaAddress","type":"address"}],"name":"addBetaMarketAddress","outputs":[],"stateMutability":"nonpayable","type":"function"},{"inputs":[],"name":"defaultAlpha","outputs":[{"internalType":"address","name":"","type":"address"}],"stateMutability":"view","type":"function"},{"inputs":[],"name":"defaultBeta","outputs":[{"internalType":"address","name":"","type":"address"}],"stateMutability":"view","type":"function"},{"inputs":[{"internalType":"address","name":"","type":"address"},{"internalType":"address","name":"","type":"address"},{"internalType":"uint128","name":"","type":"uint128"},{"internalType":"uint128","name":"","type":"uint128"}],"name":"dummyQuoter","outputs":[{"internalType":"uint256","name":"rate","type":"uint256"}],"stateMutability":"pure","type":"function"},{"inputs":[{"internalType":"uint8","name":"pointer","type":"uint8"}],"name":"getAlphaMarketAddress","outputs":[{"internalType":"address","name":"alphaAddress","type":"address"}],"stateMutability":"view","type":"function"},{"inputs":[{"internalType":"uint8","name":"pointer","type":"uint8"}],"name":"getBetaMarketAddress","outputs":[{"internalType":"address","name":"betaAddress","type":"address"}],"stateMutability":"view","type":"function"},{"inputs":[{"internalType":"uint8","name":"pointer","type":"uint8"}],"name":"removeAlphaMarketAddress","outputs":[],"stateMutability":"nonpayable","type":"function"},{"inputs":[{"internalType":"uint8","name":"pointer","type":"uint8"}],"name":"removeBetaMarketAddress","outputs":[],"stateMutability":"nonpayable","type":"function"}],"evm":{"bytecode":{"linkReferences":{},"object":"60c0604052348015600e575f5ffd5b5060405161055d38038061055d833981016040819052602b91605b565b6001600160a01b039182166080521660a0526087565b80516001600160a01b03811681146056575f5ffd5b919050565b5f5f60408385031215606b575f5ffd5b6072836041565b9150607e602084016041565b90509250929050565b60805160a0516104b66100a75f395f609901525f61016b01526104b65ff3fe608060405234801561000f575f5ffd5b5060043610610090575f3560e01c806383e66c2e1161006357806383e66c2e146101135780638785bec0146101265780638e832e0814610153578063a1a44dad14610166578063d2615fc81461018d575f5ffd5b806319920a5f14610094578063460c6df8146100d857806361408f26146100ed5780637dc27c9514610100575b5f5ffd5b6100bb7f000000000000000000000000000000000000000000000000000000000000000081565b6040516001600160a01b0390911681526020015b60405180910390f35b6100eb6100e6366004610388565b6101a0565b005b6100eb6100fb3660046103b9565b6101fe565b6100eb61010e366004610388565b610241565b6100bb6101213660046103b9565b610296565b6101456101343660046103f8565b5067120a871cc00200009392505050565b6040519081526020016100cf565b6100eb6101613660046103b9565b6102d8565b6100bb7f000000000000000000000000000000000000000000000000000000000000000081565b6100bb61019b3660046103b9565b61031b565b60108260ff16106101cc5760405162461bcd60e51b81526004016101c390610449565b60405180910390fd5b60ff919091165f90815260208190526040902080546001600160a01b0319166001600160a01b03909216919091179055565b60108160ff16106102215760405162461bcd60e51b81526004016101c390610449565b60ff165f90815260016020526040902080546001600160a01b0319169055565b60108260ff16106102645760405162461bcd60e51b81526004016101c390610449565b60ff919091165f90815260016020526040902080546001600160a01b0319166001600160a01b03909216919091179055565b5f60108260ff16106102ba5760405162461bcd60e51b81526004016101c390610449565b5060ff165f908152600160205260409020546001600160a01b031690565b60108160ff16106102fb5760405162461bcd60e51b81526004016101c390610449565b60ff165f90815260208190526040902080546001600160a01b0319169055565b5f60108260ff161061033f5760405162461bcd60e51b81526004016101c390610449565b5060ff165f908152602081905260409020546001600160a01b031690565b803560ff8116811461036d575f5ffd5b919050565b80356001600160a01b038116811461036d575f5ffd5b5f5f60408385031215610399575f5ffd5b6103a28361035d565b91506103b060208401610372565b90509250929050565b5f602082840312156103c9575f5ffd5b6103d28261035d565b9392505050565b80356fffffffffffffffffffffffffffffffff8116811461036d575f5ffd5b5f5f5f5f6080858703121561040b575f5ffd5b61041485610372565b935061042260208601610372565b9250610430604086016103d9565b915061043e606086016103d9565b905092959194509250565b6020808252601d908201527f496e76616c696420706f696e7465723a206d75737420626520302d313500000060408201526060019056fea264697066735822122080541a390b1732fc90dadcc77f54c5b54fa424a4ecafbaa78da197c31beb7b5164736f6c634300081e0033","opcodes":"PUSH1 0xC0 PUSH1 0x40 MSTORE CALLVALUE DUP1 ISZERO PUSH1 0xE JUMPI PUSH0 PUSH0 REVERT JUMPDEST POP PUSH1 0x40 MLOAD PUSH2 0x55D CODESIZE SUB DUP1 PUSH2 0x55D DUP4 CODECOPY DUP2 ADD PUSH1 0x40 DUP2 SWAP1 MSTORE PUSH1 0x2B SWAP2 PUSH1 0x5B JUMP JUMPDEST PUSH1 0x1 PUSH1 0x1 PUSH1 0xA0 SHL SUB SWAP2 DUP3 AND PUSH1 0x80 MSTORE AND PUSH1 0xA0 MSTORE PUSH1 0x87 JUMP JUMPDEST DUP1 MLOAD PUSH1 0x1 PUSH1 0x1 PUSH1 0xA0 SHL SUB DUP2 AND DUP2 EQ PUSH1 0x56 JUMPI PUSH0 PUSH0 REVERT JUMPDEST SWAP2 SWAP1 POP JUMP JUMPDEST PUSH0 PUSH0 PUSH1 0x40 DUP4 DUP6 SUB SLT ISZERO PUSH1 0x6B JUMPI PUSH0 PUSH0 REVERT JUMPDEST PUSH1 0x72 DUP4 PUSH1 0x41 JUMP JUMPDEST SWAP2 POP PUSH1 0x7E PUSH1 0x20 DUP5 ADD PUSH1 0x41 JUMP JUMPDEST SWAP1 POP SWAP3 POP SWAP3 SWAP1 POP JUMP JUMPDEST PUSH1 0x80 MLOAD PUSH1 0xA0 MLOAD PUSH2 0x4B6 PUSH2 0xA7 PUSH0 CODECOPY PUSH0 PUSH1 0x99 ADD MSTORE PUSH0 PUSH2 0x16B ADD MSTORE PUSH2 0x4B6 PUSH0 RETURN INVALID PUSH1 0x80 PUSH1 0x40 MSTORE CALLVALUE DUP1 ISZERO PUSH2 0xF JUMPI PUSH0 PUSH0 REVERT JUMPDEST POP PUSH1 0x4 CALLDATASIZE LT PUSH2 0x90 JUMPI PUSH0 CALLDATALOAD PUSH1 0xE0 SHR DUP1 PUSH4 0x83E66C2E GT PUSH2 0x63 JUMPI DUP1 PUSH4 0x83E66C2E EQ PUSH2 0x113 JUMPI DUP1 PUSH4 0x8785BEC0 EQ PUSH2 0x126 JUMPI DUP1 PUSH4 0x8E832E08 EQ PUSH2 0x153 JUMPI DUP1 PUSH4 0xA1A44DAD EQ PUSH2 0x166 JUMPI DUP1 PUSH4 0xD2615FC8 EQ PUSH2 0x18D JUMPI PUSH0 PUSH0 REVERT JUMPDEST DUP1 PUSH4 0x19920A5F EQ PUSH2 0x94 JUMPI DUP1 PUSH4 0x460C6DF8 EQ PUSH2 0xD8 JUMPI DUP1 PUSH4 0x61408F26 EQ PUSH2 0xED JUMPI DUP1 PUSH4 0x7DC27C95 EQ PUSH2 0x100 JUMPI JUMPDEST PUSH0 PUSH0 REVERT JUMPDEST PUSH2 0xBB PUSH32 0x0 DUP2 JUMP JUMPDEST PUSH1 0x40 MLOAD PUSH1 0x1 PUSH1 0x1 PUSH1 0xA0 SHL SUB SWAP1 SWAP2 AND DUP2 MSTORE PUSH1 0x20 ADD JUMPDEST PUSH1 0x40 MLOAD DUP1 SWAP2 SUB SWAP1 RETURN JUMPDEST PUSH2 0xEB PUSH2 0xE6 CALLDATASIZE PUSH1 0x4 PUSH2 0x388 JUMP JUMPDEST PUSH2 0x1A0 JUMP JUMPDEST STOP JUMPDEST PUSH2 0xEB PUSH2 0xFB CALLDATASIZE PUSH1 0x4 PUSH2 0x3B9 JUMP JUMPDEST PUSH2 0x1FE JUMP JUMPDEST PUSH2 0xEB PUSH2 0x10E CALLDATASIZE PUSH1 0x4 PUSH2 0x388 JUMP JUMPDEST PUSH2 0x241 JUMP JUMPDEST PUSH2 0xBB PUSH2 0x121 CALLDATASIZE PUSH1 0x4 PUSH2 0x3B9 JUMP JUMPDEST PUSH2 0x296 JUMP JUMPDEST PUSH2 0x145 PUSH2 0x134 CALLDATASIZE PUSH1 0x4 PUSH2 0x3F8 JUMP JUMPDEST POP PUSH8 0x120A871CC0020000 SWAP4 SWAP3 POP POP POP JUMP JUMPDEST PUSH1 0x40 MLOAD SWAP1 DUP2 MSTORE PUSH1 0x20 ADD PUSH2 0xCF JUMP JUMPDEST PUSH2 0xEB PUSH2 0x161 CALLDATASIZE PUSH1 0x4 PUSH2 0x3B9 JUMP JUMPDEST PUSH2 0x2D8 JUMP JUMPDEST PUSH2 0xBB PUSH32 0x0 DUP2 JUMP JUMPDEST PUSH2 0xBB PUSH2 0x19B CALLDATASIZE PUSH1 0x4 PUSH2 0x3B9 JUMP JUMPDEST PUSH2 0x31B JUMP JUMPDEST PUSH1 0x10 DUP3 PUSH1 0xFF AND LT PUSH2 0x1CC JUMPI PUSH1 0x40 MLOAD PUSH3 0x461BCD PUSH1 0xE5 SHL DUP2 MSTORE PUSH1 0x4 ADD PUSH2 0x1C3 SWAP1 PUSH2 0x449 JUMP JUMPDEST PUSH1 0x40 MLOAD DUP1 SWAP2 SUB SWAP1 REVERT JUMPDEST PUSH1 0xFF SWAP2 SWAP1 SWAP2 AND PUSH0 SWAP1 DUP2 MSTORE PUSH1 0x20 DUP2 SWAP1 MSTORE PUSH1 0x40 SWAP1 KECCAK256 DUP1 SLOAD PUSH1 0x1 PUSH1 0x1 PUSH1 0xA0 SHL SUB NOT AND PUSH1 0x1 PUSH1 0x1 PUSH1 0xA0 SHL SUB SWAP1 SWAP3 AND SWAP2 SWAP1 SWAP2 OR SWAP1 SSTORE JUMP JUMPDEST PUSH1 0x10 DUP2 PUSH1 0xFF AND LT PUSH2 0x221 JUMPI PUSH1 0x40 MLOAD PUSH3 0x461BCD PUSH1 0xE5 SHL DUP2 MSTORE PUSH1 0x4 ADD PUSH2 0x1C3 SWAP1 PUSH2 0x449 JUMP JUMPDEST PUSH1 0xFF AND PUSH0 SWAP1 DUP2 MSTORE PUSH1 0x1 PUSH1 0x20 MSTORE PUSH1 0x40 SWAP1 KECCAK256 DUP1 SLOAD PUSH1 0x1 PUSH1 0x1 PUSH1 0xA0 SHL SUB NOT AND SWAP1 SSTORE JUMP JUMPDEST PUSH1 0x10 DUP3 PUSH1 0xFF AND LT PUSH2 0x264 JUMPI PUSH1 0x40 MLOAD PUSH3 0x461BCD PUSH1 0xE5 SHL DUP2 MSTORE PUSH1 0x4 ADD PUSH2 0x1C3 SWAP1 PUSH2 0x449 JUMP JUMPDEST PUSH1 0xFF SWAP2 SWAP1 SWAP2 AND PUSH0 SWAP1 DUP2 MSTORE PUSH1 0x1 PUSH1 0x20 MSTORE PUSH1 0x40 SWAP1 KECCAK256 DUP1 SLOAD PUSH1 0x1 PUSH1 0x1 PUSH1 0xA0 SHL SUB NOT AND PUSH1 0x1 PUSH1 0x1 PUSH1 0xA0 SHL SUB SWAP1 SWAP3 AND SWAP2 SWAP1 SWAP2 OR SWAP1 SSTORE JUMP JUMPDEST PUSH0 PUSH1 0x10 DUP3 PUSH1 0xFF AND LT PUSH2 0x2BA JUMPI PUSH1 0x40 MLOAD PUSH3 0x461BCD PUSH1 0xE5 SHL DUP2 MSTORE PUSH1 0x4 ADD PUSH2 0x1C3 SWAP1 PUSH2 0x449 JUMP JUMPDEST POP PUSH1 0xFF AND PUSH0 SWAP1 DUP2 MSTORE PUSH1 0x1 PUSH1 0x20 MSTORE PUSH1 0x40 SWAP1 KECCAK256 SLOAD PUSH1 0x1 PUSH1 0x1 PUSH1 0xA0 SHL SUB AND SWAP1 JUMP JUMPDEST PUSH1 0x10 DUP2 PUSH1 0xFF AND LT PUSH2 0x2FB JUMPI PUSH1 0x40 MLOAD PUSH3 0x461BCD PUSH1 0xE5 SHL DUP2 MSTORE PUSH1 0x4 ADD PUSH2 0x1C3 SWAP1 PUSH2 0x449 JUMP JUMPDEST PUSH1 0xFF AND PUSH0 SWAP1 DUP2 MSTORE PUSH1 0x20 DUP2 SWAP1 MSTORE PUSH1 0x40 SWAP1 KECCAK256 DUP1 SLOAD PUSH1 0x1 PUSH1 0x1 PUSH1 0xA0 SHL SUB NOT AND SWAP1 SSTORE JUMP JUMPDEST PUSH0 PUSH1 0x10 DUP3 PUSH1 0xFF AND LT PUSH2 0x33F JUMPI PUSH1 0x40 MLOAD PUSH3 0x461BCD PUSH1 0xE5 SHL DUP2 MSTORE PUSH1 0x4 ADD PUSH2 0x1C3 SWAP1 PUSH2 0x449 JUMP JUMPDEST POP PUSH1 0xFF AND PUSH0 SWAP1 DUP2 MSTORE PUSH1 0x20 DUP2 SWAP1 MSTORE PUSH1 0x40 SWAP1 KECCAK256 SLOAD PUSH1 0x1 PUSH1 0x1 PUSH1 0xA0 SHL SUB AND SWAP1 JUMP JUMPDEST DUP1 CALLDATALOAD PUSH1 0xFF DUP2 AND DUP2 EQ PUSH2 0x36D JUMPI PUSH0 PUSH0 REVERT JUMPDEST SWAP2 SWAP1 POP JUMP JUMPDEST DUP1 CALLDATALOAD PUSH1 0x1 PUSH1 0x1 PUSH1 0xA0 SHL SUB DUP2 AND DUP2 EQ PUSH2 0x36D JUMPI PUSH0 PUSH0 REVERT JUMPDEST PUSH0 PUSH0 PUSH1 0x40 DUP4 DUP6 SUB SLT ISZERO PUSH2 0x399 JUMPI PUSH0 PUSH0 REVERT JUMPDEST PUSH2 0x3A2 DUP4 PUSH2 0x35D JUMP JUMPDEST SWAP2 POP PUSH2 0x3B0 PUSH1 0x20 DUP5 ADD PUSH2 0x372 JUMP JUMPDEST SWAP1 POP SWAP3 POP SWAP3 SWAP1 POP JUMP JUMPDEST PUSH0 PUSH1 0x20 DUP3 DUP5 SUB SLT ISZERO PUSH2 0x3C9 JUMPI PUSH0 PUSH0 REVERT JUMPDEST PUSH2 0x3D2 DUP3 PUSH2 0x35D JUMP JUMPDEST SWAP4 SWAP3 POP POP POP JUMP JUMPDEST DUP1 CALLDATALOAD PUSH16 0xFFFFFFFFFFFFFFFFFFFFFFFFFFFFFFFF DUP2 AND DUP2 EQ PUSH2 0x36D JUMPI PUSH0 PUSH0 REVERT JUMPDEST PUSH0 PUSH0 PUSH0 PUSH0 PUSH1 0x80 DUP6 DUP8 SUB SLT ISZERO PUSH2 0x40B JUMPI PUSH0 PUSH0 REVERT JUMPDEST PUSH2 0x414 DUP6 PUSH2 0x372 JUMP JUMPDEST SWAP4 POP PUSH2 0x422 PUSH1 0x20 DUP7 ADD PUSH2 0x372 JUMP JUMPDEST SWAP3 POP PUSH2 0x430 PUSH1 0x40 DUP7 ADD PUSH2 0x3D9 JUMP JUMPDEST SWAP2 POP PUSH2 0x43E PUSH1 0x60 DUP7 ADD PUSH2 0x3D9 JUMP JUMPDEST SWAP1 POP SWAP3 SWAP6 SWAP2 SWAP5 POP SWAP3 POP JUMP JUMPDEST PUSH1 0x20 DUP1 DUP3 MSTORE PUSH1 0x1D SWAP1 DUP3 ADD MSTORE PUSH32 0x496E76616C696420706F696E7465723A206D75737420626520302D3135000000 PUSH1 0x40 DUP3 ADD MSTORE PUSH1 0x60 ADD SWAP1 JUMP INVALID LOG2 PUSH5 0x6970667358 0x22 SLT KECCAK256 DUP1 SLOAD BYTE CODECOPY SIGNEXTEND OR ORIGIN 0xFC SWAP1 0xDA 0xDC 0xC7 PUSH32 0x54C5B54FA424A4ECAFBAA78DA197C31BEB7B5164736F6C634300081E00330000 "},"methodIdentifiers":{"addAlphaMarketAddress(uint8,address)":"460c6df8","addBetaMarketAddress(uint8,address)":"7dc27c95","defaultAlpha()":"a1a44dad","defaultBeta()":"19920a5f","dummyQuoter(address,address,uint128,uint128)":"8785bec0","getAlphaMarketAddress(uint8)":"d2615fc8","getBetaMarketAddress(uint8)":"83e66c2e","removeAlphaMarketAddress(uint8)":"8e832e08","removeBetaMarketAddress(uint8)":"61408f26"}}}}}