{"contracts/PoolManager.sol":{"PoolManager":{"abi":[{"inputs":[{"internalType":"address","name":"_defaultAlpha","type":"address"},{"internalType":"address","name":"_defaultBeta","type":"address"}],"stateMutability":"nonpayable","type":"constructor"},{"inputs":[{"internalType":"uint256","name":"required","type":"uint256"},{"internalType":"uint256","name":"available","type":"uint256"}],"name":"PoolManager__InsufficientAsset0","type":"error"},{"inputs":[{"internalType":"uint256","name":"required","type":"uint256"},{"internalType":"uint256","name":"available","type":"uint256"}],"name":"PoolManager__InsufficientAsset1","type":"error"},{"inputs":[],"name":"PoolManager__InsufficientLiquidityMinted","type":"error"},{"inputs":[{"internalType":"uint256","name":"minOut","type":"uint256"},{"internalType":"uint256","name":"actual","type":"uint256"}],"name":"PoolManager__InsufficientOutput","type":"error"},{"inputs":[{"internalType":"uint256","name":"amount0","type":"uint256"},{"internalType":"uint256","name":"amount1","type":"uint256"}],"name":"PoolManager__InsufficientWithdrawal","type":"error"},{"anonymous":false,"inputs":[{"indexed":true,"internalType":"address","name":"owner","type":"address"},{"indexed":true,"internalType":"address","name":"spender","type":"address"},{"indexed":true,"internalType":"uint256","name":"id","type":"uint256"},{"indexed":false,"internalType":"uint256","name":"amount","type":"uint256"}],"name":"Approval","type":"event"},{"anonymous":false,"inputs":[{"indexed":true,"internalType":"address","name":"owner","type":"address"},{"indexed":true,"internalType":"address","name":"operator","type":"address"},{"indexed":false,"internalType":"bool","name":"approved","type":"bool"}],"name":"OperatorSet","type":"event"},{"anonymous":false,"inputs":[{"indexed":true,"internalType":"uint256","name":"poolID","type":"uint256"},{"indexed":false,"internalType":"address","name":"asset0","type":"address"},{"indexed":false,"internalType":"address","name":"asset1","type":"address"},{"indexed":false,"internalType":"address","name":"quoter","type":"address"},{"indexed":false,"internalType":"bytes3","name":"markings","type":"bytes3"}],"name":"PoolCreated","type":"event"},{"anonymous":false,"inputs":[{"indexed":false,"internalType":"address","name":"caller","type":"address"},{"indexed":true,"internalType":"address","name":"from","type":"address"},{"indexed":true,"internalType":"address","name":"to","type":"address"},{"indexed":true,"internalType":"uint256","name":"id","type":"uint256"},{"indexed":false,"internalType":"uint256","name":"amount","type":"uint256"}],"name":"Transfer","type":"event"},{"inputs":[{"internalType":"uint8","name":"pointer","type":"uint8"},{"internalType":"address","name":"alphaAddress","type":"address"}],"name":"addAlphaMarketAddress","outputs":[],"stateMutability":"nonpayable","type":"function"},{"inputs":[{"internalType":"uint8","name":"pointer","type":"uint8"},{"internalType":"address","name":"betaAddress","type":"address"}],"name":"addBetaMarketAddress","outputs":[],"stateMutability":"nonpayable","type":"function"},{"inputs":[{"internalType":"address","name":"asset0","type":"address"},{"internalType":"address","name":"asset1","type":"address"},{"internalType":"address","name":"quoter","type":"address"},{"internalType":"bytes3","name":"markings","type":"bytes3"},{"internalType":"uint256","name":"amount0","type":"uint256"},{"internalType":"uint256","name":"amount1","type":"uint256"}],"name":"addLiquidity","outputs":[{"internalType":"uint256","name":"liquidity","type":"uint256"}],"stateMutability":"payable","type":"function"},{"inputs":[{"internalType":"address","name":"owner","type":"address"},{"internalType":"address","name":"spender","type":"address"},{"internalType":"uint256","name":"id","type":"uint256"}],"name":"allowance","outputs":[{"internalType":"uint256","name":"","type":"uint256"}],"stateMutability":"view","type":"function"},{"inputs":[{"internalType":"address","name":"spender","type":"address"},{"internalType":"uint256","name":"id","type":"uint256"},{"internalType":"uint256","name":"amount","type":"uint256"}],"name":"approve","outputs":[{"internalType":"bool","name":"","type":"bool"}],"stateMutability":"nonpayable","type":"function"},{"inputs":[{"internalType":"address","name":"owner","type":"address"},{"internalType":"uint256","name":"id","type":"uint256"}],"name":"balanceOf","outputs":[{"internalType":"uint256","name":"","type":"uint256"}],"stateMutability":"view","type":"function"},{"inputs":[{"internalType":"address","name":"asset0","type":"address"},{"internalType":"address","name":"asset1","type":"address"},{"internalType":"address","name":"quoter","type":"address"},{"internalType":"bytes3","name":"markings","type":"bytes3"}],"name":"createPool","outputs":[{"internalType":"uint256","name":"poolID","type":"uint256"}],"stateMutability":"nonpayable","type":"function"},{"inputs":[],"name":"defaultAlpha","outputs":[{"internalType":"address","name":"","type":"address"}],"stateMutability":"view","type":"function"},{"inputs":[],"name":"defaultBeta","outputs":[{"internalType":"address","name":"","type":"address"}],"stateMutability":"view","type":"function"},{"inputs":[{"internalType":"address","name":"","type":"address"},{"internalType":"address","name":"","type":"address"},{"internalType":"uint128","name":"","type":"uint128"},{"internalType":"uint128","name":"","type":"uint128"}],"name":"dummyQuoter","outputs":[{"internalType":"uint256","name":"rate","type":"uint256"}],"stateMutability":"pure","type":"function"},{"inputs":[{"internalType":"uint8","name":"pointer","type":"uint8"}],"name":"getAlphaMarketAddress","outputs":[{"internalType":"address","name":"alphaAddress","type":"address"}],"stateMutability":"view","type":"function"},{"inputs":[{"internalType":"uint8","name":"pointer","type":"uint8"}],"name":"getBetaMarketAddress","outputs":[{"internalType":"address","name":"betaAddress","type":"address"}],"stateMutability":"view","type":"function"},{"inputs":[{"internalType":"uint256","name":"poolId","type":"uint256"}],"name":"getInventory","outputs":[{"internalType":"uint128","name":"asset0","type":"uint128"},{"internalType":"uint128","name":"asset1","type":"uint128"}],"stateMutability":"view","type":"function"},{"inputs":[{"internalType":"address","name":"owner","type":"address"},{"internalType":"address","name":"spender","type":"address"}],"name":"isOperator","outputs":[{"internalType":"bool","name":"","type":"bool"}],"stateMutability":"view","type":"function"},{"inputs":[{"internalType":"uint8","name":"pointer","type":"uint8"}],"name":"removeAlphaMarketAddress","outputs":[],"stateMutability":"nonpayable","type":"function"},{"inputs":[{"internalType":"uint8","name":"pointer","type":"uint8"}],"name":"removeBetaMarketAddress","outputs":[],"stateMutability":"nonpayable","type":"function"},{"inputs":[{"internalType":"address","name":"asset0","type":"address"},{"internalType":"address","name":"asset1","type":"address"},{"internalType":"address","name":"quoter","type":"address"},{"internalType":"bytes3","name":"markings","type":"bytes3"},{"internalType":"uint256","name":"liquidity","type":"uint256"}],"name":"removeLiquidity","outputs":[{"internalType":"uint256","name":"amount0","type":"uint256"},{"internalType":"uint256","name":"amount1","type":"uint256"}],"stateMutability":"nonpayable","type":"function"},{"inputs":[{"internalType":"address","name":"operator","type":"address"},{"internalType":"bool","name":"approved","type":"bool"}],"name":"setOperator","outputs":[{"internalType":"bool","name":"","type":"bool"}],"stateMutability":"nonpayable","type":"function"},{"inputs":[{"internalType":"bytes4","name":"interfaceId","type":"bytes4"}],"name":"supportsInterface","outputs":[{"internalType":"bool","name":"","type":"bool"}],"stateMutability":"view","type":"function"},{"inputs":[{"internalType":"address","name":"asset0","type":"address"},{"internalType":"address","name":"asset1","type":"address"},{"internalType":"address","name":"quoter","type":"address"},{"internalType":"bytes3","name":"markings","type":"bytes3"},{"internalType":"uint256","name":"amountIn","type":"uint256"},{"internalType":"bool","name":"zeroForOne","type":"bool"},{"internalType":"uint256","name":"minAmountOut","type":"uint256"}],"name":"swap","outputs":[{"internalType":"uint256","name":"amountOut","type":"uint256"}],"stateMutability":"payable","type":"function"},{"inputs":[{"internalType":"uint256","name":"poolID","type":"uint256"}],"name":"totalLiquidity","outputs":[{"internalType":"uint256","name":"","type":"uint256"}],"stateMutability":"view","type":"function"},{"inputs":[{"internalType":"address","name":"receiver","type":"address"},{"internalType":"uint256","name":"id","type":"uint256"},{"internalType":"uint256","name":"amount","type":"uint256"}],"name":"transfer","outputs":[{"internalType":"bool","name":"","type":"bool"}],"stateMutability":"nonpayable","type":"function"},{"inputs":[{"internalType":"address","name":"sender","type":"address"},{"internalType":"address","name":"receiver","type":"address"},{"internalType":"uint256","name":"id","type":"uint256"},{"internalType":"uint256","name":"amount","type":"uint256"}],"name":"transferFrom","outputs":[{"internalType":"bool","name":"","type":"bool"}],"stateMutability":"nonpayable","type":"function"}],"evm":{"bytecode":{"linkReferences":{"contracts/libraries/MarkingHelper.sol":{"MarkingHelper":[{"length":20,"start":4799}]}},"object":"60c060405234801561000f575f5ffd5b5060405161245638038061245683398101604081905261002e91610060565b6001600160a01b039182166080521660a052610091565b80516001600160a01b038116811461005b575f5ffd5b919050565b5f5f60408385031215610071575f5ffd5b61007a83610045565b915061008860208401610045565b90509250929050565b60805160a0516123966100c05f395f81816101d001526113c401525f81816103dc015261137201526123965ff3fe60806040526004361061013b575f3560e01c80637dc27c95116100b3578063b6363cf21161006d578063b6363cf214610429578063cb1f2f381461046e578063d2615fc8146104a2578063d92bc84c146104c1578063e513315b146104d4578063fe99049a146104e7575f5ffd5b80637dc27c951461034357806383e66c2e146103625780638785bec0146103815780638e832e08146103ac578063a1a44dad146103cb578063b5e60c3c146103fe575f5ffd5b8063460c6df811610104578063460c6df814610229578063558a72971461024a5780635670f55a14610269578063598af9e7146102885780635b298d32146102d357806361408f2614610324575f5ffd5b8062fdd58e1461013f57806301ffc9a714610171578063095bcdb6146101a057806319920a5f146101bf578063426a84931461020a575b5f5ffd5b34801561014a575f5ffd5b5061015e610159366004611b42565b610506565b6040519081526020015b60405180910390f35b34801561017c575f5ffd5b5061019061018b366004611b6a565b610530565b6040519015158152602001610168565b3480156101ab575f5ffd5b506101906101ba366004611b98565b610562565b3480156101ca575f5ffd5b506101f27f000000000000000000000000000000000000000000000000000000000000000081565b6040516001600160a01b039091168152602001610168565b348015610215575f5ffd5b50610190610224366004611b98565b610608565b348015610234575f5ffd5b50610248610243366004611bd9565b61066c565b005b348015610255575f5ffd5b50610190610264366004611c19565b6106ca565b348015610274575f5ffd5b5061015e610283366004611c65565b610737565b348015610293575f5ffd5b5061015e6102a2366004611cb6565b6001600160a01b039283165f9081526002602090815260408083209490951682529283528381209181529152205490565b3480156102de575f5ffd5b506103046102ed366004611cf0565b5f9081526006602052604090205490608082901c90565b604080516001600160801b03938416815292909116602083015201610168565b34801561032f575f5ffd5b5061024861033e366004611d07565b61074d565b34801561034e575f5ffd5b5061024861035d366004611bd9565b610790565b34801561036d575f5ffd5b506101f261037c366004611d07565b6107e5565b34801561038c575f5ffd5b5061015e61039b366004611d38565b5067120a871cc00200009392505050565b3480156103b7575f5ffd5b506102486103c6366004611d07565b610827565b3480156103d6575f5ffd5b506101f27f000000000000000000000000000000000000000000000000000000000000000081565b348015610409575f5ffd5b5061015e610418366004611cf0565b5f9081526005602052604090205490565b348015610434575f5ffd5b50610190610443366004611d7e565b6001600160a01b039182165f9081526020818152604080832093909416825291909152205460ff1690565b348015610479575f5ffd5b5061048d610488366004611d98565b61086a565b60408051928352602083019190915201610168565b3480156104ad575f5ffd5b506101f26104bc366004611d07565b610a25565b61015e6104cf366004611df0565b610a67565b61015e6104e2366004611e68565b610ca4565b3480156104f2575f5ffd5b50610190610501366004611eca565b610e65565b6001600160a01b0382165f9081526001602090815260408083208484529091529020545b92915050565b5f6301ffc9a760e01b6001600160e01b03198316148061052a5750506001600160e01b031916630f632fb360e01b1490565b335f90815260016020908152604080832085845290915281208054839190839061058d908490611f1d565b90915550506001600160a01b0384165f908152600160209081526040808320868452909152812080548492906105c4908490611f30565b909155505060408051338082526020820185905285926001600160a01b038816925f5160206123415f395f51905f5291015b60405180910390a45060019392505050565b335f8181526002602090815260408083206001600160a01b03881680855290835281842087855290925280832085905551919285927fb3fd5071835887567a0671151121894ddccc2842f1d10bedad13e0d17cace9a7906105f69087815260200190565b60108260ff16106106985760405162461bcd60e51b815260040161068f90611f43565b60405180910390fd5b60ff919091165f90815260036020526040902080546001600160a01b0319166001600160a01b03909216919091179055565b335f818152602081815260408083206001600160a01b038716808552908352818420805460ff191687151590811790915591519182529293917fceb576d9f15e4e200fdb5096d64d5dfd667e16def20c1eefd14256d8e3faa267910160405180910390a350600192915050565b5f61074485858585610fc1565b95945050505050565b60108160ff16106107705760405162461bcd60e51b815260040161068f90611f43565b60ff165f90815260046020526040902080546001600160a01b0319169055565b60108260ff16106107b35760405162461bcd60e51b815260040161068f90611f43565b60ff919091165f90815260046020526040902080546001600160a01b0319166001600160a01b03909216919091179055565b5f60108260ff16106108095760405162461bcd60e51b815260040161068f90611f43565b5060ff165f908152600460205260409020546001600160a01b031690565b60108160ff161061084a5760405162461bcd60e51b815260040161068f90611f43565b60ff165f90815260036020526040902080546001600160a01b0319169055565b5f5f5f83116108bb5760405162461bcd60e51b815260206004820152601860248201527f496e76616c6964206c697175696469747920616d6f756e740000000000000000604482015260640161068f565b5f6108c888888888611061565b5f8181526006602090815260408083205460059092529091205491925090608082901c9061092f5760405162461bcd60e51b8152602060048201526014602482015273139bc81b1a5c5d5a591a5d1e481a5b881c1bdbdb60621b604482015260640161068f565b5f838152600560205260409020546109506001600160801b03841688611f7a565b61095a9190611f91565b5f8481526005602052604090205490955061097e6001600160801b03831688611f7a565b6109889190611f91565b935084158015610996575083155b156109be5760405163d5de620560e01b8152600481018690526024810185905260440161068f565b6109c9338488611083565b5f83815260056020526040812080548892906109e6908490611f1d565b90915550610a0990506005846109fb88611fb0565b610a0488611fb0565b6110f5565b610a188a8a87875f5f3361116a565b5050509550959350505050565b5f60108260ff1610610a495760405162461bcd60e51b815260040161068f90611f43565b5060ff165f908152600360205260409020546001600160a01b031690565b5f5f610a7589898989611061565b9050610a9384610a855788610a87565b895b5f875f3460013361116a565b5f818152600660205260408120548190608081901c915091505f6040518060c001604052808d6001600160a01b031681526020018c6001600160a01b031681526020018b6001600160a01b03168152602001600167ffffffffffffffff811115610aff57610aff611fd4565b604051908082528060200260200182016040528015610b28578160200160208202803683370190505b508152881515602082015260408051600180825281830183529190920191908160200160208202803683370190505081525090508781606001515f81518110610b7357610b73611fe8565b602002602001018181525050888160a001515f81518110610b9657610b96611fe8565b6001600160e81b0319909216602092830291909101909101525f610bbb8285856111c4565b5090505f8111610c0f5787610bf45767120a871cc0020000610be58a670de0b6b3a7640000611f7a565b610bef9190611f91565b610c11565b670de0b6b3a7640000610be58a67120a871cc0020000611f7a565b805b9550610c1f8484888b6115bd565b86861015610c4a5760405163d438755d60e01b8152600481018890526024810187905260440161068f565b610c796005868a610c6357610c5e89611fb0565b610c65565b8b5b8b610c70578c6110f5565b610a048a611fb0565b610c9488610c87578d610c89565b8c5b5f885f5f5f3361116a565b5050505050979650505050505050565b5f5f610cb288888888611061565b5f81815260066020526040812054919250908190608081901c915091505f6040518060c001604052808c6001600160a01b031681526020018b6001600160a01b031681526020018a6001600160a01b03168152602001600167ffffffffffffffff811115610d2257610d22611fd4565b604051908082528060200260200182016040528015610d4b578160200160208202803683370190505b50815260016020820181905260408051828152808201825292019190816020016020820280368337019050508152509050826001600160801b031681606001515f81518110610d9c57610d9c611fe8565b602002602001018181525050878160a001515f81518110610dbf57610dbf611fe8565b6001600160e81b0319909216602092830291909101909101525f610de48285856111c4565b509050805f03610df9575067120a871cc00200005b610e096005898987878a87611646565b9550610e1b8c8c8a8a3460013361116a565b610e286005868a8a6110f5565b610e33338688611727565b5f8581526005602052604081208054889290610e50908490611f30565b90915550959c9b505050505050505050505050565b5f336001600160a01b03861614801590610ea057506001600160a01b0385165f9081526020818152604080832033845290915290205460ff16155b15610f10576001600160a01b0385165f90815260026020908152604080832033845282528083208684529091529020545f198114610f0e57610ee28382611f1d565b6001600160a01b0387165f90815260026020908152604080832033845282528083208884529091529020555b505b6001600160a01b0385165f90815260016020908152604080832086845290915281208054849290610f42908490611f1d565b90915550506001600160a01b0384165f90815260016020908152604080832086845290915281208054849290610f79908490611f30565b9091555050604080513381526020810184905284916001600160a01b0380881692908916915f5160206123415f395f51905f52910160405180910390a4506001949350505050565b5f5f5f856001600160a01b0316876001600160a01b031610610fe4578587610fe7565b86865b91509150610ff782828787611061565b604080516001600160a01b03858116825284811660208301528816818301526001600160e81b031987166060820152905191945084917f68df9a4eb7aacbe8f43763bfbc9f7ca135a5397190ea1cce2558db52dc2f36929181900360800190a25050949350505050565b60408051948552602085019390935291830152606090912062ffffff19161790565b6001600160a01b0383165f908152600160209081526040808320858452909152812080548392906110b5908490611f1d565b9091555050604080513381526020810183905283915f916001600160a01b038716915f5160206123415f395f51905f5291015b60405180910390a4505050565b5f83815260018501602052604090205480608081901c6111158583611ffc565b91506111218482611ffc565b90506001600160801b0382166fffffffffffffffffffffffffffffffff19608083901b1617838114611160575f87815260018901602052604090208190555b5050505050505050565b81156111995784156111825761118287828786611790565b8315611194576111948682865f611790565b6111bb565b84156111aa576111aa8782876118dd565b83156111bb576111bb8682866118dd565b50505050505050565b5f5f6111fa855f0151866020015187604001518860a001515f815181106111ed576111ed611fe8565b6020026020010151611061565b90505f73__$0619c6efb2ccf41d523ce88c1ce1b84c64$__633bde530e8760a001515f8151811061122d5761122d611fe8565b60200260200101516040518263ffffffff1660e01b815260040161126191906001600160e81b031991909116815260200190565b60e060405180830381865af415801561127c573d5f5f3e3d5ffd5b505050506040513d601f19601f820116820180604052508101906112a091906120a8565b90505f604051806101000160405280885f01516001600160a01b0316815260200188602001516001600160a01b0316815260200188604001516001600160a01b0316815260200188606001515f815181106112fd576112fd611fe8565b60200260200101518152602001876001600160801b03168152602001866001600160801b031681526020018360c0015161ffff1681526020018860800151151581525090505f826040015161137057608083015160ff165f908152600360205260409020546001600160a01b0316611392565b7f00000000000000000000000000000000000000000000000000000000000000005b90505f83606001516113c25760a084015160ff165f908152600460205260409020546001600160a01b03166113e4565b7f00000000000000000000000000000000000000000000000000000000000000005b845190915080156113f6575083602001515b156114885782604001516001600160a01b03166303dd785a8461141985876119d7565b61142385886119d7565b6040518463ffffffff1660e01b815260040161144193929190612202565b6020604051808303815f875af115801561145d573d5f5f3e3d5ffd5b505050506040513d601f19601f820116820180604052508101906114819190612241565b95506115b1565b835115801561149957508360200151155b156114ce5782604001516001600160a01b031663583c12f4846040518263ffffffff1660e01b81526004016114419190612258565b835180156114de57508360200151155b1561151e5782604001516001600160a01b0316635e3344d08461150185876119d7565b6040518363ffffffff1660e01b8152600401611441929190612267565b835115801561152e575083602001515b156115b15782604001516001600160a01b0316635e3344d08461155184876119d7565b6040518363ffffffff1660e01b815260040161156e929190612267565b6020604051808303815f875af115801561158a573d5f5f3e3d5ffd5b505050506040513d601f19601f820116820180604052508101906115ae9190612241565b95505b50505050935093915050565b80156116045781836001600160801b031610156115ff57604051630173586760e01b8152600481018390526001600160801b038416602482015260440161068f565b611640565b81846001600160801b03161015611640576040516368580a1960e01b8152600481018390526001600160801b038516602482015260440161068f565b50505050565b5f80670de0b6b3a764000061165b8489611f7a565b6116659190611f91565b61166f9089611f30565b90505f670de0b6b3a764000061168e856001600160801b038916611f7a565b6116989190611f91565b6116ab906001600160801b038916611f30565b5f86815260208c9052604090205490915015806116c6575080155b156116d3578192506116fa565b5f85815260208b9052604090205481906116ed9084611f7a565b6116f79190611f91565b92505b825f0361171a5760405163283eeadf60e01b815260040160405180910390fd5b5050979650505050505050565b6001600160a01b0383165f90815260016020908152604080832085845290915281208054839290611759908490611f30565b9091555050604080513381526020810183905283916001600160a01b038616915f915f5160206123415f395f51905f5291016110e8565b6001600160a01b0384166117e2578181146115ff5760405162461bcd60e51b8152602060048201526012602482015271125b98dbdc9c9958dd08115512081cd95b9d60721b604482015260640161068f565b80156118235760405162461bcd60e51b815260206004820152601060248201526f115512081b9bdd08195e1c1958dd195960821b604482015260640161068f565b6040516323b872dd60e01b81526001600160a01b038481166004830152306024830152604482018490528516906323b872dd906064016020604051808303815f875af1158015611875573d5f5f3e3d5ffd5b505050506040513d601f19601f820116820180604052508101906118999190612291565b6116405760405162461bcd60e51b8152602060048201526015602482015274115490cc8c081d1c985b9cd9995c8819985a5b1959605a1b604482015260640161068f565b6001600160a01b03831661191e576040516001600160a01b0383169082156108fc029083905f818181858888f19350505050158015611640573d5f5f3e3d5ffd5b60405163a9059cbb60e01b81526001600160a01b0383811660048301526024820183905284169063a9059cbb906044016020604051808303815f875af115801561196a573d5f5f3e3d5ffd5b505050506040513d601f19601f8201168201806040525081019061198e9190612291565b6119d25760405162461bcd60e51b8152602060048201526015602482015274115490cc8c081d1c985b9cd9995c8819985a5b1959605a1b604482015260640161068f565b505050565b60606119eb836001600160a01b0316611a78565b905080515f0361052a57604051633bd1104b60e01b81526001600160a01b03841690633bd1104b90611a21908590600401612258565b5f604051808303815f875af1158015611a3c573d5f5f3e3d5ffd5b505050506040513d5f823e601f3d908101601f19168201604052611a6391908101906122ac565b905061052a6001600160a01b03841682611ae9565b6060602082015f20805c80611a9b5760405192505f835260208301604052602083f35b60405192508083525f602082061160208204019050602081026020840101604052602083015f5b82811015611ae057600181850181015c835260209092019101611ac2565b50505050919050565b602082015f20815180825d6020830181810191505f5b82821015611b1f5781516001820185015d60209190910190600101611aff565b505050505050565b80356001600160a01b0381168114611b3d575f5ffd5b919050565b5f5f60408385031215611b53575f5ffd5b611b5c83611b27565b946020939093013593505050565b5f60208284031215611b7a575f5ffd5b81356001600160e01b031981168114611b91575f5ffd5b9392505050565b5f5f5f60608486031215611baa575f5ffd5b611bb384611b27565b95602085013595506040909401359392505050565b60ff81168114611bd6575f5ffd5b50565b5f5f60408385031215611bea575f5ffd5b8235611bf581611bc8565b9150611c0360208401611b27565b90509250929050565b8015158114611bd6575f5ffd5b5f5f60408385031215611c2a575f5ffd5b611c3383611b27565b91506020830135611c4381611c0c565b809150509250929050565b80356001600160e81b031981168114611b3d575f5ffd5b5f5f5f5f60808587031215611c78575f5ffd5b611c8185611b27565b9350611c8f60208601611b27565b9250611c9d60408601611b27565b9150611cab60608601611c4e565b905092959194509250565b5f5f5f60608486031215611cc8575f5ffd5b611cd184611b27565b9250611cdf60208501611b27565b929592945050506040919091013590565b5f60208284031215611d00575f5ffd5b5035919050565b5f60208284031215611d17575f5ffd5b8135611b9181611bc8565b80356001600160801b0381168114611b3d575f5ffd5b5f5f5f5f60808587031215611d4b575f5ffd5b611d5485611b27565b9350611d6260208601611b27565b9250611d7060408601611d22565b9150611cab60608601611d22565b5f5f60408385031215611d8f575f5ffd5b611bf583611b27565b5f5f5f5f5f60a08688031215611dac575f5ffd5b611db586611b27565b9450611dc360208701611b27565b9350611dd160408701611b27565b9250611ddf60608701611c4e565b949793965091946080013592915050565b5f5f5f5f5f5f5f60e0888a031215611e06575f5ffd5b611e0f88611b27565b9650611e1d60208901611b27565b9550611e2b60408901611b27565b9450611e3960608901611c4e565b93506080880135925060a0880135611e5081611c0c565b96999598509396929591949193505060c09091013590565b5f5f5f5f5f5f60c08789031215611e7d575f5ffd5b611e8687611b27565b9550611e9460208801611b27565b9450611ea260408801611b27565b9350611eb060608801611c4e565b9598949750929560808101359460a0909101359350915050565b5f5f5f5f60808587031215611edd575f5ffd5b611ee685611b27565b9350611ef460208601611b27565b93969395505050506040820135916060013590565b634e487b7160e01b5f52601160045260245ffd5b8181038181111561052a5761052a611f09565b8082018082111561052a5761052a611f09565b6020808252601d908201527f496e76616c696420706f696e7465723a206d75737420626520302d3135000000604082015260600190565b808202811582820484141761052a5761052a611f09565b5f82611fab57634e487b7160e01b5f52601260045260245ffd5b500490565b5f81600f0b60016001607f1b03198103611fcc57611fcc611f09565b5f0392915050565b634e487b7160e01b5f52604160045260245ffd5b634e487b7160e01b5f52603260045260245ffd5b600f81810b9083900b0160016001607f1b0381136f7fffffffffffffffffffffffffffffff198212171561052a5761052a611f09565b60405160e0810167ffffffffffffffff8111828210171561205557612055611fd4565b60405290565b604051601f8201601f1916810167ffffffffffffffff8111828210171561208457612084611fd4565b604052919050565b8051611b3d81611bc8565b805161ffff81168114611b3d575f5ffd5b5f60e08284031280156120b9575f5ffd5b506120c2612032565b82516120cd81611c0c565b815260208301516120dd81611c0c565b602082015260408301516120f081611c0c565b6040820152606083015161210381611c0c565b60608201526121146080840161208c565b608082015261212560a0840161208c565b60a082015261213660c08401612097565b60c08201529392505050565b80516001600160a01b03908116835260208083015182169084015260408083015190911690830152606080820151908301526080808201519061218f908401826001600160801b03169052565b5060a08101516121aa60a08401826001600160801b03169052565b5060c08101516121c060c084018261ffff169052565b5060e08101516119d260e084018215159052565b5f81518084528060208401602086015e5f602082860101526020601f19601f83011685010191505092915050565b61220c8185612142565b6101406101008201525f6122246101408301856121d4565b82810361012084015261223781856121d4565b9695505050505050565b5f60208284031215612251575f5ffd5b5051919050565b610100810161052a8284612142565b6122718184612142565b6101206101008201525f6122896101208301846121d4565b949350505050565b5f602082840312156122a1575f5ffd5b8151611b9181611c0c565b5f602082840312156122bc575f5ffd5b815167ffffffffffffffff8111156122d2575f5ffd5b8201601f810184136122e2575f5ffd5b805167ffffffffffffffff8111156122fc576122fc611fd4565b61230f601f8201601f191660200161205b565b818152856020838501011115612323575f5ffd5b8160208401602083015e5f9181016020019190915294935050505056fe1b3d7edb2e9c0b0e7c525b20aaaef0f5940d2ed71663c7d39266ecafac728859a26469706673582212201f693aa05b5e3055fb7aba25f0debe925dbcd168544e62b052fbefc61cb9f02064736f6c634300081e0033","opcodes":"PUSH1 0xC0 PUSH1 0x40 MSTORE CALLVALUE DUP1 ISZERO PUSH2 0xF JUMPI PUSH0 PUSH0 REVERT JUMPDEST POP PUSH1 0x40 MLOAD PUSH2 0x2456 CODESIZE SUB DUP1 PUSH2 0x2456 DUP4 CODECOPY DUP2 ADD PUSH1 0x40 DUP2 SWAP1 MSTORE PUSH2 0x2E SWAP2 PUSH2 0x60 JUMP JUMPDEST PUSH1 0x1 PUSH1 0x1 PUSH1 0xA0 SHL SUB SWAP2 DUP3 AND PUSH1 0x80 MSTORE AND PUSH1 0xA0 MSTORE PUSH2 0x91 JUMP JUMPDEST DUP1 MLOAD PUSH1 0x1 PUSH1 0x1 PUSH1 0xA0 SHL SUB DUP2 AND DUP2 EQ PUSH2 0x5B JUMPI PUSH0 PUSH0 REVERT JUMPDEST SWAP2 SWAP1 POP JUMP JUMPDEST PUSH0 PUSH0 PUSH1 0x40 DUP4 DUP6 SUB SLT ISZERO PUSH2 0x71 JUMPI PUSH0 PUSH0 REVERT JUMPDEST PUSH2 0x7A DUP4 PUSH2 0x45 JUMP JUMPDEST SWAP2 POP PUSH2 0x88 PUSH1 0x20 DUP5 ADD PUSH2 0x45 JUMP JUMPDEST SWAP1 POP SWAP3 POP SWAP3 SWAP1 POP JUMP JUMPDEST PUSH1 0x80 MLOAD PUSH1 0xA0 MLOAD PUSH2 0x2396 PUSH2 0xC0 PUSH0 CODECOPY PUSH0 DUP2 DUP2 PUSH2 0x1D0 ADD MSTORE PUSH2 0x13C4 ADD MSTORE PUSH0 DUP2 DUP2 PUSH2 0x3DC ADD MSTORE PUSH2 0x1372 ADD MSTORE PUSH2 0x2396 PUSH0 RETURN INVALID PUSH1 0x80 PUSH1 0x40 MSTORE PUSH1 0x4 CALLDATASIZE LT PUSH2 0x13B JUMPI PUSH0 CALLDATALOAD PUSH1 0xE0 SHR DUP1 PUSH4 0x7DC27C95 GT PUSH2 0xB3 JUMPI DUP1 PUSH4 0xB6363CF2 GT PUSH2 0x6D JUMPI DUP1 PUSH4 0xB6363CF2 EQ PUSH2 0x429 JUMPI DUP1 PUSH4 0xCB1F2F38 EQ PUSH2 0x46E JUMPI DUP1 PUSH4 0xD2615FC8 EQ PUSH2 0x4A2 JUMPI DUP1 PUSH4 0xD92BC84C EQ PUSH2 0x4C1 JUMPI DUP1 PUSH4 0xE513315B EQ PUSH2 0x4D4 JUMPI DUP1 PUSH4 0xFE99049A EQ PUSH2 0x4E7 JUMPI PUSH0 PUSH0 REVERT JUMPDEST DUP1 PUSH4 0x7DC27C95 EQ PUSH2 0x343 JUMPI DUP1 PUSH4 0x83E66C2E EQ PUSH2 0x362 JUMPI DUP1 PUSH4 0x8785BEC0 EQ PUSH2 0x381 JUMPI DUP1 PUSH4 0x8E832E08 EQ PUSH2 0x3AC JUMPI DUP1 PUSH4 0xA1A44DAD EQ PUSH2 0x3CB JUMPI DUP1 PUSH4 0xB5E60C3C EQ PUSH2 0x3FE JUMPI PUSH0 PUSH0 REVERT JUMPDEST DUP1 PUSH4 0x460C6DF8 GT PUSH2 0x104 JUMPI DUP1 PUSH4 0x460C6DF8 EQ PUSH2 0x229 JUMPI DUP1 PUSH4 0x558A7297 EQ PUSH2 0x24A JUMPI DUP1 PUSH4 0x5670F55A EQ PUSH2 0x269 JUMPI DUP1 PUSH4 0x598AF9E7 EQ PUSH2 0x288 JUMPI DUP1 PUSH4 0x5B298D32 EQ PUSH2 0x2D3 JUMPI DUP1 PUSH4 0x61408F26 EQ PUSH2 0x324 JUMPI PUSH0 PUSH0 REVERT JUMPDEST DUP1 PUSH3 0xFDD58E EQ PUSH2 0x13F JUMPI DUP1 PUSH4 0x1FFC9A7 EQ PUSH2 0x171 JUMPI DUP1 PUSH4 0x95BCDB6 EQ PUSH2 0x1A0 JUMPI DUP1 PUSH4 0x19920A5F EQ PUSH2 0x1BF JUMPI DUP1 PUSH4 0x426A8493 EQ PUSH2 0x20A JUMPI JUMPDEST PUSH0 PUSH0 REVERT JUMPDEST CALLVALUE DUP1 ISZERO PUSH2 0x14A JUMPI PUSH0 PUSH0 REVERT JUMPDEST POP PUSH2 0x15E PUSH2 0x159 CALLDATASIZE PUSH1 0x4 PUSH2 0x1B42 JUMP JUMPDEST PUSH2 0x506 JUMP JUMPDEST PUSH1 0x40 MLOAD SWAP1 DUP2 MSTORE PUSH1 0x20 ADD JUMPDEST PUSH1 0x40 MLOAD DUP1 SWAP2 SUB SWAP1 RETURN JUMPDEST CALLVALUE DUP1 ISZERO PUSH2 0x17C JUMPI PUSH0 PUSH0 REVERT JUMPDEST POP PUSH2 0x190 PUSH2 0x18B CALLDATASIZE PUSH1 0x4 PUSH2 0x1B6A JUMP JUMPDEST PUSH2 0x530 JUMP JUMPDEST PUSH1 0x40 MLOAD SWAP1 ISZERO ISZERO DUP2 MSTORE PUSH1 0x20 ADD PUSH2 0x168 JUMP JUMPDEST CALLVALUE DUP1 ISZERO PUSH2 0x1AB JUMPI PUSH0 PUSH0 REVERT JUMPDEST POP PUSH2 0x190 PUSH2 0x1BA CALLDATASIZE PUSH1 0x4 PUSH2 0x1B98 JUMP JUMPDEST PUSH2 0x562 JUMP JUMPDEST CALLVALUE DUP1 ISZERO PUSH2 0x1CA JUMPI PUSH0 PUSH0 REVERT JUMPDEST POP PUSH2 0x1F2 PUSH32 0x0 DUP2 JUMP JUMPDEST PUSH1 0x40 MLOAD PUSH1 0x1 PUSH1 0x1 PUSH1 0xA0 SHL SUB SWAP1 SWAP2 AND DUP2 MSTORE PUSH1 0x20 ADD PUSH2 0x168 JUMP JUMPDEST CALLVALUE DUP1 ISZERO PUSH2 0x215 JUMPI PUSH0 PUSH0 REVERT JUMPDEST POP PUSH2 0x190 PUSH2 0x224 CALLDATASIZE PUSH1 0x4 PUSH2 0x1B98 JUMP JUMPDEST PUSH2 0x608 JUMP JUMPDEST CALLVALUE DUP1 ISZERO PUSH2 0x234 JUMPI PUSH0 PUSH0 REVERT JUMPDEST POP PUSH2 0x248 PUSH2 0x243 CALLDATASIZE PUSH1 0x4 PUSH2 0x1BD9 JUMP JUMPDEST PUSH2 0x66C JUMP JUMPDEST STOP JUMPDEST CALLVALUE DUP1 ISZERO PUSH2 0x255 JUMPI PUSH0 PUSH0 REVERT JUMPDEST POP PUSH2 0x190 PUSH2 0x264 CALLDATASIZE PUSH1 0x4 PUSH2 0x1C19 JUMP JUMPDEST PUSH2 0x6CA JUMP JUMPDEST CALLVALUE DUP1 ISZERO PUSH2 0x274 JUMPI PUSH0 PUSH0 REVERT JUMPDEST POP PUSH2 0x15E PUSH2 0x283 CALLDATASIZE PUSH1 0x4 PUSH2 0x1C65 JUMP JUMPDEST PUSH2 0x737 JUMP JUMPDEST CALLVALUE DUP1 ISZERO PUSH2 0x293 JUMPI PUSH0 PUSH0 REVERT JUMPDEST POP PUSH2 0x15E PUSH2 0x2A2 CALLDATASIZE PUSH1 0x4 PUSH2 0x1CB6 JUMP JUMPDEST PUSH1 0x1 PUSH1 0x1 PUSH1 0xA0 SHL SUB SWAP3 DUP4 AND PUSH0 SWAP1 DUP2 MSTORE PUSH1 0x2 PUSH1 0x20 SWAP1 DUP2 MSTORE PUSH1 0x40 DUP1 DUP4 KECCAK256 SWAP5 SWAP1 SWAP6 AND DUP3 MSTORE SWAP3 DUP4 MSTORE DUP4 DUP2 KECCAK256 SWAP2 DUP2 MSTORE SWAP2 MSTORE KECCAK256 SLOAD SWAP1 JUMP JUMPDEST CALLVALUE DUP1 ISZERO PUSH2 0x2DE JUMPI PUSH0 PUSH0 REVERT JUMPDEST POP PUSH2 0x304 PUSH2 0x2ED CALLDATASIZE PUSH1 0x4 PUSH2 0x1CF0 JUMP JUMPDEST PUSH0 SWAP1 DUP2 MSTORE PUSH1 0x6 PUSH1 0x20 MSTORE PUSH1 0x40 SWAP1 KECCAK256 SLOAD SWAP1 PUSH1 0x80 DUP3 SWAP1 SHR SWAP1 JUMP JUMPDEST PUSH1 0x40 DUP1 MLOAD PUSH1 0x1 PUSH1 0x1 PUSH1 0x80 SHL SUB SWAP4 DUP5 AND DUP2 MSTORE SWAP3 SWAP1 SWAP2 AND PUSH1 0x20 DUP4 ADD MSTORE ADD PUSH2 0x168 JUMP JUMPDEST CALLVALUE DUP1 ISZERO PUSH2 0x32F JUMPI PUSH0 PUSH0 REVERT JUMPDEST POP PUSH2 0x248 PUSH2 0x33E CALLDATASIZE PUSH1 0x4 PUSH2 0x1D07 JUMP JUMPDEST PUSH2 0x74D JUMP JUMPDEST CALLVALUE DUP1 ISZERO PUSH2 0x34E JUMPI PUSH0 PUSH0 REVERT JUMPDEST POP PUSH2 0x248 PUSH2 0x35D CALLDATASIZE PUSH1 0x4 PUSH2 0x1BD9 JUMP JUMPDEST PUSH2 0x790 JUMP JUMPDEST CALLVALUE DUP1 ISZERO PUSH2 0x36D JUMPI PUSH0 PUSH0 REVERT JUMPDEST POP PUSH2 0x1F2 PUSH2 0x37C CALLDATASIZE PUSH1 0x4 PUSH2 0x1D07 JUMP JUMPDEST PUSH2 0x7E5 JUMP JUMPDEST CALLVALUE DUP1 ISZERO PUSH2 0x38C JUMPI PUSH0 PUSH0 REVERT JUMPDEST POP PUSH2 0x15E PUSH2 0x39B CALLDATASIZE PUSH1 0x4 PUSH2 0x1D38 JUMP JUMPDEST POP PUSH8 0x120A871CC0020000 SWAP4 SWAP3 POP POP POP JUMP JUMPDEST CALLVALUE DUP1 ISZERO PUSH2 0x3B7 JUMPI PUSH0 PUSH0 REVERT JUMPDEST POP PUSH2 0x248 PUSH2 0x3C6 CALLDATASIZE PUSH1 0x4 PUSH2 0x1D07 JUMP JUMPDEST PUSH2 0x827 JUMP JUMPDEST CALLVALUE DUP1 ISZERO PUSH2 0x3D6 JUMPI PUSH0 PUSH0 REVERT JUMPDEST POP PUSH2 0x1F2 PUSH32 0x0 DUP2 JUMP JUMPDEST CALLVALUE DUP1 ISZERO PUSH2 0x409 JUMPI PUSH0 PUSH0 REVERT JUMPDEST POP PUSH2 0x15E PUSH2 0x418 CALLDATASIZE PUSH1 0x4 PUSH2 0x1CF0 JUMP JUMPDEST PUSH0 SWAP1 DUP2 MSTORE PUSH1 0x5 PUSH1 0x20 MSTORE PUSH1 0x40 SWAP1 KECCAK256 SLOAD SWAP1 JUMP JUMPDEST CALLVALUE DUP1 ISZERO PUSH2 0x434 JUMPI PUSH0 PUSH0 REVERT JUMPDEST POP PUSH2 0x190 PUSH2 0x443 CALLDATASIZE PUSH1 0x4 PUSH2 0x1D7E JUMP JUMPDEST PUSH1 0x1 PUSH1 0x1 PUSH1 0xA0 SHL SUB SWAP2 DUP3 AND PUSH0 SWAP1 DUP2 MSTORE PUSH1 0x20 DUP2 DUP2 MSTORE PUSH1 0x40 DUP1 DUP4 KECCAK256 SWAP4 SWAP1 SWAP5 AND DUP3 MSTORE SWAP2 SWAP1 SWAP2 MSTORE KECCAK256 SLOAD PUSH1 0xFF AND SWAP1 JUMP JUMPDEST CALLVALUE DUP1 ISZERO PUSH2 0x479 JUMPI PUSH0 PUSH0 REVERT JUMPDEST POP PUSH2 0x48D PUSH2 0x488 CALLDATASIZE PUSH1 0x4 PUSH2 0x1D98 JUMP JUMPDEST PUSH2 0x86A JUMP JUMPDEST PUSH1 0x40 DUP1 MLOAD SWAP3 DUP4 MSTORE PUSH1 0x20 DUP4 ADD SWAP2 SWAP1 SWAP2 MSTORE ADD PUSH2 0x168 JUMP JUMPDEST CALLVALUE DUP1 ISZERO PUSH2 0x4AD JUMPI PUSH0 PUSH0 REVERT JUMPDEST POP PUSH2 0x1F2 PUSH2 0x4BC CALLDATASIZE PUSH1 0x4 PUSH2 0x1D07 JUMP JUMPDEST PUSH2 0xA25 JUMP JUMPDEST PUSH2 0x15E PUSH2 0x4CF CALLDATASIZE PUSH1 0x4 PUSH2 0x1DF0 JUMP JUMPDEST PUSH2 0xA67 JUMP JUMPDEST PUSH2 0x15E PUSH2 0x4E2 CALLDATASIZE PUSH1 0x4 PUSH2 0x1E68 JUMP JUMPDEST PUSH2 0xCA4 JUMP JUMPDEST CALLVALUE DUP1 ISZERO PUSH2 0x4F2 JUMPI PUSH0 PUSH0 REVERT JUMPDEST POP PUSH2 0x190 PUSH2 0x501 CALLDATASIZE PUSH1 0x4 PUSH2 0x1ECA JUMP JUMPDEST PUSH2 0xE65 JUMP JUMPDEST PUSH1 0x1 PUSH1 0x1 PUSH1 0xA0 SHL SUB DUP3 AND PUSH0 SWAP1 DUP2 MSTORE PUSH1 0x1 PUSH1 0x20 SWAP1 DUP2 MSTORE PUSH1 0x40 DUP1 DUP4 KECCAK256 DUP5 DUP5 MSTORE SWAP1 SWAP2 MSTORE SWAP1 KECCAK256 SLOAD JUMPDEST SWAP3 SWAP2 POP POP JUMP JUMPDEST PUSH0 PUSH4 0x1FFC9A7 PUSH1 0xE0 SHL PUSH1 0x1 PUSH1 0x1 PUSH1 0xE0 SHL SUB NOT DUP4 AND EQ DUP1 PUSH2 0x52A JUMPI POP POP PUSH1 0x1 PUSH1 0x1 PUSH1 0xE0 SHL SUB NOT AND PUSH4 0xF632FB3 PUSH1 0xE0 SHL EQ SWAP1 JUMP JUMPDEST CALLER PUSH0 SWAP1 DUP2 MSTORE PUSH1 0x1 PUSH1 0x20 SWAP1 DUP2 MSTORE PUSH1 0x40 DUP1 DUP4 KECCAK256 DUP6 DUP5 MSTORE SWAP1 SWAP2 MSTORE DUP2 KECCAK256 DUP1 SLOAD DUP4 SWAP2 SWAP1 DUP4 SWAP1 PUSH2 0x58D SWAP1 DUP5 SWAP1 PUSH2 0x1F1D JUMP JUMPDEST SWAP1 SWAP2 SSTORE POP POP PUSH1 0x1 PUSH1 0x1 PUSH1 0xA0 SHL SUB DUP5 AND PUSH0 SWAP1 DUP2 MSTORE PUSH1 0x1 PUSH1 0x20 SWAP1 DUP2 MSTORE PUSH1 0x40 DUP1 DUP4 KECCAK256 DUP7 DUP5 MSTORE SWAP1 SWAP2 MSTORE DUP2 KECCAK256 DUP1 SLOAD DUP5 SWAP3 SWAP1 PUSH2 0x5C4 SWAP1 DUP5 SWAP1 PUSH2 0x1F30 JUMP JUMPDEST SWAP1 SWAP2 SSTORE POP POP PUSH1 0x40 DUP1 MLOAD CALLER DUP1 DUP3 MSTORE PUSH1 0x20 DUP3 ADD DUP6 SWAP1 MSTORE DUP6 SWAP3 PUSH1 0x1 PUSH1 0x1 PUSH1 0xA0 SHL SUB DUP9 AND SWAP3 PUSH0 MLOAD PUSH1 0x20 PUSH2 0x2341 PUSH0 CODECOPY PUSH0 MLOAD SWAP1 PUSH0 MSTORE SWAP2 ADD JUMPDEST PUSH1 0x40 MLOAD DUP1 SWAP2 SUB SWAP1 LOG4 POP PUSH1 0x1 SWAP4 SWAP3 POP POP POP JUMP JUMPDEST CALLER PUSH0 DUP2 DUP2 MSTORE PUSH1 0x2 PUSH1 0x20 SWAP1 DUP2 MSTORE PUSH1 0x40 DUP1 DUP4 KECCAK256 PUSH1 0x1 PUSH1 0x1 PUSH1 0xA0 SHL SUB DUP9 AND DUP1 DUP6 MSTORE SWAP1 DUP4 MSTORE DUP2 DUP5 KECCAK256 DUP8 DUP6 MSTORE SWAP1 SWAP3 MSTORE DUP1 DUP4 KECCAK256 DUP6 SWAP1 SSTORE MLOAD SWAP2 SWAP3 DUP6 SWAP3 PUSH32 0xB3FD5071835887567A0671151121894DDCCC2842F1D10BEDAD13E0D17CACE9A7 SWAP1 PUSH2 0x5F6 SWAP1 DUP8 DUP2 MSTORE PUSH1 0x20 ADD SWAP1 JUMP JUMPDEST PUSH1 0x10 DUP3 PUSH1 0xFF AND LT PUSH2 0x698 JUMPI PUSH1 0x40 MLOAD PUSH3 0x461BCD PUSH1 0xE5 SHL DUP2 MSTORE PUSH1 0x4 ADD PUSH2 0x68F SWAP1 PUSH2 0x1F43 JUMP JUMPDEST PUSH1 0x40 MLOAD DUP1 SWAP2 SUB SWAP1 REVERT JUMPDEST PUSH1 0xFF SWAP2 SWAP1 SWAP2 AND PUSH0 SWAP1 DUP2 MSTORE PUSH1 0x3 PUSH1 0x20 MSTORE PUSH1 0x40 SWAP1 KECCAK256 DUP1 SLOAD PUSH1 0x1 PUSH1 0x1 PUSH1 0xA0 SHL SUB NOT AND PUSH1 0x1 PUSH1 0x1 PUSH1 0xA0 SHL SUB SWAP1 SWAP3 AND SWAP2 SWAP1 SWAP2 OR SWAP1 SSTORE JUMP JUMPDEST CALLER PUSH0 DUP2 DUP2 MSTORE PUSH1 0x20 DUP2 DUP2 MSTORE PUSH1 0x40 DUP1 DUP4 KECCAK256 PUSH1 0x1 PUSH1 0x1 PUSH1 0xA0 SHL SUB DUP8 AND DUP1 DUP6 MSTORE SWAP1 DUP4 MSTORE DUP2 DUP5 KECCAK256 DUP1 SLOAD PUSH1 0xFF NOT AND DUP8 ISZERO ISZERO SWAP1 DUP2 OR SWAP1 SWAP2 SSTORE SWAP2 MLOAD SWAP2 DUP3 MSTORE SWAP3 SWAP4 SWAP2 PUSH32 0xCEB576D9F15E4E200FDB5096D64D5DFD667E16DEF20C1EEFD14256D8E3FAA267 SWAP2 ADD PUSH1 0x40 MLOAD DUP1 SWAP2 SUB SWAP1 LOG3 POP PUSH1 0x1 SWAP3 SWAP2 POP POP JUMP JUMPDEST PUSH0 PUSH2 0x744 DUP6 DUP6 DUP6 DUP6 PUSH2 0xFC1 JUMP JUMPDEST SWAP6 SWAP5 POP POP POP POP POP JUMP JUMPDEST PUSH1 0x10 DUP2 PUSH1 0xFF AND LT PUSH2 0x770 JUMPI PUSH1 0x40 MLOAD PUSH3 0x461BCD PUSH1 0xE5 SHL DUP2 MSTORE PUSH1 0x4 ADD PUSH2 0x68F SWAP1 PUSH2 0x1F43 JUMP JUMPDEST PUSH1 0xFF AND PUSH0 SWAP1 DUP2 MSTORE PUSH1 0x4 PUSH1 0x20 MSTORE PUSH1 0x40 SWAP1 KECCAK256 DUP1 SLOAD PUSH1 0x1 PUSH1 0x1 PUSH1 0xA0 SHL SUB NOT AND SWAP1 SSTORE JUMP JUMPDEST PUSH1 0x10 DUP3 PUSH1 0xFF AND LT PUSH2 0x7B3 JUMPI PUSH1 0x40 MLOAD PUSH3 0x461BCD PUSH1 0xE5 SHL DUP2 MSTORE PUSH1 0x4 ADD PUSH2 0x68F SWAP1 PUSH2 0x1F43 JUMP JUMPDEST PUSH1 0xFF SWAP2 SWAP1 SWAP2 AND PUSH0 SWAP1 DUP2 MSTORE PUSH1 0x4 PUSH1 0x20 MSTORE PUSH1 0x40 SWAP1 KECCAK256 DUP1 SLOAD PUSH1 0x1 PUSH1 0x1 PUSH1 0xA0 SHL SUB NOT AND PUSH1 0x1 PUSH1 0x1 PUSH1 0xA0 SHL SUB SWAP1 SWAP3 AND SWAP2 SWAP1 SWAP2 OR SWAP1 SSTORE JUMP JUMPDEST PUSH0 PUSH1 0x10 DUP3 PUSH1 0xFF AND LT PUSH2 0x809 JUMPI PUSH1 0x40 MLOAD PUSH3 0x461BCD PUSH1 0xE5 SHL DUP2 MSTORE PUSH1 0x4 ADD PUSH2 0x68F SWAP1 PUSH2 0x1F43 JUMP JUMPDEST POP PUSH1 0xFF AND PUSH0 SWAP1 DUP2 MSTORE PUSH1 0x4 PUSH1 0x20 MSTORE PUSH1 0x40 SWAP1 KECCAK256 SLOAD PUSH1 0x1 PUSH1 0x1 PUSH1 0xA0 SHL SUB AND SWAP1 JUMP JUMPDEST PUSH1 0x10 DUP2 PUSH1 0xFF AND LT PUSH2 0x84A JUMPI PUSH1 0x40 MLOAD PUSH3 0x461BCD PUSH1 0xE5 SHL DUP2 MSTORE PUSH1 0x4 ADD PUSH2 0x68F SWAP1 PUSH2 0x1F43 JUMP JUMPDEST PUSH1 0xFF AND PUSH0 SWAP1 DUP2 MSTORE PUSH1 0x3 PUSH1 0x20 MSTORE PUSH1 0x40 SWAP1 KECCAK256 DUP1 SLOAD PUSH1 0x1 PUSH1 0x1 PUSH1 0xA0 SHL SUB NOT AND SWAP1 SSTORE JUMP JUMPDEST PUSH0 PUSH0 PUSH0 DUP4 GT PUSH2 0x8BB JUMPI PUSH1 0x40 MLOAD PUSH3 0x461BCD PUSH1 0xE5 SHL DUP2 MSTORE PUSH1 0x20 PUSH1 0x4 DUP3 ADD MSTORE PUSH1 0x18 PUSH1 0x24 DUP3 ADD MSTORE PUSH32 0x496E76616C6964206C697175696469747920616D6F756E740000000000000000 PUSH1 0x44 DUP3 ADD MSTORE PUSH1 0x64 ADD PUSH2 0x68F JUMP JUMPDEST PUSH0 PUSH2 0x8C8 DUP9 DUP9 DUP9 DUP9 PUSH2 0x1061 JUMP JUMPDEST PUSH0 DUP2 DUP2 MSTORE PUSH1 0x6 PUSH1 0x20 SWAP1 DUP2 MSTORE PUSH1 0x40 DUP1 DUP4 KECCAK256 SLOAD PUSH1 0x5 SWAP1 SWAP3 MSTORE SWAP1 SWAP2 KECCAK256 SLOAD SWAP2 SWAP3 POP SWAP1 PUSH1 0x80 DUP3 SWAP1 SHR SWAP1 PUSH2 0x92F JUMPI PUSH1 0x40 MLOAD PUSH3 0x461BCD PUSH1 0xE5 SHL DUP2 MSTORE PUSH1 0x20 PUSH1 0x4 DUP3 ADD MSTORE PUSH1 0x14 PUSH1 0x24 DUP3 ADD MSTORE PUSH20 0x139BC81B1A5C5D5A591A5D1E481A5B881C1BDBDB PUSH1 0x62 SHL PUSH1 0x44 DUP3 ADD MSTORE PUSH1 0x64 ADD PUSH2 0x68F JUMP JUMPDEST PUSH0 DUP4 DUP2 MSTORE PUSH1 0x5 PUSH1 0x20 MSTORE PUSH1 0x40 SWAP1 KECCAK256 SLOAD PUSH2 0x950 PUSH1 0x1 PUSH1 0x1 PUSH1 0x80 SHL SUB DUP5 AND DUP9 PUSH2 0x1F7A JUMP JUMPDEST PUSH2 0x95A SWAP2 SWAP1 PUSH2 0x1F91 JUMP JUMPDEST PUSH0 DUP5 DUP2 MSTORE PUSH1 0x5 PUSH1 0x20 MSTORE PUSH1 0x40 SWAP1 KECCAK256 SLOAD SWAP1 SWAP6 POP PUSH2 0x97E PUSH1 0x1 PUSH1 0x1 PUSH1 0x80 SHL SUB DUP4 AND DUP9 PUSH2 0x1F7A JUMP JUMPDEST PUSH2 0x988 SWAP2 SWAP1 PUSH2 0x1F91 JUMP JUMPDEST SWAP4 POP DUP5 ISZERO DUP1 ISZERO PUSH2 0x996 JUMPI POP DUP4 ISZERO JUMPDEST ISZERO PUSH2 0x9BE JUMPI PUSH1 0x40 MLOAD PUSH4 0xD5DE6205 PUSH1 0xE0 SHL DUP2 MSTORE PUSH1 0x4 DUP2 ADD DUP7 SWAP1 MSTORE PUSH1 0x24 DUP2 ADD DUP6 SWAP1 MSTORE PUSH1 0x44 ADD PUSH2 0x68F JUMP JUMPDEST PUSH2 0x9C9 CALLER DUP5 DUP9 PUSH2 0x1083 JUMP JUMPDEST PUSH0 DUP4 DUP2 MSTORE PUSH1 0x5 PUSH1 0x20 MSTORE PUSH1 0x40 DUP2 KECCAK256 DUP1 SLOAD DUP9 SWAP3 SWAP1 PUSH2 0x9E6 SWAP1 DUP5 SWAP1 PUSH2 0x1F1D JUMP JUMPDEST SWAP1 SWAP2 SSTORE POP PUSH2 0xA09 SWAP1 POP PUSH1 0x5 DUP5 PUSH2 0x9FB DUP9 PUSH2 0x1FB0 JUMP JUMPDEST PUSH2 0xA04 DUP9 PUSH2 0x1FB0 JUMP JUMPDEST PUSH2 0x10F5 JUMP JUMPDEST PUSH2 0xA18 DUP11 DUP11 DUP8 DUP8 PUSH0 PUSH0 CALLER PUSH2 0x116A JUMP JUMPDEST POP POP POP SWAP6 POP SWAP6 SWAP4 POP POP POP POP JUMP JUMPDEST PUSH0 PUSH1 0x10 DUP3 PUSH1 0xFF AND LT PUSH2 0xA49 JUMPI PUSH1 0x40 MLOAD PUSH3 0x461BCD PUSH1 0xE5 SHL DUP2 MSTORE PUSH1 0x4 ADD PUSH2 0x68F SWAP1 PUSH2 0x1F43 JUMP JUMPDEST POP PUSH1 0xFF AND PUSH0 SWAP1 DUP2 MSTORE PUSH1 0x3 PUSH1 0x20 MSTORE PUSH1 0x40 SWAP1 KECCAK256 SLOAD PUSH1 0x1 PUSH1 0x1 PUSH1 0xA0 SHL SUB AND SWAP1 JUMP JUMPDEST PUSH0 PUSH0 PUSH2 0xA75 DUP10 DUP10 DUP10 DUP10 PUSH2 0x1061 JUMP JUMPDEST SWAP1 POP PUSH2 0xA93 DUP5 PUSH2 0xA85 JUMPI DUP9 PUSH2 0xA87 JUMP JUMPDEST DUP10 JUMPDEST PUSH0 DUP8 PUSH0 CALLVALUE PUSH1 0x1 CALLER PUSH2 0x116A JUMP JUMPDEST PUSH0 DUP2 DUP2 MSTORE PUSH1 0x6 PUSH1 0x20 MSTORE PUSH1 0x40 DUP2 KECCAK256 SLOAD DUP2 SWAP1 PUSH1 0x80 DUP2 SWAP1 SHR SWAP2 POP SWAP2 POP PUSH0 PUSH1 0x40 MLOAD DUP1 PUSH1 0xC0 ADD PUSH1 0x40 MSTORE DUP1 DUP14 PUSH1 0x1 PUSH1 0x1 PUSH1 0xA0 SHL SUB AND DUP2 MSTORE PUSH1 0x20 ADD DUP13 PUSH1 0x1 PUSH1 0x1 PUSH1 0xA0 SHL SUB AND DUP2 MSTORE PUSH1 0x20 ADD DUP12 PUSH1 0x1 PUSH1 0x1 PUSH1 0xA0 SHL SUB AND DUP2 MSTORE PUSH1 0x20 ADD PUSH1 0x1 PUSH8 0xFFFFFFFFFFFFFFFF DUP2 GT ISZERO PUSH2 0xAFF JUMPI PUSH2 0xAFF PUSH2 0x1FD4 JUMP JUMPDEST PUSH1 0x40 MLOAD SWAP1 DUP1 DUP3 MSTORE DUP1 PUSH1 0x20 MUL PUSH1 0x20 ADD DUP3 ADD PUSH1 0x40 MSTORE DUP1 ISZERO PUSH2 0xB28 JUMPI DUP2 PUSH1 0x20 ADD PUSH1 0x20 DUP3 MUL DUP1 CALLDATASIZE DUP4 CALLDATACOPY ADD SWAP1 POP JUMPDEST POP DUP2 MSTORE DUP9 ISZERO ISZERO PUSH1 0x20 DUP3 ADD MSTORE PUSH1 0x40 DUP1 MLOAD PUSH1 0x1 DUP1 DUP3 MSTORE DUP2 DUP4 ADD DUP4 MSTORE SWAP2 SWAP1 SWAP3 ADD SWAP2 SWAP1 DUP2 PUSH1 0x20 ADD PUSH1 0x20 DUP3 MUL DUP1 CALLDATASIZE DUP4 CALLDATACOPY ADD SWAP1 POP POP DUP2 MSTORE POP SWAP1 POP DUP8 DUP2 PUSH1 0x60 ADD MLOAD PUSH0 DUP2 MLOAD DUP2 LT PUSH2 0xB73 JUMPI PUSH2 0xB73 PUSH2 0x1FE8 JUMP JUMPDEST PUSH1 0x20 MUL PUSH1 0x20 ADD ADD DUP2 DUP2 MSTORE POP POP DUP9 DUP2 PUSH1 0xA0 ADD MLOAD PUSH0 DUP2 MLOAD DUP2 LT PUSH2 0xB96 JUMPI PUSH2 0xB96 PUSH2 0x1FE8 JUMP JUMPDEST PUSH1 0x1 PUSH1 0x1 PUSH1 0xE8 SHL SUB NOT SWAP1 SWAP3 AND PUSH1 0x20 SWAP3 DUP4 MUL SWAP2 SWAP1 SWAP2 ADD SWAP1 SWAP2 ADD MSTORE PUSH0 PUSH2 0xBBB DUP3 DUP6 DUP6 PUSH2 0x11C4 JUMP JUMPDEST POP SWAP1 POP PUSH0 DUP2 GT PUSH2 0xC0F JUMPI DUP8 PUSH2 0xBF4 JUMPI PUSH8 0x120A871CC0020000 PUSH2 0xBE5 DUP11 PUSH8 0xDE0B6B3A7640000 PUSH2 0x1F7A JUMP JUMPDEST PUSH2 0xBEF SWAP2 SWAP1 PUSH2 0x1F91 JUMP JUMPDEST PUSH2 0xC11 JUMP JUMPDEST PUSH8 0xDE0B6B3A7640000 PUSH2 0xBE5 DUP11 PUSH8 0x120A871CC0020000 PUSH2 0x1F7A JUMP JUMPDEST DUP1 JUMPDEST SWAP6 POP PUSH2 0xC1F DUP5 DUP5 DUP9 DUP12 PUSH2 0x15BD JUMP JUMPDEST DUP7 DUP7 LT ISZERO PUSH2 0xC4A JUMPI PUSH1 0x40 MLOAD PUSH4 0xD438755D PUSH1 0xE0 SHL DUP2 MSTORE PUSH1 0x4 DUP2 ADD DUP9 SWAP1 MSTORE PUSH1 0x24 DUP2 ADD DUP8 SWAP1 MSTORE PUSH1 0x44 ADD PUSH2 0x68F JUMP JUMPDEST PUSH2 0xC79 PUSH1 0x5 DUP7 DUP11 PUSH2 0xC63 JUMPI PUSH2 0xC5E DUP10 PUSH2 0x1FB0 JUMP JUMPDEST PUSH2 0xC65 JUMP JUMPDEST DUP12 JUMPDEST DUP12 PUSH2 0xC70 JUMPI DUP13 PUSH2 0x10F5 JUMP JUMPDEST PUSH2 0xA04 DUP11 PUSH2 0x1FB0 JUMP JUMPDEST PUSH2 0xC94 DUP9 PUSH2 0xC87 JUMPI DUP14 PUSH2 0xC89 JUMP JUMPDEST DUP13 JUMPDEST PUSH0 DUP9 PUSH0 PUSH0 PUSH0 CALLER PUSH2 0x116A JUMP JUMPDEST POP POP POP POP POP SWAP8 SWAP7 POP POP POP POP POP POP POP JUMP JUMPDEST PUSH0 PUSH0 PUSH2 0xCB2 DUP9 DUP9 DUP9 DUP9 PUSH2 0x1061 JUMP JUMPDEST PUSH0 DUP2 DUP2 MSTORE PUSH1 0x6 PUSH1 0x20 MSTORE PUSH1 0x40 DUP2 KECCAK256 SLOAD SWAP2 SWAP3 POP SWAP1 DUP2 SWAP1 PUSH1 0x80 DUP2 SWAP1 SHR SWAP2 POP SWAP2 POP PUSH0 PUSH1 0x40 MLOAD DUP1 PUSH1 0xC0 ADD PUSH1 0x40 MSTORE DUP1 DUP13 PUSH1 0x1 PUSH1 0x1 PUSH1 0xA0 SHL SUB AND DUP2 MSTORE PUSH1 0x20 ADD DUP12 PUSH1 0x1 PUSH1 0x1 PUSH1 0xA0 SHL SUB AND DUP2 MSTORE PUSH1 0x20 ADD DUP11 PUSH1 0x1 PUSH1 0x1 PUSH1 0xA0 SHL SUB AND DUP2 MSTORE PUSH1 0x20 ADD PUSH1 0x1 PUSH8 0xFFFFFFFFFFFFFFFF DUP2 GT ISZERO PUSH2 0xD22 JUMPI PUSH2 0xD22 PUSH2 0x1FD4 JUMP JUMPDEST PUSH1 0x40 MLOAD SWAP1 DUP1 DUP3 MSTORE DUP1 PUSH1 0x20 MUL PUSH1 0x20 ADD DUP3 ADD PUSH1 0x40 MSTORE DUP1 ISZERO PUSH2 0xD4B JUMPI DUP2 PUSH1 0x20 ADD PUSH1 0x20 DUP3 MUL DUP1 CALLDATASIZE DUP4 CALLDATACOPY ADD SWAP1 POP JUMPDEST POP DUP2 MSTORE PUSH1 0x1 PUSH1 0x20 DUP3 ADD DUP2 SWAP1 MSTORE PUSH1 0x40 DUP1 MLOAD DUP3 DUP2 MSTORE DUP1 DUP3 ADD DUP3 MSTORE SWAP3 ADD SWAP2 SWAP1 DUP2 PUSH1 0x20 ADD PUSH1 0x20 DUP3 MUL DUP1 CALLDATASIZE DUP4 CALLDATACOPY ADD SWAP1 POP POP DUP2 MSTORE POP SWAP1 POP DUP3 PUSH1 0x1 PUSH1 0x1 PUSH1 0x80 SHL SUB AND DUP2 PUSH1 0x60 ADD MLOAD PUSH0 DUP2 MLOAD DUP2 LT PUSH2 0xD9C JUMPI PUSH2 0xD9C PUSH2 0x1FE8 JUMP JUMPDEST PUSH1 0x20 MUL PUSH1 0x20 ADD ADD DUP2 DUP2 MSTORE POP POP DUP8 DUP2 PUSH1 0xA0 ADD MLOAD PUSH0 DUP2 MLOAD DUP2 LT PUSH2 0xDBF JUMPI PUSH2 0xDBF PUSH2 0x1FE8 JUMP JUMPDEST PUSH1 0x1 PUSH1 0x1 PUSH1 0xE8 SHL SUB NOT SWAP1 SWAP3 AND PUSH1 0x20 SWAP3 DUP4 MUL SWAP2 SWAP1 SWAP2 ADD SWAP1 SWAP2 ADD MSTORE PUSH0 PUSH2 0xDE4 DUP3 DUP6 DUP6 PUSH2 0x11C4 JUMP JUMPDEST POP SWAP1 POP DUP1 PUSH0 SUB PUSH2 0xDF9 JUMPI POP PUSH8 0x120A871CC0020000 JUMPDEST PUSH2 0xE09 PUSH1 0x5 DUP10 DUP10 DUP8 DUP8 DUP11 DUP8 PUSH2 0x1646 JUMP JUMPDEST SWAP6 POP PUSH2 0xE1B DUP13 DUP13 DUP11 DUP11 CALLVALUE PUSH1 0x1 CALLER PUSH2 0x116A JUMP JUMPDEST PUSH2 0xE28 PUSH1 0x5 DUP7 DUP11 DUP11 PUSH2 0x10F5 JUMP JUMPDEST PUSH2 0xE33 CALLER DUP7 DUP9 PUSH2 0x1727 JUMP JUMPDEST PUSH0 DUP6 DUP2 MSTORE PUSH1 0x5 PUSH1 0x20 MSTORE PUSH1 0x40 DUP2 KECCAK256 DUP1 SLOAD DUP9 SWAP3 SWAP1 PUSH2 0xE50 SWAP1 DUP5 SWAP1 PUSH2 0x1F30 JUMP JUMPDEST SWAP1 SWAP2 SSTORE POP SWAP6 SWAP13 SWAP12 POP POP POP POP POP POP POP POP POP POP POP POP JUMP JUMPDEST PUSH0 CALLER PUSH1 0x1 PUSH1 0x1 PUSH1 0xA0 SHL SUB DUP7 AND EQ DUP1 ISZERO SWAP1 PUSH2 0xEA0 JUMPI POP PUSH1 0x1 PUSH1 0x1 PUSH1 0xA0 SHL SUB DUP6 AND PUSH0 SWAP1 DUP2 MSTORE PUSH1 0x20 DUP2 DUP2 MSTORE PUSH1 0x40 DUP1 DUP4 KECCAK256 CALLER DUP5 MSTORE SWAP1 SWAP2 MSTORE SWAP1 KECCAK256 SLOAD PUSH1 0xFF AND ISZERO JUMPDEST ISZERO PUSH2 0xF10 JUMPI PUSH1 0x1 PUSH1 0x1 PUSH1 0xA0 SHL SUB DUP6 AND PUSH0 SWAP1 DUP2 MSTORE PUSH1 0x2 PUSH1 0x20 SWAP1 DUP2 MSTORE PUSH1 0x40 DUP1 DUP4 KECCAK256 CALLER DUP5 MSTORE DUP3 MSTORE DUP1 DUP4 KECCAK256 DUP7 DUP5 MSTORE SWAP1 SWAP2 MSTORE SWAP1 KECCAK256 SLOAD PUSH0 NOT DUP2 EQ PUSH2 0xF0E JUMPI PUSH2 0xEE2 DUP4 DUP3 PUSH2 0x1F1D JUMP JUMPDEST PUSH1 0x1 PUSH1 0x1 PUSH1 0xA0 SHL SUB DUP8 AND PUSH0 SWAP1 DUP2 MSTORE PUSH1 0x2 PUSH1 0x20 SWAP1 DUP2 MSTORE PUSH1 0x40 DUP1 DUP4 KECCAK256 CALLER DUP5 MSTORE DUP3 MSTORE DUP1 DUP4 KECCAK256 DUP9 DUP5 MSTORE SWAP1 SWAP2 MSTORE SWAP1 KECCAK256 SSTORE JUMPDEST POP JUMPDEST PUSH1 0x1 PUSH1 0x1 PUSH1 0xA0 SHL SUB DUP6 AND PUSH0 SWAP1 DUP2 MSTORE PUSH1 0x1 PUSH1 0x20 SWAP1 DUP2 MSTORE PUSH1 0x40 DUP1 DUP4 KECCAK256 DUP7 DUP5 MSTORE SWAP1 SWAP2 MSTORE DUP2 KECCAK256 DUP1 SLOAD DUP5 SWAP3 SWAP1 PUSH2 0xF42 SWAP1 DUP5 SWAP1 PUSH2 0x1F1D JUMP JUMPDEST SWAP1 SWAP2 SSTORE POP POP PUSH1 0x1 PUSH1 0x1 PUSH1 0xA0 SHL SUB DUP5 AND PUSH0 SWAP1 DUP2 MSTORE PUSH1 0x1 PUSH1 0x20 SWAP1 DUP2 MSTORE PUSH1 0x40 DUP1 DUP4 KECCAK256 DUP7 DUP5 MSTORE SWAP1 SWAP2 MSTORE DUP2 KECCAK256 DUP1 SLOAD DUP5 SWAP3 SWAP1 PUSH2 0xF79 SWAP1 DUP5 SWAP1 PUSH2 0x1F30 JUMP JUMPDEST SWAP1 SWAP2 SSTORE POP POP PUSH1 0x40 DUP1 MLOAD CALLER DUP2 MSTORE PUSH1 0x20 DUP2 ADD DUP5 SWAP1 MSTORE DUP5 SWAP2 PUSH1 0x1 PUSH1 0x1 PUSH1 0xA0 SHL SUB DUP1 DUP9 AND SWAP3 SWAP1 DUP10 AND SWAP2 PUSH0 MLOAD PUSH1 0x20 PUSH2 0x2341 PUSH0 CODECOPY PUSH0 MLOAD SWAP1 PUSH0 MSTORE SWAP2 ADD PUSH1 0x40 MLOAD DUP1 SWAP2 SUB SWAP1 LOG4 POP PUSH1 0x1 SWAP5 SWAP4 POP POP POP POP JUMP JUMPDEST PUSH0 PUSH0 PUSH0 DUP6 PUSH1 0x1 PUSH1 0x1 PUSH1 0xA0 SHL SUB AND DUP8 PUSH1 0x1 PUSH1 0x1 PUSH1 0xA0 SHL SUB AND LT PUSH2 0xFE4 JUMPI DUP6 DUP8 PUSH2 0xFE7 JUMP JUMPDEST DUP7 DUP7 JUMPDEST SWAP2 POP SWAP2 POP PUSH2 0xFF7 DUP3 DUP3 DUP8 DUP8 PUSH2 0x1061 JUMP JUMPDEST PUSH1 0x40 DUP1 MLOAD PUSH1 0x1 PUSH1 0x1 PUSH1 0xA0 SHL SUB DUP6 DUP2 AND DUP3 MSTORE DUP5 DUP2 AND PUSH1 0x20 DUP4 ADD MSTORE DUP9 AND DUP2 DUP4 ADD MSTORE PUSH1 0x1 PUSH1 0x1 PUSH1 0xE8 SHL SUB NOT DUP8 AND PUSH1 0x60 DUP3 ADD MSTORE SWAP1 MLOAD SWAP2 SWAP5 POP DUP5 SWAP2 PUSH32 0x68DF9A4EB7AACBE8F43763BFBC9F7CA135A5397190EA1CCE2558DB52DC2F3692 SWAP2 DUP2 SWAP1 SUB PUSH1 0x80 ADD SWAP1 LOG2 POP POP SWAP5 SWAP4 POP POP POP POP JUMP JUMPDEST PUSH1 0x40 DUP1 MLOAD SWAP5 DUP6 MSTORE PUSH1 0x20 DUP6 ADD SWAP4 SWAP1 SWAP4 MSTORE SWAP2 DUP4 ADD MSTORE PUSH1 0x60 SWAP1 SWAP2 KECCAK256 PUSH3 0xFFFFFF NOT AND OR SWAP1 JUMP JUMPDEST PUSH1 0x1 PUSH1 0x1 PUSH1 0xA0 SHL SUB DUP4 AND PUSH0 SWAP1 DUP2 MSTORE PUSH1 0x1 PUSH1 0x20 SWAP1 DUP2 MSTORE PUSH1 0x40 DUP1 DUP4 KECCAK256 DUP6 DUP5 MSTORE SWAP1 SWAP2 MSTORE DUP2 KECCAK256 DUP1 SLOAD DUP4 SWAP3 SWAP1 PUSH2 0x10B5 SWAP1 DUP5 SWAP1 PUSH2 0x1F1D JUMP JUMPDEST SWAP1 SWAP2 SSTORE POP POP PUSH1 0x40 DUP1 MLOAD CALLER DUP2 MSTORE PUSH1 0x20 DUP2 ADD DUP4 SWAP1 MSTORE DUP4 SWAP2 PUSH0 SWAP2 PUSH1 0x1 PUSH1 0x1 PUSH1 0xA0 SHL SUB DUP8 AND SWAP2 PUSH0 MLOAD PUSH1 0x20 PUSH2 0x2341 PUSH0 CODECOPY PUSH0 MLOAD SWAP1 PUSH0 MSTORE SWAP2 ADD JUMPDEST PUSH1 0x40 MLOAD DUP1 SWAP2 SUB SWAP1 LOG4 POP POP POP JUMP JUMPDEST PUSH0 DUP4 DUP2 MSTORE PUSH1 0x1 DUP6 ADD PUSH1 0x20 MSTORE PUSH1 0x40 SWAP1 KECCAK256 SLOAD DUP1 PUSH1 0x80 DUP2 SWAP1 SHR PUSH2 0x1115 DUP6 DUP4 PUSH2 0x1FFC JUMP JUMPDEST SWAP2 POP PUSH2 0x1121 DUP5 DUP3 PUSH2 0x1FFC JUMP JUMPDEST SWAP1 POP PUSH1 0x1 PUSH1 0x1 PUSH1 0x80 SHL SUB DUP3 AND PUSH16 0xFFFFFFFFFFFFFFFFFFFFFFFFFFFFFFFF NOT PUSH1 0x80 DUP4 SWAP1 SHL AND OR DUP4 DUP2 EQ PUSH2 0x1160 JUMPI PUSH0 DUP8 DUP2 MSTORE PUSH1 0x1 DUP10 ADD PUSH1 0x20 MSTORE PUSH1 0x40 SWAP1 KECCAK256 DUP2 SWAP1 SSTORE JUMPDEST POP POP POP POP POP POP POP POP JUMP JUMPDEST DUP2 ISZERO PUSH2 0x1199 JUMPI DUP5 ISZERO PUSH2 0x1182 JUMPI PUSH2 0x1182 DUP8 DUP3 DUP8 DUP7 PUSH2 0x1790 JUMP JUMPDEST DUP4 ISZERO PUSH2 0x1194 JUMPI PUSH2 0x1194 DUP7 DUP3 DUP7 PUSH0 PUSH2 0x1790 JUMP JUMPDEST PUSH2 0x11BB JUMP JUMPDEST DUP5 ISZERO PUSH2 0x11AA JUMPI PUSH2 0x11AA DUP8 DUP3 DUP8 PUSH2 0x18DD JUMP JUMPDEST DUP4 ISZERO PUSH2 0x11BB JUMPI PUSH2 0x11BB DUP7 DUP3 DUP7 PUSH2 0x18DD JUMP JUMPDEST POP POP POP POP POP POP POP JUMP JUMPDEST PUSH0 PUSH0 PUSH2 0x11FA DUP6 PUSH0 ADD MLOAD DUP7 PUSH1 0x20 ADD MLOAD DUP8 PUSH1 0x40 ADD MLOAD DUP9 PUSH1 0xA0 ADD MLOAD PUSH0 DUP2 MLOAD DUP2 LT PUSH2 0x11ED JUMPI PUSH2 0x11ED PUSH2 0x1FE8 JUMP JUMPDEST PUSH1 0x20 MUL PUSH1 0x20 ADD ADD MLOAD PUSH2 0x1061 JUMP JUMPDEST SWAP1 POP PUSH0 PUSH20 0x0 PUSH4 0x3BDE530E DUP8 PUSH1 0xA0 ADD MLOAD PUSH0 DUP2 MLOAD DUP2 LT PUSH2 0x122D JUMPI PUSH2 0x122D PUSH2 0x1FE8 JUMP JUMPDEST PUSH1 0x20 MUL PUSH1 0x20 ADD ADD MLOAD PUSH1 0x40 MLOAD DUP3 PUSH4 0xFFFFFFFF AND PUSH1 0xE0 SHL DUP2 MSTORE PUSH1 0x4 ADD PUSH2 0x1261 SWAP2 SWAP1 PUSH1 0x1 PUSH1 0x1 PUSH1 0xE8 SHL SUB NOT SWAP2 SWAP1 SWAP2 AND DUP2 MSTORE PUSH1 0x20 ADD SWAP1 JUMP JUMPDEST PUSH1 0xE0 PUSH1 0x40 MLOAD DUP1 DUP4 SUB DUP2 DUP7 GAS DELEGATECALL ISZERO DUP1 ISZERO PUSH2 0x127C JUMPI RETURNDATASIZE PUSH0 PUSH0 RETURNDATACOPY RETURNDATASIZE PUSH0 REVERT JUMPDEST POP POP POP POP PUSH1 0x40 MLOAD RETURNDATASIZE PUSH1 0x1F NOT PUSH1 0x1F DUP3 ADD AND DUP3 ADD DUP1 PUSH1 0x40 MSTORE POP DUP2 ADD SWAP1 PUSH2 0x12A0 SWAP2 SWAP1 PUSH2 0x20A8 JUMP JUMPDEST SWAP1 POP PUSH0 PUSH1 0x40 MLOAD DUP1 PUSH2 0x100 ADD PUSH1 0x40 MSTORE DUP1 DUP9 PUSH0 ADD MLOAD PUSH1 0x1 PUSH1 0x1 PUSH1 0xA0 SHL SUB AND DUP2 MSTORE PUSH1 0x20 ADD DUP9 PUSH1 0x20 ADD MLOAD PUSH1 0x1 PUSH1 0x1 PUSH1 0xA0 SHL SUB AND DUP2 MSTORE PUSH1 0x20 ADD DUP9 PUSH1 0x40 ADD MLOAD PUSH1 0x1 PUSH1 0x1 PUSH1 0xA0 SHL SUB AND DUP2 MSTORE PUSH1 0x20 ADD DUP9 PUSH1 0x60 ADD MLOAD PUSH0 DUP2 MLOAD DUP2 LT PUSH2 0x12FD JUMPI PUSH2 0x12FD PUSH2 0x1FE8 JUMP JUMPDEST PUSH1 0x20 MUL PUSH1 0x20 ADD ADD MLOAD DUP2 MSTORE PUSH1 0x20 ADD DUP8 PUSH1 0x1 PUSH1 0x1 PUSH1 0x80 SHL SUB AND DUP2 MSTORE PUSH1 0x20 ADD DUP7 PUSH1 0x1 PUSH1 0x1 PUSH1 0x80 SHL SUB AND DUP2 MSTORE PUSH1 0x20 ADD DUP4 PUSH1 0xC0 ADD MLOAD PUSH2 0xFFFF AND DUP2 MSTORE PUSH1 0x20 ADD DUP9 PUSH1 0x80 ADD MLOAD ISZERO ISZERO DUP2 MSTORE POP SWAP1 POP PUSH0 DUP3 PUSH1 0x40 ADD MLOAD PUSH2 0x1370 JUMPI PUSH1 0x80 DUP4 ADD MLOAD PUSH1 0xFF AND PUSH0 SWAP1 DUP2 MSTORE PUSH1 0x3 PUSH1 0x20 MSTORE PUSH1 0x40 SWAP1 KECCAK256 SLOAD PUSH1 0x1 PUSH1 0x1 PUSH1 0xA0 SHL SUB AND PUSH2 0x1392 JUMP JUMPDEST PUSH32 0x0 JUMPDEST SWAP1 POP PUSH0 DUP4 PUSH1 0x60 ADD MLOAD PUSH2 0x13C2 JUMPI PUSH1 0xA0 DUP5 ADD MLOAD PUSH1 0xFF AND PUSH0 SWAP1 DUP2 MSTORE PUSH1 0x4 PUSH1 0x20 MSTORE PUSH1 0x40 SWAP1 KECCAK256 SLOAD PUSH1 0x1 PUSH1 0x1 PUSH1 0xA0 SHL SUB AND PUSH2 0x13E4 JUMP JUMPDEST PUSH32 0x0 JUMPDEST DUP5 MLOAD SWAP1 SWAP2 POP DUP1 ISZERO PUSH2 0x13F6 JUMPI POP DUP4 PUSH1 0x20 ADD MLOAD JUMPDEST ISZERO PUSH2 0x1488 JUMPI DUP3 PUSH1 0x40 ADD MLOAD PUSH1 0x1 PUSH1 0x1 PUSH1 0xA0 SHL SUB AND PUSH4 0x3DD785A DUP5 PUSH2 0x1419 DUP6 DUP8 PUSH2 0x19D7 JUMP JUMPDEST PUSH2 0x1423 DUP6 DUP9 PUSH2 0x19D7 JUMP JUMPDEST PUSH1 0x40 MLOAD DUP5 PUSH4 0xFFFFFFFF AND PUSH1 0xE0 SHL DUP2 MSTORE PUSH1 0x4 ADD PUSH2 0x1441 SWAP4 SWAP3 SWAP2 SWAP1 PUSH2 0x2202 JUMP JUMPDEST PUSH1 0x20 PUSH1 0x40 MLOAD DUP1 DUP4 SUB DUP2 PUSH0 DUP8 GAS CALL ISZERO DUP1 ISZERO PUSH2 0x145D JUMPI RETURNDATASIZE PUSH0 PUSH0 RETURNDATACOPY RETURNDATASIZE PUSH0 REVERT JUMPDEST POP POP POP POP PUSH1 0x40 MLOAD RETURNDATASIZE PUSH1 0x1F NOT PUSH1 0x1F DUP3 ADD AND DUP3 ADD DUP1 PUSH1 0x40 MSTORE POP DUP2 ADD SWAP1 PUSH2 0x1481 SWAP2 SWAP1 PUSH2 0x2241 JUMP JUMPDEST SWAP6 POP PUSH2 0x15B1 JUMP JUMPDEST DUP4 MLOAD ISZERO DUP1 ISZERO PUSH2 0x1499 JUMPI POP DUP4 PUSH1 0x20 ADD MLOAD ISZERO JUMPDEST ISZERO PUSH2 0x14CE JUMPI DUP3 PUSH1 0x40 ADD MLOAD PUSH1 0x1 PUSH1 0x1 PUSH1 0xA0 SHL SUB AND PUSH4 0x583C12F4 DUP5 PUSH1 0x40 MLOAD DUP3 PUSH4 0xFFFFFFFF AND PUSH1 0xE0 SHL DUP2 MSTORE PUSH1 0x4 ADD PUSH2 0x1441 SWAP2 SWAP1 PUSH2 0x2258 JUMP JUMPDEST DUP4 MLOAD DUP1 ISZERO PUSH2 0x14DE JUMPI POP DUP4 PUSH1 0x20 ADD MLOAD ISZERO JUMPDEST ISZERO PUSH2 0x151E JUMPI DUP3 PUSH1 0x40 ADD MLOAD PUSH1 0x1 PUSH1 0x1 PUSH1 0xA0 SHL SUB AND PUSH4 0x5E3344D0 DUP5 PUSH2 0x1501 DUP6 DUP8 PUSH2 0x19D7 JUMP JUMPDEST PUSH1 0x40 MLOAD DUP4 PUSH4 0xFFFFFFFF AND PUSH1 0xE0 SHL DUP2 MSTORE PUSH1 0x4 ADD PUSH2 0x1441 SWAP3 SWAP2 SWAP1 PUSH2 0x2267 JUMP JUMPDEST DUP4 MLOAD ISZERO DUP1 ISZERO PUSH2 0x152E JUMPI POP DUP4 PUSH1 0x20 ADD MLOAD JUMPDEST ISZERO PUSH2 0x15B1 JUMPI DUP3 PUSH1 0x40 ADD MLOAD PUSH1 0x1 PUSH1 0x1 PUSH1 0xA0 SHL SUB AND PUSH4 0x5E3344D0 DUP5 PUSH2 0x1551 DUP5 DUP8 PUSH2 0x19D7 JUMP JUMPDEST PUSH1 0x40 MLOAD DUP4 PUSH4 0xFFFFFFFF AND PUSH1 0xE0 SHL DUP2 MSTORE PUSH1 0x4 ADD PUSH2 0x156E SWAP3 SWAP2 SWAP1 PUSH2 0x2267 JUMP JUMPDEST PUSH1 0x20 PUSH1 0x40 MLOAD DUP1 DUP4 SUB DUP2 PUSH0 DUP8 GAS CALL ISZERO DUP1 ISZERO PUSH2 0x158A JUMPI RETURNDATASIZE PUSH0 PUSH0 RETURNDATACOPY RETURNDATASIZE PUSH0 REVERT JUMPDEST POP POP POP POP PUSH1 0x40 MLOAD RETURNDATASIZE PUSH1 0x1F NOT PUSH1 0x1F DUP3 ADD AND DUP3 ADD DUP1 PUSH1 0x40 MSTORE POP DUP2 ADD SWAP1 PUSH2 0x15AE SWAP2 SWAP1 PUSH2 0x2241 JUMP JUMPDEST SWAP6 POP JUMPDEST POP POP POP POP SWAP4 POP SWAP4 SWAP2 POP POP JUMP JUMPDEST DUP1 ISZERO PUSH2 0x1604 JUMPI DUP2 DUP4 PUSH1 0x1 PUSH1 0x1 PUSH1 0x80 SHL SUB AND LT ISZERO PUSH2 0x15FF JUMPI PUSH1 0x40 MLOAD PUSH4 0x1735867 PUSH1 0xE0 SHL DUP2 MSTORE PUSH1 0x4 DUP2 ADD DUP4 SWAP1 MSTORE PUSH1 0x1 PUSH1 0x1 PUSH1 0x80 SHL SUB DUP5 AND PUSH1 0x24 DUP3 ADD MSTORE PUSH1 0x44 ADD PUSH2 0x68F JUMP JUMPDEST PUSH2 0x1640 JUMP JUMPDEST DUP2 DUP5 PUSH1 0x1 PUSH1 0x1 PUSH1 0x80 SHL SUB AND LT ISZERO PUSH2 0x1640 JUMPI PUSH1 0x40 MLOAD PUSH4 0x68580A19 PUSH1 0xE0 SHL DUP2 MSTORE PUSH1 0x4 DUP2 ADD DUP4 SWAP1 MSTORE PUSH1 0x1 PUSH1 0x1 PUSH1 0x80 SHL SUB DUP6 AND PUSH1 0x24 DUP3 ADD MSTORE PUSH1 0x44 ADD PUSH2 0x68F JUMP JUMPDEST POP POP POP POP JUMP JUMPDEST PUSH0 DUP1 PUSH8 0xDE0B6B3A7640000 PUSH2 0x165B DUP5 DUP10 PUSH2 0x1F7A JUMP JUMPDEST PUSH2 0x1665 SWAP2 SWAP1 PUSH2 0x1F91 JUMP JUMPDEST PUSH2 0x166F SWAP1 DUP10 PUSH2 0x1F30 JUMP JUMPDEST SWAP1 POP PUSH0 PUSH8 0xDE0B6B3A7640000 PUSH2 0x168E DUP6 PUSH1 0x1 PUSH1 0x1 PUSH1 0x80 SHL SUB DUP10 AND PUSH2 0x1F7A JUMP JUMPDEST PUSH2 0x1698 SWAP2 SWAP1 PUSH2 0x1F91 JUMP JUMPDEST PUSH2 0x16AB SWAP1 PUSH1 0x1 PUSH1 0x1 PUSH1 0x80 SHL SUB DUP10 AND PUSH2 0x1F30 JUMP JUMPDEST PUSH0 DUP7 DUP2 MSTORE PUSH1 0x20 DUP13 SWAP1 MSTORE PUSH1 0x40 SWAP1 KECCAK256 SLOAD SWAP1 SWAP2 POP ISZERO DUP1 PUSH2 0x16C6 JUMPI POP DUP1 ISZERO JUMPDEST ISZERO PUSH2 0x16D3 JUMPI DUP2 SWAP3 POP PUSH2 0x16FA JUMP JUMPDEST PUSH0 DUP6 DUP2 MSTORE PUSH1 0x20 DUP12 SWAP1 MSTORE PUSH1 0x40 SWAP1 KECCAK256 SLOAD DUP2 SWAP1 PUSH2 0x16ED SWAP1 DUP5 PUSH2 0x1F7A JUMP JUMPDEST PUSH2 0x16F7 SWAP2 SWAP1 PUSH2 0x1F91 JUMP JUMPDEST SWAP3 POP JUMPDEST DUP3 PUSH0 SUB PUSH2 0x171A JUMPI PUSH1 0x40 MLOAD PUSH4 0x283EEADF PUSH1 0xE0 SHL DUP2 MSTORE PUSH1 0x4 ADD PUSH1 0x40 MLOAD DUP1 SWAP2 SUB SWAP1 REVERT JUMPDEST POP POP SWAP8 SWAP7 POP POP POP POP POP POP POP JUMP JUMPDEST PUSH1 0x1 PUSH1 0x1 PUSH1 0xA0 SHL SUB DUP4 AND PUSH0 SWAP1 DUP2 MSTORE PUSH1 0x1 PUSH1 0x20 SWAP1 DUP2 MSTORE PUSH1 0x40 DUP1 DUP4 KECCAK256 DUP6 DUP5 MSTORE SWAP1 SWAP2 MSTORE DUP2 KECCAK256 DUP1 SLOAD DUP4 SWAP3 SWAP1 PUSH2 0x1759 SWAP1 DUP5 SWAP1 PUSH2 0x1F30 JUMP JUMPDEST SWAP1 SWAP2 SSTORE POP POP PUSH1 0x40 DUP1 MLOAD CALLER DUP2 MSTORE PUSH1 0x20 DUP2 ADD DUP4 SWAP1 MSTORE DUP4 SWAP2 PUSH1 0x1 PUSH1 0x1 PUSH1 0xA0 SHL SUB DUP7 AND SWAP2 PUSH0 SWAP2 PUSH0 MLOAD PUSH1 0x20 PUSH2 0x2341 PUSH0 CODECOPY PUSH0 MLOAD SWAP1 PUSH0 MSTORE SWAP2 ADD PUSH2 0x10E8 JUMP JUMPDEST PUSH1 0x1 PUSH1 0x1 PUSH1 0xA0 SHL SUB DUP5 AND PUSH2 0x17E2 JUMPI DUP2 DUP2 EQ PUSH2 0x15FF JUMPI PUSH1 0x40 MLOAD PUSH3 0x461BCD PUSH1 0xE5 SHL DUP2 MSTORE PUSH1 0x20 PUSH1 0x4 DUP3 ADD MSTORE PUSH1 0x12 PUSH1 0x24 DUP3 ADD MSTORE PUSH18 0x125B98DBDC9C9958DD08115512081CD95B9D PUSH1 0x72 SHL PUSH1 0x44 DUP3 ADD MSTORE PUSH1 0x64 ADD PUSH2 0x68F JUMP JUMPDEST DUP1 ISZERO PUSH2 0x1823 JUMPI PUSH1 0x40 MLOAD PUSH3 0x461BCD PUSH1 0xE5 SHL DUP2 MSTORE PUSH1 0x20 PUSH1 0x4 DUP3 ADD MSTORE PUSH1 0x10 PUSH1 0x24 DUP3 ADD MSTORE PUSH16 0x115512081B9BDD08195E1C1958DD1959 PUSH1 0x82 SHL PUSH1 0x44 DUP3 ADD MSTORE PUSH1 0x64 ADD PUSH2 0x68F JUMP JUMPDEST PUSH1 0x40 MLOAD PUSH4 0x23B872DD PUSH1 0xE0 SHL DUP2 MSTORE PUSH1 0x1 PUSH1 0x1 PUSH1 0xA0 SHL SUB DUP5 DUP2 AND PUSH1 0x4 DUP4 ADD MSTORE ADDRESS PUSH1 0x24 DUP4 ADD MSTORE PUSH1 0x44 DUP3 ADD DUP5 SWAP1 MSTORE DUP6 AND SWAP1 PUSH4 0x23B872DD SWAP1 PUSH1 0x64 ADD PUSH1 0x20 PUSH1 0x40 MLOAD DUP1 DUP4 SUB DUP2 PUSH0 DUP8 GAS CALL ISZERO DUP1 ISZERO PUSH2 0x1875 JUMPI RETURNDATASIZE PUSH0 PUSH0 RETURNDATACOPY RETURNDATASIZE PUSH0 REVERT JUMPDEST POP POP POP POP PUSH1 0x40 MLOAD RETURNDATASIZE PUSH1 0x1F NOT PUSH1 0x1F DUP3 ADD AND DUP3 ADD DUP1 PUSH1 0x40 MSTORE POP DUP2 ADD SWAP1 PUSH2 0x1899 SWAP2 SWAP1 PUSH2 0x2291 JUMP JUMPDEST PUSH2 0x1640 JUMPI PUSH1 0x40 MLOAD PUSH3 0x461BCD PUSH1 0xE5 SHL DUP2 MSTORE PUSH1 0x20 PUSH1 0x4 DUP3 ADD MSTORE PUSH1 0x15 PUSH1 0x24 DUP3 ADD MSTORE PUSH21 0x115490CC8C081D1C985B9CD9995C8819985A5B1959 PUSH1 0x5A SHL PUSH1 0x44 DUP3 ADD MSTORE PUSH1 0x64 ADD PUSH2 0x68F JUMP JUMPDEST PUSH1 0x1 PUSH1 0x1 PUSH1 0xA0 SHL SUB DUP4 AND PUSH2 0x191E JUMPI PUSH1 0x40 MLOAD PUSH1 0x1 PUSH1 0x1 PUSH1 0xA0 SHL SUB DUP4 AND SWAP1 DUP3 ISZERO PUSH2 0x8FC MUL SWAP1 DUP4 SWAP1 PUSH0 DUP2 DUP2 DUP2 DUP6 DUP9 DUP9 CALL SWAP4 POP POP POP POP ISZERO DUP1 ISZERO PUSH2 0x1640 JUMPI RETURNDATASIZE PUSH0 PUSH0 RETURNDATACOPY RETURNDATASIZE PUSH0 REVERT JUMPDEST PUSH1 0x40 MLOAD PUSH4 0xA9059CBB PUSH1 0xE0 SHL DUP2 MSTORE PUSH1 0x1 PUSH1 0x1 PUSH1 0xA0 SHL SUB DUP4 DUP2 AND PUSH1 0x4 DUP4 ADD MSTORE PUSH1 0x24 DUP3 ADD DUP4 SWAP1 MSTORE DUP5 AND SWAP1 PUSH4 0xA9059CBB SWAP1 PUSH1 0x44 ADD PUSH1 0x20 PUSH1 0x40 MLOAD DUP1 DUP4 SUB DUP2 PUSH0 DUP8 GAS CALL ISZERO DUP1 ISZERO PUSH2 0x196A JUMPI RETURNDATASIZE PUSH0 PUSH0 RETURNDATACOPY RETURNDATASIZE PUSH0 REVERT JUMPDEST POP POP POP POP PUSH1 0x40 MLOAD RETURNDATASIZE PUSH1 0x1F NOT PUSH1 0x1F DUP3 ADD AND DUP3 ADD DUP1 PUSH1 0x40 MSTORE POP DUP2 ADD SWAP1 PUSH2 0x198E SWAP2 SWAP1 PUSH2 0x2291 JUMP JUMPDEST PUSH2 0x19D2 JUMPI PUSH1 0x40 MLOAD PUSH3 0x461BCD PUSH1 0xE5 SHL DUP2 MSTORE PUSH1 0x20 PUSH1 0x4 DUP3 ADD MSTORE PUSH1 0x15 PUSH1 0x24 DUP3 ADD MSTORE PUSH21 0x115490CC8C081D1C985B9CD9995C8819985A5B1959 PUSH1 0x5A SHL PUSH1 0x44 DUP3 ADD MSTORE PUSH1 0x64 ADD PUSH2 0x68F JUMP JUMPDEST POP POP POP JUMP JUMPDEST PUSH1 0x60 PUSH2 0x19EB DUP4 PUSH1 0x1 PUSH1 0x1 PUSH1 0xA0 SHL SUB AND PUSH2 0x1A78 JUMP JUMPDEST SWAP1 POP DUP1 MLOAD PUSH0 SUB PUSH2 0x52A JUMPI PUSH1 0x40 MLOAD PUSH4 0x3BD1104B PUSH1 0xE0 SHL DUP2 MSTORE PUSH1 0x1 PUSH1 0x1 PUSH1 0xA0 SHL SUB DUP5 AND SWAP1 PUSH4 0x3BD1104B SWAP1 PUSH2 0x1A21 SWAP1 DUP6 SWAP1 PUSH1 0x4 ADD PUSH2 0x2258 JUMP JUMPDEST PUSH0 PUSH1 0x40 MLOAD DUP1 DUP4 SUB DUP2 PUSH0 DUP8 GAS CALL ISZERO DUP1 ISZERO PUSH2 0x1A3C JUMPI RETURNDATASIZE PUSH0 PUSH0 RETURNDATACOPY RETURNDATASIZE PUSH0 REVERT JUMPDEST POP POP POP POP PUSH1 0x40 MLOAD RETURNDATASIZE PUSH0 DUP3 RETURNDATACOPY PUSH1 0x1F RETURNDATASIZE SWAP1 DUP2 ADD PUSH1 0x1F NOT AND DUP3 ADD PUSH1 0x40 MSTORE PUSH2 0x1A63 SWAP2 SWAP1 DUP2 ADD SWAP1 PUSH2 0x22AC JUMP JUMPDEST SWAP1 POP PUSH2 0x52A PUSH1 0x1 PUSH1 0x1 PUSH1 0xA0 SHL SUB DUP5 AND DUP3 PUSH2 0x1AE9 JUMP JUMPDEST PUSH1 0x60 PUSH1 0x20 DUP3 ADD PUSH0 KECCAK256 DUP1 TLOAD DUP1 PUSH2 0x1A9B JUMPI PUSH1 0x40 MLOAD SWAP3 POP PUSH0 DUP4 MSTORE PUSH1 0x20 DUP4 ADD PUSH1 0x40 MSTORE PUSH1 0x20 DUP4 RETURN JUMPDEST PUSH1 0x40 MLOAD SWAP3 POP DUP1 DUP4 MSTORE PUSH0 PUSH1 0x20 DUP3 MOD GT PUSH1 0x20 DUP3 DIV ADD SWAP1 POP PUSH1 0x20 DUP2 MUL PUSH1 0x20 DUP5 ADD ADD PUSH1 0x40 MSTORE PUSH1 0x20 DUP4 ADD PUSH0 JUMPDEST DUP3 DUP2 LT ISZERO PUSH2 0x1AE0 JUMPI PUSH1 0x1 DUP2 DUP6 ADD DUP2 ADD TLOAD DUP4 MSTORE PUSH1 0x20 SWAP1 SWAP3 ADD SWAP2 ADD PUSH2 0x1AC2 JUMP JUMPDEST POP POP POP POP SWAP2 SWAP1 POP JUMP JUMPDEST PUSH1 0x20 DUP3 ADD PUSH0 KECCAK256 DUP2 MLOAD DUP1 DUP3 TSTORE PUSH1 0x20 DUP4 ADD DUP2 DUP2 ADD SWAP2 POP PUSH0 JUMPDEST DUP3 DUP3 LT ISZERO PUSH2 0x1B1F JUMPI DUP2 MLOAD PUSH1 0x1 DUP3 ADD DUP6 ADD TSTORE PUSH1 0x20 SWAP2 SWAP1 SWAP2 ADD SWAP1 PUSH1 0x1 ADD PUSH2 0x1AFF JUMP JUMPDEST POP POP POP POP POP POP JUMP JUMPDEST DUP1 CALLDATALOAD PUSH1 0x1 PUSH1 0x1 PUSH1 0xA0 SHL SUB DUP2 AND DUP2 EQ PUSH2 0x1B3D JUMPI PUSH0 PUSH0 REVERT JUMPDEST SWAP2 SWAP1 POP JUMP JUMPDEST PUSH0 PUSH0 PUSH1 0x40 DUP4 DUP6 SUB SLT ISZERO PUSH2 0x1B53 JUMPI PUSH0 PUSH0 REVERT JUMPDEST PUSH2 0x1B5C DUP4 PUSH2 0x1B27 JUMP JUMPDEST SWAP5 PUSH1 0x20 SWAP4 SWAP1 SWAP4 ADD CALLDATALOAD SWAP4 POP POP POP JUMP JUMPDEST PUSH0 PUSH1 0x20 DUP3 DUP5 SUB SLT ISZERO PUSH2 0x1B7A JUMPI PUSH0 PUSH0 REVERT JUMPDEST DUP2 CALLDATALOAD PUSH1 0x1 PUSH1 0x1 PUSH1 0xE0 SHL SUB NOT DUP2 AND DUP2 EQ PUSH2 0x1B91 JUMPI PUSH0 PUSH0 REVERT JUMPDEST SWAP4 SWAP3 POP POP POP JUMP JUMPDEST PUSH0 PUSH0 PUSH0 PUSH1 0x60 DUP5 DUP7 SUB SLT ISZERO PUSH2 0x1BAA JUMPI PUSH0 PUSH0 REVERT JUMPDEST PUSH2 0x1BB3 DUP5 PUSH2 0x1B27 JUMP JUMPDEST SWAP6 PUSH1 0x20 DUP6 ADD CALLDATALOAD SWAP6 POP PUSH1 0x40 SWAP1 SWAP5 ADD CALLDATALOAD SWAP4 SWAP3 POP POP POP JUMP JUMPDEST PUSH1 0xFF DUP2 AND DUP2 EQ PUSH2 0x1BD6 JUMPI PUSH0 PUSH0 REVERT JUMPDEST POP JUMP JUMPDEST PUSH0 PUSH0 PUSH1 0x40 DUP4 DUP6 SUB SLT ISZERO PUSH2 0x1BEA JUMPI PUSH0 PUSH0 REVERT JUMPDEST DUP3 CALLDATALOAD PUSH2 0x1BF5 DUP2 PUSH2 0x1BC8 JUMP JUMPDEST SWAP2 POP PUSH2 0x1C03 PUSH1 0x20 DUP5 ADD PUSH2 0x1B27 JUMP JUMPDEST SWAP1 POP SWAP3 POP SWAP3 SWAP1 POP JUMP JUMPDEST DUP1 ISZERO ISZERO DUP2 EQ PUSH2 0x1BD6 JUMPI PUSH0 PUSH0 REVERT JUMPDEST PUSH0 PUSH0 PUSH1 0x40 DUP4 DUP6 SUB SLT ISZERO PUSH2 0x1C2A JUMPI PUSH0 PUSH0 REVERT JUMPDEST PUSH2 0x1C33 DUP4 PUSH2 0x1B27 JUMP JUMPDEST SWAP2 POP PUSH1 0x20 DUP4 ADD CALLDATALOAD PUSH2 0x1C43 DUP2 PUSH2 0x1C0C JUMP JUMPDEST DUP1 SWAP2 POP POP SWAP3 POP SWAP3 SWAP1 POP JUMP JUMPDEST DUP1 CALLDATALOAD PUSH1 0x1 PUSH1 0x1 PUSH1 0xE8 SHL SUB NOT DUP2 AND DUP2 EQ PUSH2 0x1B3D JUMPI PUSH0 PUSH0 REVERT JUMPDEST PUSH0 PUSH0 PUSH0 PUSH0 PUSH1 0x80 DUP6 DUP8 SUB SLT ISZERO PUSH2 0x1C78 JUMPI PUSH0 PUSH0 REVERT JUMPDEST PUSH2 0x1C81 DUP6 PUSH2 0x1B27 JUMP JUMPDEST SWAP4 POP PUSH2 0x1C8F PUSH1 0x20 DUP7 ADD PUSH2 0x1B27 JUMP JUMPDEST SWAP3 POP PUSH2 0x1C9D PUSH1 0x40 DUP7 ADD PUSH2 0x1B27 JUMP JUMPDEST SWAP2 POP PUSH2 0x1CAB PUSH1 0x60 DUP7 ADD PUSH2 0x1C4E JUMP JUMPDEST SWAP1 POP SWAP3 SWAP6 SWAP2 SWAP5 POP SWAP3 POP JUMP JUMPDEST PUSH0 PUSH0 PUSH0 PUSH1 0x60 DUP5 DUP7 SUB SLT ISZERO PUSH2 0x1CC8 JUMPI PUSH0 PUSH0 REVERT JUMPDEST PUSH2 0x1CD1 DUP5 PUSH2 0x1B27 JUMP JUMPDEST SWAP3 POP PUSH2 0x1CDF PUSH1 0x20 DUP6 ADD PUSH2 0x1B27 JUMP JUMPDEST SWAP3 SWAP6 SWAP3 SWAP5 POP POP POP PUSH1 0x40 SWAP2 SWAP1 SWAP2 ADD CALLDATALOAD SWAP1 JUMP JUMPDEST PUSH0 PUSH1 0x20 DUP3 DUP5 SUB SLT ISZERO PUSH2 0x1D00 JUMPI PUSH0 PUSH0 REVERT JUMPDEST POP CALLDATALOAD SWAP2 SWAP1 POP JUMP JUMPDEST PUSH0 PUSH1 0x20 DUP3 DUP5 SUB SLT ISZERO PUSH2 0x1D17 JUMPI PUSH0 PUSH0 REVERT JUMPDEST DUP2 CALLDATALOAD PUSH2 0x1B91 DUP2 PUSH2 0x1BC8 JUMP JUMPDEST DUP1 CALLDATALOAD PUSH1 0x1 PUSH1 0x1 PUSH1 0x80 SHL SUB DUP2 AND DUP2 EQ PUSH2 0x1B3D JUMPI PUSH0 PUSH0 REVERT JUMPDEST PUSH0 PUSH0 PUSH0 PUSH0 PUSH1 0x80 DUP6 DUP8 SUB SLT ISZERO PUSH2 0x1D4B JUMPI PUSH0 PUSH0 REVERT JUMPDEST PUSH2 0x1D54 DUP6 PUSH2 0x1B27 JUMP JUMPDEST SWAP4 POP PUSH2 0x1D62 PUSH1 0x20 DUP7 ADD PUSH2 0x1B27 JUMP JUMPDEST SWAP3 POP PUSH2 0x1D70 PUSH1 0x40 DUP7 ADD PUSH2 0x1D22 JUMP JUMPDEST SWAP2 POP PUSH2 0x1CAB PUSH1 0x60 DUP7 ADD PUSH2 0x1D22 JUMP JUMPDEST PUSH0 PUSH0 PUSH1 0x40 DUP4 DUP6 SUB SLT ISZERO PUSH2 0x1D8F JUMPI PUSH0 PUSH0 REVERT JUMPDEST PUSH2 0x1BF5 DUP4 PUSH2 0x1B27 JUMP JUMPDEST PUSH0 PUSH0 PUSH0 PUSH0 PUSH0 PUSH1 0xA0 DUP7 DUP9 SUB SLT ISZERO PUSH2 0x1DAC JUMPI PUSH0 PUSH0 REVERT JUMPDEST PUSH2 0x1DB5 DUP7 PUSH2 0x1B27 JUMP JUMPDEST SWAP5 POP PUSH2 0x1DC3 PUSH1 0x20 DUP8 ADD PUSH2 0x1B27 JUMP JUMPDEST SWAP4 POP PUSH2 0x1DD1 PUSH1 0x40 DUP8 ADD PUSH2 0x1B27 JUMP JUMPDEST SWAP3 POP PUSH2 0x1DDF PUSH1 0x60 DUP8 ADD PUSH2 0x1C4E JUMP JUMPDEST SWAP5 SWAP8 SWAP4 SWAP7 POP SWAP2 SWAP5 PUSH1 0x80 ADD CALLDATALOAD SWAP3 SWAP2 POP POP JUMP JUMPDEST PUSH0 PUSH0 PUSH0 PUSH0 PUSH0 PUSH0 PUSH0 PUSH1 0xE0 DUP9 DUP11 SUB SLT ISZERO PUSH2 0x1E06 JUMPI PUSH0 PUSH0 REVERT JUMPDEST PUSH2 0x1E0F DUP9 PUSH2 0x1B27 JUMP JUMPDEST SWAP7 POP PUSH2 0x1E1D PUSH1 0x20 DUP10 ADD PUSH2 0x1B27 JUMP JUMPDEST SWAP6 POP PUSH2 0x1E2B PUSH1 0x40 DUP10 ADD PUSH2 0x1B27 JUMP JUMPDEST SWAP5 POP PUSH2 0x1E39 PUSH1 0x60 DUP10 ADD PUSH2 0x1C4E JUMP JUMPDEST SWAP4 POP PUSH1 0x80 DUP9 ADD CALLDATALOAD SWAP3 POP PUSH1 0xA0 DUP9 ADD CALLDATALOAD PUSH2 0x1E50 DUP2 PUSH2 0x1C0C JUMP JUMPDEST SWAP7 SWAP10 SWAP6 SWAP9 POP SWAP4 SWAP7 SWAP3 SWAP6 SWAP2 SWAP5 SWAP2 SWAP4 POP POP PUSH1 0xC0 SWAP1 SWAP2 ADD CALLDATALOAD SWAP1 JUMP JUMPDEST PUSH0 PUSH0 PUSH0 PUSH0 PUSH0 PUSH0 PUSH1 0xC0 DUP8 DUP10 SUB SLT ISZERO PUSH2 0x1E7D JUMPI PUSH0 PUSH0 REVERT JUMPDEST PUSH2 0x1E86 DUP8 PUSH2 0x1B27 JUMP JUMPDEST SWAP6 POP PUSH2 0x1E94 PUSH1 0x20 DUP9 ADD PUSH2 0x1B27 JUMP JUMPDEST SWAP5 POP PUSH2 0x1EA2 PUSH1 0x40 DUP9 ADD PUSH2 0x1B27 JUMP JUMPDEST SWAP4 POP PUSH2 0x1EB0 PUSH1 0x60 DUP9 ADD PUSH2 0x1C4E JUMP JUMPDEST SWAP6 SWAP9 SWAP5 SWAP8 POP SWAP3 SWAP6 PUSH1 0x80 DUP2 ADD CALLDATALOAD SWAP5 PUSH1 0xA0 SWAP1 SWAP2 ADD CALLDATALOAD SWAP4 POP SWAP2 POP POP JUMP JUMPDEST PUSH0 PUSH0 PUSH0 PUSH0 PUSH1 0x80 DUP6 DUP8 SUB SLT ISZERO PUSH2 0x1EDD JUMPI PUSH0 PUSH0 REVERT JUMPDEST PUSH2 0x1EE6 DUP6 PUSH2 0x1B27 JUMP JUMPDEST SWAP4 POP PUSH2 0x1EF4 PUSH1 0x20 DUP7 ADD PUSH2 0x1B27 JUMP JUMPDEST SWAP4 SWAP7 SWAP4 SWAP6 POP POP POP POP PUSH1 0x40 DUP3 ADD CALLDATALOAD SWAP2 PUSH1 0x60 ADD CALLDATALOAD SWAP1 JUMP JUMPDEST PUSH4 0x4E487B71 PUSH1 0xE0 SHL PUSH0 MSTORE PUSH1 0x11 PUSH1 0x4 MSTORE PUSH1 0x24 PUSH0 REVERT JUMPDEST DUP2 DUP2 SUB DUP2 DUP2 GT ISZERO PUSH2 0x52A JUMPI PUSH2 0x52A PUSH2 0x1F09 JUMP JUMPDEST DUP1 DUP3 ADD DUP1 DUP3 GT ISZERO PUSH2 0x52A JUMPI PUSH2 0x52A PUSH2 0x1F09 JUMP JUMPDEST PUSH1 0x20 DUP1 DUP3 MSTORE PUSH1 0x1D SWAP1 DUP3 ADD MSTORE PUSH32 0x496E76616C696420706F696E7465723A206D75737420626520302D3135000000 PUSH1 0x40 DUP3 ADD MSTORE PUSH1 0x60 ADD SWAP1 JUMP JUMPDEST DUP1 DUP3 MUL DUP2 ISZERO DUP3 DUP3 DIV DUP5 EQ OR PUSH2 0x52A JUMPI PUSH2 0x52A PUSH2 0x1F09 JUMP JUMPDEST PUSH0 DUP3 PUSH2 0x1FAB JUMPI PUSH4 0x4E487B71 PUSH1 0xE0 SHL PUSH0 MSTORE PUSH1 0x12 PUSH1 0x4 MSTORE PUSH1 0x24 PUSH0 REVERT JUMPDEST POP DIV SWAP1 JUMP JUMPDEST PUSH0 DUP2 PUSH1 0xF SIGNEXTEND PUSH1 0x1 PUSH1 0x1 PUSH1 0x7F SHL SUB NOT DUP2 SUB PUSH2 0x1FCC JUMPI PUSH2 0x1FCC PUSH2 0x1F09 JUMP JUMPDEST PUSH0 SUB SWAP3 SWAP2 POP POP JUMP JUMPDEST PUSH4 0x4E487B71 PUSH1 0xE0 SHL PUSH0 MSTORE PUSH1 0x41 PUSH1 0x4 MSTORE PUSH1 0x24 PUSH0 REVERT JUMPDEST PUSH4 0x4E487B71 PUSH1 0xE0 SHL PUSH0 MSTORE PUSH1 0x32 PUSH1 0x4 MSTORE PUSH1 0x24 PUSH0 REVERT JUMPDEST PUSH1 0xF DUP2 DUP2 SIGNEXTEND SWAP1 DUP4 SWAP1 SIGNEXTEND ADD PUSH1 0x1 PUSH1 0x1 PUSH1 0x7F SHL SUB DUP2 SGT PUSH16 0x7FFFFFFFFFFFFFFFFFFFFFFFFFFFFFFF NOT DUP3 SLT OR ISZERO PUSH2 0x52A JUMPI PUSH2 0x52A PUSH2 0x1F09 JUMP JUMPDEST PUSH1 0x40 MLOAD PUSH1 0xE0 DUP2 ADD PUSH8 0xFFFFFFFFFFFFFFFF DUP2 GT DUP3 DUP3 LT OR ISZERO PUSH2 0x2055 JUMPI PUSH2 0x2055 PUSH2 0x1FD4 JUMP JUMPDEST PUSH1 0x40 MSTORE SWAP1 JUMP JUMPDEST PUSH1 0x40 MLOAD PUSH1 0x1F DUP3 ADD PUSH1 0x1F NOT AND DUP2 ADD PUSH8 0xFFFFFFFFFFFFFFFF DUP2 GT DUP3 DUP3 LT OR ISZERO PUSH2 0x2084 JUMPI PUSH2 0x2084 PUSH2 0x1FD4 JUMP JUMPDEST PUSH1 0x40 MSTORE SWAP2 SWAP1 POP JUMP JUMPDEST DUP1 MLOAD PUSH2 0x1B3D DUP2 PUSH2 0x1BC8 JUMP JUMPDEST DUP1 MLOAD PUSH2 0xFFFF DUP2 AND DUP2 EQ PUSH2 0x1B3D JUMPI PUSH0 PUSH0 REVERT JUMPDEST PUSH0 PUSH1 0xE0 DUP3 DUP5 SUB SLT DUP1 ISZERO PUSH2 0x20B9 JUMPI PUSH0 PUSH0 REVERT JUMPDEST POP PUSH2 0x20C2 PUSH2 0x2032 JUMP JUMPDEST DUP3 MLOAD PUSH2 0x20CD DUP2 PUSH2 0x1C0C JUMP JUMPDEST DUP2 MSTORE PUSH1 0x20 DUP4 ADD MLOAD PUSH2 0x20DD DUP2 PUSH2 0x1C0C JUMP JUMPDEST PUSH1 0x20 DUP3 ADD MSTORE PUSH1 0x40 DUP4 ADD MLOAD PUSH2 0x20F0 DUP2 PUSH2 0x1C0C JUMP JUMPDEST PUSH1 0x40 DUP3 ADD MSTORE PUSH1 0x60 DUP4 ADD MLOAD PUSH2 0x2103 DUP2 PUSH2 0x1C0C JUMP JUMPDEST PUSH1 0x60 DUP3 ADD MSTORE PUSH2 0x2114 PUSH1 0x80 DUP5 ADD PUSH2 0x208C JUMP JUMPDEST PUSH1 0x80 DUP3 ADD MSTORE PUSH2 0x2125 PUSH1 0xA0 DUP5 ADD PUSH2 0x208C JUMP JUMPDEST PUSH1 0xA0 DUP3 ADD MSTORE PUSH2 0x2136 PUSH1 0xC0 DUP5 ADD PUSH2 0x2097 JUMP JUMPDEST PUSH1 0xC0 DUP3 ADD MSTORE SWAP4 SWAP3 POP POP POP JUMP JUMPDEST DUP1 MLOAD PUSH1 0x1 PUSH1 0x1 PUSH1 0xA0 SHL SUB SWAP1 DUP2 AND DUP4 MSTORE PUSH1 0x20 DUP1 DUP4 ADD MLOAD DUP3 AND SWAP1 DUP5 ADD MSTORE PUSH1 0x40 DUP1 DUP4 ADD MLOAD SWAP1 SWAP2 AND SWAP1 DUP4 ADD MSTORE PUSH1 0x60 DUP1 DUP3 ADD MLOAD SWAP1 DUP4 ADD MSTORE PUSH1 0x80 DUP1 DUP3 ADD MLOAD SWAP1 PUSH2 0x218F SWAP1 DUP5 ADD DUP3 PUSH1 0x1 PUSH1 0x1 PUSH1 0x80 SHL SUB AND SWAP1 MSTORE JUMP JUMPDEST POP PUSH1 0xA0 DUP2 ADD MLOAD PUSH2 0x21AA PUSH1 0xA0 DUP5 ADD DUP3 PUSH1 0x1 PUSH1 0x1 PUSH1 0x80 SHL SUB AND SWAP1 MSTORE JUMP JUMPDEST POP PUSH1 0xC0 DUP2 ADD MLOAD PUSH2 0x21C0 PUSH1 0xC0 DUP5 ADD DUP3 PUSH2 0xFFFF AND SWAP1 MSTORE JUMP JUMPDEST POP PUSH1 0xE0 DUP2 ADD MLOAD PUSH2 0x19D2 PUSH1 0xE0 DUP5 ADD DUP3 ISZERO ISZERO SWAP1 MSTORE JUMP JUMPDEST PUSH0 DUP2 MLOAD DUP1 DUP5 MSTORE DUP1 PUSH1 0x20 DUP5 ADD PUSH1 0x20 DUP7 ADD MCOPY PUSH0 PUSH1 0x20 DUP3 DUP7 ADD ADD MSTORE PUSH1 0x20 PUSH1 0x1F NOT PUSH1 0x1F DUP4 ADD AND DUP6 ADD ADD SWAP2 POP POP SWAP3 SWAP2 POP POP JUMP JUMPDEST PUSH2 0x220C DUP2 DUP6 PUSH2 0x2142 JUMP JUMPDEST PUSH2 0x140 PUSH2 0x100 DUP3 ADD MSTORE PUSH0 PUSH2 0x2224 PUSH2 0x140 DUP4 ADD DUP6 PUSH2 0x21D4 JUMP JUMPDEST DUP3 DUP2 SUB PUSH2 0x120 DUP5 ADD MSTORE PUSH2 0x2237 DUP2 DUP6 PUSH2 0x21D4 JUMP JUMPDEST SWAP7 SWAP6 POP POP POP POP POP POP JUMP JUMPDEST PUSH0 PUSH1 0x20 DUP3 DUP5 SUB SLT ISZERO PUSH2 0x2251 JUMPI PUSH0 PUSH0 REVERT JUMPDEST POP MLOAD SWAP2 SWAP1 POP JUMP JUMPDEST PUSH2 0x100 DUP2 ADD PUSH2 0x52A DUP3 DUP5 PUSH2 0x2142 JUMP JUMPDEST PUSH2 0x2271 DUP2 DUP5 PUSH2 0x2142 JUMP JUMPDEST PUSH2 0x120 PUSH2 0x100 DUP3 ADD MSTORE PUSH0 PUSH2 0x2289 PUSH2 0x120 DUP4 ADD DUP5 PUSH2 0x21D4 JUMP JUMPDEST SWAP5 SWAP4 POP POP POP POP JUMP JUMPDEST PUSH0 PUSH1 0x20 DUP3 DUP5 SUB SLT ISZERO PUSH2 0x22A1 JUMPI PUSH0 PUSH0 REVERT JUMPDEST DUP2 MLOAD PUSH2 0x1B91 DUP2 PUSH2 0x1C0C JUMP JUMPDEST PUSH0 PUSH1 0x20 DUP3 DUP5 SUB SLT ISZERO PUSH2 0x22BC JUMPI PUSH0 PUSH0 REVERT JUMPDEST DUP2 MLOAD PUSH8 0xFFFFFFFFFFFFFFFF DUP2 GT ISZERO PUSH2 0x22D2 JUMPI PUSH0 PUSH0 REVERT JUMPDEST DUP3 ADD PUSH1 0x1F DUP2 ADD DUP5 SGT PUSH2 0x22E2 JUMPI PUSH0 PUSH0 REVERT JUMPDEST DUP1 MLOAD PUSH8 0xFFFFFFFFFFFFFFFF DUP2 GT ISZERO PUSH2 0x22FC JUMPI PUSH2 0x22FC PUSH2 0x1FD4 JUMP JUMPDEST PUSH2 0x230F PUSH1 0x1F DUP3 ADD PUSH1 0x1F NOT AND PUSH1 0x20 ADD PUSH2 0x205B JUMP JUMPDEST DUP2 DUP2 MSTORE DUP6 PUSH1 0x20 DUP4 DUP6 ADD ADD GT ISZERO PUSH2 0x2323 JUMPI PUSH0 PUSH0 REVERT JUMPDEST DUP2 PUSH1 0x20 DUP5 ADD PUSH1 0x20 DUP4 ADD MCOPY PUSH0 SWAP2 DUP2 ADD PUSH1 0x20 ADD SWAP2 SWAP1 SWAP2 MSTORE SWAP5 SWAP4 POP POP POP POP JUMP INVALID SHL RETURNDATASIZE PUSH31 0xDB2E9C0B0E7C525B20AAAEF0F5940D2ED71663C7D39266ECAFAC728859A264 PUSH10 0x706673582212201F693A LOG0 JUMPDEST MCOPY ADDRESS SSTORE EXTSTATICCALL PUSH27 0xBA25F0DEBE925DBCD168544E62B052FBEFC61CB9F02064736F6C63 NUMBER STOP ADDMOD 0x1E STOP CALLER "},"methodIdentifiers":{"addAlphaMarketAddress(uint8,address)":"460c6df8","addBetaMarketAddress(uint8,address)":"7dc27c95","addLiquidity(address,address,address,bytes3,uint256,uint256)":"e513315b","allowance(address,address,uint256)":"598af9e7","approve(address,uint256,uint256)":"426a8493","balanceOf(address,uint256)":"00fdd58e","createPool(address,address,address,bytes3)":"5670f55a","defaultAlpha()":"a1a44dad","defaultBeta()":"19920a5f","dummyQuoter(address,address,uint128,uint128)":"8785bec0","getAlphaMarketAddress(uint8)":"d2615fc8","getBetaMarketAddress(uint8)":"83e66c2e","getInventory(uint256)":"5b298d32","isOperator(address,address)":"b6363cf2","removeAlphaMarketAddress(uint8)":"8e832e08","removeBetaMarketAddress(uint8)":"61408f26","removeLiquidity(address,address,address,bytes3,uint256)":"cb1f2f38","setOperator(address,bool)":"558a7297","supportsInterface(bytes4)":"01ffc9a7","swap(address,address,address,bytes3,uint256,bool,uint256)":"d92bc84c","totalLiquidity(uint256)":"b5e60c3c","transfer(address,uint256,uint256)":"095bcdb6","transferFrom(address,address,uint256,uint256)":"fe99049a"}}}}}