{"contracts/libraries/MarkingHelper.sol":{"MarkingHelper":{"abi":[{"inputs":[{"internalType":"bytes3","name":"markings","type":"bytes3"}],"name":"decodeMarkings","outputs":[{"components":[{"internalType":"bool","name":"isAlpha","type":"bool"},{"internalType":"bool","name":"isBeta","type":"bool"},{"internalType":"bool","name":"isAlphaDefault","type":"bool"},{"internalType":"bool","name":"isBetaDefault","type":"bool"},{"internalType":"uint8","name":"alphaAddressPointer","type":"uint8"},{"internalType":"uint8","name":"betaAddressPointer","type":"uint8"},{"internalType":"uint16","name":"bucketID","type":"uint16"}],"internalType":"struct Marking","name":"result","type":"tuple"}],"stateMutability":"pure","type":"function"}],"evm":{"bytecode":{"linkReferences":{},"object":"6101b6610034600b8282823980515f1a607314602857634e487b7160e01b5f525f60045260245ffd5b305f52607381538281f3fe7300000000000000000000000000000000000000003014608060405260043610610034575f3560e01c80633bde530e14610038575b5f5ffd5b6100cd6100463660046100e3565b6040805160e0810182525f8082526020808301828152938301828152606084018381526080850184815260a0860185815260c0870195865297909301516001808216875281811c8116909752600281901c8716909252600382901c909516909452600484901c600f908116909152600884901c16909352600c9190911c610fff1690915290565b6040516100da9190610111565b60405180910390f35b5f602082840312156100f3575f5ffd5b81356001600160e81b03198116811461010a575f5ffd5b9392505050565b5f60e08201905082511515825260208301511515602083015260408301511515604083015260608301511515606083015260ff608084015116608083015260a083015161016360a084018260ff169052565b5060c083015161017960c084018261ffff169052565b509291505056fea2646970667358221220bd2f8c1d6a6ae9bb120ee4fcb472cdccef416b6da43063e6a53f2c276d80292364736f6c634300081e0033","opcodes":"PUSH2 0x1B6 PUSH2 0x34 PUSH1 0xB DUP3 DUP3 DUP3 CODECOPY DUP1 MLOAD PUSH0 BYTE PUSH1 0x73 EQ PUSH1 0x28 JUMPI PUSH4 0x4E487B71 PUSH1 0xE0 SHL PUSH0 MSTORE PUSH0 PUSH1 0x4 MSTORE PUSH1 0x24 PUSH0 REVERT JUMPDEST ADDRESS PUSH0 MSTORE PUSH1 0x73 DUP2 MSTORE8 DUP3 DUP2 RETURN INVALID PUSH20 0x0 ADDRESS EQ PUSH1 0x80 PUSH1 0x40 MSTORE PUSH1 0x4 CALLDATASIZE LT PUSH2 0x34 JUMPI PUSH0 CALLDATALOAD PUSH1 0xE0 SHR DUP1 PUSH4 0x3BDE530E EQ PUSH2 0x38 JUMPI JUMPDEST PUSH0 PUSH0 REVERT JUMPDEST PUSH2 0xCD PUSH2 0x46 CALLDATASIZE PUSH1 0x4 PUSH2 0xE3 JUMP JUMPDEST PUSH1 0x40 DUP1 MLOAD PUSH1 0xE0 DUP2 ADD DUP3 MSTORE PUSH0 DUP1 DUP3 MSTORE PUSH1 0x20 DUP1 DUP4 ADD DUP3 DUP2 MSTORE SWAP4 DUP4 ADD DUP3 DUP2 MSTORE PUSH1 0x60 DUP5 ADD DUP4 DUP2 MSTORE PUSH1 0x80 DUP6 ADD DUP5 DUP2 MSTORE PUSH1 0xA0 DUP7 ADD DUP6 DUP2 MSTORE PUSH1 0xC0 DUP8 ADD SWAP6 DUP7 MSTORE SWAP8 SWAP1 SWAP4 ADD MLOAD PUSH1 0x1 DUP1 DUP3 AND DUP8 MSTORE DUP2 DUP2 SHR DUP2 AND SWAP1 SWAP8 MSTORE PUSH1 0x2 DUP2 SWAP1 SHR DUP8 AND SWAP1 SWAP3 MSTORE PUSH1 0x3 DUP3 SWAP1 SHR SWAP1 SWAP6 AND SWAP1 SWAP5 MSTORE PUSH1 0x4 DUP5 SWAP1 SHR PUSH1 0xF SWAP1 DUP2 AND SWAP1 SWAP2 MSTORE PUSH1 0x8 DUP5 SWAP1 SHR AND SWAP1 SWAP4 MSTORE PUSH1 0xC SWAP2 SWAP1 SWAP2 SHR PUSH2 0xFFF AND SWAP1 SWAP2 MSTORE SWAP1 JUMP JUMPDEST PUSH1 0x40 MLOAD PUSH2 0xDA SWAP2 SWAP1 PUSH2 0x111 JUMP JUMPDEST PUSH1 0x40 MLOAD DUP1 SWAP2 SUB SWAP1 RETURN JUMPDEST PUSH0 PUSH1 0x20 DUP3 DUP5 SUB SLT ISZERO PUSH2 0xF3 JUMPI PUSH0 PUSH0 REVERT JUMPDEST DUP2 CALLDATALOAD PUSH1 0x1 PUSH1 0x1 PUSH1 0xE8 SHL SUB NOT DUP2 AND DUP2 EQ PUSH2 0x10A JUMPI PUSH0 PUSH0 REVERT JUMPDEST SWAP4 SWAP3 POP POP POP JUMP JUMPDEST PUSH0 PUSH1 0xE0 DUP3 ADD SWAP1 POP DUP3 MLOAD ISZERO ISZERO DUP3 MSTORE PUSH1 0x20 DUP4 ADD MLOAD ISZERO ISZERO PUSH1 0x20 DUP4 ADD MSTORE PUSH1 0x40 DUP4 ADD MLOAD ISZERO ISZERO PUSH1 0x40 DUP4 ADD MSTORE PUSH1 0x60 DUP4 ADD MLOAD ISZERO ISZERO PUSH1 0x60 DUP4 ADD MSTORE PUSH1 0xFF PUSH1 0x80 DUP5 ADD MLOAD AND PUSH1 0x80 DUP4 ADD MSTORE PUSH1 0xA0 DUP4 ADD MLOAD PUSH2 0x163 PUSH1 0xA0 DUP5 ADD DUP3 PUSH1 0xFF AND SWAP1 MSTORE JUMP JUMPDEST POP PUSH1 0xC0 DUP4 ADD MLOAD PUSH2 0x179 PUSH1 0xC0 DUP5 ADD DUP3 PUSH2 0xFFFF AND SWAP1 MSTORE JUMP JUMPDEST POP SWAP3 SWAP2 POP POP JUMP INVALID LOG2 PUSH5 0x6970667358 0x22 SLT KECCAK256 0xBD 0x2F DUP13 SAR PUSH11 0x6AE9BB120EE4FCB472CDCC 0xEF COINBASE PUSH12 0x6DA43063E6A53F2C276D8029 0x23 PUSH5 0x736F6C6343 STOP ADDMOD 0x1E STOP CALLER "},"methodIdentifiers":{"decodeMarkings(bytes3)":"3bde530e"}}}}}