{
  "_format": "hh-sol-artifact-1",
  "contractName": "PoolManager",
  "sourceName": "contracts/PoolManager.sol",
  "abi": [
    {
      "inputs": [
        {
          "internalType": "address",
          "name": "_defaultAlpha",
          "type": "address"
        },
        {
          "internalType": "address",
          "name": "_defaultBeta",
          "type": "address"
        }
      ],
      "stateMutability": "nonpayable",
      "type": "constructor"
    },
    {
      "inputs": [
        {
          "internalType": "uint256",
          "name": "required",
          "type": "uint256"
        },
        {
          "internalType": "uint256",
          "name": "available",
          "type": "uint256"
        }
      ],
      "name": "PoolManager__InsufficientAsset0",
      "type": "error"
    },
    {
      "inputs": [
        {
          "internalType": "uint256",
          "name": "required",
          "type": "uint256"
        },
        {
          "internalType": "uint256",
          "name": "available",
          "type": "uint256"
        }
      ],
      "name": "PoolManager__InsufficientAsset1",
      "type": "error"
    },
    {
      "inputs": [],
      "name": "PoolManager__InsufficientLiquidityMinted",
      "type": "error"
    },
    {
      "inputs": [
        {
          "internalType": "uint256",
          "name": "minOut",
          "type": "uint256"
        },
        {
          "internalType": "uint256",
          "name": "actual",
          "type": "uint256"
        }
      ],
      "name": "PoolManager__InsufficientOutput",
      "type": "error"
    },
    {
      "inputs": [
        {
          "internalType": "uint256",
          "name": "amount0",
          "type": "uint256"
        },
        {
          "internalType": "uint256",
          "name": "amount1",
          "type": "uint256"
        }
      ],
      "name": "PoolManager__InsufficientWithdrawal",
      "type": "error"
    },
    {
      "anonymous": false,
      "inputs": [
        {
          "indexed": true,
          "internalType": "address",
          "name": "owner",
          "type": "address"
        },
        {
          "indexed": true,
          "internalType": "address",
          "name": "spender",
          "type": "address"
        },
        {
          "indexed": true,
          "internalType": "uint256",
          "name": "id",
          "type": "uint256"
        },
        {
          "indexed": false,
          "internalType": "uint256",
          "name": "amount",
          "type": "uint256"
        }
      ],
      "name": "Approval",
      "type": "event"
    },
    {
      "anonymous": false,
      "inputs": [
        {
          "indexed": true,
          "internalType": "address",
          "name": "owner",
          "type": "address"
        },
        {
          "indexed": true,
          "internalType": "address",
          "name": "operator",
          "type": "address"
        },
        {
          "indexed": false,
          "internalType": "bool",
          "name": "approved",
          "type": "bool"
        }
      ],
      "name": "OperatorSet",
      "type": "event"
    },
    {
      "anonymous": false,
      "inputs": [
        {
          "indexed": true,
          "internalType": "uint256",
          "name": "poolID",
          "type": "uint256"
        },
        {
          "indexed": false,
          "internalType": "address",
          "name": "asset0",
          "type": "address"
        },
        {
          "indexed": false,
          "internalType": "address",
          "name": "asset1",
          "type": "address"
        },
        {
          "indexed": false,
          "internalType": "address",
          "name": "quoter",
          "type": "address"
        },
        {
          "indexed": false,
          "internalType": "bytes3",
          "name": "markings",
          "type": "bytes3"
        }
      ],
      "name": "PoolCreated",
      "type": "event"
    },
    {
      "anonymous": false,
      "inputs": [
        {
          "indexed": false,
          "internalType": "address",
          "name": "caller",
          "type": "address"
        },
        {
          "indexed": true,
          "internalType": "address",
          "name": "from",
          "type": "address"
        },
        {
          "indexed": true,
          "internalType": "address",
          "name": "to",
          "type": "address"
        },
        {
          "indexed": true,
          "internalType": "uint256",
          "name": "id",
          "type": "uint256"
        },
        {
          "indexed": false,
          "internalType": "uint256",
          "name": "amount",
          "type": "uint256"
        }
      ],
      "name": "Transfer",
      "type": "event"
    },
    {
      "inputs": [
        {
          "internalType": "uint8",
          "name": "pointer",
          "type": "uint8"
        },
        {
          "internalType": "address",
          "name": "alphaAddress",
          "type": "address"
        }
      ],
      "name": "addAlphaMarketAddress",
      "outputs": [],
      "stateMutability": "nonpayable",
      "type": "function"
    },
    {
      "inputs": [
        {
          "internalType": "uint8",
          "name": "pointer",
          "type": "uint8"
        },
        {
          "internalType": "address",
          "name": "betaAddress",
          "type": "address"
        }
      ],
      "name": "addBetaMarketAddress",
      "outputs": [],
      "stateMutability": "nonpayable",
      "type": "function"
    },
    {
      "inputs": [
        {
          "internalType": "address",
          "name": "asset0",
          "type": "address"
        },
        {
          "internalType": "address",
          "name": "asset1",
          "type": "address"
        },
        {
          "internalType": "address",
          "name": "quoter",
          "type": "address"
        },
        {
          "internalType": "bytes3",
          "name": "markings",
          "type": "bytes3"
        },
        {
          "internalType": "uint256",
          "name": "amount0",
          "type": "uint256"
        },
        {
          "internalType": "uint256",
          "name": "amount1",
          "type": "uint256"
        }
      ],
      "name": "addLiquidity",
      "outputs": [
        {
          "internalType": "uint256",
          "name": "liquidity",
          "type": "uint256"
        }
      ],
      "stateMutability": "payable",
      "type": "function"
    },
    {
      "inputs": [
        {
          "internalType": "address",
          "name": "owner",
          "type": "address"
        },
        {
          "internalType": "address",
          "name": "spender",
          "type": "address"
        },
        {
          "internalType": "uint256",
          "name": "id",
          "type": "uint256"
        }
      ],
      "name": "allowance",
      "outputs": [
        {
          "internalType": "uint256",
          "name": "",
          "type": "uint256"
        }
      ],
      "stateMutability": "view",
      "type": "function"
    },
    {
      "inputs": [
        {
          "internalType": "address",
          "name": "spender",
          "type": "address"
        },
        {
          "internalType": "uint256",
          "name": "id",
          "type": "uint256"
        },
        {
          "internalType": "uint256",
          "name": "amount",
          "type": "uint256"
        }
      ],
      "name": "approve",
      "outputs": [
        {
          "internalType": "bool",
          "name": "",
          "type": "bool"
        }
      ],
      "stateMutability": "nonpayable",
      "type": "function"
    },
    {
      "inputs": [
        {
          "internalType": "address",
          "name": "owner",
          "type": "address"
        },
        {
          "internalType": "uint256",
          "name": "id",
          "type": "uint256"
        }
      ],
      "name": "balanceOf",
      "outputs": [
        {
          "internalType": "uint256",
          "name": "",
          "type": "uint256"
        }
      ],
      "stateMutability": "view",
      "type": "function"
    },
    {
      "inputs": [
        {
          "internalType": "address",
          "name": "asset0",
          "type": "address"
        },
        {
          "internalType": "address",
          "name": "asset1",
          "type": "address"
        },
        {
          "internalType": "address",
          "name": "quoter",
          "type": "address"
        },
        {
          "internalType": "bytes3",
          "name": "markings",
          "type": "bytes3"
        }
      ],
      "name": "createPool",
      "outputs": [
        {
          "internalType": "uint256",
          "name": "poolID",
          "type": "uint256"
        }
      ],
      "stateMutability": "nonpayable",
      "type": "function"
    },
    {
      "inputs": [],
      "name": "defaultAlpha",
      "outputs": [
        {
          "internalType": "address",
          "name": "",
          "type": "address"
        }
      ],
      "stateMutability": "view",
      "type": "function"
    },
    {
      "inputs": [],
      "name": "defaultBeta",
      "outputs": [
        {
          "internalType": "address",
          "name": "",
          "type": "address"
        }
      ],
      "stateMutability": "view",
      "type": "function"
    },
    {
      "inputs": [
        {
          "internalType": "address",
          "name": "",
          "type": "address"
        },
        {
          "internalType": "address",
          "name": "",
          "type": "address"
        },
        {
          "internalType": "uint128",
          "name": "",
          "type": "uint128"
        },
        {
          "internalType": "uint128",
          "name": "",
          "type": "uint128"
        }
      ],
      "name": "dummyQuoter",
      "outputs": [
        {
          "internalType": "uint256",
          "name": "rate",
          "type": "uint256"
        }
      ],
      "stateMutability": "pure",
      "type": "function"
    },
    {
      "inputs": [
        {
          "internalType": "uint8",
          "name": "pointer",
          "type": "uint8"
        }
      ],
      "name": "getAlphaMarketAddress",
      "outputs": [
        {
          "internalType": "address",
          "name": "alphaAddress",
          "type": "address"
        }
      ],
      "stateMutability": "view",
      "type": "function"
    },
    {
      "inputs": [
        {
          "internalType": "uint8",
          "name": "pointer",
          "type": "uint8"
        }
      ],
      "name": "getBetaMarketAddress",
      "outputs": [
        {
          "internalType": "address",
          "name": "betaAddress",
          "type": "address"
        }
      ],
      "stateMutability": "view",
      "type": "function"
    },
    {
      "inputs": [
        {
          "internalType": "uint256",
          "name": "poolId",
          "type": "uint256"
        }
      ],
      "name": "getInventory",
      "outputs": [
        {
          "internalType": "uint128",
          "name": "asset0",
          "type": "uint128"
        },
        {
          "internalType": "uint128",
          "name": "asset1",
          "type": "uint128"
        }
      ],
      "stateMutability": "view",
      "type": "function"
    },
    {
      "inputs": [
        {
          "internalType": "address",
          "name": "owner",
          "type": "address"
        },
        {
          "internalType": "address",
          "name": "spender",
          "type": "address"
        }
      ],
      "name": "isOperator",
      "outputs": [
        {
          "internalType": "bool",
          "name": "",
          "type": "bool"
        }
      ],
      "stateMutability": "view",
      "type": "function"
    },
    {
      "inputs": [
        {
          "internalType": "uint8",
          "name": "pointer",
          "type": "uint8"
        }
      ],
      "name": "removeAlphaMarketAddress",
      "outputs": [],
      "stateMutability": "nonpayable",
      "type": "function"
    },
    {
      "inputs": [
        {
          "internalType": "uint8",
          "name": "pointer",
          "type": "uint8"
        }
      ],
      "name": "removeBetaMarketAddress",
      "outputs": [],
      "stateMutability": "nonpayable",
      "type": "function"
    },
    {
      "inputs": [
        {
          "internalType": "address",
          "name": "asset0",
          "type": "address"
        },
        {
          "internalType": "address",
          "name": "asset1",
          "type": "address"
        },
        {
          "internalType": "address",
          "name": "quoter",
          "type": "address"
        },
        {
          "internalType": "bytes3",
          "name": "markings",
          "type": "bytes3"
        },
        {
          "internalType": "uint256",
          "name": "liquidity",
          "type": "uint256"
        }
      ],
      "name": "removeLiquidity",
      "outputs": [
        {
          "internalType": "uint256",
          "name": "amount0",
          "type": "uint256"
        },
        {
          "internalType": "uint256",
          "name": "amount1",
          "type": "uint256"
        }
      ],
      "stateMutability": "nonpayable",
      "type": "function"
    },
    {
      "inputs": [
        {
          "internalType": "address",
          "name": "operator",
          "type": "address"
        },
        {
          "internalType": "bool",
          "name": "approved",
          "type": "bool"
        }
      ],
      "name": "setOperator",
      "outputs": [
        {
          "internalType": "bool",
          "name": "",
          "type": "bool"
        }
      ],
      "stateMutability": "nonpayable",
      "type": "function"
    },
    {
      "inputs": [
        {
          "internalType": "bytes4",
          "name": "interfaceId",
          "type": "bytes4"
        }
      ],
      "name": "supportsInterface",
      "outputs": [
        {
          "internalType": "bool",
          "name": "",
          "type": "bool"
        }
      ],
      "stateMutability": "view",
      "type": "function"
    },
    {
      "inputs": [
        {
          "internalType": "address",
          "name": "asset0",
          "type": "address"
        },
        {
          "internalType": "address",
          "name": "asset1",
          "type": "address"
        },
        {
          "internalType": "address",
          "name": "quoter",
          "type": "address"
        },
        {
          "internalType": "bytes3",
          "name": "markings",
          "type": "bytes3"
        },
        {
          "internalType": "uint256",
          "name": "amountIn",
          "type": "uint256"
        },
        {
          "internalType": "bool",
          "name": "zeroForOne",
          "type": "bool"
        },
        {
          "internalType": "uint256",
          "name": "minAmountOut",
          "type": "uint256"
        }
      ],
      "name": "swap",
      "outputs": [
        {
          "internalType": "uint256",
          "name": "amountOut",
          "type": "uint256"
        }
      ],
      "stateMutability": "payable",
      "type": "function"
    },
    {
      "inputs": [
        {
          "internalType": "uint256",
          "name": "poolID",
          "type": "uint256"
        }
      ],
      "name": "totalLiquidity",
      "outputs": [
        {
          "internalType": "uint256",
          "name": "",
          "type": "uint256"
        }
      ],
      "stateMutability": "view",
      "type": "function"
    },
    {
      "inputs": [
        {
          "internalType": "address",
          "name": "receiver",
          "type": "address"
        },
        {
          "internalType": "uint256",
          "name": "id",
          "type": "uint256"
        },
        {
          "internalType": "uint256",
          "name": "amount",
          "type": "uint256"
        }
      ],
      "name": "transfer",
      "outputs": [
        {
          "internalType": "bool",
          "name": "",
          "type": "bool"
        }
      ],
      "stateMutability": "nonpayable",
      "type": "function"
    },
    {
      "inputs": [
        {
          "internalType": "address",
          "name": "sender",
          "type": "address"
        },
        {
          "internalType": "address",
          "name": "receiver",
          "type": "address"
        },
        {
          "internalType": "uint256",
          "name": "id",
          "type": "uint256"
        },
        {
          "internalType": "uint256",
          "name": "amount",
          "type": "uint256"
        }
      ],
      "name": "transferFrom",
      "outputs": [
        {
          "internalType": "bool",
          "name": "",
          "type": "bool"
        }
      ],
      "stateMutability": "nonpayable",
      "type": "function"
    }
  ],
  "bytecode": "0x60c060405234801561000f575f5ffd5b5060405161245638038061245683398101604081905261002e91610060565b6001600160a01b039182166080521660a052610091565b80516001600160a01b038116811461005b575f5ffd5b919050565b5f5f60408385031215610071575f5ffd5b61007a83610045565b915061008860208401610045565b90509250929050565b60805160a0516123966100c05f395f81816101d001526113c401525f81816103dc015261137201526123965ff3fe60806040526004361061013b575f3560e01c80637dc27c95116100b3578063b6363cf21161006d578063b6363cf214610429578063cb1f2f381461046e578063d2615fc8146104a2578063d92bc84c146104c1578063e513315b146104d4578063fe99049a146104e7575f5ffd5b80637dc27c951461034357806383e66c2e146103625780638785bec0146103815780638e832e08146103ac578063a1a44dad146103cb578063b5e60c3c146103fe575f5ffd5b8063460c6df811610104578063460c6df814610229578063558a72971461024a5780635670f55a14610269578063598af9e7146102885780635b298d32146102d357806361408f2614610324575f5ffd5b8062fdd58e1461013f57806301ffc9a714610171578063095bcdb6146101a057806319920a5f146101bf578063426a84931461020a575b5f5ffd5b34801561014a575f5ffd5b5061015e610159366004611b42565b610506565b6040519081526020015b60405180910390f35b34801561017c575f5ffd5b5061019061018b366004611b6a565b610530565b6040519015158152602001610168565b3480156101ab575f5ffd5b506101906101ba366004611b98565b610562565b3480156101ca575f5ffd5b506101f27f000000000000000000000000000000000000000000000000000000000000000081565b6040516001600160a01b039091168152602001610168565b348015610215575f5ffd5b50610190610224366004611b98565b610608565b348015610234575f5ffd5b50610248610243366004611bd9565b61066c565b005b348015610255575f5ffd5b50610190610264366004611c19565b6106ca565b348015610274575f5ffd5b5061015e610283366004611c65565b610737565b348015610293575f5ffd5b5061015e6102a2366004611cb6565b6001600160a01b039283165f9081526002602090815260408083209490951682529283528381209181529152205490565b3480156102de575f5ffd5b506103046102ed366004611cf0565b5f9081526006602052604090205490608082901c90565b604080516001600160801b03938416815292909116602083015201610168565b34801561032f575f5ffd5b5061024861033e366004611d07565b61074d565b34801561034e575f5ffd5b5061024861035d366004611bd9565b610790565b34801561036d575f5ffd5b506101f261037c366004611d07565b6107e5565b34801561038c575f5ffd5b5061015e61039b366004611d38565b5067120a871cc00200009392505050565b3480156103b7575f5ffd5b506102486103c6366004611d07565b610827565b3480156103d6575f5ffd5b506101f27f000000000000000000000000000000000000000000000000000000000000000081565b348015610409575f5ffd5b5061015e610418366004611cf0565b5f9081526005602052604090205490565b348015610434575f5ffd5b50610190610443366004611d7e565b6001600160a01b039182165f9081526020818152604080832093909416825291909152205460ff1690565b348015610479575f5ffd5b5061048d610488366004611d98565b61086a565b60408051928352602083019190915201610168565b3480156104ad575f5ffd5b506101f26104bc366004611d07565b610a25565b61015e6104cf366004611df0565b610a67565b61015e6104e2366004611e68565b610ca4565b3480156104f2575f5ffd5b50610190610501366004611eca565b610e65565b6001600160a01b0382165f9081526001602090815260408083208484529091529020545b92915050565b5f6301ffc9a760e01b6001600160e01b03198316148061052a5750506001600160e01b031916630f632fb360e01b1490565b335f90815260016020908152604080832085845290915281208054839190839061058d908490611f1d565b90915550506001600160a01b0384165f908152600160209081526040808320868452909152812080548492906105c4908490611f30565b909155505060408051338082526020820185905285926001600160a01b038816925f5160206123415f395f51905f5291015b60405180910390a45060019392505050565b335f8181526002602090815260408083206001600160a01b03881680855290835281842087855290925280832085905551919285927fb3fd5071835887567a0671151121894ddccc2842f1d10bedad13e0d17cace9a7906105f69087815260200190565b60108260ff16106106985760405162461bcd60e51b815260040161068f90611f43565b60405180910390fd5b60ff919091165f90815260036020526040902080546001600160a01b0319166001600160a01b03909216919091179055565b335f818152602081815260408083206001600160a01b038716808552908352818420805460ff191687151590811790915591519182529293917fceb576d9f15e4e200fdb5096d64d5dfd667e16def20c1eefd14256d8e3faa267910160405180910390a350600192915050565b5f61074485858585610fc1565b95945050505050565b60108160ff16106107705760405162461bcd60e51b815260040161068f90611f43565b60ff165f90815260046020526040902080546001600160a01b0319169055565b60108260ff16106107b35760405162461bcd60e51b815260040161068f90611f43565b60ff919091165f90815260046020526040902080546001600160a01b0319166001600160a01b03909216919091179055565b5f60108260ff16106108095760405162461bcd60e51b815260040161068f90611f43565b5060ff165f908152600460205260409020546001600160a01b031690565b60108160ff161061084a5760405162461bcd60e51b815260040161068f90611f43565b60ff165f90815260036020526040902080546001600160a01b0319169055565b5f5f5f83116108bb5760405162461bcd60e51b815260206004820152601860248201527f496e76616c6964206c697175696469747920616d6f756e740000000000000000604482015260640161068f565b5f6108c888888888611061565b5f8181526006602090815260408083205460059092529091205491925090608082901c9061092f5760405162461bcd60e51b8152602060048201526014602482015273139bc81b1a5c5d5a591a5d1e481a5b881c1bdbdb60621b604482015260640161068f565b5f838152600560205260409020546109506001600160801b03841688611f7a565b61095a9190611f91565b5f8481526005602052604090205490955061097e6001600160801b03831688611f7a565b6109889190611f91565b935084158015610996575083155b156109be5760405163d5de620560e01b8152600481018690526024810185905260440161068f565b6109c9338488611083565b5f83815260056020526040812080548892906109e6908490611f1d565b90915550610a0990506005846109fb88611fb0565b610a0488611fb0565b6110f5565b610a188a8a87875f5f3361116a565b5050509550959350505050565b5f60108260ff1610610a495760405162461bcd60e51b815260040161068f90611f43565b5060ff165f908152600360205260409020546001600160a01b031690565b5f5f610a7589898989611061565b9050610a9384610a855788610a87565b895b5f875f3460013361116a565b5f818152600660205260408120548190608081901c915091505f6040518060c001604052808d6001600160a01b031681526020018c6001600160a01b031681526020018b6001600160a01b03168152602001600167ffffffffffffffff811115610aff57610aff611fd4565b604051908082528060200260200182016040528015610b28578160200160208202803683370190505b508152881515602082015260408051600180825281830183529190920191908160200160208202803683370190505081525090508781606001515f81518110610b7357610b73611fe8565b602002602001018181525050888160a001515f81518110610b9657610b96611fe8565b6001600160e81b0319909216602092830291909101909101525f610bbb8285856111c4565b5090505f8111610c0f5787610bf45767120a871cc0020000610be58a670de0b6b3a7640000611f7a565b610bef9190611f91565b610c11565b670de0b6b3a7640000610be58a67120a871cc0020000611f7a565b805b9550610c1f8484888b6115bd565b86861015610c4a5760405163d438755d60e01b8152600481018890526024810187905260440161068f565b610c796005868a610c6357610c5e89611fb0565b610c65565b8b5b8b610c70578c6110f5565b610a048a611fb0565b610c9488610c87578d610c89565b8c5b5f885f5f5f3361116a565b5050505050979650505050505050565b5f5f610cb288888888611061565b5f81815260066020526040812054919250908190608081901c915091505f6040518060c001604052808c6001600160a01b031681526020018b6001600160a01b031681526020018a6001600160a01b03168152602001600167ffffffffffffffff811115610d2257610d22611fd4565b604051908082528060200260200182016040528015610d4b578160200160208202803683370190505b50815260016020820181905260408051828152808201825292019190816020016020820280368337019050508152509050826001600160801b031681606001515f81518110610d9c57610d9c611fe8565b602002602001018181525050878160a001515f81518110610dbf57610dbf611fe8565b6001600160e81b0319909216602092830291909101909101525f610de48285856111c4565b509050805f03610df9575067120a871cc00200005b610e096005898987878a87611646565b9550610e1b8c8c8a8a3460013361116a565b610e286005868a8a6110f5565b610e33338688611727565b5f8581526005602052604081208054889290610e50908490611f30565b90915550959c9b505050505050505050505050565b5f336001600160a01b03861614801590610ea057506001600160a01b0385165f9081526020818152604080832033845290915290205460ff16155b15610f10576001600160a01b0385165f90815260026020908152604080832033845282528083208684529091529020545f198114610f0e57610ee28382611f1d565b6001600160a01b0387165f90815260026020908152604080832033845282528083208884529091529020555b505b6001600160a01b0385165f90815260016020908152604080832086845290915281208054849290610f42908490611f1d565b90915550506001600160a01b0384165f90815260016020908152604080832086845290915281208054849290610f79908490611f30565b9091555050604080513381526020810184905284916001600160a01b0380881692908916915f5160206123415f395f51905f52910160405180910390a4506001949350505050565b5f5f5f856001600160a01b0316876001600160a01b031610610fe4578587610fe7565b86865b91509150610ff782828787611061565b604080516001600160a01b03858116825284811660208301528816818301526001600160e81b031987166060820152905191945084917f68df9a4eb7aacbe8f43763bfbc9f7ca135a5397190ea1cce2558db52dc2f36929181900360800190a25050949350505050565b60408051948552602085019390935291830152606090912062ffffff19161790565b6001600160a01b0383165f908152600160209081526040808320858452909152812080548392906110b5908490611f1d565b9091555050604080513381526020810183905283915f916001600160a01b038716915f5160206123415f395f51905f5291015b60405180910390a4505050565b5f83815260018501602052604090205480608081901c6111158583611ffc565b91506111218482611ffc565b90506001600160801b0382166fffffffffffffffffffffffffffffffff19608083901b1617838114611160575f87815260018901602052604090208190555b5050505050505050565b81156111995784156111825761118287828786611790565b8315611194576111948682865f611790565b6111bb565b84156111aa576111aa8782876118dd565b83156111bb576111bb8682866118dd565b50505050505050565b5f5f6111fa855f0151866020015187604001518860a001515f815181106111ed576111ed611fe8565b6020026020010151611061565b90505f73__$0619c6efb2ccf41d523ce88c1ce1b84c64$__633bde530e8760a001515f8151811061122d5761122d611fe8565b60200260200101516040518263ffffffff1660e01b815260040161126191906001600160e81b031991909116815260200190565b60e060405180830381865af415801561127c573d5f5f3e3d5ffd5b505050506040513d601f19601f820116820180604052508101906112a091906120a8565b90505f604051806101000160405280885f01516001600160a01b0316815260200188602001516001600160a01b0316815260200188604001516001600160a01b0316815260200188606001515f815181106112fd576112fd611fe8565b60200260200101518152602001876001600160801b03168152602001866001600160801b031681526020018360c0015161ffff1681526020018860800151151581525090505f826040015161137057608083015160ff165f908152600360205260409020546001600160a01b0316611392565b7f00000000000000000000000000000000000000000000000000000000000000005b90505f83606001516113c25760a084015160ff165f908152600460205260409020546001600160a01b03166113e4565b7f00000000000000000000000000000000000000000000000000000000000000005b845190915080156113f6575083602001515b156114885782604001516001600160a01b03166303dd785a8461141985876119d7565b61142385886119d7565b6040518463ffffffff1660e01b815260040161144193929190612202565b6020604051808303815f875af115801561145d573d5f5f3e3d5ffd5b505050506040513d601f19601f820116820180604052508101906114819190612241565b95506115b1565b835115801561149957508360200151155b156114ce5782604001516001600160a01b031663583c12f4846040518263ffffffff1660e01b81526004016114419190612258565b835180156114de57508360200151155b1561151e5782604001516001600160a01b0316635e3344d08461150185876119d7565b6040518363ffffffff1660e01b8152600401611441929190612267565b835115801561152e575083602001515b156115b15782604001516001600160a01b0316635e3344d08461155184876119d7565b6040518363ffffffff1660e01b815260040161156e929190612267565b6020604051808303815f875af115801561158a573d5f5f3e3d5ffd5b505050506040513d601f19601f820116820180604052508101906115ae9190612241565b95505b50505050935093915050565b80156116045781836001600160801b031610156115ff57604051630173586760e01b8152600481018390526001600160801b038416602482015260440161068f565b611640565b81846001600160801b03161015611640576040516368580a1960e01b8152600481018390526001600160801b038516602482015260440161068f565b50505050565b5f80670de0b6b3a764000061165b8489611f7a565b6116659190611f91565b61166f9089611f30565b90505f670de0b6b3a764000061168e856001600160801b038916611f7a565b6116989190611f91565b6116ab906001600160801b038916611f30565b5f86815260208c9052604090205490915015806116c6575080155b156116d3578192506116fa565b5f85815260208b9052604090205481906116ed9084611f7a565b6116f79190611f91565b92505b825f0361171a5760405163283eeadf60e01b815260040160405180910390fd5b5050979650505050505050565b6001600160a01b0383165f90815260016020908152604080832085845290915281208054839290611759908490611f30565b9091555050604080513381526020810183905283916001600160a01b038616915f915f5160206123415f395f51905f5291016110e8565b6001600160a01b0384166117e2578181146115ff5760405162461bcd60e51b8152602060048201526012602482015271125b98dbdc9c9958dd08115512081cd95b9d60721b604482015260640161068f565b80156118235760405162461bcd60e51b815260206004820152601060248201526f115512081b9bdd08195e1c1958dd195960821b604482015260640161068f565b6040516323b872dd60e01b81526001600160a01b038481166004830152306024830152604482018490528516906323b872dd906064016020604051808303815f875af1158015611875573d5f5f3e3d5ffd5b505050506040513d601f19601f820116820180604052508101906118999190612291565b6116405760405162461bcd60e51b8152602060048201526015602482015274115490cc8c081d1c985b9cd9995c8819985a5b1959605a1b604482015260640161068f565b6001600160a01b03831661191e576040516001600160a01b0383169082156108fc029083905f818181858888f19350505050158015611640573d5f5f3e3d5ffd5b60405163a9059cbb60e01b81526001600160a01b0383811660048301526024820183905284169063a9059cbb906044016020604051808303815f875af115801561196a573d5f5f3e3d5ffd5b505050506040513d601f19601f8201168201806040525081019061198e9190612291565b6119d25760405162461bcd60e51b8152602060048201526015602482015274115490cc8c081d1c985b9cd9995c8819985a5b1959605a1b604482015260640161068f565b505050565b60606119eb836001600160a01b0316611a78565b905080515f0361052a57604051633bd1104b60e01b81526001600160a01b03841690633bd1104b90611a21908590600401612258565b5f604051808303815f875af1158015611a3c573d5f5f3e3d5ffd5b505050506040513d5f823e601f3d908101601f19168201604052611a6391908101906122ac565b905061052a6001600160a01b03841682611ae9565b6060602082015f20805c80611a9b5760405192505f835260208301604052602083f35b60405192508083525f602082061160208204019050602081026020840101604052602083015f5b82811015611ae057600181850181015c835260209092019101611ac2565b50505050919050565b602082015f20815180825d6020830181810191505f5b82821015611b1f5781516001820185015d60209190910190600101611aff565b505050505050565b80356001600160a01b0381168114611b3d575f5ffd5b919050565b5f5f60408385031215611b53575f5ffd5b611b5c83611b27565b946020939093013593505050565b5f60208284031215611b7a575f5ffd5b81356001600160e01b031981168114611b91575f5ffd5b9392505050565b5f5f5f60608486031215611baa575f5ffd5b611bb384611b27565b95602085013595506040909401359392505050565b60ff81168114611bd6575f5ffd5b50565b5f5f60408385031215611bea575f5ffd5b8235611bf581611bc8565b9150611c0360208401611b27565b90509250929050565b8015158114611bd6575f5ffd5b5f5f60408385031215611c2a575f5ffd5b611c3383611b27565b91506020830135611c4381611c0c565b809150509250929050565b80356001600160e81b031981168114611b3d575f5ffd5b5f5f5f5f60808587031215611c78575f5ffd5b611c8185611b27565b9350611c8f60208601611b27565b9250611c9d60408601611b27565b9150611cab60608601611c4e565b905092959194509250565b5f5f5f60608486031215611cc8575f5ffd5b611cd184611b27565b9250611cdf60208501611b27565b929592945050506040919091013590565b5f60208284031215611d00575f5ffd5b5035919050565b5f60208284031215611d17575f5ffd5b8135611b9181611bc8565b80356001600160801b0381168114611b3d575f5ffd5b5f5f5f5f60808587031215611d4b575f5ffd5b611d5485611b27565b9350611d6260208601611b27565b9250611d7060408601611d22565b9150611cab60608601611d22565b5f5f60408385031215611d8f575f5ffd5b611bf583611b27565b5f5f5f5f5f60a08688031215611dac575f5ffd5b611db586611b27565b9450611dc360208701611b27565b9350611dd160408701611b27565b9250611ddf60608701611c4e565b949793965091946080013592915050565b5f5f5f5f5f5f5f60e0888a031215611e06575f5ffd5b611e0f88611b27565b9650611e1d60208901611b27565b9550611e2b60408901611b27565b9450611e3960608901611c4e565b93506080880135925060a0880135611e5081611c0c565b96999598509396929591949193505060c09091013590565b5f5f5f5f5f5f60c08789031215611e7d575f5ffd5b611e8687611b27565b9550611e9460208801611b27565b9450611ea260408801611b27565b9350611eb060608801611c4e565b9598949750929560808101359460a0909101359350915050565b5f5f5f5f60808587031215611edd575f5ffd5b611ee685611b27565b9350611ef460208601611b27565b93969395505050506040820135916060013590565b634e487b7160e01b5f52601160045260245ffd5b8181038181111561052a5761052a611f09565b8082018082111561052a5761052a611f09565b6020808252601d908201527f496e76616c696420706f696e7465723a206d75737420626520302d3135000000604082015260600190565b808202811582820484141761052a5761052a611f09565b5f82611fab57634e487b7160e01b5f52601260045260245ffd5b500490565b5f81600f0b60016001607f1b03198103611fcc57611fcc611f09565b5f0392915050565b634e487b7160e01b5f52604160045260245ffd5b634e487b7160e01b5f52603260045260245ffd5b600f81810b9083900b0160016001607f1b0381136f7fffffffffffffffffffffffffffffff198212171561052a5761052a611f09565b60405160e0810167ffffffffffffffff8111828210171561205557612055611fd4565b60405290565b604051601f8201601f1916810167ffffffffffffffff8111828210171561208457612084611fd4565b604052919050565b8051611b3d81611bc8565b805161ffff81168114611b3d575f5ffd5b5f60e08284031280156120b9575f5ffd5b506120c2612032565b82516120cd81611c0c565b815260208301516120dd81611c0c565b602082015260408301516120f081611c0c565b6040820152606083015161210381611c0c565b60608201526121146080840161208c565b608082015261212560a0840161208c565b60a082015261213660c08401612097565b60c08201529392505050565b80516001600160a01b03908116835260208083015182169084015260408083015190911690830152606080820151908301526080808201519061218f908401826001600160801b03169052565b5060a08101516121aa60a08401826001600160801b03169052565b5060c08101516121c060c084018261ffff169052565b5060e08101516119d260e084018215159052565b5f81518084528060208401602086015e5f602082860101526020601f19601f83011685010191505092915050565b61220c8185612142565b6101406101008201525f6122246101408301856121d4565b82810361012084015261223781856121d4565b9695505050505050565b5f60208284031215612251575f5ffd5b5051919050565b610100810161052a8284612142565b6122718184612142565b6101206101008201525f6122896101208301846121d4565b949350505050565b5f602082840312156122a1575f5ffd5b8151611b9181611c0c565b5f602082840312156122bc575f5ffd5b815167ffffffffffffffff8111156122d2575f5ffd5b8201601f810184136122e2575f5ffd5b805167ffffffffffffffff8111156122fc576122fc611fd4565b61230f601f8201601f191660200161205b565b818152856020838501011115612323575f5ffd5b8160208401602083015e5f9181016020019190915294935050505056fe1b3d7edb2e9c0b0e7c525b20aaaef0f5940d2ed71663c7d39266ecafac728859a26469706673582212201f693aa05b5e3055fb7aba25f0debe925dbcd168544e62b052fbefc61cb9f02064736f6c634300081e0033",
  "linkReferences": {
    "contracts/libraries/MarkingHelper.sol": {
      "MarkingHelper": [
        {
          "length": 20,
          "start": 4799
        }
      ]
    }
  },
  "deployedLinkReferences": {
    "contracts/libraries/MarkingHelper.sol": {
      "MarkingHelper": [
        {
          "length": 20,
          "start": 4607
        }
      ]
    }
  }
}