{
  "_format": "hh-sol-artifact-1",
  "contractName": "PrimaryProdDataServiceConsumerBase",
  "sourceName": "@redstone-finance/evm-connector/contracts/data-services/PrimaryProdDataServiceConsumerBase.sol",
  "abi": [
    {
      "inputs": [],
      "name": "CalldataMustHaveValidPayload",
      "type": "error"
    },
    {
      "inputs": [],
      "name": "CalldataOverOrUnderFlow",
      "type": "error"
    },
    {
      "inputs": [],
      "name": "CanNotPickMedianOfEmptyArray",
      "type": "error"
    },
    {
      "inputs": [],
      "name": "DataPackageTimestampMustNotBeZero",
      "type": "error"
    },
    {
      "inputs": [],
      "name": "DataPackageTimestampsMustBeEqual",
      "type": "error"
    },
    {
      "inputs": [],
      "name": "DataTimestampCannotBeZero",
      "type": "error"
    },
    {
      "inputs": [],
      "name": "EachSignerMustProvideTheSameValue",
      "type": "error"
    },
    {
      "inputs": [],
      "name": "EmptyCalldataPointersArr",
      "type": "error"
    },
    {
      "inputs": [],
      "name": "GetDataServiceIdNotImplemented",
      "type": "error"
    },
    {
      "inputs": [],
      "name": "IncorrectUnsignedMetadataSize",
      "type": "error"
    },
    {
      "inputs": [
        {
          "internalType": "uint256",
          "name": "receivedSignersCount",
          "type": "uint256"
        },
        {
          "internalType": "uint256",
          "name": "requiredSignersCount",
          "type": "uint256"
        }
      ],
      "name": "InsufficientNumberOfUniqueSigners",
      "type": "error"
    },
    {
      "inputs": [],
      "name": "InvalidCalldataPointer",
      "type": "error"
    },
    {
      "inputs": [],
      "name": "RedstonePayloadMustHaveAtLeastOneDataPackage",
      "type": "error"
    },
    {
      "inputs": [
        {
          "internalType": "address",
          "name": "receivedSigner",
          "type": "address"
        }
      ],
      "name": "SignerNotAuthorised",
      "type": "error"
    },
    {
      "inputs": [
        {
          "internalType": "uint256",
          "name": "receivedTimestampSeconds",
          "type": "uint256"
        },
        {
          "internalType": "uint256",
          "name": "blockTimestamp",
          "type": "uint256"
        }
      ],
      "name": "TimestampFromTooLongFuture",
      "type": "error"
    },
    {
      "inputs": [
        {
          "internalType": "uint256",
          "name": "receivedTimestampSeconds",
          "type": "uint256"
        },
        {
          "internalType": "uint256",
          "name": "blockTimestamp",
          "type": "uint256"
        }
      ],
      "name": "TimestampIsTooOld",
      "type": "error"
    },
    {
      "inputs": [],
      "name": "TimestampsMustBeEqual",
      "type": "error"
    },
    {
      "inputs": [
        {
          "internalType": "uint256",
          "name": "valueByteSize",
          "type": "uint256"
        }
      ],
      "name": "TooLargeValueByteSize",
      "type": "error"
    },
    {
      "inputs": [
        {
          "internalType": "uint256[]",
          "name": "values",
          "type": "uint256[]"
        }
      ],
      "name": "aggregateValues",
      "outputs": [
        {
          "internalType": "uint256",
          "name": "",
          "type": "uint256"
        }
      ],
      "stateMutability": "view",
      "type": "function"
    },
    {
      "inputs": [],
      "name": "extractTimestampsAndAssertAllAreEqual",
      "outputs": [
        {
          "internalType": "uint256",
          "name": "extractedTimestamp",
          "type": "uint256"
        }
      ],
      "stateMutability": "pure",
      "type": "function"
    },
    {
      "inputs": [
        {
          "internalType": "address",
          "name": "signerAddress",
          "type": "address"
        }
      ],
      "name": "getAuthorisedSignerIndex",
      "outputs": [
        {
          "internalType": "uint8",
          "name": "",
          "type": "uint8"
        }
      ],
      "stateMutability": "view",
      "type": "function"
    },
    {
      "inputs": [],
      "name": "getDataServiceId",
      "outputs": [
        {
          "internalType": "string",
          "name": "",
          "type": "string"
        }
      ],
      "stateMutability": "view",
      "type": "function"
    },
    {
      "inputs": [],
      "name": "getUniqueSignersThreshold",
      "outputs": [
        {
          "internalType": "uint8",
          "name": "",
          "type": "uint8"
        }
      ],
      "stateMutability": "view",
      "type": "function"
    },
    {
      "inputs": [
        {
          "internalType": "uint256",
          "name": "receivedTimestampMilliseconds",
          "type": "uint256"
        }
      ],
      "name": "validateTimestamp",
      "outputs": [],
      "stateMutability": "view",
      "type": "function"
    }
  ],
  "bytecode": "0x60808060405234601557610707908161001a8239f35b5f80fdfe60806040526004361015610011575f80fd5b5f3560e01c80633ce142f51461007457806355a547d51461006f578063b24ebfcc1461006a578063c274583a14610065578063f50b2efe146100605763f90c49241461005b575f80fd5b610359565b6102e1565b610263565b6101c4565b6100b2565b346100ae5760203660031901126100ae576004356001600160a01b03811681036100ae576100a3602091610374565b60ff60405191168152f35b5f80fd5b346100ae575f3660031901126100ae575f61ffff6100d66100d16104a6565b61052a565b91169081156101765791905f5b8181106100fa5760405183815280602081015b0390f35b909161010584610553565b9065ffffffffffff61011f61011987610454565b36610499565b35169081156101675780610144575060019161013b919561047e565b939291016100e3565b809591036101585760019161013b9161047e565b63d9d1f46560e01b5f5260045ffd5b630336dc9d60e41b5f5260045ffd5b632154bfcf60e21b5f5260045ffd5b634e487b7160e01b5f52604160045260245ffd5b6040519190601f01601f1916820167ffffffffffffffff8111838210176101bf57604052565b610185565b346100ae5760203660031901126100ae5760043567ffffffffffffffff81116100ae57366023820112156100ae5780600401359067ffffffffffffffff82116101bf578160051b6024602061021a818401610199565b809581520191830101913683116100ae57602401905b828210610253576100f6610243856105f1565b6040519081529081906020820190565b8135815260209182019101610230565b346100ae575f3660031901126100ae576040516040810181811067ffffffffffffffff8211176101bf576040526015815260406020820191741c99591cdd1bdb994b5c1c9a5b585c9e4b5c1c9bd9605a1b83528151928391602083525180918160208501528484015e5f828201840152601f01601f19168101030190f35b346100ae5760203660031901126100ae576103e8600435048042105f146103305742810381811161032b57603c1061031557005b63b6b0916d60e01b5f526004524260245260445ffd5b610440565b80420342811161032b5760b41061034357005b630321d0b560e01b5f526004524260245260445ffd5b346100ae575f3660031901126100ae57602060405160038152f35b6001600160a01b038116738bb8f32df04c8b654987daaed53d6b6091e3b774810361039f5750505f90565b73deb22f54738d54976c4c0fe5ce6d408e40d8849981036103c1575050600190565b7351ce04be4b3e32572c4ec9135221d0691ba7d20281036103e3575050600290565b73dd682daec5a90dd295d14da4b0bec9281017b5be8103610405575050600390565b739c5ae89c4af6aa32ce58588dbaf90d18a855b6de036104255750600490565b6303b1166f60e61b5f526001600160a01b031660045260245ffd5b634e487b7160e01b5f52601160045260245ffd5b906068820180921161032b57565b906002820180921161032b57565b90604e820180921161032b57565b9190820180921161032b57565b5f1981019190821161032b57565b9190820391821161032b57565b6602ed57011e0000601f19360135166602ed57011e00000361051b573660291161050c5762ffffff602819360135166003810180911161032b576009810180911161032b57366104f582610462565b116104fd5790565b63c30a7bd760e01b5f5260045ffd5b632bcb7bc560e11b5f5260045ffd5b6373bb264f60e11b5f5260045ffd5b906020820180831161032b57361061050c57600282019182811161032b573603601f1901359190565b6041810180821161032b57606182011061032b57360360601981019036821161032b57606319019080821161032b5762ffffff63ffffffff913516913516602001908160201161032b5781810291818304149015171561032b576105b690610470565b90565b8051600110156105c95760400190565b634e487b7160e01b5f52603260045260245ffd5b80518210156105c95760209160051b010190565b6002815114610665578051156106565761060a81610681565b805160011c8151600116610649576105b69161063c8261063561062f6106439561048b565b846105dd565b51926105dd565b519061047e565b60011c90565b610652916105dd565b5190565b639e198af960e01b5f5260045ffd5b8051156105c9576106438161063c60206105b6940151916105b9565b805160051b810160209081019101805b82811061069d57505050565b815b8181106106af5750602001610691565b602090825181518082106106c6575b50500161069f565b845281525f806106be56fea2646970667358221220ed087aad2b8306a325b4752c81e17266a94169431e6afc359d34ddcb1de4ed1864736f6c634300081e0033",
  "linkReferences": {},
  "deployedLinkReferences": {}
}