{
  "_format": "hh-sol-artifact-1",
  "contractName": "MarkingHelper",
  "sourceName": "contracts/libraries/MarkingHelper.sol",
  "abi": [
    {
      "inputs": [
        {
          "internalType": "bytes3",
          "name": "markings",
          "type": "bytes3"
        }
      ],
      "name": "decodeMarkings",
      "outputs": [
        {
          "components": [
            {
              "internalType": "bool",
              "name": "isAlpha",
              "type": "bool"
            },
            {
              "internalType": "bool",
              "name": "isBeta",
              "type": "bool"
            },
            {
              "internalType": "bool",
              "name": "isAlphaDefault",
              "type": "bool"
            },
            {
              "internalType": "bool",
              "name": "isBetaDefault",
              "type": "bool"
            },
            {
              "internalType": "uint8",
              "name": "alphaAddressPointer",
              "type": "uint8"
            },
            {
              "internalType": "uint8",
              "name": "betaAddressPointer",
              "type": "uint8"
            },
            {
              "internalType": "uint16",
              "name": "bucketID",
              "type": "uint16"
            }
          ],
          "internalType": "struct Marking",
          "name": "result",
          "type": "tuple"
        }
      ],
      "stateMutability": "pure",
      "type": "function"
    }
  ],
  "bytecode": "0x6101b6610034600b8282823980515f1a607314602857634e487b7160e01b5f525f60045260245ffd5b305f52607381538281f3fe7300000000000000000000000000000000000000003014608060405260043610610034575f3560e01c80633bde530e14610038575b5f5ffd5b6100cd6100463660046100e3565b6040805160e0810182525f8082526020808301828152938301828152606084018381526080850184815260a0860185815260c0870195865297909301516001808216875281811c8116909752600281901c8716909252600382901c909516909452600484901c600f908116909152600884901c16909352600c9190911c610fff1690915290565b6040516100da9190610111565b60405180910390f35b5f602082840312156100f3575f5ffd5b81356001600160e81b03198116811461010a575f5ffd5b9392505050565b5f60e08201905082511515825260208301511515602083015260408301511515604083015260608301511515606083015260ff608084015116608083015260a083015161016360a084018260ff169052565b5060c083015161017960c084018261ffff169052565b509291505056fea2646970667358221220bd2f8c1d6a6ae9bb120ee4fcb472cdccef416b6da43063e6a53f2c276d80292364736f6c634300081e0033",
  "linkReferences": {},
  "deployedLinkReferences": {}
}