{
  "_format": "hh-sol-artifact-1",
  "contractName": "V3DataRedStoneQuoterFixed",
  "sourceName": "contracts/Peripheral/quoters/dummyRealData/V3DataRedStoneQuoterFixed.sol",
  "abi": [
    {
      "inputs": [
        {
          "internalType": "address",
          "name": "_v3dataBridge",
          "type": "address"
        },
        {
          "internalType": "address",
          "name": "_redstoneBridge",
          "type": "address"
        }
      ],
      "stateMutability": "nonpayable",
      "type": "constructor"
    },
    {
      "inputs": [
        {
          "components": [
            {
              "internalType": "address",
              "name": "asset0",
              "type": "address"
            },
            {
              "internalType": "address",
              "name": "asset1",
              "type": "address"
            },
            {
              "internalType": "address",
              "name": "quoter",
              "type": "address"
            },
            {
              "internalType": "uint256",
              "name": "amount",
              "type": "uint256"
            },
            {
              "internalType": "uint128",
              "name": "asset0Balance",
              "type": "uint128"
            },
            {
              "internalType": "uint128",
              "name": "asset1Balance",
              "type": "uint128"
            },
            {
              "internalType": "uint16",
              "name": "bucketID",
              "type": "uint16"
            },
            {
              "internalType": "bool",
              "name": "zeroForOne",
              "type": "bool"
            }
          ],
          "internalType": "struct QuoteParams",
          "name": "params",
          "type": "tuple"
        },
        {
          "internalType": "bytes",
          "name": "",
          "type": "bytes"
        }
      ],
      "name": "quote",
      "outputs": [
        {
          "internalType": "uint256",
          "name": "",
          "type": "uint256"
        }
      ],
      "stateMutability": "nonpayable",
      "type": "function"
    },
    {
      "inputs": [
        {
          "components": [
            {
              "internalType": "address",
              "name": "asset0",
              "type": "address"
            },
            {
              "internalType": "address",
              "name": "asset1",
              "type": "address"
            },
            {
              "internalType": "address",
              "name": "quoter",
              "type": "address"
            },
            {
              "internalType": "uint256[]",
              "name": "amount",
              "type": "uint256[]"
            },
            {
              "internalType": "uint128[]",
              "name": "asset0Balances",
              "type": "uint128[]"
            },
            {
              "internalType": "uint128[]",
              "name": "asset1Balances",
              "type": "uint128[]"
            },
            {
              "internalType": "uint16[]",
              "name": "bucketID",
              "type": "uint16[]"
            },
            {
              "internalType": "bool",
              "name": "zeroForOne",
              "type": "bool"
            }
          ],
          "internalType": "struct QuoteParamsBatch",
          "name": "params",
          "type": "tuple"
        },
        {
          "internalType": "bytes",
          "name": "",
          "type": "bytes"
        }
      ],
      "name": "quoteBatch",
      "outputs": [
        {
          "internalType": "uint256[]",
          "name": "quotes",
          "type": "uint256[]"
        }
      ],
      "stateMutability": "nonpayable",
      "type": "function"
    },
    {
      "inputs": [],
      "name": "redstoneBridge",
      "outputs": [
        {
          "internalType": "contract IDataBridge",
          "name": "",
          "type": "address"
        }
      ],
      "stateMutability": "view",
      "type": "function"
    },
    {
      "inputs": [],
      "name": "v3dataBridge",
      "outputs": [
        {
          "internalType": "contract IDataBridge",
          "name": "",
          "type": "address"
        }
      ],
      "stateMutability": "view",
      "type": "function"
    }
  ],
  "bytecode": "0x60c03461009357601f610c8638819003918201601f19168301916001600160401b0383118484101761009757808492604094855283398101031261009357610052602061004b836100ab565b92016100ab565b6001600160a01b039182166080521660a052604051610bc690816100c0823960805181818161041e0152610541015260a05181818161056801526106910152f35b5f80fd5b634e487b7160e01b5f52604160045260245ffd5b51906001600160a01b03821682036100935756fe6080806040526004361015610012575f80fd5b5f3560e01c9081632aa78cc81461067f575080635e3344d01461044d578063ccb72658146104095763db90d10014610048575f80fd5b34610383576040366003190112610383576004356001600160401b0381116103835761010060031982360301126103835760405190610086826106c0565b6100928160040161072c565b82526100a06024820161072c565b91602081019283526100b46044830161072c565b6040820190815260648301356001600160401b0381116103835783019236602385011215610383576004840135936100eb856107a1565b946100f9604051968761070b565b808652602060048188019260051b840101019136831161038357602401905b8282106103f9575050506060830193845260848101356001600160401b0381116103835761014c90600436918401016107b8565b906080840191825260a48101356001600160401b0381116103835761017790600436918401016107b8565b60a0850190815260c48201356001600160401b03811161038357820191366023840112156103835760048301356101ad816107a1565b936101bb604051958661070b565b818552602060048187019360051b830101019036821161038357602401915b8183106103de5750505060c0860192835260e401359283151584036103835760e086019384526024356001600160401b0381116103835761021f90369060040161075b565b5086515195610246610230886107a1565b9761023e604051998a61070b565b8089526107a1565b602088019190601f19013683375f5b895190815181101561039a5782518c518a516001600160a01b0392831694918316921690610284908490610844565b518388519061029291610844565b516001600160801b0316848a51906102a991610844565b516001600160801b031691858c51906102c191610844565b5161ffff16938d51151595604051986102d98a6106c0565b8952602089015260408801526060870152608086015260a085015260c084015260e0830152604051916305e3344d60e41b8352600483016103199161086c565b6101206101048301525f6101248301528180305a925f61014492602095f1801561038f575f90610359575b60019250610352828c610844565b5201610255565b506020823d8211610387575b816103726020938361070b565b810103126103835760019151610344565b5f80fd5b3d9150610365565b6040513d5f823e3d90fd5b838a604051918291602083019060208452518091526040830191905f5b8181106103c5575050500390f35b82518452859450602093840193909201916001016103b7565b823561ffff81168103610383578152602092830192016101da565b8135815260209182019101610118565b34610383575f366003190112610383576040517f00000000000000000000000000000000000000000000000000000000000000006001600160a01b03168152602090f35b346103835736600319016101208112610383576101001361038357604051610474816106c0565b6004356001600160a01b03811681036103835781526024356001600160a01b03811681036103835760208201526044356001600160a01b0381168103610383576040820152606081019060643582526084356001600160801b038116810361038357608082015260a4356001600160801b03811681036103835760a082015260c43561ffff811681036103835760c082015260e43580151581036103835760e0820152610104356001600160401b0381116103835761053790369060040161075b565b5061058c610565827f000000000000000000000000000000000000000000000000000000000000000061090b565b917f000000000000000000000000000000000000000000000000000000000000000061090b565b5f905f926060810151610672575b506060810151610655575b50908015610620576105b691610826565b905164e8d4a5100081029080820464e8d4a51000148115171561060c576c0c9f2c9cd04674edea400000000290808204670de0b6b3a7640000149015171561060c5760209161060491610826565b604051908152f35b634e487b7160e01b5f52601160045260245ffd5b60405162461bcd60e51b815260206004820152600d60248201526c4e6f207072696365206461746160981b6044820152606490fd5b51810180911161060c57906001810180911161060c5790836105a5565b516001935091508461059a565b34610383575f366003190112610383577f00000000000000000000000000000000000000000000000000000000000000006001600160a01b03168152602090f35b61010081019081106001600160401b038211176106dc57604052565b634e487b7160e01b5f52604160045260245ffd5b608081019081106001600160401b038211176106dc57604052565b90601f801991011681019081106001600160401b038211176106dc57604052565b35906001600160a01b038216820361038357565b6001600160401b0381116106dc57601f01601f191660200190565b81601f820112156103835780359061077282610740565b92610780604051948561070b565b8284526020838301011161038357815f926020809301838601378301015290565b6001600160401b0381116106dc5760051b60200190565b9080601f83011215610383578135906107d0826107a1565b926107de604051948561070b565b82845260208085019360051b82010191821161038357602001915b8183106108065750505090565b82356001600160801b0381168103610383578152602092830192016107f9565b8115610830570490565b634e487b7160e01b5f52601260045260245ffd5b80518210156108585760209160051b010190565b634e487b7160e01b5f52603260045260245ffd5b60e0809160018060a01b03815116845260018060a01b03602082015116602085015260018060a01b036040820151166040850152606081015160608501526001600160801b0360808201511660808501526001600160801b0360a08201511660a085015261ffff60c08201511660c085015201511515910152565b604051906108f4826106f0565b5f6060838281528260208201528260408201520152565b905f80926109176108e7565b5061010460405180958193633bd1104b60e01b8352610939600484018861086c565b6001600160a01b03165af15f9281610983575b5061097757505060405161095f816106f0565b5f81525f60208201524260408201525f606082015290565b610980916109fe565b90565b9092503d805f833e610995818361070b565b810190602081830312610383578051906001600160401b038211610383570181601f82011215610383578051906109cb82610740565b926109d9604051948561070b565b8284526020838301011161038357815f9260208093018386015e83010152915f61094c565b9050610a086108e7565b50805115610b0a5780518160408214610a81579050519060208214610a3557505060405161095f816106f0565b6020808201928201919091031261038357610a5a9051610a536108e7565b5080610b17565b5060405190610a68826106f0565b8082528060208301524260408301521515606082015290565b6040918101031261038357610ac760406020830151920151610aa16108e7565b5066038d7ea4c6800081119081610afb575b8115610af45783915b15610aec5792610b17565b9160405192610ad5846106f0565b828452602084015260408301521515606082015290565b504292610b17565b8091610abc565b6404a817c80081109150610ab3565b5060405161095f816106f0565b909190801580158181610b88575b610b8257670de0b6b3a7640000831015610b825715610b7a57610830576ec097ce7bc90715b34b9f1000000000045b91801580610b7457610830576ec097ce7bc90715b34b9f10000000000490565b50505f90565b50505f610b54565b50509190565b508415610b2556fea26469706673582212201e224111428f80d3d6f3f9d9a5c7869ece9449fb6af77bde38b2a5185a63127c64736f6c634300081e0033",
  "linkReferences": {},
  "deployedLinkReferences": {}
}