{
  "_format": "hh-sol-artifact-1",
  "contractName": "PoolRegistry",
  "sourceName": "contracts/Core/PoolRegistry.sol",
  "abi": [
    {
      "inputs": [
        {
          "internalType": "address",
          "name": "_poolManager",
          "type": "address"
        }
      ],
      "stateMutability": "nonpayable",
      "type": "constructor"
    },
    {
      "anonymous": false,
      "inputs": [
        {
          "indexed": true,
          "internalType": "uint256",
          "name": "poolId",
          "type": "uint256"
        },
        {
          "indexed": false,
          "internalType": "uint256",
          "name": "timestamp",
          "type": "uint256"
        }
      ],
      "name": "PoolDeactivated",
      "type": "event"
    },
    {
      "anonymous": false,
      "inputs": [
        {
          "indexed": true,
          "internalType": "uint256",
          "name": "poolId",
          "type": "uint256"
        },
        {
          "indexed": false,
          "internalType": "string",
          "name": "name",
          "type": "string"
        },
        {
          "indexed": false,
          "internalType": "string",
          "name": "description",
          "type": "string"
        }
      ],
      "name": "PoolMetadataUpdated",
      "type": "event"
    },
    {
      "anonymous": false,
      "inputs": [
        {
          "indexed": true,
          "internalType": "uint256",
          "name": "poolId",
          "type": "uint256"
        },
        {
          "indexed": false,
          "internalType": "uint256",
          "name": "timestamp",
          "type": "uint256"
        }
      ],
      "name": "PoolReactivated",
      "type": "event"
    },
    {
      "anonymous": false,
      "inputs": [
        {
          "indexed": true,
          "internalType": "uint256",
          "name": "poolId",
          "type": "uint256"
        },
        {
          "indexed": true,
          "internalType": "address",
          "name": "asset0",
          "type": "address"
        },
        {
          "indexed": true,
          "internalType": "address",
          "name": "asset1",
          "type": "address"
        },
        {
          "indexed": false,
          "internalType": "address",
          "name": "quoter",
          "type": "address"
        },
        {
          "indexed": false,
          "internalType": "bytes3",
          "name": "markings",
          "type": "bytes3"
        },
        {
          "indexed": false,
          "internalType": "uint256",
          "name": "timestamp",
          "type": "uint256"
        }
      ],
      "name": "PoolRegistered",
      "type": "event"
    },
    {
      "anonymous": false,
      "inputs": [
        {
          "indexed": true,
          "internalType": "uint256",
          "name": "poolId",
          "type": "uint256"
        },
        {
          "indexed": false,
          "internalType": "uint256",
          "name": "swapCount",
          "type": "uint256"
        },
        {
          "indexed": false,
          "internalType": "uint256",
          "name": "volume",
          "type": "uint256"
        },
        {
          "indexed": false,
          "internalType": "uint256",
          "name": "fees",
          "type": "uint256"
        }
      ],
      "name": "PoolStatisticsUpdated",
      "type": "event"
    },
    {
      "inputs": [
        {
          "internalType": "uint256",
          "name": "",
          "type": "uint256"
        }
      ],
      "name": "allPoolIds",
      "outputs": [
        {
          "internalType": "uint256",
          "name": "",
          "type": "uint256"
        }
      ],
      "stateMutability": "view",
      "type": "function"
    },
    {
      "inputs": [
        {
          "internalType": "address",
          "name": "",
          "type": "address"
        }
      ],
      "name": "authorized",
      "outputs": [
        {
          "internalType": "bool",
          "name": "",
          "type": "bool"
        }
      ],
      "stateMutability": "view",
      "type": "function"
    },
    {
      "inputs": [
        {
          "internalType": "uint256",
          "name": "poolId",
          "type": "uint256"
        }
      ],
      "name": "deactivatePool",
      "outputs": [],
      "stateMutability": "nonpayable",
      "type": "function"
    },
    {
      "inputs": [],
      "name": "getAllPoolIds",
      "outputs": [
        {
          "internalType": "uint256[]",
          "name": "",
          "type": "uint256[]"
        }
      ],
      "stateMutability": "view",
      "type": "function"
    },
    {
      "inputs": [
        {
          "internalType": "address",
          "name": "asset0",
          "type": "address"
        },
        {
          "internalType": "address",
          "name": "asset1",
          "type": "address"
        },
        {
          "internalType": "address",
          "name": "quoter",
          "type": "address"
        },
        {
          "internalType": "bytes3",
          "name": "markings",
          "type": "bytes3"
        }
      ],
      "name": "getPoolByKey",
      "outputs": [
        {
          "internalType": "uint256",
          "name": "",
          "type": "uint256"
        }
      ],
      "stateMutability": "view",
      "type": "function"
    },
    {
      "inputs": [
        {
          "internalType": "uint256",
          "name": "poolId",
          "type": "uint256"
        }
      ],
      "name": "getPoolDetails",
      "outputs": [
        {
          "components": [
            {
              "internalType": "address",
              "name": "asset0",
              "type": "address"
            },
            {
              "internalType": "address",
              "name": "asset1",
              "type": "address"
            },
            {
              "internalType": "address",
              "name": "quoter",
              "type": "address"
            },
            {
              "internalType": "bytes3",
              "name": "markings",
              "type": "bytes3"
            },
            {
              "internalType": "uint256",
              "name": "createdAt",
              "type": "uint256"
            },
            {
              "internalType": "uint256",
              "name": "totalVolume",
              "type": "uint256"
            },
            {
              "internalType": "uint256",
              "name": "totalFees",
              "type": "uint256"
            },
            {
              "internalType": "bool",
              "name": "isActive",
              "type": "bool"
            },
            {
              "internalType": "string",
              "name": "name",
              "type": "string"
            },
            {
              "internalType": "string",
              "name": "description",
              "type": "string"
            }
          ],
          "internalType": "struct PoolRegistry.PoolMetadata",
          "name": "metadata",
          "type": "tuple"
        },
        {
          "components": [
            {
              "internalType": "uint256",
              "name": "swapCount",
              "type": "uint256"
            },
            {
              "internalType": "uint256",
              "name": "liquidityEventCount",
              "type": "uint256"
            },
            {
              "internalType": "uint256",
              "name": "lastActivityTimestamp",
              "type": "uint256"
            },
            {
              "internalType": "uint256",
              "name": "highestLiquidity",
              "type": "uint256"
            },
            {
              "internalType": "uint256",
              "name": "lowestLiquidity",
              "type": "uint256"
            },
            {
              "internalType": "uint128",
              "name": "avgSwapSize",
              "type": "uint128"
            }
          ],
          "internalType": "struct PoolRegistry.PoolStatistics",
          "name": "statistics",
          "type": "tuple"
        }
      ],
      "stateMutability": "view",
      "type": "function"
    },
    {
      "inputs": [
        {
          "internalType": "address",
          "name": "asset",
          "type": "address"
        }
      ],
      "name": "getPoolsByAsset",
      "outputs": [
        {
          "internalType": "uint256[]",
          "name": "",
          "type": "uint256[]"
        }
      ],
      "stateMutability": "view",
      "type": "function"
    },
    {
      "inputs": [
        {
          "internalType": "address",
          "name": "quoter",
          "type": "address"
        }
      ],
      "name": "getPoolsByQuoter",
      "outputs": [
        {
          "internalType": "uint256[]",
          "name": "",
          "type": "uint256[]"
        }
      ],
      "stateMutability": "view",
      "type": "function"
    },
    {
      "inputs": [
        {
          "internalType": "uint256",
          "name": "poolId",
          "type": "uint256"
        }
      ],
      "name": "isPoolActive",
      "outputs": [
        {
          "internalType": "bool",
          "name": "",
          "type": "bool"
        }
      ],
      "stateMutability": "view",
      "type": "function"
    },
    {
      "inputs": [
        {
          "internalType": "bytes32",
          "name": "",
          "type": "bytes32"
        }
      ],
      "name": "poolLookup",
      "outputs": [
        {
          "internalType": "uint256",
          "name": "",
          "type": "uint256"
        }
      ],
      "stateMutability": "view",
      "type": "function"
    },
    {
      "inputs": [],
      "name": "poolManager",
      "outputs": [
        {
          "internalType": "address",
          "name": "",
          "type": "address"
        }
      ],
      "stateMutability": "view",
      "type": "function"
    },
    {
      "inputs": [
        {
          "internalType": "uint256",
          "name": "",
          "type": "uint256"
        }
      ],
      "name": "poolMetadata",
      "outputs": [
        {
          "internalType": "address",
          "name": "asset0",
          "type": "address"
        },
        {
          "internalType": "address",
          "name": "asset1",
          "type": "address"
        },
        {
          "internalType": "address",
          "name": "quoter",
          "type": "address"
        },
        {
          "internalType": "bytes3",
          "name": "markings",
          "type": "bytes3"
        },
        {
          "internalType": "uint256",
          "name": "createdAt",
          "type": "uint256"
        },
        {
          "internalType": "uint256",
          "name": "totalVolume",
          "type": "uint256"
        },
        {
          "internalType": "uint256",
          "name": "totalFees",
          "type": "uint256"
        },
        {
          "internalType": "bool",
          "name": "isActive",
          "type": "bool"
        },
        {
          "internalType": "string",
          "name": "name",
          "type": "string"
        },
        {
          "internalType": "string",
          "name": "description",
          "type": "string"
        }
      ],
      "stateMutability": "view",
      "type": "function"
    },
    {
      "inputs": [
        {
          "internalType": "uint256",
          "name": "",
          "type": "uint256"
        }
      ],
      "name": "poolStatistics",
      "outputs": [
        {
          "internalType": "uint256",
          "name": "swapCount",
          "type": "uint256"
        },
        {
          "internalType": "uint256",
          "name": "liquidityEventCount",
          "type": "uint256"
        },
        {
          "internalType": "uint256",
          "name": "lastActivityTimestamp",
          "type": "uint256"
        },
        {
          "internalType": "uint256",
          "name": "highestLiquidity",
          "type": "uint256"
        },
        {
          "internalType": "uint256",
          "name": "lowestLiquidity",
          "type": "uint256"
        },
        {
          "internalType": "uint128",
          "name": "avgSwapSize",
          "type": "uint128"
        }
      ],
      "stateMutability": "view",
      "type": "function"
    },
    {
      "inputs": [
        {
          "internalType": "address",
          "name": "",
          "type": "address"
        },
        {
          "internalType": "uint256",
          "name": "",
          "type": "uint256"
        }
      ],
      "name": "poolsByAsset",
      "outputs": [
        {
          "internalType": "uint256",
          "name": "",
          "type": "uint256"
        }
      ],
      "stateMutability": "view",
      "type": "function"
    },
    {
      "inputs": [
        {
          "internalType": "address",
          "name": "",
          "type": "address"
        },
        {
          "internalType": "uint256",
          "name": "",
          "type": "uint256"
        }
      ],
      "name": "poolsByQuoter",
      "outputs": [
        {
          "internalType": "uint256",
          "name": "",
          "type": "uint256"
        }
      ],
      "stateMutability": "view",
      "type": "function"
    },
    {
      "inputs": [
        {
          "internalType": "uint256",
          "name": "poolId",
          "type": "uint256"
        }
      ],
      "name": "reactivatePool",
      "outputs": [],
      "stateMutability": "nonpayable",
      "type": "function"
    },
    {
      "inputs": [
        {
          "internalType": "uint256",
          "name": "poolId",
          "type": "uint256"
        },
        {
          "internalType": "uint256",
          "name": "currentLiquidity",
          "type": "uint256"
        }
      ],
      "name": "recordLiquidityEvent",
      "outputs": [],
      "stateMutability": "nonpayable",
      "type": "function"
    },
    {
      "inputs": [
        {
          "internalType": "uint256",
          "name": "poolId",
          "type": "uint256"
        },
        {
          "internalType": "uint256",
          "name": "swapSize",
          "type": "uint256"
        },
        {
          "internalType": "uint256",
          "name": "volumeInUSD",
          "type": "uint256"
        },
        {
          "internalType": "uint256",
          "name": "feesCollected",
          "type": "uint256"
        }
      ],
      "name": "recordSwap",
      "outputs": [],
      "stateMutability": "nonpayable",
      "type": "function"
    },
    {
      "inputs": [
        {
          "internalType": "uint256",
          "name": "poolId",
          "type": "uint256"
        },
        {
          "internalType": "address",
          "name": "asset0",
          "type": "address"
        },
        {
          "internalType": "address",
          "name": "asset1",
          "type": "address"
        },
        {
          "internalType": "address",
          "name": "quoter",
          "type": "address"
        },
        {
          "internalType": "bytes3",
          "name": "markings",
          "type": "bytes3"
        }
      ],
      "name": "registerPool",
      "outputs": [
        {
          "internalType": "bool",
          "name": "",
          "type": "bool"
        }
      ],
      "stateMutability": "nonpayable",
      "type": "function"
    },
    {
      "inputs": [
        {
          "internalType": "address",
          "name": "account",
          "type": "address"
        },
        {
          "internalType": "bool",
          "name": "status",
          "type": "bool"
        }
      ],
      "name": "setAuthorized",
      "outputs": [],
      "stateMutability": "nonpayable",
      "type": "function"
    },
    {
      "inputs": [],
      "name": "totalPools",
      "outputs": [
        {
          "internalType": "uint256",
          "name": "",
          "type": "uint256"
        }
      ],
      "stateMutability": "view",
      "type": "function"
    },
    {
      "inputs": [
        {
          "internalType": "uint256",
          "name": "poolId",
          "type": "uint256"
        },
        {
          "internalType": "string",
          "name": "name",
          "type": "string"
        },
        {
          "internalType": "string",
          "name": "description",
          "type": "string"
        }
      ],
      "name": "updatePoolMetadata",
      "outputs": [],
      "stateMutability": "nonpayable",
      "type": "function"
    }
  ],
  "bytecode": "0x608034607057601f61190138819003918201601f19168301916001600160401b03831184841017607457808492602094604052833981010312607057516001600160a01b03811690819003607057600780546001600160a01b03191691909117905560405161187890816100898239f35b5f80fd5b634e487b7160e01b5f52604160045260245ffdfe60806040526004361015610011575f80fd5b5f3560e01c80631c50f93314610f5157806340c415e914610df257806356a8093414610d7457806357739c2314610cfc5780636103867914610c78578063711bf9b214610c145780638534fb4614610b3b578063864125871461082c578063887bbdd2146107ba5780638eeabc3614610771578063904a66ca146107075780639abd9b0514610620578063ab3c7e5214610603578063ac5a9d97146105d9578063b4340e6a14610567578063b8764c39146102ef578063b9181611146102b2578063bbbaf8c814610281578063dc4c90d314610259578063e9b3d22014610201578063f19c3d5b1461017d5763fcb72a9c1461010b575f80fd5b3461017957602036600319011261017957600435600654811015610179576006548110156101655760065f527ff652222313e28459528d920b65115c16c04f3efc82aaedc97be59f3f377c0d3f0154604051908152602090f35b634e487b7160e01b5f52603260045260245ffd5b5f80fd5b34610179575f3660031901126101795760405180602060065491828152019060065f527ff652222313e28459528d920b65115c16c04f3efc82aaedc97be59f3f377c0d3f905f5b8181106101eb576101e7856101db818703826110ed565b60405191829182611201565b0390f35b82548452602090930192600192830192016101c4565b346101795760403660031901126101795761021a61103a565b6001600160a01b03165f908152600360205260409020805460243591908210156101795760209161024a9161123a565b90549060031b1c604051908152f35b34610179575f366003190112610179576007546040516001600160a01b039091168152602090f35b34610179576020366003190112610179576004355f525f602052602060ff600660405f200154166040519015158152f35b34610179576020366003190112610179576001600160a01b036102d361103a565b165f526008602052602060ff60405f2054166040519015158152f35b346101795760203660031901126101795761052c6004356060610120604051610317816110b4565b5f81525f60208201525f60408201525f838201525f60808201525f60a08201525f60c08201525f60e08201528261010082015201525f60a060405161035b816110d1565b8281528260208201528260408201528260608201528260808201520152805f525f60205260405f20905f52600160205260405f206104206008604051936103a1856110b4565b80546001600160a01b0390811686526001820154811660208701526002820154908116604087015260481b6001600160e81b031916606086015260038101546080860152600481015460a0860152600581015460c0860152600681015460ff16151560e08601526104146007820161110f565b6101008601520161110f565b6101208301526001600160801b0360056040519261043d846110d1565b805484526001810154602085015260028101546040850152600381015460608501526004810154608085015201541660a08201526001600160801b0360a060405194859460e08652600180841b0381511660e0870152600180841b03602082015116610100870152600180841b0360408201511661012087015262ffffff60e81b60608201511661014087015260808101516101608701528281015161018087015260c08101516101a087015260e081015115156101c08701526101206105176101008301516101406101e08a01526102208901906111af565b91015186820360df19016102008801526111af565b928051602086015260208101516040860152604081015160608601526060810151608086015260808101518286015201511660c08301520390f35b34610179576020366003190112610179576001600160a01b0361058861103a565b165f52600360205260405f206040519081602082549182815201915f5260205f20905f5b8181106105c3576101e7856101db818703826110ed565b82548452602090930192600192830192016105ac565b34610179576020366003190112610179576004355f526002602052602060405f2054604051908152f35b34610179575f366003190112610179576020600554604051908152f35b346101795760203660031901126101795760043560018060a01b0360075416331480156106ef575b6106519061124f565b805f525f60205260ff600660405f20015416156106aa57805f525f602052600660405f200160ff1981541690557f35e8784e70e18f30e0d262a23d57e3b0b384329e79eec7566083c2bd2a207ac86020604051428152a2005b60405162461bcd60e51b815260206004820152601e60248201527f506f6f6c52656769737472793a20416c726561647920696e61637469766500006044820152606490fd5b50335f9081526008602052604090205460ff16610648565b34610179576020366003190112610179576004355f52600160205260c060405f2080549060018101549060028101546003820154906001600160801b03600560048501549401541693604051958652602086015260408501526060840152608083015260a0820152f35b346101795760403660031901126101795761078a61103a565b6001600160a01b03165f908152600460205260409020805460243591908210156101795760209161024a9161123a565b34610179576020366003190112610179576001600160a01b036107db61103a565b165f52600460205260405f206040519081602082549182815201915f5260205f20905f5b818110610816576101e7856101db818703826110ed565b82548452602090930192600192830192016107ff565b346101795760603660031901126101795760043560243567ffffffffffffffff8111610179576108609036906004016111d3565b919060443567ffffffffffffffff8111610179576108829036906004016111d3565b939060018060a01b036007541633148015610b23575b6108a19061124f565b835f525f602052600360405f20015415610ade57835f525f602052600760405f200167ffffffffffffffff8311610a5c576108e6836108e0835461107c565b83611344565b5f83601f8111600114610a7b5780610912925f91610a70575b508160011b915f199060031b1c19161790565b90555b835f525f602052600860405f20019467ffffffffffffffff8111610a5c5761094781610941885461107c565b88611344565b5f95601f82116001146109d357906109c3929161099b82807f61ce440896fbb9ead9897dc071277c647adf0ff569c51e91659311377be192f2999a5f916109c857508160011b915f199060031b1c19161790565b90555b6109b5604051958695604087526040870191611822565b918483036020860152611822565b0390a2005b90508501358b6108ff565b601f198216815f5260205f20905f5b818110610a445750907f61ce440896fbb9ead9897dc071277c647adf0ff569c51e91659311377be192f29798846109c39695949310610a2b575b5050600182811b01905561099e565b8401355f19600385901b60f8161c191690558880610a1c565b858a013583556020998a0199600190930192016109e2565b634e487b7160e01b5f52604160045260245ffd5b9050860135896108ff565b50601f19841690825f528460205f20925f5b818110610ac3575010610aaa575b5050600183811b019055610915565b8501355f19600386901b60f8161c191690558680610a9b565b88840135855560019094019360209384019388935001610a8d565b60405162461bcd60e51b815260206004820152601c60248201527f506f6f6c52656769737472793a20506f6f6c206e6f7420666f756e64000000006044820152606490fd5b50335f9081526008602052604090205460ff16610898565b34610179576020366003190112610179576004355f525f60205260405f2060018060a01b038154166101e760018060a01b0360018401541692610c056002820154916003810154600482015460058301549060ff60068501541692610bae6008610ba76007880161110f565b960161110f565b966040519a8b9a8b5260208b015260018060a01b03811660408b015262ffffff60e81b9060481b1660608a0152608089015260a088015260c0870152151560e08601526101406101008601526101408501906111af565b908382036101208501526111af565b3461017957604036600319011261017957610c2d61103a565b602435801515810361017957610c7691610c5260018060a01b0360075416331461129b565b60018060a01b03165f52600860205260405f209060ff801983541691151516179055565b005b3461017957604036600319011261017957602435610ca160018060a01b0360075416331461129b565b6004355f526001602052600460405f2060018101610cbf81546112e7565b9055426002820155826003820180548211610cf4575b5050018054821080610ceb575b610ce857005b55005b50811515610ce2565b558284610cd5565b346101795760a036600319011261017957610d15611050565b610d1d611066565b906064356001600160a01b038116810361017957608435906001600160e81b03198216820361017957602093610d6a93610d6260018060a01b0360075416331461129b565b6004356113ce565b6040519015158152f35b3461017957608036600319011261017957610d8d61103a565b610d95611050565b610d9d611066565b90606435906001600160e81b03198216820361017957610dcb610dd992604051948593602085019788611302565b03601f1981018352826110ed565b5190205f526002602052602060405f2054604051908152f35b3461017957608036600319011261017957600435602435610e1e60018060a01b0360075416331461129b565b815f52600160205260405f20825f525f60205260405f2090610e4081546112e7565b81554260028201556005810180546001600160801b031680610edd575090606092916001600160801b03807fa9ad825c466c695042e8c123d5916c2dbfbf8e45516e3ca4d57e774f54d53a2f9616166001600160801b03198254161790555b60056004830192610eb360443585546112f5565b8094550190610ec560643583546112f5565b809255549160405192835260208301526040820152a2005b92919060098402938404600903610f3d576001600160801b0380600a610f267fa9ad825c466c695042e8c123d5916c2dbfbf8e45516e3ca4d57e774f54d53a2f986060986112f5565b0416166001600160801b0319825416179055610e9f565b634e487b7160e01b5f52601160045260245ffd5b346101795760203660031901126101795760043560018060a01b036007541633148015611022575b610f829061124f565b805f525f60205260ff600660405f20015416610fdd57805f525f602052600660405f2001600160ff198254161790557fb05047591e05f3336f31e01dc28512fe8438fe3b8e0a9aa189c8e4ee1cedd0fe6020604051428152a2005b60405162461bcd60e51b815260206004820152601c60248201527f506f6f6c52656769737472793a20416c726561647920616374697665000000006044820152606490fd5b50335f9081526008602052604090205460ff16610f79565b600435906001600160a01b038216820361017957565b602435906001600160a01b038216820361017957565b604435906001600160a01b038216820361017957565b90600182811c921680156110aa575b602083101461109657565b634e487b7160e01b5f52602260045260245ffd5b91607f169161108b565b610140810190811067ffffffffffffffff821117610a5c57604052565b60c0810190811067ffffffffffffffff821117610a5c57604052565b90601f8019910116810190811067ffffffffffffffff821117610a5c57604052565b9060405191825f8254926111228461107c565b808452936001811690811561118d5750600114611149575b50611147925003836110ed565b565b90505f9291925260205f20905f915b818310611171575050906020611147928201015f61113a565b6020919350806001915483858901015201910190918492611158565b90506020925061114794915060ff191682840152151560051b8201015f61113a565b805180835260209291819084018484015e5f828201840152601f01601f1916010190565b9181601f840112156101795782359167ffffffffffffffff8311610179576020838186019501011161017957565b60206040818301928281528451809452019201905f5b8181106112245750505090565b8251845260209384019390920191600101611217565b8054821015610165575f5260205f2001905f90565b1561125657565b60405162461bcd60e51b815260206004820152601c60248201527f506f6f6c52656769737472793a204e6f7420617574686f72697a6564000000006044820152606490fd5b156112a257565b60405162461bcd60e51b815260206004820152601d60248201527f506f6f6c52656769737472793a204e6f7420506f6f6c4d616e616765720000006044820152606490fd5b5f198114610f3d5760010190565b91908201809211610f3d57565b606091821b6bffffffffffffffffffffffff19908116825292821b8316601482015292901b1660288201526001600160e81b0319909116603c820152603f0190565b601f821161135157505050565b5f5260205f20906020601f840160051c83019310611389575b601f0160051c01905b81811061137e575050565b5f8155600101611373565b909150819061136a565b90815491600160401b831015610a5c57826113b69160016111479501815561123a565b90919082549060031b91821b915f19901b1916179055565b91825f525f602052600360405f20015461181957604051916113ef836110b4565b60018060a01b03811694858452602084019260018060a01b0381169788855286604087019660018060a01b038516968789526115216060830162ffffff60e81b86169a8b82526080850142815260a08601905f825260c08701925f845260e0880194600186526040519761146460208a6110ed565b5f89526101008a019889526040519a61147e60208d6110ed565b5f808d526101208c019c8d5290815260208190526040902099518a546001600160a01b039182166001600160a01b0319918216178c55915160018c0180549183169190931617909155915160028a018054925162ffffff60a01b60489190911c16919093166001600160b81b0319909216919091171790555160038701555160048601555160058501555160068401805460ff191691151560ff16919091179055565b518051600783019167ffffffffffffffff8211610a5c5761154c82611546855461107c565b85611344565b602090601f83116001146117b25791806115809260089695945f9261173b575b50508160011b915f199060031b1c19161790565b90555b01905180519067ffffffffffffffff8211610a5c576115a682611546855461107c565b602090601f83116001146117465782611670969593610dcb95936115de935f9261173b5750508160011b915f199060031b1c19161790565b90555b6040516115ed816110d1565b5f81526001600160801b036005818c602085015f81526040860142815260608701905f825260808801925f19845260a08901945f86525f52600160205260405f20985189555160018901555160028801555160038701555160048601555116920191166001600160801b0319825416179055604051948593602085019788611302565b5190205f5260026020528260405f2055835f5260036020526116958360405f20611393565b838503611721575b805f5260046020526116b28360405f20611393565b60065490600160401b821015610a5c577f69b97470ff43d2d8913d41c9fe539897945b5ae1943643ad4b8302ea38c1d842926116fc856113b685600160609701600655600661123a565b6117076005546112e7565b6005556040519182526020820152426040820152a4600190565b845f5260036020526117368360405f20611393565b61169d565b015190505f8061156c565b90601f19831691845f52815f20925f5b81811061179a5750926001928592611670999896610dcb989610611782575b505050811b0190556115e1565b01515f1960f88460031b161c191690555f8080611775565b92936020600181928786015181550195019301611756565b90601f19831691845f52815f20925f5b8181106118015750916001939185600898979694106117e9575b505050811b019055611583565b01515f1960f88460031b161c191690555f80806117dc565b929360206001819287860151815501950193016117c2565b50505050505f90565b908060209392818452848401375f828201840152601f01601f191601019056fea26469706673582212205cbebe3560ffc1eb9c224867ae1922e4c5951e8ae7377a4e92942dac8759d1d664736f6c634300081e0033",
  "linkReferences": {},
  "deployedLinkReferences": {}
}