{
  "_format": "hh-sol-artifact-1",
  "contractName": "Quoter0000",
  "sourceName": "contracts/Peripheral/quoters/dummy/Quoter0000.sol",
  "abi": [
    {
      "inputs": [
        {
          "components": [
            {
              "internalType": "address",
              "name": "asset0",
              "type": "address"
            },
            {
              "internalType": "address",
              "name": "asset1",
              "type": "address"
            },
            {
              "internalType": "address",
              "name": "quoter",
              "type": "address"
            },
            {
              "internalType": "uint256",
              "name": "amount",
              "type": "uint256"
            },
            {
              "internalType": "uint128",
              "name": "asset0Balance",
              "type": "uint128"
            },
            {
              "internalType": "uint128",
              "name": "asset1Balance",
              "type": "uint128"
            },
            {
              "internalType": "uint16",
              "name": "bucketID",
              "type": "uint16"
            },
            {
              "internalType": "bool",
              "name": "zeroForOne",
              "type": "bool"
            }
          ],
          "internalType": "struct QuoteParams",
          "name": "params",
          "type": "tuple"
        },
        {
          "internalType": "bytes",
          "name": "",
          "type": "bytes"
        }
      ],
      "name": "quote",
      "outputs": [
        {
          "internalType": "uint256",
          "name": "",
          "type": "uint256"
        }
      ],
      "stateMutability": "pure",
      "type": "function"
    },
    {
      "inputs": [
        {
          "components": [
            {
              "internalType": "address",
              "name": "asset0",
              "type": "address"
            },
            {
              "internalType": "address",
              "name": "asset1",
              "type": "address"
            },
            {
              "internalType": "address",
              "name": "quoter",
              "type": "address"
            },
            {
              "internalType": "uint256[]",
              "name": "amount",
              "type": "uint256[]"
            },
            {
              "internalType": "uint128[]",
              "name": "asset0Balances",
              "type": "uint128[]"
            },
            {
              "internalType": "uint128[]",
              "name": "asset1Balances",
              "type": "uint128[]"
            },
            {
              "internalType": "uint16[]",
              "name": "bucketID",
              "type": "uint16[]"
            },
            {
              "internalType": "bool",
              "name": "zeroForOne",
              "type": "bool"
            }
          ],
          "internalType": "struct QuoteParamsBatch",
          "name": "params",
          "type": "tuple"
        },
        {
          "internalType": "bytes",
          "name": "",
          "type": "bytes"
        }
      ],
      "name": "quoteBatch",
      "outputs": [
        {
          "internalType": "uint256[]",
          "name": "quotes",
          "type": "uint256[]"
        }
      ],
      "stateMutability": "pure",
      "type": "function"
    }
  ],
  "bytecode": "0x608080604052346015576106f5908161001a8239f35b5f80fdfe60806040526004361015610011575f80fd5b5f3560e01c80635e3344d0146103a25763db90d1001461002f575f80fd5b346103735760403660031901126103735760043567ffffffffffffffff81116103735761010060031982360301126103735761006961049b565b610075826004016104f6565b8152610083602483016104f6565b6020820152610094604483016104f6565b6040820152606482013567ffffffffffffffff811161037357820136602382011215610373576004810135906100d16100cc8361055c565b6104d0565b91602060048185848152019260051b840101019136831161037357602401905b8282106103925750505060608201908152608483013567ffffffffffffffff8111610373576101269060043691860101610574565b6080830190815260a484013567ffffffffffffffff8111610373576101519060043691870101610574565b9360a0840194855260c481013567ffffffffffffffff81116103735781013660238201121561037357600481013561018b6100cc8261055c565b91602060048185858152019360051b830101019036821161037357602401915b8183106103775750505060c085015260e401359283151584036103735760e00192835260243567ffffffffffffffff8111610373576101ee90369060040161050a565b508151519361020b6102026100cc8761055c565b9580875261055c565b6020860190601f19013682375f5b8451805182101561032f5786518290156102e55761028c915061024061025c918851610697565b516001600160801b03610254858851610697565b5116906105d8565b6102866001600160801b03610272858951610697565b511661027f858a51610697565b51906105eb565b906105f8565b6102968289610697565b525b6102a28188610697565b51906103e58202918083046103e514901517156102d1576103e8600192046102ca828a610697565b5201610219565b634e487b7160e01b5f52601160045260245ffd5b6102f56103099161031f93610697565b516001600160801b03610254858951610697565b6102866001600160801b03610272858851610697565b6103298289610697565b52610298565b8288604051918291602083019060208452518091526040830191905f5b81811061035a575050500390f35b825184528594506020938401939092019160010161034c565b5f80fd5b823561ffff81168103610373578152602092830192016101ab565b81358152602091820191016100f1565b3461037357366003190161012081126103735761010013610373576103c561049b565b6004356001600160a01b03811681036103735781526024356001600160a01b03811681036103735760208201526044356001600160a01b038116810361037357604082015260643560608201526084356001600160801b038116810361037357608082015260a4356001600160801b03811681036103735760a082015260c43561ffff811681036103735760c082015260e43580151581036103735760e08201526101043567ffffffffffffffff81116103735760209161048d61049392369060040161050a565b50610616565b604051908152f35b60405190610100820182811067ffffffffffffffff8211176104bc57604052565b634e487b7160e01b5f52604160045260245ffd5b6040519190601f01601f1916820167ffffffffffffffff8111838210176104bc57604052565b35906001600160a01b038216820361037357565b81601f820112156103735780359067ffffffffffffffff82116104bc5761053a601f8301601f19166020016104d0565b928284526020838301011161037357815f926020809301838601378301015290565b67ffffffffffffffff81116104bc5760051b60200190565b9080601f830112156103735781359061058f6100cc8361055c565b9260208085858152019360051b82010191821161037357602001915b8183106105b85750505090565b82356001600160801b0381168103610373578152602092830192016105ab565b818102929181159184041417156102d157565b919082018092116102d157565b8115610602570490565b634e487b7160e01b5f52601260045260245ffd5b60e0810151156106705780610286606061065393016001600160801b03608061064783518360a088015116906105d8565b940151169051906105eb565b6103e58102908082046103e514901517156102d1576103e8900490565b80610286606061065393016001600160801b0360a0610647835183608088015116906105d8565b80518210156106ab5760209160051b010190565b634e487b7160e01b5f52603260045260245ffdfea26469706673582212205de836984ec320fb9f074cdf136585943680fafb36d97542855b881896d8543264736f6c634300081e0033",
  "linkReferences": {},
  "deployedLinkReferences": {}
}