{
  "_format": "hh-sol-artifact-1",
  "contractName": "ERC6909Extended",
  "sourceName": "contracts/ERC6909Extended.sol",
  "abi": [
    {
      "anonymous": false,
      "inputs": [
        {
          "indexed": true,
          "internalType": "address",
          "name": "owner",
          "type": "address"
        },
        {
          "indexed": true,
          "internalType": "address",
          "name": "operator",
          "type": "address"
        },
        {
          "indexed": false,
          "internalType": "bool",
          "name": "approved",
          "type": "bool"
        }
      ],
      "name": "ApprovalForAll",
      "type": "event"
    },
    {
      "anonymous": false,
      "inputs": [
        {
          "indexed": true,
          "internalType": "address",
          "name": "from",
          "type": "address"
        },
        {
          "indexed": true,
          "internalType": "address",
          "name": "to",
          "type": "address"
        },
        {
          "indexed": true,
          "internalType": "uint256",
          "name": "id",
          "type": "uint256"
        },
        {
          "indexed": false,
          "internalType": "uint256",
          "name": "amount",
          "type": "uint256"
        }
      ],
      "name": "Transfer",
      "type": "event"
    },
    {
      "inputs": [
        {
          "internalType": "uint256",
          "name": "",
          "type": "uint256"
        },
        {
          "internalType": "address",
          "name": "",
          "type": "address"
        }
      ],
      "name": "balanceOf",
      "outputs": [
        {
          "internalType": "uint256",
          "name": "",
          "type": "uint256"
        }
      ],
      "stateMutability": "view",
      "type": "function"
    },
    {
      "inputs": [
        {
          "internalType": "uint256",
          "name": "poolId",
          "type": "uint256"
        }
      ],
      "name": "getInventory",
      "outputs": [
        {
          "internalType": "uint128",
          "name": "asset0",
          "type": "uint128"
        },
        {
          "internalType": "uint128",
          "name": "asset1",
          "type": "uint128"
        }
      ],
      "stateMutability": "view",
      "type": "function"
    },
    {
      "inputs": [
        {
          "internalType": "address",
          "name": "",
          "type": "address"
        },
        {
          "internalType": "address",
          "name": "",
          "type": "address"
        }
      ],
      "name": "isApprovedForAll",
      "outputs": [
        {
          "internalType": "bool",
          "name": "",
          "type": "bool"
        }
      ],
      "stateMutability": "view",
      "type": "function"
    },
    {
      "inputs": [
        {
          "internalType": "uint256",
          "name": "",
          "type": "uint256"
        }
      ],
      "name": "poolInventories",
      "outputs": [
        {
          "internalType": "uint256",
          "name": "",
          "type": "uint256"
        }
      ],
      "stateMutability": "view",
      "type": "function"
    },
    {
      "inputs": [
        {
          "internalType": "address",
          "name": "operator",
          "type": "address"
        },
        {
          "internalType": "bool",
          "name": "approved",
          "type": "bool"
        }
      ],
      "name": "setApprovalForAll",
      "outputs": [],
      "stateMutability": "nonpayable",
      "type": "function"
    },
    {
      "inputs": [
        {
          "internalType": "address",
          "name": "to",
          "type": "address"
        },
        {
          "internalType": "uint256",
          "name": "id",
          "type": "uint256"
        },
        {
          "internalType": "uint256",
          "name": "amount",
          "type": "uint256"
        }
      ],
      "name": "transfer",
      "outputs": [
        {
          "internalType": "bool",
          "name": "",
          "type": "bool"
        }
      ],
      "stateMutability": "nonpayable",
      "type": "function"
    },
    {
      "inputs": [
        {
          "internalType": "address",
          "name": "from",
          "type": "address"
        },
        {
          "internalType": "address",
          "name": "to",
          "type": "address"
        },
        {
          "internalType": "uint256",
          "name": "id",
          "type": "uint256"
        },
        {
          "internalType": "uint256",
          "name": "amount",
          "type": "uint256"
        }
      ],
      "name": "transferFrom",
      "outputs": [
        {
          "internalType": "bool",
          "name": "",
          "type": "bool"
        }
      ],
      "stateMutability": "nonpayable",
      "type": "function"
    }
  ],
  "bytecode": "0x6080604052348015600e575f5ffd5b506106558061001c5f395ff3fe608060405234801561000f575f5ffd5b506004361061007a575f3560e01c80636028898d116100585780636028898d14610129578063a22cb46514610148578063e985e9c51461015d578063fe99049a1461018a575f5ffd5b8063095bcdb61461007e5780633656eec2146100a65780635b298d32146100db575b5f5ffd5b61009161008c3660046104ce565b61019d565b60405190151581526020015b60405180910390f35b6100cd6100b43660046104fe565b5f60208181529281526040808220909352908152205481565b60405190815260200161009d565b6101006100e9366004610528565b5f9081526002602052604090205490608082901c90565b604080516fffffffffffffffffffffffffffffffff93841681529290911660208301520161009d565b6100cd610137366004610528565b60026020525f908152604090205481565b61015b61015636600461053f565b6102aa565b005b61009161016b366004610578565b600160209081525f928352604080842090915290825290205460ff1681565b6100916101983660046105a0565b610315565b5f828152602081815260408083203384529091528120548211156101ff5760405162461bcd60e51b8152602060048201526014602482015273496e73756666696369656e742062616c616e636560601b60448201526064015b60405180910390fd5b5f83815260208181526040808320338452909152812080548492906102259084906105f3565b90915550505f838152602081815260408083206001600160a01b03881684529091528120805484929061025990849061060c565b909155505060405182815283906001600160a01b0386169033907f9ed053bb818ff08b8353cd46f78db1f0799f31c9e4458fdb425c10eccd2efc449060200160405180910390a45060019392505050565b335f8181526001602090815260408083206001600160a01b03871680855290835292819020805460ff191686151590811790915590519081529192917f17307eab39ab6107e8899845ad3d59bd9653f200f220920489ca2b5937696c31910160405180910390a35050565b5f6001600160a01b03851633148061034f57506001600160a01b0385165f90815260016020908152604080832033845290915290205460ff165b61038a5760405162461bcd60e51b815260206004820152600c60248201526b139bdd08185c1c1c9bdd995960a21b60448201526064016101f6565b5f838152602081815260408083206001600160a01b03891684529091529020548211156103f05760405162461bcd60e51b8152602060048201526014602482015273496e73756666696369656e742062616c616e636560601b60448201526064016101f6565b5f838152602081815260408083206001600160a01b03891684529091528120805484929061041f9084906105f3565b90915550505f838152602081815260408083206001600160a01b03881684529091528120805484929061045390849061060c565b9250508190555082846001600160a01b0316866001600160a01b03167f9ed053bb818ff08b8353cd46f78db1f0799f31c9e4458fdb425c10eccd2efc44856040516104a091815260200190565b60405180910390a4506001949350505050565b80356001600160a01b03811681146104c9575f5ffd5b919050565b5f5f5f606084860312156104e0575f5ffd5b6104e9846104b3565b95602085013595506040909401359392505050565b5f5f6040838503121561050f575f5ffd5b8235915061051f602084016104b3565b90509250929050565b5f60208284031215610538575f5ffd5b5035919050565b5f5f60408385031215610550575f5ffd5b610559836104b3565b91506020830135801515811461056d575f5ffd5b809150509250929050565b5f5f60408385031215610589575f5ffd5b610592836104b3565b915061051f602084016104b3565b5f5f5f5f608085870312156105b3575f5ffd5b6105bc856104b3565b93506105ca602086016104b3565b93969395505050506040820135916060013590565b634e487b7160e01b5f52601160045260245ffd5b81810381811115610606576106066105df565b92915050565b80820180821115610606576106066105df56fea2646970667358221220e0a3090dbbf841cf5255cccf69444127d7c95cf21170853b81a75e738c0f062964736f6c634300081e0033",
  "linkReferences": {},
  "deployedLinkReferences": {}
}