{
  "_format": "hh-sol-artifact-1",
  "contractName": "CircuitBreaker",
  "sourceName": "contracts/Core/security/CircuitBreaker.sol",
  "abi": [
    {
      "inputs": [
        {
          "internalType": "address",
          "name": "_poolManager",
          "type": "address"
        }
      ],
      "stateMutability": "nonpayable",
      "type": "constructor"
    },
    {
      "anonymous": false,
      "inputs": [
        {
          "indexed": true,
          "internalType": "uint256",
          "name": "poolId",
          "type": "uint256"
        }
      ],
      "name": "CircuitBreakerReset",
      "type": "event"
    },
    {
      "anonymous": false,
      "inputs": [
        {
          "indexed": true,
          "internalType": "uint256",
          "name": "poolId",
          "type": "uint256"
        },
        {
          "indexed": false,
          "internalType": "string",
          "name": "reason",
          "type": "string"
        },
        {
          "indexed": false,
          "internalType": "uint256",
          "name": "pausedUntil",
          "type": "uint256"
        }
      ],
      "name": "CircuitBreakerTriggered",
      "type": "event"
    },
    {
      "anonymous": false,
      "inputs": [
        {
          "indexed": false,
          "internalType": "uint256",
          "name": "pausedUntil",
          "type": "uint256"
        }
      ],
      "name": "GlobalPauseActivated",
      "type": "event"
    },
    {
      "anonymous": false,
      "inputs": [],
      "name": "GlobalPauseDeactivated",
      "type": "event"
    },
    {
      "anonymous": false,
      "inputs": [
        {
          "indexed": true,
          "internalType": "uint256",
          "name": "poolId",
          "type": "uint256"
        },
        {
          "indexed": false,
          "internalType": "uint256",
          "name": "maxSwapSize",
          "type": "uint256"
        },
        {
          "indexed": false,
          "internalType": "uint256",
          "name": "dailyVolumeLimit",
          "type": "uint256"
        },
        {
          "indexed": false,
          "internalType": "uint256",
          "name": "cooldownPeriod",
          "type": "uint256"
        }
      ],
      "name": "LimitsUpdated",
      "type": "event"
    },
    {
      "anonymous": false,
      "inputs": [
        {
          "indexed": true,
          "internalType": "uint256",
          "name": "poolId",
          "type": "uint256"
        },
        {
          "indexed": false,
          "internalType": "string",
          "name": "activityType",
          "type": "string"
        },
        {
          "indexed": false,
          "internalType": "uint256",
          "name": "severity",
          "type": "uint256"
        }
      ],
      "name": "SuspiciousActivityDetected",
      "type": "event"
    },
    {
      "inputs": [],
      "name": "DEFAULT_COOLDOWN",
      "outputs": [
        {
          "internalType": "uint256",
          "name": "",
          "type": "uint256"
        }
      ],
      "stateMutability": "view",
      "type": "function"
    },
    {
      "inputs": [],
      "name": "MAX_CONSECUTIVE_FAILURES",
      "outputs": [
        {
          "internalType": "uint256",
          "name": "",
          "type": "uint256"
        }
      ],
      "stateMutability": "view",
      "type": "function"
    },
    {
      "inputs": [],
      "name": "SUSPICIOUS_ACTIVITY_THRESHOLD",
      "outputs": [
        {
          "internalType": "uint256",
          "name": "",
          "type": "uint256"
        }
      ],
      "stateMutability": "view",
      "type": "function"
    },
    {
      "inputs": [],
      "name": "VOLUME_RESET_PERIOD",
      "outputs": [
        {
          "internalType": "uint256",
          "name": "",
          "type": "uint256"
        }
      ],
      "stateMutability": "view",
      "type": "function"
    },
    {
      "inputs": [
        {
          "internalType": "uint256",
          "name": "duration",
          "type": "uint256"
        }
      ],
      "name": "activateGlobalPause",
      "outputs": [],
      "stateMutability": "nonpayable",
      "type": "function"
    },
    {
      "inputs": [
        {
          "internalType": "uint256",
          "name": "poolId",
          "type": "uint256"
        },
        {
          "internalType": "uint256",
          "name": "operationSize",
          "type": "uint256"
        },
        {
          "internalType": "bool",
          "name": "isLargeOperation",
          "type": "bool"
        }
      ],
      "name": "checkOperation",
      "outputs": [
        {
          "internalType": "bool",
          "name": "allowed",
          "type": "bool"
        },
        {
          "internalType": "string",
          "name": "reason",
          "type": "string"
        }
      ],
      "stateMutability": "view",
      "type": "function"
    },
    {
      "inputs": [],
      "name": "deactivateGlobalPause",
      "outputs": [],
      "stateMutability": "nonpayable",
      "type": "function"
    },
    {
      "inputs": [
        {
          "internalType": "uint256",
          "name": "poolId",
          "type": "uint256"
        }
      ],
      "name": "getRemainingCooldown",
      "outputs": [
        {
          "internalType": "uint256",
          "name": "",
          "type": "uint256"
        }
      ],
      "stateMutability": "view",
      "type": "function"
    },
    {
      "inputs": [],
      "name": "globalPause",
      "outputs": [
        {
          "internalType": "bool",
          "name": "",
          "type": "bool"
        }
      ],
      "stateMutability": "view",
      "type": "function"
    },
    {
      "inputs": [],
      "name": "globalPauseUntil",
      "outputs": [
        {
          "internalType": "uint256",
          "name": "",
          "type": "uint256"
        }
      ],
      "stateMutability": "view",
      "type": "function"
    },
    {
      "inputs": [
        {
          "internalType": "address",
          "name": "",
          "type": "address"
        }
      ],
      "name": "guardians",
      "outputs": [
        {
          "internalType": "bool",
          "name": "",
          "type": "bool"
        }
      ],
      "stateMutability": "view",
      "type": "function"
    },
    {
      "inputs": [
        {
          "internalType": "uint256",
          "name": "poolId",
          "type": "uint256"
        }
      ],
      "name": "isPoolPaused",
      "outputs": [
        {
          "internalType": "bool",
          "name": "",
          "type": "bool"
        }
      ],
      "stateMutability": "view",
      "type": "function"
    },
    {
      "inputs": [
        {
          "internalType": "uint256",
          "name": "poolId",
          "type": "uint256"
        },
        {
          "internalType": "uint256",
          "name": "duration",
          "type": "uint256"
        }
      ],
      "name": "pausePool",
      "outputs": [],
      "stateMutability": "nonpayable",
      "type": "function"
    },
    {
      "inputs": [
        {
          "internalType": "uint256",
          "name": "",
          "type": "uint256"
        }
      ],
      "name": "poolActivity",
      "outputs": [
        {
          "internalType": "uint256",
          "name": "lastLargeOperation",
          "type": "uint256"
        },
        {
          "internalType": "uint256",
          "name": "dailyVolume",
          "type": "uint256"
        },
        {
          "internalType": "uint256",
          "name": "lastVolumeReset",
          "type": "uint256"
        },
        {
          "internalType": "uint256",
          "name": "consecutiveFailures",
          "type": "uint256"
        },
        {
          "internalType": "uint256",
          "name": "suspiciousActivity",
          "type": "uint256"
        }
      ],
      "stateMutability": "view",
      "type": "function"
    },
    {
      "inputs": [
        {
          "internalType": "uint256",
          "name": "",
          "type": "uint256"
        }
      ],
      "name": "poolLimits",
      "outputs": [
        {
          "internalType": "uint256",
          "name": "maxSwapSize",
          "type": "uint256"
        },
        {
          "internalType": "uint256",
          "name": "dailyVolumeLimit",
          "type": "uint256"
        },
        {
          "internalType": "uint256",
          "name": "cooldownPeriod",
          "type": "uint256"
        },
        {
          "internalType": "uint256",
          "name": "maxPriceImpact",
          "type": "uint256"
        },
        {
          "internalType": "bool",
          "name": "isPaused",
          "type": "bool"
        },
        {
          "internalType": "uint256",
          "name": "pausedUntil",
          "type": "uint256"
        }
      ],
      "stateMutability": "view",
      "type": "function"
    },
    {
      "inputs": [],
      "name": "poolManager",
      "outputs": [
        {
          "internalType": "address",
          "name": "",
          "type": "address"
        }
      ],
      "stateMutability": "view",
      "type": "function"
    },
    {
      "inputs": [
        {
          "internalType": "uint256",
          "name": "poolId",
          "type": "uint256"
        }
      ],
      "name": "recordFailure",
      "outputs": [],
      "stateMutability": "nonpayable",
      "type": "function"
    },
    {
      "inputs": [
        {
          "internalType": "uint256",
          "name": "poolId",
          "type": "uint256"
        },
        {
          "internalType": "uint256",
          "name": "operationSize",
          "type": "uint256"
        },
        {
          "internalType": "bool",
          "name": "isLargeOperation",
          "type": "bool"
        }
      ],
      "name": "recordSuccess",
      "outputs": [],
      "stateMutability": "nonpayable",
      "type": "function"
    },
    {
      "inputs": [
        {
          "internalType": "uint256",
          "name": "poolId",
          "type": "uint256"
        },
        {
          "internalType": "string",
          "name": "activityType",
          "type": "string"
        },
        {
          "internalType": "uint256",
          "name": "severity",
          "type": "uint256"
        }
      ],
      "name": "reportSuspiciousActivity",
      "outputs": [],
      "stateMutability": "nonpayable",
      "type": "function"
    },
    {
      "inputs": [
        {
          "internalType": "uint256",
          "name": "poolId",
          "type": "uint256"
        }
      ],
      "name": "resumePool",
      "outputs": [],
      "stateMutability": "nonpayable",
      "type": "function"
    },
    {
      "inputs": [
        {
          "internalType": "address",
          "name": "guardian",
          "type": "address"
        },
        {
          "internalType": "bool",
          "name": "status",
          "type": "bool"
        }
      ],
      "name": "setGuardian",
      "outputs": [],
      "stateMutability": "nonpayable",
      "type": "function"
    },
    {
      "inputs": [
        {
          "internalType": "uint256",
          "name": "poolId",
          "type": "uint256"
        },
        {
          "internalType": "uint256",
          "name": "maxSwapSize",
          "type": "uint256"
        },
        {
          "internalType": "uint256",
          "name": "dailyVolumeLimit",
          "type": "uint256"
        },
        {
          "internalType": "uint256",
          "name": "cooldownPeriod",
          "type": "uint256"
        },
        {
          "internalType": "uint256",
          "name": "maxPriceImpact",
          "type": "uint256"
        }
      ],
      "name": "setPoolLimits",
      "outputs": [],
      "stateMutability": "nonpayable",
      "type": "function"
    }
  ],
  "bytecode": "0x608034608657601f61125338819003918201601f19168301916001600160401b03831184841017608a57808492602094604052833981010312608657516001600160a01b03811690819003608657600480546001600160a01b031916821790555f9081526005602052604090819020805460ff19166001179055516111b4908161009f8239f35b5f80fd5b634e487b7160e01b5f52604160045260245ffdfe6080806040526004361015610012575f80fd5b5f3560e01c9081630633b14a14610b4e57508063119108e914610a5357806328084b33146109b35780632b8a1c5a1461094f57806334d73c41146109325780633a8d158a1461088f5780633c1ecc91146107a45780633c7a075c14610789578063565287501461076c5780635e0368351461054c5780636375184a146105315780636795346b14610493578063827059ff146104785780638e3dcabf1461045257806391d97362146103da57806399d6a7a0146103b25780639afe92f31461034d578063a5e6e8c5146102f7578063c2205a141461021b578063dc4c90d3146101f3578063f12d54d8146101d15763f8732a701461010e575f80fd5b346101cd5760203660031901126101cd57600435335f52600560205260ff60405f20541680156101b9575b61014290610caa565b6002805460ff191660011790558061018757507fa8896645e3eff73e980c042766e1d21e78378b0df9fb4bc68cb7a122ca6823f060205f5b80600355604051908152a1005b60206101b47fa8896645e3eff73e980c042766e1d21e78378b0df9fb4bc68cb7a122ca6823f09242610cf6565b61017a565b506004546001600160a01b03163314610139565b5f80fd5b346101cd575f3660031901126101cd57602060ff600254166040519015158152f35b346101cd575f3660031901126101cd576004546040516001600160a01b039091168152602090f35b346101cd5760a03660031901126101cd576004357fe3eb5d4eccdae2d96efa105f65c8db865f9fc72984f2b879a27448fed50d181560606024356044356064359061027160018060a01b03600454163314610be4565b610279610c30565b8381526005602082018381526102e060408401868152888501608435815260808601915f835260a08701945f86528d5f525f60205260405f2097518855516001880155516002870155516003860155511515600485019060ff801983541691151516179055565b5191015560405192835260208301526040820152a2005b346101cd5760203660031901126101cd576004355f52600160205260a060405f20805490600181015490600281015460046003830154920154926040519485526020850152604084015260608301526080820152f35b346101cd5760203660031901126101cd576004355f525f60205260c060405f208054906001810154906002810154600382015490600560ff600485015416930154936040519586526020860152604085015260608401521515608083015260a0820152f35b346101cd5760203660031901126101cd5760206103d060043561107c565b6040519015158152f35b346101cd575f3660031901126101cd57335f52600560205260ff60405f205416801561043e575b61040a90610caa565b60ff19600254166002555f6003557fb8da01427a864e7d1daf1f3047f673cee057dc56bb678ae20f12233b16f845ea5f80a1005b506004546001600160a01b03163314610401565b346101cd5760203660031901126101cd576020610470600435610fba565b604051908152f35b346101cd575f3660031901126101cd576020604051603c8152f35b346101cd576104a136610b9d565b9060ff60025416158015610526575b156104e1576104be92610d03565b906104dd60405192839215158352604060208401526040830190610bc0565b0390f35b60405162461bcd60e51b815260206004820152601f60248201527f43697263756974427265616b65723a20476c6f62616c6c7920706175736564006044820152606490fd5b5060035442116104b0565b346101cd575f3660031901126101cd57602060405160038152f35b346101cd5760603660031901126101cd5760043560243567ffffffffffffffff81116101cd57366023820112156101cd5780600401359067ffffffffffffffff82116101cd5736602483830101116101cd5760443590335f52600560205260ff60405f2054168015610758575b6105c290610caa565b8115158061074d575b15610715577f74cad5199163f0f418ae8f7ff1cd41a55f99adc62116f73090fa431b589a496b602460608693600596855f526001602052600460405f200196610615818954610cf6565b809855816040519586946040865282604087015201858501375f8383018501526020830152601f01601f19168101030190a2101561064f57005b6106596040610c84565b601d81527f537573706963696f7573206163746976697479207468726573686f6c640000006020820152815f525f602052600460405f2001600160ff198254161790556154604201804211610701575f838152602081905260409081902060050182905580518181527f852d074b1070f084be2b0e237453ef02a9ea5bd34f1223e5826e723ac10d632e939092839290916106f691840190610bc0565b9060208301520390a2005b634e487b7160e01b5f52601160045260245ffd5b60405162461bcd60e51b815260206004820152601060248201526f496e76616c696420736576657269747960801b6044820152606490fd5b50600a8211156105cb565b506004546001600160a01b031633146105b9565b346101cd575f3660031901126101cd576020604051620151808152f35b346101cd575f3660031901126101cd57602060405160058152f35b346101cd5760403660031901126101cd57600435602435335f52600560205260ff60405f205416801561087b575b6107db90610caa565b815f525f602052600460405f2001600160ff1982541617905580155f1461086c57505f5b815f525f602052600560405f200155805f525f6020527f852d074b1070f084be2b0e237453ef02a9ea5bd34f1223e5826e723ac10d632e6080600560405f2001546040519060408252600c60408301526b4d616e75616c20706175736560a01b60608301526020820152a2005b6108769042610cf6565b6107ff565b506004546001600160a01b031633146107d2565b346101cd5760203660031901126101cd57600435335f52600560205260ff60405f205416801561091e575b6108c390610caa565b5f818152602081815260408083206004818101805460ff1916905560059091018490556001909252822060038101839055018190557fcdce3dd4437cfe68002ed06c2f62be3eae06c268cb56d71b3c98825f4f9d7d349080a2005b506004546001600160a01b031633146108ba565b346101cd575f3660031901126101cd576020600354604051908152f35b346101cd5760403660031901126101cd57610968610b87565b60243580151581036101cd576109b19161098d60018060a01b03600454163314610be4565b60018060a01b03165f52600560205260405f209060ff801983541691151516179055565b005b346101cd576109c136610b9d565b6109d960018060a09594951b03600454163314610be4565b5f918252600160205260408220600381019290925560028201805462015180810194908490861061070157600495421115610a3b57600101554290555b610a33575b01805480158015610a2857005b610701575f19019055005b428155610a1b565b610a4c919250600101918254610cf6565b9055610a16565b346101cd5760203660031901126101cd57600435610a7c60018060a01b03600454163314610be4565b805f526001602052600360405f20018054905f198214610701576001600392018091551015610aa757005b610ab16040610c84565b601881527f4d617820636f6e7365637574697665206661696c7572657300000000000000006020820152815f525f602052600460405f2001600160ff19825416179055610e104201804211610701575f838152602081905260409081902060050182905580518181527f852d074b1070f084be2b0e237453ef02a9ea5bd34f1223e5826e723ac10d632e939092839290916106f691840190610bc0565b346101cd5760203660031901126101cd576020906001600160a01b03610b72610b87565b165f526005825260ff60405f20541615158152f35b600435906001600160a01b03821682036101cd57565b60609060031901126101cd57600435906024359060443580151581036101cd5790565b805180835260209291819084018484015e5f828201840152601f01601f1916010190565b15610beb57565b60405162461bcd60e51b815260206004820152601f60248201527f43697263756974427265616b65723a204e6f7420506f6f6c4d616e61676572006044820152606490fd5b6040519060c0820182811067ffffffffffffffff821117610c5057604052565b634e487b7160e01b5f52604160045260245ffd5b6040519060a0820182811067ffffffffffffffff821117610c5057604052565b6040519190601f01601f1916820167ffffffffffffffff811183821017610c5057604052565b15610cb157565b60405162461bcd60e51b815260206004820152601c60248201527f43697263756974427265616b65723a204e6f7420677561726469616e000000006044820152606490fd5b9190820180921161070157565b91825f525f60205260405f2091610d18610c30565b93835485526001840154926020860193845260028501546040870190815260038601546060880152600560ff6004880154169660808901971515885201549160a08801928352835f52600160205260405f2097610d73610c64565b938954855260018a0154602086015260028a01546040860152600460038b01549a606087019b8c5201549860808601998a5251610f67575b50518015159081610f5d575b50610f245780610f1a575b610ec9575b50508251610e6d575b505050600590511015610e3357600390511015610dfa57600190610df46020610c84565b5f815290565b5f90610e066040610c84565b601d81527f546f6f206d616e7920636f6e7365637574697665206661696c75726573000000602082015290565b505f90610e406040610c84565b601c81527f537573706963696f757320616374697669747920646574656374656400000000602082015290565b90610e7a610e7f9261111e565b610cf6565b905110610e8e575f8080610dd0565b50505f90610e9c6040610c84565b601a81527f45786365656473206461696c7920766f6c756d65206c696d6974000000000000602082015290565b610ed69151905190610cf6565b4210610ee3575f80610dc7565b50505050505f90610ef46040610c84565b6016815275436f6f6c646f776e20706572696f642061637469766560501b602082015290565b5080511515610dc2565b50505050505050505f90610f386040610c84565b601581527445786365656473206d617820737761702073697a6560581b602082015290565b905085115f610db7565b518015908115610fb0575b50610f7d575f610dab565b5050505050505050505f90610f926040610c84565b600e81526d141bdbdb081a5cc81c185d5cd95960921b602082015290565b905042105f610f72565b805f52600160205260405f20906004610fd1610c64565b9280548452600181015460208501526002810154604085015260038101546060850152015460808301525f525f60205260405f20611055611010610c30565b825481526001830154602082015260028301549060a0600560408301958487526003810154606085015260ff6004820154161515608085015201549101528351610cf6565b421015611076576110699151905190610cf6565b4281039081116107015790565b50505f90565b60ff6002541680611100575b6110fa575f525f60205260405f2060a06110a0610c30565b82548152600183015460208201526002830154604082015260038301546060820152600560ff60048501541615159384608084015201549182910152816110e5575090565b8015915081156110f3575090565b9050421090565b50600190565b506003548015908115611114575b50611088565b905042105f61110e565b5f52600160205260405f20611131610c64565b90805482526001810154916020810192835260806004600284015493846040850152600381015460608501520154910152620151808101809111610701574211611179575190565b505f9056fea2646970667358221220ee577cfec2f765118f2b340aacb720ad4f10a707051a1b0e9365d6210b71098864736f6c634300081e0033",
  "linkReferences": {},
  "deployedLinkReferences": {}
}