{
  "_format": "hh-sol-artifact-1",
  "contractName": "InventorySkewTest",
  "sourceName": "contracts/Peripheral/libraries/tests/InventorySkewTest.sol",
  "abi": [
    {
      "inputs": [
        {
          "internalType": "uint32",
          "name": "invKPpb",
          "type": "uint32"
        },
        {
          "internalType": "uint32",
          "name": "term2Ppb",
          "type": "uint32"
        },
        {
          "internalType": "uint32",
          "name": "term3Ppb",
          "type": "uint32"
        },
        {
          "internalType": "int256",
          "name": "skewPpb",
          "type": "int256"
        },
        {
          "internalType": "uint32",
          "name": "gammaStDev2Ppb",
          "type": "uint32"
        }
      ],
      "name": "calculateHalfSpreadWithInventory",
      "outputs": [
        {
          "internalType": "uint32",
          "name": "",
          "type": "uint32"
        }
      ],
      "stateMutability": "pure",
      "type": "function"
    },
    {
      "inputs": [
        {
          "internalType": "uint256",
          "name": "inventory0Raw",
          "type": "uint256"
        },
        {
          "internalType": "uint256",
          "name": "inventory1Raw",
          "type": "uint256"
        },
        {
          "internalType": "uint256",
          "name": "amount",
          "type": "uint256"
        },
        {
          "internalType": "bool",
          "name": "zeroForOne",
          "type": "bool"
        },
        {
          "internalType": "uint8",
          "name": "riskyModeUint",
          "type": "uint8"
        },
        {
          "internalType": "uint256",
          "name": "midPricePpb",
          "type": "uint256"
        }
      ],
      "name": "calculateSkew",
      "outputs": [
        {
          "internalType": "int256",
          "name": "",
          "type": "int256"
        }
      ],
      "stateMutability": "pure",
      "type": "function"
    }
  ],
  "bytecode": "0x60808060405234601557610481908161001a8239f35b5f80fdfe60806040526004361015610011575f80fd5b5f3560e01c80631abf44c91461009c57638acc7b7a1461002f575f80fd5b346100985760c03660031901126100985760643580151581036100985760843560ff81168091036100985760038110156100845760209161007c9160a43591604435602435600435610243565b604051908152f35b634e487b7160e01b5f52602160045260245ffd5b5f80fd5b346100985760a03660031901126100985760043563ffffffff811681036100985760243563ffffffff81168103610098576044359163ffffffff83168303610098576084359063ffffffff82168203610098576020936100ff936064359261019e565b63ffffffff60405191168152f35b90633b9aca00820291808305633b9aca00149015171561012957565b634e487b7160e01b5f52601160045260245ffd5b811561015757600160ff1b81145f19831416610129570590565b634e487b7160e01b5f52601260045260245ffd5b81810392915f13801582851316918412161761012957565b9190915f838201938412911290801582169115161761012957565b93909263ffffffff9091168082029291905f8212600160ff1b8214166101295781840514901517156101295763ffffffff6101ed6101fa9582806509184e72a0006101f597059716911661016b565b911690610183565b610183565b5f811261020a5763ffffffff1690565b505f90565b8115610157570490565b9190820180921161012957565b9190820391821161012957565b600160ff1b8114610129575f0390565b909492919394633b9aca00810290808204633b9aca001490151715610129578361026c9161020f565b91156103605761027c8482610219565b938381029080820485149015171561012957633b9aca009004633b9aca00810290808204633b9aca001490151715610129578580936102c16102d9966102d39461020f565b80821115610359576102d39082610226565b936103c2565b9160038110156100845761034b5761030191905f811261033c57905b5f811261032e5761016b565b633b9aca00811361032557633b9ac9ff19811261031b5790565b50633b9ac9ff1990565b50633b9aca0090565b61033790610233565b61016b565b61034590610233565b906102f5565b6103549161016b565b610301565b505f6102d3565b92633b9aca00819392930290808204633b9aca001490151715610129576102d3856102d9946103a38561039d61039785988861020f565b84610219565b9561020f565b808811156103bb576103b59088610226565b966103c2565b505f6103b5565b91906103ce8184610219565b918215610443576003811015610084578061041e5750508160011b9180830560021490151715610129576104046104099261010d565b61013d565b633b9ac9ff1981019081136001166101295790565b60010361043557506104046104329261010d565b90565b61043292506104049061010d565b505050505f9056fea264697066735822122089b2f3da638750ae7526d9115bebb7910ce22275cb2b652f093f6650a65049dd64736f6c634300081e0033",
  "linkReferences": {},
  "deployedLinkReferences": {}
}