{
  "_format": "hh-sol-artifact-1",
  "contractName": "FlashSessionBatchSwapWrapper",
  "sourceName": "contracts/z_remix_test/FlashSessionBatchSwapWrapper.sol",
  "abi": [
    {
      "inputs": [
        {
          "internalType": "address",
          "name": "_pm",
          "type": "address"
        },
        {
          "components": [
            {
              "internalType": "address",
              "name": "asset0",
              "type": "address"
            },
            {
              "internalType": "address",
              "name": "asset1",
              "type": "address"
            },
            {
              "internalType": "address",
              "name": "quoter",
              "type": "address"
            },
            {
              "internalType": "bytes3[]",
              "name": "markings",
              "type": "bytes3[]"
            },
            {
              "internalType": "uint256[]",
              "name": "amounts",
              "type": "uint256[]"
            },
            {
              "internalType": "bool",
              "name": "zeroForOne",
              "type": "bool"
            }
          ],
          "internalType": "struct Hop[]",
          "name": "hops",
          "type": "tuple[]"
        },
        {
          "internalType": "uint256",
          "name": "_amountIn",
          "type": "uint256"
        },
        {
          "internalType": "uint256",
          "name": "_minOut",
          "type": "uint256"
        }
      ],
      "stateMutability": "nonpayable",
      "type": "constructor"
    },
    {
      "inputs": [],
      "name": "amountIn",
      "outputs": [
        {
          "internalType": "uint256",
          "name": "",
          "type": "uint256"
        }
      ],
      "stateMutability": "view",
      "type": "function"
    },
    {
      "inputs": [
        {
          "internalType": "bytes",
          "name": "",
          "type": "bytes"
        }
      ],
      "name": "flashCallback",
      "outputs": [],
      "stateMutability": "nonpayable",
      "type": "function"
    },
    {
      "inputs": [],
      "name": "minOut",
      "outputs": [
        {
          "internalType": "uint256",
          "name": "",
          "type": "uint256"
        }
      ],
      "stateMutability": "view",
      "type": "function"
    },
    {
      "inputs": [],
      "name": "pm",
      "outputs": [
        {
          "internalType": "contract IPoolManager",
          "name": "",
          "type": "address"
        }
      ],
      "stateMutability": "view",
      "type": "function"
    }
  ],
  "bytecode": "0x60e06040523461059d57610c1880380380610019816105d2565b92833981019060808183031261059d57610032816105f7565b60208201516001600160401b03811161059d5782019183601f8401121561059d578251936100676100628661060b565b6105d2565b93602085878152016020819760051b8301019183831161059d5760208101915b83831061044e57505050506040820151606092909201516001600160a01b039093166080525060a05260c0525190680100000000000000008211610288575f54825f55808310610380575b505f8080525f516020610bf85f395f51905f5292915b82821061012d576040516105bf9081610639823960805181818161014701526104e8015260a05181818160f2015261052e015260c05181818161011801526105660152f35b8051805185546001600160a01b039182166001600160a01b031991821617875560208301516001880180549184169183169190911790556040830151600288018054919093169116179055606081015180519060038701906001600160401b03831161028857680100000000000000008311610288576020908254848455808510610334575b5001905f5260205f20600a8304915f5b8381106102ea5750600a8302808503940361029c575b50505050608081015180519060048701906001600160401b0383116102885768010000000000000000831161028857602090825484845580851061026d575b5001905f5260205f205f5b8381106102595750505050602060019260069260a060058901910151151560ff80198354169116179055019401910190926100e8565b600190602084519401938184015501610223565b61028290845f5285845f209182019101610622565b5f610218565b634e487b7160e01b5f52604160045260245ffd5b5f935f905b8082106102b65750505001555f8080806101d9565b90919460206102e0600192885160e81c908660030262ffffff809160031b9316831b921b19161790565b96019201906102a1565b5f5f5b600a81106103025750838201556001016101c3565b9290602061032b600192845160e81c908760030262ffffff809160031b9316831b921b19161790565b920193016102ed565b61036090845f52835f20600a600981818a01048301936003838b060280610366575b5001040190610622565b5f6101b3565b5f198601908154905f19908b0360031b1c1690555f610356565b8060060290600682040361043a578260060260068104840361043a575f80525f516020610bf85f395f51905f5291820191015b8181106103c057506100d2565b805f600692555f60018201555f60028201556003810180545f82558061041a575b50506004810180545f825580610400575b50505f6005820155016103b3565b610413915f5260205f2090810190610622565b5f806103f2565b610433915f52600a600960205f20920104810190610622565b5f806103e1565b634e487b7160e01b5f52601160045260245ffd5b82516001600160401b03811161059d5782019060c0828703601f19011261059d576040519160c083016001600160401b0381118482101761028857604052610498602082016105f7565b83526104a6604082016105f7565b60208401526104b7606082016105f7565b604084015260808101516001600160401b03811161059d5760209082010187601f8201121561059d5780516104ee6100628261060b565b9160208084848152019260051b820101908a821161059d57602001915b8183106105b157505050606084015260a08101516001600160401b03811161059d5760209082010187601f8201121561059d5780519061054d6100628361060b565b9160208084838152019160051b830101918a831161059d57602001905b8282106105a157505050608084015260c0015190811515820361059d57826020939260a085940152815201920191610087565b5f80fd5b815181526020918201910161056a565b82516001600160e81b03198116810361059d5781526020928301920161050b565b6040519190601f01601f191682016001600160401b0381118382101761028857604052565b51906001600160a01b038216820361059d57565b6001600160401b0381116102885760051b60200190565b81811061062d575050565b5f815560010161062256fe6080806040526004361015610012575f80fd5b5f3560e01c9081635131bf8e14610551575080636bed55a6146105175780638970cdff146104d35763e373923814610048575f80fd5b346101b75760203660031901126101b75760043567ffffffffffffffff81116101b757366023820112156101b757806004013567ffffffffffffffff81116101b757369101602401116101b75760405163274bb1b960e21b815260648101606060048301525f54809152816084810160848360051b830101925f80527f290decd9548b62a8d60345a988386fc84ba6bc95484008f6362f93160ef3e563915f905b8282106101e2577f000000000000000000000000000000000000000000000000000000000000000060248601527f0000000000000000000000000000000000000000000000000000000000000000604486015284602081808903815f7f00000000000000000000000000000000000000000000000000000000000000006001600160a01b03165af180156101d75761017d57005b6020903d6020116101cf575b601f8201601f191681019167ffffffffffffffff8311828410176101bb57602092604052810103126101b757005b5f80fd5b634e487b7160e01b5f52604160045260245ffd5b3d9150610189565b6040513d5f823e3d90fd5b86860360831901815283546001600160a01b039081168752600185015481166020808901919091526002860154909116604088015260c0606088018190526003860180549189018290525f90815291822095979496509294919360e081019390925b81600984011061043a57549181811061041b575b8181106103fc575b8181106103dd575b8181106103be575b81811061039f575b818110610380575b818110610361575b818110610342575b818110610323575b10610308575b5060048601918181036080830152602083549182815201925f5260205f20905f905b8082106102f057505050600660019260209260a060ff60058b0154161515910152960192019201859391926100e9565b909193600160208192875481520195019201906102c0565b60101b6001600160e81b03191682526020909101905f61029e565b602883901b6001600160e81b0319168552602090940193600101610298565b604083901b6001600160e81b0319168552602090940193600101610290565b605883901b6001600160e81b0319168552602090940193600101610288565b607083901b6001600160e81b0319168552602090940193600101610280565b608883901b6001600160e81b0319168552602090940193600101610278565b60a083901b6001600160e81b0319168552602090940193600101610270565b60b883901b6001600160e81b0319168552602090940193600101610268565b60d083901b6001600160e81b0319168552602090940193600101610260565b60e883901b6001600160e81b0319168552602090940193600101610258565b80546001600160e81b031960e882901b8116875260d082901b8116602088015260b882901b811660408089019190915260a083811b831660608a0152608884901b831660808a0152607084901b831690890152605883901b821660c089015282901b811660e0880152602882901b811661010088015260109190911b1661012086015261014090940193600a9290920191600101610244565b346101b7575f3660031901126101b7576040517f00000000000000000000000000000000000000000000000000000000000000006001600160a01b03168152602090f35b346101b7575f3660031901126101b75760206040517f00000000000000000000000000000000000000000000000000000000000000008152f35b346101b7575f3660031901126101b7576020907f00000000000000000000000000000000000000000000000000000000000000008152f3fea26469706673582212205fb68d02e8cb2fe7277ded7a3de75a90f341302c2f7855ae533d8981d84180b564736f6c634300081e0033290decd9548b62a8d60345a988386fc84ba6bc95484008f6362f93160ef3e563",
  "linkReferences": {},
  "deployedLinkReferences": {}
}