{
  "_format": "hh-sol-artifact-1",
  "contractName": "SushiV2DataBridge",
  "sourceName": "contracts/Peripheral/DataBridges/real/SushiV2DataBridge.sol",
  "abi": [
    {
      "inputs": [
        {
          "internalType": "address",
          "name": "_factory",
          "type": "address"
        },
        {
          "internalType": "address",
          "name": "_ext0",
          "type": "address"
        },
        {
          "internalType": "address",
          "name": "_ext1",
          "type": "address"
        }
      ],
      "stateMutability": "nonpayable",
      "type": "constructor"
    },
    {
      "inputs": [],
      "name": "SushiV2__EmptyReserves",
      "type": "error"
    },
    {
      "inputs": [],
      "name": "SushiV2__PairMismatch",
      "type": "error"
    },
    {
      "inputs": [],
      "name": "SushiV2__PairMissing",
      "type": "error"
    },
    {
      "inputs": [],
      "name": "SushiV2__PairTokensMismatch",
      "type": "error"
    },
    {
      "inputs": [],
      "name": "canonicalExt0",
      "outputs": [
        {
          "internalType": "address",
          "name": "",
          "type": "address"
        }
      ],
      "stateMutability": "view",
      "type": "function"
    },
    {
      "inputs": [],
      "name": "canonicalExt1",
      "outputs": [
        {
          "internalType": "address",
          "name": "",
          "type": "address"
        }
      ],
      "stateMutability": "view",
      "type": "function"
    },
    {
      "inputs": [],
      "name": "factory",
      "outputs": [
        {
          "internalType": "address",
          "name": "",
          "type": "address"
        }
      ],
      "stateMutability": "view",
      "type": "function"
    },
    {
      "inputs": [
        {
          "components": [
            {
              "internalType": "address",
              "name": "asset0",
              "type": "address"
            },
            {
              "internalType": "address",
              "name": "asset1",
              "type": "address"
            },
            {
              "internalType": "address",
              "name": "quoter",
              "type": "address"
            },
            {
              "internalType": "uint256",
              "name": "amount",
              "type": "uint256"
            },
            {
              "internalType": "uint128",
              "name": "asset0Balance",
              "type": "uint128"
            },
            {
              "internalType": "uint128",
              "name": "asset1Balance",
              "type": "uint128"
            },
            {
              "internalType": "uint16",
              "name": "bucketID",
              "type": "uint16"
            },
            {
              "internalType": "bool",
              "name": "zeroForOne",
              "type": "bool"
            }
          ],
          "internalType": "struct QuoteParams",
          "name": "params",
          "type": "tuple"
        }
      ],
      "name": "getData",
      "outputs": [
        {
          "internalType": "bytes",
          "name": "",
          "type": "bytes"
        }
      ],
      "stateMutability": "view",
      "type": "function"
    }
  ],
  "bytecode": "0x60e0346100a657601f61083b38819003918201601f19168301916001600160401b038311848410176100aa578084926060946040528339810103126100a657610047816100be565b906100606040610059602084016100be565b92016100be565b9160805260a05260c05260405161076890816100d3823960805181818160a50152610261015260a051818181605d01526101ff015260c05181818160e901526102290152f35b5f80fd5b634e487b7160e01b5f52604160045260245ffd5b51906001600160a01b03821682036100a65756fe6080806040526004361015610012575f80fd5b5f3560e01c9081633bd1104b1461011857508063a6b12823146100d4578063c45a0155146100905763cd85236614610048575f80fd5b3461008c575f36600319011261008c576040517f00000000000000000000000000000000000000000000000000000000000000006001600160a01b03168152602090f35b5f80fd5b3461008c575f36600319011261008c576040517f00000000000000000000000000000000000000000000000000000000000000006001600160a01b03168152602090f35b3461008c575f36600319011261008c576040517f00000000000000000000000000000000000000000000000000000000000000006001600160a01b03168152602090f35b3461008c5761010036600319011261008c57610100810181811067ffffffffffffffff82111761068f576040526004356001600160a01b038116810361008c5781526024356001600160a01b038116810361008c57602082019081526044356001600160a01b038116810361008c57604083015260643560608301526084356001600160801b038116810361008c57608083015260a4356001600160801b038116810361008c5760a083015260c43561ffff8116810361008c5760c083015260e435801515810361008c5760e083015260405163e6a4390560e01b81526001600160a01b037f00000000000000000000000000000000000000000000000000000000000000008116600483018190527f000000000000000000000000000000000000000000000000000000000000000082166024840181905290929091602090829060449082907f0000000000000000000000000000000000000000000000000000000000000000165afa908115610562575f91610670575b506001600160a01b0316801561066157604051630240bc6b60e21b8152606081600481855afa908115610562575f905f92610602575b506001600160701b031691821515806105f0575b156105e157604051630dfe168160e01b815290602082600481845afa908115610562576004925f926105bf575b506020906040519384809263d21220a760e01b82525afa918215610562575f9261058e575b5060405163313ce56760e01b81526001600160a01b0391909116939091602083600481885afa928315610562575f9361056d575b5060405163313ce56760e01b81526001600160a01b03919091169390602081600481885afa80156105625760ff915f91610533575b5016601201918260121161051f576103ce60ff6103c76001600160701b03936103c16103d597610711565b9061071f565b9516610711565b911661071f565b9081156104875785918591049382811480610516575b156104d15750505050935b516001600160a01b0316828114806104be575b1561045c57505050505b604080516020810192808452828201528181526104316060826106a3565b8151928391602083525180918160208501528484015e5f828201840152601f01601f19168101030190f35b1491826104aa575b50501561049b578015610487576ec097ce7bc90715b34b9f100000000004610413565b634e487b7160e01b5f52601260045260245ffd5b63dcdeadc960e01b5f5260045ffd5b516001600160a01b03161490508280610464565b5083516001600160a01b03168214610409565b14918261050c575b5050156104fd578015610487576ec097ce7bc90715b34b9f100000000004936103f6565b63291410af60e01b5f5260045ffd5b14905083876104d9565b508184146103eb565b634e487b7160e01b5f52601160045260245ffd5b610555915060203d60201161055b575b61054d81836106a3565b8101906106f8565b8b610396565b503d610543565b6040513d5f823e3d90fd5b61058791935060203d60201161055b5761054d81836106a3565b9189610361565b6105b191925060203d6020116105b8575b6105a981836106a3565b8101906106c5565b908861032d565b503d61059f565b60209192506105da90823d84116105b8576105a981836106a3565b9190610308565b635f820a3f60e11b5f5260045ffd5b506001600160701b03821615156102db565b9150506060813d606011610659575b8161061e606093836106a3565b8101031261008c5761062f816106e4565b604061063d602084016106e4565b92015163ffffffff81160361008c576001600160701b036102c7565b3d9150610611565b63d2e8bd8f60e01b5f5260045ffd5b610689915060203d6020116105b8576105a981836106a3565b85610291565b634e487b7160e01b5f52604160045260245ffd5b90601f8019910116810190811067ffffffffffffffff82111761068f57604052565b9081602091031261008c57516001600160a01b038116810361008c5790565b51906001600160701b038216820361008c57565b9081602091031261008c575160ff8116810361008c5790565b604d811161051f57600a0a90565b8181029291811591840414171561051f5756fea264697066735822122083eb008ac9d6d48cd38e6c3a381d297a41b68a73ea9d8fe6e9c7e4137fceaeda64736f6c634300081e0033",
  "linkReferences": {},
  "deployedLinkReferences": {}
}