{
  "_format": "hh-sol-artifact-1",
  "contractName": "FlashTwoSwapsCallback",
  "sourceName": "contracts/z_remix_test/FlashTwoSwapsCallback.sol",
  "abi": [
    {
      "inputs": [
        {
          "internalType": "address",
          "name": "_pm",
          "type": "address"
        },
        {
          "internalType": "address",
          "name": "_asset0",
          "type": "address"
        },
        {
          "internalType": "address",
          "name": "_asset1",
          "type": "address"
        },
        {
          "internalType": "address",
          "name": "_quoter",
          "type": "address"
        },
        {
          "internalType": "bytes3",
          "name": "_markings",
          "type": "bytes3"
        },
        {
          "internalType": "uint256",
          "name": "_amountIn",
          "type": "uint256"
        }
      ],
      "stateMutability": "nonpayable",
      "type": "constructor"
    },
    {
      "inputs": [],
      "name": "amountIn",
      "outputs": [
        {
          "internalType": "uint256",
          "name": "",
          "type": "uint256"
        }
      ],
      "stateMutability": "view",
      "type": "function"
    },
    {
      "inputs": [],
      "name": "asset0",
      "outputs": [
        {
          "internalType": "address",
          "name": "",
          "type": "address"
        }
      ],
      "stateMutability": "view",
      "type": "function"
    },
    {
      "inputs": [],
      "name": "asset1",
      "outputs": [
        {
          "internalType": "address",
          "name": "",
          "type": "address"
        }
      ],
      "stateMutability": "view",
      "type": "function"
    },
    {
      "inputs": [
        {
          "internalType": "bytes",
          "name": "",
          "type": "bytes"
        }
      ],
      "name": "flashCallback",
      "outputs": [],
      "stateMutability": "nonpayable",
      "type": "function"
    },
    {
      "inputs": [],
      "name": "markings",
      "outputs": [
        {
          "internalType": "bytes3",
          "name": "",
          "type": "bytes3"
        }
      ],
      "stateMutability": "view",
      "type": "function"
    },
    {
      "inputs": [],
      "name": "poolManager",
      "outputs": [
        {
          "internalType": "contract IPoolManager",
          "name": "",
          "type": "address"
        }
      ],
      "stateMutability": "view",
      "type": "function"
    },
    {
      "inputs": [],
      "name": "quoter",
      "outputs": [
        {
          "internalType": "address",
          "name": "",
          "type": "address"
        }
      ],
      "stateMutability": "view",
      "type": "function"
    }
  ],
  "bytecode": "0x6101403461011557601f6105f438819003918201601f19168301916001600160401b038311848410176101195780849260c094604052833981010312610115576100488161012d565b906100556020820161012d565b6100616040830161012d565b61006d6060840161012d565b9160808401519362ffffff60e81b851685036101155760a0908101516001600160a01b039096166080525260c05260e05261010052610120526040516104b29081610142823960805181818161012b0152610275015260a05181818160e701526102fd015260c0518181816101560152610341015260e05181818161010901526102b901526101005181818160c5015261038501526101205181818161017801526103ca0152f35b5f80fd5b634e487b7160e01b5f52604160045260245ffd5b51906001600160a01b03821682036101155756fe6080806040526004361015610012575f80fd5b5f3560e01c9081636bed55a6146103b5575080636c4ebd05146103705780637cd5f3f91461032c578063c509b6a2146102e8578063c6bbd5a7146102a4578063dc4c90d3146102605763e373923814610069575f80fd5b346102545760203660031901126102545760043567ffffffffffffffff8111610254573660238201121561025457806004013567ffffffffffffffff811161025457369101602401116102545760405163364af21360e21b81527f0000000000000000000000000000000000000000000000000000000000000000907f0000000000000000000000000000000000000000000000000000000000000000907f0000000000000000000000000000000000000000000000000000000000000000907f00000000000000000000000000000000000000000000000000000000000000006001600160a01b0316907f0000000000000000000000000000000000000000000000000000000000000000907f000000000000000000000000000000000000000000000000000000000000000090602081806101ad858b8a898d60048701610432565b03815f885af1801561021e57610229575b506020946101e45f926040519889978896879563364af21360e21b875260048701610432565b03925af1801561021e576101f457005b6102159060203d602011610217575b61020d81836103ed565b810190610423565b005b503d610203565b6040513d5f823e3d90fd5b946020863d602011610258575b81610243602093836103ed565b8101031261025457945060206101be565b5f80fd5b3d9150610236565b34610254575f366003190112610254576040517f00000000000000000000000000000000000000000000000000000000000000006001600160a01b03168152602090f35b34610254575f366003190112610254576040517f00000000000000000000000000000000000000000000000000000000000000006001600160a01b03168152602090f35b34610254575f366003190112610254576040517f00000000000000000000000000000000000000000000000000000000000000006001600160a01b03168152602090f35b34610254575f366003190112610254576040517f00000000000000000000000000000000000000000000000000000000000000006001600160a01b03168152602090f35b34610254575f366003190112610254576040517f00000000000000000000000000000000000000000000000000000000000000006001600160e81b0319168152602090f35b34610254575f366003190112610254576020907f00000000000000000000000000000000000000000000000000000000000000008152f35b90601f8019910116810190811067ffffffffffffffff82111761040f57604052565b634e487b7160e01b5f52604160045260245ffd5b90816020910312610254575190565b6001600160a01b039182168152918116602083015290911660408201526001600160e81b031990911660608201526080810191909152600160a0820181905260c082015260e0019056fea26469706673582212207ec44ec317c9ed1410c597587045755028140d8f377a4c6fe3489c328939db7364736f6c634300081e0033",
  "linkReferences": {},
  "deployedLinkReferences": {}
}