{
  "_format": "hh-sol-artifact-1",
  "contractName": "ProtocolRegistry",
  "sourceName": "contracts/Governance/ProtocolRegistry.sol",
  "abi": [
    {
      "inputs": [
        {
          "internalType": "address",
          "name": "_poolManager",
          "type": "address"
        },
        {
          "internalType": "address",
          "name": "_governance",
          "type": "address"
        },
        {
          "internalType": "address",
          "name": "_emergencyMultisig",
          "type": "address"
        }
      ],
      "stateMutability": "nonpayable",
      "type": "constructor"
    },
    {
      "anonymous": false,
      "inputs": [
        {
          "indexed": true,
          "internalType": "uint256",
          "name": "poolId",
          "type": "uint256"
        },
        {
          "indexed": false,
          "internalType": "uint8",
          "name": "oldState",
          "type": "uint8"
        },
        {
          "indexed": false,
          "internalType": "uint8",
          "name": "newState",
          "type": "uint8"
        }
      ],
      "name": "EmergencyStateChanged",
      "type": "event"
    },
    {
      "anonymous": false,
      "inputs": [
        {
          "indexed": false,
          "internalType": "uint8",
          "name": "poolType",
          "type": "uint8"
        },
        {
          "indexed": false,
          "internalType": "uint8",
          "name": "oldState",
          "type": "uint8"
        },
        {
          "indexed": false,
          "internalType": "uint8",
          "name": "newState",
          "type": "uint8"
        }
      ],
      "name": "GlobalStateChanged",
      "type": "event"
    },
    {
      "anonymous": false,
      "inputs": [
        {
          "indexed": true,
          "internalType": "uint256",
          "name": "poolId",
          "type": "uint256"
        },
        {
          "indexed": false,
          "internalType": "uint8",
          "name": "poolType",
          "type": "uint8"
        },
        {
          "indexed": false,
          "internalType": "address",
          "name": "quoter",
          "type": "address"
        }
      ],
      "name": "PoolRegistered",
      "type": "event"
    },
    {
      "anonymous": false,
      "inputs": [
        {
          "indexed": true,
          "internalType": "address",
          "name": "quoter",
          "type": "address"
        },
        {
          "indexed": false,
          "internalType": "uint8",
          "name": "quoterType",
          "type": "uint8"
        }
      ],
      "name": "QuoterVerified",
      "type": "event"
    },
    {
      "inputs": [],
      "name": "emergencyMultisig",
      "outputs": [
        {
          "internalType": "address",
          "name": "",
          "type": "address"
        }
      ],
      "stateMutability": "view",
      "type": "function"
    },
    {
      "inputs": [
        {
          "internalType": "uint8",
          "name": "newState",
          "type": "uint8"
        }
      ],
      "name": "emergencyPauseProtocolPools",
      "outputs": [],
      "stateMutability": "nonpayable",
      "type": "function"
    },
    {
      "inputs": [
        {
          "internalType": "uint256",
          "name": "poolId",
          "type": "uint256"
        }
      ],
      "name": "getPoolInfo",
      "outputs": [
        {
          "internalType": "uint8",
          "name": "poolType",
          "type": "uint8"
        },
        {
          "internalType": "uint8",
          "name": "emergencyState",
          "type": "uint8"
        },
        {
          "internalType": "uint8",
          "name": "effectiveState",
          "type": "uint8"
        }
      ],
      "stateMutability": "view",
      "type": "function"
    },
    {
      "inputs": [
        {
          "internalType": "address",
          "name": "quoter",
          "type": "address"
        }
      ],
      "name": "getQuoterInfo",
      "outputs": [
        {
          "internalType": "uint8",
          "name": "quoterType",
          "type": "uint8"
        },
        {
          "internalType": "bool",
          "name": "verified",
          "type": "bool"
        }
      ],
      "stateMutability": "view",
      "type": "function"
    },
    {
      "inputs": [],
      "name": "globalCommunityState",
      "outputs": [
        {
          "internalType": "uint8",
          "name": "",
          "type": "uint8"
        }
      ],
      "stateMutability": "view",
      "type": "function"
    },
    {
      "inputs": [],
      "name": "globalProtocolState",
      "outputs": [
        {
          "internalType": "uint8",
          "name": "",
          "type": "uint8"
        }
      ],
      "stateMutability": "view",
      "type": "function"
    },
    {
      "inputs": [],
      "name": "governance",
      "outputs": [
        {
          "internalType": "address",
          "name": "",
          "type": "address"
        }
      ],
      "stateMutability": "view",
      "type": "function"
    },
    {
      "inputs": [
        {
          "internalType": "uint256",
          "name": "poolId",
          "type": "uint256"
        },
        {
          "internalType": "uint8",
          "name": "newState",
          "type": "uint8"
        }
      ],
      "name": "pauseSpecificPool",
      "outputs": [],
      "stateMutability": "nonpayable",
      "type": "function"
    },
    {
      "inputs": [
        {
          "internalType": "uint256",
          "name": "",
          "type": "uint256"
        }
      ],
      "name": "poolEmergencyStates",
      "outputs": [
        {
          "internalType": "uint8",
          "name": "",
          "type": "uint8"
        }
      ],
      "stateMutability": "view",
      "type": "function"
    },
    {
      "inputs": [],
      "name": "poolManager",
      "outputs": [
        {
          "internalType": "address",
          "name": "",
          "type": "address"
        }
      ],
      "stateMutability": "view",
      "type": "function"
    },
    {
      "inputs": [
        {
          "internalType": "uint256",
          "name": "",
          "type": "uint256"
        }
      ],
      "name": "poolTypes",
      "outputs": [
        {
          "internalType": "uint8",
          "name": "",
          "type": "uint8"
        }
      ],
      "stateMutability": "view",
      "type": "function"
    },
    {
      "inputs": [
        {
          "internalType": "address",
          "name": "",
          "type": "address"
        }
      ],
      "name": "quoterTypes",
      "outputs": [
        {
          "internalType": "uint8",
          "name": "",
          "type": "uint8"
        }
      ],
      "stateMutability": "view",
      "type": "function"
    },
    {
      "inputs": [
        {
          "internalType": "uint256",
          "name": "poolId",
          "type": "uint256"
        },
        {
          "internalType": "address",
          "name": "quoter",
          "type": "address"
        }
      ],
      "name": "registerPool",
      "outputs": [],
      "stateMutability": "nonpayable",
      "type": "function"
    },
    {
      "inputs": [
        {
          "internalType": "uint8",
          "name": "newState",
          "type": "uint8"
        },
        {
          "internalType": "uint256",
          "name": "delayBlocks",
          "type": "uint256"
        }
      ],
      "name": "timelockCommunityPools",
      "outputs": [],
      "stateMutability": "nonpayable",
      "type": "function"
    },
    {
      "inputs": [
        {
          "internalType": "address",
          "name": "_governance",
          "type": "address"
        },
        {
          "internalType": "address",
          "name": "_emergencyMultisig",
          "type": "address"
        }
      ],
      "name": "updateGovernance",
      "outputs": [],
      "stateMutability": "nonpayable",
      "type": "function"
    },
    {
      "inputs": [
        {
          "internalType": "uint256",
          "name": "poolId",
          "type": "uint256"
        },
        {
          "internalType": "uint8",
          "name": "operationType",
          "type": "uint8"
        }
      ],
      "name": "validateOperation",
      "outputs": [
        {
          "internalType": "bool",
          "name": "allowed",
          "type": "bool"
        }
      ],
      "stateMutability": "view",
      "type": "function"
    },
    {
      "inputs": [
        {
          "internalType": "address",
          "name": "",
          "type": "address"
        }
      ],
      "name": "verifiedQuoters",
      "outputs": [
        {
          "internalType": "bool",
          "name": "",
          "type": "bool"
        }
      ],
      "stateMutability": "view",
      "type": "function"
    },
    {
      "inputs": [
        {
          "internalType": "address",
          "name": "quoter",
          "type": "address"
        },
        {
          "internalType": "uint8",
          "name": "quoterType",
          "type": "uint8"
        }
      ],
      "name": "verifyQuoter",
      "outputs": [],
      "stateMutability": "nonpayable",
      "type": "function"
    }
  ],
  "bytecode": "0x60a0346100bb57601f610be738819003918201601f19168301916001600160401b038311848410176100bf578084926060946040528339810103126100bb57610047816100d3565b906100606040610059602084016100d3565b92016100d3565b6004805461ffff191690556080929092525f80546001600160a01b039283166001600160a01b03199182161790915560018054929093169116179055604051610aff90816100e8823960805181818161013e01526102550152f35b5f80fd5b634e487b7160e01b5f52604160045260245ffd5b51906001600160a01b03821682036100bb5756fe60806040526004361015610011575f80fd5b5f3560e01c80631149d5dd1461089e5780631b95a010146108715780632f380b35146107e75780635aa6e675146107c057806363d097ef146107a05780636d19bf681461067b57806378a8317f146105c65780638f81aaca1461059957806394376a001461055e5780639fc2fd3a146104fa578063ab62c094146103df578063ae3aae4e146102f7578063b3c8e539146102d4578063d3a9c0b814610284578063dc4c90d314610240578063dc6af75814610218578063e4972358146101205763faf8f8fd146100df575f80fd5b3461011c57602036600319011261011c576001600160a01b036101006108ee565b165f526006602052602060ff60405f2054166040519015158152f35b5f80fd5b3461011c57604036600319011261011c5760043561013c610904565b7f00000000000000000000000000000000000000000000000000000000000000006001600160a01b031633036101e05760407f30e82fe8051df05beebb0373bf839dec9fc240e67a109e9c9fbaa8d96e369bf49160018060a01b0316805f52600560205260ff825f20541690845f526002602052825f2060ff831660ff19825416179055845f526003602052825f2060ff19815416905582519182526020820152a2005b60405162461bcd60e51b815260206004820152601060248201526f27b7363c902837b7b626b0b730b3b2b960811b6044820152606490fd5b3461011c575f36600319011261011c576001546040516001600160a01b039091168152602090f35b3461011c575f36600319011261011c576040517f00000000000000000000000000000000000000000000000000000000000000006001600160a01b03168152602090f35b3461011c57602036600319011261011c5760406001600160a01b036102a76108ee565b16805f52600560205260ff825f205416905f52600660205260ff825f205416825191825215156020820152f35b3461011c575f36600319011261011c57602060ff60045460081c16604051908152f35b3461011c57604036600319011261011c576103106108de565b61032460018060a01b035f541633146109a1565b60ff81166001811015806103d4575b61033c90610a1c565b611c206024351061039c577f2a2d67da1ebf93dec703aeee3489bf4918dedd98d3d5362ab4bb5e924710abdd9160609161ff006004549260081b1661ff001983161760045560ff604051926001845260081c1660208301526040820152a1005b60405162461bcd60e51b815260206004820152601060248201526f4d696e696d756d20323420686f75727360801b6044820152606490fd5b506005811115610333565b3461011c57604036600319011261011c576004356103fb6108ce565b6001546001600160a01b0316331480156104e7575b610419906109df565b815f52600260205260ff60405f205416156104a257604060ff7ff9c059c3f68812d167ca6be9c6e043afbe84e652eae5e3806d68d2256ffddf5b9216600181101580610497575b61046990610a1c565b5f8481526003602090815290839020805460ff1981168417909155835160ff909116815290810191909152a2005b506005811115610460565b60405162461bcd60e51b815260206004820152601a60248201527f43616e6e6f74207061757365207072697661746520706f6f6c730000000000006044820152606490fd5b505f546001600160a01b03163314610410565b3461011c57604036600319011261011c576105136108ee565b61051b610904565b5f549091610533336001600160a01b038416146109a1565b6001600160a01b03199182166001600160a01b03918216175f55600180549092169216919091179055005b3461011c57602036600319011261011c576001600160a01b0361057f6108ee565b165f526005602052602060ff60405f205416604051908152f35b3461011c57602036600319011261011c576004355f526003602052602060ff60405f205416604051908152f35b3461011c57602036600319011261011c577f2a2d67da1ebf93dec703aeee3489bf4918dedd98d3d5362ab4bb5e924710abdd606060ff6106046108de565b6001546001600160a01b031633148015610668575b610622906109df565b1660018110158061065d575b61063790610a1c565b600454908060ff1983161760045560ff60405192600284521660208301526040820152a1005b50600581111561062e565b505f546001600160a01b03163314610619565b3461011c57604036600319011261011c576106946108ee565b60ff61069e6108ce565b6106b260018060a01b035f541633146109a1565b1690600182148015610796575b15610762576001600160a01b031690811561072c5760207f11271d0baee3f49be99af7c8e8d436f9e1aa500f257ead25688911912994f0d391835f526005825260405f208160ff19825416179055835f526006825260405f20600160ff19825416179055604051908152a2005b60405162461bcd60e51b815260206004820152600e60248201526d24b73b30b634b21038bab7ba32b960911b6044820152606490fd5b60405162461bcd60e51b815260206004820152600c60248201526b496e76616c6964207479706560a01b6044820152606490fd5b50600282146106bf565b3461011c575f36600319011261011c57602060ff60045416604051908152f35b3461011c575f36600319011261011c575f546040516001600160a01b039091168152602090f35b3461011c57602036600319011261011c576060600435805f52600260205260ff60405f205416905f52600360205260ff8060405f205416600283145f1461084b57610836818360045416610a58565b905b6040519384526020840152166040820152f35b6001830361086a57610864818360045460081c16610a58565b90610838565b5f90610838565b3461011c57602036600319011261011c576004355f526002602052602060ff60405f205416604051908152f35b3461011c57604036600319011261011c5760206108c46108bc6108ce565b60043561091a565b6040519015158152f35b6024359060ff8216820361011c57565b6004359060ff8216820361011c57565b600435906001600160a01b038216820361011c57565b602435906001600160a01b038216820361011c57565b90815f52600260205260ff60405f20541680156109995760028103610965575061095d6109629260ff60045416905f52600360205260ff60405f20541690610a58565b610a71565b90565b6001036109925761095d6109629260ff60045460081c16905f52600360205260ff60405f20541690610a58565b5050600190565b505050600190565b156109a857565b60405162461bcd60e51b815260206004820152600f60248201526e4f6e6c7920676f7665726e616e636560881b6044820152606490fd5b156109e657565b60405162461bcd60e51b815260206004820152600e60248201526d4f6e6c7920656d657267656e637960901b6044820152606490fd5b15610a2357565b60405162461bcd60e51b815260206004820152600d60248201526c496e76616c696420737461746560981b6044820152606490fd5b9060ff811660ff8316115f14610a6c575090565b905090565b60ff16801561099257600181146109925760028114610abe5760038114610ab55760048114610aaf57600514610aa657505f90565b60ff1660021490565b50505f90565b5060ff16151590565b5060ff16600114159056fea2646970667358221220f920559e86e39c55f852f8bb429c1a83c4841d753f5e3494d695e8fdf7f14edf64736f6c634300081e0033",
  "linkReferences": {},
  "deployedLinkReferences": {}
}