{
  "_format": "hh-sol-artifact-1",
  "contractName": "ChainlinkDataBridge",
  "sourceName": "contracts/Peripheral/DataBridges/real/ChainlinkDataBridge.sol",
  "abi": [
    {
      "inputs": [
        {
          "internalType": "address",
          "name": "_registry",
          "type": "address"
        },
        {
          "internalType": "address",
          "name": "_aliasRegistry",
          "type": "address"
        }
      ],
      "stateMutability": "nonpayable",
      "type": "constructor"
    },
    {
      "inputs": [],
      "name": "aliasRegistry",
      "outputs": [
        {
          "internalType": "address",
          "name": "",
          "type": "address"
        }
      ],
      "stateMutability": "view",
      "type": "function"
    },
    {
      "inputs": [
        {
          "components": [
            {
              "internalType": "address",
              "name": "asset0",
              "type": "address"
            },
            {
              "internalType": "address",
              "name": "asset1",
              "type": "address"
            },
            {
              "internalType": "address",
              "name": "quoter",
              "type": "address"
            },
            {
              "internalType": "uint256",
              "name": "amount",
              "type": "uint256"
            },
            {
              "internalType": "uint128",
              "name": "asset0Balance",
              "type": "uint128"
            },
            {
              "internalType": "uint128",
              "name": "asset1Balance",
              "type": "uint128"
            },
            {
              "internalType": "uint16",
              "name": "bucketID",
              "type": "uint16"
            },
            {
              "internalType": "bool",
              "name": "zeroForOne",
              "type": "bool"
            }
          ],
          "internalType": "struct QuoteParams",
          "name": "params",
          "type": "tuple"
        }
      ],
      "name": "getData",
      "outputs": [
        {
          "internalType": "bytes",
          "name": "",
          "type": "bytes"
        }
      ],
      "stateMutability": "view",
      "type": "function"
    },
    {
      "inputs": [],
      "name": "registry",
      "outputs": [
        {
          "internalType": "address",
          "name": "",
          "type": "address"
        }
      ],
      "stateMutability": "view",
      "type": "function"
    }
  ],
  "bytecode": "0x60c03461008657601f6107d738819003918201601f19168301916001600160401b0383118484101761008a57808492604094855283398101031261008657610052602061004b8361009e565b920161009e565b9060805260a05260405161072490816100b382396080518181816052015261046f015260a051818181609a015261034c0152f35b5f80fd5b634e487b7160e01b5f52604160045260245ffd5b51906001600160a01b03821682036100865756fe6080806040526004361015610012575f80fd5b5f3560e01c9081633bd1104b146100c957508063516fd9a71461008557637b1039991461003d575f80fd5b34610081575f366003190112610081576040517f00000000000000000000000000000000000000000000000000000000000000006001600160a01b03168152602090f35b5f80fd5b34610081575f366003190112610081576040517f00000000000000000000000000000000000000000000000000000000000000006001600160a01b03168152602090f35b346100815761010036600319011261008157610100810181811067ffffffffffffffff8211176102ab576040526004356001600160a01b0381169190828103610081578152602435906001600160a01b038216820361008157602081019182526044356001600160a01b038116810361008157604082015260643560608201526084356001600160801b038116810361008157608082015260a4356001600160801b03811681036100815760a082015260c43561ffff811681036100815760c082015260e435928315158403610081576101c36101b36101c99260ff9660e06101d1960152610323565b93516001600160a01b0316610323565b92610446565b929093610446565b95166012019160ff8311610297576101f86101f2916101f26101fe956102e1565b906102f2565b946102e1565b91821561026a5760409261021191610305565b928082101561026357505b81519060208201938452828201528181526102386060826102bf565b8151928391602083525180918160208501528484015e5f828201840152601f01601f19168101030190f35b905061021c565b60405162461bcd60e51b8152602060048201526005602482015264064656e3d360dc1b6044820152606490fd5b634e487b7160e01b5f52601160045260245ffd5b634e487b7160e01b5f52604160045260245ffd5b90601f8019910116810190811067ffffffffffffffff8211176102ab57604052565b60ff16604d811161029757600a0a90565b8181029291811591840414171561029757565b811561030f570490565b634e487b7160e01b5f52601260045260245ffd5b6040516352d41c9960e11b81526001600160a01b038281166004830152602090829060249082907f0000000000000000000000000000000000000000000000000000000000000000165afa9081156103d6575f91610394575b506001600160a01b03811661038f575090565b905090565b90506020813d6020116103ce575b816103af602093836102bf565b8101031261008157516001600160a01b0381168103610081575f61037c565b3d91506103a2565b6040513d5f823e3d90fd5b519069ffffffffffffffffffff8216820361008157565b908160a09103126100815761040c816103e1565b9160208201519160408101519161042a6080606084015193016103e1565b90565b90816020910312610081575160ff811681036100815790565b60405163bcfd032d60e01b81526001600160a01b038281166004830152610348602483015291927f0000000000000000000000000000000000000000000000000000000000000000909216919060a081604481865afa90815f915f936106c6575b5061062657505060405163bcfd032d60e01b815261034860048201526001600160a01b038416602482015260a081604481865afa92835f925f956105ec575b5061051f5760405162461bcd60e51b815260206004820152600c60248201526b66656564206d697373696e6760a01b6044820152606490fd5b5f8213156105bd57604051630b1c5a7560e31b815261034860048201526001600160a01b03959095166024860152602090859060449082905afa9384156103d6575f94610588575b506105839061057e610578866102e1565b806102f2565b610305565b929190565b6105839194506105af9060203d6020116105b6575b6105a781836102bf565b81019061042d565b9390610567565b503d61059d565b60405162461bcd60e51b81526020600482015260076024820152663130b21034b73b60c91b6044820152606490fd5b90945061061291925060a03d60a01161061f575b61060a81836102bf565b8101906103f8565b509392505091935f6104e6565b503d610600565b90925f82131561069757604051630b1c5a7560e31b81526001600160a01b039590951660048601526103486024860152602090859060449082905afa9384156103d6575f94610676575b50929190565b61069091945060203d6020116105b6576105a781836102bf565b925f610670565b60405162461bcd60e51b815260206004820152600760248201526662616420616e7360c81b6044820152606490fd5b9092506106e2915060a03d60a01161061f5761060a81836102bf565b5092505090915f6104a756fea264697066735822122095a3c5837b3471eb57a81f5b55fafbfa274104bfe58920ca5a1664ce77d0971a64736f6c634300081e0033",
  "linkReferences": {},
  "deployedLinkReferences": {}
}