{
  "_format": "hh-sol-artifact-1",
  "contractName": "ChainlinkDataBridge",
  "sourceName": "contracts/Peripheral/DataBridges/real/ChainlinkDataBridge.sol",
  "abi": [
    {
      "inputs": [
        {
          "internalType": "address",
          "name": "_registry",
          "type": "address"
        },
        {
          "internalType": "address",
          "name": "_aliasRegistry",
          "type": "address"
        }
      ],
      "stateMutability": "nonpayable",
      "type": "constructor"
    },
    {
      "inputs": [],
      "name": "Chainlink__BadAnswer",
      "type": "error"
    },
    {
      "inputs": [],
      "name": "Chainlink__BadInverse",
      "type": "error"
    },
    {
      "inputs": [],
      "name": "Chainlink__DenominatorZero",
      "type": "error"
    },
    {
      "inputs": [],
      "name": "Chainlink__FeedMissing",
      "type": "error"
    },
    {
      "inputs": [],
      "name": "aliasRegistry",
      "outputs": [
        {
          "internalType": "address",
          "name": "",
          "type": "address"
        }
      ],
      "stateMutability": "view",
      "type": "function"
    },
    {
      "inputs": [
        {
          "components": [
            {
              "internalType": "address",
              "name": "asset0",
              "type": "address"
            },
            {
              "internalType": "address",
              "name": "asset1",
              "type": "address"
            },
            {
              "internalType": "address",
              "name": "quoter",
              "type": "address"
            },
            {
              "internalType": "uint256",
              "name": "amount",
              "type": "uint256"
            },
            {
              "internalType": "uint128",
              "name": "asset0Balance",
              "type": "uint128"
            },
            {
              "internalType": "uint128",
              "name": "asset1Balance",
              "type": "uint128"
            },
            {
              "internalType": "uint16",
              "name": "bucketID",
              "type": "uint16"
            },
            {
              "internalType": "bool",
              "name": "zeroForOne",
              "type": "bool"
            }
          ],
          "internalType": "struct QuoteParams",
          "name": "params",
          "type": "tuple"
        }
      ],
      "name": "getData",
      "outputs": [
        {
          "internalType": "bytes",
          "name": "",
          "type": "bytes"
        }
      ],
      "stateMutability": "view",
      "type": "function"
    },
    {
      "inputs": [],
      "name": "registry",
      "outputs": [
        {
          "internalType": "address",
          "name": "",
          "type": "address"
        }
      ],
      "stateMutability": "view",
      "type": "function"
    }
  ],
  "bytecode": "0x60c03461008657601f61075438819003918201601f19168301916001600160401b0383118484101761008a57808492604094855283398101031261008657610052602061004b8361009e565b920161009e565b9060805260a0526040516106a190816100b3823960805181818160520152610451015260a051818181609a015261032e0152f35b5f80fd5b634e487b7160e01b5f52604160045260245ffd5b51906001600160a01b03821682036100865756fe6080806040526004361015610012575f80fd5b5f3560e01c9081633bd1104b146100c957508063516fd9a71461008557637b1039991461003d575f80fd5b34610081575f366003190112610081576040517f00000000000000000000000000000000000000000000000000000000000000006001600160a01b03168152602090f35b5f80fd5b34610081575f366003190112610081576040517f00000000000000000000000000000000000000000000000000000000000000006001600160a01b03168152602090f35b346100815761010036600319011261008157610100810181811067ffffffffffffffff82111761028d576040526004356001600160a01b0381169190828103610081578152602435906001600160a01b038216820361008157602081019182526044356001600160a01b038116810361008157604082015260643560608201526084356001600160801b038116810361008157608082015260a4356001600160801b03811681036100815760a082015260c43561ffff811681036100815760c082015260e435928315158403610081576101c36101b36101c99260ff9660e06101d1960152610305565b93516001600160a01b0316610305565b92610428565b929093610428565b95166012019160ff8311610279576101f86101f2916101f26101fe956102c3565b906102d4565b946102c3565b91821561026a57604092610211916102e7565b928082101561026357505b81519060208201938452828201528181526102386060826102a1565b8151928391602083525180918160208501528484015e5f828201840152601f01601f19168101030190f35b905061021c565b6391abc57360e01b5f5260045ffd5b634e487b7160e01b5f52601160045260245ffd5b634e487b7160e01b5f52604160045260245ffd5b90601f8019910116810190811067ffffffffffffffff82111761028d57604052565b60ff16604d811161027957600a0a90565b8181029291811591840414171561027957565b81156102f1570490565b634e487b7160e01b5f52601260045260245ffd5b6040516352d41c9960e11b81526001600160a01b038281166004830152602090829060249082907f0000000000000000000000000000000000000000000000000000000000000000165afa9081156103b8575f91610376575b506001600160a01b038116610371575090565b905090565b90506020813d6020116103b0575b81610391602093836102a1565b8101031261008157516001600160a01b0381168103610081575f61035e565b3d9150610384565b6040513d5f823e3d90fd5b519069ffffffffffffffffffff8216820361008157565b908160a0910312610081576103ee816103c3565b9160208201519160408101519161040c6080606084015193016103c3565b90565b90816020910312610081575160ff811681036100815790565b60405163bcfd032d60e01b81526001600160a01b038281166004830152610348602483015291927f0000000000000000000000000000000000000000000000000000000000000000909216919060a081604481865afa90815f915f93610643575b506105c357505060405163bcfd032d60e01b815261034860048201526001600160a01b038416602482015260a081604481865afa92835f925f95610589575b506104dc57636b438a4d60e01b5f5260045ffd5b5f82131561057a57604051630b1c5a7560e31b815261034860048201526001600160a01b03959095166024860152602090859060449082905afa9384156103b8575f94610545575b506105409061053b610535866102c3565b806102d4565b6102e7565b929190565b61054091945061056c9060203d602011610573575b61056481836102a1565b81019061040f565b9390610524565b503d61055a565b63c27f0bfb60e01b5f5260045ffd5b9094506105af91925060a03d60a0116105bc575b6105a781836102a1565b8101906103da565b509392505091935f6104c8565b503d61059d565b90925f82131561063457604051630b1c5a7560e31b81526001600160a01b039590951660048601526103486024860152602090859060449082905afa9384156103b8575f94610613575b50929190565b61062d91945060203d6020116105735761056481836102a1565b925f61060d565b63f51add8f60e01b5f5260045ffd5b90925061065f915060a03d60a0116105bc576105a781836102a1565b5092505090915f61048956fea2646970667358221220829f4a60f5fb22994701e3daed9a97360ff86ac3878f50b068b968933a2a7de764736f6c634300081e0033",
  "linkReferences": {},
  "deployedLinkReferences": {}
}