{
  "_format": "hh-sol-artifact-1",
  "contractName": "SimpleQuoter",
  "sourceName": "contracts/quoters/SimpleQuoter.sol",
  "abi": [
    {
      "inputs": [
        {
          "components": [
            {
              "internalType": "address",
              "name": "asset0",
              "type": "address"
            },
            {
              "internalType": "address",
              "name": "asset1",
              "type": "address"
            },
            {
              "internalType": "address",
              "name": "quoter",
              "type": "address"
            },
            {
              "internalType": "uint256",
              "name": "amount",
              "type": "uint256"
            },
            {
              "internalType": "uint128",
              "name": "asset0Balance",
              "type": "uint128"
            },
            {
              "internalType": "uint128",
              "name": "asset1Balance",
              "type": "uint128"
            },
            {
              "internalType": "uint16",
              "name": "bucketID",
              "type": "uint16"
            },
            {
              "internalType": "bool",
              "name": "zeroForOne",
              "type": "bool"
            }
          ],
          "internalType": "struct QuoteParams",
          "name": "params",
          "type": "tuple"
        }
      ],
      "name": "quote",
      "outputs": [
        {
          "internalType": "uint256",
          "name": "quote",
          "type": "uint256"
        }
      ],
      "stateMutability": "pure",
      "type": "function"
    },
    {
      "inputs": [
        {
          "components": [
            {
              "internalType": "address",
              "name": "asset0",
              "type": "address"
            },
            {
              "internalType": "address",
              "name": "asset1",
              "type": "address"
            },
            {
              "internalType": "address",
              "name": "quoter",
              "type": "address"
            },
            {
              "internalType": "uint256[]",
              "name": "amount",
              "type": "uint256[]"
            },
            {
              "internalType": "uint128[]",
              "name": "asset0Balances",
              "type": "uint128[]"
            },
            {
              "internalType": "uint128[]",
              "name": "asset1Balances",
              "type": "uint128[]"
            },
            {
              "internalType": "uint16[]",
              "name": "bucketID",
              "type": "uint16[]"
            },
            {
              "internalType": "bool",
              "name": "zeroForOne",
              "type": "bool"
            }
          ],
          "internalType": "struct QuoteParamsBatch",
          "name": "params",
          "type": "tuple"
        }
      ],
      "name": "quoteBatch",
      "outputs": [
        {
          "internalType": "uint256[]",
          "name": "quotes",
          "type": "uint256[]"
        }
      ],
      "stateMutability": "pure",
      "type": "function"
    }
  ],
  "bytecode": "0x60808060405234601557610645908161001a8239f35b5f80fdfe60806040526004361015610011575f80fd5b5f3560e01c8063517b318c1461018a5763583c12f41461002f575f80fd5b3461018657610100366003190112610186576100496104be565b6004356001600160a01b03811681036101865781526024356001600160a01b03811681036101865760208201526044356001600160a01b03811681036101865760408201526064356060820191818352608435916001600160801b03831690818403610186576080830193845260a435926001600160801b03841684036101865760a0810193845260c43561ffff811681036101865760c082015260e435801515918282036101865760e0015215610165575050826001600160801b0361011c610127938261012d9751915116906105d1565b9351169051906105e4565b906105f1565b6103e58102908082046103e51490151715610151576020906103e860405191048152f35b634e487b7160e01b5f52601160045260245ffd5b61012792935061011c61018195926001600160801b03926105d1565b61012d565b5f80fd5b346101865760203660031901126101865760043567ffffffffffffffff8111610186576101006003198236030112610186576101c46104be565b6101d082600401610519565b81526101de60248301610519565b60208201526101ef60448301610519565b6040820152606482013567ffffffffffffffff8111610186578201366023820112156101865760048101359061022c6102278361052d565b6104f3565b91602060048185848152019260051b840101019136831161018657602401905b8282106104ae5750505060608201908152608483013567ffffffffffffffff8111610186576102819060043691860101610545565b6080830190815260a484013567ffffffffffffffff8111610186576102ac9060043691870101610545565b9360a0840194855260c481013567ffffffffffffffff8111610186578101366023820112156101865760048101356102e66102278261052d565b91602060048185858152019360051b830101019036821161018657602401915b8183106104935750505060c085015260e401359283151584036101865760e0019283528151519361034561033c6102278761052d565b9580875261052d565b6020860190601f19013682375f5b8451805182101561044f578651829015610405576103c0915061037a6103969188516105a9565b516001600160801b0361038e8588516105a9565b5116906105d1565b6101276001600160801b036103ac8589516105a9565b51166103b9858a516105a9565b51906105e4565b6103ca82896105a9565b525b6103d681886105a9565b51906103e58202918083046103e51490151715610151576103e8600192046103fe828a6105a9565b5201610353565b6104156104299161043f936105a9565b516001600160801b0361038e8589516105a9565b6101276001600160801b036103ac8588516105a9565b61044982896105a9565b526103cc565b8288604051918291602083019060208452518091526040830191905f5b81811061047a575050500390f35b825184528594506020938401939092019160010161046c565b823561ffff8116810361018657815260209283019201610306565b813581526020918201910161024c565b60405190610100820182811067ffffffffffffffff8211176104df57604052565b634e487b7160e01b5f52604160045260245ffd5b6040519190601f01601f1916820167ffffffffffffffff8111838210176104df57604052565b35906001600160a01b038216820361018657565b67ffffffffffffffff81116104df5760051b60200190565b9080601f83011215610186578135906105606102278361052d565b9260208085858152019360051b82010191821161018657602001915b8183106105895750505090565b82356001600160801b03811681036101865781526020928301920161057c565b80518210156105bd5760209160051b010190565b634e487b7160e01b5f52603260045260245ffd5b8181029291811591840414171561015157565b9190820180921161015157565b81156105fb570490565b634e487b7160e01b5f52601260045260245ffdfea2646970667358221220bab55868cbb5da3be4b2fbc632a38894b99ff01923b178e89b9adc6ad9758ecf64736f6c634300081e0033",
  "linkReferences": {},
  "deployedLinkReferences": {}
}