{
  "_format": "hh-sol-artifact-1",
  "contractName": "FlashSwapTwiceCallback",
  "sourceName": "contracts/Peripheral/flash_test/FlashSwapTwiceCallback.sol",
  "abi": [
    {
      "inputs": [
        {
          "internalType": "bytes",
          "name": "data",
          "type": "bytes"
        }
      ],
      "name": "flashCallback",
      "outputs": [],
      "stateMutability": "nonpayable",
      "type": "function"
    }
  ],
  "bytecode": "0x60808060405234601557610290908161001a8239f35b5f80fdfe6080806040526004361015610012575f80fd5b5f3560e01c63e373923814610025575f80fd5b346101ac5760203660031901126101ac5760043567ffffffffffffffff81116101ac57366023820112156101ac57806004013567ffffffffffffffff81116101ac5781013660248201116101ac5760e090829003126101ac5761008a602482016101b8565b610096604483016101b8565b6100a2606484016101b8565b6100ae608485016101b8565b9260a4850135906001600160e81b0319821682036101ac5763364af21360e21b87526001600160a01b039485169692851694908116931691602081806100ff60c48a0135868c8b8a60048701610211565b03815f885af1801561017657610181575b5060209461013c60e4935f93604051998a988997889663364af21360e21b885201359360048701610211565b03925af180156101765761014c57005b61016d9060203d60201161016f575b61016581836101cc565b810190610202565b005b503d61015b565b6040513d5f823e3d90fd5b946020863d6020116101b0575b8161019b602093836101cc565b810103126101ac5794506020610110565b5f80fd5b3d915061018e565b35906001600160a01b03821682036101ac57565b90601f8019910116810190811067ffffffffffffffff8211176101ee57604052565b634e487b7160e01b5f52604160045260245ffd5b908160209103126101ac575190565b6001600160a01b039182168152918116602083015290911660408201526001600160e81b031990911660608201526080810191909152600160a08201525f60c082015260e0019056fea2646970667358221220ec8cae617519897827c9aef576a25c3799828da6ae9744bb5f4933b625cdcdba64736f6c634300081e0033",
  "linkReferences": {},
  "deployedLinkReferences": {}
}