{
  "_format": "hh-sol-artifact-1",
  "contractName": "MockStoixDataBridge",
  "sourceName": "contracts/Peripheral/DataBridges/dummy/MockStoixDataBridge.sol",
  "abi": [
    {
      "inputs": [
        {
          "components": [
            {
              "internalType": "address",
              "name": "asset0",
              "type": "address"
            },
            {
              "internalType": "address",
              "name": "asset1",
              "type": "address"
            },
            {
              "internalType": "address",
              "name": "quoter",
              "type": "address"
            },
            {
              "internalType": "uint256",
              "name": "amount",
              "type": "uint256"
            },
            {
              "internalType": "uint128",
              "name": "asset0Balance",
              "type": "uint128"
            },
            {
              "internalType": "uint128",
              "name": "asset1Balance",
              "type": "uint128"
            },
            {
              "internalType": "uint16",
              "name": "bucketID",
              "type": "uint16"
            },
            {
              "internalType": "bool",
              "name": "zeroForOne",
              "type": "bool"
            },
            {
              "internalType": "uint8",
              "name": "functionFlags",
              "type": "uint8"
            }
          ],
          "internalType": "struct QuoteParams",
          "name": "params",
          "type": "tuple"
        }
      ],
      "name": "getData",
      "outputs": [
        {
          "internalType": "bytes",
          "name": "",
          "type": "bytes"
        }
      ],
      "stateMutability": "view",
      "type": "function"
    }
  ],
  "bytecode": "0x608080604052346015576102f7908161001a8239f35b5f80fdfe6080806040526004361015610012575f80fd5b5f3560e01c63406304ea14610025575f80fd5b346102bd576101203660031901126102bd57610120810181811067ffffffffffffffff821117610201576040526004356001600160a01b03811681036102bd5781526024356001600160a01b03811681036102bd5760208201526044356001600160a01b03811681036102bd57604082015260643560608201526084356001600160801b03811681036102bd57608082015260a4356001600160801b03811681036102bd5760a082015260c43561ffff811681036102bd5760c082015260e43580151581036102bd5760e0820152610104359060ff821682036102bd57610100829101525f905f905f5f5f5f915f935f95600181166102a7575b6002811661028f575b60048116610277575b60188116610233575b60208116610224575b604016610215575b60405196602088019860ff1689526001600160801b031660408801526001600160801b031660608701526001600160801b031660808601526001600160801b031660a085015267ffffffffffffffff1660c084015261ffff1660e083015261ffff16610100820152610100815261012081019080821067ffffffffffffffff8311176102015760409182528151928391602083525180918160208501528484015e5f828201840152601f01601f19168101030190f35b634e487b7160e01b5f52604160045260245ffd5b9450956040179560c89461014b565b60209098179760509550610143565b6910b8000000000000000060088216610269575b50601081161561013a579350966010179667ffffffffffffffff42169361013a565b60089099179893505f610247565b9150966004179669109a000000000000000091610131565b976002915017966910cc000000000000000090610128565b600198506910680000000000000000975061011f565b5f80fdfea2646970667358221220b7f9b80abaa1f2564a8a8527980cf94728d3683a85c54a05f78c941b55fffc6b64736f6c634300081e0033",
  "linkReferences": {},
  "deployedLinkReferences": {}
}