{
  "_format": "hh-sol-artifact-1",
  "contractName": "StoixDataBridge",
  "sourceName": "contracts/Peripheral/DataBridges/real/StoixDataBridge.sol",
  "abi": [
    {
      "inputs": [
        {
          "internalType": "address",
          "name": "_uniV2Factory",
          "type": "address"
        },
        {
          "internalType": "address",
          "name": "_uniV3Factory",
          "type": "address"
        },
        {
          "internalType": "address",
          "name": "_chainlinkFeed",
          "type": "address"
        },
        {
          "internalType": "address",
          "name": "_token0",
          "type": "address"
        },
        {
          "internalType": "address",
          "name": "_token1",
          "type": "address"
        }
      ],
      "stateMutability": "nonpayable",
      "type": "constructor"
    },
    {
      "inputs": [],
      "name": "chainlinkFeed",
      "outputs": [
        {
          "internalType": "address",
          "name": "",
          "type": "address"
        }
      ],
      "stateMutability": "view",
      "type": "function"
    },
    {
      "inputs": [
        {
          "components": [
            {
              "internalType": "address",
              "name": "asset0",
              "type": "address"
            },
            {
              "internalType": "address",
              "name": "asset1",
              "type": "address"
            },
            {
              "internalType": "address",
              "name": "quoter",
              "type": "address"
            },
            {
              "internalType": "uint256",
              "name": "amount",
              "type": "uint256"
            },
            {
              "internalType": "uint128",
              "name": "asset0Balance",
              "type": "uint128"
            },
            {
              "internalType": "uint128",
              "name": "asset1Balance",
              "type": "uint128"
            },
            {
              "internalType": "uint16",
              "name": "bucketID",
              "type": "uint16"
            },
            {
              "internalType": "bool",
              "name": "zeroForOne",
              "type": "bool"
            },
            {
              "internalType": "uint8",
              "name": "functionFlags",
              "type": "uint8"
            }
          ],
          "internalType": "struct QuoteParams",
          "name": "params",
          "type": "tuple"
        }
      ],
      "name": "getData",
      "outputs": [
        {
          "internalType": "bytes",
          "name": "",
          "type": "bytes"
        }
      ],
      "stateMutability": "nonpayable",
      "type": "function"
    },
    {
      "inputs": [],
      "name": "token0",
      "outputs": [
        {
          "internalType": "address",
          "name": "",
          "type": "address"
        }
      ],
      "stateMutability": "view",
      "type": "function"
    },
    {
      "inputs": [],
      "name": "token1",
      "outputs": [
        {
          "internalType": "address",
          "name": "",
          "type": "address"
        }
      ],
      "stateMutability": "view",
      "type": "function"
    },
    {
      "inputs": [],
      "name": "uniV2Factory",
      "outputs": [
        {
          "internalType": "address",
          "name": "",
          "type": "address"
        }
      ],
      "stateMutability": "view",
      "type": "function"
    },
    {
      "inputs": [],
      "name": "uniV3Factory",
      "outputs": [
        {
          "internalType": "address",
          "name": "",
          "type": "address"
        }
      ],
      "stateMutability": "view",
      "type": "function"
    }
  ],
  "bytecode": "0x6101203461012157601f611c0038819003918201601f19168301916001600160401b038311848410176101255780849260a0946040528339810103126101215761004881610139565b9061005560208201610139565b61006160408301610139565b9061007a608061007360608601610139565b9401610139565b60809490945260a05260c0526001600160a01b0380831690821610156101145760e052610100525b604051611ab2908161014e82396080518181816105ae015261061c015260a05181818160ff015281816103340152818161039501528181610464015281816104c20152818161050b0152610568015260c05181818160bb01526103d9015260e0518161065d0152610100518160730152f35b9060e052610100526100a2565b5f80fd5b634e487b7160e01b5f52604160045260245ffd5b51906001600160a01b03821682036101215756fe6080806040526004361015610012575f80fd5b5f3560e01c9081630dfe16811461064b575080633da04b8714610607578063406304ea1461012e578063705e474b146100ea5780637dbdf1f5146100a65763d21220a71461005e575f80fd5b346100a2575f3660031901126100a2576040517f00000000000000000000000000000000000000000000000000000000000000006001600160a01b03168152602090f35b5f80fd5b346100a2575f3660031901126100a2576040517f00000000000000000000000000000000000000000000000000000000000000006001600160a01b03168152602090f35b346100a2575f3660031901126100a2576040517f00000000000000000000000000000000000000000000000000000000000000006001600160a01b03168152602090f35b346100a2576101203660031901126100a257604051610120810181811067ffffffffffffffff8211176105f3576040526004356001600160a01b038116908181036100a2578252602435906001600160a01b0382168083036100a257602084019283526044356001600160a01b03811681036100a257604085015260643560608501526084356001600160801b03811681036100a257608085015260a4356001600160801b03811681036100a25760a085015260c43561ffff811681036100a25760c085015260e43593841515908186036100a25760e08101958652610104359060ff821682036100a257816101008201525f965f965f915f935f955f975f995f9b600184166105a6575b50505060028116610549575b60048116610433575b601881166103d0575b60208116610376575b604016610316575b50505060405196602088019860ff1689526001600160801b031660408801526001600160801b031660608701526001600160801b031660808601526001600160801b031660a085015267ffffffffffffffff1660c084015261ffff1660e083015261ffff1661010082015261010081526102e46101208261068c565b60405191829160208352518091816020850152604084015e8082016040015f9052601f1990601f011681010360400190f35b5191519051929750610358921515916001600160a01b0391821691167f00000000000000000000000000000000000000000000000000000000000000006112e2565b509461ffff861661036c575b888080610268565b9660401796610364565b815184518451929a506103b9921515916001600160a01b0391821691167f00000000000000000000000000000000000000000000000000000000000000006116b8565b509761ffff891615610260576020909b179a610260565b6103fd835115157f0000000000000000000000000000000000000000000000000000000000000000611024565b9060088316610425575b5060108216610417575b50610257565b6010909c179b97508c610411565b6008909d179c97508d610407565b945060608516156104ee5760208516156104a55780518351835161048892901515916001600160a01b0390811691167f00000000000000000000000000000000000000000000000000000000000000006116b8565b9050945b6001600160801b0386161561024e579a6004179a61024e565b8051835183516104e692901515916001600160a01b0390811691167f00000000000000000000000000000000000000000000000000000000000000006112e2565b90509461048c565b80518351835161052f92901515916001600160a01b0390811691167f0000000000000000000000000000000000000000000000000000000000000000610e57565b946001600160801b0386161561024e579a6004179a61024e565b81518451845192965061058c921515916001600160a01b0391821691167f0000000000000000000000000000000000000000000000000000000000000000610aa1565b936001600160801b03851615610245579a6002179a610245565b6105d2939d507f0000000000000000000000000000000000000000000000000000000000000000610726565b996001600160801b038b166105ea575b8c8080610239565b60019b506105e2565b634e487b7160e01b5f52604160045260245ffd5b346100a2575f3660031901126100a2576040517f00000000000000000000000000000000000000000000000000000000000000006001600160a01b03168152602090f35b346100a2575f3660031901126100a2577f00000000000000000000000000000000000000000000000000000000000000006001600160a01b03168152602090f35b90601f8019910116810190811067ffffffffffffffff8211176105f357604052565b908160209103126100a257516001600160a01b03811681036100a25790565b51906001600160701b03821682036100a257565b818102929181159184041417156106f457565b634e487b7160e01b5f52601160045260245ffd5b8115610712570490565b634e487b7160e01b5f52601260045260245ffd5b60405163e6a4390560e01b81526001600160a01b039283166004820181905293831660248201529293929160209183916044918391165afa908115610988575f916109e8575b506001600160a01b03169081156109e157604051630dfe168160e01b815292602084600481865afa938415610988575f946109c0575b5060405163d21220a760e01b815292602084600481845afa90811561098857600494606092610993575b50604051630240bc6b60e21b815294859182905afa928315610988575f905f94610929575b506001600160701b031693841592838015610918575b61090e5715610893576001600160a01b03160361085e57506001600160701b0316670de0b6b3a7640000810290808204670de0b6b3a764000014901517156106f45761085b9161085691610708565b611197565b90565b670de0b6b3a76400008302928304670de0b6b3a76400001417156106f45761085b916001600160701b03610856921690610708565b6001600160a01b0316036108d657670de0b6b3a76400008302928304670de0b6b3a76400001417156106f45761085b916001600160701b03610856921690610708565b506001600160701b0316670de0b6b3a7640000810290808204670de0b6b3a764000014901517156106f45761085b9161085691610708565b5050505050505f90565b506001600160701b03851615610807565b9350506060833d606011610980575b816109456060938361068c565b810103126100a257610956836106cd565b6040610964602086016106cd565b94015163ffffffff8116036100a2576001600160701b036107f1565b3d9150610938565b6040513d5f823e3d90fd5b6109b49060203d6020116109b9575b6109ac818361068c565b8101906106ae565b6107cc565b503d6109a2565b6109da91945060203d6020116109b9576109ac818361068c565b925f6107a2565b5050505f90565b610a01915060203d6020116109b9576109ac818361068c565b5f61076c565b51906001600160a01b03821682036100a257565b519061ffff821682036100a257565b519060ff821682036100a257565b908160e09103126100a257610a4c81610a07565b9160208201518060020b81036100a25791610a6960408201610a1b565b91610a7660608301610a1b565b91610a8360808201610a1b565b9160c0610a9260a08401610a2a565b92015180151581036100a25790565b604051630b4c774160e11b81526001600160a01b0380841660048301529384166024820152610bb86044820152919260209183916064918391165afa908115610988575f91610c52575b506001600160a01b031680156109e157604051633850c7bd60e01b815260e081600481855afa908115610988575f91610c1d575b506001600160a01b03168015610c1557602060049260405193848092630dfe168160e01b82525afa918215610988575f92610bf4575b50633b9aca008102908104633b9aca00036106f457610b779060601c806106e1565b670de0b6b3a7640000810290808204670de0b6b3a764000014901517156106f45760601c9215610bd9576001600160a01b03908116911603610bbd575b61085b90611197565b8015610712576ec097ce7bc90715b34b9f100000000004610bb4565b6001600160a01b03918216911614610bbd5761085b90611197565b610c0e91925060203d6020116109b9576109ac818361068c565b905f610b55565b505050505f90565b610c3f915060e03d60e011610c4b575b610c37818361068c565b810190610a38565b5050505050505f610b1f565b503d610c2d565b610c6b915060203d6020116109b9576109ac818361068c565b5f610aeb565b67ffffffffffffffff81116105f35760051b60200190565b805115610c965760200190565b634e487b7160e01b5f52603260045260245ffd5b805160011015610c965760400190565b8051821015610c965760209160051b010190565b91906040838203126100a257825167ffffffffffffffff81116100a257830181601f820112156100a2578051610d0381610c71565b91610d11604051938461068c565b81835260208084019260051b820101908482116100a257602001915b818310610db3575050509260208101519067ffffffffffffffff82116100a257019080601f830112156100a2578151610d6581610c71565b92610d73604051948561068c565b81845260208085019260051b8201019283116100a257602001905b828210610d9b5750505090565b60208091610da884610a07565b815201910190610d8e565b82518060060b81036100a257815260209283019201610d2d565b60206040818301928281528451809452019201905f5b818110610df05750505090565b825163ffffffff16845260209384019390920191600101610de3565b600691820b910b0390667fffffffffffff198212667fffffffffffff8313176106f457565b60060b9060060b90811561071257667fffffffffffff1981145f198314166106f4570590565b604051630b4c774160e11b81526001600160a01b0380841660048301529384166024820152610bb86044820152919260209183916064918391165afa908115610988575f91610fdd575b506001600160a01b03169182156109e157610f03905f604051610ec560608261068c565b600281526040366020830137610384610edd82610c89565b5281610ee882610caa565b526040518094819263883bdbfd60e01b835260048301610dcd565b0381875afa91821561098857610f56610f4e610384610f496004966020955f91610fba575b50610f3f610f3582610caa565b5160060b91610c89565b5160060b90610e0c565b610e31565b60020b61127c565b9460405193848092630dfe168160e01b82525afa918215610988575f92610f99575b5015610bd9576001600160a01b03908116911603610bbd5761085b90611197565b610fb391925060203d6020116109b9576109ac818361068c565b905f610f78565b610fd691503d805f833e610fce818361068c565b810190610cce565b505f610f28565b610ff6915060203d6020116109b9576109ac818361068c565b5f610ea1565b519069ffffffffffffffffffff821682036100a257565b60ff16604d81116106f457600a0a90565b604051633fabe5a360e21b81526001600160a01b0390911692919060a081600481875afa938415610988575f915f9561112e575b505f82131561112357906020600493926040519485809263313ce56760e01b82525afa928315610988575f936110e7575b508091156110ab575b5067ffffffffffffffff916110a6916111d0565b921690565b90508160011b916101fe60fe8416931683036106f4576110df6110a6926110da67ffffffffffffffff95611013565b610708565b915091611092565b9092506020813d60201161111b575b816111036020938361068c565b810103126100a25761111490610a2a565b915f611089565b3d91506110f6565b50505090505f905f90565b9150935060a0813d60a01161117c575b8161114b60a0938361068c565b810103126100a25761115c81610ffc565b506020810151611173608060608401519301610ffc565b5090935f611058565b3d915061113e565b60ff6011199116019060ff82116106f457565b80156111cb575f906111c3670de0b6b3a7640000916111bd6001600160801b0394611013565b90610708565b60401b041690565b505f90565b9081156112415760ff81166012811061120a57506111c36001600160801b03926111bd611205670de0b6b3a764000094611184565b611013565b90506012039060ff82116106f45761123c670de0b6b3a7640000916112366001600160801b0394611013565b906106e1565b6111c3565b50505f90565b811561071257600160ff1b81145f198314166106f4570590565b9190915f83820193841291129080158216911516176106f457565b60020b80156112c857655af3107a40008102908105655af3107a4000036106f457612710900580670de0b6b3a7640000019081126001166106f4575f8113156112c25790565b50600190565b50670de0b6b3a764000090565b919082018092116106f457565b604051630b4c774160e11b81526001600160a01b0380841660048301529384166024820152610bb86044820152919260209183916064918391165afa908115610988575f91611699575b506001600160a01b0316801561169057604051633850c7bd60e01b81526014919060e081600481855afa90811561098857839161ffff915f9161166a575b5016106116605761137a82610c71565b92611388604051948561068c565b828452601f1961139784610c71565b013660208601375f1960ff8416019460ff86116106f45760ff8616948515610712575f9463ffffffff87620151800416955b81811061163c575050905f6113f5959493926040518097819263883bdbfd60e01b835260048301610dcd565b0381865afa948515610988575f9561161c575b506004906020611438610f4e61142d6114208a610c89565b5160060b610f3f8b610caa565b9760030b8098610e31565b9460405193848092630dfe168160e01b82525afa918215610988575f926115fb575b50156115de576001600160a01b039081169116036115c2575b61147e60ff91611197565b94116106f45761148d83610c71565b9161149b604051938461068c565b838352601f196114aa85610c71565b013660208501375f5b848110611580575050505f825f915b81831061155a576114d39250611247565b60020b5f915f915b84831061150f575050506114f7916114f291610708565b611a3b565b61ffff811115611508575061ffff91565b61ffff1691565b9091928161151d8585610cba565b5160020b03627fffff198112627fffff8213176106f45760020b8002908160020b9182036106f457600191611551916112d5565b930191906114db565b600191506115769061156c8486610cba565b5160020b90611261565b91019083906114c2565b61158a8183610cba565b5160060b90600181018082116106f45784610f49600194610f3f6115ae9488610cba565b60020b6115bb8287610cba565b52016114b3565b8015610712576ec097ce7bc90715b34b9f100000000004611473565b6001600160a01b039182169116146115c25761147e60ff91611197565b61161591925060203d6020116109b9576109ac818361068c565b905f61145a565b6004919550611634903d805f833e610fce818361068c565b509490611408565b8063ffffffff61164e896001946106e1565b166116598286610cba565b52016113c9565b505050505f905f90565b611683915060e03d60e011610c4b57610c37818361068c565b505050925050505f61136a565b5050505f905f90565b6116b2915060203d6020116109b9576109ac818361068c565b5f61132c565b604051630b4c774160e11b81526001600160a01b0380841660048301529384166024820152610bb86044820152919260209183916064918391165afa908115610988575f91611a1c575b506001600160a01b0316801561169057604051633850c7bd60e01b8152600a919060e081600481855afa90811561098857839161ffff915f916119f6575b5016106116605761175082610c71565b9261175e604051948561068c565b828452601f1961176d84610c71565b013660208601375f1960ff8416019460ff86116106f45760ff8616948515610712575f9463ffffffff876103840416955b8181106119d2575050905f6117ca959493926040518097819263883bdbfd60e01b835260048301610dcd565b0381865afa948515610988575f956119b2575b5060049060206117f5610f4e61142d6114208a610c89565b9460405193848092630dfe168160e01b82525afa918215610988575f92611991575b5015611974576001600160a01b03908116911603611958575b61183b60ff91611197565b94116106f45761184a83610c71565b91611858604051938461068c565b838352601f1961186785610c71565b013660208501375f5b848110611916575050505f825f915b8183106118fa576118909250611247565b60020b5f915f915b8483106118af575050506114f7916114f291610708565b909192816118bd8585610cba565b5160020b03627fffff198112627fffff8213176106f45760020b8002908160020b9182036106f4576001916118f1916112d5565b93019190611898565b6001915061190c9061156c8486610cba565b910190839061187f565b6119208183610cba565b5160060b90600181018082116106f45784610f49600194610f3f6119449488610cba565b60020b6119518287610cba565b5201611870565b8015610712576ec097ce7bc90715b34b9f100000000004611830565b6001600160a01b039182169116146119585761183b60ff91611197565b6119ab91925060203d6020116109b9576109ac818361068c565b905f611817565b60049195506119ca903d805f833e610fce818361068c565b5094906117dd565b8063ffffffff6119e4896001946106e1565b166119ef8286610cba565b520161179e565b611a0f915060e03d60e011610c4b57610c37818361068c565b505050925050505f611740565b611a35915060203d6020116109b9576109ac818361068c565b5f611702565b80156111cb57600181018082116106f45760011c815b828210611a5d57505090565b909150611a7382611a6e8184610708565b6112d5565b60011c90611a5156fea26469706673582212203b8527c178f839909a0efd004930cad9f478c0918a8d06580a67a99289e939dd64736f6c634300081e0033",
  "linkReferences": {},
  "deployedLinkReferences": {}
}