{
  "_format": "hh-sol-artifact-1",
  "contractName": "StoixDataBridge",
  "sourceName": "contracts/Peripheral/DataBridges/real/StoixDataBridge.sol",
  "abi": [
    {
      "inputs": [
        {
          "internalType": "address",
          "name": "_uniV2Factory",
          "type": "address"
        },
        {
          "internalType": "address",
          "name": "_uniV3Factory",
          "type": "address"
        },
        {
          "internalType": "address",
          "name": "_chainlinkFeed",
          "type": "address"
        },
        {
          "internalType": "address",
          "name": "_token0",
          "type": "address"
        },
        {
          "internalType": "address",
          "name": "_token1",
          "type": "address"
        }
      ],
      "stateMutability": "nonpayable",
      "type": "constructor"
    },
    {
      "inputs": [],
      "name": "chainlinkFeed",
      "outputs": [
        {
          "internalType": "address",
          "name": "",
          "type": "address"
        }
      ],
      "stateMutability": "view",
      "type": "function"
    },
    {
      "inputs": [
        {
          "components": [
            {
              "internalType": "address",
              "name": "asset0",
              "type": "address"
            },
            {
              "internalType": "address",
              "name": "asset1",
              "type": "address"
            },
            {
              "internalType": "address",
              "name": "quoter",
              "type": "address"
            },
            {
              "internalType": "uint256",
              "name": "amount",
              "type": "uint256"
            },
            {
              "internalType": "uint128",
              "name": "asset0Balance",
              "type": "uint128"
            },
            {
              "internalType": "uint128",
              "name": "asset1Balance",
              "type": "uint128"
            },
            {
              "internalType": "uint16",
              "name": "bucketID",
              "type": "uint16"
            },
            {
              "internalType": "bool",
              "name": "zeroForOne",
              "type": "bool"
            },
            {
              "internalType": "uint8",
              "name": "functionFlags",
              "type": "uint8"
            }
          ],
          "internalType": "struct QuoteParams",
          "name": "params",
          "type": "tuple"
        }
      ],
      "name": "getData",
      "outputs": [
        {
          "internalType": "bytes",
          "name": "",
          "type": "bytes"
        }
      ],
      "stateMutability": "view",
      "type": "function"
    },
    {
      "inputs": [],
      "name": "token0",
      "outputs": [
        {
          "internalType": "address",
          "name": "",
          "type": "address"
        }
      ],
      "stateMutability": "view",
      "type": "function"
    },
    {
      "inputs": [],
      "name": "token1",
      "outputs": [
        {
          "internalType": "address",
          "name": "",
          "type": "address"
        }
      ],
      "stateMutability": "view",
      "type": "function"
    },
    {
      "inputs": [],
      "name": "uniV2Factory",
      "outputs": [
        {
          "internalType": "address",
          "name": "",
          "type": "address"
        }
      ],
      "stateMutability": "view",
      "type": "function"
    },
    {
      "inputs": [],
      "name": "uniV3Factory",
      "outputs": [
        {
          "internalType": "address",
          "name": "",
          "type": "address"
        }
      ],
      "stateMutability": "view",
      "type": "function"
    }
  ],
  "bytecode": "0x6101203461012157601f611c1938819003918201601f19168301916001600160401b038311848410176101255780849260a0946040528339810103126101215761004881610139565b9061005560208201610139565b61006160408301610139565b9061007a608061007360608601610139565b9401610139565b60809490945260a05260c0526001600160a01b0380831690821610156101145760e052610100525b604051611acb908161014e82396080518181816105bc0152610635015260a05181818160ff01528181610342015281816103a301528181610472015281816104d0015281816105190152610576015260c05181818160bb01526103e7015260e051816106760152610100518160730152f35b9060e052610100526100a2565b5f80fd5b634e487b7160e01b5f52604160045260245ffd5b51906001600160a01b03821682036101215756fe6080806040526004361015610012575f80fd5b5f3560e01c9081630dfe168114610664575080633da04b8714610620578063406304ea1461012e578063705e474b146100ea5780637dbdf1f5146100a65763d21220a71461005e575f80fd5b346100a2575f3660031901126100a2576040517f00000000000000000000000000000000000000000000000000000000000000006001600160a01b03168152602090f35b5f80fd5b346100a2575f3660031901126100a2576040517f00000000000000000000000000000000000000000000000000000000000000006001600160a01b03168152602090f35b346100a2575f3660031901126100a2576040517f00000000000000000000000000000000000000000000000000000000000000006001600160a01b03168152602090f35b346100a2576101203660031901126100a257604051610120810181811067ffffffffffffffff82111761060c576040526004356001600160a01b038116908181036100a2578252602435906001600160a01b0382168083036100a257602084019283526044356001600160a01b03811681036100a257604085015260643560608501526084356001600160801b03811681036100a257608085015260a4356001600160801b03811681036100a25760a085015260c4359361ffff851685036100a2578460c082015260e43594851515918287036100a25760e081019687526101043560ff81168082036100a25761018090826101008501529316610601575b505f965f965f915f935f955f975f995f9b600184166105b4575b50505060028116610557575b60048116610441575b601881166103de575b60208116610384575b604016610324575b50505060405196602088019860ff1689526001600160801b031660408801526001600160801b031660608701526001600160801b031660808601526001600160801b031660a085015267ffffffffffffffff1660c084015261ffff1660e083015261ffff1661010082015261010081526102f2610120826106a5565b60405191829160208352518091816020850152604084015e8082016040015f9052601f1990601f011681010360400190f35b5191519051929750610366921515916001600160a01b0391821691167f00000000000000000000000000000000000000000000000000000000000000006112fb565b509461ffff861661037a575b888080610276565b9660401796610372565b815184518451929a506103c7921515916001600160a01b0391821691167f00000000000000000000000000000000000000000000000000000000000000006116d1565b509761ffff89161561026e576020909b179a61026e565b61040b835115157f000000000000000000000000000000000000000000000000000000000000000061103d565b9060088316610433575b5060108216610425575b50610265565b6010909c179b97508c61041f565b6008909d179c97508d610415565b945060608516156104fc5760208516156104b35780518351835161049692901515916001600160a01b0390811691167f00000000000000000000000000000000000000000000000000000000000000006116d1565b9050945b6001600160801b0386161561025c579a6004179a61025c565b8051835183516104f492901515916001600160a01b0390811691167f00000000000000000000000000000000000000000000000000000000000000006112fb565b90509461049a565b80518351835161053d92901515916001600160a01b0390811691167f0000000000000000000000000000000000000000000000000000000000000000610e70565b946001600160801b0386161561025c579a6004179a61025c565b81518451845192965061059a921515916001600160a01b0391821691167f0000000000000000000000000000000000000000000000000000000000000000610aba565b936001600160801b03851615610253579a6002179a610253565b6105e0939d507f000000000000000000000000000000000000000000000000000000000000000061073f565b996001600160801b038b166105f8575b8c8080610247565b60019b506105f0565b609f1691508761022d565b634e487b7160e01b5f52604160045260245ffd5b346100a2575f3660031901126100a2576040517f00000000000000000000000000000000000000000000000000000000000000006001600160a01b03168152602090f35b346100a2575f3660031901126100a2577f00000000000000000000000000000000000000000000000000000000000000006001600160a01b03168152602090f35b90601f8019910116810190811067ffffffffffffffff82111761060c57604052565b908160209103126100a257516001600160a01b03811681036100a25790565b51906001600160701b03821682036100a257565b8181029291811591840414171561070d57565b634e487b7160e01b5f52601160045260245ffd5b811561072b570490565b634e487b7160e01b5f52601260045260245ffd5b60405163e6a4390560e01b81526001600160a01b039283166004820181905293831660248201529293929160209183916044918391165afa9081156109a1575f91610a01575b506001600160a01b03169081156109fa57604051630dfe168160e01b815292602084600481865afa9384156109a1575f946109d9575b5060405163d21220a760e01b815292602084600481845afa9081156109a1576004946060926109ac575b50604051630240bc6b60e21b815294859182905afa9283156109a1575f905f94610942575b506001600160701b031693841592838015610931575b61092757156108ac576001600160a01b03160361087757506001600160701b0316670de0b6b3a7640000810290808204670de0b6b3a7640000149015171561070d576108749161086f91610721565b6111b0565b90565b670de0b6b3a76400008302928304670de0b6b3a764000014171561070d57610874916001600160701b0361086f921690610721565b6001600160a01b0316036108ef57670de0b6b3a76400008302928304670de0b6b3a764000014171561070d57610874916001600160701b0361086f921690610721565b506001600160701b0316670de0b6b3a7640000810290808204670de0b6b3a7640000149015171561070d576108749161086f91610721565b5050505050505f90565b506001600160701b03851615610820565b9350506060833d606011610999575b8161095e606093836106a5565b810103126100a25761096f836106e6565b604061097d602086016106e6565b94015163ffffffff8116036100a2576001600160701b0361080a565b3d9150610951565b6040513d5f823e3d90fd5b6109cd9060203d6020116109d2575b6109c581836106a5565b8101906106c7565b6107e5565b503d6109bb565b6109f391945060203d6020116109d2576109c581836106a5565b925f6107bb565b5050505f90565b610a1a915060203d6020116109d2576109c581836106a5565b5f610785565b51906001600160a01b03821682036100a257565b519061ffff821682036100a257565b519060ff821682036100a257565b908160e09103126100a257610a6581610a20565b9160208201518060020b81036100a25791610a8260408201610a34565b91610a8f60608301610a34565b91610a9c60808201610a34565b9160c0610aab60a08401610a43565b92015180151581036100a25790565b604051630b4c774160e11b81526001600160a01b0380841660048301529384166024820152610bb86044820152919260209183916064918391165afa9081156109a1575f91610c6b575b506001600160a01b031680156109fa57604051633850c7bd60e01b815260e081600481855afa9081156109a1575f91610c36575b506001600160a01b03168015610c2e57602060049260405193848092630dfe168160e01b82525afa9182156109a1575f92610c0d575b50633b9aca008102908104633b9aca000361070d57610b909060601c806106fa565b670de0b6b3a7640000810290808204670de0b6b3a7640000149015171561070d5760601c9215610bf2576001600160a01b03908116911603610bd6575b610874906111b0565b801561072b576ec097ce7bc90715b34b9f100000000004610bcd565b6001600160a01b03918216911614610bd657610874906111b0565b610c2791925060203d6020116109d2576109c581836106a5565b905f610b6e565b505050505f90565b610c58915060e03d60e011610c64575b610c5081836106a5565b810190610a51565b5050505050505f610b38565b503d610c46565b610c84915060203d6020116109d2576109c581836106a5565b5f610b04565b67ffffffffffffffff811161060c5760051b60200190565b805115610caf5760200190565b634e487b7160e01b5f52603260045260245ffd5b805160011015610caf5760400190565b8051821015610caf5760209160051b010190565b91906040838203126100a257825167ffffffffffffffff81116100a257830181601f820112156100a2578051610d1c81610c8a565b91610d2a60405193846106a5565b81835260208084019260051b820101908482116100a257602001915b818310610dcc575050509260208101519067ffffffffffffffff82116100a257019080601f830112156100a2578151610d7e81610c8a565b92610d8c60405194856106a5565b81845260208085019260051b8201019283116100a257602001905b828210610db45750505090565b60208091610dc184610a20565b815201910190610da7565b82518060060b81036100a257815260209283019201610d46565b60206040818301928281528451809452019201905f5b818110610e095750505090565b825163ffffffff16845260209384019390920191600101610dfc565b600691820b910b0390667fffffffffffff198212667fffffffffffff83131761070d57565b60060b9060060b90811561072b57667fffffffffffff1981145f1983141661070d570590565b604051630b4c774160e11b81526001600160a01b0380841660048301529384166024820152610bb86044820152919260209183916064918391165afa9081156109a1575f91610ff6575b506001600160a01b03169182156109fa57610f1c905f604051610ede6060826106a5565b600281526040366020830137610384610ef682610ca2565b5281610f0182610cc3565b526040518094819263883bdbfd60e01b835260048301610de6565b0381875afa9182156109a157610f6f610f67610384610f626004966020955f91610fd3575b50610f58610f4e82610cc3565b5160060b91610ca2565b5160060b90610e25565b610e4a565b60020b611295565b9460405193848092630dfe168160e01b82525afa9182156109a1575f92610fb2575b5015610bf2576001600160a01b03908116911603610bd657610874906111b0565b610fcc91925060203d6020116109d2576109c581836106a5565b905f610f91565b610fef91503d805f833e610fe781836106a5565b810190610ce7565b505f610f41565b61100f915060203d6020116109d2576109c581836106a5565b5f610eba565b519069ffffffffffffffffffff821682036100a257565b60ff16604d811161070d57600a0a90565b604051633fabe5a360e21b81526001600160a01b0390911692919060a081600481875afa9384156109a1575f915f95611147575b505f82131561113c57906020600493926040519485809263313ce56760e01b82525afa9283156109a1575f93611100575b508091156110c4575b5067ffffffffffffffff916110bf916111e9565b921690565b90508160011b916101fe60fe84169316830361070d576110f86110bf926110f367ffffffffffffffff9561102c565b610721565b9150916110ab565b9092506020813d602011611134575b8161111c602093836106a5565b810103126100a25761112d90610a43565b915f6110a2565b3d915061110f565b50505090505f905f90565b9150935060a0813d60a011611195575b8161116460a093836106a5565b810103126100a25761117581611015565b50602081015161118c608060608401519301611015565b5090935f611071565b3d9150611157565b60ff6011199116019060ff821161070d57565b80156111e4575f906111dc670de0b6b3a7640000916111d66001600160801b039461102c565b90610721565b60401b041690565b505f90565b90811561125a5760ff81166012811061122357506111dc6001600160801b03926111d661121e670de0b6b3a76400009461119d565b61102c565b90506012039060ff821161070d57611255670de0b6b3a76400009161124f6001600160801b039461102c565b906106fa565b6111dc565b50505f90565b811561072b57600160ff1b81145f1983141661070d570590565b9190915f838201938412911290801582169115161761070d57565b60020b80156112e157655af3107a40008102908105655af3107a40000361070d57612710900580670de0b6b3a76400000190811260011661070d575f8113156112db5790565b50600190565b50670de0b6b3a764000090565b9190820180921161070d57565b604051630b4c774160e11b81526001600160a01b0380841660048301529384166024820152610bb86044820152919260209183916064918391165afa9081156109a1575f916116b2575b506001600160a01b031680156116a957604051633850c7bd60e01b81526014919060e081600481855afa9081156109a157839161ffff915f91611683575b5016106116795761139382610c8a565b926113a160405194856106a5565b828452601f196113b084610c8a565b013660208601375f1960ff8416019460ff861161070d5760ff861694851561072b575f9463ffffffff87620151800416955b818110611655575050905f61140e959493926040518097819263883bdbfd60e01b835260048301610de6565b0381865afa9485156109a1575f95611635575b506004906020611451610f676114466114398a610ca2565b5160060b610f588b610cc3565b9760030b8098610e4a565b9460405193848092630dfe168160e01b82525afa9182156109a1575f92611614575b50156115f7576001600160a01b039081169116036115db575b61149760ff916111b0565b941161070d576114a683610c8a565b916114b460405193846106a5565b838352601f196114c385610c8a565b013660208501375f5b848110611599575050505f825f915b818310611573576114ec9250611260565b60020b5f915f915b848310611528575050506115109161150b91610721565b611a54565b61ffff811115611521575061ffff91565b61ffff1691565b909192816115368585610cd3565b5160020b03627fffff198112627fffff82131761070d5760020b8002908160020b91820361070d5760019161156a916112ee565b930191906114f4565b6001915061158f906115858486610cd3565b5160020b9061127a565b91019083906114db565b6115a38183610cd3565b5160060b906001810180821161070d5784610f62600194610f586115c79488610cd3565b60020b6115d48287610cd3565b52016114cc565b801561072b576ec097ce7bc90715b34b9f10000000000461148c565b6001600160a01b039182169116146115db5761149760ff916111b0565b61162e91925060203d6020116109d2576109c581836106a5565b905f611473565b600491955061164d903d805f833e610fe781836106a5565b509490611421565b8063ffffffff611667896001946106fa565b166116728286610cd3565b52016113e2565b505050505f905f90565b61169c915060e03d60e011610c6457610c5081836106a5565b505050925050505f611383565b5050505f905f90565b6116cb915060203d6020116109d2576109c581836106a5565b5f611345565b604051630b4c774160e11b81526001600160a01b0380841660048301529384166024820152610bb86044820152919260209183916064918391165afa9081156109a1575f91611a35575b506001600160a01b031680156116a957604051633850c7bd60e01b8152600a919060e081600481855afa9081156109a157839161ffff915f91611a0f575b5016106116795761176982610c8a565b9261177760405194856106a5565b828452601f1961178684610c8a565b013660208601375f1960ff8416019460ff861161070d5760ff861694851561072b575f9463ffffffff876103840416955b8181106119eb575050905f6117e3959493926040518097819263883bdbfd60e01b835260048301610de6565b0381865afa9485156109a1575f956119cb575b50600490602061180e610f676114466114398a610ca2565b9460405193848092630dfe168160e01b82525afa9182156109a1575f926119aa575b501561198d576001600160a01b03908116911603611971575b61185460ff916111b0565b941161070d5761186383610c8a565b9161187160405193846106a5565b838352601f1961188085610c8a565b013660208501375f5b84811061192f575050505f825f915b818310611913576118a99250611260565b60020b5f915f915b8483106118c8575050506115109161150b91610721565b909192816118d68585610cd3565b5160020b03627fffff198112627fffff82131761070d5760020b8002908160020b91820361070d5760019161190a916112ee565b930191906118b1565b60019150611925906115858486610cd3565b9101908390611898565b6119398183610cd3565b5160060b906001810180821161070d5784610f62600194610f5861195d9488610cd3565b60020b61196a8287610cd3565b5201611889565b801561072b576ec097ce7bc90715b34b9f100000000004611849565b6001600160a01b039182169116146119715761185460ff916111b0565b6119c491925060203d6020116109d2576109c581836106a5565b905f611830565b60049195506119e3903d805f833e610fe781836106a5565b5094906117f6565b8063ffffffff6119fd896001946106fa565b16611a088286610cd3565b52016117b7565b611a28915060e03d60e011610c6457610c5081836106a5565b505050925050505f611759565b611a4e915060203d6020116109d2576109c581836106a5565b5f61171b565b80156111e4576001810180821161070d5760011c815b828210611a7657505090565b909150611a8c82611a878184610721565b6112ee565b60011c90611a6a56fea2646970667358221220c868a21a4f864f81fc249a8e0a3a88e87c9c44eb36c3453ca58b9d55dad3227a64736f6c634300081e0033",
  "linkReferences": {},
  "deployedLinkReferences": {}
}