{
  "_format": "hh-sol-artifact-1",
  "contractName": "Quoter1100",
  "sourceName": "contracts/Peripheral/quoters/dummy/Quoter1100.sol",
  "abi": [
    {
      "inputs": [
        {
          "components": [
            {
              "internalType": "address",
              "name": "asset0",
              "type": "address"
            },
            {
              "internalType": "address",
              "name": "asset1",
              "type": "address"
            },
            {
              "internalType": "address",
              "name": "quoter",
              "type": "address"
            },
            {
              "internalType": "uint256",
              "name": "amount",
              "type": "uint256"
            },
            {
              "internalType": "uint128",
              "name": "asset0Balance",
              "type": "uint128"
            },
            {
              "internalType": "uint128",
              "name": "asset1Balance",
              "type": "uint128"
            },
            {
              "internalType": "uint16",
              "name": "bucketID",
              "type": "uint16"
            },
            {
              "internalType": "bool",
              "name": "zeroForOne",
              "type": "bool"
            }
          ],
          "internalType": "struct QuoteParams",
          "name": "params",
          "type": "tuple"
        },
        {
          "internalType": "bytes",
          "name": "routed",
          "type": "bytes"
        }
      ],
      "name": "quote",
      "outputs": [
        {
          "internalType": "uint256",
          "name": "",
          "type": "uint256"
        }
      ],
      "stateMutability": "pure",
      "type": "function"
    },
    {
      "inputs": [
        {
          "components": [
            {
              "internalType": "address",
              "name": "asset0",
              "type": "address"
            },
            {
              "internalType": "address",
              "name": "asset1",
              "type": "address"
            },
            {
              "internalType": "address",
              "name": "quoter",
              "type": "address"
            },
            {
              "internalType": "uint256[]",
              "name": "amount",
              "type": "uint256[]"
            },
            {
              "internalType": "uint128[]",
              "name": "asset0Balances",
              "type": "uint128[]"
            },
            {
              "internalType": "uint128[]",
              "name": "asset1Balances",
              "type": "uint128[]"
            },
            {
              "internalType": "uint16[]",
              "name": "bucketID",
              "type": "uint16[]"
            },
            {
              "internalType": "bool",
              "name": "zeroForOne",
              "type": "bool"
            }
          ],
          "internalType": "struct QuoteParamsBatch",
          "name": "params",
          "type": "tuple"
        },
        {
          "internalType": "bytes",
          "name": "routed",
          "type": "bytes"
        }
      ],
      "name": "quoteBatch",
      "outputs": [
        {
          "internalType": "uint256[]",
          "name": "quotes",
          "type": "uint256[]"
        }
      ],
      "stateMutability": "pure",
      "type": "function"
    }
  ],
  "bytecode": "0x608080604052346015576107ff908161001a8239f35b5f80fdfe60806040526004361015610011575f80fd5b5f3560e01c80635e3344d01461038a5763db90d1001461002f575f80fd5b3461035b57604036600319011261035b576004356001600160401b03811161035b57610100600319823603011261035b5761006861052a565b61007482600401610583565b815261008260248301610583565b602082015261009360448301610583565b604082015260648201356001600160401b03811161035b5782013660238201121561035b576004810135906100cf6100ca836105ee565b61055e565b91602060048185848152019260051b840101019136831161035b57602401905b82821061037a575050506060820190815260848301356001600160401b03811161035b576101239060043691860101610605565b906080830191825260a48401356001600160401b03811161035b5761014e9060043691870101610605565b9360a0840194855260c48101356001600160401b03811161035b5781013660238201121561035b5760048101356101876100ca826105ee565b91602060048185858152019360051b830101019036821161035b57602401915b81831061035f5750505060c085015260e4013592831515840361035b5760e0019283526024356001600160401b03811161035b576101ec6101fb9136906004016105b2565b602080825183010191016106a5565b505050905115159081610350575b50156103455761ffff6103ed5b16918151519461023461022b6100ca886105ee565b968088526105ee565b6020870190601f19013682375f5b8451805182101561030157906103e86102c488888885896001988f5115155f146102d65750926102b2826001600160801b036102a9826102a26102bf998461029a846102926102b99c8c516107a1565b5193516107a1565b51169061074f565b97516107a1565b511692516107a1565b5190610776565b90610783565b61074f565b046102cf828b6107a1565b5201610242565b826001600160801b036102a9826102a26102bf9996988461029a846102926102b99c6102b29b6107a1565b8289604051918291602083019060208452518091526040830191905f5b81811061032c575050500390f35b825184528594506020938401939092019160010161031e565b61ffff6103e8610216565b90505115155f610209565b5f80fd5b823561ffff8116810361035b578152602092830192016101a7565b81358152602091820191016100ef565b3461035b573660031901610120811261035b576101001361035b576103ad61052a565b6004356001600160a01b038116810361035b5781526024356001600160a01b038116810361035b5760208201526044356001600160a01b038116810361035b57604082015260608101906064358252608435906001600160801b038216820361035b576080810191825260a435906001600160801b038216820361035b5760a0810191825260c43561ffff8116810361035b5760c082015260e43590811515820361035b5760e001908152610104356001600160401b03811161035b576020946103e8946104e99461049761048961ffff9536906004016105b2565b8980825183010191016106a5565b50505090511515908161051f575b5015610518576103ed945b51156104f257826001600160801b036104d56102b993826104e097519151169061074f565b935116905190610776565b915b169061074f565b04604051908152f35b90826001600160801b036104d56102b9938261051297519151169061074f565b916104e2565b86946104b0565b9050511515896104a5565b6040519061010082018281106001600160401b0382111761054a57604052565b634e487b7160e01b5f52604160045260245ffd5b6040519190601f01601f191682016001600160401b0381118382101761054a57604052565b35906001600160a01b038216820361035b57565b6001600160401b03811161054a57601f01601f191660200190565b81601f8201121561035b578035906105cc6100ca83610597565b928284526020838301011161035b57815f926020809301838601378301015290565b6001600160401b03811161054a5760051b60200190565b9080601f8301121561035b578135906106206100ca836105ee565b9260208085858152019360051b82010191821161035b57602001915b8183106106495750505090565b82356001600160801b038116810361035b5781526020928301920161063c565b81601f8201121561035b578051906106836100ca83610597565b928284526020838301011161035b57815f9260208093018386015e8301015290565b91909160a08184031261035b5780516001600160401b03811161035b57836106ce918301610669565b9260208201516001600160401b03811161035b57816106ee918401610669565b9260408301516001600160401b03811161035b578261070e918501610669565b9260608101516001600160401b03811161035b578361072e918301610669565b9260808201516001600160401b03811161035b5761074c9201610669565b90565b8181029291811591840414171561076257565b634e487b7160e01b5f52601160045260245ffd5b9190820180921161076257565b811561078d570490565b634e487b7160e01b5f52601260045260245ffd5b80518210156107b55760209160051b010190565b634e487b7160e01b5f52603260045260245ffdfea264697066735822122025afda99571ffadc433ed35ac96668cece0f631dfaaf1e145aa34ceb589ff52564736f6c634300081e0033",
  "linkReferences": {},
  "deployedLinkReferences": {}
}