{
  "_format": "hh-sol-artifact-1",
  "contractName": "DualDataQuoter",
  "sourceName": "contracts/quoters/DualDataQuoter.sol",
  "abi": [
    {
      "inputs": [
        {
          "components": [
            {
              "internalType": "address",
              "name": "asset0",
              "type": "address"
            },
            {
              "internalType": "address",
              "name": "asset1",
              "type": "address"
            },
            {
              "internalType": "address",
              "name": "quoter",
              "type": "address"
            },
            {
              "internalType": "uint256",
              "name": "amount",
              "type": "uint256"
            },
            {
              "internalType": "uint128",
              "name": "asset0Balance",
              "type": "uint128"
            },
            {
              "internalType": "uint128",
              "name": "asset1Balance",
              "type": "uint128"
            },
            {
              "internalType": "uint16",
              "name": "bucketID",
              "type": "uint16"
            },
            {
              "internalType": "bool",
              "name": "zeroForOne",
              "type": "bool"
            }
          ],
          "internalType": "struct QuoteParams",
          "name": "params",
          "type": "tuple"
        },
        {
          "internalType": "bytes",
          "name": "alphaData",
          "type": "bytes"
        },
        {
          "internalType": "bytes",
          "name": "betaData",
          "type": "bytes"
        }
      ],
      "name": "quote",
      "outputs": [
        {
          "internalType": "uint256",
          "name": "quote",
          "type": "uint256"
        }
      ],
      "stateMutability": "pure",
      "type": "function"
    },
    {
      "inputs": [
        {
          "components": [
            {
              "internalType": "address",
              "name": "asset0",
              "type": "address"
            },
            {
              "internalType": "address",
              "name": "asset1",
              "type": "address"
            },
            {
              "internalType": "address",
              "name": "quoter",
              "type": "address"
            },
            {
              "internalType": "uint256[]",
              "name": "amount",
              "type": "uint256[]"
            },
            {
              "internalType": "uint128[]",
              "name": "asset0Balances",
              "type": "uint128[]"
            },
            {
              "internalType": "uint128[]",
              "name": "asset1Balances",
              "type": "uint128[]"
            },
            {
              "internalType": "uint16[]",
              "name": "bucketID",
              "type": "uint16[]"
            },
            {
              "internalType": "bool",
              "name": "zeroForOne",
              "type": "bool"
            }
          ],
          "internalType": "struct QuoteParamsBatch",
          "name": "params",
          "type": "tuple"
        },
        {
          "internalType": "bytes",
          "name": "alphaData",
          "type": "bytes"
        },
        {
          "internalType": "bytes",
          "name": "betaData",
          "type": "bytes"
        }
      ],
      "name": "quoteBatch",
      "outputs": [
        {
          "internalType": "uint256[]",
          "name": "quotes",
          "type": "uint256[]"
        }
      ],
      "stateMutability": "pure",
      "type": "function"
    }
  ],
  "bytecode": "0x6080604052348015600e575f5ffd5b50610a5c8061001c5f395ff3fe608060405234801561000f575f5ffd5b5060043610610034575f3560e01c8063014b20171461003857806303dd785a14610061575b5f5ffd5b61004b6100463660046106b9565b610082565b6040516100589190610838565b60405180910390f35b61007461006f36600461087a565b6102de565b604051908152602001610058565b60605f5f8480602001905181019061009a9190610963565b915091505f848060200190518101906100b39190610985565b90505f8184116100cc576100c784836109b0565b6100d6565b6100d682856109b0565b90505f60646100e68460196109c9565b6100f18760236109c9565b6100fc8760286109c9565b61010691906109e0565b61011091906109e0565b61011a91906109f3565b90505f8161012a846103e86109c9565b61013491906109f3565b90505f61271061014483826109b0565b61014e90856109c9565b61015891906109f3565b90508a60600151516001600160401b0381111561017757610177610437565b6040519080825280602002602001820160405280156101a0578160200160208202803683370190505b5097505f5b8b60600151518110156102cf578b60e001511561021b57670de0b6b3a7640000828d6060015183815181106101dc576101dc610a12565b60200260200101516101ee91906109c9565b6101f891906109f3565b89828151811061020a5761020a610a12565b602002602001018181525050610276565b818c60600151828151811061023257610232610a12565b6020026020010151670de0b6b3a764000061024d91906109c9565b61025791906109f3565b89828151811061026957610269610a12565b6020026020010181815250505b6103e889828151811061028b5761028b610a12565b60200260200101516103e36102a091906109c9565b6102aa91906109f3565b8982815181106102bc576102bc610a12565b60209081029190910101526001016101a5565b50505050505050509392505050565b5f5f5f848060200190518101906102f59190610963565b915091505f8480602001905181019061030e9190610985565b90505f8184116103275761032284836109b0565b610331565b61033182856109b0565b90505f60646103418460196109c9565b61034c8760236109c9565b6103578760286109c9565b61036191906109e0565b61036b91906109e0565b61037591906109f3565b90505f81610385846103e86109c9565b61038f91906109f3565b90505f61271061039f83826109b0565b6103a990856109c9565b6103b391906109f3565b90508a60e00151156103e957670de0b6b3a7640000818c606001516103d891906109c9565b6103e291906109f3565b975061040f565b808b60600151670de0b6b3a764000061040291906109c9565b61040c91906109f3565b97505b6103e861041e896103e36109c9565b61042891906109f3565b9b9a5050505050505050505050565b634e487b7160e01b5f52604160045260245ffd5b60405161010081016001600160401b038111828210171561046e5761046e610437565b60405290565b604051601f8201601f191681016001600160401b038111828210171561049c5761049c610437565b604052919050565b80356001600160a01b03811681146104ba575f5ffd5b919050565b5f6001600160401b038211156104d7576104d7610437565b5060051b60200190565b5f82601f8301126104f0575f5ffd5b81356105036104fe826104bf565b610474565b8082825260208201915060208360051b860101925085831115610524575f5ffd5b602085015b83811015610541578035835260209283019201610529565b5095945050505050565b80356fffffffffffffffffffffffffffffffff811681146104ba575f5ffd5b5f82601f830112610579575f5ffd5b81356105876104fe826104bf565b8082825260208201915060208360051b8601019250858311156105a8575f5ffd5b602085015b83811015610541576105be8161054b565b8352602092830192016105ad565b803561ffff811681146104ba575f5ffd5b5f82601f8301126105ec575f5ffd5b81356105fa6104fe826104bf565b8082825260208201915060208360051b86010192508583111561061b575f5ffd5b602085015b8381101561054157610631816105cc565b835260209283019201610620565b803580151581146104ba575f5ffd5b5f82601f83011261065d575f5ffd5b81356001600160401b0381111561067657610676610437565b610689601f8201601f1916602001610474565b81815284602083860101111561069d575f5ffd5b816020850160208301375f918101602001919091529392505050565b5f5f5f606084860312156106cb575f5ffd5b83356001600160401b038111156106e0575f5ffd5b840161010081870312156106f2575f5ffd5b6106fa61044b565b610703826104a4565b8152610711602083016104a4565b6020820152610722604083016104a4565b604082015260608201356001600160401b0381111561073f575f5ffd5b61074b888285016104e1565b60608301525060808201356001600160401b03811115610769575f5ffd5b6107758882850161056a565b60808301525060a08201356001600160401b03811115610793575f5ffd5b61079f8882850161056a565b60a08301525060c08201356001600160401b038111156107bd575f5ffd5b6107c9888285016105dd565b60c0830152506107db60e0830161063f565b60e082015293505060208401356001600160401b038111156107fb575f5ffd5b6108078682870161064e565b92505060408401356001600160401b03811115610822575f5ffd5b61082e8682870161064e565b9150509250925092565b602080825282518282018190525f918401906040840190835b8181101561086f578351835260209384019390920191600101610851565b509095945050505050565b5f5f5f83850361014081121561088e575f5ffd5b61010081121561089c575f5ffd5b506108a561044b565b6108ae856104a4565b81526108bc602086016104a4565b60208201526108cd604086016104a4565b6040820152606085810135908201526108e86080860161054b565b60808201526108f960a0860161054b565b60a082015261090a60c086016105cc565b60c082015261091b60e0860161063f565b60e082015292506101008401356001600160401b0381111561093b575f5ffd5b6109478682870161064e565b9250506101208401356001600160401b03811115610822575f5ffd5b5f5f60408385031215610974575f5ffd5b505080516020909101519092909150565b5f60208284031215610995575f5ffd5b5051919050565b634e487b7160e01b5f52601160045260245ffd5b818103818111156109c3576109c361099c565b92915050565b80820281158282048414176109c3576109c361099c565b808201808211156109c3576109c361099c565b5f82610a0d57634e487b7160e01b5f52601260045260245ffd5b500490565b634e487b7160e01b5f52603260045260245ffdfea264697066735822122082b32766b3a7af8ae07dac6eb206bc3244674ff7f2336082a6004c0b2075c6b964736f6c634300081e0033",
  "linkReferences": {},
  "deployedLinkReferences": {}
}