{
  "_format": "hh-sol-artifact-1",
  "contractName": "LnHarness",
  "sourceName": "contracts/Peripheral/libraries/tests/LnHarness.sol",
  "abi": [
    {
      "inputs": [],
      "name": "LN2_Q64",
      "outputs": [
        {
          "internalType": "uint128",
          "name": "",
          "type": "uint128"
        }
      ],
      "stateMutability": "view",
      "type": "function"
    },
    {
      "inputs": [
        {
          "internalType": "uint128",
          "name": "xQ64",
          "type": "uint128"
        }
      ],
      "name": "lnQ64",
      "outputs": [
        {
          "internalType": "int128",
          "name": "",
          "type": "int128"
        }
      ],
      "stateMutability": "pure",
      "type": "function"
    }
  ],
  "bytecode": "0x608080604052346015576103cb908161001a8239f35b5f80fdfe60806040526004361015610011575f80fd5b5f3560e01c806344c751301461005d5763ab875e4c1461002f575f80fd5b34610059575f3660031901126100595760206040516fb17217f7d1cf79abc9e3b39803f2f6af8152f35b5f80fd5b34610059576020366003190112610059576004356001600160801b03811681036100595761008c6020916100da565b60405190600f0b8152f35b919082018092116100a457565b634e487b7160e01b5f52601160045260245ffd5b81810292915f8212600160ff1b8214166100a45781840514901517156100a457565b6001600160801b0381161561033a575f905b600160401b6001600160801b0382161061030f575b680200000000000000006001600160801b03821610156102e2576001600160801b031667ffffffffffffffff198101906001600160801b0382116100a457600160401b81018091116100a4576001600160801b03169081156102b7576101eb9177ffffffffffffffffffffffffffffffff00000000000000006001600160801b039260401b16041660096001600160801b036101e26101a08480610369565b6007836101e26101b08885610369565b976005836101e26101c1888d610369565b936003836101d96101d28c89610369565b9b8c610369565b9e160490610097565b92160490610097565b60011b905f811315610265576fb17217f7d1cf79abc9e3b39803f2f6af610211916100b8565b905f82820192831291129080158216911516176100a4575b60016001607f1b0381136102595760016001607f1b0319811261024c57600f0b90565b5060016001607f1b031990565b5060016001607f1b0390565b5f8112610273575b50610229565b600160ff1b81146100a4576fb17217f7d1cf79abc9e3b39803f2f6af61029a915f036100b8565b905f82820392128183128116918313901516176100a4575f61026d565b606460405162461bcd60e51b81526020600482015260046024820152630444956360e41b6044820152fd5b60016001607f1b039060011c169060018101905f6001831291129080158216911516176100a45790610101565b6ffffffffffffffffffffffffffffffffe9060011b16905f1981019081136001166100a457906100ec565b60405162461bcd60e51b81526020600482015260076024820152664c4e5f5a45524f60c81b6044820152606490fd5b6001600160801b0391821691168181029181159183041417156100a45760401c6001600160801b03169056fea2646970667358221220fb31aa5414dabd3802f85b2e320473b7b8e686e3ffc6be48ab8c05c4188465c764736f6c634300081e0033",
  "linkReferences": {},
  "deployedLinkReferences": {}
}