{
  "_format": "hh-sol-artifact-1",
  "contractName": "BetaMarketData",
  "sourceName": "contracts/MarketData/BetaMarketData.sol",
  "abi": [
    {
      "inputs": [
        {
          "internalType": "bytes",
          "name": "data",
          "type": "bytes"
        }
      ],
      "name": "decodeData",
      "outputs": [
        {
          "internalType": "uint256",
          "name": "spotPrice",
          "type": "uint256"
        }
      ],
      "stateMutability": "pure",
      "type": "function"
    },
    {
      "inputs": [
        {
          "components": [
            {
              "internalType": "address",
              "name": "asset0",
              "type": "address"
            },
            {
              "internalType": "address",
              "name": "asset1",
              "type": "address"
            },
            {
              "internalType": "address",
              "name": "quoter",
              "type": "address"
            },
            {
              "internalType": "uint256",
              "name": "amount",
              "type": "uint256"
            },
            {
              "internalType": "uint128",
              "name": "asset0Balance",
              "type": "uint128"
            },
            {
              "internalType": "uint128",
              "name": "asset1Balance",
              "type": "uint128"
            },
            {
              "internalType": "uint16",
              "name": "bucketID",
              "type": "uint16"
            },
            {
              "internalType": "bool",
              "name": "zeroForOne",
              "type": "bool"
            }
          ],
          "internalType": "struct QuoteParams",
          "name": "",
          "type": "tuple"
        }
      ],
      "name": "getData",
      "outputs": [
        {
          "internalType": "bytes",
          "name": "data",
          "type": "bytes"
        }
      ],
      "stateMutability": "pure",
      "type": "function"
    }
  ],
  "bytecode": "0x6080604052348015600e575f5ffd5b5061033e8061001c5f395ff3fe608060405234801561000f575f5ffd5b5060043610610034575f3560e01c80633bd1104b14610038578063447a06f514610086575b5f5ffd5b61007061004636600461018b565b50604080516712bc29d8eec700006020808301919091528251808303909101815290820190915290565b60405161007d9190610228565b60405180910390f35b61009961009436600461025d565b6100a7565b60405190815260200161007d565b5f818060200190518101906100bc91906102f1565b92915050565b634e487b7160e01b5f52604160045260245ffd5b604051610100810167ffffffffffffffff811182821017156100fa576100fa6100c2565b60405290565b604051601f8201601f1916810167ffffffffffffffff81118282101715610129576101296100c2565b604052919050565b80356001600160a01b0381168114610147575f5ffd5b919050565b80356fffffffffffffffffffffffffffffffff81168114610147575f5ffd5b803561ffff81168114610147575f5ffd5b80358015158114610147575f5ffd5b5f61010082840312801561019d575f5ffd5b506101a66100d6565b6101af83610131565b81526101bd60208401610131565b60208201526101ce60408401610131565b6040820152606083013560608201526101e96080840161014c565b60808201526101fa60a0840161014c565b60a082015261020b60c0840161016b565b60c082015261021c60e0840161017c565b60e08201529392505050565b602081525f82518060208401528060208501604085015e5f604082850101526040601f19601f83011684010191505092915050565b5f6020828403121561026d575f5ffd5b813567ffffffffffffffff811115610283575f5ffd5b8201601f81018413610293575f5ffd5b803567ffffffffffffffff8111156102ad576102ad6100c2565b6102c0601f8201601f1916602001610100565b8181528560208385010111156102d4575f5ffd5b816020840160208301375f91810160200191909152949350505050565b5f60208284031215610301575f5ffd5b505191905056fea2646970667358221220928ac95f32075be43c26f92ae8d22ee62fc7bd0bed197d87097448a0f598098e64736f6c634300081e0033",
  "linkReferences": {},
  "deployedLinkReferences": {}
}