{
  "_format": "hh-sol-artifact-1",
  "contractName": "BetaMarketData",
  "sourceName": "contracts/MarketData/BetaMarketData.sol",
  "abi": [
    {
      "inputs": [
        {
          "internalType": "bytes",
          "name": "data",
          "type": "bytes"
        }
      ],
      "name": "decodeData",
      "outputs": [
        {
          "internalType": "uint256",
          "name": "spotPrice",
          "type": "uint256"
        }
      ],
      "stateMutability": "pure",
      "type": "function"
    },
    {
      "inputs": [
        {
          "components": [
            {
              "internalType": "address",
              "name": "asset0",
              "type": "address"
            },
            {
              "internalType": "address",
              "name": "asset1",
              "type": "address"
            },
            {
              "internalType": "address",
              "name": "quoter",
              "type": "address"
            },
            {
              "internalType": "uint256",
              "name": "amount",
              "type": "uint256"
            },
            {
              "internalType": "uint128",
              "name": "asset0Balance",
              "type": "uint128"
            },
            {
              "internalType": "uint128",
              "name": "asset1Balance",
              "type": "uint128"
            },
            {
              "internalType": "uint16",
              "name": "bucketID",
              "type": "uint16"
            },
            {
              "internalType": "bool",
              "name": "zeroForOne",
              "type": "bool"
            }
          ],
          "internalType": "struct QuoteParams",
          "name": "",
          "type": "tuple"
        }
      ],
      "name": "getData",
      "outputs": [
        {
          "internalType": "bytes",
          "name": "data",
          "type": "bytes"
        }
      ],
      "stateMutability": "pure",
      "type": "function"
    }
  ],
  "bytecode": "0x60808060405234601557610252908161001a8239f35b5f80fdfe6080806040526004361015610012575f80fd5b5f3560e01c9081633bd1104b146100de575063447a06f514610032575f80fd5b346100c65760203660031901126100c65760043567ffffffffffffffff81116100c657366023820112156100c65780600401359067ffffffffffffffff82116100ca5760405161008c601f8401601f1916602001826101fa565b828152602081019236602482850101116100c6576020815f9260248396018737830101528051810103126100c65760209051604051908152f35b5f80fd5b634e487b7160e01b5f52604160045260245ffd5b346100c6576101003660031901126100c657610100810181811067ffffffffffffffff8211176100ca576040526004356001600160a01b03811681036100c65781526024356001600160a01b03811681036100c65760208201526044356001600160a01b03811681036100c657604082015260643560608201526084356001600160801b03811681036100c657608082015260a4356001600160801b03811681036100c65760a082015260c43561ffff811681036100c65760c082015260e4359081151582036100c65760e00152604051604060208201916712bc29d8eec700008352602081526101cf82826101fa565b8151928391602083525180918160208501528484015e5f828201840152601f01601f19168101030190f35b90601f8019910116810190811067ffffffffffffffff8211176100ca5760405256fea2646970667358221220b707067cfdd72a65f4a914784001a574937dbe060434440c86a9785e09becb0664736f6c634300081e0033",
  "linkReferences": {},
  "deployedLinkReferences": {}
}