{
	"contracts/StoixQuoter.sol": {
		"StoixQuoter": {
			"abi": [
				{
					"inputs": [
						{
							"components": [
								{
									"internalType": "uint256",
									"name": "bucketId",
									"type": "uint256"
								},
								{
									"components": [
										{
											"internalType": "uint256",
											"name": "spot",
											"type": "uint256"
										},
										{
											"internalType": "uint256",
											"name": "twa",
											"type": "uint256"
										}
									],
									"internalType": "struct MarketData",
									"name": "marketData",
									"type": "tuple"
								},
								{
									"components": [
										{
											"internalType": "uint256",
											"name": "amount",
											"type": "uint256"
										},
										{
											"internalType": "bool",
											"name": "zeroForOne",
											"type": "bool"
										},
										{
											"internalType": "uint128",
											"name": "inventory0",
											"type": "uint128"
										},
										{
											"internalType": "uint128",
											"name": "inventory1",
											"type": "uint128"
										}
									],
									"internalType": "struct QuoteParams",
									"name": "quoteParams",
									"type": "tuple"
								}
							],
							"internalType": "struct StoixQuoterRequest[]",
							"name": "request",
							"type": "tuple[]"
						}
					],
					"name": "batchQuotes",
					"outputs": [
						{
							"internalType": "uint256[]",
							"name": "quotes",
							"type": "uint256[]"
						}
					],
					"stateMutability": "nonpayable",
					"type": "function"
				},
				{
					"inputs": [
						{
							"components": [
								{
									"internalType": "uint256",
									"name": "bucketId",
									"type": "uint256"
								},
								{
									"components": [
										{
											"internalType": "uint256",
											"name": "spot",
											"type": "uint256"
										},
										{
											"internalType": "uint256",
											"name": "twa",
											"type": "uint256"
										}
									],
									"internalType": "struct MarketData",
									"name": "marketData",
									"type": "tuple"
								},
								{
									"components": [
										{
											"internalType": "uint256",
											"name": "amount",
											"type": "uint256"
										},
										{
											"internalType": "bool",
											"name": "zeroForOne",
											"type": "bool"
										},
										{
											"internalType": "uint128",
											"name": "inventory0",
											"type": "uint128"
										},
										{
											"internalType": "uint128",
											"name": "inventory1",
											"type": "uint128"
										}
									],
									"internalType": "struct QuoteParams",
									"name": "quoteParams",
									"type": "tuple"
								}
							],
							"internalType": "struct StoixQuoterRequest",
							"name": "request",
							"type": "tuple"
						}
					],
					"name": "quote",
					"outputs": [
						{
							"internalType": "uint256",
							"name": "quote",
							"type": "uint256"
						}
					],
					"stateMutability": "nonpayable",
					"type": "function"
				}
			],
			"devdoc": {
				"kind": "dev",
				"methods": {},
				"version": 1
			},
			"evm": {
				"assembly": "    /* \"contracts/StoixQuoter.sol\":190:709  contract StoixQuoter {... */\n  mstore(0x40, 0x80)\n  callvalue\n  dup1\n  iszero\n  tag_1\n  jumpi\n  revert(0x00, 0x00)\ntag_1:\n  pop\n  dataSize(sub_0)\n  dup1\n  dataOffset(sub_0)\n  0x00\n  codecopy\n  0x00\n  return\nstop\n\nsub_0: assembly {\n        /* \"contracts/StoixQuoter.sol\":190:709  contract StoixQuoter {... */\n      mstore(0x40, 0x80)\n      callvalue\n      dup1\n      iszero\n      tag_1\n      jumpi\n      revert(0x00, 0x00)\n    tag_1:\n      pop\n      jumpi(tag_2, lt(calldatasize, 0x04))\n      shr(0xe0, calldataload(0x00))\n      dup1\n      0x6fba3af6\n      eq\n      tag_3\n      jumpi\n      dup1\n      0xe176b360\n      eq\n      tag_4\n      jumpi\n    tag_2:\n      revert(0x00, 0x00)\n        /* \"contracts/StoixQuoter.sol\":489:707  function batchQuotes(StoixQuoterRequest[] calldata request) external returns (uint256[] memory quotes) {... */\n    tag_3:\n      tag_5\n      0x04\n      dup1\n      calldatasize\n      sub\n      dup2\n      add\n      swap1\n      tag_6\n      swap2\n      swap1\n      tag_7\n      jump\t// in\n    tag_6:\n      tag_8\n      jump\t// in\n    tag_5:\n      mload(0x40)\n      tag_9\n      swap2\n      swap1\n      tag_10\n      jump\t// in\n    tag_9:\n      mload(0x40)\n      dup1\n      swap2\n      sub\n      swap1\n      return\n        /* \"contracts/StoixQuoter.sol\":267:483  function quote(StoixQuoterRequest calldata request) public returns (uint256 quote) { ... */\n    tag_4:\n      tag_11\n      0x04\n      dup1\n      calldatasize\n      sub\n      dup2\n      add\n      swap1\n      tag_12\n      swap2\n      swap1\n      tag_13\n      jump\t// in\n    tag_12:\n      tag_14\n      jump\t// in\n    tag_11:\n      mload(0x40)\n      tag_15\n      swap2\n      swap1\n      tag_16\n      jump\t// in\n    tag_15:\n      mload(0x40)\n      dup1\n      swap2\n      sub\n      swap1\n      return\n        /* \"contracts/StoixQuoter.sol\":489:707  function batchQuotes(StoixQuoterRequest[] calldata request) external returns (uint256[] memory quotes) {... */\n    tag_8:\n        /* \"contracts/StoixQuoter.sol\":567:590  uint256[] memory quotes */\n      0x60\n        /* \"contracts/StoixQuoter.sol\":607:616  uint256 i */\n      0x00\n        /* \"contracts/StoixQuoter.sol\":619:620  0 */\n      0x00\n        /* \"contracts/StoixQuoter.sol\":607:620  uint256 i = 0 */\n      swap1\n      pop\n        /* \"contracts/StoixQuoter.sol\":602:701  for (uint256 i = 0; i < request.length; i++) {... */\n    tag_18:\n        /* \"contracts/StoixQuoter.sol\":626:633  request */\n      dup4\n      dup4\n        /* \"contracts/StoixQuoter.sol\":626:640  request.length */\n      swap1\n      pop\n        /* \"contracts/StoixQuoter.sol\":622:623  i */\n      dup2\n        /* \"contracts/StoixQuoter.sol\":622:640  i < request.length */\n      lt\n        /* \"contracts/StoixQuoter.sol\":602:701  for (uint256 i = 0; i < request.length; i++) {... */\n      iszero\n      tag_19\n      jumpi\n        /* \"contracts/StoixQuoter.sol\":673:690  quote(request[i]) */\n      tag_21\n        /* \"contracts/StoixQuoter.sol\":679:686  request */\n      dup5\n      dup5\n        /* \"contracts/StoixQuoter.sol\":687:688  i */\n      dup4\n        /* \"contracts/StoixQuoter.sol\":679:689  request[i] */\n      dup2\n      dup2\n      lt\n      tag_22\n      jumpi\n      tag_23\n      tag_24\n      jump\t// in\n    tag_23:\n    tag_22:\n      swap1\n      pop\n      0xe0\n      mul\n      add\n        /* \"contracts/StoixQuoter.sol\":673:678  quote */\n      tag_14\n        /* \"contracts/StoixQuoter.sol\":673:690  quote(request[i]) */\n      jump\t// in\n    tag_21:\n        /* \"contracts/StoixQuoter.sol\":661:667  quotes */\n      dup3\n        /* \"contracts/StoixQuoter.sol\":668:669  i */\n      dup3\n        /* \"contracts/StoixQuoter.sol\":661:670  quotes[i] */\n      dup2\n      mload\n      dup2\n      lt\n      tag_25\n      jumpi\n      tag_26\n      tag_24\n      jump\t// in\n    tag_26:\n    tag_25:\n      0x20\n      mul\n      0x20\n      add\n      add\n        /* \"contracts/StoixQuoter.sol\":661:690  quotes[i] = quote(request[i]) */\n      dup2\n      dup2\n      mstore\n      pop\n      pop\n        /* \"contracts/StoixQuoter.sol\":642:645  i++ */\n      dup1\n      dup1\n      0x01\n      add\n      swap2\n      pop\n      pop\n        /* \"contracts/StoixQuoter.sol\":602:701  for (uint256 i = 0; i < request.length; i++) {... */\n      jump(tag_18)\n    tag_19:\n      pop\n        /* \"contracts/StoixQuoter.sol\":489:707  function batchQuotes(StoixQuoterRequest[] calldata request) external returns (uint256[] memory quotes) {... */\n      swap3\n      swap2\n      pop\n      pop\n      jump\t// out\n        /* \"contracts/StoixQuoter.sol\":267:483  function quote(StoixQuoterRequest calldata request) public returns (uint256 quote) { ... */\n    tag_14:\n        /* \"contracts/StoixQuoter.sol\":335:348  uint256 quote */\n      0x00\n        /* \"contracts/StoixQuoter.sol\":368:387  request.calcQuote() */\n      tag_28\n        /* \"contracts/StoixQuoter.sol\":368:375  request */\n      dup3\n        /* \"contracts/StoixQuoter.sol\":368:385  request.calcQuote */\n      tag_29\n        /* \"contracts/StoixQuoter.sol\":368:387  request.calcQuote() */\n      jump\t// in\n    tag_28:\n        /* \"contracts/StoixQuoter.sol\":361:387  return request.calcQuote() */\n      swap1\n      pop\n        /* \"contracts/StoixQuoter.sol\":267:483  function quote(StoixQuoterRequest calldata request) public returns (uint256 quote) { ... */\n      swap2\n      swap1\n      pop\n      jump\t// out\n        /* \"contracts/libraries/StoixQuoterLib.sol\":256:1319  function calcQuote(StoixQuoterRequest calldata r) internal pure returns (uint256 quote) {... */\n    tag_29:\n        /* \"contracts/libraries/StoixQuoterLib.sol\":329:342  uint256 quote */\n      0x00\n        /* \"contracts/libraries/StoixQuoterLib.sol\":354:372  Variables memory v */\n      tag_31\n      tag_32\n      jump\t// in\n    tag_31:\n        /* \"contracts/libraries/StoixQuoterLib.sol\":400:401  0 */\n      0x00\n        /* \"contracts/libraries/StoixQuoterLib.sol\":386:387  r */\n      dup4\n        /* \"contracts/libraries/StoixQuoterLib.sol\":386:396  r.bucketId */\n      0x00\n      add\n      calldataload\n        /* \"contracts/libraries/StoixQuoterLib.sol\":386:401  r.bucketId == 0 */\n      sub\n        /* \"contracts/libraries/StoixQuoterLib.sol\":382:1160  if (r.bucketId == 0) {... */\n      tag_33\n      jumpi\n        /* \"contracts/libraries/StoixQuoterLib.sol\":469:470  0 */\n      0x00\n        /* \"contracts/libraries/StoixQuoterLib.sol\":459:460  v */\n      dup2\n        /* \"contracts/libraries/StoixQuoterLib.sol\":459:466  v.alpha */\n      0x00\n      add\n        /* \"contracts/libraries/StoixQuoterLib.sol\":459:470  v.alpha = 0 */\n      dup2\n      dup2\n      mstore\n      pop\n      pop\n        /* \"contracts/libraries/StoixQuoterLib.sol\":493:495  80 */\n      0x50\n        /* \"contracts/libraries/StoixQuoterLib.sol\":484:485  v */\n      dup2\n        /* \"contracts/libraries/StoixQuoterLib.sol\":484:490  v.beta */\n      0x20\n      add\n        /* \"contracts/libraries/StoixQuoterLib.sol\":484:495  v.beta = 80 */\n      dup2\n      dup2\n      mstore\n      pop\n      pop\n        /* \"contracts/libraries/StoixQuoterLib.sol\":519:521  20 */\n      0x14\n        /* \"contracts/libraries/StoixQuoterLib.sol\":509:510  v */\n      dup2\n        /* \"contracts/libraries/StoixQuoterLib.sol\":509:516  v.gamma */\n      0x40\n      add\n        /* \"contracts/libraries/StoixQuoterLib.sol\":509:521  v.gamma = 20 */\n      dup2\n      dup2\n      mstore\n      pop\n      pop\n        /* \"contracts/libraries/StoixQuoterLib.sol\":382:1160  if (r.bucketId == 0) {... */\n      jump(tag_34)\n    tag_33:\n        /* \"contracts/libraries/StoixQuoterLib.sol\":556:557  1 */\n      0x01\n        /* \"contracts/libraries/StoixQuoterLib.sol\":542:543  r */\n      dup4\n        /* \"contracts/libraries/StoixQuoterLib.sol\":542:552  r.bucketId */\n      0x00\n      add\n      calldataload\n        /* \"contracts/libraries/StoixQuoterLib.sol\":542:557  r.bucketId == 1 */\n      sub\n        /* \"contracts/libraries/StoixQuoterLib.sol\":538:1160  if (r.bucketId == 1) {... */\n      tag_35\n      jumpi\n        /* \"contracts/libraries/StoixQuoterLib.sol\":625:627  10 */\n      0x0a\n        /* \"contracts/libraries/StoixQuoterLib.sol\":615:616  v */\n      dup2\n        /* \"contracts/libraries/StoixQuoterLib.sol\":615:622  v.alpha */\n      0x00\n      add\n        /* \"contracts/libraries/StoixQuoterLib.sol\":615:627  v.alpha = 10 */\n      dup2\n      dup2\n      mstore\n      pop\n      pop\n        /* \"contracts/libraries/StoixQuoterLib.sol\":650:652  70 */\n      0x46\n        /* \"contracts/libraries/StoixQuoterLib.sol\":641:642  v */\n      dup2\n        /* \"contracts/libraries/StoixQuoterLib.sol\":641:647  v.beta */\n      0x20\n      add\n        /* \"contracts/libraries/StoixQuoterLib.sol\":641:652  v.beta = 70 */\n      dup2\n      dup2\n      mstore\n      pop\n      pop\n        /* \"contracts/libraries/StoixQuoterLib.sol\":676:678  30 */\n      0x1e\n        /* \"contracts/libraries/StoixQuoterLib.sol\":666:667  v */\n      dup2\n        /* \"contracts/libraries/StoixQuoterLib.sol\":666:673  v.gamma */\n      0x40\n      add\n        /* \"contracts/libraries/StoixQuoterLib.sol\":666:678  v.gamma = 30 */\n      dup2\n      dup2\n      mstore\n      pop\n      pop\n        /* \"contracts/libraries/StoixQuoterLib.sol\":538:1160  if (r.bucketId == 1) {... */\n      jump(tag_36)\n    tag_35:\n        /* \"contracts/libraries/StoixQuoterLib.sol\":713:714  2 */\n      0x02\n        /* \"contracts/libraries/StoixQuoterLib.sol\":699:700  r */\n      dup4\n        /* \"contracts/libraries/StoixQuoterLib.sol\":699:709  r.bucketId */\n      0x00\n      add\n      calldataload\n        /* \"contracts/libraries/StoixQuoterLib.sol\":699:714  r.bucketId == 2 */\n      sub\n        /* \"contracts/libraries/StoixQuoterLib.sol\":695:1160  if (r.bucketId == 2) {... */\n      tag_37\n      jumpi\n        /* \"contracts/libraries/StoixQuoterLib.sol\":782:784  12 */\n      0x0c\n        /* \"contracts/libraries/StoixQuoterLib.sol\":772:773  v */\n      dup2\n        /* \"contracts/libraries/StoixQuoterLib.sol\":772:779  v.alpha */\n      0x00\n      add\n        /* \"contracts/libraries/StoixQuoterLib.sol\":772:784  v.alpha = 12 */\n      dup2\n      dup2\n      mstore\n      pop\n      pop\n        /* \"contracts/libraries/StoixQuoterLib.sol\":807:809  60 */\n      0x3c\n        /* \"contracts/libraries/StoixQuoterLib.sol\":798:799  v */\n      dup2\n        /* \"contracts/libraries/StoixQuoterLib.sol\":798:804  v.beta */\n      0x20\n      add\n        /* \"contracts/libraries/StoixQuoterLib.sol\":798:809  v.beta = 60 */\n      dup2\n      dup2\n      mstore\n      pop\n      pop\n        /* \"contracts/libraries/StoixQuoterLib.sol\":833:835  40 */\n      0x28\n        /* \"contracts/libraries/StoixQuoterLib.sol\":823:824  v */\n      dup2\n        /* \"contracts/libraries/StoixQuoterLib.sol\":823:830  v.gamma */\n      0x40\n      add\n        /* \"contracts/libraries/StoixQuoterLib.sol\":823:835  v.gamma = 40 */\n      dup2\n      dup2\n      mstore\n      pop\n      pop\n        /* \"contracts/libraries/StoixQuoterLib.sol\":695:1160  if (r.bucketId == 2) {... */\n      jump(tag_38)\n    tag_37:\n        /* \"contracts/libraries/StoixQuoterLib.sol\":870:871  3 */\n      0x03\n        /* \"contracts/libraries/StoixQuoterLib.sol\":856:857  r */\n      dup4\n        /* \"contracts/libraries/StoixQuoterLib.sol\":856:866  r.bucketId */\n      0x00\n      add\n      calldataload\n        /* \"contracts/libraries/StoixQuoterLib.sol\":856:871  r.bucketId == 3 */\n      sub\n        /* \"contracts/libraries/StoixQuoterLib.sol\":852:1160  if (r.bucketId == 3) {... */\n      tag_39\n      jumpi\n        /* \"contracts/libraries/StoixQuoterLib.sol\":939:941  15 */\n      0x0f\n        /* \"contracts/libraries/StoixQuoterLib.sol\":929:930  v */\n      dup2\n        /* \"contracts/libraries/StoixQuoterLib.sol\":929:936  v.alpha */\n      0x00\n      add\n        /* \"contracts/libraries/StoixQuoterLib.sol\":929:941  v.alpha = 15 */\n      dup2\n      dup2\n      mstore\n      pop\n      pop\n        /* \"contracts/libraries/StoixQuoterLib.sol\":964:966  50 */\n      0x32\n        /* \"contracts/libraries/StoixQuoterLib.sol\":955:956  v */\n      dup2\n        /* \"contracts/libraries/StoixQuoterLib.sol\":955:961  v.beta */\n      0x20\n      add\n        /* \"contracts/libraries/StoixQuoterLib.sol\":955:966  v.beta = 50 */\n      dup2\n      dup2\n      mstore\n      pop\n      pop\n        /* \"contracts/libraries/StoixQuoterLib.sol\":990:992  50 */\n      0x32\n        /* \"contracts/libraries/StoixQuoterLib.sol\":980:981  v */\n      dup2\n        /* \"contracts/libraries/StoixQuoterLib.sol\":980:987  v.gamma */\n      0x40\n      add\n        /* \"contracts/libraries/StoixQuoterLib.sol\":980:992  v.gamma = 50 */\n      dup2\n      dup2\n      mstore\n      pop\n      pop\n        /* \"contracts/libraries/StoixQuoterLib.sol\":852:1160  if (r.bucketId == 3) {... */\n      jump(tag_40)\n    tag_39:\n        /* \"contracts/libraries/StoixQuoterLib.sol\":1027:1028  4 */\n      0x04\n        /* \"contracts/libraries/StoixQuoterLib.sol\":1013:1014  r */\n      dup4\n        /* \"contracts/libraries/StoixQuoterLib.sol\":1013:1023  r.bucketId */\n      0x00\n      add\n      calldataload\n        /* \"contracts/libraries/StoixQuoterLib.sol\":1013:1028  r.bucketId == 4 */\n      sub\n        /* \"contracts/libraries/StoixQuoterLib.sol\":1009:1160  if (r.bucketId == 4) {... */\n      tag_41\n      jumpi\n        /* \"contracts/libraries/StoixQuoterLib.sol\":1096:1098  20 */\n      0x14\n        /* \"contracts/libraries/StoixQuoterLib.sol\":1086:1087  v */\n      dup2\n        /* \"contracts/libraries/StoixQuoterLib.sol\":1086:1093  v.alpha */\n      0x00\n      add\n        /* \"contracts/libraries/StoixQuoterLib.sol\":1086:1098  v.alpha = 20 */\n      dup2\n      dup2\n      mstore\n      pop\n      pop\n        /* \"contracts/libraries/StoixQuoterLib.sol\":1121:1123  30 */\n      0x1e\n        /* \"contracts/libraries/StoixQuoterLib.sol\":1112:1113  v */\n      dup2\n        /* \"contracts/libraries/StoixQuoterLib.sol\":1112:1118  v.beta */\n      0x20\n      add\n        /* \"contracts/libraries/StoixQuoterLib.sol\":1112:1123  v.beta = 30 */\n      dup2\n      dup2\n      mstore\n      pop\n      pop\n        /* \"contracts/libraries/StoixQuoterLib.sol\":1147:1149  70 */\n      0x46\n        /* \"contracts/libraries/StoixQuoterLib.sol\":1137:1138  v */\n      dup2\n        /* \"contracts/libraries/StoixQuoterLib.sol\":1137:1144  v.gamma */\n      0x40\n      add\n        /* \"contracts/libraries/StoixQuoterLib.sol\":1137:1149  v.gamma = 70 */\n      dup2\n      dup2\n      mstore\n      pop\n      pop\n        /* \"contracts/libraries/StoixQuoterLib.sol\":1009:1160  if (r.bucketId == 4) {... */\n    tag_41:\n        /* \"contracts/libraries/StoixQuoterLib.sol\":852:1160  if (r.bucketId == 3) {... */\n    tag_40:\n        /* \"contracts/libraries/StoixQuoterLib.sol\":695:1160  if (r.bucketId == 2) {... */\n    tag_38:\n        /* \"contracts/libraries/StoixQuoterLib.sol\":538:1160  if (r.bucketId == 1) {... */\n    tag_36:\n        /* \"contracts/libraries/StoixQuoterLib.sol\":382:1160  if (r.bucketId == 0) {... */\n    tag_34:\n        /* \"contracts/libraries/StoixQuoterLib.sol\":1308:1311  100 */\n      0x64\n        /* \"contracts/libraries/StoixQuoterLib.sol\":1288:1289  r */\n      dup4\n        /* \"contracts/libraries/StoixQuoterLib.sol\":1288:1300  r.marketData */\n      0x20\n      add\n        /* \"contracts/libraries/StoixQuoterLib.sol\":1288:1304  r.marketData.twa */\n      0x20\n      add\n      calldataload\n        /* \"contracts/libraries/StoixQuoterLib.sol\":1278:1279  v */\n      dup3\n        /* \"contracts/libraries/StoixQuoterLib.sol\":1278:1285  v.gamma */\n      0x40\n      add\n      mload\n        /* \"contracts/libraries/StoixQuoterLib.sol\":1278:1304  v.gamma * r.marketData.twa */\n      tag_42\n      swap2\n      swap1\n      tag_43\n      jump\t// in\n    tag_42:\n        /* \"contracts/libraries/StoixQuoterLib.sol\":1258:1259  r */\n      dup5\n        /* \"contracts/libraries/StoixQuoterLib.sol\":1258:1270  r.marketData */\n      0x20\n      add\n        /* \"contracts/libraries/StoixQuoterLib.sol\":1258:1275  r.marketData.spot */\n      0x00\n      add\n      calldataload\n        /* \"contracts/libraries/StoixQuoterLib.sol\":1249:1250  v */\n      dup4\n        /* \"contracts/libraries/StoixQuoterLib.sol\":1249:1255  v.beta */\n      0x20\n      add\n      mload\n        /* \"contracts/libraries/StoixQuoterLib.sol\":1249:1275  v.beta * r.marketData.spot */\n      tag_44\n      swap2\n      swap1\n      tag_43\n      jump\t// in\n    tag_44:\n        /* \"contracts/libraries/StoixQuoterLib.sol\":1239:1240  v */\n      dup4\n        /* \"contracts/libraries/StoixQuoterLib.sol\":1239:1246  v.alpha */\n      0x00\n      add\n      mload\n        /* \"contracts/libraries/StoixQuoterLib.sol\":1239:1275  v.alpha + v.beta * r.marketData.spot */\n      tag_45\n      swap2\n      swap1\n      tag_46\n      jump\t// in\n    tag_45:\n        /* \"contracts/libraries/StoixQuoterLib.sol\":1239:1304  v.alpha + v.beta * r.marketData.spot + v.gamma * r.marketData.twa */\n      tag_47\n      swap2\n      swap1\n      tag_46\n      jump\t// in\n    tag_47:\n        /* \"contracts/libraries/StoixQuoterLib.sol\":1238:1311  (v.alpha + v.beta * r.marketData.spot + v.gamma * r.marketData.twa) / 100 */\n      tag_48\n      swap2\n      swap1\n      tag_49\n      jump\t// in\n    tag_48:\n        /* \"contracts/libraries/StoixQuoterLib.sol\":1230:1311  quote = (v.alpha + v.beta * r.marketData.spot + v.gamma * r.marketData.twa) / 100 */\n      swap2\n      pop\n        /* \"contracts/libraries/StoixQuoterLib.sol\":344:1319  {... */\n      pop\n        /* \"contracts/libraries/StoixQuoterLib.sol\":256:1319  function calcQuote(StoixQuoterRequest calldata r) internal pure returns (uint256 quote) {... */\n      swap2\n      swap1\n      pop\n      jump\t// out\n    tag_32:\n      mload(0x40)\n      dup1\n      0x60\n      add\n      0x40\n      mstore\n      dup1\n      0x00\n      dup2\n      mstore\n      0x20\n      add\n      0x00\n      dup2\n      mstore\n      0x20\n      add\n      0x00\n      dup2\n      mstore\n      pop\n      swap1\n      jump\t// out\n        /* \"#utility.yul\":88:205   */\n    tag_51:\n        /* \"#utility.yul\":197:198   */\n      0x00\n        /* \"#utility.yul\":194:195   */\n      0x00\n        /* \"#utility.yul\":187:199   */\n      revert\n        /* \"#utility.yul\":211:328   */\n    tag_52:\n        /* \"#utility.yul\":320:321   */\n      0x00\n        /* \"#utility.yul\":317:318   */\n      0x00\n        /* \"#utility.yul\":310:322   */\n      revert\n        /* \"#utility.yul\":334:451   */\n    tag_53:\n        /* \"#utility.yul\":443:444   */\n      0x00\n        /* \"#utility.yul\":440:441   */\n      0x00\n        /* \"#utility.yul\":433:445   */\n      revert\n        /* \"#utility.yul\":457:574   */\n    tag_54:\n        /* \"#utility.yul\":566:567   */\n      0x00\n        /* \"#utility.yul\":563:564   */\n      0x00\n        /* \"#utility.yul\":556:568   */\n      revert\n        /* \"#utility.yul\":580:697   */\n    tag_55:\n        /* \"#utility.yul\":689:690   */\n      0x00\n        /* \"#utility.yul\":686:687   */\n      0x00\n        /* \"#utility.yul\":679:691   */\n      revert\n        /* \"#utility.yul\":738:1343   */\n    tag_56:\n        /* \"#utility.yul\":848:856   */\n      0x00\n        /* \"#utility.yul\":858:864   */\n      0x00\n        /* \"#utility.yul\":908:911   */\n      dup4\n        /* \"#utility.yul\":901:905   */\n      0x1f\n        /* \"#utility.yul\":893:899   */\n      dup5\n        /* \"#utility.yul\":889:906   */\n      add\n        /* \"#utility.yul\":885:912   */\n      slt\n        /* \"#utility.yul\":875:997   */\n      tag_78\n      jumpi\n        /* \"#utility.yul\":916:995   */\n      tag_79\n      tag_53\n      jump\t// in\n    tag_79:\n        /* \"#utility.yul\":875:997   */\n    tag_78:\n        /* \"#utility.yul\":1029:1035   */\n      dup3\n        /* \"#utility.yul\":1016:1036   */\n      calldataload\n        /* \"#utility.yul\":1006:1036   */\n      swap1\n      pop\n        /* \"#utility.yul\":1059:1077   */\n      0xffffffffffffffff\n        /* \"#utility.yul\":1051:1057   */\n      dup2\n        /* \"#utility.yul\":1048:1078   */\n      gt\n        /* \"#utility.yul\":1045:1162   */\n      iszero\n      tag_80\n      jumpi\n        /* \"#utility.yul\":1081:1160   */\n      tag_81\n      tag_54\n      jump\t// in\n    tag_81:\n        /* \"#utility.yul\":1045:1162   */\n    tag_80:\n        /* \"#utility.yul\":1195:1199   */\n      0x20\n        /* \"#utility.yul\":1187:1193   */\n      dup4\n        /* \"#utility.yul\":1183:1200   */\n      add\n        /* \"#utility.yul\":1171:1200   */\n      swap2\n      pop\n        /* \"#utility.yul\":1249:1252   */\n      dup4\n        /* \"#utility.yul\":1241:1245   */\n      0xe0\n        /* \"#utility.yul\":1233:1239   */\n      dup3\n        /* \"#utility.yul\":1229:1246   */\n      mul\n        /* \"#utility.yul\":1219:1227   */\n      dup4\n        /* \"#utility.yul\":1215:1247   */\n      add\n        /* \"#utility.yul\":1212:1253   */\n      gt\n        /* \"#utility.yul\":1209:1337   */\n      iszero\n      tag_82\n      jumpi\n        /* \"#utility.yul\":1256:1335   */\n      tag_83\n      tag_55\n      jump\t// in\n    tag_83:\n        /* \"#utility.yul\":1209:1337   */\n    tag_82:\n        /* \"#utility.yul\":738:1343   */\n      swap3\n      pop\n      swap3\n      swap1\n      pop\n      jump\t// out\n        /* \"#utility.yul\":1349:1982   */\n    tag_7:\n        /* \"#utility.yul\":1472:1478   */\n      0x00\n        /* \"#utility.yul\":1480:1486   */\n      0x00\n        /* \"#utility.yul\":1529:1531   */\n      0x20\n        /* \"#utility.yul\":1517:1526   */\n      dup4\n        /* \"#utility.yul\":1508:1515   */\n      dup6\n        /* \"#utility.yul\":1504:1527   */\n      sub\n        /* \"#utility.yul\":1500:1532   */\n      slt\n        /* \"#utility.yul\":1497:1616   */\n      iszero\n      tag_85\n      jumpi\n        /* \"#utility.yul\":1535:1614   */\n      tag_86\n      tag_51\n      jump\t// in\n    tag_86:\n        /* \"#utility.yul\":1497:1616   */\n    tag_85:\n        /* \"#utility.yul\":1683:1684   */\n      0x00\n        /* \"#utility.yul\":1672:1681   */\n      dup4\n        /* \"#utility.yul\":1668:1685   */\n      add\n        /* \"#utility.yul\":1655:1686   */\n      calldataload\n        /* \"#utility.yul\":1713:1731   */\n      0xffffffffffffffff\n        /* \"#utility.yul\":1705:1711   */\n      dup2\n        /* \"#utility.yul\":1702:1732   */\n      gt\n        /* \"#utility.yul\":1699:1816   */\n      iszero\n      tag_87\n      jumpi\n        /* \"#utility.yul\":1735:1814   */\n      tag_88\n      tag_52\n      jump\t// in\n    tag_88:\n        /* \"#utility.yul\":1699:1816   */\n    tag_87:\n        /* \"#utility.yul\":1848:1965   */\n      tag_89\n        /* \"#utility.yul\":1957:1964   */\n      dup6\n        /* \"#utility.yul\":1948:1954   */\n      dup3\n        /* \"#utility.yul\":1937:1946   */\n      dup7\n        /* \"#utility.yul\":1933:1955   */\n      add\n        /* \"#utility.yul\":1848:1965   */\n      tag_56\n      jump\t// in\n    tag_89:\n        /* \"#utility.yul\":1830:1965   */\n      swap3\n      pop\n      swap3\n      pop\n        /* \"#utility.yul\":1626:1975   */\n      pop\n        /* \"#utility.yul\":1349:1982   */\n      swap3\n      pop\n      swap3\n      swap1\n      pop\n      jump\t// out\n        /* \"#utility.yul\":1988:2102   */\n    tag_57:\n        /* \"#utility.yul\":2055:2061   */\n      0x00\n        /* \"#utility.yul\":2089:2094   */\n      dup2\n        /* \"#utility.yul\":2083:2095   */\n      mload\n        /* \"#utility.yul\":2073:2095   */\n      swap1\n      pop\n        /* \"#utility.yul\":1988:2102   */\n      swap2\n      swap1\n      pop\n      jump\t// out\n        /* \"#utility.yul\":2108:2292   */\n    tag_58:\n        /* \"#utility.yul\":2207:2218   */\n      0x00\n        /* \"#utility.yul\":2241:2247   */\n      dup3\n        /* \"#utility.yul\":2236:2239   */\n      dup3\n        /* \"#utility.yul\":2229:2248   */\n      mstore\n        /* \"#utility.yul\":2281:2285   */\n      0x20\n        /* \"#utility.yul\":2276:2279   */\n      dup3\n        /* \"#utility.yul\":2272:2286   */\n      add\n        /* \"#utility.yul\":2257:2286   */\n      swap1\n      pop\n        /* \"#utility.yul\":2108:2292   */\n      swap3\n      swap2\n      pop\n      pop\n      jump\t// out\n        /* \"#utility.yul\":2298:2430   */\n    tag_59:\n        /* \"#utility.yul\":2365:2369   */\n      0x00\n        /* \"#utility.yul\":2388:2391   */\n      dup2\n        /* \"#utility.yul\":2380:2391   */\n      swap1\n      pop\n        /* \"#utility.yul\":2418:2422   */\n      0x20\n        /* \"#utility.yul\":2413:2416   */\n      dup3\n        /* \"#utility.yul\":2409:2423   */\n      add\n        /* \"#utility.yul\":2401:2423   */\n      swap1\n      pop\n        /* \"#utility.yul\":2298:2430   */\n      swap2\n      swap1\n      pop\n      jump\t// out\n        /* \"#utility.yul\":2436:2513   */\n    tag_60:\n        /* \"#utility.yul\":2473:2480   */\n      0x00\n        /* \"#utility.yul\":2502:2507   */\n      dup2\n        /* \"#utility.yul\":2491:2507   */\n      swap1\n      pop\n        /* \"#utility.yul\":2436:2513   */\n      swap2\n      swap1\n      pop\n      jump\t// out\n        /* \"#utility.yul\":2519:2627   */\n    tag_61:\n        /* \"#utility.yul\":2596:2620   */\n      tag_95\n        /* \"#utility.yul\":2614:2619   */\n      dup2\n        /* \"#utility.yul\":2596:2620   */\n      tag_60\n      jump\t// in\n    tag_95:\n        /* \"#utility.yul\":2591:2594   */\n      dup3\n        /* \"#utility.yul\":2584:2621   */\n      mstore\n        /* \"#utility.yul\":2519:2627   */\n      pop\n      pop\n      jump\t// out\n        /* \"#utility.yul\":2633:2812   */\n    tag_62:\n        /* \"#utility.yul\":2702:2712   */\n      0x00\n        /* \"#utility.yul\":2723:2769   */\n      tag_97\n        /* \"#utility.yul\":2765:2768   */\n      dup4\n        /* \"#utility.yul\":2757:2763   */\n      dup4\n        /* \"#utility.yul\":2723:2769   */\n      tag_61\n      jump\t// in\n    tag_97:\n        /* \"#utility.yul\":2801:2805   */\n      0x20\n        /* \"#utility.yul\":2796:2799   */\n      dup4\n        /* \"#utility.yul\":2792:2806   */\n      add\n        /* \"#utility.yul\":2778:2806   */\n      swap1\n      pop\n        /* \"#utility.yul\":2633:2812   */\n      swap3\n      swap2\n      pop\n      pop\n      jump\t// out\n        /* \"#utility.yul\":2818:2931   */\n    tag_63:\n        /* \"#utility.yul\":2888:2892   */\n      0x00\n        /* \"#utility.yul\":2920:2924   */\n      0x20\n        /* \"#utility.yul\":2915:2918   */\n      dup3\n        /* \"#utility.yul\":2911:2925   */\n      add\n        /* \"#utility.yul\":2903:2925   */\n      swap1\n      pop\n        /* \"#utility.yul\":2818:2931   */\n      swap2\n      swap1\n      pop\n      jump\t// out\n        /* \"#utility.yul\":2967:3699   */\n    tag_64:\n        /* \"#utility.yul\":3086:3089   */\n      0x00\n        /* \"#utility.yul\":3115:3169   */\n      tag_100\n        /* \"#utility.yul\":3163:3168   */\n      dup3\n        /* \"#utility.yul\":3115:3169   */\n      tag_57\n      jump\t// in\n    tag_100:\n        /* \"#utility.yul\":3185:3271   */\n      tag_101\n        /* \"#utility.yul\":3264:3270   */\n      dup2\n        /* \"#utility.yul\":3259:3262   */\n      dup6\n        /* \"#utility.yul\":3185:3271   */\n      tag_58\n      jump\t// in\n    tag_101:\n        /* \"#utility.yul\":3178:3271   */\n      swap4\n      pop\n        /* \"#utility.yul\":3295:3351   */\n      tag_102\n        /* \"#utility.yul\":3345:3350   */\n      dup4\n        /* \"#utility.yul\":3295:3351   */\n      tag_59\n      jump\t// in\n    tag_102:\n        /* \"#utility.yul\":3374:3381   */\n      dup1\n        /* \"#utility.yul\":3405:3406   */\n      0x00\n        /* \"#utility.yul\":3390:3674   */\n    tag_103:\n        /* \"#utility.yul\":3415:3421   */\n      dup4\n        /* \"#utility.yul\":3412:3413   */\n      dup2\n        /* \"#utility.yul\":3409:3422   */\n      lt\n        /* \"#utility.yul\":3390:3674   */\n      iszero\n      tag_105\n      jumpi\n        /* \"#utility.yul\":3491:3497   */\n      dup2\n        /* \"#utility.yul\":3485:3498   */\n      mload\n        /* \"#utility.yul\":3518:3581   */\n      tag_106\n        /* \"#utility.yul\":3577:3580   */\n      dup9\n        /* \"#utility.yul\":3562:3575   */\n      dup3\n        /* \"#utility.yul\":3518:3581   */\n      tag_62\n      jump\t// in\n    tag_106:\n        /* \"#utility.yul\":3511:3581   */\n      swap8\n      pop\n        /* \"#utility.yul\":3604:3664   */\n      tag_107\n        /* \"#utility.yul\":3657:3663   */\n      dup4\n        /* \"#utility.yul\":3604:3664   */\n      tag_63\n      jump\t// in\n    tag_107:\n        /* \"#utility.yul\":3594:3664   */\n      swap3\n      pop\n        /* \"#utility.yul\":3450:3674   */\n      pop\n        /* \"#utility.yul\":3437:3438   */\n      0x01\n        /* \"#utility.yul\":3434:3435   */\n      dup2\n        /* \"#utility.yul\":3430:3439   */\n      add\n        /* \"#utility.yul\":3425:3439   */\n      swap1\n      pop\n        /* \"#utility.yul\":3390:3674   */\n      jump(tag_103)\n    tag_105:\n        /* \"#utility.yul\":3394:3408   */\n      pop\n        /* \"#utility.yul\":3690:3693   */\n      dup6\n        /* \"#utility.yul\":3683:3693   */\n      swap4\n      pop\n        /* \"#utility.yul\":3091:3699   */\n      pop\n      pop\n      pop\n        /* \"#utility.yul\":2967:3699   */\n      swap3\n      swap2\n      pop\n      pop\n      jump\t// out\n        /* \"#utility.yul\":3705:4078   */\n    tag_10:\n        /* \"#utility.yul\":3848:3852   */\n      0x00\n        /* \"#utility.yul\":3886:3888   */\n      0x20\n        /* \"#utility.yul\":3875:3884   */\n      dup3\n        /* \"#utility.yul\":3871:3889   */\n      add\n        /* \"#utility.yul\":3863:3889   */\n      swap1\n      pop\n        /* \"#utility.yul\":3935:3944   */\n      dup2\n        /* \"#utility.yul\":3929:3933   */\n      dup2\n        /* \"#utility.yul\":3925:3945   */\n      sub\n        /* \"#utility.yul\":3921:3922   */\n      0x00\n        /* \"#utility.yul\":3910:3919   */\n      dup4\n        /* \"#utility.yul\":3906:3923   */\n      add\n        /* \"#utility.yul\":3899:3946   */\n      mstore\n        /* \"#utility.yul\":3963:4071   */\n      tag_109\n        /* \"#utility.yul\":4066:4070   */\n      dup2\n        /* \"#utility.yul\":4057:4063   */\n      dup5\n        /* \"#utility.yul\":3963:4071   */\n      tag_64\n      jump\t// in\n    tag_109:\n        /* \"#utility.yul\":3955:4071   */\n      swap1\n      pop\n        /* \"#utility.yul\":3705:4078   */\n      swap3\n      swap2\n      pop\n      pop\n      jump\t// out\n        /* \"#utility.yul\":4084:4201   */\n    tag_65:\n        /* \"#utility.yul\":4193:4194   */\n      0x00\n        /* \"#utility.yul\":4190:4191   */\n      0x00\n        /* \"#utility.yul\":4183:4195   */\n      revert\n        /* \"#utility.yul\":4240:4482   */\n    tag_66:\n        /* \"#utility.yul\":4323:4328   */\n      0x00\n        /* \"#utility.yul\":4364:4367   */\n      0xe0\n        /* \"#utility.yul\":4355:4361   */\n      dup3\n        /* \"#utility.yul\":4350:4353   */\n      dup5\n        /* \"#utility.yul\":4346:4362   */\n      sub\n        /* \"#utility.yul\":4342:4368   */\n      slt\n        /* \"#utility.yul\":4339:4452   */\n      iszero\n      tag_112\n      jumpi\n        /* \"#utility.yul\":4371:4450   */\n      tag_113\n      tag_65\n      jump\t// in\n    tag_113:\n        /* \"#utility.yul\":4339:4452   */\n    tag_112:\n        /* \"#utility.yul\":4470:4476   */\n      dup2\n        /* \"#utility.yul\":4461:4476   */\n      swap1\n      pop\n        /* \"#utility.yul\":4240:4482   */\n      swap3\n      swap2\n      pop\n      pop\n      jump\t// out\n        /* \"#utility.yul\":4488:4892   */\n    tag_13:\n        /* \"#utility.yul\":4584:4590   */\n      0x00\n        /* \"#utility.yul\":4633:4636   */\n      0xe0\n        /* \"#utility.yul\":4621:4630   */\n      dup3\n        /* \"#utility.yul\":4612:4619   */\n      dup5\n        /* \"#utility.yul\":4608:4631   */\n      sub\n        /* \"#utility.yul\":4604:4637   */\n      slt\n        /* \"#utility.yul\":4601:4721   */\n      iszero\n      tag_115\n      jumpi\n        /* \"#utility.yul\":4640:4719   */\n      tag_116\n      tag_51\n      jump\t// in\n    tag_116:\n        /* \"#utility.yul\":4601:4721   */\n    tag_115:\n        /* \"#utility.yul\":4760:4761   */\n      0x00\n        /* \"#utility.yul\":4785:4875   */\n      tag_117\n        /* \"#utility.yul\":4867:4874   */\n      dup5\n        /* \"#utility.yul\":4858:4864   */\n      dup3\n        /* \"#utility.yul\":4847:4856   */\n      dup6\n        /* \"#utility.yul\":4843:4865   */\n      add\n        /* \"#utility.yul\":4785:4875   */\n      tag_66\n      jump\t// in\n    tag_117:\n        /* \"#utility.yul\":4775:4875   */\n      swap2\n      pop\n        /* \"#utility.yul\":4731:4885   */\n      pop\n        /* \"#utility.yul\":4488:4892   */\n      swap3\n      swap2\n      pop\n      pop\n      jump\t// out\n        /* \"#utility.yul\":4898:5016   */\n    tag_67:\n        /* \"#utility.yul\":4985:5009   */\n      tag_119\n        /* \"#utility.yul\":5003:5008   */\n      dup2\n        /* \"#utility.yul\":4985:5009   */\n      tag_60\n      jump\t// in\n    tag_119:\n        /* \"#utility.yul\":4980:4983   */\n      dup3\n        /* \"#utility.yul\":4973:5010   */\n      mstore\n        /* \"#utility.yul\":4898:5016   */\n      pop\n      pop\n      jump\t// out\n        /* \"#utility.yul\":5022:5244   */\n    tag_16:\n        /* \"#utility.yul\":5115:5119   */\n      0x00\n        /* \"#utility.yul\":5153:5155   */\n      0x20\n        /* \"#utility.yul\":5142:5151   */\n      dup3\n        /* \"#utility.yul\":5138:5156   */\n      add\n        /* \"#utility.yul\":5130:5156   */\n      swap1\n      pop\n        /* \"#utility.yul\":5166:5237   */\n      tag_121\n        /* \"#utility.yul\":5234:5235   */\n      0x00\n        /* \"#utility.yul\":5223:5232   */\n      dup4\n        /* \"#utility.yul\":5219:5236   */\n      add\n        /* \"#utility.yul\":5210:5216   */\n      dup5\n        /* \"#utility.yul\":5166:5237   */\n      tag_67\n      jump\t// in\n    tag_121:\n        /* \"#utility.yul\":5022:5244   */\n      swap3\n      swap2\n      pop\n      pop\n      jump\t// out\n        /* \"#utility.yul\":5250:5430   */\n    tag_24:\n        /* \"#utility.yul\":5298:5375   */\n      0x4e487b7100000000000000000000000000000000000000000000000000000000\n        /* \"#utility.yul\":5295:5296   */\n      0x00\n        /* \"#utility.yul\":5288:5376   */\n      mstore\n        /* \"#utility.yul\":5395:5399   */\n      0x32\n        /* \"#utility.yul\":5392:5393   */\n      0x04\n        /* \"#utility.yul\":5385:5400   */\n      mstore\n        /* \"#utility.yul\":5419:5423   */\n      0x24\n        /* \"#utility.yul\":5416:5417   */\n      0x00\n        /* \"#utility.yul\":5409:5424   */\n      revert\n        /* \"#utility.yul\":5436:5616   */\n    tag_68:\n        /* \"#utility.yul\":5484:5561   */\n      0x4e487b7100000000000000000000000000000000000000000000000000000000\n        /* \"#utility.yul\":5481:5482   */\n      0x00\n        /* \"#utility.yul\":5474:5562   */\n      mstore\n        /* \"#utility.yul\":5581:5585   */\n      0x11\n        /* \"#utility.yul\":5578:5579   */\n      0x04\n        /* \"#utility.yul\":5571:5586   */\n      mstore\n        /* \"#utility.yul\":5605:5609   */\n      0x24\n        /* \"#utility.yul\":5602:5603   */\n      0x00\n        /* \"#utility.yul\":5595:5610   */\n      revert\n        /* \"#utility.yul\":5622:6032   */\n    tag_43:\n        /* \"#utility.yul\":5662:5669   */\n      0x00\n        /* \"#utility.yul\":5685:5705   */\n      tag_125\n        /* \"#utility.yul\":5703:5704   */\n      dup3\n        /* \"#utility.yul\":5685:5705   */\n      tag_60\n      jump\t// in\n    tag_125:\n        /* \"#utility.yul\":5680:5705   */\n      swap2\n      pop\n        /* \"#utility.yul\":5719:5739   */\n      tag_126\n        /* \"#utility.yul\":5737:5738   */\n      dup4\n        /* \"#utility.yul\":5719:5739   */\n      tag_60\n      jump\t// in\n    tag_126:\n        /* \"#utility.yul\":5714:5739   */\n      swap3\n      pop\n        /* \"#utility.yul\":5774:5775   */\n      dup3\n        /* \"#utility.yul\":5771:5772   */\n      dup3\n        /* \"#utility.yul\":5767:5776   */\n      mul\n        /* \"#utility.yul\":5796:5826   */\n      tag_127\n        /* \"#utility.yul\":5814:5825   */\n      dup2\n        /* \"#utility.yul\":5796:5826   */\n      tag_60\n      jump\t// in\n    tag_127:\n        /* \"#utility.yul\":5785:5826   */\n      swap2\n      pop\n        /* \"#utility.yul\":5975:5976   */\n      dup3\n        /* \"#utility.yul\":5966:5973   */\n      dup3\n        /* \"#utility.yul\":5962:5977   */\n      div\n        /* \"#utility.yul\":5959:5960   */\n      dup5\n        /* \"#utility.yul\":5956:5978   */\n      eq\n        /* \"#utility.yul\":5936:5937   */\n      dup4\n        /* \"#utility.yul\":5929:5938   */\n      iszero\n        /* \"#utility.yul\":5909:5992   */\n      or\n        /* \"#utility.yul\":5886:6025   */\n      tag_128\n      jumpi\n        /* \"#utility.yul\":6005:6023   */\n      tag_129\n      tag_68\n      jump\t// in\n    tag_129:\n        /* \"#utility.yul\":5886:6025   */\n    tag_128:\n        /* \"#utility.yul\":5670:6032   */\n      pop\n        /* \"#utility.yul\":5622:6032   */\n      swap3\n      swap2\n      pop\n      pop\n      jump\t// out\n        /* \"#utility.yul\":6038:6229   */\n    tag_46:\n        /* \"#utility.yul\":6078:6081   */\n      0x00\n        /* \"#utility.yul\":6097:6117   */\n      tag_131\n        /* \"#utility.yul\":6115:6116   */\n      dup3\n        /* \"#utility.yul\":6097:6117   */\n      tag_60\n      jump\t// in\n    tag_131:\n        /* \"#utility.yul\":6092:6117   */\n      swap2\n      pop\n        /* \"#utility.yul\":6131:6151   */\n      tag_132\n        /* \"#utility.yul\":6149:6150   */\n      dup4\n        /* \"#utility.yul\":6131:6151   */\n      tag_60\n      jump\t// in\n    tag_132:\n        /* \"#utility.yul\":6126:6151   */\n      swap3\n      pop\n        /* \"#utility.yul\":6174:6175   */\n      dup3\n        /* \"#utility.yul\":6171:6172   */\n      dup3\n        /* \"#utility.yul\":6167:6176   */\n      add\n        /* \"#utility.yul\":6160:6176   */\n      swap1\n      pop\n        /* \"#utility.yul\":6195:6198   */\n      dup1\n        /* \"#utility.yul\":6192:6193   */\n      dup3\n        /* \"#utility.yul\":6189:6199   */\n      gt\n        /* \"#utility.yul\":6186:6222   */\n      iszero\n      tag_133\n      jumpi\n        /* \"#utility.yul\":6202:6220   */\n      tag_134\n      tag_68\n      jump\t// in\n    tag_134:\n        /* \"#utility.yul\":6186:6222   */\n    tag_133:\n        /* \"#utility.yul\":6038:6229   */\n      swap3\n      swap2\n      pop\n      pop\n      jump\t// out\n        /* \"#utility.yul\":6235:6415   */\n    tag_69:\n        /* \"#utility.yul\":6283:6360   */\n      0x4e487b7100000000000000000000000000000000000000000000000000000000\n        /* \"#utility.yul\":6280:6281   */\n      0x00\n        /* \"#utility.yul\":6273:6361   */\n      mstore\n        /* \"#utility.yul\":6380:6384   */\n      0x12\n        /* \"#utility.yul\":6377:6378   */\n      0x04\n        /* \"#utility.yul\":6370:6385   */\n      mstore\n        /* \"#utility.yul\":6404:6408   */\n      0x24\n        /* \"#utility.yul\":6401:6402   */\n      0x00\n        /* \"#utility.yul\":6394:6409   */\n      revert\n        /* \"#utility.yul\":6421:6606   */\n    tag_49:\n        /* \"#utility.yul\":6461:6462   */\n      0x00\n        /* \"#utility.yul\":6478:6498   */\n      tag_137\n        /* \"#utility.yul\":6496:6497   */\n      dup3\n        /* \"#utility.yul\":6478:6498   */\n      tag_60\n      jump\t// in\n    tag_137:\n        /* \"#utility.yul\":6473:6498   */\n      swap2\n      pop\n        /* \"#utility.yul\":6512:6532   */\n      tag_138\n        /* \"#utility.yul\":6530:6531   */\n      dup4\n        /* \"#utility.yul\":6512:6532   */\n      tag_60\n      jump\t// in\n    tag_138:\n        /* \"#utility.yul\":6507:6532   */\n      swap3\n      pop\n        /* \"#utility.yul\":6551:6552   */\n      dup3\n        /* \"#utility.yul\":6541:6576   */\n      tag_139\n      jumpi\n        /* \"#utility.yul\":6556:6574   */\n      tag_140\n      tag_69\n      jump\t// in\n    tag_140:\n        /* \"#utility.yul\":6541:6576   */\n    tag_139:\n        /* \"#utility.yul\":6598:6599   */\n      dup3\n        /* \"#utility.yul\":6595:6596   */\n      dup3\n        /* \"#utility.yul\":6591:6600   */\n      div\n        /* \"#utility.yul\":6586:6600   */\n      swap1\n      pop\n        /* \"#utility.yul\":6421:6606   */\n      swap3\n      swap2\n      pop\n      pop\n      jump\t// out\n\n    auxdata: 0xa26469706673582212201bedc09db1aeaf2e47650d9fb3ed6ca8c394706a3045d0137a1b2bc4816aa71764736f6c634300081b0033\n}\n",
				"bytecode": {
					"linkReferences": {},
					"object": "6080604052348015600e575f5ffd5b506105e78061001c5f395ff3fe608060405234801561000f575f5ffd5b5060043610610034575f3560e01c80636fba3af614610038578063e176b36014610068575b5f5ffd5b610052600480360381019061004d91906102e6565b610098565b60405161005f91906103f1565b60405180910390f35b610082600480360381019061007d9190610433565b6100fe565b60405161008f919061046d565b60405180910390f35b60605f5f90505b838390508110156100f7576100cb8484838181106100c0576100bf610486565b5b905060e002016100fe565b8282815181106100de576100dd610486565b5b602002602001018181525050808060010191505061009f565b5092915050565b5f6101088261010f565b9050919050565b5f61011861025f565b5f835f013503610146575f815f01818152505060508160200181815250506014816040018181525050610206565b6001835f01350361017657600a815f0181815250506046816020018181525050601e816040018181525050610205565b6002835f0135036101a657600c815f018181525050603c8160200181815250506028816040018181525050610204565b6003835f0135036101d657600f815f01818152505060328160200181815250506032816040018181525050610203565b6004835f013503610202576014815f018181525050601e81602001818152505060468160400181815250505b5b5b5b5b60648360200160200135826040015161021f91906104e0565b846020015f0135836020015161023591906104e0565b835f01516102439190610521565b61024d9190610521565b6102579190610581565b915050919050565b60405180606001604052805f81526020015f81526020015f81525090565b5f5ffd5b5f5ffd5b5f5ffd5b5f5ffd5b5f5ffd5b5f5f83601f8401126102a6576102a5610285565b5b8235905067ffffffffffffffff8111156102c3576102c2610289565b5b6020830191508360e08202830111156102df576102de61028d565b5b9250929050565b5f5f602083850312156102fc576102fb61027d565b5b5f83013567ffffffffffffffff81111561031957610318610281565b5b61032585828601610291565b92509250509250929050565b5f81519050919050565b5f82825260208201905092915050565b5f819050602082019050919050565b5f819050919050565b61036c8161035a565b82525050565b5f61037d8383610363565b60208301905092915050565b5f602082019050919050565b5f61039f82610331565b6103a9818561033b565b93506103b48361034b565b805f5b838110156103e45781516103cb8882610372565b97506103d683610389565b9250506001810190506103b7565b5085935050505092915050565b5f6020820190508181035f8301526104098184610395565b905092915050565b5f5ffd5b5f60e0828403121561042a57610429610411565b5b81905092915050565b5f60e082840312156104485761044761027d565b5b5f61045584828501610415565b91505092915050565b6104678161035a565b82525050565b5f6020820190506104805f83018461045e565b92915050565b7f4e487b71000000000000000000000000000000000000000000000000000000005f52603260045260245ffd5b7f4e487b71000000000000000000000000000000000000000000000000000000005f52601160045260245ffd5b5f6104ea8261035a565b91506104f58361035a565b92508282026105038161035a565b9150828204841483151761051a576105196104b3565b5b5092915050565b5f61052b8261035a565b91506105368361035a565b925082820190508082111561054e5761054d6104b3565b5b92915050565b7f4e487b71000000000000000000000000000000000000000000000000000000005f52601260045260245ffd5b5f61058b8261035a565b91506105968361035a565b9250826105a6576105a5610554565b5b82820490509291505056fea26469706673582212201bedc09db1aeaf2e47650d9fb3ed6ca8c394706a3045d0137a1b2bc4816aa71764736f6c634300081b0033",
					"opcodes": "PUSH1 0x80 PUSH1 0x40 MSTORE CALLVALUE DUP1 ISZERO PUSH1 0xE JUMPI PUSH0 PUSH0 REVERT JUMPDEST POP PUSH2 0x5E7 DUP1 PUSH2 0x1C PUSH0 CODECOPY PUSH0 RETURN INVALID PUSH1 0x80 PUSH1 0x40 MSTORE CALLVALUE DUP1 ISZERO PUSH2 0xF JUMPI PUSH0 PUSH0 REVERT JUMPDEST POP PUSH1 0x4 CALLDATASIZE LT PUSH2 0x34 JUMPI PUSH0 CALLDATALOAD PUSH1 0xE0 SHR DUP1 PUSH4 0x6FBA3AF6 EQ PUSH2 0x38 JUMPI DUP1 PUSH4 0xE176B360 EQ PUSH2 0x68 JUMPI JUMPDEST PUSH0 PUSH0 REVERT JUMPDEST PUSH2 0x52 PUSH1 0x4 DUP1 CALLDATASIZE SUB DUP2 ADD SWAP1 PUSH2 0x4D SWAP2 SWAP1 PUSH2 0x2E6 JUMP JUMPDEST PUSH2 0x98 JUMP JUMPDEST PUSH1 0x40 MLOAD PUSH2 0x5F SWAP2 SWAP1 PUSH2 0x3F1 JUMP JUMPDEST PUSH1 0x40 MLOAD DUP1 SWAP2 SUB SWAP1 RETURN JUMPDEST PUSH2 0x82 PUSH1 0x4 DUP1 CALLDATASIZE SUB DUP2 ADD SWAP1 PUSH2 0x7D SWAP2 SWAP1 PUSH2 0x433 JUMP JUMPDEST PUSH2 0xFE JUMP JUMPDEST PUSH1 0x40 MLOAD PUSH2 0x8F SWAP2 SWAP1 PUSH2 0x46D JUMP JUMPDEST PUSH1 0x40 MLOAD DUP1 SWAP2 SUB SWAP1 RETURN JUMPDEST PUSH1 0x60 PUSH0 PUSH0 SWAP1 POP JUMPDEST DUP4 DUP4 SWAP1 POP DUP2 LT ISZERO PUSH2 0xF7 JUMPI PUSH2 0xCB DUP5 DUP5 DUP4 DUP2 DUP2 LT PUSH2 0xC0 JUMPI PUSH2 0xBF PUSH2 0x486 JUMP JUMPDEST JUMPDEST SWAP1 POP PUSH1 0xE0 MUL ADD PUSH2 0xFE JUMP JUMPDEST DUP3 DUP3 DUP2 MLOAD DUP2 LT PUSH2 0xDE JUMPI PUSH2 0xDD PUSH2 0x486 JUMP JUMPDEST JUMPDEST PUSH1 0x20 MUL PUSH1 0x20 ADD ADD DUP2 DUP2 MSTORE POP POP DUP1 DUP1 PUSH1 0x1 ADD SWAP2 POP POP PUSH2 0x9F JUMP JUMPDEST POP SWAP3 SWAP2 POP POP JUMP JUMPDEST PUSH0 PUSH2 0x108 DUP3 PUSH2 0x10F JUMP JUMPDEST SWAP1 POP SWAP2 SWAP1 POP JUMP JUMPDEST PUSH0 PUSH2 0x118 PUSH2 0x25F JUMP JUMPDEST PUSH0 DUP4 PUSH0 ADD CALLDATALOAD SUB PUSH2 0x146 JUMPI PUSH0 DUP2 PUSH0 ADD DUP2 DUP2 MSTORE POP POP PUSH1 0x50 DUP2 PUSH1 0x20 ADD DUP2 DUP2 MSTORE POP POP PUSH1 0x14 DUP2 PUSH1 0x40 ADD DUP2 DUP2 MSTORE POP POP PUSH2 0x206 JUMP JUMPDEST PUSH1 0x1 DUP4 PUSH0 ADD CALLDATALOAD SUB PUSH2 0x176 JUMPI PUSH1 0xA DUP2 PUSH0 ADD DUP2 DUP2 MSTORE POP POP PUSH1 0x46 DUP2 PUSH1 0x20 ADD DUP2 DUP2 MSTORE POP POP PUSH1 0x1E DUP2 PUSH1 0x40 ADD DUP2 DUP2 MSTORE POP POP PUSH2 0x205 JUMP JUMPDEST PUSH1 0x2 DUP4 PUSH0 ADD CALLDATALOAD SUB PUSH2 0x1A6 JUMPI PUSH1 0xC DUP2 PUSH0 ADD DUP2 DUP2 MSTORE POP POP PUSH1 0x3C DUP2 PUSH1 0x20 ADD DUP2 DUP2 MSTORE POP POP PUSH1 0x28 DUP2 PUSH1 0x40 ADD DUP2 DUP2 MSTORE POP POP PUSH2 0x204 JUMP JUMPDEST PUSH1 0x3 DUP4 PUSH0 ADD CALLDATALOAD SUB PUSH2 0x1D6 JUMPI PUSH1 0xF DUP2 PUSH0 ADD DUP2 DUP2 MSTORE POP POP PUSH1 0x32 DUP2 PUSH1 0x20 ADD DUP2 DUP2 MSTORE POP POP PUSH1 0x32 DUP2 PUSH1 0x40 ADD DUP2 DUP2 MSTORE POP POP PUSH2 0x203 JUMP JUMPDEST PUSH1 0x4 DUP4 PUSH0 ADD CALLDATALOAD SUB PUSH2 0x202 JUMPI PUSH1 0x14 DUP2 PUSH0 ADD DUP2 DUP2 MSTORE POP POP PUSH1 0x1E DUP2 PUSH1 0x20 ADD DUP2 DUP2 MSTORE POP POP PUSH1 0x46 DUP2 PUSH1 0x40 ADD DUP2 DUP2 MSTORE POP POP JUMPDEST JUMPDEST JUMPDEST JUMPDEST JUMPDEST PUSH1 0x64 DUP4 PUSH1 0x20 ADD PUSH1 0x20 ADD CALLDATALOAD DUP3 PUSH1 0x40 ADD MLOAD PUSH2 0x21F SWAP2 SWAP1 PUSH2 0x4E0 JUMP JUMPDEST DUP5 PUSH1 0x20 ADD PUSH0 ADD CALLDATALOAD DUP4 PUSH1 0x20 ADD MLOAD PUSH2 0x235 SWAP2 SWAP1 PUSH2 0x4E0 JUMP JUMPDEST DUP4 PUSH0 ADD MLOAD PUSH2 0x243 SWAP2 SWAP1 PUSH2 0x521 JUMP JUMPDEST PUSH2 0x24D SWAP2 SWAP1 PUSH2 0x521 JUMP JUMPDEST PUSH2 0x257 SWAP2 SWAP1 PUSH2 0x581 JUMP JUMPDEST SWAP2 POP POP SWAP2 SWAP1 POP JUMP JUMPDEST PUSH1 0x40 MLOAD DUP1 PUSH1 0x60 ADD PUSH1 0x40 MSTORE DUP1 PUSH0 DUP2 MSTORE PUSH1 0x20 ADD PUSH0 DUP2 MSTORE PUSH1 0x20 ADD PUSH0 DUP2 MSTORE POP SWAP1 JUMP JUMPDEST PUSH0 PUSH0 REVERT JUMPDEST PUSH0 PUSH0 REVERT JUMPDEST PUSH0 PUSH0 REVERT JUMPDEST PUSH0 PUSH0 REVERT JUMPDEST PUSH0 PUSH0 REVERT JUMPDEST PUSH0 PUSH0 DUP4 PUSH1 0x1F DUP5 ADD SLT PUSH2 0x2A6 JUMPI PUSH2 0x2A5 PUSH2 0x285 JUMP JUMPDEST JUMPDEST DUP3 CALLDATALOAD SWAP1 POP PUSH8 0xFFFFFFFFFFFFFFFF DUP2 GT ISZERO PUSH2 0x2C3 JUMPI PUSH2 0x2C2 PUSH2 0x289 JUMP JUMPDEST JUMPDEST PUSH1 0x20 DUP4 ADD SWAP2 POP DUP4 PUSH1 0xE0 DUP3 MUL DUP4 ADD GT ISZERO PUSH2 0x2DF JUMPI PUSH2 0x2DE PUSH2 0x28D JUMP JUMPDEST JUMPDEST SWAP3 POP SWAP3 SWAP1 POP JUMP JUMPDEST PUSH0 PUSH0 PUSH1 0x20 DUP4 DUP6 SUB SLT ISZERO PUSH2 0x2FC JUMPI PUSH2 0x2FB PUSH2 0x27D JUMP JUMPDEST JUMPDEST PUSH0 DUP4 ADD CALLDATALOAD PUSH8 0xFFFFFFFFFFFFFFFF DUP2 GT ISZERO PUSH2 0x319 JUMPI PUSH2 0x318 PUSH2 0x281 JUMP JUMPDEST JUMPDEST PUSH2 0x325 DUP6 DUP3 DUP7 ADD PUSH2 0x291 JUMP JUMPDEST SWAP3 POP SWAP3 POP POP SWAP3 POP SWAP3 SWAP1 POP JUMP JUMPDEST PUSH0 DUP2 MLOAD SWAP1 POP SWAP2 SWAP1 POP JUMP JUMPDEST PUSH0 DUP3 DUP3 MSTORE PUSH1 0x20 DUP3 ADD SWAP1 POP SWAP3 SWAP2 POP POP JUMP JUMPDEST PUSH0 DUP2 SWAP1 POP PUSH1 0x20 DUP3 ADD SWAP1 POP SWAP2 SWAP1 POP JUMP JUMPDEST PUSH0 DUP2 SWAP1 POP SWAP2 SWAP1 POP JUMP JUMPDEST PUSH2 0x36C DUP2 PUSH2 0x35A JUMP JUMPDEST DUP3 MSTORE POP POP JUMP JUMPDEST PUSH0 PUSH2 0x37D DUP4 DUP4 PUSH2 0x363 JUMP JUMPDEST PUSH1 0x20 DUP4 ADD SWAP1 POP SWAP3 SWAP2 POP POP JUMP JUMPDEST PUSH0 PUSH1 0x20 DUP3 ADD SWAP1 POP SWAP2 SWAP1 POP JUMP JUMPDEST PUSH0 PUSH2 0x39F DUP3 PUSH2 0x331 JUMP JUMPDEST PUSH2 0x3A9 DUP2 DUP6 PUSH2 0x33B JUMP JUMPDEST SWAP4 POP PUSH2 0x3B4 DUP4 PUSH2 0x34B JUMP JUMPDEST DUP1 PUSH0 JUMPDEST DUP4 DUP2 LT ISZERO PUSH2 0x3E4 JUMPI DUP2 MLOAD PUSH2 0x3CB DUP9 DUP3 PUSH2 0x372 JUMP JUMPDEST SWAP8 POP PUSH2 0x3D6 DUP4 PUSH2 0x389 JUMP JUMPDEST SWAP3 POP POP PUSH1 0x1 DUP2 ADD SWAP1 POP PUSH2 0x3B7 JUMP JUMPDEST POP DUP6 SWAP4 POP POP POP POP SWAP3 SWAP2 POP POP JUMP JUMPDEST PUSH0 PUSH1 0x20 DUP3 ADD SWAP1 POP DUP2 DUP2 SUB PUSH0 DUP4 ADD MSTORE PUSH2 0x409 DUP2 DUP5 PUSH2 0x395 JUMP JUMPDEST SWAP1 POP SWAP3 SWAP2 POP POP JUMP JUMPDEST PUSH0 PUSH0 REVERT JUMPDEST PUSH0 PUSH1 0xE0 DUP3 DUP5 SUB SLT ISZERO PUSH2 0x42A JUMPI PUSH2 0x429 PUSH2 0x411 JUMP JUMPDEST JUMPDEST DUP2 SWAP1 POP SWAP3 SWAP2 POP POP JUMP JUMPDEST PUSH0 PUSH1 0xE0 DUP3 DUP5 SUB SLT ISZERO PUSH2 0x448 JUMPI PUSH2 0x447 PUSH2 0x27D JUMP JUMPDEST JUMPDEST PUSH0 PUSH2 0x455 DUP5 DUP3 DUP6 ADD PUSH2 0x415 JUMP JUMPDEST SWAP2 POP POP SWAP3 SWAP2 POP POP JUMP JUMPDEST PUSH2 0x467 DUP2 PUSH2 0x35A JUMP JUMPDEST DUP3 MSTORE POP POP JUMP JUMPDEST PUSH0 PUSH1 0x20 DUP3 ADD SWAP1 POP PUSH2 0x480 PUSH0 DUP4 ADD DUP5 PUSH2 0x45E JUMP JUMPDEST SWAP3 SWAP2 POP POP JUMP JUMPDEST PUSH32 0x4E487B7100000000000000000000000000000000000000000000000000000000 PUSH0 MSTORE PUSH1 0x32 PUSH1 0x4 MSTORE PUSH1 0x24 PUSH0 REVERT JUMPDEST PUSH32 0x4E487B7100000000000000000000000000000000000000000000000000000000 PUSH0 MSTORE PUSH1 0x11 PUSH1 0x4 MSTORE PUSH1 0x24 PUSH0 REVERT JUMPDEST PUSH0 PUSH2 0x4EA DUP3 PUSH2 0x35A JUMP JUMPDEST SWAP2 POP PUSH2 0x4F5 DUP4 PUSH2 0x35A JUMP JUMPDEST SWAP3 POP DUP3 DUP3 MUL PUSH2 0x503 DUP2 PUSH2 0x35A JUMP JUMPDEST SWAP2 POP DUP3 DUP3 DIV DUP5 EQ DUP4 ISZERO OR PUSH2 0x51A JUMPI PUSH2 0x519 PUSH2 0x4B3 JUMP JUMPDEST JUMPDEST POP SWAP3 SWAP2 POP POP JUMP JUMPDEST PUSH0 PUSH2 0x52B DUP3 PUSH2 0x35A JUMP JUMPDEST SWAP2 POP PUSH2 0x536 DUP4 PUSH2 0x35A JUMP JUMPDEST SWAP3 POP DUP3 DUP3 ADD SWAP1 POP DUP1 DUP3 GT ISZERO PUSH2 0x54E JUMPI PUSH2 0x54D PUSH2 0x4B3 JUMP JUMPDEST JUMPDEST SWAP3 SWAP2 POP POP JUMP JUMPDEST PUSH32 0x4E487B7100000000000000000000000000000000000000000000000000000000 PUSH0 MSTORE PUSH1 0x12 PUSH1 0x4 MSTORE PUSH1 0x24 PUSH0 REVERT JUMPDEST PUSH0 PUSH2 0x58B DUP3 PUSH2 0x35A JUMP JUMPDEST SWAP2 POP PUSH2 0x596 DUP4 PUSH2 0x35A JUMP JUMPDEST SWAP3 POP DUP3 PUSH2 0x5A6 JUMPI PUSH2 0x5A5 PUSH2 0x554 JUMP JUMPDEST JUMPDEST DUP3 DUP3 DIV SWAP1 POP SWAP3 SWAP2 POP POP JUMP INVALID LOG2 PUSH5 0x6970667358 0x22 SLT KECCAK256 SHL 0xED 0xC0 SWAP14 0xB1 0xAE 0xAF 0x2E SELFBALANCE PUSH6 0xD9FB3ED6CA8 0xC3 SWAP5 PUSH17 0x6A3045D0137A1B2BC4816AA71764736F6C PUSH4 0x4300081B STOP CALLER "
				},
				"gasEstimates": {
					"creation": {
						"codeDepositCost": "302200",
						"executionCost": "341",
						"totalCost": "302541"
					},
					"external": {
						"batchQuotes((uint256,(uint256,uint256),(uint256,bool,uint128,uint128))[])": "infinite",
						"quote((uint256,(uint256,uint256),(uint256,bool,uint128,uint128)))": "infinite"
					}
				},
				"methodIdentifiers": {
					"batchQuotes((uint256,(uint256,uint256),(uint256,bool,uint128,uint128))[])": "6fba3af6",
					"quote((uint256,(uint256,uint256),(uint256,bool,uint128,uint128)))": "e176b360"
				}
			},
			"storageLayout": {
				"storage": [],
				"types": null
			},
			"userdoc": {
				"kind": "user",
				"methods": {},
				"version": 1
			}
		}
	}
}