{
	"contracts/PoolManager.sol": {
		"PoolManager": {
			"abi": [
				{
					"inputs": [
						{
							"internalType": "address",
							"name": "_marketAddress",
							"type": "address"
						}
					],
					"stateMutability": "nonpayable",
					"type": "constructor"
				},
				{
					"anonymous": false,
					"inputs": [
						{
							"indexed": true,
							"internalType": "address",
							"name": "owner",
							"type": "address"
						},
						{
							"indexed": true,
							"internalType": "address",
							"name": "spender",
							"type": "address"
						},
						{
							"indexed": true,
							"internalType": "uint256",
							"name": "id",
							"type": "uint256"
						},
						{
							"indexed": false,
							"internalType": "uint256",
							"name": "amount",
							"type": "uint256"
						}
					],
					"name": "Approval",
					"type": "event"
				},
				{
					"anonymous": false,
					"inputs": [
						{
							"indexed": true,
							"internalType": "address",
							"name": "owner",
							"type": "address"
						},
						{
							"indexed": true,
							"internalType": "address",
							"name": "operator",
							"type": "address"
						},
						{
							"indexed": false,
							"internalType": "bool",
							"name": "approved",
							"type": "bool"
						}
					],
					"name": "OperatorSet",
					"type": "event"
				},
				{
					"anonymous": false,
					"inputs": [
						{
							"indexed": false,
							"internalType": "address",
							"name": "caller",
							"type": "address"
						},
						{
							"indexed": true,
							"internalType": "address",
							"name": "from",
							"type": "address"
						},
						{
							"indexed": true,
							"internalType": "address",
							"name": "to",
							"type": "address"
						},
						{
							"indexed": true,
							"internalType": "uint256",
							"name": "id",
							"type": "uint256"
						},
						{
							"indexed": false,
							"internalType": "uint256",
							"name": "amount",
							"type": "uint256"
						}
					],
					"name": "Transfer",
					"type": "event"
				},
				{
					"inputs": [
						{
							"internalType": "address",
							"name": "owner",
							"type": "address"
						},
						{
							"internalType": "address",
							"name": "spender",
							"type": "address"
						},
						{
							"internalType": "uint256",
							"name": "id",
							"type": "uint256"
						}
					],
					"name": "allowance",
					"outputs": [
						{
							"internalType": "uint256",
							"name": "amount",
							"type": "uint256"
						}
					],
					"stateMutability": "view",
					"type": "function"
				},
				{
					"inputs": [
						{
							"internalType": "address",
							"name": "spender",
							"type": "address"
						},
						{
							"internalType": "uint256",
							"name": "id",
							"type": "uint256"
						},
						{
							"internalType": "uint256",
							"name": "amount",
							"type": "uint256"
						}
					],
					"name": "approve",
					"outputs": [
						{
							"internalType": "bool",
							"name": "",
							"type": "bool"
						}
					],
					"stateMutability": "nonpayable",
					"type": "function"
				},
				{
					"inputs": [
						{
							"internalType": "address",
							"name": "owner",
							"type": "address"
						},
						{
							"internalType": "uint256",
							"name": "id",
							"type": "uint256"
						}
					],
					"name": "balanceOf",
					"outputs": [
						{
							"internalType": "uint256",
							"name": "balance",
							"type": "uint256"
						}
					],
					"stateMutability": "view",
					"type": "function"
				},
				{
					"inputs": [
						{
							"internalType": "uint256",
							"name": "poolID",
							"type": "uint256"
						}
					],
					"name": "inventory",
					"outputs": [
						{
							"internalType": "uint128",
							"name": "inventory0",
							"type": "uint128"
						},
						{
							"internalType": "uint128",
							"name": "inventory1",
							"type": "uint128"
						}
					],
					"stateMutability": "view",
					"type": "function"
				},
				{
					"inputs": [
						{
							"internalType": "address",
							"name": "owner",
							"type": "address"
						},
						{
							"internalType": "address",
							"name": "operator",
							"type": "address"
						}
					],
					"name": "isOperator",
					"outputs": [
						{
							"internalType": "bool",
							"name": "isOperator",
							"type": "bool"
						}
					],
					"stateMutability": "view",
					"type": "function"
				},
				{
					"inputs": [],
					"name": "marketAddress",
					"outputs": [
						{
							"internalType": "address",
							"name": "",
							"type": "address"
						}
					],
					"stateMutability": "view",
					"type": "function"
				},
				{
					"inputs": [
						{
							"components": [
								{
									"internalType": "uint80",
									"name": "currencyID",
									"type": "uint80"
								},
								{
									"internalType": "address",
									"name": "quoter",
									"type": "address"
								},
								{
									"internalType": "uint16",
									"name": "bucketID",
									"type": "uint16"
								},
								{
									"internalType": "uint256",
									"name": "amount",
									"type": "uint256"
								},
								{
									"internalType": "bool",
									"name": "zeroForOne",
									"type": "bool"
								}
							],
							"internalType": "struct SwapParams",
							"name": "params",
							"type": "tuple"
						}
					],
					"name": "quote",
					"outputs": [
						{
							"internalType": "uint256",
							"name": "",
							"type": "uint256"
						}
					],
					"stateMutability": "nonpayable",
					"type": "function"
				},
				{
					"inputs": [
						{
							"internalType": "address",
							"name": "operator",
							"type": "address"
						},
						{
							"internalType": "bool",
							"name": "approved",
							"type": "bool"
						}
					],
					"name": "setOperator",
					"outputs": [
						{
							"internalType": "bool",
							"name": "",
							"type": "bool"
						}
					],
					"stateMutability": "nonpayable",
					"type": "function"
				},
				{
					"inputs": [
						{
							"internalType": "bytes4",
							"name": "interfaceId",
							"type": "bytes4"
						}
					],
					"name": "supportsInterface",
					"outputs": [
						{
							"internalType": "bool",
							"name": "",
							"type": "bool"
						}
					],
					"stateMutability": "view",
					"type": "function"
				},
				{
					"inputs": [],
					"name": "swap",
					"outputs": [
						{
							"internalType": "bool",
							"name": "success",
							"type": "bool"
						}
					],
					"stateMutability": "nonpayable",
					"type": "function"
				},
				{
					"inputs": [
						{
							"internalType": "address",
							"name": "receiver",
							"type": "address"
						},
						{
							"internalType": "uint256",
							"name": "id",
							"type": "uint256"
						},
						{
							"internalType": "uint256",
							"name": "amount",
							"type": "uint256"
						}
					],
					"name": "transfer",
					"outputs": [
						{
							"internalType": "bool",
							"name": "",
							"type": "bool"
						}
					],
					"stateMutability": "nonpayable",
					"type": "function"
				},
				{
					"inputs": [
						{
							"internalType": "address",
							"name": "sender",
							"type": "address"
						},
						{
							"internalType": "address",
							"name": "receiver",
							"type": "address"
						},
						{
							"internalType": "uint256",
							"name": "id",
							"type": "uint256"
						},
						{
							"internalType": "uint256",
							"name": "amount",
							"type": "uint256"
						}
					],
					"name": "transferFrom",
					"outputs": [
						{
							"internalType": "bool",
							"name": "",
							"type": "bool"
						}
					],
					"stateMutability": "nonpayable",
					"type": "function"
				}
			],
			"devdoc": {
				"kind": "dev",
				"methods": {
					"approve(address,uint256,uint256)": {
						"params": {
							"amount": "The amount of the token.",
							"id": "The id of the token.",
							"spender": "The address of the spender."
						},
						"returns": {
							"_0": "bool True, always"
						}
					},
					"setOperator(address,bool)": {
						"params": {
							"approved": "The approval status.",
							"operator": "The address of the operator."
						},
						"returns": {
							"_0": "bool True, always"
						}
					},
					"transfer(address,uint256,uint256)": {
						"params": {
							"amount": "The amount of the token.",
							"id": "The id of the token.",
							"receiver": "The address of the receiver."
						},
						"returns": {
							"_0": "bool True, always, unless the function reverts"
						}
					},
					"transferFrom(address,address,uint256,uint256)": {
						"params": {
							"amount": "The amount of the token.",
							"id": "The id of the token.",
							"receiver": "The address of the receiver.",
							"sender": "The address of the sender."
						},
						"returns": {
							"_0": "bool True, always, unless the function reverts"
						}
					}
				},
				"version": 1
			},
			"evm": {
				"assembly": "    /* \"contracts/PoolManager.sol\":548:2079  contract PoolManager is ERC6909Claims { ... */\n  mstore(0x40, 0xa0)\n    /* \"contracts/PoolManager.sol\":883:966  constructor(address _marketAddress) {... */\n  callvalue\n  dup1\n  iszero\n  tag_1\n  jumpi\n  revert(0x00, 0x00)\ntag_1:\n  pop\n  mload(0x40)\n  sub(codesize, bytecodeSize)\n  dup1\n  bytecodeSize\n  dup4\n  codecopy\n  dup2\n  dup2\n  add\n  0x40\n  mstore\n  dup2\n  add\n  swap1\n  tag_2\n  swap2\n  swap1\n  tag_3\n  jump\t// in\ntag_2:\n    /* \"contracts/PoolManager.sol\":945:959  _marketAddress */\n  dup1\n    /* \"contracts/PoolManager.sol\":929:959  marketAddress = _marketAddress */\n  0xffffffffffffffffffffffffffffffffffffffff\n  and\n  0x80\n  dup2\n  0xffffffffffffffffffffffffffffffffffffffff\n  and\n  dup2\n  mstore\n  pop\n  pop\n    /* \"contracts/PoolManager.sol\":883:966  constructor(address _marketAddress) {... */\n  pop\n    /* \"contracts/PoolManager.sol\":548:2079  contract PoolManager is ERC6909Claims { ... */\n  jump(tag_6)\n    /* \"#utility.yul\":88:205   */\ntag_8:\n    /* \"#utility.yul\":197:198   */\n  0x00\n    /* \"#utility.yul\":194:195   */\n  0x00\n    /* \"#utility.yul\":187:199   */\n  revert\n    /* \"#utility.yul\":334:460   */\ntag_10:\n    /* \"#utility.yul\":371:378   */\n  0x00\n    /* \"#utility.yul\":411:453   */\n  0xffffffffffffffffffffffffffffffffffffffff\n    /* \"#utility.yul\":404:409   */\n  dup3\n    /* \"#utility.yul\":400:454   */\n  and\n    /* \"#utility.yul\":389:454   */\n  swap1\n  pop\n    /* \"#utility.yul\":334:460   */\n  swap2\n  swap1\n  pop\n  jump\t// out\n    /* \"#utility.yul\":466:562   */\ntag_11:\n    /* \"#utility.yul\":503:510   */\n  0x00\n    /* \"#utility.yul\":532:556   */\n  tag_20\n    /* \"#utility.yul\":550:555   */\n  dup3\n    /* \"#utility.yul\":532:556   */\n  tag_10\n  jump\t// in\ntag_20:\n    /* \"#utility.yul\":521:556   */\n  swap1\n  pop\n    /* \"#utility.yul\":466:562   */\n  swap2\n  swap1\n  pop\n  jump\t// out\n    /* \"#utility.yul\":568:690   */\ntag_12:\n    /* \"#utility.yul\":641:665   */\n  tag_22\n    /* \"#utility.yul\":659:664   */\n  dup2\n    /* \"#utility.yul\":641:665   */\n  tag_11\n  jump\t// in\ntag_22:\n    /* \"#utility.yul\":634:639   */\n  dup2\n    /* \"#utility.yul\":631:666   */\n  eq\n    /* \"#utility.yul\":621:684   */\n  tag_23\n  jumpi\n    /* \"#utility.yul\":680:681   */\n  0x00\n    /* \"#utility.yul\":677:678   */\n  0x00\n    /* \"#utility.yul\":670:682   */\n  revert\n    /* \"#utility.yul\":621:684   */\ntag_23:\n    /* \"#utility.yul\":568:690   */\n  pop\n  jump\t// out\n    /* \"#utility.yul\":696:839   */\ntag_13:\n    /* \"#utility.yul\":753:758   */\n  0x00\n    /* \"#utility.yul\":784:790   */\n  dup2\n    /* \"#utility.yul\":778:791   */\n  mload\n    /* \"#utility.yul\":769:791   */\n  swap1\n  pop\n    /* \"#utility.yul\":800:833   */\n  tag_25\n    /* \"#utility.yul\":827:832   */\n  dup2\n    /* \"#utility.yul\":800:833   */\n  tag_12\n  jump\t// in\ntag_25:\n    /* \"#utility.yul\":696:839   */\n  swap3\n  swap2\n  pop\n  pop\n  jump\t// out\n    /* \"#utility.yul\":845:1196   */\ntag_3:\n    /* \"#utility.yul\":915:921   */\n  0x00\n    /* \"#utility.yul\":964:966   */\n  0x20\n    /* \"#utility.yul\":952:961   */\n  dup3\n    /* \"#utility.yul\":943:950   */\n  dup5\n    /* \"#utility.yul\":939:962   */\n  sub\n    /* \"#utility.yul\":935:967   */\n  slt\n    /* \"#utility.yul\":932:1051   */\n  iszero\n  tag_27\n  jumpi\n    /* \"#utility.yul\":970:1049   */\n  tag_28\n  tag_8\n  jump\t// in\ntag_28:\n    /* \"#utility.yul\":932:1051   */\ntag_27:\n    /* \"#utility.yul\":1090:1091   */\n  0x00\n    /* \"#utility.yul\":1115:1179   */\n  tag_29\n    /* \"#utility.yul\":1171:1178   */\n  dup5\n    /* \"#utility.yul\":1162:1168   */\n  dup3\n    /* \"#utility.yul\":1151:1160   */\n  dup6\n    /* \"#utility.yul\":1147:1169   */\n  add\n    /* \"#utility.yul\":1115:1179   */\n  tag_13\n  jump\t// in\ntag_29:\n    /* \"#utility.yul\":1105:1179   */\n  swap2\n  pop\n    /* \"#utility.yul\":1061:1189   */\n  pop\n    /* \"#utility.yul\":845:1196   */\n  swap3\n  swap2\n  pop\n  pop\n  jump\t// out\n    /* \"contracts/PoolManager.sol\":548:2079  contract PoolManager is ERC6909Claims { ... */\ntag_6:\n  mload(0x80)\n  codecopy(0x00, dataOffset(sub_0), dataSize(sub_0))\n  0x00\n  assignImmutable(\"0x1f149d6c96e793351c7a360bcab9e10c751eb5044885f39398212a489e22545b\")\n  return(0x00, dataSize(sub_0))\nstop\n\nsub_0: assembly {\n        /* \"contracts/PoolManager.sol\":548:2079  contract PoolManager is ERC6909Claims { ... */\n      mstore(0x40, 0x80)\n      callvalue\n      dup1\n      iszero\n      tag_1\n      jumpi\n      revert(0x00, 0x00)\n    tag_1:\n      pop\n      jumpi(tag_2, lt(calldatasize, 0x04))\n      shr(0xe0, calldataload(0x00))\n      dup1\n      0x598af9e7\n      gt\n      tag_15\n      jumpi\n      dup1\n      0x598af9e7\n      eq\n      tag_9\n      jumpi\n      dup1\n      0x5d28a34c\n      eq\n      tag_10\n      jumpi\n      dup1\n      0x8119c065\n      eq\n      tag_11\n      jumpi\n      dup1\n      0x95623641\n      eq\n      tag_12\n      jumpi\n      dup1\n      0xb6363cf2\n      eq\n      tag_13\n      jumpi\n      dup1\n      0xfe99049a\n      eq\n      tag_14\n      jumpi\n      jump(tag_2)\n    tag_15:\n      dup1\n      0xfdd58e\n      eq\n      tag_3\n      jumpi\n      dup1\n      0x01ffc9a7\n      eq\n      tag_4\n      jumpi\n      dup1\n      0x095bcdb6\n      eq\n      tag_5\n      jumpi\n      dup1\n      0x426a8493\n      eq\n      tag_6\n      jumpi\n      dup1\n      0x4272ee18\n      eq\n      tag_7\n      jumpi\n      dup1\n      0x558a7297\n      eq\n      tag_8\n      jumpi\n    tag_2:\n      revert(0x00, 0x00)\n        /* \"contracts/ERC6909.sol\":704:785  mapping(address owner => mapping(uint256 id => uint256 balance)) public balanceOf */\n    tag_3:\n      tag_16\n      0x04\n      dup1\n      calldatasize\n      sub\n      dup2\n      add\n      swap1\n      tag_17\n      swap2\n      swap1\n      tag_18\n      jump\t// in\n    tag_17:\n      tag_19\n      jump\t// in\n    tag_16:\n      mload(0x40)\n      tag_20\n      swap2\n      swap1\n      tag_21\n      jump\t// in\n    tag_20:\n      mload(0x40)\n      dup1\n      swap2\n      sub\n      swap1\n      return\n        /* \"contracts/ERC6909.sol\":2575:2816  function supportsInterface(bytes4 interfaceId) public view virtual returns (bool) {... */\n    tag_4:\n      tag_22\n      0x04\n      dup1\n      calldatasize\n      sub\n      dup2\n      add\n      swap1\n      tag_23\n      swap2\n      swap1\n      tag_24\n      jump\t// in\n    tag_23:\n      tag_25\n      jump\t// in\n    tag_22:\n      mload(0x40)\n      tag_26\n      swap2\n      swap1\n      tag_27\n      jump\t// in\n    tag_26:\n      mload(0x40)\n      dup1\n      swap2\n      sub\n      swap1\n      return\n        /* \"contracts/ERC6909.sol\":1090:1372  function transfer(address receiver, uint256 id, uint256 amount) public virtual returns (bool) {... */\n    tag_5:\n      tag_28\n      0x04\n      dup1\n      calldatasize\n      sub\n      dup2\n      add\n      swap1\n      tag_29\n      swap2\n      swap1\n      tag_30\n      jump\t// in\n    tag_29:\n      tag_31\n      jump\t// in\n    tag_28:\n      mload(0x40)\n      tag_32\n      swap2\n      swap1\n      tag_27\n      jump\t// in\n    tag_32:\n      mload(0x40)\n      dup1\n      swap2\n      sub\n      swap1\n      return\n        /* \"contracts/ERC6909.sol\":1925:2156  function approve(address spender, uint256 id, uint256 amount) public virtual returns (bool) {... */\n    tag_6:\n      tag_33\n      0x04\n      dup1\n      calldatasize\n      sub\n      dup2\n      add\n      swap1\n      tag_34\n      swap2\n      swap1\n      tag_30\n      jump\t// in\n    tag_34:\n      tag_35\n      jump\t// in\n    tag_33:\n      mload(0x40)\n      tag_36\n      swap2\n      swap1\n      tag_27\n      jump\t// in\n    tag_36:\n      mload(0x40)\n      dup1\n      swap2\n      sub\n      swap1\n      return\n        /* \"contracts/PoolManager.sol\":1891:2075  function inventory(uint256 poolID) public view returns (uint128 inventory0, uint128 inventory1) {... */\n    tag_7:\n      tag_37\n      0x04\n      dup1\n      calldatasize\n      sub\n      dup2\n      add\n      swap1\n      tag_38\n      swap2\n      swap1\n      tag_39\n      jump\t// in\n    tag_38:\n      tag_40\n      jump\t// in\n    tag_37:\n      mload(0x40)\n      tag_41\n      swap3\n      swap2\n      swap1\n      tag_42\n      jump\t// in\n    tag_41:\n      mload(0x40)\n      dup1\n      swap2\n      sub\n      swap1\n      return\n        /* \"contracts/ERC6909.sol\":2162:2387  function setOperator(address operator, bool approved) public virtual returns (bool) {... */\n    tag_8:\n      tag_43\n      0x04\n      dup1\n      calldatasize\n      sub\n      dup2\n      add\n      swap1\n      tag_44\n      swap2\n      swap1\n      tag_45\n      jump\t// in\n    tag_44:\n      tag_46\n      jump\t// in\n    tag_43:\n      mload(0x40)\n      tag_47\n      swap2\n      swap1\n      tag_27\n      jump\t// in\n    tag_47:\n      mload(0x40)\n      dup1\n      swap2\n      sub\n      swap1\n      return\n        /* \"contracts/ERC6909.sol\":792:900  mapping(address owner => mapping(address spender => mapping(uint256 id => uint256 amount))) public allowance */\n    tag_9:\n      tag_48\n      0x04\n      dup1\n      calldatasize\n      sub\n      dup2\n      add\n      swap1\n      tag_49\n      swap2\n      swap1\n      tag_50\n      jump\t// in\n    tag_49:\n      tag_51\n      jump\t// in\n    tag_48:\n      mload(0x40)\n      tag_52\n      swap2\n      swap1\n      tag_21\n      jump\t// in\n    tag_52:\n      mload(0x40)\n      dup1\n      swap2\n      sub\n      swap1\n      return\n        /* \"contracts/PoolManager.sol\":1104:1879  function quote(SwapParams calldata params) public returns (uint256) {... */\n    tag_10:\n      tag_53\n      0x04\n      dup1\n      calldatasize\n      sub\n      dup2\n      add\n      swap1\n      tag_54\n      swap2\n      swap1\n      tag_55\n      jump\t// in\n    tag_54:\n      tag_56\n      jump\t// in\n    tag_53:\n      mload(0x40)\n      tag_57\n      swap2\n      swap1\n      tag_21\n      jump\t// in\n    tag_57:\n      mload(0x40)\n      dup1\n      swap2\n      sub\n      swap1\n      return\n        /* \"contracts/PoolManager.sol\":972:1034  function swap() public returns (bool success) {... */\n    tag_11:\n      tag_58\n      tag_59\n      jump\t// in\n    tag_58:\n      mload(0x40)\n      tag_60\n      swap2\n      swap1\n      tag_27\n      jump\t// in\n    tag_60:\n      mload(0x40)\n      dup1\n      swap2\n      sub\n      swap1\n      return\n        /* \"contracts/PoolManager.sol\":838:877  address immutable  public marketAddress */\n    tag_12:\n      tag_61\n      tag_62\n      jump\t// in\n    tag_61:\n      mload(0x40)\n      tag_63\n      swap2\n      swap1\n      tag_64\n      jump\t// in\n    tag_63:\n      mload(0x40)\n      dup1\n      swap2\n      sub\n      swap1\n      return\n        /* \"contracts/ERC6909.sol\":609:697  mapping(address owner => mapping(address operator => bool isOperator)) public isOperator */\n    tag_13:\n      tag_65\n      0x04\n      dup1\n      calldatasize\n      sub\n      dup2\n      add\n      swap1\n      tag_66\n      swap2\n      swap1\n      tag_67\n      jump\t// in\n    tag_66:\n      tag_68\n      jump\t// in\n    tag_65:\n      mload(0x40)\n      tag_69\n      swap2\n      swap1\n      tag_27\n      jump\t// in\n    tag_69:\n      mload(0x40)\n      dup1\n      swap2\n      sub\n      swap1\n      return\n        /* \"contracts/ERC6909.sol\":1378:1919  function transferFrom(address sender, address receiver, uint256 id, uint256 amount) public virtual returns (bool) {... */\n    tag_14:\n      tag_70\n      0x04\n      dup1\n      calldatasize\n      sub\n      dup2\n      add\n      swap1\n      tag_71\n      swap2\n      swap1\n      tag_72\n      jump\t// in\n    tag_71:\n      tag_73\n      jump\t// in\n    tag_70:\n      mload(0x40)\n      tag_74\n      swap2\n      swap1\n      tag_27\n      jump\t// in\n    tag_74:\n      mload(0x40)\n      dup1\n      swap2\n      sub\n      swap1\n      return\n        /* \"contracts/ERC6909.sol\":704:785  mapping(address owner => mapping(uint256 id => uint256 balance)) public balanceOf */\n    tag_19:\n      mstore(0x20, 0x01)\n      dup2\n      0x00\n      mstore\n      mstore(0x20, keccak256(0x00, 0x40))\n      dup1\n      0x00\n      mstore\n      keccak256(0x00, 0x40)\n      0x00\n      swap2\n      pop\n      swap2\n      pop\n      pop\n      sload\n      dup2\n      jump\t// out\n        /* \"contracts/ERC6909.sol\":2575:2816  function supportsInterface(bytes4 interfaceId) public view virtual returns (bool) {... */\n    tag_25:\n        /* \"contracts/ERC6909.sol\":2651:2655  bool */\n      0x00\n        /* \"contracts/ERC6909.sol\":2689:2699  0x01ffc9a7 */\n      0x01ffc9a7\n        /* \"contracts/ERC6909.sol\":2674:2699  interfaceId == 0x01ffc9a7 */\n      0xe0\n      shl\n        /* \"contracts/ERC6909.sol\":2674:2685  interfaceId */\n      dup3\n        /* \"contracts/ERC6909.sol\":2674:2699  interfaceId == 0x01ffc9a7 */\n      not(0xffffffffffffffffffffffffffffffffffffffffffffffffffffffff)\n      and\n      eq\n        /* \"contracts/ERC6909.sol\":2674:2774  interfaceId == 0x01ffc9a7 // ERC165 Interface ID for ERC165... */\n      dup1\n      tag_76\n      jumpi\n      pop\n        /* \"contracts/ERC6909.sol\":2764:2774  0x0f632fb3 */\n      0x0f632fb3\n        /* \"contracts/ERC6909.sol\":2749:2774  interfaceId == 0x0f632fb3 */\n      0xe0\n      shl\n        /* \"contracts/ERC6909.sol\":2749:2760  interfaceId */\n      dup3\n        /* \"contracts/ERC6909.sol\":2749:2774  interfaceId == 0x0f632fb3 */\n      not(0xffffffffffffffffffffffffffffffffffffffffffffffffffffffff)\n      and\n      eq\n        /* \"contracts/ERC6909.sol\":2674:2774  interfaceId == 0x01ffc9a7 // ERC165 Interface ID for ERC165... */\n    tag_76:\n        /* \"contracts/ERC6909.sol\":2667:2774  return interfaceId == 0x01ffc9a7 // ERC165 Interface ID for ERC165... */\n      swap1\n      pop\n        /* \"contracts/ERC6909.sol\":2575:2816  function supportsInterface(bytes4 interfaceId) public view virtual returns (bool) {... */\n      swap2\n      swap1\n      pop\n      jump\t// out\n        /* \"contracts/ERC6909.sol\":1090:1372  function transfer(address receiver, uint256 id, uint256 amount) public virtual returns (bool) {... */\n    tag_31:\n        /* \"contracts/ERC6909.sol\":1178:1182  bool */\n      0x00\n        /* \"contracts/ERC6909.sol\":1223:1229  amount */\n      dup2\n        /* \"contracts/ERC6909.sol\":1194:1203  balanceOf */\n      0x01\n        /* \"contracts/ERC6909.sol\":1194:1215  balanceOf[msg.sender] */\n      0x00\n        /* \"contracts/ERC6909.sol\":1204:1214  msg.sender */\n      caller\n        /* \"contracts/ERC6909.sol\":1194:1215  balanceOf[msg.sender] */\n      0xffffffffffffffffffffffffffffffffffffffff\n      and\n      0xffffffffffffffffffffffffffffffffffffffff\n      and\n      dup2\n      mstore\n      0x20\n      add\n      swap1\n      dup2\n      mstore\n      0x20\n      add\n      0x00\n      keccak256\n        /* \"contracts/ERC6909.sol\":1194:1219  balanceOf[msg.sender][id] */\n      0x00\n        /* \"contracts/ERC6909.sol\":1216:1218  id */\n      dup6\n        /* \"contracts/ERC6909.sol\":1194:1219  balanceOf[msg.sender][id] */\n      dup2\n      mstore\n      0x20\n      add\n      swap1\n      dup2\n      mstore\n      0x20\n      add\n      0x00\n      keccak256\n      0x00\n        /* \"contracts/ERC6909.sol\":1194:1229  balanceOf[msg.sender][id] -= amount */\n      dup3\n      dup3\n      sload\n      tag_78\n      swap2\n      swap1\n      tag_79\n      jump\t// in\n    tag_78:\n      swap3\n      pop\n      pop\n      dup2\n      swap1\n      sstore\n      pop\n        /* \"contracts/ERC6909.sol\":1267:1273  amount */\n      dup2\n        /* \"contracts/ERC6909.sol\":1240:1249  balanceOf */\n      0x01\n        /* \"contracts/ERC6909.sol\":1240:1259  balanceOf[receiver] */\n      0x00\n        /* \"contracts/ERC6909.sol\":1250:1258  receiver */\n      dup7\n        /* \"contracts/ERC6909.sol\":1240:1259  balanceOf[receiver] */\n      0xffffffffffffffffffffffffffffffffffffffff\n      and\n      0xffffffffffffffffffffffffffffffffffffffff\n      and\n      dup2\n      mstore\n      0x20\n      add\n      swap1\n      dup2\n      mstore\n      0x20\n      add\n      0x00\n      keccak256\n        /* \"contracts/ERC6909.sol\":1240:1263  balanceOf[receiver][id] */\n      0x00\n        /* \"contracts/ERC6909.sol\":1260:1262  id */\n      dup6\n        /* \"contracts/ERC6909.sol\":1240:1263  balanceOf[receiver][id] */\n      dup2\n      mstore\n      0x20\n      add\n      swap1\n      dup2\n      mstore\n      0x20\n      add\n      0x00\n      keccak256\n      0x00\n        /* \"contracts/ERC6909.sol\":1240:1273  balanceOf[receiver][id] += amount */\n      dup3\n      dup3\n      sload\n      tag_80\n      swap2\n      swap1\n      tag_81\n      jump\t// in\n    tag_80:\n      swap3\n      pop\n      pop\n      dup2\n      swap1\n      sstore\n      pop\n        /* \"contracts/ERC6909.sol\":1332:1334  id */\n      dup3\n        /* \"contracts/ERC6909.sol\":1322:1330  receiver */\n      dup5\n        /* \"contracts/ERC6909.sol\":1289:1343  Transfer(msg.sender, msg.sender, receiver, id, amount) */\n      0xffffffffffffffffffffffffffffffffffffffff\n      and\n        /* \"contracts/ERC6909.sol\":1310:1320  msg.sender */\n      caller\n        /* \"contracts/ERC6909.sol\":1289:1343  Transfer(msg.sender, msg.sender, receiver, id, amount) */\n      0xffffffffffffffffffffffffffffffffffffffff\n      and\n      0x1b3d7edb2e9c0b0e7c525b20aaaef0f5940d2ed71663c7d39266ecafac728859\n        /* \"contracts/ERC6909.sol\":1298:1308  msg.sender */\n      caller\n        /* \"contracts/ERC6909.sol\":1336:1342  amount */\n      dup7\n        /* \"contracts/ERC6909.sol\":1289:1343  Transfer(msg.sender, msg.sender, receiver, id, amount) */\n      mload(0x40)\n      tag_82\n      swap3\n      swap2\n      swap1\n      tag_83\n      jump\t// in\n    tag_82:\n      mload(0x40)\n      dup1\n      swap2\n      sub\n      swap1\n      log4\n        /* \"contracts/ERC6909.sol\":1361:1365  true */\n      0x01\n        /* \"contracts/ERC6909.sol\":1354:1365  return true */\n      swap1\n      pop\n        /* \"contracts/ERC6909.sol\":1090:1372  function transfer(address receiver, uint256 id, uint256 amount) public virtual returns (bool) {... */\n      swap4\n      swap3\n      pop\n      pop\n      pop\n      jump\t// out\n        /* \"contracts/ERC6909.sol\":1925:2156  function approve(address spender, uint256 id, uint256 amount) public virtual returns (bool) {... */\n    tag_35:\n        /* \"contracts/ERC6909.sol\":2011:2015  bool */\n      0x00\n        /* \"contracts/ERC6909.sol\":2064:2070  amount */\n      dup2\n        /* \"contracts/ERC6909.sol\":2027:2036  allowance */\n      0x02\n        /* \"contracts/ERC6909.sol\":2027:2048  allowance[msg.sender] */\n      0x00\n        /* \"contracts/ERC6909.sol\":2037:2047  msg.sender */\n      caller\n        /* \"contracts/ERC6909.sol\":2027:2048  allowance[msg.sender] */\n      0xffffffffffffffffffffffffffffffffffffffff\n      and\n      0xffffffffffffffffffffffffffffffffffffffff\n      and\n      dup2\n      mstore\n      0x20\n      add\n      swap1\n      dup2\n      mstore\n      0x20\n      add\n      0x00\n      keccak256\n        /* \"contracts/ERC6909.sol\":2027:2057  allowance[msg.sender][spender] */\n      0x00\n        /* \"contracts/ERC6909.sol\":2049:2056  spender */\n      dup7\n        /* \"contracts/ERC6909.sol\":2027:2057  allowance[msg.sender][spender] */\n      0xffffffffffffffffffffffffffffffffffffffff\n      and\n      0xffffffffffffffffffffffffffffffffffffffff\n      and\n      dup2\n      mstore\n      0x20\n      add\n      swap1\n      dup2\n      mstore\n      0x20\n      add\n      0x00\n      keccak256\n        /* \"contracts/ERC6909.sol\":2027:2061  allowance[msg.sender][spender][id] */\n      0x00\n        /* \"contracts/ERC6909.sol\":2058:2060  id */\n      dup6\n        /* \"contracts/ERC6909.sol\":2027:2061  allowance[msg.sender][spender][id] */\n      dup2\n      mstore\n      0x20\n      add\n      swap1\n      dup2\n      mstore\n      0x20\n      add\n      0x00\n      keccak256\n        /* \"contracts/ERC6909.sol\":2027:2070  allowance[msg.sender][spender][id] = amount */\n      dup2\n      swap1\n      sstore\n      pop\n        /* \"contracts/ERC6909.sol\":2116:2118  id */\n      dup3\n        /* \"contracts/ERC6909.sol\":2107:2114  spender */\n      dup5\n        /* \"contracts/ERC6909.sol\":2086:2127  Approval(msg.sender, spender, id, amount) */\n      0xffffffffffffffffffffffffffffffffffffffff\n      and\n        /* \"contracts/ERC6909.sol\":2095:2105  msg.sender */\n      caller\n        /* \"contracts/ERC6909.sol\":2086:2127  Approval(msg.sender, spender, id, amount) */\n      0xffffffffffffffffffffffffffffffffffffffff\n      and\n      0xb3fd5071835887567a0671151121894ddccc2842f1d10bedad13e0d17cace9a7\n        /* \"contracts/ERC6909.sol\":2120:2126  amount */\n      dup6\n        /* \"contracts/ERC6909.sol\":2086:2127  Approval(msg.sender, spender, id, amount) */\n      mload(0x40)\n      tag_85\n      swap2\n      swap1\n      tag_21\n      jump\t// in\n    tag_85:\n      mload(0x40)\n      dup1\n      swap2\n      sub\n      swap1\n      log4\n        /* \"contracts/ERC6909.sol\":2145:2149  true */\n      0x01\n        /* \"contracts/ERC6909.sol\":2138:2149  return true */\n      swap1\n      pop\n        /* \"contracts/ERC6909.sol\":1925:2156  function approve(address spender, uint256 id, uint256 amount) public virtual returns (bool) {... */\n      swap4\n      swap3\n      pop\n      pop\n      pop\n      jump\t// out\n        /* \"contracts/PoolManager.sol\":1891:2075  function inventory(uint256 poolID) public view returns (uint128 inventory0, uint128 inventory1) {... */\n    tag_40:\n        /* \"contracts/PoolManager.sol\":1947:1965  uint128 inventory0 */\n      0x00\n        /* \"contracts/PoolManager.sol\":1967:1985  uint128 inventory1 */\n      0x00\n        /* \"contracts/PoolManager.sol\":2037:2040  250 */\n      0xfa\n        /* \"contracts/PoolManager.sol\":2024:2040  inventory0 = 250 */\n      swap2\n      pop\n        /* \"contracts/PoolManager.sol\":2064:2068  1246 */\n      0x04de\n        /* \"contracts/PoolManager.sol\":2051:2068  inventory1 = 1246 */\n      swap1\n      pop\n        /* \"contracts/PoolManager.sol\":1891:2075  function inventory(uint256 poolID) public view returns (uint128 inventory0, uint128 inventory1) {... */\n      swap2\n      pop\n      swap2\n      jump\t// out\n        /* \"contracts/ERC6909.sol\":2162:2387  function setOperator(address operator, bool approved) public virtual returns (bool) {... */\n    tag_46:\n        /* \"contracts/ERC6909.sol\":2240:2244  bool */\n      0x00\n        /* \"contracts/ERC6909.sol\":2291:2299  approved */\n      dup2\n        /* \"contracts/ERC6909.sol\":2256:2266  isOperator */\n      0x00\n        /* \"contracts/ERC6909.sol\":2256:2278  isOperator[msg.sender] */\n      0x00\n        /* \"contracts/ERC6909.sol\":2267:2277  msg.sender */\n      caller\n        /* \"contracts/ERC6909.sol\":2256:2278  isOperator[msg.sender] */\n      0xffffffffffffffffffffffffffffffffffffffff\n      and\n      0xffffffffffffffffffffffffffffffffffffffff\n      and\n      dup2\n      mstore\n      0x20\n      add\n      swap1\n      dup2\n      mstore\n      0x20\n      add\n      0x00\n      keccak256\n        /* \"contracts/ERC6909.sol\":2256:2288  isOperator[msg.sender][operator] */\n      0x00\n        /* \"contracts/ERC6909.sol\":2279:2287  operator */\n      dup6\n        /* \"contracts/ERC6909.sol\":2256:2288  isOperator[msg.sender][operator] */\n      0xffffffffffffffffffffffffffffffffffffffff\n      and\n      0xffffffffffffffffffffffffffffffffffffffff\n      and\n      dup2\n      mstore\n      0x20\n      add\n      swap1\n      dup2\n      mstore\n      0x20\n      add\n      0x00\n      keccak256\n      0x00\n        /* \"contracts/ERC6909.sol\":2256:2299  isOperator[msg.sender][operator] = approved */\n      0x0100\n      exp\n      dup2\n      sload\n      dup2\n      0xff\n      mul\n      not\n      and\n      swap1\n      dup4\n      iszero\n      iszero\n      mul\n      or\n      swap1\n      sstore\n      pop\n        /* \"contracts/ERC6909.sol\":2339:2347  operator */\n      dup3\n        /* \"contracts/ERC6909.sol\":2315:2358  OperatorSet(msg.sender, operator, approved) */\n      0xffffffffffffffffffffffffffffffffffffffff\n      and\n        /* \"contracts/ERC6909.sol\":2327:2337  msg.sender */\n      caller\n        /* \"contracts/ERC6909.sol\":2315:2358  OperatorSet(msg.sender, operator, approved) */\n      0xffffffffffffffffffffffffffffffffffffffff\n      and\n      0xceb576d9f15e4e200fdb5096d64d5dfd667e16def20c1eefd14256d8e3faa267\n        /* \"contracts/ERC6909.sol\":2349:2357  approved */\n      dup5\n        /* \"contracts/ERC6909.sol\":2315:2358  OperatorSet(msg.sender, operator, approved) */\n      mload(0x40)\n      tag_88\n      swap2\n      swap1\n      tag_27\n      jump\t// in\n    tag_88:\n      mload(0x40)\n      dup1\n      swap2\n      sub\n      swap1\n      log3\n        /* \"contracts/ERC6909.sol\":2376:2380  true */\n      0x01\n        /* \"contracts/ERC6909.sol\":2369:2380  return true */\n      swap1\n      pop\n        /* \"contracts/ERC6909.sol\":2162:2387  function setOperator(address operator, bool approved) public virtual returns (bool) {... */\n      swap3\n      swap2\n      pop\n      pop\n      jump\t// out\n        /* \"contracts/ERC6909.sol\":792:900  mapping(address owner => mapping(address spender => mapping(uint256 id => uint256 amount))) public allowance */\n    tag_51:\n      mstore(0x20, 0x02)\n      dup3\n      0x00\n      mstore\n      mstore(0x20, keccak256(0x00, 0x40))\n      dup2\n      0x00\n      mstore\n      mstore(0x20, keccak256(0x00, 0x40))\n      dup1\n      0x00\n      mstore\n      keccak256(0x00, 0x40)\n      0x00\n      swap3\n      pop\n      swap3\n      pop\n      pop\n      pop\n      sload\n      dup2\n      jump\t// out\n        /* \"contracts/PoolManager.sol\":1104:1879  function quote(SwapParams calldata params) public returns (uint256) {... */\n    tag_56:\n        /* \"contracts/PoolManager.sol\":1163:1170  uint256 */\n      0x00\n        /* \"contracts/PoolManager.sol\":1191:1205  uint256 poolID */\n      0x00\n        /* \"contracts/PoolManager.sol\":1208:1278  PoolIDHelper.poolID(params.quoter, params.bucketID, params.currencyID) */\n      tag_90\n        /* \"contracts/PoolManager.sol\":1228:1234  params */\n      dup4\n        /* \"contracts/PoolManager.sol\":1228:1241  params.quoter */\n      0x20\n      add\n      0x20\n      dup2\n      add\n      swap1\n      tag_91\n      swap2\n      swap1\n      tag_92\n      jump\t// in\n    tag_91:\n        /* \"contracts/PoolManager.sol\":1243:1249  params */\n      dup5\n        /* \"contracts/PoolManager.sol\":1243:1258  params.bucketID */\n      0x40\n      add\n      0x20\n      dup2\n      add\n      swap1\n      tag_93\n      swap2\n      swap1\n      tag_94\n      jump\t// in\n    tag_93:\n        /* \"contracts/PoolManager.sol\":1260:1266  params */\n      dup6\n        /* \"contracts/PoolManager.sol\":1260:1277  params.currencyID */\n      0x00\n      add\n      0x20\n      dup2\n      add\n      swap1\n      tag_95\n      swap2\n      swap1\n      tag_96\n      jump\t// in\n    tag_95:\n        /* \"contracts/PoolManager.sol\":1208:1227  PoolIDHelper.poolID */\n      tag_97\n        /* \"contracts/PoolManager.sol\":1208:1278  PoolIDHelper.poolID(params.quoter, params.bucketID, params.currencyID) */\n      jump\t// in\n    tag_90:\n        /* \"contracts/PoolManager.sol\":1191:1278  uint256 poolID = PoolIDHelper.poolID(params.quoter, params.bucketID, params.currencyID) */\n      swap1\n      pop\n        /* \"contracts/PoolManager.sol\":1288:1316  MarketData memory marketData */\n      0x00\n        /* \"contracts/PoolManager.sol\":1337:1350  marketAddress */\n      immutable(\"0x1f149d6c96e793351c7a360bcab9e10c751eb5044885f39398212a489e22545b\")\n        /* \"contracts/PoolManager.sol\":1319:1363  IMarketDataQuoter(marketAddress).quoteMarket */\n      0xffffffffffffffffffffffffffffffffffffffff\n      and\n      0x3dc355fe\n        /* \"contracts/PoolManager.sol\":1364:1370  params */\n      dup6\n        /* \"contracts/PoolManager.sol\":1364:1381  params.currencyID */\n      0x00\n      add\n      0x20\n      dup2\n      add\n      swap1\n      tag_98\n      swap2\n      swap1\n      tag_96\n      jump\t// in\n    tag_98:\n        /* \"contracts/PoolManager.sol\":1319:1382  IMarketDataQuoter(marketAddress).quoteMarket(params.currencyID) */\n      mload(0x40)\n      dup3\n      0xffffffff\n      and\n      0xe0\n      shl\n      dup2\n      mstore\n      0x04\n      add\n      tag_99\n      swap2\n      swap1\n      tag_100\n      jump\t// in\n    tag_99:\n      0x40\n      dup1\n      mload\n      dup1\n      dup4\n      sub\n      dup2\n      0x00\n      dup8\n      gas\n      call\n      iszero\n      dup1\n      iszero\n      tag_102\n      jumpi\n      returndatacopy(0x00, 0x00, returndatasize)\n      revert(0x00, returndatasize)\n    tag_102:\n      pop\n      pop\n      pop\n      pop\n      mload(0x40)\n      returndatasize\n      not(0x1f)\n      0x1f\n      dup3\n      add\n      and\n      dup3\n      add\n      dup1\n      0x40\n      mstore\n      pop\n      dup2\n      add\n      swap1\n      tag_103\n      swap2\n      swap1\n      tag_104\n      jump\t// in\n    tag_103:\n        /* \"contracts/PoolManager.sol\":1288:1382  MarketData memory marketData = IMarketDataQuoter(marketAddress).quoteMarket(params.currencyID) */\n      swap1\n      pop\n        /* \"contracts/PoolManager.sol\":1393:1411  uint128 inventory0 */\n      0x00\n        /* \"contracts/PoolManager.sol\":1413:1431  uint128 inventory1 */\n      0x00\n        /* \"contracts/PoolManager.sol\":1435:1452  inventory(poolID) */\n      tag_105\n        /* \"contracts/PoolManager.sol\":1445:1451  poolID */\n      dup5\n        /* \"contracts/PoolManager.sol\":1435:1444  inventory */\n      tag_40\n        /* \"contracts/PoolManager.sol\":1435:1452  inventory(poolID) */\n      jump\t// in\n    tag_105:\n        /* \"contracts/PoolManager.sol\":1392:1452  (uint128 inventory0, uint128 inventory1) = inventory(poolID) */\n      swap2\n      pop\n      swap2\n      pop\n        /* \"contracts/PoolManager.sol\":1462:1493  QuoteParams memory quoterParams */\n      0x00\n        /* \"contracts/PoolManager.sol\":1496:1623  QuoteParams(... */\n      mload(0x40)\n      dup1\n      0x80\n      add\n      0x40\n      mstore\n      dup1\n        /* \"contracts/PoolManager.sol\":1521:1527  params */\n      dup9\n        /* \"contracts/PoolManager.sol\":1521:1534  params.amount */\n      0x60\n      add\n      calldataload\n        /* \"contracts/PoolManager.sol\":1496:1623  QuoteParams(... */\n      dup2\n      mstore\n      0x20\n      add\n        /* \"contracts/PoolManager.sol\":1548:1554  params */\n      dup9\n        /* \"contracts/PoolManager.sol\":1548:1565  params.zeroForOne */\n      0x80\n      add\n      0x20\n      dup2\n      add\n      swap1\n      tag_106\n      swap2\n      swap1\n      tag_107\n      jump\t// in\n    tag_106:\n        /* \"contracts/PoolManager.sol\":1496:1623  QuoteParams(... */\n      iszero\n      iszero\n      dup2\n      mstore\n      0x20\n      add\n        /* \"contracts/PoolManager.sol\":1579:1589  inventory0 */\n      dup5\n        /* \"contracts/PoolManager.sol\":1496:1623  QuoteParams(... */\n      0xffffffffffffffffffffffffffffffff\n      and\n      dup2\n      mstore\n      0x20\n      add\n        /* \"contracts/PoolManager.sol\":1603:1613  inventory1 */\n      dup4\n        /* \"contracts/PoolManager.sol\":1496:1623  QuoteParams(... */\n      0xffffffffffffffffffffffffffffffff\n      and\n      dup2\n      mstore\n      pop\n        /* \"contracts/PoolManager.sol\":1462:1623  QuoteParams memory quoterParams = QuoteParams(... */\n      swap1\n      pop\n        /* \"contracts/PoolManager.sol\":1634:1667  StoixQuoterRequest memory request */\n      0x00\n        /* \"contracts/PoolManager.sol\":1670:1777  StoixQuoterRequest(... */\n      mload(0x40)\n      dup1\n      0x60\n      add\n      0x40\n      mstore\n      dup1\n        /* \"contracts/PoolManager.sol\":1702:1708  params */\n      dup10\n        /* \"contracts/PoolManager.sol\":1702:1717  params.bucketID */\n      0x40\n      add\n      0x20\n      dup2\n      add\n      swap1\n      tag_108\n      swap2\n      swap1\n      tag_94\n      jump\t// in\n    tag_108:\n        /* \"contracts/PoolManager.sol\":1670:1777  StoixQuoterRequest(... */\n      0xffff\n      and\n      dup2\n      mstore\n      0x20\n      add\n        /* \"contracts/PoolManager.sol\":1731:1741  marketData */\n      dup7\n        /* \"contracts/PoolManager.sol\":1670:1777  StoixQuoterRequest(... */\n      dup2\n      mstore\n      0x20\n      add\n        /* \"contracts/PoolManager.sol\":1755:1767  quoterParams */\n      dup4\n        /* \"contracts/PoolManager.sol\":1670:1777  StoixQuoterRequest(... */\n      dup2\n      mstore\n      pop\n        /* \"contracts/PoolManager.sol\":1634:1777  StoixQuoterRequest memory request = StoixQuoterRequest(... */\n      swap1\n      pop\n        /* \"contracts/PoolManager.sol\":1807:1813  params */\n      dup8\n        /* \"contracts/PoolManager.sol\":1807:1820  params.quoter */\n      0x20\n      add\n      0x20\n      dup2\n      add\n      swap1\n      tag_109\n      swap2\n      swap1\n      tag_92\n      jump\t// in\n    tag_109:\n        /* \"contracts/PoolManager.sol\":1794:1827  IStoixQuoter(params.quoter).quote */\n      0xffffffffffffffffffffffffffffffffffffffff\n      and\n      0xe176b360\n        /* \"contracts/PoolManager.sol\":1828:1835  request */\n      dup3\n        /* \"contracts/PoolManager.sol\":1794:1836  IStoixQuoter(params.quoter).quote(request) */\n      mload(0x40)\n      dup3\n      0xffffffff\n      and\n      0xe0\n      shl\n      dup2\n      mstore\n      0x04\n      add\n      tag_110\n      swap2\n      swap1\n      tag_111\n      jump\t// in\n    tag_110:\n      0x20\n      mload(0x40)\n      dup1\n      dup4\n      sub\n      dup2\n      0x00\n      dup8\n      gas\n      call\n      iszero\n      dup1\n      iszero\n      tag_113\n      jumpi\n      returndatacopy(0x00, 0x00, returndatasize)\n      revert(0x00, returndatasize)\n    tag_113:\n      pop\n      pop\n      pop\n      pop\n      mload(0x40)\n      returndatasize\n      not(0x1f)\n      0x1f\n      dup3\n      add\n      and\n      dup3\n      add\n      dup1\n      0x40\n      mstore\n      pop\n      dup2\n      add\n      swap1\n      tag_114\n      swap2\n      swap1\n      tag_115\n      jump\t// in\n    tag_114:\n        /* \"contracts/PoolManager.sol\":1787:1836  return IStoixQuoter(params.quoter).quote(request) */\n      swap7\n      pop\n      pop\n      pop\n      pop\n      pop\n      pop\n      pop\n        /* \"contracts/PoolManager.sol\":1104:1879  function quote(SwapParams calldata params) public returns (uint256) {... */\n      swap2\n      swap1\n      pop\n      jump\t// out\n        /* \"contracts/PoolManager.sol\":972:1034  function swap() public returns (bool success) {... */\n    tag_59:\n        /* \"contracts/PoolManager.sol\":1004:1016  bool success */\n      0x00\n        /* \"contracts/PoolManager.sol\":972:1034  function swap() public returns (bool success) {... */\n      swap1\n      jump\t// out\n        /* \"contracts/PoolManager.sol\":838:877  address immutable  public marketAddress */\n    tag_62:\n      immutable(\"0x1f149d6c96e793351c7a360bcab9e10c751eb5044885f39398212a489e22545b\")\n      dup2\n      jump\t// out\n        /* \"contracts/ERC6909.sol\":609:697  mapping(address owner => mapping(address operator => bool isOperator)) public isOperator */\n    tag_68:\n      mstore(0x20, 0x00)\n      dup2\n      0x00\n      mstore\n      mstore(0x20, keccak256(0x00, 0x40))\n      dup1\n      0x00\n      mstore\n      keccak256(0x00, 0x40)\n      0x00\n      swap2\n      pop\n      swap2\n      pop\n      swap1\n      sload\n      swap1\n      0x0100\n      exp\n      swap1\n      div\n      0xff\n      and\n      dup2\n      jump\t// out\n        /* \"contracts/ERC6909.sol\":1378:1919  function transferFrom(address sender, address receiver, uint256 id, uint256 amount) public virtual returns (bool) {... */\n    tag_73:\n        /* \"contracts/ERC6909.sol\":1486:1490  bool */\n      0x00\n        /* \"contracts/ERC6909.sol\":1520:1526  sender */\n      dup5\n        /* \"contracts/ERC6909.sol\":1506:1526  msg.sender != sender */\n      0xffffffffffffffffffffffffffffffffffffffff\n      and\n        /* \"contracts/ERC6909.sol\":1506:1516  msg.sender */\n      caller\n        /* \"contracts/ERC6909.sol\":1506:1526  msg.sender != sender */\n      0xffffffffffffffffffffffffffffffffffffffff\n      and\n      eq\n      iszero\n        /* \"contracts/ERC6909.sol\":1506:1561  msg.sender != sender && !isOperator[sender][msg.sender] */\n      dup1\n      iszero\n      tag_118\n      jumpi\n      pop\n        /* \"contracts/ERC6909.sol\":1531:1541  isOperator */\n      0x00\n        /* \"contracts/ERC6909.sol\":1531:1549  isOperator[sender] */\n      0x00\n        /* \"contracts/ERC6909.sol\":1542:1548  sender */\n      dup7\n        /* \"contracts/ERC6909.sol\":1531:1549  isOperator[sender] */\n      0xffffffffffffffffffffffffffffffffffffffff\n      and\n      0xffffffffffffffffffffffffffffffffffffffff\n      and\n      dup2\n      mstore\n      0x20\n      add\n      swap1\n      dup2\n      mstore\n      0x20\n      add\n      0x00\n      keccak256\n        /* \"contracts/ERC6909.sol\":1531:1561  isOperator[sender][msg.sender] */\n      0x00\n        /* \"contracts/ERC6909.sol\":1550:1560  msg.sender */\n      caller\n        /* \"contracts/ERC6909.sol\":1531:1561  isOperator[sender][msg.sender] */\n      0xffffffffffffffffffffffffffffffffffffffff\n      and\n      0xffffffffffffffffffffffffffffffffffffffff\n      and\n      dup2\n      mstore\n      0x20\n      add\n      swap1\n      dup2\n      mstore\n      0x20\n      add\n      0x00\n      keccak256\n      0x00\n      swap1\n      sload\n      swap1\n      0x0100\n      exp\n      swap1\n      div\n      0xff\n      and\n        /* \"contracts/ERC6909.sol\":1530:1561  !isOperator[sender][msg.sender] */\n      iszero\n        /* \"contracts/ERC6909.sol\":1506:1561  msg.sender != sender && !isOperator[sender][msg.sender] */\n    tag_118:\n        /* \"contracts/ERC6909.sol\":1502:1739  if (msg.sender != sender && !isOperator[sender][msg.sender]) {... */\n      iszero\n      tag_119\n      jumpi\n        /* \"contracts/ERC6909.sol\":1577:1592  uint256 allowed */\n      0x00\n        /* \"contracts/ERC6909.sol\":1595:1604  allowance */\n      0x02\n        /* \"contracts/ERC6909.sol\":1595:1612  allowance[sender] */\n      0x00\n        /* \"contracts/ERC6909.sol\":1605:1611  sender */\n      dup8\n        /* \"contracts/ERC6909.sol\":1595:1612  allowance[sender] */\n      0xffffffffffffffffffffffffffffffffffffffff\n      and\n      0xffffffffffffffffffffffffffffffffffffffff\n      and\n      dup2\n      mstore\n      0x20\n      add\n      swap1\n      dup2\n      mstore\n      0x20\n      add\n      0x00\n      keccak256\n        /* \"contracts/ERC6909.sol\":1595:1624  allowance[sender][msg.sender] */\n      0x00\n        /* \"contracts/ERC6909.sol\":1613:1623  msg.sender */\n      caller\n        /* \"contracts/ERC6909.sol\":1595:1624  allowance[sender][msg.sender] */\n      0xffffffffffffffffffffffffffffffffffffffff\n      and\n      0xffffffffffffffffffffffffffffffffffffffff\n      and\n      dup2\n      mstore\n      0x20\n      add\n      swap1\n      dup2\n      mstore\n      0x20\n      add\n      0x00\n      keccak256\n        /* \"contracts/ERC6909.sol\":1595:1628  allowance[sender][msg.sender][id] */\n      0x00\n        /* \"contracts/ERC6909.sol\":1625:1627  id */\n      dup6\n        /* \"contracts/ERC6909.sol\":1595:1628  allowance[sender][msg.sender][id] */\n      dup2\n      mstore\n      0x20\n      add\n      swap1\n      dup2\n      mstore\n      0x20\n      add\n      0x00\n      keccak256\n      sload\n        /* \"contracts/ERC6909.sol\":1577:1628  uint256 allowed = allowance[sender][msg.sender][id] */\n      swap1\n      pop\n        /* \"contracts/ERC6909.sol\":1657:1674  type(uint256).max */\n      0xffffffffffffffffffffffffffffffffffffffffffffffffffffffffffffffff\n        /* \"contracts/ERC6909.sol\":1646:1653  allowed */\n      dup2\n        /* \"contracts/ERC6909.sol\":1646:1674  allowed != type(uint256).max */\n      eq\n        /* \"contracts/ERC6909.sol\":1642:1728  if (allowed != type(uint256).max) allowance[sender][msg.sender][id] = allowed - amount */\n      tag_120\n      jumpi\n        /* \"contracts/ERC6909.sol\":1722:1728  amount */\n      dup3\n        /* \"contracts/ERC6909.sol\":1712:1719  allowed */\n      dup2\n        /* \"contracts/ERC6909.sol\":1712:1728  allowed - amount */\n      tag_121\n      swap2\n      swap1\n      tag_79\n      jump\t// in\n    tag_121:\n        /* \"contracts/ERC6909.sol\":1676:1685  allowance */\n      0x02\n        /* \"contracts/ERC6909.sol\":1676:1693  allowance[sender] */\n      0x00\n        /* \"contracts/ERC6909.sol\":1686:1692  sender */\n      dup9\n        /* \"contracts/ERC6909.sol\":1676:1693  allowance[sender] */\n      0xffffffffffffffffffffffffffffffffffffffff\n      and\n      0xffffffffffffffffffffffffffffffffffffffff\n      and\n      dup2\n      mstore\n      0x20\n      add\n      swap1\n      dup2\n      mstore\n      0x20\n      add\n      0x00\n      keccak256\n        /* \"contracts/ERC6909.sol\":1676:1705  allowance[sender][msg.sender] */\n      0x00\n        /* \"contracts/ERC6909.sol\":1694:1704  msg.sender */\n      caller\n        /* \"contracts/ERC6909.sol\":1676:1705  allowance[sender][msg.sender] */\n      0xffffffffffffffffffffffffffffffffffffffff\n      and\n      0xffffffffffffffffffffffffffffffffffffffff\n      and\n      dup2\n      mstore\n      0x20\n      add\n      swap1\n      dup2\n      mstore\n      0x20\n      add\n      0x00\n      keccak256\n        /* \"contracts/ERC6909.sol\":1676:1709  allowance[sender][msg.sender][id] */\n      0x00\n        /* \"contracts/ERC6909.sol\":1706:1708  id */\n      dup7\n        /* \"contracts/ERC6909.sol\":1676:1709  allowance[sender][msg.sender][id] */\n      dup2\n      mstore\n      0x20\n      add\n      swap1\n      dup2\n      mstore\n      0x20\n      add\n      0x00\n      keccak256\n        /* \"contracts/ERC6909.sol\":1676:1728  allowance[sender][msg.sender][id] = allowed - amount */\n      dup2\n      swap1\n      sstore\n      pop\n        /* \"contracts/ERC6909.sol\":1642:1728  if (allowed != type(uint256).max) allowance[sender][msg.sender][id] = allowed - amount */\n    tag_120:\n        /* \"contracts/ERC6909.sol\":1563:1739  {... */\n      pop\n        /* \"contracts/ERC6909.sol\":1502:1739  if (msg.sender != sender && !isOperator[sender][msg.sender]) {... */\n    tag_119:\n        /* \"contracts/ERC6909.sol\":1774:1780  amount */\n      dup2\n        /* \"contracts/ERC6909.sol\":1749:1758  balanceOf */\n      0x01\n        /* \"contracts/ERC6909.sol\":1749:1766  balanceOf[sender] */\n      0x00\n        /* \"contracts/ERC6909.sol\":1759:1765  sender */\n      dup8\n        /* \"contracts/ERC6909.sol\":1749:1766  balanceOf[sender] */\n      0xffffffffffffffffffffffffffffffffffffffff\n      and\n      0xffffffffffffffffffffffffffffffffffffffff\n      and\n      dup2\n      mstore\n      0x20\n      add\n      swap1\n      dup2\n      mstore\n      0x20\n      add\n      0x00\n      keccak256\n        /* \"contracts/ERC6909.sol\":1749:1770  balanceOf[sender][id] */\n      0x00\n        /* \"contracts/ERC6909.sol\":1767:1769  id */\n      dup6\n        /* \"contracts/ERC6909.sol\":1749:1770  balanceOf[sender][id] */\n      dup2\n      mstore\n      0x20\n      add\n      swap1\n      dup2\n      mstore\n      0x20\n      add\n      0x00\n      keccak256\n      0x00\n        /* \"contracts/ERC6909.sol\":1749:1780  balanceOf[sender][id] -= amount */\n      dup3\n      dup3\n      sload\n      tag_122\n      swap2\n      swap1\n      tag_79\n      jump\t// in\n    tag_122:\n      swap3\n      pop\n      pop\n      dup2\n      swap1\n      sstore\n      pop\n        /* \"contracts/ERC6909.sol\":1818:1824  amount */\n      dup2\n        /* \"contracts/ERC6909.sol\":1791:1800  balanceOf */\n      0x01\n        /* \"contracts/ERC6909.sol\":1791:1810  balanceOf[receiver] */\n      0x00\n        /* \"contracts/ERC6909.sol\":1801:1809  receiver */\n      dup7\n        /* \"contracts/ERC6909.sol\":1791:1810  balanceOf[receiver] */\n      0xffffffffffffffffffffffffffffffffffffffff\n      and\n      0xffffffffffffffffffffffffffffffffffffffff\n      and\n      dup2\n      mstore\n      0x20\n      add\n      swap1\n      dup2\n      mstore\n      0x20\n      add\n      0x00\n      keccak256\n        /* \"contracts/ERC6909.sol\":1791:1814  balanceOf[receiver][id] */\n      0x00\n        /* \"contracts/ERC6909.sol\":1811:1813  id */\n      dup6\n        /* \"contracts/ERC6909.sol\":1791:1814  balanceOf[receiver][id] */\n      dup2\n      mstore\n      0x20\n      add\n      swap1\n      dup2\n      mstore\n      0x20\n      add\n      0x00\n      keccak256\n      0x00\n        /* \"contracts/ERC6909.sol\":1791:1824  balanceOf[receiver][id] += amount */\n      dup3\n      dup3\n      sload\n      tag_123\n      swap2\n      swap1\n      tag_81\n      jump\t// in\n    tag_123:\n      swap3\n      pop\n      pop\n      dup2\n      swap1\n      sstore\n      pop\n        /* \"contracts/ERC6909.sol\":1879:1881  id */\n      dup3\n        /* \"contracts/ERC6909.sol\":1869:1877  receiver */\n      dup5\n        /* \"contracts/ERC6909.sol\":1840:1890  Transfer(msg.sender, sender, receiver, id, amount) */\n      0xffffffffffffffffffffffffffffffffffffffff\n      and\n        /* \"contracts/ERC6909.sol\":1861:1867  sender */\n      dup7\n        /* \"contracts/ERC6909.sol\":1840:1890  Transfer(msg.sender, sender, receiver, id, amount) */\n      0xffffffffffffffffffffffffffffffffffffffff\n      and\n      0x1b3d7edb2e9c0b0e7c525b20aaaef0f5940d2ed71663c7d39266ecafac728859\n        /* \"contracts/ERC6909.sol\":1849:1859  msg.sender */\n      caller\n        /* \"contracts/ERC6909.sol\":1883:1889  amount */\n      dup7\n        /* \"contracts/ERC6909.sol\":1840:1890  Transfer(msg.sender, sender, receiver, id, amount) */\n      mload(0x40)\n      tag_124\n      swap3\n      swap2\n      swap1\n      tag_83\n      jump\t// in\n    tag_124:\n      mload(0x40)\n      dup1\n      swap2\n      sub\n      swap1\n      log4\n        /* \"contracts/ERC6909.sol\":1908:1912  true */\n      0x01\n        /* \"contracts/ERC6909.sol\":1901:1912  return true */\n      swap1\n      pop\n        /* \"contracts/ERC6909.sol\":1378:1919  function transferFrom(address sender, address receiver, uint256 id, uint256 amount) public virtual returns (bool) {... */\n      swap5\n      swap4\n      pop\n      pop\n      pop\n      pop\n      jump\t// out\n        /* \"contracts/libraries/PoolIDHelper.sol\":87:622  function poolID(address quoterAddress, uint16 bucketID, uint80 currencyID) internal pure returns (uint256 _poolID) {... */\n    tag_97:\n        /* \"contracts/libraries/PoolIDHelper.sol\":185:200  uint256 _poolID */\n      0x00\n        /* \"contracts/libraries/PoolIDHelper.sol\":350:363  quoterAddress */\n      dup4\n        /* \"contracts/libraries/PoolIDHelper.sol\":339:363  _poolID := quoterAddress */\n      swap1\n      pop\n        /* \"contracts/libraries/PoolIDHelper.sol\":497:504  _poolID */\n      dup1\n        /* \"contracts/libraries/PoolIDHelper.sol\":493:495  96 */\n      0x60\n        /* \"contracts/libraries/PoolIDHelper.sol\":489:505  shl(96, _poolID) */\n      shl\n        /* \"contracts/libraries/PoolIDHelper.sol\":478:505  _poolID := shl(96, _poolID) */\n      swap1\n      pop\n        /* \"contracts/libraries/PoolIDHelper.sol\":549:557  bucketID */\n      dup3\n        /* \"contracts/libraries/PoolIDHelper.sol\":545:547  80 */\n      0x50\n        /* \"contracts/libraries/PoolIDHelper.sol\":541:558  shl(80, bucketID) */\n      shl\n        /* \"contracts/libraries/PoolIDHelper.sol\":532:539  _poolID */\n      dup2\n        /* \"contracts/libraries/PoolIDHelper.sol\":529:559  or(_poolID, shl(80, bucketID)) */\n      or\n        /* \"contracts/libraries/PoolIDHelper.sol\":518:559  _poolID := or(_poolID, shl(80, bucketID)) */\n      swap1\n      pop\n        /* \"contracts/libraries/PoolIDHelper.sol\":595:605  currencyID */\n      dup2\n        /* \"contracts/libraries/PoolIDHelper.sol\":586:593  _poolID */\n      dup2\n        /* \"contracts/libraries/PoolIDHelper.sol\":583:606  or(_poolID, currencyID) */\n      or\n        /* \"contracts/libraries/PoolIDHelper.sol\":572:606  _poolID := or(_poolID, currencyID) */\n      swap1\n      pop\n        /* \"contracts/libraries/PoolIDHelper.sol\":87:622  function poolID(address quoterAddress, uint16 bucketID, uint80 currencyID) internal pure returns (uint256 _poolID) {... */\n      swap4\n      swap3\n      pop\n      pop\n      pop\n      jump\t// out\n        /* \"#utility.yul\":7:82   */\n    tag_126:\n        /* \"#utility.yul\":40:46   */\n      0x00\n        /* \"#utility.yul\":73:75   */\n      0x40\n        /* \"#utility.yul\":67:76   */\n      mload\n        /* \"#utility.yul\":57:76   */\n      swap1\n      pop\n        /* \"#utility.yul\":7:82   */\n      swap1\n      jump\t// out\n        /* \"#utility.yul\":88:205   */\n    tag_127:\n        /* \"#utility.yul\":197:198   */\n      0x00\n        /* \"#utility.yul\":194:195   */\n      0x00\n        /* \"#utility.yul\":187:199   */\n      revert\n        /* \"#utility.yul\":334:460   */\n    tag_129:\n        /* \"#utility.yul\":371:378   */\n      0x00\n        /* \"#utility.yul\":411:453   */\n      0xffffffffffffffffffffffffffffffffffffffff\n        /* \"#utility.yul\":404:409   */\n      dup3\n        /* \"#utility.yul\":400:454   */\n      and\n        /* \"#utility.yul\":389:454   */\n      swap1\n      pop\n        /* \"#utility.yul\":334:460   */\n      swap2\n      swap1\n      pop\n      jump\t// out\n        /* \"#utility.yul\":466:562   */\n    tag_130:\n        /* \"#utility.yul\":503:510   */\n      0x00\n        /* \"#utility.yul\":532:556   */\n      tag_179\n        /* \"#utility.yul\":550:555   */\n      dup3\n        /* \"#utility.yul\":532:556   */\n      tag_129\n      jump\t// in\n    tag_179:\n        /* \"#utility.yul\":521:556   */\n      swap1\n      pop\n        /* \"#utility.yul\":466:562   */\n      swap2\n      swap1\n      pop\n      jump\t// out\n        /* \"#utility.yul\":568:690   */\n    tag_131:\n        /* \"#utility.yul\":641:665   */\n      tag_181\n        /* \"#utility.yul\":659:664   */\n      dup2\n        /* \"#utility.yul\":641:665   */\n      tag_130\n      jump\t// in\n    tag_181:\n        /* \"#utility.yul\":634:639   */\n      dup2\n        /* \"#utility.yul\":631:666   */\n      eq\n        /* \"#utility.yul\":621:684   */\n      tag_182\n      jumpi\n        /* \"#utility.yul\":680:681   */\n      0x00\n        /* \"#utility.yul\":677:678   */\n      0x00\n        /* \"#utility.yul\":670:682   */\n      revert\n        /* \"#utility.yul\":621:684   */\n    tag_182:\n        /* \"#utility.yul\":568:690   */\n      pop\n      jump\t// out\n        /* \"#utility.yul\":696:835   */\n    tag_132:\n        /* \"#utility.yul\":742:747   */\n      0x00\n        /* \"#utility.yul\":780:786   */\n      dup2\n        /* \"#utility.yul\":767:787   */\n      calldataload\n        /* \"#utility.yul\":758:787   */\n      swap1\n      pop\n        /* \"#utility.yul\":796:829   */\n      tag_184\n        /* \"#utility.yul\":823:828   */\n      dup2\n        /* \"#utility.yul\":796:829   */\n      tag_131\n      jump\t// in\n    tag_184:\n        /* \"#utility.yul\":696:835   */\n      swap3\n      swap2\n      pop\n      pop\n      jump\t// out\n        /* \"#utility.yul\":841:918   */\n    tag_133:\n        /* \"#utility.yul\":878:885   */\n      0x00\n        /* \"#utility.yul\":907:912   */\n      dup2\n        /* \"#utility.yul\":896:912   */\n      swap1\n      pop\n        /* \"#utility.yul\":841:918   */\n      swap2\n      swap1\n      pop\n      jump\t// out\n        /* \"#utility.yul\":924:1046   */\n    tag_134:\n        /* \"#utility.yul\":997:1021   */\n      tag_187\n        /* \"#utility.yul\":1015:1020   */\n      dup2\n        /* \"#utility.yul\":997:1021   */\n      tag_133\n      jump\t// in\n    tag_187:\n        /* \"#utility.yul\":990:995   */\n      dup2\n        /* \"#utility.yul\":987:1022   */\n      eq\n        /* \"#utility.yul\":977:1040   */\n      tag_188\n      jumpi\n        /* \"#utility.yul\":1036:1037   */\n      0x00\n        /* \"#utility.yul\":1033:1034   */\n      0x00\n        /* \"#utility.yul\":1026:1038   */\n      revert\n        /* \"#utility.yul\":977:1040   */\n    tag_188:\n        /* \"#utility.yul\":924:1046   */\n      pop\n      jump\t// out\n        /* \"#utility.yul\":1052:1191   */\n    tag_135:\n        /* \"#utility.yul\":1098:1103   */\n      0x00\n        /* \"#utility.yul\":1136:1142   */\n      dup2\n        /* \"#utility.yul\":1123:1143   */\n      calldataload\n        /* \"#utility.yul\":1114:1143   */\n      swap1\n      pop\n        /* \"#utility.yul\":1152:1185   */\n      tag_190\n        /* \"#utility.yul\":1179:1184   */\n      dup2\n        /* \"#utility.yul\":1152:1185   */\n      tag_134\n      jump\t// in\n    tag_190:\n        /* \"#utility.yul\":1052:1191   */\n      swap3\n      swap2\n      pop\n      pop\n      jump\t// out\n        /* \"#utility.yul\":1197:1671   */\n    tag_18:\n        /* \"#utility.yul\":1265:1271   */\n      0x00\n        /* \"#utility.yul\":1273:1279   */\n      0x00\n        /* \"#utility.yul\":1322:1324   */\n      0x40\n        /* \"#utility.yul\":1310:1319   */\n      dup4\n        /* \"#utility.yul\":1301:1308   */\n      dup6\n        /* \"#utility.yul\":1297:1320   */\n      sub\n        /* \"#utility.yul\":1293:1325   */\n      slt\n        /* \"#utility.yul\":1290:1409   */\n      iszero\n      tag_192\n      jumpi\n        /* \"#utility.yul\":1328:1407   */\n      tag_193\n      tag_127\n      jump\t// in\n    tag_193:\n        /* \"#utility.yul\":1290:1409   */\n    tag_192:\n        /* \"#utility.yul\":1448:1449   */\n      0x00\n        /* \"#utility.yul\":1473:1526   */\n      tag_194\n        /* \"#utility.yul\":1518:1525   */\n      dup6\n        /* \"#utility.yul\":1509:1515   */\n      dup3\n        /* \"#utility.yul\":1498:1507   */\n      dup7\n        /* \"#utility.yul\":1494:1516   */\n      add\n        /* \"#utility.yul\":1473:1526   */\n      tag_132\n      jump\t// in\n    tag_194:\n        /* \"#utility.yul\":1463:1526   */\n      swap3\n      pop\n        /* \"#utility.yul\":1419:1536   */\n      pop\n        /* \"#utility.yul\":1575:1577   */\n      0x20\n        /* \"#utility.yul\":1601:1654   */\n      tag_195\n        /* \"#utility.yul\":1646:1653   */\n      dup6\n        /* \"#utility.yul\":1637:1643   */\n      dup3\n        /* \"#utility.yul\":1626:1635   */\n      dup7\n        /* \"#utility.yul\":1622:1644   */\n      add\n        /* \"#utility.yul\":1601:1654   */\n      tag_135\n      jump\t// in\n    tag_195:\n        /* \"#utility.yul\":1591:1654   */\n      swap2\n      pop\n        /* \"#utility.yul\":1546:1664   */\n      pop\n        /* \"#utility.yul\":1197:1671   */\n      swap3\n      pop\n      swap3\n      swap1\n      pop\n      jump\t// out\n        /* \"#utility.yul\":1677:1795   */\n    tag_136:\n        /* \"#utility.yul\":1764:1788   */\n      tag_197\n        /* \"#utility.yul\":1782:1787   */\n      dup2\n        /* \"#utility.yul\":1764:1788   */\n      tag_133\n      jump\t// in\n    tag_197:\n        /* \"#utility.yul\":1759:1762   */\n      dup3\n        /* \"#utility.yul\":1752:1789   */\n      mstore\n        /* \"#utility.yul\":1677:1795   */\n      pop\n      pop\n      jump\t// out\n        /* \"#utility.yul\":1801:2023   */\n    tag_21:\n        /* \"#utility.yul\":1894:1898   */\n      0x00\n        /* \"#utility.yul\":1932:1934   */\n      0x20\n        /* \"#utility.yul\":1921:1930   */\n      dup3\n        /* \"#utility.yul\":1917:1935   */\n      add\n        /* \"#utility.yul\":1909:1935   */\n      swap1\n      pop\n        /* \"#utility.yul\":1945:2016   */\n      tag_199\n        /* \"#utility.yul\":2013:2014   */\n      0x00\n        /* \"#utility.yul\":2002:2011   */\n      dup4\n        /* \"#utility.yul\":1998:2015   */\n      add\n        /* \"#utility.yul\":1989:1995   */\n      dup5\n        /* \"#utility.yul\":1945:2016   */\n      tag_136\n      jump\t// in\n    tag_199:\n        /* \"#utility.yul\":1801:2023   */\n      swap3\n      swap2\n      pop\n      pop\n      jump\t// out\n        /* \"#utility.yul\":2029:2178   */\n    tag_137:\n        /* \"#utility.yul\":2065:2072   */\n      0x00\n        /* \"#utility.yul\":2105:2171   */\n      0xffffffff00000000000000000000000000000000000000000000000000000000\n        /* \"#utility.yul\":2098:2103   */\n      dup3\n        /* \"#utility.yul\":2094:2172   */\n      and\n        /* \"#utility.yul\":2083:2172   */\n      swap1\n      pop\n        /* \"#utility.yul\":2029:2178   */\n      swap2\n      swap1\n      pop\n      jump\t// out\n        /* \"#utility.yul\":2184:2304   */\n    tag_138:\n        /* \"#utility.yul\":2256:2279   */\n      tag_202\n        /* \"#utility.yul\":2273:2278   */\n      dup2\n        /* \"#utility.yul\":2256:2279   */\n      tag_137\n      jump\t// in\n    tag_202:\n        /* \"#utility.yul\":2249:2254   */\n      dup2\n        /* \"#utility.yul\":2246:2280   */\n      eq\n        /* \"#utility.yul\":2236:2298   */\n      tag_203\n      jumpi\n        /* \"#utility.yul\":2294:2295   */\n      0x00\n        /* \"#utility.yul\":2291:2292   */\n      0x00\n        /* \"#utility.yul\":2284:2296   */\n      revert\n        /* \"#utility.yul\":2236:2298   */\n    tag_203:\n        /* \"#utility.yul\":2184:2304   */\n      pop\n      jump\t// out\n        /* \"#utility.yul\":2310:2447   */\n    tag_139:\n        /* \"#utility.yul\":2355:2360   */\n      0x00\n        /* \"#utility.yul\":2393:2399   */\n      dup2\n        /* \"#utility.yul\":2380:2400   */\n      calldataload\n        /* \"#utility.yul\":2371:2400   */\n      swap1\n      pop\n        /* \"#utility.yul\":2409:2441   */\n      tag_205\n        /* \"#utility.yul\":2435:2440   */\n      dup2\n        /* \"#utility.yul\":2409:2441   */\n      tag_138\n      jump\t// in\n    tag_205:\n        /* \"#utility.yul\":2310:2447   */\n      swap3\n      swap2\n      pop\n      pop\n      jump\t// out\n        /* \"#utility.yul\":2453:2780   */\n    tag_24:\n        /* \"#utility.yul\":2511:2517   */\n      0x00\n        /* \"#utility.yul\":2560:2562   */\n      0x20\n        /* \"#utility.yul\":2548:2557   */\n      dup3\n        /* \"#utility.yul\":2539:2546   */\n      dup5\n        /* \"#utility.yul\":2535:2558   */\n      sub\n        /* \"#utility.yul\":2531:2563   */\n      slt\n        /* \"#utility.yul\":2528:2647   */\n      iszero\n      tag_207\n      jumpi\n        /* \"#utility.yul\":2566:2645   */\n      tag_208\n      tag_127\n      jump\t// in\n    tag_208:\n        /* \"#utility.yul\":2528:2647   */\n    tag_207:\n        /* \"#utility.yul\":2686:2687   */\n      0x00\n        /* \"#utility.yul\":2711:2763   */\n      tag_209\n        /* \"#utility.yul\":2755:2762   */\n      dup5\n        /* \"#utility.yul\":2746:2752   */\n      dup3\n        /* \"#utility.yul\":2735:2744   */\n      dup6\n        /* \"#utility.yul\":2731:2753   */\n      add\n        /* \"#utility.yul\":2711:2763   */\n      tag_139\n      jump\t// in\n    tag_209:\n        /* \"#utility.yul\":2701:2763   */\n      swap2\n      pop\n        /* \"#utility.yul\":2657:2773   */\n      pop\n        /* \"#utility.yul\":2453:2780   */\n      swap3\n      swap2\n      pop\n      pop\n      jump\t// out\n        /* \"#utility.yul\":2786:2876   */\n    tag_140:\n        /* \"#utility.yul\":2820:2827   */\n      0x00\n        /* \"#utility.yul\":2863:2868   */\n      dup2\n        /* \"#utility.yul\":2856:2869   */\n      iszero\n        /* \"#utility.yul\":2849:2870   */\n      iszero\n        /* \"#utility.yul\":2838:2870   */\n      swap1\n      pop\n        /* \"#utility.yul\":2786:2876   */\n      swap2\n      swap1\n      pop\n      jump\t// out\n        /* \"#utility.yul\":2882:2991   */\n    tag_141:\n        /* \"#utility.yul\":2963:2984   */\n      tag_212\n        /* \"#utility.yul\":2978:2983   */\n      dup2\n        /* \"#utility.yul\":2963:2984   */\n      tag_140\n      jump\t// in\n    tag_212:\n        /* \"#utility.yul\":2958:2961   */\n      dup3\n        /* \"#utility.yul\":2951:2985   */\n      mstore\n        /* \"#utility.yul\":2882:2991   */\n      pop\n      pop\n      jump\t// out\n        /* \"#utility.yul\":2997:3207   */\n    tag_27:\n        /* \"#utility.yul\":3084:3088   */\n      0x00\n        /* \"#utility.yul\":3122:3124   */\n      0x20\n        /* \"#utility.yul\":3111:3120   */\n      dup3\n        /* \"#utility.yul\":3107:3125   */\n      add\n        /* \"#utility.yul\":3099:3125   */\n      swap1\n      pop\n        /* \"#utility.yul\":3135:3200   */\n      tag_214\n        /* \"#utility.yul\":3197:3198   */\n      0x00\n        /* \"#utility.yul\":3186:3195   */\n      dup4\n        /* \"#utility.yul\":3182:3199   */\n      add\n        /* \"#utility.yul\":3173:3179   */\n      dup5\n        /* \"#utility.yul\":3135:3200   */\n      tag_141\n      jump\t// in\n    tag_214:\n        /* \"#utility.yul\":2997:3207   */\n      swap3\n      swap2\n      pop\n      pop\n      jump\t// out\n        /* \"#utility.yul\":3213:3832   */\n    tag_30:\n        /* \"#utility.yul\":3290:3296   */\n      0x00\n        /* \"#utility.yul\":3298:3304   */\n      0x00\n        /* \"#utility.yul\":3306:3312   */\n      0x00\n        /* \"#utility.yul\":3355:3357   */\n      0x60\n        /* \"#utility.yul\":3343:3352   */\n      dup5\n        /* \"#utility.yul\":3334:3341   */\n      dup7\n        /* \"#utility.yul\":3330:3353   */\n      sub\n        /* \"#utility.yul\":3326:3358   */\n      slt\n        /* \"#utility.yul\":3323:3442   */\n      iszero\n      tag_216\n      jumpi\n        /* \"#utility.yul\":3361:3440   */\n      tag_217\n      tag_127\n      jump\t// in\n    tag_217:\n        /* \"#utility.yul\":3323:3442   */\n    tag_216:\n        /* \"#utility.yul\":3481:3482   */\n      0x00\n        /* \"#utility.yul\":3506:3559   */\n      tag_218\n        /* \"#utility.yul\":3551:3558   */\n      dup7\n        /* \"#utility.yul\":3542:3548   */\n      dup3\n        /* \"#utility.yul\":3531:3540   */\n      dup8\n        /* \"#utility.yul\":3527:3549   */\n      add\n        /* \"#utility.yul\":3506:3559   */\n      tag_132\n      jump\t// in\n    tag_218:\n        /* \"#utility.yul\":3496:3559   */\n      swap4\n      pop\n        /* \"#utility.yul\":3452:3569   */\n      pop\n        /* \"#utility.yul\":3608:3610   */\n      0x20\n        /* \"#utility.yul\":3634:3687   */\n      tag_219\n        /* \"#utility.yul\":3679:3686   */\n      dup7\n        /* \"#utility.yul\":3670:3676   */\n      dup3\n        /* \"#utility.yul\":3659:3668   */\n      dup8\n        /* \"#utility.yul\":3655:3677   */\n      add\n        /* \"#utility.yul\":3634:3687   */\n      tag_135\n      jump\t// in\n    tag_219:\n        /* \"#utility.yul\":3624:3687   */\n      swap3\n      pop\n        /* \"#utility.yul\":3579:3697   */\n      pop\n        /* \"#utility.yul\":3736:3738   */\n      0x40\n        /* \"#utility.yul\":3762:3815   */\n      tag_220\n        /* \"#utility.yul\":3807:3814   */\n      dup7\n        /* \"#utility.yul\":3798:3804   */\n      dup3\n        /* \"#utility.yul\":3787:3796   */\n      dup8\n        /* \"#utility.yul\":3783:3805   */\n      add\n        /* \"#utility.yul\":3762:3815   */\n      tag_135\n      jump\t// in\n    tag_220:\n        /* \"#utility.yul\":3752:3815   */\n      swap2\n      pop\n        /* \"#utility.yul\":3707:3825   */\n      pop\n        /* \"#utility.yul\":3213:3832   */\n      swap3\n      pop\n      swap3\n      pop\n      swap3\n      jump\t// out\n        /* \"#utility.yul\":3838:4167   */\n    tag_39:\n        /* \"#utility.yul\":3897:3903   */\n      0x00\n        /* \"#utility.yul\":3946:3948   */\n      0x20\n        /* \"#utility.yul\":3934:3943   */\n      dup3\n        /* \"#utility.yul\":3925:3932   */\n      dup5\n        /* \"#utility.yul\":3921:3944   */\n      sub\n        /* \"#utility.yul\":3917:3949   */\n      slt\n        /* \"#utility.yul\":3914:4033   */\n      iszero\n      tag_222\n      jumpi\n        /* \"#utility.yul\":3952:4031   */\n      tag_223\n      tag_127\n      jump\t// in\n    tag_223:\n        /* \"#utility.yul\":3914:4033   */\n    tag_222:\n        /* \"#utility.yul\":4072:4073   */\n      0x00\n        /* \"#utility.yul\":4097:4150   */\n      tag_224\n        /* \"#utility.yul\":4142:4149   */\n      dup5\n        /* \"#utility.yul\":4133:4139   */\n      dup3\n        /* \"#utility.yul\":4122:4131   */\n      dup6\n        /* \"#utility.yul\":4118:4140   */\n      add\n        /* \"#utility.yul\":4097:4150   */\n      tag_135\n      jump\t// in\n    tag_224:\n        /* \"#utility.yul\":4087:4150   */\n      swap2\n      pop\n        /* \"#utility.yul\":4043:4160   */\n      pop\n        /* \"#utility.yul\":3838:4167   */\n      swap3\n      swap2\n      pop\n      pop\n      jump\t// out\n        /* \"#utility.yul\":4173:4291   */\n    tag_142:\n        /* \"#utility.yul\":4210:4217   */\n      0x00\n        /* \"#utility.yul\":4250:4284   */\n      0xffffffffffffffffffffffffffffffff\n        /* \"#utility.yul\":4243:4248   */\n      dup3\n        /* \"#utility.yul\":4239:4285   */\n      and\n        /* \"#utility.yul\":4228:4285   */\n      swap1\n      pop\n        /* \"#utility.yul\":4173:4291   */\n      swap2\n      swap1\n      pop\n      jump\t// out\n        /* \"#utility.yul\":4297:4415   */\n    tag_143:\n        /* \"#utility.yul\":4384:4408   */\n      tag_227\n        /* \"#utility.yul\":4402:4407   */\n      dup2\n        /* \"#utility.yul\":4384:4408   */\n      tag_142\n      jump\t// in\n    tag_227:\n        /* \"#utility.yul\":4379:4382   */\n      dup3\n        /* \"#utility.yul\":4372:4409   */\n      mstore\n        /* \"#utility.yul\":4297:4415   */\n      pop\n      pop\n      jump\t// out\n        /* \"#utility.yul\":4421:4753   */\n    tag_42:\n        /* \"#utility.yul\":4542:4546   */\n      0x00\n        /* \"#utility.yul\":4580:4582   */\n      0x40\n        /* \"#utility.yul\":4569:4578   */\n      dup3\n        /* \"#utility.yul\":4565:4583   */\n      add\n        /* \"#utility.yul\":4557:4583   */\n      swap1\n      pop\n        /* \"#utility.yul\":4593:4664   */\n      tag_229\n        /* \"#utility.yul\":4661:4662   */\n      0x00\n        /* \"#utility.yul\":4650:4659   */\n      dup4\n        /* \"#utility.yul\":4646:4663   */\n      add\n        /* \"#utility.yul\":4637:4643   */\n      dup6\n        /* \"#utility.yul\":4593:4664   */\n      tag_143\n      jump\t// in\n    tag_229:\n        /* \"#utility.yul\":4674:4746   */\n      tag_230\n        /* \"#utility.yul\":4742:4744   */\n      0x20\n        /* \"#utility.yul\":4731:4740   */\n      dup4\n        /* \"#utility.yul\":4727:4745   */\n      add\n        /* \"#utility.yul\":4718:4724   */\n      dup5\n        /* \"#utility.yul\":4674:4746   */\n      tag_143\n      jump\t// in\n    tag_230:\n        /* \"#utility.yul\":4421:4753   */\n      swap4\n      swap3\n      pop\n      pop\n      pop\n      jump\t// out\n        /* \"#utility.yul\":4759:4875   */\n    tag_144:\n        /* \"#utility.yul\":4829:4850   */\n      tag_232\n        /* \"#utility.yul\":4844:4849   */\n      dup2\n        /* \"#utility.yul\":4829:4850   */\n      tag_140\n      jump\t// in\n    tag_232:\n        /* \"#utility.yul\":4822:4827   */\n      dup2\n        /* \"#utility.yul\":4819:4851   */\n      eq\n        /* \"#utility.yul\":4809:4869   */\n      tag_233\n      jumpi\n        /* \"#utility.yul\":4865:4866   */\n      0x00\n        /* \"#utility.yul\":4862:4863   */\n      0x00\n        /* \"#utility.yul\":4855:4867   */\n      revert\n        /* \"#utility.yul\":4809:4869   */\n    tag_233:\n        /* \"#utility.yul\":4759:4875   */\n      pop\n      jump\t// out\n        /* \"#utility.yul\":4881:5014   */\n    tag_145:\n        /* \"#utility.yul\":4924:4929   */\n      0x00\n        /* \"#utility.yul\":4962:4968   */\n      dup2\n        /* \"#utility.yul\":4949:4969   */\n      calldataload\n        /* \"#utility.yul\":4940:4969   */\n      swap1\n      pop\n        /* \"#utility.yul\":4978:5008   */\n      tag_235\n        /* \"#utility.yul\":5002:5007   */\n      dup2\n        /* \"#utility.yul\":4978:5008   */\n      tag_144\n      jump\t// in\n    tag_235:\n        /* \"#utility.yul\":4881:5014   */\n      swap3\n      swap2\n      pop\n      pop\n      jump\t// out\n        /* \"#utility.yul\":5020:5488   */\n    tag_45:\n        /* \"#utility.yul\":5085:5091   */\n      0x00\n        /* \"#utility.yul\":5093:5099   */\n      0x00\n        /* \"#utility.yul\":5142:5144   */\n      0x40\n        /* \"#utility.yul\":5130:5139   */\n      dup4\n        /* \"#utility.yul\":5121:5128   */\n      dup6\n        /* \"#utility.yul\":5117:5140   */\n      sub\n        /* \"#utility.yul\":5113:5145   */\n      slt\n        /* \"#utility.yul\":5110:5229   */\n      iszero\n      tag_237\n      jumpi\n        /* \"#utility.yul\":5148:5227   */\n      tag_238\n      tag_127\n      jump\t// in\n    tag_238:\n        /* \"#utility.yul\":5110:5229   */\n    tag_237:\n        /* \"#utility.yul\":5268:5269   */\n      0x00\n        /* \"#utility.yul\":5293:5346   */\n      tag_239\n        /* \"#utility.yul\":5338:5345   */\n      dup6\n        /* \"#utility.yul\":5329:5335   */\n      dup3\n        /* \"#utility.yul\":5318:5327   */\n      dup7\n        /* \"#utility.yul\":5314:5336   */\n      add\n        /* \"#utility.yul\":5293:5346   */\n      tag_132\n      jump\t// in\n    tag_239:\n        /* \"#utility.yul\":5283:5346   */\n      swap3\n      pop\n        /* \"#utility.yul\":5239:5356   */\n      pop\n        /* \"#utility.yul\":5395:5397   */\n      0x20\n        /* \"#utility.yul\":5421:5471   */\n      tag_240\n        /* \"#utility.yul\":5463:5470   */\n      dup6\n        /* \"#utility.yul\":5454:5460   */\n      dup3\n        /* \"#utility.yul\":5443:5452   */\n      dup7\n        /* \"#utility.yul\":5439:5461   */\n      add\n        /* \"#utility.yul\":5421:5471   */\n      tag_145\n      jump\t// in\n    tag_240:\n        /* \"#utility.yul\":5411:5471   */\n      swap2\n      pop\n        /* \"#utility.yul\":5366:5481   */\n      pop\n        /* \"#utility.yul\":5020:5488   */\n      swap3\n      pop\n      swap3\n      swap1\n      pop\n      jump\t// out\n        /* \"#utility.yul\":5494:6113   */\n    tag_50:\n        /* \"#utility.yul\":5571:5577   */\n      0x00\n        /* \"#utility.yul\":5579:5585   */\n      0x00\n        /* \"#utility.yul\":5587:5593   */\n      0x00\n        /* \"#utility.yul\":5636:5638   */\n      0x60\n        /* \"#utility.yul\":5624:5633   */\n      dup5\n        /* \"#utility.yul\":5615:5622   */\n      dup7\n        /* \"#utility.yul\":5611:5634   */\n      sub\n        /* \"#utility.yul\":5607:5639   */\n      slt\n        /* \"#utility.yul\":5604:5723   */\n      iszero\n      tag_242\n      jumpi\n        /* \"#utility.yul\":5642:5721   */\n      tag_243\n      tag_127\n      jump\t// in\n    tag_243:\n        /* \"#utility.yul\":5604:5723   */\n    tag_242:\n        /* \"#utility.yul\":5762:5763   */\n      0x00\n        /* \"#utility.yul\":5787:5840   */\n      tag_244\n        /* \"#utility.yul\":5832:5839   */\n      dup7\n        /* \"#utility.yul\":5823:5829   */\n      dup3\n        /* \"#utility.yul\":5812:5821   */\n      dup8\n        /* \"#utility.yul\":5808:5830   */\n      add\n        /* \"#utility.yul\":5787:5840   */\n      tag_132\n      jump\t// in\n    tag_244:\n        /* \"#utility.yul\":5777:5840   */\n      swap4\n      pop\n        /* \"#utility.yul\":5733:5850   */\n      pop\n        /* \"#utility.yul\":5889:5891   */\n      0x20\n        /* \"#utility.yul\":5915:5968   */\n      tag_245\n        /* \"#utility.yul\":5960:5967   */\n      dup7\n        /* \"#utility.yul\":5951:5957   */\n      dup3\n        /* \"#utility.yul\":5940:5949   */\n      dup8\n        /* \"#utility.yul\":5936:5958   */\n      add\n        /* \"#utility.yul\":5915:5968   */\n      tag_132\n      jump\t// in\n    tag_245:\n        /* \"#utility.yul\":5905:5968   */\n      swap3\n      pop\n        /* \"#utility.yul\":5860:5978   */\n      pop\n        /* \"#utility.yul\":6017:6019   */\n      0x40\n        /* \"#utility.yul\":6043:6096   */\n      tag_246\n        /* \"#utility.yul\":6088:6095   */\n      dup7\n        /* \"#utility.yul\":6079:6085   */\n      dup3\n        /* \"#utility.yul\":6068:6077   */\n      dup8\n        /* \"#utility.yul\":6064:6086   */\n      add\n        /* \"#utility.yul\":6043:6096   */\n      tag_135\n      jump\t// in\n    tag_246:\n        /* \"#utility.yul\":6033:6096   */\n      swap2\n      pop\n        /* \"#utility.yul\":5988:6106   */\n      pop\n        /* \"#utility.yul\":5494:6113   */\n      swap3\n      pop\n      swap3\n      pop\n      swap3\n      jump\t// out\n        /* \"#utility.yul\":6119:6236   */\n    tag_146:\n        /* \"#utility.yul\":6228:6229   */\n      0x00\n        /* \"#utility.yul\":6225:6226   */\n      0x00\n        /* \"#utility.yul\":6218:6230   */\n      revert\n        /* \"#utility.yul\":6267:6501   */\n    tag_147:\n        /* \"#utility.yul\":6342:6347   */\n      0x00\n        /* \"#utility.yul\":6383:6386   */\n      0xa0\n        /* \"#utility.yul\":6374:6380   */\n      dup3\n        /* \"#utility.yul\":6369:6372   */\n      dup5\n        /* \"#utility.yul\":6365:6381   */\n      sub\n        /* \"#utility.yul\":6361:6387   */\n      slt\n        /* \"#utility.yul\":6358:6471   */\n      iszero\n      tag_249\n      jumpi\n        /* \"#utility.yul\":6390:6469   */\n      tag_250\n      tag_146\n      jump\t// in\n    tag_250:\n        /* \"#utility.yul\":6358:6471   */\n    tag_249:\n        /* \"#utility.yul\":6489:6495   */\n      dup2\n        /* \"#utility.yul\":6480:6495   */\n      swap1\n      pop\n        /* \"#utility.yul\":6267:6501   */\n      swap3\n      swap2\n      pop\n      pop\n      jump\t// out\n        /* \"#utility.yul\":6507:6895   */\n    tag_55:\n        /* \"#utility.yul\":6595:6601   */\n      0x00\n        /* \"#utility.yul\":6644:6647   */\n      0xa0\n        /* \"#utility.yul\":6632:6641   */\n      dup3\n        /* \"#utility.yul\":6623:6630   */\n      dup5\n        /* \"#utility.yul\":6619:6642   */\n      sub\n        /* \"#utility.yul\":6615:6648   */\n      slt\n        /* \"#utility.yul\":6612:6732   */\n      iszero\n      tag_252\n      jumpi\n        /* \"#utility.yul\":6651:6730   */\n      tag_253\n      tag_127\n      jump\t// in\n    tag_253:\n        /* \"#utility.yul\":6612:6732   */\n    tag_252:\n        /* \"#utility.yul\":6771:6772   */\n      0x00\n        /* \"#utility.yul\":6796:6878   */\n      tag_254\n        /* \"#utility.yul\":6870:6877   */\n      dup5\n        /* \"#utility.yul\":6861:6867   */\n      dup3\n        /* \"#utility.yul\":6850:6859   */\n      dup6\n        /* \"#utility.yul\":6846:6868   */\n      add\n        /* \"#utility.yul\":6796:6878   */\n      tag_147\n      jump\t// in\n    tag_254:\n        /* \"#utility.yul\":6786:6878   */\n      swap2\n      pop\n        /* \"#utility.yul\":6742:6888   */\n      pop\n        /* \"#utility.yul\":6507:6895   */\n      swap3\n      swap2\n      pop\n      pop\n      jump\t// out\n        /* \"#utility.yul\":6901:7019   */\n    tag_148:\n        /* \"#utility.yul\":6988:7012   */\n      tag_256\n        /* \"#utility.yul\":7006:7011   */\n      dup2\n        /* \"#utility.yul\":6988:7012   */\n      tag_130\n      jump\t// in\n    tag_256:\n        /* \"#utility.yul\":6983:6986   */\n      dup3\n        /* \"#utility.yul\":6976:7013   */\n      mstore\n        /* \"#utility.yul\":6901:7019   */\n      pop\n      pop\n      jump\t// out\n        /* \"#utility.yul\":7025:7247   */\n    tag_64:\n        /* \"#utility.yul\":7118:7122   */\n      0x00\n        /* \"#utility.yul\":7156:7158   */\n      0x20\n        /* \"#utility.yul\":7145:7154   */\n      dup3\n        /* \"#utility.yul\":7141:7159   */\n      add\n        /* \"#utility.yul\":7133:7159   */\n      swap1\n      pop\n        /* \"#utility.yul\":7169:7240   */\n      tag_258\n        /* \"#utility.yul\":7237:7238   */\n      0x00\n        /* \"#utility.yul\":7226:7235   */\n      dup4\n        /* \"#utility.yul\":7222:7239   */\n      add\n        /* \"#utility.yul\":7213:7219   */\n      dup5\n        /* \"#utility.yul\":7169:7240   */\n      tag_148\n      jump\t// in\n    tag_258:\n        /* \"#utility.yul\":7025:7247   */\n      swap3\n      swap2\n      pop\n      pop\n      jump\t// out\n        /* \"#utility.yul\":7253:7727   */\n    tag_67:\n        /* \"#utility.yul\":7321:7327   */\n      0x00\n        /* \"#utility.yul\":7329:7335   */\n      0x00\n        /* \"#utility.yul\":7378:7380   */\n      0x40\n        /* \"#utility.yul\":7366:7375   */\n      dup4\n        /* \"#utility.yul\":7357:7364   */\n      dup6\n        /* \"#utility.yul\":7353:7376   */\n      sub\n        /* \"#utility.yul\":7349:7381   */\n      slt\n        /* \"#utility.yul\":7346:7465   */\n      iszero\n      tag_260\n      jumpi\n        /* \"#utility.yul\":7384:7463   */\n      tag_261\n      tag_127\n      jump\t// in\n    tag_261:\n        /* \"#utility.yul\":7346:7465   */\n    tag_260:\n        /* \"#utility.yul\":7504:7505   */\n      0x00\n        /* \"#utility.yul\":7529:7582   */\n      tag_262\n        /* \"#utility.yul\":7574:7581   */\n      dup6\n        /* \"#utility.yul\":7565:7571   */\n      dup3\n        /* \"#utility.yul\":7554:7563   */\n      dup7\n        /* \"#utility.yul\":7550:7572   */\n      add\n        /* \"#utility.yul\":7529:7582   */\n      tag_132\n      jump\t// in\n    tag_262:\n        /* \"#utility.yul\":7519:7582   */\n      swap3\n      pop\n        /* \"#utility.yul\":7475:7592   */\n      pop\n        /* \"#utility.yul\":7631:7633   */\n      0x20\n        /* \"#utility.yul\":7657:7710   */\n      tag_263\n        /* \"#utility.yul\":7702:7709   */\n      dup6\n        /* \"#utility.yul\":7693:7699   */\n      dup3\n        /* \"#utility.yul\":7682:7691   */\n      dup7\n        /* \"#utility.yul\":7678:7700   */\n      add\n        /* \"#utility.yul\":7657:7710   */\n      tag_132\n      jump\t// in\n    tag_263:\n        /* \"#utility.yul\":7647:7710   */\n      swap2\n      pop\n        /* \"#utility.yul\":7602:7720   */\n      pop\n        /* \"#utility.yul\":7253:7727   */\n      swap3\n      pop\n      swap3\n      swap1\n      pop\n      jump\t// out\n        /* \"#utility.yul\":7733:8498   */\n    tag_72:\n        /* \"#utility.yul\":7819:7825   */\n      0x00\n        /* \"#utility.yul\":7827:7833   */\n      0x00\n        /* \"#utility.yul\":7835:7841   */\n      0x00\n        /* \"#utility.yul\":7843:7849   */\n      0x00\n        /* \"#utility.yul\":7892:7895   */\n      0x80\n        /* \"#utility.yul\":7880:7889   */\n      dup6\n        /* \"#utility.yul\":7871:7878   */\n      dup8\n        /* \"#utility.yul\":7867:7890   */\n      sub\n        /* \"#utility.yul\":7863:7896   */\n      slt\n        /* \"#utility.yul\":7860:7980   */\n      iszero\n      tag_265\n      jumpi\n        /* \"#utility.yul\":7899:7978   */\n      tag_266\n      tag_127\n      jump\t// in\n    tag_266:\n        /* \"#utility.yul\":7860:7980   */\n    tag_265:\n        /* \"#utility.yul\":8019:8020   */\n      0x00\n        /* \"#utility.yul\":8044:8097   */\n      tag_267\n        /* \"#utility.yul\":8089:8096   */\n      dup8\n        /* \"#utility.yul\":8080:8086   */\n      dup3\n        /* \"#utility.yul\":8069:8078   */\n      dup9\n        /* \"#utility.yul\":8065:8087   */\n      add\n        /* \"#utility.yul\":8044:8097   */\n      tag_132\n      jump\t// in\n    tag_267:\n        /* \"#utility.yul\":8034:8097   */\n      swap5\n      pop\n        /* \"#utility.yul\":7990:8107   */\n      pop\n        /* \"#utility.yul\":8146:8148   */\n      0x20\n        /* \"#utility.yul\":8172:8225   */\n      tag_268\n        /* \"#utility.yul\":8217:8224   */\n      dup8\n        /* \"#utility.yul\":8208:8214   */\n      dup3\n        /* \"#utility.yul\":8197:8206   */\n      dup9\n        /* \"#utility.yul\":8193:8215   */\n      add\n        /* \"#utility.yul\":8172:8225   */\n      tag_132\n      jump\t// in\n    tag_268:\n        /* \"#utility.yul\":8162:8225   */\n      swap4\n      pop\n        /* \"#utility.yul\":8117:8235   */\n      pop\n        /* \"#utility.yul\":8274:8276   */\n      0x40\n        /* \"#utility.yul\":8300:8353   */\n      tag_269\n        /* \"#utility.yul\":8345:8352   */\n      dup8\n        /* \"#utility.yul\":8336:8342   */\n      dup3\n        /* \"#utility.yul\":8325:8334   */\n      dup9\n        /* \"#utility.yul\":8321:8343   */\n      add\n        /* \"#utility.yul\":8300:8353   */\n      tag_135\n      jump\t// in\n    tag_269:\n        /* \"#utility.yul\":8290:8353   */\n      swap3\n      pop\n        /* \"#utility.yul\":8245:8363   */\n      pop\n        /* \"#utility.yul\":8402:8404   */\n      0x60\n        /* \"#utility.yul\":8428:8481   */\n      tag_270\n        /* \"#utility.yul\":8473:8480   */\n      dup8\n        /* \"#utility.yul\":8464:8470   */\n      dup3\n        /* \"#utility.yul\":8453:8462   */\n      dup9\n        /* \"#utility.yul\":8449:8471   */\n      add\n        /* \"#utility.yul\":8428:8481   */\n      tag_135\n      jump\t// in\n    tag_270:\n        /* \"#utility.yul\":8418:8481   */\n      swap2\n      pop\n        /* \"#utility.yul\":8373:8491   */\n      pop\n        /* \"#utility.yul\":7733:8498   */\n      swap3\n      swap6\n      swap2\n      swap5\n      pop\n      swap3\n      pop\n      jump\t// out\n        /* \"#utility.yul\":8504:8684   */\n    tag_149:\n        /* \"#utility.yul\":8552:8629   */\n      0x4e487b7100000000000000000000000000000000000000000000000000000000\n        /* \"#utility.yul\":8549:8550   */\n      0x00\n        /* \"#utility.yul\":8542:8630   */\n      mstore\n        /* \"#utility.yul\":8649:8653   */\n      0x11\n        /* \"#utility.yul\":8646:8647   */\n      0x04\n        /* \"#utility.yul\":8639:8654   */\n      mstore\n        /* \"#utility.yul\":8673:8677   */\n      0x24\n        /* \"#utility.yul\":8670:8671   */\n      0x00\n        /* \"#utility.yul\":8663:8678   */\n      revert\n        /* \"#utility.yul\":8690:8884   */\n    tag_79:\n        /* \"#utility.yul\":8730:8734   */\n      0x00\n        /* \"#utility.yul\":8750:8770   */\n      tag_273\n        /* \"#utility.yul\":8768:8769   */\n      dup3\n        /* \"#utility.yul\":8750:8770   */\n      tag_133\n      jump\t// in\n    tag_273:\n        /* \"#utility.yul\":8745:8770   */\n      swap2\n      pop\n        /* \"#utility.yul\":8784:8804   */\n      tag_274\n        /* \"#utility.yul\":8802:8803   */\n      dup4\n        /* \"#utility.yul\":8784:8804   */\n      tag_133\n      jump\t// in\n    tag_274:\n        /* \"#utility.yul\":8779:8804   */\n      swap3\n      pop\n        /* \"#utility.yul\":8828:8829   */\n      dup3\n        /* \"#utility.yul\":8825:8826   */\n      dup3\n        /* \"#utility.yul\":8821:8830   */\n      sub\n        /* \"#utility.yul\":8813:8830   */\n      swap1\n      pop\n        /* \"#utility.yul\":8852:8853   */\n      dup2\n        /* \"#utility.yul\":8846:8850   */\n      dup2\n        /* \"#utility.yul\":8843:8854   */\n      gt\n        /* \"#utility.yul\":8840:8877   */\n      iszero\n      tag_275\n      jumpi\n        /* \"#utility.yul\":8857:8875   */\n      tag_276\n      tag_149\n      jump\t// in\n    tag_276:\n        /* \"#utility.yul\":8840:8877   */\n    tag_275:\n        /* \"#utility.yul\":8690:8884   */\n      swap3\n      swap2\n      pop\n      pop\n      jump\t// out\n        /* \"#utility.yul\":8890:9081   */\n    tag_81:\n        /* \"#utility.yul\":8930:8933   */\n      0x00\n        /* \"#utility.yul\":8949:8969   */\n      tag_278\n        /* \"#utility.yul\":8967:8968   */\n      dup3\n        /* \"#utility.yul\":8949:8969   */\n      tag_133\n      jump\t// in\n    tag_278:\n        /* \"#utility.yul\":8944:8969   */\n      swap2\n      pop\n        /* \"#utility.yul\":8983:9003   */\n      tag_279\n        /* \"#utility.yul\":9001:9002   */\n      dup4\n        /* \"#utility.yul\":8983:9003   */\n      tag_133\n      jump\t// in\n    tag_279:\n        /* \"#utility.yul\":8978:9003   */\n      swap3\n      pop\n        /* \"#utility.yul\":9026:9027   */\n      dup3\n        /* \"#utility.yul\":9023:9024   */\n      dup3\n        /* \"#utility.yul\":9019:9028   */\n      add\n        /* \"#utility.yul\":9012:9028   */\n      swap1\n      pop\n        /* \"#utility.yul\":9047:9050   */\n      dup1\n        /* \"#utility.yul\":9044:9045   */\n      dup3\n        /* \"#utility.yul\":9041:9051   */\n      gt\n        /* \"#utility.yul\":9038:9074   */\n      iszero\n      tag_280\n      jumpi\n        /* \"#utility.yul\":9054:9072   */\n      tag_281\n      tag_149\n      jump\t// in\n    tag_281:\n        /* \"#utility.yul\":9038:9074   */\n    tag_280:\n        /* \"#utility.yul\":8890:9081   */\n      swap3\n      swap2\n      pop\n      pop\n      jump\t// out\n        /* \"#utility.yul\":9087:9419   */\n    tag_83:\n        /* \"#utility.yul\":9208:9212   */\n      0x00\n        /* \"#utility.yul\":9246:9248   */\n      0x40\n        /* \"#utility.yul\":9235:9244   */\n      dup3\n        /* \"#utility.yul\":9231:9249   */\n      add\n        /* \"#utility.yul\":9223:9249   */\n      swap1\n      pop\n        /* \"#utility.yul\":9259:9330   */\n      tag_283\n        /* \"#utility.yul\":9327:9328   */\n      0x00\n        /* \"#utility.yul\":9316:9325   */\n      dup4\n        /* \"#utility.yul\":9312:9329   */\n      add\n        /* \"#utility.yul\":9303:9309   */\n      dup6\n        /* \"#utility.yul\":9259:9330   */\n      tag_148\n      jump\t// in\n    tag_283:\n        /* \"#utility.yul\":9340:9412   */\n      tag_284\n        /* \"#utility.yul\":9408:9410   */\n      0x20\n        /* \"#utility.yul\":9397:9406   */\n      dup4\n        /* \"#utility.yul\":9393:9411   */\n      add\n        /* \"#utility.yul\":9384:9390   */\n      dup5\n        /* \"#utility.yul\":9340:9412   */\n      tag_136\n      jump\t// in\n    tag_284:\n        /* \"#utility.yul\":9087:9419   */\n      swap4\n      swap3\n      pop\n      pop\n      pop\n      jump\t// out\n        /* \"#utility.yul\":9425:9754   */\n    tag_92:\n        /* \"#utility.yul\":9484:9490   */\n      0x00\n        /* \"#utility.yul\":9533:9535   */\n      0x20\n        /* \"#utility.yul\":9521:9530   */\n      dup3\n        /* \"#utility.yul\":9512:9519   */\n      dup5\n        /* \"#utility.yul\":9508:9531   */\n      sub\n        /* \"#utility.yul\":9504:9536   */\n      slt\n        /* \"#utility.yul\":9501:9620   */\n      iszero\n      tag_286\n      jumpi\n        /* \"#utility.yul\":9539:9618   */\n      tag_287\n      tag_127\n      jump\t// in\n    tag_287:\n        /* \"#utility.yul\":9501:9620   */\n    tag_286:\n        /* \"#utility.yul\":9659:9660   */\n      0x00\n        /* \"#utility.yul\":9684:9737   */\n      tag_288\n        /* \"#utility.yul\":9729:9736   */\n      dup5\n        /* \"#utility.yul\":9720:9726   */\n      dup3\n        /* \"#utility.yul\":9709:9718   */\n      dup6\n        /* \"#utility.yul\":9705:9727   */\n      add\n        /* \"#utility.yul\":9684:9737   */\n      tag_132\n      jump\t// in\n    tag_288:\n        /* \"#utility.yul\":9674:9737   */\n      swap2\n      pop\n        /* \"#utility.yul\":9630:9747   */\n      pop\n        /* \"#utility.yul\":9425:9754   */\n      swap3\n      swap2\n      pop\n      pop\n      jump\t// out\n        /* \"#utility.yul\":9760:9849   */\n    tag_150:\n        /* \"#utility.yul\":9796:9803   */\n      0x00\n        /* \"#utility.yul\":9836:9842   */\n      0xffff\n        /* \"#utility.yul\":9829:9834   */\n      dup3\n        /* \"#utility.yul\":9825:9843   */\n      and\n        /* \"#utility.yul\":9814:9843   */\n      swap1\n      pop\n        /* \"#utility.yul\":9760:9849   */\n      swap2\n      swap1\n      pop\n      jump\t// out\n        /* \"#utility.yul\":9855:9975   */\n    tag_151:\n        /* \"#utility.yul\":9927:9950   */\n      tag_291\n        /* \"#utility.yul\":9944:9949   */\n      dup2\n        /* \"#utility.yul\":9927:9950   */\n      tag_150\n      jump\t// in\n    tag_291:\n        /* \"#utility.yul\":9920:9925   */\n      dup2\n        /* \"#utility.yul\":9917:9951   */\n      eq\n        /* \"#utility.yul\":9907:9969   */\n      tag_292\n      jumpi\n        /* \"#utility.yul\":9965:9966   */\n      0x00\n        /* \"#utility.yul\":9962:9963   */\n      0x00\n        /* \"#utility.yul\":9955:9967   */\n      revert\n        /* \"#utility.yul\":9907:9969   */\n    tag_292:\n        /* \"#utility.yul\":9855:9975   */\n      pop\n      jump\t// out\n        /* \"#utility.yul\":9981:10118   */\n    tag_152:\n        /* \"#utility.yul\":10026:10031   */\n      0x00\n        /* \"#utility.yul\":10064:10070   */\n      dup2\n        /* \"#utility.yul\":10051:10071   */\n      calldataload\n        /* \"#utility.yul\":10042:10071   */\n      swap1\n      pop\n        /* \"#utility.yul\":10080:10112   */\n      tag_294\n        /* \"#utility.yul\":10106:10111   */\n      dup2\n        /* \"#utility.yul\":10080:10112   */\n      tag_151\n      jump\t// in\n    tag_294:\n        /* \"#utility.yul\":9981:10118   */\n      swap3\n      swap2\n      pop\n      pop\n      jump\t// out\n        /* \"#utility.yul\":10124:10451   */\n    tag_94:\n        /* \"#utility.yul\":10182:10188   */\n      0x00\n        /* \"#utility.yul\":10231:10233   */\n      0x20\n        /* \"#utility.yul\":10219:10228   */\n      dup3\n        /* \"#utility.yul\":10210:10217   */\n      dup5\n        /* \"#utility.yul\":10206:10229   */\n      sub\n        /* \"#utility.yul\":10202:10234   */\n      slt\n        /* \"#utility.yul\":10199:10318   */\n      iszero\n      tag_296\n      jumpi\n        /* \"#utility.yul\":10237:10316   */\n      tag_297\n      tag_127\n      jump\t// in\n    tag_297:\n        /* \"#utility.yul\":10199:10318   */\n    tag_296:\n        /* \"#utility.yul\":10357:10358   */\n      0x00\n        /* \"#utility.yul\":10382:10434   */\n      tag_298\n        /* \"#utility.yul\":10426:10433   */\n      dup5\n        /* \"#utility.yul\":10417:10423   */\n      dup3\n        /* \"#utility.yul\":10406:10415   */\n      dup6\n        /* \"#utility.yul\":10402:10424   */\n      add\n        /* \"#utility.yul\":10382:10434   */\n      tag_152\n      jump\t// in\n    tag_298:\n        /* \"#utility.yul\":10372:10434   */\n      swap2\n      pop\n        /* \"#utility.yul\":10328:10444   */\n      pop\n        /* \"#utility.yul\":10124:10451   */\n      swap3\n      swap2\n      pop\n      pop\n      jump\t// out\n        /* \"#utility.yul\":10457:10562   */\n    tag_153:\n        /* \"#utility.yul\":10493:10500   */\n      0x00\n        /* \"#utility.yul\":10533:10555   */\n      0xffffffffffffffffffff\n        /* \"#utility.yul\":10526:10531   */\n      dup3\n        /* \"#utility.yul\":10522:10556   */\n      and\n        /* \"#utility.yul\":10511:10556   */\n      swap1\n      pop\n        /* \"#utility.yul\":10457:10562   */\n      swap2\n      swap1\n      pop\n      jump\t// out\n        /* \"#utility.yul\":10568:10688   */\n    tag_154:\n        /* \"#utility.yul\":10640:10663   */\n      tag_301\n        /* \"#utility.yul\":10657:10662   */\n      dup2\n        /* \"#utility.yul\":10640:10663   */\n      tag_153\n      jump\t// in\n    tag_301:\n        /* \"#utility.yul\":10633:10638   */\n      dup2\n        /* \"#utility.yul\":10630:10664   */\n      eq\n        /* \"#utility.yul\":10620:10682   */\n      tag_302\n      jumpi\n        /* \"#utility.yul\":10678:10679   */\n      0x00\n        /* \"#utility.yul\":10675:10676   */\n      0x00\n        /* \"#utility.yul\":10668:10680   */\n      revert\n        /* \"#utility.yul\":10620:10682   */\n    tag_302:\n        /* \"#utility.yul\":10568:10688   */\n      pop\n      jump\t// out\n        /* \"#utility.yul\":10694:10831   */\n    tag_155:\n        /* \"#utility.yul\":10739:10744   */\n      0x00\n        /* \"#utility.yul\":10777:10783   */\n      dup2\n        /* \"#utility.yul\":10764:10784   */\n      calldataload\n        /* \"#utility.yul\":10755:10784   */\n      swap1\n      pop\n        /* \"#utility.yul\":10793:10825   */\n      tag_304\n        /* \"#utility.yul\":10819:10824   */\n      dup2\n        /* \"#utility.yul\":10793:10825   */\n      tag_154\n      jump\t// in\n    tag_304:\n        /* \"#utility.yul\":10694:10831   */\n      swap3\n      swap2\n      pop\n      pop\n      jump\t// out\n        /* \"#utility.yul\":10837:11164   */\n    tag_96:\n        /* \"#utility.yul\":10895:10901   */\n      0x00\n        /* \"#utility.yul\":10944:10946   */\n      0x20\n        /* \"#utility.yul\":10932:10941   */\n      dup3\n        /* \"#utility.yul\":10923:10930   */\n      dup5\n        /* \"#utility.yul\":10919:10942   */\n      sub\n        /* \"#utility.yul\":10915:10947   */\n      slt\n        /* \"#utility.yul\":10912:11031   */\n      iszero\n      tag_306\n      jumpi\n        /* \"#utility.yul\":10950:11029   */\n      tag_307\n      tag_127\n      jump\t// in\n    tag_307:\n        /* \"#utility.yul\":10912:11031   */\n    tag_306:\n        /* \"#utility.yul\":11070:11071   */\n      0x00\n        /* \"#utility.yul\":11095:11147   */\n      tag_308\n        /* \"#utility.yul\":11139:11146   */\n      dup5\n        /* \"#utility.yul\":11130:11136   */\n      dup3\n        /* \"#utility.yul\":11119:11128   */\n      dup6\n        /* \"#utility.yul\":11115:11137   */\n      add\n        /* \"#utility.yul\":11095:11147   */\n      tag_155\n      jump\t// in\n    tag_308:\n        /* \"#utility.yul\":11085:11147   */\n      swap2\n      pop\n        /* \"#utility.yul\":11041:11157   */\n      pop\n        /* \"#utility.yul\":10837:11164   */\n      swap3\n      swap2\n      pop\n      pop\n      jump\t// out\n        /* \"#utility.yul\":11170:11230   */\n    tag_156:\n        /* \"#utility.yul\":11198:11201   */\n      0x00\n        /* \"#utility.yul\":11219:11224   */\n      dup2\n        /* \"#utility.yul\":11212:11224   */\n      swap1\n      pop\n        /* \"#utility.yul\":11170:11230   */\n      swap2\n      swap1\n      pop\n      jump\t// out\n        /* \"#utility.yul\":11236:11376   */\n    tag_157:\n        /* \"#utility.yul\":11285:11294   */\n      0x00\n        /* \"#utility.yul\":11318:11370   */\n      tag_311\n        /* \"#utility.yul\":11336:11369   */\n      tag_312\n        /* \"#utility.yul\":11345:11368   */\n      tag_313\n        /* \"#utility.yul\":11362:11367   */\n      dup5\n        /* \"#utility.yul\":11345:11368   */\n      tag_153\n      jump\t// in\n    tag_313:\n        /* \"#utility.yul\":11336:11369   */\n      tag_156\n      jump\t// in\n    tag_312:\n        /* \"#utility.yul\":11318:11370   */\n      tag_133\n      jump\t// in\n    tag_311:\n        /* \"#utility.yul\":11305:11370   */\n      swap1\n      pop\n        /* \"#utility.yul\":11236:11376   */\n      swap2\n      swap1\n      pop\n      jump\t// out\n        /* \"#utility.yul\":11382:11511   */\n    tag_158:\n        /* \"#utility.yul\":11468:11504   */\n      tag_315\n        /* \"#utility.yul\":11498:11503   */\n      dup2\n        /* \"#utility.yul\":11468:11504   */\n      tag_157\n      jump\t// in\n    tag_315:\n        /* \"#utility.yul\":11463:11466   */\n      dup3\n        /* \"#utility.yul\":11456:11505   */\n      mstore\n        /* \"#utility.yul\":11382:11511   */\n      pop\n      pop\n      jump\t// out\n        /* \"#utility.yul\":11517:11737   */\n    tag_100:\n        /* \"#utility.yul\":11609:11613   */\n      0x00\n        /* \"#utility.yul\":11647:11649   */\n      0x20\n        /* \"#utility.yul\":11636:11645   */\n      dup3\n        /* \"#utility.yul\":11632:11650   */\n      add\n        /* \"#utility.yul\":11624:11650   */\n      swap1\n      pop\n        /* \"#utility.yul\":11660:11730   */\n      tag_317\n        /* \"#utility.yul\":11727:11728   */\n      0x00\n        /* \"#utility.yul\":11716:11725   */\n      dup4\n        /* \"#utility.yul\":11712:11729   */\n      add\n        /* \"#utility.yul\":11703:11709   */\n      dup5\n        /* \"#utility.yul\":11660:11730   */\n      tag_158\n      jump\t// in\n    tag_317:\n        /* \"#utility.yul\":11517:11737   */\n      swap3\n      swap2\n      pop\n      pop\n      jump\t// out\n        /* \"#utility.yul\":11743:11860   */\n    tag_159:\n        /* \"#utility.yul\":11852:11853   */\n      0x00\n        /* \"#utility.yul\":11849:11850   */\n      0x00\n        /* \"#utility.yul\":11842:11854   */\n      revert\n        /* \"#utility.yul\":11866:11968   */\n    tag_160:\n        /* \"#utility.yul\":11907:11913   */\n      0x00\n        /* \"#utility.yul\":11958:11960   */\n      0x1f\n        /* \"#utility.yul\":11954:11961   */\n      not\n        /* \"#utility.yul\":11949:11951   */\n      0x1f\n        /* \"#utility.yul\":11942:11947   */\n      dup4\n        /* \"#utility.yul\":11938:11952   */\n      add\n        /* \"#utility.yul\":11934:11962   */\n      and\n        /* \"#utility.yul\":11924:11962   */\n      swap1\n      pop\n        /* \"#utility.yul\":11866:11968   */\n      swap2\n      swap1\n      pop\n      jump\t// out\n        /* \"#utility.yul\":11974:12154   */\n    tag_161:\n        /* \"#utility.yul\":12022:12099   */\n      0x4e487b7100000000000000000000000000000000000000000000000000000000\n        /* \"#utility.yul\":12019:12020   */\n      0x00\n        /* \"#utility.yul\":12012:12100   */\n      mstore\n        /* \"#utility.yul\":12119:12123   */\n      0x41\n        /* \"#utility.yul\":12116:12117   */\n      0x04\n        /* \"#utility.yul\":12109:12124   */\n      mstore\n        /* \"#utility.yul\":12143:12147   */\n      0x24\n        /* \"#utility.yul\":12140:12141   */\n      0x00\n        /* \"#utility.yul\":12133:12148   */\n      revert\n        /* \"#utility.yul\":12160:12441   */\n    tag_162:\n        /* \"#utility.yul\":12243:12270   */\n      tag_322\n        /* \"#utility.yul\":12265:12269   */\n      dup3\n        /* \"#utility.yul\":12243:12270   */\n      tag_160\n      jump\t// in\n    tag_322:\n        /* \"#utility.yul\":12235:12241   */\n      dup2\n        /* \"#utility.yul\":12231:12271   */\n      add\n        /* \"#utility.yul\":12373:12379   */\n      dup2\n        /* \"#utility.yul\":12361:12371   */\n      dup2\n        /* \"#utility.yul\":12358:12380   */\n      lt\n        /* \"#utility.yul\":12337:12355   */\n      0xffffffffffffffff\n        /* \"#utility.yul\":12325:12335   */\n      dup3\n        /* \"#utility.yul\":12322:12356   */\n      gt\n        /* \"#utility.yul\":12319:12381   */\n      or\n        /* \"#utility.yul\":12316:12404   */\n      iszero\n      tag_323\n      jumpi\n        /* \"#utility.yul\":12384:12402   */\n      tag_324\n      tag_161\n      jump\t// in\n    tag_324:\n        /* \"#utility.yul\":12316:12404   */\n    tag_323:\n        /* \"#utility.yul\":12424:12434   */\n      dup1\n        /* \"#utility.yul\":12420:12422   */\n      0x40\n        /* \"#utility.yul\":12413:12435   */\n      mstore\n        /* \"#utility.yul\":12203:12441   */\n      pop\n        /* \"#utility.yul\":12160:12441   */\n      pop\n      pop\n      jump\t// out\n        /* \"#utility.yul\":12447:12576   */\n    tag_163:\n        /* \"#utility.yul\":12481:12487   */\n      0x00\n        /* \"#utility.yul\":12508:12528   */\n      tag_326\n      tag_126\n      jump\t// in\n    tag_326:\n        /* \"#utility.yul\":12498:12528   */\n      swap1\n      pop\n        /* \"#utility.yul\":12537:12570   */\n      tag_327\n        /* \"#utility.yul\":12565:12569   */\n      dup3\n        /* \"#utility.yul\":12557:12563   */\n      dup3\n        /* \"#utility.yul\":12537:12570   */\n      tag_162\n      jump\t// in\n    tag_327:\n        /* \"#utility.yul\":12447:12576   */\n      swap2\n      swap1\n      pop\n      jump\t// out\n        /* \"#utility.yul\":12705:12848   */\n    tag_165:\n        /* \"#utility.yul\":12762:12767   */\n      0x00\n        /* \"#utility.yul\":12793:12799   */\n      dup2\n        /* \"#utility.yul\":12787:12800   */\n      mload\n        /* \"#utility.yul\":12778:12800   */\n      swap1\n      pop\n        /* \"#utility.yul\":12809:12842   */\n      tag_330\n        /* \"#utility.yul\":12836:12841   */\n      dup2\n        /* \"#utility.yul\":12809:12842   */\n      tag_134\n      jump\t// in\n    tag_330:\n        /* \"#utility.yul\":12705:12848   */\n      swap3\n      swap2\n      pop\n      pop\n      jump\t// out\n        /* \"#utility.yul\":12879:13487   */\n    tag_166:\n        /* \"#utility.yul\":12966:12971   */\n      0x00\n        /* \"#utility.yul\":13010:13014   */\n      0x40\n        /* \"#utility.yul\":12998:13007   */\n      dup3\n        /* \"#utility.yul\":12993:12996   */\n      dup5\n        /* \"#utility.yul\":12989:13008   */\n      sub\n        /* \"#utility.yul\":12985:13015   */\n      slt\n        /* \"#utility.yul\":12982:13099   */\n      iszero\n      tag_332\n      jumpi\n        /* \"#utility.yul\":13018:13097   */\n      tag_333\n      tag_159\n      jump\t// in\n    tag_333:\n        /* \"#utility.yul\":12982:13099   */\n    tag_332:\n        /* \"#utility.yul\":13117:13138   */\n      tag_334\n        /* \"#utility.yul\":13133:13137   */\n      0x40\n        /* \"#utility.yul\":13117:13138   */\n      tag_163\n      jump\t// in\n    tag_334:\n        /* \"#utility.yul\":13108:13138   */\n      swap1\n      pop\n        /* \"#utility.yul\":13197:13198   */\n      0x00\n        /* \"#utility.yul\":13237:13297   */\n      tag_335\n        /* \"#utility.yul\":13293:13296   */\n      dup5\n        /* \"#utility.yul\":13284:13290   */\n      dup3\n        /* \"#utility.yul\":13273:13282   */\n      dup6\n        /* \"#utility.yul\":13269:13291   */\n      add\n        /* \"#utility.yul\":13237:13297   */\n      tag_165\n      jump\t// in\n    tag_335:\n        /* \"#utility.yul\":13230:13234   */\n      0x00\n        /* \"#utility.yul\":13223:13228   */\n      dup4\n        /* \"#utility.yul\":13219:13235   */\n      add\n        /* \"#utility.yul\":13212:13298   */\n      mstore\n        /* \"#utility.yul\":13148:13309   */\n      pop\n        /* \"#utility.yul\":13367:13369   */\n      0x20\n        /* \"#utility.yul\":13408:13468   */\n      tag_336\n        /* \"#utility.yul\":13464:13467   */\n      dup5\n        /* \"#utility.yul\":13455:13461   */\n      dup3\n        /* \"#utility.yul\":13444:13453   */\n      dup6\n        /* \"#utility.yul\":13440:13462   */\n      add\n        /* \"#utility.yul\":13408:13468   */\n      tag_165\n      jump\t// in\n    tag_336:\n        /* \"#utility.yul\":13401:13405   */\n      0x20\n        /* \"#utility.yul\":13394:13399   */\n      dup4\n        /* \"#utility.yul\":13390:13406   */\n      add\n        /* \"#utility.yul\":13383:13469   */\n      mstore\n        /* \"#utility.yul\":13319:13480   */\n      pop\n        /* \"#utility.yul\":12879:13487   */\n      swap3\n      swap2\n      pop\n      pop\n      jump\t// out\n        /* \"#utility.yul\":13493:13898   */\n    tag_104:\n        /* \"#utility.yul\":13590:13596   */\n      0x00\n        /* \"#utility.yul\":13639:13641   */\n      0x40\n        /* \"#utility.yul\":13627:13636   */\n      dup3\n        /* \"#utility.yul\":13618:13625   */\n      dup5\n        /* \"#utility.yul\":13614:13637   */\n      sub\n        /* \"#utility.yul\":13610:13642   */\n      slt\n        /* \"#utility.yul\":13607:13726   */\n      iszero\n      tag_338\n      jumpi\n        /* \"#utility.yul\":13645:13724   */\n      tag_339\n      tag_127\n      jump\t// in\n    tag_339:\n        /* \"#utility.yul\":13607:13726   */\n    tag_338:\n        /* \"#utility.yul\":13765:13766   */\n      0x00\n        /* \"#utility.yul\":13790:13881   */\n      tag_340\n        /* \"#utility.yul\":13873:13880   */\n      dup5\n        /* \"#utility.yul\":13864:13870   */\n      dup3\n        /* \"#utility.yul\":13853:13862   */\n      dup6\n        /* \"#utility.yul\":13849:13871   */\n      add\n        /* \"#utility.yul\":13790:13881   */\n      tag_166\n      jump\t// in\n    tag_340:\n        /* \"#utility.yul\":13780:13881   */\n      swap2\n      pop\n        /* \"#utility.yul\":13736:13891   */\n      pop\n        /* \"#utility.yul\":13493:13898   */\n      swap3\n      swap2\n      pop\n      pop\n      jump\t// out\n        /* \"#utility.yul\":13904:14227   */\n    tag_107:\n        /* \"#utility.yul\":13960:13966   */\n      0x00\n        /* \"#utility.yul\":14009:14011   */\n      0x20\n        /* \"#utility.yul\":13997:14006   */\n      dup3\n        /* \"#utility.yul\":13988:13995   */\n      dup5\n        /* \"#utility.yul\":13984:14007   */\n      sub\n        /* \"#utility.yul\":13980:14012   */\n      slt\n        /* \"#utility.yul\":13977:14096   */\n      iszero\n      tag_342\n      jumpi\n        /* \"#utility.yul\":14015:14094   */\n      tag_343\n      tag_127\n      jump\t// in\n    tag_343:\n        /* \"#utility.yul\":13977:14096   */\n    tag_342:\n        /* \"#utility.yul\":14135:14136   */\n      0x00\n        /* \"#utility.yul\":14160:14210   */\n      tag_344\n        /* \"#utility.yul\":14202:14209   */\n      dup5\n        /* \"#utility.yul\":14193:14199   */\n      dup3\n        /* \"#utility.yul\":14182:14191   */\n      dup6\n        /* \"#utility.yul\":14178:14200   */\n      add\n        /* \"#utility.yul\":14160:14210   */\n      tag_145\n      jump\t// in\n    tag_344:\n        /* \"#utility.yul\":14150:14210   */\n      swap2\n      pop\n        /* \"#utility.yul\":14106:14220   */\n      pop\n        /* \"#utility.yul\":13904:14227   */\n      swap3\n      swap2\n      pop\n      pop\n      jump\t// out\n        /* \"#utility.yul\":14233:14341   */\n    tag_167:\n        /* \"#utility.yul\":14310:14334   */\n      tag_346\n        /* \"#utility.yul\":14328:14333   */\n      dup2\n        /* \"#utility.yul\":14310:14334   */\n      tag_133\n      jump\t// in\n    tag_346:\n        /* \"#utility.yul\":14305:14308   */\n      dup3\n        /* \"#utility.yul\":14298:14335   */\n      mstore\n        /* \"#utility.yul\":14233:14341   */\n      pop\n      pop\n      jump\t// out\n        /* \"#utility.yul\":14393:14893   */\n    tag_168:\n        /* \"#utility.yul\":14534:14538   */\n      0x40\n        /* \"#utility.yul\":14529:14532   */\n      dup3\n        /* \"#utility.yul\":14525:14539   */\n      add\n        /* \"#utility.yul\":14621:14625   */\n      0x00\n        /* \"#utility.yul\":14614:14619   */\n      dup3\n        /* \"#utility.yul\":14610:14626   */\n      add\n        /* \"#utility.yul\":14604:14627   */\n      mload\n        /* \"#utility.yul\":14640:14703   */\n      tag_348\n        /* \"#utility.yul\":14697:14701   */\n      0x00\n        /* \"#utility.yul\":14692:14695   */\n      dup6\n        /* \"#utility.yul\":14688:14702   */\n      add\n        /* \"#utility.yul\":14674:14686   */\n      dup3\n        /* \"#utility.yul\":14640:14703   */\n      tag_167\n      jump\t// in\n    tag_348:\n        /* \"#utility.yul\":14549:14713   */\n      pop\n        /* \"#utility.yul\":14794:14798   */\n      0x20\n        /* \"#utility.yul\":14787:14792   */\n      dup3\n        /* \"#utility.yul\":14783:14799   */\n      add\n        /* \"#utility.yul\":14777:14800   */\n      mload\n        /* \"#utility.yul\":14813:14876   */\n      tag_349\n        /* \"#utility.yul\":14870:14874   */\n      0x20\n        /* \"#utility.yul\":14865:14868   */\n      dup6\n        /* \"#utility.yul\":14861:14875   */\n      add\n        /* \"#utility.yul\":14847:14859   */\n      dup3\n        /* \"#utility.yul\":14813:14876   */\n      tag_167\n      jump\t// in\n    tag_349:\n        /* \"#utility.yul\":14723:14886   */\n      pop\n        /* \"#utility.yul\":14503:14893   */\n      pop\n        /* \"#utility.yul\":14393:14893   */\n      pop\n      pop\n      jump\t// out\n        /* \"#utility.yul\":14899:14998   */\n    tag_169:\n        /* \"#utility.yul\":14970:14991   */\n      tag_351\n        /* \"#utility.yul\":14985:14990   */\n      dup2\n        /* \"#utility.yul\":14970:14991   */\n      tag_140\n      jump\t// in\n    tag_351:\n        /* \"#utility.yul\":14965:14968   */\n      dup3\n        /* \"#utility.yul\":14958:14992   */\n      mstore\n        /* \"#utility.yul\":14899:14998   */\n      pop\n      pop\n      jump\t// out\n        /* \"#utility.yul\":15004:15112   */\n    tag_170:\n        /* \"#utility.yul\":15081:15105   */\n      tag_353\n        /* \"#utility.yul\":15099:15104   */\n      dup2\n        /* \"#utility.yul\":15081:15105   */\n      tag_142\n      jump\t// in\n    tag_353:\n        /* \"#utility.yul\":15076:15079   */\n      dup3\n        /* \"#utility.yul\":15069:15106   */\n      mstore\n        /* \"#utility.yul\":15004:15112   */\n      pop\n      pop\n      jump\t// out\n        /* \"#utility.yul\":15166:16031   */\n    tag_171:\n        /* \"#utility.yul\":15309:15313   */\n      0x80\n        /* \"#utility.yul\":15304:15307   */\n      dup3\n        /* \"#utility.yul\":15300:15314   */\n      add\n        /* \"#utility.yul\":15398:15402   */\n      0x00\n        /* \"#utility.yul\":15391:15396   */\n      dup3\n        /* \"#utility.yul\":15387:15403   */\n      add\n        /* \"#utility.yul\":15381:15404   */\n      mload\n        /* \"#utility.yul\":15417:15480   */\n      tag_355\n        /* \"#utility.yul\":15474:15478   */\n      0x00\n        /* \"#utility.yul\":15469:15472   */\n      dup6\n        /* \"#utility.yul\":15465:15479   */\n      add\n        /* \"#utility.yul\":15451:15463   */\n      dup3\n        /* \"#utility.yul\":15417:15480   */\n      tag_167\n      jump\t// in\n    tag_355:\n        /* \"#utility.yul\":15324:15490   */\n      pop\n        /* \"#utility.yul\":15578:15582   */\n      0x20\n        /* \"#utility.yul\":15571:15576   */\n      dup3\n        /* \"#utility.yul\":15567:15583   */\n      add\n        /* \"#utility.yul\":15561:15584   */\n      mload\n        /* \"#utility.yul\":15597:15654   */\n      tag_356\n        /* \"#utility.yul\":15648:15652   */\n      0x20\n        /* \"#utility.yul\":15643:15646   */\n      dup6\n        /* \"#utility.yul\":15639:15653   */\n      add\n        /* \"#utility.yul\":15625:15637   */\n      dup3\n        /* \"#utility.yul\":15597:15654   */\n      tag_169\n      jump\t// in\n    tag_356:\n        /* \"#utility.yul\":15500:15664   */\n      pop\n        /* \"#utility.yul\":15752:15756   */\n      0x40\n        /* \"#utility.yul\":15745:15750   */\n      dup3\n        /* \"#utility.yul\":15741:15757   */\n      add\n        /* \"#utility.yul\":15735:15758   */\n      mload\n        /* \"#utility.yul\":15771:15834   */\n      tag_357\n        /* \"#utility.yul\":15828:15832   */\n      0x40\n        /* \"#utility.yul\":15823:15826   */\n      dup6\n        /* \"#utility.yul\":15819:15833   */\n      add\n        /* \"#utility.yul\":15805:15817   */\n      dup3\n        /* \"#utility.yul\":15771:15834   */\n      tag_170\n      jump\t// in\n    tag_357:\n        /* \"#utility.yul\":15674:15844   */\n      pop\n        /* \"#utility.yul\":15932:15936   */\n      0x60\n        /* \"#utility.yul\":15925:15930   */\n      dup3\n        /* \"#utility.yul\":15921:15937   */\n      add\n        /* \"#utility.yul\":15915:15938   */\n      mload\n        /* \"#utility.yul\":15951:16014   */\n      tag_358\n        /* \"#utility.yul\":16008:16012   */\n      0x60\n        /* \"#utility.yul\":16003:16006   */\n      dup6\n        /* \"#utility.yul\":15999:16013   */\n      add\n        /* \"#utility.yul\":15985:15997   */\n      dup3\n        /* \"#utility.yul\":15951:16014   */\n      tag_170\n      jump\t// in\n    tag_358:\n        /* \"#utility.yul\":15854:16024   */\n      pop\n        /* \"#utility.yul\":15278:16031   */\n      pop\n        /* \"#utility.yul\":15166:16031   */\n      pop\n      pop\n      jump\t// out\n        /* \"#utility.yul\":16099:16927   */\n    tag_172:\n        /* \"#utility.yul\":16266:16270   */\n      0xe0\n        /* \"#utility.yul\":16261:16264   */\n      dup3\n        /* \"#utility.yul\":16257:16271   */\n      add\n        /* \"#utility.yul\":16357:16361   */\n      0x00\n        /* \"#utility.yul\":16350:16355   */\n      dup3\n        /* \"#utility.yul\":16346:16362   */\n      add\n        /* \"#utility.yul\":16340:16363   */\n      mload\n        /* \"#utility.yul\":16376:16439   */\n      tag_360\n        /* \"#utility.yul\":16433:16437   */\n      0x00\n        /* \"#utility.yul\":16428:16431   */\n      dup6\n        /* \"#utility.yul\":16424:16438   */\n      add\n        /* \"#utility.yul\":16410:16422   */\n      dup3\n        /* \"#utility.yul\":16376:16439   */\n      tag_167\n      jump\t// in\n    tag_360:\n        /* \"#utility.yul\":16281:16449   */\n      pop\n        /* \"#utility.yul\":16537:16541   */\n      0x20\n        /* \"#utility.yul\":16530:16535   */\n      dup3\n        /* \"#utility.yul\":16526:16542   */\n      add\n        /* \"#utility.yul\":16520:16543   */\n      mload\n        /* \"#utility.yul\":16556:16673   */\n      tag_361\n        /* \"#utility.yul\":16667:16671   */\n      0x20\n        /* \"#utility.yul\":16662:16665   */\n      dup6\n        /* \"#utility.yul\":16658:16672   */\n      add\n        /* \"#utility.yul\":16644:16656   */\n      dup3\n        /* \"#utility.yul\":16556:16673   */\n      tag_168\n      jump\t// in\n    tag_361:\n        /* \"#utility.yul\":16459:16683   */\n      pop\n        /* \"#utility.yul\":16772:16776   */\n      0x40\n        /* \"#utility.yul\":16765:16770   */\n      dup3\n        /* \"#utility.yul\":16761:16777   */\n      add\n        /* \"#utility.yul\":16755:16778   */\n      mload\n        /* \"#utility.yul\":16791:16910   */\n      tag_362\n        /* \"#utility.yul\":16904:16908   */\n      0x60\n        /* \"#utility.yul\":16899:16902   */\n      dup6\n        /* \"#utility.yul\":16895:16909   */\n      add\n        /* \"#utility.yul\":16881:16893   */\n      dup3\n        /* \"#utility.yul\":16791:16910   */\n      tag_171\n      jump\t// in\n    tag_362:\n        /* \"#utility.yul\":16693:16920   */\n      pop\n        /* \"#utility.yul\":16235:16927   */\n      pop\n        /* \"#utility.yul\":16099:16927   */\n      pop\n      pop\n      jump\t// out\n        /* \"#utility.yul\":16933:17296   */\n    tag_111:\n        /* \"#utility.yul\":17096:17100   */\n      0x00\n        /* \"#utility.yul\":17134:17137   */\n      0xe0\n        /* \"#utility.yul\":17123:17132   */\n      dup3\n        /* \"#utility.yul\":17119:17138   */\n      add\n        /* \"#utility.yul\":17111:17138   */\n      swap1\n      pop\n        /* \"#utility.yul\":17148:17289   */\n      tag_364\n        /* \"#utility.yul\":17286:17287   */\n      0x00\n        /* \"#utility.yul\":17275:17284   */\n      dup4\n        /* \"#utility.yul\":17271:17288   */\n      add\n        /* \"#utility.yul\":17262:17268   */\n      dup5\n        /* \"#utility.yul\":17148:17289   */\n      tag_172\n      jump\t// in\n    tag_364:\n        /* \"#utility.yul\":16933:17296   */\n      swap3\n      swap2\n      pop\n      pop\n      jump\t// out\n        /* \"#utility.yul\":17302:17653   */\n    tag_115:\n        /* \"#utility.yul\":17372:17378   */\n      0x00\n        /* \"#utility.yul\":17421:17423   */\n      0x20\n        /* \"#utility.yul\":17409:17418   */\n      dup3\n        /* \"#utility.yul\":17400:17407   */\n      dup5\n        /* \"#utility.yul\":17396:17419   */\n      sub\n        /* \"#utility.yul\":17392:17424   */\n      slt\n        /* \"#utility.yul\":17389:17508   */\n      iszero\n      tag_366\n      jumpi\n        /* \"#utility.yul\":17427:17506   */\n      tag_367\n      tag_127\n      jump\t// in\n    tag_367:\n        /* \"#utility.yul\":17389:17508   */\n    tag_366:\n        /* \"#utility.yul\":17547:17548   */\n      0x00\n        /* \"#utility.yul\":17572:17636   */\n      tag_368\n        /* \"#utility.yul\":17628:17635   */\n      dup5\n        /* \"#utility.yul\":17619:17625   */\n      dup3\n        /* \"#utility.yul\":17608:17617   */\n      dup6\n        /* \"#utility.yul\":17604:17626   */\n      add\n        /* \"#utility.yul\":17572:17636   */\n      tag_165\n      jump\t// in\n    tag_368:\n        /* \"#utility.yul\":17562:17636   */\n      swap2\n      pop\n        /* \"#utility.yul\":17518:17646   */\n      pop\n        /* \"#utility.yul\":17302:17653   */\n      swap3\n      swap2\n      pop\n      pop\n      jump\t// out\n\n    auxdata: 0xa264697066735822122095bebc5de6b4f774dee462905925325ec2d3e72968619f746514ba12f16b059c64736f6c634300081b0033\n}\n",
				"bytecode": {
					"linkReferences": {},
					"object": "60a060405234801561000f575f5ffd5b506040516116b13803806116b1833981810160405281019061003191906100c9565b8073ffffffffffffffffffffffffffffffffffffffff1660808173ffffffffffffffffffffffffffffffffffffffff1681525050506100f4565b5f5ffd5b5f73ffffffffffffffffffffffffffffffffffffffff82169050919050565b5f6100988261006f565b9050919050565b6100a88161008e565b81146100b2575f5ffd5b50565b5f815190506100c38161009f565b92915050565b5f602082840312156100de576100dd61006b565b5b5f6100eb848285016100b5565b91505092915050565b60805161159e6101135f395f818161070901526108f3015261159e5ff3fe608060405234801561000f575f5ffd5b50600436106100b1575f3560e01c8063598af9e71161006f578063598af9e7146101d65780635d28a34c146102065780638119c065146102365780639562364114610254578063b6363cf214610272578063fe99049a146102a2576100b1565b8062fdd58e146100b557806301ffc9a7146100e5578063095bcdb614610115578063426a8493146101455780634272ee1814610175578063558a7297146101a6575b5f5ffd5b6100cf60048036038101906100ca9190610d3d565b6102d2565b6040516100dc9190610d8a565b60405180910390f35b6100ff60048036038101906100fa9190610df8565b6102f2565b60405161010c9190610e3d565b60405180910390f35b61012f600480360381019061012a9190610e56565b610353565b60405161013c9190610e3d565b60405180910390f35b61015f600480360381019061015a9190610e56565b61048b565b60405161016c9190610e3d565b60405180910390f35b61018f600480360381019061018a9190610ea6565b610589565b60405161019d929190610efb565b60405180910390f35b6101c060048036038101906101bb9190610f4c565b610599565b6040516101cd9190610e3d565b60405180910390f35b6101f060048036038101906101eb9190610f8a565b610697565b6040516101fd9190610d8a565b60405180910390f35b610220600480360381019061021b9190610ffc565b6106c2565b60405161022d9190610d8a565b60405180910390f35b61023e6108ed565b60405161024b9190610e3d565b60405180910390f35b61025c6108f1565b6040516102699190611036565b60405180910390f35b61028c6004803603810190610287919061104f565b610915565b6040516102999190610e3d565b60405180910390f35b6102bc60048036038101906102b7919061108d565b61093e565b6040516102c99190610e3d565b60405180910390f35b6001602052815f5260405f20602052805f5260405f205f91509150505481565b5f6301ffc9a760e01b827bffffffffffffffffffffffffffffffffffffffffffffffffffffffff1916148061034c5750630f632fb360e01b827bffffffffffffffffffffffffffffffffffffffffffffffffffffffff1916145b9050919050565b5f8160015f3373ffffffffffffffffffffffffffffffffffffffff1673ffffffffffffffffffffffffffffffffffffffff1681526020019081526020015f205f8581526020019081526020015f205f8282546103af919061111e565b925050819055508160015f8673ffffffffffffffffffffffffffffffffffffffff1673ffffffffffffffffffffffffffffffffffffffff1681526020019081526020015f205f8581526020019081526020015f205f8282546104119190611151565b92505081905550828473ffffffffffffffffffffffffffffffffffffffff163373ffffffffffffffffffffffffffffffffffffffff167f1b3d7edb2e9c0b0e7c525b20aaaef0f5940d2ed71663c7d39266ecafac7288593386604051610478929190611184565b60405180910390a4600190509392505050565b5f8160025f3373ffffffffffffffffffffffffffffffffffffffff1673ffffffffffffffffffffffffffffffffffffffff1681526020019081526020015f205f8673ffffffffffffffffffffffffffffffffffffffff1673ffffffffffffffffffffffffffffffffffffffff1681526020019081526020015f205f8581526020019081526020015f2081905550828473ffffffffffffffffffffffffffffffffffffffff163373ffffffffffffffffffffffffffffffffffffffff167fb3fd5071835887567a0671151121894ddccc2842f1d10bedad13e0d17cace9a7856040516105769190610d8a565b60405180910390a4600190509392505050565b5f5f60fa91506104de9050915091565b5f815f5f3373ffffffffffffffffffffffffffffffffffffffff1673ffffffffffffffffffffffffffffffffffffffff1681526020019081526020015f205f8573ffffffffffffffffffffffffffffffffffffffff1673ffffffffffffffffffffffffffffffffffffffff1681526020019081526020015f205f6101000a81548160ff0219169083151502179055508273ffffffffffffffffffffffffffffffffffffffff163373ffffffffffffffffffffffffffffffffffffffff167fceb576d9f15e4e200fdb5096d64d5dfd667e16def20c1eefd14256d8e3faa267846040516106859190610e3d565b60405180910390a36001905092915050565b6002602052825f5260405f20602052815f5260405f20602052805f5260405f205f9250925050505481565b5f5f6107048360200160208101906106da91906111ab565b8460400160208101906106ed919061120d565b855f0160208101906106ff9190611277565b610c85565b90505f7f000000000000000000000000000000000000000000000000000000000000000073ffffffffffffffffffffffffffffffffffffffff16633dc355fe855f0160208101906107559190611277565b6040518263ffffffff1660e01b815260040161077191906112db565b60408051808303815f875af115801561078c573d5f5f3e3d5ffd5b505050506040513d601f19601f820116820180604052508101906107b091906113e1565b90505f5f6107bd84610589565b915091505f6040518060800160405280886060013581526020018860800160208101906107ea919061140c565b15158152602001846fffffffffffffffffffffffffffffffff168152602001836fffffffffffffffffffffffffffffffff1681525090505f6040518060600160405280896040016020810190610840919061120d565b61ffff16815260200186815260200183815250905087602001602081019061086891906111ab565b73ffffffffffffffffffffffffffffffffffffffff1663e176b360826040518263ffffffff1660e01b81526004016108a09190611524565b6020604051808303815f875af11580156108bc573d5f5f3e3d5ffd5b505050506040513d601f19601f820116820180604052508101906108e0919061153d565b9650505050505050919050565b5f90565b7f000000000000000000000000000000000000000000000000000000000000000081565b5f602052815f5260405f20602052805f5260405f205f915091509054906101000a900460ff1681565b5f8473ffffffffffffffffffffffffffffffffffffffff163373ffffffffffffffffffffffffffffffffffffffff16141580156109fc57505f5f8673ffffffffffffffffffffffffffffffffffffffff1673ffffffffffffffffffffffffffffffffffffffff1681526020019081526020015f205f3373ffffffffffffffffffffffffffffffffffffffff1673ffffffffffffffffffffffffffffffffffffffff1681526020019081526020015f205f9054906101000a900460ff16155b15610b4d575f60025f8773ffffffffffffffffffffffffffffffffffffffff1673ffffffffffffffffffffffffffffffffffffffff1681526020019081526020015f205f3373ffffffffffffffffffffffffffffffffffffffff1673ffffffffffffffffffffffffffffffffffffffff1681526020019081526020015f205f8581526020019081526020015f205490507fffffffffffffffffffffffffffffffffffffffffffffffffffffffffffffffff8114610b4b578281610abf919061111e565b60025f8873ffffffffffffffffffffffffffffffffffffffff1673ffffffffffffffffffffffffffffffffffffffff1681526020019081526020015f205f3373ffffffffffffffffffffffffffffffffffffffff1673ffffffffffffffffffffffffffffffffffffffff1681526020019081526020015f205f8681526020019081526020015f20819055505b505b8160015f8773ffffffffffffffffffffffffffffffffffffffff1673ffffffffffffffffffffffffffffffffffffffff1681526020019081526020015f205f8581526020019081526020015f205f828254610ba8919061111e565b925050819055508160015f8673ffffffffffffffffffffffffffffffffffffffff1673ffffffffffffffffffffffffffffffffffffffff1681526020019081526020015f205f8581526020019081526020015f205f828254610c0a9190611151565b92505081905550828473ffffffffffffffffffffffffffffffffffffffff168673ffffffffffffffffffffffffffffffffffffffff167f1b3d7edb2e9c0b0e7c525b20aaaef0f5940d2ed71663c7d39266ecafac7288593386604051610c71929190611184565b60405180910390a460019050949350505050565b5f8390508060601b90508260501b8117905081811790509392505050565b5f604051905090565b5f5ffd5b5f73ffffffffffffffffffffffffffffffffffffffff82169050919050565b5f610cd982610cb0565b9050919050565b610ce981610ccf565b8114610cf3575f5ffd5b50565b5f81359050610d0481610ce0565b92915050565b5f819050919050565b610d1c81610d0a565b8114610d26575f5ffd5b50565b5f81359050610d3781610d13565b92915050565b5f5f60408385031215610d5357610d52610cac565b5b5f610d6085828601610cf6565b9250506020610d7185828601610d29565b9150509250929050565b610d8481610d0a565b82525050565b5f602082019050610d9d5f830184610d7b565b92915050565b5f7fffffffff0000000000000000000000000000000000000000000000000000000082169050919050565b610dd781610da3565b8114610de1575f5ffd5b50565b5f81359050610df281610dce565b92915050565b5f60208284031215610e0d57610e0c610cac565b5b5f610e1a84828501610de4565b91505092915050565b5f8115159050919050565b610e3781610e23565b82525050565b5f602082019050610e505f830184610e2e565b92915050565b5f5f5f60608486031215610e6d57610e6c610cac565b5b5f610e7a86828701610cf6565b9350506020610e8b86828701610d29565b9250506040610e9c86828701610d29565b9150509250925092565b5f60208284031215610ebb57610eba610cac565b5b5f610ec884828501610d29565b91505092915050565b5f6fffffffffffffffffffffffffffffffff82169050919050565b610ef581610ed1565b82525050565b5f604082019050610f0e5f830185610eec565b610f1b6020830184610eec565b9392505050565b610f2b81610e23565b8114610f35575f5ffd5b50565b5f81359050610f4681610f22565b92915050565b5f5f60408385031215610f6257610f61610cac565b5b5f610f6f85828601610cf6565b9250506020610f8085828601610f38565b9150509250929050565b5f5f5f60608486031215610fa157610fa0610cac565b5b5f610fae86828701610cf6565b9350506020610fbf86828701610cf6565b9250506040610fd086828701610d29565b9150509250925092565b5f5ffd5b5f60a08284031215610ff357610ff2610fda565b5b81905092915050565b5f60a0828403121561101157611010610cac565b5b5f61101e84828501610fde565b91505092915050565b61103081610ccf565b82525050565b5f6020820190506110495f830184611027565b92915050565b5f5f6040838503121561106557611064610cac565b5b5f61107285828601610cf6565b925050602061108385828601610cf6565b9150509250929050565b5f5f5f5f608085870312156110a5576110a4610cac565b5b5f6110b287828801610cf6565b94505060206110c387828801610cf6565b93505060406110d487828801610d29565b92505060606110e587828801610d29565b91505092959194509250565b7f4e487b71000000000000000000000000000000000000000000000000000000005f52601160045260245ffd5b5f61112882610d0a565b915061113383610d0a565b925082820390508181111561114b5761114a6110f1565b5b92915050565b5f61115b82610d0a565b915061116683610d0a565b925082820190508082111561117e5761117d6110f1565b5b92915050565b5f6040820190506111975f830185611027565b6111a46020830184610d7b565b9392505050565b5f602082840312156111c0576111bf610cac565b5b5f6111cd84828501610cf6565b91505092915050565b5f61ffff82169050919050565b6111ec816111d6565b81146111f6575f5ffd5b50565b5f81359050611207816111e3565b92915050565b5f6020828403121561122257611221610cac565b5b5f61122f848285016111f9565b91505092915050565b5f69ffffffffffffffffffff82169050919050565b61125681611238565b8114611260575f5ffd5b50565b5f813590506112718161124d565b92915050565b5f6020828403121561128c5761128b610cac565b5b5f61129984828501611263565b91505092915050565b5f819050919050565b5f6112c56112c06112bb84611238565b6112a2565b610d0a565b9050919050565b6112d5816112ab565b82525050565b5f6020820190506112ee5f8301846112cc565b92915050565b5f5ffd5b5f601f19601f8301169050919050565b7f4e487b71000000000000000000000000000000000000000000000000000000005f52604160045260245ffd5b61133e826112f8565b810181811067ffffffffffffffff8211171561135d5761135c611308565b5b80604052505050565b5f61136f610ca3565b905061137b8282611335565b919050565b5f8151905061138e81610d13565b92915050565b5f604082840312156113a9576113a86112f4565b5b6113b36040611366565b90505f6113c284828501611380565b5f8301525060206113d584828501611380565b60208301525092915050565b5f604082840312156113f6576113f5610cac565b5b5f61140384828501611394565b91505092915050565b5f6020828403121561142157611420610cac565b5b5f61142e84828501610f38565b91505092915050565b61144081610d0a565b82525050565b604082015f82015161145a5f850182611437565b50602082015161146d6020850182611437565b50505050565b61147c81610e23565b82525050565b61148b81610ed1565b82525050565b608082015f8201516114a55f850182611437565b5060208201516114b86020850182611473565b5060408201516114cb6040850182611482565b5060608201516114de6060850182611482565b50505050565b60e082015f8201516114f85f850182611437565b50602082015161150b6020850182611446565b50604082015161151e6060850182611491565b50505050565b5f60e0820190506115375f8301846114e4565b92915050565b5f6020828403121561155257611551610cac565b5b5f61155f84828501611380565b9150509291505056fea264697066735822122095bebc5de6b4f774dee462905925325ec2d3e72968619f746514ba12f16b059c64736f6c634300081b0033",
					"opcodes": "PUSH1 0xA0 PUSH1 0x40 MSTORE CALLVALUE DUP1 ISZERO PUSH2 0xF JUMPI PUSH0 PUSH0 REVERT JUMPDEST POP PUSH1 0x40 MLOAD PUSH2 0x16B1 CODESIZE SUB DUP1 PUSH2 0x16B1 DUP4 CODECOPY DUP2 DUP2 ADD PUSH1 0x40 MSTORE DUP2 ADD SWAP1 PUSH2 0x31 SWAP2 SWAP1 PUSH2 0xC9 JUMP JUMPDEST DUP1 PUSH20 0xFFFFFFFFFFFFFFFFFFFFFFFFFFFFFFFFFFFFFFFF AND PUSH1 0x80 DUP2 PUSH20 0xFFFFFFFFFFFFFFFFFFFFFFFFFFFFFFFFFFFFFFFF AND DUP2 MSTORE POP POP POP PUSH2 0xF4 JUMP JUMPDEST PUSH0 PUSH0 REVERT JUMPDEST PUSH0 PUSH20 0xFFFFFFFFFFFFFFFFFFFFFFFFFFFFFFFFFFFFFFFF DUP3 AND SWAP1 POP SWAP2 SWAP1 POP JUMP JUMPDEST PUSH0 PUSH2 0x98 DUP3 PUSH2 0x6F JUMP JUMPDEST SWAP1 POP SWAP2 SWAP1 POP JUMP JUMPDEST PUSH2 0xA8 DUP2 PUSH2 0x8E JUMP JUMPDEST DUP2 EQ PUSH2 0xB2 JUMPI PUSH0 PUSH0 REVERT JUMPDEST POP JUMP JUMPDEST PUSH0 DUP2 MLOAD SWAP1 POP PUSH2 0xC3 DUP2 PUSH2 0x9F JUMP JUMPDEST SWAP3 SWAP2 POP POP JUMP JUMPDEST PUSH0 PUSH1 0x20 DUP3 DUP5 SUB SLT ISZERO PUSH2 0xDE JUMPI PUSH2 0xDD PUSH2 0x6B JUMP JUMPDEST JUMPDEST PUSH0 PUSH2 0xEB DUP5 DUP3 DUP6 ADD PUSH2 0xB5 JUMP JUMPDEST SWAP2 POP POP SWAP3 SWAP2 POP POP JUMP JUMPDEST PUSH1 0x80 MLOAD PUSH2 0x159E PUSH2 0x113 PUSH0 CODECOPY PUSH0 DUP2 DUP2 PUSH2 0x709 ADD MSTORE PUSH2 0x8F3 ADD MSTORE PUSH2 0x159E PUSH0 RETURN INVALID PUSH1 0x80 PUSH1 0x40 MSTORE CALLVALUE DUP1 ISZERO PUSH2 0xF JUMPI PUSH0 PUSH0 REVERT JUMPDEST POP PUSH1 0x4 CALLDATASIZE LT PUSH2 0xB1 JUMPI PUSH0 CALLDATALOAD PUSH1 0xE0 SHR DUP1 PUSH4 0x598AF9E7 GT PUSH2 0x6F JUMPI DUP1 PUSH4 0x598AF9E7 EQ PUSH2 0x1D6 JUMPI DUP1 PUSH4 0x5D28A34C EQ PUSH2 0x206 JUMPI DUP1 PUSH4 0x8119C065 EQ PUSH2 0x236 JUMPI DUP1 PUSH4 0x95623641 EQ PUSH2 0x254 JUMPI DUP1 PUSH4 0xB6363CF2 EQ PUSH2 0x272 JUMPI DUP1 PUSH4 0xFE99049A EQ PUSH2 0x2A2 JUMPI PUSH2 0xB1 JUMP JUMPDEST DUP1 PUSH3 0xFDD58E EQ PUSH2 0xB5 JUMPI DUP1 PUSH4 0x1FFC9A7 EQ PUSH2 0xE5 JUMPI DUP1 PUSH4 0x95BCDB6 EQ PUSH2 0x115 JUMPI DUP1 PUSH4 0x426A8493 EQ PUSH2 0x145 JUMPI DUP1 PUSH4 0x4272EE18 EQ PUSH2 0x175 JUMPI DUP1 PUSH4 0x558A7297 EQ PUSH2 0x1A6 JUMPI JUMPDEST PUSH0 PUSH0 REVERT JUMPDEST PUSH2 0xCF PUSH1 0x4 DUP1 CALLDATASIZE SUB DUP2 ADD SWAP1 PUSH2 0xCA SWAP2 SWAP1 PUSH2 0xD3D JUMP JUMPDEST PUSH2 0x2D2 JUMP JUMPDEST PUSH1 0x40 MLOAD PUSH2 0xDC SWAP2 SWAP1 PUSH2 0xD8A JUMP JUMPDEST PUSH1 0x40 MLOAD DUP1 SWAP2 SUB SWAP1 RETURN JUMPDEST PUSH2 0xFF PUSH1 0x4 DUP1 CALLDATASIZE SUB DUP2 ADD SWAP1 PUSH2 0xFA SWAP2 SWAP1 PUSH2 0xDF8 JUMP JUMPDEST PUSH2 0x2F2 JUMP JUMPDEST PUSH1 0x40 MLOAD PUSH2 0x10C SWAP2 SWAP1 PUSH2 0xE3D JUMP JUMPDEST PUSH1 0x40 MLOAD DUP1 SWAP2 SUB SWAP1 RETURN JUMPDEST PUSH2 0x12F PUSH1 0x4 DUP1 CALLDATASIZE SUB DUP2 ADD SWAP1 PUSH2 0x12A SWAP2 SWAP1 PUSH2 0xE56 JUMP JUMPDEST PUSH2 0x353 JUMP JUMPDEST PUSH1 0x40 MLOAD PUSH2 0x13C SWAP2 SWAP1 PUSH2 0xE3D JUMP JUMPDEST PUSH1 0x40 MLOAD DUP1 SWAP2 SUB SWAP1 RETURN JUMPDEST PUSH2 0x15F PUSH1 0x4 DUP1 CALLDATASIZE SUB DUP2 ADD SWAP1 PUSH2 0x15A SWAP2 SWAP1 PUSH2 0xE56 JUMP JUMPDEST PUSH2 0x48B JUMP JUMPDEST PUSH1 0x40 MLOAD PUSH2 0x16C SWAP2 SWAP1 PUSH2 0xE3D JUMP JUMPDEST PUSH1 0x40 MLOAD DUP1 SWAP2 SUB SWAP1 RETURN JUMPDEST PUSH2 0x18F PUSH1 0x4 DUP1 CALLDATASIZE SUB DUP2 ADD SWAP1 PUSH2 0x18A SWAP2 SWAP1 PUSH2 0xEA6 JUMP JUMPDEST PUSH2 0x589 JUMP JUMPDEST PUSH1 0x40 MLOAD PUSH2 0x19D SWAP3 SWAP2 SWAP1 PUSH2 0xEFB JUMP JUMPDEST PUSH1 0x40 MLOAD DUP1 SWAP2 SUB SWAP1 RETURN JUMPDEST PUSH2 0x1C0 PUSH1 0x4 DUP1 CALLDATASIZE SUB DUP2 ADD SWAP1 PUSH2 0x1BB SWAP2 SWAP1 PUSH2 0xF4C JUMP JUMPDEST PUSH2 0x599 JUMP JUMPDEST PUSH1 0x40 MLOAD PUSH2 0x1CD SWAP2 SWAP1 PUSH2 0xE3D JUMP JUMPDEST PUSH1 0x40 MLOAD DUP1 SWAP2 SUB SWAP1 RETURN JUMPDEST PUSH2 0x1F0 PUSH1 0x4 DUP1 CALLDATASIZE SUB DUP2 ADD SWAP1 PUSH2 0x1EB SWAP2 SWAP1 PUSH2 0xF8A JUMP JUMPDEST PUSH2 0x697 JUMP JUMPDEST PUSH1 0x40 MLOAD PUSH2 0x1FD SWAP2 SWAP1 PUSH2 0xD8A JUMP JUMPDEST PUSH1 0x40 MLOAD DUP1 SWAP2 SUB SWAP1 RETURN JUMPDEST PUSH2 0x220 PUSH1 0x4 DUP1 CALLDATASIZE SUB DUP2 ADD SWAP1 PUSH2 0x21B SWAP2 SWAP1 PUSH2 0xFFC JUMP JUMPDEST PUSH2 0x6C2 JUMP JUMPDEST PUSH1 0x40 MLOAD PUSH2 0x22D SWAP2 SWAP1 PUSH2 0xD8A JUMP JUMPDEST PUSH1 0x40 MLOAD DUP1 SWAP2 SUB SWAP1 RETURN JUMPDEST PUSH2 0x23E PUSH2 0x8ED JUMP JUMPDEST PUSH1 0x40 MLOAD PUSH2 0x24B SWAP2 SWAP1 PUSH2 0xE3D JUMP JUMPDEST PUSH1 0x40 MLOAD DUP1 SWAP2 SUB SWAP1 RETURN JUMPDEST PUSH2 0x25C PUSH2 0x8F1 JUMP JUMPDEST PUSH1 0x40 MLOAD PUSH2 0x269 SWAP2 SWAP1 PUSH2 0x1036 JUMP JUMPDEST PUSH1 0x40 MLOAD DUP1 SWAP2 SUB SWAP1 RETURN JUMPDEST PUSH2 0x28C PUSH1 0x4 DUP1 CALLDATASIZE SUB DUP2 ADD SWAP1 PUSH2 0x287 SWAP2 SWAP1 PUSH2 0x104F JUMP JUMPDEST PUSH2 0x915 JUMP JUMPDEST PUSH1 0x40 MLOAD PUSH2 0x299 SWAP2 SWAP1 PUSH2 0xE3D JUMP JUMPDEST PUSH1 0x40 MLOAD DUP1 SWAP2 SUB SWAP1 RETURN JUMPDEST PUSH2 0x2BC PUSH1 0x4 DUP1 CALLDATASIZE SUB DUP2 ADD SWAP1 PUSH2 0x2B7 SWAP2 SWAP1 PUSH2 0x108D JUMP JUMPDEST PUSH2 0x93E JUMP JUMPDEST PUSH1 0x40 MLOAD PUSH2 0x2C9 SWAP2 SWAP1 PUSH2 0xE3D JUMP JUMPDEST PUSH1 0x40 MLOAD DUP1 SWAP2 SUB SWAP1 RETURN JUMPDEST PUSH1 0x1 PUSH1 0x20 MSTORE DUP2 PUSH0 MSTORE PUSH1 0x40 PUSH0 KECCAK256 PUSH1 0x20 MSTORE DUP1 PUSH0 MSTORE PUSH1 0x40 PUSH0 KECCAK256 PUSH0 SWAP2 POP SWAP2 POP POP SLOAD DUP2 JUMP JUMPDEST PUSH0 PUSH4 0x1FFC9A7 PUSH1 0xE0 SHL DUP3 PUSH28 0xFFFFFFFFFFFFFFFFFFFFFFFFFFFFFFFFFFFFFFFFFFFFFFFFFFFFFFFF NOT AND EQ DUP1 PUSH2 0x34C JUMPI POP PUSH4 0xF632FB3 PUSH1 0xE0 SHL DUP3 PUSH28 0xFFFFFFFFFFFFFFFFFFFFFFFFFFFFFFFFFFFFFFFFFFFFFFFFFFFFFFFF NOT AND EQ JUMPDEST SWAP1 POP SWAP2 SWAP1 POP JUMP JUMPDEST PUSH0 DUP2 PUSH1 0x1 PUSH0 CALLER PUSH20 0xFFFFFFFFFFFFFFFFFFFFFFFFFFFFFFFFFFFFFFFF AND PUSH20 0xFFFFFFFFFFFFFFFFFFFFFFFFFFFFFFFFFFFFFFFF AND DUP2 MSTORE PUSH1 0x20 ADD SWAP1 DUP2 MSTORE PUSH1 0x20 ADD PUSH0 KECCAK256 PUSH0 DUP6 DUP2 MSTORE PUSH1 0x20 ADD SWAP1 DUP2 MSTORE PUSH1 0x20 ADD PUSH0 KECCAK256 PUSH0 DUP3 DUP3 SLOAD PUSH2 0x3AF SWAP2 SWAP1 PUSH2 0x111E JUMP JUMPDEST SWAP3 POP POP DUP2 SWAP1 SSTORE POP DUP2 PUSH1 0x1 PUSH0 DUP7 PUSH20 0xFFFFFFFFFFFFFFFFFFFFFFFFFFFFFFFFFFFFFFFF AND PUSH20 0xFFFFFFFFFFFFFFFFFFFFFFFFFFFFFFFFFFFFFFFF AND DUP2 MSTORE PUSH1 0x20 ADD SWAP1 DUP2 MSTORE PUSH1 0x20 ADD PUSH0 KECCAK256 PUSH0 DUP6 DUP2 MSTORE PUSH1 0x20 ADD SWAP1 DUP2 MSTORE PUSH1 0x20 ADD PUSH0 KECCAK256 PUSH0 DUP3 DUP3 SLOAD PUSH2 0x411 SWAP2 SWAP1 PUSH2 0x1151 JUMP JUMPDEST SWAP3 POP POP DUP2 SWAP1 SSTORE POP DUP3 DUP5 PUSH20 0xFFFFFFFFFFFFFFFFFFFFFFFFFFFFFFFFFFFFFFFF AND CALLER PUSH20 0xFFFFFFFFFFFFFFFFFFFFFFFFFFFFFFFFFFFFFFFF AND PUSH32 0x1B3D7EDB2E9C0B0E7C525B20AAAEF0F5940D2ED71663C7D39266ECAFAC728859 CALLER DUP7 PUSH1 0x40 MLOAD PUSH2 0x478 SWAP3 SWAP2 SWAP1 PUSH2 0x1184 JUMP JUMPDEST PUSH1 0x40 MLOAD DUP1 SWAP2 SUB SWAP1 LOG4 PUSH1 0x1 SWAP1 POP SWAP4 SWAP3 POP POP POP JUMP JUMPDEST PUSH0 DUP2 PUSH1 0x2 PUSH0 CALLER PUSH20 0xFFFFFFFFFFFFFFFFFFFFFFFFFFFFFFFFFFFFFFFF AND PUSH20 0xFFFFFFFFFFFFFFFFFFFFFFFFFFFFFFFFFFFFFFFF AND DUP2 MSTORE PUSH1 0x20 ADD SWAP1 DUP2 MSTORE PUSH1 0x20 ADD PUSH0 KECCAK256 PUSH0 DUP7 PUSH20 0xFFFFFFFFFFFFFFFFFFFFFFFFFFFFFFFFFFFFFFFF AND PUSH20 0xFFFFFFFFFFFFFFFFFFFFFFFFFFFFFFFFFFFFFFFF AND DUP2 MSTORE PUSH1 0x20 ADD SWAP1 DUP2 MSTORE PUSH1 0x20 ADD PUSH0 KECCAK256 PUSH0 DUP6 DUP2 MSTORE PUSH1 0x20 ADD SWAP1 DUP2 MSTORE PUSH1 0x20 ADD PUSH0 KECCAK256 DUP2 SWAP1 SSTORE POP DUP3 DUP5 PUSH20 0xFFFFFFFFFFFFFFFFFFFFFFFFFFFFFFFFFFFFFFFF AND CALLER PUSH20 0xFFFFFFFFFFFFFFFFFFFFFFFFFFFFFFFFFFFFFFFF AND PUSH32 0xB3FD5071835887567A0671151121894DDCCC2842F1D10BEDAD13E0D17CACE9A7 DUP6 PUSH1 0x40 MLOAD PUSH2 0x576 SWAP2 SWAP1 PUSH2 0xD8A JUMP JUMPDEST PUSH1 0x40 MLOAD DUP1 SWAP2 SUB SWAP1 LOG4 PUSH1 0x1 SWAP1 POP SWAP4 SWAP3 POP POP POP JUMP JUMPDEST PUSH0 PUSH0 PUSH1 0xFA SWAP2 POP PUSH2 0x4DE SWAP1 POP SWAP2 POP SWAP2 JUMP JUMPDEST PUSH0 DUP2 PUSH0 PUSH0 CALLER PUSH20 0xFFFFFFFFFFFFFFFFFFFFFFFFFFFFFFFFFFFFFFFF AND PUSH20 0xFFFFFFFFFFFFFFFFFFFFFFFFFFFFFFFFFFFFFFFF AND DUP2 MSTORE PUSH1 0x20 ADD SWAP1 DUP2 MSTORE PUSH1 0x20 ADD PUSH0 KECCAK256 PUSH0 DUP6 PUSH20 0xFFFFFFFFFFFFFFFFFFFFFFFFFFFFFFFFFFFFFFFF AND PUSH20 0xFFFFFFFFFFFFFFFFFFFFFFFFFFFFFFFFFFFFFFFF AND DUP2 MSTORE PUSH1 0x20 ADD SWAP1 DUP2 MSTORE PUSH1 0x20 ADD PUSH0 KECCAK256 PUSH0 PUSH2 0x100 EXP DUP2 SLOAD DUP2 PUSH1 0xFF MUL NOT AND SWAP1 DUP4 ISZERO ISZERO MUL OR SWAP1 SSTORE POP DUP3 PUSH20 0xFFFFFFFFFFFFFFFFFFFFFFFFFFFFFFFFFFFFFFFF AND CALLER PUSH20 0xFFFFFFFFFFFFFFFFFFFFFFFFFFFFFFFFFFFFFFFF AND PUSH32 0xCEB576D9F15E4E200FDB5096D64D5DFD667E16DEF20C1EEFD14256D8E3FAA267 DUP5 PUSH1 0x40 MLOAD PUSH2 0x685 SWAP2 SWAP1 PUSH2 0xE3D JUMP JUMPDEST PUSH1 0x40 MLOAD DUP1 SWAP2 SUB SWAP1 LOG3 PUSH1 0x1 SWAP1 POP SWAP3 SWAP2 POP POP JUMP JUMPDEST PUSH1 0x2 PUSH1 0x20 MSTORE DUP3 PUSH0 MSTORE PUSH1 0x40 PUSH0 KECCAK256 PUSH1 0x20 MSTORE DUP2 PUSH0 MSTORE PUSH1 0x40 PUSH0 KECCAK256 PUSH1 0x20 MSTORE DUP1 PUSH0 MSTORE PUSH1 0x40 PUSH0 KECCAK256 PUSH0 SWAP3 POP SWAP3 POP POP POP SLOAD DUP2 JUMP JUMPDEST PUSH0 PUSH0 PUSH2 0x704 DUP4 PUSH1 0x20 ADD PUSH1 0x20 DUP2 ADD SWAP1 PUSH2 0x6DA SWAP2 SWAP1 PUSH2 0x11AB JUMP JUMPDEST DUP5 PUSH1 0x40 ADD PUSH1 0x20 DUP2 ADD SWAP1 PUSH2 0x6ED SWAP2 SWAP1 PUSH2 0x120D JUMP JUMPDEST DUP6 PUSH0 ADD PUSH1 0x20 DUP2 ADD SWAP1 PUSH2 0x6FF SWAP2 SWAP1 PUSH2 0x1277 JUMP JUMPDEST PUSH2 0xC85 JUMP JUMPDEST SWAP1 POP PUSH0 PUSH32 0x0 PUSH20 0xFFFFFFFFFFFFFFFFFFFFFFFFFFFFFFFFFFFFFFFF AND PUSH4 0x3DC355FE DUP6 PUSH0 ADD PUSH1 0x20 DUP2 ADD SWAP1 PUSH2 0x755 SWAP2 SWAP1 PUSH2 0x1277 JUMP JUMPDEST PUSH1 0x40 MLOAD DUP3 PUSH4 0xFFFFFFFF AND PUSH1 0xE0 SHL DUP2 MSTORE PUSH1 0x4 ADD PUSH2 0x771 SWAP2 SWAP1 PUSH2 0x12DB JUMP JUMPDEST PUSH1 0x40 DUP1 MLOAD DUP1 DUP4 SUB DUP2 PUSH0 DUP8 GAS CALL ISZERO DUP1 ISZERO PUSH2 0x78C JUMPI RETURNDATASIZE PUSH0 PUSH0 RETURNDATACOPY RETURNDATASIZE PUSH0 REVERT JUMPDEST POP POP POP POP PUSH1 0x40 MLOAD RETURNDATASIZE PUSH1 0x1F NOT PUSH1 0x1F DUP3 ADD AND DUP3 ADD DUP1 PUSH1 0x40 MSTORE POP DUP2 ADD SWAP1 PUSH2 0x7B0 SWAP2 SWAP1 PUSH2 0x13E1 JUMP JUMPDEST SWAP1 POP PUSH0 PUSH0 PUSH2 0x7BD DUP5 PUSH2 0x589 JUMP JUMPDEST SWAP2 POP SWAP2 POP PUSH0 PUSH1 0x40 MLOAD DUP1 PUSH1 0x80 ADD PUSH1 0x40 MSTORE DUP1 DUP9 PUSH1 0x60 ADD CALLDATALOAD DUP2 MSTORE PUSH1 0x20 ADD DUP9 PUSH1 0x80 ADD PUSH1 0x20 DUP2 ADD SWAP1 PUSH2 0x7EA SWAP2 SWAP1 PUSH2 0x140C JUMP JUMPDEST ISZERO ISZERO DUP2 MSTORE PUSH1 0x20 ADD DUP5 PUSH16 0xFFFFFFFFFFFFFFFFFFFFFFFFFFFFFFFF AND DUP2 MSTORE PUSH1 0x20 ADD DUP4 PUSH16 0xFFFFFFFFFFFFFFFFFFFFFFFFFFFFFFFF AND DUP2 MSTORE POP SWAP1 POP PUSH0 PUSH1 0x40 MLOAD DUP1 PUSH1 0x60 ADD PUSH1 0x40 MSTORE DUP1 DUP10 PUSH1 0x40 ADD PUSH1 0x20 DUP2 ADD SWAP1 PUSH2 0x840 SWAP2 SWAP1 PUSH2 0x120D JUMP JUMPDEST PUSH2 0xFFFF AND DUP2 MSTORE PUSH1 0x20 ADD DUP7 DUP2 MSTORE PUSH1 0x20 ADD DUP4 DUP2 MSTORE POP SWAP1 POP DUP8 PUSH1 0x20 ADD PUSH1 0x20 DUP2 ADD SWAP1 PUSH2 0x868 SWAP2 SWAP1 PUSH2 0x11AB JUMP JUMPDEST PUSH20 0xFFFFFFFFFFFFFFFFFFFFFFFFFFFFFFFFFFFFFFFF AND PUSH4 0xE176B360 DUP3 PUSH1 0x40 MLOAD DUP3 PUSH4 0xFFFFFFFF AND PUSH1 0xE0 SHL DUP2 MSTORE PUSH1 0x4 ADD PUSH2 0x8A0 SWAP2 SWAP1 PUSH2 0x1524 JUMP JUMPDEST PUSH1 0x20 PUSH1 0x40 MLOAD DUP1 DUP4 SUB DUP2 PUSH0 DUP8 GAS CALL ISZERO DUP1 ISZERO PUSH2 0x8BC JUMPI RETURNDATASIZE PUSH0 PUSH0 RETURNDATACOPY RETURNDATASIZE PUSH0 REVERT JUMPDEST POP POP POP POP PUSH1 0x40 MLOAD RETURNDATASIZE PUSH1 0x1F NOT PUSH1 0x1F DUP3 ADD AND DUP3 ADD DUP1 PUSH1 0x40 MSTORE POP DUP2 ADD SWAP1 PUSH2 0x8E0 SWAP2 SWAP1 PUSH2 0x153D JUMP JUMPDEST SWAP7 POP POP POP POP POP POP POP SWAP2 SWAP1 POP JUMP JUMPDEST PUSH0 SWAP1 JUMP JUMPDEST PUSH32 0x0 DUP2 JUMP JUMPDEST PUSH0 PUSH1 0x20 MSTORE DUP2 PUSH0 MSTORE PUSH1 0x40 PUSH0 KECCAK256 PUSH1 0x20 MSTORE DUP1 PUSH0 MSTORE PUSH1 0x40 PUSH0 KECCAK256 PUSH0 SWAP2 POP SWAP2 POP SWAP1 SLOAD SWAP1 PUSH2 0x100 EXP SWAP1 DIV PUSH1 0xFF AND DUP2 JUMP JUMPDEST PUSH0 DUP5 PUSH20 0xFFFFFFFFFFFFFFFFFFFFFFFFFFFFFFFFFFFFFFFF AND CALLER PUSH20 0xFFFFFFFFFFFFFFFFFFFFFFFFFFFFFFFFFFFFFFFF AND EQ ISZERO DUP1 ISZERO PUSH2 0x9FC JUMPI POP PUSH0 PUSH0 DUP7 PUSH20 0xFFFFFFFFFFFFFFFFFFFFFFFFFFFFFFFFFFFFFFFF AND PUSH20 0xFFFFFFFFFFFFFFFFFFFFFFFFFFFFFFFFFFFFFFFF AND DUP2 MSTORE PUSH1 0x20 ADD SWAP1 DUP2 MSTORE PUSH1 0x20 ADD PUSH0 KECCAK256 PUSH0 CALLER PUSH20 0xFFFFFFFFFFFFFFFFFFFFFFFFFFFFFFFFFFFFFFFF AND PUSH20 0xFFFFFFFFFFFFFFFFFFFFFFFFFFFFFFFFFFFFFFFF AND DUP2 MSTORE PUSH1 0x20 ADD SWAP1 DUP2 MSTORE PUSH1 0x20 ADD PUSH0 KECCAK256 PUSH0 SWAP1 SLOAD SWAP1 PUSH2 0x100 EXP SWAP1 DIV PUSH1 0xFF AND ISZERO JUMPDEST ISZERO PUSH2 0xB4D JUMPI PUSH0 PUSH1 0x2 PUSH0 DUP8 PUSH20 0xFFFFFFFFFFFFFFFFFFFFFFFFFFFFFFFFFFFFFFFF AND PUSH20 0xFFFFFFFFFFFFFFFFFFFFFFFFFFFFFFFFFFFFFFFF AND DUP2 MSTORE PUSH1 0x20 ADD SWAP1 DUP2 MSTORE PUSH1 0x20 ADD PUSH0 KECCAK256 PUSH0 CALLER PUSH20 0xFFFFFFFFFFFFFFFFFFFFFFFFFFFFFFFFFFFFFFFF AND PUSH20 0xFFFFFFFFFFFFFFFFFFFFFFFFFFFFFFFFFFFFFFFF AND DUP2 MSTORE PUSH1 0x20 ADD SWAP1 DUP2 MSTORE PUSH1 0x20 ADD PUSH0 KECCAK256 PUSH0 DUP6 DUP2 MSTORE PUSH1 0x20 ADD SWAP1 DUP2 MSTORE PUSH1 0x20 ADD PUSH0 KECCAK256 SLOAD SWAP1 POP PUSH32 0xFFFFFFFFFFFFFFFFFFFFFFFFFFFFFFFFFFFFFFFFFFFFFFFFFFFFFFFFFFFFFFFF DUP2 EQ PUSH2 0xB4B JUMPI DUP3 DUP2 PUSH2 0xABF SWAP2 SWAP1 PUSH2 0x111E JUMP JUMPDEST PUSH1 0x2 PUSH0 DUP9 PUSH20 0xFFFFFFFFFFFFFFFFFFFFFFFFFFFFFFFFFFFFFFFF AND PUSH20 0xFFFFFFFFFFFFFFFFFFFFFFFFFFFFFFFFFFFFFFFF AND DUP2 MSTORE PUSH1 0x20 ADD SWAP1 DUP2 MSTORE PUSH1 0x20 ADD PUSH0 KECCAK256 PUSH0 CALLER PUSH20 0xFFFFFFFFFFFFFFFFFFFFFFFFFFFFFFFFFFFFFFFF AND PUSH20 0xFFFFFFFFFFFFFFFFFFFFFFFFFFFFFFFFFFFFFFFF AND DUP2 MSTORE PUSH1 0x20 ADD SWAP1 DUP2 MSTORE PUSH1 0x20 ADD PUSH0 KECCAK256 PUSH0 DUP7 DUP2 MSTORE PUSH1 0x20 ADD SWAP1 DUP2 MSTORE PUSH1 0x20 ADD PUSH0 KECCAK256 DUP2 SWAP1 SSTORE POP JUMPDEST POP JUMPDEST DUP2 PUSH1 0x1 PUSH0 DUP8 PUSH20 0xFFFFFFFFFFFFFFFFFFFFFFFFFFFFFFFFFFFFFFFF AND PUSH20 0xFFFFFFFFFFFFFFFFFFFFFFFFFFFFFFFFFFFFFFFF AND DUP2 MSTORE PUSH1 0x20 ADD SWAP1 DUP2 MSTORE PUSH1 0x20 ADD PUSH0 KECCAK256 PUSH0 DUP6 DUP2 MSTORE PUSH1 0x20 ADD SWAP1 DUP2 MSTORE PUSH1 0x20 ADD PUSH0 KECCAK256 PUSH0 DUP3 DUP3 SLOAD PUSH2 0xBA8 SWAP2 SWAP1 PUSH2 0x111E JUMP JUMPDEST SWAP3 POP POP DUP2 SWAP1 SSTORE POP DUP2 PUSH1 0x1 PUSH0 DUP7 PUSH20 0xFFFFFFFFFFFFFFFFFFFFFFFFFFFFFFFFFFFFFFFF AND PUSH20 0xFFFFFFFFFFFFFFFFFFFFFFFFFFFFFFFFFFFFFFFF AND DUP2 MSTORE PUSH1 0x20 ADD SWAP1 DUP2 MSTORE PUSH1 0x20 ADD PUSH0 KECCAK256 PUSH0 DUP6 DUP2 MSTORE PUSH1 0x20 ADD SWAP1 DUP2 MSTORE PUSH1 0x20 ADD PUSH0 KECCAK256 PUSH0 DUP3 DUP3 SLOAD PUSH2 0xC0A SWAP2 SWAP1 PUSH2 0x1151 JUMP JUMPDEST SWAP3 POP POP DUP2 SWAP1 SSTORE POP DUP3 DUP5 PUSH20 0xFFFFFFFFFFFFFFFFFFFFFFFFFFFFFFFFFFFFFFFF AND DUP7 PUSH20 0xFFFFFFFFFFFFFFFFFFFFFFFFFFFFFFFFFFFFFFFF AND PUSH32 0x1B3D7EDB2E9C0B0E7C525B20AAAEF0F5940D2ED71663C7D39266ECAFAC728859 CALLER DUP7 PUSH1 0x40 MLOAD PUSH2 0xC71 SWAP3 SWAP2 SWAP1 PUSH2 0x1184 JUMP JUMPDEST PUSH1 0x40 MLOAD DUP1 SWAP2 SUB SWAP1 LOG4 PUSH1 0x1 SWAP1 POP SWAP5 SWAP4 POP POP POP POP JUMP JUMPDEST PUSH0 DUP4 SWAP1 POP DUP1 PUSH1 0x60 SHL SWAP1 POP DUP3 PUSH1 0x50 SHL DUP2 OR SWAP1 POP DUP2 DUP2 OR SWAP1 POP SWAP4 SWAP3 POP POP POP JUMP JUMPDEST PUSH0 PUSH1 0x40 MLOAD SWAP1 POP SWAP1 JUMP JUMPDEST PUSH0 PUSH0 REVERT JUMPDEST PUSH0 PUSH20 0xFFFFFFFFFFFFFFFFFFFFFFFFFFFFFFFFFFFFFFFF DUP3 AND SWAP1 POP SWAP2 SWAP1 POP JUMP JUMPDEST PUSH0 PUSH2 0xCD9 DUP3 PUSH2 0xCB0 JUMP JUMPDEST SWAP1 POP SWAP2 SWAP1 POP JUMP JUMPDEST PUSH2 0xCE9 DUP2 PUSH2 0xCCF JUMP JUMPDEST DUP2 EQ PUSH2 0xCF3 JUMPI PUSH0 PUSH0 REVERT JUMPDEST POP JUMP JUMPDEST PUSH0 DUP2 CALLDATALOAD SWAP1 POP PUSH2 0xD04 DUP2 PUSH2 0xCE0 JUMP JUMPDEST SWAP3 SWAP2 POP POP JUMP JUMPDEST PUSH0 DUP2 SWAP1 POP SWAP2 SWAP1 POP JUMP JUMPDEST PUSH2 0xD1C DUP2 PUSH2 0xD0A JUMP JUMPDEST DUP2 EQ PUSH2 0xD26 JUMPI PUSH0 PUSH0 REVERT JUMPDEST POP JUMP JUMPDEST PUSH0 DUP2 CALLDATALOAD SWAP1 POP PUSH2 0xD37 DUP2 PUSH2 0xD13 JUMP JUMPDEST SWAP3 SWAP2 POP POP JUMP JUMPDEST PUSH0 PUSH0 PUSH1 0x40 DUP4 DUP6 SUB SLT ISZERO PUSH2 0xD53 JUMPI PUSH2 0xD52 PUSH2 0xCAC JUMP JUMPDEST JUMPDEST PUSH0 PUSH2 0xD60 DUP6 DUP3 DUP7 ADD PUSH2 0xCF6 JUMP JUMPDEST SWAP3 POP POP PUSH1 0x20 PUSH2 0xD71 DUP6 DUP3 DUP7 ADD PUSH2 0xD29 JUMP JUMPDEST SWAP2 POP POP SWAP3 POP SWAP3 SWAP1 POP JUMP JUMPDEST PUSH2 0xD84 DUP2 PUSH2 0xD0A JUMP JUMPDEST DUP3 MSTORE POP POP JUMP JUMPDEST PUSH0 PUSH1 0x20 DUP3 ADD SWAP1 POP PUSH2 0xD9D PUSH0 DUP4 ADD DUP5 PUSH2 0xD7B JUMP JUMPDEST SWAP3 SWAP2 POP POP JUMP JUMPDEST PUSH0 PUSH32 0xFFFFFFFF00000000000000000000000000000000000000000000000000000000 DUP3 AND SWAP1 POP SWAP2 SWAP1 POP JUMP JUMPDEST PUSH2 0xDD7 DUP2 PUSH2 0xDA3 JUMP JUMPDEST DUP2 EQ PUSH2 0xDE1 JUMPI PUSH0 PUSH0 REVERT JUMPDEST POP JUMP JUMPDEST PUSH0 DUP2 CALLDATALOAD SWAP1 POP PUSH2 0xDF2 DUP2 PUSH2 0xDCE JUMP JUMPDEST SWAP3 SWAP2 POP POP JUMP JUMPDEST PUSH0 PUSH1 0x20 DUP3 DUP5 SUB SLT ISZERO PUSH2 0xE0D JUMPI PUSH2 0xE0C PUSH2 0xCAC JUMP JUMPDEST JUMPDEST PUSH0 PUSH2 0xE1A DUP5 DUP3 DUP6 ADD PUSH2 0xDE4 JUMP JUMPDEST SWAP2 POP POP SWAP3 SWAP2 POP POP JUMP JUMPDEST PUSH0 DUP2 ISZERO ISZERO SWAP1 POP SWAP2 SWAP1 POP JUMP JUMPDEST PUSH2 0xE37 DUP2 PUSH2 0xE23 JUMP JUMPDEST DUP3 MSTORE POP POP JUMP JUMPDEST PUSH0 PUSH1 0x20 DUP3 ADD SWAP1 POP PUSH2 0xE50 PUSH0 DUP4 ADD DUP5 PUSH2 0xE2E JUMP JUMPDEST SWAP3 SWAP2 POP POP JUMP JUMPDEST PUSH0 PUSH0 PUSH0 PUSH1 0x60 DUP5 DUP7 SUB SLT ISZERO PUSH2 0xE6D JUMPI PUSH2 0xE6C PUSH2 0xCAC JUMP JUMPDEST JUMPDEST PUSH0 PUSH2 0xE7A DUP7 DUP3 DUP8 ADD PUSH2 0xCF6 JUMP JUMPDEST SWAP4 POP POP PUSH1 0x20 PUSH2 0xE8B DUP7 DUP3 DUP8 ADD PUSH2 0xD29 JUMP JUMPDEST SWAP3 POP POP PUSH1 0x40 PUSH2 0xE9C DUP7 DUP3 DUP8 ADD PUSH2 0xD29 JUMP JUMPDEST SWAP2 POP POP SWAP3 POP SWAP3 POP SWAP3 JUMP JUMPDEST PUSH0 PUSH1 0x20 DUP3 DUP5 SUB SLT ISZERO PUSH2 0xEBB JUMPI PUSH2 0xEBA PUSH2 0xCAC JUMP JUMPDEST JUMPDEST PUSH0 PUSH2 0xEC8 DUP5 DUP3 DUP6 ADD PUSH2 0xD29 JUMP JUMPDEST SWAP2 POP POP SWAP3 SWAP2 POP POP JUMP JUMPDEST PUSH0 PUSH16 0xFFFFFFFFFFFFFFFFFFFFFFFFFFFFFFFF DUP3 AND SWAP1 POP SWAP2 SWAP1 POP JUMP JUMPDEST PUSH2 0xEF5 DUP2 PUSH2 0xED1 JUMP JUMPDEST DUP3 MSTORE POP POP JUMP JUMPDEST PUSH0 PUSH1 0x40 DUP3 ADD SWAP1 POP PUSH2 0xF0E PUSH0 DUP4 ADD DUP6 PUSH2 0xEEC JUMP JUMPDEST PUSH2 0xF1B PUSH1 0x20 DUP4 ADD DUP5 PUSH2 0xEEC JUMP JUMPDEST SWAP4 SWAP3 POP POP POP JUMP JUMPDEST PUSH2 0xF2B DUP2 PUSH2 0xE23 JUMP JUMPDEST DUP2 EQ PUSH2 0xF35 JUMPI PUSH0 PUSH0 REVERT JUMPDEST POP JUMP JUMPDEST PUSH0 DUP2 CALLDATALOAD SWAP1 POP PUSH2 0xF46 DUP2 PUSH2 0xF22 JUMP JUMPDEST SWAP3 SWAP2 POP POP JUMP JUMPDEST PUSH0 PUSH0 PUSH1 0x40 DUP4 DUP6 SUB SLT ISZERO PUSH2 0xF62 JUMPI PUSH2 0xF61 PUSH2 0xCAC JUMP JUMPDEST JUMPDEST PUSH0 PUSH2 0xF6F DUP6 DUP3 DUP7 ADD PUSH2 0xCF6 JUMP JUMPDEST SWAP3 POP POP PUSH1 0x20 PUSH2 0xF80 DUP6 DUP3 DUP7 ADD PUSH2 0xF38 JUMP JUMPDEST SWAP2 POP POP SWAP3 POP SWAP3 SWAP1 POP JUMP JUMPDEST PUSH0 PUSH0 PUSH0 PUSH1 0x60 DUP5 DUP7 SUB SLT ISZERO PUSH2 0xFA1 JUMPI PUSH2 0xFA0 PUSH2 0xCAC JUMP JUMPDEST JUMPDEST PUSH0 PUSH2 0xFAE DUP7 DUP3 DUP8 ADD PUSH2 0xCF6 JUMP JUMPDEST SWAP4 POP POP PUSH1 0x20 PUSH2 0xFBF DUP7 DUP3 DUP8 ADD PUSH2 0xCF6 JUMP JUMPDEST SWAP3 POP POP PUSH1 0x40 PUSH2 0xFD0 DUP7 DUP3 DUP8 ADD PUSH2 0xD29 JUMP JUMPDEST SWAP2 POP POP SWAP3 POP SWAP3 POP SWAP3 JUMP JUMPDEST PUSH0 PUSH0 REVERT JUMPDEST PUSH0 PUSH1 0xA0 DUP3 DUP5 SUB SLT ISZERO PUSH2 0xFF3 JUMPI PUSH2 0xFF2 PUSH2 0xFDA JUMP JUMPDEST JUMPDEST DUP2 SWAP1 POP SWAP3 SWAP2 POP POP JUMP JUMPDEST PUSH0 PUSH1 0xA0 DUP3 DUP5 SUB SLT ISZERO PUSH2 0x1011 JUMPI PUSH2 0x1010 PUSH2 0xCAC JUMP JUMPDEST JUMPDEST PUSH0 PUSH2 0x101E DUP5 DUP3 DUP6 ADD PUSH2 0xFDE JUMP JUMPDEST SWAP2 POP POP SWAP3 SWAP2 POP POP JUMP JUMPDEST PUSH2 0x1030 DUP2 PUSH2 0xCCF JUMP JUMPDEST DUP3 MSTORE POP POP JUMP JUMPDEST PUSH0 PUSH1 0x20 DUP3 ADD SWAP1 POP PUSH2 0x1049 PUSH0 DUP4 ADD DUP5 PUSH2 0x1027 JUMP JUMPDEST SWAP3 SWAP2 POP POP JUMP JUMPDEST PUSH0 PUSH0 PUSH1 0x40 DUP4 DUP6 SUB SLT ISZERO PUSH2 0x1065 JUMPI PUSH2 0x1064 PUSH2 0xCAC JUMP JUMPDEST JUMPDEST PUSH0 PUSH2 0x1072 DUP6 DUP3 DUP7 ADD PUSH2 0xCF6 JUMP JUMPDEST SWAP3 POP POP PUSH1 0x20 PUSH2 0x1083 DUP6 DUP3 DUP7 ADD PUSH2 0xCF6 JUMP JUMPDEST SWAP2 POP POP SWAP3 POP SWAP3 SWAP1 POP JUMP JUMPDEST PUSH0 PUSH0 PUSH0 PUSH0 PUSH1 0x80 DUP6 DUP8 SUB SLT ISZERO PUSH2 0x10A5 JUMPI PUSH2 0x10A4 PUSH2 0xCAC JUMP JUMPDEST JUMPDEST PUSH0 PUSH2 0x10B2 DUP8 DUP3 DUP9 ADD PUSH2 0xCF6 JUMP JUMPDEST SWAP5 POP POP PUSH1 0x20 PUSH2 0x10C3 DUP8 DUP3 DUP9 ADD PUSH2 0xCF6 JUMP JUMPDEST SWAP4 POP POP PUSH1 0x40 PUSH2 0x10D4 DUP8 DUP3 DUP9 ADD PUSH2 0xD29 JUMP JUMPDEST SWAP3 POP POP PUSH1 0x60 PUSH2 0x10E5 DUP8 DUP3 DUP9 ADD PUSH2 0xD29 JUMP JUMPDEST SWAP2 POP POP SWAP3 SWAP6 SWAP2 SWAP5 POP SWAP3 POP JUMP JUMPDEST PUSH32 0x4E487B7100000000000000000000000000000000000000000000000000000000 PUSH0 MSTORE PUSH1 0x11 PUSH1 0x4 MSTORE PUSH1 0x24 PUSH0 REVERT JUMPDEST PUSH0 PUSH2 0x1128 DUP3 PUSH2 0xD0A JUMP JUMPDEST SWAP2 POP PUSH2 0x1133 DUP4 PUSH2 0xD0A JUMP JUMPDEST SWAP3 POP DUP3 DUP3 SUB SWAP1 POP DUP2 DUP2 GT ISZERO PUSH2 0x114B JUMPI PUSH2 0x114A PUSH2 0x10F1 JUMP JUMPDEST JUMPDEST SWAP3 SWAP2 POP POP JUMP JUMPDEST PUSH0 PUSH2 0x115B DUP3 PUSH2 0xD0A JUMP JUMPDEST SWAP2 POP PUSH2 0x1166 DUP4 PUSH2 0xD0A JUMP JUMPDEST SWAP3 POP DUP3 DUP3 ADD SWAP1 POP DUP1 DUP3 GT ISZERO PUSH2 0x117E JUMPI PUSH2 0x117D PUSH2 0x10F1 JUMP JUMPDEST JUMPDEST SWAP3 SWAP2 POP POP JUMP JUMPDEST PUSH0 PUSH1 0x40 DUP3 ADD SWAP1 POP PUSH2 0x1197 PUSH0 DUP4 ADD DUP6 PUSH2 0x1027 JUMP JUMPDEST PUSH2 0x11A4 PUSH1 0x20 DUP4 ADD DUP5 PUSH2 0xD7B JUMP JUMPDEST SWAP4 SWAP3 POP POP POP JUMP JUMPDEST PUSH0 PUSH1 0x20 DUP3 DUP5 SUB SLT ISZERO PUSH2 0x11C0 JUMPI PUSH2 0x11BF PUSH2 0xCAC JUMP JUMPDEST JUMPDEST PUSH0 PUSH2 0x11CD DUP5 DUP3 DUP6 ADD PUSH2 0xCF6 JUMP JUMPDEST SWAP2 POP POP SWAP3 SWAP2 POP POP JUMP JUMPDEST PUSH0 PUSH2 0xFFFF DUP3 AND SWAP1 POP SWAP2 SWAP1 POP JUMP JUMPDEST PUSH2 0x11EC DUP2 PUSH2 0x11D6 JUMP JUMPDEST DUP2 EQ PUSH2 0x11F6 JUMPI PUSH0 PUSH0 REVERT JUMPDEST POP JUMP JUMPDEST PUSH0 DUP2 CALLDATALOAD SWAP1 POP PUSH2 0x1207 DUP2 PUSH2 0x11E3 JUMP JUMPDEST SWAP3 SWAP2 POP POP JUMP JUMPDEST PUSH0 PUSH1 0x20 DUP3 DUP5 SUB SLT ISZERO PUSH2 0x1222 JUMPI PUSH2 0x1221 PUSH2 0xCAC JUMP JUMPDEST JUMPDEST PUSH0 PUSH2 0x122F DUP5 DUP3 DUP6 ADD PUSH2 0x11F9 JUMP JUMPDEST SWAP2 POP POP SWAP3 SWAP2 POP POP JUMP JUMPDEST PUSH0 PUSH10 0xFFFFFFFFFFFFFFFFFFFF DUP3 AND SWAP1 POP SWAP2 SWAP1 POP JUMP JUMPDEST PUSH2 0x1256 DUP2 PUSH2 0x1238 JUMP JUMPDEST DUP2 EQ PUSH2 0x1260 JUMPI PUSH0 PUSH0 REVERT JUMPDEST POP JUMP JUMPDEST PUSH0 DUP2 CALLDATALOAD SWAP1 POP PUSH2 0x1271 DUP2 PUSH2 0x124D JUMP JUMPDEST SWAP3 SWAP2 POP POP JUMP JUMPDEST PUSH0 PUSH1 0x20 DUP3 DUP5 SUB SLT ISZERO PUSH2 0x128C JUMPI PUSH2 0x128B PUSH2 0xCAC JUMP JUMPDEST JUMPDEST PUSH0 PUSH2 0x1299 DUP5 DUP3 DUP6 ADD PUSH2 0x1263 JUMP JUMPDEST SWAP2 POP POP SWAP3 SWAP2 POP POP JUMP JUMPDEST PUSH0 DUP2 SWAP1 POP SWAP2 SWAP1 POP JUMP JUMPDEST PUSH0 PUSH2 0x12C5 PUSH2 0x12C0 PUSH2 0x12BB DUP5 PUSH2 0x1238 JUMP JUMPDEST PUSH2 0x12A2 JUMP JUMPDEST PUSH2 0xD0A JUMP JUMPDEST SWAP1 POP SWAP2 SWAP1 POP JUMP JUMPDEST PUSH2 0x12D5 DUP2 PUSH2 0x12AB JUMP JUMPDEST DUP3 MSTORE POP POP JUMP JUMPDEST PUSH0 PUSH1 0x20 DUP3 ADD SWAP1 POP PUSH2 0x12EE PUSH0 DUP4 ADD DUP5 PUSH2 0x12CC JUMP JUMPDEST SWAP3 SWAP2 POP POP JUMP JUMPDEST PUSH0 PUSH0 REVERT JUMPDEST PUSH0 PUSH1 0x1F NOT PUSH1 0x1F DUP4 ADD AND SWAP1 POP SWAP2 SWAP1 POP JUMP JUMPDEST PUSH32 0x4E487B7100000000000000000000000000000000000000000000000000000000 PUSH0 MSTORE PUSH1 0x41 PUSH1 0x4 MSTORE PUSH1 0x24 PUSH0 REVERT JUMPDEST PUSH2 0x133E DUP3 PUSH2 0x12F8 JUMP JUMPDEST DUP2 ADD DUP2 DUP2 LT PUSH8 0xFFFFFFFFFFFFFFFF DUP3 GT OR ISZERO PUSH2 0x135D JUMPI PUSH2 0x135C PUSH2 0x1308 JUMP JUMPDEST JUMPDEST DUP1 PUSH1 0x40 MSTORE POP POP POP JUMP JUMPDEST PUSH0 PUSH2 0x136F PUSH2 0xCA3 JUMP JUMPDEST SWAP1 POP PUSH2 0x137B DUP3 DUP3 PUSH2 0x1335 JUMP JUMPDEST SWAP2 SWAP1 POP JUMP JUMPDEST PUSH0 DUP2 MLOAD SWAP1 POP PUSH2 0x138E DUP2 PUSH2 0xD13 JUMP JUMPDEST SWAP3 SWAP2 POP POP JUMP JUMPDEST PUSH0 PUSH1 0x40 DUP3 DUP5 SUB SLT ISZERO PUSH2 0x13A9 JUMPI PUSH2 0x13A8 PUSH2 0x12F4 JUMP JUMPDEST JUMPDEST PUSH2 0x13B3 PUSH1 0x40 PUSH2 0x1366 JUMP JUMPDEST SWAP1 POP PUSH0 PUSH2 0x13C2 DUP5 DUP3 DUP6 ADD PUSH2 0x1380 JUMP JUMPDEST PUSH0 DUP4 ADD MSTORE POP PUSH1 0x20 PUSH2 0x13D5 DUP5 DUP3 DUP6 ADD PUSH2 0x1380 JUMP JUMPDEST PUSH1 0x20 DUP4 ADD MSTORE POP SWAP3 SWAP2 POP POP JUMP JUMPDEST PUSH0 PUSH1 0x40 DUP3 DUP5 SUB SLT ISZERO PUSH2 0x13F6 JUMPI PUSH2 0x13F5 PUSH2 0xCAC JUMP JUMPDEST JUMPDEST PUSH0 PUSH2 0x1403 DUP5 DUP3 DUP6 ADD PUSH2 0x1394 JUMP JUMPDEST SWAP2 POP POP SWAP3 SWAP2 POP POP JUMP JUMPDEST PUSH0 PUSH1 0x20 DUP3 DUP5 SUB SLT ISZERO PUSH2 0x1421 JUMPI PUSH2 0x1420 PUSH2 0xCAC JUMP JUMPDEST JUMPDEST PUSH0 PUSH2 0x142E DUP5 DUP3 DUP6 ADD PUSH2 0xF38 JUMP JUMPDEST SWAP2 POP POP SWAP3 SWAP2 POP POP JUMP JUMPDEST PUSH2 0x1440 DUP2 PUSH2 0xD0A JUMP JUMPDEST DUP3 MSTORE POP POP JUMP JUMPDEST PUSH1 0x40 DUP3 ADD PUSH0 DUP3 ADD MLOAD PUSH2 0x145A PUSH0 DUP6 ADD DUP3 PUSH2 0x1437 JUMP JUMPDEST POP PUSH1 0x20 DUP3 ADD MLOAD PUSH2 0x146D PUSH1 0x20 DUP6 ADD DUP3 PUSH2 0x1437 JUMP JUMPDEST POP POP POP POP JUMP JUMPDEST PUSH2 0x147C DUP2 PUSH2 0xE23 JUMP JUMPDEST DUP3 MSTORE POP POP JUMP JUMPDEST PUSH2 0x148B DUP2 PUSH2 0xED1 JUMP JUMPDEST DUP3 MSTORE POP POP JUMP JUMPDEST PUSH1 0x80 DUP3 ADD PUSH0 DUP3 ADD MLOAD PUSH2 0x14A5 PUSH0 DUP6 ADD DUP3 PUSH2 0x1437 JUMP JUMPDEST POP PUSH1 0x20 DUP3 ADD MLOAD PUSH2 0x14B8 PUSH1 0x20 DUP6 ADD DUP3 PUSH2 0x1473 JUMP JUMPDEST POP PUSH1 0x40 DUP3 ADD MLOAD PUSH2 0x14CB PUSH1 0x40 DUP6 ADD DUP3 PUSH2 0x1482 JUMP JUMPDEST POP PUSH1 0x60 DUP3 ADD MLOAD PUSH2 0x14DE PUSH1 0x60 DUP6 ADD DUP3 PUSH2 0x1482 JUMP JUMPDEST POP POP POP POP JUMP JUMPDEST PUSH1 0xE0 DUP3 ADD PUSH0 DUP3 ADD MLOAD PUSH2 0x14F8 PUSH0 DUP6 ADD DUP3 PUSH2 0x1437 JUMP JUMPDEST POP PUSH1 0x20 DUP3 ADD MLOAD PUSH2 0x150B PUSH1 0x20 DUP6 ADD DUP3 PUSH2 0x1446 JUMP JUMPDEST POP PUSH1 0x40 DUP3 ADD MLOAD PUSH2 0x151E PUSH1 0x60 DUP6 ADD DUP3 PUSH2 0x1491 JUMP JUMPDEST POP POP POP POP JUMP JUMPDEST PUSH0 PUSH1 0xE0 DUP3 ADD SWAP1 POP PUSH2 0x1537 PUSH0 DUP4 ADD DUP5 PUSH2 0x14E4 JUMP JUMPDEST SWAP3 SWAP2 POP POP JUMP JUMPDEST PUSH0 PUSH1 0x20 DUP3 DUP5 SUB SLT ISZERO PUSH2 0x1552 JUMPI PUSH2 0x1551 PUSH2 0xCAC JUMP JUMPDEST JUMPDEST PUSH0 PUSH2 0x155F DUP5 DUP3 DUP6 ADD PUSH2 0x1380 JUMP JUMPDEST SWAP2 POP POP SWAP3 SWAP2 POP POP JUMP INVALID LOG2 PUSH5 0x6970667358 0x22 SLT KECCAK256 SWAP6 0xBE 0xBC TSTORE 0xE6 0xB4 0xF7 PUSH21 0xDEE462905925325EC2D3E72968619F746514BA12F1 PUSH12 0x59C64736F6C634300081B00 CALLER "
				},
				"gasEstimates": {
					"creation": {
						"codeDepositCost": "1106800",
						"executionCost": "infinite",
						"totalCost": "infinite"
					},
					"external": {
						"allowance(address,address,uint256)": "infinite",
						"approve(address,uint256,uint256)": "infinite",
						"balanceOf(address,uint256)": "infinite",
						"inventory(uint256)": "infinite",
						"isOperator(address,address)": "infinite",
						"marketAddress()": "infinite",
						"quote((uint80,address,uint16,uint256,bool))": "infinite",
						"setOperator(address,bool)": "infinite",
						"supportsInterface(bytes4)": "692",
						"swap()": "374",
						"transfer(address,uint256,uint256)": "infinite",
						"transferFrom(address,address,uint256,uint256)": "infinite"
					}
				},
				"methodIdentifiers": {
					"allowance(address,address,uint256)": "598af9e7",
					"approve(address,uint256,uint256)": "426a8493",
					"balanceOf(address,uint256)": "00fdd58e",
					"inventory(uint256)": "4272ee18",
					"isOperator(address,address)": "b6363cf2",
					"marketAddress()": "95623641",
					"quote((uint80,address,uint16,uint256,bool))": "5d28a34c",
					"setOperator(address,bool)": "558a7297",
					"supportsInterface(bytes4)": "01ffc9a7",
					"swap()": "8119c065",
					"transfer(address,uint256,uint256)": "095bcdb6",
					"transferFrom(address,address,uint256,uint256)": "fe99049a"
				}
			},
			"storageLayout": {
				"storage": [
					{
						"astId": 12,
						"contract": "contracts/PoolManager.sol:PoolManager",
						"label": "isOperator",
						"offset": 0,
						"slot": "0",
						"type": "t_mapping(t_address,t_mapping(t_address,t_bool))"
					},
					{
						"astId": 18,
						"contract": "contracts/PoolManager.sol:PoolManager",
						"label": "balanceOf",
						"offset": 0,
						"slot": "1",
						"type": "t_mapping(t_address,t_mapping(t_uint256,t_uint256))"
					},
					{
						"astId": 26,
						"contract": "contracts/PoolManager.sol:PoolManager",
						"label": "allowance",
						"offset": 0,
						"slot": "2",
						"type": "t_mapping(t_address,t_mapping(t_address,t_mapping(t_uint256,t_uint256)))"
					}
				],
				"types": {
					"t_address": {
						"encoding": "inplace",
						"label": "address",
						"numberOfBytes": "20"
					},
					"t_bool": {
						"encoding": "inplace",
						"label": "bool",
						"numberOfBytes": "1"
					},
					"t_mapping(t_address,t_bool)": {
						"encoding": "mapping",
						"key": "t_address",
						"label": "mapping(address => bool)",
						"numberOfBytes": "32",
						"value": "t_bool"
					},
					"t_mapping(t_address,t_mapping(t_address,t_bool))": {
						"encoding": "mapping",
						"key": "t_address",
						"label": "mapping(address => mapping(address => bool))",
						"numberOfBytes": "32",
						"value": "t_mapping(t_address,t_bool)"
					},
					"t_mapping(t_address,t_mapping(t_address,t_mapping(t_uint256,t_uint256)))": {
						"encoding": "mapping",
						"key": "t_address",
						"label": "mapping(address => mapping(address => mapping(uint256 => uint256)))",
						"numberOfBytes": "32",
						"value": "t_mapping(t_address,t_mapping(t_uint256,t_uint256))"
					},
					"t_mapping(t_address,t_mapping(t_uint256,t_uint256))": {
						"encoding": "mapping",
						"key": "t_address",
						"label": "mapping(address => mapping(uint256 => uint256))",
						"numberOfBytes": "32",
						"value": "t_mapping(t_uint256,t_uint256)"
					},
					"t_mapping(t_uint256,t_uint256)": {
						"encoding": "mapping",
						"key": "t_uint256",
						"label": "mapping(uint256 => uint256)",
						"numberOfBytes": "32",
						"value": "t_uint256"
					},
					"t_uint256": {
						"encoding": "inplace",
						"label": "uint256",
						"numberOfBytes": "32"
					}
				}
			},
			"userdoc": {
				"kind": "user",
				"methods": {
					"allowance(address,address,uint256)": {
						"notice": "Spender allowance of an id."
					},
					"approve(address,uint256,uint256)": {
						"notice": "Approves an amount of an id to a spender."
					},
					"balanceOf(address,uint256)": {
						"notice": "Owner balance of an id."
					},
					"isOperator(address,address)": {
						"notice": "Checks if a spender is approved by an owner as an operator"
					},
					"setOperator(address,bool)": {
						"notice": "Sets or removes an operator for the caller."
					},
					"transfer(address,uint256,uint256)": {
						"notice": "Transfers an amount of an id from the caller to a receiver."
					},
					"transferFrom(address,address,uint256,uint256)": {
						"notice": "Transfers an amount of an id from a sender to a receiver."
					}
				},
				"version": 1
			}
		}
	}
}