{
	"contracts/MarketDataQuoter.sol": {
		"MarketDataQuoter": {
			"abi": [
				{
					"inputs": [
						{
							"internalType": "uint256",
							"name": "id",
							"type": "uint256"
						}
					],
					"name": "quoteMarket",
					"outputs": [
						{
							"components": [
								{
									"internalType": "uint256",
									"name": "spot",
									"type": "uint256"
								},
								{
									"internalType": "uint256",
									"name": "twa",
									"type": "uint256"
								}
							],
							"internalType": "struct MarketData",
							"name": "data",
							"type": "tuple"
						}
					],
					"stateMutability": "nonpayable",
					"type": "function"
				}
			],
			"devdoc": {
				"kind": "dev",
				"methods": {},
				"version": 1
			},
			"evm": {
				"assembly": "    /* \"contracts/MarketDataQuoter.sol\":113:658  contract MarketDataQuoter { ... */\n  mstore(0x40, 0x80)\n  callvalue\n  dup1\n  iszero\n  tag_1\n  jumpi\n  revert(0x00, 0x00)\ntag_1:\n  pop\n  dataSize(sub_0)\n  dup1\n  dataOffset(sub_0)\n  0x00\n  codecopy\n  0x00\n  return\nstop\n\nsub_0: assembly {\n        /* \"contracts/MarketDataQuoter.sol\":113:658  contract MarketDataQuoter { ... */\n      mstore(0x40, 0x80)\n      callvalue\n      dup1\n      iszero\n      tag_1\n      jumpi\n      revert(0x00, 0x00)\n    tag_1:\n      pop\n      jumpi(tag_2, lt(calldatasize, 0x04))\n      shr(0xe0, calldataload(0x00))\n      dup1\n      0x3dc355fe\n      eq\n      tag_3\n      jumpi\n    tag_2:\n      revert(0x00, 0x00)\n        /* \"contracts/MarketDataQuoter.sol\":146:656  function quoteMarket(uint256 id) public virtual returns (MarketData memory data) {... */\n    tag_3:\n      tag_4\n      0x04\n      dup1\n      calldatasize\n      sub\n      dup2\n      add\n      swap1\n      tag_5\n      swap2\n      swap1\n      tag_6\n      jump\t// in\n    tag_5:\n      tag_7\n      jump\t// in\n    tag_4:\n      mload(0x40)\n      tag_8\n      swap2\n      swap1\n      tag_9\n      jump\t// in\n    tag_8:\n      mload(0x40)\n      dup1\n      swap2\n      sub\n      swap1\n      return\n    tag_7:\n        /* \"contracts/MarketDataQuoter.sol\":203:225  MarketData memory data */\n      tag_10\n      tag_11\n      jump\t// in\n    tag_10:\n        /* \"contracts/MarketDataQuoter.sol\":356:357  0 */\n      0x00\n        /* \"contracts/MarketDataQuoter.sol\":350:352  id */\n      dup3\n        /* \"contracts/MarketDataQuoter.sol\":350:357  id == 0 */\n      sub\n        /* \"contracts/MarketDataQuoter.sol\":346:650  if (id == 0) {... */\n      tag_13\n      jumpi\n        /* \"contracts/MarketDataQuoter.sol\":385:387  42 */\n      0x2a\n        /* \"contracts/MarketDataQuoter.sol\":373:377  data */\n      dup2\n        /* \"contracts/MarketDataQuoter.sol\":373:382  data.spot */\n      0x00\n      add\n        /* \"contracts/MarketDataQuoter.sol\":373:387  data.spot = 42 */\n      dup2\n      dup2\n      mstore\n      pop\n      pop\n        /* \"contracts/MarketDataQuoter.sol\":412:414  45 */\n      0x2d\n        /* \"contracts/MarketDataQuoter.sol\":401:405  data */\n      dup2\n        /* \"contracts/MarketDataQuoter.sol\":401:409  data.twa */\n      0x20\n      add\n        /* \"contracts/MarketDataQuoter.sol\":401:414  data.twa = 45 */\n      dup2\n      dup2\n      mstore\n      pop\n      pop\n        /* \"contracts/MarketDataQuoter.sol\":346:650  if (id == 0) {... */\n      jump(tag_14)\n    tag_13:\n        /* \"contracts/MarketDataQuoter.sol\":441:442  1 */\n      0x01\n        /* \"contracts/MarketDataQuoter.sol\":435:437  id */\n      dup3\n        /* \"contracts/MarketDataQuoter.sol\":435:442  id == 1 */\n      sub\n        /* \"contracts/MarketDataQuoter.sol\":431:650  if (id == 1) {... */\n      tag_15\n      jumpi\n        /* \"contracts/MarketDataQuoter.sol\":470:472  22 */\n      0x16\n        /* \"contracts/MarketDataQuoter.sol\":458:462  data */\n      dup2\n        /* \"contracts/MarketDataQuoter.sol\":458:467  data.spot */\n      0x00\n      add\n        /* \"contracts/MarketDataQuoter.sol\":458:472  data.spot = 22 */\n      dup2\n      dup2\n      mstore\n      pop\n      pop\n        /* \"contracts/MarketDataQuoter.sol\":498:500  23 */\n      0x17\n        /* \"contracts/MarketDataQuoter.sol\":487:491  data */\n      dup2\n        /* \"contracts/MarketDataQuoter.sol\":487:495  data.twa */\n      0x20\n      add\n        /* \"contracts/MarketDataQuoter.sol\":487:500  data.twa = 23 */\n      dup2\n      dup2\n      mstore\n      pop\n      pop\n        /* \"contracts/MarketDataQuoter.sol\":431:650  if (id == 1) {... */\n      jump(tag_16)\n    tag_15:\n        /* \"contracts/MarketDataQuoter.sol\":527:528  2 */\n      0x02\n        /* \"contracts/MarketDataQuoter.sol\":521:523  id */\n      dup3\n        /* \"contracts/MarketDataQuoter.sol\":521:528  id == 2 */\n      sub\n        /* \"contracts/MarketDataQuoter.sol\":517:650  if (id == 2) {... */\n      tag_17\n      jumpi\n        /* \"contracts/MarketDataQuoter.sol\":556:559  456 */\n      0x01c8\n        /* \"contracts/MarketDataQuoter.sol\":544:548  data */\n      dup2\n        /* \"contracts/MarketDataQuoter.sol\":544:553  data.spot */\n      0x00\n      add\n        /* \"contracts/MarketDataQuoter.sol\":544:559  data.spot = 456 */\n      dup2\n      dup2\n      mstore\n      pop\n      pop\n        /* \"contracts/MarketDataQuoter.sol\":585:588  440 */\n      0x01b8\n        /* \"contracts/MarketDataQuoter.sol\":574:578  data */\n      dup2\n        /* \"contracts/MarketDataQuoter.sol\":574:582  data.twa */\n      0x20\n      add\n        /* \"contracts/MarketDataQuoter.sol\":574:588  data.twa = 440 */\n      dup2\n      dup2\n      mstore\n      pop\n      pop\n        /* \"contracts/MarketDataQuoter.sol\":517:650  if (id == 2) {... */\n      jump(tag_18)\n    tag_17:\n        /* \"contracts/MarketDataQuoter.sol\":619:639  revert(\"Invalid id\") */\n      mload(0x40)\n      0x08c379a000000000000000000000000000000000000000000000000000000000\n      dup2\n      mstore\n      0x04\n      add\n      tag_19\n      swap1\n      tag_20\n      jump\t// in\n    tag_19:\n      mload(0x40)\n      dup1\n      swap2\n      sub\n      swap1\n      revert\n        /* \"contracts/MarketDataQuoter.sol\":517:650  if (id == 2) {... */\n    tag_18:\n        /* \"contracts/MarketDataQuoter.sol\":431:650  if (id == 1) {... */\n    tag_16:\n        /* \"contracts/MarketDataQuoter.sol\":346:650  if (id == 0) {... */\n    tag_14:\n        /* \"contracts/MarketDataQuoter.sol\":146:656  function quoteMarket(uint256 id) public virtual returns (MarketData memory data) {... */\n      swap2\n      swap1\n      pop\n      jump\t// out\n    tag_11:\n      mload(0x40)\n      dup1\n      0x40\n      add\n      0x40\n      mstore\n      dup1\n      0x00\n      dup2\n      mstore\n      0x20\n      add\n      0x00\n      dup2\n      mstore\n      pop\n      swap1\n      jump\t// out\n        /* \"#utility.yul\":88:205   */\n    tag_22:\n        /* \"#utility.yul\":197:198   */\n      0x00\n        /* \"#utility.yul\":194:195   */\n      0x00\n        /* \"#utility.yul\":187:199   */\n      revert\n        /* \"#utility.yul\":334:411   */\n    tag_24:\n        /* \"#utility.yul\":371:378   */\n      0x00\n        /* \"#utility.yul\":400:405   */\n      dup2\n        /* \"#utility.yul\":389:405   */\n      swap1\n      pop\n        /* \"#utility.yul\":334:411   */\n      swap2\n      swap1\n      pop\n      jump\t// out\n        /* \"#utility.yul\":417:539   */\n    tag_25:\n        /* \"#utility.yul\":490:514   */\n      tag_38\n        /* \"#utility.yul\":508:513   */\n      dup2\n        /* \"#utility.yul\":490:514   */\n      tag_24\n      jump\t// in\n    tag_38:\n        /* \"#utility.yul\":483:488   */\n      dup2\n        /* \"#utility.yul\":480:515   */\n      eq\n        /* \"#utility.yul\":470:533   */\n      tag_39\n      jumpi\n        /* \"#utility.yul\":529:530   */\n      0x00\n        /* \"#utility.yul\":526:527   */\n      0x00\n        /* \"#utility.yul\":519:531   */\n      revert\n        /* \"#utility.yul\":470:533   */\n    tag_39:\n        /* \"#utility.yul\":417:539   */\n      pop\n      jump\t// out\n        /* \"#utility.yul\":545:684   */\n    tag_26:\n        /* \"#utility.yul\":591:596   */\n      0x00\n        /* \"#utility.yul\":629:635   */\n      dup2\n        /* \"#utility.yul\":616:636   */\n      calldataload\n        /* \"#utility.yul\":607:636   */\n      swap1\n      pop\n        /* \"#utility.yul\":645:678   */\n      tag_41\n        /* \"#utility.yul\":672:677   */\n      dup2\n        /* \"#utility.yul\":645:678   */\n      tag_25\n      jump\t// in\n    tag_41:\n        /* \"#utility.yul\":545:684   */\n      swap3\n      swap2\n      pop\n      pop\n      jump\t// out\n        /* \"#utility.yul\":690:1019   */\n    tag_6:\n        /* \"#utility.yul\":749:755   */\n      0x00\n        /* \"#utility.yul\":798:800   */\n      0x20\n        /* \"#utility.yul\":786:795   */\n      dup3\n        /* \"#utility.yul\":777:784   */\n      dup5\n        /* \"#utility.yul\":773:796   */\n      sub\n        /* \"#utility.yul\":769:801   */\n      slt\n        /* \"#utility.yul\":766:885   */\n      iszero\n      tag_43\n      jumpi\n        /* \"#utility.yul\":804:883   */\n      tag_44\n      tag_22\n      jump\t// in\n    tag_44:\n        /* \"#utility.yul\":766:885   */\n    tag_43:\n        /* \"#utility.yul\":924:925   */\n      0x00\n        /* \"#utility.yul\":949:1002   */\n      tag_45\n        /* \"#utility.yul\":994:1001   */\n      dup5\n        /* \"#utility.yul\":985:991   */\n      dup3\n        /* \"#utility.yul\":974:983   */\n      dup6\n        /* \"#utility.yul\":970:992   */\n      add\n        /* \"#utility.yul\":949:1002   */\n      tag_26\n      jump\t// in\n    tag_45:\n        /* \"#utility.yul\":939:1002   */\n      swap2\n      pop\n        /* \"#utility.yul\":895:1012   */\n      pop\n        /* \"#utility.yul\":690:1019   */\n      swap3\n      swap2\n      pop\n      pop\n      jump\t// out\n        /* \"#utility.yul\":1025:1133   */\n    tag_27:\n        /* \"#utility.yul\":1102:1126   */\n      tag_47\n        /* \"#utility.yul\":1120:1125   */\n      dup2\n        /* \"#utility.yul\":1102:1126   */\n      tag_24\n      jump\t// in\n    tag_47:\n        /* \"#utility.yul\":1097:1100   */\n      dup3\n        /* \"#utility.yul\":1090:1127   */\n      mstore\n        /* \"#utility.yul\":1025:1133   */\n      pop\n      pop\n      jump\t// out\n        /* \"#utility.yul\":1185:1693   */\n    tag_28:\n        /* \"#utility.yul\":1334:1338   */\n      0x40\n        /* \"#utility.yul\":1329:1332   */\n      dup3\n        /* \"#utility.yul\":1325:1339   */\n      add\n        /* \"#utility.yul\":1421:1425   */\n      0x00\n        /* \"#utility.yul\":1414:1419   */\n      dup3\n        /* \"#utility.yul\":1410:1426   */\n      add\n        /* \"#utility.yul\":1404:1427   */\n      mload\n        /* \"#utility.yul\":1440:1503   */\n      tag_49\n        /* \"#utility.yul\":1497:1501   */\n      0x00\n        /* \"#utility.yul\":1492:1495   */\n      dup6\n        /* \"#utility.yul\":1488:1502   */\n      add\n        /* \"#utility.yul\":1474:1486   */\n      dup3\n        /* \"#utility.yul\":1440:1503   */\n      tag_27\n      jump\t// in\n    tag_49:\n        /* \"#utility.yul\":1349:1513   */\n      pop\n        /* \"#utility.yul\":1594:1598   */\n      0x20\n        /* \"#utility.yul\":1587:1592   */\n      dup3\n        /* \"#utility.yul\":1583:1599   */\n      add\n        /* \"#utility.yul\":1577:1600   */\n      mload\n        /* \"#utility.yul\":1613:1676   */\n      tag_50\n        /* \"#utility.yul\":1670:1674   */\n      0x20\n        /* \"#utility.yul\":1665:1668   */\n      dup6\n        /* \"#utility.yul\":1661:1675   */\n      add\n        /* \"#utility.yul\":1647:1659   */\n      dup3\n        /* \"#utility.yul\":1613:1676   */\n      tag_27\n      jump\t// in\n    tag_50:\n        /* \"#utility.yul\":1523:1686   */\n      pop\n        /* \"#utility.yul\":1303:1693   */\n      pop\n        /* \"#utility.yul\":1185:1693   */\n      pop\n      pop\n      jump\t// out\n        /* \"#utility.yul\":1699:2025   */\n    tag_9:\n        /* \"#utility.yul\":1844:1848   */\n      0x00\n        /* \"#utility.yul\":1882:1884   */\n      0x40\n        /* \"#utility.yul\":1871:1880   */\n      dup3\n        /* \"#utility.yul\":1867:1885   */\n      add\n        /* \"#utility.yul\":1859:1885   */\n      swap1\n      pop\n        /* \"#utility.yul\":1895:2018   */\n      tag_52\n        /* \"#utility.yul\":2015:2016   */\n      0x00\n        /* \"#utility.yul\":2004:2013   */\n      dup4\n        /* \"#utility.yul\":2000:2017   */\n      add\n        /* \"#utility.yul\":1991:1997   */\n      dup5\n        /* \"#utility.yul\":1895:2018   */\n      tag_28\n      jump\t// in\n    tag_52:\n        /* \"#utility.yul\":1699:2025   */\n      swap3\n      swap2\n      pop\n      pop\n      jump\t// out\n        /* \"#utility.yul\":2031:2200   */\n    tag_29:\n        /* \"#utility.yul\":2115:2126   */\n      0x00\n        /* \"#utility.yul\":2149:2155   */\n      dup3\n        /* \"#utility.yul\":2144:2147   */\n      dup3\n        /* \"#utility.yul\":2137:2156   */\n      mstore\n        /* \"#utility.yul\":2189:2193   */\n      0x20\n        /* \"#utility.yul\":2184:2187   */\n      dup3\n        /* \"#utility.yul\":2180:2194   */\n      add\n        /* \"#utility.yul\":2165:2194   */\n      swap1\n      pop\n        /* \"#utility.yul\":2031:2200   */\n      swap3\n      swap2\n      pop\n      pop\n      jump\t// out\n        /* \"#utility.yul\":2206:2366   */\n    tag_30:\n        /* \"#utility.yul\":2346:2358   */\n      0x496e76616c696420696400000000000000000000000000000000000000000000\n        /* \"#utility.yul\":2342:2343   */\n      0x00\n        /* \"#utility.yul\":2334:2340   */\n      dup3\n        /* \"#utility.yul\":2330:2344   */\n      add\n        /* \"#utility.yul\":2323:2359   */\n      mstore\n        /* \"#utility.yul\":2206:2366   */\n      pop\n      jump\t// out\n        /* \"#utility.yul\":2372:2738   */\n    tag_31:\n        /* \"#utility.yul\":2514:2517   */\n      0x00\n        /* \"#utility.yul\":2535:2602   */\n      tag_56\n        /* \"#utility.yul\":2599:2601   */\n      0x0a\n        /* \"#utility.yul\":2594:2597   */\n      dup4\n        /* \"#utility.yul\":2535:2602   */\n      tag_29\n      jump\t// in\n    tag_56:\n        /* \"#utility.yul\":2528:2602   */\n      swap2\n      pop\n        /* \"#utility.yul\":2611:2704   */\n      tag_57\n        /* \"#utility.yul\":2700:2703   */\n      dup3\n        /* \"#utility.yul\":2611:2704   */\n      tag_30\n      jump\t// in\n    tag_57:\n        /* \"#utility.yul\":2729:2731   */\n      0x20\n        /* \"#utility.yul\":2724:2727   */\n      dup3\n        /* \"#utility.yul\":2720:2732   */\n      add\n        /* \"#utility.yul\":2713:2732   */\n      swap1\n      pop\n        /* \"#utility.yul\":2372:2738   */\n      swap2\n      swap1\n      pop\n      jump\t// out\n        /* \"#utility.yul\":2744:3163   */\n    tag_20:\n        /* \"#utility.yul\":2910:2914   */\n      0x00\n        /* \"#utility.yul\":2948:2950   */\n      0x20\n        /* \"#utility.yul\":2937:2946   */\n      dup3\n        /* \"#utility.yul\":2933:2951   */\n      add\n        /* \"#utility.yul\":2925:2951   */\n      swap1\n      pop\n        /* \"#utility.yul\":2997:3006   */\n      dup2\n        /* \"#utility.yul\":2991:2995   */\n      dup2\n        /* \"#utility.yul\":2987:3007   */\n      sub\n        /* \"#utility.yul\":2983:2984   */\n      0x00\n        /* \"#utility.yul\":2972:2981   */\n      dup4\n        /* \"#utility.yul\":2968:2985   */\n      add\n        /* \"#utility.yul\":2961:3008   */\n      mstore\n        /* \"#utility.yul\":3025:3156   */\n      tag_59\n        /* \"#utility.yul\":3151:3155   */\n      dup2\n        /* \"#utility.yul\":3025:3156   */\n      tag_31\n      jump\t// in\n    tag_59:\n        /* \"#utility.yul\":3017:3156   */\n      swap1\n      pop\n        /* \"#utility.yul\":2744:3163   */\n      swap2\n      swap1\n      pop\n      jump\t// out\n\n    auxdata: 0xa26469706673582212201e443168524e3104c3788cb7a3b285fd0aa4f3ed49c10b3224e16654eb9b531064736f6c634300081b0033\n}\n",
				"bytecode": {
					"linkReferences": {},
					"object": "6080604052348015600e575f5ffd5b5061028b8061001c5f395ff3fe608060405234801561000f575f5ffd5b5060043610610029575f3560e01c80633dc355fe1461002d575b5f5ffd5b6100476004803603810190610042919061015d565b61005d565b60405161005491906101c4565b60405180910390f35b61006561010e565b5f820361008657602a815f018181525050602d816020018181525050610109565b600182036100a8576016815f0181815250506017816020018181525050610108565b600282036100cc576101c8815f0181815250506101b8816020018181525050610107565b6040517f08c379a00000000000000000000000000000000000000000000000000000000081526004016100fe90610237565b60405180910390fd5b5b5b919050565b60405180604001604052805f81526020015f81525090565b5f5ffd5b5f819050919050565b61013c8161012a565b8114610146575f5ffd5b50565b5f8135905061015781610133565b92915050565b5f6020828403121561017257610171610126565b5b5f61017f84828501610149565b91505092915050565b6101918161012a565b82525050565b604082015f8201516101ab5f850182610188565b5060208201516101be6020850182610188565b50505050565b5f6040820190506101d75f830184610197565b92915050565b5f82825260208201905092915050565b7f496e76616c6964206964000000000000000000000000000000000000000000005f82015250565b5f610221600a836101dd565b915061022c826101ed565b602082019050919050565b5f6020820190508181035f83015261024e81610215565b905091905056fea26469706673582212201e443168524e3104c3788cb7a3b285fd0aa4f3ed49c10b3224e16654eb9b531064736f6c634300081b0033",
					"opcodes": "PUSH1 0x80 PUSH1 0x40 MSTORE CALLVALUE DUP1 ISZERO PUSH1 0xE JUMPI PUSH0 PUSH0 REVERT JUMPDEST POP PUSH2 0x28B DUP1 PUSH2 0x1C PUSH0 CODECOPY PUSH0 RETURN INVALID PUSH1 0x80 PUSH1 0x40 MSTORE CALLVALUE DUP1 ISZERO PUSH2 0xF JUMPI PUSH0 PUSH0 REVERT JUMPDEST POP PUSH1 0x4 CALLDATASIZE LT PUSH2 0x29 JUMPI PUSH0 CALLDATALOAD PUSH1 0xE0 SHR DUP1 PUSH4 0x3DC355FE EQ PUSH2 0x2D JUMPI JUMPDEST PUSH0 PUSH0 REVERT JUMPDEST PUSH2 0x47 PUSH1 0x4 DUP1 CALLDATASIZE SUB DUP2 ADD SWAP1 PUSH2 0x42 SWAP2 SWAP1 PUSH2 0x15D JUMP JUMPDEST PUSH2 0x5D JUMP JUMPDEST PUSH1 0x40 MLOAD PUSH2 0x54 SWAP2 SWAP1 PUSH2 0x1C4 JUMP JUMPDEST PUSH1 0x40 MLOAD DUP1 SWAP2 SUB SWAP1 RETURN JUMPDEST PUSH2 0x65 PUSH2 0x10E JUMP JUMPDEST PUSH0 DUP3 SUB PUSH2 0x86 JUMPI PUSH1 0x2A DUP2 PUSH0 ADD DUP2 DUP2 MSTORE POP POP PUSH1 0x2D DUP2 PUSH1 0x20 ADD DUP2 DUP2 MSTORE POP POP PUSH2 0x109 JUMP JUMPDEST PUSH1 0x1 DUP3 SUB PUSH2 0xA8 JUMPI PUSH1 0x16 DUP2 PUSH0 ADD DUP2 DUP2 MSTORE POP POP PUSH1 0x17 DUP2 PUSH1 0x20 ADD DUP2 DUP2 MSTORE POP POP PUSH2 0x108 JUMP JUMPDEST PUSH1 0x2 DUP3 SUB PUSH2 0xCC JUMPI PUSH2 0x1C8 DUP2 PUSH0 ADD DUP2 DUP2 MSTORE POP POP PUSH2 0x1B8 DUP2 PUSH1 0x20 ADD DUP2 DUP2 MSTORE POP POP PUSH2 0x107 JUMP JUMPDEST PUSH1 0x40 MLOAD PUSH32 0x8C379A000000000000000000000000000000000000000000000000000000000 DUP2 MSTORE PUSH1 0x4 ADD PUSH2 0xFE SWAP1 PUSH2 0x237 JUMP JUMPDEST PUSH1 0x40 MLOAD DUP1 SWAP2 SUB SWAP1 REVERT JUMPDEST JUMPDEST JUMPDEST SWAP2 SWAP1 POP JUMP JUMPDEST PUSH1 0x40 MLOAD DUP1 PUSH1 0x40 ADD PUSH1 0x40 MSTORE DUP1 PUSH0 DUP2 MSTORE PUSH1 0x20 ADD PUSH0 DUP2 MSTORE POP SWAP1 JUMP JUMPDEST PUSH0 PUSH0 REVERT JUMPDEST PUSH0 DUP2 SWAP1 POP SWAP2 SWAP1 POP JUMP JUMPDEST PUSH2 0x13C DUP2 PUSH2 0x12A JUMP JUMPDEST DUP2 EQ PUSH2 0x146 JUMPI PUSH0 PUSH0 REVERT JUMPDEST POP JUMP JUMPDEST PUSH0 DUP2 CALLDATALOAD SWAP1 POP PUSH2 0x157 DUP2 PUSH2 0x133 JUMP JUMPDEST SWAP3 SWAP2 POP POP JUMP JUMPDEST PUSH0 PUSH1 0x20 DUP3 DUP5 SUB SLT ISZERO PUSH2 0x172 JUMPI PUSH2 0x171 PUSH2 0x126 JUMP JUMPDEST JUMPDEST PUSH0 PUSH2 0x17F DUP5 DUP3 DUP6 ADD PUSH2 0x149 JUMP JUMPDEST SWAP2 POP POP SWAP3 SWAP2 POP POP JUMP JUMPDEST PUSH2 0x191 DUP2 PUSH2 0x12A JUMP JUMPDEST DUP3 MSTORE POP POP JUMP JUMPDEST PUSH1 0x40 DUP3 ADD PUSH0 DUP3 ADD MLOAD PUSH2 0x1AB PUSH0 DUP6 ADD DUP3 PUSH2 0x188 JUMP JUMPDEST POP PUSH1 0x20 DUP3 ADD MLOAD PUSH2 0x1BE PUSH1 0x20 DUP6 ADD DUP3 PUSH2 0x188 JUMP JUMPDEST POP POP POP POP JUMP JUMPDEST PUSH0 PUSH1 0x40 DUP3 ADD SWAP1 POP PUSH2 0x1D7 PUSH0 DUP4 ADD DUP5 PUSH2 0x197 JUMP JUMPDEST SWAP3 SWAP2 POP POP JUMP JUMPDEST PUSH0 DUP3 DUP3 MSTORE PUSH1 0x20 DUP3 ADD SWAP1 POP SWAP3 SWAP2 POP POP JUMP JUMPDEST PUSH32 0x496E76616C696420696400000000000000000000000000000000000000000000 PUSH0 DUP3 ADD MSTORE POP JUMP JUMPDEST PUSH0 PUSH2 0x221 PUSH1 0xA DUP4 PUSH2 0x1DD JUMP JUMPDEST SWAP2 POP PUSH2 0x22C DUP3 PUSH2 0x1ED JUMP JUMPDEST PUSH1 0x20 DUP3 ADD SWAP1 POP SWAP2 SWAP1 POP JUMP JUMPDEST PUSH0 PUSH1 0x20 DUP3 ADD SWAP1 POP DUP2 DUP2 SUB PUSH0 DUP4 ADD MSTORE PUSH2 0x24E DUP2 PUSH2 0x215 JUMP JUMPDEST SWAP1 POP SWAP2 SWAP1 POP JUMP INVALID LOG2 PUSH5 0x6970667358 0x22 SLT KECCAK256 0x1E PREVRANDAO BALANCE PUSH9 0x524E3104C3788CB7A3 0xB2 DUP6 REVERT EXP LOG4 RETURN 0xED BLOBHASH 0xC1 SIGNEXTEND ORIGIN 0x24 0xE1 PUSH7 0x54EB9B53106473 PUSH16 0x6C634300081B00330000000000000000 "
				},
				"gasEstimates": {
					"creation": {
						"codeDepositCost": "130200",
						"executionCost": "175",
						"totalCost": "130375"
					},
					"external": {
						"quoteMarket(uint256)": "infinite"
					}
				},
				"methodIdentifiers": {
					"quoteMarket(uint256)": "3dc355fe"
				}
			},
			"storageLayout": {
				"storage": [],
				"types": null
			},
			"userdoc": {
				"kind": "user",
				"methods": {},
				"version": 1
			}
		}
	}
}