{
	"contracts/PoolManager.sol": {
		"PoolManager": {
			"abi": [
				{
					"anonymous": false,
					"inputs": [
						{
							"indexed": true,
							"internalType": "address",
							"name": "owner",
							"type": "address"
						},
						{
							"indexed": true,
							"internalType": "address",
							"name": "spender",
							"type": "address"
						},
						{
							"indexed": true,
							"internalType": "uint256",
							"name": "id",
							"type": "uint256"
						},
						{
							"indexed": false,
							"internalType": "uint256",
							"name": "amount",
							"type": "uint256"
						}
					],
					"name": "Approval",
					"type": "event"
				},
				{
					"anonymous": false,
					"inputs": [
						{
							"indexed": true,
							"internalType": "address",
							"name": "owner",
							"type": "address"
						},
						{
							"indexed": true,
							"internalType": "address",
							"name": "operator",
							"type": "address"
						},
						{
							"indexed": false,
							"internalType": "bool",
							"name": "approved",
							"type": "bool"
						}
					],
					"name": "OperatorSet",
					"type": "event"
				},
				{
					"anonymous": false,
					"inputs": [
						{
							"indexed": false,
							"internalType": "address",
							"name": "caller",
							"type": "address"
						},
						{
							"indexed": true,
							"internalType": "address",
							"name": "from",
							"type": "address"
						},
						{
							"indexed": true,
							"internalType": "address",
							"name": "to",
							"type": "address"
						},
						{
							"indexed": true,
							"internalType": "uint256",
							"name": "id",
							"type": "uint256"
						},
						{
							"indexed": false,
							"internalType": "uint256",
							"name": "amount",
							"type": "uint256"
						}
					],
					"name": "Transfer",
					"type": "event"
				},
				{
					"inputs": [
						{
							"internalType": "address",
							"name": "owner",
							"type": "address"
						},
						{
							"internalType": "address",
							"name": "spender",
							"type": "address"
						},
						{
							"internalType": "uint256",
							"name": "id",
							"type": "uint256"
						}
					],
					"name": "allowance",
					"outputs": [
						{
							"internalType": "uint256",
							"name": "amount",
							"type": "uint256"
						}
					],
					"stateMutability": "view",
					"type": "function"
				},
				{
					"inputs": [
						{
							"internalType": "address",
							"name": "spender",
							"type": "address"
						},
						{
							"internalType": "uint256",
							"name": "id",
							"type": "uint256"
						},
						{
							"internalType": "uint256",
							"name": "amount",
							"type": "uint256"
						}
					],
					"name": "approve",
					"outputs": [
						{
							"internalType": "bool",
							"name": "",
							"type": "bool"
						}
					],
					"stateMutability": "nonpayable",
					"type": "function"
				},
				{
					"inputs": [
						{
							"internalType": "address",
							"name": "owner",
							"type": "address"
						},
						{
							"internalType": "uint256",
							"name": "id",
							"type": "uint256"
						}
					],
					"name": "balanceOf",
					"outputs": [
						{
							"internalType": "uint256",
							"name": "balance",
							"type": "uint256"
						}
					],
					"stateMutability": "view",
					"type": "function"
				},
				{
					"inputs": [],
					"name": "brothers",
					"outputs": [],
					"stateMutability": "nonpayable",
					"type": "function"
				},
				{
					"inputs": [
						{
							"internalType": "uint256",
							"name": "poolID",
							"type": "uint256"
						}
					],
					"name": "inventory",
					"outputs": [
						{
							"internalType": "uint128",
							"name": "inventory0",
							"type": "uint128"
						},
						{
							"internalType": "uint128",
							"name": "inventory1",
							"type": "uint128"
						}
					],
					"stateMutability": "view",
					"type": "function"
				},
				{
					"inputs": [
						{
							"internalType": "address",
							"name": "owner",
							"type": "address"
						},
						{
							"internalType": "address",
							"name": "operator",
							"type": "address"
						}
					],
					"name": "isOperator",
					"outputs": [
						{
							"internalType": "bool",
							"name": "isOperator",
							"type": "bool"
						}
					],
					"stateMutability": "view",
					"type": "function"
				},
				{
					"inputs": [
						{
							"components": [
								{
									"internalType": "uint80",
									"name": "currencyID",
									"type": "uint80"
								},
								{
									"internalType": "address",
									"name": "quoter",
									"type": "address"
								},
								{
									"internalType": "uint16",
									"name": "bucketID",
									"type": "uint16"
								},
								{
									"internalType": "uint256",
									"name": "amount",
									"type": "uint256"
								},
								{
									"internalType": "bool",
									"name": "zeroForOne",
									"type": "bool"
								}
							],
							"internalType": "struct SwapParams",
							"name": "params",
							"type": "tuple"
						}
					],
					"name": "quote",
					"outputs": [
						{
							"internalType": "uint256",
							"name": "",
							"type": "uint256"
						}
					],
					"stateMutability": "nonpayable",
					"type": "function"
				},
				{
					"inputs": [
						{
							"internalType": "address",
							"name": "operator",
							"type": "address"
						},
						{
							"internalType": "bool",
							"name": "approved",
							"type": "bool"
						}
					],
					"name": "setOperator",
					"outputs": [
						{
							"internalType": "bool",
							"name": "",
							"type": "bool"
						}
					],
					"stateMutability": "nonpayable",
					"type": "function"
				},
				{
					"inputs": [
						{
							"internalType": "bytes4",
							"name": "interfaceId",
							"type": "bytes4"
						}
					],
					"name": "supportsInterface",
					"outputs": [
						{
							"internalType": "bool",
							"name": "",
							"type": "bool"
						}
					],
					"stateMutability": "view",
					"type": "function"
				},
				{
					"inputs": [],
					"name": "swap",
					"outputs": [
						{
							"internalType": "bool",
							"name": "success",
							"type": "bool"
						}
					],
					"stateMutability": "nonpayable",
					"type": "function"
				},
				{
					"inputs": [
						{
							"internalType": "address",
							"name": "receiver",
							"type": "address"
						},
						{
							"internalType": "uint256",
							"name": "id",
							"type": "uint256"
						},
						{
							"internalType": "uint256",
							"name": "amount",
							"type": "uint256"
						}
					],
					"name": "transfer",
					"outputs": [
						{
							"internalType": "bool",
							"name": "",
							"type": "bool"
						}
					],
					"stateMutability": "nonpayable",
					"type": "function"
				},
				{
					"inputs": [
						{
							"internalType": "address",
							"name": "sender",
							"type": "address"
						},
						{
							"internalType": "address",
							"name": "receiver",
							"type": "address"
						},
						{
							"internalType": "uint256",
							"name": "id",
							"type": "uint256"
						},
						{
							"internalType": "uint256",
							"name": "amount",
							"type": "uint256"
						}
					],
					"name": "transferFrom",
					"outputs": [
						{
							"internalType": "bool",
							"name": "",
							"type": "bool"
						}
					],
					"stateMutability": "nonpayable",
					"type": "function"
				}
			],
			"devdoc": {
				"kind": "dev",
				"methods": {
					"approve(address,uint256,uint256)": {
						"params": {
							"amount": "The amount of the token.",
							"id": "The id of the token.",
							"spender": "The address of the spender."
						},
						"returns": {
							"_0": "bool True, always"
						}
					},
					"setOperator(address,bool)": {
						"params": {
							"approved": "The approval status.",
							"operator": "The address of the operator."
						},
						"returns": {
							"_0": "bool True, always"
						}
					},
					"transfer(address,uint256,uint256)": {
						"params": {
							"amount": "The amount of the token.",
							"id": "The id of the token.",
							"receiver": "The address of the receiver."
						},
						"returns": {
							"_0": "bool True, always, unless the function reverts"
						}
					},
					"transferFrom(address,address,uint256,uint256)": {
						"params": {
							"amount": "The amount of the token.",
							"id": "The id of the token.",
							"receiver": "The address of the receiver.",
							"sender": "The address of the sender."
						},
						"returns": {
							"_0": "bool True, always, unless the function reverts"
						}
					}
				},
				"version": 1
			},
			"evm": {
				"assembly": "    /* \"contracts/PoolManager.sol\":548:1730  contract PoolManager is ERC6909Claims { ... */\n  mstore(0x40, 0x80)\n  callvalue\n  dup1\n  iszero\n  tag_1\n  jumpi\n  revert(0x00, 0x00)\ntag_1:\n  pop\n  dataSize(sub_0)\n  dup1\n  dataOffset(sub_0)\n  0x00\n  codecopy\n  0x00\n  return\nstop\n\nsub_0: assembly {\n        /* \"contracts/PoolManager.sol\":548:1730  contract PoolManager is ERC6909Claims { ... */\n      mstore(0x40, 0x80)\n      callvalue\n      dup1\n      iszero\n      tag_1\n      jumpi\n      revert(0x00, 0x00)\n    tag_1:\n      pop\n      jumpi(tag_2, lt(calldatasize, 0x04))\n      shr(0xe0, calldataload(0x00))\n      dup1\n      0x598af9e7\n      gt\n      tag_15\n      jumpi\n      dup1\n      0x598af9e7\n      eq\n      tag_9\n      jumpi\n      dup1\n      0x5d28a34c\n      eq\n      tag_10\n      jumpi\n      dup1\n      0x8119c065\n      eq\n      tag_11\n      jumpi\n      dup1\n      0xb6363cf2\n      eq\n      tag_12\n      jumpi\n      dup1\n      0xfe99049a\n      eq\n      tag_13\n      jumpi\n      dup1\n      0xff76c2b4\n      eq\n      tag_14\n      jumpi\n      jump(tag_2)\n    tag_15:\n      dup1\n      0xfdd58e\n      eq\n      tag_3\n      jumpi\n      dup1\n      0x01ffc9a7\n      eq\n      tag_4\n      jumpi\n      dup1\n      0x095bcdb6\n      eq\n      tag_5\n      jumpi\n      dup1\n      0x426a8493\n      eq\n      tag_6\n      jumpi\n      dup1\n      0x4272ee18\n      eq\n      tag_7\n      jumpi\n      dup1\n      0x558a7297\n      eq\n      tag_8\n      jumpi\n    tag_2:\n      revert(0x00, 0x00)\n        /* \"contracts/ERC6909.sol\":704:785  mapping(address owner => mapping(uint256 id => uint256 balance)) public balanceOf */\n    tag_3:\n      tag_16\n      0x04\n      dup1\n      calldatasize\n      sub\n      dup2\n      add\n      swap1\n      tag_17\n      swap2\n      swap1\n      tag_18\n      jump\t// in\n    tag_17:\n      tag_19\n      jump\t// in\n    tag_16:\n      mload(0x40)\n      tag_20\n      swap2\n      swap1\n      tag_21\n      jump\t// in\n    tag_20:\n      mload(0x40)\n      dup1\n      swap2\n      sub\n      swap1\n      return\n        /* \"contracts/ERC6909.sol\":2575:2816  function supportsInterface(bytes4 interfaceId) public view virtual returns (bool) {... */\n    tag_4:\n      tag_22\n      0x04\n      dup1\n      calldatasize\n      sub\n      dup2\n      add\n      swap1\n      tag_23\n      swap2\n      swap1\n      tag_24\n      jump\t// in\n    tag_23:\n      tag_25\n      jump\t// in\n    tag_22:\n      mload(0x40)\n      tag_26\n      swap2\n      swap1\n      tag_27\n      jump\t// in\n    tag_26:\n      mload(0x40)\n      dup1\n      swap2\n      sub\n      swap1\n      return\n        /* \"contracts/ERC6909.sol\":1090:1372  function transfer(address receiver, uint256 id, uint256 amount) public virtual returns (bool) {... */\n    tag_5:\n      tag_28\n      0x04\n      dup1\n      calldatasize\n      sub\n      dup2\n      add\n      swap1\n      tag_29\n      swap2\n      swap1\n      tag_30\n      jump\t// in\n    tag_29:\n      tag_31\n      jump\t// in\n    tag_28:\n      mload(0x40)\n      tag_32\n      swap2\n      swap1\n      tag_27\n      jump\t// in\n    tag_32:\n      mload(0x40)\n      dup1\n      swap2\n      sub\n      swap1\n      return\n        /* \"contracts/ERC6909.sol\":1925:2156  function approve(address spender, uint256 id, uint256 amount) public virtual returns (bool) {... */\n    tag_6:\n      tag_33\n      0x04\n      dup1\n      calldatasize\n      sub\n      dup2\n      add\n      swap1\n      tag_34\n      swap2\n      swap1\n      tag_30\n      jump\t// in\n    tag_34:\n      tag_35\n      jump\t// in\n    tag_33:\n      mload(0x40)\n      tag_36\n      swap2\n      swap1\n      tag_27\n      jump\t// in\n    tag_36:\n      mload(0x40)\n      dup1\n      swap2\n      sub\n      swap1\n      return\n        /* \"contracts/PoolManager.sol\":1542:1726  function inventory(uint256 poolID) public view returns (uint128 inventory0, uint128 inventory1) {... */\n    tag_7:\n      tag_37\n      0x04\n      dup1\n      calldatasize\n      sub\n      dup2\n      add\n      swap1\n      tag_38\n      swap2\n      swap1\n      tag_39\n      jump\t// in\n    tag_38:\n      tag_40\n      jump\t// in\n    tag_37:\n      mload(0x40)\n      tag_41\n      swap3\n      swap2\n      swap1\n      tag_42\n      jump\t// in\n    tag_41:\n      mload(0x40)\n      dup1\n      swap2\n      sub\n      swap1\n      return\n        /* \"contracts/ERC6909.sol\":2162:2387  function setOperator(address operator, bool approved) public virtual returns (bool) {... */\n    tag_8:\n      tag_43\n      0x04\n      dup1\n      calldatasize\n      sub\n      dup2\n      add\n      swap1\n      tag_44\n      swap2\n      swap1\n      tag_45\n      jump\t// in\n    tag_44:\n      tag_46\n      jump\t// in\n    tag_43:\n      mload(0x40)\n      tag_47\n      swap2\n      swap1\n      tag_27\n      jump\t// in\n    tag_47:\n      mload(0x40)\n      dup1\n      swap2\n      sub\n      swap1\n      return\n        /* \"contracts/ERC6909.sol\":792:900  mapping(address owner => mapping(address spender => mapping(uint256 id => uint256 amount))) public allowance */\n    tag_9:\n      tag_48\n      0x04\n      dup1\n      calldatasize\n      sub\n      dup2\n      add\n      swap1\n      tag_49\n      swap2\n      swap1\n      tag_50\n      jump\t// in\n    tag_49:\n      tag_51\n      jump\t// in\n    tag_48:\n      mload(0x40)\n      tag_52\n      swap2\n      swap1\n      tag_21\n      jump\t// in\n    tag_52:\n      mload(0x40)\n      dup1\n      swap2\n      sub\n      swap1\n      return\n        /* \"contracts/PoolManager.sol\":801:1531  function quote(SwapParams calldata params) public returns (uint256) {... */\n    tag_10:\n      tag_53\n      0x04\n      dup1\n      calldatasize\n      sub\n      dup2\n      add\n      swap1\n      tag_54\n      swap2\n      swap1\n      tag_55\n      jump\t// in\n    tag_54:\n      tag_56\n      jump\t// in\n    tag_53:\n      mload(0x40)\n      tag_57\n      swap2\n      swap1\n      tag_21\n      jump\t// in\n    tag_57:\n      mload(0x40)\n      dup1\n      swap2\n      sub\n      swap1\n      return\n        /* \"contracts/PoolManager.sol\":676:730  function swap() public returns (bool success) {... */\n    tag_11:\n      tag_58\n      tag_59\n      jump\t// in\n    tag_58:\n      mload(0x40)\n      tag_60\n      swap2\n      swap1\n      tag_27\n      jump\t// in\n    tag_60:\n      mload(0x40)\n      dup1\n      swap2\n      sub\n      swap1\n      return\n        /* \"contracts/ERC6909.sol\":609:697  mapping(address owner => mapping(address operator => bool isOperator)) public isOperator */\n    tag_12:\n      tag_61\n      0x04\n      dup1\n      calldatasize\n      sub\n      dup2\n      add\n      swap1\n      tag_62\n      swap2\n      swap1\n      tag_63\n      jump\t// in\n    tag_62:\n      tag_64\n      jump\t// in\n    tag_61:\n      mload(0x40)\n      tag_65\n      swap2\n      swap1\n      tag_27\n      jump\t// in\n    tag_65:\n      mload(0x40)\n      dup1\n      swap2\n      sub\n      swap1\n      return\n        /* \"contracts/ERC6909.sol\":1378:1919  function transferFrom(address sender, address receiver, uint256 id, uint256 amount) public virtual returns (bool) {... */\n    tag_13:\n      tag_66\n      0x04\n      dup1\n      calldatasize\n      sub\n      dup2\n      add\n      swap1\n      tag_67\n      swap2\n      swap1\n      tag_68\n      jump\t// in\n    tag_67:\n      tag_69\n      jump\t// in\n    tag_66:\n      mload(0x40)\n      tag_70\n      swap2\n      swap1\n      tag_27\n      jump\t// in\n    tag_70:\n      mload(0x40)\n      dup1\n      swap2\n      sub\n      swap1\n      return\n        /* \"contracts/PoolManager.sol\":627:670  function brothers() public {... */\n    tag_14:\n      tag_71\n      tag_72\n      jump\t// in\n    tag_71:\n      stop\n        /* \"contracts/ERC6909.sol\":704:785  mapping(address owner => mapping(uint256 id => uint256 balance)) public balanceOf */\n    tag_19:\n      mstore(0x20, 0x01)\n      dup2\n      0x00\n      mstore\n      mstore(0x20, keccak256(0x00, 0x40))\n      dup1\n      0x00\n      mstore\n      keccak256(0x00, 0x40)\n      0x00\n      swap2\n      pop\n      swap2\n      pop\n      pop\n      sload\n      dup2\n      jump\t// out\n        /* \"contracts/ERC6909.sol\":2575:2816  function supportsInterface(bytes4 interfaceId) public view virtual returns (bool) {... */\n    tag_25:\n        /* \"contracts/ERC6909.sol\":2651:2655  bool */\n      0x00\n        /* \"contracts/ERC6909.sol\":2689:2699  0x01ffc9a7 */\n      0x01ffc9a7\n        /* \"contracts/ERC6909.sol\":2674:2699  interfaceId == 0x01ffc9a7 */\n      0xe0\n      shl\n        /* \"contracts/ERC6909.sol\":2674:2685  interfaceId */\n      dup3\n        /* \"contracts/ERC6909.sol\":2674:2699  interfaceId == 0x01ffc9a7 */\n      not(0xffffffffffffffffffffffffffffffffffffffffffffffffffffffff)\n      and\n      eq\n        /* \"contracts/ERC6909.sol\":2674:2774  interfaceId == 0x01ffc9a7 // ERC165 Interface ID for ERC165... */\n      dup1\n      tag_74\n      jumpi\n      pop\n        /* \"contracts/ERC6909.sol\":2764:2774  0x0f632fb3 */\n      0x0f632fb3\n        /* \"contracts/ERC6909.sol\":2749:2774  interfaceId == 0x0f632fb3 */\n      0xe0\n      shl\n        /* \"contracts/ERC6909.sol\":2749:2760  interfaceId */\n      dup3\n        /* \"contracts/ERC6909.sol\":2749:2774  interfaceId == 0x0f632fb3 */\n      not(0xffffffffffffffffffffffffffffffffffffffffffffffffffffffff)\n      and\n      eq\n        /* \"contracts/ERC6909.sol\":2674:2774  interfaceId == 0x01ffc9a7 // ERC165 Interface ID for ERC165... */\n    tag_74:\n        /* \"contracts/ERC6909.sol\":2667:2774  return interfaceId == 0x01ffc9a7 // ERC165 Interface ID for ERC165... */\n      swap1\n      pop\n        /* \"contracts/ERC6909.sol\":2575:2816  function supportsInterface(bytes4 interfaceId) public view virtual returns (bool) {... */\n      swap2\n      swap1\n      pop\n      jump\t// out\n        /* \"contracts/ERC6909.sol\":1090:1372  function transfer(address receiver, uint256 id, uint256 amount) public virtual returns (bool) {... */\n    tag_31:\n        /* \"contracts/ERC6909.sol\":1178:1182  bool */\n      0x00\n        /* \"contracts/ERC6909.sol\":1223:1229  amount */\n      dup2\n        /* \"contracts/ERC6909.sol\":1194:1203  balanceOf */\n      0x01\n        /* \"contracts/ERC6909.sol\":1194:1215  balanceOf[msg.sender] */\n      0x00\n        /* \"contracts/ERC6909.sol\":1204:1214  msg.sender */\n      caller\n        /* \"contracts/ERC6909.sol\":1194:1215  balanceOf[msg.sender] */\n      0xffffffffffffffffffffffffffffffffffffffff\n      and\n      0xffffffffffffffffffffffffffffffffffffffff\n      and\n      dup2\n      mstore\n      0x20\n      add\n      swap1\n      dup2\n      mstore\n      0x20\n      add\n      0x00\n      keccak256\n        /* \"contracts/ERC6909.sol\":1194:1219  balanceOf[msg.sender][id] */\n      0x00\n        /* \"contracts/ERC6909.sol\":1216:1218  id */\n      dup6\n        /* \"contracts/ERC6909.sol\":1194:1219  balanceOf[msg.sender][id] */\n      dup2\n      mstore\n      0x20\n      add\n      swap1\n      dup2\n      mstore\n      0x20\n      add\n      0x00\n      keccak256\n      0x00\n        /* \"contracts/ERC6909.sol\":1194:1229  balanceOf[msg.sender][id] -= amount */\n      dup3\n      dup3\n      sload\n      tag_76\n      swap2\n      swap1\n      tag_77\n      jump\t// in\n    tag_76:\n      swap3\n      pop\n      pop\n      dup2\n      swap1\n      sstore\n      pop\n        /* \"contracts/ERC6909.sol\":1267:1273  amount */\n      dup2\n        /* \"contracts/ERC6909.sol\":1240:1249  balanceOf */\n      0x01\n        /* \"contracts/ERC6909.sol\":1240:1259  balanceOf[receiver] */\n      0x00\n        /* \"contracts/ERC6909.sol\":1250:1258  receiver */\n      dup7\n        /* \"contracts/ERC6909.sol\":1240:1259  balanceOf[receiver] */\n      0xffffffffffffffffffffffffffffffffffffffff\n      and\n      0xffffffffffffffffffffffffffffffffffffffff\n      and\n      dup2\n      mstore\n      0x20\n      add\n      swap1\n      dup2\n      mstore\n      0x20\n      add\n      0x00\n      keccak256\n        /* \"contracts/ERC6909.sol\":1240:1263  balanceOf[receiver][id] */\n      0x00\n        /* \"contracts/ERC6909.sol\":1260:1262  id */\n      dup6\n        /* \"contracts/ERC6909.sol\":1240:1263  balanceOf[receiver][id] */\n      dup2\n      mstore\n      0x20\n      add\n      swap1\n      dup2\n      mstore\n      0x20\n      add\n      0x00\n      keccak256\n      0x00\n        /* \"contracts/ERC6909.sol\":1240:1273  balanceOf[receiver][id] += amount */\n      dup3\n      dup3\n      sload\n      tag_78\n      swap2\n      swap1\n      tag_79\n      jump\t// in\n    tag_78:\n      swap3\n      pop\n      pop\n      dup2\n      swap1\n      sstore\n      pop\n        /* \"contracts/ERC6909.sol\":1332:1334  id */\n      dup3\n        /* \"contracts/ERC6909.sol\":1322:1330  receiver */\n      dup5\n        /* \"contracts/ERC6909.sol\":1289:1343  Transfer(msg.sender, msg.sender, receiver, id, amount) */\n      0xffffffffffffffffffffffffffffffffffffffff\n      and\n        /* \"contracts/ERC6909.sol\":1310:1320  msg.sender */\n      caller\n        /* \"contracts/ERC6909.sol\":1289:1343  Transfer(msg.sender, msg.sender, receiver, id, amount) */\n      0xffffffffffffffffffffffffffffffffffffffff\n      and\n      0x1b3d7edb2e9c0b0e7c525b20aaaef0f5940d2ed71663c7d39266ecafac728859\n        /* \"contracts/ERC6909.sol\":1298:1308  msg.sender */\n      caller\n        /* \"contracts/ERC6909.sol\":1336:1342  amount */\n      dup7\n        /* \"contracts/ERC6909.sol\":1289:1343  Transfer(msg.sender, msg.sender, receiver, id, amount) */\n      mload(0x40)\n      tag_80\n      swap3\n      swap2\n      swap1\n      tag_81\n      jump\t// in\n    tag_80:\n      mload(0x40)\n      dup1\n      swap2\n      sub\n      swap1\n      log4\n        /* \"contracts/ERC6909.sol\":1361:1365  true */\n      0x01\n        /* \"contracts/ERC6909.sol\":1354:1365  return true */\n      swap1\n      pop\n        /* \"contracts/ERC6909.sol\":1090:1372  function transfer(address receiver, uint256 id, uint256 amount) public virtual returns (bool) {... */\n      swap4\n      swap3\n      pop\n      pop\n      pop\n      jump\t// out\n        /* \"contracts/ERC6909.sol\":1925:2156  function approve(address spender, uint256 id, uint256 amount) public virtual returns (bool) {... */\n    tag_35:\n        /* \"contracts/ERC6909.sol\":2011:2015  bool */\n      0x00\n        /* \"contracts/ERC6909.sol\":2064:2070  amount */\n      dup2\n        /* \"contracts/ERC6909.sol\":2027:2036  allowance */\n      0x02\n        /* \"contracts/ERC6909.sol\":2027:2048  allowance[msg.sender] */\n      0x00\n        /* \"contracts/ERC6909.sol\":2037:2047  msg.sender */\n      caller\n        /* \"contracts/ERC6909.sol\":2027:2048  allowance[msg.sender] */\n      0xffffffffffffffffffffffffffffffffffffffff\n      and\n      0xffffffffffffffffffffffffffffffffffffffff\n      and\n      dup2\n      mstore\n      0x20\n      add\n      swap1\n      dup2\n      mstore\n      0x20\n      add\n      0x00\n      keccak256\n        /* \"contracts/ERC6909.sol\":2027:2057  allowance[msg.sender][spender] */\n      0x00\n        /* \"contracts/ERC6909.sol\":2049:2056  spender */\n      dup7\n        /* \"contracts/ERC6909.sol\":2027:2057  allowance[msg.sender][spender] */\n      0xffffffffffffffffffffffffffffffffffffffff\n      and\n      0xffffffffffffffffffffffffffffffffffffffff\n      and\n      dup2\n      mstore\n      0x20\n      add\n      swap1\n      dup2\n      mstore\n      0x20\n      add\n      0x00\n      keccak256\n        /* \"contracts/ERC6909.sol\":2027:2061  allowance[msg.sender][spender][id] */\n      0x00\n        /* \"contracts/ERC6909.sol\":2058:2060  id */\n      dup6\n        /* \"contracts/ERC6909.sol\":2027:2061  allowance[msg.sender][spender][id] */\n      dup2\n      mstore\n      0x20\n      add\n      swap1\n      dup2\n      mstore\n      0x20\n      add\n      0x00\n      keccak256\n        /* \"contracts/ERC6909.sol\":2027:2070  allowance[msg.sender][spender][id] = amount */\n      dup2\n      swap1\n      sstore\n      pop\n        /* \"contracts/ERC6909.sol\":2116:2118  id */\n      dup3\n        /* \"contracts/ERC6909.sol\":2107:2114  spender */\n      dup5\n        /* \"contracts/ERC6909.sol\":2086:2127  Approval(msg.sender, spender, id, amount) */\n      0xffffffffffffffffffffffffffffffffffffffff\n      and\n        /* \"contracts/ERC6909.sol\":2095:2105  msg.sender */\n      caller\n        /* \"contracts/ERC6909.sol\":2086:2127  Approval(msg.sender, spender, id, amount) */\n      0xffffffffffffffffffffffffffffffffffffffff\n      and\n      0xb3fd5071835887567a0671151121894ddccc2842f1d10bedad13e0d17cace9a7\n        /* \"contracts/ERC6909.sol\":2120:2126  amount */\n      dup6\n        /* \"contracts/ERC6909.sol\":2086:2127  Approval(msg.sender, spender, id, amount) */\n      mload(0x40)\n      tag_83\n      swap2\n      swap1\n      tag_21\n      jump\t// in\n    tag_83:\n      mload(0x40)\n      dup1\n      swap2\n      sub\n      swap1\n      log4\n        /* \"contracts/ERC6909.sol\":2145:2149  true */\n      0x01\n        /* \"contracts/ERC6909.sol\":2138:2149  return true */\n      swap1\n      pop\n        /* \"contracts/ERC6909.sol\":1925:2156  function approve(address spender, uint256 id, uint256 amount) public virtual returns (bool) {... */\n      swap4\n      swap3\n      pop\n      pop\n      pop\n      jump\t// out\n        /* \"contracts/PoolManager.sol\":1542:1726  function inventory(uint256 poolID) public view returns (uint128 inventory0, uint128 inventory1) {... */\n    tag_40:\n        /* \"contracts/PoolManager.sol\":1598:1616  uint128 inventory0 */\n      0x00\n        /* \"contracts/PoolManager.sol\":1618:1636  uint128 inventory1 */\n      0x00\n        /* \"contracts/PoolManager.sol\":1688:1691  250 */\n      0xfa\n        /* \"contracts/PoolManager.sol\":1675:1691  inventory0 = 250 */\n      swap2\n      pop\n        /* \"contracts/PoolManager.sol\":1715:1719  1246 */\n      0x04de\n        /* \"contracts/PoolManager.sol\":1702:1719  inventory1 = 1246 */\n      swap1\n      pop\n        /* \"contracts/PoolManager.sol\":1542:1726  function inventory(uint256 poolID) public view returns (uint128 inventory0, uint128 inventory1) {... */\n      swap2\n      pop\n      swap2\n      jump\t// out\n        /* \"contracts/ERC6909.sol\":2162:2387  function setOperator(address operator, bool approved) public virtual returns (bool) {... */\n    tag_46:\n        /* \"contracts/ERC6909.sol\":2240:2244  bool */\n      0x00\n        /* \"contracts/ERC6909.sol\":2291:2299  approved */\n      dup2\n        /* \"contracts/ERC6909.sol\":2256:2266  isOperator */\n      0x00\n        /* \"contracts/ERC6909.sol\":2256:2278  isOperator[msg.sender] */\n      0x00\n        /* \"contracts/ERC6909.sol\":2267:2277  msg.sender */\n      caller\n        /* \"contracts/ERC6909.sol\":2256:2278  isOperator[msg.sender] */\n      0xffffffffffffffffffffffffffffffffffffffff\n      and\n      0xffffffffffffffffffffffffffffffffffffffff\n      and\n      dup2\n      mstore\n      0x20\n      add\n      swap1\n      dup2\n      mstore\n      0x20\n      add\n      0x00\n      keccak256\n        /* \"contracts/ERC6909.sol\":2256:2288  isOperator[msg.sender][operator] */\n      0x00\n        /* \"contracts/ERC6909.sol\":2279:2287  operator */\n      dup6\n        /* \"contracts/ERC6909.sol\":2256:2288  isOperator[msg.sender][operator] */\n      0xffffffffffffffffffffffffffffffffffffffff\n      and\n      0xffffffffffffffffffffffffffffffffffffffff\n      and\n      dup2\n      mstore\n      0x20\n      add\n      swap1\n      dup2\n      mstore\n      0x20\n      add\n      0x00\n      keccak256\n      0x00\n        /* \"contracts/ERC6909.sol\":2256:2299  isOperator[msg.sender][operator] = approved */\n      0x0100\n      exp\n      dup2\n      sload\n      dup2\n      0xff\n      mul\n      not\n      and\n      swap1\n      dup4\n      iszero\n      iszero\n      mul\n      or\n      swap1\n      sstore\n      pop\n        /* \"contracts/ERC6909.sol\":2339:2347  operator */\n      dup3\n        /* \"contracts/ERC6909.sol\":2315:2358  OperatorSet(msg.sender, operator, approved) */\n      0xffffffffffffffffffffffffffffffffffffffff\n      and\n        /* \"contracts/ERC6909.sol\":2327:2337  msg.sender */\n      caller\n        /* \"contracts/ERC6909.sol\":2315:2358  OperatorSet(msg.sender, operator, approved) */\n      0xffffffffffffffffffffffffffffffffffffffff\n      and\n      0xceb576d9f15e4e200fdb5096d64d5dfd667e16def20c1eefd14256d8e3faa267\n        /* \"contracts/ERC6909.sol\":2349:2357  approved */\n      dup5\n        /* \"contracts/ERC6909.sol\":2315:2358  OperatorSet(msg.sender, operator, approved) */\n      mload(0x40)\n      tag_86\n      swap2\n      swap1\n      tag_27\n      jump\t// in\n    tag_86:\n      mload(0x40)\n      dup1\n      swap2\n      sub\n      swap1\n      log3\n        /* \"contracts/ERC6909.sol\":2376:2380  true */\n      0x01\n        /* \"contracts/ERC6909.sol\":2369:2380  return true */\n      swap1\n      pop\n        /* \"contracts/ERC6909.sol\":2162:2387  function setOperator(address operator, bool approved) public virtual returns (bool) {... */\n      swap3\n      swap2\n      pop\n      pop\n      jump\t// out\n        /* \"contracts/ERC6909.sol\":792:900  mapping(address owner => mapping(address spender => mapping(uint256 id => uint256 amount))) public allowance */\n    tag_51:\n      mstore(0x20, 0x02)\n      dup3\n      0x00\n      mstore\n      mstore(0x20, keccak256(0x00, 0x40))\n      dup2\n      0x00\n      mstore\n      mstore(0x20, keccak256(0x00, 0x40))\n      dup1\n      0x00\n      mstore\n      keccak256(0x00, 0x40)\n      0x00\n      swap3\n      pop\n      swap3\n      pop\n      pop\n      pop\n      sload\n      dup2\n      jump\t// out\n        /* \"contracts/PoolManager.sol\":801:1531  function quote(SwapParams calldata params) public returns (uint256) {... */\n    tag_56:\n        /* \"contracts/PoolManager.sol\":860:867  uint256 */\n      0x00\n        /* \"contracts/PoolManager.sol\":879:893  uint256 poolID */\n      0x00\n        /* \"contracts/PoolManager.sol\":896:966  PoolIDHelper.poolID(params.quoter, params.bucketID, params.currencyID) */\n      tag_88\n        /* \"contracts/PoolManager.sol\":916:922  params */\n      dup4\n        /* \"contracts/PoolManager.sol\":916:929  params.quoter */\n      0x20\n      add\n      0x20\n      dup2\n      add\n      swap1\n      tag_89\n      swap2\n      swap1\n      tag_90\n      jump\t// in\n    tag_89:\n        /* \"contracts/PoolManager.sol\":931:937  params */\n      dup5\n        /* \"contracts/PoolManager.sol\":931:946  params.bucketID */\n      0x40\n      add\n      0x20\n      dup2\n      add\n      swap1\n      tag_91\n      swap2\n      swap1\n      tag_92\n      jump\t// in\n    tag_91:\n        /* \"contracts/PoolManager.sol\":948:954  params */\n      dup6\n        /* \"contracts/PoolManager.sol\":948:965  params.currencyID */\n      0x00\n      add\n      0x20\n      dup2\n      add\n      swap1\n      tag_93\n      swap2\n      swap1\n      tag_94\n      jump\t// in\n    tag_93:\n        /* \"contracts/PoolManager.sol\":896:915  PoolIDHelper.poolID */\n      tag_95\n        /* \"contracts/PoolManager.sol\":896:966  PoolIDHelper.poolID(params.quoter, params.bucketID, params.currencyID) */\n      jump\t// in\n    tag_88:\n        /* \"contracts/PoolManager.sol\":879:966  uint256 poolID = PoolIDHelper.poolID(params.quoter, params.bucketID, params.currencyID) */\n      swap1\n      pop\n        /* \"contracts/PoolManager.sol\":976:1004  MarketData memory marketData */\n      0x00\n        /* \"contracts/PoolManager.sol\":1025:1031  params */\n      dup4\n        /* \"contracts/PoolManager.sol\":1025:1038  params.quoter */\n      0x20\n      add\n      0x20\n      dup2\n      add\n      swap1\n      tag_96\n      swap2\n      swap1\n      tag_90\n      jump\t// in\n    tag_96:\n        /* \"contracts/PoolManager.sol\":1007:1051  IMarketDataQuoter(params.quoter).quoteMarket */\n      0xffffffffffffffffffffffffffffffffffffffff\n      and\n      0x3dc355fe\n        /* \"contracts/PoolManager.sol\":1052:1058  params */\n      dup6\n        /* \"contracts/PoolManager.sol\":1052:1069  params.currencyID */\n      0x00\n      add\n      0x20\n      dup2\n      add\n      swap1\n      tag_97\n      swap2\n      swap1\n      tag_94\n      jump\t// in\n    tag_97:\n        /* \"contracts/PoolManager.sol\":1007:1070  IMarketDataQuoter(params.quoter).quoteMarket(params.currencyID) */\n      mload(0x40)\n      dup3\n      0xffffffff\n      and\n      0xe0\n      shl\n      dup2\n      mstore\n      0x04\n      add\n      tag_98\n      swap2\n      swap1\n      tag_99\n      jump\t// in\n    tag_98:\n      0x40\n      dup1\n      mload\n      dup1\n      dup4\n      sub\n      dup2\n      0x00\n      dup8\n      gas\n      call\n      iszero\n      dup1\n      iszero\n      tag_101\n      jumpi\n      returndatacopy(0x00, 0x00, returndatasize)\n      revert(0x00, returndatasize)\n    tag_101:\n      pop\n      pop\n      pop\n      pop\n      mload(0x40)\n      returndatasize\n      not(0x1f)\n      0x1f\n      dup3\n      add\n      and\n      dup3\n      add\n      dup1\n      0x40\n      mstore\n      pop\n      dup2\n      add\n      swap1\n      tag_102\n      swap2\n      swap1\n      tag_103\n      jump\t// in\n    tag_102:\n        /* \"contracts/PoolManager.sol\":976:1070  MarketData memory marketData = IMarketDataQuoter(params.quoter).quoteMarket(params.currencyID) */\n      swap1\n      pop\n        /* \"contracts/PoolManager.sol\":1081:1099  uint128 inventory0 */\n      0x00\n        /* \"contracts/PoolManager.sol\":1101:1119  uint128 inventory1 */\n      0x00\n        /* \"contracts/PoolManager.sol\":1123:1140  inventory(poolID) */\n      tag_104\n        /* \"contracts/PoolManager.sol\":1133:1139  poolID */\n      dup5\n        /* \"contracts/PoolManager.sol\":1123:1132  inventory */\n      tag_40\n        /* \"contracts/PoolManager.sol\":1123:1140  inventory(poolID) */\n      jump\t// in\n    tag_104:\n        /* \"contracts/PoolManager.sol\":1080:1140  (uint128 inventory0, uint128 inventory1) = inventory(poolID) */\n      swap2\n      pop\n      swap2\n      pop\n        /* \"contracts/PoolManager.sol\":1150:1181  QuoteParams memory quoterParams */\n      0x00\n        /* \"contracts/PoolManager.sol\":1184:1311  QuoteParams(... */\n      mload(0x40)\n      dup1\n      0x80\n      add\n      0x40\n      mstore\n      dup1\n        /* \"contracts/PoolManager.sol\":1209:1215  params */\n      dup9\n        /* \"contracts/PoolManager.sol\":1209:1222  params.amount */\n      0x60\n      add\n      calldataload\n        /* \"contracts/PoolManager.sol\":1184:1311  QuoteParams(... */\n      dup2\n      mstore\n      0x20\n      add\n        /* \"contracts/PoolManager.sol\":1236:1242  params */\n      dup9\n        /* \"contracts/PoolManager.sol\":1236:1253  params.zeroForOne */\n      0x80\n      add\n      0x20\n      dup2\n      add\n      swap1\n      tag_105\n      swap2\n      swap1\n      tag_106\n      jump\t// in\n    tag_105:\n        /* \"contracts/PoolManager.sol\":1184:1311  QuoteParams(... */\n      iszero\n      iszero\n      dup2\n      mstore\n      0x20\n      add\n        /* \"contracts/PoolManager.sol\":1267:1277  inventory0 */\n      dup5\n        /* \"contracts/PoolManager.sol\":1184:1311  QuoteParams(... */\n      0xffffffffffffffffffffffffffffffff\n      and\n      dup2\n      mstore\n      0x20\n      add\n        /* \"contracts/PoolManager.sol\":1291:1301  inventory1 */\n      dup4\n        /* \"contracts/PoolManager.sol\":1184:1311  QuoteParams(... */\n      0xffffffffffffffffffffffffffffffff\n      and\n      dup2\n      mstore\n      pop\n        /* \"contracts/PoolManager.sol\":1150:1311  QuoteParams memory quoterParams = QuoteParams(... */\n      swap1\n      pop\n        /* \"contracts/PoolManager.sol\":1322:1355  StoixQuoterRequest memory request */\n      0x00\n        /* \"contracts/PoolManager.sol\":1358:1465  StoixQuoterRequest(... */\n      mload(0x40)\n      dup1\n      0x60\n      add\n      0x40\n      mstore\n      dup1\n        /* \"contracts/PoolManager.sol\":1390:1396  params */\n      dup10\n        /* \"contracts/PoolManager.sol\":1390:1405  params.bucketID */\n      0x40\n      add\n      0x20\n      dup2\n      add\n      swap1\n      tag_107\n      swap2\n      swap1\n      tag_92\n      jump\t// in\n    tag_107:\n        /* \"contracts/PoolManager.sol\":1358:1465  StoixQuoterRequest(... */\n      0xffff\n      and\n      dup2\n      mstore\n      0x20\n      add\n        /* \"contracts/PoolManager.sol\":1419:1429  marketData */\n      dup7\n        /* \"contracts/PoolManager.sol\":1358:1465  StoixQuoterRequest(... */\n      dup2\n      mstore\n      0x20\n      add\n        /* \"contracts/PoolManager.sol\":1443:1455  quoterParams */\n      dup4\n        /* \"contracts/PoolManager.sol\":1358:1465  StoixQuoterRequest(... */\n      dup2\n      mstore\n      pop\n        /* \"contracts/PoolManager.sol\":1322:1465  StoixQuoterRequest memory request = StoixQuoterRequest(... */\n      swap1\n      pop\n        /* \"contracts/PoolManager.sol\":1495:1501  params */\n      dup8\n        /* \"contracts/PoolManager.sol\":1495:1508  params.quoter */\n      0x20\n      add\n      0x20\n      dup2\n      add\n      swap1\n      tag_108\n      swap2\n      swap1\n      tag_90\n      jump\t// in\n    tag_108:\n        /* \"contracts/PoolManager.sol\":1482:1515  IStoixQuoter(params.quoter).quote */\n      0xffffffffffffffffffffffffffffffffffffffff\n      and\n      0xe176b360\n        /* \"contracts/PoolManager.sol\":1516:1523  request */\n      dup3\n        /* \"contracts/PoolManager.sol\":1482:1524  IStoixQuoter(params.quoter).quote(request) */\n      mload(0x40)\n      dup3\n      0xffffffff\n      and\n      0xe0\n      shl\n      dup2\n      mstore\n      0x04\n      add\n      tag_109\n      swap2\n      swap1\n      tag_110\n      jump\t// in\n    tag_109:\n      0x20\n      mload(0x40)\n      dup1\n      dup4\n      sub\n      dup2\n      0x00\n      dup8\n      gas\n      call\n      iszero\n      dup1\n      iszero\n      tag_112\n      jumpi\n      returndatacopy(0x00, 0x00, returndatasize)\n      revert(0x00, returndatasize)\n    tag_112:\n      pop\n      pop\n      pop\n      pop\n      mload(0x40)\n      returndatasize\n      not(0x1f)\n      0x1f\n      dup3\n      add\n      and\n      dup3\n      add\n      dup1\n      0x40\n      mstore\n      pop\n      dup2\n      add\n      swap1\n      tag_113\n      swap2\n      swap1\n      tag_114\n      jump\t// in\n    tag_113:\n        /* \"contracts/PoolManager.sol\":1475:1524  return IStoixQuoter(params.quoter).quote(request) */\n      swap7\n      pop\n      pop\n      pop\n      pop\n      pop\n      pop\n      pop\n        /* \"contracts/PoolManager.sol\":801:1531  function quote(SwapParams calldata params) public returns (uint256) {... */\n      swap2\n      swap1\n      pop\n      jump\t// out\n        /* \"contracts/PoolManager.sol\":676:730  function swap() public returns (bool success) {... */\n    tag_59:\n        /* \"contracts/PoolManager.sol\":708:720  bool success */\n      0x00\n        /* \"contracts/PoolManager.sol\":676:730  function swap() public returns (bool success) {... */\n      swap1\n      jump\t// out\n        /* \"contracts/ERC6909.sol\":609:697  mapping(address owner => mapping(address operator => bool isOperator)) public isOperator */\n    tag_64:\n      mstore(0x20, 0x00)\n      dup2\n      0x00\n      mstore\n      mstore(0x20, keccak256(0x00, 0x40))\n      dup1\n      0x00\n      mstore\n      keccak256(0x00, 0x40)\n      0x00\n      swap2\n      pop\n      swap2\n      pop\n      swap1\n      sload\n      swap1\n      0x0100\n      exp\n      swap1\n      div\n      0xff\n      and\n      dup2\n      jump\t// out\n        /* \"contracts/ERC6909.sol\":1378:1919  function transferFrom(address sender, address receiver, uint256 id, uint256 amount) public virtual returns (bool) {... */\n    tag_69:\n        /* \"contracts/ERC6909.sol\":1486:1490  bool */\n      0x00\n        /* \"contracts/ERC6909.sol\":1520:1526  sender */\n      dup5\n        /* \"contracts/ERC6909.sol\":1506:1526  msg.sender != sender */\n      0xffffffffffffffffffffffffffffffffffffffff\n      and\n        /* \"contracts/ERC6909.sol\":1506:1516  msg.sender */\n      caller\n        /* \"contracts/ERC6909.sol\":1506:1526  msg.sender != sender */\n      0xffffffffffffffffffffffffffffffffffffffff\n      and\n      eq\n      iszero\n        /* \"contracts/ERC6909.sol\":1506:1561  msg.sender != sender && !isOperator[sender][msg.sender] */\n      dup1\n      iszero\n      tag_117\n      jumpi\n      pop\n        /* \"contracts/ERC6909.sol\":1531:1541  isOperator */\n      0x00\n        /* \"contracts/ERC6909.sol\":1531:1549  isOperator[sender] */\n      0x00\n        /* \"contracts/ERC6909.sol\":1542:1548  sender */\n      dup7\n        /* \"contracts/ERC6909.sol\":1531:1549  isOperator[sender] */\n      0xffffffffffffffffffffffffffffffffffffffff\n      and\n      0xffffffffffffffffffffffffffffffffffffffff\n      and\n      dup2\n      mstore\n      0x20\n      add\n      swap1\n      dup2\n      mstore\n      0x20\n      add\n      0x00\n      keccak256\n        /* \"contracts/ERC6909.sol\":1531:1561  isOperator[sender][msg.sender] */\n      0x00\n        /* \"contracts/ERC6909.sol\":1550:1560  msg.sender */\n      caller\n        /* \"contracts/ERC6909.sol\":1531:1561  isOperator[sender][msg.sender] */\n      0xffffffffffffffffffffffffffffffffffffffff\n      and\n      0xffffffffffffffffffffffffffffffffffffffff\n      and\n      dup2\n      mstore\n      0x20\n      add\n      swap1\n      dup2\n      mstore\n      0x20\n      add\n      0x00\n      keccak256\n      0x00\n      swap1\n      sload\n      swap1\n      0x0100\n      exp\n      swap1\n      div\n      0xff\n      and\n        /* \"contracts/ERC6909.sol\":1530:1561  !isOperator[sender][msg.sender] */\n      iszero\n        /* \"contracts/ERC6909.sol\":1506:1561  msg.sender != sender && !isOperator[sender][msg.sender] */\n    tag_117:\n        /* \"contracts/ERC6909.sol\":1502:1739  if (msg.sender != sender && !isOperator[sender][msg.sender]) {... */\n      iszero\n      tag_118\n      jumpi\n        /* \"contracts/ERC6909.sol\":1577:1592  uint256 allowed */\n      0x00\n        /* \"contracts/ERC6909.sol\":1595:1604  allowance */\n      0x02\n        /* \"contracts/ERC6909.sol\":1595:1612  allowance[sender] */\n      0x00\n        /* \"contracts/ERC6909.sol\":1605:1611  sender */\n      dup8\n        /* \"contracts/ERC6909.sol\":1595:1612  allowance[sender] */\n      0xffffffffffffffffffffffffffffffffffffffff\n      and\n      0xffffffffffffffffffffffffffffffffffffffff\n      and\n      dup2\n      mstore\n      0x20\n      add\n      swap1\n      dup2\n      mstore\n      0x20\n      add\n      0x00\n      keccak256\n        /* \"contracts/ERC6909.sol\":1595:1624  allowance[sender][msg.sender] */\n      0x00\n        /* \"contracts/ERC6909.sol\":1613:1623  msg.sender */\n      caller\n        /* \"contracts/ERC6909.sol\":1595:1624  allowance[sender][msg.sender] */\n      0xffffffffffffffffffffffffffffffffffffffff\n      and\n      0xffffffffffffffffffffffffffffffffffffffff\n      and\n      dup2\n      mstore\n      0x20\n      add\n      swap1\n      dup2\n      mstore\n      0x20\n      add\n      0x00\n      keccak256\n        /* \"contracts/ERC6909.sol\":1595:1628  allowance[sender][msg.sender][id] */\n      0x00\n        /* \"contracts/ERC6909.sol\":1625:1627  id */\n      dup6\n        /* \"contracts/ERC6909.sol\":1595:1628  allowance[sender][msg.sender][id] */\n      dup2\n      mstore\n      0x20\n      add\n      swap1\n      dup2\n      mstore\n      0x20\n      add\n      0x00\n      keccak256\n      sload\n        /* \"contracts/ERC6909.sol\":1577:1628  uint256 allowed = allowance[sender][msg.sender][id] */\n      swap1\n      pop\n        /* \"contracts/ERC6909.sol\":1657:1674  type(uint256).max */\n      0xffffffffffffffffffffffffffffffffffffffffffffffffffffffffffffffff\n        /* \"contracts/ERC6909.sol\":1646:1653  allowed */\n      dup2\n        /* \"contracts/ERC6909.sol\":1646:1674  allowed != type(uint256).max */\n      eq\n        /* \"contracts/ERC6909.sol\":1642:1728  if (allowed != type(uint256).max) allowance[sender][msg.sender][id] = allowed - amount */\n      tag_119\n      jumpi\n        /* \"contracts/ERC6909.sol\":1722:1728  amount */\n      dup3\n        /* \"contracts/ERC6909.sol\":1712:1719  allowed */\n      dup2\n        /* \"contracts/ERC6909.sol\":1712:1728  allowed - amount */\n      tag_120\n      swap2\n      swap1\n      tag_77\n      jump\t// in\n    tag_120:\n        /* \"contracts/ERC6909.sol\":1676:1685  allowance */\n      0x02\n        /* \"contracts/ERC6909.sol\":1676:1693  allowance[sender] */\n      0x00\n        /* \"contracts/ERC6909.sol\":1686:1692  sender */\n      dup9\n        /* \"contracts/ERC6909.sol\":1676:1693  allowance[sender] */\n      0xffffffffffffffffffffffffffffffffffffffff\n      and\n      0xffffffffffffffffffffffffffffffffffffffff\n      and\n      dup2\n      mstore\n      0x20\n      add\n      swap1\n      dup2\n      mstore\n      0x20\n      add\n      0x00\n      keccak256\n        /* \"contracts/ERC6909.sol\":1676:1705  allowance[sender][msg.sender] */\n      0x00\n        /* \"contracts/ERC6909.sol\":1694:1704  msg.sender */\n      caller\n        /* \"contracts/ERC6909.sol\":1676:1705  allowance[sender][msg.sender] */\n      0xffffffffffffffffffffffffffffffffffffffff\n      and\n      0xffffffffffffffffffffffffffffffffffffffff\n      and\n      dup2\n      mstore\n      0x20\n      add\n      swap1\n      dup2\n      mstore\n      0x20\n      add\n      0x00\n      keccak256\n        /* \"contracts/ERC6909.sol\":1676:1709  allowance[sender][msg.sender][id] */\n      0x00\n        /* \"contracts/ERC6909.sol\":1706:1708  id */\n      dup7\n        /* \"contracts/ERC6909.sol\":1676:1709  allowance[sender][msg.sender][id] */\n      dup2\n      mstore\n      0x20\n      add\n      swap1\n      dup2\n      mstore\n      0x20\n      add\n      0x00\n      keccak256\n        /* \"contracts/ERC6909.sol\":1676:1728  allowance[sender][msg.sender][id] = allowed - amount */\n      dup2\n      swap1\n      sstore\n      pop\n        /* \"contracts/ERC6909.sol\":1642:1728  if (allowed != type(uint256).max) allowance[sender][msg.sender][id] = allowed - amount */\n    tag_119:\n        /* \"contracts/ERC6909.sol\":1563:1739  {... */\n      pop\n        /* \"contracts/ERC6909.sol\":1502:1739  if (msg.sender != sender && !isOperator[sender][msg.sender]) {... */\n    tag_118:\n        /* \"contracts/ERC6909.sol\":1774:1780  amount */\n      dup2\n        /* \"contracts/ERC6909.sol\":1749:1758  balanceOf */\n      0x01\n        /* \"contracts/ERC6909.sol\":1749:1766  balanceOf[sender] */\n      0x00\n        /* \"contracts/ERC6909.sol\":1759:1765  sender */\n      dup8\n        /* \"contracts/ERC6909.sol\":1749:1766  balanceOf[sender] */\n      0xffffffffffffffffffffffffffffffffffffffff\n      and\n      0xffffffffffffffffffffffffffffffffffffffff\n      and\n      dup2\n      mstore\n      0x20\n      add\n      swap1\n      dup2\n      mstore\n      0x20\n      add\n      0x00\n      keccak256\n        /* \"contracts/ERC6909.sol\":1749:1770  balanceOf[sender][id] */\n      0x00\n        /* \"contracts/ERC6909.sol\":1767:1769  id */\n      dup6\n        /* \"contracts/ERC6909.sol\":1749:1770  balanceOf[sender][id] */\n      dup2\n      mstore\n      0x20\n      add\n      swap1\n      dup2\n      mstore\n      0x20\n      add\n      0x00\n      keccak256\n      0x00\n        /* \"contracts/ERC6909.sol\":1749:1780  balanceOf[sender][id] -= amount */\n      dup3\n      dup3\n      sload\n      tag_121\n      swap2\n      swap1\n      tag_77\n      jump\t// in\n    tag_121:\n      swap3\n      pop\n      pop\n      dup2\n      swap1\n      sstore\n      pop\n        /* \"contracts/ERC6909.sol\":1818:1824  amount */\n      dup2\n        /* \"contracts/ERC6909.sol\":1791:1800  balanceOf */\n      0x01\n        /* \"contracts/ERC6909.sol\":1791:1810  balanceOf[receiver] */\n      0x00\n        /* \"contracts/ERC6909.sol\":1801:1809  receiver */\n      dup7\n        /* \"contracts/ERC6909.sol\":1791:1810  balanceOf[receiver] */\n      0xffffffffffffffffffffffffffffffffffffffff\n      and\n      0xffffffffffffffffffffffffffffffffffffffff\n      and\n      dup2\n      mstore\n      0x20\n      add\n      swap1\n      dup2\n      mstore\n      0x20\n      add\n      0x00\n      keccak256\n        /* \"contracts/ERC6909.sol\":1791:1814  balanceOf[receiver][id] */\n      0x00\n        /* \"contracts/ERC6909.sol\":1811:1813  id */\n      dup6\n        /* \"contracts/ERC6909.sol\":1791:1814  balanceOf[receiver][id] */\n      dup2\n      mstore\n      0x20\n      add\n      swap1\n      dup2\n      mstore\n      0x20\n      add\n      0x00\n      keccak256\n      0x00\n        /* \"contracts/ERC6909.sol\":1791:1824  balanceOf[receiver][id] += amount */\n      dup3\n      dup3\n      sload\n      tag_122\n      swap2\n      swap1\n      tag_79\n      jump\t// in\n    tag_122:\n      swap3\n      pop\n      pop\n      dup2\n      swap1\n      sstore\n      pop\n        /* \"contracts/ERC6909.sol\":1879:1881  id */\n      dup3\n        /* \"contracts/ERC6909.sol\":1869:1877  receiver */\n      dup5\n        /* \"contracts/ERC6909.sol\":1840:1890  Transfer(msg.sender, sender, receiver, id, amount) */\n      0xffffffffffffffffffffffffffffffffffffffff\n      and\n        /* \"contracts/ERC6909.sol\":1861:1867  sender */\n      dup7\n        /* \"contracts/ERC6909.sol\":1840:1890  Transfer(msg.sender, sender, receiver, id, amount) */\n      0xffffffffffffffffffffffffffffffffffffffff\n      and\n      0x1b3d7edb2e9c0b0e7c525b20aaaef0f5940d2ed71663c7d39266ecafac728859\n        /* \"contracts/ERC6909.sol\":1849:1859  msg.sender */\n      caller\n        /* \"contracts/ERC6909.sol\":1883:1889  amount */\n      dup7\n        /* \"contracts/ERC6909.sol\":1840:1890  Transfer(msg.sender, sender, receiver, id, amount) */\n      mload(0x40)\n      tag_123\n      swap3\n      swap2\n      swap1\n      tag_81\n      jump\t// in\n    tag_123:\n      mload(0x40)\n      dup1\n      swap2\n      sub\n      swap1\n      log4\n        /* \"contracts/ERC6909.sol\":1908:1912  true */\n      0x01\n        /* \"contracts/ERC6909.sol\":1901:1912  return true */\n      swap1\n      pop\n        /* \"contracts/ERC6909.sol\":1378:1919  function transferFrom(address sender, address receiver, uint256 id, uint256 amount) public virtual returns (bool) {... */\n      swap5\n      swap4\n      pop\n      pop\n      pop\n      pop\n      jump\t// out\n        /* \"contracts/PoolManager.sol\":627:670  function brothers() public {... */\n    tag_72:\n      jump\t// out\n        /* \"contracts/libraries/PoolIDHelper.sol\":87:614  function poolID(address quoterAddress, uint16 bucketID, uint80 currencyID) internal pure returns (uint256 poolID) {... */\n    tag_95:\n        /* \"contracts/libraries/PoolIDHelper.sol\":185:199  uint256 poolID */\n      0x00\n        /* \"contracts/libraries/PoolIDHelper.sol\":348:361  quoterAddress */\n      dup4\n        /* \"contracts/libraries/PoolIDHelper.sol\":338:361  poolID := quoterAddress */\n      swap1\n      pop\n        /* \"contracts/libraries/PoolIDHelper.sol\":494:500  poolID */\n      dup1\n        /* \"contracts/libraries/PoolIDHelper.sol\":490:492  96 */\n      0x60\n        /* \"contracts/libraries/PoolIDHelper.sol\":486:501  shl(96, poolID) */\n      shl\n        /* \"contracts/libraries/PoolIDHelper.sol\":476:501  poolID := shl(96, poolID) */\n      swap1\n      pop\n        /* \"contracts/libraries/PoolIDHelper.sol\":543:551  bucketID */\n      dup3\n        /* \"contracts/libraries/PoolIDHelper.sol\":539:541  80 */\n      0x50\n        /* \"contracts/libraries/PoolIDHelper.sol\":535:552  shl(80, bucketID) */\n      shl\n        /* \"contracts/libraries/PoolIDHelper.sol\":527:533  poolID */\n      dup2\n        /* \"contracts/libraries/PoolIDHelper.sol\":524:553  or(poolID, shl(80, bucketID)) */\n      or\n        /* \"contracts/libraries/PoolIDHelper.sol\":514:553  poolID := or(poolID, shl(80, bucketID)) */\n      swap1\n      pop\n        /* \"contracts/libraries/PoolIDHelper.sol\":587:597  currencyID */\n      dup2\n        /* \"contracts/libraries/PoolIDHelper.sol\":579:585  poolID */\n      dup2\n        /* \"contracts/libraries/PoolIDHelper.sol\":576:598  or(poolID, currencyID) */\n      or\n        /* \"contracts/libraries/PoolIDHelper.sol\":566:598  poolID := or(poolID, currencyID) */\n      swap1\n      pop\n        /* \"contracts/libraries/PoolIDHelper.sol\":87:614  function poolID(address quoterAddress, uint16 bucketID, uint80 currencyID) internal pure returns (uint256 poolID) {... */\n      swap4\n      swap3\n      pop\n      pop\n      pop\n      jump\t// out\n        /* \"#utility.yul\":7:82   */\n    tag_126:\n        /* \"#utility.yul\":40:46   */\n      0x00\n        /* \"#utility.yul\":73:75   */\n      0x40\n        /* \"#utility.yul\":67:76   */\n      mload\n        /* \"#utility.yul\":57:76   */\n      swap1\n      pop\n        /* \"#utility.yul\":7:82   */\n      swap1\n      jump\t// out\n        /* \"#utility.yul\":88:205   */\n    tag_127:\n        /* \"#utility.yul\":197:198   */\n      0x00\n        /* \"#utility.yul\":194:195   */\n      0x00\n        /* \"#utility.yul\":187:199   */\n      revert\n        /* \"#utility.yul\":334:460   */\n    tag_129:\n        /* \"#utility.yul\":371:378   */\n      0x00\n        /* \"#utility.yul\":411:453   */\n      0xffffffffffffffffffffffffffffffffffffffff\n        /* \"#utility.yul\":404:409   */\n      dup3\n        /* \"#utility.yul\":400:454   */\n      and\n        /* \"#utility.yul\":389:454   */\n      swap1\n      pop\n        /* \"#utility.yul\":334:460   */\n      swap2\n      swap1\n      pop\n      jump\t// out\n        /* \"#utility.yul\":466:562   */\n    tag_130:\n        /* \"#utility.yul\":503:510   */\n      0x00\n        /* \"#utility.yul\":532:556   */\n      tag_179\n        /* \"#utility.yul\":550:555   */\n      dup3\n        /* \"#utility.yul\":532:556   */\n      tag_129\n      jump\t// in\n    tag_179:\n        /* \"#utility.yul\":521:556   */\n      swap1\n      pop\n        /* \"#utility.yul\":466:562   */\n      swap2\n      swap1\n      pop\n      jump\t// out\n        /* \"#utility.yul\":568:690   */\n    tag_131:\n        /* \"#utility.yul\":641:665   */\n      tag_181\n        /* \"#utility.yul\":659:664   */\n      dup2\n        /* \"#utility.yul\":641:665   */\n      tag_130\n      jump\t// in\n    tag_181:\n        /* \"#utility.yul\":634:639   */\n      dup2\n        /* \"#utility.yul\":631:666   */\n      eq\n        /* \"#utility.yul\":621:684   */\n      tag_182\n      jumpi\n        /* \"#utility.yul\":680:681   */\n      0x00\n        /* \"#utility.yul\":677:678   */\n      0x00\n        /* \"#utility.yul\":670:682   */\n      revert\n        /* \"#utility.yul\":621:684   */\n    tag_182:\n        /* \"#utility.yul\":568:690   */\n      pop\n      jump\t// out\n        /* \"#utility.yul\":696:835   */\n    tag_132:\n        /* \"#utility.yul\":742:747   */\n      0x00\n        /* \"#utility.yul\":780:786   */\n      dup2\n        /* \"#utility.yul\":767:787   */\n      calldataload\n        /* \"#utility.yul\":758:787   */\n      swap1\n      pop\n        /* \"#utility.yul\":796:829   */\n      tag_184\n        /* \"#utility.yul\":823:828   */\n      dup2\n        /* \"#utility.yul\":796:829   */\n      tag_131\n      jump\t// in\n    tag_184:\n        /* \"#utility.yul\":696:835   */\n      swap3\n      swap2\n      pop\n      pop\n      jump\t// out\n        /* \"#utility.yul\":841:918   */\n    tag_133:\n        /* \"#utility.yul\":878:885   */\n      0x00\n        /* \"#utility.yul\":907:912   */\n      dup2\n        /* \"#utility.yul\":896:912   */\n      swap1\n      pop\n        /* \"#utility.yul\":841:918   */\n      swap2\n      swap1\n      pop\n      jump\t// out\n        /* \"#utility.yul\":924:1046   */\n    tag_134:\n        /* \"#utility.yul\":997:1021   */\n      tag_187\n        /* \"#utility.yul\":1015:1020   */\n      dup2\n        /* \"#utility.yul\":997:1021   */\n      tag_133\n      jump\t// in\n    tag_187:\n        /* \"#utility.yul\":990:995   */\n      dup2\n        /* \"#utility.yul\":987:1022   */\n      eq\n        /* \"#utility.yul\":977:1040   */\n      tag_188\n      jumpi\n        /* \"#utility.yul\":1036:1037   */\n      0x00\n        /* \"#utility.yul\":1033:1034   */\n      0x00\n        /* \"#utility.yul\":1026:1038   */\n      revert\n        /* \"#utility.yul\":977:1040   */\n    tag_188:\n        /* \"#utility.yul\":924:1046   */\n      pop\n      jump\t// out\n        /* \"#utility.yul\":1052:1191   */\n    tag_135:\n        /* \"#utility.yul\":1098:1103   */\n      0x00\n        /* \"#utility.yul\":1136:1142   */\n      dup2\n        /* \"#utility.yul\":1123:1143   */\n      calldataload\n        /* \"#utility.yul\":1114:1143   */\n      swap1\n      pop\n        /* \"#utility.yul\":1152:1185   */\n      tag_190\n        /* \"#utility.yul\":1179:1184   */\n      dup2\n        /* \"#utility.yul\":1152:1185   */\n      tag_134\n      jump\t// in\n    tag_190:\n        /* \"#utility.yul\":1052:1191   */\n      swap3\n      swap2\n      pop\n      pop\n      jump\t// out\n        /* \"#utility.yul\":1197:1671   */\n    tag_18:\n        /* \"#utility.yul\":1265:1271   */\n      0x00\n        /* \"#utility.yul\":1273:1279   */\n      0x00\n        /* \"#utility.yul\":1322:1324   */\n      0x40\n        /* \"#utility.yul\":1310:1319   */\n      dup4\n        /* \"#utility.yul\":1301:1308   */\n      dup6\n        /* \"#utility.yul\":1297:1320   */\n      sub\n        /* \"#utility.yul\":1293:1325   */\n      slt\n        /* \"#utility.yul\":1290:1409   */\n      iszero\n      tag_192\n      jumpi\n        /* \"#utility.yul\":1328:1407   */\n      tag_193\n      tag_127\n      jump\t// in\n    tag_193:\n        /* \"#utility.yul\":1290:1409   */\n    tag_192:\n        /* \"#utility.yul\":1448:1449   */\n      0x00\n        /* \"#utility.yul\":1473:1526   */\n      tag_194\n        /* \"#utility.yul\":1518:1525   */\n      dup6\n        /* \"#utility.yul\":1509:1515   */\n      dup3\n        /* \"#utility.yul\":1498:1507   */\n      dup7\n        /* \"#utility.yul\":1494:1516   */\n      add\n        /* \"#utility.yul\":1473:1526   */\n      tag_132\n      jump\t// in\n    tag_194:\n        /* \"#utility.yul\":1463:1526   */\n      swap3\n      pop\n        /* \"#utility.yul\":1419:1536   */\n      pop\n        /* \"#utility.yul\":1575:1577   */\n      0x20\n        /* \"#utility.yul\":1601:1654   */\n      tag_195\n        /* \"#utility.yul\":1646:1653   */\n      dup6\n        /* \"#utility.yul\":1637:1643   */\n      dup3\n        /* \"#utility.yul\":1626:1635   */\n      dup7\n        /* \"#utility.yul\":1622:1644   */\n      add\n        /* \"#utility.yul\":1601:1654   */\n      tag_135\n      jump\t// in\n    tag_195:\n        /* \"#utility.yul\":1591:1654   */\n      swap2\n      pop\n        /* \"#utility.yul\":1546:1664   */\n      pop\n        /* \"#utility.yul\":1197:1671   */\n      swap3\n      pop\n      swap3\n      swap1\n      pop\n      jump\t// out\n        /* \"#utility.yul\":1677:1795   */\n    tag_136:\n        /* \"#utility.yul\":1764:1788   */\n      tag_197\n        /* \"#utility.yul\":1782:1787   */\n      dup2\n        /* \"#utility.yul\":1764:1788   */\n      tag_133\n      jump\t// in\n    tag_197:\n        /* \"#utility.yul\":1759:1762   */\n      dup3\n        /* \"#utility.yul\":1752:1789   */\n      mstore\n        /* \"#utility.yul\":1677:1795   */\n      pop\n      pop\n      jump\t// out\n        /* \"#utility.yul\":1801:2023   */\n    tag_21:\n        /* \"#utility.yul\":1894:1898   */\n      0x00\n        /* \"#utility.yul\":1932:1934   */\n      0x20\n        /* \"#utility.yul\":1921:1930   */\n      dup3\n        /* \"#utility.yul\":1917:1935   */\n      add\n        /* \"#utility.yul\":1909:1935   */\n      swap1\n      pop\n        /* \"#utility.yul\":1945:2016   */\n      tag_199\n        /* \"#utility.yul\":2013:2014   */\n      0x00\n        /* \"#utility.yul\":2002:2011   */\n      dup4\n        /* \"#utility.yul\":1998:2015   */\n      add\n        /* \"#utility.yul\":1989:1995   */\n      dup5\n        /* \"#utility.yul\":1945:2016   */\n      tag_136\n      jump\t// in\n    tag_199:\n        /* \"#utility.yul\":1801:2023   */\n      swap3\n      swap2\n      pop\n      pop\n      jump\t// out\n        /* \"#utility.yul\":2029:2178   */\n    tag_137:\n        /* \"#utility.yul\":2065:2072   */\n      0x00\n        /* \"#utility.yul\":2105:2171   */\n      0xffffffff00000000000000000000000000000000000000000000000000000000\n        /* \"#utility.yul\":2098:2103   */\n      dup3\n        /* \"#utility.yul\":2094:2172   */\n      and\n        /* \"#utility.yul\":2083:2172   */\n      swap1\n      pop\n        /* \"#utility.yul\":2029:2178   */\n      swap2\n      swap1\n      pop\n      jump\t// out\n        /* \"#utility.yul\":2184:2304   */\n    tag_138:\n        /* \"#utility.yul\":2256:2279   */\n      tag_202\n        /* \"#utility.yul\":2273:2278   */\n      dup2\n        /* \"#utility.yul\":2256:2279   */\n      tag_137\n      jump\t// in\n    tag_202:\n        /* \"#utility.yul\":2249:2254   */\n      dup2\n        /* \"#utility.yul\":2246:2280   */\n      eq\n        /* \"#utility.yul\":2236:2298   */\n      tag_203\n      jumpi\n        /* \"#utility.yul\":2294:2295   */\n      0x00\n        /* \"#utility.yul\":2291:2292   */\n      0x00\n        /* \"#utility.yul\":2284:2296   */\n      revert\n        /* \"#utility.yul\":2236:2298   */\n    tag_203:\n        /* \"#utility.yul\":2184:2304   */\n      pop\n      jump\t// out\n        /* \"#utility.yul\":2310:2447   */\n    tag_139:\n        /* \"#utility.yul\":2355:2360   */\n      0x00\n        /* \"#utility.yul\":2393:2399   */\n      dup2\n        /* \"#utility.yul\":2380:2400   */\n      calldataload\n        /* \"#utility.yul\":2371:2400   */\n      swap1\n      pop\n        /* \"#utility.yul\":2409:2441   */\n      tag_205\n        /* \"#utility.yul\":2435:2440   */\n      dup2\n        /* \"#utility.yul\":2409:2441   */\n      tag_138\n      jump\t// in\n    tag_205:\n        /* \"#utility.yul\":2310:2447   */\n      swap3\n      swap2\n      pop\n      pop\n      jump\t// out\n        /* \"#utility.yul\":2453:2780   */\n    tag_24:\n        /* \"#utility.yul\":2511:2517   */\n      0x00\n        /* \"#utility.yul\":2560:2562   */\n      0x20\n        /* \"#utility.yul\":2548:2557   */\n      dup3\n        /* \"#utility.yul\":2539:2546   */\n      dup5\n        /* \"#utility.yul\":2535:2558   */\n      sub\n        /* \"#utility.yul\":2531:2563   */\n      slt\n        /* \"#utility.yul\":2528:2647   */\n      iszero\n      tag_207\n      jumpi\n        /* \"#utility.yul\":2566:2645   */\n      tag_208\n      tag_127\n      jump\t// in\n    tag_208:\n        /* \"#utility.yul\":2528:2647   */\n    tag_207:\n        /* \"#utility.yul\":2686:2687   */\n      0x00\n        /* \"#utility.yul\":2711:2763   */\n      tag_209\n        /* \"#utility.yul\":2755:2762   */\n      dup5\n        /* \"#utility.yul\":2746:2752   */\n      dup3\n        /* \"#utility.yul\":2735:2744   */\n      dup6\n        /* \"#utility.yul\":2731:2753   */\n      add\n        /* \"#utility.yul\":2711:2763   */\n      tag_139\n      jump\t// in\n    tag_209:\n        /* \"#utility.yul\":2701:2763   */\n      swap2\n      pop\n        /* \"#utility.yul\":2657:2773   */\n      pop\n        /* \"#utility.yul\":2453:2780   */\n      swap3\n      swap2\n      pop\n      pop\n      jump\t// out\n        /* \"#utility.yul\":2786:2876   */\n    tag_140:\n        /* \"#utility.yul\":2820:2827   */\n      0x00\n        /* \"#utility.yul\":2863:2868   */\n      dup2\n        /* \"#utility.yul\":2856:2869   */\n      iszero\n        /* \"#utility.yul\":2849:2870   */\n      iszero\n        /* \"#utility.yul\":2838:2870   */\n      swap1\n      pop\n        /* \"#utility.yul\":2786:2876   */\n      swap2\n      swap1\n      pop\n      jump\t// out\n        /* \"#utility.yul\":2882:2991   */\n    tag_141:\n        /* \"#utility.yul\":2963:2984   */\n      tag_212\n        /* \"#utility.yul\":2978:2983   */\n      dup2\n        /* \"#utility.yul\":2963:2984   */\n      tag_140\n      jump\t// in\n    tag_212:\n        /* \"#utility.yul\":2958:2961   */\n      dup3\n        /* \"#utility.yul\":2951:2985   */\n      mstore\n        /* \"#utility.yul\":2882:2991   */\n      pop\n      pop\n      jump\t// out\n        /* \"#utility.yul\":2997:3207   */\n    tag_27:\n        /* \"#utility.yul\":3084:3088   */\n      0x00\n        /* \"#utility.yul\":3122:3124   */\n      0x20\n        /* \"#utility.yul\":3111:3120   */\n      dup3\n        /* \"#utility.yul\":3107:3125   */\n      add\n        /* \"#utility.yul\":3099:3125   */\n      swap1\n      pop\n        /* \"#utility.yul\":3135:3200   */\n      tag_214\n        /* \"#utility.yul\":3197:3198   */\n      0x00\n        /* \"#utility.yul\":3186:3195   */\n      dup4\n        /* \"#utility.yul\":3182:3199   */\n      add\n        /* \"#utility.yul\":3173:3179   */\n      dup5\n        /* \"#utility.yul\":3135:3200   */\n      tag_141\n      jump\t// in\n    tag_214:\n        /* \"#utility.yul\":2997:3207   */\n      swap3\n      swap2\n      pop\n      pop\n      jump\t// out\n        /* \"#utility.yul\":3213:3832   */\n    tag_30:\n        /* \"#utility.yul\":3290:3296   */\n      0x00\n        /* \"#utility.yul\":3298:3304   */\n      0x00\n        /* \"#utility.yul\":3306:3312   */\n      0x00\n        /* \"#utility.yul\":3355:3357   */\n      0x60\n        /* \"#utility.yul\":3343:3352   */\n      dup5\n        /* \"#utility.yul\":3334:3341   */\n      dup7\n        /* \"#utility.yul\":3330:3353   */\n      sub\n        /* \"#utility.yul\":3326:3358   */\n      slt\n        /* \"#utility.yul\":3323:3442   */\n      iszero\n      tag_216\n      jumpi\n        /* \"#utility.yul\":3361:3440   */\n      tag_217\n      tag_127\n      jump\t// in\n    tag_217:\n        /* \"#utility.yul\":3323:3442   */\n    tag_216:\n        /* \"#utility.yul\":3481:3482   */\n      0x00\n        /* \"#utility.yul\":3506:3559   */\n      tag_218\n        /* \"#utility.yul\":3551:3558   */\n      dup7\n        /* \"#utility.yul\":3542:3548   */\n      dup3\n        /* \"#utility.yul\":3531:3540   */\n      dup8\n        /* \"#utility.yul\":3527:3549   */\n      add\n        /* \"#utility.yul\":3506:3559   */\n      tag_132\n      jump\t// in\n    tag_218:\n        /* \"#utility.yul\":3496:3559   */\n      swap4\n      pop\n        /* \"#utility.yul\":3452:3569   */\n      pop\n        /* \"#utility.yul\":3608:3610   */\n      0x20\n        /* \"#utility.yul\":3634:3687   */\n      tag_219\n        /* \"#utility.yul\":3679:3686   */\n      dup7\n        /* \"#utility.yul\":3670:3676   */\n      dup3\n        /* \"#utility.yul\":3659:3668   */\n      dup8\n        /* \"#utility.yul\":3655:3677   */\n      add\n        /* \"#utility.yul\":3634:3687   */\n      tag_135\n      jump\t// in\n    tag_219:\n        /* \"#utility.yul\":3624:3687   */\n      swap3\n      pop\n        /* \"#utility.yul\":3579:3697   */\n      pop\n        /* \"#utility.yul\":3736:3738   */\n      0x40\n        /* \"#utility.yul\":3762:3815   */\n      tag_220\n        /* \"#utility.yul\":3807:3814   */\n      dup7\n        /* \"#utility.yul\":3798:3804   */\n      dup3\n        /* \"#utility.yul\":3787:3796   */\n      dup8\n        /* \"#utility.yul\":3783:3805   */\n      add\n        /* \"#utility.yul\":3762:3815   */\n      tag_135\n      jump\t// in\n    tag_220:\n        /* \"#utility.yul\":3752:3815   */\n      swap2\n      pop\n        /* \"#utility.yul\":3707:3825   */\n      pop\n        /* \"#utility.yul\":3213:3832   */\n      swap3\n      pop\n      swap3\n      pop\n      swap3\n      jump\t// out\n        /* \"#utility.yul\":3838:4167   */\n    tag_39:\n        /* \"#utility.yul\":3897:3903   */\n      0x00\n        /* \"#utility.yul\":3946:3948   */\n      0x20\n        /* \"#utility.yul\":3934:3943   */\n      dup3\n        /* \"#utility.yul\":3925:3932   */\n      dup5\n        /* \"#utility.yul\":3921:3944   */\n      sub\n        /* \"#utility.yul\":3917:3949   */\n      slt\n        /* \"#utility.yul\":3914:4033   */\n      iszero\n      tag_222\n      jumpi\n        /* \"#utility.yul\":3952:4031   */\n      tag_223\n      tag_127\n      jump\t// in\n    tag_223:\n        /* \"#utility.yul\":3914:4033   */\n    tag_222:\n        /* \"#utility.yul\":4072:4073   */\n      0x00\n        /* \"#utility.yul\":4097:4150   */\n      tag_224\n        /* \"#utility.yul\":4142:4149   */\n      dup5\n        /* \"#utility.yul\":4133:4139   */\n      dup3\n        /* \"#utility.yul\":4122:4131   */\n      dup6\n        /* \"#utility.yul\":4118:4140   */\n      add\n        /* \"#utility.yul\":4097:4150   */\n      tag_135\n      jump\t// in\n    tag_224:\n        /* \"#utility.yul\":4087:4150   */\n      swap2\n      pop\n        /* \"#utility.yul\":4043:4160   */\n      pop\n        /* \"#utility.yul\":3838:4167   */\n      swap3\n      swap2\n      pop\n      pop\n      jump\t// out\n        /* \"#utility.yul\":4173:4291   */\n    tag_142:\n        /* \"#utility.yul\":4210:4217   */\n      0x00\n        /* \"#utility.yul\":4250:4284   */\n      0xffffffffffffffffffffffffffffffff\n        /* \"#utility.yul\":4243:4248   */\n      dup3\n        /* \"#utility.yul\":4239:4285   */\n      and\n        /* \"#utility.yul\":4228:4285   */\n      swap1\n      pop\n        /* \"#utility.yul\":4173:4291   */\n      swap2\n      swap1\n      pop\n      jump\t// out\n        /* \"#utility.yul\":4297:4415   */\n    tag_143:\n        /* \"#utility.yul\":4384:4408   */\n      tag_227\n        /* \"#utility.yul\":4402:4407   */\n      dup2\n        /* \"#utility.yul\":4384:4408   */\n      tag_142\n      jump\t// in\n    tag_227:\n        /* \"#utility.yul\":4379:4382   */\n      dup3\n        /* \"#utility.yul\":4372:4409   */\n      mstore\n        /* \"#utility.yul\":4297:4415   */\n      pop\n      pop\n      jump\t// out\n        /* \"#utility.yul\":4421:4753   */\n    tag_42:\n        /* \"#utility.yul\":4542:4546   */\n      0x00\n        /* \"#utility.yul\":4580:4582   */\n      0x40\n        /* \"#utility.yul\":4569:4578   */\n      dup3\n        /* \"#utility.yul\":4565:4583   */\n      add\n        /* \"#utility.yul\":4557:4583   */\n      swap1\n      pop\n        /* \"#utility.yul\":4593:4664   */\n      tag_229\n        /* \"#utility.yul\":4661:4662   */\n      0x00\n        /* \"#utility.yul\":4650:4659   */\n      dup4\n        /* \"#utility.yul\":4646:4663   */\n      add\n        /* \"#utility.yul\":4637:4643   */\n      dup6\n        /* \"#utility.yul\":4593:4664   */\n      tag_143\n      jump\t// in\n    tag_229:\n        /* \"#utility.yul\":4674:4746   */\n      tag_230\n        /* \"#utility.yul\":4742:4744   */\n      0x20\n        /* \"#utility.yul\":4731:4740   */\n      dup4\n        /* \"#utility.yul\":4727:4745   */\n      add\n        /* \"#utility.yul\":4718:4724   */\n      dup5\n        /* \"#utility.yul\":4674:4746   */\n      tag_143\n      jump\t// in\n    tag_230:\n        /* \"#utility.yul\":4421:4753   */\n      swap4\n      swap3\n      pop\n      pop\n      pop\n      jump\t// out\n        /* \"#utility.yul\":4759:4875   */\n    tag_144:\n        /* \"#utility.yul\":4829:4850   */\n      tag_232\n        /* \"#utility.yul\":4844:4849   */\n      dup2\n        /* \"#utility.yul\":4829:4850   */\n      tag_140\n      jump\t// in\n    tag_232:\n        /* \"#utility.yul\":4822:4827   */\n      dup2\n        /* \"#utility.yul\":4819:4851   */\n      eq\n        /* \"#utility.yul\":4809:4869   */\n      tag_233\n      jumpi\n        /* \"#utility.yul\":4865:4866   */\n      0x00\n        /* \"#utility.yul\":4862:4863   */\n      0x00\n        /* \"#utility.yul\":4855:4867   */\n      revert\n        /* \"#utility.yul\":4809:4869   */\n    tag_233:\n        /* \"#utility.yul\":4759:4875   */\n      pop\n      jump\t// out\n        /* \"#utility.yul\":4881:5014   */\n    tag_145:\n        /* \"#utility.yul\":4924:4929   */\n      0x00\n        /* \"#utility.yul\":4962:4968   */\n      dup2\n        /* \"#utility.yul\":4949:4969   */\n      calldataload\n        /* \"#utility.yul\":4940:4969   */\n      swap1\n      pop\n        /* \"#utility.yul\":4978:5008   */\n      tag_235\n        /* \"#utility.yul\":5002:5007   */\n      dup2\n        /* \"#utility.yul\":4978:5008   */\n      tag_144\n      jump\t// in\n    tag_235:\n        /* \"#utility.yul\":4881:5014   */\n      swap3\n      swap2\n      pop\n      pop\n      jump\t// out\n        /* \"#utility.yul\":5020:5488   */\n    tag_45:\n        /* \"#utility.yul\":5085:5091   */\n      0x00\n        /* \"#utility.yul\":5093:5099   */\n      0x00\n        /* \"#utility.yul\":5142:5144   */\n      0x40\n        /* \"#utility.yul\":5130:5139   */\n      dup4\n        /* \"#utility.yul\":5121:5128   */\n      dup6\n        /* \"#utility.yul\":5117:5140   */\n      sub\n        /* \"#utility.yul\":5113:5145   */\n      slt\n        /* \"#utility.yul\":5110:5229   */\n      iszero\n      tag_237\n      jumpi\n        /* \"#utility.yul\":5148:5227   */\n      tag_238\n      tag_127\n      jump\t// in\n    tag_238:\n        /* \"#utility.yul\":5110:5229   */\n    tag_237:\n        /* \"#utility.yul\":5268:5269   */\n      0x00\n        /* \"#utility.yul\":5293:5346   */\n      tag_239\n        /* \"#utility.yul\":5338:5345   */\n      dup6\n        /* \"#utility.yul\":5329:5335   */\n      dup3\n        /* \"#utility.yul\":5318:5327   */\n      dup7\n        /* \"#utility.yul\":5314:5336   */\n      add\n        /* \"#utility.yul\":5293:5346   */\n      tag_132\n      jump\t// in\n    tag_239:\n        /* \"#utility.yul\":5283:5346   */\n      swap3\n      pop\n        /* \"#utility.yul\":5239:5356   */\n      pop\n        /* \"#utility.yul\":5395:5397   */\n      0x20\n        /* \"#utility.yul\":5421:5471   */\n      tag_240\n        /* \"#utility.yul\":5463:5470   */\n      dup6\n        /* \"#utility.yul\":5454:5460   */\n      dup3\n        /* \"#utility.yul\":5443:5452   */\n      dup7\n        /* \"#utility.yul\":5439:5461   */\n      add\n        /* \"#utility.yul\":5421:5471   */\n      tag_145\n      jump\t// in\n    tag_240:\n        /* \"#utility.yul\":5411:5471   */\n      swap2\n      pop\n        /* \"#utility.yul\":5366:5481   */\n      pop\n        /* \"#utility.yul\":5020:5488   */\n      swap3\n      pop\n      swap3\n      swap1\n      pop\n      jump\t// out\n        /* \"#utility.yul\":5494:6113   */\n    tag_50:\n        /* \"#utility.yul\":5571:5577   */\n      0x00\n        /* \"#utility.yul\":5579:5585   */\n      0x00\n        /* \"#utility.yul\":5587:5593   */\n      0x00\n        /* \"#utility.yul\":5636:5638   */\n      0x60\n        /* \"#utility.yul\":5624:5633   */\n      dup5\n        /* \"#utility.yul\":5615:5622   */\n      dup7\n        /* \"#utility.yul\":5611:5634   */\n      sub\n        /* \"#utility.yul\":5607:5639   */\n      slt\n        /* \"#utility.yul\":5604:5723   */\n      iszero\n      tag_242\n      jumpi\n        /* \"#utility.yul\":5642:5721   */\n      tag_243\n      tag_127\n      jump\t// in\n    tag_243:\n        /* \"#utility.yul\":5604:5723   */\n    tag_242:\n        /* \"#utility.yul\":5762:5763   */\n      0x00\n        /* \"#utility.yul\":5787:5840   */\n      tag_244\n        /* \"#utility.yul\":5832:5839   */\n      dup7\n        /* \"#utility.yul\":5823:5829   */\n      dup3\n        /* \"#utility.yul\":5812:5821   */\n      dup8\n        /* \"#utility.yul\":5808:5830   */\n      add\n        /* \"#utility.yul\":5787:5840   */\n      tag_132\n      jump\t// in\n    tag_244:\n        /* \"#utility.yul\":5777:5840   */\n      swap4\n      pop\n        /* \"#utility.yul\":5733:5850   */\n      pop\n        /* \"#utility.yul\":5889:5891   */\n      0x20\n        /* \"#utility.yul\":5915:5968   */\n      tag_245\n        /* \"#utility.yul\":5960:5967   */\n      dup7\n        /* \"#utility.yul\":5951:5957   */\n      dup3\n        /* \"#utility.yul\":5940:5949   */\n      dup8\n        /* \"#utility.yul\":5936:5958   */\n      add\n        /* \"#utility.yul\":5915:5968   */\n      tag_132\n      jump\t// in\n    tag_245:\n        /* \"#utility.yul\":5905:5968   */\n      swap3\n      pop\n        /* \"#utility.yul\":5860:5978   */\n      pop\n        /* \"#utility.yul\":6017:6019   */\n      0x40\n        /* \"#utility.yul\":6043:6096   */\n      tag_246\n        /* \"#utility.yul\":6088:6095   */\n      dup7\n        /* \"#utility.yul\":6079:6085   */\n      dup3\n        /* \"#utility.yul\":6068:6077   */\n      dup8\n        /* \"#utility.yul\":6064:6086   */\n      add\n        /* \"#utility.yul\":6043:6096   */\n      tag_135\n      jump\t// in\n    tag_246:\n        /* \"#utility.yul\":6033:6096   */\n      swap2\n      pop\n        /* \"#utility.yul\":5988:6106   */\n      pop\n        /* \"#utility.yul\":5494:6113   */\n      swap3\n      pop\n      swap3\n      pop\n      swap3\n      jump\t// out\n        /* \"#utility.yul\":6119:6236   */\n    tag_146:\n        /* \"#utility.yul\":6228:6229   */\n      0x00\n        /* \"#utility.yul\":6225:6226   */\n      0x00\n        /* \"#utility.yul\":6218:6230   */\n      revert\n        /* \"#utility.yul\":6267:6501   */\n    tag_147:\n        /* \"#utility.yul\":6342:6347   */\n      0x00\n        /* \"#utility.yul\":6383:6386   */\n      0xa0\n        /* \"#utility.yul\":6374:6380   */\n      dup3\n        /* \"#utility.yul\":6369:6372   */\n      dup5\n        /* \"#utility.yul\":6365:6381   */\n      sub\n        /* \"#utility.yul\":6361:6387   */\n      slt\n        /* \"#utility.yul\":6358:6471   */\n      iszero\n      tag_249\n      jumpi\n        /* \"#utility.yul\":6390:6469   */\n      tag_250\n      tag_146\n      jump\t// in\n    tag_250:\n        /* \"#utility.yul\":6358:6471   */\n    tag_249:\n        /* \"#utility.yul\":6489:6495   */\n      dup2\n        /* \"#utility.yul\":6480:6495   */\n      swap1\n      pop\n        /* \"#utility.yul\":6267:6501   */\n      swap3\n      swap2\n      pop\n      pop\n      jump\t// out\n        /* \"#utility.yul\":6507:6895   */\n    tag_55:\n        /* \"#utility.yul\":6595:6601   */\n      0x00\n        /* \"#utility.yul\":6644:6647   */\n      0xa0\n        /* \"#utility.yul\":6632:6641   */\n      dup3\n        /* \"#utility.yul\":6623:6630   */\n      dup5\n        /* \"#utility.yul\":6619:6642   */\n      sub\n        /* \"#utility.yul\":6615:6648   */\n      slt\n        /* \"#utility.yul\":6612:6732   */\n      iszero\n      tag_252\n      jumpi\n        /* \"#utility.yul\":6651:6730   */\n      tag_253\n      tag_127\n      jump\t// in\n    tag_253:\n        /* \"#utility.yul\":6612:6732   */\n    tag_252:\n        /* \"#utility.yul\":6771:6772   */\n      0x00\n        /* \"#utility.yul\":6796:6878   */\n      tag_254\n        /* \"#utility.yul\":6870:6877   */\n      dup5\n        /* \"#utility.yul\":6861:6867   */\n      dup3\n        /* \"#utility.yul\":6850:6859   */\n      dup6\n        /* \"#utility.yul\":6846:6868   */\n      add\n        /* \"#utility.yul\":6796:6878   */\n      tag_147\n      jump\t// in\n    tag_254:\n        /* \"#utility.yul\":6786:6878   */\n      swap2\n      pop\n        /* \"#utility.yul\":6742:6888   */\n      pop\n        /* \"#utility.yul\":6507:6895   */\n      swap3\n      swap2\n      pop\n      pop\n      jump\t// out\n        /* \"#utility.yul\":6901:7375   */\n    tag_63:\n        /* \"#utility.yul\":6969:6975   */\n      0x00\n        /* \"#utility.yul\":6977:6983   */\n      0x00\n        /* \"#utility.yul\":7026:7028   */\n      0x40\n        /* \"#utility.yul\":7014:7023   */\n      dup4\n        /* \"#utility.yul\":7005:7012   */\n      dup6\n        /* \"#utility.yul\":7001:7024   */\n      sub\n        /* \"#utility.yul\":6997:7029   */\n      slt\n        /* \"#utility.yul\":6994:7113   */\n      iszero\n      tag_256\n      jumpi\n        /* \"#utility.yul\":7032:7111   */\n      tag_257\n      tag_127\n      jump\t// in\n    tag_257:\n        /* \"#utility.yul\":6994:7113   */\n    tag_256:\n        /* \"#utility.yul\":7152:7153   */\n      0x00\n        /* \"#utility.yul\":7177:7230   */\n      tag_258\n        /* \"#utility.yul\":7222:7229   */\n      dup6\n        /* \"#utility.yul\":7213:7219   */\n      dup3\n        /* \"#utility.yul\":7202:7211   */\n      dup7\n        /* \"#utility.yul\":7198:7220   */\n      add\n        /* \"#utility.yul\":7177:7230   */\n      tag_132\n      jump\t// in\n    tag_258:\n        /* \"#utility.yul\":7167:7230   */\n      swap3\n      pop\n        /* \"#utility.yul\":7123:7240   */\n      pop\n        /* \"#utility.yul\":7279:7281   */\n      0x20\n        /* \"#utility.yul\":7305:7358   */\n      tag_259\n        /* \"#utility.yul\":7350:7357   */\n      dup6\n        /* \"#utility.yul\":7341:7347   */\n      dup3\n        /* \"#utility.yul\":7330:7339   */\n      dup7\n        /* \"#utility.yul\":7326:7348   */\n      add\n        /* \"#utility.yul\":7305:7358   */\n      tag_132\n      jump\t// in\n    tag_259:\n        /* \"#utility.yul\":7295:7358   */\n      swap2\n      pop\n        /* \"#utility.yul\":7250:7368   */\n      pop\n        /* \"#utility.yul\":6901:7375   */\n      swap3\n      pop\n      swap3\n      swap1\n      pop\n      jump\t// out\n        /* \"#utility.yul\":7381:8146   */\n    tag_68:\n        /* \"#utility.yul\":7467:7473   */\n      0x00\n        /* \"#utility.yul\":7475:7481   */\n      0x00\n        /* \"#utility.yul\":7483:7489   */\n      0x00\n        /* \"#utility.yul\":7491:7497   */\n      0x00\n        /* \"#utility.yul\":7540:7543   */\n      0x80\n        /* \"#utility.yul\":7528:7537   */\n      dup6\n        /* \"#utility.yul\":7519:7526   */\n      dup8\n        /* \"#utility.yul\":7515:7538   */\n      sub\n        /* \"#utility.yul\":7511:7544   */\n      slt\n        /* \"#utility.yul\":7508:7628   */\n      iszero\n      tag_261\n      jumpi\n        /* \"#utility.yul\":7547:7626   */\n      tag_262\n      tag_127\n      jump\t// in\n    tag_262:\n        /* \"#utility.yul\":7508:7628   */\n    tag_261:\n        /* \"#utility.yul\":7667:7668   */\n      0x00\n        /* \"#utility.yul\":7692:7745   */\n      tag_263\n        /* \"#utility.yul\":7737:7744   */\n      dup8\n        /* \"#utility.yul\":7728:7734   */\n      dup3\n        /* \"#utility.yul\":7717:7726   */\n      dup9\n        /* \"#utility.yul\":7713:7735   */\n      add\n        /* \"#utility.yul\":7692:7745   */\n      tag_132\n      jump\t// in\n    tag_263:\n        /* \"#utility.yul\":7682:7745   */\n      swap5\n      pop\n        /* \"#utility.yul\":7638:7755   */\n      pop\n        /* \"#utility.yul\":7794:7796   */\n      0x20\n        /* \"#utility.yul\":7820:7873   */\n      tag_264\n        /* \"#utility.yul\":7865:7872   */\n      dup8\n        /* \"#utility.yul\":7856:7862   */\n      dup3\n        /* \"#utility.yul\":7845:7854   */\n      dup9\n        /* \"#utility.yul\":7841:7863   */\n      add\n        /* \"#utility.yul\":7820:7873   */\n      tag_132\n      jump\t// in\n    tag_264:\n        /* \"#utility.yul\":7810:7873   */\n      swap4\n      pop\n        /* \"#utility.yul\":7765:7883   */\n      pop\n        /* \"#utility.yul\":7922:7924   */\n      0x40\n        /* \"#utility.yul\":7948:8001   */\n      tag_265\n        /* \"#utility.yul\":7993:8000   */\n      dup8\n        /* \"#utility.yul\":7984:7990   */\n      dup3\n        /* \"#utility.yul\":7973:7982   */\n      dup9\n        /* \"#utility.yul\":7969:7991   */\n      add\n        /* \"#utility.yul\":7948:8001   */\n      tag_135\n      jump\t// in\n    tag_265:\n        /* \"#utility.yul\":7938:8001   */\n      swap3\n      pop\n        /* \"#utility.yul\":7893:8011   */\n      pop\n        /* \"#utility.yul\":8050:8052   */\n      0x60\n        /* \"#utility.yul\":8076:8129   */\n      tag_266\n        /* \"#utility.yul\":8121:8128   */\n      dup8\n        /* \"#utility.yul\":8112:8118   */\n      dup3\n        /* \"#utility.yul\":8101:8110   */\n      dup9\n        /* \"#utility.yul\":8097:8119   */\n      add\n        /* \"#utility.yul\":8076:8129   */\n      tag_135\n      jump\t// in\n    tag_266:\n        /* \"#utility.yul\":8066:8129   */\n      swap2\n      pop\n        /* \"#utility.yul\":8021:8139   */\n      pop\n        /* \"#utility.yul\":7381:8146   */\n      swap3\n      swap6\n      swap2\n      swap5\n      pop\n      swap3\n      pop\n      jump\t// out\n        /* \"#utility.yul\":8152:8332   */\n    tag_148:\n        /* \"#utility.yul\":8200:8277   */\n      0x4e487b7100000000000000000000000000000000000000000000000000000000\n        /* \"#utility.yul\":8197:8198   */\n      0x00\n        /* \"#utility.yul\":8190:8278   */\n      mstore\n        /* \"#utility.yul\":8297:8301   */\n      0x11\n        /* \"#utility.yul\":8294:8295   */\n      0x04\n        /* \"#utility.yul\":8287:8302   */\n      mstore\n        /* \"#utility.yul\":8321:8325   */\n      0x24\n        /* \"#utility.yul\":8318:8319   */\n      0x00\n        /* \"#utility.yul\":8311:8326   */\n      revert\n        /* \"#utility.yul\":8338:8532   */\n    tag_77:\n        /* \"#utility.yul\":8378:8382   */\n      0x00\n        /* \"#utility.yul\":8398:8418   */\n      tag_269\n        /* \"#utility.yul\":8416:8417   */\n      dup3\n        /* \"#utility.yul\":8398:8418   */\n      tag_133\n      jump\t// in\n    tag_269:\n        /* \"#utility.yul\":8393:8418   */\n      swap2\n      pop\n        /* \"#utility.yul\":8432:8452   */\n      tag_270\n        /* \"#utility.yul\":8450:8451   */\n      dup4\n        /* \"#utility.yul\":8432:8452   */\n      tag_133\n      jump\t// in\n    tag_270:\n        /* \"#utility.yul\":8427:8452   */\n      swap3\n      pop\n        /* \"#utility.yul\":8476:8477   */\n      dup3\n        /* \"#utility.yul\":8473:8474   */\n      dup3\n        /* \"#utility.yul\":8469:8478   */\n      sub\n        /* \"#utility.yul\":8461:8478   */\n      swap1\n      pop\n        /* \"#utility.yul\":8500:8501   */\n      dup2\n        /* \"#utility.yul\":8494:8498   */\n      dup2\n        /* \"#utility.yul\":8491:8502   */\n      gt\n        /* \"#utility.yul\":8488:8525   */\n      iszero\n      tag_271\n      jumpi\n        /* \"#utility.yul\":8505:8523   */\n      tag_272\n      tag_148\n      jump\t// in\n    tag_272:\n        /* \"#utility.yul\":8488:8525   */\n    tag_271:\n        /* \"#utility.yul\":8338:8532   */\n      swap3\n      swap2\n      pop\n      pop\n      jump\t// out\n        /* \"#utility.yul\":8538:8729   */\n    tag_79:\n        /* \"#utility.yul\":8578:8581   */\n      0x00\n        /* \"#utility.yul\":8597:8617   */\n      tag_274\n        /* \"#utility.yul\":8615:8616   */\n      dup3\n        /* \"#utility.yul\":8597:8617   */\n      tag_133\n      jump\t// in\n    tag_274:\n        /* \"#utility.yul\":8592:8617   */\n      swap2\n      pop\n        /* \"#utility.yul\":8631:8651   */\n      tag_275\n        /* \"#utility.yul\":8649:8650   */\n      dup4\n        /* \"#utility.yul\":8631:8651   */\n      tag_133\n      jump\t// in\n    tag_275:\n        /* \"#utility.yul\":8626:8651   */\n      swap3\n      pop\n        /* \"#utility.yul\":8674:8675   */\n      dup3\n        /* \"#utility.yul\":8671:8672   */\n      dup3\n        /* \"#utility.yul\":8667:8676   */\n      add\n        /* \"#utility.yul\":8660:8676   */\n      swap1\n      pop\n        /* \"#utility.yul\":8695:8698   */\n      dup1\n        /* \"#utility.yul\":8692:8693   */\n      dup3\n        /* \"#utility.yul\":8689:8699   */\n      gt\n        /* \"#utility.yul\":8686:8722   */\n      iszero\n      tag_276\n      jumpi\n        /* \"#utility.yul\":8702:8720   */\n      tag_277\n      tag_148\n      jump\t// in\n    tag_277:\n        /* \"#utility.yul\":8686:8722   */\n    tag_276:\n        /* \"#utility.yul\":8538:8729   */\n      swap3\n      swap2\n      pop\n      pop\n      jump\t// out\n        /* \"#utility.yul\":8735:8853   */\n    tag_149:\n        /* \"#utility.yul\":8822:8846   */\n      tag_279\n        /* \"#utility.yul\":8840:8845   */\n      dup2\n        /* \"#utility.yul\":8822:8846   */\n      tag_130\n      jump\t// in\n    tag_279:\n        /* \"#utility.yul\":8817:8820   */\n      dup3\n        /* \"#utility.yul\":8810:8847   */\n      mstore\n        /* \"#utility.yul\":8735:8853   */\n      pop\n      pop\n      jump\t// out\n        /* \"#utility.yul\":8859:9191   */\n    tag_81:\n        /* \"#utility.yul\":8980:8984   */\n      0x00\n        /* \"#utility.yul\":9018:9020   */\n      0x40\n        /* \"#utility.yul\":9007:9016   */\n      dup3\n        /* \"#utility.yul\":9003:9021   */\n      add\n        /* \"#utility.yul\":8995:9021   */\n      swap1\n      pop\n        /* \"#utility.yul\":9031:9102   */\n      tag_281\n        /* \"#utility.yul\":9099:9100   */\n      0x00\n        /* \"#utility.yul\":9088:9097   */\n      dup4\n        /* \"#utility.yul\":9084:9101   */\n      add\n        /* \"#utility.yul\":9075:9081   */\n      dup6\n        /* \"#utility.yul\":9031:9102   */\n      tag_149\n      jump\t// in\n    tag_281:\n        /* \"#utility.yul\":9112:9184   */\n      tag_282\n        /* \"#utility.yul\":9180:9182   */\n      0x20\n        /* \"#utility.yul\":9169:9178   */\n      dup4\n        /* \"#utility.yul\":9165:9183   */\n      add\n        /* \"#utility.yul\":9156:9162   */\n      dup5\n        /* \"#utility.yul\":9112:9184   */\n      tag_136\n      jump\t// in\n    tag_282:\n        /* \"#utility.yul\":8859:9191   */\n      swap4\n      swap3\n      pop\n      pop\n      pop\n      jump\t// out\n        /* \"#utility.yul\":9197:9526   */\n    tag_90:\n        /* \"#utility.yul\":9256:9262   */\n      0x00\n        /* \"#utility.yul\":9305:9307   */\n      0x20\n        /* \"#utility.yul\":9293:9302   */\n      dup3\n        /* \"#utility.yul\":9284:9291   */\n      dup5\n        /* \"#utility.yul\":9280:9303   */\n      sub\n        /* \"#utility.yul\":9276:9308   */\n      slt\n        /* \"#utility.yul\":9273:9392   */\n      iszero\n      tag_284\n      jumpi\n        /* \"#utility.yul\":9311:9390   */\n      tag_285\n      tag_127\n      jump\t// in\n    tag_285:\n        /* \"#utility.yul\":9273:9392   */\n    tag_284:\n        /* \"#utility.yul\":9431:9432   */\n      0x00\n        /* \"#utility.yul\":9456:9509   */\n      tag_286\n        /* \"#utility.yul\":9501:9508   */\n      dup5\n        /* \"#utility.yul\":9492:9498   */\n      dup3\n        /* \"#utility.yul\":9481:9490   */\n      dup6\n        /* \"#utility.yul\":9477:9499   */\n      add\n        /* \"#utility.yul\":9456:9509   */\n      tag_132\n      jump\t// in\n    tag_286:\n        /* \"#utility.yul\":9446:9509   */\n      swap2\n      pop\n        /* \"#utility.yul\":9402:9519   */\n      pop\n        /* \"#utility.yul\":9197:9526   */\n      swap3\n      swap2\n      pop\n      pop\n      jump\t// out\n        /* \"#utility.yul\":9532:9621   */\n    tag_150:\n        /* \"#utility.yul\":9568:9575   */\n      0x00\n        /* \"#utility.yul\":9608:9614   */\n      0xffff\n        /* \"#utility.yul\":9601:9606   */\n      dup3\n        /* \"#utility.yul\":9597:9615   */\n      and\n        /* \"#utility.yul\":9586:9615   */\n      swap1\n      pop\n        /* \"#utility.yul\":9532:9621   */\n      swap2\n      swap1\n      pop\n      jump\t// out\n        /* \"#utility.yul\":9627:9747   */\n    tag_151:\n        /* \"#utility.yul\":9699:9722   */\n      tag_289\n        /* \"#utility.yul\":9716:9721   */\n      dup2\n        /* \"#utility.yul\":9699:9722   */\n      tag_150\n      jump\t// in\n    tag_289:\n        /* \"#utility.yul\":9692:9697   */\n      dup2\n        /* \"#utility.yul\":9689:9723   */\n      eq\n        /* \"#utility.yul\":9679:9741   */\n      tag_290\n      jumpi\n        /* \"#utility.yul\":9737:9738   */\n      0x00\n        /* \"#utility.yul\":9734:9735   */\n      0x00\n        /* \"#utility.yul\":9727:9739   */\n      revert\n        /* \"#utility.yul\":9679:9741   */\n    tag_290:\n        /* \"#utility.yul\":9627:9747   */\n      pop\n      jump\t// out\n        /* \"#utility.yul\":9753:9890   */\n    tag_152:\n        /* \"#utility.yul\":9798:9803   */\n      0x00\n        /* \"#utility.yul\":9836:9842   */\n      dup2\n        /* \"#utility.yul\":9823:9843   */\n      calldataload\n        /* \"#utility.yul\":9814:9843   */\n      swap1\n      pop\n        /* \"#utility.yul\":9852:9884   */\n      tag_292\n        /* \"#utility.yul\":9878:9883   */\n      dup2\n        /* \"#utility.yul\":9852:9884   */\n      tag_151\n      jump\t// in\n    tag_292:\n        /* \"#utility.yul\":9753:9890   */\n      swap3\n      swap2\n      pop\n      pop\n      jump\t// out\n        /* \"#utility.yul\":9896:10223   */\n    tag_92:\n        /* \"#utility.yul\":9954:9960   */\n      0x00\n        /* \"#utility.yul\":10003:10005   */\n      0x20\n        /* \"#utility.yul\":9991:10000   */\n      dup3\n        /* \"#utility.yul\":9982:9989   */\n      dup5\n        /* \"#utility.yul\":9978:10001   */\n      sub\n        /* \"#utility.yul\":9974:10006   */\n      slt\n        /* \"#utility.yul\":9971:10090   */\n      iszero\n      tag_294\n      jumpi\n        /* \"#utility.yul\":10009:10088   */\n      tag_295\n      tag_127\n      jump\t// in\n    tag_295:\n        /* \"#utility.yul\":9971:10090   */\n    tag_294:\n        /* \"#utility.yul\":10129:10130   */\n      0x00\n        /* \"#utility.yul\":10154:10206   */\n      tag_296\n        /* \"#utility.yul\":10198:10205   */\n      dup5\n        /* \"#utility.yul\":10189:10195   */\n      dup3\n        /* \"#utility.yul\":10178:10187   */\n      dup6\n        /* \"#utility.yul\":10174:10196   */\n      add\n        /* \"#utility.yul\":10154:10206   */\n      tag_152\n      jump\t// in\n    tag_296:\n        /* \"#utility.yul\":10144:10206   */\n      swap2\n      pop\n        /* \"#utility.yul\":10100:10216   */\n      pop\n        /* \"#utility.yul\":9896:10223   */\n      swap3\n      swap2\n      pop\n      pop\n      jump\t// out\n        /* \"#utility.yul\":10229:10334   */\n    tag_153:\n        /* \"#utility.yul\":10265:10272   */\n      0x00\n        /* \"#utility.yul\":10305:10327   */\n      0xffffffffffffffffffff\n        /* \"#utility.yul\":10298:10303   */\n      dup3\n        /* \"#utility.yul\":10294:10328   */\n      and\n        /* \"#utility.yul\":10283:10328   */\n      swap1\n      pop\n        /* \"#utility.yul\":10229:10334   */\n      swap2\n      swap1\n      pop\n      jump\t// out\n        /* \"#utility.yul\":10340:10460   */\n    tag_154:\n        /* \"#utility.yul\":10412:10435   */\n      tag_299\n        /* \"#utility.yul\":10429:10434   */\n      dup2\n        /* \"#utility.yul\":10412:10435   */\n      tag_153\n      jump\t// in\n    tag_299:\n        /* \"#utility.yul\":10405:10410   */\n      dup2\n        /* \"#utility.yul\":10402:10436   */\n      eq\n        /* \"#utility.yul\":10392:10454   */\n      tag_300\n      jumpi\n        /* \"#utility.yul\":10450:10451   */\n      0x00\n        /* \"#utility.yul\":10447:10448   */\n      0x00\n        /* \"#utility.yul\":10440:10452   */\n      revert\n        /* \"#utility.yul\":10392:10454   */\n    tag_300:\n        /* \"#utility.yul\":10340:10460   */\n      pop\n      jump\t// out\n        /* \"#utility.yul\":10466:10603   */\n    tag_155:\n        /* \"#utility.yul\":10511:10516   */\n      0x00\n        /* \"#utility.yul\":10549:10555   */\n      dup2\n        /* \"#utility.yul\":10536:10556   */\n      calldataload\n        /* \"#utility.yul\":10527:10556   */\n      swap1\n      pop\n        /* \"#utility.yul\":10565:10597   */\n      tag_302\n        /* \"#utility.yul\":10591:10596   */\n      dup2\n        /* \"#utility.yul\":10565:10597   */\n      tag_154\n      jump\t// in\n    tag_302:\n        /* \"#utility.yul\":10466:10603   */\n      swap3\n      swap2\n      pop\n      pop\n      jump\t// out\n        /* \"#utility.yul\":10609:10936   */\n    tag_94:\n        /* \"#utility.yul\":10667:10673   */\n      0x00\n        /* \"#utility.yul\":10716:10718   */\n      0x20\n        /* \"#utility.yul\":10704:10713   */\n      dup3\n        /* \"#utility.yul\":10695:10702   */\n      dup5\n        /* \"#utility.yul\":10691:10714   */\n      sub\n        /* \"#utility.yul\":10687:10719   */\n      slt\n        /* \"#utility.yul\":10684:10803   */\n      iszero\n      tag_304\n      jumpi\n        /* \"#utility.yul\":10722:10801   */\n      tag_305\n      tag_127\n      jump\t// in\n    tag_305:\n        /* \"#utility.yul\":10684:10803   */\n    tag_304:\n        /* \"#utility.yul\":10842:10843   */\n      0x00\n        /* \"#utility.yul\":10867:10919   */\n      tag_306\n        /* \"#utility.yul\":10911:10918   */\n      dup5\n        /* \"#utility.yul\":10902:10908   */\n      dup3\n        /* \"#utility.yul\":10891:10900   */\n      dup6\n        /* \"#utility.yul\":10887:10909   */\n      add\n        /* \"#utility.yul\":10867:10919   */\n      tag_155\n      jump\t// in\n    tag_306:\n        /* \"#utility.yul\":10857:10919   */\n      swap2\n      pop\n        /* \"#utility.yul\":10813:10929   */\n      pop\n        /* \"#utility.yul\":10609:10936   */\n      swap3\n      swap2\n      pop\n      pop\n      jump\t// out\n        /* \"#utility.yul\":10942:11002   */\n    tag_156:\n        /* \"#utility.yul\":10970:10973   */\n      0x00\n        /* \"#utility.yul\":10991:10996   */\n      dup2\n        /* \"#utility.yul\":10984:10996   */\n      swap1\n      pop\n        /* \"#utility.yul\":10942:11002   */\n      swap2\n      swap1\n      pop\n      jump\t// out\n        /* \"#utility.yul\":11008:11148   */\n    tag_157:\n        /* \"#utility.yul\":11057:11066   */\n      0x00\n        /* \"#utility.yul\":11090:11142   */\n      tag_309\n        /* \"#utility.yul\":11108:11141   */\n      tag_310\n        /* \"#utility.yul\":11117:11140   */\n      tag_311\n        /* \"#utility.yul\":11134:11139   */\n      dup5\n        /* \"#utility.yul\":11117:11140   */\n      tag_153\n      jump\t// in\n    tag_311:\n        /* \"#utility.yul\":11108:11141   */\n      tag_156\n      jump\t// in\n    tag_310:\n        /* \"#utility.yul\":11090:11142   */\n      tag_133\n      jump\t// in\n    tag_309:\n        /* \"#utility.yul\":11077:11142   */\n      swap1\n      pop\n        /* \"#utility.yul\":11008:11148   */\n      swap2\n      swap1\n      pop\n      jump\t// out\n        /* \"#utility.yul\":11154:11283   */\n    tag_158:\n        /* \"#utility.yul\":11240:11276   */\n      tag_313\n        /* \"#utility.yul\":11270:11275   */\n      dup2\n        /* \"#utility.yul\":11240:11276   */\n      tag_157\n      jump\t// in\n    tag_313:\n        /* \"#utility.yul\":11235:11238   */\n      dup3\n        /* \"#utility.yul\":11228:11277   */\n      mstore\n        /* \"#utility.yul\":11154:11283   */\n      pop\n      pop\n      jump\t// out\n        /* \"#utility.yul\":11289:11509   */\n    tag_99:\n        /* \"#utility.yul\":11381:11385   */\n      0x00\n        /* \"#utility.yul\":11419:11421   */\n      0x20\n        /* \"#utility.yul\":11408:11417   */\n      dup3\n        /* \"#utility.yul\":11404:11422   */\n      add\n        /* \"#utility.yul\":11396:11422   */\n      swap1\n      pop\n        /* \"#utility.yul\":11432:11502   */\n      tag_315\n        /* \"#utility.yul\":11499:11500   */\n      0x00\n        /* \"#utility.yul\":11488:11497   */\n      dup4\n        /* \"#utility.yul\":11484:11501   */\n      add\n        /* \"#utility.yul\":11475:11481   */\n      dup5\n        /* \"#utility.yul\":11432:11502   */\n      tag_158\n      jump\t// in\n    tag_315:\n        /* \"#utility.yul\":11289:11509   */\n      swap3\n      swap2\n      pop\n      pop\n      jump\t// out\n        /* \"#utility.yul\":11515:11632   */\n    tag_159:\n        /* \"#utility.yul\":11624:11625   */\n      0x00\n        /* \"#utility.yul\":11621:11622   */\n      0x00\n        /* \"#utility.yul\":11614:11626   */\n      revert\n        /* \"#utility.yul\":11638:11740   */\n    tag_160:\n        /* \"#utility.yul\":11679:11685   */\n      0x00\n        /* \"#utility.yul\":11730:11732   */\n      0x1f\n        /* \"#utility.yul\":11726:11733   */\n      not\n        /* \"#utility.yul\":11721:11723   */\n      0x1f\n        /* \"#utility.yul\":11714:11719   */\n      dup4\n        /* \"#utility.yul\":11710:11724   */\n      add\n        /* \"#utility.yul\":11706:11734   */\n      and\n        /* \"#utility.yul\":11696:11734   */\n      swap1\n      pop\n        /* \"#utility.yul\":11638:11740   */\n      swap2\n      swap1\n      pop\n      jump\t// out\n        /* \"#utility.yul\":11746:11926   */\n    tag_161:\n        /* \"#utility.yul\":11794:11871   */\n      0x4e487b7100000000000000000000000000000000000000000000000000000000\n        /* \"#utility.yul\":11791:11792   */\n      0x00\n        /* \"#utility.yul\":11784:11872   */\n      mstore\n        /* \"#utility.yul\":11891:11895   */\n      0x41\n        /* \"#utility.yul\":11888:11889   */\n      0x04\n        /* \"#utility.yul\":11881:11896   */\n      mstore\n        /* \"#utility.yul\":11915:11919   */\n      0x24\n        /* \"#utility.yul\":11912:11913   */\n      0x00\n        /* \"#utility.yul\":11905:11920   */\n      revert\n        /* \"#utility.yul\":11932:12213   */\n    tag_162:\n        /* \"#utility.yul\":12015:12042   */\n      tag_320\n        /* \"#utility.yul\":12037:12041   */\n      dup3\n        /* \"#utility.yul\":12015:12042   */\n      tag_160\n      jump\t// in\n    tag_320:\n        /* \"#utility.yul\":12007:12013   */\n      dup2\n        /* \"#utility.yul\":12003:12043   */\n      add\n        /* \"#utility.yul\":12145:12151   */\n      dup2\n        /* \"#utility.yul\":12133:12143   */\n      dup2\n        /* \"#utility.yul\":12130:12152   */\n      lt\n        /* \"#utility.yul\":12109:12127   */\n      0xffffffffffffffff\n        /* \"#utility.yul\":12097:12107   */\n      dup3\n        /* \"#utility.yul\":12094:12128   */\n      gt\n        /* \"#utility.yul\":12091:12153   */\n      or\n        /* \"#utility.yul\":12088:12176   */\n      iszero\n      tag_321\n      jumpi\n        /* \"#utility.yul\":12156:12174   */\n      tag_322\n      tag_161\n      jump\t// in\n    tag_322:\n        /* \"#utility.yul\":12088:12176   */\n    tag_321:\n        /* \"#utility.yul\":12196:12206   */\n      dup1\n        /* \"#utility.yul\":12192:12194   */\n      0x40\n        /* \"#utility.yul\":12185:12207   */\n      mstore\n        /* \"#utility.yul\":11975:12213   */\n      pop\n        /* \"#utility.yul\":11932:12213   */\n      pop\n      pop\n      jump\t// out\n        /* \"#utility.yul\":12219:12348   */\n    tag_163:\n        /* \"#utility.yul\":12253:12259   */\n      0x00\n        /* \"#utility.yul\":12280:12300   */\n      tag_324\n      tag_126\n      jump\t// in\n    tag_324:\n        /* \"#utility.yul\":12270:12300   */\n      swap1\n      pop\n        /* \"#utility.yul\":12309:12342   */\n      tag_325\n        /* \"#utility.yul\":12337:12341   */\n      dup3\n        /* \"#utility.yul\":12329:12335   */\n      dup3\n        /* \"#utility.yul\":12309:12342   */\n      tag_162\n      jump\t// in\n    tag_325:\n        /* \"#utility.yul\":12219:12348   */\n      swap2\n      swap1\n      pop\n      jump\t// out\n        /* \"#utility.yul\":12477:12620   */\n    tag_165:\n        /* \"#utility.yul\":12534:12539   */\n      0x00\n        /* \"#utility.yul\":12565:12571   */\n      dup2\n        /* \"#utility.yul\":12559:12572   */\n      mload\n        /* \"#utility.yul\":12550:12572   */\n      swap1\n      pop\n        /* \"#utility.yul\":12581:12614   */\n      tag_328\n        /* \"#utility.yul\":12608:12613   */\n      dup2\n        /* \"#utility.yul\":12581:12614   */\n      tag_134\n      jump\t// in\n    tag_328:\n        /* \"#utility.yul\":12477:12620   */\n      swap3\n      swap2\n      pop\n      pop\n      jump\t// out\n        /* \"#utility.yul\":12651:13259   */\n    tag_166:\n        /* \"#utility.yul\":12738:12743   */\n      0x00\n        /* \"#utility.yul\":12782:12786   */\n      0x40\n        /* \"#utility.yul\":12770:12779   */\n      dup3\n        /* \"#utility.yul\":12765:12768   */\n      dup5\n        /* \"#utility.yul\":12761:12780   */\n      sub\n        /* \"#utility.yul\":12757:12787   */\n      slt\n        /* \"#utility.yul\":12754:12871   */\n      iszero\n      tag_330\n      jumpi\n        /* \"#utility.yul\":12790:12869   */\n      tag_331\n      tag_159\n      jump\t// in\n    tag_331:\n        /* \"#utility.yul\":12754:12871   */\n    tag_330:\n        /* \"#utility.yul\":12889:12910   */\n      tag_332\n        /* \"#utility.yul\":12905:12909   */\n      0x40\n        /* \"#utility.yul\":12889:12910   */\n      tag_163\n      jump\t// in\n    tag_332:\n        /* \"#utility.yul\":12880:12910   */\n      swap1\n      pop\n        /* \"#utility.yul\":12969:12970   */\n      0x00\n        /* \"#utility.yul\":13009:13069   */\n      tag_333\n        /* \"#utility.yul\":13065:13068   */\n      dup5\n        /* \"#utility.yul\":13056:13062   */\n      dup3\n        /* \"#utility.yul\":13045:13054   */\n      dup6\n        /* \"#utility.yul\":13041:13063   */\n      add\n        /* \"#utility.yul\":13009:13069   */\n      tag_165\n      jump\t// in\n    tag_333:\n        /* \"#utility.yul\":13002:13006   */\n      0x00\n        /* \"#utility.yul\":12995:13000   */\n      dup4\n        /* \"#utility.yul\":12991:13007   */\n      add\n        /* \"#utility.yul\":12984:13070   */\n      mstore\n        /* \"#utility.yul\":12920:13081   */\n      pop\n        /* \"#utility.yul\":13139:13141   */\n      0x20\n        /* \"#utility.yul\":13180:13240   */\n      tag_334\n        /* \"#utility.yul\":13236:13239   */\n      dup5\n        /* \"#utility.yul\":13227:13233   */\n      dup3\n        /* \"#utility.yul\":13216:13225   */\n      dup6\n        /* \"#utility.yul\":13212:13234   */\n      add\n        /* \"#utility.yul\":13180:13240   */\n      tag_165\n      jump\t// in\n    tag_334:\n        /* \"#utility.yul\":13173:13177   */\n      0x20\n        /* \"#utility.yul\":13166:13171   */\n      dup4\n        /* \"#utility.yul\":13162:13178   */\n      add\n        /* \"#utility.yul\":13155:13241   */\n      mstore\n        /* \"#utility.yul\":13091:13252   */\n      pop\n        /* \"#utility.yul\":12651:13259   */\n      swap3\n      swap2\n      pop\n      pop\n      jump\t// out\n        /* \"#utility.yul\":13265:13670   */\n    tag_103:\n        /* \"#utility.yul\":13362:13368   */\n      0x00\n        /* \"#utility.yul\":13411:13413   */\n      0x40\n        /* \"#utility.yul\":13399:13408   */\n      dup3\n        /* \"#utility.yul\":13390:13397   */\n      dup5\n        /* \"#utility.yul\":13386:13409   */\n      sub\n        /* \"#utility.yul\":13382:13414   */\n      slt\n        /* \"#utility.yul\":13379:13498   */\n      iszero\n      tag_336\n      jumpi\n        /* \"#utility.yul\":13417:13496   */\n      tag_337\n      tag_127\n      jump\t// in\n    tag_337:\n        /* \"#utility.yul\":13379:13498   */\n    tag_336:\n        /* \"#utility.yul\":13537:13538   */\n      0x00\n        /* \"#utility.yul\":13562:13653   */\n      tag_338\n        /* \"#utility.yul\":13645:13652   */\n      dup5\n        /* \"#utility.yul\":13636:13642   */\n      dup3\n        /* \"#utility.yul\":13625:13634   */\n      dup6\n        /* \"#utility.yul\":13621:13643   */\n      add\n        /* \"#utility.yul\":13562:13653   */\n      tag_166\n      jump\t// in\n    tag_338:\n        /* \"#utility.yul\":13552:13653   */\n      swap2\n      pop\n        /* \"#utility.yul\":13508:13663   */\n      pop\n        /* \"#utility.yul\":13265:13670   */\n      swap3\n      swap2\n      pop\n      pop\n      jump\t// out\n        /* \"#utility.yul\":13676:13999   */\n    tag_106:\n        /* \"#utility.yul\":13732:13738   */\n      0x00\n        /* \"#utility.yul\":13781:13783   */\n      0x20\n        /* \"#utility.yul\":13769:13778   */\n      dup3\n        /* \"#utility.yul\":13760:13767   */\n      dup5\n        /* \"#utility.yul\":13756:13779   */\n      sub\n        /* \"#utility.yul\":13752:13784   */\n      slt\n        /* \"#utility.yul\":13749:13868   */\n      iszero\n      tag_340\n      jumpi\n        /* \"#utility.yul\":13787:13866   */\n      tag_341\n      tag_127\n      jump\t// in\n    tag_341:\n        /* \"#utility.yul\":13749:13868   */\n    tag_340:\n        /* \"#utility.yul\":13907:13908   */\n      0x00\n        /* \"#utility.yul\":13932:13982   */\n      tag_342\n        /* \"#utility.yul\":13974:13981   */\n      dup5\n        /* \"#utility.yul\":13965:13971   */\n      dup3\n        /* \"#utility.yul\":13954:13963   */\n      dup6\n        /* \"#utility.yul\":13950:13972   */\n      add\n        /* \"#utility.yul\":13932:13982   */\n      tag_145\n      jump\t// in\n    tag_342:\n        /* \"#utility.yul\":13922:13982   */\n      swap2\n      pop\n        /* \"#utility.yul\":13878:13992   */\n      pop\n        /* \"#utility.yul\":13676:13999   */\n      swap3\n      swap2\n      pop\n      pop\n      jump\t// out\n        /* \"#utility.yul\":14005:14113   */\n    tag_167:\n        /* \"#utility.yul\":14082:14106   */\n      tag_344\n        /* \"#utility.yul\":14100:14105   */\n      dup2\n        /* \"#utility.yul\":14082:14106   */\n      tag_133\n      jump\t// in\n    tag_344:\n        /* \"#utility.yul\":14077:14080   */\n      dup3\n        /* \"#utility.yul\":14070:14107   */\n      mstore\n        /* \"#utility.yul\":14005:14113   */\n      pop\n      pop\n      jump\t// out\n        /* \"#utility.yul\":14165:14665   */\n    tag_168:\n        /* \"#utility.yul\":14306:14310   */\n      0x40\n        /* \"#utility.yul\":14301:14304   */\n      dup3\n        /* \"#utility.yul\":14297:14311   */\n      add\n        /* \"#utility.yul\":14393:14397   */\n      0x00\n        /* \"#utility.yul\":14386:14391   */\n      dup3\n        /* \"#utility.yul\":14382:14398   */\n      add\n        /* \"#utility.yul\":14376:14399   */\n      mload\n        /* \"#utility.yul\":14412:14475   */\n      tag_346\n        /* \"#utility.yul\":14469:14473   */\n      0x00\n        /* \"#utility.yul\":14464:14467   */\n      dup6\n        /* \"#utility.yul\":14460:14474   */\n      add\n        /* \"#utility.yul\":14446:14458   */\n      dup3\n        /* \"#utility.yul\":14412:14475   */\n      tag_167\n      jump\t// in\n    tag_346:\n        /* \"#utility.yul\":14321:14485   */\n      pop\n        /* \"#utility.yul\":14566:14570   */\n      0x20\n        /* \"#utility.yul\":14559:14564   */\n      dup3\n        /* \"#utility.yul\":14555:14571   */\n      add\n        /* \"#utility.yul\":14549:14572   */\n      mload\n        /* \"#utility.yul\":14585:14648   */\n      tag_347\n        /* \"#utility.yul\":14642:14646   */\n      0x20\n        /* \"#utility.yul\":14637:14640   */\n      dup6\n        /* \"#utility.yul\":14633:14647   */\n      add\n        /* \"#utility.yul\":14619:14631   */\n      dup3\n        /* \"#utility.yul\":14585:14648   */\n      tag_167\n      jump\t// in\n    tag_347:\n        /* \"#utility.yul\":14495:14658   */\n      pop\n        /* \"#utility.yul\":14275:14665   */\n      pop\n        /* \"#utility.yul\":14165:14665   */\n      pop\n      pop\n      jump\t// out\n        /* \"#utility.yul\":14671:14770   */\n    tag_169:\n        /* \"#utility.yul\":14742:14763   */\n      tag_349\n        /* \"#utility.yul\":14757:14762   */\n      dup2\n        /* \"#utility.yul\":14742:14763   */\n      tag_140\n      jump\t// in\n    tag_349:\n        /* \"#utility.yul\":14737:14740   */\n      dup3\n        /* \"#utility.yul\":14730:14764   */\n      mstore\n        /* \"#utility.yul\":14671:14770   */\n      pop\n      pop\n      jump\t// out\n        /* \"#utility.yul\":14776:14884   */\n    tag_170:\n        /* \"#utility.yul\":14853:14877   */\n      tag_351\n        /* \"#utility.yul\":14871:14876   */\n      dup2\n        /* \"#utility.yul\":14853:14877   */\n      tag_142\n      jump\t// in\n    tag_351:\n        /* \"#utility.yul\":14848:14851   */\n      dup3\n        /* \"#utility.yul\":14841:14878   */\n      mstore\n        /* \"#utility.yul\":14776:14884   */\n      pop\n      pop\n      jump\t// out\n        /* \"#utility.yul\":14938:15803   */\n    tag_171:\n        /* \"#utility.yul\":15081:15085   */\n      0x80\n        /* \"#utility.yul\":15076:15079   */\n      dup3\n        /* \"#utility.yul\":15072:15086   */\n      add\n        /* \"#utility.yul\":15170:15174   */\n      0x00\n        /* \"#utility.yul\":15163:15168   */\n      dup3\n        /* \"#utility.yul\":15159:15175   */\n      add\n        /* \"#utility.yul\":15153:15176   */\n      mload\n        /* \"#utility.yul\":15189:15252   */\n      tag_353\n        /* \"#utility.yul\":15246:15250   */\n      0x00\n        /* \"#utility.yul\":15241:15244   */\n      dup6\n        /* \"#utility.yul\":15237:15251   */\n      add\n        /* \"#utility.yul\":15223:15235   */\n      dup3\n        /* \"#utility.yul\":15189:15252   */\n      tag_167\n      jump\t// in\n    tag_353:\n        /* \"#utility.yul\":15096:15262   */\n      pop\n        /* \"#utility.yul\":15350:15354   */\n      0x20\n        /* \"#utility.yul\":15343:15348   */\n      dup3\n        /* \"#utility.yul\":15339:15355   */\n      add\n        /* \"#utility.yul\":15333:15356   */\n      mload\n        /* \"#utility.yul\":15369:15426   */\n      tag_354\n        /* \"#utility.yul\":15420:15424   */\n      0x20\n        /* \"#utility.yul\":15415:15418   */\n      dup6\n        /* \"#utility.yul\":15411:15425   */\n      add\n        /* \"#utility.yul\":15397:15409   */\n      dup3\n        /* \"#utility.yul\":15369:15426   */\n      tag_169\n      jump\t// in\n    tag_354:\n        /* \"#utility.yul\":15272:15436   */\n      pop\n        /* \"#utility.yul\":15524:15528   */\n      0x40\n        /* \"#utility.yul\":15517:15522   */\n      dup3\n        /* \"#utility.yul\":15513:15529   */\n      add\n        /* \"#utility.yul\":15507:15530   */\n      mload\n        /* \"#utility.yul\":15543:15606   */\n      tag_355\n        /* \"#utility.yul\":15600:15604   */\n      0x40\n        /* \"#utility.yul\":15595:15598   */\n      dup6\n        /* \"#utility.yul\":15591:15605   */\n      add\n        /* \"#utility.yul\":15577:15589   */\n      dup3\n        /* \"#utility.yul\":15543:15606   */\n      tag_170\n      jump\t// in\n    tag_355:\n        /* \"#utility.yul\":15446:15616   */\n      pop\n        /* \"#utility.yul\":15704:15708   */\n      0x60\n        /* \"#utility.yul\":15697:15702   */\n      dup3\n        /* \"#utility.yul\":15693:15709   */\n      add\n        /* \"#utility.yul\":15687:15710   */\n      mload\n        /* \"#utility.yul\":15723:15786   */\n      tag_356\n        /* \"#utility.yul\":15780:15784   */\n      0x60\n        /* \"#utility.yul\":15775:15778   */\n      dup6\n        /* \"#utility.yul\":15771:15785   */\n      add\n        /* \"#utility.yul\":15757:15769   */\n      dup3\n        /* \"#utility.yul\":15723:15786   */\n      tag_170\n      jump\t// in\n    tag_356:\n        /* \"#utility.yul\":15626:15796   */\n      pop\n        /* \"#utility.yul\":15050:15803   */\n      pop\n        /* \"#utility.yul\":14938:15803   */\n      pop\n      pop\n      jump\t// out\n        /* \"#utility.yul\":15871:16699   */\n    tag_172:\n        /* \"#utility.yul\":16038:16042   */\n      0xe0\n        /* \"#utility.yul\":16033:16036   */\n      dup3\n        /* \"#utility.yul\":16029:16043   */\n      add\n        /* \"#utility.yul\":16129:16133   */\n      0x00\n        /* \"#utility.yul\":16122:16127   */\n      dup3\n        /* \"#utility.yul\":16118:16134   */\n      add\n        /* \"#utility.yul\":16112:16135   */\n      mload\n        /* \"#utility.yul\":16148:16211   */\n      tag_358\n        /* \"#utility.yul\":16205:16209   */\n      0x00\n        /* \"#utility.yul\":16200:16203   */\n      dup6\n        /* \"#utility.yul\":16196:16210   */\n      add\n        /* \"#utility.yul\":16182:16194   */\n      dup3\n        /* \"#utility.yul\":16148:16211   */\n      tag_167\n      jump\t// in\n    tag_358:\n        /* \"#utility.yul\":16053:16221   */\n      pop\n        /* \"#utility.yul\":16309:16313   */\n      0x20\n        /* \"#utility.yul\":16302:16307   */\n      dup3\n        /* \"#utility.yul\":16298:16314   */\n      add\n        /* \"#utility.yul\":16292:16315   */\n      mload\n        /* \"#utility.yul\":16328:16445   */\n      tag_359\n        /* \"#utility.yul\":16439:16443   */\n      0x20\n        /* \"#utility.yul\":16434:16437   */\n      dup6\n        /* \"#utility.yul\":16430:16444   */\n      add\n        /* \"#utility.yul\":16416:16428   */\n      dup3\n        /* \"#utility.yul\":16328:16445   */\n      tag_168\n      jump\t// in\n    tag_359:\n        /* \"#utility.yul\":16231:16455   */\n      pop\n        /* \"#utility.yul\":16544:16548   */\n      0x40\n        /* \"#utility.yul\":16537:16542   */\n      dup3\n        /* \"#utility.yul\":16533:16549   */\n      add\n        /* \"#utility.yul\":16527:16550   */\n      mload\n        /* \"#utility.yul\":16563:16682   */\n      tag_360\n        /* \"#utility.yul\":16676:16680   */\n      0x60\n        /* \"#utility.yul\":16671:16674   */\n      dup6\n        /* \"#utility.yul\":16667:16681   */\n      add\n        /* \"#utility.yul\":16653:16665   */\n      dup3\n        /* \"#utility.yul\":16563:16682   */\n      tag_171\n      jump\t// in\n    tag_360:\n        /* \"#utility.yul\":16465:16692   */\n      pop\n        /* \"#utility.yul\":16007:16699   */\n      pop\n        /* \"#utility.yul\":15871:16699   */\n      pop\n      pop\n      jump\t// out\n        /* \"#utility.yul\":16705:17068   */\n    tag_110:\n        /* \"#utility.yul\":16868:16872   */\n      0x00\n        /* \"#utility.yul\":16906:16909   */\n      0xe0\n        /* \"#utility.yul\":16895:16904   */\n      dup3\n        /* \"#utility.yul\":16891:16910   */\n      add\n        /* \"#utility.yul\":16883:16910   */\n      swap1\n      pop\n        /* \"#utility.yul\":16920:17061   */\n      tag_362\n        /* \"#utility.yul\":17058:17059   */\n      0x00\n        /* \"#utility.yul\":17047:17056   */\n      dup4\n        /* \"#utility.yul\":17043:17060   */\n      add\n        /* \"#utility.yul\":17034:17040   */\n      dup5\n        /* \"#utility.yul\":16920:17061   */\n      tag_172\n      jump\t// in\n    tag_362:\n        /* \"#utility.yul\":16705:17068   */\n      swap3\n      swap2\n      pop\n      pop\n      jump\t// out\n        /* \"#utility.yul\":17074:17425   */\n    tag_114:\n        /* \"#utility.yul\":17144:17150   */\n      0x00\n        /* \"#utility.yul\":17193:17195   */\n      0x20\n        /* \"#utility.yul\":17181:17190   */\n      dup3\n        /* \"#utility.yul\":17172:17179   */\n      dup5\n        /* \"#utility.yul\":17168:17191   */\n      sub\n        /* \"#utility.yul\":17164:17196   */\n      slt\n        /* \"#utility.yul\":17161:17280   */\n      iszero\n      tag_364\n      jumpi\n        /* \"#utility.yul\":17199:17278   */\n      tag_365\n      tag_127\n      jump\t// in\n    tag_365:\n        /* \"#utility.yul\":17161:17280   */\n    tag_364:\n        /* \"#utility.yul\":17319:17320   */\n      0x00\n        /* \"#utility.yul\":17344:17408   */\n      tag_366\n        /* \"#utility.yul\":17400:17407   */\n      dup5\n        /* \"#utility.yul\":17391:17397   */\n      dup3\n        /* \"#utility.yul\":17380:17389   */\n      dup6\n        /* \"#utility.yul\":17376:17398   */\n      add\n        /* \"#utility.yul\":17344:17408   */\n      tag_165\n      jump\t// in\n    tag_366:\n        /* \"#utility.yul\":17334:17408   */\n      swap2\n      pop\n        /* \"#utility.yul\":17290:17418   */\n      pop\n        /* \"#utility.yul\":17074:17425   */\n      swap3\n      swap2\n      pop\n      pop\n      jump\t// out\n\n    auxdata: 0xa2646970667358221220b63bf7e47e0512ad2a77c15ceb2262eea930f2b0c2a1ef3b872750ddcdb4427864736f6c634300081b0033\n}\n",
				"bytecode": {
					"linkReferences": {},
					"object": "6080604052348015600e575f5ffd5b506115418061001c5f395ff3fe608060405234801561000f575f5ffd5b50600436106100b1575f3560e01c8063598af9e71161006f578063598af9e7146101d65780635d28a34c146102065780638119c06514610236578063b6363cf214610254578063fe99049a14610284578063ff76c2b4146102b4576100b1565b8062fdd58e146100b557806301ffc9a7146100e5578063095bcdb614610115578063426a8493146101455780634272ee1814610175578063558a7297146101a6575b5f5ffd5b6100cf60048036038101906100ca9190610cf9565b6102be565b6040516100dc9190610d46565b60405180910390f35b6100ff60048036038101906100fa9190610db4565b6102de565b60405161010c9190610df9565b60405180910390f35b61012f600480360381019061012a9190610e12565b61033f565b60405161013c9190610df9565b60405180910390f35b61015f600480360381019061015a9190610e12565b610477565b60405161016c9190610df9565b60405180910390f35b61018f600480360381019061018a9190610e62565b610575565b60405161019d929190610eb7565b60405180910390f35b6101c060048036038101906101bb9190610f08565b610585565b6040516101cd9190610df9565b60405180910390f35b6101f060048036038101906101eb9190610f46565b610683565b6040516101fd9190610d46565b60405180910390f35b610220600480360381019061021b9190610fb8565b6106ae565b60405161022d9190610d46565b60405180910390f35b61023e6108cb565b60405161024b9190610df9565b60405180910390f35b61026e60048036038101906102699190610fe3565b6108cf565b60405161027b9190610df9565b60405180910390f35b61029e60048036038101906102999190611021565b6108f8565b6040516102ab9190610df9565b60405180910390f35b6102bc610c3f565b005b6001602052815f5260405f20602052805f5260405f205f91509150505481565b5f6301ffc9a760e01b827bffffffffffffffffffffffffffffffffffffffffffffffffffffffff191614806103385750630f632fb360e01b827bffffffffffffffffffffffffffffffffffffffffffffffffffffffff1916145b9050919050565b5f8160015f3373ffffffffffffffffffffffffffffffffffffffff1673ffffffffffffffffffffffffffffffffffffffff1681526020019081526020015f205f8581526020019081526020015f205f82825461039b91906110b2565b925050819055508160015f8673ffffffffffffffffffffffffffffffffffffffff1673ffffffffffffffffffffffffffffffffffffffff1681526020019081526020015f205f8581526020019081526020015f205f8282546103fd91906110e5565b92505081905550828473ffffffffffffffffffffffffffffffffffffffff163373ffffffffffffffffffffffffffffffffffffffff167f1b3d7edb2e9c0b0e7c525b20aaaef0f5940d2ed71663c7d39266ecafac7288593386604051610464929190611127565b60405180910390a4600190509392505050565b5f8160025f3373ffffffffffffffffffffffffffffffffffffffff1673ffffffffffffffffffffffffffffffffffffffff1681526020019081526020015f205f8673ffffffffffffffffffffffffffffffffffffffff1673ffffffffffffffffffffffffffffffffffffffff1681526020019081526020015f205f8581526020019081526020015f2081905550828473ffffffffffffffffffffffffffffffffffffffff163373ffffffffffffffffffffffffffffffffffffffff167fb3fd5071835887567a0671151121894ddccc2842f1d10bedad13e0d17cace9a7856040516105629190610d46565b60405180910390a4600190509392505050565b5f5f60fa91506104de9050915091565b5f815f5f3373ffffffffffffffffffffffffffffffffffffffff1673ffffffffffffffffffffffffffffffffffffffff1681526020019081526020015f205f8573ffffffffffffffffffffffffffffffffffffffff1673ffffffffffffffffffffffffffffffffffffffff1681526020019081526020015f205f6101000a81548160ff0219169083151502179055508273ffffffffffffffffffffffffffffffffffffffff163373ffffffffffffffffffffffffffffffffffffffff167fceb576d9f15e4e200fdb5096d64d5dfd667e16def20c1eefd14256d8e3faa267846040516106719190610df9565b60405180910390a36001905092915050565b6002602052825f5260405f20602052815f5260405f20602052805f5260405f205f9250925050505481565b5f5f6106f08360200160208101906106c6919061114e565b8460400160208101906106d991906111b0565b855f0160208101906106eb919061121a565b610c41565b90505f836020016020810190610706919061114e565b73ffffffffffffffffffffffffffffffffffffffff16633dc355fe855f016020810190610733919061121a565b6040518263ffffffff1660e01b815260040161074f919061127e565b60408051808303815f875af115801561076a573d5f5f3e3d5ffd5b505050506040513d601f19601f8201168201806040525081019061078e9190611384565b90505f5f61079b84610575565b915091505f6040518060800160405280886060013581526020018860800160208101906107c891906113af565b15158152602001846fffffffffffffffffffffffffffffffff168152602001836fffffffffffffffffffffffffffffffff1681525090505f604051806060016040528089604001602081019061081e91906111b0565b61ffff168152602001868152602001838152509050876020016020810190610846919061114e565b73ffffffffffffffffffffffffffffffffffffffff1663e176b360826040518263ffffffff1660e01b815260040161087e91906114c7565b6020604051808303815f875af115801561089a573d5f5f3e3d5ffd5b505050506040513d601f19601f820116820180604052508101906108be91906114e0565b9650505050505050919050565b5f90565b5f602052815f5260405f20602052805f5260405f205f915091509054906101000a900460ff1681565b5f8473ffffffffffffffffffffffffffffffffffffffff163373ffffffffffffffffffffffffffffffffffffffff16141580156109b657505f5f8673ffffffffffffffffffffffffffffffffffffffff1673ffffffffffffffffffffffffffffffffffffffff1681526020019081526020015f205f3373ffffffffffffffffffffffffffffffffffffffff1673ffffffffffffffffffffffffffffffffffffffff1681526020019081526020015f205f9054906101000a900460ff16155b15610b07575f60025f8773ffffffffffffffffffffffffffffffffffffffff1673ffffffffffffffffffffffffffffffffffffffff1681526020019081526020015f205f3373ffffffffffffffffffffffffffffffffffffffff1673ffffffffffffffffffffffffffffffffffffffff1681526020019081526020015f205f8581526020019081526020015f205490507fffffffffffffffffffffffffffffffffffffffffffffffffffffffffffffffff8114610b05578281610a7991906110b2565b60025f8873ffffffffffffffffffffffffffffffffffffffff1673ffffffffffffffffffffffffffffffffffffffff1681526020019081526020015f205f3373ffffffffffffffffffffffffffffffffffffffff1673ffffffffffffffffffffffffffffffffffffffff1681526020019081526020015f205f8681526020019081526020015f20819055505b505b8160015f8773ffffffffffffffffffffffffffffffffffffffff1673ffffffffffffffffffffffffffffffffffffffff1681526020019081526020015f205f8581526020019081526020015f205f828254610b6291906110b2565b925050819055508160015f8673ffffffffffffffffffffffffffffffffffffffff1673ffffffffffffffffffffffffffffffffffffffff1681526020019081526020015f205f8581526020019081526020015f205f828254610bc491906110e5565b92505081905550828473ffffffffffffffffffffffffffffffffffffffff168673ffffffffffffffffffffffffffffffffffffffff167f1b3d7edb2e9c0b0e7c525b20aaaef0f5940d2ed71663c7d39266ecafac7288593386604051610c2b929190611127565b60405180910390a460019050949350505050565b565b5f8390508060601b90508260501b8117905081811790509392505050565b5f604051905090565b5f5ffd5b5f73ffffffffffffffffffffffffffffffffffffffff82169050919050565b5f610c9582610c6c565b9050919050565b610ca581610c8b565b8114610caf575f5ffd5b50565b5f81359050610cc081610c9c565b92915050565b5f819050919050565b610cd881610cc6565b8114610ce2575f5ffd5b50565b5f81359050610cf381610ccf565b92915050565b5f5f60408385031215610d0f57610d0e610c68565b5b5f610d1c85828601610cb2565b9250506020610d2d85828601610ce5565b9150509250929050565b610d4081610cc6565b82525050565b5f602082019050610d595f830184610d37565b92915050565b5f7fffffffff0000000000000000000000000000000000000000000000000000000082169050919050565b610d9381610d5f565b8114610d9d575f5ffd5b50565b5f81359050610dae81610d8a565b92915050565b5f60208284031215610dc957610dc8610c68565b5b5f610dd684828501610da0565b91505092915050565b5f8115159050919050565b610df381610ddf565b82525050565b5f602082019050610e0c5f830184610dea565b92915050565b5f5f5f60608486031215610e2957610e28610c68565b5b5f610e3686828701610cb2565b9350506020610e4786828701610ce5565b9250506040610e5886828701610ce5565b9150509250925092565b5f60208284031215610e7757610e76610c68565b5b5f610e8484828501610ce5565b91505092915050565b5f6fffffffffffffffffffffffffffffffff82169050919050565b610eb181610e8d565b82525050565b5f604082019050610eca5f830185610ea8565b610ed76020830184610ea8565b9392505050565b610ee781610ddf565b8114610ef1575f5ffd5b50565b5f81359050610f0281610ede565b92915050565b5f5f60408385031215610f1e57610f1d610c68565b5b5f610f2b85828601610cb2565b9250506020610f3c85828601610ef4565b9150509250929050565b5f5f5f60608486031215610f5d57610f5c610c68565b5b5f610f6a86828701610cb2565b9350506020610f7b86828701610cb2565b9250506040610f8c86828701610ce5565b9150509250925092565b5f5ffd5b5f60a08284031215610faf57610fae610f96565b5b81905092915050565b5f60a08284031215610fcd57610fcc610c68565b5b5f610fda84828501610f9a565b91505092915050565b5f5f60408385031215610ff957610ff8610c68565b5b5f61100685828601610cb2565b925050602061101785828601610cb2565b9150509250929050565b5f5f5f5f6080858703121561103957611038610c68565b5b5f61104687828801610cb2565b945050602061105787828801610cb2565b935050604061106887828801610ce5565b925050606061107987828801610ce5565b91505092959194509250565b7f4e487b71000000000000000000000000000000000000000000000000000000005f52601160045260245ffd5b5f6110bc82610cc6565b91506110c783610cc6565b92508282039050818111156110df576110de611085565b5b92915050565b5f6110ef82610cc6565b91506110fa83610cc6565b925082820190508082111561111257611111611085565b5b92915050565b61112181610c8b565b82525050565b5f60408201905061113a5f830185611118565b6111476020830184610d37565b9392505050565b5f6020828403121561116357611162610c68565b5b5f61117084828501610cb2565b91505092915050565b5f61ffff82169050919050565b61118f81611179565b8114611199575f5ffd5b50565b5f813590506111aa81611186565b92915050565b5f602082840312156111c5576111c4610c68565b5b5f6111d28482850161119c565b91505092915050565b5f69ffffffffffffffffffff82169050919050565b6111f9816111db565b8114611203575f5ffd5b50565b5f81359050611214816111f0565b92915050565b5f6020828403121561122f5761122e610c68565b5b5f61123c84828501611206565b91505092915050565b5f819050919050565b5f61126861126361125e846111db565b611245565b610cc6565b9050919050565b6112788161124e565b82525050565b5f6020820190506112915f83018461126f565b92915050565b5f5ffd5b5f601f19601f8301169050919050565b7f4e487b71000000000000000000000000000000000000000000000000000000005f52604160045260245ffd5b6112e18261129b565b810181811067ffffffffffffffff82111715611300576112ff6112ab565b5b80604052505050565b5f611312610c5f565b905061131e82826112d8565b919050565b5f8151905061133181610ccf565b92915050565b5f6040828403121561134c5761134b611297565b5b6113566040611309565b90505f61136584828501611323565b5f83015250602061137884828501611323565b60208301525092915050565b5f6040828403121561139957611398610c68565b5b5f6113a684828501611337565b91505092915050565b5f602082840312156113c4576113c3610c68565b5b5f6113d184828501610ef4565b91505092915050565b6113e381610cc6565b82525050565b604082015f8201516113fd5f8501826113da565b50602082015161141060208501826113da565b50505050565b61141f81610ddf565b82525050565b61142e81610e8d565b82525050565b608082015f8201516114485f8501826113da565b50602082015161145b6020850182611416565b50604082015161146e6040850182611425565b5060608201516114816060850182611425565b50505050565b60e082015f82015161149b5f8501826113da565b5060208201516114ae60208501826113e9565b5060408201516114c16060850182611434565b50505050565b5f60e0820190506114da5f830184611487565b92915050565b5f602082840312156114f5576114f4610c68565b5b5f61150284828501611323565b9150509291505056fea2646970667358221220b63bf7e47e0512ad2a77c15ceb2262eea930f2b0c2a1ef3b872750ddcdb4427864736f6c634300081b0033",
					"opcodes": "PUSH1 0x80 PUSH1 0x40 MSTORE CALLVALUE DUP1 ISZERO PUSH1 0xE JUMPI PUSH0 PUSH0 REVERT JUMPDEST POP PUSH2 0x1541 DUP1 PUSH2 0x1C PUSH0 CODECOPY PUSH0 RETURN INVALID PUSH1 0x80 PUSH1 0x40 MSTORE CALLVALUE DUP1 ISZERO PUSH2 0xF JUMPI PUSH0 PUSH0 REVERT JUMPDEST POP PUSH1 0x4 CALLDATASIZE LT PUSH2 0xB1 JUMPI PUSH0 CALLDATALOAD PUSH1 0xE0 SHR DUP1 PUSH4 0x598AF9E7 GT PUSH2 0x6F JUMPI DUP1 PUSH4 0x598AF9E7 EQ PUSH2 0x1D6 JUMPI DUP1 PUSH4 0x5D28A34C EQ PUSH2 0x206 JUMPI DUP1 PUSH4 0x8119C065 EQ PUSH2 0x236 JUMPI DUP1 PUSH4 0xB6363CF2 EQ PUSH2 0x254 JUMPI DUP1 PUSH4 0xFE99049A EQ PUSH2 0x284 JUMPI DUP1 PUSH4 0xFF76C2B4 EQ PUSH2 0x2B4 JUMPI PUSH2 0xB1 JUMP JUMPDEST DUP1 PUSH3 0xFDD58E EQ PUSH2 0xB5 JUMPI DUP1 PUSH4 0x1FFC9A7 EQ PUSH2 0xE5 JUMPI DUP1 PUSH4 0x95BCDB6 EQ PUSH2 0x115 JUMPI DUP1 PUSH4 0x426A8493 EQ PUSH2 0x145 JUMPI DUP1 PUSH4 0x4272EE18 EQ PUSH2 0x175 JUMPI DUP1 PUSH4 0x558A7297 EQ PUSH2 0x1A6 JUMPI JUMPDEST PUSH0 PUSH0 REVERT JUMPDEST PUSH2 0xCF PUSH1 0x4 DUP1 CALLDATASIZE SUB DUP2 ADD SWAP1 PUSH2 0xCA SWAP2 SWAP1 PUSH2 0xCF9 JUMP JUMPDEST PUSH2 0x2BE JUMP JUMPDEST PUSH1 0x40 MLOAD PUSH2 0xDC SWAP2 SWAP1 PUSH2 0xD46 JUMP JUMPDEST PUSH1 0x40 MLOAD DUP1 SWAP2 SUB SWAP1 RETURN JUMPDEST PUSH2 0xFF PUSH1 0x4 DUP1 CALLDATASIZE SUB DUP2 ADD SWAP1 PUSH2 0xFA SWAP2 SWAP1 PUSH2 0xDB4 JUMP JUMPDEST PUSH2 0x2DE JUMP JUMPDEST PUSH1 0x40 MLOAD PUSH2 0x10C SWAP2 SWAP1 PUSH2 0xDF9 JUMP JUMPDEST PUSH1 0x40 MLOAD DUP1 SWAP2 SUB SWAP1 RETURN JUMPDEST PUSH2 0x12F PUSH1 0x4 DUP1 CALLDATASIZE SUB DUP2 ADD SWAP1 PUSH2 0x12A SWAP2 SWAP1 PUSH2 0xE12 JUMP JUMPDEST PUSH2 0x33F JUMP JUMPDEST PUSH1 0x40 MLOAD PUSH2 0x13C SWAP2 SWAP1 PUSH2 0xDF9 JUMP JUMPDEST PUSH1 0x40 MLOAD DUP1 SWAP2 SUB SWAP1 RETURN JUMPDEST PUSH2 0x15F PUSH1 0x4 DUP1 CALLDATASIZE SUB DUP2 ADD SWAP1 PUSH2 0x15A SWAP2 SWAP1 PUSH2 0xE12 JUMP JUMPDEST PUSH2 0x477 JUMP JUMPDEST PUSH1 0x40 MLOAD PUSH2 0x16C SWAP2 SWAP1 PUSH2 0xDF9 JUMP JUMPDEST PUSH1 0x40 MLOAD DUP1 SWAP2 SUB SWAP1 RETURN JUMPDEST PUSH2 0x18F PUSH1 0x4 DUP1 CALLDATASIZE SUB DUP2 ADD SWAP1 PUSH2 0x18A SWAP2 SWAP1 PUSH2 0xE62 JUMP JUMPDEST PUSH2 0x575 JUMP JUMPDEST PUSH1 0x40 MLOAD PUSH2 0x19D SWAP3 SWAP2 SWAP1 PUSH2 0xEB7 JUMP JUMPDEST PUSH1 0x40 MLOAD DUP1 SWAP2 SUB SWAP1 RETURN JUMPDEST PUSH2 0x1C0 PUSH1 0x4 DUP1 CALLDATASIZE SUB DUP2 ADD SWAP1 PUSH2 0x1BB SWAP2 SWAP1 PUSH2 0xF08 JUMP JUMPDEST PUSH2 0x585 JUMP JUMPDEST PUSH1 0x40 MLOAD PUSH2 0x1CD SWAP2 SWAP1 PUSH2 0xDF9 JUMP JUMPDEST PUSH1 0x40 MLOAD DUP1 SWAP2 SUB SWAP1 RETURN JUMPDEST PUSH2 0x1F0 PUSH1 0x4 DUP1 CALLDATASIZE SUB DUP2 ADD SWAP1 PUSH2 0x1EB SWAP2 SWAP1 PUSH2 0xF46 JUMP JUMPDEST PUSH2 0x683 JUMP JUMPDEST PUSH1 0x40 MLOAD PUSH2 0x1FD SWAP2 SWAP1 PUSH2 0xD46 JUMP JUMPDEST PUSH1 0x40 MLOAD DUP1 SWAP2 SUB SWAP1 RETURN JUMPDEST PUSH2 0x220 PUSH1 0x4 DUP1 CALLDATASIZE SUB DUP2 ADD SWAP1 PUSH2 0x21B SWAP2 SWAP1 PUSH2 0xFB8 JUMP JUMPDEST PUSH2 0x6AE JUMP JUMPDEST PUSH1 0x40 MLOAD PUSH2 0x22D SWAP2 SWAP1 PUSH2 0xD46 JUMP JUMPDEST PUSH1 0x40 MLOAD DUP1 SWAP2 SUB SWAP1 RETURN JUMPDEST PUSH2 0x23E PUSH2 0x8CB JUMP JUMPDEST PUSH1 0x40 MLOAD PUSH2 0x24B SWAP2 SWAP1 PUSH2 0xDF9 JUMP JUMPDEST PUSH1 0x40 MLOAD DUP1 SWAP2 SUB SWAP1 RETURN JUMPDEST PUSH2 0x26E PUSH1 0x4 DUP1 CALLDATASIZE SUB DUP2 ADD SWAP1 PUSH2 0x269 SWAP2 SWAP1 PUSH2 0xFE3 JUMP JUMPDEST PUSH2 0x8CF JUMP JUMPDEST PUSH1 0x40 MLOAD PUSH2 0x27B SWAP2 SWAP1 PUSH2 0xDF9 JUMP JUMPDEST PUSH1 0x40 MLOAD DUP1 SWAP2 SUB SWAP1 RETURN JUMPDEST PUSH2 0x29E PUSH1 0x4 DUP1 CALLDATASIZE SUB DUP2 ADD SWAP1 PUSH2 0x299 SWAP2 SWAP1 PUSH2 0x1021 JUMP JUMPDEST PUSH2 0x8F8 JUMP JUMPDEST PUSH1 0x40 MLOAD PUSH2 0x2AB SWAP2 SWAP1 PUSH2 0xDF9 JUMP JUMPDEST PUSH1 0x40 MLOAD DUP1 SWAP2 SUB SWAP1 RETURN JUMPDEST PUSH2 0x2BC PUSH2 0xC3F JUMP JUMPDEST STOP JUMPDEST PUSH1 0x1 PUSH1 0x20 MSTORE DUP2 PUSH0 MSTORE PUSH1 0x40 PUSH0 KECCAK256 PUSH1 0x20 MSTORE DUP1 PUSH0 MSTORE PUSH1 0x40 PUSH0 KECCAK256 PUSH0 SWAP2 POP SWAP2 POP POP SLOAD DUP2 JUMP JUMPDEST PUSH0 PUSH4 0x1FFC9A7 PUSH1 0xE0 SHL DUP3 PUSH28 0xFFFFFFFFFFFFFFFFFFFFFFFFFFFFFFFFFFFFFFFFFFFFFFFFFFFFFFFF NOT AND EQ DUP1 PUSH2 0x338 JUMPI POP PUSH4 0xF632FB3 PUSH1 0xE0 SHL DUP3 PUSH28 0xFFFFFFFFFFFFFFFFFFFFFFFFFFFFFFFFFFFFFFFFFFFFFFFFFFFFFFFF NOT AND EQ JUMPDEST SWAP1 POP SWAP2 SWAP1 POP JUMP JUMPDEST PUSH0 DUP2 PUSH1 0x1 PUSH0 CALLER PUSH20 0xFFFFFFFFFFFFFFFFFFFFFFFFFFFFFFFFFFFFFFFF AND PUSH20 0xFFFFFFFFFFFFFFFFFFFFFFFFFFFFFFFFFFFFFFFF AND DUP2 MSTORE PUSH1 0x20 ADD SWAP1 DUP2 MSTORE PUSH1 0x20 ADD PUSH0 KECCAK256 PUSH0 DUP6 DUP2 MSTORE PUSH1 0x20 ADD SWAP1 DUP2 MSTORE PUSH1 0x20 ADD PUSH0 KECCAK256 PUSH0 DUP3 DUP3 SLOAD PUSH2 0x39B SWAP2 SWAP1 PUSH2 0x10B2 JUMP JUMPDEST SWAP3 POP POP DUP2 SWAP1 SSTORE POP DUP2 PUSH1 0x1 PUSH0 DUP7 PUSH20 0xFFFFFFFFFFFFFFFFFFFFFFFFFFFFFFFFFFFFFFFF AND PUSH20 0xFFFFFFFFFFFFFFFFFFFFFFFFFFFFFFFFFFFFFFFF AND DUP2 MSTORE PUSH1 0x20 ADD SWAP1 DUP2 MSTORE PUSH1 0x20 ADD PUSH0 KECCAK256 PUSH0 DUP6 DUP2 MSTORE PUSH1 0x20 ADD SWAP1 DUP2 MSTORE PUSH1 0x20 ADD PUSH0 KECCAK256 PUSH0 DUP3 DUP3 SLOAD PUSH2 0x3FD SWAP2 SWAP1 PUSH2 0x10E5 JUMP JUMPDEST SWAP3 POP POP DUP2 SWAP1 SSTORE POP DUP3 DUP5 PUSH20 0xFFFFFFFFFFFFFFFFFFFFFFFFFFFFFFFFFFFFFFFF AND CALLER PUSH20 0xFFFFFFFFFFFFFFFFFFFFFFFFFFFFFFFFFFFFFFFF AND PUSH32 0x1B3D7EDB2E9C0B0E7C525B20AAAEF0F5940D2ED71663C7D39266ECAFAC728859 CALLER DUP7 PUSH1 0x40 MLOAD PUSH2 0x464 SWAP3 SWAP2 SWAP1 PUSH2 0x1127 JUMP JUMPDEST PUSH1 0x40 MLOAD DUP1 SWAP2 SUB SWAP1 LOG4 PUSH1 0x1 SWAP1 POP SWAP4 SWAP3 POP POP POP JUMP JUMPDEST PUSH0 DUP2 PUSH1 0x2 PUSH0 CALLER PUSH20 0xFFFFFFFFFFFFFFFFFFFFFFFFFFFFFFFFFFFFFFFF AND PUSH20 0xFFFFFFFFFFFFFFFFFFFFFFFFFFFFFFFFFFFFFFFF AND DUP2 MSTORE PUSH1 0x20 ADD SWAP1 DUP2 MSTORE PUSH1 0x20 ADD PUSH0 KECCAK256 PUSH0 DUP7 PUSH20 0xFFFFFFFFFFFFFFFFFFFFFFFFFFFFFFFFFFFFFFFF AND PUSH20 0xFFFFFFFFFFFFFFFFFFFFFFFFFFFFFFFFFFFFFFFF AND DUP2 MSTORE PUSH1 0x20 ADD SWAP1 DUP2 MSTORE PUSH1 0x20 ADD PUSH0 KECCAK256 PUSH0 DUP6 DUP2 MSTORE PUSH1 0x20 ADD SWAP1 DUP2 MSTORE PUSH1 0x20 ADD PUSH0 KECCAK256 DUP2 SWAP1 SSTORE POP DUP3 DUP5 PUSH20 0xFFFFFFFFFFFFFFFFFFFFFFFFFFFFFFFFFFFFFFFF AND CALLER PUSH20 0xFFFFFFFFFFFFFFFFFFFFFFFFFFFFFFFFFFFFFFFF AND PUSH32 0xB3FD5071835887567A0671151121894DDCCC2842F1D10BEDAD13E0D17CACE9A7 DUP6 PUSH1 0x40 MLOAD PUSH2 0x562 SWAP2 SWAP1 PUSH2 0xD46 JUMP JUMPDEST PUSH1 0x40 MLOAD DUP1 SWAP2 SUB SWAP1 LOG4 PUSH1 0x1 SWAP1 POP SWAP4 SWAP3 POP POP POP JUMP JUMPDEST PUSH0 PUSH0 PUSH1 0xFA SWAP2 POP PUSH2 0x4DE SWAP1 POP SWAP2 POP SWAP2 JUMP JUMPDEST PUSH0 DUP2 PUSH0 PUSH0 CALLER PUSH20 0xFFFFFFFFFFFFFFFFFFFFFFFFFFFFFFFFFFFFFFFF AND PUSH20 0xFFFFFFFFFFFFFFFFFFFFFFFFFFFFFFFFFFFFFFFF AND DUP2 MSTORE PUSH1 0x20 ADD SWAP1 DUP2 MSTORE PUSH1 0x20 ADD PUSH0 KECCAK256 PUSH0 DUP6 PUSH20 0xFFFFFFFFFFFFFFFFFFFFFFFFFFFFFFFFFFFFFFFF AND PUSH20 0xFFFFFFFFFFFFFFFFFFFFFFFFFFFFFFFFFFFFFFFF AND DUP2 MSTORE PUSH1 0x20 ADD SWAP1 DUP2 MSTORE PUSH1 0x20 ADD PUSH0 KECCAK256 PUSH0 PUSH2 0x100 EXP DUP2 SLOAD DUP2 PUSH1 0xFF MUL NOT AND SWAP1 DUP4 ISZERO ISZERO MUL OR SWAP1 SSTORE POP DUP3 PUSH20 0xFFFFFFFFFFFFFFFFFFFFFFFFFFFFFFFFFFFFFFFF AND CALLER PUSH20 0xFFFFFFFFFFFFFFFFFFFFFFFFFFFFFFFFFFFFFFFF AND PUSH32 0xCEB576D9F15E4E200FDB5096D64D5DFD667E16DEF20C1EEFD14256D8E3FAA267 DUP5 PUSH1 0x40 MLOAD PUSH2 0x671 SWAP2 SWAP1 PUSH2 0xDF9 JUMP JUMPDEST PUSH1 0x40 MLOAD DUP1 SWAP2 SUB SWAP1 LOG3 PUSH1 0x1 SWAP1 POP SWAP3 SWAP2 POP POP JUMP JUMPDEST PUSH1 0x2 PUSH1 0x20 MSTORE DUP3 PUSH0 MSTORE PUSH1 0x40 PUSH0 KECCAK256 PUSH1 0x20 MSTORE DUP2 PUSH0 MSTORE PUSH1 0x40 PUSH0 KECCAK256 PUSH1 0x20 MSTORE DUP1 PUSH0 MSTORE PUSH1 0x40 PUSH0 KECCAK256 PUSH0 SWAP3 POP SWAP3 POP POP POP SLOAD DUP2 JUMP JUMPDEST PUSH0 PUSH0 PUSH2 0x6F0 DUP4 PUSH1 0x20 ADD PUSH1 0x20 DUP2 ADD SWAP1 PUSH2 0x6C6 SWAP2 SWAP1 PUSH2 0x114E JUMP JUMPDEST DUP5 PUSH1 0x40 ADD PUSH1 0x20 DUP2 ADD SWAP1 PUSH2 0x6D9 SWAP2 SWAP1 PUSH2 0x11B0 JUMP JUMPDEST DUP6 PUSH0 ADD PUSH1 0x20 DUP2 ADD SWAP1 PUSH2 0x6EB SWAP2 SWAP1 PUSH2 0x121A JUMP JUMPDEST PUSH2 0xC41 JUMP JUMPDEST SWAP1 POP PUSH0 DUP4 PUSH1 0x20 ADD PUSH1 0x20 DUP2 ADD SWAP1 PUSH2 0x706 SWAP2 SWAP1 PUSH2 0x114E JUMP JUMPDEST PUSH20 0xFFFFFFFFFFFFFFFFFFFFFFFFFFFFFFFFFFFFFFFF AND PUSH4 0x3DC355FE DUP6 PUSH0 ADD PUSH1 0x20 DUP2 ADD SWAP1 PUSH2 0x733 SWAP2 SWAP1 PUSH2 0x121A JUMP JUMPDEST PUSH1 0x40 MLOAD DUP3 PUSH4 0xFFFFFFFF AND PUSH1 0xE0 SHL DUP2 MSTORE PUSH1 0x4 ADD PUSH2 0x74F SWAP2 SWAP1 PUSH2 0x127E JUMP JUMPDEST PUSH1 0x40 DUP1 MLOAD DUP1 DUP4 SUB DUP2 PUSH0 DUP8 GAS CALL ISZERO DUP1 ISZERO PUSH2 0x76A JUMPI RETURNDATASIZE PUSH0 PUSH0 RETURNDATACOPY RETURNDATASIZE PUSH0 REVERT JUMPDEST POP POP POP POP PUSH1 0x40 MLOAD RETURNDATASIZE PUSH1 0x1F NOT PUSH1 0x1F DUP3 ADD AND DUP3 ADD DUP1 PUSH1 0x40 MSTORE POP DUP2 ADD SWAP1 PUSH2 0x78E SWAP2 SWAP1 PUSH2 0x1384 JUMP JUMPDEST SWAP1 POP PUSH0 PUSH0 PUSH2 0x79B DUP5 PUSH2 0x575 JUMP JUMPDEST SWAP2 POP SWAP2 POP PUSH0 PUSH1 0x40 MLOAD DUP1 PUSH1 0x80 ADD PUSH1 0x40 MSTORE DUP1 DUP9 PUSH1 0x60 ADD CALLDATALOAD DUP2 MSTORE PUSH1 0x20 ADD DUP9 PUSH1 0x80 ADD PUSH1 0x20 DUP2 ADD SWAP1 PUSH2 0x7C8 SWAP2 SWAP1 PUSH2 0x13AF JUMP JUMPDEST ISZERO ISZERO DUP2 MSTORE PUSH1 0x20 ADD DUP5 PUSH16 0xFFFFFFFFFFFFFFFFFFFFFFFFFFFFFFFF AND DUP2 MSTORE PUSH1 0x20 ADD DUP4 PUSH16 0xFFFFFFFFFFFFFFFFFFFFFFFFFFFFFFFF AND DUP2 MSTORE POP SWAP1 POP PUSH0 PUSH1 0x40 MLOAD DUP1 PUSH1 0x60 ADD PUSH1 0x40 MSTORE DUP1 DUP10 PUSH1 0x40 ADD PUSH1 0x20 DUP2 ADD SWAP1 PUSH2 0x81E SWAP2 SWAP1 PUSH2 0x11B0 JUMP JUMPDEST PUSH2 0xFFFF AND DUP2 MSTORE PUSH1 0x20 ADD DUP7 DUP2 MSTORE PUSH1 0x20 ADD DUP4 DUP2 MSTORE POP SWAP1 POP DUP8 PUSH1 0x20 ADD PUSH1 0x20 DUP2 ADD SWAP1 PUSH2 0x846 SWAP2 SWAP1 PUSH2 0x114E JUMP JUMPDEST PUSH20 0xFFFFFFFFFFFFFFFFFFFFFFFFFFFFFFFFFFFFFFFF AND PUSH4 0xE176B360 DUP3 PUSH1 0x40 MLOAD DUP3 PUSH4 0xFFFFFFFF AND PUSH1 0xE0 SHL DUP2 MSTORE PUSH1 0x4 ADD PUSH2 0x87E SWAP2 SWAP1 PUSH2 0x14C7 JUMP JUMPDEST PUSH1 0x20 PUSH1 0x40 MLOAD DUP1 DUP4 SUB DUP2 PUSH0 DUP8 GAS CALL ISZERO DUP1 ISZERO PUSH2 0x89A JUMPI RETURNDATASIZE PUSH0 PUSH0 RETURNDATACOPY RETURNDATASIZE PUSH0 REVERT JUMPDEST POP POP POP POP PUSH1 0x40 MLOAD RETURNDATASIZE PUSH1 0x1F NOT PUSH1 0x1F DUP3 ADD AND DUP3 ADD DUP1 PUSH1 0x40 MSTORE POP DUP2 ADD SWAP1 PUSH2 0x8BE SWAP2 SWAP1 PUSH2 0x14E0 JUMP JUMPDEST SWAP7 POP POP POP POP POP POP POP SWAP2 SWAP1 POP JUMP JUMPDEST PUSH0 SWAP1 JUMP JUMPDEST PUSH0 PUSH1 0x20 MSTORE DUP2 PUSH0 MSTORE PUSH1 0x40 PUSH0 KECCAK256 PUSH1 0x20 MSTORE DUP1 PUSH0 MSTORE PUSH1 0x40 PUSH0 KECCAK256 PUSH0 SWAP2 POP SWAP2 POP SWAP1 SLOAD SWAP1 PUSH2 0x100 EXP SWAP1 DIV PUSH1 0xFF AND DUP2 JUMP JUMPDEST PUSH0 DUP5 PUSH20 0xFFFFFFFFFFFFFFFFFFFFFFFFFFFFFFFFFFFFFFFF AND CALLER PUSH20 0xFFFFFFFFFFFFFFFFFFFFFFFFFFFFFFFFFFFFFFFF AND EQ ISZERO DUP1 ISZERO PUSH2 0x9B6 JUMPI POP PUSH0 PUSH0 DUP7 PUSH20 0xFFFFFFFFFFFFFFFFFFFFFFFFFFFFFFFFFFFFFFFF AND PUSH20 0xFFFFFFFFFFFFFFFFFFFFFFFFFFFFFFFFFFFFFFFF AND DUP2 MSTORE PUSH1 0x20 ADD SWAP1 DUP2 MSTORE PUSH1 0x20 ADD PUSH0 KECCAK256 PUSH0 CALLER PUSH20 0xFFFFFFFFFFFFFFFFFFFFFFFFFFFFFFFFFFFFFFFF AND PUSH20 0xFFFFFFFFFFFFFFFFFFFFFFFFFFFFFFFFFFFFFFFF AND DUP2 MSTORE PUSH1 0x20 ADD SWAP1 DUP2 MSTORE PUSH1 0x20 ADD PUSH0 KECCAK256 PUSH0 SWAP1 SLOAD SWAP1 PUSH2 0x100 EXP SWAP1 DIV PUSH1 0xFF AND ISZERO JUMPDEST ISZERO PUSH2 0xB07 JUMPI PUSH0 PUSH1 0x2 PUSH0 DUP8 PUSH20 0xFFFFFFFFFFFFFFFFFFFFFFFFFFFFFFFFFFFFFFFF AND PUSH20 0xFFFFFFFFFFFFFFFFFFFFFFFFFFFFFFFFFFFFFFFF AND DUP2 MSTORE PUSH1 0x20 ADD SWAP1 DUP2 MSTORE PUSH1 0x20 ADD PUSH0 KECCAK256 PUSH0 CALLER PUSH20 0xFFFFFFFFFFFFFFFFFFFFFFFFFFFFFFFFFFFFFFFF AND PUSH20 0xFFFFFFFFFFFFFFFFFFFFFFFFFFFFFFFFFFFFFFFF AND DUP2 MSTORE PUSH1 0x20 ADD SWAP1 DUP2 MSTORE PUSH1 0x20 ADD PUSH0 KECCAK256 PUSH0 DUP6 DUP2 MSTORE PUSH1 0x20 ADD SWAP1 DUP2 MSTORE PUSH1 0x20 ADD PUSH0 KECCAK256 SLOAD SWAP1 POP PUSH32 0xFFFFFFFFFFFFFFFFFFFFFFFFFFFFFFFFFFFFFFFFFFFFFFFFFFFFFFFFFFFFFFFF DUP2 EQ PUSH2 0xB05 JUMPI DUP3 DUP2 PUSH2 0xA79 SWAP2 SWAP1 PUSH2 0x10B2 JUMP JUMPDEST PUSH1 0x2 PUSH0 DUP9 PUSH20 0xFFFFFFFFFFFFFFFFFFFFFFFFFFFFFFFFFFFFFFFF AND PUSH20 0xFFFFFFFFFFFFFFFFFFFFFFFFFFFFFFFFFFFFFFFF AND DUP2 MSTORE PUSH1 0x20 ADD SWAP1 DUP2 MSTORE PUSH1 0x20 ADD PUSH0 KECCAK256 PUSH0 CALLER PUSH20 0xFFFFFFFFFFFFFFFFFFFFFFFFFFFFFFFFFFFFFFFF AND PUSH20 0xFFFFFFFFFFFFFFFFFFFFFFFFFFFFFFFFFFFFFFFF AND DUP2 MSTORE PUSH1 0x20 ADD SWAP1 DUP2 MSTORE PUSH1 0x20 ADD PUSH0 KECCAK256 PUSH0 DUP7 DUP2 MSTORE PUSH1 0x20 ADD SWAP1 DUP2 MSTORE PUSH1 0x20 ADD PUSH0 KECCAK256 DUP2 SWAP1 SSTORE POP JUMPDEST POP JUMPDEST DUP2 PUSH1 0x1 PUSH0 DUP8 PUSH20 0xFFFFFFFFFFFFFFFFFFFFFFFFFFFFFFFFFFFFFFFF AND PUSH20 0xFFFFFFFFFFFFFFFFFFFFFFFFFFFFFFFFFFFFFFFF AND DUP2 MSTORE PUSH1 0x20 ADD SWAP1 DUP2 MSTORE PUSH1 0x20 ADD PUSH0 KECCAK256 PUSH0 DUP6 DUP2 MSTORE PUSH1 0x20 ADD SWAP1 DUP2 MSTORE PUSH1 0x20 ADD PUSH0 KECCAK256 PUSH0 DUP3 DUP3 SLOAD PUSH2 0xB62 SWAP2 SWAP1 PUSH2 0x10B2 JUMP JUMPDEST SWAP3 POP POP DUP2 SWAP1 SSTORE POP DUP2 PUSH1 0x1 PUSH0 DUP7 PUSH20 0xFFFFFFFFFFFFFFFFFFFFFFFFFFFFFFFFFFFFFFFF AND PUSH20 0xFFFFFFFFFFFFFFFFFFFFFFFFFFFFFFFFFFFFFFFF AND DUP2 MSTORE PUSH1 0x20 ADD SWAP1 DUP2 MSTORE PUSH1 0x20 ADD PUSH0 KECCAK256 PUSH0 DUP6 DUP2 MSTORE PUSH1 0x20 ADD SWAP1 DUP2 MSTORE PUSH1 0x20 ADD PUSH0 KECCAK256 PUSH0 DUP3 DUP3 SLOAD PUSH2 0xBC4 SWAP2 SWAP1 PUSH2 0x10E5 JUMP JUMPDEST SWAP3 POP POP DUP2 SWAP1 SSTORE POP DUP3 DUP5 PUSH20 0xFFFFFFFFFFFFFFFFFFFFFFFFFFFFFFFFFFFFFFFF AND DUP7 PUSH20 0xFFFFFFFFFFFFFFFFFFFFFFFFFFFFFFFFFFFFFFFF AND PUSH32 0x1B3D7EDB2E9C0B0E7C525B20AAAEF0F5940D2ED71663C7D39266ECAFAC728859 CALLER DUP7 PUSH1 0x40 MLOAD PUSH2 0xC2B SWAP3 SWAP2 SWAP1 PUSH2 0x1127 JUMP JUMPDEST PUSH1 0x40 MLOAD DUP1 SWAP2 SUB SWAP1 LOG4 PUSH1 0x1 SWAP1 POP SWAP5 SWAP4 POP POP POP POP JUMP JUMPDEST JUMP JUMPDEST PUSH0 DUP4 SWAP1 POP DUP1 PUSH1 0x60 SHL SWAP1 POP DUP3 PUSH1 0x50 SHL DUP2 OR SWAP1 POP DUP2 DUP2 OR SWAP1 POP SWAP4 SWAP3 POP POP POP JUMP JUMPDEST PUSH0 PUSH1 0x40 MLOAD SWAP1 POP SWAP1 JUMP JUMPDEST PUSH0 PUSH0 REVERT JUMPDEST PUSH0 PUSH20 0xFFFFFFFFFFFFFFFFFFFFFFFFFFFFFFFFFFFFFFFF DUP3 AND SWAP1 POP SWAP2 SWAP1 POP JUMP JUMPDEST PUSH0 PUSH2 0xC95 DUP3 PUSH2 0xC6C JUMP JUMPDEST SWAP1 POP SWAP2 SWAP1 POP JUMP JUMPDEST PUSH2 0xCA5 DUP2 PUSH2 0xC8B JUMP JUMPDEST DUP2 EQ PUSH2 0xCAF JUMPI PUSH0 PUSH0 REVERT JUMPDEST POP JUMP JUMPDEST PUSH0 DUP2 CALLDATALOAD SWAP1 POP PUSH2 0xCC0 DUP2 PUSH2 0xC9C JUMP JUMPDEST SWAP3 SWAP2 POP POP JUMP JUMPDEST PUSH0 DUP2 SWAP1 POP SWAP2 SWAP1 POP JUMP JUMPDEST PUSH2 0xCD8 DUP2 PUSH2 0xCC6 JUMP JUMPDEST DUP2 EQ PUSH2 0xCE2 JUMPI PUSH0 PUSH0 REVERT JUMPDEST POP JUMP JUMPDEST PUSH0 DUP2 CALLDATALOAD SWAP1 POP PUSH2 0xCF3 DUP2 PUSH2 0xCCF JUMP JUMPDEST SWAP3 SWAP2 POP POP JUMP JUMPDEST PUSH0 PUSH0 PUSH1 0x40 DUP4 DUP6 SUB SLT ISZERO PUSH2 0xD0F JUMPI PUSH2 0xD0E PUSH2 0xC68 JUMP JUMPDEST JUMPDEST PUSH0 PUSH2 0xD1C DUP6 DUP3 DUP7 ADD PUSH2 0xCB2 JUMP JUMPDEST SWAP3 POP POP PUSH1 0x20 PUSH2 0xD2D DUP6 DUP3 DUP7 ADD PUSH2 0xCE5 JUMP JUMPDEST SWAP2 POP POP SWAP3 POP SWAP3 SWAP1 POP JUMP JUMPDEST PUSH2 0xD40 DUP2 PUSH2 0xCC6 JUMP JUMPDEST DUP3 MSTORE POP POP JUMP JUMPDEST PUSH0 PUSH1 0x20 DUP3 ADD SWAP1 POP PUSH2 0xD59 PUSH0 DUP4 ADD DUP5 PUSH2 0xD37 JUMP JUMPDEST SWAP3 SWAP2 POP POP JUMP JUMPDEST PUSH0 PUSH32 0xFFFFFFFF00000000000000000000000000000000000000000000000000000000 DUP3 AND SWAP1 POP SWAP2 SWAP1 POP JUMP JUMPDEST PUSH2 0xD93 DUP2 PUSH2 0xD5F JUMP JUMPDEST DUP2 EQ PUSH2 0xD9D JUMPI PUSH0 PUSH0 REVERT JUMPDEST POP JUMP JUMPDEST PUSH0 DUP2 CALLDATALOAD SWAP1 POP PUSH2 0xDAE DUP2 PUSH2 0xD8A JUMP JUMPDEST SWAP3 SWAP2 POP POP JUMP JUMPDEST PUSH0 PUSH1 0x20 DUP3 DUP5 SUB SLT ISZERO PUSH2 0xDC9 JUMPI PUSH2 0xDC8 PUSH2 0xC68 JUMP JUMPDEST JUMPDEST PUSH0 PUSH2 0xDD6 DUP5 DUP3 DUP6 ADD PUSH2 0xDA0 JUMP JUMPDEST SWAP2 POP POP SWAP3 SWAP2 POP POP JUMP JUMPDEST PUSH0 DUP2 ISZERO ISZERO SWAP1 POP SWAP2 SWAP1 POP JUMP JUMPDEST PUSH2 0xDF3 DUP2 PUSH2 0xDDF JUMP JUMPDEST DUP3 MSTORE POP POP JUMP JUMPDEST PUSH0 PUSH1 0x20 DUP3 ADD SWAP1 POP PUSH2 0xE0C PUSH0 DUP4 ADD DUP5 PUSH2 0xDEA JUMP JUMPDEST SWAP3 SWAP2 POP POP JUMP JUMPDEST PUSH0 PUSH0 PUSH0 PUSH1 0x60 DUP5 DUP7 SUB SLT ISZERO PUSH2 0xE29 JUMPI PUSH2 0xE28 PUSH2 0xC68 JUMP JUMPDEST JUMPDEST PUSH0 PUSH2 0xE36 DUP7 DUP3 DUP8 ADD PUSH2 0xCB2 JUMP JUMPDEST SWAP4 POP POP PUSH1 0x20 PUSH2 0xE47 DUP7 DUP3 DUP8 ADD PUSH2 0xCE5 JUMP JUMPDEST SWAP3 POP POP PUSH1 0x40 PUSH2 0xE58 DUP7 DUP3 DUP8 ADD PUSH2 0xCE5 JUMP JUMPDEST SWAP2 POP POP SWAP3 POP SWAP3 POP SWAP3 JUMP JUMPDEST PUSH0 PUSH1 0x20 DUP3 DUP5 SUB SLT ISZERO PUSH2 0xE77 JUMPI PUSH2 0xE76 PUSH2 0xC68 JUMP JUMPDEST JUMPDEST PUSH0 PUSH2 0xE84 DUP5 DUP3 DUP6 ADD PUSH2 0xCE5 JUMP JUMPDEST SWAP2 POP POP SWAP3 SWAP2 POP POP JUMP JUMPDEST PUSH0 PUSH16 0xFFFFFFFFFFFFFFFFFFFFFFFFFFFFFFFF DUP3 AND SWAP1 POP SWAP2 SWAP1 POP JUMP JUMPDEST PUSH2 0xEB1 DUP2 PUSH2 0xE8D JUMP JUMPDEST DUP3 MSTORE POP POP JUMP JUMPDEST PUSH0 PUSH1 0x40 DUP3 ADD SWAP1 POP PUSH2 0xECA PUSH0 DUP4 ADD DUP6 PUSH2 0xEA8 JUMP JUMPDEST PUSH2 0xED7 PUSH1 0x20 DUP4 ADD DUP5 PUSH2 0xEA8 JUMP JUMPDEST SWAP4 SWAP3 POP POP POP JUMP JUMPDEST PUSH2 0xEE7 DUP2 PUSH2 0xDDF JUMP JUMPDEST DUP2 EQ PUSH2 0xEF1 JUMPI PUSH0 PUSH0 REVERT JUMPDEST POP JUMP JUMPDEST PUSH0 DUP2 CALLDATALOAD SWAP1 POP PUSH2 0xF02 DUP2 PUSH2 0xEDE JUMP JUMPDEST SWAP3 SWAP2 POP POP JUMP JUMPDEST PUSH0 PUSH0 PUSH1 0x40 DUP4 DUP6 SUB SLT ISZERO PUSH2 0xF1E JUMPI PUSH2 0xF1D PUSH2 0xC68 JUMP JUMPDEST JUMPDEST PUSH0 PUSH2 0xF2B DUP6 DUP3 DUP7 ADD PUSH2 0xCB2 JUMP JUMPDEST SWAP3 POP POP PUSH1 0x20 PUSH2 0xF3C DUP6 DUP3 DUP7 ADD PUSH2 0xEF4 JUMP JUMPDEST SWAP2 POP POP SWAP3 POP SWAP3 SWAP1 POP JUMP JUMPDEST PUSH0 PUSH0 PUSH0 PUSH1 0x60 DUP5 DUP7 SUB SLT ISZERO PUSH2 0xF5D JUMPI PUSH2 0xF5C PUSH2 0xC68 JUMP JUMPDEST JUMPDEST PUSH0 PUSH2 0xF6A DUP7 DUP3 DUP8 ADD PUSH2 0xCB2 JUMP JUMPDEST SWAP4 POP POP PUSH1 0x20 PUSH2 0xF7B DUP7 DUP3 DUP8 ADD PUSH2 0xCB2 JUMP JUMPDEST SWAP3 POP POP PUSH1 0x40 PUSH2 0xF8C DUP7 DUP3 DUP8 ADD PUSH2 0xCE5 JUMP JUMPDEST SWAP2 POP POP SWAP3 POP SWAP3 POP SWAP3 JUMP JUMPDEST PUSH0 PUSH0 REVERT JUMPDEST PUSH0 PUSH1 0xA0 DUP3 DUP5 SUB SLT ISZERO PUSH2 0xFAF JUMPI PUSH2 0xFAE PUSH2 0xF96 JUMP JUMPDEST JUMPDEST DUP2 SWAP1 POP SWAP3 SWAP2 POP POP JUMP JUMPDEST PUSH0 PUSH1 0xA0 DUP3 DUP5 SUB SLT ISZERO PUSH2 0xFCD JUMPI PUSH2 0xFCC PUSH2 0xC68 JUMP JUMPDEST JUMPDEST PUSH0 PUSH2 0xFDA DUP5 DUP3 DUP6 ADD PUSH2 0xF9A JUMP JUMPDEST SWAP2 POP POP SWAP3 SWAP2 POP POP JUMP JUMPDEST PUSH0 PUSH0 PUSH1 0x40 DUP4 DUP6 SUB SLT ISZERO PUSH2 0xFF9 JUMPI PUSH2 0xFF8 PUSH2 0xC68 JUMP JUMPDEST JUMPDEST PUSH0 PUSH2 0x1006 DUP6 DUP3 DUP7 ADD PUSH2 0xCB2 JUMP JUMPDEST SWAP3 POP POP PUSH1 0x20 PUSH2 0x1017 DUP6 DUP3 DUP7 ADD PUSH2 0xCB2 JUMP JUMPDEST SWAP2 POP POP SWAP3 POP SWAP3 SWAP1 POP JUMP JUMPDEST PUSH0 PUSH0 PUSH0 PUSH0 PUSH1 0x80 DUP6 DUP8 SUB SLT ISZERO PUSH2 0x1039 JUMPI PUSH2 0x1038 PUSH2 0xC68 JUMP JUMPDEST JUMPDEST PUSH0 PUSH2 0x1046 DUP8 DUP3 DUP9 ADD PUSH2 0xCB2 JUMP JUMPDEST SWAP5 POP POP PUSH1 0x20 PUSH2 0x1057 DUP8 DUP3 DUP9 ADD PUSH2 0xCB2 JUMP JUMPDEST SWAP4 POP POP PUSH1 0x40 PUSH2 0x1068 DUP8 DUP3 DUP9 ADD PUSH2 0xCE5 JUMP JUMPDEST SWAP3 POP POP PUSH1 0x60 PUSH2 0x1079 DUP8 DUP3 DUP9 ADD PUSH2 0xCE5 JUMP JUMPDEST SWAP2 POP POP SWAP3 SWAP6 SWAP2 SWAP5 POP SWAP3 POP JUMP JUMPDEST PUSH32 0x4E487B7100000000000000000000000000000000000000000000000000000000 PUSH0 MSTORE PUSH1 0x11 PUSH1 0x4 MSTORE PUSH1 0x24 PUSH0 REVERT JUMPDEST PUSH0 PUSH2 0x10BC DUP3 PUSH2 0xCC6 JUMP JUMPDEST SWAP2 POP PUSH2 0x10C7 DUP4 PUSH2 0xCC6 JUMP JUMPDEST SWAP3 POP DUP3 DUP3 SUB SWAP1 POP DUP2 DUP2 GT ISZERO PUSH2 0x10DF JUMPI PUSH2 0x10DE PUSH2 0x1085 JUMP JUMPDEST JUMPDEST SWAP3 SWAP2 POP POP JUMP JUMPDEST PUSH0 PUSH2 0x10EF DUP3 PUSH2 0xCC6 JUMP JUMPDEST SWAP2 POP PUSH2 0x10FA DUP4 PUSH2 0xCC6 JUMP JUMPDEST SWAP3 POP DUP3 DUP3 ADD SWAP1 POP DUP1 DUP3 GT ISZERO PUSH2 0x1112 JUMPI PUSH2 0x1111 PUSH2 0x1085 JUMP JUMPDEST JUMPDEST SWAP3 SWAP2 POP POP JUMP JUMPDEST PUSH2 0x1121 DUP2 PUSH2 0xC8B JUMP JUMPDEST DUP3 MSTORE POP POP JUMP JUMPDEST PUSH0 PUSH1 0x40 DUP3 ADD SWAP1 POP PUSH2 0x113A PUSH0 DUP4 ADD DUP6 PUSH2 0x1118 JUMP JUMPDEST PUSH2 0x1147 PUSH1 0x20 DUP4 ADD DUP5 PUSH2 0xD37 JUMP JUMPDEST SWAP4 SWAP3 POP POP POP JUMP JUMPDEST PUSH0 PUSH1 0x20 DUP3 DUP5 SUB SLT ISZERO PUSH2 0x1163 JUMPI PUSH2 0x1162 PUSH2 0xC68 JUMP JUMPDEST JUMPDEST PUSH0 PUSH2 0x1170 DUP5 DUP3 DUP6 ADD PUSH2 0xCB2 JUMP JUMPDEST SWAP2 POP POP SWAP3 SWAP2 POP POP JUMP JUMPDEST PUSH0 PUSH2 0xFFFF DUP3 AND SWAP1 POP SWAP2 SWAP1 POP JUMP JUMPDEST PUSH2 0x118F DUP2 PUSH2 0x1179 JUMP JUMPDEST DUP2 EQ PUSH2 0x1199 JUMPI PUSH0 PUSH0 REVERT JUMPDEST POP JUMP JUMPDEST PUSH0 DUP2 CALLDATALOAD SWAP1 POP PUSH2 0x11AA DUP2 PUSH2 0x1186 JUMP JUMPDEST SWAP3 SWAP2 POP POP JUMP JUMPDEST PUSH0 PUSH1 0x20 DUP3 DUP5 SUB SLT ISZERO PUSH2 0x11C5 JUMPI PUSH2 0x11C4 PUSH2 0xC68 JUMP JUMPDEST JUMPDEST PUSH0 PUSH2 0x11D2 DUP5 DUP3 DUP6 ADD PUSH2 0x119C JUMP JUMPDEST SWAP2 POP POP SWAP3 SWAP2 POP POP JUMP JUMPDEST PUSH0 PUSH10 0xFFFFFFFFFFFFFFFFFFFF DUP3 AND SWAP1 POP SWAP2 SWAP1 POP JUMP JUMPDEST PUSH2 0x11F9 DUP2 PUSH2 0x11DB JUMP JUMPDEST DUP2 EQ PUSH2 0x1203 JUMPI PUSH0 PUSH0 REVERT JUMPDEST POP JUMP JUMPDEST PUSH0 DUP2 CALLDATALOAD SWAP1 POP PUSH2 0x1214 DUP2 PUSH2 0x11F0 JUMP JUMPDEST SWAP3 SWAP2 POP POP JUMP JUMPDEST PUSH0 PUSH1 0x20 DUP3 DUP5 SUB SLT ISZERO PUSH2 0x122F JUMPI PUSH2 0x122E PUSH2 0xC68 JUMP JUMPDEST JUMPDEST PUSH0 PUSH2 0x123C DUP5 DUP3 DUP6 ADD PUSH2 0x1206 JUMP JUMPDEST SWAP2 POP POP SWAP3 SWAP2 POP POP JUMP JUMPDEST PUSH0 DUP2 SWAP1 POP SWAP2 SWAP1 POP JUMP JUMPDEST PUSH0 PUSH2 0x1268 PUSH2 0x1263 PUSH2 0x125E DUP5 PUSH2 0x11DB JUMP JUMPDEST PUSH2 0x1245 JUMP JUMPDEST PUSH2 0xCC6 JUMP JUMPDEST SWAP1 POP SWAP2 SWAP1 POP JUMP JUMPDEST PUSH2 0x1278 DUP2 PUSH2 0x124E JUMP JUMPDEST DUP3 MSTORE POP POP JUMP JUMPDEST PUSH0 PUSH1 0x20 DUP3 ADD SWAP1 POP PUSH2 0x1291 PUSH0 DUP4 ADD DUP5 PUSH2 0x126F JUMP JUMPDEST SWAP3 SWAP2 POP POP JUMP JUMPDEST PUSH0 PUSH0 REVERT JUMPDEST PUSH0 PUSH1 0x1F NOT PUSH1 0x1F DUP4 ADD AND SWAP1 POP SWAP2 SWAP1 POP JUMP JUMPDEST PUSH32 0x4E487B7100000000000000000000000000000000000000000000000000000000 PUSH0 MSTORE PUSH1 0x41 PUSH1 0x4 MSTORE PUSH1 0x24 PUSH0 REVERT JUMPDEST PUSH2 0x12E1 DUP3 PUSH2 0x129B JUMP JUMPDEST DUP2 ADD DUP2 DUP2 LT PUSH8 0xFFFFFFFFFFFFFFFF DUP3 GT OR ISZERO PUSH2 0x1300 JUMPI PUSH2 0x12FF PUSH2 0x12AB JUMP JUMPDEST JUMPDEST DUP1 PUSH1 0x40 MSTORE POP POP POP JUMP JUMPDEST PUSH0 PUSH2 0x1312 PUSH2 0xC5F JUMP JUMPDEST SWAP1 POP PUSH2 0x131E DUP3 DUP3 PUSH2 0x12D8 JUMP JUMPDEST SWAP2 SWAP1 POP JUMP JUMPDEST PUSH0 DUP2 MLOAD SWAP1 POP PUSH2 0x1331 DUP2 PUSH2 0xCCF JUMP JUMPDEST SWAP3 SWAP2 POP POP JUMP JUMPDEST PUSH0 PUSH1 0x40 DUP3 DUP5 SUB SLT ISZERO PUSH2 0x134C JUMPI PUSH2 0x134B PUSH2 0x1297 JUMP JUMPDEST JUMPDEST PUSH2 0x1356 PUSH1 0x40 PUSH2 0x1309 JUMP JUMPDEST SWAP1 POP PUSH0 PUSH2 0x1365 DUP5 DUP3 DUP6 ADD PUSH2 0x1323 JUMP JUMPDEST PUSH0 DUP4 ADD MSTORE POP PUSH1 0x20 PUSH2 0x1378 DUP5 DUP3 DUP6 ADD PUSH2 0x1323 JUMP JUMPDEST PUSH1 0x20 DUP4 ADD MSTORE POP SWAP3 SWAP2 POP POP JUMP JUMPDEST PUSH0 PUSH1 0x40 DUP3 DUP5 SUB SLT ISZERO PUSH2 0x1399 JUMPI PUSH2 0x1398 PUSH2 0xC68 JUMP JUMPDEST JUMPDEST PUSH0 PUSH2 0x13A6 DUP5 DUP3 DUP6 ADD PUSH2 0x1337 JUMP JUMPDEST SWAP2 POP POP SWAP3 SWAP2 POP POP JUMP JUMPDEST PUSH0 PUSH1 0x20 DUP3 DUP5 SUB SLT ISZERO PUSH2 0x13C4 JUMPI PUSH2 0x13C3 PUSH2 0xC68 JUMP JUMPDEST JUMPDEST PUSH0 PUSH2 0x13D1 DUP5 DUP3 DUP6 ADD PUSH2 0xEF4 JUMP JUMPDEST SWAP2 POP POP SWAP3 SWAP2 POP POP JUMP JUMPDEST PUSH2 0x13E3 DUP2 PUSH2 0xCC6 JUMP JUMPDEST DUP3 MSTORE POP POP JUMP JUMPDEST PUSH1 0x40 DUP3 ADD PUSH0 DUP3 ADD MLOAD PUSH2 0x13FD PUSH0 DUP6 ADD DUP3 PUSH2 0x13DA JUMP JUMPDEST POP PUSH1 0x20 DUP3 ADD MLOAD PUSH2 0x1410 PUSH1 0x20 DUP6 ADD DUP3 PUSH2 0x13DA JUMP JUMPDEST POP POP POP POP JUMP JUMPDEST PUSH2 0x141F DUP2 PUSH2 0xDDF JUMP JUMPDEST DUP3 MSTORE POP POP JUMP JUMPDEST PUSH2 0x142E DUP2 PUSH2 0xE8D JUMP JUMPDEST DUP3 MSTORE POP POP JUMP JUMPDEST PUSH1 0x80 DUP3 ADD PUSH0 DUP3 ADD MLOAD PUSH2 0x1448 PUSH0 DUP6 ADD DUP3 PUSH2 0x13DA JUMP JUMPDEST POP PUSH1 0x20 DUP3 ADD MLOAD PUSH2 0x145B PUSH1 0x20 DUP6 ADD DUP3 PUSH2 0x1416 JUMP JUMPDEST POP PUSH1 0x40 DUP3 ADD MLOAD PUSH2 0x146E PUSH1 0x40 DUP6 ADD DUP3 PUSH2 0x1425 JUMP JUMPDEST POP PUSH1 0x60 DUP3 ADD MLOAD PUSH2 0x1481 PUSH1 0x60 DUP6 ADD DUP3 PUSH2 0x1425 JUMP JUMPDEST POP POP POP POP JUMP JUMPDEST PUSH1 0xE0 DUP3 ADD PUSH0 DUP3 ADD MLOAD PUSH2 0x149B PUSH0 DUP6 ADD DUP3 PUSH2 0x13DA JUMP JUMPDEST POP PUSH1 0x20 DUP3 ADD MLOAD PUSH2 0x14AE PUSH1 0x20 DUP6 ADD DUP3 PUSH2 0x13E9 JUMP JUMPDEST POP PUSH1 0x40 DUP3 ADD MLOAD PUSH2 0x14C1 PUSH1 0x60 DUP6 ADD DUP3 PUSH2 0x1434 JUMP JUMPDEST POP POP POP POP JUMP JUMPDEST PUSH0 PUSH1 0xE0 DUP3 ADD SWAP1 POP PUSH2 0x14DA PUSH0 DUP4 ADD DUP5 PUSH2 0x1487 JUMP JUMPDEST SWAP3 SWAP2 POP POP JUMP JUMPDEST PUSH0 PUSH1 0x20 DUP3 DUP5 SUB SLT ISZERO PUSH2 0x14F5 JUMPI PUSH2 0x14F4 PUSH2 0xC68 JUMP JUMPDEST JUMPDEST PUSH0 PUSH2 0x1502 DUP5 DUP3 DUP6 ADD PUSH2 0x1323 JUMP JUMPDEST SWAP2 POP POP SWAP3 SWAP2 POP POP JUMP INVALID LOG2 PUSH5 0x6970667358 0x22 SLT KECCAK256 0xB6 EXTCODESIZE 0xF7 0xE4 PUSH31 0x512AD2A77C15CEB2262EEA930F2B0C2A1EF3B872750DDCDB4427864736F6C PUSH4 0x4300081B STOP CALLER "
				},
				"gasEstimates": {
					"creation": {
						"codeDepositCost": "1088200",
						"executionCost": "1132",
						"totalCost": "1089332"
					},
					"external": {
						"allowance(address,address,uint256)": "infinite",
						"approve(address,uint256,uint256)": "infinite",
						"balanceOf(address,uint256)": "infinite",
						"brothers()": "253",
						"inventory(uint256)": "infinite",
						"isOperator(address,address)": "infinite",
						"quote((uint80,address,uint16,uint256,bool))": "infinite",
						"setOperator(address,bool)": "infinite",
						"supportsInterface(bytes4)": "692",
						"swap()": "374",
						"transfer(address,uint256,uint256)": "infinite",
						"transferFrom(address,address,uint256,uint256)": "infinite"
					}
				},
				"methodIdentifiers": {
					"allowance(address,address,uint256)": "598af9e7",
					"approve(address,uint256,uint256)": "426a8493",
					"balanceOf(address,uint256)": "00fdd58e",
					"brothers()": "ff76c2b4",
					"inventory(uint256)": "4272ee18",
					"isOperator(address,address)": "b6363cf2",
					"quote((uint80,address,uint16,uint256,bool))": "5d28a34c",
					"setOperator(address,bool)": "558a7297",
					"supportsInterface(bytes4)": "01ffc9a7",
					"swap()": "8119c065",
					"transfer(address,uint256,uint256)": "095bcdb6",
					"transferFrom(address,address,uint256,uint256)": "fe99049a"
				}
			},
			"storageLayout": {
				"storage": [
					{
						"astId": 12,
						"contract": "contracts/PoolManager.sol:PoolManager",
						"label": "isOperator",
						"offset": 0,
						"slot": "0",
						"type": "t_mapping(t_address,t_mapping(t_address,t_bool))"
					},
					{
						"astId": 18,
						"contract": "contracts/PoolManager.sol:PoolManager",
						"label": "balanceOf",
						"offset": 0,
						"slot": "1",
						"type": "t_mapping(t_address,t_mapping(t_uint256,t_uint256))"
					},
					{
						"astId": 26,
						"contract": "contracts/PoolManager.sol:PoolManager",
						"label": "allowance",
						"offset": 0,
						"slot": "2",
						"type": "t_mapping(t_address,t_mapping(t_address,t_mapping(t_uint256,t_uint256)))"
					}
				],
				"types": {
					"t_address": {
						"encoding": "inplace",
						"label": "address",
						"numberOfBytes": "20"
					},
					"t_bool": {
						"encoding": "inplace",
						"label": "bool",
						"numberOfBytes": "1"
					},
					"t_mapping(t_address,t_bool)": {
						"encoding": "mapping",
						"key": "t_address",
						"label": "mapping(address => bool)",
						"numberOfBytes": "32",
						"value": "t_bool"
					},
					"t_mapping(t_address,t_mapping(t_address,t_bool))": {
						"encoding": "mapping",
						"key": "t_address",
						"label": "mapping(address => mapping(address => bool))",
						"numberOfBytes": "32",
						"value": "t_mapping(t_address,t_bool)"
					},
					"t_mapping(t_address,t_mapping(t_address,t_mapping(t_uint256,t_uint256)))": {
						"encoding": "mapping",
						"key": "t_address",
						"label": "mapping(address => mapping(address => mapping(uint256 => uint256)))",
						"numberOfBytes": "32",
						"value": "t_mapping(t_address,t_mapping(t_uint256,t_uint256))"
					},
					"t_mapping(t_address,t_mapping(t_uint256,t_uint256))": {
						"encoding": "mapping",
						"key": "t_address",
						"label": "mapping(address => mapping(uint256 => uint256))",
						"numberOfBytes": "32",
						"value": "t_mapping(t_uint256,t_uint256)"
					},
					"t_mapping(t_uint256,t_uint256)": {
						"encoding": "mapping",
						"key": "t_uint256",
						"label": "mapping(uint256 => uint256)",
						"numberOfBytes": "32",
						"value": "t_uint256"
					},
					"t_uint256": {
						"encoding": "inplace",
						"label": "uint256",
						"numberOfBytes": "32"
					}
				}
			},
			"userdoc": {
				"kind": "user",
				"methods": {
					"allowance(address,address,uint256)": {
						"notice": "Spender allowance of an id."
					},
					"approve(address,uint256,uint256)": {
						"notice": "Approves an amount of an id to a spender."
					},
					"balanceOf(address,uint256)": {
						"notice": "Owner balance of an id."
					},
					"isOperator(address,address)": {
						"notice": "Checks if a spender is approved by an owner as an operator"
					},
					"setOperator(address,bool)": {
						"notice": "Sets or removes an operator for the caller."
					},
					"transfer(address,uint256,uint256)": {
						"notice": "Transfers an amount of an id from the caller to a receiver."
					},
					"transferFrom(address,address,uint256,uint256)": {
						"notice": "Transfers an amount of an id from a sender to a receiver."
					}
				},
				"version": 1
			}
		}
	}
}