{
  "_format": "hh-sol-artifact-1",
  "contractName": "CREATE2Factory",
  "sourceName": "contracts/test/CREATE2Factory.sol",
  "abi": [
    {
      "anonymous": false,
      "inputs": [
        {
          "indexed": true,
          "internalType": "address",
          "name": "addr",
          "type": "address"
        },
        {
          "indexed": false,
          "internalType": "bytes32",
          "name": "salt",
          "type": "bytes32"
        }
      ],
      "name": "Deployed",
      "type": "event"
    },
    {
      "inputs": [
        {
          "internalType": "bytes",
          "name": "bytecode",
          "type": "bytes"
        },
        {
          "internalType": "bytes32",
          "name": "salt",
          "type": "bytes32"
        }
      ],
      "name": "computeAddress",
      "outputs": [
        {
          "internalType": "address",
          "name": "",
          "type": "address"
        }
      ],
      "stateMutability": "view",
      "type": "function"
    },
    {
      "inputs": [
        {
          "internalType": "bytes",
          "name": "bytecode",
          "type": "bytes"
        },
        {
          "internalType": "bytes32",
          "name": "salt",
          "type": "bytes32"
        }
      ],
      "name": "deploy",
      "outputs": [
        {
          "internalType": "address",
          "name": "addr",
          "type": "address"
        }
      ],
      "stateMutability": "nonpayable",
      "type": "function"
    }
  ],
  "bytecode": "0x60808060405234601557610239908161001a8239f35b5f80fdfe60806040526004361015610011575f80fd5b5f3560e01c80633e4b9f7a1461003457634af63f021461002f575f80fd5b61016c565b346100b1576100ad610093610048366100f0565b90602081519101209060405191602083019160ff60f81b83523060601b602185015260358401526055830152605582526100836075836100c9565b905190206001600160a01b031690565b6040516001600160a01b0390911681529081906020820190565b0390f35b5f80fd5b634e487b7160e01b5f52604160045260245ffd5b90601f8019910116810190811067ffffffffffffffff8211176100eb57604052565b6100b5565b60406003198201126100b15760043567ffffffffffffffff81116100b157816023820112156100b15780600401359067ffffffffffffffff82116100eb5760405192610146601f8401601f1916602001856100c9565b828452602483830101116100b157815f9260246020930183860137830101529060243590565b346100b15761017a366100f0565b815190916001600160a01b039183916020015ff5169081156101cd577f94bfd9af14ef450884c8a7ddb5734e2e1e14e70a1c84f0801cc5a29e34d2642860208392604051908152a2604051908152602090f35b60405162461bcd60e51b815260206004820152600e60248201526d10d4915055114c8819985a5b195960921b6044820152606490fdfea26469706673582212208cd862b17cc38bb9239c37bc0052e3f47e991d344dc8d1e7540d47f2ecb823a264736f6c634300081e0033",
  "linkReferences": {},
  "deployedLinkReferences": {}
}