{
  "_format": "hh-sol-artifact-1",
  "contractName": "TestERC20",
  "sourceName": "contracts/test/TestERC20.sol",
  "abi": [
    {
      "inputs": [
        {
          "internalType": "string",
          "name": "name_",
          "type": "string"
        },
        {
          "internalType": "string",
          "name": "symbol_",
          "type": "string"
        },
        {
          "internalType": "uint8",
          "name": "decimals_",
          "type": "uint8"
        },
        {
          "internalType": "uint256",
          "name": "initialSupply",
          "type": "uint256"
        },
        {
          "internalType": "address",
          "name": "recipient",
          "type": "address"
        }
      ],
      "stateMutability": "nonpayable",
      "type": "constructor"
    },
    {
      "inputs": [
        {
          "internalType": "address",
          "name": "spender",
          "type": "address"
        },
        {
          "internalType": "uint256",
          "name": "allowance",
          "type": "uint256"
        },
        {
          "internalType": "uint256",
          "name": "needed",
          "type": "uint256"
        }
      ],
      "name": "ERC20InsufficientAllowance",
      "type": "error"
    },
    {
      "inputs": [
        {
          "internalType": "address",
          "name": "sender",
          "type": "address"
        },
        {
          "internalType": "uint256",
          "name": "balance",
          "type": "uint256"
        },
        {
          "internalType": "uint256",
          "name": "needed",
          "type": "uint256"
        }
      ],
      "name": "ERC20InsufficientBalance",
      "type": "error"
    },
    {
      "inputs": [
        {
          "internalType": "address",
          "name": "approver",
          "type": "address"
        }
      ],
      "name": "ERC20InvalidApprover",
      "type": "error"
    },
    {
      "inputs": [
        {
          "internalType": "address",
          "name": "receiver",
          "type": "address"
        }
      ],
      "name": "ERC20InvalidReceiver",
      "type": "error"
    },
    {
      "inputs": [
        {
          "internalType": "address",
          "name": "sender",
          "type": "address"
        }
      ],
      "name": "ERC20InvalidSender",
      "type": "error"
    },
    {
      "inputs": [
        {
          "internalType": "address",
          "name": "spender",
          "type": "address"
        }
      ],
      "name": "ERC20InvalidSpender",
      "type": "error"
    },
    {
      "anonymous": false,
      "inputs": [
        {
          "indexed": true,
          "internalType": "address",
          "name": "owner",
          "type": "address"
        },
        {
          "indexed": true,
          "internalType": "address",
          "name": "spender",
          "type": "address"
        },
        {
          "indexed": false,
          "internalType": "uint256",
          "name": "value",
          "type": "uint256"
        }
      ],
      "name": "Approval",
      "type": "event"
    },
    {
      "anonymous": false,
      "inputs": [
        {
          "indexed": true,
          "internalType": "address",
          "name": "from",
          "type": "address"
        },
        {
          "indexed": true,
          "internalType": "address",
          "name": "to",
          "type": "address"
        },
        {
          "indexed": false,
          "internalType": "uint256",
          "name": "value",
          "type": "uint256"
        }
      ],
      "name": "Transfer",
      "type": "event"
    },
    {
      "inputs": [
        {
          "internalType": "address",
          "name": "owner",
          "type": "address"
        },
        {
          "internalType": "address",
          "name": "spender",
          "type": "address"
        }
      ],
      "name": "allowance",
      "outputs": [
        {
          "internalType": "uint256",
          "name": "",
          "type": "uint256"
        }
      ],
      "stateMutability": "view",
      "type": "function"
    },
    {
      "inputs": [
        {
          "internalType": "address",
          "name": "spender",
          "type": "address"
        },
        {
          "internalType": "uint256",
          "name": "value",
          "type": "uint256"
        }
      ],
      "name": "approve",
      "outputs": [
        {
          "internalType": "bool",
          "name": "",
          "type": "bool"
        }
      ],
      "stateMutability": "nonpayable",
      "type": "function"
    },
    {
      "inputs": [
        {
          "internalType": "address",
          "name": "account",
          "type": "address"
        }
      ],
      "name": "balanceOf",
      "outputs": [
        {
          "internalType": "uint256",
          "name": "",
          "type": "uint256"
        }
      ],
      "stateMutability": "view",
      "type": "function"
    },
    {
      "inputs": [],
      "name": "decimals",
      "outputs": [
        {
          "internalType": "uint8",
          "name": "",
          "type": "uint8"
        }
      ],
      "stateMutability": "view",
      "type": "function"
    },
    {
      "inputs": [],
      "name": "name",
      "outputs": [
        {
          "internalType": "string",
          "name": "",
          "type": "string"
        }
      ],
      "stateMutability": "view",
      "type": "function"
    },
    {
      "inputs": [],
      "name": "symbol",
      "outputs": [
        {
          "internalType": "string",
          "name": "",
          "type": "string"
        }
      ],
      "stateMutability": "view",
      "type": "function"
    },
    {
      "inputs": [],
      "name": "tokenDecimals",
      "outputs": [
        {
          "internalType": "uint8",
          "name": "",
          "type": "uint8"
        }
      ],
      "stateMutability": "view",
      "type": "function"
    },
    {
      "inputs": [],
      "name": "totalSupply",
      "outputs": [
        {
          "internalType": "uint256",
          "name": "",
          "type": "uint256"
        }
      ],
      "stateMutability": "view",
      "type": "function"
    },
    {
      "inputs": [
        {
          "internalType": "address",
          "name": "to",
          "type": "address"
        },
        {
          "internalType": "uint256",
          "name": "value",
          "type": "uint256"
        }
      ],
      "name": "transfer",
      "outputs": [
        {
          "internalType": "bool",
          "name": "",
          "type": "bool"
        }
      ],
      "stateMutability": "nonpayable",
      "type": "function"
    },
    {
      "inputs": [
        {
          "internalType": "address",
          "name": "from",
          "type": "address"
        },
        {
          "internalType": "address",
          "name": "to",
          "type": "address"
        },
        {
          "internalType": "uint256",
          "name": "value",
          "type": "uint256"
        }
      ],
      "name": "transferFrom",
      "outputs": [
        {
          "internalType": "bool",
          "name": "",
          "type": "bool"
        }
      ],
      "stateMutability": "nonpayable",
      "type": "function"
    }
  ],
  "bytecode": "0x60a0604052346103da57610a8e80380380610019816103de565b928339810160a0828203126103da5781516001600160401b0381116103da5781610044918401610403565b602083015190916001600160401b0382116103da57610064918401610403565b91604081015160ff811681036103da5760608201516080909201516001600160a01b03811693908490036103da578051906001600160401b0382116102dd5760035490600182811c921680156103d0575b60208310146102bf5781601f849311610362575b50602090601f83116001146102fc575f926102f1575b50508160011b915f199060031b1c1916176003555b83516001600160401b0381116102dd57600454600181811c911680156102d3575b60208210146102bf57601f811161025c575b50602094601f82116001146101f9579481929394955f926101ee575b50508160011b915f199060031b1c1916176004555b60805281156101db57600254908082018092116101c75760207fddf252ad1be2c89b69c2b068fc378daa952ba7f163c4a11628f55a4df523b3ef915f9360025584845283825260408420818154019055604051908152a360405161063990816104558239608051816105220152f35b634e487b7160e01b5f52601160045260245ffd5b63ec442f0560e01b5f525f60045260245ffd5b015190505f80610143565b601f1982169560045f52805f20915f5b8881106102445750836001959697981061022c575b505050811b01600455610158565b01515f1960f88460031b161c191690555f808061021e565b91926020600181928685015181550194019201610209565b60045f527f8a35acfbc15ff81a39ae7d344fd709f28e8600b4aa8c65c6b64bfe7fe36bd19b601f830160051c810191602084106102b5575b601f0160051c01905b8181106102aa5750610127565b5f815560010161029d565b9091508190610294565b634e487b7160e01b5f52602260045260245ffd5b90607f1690610115565b634e487b7160e01b5f52604160045260245ffd5b015190505f806100df565b60035f9081528281209350601f198516905b81811061034a5750908460019594939210610332575b505050811b016003556100f4565b01515f1960f88460031b161c191690555f8080610324565b9293602060018192878601518155019501930161030e565b60035f529091507fc2575a0e9e593c00f959f8c92f12db2869c3395a3b0502d05e2516446f71f85b601f840160051c810191602085106103c6575b90601f859493920160051c01905b8181106103b857506100c9565b5f81558493506001016103ab565b909150819061039d565b91607f16916100b5565b5f80fd5b6040519190601f01601f191682016001600160401b038111838210176102dd57604052565b81601f820112156103da578051906001600160401b0382116102dd57610432601f8301601f19166020016103de565b92828452602083830101116103da57815f9260208093018386015e830101529056fe6080806040526004361015610012575f80fd5b5f3560e01c90816306fdde03146103e457508063095ea7b31461036257806318160ddd1461034557806323b872dd14610266578063313ce567146102615780633b97e8561461026157806370a082311461022a57806395d89b411461010f578063a9059cbb146100de5763dd62ed3e1461008a575f80fd5b346100da5760403660031901126100da576100a36104dd565b6100ab6104f3565b6001600160a01b039182165f908152600160209081526040808320949093168252928352819020549051908152f35b5f80fd5b346100da5760403660031901126100da576101046100fa6104dd565b6024359033610546565b602060405160018152f35b346100da575f3660031901126100da576040515f6004548060011c90600181168015610220575b60208310811461020c578285529081156101f0575060011461019b575b50819003601f01601f191681019067ffffffffffffffff82118183101761018757610183829182604052826104b3565b0390f35b634e487b7160e01b5f52604160045260245ffd5b905060045f527f8a35acfbc15ff81a39ae7d344fd709f28e8600b4aa8c65c6b64bfe7fe36bd19b5f905b8282106101da57506020915082010182610153565b60018160209254838588010152019101906101c5565b90506020925060ff191682840152151560051b82010182610153565b634e487b7160e01b5f52602260045260245ffd5b91607f1691610136565b346100da5760203660031901126100da576001600160a01b0361024b6104dd565b165f525f602052602060405f2054604051908152f35b610509565b346100da5760603660031901126100da5761027f6104dd565b6102876104f3565b6001600160a01b0382165f818152600160209081526040808320338452909152902054909260443592915f1981106102c5575b506101049350610546565b83811061032a57841561031757331561030457610104945f52600160205260405f2060018060a01b0333165f526020528360405f2091039055846102ba565b634a1406b160e11b5f525f60045260245ffd5b63e602df0560e01b5f525f60045260245ffd5b8390637dc7a0d960e11b5f523360045260245260445260645ffd5b346100da575f3660031901126100da576020600254604051908152f35b346100da5760403660031901126100da5761037b6104dd565b602435903315610317576001600160a01b031690811561030457335f52600160205260405f20825f526020528060405f20556040519081527f8c5be1e5ebec7d5bd14f71427d1e84f3dd0314c0f7b2291e5b200ac8c7c3b92560203392a3602060405160018152f35b346100da575f3660031901126100da575f6003548060011c906001811680156104a9575b60208310811461020c578285529081156101f057506001146104545750819003601f01601f191681019067ffffffffffffffff82118183101761018757610183829182604052826104b3565b905060035f527fc2575a0e9e593c00f959f8c92f12db2869c3395a3b0502d05e2516446f71f85b5f905b82821061049357506020915082010182610153565b600181602092548385880101520191019061047e565b91607f1691610408565b602060409281835280519182918282860152018484015e5f828201840152601f01601f1916010190565b600435906001600160a01b03821682036100da57565b602435906001600160a01b03821682036100da57565b346100da575f3660031901126100da57602060405160ff7f0000000000000000000000000000000000000000000000000000000000000000168152f35b6001600160a01b03169081156105f0576001600160a01b03169182156105dd57815f525f60205260405f20548181106105c457817fddf252ad1be2c89b69c2b068fc378daa952ba7f163c4a11628f55a4df523b3ef92602092855f525f84520360405f2055845f525f825260405f20818154019055604051908152a3565b8263391434e360e21b5f5260045260245260445260645ffd5b63ec442f0560e01b5f525f60045260245ffd5b634b637e8f60e11b5f525f60045260245ffdfea2646970667358221220c926e4da1a802bd3588ff1ce426aae47e9cdfd1cfdecf9a95da38e50693216f764736f6c634300081e0033",
  "linkReferences": {},
  "deployedLinkReferences": {}
}