{
  "_format": "hh-sol-artifact-1",
  "contractName": "DataAdapterHelper",
  "sourceName": "contracts/Peripheral/quoters/adapters/DataAdapterHelper.sol",
  "abi": [
    {
      "inputs": [
        {
          "internalType": "bytes",
          "name": "rawData",
          "type": "bytes"
        }
      ],
      "name": "decodeChainlink",
      "outputs": [
        {
          "internalType": "uint256",
          "name": "spot",
          "type": "uint256"
        },
        {
          "internalType": "uint256",
          "name": "updatedAt",
          "type": "uint256"
        }
      ],
      "stateMutability": "pure",
      "type": "function"
    },
    {
      "inputs": [
        {
          "internalType": "bytes",
          "name": "rawData",
          "type": "bytes"
        }
      ],
      "name": "decodeRedStone",
      "outputs": [
        {
          "internalType": "uint256",
          "name": "spot",
          "type": "uint256"
        },
        {
          "internalType": "uint256",
          "name": "updatedAt",
          "type": "uint256"
        }
      ],
      "stateMutability": "pure",
      "type": "function"
    },
    {
      "inputs": [
        {
          "internalType": "bytes",
          "name": "rawData",
          "type": "bytes"
        }
      ],
      "name": "decodeV2Data",
      "outputs": [
        {
          "internalType": "uint256",
          "name": "spot",
          "type": "uint256"
        },
        {
          "internalType": "uint256",
          "name": "twap",
          "type": "uint256"
        }
      ],
      "stateMutability": "pure",
      "type": "function"
    },
    {
      "inputs": [
        {
          "internalType": "bytes",
          "name": "rawData",
          "type": "bytes"
        }
      ],
      "name": "decodeV3Data",
      "outputs": [
        {
          "internalType": "uint256",
          "name": "spot",
          "type": "uint256"
        },
        {
          "internalType": "uint256",
          "name": "spot2",
          "type": "uint256"
        }
      ],
      "stateMutability": "pure",
      "type": "function"
    },
    {
      "inputs": [
        {
          "internalType": "bytes",
          "name": "rawData",
          "type": "bytes"
        }
      ],
      "name": "decodeV3TWAP",
      "outputs": [
        {
          "internalType": "uint256",
          "name": "spot",
          "type": "uint256"
        },
        {
          "internalType": "uint256",
          "name": "twap",
          "type": "uint256"
        }
      ],
      "stateMutability": "pure",
      "type": "function"
    }
  ],
  "bytecode": "0x6080806040523460155761014e908161001a8239f35b5f80fdfe60806040526004361015610011575f80fd5b5f3560e01c80630a58ef98146100505780632b6b36571461005057806388f6a80d146100505780638b12d09c146100505763cc1b89d214610050575f80fd5b346101005760203660031901126101005760043567ffffffffffffffff8111610100573660238201121561010057806004013567ffffffffffffffff81116101045760405190601f8101601f19908116603f0116820167ffffffffffffffff811183821017610104576040528082526020820192366024838301011161010057815f9260246020930186378301015260408180518101031261010057604080925191015182519182526020820152f35b5f80fd5b634e487b7160e01b5f52604160045260245ffdfea26469706673582212206325617a1b2b75b1b6ee05e361abf29740f00ba00353569b52307975bc97008264736f6c634300081e0033",
  "linkReferences": {},
  "deployedLinkReferences": {}
}