{
  "_format": "hh-sol-artifact-1",
  "contractName": "AlphaDataBridgeAdapter",
  "sourceName": "contracts/DataBridges/AlphaDataBridgeAdapter.sol",
  "abi": [
    {
      "inputs": [
        {
          "internalType": "address",
          "name": "_inner",
          "type": "address"
        },
        {
          "internalType": "address",
          "name": "_forcedAsset0",
          "type": "address"
        },
        {
          "internalType": "address",
          "name": "_forcedAsset1",
          "type": "address"
        }
      ],
      "stateMutability": "nonpayable",
      "type": "constructor"
    },
    {
      "inputs": [],
      "name": "forcedAsset0",
      "outputs": [
        {
          "internalType": "address",
          "name": "",
          "type": "address"
        }
      ],
      "stateMutability": "view",
      "type": "function"
    },
    {
      "inputs": [],
      "name": "forcedAsset1",
      "outputs": [
        {
          "internalType": "address",
          "name": "",
          "type": "address"
        }
      ],
      "stateMutability": "view",
      "type": "function"
    },
    {
      "inputs": [
        {
          "components": [
            {
              "internalType": "address",
              "name": "asset0",
              "type": "address"
            },
            {
              "internalType": "address",
              "name": "asset1",
              "type": "address"
            },
            {
              "internalType": "address",
              "name": "quoter",
              "type": "address"
            },
            {
              "internalType": "uint256",
              "name": "amount",
              "type": "uint256"
            },
            {
              "internalType": "uint128",
              "name": "asset0Balance",
              "type": "uint128"
            },
            {
              "internalType": "uint128",
              "name": "asset1Balance",
              "type": "uint128"
            },
            {
              "internalType": "uint16",
              "name": "bucketID",
              "type": "uint16"
            },
            {
              "internalType": "bool",
              "name": "zeroForOne",
              "type": "bool"
            }
          ],
          "internalType": "struct QuoteParams",
          "name": "params",
          "type": "tuple"
        }
      ],
      "name": "getData",
      "outputs": [
        {
          "internalType": "bytes",
          "name": "",
          "type": "bytes"
        }
      ],
      "stateMutability": "nonpayable",
      "type": "function"
    },
    {
      "inputs": [],
      "name": "inner",
      "outputs": [
        {
          "internalType": "address",
          "name": "",
          "type": "address"
        }
      ],
      "stateMutability": "view",
      "type": "function"
    }
  ],
  "bytecode": "0x60e0346100a757601f61053c38819003918201601f19168301916001600160401b038311848410176100ab578084926060946040528339810103126100a757610047816100bf565b906100606040610059602084016100bf565b92016100bf565b9160805260a05260c05260405161046890816100d4823960805181818160a501526102a4015260a051818181605d01526101c8015260c0518181816101ed01526103c40152f35b5f80fd5b634e487b7160e01b5f52604160045260245ffd5b51906001600160a01b03821682036100a75756fe6080806040526004361015610012575f80fd5b5f3560e01c908163292a02b1146103b2575080633bd1104b146100d45780634adb7729146100905763810eff9214610048575f80fd5b3461008c575f36600319011261008c576040517f00000000000000000000000000000000000000000000000000000000000000006001600160a01b03168152602090f35b5f80fd5b3461008c575f36600319011261008c576040517f00000000000000000000000000000000000000000000000000000000000000006001600160a01b03168152602090f35b3461008c5761010036600319011261008c576040516100f2816103f3565b6004356001600160a01b038116810361008c5781526024356001600160a01b038116810361008c5760208201526044356001600160a01b038116919082810361008c576040820152606435806060830152608435916001600160801b0383169283810361008c57608082015260a435906001600160801b0382169182810361008c5760a082015260c4359161ffff83169283810361008c5760c083015260e435918215159586840361008c5761ffff956001600160801b039460e086940152604051986101be8a6103f3565b6001600160a01b037f000000000000000000000000000000000000000000000000000000000000000081168b527f0000000000000000000000000000000000000000000000000000000000000000811660208c019081526040808d0193845260608d0194855260808d0195865260a08d0197885260c08d01998a5260e08d019b8c5251633bd1104b60e01b81529b51821660048d015251811660248c01529051811660448b0152905160648a0152905191909116608488015290519190911660a486015290519190911660c48401529051151560e48301525f90829061010490829084907f0000000000000000000000000000000000000000000000000000000000000000165af19081156103a7575f91610305575b6020604083815192839181835280519182918282860152018484015e5f828201840152601f01601f19168101030190f35b90503d805f833e6103168183610410565b81019060208183031261008c5780519067ffffffffffffffff821161008c570181601f8201121561008c5780519167ffffffffffffffff8311610393576040519061036b601f8501601f191660200183610410565b8382526020848401011161008c575f602084819582604096018386015e8301015291506102d4565b634e487b7160e01b5f52604160045260245ffd5b6040513d5f823e3d90fd5b3461008c575f36600319011261008c577f00000000000000000000000000000000000000000000000000000000000000006001600160a01b03168152602090f35b610100810190811067ffffffffffffffff82111761039357604052565b90601f8019910116810190811067ffffffffffffffff8211176103935760405256fea2646970667358221220fe11ae3682606a39038cf0961fe866788d7825c48b7c9595183d17d1e4317b0264736f6c634300081e0033",
  "linkReferences": {},
  "deployedLinkReferences": {}
}