{
  "_format": "hh-sol-artifact-1",
  "contractName": "QuoteRequester",
  "sourceName": "contracts/QuoteRequester.sol",
  "abi": [
    {
      "inputs": [
        {
          "internalType": "address",
          "name": "_defaultAlpha",
          "type": "address"
        },
        {
          "internalType": "address",
          "name": "_defaultBeta",
          "type": "address"
        }
      ],
      "stateMutability": "nonpayable",
      "type": "constructor"
    },
    {
      "inputs": [
        {
          "internalType": "uint8",
          "name": "pointer",
          "type": "uint8"
        },
        {
          "internalType": "address",
          "name": "alphaAddress",
          "type": "address"
        }
      ],
      "name": "addAlphaMarketAddress",
      "outputs": [],
      "stateMutability": "nonpayable",
      "type": "function"
    },
    {
      "inputs": [
        {
          "internalType": "uint8",
          "name": "pointer",
          "type": "uint8"
        },
        {
          "internalType": "address",
          "name": "betaAddress",
          "type": "address"
        }
      ],
      "name": "addBetaMarketAddress",
      "outputs": [],
      "stateMutability": "nonpayable",
      "type": "function"
    },
    {
      "inputs": [],
      "name": "defaultAlpha",
      "outputs": [
        {
          "internalType": "address",
          "name": "",
          "type": "address"
        }
      ],
      "stateMutability": "view",
      "type": "function"
    },
    {
      "inputs": [],
      "name": "defaultBeta",
      "outputs": [
        {
          "internalType": "address",
          "name": "",
          "type": "address"
        }
      ],
      "stateMutability": "view",
      "type": "function"
    },
    {
      "inputs": [
        {
          "internalType": "address",
          "name": "",
          "type": "address"
        },
        {
          "internalType": "address",
          "name": "",
          "type": "address"
        },
        {
          "internalType": "uint128",
          "name": "",
          "type": "uint128"
        },
        {
          "internalType": "uint128",
          "name": "",
          "type": "uint128"
        }
      ],
      "name": "dummyQuoter",
      "outputs": [
        {
          "internalType": "uint256",
          "name": "rate",
          "type": "uint256"
        }
      ],
      "stateMutability": "pure",
      "type": "function"
    },
    {
      "inputs": [
        {
          "internalType": "uint8",
          "name": "pointer",
          "type": "uint8"
        }
      ],
      "name": "getAlphaMarketAddress",
      "outputs": [
        {
          "internalType": "address",
          "name": "alphaAddress",
          "type": "address"
        }
      ],
      "stateMutability": "view",
      "type": "function"
    },
    {
      "inputs": [
        {
          "internalType": "uint8",
          "name": "pointer",
          "type": "uint8"
        }
      ],
      "name": "getBetaMarketAddress",
      "outputs": [
        {
          "internalType": "address",
          "name": "betaAddress",
          "type": "address"
        }
      ],
      "stateMutability": "view",
      "type": "function"
    },
    {
      "inputs": [
        {
          "internalType": "uint8",
          "name": "pointer",
          "type": "uint8"
        }
      ],
      "name": "removeAlphaMarketAddress",
      "outputs": [],
      "stateMutability": "nonpayable",
      "type": "function"
    },
    {
      "inputs": [
        {
          "internalType": "uint8",
          "name": "pointer",
          "type": "uint8"
        }
      ],
      "name": "removeBetaMarketAddress",
      "outputs": [],
      "stateMutability": "nonpayable",
      "type": "function"
    }
  ],
  "bytecode": "0x60c0604052348015600e575f5ffd5b5060405161055d38038061055d833981016040819052602b91605b565b6001600160a01b039182166080521660a0526087565b80516001600160a01b03811681146056575f5ffd5b919050565b5f5f60408385031215606b575f5ffd5b6072836041565b9150607e602084016041565b90509250929050565b60805160a0516104b66100a75f395f609901525f61016b01526104b65ff3fe608060405234801561000f575f5ffd5b5060043610610090575f3560e01c806383e66c2e1161006357806383e66c2e146101135780638785bec0146101265780638e832e0814610153578063a1a44dad14610166578063d2615fc81461018d575f5ffd5b806319920a5f14610094578063460c6df8146100d857806361408f26146100ed5780637dc27c9514610100575b5f5ffd5b6100bb7f000000000000000000000000000000000000000000000000000000000000000081565b6040516001600160a01b0390911681526020015b60405180910390f35b6100eb6100e6366004610388565b6101a0565b005b6100eb6100fb3660046103b9565b6101fe565b6100eb61010e366004610388565b610241565b6100bb6101213660046103b9565b610296565b6101456101343660046103f8565b5067120a871cc00200009392505050565b6040519081526020016100cf565b6100eb6101613660046103b9565b6102d8565b6100bb7f000000000000000000000000000000000000000000000000000000000000000081565b6100bb61019b3660046103b9565b61031b565b60108260ff16106101cc5760405162461bcd60e51b81526004016101c390610449565b60405180910390fd5b60ff919091165f90815260208190526040902080546001600160a01b0319166001600160a01b03909216919091179055565b60108160ff16106102215760405162461bcd60e51b81526004016101c390610449565b60ff165f90815260016020526040902080546001600160a01b0319169055565b60108260ff16106102645760405162461bcd60e51b81526004016101c390610449565b60ff919091165f90815260016020526040902080546001600160a01b0319166001600160a01b03909216919091179055565b5f60108260ff16106102ba5760405162461bcd60e51b81526004016101c390610449565b5060ff165f908152600160205260409020546001600160a01b031690565b60108160ff16106102fb5760405162461bcd60e51b81526004016101c390610449565b60ff165f90815260208190526040902080546001600160a01b0319169055565b5f60108260ff161061033f5760405162461bcd60e51b81526004016101c390610449565b5060ff165f908152602081905260409020546001600160a01b031690565b803560ff8116811461036d575f5ffd5b919050565b80356001600160a01b038116811461036d575f5ffd5b5f5f60408385031215610399575f5ffd5b6103a28361035d565b91506103b060208401610372565b90509250929050565b5f602082840312156103c9575f5ffd5b6103d28261035d565b9392505050565b80356fffffffffffffffffffffffffffffffff8116811461036d575f5ffd5b5f5f5f5f6080858703121561040b575f5ffd5b61041485610372565b935061042260208601610372565b9250610430604086016103d9565b915061043e606086016103d9565b905092959194509250565b6020808252601d908201527f496e76616c696420706f696e7465723a206d75737420626520302d313500000060408201526060019056fea264697066735822122080541a390b1732fc90dadcc77f54c5b54fa424a4ecafbaa78da197c31beb7b5164736f6c634300081e0033",
  "linkReferences": {},
  "deployedLinkReferences": {}
}