{
  "_format": "hh-sol-artifact-1",
  "contractName": "MockStoicovDataBridge125",
  "sourceName": "contracts/Peripheral/DataBridges/dummy/MockStoicovDataBridge125.sol",
  "abi": [
    {
      "inputs": [
        {
          "components": [
            {
              "internalType": "address",
              "name": "asset0",
              "type": "address"
            },
            {
              "internalType": "address",
              "name": "asset1",
              "type": "address"
            },
            {
              "internalType": "address",
              "name": "quoter",
              "type": "address"
            },
            {
              "internalType": "uint256",
              "name": "amount",
              "type": "uint256"
            },
            {
              "internalType": "uint128",
              "name": "asset0Balance",
              "type": "uint128"
            },
            {
              "internalType": "uint128",
              "name": "asset1Balance",
              "type": "uint128"
            },
            {
              "internalType": "uint16",
              "name": "bucketID",
              "type": "uint16"
            },
            {
              "internalType": "bool",
              "name": "zeroForOne",
              "type": "bool"
            },
            {
              "internalType": "uint8",
              "name": "functionFlags",
              "type": "uint8"
            }
          ],
          "internalType": "struct QuoteParams",
          "name": "",
          "type": "tuple"
        }
      ],
      "name": "getData",
      "outputs": [
        {
          "internalType": "bytes",
          "name": "",
          "type": "bytes"
        }
      ],
      "stateMutability": "view",
      "type": "function"
    },
    {
      "inputs": [],
      "name": "midQ",
      "outputs": [
        {
          "internalType": "uint128",
          "name": "",
          "type": "uint128"
        }
      ],
      "stateMutability": "view",
      "type": "function"
    },
    {
      "inputs": [],
      "name": "stdevShortBps",
      "outputs": [
        {
          "internalType": "uint16",
          "name": "",
          "type": "uint16"
        }
      ],
      "stateMutability": "view",
      "type": "function"
    }
  ],
  "bytecode": "0x60c060405234604657664189374bc6a7ef6080526130d460a0526040516102ca908161004b8239608051818181605c01526101cc015260a051818181609e01526102060152f35b5f80fdfe6080806040526004361015610012575f80fd5b5f3560e01c908163406304ea146100c25750806374b7b5f5146100845763bee3af901461003d575f80fd5b34610080575f3660031901126100805760206040516001600160801b037f0000000000000000000000000000000000000000000000000000000000000000168152f35b5f80fd5b34610080575f36600319011261008057602060405161ffff7f0000000000000000000000000000000000000000000000000000000000000000168152f35b346100805761012036600319011261008057610120810181811067ffffffffffffffff821117610280576040526004356001600160a01b03811681036100805781526024356001600160a01b03811681036100805760208201526044356001600160a01b038116810361008057604082015260643560608201526084356001600160801b038116810361008057608082015260a4356001600160801b03811681036100805760a082015260c43561ffff811681036100805760c082015260e43580151581036100805760e0820152610104359060ff821682036100805761010001526040516020810190602882525f60408201525f60608201525f60808201526001600160801b037f00000000000000000000000000000000000000000000000000000000000000001660a082015267ffffffffffffffff421660c082015261ffff7f00000000000000000000000000000000000000000000000000000000000000001660e08201525f610100820152610100815261012081019080821067ffffffffffffffff8311176102805760409182528151928391602083525180918160208501528484015e5f828201840152601f01601f19168101030190f35b634e487b7160e01b5f52604160045260245ffdfea264697066735822122024666ac49e40ec8e0c61035355c5639d82012b259204de2a9861c6ec6b64d75464736f6c634300081e0033",
  "linkReferences": {},
  "deployedLinkReferences": {}
}