{
	"data": {
		"bytecode": {
			"linkReferences": {},
			"object": "6080604052348015600e575f5ffd5b506115418061001c5f395ff3fe608060405234801561000f575f5ffd5b50600436106100b1575f3560e01c8063598af9e71161006f578063598af9e7146101d65780635d28a34c146102065780638119c06514610236578063b6363cf214610254578063fe99049a14610284578063ff76c2b4146102b4576100b1565b8062fdd58e146100b557806301ffc9a7146100e5578063095bcdb614610115578063426a8493146101455780634272ee1814610175578063558a7297146101a6575b5f5ffd5b6100cf60048036038101906100ca9190610cf9565b6102be565b6040516100dc9190610d46565b60405180910390f35b6100ff60048036038101906100fa9190610db4565b6102de565b60405161010c9190610df9565b60405180910390f35b61012f600480360381019061012a9190610e12565b61033f565b60405161013c9190610df9565b60405180910390f35b61015f600480360381019061015a9190610e12565b610477565b60405161016c9190610df9565b60405180910390f35b61018f600480360381019061018a9190610e62565b610575565b60405161019d929190610eb7565b60405180910390f35b6101c060048036038101906101bb9190610f08565b610585565b6040516101cd9190610df9565b60405180910390f35b6101f060048036038101906101eb9190610f46565b610683565b6040516101fd9190610d46565b60405180910390f35b610220600480360381019061021b9190610fb8565b6106ae565b60405161022d9190610d46565b60405180910390f35b61023e6108cb565b60405161024b9190610df9565b60405180910390f35b61026e60048036038101906102699190610fe3565b6108cf565b60405161027b9190610df9565b60405180910390f35b61029e60048036038101906102999190611021565b6108f8565b6040516102ab9190610df9565b60405180910390f35b6102bc610c3f565b005b6001602052815f5260405f20602052805f5260405f205f91509150505481565b5f6301ffc9a760e01b827bffffffffffffffffffffffffffffffffffffffffffffffffffffffff191614806103385750630f632fb360e01b827bffffffffffffffffffffffffffffffffffffffffffffffffffffffff1916145b9050919050565b5f8160015f3373ffffffffffffffffffffffffffffffffffffffff1673ffffffffffffffffffffffffffffffffffffffff1681526020019081526020015f205f8581526020019081526020015f205f82825461039b91906110b2565b925050819055508160015f8673ffffffffffffffffffffffffffffffffffffffff1673ffffffffffffffffffffffffffffffffffffffff1681526020019081526020015f205f8581526020019081526020015f205f8282546103fd91906110e5565b92505081905550828473ffffffffffffffffffffffffffffffffffffffff163373ffffffffffffffffffffffffffffffffffffffff167f1b3d7edb2e9c0b0e7c525b20aaaef0f5940d2ed71663c7d39266ecafac7288593386604051610464929190611127565b60405180910390a4600190509392505050565b5f8160025f3373ffffffffffffffffffffffffffffffffffffffff1673ffffffffffffffffffffffffffffffffffffffff1681526020019081526020015f205f8673ffffffffffffffffffffffffffffffffffffffff1673ffffffffffffffffffffffffffffffffffffffff1681526020019081526020015f205f8581526020019081526020015f2081905550828473ffffffffffffffffffffffffffffffffffffffff163373ffffffffffffffffffffffffffffffffffffffff167fb3fd5071835887567a0671151121894ddccc2842f1d10bedad13e0d17cace9a7856040516105629190610d46565b60405180910390a4600190509392505050565b5f5f60fa91506104de9050915091565b5f815f5f3373ffffffffffffffffffffffffffffffffffffffff1673ffffffffffffffffffffffffffffffffffffffff1681526020019081526020015f205f8573ffffffffffffffffffffffffffffffffffffffff1673ffffffffffffffffffffffffffffffffffffffff1681526020019081526020015f205f6101000a81548160ff0219169083151502179055508273ffffffffffffffffffffffffffffffffffffffff163373ffffffffffffffffffffffffffffffffffffffff167fceb576d9f15e4e200fdb5096d64d5dfd667e16def20c1eefd14256d8e3faa267846040516106719190610df9565b60405180910390a36001905092915050565b6002602052825f5260405f20602052815f5260405f20602052805f5260405f205f9250925050505481565b5f5f6106f08360200160208101906106c6919061114e565b8460400160208101906106d991906111b0565b855f0160208101906106eb919061121a565b610c41565b90505f836020016020810190610706919061114e565b73ffffffffffffffffffffffffffffffffffffffff16633dc355fe855f016020810190610733919061121a565b6040518263ffffffff1660e01b815260040161074f919061127e565b60408051808303815f875af115801561076a573d5f5f3e3d5ffd5b505050506040513d601f19601f8201168201806040525081019061078e9190611384565b90505f5f61079b84610575565b915091505f6040518060800160405280886060013581526020018860800160208101906107c891906113af565b15158152602001846fffffffffffffffffffffffffffffffff168152602001836fffffffffffffffffffffffffffffffff1681525090505f604051806060016040528089604001602081019061081e91906111b0565b61ffff168152602001868152602001838152509050876020016020810190610846919061114e565b73ffffffffffffffffffffffffffffffffffffffff1663e176b360826040518263ffffffff1660e01b815260040161087e91906114c7565b6020604051808303815f875af115801561089a573d5f5f3e3d5ffd5b505050506040513d601f19601f820116820180604052508101906108be91906114e0565b9650505050505050919050565b5f90565b5f602052815f5260405f20602052805f5260405f205f915091509054906101000a900460ff1681565b5f8473ffffffffffffffffffffffffffffffffffffffff163373ffffffffffffffffffffffffffffffffffffffff16141580156109b657505f5f8673ffffffffffffffffffffffffffffffffffffffff1673ffffffffffffffffffffffffffffffffffffffff1681526020019081526020015f205f3373ffffffffffffffffffffffffffffffffffffffff1673ffffffffffffffffffffffffffffffffffffffff1681526020019081526020015f205f9054906101000a900460ff16155b15610b07575f60025f8773ffffffffffffffffffffffffffffffffffffffff1673ffffffffffffffffffffffffffffffffffffffff1681526020019081526020015f205f3373ffffffffffffffffffffffffffffffffffffffff1673ffffffffffffffffffffffffffffffffffffffff1681526020019081526020015f205f8581526020019081526020015f205490507fffffffffffffffffffffffffffffffffffffffffffffffffffffffffffffffff8114610b05578281610a7991906110b2565b60025f8873ffffffffffffffffffffffffffffffffffffffff1673ffffffffffffffffffffffffffffffffffffffff1681526020019081526020015f205f3373ffffffffffffffffffffffffffffffffffffffff1673ffffffffffffffffffffffffffffffffffffffff1681526020019081526020015f205f8681526020019081526020015f20819055505b505b8160015f8773ffffffffffffffffffffffffffffffffffffffff1673ffffffffffffffffffffffffffffffffffffffff1681526020019081526020015f205f8581526020019081526020015f205f828254610b6291906110b2565b925050819055508160015f8673ffffffffffffffffffffffffffffffffffffffff1673ffffffffffffffffffffffffffffffffffffffff1681526020019081526020015f205f8581526020019081526020015f205f828254610bc491906110e5565b92505081905550828473ffffffffffffffffffffffffffffffffffffffff168673ffffffffffffffffffffffffffffffffffffffff167f1b3d7edb2e9c0b0e7c525b20aaaef0f5940d2ed71663c7d39266ecafac7288593386604051610c2b929190611127565b60405180910390a460019050949350505050565b565b5f8390508060601b90508260501b8117905081811790509392505050565b5f604051905090565b5f5ffd5b5f73ffffffffffffffffffffffffffffffffffffffff82169050919050565b5f610c9582610c6c565b9050919050565b610ca581610c8b565b8114610caf575f5ffd5b50565b5f81359050610cc081610c9c565b92915050565b5f819050919050565b610cd881610cc6565b8114610ce2575f5ffd5b50565b5f81359050610cf381610ccf565b92915050565b5f5f60408385031215610d0f57610d0e610c68565b5b5f610d1c85828601610cb2565b9250506020610d2d85828601610ce5565b9150509250929050565b610d4081610cc6565b82525050565b5f602082019050610d595f830184610d37565b92915050565b5f7fffffffff0000000000000000000000000000000000000000000000000000000082169050919050565b610d9381610d5f565b8114610d9d575f5ffd5b50565b5f81359050610dae81610d8a565b92915050565b5f60208284031215610dc957610dc8610c68565b5b5f610dd684828501610da0565b91505092915050565b5f8115159050919050565b610df381610ddf565b82525050565b5f602082019050610e0c5f830184610dea565b92915050565b5f5f5f60608486031215610e2957610e28610c68565b5b5f610e3686828701610cb2565b9350506020610e4786828701610ce5565b9250506040610e5886828701610ce5565b9150509250925092565b5f60208284031215610e7757610e76610c68565b5b5f610e8484828501610ce5565b91505092915050565b5f6fffffffffffffffffffffffffffffffff82169050919050565b610eb181610e8d565b82525050565b5f604082019050610eca5f830185610ea8565b610ed76020830184610ea8565b9392505050565b610ee781610ddf565b8114610ef1575f5ffd5b50565b5f81359050610f0281610ede565b92915050565b5f5f60408385031215610f1e57610f1d610c68565b5b5f610f2b85828601610cb2565b9250506020610f3c85828601610ef4565b9150509250929050565b5f5f5f60608486031215610f5d57610f5c610c68565b5b5f610f6a86828701610cb2565b9350506020610f7b86828701610cb2565b9250506040610f8c86828701610ce5565b9150509250925092565b5f5ffd5b5f60a08284031215610faf57610fae610f96565b5b81905092915050565b5f60a08284031215610fcd57610fcc610c68565b5b5f610fda84828501610f9a565b91505092915050565b5f5f60408385031215610ff957610ff8610c68565b5b5f61100685828601610cb2565b925050602061101785828601610cb2565b9150509250929050565b5f5f5f5f6080858703121561103957611038610c68565b5b5f61104687828801610cb2565b945050602061105787828801610cb2565b935050604061106887828801610ce5565b925050606061107987828801610ce5565b91505092959194509250565b7f4e487b71000000000000000000000000000000000000000000000000000000005f52601160045260245ffd5b5f6110bc82610cc6565b91506110c783610cc6565b92508282039050818111156110df576110de611085565b5b92915050565b5f6110ef82610cc6565b91506110fa83610cc6565b925082820190508082111561111257611111611085565b5b92915050565b61112181610c8b565b82525050565b5f60408201905061113a5f830185611118565b6111476020830184610d37565b9392505050565b5f6020828403121561116357611162610c68565b5b5f61117084828501610cb2565b91505092915050565b5f61ffff82169050919050565b61118f81611179565b8114611199575f5ffd5b50565b5f813590506111aa81611186565b92915050565b5f602082840312156111c5576111c4610c68565b5b5f6111d28482850161119c565b91505092915050565b5f69ffffffffffffffffffff82169050919050565b6111f9816111db565b8114611203575f5ffd5b50565b5f81359050611214816111f0565b92915050565b5f6020828403121561122f5761122e610c68565b5b5f61123c84828501611206565b91505092915050565b5f819050919050565b5f61126861126361125e846111db565b611245565b610cc6565b9050919050565b6112788161124e565b82525050565b5f6020820190506112915f83018461126f565b92915050565b5f5ffd5b5f601f19601f8301169050919050565b7f4e487b71000000000000000000000000000000000000000000000000000000005f52604160045260245ffd5b6112e18261129b565b810181811067ffffffffffffffff82111715611300576112ff6112ab565b5b80604052505050565b5f611312610c5f565b905061131e82826112d8565b919050565b5f8151905061133181610ccf565b92915050565b5f6040828403121561134c5761134b611297565b5b6113566040611309565b90505f61136584828501611323565b5f83015250602061137884828501611323565b60208301525092915050565b5f6040828403121561139957611398610c68565b5b5f6113a684828501611337565b91505092915050565b5f602082840312156113c4576113c3610c68565b5b5f6113d184828501610ef4565b91505092915050565b6113e381610cc6565b82525050565b604082015f8201516113fd5f8501826113da565b50602082015161141060208501826113da565b50505050565b61141f81610ddf565b82525050565b61142e81610e8d565b82525050565b608082015f8201516114485f8501826113da565b50602082015161145b6020850182611416565b50604082015161146e6040850182611425565b5060608201516114816060850182611425565b50505050565b60e082015f82015161149b5f8501826113da565b5060208201516114ae60208501826113e9565b5060408201516114c16060850182611434565b50505050565b5f60e0820190506114da5f830184611487565b92915050565b5f602082840312156114f5576114f4610c68565b5b5f61150284828501611323565b9150509291505056fea2646970667358221220b63bf7e47e0512ad2a77c15ceb2262eea930f2b0c2a1ef3b872750ddcdb4427864736f6c634300081b0033",
			"opcodes": "PUSH1 0x80 PUSH1 0x40 MSTORE CALLVALUE DUP1 ISZERO PUSH1 0xE JUMPI PUSH0 PUSH0 REVERT JUMPDEST POP PUSH2 0x1541 DUP1 PUSH2 0x1C PUSH0 CODECOPY PUSH0 RETURN INVALID PUSH1 0x80 PUSH1 0x40 MSTORE CALLVALUE DUP1 ISZERO PUSH2 0xF JUMPI PUSH0 PUSH0 REVERT JUMPDEST POP PUSH1 0x4 CALLDATASIZE LT PUSH2 0xB1 JUMPI PUSH0 CALLDATALOAD PUSH1 0xE0 SHR DUP1 PUSH4 0x598AF9E7 GT PUSH2 0x6F JUMPI DUP1 PUSH4 0x598AF9E7 EQ PUSH2 0x1D6 JUMPI DUP1 PUSH4 0x5D28A34C EQ PUSH2 0x206 JUMPI DUP1 PUSH4 0x8119C065 EQ PUSH2 0x236 JUMPI DUP1 PUSH4 0xB6363CF2 EQ PUSH2 0x254 JUMPI DUP1 PUSH4 0xFE99049A EQ PUSH2 0x284 JUMPI DUP1 PUSH4 0xFF76C2B4 EQ PUSH2 0x2B4 JUMPI PUSH2 0xB1 JUMP JUMPDEST DUP1 PUSH3 0xFDD58E EQ PUSH2 0xB5 JUMPI DUP1 PUSH4 0x1FFC9A7 EQ PUSH2 0xE5 JUMPI DUP1 PUSH4 0x95BCDB6 EQ PUSH2 0x115 JUMPI DUP1 PUSH4 0x426A8493 EQ PUSH2 0x145 JUMPI DUP1 PUSH4 0x4272EE18 EQ PUSH2 0x175 JUMPI DUP1 PUSH4 0x558A7297 EQ PUSH2 0x1A6 JUMPI JUMPDEST PUSH0 PUSH0 REVERT JUMPDEST PUSH2 0xCF PUSH1 0x4 DUP1 CALLDATASIZE SUB DUP2 ADD SWAP1 PUSH2 0xCA SWAP2 SWAP1 PUSH2 0xCF9 JUMP JUMPDEST PUSH2 0x2BE JUMP JUMPDEST PUSH1 0x40 MLOAD PUSH2 0xDC SWAP2 SWAP1 PUSH2 0xD46 JUMP JUMPDEST PUSH1 0x40 MLOAD DUP1 SWAP2 SUB SWAP1 RETURN JUMPDEST PUSH2 0xFF PUSH1 0x4 DUP1 CALLDATASIZE SUB DUP2 ADD SWAP1 PUSH2 0xFA SWAP2 SWAP1 PUSH2 0xDB4 JUMP JUMPDEST PUSH2 0x2DE JUMP JUMPDEST PUSH1 0x40 MLOAD PUSH2 0x10C SWAP2 SWAP1 PUSH2 0xDF9 JUMP JUMPDEST PUSH1 0x40 MLOAD DUP1 SWAP2 SUB SWAP1 RETURN JUMPDEST PUSH2 0x12F PUSH1 0x4 DUP1 CALLDATASIZE SUB DUP2 ADD SWAP1 PUSH2 0x12A SWAP2 SWAP1 PUSH2 0xE12 JUMP JUMPDEST PUSH2 0x33F JUMP JUMPDEST PUSH1 0x40 MLOAD PUSH2 0x13C SWAP2 SWAP1 PUSH2 0xDF9 JUMP JUMPDEST PUSH1 0x40 MLOAD DUP1 SWAP2 SUB SWAP1 RETURN JUMPDEST PUSH2 0x15F PUSH1 0x4 DUP1 CALLDATASIZE SUB DUP2 ADD SWAP1 PUSH2 0x15A SWAP2 SWAP1 PUSH2 0xE12 JUMP JUMPDEST PUSH2 0x477 JUMP JUMPDEST PUSH1 0x40 MLOAD PUSH2 0x16C SWAP2 SWAP1 PUSH2 0xDF9 JUMP JUMPDEST PUSH1 0x40 MLOAD DUP1 SWAP2 SUB SWAP1 RETURN JUMPDEST PUSH2 0x18F PUSH1 0x4 DUP1 CALLDATASIZE SUB DUP2 ADD SWAP1 PUSH2 0x18A SWAP2 SWAP1 PUSH2 0xE62 JUMP JUMPDEST PUSH2 0x575 JUMP JUMPDEST PUSH1 0x40 MLOAD PUSH2 0x19D SWAP3 SWAP2 SWAP1 PUSH2 0xEB7 JUMP JUMPDEST PUSH1 0x40 MLOAD DUP1 SWAP2 SUB SWAP1 RETURN JUMPDEST PUSH2 0x1C0 PUSH1 0x4 DUP1 CALLDATASIZE SUB DUP2 ADD SWAP1 PUSH2 0x1BB SWAP2 SWAP1 PUSH2 0xF08 JUMP JUMPDEST PUSH2 0x585 JUMP JUMPDEST PUSH1 0x40 MLOAD PUSH2 0x1CD SWAP2 SWAP1 PUSH2 0xDF9 JUMP JUMPDEST PUSH1 0x40 MLOAD DUP1 SWAP2 SUB SWAP1 RETURN JUMPDEST PUSH2 0x1F0 PUSH1 0x4 DUP1 CALLDATASIZE SUB DUP2 ADD SWAP1 PUSH2 0x1EB SWAP2 SWAP1 PUSH2 0xF46 JUMP JUMPDEST PUSH2 0x683 JUMP JUMPDEST PUSH1 0x40 MLOAD PUSH2 0x1FD SWAP2 SWAP1 PUSH2 0xD46 JUMP JUMPDEST PUSH1 0x40 MLOAD DUP1 SWAP2 SUB SWAP1 RETURN JUMPDEST PUSH2 0x220 PUSH1 0x4 DUP1 CALLDATASIZE SUB DUP2 ADD SWAP1 PUSH2 0x21B SWAP2 SWAP1 PUSH2 0xFB8 JUMP JUMPDEST PUSH2 0x6AE JUMP JUMPDEST PUSH1 0x40 MLOAD PUSH2 0x22D SWAP2 SWAP1 PUSH2 0xD46 JUMP JUMPDEST PUSH1 0x40 MLOAD DUP1 SWAP2 SUB SWAP1 RETURN JUMPDEST PUSH2 0x23E PUSH2 0x8CB JUMP JUMPDEST PUSH1 0x40 MLOAD PUSH2 0x24B SWAP2 SWAP1 PUSH2 0xDF9 JUMP JUMPDEST PUSH1 0x40 MLOAD DUP1 SWAP2 SUB SWAP1 RETURN JUMPDEST PUSH2 0x26E PUSH1 0x4 DUP1 CALLDATASIZE SUB DUP2 ADD SWAP1 PUSH2 0x269 SWAP2 SWAP1 PUSH2 0xFE3 JUMP JUMPDEST PUSH2 0x8CF JUMP JUMPDEST PUSH1 0x40 MLOAD PUSH2 0x27B SWAP2 SWAP1 PUSH2 0xDF9 JUMP JUMPDEST PUSH1 0x40 MLOAD DUP1 SWAP2 SUB SWAP1 RETURN JUMPDEST PUSH2 0x29E PUSH1 0x4 DUP1 CALLDATASIZE SUB DUP2 ADD SWAP1 PUSH2 0x299 SWAP2 SWAP1 PUSH2 0x1021 JUMP JUMPDEST PUSH2 0x8F8 JUMP JUMPDEST PUSH1 0x40 MLOAD PUSH2 0x2AB SWAP2 SWAP1 PUSH2 0xDF9 JUMP JUMPDEST PUSH1 0x40 MLOAD DUP1 SWAP2 SUB SWAP1 RETURN JUMPDEST PUSH2 0x2BC PUSH2 0xC3F JUMP JUMPDEST STOP JUMPDEST PUSH1 0x1 PUSH1 0x20 MSTORE DUP2 PUSH0 MSTORE PUSH1 0x40 PUSH0 KECCAK256 PUSH1 0x20 MSTORE DUP1 PUSH0 MSTORE PUSH1 0x40 PUSH0 KECCAK256 PUSH0 SWAP2 POP SWAP2 POP POP SLOAD DUP2 JUMP JUMPDEST PUSH0 PUSH4 0x1FFC9A7 PUSH1 0xE0 SHL DUP3 PUSH28 0xFFFFFFFFFFFFFFFFFFFFFFFFFFFFFFFFFFFFFFFFFFFFFFFFFFFFFFFF NOT AND EQ DUP1 PUSH2 0x338 JUMPI POP PUSH4 0xF632FB3 PUSH1 0xE0 SHL DUP3 PUSH28 0xFFFFFFFFFFFFFFFFFFFFFFFFFFFFFFFFFFFFFFFFFFFFFFFFFFFFFFFF NOT AND EQ JUMPDEST SWAP1 POP SWAP2 SWAP1 POP JUMP JUMPDEST PUSH0 DUP2 PUSH1 0x1 PUSH0 CALLER PUSH20 0xFFFFFFFFFFFFFFFFFFFFFFFFFFFFFFFFFFFFFFFF AND PUSH20 0xFFFFFFFFFFFFFFFFFFFFFFFFFFFFFFFFFFFFFFFF AND DUP2 MSTORE PUSH1 0x20 ADD SWAP1 DUP2 MSTORE PUSH1 0x20 ADD PUSH0 KECCAK256 PUSH0 DUP6 DUP2 MSTORE PUSH1 0x20 ADD SWAP1 DUP2 MSTORE PUSH1 0x20 ADD PUSH0 KECCAK256 PUSH0 DUP3 DUP3 SLOAD PUSH2 0x39B SWAP2 SWAP1 PUSH2 0x10B2 JUMP JUMPDEST SWAP3 POP POP DUP2 SWAP1 SSTORE POP DUP2 PUSH1 0x1 PUSH0 DUP7 PUSH20 0xFFFFFFFFFFFFFFFFFFFFFFFFFFFFFFFFFFFFFFFF AND PUSH20 0xFFFFFFFFFFFFFFFFFFFFFFFFFFFFFFFFFFFFFFFF AND DUP2 MSTORE PUSH1 0x20 ADD SWAP1 DUP2 MSTORE PUSH1 0x20 ADD PUSH0 KECCAK256 PUSH0 DUP6 DUP2 MSTORE PUSH1 0x20 ADD SWAP1 DUP2 MSTORE PUSH1 0x20 ADD PUSH0 KECCAK256 PUSH0 DUP3 DUP3 SLOAD PUSH2 0x3FD SWAP2 SWAP1 PUSH2 0x10E5 JUMP JUMPDEST SWAP3 POP POP DUP2 SWAP1 SSTORE POP DUP3 DUP5 PUSH20 0xFFFFFFFFFFFFFFFFFFFFFFFFFFFFFFFFFFFFFFFF AND CALLER PUSH20 0xFFFFFFFFFFFFFFFFFFFFFFFFFFFFFFFFFFFFFFFF AND PUSH32 0x1B3D7EDB2E9C0B0E7C525B20AAAEF0F5940D2ED71663C7D39266ECAFAC728859 CALLER DUP7 PUSH1 0x40 MLOAD PUSH2 0x464 SWAP3 SWAP2 SWAP1 PUSH2 0x1127 JUMP JUMPDEST PUSH1 0x40 MLOAD DUP1 SWAP2 SUB SWAP1 LOG4 PUSH1 0x1 SWAP1 POP SWAP4 SWAP3 POP POP POP JUMP JUMPDEST PUSH0 DUP2 PUSH1 0x2 PUSH0 CALLER PUSH20 0xFFFFFFFFFFFFFFFFFFFFFFFFFFFFFFFFFFFFFFFF AND PUSH20 0xFFFFFFFFFFFFFFFFFFFFFFFFFFFFFFFFFFFFFFFF AND DUP2 MSTORE PUSH1 0x20 ADD SWAP1 DUP2 MSTORE PUSH1 0x20 ADD PUSH0 KECCAK256 PUSH0 DUP7 PUSH20 0xFFFFFFFFFFFFFFFFFFFFFFFFFFFFFFFFFFFFFFFF AND PUSH20 0xFFFFFFFFFFFFFFFFFFFFFFFFFFFFFFFFFFFFFFFF AND DUP2 MSTORE PUSH1 0x20 ADD SWAP1 DUP2 MSTORE PUSH1 0x20 ADD PUSH0 KECCAK256 PUSH0 DUP6 DUP2 MSTORE PUSH1 0x20 ADD SWAP1 DUP2 MSTORE PUSH1 0x20 ADD PUSH0 KECCAK256 DUP2 SWAP1 SSTORE POP DUP3 DUP5 PUSH20 0xFFFFFFFFFFFFFFFFFFFFFFFFFFFFFFFFFFFFFFFF AND CALLER PUSH20 0xFFFFFFFFFFFFFFFFFFFFFFFFFFFFFFFFFFFFFFFF AND PUSH32 0xB3FD5071835887567A0671151121894DDCCC2842F1D10BEDAD13E0D17CACE9A7 DUP6 PUSH1 0x40 MLOAD PUSH2 0x562 SWAP2 SWAP1 PUSH2 0xD46 JUMP JUMPDEST PUSH1 0x40 MLOAD DUP1 SWAP2 SUB SWAP1 LOG4 PUSH1 0x1 SWAP1 POP SWAP4 SWAP3 POP POP POP JUMP JUMPDEST PUSH0 PUSH0 PUSH1 0xFA SWAP2 POP PUSH2 0x4DE SWAP1 POP SWAP2 POP SWAP2 JUMP JUMPDEST PUSH0 DUP2 PUSH0 PUSH0 CALLER PUSH20 0xFFFFFFFFFFFFFFFFFFFFFFFFFFFFFFFFFFFFFFFF AND PUSH20 0xFFFFFFFFFFFFFFFFFFFFFFFFFFFFFFFFFFFFFFFF AND DUP2 MSTORE PUSH1 0x20 ADD SWAP1 DUP2 MSTORE PUSH1 0x20 ADD PUSH0 KECCAK256 PUSH0 DUP6 PUSH20 0xFFFFFFFFFFFFFFFFFFFFFFFFFFFFFFFFFFFFFFFF AND PUSH20 0xFFFFFFFFFFFFFFFFFFFFFFFFFFFFFFFFFFFFFFFF AND DUP2 MSTORE PUSH1 0x20 ADD SWAP1 DUP2 MSTORE PUSH1 0x20 ADD PUSH0 KECCAK256 PUSH0 PUSH2 0x100 EXP DUP2 SLOAD DUP2 PUSH1 0xFF MUL NOT AND SWAP1 DUP4 ISZERO ISZERO MUL OR SWAP1 SSTORE POP DUP3 PUSH20 0xFFFFFFFFFFFFFFFFFFFFFFFFFFFFFFFFFFFFFFFF AND CALLER PUSH20 0xFFFFFFFFFFFFFFFFFFFFFFFFFFFFFFFFFFFFFFFF AND PUSH32 0xCEB576D9F15E4E200FDB5096D64D5DFD667E16DEF20C1EEFD14256D8E3FAA267 DUP5 PUSH1 0x40 MLOAD PUSH2 0x671 SWAP2 SWAP1 PUSH2 0xDF9 JUMP JUMPDEST PUSH1 0x40 MLOAD DUP1 SWAP2 SUB SWAP1 LOG3 PUSH1 0x1 SWAP1 POP SWAP3 SWAP2 POP POP JUMP JUMPDEST PUSH1 0x2 PUSH1 0x20 MSTORE DUP3 PUSH0 MSTORE PUSH1 0x40 PUSH0 KECCAK256 PUSH1 0x20 MSTORE DUP2 PUSH0 MSTORE PUSH1 0x40 PUSH0 KECCAK256 PUSH1 0x20 MSTORE DUP1 PUSH0 MSTORE PUSH1 0x40 PUSH0 KECCAK256 PUSH0 SWAP3 POP SWAP3 POP POP POP SLOAD DUP2 JUMP JUMPDEST PUSH0 PUSH0 PUSH2 0x6F0 DUP4 PUSH1 0x20 ADD PUSH1 0x20 DUP2 ADD SWAP1 PUSH2 0x6C6 SWAP2 SWAP1 PUSH2 0x114E JUMP JUMPDEST DUP5 PUSH1 0x40 ADD PUSH1 0x20 DUP2 ADD SWAP1 PUSH2 0x6D9 SWAP2 SWAP1 PUSH2 0x11B0 JUMP JUMPDEST DUP6 PUSH0 ADD PUSH1 0x20 DUP2 ADD SWAP1 PUSH2 0x6EB SWAP2 SWAP1 PUSH2 0x121A JUMP JUMPDEST PUSH2 0xC41 JUMP JUMPDEST SWAP1 POP PUSH0 DUP4 PUSH1 0x20 ADD PUSH1 0x20 DUP2 ADD SWAP1 PUSH2 0x706 SWAP2 SWAP1 PUSH2 0x114E JUMP JUMPDEST PUSH20 0xFFFFFFFFFFFFFFFFFFFFFFFFFFFFFFFFFFFFFFFF AND PUSH4 0x3DC355FE DUP6 PUSH0 ADD PUSH1 0x20 DUP2 ADD SWAP1 PUSH2 0x733 SWAP2 SWAP1 PUSH2 0x121A JUMP JUMPDEST PUSH1 0x40 MLOAD DUP3 PUSH4 0xFFFFFFFF AND PUSH1 0xE0 SHL DUP2 MSTORE PUSH1 0x4 ADD PUSH2 0x74F SWAP2 SWAP1 PUSH2 0x127E JUMP JUMPDEST PUSH1 0x40 DUP1 MLOAD DUP1 DUP4 SUB DUP2 PUSH0 DUP8 GAS CALL ISZERO DUP1 ISZERO PUSH2 0x76A JUMPI RETURNDATASIZE PUSH0 PUSH0 RETURNDATACOPY RETURNDATASIZE PUSH0 REVERT JUMPDEST POP POP POP POP PUSH1 0x40 MLOAD RETURNDATASIZE PUSH1 0x1F NOT PUSH1 0x1F DUP3 ADD AND DUP3 ADD DUP1 PUSH1 0x40 MSTORE POP DUP2 ADD SWAP1 PUSH2 0x78E SWAP2 SWAP1 PUSH2 0x1384 JUMP JUMPDEST SWAP1 POP PUSH0 PUSH0 PUSH2 0x79B DUP5 PUSH2 0x575 JUMP JUMPDEST SWAP2 POP SWAP2 POP PUSH0 PUSH1 0x40 MLOAD DUP1 PUSH1 0x80 ADD PUSH1 0x40 MSTORE DUP1 DUP9 PUSH1 0x60 ADD CALLDATALOAD DUP2 MSTORE PUSH1 0x20 ADD DUP9 PUSH1 0x80 ADD PUSH1 0x20 DUP2 ADD SWAP1 PUSH2 0x7C8 SWAP2 SWAP1 PUSH2 0x13AF JUMP JUMPDEST ISZERO ISZERO DUP2 MSTORE PUSH1 0x20 ADD DUP5 PUSH16 0xFFFFFFFFFFFFFFFFFFFFFFFFFFFFFFFF AND DUP2 MSTORE PUSH1 0x20 ADD DUP4 PUSH16 0xFFFFFFFFFFFFFFFFFFFFFFFFFFFFFFFF AND DUP2 MSTORE POP SWAP1 POP PUSH0 PUSH1 0x40 MLOAD DUP1 PUSH1 0x60 ADD PUSH1 0x40 MSTORE DUP1 DUP10 PUSH1 0x40 ADD PUSH1 0x20 DUP2 ADD SWAP1 PUSH2 0x81E SWAP2 SWAP1 PUSH2 0x11B0 JUMP JUMPDEST PUSH2 0xFFFF AND DUP2 MSTORE PUSH1 0x20 ADD DUP7 DUP2 MSTORE PUSH1 0x20 ADD DUP4 DUP2 MSTORE POP SWAP1 POP DUP8 PUSH1 0x20 ADD PUSH1 0x20 DUP2 ADD SWAP1 PUSH2 0x846 SWAP2 SWAP1 PUSH2 0x114E JUMP JUMPDEST PUSH20 0xFFFFFFFFFFFFFFFFFFFFFFFFFFFFFFFFFFFFFFFF AND PUSH4 0xE176B360 DUP3 PUSH1 0x40 MLOAD DUP3 PUSH4 0xFFFFFFFF AND PUSH1 0xE0 SHL DUP2 MSTORE PUSH1 0x4 ADD PUSH2 0x87E SWAP2 SWAP1 PUSH2 0x14C7 JUMP JUMPDEST PUSH1 0x20 PUSH1 0x40 MLOAD DUP1 DUP4 SUB DUP2 PUSH0 DUP8 GAS CALL ISZERO DUP1 ISZERO PUSH2 0x89A JUMPI RETURNDATASIZE PUSH0 PUSH0 RETURNDATACOPY RETURNDATASIZE PUSH0 REVERT JUMPDEST POP POP POP POP PUSH1 0x40 MLOAD RETURNDATASIZE PUSH1 0x1F NOT PUSH1 0x1F DUP3 ADD AND DUP3 ADD DUP1 PUSH1 0x40 MSTORE POP DUP2 ADD SWAP1 PUSH2 0x8BE SWAP2 SWAP1 PUSH2 0x14E0 JUMP JUMPDEST SWAP7 POP POP POP POP POP POP POP SWAP2 SWAP1 POP JUMP JUMPDEST PUSH0 SWAP1 JUMP JUMPDEST PUSH0 PUSH1 0x20 MSTORE DUP2 PUSH0 MSTORE PUSH1 0x40 PUSH0 KECCAK256 PUSH1 0x20 MSTORE DUP1 PUSH0 MSTORE PUSH1 0x40 PUSH0 KECCAK256 PUSH0 SWAP2 POP SWAP2 POP SWAP1 SLOAD SWAP1 PUSH2 0x100 EXP SWAP1 DIV PUSH1 0xFF AND DUP2 JUMP JUMPDEST PUSH0 DUP5 PUSH20 0xFFFFFFFFFFFFFFFFFFFFFFFFFFFFFFFFFFFFFFFF AND CALLER PUSH20 0xFFFFFFFFFFFFFFFFFFFFFFFFFFFFFFFFFFFFFFFF AND EQ ISZERO DUP1 ISZERO PUSH2 0x9B6 JUMPI POP PUSH0 PUSH0 DUP7 PUSH20 0xFFFFFFFFFFFFFFFFFFFFFFFFFFFFFFFFFFFFFFFF AND PUSH20 0xFFFFFFFFFFFFFFFFFFFFFFFFFFFFFFFFFFFFFFFF AND DUP2 MSTORE PUSH1 0x20 ADD SWAP1 DUP2 MSTORE PUSH1 0x20 ADD PUSH0 KECCAK256 PUSH0 CALLER PUSH20 0xFFFFFFFFFFFFFFFFFFFFFFFFFFFFFFFFFFFFFFFF AND PUSH20 0xFFFFFFFFFFFFFFFFFFFFFFFFFFFFFFFFFFFFFFFF AND DUP2 MSTORE PUSH1 0x20 ADD SWAP1 DUP2 MSTORE PUSH1 0x20 ADD PUSH0 KECCAK256 PUSH0 SWAP1 SLOAD SWAP1 PUSH2 0x100 EXP SWAP1 DIV PUSH1 0xFF AND ISZERO JUMPDEST ISZERO PUSH2 0xB07 JUMPI PUSH0 PUSH1 0x2 PUSH0 DUP8 PUSH20 0xFFFFFFFFFFFFFFFFFFFFFFFFFFFFFFFFFFFFFFFF AND PUSH20 0xFFFFFFFFFFFFFFFFFFFFFFFFFFFFFFFFFFFFFFFF AND DUP2 MSTORE PUSH1 0x20 ADD SWAP1 DUP2 MSTORE PUSH1 0x20 ADD PUSH0 KECCAK256 PUSH0 CALLER PUSH20 0xFFFFFFFFFFFFFFFFFFFFFFFFFFFFFFFFFFFFFFFF AND PUSH20 0xFFFFFFFFFFFFFFFFFFFFFFFFFFFFFFFFFFFFFFFF AND DUP2 MSTORE PUSH1 0x20 ADD SWAP1 DUP2 MSTORE PUSH1 0x20 ADD PUSH0 KECCAK256 PUSH0 DUP6 DUP2 MSTORE PUSH1 0x20 ADD SWAP1 DUP2 MSTORE PUSH1 0x20 ADD PUSH0 KECCAK256 SLOAD SWAP1 POP PUSH32 0xFFFFFFFFFFFFFFFFFFFFFFFFFFFFFFFFFFFFFFFFFFFFFFFFFFFFFFFFFFFFFFFF DUP2 EQ PUSH2 0xB05 JUMPI DUP3 DUP2 PUSH2 0xA79 SWAP2 SWAP1 PUSH2 0x10B2 JUMP JUMPDEST PUSH1 0x2 PUSH0 DUP9 PUSH20 0xFFFFFFFFFFFFFFFFFFFFFFFFFFFFFFFFFFFFFFFF AND PUSH20 0xFFFFFFFFFFFFFFFFFFFFFFFFFFFFFFFFFFFFFFFF AND DUP2 MSTORE PUSH1 0x20 ADD SWAP1 DUP2 MSTORE PUSH1 0x20 ADD PUSH0 KECCAK256 PUSH0 CALLER PUSH20 0xFFFFFFFFFFFFFFFFFFFFFFFFFFFFFFFFFFFFFFFF AND PUSH20 0xFFFFFFFFFFFFFFFFFFFFFFFFFFFFFFFFFFFFFFFF AND DUP2 MSTORE PUSH1 0x20 ADD SWAP1 DUP2 MSTORE PUSH1 0x20 ADD PUSH0 KECCAK256 PUSH0 DUP7 DUP2 MSTORE PUSH1 0x20 ADD SWAP1 DUP2 MSTORE PUSH1 0x20 ADD PUSH0 KECCAK256 DUP2 SWAP1 SSTORE POP JUMPDEST POP JUMPDEST DUP2 PUSH1 0x1 PUSH0 DUP8 PUSH20 0xFFFFFFFFFFFFFFFFFFFFFFFFFFFFFFFFFFFFFFFF AND PUSH20 0xFFFFFFFFFFFFFFFFFFFFFFFFFFFFFFFFFFFFFFFF AND DUP2 MSTORE PUSH1 0x20 ADD SWAP1 DUP2 MSTORE PUSH1 0x20 ADD PUSH0 KECCAK256 PUSH0 DUP6 DUP2 MSTORE PUSH1 0x20 ADD SWAP1 DUP2 MSTORE PUSH1 0x20 ADD PUSH0 KECCAK256 PUSH0 DUP3 DUP3 SLOAD PUSH2 0xB62 SWAP2 SWAP1 PUSH2 0x10B2 JUMP JUMPDEST SWAP3 POP POP DUP2 SWAP1 SSTORE POP DUP2 PUSH1 0x1 PUSH0 DUP7 PUSH20 0xFFFFFFFFFFFFFFFFFFFFFFFFFFFFFFFFFFFFFFFF AND PUSH20 0xFFFFFFFFFFFFFFFFFFFFFFFFFFFFFFFFFFFFFFFF AND DUP2 MSTORE PUSH1 0x20 ADD SWAP1 DUP2 MSTORE PUSH1 0x20 ADD PUSH0 KECCAK256 PUSH0 DUP6 DUP2 MSTORE PUSH1 0x20 ADD SWAP1 DUP2 MSTORE PUSH1 0x20 ADD PUSH0 KECCAK256 PUSH0 DUP3 DUP3 SLOAD PUSH2 0xBC4 SWAP2 SWAP1 PUSH2 0x10E5 JUMP JUMPDEST SWAP3 POP POP DUP2 SWAP1 SSTORE POP DUP3 DUP5 PUSH20 0xFFFFFFFFFFFFFFFFFFFFFFFFFFFFFFFFFFFFFFFF AND DUP7 PUSH20 0xFFFFFFFFFFFFFFFFFFFFFFFFFFFFFFFFFFFFFFFF AND PUSH32 0x1B3D7EDB2E9C0B0E7C525B20AAAEF0F5940D2ED71663C7D39266ECAFAC728859 CALLER DUP7 PUSH1 0x40 MLOAD PUSH2 0xC2B SWAP3 SWAP2 SWAP1 PUSH2 0x1127 JUMP JUMPDEST PUSH1 0x40 MLOAD DUP1 SWAP2 SUB SWAP1 LOG4 PUSH1 0x1 SWAP1 POP SWAP5 SWAP4 POP POP POP POP JUMP JUMPDEST JUMP JUMPDEST PUSH0 DUP4 SWAP1 POP DUP1 PUSH1 0x60 SHL SWAP1 POP DUP3 PUSH1 0x50 SHL DUP2 OR SWAP1 POP DUP2 DUP2 OR SWAP1 POP SWAP4 SWAP3 POP POP POP JUMP JUMPDEST PUSH0 PUSH1 0x40 MLOAD SWAP1 POP SWAP1 JUMP JUMPDEST PUSH0 PUSH0 REVERT JUMPDEST PUSH0 PUSH20 0xFFFFFFFFFFFFFFFFFFFFFFFFFFFFFFFFFFFFFFFF DUP3 AND SWAP1 POP SWAP2 SWAP1 POP JUMP JUMPDEST PUSH0 PUSH2 0xC95 DUP3 PUSH2 0xC6C JUMP JUMPDEST SWAP1 POP SWAP2 SWAP1 POP JUMP JUMPDEST PUSH2 0xCA5 DUP2 PUSH2 0xC8B JUMP JUMPDEST DUP2 EQ PUSH2 0xCAF JUMPI PUSH0 PUSH0 REVERT JUMPDEST POP JUMP JUMPDEST PUSH0 DUP2 CALLDATALOAD SWAP1 POP PUSH2 0xCC0 DUP2 PUSH2 0xC9C JUMP JUMPDEST SWAP3 SWAP2 POP POP JUMP JUMPDEST PUSH0 DUP2 SWAP1 POP SWAP2 SWAP1 POP JUMP JUMPDEST PUSH2 0xCD8 DUP2 PUSH2 0xCC6 JUMP JUMPDEST DUP2 EQ PUSH2 0xCE2 JUMPI PUSH0 PUSH0 REVERT JUMPDEST POP JUMP JUMPDEST PUSH0 DUP2 CALLDATALOAD SWAP1 POP PUSH2 0xCF3 DUP2 PUSH2 0xCCF JUMP JUMPDEST SWAP3 SWAP2 POP POP JUMP JUMPDEST PUSH0 PUSH0 PUSH1 0x40 DUP4 DUP6 SUB SLT ISZERO PUSH2 0xD0F JUMPI PUSH2 0xD0E PUSH2 0xC68 JUMP JUMPDEST JUMPDEST PUSH0 PUSH2 0xD1C DUP6 DUP3 DUP7 ADD PUSH2 0xCB2 JUMP JUMPDEST SWAP3 POP POP PUSH1 0x20 PUSH2 0xD2D DUP6 DUP3 DUP7 ADD PUSH2 0xCE5 JUMP JUMPDEST SWAP2 POP POP SWAP3 POP SWAP3 SWAP1 POP JUMP JUMPDEST PUSH2 0xD40 DUP2 PUSH2 0xCC6 JUMP JUMPDEST DUP3 MSTORE POP POP JUMP JUMPDEST PUSH0 PUSH1 0x20 DUP3 ADD SWAP1 POP PUSH2 0xD59 PUSH0 DUP4 ADD DUP5 PUSH2 0xD37 JUMP JUMPDEST SWAP3 SWAP2 POP POP JUMP JUMPDEST PUSH0 PUSH32 0xFFFFFFFF00000000000000000000000000000000000000000000000000000000 DUP3 AND SWAP1 POP SWAP2 SWAP1 POP JUMP JUMPDEST PUSH2 0xD93 DUP2 PUSH2 0xD5F JUMP JUMPDEST DUP2 EQ PUSH2 0xD9D JUMPI PUSH0 PUSH0 REVERT JUMPDEST POP JUMP JUMPDEST PUSH0 DUP2 CALLDATALOAD SWAP1 POP PUSH2 0xDAE DUP2 PUSH2 0xD8A JUMP JUMPDEST SWAP3 SWAP2 POP POP JUMP JUMPDEST PUSH0 PUSH1 0x20 DUP3 DUP5 SUB SLT ISZERO PUSH2 0xDC9 JUMPI PUSH2 0xDC8 PUSH2 0xC68 JUMP JUMPDEST JUMPDEST PUSH0 PUSH2 0xDD6 DUP5 DUP3 DUP6 ADD PUSH2 0xDA0 JUMP JUMPDEST SWAP2 POP POP SWAP3 SWAP2 POP POP JUMP JUMPDEST PUSH0 DUP2 ISZERO ISZERO SWAP1 POP SWAP2 SWAP1 POP JUMP JUMPDEST PUSH2 0xDF3 DUP2 PUSH2 0xDDF JUMP JUMPDEST DUP3 MSTORE POP POP JUMP JUMPDEST PUSH0 PUSH1 0x20 DUP3 ADD SWAP1 POP PUSH2 0xE0C PUSH0 DUP4 ADD DUP5 PUSH2 0xDEA JUMP JUMPDEST SWAP3 SWAP2 POP POP JUMP JUMPDEST PUSH0 PUSH0 PUSH0 PUSH1 0x60 DUP5 DUP7 SUB SLT ISZERO PUSH2 0xE29 JUMPI PUSH2 0xE28 PUSH2 0xC68 JUMP JUMPDEST JUMPDEST PUSH0 PUSH2 0xE36 DUP7 DUP3 DUP8 ADD PUSH2 0xCB2 JUMP JUMPDEST SWAP4 POP POP PUSH1 0x20 PUSH2 0xE47 DUP7 DUP3 DUP8 ADD PUSH2 0xCE5 JUMP JUMPDEST SWAP3 POP POP PUSH1 0x40 PUSH2 0xE58 DUP7 DUP3 DUP8 ADD PUSH2 0xCE5 JUMP JUMPDEST SWAP2 POP POP SWAP3 POP SWAP3 POP SWAP3 JUMP JUMPDEST PUSH0 PUSH1 0x20 DUP3 DUP5 SUB SLT ISZERO PUSH2 0xE77 JUMPI PUSH2 0xE76 PUSH2 0xC68 JUMP JUMPDEST JUMPDEST PUSH0 PUSH2 0xE84 DUP5 DUP3 DUP6 ADD PUSH2 0xCE5 JUMP JUMPDEST SWAP2 POP POP SWAP3 SWAP2 POP POP JUMP JUMPDEST PUSH0 PUSH16 0xFFFFFFFFFFFFFFFFFFFFFFFFFFFFFFFF DUP3 AND SWAP1 POP SWAP2 SWAP1 POP JUMP JUMPDEST PUSH2 0xEB1 DUP2 PUSH2 0xE8D JUMP JUMPDEST DUP3 MSTORE POP POP JUMP JUMPDEST PUSH0 PUSH1 0x40 DUP3 ADD SWAP1 POP PUSH2 0xECA PUSH0 DUP4 ADD DUP6 PUSH2 0xEA8 JUMP JUMPDEST PUSH2 0xED7 PUSH1 0x20 DUP4 ADD DUP5 PUSH2 0xEA8 JUMP JUMPDEST SWAP4 SWAP3 POP POP POP JUMP JUMPDEST PUSH2 0xEE7 DUP2 PUSH2 0xDDF JUMP JUMPDEST DUP2 EQ PUSH2 0xEF1 JUMPI PUSH0 PUSH0 REVERT JUMPDEST POP JUMP JUMPDEST PUSH0 DUP2 CALLDATALOAD SWAP1 POP PUSH2 0xF02 DUP2 PUSH2 0xEDE JUMP JUMPDEST SWAP3 SWAP2 POP POP JUMP JUMPDEST PUSH0 PUSH0 PUSH1 0x40 DUP4 DUP6 SUB SLT ISZERO PUSH2 0xF1E JUMPI PUSH2 0xF1D PUSH2 0xC68 JUMP JUMPDEST JUMPDEST PUSH0 PUSH2 0xF2B DUP6 DUP3 DUP7 ADD PUSH2 0xCB2 JUMP JUMPDEST SWAP3 POP POP PUSH1 0x20 PUSH2 0xF3C DUP6 DUP3 DUP7 ADD PUSH2 0xEF4 JUMP JUMPDEST SWAP2 POP POP SWAP3 POP SWAP3 SWAP1 POP JUMP JUMPDEST PUSH0 PUSH0 PUSH0 PUSH1 0x60 DUP5 DUP7 SUB SLT ISZERO PUSH2 0xF5D JUMPI PUSH2 0xF5C PUSH2 0xC68 JUMP JUMPDEST JUMPDEST PUSH0 PUSH2 0xF6A DUP7 DUP3 DUP8 ADD PUSH2 0xCB2 JUMP JUMPDEST SWAP4 POP POP PUSH1 0x20 PUSH2 0xF7B DUP7 DUP3 DUP8 ADD PUSH2 0xCB2 JUMP JUMPDEST SWAP3 POP POP PUSH1 0x40 PUSH2 0xF8C DUP7 DUP3 DUP8 ADD PUSH2 0xCE5 JUMP JUMPDEST SWAP2 POP POP SWAP3 POP SWAP3 POP SWAP3 JUMP JUMPDEST PUSH0 PUSH0 REVERT JUMPDEST PUSH0 PUSH1 0xA0 DUP3 DUP5 SUB SLT ISZERO PUSH2 0xFAF JUMPI PUSH2 0xFAE PUSH2 0xF96 JUMP JUMPDEST JUMPDEST DUP2 SWAP1 POP SWAP3 SWAP2 POP POP JUMP JUMPDEST PUSH0 PUSH1 0xA0 DUP3 DUP5 SUB SLT ISZERO PUSH2 0xFCD JUMPI PUSH2 0xFCC PUSH2 0xC68 JUMP JUMPDEST JUMPDEST PUSH0 PUSH2 0xFDA DUP5 DUP3 DUP6 ADD PUSH2 0xF9A JUMP JUMPDEST SWAP2 POP POP SWAP3 SWAP2 POP POP JUMP JUMPDEST PUSH0 PUSH0 PUSH1 0x40 DUP4 DUP6 SUB SLT ISZERO PUSH2 0xFF9 JUMPI PUSH2 0xFF8 PUSH2 0xC68 JUMP JUMPDEST JUMPDEST PUSH0 PUSH2 0x1006 DUP6 DUP3 DUP7 ADD PUSH2 0xCB2 JUMP JUMPDEST SWAP3 POP POP PUSH1 0x20 PUSH2 0x1017 DUP6 DUP3 DUP7 ADD PUSH2 0xCB2 JUMP JUMPDEST SWAP2 POP POP SWAP3 POP SWAP3 SWAP1 POP JUMP JUMPDEST PUSH0 PUSH0 PUSH0 PUSH0 PUSH1 0x80 DUP6 DUP8 SUB SLT ISZERO PUSH2 0x1039 JUMPI PUSH2 0x1038 PUSH2 0xC68 JUMP JUMPDEST JUMPDEST PUSH0 PUSH2 0x1046 DUP8 DUP3 DUP9 ADD PUSH2 0xCB2 JUMP JUMPDEST SWAP5 POP POP PUSH1 0x20 PUSH2 0x1057 DUP8 DUP3 DUP9 ADD PUSH2 0xCB2 JUMP JUMPDEST SWAP4 POP POP PUSH1 0x40 PUSH2 0x1068 DUP8 DUP3 DUP9 ADD PUSH2 0xCE5 JUMP JUMPDEST SWAP3 POP POP PUSH1 0x60 PUSH2 0x1079 DUP8 DUP3 DUP9 ADD PUSH2 0xCE5 JUMP JUMPDEST SWAP2 POP POP SWAP3 SWAP6 SWAP2 SWAP5 POP SWAP3 POP JUMP JUMPDEST PUSH32 0x4E487B7100000000000000000000000000000000000000000000000000000000 PUSH0 MSTORE PUSH1 0x11 PUSH1 0x4 MSTORE PUSH1 0x24 PUSH0 REVERT JUMPDEST PUSH0 PUSH2 0x10BC DUP3 PUSH2 0xCC6 JUMP JUMPDEST SWAP2 POP PUSH2 0x10C7 DUP4 PUSH2 0xCC6 JUMP JUMPDEST SWAP3 POP DUP3 DUP3 SUB SWAP1 POP DUP2 DUP2 GT ISZERO PUSH2 0x10DF JUMPI PUSH2 0x10DE PUSH2 0x1085 JUMP JUMPDEST JUMPDEST SWAP3 SWAP2 POP POP JUMP JUMPDEST PUSH0 PUSH2 0x10EF DUP3 PUSH2 0xCC6 JUMP JUMPDEST SWAP2 POP PUSH2 0x10FA DUP4 PUSH2 0xCC6 JUMP JUMPDEST SWAP3 POP DUP3 DUP3 ADD SWAP1 POP DUP1 DUP3 GT ISZERO PUSH2 0x1112 JUMPI PUSH2 0x1111 PUSH2 0x1085 JUMP JUMPDEST JUMPDEST SWAP3 SWAP2 POP POP JUMP JUMPDEST PUSH2 0x1121 DUP2 PUSH2 0xC8B JUMP JUMPDEST DUP3 MSTORE POP POP JUMP JUMPDEST PUSH0 PUSH1 0x40 DUP3 ADD SWAP1 POP PUSH2 0x113A PUSH0 DUP4 ADD DUP6 PUSH2 0x1118 JUMP JUMPDEST PUSH2 0x1147 PUSH1 0x20 DUP4 ADD DUP5 PUSH2 0xD37 JUMP JUMPDEST SWAP4 SWAP3 POP POP POP JUMP JUMPDEST PUSH0 PUSH1 0x20 DUP3 DUP5 SUB SLT ISZERO PUSH2 0x1163 JUMPI PUSH2 0x1162 PUSH2 0xC68 JUMP JUMPDEST JUMPDEST PUSH0 PUSH2 0x1170 DUP5 DUP3 DUP6 ADD PUSH2 0xCB2 JUMP JUMPDEST SWAP2 POP POP SWAP3 SWAP2 POP POP JUMP JUMPDEST PUSH0 PUSH2 0xFFFF DUP3 AND SWAP1 POP SWAP2 SWAP1 POP JUMP JUMPDEST PUSH2 0x118F DUP2 PUSH2 0x1179 JUMP JUMPDEST DUP2 EQ PUSH2 0x1199 JUMPI PUSH0 PUSH0 REVERT JUMPDEST POP JUMP JUMPDEST PUSH0 DUP2 CALLDATALOAD SWAP1 POP PUSH2 0x11AA DUP2 PUSH2 0x1186 JUMP JUMPDEST SWAP3 SWAP2 POP POP JUMP JUMPDEST PUSH0 PUSH1 0x20 DUP3 DUP5 SUB SLT ISZERO PUSH2 0x11C5 JUMPI PUSH2 0x11C4 PUSH2 0xC68 JUMP JUMPDEST JUMPDEST PUSH0 PUSH2 0x11D2 DUP5 DUP3 DUP6 ADD PUSH2 0x119C JUMP JUMPDEST SWAP2 POP POP SWAP3 SWAP2 POP POP JUMP JUMPDEST PUSH0 PUSH10 0xFFFFFFFFFFFFFFFFFFFF DUP3 AND SWAP1 POP SWAP2 SWAP1 POP JUMP JUMPDEST PUSH2 0x11F9 DUP2 PUSH2 0x11DB JUMP JUMPDEST DUP2 EQ PUSH2 0x1203 JUMPI PUSH0 PUSH0 REVERT JUMPDEST POP JUMP JUMPDEST PUSH0 DUP2 CALLDATALOAD SWAP1 POP PUSH2 0x1214 DUP2 PUSH2 0x11F0 JUMP JUMPDEST SWAP3 SWAP2 POP POP JUMP JUMPDEST PUSH0 PUSH1 0x20 DUP3 DUP5 SUB SLT ISZERO PUSH2 0x122F JUMPI PUSH2 0x122E PUSH2 0xC68 JUMP JUMPDEST JUMPDEST PUSH0 PUSH2 0x123C DUP5 DUP3 DUP6 ADD PUSH2 0x1206 JUMP JUMPDEST SWAP2 POP POP SWAP3 SWAP2 POP POP JUMP JUMPDEST PUSH0 DUP2 SWAP1 POP SWAP2 SWAP1 POP JUMP JUMPDEST PUSH0 PUSH2 0x1268 PUSH2 0x1263 PUSH2 0x125E DUP5 PUSH2 0x11DB JUMP JUMPDEST PUSH2 0x1245 JUMP JUMPDEST PUSH2 0xCC6 JUMP JUMPDEST SWAP1 POP SWAP2 SWAP1 POP JUMP JUMPDEST PUSH2 0x1278 DUP2 PUSH2 0x124E JUMP JUMPDEST DUP3 MSTORE POP POP JUMP JUMPDEST PUSH0 PUSH1 0x20 DUP3 ADD SWAP1 POP PUSH2 0x1291 PUSH0 DUP4 ADD DUP5 PUSH2 0x126F JUMP JUMPDEST SWAP3 SWAP2 POP POP JUMP JUMPDEST PUSH0 PUSH0 REVERT JUMPDEST PUSH0 PUSH1 0x1F NOT PUSH1 0x1F DUP4 ADD AND SWAP1 POP SWAP2 SWAP1 POP JUMP JUMPDEST PUSH32 0x4E487B7100000000000000000000000000000000000000000000000000000000 PUSH0 MSTORE PUSH1 0x41 PUSH1 0x4 MSTORE PUSH1 0x24 PUSH0 REVERT JUMPDEST PUSH2 0x12E1 DUP3 PUSH2 0x129B JUMP JUMPDEST DUP2 ADD DUP2 DUP2 LT PUSH8 0xFFFFFFFFFFFFFFFF DUP3 GT OR ISZERO PUSH2 0x1300 JUMPI PUSH2 0x12FF PUSH2 0x12AB JUMP JUMPDEST JUMPDEST DUP1 PUSH1 0x40 MSTORE POP POP POP JUMP JUMPDEST PUSH0 PUSH2 0x1312 PUSH2 0xC5F JUMP JUMPDEST SWAP1 POP PUSH2 0x131E DUP3 DUP3 PUSH2 0x12D8 JUMP JUMPDEST SWAP2 SWAP1 POP JUMP JUMPDEST PUSH0 DUP2 MLOAD SWAP1 POP PUSH2 0x1331 DUP2 PUSH2 0xCCF JUMP JUMPDEST SWAP3 SWAP2 POP POP JUMP JUMPDEST PUSH0 PUSH1 0x40 DUP3 DUP5 SUB SLT ISZERO PUSH2 0x134C JUMPI PUSH2 0x134B PUSH2 0x1297 JUMP JUMPDEST JUMPDEST PUSH2 0x1356 PUSH1 0x40 PUSH2 0x1309 JUMP JUMPDEST SWAP1 POP PUSH0 PUSH2 0x1365 DUP5 DUP3 DUP6 ADD PUSH2 0x1323 JUMP JUMPDEST PUSH0 DUP4 ADD MSTORE POP PUSH1 0x20 PUSH2 0x1378 DUP5 DUP3 DUP6 ADD PUSH2 0x1323 JUMP JUMPDEST PUSH1 0x20 DUP4 ADD MSTORE POP SWAP3 SWAP2 POP POP JUMP JUMPDEST PUSH0 PUSH1 0x40 DUP3 DUP5 SUB SLT ISZERO PUSH2 0x1399 JUMPI PUSH2 0x1398 PUSH2 0xC68 JUMP JUMPDEST JUMPDEST PUSH0 PUSH2 0x13A6 DUP5 DUP3 DUP6 ADD PUSH2 0x1337 JUMP JUMPDEST SWAP2 POP POP SWAP3 SWAP2 POP POP JUMP JUMPDEST PUSH0 PUSH1 0x20 DUP3 DUP5 SUB SLT ISZERO PUSH2 0x13C4 JUMPI PUSH2 0x13C3 PUSH2 0xC68 JUMP JUMPDEST JUMPDEST PUSH0 PUSH2 0x13D1 DUP5 DUP3 DUP6 ADD PUSH2 0xEF4 JUMP JUMPDEST SWAP2 POP POP SWAP3 SWAP2 POP POP JUMP JUMPDEST PUSH2 0x13E3 DUP2 PUSH2 0xCC6 JUMP JUMPDEST DUP3 MSTORE POP POP JUMP JUMPDEST PUSH1 0x40 DUP3 ADD PUSH0 DUP3 ADD MLOAD PUSH2 0x13FD PUSH0 DUP6 ADD DUP3 PUSH2 0x13DA JUMP JUMPDEST POP PUSH1 0x20 DUP3 ADD MLOAD PUSH2 0x1410 PUSH1 0x20 DUP6 ADD DUP3 PUSH2 0x13DA JUMP JUMPDEST POP POP POP POP JUMP JUMPDEST PUSH2 0x141F DUP2 PUSH2 0xDDF JUMP JUMPDEST DUP3 MSTORE POP POP JUMP JUMPDEST PUSH2 0x142E DUP2 PUSH2 0xE8D JUMP JUMPDEST DUP3 MSTORE POP POP JUMP JUMPDEST PUSH1 0x80 DUP3 ADD PUSH0 DUP3 ADD MLOAD PUSH2 0x1448 PUSH0 DUP6 ADD DUP3 PUSH2 0x13DA JUMP JUMPDEST POP PUSH1 0x20 DUP3 ADD MLOAD PUSH2 0x145B PUSH1 0x20 DUP6 ADD DUP3 PUSH2 0x1416 JUMP JUMPDEST POP PUSH1 0x40 DUP3 ADD MLOAD PUSH2 0x146E PUSH1 0x40 DUP6 ADD DUP3 PUSH2 0x1425 JUMP JUMPDEST POP PUSH1 0x60 DUP3 ADD MLOAD PUSH2 0x1481 PUSH1 0x60 DUP6 ADD DUP3 PUSH2 0x1425 JUMP JUMPDEST POP POP POP POP JUMP JUMPDEST PUSH1 0xE0 DUP3 ADD PUSH0 DUP3 ADD MLOAD PUSH2 0x149B PUSH0 DUP6 ADD DUP3 PUSH2 0x13DA JUMP JUMPDEST POP PUSH1 0x20 DUP3 ADD MLOAD PUSH2 0x14AE PUSH1 0x20 DUP6 ADD DUP3 PUSH2 0x13E9 JUMP JUMPDEST POP PUSH1 0x40 DUP3 ADD MLOAD PUSH2 0x14C1 PUSH1 0x60 DUP6 ADD DUP3 PUSH2 0x1434 JUMP JUMPDEST POP POP POP POP JUMP JUMPDEST PUSH0 PUSH1 0xE0 DUP3 ADD SWAP1 POP PUSH2 0x14DA PUSH0 DUP4 ADD DUP5 PUSH2 0x1487 JUMP JUMPDEST SWAP3 SWAP2 POP POP JUMP JUMPDEST PUSH0 PUSH1 0x20 DUP3 DUP5 SUB SLT ISZERO PUSH2 0x14F5 JUMPI PUSH2 0x14F4 PUSH2 0xC68 JUMP JUMPDEST JUMPDEST PUSH0 PUSH2 0x1502 DUP5 DUP3 DUP6 ADD PUSH2 0x1323 JUMP JUMPDEST SWAP2 POP POP SWAP3 SWAP2 POP POP JUMP INVALID LOG2 PUSH5 0x6970667358 0x22 SLT KECCAK256 0xB6 EXTCODESIZE 0xF7 0xE4 PUSH31 0x512AD2A77C15CEB2262EEA930F2B0C2A1EF3B872750DDCDB4427864736F6C PUSH4 0x4300081B STOP CALLER "
		},
		"gasEstimates": {
			"creation": {
				"codeDepositCost": "1088200",
				"executionCost": "1132",
				"totalCost": "1089332"
			},
			"external": {
				"allowance(address,address,uint256)": "infinite",
				"approve(address,uint256,uint256)": "infinite",
				"balanceOf(address,uint256)": "infinite",
				"brothers()": "253",
				"inventory(uint256)": "infinite",
				"isOperator(address,address)": "infinite",
				"quote((uint80,address,uint16,uint256,bool))": "infinite",
				"setOperator(address,bool)": "infinite",
				"supportsInterface(bytes4)": "692",
				"swap()": "374",
				"transfer(address,uint256,uint256)": "infinite",
				"transferFrom(address,address,uint256,uint256)": "infinite"
			}
		},
		"methodIdentifiers": {
			"allowance(address,address,uint256)": "598af9e7",
			"approve(address,uint256,uint256)": "426a8493",
			"balanceOf(address,uint256)": "00fdd58e",
			"brothers()": "ff76c2b4",
			"inventory(uint256)": "4272ee18",
			"isOperator(address,address)": "b6363cf2",
			"quote((uint80,address,uint16,uint256,bool))": "5d28a34c",
			"setOperator(address,bool)": "558a7297",
			"supportsInterface(bytes4)": "01ffc9a7",
			"swap()": "8119c065",
			"transfer(address,uint256,uint256)": "095bcdb6",
			"transferFrom(address,address,uint256,uint256)": "fe99049a"
		}
	},
	"abi": [
		{
			"anonymous": false,
			"inputs": [
				{
					"indexed": true,
					"internalType": "address",
					"name": "owner",
					"type": "address"
				},
				{
					"indexed": true,
					"internalType": "address",
					"name": "spender",
					"type": "address"
				},
				{
					"indexed": true,
					"internalType": "uint256",
					"name": "id",
					"type": "uint256"
				},
				{
					"indexed": false,
					"internalType": "uint256",
					"name": "amount",
					"type": "uint256"
				}
			],
			"name": "Approval",
			"type": "event"
		},
		{
			"anonymous": false,
			"inputs": [
				{
					"indexed": true,
					"internalType": "address",
					"name": "owner",
					"type": "address"
				},
				{
					"indexed": true,
					"internalType": "address",
					"name": "operator",
					"type": "address"
				},
				{
					"indexed": false,
					"internalType": "bool",
					"name": "approved",
					"type": "bool"
				}
			],
			"name": "OperatorSet",
			"type": "event"
		},
		{
			"anonymous": false,
			"inputs": [
				{
					"indexed": false,
					"internalType": "address",
					"name": "caller",
					"type": "address"
				},
				{
					"indexed": true,
					"internalType": "address",
					"name": "from",
					"type": "address"
				},
				{
					"indexed": true,
					"internalType": "address",
					"name": "to",
					"type": "address"
				},
				{
					"indexed": true,
					"internalType": "uint256",
					"name": "id",
					"type": "uint256"
				},
				{
					"indexed": false,
					"internalType": "uint256",
					"name": "amount",
					"type": "uint256"
				}
			],
			"name": "Transfer",
			"type": "event"
		},
		{
			"inputs": [
				{
					"internalType": "address",
					"name": "owner",
					"type": "address"
				},
				{
					"internalType": "address",
					"name": "spender",
					"type": "address"
				},
				{
					"internalType": "uint256",
					"name": "id",
					"type": "uint256"
				}
			],
			"name": "allowance",
			"outputs": [
				{
					"internalType": "uint256",
					"name": "amount",
					"type": "uint256"
				}
			],
			"stateMutability": "view",
			"type": "function"
		},
		{
			"inputs": [
				{
					"internalType": "address",
					"name": "spender",
					"type": "address"
				},
				{
					"internalType": "uint256",
					"name": "id",
					"type": "uint256"
				},
				{
					"internalType": "uint256",
					"name": "amount",
					"type": "uint256"
				}
			],
			"name": "approve",
			"outputs": [
				{
					"internalType": "bool",
					"name": "",
					"type": "bool"
				}
			],
			"stateMutability": "nonpayable",
			"type": "function"
		},
		{
			"inputs": [
				{
					"internalType": "address",
					"name": "owner",
					"type": "address"
				},
				{
					"internalType": "uint256",
					"name": "id",
					"type": "uint256"
				}
			],
			"name": "balanceOf",
			"outputs": [
				{
					"internalType": "uint256",
					"name": "balance",
					"type": "uint256"
				}
			],
			"stateMutability": "view",
			"type": "function"
		},
		{
			"inputs": [],
			"name": "brothers",
			"outputs": [],
			"stateMutability": "nonpayable",
			"type": "function"
		},
		{
			"inputs": [
				{
					"internalType": "uint256",
					"name": "poolID",
					"type": "uint256"
				}
			],
			"name": "inventory",
			"outputs": [
				{
					"internalType": "uint128",
					"name": "inventory0",
					"type": "uint128"
				},
				{
					"internalType": "uint128",
					"name": "inventory1",
					"type": "uint128"
				}
			],
			"stateMutability": "view",
			"type": "function"
		},
		{
			"inputs": [
				{
					"internalType": "address",
					"name": "owner",
					"type": "address"
				},
				{
					"internalType": "address",
					"name": "operator",
					"type": "address"
				}
			],
			"name": "isOperator",
			"outputs": [
				{
					"internalType": "bool",
					"name": "isOperator",
					"type": "bool"
				}
			],
			"stateMutability": "view",
			"type": "function"
		},
		{
			"inputs": [
				{
					"components": [
						{
							"internalType": "uint80",
							"name": "currencyID",
							"type": "uint80"
						},
						{
							"internalType": "address",
							"name": "quoter",
							"type": "address"
						},
						{
							"internalType": "uint16",
							"name": "bucketID",
							"type": "uint16"
						},
						{
							"internalType": "uint256",
							"name": "amount",
							"type": "uint256"
						},
						{
							"internalType": "bool",
							"name": "zeroForOne",
							"type": "bool"
						}
					],
					"internalType": "struct SwapParams",
					"name": "params",
					"type": "tuple"
				}
			],
			"name": "quote",
			"outputs": [
				{
					"internalType": "uint256",
					"name": "",
					"type": "uint256"
				}
			],
			"stateMutability": "nonpayable",
			"type": "function"
		},
		{
			"inputs": [
				{
					"internalType": "address",
					"name": "operator",
					"type": "address"
				},
				{
					"internalType": "bool",
					"name": "approved",
					"type": "bool"
				}
			],
			"name": "setOperator",
			"outputs": [
				{
					"internalType": "bool",
					"name": "",
					"type": "bool"
				}
			],
			"stateMutability": "nonpayable",
			"type": "function"
		},
		{
			"inputs": [
				{
					"internalType": "bytes4",
					"name": "interfaceId",
					"type": "bytes4"
				}
			],
			"name": "supportsInterface",
			"outputs": [
				{
					"internalType": "bool",
					"name": "",
					"type": "bool"
				}
			],
			"stateMutability": "view",
			"type": "function"
		},
		{
			"inputs": [],
			"name": "swap",
			"outputs": [
				{
					"internalType": "bool",
					"name": "success",
					"type": "bool"
				}
			],
			"stateMutability": "nonpayable",
			"type": "function"
		},
		{
			"inputs": [
				{
					"internalType": "address",
					"name": "receiver",
					"type": "address"
				},
				{
					"internalType": "uint256",
					"name": "id",
					"type": "uint256"
				},
				{
					"internalType": "uint256",
					"name": "amount",
					"type": "uint256"
				}
			],
			"name": "transfer",
			"outputs": [
				{
					"internalType": "bool",
					"name": "",
					"type": "bool"
				}
			],
			"stateMutability": "nonpayable",
			"type": "function"
		},
		{
			"inputs": [
				{
					"internalType": "address",
					"name": "sender",
					"type": "address"
				},
				{
					"internalType": "address",
					"name": "receiver",
					"type": "address"
				},
				{
					"internalType": "uint256",
					"name": "id",
					"type": "uint256"
				},
				{
					"internalType": "uint256",
					"name": "amount",
					"type": "uint256"
				}
			],
			"name": "transferFrom",
			"outputs": [
				{
					"internalType": "bool",
					"name": "",
					"type": "bool"
				}
			],
			"stateMutability": "nonpayable",
			"type": "function"
		}
	]
}