{
	"data": {
		"bytecode": {
			"linkReferences": {},
			"object": "60a060405234801561000f575f5ffd5b506040516116b13803806116b1833981810160405281019061003191906100c9565b8073ffffffffffffffffffffffffffffffffffffffff1660808173ffffffffffffffffffffffffffffffffffffffff1681525050506100f4565b5f5ffd5b5f73ffffffffffffffffffffffffffffffffffffffff82169050919050565b5f6100988261006f565b9050919050565b6100a88161008e565b81146100b2575f5ffd5b50565b5f815190506100c38161009f565b92915050565b5f602082840312156100de576100dd61006b565b5b5f6100eb848285016100b5565b91505092915050565b60805161159e6101135f395f818161070901526108f3015261159e5ff3fe608060405234801561000f575f5ffd5b50600436106100b1575f3560e01c8063598af9e71161006f578063598af9e7146101d65780635d28a34c146102065780638119c065146102365780639562364114610254578063b6363cf214610272578063fe99049a146102a2576100b1565b8062fdd58e146100b557806301ffc9a7146100e5578063095bcdb614610115578063426a8493146101455780634272ee1814610175578063558a7297146101a6575b5f5ffd5b6100cf60048036038101906100ca9190610d3d565b6102d2565b6040516100dc9190610d8a565b60405180910390f35b6100ff60048036038101906100fa9190610df8565b6102f2565b60405161010c9190610e3d565b60405180910390f35b61012f600480360381019061012a9190610e56565b610353565b60405161013c9190610e3d565b60405180910390f35b61015f600480360381019061015a9190610e56565b61048b565b60405161016c9190610e3d565b60405180910390f35b61018f600480360381019061018a9190610ea6565b610589565b60405161019d929190610efb565b60405180910390f35b6101c060048036038101906101bb9190610f4c565b610599565b6040516101cd9190610e3d565b60405180910390f35b6101f060048036038101906101eb9190610f8a565b610697565b6040516101fd9190610d8a565b60405180910390f35b610220600480360381019061021b9190610ffc565b6106c2565b60405161022d9190610d8a565b60405180910390f35b61023e6108ed565b60405161024b9190610e3d565b60405180910390f35b61025c6108f1565b6040516102699190611036565b60405180910390f35b61028c6004803603810190610287919061104f565b610915565b6040516102999190610e3d565b60405180910390f35b6102bc60048036038101906102b7919061108d565b61093e565b6040516102c99190610e3d565b60405180910390f35b6001602052815f5260405f20602052805f5260405f205f91509150505481565b5f6301ffc9a760e01b827bffffffffffffffffffffffffffffffffffffffffffffffffffffffff1916148061034c5750630f632fb360e01b827bffffffffffffffffffffffffffffffffffffffffffffffffffffffff1916145b9050919050565b5f8160015f3373ffffffffffffffffffffffffffffffffffffffff1673ffffffffffffffffffffffffffffffffffffffff1681526020019081526020015f205f8581526020019081526020015f205f8282546103af919061111e565b925050819055508160015f8673ffffffffffffffffffffffffffffffffffffffff1673ffffffffffffffffffffffffffffffffffffffff1681526020019081526020015f205f8581526020019081526020015f205f8282546104119190611151565b92505081905550828473ffffffffffffffffffffffffffffffffffffffff163373ffffffffffffffffffffffffffffffffffffffff167f1b3d7edb2e9c0b0e7c525b20aaaef0f5940d2ed71663c7d39266ecafac7288593386604051610478929190611184565b60405180910390a4600190509392505050565b5f8160025f3373ffffffffffffffffffffffffffffffffffffffff1673ffffffffffffffffffffffffffffffffffffffff1681526020019081526020015f205f8673ffffffffffffffffffffffffffffffffffffffff1673ffffffffffffffffffffffffffffffffffffffff1681526020019081526020015f205f8581526020019081526020015f2081905550828473ffffffffffffffffffffffffffffffffffffffff163373ffffffffffffffffffffffffffffffffffffffff167fb3fd5071835887567a0671151121894ddccc2842f1d10bedad13e0d17cace9a7856040516105769190610d8a565b60405180910390a4600190509392505050565b5f5f60fa91506104de9050915091565b5f815f5f3373ffffffffffffffffffffffffffffffffffffffff1673ffffffffffffffffffffffffffffffffffffffff1681526020019081526020015f205f8573ffffffffffffffffffffffffffffffffffffffff1673ffffffffffffffffffffffffffffffffffffffff1681526020019081526020015f205f6101000a81548160ff0219169083151502179055508273ffffffffffffffffffffffffffffffffffffffff163373ffffffffffffffffffffffffffffffffffffffff167fceb576d9f15e4e200fdb5096d64d5dfd667e16def20c1eefd14256d8e3faa267846040516106859190610e3d565b60405180910390a36001905092915050565b6002602052825f5260405f20602052815f5260405f20602052805f5260405f205f9250925050505481565b5f5f6107048360200160208101906106da91906111ab565b8460400160208101906106ed919061120d565b855f0160208101906106ff9190611277565b610c85565b90505f7f000000000000000000000000000000000000000000000000000000000000000073ffffffffffffffffffffffffffffffffffffffff16633dc355fe855f0160208101906107559190611277565b6040518263ffffffff1660e01b815260040161077191906112db565b60408051808303815f875af115801561078c573d5f5f3e3d5ffd5b505050506040513d601f19601f820116820180604052508101906107b091906113e1565b90505f5f6107bd84610589565b915091505f6040518060800160405280886060013581526020018860800160208101906107ea919061140c565b15158152602001846fffffffffffffffffffffffffffffffff168152602001836fffffffffffffffffffffffffffffffff1681525090505f6040518060600160405280896040016020810190610840919061120d565b61ffff16815260200186815260200183815250905087602001602081019061086891906111ab565b73ffffffffffffffffffffffffffffffffffffffff1663e176b360826040518263ffffffff1660e01b81526004016108a09190611524565b6020604051808303815f875af11580156108bc573d5f5f3e3d5ffd5b505050506040513d601f19601f820116820180604052508101906108e0919061153d565b9650505050505050919050565b5f90565b7f000000000000000000000000000000000000000000000000000000000000000081565b5f602052815f5260405f20602052805f5260405f205f915091509054906101000a900460ff1681565b5f8473ffffffffffffffffffffffffffffffffffffffff163373ffffffffffffffffffffffffffffffffffffffff16141580156109fc57505f5f8673ffffffffffffffffffffffffffffffffffffffff1673ffffffffffffffffffffffffffffffffffffffff1681526020019081526020015f205f3373ffffffffffffffffffffffffffffffffffffffff1673ffffffffffffffffffffffffffffffffffffffff1681526020019081526020015f205f9054906101000a900460ff16155b15610b4d575f60025f8773ffffffffffffffffffffffffffffffffffffffff1673ffffffffffffffffffffffffffffffffffffffff1681526020019081526020015f205f3373ffffffffffffffffffffffffffffffffffffffff1673ffffffffffffffffffffffffffffffffffffffff1681526020019081526020015f205f8581526020019081526020015f205490507fffffffffffffffffffffffffffffffffffffffffffffffffffffffffffffffff8114610b4b578281610abf919061111e565b60025f8873ffffffffffffffffffffffffffffffffffffffff1673ffffffffffffffffffffffffffffffffffffffff1681526020019081526020015f205f3373ffffffffffffffffffffffffffffffffffffffff1673ffffffffffffffffffffffffffffffffffffffff1681526020019081526020015f205f8681526020019081526020015f20819055505b505b8160015f8773ffffffffffffffffffffffffffffffffffffffff1673ffffffffffffffffffffffffffffffffffffffff1681526020019081526020015f205f8581526020019081526020015f205f828254610ba8919061111e565b925050819055508160015f8673ffffffffffffffffffffffffffffffffffffffff1673ffffffffffffffffffffffffffffffffffffffff1681526020019081526020015f205f8581526020019081526020015f205f828254610c0a9190611151565b92505081905550828473ffffffffffffffffffffffffffffffffffffffff168673ffffffffffffffffffffffffffffffffffffffff167f1b3d7edb2e9c0b0e7c525b20aaaef0f5940d2ed71663c7d39266ecafac7288593386604051610c71929190611184565b60405180910390a460019050949350505050565b5f8390508060601b90508260501b8117905081811790509392505050565b5f604051905090565b5f5ffd5b5f73ffffffffffffffffffffffffffffffffffffffff82169050919050565b5f610cd982610cb0565b9050919050565b610ce981610ccf565b8114610cf3575f5ffd5b50565b5f81359050610d0481610ce0565b92915050565b5f819050919050565b610d1c81610d0a565b8114610d26575f5ffd5b50565b5f81359050610d3781610d13565b92915050565b5f5f60408385031215610d5357610d52610cac565b5b5f610d6085828601610cf6565b9250506020610d7185828601610d29565b9150509250929050565b610d8481610d0a565b82525050565b5f602082019050610d9d5f830184610d7b565b92915050565b5f7fffffffff0000000000000000000000000000000000000000000000000000000082169050919050565b610dd781610da3565b8114610de1575f5ffd5b50565b5f81359050610df281610dce565b92915050565b5f60208284031215610e0d57610e0c610cac565b5b5f610e1a84828501610de4565b91505092915050565b5f8115159050919050565b610e3781610e23565b82525050565b5f602082019050610e505f830184610e2e565b92915050565b5f5f5f60608486031215610e6d57610e6c610cac565b5b5f610e7a86828701610cf6565b9350506020610e8b86828701610d29565b9250506040610e9c86828701610d29565b9150509250925092565b5f60208284031215610ebb57610eba610cac565b5b5f610ec884828501610d29565b91505092915050565b5f6fffffffffffffffffffffffffffffffff82169050919050565b610ef581610ed1565b82525050565b5f604082019050610f0e5f830185610eec565b610f1b6020830184610eec565b9392505050565b610f2b81610e23565b8114610f35575f5ffd5b50565b5f81359050610f4681610f22565b92915050565b5f5f60408385031215610f6257610f61610cac565b5b5f610f6f85828601610cf6565b9250506020610f8085828601610f38565b9150509250929050565b5f5f5f60608486031215610fa157610fa0610cac565b5b5f610fae86828701610cf6565b9350506020610fbf86828701610cf6565b9250506040610fd086828701610d29565b9150509250925092565b5f5ffd5b5f60a08284031215610ff357610ff2610fda565b5b81905092915050565b5f60a0828403121561101157611010610cac565b5b5f61101e84828501610fde565b91505092915050565b61103081610ccf565b82525050565b5f6020820190506110495f830184611027565b92915050565b5f5f6040838503121561106557611064610cac565b5b5f61107285828601610cf6565b925050602061108385828601610cf6565b9150509250929050565b5f5f5f5f608085870312156110a5576110a4610cac565b5b5f6110b287828801610cf6565b94505060206110c387828801610cf6565b93505060406110d487828801610d29565b92505060606110e587828801610d29565b91505092959194509250565b7f4e487b71000000000000000000000000000000000000000000000000000000005f52601160045260245ffd5b5f61112882610d0a565b915061113383610d0a565b925082820390508181111561114b5761114a6110f1565b5b92915050565b5f61115b82610d0a565b915061116683610d0a565b925082820190508082111561117e5761117d6110f1565b5b92915050565b5f6040820190506111975f830185611027565b6111a46020830184610d7b565b9392505050565b5f602082840312156111c0576111bf610cac565b5b5f6111cd84828501610cf6565b91505092915050565b5f61ffff82169050919050565b6111ec816111d6565b81146111f6575f5ffd5b50565b5f81359050611207816111e3565b92915050565b5f6020828403121561122257611221610cac565b5b5f61122f848285016111f9565b91505092915050565b5f69ffffffffffffffffffff82169050919050565b61125681611238565b8114611260575f5ffd5b50565b5f813590506112718161124d565b92915050565b5f6020828403121561128c5761128b610cac565b5b5f61129984828501611263565b91505092915050565b5f819050919050565b5f6112c56112c06112bb84611238565b6112a2565b610d0a565b9050919050565b6112d5816112ab565b82525050565b5f6020820190506112ee5f8301846112cc565b92915050565b5f5ffd5b5f601f19601f8301169050919050565b7f4e487b71000000000000000000000000000000000000000000000000000000005f52604160045260245ffd5b61133e826112f8565b810181811067ffffffffffffffff8211171561135d5761135c611308565b5b80604052505050565b5f61136f610ca3565b905061137b8282611335565b919050565b5f8151905061138e81610d13565b92915050565b5f604082840312156113a9576113a86112f4565b5b6113b36040611366565b90505f6113c284828501611380565b5f8301525060206113d584828501611380565b60208301525092915050565b5f604082840312156113f6576113f5610cac565b5b5f61140384828501611394565b91505092915050565b5f6020828403121561142157611420610cac565b5b5f61142e84828501610f38565b91505092915050565b61144081610d0a565b82525050565b604082015f82015161145a5f850182611437565b50602082015161146d6020850182611437565b50505050565b61147c81610e23565b82525050565b61148b81610ed1565b82525050565b608082015f8201516114a55f850182611437565b5060208201516114b86020850182611473565b5060408201516114cb6040850182611482565b5060608201516114de6060850182611482565b50505050565b60e082015f8201516114f85f850182611437565b50602082015161150b6020850182611446565b50604082015161151e6060850182611491565b50505050565b5f60e0820190506115375f8301846114e4565b92915050565b5f6020828403121561155257611551610cac565b5b5f61155f84828501611380565b9150509291505056fea264697066735822122095bebc5de6b4f774dee462905925325ec2d3e72968619f746514ba12f16b059c64736f6c634300081b0033",
			"opcodes": "PUSH1 0xA0 PUSH1 0x40 MSTORE CALLVALUE DUP1 ISZERO PUSH2 0xF JUMPI PUSH0 PUSH0 REVERT JUMPDEST POP PUSH1 0x40 MLOAD PUSH2 0x16B1 CODESIZE SUB DUP1 PUSH2 0x16B1 DUP4 CODECOPY DUP2 DUP2 ADD PUSH1 0x40 MSTORE DUP2 ADD SWAP1 PUSH2 0x31 SWAP2 SWAP1 PUSH2 0xC9 JUMP JUMPDEST DUP1 PUSH20 0xFFFFFFFFFFFFFFFFFFFFFFFFFFFFFFFFFFFFFFFF AND PUSH1 0x80 DUP2 PUSH20 0xFFFFFFFFFFFFFFFFFFFFFFFFFFFFFFFFFFFFFFFF AND DUP2 MSTORE POP POP POP PUSH2 0xF4 JUMP JUMPDEST PUSH0 PUSH0 REVERT JUMPDEST PUSH0 PUSH20 0xFFFFFFFFFFFFFFFFFFFFFFFFFFFFFFFFFFFFFFFF DUP3 AND SWAP1 POP SWAP2 SWAP1 POP JUMP JUMPDEST PUSH0 PUSH2 0x98 DUP3 PUSH2 0x6F JUMP JUMPDEST SWAP1 POP SWAP2 SWAP1 POP JUMP JUMPDEST PUSH2 0xA8 DUP2 PUSH2 0x8E JUMP JUMPDEST DUP2 EQ PUSH2 0xB2 JUMPI PUSH0 PUSH0 REVERT JUMPDEST POP JUMP JUMPDEST PUSH0 DUP2 MLOAD SWAP1 POP PUSH2 0xC3 DUP2 PUSH2 0x9F JUMP JUMPDEST SWAP3 SWAP2 POP POP JUMP JUMPDEST PUSH0 PUSH1 0x20 DUP3 DUP5 SUB SLT ISZERO PUSH2 0xDE JUMPI PUSH2 0xDD PUSH2 0x6B JUMP JUMPDEST JUMPDEST PUSH0 PUSH2 0xEB DUP5 DUP3 DUP6 ADD PUSH2 0xB5 JUMP JUMPDEST SWAP2 POP POP SWAP3 SWAP2 POP POP JUMP JUMPDEST PUSH1 0x80 MLOAD PUSH2 0x159E PUSH2 0x113 PUSH0 CODECOPY PUSH0 DUP2 DUP2 PUSH2 0x709 ADD MSTORE PUSH2 0x8F3 ADD MSTORE PUSH2 0x159E PUSH0 RETURN INVALID PUSH1 0x80 PUSH1 0x40 MSTORE CALLVALUE DUP1 ISZERO PUSH2 0xF JUMPI PUSH0 PUSH0 REVERT JUMPDEST POP PUSH1 0x4 CALLDATASIZE LT PUSH2 0xB1 JUMPI PUSH0 CALLDATALOAD PUSH1 0xE0 SHR DUP1 PUSH4 0x598AF9E7 GT PUSH2 0x6F JUMPI DUP1 PUSH4 0x598AF9E7 EQ PUSH2 0x1D6 JUMPI DUP1 PUSH4 0x5D28A34C EQ PUSH2 0x206 JUMPI DUP1 PUSH4 0x8119C065 EQ PUSH2 0x236 JUMPI DUP1 PUSH4 0x95623641 EQ PUSH2 0x254 JUMPI DUP1 PUSH4 0xB6363CF2 EQ PUSH2 0x272 JUMPI DUP1 PUSH4 0xFE99049A EQ PUSH2 0x2A2 JUMPI PUSH2 0xB1 JUMP JUMPDEST DUP1 PUSH3 0xFDD58E EQ PUSH2 0xB5 JUMPI DUP1 PUSH4 0x1FFC9A7 EQ PUSH2 0xE5 JUMPI DUP1 PUSH4 0x95BCDB6 EQ PUSH2 0x115 JUMPI DUP1 PUSH4 0x426A8493 EQ PUSH2 0x145 JUMPI DUP1 PUSH4 0x4272EE18 EQ PUSH2 0x175 JUMPI DUP1 PUSH4 0x558A7297 EQ PUSH2 0x1A6 JUMPI JUMPDEST PUSH0 PUSH0 REVERT JUMPDEST PUSH2 0xCF PUSH1 0x4 DUP1 CALLDATASIZE SUB DUP2 ADD SWAP1 PUSH2 0xCA SWAP2 SWAP1 PUSH2 0xD3D JUMP JUMPDEST PUSH2 0x2D2 JUMP JUMPDEST PUSH1 0x40 MLOAD PUSH2 0xDC SWAP2 SWAP1 PUSH2 0xD8A JUMP JUMPDEST PUSH1 0x40 MLOAD DUP1 SWAP2 SUB SWAP1 RETURN JUMPDEST PUSH2 0xFF PUSH1 0x4 DUP1 CALLDATASIZE SUB DUP2 ADD SWAP1 PUSH2 0xFA SWAP2 SWAP1 PUSH2 0xDF8 JUMP JUMPDEST PUSH2 0x2F2 JUMP JUMPDEST PUSH1 0x40 MLOAD PUSH2 0x10C SWAP2 SWAP1 PUSH2 0xE3D JUMP JUMPDEST PUSH1 0x40 MLOAD DUP1 SWAP2 SUB SWAP1 RETURN JUMPDEST PUSH2 0x12F PUSH1 0x4 DUP1 CALLDATASIZE SUB DUP2 ADD SWAP1 PUSH2 0x12A SWAP2 SWAP1 PUSH2 0xE56 JUMP JUMPDEST PUSH2 0x353 JUMP JUMPDEST PUSH1 0x40 MLOAD PUSH2 0x13C SWAP2 SWAP1 PUSH2 0xE3D JUMP JUMPDEST PUSH1 0x40 MLOAD DUP1 SWAP2 SUB SWAP1 RETURN JUMPDEST PUSH2 0x15F PUSH1 0x4 DUP1 CALLDATASIZE SUB DUP2 ADD SWAP1 PUSH2 0x15A SWAP2 SWAP1 PUSH2 0xE56 JUMP JUMPDEST PUSH2 0x48B JUMP JUMPDEST PUSH1 0x40 MLOAD PUSH2 0x16C SWAP2 SWAP1 PUSH2 0xE3D JUMP JUMPDEST PUSH1 0x40 MLOAD DUP1 SWAP2 SUB SWAP1 RETURN JUMPDEST PUSH2 0x18F PUSH1 0x4 DUP1 CALLDATASIZE SUB DUP2 ADD SWAP1 PUSH2 0x18A SWAP2 SWAP1 PUSH2 0xEA6 JUMP JUMPDEST PUSH2 0x589 JUMP JUMPDEST PUSH1 0x40 MLOAD PUSH2 0x19D SWAP3 SWAP2 SWAP1 PUSH2 0xEFB JUMP JUMPDEST PUSH1 0x40 MLOAD DUP1 SWAP2 SUB SWAP1 RETURN JUMPDEST PUSH2 0x1C0 PUSH1 0x4 DUP1 CALLDATASIZE SUB DUP2 ADD SWAP1 PUSH2 0x1BB SWAP2 SWAP1 PUSH2 0xF4C JUMP JUMPDEST PUSH2 0x599 JUMP JUMPDEST PUSH1 0x40 MLOAD PUSH2 0x1CD SWAP2 SWAP1 PUSH2 0xE3D JUMP JUMPDEST PUSH1 0x40 MLOAD DUP1 SWAP2 SUB SWAP1 RETURN JUMPDEST PUSH2 0x1F0 PUSH1 0x4 DUP1 CALLDATASIZE SUB DUP2 ADD SWAP1 PUSH2 0x1EB SWAP2 SWAP1 PUSH2 0xF8A JUMP JUMPDEST PUSH2 0x697 JUMP JUMPDEST PUSH1 0x40 MLOAD PUSH2 0x1FD SWAP2 SWAP1 PUSH2 0xD8A JUMP JUMPDEST PUSH1 0x40 MLOAD DUP1 SWAP2 SUB SWAP1 RETURN JUMPDEST PUSH2 0x220 PUSH1 0x4 DUP1 CALLDATASIZE SUB DUP2 ADD SWAP1 PUSH2 0x21B SWAP2 SWAP1 PUSH2 0xFFC JUMP JUMPDEST PUSH2 0x6C2 JUMP JUMPDEST PUSH1 0x40 MLOAD PUSH2 0x22D SWAP2 SWAP1 PUSH2 0xD8A JUMP JUMPDEST PUSH1 0x40 MLOAD DUP1 SWAP2 SUB SWAP1 RETURN JUMPDEST PUSH2 0x23E PUSH2 0x8ED JUMP JUMPDEST PUSH1 0x40 MLOAD PUSH2 0x24B SWAP2 SWAP1 PUSH2 0xE3D JUMP JUMPDEST PUSH1 0x40 MLOAD DUP1 SWAP2 SUB SWAP1 RETURN JUMPDEST PUSH2 0x25C PUSH2 0x8F1 JUMP JUMPDEST PUSH1 0x40 MLOAD PUSH2 0x269 SWAP2 SWAP1 PUSH2 0x1036 JUMP JUMPDEST PUSH1 0x40 MLOAD DUP1 SWAP2 SUB SWAP1 RETURN JUMPDEST PUSH2 0x28C PUSH1 0x4 DUP1 CALLDATASIZE SUB DUP2 ADD SWAP1 PUSH2 0x287 SWAP2 SWAP1 PUSH2 0x104F JUMP JUMPDEST PUSH2 0x915 JUMP JUMPDEST PUSH1 0x40 MLOAD PUSH2 0x299 SWAP2 SWAP1 PUSH2 0xE3D JUMP JUMPDEST PUSH1 0x40 MLOAD DUP1 SWAP2 SUB SWAP1 RETURN JUMPDEST PUSH2 0x2BC PUSH1 0x4 DUP1 CALLDATASIZE SUB DUP2 ADD SWAP1 PUSH2 0x2B7 SWAP2 SWAP1 PUSH2 0x108D JUMP JUMPDEST PUSH2 0x93E JUMP JUMPDEST PUSH1 0x40 MLOAD PUSH2 0x2C9 SWAP2 SWAP1 PUSH2 0xE3D JUMP JUMPDEST PUSH1 0x40 MLOAD DUP1 SWAP2 SUB SWAP1 RETURN JUMPDEST PUSH1 0x1 PUSH1 0x20 MSTORE DUP2 PUSH0 MSTORE PUSH1 0x40 PUSH0 KECCAK256 PUSH1 0x20 MSTORE DUP1 PUSH0 MSTORE PUSH1 0x40 PUSH0 KECCAK256 PUSH0 SWAP2 POP SWAP2 POP POP SLOAD DUP2 JUMP JUMPDEST PUSH0 PUSH4 0x1FFC9A7 PUSH1 0xE0 SHL DUP3 PUSH28 0xFFFFFFFFFFFFFFFFFFFFFFFFFFFFFFFFFFFFFFFFFFFFFFFFFFFFFFFF NOT AND EQ DUP1 PUSH2 0x34C JUMPI POP PUSH4 0xF632FB3 PUSH1 0xE0 SHL DUP3 PUSH28 0xFFFFFFFFFFFFFFFFFFFFFFFFFFFFFFFFFFFFFFFFFFFFFFFFFFFFFFFF NOT AND EQ JUMPDEST SWAP1 POP SWAP2 SWAP1 POP JUMP JUMPDEST PUSH0 DUP2 PUSH1 0x1 PUSH0 CALLER PUSH20 0xFFFFFFFFFFFFFFFFFFFFFFFFFFFFFFFFFFFFFFFF AND PUSH20 0xFFFFFFFFFFFFFFFFFFFFFFFFFFFFFFFFFFFFFFFF AND DUP2 MSTORE PUSH1 0x20 ADD SWAP1 DUP2 MSTORE PUSH1 0x20 ADD PUSH0 KECCAK256 PUSH0 DUP6 DUP2 MSTORE PUSH1 0x20 ADD SWAP1 DUP2 MSTORE PUSH1 0x20 ADD PUSH0 KECCAK256 PUSH0 DUP3 DUP3 SLOAD PUSH2 0x3AF SWAP2 SWAP1 PUSH2 0x111E JUMP JUMPDEST SWAP3 POP POP DUP2 SWAP1 SSTORE POP DUP2 PUSH1 0x1 PUSH0 DUP7 PUSH20 0xFFFFFFFFFFFFFFFFFFFFFFFFFFFFFFFFFFFFFFFF AND PUSH20 0xFFFFFFFFFFFFFFFFFFFFFFFFFFFFFFFFFFFFFFFF AND DUP2 MSTORE PUSH1 0x20 ADD SWAP1 DUP2 MSTORE PUSH1 0x20 ADD PUSH0 KECCAK256 PUSH0 DUP6 DUP2 MSTORE PUSH1 0x20 ADD SWAP1 DUP2 MSTORE PUSH1 0x20 ADD PUSH0 KECCAK256 PUSH0 DUP3 DUP3 SLOAD PUSH2 0x411 SWAP2 SWAP1 PUSH2 0x1151 JUMP JUMPDEST SWAP3 POP POP DUP2 SWAP1 SSTORE POP DUP3 DUP5 PUSH20 0xFFFFFFFFFFFFFFFFFFFFFFFFFFFFFFFFFFFFFFFF AND CALLER PUSH20 0xFFFFFFFFFFFFFFFFFFFFFFFFFFFFFFFFFFFFFFFF AND PUSH32 0x1B3D7EDB2E9C0B0E7C525B20AAAEF0F5940D2ED71663C7D39266ECAFAC728859 CALLER DUP7 PUSH1 0x40 MLOAD PUSH2 0x478 SWAP3 SWAP2 SWAP1 PUSH2 0x1184 JUMP JUMPDEST PUSH1 0x40 MLOAD DUP1 SWAP2 SUB SWAP1 LOG4 PUSH1 0x1 SWAP1 POP SWAP4 SWAP3 POP POP POP JUMP JUMPDEST PUSH0 DUP2 PUSH1 0x2 PUSH0 CALLER PUSH20 0xFFFFFFFFFFFFFFFFFFFFFFFFFFFFFFFFFFFFFFFF AND PUSH20 0xFFFFFFFFFFFFFFFFFFFFFFFFFFFFFFFFFFFFFFFF AND DUP2 MSTORE PUSH1 0x20 ADD SWAP1 DUP2 MSTORE PUSH1 0x20 ADD PUSH0 KECCAK256 PUSH0 DUP7 PUSH20 0xFFFFFFFFFFFFFFFFFFFFFFFFFFFFFFFFFFFFFFFF AND PUSH20 0xFFFFFFFFFFFFFFFFFFFFFFFFFFFFFFFFFFFFFFFF AND DUP2 MSTORE PUSH1 0x20 ADD SWAP1 DUP2 MSTORE PUSH1 0x20 ADD PUSH0 KECCAK256 PUSH0 DUP6 DUP2 MSTORE PUSH1 0x20 ADD SWAP1 DUP2 MSTORE PUSH1 0x20 ADD PUSH0 KECCAK256 DUP2 SWAP1 SSTORE POP DUP3 DUP5 PUSH20 0xFFFFFFFFFFFFFFFFFFFFFFFFFFFFFFFFFFFFFFFF AND CALLER PUSH20 0xFFFFFFFFFFFFFFFFFFFFFFFFFFFFFFFFFFFFFFFF AND PUSH32 0xB3FD5071835887567A0671151121894DDCCC2842F1D10BEDAD13E0D17CACE9A7 DUP6 PUSH1 0x40 MLOAD PUSH2 0x576 SWAP2 SWAP1 PUSH2 0xD8A JUMP JUMPDEST PUSH1 0x40 MLOAD DUP1 SWAP2 SUB SWAP1 LOG4 PUSH1 0x1 SWAP1 POP SWAP4 SWAP3 POP POP POP JUMP JUMPDEST PUSH0 PUSH0 PUSH1 0xFA SWAP2 POP PUSH2 0x4DE SWAP1 POP SWAP2 POP SWAP2 JUMP JUMPDEST PUSH0 DUP2 PUSH0 PUSH0 CALLER PUSH20 0xFFFFFFFFFFFFFFFFFFFFFFFFFFFFFFFFFFFFFFFF AND PUSH20 0xFFFFFFFFFFFFFFFFFFFFFFFFFFFFFFFFFFFFFFFF AND DUP2 MSTORE PUSH1 0x20 ADD SWAP1 DUP2 MSTORE PUSH1 0x20 ADD PUSH0 KECCAK256 PUSH0 DUP6 PUSH20 0xFFFFFFFFFFFFFFFFFFFFFFFFFFFFFFFFFFFFFFFF AND PUSH20 0xFFFFFFFFFFFFFFFFFFFFFFFFFFFFFFFFFFFFFFFF AND DUP2 MSTORE PUSH1 0x20 ADD SWAP1 DUP2 MSTORE PUSH1 0x20 ADD PUSH0 KECCAK256 PUSH0 PUSH2 0x100 EXP DUP2 SLOAD DUP2 PUSH1 0xFF MUL NOT AND SWAP1 DUP4 ISZERO ISZERO MUL OR SWAP1 SSTORE POP DUP3 PUSH20 0xFFFFFFFFFFFFFFFFFFFFFFFFFFFFFFFFFFFFFFFF AND CALLER PUSH20 0xFFFFFFFFFFFFFFFFFFFFFFFFFFFFFFFFFFFFFFFF AND PUSH32 0xCEB576D9F15E4E200FDB5096D64D5DFD667E16DEF20C1EEFD14256D8E3FAA267 DUP5 PUSH1 0x40 MLOAD PUSH2 0x685 SWAP2 SWAP1 PUSH2 0xE3D JUMP JUMPDEST PUSH1 0x40 MLOAD DUP1 SWAP2 SUB SWAP1 LOG3 PUSH1 0x1 SWAP1 POP SWAP3 SWAP2 POP POP JUMP JUMPDEST PUSH1 0x2 PUSH1 0x20 MSTORE DUP3 PUSH0 MSTORE PUSH1 0x40 PUSH0 KECCAK256 PUSH1 0x20 MSTORE DUP2 PUSH0 MSTORE PUSH1 0x40 PUSH0 KECCAK256 PUSH1 0x20 MSTORE DUP1 PUSH0 MSTORE PUSH1 0x40 PUSH0 KECCAK256 PUSH0 SWAP3 POP SWAP3 POP POP POP SLOAD DUP2 JUMP JUMPDEST PUSH0 PUSH0 PUSH2 0x704 DUP4 PUSH1 0x20 ADD PUSH1 0x20 DUP2 ADD SWAP1 PUSH2 0x6DA SWAP2 SWAP1 PUSH2 0x11AB JUMP JUMPDEST DUP5 PUSH1 0x40 ADD PUSH1 0x20 DUP2 ADD SWAP1 PUSH2 0x6ED SWAP2 SWAP1 PUSH2 0x120D JUMP JUMPDEST DUP6 PUSH0 ADD PUSH1 0x20 DUP2 ADD SWAP1 PUSH2 0x6FF SWAP2 SWAP1 PUSH2 0x1277 JUMP JUMPDEST PUSH2 0xC85 JUMP JUMPDEST SWAP1 POP PUSH0 PUSH32 0x0 PUSH20 0xFFFFFFFFFFFFFFFFFFFFFFFFFFFFFFFFFFFFFFFF AND PUSH4 0x3DC355FE DUP6 PUSH0 ADD PUSH1 0x20 DUP2 ADD SWAP1 PUSH2 0x755 SWAP2 SWAP1 PUSH2 0x1277 JUMP JUMPDEST PUSH1 0x40 MLOAD DUP3 PUSH4 0xFFFFFFFF AND PUSH1 0xE0 SHL DUP2 MSTORE PUSH1 0x4 ADD PUSH2 0x771 SWAP2 SWAP1 PUSH2 0x12DB JUMP JUMPDEST PUSH1 0x40 DUP1 MLOAD DUP1 DUP4 SUB DUP2 PUSH0 DUP8 GAS CALL ISZERO DUP1 ISZERO PUSH2 0x78C JUMPI RETURNDATASIZE PUSH0 PUSH0 RETURNDATACOPY RETURNDATASIZE PUSH0 REVERT JUMPDEST POP POP POP POP PUSH1 0x40 MLOAD RETURNDATASIZE PUSH1 0x1F NOT PUSH1 0x1F DUP3 ADD AND DUP3 ADD DUP1 PUSH1 0x40 MSTORE POP DUP2 ADD SWAP1 PUSH2 0x7B0 SWAP2 SWAP1 PUSH2 0x13E1 JUMP JUMPDEST SWAP1 POP PUSH0 PUSH0 PUSH2 0x7BD DUP5 PUSH2 0x589 JUMP JUMPDEST SWAP2 POP SWAP2 POP PUSH0 PUSH1 0x40 MLOAD DUP1 PUSH1 0x80 ADD PUSH1 0x40 MSTORE DUP1 DUP9 PUSH1 0x60 ADD CALLDATALOAD DUP2 MSTORE PUSH1 0x20 ADD DUP9 PUSH1 0x80 ADD PUSH1 0x20 DUP2 ADD SWAP1 PUSH2 0x7EA SWAP2 SWAP1 PUSH2 0x140C JUMP JUMPDEST ISZERO ISZERO DUP2 MSTORE PUSH1 0x20 ADD DUP5 PUSH16 0xFFFFFFFFFFFFFFFFFFFFFFFFFFFFFFFF AND DUP2 MSTORE PUSH1 0x20 ADD DUP4 PUSH16 0xFFFFFFFFFFFFFFFFFFFFFFFFFFFFFFFF AND DUP2 MSTORE POP SWAP1 POP PUSH0 PUSH1 0x40 MLOAD DUP1 PUSH1 0x60 ADD PUSH1 0x40 MSTORE DUP1 DUP10 PUSH1 0x40 ADD PUSH1 0x20 DUP2 ADD SWAP1 PUSH2 0x840 SWAP2 SWAP1 PUSH2 0x120D JUMP JUMPDEST PUSH2 0xFFFF AND DUP2 MSTORE PUSH1 0x20 ADD DUP7 DUP2 MSTORE PUSH1 0x20 ADD DUP4 DUP2 MSTORE POP SWAP1 POP DUP8 PUSH1 0x20 ADD PUSH1 0x20 DUP2 ADD SWAP1 PUSH2 0x868 SWAP2 SWAP1 PUSH2 0x11AB JUMP JUMPDEST PUSH20 0xFFFFFFFFFFFFFFFFFFFFFFFFFFFFFFFFFFFFFFFF AND PUSH4 0xE176B360 DUP3 PUSH1 0x40 MLOAD DUP3 PUSH4 0xFFFFFFFF AND PUSH1 0xE0 SHL DUP2 MSTORE PUSH1 0x4 ADD PUSH2 0x8A0 SWAP2 SWAP1 PUSH2 0x1524 JUMP JUMPDEST PUSH1 0x20 PUSH1 0x40 MLOAD DUP1 DUP4 SUB DUP2 PUSH0 DUP8 GAS CALL ISZERO DUP1 ISZERO PUSH2 0x8BC JUMPI RETURNDATASIZE PUSH0 PUSH0 RETURNDATACOPY RETURNDATASIZE PUSH0 REVERT JUMPDEST POP POP POP POP PUSH1 0x40 MLOAD RETURNDATASIZE PUSH1 0x1F NOT PUSH1 0x1F DUP3 ADD AND DUP3 ADD DUP1 PUSH1 0x40 MSTORE POP DUP2 ADD SWAP1 PUSH2 0x8E0 SWAP2 SWAP1 PUSH2 0x153D JUMP JUMPDEST SWAP7 POP POP POP POP POP POP POP SWAP2 SWAP1 POP JUMP JUMPDEST PUSH0 SWAP1 JUMP JUMPDEST PUSH32 0x0 DUP2 JUMP JUMPDEST PUSH0 PUSH1 0x20 MSTORE DUP2 PUSH0 MSTORE PUSH1 0x40 PUSH0 KECCAK256 PUSH1 0x20 MSTORE DUP1 PUSH0 MSTORE PUSH1 0x40 PUSH0 KECCAK256 PUSH0 SWAP2 POP SWAP2 POP SWAP1 SLOAD SWAP1 PUSH2 0x100 EXP SWAP1 DIV PUSH1 0xFF AND DUP2 JUMP JUMPDEST PUSH0 DUP5 PUSH20 0xFFFFFFFFFFFFFFFFFFFFFFFFFFFFFFFFFFFFFFFF AND CALLER PUSH20 0xFFFFFFFFFFFFFFFFFFFFFFFFFFFFFFFFFFFFFFFF AND EQ ISZERO DUP1 ISZERO PUSH2 0x9FC JUMPI POP PUSH0 PUSH0 DUP7 PUSH20 0xFFFFFFFFFFFFFFFFFFFFFFFFFFFFFFFFFFFFFFFF AND PUSH20 0xFFFFFFFFFFFFFFFFFFFFFFFFFFFFFFFFFFFFFFFF AND DUP2 MSTORE PUSH1 0x20 ADD SWAP1 DUP2 MSTORE PUSH1 0x20 ADD PUSH0 KECCAK256 PUSH0 CALLER PUSH20 0xFFFFFFFFFFFFFFFFFFFFFFFFFFFFFFFFFFFFFFFF AND PUSH20 0xFFFFFFFFFFFFFFFFFFFFFFFFFFFFFFFFFFFFFFFF AND DUP2 MSTORE PUSH1 0x20 ADD SWAP1 DUP2 MSTORE PUSH1 0x20 ADD PUSH0 KECCAK256 PUSH0 SWAP1 SLOAD SWAP1 PUSH2 0x100 EXP SWAP1 DIV PUSH1 0xFF AND ISZERO JUMPDEST ISZERO PUSH2 0xB4D JUMPI PUSH0 PUSH1 0x2 PUSH0 DUP8 PUSH20 0xFFFFFFFFFFFFFFFFFFFFFFFFFFFFFFFFFFFFFFFF AND PUSH20 0xFFFFFFFFFFFFFFFFFFFFFFFFFFFFFFFFFFFFFFFF AND DUP2 MSTORE PUSH1 0x20 ADD SWAP1 DUP2 MSTORE PUSH1 0x20 ADD PUSH0 KECCAK256 PUSH0 CALLER PUSH20 0xFFFFFFFFFFFFFFFFFFFFFFFFFFFFFFFFFFFFFFFF AND PUSH20 0xFFFFFFFFFFFFFFFFFFFFFFFFFFFFFFFFFFFFFFFF AND DUP2 MSTORE PUSH1 0x20 ADD SWAP1 DUP2 MSTORE PUSH1 0x20 ADD PUSH0 KECCAK256 PUSH0 DUP6 DUP2 MSTORE PUSH1 0x20 ADD SWAP1 DUP2 MSTORE PUSH1 0x20 ADD PUSH0 KECCAK256 SLOAD SWAP1 POP PUSH32 0xFFFFFFFFFFFFFFFFFFFFFFFFFFFFFFFFFFFFFFFFFFFFFFFFFFFFFFFFFFFFFFFF DUP2 EQ PUSH2 0xB4B JUMPI DUP3 DUP2 PUSH2 0xABF SWAP2 SWAP1 PUSH2 0x111E JUMP JUMPDEST PUSH1 0x2 PUSH0 DUP9 PUSH20 0xFFFFFFFFFFFFFFFFFFFFFFFFFFFFFFFFFFFFFFFF AND PUSH20 0xFFFFFFFFFFFFFFFFFFFFFFFFFFFFFFFFFFFFFFFF AND DUP2 MSTORE PUSH1 0x20 ADD SWAP1 DUP2 MSTORE PUSH1 0x20 ADD PUSH0 KECCAK256 PUSH0 CALLER PUSH20 0xFFFFFFFFFFFFFFFFFFFFFFFFFFFFFFFFFFFFFFFF AND PUSH20 0xFFFFFFFFFFFFFFFFFFFFFFFFFFFFFFFFFFFFFFFF AND DUP2 MSTORE PUSH1 0x20 ADD SWAP1 DUP2 MSTORE PUSH1 0x20 ADD PUSH0 KECCAK256 PUSH0 DUP7 DUP2 MSTORE PUSH1 0x20 ADD SWAP1 DUP2 MSTORE PUSH1 0x20 ADD PUSH0 KECCAK256 DUP2 SWAP1 SSTORE POP JUMPDEST POP JUMPDEST DUP2 PUSH1 0x1 PUSH0 DUP8 PUSH20 0xFFFFFFFFFFFFFFFFFFFFFFFFFFFFFFFFFFFFFFFF AND PUSH20 0xFFFFFFFFFFFFFFFFFFFFFFFFFFFFFFFFFFFFFFFF AND DUP2 MSTORE PUSH1 0x20 ADD SWAP1 DUP2 MSTORE PUSH1 0x20 ADD PUSH0 KECCAK256 PUSH0 DUP6 DUP2 MSTORE PUSH1 0x20 ADD SWAP1 DUP2 MSTORE PUSH1 0x20 ADD PUSH0 KECCAK256 PUSH0 DUP3 DUP3 SLOAD PUSH2 0xBA8 SWAP2 SWAP1 PUSH2 0x111E JUMP JUMPDEST SWAP3 POP POP DUP2 SWAP1 SSTORE POP DUP2 PUSH1 0x1 PUSH0 DUP7 PUSH20 0xFFFFFFFFFFFFFFFFFFFFFFFFFFFFFFFFFFFFFFFF AND PUSH20 0xFFFFFFFFFFFFFFFFFFFFFFFFFFFFFFFFFFFFFFFF AND DUP2 MSTORE PUSH1 0x20 ADD SWAP1 DUP2 MSTORE PUSH1 0x20 ADD PUSH0 KECCAK256 PUSH0 DUP6 DUP2 MSTORE PUSH1 0x20 ADD SWAP1 DUP2 MSTORE PUSH1 0x20 ADD PUSH0 KECCAK256 PUSH0 DUP3 DUP3 SLOAD PUSH2 0xC0A SWAP2 SWAP1 PUSH2 0x1151 JUMP JUMPDEST SWAP3 POP POP DUP2 SWAP1 SSTORE POP DUP3 DUP5 PUSH20 0xFFFFFFFFFFFFFFFFFFFFFFFFFFFFFFFFFFFFFFFF AND DUP7 PUSH20 0xFFFFFFFFFFFFFFFFFFFFFFFFFFFFFFFFFFFFFFFF AND PUSH32 0x1B3D7EDB2E9C0B0E7C525B20AAAEF0F5940D2ED71663C7D39266ECAFAC728859 CALLER DUP7 PUSH1 0x40 MLOAD PUSH2 0xC71 SWAP3 SWAP2 SWAP1 PUSH2 0x1184 JUMP JUMPDEST PUSH1 0x40 MLOAD DUP1 SWAP2 SUB SWAP1 LOG4 PUSH1 0x1 SWAP1 POP SWAP5 SWAP4 POP POP POP POP JUMP JUMPDEST PUSH0 DUP4 SWAP1 POP DUP1 PUSH1 0x60 SHL SWAP1 POP DUP3 PUSH1 0x50 SHL DUP2 OR SWAP1 POP DUP2 DUP2 OR SWAP1 POP SWAP4 SWAP3 POP POP POP JUMP JUMPDEST PUSH0 PUSH1 0x40 MLOAD SWAP1 POP SWAP1 JUMP JUMPDEST PUSH0 PUSH0 REVERT JUMPDEST PUSH0 PUSH20 0xFFFFFFFFFFFFFFFFFFFFFFFFFFFFFFFFFFFFFFFF DUP3 AND SWAP1 POP SWAP2 SWAP1 POP JUMP JUMPDEST PUSH0 PUSH2 0xCD9 DUP3 PUSH2 0xCB0 JUMP JUMPDEST SWAP1 POP SWAP2 SWAP1 POP JUMP JUMPDEST PUSH2 0xCE9 DUP2 PUSH2 0xCCF JUMP JUMPDEST DUP2 EQ PUSH2 0xCF3 JUMPI PUSH0 PUSH0 REVERT JUMPDEST POP JUMP JUMPDEST PUSH0 DUP2 CALLDATALOAD SWAP1 POP PUSH2 0xD04 DUP2 PUSH2 0xCE0 JUMP JUMPDEST SWAP3 SWAP2 POP POP JUMP JUMPDEST PUSH0 DUP2 SWAP1 POP SWAP2 SWAP1 POP JUMP JUMPDEST PUSH2 0xD1C DUP2 PUSH2 0xD0A JUMP JUMPDEST DUP2 EQ PUSH2 0xD26 JUMPI PUSH0 PUSH0 REVERT JUMPDEST POP JUMP JUMPDEST PUSH0 DUP2 CALLDATALOAD SWAP1 POP PUSH2 0xD37 DUP2 PUSH2 0xD13 JUMP JUMPDEST SWAP3 SWAP2 POP POP JUMP JUMPDEST PUSH0 PUSH0 PUSH1 0x40 DUP4 DUP6 SUB SLT ISZERO PUSH2 0xD53 JUMPI PUSH2 0xD52 PUSH2 0xCAC JUMP JUMPDEST JUMPDEST PUSH0 PUSH2 0xD60 DUP6 DUP3 DUP7 ADD PUSH2 0xCF6 JUMP JUMPDEST SWAP3 POP POP PUSH1 0x20 PUSH2 0xD71 DUP6 DUP3 DUP7 ADD PUSH2 0xD29 JUMP JUMPDEST SWAP2 POP POP SWAP3 POP SWAP3 SWAP1 POP JUMP JUMPDEST PUSH2 0xD84 DUP2 PUSH2 0xD0A JUMP JUMPDEST DUP3 MSTORE POP POP JUMP JUMPDEST PUSH0 PUSH1 0x20 DUP3 ADD SWAP1 POP PUSH2 0xD9D PUSH0 DUP4 ADD DUP5 PUSH2 0xD7B JUMP JUMPDEST SWAP3 SWAP2 POP POP JUMP JUMPDEST PUSH0 PUSH32 0xFFFFFFFF00000000000000000000000000000000000000000000000000000000 DUP3 AND SWAP1 POP SWAP2 SWAP1 POP JUMP JUMPDEST PUSH2 0xDD7 DUP2 PUSH2 0xDA3 JUMP JUMPDEST DUP2 EQ PUSH2 0xDE1 JUMPI PUSH0 PUSH0 REVERT JUMPDEST POP JUMP JUMPDEST PUSH0 DUP2 CALLDATALOAD SWAP1 POP PUSH2 0xDF2 DUP2 PUSH2 0xDCE JUMP JUMPDEST SWAP3 SWAP2 POP POP JUMP JUMPDEST PUSH0 PUSH1 0x20 DUP3 DUP5 SUB SLT ISZERO PUSH2 0xE0D JUMPI PUSH2 0xE0C PUSH2 0xCAC JUMP JUMPDEST JUMPDEST PUSH0 PUSH2 0xE1A DUP5 DUP3 DUP6 ADD PUSH2 0xDE4 JUMP JUMPDEST SWAP2 POP POP SWAP3 SWAP2 POP POP JUMP JUMPDEST PUSH0 DUP2 ISZERO ISZERO SWAP1 POP SWAP2 SWAP1 POP JUMP JUMPDEST PUSH2 0xE37 DUP2 PUSH2 0xE23 JUMP JUMPDEST DUP3 MSTORE POP POP JUMP JUMPDEST PUSH0 PUSH1 0x20 DUP3 ADD SWAP1 POP PUSH2 0xE50 PUSH0 DUP4 ADD DUP5 PUSH2 0xE2E JUMP JUMPDEST SWAP3 SWAP2 POP POP JUMP JUMPDEST PUSH0 PUSH0 PUSH0 PUSH1 0x60 DUP5 DUP7 SUB SLT ISZERO PUSH2 0xE6D JUMPI PUSH2 0xE6C PUSH2 0xCAC JUMP JUMPDEST JUMPDEST PUSH0 PUSH2 0xE7A DUP7 DUP3 DUP8 ADD PUSH2 0xCF6 JUMP JUMPDEST SWAP4 POP POP PUSH1 0x20 PUSH2 0xE8B DUP7 DUP3 DUP8 ADD PUSH2 0xD29 JUMP JUMPDEST SWAP3 POP POP PUSH1 0x40 PUSH2 0xE9C DUP7 DUP3 DUP8 ADD PUSH2 0xD29 JUMP JUMPDEST SWAP2 POP POP SWAP3 POP SWAP3 POP SWAP3 JUMP JUMPDEST PUSH0 PUSH1 0x20 DUP3 DUP5 SUB SLT ISZERO PUSH2 0xEBB JUMPI PUSH2 0xEBA PUSH2 0xCAC JUMP JUMPDEST JUMPDEST PUSH0 PUSH2 0xEC8 DUP5 DUP3 DUP6 ADD PUSH2 0xD29 JUMP JUMPDEST SWAP2 POP POP SWAP3 SWAP2 POP POP JUMP JUMPDEST PUSH0 PUSH16 0xFFFFFFFFFFFFFFFFFFFFFFFFFFFFFFFF DUP3 AND SWAP1 POP SWAP2 SWAP1 POP JUMP JUMPDEST PUSH2 0xEF5 DUP2 PUSH2 0xED1 JUMP JUMPDEST DUP3 MSTORE POP POP JUMP JUMPDEST PUSH0 PUSH1 0x40 DUP3 ADD SWAP1 POP PUSH2 0xF0E PUSH0 DUP4 ADD DUP6 PUSH2 0xEEC JUMP JUMPDEST PUSH2 0xF1B PUSH1 0x20 DUP4 ADD DUP5 PUSH2 0xEEC JUMP JUMPDEST SWAP4 SWAP3 POP POP POP JUMP JUMPDEST PUSH2 0xF2B DUP2 PUSH2 0xE23 JUMP JUMPDEST DUP2 EQ PUSH2 0xF35 JUMPI PUSH0 PUSH0 REVERT JUMPDEST POP JUMP JUMPDEST PUSH0 DUP2 CALLDATALOAD SWAP1 POP PUSH2 0xF46 DUP2 PUSH2 0xF22 JUMP JUMPDEST SWAP3 SWAP2 POP POP JUMP JUMPDEST PUSH0 PUSH0 PUSH1 0x40 DUP4 DUP6 SUB SLT ISZERO PUSH2 0xF62 JUMPI PUSH2 0xF61 PUSH2 0xCAC JUMP JUMPDEST JUMPDEST PUSH0 PUSH2 0xF6F DUP6 DUP3 DUP7 ADD PUSH2 0xCF6 JUMP JUMPDEST SWAP3 POP POP PUSH1 0x20 PUSH2 0xF80 DUP6 DUP3 DUP7 ADD PUSH2 0xF38 JUMP JUMPDEST SWAP2 POP POP SWAP3 POP SWAP3 SWAP1 POP JUMP JUMPDEST PUSH0 PUSH0 PUSH0 PUSH1 0x60 DUP5 DUP7 SUB SLT ISZERO PUSH2 0xFA1 JUMPI PUSH2 0xFA0 PUSH2 0xCAC JUMP JUMPDEST JUMPDEST PUSH0 PUSH2 0xFAE DUP7 DUP3 DUP8 ADD PUSH2 0xCF6 JUMP JUMPDEST SWAP4 POP POP PUSH1 0x20 PUSH2 0xFBF DUP7 DUP3 DUP8 ADD PUSH2 0xCF6 JUMP JUMPDEST SWAP3 POP POP PUSH1 0x40 PUSH2 0xFD0 DUP7 DUP3 DUP8 ADD PUSH2 0xD29 JUMP JUMPDEST SWAP2 POP POP SWAP3 POP SWAP3 POP SWAP3 JUMP JUMPDEST PUSH0 PUSH0 REVERT JUMPDEST PUSH0 PUSH1 0xA0 DUP3 DUP5 SUB SLT ISZERO PUSH2 0xFF3 JUMPI PUSH2 0xFF2 PUSH2 0xFDA JUMP JUMPDEST JUMPDEST DUP2 SWAP1 POP SWAP3 SWAP2 POP POP JUMP JUMPDEST PUSH0 PUSH1 0xA0 DUP3 DUP5 SUB SLT ISZERO PUSH2 0x1011 JUMPI PUSH2 0x1010 PUSH2 0xCAC JUMP JUMPDEST JUMPDEST PUSH0 PUSH2 0x101E DUP5 DUP3 DUP6 ADD PUSH2 0xFDE JUMP JUMPDEST SWAP2 POP POP SWAP3 SWAP2 POP POP JUMP JUMPDEST PUSH2 0x1030 DUP2 PUSH2 0xCCF JUMP JUMPDEST DUP3 MSTORE POP POP JUMP JUMPDEST PUSH0 PUSH1 0x20 DUP3 ADD SWAP1 POP PUSH2 0x1049 PUSH0 DUP4 ADD DUP5 PUSH2 0x1027 JUMP JUMPDEST SWAP3 SWAP2 POP POP JUMP JUMPDEST PUSH0 PUSH0 PUSH1 0x40 DUP4 DUP6 SUB SLT ISZERO PUSH2 0x1065 JUMPI PUSH2 0x1064 PUSH2 0xCAC JUMP JUMPDEST JUMPDEST PUSH0 PUSH2 0x1072 DUP6 DUP3 DUP7 ADD PUSH2 0xCF6 JUMP JUMPDEST SWAP3 POP POP PUSH1 0x20 PUSH2 0x1083 DUP6 DUP3 DUP7 ADD PUSH2 0xCF6 JUMP JUMPDEST SWAP2 POP POP SWAP3 POP SWAP3 SWAP1 POP JUMP JUMPDEST PUSH0 PUSH0 PUSH0 PUSH0 PUSH1 0x80 DUP6 DUP8 SUB SLT ISZERO PUSH2 0x10A5 JUMPI PUSH2 0x10A4 PUSH2 0xCAC JUMP JUMPDEST JUMPDEST PUSH0 PUSH2 0x10B2 DUP8 DUP3 DUP9 ADD PUSH2 0xCF6 JUMP JUMPDEST SWAP5 POP POP PUSH1 0x20 PUSH2 0x10C3 DUP8 DUP3 DUP9 ADD PUSH2 0xCF6 JUMP JUMPDEST SWAP4 POP POP PUSH1 0x40 PUSH2 0x10D4 DUP8 DUP3 DUP9 ADD PUSH2 0xD29 JUMP JUMPDEST SWAP3 POP POP PUSH1 0x60 PUSH2 0x10E5 DUP8 DUP3 DUP9 ADD PUSH2 0xD29 JUMP JUMPDEST SWAP2 POP POP SWAP3 SWAP6 SWAP2 SWAP5 POP SWAP3 POP JUMP JUMPDEST PUSH32 0x4E487B7100000000000000000000000000000000000000000000000000000000 PUSH0 MSTORE PUSH1 0x11 PUSH1 0x4 MSTORE PUSH1 0x24 PUSH0 REVERT JUMPDEST PUSH0 PUSH2 0x1128 DUP3 PUSH2 0xD0A JUMP JUMPDEST SWAP2 POP PUSH2 0x1133 DUP4 PUSH2 0xD0A JUMP JUMPDEST SWAP3 POP DUP3 DUP3 SUB SWAP1 POP DUP2 DUP2 GT ISZERO PUSH2 0x114B JUMPI PUSH2 0x114A PUSH2 0x10F1 JUMP JUMPDEST JUMPDEST SWAP3 SWAP2 POP POP JUMP JUMPDEST PUSH0 PUSH2 0x115B DUP3 PUSH2 0xD0A JUMP JUMPDEST SWAP2 POP PUSH2 0x1166 DUP4 PUSH2 0xD0A JUMP JUMPDEST SWAP3 POP DUP3 DUP3 ADD SWAP1 POP DUP1 DUP3 GT ISZERO PUSH2 0x117E JUMPI PUSH2 0x117D PUSH2 0x10F1 JUMP JUMPDEST JUMPDEST SWAP3 SWAP2 POP POP JUMP JUMPDEST PUSH0 PUSH1 0x40 DUP3 ADD SWAP1 POP PUSH2 0x1197 PUSH0 DUP4 ADD DUP6 PUSH2 0x1027 JUMP JUMPDEST PUSH2 0x11A4 PUSH1 0x20 DUP4 ADD DUP5 PUSH2 0xD7B JUMP JUMPDEST SWAP4 SWAP3 POP POP POP JUMP JUMPDEST PUSH0 PUSH1 0x20 DUP3 DUP5 SUB SLT ISZERO PUSH2 0x11C0 JUMPI PUSH2 0x11BF PUSH2 0xCAC JUMP JUMPDEST JUMPDEST PUSH0 PUSH2 0x11CD DUP5 DUP3 DUP6 ADD PUSH2 0xCF6 JUMP JUMPDEST SWAP2 POP POP SWAP3 SWAP2 POP POP JUMP JUMPDEST PUSH0 PUSH2 0xFFFF DUP3 AND SWAP1 POP SWAP2 SWAP1 POP JUMP JUMPDEST PUSH2 0x11EC DUP2 PUSH2 0x11D6 JUMP JUMPDEST DUP2 EQ PUSH2 0x11F6 JUMPI PUSH0 PUSH0 REVERT JUMPDEST POP JUMP JUMPDEST PUSH0 DUP2 CALLDATALOAD SWAP1 POP PUSH2 0x1207 DUP2 PUSH2 0x11E3 JUMP JUMPDEST SWAP3 SWAP2 POP POP JUMP JUMPDEST PUSH0 PUSH1 0x20 DUP3 DUP5 SUB SLT ISZERO PUSH2 0x1222 JUMPI PUSH2 0x1221 PUSH2 0xCAC JUMP JUMPDEST JUMPDEST PUSH0 PUSH2 0x122F DUP5 DUP3 DUP6 ADD PUSH2 0x11F9 JUMP JUMPDEST SWAP2 POP POP SWAP3 SWAP2 POP POP JUMP JUMPDEST PUSH0 PUSH10 0xFFFFFFFFFFFFFFFFFFFF DUP3 AND SWAP1 POP SWAP2 SWAP1 POP JUMP JUMPDEST PUSH2 0x1256 DUP2 PUSH2 0x1238 JUMP JUMPDEST DUP2 EQ PUSH2 0x1260 JUMPI PUSH0 PUSH0 REVERT JUMPDEST POP JUMP JUMPDEST PUSH0 DUP2 CALLDATALOAD SWAP1 POP PUSH2 0x1271 DUP2 PUSH2 0x124D JUMP JUMPDEST SWAP3 SWAP2 POP POP JUMP JUMPDEST PUSH0 PUSH1 0x20 DUP3 DUP5 SUB SLT ISZERO PUSH2 0x128C JUMPI PUSH2 0x128B PUSH2 0xCAC JUMP JUMPDEST JUMPDEST PUSH0 PUSH2 0x1299 DUP5 DUP3 DUP6 ADD PUSH2 0x1263 JUMP JUMPDEST SWAP2 POP POP SWAP3 SWAP2 POP POP JUMP JUMPDEST PUSH0 DUP2 SWAP1 POP SWAP2 SWAP1 POP JUMP JUMPDEST PUSH0 PUSH2 0x12C5 PUSH2 0x12C0 PUSH2 0x12BB DUP5 PUSH2 0x1238 JUMP JUMPDEST PUSH2 0x12A2 JUMP JUMPDEST PUSH2 0xD0A JUMP JUMPDEST SWAP1 POP SWAP2 SWAP1 POP JUMP JUMPDEST PUSH2 0x12D5 DUP2 PUSH2 0x12AB JUMP JUMPDEST DUP3 MSTORE POP POP JUMP JUMPDEST PUSH0 PUSH1 0x20 DUP3 ADD SWAP1 POP PUSH2 0x12EE PUSH0 DUP4 ADD DUP5 PUSH2 0x12CC JUMP JUMPDEST SWAP3 SWAP2 POP POP JUMP JUMPDEST PUSH0 PUSH0 REVERT JUMPDEST PUSH0 PUSH1 0x1F NOT PUSH1 0x1F DUP4 ADD AND SWAP1 POP SWAP2 SWAP1 POP JUMP JUMPDEST PUSH32 0x4E487B7100000000000000000000000000000000000000000000000000000000 PUSH0 MSTORE PUSH1 0x41 PUSH1 0x4 MSTORE PUSH1 0x24 PUSH0 REVERT JUMPDEST PUSH2 0x133E DUP3 PUSH2 0x12F8 JUMP JUMPDEST DUP2 ADD DUP2 DUP2 LT PUSH8 0xFFFFFFFFFFFFFFFF DUP3 GT OR ISZERO PUSH2 0x135D JUMPI PUSH2 0x135C PUSH2 0x1308 JUMP JUMPDEST JUMPDEST DUP1 PUSH1 0x40 MSTORE POP POP POP JUMP JUMPDEST PUSH0 PUSH2 0x136F PUSH2 0xCA3 JUMP JUMPDEST SWAP1 POP PUSH2 0x137B DUP3 DUP3 PUSH2 0x1335 JUMP JUMPDEST SWAP2 SWAP1 POP JUMP JUMPDEST PUSH0 DUP2 MLOAD SWAP1 POP PUSH2 0x138E DUP2 PUSH2 0xD13 JUMP JUMPDEST SWAP3 SWAP2 POP POP JUMP JUMPDEST PUSH0 PUSH1 0x40 DUP3 DUP5 SUB SLT ISZERO PUSH2 0x13A9 JUMPI PUSH2 0x13A8 PUSH2 0x12F4 JUMP JUMPDEST JUMPDEST PUSH2 0x13B3 PUSH1 0x40 PUSH2 0x1366 JUMP JUMPDEST SWAP1 POP PUSH0 PUSH2 0x13C2 DUP5 DUP3 DUP6 ADD PUSH2 0x1380 JUMP JUMPDEST PUSH0 DUP4 ADD MSTORE POP PUSH1 0x20 PUSH2 0x13D5 DUP5 DUP3 DUP6 ADD PUSH2 0x1380 JUMP JUMPDEST PUSH1 0x20 DUP4 ADD MSTORE POP SWAP3 SWAP2 POP POP JUMP JUMPDEST PUSH0 PUSH1 0x40 DUP3 DUP5 SUB SLT ISZERO PUSH2 0x13F6 JUMPI PUSH2 0x13F5 PUSH2 0xCAC JUMP JUMPDEST JUMPDEST PUSH0 PUSH2 0x1403 DUP5 DUP3 DUP6 ADD PUSH2 0x1394 JUMP JUMPDEST SWAP2 POP POP SWAP3 SWAP2 POP POP JUMP JUMPDEST PUSH0 PUSH1 0x20 DUP3 DUP5 SUB SLT ISZERO PUSH2 0x1421 JUMPI PUSH2 0x1420 PUSH2 0xCAC JUMP JUMPDEST JUMPDEST PUSH0 PUSH2 0x142E DUP5 DUP3 DUP6 ADD PUSH2 0xF38 JUMP JUMPDEST SWAP2 POP POP SWAP3 SWAP2 POP POP JUMP JUMPDEST PUSH2 0x1440 DUP2 PUSH2 0xD0A JUMP JUMPDEST DUP3 MSTORE POP POP JUMP JUMPDEST PUSH1 0x40 DUP3 ADD PUSH0 DUP3 ADD MLOAD PUSH2 0x145A PUSH0 DUP6 ADD DUP3 PUSH2 0x1437 JUMP JUMPDEST POP PUSH1 0x20 DUP3 ADD MLOAD PUSH2 0x146D PUSH1 0x20 DUP6 ADD DUP3 PUSH2 0x1437 JUMP JUMPDEST POP POP POP POP JUMP JUMPDEST PUSH2 0x147C DUP2 PUSH2 0xE23 JUMP JUMPDEST DUP3 MSTORE POP POP JUMP JUMPDEST PUSH2 0x148B DUP2 PUSH2 0xED1 JUMP JUMPDEST DUP3 MSTORE POP POP JUMP JUMPDEST PUSH1 0x80 DUP3 ADD PUSH0 DUP3 ADD MLOAD PUSH2 0x14A5 PUSH0 DUP6 ADD DUP3 PUSH2 0x1437 JUMP JUMPDEST POP PUSH1 0x20 DUP3 ADD MLOAD PUSH2 0x14B8 PUSH1 0x20 DUP6 ADD DUP3 PUSH2 0x1473 JUMP JUMPDEST POP PUSH1 0x40 DUP3 ADD MLOAD PUSH2 0x14CB PUSH1 0x40 DUP6 ADD DUP3 PUSH2 0x1482 JUMP JUMPDEST POP PUSH1 0x60 DUP3 ADD MLOAD PUSH2 0x14DE PUSH1 0x60 DUP6 ADD DUP3 PUSH2 0x1482 JUMP JUMPDEST POP POP POP POP JUMP JUMPDEST PUSH1 0xE0 DUP3 ADD PUSH0 DUP3 ADD MLOAD PUSH2 0x14F8 PUSH0 DUP6 ADD DUP3 PUSH2 0x1437 JUMP JUMPDEST POP PUSH1 0x20 DUP3 ADD MLOAD PUSH2 0x150B PUSH1 0x20 DUP6 ADD DUP3 PUSH2 0x1446 JUMP JUMPDEST POP PUSH1 0x40 DUP3 ADD MLOAD PUSH2 0x151E PUSH1 0x60 DUP6 ADD DUP3 PUSH2 0x1491 JUMP JUMPDEST POP POP POP POP JUMP JUMPDEST PUSH0 PUSH1 0xE0 DUP3 ADD SWAP1 POP PUSH2 0x1537 PUSH0 DUP4 ADD DUP5 PUSH2 0x14E4 JUMP JUMPDEST SWAP3 SWAP2 POP POP JUMP JUMPDEST PUSH0 PUSH1 0x20 DUP3 DUP5 SUB SLT ISZERO PUSH2 0x1552 JUMPI PUSH2 0x1551 PUSH2 0xCAC JUMP JUMPDEST JUMPDEST PUSH0 PUSH2 0x155F DUP5 DUP3 DUP6 ADD PUSH2 0x1380 JUMP JUMPDEST SWAP2 POP POP SWAP3 SWAP2 POP POP JUMP INVALID LOG2 PUSH5 0x6970667358 0x22 SLT KECCAK256 SWAP6 0xBE 0xBC TSTORE 0xE6 0xB4 0xF7 PUSH21 0xDEE462905925325EC2D3E72968619F746514BA12F1 PUSH12 0x59C64736F6C634300081B00 CALLER "
		},
		"gasEstimates": {
			"creation": {
				"codeDepositCost": "1106800",
				"executionCost": "infinite",
				"totalCost": "infinite"
			},
			"external": {
				"allowance(address,address,uint256)": "infinite",
				"approve(address,uint256,uint256)": "infinite",
				"balanceOf(address,uint256)": "infinite",
				"inventory(uint256)": "infinite",
				"isOperator(address,address)": "infinite",
				"marketAddress()": "infinite",
				"quote((uint80,address,uint16,uint256,bool))": "infinite",
				"setOperator(address,bool)": "infinite",
				"supportsInterface(bytes4)": "692",
				"swap()": "374",
				"transfer(address,uint256,uint256)": "infinite",
				"transferFrom(address,address,uint256,uint256)": "infinite"
			}
		},
		"methodIdentifiers": {
			"allowance(address,address,uint256)": "598af9e7",
			"approve(address,uint256,uint256)": "426a8493",
			"balanceOf(address,uint256)": "00fdd58e",
			"inventory(uint256)": "4272ee18",
			"isOperator(address,address)": "b6363cf2",
			"marketAddress()": "95623641",
			"quote((uint80,address,uint16,uint256,bool))": "5d28a34c",
			"setOperator(address,bool)": "558a7297",
			"supportsInterface(bytes4)": "01ffc9a7",
			"swap()": "8119c065",
			"transfer(address,uint256,uint256)": "095bcdb6",
			"transferFrom(address,address,uint256,uint256)": "fe99049a"
		}
	},
	"abi": [
		{
			"inputs": [
				{
					"internalType": "address",
					"name": "_marketAddress",
					"type": "address"
				}
			],
			"stateMutability": "nonpayable",
			"type": "constructor"
		},
		{
			"anonymous": false,
			"inputs": [
				{
					"indexed": true,
					"internalType": "address",
					"name": "owner",
					"type": "address"
				},
				{
					"indexed": true,
					"internalType": "address",
					"name": "spender",
					"type": "address"
				},
				{
					"indexed": true,
					"internalType": "uint256",
					"name": "id",
					"type": "uint256"
				},
				{
					"indexed": false,
					"internalType": "uint256",
					"name": "amount",
					"type": "uint256"
				}
			],
			"name": "Approval",
			"type": "event"
		},
		{
			"anonymous": false,
			"inputs": [
				{
					"indexed": true,
					"internalType": "address",
					"name": "owner",
					"type": "address"
				},
				{
					"indexed": true,
					"internalType": "address",
					"name": "operator",
					"type": "address"
				},
				{
					"indexed": false,
					"internalType": "bool",
					"name": "approved",
					"type": "bool"
				}
			],
			"name": "OperatorSet",
			"type": "event"
		},
		{
			"anonymous": false,
			"inputs": [
				{
					"indexed": false,
					"internalType": "address",
					"name": "caller",
					"type": "address"
				},
				{
					"indexed": true,
					"internalType": "address",
					"name": "from",
					"type": "address"
				},
				{
					"indexed": true,
					"internalType": "address",
					"name": "to",
					"type": "address"
				},
				{
					"indexed": true,
					"internalType": "uint256",
					"name": "id",
					"type": "uint256"
				},
				{
					"indexed": false,
					"internalType": "uint256",
					"name": "amount",
					"type": "uint256"
				}
			],
			"name": "Transfer",
			"type": "event"
		},
		{
			"inputs": [
				{
					"internalType": "address",
					"name": "owner",
					"type": "address"
				},
				{
					"internalType": "address",
					"name": "spender",
					"type": "address"
				},
				{
					"internalType": "uint256",
					"name": "id",
					"type": "uint256"
				}
			],
			"name": "allowance",
			"outputs": [
				{
					"internalType": "uint256",
					"name": "amount",
					"type": "uint256"
				}
			],
			"stateMutability": "view",
			"type": "function"
		},
		{
			"inputs": [
				{
					"internalType": "address",
					"name": "spender",
					"type": "address"
				},
				{
					"internalType": "uint256",
					"name": "id",
					"type": "uint256"
				},
				{
					"internalType": "uint256",
					"name": "amount",
					"type": "uint256"
				}
			],
			"name": "approve",
			"outputs": [
				{
					"internalType": "bool",
					"name": "",
					"type": "bool"
				}
			],
			"stateMutability": "nonpayable",
			"type": "function"
		},
		{
			"inputs": [
				{
					"internalType": "address",
					"name": "owner",
					"type": "address"
				},
				{
					"internalType": "uint256",
					"name": "id",
					"type": "uint256"
				}
			],
			"name": "balanceOf",
			"outputs": [
				{
					"internalType": "uint256",
					"name": "balance",
					"type": "uint256"
				}
			],
			"stateMutability": "view",
			"type": "function"
		},
		{
			"inputs": [
				{
					"internalType": "uint256",
					"name": "poolID",
					"type": "uint256"
				}
			],
			"name": "inventory",
			"outputs": [
				{
					"internalType": "uint128",
					"name": "inventory0",
					"type": "uint128"
				},
				{
					"internalType": "uint128",
					"name": "inventory1",
					"type": "uint128"
				}
			],
			"stateMutability": "view",
			"type": "function"
		},
		{
			"inputs": [
				{
					"internalType": "address",
					"name": "owner",
					"type": "address"
				},
				{
					"internalType": "address",
					"name": "operator",
					"type": "address"
				}
			],
			"name": "isOperator",
			"outputs": [
				{
					"internalType": "bool",
					"name": "isOperator",
					"type": "bool"
				}
			],
			"stateMutability": "view",
			"type": "function"
		},
		{
			"inputs": [],
			"name": "marketAddress",
			"outputs": [
				{
					"internalType": "address",
					"name": "",
					"type": "address"
				}
			],
			"stateMutability": "view",
			"type": "function"
		},
		{
			"inputs": [
				{
					"components": [
						{
							"internalType": "uint80",
							"name": "currencyID",
							"type": "uint80"
						},
						{
							"internalType": "address",
							"name": "quoter",
							"type": "address"
						},
						{
							"internalType": "uint16",
							"name": "bucketID",
							"type": "uint16"
						},
						{
							"internalType": "uint256",
							"name": "amount",
							"type": "uint256"
						},
						{
							"internalType": "bool",
							"name": "zeroForOne",
							"type": "bool"
						}
					],
					"internalType": "struct SwapParams",
					"name": "params",
					"type": "tuple"
				}
			],
			"name": "quote",
			"outputs": [
				{
					"internalType": "uint256",
					"name": "",
					"type": "uint256"
				}
			],
			"stateMutability": "nonpayable",
			"type": "function"
		},
		{
			"inputs": [
				{
					"internalType": "address",
					"name": "operator",
					"type": "address"
				},
				{
					"internalType": "bool",
					"name": "approved",
					"type": "bool"
				}
			],
			"name": "setOperator",
			"outputs": [
				{
					"internalType": "bool",
					"name": "",
					"type": "bool"
				}
			],
			"stateMutability": "nonpayable",
			"type": "function"
		},
		{
			"inputs": [
				{
					"internalType": "bytes4",
					"name": "interfaceId",
					"type": "bytes4"
				}
			],
			"name": "supportsInterface",
			"outputs": [
				{
					"internalType": "bool",
					"name": "",
					"type": "bool"
				}
			],
			"stateMutability": "view",
			"type": "function"
		},
		{
			"inputs": [],
			"name": "swap",
			"outputs": [
				{
					"internalType": "bool",
					"name": "success",
					"type": "bool"
				}
			],
			"stateMutability": "nonpayable",
			"type": "function"
		},
		{
			"inputs": [
				{
					"internalType": "address",
					"name": "receiver",
					"type": "address"
				},
				{
					"internalType": "uint256",
					"name": "id",
					"type": "uint256"
				},
				{
					"internalType": "uint256",
					"name": "amount",
					"type": "uint256"
				}
			],
			"name": "transfer",
			"outputs": [
				{
					"internalType": "bool",
					"name": "",
					"type": "bool"
				}
			],
			"stateMutability": "nonpayable",
			"type": "function"
		},
		{
			"inputs": [
				{
					"internalType": "address",
					"name": "sender",
					"type": "address"
				},
				{
					"internalType": "address",
					"name": "receiver",
					"type": "address"
				},
				{
					"internalType": "uint256",
					"name": "id",
					"type": "uint256"
				},
				{
					"internalType": "uint256",
					"name": "amount",
					"type": "uint256"
				}
			],
			"name": "transferFrom",
			"outputs": [
				{
					"internalType": "bool",
					"name": "",
					"type": "bool"
				}
			],
			"stateMutability": "nonpayable",
			"type": "function"
		}
	]
}