{
  "_format": "hh-sol-artifact-1",
  "contractName": "LiquidityManager",
  "sourceName": "contracts/Core/LiquidityManager.sol",
  "abi": [
    {
      "inputs": [
        {
          "internalType": "address",
          "name": "_poolManager",
          "type": "address"
        }
      ],
      "stateMutability": "nonpayable",
      "type": "constructor"
    },
    {
      "inputs": [
        {
          "internalType": "uint256",
          "name": "amount0",
          "type": "uint256"
        },
        {
          "internalType": "uint256",
          "name": "amount1",
          "type": "uint256"
        }
      ],
      "name": "LiquidityManager__InsufficientWithdrawal",
      "type": "error"
    },
    {
      "inputs": [],
      "name": "LiquidityManager__InvalidInitialAmounts",
      "type": "error"
    },
    {
      "inputs": [],
      "name": "LiquidityManager__InvalidLiquidityAmount",
      "type": "error"
    },
    {
      "inputs": [],
      "name": "LiquidityManager__InvalidQuote",
      "type": "error"
    },
    {
      "inputs": [],
      "name": "LiquidityManager__NoLiquidity",
      "type": "error"
    },
    {
      "inputs": [],
      "name": "LiquidityManager__OperationPaused",
      "type": "error"
    },
    {
      "inputs": [
        {
          "internalType": "address",
          "name": "asset0",
          "type": "address"
        },
        {
          "internalType": "address",
          "name": "asset1",
          "type": "address"
        },
        {
          "internalType": "address",
          "name": "quoter",
          "type": "address"
        },
        {
          "internalType": "bytes3",
          "name": "markings",
          "type": "bytes3"
        },
        {
          "internalType": "uint256",
          "name": "amount0",
          "type": "uint256"
        },
        {
          "internalType": "uint256",
          "name": "amount1",
          "type": "uint256"
        }
      ],
      "name": "addLiquidity",
      "outputs": [
        {
          "internalType": "uint256",
          "name": "liquidity",
          "type": "uint256"
        }
      ],
      "stateMutability": "payable",
      "type": "function"
    },
    {
      "inputs": [],
      "name": "poolManager",
      "outputs": [
        {
          "internalType": "contract IPoolManager",
          "name": "",
          "type": "address"
        }
      ],
      "stateMutability": "view",
      "type": "function"
    },
    {
      "inputs": [
        {
          "internalType": "address",
          "name": "asset0",
          "type": "address"
        },
        {
          "internalType": "address",
          "name": "asset1",
          "type": "address"
        },
        {
          "internalType": "address",
          "name": "quoter",
          "type": "address"
        },
        {
          "internalType": "bytes3",
          "name": "markings",
          "type": "bytes3"
        },
        {
          "internalType": "uint256",
          "name": "liquidity",
          "type": "uint256"
        }
      ],
      "name": "removeLiquidity",
      "outputs": [
        {
          "internalType": "uint256",
          "name": "amount0",
          "type": "uint256"
        },
        {
          "internalType": "uint256",
          "name": "amount1",
          "type": "uint256"
        }
      ],
      "stateMutability": "nonpayable",
      "type": "function"
    }
  ],
  "bytecode": "0x60a034607557601f610c9138819003918201601f19168301916001600160401b03831184841017607957808492602094604052833981010312607557516001600160a01b03811690819003607557608052604051610c03908161008e823960805181818160bc0152818161039c01526104380152f35b5f80fd5b634e487b7160e01b5f52604160045260245ffdfe60806040526004361015610011575f80fd5b5f3560e01c8063cb1f2f3814610044578063dc4c90d31461003f5763e513315b1461003a575f80fd5b6103cb565b610387565b3461032a5760a036600319011261032a5761005d61032e565b610065610344565b61006d61035a565b90610076610370565b916084359261008b610086610a73565b610abc565b831561031c5761009c918386610ac8565b60408051632d94c69960e11b815260048101839052946001600160a01b037f00000000000000000000000000000000000000000000000000000000000000001692909186602481865afa958615610268575f905f976102e8575b50604051632d79830f60e21b815260048101839052602081602481885afa908115610268575f916102b9575b5080156102aa576101476001600160801b0361014c836101478361015497168c61089b565b6108ae565b99168861089b565b8615806102a2575b61028b5794956040956001600160a01b03868116908516109591935f9390926101fe9290881561028457845b89871461027c5750955b8886146102755780985b861461026d5750985b88516323189d5160e01b815260048101929092526001600160a01b0393841660248301529490921660448301526064820195909552608481019690965260a48601919091523360c48601528492839190829060e4820190565b03925af1908115610268575f905f92610236575b505f61021c610a73565b5d60408051918252602082019290925290819081015b0390f35b905061025a915060403d604011610261575b61025281836107e5565b8101906108cc565b9082610212565b503d610248565b610844565b9050986101a5565b819861019c565b905095610192565b8094610188565b633df6918f60e21b5f52600487905260245260445ffd5b50801561015c565b6316a948a760e11b5f5260045ffd5b6102db915060203d6020116102e1575b6102d381836107e5565b81019061084f565b88610122565b503d6102c9565b905061030d91965060403d604011610315575b61030581836107e5565b810190610820565b9590876100f6565b503d6102fb565b628cc80d60e31b5f5260045ffd5b5f80fd5b600435906001600160a01b038216820361032a57565b602435906001600160a01b038216820361032a57565b604435906001600160a01b038216820361032a57565b606435906001600160e81b03198216820361032a57565b3461032a575f36600319011261032a576040517f00000000000000000000000000000000000000000000000000000000000000006001600160a01b03168152602090f35b60c036600319011261032a576103df61032e565b6103e7610344565b906103f061035a565b6103f8610370565b6084359360a4359061040b610086610a73565b61041783858388610ac8565b60408051632d94c69960e11b81526004810183905291976001600160a01b037f000000000000000000000000000000000000000000000000000000000000000016959092909181602481895afa9182156102685761049c935f925f946107aa575b50604051632d79830f60e21b8152600481018c905294602090869081906024820190565b03818b5afa948515610268575f95610789575b506001600160a01b03868116908b1610998a156107835795995b1561077b57839096985b83878c881595865f146106515750505050505085151580610648575b156105ea576105018861014788610872565b505b156105f95750505061051d610518858461089b565b610b85565b946103e88611156105ea5761059b5f92610538602098610a63565b985b6040516323294ea760e11b815260048101919091526001600160a01b039182166024820152921660448301526064820193909352608481019490945260a48401959095523360c48401523460e4840152919384928391908290610104820190565b03925af1801561026857610232915f916105cb575b505f6105ba610a73565b5d6040519081529081906020820190565b6105e4915060203d6020116102e1576102d381836107e5565b5f6105b0565b6329c9a7ab60e11b5f5260045ffd5b928261063061059b936001600160801b036106216106295f998360209f9a610621908e61089b565b9116906108ae565b948c61089b565b808210861461064157505b9861053a565b905061063b565b508715156104ef565b61065b8685610b3a565b1561066c575b505050505050610503565b6106fa61070a92670de0b6b3a76400006106f36040986106d361068d6108f3565b916106c46106996108f3565b966106b46106a56108e2565b6001600160a01b03909d168d52565b6001600160a01b031660208c0152565b6001600160a01b0316898c0152565b606088019081525f608089015260a088019384525f60c089015251610915565b5251610915565b6001600160e81b03199091169052565b6107278351948593849363a465ba0f60e01b8552600485016109a6565b03815f8c5af1908115610268575f9161075b575b501561074c57825f83878c83610661565b63244e523360e11b5f5260045ffd5b610774915060403d6040116102615761025281836107e5565b505f61073b565b9783906104d3565b996104c9565b6107a391955060203d6020116102e1576102d381836107e5565b935f6104af565b9093506107c791925060403d6040116103155761030581836107e5565b919091925f610478565b634e487b7160e01b5f52604160045260245ffd5b90601f8019910116810190811067ffffffffffffffff82111761080757604052565b6107d1565b51906001600160801b038216820361032a57565b919082604091031261032a57610841602061083a8461080c565b930161080c565b90565b6040513d5f823e3d90fd5b9081602091031261032a575190565b634e487b7160e01b5f52601160045260245ffd5b90670de0b6b3a7640000820291808304670de0b6b3a7640000149015171561089657565b61085e565b8181029291811591840414171561089657565b81156108b8570490565b634e487b7160e01b5f52601260045260245ffd5b919082604091031261032a576020825192015190565b604051906108f160e0836107e5565b565b6040805190919061090483826107e5565b6001815291601f1901366020840137565b8051156109225760200190565b634e487b7160e01b5f52603260045260245ffd5b90602080835192838152019201905f5b8181106109535750505090565b8251845260209384019390920191600101610946565b90602080835192838152019201905f5b8181106109865750505090565b82516001600160e81b031916845260209384019390920191600101610979565b604090610a546108f1949695936060835260018060a01b03815116606084015260018060a01b03602082015116608084015260018060a01b03848201511660a0840152610a4260c0610a2d610a0a606085015160e084890152610140880190610936565b6080850151151560e088015260a0850151878203605f1901610100890152610969565b9201516001600160e01b031916610120850152565b6001600160801b039097166020830152565b01906001600160801b03169052565b6103e71981019190821161089657565b60405160208101907f626529a6be7cb2fb96a7ed93849b4ef74c980495dfe61fd514c95dcd9da51c3582523060601b604082015260348152610ab66054826107e5565b51902090565b805c61032a576001905d565b9092906001600160a01b038085169082161015610b345792915b6040516bffffffffffffffffffffffff19606095861b81166020830190815294861b811660348301529190941b1660488401526001600160e81b031916605c830152603f825290610ab6605f826107e5565b91610ae2565b906001600160801b0316908115610b7f576001600160801b031690670de0b6b3a7640000820291808304670de0b6b3a7640000149015171561089657610841916108ae565b50505f90565b8015610bc857600181018082116108965760011c815b828210610ba757505090565b90915081610bb581836108ae565b9081018091116108965760011c90610b9b565b505f9056fea264697066735822122002128df777be57a3134311379b7527838a22d2736f0b6ea2ddf985eff832181664736f6c634300081e0033",
  "linkReferences": {},
  "deployedLinkReferences": {}
}