{
  "_format": "hh-sol-artifact-1",
  "contractName": "UniswapV3DataBridge",
  "sourceName": "contracts/Peripheral/DataBridges/real/UniswapV3DataBridge.sol",
  "abi": [
    {
      "inputs": [
        {
          "internalType": "address",
          "name": "_factory",
          "type": "address"
        },
        {
          "internalType": "uint24",
          "name": "_fee",
          "type": "uint24"
        },
        {
          "internalType": "uint24",
          "name": "",
          "type": "uint24"
        },
        {
          "internalType": "address",
          "name": "_ext0",
          "type": "address"
        },
        {
          "internalType": "address",
          "name": "_ext1",
          "type": "address"
        },
        {
          "internalType": "address",
          "name": "_alias0",
          "type": "address"
        },
        {
          "internalType": "address",
          "name": "_alias1",
          "type": "address"
        }
      ],
      "stateMutability": "nonpayable",
      "type": "constructor"
    },
    {
      "inputs": [],
      "name": "Math__DivByZero",
      "type": "error"
    },
    {
      "inputs": [],
      "name": "Math__Overflow",
      "type": "error"
    },
    {
      "inputs": [],
      "name": "UniswapV3__PairMismatch",
      "type": "error"
    },
    {
      "inputs": [],
      "name": "UniswapV3__PoolMissing",
      "type": "error"
    },
    {
      "inputs": [],
      "name": "UniswapV3__PoolUninitialized",
      "type": "error"
    },
    {
      "inputs": [],
      "name": "UniswapV3__SpotZero",
      "type": "error"
    },
    {
      "inputs": [],
      "name": "canonicalExt0",
      "outputs": [
        {
          "internalType": "address",
          "name": "",
          "type": "address"
        }
      ],
      "stateMutability": "view",
      "type": "function"
    },
    {
      "inputs": [],
      "name": "canonicalExt1",
      "outputs": [
        {
          "internalType": "address",
          "name": "",
          "type": "address"
        }
      ],
      "stateMutability": "view",
      "type": "function"
    },
    {
      "inputs": [],
      "name": "factory",
      "outputs": [
        {
          "internalType": "address",
          "name": "",
          "type": "address"
        }
      ],
      "stateMutability": "view",
      "type": "function"
    },
    {
      "inputs": [],
      "name": "fee",
      "outputs": [
        {
          "internalType": "uint24",
          "name": "",
          "type": "uint24"
        }
      ],
      "stateMutability": "view",
      "type": "function"
    },
    {
      "inputs": [
        {
          "components": [
            {
              "internalType": "address",
              "name": "asset0",
              "type": "address"
            },
            {
              "internalType": "address",
              "name": "asset1",
              "type": "address"
            },
            {
              "internalType": "address",
              "name": "quoter",
              "type": "address"
            },
            {
              "internalType": "uint256",
              "name": "amount",
              "type": "uint256"
            },
            {
              "internalType": "uint128",
              "name": "asset0Balance",
              "type": "uint128"
            },
            {
              "internalType": "uint128",
              "name": "asset1Balance",
              "type": "uint128"
            },
            {
              "internalType": "uint16",
              "name": "bucketID",
              "type": "uint16"
            },
            {
              "internalType": "bool",
              "name": "zeroForOne",
              "type": "bool"
            }
          ],
          "internalType": "struct QuoteParams",
          "name": "params",
          "type": "tuple"
        }
      ],
      "name": "getData",
      "outputs": [
        {
          "internalType": "bytes",
          "name": "",
          "type": "bytes"
        }
      ],
      "stateMutability": "view",
      "type": "function"
    },
    {
      "inputs": [],
      "name": "internalAlias0",
      "outputs": [
        {
          "internalType": "address",
          "name": "",
          "type": "address"
        }
      ],
      "stateMutability": "view",
      "type": "function"
    },
    {
      "inputs": [],
      "name": "internalAlias1",
      "outputs": [
        {
          "internalType": "address",
          "name": "",
          "type": "address"
        }
      ],
      "stateMutability": "view",
      "type": "function"
    }
  ],
  "bytecode": "0x6101403461010957601f610a9838819003918201601f19168301916001600160401b0383118484101761010d5780849260e0946040528339810103126101095761004881610121565b61005460208301610135565b9161006160408201610135565b5061006e60608201610121565b9061007b60808201610121565b61009360c061008c60a08501610121565b9301610121565b9260805260a05260c05260e05261010052610120526040516109529081610146823960805181818161010501526102d2015260a0518181816101d101526102f3015260c0518160c1015260e0518161018d01526101005181818161014901526103850152610120518181816084015261034f0152f35b5f80fd5b634e487b7160e01b5f52604160045260245ffd5b51906001600160a01b038216820361010957565b519062ffffff821682036101095756fe6080806040526004361015610012575f80fd5b5f3560e01c9081633bd1104b1461020057508063a6b12823146101bc578063b24a485b14610178578063c45a015514610134578063cd852366146100f0578063dd82b275146100ac5763ddca3f4314610069575f80fd5b346100a8575f3660031901126100a857602060405162ffffff7f0000000000000000000000000000000000000000000000000000000000000000168152f35b5f80fd5b346100a8575f3660031901126100a8576040517f00000000000000000000000000000000000000000000000000000000000000006001600160a01b03168152602090f35b346100a8575f3660031901126100a8576040517f00000000000000000000000000000000000000000000000000000000000000006001600160a01b03168152602090f35b346100a8575f3660031901126100a8576040517f00000000000000000000000000000000000000000000000000000000000000006001600160a01b03168152602090f35b346100a8575f3660031901126100a8576040517f00000000000000000000000000000000000000000000000000000000000000006001600160a01b03168152602090f35b346100a8575f3660031901126100a8576040517f00000000000000000000000000000000000000000000000000000000000000006001600160a01b03168152602090f35b346100a8576101003660031901126100a857610100810181811067ffffffffffffffff82111761079b576040526004356001600160a01b03811681036100a85781526024356001600160a01b03811681036100a857602082019081526044356001600160a01b03811681036100a857604083015260643560608301526084356001600160801b03811681036100a857608083015260a4356001600160801b03811681036100a85760a083015260c43561ffff811681036100a85760c083015260e43580151581036100a85760e08301527f00000000000000000000000000000000000000000000000000000000000000007f0000000000000000000000000000000000000000000000000000000000000000806001600160a01b0380821690841611610792575b50604051630b4c774160e11b81526001600160a01b03928316600482015290821660248201527f000000000000000000000000000000000000000000000000000000000000000062ffffff16604482015290602090829060649082907f0000000000000000000000000000000000000000000000000000000000000000165afa908115610628575f91610773575b506001600160a01b0316801561076457604051633850c7bd60e01b815260e081600481855afa908115610628575f916106d1575b506001600160a01b031680156106c257604051630dfe168160e01b815291602083600481845afa908115610628576004935f926106a0575b506020906040519485809263d21220a760e01b82525afa928315610628575f9361066f575b5060405163313ce56760e01b8152926001600160a01b03919091169190602084600481865afa938415610628575f94610633575b5060405163313ce56760e01b81526001600160a01b0391909116939091602083600481885afa928315610628575f936105e6575b506104bb8160ff9261081b565b9116601201806012116105d25760ff6104d66104dd9261080d565b931661080d565b916001600160a01b03831683036105d2576104fb9260601b91610877565b93516001600160a01b0316828114806105bf575b1561056257505050505b604080516020810192808452828201528181526105376060826107af565b8151928391602083525180918160208501528484015e5f828201840152601f01601f19168101030190f35b1491826105ab575b50501561059c57801561058d576ec097ce7bc90715b34b9f100000000004610519565b630ab4c68160e41b5f5260045ffd5b63c5a45bcf60e01b5f5260045ffd5b516001600160a01b0316149050828061056a565b5083516001600160a01b0316821461050f565b634e487b7160e01b5f52601160045260245ffd5b9092506020813d602011610620575b81610602602093836107af565b810103126100a8576104bb61061860ff926107ff565b9391506104ae565b3d91506105f5565b6040513d5f823e3d90fd5b9093506020813d602011610667575b8161064f602093836107af565b810103126100a857610660906107ff565b928661047a565b3d9150610642565b61069291935060203d602011610699575b61068a81836107af565b8101906107d1565b9185610446565b503d610680565b60209192506106bb90823d84116106995761068a81836107af565b9190610421565b630f4b87fd60e41b5f5260045ffd5b905060e0813d60e01161075c575b816106ec60e093836107af565b810103126100a8578051906001600160a01b03821682036100a85760208101518060020b036100a85780610724604060c093016107f0565b50610731606082016107f0565b5061073e608082016107f0565b5061074b60a082016107ff565b500151801515036100a857846103e9565b3d91506106df565b631ab3e9e760e11b5f5260045ffd5b61078c915060203d6020116106995761068a81836107af565b836103b5565b91905084610327565b634e487b7160e01b5f52604160045260245ffd5b90601f8019910116810190811067ffffffffffffffff82111761079b57604052565b908160209103126100a857516001600160a01b03811681036100a85790565b519061ffff821682036100a857565b519060ff821682036100a857565b604d81116105d257600a0a90565b5f91905f19828209918082029384808510940393808503941461086d57600160601b84101561085e5750600160601b910990828211900360a01b910360601c1790565b637f39b44d60e01b8152600490fd5b5050505060601c90565b915f1982840992828102928380861095039480860395146108ff57848311156108f057829109600182190182168092046002816003021880820260020302808202600203028082026002030280820260020302808202600203028091026002030293600183805f03040190848311900302920304170290565b637f39b44d60e01b5f5260045ffd5b50508092501561090d570490565b639f93261560e01b5f5260045ffdfea26469706673582212205975fcb6aff2f9a047e273062bee71cb9b52fc4c9f83fcbe01aa16d6153e967c64736f6c634300081e0033",
  "linkReferences": {},
  "deployedLinkReferences": {}
}