{
  "_format": "hh-sol-artifact-1",
  "contractName": "MockRedstoneAdapter",
  "sourceName": "contracts/Peripheral/DataBridges/real/MockRedstoneAdapter.sol",
  "abi": [
    {
      "inputs": [],
      "name": "MockRedstoneAdapter__Missing",
      "type": "error"
    },
    {
      "inputs": [
        {
          "internalType": "bytes32",
          "name": "",
          "type": "bytes32"
        }
      ],
      "name": "data",
      "outputs": [
        {
          "internalType": "uint256",
          "name": "price",
          "type": "uint256"
        },
        {
          "internalType": "uint256",
          "name": "updatedAt",
          "type": "uint256"
        }
      ],
      "stateMutability": "view",
      "type": "function"
    },
    {
      "inputs": [
        {
          "internalType": "bytes32",
          "name": "id",
          "type": "bytes32"
        }
      ],
      "name": "getValue",
      "outputs": [
        {
          "internalType": "uint256",
          "name": "price",
          "type": "uint256"
        },
        {
          "internalType": "uint256",
          "name": "updatedAt",
          "type": "uint256"
        }
      ],
      "stateMutability": "view",
      "type": "function"
    },
    {
      "inputs": [
        {
          "internalType": "bytes32",
          "name": "id",
          "type": "bytes32"
        },
        {
          "internalType": "uint256",
          "name": "price",
          "type": "uint256"
        },
        {
          "internalType": "uint256",
          "name": "updatedAt",
          "type": "uint256"
        }
      ],
      "name": "set",
      "outputs": [],
      "stateMutability": "nonpayable",
      "type": "function"
    }
  ],
  "bytecode": "0x60808060405234601557610191908161001a8239f35b5f80fdfe6080806040526004361015610012575f80fd5b5f3560e01c9081630147fb0c146100f657508063359c351d146100b45763698439401461003d575f80fd5b346100b05760203660031901126100b0576004355f525f60205260405f20610063610127565b90600181549182845201546020830191818352151590816100a6575b50156100975760409151905182519182526020820152f35b63c715ce2560e01b5f5260045ffd5b905015155f61007f565b5f80fd5b346100b05760603660031901126100b0576100cd610127565b602435815260016020820160443581526004355f525f60205260405f2092518355519101555f80f35b346100b05760203660031901126100b0576040906004355f525f602052815f20600181549101549082526020820152f35b604051906040820182811067ffffffffffffffff82111761014757604052565b634e487b7160e01b5f52604160045260245ffdfea2646970667358221220287898893046aace167f8146a43de4271d20323b653cc39d3cfaa87478d253e264736f6c634300081e0033",
  "linkReferences": {},
  "deployedLinkReferences": {}
}