{
  "_format": "hh-sol-artifact-1",
  "contractName": "AggregatorGasMeasurer",
  "sourceName": "contracts/z_remix_test/AggregatorGasMeasurer.sol",
  "abi": [
    {
      "anonymous": false,
      "inputs": [
        {
          "indexed": false,
          "internalType": "uint256",
          "name": "spot",
          "type": "uint256"
        },
        {
          "indexed": false,
          "internalType": "uint256",
          "name": "twap",
          "type": "uint256"
        }
      ],
      "name": "Measured",
      "type": "event"
    },
    {
      "inputs": [],
      "name": "lastSpot",
      "outputs": [
        {
          "internalType": "uint256",
          "name": "",
          "type": "uint256"
        }
      ],
      "stateMutability": "view",
      "type": "function"
    },
    {
      "inputs": [],
      "name": "lastTwap",
      "outputs": [
        {
          "internalType": "uint256",
          "name": "",
          "type": "uint256"
        }
      ],
      "stateMutability": "view",
      "type": "function"
    },
    {
      "inputs": [
        {
          "internalType": "address",
          "name": "aggregator",
          "type": "address"
        },
        {
          "components": [
            {
              "internalType": "address",
              "name": "asset0",
              "type": "address"
            },
            {
              "internalType": "address",
              "name": "asset1",
              "type": "address"
            },
            {
              "internalType": "address",
              "name": "quoter",
              "type": "address"
            },
            {
              "internalType": "uint256",
              "name": "amount",
              "type": "uint256"
            },
            {
              "internalType": "uint128",
              "name": "asset0Balance",
              "type": "uint128"
            },
            {
              "internalType": "uint128",
              "name": "asset1Balance",
              "type": "uint128"
            },
            {
              "internalType": "uint16",
              "name": "bucketID",
              "type": "uint16"
            },
            {
              "internalType": "bool",
              "name": "zeroForOne",
              "type": "bool"
            }
          ],
          "internalType": "struct QuoteParams",
          "name": "params",
          "type": "tuple"
        }
      ],
      "name": "measure",
      "outputs": [],
      "stateMutability": "nonpayable",
      "type": "function"
    }
  ],
  "bytecode": "0x608080604052346015576102d2908161001a8239f35b5f80fdfe6080806040526004361015610012575f80fd5b5f3560e01c9081634e02877c14610260575080637d80abe11461005d5763fd85d6001461003d575f80fd5b34610059575f3660031901126100595760205f54604051908152f35b5f80fd5b3461005957610120366003190112610059576004356001600160a01b038116908190036100595761010036602319011261005957604051633bd1104b60e01b8152906024356001600160a01b038116908190036100595760048301526044356001600160a01b038116908190036100595760248301526064356001600160a01b03811690819003610059576044830152608435606483015260a4356001600160801b03811680910361005957608483015260c4356001600160801b0381168091036100595760a483015260e43561ffff81168091036100595760c4830152610104359081151580920361005957610104835f8193819560e48401525af1908115610255575f916101b7575b50604081805181010312610059576040818160207fdffb378427fd5e3f5b0aab51db97d3bcc29dff31b5c4bd5b4c9f9205e9e49419940151910151815f558060015582519182526020820152a1005b90503d805f833e6101c8818361027a565b8101906020818303126100595780519067ffffffffffffffff8211610059570181601f820112156100595780519067ffffffffffffffff8211610241576040519261021d601f8401601f19166020018561027a565b8284526020838301011161005957815f9260208093018386015e8301015281610168565b634e487b7160e01b5f52604160045260245ffd5b6040513d5f823e3d90fd5b34610059575f366003190112610059576020906001548152f35b90601f8019910116810190811067ffffffffffffffff8211176102415760405256fea2646970667358221220f1c2360ee7eecd35d3958c64eafe504da193126b14412ec3e8c4f1777062143e64736f6c634300081e0033",
  "linkReferences": {},
  "deployedLinkReferences": {}
}