{
  "_format": "hh-sol-artifact-1",
  "contractName": "StoixQuoter",
  "sourceName": "contracts/Peripheral/quoters/real/RealDataBridge/StoixQuoter.sol",
  "abi": [
    {
      "anonymous": false,
      "inputs": [
        {
          "indexed": false,
          "internalType": "uint256",
          "name": "m",
          "type": "uint256"
        },
        {
          "indexed": false,
          "internalType": "uint256",
          "name": "execPrice",
          "type": "uint256"
        },
        {
          "indexed": false,
          "internalType": "int256",
          "name": "skewBps",
          "type": "int256"
        },
        {
          "indexed": false,
          "internalType": "uint256",
          "name": "sizeBps",
          "type": "uint256"
        },
        {
          "indexed": false,
          "internalType": "uint8",
          "name": "sizeTier",
          "type": "uint8"
        },
        {
          "indexed": false,
          "internalType": "uint256",
          "name": "dstBps",
          "type": "uint256"
        },
        {
          "indexed": false,
          "internalType": "uint256",
          "name": "dclBps",
          "type": "uint256"
        },
        {
          "indexed": false,
          "internalType": "uint8",
          "name": "vShortPair",
          "type": "uint8"
        },
        {
          "indexed": false,
          "internalType": "uint8",
          "name": "vLongPair",
          "type": "uint8"
        },
        {
          "indexed": false,
          "internalType": "uint8",
          "name": "kPair",
          "type": "uint8"
        },
        {
          "indexed": false,
          "internalType": "uint256",
          "name": "fS_bps",
          "type": "uint256"
        },
        {
          "indexed": false,
          "internalType": "uint256",
          "name": "fL_bps",
          "type": "uint256"
        },
        {
          "indexed": false,
          "internalType": "uint256",
          "name": "kMod_bps",
          "type": "uint256"
        },
        {
          "indexed": false,
          "internalType": "uint256",
          "name": "gammaBps",
          "type": "uint256"
        },
        {
          "indexed": false,
          "internalType": "int256",
          "name": "midAdjBps",
          "type": "int256"
        },
        {
          "indexed": false,
          "internalType": "uint256",
          "name": "baseSpread",
          "type": "uint256"
        },
        {
          "indexed": false,
          "internalType": "uint256",
          "name": "sizeCurveBps",
          "type": "uint256"
        },
        {
          "indexed": false,
          "internalType": "uint256",
          "name": "Ubps",
          "type": "uint256"
        },
        {
          "indexed": false,
          "internalType": "uint256",
          "name": "spreadBps",
          "type": "uint256"
        }
      ],
      "name": "StoixComponents",
      "type": "event"
    },
    {
      "inputs": [
        {
          "internalType": "bytes",
          "name": "data",
          "type": "bytes"
        }
      ],
      "name": "_decodePrice",
      "outputs": [
        {
          "internalType": "uint256",
          "name": "price",
          "type": "uint256"
        }
      ],
      "stateMutability": "pure",
      "type": "function"
    },
    {
      "inputs": [
        {
          "internalType": "bytes",
          "name": "payload",
          "type": "bytes"
        }
      ],
      "name": "_decodeTwoBytes",
      "outputs": [
        {
          "internalType": "bytes",
          "name": "a",
          "type": "bytes"
        },
        {
          "internalType": "bytes",
          "name": "b",
          "type": "bytes"
        }
      ],
      "stateMutability": "pure",
      "type": "function"
    },
    {
      "inputs": [
        {
          "internalType": "address",
          "name": "",
          "type": "address"
        }
      ],
      "name": "assetParams",
      "outputs": [
        {
          "internalType": "uint256",
          "name": "",
          "type": "uint256"
        }
      ],
      "stateMutability": "view",
      "type": "function"
    },
    {
      "inputs": [
        {
          "components": [
            {
              "internalType": "address",
              "name": "asset0",
              "type": "address"
            },
            {
              "internalType": "address",
              "name": "asset1",
              "type": "address"
            },
            {
              "internalType": "address",
              "name": "quoter",
              "type": "address"
            },
            {
              "internalType": "uint256",
              "name": "amount",
              "type": "uint256"
            },
            {
              "internalType": "uint128",
              "name": "asset0Balance",
              "type": "uint128"
            },
            {
              "internalType": "uint128",
              "name": "asset1Balance",
              "type": "uint128"
            },
            {
              "internalType": "uint16",
              "name": "bucketID",
              "type": "uint16"
            },
            {
              "internalType": "bool",
              "name": "zeroForOne",
              "type": "bool"
            }
          ],
          "internalType": "struct QuoteParams",
          "name": "params",
          "type": "tuple"
        },
        {
          "internalType": "bytes",
          "name": "data",
          "type": "bytes"
        }
      ],
      "name": "quote",
      "outputs": [
        {
          "internalType": "uint256",
          "name": "",
          "type": "uint256"
        }
      ],
      "stateMutability": "nonpayable",
      "type": "function"
    },
    {
      "inputs": [
        {
          "components": [
            {
              "internalType": "address",
              "name": "asset0",
              "type": "address"
            },
            {
              "internalType": "address",
              "name": "asset1",
              "type": "address"
            },
            {
              "internalType": "address",
              "name": "quoter",
              "type": "address"
            },
            {
              "internalType": "uint256[]",
              "name": "amount",
              "type": "uint256[]"
            },
            {
              "internalType": "uint128[]",
              "name": "asset0Balances",
              "type": "uint128[]"
            },
            {
              "internalType": "uint128[]",
              "name": "asset1Balances",
              "type": "uint128[]"
            },
            {
              "internalType": "uint16[]",
              "name": "bucketID",
              "type": "uint16[]"
            },
            {
              "internalType": "bool",
              "name": "zeroForOne",
              "type": "bool"
            }
          ],
          "internalType": "struct QuoteParamsBatch",
          "name": "params",
          "type": "tuple"
        },
        {
          "internalType": "bytes",
          "name": "data",
          "type": "bytes"
        }
      ],
      "name": "quoteBatch",
      "outputs": [
        {
          "internalType": "uint256[]",
          "name": "quotes",
          "type": "uint256[]"
        }
      ],
      "stateMutability": "nonpayable",
      "type": "function"
    },
    {
      "inputs": [
        {
          "internalType": "address",
          "name": "asset",
          "type": "address"
        },
        {
          "internalType": "uint256",
          "name": "packed",
          "type": "uint256"
        }
      ],
      "name": "setAssetParams",
      "outputs": [],
      "stateMutability": "nonpayable",
      "type": "function"
    }
  ],
  "bytecode": "0x6080604052346101a15760405161020081016001600160401b0381118282101761014b576040526019815260326020820152604b604082015260646060820152607d6080820152609660a082015260af60c082015260c860e082015260e161010082015260fa61012082015261011361014082015261012c61016082015261014561018082015261015e6101a08201526101776101c08201526101906101e08201525f5b6001811061015f5760405161010081016001600160401b0381118282101761014b576040525f81526002602082015260056040820152600a6060820152600f6080820152601960a0820152602860c0820152603c60e08201525f905f5b6008811061011b57826002556040516115b090816101a68239f35b9091602061014260019260ff8651169085851b61ffff809160031b9316831b921b19161790565b93019101610100565b634e487b7160e01b5f52604160045260245ffd5b5f5f5b60108110610178575060019091019081556100a3565b835160019492859160209161ffff600486901b81811b199092169216901b179301945001610162565b5f80fdfe610220806040526004361015610013575f80fd5b5f3560e01c908163187a341114611193575080635b11b54a1461115f5780635e3344d01461057b578063c81d53461461052f578063db90d100146101175763f9158ee51461005f575f80fd5b34610113576020366003190112610113576004356001600160401b0381116101135761008f90369060040161125c565b8051810190604081602084019303126101135760208101516001600160401b038111610113578260206100c49284010161134b565b9060408101516001600160401b038111610113576101019360206100ed9261010f94010161134b565b604051938493604085526040850190611327565b908382036020850152611327565b0390f35b5f80fd5b34610113576040366003190112610113576004356001600160401b0381116101135761010060031982360301126101135760405190610155826111f0565b610161816004016111dc565b825261016f602482016111dc565b9160208101928352610183604483016111dc565b926040820193845260648301356001600160401b0381116101135783019236602385011215610113576004840135936101bb856112a2565b946101c96040519687611220565b808652602060048188019260051b840101019136831161011357602401905b82821061051f575050506060830193845260848101356001600160401b0381116101135761021c90600436918401016112b9565b906080840191825260a48101356001600160401b0381116101135761024790600436918401016112b9565b9060a0850191825260c48101356001600160401b038111610113578101903660238301121561011357600482013561027e816112a2565b9261028c6040519485611220565b818452602060048186019360051b830101019036821161011357602401915b8183106105045750505060c0860191825260e401359182151583036101135760e086019283526024356001600160401b038111610113576102f090369060040161125c565b9387515196610317610301896112a2565b9861030f6040519a8b611220565b808a526112a2565b602089019190601f19013683375f5b8a519081518110156104c05782518a518e516001600160a01b0392831694918316921690610355908490611444565b518388519061036391611444565b516001600160801b0316848a519061037a91611444565b516001600160801b031691858c519061039291611444565b5161ffff16938d51151595604051986103aa8a6111f0565b8952602089019081526040808a0192835260608a0193845260808a0194855260a08a0195865260c08a0196875260e08a01978852516305e3344d60e41b815298516001600160a01b0390811660048b01529051811660248a01529051166044880152516064870152516001600160801b03908116608487015290511660a48501525161ffff1660c484015251151560e48301526101206101048301528161045561012482018b611327565b03823091815a6020945f91f180156104b5575f90610483575b6001925061047c828d611444565b5201610326565b506020823d82116104ad575b8161049c60209383611220565b81010312610113576001915161046e565b3d915061048f565b6040513d5f823e3d90fd5b838b604051918291602083019060208452518091526040830191905f5b8181106104eb575050500390f35b82518452859450602093840193909201916001016104dd565b823561ffff81168103610113578152602092830192016102ab565b81358152602091820191016101e8565b34610113576020366003190112610113576004356001600160401b03811161011357610572610564602092369060040161125c565b82808251830101910161142e565b50604051908152f35b3461011357366003190161012081126101135761010013610113576040516101e0526105a96101e0516111f0565b6105b16111c6565b6101e051526024356001600160a01b0381168103610113576101e051602001526044356001600160a01b03811681036101135760406101e051015260643560606101e05101526084356001600160801b03811681036101135760806101e051015260a4356001600160801b03811681036101135760a06101e051015260c43561ffff811681036101135760c06101e051015260e43580151581036101135760e06101e0510152610104356001600160401b0381116101135761067790369060040161125c565b8051810160a082602083019203126101135760208201516001600160401b038111610113578160206106ab9285010161134b565b9060408301516001600160401b038111610113578160206106ce9286010161134b565b9260608101516001600160401b038111610113578260206106f19284010161134b565b9160808201516001600160401b038111610113578160206107149285010161134b565b5060a0820151906001600160401b03821161011357602061073a9261074094010161134b565b92611458565b918161074d849396611458565b61075982979294611458565b93906107658194611458565b999092839861113f575b509183918995938b95611129575b50849087611117575b50611101575b50869291901561107e575050505050935b5f9280611075575b61102b575b505f9280611022575b610fd8575b5081811115610fd157805b60018060a01b036101e05151165f525f6020526107f360405f205460ff81169160ff808360081c169260101c1690565b60018060a0969493961b0360206101e0510151165f525f60205261082a60405f205460ff81169160ff808360081c169260101c1690565b969093909160ff80821690831610610fc95750925b60ff81811690831610610fc15750945b5f6101205260ff81811690831611610fb75750610120525b60be60ff82160260ff8216810460be1460ff8316151715610ddf5760ff8104600a01600a11610ddf5761017c60ff8616029260ff8616840461017c1460ff8716151715610ddf5760ff8404601401601411610ddf576101205160ff16612710818102979180159089049091141715610ddf5760ff87046113880161138811610ddf5760c06101e05101516010600f82161015610e9657600154600491821b60f0161c61ffff16610160526101e0515160405163313ce56760e01b81529160209183919082906001600160a01b03165afa80156104b5575f61020052610f95575b506101e05160209081015160405163313ce56760e01b81529190829060049082906001600160a01b03165afa80156104b5575f6101c052610f63575b506109a1610200516001600160801b0360806101e0510151166114f2565b670de0b6b3a76400006109d18b6109cb6101c0516001600160801b0360a06101e0510151166114f2565b936113d7565b046109dc8282611391565b600181018111610ddf575f82128383810312811690848481031390151617610ddf57610a09828403611535565b806127108102046127101481151715610ddf57610a2e906127106001840191026113ac565b6101a0525f82840312610f4e575b6109c46101a051135f14610f33576109c46101a0525b610a7760606101e051015160e06101e051015115155f14610f295761020051906114f2565b6101e05160e001518d9015610f2357610a9990670de0b6b3a7640000926113d7565b045b806127108102046127101481151715610ddf576127106001610abf930191026113ac565b61018081905261222e11610eaa576007935b600860ff86161015610e965761ffff600f8660041c166002015460f0610ff08860041b16161c1660e052606481029080820460641490151715610ddf57610b2b90601460ff8a040115610e8e5760ff8904601401906113ac565b6101405261012c6101405111610e82575b610b7e610b6a6064610b5760ff8904600a01610160516113d7565b04610b646101a051611535565b906113d7565b61138860ff8c0401610e74576001906113ac565b906107d08211610e6a575b5f61010081905291920312610e5857610100525b610bca6064610bb560ff8804601401610160516113d7565b0461138860ff8a0401610e4a576001906113ac565b98610bb88a11610e40575b610bed61014051610be860e0518d611391565b611391565b60c0525f610c006101005160c051611413565b12610e3a57610c146101005160c051611413565b6101e05160e001515f60a05215610e0a5761271001948561271011610ddf5760ff998a988980989685612710610c4c849a85996113d7565b0460a0525b6040516080526080515260a051602060805101526101a0516040608051015261018051606060805101521660808051015260a0608051015260c060805101521660e06080510152166101006080510152816101205116610120608051015204600a01610140608051015204601401610160608051015204611388016101806080510152610160516101a06080510152610100516101c060805101526101e0608051015260e051610200608051015261014051610220608051015260c05161024060805101527f71570affdbc8811bb28abc0224aac0d469d02f6eac69aca5164a04104aafa0dc610260608051a16101e05160e0015115801590610e005761020051905b15610df357610d6f6101c051915b60606101e05101516114f2565b6101e05160e0015115610da657602091670de0b6b3a7640000610d98610d9e9360a051906113d7565b04611548565b604051908152f35b670de0b6b3a7640000810290808204670de0b6b3a76400001490151715610ddf57602091610dda610d9e9260a051906113ac565b611548565b634e487b7160e01b5f52601160045260245ffd5b610d6f6102005191610d62565b6101c05190610d54565b61271003946127108611610ddf5760ff998a988980989685612710610e31849a85996113d7565b0460a052610c51565b5f610c14565b610bb89950610bd5565b60ff890461138801906113ac565b610e6190611403565b61010052610b9d565b6107d09150610b89565b60ff8b0461138801906113ac565b61012c61014052610b3c565b6001906113ac565b634e487b7160e01b5f52603260045260245ffd5b61018051611d4c11610ebf5760065b93610ad1565b6101805161138811610ed2576005610eb9565b610180516109c411610ee5576004610eb9565b610180516104e211610ef8576003610eb9565b6101805161027111610f0b576002610eb9565b6101805160fa11610f1d576001610eb9565b5f610eb9565b50610a9b565b6101c051906114f2565b6109c3196101a0511215610a52576109c3196101a052610a52565b610f5a6101a051611403565b6101a052610a3c565b610f849060203d602011610f8e575b610f7c8183611220565b8101906113ea565b6101c05289610983565b503d610f72565b610fad9060203d602011610f8e57610f7c8183611220565b6102005289610947565b6101205250610867565b90509461084f565b90509261083f565b81906107c3565b909150828082111561101357610fed916113ca565b6127108102908082046127101490151715610ddf578261100c916113ac565b90836107b8565b9061101d916113ca565b610fed565b508315156107b3565b909150838082111561106657611040916113ca565b6127108102908082046127101490151715610ddf578361105f916113ac565b90846107aa565b90611070916113ca565b611040565b508415156107a5565b9091929394505f945f946110f5575b6110d9575b506110bf575b50806110b057505068f3f20b8dfa69d000009361079d565b6110b9916113ac565b9361079d565b6110cd906110d39293611391565b9161139e565b82611098565b6110e8906110ee929495611391565b9361139e565b9188611092565b8995506001945061108d565b61110e9193929750611490565b9590918a61078c565b611122919450611490565b928c610786565b879850906111378692611490565b98509061077d565b849b5091899593916111528c9694611490565b9c5091939550919361076f565b34610113576040366003190112610113576001600160a01b036111806111c6565b165f525f60205260243560405f20555f80f35b34610113576020366003190112610113576020906001600160a01b036111b76111c6565b165f525f825260405f20548152f35b600435906001600160a01b038216820361011357565b35906001600160a01b038216820361011357565b61010081019081106001600160401b0382111761120c57604052565b634e487b7160e01b5f52604160045260245ffd5b90601f801991011681019081106001600160401b0382111761120c57604052565b6001600160401b03811161120c57601f01601f191660200190565b81601f820112156101135780359061127382611241565b926112816040519485611220565b8284526020838301011161011357815f926020809301838601378301015290565b6001600160401b03811161120c5760051b60200190565b9080601f83011215610113578135906112d1826112a2565b926112df6040519485611220565b82845260208085019360051b82010191821161011357602001915b8183106113075750505090565b82356001600160801b0381168103610113578152602092830192016112fa565b805180835260209291819084018484015e5f828201840152601f01601f1916010190565b81601f820112156101135780519061136282611241565b926113706040519485611220565b8284526020838301011161011357815f9260208093018386015e8301015290565b91908201809211610ddf57565b5f198114610ddf5760010190565b81156113b6570490565b634e487b7160e01b5f52601260045260245ffd5b91908203918211610ddf57565b81810292918115918404141715610ddf57565b90816020910312610113575160ff811681036101135790565b600160ff1b8114610ddf575f0390565b9190915f8382019384129112908015821691151617610ddf57565b9190826040910312610113576020825192015190565b8051821015610e965760209160051b010190565b805190604082101561146d575b50505f905f90565b60208061147e93830101910161142e565b508061148a5780611465565b90600190565b670de0b6b3a76400008110156114ba5780156113b6576ec097ce7bc90715b34b9f10000000000490565b90565b60ff6011199116019060ff8211610ddf57565b60ff166012039060ff8211610ddf57565b60ff16604d8111610ddf57600a0a90565b60ff82166012811461152f576012111561151a57610b646115156114ba936114d0565b6114e1565b6115296115156114ba936114bd565b906113ac565b50905090565b5f811261153f5790565b6114ba90611403565b60ff82166012811461152f576012111561156b576115296115156114ba936114d0565b610b646115156114ba936114bd56fea2646970667358221220da4034872228e03e948897ea11d03022f8a304b97dd2ebed18ed6f17683032bc64736f6c634300081e0033",
  "linkReferences": {},
  "deployedLinkReferences": {}
}