{
  "_format": "hh-sol-artifact-1",
  "contractName": "FlashSessionComplexCallback",
  "sourceName": "contracts/z_remix_test/FlashSessionComplexCallback.sol",
  "abi": [
    {
      "inputs": [
        {
          "internalType": "address",
          "name": "_pm",
          "type": "address"
        },
        {
          "internalType": "address",
          "name": "_A",
          "type": "address"
        },
        {
          "internalType": "address",
          "name": "_B",
          "type": "address"
        },
        {
          "internalType": "address",
          "name": "_C",
          "type": "address"
        },
        {
          "internalType": "address",
          "name": "_simple",
          "type": "address"
        },
        {
          "internalType": "address",
          "name": "_alpha",
          "type": "address"
        },
        {
          "internalType": "bytes3",
          "name": "_SIMPLE",
          "type": "bytes3"
        },
        {
          "internalType": "bytes3",
          "name": "_ALPHA",
          "type": "bytes3"
        },
        {
          "internalType": "uint256",
          "name": "_add0",
          "type": "uint256"
        },
        {
          "internalType": "uint256",
          "name": "_add1",
          "type": "uint256"
        },
        {
          "internalType": "uint256",
          "name": "_swapAmt",
          "type": "uint256"
        }
      ],
      "stateMutability": "nonpayable",
      "type": "constructor"
    },
    {
      "inputs": [],
      "name": "A",
      "outputs": [
        {
          "internalType": "address",
          "name": "",
          "type": "address"
        }
      ],
      "stateMutability": "view",
      "type": "function"
    },
    {
      "inputs": [],
      "name": "ALPHA",
      "outputs": [
        {
          "internalType": "bytes3",
          "name": "",
          "type": "bytes3"
        }
      ],
      "stateMutability": "view",
      "type": "function"
    },
    {
      "inputs": [],
      "name": "B",
      "outputs": [
        {
          "internalType": "address",
          "name": "",
          "type": "address"
        }
      ],
      "stateMutability": "view",
      "type": "function"
    },
    {
      "inputs": [],
      "name": "C",
      "outputs": [
        {
          "internalType": "address",
          "name": "",
          "type": "address"
        }
      ],
      "stateMutability": "view",
      "type": "function"
    },
    {
      "inputs": [],
      "name": "SIMPLE",
      "outputs": [
        {
          "internalType": "bytes3",
          "name": "",
          "type": "bytes3"
        }
      ],
      "stateMutability": "view",
      "type": "function"
    },
    {
      "inputs": [],
      "name": "add0",
      "outputs": [
        {
          "internalType": "uint256",
          "name": "",
          "type": "uint256"
        }
      ],
      "stateMutability": "view",
      "type": "function"
    },
    {
      "inputs": [],
      "name": "add1",
      "outputs": [
        {
          "internalType": "uint256",
          "name": "",
          "type": "uint256"
        }
      ],
      "stateMutability": "view",
      "type": "function"
    },
    {
      "inputs": [],
      "name": "alpha",
      "outputs": [
        {
          "internalType": "address",
          "name": "",
          "type": "address"
        }
      ],
      "stateMutability": "view",
      "type": "function"
    },
    {
      "inputs": [
        {
          "internalType": "bytes",
          "name": "",
          "type": "bytes"
        }
      ],
      "name": "flashCallback",
      "outputs": [],
      "stateMutability": "nonpayable",
      "type": "function"
    },
    {
      "inputs": [],
      "name": "poolManager",
      "outputs": [
        {
          "internalType": "contract IPoolManager",
          "name": "",
          "type": "address"
        }
      ],
      "stateMutability": "view",
      "type": "function"
    },
    {
      "inputs": [],
      "name": "simple",
      "outputs": [
        {
          "internalType": "address",
          "name": "",
          "type": "address"
        }
      ],
      "stateMutability": "view",
      "type": "function"
    },
    {
      "inputs": [],
      "name": "swapAmt",
      "outputs": [
        {
          "internalType": "uint256",
          "name": "",
          "type": "uint256"
        }
      ],
      "stateMutability": "view",
      "type": "function"
    }
  ],
  "bytecode": "0x6101e0346101a957601f610d2038819003918201601f19168301916001600160401b038311848410176101ad57808492610160946040528339810103126101a957610049816101c1565b90610056602082016101c1565b610062604083016101c1565b61006e606084016101c1565b61007a608085016101c1565b61008660a086016101c1565b9061009360c087016101d5565b926100a060e088016101d5565b94610100880151966101406101208a01519901519960018060a01b031660805260a05260c05260e05261010052610120526101405261016052610180526101a0526101c052604051610b3590816101eb82396080518181816101ee015261079f015260a05181818160fd0152610188015260c05181818161023a0152610924015260e0518181816102a601526108a6015261010051818181610219015261075b0152610120518181816102c801526107e301526101405181818160b401526101cc0152610160518181816102ea0152610861015261018051818181610263015261082901526101a0518181816101aa015261096801526101c05181818161037701526108ec0152f35b5f80fd5b634e487b7160e01b5f52604160045260245ffd5b51906001600160a01b03821682036101a957565b51906001600160e81b0319821682036101a95756fe6080806040526004361015610012575f80fd5b5f3560e01c90816235921a146109535750806332e7c5bf1461090f5780634b656d07146108d557806383dfe5fd14610891578063b0bb1c5a1461084c578063b9e25dd114610812578063db1d0fd5146107ce578063dc4c90d31461078a578063df201a4614610746578063e37392381461012c578063f446c1d0146100e85763f84b592a1461009f575f80fd5b346100e4575f3660031901126100e4576040517f00000000000000000000000000000000000000000000000000000000000000006001600160e81b0319168152602090f35b5f80fd5b346100e4575f3660031901126100e4576040517f00000000000000000000000000000000000000000000000000000000000000006001600160a01b03168152602090f35b346100e45760203660031901126100e45760043567ffffffffffffffff81116100e457366023820112156100e457806004013567ffffffffffffffff81116100e457369101602401116100e45760405163e513315b60e01b81527f0000000000000000000000000000000000000000000000000000000000000000907f0000000000000000000000000000000000000000000000000000000000000000907f0000000000000000000000000000000000000000000000000000000000000000907f00000000000000000000000000000000000000000000000000000000000000006001600160a01b0316907f00000000000000000000000000000000000000000000000000000000000000007f00000000000000000000000000000000000000000000000000000000000000006020838061028f897f00000000000000000000000000000000000000000000000000000000000000008a88888f600488016109dd565b03815f885af1928315610548575f93610712575b507f0000000000000000000000000000000000000000000000000000000000000000927f0000000000000000000000000000000000000000000000000000000000000000957f00000000000000000000000000000000000000000000000000000000000000009860208a8961032f8c6040519d8e94859463e513315b60e01b86528d8c600488016109dd565b03815f8b5af1988915610548575f996106de575b50604051918a606061035581866109bb565b60028552601f1981015f5b81811061069b57505061037283610aa4565b6103f87f0000000000000000000000000000000000000000000000000000000000000000936103a085610ad8565b604051906103ad8261098b565b6001600160a01b0389811683528c811660208401819052908e166040840152868301959095526080820152600160a08201526103e889610a21565b526103f288610a21565b50610aa4565b6104048460011c610ad8565b90604051926104128461098b565b83526001600160a01b038c811660208501528e166040840152838301526080820152600160a082015261044486610a42565b5261044e85610a42565b5060405194859163274bb1b960e21b83526064830181600485015282518091526084840191602060848360051b8701019401925f915b8383106105a5575050505050819060209360248301526001604483015203815f8c5af192831561054857859361056f575b506040936104d79185519788958695631963e5e760e31b875260048701610a68565b03815f885af18015610548576040965f9361050e92610553575b508751631963e5e760e31b81529889978896879560048701610a68565b03925af180156105485761051e57005b61053f9060403d604011610541575b61053781836109bb565b810190610a52565b005b503d61052d565b6040513d5f823e3d90fd5b61056990893d8b116105415761053781836109bb565b506104f1565b9092506020813d60201161059d575b8161058b602093836109bb565b810103126100e45750839160406104b5565b3d915061057e565b919396955091936083198a820301835286519060c081019160018060a01b03815116825260018060a01b03602082015116602083015260018060a01b036040820151166040830152838101519260c0858401528351809152602060e084019401905f905b808210610678575050506080810151928281036080840152602080855192838152019401905f905b8082106106605750505060019260209260a0808594015115159101529801930193019092899596949293610484565b90919460208060019288518152019601920190610631565b82516001600160e81b031916865260209586019590920191600190910190610609565b602091929693506040516106ae8161098b565b5f81525f838201525f604082015287808201528760808201525f60a082015282828601015201908d929591610360565b9098506020813d60201161070a575b816106fa602093836109bb565b810103126100e45751978a610343565b3d91506106ed565b9092506020813d60201161073e575b8161072e602093836109bb565b810103126100e4575191876102a3565b3d9150610721565b346100e4575f3660031901126100e4576040517f00000000000000000000000000000000000000000000000000000000000000006001600160a01b03168152602090f35b346100e4575f3660031901126100e4576040517f00000000000000000000000000000000000000000000000000000000000000006001600160a01b03168152602090f35b346100e4575f3660031901126100e4576040517f00000000000000000000000000000000000000000000000000000000000000006001600160a01b03168152602090f35b346100e4575f3660031901126100e45760206040517f00000000000000000000000000000000000000000000000000000000000000008152f35b346100e4575f3660031901126100e4576040517f00000000000000000000000000000000000000000000000000000000000000006001600160e81b0319168152602090f35b346100e4575f3660031901126100e4576040517f00000000000000000000000000000000000000000000000000000000000000006001600160a01b03168152602090f35b346100e4575f3660031901126100e45760206040517f00000000000000000000000000000000000000000000000000000000000000008152f35b346100e4575f3660031901126100e4576040517f00000000000000000000000000000000000000000000000000000000000000006001600160a01b03168152602090f35b346100e4575f3660031901126100e4576020907f00000000000000000000000000000000000000000000000000000000000000008152f35b60c0810190811067ffffffffffffffff8211176109a757604052565b634e487b7160e01b5f52604160045260245ffd5b90601f8019910116810190811067ffffffffffffffff8211176109a757604052565b6001600160a01b039182168152918116602083015290911660408201526001600160e81b03199091166060820152608081019190915260a081019190915260c00190565b805115610a2e5760200190565b634e487b7160e01b5f52603260045260245ffd5b805160011015610a2e5760400190565b91908260409103126100e4576020825192015190565b6001600160a01b039182168152918116602083015290911660408201526001600160e81b03199091166060820152608081019190915260a00190565b9060405191610ab46040846109bb565b6001835260203681850137610ac883610a21565b6001600160e81b03199091169052565b9060405191610ae86040846109bb565b6001835260203681850137610afc83610a21565b5256fea264697066735822122024bd144b8044a9a4845de667ed1deb0557f820f5af43e4fe62b31c1156c0957964736f6c634300081e0033",
  "linkReferences": {},
  "deployedLinkReferences": {}
}