{
  "_format": "hh-sol-artifact-1",
  "contractName": "GasMeasurer",
  "sourceName": "contracts/Peripheral/flash_test/GasMeasurer.sol",
  "abi": [
    {
      "inputs": [
        {
          "internalType": "address",
          "name": "bridge",
          "type": "address"
        },
        {
          "components": [
            {
              "internalType": "address",
              "name": "asset0",
              "type": "address"
            },
            {
              "internalType": "address",
              "name": "asset1",
              "type": "address"
            },
            {
              "internalType": "address",
              "name": "quoter",
              "type": "address"
            },
            {
              "internalType": "uint256",
              "name": "amount",
              "type": "uint256"
            },
            {
              "internalType": "uint128",
              "name": "asset0Balance",
              "type": "uint128"
            },
            {
              "internalType": "uint128",
              "name": "asset1Balance",
              "type": "uint128"
            },
            {
              "internalType": "uint16",
              "name": "bucketID",
              "type": "uint16"
            },
            {
              "internalType": "bool",
              "name": "zeroForOne",
              "type": "bool"
            },
            {
              "internalType": "uint8",
              "name": "functionFlags",
              "type": "uint8"
            }
          ],
          "internalType": "struct QuoteParams",
          "name": "p",
          "type": "tuple"
        }
      ],
      "name": "measure",
      "outputs": [
        {
          "internalType": "bytes",
          "name": "",
          "type": "bytes"
        }
      ],
      "stateMutability": "nonpayable",
      "type": "function"
    }
  ],
  "bytecode": "0x6080806040523460155761030a908161001a8239f35b5f80fdfe6080806040526004361015610012575f80fd5b5f3560e01c6346061e4b14610025575f80fd5b3461028f5761014036600319011261028f576004356001600160a01b038116919082900361028f5761012036602319011261028f57610120810181811067ffffffffffffffff821117610293576040526024356001600160a01b038116810361028f578152604435906001600160a01b038216820361028f5760208101918252606435926001600160a01b038416840361028f576040820193845260608201608435815260a4356001600160801b038116810361028f576080840190815260c4356001600160801b038116810361028f5760a0850190815260e4359061ffff8216820361028f5760c086019182526101043592831515840361028f5760e08701938452610124359460ff8616860361028f576101008801958652604051632031827560e11b815297516001600160a01b0390811660048a0152985189166024890152985190971660448701529651606486015294516001600160801b039081166084860152955190951660a4840152925161ffff1660c48301529251151560e4820152905160ff1661010482015290819081905a925f610124928195f19081156102a7575f91610201575b6020604083815192839181835280519182918282860152018484015e5f828201840152601f01601f19168101030190f35b90503d805f833e61021281836102b2565b81019060208183031261028f5780519067ffffffffffffffff821161028f570181601f8201121561028f5780519167ffffffffffffffff83116102935760405190610267601f8501601f1916602001836102b2565b8382526020848401011161028f575f602084819582604096018386015e8301015291506101d0565b5f80fd5b634e487b7160e01b5f52604160045260245ffd5b6040513d5f823e3d90fd5b90601f8019910116810190811067ffffffffffffffff8211176102935760405256fea2646970667358221220d6a598146229310111a511392f54e737c9f0e2448ede7b10c402ac2d7d228e2a64736f6c634300081e0033",
  "linkReferences": {},
  "deployedLinkReferences": {}
}