{
  "_format": "hh-sol-artifact-1",
  "contractName": "GasMeasurer",
  "sourceName": "contracts/Peripheral/flash_test/GasMeasurer.sol",
  "abi": [
    {
      "inputs": [
        {
          "internalType": "address",
          "name": "bridge",
          "type": "address"
        },
        {
          "components": [
            {
              "internalType": "address",
              "name": "asset0",
              "type": "address"
            },
            {
              "internalType": "address",
              "name": "asset1",
              "type": "address"
            },
            {
              "internalType": "address",
              "name": "quoter",
              "type": "address"
            },
            {
              "internalType": "uint256",
              "name": "amount",
              "type": "uint256"
            },
            {
              "internalType": "uint128",
              "name": "asset0Balance",
              "type": "uint128"
            },
            {
              "internalType": "uint128",
              "name": "asset1Balance",
              "type": "uint128"
            },
            {
              "internalType": "uint16",
              "name": "bucketID",
              "type": "uint16"
            },
            {
              "internalType": "bool",
              "name": "zeroForOne",
              "type": "bool"
            }
          ],
          "internalType": "struct QuoteParams",
          "name": "p",
          "type": "tuple"
        }
      ],
      "name": "measure",
      "outputs": [
        {
          "internalType": "bytes",
          "name": "",
          "type": "bytes"
        }
      ],
      "stateMutability": "nonpayable",
      "type": "function"
    }
  ],
  "bytecode": "0x608080604052346015576102e7908161001a8239f35b5f80fdfe6080806040526004361015610012575f80fd5b5f3560e01c637d80abe114610025575f80fd5b3461026c5761012036600319011261026c576004356001600160a01b038116919082900361026c5761010036602319011261026c57610100810181811067ffffffffffffffff821117610270576040526024356001600160a01b038116810361026c578152604435906001600160a01b038216820361026c5760208101918252606435926001600160a01b038416840361026c576040820193845260608201608435815260a4356001600160801b038116810361026c576080840190815260c4356001600160801b038116810361026c5760a0850190815260e4359161ffff8316830361026c5760c086019283526101043593841515850361026c5760e08701948552604051633bd1104b60e01b815296516001600160a01b039081166004890152975188166024880152975190961660448601529551606485015293516001600160801b039081166084850152945190941660a4830152915161ffff1660c48201529151151560e4830152819081905a925f610104928195f1908115610284575f916101de575b6020604083815192839181835280519182918282860152018484015e5f828201840152601f01601f19168101030190f35b90503d805f833e6101ef818361028f565b81019060208183031261026c5780519067ffffffffffffffff821161026c570181601f8201121561026c5780519167ffffffffffffffff83116102705760405190610244601f8501601f19166020018361028f565b8382526020848401011161026c575f602084819582604096018386015e8301015291506101ad565b5f80fd5b634e487b7160e01b5f52604160045260245ffd5b6040513d5f823e3d90fd5b90601f8019910116810190811067ffffffffffffffff8211176102705760405256fea2646970667358221220371294f1a0257b1a21c065228a2ef038c8bf4a5524593412fbc76db7f0657f3164736f6c634300081e0033",
  "linkReferences": {},
  "deployedLinkReferences": {}
}