{
  "_format": "hh-sol-artifact-1",
  "contractName": "PoolManager",
  "sourceName": "contracts/Core/PoolManager.sol",
  "abi": [
    {
      "inputs": [
        {
          "internalType": "address",
          "name": "_defaultData0Bridge",
          "type": "address"
        },
        {
          "internalType": "address",
          "name": "_defaultData1Bridge",
          "type": "address"
        },
        {
          "internalType": "address",
          "name": "_defaultData2Bridge",
          "type": "address"
        },
        {
          "internalType": "address",
          "name": "_defaultData3Bridge",
          "type": "address"
        }
      ],
      "stateMutability": "nonpayable",
      "type": "constructor"
    },
    {
      "inputs": [],
      "name": "AssetTransferLib__Erc20TransferFailed",
      "type": "error"
    },
    {
      "inputs": [],
      "name": "AssetTransferLib__EthNotExpected",
      "type": "error"
    },
    {
      "inputs": [],
      "name": "AssetTransferLib__IncorrectEthSent",
      "type": "error"
    },
    {
      "inputs": [],
      "name": "CommitReveal__CommitmentExpired",
      "type": "error"
    },
    {
      "inputs": [],
      "name": "CommitReveal__CommitmentTooNew",
      "type": "error"
    },
    {
      "inputs": [],
      "name": "CommitReveal__InvalidCommitment",
      "type": "error"
    },
    {
      "inputs": [],
      "name": "CommitReveal__InvalidNonce",
      "type": "error"
    },
    {
      "inputs": [],
      "name": "PoolManager__AccessDenied",
      "type": "error"
    },
    {
      "inputs": [],
      "name": "PoolManager__AtomicExecutionRequired",
      "type": "error"
    },
    {
      "inputs": [
        {
          "internalType": "uint256",
          "name": "required",
          "type": "uint256"
        },
        {
          "internalType": "uint256",
          "name": "available",
          "type": "uint256"
        }
      ],
      "name": "PoolManager__InsufficientAsset0",
      "type": "error"
    },
    {
      "inputs": [
        {
          "internalType": "uint256",
          "name": "required",
          "type": "uint256"
        },
        {
          "internalType": "uint256",
          "name": "available",
          "type": "uint256"
        }
      ],
      "name": "PoolManager__InsufficientAsset1",
      "type": "error"
    },
    {
      "inputs": [],
      "name": "PoolManager__InsufficientLiquidityMinted",
      "type": "error"
    },
    {
      "inputs": [
        {
          "internalType": "uint256",
          "name": "minOut",
          "type": "uint256"
        },
        {
          "internalType": "uint256",
          "name": "actual",
          "type": "uint256"
        }
      ],
      "name": "PoolManager__InsufficientOutput",
      "type": "error"
    },
    {
      "inputs": [
        {
          "internalType": "uint256",
          "name": "amount0",
          "type": "uint256"
        },
        {
          "internalType": "uint256",
          "name": "amount1",
          "type": "uint256"
        }
      ],
      "name": "PoolManager__InsufficientWithdrawal",
      "type": "error"
    },
    {
      "inputs": [],
      "name": "PoolManager__InvalidInitialAmounts",
      "type": "error"
    },
    {
      "inputs": [],
      "name": "PoolManager__InvalidLiquidityAmount",
      "type": "error"
    },
    {
      "inputs": [],
      "name": "PoolManager__InvalidQuote",
      "type": "error"
    },
    {
      "inputs": [],
      "name": "PoolManager__MismatchedArrays",
      "type": "error"
    },
    {
      "inputs": [],
      "name": "PoolManager__NoHops",
      "type": "error"
    },
    {
      "inputs": [],
      "name": "PoolManager__NoLiquidity",
      "type": "error"
    },
    {
      "inputs": [],
      "name": "PoolManager__NoMarkings",
      "type": "error"
    },
    {
      "inputs": [],
      "name": "PoolManager__OperationPaused",
      "type": "error"
    },
    {
      "inputs": [
        {
          "internalType": "uint256",
          "name": "poolID",
          "type": "uint256"
        }
      ],
      "name": "PoolManager__PoolAlreadyExists",
      "type": "error"
    },
    {
      "anonymous": false,
      "inputs": [
        {
          "indexed": true,
          "internalType": "address",
          "name": "owner",
          "type": "address"
        },
        {
          "indexed": true,
          "internalType": "address",
          "name": "spender",
          "type": "address"
        },
        {
          "indexed": true,
          "internalType": "uint256",
          "name": "id",
          "type": "uint256"
        },
        {
          "indexed": false,
          "internalType": "uint256",
          "name": "amount",
          "type": "uint256"
        }
      ],
      "name": "Approval",
      "type": "event"
    },
    {
      "anonymous": false,
      "inputs": [
        {
          "indexed": true,
          "internalType": "bytes32",
          "name": "commitment",
          "type": "bytes32"
        },
        {
          "indexed": true,
          "internalType": "address",
          "name": "trader",
          "type": "address"
        }
      ],
      "name": "CommittedSwapExecuted",
      "type": "event"
    },
    {
      "anonymous": false,
      "inputs": [
        {
          "indexed": true,
          "internalType": "address",
          "name": "owner",
          "type": "address"
        },
        {
          "indexed": true,
          "internalType": "address",
          "name": "operator",
          "type": "address"
        },
        {
          "indexed": false,
          "internalType": "bool",
          "name": "approved",
          "type": "bool"
        }
      ],
      "name": "OperatorSet",
      "type": "event"
    },
    {
      "anonymous": false,
      "inputs": [
        {
          "indexed": true,
          "internalType": "uint256",
          "name": "poolID",
          "type": "uint256"
        },
        {
          "indexed": false,
          "internalType": "address",
          "name": "asset0",
          "type": "address"
        },
        {
          "indexed": false,
          "internalType": "address",
          "name": "asset1",
          "type": "address"
        },
        {
          "indexed": false,
          "internalType": "address",
          "name": "quoter",
          "type": "address"
        },
        {
          "indexed": false,
          "internalType": "bytes3",
          "name": "markings",
          "type": "bytes3"
        }
      ],
      "name": "PoolCreated",
      "type": "event"
    },
    {
      "anonymous": false,
      "inputs": [
        {
          "indexed": true,
          "internalType": "uint256",
          "name": "poolID",
          "type": "uint256"
        },
        {
          "indexed": false,
          "internalType": "address",
          "name": "treasury",
          "type": "address"
        },
        {
          "indexed": false,
          "internalType": "uint256",
          "name": "feeAsset0",
          "type": "uint256"
        },
        {
          "indexed": false,
          "internalType": "uint256",
          "name": "feeAsset1",
          "type": "uint256"
        }
      ],
      "name": "ProtocolFeeCharged",
      "type": "event"
    },
    {
      "anonymous": false,
      "inputs": [
        {
          "indexed": false,
          "internalType": "address",
          "name": "treasury",
          "type": "address"
        },
        {
          "indexed": false,
          "internalType": "uint16",
          "name": "feeBps",
          "type": "uint16"
        }
      ],
      "name": "ProtocolFeeConfigured",
      "type": "event"
    },
    {
      "anonymous": false,
      "inputs": [
        {
          "indexed": true,
          "internalType": "bytes32",
          "name": "commitment",
          "type": "bytes32"
        },
        {
          "indexed": true,
          "internalType": "address",
          "name": "trader",
          "type": "address"
        },
        {
          "indexed": false,
          "internalType": "uint32",
          "name": "blockNumber",
          "type": "uint32"
        }
      ],
      "name": "SwapCommitted",
      "type": "event"
    },
    {
      "anonymous": false,
      "inputs": [
        {
          "indexed": false,
          "internalType": "address",
          "name": "caller",
          "type": "address"
        },
        {
          "indexed": true,
          "internalType": "address",
          "name": "from",
          "type": "address"
        },
        {
          "indexed": true,
          "internalType": "address",
          "name": "to",
          "type": "address"
        },
        {
          "indexed": true,
          "internalType": "uint256",
          "name": "id",
          "type": "uint256"
        },
        {
          "indexed": false,
          "internalType": "uint256",
          "name": "amount",
          "type": "uint256"
        }
      ],
      "name": "Transfer",
      "type": "event"
    },
    {
      "inputs": [
        {
          "internalType": "bytes",
          "name": "data",
          "type": "bytes"
        }
      ],
      "name": "_decodeTwoBytes",
      "outputs": [
        {
          "internalType": "bytes",
          "name": "a",
          "type": "bytes"
        },
        {
          "internalType": "bytes",
          "name": "b",
          "type": "bytes"
        }
      ],
      "stateMutability": "pure",
      "type": "function"
    },
    {
      "inputs": [
        {
          "internalType": "address",
          "name": "asset0",
          "type": "address"
        },
        {
          "internalType": "address",
          "name": "asset1",
          "type": "address"
        },
        {
          "internalType": "address",
          "name": "quoter",
          "type": "address"
        },
        {
          "internalType": "bytes3",
          "name": "markings",
          "type": "bytes3"
        },
        {
          "internalType": "uint256",
          "name": "amount0",
          "type": "uint256"
        },
        {
          "internalType": "uint256",
          "name": "amount1",
          "type": "uint256"
        }
      ],
      "name": "addLiquidity",
      "outputs": [
        {
          "internalType": "uint256",
          "name": "liquidity",
          "type": "uint256"
        }
      ],
      "stateMutability": "payable",
      "type": "function"
    },
    {
      "inputs": [
        {
          "internalType": "address",
          "name": "owner",
          "type": "address"
        },
        {
          "internalType": "address",
          "name": "spender",
          "type": "address"
        },
        {
          "internalType": "uint256",
          "name": "id",
          "type": "uint256"
        }
      ],
      "name": "allowance",
      "outputs": [
        {
          "internalType": "uint256",
          "name": "",
          "type": "uint256"
        }
      ],
      "stateMutability": "view",
      "type": "function"
    },
    {
      "inputs": [
        {
          "internalType": "address",
          "name": "spender",
          "type": "address"
        },
        {
          "internalType": "uint256",
          "name": "id",
          "type": "uint256"
        },
        {
          "internalType": "uint256",
          "name": "amount",
          "type": "uint256"
        }
      ],
      "name": "approve",
      "outputs": [
        {
          "internalType": "bool",
          "name": "",
          "type": "bool"
        }
      ],
      "stateMutability": "nonpayable",
      "type": "function"
    },
    {
      "inputs": [
        {
          "internalType": "address",
          "name": "owner",
          "type": "address"
        },
        {
          "internalType": "uint256",
          "name": "id",
          "type": "uint256"
        }
      ],
      "name": "balanceOf",
      "outputs": [
        {
          "internalType": "uint256",
          "name": "",
          "type": "uint256"
        }
      ],
      "stateMutability": "view",
      "type": "function"
    },
    {
      "inputs": [
        {
          "components": [
            {
              "internalType": "address",
              "name": "asset0",
              "type": "address"
            },
            {
              "internalType": "address",
              "name": "asset1",
              "type": "address"
            },
            {
              "internalType": "address",
              "name": "quoter",
              "type": "address"
            },
            {
              "internalType": "bytes3[]",
              "name": "markings",
              "type": "bytes3[]"
            },
            {
              "internalType": "uint256[]",
              "name": "amounts",
              "type": "uint256[]"
            },
            {
              "internalType": "bool",
              "name": "zeroForOne",
              "type": "bool"
            }
          ],
          "internalType": "struct Hop[]",
          "name": "hops",
          "type": "tuple[]"
        },
        {
          "internalType": "uint256",
          "name": "amountIn",
          "type": "uint256"
        },
        {
          "internalType": "uint256",
          "name": "minAmountOut",
          "type": "uint256"
        }
      ],
      "name": "batchSwap",
      "outputs": [
        {
          "internalType": "uint256",
          "name": "amountOut",
          "type": "uint256"
        }
      ],
      "stateMutability": "payable",
      "type": "function"
    },
    {
      "inputs": [
        {
          "internalType": "bytes32",
          "name": "commitment",
          "type": "bytes32"
        }
      ],
      "name": "commitSwap",
      "outputs": [],
      "stateMutability": "nonpayable",
      "type": "function"
    },
    {
      "inputs": [
        {
          "internalType": "uint256",
          "name": "",
          "type": "uint256"
        }
      ],
      "name": "configurableDataBridges",
      "outputs": [
        {
          "internalType": "address",
          "name": "",
          "type": "address"
        }
      ],
      "stateMutability": "view",
      "type": "function"
    },
    {
      "inputs": [
        {
          "internalType": "address",
          "name": "treasury",
          "type": "address"
        },
        {
          "internalType": "uint16",
          "name": "feeBps",
          "type": "uint16"
        }
      ],
      "name": "configureProtocolFee",
      "outputs": [],
      "stateMutability": "nonpayable",
      "type": "function"
    },
    {
      "inputs": [
        {
          "internalType": "address",
          "name": "asset0",
          "type": "address"
        },
        {
          "internalType": "address",
          "name": "asset1",
          "type": "address"
        },
        {
          "internalType": "address",
          "name": "quoter",
          "type": "address"
        },
        {
          "internalType": "bytes3",
          "name": "markings",
          "type": "bytes3"
        }
      ],
      "name": "createPool",
      "outputs": [
        {
          "internalType": "uint256",
          "name": "poolID",
          "type": "uint256"
        }
      ],
      "stateMutability": "nonpayable",
      "type": "function"
    },
    {
      "inputs": [],
      "name": "defaultData0Bridge",
      "outputs": [
        {
          "internalType": "address",
          "name": "",
          "type": "address"
        }
      ],
      "stateMutability": "view",
      "type": "function"
    },
    {
      "inputs": [],
      "name": "defaultData1Bridge",
      "outputs": [
        {
          "internalType": "address",
          "name": "",
          "type": "address"
        }
      ],
      "stateMutability": "view",
      "type": "function"
    },
    {
      "inputs": [],
      "name": "defaultData2Bridge",
      "outputs": [
        {
          "internalType": "address",
          "name": "",
          "type": "address"
        }
      ],
      "stateMutability": "view",
      "type": "function"
    },
    {
      "inputs": [],
      "name": "defaultData3Bridge",
      "outputs": [
        {
          "internalType": "address",
          "name": "",
          "type": "address"
        }
      ],
      "stateMutability": "view",
      "type": "function"
    },
    {
      "inputs": [
        {
          "internalType": "uint8",
          "name": "newState",
          "type": "uint8"
        }
      ],
      "name": "emergencyPauseProtocolPools",
      "outputs": [],
      "stateMutability": "nonpayable",
      "type": "function"
    },
    {
      "inputs": [
        {
          "internalType": "address",
          "name": "asset0",
          "type": "address"
        },
        {
          "internalType": "address",
          "name": "asset1",
          "type": "address"
        },
        {
          "internalType": "address",
          "name": "quoter",
          "type": "address"
        },
        {
          "internalType": "bytes3",
          "name": "markings",
          "type": "bytes3"
        },
        {
          "internalType": "uint256",
          "name": "amountIn",
          "type": "uint256"
        },
        {
          "internalType": "bool",
          "name": "zeroForOne",
          "type": "bool"
        },
        {
          "internalType": "uint256",
          "name": "minAmountOut",
          "type": "uint256"
        },
        {
          "internalType": "uint64",
          "name": "nonce",
          "type": "uint64"
        },
        {
          "internalType": "bytes32",
          "name": "salt",
          "type": "bytes32"
        }
      ],
      "name": "executeCommittedSwap",
      "outputs": [
        {
          "internalType": "uint256",
          "name": "amountOut",
          "type": "uint256"
        }
      ],
      "stateMutability": "payable",
      "type": "function"
    },
    {
      "inputs": [
        {
          "internalType": "address",
          "name": "callback",
          "type": "address"
        },
        {
          "internalType": "bytes",
          "name": "data",
          "type": "bytes"
        },
        {
          "internalType": "address[]",
          "name": "tokens",
          "type": "address[]"
        }
      ],
      "name": "flashSession",
      "outputs": [],
      "stateMutability": "payable",
      "type": "function"
    },
    {
      "inputs": [
        {
          "internalType": "address",
          "name": "callback",
          "type": "address"
        },
        {
          "internalType": "bytes",
          "name": "data",
          "type": "bytes"
        },
        {
          "internalType": "address[]",
          "name": "tokens",
          "type": "address[]"
        }
      ],
      "name": "flashSessionWithReturn",
      "outputs": [
        {
          "internalType": "int256[]",
          "name": "deltas",
          "type": "int256[]"
        }
      ],
      "stateMutability": "payable",
      "type": "function"
    },
    {
      "inputs": [
        {
          "internalType": "address",
          "name": "trader",
          "type": "address"
        }
      ],
      "name": "getCommitNonce",
      "outputs": [
        {
          "internalType": "uint64",
          "name": "nonce",
          "type": "uint64"
        }
      ],
      "stateMutability": "view",
      "type": "function"
    },
    {
      "inputs": [
        {
          "internalType": "uint256",
          "name": "poolId",
          "type": "uint256"
        }
      ],
      "name": "getInventory",
      "outputs": [
        {
          "internalType": "uint128",
          "name": "asset0",
          "type": "uint128"
        },
        {
          "internalType": "uint128",
          "name": "asset1",
          "type": "uint128"
        }
      ],
      "stateMutability": "view",
      "type": "function"
    },
    {
      "inputs": [
        {
          "internalType": "uint256",
          "name": "poolID",
          "type": "uint256"
        }
      ],
      "name": "getPoolInfo",
      "outputs": [
        {
          "internalType": "address",
          "name": "asset0",
          "type": "address"
        },
        {
          "internalType": "address",
          "name": "asset1",
          "type": "address"
        },
        {
          "internalType": "address",
          "name": "quoter",
          "type": "address"
        },
        {
          "internalType": "bytes3",
          "name": "markings",
          "type": "bytes3"
        }
      ],
      "stateMutability": "view",
      "type": "function"
    },
    {
      "inputs": [
        {
          "components": [
            {
              "internalType": "address",
              "name": "asset0",
              "type": "address"
            },
            {
              "internalType": "address",
              "name": "asset1",
              "type": "address"
            },
            {
              "internalType": "address",
              "name": "quoter",
              "type": "address"
            },
            {
              "internalType": "uint256[]",
              "name": "amount",
              "type": "uint256[]"
            },
            {
              "internalType": "bool",
              "name": "zeroForOne",
              "type": "bool"
            },
            {
              "internalType": "bytes3[]",
              "name": "marking",
              "type": "bytes3[]"
            },
            {
              "internalType": "bytes4",
              "name": "traderProtection",
              "type": "bytes4"
            }
          ],
          "internalType": "struct SwapParams",
          "name": "p",
          "type": "tuple"
        },
        {
          "internalType": "uint128",
          "name": "asset0Balance",
          "type": "uint128"
        },
        {
          "internalType": "uint128",
          "name": "asset1Balance",
          "type": "uint128"
        }
      ],
      "name": "getQuote",
      "outputs": [
        {
          "internalType": "uint256",
          "name": "quote",
          "type": "uint256"
        },
        {
          "internalType": "uint256",
          "name": "poolID",
          "type": "uint256"
        }
      ],
      "stateMutability": "nonpayable",
      "type": "function"
    },
    {
      "inputs": [
        {
          "components": [
            {
              "internalType": "address",
              "name": "asset0",
              "type": "address"
            },
            {
              "internalType": "address",
              "name": "asset1",
              "type": "address"
            },
            {
              "internalType": "address",
              "name": "quoter",
              "type": "address"
            },
            {
              "internalType": "uint256[]",
              "name": "amount",
              "type": "uint256[]"
            },
            {
              "internalType": "bool",
              "name": "zeroForOne",
              "type": "bool"
            },
            {
              "internalType": "bytes3[]",
              "name": "marking",
              "type": "bytes3[]"
            },
            {
              "internalType": "bytes4",
              "name": "traderProtection",
              "type": "bytes4"
            }
          ],
          "internalType": "struct SwapParams",
          "name": "p",
          "type": "tuple"
        },
        {
          "internalType": "uint128",
          "name": "asset0Balance",
          "type": "uint128"
        },
        {
          "internalType": "uint128",
          "name": "asset1Balance",
          "type": "uint128"
        },
        {
          "internalType": "address",
          "name": "trader",
          "type": "address"
        }
      ],
      "name": "getQuoteAuto",
      "outputs": [
        {
          "internalType": "uint256",
          "name": "quote",
          "type": "uint256"
        },
        {
          "internalType": "uint256",
          "name": "poolID",
          "type": "uint256"
        }
      ],
      "stateMutability": "nonpayable",
      "type": "function"
    },
    {
      "inputs": [
        {
          "components": [
            {
              "internalType": "address",
              "name": "asset0",
              "type": "address"
            },
            {
              "internalType": "address",
              "name": "asset1",
              "type": "address"
            },
            {
              "internalType": "address",
              "name": "quoter",
              "type": "address"
            },
            {
              "internalType": "uint256[]",
              "name": "amount",
              "type": "uint256[]"
            },
            {
              "internalType": "bool",
              "name": "zeroForOne",
              "type": "bool"
            },
            {
              "internalType": "bytes3[]",
              "name": "marking",
              "type": "bytes3[]"
            },
            {
              "internalType": "bytes4",
              "name": "traderProtection",
              "type": "bytes4"
            }
          ],
          "internalType": "struct SwapParams",
          "name": "p",
          "type": "tuple"
        },
        {
          "internalType": "uint128[]",
          "name": "asset0Balances",
          "type": "uint128[]"
        },
        {
          "internalType": "uint128[]",
          "name": "asset1Balances",
          "type": "uint128[]"
        }
      ],
      "name": "getQuoteBatch",
      "outputs": [
        {
          "internalType": "uint256[]",
          "name": "quote",
          "type": "uint256[]"
        },
        {
          "internalType": "uint256[]",
          "name": "poolID",
          "type": "uint256[]"
        }
      ],
      "stateMutability": "nonpayable",
      "type": "function"
    },
    {
      "inputs": [
        {
          "components": [
            {
              "internalType": "address",
              "name": "asset0",
              "type": "address"
            },
            {
              "internalType": "address",
              "name": "asset1",
              "type": "address"
            },
            {
              "internalType": "address",
              "name": "quoter",
              "type": "address"
            },
            {
              "internalType": "uint256[]",
              "name": "amount",
              "type": "uint256[]"
            },
            {
              "internalType": "bool",
              "name": "zeroForOne",
              "type": "bool"
            },
            {
              "internalType": "bytes3[]",
              "name": "marking",
              "type": "bytes3[]"
            },
            {
              "internalType": "bytes4",
              "name": "traderProtection",
              "type": "bytes4"
            }
          ],
          "internalType": "struct SwapParams",
          "name": "p",
          "type": "tuple"
        },
        {
          "internalType": "uint128[]",
          "name": "asset0Balances",
          "type": "uint128[]"
        },
        {
          "internalType": "uint128[]",
          "name": "asset1Balances",
          "type": "uint128[]"
        },
        {
          "internalType": "address",
          "name": "trader",
          "type": "address"
        }
      ],
      "name": "getQuoteBatchAuto",
      "outputs": [
        {
          "internalType": "uint256[]",
          "name": "quote",
          "type": "uint256[]"
        },
        {
          "internalType": "uint256[]",
          "name": "poolID",
          "type": "uint256[]"
        }
      ],
      "stateMutability": "nonpayable",
      "type": "function"
    },
    {
      "inputs": [
        {
          "internalType": "address",
          "name": "user",
          "type": "address"
        },
        {
          "internalType": "address[]",
          "name": "tokens",
          "type": "address[]"
        }
      ],
      "name": "getUserDeltas",
      "outputs": [
        {
          "internalType": "int256[]",
          "name": "deltas",
          "type": "int256[]"
        }
      ],
      "stateMutability": "view",
      "type": "function"
    },
    {
      "inputs": [
        {
          "internalType": "address",
          "name": "owner",
          "type": "address"
        },
        {
          "internalType": "address",
          "name": "spender",
          "type": "address"
        }
      ],
      "name": "isOperator",
      "outputs": [
        {
          "internalType": "bool",
          "name": "",
          "type": "bool"
        }
      ],
      "stateMutability": "view",
      "type": "function"
    },
    {
      "inputs": [
        {
          "internalType": "uint256",
          "name": "poolId",
          "type": "uint256"
        },
        {
          "internalType": "uint8",
          "name": "newState",
          "type": "uint8"
        }
      ],
      "name": "pauseSpecificPool",
      "outputs": [],
      "stateMutability": "nonpayable",
      "type": "function"
    },
    {
      "inputs": [
        {
          "internalType": "address",
          "name": "asset0",
          "type": "address"
        },
        {
          "internalType": "address",
          "name": "asset1",
          "type": "address"
        },
        {
          "internalType": "address",
          "name": "quoter",
          "type": "address"
        },
        {
          "internalType": "bytes3",
          "name": "markings",
          "type": "bytes3"
        },
        {
          "internalType": "uint256",
          "name": "liquidity",
          "type": "uint256"
        }
      ],
      "name": "removeLiquidity",
      "outputs": [
        {
          "internalType": "uint256",
          "name": "amount0",
          "type": "uint256"
        },
        {
          "internalType": "uint256",
          "name": "amount1",
          "type": "uint256"
        }
      ],
      "stateMutability": "nonpayable",
      "type": "function"
    },
    {
      "inputs": [
        {
          "components": [
            {
              "internalType": "address",
              "name": "asset0",
              "type": "address"
            },
            {
              "internalType": "address",
              "name": "asset1",
              "type": "address"
            },
            {
              "internalType": "address",
              "name": "quoter",
              "type": "address"
            },
            {
              "internalType": "uint256[]",
              "name": "amount",
              "type": "uint256[]"
            },
            {
              "internalType": "bool",
              "name": "zeroForOne",
              "type": "bool"
            },
            {
              "internalType": "bytes3[]",
              "name": "marking",
              "type": "bytes3[]"
            },
            {
              "internalType": "bytes4",
              "name": "traderProtection",
              "type": "bytes4"
            }
          ],
          "internalType": "struct SwapParams",
          "name": "p",
          "type": "tuple"
        },
        {
          "internalType": "uint128",
          "name": "asset0Balance",
          "type": "uint128"
        },
        {
          "internalType": "uint128",
          "name": "asset1Balance",
          "type": "uint128"
        }
      ],
      "name": "routerGetQuote",
      "outputs": [
        {
          "internalType": "uint256",
          "name": "quote",
          "type": "uint256"
        },
        {
          "internalType": "uint256",
          "name": "poolID",
          "type": "uint256"
        }
      ],
      "stateMutability": "nonpayable",
      "type": "function"
    },
    {
      "inputs": [
        {
          "components": [
            {
              "internalType": "address",
              "name": "asset0",
              "type": "address"
            },
            {
              "internalType": "address",
              "name": "asset1",
              "type": "address"
            },
            {
              "internalType": "address",
              "name": "quoter",
              "type": "address"
            },
            {
              "internalType": "uint256[]",
              "name": "amount",
              "type": "uint256[]"
            },
            {
              "internalType": "bool",
              "name": "zeroForOne",
              "type": "bool"
            },
            {
              "internalType": "bytes3[]",
              "name": "marking",
              "type": "bytes3[]"
            },
            {
              "internalType": "bytes4",
              "name": "traderProtection",
              "type": "bytes4"
            }
          ],
          "internalType": "struct SwapParams",
          "name": "p",
          "type": "tuple"
        },
        {
          "internalType": "uint128[]",
          "name": "asset0Balances",
          "type": "uint128[]"
        },
        {
          "internalType": "uint128[]",
          "name": "asset1Balances",
          "type": "uint128[]"
        }
      ],
      "name": "routerGetQuoteBatch",
      "outputs": [
        {
          "internalType": "uint256[]",
          "name": "quote",
          "type": "uint256[]"
        },
        {
          "internalType": "uint256[]",
          "name": "poolID",
          "type": "uint256[]"
        }
      ],
      "stateMutability": "nonpayable",
      "type": "function"
    },
    {
      "inputs": [
        {
          "internalType": "uint8",
          "name": "overallSlot",
          "type": "uint8"
        },
        {
          "internalType": "address",
          "name": "bridge",
          "type": "address"
        }
      ],
      "name": "setDataBridge",
      "outputs": [],
      "stateMutability": "nonpayable",
      "type": "function"
    },
    {
      "inputs": [
        {
          "internalType": "address",
          "name": "protocol",
          "type": "address"
        },
        {
          "internalType": "address",
          "name": "emergency",
          "type": "address"
        }
      ],
      "name": "setGovernance",
      "outputs": [],
      "stateMutability": "nonpayable",
      "type": "function"
    },
    {
      "inputs": [
        {
          "internalType": "address",
          "name": "operator",
          "type": "address"
        },
        {
          "internalType": "bool",
          "name": "approved",
          "type": "bool"
        }
      ],
      "name": "setOperator",
      "outputs": [
        {
          "internalType": "bool",
          "name": "",
          "type": "bool"
        }
      ],
      "stateMutability": "nonpayable",
      "type": "function"
    },
    {
      "inputs": [
        {
          "internalType": "bytes4",
          "name": "interfaceId",
          "type": "bytes4"
        }
      ],
      "name": "supportsInterface",
      "outputs": [
        {
          "internalType": "bool",
          "name": "",
          "type": "bool"
        }
      ],
      "stateMutability": "view",
      "type": "function"
    },
    {
      "inputs": [
        {
          "internalType": "address",
          "name": "asset0",
          "type": "address"
        },
        {
          "internalType": "address",
          "name": "asset1",
          "type": "address"
        },
        {
          "internalType": "address",
          "name": "quoter",
          "type": "address"
        },
        {
          "internalType": "bytes3",
          "name": "markings",
          "type": "bytes3"
        },
        {
          "internalType": "uint256",
          "name": "amountIn",
          "type": "uint256"
        },
        {
          "internalType": "bool",
          "name": "zeroForOne",
          "type": "bool"
        },
        {
          "internalType": "uint256",
          "name": "minAmountOut",
          "type": "uint256"
        }
      ],
      "name": "swap",
      "outputs": [
        {
          "internalType": "uint256",
          "name": "amountOut",
          "type": "uint256"
        }
      ],
      "stateMutability": "payable",
      "type": "function"
    },
    {
      "inputs": [
        {
          "internalType": "address",
          "name": "asset0",
          "type": "address"
        },
        {
          "internalType": "address",
          "name": "asset1",
          "type": "address"
        },
        {
          "internalType": "address",
          "name": "quoter",
          "type": "address"
        },
        {
          "internalType": "bytes3",
          "name": "markings",
          "type": "bytes3"
        },
        {
          "internalType": "uint256",
          "name": "amountIn",
          "type": "uint256"
        },
        {
          "internalType": "bool",
          "name": "zeroForOne",
          "type": "bool"
        },
        {
          "internalType": "uint256",
          "name": "minAmountOut",
          "type": "uint256"
        },
        {
          "internalType": "bytes4",
          "name": "traderProtection",
          "type": "bytes4"
        },
        {
          "internalType": "bytes",
          "name": "permitData",
          "type": "bytes"
        }
      ],
      "name": "swapWithPermit",
      "outputs": [
        {
          "internalType": "uint256",
          "name": "amountOut",
          "type": "uint256"
        }
      ],
      "stateMutability": "payable",
      "type": "function"
    },
    {
      "inputs": [
        {
          "internalType": "address",
          "name": "asset0",
          "type": "address"
        },
        {
          "internalType": "address",
          "name": "asset1",
          "type": "address"
        },
        {
          "internalType": "address",
          "name": "quoter",
          "type": "address"
        },
        {
          "internalType": "bytes3",
          "name": "markings",
          "type": "bytes3"
        },
        {
          "internalType": "uint256",
          "name": "amountIn",
          "type": "uint256"
        },
        {
          "internalType": "bool",
          "name": "zeroForOne",
          "type": "bool"
        },
        {
          "internalType": "uint256",
          "name": "minAmountOut",
          "type": "uint256"
        },
        {
          "internalType": "bytes4",
          "name": "traderProtection",
          "type": "bytes4"
        }
      ],
      "name": "swapWithProtection",
      "outputs": [
        {
          "internalType": "uint256",
          "name": "amountOut",
          "type": "uint256"
        }
      ],
      "stateMutability": "payable",
      "type": "function"
    },
    {
      "inputs": [
        {
          "internalType": "uint256",
          "name": "poolID",
          "type": "uint256"
        }
      ],
      "name": "totalLiquidity",
      "outputs": [
        {
          "internalType": "uint256",
          "name": "",
          "type": "uint256"
        }
      ],
      "stateMutability": "view",
      "type": "function"
    },
    {
      "inputs": [
        {
          "internalType": "address",
          "name": "receiver",
          "type": "address"
        },
        {
          "internalType": "uint256",
          "name": "id",
          "type": "uint256"
        },
        {
          "internalType": "uint256",
          "name": "amount",
          "type": "uint256"
        }
      ],
      "name": "transfer",
      "outputs": [
        {
          "internalType": "bool",
          "name": "",
          "type": "bool"
        }
      ],
      "stateMutability": "nonpayable",
      "type": "function"
    },
    {
      "inputs": [
        {
          "internalType": "address",
          "name": "sender",
          "type": "address"
        },
        {
          "internalType": "address",
          "name": "receiver",
          "type": "address"
        },
        {
          "internalType": "uint256",
          "name": "id",
          "type": "uint256"
        },
        {
          "internalType": "uint256",
          "name": "amount",
          "type": "uint256"
        }
      ],
      "name": "transferFrom",
      "outputs": [
        {
          "internalType": "bool",
          "name": "",
          "type": "bool"
        }
      ],
      "stateMutability": "nonpayable",
      "type": "function"
    }
  ],
  "bytecode": "0x6101006040523461026357604051601f61626538819003918201601f19168301916001600160401b03831184841017610267578084926080946040528339810103126102635761004e8161029a565b9061005b6020820161029a565b610073606061006c6040850161029a565b930161029a565b9260805260a05260c05260e05261008861027b565b600281526001602082018190526040909101526018805462ffffff1916620101021790556100b461027b565b600581526002602082015260016040909101526019805462ffffff1916620102051790556100e061027b565b600a8152600360208201526001604090910152601a805462ffffff19166201030a17905561010c61027b565b60148152600560208201526001604090910152601b805462ffffff19166201051417905561013861027b565b5f80825260208201819052604090910152601c805462ffffff1916905561015d61027b565b5f80825260208201819052604090910152601d805462ffffff1916905561018261027b565b60328152600a60208201525f604091820152601e805462ffffff1916610a321790556025805461ffff65ffffffffffff60b01b0119166219007d60b21b17905551615fb690816102af8239608051818181610b7e0152818161278e01528181612dc2015281816134170152613925015260a051818181610c43015281816127c301528181612df70152818161344d015261395b015260c0518181816103a0015281816127fe01528181612e2d015281816134880152613996015260e051818181610b3a0152818161283901528181612e61015281816134b701526139cd0152f35b5f80fd5b634e487b7160e01b5f52604160045260245ffd5b60405190606082016001600160401b0381118382101761026757604052565b51906001600160a01b03821682036102635756fe60806040526004361015610011575f80fd5b5f3560e01c8062fdd58e1461029957806301ffc9a714610294578063091f15b01461028f578063095bcdb61461028a5780630d5f74d51461028557806321e243841461020857806326e34a4e146102805780632f380b351461027b578063314e23211461027657806331b4ae17146102715780633d465aae1461026c578063426a84931461026757806346fe6514146102625780634dbb4c5e1461025d578063558a7297146102585780635670f55a1461025357806357c9a5fd1461024e578063598af9e7146102495780635b298d32146102445780635b7499b51461023f5780635dfb78af1461023a578063663871401461023557806378a8317f1461023057806378f90e6f1461022b57806394756e9b146102265780639d2ec6e414610221578063a465ba0f1461021c578063a74713cf1461021c578063ab62c09414610217578063b5e60c3c14610212578063b6363cf21461020d578063bdf48f8e14610208578063cb1f2f3814610203578063cc489582146101fe578063d92bc84c146101f9578063de87396c146101f4578063e11ba51e146101ef578063e513315b146101ea578063ea157acf146101e5578063f9158ee5146101e05763fe99049a146101db575f80fd5b612222565b61217a565b612010565b611ce6565b611cb0565b611bbb565b611b45565b611abf565b6117d1565b61088e565b611789565b61173a565b6116df565b6116c8565b6114c2565b61141f565b611393565b611336565b6112f2565b611226565b611138565b611101565b611094565b611000565b610d95565b610cf9565b610c72565b610c2e565b610bad565b610b69565b610b25565b610ad0565b610969565b6108c5565b6106e1565b6103f2565b61038b565b610335565b6102c0565b6001600160a01b038116036102af57565b5f80fd5b35906102be8261029e565b565b346102af5760403660031901126102af576004356102dd8161029e565b6024359060018060a01b03165f52600160205260405f20905f52602052602060405f2054604051908152f35b60e435906001600160e01b0319821682036102af57565b35906001600160e01b0319821682036102af57565b346102af5760203660031901126102af5760043563ffffffff60e01b81168091036102af576020906301ffc9a760e01b811490811561037a575b506040519015158152f35b630f632fb360e01b1490505f61036f565b346102af575f3660031901126102af576040517f00000000000000000000000000000000000000000000000000000000000000006001600160a01b03168152602090f35b60609060031901126102af576004356103e78161029e565b906024359060443590565b346102af57610400366103cf565b9091335f52600160205260405f20835f5260205260405f20805490838203918211610491575560018060a01b031690815f52600160205261044c8360405f20905f5260205260405f2090565b6104578282546123fb565b9055604080513380825260208201939093525f516020615f615f395f51905f5291819081015b0390a46040516001815280602081015b0390f35b6123cc565b634e487b7160e01b5f52604160045260245ffd5b608081019081106001600160401b038211176104c557604052565b610496565b90601f801991011681019081106001600160401b038211176104c557604052565b604051906102be60e0836104ca565b604051906102be6080836104ca565b604051906102be610100836104ca565b6001600160401b0381116104c55760051b60200190565b92919061053c81610519565b9361054a60405195866104ca565b602085838152019160051b81019283116102af57905b82821061056c57505050565b8135815260209182019101610560565b9080601f830112156102af5781602061059793359101610530565b90565b801515036102af57565b35906102be8261059a565b6001600160e81b03198116036102af57565b9291906105cd81610519565b936105db60405195866104ca565b602085838152019160051b81019283116102af57905b8282106105fd57505050565b60208091833561060c816105af565b8152019101906105f1565b9080601f830112156102af57816020610597933591016105c1565b91909160e0818403126102af576106476104eb565b92610651826102b3565b845261065f602083016102b3565b6020850152610670604083016102b3565b604085015260608201356001600160401b0381116102af578161069491840161057c565b60608501526106a5608083016105a4565b608085015260a0820135916001600160401b0383116102af576106cf60c0926106da948301610617565b60a086015201610320565b60c0830152565b346102af5760803660031901126102af576004356001600160401b0381116102af57610711903690600401610632565b602435906001600160801b03821682036102af576044356001600160801b03811681036102af5761074e92606435926107498461029e565b6125a2565b60408051928352602083019190915290f35b9080601f830112156102af5781359061077882610519565b9261078660405194856104ca565b82845260208085019360051b8201019182116102af57602001915b8183106107ae5750505090565b82356001600160801b03811681036102af578152602092830192016107a1565b60606003198201126102af576004356001600160401b0381116102af57816107f891600401610632565b916024356001600160401b0381116102af578261081791600401610760565b91604435906001600160401b0382116102af5761059791600401610760565b90602080835192838152019201905f5b8181106108535750505090565b8251845260209384019390920191600101610846565b909161088061059793604084526040840190610836565b916020818403910152610836565b346102af576108a561089f366107ce565b91613222565b9061048d60405192839283610869565b6004359060ff821682036102af57565b346102af5760403660031901126102af576108de6108b5565b6024356108ea8161029e565b6028546001600160a01b03163303610934576109218261091c60ff610926951660048110159081610928575b50612949565b612984565b613e22565b005b600f915011155f610916565b60405162461bcd60e51b815260206004820152600d60248201526c13db9b1e481c1c9bdd1bd8dbdb609a1b6044820152606490fd5b346102af5760203660031901126102af576004355f606060405161098c816104aa565b82815282602082015282604082015201525f52601160205260405f20604051906109b5826104aa565b80546001600160a01b0390811680845260018301548216602085018190526002909301549182166040850181905260489290921b6001600160e81b031916606094909401849052909261048d91610a2c90610a1e90610a119081565b956001600160a01b031690565b916001600160e81b03191690565b604080516001600160a01b039586168152958516602087015291909316908401526001600160e81b0319909116606083015281906080820190565b9181601f840112156102af578235916001600160401b0383116102af576020808501948460051b0101116102af57565b60206040818301928281528451809452019201905f5b818110610aba5750505090565b8251845260209384019390920191600101610aad565b346102af5760403660031901126102af57600435610aed8161029e565b6024356001600160401b0381116102af5761048d91610b13610b19923690600401610a67565b916129ba565b60405191829182610a97565b346102af575f3660031901126102af576040517f00000000000000000000000000000000000000000000000000000000000000006001600160a01b03168152602090f35b346102af575f3660031901126102af576040517f00000000000000000000000000000000000000000000000000000000000000006001600160a01b03168152602090f35b346102af57610bbb366103cf565b9091335f526002602052610be28160405f209060018060a01b03165f5260205260405f2090565b835f526020528160405f205560405191825260018060a01b0316907fb3fd5071835887567a0671151121894ddccc2842f1d10bedad13e0d17cace9a760203392a4602060405160018152f35b346102af575f3660031901126102af576040517f00000000000000000000000000000000000000000000000000000000000000006001600160a01b03168152602090f35b6101203660031901126102af57600435610c8b8161029e565b602435610c978161029e565b60443591610ca48361029e565b606435610cb0816105af565b60843560a435610cbf8161059a565b60c4359160e435936001600160401b03851685036102af5761048d97610ce9976101043597612a30565b6040519081529081906020820190565b346102af5760403660031901126102af57600435610d168161029e565b60243590610d238261059a565b335f908152602081815260408083206001600160a01b038516845290915290209115159160ff1981541660ff841617905560405191825260018060a01b0316907fceb576d9f15e4e200fdb5096d64d5dfd667e16def20c1eefd14256d8e3faa26760203392a360405160018152602090f35b346102af5760803660031901126102af57600435610db28161029e565b602435610dbe8161029e565b604435610dca8161029e565b60643592610dd7846105af565b610de7610de2613eaa565b613eed565b610df384838584613bf8565b9260018060a01b03610e206002610e12875f52601160205260405f2090565b01546001600160a01b031690565b16610fec5761048d94610f7c93909285927f68df9a4eb7aacbe8f43763bfbc9f7ca135a5397190ea1cce2558db52dc2f3692929190856001600160a01b038083169084161015610fe157610f6e91935b610f32610e7b6104fa565b6001600160a01b03861681526001600160a01b03871660208201526001600160a01b03831660408201526001600160e81b031984166060820152610ec7895f52601160205260405f2090565b815181546001600160a01b03199081166001600160a01b039283161783556020840151600184018054909216908316179055604083015160029092018054606090940151929091166001600160b81b03199093169290921760489190911c62ffffff60a01b16179055565b604080516001600160a01b03958616815295851660208701529316928401929092526001600160e81b0319909116606083015281906080820190565b0390a2600160f81b16151590565b610f9b575b5f610f8a613eaa565b5d6040519081529081906020820190565b602854610fc390610fbc906001600160a01b03165b6001600160a01b031690565b3314612ae6565b610fdc815f52602660205260405f2060ff198154169055565b610f81565b610f6e919293610e70565b63e1ecc13360e01b5f52600484905260245ffd5b6101003660031901126102af5761107f60043561101c8161029e565b6024356110288161029e565b6044356110348161029e565b606435611040816105af565b60843560a435916110508361059a565b60c4359361105c610309565b95611068610de2613eaa565b6040519761107760208a6104ca565b5f895261430d565b5f611088613eaa565b5d604051908152602090f35b346102af5760603660031901126102af576004356110b18161029e565b6110ec6024356110c08161029e565b6044359260018060a01b03165f52600260205260405f209060018060a01b03165f5260205260405f2090565b905f52602052602060405f2054604051908152f35b346102af5760203660031901126102af5760406001600160801b0361112760043561449c565b835191831682529091166020820152f35b346102af5760203660031901126102af5760043563ffffffff431690805f52601560205260405f208263ffffffff198254161790556040519182527ff76330af9ed35739f4663e9f2c2726c5c60a98c86b8e6c087b0b54d818c0099b60203393a3005b9181601f840112156102af578235916001600160401b0383116102af57602083818601950101116102af57565b9060606003198301126102af576004356111e18161029e565b916024356001600160401b0381116102af57816112009160040161119b565b92909291604435906001600160401b0382116102af5761122291600401610a67565b9091565b61122f366111c8565b93916112396144ba565b9261124384613eed565b600161124f3330614ed4565b5d61125933614523565b6001600160a01b031693843b156102af57604051631c6e724760e31b8152915f9183916112899160048401612b42565b95818381819903925af180156112ed576112cf575b5082936112b16112b79234923691612b69565b33614601565b6112bf614699565b5f6112ca3330614ed4565b5d5d80f35b6112b7919350936112e35f6112b1966104ca565b5f9391509361129e565b612597565b346102af5760203660031901126102af5760043561130f8161029e565b60018060a01b03165f52601660205260206001600160401b0360405f205416604051908152f35b346102af5760203660031901126102af5761134f6108b5565b6029546001600160a01b03163314801561137f575b61136d90612bbf565b60ff8019602754169116176027555f80f35b506028546001600160a01b03163314611364565b6101203660031901126102af576004356113ac8161029e565b602435906113b98261029e565b604435916113c68361029e565b606435916113d3836105af565b60843560a4356113e28161059a565b60c435906113ee610309565b9261010435966001600160401b0388116102af5761048d98611417610ce999369060040161119b565b989097612bfc565b346102af5760403660031901126102af5760043561143c8161029e565b60243561ffff8116918282036102af57601280546001600160a01b0319166001600160a01b0383161790557f42bc0dce68a76f2cb7882e7da1060360603348ede3c834d9239472d409103ef8926040926012805461ffff60a01b191660a09290921b61ffff60a01b1691909117905582516001600160a01b0390921682526020820152a1005b60603660031901126102af576004356001600160401b0381116102af576114ed903690600401610a67565b604435916024356114ff610de2613eaa565b6115076146e8565b906001600160a01b0382161561166b575b831561165c579261153460a061152e8386614732565b0161476f565b156116475761154b6115468285614732565b6129b0565b925b61156560a061152e61155e856123e0565b858561474d565b1561162a57611581602061157b61155e856123e0565b016129b0565b91905b5f915b8083106115ea575050506115a361159e8330614ed4565b5c1590565b6115d7575b5050508181106115bf5761048d905f610f8a613eaa565b63d438755d60e01b5f5260049190915260245260445ffd5b6115e2923492615257565b5f80806115a8565b90919561161c600191866115ff8a868861474d565b918a1561160b876123e0565b8c14918115611625575b309461553c565b96019190611587565b611615565b611640611546611639846123e0565b848461474d565b9190611584565b611656602061157b8386614732565b9261154d565b63145dbb4560e21b5f5260045ffd5b339150611518565b60606003198201126102af57600435906001600160401b0382116102af5761169d91600401610632565b906024356001600160801b03811681036102af57906044356001600160801b03811681036102af5790565b346102af5761074e6116d936611673565b91612c78565b346102af5760403660031901126102af5760043560243560ff811681036102af576109269160018060a01b036029541633148015611726575b61172190612bbf565b614791565b506028546001600160a01b03163314611718565b346102af5760203660031901126102af576004355f52600f602052602060405f2054604051908152f35b60409060031901126102af5760043561177c8161029e565b906024356105978161029e565b346102af57602060ff6117c561179e36611764565b6001600160a01b039182165f90815280865260408082209290931681526020919091522090565b54166040519015158152f35b346102af5760a03660031901126102af576004356117ee8161029e565b602435906117fb8261029e565b604435916118088361029e565b606435611814816105af565b60843593611823610de2613eaa565b8415611ab05761184261183b83611846938688613bf8565b8093614949565b1590565b611aa1576118538161449c565b61187061186b849593955f52600f60205260405f2090565b541590565b611a925761188961188f916001600160801b039561498d565b836149e4565b6118e06118ce846118c66118ad6118a58761449c565b98168a6136e7565b6118bf875f52600f60205260405f2090565b54906136fa565b9516876136e7565b6118bf845f52600f60205260405f2090565b93831580611a8a575b611a71576119f29394956118fb6146e8565b906001600160a01b03821615611a69575b611917818684614ce8565b61193461192c865f52600f60205260405f2090565b9182546123ee565b905561196a61194e6001600160801b038816600f0b613718565b6119636001600160801b038a16600f0b613718565b9086614d67565b6001600160a01b0383811690831610916119ab908315611a5d576119a488958a925b8615611a565780965b15611a4e5750955b8585614dbd565b8483614dbd565b6119b861159e8230614ed4565b611a0d575b5050506119c98161449c565b916001600160801b03809392825f5260136020521660405f20555f5260146020521660405f2055565b5f6119fb613eaa565b5d604080519182526020820192909252f35b611a41611a4693611a38611a1f613738565b94611a2986612408565b6001600160a01b039091169052565b611a2984612415565b61456c565b5f80806119bd565b90509561199d565b8196611995565b6119a48995899261198c565b33915061190c565b63d5de620560e01b5f526004849052602485905260445ffd5b5084156118e9565b63c303013160e01b5f5260045ffd5b63636280a760e01b5f5260045ffd5b6394240c0560e01b5f5260045ffd5b346102af5760803660031901126102af576004356001600160401b0381116102af57611aef903690600401610632565b6024356001600160401b0381116102af57611b0e903690600401610760565b90604435916001600160401b0383116102af57611b326108a5933690600401610760565b9060643592611b408461029e565b61375a565b60e03660031901126102af5761107f600435611b608161029e565b602435611b6c8161029e565b604435611b788161029e565b606435611b84816105af565b6084359060a43592611b958461059a565b60c43594611ba4610de2613eaa565b60405196611bb36020896104ca565b5f8852614098565b346102af57611bc936611764565b6028546001600160a01b0316611c485761092691611c19906001600160a01b038116151580611c36575b611bfc90613b62565b60018060a01b03166001600160601b0360a01b6028541617602855565b60018060a01b03166001600160601b0360a01b6029541617602955565b506001600160a01b0383161515611bf3565b60405162461bcd60e51b815260206004820152601660248201527511dbdd995c9b985b98d948185b1c9958591e481cd95d60521b6044820152606490fd5b634e487b7160e01b5f52603260045260245ffd5b600c811015611cab57600301905f90565b611c86565b346102af5760203660031901126102af57600435600c8110156102af57600301546040516001600160a01b039091168152602090f35b60c03660031901126102af57600435611cfe8161029e565b602435611d0a8161029e565b604435611d168161029e565b60643592611d23846105af565b6084359060a43593611d36610de2613eaa565b611d4286858385613bf8565b92611d506118428589614949565b611aa1576001600160a01b038281169084161092831561200a5791925b156120045794905b611d7e8461449c565b819691968199611d96885f52600f60205260405f2090565b54611ef8575050505085151580611eef575b15611ee057611dec610f81958561048d99611dcb86611dc68c61369f565b6136fa565b925b611ddf835f52600f60205260405f2090565b54611ec4575b868b614dd0565b95611df56146e8565b926001600160a01b03841615611ebc575b906001600160801b0380611e4993611e27611e2085613ba2565b8789614dbd565b611e3a611e3382613ba2565b8989614dbd565b16600f0b9116600f0b86614d67565b611e54868584614e7b565b611e66845f52600f60205260405f2090565b611e718782546123fb565b9055611e8061159e8330614ed4565b611e90575050506119c98161449c565b611eb5611a4693611eac611ea2613738565b93611a2985612408565b611a2983612415565b3491614601565b339350611e06565b505081611ed0916149e4565b85611eda8161449c565b90611de5565b630726b13f60e41b5f5260045ffd5b50811515611da8565b611f0a83839c95969798999a9c61498d565b948515611f2c575b505050508594939291610f8196611dec9261048d9a611dcd565b86955088979691611fc5611fda969b9a670de0b6b3a7640000611fbe611fd595611f9e611f57613015565b91611f8e611f63613015565b96611f7e611f6f6104eb565b6001600160a01b03909d168d52565b6001600160a01b031660208c0152565b6001600160a01b031660408a0152565b606088019081525f608089015260a088019384525f60c089015251612408565b5251612408565b6001600160e81b03199091169052565b612c78565b50948515611ff5579394929391929091878682610f81611f12565b6314033f2160e11b5f5260045ffd5b90611d75565b92611d6d565b612019366111c8565b5f9493919294916120286144ba565b9461203286613eed565b600161203e3330614ed4565b5d61204833614523565b6001600160a01b031695863b156102af5761207c965f9283604051809a81958294631c6e724760e31b845260048401612b42565b03925af19485156112ed5761048d956120ca575b506120ab91926120a5346112b1368585612b69565b336129ba565b916120b4614699565b6120bd336146dd565b5d60405191829182610a97565b6120ab92505f6120d9916104ca565b5f91612090565b6001600160401b0381116104c557601f01601f191660200190565b929192612107826120e0565b9161211560405193846104ca565b8294818452818301116102af578281602093845f960137010152565b805180835260209291819084018484015e5f828201840152601f01601f1916010190565b909161216c61059793604084526040840190612131565b916020818403910152612131565b346102af5760203660031901126102af576004356001600160401b0381116102af57366023820112156102af576121bb9036906024816004013591016120fb565b8051810190604081602084019303126102af5760208101516001600160401b0381116102af578260206121f092840101613bb2565b916040820151916001600160401b0383116102af576122129201602001613bb2565b9061048d60405192839283612155565b346102af5760803660031901126102af5760043561223f8161029e565b60243561224b8161029e565b604435915f516020615f615f395f51905f5261047d606435936001600160a01b038416936122ad9087906122a090338814158061239c575b61230c576001600160a01b03165f90815260016020526040902090565b905f5260205260405f2090565b6122b88682546123ee565b90556001600160a01b0381165f9081526001602052604090206122dc9087906122a0565b6122e78682546123fb565b90556040805133815260208101969096526001600160a01b0390911694918291820190565b612343836122a03361232e8560018060a01b03165f52600260205260405f2090565b9060018060a01b03165f5260205260405f2090565b548960018201612369575b50506001600160a01b03165f90815260016020526040902090565b612372916123ee565b612394846122a03361232e8660018060a01b03165f52600260205260405f2090565b555f8961234e565b506123c76118426123c03361232e8560018060a01b03165f525f60205260405f2090565b5460ff1690565b612283565b634e487b7160e01b5f52601160045260245ffd5b5f1981019190821161049157565b9190820391821161049157565b9190820180921161049157565b805115611cab5760200190565b805160011015611cab5760400190565b8051821015611cab5760209160051b010190565b91909160c08060e083019460018060a01b03815116845260018060a01b03602082015116602085015260408101516040850152606081015160608501526080810151608085015260a081015160a085015201511515910152565b604051906124a26020836104ca565b5f8252565b926124d361059795936124c56124e194608088526080880190612131565b908682036020880152612131565b908482036040860152612131565b916060818403910152612131565b908160209103126102af575190565b80516001600160a01b03908116835260208083015182169084015260408083015190911690830152606080820151908301526080808201516001600160801b0316908301526102be919060e090819060a0818101516001600160801b03169085015260c08181015161ffff169085015201511515910152565b806125896101209261059795946124fe565b816101008201520190612131565b6040513d5f823e3d90fd5b93929360a0810194600160e81b6125ca6125bc8851612408565b516001600160e81b03191690565b166125db5750611222939450612c78565b8151929390929091906001600160a01b03166020820180519092906001600160a01b0316604082018051909391906001600160a01b03168a5161261d90612408565b516001600160e81b0319169161263293613bf8565b975161263d90612408565b516001600160e81b03191661265190613cb0565b935a61265d8730614ed4565b5c906126676104eb565b6001600160a01b0390981688523260208901524360408901524260608901523a608089015260a0880152151560c0870152604051809660208201906126ab91612439565b03601f19810187526126bd90876104ca565b81516001600160a01b031693516001600160a01b031692516001600160a01b03169660608301516126ed90612408565b51608087015161ffff16608090940151151594612708610509565b6001600160a01b0390971687526001600160a01b031660208701526001600160a01b03909816604086019081529760608601526001600160801b031660808501526001600160801b031660a084015261ffff1660c0830152151560e0820152815115155f14610fb0610fb06128c4966128996020976128a6956129385761288b6127b2887f0000000000000000000000000000000000000000000000000000000000000000613d90565b915b898b01511561292a576127e7897f0000000000000000000000000000000000000000000000000000000000000000613d90565b995b6040810151156129175761282b60606128228c7f0000000000000000000000000000000000000000000000000000000000000000613d90565b925b0151151590565b156129075761287d61285d8b7f0000000000000000000000000000000000000000000000000000000000000000613d90565b61286f604051948f9286938401612155565b03601f1981018452836104ca565b6040519a8b948d86016124a7565b03601f1981018852876104ca565b516001600160a01b031690565b905f6040518096819582946305e3344d60e41b845260048401612577565b03925af19081156112ed575f916128da57509190565b6128fc915060203d602011612900575b6128f481836104ca565b8101906124ef565b9190565b503d6128ea565b61287d612912612493565b61285d565b61282b6060612924612493565b92612824565b612932612493565b996127e9565b61288b612943612493565b916127b4565b1561295057565b60405162461bcd60e51b815260206004820152600c60248201526b125b9d985b1a59081cdb1bdd60a21b6044820152606490fd5b60ff6003199116019060ff821161049157565b9015611cab5790565b9190811015611cab5760051b0190565b356105978161029e565b9291926129c684610519565b906129d460405192836104ca565b848252601f196129e386610519565b0136602084013781945f5b8181106129fc575050505050565b80612a1e612a0d60019385896129a0565b35612a178161029e565b8530614f36565b5c612a298287612425565b52016129ee565b96612aca90612ad999612a44610de2613eaa565b604080516001600160a01b038c81166020830190815287821693830193909352871660608201526001600160e81b03198816608082015260a0810189905289151560c082015260e081018b90526001600160401b03841661010082015233610120820152916101408301526101408252612ac0610160836104ca565b3391519020613f48565b50612ad3612493565b96614098565b905f612ae3613eaa565b5d565b15612aed57565b60405162461bcd60e51b815260206004820152602760248201527f4f6e6c792070726f746f636f6c2063616e206372656174652070726f746f636f6044820152666c20706f6f6c7360c81b6064820152608490fd5b90918060409360208452816020850152848401375f828201840152601f01601f1916010190565b929190612b7581610519565b93612b8360405195866104ca565b602085838152019160051b81019283116102af57905b828210612ba557505050565b602080918335612bb48161029e565b815201910190612b99565b15612bc657565b60405162461bcd60e51b815260206004820152600e60248201526d4f6e6c7920656d657267656e637960901b6044820152606490fd5b97612c1790612ad99a612c10610de2613eaa565b36916120fb565b9761430d565b93906105979593612c4e612c6a94612c40612c5c9460a08a5260a08a0190612131565b9088820360208a0152612131565b908682036040880152612131565b908482036060860152612131565b916080818403910152612131565b80519092906001600160a01b03166020840180516001600160a01b0316604086018051919390916001600160a01b03169360a08801948551612cb990612408565b516001600160e81b03191691612cce93613bf8565b958351612cda90612408565b516001600160e81b031916612cee90613cb0565b81519095906001600160a01b031693516001600160a01b031692516001600160a01b0316966060830151612d2190612408565b51608088015161ffff16608090940151151594612d3c610509565b6001600160a01b0390971687526001600160a01b031660208701526001600160a01b03909816604086019081529760608601526001600160801b031660808501526001600160801b031660a084015261ffff1660c0830152151560e0820152825115155f14610fb0610fb0612f50966128996020976128a6956130045761288b612de6887f0000000000000000000000000000000000000000000000000000000000000000613d90565b915b808b015115612ff657612e1b897f0000000000000000000000000000000000000000000000000000000000000000613d90565b995b604082015115612fe957612e518a7f0000000000000000000000000000000000000000000000000000000000000000613d90565b606083015115612fdb57612e858b7f0000000000000000000000000000000000000000000000000000000000000000613d90565b915b8b612e9e60a0612e95612493565b96015160ff1690565b600460ff82161015612f92575b5050612ebf6125bc600160e81b9251612408565b1615612f8157612f42612f1f612f2d5a612f10612edc3330614ed4565b5c612ee56104eb565b338152925b3260208501524360408501524260608501523a608085015260a0840152151560c0830152565b60405192839160208301612439565b03601f1981018352826104ca565b925b61286f6040519460209286938401612155565b6040519b8c958e8701612c1d565b03925af19081156112ed575f91612f65575091565b612f7e915060203d602011612900576128f481836104ca565b91565b612f42612f8c612493565b92612f2f565b612f9b90612984565b600c60ff82161015612eab57612fd3929550612fb9612fce91611c9a565b905460039190911b1c6001600160a01b031690565b613d90565b928b5f612eab565b612fe3612493565b91612e87565b612ff1612493565b612e51565b612ffe612493565b99612e1d565b61288b61300f612493565b91612de8565b6040805190919061302683826104ca565b6001815291601f1901366020840137565b9061304182610519565b61304e60405191826104ca565b828152809261305f601f1991610519565b0190602036910137565b9080601f830112156102af57815161308081610519565b9261308e60405194856104ca565b81845260208085019260051b8201019283116102af57602001905b8282106130b65750505090565b81518152602091820191016130a9565b906020828203126102af5781516001600160401b0381116102af576105979201613069565b90602080835192838152019201905f5b8181106131085750505090565b82516001600160801b03168452602093840193909201916001016130fb565b90602080835192838152019201905f5b8181106131445750505090565b825161ffff16845260209384019390920191600101613137565b604080825282516001600160a01b031690820152610597929060208301516001600160a01b0316606082015260408301516001600160a01b0316608082015261321560e06132086131f16131dc6131c6606089015161010060a0890152610140880190610836565b6080890151878203603f190160c08901526130eb565b60a0880151868203603f1901858801526130eb565b60c0870151858203603f1901610100870152613127565b9401511515610120830152565b6020818403910152612131565b90929160a0820193613235855151613037565b91613241865151613037565b5061324d865151613037565b9561326361325e6125bc8351612408565b613cb0565b955f5b825180518210156132ea57906132e46132d160806132c88b8b6132c2876132bc6132956125bc8360019d612425565b85516020870151604090970151919687926001600160a01b03908116929181169116613bf8565b92612425565b52613cb0565b015161ffff1690565b6132db838d612425565b9061ffff169052565b01613266565b50508551929791969095909390926001600160a01b03166020840180519194909390916001600160a01b0316604083018051909b919291906001600160a01b03169460608501516080860196875161334190151590565b9561334a610509565b6001600160a01b03909b168b526001600160a01b031660208b01526001600160a01b031660408a01526060890152608088015260a087015260c0860152151560e0850152516001600160a01b031691516001600160a01b031688519091906001600160a01b031690511515916133be610509565b6001600160a01b0390941684526001600160a01b031660208401526001600160a01b031660408301525f606083018190526080830181905260a0830181905260c0830152151560e0820152825115613690578561343b827f0000000000000000000000000000000000000000000000000000000000000000614894565b915b60208501511561368257613471817f0000000000000000000000000000000000000000000000000000000000000000614894565b945b604081015115613675576134ac6060612822847f0000000000000000000000000000000000000000000000000000000000000000614894565b15613667576134db827f0000000000000000000000000000000000000000000000000000000000000000614894565b915b61350260a06134fa61325e6125bc6134f3612493565b9851612408565b015160ff1690565b600460ff82161015613633575b50505f5f5b8a51805182101561360f57613543906135356125bc84600160e81b93612425565b166001600160e81b03191690565b61354f57600101613514565b50505f969850986128996135b09461288b610fb095610fb0956135cd9c9e60015b8d146135fe576135a1612f1f61358d5a612f10612edc3330614ed4565b925b61286f60405194859260208401612155565b6040519b8c9560208701612c1d565b908360405180968195829462db90d160e81b84526004840161315e565b03925af19081156112ed575f916135e2575091565b612f7e91503d805f833e6135f681836104ca565b8101906130c6565b6135a1613609612493565b9261358f565b50505f9799506135b09461288b610fb095610fb0956135cd9c9e9561289995613570565b61363c90612984565b600c60ff8216101561350f5761365f929450612fb961365a91611c9a565b614894565b915f8061350f565b61366f612493565b916134dd565b6134ac6060612924612493565b61368a612493565b94613473565b85613699612493565b9161343d565b90670de0b6b3a7640000820291808304670de0b6b3a7640000149015171561049157565b9067120a871cc002000082029180830467120a871cc0020000149015171561049157565b8181029291811591840414171561049157565b8115613704570490565b634e487b7160e01b5f52601260045260245ffd5b600f0b6f7fffffffffffffffffffffffffffffff198114610491575f0390565b6040516060919061374983826104ca565b6002815291601f1901366020840137565b909391935f935f5b60a08401518051821015613b5757613786906135356125bc84600160e81b93612425565b61379257600101613762565b50909192935060015b15613b4b5760a08301936137b0855151613037565b926137bc865151613037565b955f5b815180518210156137fe57906137f86137ee60806132c88b8b6132c2876132bc6132956125bc8360019d612425565b6132db838c612425565b016137bf565b505092966138556138479597929693986138385a61381c8330614ed4565b5c90612eea6138296104eb565b6001600160a01b039095168552565b60405196879160208301612439565b03601f1981018752866104ca565b82516001600160a01b0316602084018051909791906001600160a01b03169061390f61325e6125bc60408901996139096138958c5160018060a01b031690565b966138e660808d01986138d66138ab8b51151590565b936138c66138b7610509565b6001600160a01b03909c168c52565b6001600160a01b031660208b0152565b6001600160a01b03166040890152565b5f60608801525f60808801525f60a08801525f60c088015260e087019015159052565b51612408565b9761391a8951151590565b15613b3d57613949827f0000000000000000000000000000000000000000000000000000000000000000614894565b905b60208a015115613b2f5761397f837f0000000000000000000000000000000000000000000000000000000000000000614894565b925b60408b015115613b1c576139c260606139ba837f0000000000000000000000000000000000000000000000000000000000000000614894565b9c0151151590565b15613b0d576139f1907f0000000000000000000000000000000000000000000000000000000000000000614894565b905b604051918291613a069160208401612155565b03601f1981018252613a1890826104ca565b604051998a93613a2b93602086016124a7565b03601f1981018852613a3d90886104ca565b84516001600160a01b031697516001600160a01b031686519095906001600160a01b03166060909101519151151595613a74610509565b6001600160a01b03909a168a526001600160a01b031660208a01526001600160a01b031660408901526060880152608087015260a086015260c0850152151560e0840152516001600160a01b03166001600160a01b03166001600160a01b031660405162db90d160e81b815292909183918291613af4916004840161315e565b03815a5f948591f19081156112ed575f916135e2575091565b50613b16612493565b906139f3565b6139c26060613b29612493565b9c612824565b613b37612493565b92613981565b613b45612493565b9061394b565b50611222929391613222565b50509091929361379b565b15613b6957565b60405162461bcd60e51b8152602060048201526011602482015270496e76616c69642061646472657373657360781b6044820152606490fd5b600160ff1b8114610491575f0390565b81601f820112156102af57805190613bc9826120e0565b92613bd760405194856104ca565b828452602083830101116102af57815f9260208093018386015e8301015290565b9092906001600160a01b038085169082161015613c6a5792915b6040516bffffffffffffffffffffffff19606095861b81166020830190815294861b811660348301529190941b1660488401526001600160e81b031916605c830152603f825290613c64605f826104ca565b51902090565b91613c12565b6040519060c082018281106001600160401b038211176104c5576040525f60a0838281528260208201528260408201528260608201528260808201520152565b610597600f613d4f613cc0613c70565b9360e81c613cd5600182161515869015159052565b613cf8613cef600183811c627fffff165b1662ffffff1690565b15156020870152565b613d18613d0f6001600284901c623fffff16613ce6565b15156040870152565b613d38613d2f6001600384901c621fffff16613ce6565b15156060870152565b600481901c610fff16608086015260141c600f1690565b1660ff1660a0830152565b906020828203126102af5781516001600160401b0381116102af576105979201613bb2565b610100810192916102be91906124fe565b6001600160a01b038116908115613e17573b15613e0d575f9182916040518094818094633bd1104b60e01b8252613dcf600483016101008101926124fe565b03925af15f9181613de9575b506105975750610597612493565b613e069192503d805f833e613dfe81836104ca565b810190613d5a565b905f613ddb565b5050610597612493565b505050610597612493565b613e31600c60ff831610612949565b600c811015611cab5760030180546001600160a01b0319166001600160a01b03909216919091179055565b90604051613e69816104aa565b82546001600160a01b03908116825260018401548116602083015260029390930154928316604082015260489290921b6001600160e81b0319166060830152565b60405160208101907f626529a6be7cb2fb96a7ed93849b4ef74c980495dfe61fd514c95dcd9da51c3582523060601b604082015260348152613c646054826104ca565b805c6102af576001905d565b63ffffffff6101009116019063ffffffff821161049157565b63ffffffff60019116019063ffffffff821161049157565b6001600160401b036001911601906001600160401b03821161049157565b91613f69613f5f846015905f5260205260405f2090565b5463ffffffff1690565b63ffffffff811680156140895743111561407a57613f89613f9291613ef9565b63ffffffff1690565b431161406b576001600160a01b0382165f908152601660205260409020546001600160401b03166001600160401b0382160361405c57613ff761402991613ff2613fe5866015905f5260205260405f2090565b805463ffffffff19169055565b613f2a565b6001600160a01b0383165f908152601660205260409020906001600160401b03166001600160401b0319825416179055565b6001600160a01b0316907f5ed00d9781aaac5f5ab01a93ece28fca0f8ffe70c108140274d8fec00477ce805f80a3600190565b632071cf9f60e11b5f5260045ffd5b63586b1f3960e01b5f5260045ffd5b630376613560e51b5f5260045ffd5b63ea3c1a4f60e01b5f5260045ffd5b909192979694956140a76146e8565b956001600160a01b03871615614305575b600160e91b8a166142dd575b506140d189858585613bf8565b90620100008a60e81c16614293575b6140e98261449c565b818197929c8b8a6140f8613015565b614100613015565b926141096104eb565b6001600160a01b038c168152976001600160a01b038d1660208a01526001600160a01b03166040890152606088019182521515608088015260a087019283525f60c08801525b5161415990612408565b525161416490612408565b6001600160e81b0319909116905261417b92612c78565b50948515611ff557888661419092819d6151e5565b80851061427c5750614217939261421092614209926141f4906001600160a01b038085169084161015614275578a5b801561425a576001600160801b038a16600f0b905b15614247576141ee6001600160801b038916600f0b613718565b91614d67565b88156142405780985b15614238575094613ba2565b8686614dbd565b8284614dbd565b61422461159e8330614ed4565b61422d57505050565b6102be923492615257565b905094613ba2565b81986141fd565b6001600160801b038a16600f0b91614d67565b61426f6001600160801b038916600f0b613718565b906141d4565b8a156141bf565b63d438755d60e01b5f52600452602484905260445ffd5b60275460ff8116611aa15760081c62ffffff16156140e0576142c96142c36123c0845f52602660205260405f2090565b60ff1690565b156140e05763636280a760e01b5f5260045ffd5b6118426142ec91885f8d61503c565b6142f6575f6140c4565b6377bbcbed60e11b5f5260045ffd5b3396506140b8565b919584999896869892949695966143226146e8565b986001600160a01b038a1615614494575b898560e01c610100811661445b575b600160e91b8416614439575b50505061435d81838888613bf8565b93620100008260e81c166143e9575b6143758561449c565b98819e8a949293614384613015565b9061438d613015565b936143966104eb565b6001600160a01b038d168152986001600160a01b038e1660208b01526001600160a01b031660408a0152606089019283521515608089015260a088019384526001600160e01b03191660c088015261414f565b975095506027549560ff8716611aa1578b9762ffffff61440a8c9960081c90565b161561436c579650965061442c6142c36123c0855f52602660205260405f2090565b611aa1578a96899661436c565b61444b949a5083611842949a5061503c565b6142f657899588955f898161434e565b98506144779199506144706118429130614ed4565b5c89614fba565b614485578b97898b98614342565b630e85e06f60e21b5f5260045ffd5b339950614333565b5f52601060205260405f2054906001600160801b0382169160801c90565b60405160208101907f626529a6be7cb2fb96a7ed93849b4ef74c980495dfe61fd514c95dcd9da51c3582523060601b60408201527f88f108d443a200407df3d92fc06ed196d7b48635560cc21c3b1819792e11c1a7605482015260548152613c646074826104ca565b60405160208101907f507ba82850c15277b79bae90c6e97b66228a117b64d05e46b3182d141df61ce282523060601b6040820152603481526145666054826104ca565b5190205d565b8151915f5b83811061457e5750505050565b6001906001600160a01b036145938285612425565b51166145a0818630614f36565b5c806145af575b505001614571565b5f916145cf91838113156145d7576145c8908883615480565b8630614f36565b5d5f806145a7565b6145e36145f591613ba2565b821585146145fa5784905b89846153b1565b6145c8565b84906145ee565b90918251925f5b848110614616575050505050565b6001906001600160a01b0361462b8285612425565b5116614638818730614f36565b5c80614647575b505001614608565b5f91614667918381131561466f57614660908983615480565b8730614f36565b5d5f8061463f565b61467b61468d91613ba2565b821585146146925788905b8a846153b1565b614660565b8490614686565b5f60405160208101907f507ba82850c15277b79bae90c6e97b66228a117b64d05e46b3182d141df61ce282523060601b6040820152603481526145666054826104ca565b612ae35f9130614ed4565b60405160208101907f507ba82850c15277b79bae90c6e97b66228a117b64d05e46b3182d141df61ce282523060601b60408201526034815261472b6054826104ca565b5190205c90565b9015611cab5780359060be19813603018212156102af570190565b9190811015611cab5760051b8101359060be19813603018212156102af570190565b356105978161059a565b63ffffffff5f199116019063ffffffff821161049157565b906147a86123c0836026905f5260205260405f2090565b9060ff80821692169282841461488e576027549262ffffff6147ca8560081c90565b1694159015811580614887575b1561484a57505063ffffffff841661482f575b90614802614811925b6026905f5260205260405f2090565b9060ff1660ff19825416179055565b61482663ffffffff63ffffff00931660081b90565b91191617602755565b929061480261484061481193614779565b94919250506147ea565b8161487e575b50614863575b90614802614811926147f3565b929061480261487461481193613f12565b9491925050614856565b9050155f614850565b50806147d7565b50505050565b6001600160a01b0381168015613e1757813b15613e17576148b48261560b565b8051909390156148c5575b50505090565b604051633bd1104b60e01b815293505f9184918290849082906148eb9060048301613d7f565b03925af15f928161492d575b5061490e575050614906612493565b5f80806148bf565b81805161491d575b5050614906565b6149269161567e565b5f80614916565b6149429193503d805f833e613dfe81836104ca565b915f6148f7565b600160f81b16156149815760275460ff81166149875760081c62ffffff1615614981575f52602660205260ff8060405f205416161590565b50600190565b50505f90565b906001600160801b0316908115614987576001600160801b0316670de0b6b3a7640000810290808204670de0b6b3a76400001490151715610491570490565b81810392915f13801582851316918412161761049157565b601254909190614a026001600160a01b0382169160a01c61ffff1690565b906001600160a01b038116158015614cdc575b61488e575f848152601060205260409020546001600160801b0381169060801c9092614a5a614a4d876013905f5260205260405f2090565b546001600160801b031690565b916001600160801b03614a79614a4d896014905f5260205260405f2090565b951692831580614ccb575b614c98576001600160801b0380614aa081614aaa9416876149cc565b93169616866149cc565b915f8213801590614c8e575b614c845761ffff614af192614adf614ad18a614af9976136e7565b670de0b6b3a7640000900490565b80821015614c7c5750915b16906136e7565b612710900490565b928315614c7457614b16614b10614ad187846136e7565b836123fb565b8015614c6b577fe7c2742bfe08378628d04b12904afd6d2ba3e77d93558b70cc5b82b5e512156295614b61614b5c614b55614b7094611dc6888b6136e7565b80986123ee565b61369f565b9080614c6557506001906136fa565b91808511614c5b575b509081614c0f928211614c53575b50614bbe614ba06001600160801b038616600f0b613718565b614bb56001600160801b038416600f0b613718565b9088600f6156b2565b614bd9614bd4876011905f5260205260405f2090565b613e5c565b84614c36575b818481614c14575b50505060405193849384604091949392606082019560018060a01b0316825260208201520152565b0390a2565b60209290920151614c2e92906001600160a01b0316615480565b5f8184614be7565b8051614c4e90869086906001600160a01b0316615480565b614bdf565b90505f614b87565b9350614c0f614b79565b906136fa565b50505050505050565b505050505050565b905091614aea565b5050505050505050565b505f831315614ab6565b50505050505050614cc8815f614cb881946013905f5260205260405f2090565b556014905f5260205260405f2090565b55565b506001600160801b03821615614a84565b5061ffff821615614a15565b91909160018060a01b0316805f52600160205260405f20835f5260205260405f2080549083820391821161049157556040805133815260208101939093525f925f516020615f615f395f51905f5291819081015b0390a4565b90600f0b90600f0b019060016001607f1b0319821260016001607f1b0383131761049157565b9091815f5260106020526001600160801b03614d9a614d9060405f205495838716600f0b614d41565b928560801d614d41565b81199060801b16911617918203614daf575050565b5f52601060205260405f2055565b90614dc89130614f36565b90815c01905d565b92909394855f52600f60205260405f2054155f14614e0e57505050614df592506123fb565b905b8115614dff57565b63283eeadf60e01b5f5260045ffd5b909193614e2482670de0b6b3a7640000926136e7565b04830180931161049157614e4b670de0b6b3a7640000916001600160801b038094166136e7565b04921691820180921161049157614e6e614e7593600f905f5260205260405f2090565b5490615713565b90614df7565b91909160018060a01b031690815f52600160205260405f20835f5260205260405f2080549082820180921161049157556040805133815260208101929092525f915f516020615f615f395f51905f529181908101614d3c565b906040519060208201927fe88690b85c82523984f05d1f281684a73aa4d4303bca19cfe29aa89ae744616a84526001600160601b03199060601b1660408301526001600160601b03199060601b16605482015260488152613c646068826104ca565b916040519160208301937f71aa94563c1d78d77df681ad802fc1a81ea7d00cffe4bbe002400e1d66de80d285526001600160601b03199060601b1660408401526001600160601b03199060601b1660548301526001600160601b03199060601b166068820152605c8152613c64607c826104ca565b6008821015611cab5701905f90565b6101008116156150355760ff601f541661502157614fdd9060091c6007166142c3565b60ff81161561501d57614ff1906017614fab565b5080546150029060101c60ff161590565b61501d5761500f906157a4565b81615018575090565b905090565b5090565b508061502a5790565b50610597601b6157a4565b5050600190565b919291600160e91b16156151dd5760255460ff81166151bb5760081c60ff16615195575b6150796142c3620e000060ff9316617fff9060111c1690565b166001810361508d575061059791506157be565b600281036150ae575050325f908152602080526040902061059791506123c0565b600381036150d75750506001600160a01b03165f908152602160205260409020610597906123c0565b6004810361510d5750325f90815260208052604090209091506150f9906123c0565b9081615103575090565b61059791506157be565b6005810361513757506001600160a01b039091165f9081526021602052604090206150f9906123c0565b600614615145575050600190565b325f908152602080526040902061515b906123c0565b918261516c575b5081615103575090565b6001600160a01b03165f90815260216020526040902090915061518e906123c0565b905f615162565b325f90815260208052604090206151af90611842906123c0565b15615060575050505f90565b5050506001600160a01b03165f908152602160205260409020610597906123c0565b505050600190565b6001600160801b0392935f1461521857501690808210615203575050565b630173586760e01b5f5260045260245260445ffd5b90501690808210615227575050565b6368580a1960e01b5f5260045260245260445ffd5b9190915f838201938412911290801582169115161761049157565b9092615264848330614f36565b5c615270848430614f36565b5c916001600160a01b03858116929087168084146153395791816152d395935f6102be9a9694125f14615319576152a96152b892613ba2565b906153125782905b88876153b1565b5f8313156152d85750506152cd908486615480565b826154f1565b6154f1565b5f83126152e8575b5050506152cd565b6152f461530293613ba2565b9161530a57905b85876153b1565b5f80806152e0565b505f906152fb565b5f906152b1565b505f8113615328575b506152b8565b615333908786615480565b5f615322565b92506102be96959361534a9161523c565b925f84121561537657506153606152d393613ba2565b9161536e57905b83856153b1565b505f90615367565b92915050825f821361538b575b5050506154f1565b61539492615480565b5f8082615383565b908160209103126102af57516105978161059a565b9192916001600160a01b031690816153db575050036153cc57565b63a7adb78f60e01b5f5260045ffd5b91929092615471576040516323b872dd60e01b81526001600160a01b0390921660048301523060248301526044820152906020908290815f81606481015b03925af19081156112ed575f91615442575b501561543357565b633773869160e01b5f5260045ffd5b615464915060203d60201161546a575b61545c81836104ca565b81019061539c565b5f61542b565b503d615452565b63dc4087eb60e01b5f5260045ffd5b6001600160a01b0316806154ba57505f8080938193829082156154b0575b6001600160a01b031690f1156112ed57565b6108fc915061549e565b60405163a9059cbb60e01b81526001600160a01b0390921660048301526024820192909252906020908290815f8160448101615419565b5f91612ae39130614f36565b903590601e19813603018212156102af57018035906001600160401b0382116102af57602001918160051b360383136102af57565b35610597816105af565b94939291906060860161554f81886154fd565b9050156155fc5761556360808801886154fd565b905061556f82896154fd565b919050036155ed57600161558382896154fd565b9050145f146155e15786615599610597986129b0565b916155a6602083016129b0565b6155d960a06155d26155cd6155c76155c0604089016129b0565b96886154fd565b90612997565b615532565b940161476f565b93600f615cc6565b5061059795600f61590c565b6305a7a8f960e11b5f5260045ffd5b63040e8c7760e51b5f5260045ffd5b90606091805c90811580615669575b15615623575050565b909250601f6040519380855201908160051c905f5b82811061565057505050601f19168201602001604052565b80600180928401015c60208260051b8901015201615638565b9350604051935f85526020850160405261561a565b601f825180835d0160051c915f5b8381106156995750505050565b80602060019260051b8401015182828601015d0161568c565b6001909392930191815f52826020526001600160801b036156ea6156e060405f205496838816600f0b614d41565b928660801d614d41565b81199060801b1691161792830361570057505050565b5f5260205260405f2055565b156102af57565b90915f1983830992808302928380861095039480860395146157915790829161573d86841161570c565b09600182190182168092046002816003021880820260020302808202600203028082026002030280820260020302808202600203028091026002030293600183805f03040190848311900302920304170290565b505091506157a082151561570c565b0490565b5460ff81169081156150355760ff9060081c169043061090565b51156157c957600190565b5f90565b9190916040818403126102af5780516001600160401b0381116102af57836157f6918301613069565b9260208201516001600160401b0381116102af576105979201613069565b90602080835192838152019201905f5b8181106158315750505090565b82516001600160e81b031916845260209384019390920191600101615824565b906105979060018060a01b03835116815260018060a01b03602084015116602082015260018060a01b03604084015116604082015260c0806158c36158a5606087015160e0606087015260e0860190610836565b60808781015115159086015260a087015185820360a0870152615814565b9401516001600160e01b031916910152565b916158fe906158f06105979593606086526060860190615851565b9084820360208601526130eb565b9160408184039101526130eb565b9694959092939196606084019761592389866154fd565b969050615c83575b5061593585613037565b9161593f86613037565b905f5b878110615bed5750815f91858389615a06615a2f9d9e9f6159da6159ff615968856129b0565b946159f1615978602083016129b0565b946159ad6159ea61598b604086016129b0565b61599860808701876154fd565b9390946159a760a0890161476f565b976154fd565b9890996159ca6159bb6104eb565b6001600160a01b03909e168e52565b6001600160a01b031660208d0152565b6001600160a01b031660408b0152565b3691610530565b606087015215156080860152565b36916105c1565b60a082015260c08101829052604051635efa47c760e11b81529c8d9586948593600485016158d5565b03926001600160a01b03165af19081156112ed575f975f92615bc6575b505f5b878110615acb57505050505090615a789495615a729392615a7c575b50506123e0565b90612425565b5190565b81615a8c60a0615ab6940161476f565b15615abd576020615a9d91016129b0565b615aaf615aa9856123e0565b87612425565b5191614dbd565b5f80615a6b565b615ac6906129b0565b615a9d565b80615b8c8a89615af584615aee600197615ae860808601866154fd565b906129a0565b3593612425565b51615b33615b13615b06878d612425565b516001600160801b031690565b82615b21615b06898c612425565b615b2d60a0870161476f565b926151e5565b615b3d8589612425565b5192615b4b60a0840161476f565b15615ba657615b6960a06001600160801b038316600f0b940161476f565b15615b9257506001600160801b03615b849116600f0b613718565b915b886156b2565b01615a4f565b6001600160801b03915016600f0b91615b86565b615b6960a0615bc06001600160801b038516600f0b613718565b9461152e565b909750615be591503d805f833e615bdd81836104ca565b8101906157cd565b90965f615a4c565b600190615c7d615c73615c58615c378f8c615c07816129b0565b91615c316155cd89615ae8615c1e602087016129b0565b94615c2b604088016129b0565b966154fd565b92613bf8565b886001915f520160205260405f2054906001600160801b0382169160801c90565b615c658589949394612425565b906001600160801b03169052565b615c658389612425565b01615942565b615cb190615c9360a0870161476f565b15615cb757615caa615ca4876129b0565b91613ba2565b9089614dbd565b5f61592b565b615caa615ca4602088016129b0565b9185809c9b829893979b99959a969a615ce18c82868c613bf8565b96615dc1575b8885615d0e89896001915f520160205260405f2054906001600160801b0382169160801c90565b9e8f948298615d1e989395615e2e565b9b8c809a615d2b936151e5565b615d66928915615da6576001600160801b038216600f0b915b8a15615d945750615d606001600160801b038a16600f0b613718565b926156b2565b615d72575b5050505050565b615d829415615d8c575090614dbd565b5f82818080615d6b565b905090614dbd565b6001600160801b0316600f0b926156b2565b615dbb6001600160801b038a16600f0b613718565b91615d44565b8215615de157615ddc895b615dd587613ba2565b908d614dbd565b615ce7565b615ddc84615dcc565b91908260409103126102af576020825192015190565b9193926001600160801b039081615e21604094606087526060870190615851565b9616602085015216910152565b615ed998935f92615ea46040989a979995615e95615e4a613015565b938d615e5586612408565b52615e6b615e61613015565b96611fc588612408565b615e85615e766104eb565b6001600160a01b039098168852565b6001600160a01b03166020870152565b6001600160a01b0316848a0152565b6060830152871515608083015260a082015260c08101829052855163a74713cf60e01b81529889958694859360048501615e00565b03926001600160a01b03165af19283156112ed575f93615f2e575b508215615f0057505090565b90915015615f1457614ad1610597916136c3565b615f206105979161369f565b67120a871cc0020000900490565b615f5191935060403d604011615f59575b615f4981836104ca565b810190615dea565b50915f615ef4565b503d615f3f56fe1b3d7edb2e9c0b0e7c525b20aaaef0f5940d2ed71663c7d39266ecafac728859a264697066735822122080c360cd9fbb24c017f73304d624a1e371816e30d78e3d58b01f63526b39010564736f6c634300081e0033",
  "linkReferences": {},
  "deployedLinkReferences": {}
}