{
  "_format": "hh-sol-artifact-1",
  "contractName": "PoolManager",
  "sourceName": "contracts/Core/PoolManager.sol",
  "abi": [
    {
      "inputs": [
        {
          "internalType": "address",
          "name": "_defaultData0Bridge",
          "type": "address"
        },
        {
          "internalType": "address",
          "name": "_defaultData1Bridge",
          "type": "address"
        },
        {
          "internalType": "address",
          "name": "_defaultData2Bridge",
          "type": "address"
        },
        {
          "internalType": "address",
          "name": "_defaultData3Bridge",
          "type": "address"
        }
      ],
      "stateMutability": "nonpayable",
      "type": "constructor"
    },
    {
      "inputs": [],
      "name": "AssetTransferLib__Erc20TransferFailed",
      "type": "error"
    },
    {
      "inputs": [],
      "name": "AssetTransferLib__EthNotExpected",
      "type": "error"
    },
    {
      "inputs": [],
      "name": "AssetTransferLib__IncorrectEthSent",
      "type": "error"
    },
    {
      "inputs": [],
      "name": "CommitReveal__CommitmentExpired",
      "type": "error"
    },
    {
      "inputs": [],
      "name": "CommitReveal__CommitmentTooNew",
      "type": "error"
    },
    {
      "inputs": [],
      "name": "CommitReveal__InvalidCommitment",
      "type": "error"
    },
    {
      "inputs": [],
      "name": "CommitReveal__InvalidNonce",
      "type": "error"
    },
    {
      "inputs": [],
      "name": "PoolManager__AccessDenied",
      "type": "error"
    },
    {
      "inputs": [],
      "name": "PoolManager__AtomicExecutionRequired",
      "type": "error"
    },
    {
      "inputs": [
        {
          "internalType": "uint256",
          "name": "required",
          "type": "uint256"
        },
        {
          "internalType": "uint256",
          "name": "available",
          "type": "uint256"
        }
      ],
      "name": "PoolManager__InsufficientAsset0",
      "type": "error"
    },
    {
      "inputs": [
        {
          "internalType": "uint256",
          "name": "required",
          "type": "uint256"
        },
        {
          "internalType": "uint256",
          "name": "available",
          "type": "uint256"
        }
      ],
      "name": "PoolManager__InsufficientAsset1",
      "type": "error"
    },
    {
      "inputs": [],
      "name": "PoolManager__InsufficientLiquidityMinted",
      "type": "error"
    },
    {
      "inputs": [
        {
          "internalType": "uint256",
          "name": "minOut",
          "type": "uint256"
        },
        {
          "internalType": "uint256",
          "name": "actual",
          "type": "uint256"
        }
      ],
      "name": "PoolManager__InsufficientOutput",
      "type": "error"
    },
    {
      "inputs": [
        {
          "internalType": "uint256",
          "name": "amount0",
          "type": "uint256"
        },
        {
          "internalType": "uint256",
          "name": "amount1",
          "type": "uint256"
        }
      ],
      "name": "PoolManager__InsufficientWithdrawal",
      "type": "error"
    },
    {
      "inputs": [],
      "name": "PoolManager__InvalidInitialAmounts",
      "type": "error"
    },
    {
      "inputs": [],
      "name": "PoolManager__InvalidLiquidityAmount",
      "type": "error"
    },
    {
      "inputs": [],
      "name": "PoolManager__InvalidQuote",
      "type": "error"
    },
    {
      "inputs": [],
      "name": "PoolManager__MismatchedArrays",
      "type": "error"
    },
    {
      "inputs": [],
      "name": "PoolManager__NoHops",
      "type": "error"
    },
    {
      "inputs": [],
      "name": "PoolManager__NoLiquidity",
      "type": "error"
    },
    {
      "inputs": [],
      "name": "PoolManager__NoMarkings",
      "type": "error"
    },
    {
      "inputs": [],
      "name": "PoolManager__OperationPaused",
      "type": "error"
    },
    {
      "inputs": [
        {
          "internalType": "uint256",
          "name": "poolID",
          "type": "uint256"
        }
      ],
      "name": "PoolManager__PoolAlreadyExists",
      "type": "error"
    },
    {
      "anonymous": false,
      "inputs": [
        {
          "indexed": true,
          "internalType": "address",
          "name": "owner",
          "type": "address"
        },
        {
          "indexed": true,
          "internalType": "address",
          "name": "spender",
          "type": "address"
        },
        {
          "indexed": true,
          "internalType": "uint256",
          "name": "id",
          "type": "uint256"
        },
        {
          "indexed": false,
          "internalType": "uint256",
          "name": "amount",
          "type": "uint256"
        }
      ],
      "name": "Approval",
      "type": "event"
    },
    {
      "anonymous": false,
      "inputs": [
        {
          "indexed": true,
          "internalType": "bytes32",
          "name": "commitment",
          "type": "bytes32"
        },
        {
          "indexed": true,
          "internalType": "address",
          "name": "trader",
          "type": "address"
        }
      ],
      "name": "CommittedSwapExecuted",
      "type": "event"
    },
    {
      "anonymous": false,
      "inputs": [
        {
          "indexed": true,
          "internalType": "address",
          "name": "owner",
          "type": "address"
        },
        {
          "indexed": true,
          "internalType": "address",
          "name": "operator",
          "type": "address"
        },
        {
          "indexed": false,
          "internalType": "bool",
          "name": "approved",
          "type": "bool"
        }
      ],
      "name": "OperatorSet",
      "type": "event"
    },
    {
      "anonymous": false,
      "inputs": [
        {
          "indexed": true,
          "internalType": "uint256",
          "name": "poolID",
          "type": "uint256"
        },
        {
          "indexed": false,
          "internalType": "address",
          "name": "asset0",
          "type": "address"
        },
        {
          "indexed": false,
          "internalType": "address",
          "name": "asset1",
          "type": "address"
        },
        {
          "indexed": false,
          "internalType": "address",
          "name": "quoter",
          "type": "address"
        },
        {
          "indexed": false,
          "internalType": "bytes3",
          "name": "markings",
          "type": "bytes3"
        }
      ],
      "name": "PoolCreated",
      "type": "event"
    },
    {
      "anonymous": false,
      "inputs": [
        {
          "indexed": true,
          "internalType": "uint256",
          "name": "poolID",
          "type": "uint256"
        },
        {
          "indexed": false,
          "internalType": "address",
          "name": "treasury",
          "type": "address"
        },
        {
          "indexed": false,
          "internalType": "uint256",
          "name": "feeAsset0",
          "type": "uint256"
        },
        {
          "indexed": false,
          "internalType": "uint256",
          "name": "feeAsset1",
          "type": "uint256"
        }
      ],
      "name": "ProtocolFeeCharged",
      "type": "event"
    },
    {
      "anonymous": false,
      "inputs": [
        {
          "indexed": false,
          "internalType": "address",
          "name": "treasury",
          "type": "address"
        },
        {
          "indexed": false,
          "internalType": "uint16",
          "name": "feeBps",
          "type": "uint16"
        }
      ],
      "name": "ProtocolFeeConfigured",
      "type": "event"
    },
    {
      "anonymous": false,
      "inputs": [
        {
          "indexed": true,
          "internalType": "bytes32",
          "name": "commitment",
          "type": "bytes32"
        },
        {
          "indexed": true,
          "internalType": "address",
          "name": "trader",
          "type": "address"
        },
        {
          "indexed": false,
          "internalType": "uint32",
          "name": "blockNumber",
          "type": "uint32"
        }
      ],
      "name": "SwapCommitted",
      "type": "event"
    },
    {
      "anonymous": false,
      "inputs": [
        {
          "indexed": false,
          "internalType": "address",
          "name": "caller",
          "type": "address"
        },
        {
          "indexed": true,
          "internalType": "address",
          "name": "from",
          "type": "address"
        },
        {
          "indexed": true,
          "internalType": "address",
          "name": "to",
          "type": "address"
        },
        {
          "indexed": true,
          "internalType": "uint256",
          "name": "id",
          "type": "uint256"
        },
        {
          "indexed": false,
          "internalType": "uint256",
          "name": "amount",
          "type": "uint256"
        }
      ],
      "name": "Transfer",
      "type": "event"
    },
    {
      "inputs": [
        {
          "internalType": "bytes",
          "name": "data",
          "type": "bytes"
        }
      ],
      "name": "_decodeTwoBytes",
      "outputs": [
        {
          "internalType": "bytes",
          "name": "a",
          "type": "bytes"
        },
        {
          "internalType": "bytes",
          "name": "b",
          "type": "bytes"
        }
      ],
      "stateMutability": "pure",
      "type": "function"
    },
    {
      "inputs": [
        {
          "internalType": "address",
          "name": "asset0",
          "type": "address"
        },
        {
          "internalType": "address",
          "name": "asset1",
          "type": "address"
        },
        {
          "internalType": "address",
          "name": "quoter",
          "type": "address"
        },
        {
          "internalType": "bytes3",
          "name": "markings",
          "type": "bytes3"
        },
        {
          "internalType": "uint256",
          "name": "amount0",
          "type": "uint256"
        },
        {
          "internalType": "uint256",
          "name": "amount1",
          "type": "uint256"
        }
      ],
      "name": "addLiquidity",
      "outputs": [
        {
          "internalType": "uint256",
          "name": "liquidity",
          "type": "uint256"
        }
      ],
      "stateMutability": "payable",
      "type": "function"
    },
    {
      "inputs": [
        {
          "internalType": "address",
          "name": "owner",
          "type": "address"
        },
        {
          "internalType": "address",
          "name": "spender",
          "type": "address"
        },
        {
          "internalType": "uint256",
          "name": "id",
          "type": "uint256"
        }
      ],
      "name": "allowance",
      "outputs": [
        {
          "internalType": "uint256",
          "name": "",
          "type": "uint256"
        }
      ],
      "stateMutability": "view",
      "type": "function"
    },
    {
      "inputs": [
        {
          "internalType": "address",
          "name": "spender",
          "type": "address"
        },
        {
          "internalType": "uint256",
          "name": "id",
          "type": "uint256"
        },
        {
          "internalType": "uint256",
          "name": "amount",
          "type": "uint256"
        }
      ],
      "name": "approve",
      "outputs": [
        {
          "internalType": "bool",
          "name": "",
          "type": "bool"
        }
      ],
      "stateMutability": "nonpayable",
      "type": "function"
    },
    {
      "inputs": [
        {
          "internalType": "address",
          "name": "owner",
          "type": "address"
        },
        {
          "internalType": "uint256",
          "name": "id",
          "type": "uint256"
        }
      ],
      "name": "balanceOf",
      "outputs": [
        {
          "internalType": "uint256",
          "name": "",
          "type": "uint256"
        }
      ],
      "stateMutability": "view",
      "type": "function"
    },
    {
      "inputs": [
        {
          "components": [
            {
              "internalType": "address",
              "name": "asset0",
              "type": "address"
            },
            {
              "internalType": "address",
              "name": "asset1",
              "type": "address"
            },
            {
              "internalType": "address",
              "name": "quoter",
              "type": "address"
            },
            {
              "internalType": "bytes3[]",
              "name": "markings",
              "type": "bytes3[]"
            },
            {
              "internalType": "uint256[]",
              "name": "amounts",
              "type": "uint256[]"
            },
            {
              "internalType": "bool",
              "name": "zeroForOne",
              "type": "bool"
            }
          ],
          "internalType": "struct Hop[]",
          "name": "hops",
          "type": "tuple[]"
        },
        {
          "internalType": "uint256",
          "name": "amountIn",
          "type": "uint256"
        },
        {
          "internalType": "uint256",
          "name": "minAmountOut",
          "type": "uint256"
        }
      ],
      "name": "batchSwap",
      "outputs": [
        {
          "internalType": "uint256",
          "name": "amountOut",
          "type": "uint256"
        }
      ],
      "stateMutability": "payable",
      "type": "function"
    },
    {
      "inputs": [
        {
          "internalType": "bytes32",
          "name": "commitment",
          "type": "bytes32"
        }
      ],
      "name": "commitSwap",
      "outputs": [],
      "stateMutability": "nonpayable",
      "type": "function"
    },
    {
      "inputs": [
        {
          "internalType": "address",
          "name": "treasury",
          "type": "address"
        },
        {
          "internalType": "uint16",
          "name": "feeBps",
          "type": "uint16"
        }
      ],
      "name": "configureProtocolFee",
      "outputs": [],
      "stateMutability": "nonpayable",
      "type": "function"
    },
    {
      "inputs": [
        {
          "internalType": "address",
          "name": "asset0",
          "type": "address"
        },
        {
          "internalType": "address",
          "name": "asset1",
          "type": "address"
        },
        {
          "internalType": "address",
          "name": "quoter",
          "type": "address"
        },
        {
          "internalType": "bytes3",
          "name": "markings",
          "type": "bytes3"
        }
      ],
      "name": "createPool",
      "outputs": [
        {
          "internalType": "uint256",
          "name": "poolID",
          "type": "uint256"
        }
      ],
      "stateMutability": "nonpayable",
      "type": "function"
    },
    {
      "inputs": [],
      "name": "defaultData0Bridge",
      "outputs": [
        {
          "internalType": "address",
          "name": "",
          "type": "address"
        }
      ],
      "stateMutability": "view",
      "type": "function"
    },
    {
      "inputs": [],
      "name": "defaultData1Bridge",
      "outputs": [
        {
          "internalType": "address",
          "name": "",
          "type": "address"
        }
      ],
      "stateMutability": "view",
      "type": "function"
    },
    {
      "inputs": [],
      "name": "defaultData2Bridge",
      "outputs": [
        {
          "internalType": "address",
          "name": "",
          "type": "address"
        }
      ],
      "stateMutability": "view",
      "type": "function"
    },
    {
      "inputs": [],
      "name": "defaultData3Bridge",
      "outputs": [
        {
          "internalType": "address",
          "name": "",
          "type": "address"
        }
      ],
      "stateMutability": "view",
      "type": "function"
    },
    {
      "inputs": [
        {
          "internalType": "uint8",
          "name": "newState",
          "type": "uint8"
        }
      ],
      "name": "emergencyPauseProtocolPools",
      "outputs": [],
      "stateMutability": "nonpayable",
      "type": "function"
    },
    {
      "inputs": [
        {
          "internalType": "address",
          "name": "asset0",
          "type": "address"
        },
        {
          "internalType": "address",
          "name": "asset1",
          "type": "address"
        },
        {
          "internalType": "address",
          "name": "quoter",
          "type": "address"
        },
        {
          "internalType": "bytes3",
          "name": "markings",
          "type": "bytes3"
        },
        {
          "internalType": "uint256",
          "name": "amountIn",
          "type": "uint256"
        },
        {
          "internalType": "bool",
          "name": "zeroForOne",
          "type": "bool"
        },
        {
          "internalType": "uint256",
          "name": "minAmountOut",
          "type": "uint256"
        },
        {
          "internalType": "uint64",
          "name": "nonce",
          "type": "uint64"
        },
        {
          "internalType": "bytes32",
          "name": "salt",
          "type": "bytes32"
        }
      ],
      "name": "executeCommittedSwap",
      "outputs": [
        {
          "internalType": "uint256",
          "name": "amountOut",
          "type": "uint256"
        }
      ],
      "stateMutability": "payable",
      "type": "function"
    },
    {
      "inputs": [
        {
          "internalType": "address",
          "name": "callback",
          "type": "address"
        },
        {
          "internalType": "bytes",
          "name": "data",
          "type": "bytes"
        },
        {
          "internalType": "address[]",
          "name": "tokens",
          "type": "address[]"
        }
      ],
      "name": "flashSession",
      "outputs": [],
      "stateMutability": "payable",
      "type": "function"
    },
    {
      "inputs": [
        {
          "internalType": "address",
          "name": "callback",
          "type": "address"
        },
        {
          "internalType": "bytes",
          "name": "data",
          "type": "bytes"
        },
        {
          "internalType": "address[]",
          "name": "tokens",
          "type": "address[]"
        }
      ],
      "name": "flashSessionWithReturn",
      "outputs": [
        {
          "internalType": "int256[]",
          "name": "deltas",
          "type": "int256[]"
        }
      ],
      "stateMutability": "payable",
      "type": "function"
    },
    {
      "inputs": [
        {
          "internalType": "address",
          "name": "trader",
          "type": "address"
        }
      ],
      "name": "getCommitNonce",
      "outputs": [
        {
          "internalType": "uint64",
          "name": "nonce",
          "type": "uint64"
        }
      ],
      "stateMutability": "view",
      "type": "function"
    },
    {
      "inputs": [
        {
          "internalType": "uint256",
          "name": "poolId",
          "type": "uint256"
        }
      ],
      "name": "getInventory",
      "outputs": [
        {
          "internalType": "uint128",
          "name": "asset0",
          "type": "uint128"
        },
        {
          "internalType": "uint128",
          "name": "asset1",
          "type": "uint128"
        }
      ],
      "stateMutability": "view",
      "type": "function"
    },
    {
      "inputs": [
        {
          "internalType": "uint256",
          "name": "poolID",
          "type": "uint256"
        }
      ],
      "name": "getPoolInfo",
      "outputs": [
        {
          "internalType": "address",
          "name": "asset0",
          "type": "address"
        },
        {
          "internalType": "address",
          "name": "asset1",
          "type": "address"
        },
        {
          "internalType": "address",
          "name": "quoter",
          "type": "address"
        },
        {
          "internalType": "bytes3",
          "name": "markings",
          "type": "bytes3"
        }
      ],
      "stateMutability": "view",
      "type": "function"
    },
    {
      "inputs": [
        {
          "components": [
            {
              "internalType": "address",
              "name": "asset0",
              "type": "address"
            },
            {
              "internalType": "address",
              "name": "asset1",
              "type": "address"
            },
            {
              "internalType": "address",
              "name": "quoter",
              "type": "address"
            },
            {
              "internalType": "uint256[]",
              "name": "amount",
              "type": "uint256[]"
            },
            {
              "internalType": "bool",
              "name": "zeroForOne",
              "type": "bool"
            },
            {
              "internalType": "bytes3[]",
              "name": "marking",
              "type": "bytes3[]"
            },
            {
              "internalType": "bytes4",
              "name": "traderProtection",
              "type": "bytes4"
            }
          ],
          "internalType": "struct SwapParams",
          "name": "p",
          "type": "tuple"
        },
        {
          "internalType": "uint128",
          "name": "asset0Balance",
          "type": "uint128"
        },
        {
          "internalType": "uint128",
          "name": "asset1Balance",
          "type": "uint128"
        }
      ],
      "name": "getQuote",
      "outputs": [
        {
          "internalType": "uint256",
          "name": "quote",
          "type": "uint256"
        },
        {
          "internalType": "uint256",
          "name": "poolID",
          "type": "uint256"
        }
      ],
      "stateMutability": "nonpayable",
      "type": "function"
    },
    {
      "inputs": [
        {
          "components": [
            {
              "internalType": "address",
              "name": "asset0",
              "type": "address"
            },
            {
              "internalType": "address",
              "name": "asset1",
              "type": "address"
            },
            {
              "internalType": "address",
              "name": "quoter",
              "type": "address"
            },
            {
              "internalType": "uint256[]",
              "name": "amount",
              "type": "uint256[]"
            },
            {
              "internalType": "bool",
              "name": "zeroForOne",
              "type": "bool"
            },
            {
              "internalType": "bytes3[]",
              "name": "marking",
              "type": "bytes3[]"
            },
            {
              "internalType": "bytes4",
              "name": "traderProtection",
              "type": "bytes4"
            }
          ],
          "internalType": "struct SwapParams",
          "name": "p",
          "type": "tuple"
        },
        {
          "internalType": "uint128",
          "name": "asset0Balance",
          "type": "uint128"
        },
        {
          "internalType": "uint128",
          "name": "asset1Balance",
          "type": "uint128"
        },
        {
          "internalType": "address",
          "name": "trader",
          "type": "address"
        }
      ],
      "name": "getQuoteAuto",
      "outputs": [
        {
          "internalType": "uint256",
          "name": "quote",
          "type": "uint256"
        },
        {
          "internalType": "uint256",
          "name": "poolID",
          "type": "uint256"
        }
      ],
      "stateMutability": "nonpayable",
      "type": "function"
    },
    {
      "inputs": [
        {
          "components": [
            {
              "internalType": "address",
              "name": "asset0",
              "type": "address"
            },
            {
              "internalType": "address",
              "name": "asset1",
              "type": "address"
            },
            {
              "internalType": "address",
              "name": "quoter",
              "type": "address"
            },
            {
              "internalType": "uint256[]",
              "name": "amount",
              "type": "uint256[]"
            },
            {
              "internalType": "bool",
              "name": "zeroForOne",
              "type": "bool"
            },
            {
              "internalType": "bytes3[]",
              "name": "marking",
              "type": "bytes3[]"
            },
            {
              "internalType": "bytes4",
              "name": "traderProtection",
              "type": "bytes4"
            }
          ],
          "internalType": "struct SwapParams",
          "name": "p",
          "type": "tuple"
        },
        {
          "internalType": "uint128[]",
          "name": "asset0Balances",
          "type": "uint128[]"
        },
        {
          "internalType": "uint128[]",
          "name": "asset1Balances",
          "type": "uint128[]"
        }
      ],
      "name": "getQuoteBatch",
      "outputs": [
        {
          "internalType": "uint256[]",
          "name": "quote",
          "type": "uint256[]"
        },
        {
          "internalType": "uint256[]",
          "name": "poolID",
          "type": "uint256[]"
        }
      ],
      "stateMutability": "nonpayable",
      "type": "function"
    },
    {
      "inputs": [
        {
          "components": [
            {
              "internalType": "address",
              "name": "asset0",
              "type": "address"
            },
            {
              "internalType": "address",
              "name": "asset1",
              "type": "address"
            },
            {
              "internalType": "address",
              "name": "quoter",
              "type": "address"
            },
            {
              "internalType": "uint256[]",
              "name": "amount",
              "type": "uint256[]"
            },
            {
              "internalType": "bool",
              "name": "zeroForOne",
              "type": "bool"
            },
            {
              "internalType": "bytes3[]",
              "name": "marking",
              "type": "bytes3[]"
            },
            {
              "internalType": "bytes4",
              "name": "traderProtection",
              "type": "bytes4"
            }
          ],
          "internalType": "struct SwapParams",
          "name": "p",
          "type": "tuple"
        },
        {
          "internalType": "uint128[]",
          "name": "asset0Balances",
          "type": "uint128[]"
        },
        {
          "internalType": "uint128[]",
          "name": "asset1Balances",
          "type": "uint128[]"
        },
        {
          "internalType": "address",
          "name": "trader",
          "type": "address"
        }
      ],
      "name": "getQuoteBatchAuto",
      "outputs": [
        {
          "internalType": "uint256[]",
          "name": "quote",
          "type": "uint256[]"
        },
        {
          "internalType": "uint256[]",
          "name": "poolID",
          "type": "uint256[]"
        }
      ],
      "stateMutability": "nonpayable",
      "type": "function"
    },
    {
      "inputs": [
        {
          "components": [
            {
              "internalType": "address",
              "name": "asset0",
              "type": "address"
            },
            {
              "internalType": "address",
              "name": "asset1",
              "type": "address"
            },
            {
              "internalType": "address",
              "name": "quoter",
              "type": "address"
            },
            {
              "internalType": "uint256[]",
              "name": "amount",
              "type": "uint256[]"
            },
            {
              "internalType": "bool",
              "name": "zeroForOne",
              "type": "bool"
            },
            {
              "internalType": "bytes3[]",
              "name": "marking",
              "type": "bytes3[]"
            },
            {
              "internalType": "bytes4",
              "name": "traderProtection",
              "type": "bytes4"
            }
          ],
          "internalType": "struct SwapParams",
          "name": "p",
          "type": "tuple"
        },
        {
          "internalType": "uint128[]",
          "name": "asset0Balances",
          "type": "uint128[]"
        },
        {
          "internalType": "uint128[]",
          "name": "asset1Balances",
          "type": "uint128[]"
        },
        {
          "internalType": "address",
          "name": "trader",
          "type": "address"
        }
      ],
      "name": "getQuoteBatchWithContext",
      "outputs": [
        {
          "internalType": "uint256[]",
          "name": "quote",
          "type": "uint256[]"
        },
        {
          "internalType": "uint256[]",
          "name": "poolID",
          "type": "uint256[]"
        }
      ],
      "stateMutability": "nonpayable",
      "type": "function"
    },
    {
      "inputs": [
        {
          "components": [
            {
              "internalType": "address",
              "name": "asset0",
              "type": "address"
            },
            {
              "internalType": "address",
              "name": "asset1",
              "type": "address"
            },
            {
              "internalType": "address",
              "name": "quoter",
              "type": "address"
            },
            {
              "internalType": "uint256[]",
              "name": "amount",
              "type": "uint256[]"
            },
            {
              "internalType": "bool",
              "name": "zeroForOne",
              "type": "bool"
            },
            {
              "internalType": "bytes3[]",
              "name": "marking",
              "type": "bytes3[]"
            },
            {
              "internalType": "bytes4",
              "name": "traderProtection",
              "type": "bytes4"
            }
          ],
          "internalType": "struct SwapParams",
          "name": "p",
          "type": "tuple"
        },
        {
          "internalType": "uint128",
          "name": "asset0Balance",
          "type": "uint128"
        },
        {
          "internalType": "uint128",
          "name": "asset1Balance",
          "type": "uint128"
        },
        {
          "internalType": "address",
          "name": "trader",
          "type": "address"
        }
      ],
      "name": "getQuoteWithContext",
      "outputs": [
        {
          "internalType": "uint256",
          "name": "quote",
          "type": "uint256"
        },
        {
          "internalType": "uint256",
          "name": "poolID",
          "type": "uint256"
        }
      ],
      "stateMutability": "nonpayable",
      "type": "function"
    },
    {
      "inputs": [
        {
          "internalType": "address",
          "name": "user",
          "type": "address"
        },
        {
          "internalType": "address[]",
          "name": "tokens",
          "type": "address[]"
        }
      ],
      "name": "getUserDeltas",
      "outputs": [
        {
          "internalType": "int256[]",
          "name": "deltas",
          "type": "int256[]"
        }
      ],
      "stateMutability": "view",
      "type": "function"
    },
    {
      "inputs": [
        {
          "internalType": "address",
          "name": "owner",
          "type": "address"
        },
        {
          "internalType": "address",
          "name": "spender",
          "type": "address"
        }
      ],
      "name": "isOperator",
      "outputs": [
        {
          "internalType": "bool",
          "name": "",
          "type": "bool"
        }
      ],
      "stateMutability": "view",
      "type": "function"
    },
    {
      "inputs": [
        {
          "internalType": "uint256",
          "name": "poolId",
          "type": "uint256"
        },
        {
          "internalType": "uint8",
          "name": "newState",
          "type": "uint8"
        }
      ],
      "name": "pauseSpecificPool",
      "outputs": [],
      "stateMutability": "nonpayable",
      "type": "function"
    },
    {
      "inputs": [
        {
          "internalType": "address",
          "name": "asset0",
          "type": "address"
        },
        {
          "internalType": "address",
          "name": "asset1",
          "type": "address"
        },
        {
          "internalType": "address",
          "name": "quoter",
          "type": "address"
        },
        {
          "internalType": "bytes3",
          "name": "markings",
          "type": "bytes3"
        },
        {
          "internalType": "uint256",
          "name": "liquidity",
          "type": "uint256"
        }
      ],
      "name": "removeLiquidity",
      "outputs": [
        {
          "internalType": "uint256",
          "name": "amount0",
          "type": "uint256"
        },
        {
          "internalType": "uint256",
          "name": "amount1",
          "type": "uint256"
        }
      ],
      "stateMutability": "nonpayable",
      "type": "function"
    },
    {
      "inputs": [
        {
          "components": [
            {
              "internalType": "address",
              "name": "asset0",
              "type": "address"
            },
            {
              "internalType": "address",
              "name": "asset1",
              "type": "address"
            },
            {
              "internalType": "address",
              "name": "quoter",
              "type": "address"
            },
            {
              "internalType": "uint256[]",
              "name": "amount",
              "type": "uint256[]"
            },
            {
              "internalType": "bool",
              "name": "zeroForOne",
              "type": "bool"
            },
            {
              "internalType": "bytes3[]",
              "name": "marking",
              "type": "bytes3[]"
            },
            {
              "internalType": "bytes4",
              "name": "traderProtection",
              "type": "bytes4"
            }
          ],
          "internalType": "struct SwapParams",
          "name": "p",
          "type": "tuple"
        },
        {
          "internalType": "uint128",
          "name": "asset0Balance",
          "type": "uint128"
        },
        {
          "internalType": "uint128",
          "name": "asset1Balance",
          "type": "uint128"
        }
      ],
      "name": "routerGetQuote",
      "outputs": [
        {
          "internalType": "uint256",
          "name": "quote",
          "type": "uint256"
        },
        {
          "internalType": "uint256",
          "name": "poolID",
          "type": "uint256"
        }
      ],
      "stateMutability": "nonpayable",
      "type": "function"
    },
    {
      "inputs": [
        {
          "components": [
            {
              "internalType": "address",
              "name": "asset0",
              "type": "address"
            },
            {
              "internalType": "address",
              "name": "asset1",
              "type": "address"
            },
            {
              "internalType": "address",
              "name": "quoter",
              "type": "address"
            },
            {
              "internalType": "uint256[]",
              "name": "amount",
              "type": "uint256[]"
            },
            {
              "internalType": "bool",
              "name": "zeroForOne",
              "type": "bool"
            },
            {
              "internalType": "bytes3[]",
              "name": "marking",
              "type": "bytes3[]"
            },
            {
              "internalType": "bytes4",
              "name": "traderProtection",
              "type": "bytes4"
            }
          ],
          "internalType": "struct SwapParams",
          "name": "p",
          "type": "tuple"
        },
        {
          "internalType": "uint128[]",
          "name": "asset0Balances",
          "type": "uint128[]"
        },
        {
          "internalType": "uint128[]",
          "name": "asset1Balances",
          "type": "uint128[]"
        }
      ],
      "name": "routerGetQuoteBatch",
      "outputs": [
        {
          "internalType": "uint256[]",
          "name": "quote",
          "type": "uint256[]"
        },
        {
          "internalType": "uint256[]",
          "name": "poolID",
          "type": "uint256[]"
        }
      ],
      "stateMutability": "nonpayable",
      "type": "function"
    },
    {
      "inputs": [
        {
          "internalType": "address",
          "name": "protocol",
          "type": "address"
        },
        {
          "internalType": "address",
          "name": "emergency",
          "type": "address"
        }
      ],
      "name": "setGovernance",
      "outputs": [],
      "stateMutability": "nonpayable",
      "type": "function"
    },
    {
      "inputs": [
        {
          "internalType": "address",
          "name": "operator",
          "type": "address"
        },
        {
          "internalType": "bool",
          "name": "approved",
          "type": "bool"
        }
      ],
      "name": "setOperator",
      "outputs": [
        {
          "internalType": "bool",
          "name": "",
          "type": "bool"
        }
      ],
      "stateMutability": "nonpayable",
      "type": "function"
    },
    {
      "inputs": [
        {
          "internalType": "bytes4",
          "name": "interfaceId",
          "type": "bytes4"
        }
      ],
      "name": "supportsInterface",
      "outputs": [
        {
          "internalType": "bool",
          "name": "",
          "type": "bool"
        }
      ],
      "stateMutability": "view",
      "type": "function"
    },
    {
      "inputs": [
        {
          "internalType": "address",
          "name": "asset0",
          "type": "address"
        },
        {
          "internalType": "address",
          "name": "asset1",
          "type": "address"
        },
        {
          "internalType": "address",
          "name": "quoter",
          "type": "address"
        },
        {
          "internalType": "bytes3",
          "name": "markings",
          "type": "bytes3"
        },
        {
          "internalType": "uint256",
          "name": "amountIn",
          "type": "uint256"
        },
        {
          "internalType": "bool",
          "name": "zeroForOne",
          "type": "bool"
        },
        {
          "internalType": "uint256",
          "name": "minAmountOut",
          "type": "uint256"
        }
      ],
      "name": "swap",
      "outputs": [
        {
          "internalType": "uint256",
          "name": "amountOut",
          "type": "uint256"
        }
      ],
      "stateMutability": "payable",
      "type": "function"
    },
    {
      "inputs": [
        {
          "internalType": "address",
          "name": "asset0",
          "type": "address"
        },
        {
          "internalType": "address",
          "name": "asset1",
          "type": "address"
        },
        {
          "internalType": "address",
          "name": "quoter",
          "type": "address"
        },
        {
          "internalType": "bytes3",
          "name": "markings",
          "type": "bytes3"
        },
        {
          "internalType": "uint256",
          "name": "amountIn",
          "type": "uint256"
        },
        {
          "internalType": "bool",
          "name": "zeroForOne",
          "type": "bool"
        },
        {
          "internalType": "uint256",
          "name": "minAmountOut",
          "type": "uint256"
        },
        {
          "internalType": "bytes4",
          "name": "traderProtection",
          "type": "bytes4"
        },
        {
          "internalType": "bytes",
          "name": "permitData",
          "type": "bytes"
        }
      ],
      "name": "swapWithPermit",
      "outputs": [
        {
          "internalType": "uint256",
          "name": "amountOut",
          "type": "uint256"
        }
      ],
      "stateMutability": "payable",
      "type": "function"
    },
    {
      "inputs": [
        {
          "internalType": "address",
          "name": "asset0",
          "type": "address"
        },
        {
          "internalType": "address",
          "name": "asset1",
          "type": "address"
        },
        {
          "internalType": "address",
          "name": "quoter",
          "type": "address"
        },
        {
          "internalType": "bytes3",
          "name": "markings",
          "type": "bytes3"
        },
        {
          "internalType": "uint256",
          "name": "amountIn",
          "type": "uint256"
        },
        {
          "internalType": "bool",
          "name": "zeroForOne",
          "type": "bool"
        },
        {
          "internalType": "uint256",
          "name": "minAmountOut",
          "type": "uint256"
        },
        {
          "internalType": "bytes4",
          "name": "traderProtection",
          "type": "bytes4"
        }
      ],
      "name": "swapWithProtection",
      "outputs": [
        {
          "internalType": "uint256",
          "name": "amountOut",
          "type": "uint256"
        }
      ],
      "stateMutability": "payable",
      "type": "function"
    },
    {
      "inputs": [
        {
          "internalType": "uint256",
          "name": "poolID",
          "type": "uint256"
        }
      ],
      "name": "totalLiquidity",
      "outputs": [
        {
          "internalType": "uint256",
          "name": "",
          "type": "uint256"
        }
      ],
      "stateMutability": "view",
      "type": "function"
    },
    {
      "inputs": [
        {
          "internalType": "address",
          "name": "receiver",
          "type": "address"
        },
        {
          "internalType": "uint256",
          "name": "id",
          "type": "uint256"
        },
        {
          "internalType": "uint256",
          "name": "amount",
          "type": "uint256"
        }
      ],
      "name": "transfer",
      "outputs": [
        {
          "internalType": "bool",
          "name": "",
          "type": "bool"
        }
      ],
      "stateMutability": "nonpayable",
      "type": "function"
    },
    {
      "inputs": [
        {
          "internalType": "address",
          "name": "sender",
          "type": "address"
        },
        {
          "internalType": "address",
          "name": "receiver",
          "type": "address"
        },
        {
          "internalType": "uint256",
          "name": "id",
          "type": "uint256"
        },
        {
          "internalType": "uint256",
          "name": "amount",
          "type": "uint256"
        }
      ],
      "name": "transferFrom",
      "outputs": [
        {
          "internalType": "bool",
          "name": "",
          "type": "bool"
        }
      ],
      "stateMutability": "nonpayable",
      "type": "function"
    }
  ],
  "bytecode": "0x6101006040523461024e57604051601f61613438819003918201601f19168301916001600160401b038311848410176102525780849260809460405283398101031261024e5761004e81610285565b9061005b60208201610285565b610073606061006c60408501610285565b9301610285565b9260805260a05260c05260e052610088610266565b60028152600160208201819052604090910152600c805462ffffff1916620101021790556100b4610266565b60058152600260208201526001604090910152600d805462ffffff1916620102051790556100e0610266565b600a8152600360208201526001604090910152600e805462ffffff19166201030a17905561010c610266565b60148152600560208201526001604090910152600f805462ffffff191662010514179055610138610266565b5f808252602082018190526040909101526010805462ffffff1916905561015d610266565b5f808252602082018190526040909101526011805462ffffff19169055610182610266565b60328152600a60208201525f6040918201526012805462ffffff1916610a321790556019805461ffff65ffffffffffff60b01b0119166219007d60b21b17905551615e9a908161029a8239608051818181610ae601528181612be301528181612f740152818161333a0152613810015260a051818181610bab01528181612c1c01528181612faa01526138aa015260c0518181816103a001528181612c5a01528181612fe50152613968015260e051818181610aa201528181612c930152818161301c0152613a4f0152f35b5f80fd5b634e487b7160e01b5f52604160045260245ffd5b60405190606082016001600160401b0381118382101761025257604052565b51906001600160a01b038216820361024e5756fe60806040526004361015610011575f80fd5b5f3560e01c8062fdd58e1461029957806301ffc9a714610294578063091f15b01461028f578063095bcdb61461028a5780630d5f74d51461028557806321e24384146102085780632f380b3514610280578063314e23211461027b57806331b4ae17146102765780633d465aae14610271578063426a84931461026c57806346fe6514146102675780634dbb4c5e14610262578063558a72971461025d5780635670f55a1461025857806357c9a5fd14610253578063598af9e71461024e5780635b298d32146102495780635b7499b5146102445780635dfb78af1461023f578063663871401461023a57806378a8317f1461023557806378f90e6f1461023057806394756e9b1461022b57806398c5bb5f146102265780639d2ec6e414610221578063a465ba0f1461021c578063a74713cf1461021c578063ab62c09414610217578063b5e60c3c14610212578063b6363cf21461020d578063bdf48f8e14610208578063cb1f2f3814610203578063cc489582146101fe578063d92bc84c146101f9578063de87396c146101f4578063e513315b146101ef578063ea157acf146101ea578063f9158ee5146101e5578063f9c988b1146101e05763fe99049a146101db575f80fd5b61216c565b612152565b6120aa565b611f40565b611c16565b611b4b565b611ad5565b611abb565b6117cd565b6108aa565b611785565b611736565b6116d9565b6116c2565b6114bc565b6114a2565b61138a565b6112fe565b61129e565b61125a565b61118e565b6110a0565b611069565b610ffc565b610f68565b610cfd565b610c61565b610bda565b610b96565b610b15565b610ad1565b610a8d565b610a38565b6108d1565b610750565b6103f2565b61038b565b610335565b6102c0565b6001600160a01b038116036102af57565b5f80fd5b35906102be8261029e565b565b346102af5760403660031901126102af576004356102dd8161029e565b6024359060018060a01b03165f52600160205260405f20905f52602052602060405f2054604051908152f35b60e435906001600160e01b0319821682036102af57565b35906001600160e01b0319821682036102af57565b346102af5760203660031901126102af5760043563ffffffff60e01b81168091036102af576020906301ffc9a760e01b811490811561037a575b506040519015158152f35b630f632fb360e01b1490505f61036f565b346102af575f3660031901126102af576040517f00000000000000000000000000000000000000000000000000000000000000006001600160a01b03168152602090f35b60609060031901126102af576004356103e78161029e565b906024359060443590565b346102af57610400366103cf565b9091335f52600160205260405f20835f5260205260405f20805490838203918211610491575560018060a01b031690815f52600160205261044c8360405f20905f5260205260405f2090565b610457828254612345565b9055604080513380825260208201939093525f516020615e455f395f51905f5291819081015b0390a46040516001815280602081015b0390f35b612316565b634e487b7160e01b5f52604160045260245ffd5b608081019081106001600160401b038211176104c557604052565b610496565b90601f801991011681019081106001600160401b038211176104c557604052565b604051906102be60e0836104ca565b604051906102be6080836104ca565b604051906102be610120836104ca565b604051906102be610100836104ca565b6001600160401b0381116104c55760051b60200190565b92919061054c81610529565b9361055a60405195866104ca565b602085838152019160051b81019283116102af57905b82821061057c57505050565b8135815260209182019101610570565b9080601f830112156102af578160206105a793359101610540565b90565b801515036102af57565b35906102be826105aa565b6001600160e81b03198116036102af57565b9291906105dd81610529565b936105eb60405195866104ca565b602085838152019160051b81019283116102af57905b82821061060d57505050565b60208091833561061c816105bf565b815201910190610601565b9080601f830112156102af578160206105a7933591016105d1565b91909160e0818403126102af576106576104eb565b92610661826102b3565b845261066f602083016102b3565b6020850152610680604083016102b3565b604085015260608201356001600160401b0381116102af57816106a491840161058c565b60608501526106b5608083016105b4565b608085015260a0820135916001600160401b0383116102af576106df60c0926106ea948301610627565b60a086015201610320565b60c0830152565b60806003198201126102af57600435906001600160401b0382116102af5761071b91600401610642565b906024356001600160801b03811681036102af57906044356001600160801b03811681036102af57906064356105a78161029e565b346102af5761076a610761366106f1565b9291909161239c565b60408051928352602083019190915290f35b9080601f830112156102af5781359061079482610529565b926107a260405194856104ca565b82845260208085019360051b8201019182116102af57602001915b8183106107ca5750505090565b82356001600160801b03811681036102af578152602092830192016107bd565b60606003198201126102af576004356001600160401b0381116102af578161081491600401610642565b916024356001600160401b0381116102af57826108339160040161077c565b91604435906001600160401b0382116102af576105a79160040161077c565b90602080835192838152019201905f5b81811061086f5750505090565b8251845260209384019390920191600101610862565b909161089c6105a793604084526040840190610852565b916020818403910152610852565b346102af576108c16108bb366107ea565b9161318f565b9061048d60405192839283610885565b346102af5760203660031901126102af576004355f60606040516108f4816104aa565b82815282602082015282604082015201525f52600560205260405f206040519061091d826104aa565b80546001600160a01b0390811680845260018301548216602085018190526002909301549182166040850181905260489290921b6001600160e81b031916606094909401849052909261048d9161099490610986906109799081565b956001600160a01b031690565b916001600160e81b03191690565b604080516001600160a01b039586168152958516602087015291909316908401526001600160e81b0319909116606083015281906080820190565b9181601f840112156102af578235916001600160401b0383116102af576020808501948460051b0101116102af57565b60206040818301928281528451809452019201905f5b818110610a225750505090565b8251845260209384019390920191600101610a15565b346102af5760403660031901126102af57600435610a558161029e565b6024356001600160401b0381116102af5761048d91610a7b610a819236906004016109cf565b916123f2565b604051918291826109ff565b346102af575f3660031901126102af576040517f00000000000000000000000000000000000000000000000000000000000000006001600160a01b03168152602090f35b346102af575f3660031901126102af576040517f00000000000000000000000000000000000000000000000000000000000000006001600160a01b03168152602090f35b346102af57610b23366103cf565b9091335f526002602052610b4a8160405f209060018060a01b03165f5260205260405f2090565b835f526020528160405f205560405191825260018060a01b0316907fb3fd5071835887567a0671151121894ddccc2842f1d10bedad13e0d17cace9a760203392a4602060405160018152f35b346102af575f3660031901126102af576040517f00000000000000000000000000000000000000000000000000000000000000006001600160a01b03168152602090f35b6101203660031901126102af57600435610bf38161029e565b602435610bff8161029e565b60443591610c0c8361029e565b606435610c18816105bf565b60843560a435610c27816105aa565b60c4359160e435936001600160401b03851685036102af5761048d97610c51976101043597612468565b6040519081529081906020820190565b346102af5760403660031901126102af57600435610c7e8161029e565b60243590610c8b826105aa565b335f908152602081815260408083206001600160a01b038516845290915290209115159160ff1981541660ff841617905560405191825260018060a01b0316907fceb576d9f15e4e200fdb5096d64d5dfd667e16def20c1eefd14256d8e3faa26760203392a360405160018152602090f35b346102af5760803660031901126102af57600435610d1a8161029e565b602435610d268161029e565b604435610d328161029e565b60643592610d3f846105bf565b610d4f610d4a613b7b565b613bc4565b610d5b84838584614494565b9260018060a01b03610d886002610d7a875f52600560205260405f2090565b01546001600160a01b031690565b16610f545761048d94610ee493909285927f68df9a4eb7aacbe8f43763bfbc9f7ca135a5397190ea1cce2558db52dc2f3692929190856001600160a01b038083169084161015610f4957610ed691935b610e9a610de36104fa565b6001600160a01b03861681526001600160a01b03871660208201526001600160a01b03831660408201526001600160e81b031984166060820152610e2f895f52600560205260405f2090565b815181546001600160a01b03199081166001600160a01b039283161783556020840151600184018054909216908316179055604083015160029092018054606090940151929091166001600160b81b03199093169290921760489190911c62ffffff60a01b16179055565b604080516001600160a01b03958616815295851660208701529316928401929092526001600160e81b0319909116606083015281906080820190565b0390a2600160f81b16151590565b610f03575b5f610ef2613b7b565b5d6040519081529081906020820190565b601c54610f2b90610f24906001600160a01b03165b6001600160a01b031690565b3314612532565b610f44815f52601a60205260405f2060ff198154169055565b610ee9565b610ed6919293610dd8565b63e1ecc13360e01b5f52600484905260245ffd5b6101003660031901126102af57610fe7600435610f848161029e565b602435610f908161029e565b604435610f9c8161029e565b606435610fa8816105bf565b60843560a43591610fb8836105aa565b60c43593610fc4610309565b95610fd0610d4a613b7b565b60405197610fdf60208a6104ca565b5f8952613fe4565b5f610ff0613b7b565b5d604051908152602090f35b346102af5760603660031901126102af576004356110198161029e565b6110546024356110288161029e565b6044359260018060a01b03165f52600260205260405f209060018060a01b03165f5260205260405f2090565b905f52602052602060405f2054604051908152f35b346102af5760203660031901126102af5760406001600160801b0361108f600435614176565b835191831682529091166020820152f35b346102af5760203660031901126102af5760043563ffffffff431690805f52600960205260405f208263ffffffff198254161790556040519182527ff76330af9ed35739f4663e9f2c2726c5c60a98c86b8e6c087b0b54d818c0099b60203393a3005b9181601f840112156102af578235916001600160401b0383116102af57602083818601950101116102af57565b9060606003198301126102af576004356111498161029e565b916024356001600160401b0381116102af578161116891600401611103565b92909291604435906001600160401b0382116102af5761118a916004016109cf565b9091565b61119736611130565b93916111a1614194565b926111ab84613bc4565b60016111b73330615224565b5d6111c1336141fd565b6001600160a01b031693843b156102af57604051631c6e724760e31b8152915f9183916111f1916004840161258e565b95818381819903925af1801561125557611237575b50829361121961121f92349236916125c0565b336142db565b611227614373565b5f6112323330615224565b5d5d80f35b61121f9193509361124b5f611219966104ca565b5f93915093611206565b6125b5565b346102af5760203660031901126102af576004356112778161029e565b60018060a01b03165f52600a60205260206001600160401b0360405f205416604051908152f35b346102af5760203660031901126102af5760043560ff81168091036102af57601d546001600160a01b0316331480156112ea575b6112db90612616565b60ff19601b541617601b555f80f35b50601c546001600160a01b031633146112d2565b6101203660031901126102af576004356113178161029e565b602435906113248261029e565b604435916113318361029e565b6064359161133e836105bf565b60843560a43561134d816105aa565b60c43590611359610309565b9261010435966001600160401b0388116102af5761048d98611382610c51993690600401611103565b989097612653565b346102af5760403660031901126102af576004356113a78161029e565b60243561ffff8116918282036102af57600680546001600160a01b0319166001600160a01b0383161790557f42bc0dce68a76f2cb7882e7da1060360603348ede3c834d9239472d409103ef8926040926006805461ffff60a01b191660a09290921b61ffff60a01b1691909117905582516001600160a01b0390921682526020820152a1005b60806003198201126102af576004356001600160401b0381116102af578161145791600401610642565b916024356001600160401b0381116102af57826114769160040161077c565b91604435906001600160401b0382116102af576114959160040161077c565b906064356105a78161029e565b346102af576108c16114b33661142d565b9291909161292a565b60603660031901126102af576004356001600160401b0381116102af576114e79036906004016109cf565b604435916024356114f9610d4a613b7b565b611501614604565b906001600160a01b03821615611665575b8315611656579261152e60a0611528838661464e565b0161468b565b1561164157611545611540828561464e565b6123e8565b925b61155f60a06115286115588561232a565b8585614669565b156116245761157b60206115756115588561232a565b016123e8565b91905b5f915b8083106115e45750505061159d6115988330615224565b5c1590565b6115d1575b5050508181106115b95761048d905f610ef2613b7b565b63d438755d60e01b5f5260049190915260245260445ffd5b6115dc9234926150df565b5f80806115a2565b909195611616600191866115f98a8688614669565b918a156116058761232a565b8c1491811561161f575b30946154cd565b96019190611581565b61160f565b61163a6115406116338461232a565b8484614669565b919061157e565b6116506020611575838661464e565b92611547565b63145dbb4560e21b5f5260045ffd5b339150611512565b60606003198201126102af57600435906001600160401b0382116102af5761169791600401610642565b906024356001600160801b03811681036102af57906044356001600160801b03811681036102af5790565b346102af5761076a6116d33661166d565b91612e36565b346102af5760403660031901126102af5760043560243560ff811681036102af576117209160018060a01b03601d541633148015611722575b61171b90612616565b61472c565b005b50601c546001600160a01b03163314611712565b346102af5760203660031901126102af576004355f526003602052602060405f2054604051908152f35b60409060031901126102af576004356117788161029e565b906024356105a78161029e565b346102af57602060ff6117c161179a36611760565b6001600160a01b039182165f90815280865260408082209290931681526020919091522090565b54166040519015158152f35b346102af5760a03660031901126102af576004356117ea8161029e565b602435906117f78261029e565b604435916118048361029e565b606435611810816105bf565b6084359361181f610d4a613b7b565b8415611aac5761183e61183783611842938688614494565b809361482f565b1590565b611a9d5761184f81614176565b61186c611867849593955f52600360205260405f2090565b541590565b611a8e5761188561188b916001600160801b0395614873565b836148ca565b6118dc6118ca846118c26118a96118a187614176565b98168a6133c3565b6118bb875f52600360205260405f2090565b54906133d6565b9516876133c3565b6118bb845f52600360205260405f2090565b93831580611a86575b611a6d576119ee9394956118f7614604565b906001600160a01b03821615611a65575b611913818684614bce565b611930611928865f52600360205260405f2090565b918254612338565b905561196661194a6001600160801b038816600f0b6133f4565b61195f6001600160801b038a16600f0b6133f4565b9086614c4d565b6001600160a01b0383811690831610916119a7908315611a59576119a088958a925b8615611a525780965b15611a4a5750955b8585614ca3565b8483614ca3565b6119b46115988230615224565b611a09575b5050506119c581614176565b916001600160801b03809392825f5260076020521660405f20555f5260086020521660405f2055565b5f6119f7613b7b565b5d604080519182526020820192909252f35b611a3d611a4293611a34611a1b613414565b94611a2586612366565b6001600160a01b039091169052565b611a2584612378565b614246565b5f80806119b9565b905095611999565b8196611991565b6119a089958992611988565b339150611908565b63d5de620560e01b5f526004849052602485905260445ffd5b5084156118e5565b63c303013160e01b5f5260045ffd5b63636280a760e01b5f5260045ffd5b6394240c0560e01b5f5260045ffd5b346102af576108c1611acc3661142d565b92919091613436565b60e03660031901126102af57610fe7600435611af08161029e565b602435611afc8161029e565b604435611b088161029e565b606435611b14816105bf565b6084359060a43592611b25846105aa565b60c43594611b34610d4a613b7b565b60405196611b436020896104ca565b5f8852613d6f565b346102af57611b5936611760565b601c546001600160a01b0316611bd85761172091611ba9906001600160a01b038116151580611bc6575b611b8c9061347e565b60018060a01b03166001600160601b0360a01b601c541617601c55565b60018060a01b03166001600160601b0360a01b601d541617601d55565b506001600160a01b0383161515611b83565b60405162461bcd60e51b815260206004820152601660248201527511dbdd995c9b985b98d948185b1c9958591e481cd95d60521b6044820152606490fd5b60c03660031901126102af57600435611c2e8161029e565b602435611c3a8161029e565b604435611c468161029e565b60643592611c53846105bf565b6084359060a43593611c66610d4a613b7b565b611c7286858385614494565b92611c8061183e858961482f565b611a9d576001600160a01b0382811690841610928315611f3a5791925b15611f345794905b611cae84614176565b819691968199611cc6885f52600360205260405f2090565b54611e28575050505085151580611e1f575b15611e1057611d1c610ee9958561048d99611cfb86611cf68c61337b565b6133d6565b925b611d0f835f52600360205260405f2090565b54611df4575b868b614cb6565b95611d25614604565b926001600160a01b03841615611dec575b906001600160801b0380611d7993611d57611d50856134be565b8789614ca3565b611d6a611d63826134be565b8989614ca3565b16600f0b9116600f0b86614c4d565b611d84868584614d61565b611d96845f52600360205260405f2090565b611da1878254612345565b9055611db06115988330615224565b611dc0575050506119c581614176565b611de5611a4293611ddc611dd2613414565b93611a2585612366565b611a2583612378565b34916142db565b339350611d36565b505081611e00916148ca565b85611e0a81614176565b90611d15565b630726b13f60e41b5f5260045ffd5b50811515611cd8565b611e3a83839c95969798999a9c614873565b948515611e5c575b505050508594939291610ee996611d1c9261048d9a611cfd565b86955088979691611ef5611f0a969b9a670de0b6b3a7640000611eee611f0595611ece611e87612674565b91611ebe611e93612674565b96611eae611e9f6104eb565b6001600160a01b03909d168d52565b6001600160a01b031660208c0152565b6001600160a01b031660408a0152565b606088019081525f608089015260a088019384525f60c089015251612366565b5251612366565b6001600160e81b03199091169052565b612e36565b50948515611f25579394929391929091878682610ee9611e42565b6314033f2160e11b5f5260045ffd5b90611ca5565b92611c9d565b611f4936611130565b5f949391929491611f58614194565b94611f6286613bc4565b6001611f6e3330615224565b5d611f78336141fd565b6001600160a01b031695863b156102af57611fac965f9283604051809a81958294631c6e724760e31b84526004840161258e565b03925af19485156112555761048d95611ffa575b50611fdb9192611fd5346112193685856125c0565b336123f2565b91611fe4614373565b611fed336143b7565b5d604051918291826109ff565b611fdb92505f612009916104ca565b5f91611fc0565b6001600160401b0381116104c557601f01601f191660200190565b92919261203782612010565b9161204560405193846104ca565b8294818452818301116102af578281602093845f960137010152565b805180835260209291819084018484015e5f828201840152601f01601f1916010190565b909161209c6105a793604084526040840190612061565b916020818403910152612061565b346102af5760203660031901126102af576004356001600160401b0381116102af57366023820112156102af576120eb90369060248160040135910161202b565b8051810190604081602084019303126102af5760208101516001600160401b0381116102af57826020612120928401016134ce565b916040820151916001600160401b0383116102af5761214292016020016134ce565b9061048d60405192839283612085565b346102af5761076a612163366106f1565b929190916135ba565b346102af5760803660031901126102af576004356121898161029e565b6024356121958161029e565b604435915f516020615e455f395f51905f5261047d606435936001600160a01b038416936121f79087906121ea9033881415806122e6575b612256576001600160a01b03165f90815260016020526040902090565b905f5260205260405f2090565b612202868254612338565b90556001600160a01b0381165f9081526001602052604090206122269087906121ea565b612231868254612345565b90556040805133815260208101969096526001600160a01b0390911694918291820190565b61228d836121ea336122788560018060a01b03165f52600260205260405f2090565b9060018060a01b03165f5260205260405f2090565b5489600182016122b3575b50506001600160a01b03165f90815260016020526040902090565b6122bc91612338565b6122de846121ea336122788660018060a01b03165f52600260205260405f2090565b555f89612298565b5061231161183e61230a336122788560018060a01b03165f525f60205260405f2090565b5460ff1690565b6121cd565b634e487b7160e01b5f52601160045260245ffd5b5f1981019190821161049157565b9190820391821161049157565b9190820180921161049157565b634e487b7160e01b5f52603260045260245ffd5b8051156123735760200190565b612352565b8051600110156123735760400190565b80518210156123735760209160051b010190565b92919060a08401518051156123735760200151600160e81b16156123c35761118a936135ba565b90915061118a92612e36565b90156123735790565b91908110156123735760051b0190565b356105a78161029e565b9291926123fe84610529565b9061240c60405192836104ca565b848252601f1961241b86610529565b0136602084013781945f5b818110612434575050505050565b8061245661244560019385896123d8565b3561244f8161029e565b8530614dba565b5c6124618287612388565b5201612426565b96612502906125119961247c610d4a613b7b565b604080516001600160a01b038c81166020830190815287821693830193909352871660608201526001600160e81b03198816608082015260a0810189905289151560c082015260e081018b90526001600160401b038416610100820152336101208201529161014083015261014082526124f8610160836104ca565b3391519020613c1f565b5061250b61251e565b96613d6f565b905f61251b613b7b565b5d565b6040519061252d6020836104ca565b5f8252565b1561253957565b60405162461bcd60e51b815260206004820152602760248201527f4f6e6c792070726f746f636f6c2063616e206372656174652070726f746f636f6044820152666c20706f6f6c7360c81b6064820152608490fd5b90918060409360208452816020850152848401375f828201840152601f01601f1916010190565b6040513d5f823e3d90fd5b9291906125cc81610529565b936125da60405195866104ca565b602085838152019160051b81019283116102af57905b8282106125fc57505050565b60208091833561260b8161029e565b8152019101906125f0565b1561261d57565b60405162461bcd60e51b815260206004820152600e60248201526d4f6e6c7920656d657267656e637960901b6044820152606490fd5b9761266e906125119a612667610d4a613b7b565b369161202b565b97613fe4565b6040805190919061268583826104ca565b6001815291601f1901366020840137565b906126a082610529565b6126ad60405191826104ca565b82815280926126be601f1991610529565b0190602036910137565b926126f46105a795936126e661270294608088526080880190612061565b908682036020880152612061565b908482036040860152612061565b916060818403910152612061565b9080601f830112156102af57815161272781610529565b9261273560405194856104ca565b81845260208085019260051b8201019283116102af57602001905b82821061275d5750505090565b8151815260209182019101612750565b906020828203126102af5781516001600160401b0381116102af576105a79201612710565b90602080835192838152019201905f5b8181106127af5750505090565b82516001600160801b03168452602093840193909201916001016127a2565b90602080835192838152019201905f5b8181106127eb5750505090565b825161ffff168452602093840193909201916001016127de565b60c0809160018060a01b03815116845260018060a01b03602082015116602085015260408101516040850152606081015160608501526080810151608085015260a081015160a085015201511515910152565b604080825282516001600160a01b0316908201526105a7929060208301516001600160a01b0316606082015260408301516001600160a01b0316608082015261291d6101006129026128ed6128d76128c160608901516101e060a0890152610220880190610852565b6080890151878203603f190160c0890152612792565b60a0880151868203603f190160e0880152612792565b60c0870151858203603f1901848701526127ce565b60e08601511515610120850152940151610140830190612805565b6020818403910152612061565b9391939290925f935f5b60a08301518051821015612d83576129749061296661295884600160e81b93612388565b516001600160e81b03191690565b166001600160e81b03191690565b61298057600101612934565b50909192935060015b15612d765760a082019361299e855151612696565b956129aa865151612696565b506129b6865151612696565b946129cc6129c76129588951612366565b6143c2565b905f5b88518051821015612a535790612a4d612a3a6080612a318b8f612a2b87612a256129fe6129588360019d612388565b85516020870151604090970151919687926001600160a01b03908116929181169116614494565b92612388565b526143c2565b015161ffff1690565b612a44838c612388565b9061ffff169052565b016129cf565b50509297965093949290945a612a698430615224565b5c90612a736104eb565b6001600160a01b0390951685523260208601524360408601524260608601523a608086015260a0850152151560c084015280516001600160a01b03166020820180519095919491906001600160a01b03166040840180519099919291906001600160a01b031695606086015160808701978851612aef90151590565b95612af8610509565b6001600160a01b03909b168b526001600160a01b031660208b01526001600160a01b031660408a01526060890152608088015260a087015260c0860152151560e0850152610100840152516001600160a01b031692516001600160a01b031685519091906001600160a01b03169051151591612b72610519565b6001600160a01b0390951685526001600160a01b031660208501526001600160a01b031660408401525f606084018190526080840181905260a0840181905260c0840152151560e0830152825115155f14610f18610f18612d0196612cd65f97612ce395612d6557612cc8612c07897f000000000000000000000000000000000000000000000000000000000000000061453c565b915b602081015115158b14612d5757612c408a7f000000000000000000000000000000000000000000000000000000000000000061453c565b995b604082015115158c14612d4457612c876060612c7e837f000000000000000000000000000000000000000000000000000000000000000061453c565b935b0151151590565b8c14612d3557612cb7907f000000000000000000000000000000000000000000000000000000000000000061453c565b905b6040519a8b94602086016126c8565b03601f1981018852876104ca565b516001600160a01b031690565b908360405180968195829463ecb1186d60e01b845260048401612858565b03925af1908115611255575f91612d16575091565b612d3291503d805f833e612d2a81836104ca565b81019061276d565b91565b50612d3e61251e565b90612cb9565b612c876060612d5161251e565b93612c80565b612d5f61251e565b99612c42565b612cc8612d7061251e565b91612c09565b9061118a9394925061318f565b505090919293612989565b908160209103126102af575190565b80516001600160a01b03908116835260208083015182169084015260408083015190911690830152606080820151908301526080808201516001600160801b0316908301526102be919060e090819060a0818101516001600160801b03169085015260c08181015161ffff169085015201511515910152565b80612e28610120926105a79594612d9d565b816101008201520190612061565b805160208201805160408401805160a086018051909894979694959294936001600160a01b0393841693908116921690612e6f90612366565b516001600160e81b03191691612e8493614494565b9551612e8f90612366565b516001600160e81b031916612ea3906143c2565b81519093906001600160a01b031695516001600160a01b031692516001600160a01b0316946060830151612ed690612366565b51608086015161ffff16608090940151151594612ef1610519565b6001600160a01b0390991689526001600160a01b031660208901526001600160a01b03909616604088019081529560608801526001600160801b031660808701526001600160801b031660a086015261ffff1660c0850152151560e0840152805115155f1492613050610f18610f1860209561306e976130de57612cd6612f98867f0000000000000000000000000000000000000000000000000000000000000000614695565b87890151156130cd57612cc8612fce887f0000000000000000000000000000000000000000000000000000000000000000614695565b985b6040810151156130ba5761301160606130098b7f0000000000000000000000000000000000000000000000000000000000000000614695565b920151151590565b156130ac57613040897f0000000000000000000000000000000000000000000000000000000000000000614695565b905b6040519a8b948d86016126c8565b905f6040518096819582946305e3344d60e41b845260048401612e16565b03925af1908115611255575f91613083575091565b612d32915060203d6020116130a5575b61309d81836104ca565b810190612d8e565b503d613093565b6130b461251e565b90613042565b61301160606130c761251e565b92612c80565b612cc86130d861251e565b98612fd0565b612cd66130e961251e565b612f98565b604080825282516001600160a01b0316908201526105a7929060208301516001600160a01b0316606082015260408301516001600160a01b0316608082015261291d60e061318261316b6131566128c1606089015161010060a0890152610140880190610852565b60a0880151868203603f190185880152612792565b60c0870151858203603f19016101008701526127ce565b9401511515610120830152565b90919260a08201926131a2845151612696565b916131ae855151612696565b506131ba855151612696565b956131cb6129c76129588851612366565b5f5b8751805182101561320c57906132066131fc6080612a318b8b612a2b87612a256129fe6129588360019d612388565b612a44838d612388565b016131cd565b5050855160208701805160408901805160608b015160808c018051999e9b9d50929b969a94996001600160a01b0396871699939894871696909391921690151595613255610519565b6001600160a01b03909a168a526001600160a01b031660208a01526001600160a01b031660408901526060880152608087015260a086015260c0850152151560e0840152516001600160a01b031692516001600160a01b031685519091906001600160a01b031690511515916132c9610519565b6001600160a01b0390951685526001600160a01b031660208501526001600160a01b031660408401525f606084018190526080840181905260a0840181905260c0840152151560e0830152825115155f14610f18610f18612d0196612cd65f9761335e95612d6557612cc8612c07897f000000000000000000000000000000000000000000000000000000000000000061453c565b908360405180968195829462db90d160e81b8452600484016130ee565b90670de0b6b3a7640000820291808304670de0b6b3a7640000149015171561049157565b9067120a871cc002000082029180830467120a871cc0020000149015171561049157565b8181029291811591840414171561049157565b81156133e0570490565b634e487b7160e01b5f52601260045260245ffd5b600f0b6f7fffffffffffffffffffffffffffffff198114610491575f0390565b6040516060919061342583826104ca565b6002815291601f1901366020840137565b9291905f5b60a085015180518210156134705761345882600160e81b92612388565b51166134665760010161343b565b5061118a9361292a565b505090915061118a9261318f565b1561348557565b60405162461bcd60e51b8152602060048201526011602482015270496e76616c69642061646472657373657360781b6044820152606490fd5b600160ff1b8114610491575f0390565b81601f820112156102af578051906134e582612010565b926134f360405194856104ca565b828452602083830101116102af57815f9260208093018386015e8301015290565b81516001600160a01b039081168252602080840151821690830152604080840151909116908201526105a7929161020091906135ac906101009060608101516060850152613572608082015160808601906001600160801b03169052565b60a0818101516001600160801b03169085015260c08181015161ffff169085015260e0818101511515908501520151610100830190612805565b816101e08201520190612061565b80519192916001600160a01b03166020820151909490613606906001600160a01b031660408401519096906001600160a01b031660a08501976136006129588a51612366565b92614494565b94600160e81b6136196129588351612366565b1615613b1e576129c761295861362f9251612366565b936136805a61363e8430615224565b5c9061365a61364b6104eb565b6001600160a01b039096168652565b3260208601524360408601524260608601523a608086015260a0850152151560c0840152565b82516001600160a01b03166020840151909290613726906001600160a01b0316604086015161371d906001600160a01b03166136bf6060890151612366565b516136ef6136d260808d015161ffff1690565b92611ebe6136e360808d0151151590565b96611eae611e9f610509565b60608801526001600160801b03861660808801526001600160801b03891660a088015261ffff1660c0870152565b151560e0850152565b610100830152845115613b10578251613834906001600160a01b0316602085015161380e906001600160a01b031660408701516138059088908b906137d6906001600160a01b03165b6137c661379b60806137938161378860608a0151612366565b5197015161ffff1690565b960151151590565b966137b66137a7610519565b6001600160a01b03909b168b52565b6001600160a01b031660208a0152565b6001600160a01b03166040880152565b60608601526001600160801b03871660808601526001600160801b038a1660a08601525b61ffff1660c0850152565b151560e0830152565b7f0000000000000000000000000000000000000000000000000000000000000000614695565b945b602081015115613b025783516138ce906001600160a01b031660208601516138a8906001600160a01b031660408801516138059089908790613880906001600160a01b031661376f565b60608601526001600160801b03881660808601526001600160801b038b1660a08601526137fa565b7f0000000000000000000000000000000000000000000000000000000000000000614695565b935b604082015115613af457805161398c906001600160a01b03166020830151613966906001600160a01b03166040850151613805906001600160a01b031661391a6060880151612366565b5161393e61392d60808b015161ffff1690565b926137c661379b60808c0151151590565b60608601526001600160801b03891660808601526001600160801b038c1660a08601526137fa565b7f0000000000000000000000000000000000000000000000000000000000000000614695565b955b606083015115613ad55781516001600160a01b031660208301519094906001600160a01b031660408401519094906001600160a01b031660608501516139d390612366565b5160809092015161ffff166080909501511515956139ef610519565b6001600160a01b0390981688526001600160a01b031660208801526001600160a01b0316604087015260608601526001600160801b031660808501526001600160801b031660a084015261ffff1660c0830152151560e0820152613a73907f0000000000000000000000000000000000000000000000000000000000000000614695565b61306e94613a90613a9e926020965b6040519687948986016126c8565b03601f1981018452836104ca565b6040810151613ab790610f18906001600160a01b031681565b905f604051809681958294633e8cbbc160e21b845260048401613514565b50505050613a9e61306e94613a90602095613aee61251e565b90613a82565b613afc61251e565b9561398e565b613b0a61251e565b936138d0565b613b1861251e565b94613836565b505061118a9350919091612e36565b90604051613b3a816104aa565b82546001600160a01b03908116825260018401548116602083015260029390930154928316604082015260489290921b6001600160e81b0319166060830152565b60405160208101907f626529a6be7cb2fb96a7ed93849b4ef74c980495dfe61fd514c95dcd9da51c3582523060601b604082015260348152613bbe6054826104ca565b51902090565b805c6102af576001905d565b63ffffffff6101009116019063ffffffff821161049157565b63ffffffff60019116019063ffffffff821161049157565b6001600160401b036001911601906001600160401b03821161049157565b91613c40613c36846009905f5260205260405f2090565b5463ffffffff1690565b63ffffffff81168015613d6057431115613d5157613c60613c6991613bd0565b63ffffffff1690565b4311613d42576001600160a01b0382165f908152600a60205260409020546001600160401b03166001600160401b03821603613d3357613cce613d0091613cc9613cbc866009905f5260205260405f2090565b805463ffffffff19169055565b613c01565b6001600160a01b0383165f908152600a60205260409020906001600160401b03166001600160401b0319825416179055565b6001600160a01b0316907f5ed00d9781aaac5f5ab01a93ece28fca0f8ffe70c108140274d8fec00477ce805f80a3600190565b632071cf9f60e11b5f5260045ffd5b63586b1f3960e01b5f5260045ffd5b630376613560e51b5f5260045ffd5b63ea3c1a4f60e01b5f5260045ffd5b90919297969495613d7e614604565b956001600160a01b03871615613fdc575b600160e91b8a16613fb4575b50613da889858585614494565b90620100008a60e81c16613f6a575b613dc082614176565b818197929c8b8a613dcf612674565b613dd7612674565b92613de06104eb565b6001600160a01b038c168152976001600160a01b038d1660208a01526001600160a01b03166040890152606088019182521515608088015260a087019283525f60c08801525b51613e3090612366565b5251613e3b90612366565b6001600160e81b03199091169052613e5292612e36565b50948515611f25578886613e6792819d61506d565b808510613f535750613eee9392613ee792613ee092613ecb906001600160a01b038085169084161015613f4c578a5b8015613f31576001600160801b038a16600f0b905b15613f1e57613ec56001600160801b038916600f0b6133f4565b91614c4d565b8815613f175780985b15613f0f5750946134be565b8686614ca3565b8284614ca3565b613efb6115988330615224565b613f0457505050565b6102be9234926150df565b9050946134be565b8198613ed4565b6001600160801b038a16600f0b91614c4d565b613f466001600160801b038916600f0b6133f4565b90613eab565b8a15613e96565b63d438755d60e01b5f52600452602484905260445ffd5b601b5460ff8116611a9d5760081c62ffffff1615613db757613fa0613f9a61230a845f52601a60205260405f2090565b60ff1690565b15613db75763636280a760e01b5f5260045ffd5b61183e613fc391885f8d614ec0565b613fcd575f613d9b565b6377bbcbed60e11b5f5260045ffd5b339650613d8f565b91958499989686989294969596613ff9614604565b986001600160a01b038a161561416e575b898560e01c6101008116614132575b600160e91b8416614110575b50505061403481838888614494565b93620100008260e81c166140c0575b61404c85614176565b98819e8a94929361405b612674565b90614064612674565b9361406d6104eb565b6001600160a01b038d168152986001600160a01b038e1660208b01526001600160a01b031660408a0152606089019283521515608089015260a088019384526001600160e01b03191660c0880152613e26565b97509550601b549560ff8716611a9d578b9762ffffff6140e18c9960081c90565b16156140435796509650614103613f9a61230a855f52601a60205260405f2090565b611a9d578a968996614043565b614122949a508361183e949a50614ec0565b613fcd57899588955f8981614025565b9199509097506141519061183e9061414a9030615224565b5c89614e3e565b61415f578b97898b98614019565b630e85e06f60e21b5f5260045ffd5b33995061400a565b5f52600460205260405f2054906001600160801b0382169160801c90565b60405160208101907f626529a6be7cb2fb96a7ed93849b4ef74c980495dfe61fd514c95dcd9da51c3582523060601b60408201527f88f108d443a200407df3d92fc06ed196d7b48635560cc21c3b1819792e11c1a7605482015260548152613bbe6074826104ca565b60405160208101907f507ba82850c15277b79bae90c6e97b66228a117b64d05e46b3182d141df61ce282523060601b6040820152603481526142406054826104ca565b5190205d565b8151915f5b8381106142585750505050565b6001906001600160a01b0361426d8285612388565b511661427a818630614dba565b5c80614289575b50500161424b565b5f916142a991838113156142b1576142a290888361536a565b8630614dba565b5d5f80614281565b6142bd6142cf916134be565b821585146142d45784905b898461529b565b6142a2565b84906142c8565b90918251925f5b8481106142f0575050505050565b6001906001600160a01b036143058285612388565b5116614312818730614dba565b5c80614321575b5050016142e2565b5f9161434191838113156143495761433a90898361536a565b8730614dba565b5d5f80614319565b614355614367916134be565b8215851461436c5788905b8a8461529b565b61433a565b8490614360565b5f60405160208101907f507ba82850c15277b79bae90c6e97b66228a117b64d05e46b3182d141df61ce282523060601b6040820152603481526142406054826104ca565b61251b5f9130615224565b6040519060a08201908282106001600160401b038311176104c557614488610fff916105a7936040525f85525f60208601525f60408601525f60608601525f608086015260e81c61441a600182161515869015159052565b61443d614434600183811c627fffff165b1662ffffff1690565b15156020870152565b61445d6144546001600284901c623fffff1661442b565b15156040870152565b61447d6144746001600384901c621fffff1661442b565b15156060870152565b60041c620fffff1690565b1661ffff166080830152565b9092906001600160a01b0380851690821610156145005792915b6040516bffffffffffffffffffffffff19606095861b81166020830190815294861b811660348301529190941b1660488401526001600160e81b031916605c830152603f825290613bbe605f826104ca565b916144ae565b906020828203126102af5781516001600160401b0381116102af576105a792016134ce565b610100810192916102be9190612d9d565b6001600160a01b03811680156145f957813b156145f95761455c826153e7565b80519093901561456d575b50505090565b604051633bd1104b60e01b815293505f918491829084908290614593906004830161452b565b03925af15f92816145d5575b506145b65750506145ae61251e565b5f8080614567565b8180516145c5575b50506145ae565b6145ce9161545a565b5f806145be565b6145f29193503d805f833e6145ea81836104ca565b810190614506565b915f61459f565b5050506105a761251e565b60405160208101907f507ba82850c15277b79bae90c6e97b66228a117b64d05e46b3182d141df61ce282523060601b6040820152603481526146476054826104ca565b5190205c90565b90156123735780359060be19813603018212156102af570190565b91908110156123735760051b8101359060be19813603018212156102af570190565b356105a7816105aa565b6001600160a01b0381169081156145f9573b1561470a575f9182916040518094818094633bd1104b60e01b82526146d460048301610100810192612d9d565b03925af15f91816146ee575b506105a757506105a761251e565b6147039192503d805f833e6145ea81836104ca565b905f6146e0565b50506105a761251e565b63ffffffff5f199116019063ffffffff821161049157565b9061474361230a83601a905f5260205260405f2090565b9060ff80821692169282841461482957601b549262ffffff6147658560081c90565b1694159015811580614822575b156147e557505063ffffffff84166147ca575b9061479d6147ac925b601a905f5260205260405f2090565b9060ff1660ff19825416179055565b6147c163ffffffff63ffffff00931660081b90565b91191617601b55565b929061479d6147db6147ac93614714565b9491925050614785565b81614819575b506147fe575b9061479d6147ac9261478e565b929061479d61480f6147ac93613be9565b94919250506147f1565b9050155f6147eb565b5080614772565b50505050565b600160f81b161561486757601b5460ff811661486d5760081c62ffffff1615614867575f52601a60205260ff8060405f205416161590565b50600190565b50505f90565b906001600160801b031690811561486d576001600160801b0316670de0b6b3a7640000810290808204670de0b6b3a76400001490151715610491570490565b81810392915f13801582851316918412161761049157565b6006549091906148e86001600160a01b0382169160a01c61ffff1690565b906001600160a01b038116158015614bc2575b614829575f848152600460205260409020546001600160801b0381169060801c9092614940614933876007905f5260205260405f2090565b546001600160801b031690565b916001600160801b0361495f614933896008905f5260205260405f2090565b951692831580614bb1575b614b7e576001600160801b0380614986816149909416876148b2565b93169616866148b2565b915f8213801590614b74575b614b6a5761ffff6149d7926149c56149b78a6149df976133c3565b670de0b6b3a7640000900490565b80821015614b625750915b16906133c3565b612710900490565b928315614b5a576149fc6149f66149b787846133c3565b83612345565b8015614b51577fe7c2742bfe08378628d04b12904afd6d2ba3e77d93558b70cc5b82b5e512156295614a47614a42614a3b614a5694611cf6888b6133c3565b8098612338565b61337b565b9080614b4b57506001906133d6565b91808511614b41575b509081614af5928211614b39575b50614aa4614a866001600160801b038616600f0b6133f4565b614a9b6001600160801b038416600f0b6133f4565b9088600361559c565b614abf614aba876005905f5260205260405f2090565b613b2d565b84614b1c575b818481614afa575b50505060405193849384604091949392606082019560018060a01b0316825260208201520152565b0390a2565b60209290920151614b1492906001600160a01b031661536a565b5f8184614acd565b8051614b3490869086906001600160a01b031661536a565b614ac5565b90505f614a6d565b9350614af5614a5f565b906133d6565b50505050505050565b505050505050565b9050916149d0565b5050505050505050565b505f83131561499c565b50505050505050614bae815f614b9e81946007905f5260205260405f2090565b556008905f5260205260405f2090565b55565b506001600160801b0382161561496a565b5061ffff8216156148fb565b91909160018060a01b0316805f52600160205260405f20835f5260205260405f2080549083820391821161049157556040805133815260208101939093525f925f516020615e455f395f51905f5291819081015b0390a4565b90600f0b90600f0b019060016001607f1b0319821260016001607f1b0383131761049157565b9091815f5260046020526001600160801b03614c80614c7660405f205495838716600f0b614c27565b928560801d614c27565b81199060801b16911617918203614c95575050565b5f52600460205260405f2055565b90614cae9130614dba565b90815c01905d565b92909394855f52600360205260405f2054155f14614cf457505050614cdb9250612345565b905b8115614ce557565b63283eeadf60e01b5f5260045ffd5b909193614d0a82670de0b6b3a7640000926133c3565b04830180931161049157614d31670de0b6b3a7640000916001600160801b038094166133c3565b04921691820180921161049157614d54614d5b936003905f5260205260405f2090565b54906155fd565b90614cdd565b91909160018060a01b031690815f52600160205260405f20835f5260205260405f2080549082820180921161049157556040805133815260208101929092525f915f516020615e455f395f51905f529181908101614c22565b916040519160208301937f71aa94563c1d78d77df681ad802fc1a81ea7d00cffe4bbe002400e1d66de80d285526001600160601b03199060601b1660408401526001600160601b03199060601b1660548301526001600160601b03199060601b166068820152605c8152613bbe607c826104ca565b60088210156123735701905f90565b610100811615614eb95760ff60135416614ea557614e619060091c600716613f9a565b60ff811615614ea157614e7590600b614e2f565b508054614e869060101c60ff161590565b614ea157614e939061568e565b81614e9c575090565b905090565b5090565b5080614eae5790565b506105a7600f61568e565b5050600190565b919291600160e91b16156150655760195460ff81166150435760081c60ff1661501c575b614efd613f9a620e000060ff9316617fff9060111c1690565b1660018103614f1157506105a791506156a8565b60028103614f33575050325f9081526014602052604090206105a7915061230a565b60038103614f5c5750506001600160a01b03165f9081526015602052604090206105a79061230a565b60048103614f935750325f908152601460205260409020909150614f7f9061230a565b9081614f89575090565b6105a791506156a8565b60058103614fbd57506001600160a01b039091165f908152601560205260409020614f7f9061230a565b600614614fcb575050600190565b325f908152601460205260409020614fe29061230a565b9182614ff3575b5081614f89575090565b6001600160a01b03165f9081526015602052604090209091506150159061230a565b905f614fe9565b325f9081526014602052604090206150379061183e9061230a565b15614ee4575050505f90565b5050506001600160a01b03165f9081526015602052604090206105a79061230a565b505050600190565b6001600160801b0392935f146150a05750169080821061508b575050565b630173586760e01b5f5260045260245260445ffd5b905016908082106150af575050565b6368580a1960e01b5f5260045260245260445ffd5b9190915f838201938412911290801582169115161761049157565b90926150ec848330614dba565b5c6150f8848430614dba565b5c916001600160a01b03858116929087168084146151c157918161515b95935f6102be9a9694125f146151a157615131615140926134be565b9061519a5782905b888761529b565b5f83131561516057505061515590848661536a565b826153db565b6153db565b5f8312615170575b505050615155565b61517c61518a936134be565b9161519257905b858761529b565b5f8080615168565b505f90615183565b5f90615139565b505f81136151b0575b50615140565b6151bb90878661536a565b5f6151aa565b92506102be9695936151d2916150c4565b925f8412156151fe57506151e861515b936134be565b916151f657905b838561529b565b505f906151ef565b92915050825f8213615213575b5050506153db565b61521c9261536a565b5f808261520b565b906040519060208201927fe88690b85c82523984f05d1f281684a73aa4d4303bca19cfe29aa89ae744616a84526001600160601b03199060601b1660408301526001600160601b03199060601b16605482015260488152613bbe6068826104ca565b908160209103126102af57516105a7816105aa565b9192916001600160a01b031690816152c5575050036152b657565b63a7adb78f60e01b5f5260045ffd5b9192909261535b576040516323b872dd60e01b81526001600160a01b0390921660048301523060248301526044820152906020908290815f81606481015b03925af1908115611255575f9161532c575b501561531d57565b633773869160e01b5f5260045ffd5b61534e915060203d602011615354575b61534681836104ca565b810190615286565b5f615315565b503d61533c565b63dc4087eb60e01b5f5260045ffd5b6001600160a01b0316806153a457505f80809381938290821561539a575b6001600160a01b031690f11561125557565b6108fc9150615388565b60405163a9059cbb60e01b81526001600160a01b0390921660048301526024820192909252906020908290815f8160448101615303565b5f9161251b9130614dba565b90606091805c90811580615445575b156153ff575050565b909250601f6040519380855201908160051c905f5b82811061542c57505050601f19168201602001604052565b80600180928401015c60208260051b8901015201615414565b9350604051935f8552602085016040526153f6565b601f825180835d0160051c915f5b8381106154755750505050565b80602060019260051b8401015182828601015d01615468565b903590601e19813603018212156102af57018035906001600160401b0382116102af57602001918160051b360383136102af57565b356105a7816105bf565b9493929190606086016154e0818861548e565b90501561558d576154f4608088018861548e565b9050615500828961548e565b9190500361557e576001615514828961548e565b9050145f14615572578661552a6105a7986123e8565b91615537602083016123e8565b61556a60a061556361555e615558615551604089016123e8565b968861548e565b906123cf565b6154c3565b940161468b565b936003615baa565b506105a79560036157f6565b6305a7a8f960e11b5f5260045ffd5b63040e8c7760e51b5f5260045ffd5b6001909392930191815f52826020526001600160801b036155d46155ca60405f205496838816600f0b614c27565b928660801d614c27565b81199060801b169116179283036155ea57505050565b5f5260205260405f2055565b156102af57565b90915f19838309928083029283808610950394808603951461567b579082916156278684116155f6565b09600182190182168092046002816003021880820260020302808202600203028082026002030280820260020302808202600203028091026002030293600183805f03040190848311900302920304170290565b5050915061568a8215156155f6565b0490565b5460ff8116908115614eb95760ff9060081c169043061090565b51156156b357600190565b5f90565b9190916040818403126102af5780516001600160401b0381116102af57836156e0918301612710565b9260208201516001600160401b0381116102af576105a79201612710565b90602080835192838152019201905f5b81811061571b5750505090565b82516001600160e81b03191684526020938401939092019160010161570e565b906105a79060018060a01b03835116815260018060a01b03602084015116602082015260018060a01b03604084015116604082015260c0806157ad61578f606087015160e0606087015260e0860190610852565b60808781015115159086015260a087015185820360a08701526156fe565b9401516001600160e01b031916910152565b916157e8906157da6105a7959360608652606086019061573b565b908482036020860152612792565b916040818403910152612792565b9694959092939196606084019761580d898661548e565b969050615b67575b5061581f85612696565b9161582986612696565b905f5b878110615ad75750815f918583896158f06159199d9e9f6158c46158e9615852856123e8565b946158db615862602083016123e8565b946158976158d4615875604086016123e8565b615882608087018761548e565b93909461589160a0890161468b565b9761548e565b9890996158b46158a56104eb565b6001600160a01b03909e168e52565b6001600160a01b031660208d0152565b6001600160a01b031660408b0152565b3691610540565b606087015215156080860152565b36916105d1565b60a082015260c08101829052604051635efa47c760e11b81529c8d9586948593600485016157bf565b03926001600160a01b03165af1908115611255575f975f92615ab0575b505f5b8781106159b557505050505090615962949561595c9392615966575b505061232a565b90612388565b5190565b8161597660a06159a0940161468b565b156159a757602061598791016123e8565b6159996159938561232a565b87612388565b5191614ca3565b5f80615955565b6159b0906123e8565b615987565b80615a768a896159df846159d86001976159d2608086018661548e565b906123d8565b3593612388565b51615a1d6159fd6159f0878d612388565b516001600160801b031690565b82615a0b6159f0898c612388565b615a1760a0870161468b565b9261506d565b615a278589612388565b5192615a3560a0840161468b565b15615a9057615a5360a06001600160801b038316600f0b940161468b565b15615a7c57506001600160801b03615a6e9116600f0b6133f4565b915b8861559c565b01615939565b6001600160801b03915016600f0b91615a70565b615a5360a0615aaa6001600160801b038516600f0b6133f4565b94611528565b909750615acf91503d805f833e615ac781836104ca565b8101906156b7565b90965f615936565b600190615b61615b57615b3c615b1b8f8c615af1816123e8565b9161360061555e896159d2615b08602087016123e8565b94615b15604088016123e8565b9661548e565b886001915f520160205260405f2054906001600160801b0382169160801c90565b615b498589949394612388565b906001600160801b03169052565b615b498389612388565b0161582c565b615b9590615b7760a0870161468b565b15615b9b57615b8e615b88876123e8565b916134be565b9089614ca3565b5f615815565b615b8e615b88602088016123e8565b9185809c9b829893979b99959a969a615bc58c82868c614494565b96615ca5575b8885615bf289896001915f520160205260405f2054906001600160801b0382169160801c90565b9e8f948298615c02989395615d12565b9b8c809a615c0f9361506d565b615c4a928915615c8a576001600160801b038216600f0b915b8a15615c785750615c446001600160801b038a16600f0b6133f4565b9261559c565b615c56575b5050505050565b615c669415615c70575090614ca3565b5f82818080615c4f565b905090614ca3565b6001600160801b0316600f0b9261559c565b615c9f6001600160801b038a16600f0b6133f4565b91615c28565b8215615cc557615cc0895b615cb9876134be565b908d614ca3565b615bcb565b615cc084615cb0565b91908260409103126102af576020825192015190565b9193926001600160801b039081615d0560409460608752606087019061573b565b9616602085015216910152565b615dbd98935f92615d886040989a979995615d79615d2e612674565b938d615d3986612366565b52615d4f615d45612674565b96611ef588612366565b615d69615d5a6104eb565b6001600160a01b039098168852565b6001600160a01b03166020870152565b6001600160a01b0316848a0152565b6060830152871515608083015260a082015260c08101829052855163a74713cf60e01b81529889958694859360048501615ce4565b03926001600160a01b03165af1928315611255575f93615e12575b508215615de457505090565b90915015615df8576149b76105a79161339f565b615e046105a79161337b565b67120a871cc0020000900490565b615e3591935060403d604011615e3d575b615e2d81836104ca565b810190615cce565b50915f615dd8565b503d615e2356fe1b3d7edb2e9c0b0e7c525b20aaaef0f5940d2ed71663c7d39266ecafac728859a26469706673582212209459fa5a95a76a37ad84d42e26c01d7c2cd639ec397d6da7d3efdfc20da13f0164736f6c634300081e0033",
  "linkReferences": {},
  "deployedLinkReferences": {}
}