{
  "_format": "hh-sol-artifact-1",
  "contractName": "PoolManager",
  "sourceName": "contracts/Core/PoolManager.sol",
  "abi": [
    {
      "inputs": [
        {
          "internalType": "address",
          "name": "_defaultData0Bridge",
          "type": "address"
        },
        {
          "internalType": "address",
          "name": "_defaultData1Bridge",
          "type": "address"
        },
        {
          "internalType": "address",
          "name": "_defaultData2Bridge",
          "type": "address"
        },
        {
          "internalType": "address",
          "name": "_defaultData3Bridge",
          "type": "address"
        }
      ],
      "stateMutability": "nonpayable",
      "type": "constructor"
    },
    {
      "inputs": [],
      "name": "AssetTransferLib__Erc20TransferFailed",
      "type": "error"
    },
    {
      "inputs": [],
      "name": "AssetTransferLib__EthNotExpected",
      "type": "error"
    },
    {
      "inputs": [],
      "name": "AssetTransferLib__IncorrectEthSent",
      "type": "error"
    },
    {
      "inputs": [],
      "name": "CommitReveal__CommitmentExpired",
      "type": "error"
    },
    {
      "inputs": [],
      "name": "CommitReveal__CommitmentTooNew",
      "type": "error"
    },
    {
      "inputs": [],
      "name": "CommitReveal__InvalidCommitment",
      "type": "error"
    },
    {
      "inputs": [],
      "name": "CommitReveal__InvalidNonce",
      "type": "error"
    },
    {
      "inputs": [],
      "name": "PoolManager__AccessDenied",
      "type": "error"
    },
    {
      "inputs": [],
      "name": "PoolManager__AtomicExecutionRequired",
      "type": "error"
    },
    {
      "inputs": [
        {
          "internalType": "uint256",
          "name": "required",
          "type": "uint256"
        },
        {
          "internalType": "uint256",
          "name": "available",
          "type": "uint256"
        }
      ],
      "name": "PoolManager__InsufficientAsset0",
      "type": "error"
    },
    {
      "inputs": [
        {
          "internalType": "uint256",
          "name": "required",
          "type": "uint256"
        },
        {
          "internalType": "uint256",
          "name": "available",
          "type": "uint256"
        }
      ],
      "name": "PoolManager__InsufficientAsset1",
      "type": "error"
    },
    {
      "inputs": [
        {
          "internalType": "uint256",
          "name": "minOut",
          "type": "uint256"
        },
        {
          "internalType": "uint256",
          "name": "actual",
          "type": "uint256"
        }
      ],
      "name": "PoolManager__InsufficientOutput",
      "type": "error"
    },
    {
      "inputs": [],
      "name": "PoolManager__InvalidQuote",
      "type": "error"
    },
    {
      "inputs": [],
      "name": "PoolManager__MismatchedArrays",
      "type": "error"
    },
    {
      "inputs": [],
      "name": "PoolManager__NoHops",
      "type": "error"
    },
    {
      "inputs": [],
      "name": "PoolManager__NoMarkings",
      "type": "error"
    },
    {
      "inputs": [],
      "name": "PoolManager__OperationPaused",
      "type": "error"
    },
    {
      "inputs": [
        {
          "internalType": "uint256",
          "name": "poolID",
          "type": "uint256"
        }
      ],
      "name": "PoolManager__PoolAlreadyExists",
      "type": "error"
    },
    {
      "anonymous": false,
      "inputs": [
        {
          "indexed": true,
          "internalType": "address",
          "name": "owner",
          "type": "address"
        },
        {
          "indexed": true,
          "internalType": "address",
          "name": "spender",
          "type": "address"
        },
        {
          "indexed": true,
          "internalType": "uint256",
          "name": "id",
          "type": "uint256"
        },
        {
          "indexed": false,
          "internalType": "uint256",
          "name": "amount",
          "type": "uint256"
        }
      ],
      "name": "Approval",
      "type": "event"
    },
    {
      "anonymous": false,
      "inputs": [
        {
          "indexed": true,
          "internalType": "bytes32",
          "name": "commitment",
          "type": "bytes32"
        },
        {
          "indexed": true,
          "internalType": "address",
          "name": "trader",
          "type": "address"
        }
      ],
      "name": "CommittedSwapExecuted",
      "type": "event"
    },
    {
      "anonymous": false,
      "inputs": [
        {
          "indexed": true,
          "internalType": "address",
          "name": "owner",
          "type": "address"
        },
        {
          "indexed": true,
          "internalType": "address",
          "name": "operator",
          "type": "address"
        },
        {
          "indexed": false,
          "internalType": "bool",
          "name": "approved",
          "type": "bool"
        }
      ],
      "name": "OperatorSet",
      "type": "event"
    },
    {
      "anonymous": false,
      "inputs": [
        {
          "indexed": true,
          "internalType": "uint256",
          "name": "poolID",
          "type": "uint256"
        },
        {
          "indexed": false,
          "internalType": "address",
          "name": "asset0",
          "type": "address"
        },
        {
          "indexed": false,
          "internalType": "address",
          "name": "asset1",
          "type": "address"
        },
        {
          "indexed": false,
          "internalType": "address",
          "name": "quoter",
          "type": "address"
        },
        {
          "indexed": false,
          "internalType": "bytes3",
          "name": "markings",
          "type": "bytes3"
        }
      ],
      "name": "PoolCreated",
      "type": "event"
    },
    {
      "anonymous": false,
      "inputs": [
        {
          "indexed": false,
          "internalType": "address",
          "name": "treasury",
          "type": "address"
        },
        {
          "indexed": false,
          "internalType": "uint16",
          "name": "feeBps",
          "type": "uint16"
        }
      ],
      "name": "ProtocolFeeConfigured",
      "type": "event"
    },
    {
      "anonymous": false,
      "inputs": [
        {
          "indexed": true,
          "internalType": "bytes32",
          "name": "commitment",
          "type": "bytes32"
        },
        {
          "indexed": true,
          "internalType": "address",
          "name": "trader",
          "type": "address"
        },
        {
          "indexed": false,
          "internalType": "uint32",
          "name": "blockNumber",
          "type": "uint32"
        }
      ],
      "name": "SwapCommitted",
      "type": "event"
    },
    {
      "anonymous": false,
      "inputs": [
        {
          "indexed": false,
          "internalType": "address",
          "name": "caller",
          "type": "address"
        },
        {
          "indexed": true,
          "internalType": "address",
          "name": "from",
          "type": "address"
        },
        {
          "indexed": true,
          "internalType": "address",
          "name": "to",
          "type": "address"
        },
        {
          "indexed": true,
          "internalType": "uint256",
          "name": "id",
          "type": "uint256"
        },
        {
          "indexed": false,
          "internalType": "uint256",
          "name": "amount",
          "type": "uint256"
        }
      ],
      "name": "Transfer",
      "type": "event"
    },
    {
      "inputs": [
        {
          "internalType": "bytes",
          "name": "data",
          "type": "bytes"
        }
      ],
      "name": "_decodeTwoBytes",
      "outputs": [
        {
          "internalType": "bytes",
          "name": "a",
          "type": "bytes"
        },
        {
          "internalType": "bytes",
          "name": "b",
          "type": "bytes"
        }
      ],
      "stateMutability": "pure",
      "type": "function"
    },
    {
      "inputs": [
        {
          "internalType": "address",
          "name": "owner",
          "type": "address"
        },
        {
          "internalType": "address",
          "name": "spender",
          "type": "address"
        },
        {
          "internalType": "uint256",
          "name": "id",
          "type": "uint256"
        }
      ],
      "name": "allowance",
      "outputs": [
        {
          "internalType": "uint256",
          "name": "",
          "type": "uint256"
        }
      ],
      "stateMutability": "view",
      "type": "function"
    },
    {
      "inputs": [
        {
          "internalType": "address",
          "name": "spender",
          "type": "address"
        },
        {
          "internalType": "uint256",
          "name": "id",
          "type": "uint256"
        },
        {
          "internalType": "uint256",
          "name": "amount",
          "type": "uint256"
        }
      ],
      "name": "approve",
      "outputs": [
        {
          "internalType": "bool",
          "name": "",
          "type": "bool"
        }
      ],
      "stateMutability": "nonpayable",
      "type": "function"
    },
    {
      "inputs": [
        {
          "internalType": "address",
          "name": "owner",
          "type": "address"
        },
        {
          "internalType": "uint256",
          "name": "id",
          "type": "uint256"
        }
      ],
      "name": "balanceOf",
      "outputs": [
        {
          "internalType": "uint256",
          "name": "",
          "type": "uint256"
        }
      ],
      "stateMutability": "view",
      "type": "function"
    },
    {
      "inputs": [
        {
          "components": [
            {
              "internalType": "address",
              "name": "asset0",
              "type": "address"
            },
            {
              "internalType": "address",
              "name": "asset1",
              "type": "address"
            },
            {
              "internalType": "address",
              "name": "quoter",
              "type": "address"
            },
            {
              "internalType": "bytes3[]",
              "name": "markings",
              "type": "bytes3[]"
            },
            {
              "internalType": "uint256[]",
              "name": "amounts",
              "type": "uint256[]"
            },
            {
              "internalType": "bool",
              "name": "zeroForOne",
              "type": "bool"
            }
          ],
          "internalType": "struct Hop[]",
          "name": "hops",
          "type": "tuple[]"
        },
        {
          "internalType": "uint256",
          "name": "amountIn",
          "type": "uint256"
        },
        {
          "internalType": "uint256",
          "name": "minAmountOut",
          "type": "uint256"
        }
      ],
      "name": "batchSwap",
      "outputs": [
        {
          "internalType": "uint256",
          "name": "amountOut",
          "type": "uint256"
        }
      ],
      "stateMutability": "payable",
      "type": "function"
    },
    {
      "inputs": [
        {
          "internalType": "bytes32",
          "name": "commitment",
          "type": "bytes32"
        }
      ],
      "name": "commitSwap",
      "outputs": [],
      "stateMutability": "nonpayable",
      "type": "function"
    },
    {
      "inputs": [
        {
          "internalType": "uint256",
          "name": "",
          "type": "uint256"
        }
      ],
      "name": "configurableDataBridges",
      "outputs": [
        {
          "internalType": "address",
          "name": "",
          "type": "address"
        }
      ],
      "stateMutability": "view",
      "type": "function"
    },
    {
      "inputs": [
        {
          "internalType": "address",
          "name": "treasury",
          "type": "address"
        },
        {
          "internalType": "uint16",
          "name": "feeBps",
          "type": "uint16"
        }
      ],
      "name": "configureProtocolFee",
      "outputs": [],
      "stateMutability": "nonpayable",
      "type": "function"
    },
    {
      "inputs": [
        {
          "internalType": "address",
          "name": "asset0",
          "type": "address"
        },
        {
          "internalType": "address",
          "name": "asset1",
          "type": "address"
        },
        {
          "internalType": "address",
          "name": "quoter",
          "type": "address"
        },
        {
          "internalType": "bytes3",
          "name": "markings",
          "type": "bytes3"
        }
      ],
      "name": "createPool",
      "outputs": [
        {
          "internalType": "uint256",
          "name": "poolID",
          "type": "uint256"
        }
      ],
      "stateMutability": "nonpayable",
      "type": "function"
    },
    {
      "inputs": [],
      "name": "defaultData0Bridge",
      "outputs": [
        {
          "internalType": "address",
          "name": "",
          "type": "address"
        }
      ],
      "stateMutability": "view",
      "type": "function"
    },
    {
      "inputs": [],
      "name": "defaultData1Bridge",
      "outputs": [
        {
          "internalType": "address",
          "name": "",
          "type": "address"
        }
      ],
      "stateMutability": "view",
      "type": "function"
    },
    {
      "inputs": [],
      "name": "defaultData2Bridge",
      "outputs": [
        {
          "internalType": "address",
          "name": "",
          "type": "address"
        }
      ],
      "stateMutability": "view",
      "type": "function"
    },
    {
      "inputs": [],
      "name": "defaultData3Bridge",
      "outputs": [
        {
          "internalType": "address",
          "name": "",
          "type": "address"
        }
      ],
      "stateMutability": "view",
      "type": "function"
    },
    {
      "inputs": [
        {
          "internalType": "uint8",
          "name": "newState",
          "type": "uint8"
        }
      ],
      "name": "emergencyPauseProtocolPools",
      "outputs": [],
      "stateMutability": "nonpayable",
      "type": "function"
    },
    {
      "inputs": [
        {
          "internalType": "address",
          "name": "asset0",
          "type": "address"
        },
        {
          "internalType": "address",
          "name": "asset1",
          "type": "address"
        },
        {
          "internalType": "address",
          "name": "quoter",
          "type": "address"
        },
        {
          "internalType": "bytes3",
          "name": "markings",
          "type": "bytes3"
        },
        {
          "internalType": "uint256",
          "name": "amountIn",
          "type": "uint256"
        },
        {
          "internalType": "bool",
          "name": "zeroForOne",
          "type": "bool"
        },
        {
          "internalType": "uint256",
          "name": "minAmountOut",
          "type": "uint256"
        },
        {
          "internalType": "uint64",
          "name": "nonce",
          "type": "uint64"
        },
        {
          "internalType": "bytes32",
          "name": "salt",
          "type": "bytes32"
        }
      ],
      "name": "executeCommittedSwap",
      "outputs": [
        {
          "internalType": "uint256",
          "name": "amountOut",
          "type": "uint256"
        }
      ],
      "stateMutability": "payable",
      "type": "function"
    },
    {
      "inputs": [
        {
          "internalType": "uint256",
          "name": "poolID",
          "type": "uint256"
        },
        {
          "internalType": "address",
          "name": "asset0",
          "type": "address"
        },
        {
          "internalType": "address",
          "name": "asset1",
          "type": "address"
        },
        {
          "internalType": "uint256",
          "name": "amount0",
          "type": "uint256"
        },
        {
          "internalType": "uint256",
          "name": "amount1",
          "type": "uint256"
        },
        {
          "internalType": "uint256",
          "name": "liquidity",
          "type": "uint256"
        },
        {
          "internalType": "address",
          "name": "user",
          "type": "address"
        },
        {
          "internalType": "uint256",
          "name": "msgValue",
          "type": "uint256"
        }
      ],
      "name": "executeLiquidityAdd",
      "outputs": [
        {
          "internalType": "uint256",
          "name": "actualLiquidity",
          "type": "uint256"
        }
      ],
      "stateMutability": "nonpayable",
      "type": "function"
    },
    {
      "inputs": [
        {
          "internalType": "uint256",
          "name": "poolID",
          "type": "uint256"
        },
        {
          "internalType": "address",
          "name": "asset0",
          "type": "address"
        },
        {
          "internalType": "address",
          "name": "asset1",
          "type": "address"
        },
        {
          "internalType": "uint256",
          "name": "amount0",
          "type": "uint256"
        },
        {
          "internalType": "uint256",
          "name": "amount1",
          "type": "uint256"
        },
        {
          "internalType": "uint256",
          "name": "liquidity",
          "type": "uint256"
        },
        {
          "internalType": "address",
          "name": "user",
          "type": "address"
        }
      ],
      "name": "executeLiquidityRemove",
      "outputs": [
        {
          "internalType": "uint256",
          "name": "",
          "type": "uint256"
        },
        {
          "internalType": "uint256",
          "name": "",
          "type": "uint256"
        }
      ],
      "stateMutability": "nonpayable",
      "type": "function"
    },
    {
      "inputs": [
        {
          "internalType": "address",
          "name": "callback",
          "type": "address"
        },
        {
          "internalType": "bytes",
          "name": "data",
          "type": "bytes"
        },
        {
          "internalType": "address[]",
          "name": "tokens",
          "type": "address[]"
        }
      ],
      "name": "flashSession",
      "outputs": [],
      "stateMutability": "payable",
      "type": "function"
    },
    {
      "inputs": [
        {
          "internalType": "address",
          "name": "trader",
          "type": "address"
        }
      ],
      "name": "getCommitNonce",
      "outputs": [
        {
          "internalType": "uint64",
          "name": "nonce",
          "type": "uint64"
        }
      ],
      "stateMutability": "view",
      "type": "function"
    },
    {
      "inputs": [
        {
          "internalType": "uint256",
          "name": "poolId",
          "type": "uint256"
        }
      ],
      "name": "getInventory",
      "outputs": [
        {
          "internalType": "uint128",
          "name": "asset0",
          "type": "uint128"
        },
        {
          "internalType": "uint128",
          "name": "asset1",
          "type": "uint128"
        }
      ],
      "stateMutability": "view",
      "type": "function"
    },
    {
      "inputs": [
        {
          "internalType": "uint256",
          "name": "poolID",
          "type": "uint256"
        }
      ],
      "name": "getPoolInfo",
      "outputs": [
        {
          "internalType": "address",
          "name": "asset0",
          "type": "address"
        },
        {
          "internalType": "address",
          "name": "asset1",
          "type": "address"
        },
        {
          "internalType": "address",
          "name": "quoter",
          "type": "address"
        },
        {
          "internalType": "bytes3",
          "name": "markings",
          "type": "bytes3"
        }
      ],
      "stateMutability": "view",
      "type": "function"
    },
    {
      "inputs": [
        {
          "components": [
            {
              "internalType": "address",
              "name": "asset0",
              "type": "address"
            },
            {
              "internalType": "address",
              "name": "asset1",
              "type": "address"
            },
            {
              "internalType": "address",
              "name": "quoter",
              "type": "address"
            },
            {
              "internalType": "uint256[]",
              "name": "amount",
              "type": "uint256[]"
            },
            {
              "internalType": "bool",
              "name": "zeroForOne",
              "type": "bool"
            },
            {
              "internalType": "bytes3[]",
              "name": "marking",
              "type": "bytes3[]"
            },
            {
              "internalType": "bytes4",
              "name": "traderProtection",
              "type": "bytes4"
            }
          ],
          "internalType": "struct SwapParams",
          "name": "p",
          "type": "tuple"
        },
        {
          "internalType": "uint128",
          "name": "asset0Balance",
          "type": "uint128"
        },
        {
          "internalType": "uint128",
          "name": "asset1Balance",
          "type": "uint128"
        }
      ],
      "name": "getQuote",
      "outputs": [
        {
          "internalType": "uint256",
          "name": "quote",
          "type": "uint256"
        },
        {
          "internalType": "uint256",
          "name": "poolID",
          "type": "uint256"
        }
      ],
      "stateMutability": "nonpayable",
      "type": "function"
    },
    {
      "inputs": [
        {
          "components": [
            {
              "internalType": "address",
              "name": "asset0",
              "type": "address"
            },
            {
              "internalType": "address",
              "name": "asset1",
              "type": "address"
            },
            {
              "internalType": "address",
              "name": "quoter",
              "type": "address"
            },
            {
              "internalType": "uint256[]",
              "name": "amount",
              "type": "uint256[]"
            },
            {
              "internalType": "bool",
              "name": "zeroForOne",
              "type": "bool"
            },
            {
              "internalType": "bytes3[]",
              "name": "marking",
              "type": "bytes3[]"
            },
            {
              "internalType": "bytes4",
              "name": "traderProtection",
              "type": "bytes4"
            }
          ],
          "internalType": "struct SwapParams",
          "name": "p",
          "type": "tuple"
        },
        {
          "internalType": "uint128",
          "name": "asset0Balance",
          "type": "uint128"
        },
        {
          "internalType": "uint128",
          "name": "asset1Balance",
          "type": "uint128"
        },
        {
          "internalType": "address",
          "name": "trader",
          "type": "address"
        }
      ],
      "name": "getQuoteAuto",
      "outputs": [
        {
          "internalType": "uint256",
          "name": "quote",
          "type": "uint256"
        },
        {
          "internalType": "uint256",
          "name": "poolID",
          "type": "uint256"
        }
      ],
      "stateMutability": "nonpayable",
      "type": "function"
    },
    {
      "inputs": [
        {
          "components": [
            {
              "internalType": "address",
              "name": "asset0",
              "type": "address"
            },
            {
              "internalType": "address",
              "name": "asset1",
              "type": "address"
            },
            {
              "internalType": "address",
              "name": "quoter",
              "type": "address"
            },
            {
              "internalType": "uint256[]",
              "name": "amount",
              "type": "uint256[]"
            },
            {
              "internalType": "bool",
              "name": "zeroForOne",
              "type": "bool"
            },
            {
              "internalType": "bytes3[]",
              "name": "marking",
              "type": "bytes3[]"
            },
            {
              "internalType": "bytes4",
              "name": "traderProtection",
              "type": "bytes4"
            }
          ],
          "internalType": "struct SwapParams",
          "name": "p",
          "type": "tuple"
        },
        {
          "internalType": "uint128[]",
          "name": "asset0Balances",
          "type": "uint128[]"
        },
        {
          "internalType": "uint128[]",
          "name": "asset1Balances",
          "type": "uint128[]"
        }
      ],
      "name": "getQuoteBatch",
      "outputs": [
        {
          "internalType": "uint256[]",
          "name": "quote",
          "type": "uint256[]"
        },
        {
          "internalType": "uint256[]",
          "name": "poolID",
          "type": "uint256[]"
        }
      ],
      "stateMutability": "nonpayable",
      "type": "function"
    },
    {
      "inputs": [
        {
          "components": [
            {
              "internalType": "address",
              "name": "asset0",
              "type": "address"
            },
            {
              "internalType": "address",
              "name": "asset1",
              "type": "address"
            },
            {
              "internalType": "address",
              "name": "quoter",
              "type": "address"
            },
            {
              "internalType": "uint256[]",
              "name": "amount",
              "type": "uint256[]"
            },
            {
              "internalType": "bool",
              "name": "zeroForOne",
              "type": "bool"
            },
            {
              "internalType": "bytes3[]",
              "name": "marking",
              "type": "bytes3[]"
            },
            {
              "internalType": "bytes4",
              "name": "traderProtection",
              "type": "bytes4"
            }
          ],
          "internalType": "struct SwapParams",
          "name": "p",
          "type": "tuple"
        },
        {
          "internalType": "uint128[]",
          "name": "asset0Balances",
          "type": "uint128[]"
        },
        {
          "internalType": "uint128[]",
          "name": "asset1Balances",
          "type": "uint128[]"
        },
        {
          "internalType": "address",
          "name": "trader",
          "type": "address"
        }
      ],
      "name": "getQuoteBatchAuto",
      "outputs": [
        {
          "internalType": "uint256[]",
          "name": "quote",
          "type": "uint256[]"
        },
        {
          "internalType": "uint256[]",
          "name": "poolID",
          "type": "uint256[]"
        }
      ],
      "stateMutability": "nonpayable",
      "type": "function"
    },
    {
      "inputs": [
        {
          "internalType": "address",
          "name": "user",
          "type": "address"
        },
        {
          "internalType": "address[]",
          "name": "tokens",
          "type": "address[]"
        }
      ],
      "name": "getUserDeltas",
      "outputs": [
        {
          "internalType": "int256[]",
          "name": "deltas",
          "type": "int256[]"
        }
      ],
      "stateMutability": "view",
      "type": "function"
    },
    {
      "inputs": [
        {
          "internalType": "address",
          "name": "owner",
          "type": "address"
        },
        {
          "internalType": "address",
          "name": "spender",
          "type": "address"
        }
      ],
      "name": "isOperator",
      "outputs": [
        {
          "internalType": "bool",
          "name": "",
          "type": "bool"
        }
      ],
      "stateMutability": "view",
      "type": "function"
    },
    {
      "inputs": [],
      "name": "liquidityManager",
      "outputs": [
        {
          "internalType": "address",
          "name": "",
          "type": "address"
        }
      ],
      "stateMutability": "view",
      "type": "function"
    },
    {
      "inputs": [
        {
          "components": [
            {
              "internalType": "address",
              "name": "asset0",
              "type": "address"
            },
            {
              "internalType": "address",
              "name": "asset1",
              "type": "address"
            },
            {
              "internalType": "address",
              "name": "quoter",
              "type": "address"
            },
            {
              "internalType": "uint256[]",
              "name": "amount",
              "type": "uint256[]"
            },
            {
              "internalType": "bool",
              "name": "zeroForOne",
              "type": "bool"
            },
            {
              "internalType": "bytes3[]",
              "name": "marking",
              "type": "bytes3[]"
            },
            {
              "internalType": "bytes4",
              "name": "traderProtection",
              "type": "bytes4"
            }
          ],
          "internalType": "struct SwapParams",
          "name": "p",
          "type": "tuple"
        },
        {
          "internalType": "uint128",
          "name": "asset0Balance",
          "type": "uint128"
        },
        {
          "internalType": "uint128",
          "name": "asset1Balance",
          "type": "uint128"
        }
      ],
      "name": "routerGetQuote",
      "outputs": [
        {
          "internalType": "uint256",
          "name": "quote",
          "type": "uint256"
        },
        {
          "internalType": "uint256",
          "name": "poolID",
          "type": "uint256"
        }
      ],
      "stateMutability": "nonpayable",
      "type": "function"
    },
    {
      "inputs": [
        {
          "internalType": "uint8",
          "name": "overallSlot",
          "type": "uint8"
        },
        {
          "internalType": "address",
          "name": "bridge",
          "type": "address"
        }
      ],
      "name": "setDataBridge",
      "outputs": [],
      "stateMutability": "nonpayable",
      "type": "function"
    },
    {
      "inputs": [
        {
          "internalType": "address",
          "name": "protocol",
          "type": "address"
        },
        {
          "internalType": "address",
          "name": "emergency",
          "type": "address"
        }
      ],
      "name": "setGovernance",
      "outputs": [],
      "stateMutability": "nonpayable",
      "type": "function"
    },
    {
      "inputs": [
        {
          "internalType": "address",
          "name": "_liquidityManager",
          "type": "address"
        }
      ],
      "name": "setLiquidityManager",
      "outputs": [],
      "stateMutability": "nonpayable",
      "type": "function"
    },
    {
      "inputs": [
        {
          "internalType": "address",
          "name": "operator",
          "type": "address"
        },
        {
          "internalType": "bool",
          "name": "approved",
          "type": "bool"
        }
      ],
      "name": "setOperator",
      "outputs": [
        {
          "internalType": "bool",
          "name": "",
          "type": "bool"
        }
      ],
      "stateMutability": "nonpayable",
      "type": "function"
    },
    {
      "inputs": [
        {
          "internalType": "bytes4",
          "name": "interfaceId",
          "type": "bytes4"
        }
      ],
      "name": "supportsInterface",
      "outputs": [
        {
          "internalType": "bool",
          "name": "",
          "type": "bool"
        }
      ],
      "stateMutability": "view",
      "type": "function"
    },
    {
      "inputs": [
        {
          "internalType": "address",
          "name": "asset0",
          "type": "address"
        },
        {
          "internalType": "address",
          "name": "asset1",
          "type": "address"
        },
        {
          "internalType": "address",
          "name": "quoter",
          "type": "address"
        },
        {
          "internalType": "bytes3",
          "name": "markings",
          "type": "bytes3"
        },
        {
          "internalType": "uint256",
          "name": "amountIn",
          "type": "uint256"
        },
        {
          "internalType": "bool",
          "name": "zeroForOne",
          "type": "bool"
        },
        {
          "internalType": "uint256",
          "name": "minAmountOut",
          "type": "uint256"
        }
      ],
      "name": "swap",
      "outputs": [
        {
          "internalType": "uint256",
          "name": "amountOut",
          "type": "uint256"
        }
      ],
      "stateMutability": "payable",
      "type": "function"
    },
    {
      "inputs": [
        {
          "internalType": "address",
          "name": "asset0",
          "type": "address"
        },
        {
          "internalType": "address",
          "name": "asset1",
          "type": "address"
        },
        {
          "internalType": "address",
          "name": "quoter",
          "type": "address"
        },
        {
          "internalType": "bytes3",
          "name": "markings",
          "type": "bytes3"
        },
        {
          "internalType": "uint256",
          "name": "amountIn",
          "type": "uint256"
        },
        {
          "internalType": "bool",
          "name": "zeroForOne",
          "type": "bool"
        },
        {
          "internalType": "uint256",
          "name": "minAmountOut",
          "type": "uint256"
        },
        {
          "internalType": "bytes4",
          "name": "traderProtection",
          "type": "bytes4"
        }
      ],
      "name": "swapWithProtection",
      "outputs": [
        {
          "internalType": "uint256",
          "name": "amountOut",
          "type": "uint256"
        }
      ],
      "stateMutability": "payable",
      "type": "function"
    },
    {
      "inputs": [
        {
          "internalType": "uint256",
          "name": "poolID",
          "type": "uint256"
        }
      ],
      "name": "totalLiquidity",
      "outputs": [
        {
          "internalType": "uint256",
          "name": "",
          "type": "uint256"
        }
      ],
      "stateMutability": "view",
      "type": "function"
    },
    {
      "inputs": [
        {
          "internalType": "address",
          "name": "receiver",
          "type": "address"
        },
        {
          "internalType": "uint256",
          "name": "id",
          "type": "uint256"
        },
        {
          "internalType": "uint256",
          "name": "amount",
          "type": "uint256"
        }
      ],
      "name": "transfer",
      "outputs": [
        {
          "internalType": "bool",
          "name": "",
          "type": "bool"
        }
      ],
      "stateMutability": "nonpayable",
      "type": "function"
    },
    {
      "inputs": [
        {
          "internalType": "address",
          "name": "sender",
          "type": "address"
        },
        {
          "internalType": "address",
          "name": "receiver",
          "type": "address"
        },
        {
          "internalType": "uint256",
          "name": "id",
          "type": "uint256"
        },
        {
          "internalType": "uint256",
          "name": "amount",
          "type": "uint256"
        }
      ],
      "name": "transferFrom",
      "outputs": [
        {
          "internalType": "bool",
          "name": "",
          "type": "bool"
        }
      ],
      "stateMutability": "nonpayable",
      "type": "function"
    }
  ],
  "bytecode": "0x6101006040523461026357604051601f615a5d38819003918201601f19168301916001600160401b03831184841017610267578084926080946040528339810103126102635761004e8161029a565b9061005b6020820161029a565b610073606061006c6040850161029a565b930161029a565b9260805260a05260c05260e05261008861027b565b600281526001602082018190526040909101526018805462ffffff1916620101021790556100b461027b565b600581526002602082015260016040909101526019805462ffffff1916620102051790556100e061027b565b600a8152600360208201526001604090910152601a805462ffffff19166201030a17905561010c61027b565b60148152600560208201526001604090910152601b805462ffffff19166201051417905561013861027b565b5f80825260208201819052604090910152601c805462ffffff1916905561015d61027b565b5f80825260208201819052604090910152601d805462ffffff1916905561018261027b565b60328152600a60208201525f604091820152601e805462ffffff1916610a321790556025805461ffff65ffffffffffff60b01b0119166219007d60b21b179055516157ae90816102af8239608051818181610c8b01528181612248015281816129f9015281816131b90152613716015260a051818181610e880152818161227d01528181612a2f015281816131ef015261374c015260c051818181610378015281816122b801528181612a65015281816132250152613787015260e051818181610b94015281816122f301528181612a9b0152818161325d01526137be0152f35b5f80fd5b634e487b7160e01b5f52604160045260245ffd5b60405190606082016001600160401b0381118382101761026757604052565b51906001600160a01b03821682036102635756fe60806040526004361015610011575f80fd5b5f3560e01c8062fdd58e1461027e57806301ffc9a714610279578063091f15b014610274578063095bcdb61461026f5780630d5f74d51461026a57806323189d511461026557806326e34a4e146102605780632f380b351461025b578063314e23211461025657806331b4ae1714610251578063338274381461024c5780633c1624d4146102475780633d465aae14610242578063426a84931461023d57806346529d4e1461023857806346fe6514146102335780634dbb4c5e1461022e578063558a7297146102295780635670f55a1461022457806357c9a5fd1461021f578063598af9e71461021a5780635b298d32146102155780635b7499b5146102105780635dfb78af1461020b578063663871401461020657806378a8317f1461020157806394756e9b146101fc5780639d2ec6e4146101f7578063a465ba0f146101f2578063a74713cf146101f2578063b5e60c3c146101ed578063b6363cf2146101e8578063bdf48f8e146101e3578063cc489582146101de578063d92bc84c146101d9578063de87396c146101d4578063e11ba51e146101cf578063f9158ee5146101ca5763fe99049a146101c5575f80fd5b611cd4565b611c53565b611bb9565b611acd565b611a42565b6119bc565b611933565b61182c565b6117dd565b6117c6565b6115d6565b611533565b6114a2565b61145e565b6113d8565b611375565b61133b565b6112ce565b61123d565b610fda565b610f3e565b610eb7565b610e73565b610d3b565b610cba565b610c76565b610beb565b610bc3565b610b7f565b610aca565b610963565b6108bc565b61073a565b6106ca565b6103ca565b610363565b610303565b6102a5565b6001600160a01b0381160361029457565b5f80fd5b35906102a382610283565b565b34610294576040366003190112610294576004356102c281610283565b6024359060018060a01b03165f52600160205260405f20905f52602052602060405f2054604051908152f35b35906001600160e01b03198216820361029457565b346102945760203660031901126102945760043563ffffffff60e01b8116809103610294576020906301ffc9a760e01b8114908115610348575b506040519015158152f35b630f632fb360e01b1490505f61033d565b5f91031261029457565b34610294575f366003190112610294576040517f00000000000000000000000000000000000000000000000000000000000000006001600160a01b03168152602090f35b6060906003190112610294576004356103bf81610283565b906024359060443590565b34610294576103d8366103a7565b9091335f52600160205260405f20835f5260205260405f20805490838203918211610469575560018060a01b031690815f5260016020526104248360405f20905f5260205260405f2090565b61042f828254611eb1565b9055604080513380825260208201939093525f5160206157595f395f51905f5291819081015b0390a46040516001815280602081015b0390f35b611e82565b634e487b7160e01b5f52604160045260245ffd5b608081019081106001600160401b0382111761049d57604052565b61046e565b90601f801991011681019081106001600160401b0382111761049d57604052565b604051906102a360e0836104a2565b604051906102a36080836104a2565b604051906102a3610100836104a2565b6001600160401b03811161049d5760051b60200190565b929190610514816104f1565b9361052260405195866104a2565b602085838152019160051b810192831161029457905b82821061054457505050565b8135815260209182019101610538565b9080601f830112156102945781602061056f93359101610508565b90565b8015150361029457565b35906102a382610572565b6001600160e81b031981160361029457565b9291906105a5816104f1565b936105b360405195866104a2565b602085838152019160051b810192831161029457905b8282106105d557505050565b6020809183356105e481610587565b8152019101906105c9565b9080601f830112156102945781602061056f93359101610599565b91909160e0818403126102945761061f6104c3565b9261062982610298565b845261063760208301610298565b602085015261064860408301610298565b604085015260608201356001600160401b038111610294578161066c918401610554565b606085015261067d6080830161057c565b608085015260a0820135916001600160401b038311610294576106a760c0926106b29483016105ef565b60a0860152016102ee565b60c0830152565b6001600160801b0381160361029457565b34610294576080366003190112610294576004356001600160401b038111610294576106fd61072891369060040161060a565b602435610709816106b9565b60443590610716826106b9565b6064359261072384610283565b612058565b60408051928352602083019190915290f35b346102945760e03660031901126102945760043560243561075a81610283565b60443561076681610283565b606435916084359360a4359060c4359061077f82610283565b602a546107a7906107a0906001600160a01b03165b6001600160a01b031690565b3314612408565b6107af613c1a565b916001600160a01b038316156108a2575b50826107d183948361082095613c64565b6107ee6107e6835f52600f60205260405f2090565b918254611ea4565b90556108056001600160801b038716600f0b61244c565b61081a6001600160801b038916600f0b61244c565b91613ce3565b61082b848383613d3e565b610836858483613d3e565b61084861084382306146fe565b5c1590565b610861575b505060408051928352602083019390935250f35b61089561089a9361088c61087361246c565b9461087d86611ebe565b6001600160a01b039091169052565b61087d84611ecb565b613d51565b5f808061084d565b91506108206107c0565b6004359060ff8216820361029457565b34610294576040366003190112610294576108d56108ac565b610918602435916108e583610283565b6108fa60018060a01b0360285416331461248e565b61091360ff821660048110159081610957575b506124ca565b612505565b610927600c60ff8316106124ca565b600c8110156109525760030180546001600160a01b0319166001600160a01b03909216919091179055005b611b94565b600f915011155f61090d565b34610294576020366003190112610294576004355f606060405161098681610482565b82815282602082015282604082015201525f52601160205260405f20604051906109af82610482565b80546001600160a01b0390811680845260018301548216602085018190526002909301549182166040850181905260489290921b6001600160e81b031916606094909401849052909261046591610a2690610a1890610a0b9081565b956001600160a01b031690565b916001600160e81b03191690565b604080516001600160a01b039586168152958516602087015291909316908401526001600160e81b0319909116606083015281906080820190565b9181601f84011215610294578235916001600160401b038311610294576020808501948460051b01011161029457565b60206040818301928281528451809452019201905f5b818110610ab45750505090565b8251845260209384019390920191600101610aa7565b3461029457604036600319011261029457600435610ae781610283565b6024356001600160401b03811161029457610b06903690600401610a61565b91610b10836104f1565b92610b1e60405194856104a2565b808452601f19610b2d826104f1565b013660208601375f5b818110610b4b57604051806104658782610a91565b80610b6d610b5c6001938588612521565b35610b6681610283565b8530614760565b5c610b788288611edb565b5201610b36565b34610294575f366003190112610294576040517f00000000000000000000000000000000000000000000000000000000000000006001600160a01b03168152602090f35b34610294575f36600319011261029457602a546040516001600160a01b039091168152602090f35b3461029457602036600319011261029457600435610c0881610283565b602a5490610c1f6001600160a01b0383161561253b565b6001600160a01b0316908115610c3f576001600160a01b03191617602a55005b60405162461bcd60e51b815260206004820152600f60248201526e496e76616c6964206164647265737360881b6044820152606490fd5b34610294575f366003190112610294576040517f00000000000000000000000000000000000000000000000000000000000000006001600160a01b03168152602090f35b3461029457610cc8366103a7565b9091335f526002602052610cef8160405f209060018060a01b03165f5260205260405f2090565b835f526020528160405f205560405191825260018060a01b0316907fb3fd5071835887567a0671151121894ddccc2842f1d10bedad13e0d17cace9a760203392a4602060405160018152f35b346102945761010036600319011261029457610465600435602435610d5f81610283565b60443590610d6c82610283565b6064359060843560a4359460c43590610d8482610283565b602a5460e4359590610da2906107a0906001600160a01b0316610794565b610daa613c1a565b926001600160a01b03841615610e69575b50806001600160801b0380610e1c9596610de1610dda610e0396612575565b8a8a613d3e565b610df4610ded82612575565b8c8a613d3e565b16600f0b9116600f0b83613ce3565b610e0e878285613e7e565b5f52600f60205260405f2090565b610e27868254611eb1565b9055610e3661084382306146fe565b610e49575b604051858152806020810188565b610e5b610e609461088c61087361246c565b613de6565b5f808080610e3b565b9250610e03610dbb565b34610294575f366003190112610294576040517f00000000000000000000000000000000000000000000000000000000000000006001600160a01b03168152602090f35b61012036600319011261029457600435610ed081610283565b602435610edc81610283565b60443591610ee983610283565b606435610ef581610587565b60843560a435610f0481610572565b60c4359160e435936001600160401b03851685036102945761046597610f2e976101043597612585565b6040519081529081906020820190565b3461029457604036600319011261029457600435610f5b81610283565b60243590610f6882610572565b335f908152602081815260408083206001600160a01b038516845290915290209115159160ff1981541660ff841617905560405191825260018060a01b0316907fceb576d9f15e4e200fdb5096d64d5dfd667e16def20c1eefd14256d8e3faa26760203392a360405160018152602090f35b3461029457608036600319011261029457600435610ff781610283565b60243561100381610283565b60443561100f81610283565b6064359261101c84610587565b61102c611027613ed7565b613f1a565b611038848385846139f0565b9260018060a01b036110656002611057875f52601160205260405f2090565b01546001600160a01b031690565b1661122957610465946111c193909285927f68df9a4eb7aacbe8f43763bfbc9f7ca135a5397190ea1cce2558db52dc2f3692929190856001600160a01b03808316908416101561121e576111b391935b6111776110c06104d2565b6001600160a01b03861681526001600160a01b03871660208201526001600160a01b03831660408201526001600160e81b03198416606082015261110c895f52601160205260405f2090565b815181546001600160a01b03199081166001600160a01b039283161783556020840151600184018054909216908316179055604083015160029092018054606090940151929091166001600160b81b03199093169290921760489190911c62ffffff60a01b16179055565b604080516001600160a01b03958616815295851660208701529316928401929092526001600160e81b0319909116606083015281906080820190565b0390a2600160f81b16151590565b6111e0575b5f6111cf613ed7565b5d6040519081529081906020820190565b602854611200906111f9906001600160a01b0316610794565b331461248e565b611219815f52602660205260405f2060ff198154169055565b6111c6565b6111b39192936110b5565b63e1ecc13360e01b5f52600484905260245ffd5b6101003660031901126102945760043561125681610283565b60243561126281610283565b6044359161126f83610283565b60643561127b81610587565b60843560a43561128a81610572565b60e4359260c43592906001600160e01b03198516850361029457610465976111c6976112b7611027613ed7565b604051976112c660208a6104a2565b5f89526143a4565b34610294576060366003190112610294576004356112eb81610283565b6113266024356112fa81610283565b6044359260018060a01b03165f52600260205260405f209060018060a01b03165f5260205260405f2090565b905f52602052602060405f2054604051908152f35b34610294576020366003190112610294576004355f5260106020526040805f20548151906001600160801b038116825260801c6020820152f35b346102945760203660031901126102945760043563ffffffff431690805f52601560205260405f208263ffffffff198254161790556040519182527ff76330af9ed35739f4663e9f2c2726c5c60a98c86b8e6c087b0b54d818c0099b60203393a3005b6060366003190112610294576004356113f081610283565b6024356001600160401b0381116102945736602382011215610294578060040135906001600160401b03821161029457366024838301011161029457604435916001600160401b0383116102945761145c936114526024943690600401610a61565b949093019061263b565b005b346102945760203660031901126102945760043561147b81610283565b60018060a01b03165f52601660205260206001600160401b0360405f205416604051908152f35b34610294576020366003190112610294576114bb6108ac565b6029546001600160a01b03163314801561151f575b156114e95761145c9060ff801960275416911617602755565b60405162461bcd60e51b815260206004820152600e60248201526d4f6e6c7920656d657267656e637960901b6044820152606490fd5b506028546001600160a01b031633146114d0565b346102945760403660031901126102945760043561155081610283565b60243561ffff81169182820361029457601280546001600160a01b0319166001600160a01b0383161790557f42bc0dce68a76f2cb7882e7da1060360603348ede3c834d9239472d409103ef8926040926012805461ffff60a01b191660a09290921b61ffff60a01b1691909117905582516001600160a01b0390921682526020820152a1005b6060366003190112610294576004356001600160401b03811161029457611601903690600401610a61565b60443591602435611613611027613ed7565b61161b613c1a565b906001600160a01b0382161561177a575b831561176b579261164860a06116428386614602565b0161463f565b156117565761165f61165a8285614602565b612531565b925b61167960a061164261167285611e96565b858561461d565b1561173957611695602061168f61167285611e96565b01612531565b91905b5f915b8083106116f9575050506116b261084383306146fe565b6116e6575b5050508181106116ce57610465905f6111cf613ed7565b63d438755d60e01b5f5260049190915260245260445ffd5b6116f1923492614be2565b5f80806116b7565b90919561172b6001918661170e8a868861461d565b918a1561171a87611e96565b8c14918115611734575b3094614d66565b9601919061169b565b611724565b61174f61165a61174884611e96565b848461461d565b9190611698565b611765602061168f8386614602565b92611661565b63145dbb4560e21b5f5260045ffd5b33915061162c565b606060031982011261029457600435906001600160401b038211610294576117ac9160040161060a565b906024356117b9816106b9565b9060443561056f816106b9565b34610294576107286117d736611782565b916128c4565b34610294576020366003190112610294576004355f52600f602052602060405f2054604051908152f35b60409060031901126102945760043561181f81610283565b9060243561056f81610283565b3461029457602060ff61186861184136611807565b6001600160a01b039182165f90815280865260408082209290931681526020919091522090565b54166040519015158152f35b9080601f8301121561029457813561188b816104f1565b9261189960405194856104a2565b81845260208085019260051b82010192831161029457602001905b8282106118c15750505090565b6020809183356118d0816106b9565b8152019101906118b4565b90602080835192838152019201905f5b8181106118f85750505090565b82518452602093840193909201916001016118eb565b909161192561056f936040845260408401906118db565b9160208184039101526118db565b34610294576060366003190112610294576004356001600160401b0381116102945761196390369060040161060a565b6024356001600160401b03811161029457611982903690600401611874565b90604435916001600160401b038311610294576119a66119ac933690600401611874565b91612fc5565b906104656040519283928361190e565b34610294576080366003190112610294576004356001600160401b038111610294576119ec90369060040161060a565b6024356001600160401b03811161029457611a0b903690600401611874565b90604435916001600160401b03831161029457611a2f6119ac933690600401611874565b9060643592611a3d84610283565b61354b565b60e036600319011261029457611ab8600435611a5d81610283565b602435611a6981610283565b604435611a7581610283565b606435611a8181610587565b6084359060a43592611a9284610572565b60c43594611aa1611027613ed7565b60405196611ab06020896104a2565b5f88526140d2565b5f611ac1613ed7565b5d604051908152602090f35b3461029457611adb36611807565b602854611af1906001600160a01b03161561253b565b6001600160a01b038216151580611b82575b15611b4957611b2c61145c9260018060a01b03166001600160601b0360a01b6028541617602855565b60018060a01b03166001600160601b0360a01b6029541617602955565b60405162461bcd60e51b8152602060048201526011602482015270496e76616c69642061646472657373657360781b6044820152606490fd5b506001600160a01b0381161515611b03565b634e487b7160e01b5f52603260045260245ffd5b600c81101561095257600301905f90565b3461029457602036600319011261029457600435600c81101561029457600301546040516001600160a01b039091168152602090f35b6001600160401b03811161049d57601f01601f191660200190565b805180835260209291819084018484015e5f828201840152601f01601f1916010190565b9091611c4561056f93604084526040840190611c0a565b916020818403910152611c0a565b34610294576020366003190112610294576004356001600160401b0381116102945736602382011215610294578060040135611c8e81611bef565b90611c9c60405192836104a2565b8082523660248285010111610294576020815f926024611cc496018386013783010152613999565b9061046560405192839283611c2e565b3461029457608036600319011261029457600435611cf181610283565b602435611cfd81610283565b604435915f5160206157595f395f51905f52610455606435936001600160a01b03841693611d5f908790611d52903388141580611e4e575b611dbe576001600160a01b03165f90815260016020526040902090565b905f5260205260405f2090565b611d6a868254611ea4565b90556001600160a01b0381165f908152600160205260409020611d8e908790611d52565b611d99868254611eb1565b90556040805133815260208101969096526001600160a01b0390911694918291820190565b611df583611d5233611de08560018060a01b03165f52600260205260405f2090565b9060018060a01b03165f5260205260405f2090565b548960018201611e1b575b50506001600160a01b03165f90815260016020526040902090565b611e2491611ea4565b611e4684611d5233611de08660018060a01b03165f52600260205260405f2090565b555f89611e00565b50611e7d611e79611e7233611de08560018060a01b03165f525f60205260405f2090565b5460ff1690565b1590565b611d35565b634e487b7160e01b5f52601160045260245ffd5b5f1981019190821161046957565b9190820391821161046957565b9190820180921161046957565b8051156109525760200190565b8051600110156109525760400190565b80518210156109525760209160051b010190565b91909160c08060e083019460018060a01b03815116845260018060a01b03602082015116602085015260408101516040850152606081015160608501526080810151608085015260a081015160a085015201511515910152565b60405190611f586020836104a2565b5f8252565b92611f8961056f9593611f7b611f9794608088526080880190611c0a565b908682036020880152611c0a565b908482036040860152611c0a565b916060818403910152611c0a565b90816020910312610294575190565b80516001600160a01b03908116835260208083015182169084015260408083015190911690830152606080820151908301526080808201516001600160801b0316908301526102a3919060e090819060a0818101516001600160801b03169085015260c08181015161ffff169085015201511515910152565b8061203f6101209261056f9594611fb4565b816101008201520190611c0a565b6040513d5f823e3d90fd5b93929360a0810194600160e81b6120806120728851611ebe565b516001600160e81b03191690565b1661209557506120919394506128c4565b9091565b8151929390929091906001600160a01b03166020820180519092906001600160a01b0316604082018051909391906001600160a01b03168a516120d790611ebe565b516001600160e81b031916916120ec936139f0565b97516120f790611ebe565b516001600160e81b03191661210b90613aa8565b935a61211787306146fe565b5c906121216104c3565b6001600160a01b0390981688523260208901524360408901524260608901523a608089015260a0880152151560c08701526040518096602082019061216591611eef565b03601f198101875261217790876104a2565b81516001600160a01b031693516001600160a01b031692516001600160a01b03169660608301516121a790611ebe565b51608087015161ffff166080909401511515946121c26104e1565b6001600160a01b0390971687526001600160a01b031660208701526001600160a01b03909816604086019081529760608601526001600160801b031660808501526001600160801b031660a084015261ffff1660c0830152151560e0820152815115155f1461079461079461237e96612353602097612360956123f75761234561226c887f0000000000000000000000000000000000000000000000000000000000000000613b88565b915b898b0151156123e9576122a1897f0000000000000000000000000000000000000000000000000000000000000000613b88565b995b6040810151156123d6576122e560606122dc8c7f0000000000000000000000000000000000000000000000000000000000000000613b88565b925b0151151590565b156123c6576123376123178b7f0000000000000000000000000000000000000000000000000000000000000000613b88565b612329604051948f9286938401611c2e565b03601f1981018452836104a2565b6040519a8b948d8601611f5d565b03601f1981018852876104a2565b516001600160a01b031690565b905f6040518096819582946305e3344d60e41b84526004840161202d565b03925af19081156123c1575f9161239457509190565b6123b6915060203d6020116123ba575b6123ae81836104a2565b810190611fa5565b9190565b503d6123a4565b61204d565b6123376123d1611f49565b612317565b6122e560606123e3611f49565b926122de565b6123f1611f49565b996122a3565b612345612402611f49565b9161226e565b1561240f57565b60405162461bcd60e51b815260206004820152601560248201527427b7363c902634b8bab4b234ba3ca6b0b730b3b2b960591b6044820152606490fd5b600f0b6f7fffffffffffffffffffffffffffffff198114610469575f0390565b6040516060919061247d83826104a2565b6002815291601f1901366020840137565b1561249557565b60405162461bcd60e51b815260206004820152600d60248201526c13db9b1e481c1c9bdd1bd8dbdb609a1b6044820152606490fd5b156124d157565b60405162461bcd60e51b815260206004820152600c60248201526b125b9d985b1a59081cdb1bdd60a21b6044820152606490fd5b60ff6003199116019060ff821161046957565b90156109525790565b91908110156109525760051b0190565b3561056f81610283565b1561254257565b60405162461bcd60e51b815260206004820152600b60248201526a105b1c9958591e481cd95d60aa1b6044820152606490fd5b600160ff1b8114610469575f0390565b9661261f9061262e99612599611027613ed7565b604080516001600160a01b038c81166020830190815287821693830193909352871660608201526001600160e81b03198816608082015260a0810189905289151560c082015260e081018b90526001600160401b03841661010082015233610120820152916101408301526101408252612615610160836104a2565b3391519020613f5d565b50612628611f49565b966140d2565b905f612638613ed7565b5d565b92939060405160208101907f626529a6be7cb2fb96a7ed93849b4ef74c980495dfe61fd514c95dcd9da51c3582523060601b60408201527f88f108d443a200407df3d92fc06ed196d7b48635560cc21c3b1819792e11c1a76054820152605481526126a76074826104a2565b519020936126b485613f1a565b60016126c033306146fe565b5d6126ca3361456a565b6001600160a01b031692833b15610294576126fe935f9283604051809781958294631c6e724760e31b845260048401612752565b03925af180156123c1575f946127279361272192612738575b5034923691612779565b33613de6565b61272f6145b3565b612638336145f7565b806127468861274c936104a2565b80610359565b5f612717565b90918060409360208452816020850152848401375f828201840152601f01601f1916010190565b929190612785816104f1565b9361279360405195866104a2565b602085838152019160051b810192831161029457905b8282106127b557505050565b6020809183356127c481610283565b8152019101906127a9565b6040516101a091906127e183826104a2565b600c815291601f1901825f5b8281106127f957505050565b8060606020809385010152016127ed565b602081016020825282518091526040820191602060408360051b8301019401925f915b83831061283c57505050505090565b909192939460208061285a600193603f198682030187528951611c0a565b9701930193019193929061282d565b939061056f959361289a6128b69461288c6128a89460a08a5260a08a0190611c0a565b9088820360208a0152611c0a565b908682036040880152611c0a565b908482036060860152611c0a565b916080818403910152611c0a565b8051909291906001600160a01b0316602084018051909291906001600160a01b0316604086018051919290916001600160a01b03169260a0880193845161290a90611ebe565b516001600160e81b0319169161291f936139f0565b95825161292b90611ebe565b516001600160e81b03191661293f90613aa8565b81519096906001600160a01b031695516001600160a01b031692516001600160a01b031694606083015161297290611ebe565b51608089015161ffff1660809094015115159461298d6104e1565b6001600160a01b0390991689526001600160a01b031660208901526001600160a01b03909616604088019081529560608801526001600160801b031660808701526001600160801b031660a086015261ffff1660c0850152151560e0840152835115612daa57612a1d837f0000000000000000000000000000000000000000000000000000000000000000613b88565b905b602085015115612d9c57612a53847f0000000000000000000000000000000000000000000000000000000000000000613b88565b945b604081015115612d8f57612a89857f0000000000000000000000000000000000000000000000000000000000000000613b88565b606082015115612d7f5760a0612abf877f0000000000000000000000000000000000000000000000000000000000000000613b88565b925b0160ff612acf825160ff1690565b1680612be1575050612b9f969461235360209795612345612360966107949661079496612afa611f49565b925b612b0e612072600160e81b9251611ebe565b1615612bd057612b91612b6e612b7c5a612b5f612b2b33306146fe565b5c612b346104c3565b338152925b3260208501524360408501524260608501523a608085015260a0840152151560c0830152565b60405192839160208301611eef565b03601f1981018352826104a2565b925b6123296040519460209286938401611c2e565b6040519b8c958e8701612869565b03925af19081156123c1575f91612bb4575091565b612bcd915060203d6020116123ba576123ae81836104a2565b91565b612b91612bdb611f49565b92612b7e565b600f10612c9b5794612353602097956123456123609661079496610794968b6004612b9f9f9d612c23612c1b610913612c29935160ff1690565b935160ff1690565b60ff1690565b101580612c8e575b15612c8557612c42612c5791611ba8565b905460039190911b1c6001600160a01b031690565b8b6001600160a01b03821615612c7657612c7091613b88565b92612afc565b5050612c80611f49565b612c70565b50612c70611f49565b50600c60ff821610612c31565b95979294909893612cb8612cb09893986127cf565b975160ff1690565b955f985f5b60ff8116600c811015612d365760ff60018382161b8b1616612ce6575b5060010160ff16612cbd565b8c612cf3612c4284611ba8565b6001600160a01b038116612d09575b5050612cda565b612d2a939d5090612d1991613b88565b612d23828d611edb565b528a611edb565b506001998a8c5f612d02565b505061079494975091612345612353926107949594612360989d999e60209c612b9f9e5f14612d7657612c70612b6e91604051926020918492830161280a565b50612c80611f49565b60a0612d89611f49565b92612ac1565b612d97611f49565b612a89565b612da4611f49565b94612a55565b612db2611f49565b90612a1f565b60408051909190612dc983826104a2565b6001815291601f1901366020840137565b90612de4826104f1565b612df160405191826104a2565b8281528092612e02601f19916104f1565b0190602036910137565b9080601f83011215610294578151612e23816104f1565b92612e3160405194856104a2565b81845260208085019260051b82010192831161029457602001905b828210612e595750505090565b8151815260209182019101612e4c565b906020828203126102945781516001600160401b0381116102945761056f9201612e0c565b90602080835192838152019201905f5b818110612eab5750505090565b82516001600160801b0316845260209384019390920191600101612e9e565b90602080835192838152019201905f5b818110612ee75750505090565b825161ffff16845260209384019390920191600101612eda565b604080825282516001600160a01b03169082015261056f929060208301516001600160a01b0316606082015260408301516001600160a01b03166080820152612fb860e0612fab612f94612f7f612f69606089015161010060a08901526101408801906118db565b6080890151878203603f190160c0890152612e8e565b60a0880151868203603f190185880152612e8e565b60c0870151858203603f1901610100870152612eca565b9401511515610120830152565b6020818403910152611c0a565b90929160a0820193612fd8855151612dda565b91612fe4865151612dda565b50612ff0865151612dda565b956130066130016120728351611ebe565b613aa8565b955f5b8251805182101561308d5790613087613074608061306b8b8b6130658761305f6130386120728360019d611edb565b85516020870151604090970151919687926001600160a01b039081169291811691166139f0565b92611edb565b52613aa8565b015161ffff1690565b61307e838d611edb565b9061ffff169052565b01613009565b50508551929791969095909390926001600160a01b03166020840180519194909390916001600160a01b0316604083018051909b919291906001600160a01b0316946060850151608086019687516130e490151590565b956130ed6104e1565b6001600160a01b03909b168b526001600160a01b031660208b01526001600160a01b031660408a01526060890152608088015260a087015260c0860152151560e0850152516001600160a01b031691516001600160a01b031688519091906001600160a01b031690511515916131616104e1565b6001600160a01b0390941684526001600160a01b031660208401526001600160a01b031660408301525f606083018190526080830181905260a0830181905260c0830152151560e082015282511561353d576131dd817f0000000000000000000000000000000000000000000000000000000000000000614649565b905b60208401511561352f57613213817f0000000000000000000000000000000000000000000000000000000000000000614649565b935b60408101511561352157613249827f0000000000000000000000000000000000000000000000000000000000000000614649565b915b6060820151156135115760a0613281827f0000000000000000000000000000000000000000000000000000000000000000614649565b925b0160ff613291825160ff1690565b16806133c6575050506132a2611f49565b915b5f5f5b8a5180518210156133a2576132d6906132c861207284600160e81b93611edb565b166001600160e81b03191690565b6132e2576001016132a7565b50505f969850986123536133439461234561079495610794956133609c9e60015b8d1461339157613334612b6e6133205a612b5f612b2b33306146fe565b925b61232960405194859260208401611c2e565b6040519b8c9560208701612869565b908360405180968195829462db90d160e81b845260048401612f01565b03925af19081156123c1575f91613375575091565b612bcd91503d805f833e61338981836104a2565b810190612e69565b61333461339c611f49565b92613322565b50505f9799506133439461234561079495610794956133609c9e9561235395613303565b600f106134415760046133e3612c23612c1b610913855160ff1690565b101580613434575b1561342a57612c426133fc91611ba8565b906001600160a01b0382161561341b5761341591614649565b916132a4565b5050613425611f49565b613415565b5050613415611f49565b50600c60ff8216106133eb565b969197929590989394600c9a956134616134596127cf565b995160ff1690565b975f9a5f5b60ff81169e8f10156134dd57600c9e8e60ff8d60018583161b1616613493575b505060010160ff16613466565b61349f612c4284611ba8565b6001600160a01b0381166134b4575b50613486565b6134d1939f50828f9261305f906134ca93614649565b528c611edb565b5060019b8c8e5f6134ae565b509499939850949991969b509499505f1461350857613415612b6e916040519283916020830161280a565b50613425611f49565b60a061351b611f49565b92613283565b613529611f49565b9161324b565b613537611f49565b93613215565b613545611f49565b906131df565b909391935f935f5b60a0840151805182101561394857613577906132c861207284600160e81b93611edb565b61358357600101613553565b50909192935060015b1561393c5760a08301936135a1855151612dda565b926135ad865151612dda565b955f5b815180518210156135ef57906135e96135df608061306b8b8b6130658761305f6130386120728360019d611edb565b61307e838c611edb565b016135b0565b505092966136466136389597929693986136295a61360d83306146fe565b5c90612b3961361a6104c3565b6001600160a01b039095168552565b60405196879160208301611eef565b03601f1981018752866104a2565b82516001600160a01b0316602084018051909791906001600160a01b03169061370061300161207260408901996136fa6136868c5160018060a01b031690565b966136d760808d01986136c761369c8b51151590565b936136b76136a86104e1565b6001600160a01b03909c168c52565b6001600160a01b031660208b0152565b6001600160a01b03166040890152565b5f60608801525f60808801525f60a08801525f60c088015260e087019015159052565b51611ebe565b9761370b8951151590565b1561392e5761373a827f0000000000000000000000000000000000000000000000000000000000000000614649565b905b60208a01511561392057613770837f0000000000000000000000000000000000000000000000000000000000000000614649565b925b60408b01511561390d576137b360606137ab837f0000000000000000000000000000000000000000000000000000000000000000614649565b9c0151151590565b156138fe576137e2907f0000000000000000000000000000000000000000000000000000000000000000614649565b905b6040519182916137f79160208401611c2e565b03601f198101825261380990826104a2565b604051998a9361381c9360208601611f5d565b03601f198101885261382e90886104a2565b84516001600160a01b031697516001600160a01b031686519095906001600160a01b031660609091015191511515956138656104e1565b6001600160a01b03909a168a526001600160a01b031660208a01526001600160a01b031660408901526060880152608087015260a086015260c0850152151560e0840152516001600160a01b03166001600160a01b03166001600160a01b031660405162db90d160e81b8152929091839182916138e59160048401612f01565b03815a5f948591f19081156123c1575f91613375575091565b50613907611f49565b906137e4565b6137b3606061391a611f49565b9c6122de565b613928611f49565b92613772565b613936611f49565b9061373c565b50612091929391612fc5565b50509091929361358c565b81601f820112156102945780519061396a82611bef565b9261397860405194856104a2565b8284526020838301011161029457815f9260208093018386015e8301015290565b8051810190604081602084019303126102945760208101516001600160401b038111610294578260206139ce92840101613953565b916040820151916001600160401b038311610294576120919201602001613953565b9092906001600160a01b038085169082161015613a625792915b6040516bffffffffffffffffffffffff19606095861b81166020830190815294861b811660348301529190941b1660488401526001600160e81b031916605c830152603f825290613a5c605f826104a2565b51902090565b91613a0a565b6040519060c082018281106001600160401b0382111761049d576040525f60a0838281528260208201528260408201528260608201528260808201520152565b61056f600f613b47613ab8613a68565b9360e81c613acd600182161515869015159052565b613af0613ae7600183811c627fffff165b1662ffffff1690565b15156020870152565b613b10613b076001600284901c623fffff16613ade565b15156040870152565b613b30613b276001600384901c621fffff16613ade565b15156060870152565b600481901c610fff16608086015260141c600f1690565b1660ff1660a0830152565b906020828203126102945781516001600160401b0381116102945761056f9201613953565b610100810192916102a39190611fb4565b6001600160a01b038116908115613c0f573b15613c05575f9182916040518094818094633bd1104b60e01b8252613bc760048301610100810192611fb4565b03925af15f9181613be1575b5061056f575061056f611f49565b613bfe9192503d805f833e613bf681836104a2565b810190613b52565b905f613bd3565b505061056f611f49565b50505061056f611f49565b60405160208101907f507ba82850c15277b79bae90c6e97b66228a117b64d05e46b3182d141df61ce282523060601b604082015260348152613c5d6054826104a2565b5190205c90565b91909160018060a01b0316805f52600160205260405f20835f5260205260405f2080549083820391821161046957556040805133815260208101939093525f925f5160206157595f395f51905f5291819081015b0390a4565b90600f0b90600f0b019060016001607f1b0319821260016001607f1b0383131761046957565b9091613d1590825f526010602052613d0c60405f2054946001600160801b038616600f0b613cbd565b9360801d613cbd565b6001600160801b03199060801b16905f5260106020526001600160801b0360405f209216179055565b90613d499130614760565b90815c01905d565b8151915f5b838110613d635750505050565b6001906001600160a01b03613d788285611edb565b5116613d85818630614760565b5c80613d94575b505001613d56565b5f91613db49183811315613dbc57613dad9088836148b9565b8630614760565b5d5f80613d8c565b613dc8613dda91612575565b82158514613ddf5784905b89846147ea565b613dad565b8490613dd3565b90918251925f5b848110613dfb575050505050565b6001906001600160a01b03613e108285611edb565b5116613e1d818730614760565b5c80613e2c575b505001613ded565b5f91613e4c9183811315613e5457613e459089836148b9565b8730614760565b5d5f80613e24565b613e60613e7291612575565b82158514613e775788905b8a846147ea565b613e45565b8490613e6b565b91909160018060a01b031690815f52600160205260405f20835f5260205260405f2080549082820180921161046957556040805133815260208101929092525f915f5160206157595f395f51905f529181908101613cb8565b60405160208101907f626529a6be7cb2fb96a7ed93849b4ef74c980495dfe61fd514c95dcd9da51c3582523060601b604082015260348152613a5c6054826104a2565b805c610294576001905d565b63ffffffff6101009116019063ffffffff821161046957565b6001600160401b036001911601906001600160401b03821161046957565b91613f7e613f74846015905f5260205260405f2090565b5463ffffffff1690565b63ffffffff8116801561409e5743111561408f57613f9e613fa791613f26565b63ffffffff1690565b4311614080576001600160a01b0382165f908152601660205260409020546001600160401b03166001600160401b038216036140715761400c61403e91614007613ffa866015905f5260205260405f2090565b805463ffffffff19169055565b613f3f565b6001600160a01b0383165f908152601660205260409020906001600160401b03166001600160401b0319825416179055565b6001600160a01b0316907f5ed00d9781aaac5f5ab01a93ece28fca0f8ffe70c108140274d8fec00477ce805f80a3600190565b632071cf9f60e11b5f5260045ffd5b63586b1f3960e01b5f5260045ffd5b630376613560e51b5f5260045ffd5b63ea3c1a4f60e01b5f5260045ffd5b919082604091031261029457602082516140c6816106b9565b92015161056f816106b9565b9091979694956140e0613c1a565b956001600160a01b0387161561439c575b600160e91b8516614374575b5061410a848a85856139f0565b90620100008560e81c1661432f575b60408051632d94c69960e11b8152600481018490529a908b602481305afa9586156123c1575f9b5f976142f9575b508b87918b8a614155612db8565b61415d612db8565b926141666104c3565b6001600160a01b038c168152976001600160a01b038d1660208a01526001600160a01b03166040890152606088019182521515608088015260a087019283525f60c08801525b516141b690611ebe565b52516141c190611ebe565b6001600160e81b031990911690526141d8926128c4565b509485156142ea5788866141ed92819d614b70565b8085106142d3575061426e9392614267926142609261424b906001600160a01b0380851690841610156142cc578a5b80156142b1576001600160801b038a16600f0b905b1561429e5761081a6001600160801b038916600f0b61244c565b88156142975780985b1561428f575094612575565b8686613d3e565b8284613d3e565b61427b61084383306146fe565b61428457505050565b6102a3923492614be2565b905094612575565b8198614254565b6001600160801b038a16600f0b91613ce3565b6142c66001600160801b038916600f0b61244c565b90614231565b8a1561421c565b63d438755d60e01b5f52600452602484905260445ffd5b6314033f2160e11b5f5260045ffd5b909b5061431f91965060403d604011614328575b61431781836104a2565b8101906140ad565b95909a8b614147565b503d61430d565b60275460ff81166143655760081c62ffffff16156141195761435f612c23611e72845f52602660205260405f2090565b15614119575b63636280a760e01b5f5260045ffd5b611e7961438391885f886149c7565b61438d575f6140fd565b6377bbcbed60e11b5f5260045ffd5b3396506140f1565b919092989795969394966143b6613c1a565b966001600160a01b03881615614562575b8a8660e01c91610100831661452f575b89600160e91b8316614515575b50506143f391508386866139f0565b91620100008b60e81c166144d1575b60408051632d94c69960e11b8152600481018590529b908c602481305afa9687156123c1575f9c5f986144a4575b5087918b8a8f9361443f612db8565b90614448612db8565b936144516104c3565b6001600160a01b038d168152986001600160a01b038e1660208b01526001600160a01b031660408a0152606089019283521515608089015260a088019384526001600160e01b03191660c08801526141ac565b8b9d508998506144c59060409392933d6040116143285761431781836104a2565b909d509750908c614430565b60275460ff81166143655760081c62ffffff161561440257614501612c23611e72855f52602660205260405f2090565b156144025763636280a760e01b5f5260045ffd5b61452293611e79936149c7565b61438d575f8a81896143e4565b9050614548611e796145418b306146fe565b5c84614945565b614553578b906143d7565b630e85e06f60e21b5f5260045ffd5b3397506143c7565b60405160208101907f507ba82850c15277b79bae90c6e97b66228a117b64d05e46b3182d141df61ce282523060601b6040820152603481526145ad6054826104a2565b5190205d565b5f60405160208101907f507ba82850c15277b79bae90c6e97b66228a117b64d05e46b3182d141df61ce282523060601b6040820152603481526145ad6054826104a2565b6126385f91306146fe565b90156109525780359060be1981360301821215610294570190565b91908110156109525760051b8101359060be1981360301821215610294570190565b3561056f81610572565b6001600160a01b0381168015613c0f57813b15613c0f5761466982614e35565b80519093901561467a575b50505090565b604051633bd1104b60e01b815293505f9184918290849082906146a09060048301613b77565b03925af15f92816146e2575b506146c35750506146bb611f49565b5f8080614674565b8180516146d2575b50506146bb565b6146db91614ea8565b5f806146cb565b6146f79193503d805f833e613bf681836104a2565b915f6146ac565b906040519060208201927fe88690b85c82523984f05d1f281684a73aa4d4303bca19cfe29aa89ae744616a84526001600160601b03199060601b1660408301526001600160601b03199060601b16605482015260488152613a5c6068826104a2565b916040519160208301937f71aa94563c1d78d77df681ad802fc1a81ea7d00cffe4bbe002400e1d66de80d285526001600160601b03199060601b1660408401526001600160601b03199060601b1660548301526001600160601b03199060601b166068820152605c8152613a5c607c826104a2565b90816020910312610294575161056f81610572565b9192916001600160a01b031690816148145750500361480557565b63a7adb78f60e01b5f5260045ffd5b919290926148aa576040516323b872dd60e01b81526001600160a01b0390921660048301523060248301526044820152906020908290815f81606481015b03925af19081156123c1575f9161487b575b501561486c57565b633773869160e01b5f5260045ffd5b61489d915060203d6020116148a3575b61489581836104a2565b8101906147d5565b5f614864565b503d61488b565b63dc4087eb60e01b5f5260045ffd5b6001600160a01b0316806148f357505f8080938193829082156148e9575b6001600160a01b031690f1156123c157565b6108fc91506148d7565b60405163a9059cbb60e01b81526001600160a01b0390921660048301526024820192909252906020908290815f8160448101614852565b5f916126389130614760565b60088210156109525701905f90565b6101008116156149c05760ff601f54166149ac576149689060091c600716612c23565b60ff8116156149a85761497c906017614936565b50805461498d9060101c60ff161590565b6149a85761499a90614edc565b816149a3575090565b905090565b5090565b50806149b55790565b5061056f601b614edc565b5050600190565b919291600160e91b1615614b685760255460ff8116614b465760081c60ff16614b20575b614a04612c23620e000060ff9316617fff9060111c1690565b1660018103614a18575061056f9150614ef6565b60028103614a39575050325f908152602080526040902061056f9150611e72565b60038103614a625750506001600160a01b03165f90815260216020526040902061056f90611e72565b60048103614a985750325f9081526020805260409020909150614a8490611e72565b9081614a8e575090565b61056f9150614ef6565b60058103614ac257506001600160a01b039091165f908152602160205260409020614a8490611e72565b600614614ad0575050600190565b325f9081526020805260409020614ae690611e72565b9182614af7575b5081614a8e575090565b6001600160a01b03165f908152602160205260409020909150614b1990611e72565b905f614aed565b325f9081526020805260409020614b3a90611e7990611e72565b156149eb575050505f90565b5050506001600160a01b03165f90815260216020526040902061056f90611e72565b505050600190565b6001600160801b0392935f14614ba357501690808210614b8e575050565b630173586760e01b5f5260045260245260445ffd5b90501690808210614bb2575050565b6368580a1960e01b5f5260045260245260445ffd5b9190915f838201938412911290801582169115161761046957565b9092614bef848330614760565b5c614bfb848430614760565b5c916001600160a01b0385811692908716808414614cc4579181614c5e95935f6102a39a9694125f14614ca457614c34614c4392612575565b90614c9d5782905b88876147ea565b5f831315614c63575050614c589084866148b9565b8261492a565b61492a565b5f8312614c73575b505050614c58565b614c7f614c8d93612575565b91614c9557905b85876147ea565b5f8080614c6b565b505f90614c86565b5f90614c3c565b505f8113614cb3575b50614c43565b614cbe9087866148b9565b5f614cad565b92506102a3969593614cd591614bc7565b925f841215614d015750614ceb614c5e93612575565b91614cf957905b83856147ea565b505f90614cf2565b92915050825f8213614d16575b50505061492a565b614d1f926148b9565b5f8082614d0e565b903590601e198136030182121561029457018035906001600160401b03821161029457602001918160051b3603831361029457565b3561056f81610587565b949392919060608601614d798188614d27565b905015614e2657614d8d6080880188614d27565b9050614d998289614d27565b91905003614e17576001614dad8289614d27565b9050145f14614e0b5786614dc361056f98612531565b91614dd060208301612531565b614e0360a0614dfc614df7614df1614dea60408901612531565b9688614d27565b90612518565b614d5c565b940161463f565b93600f6153fe565b5061056f95600f615044565b6305a7a8f960e11b5f5260045ffd5b63040e8c7760e51b5f5260045ffd5b90606091805c90811580614e93575b15614e4d575050565b909250601f6040519380855201908160051c905f5b828110614e7a57505050601f19168201602001604052565b80600180928401015c60208260051b8901015201614e62565b9350604051935f855260208501604052614e44565b601f825180835d0160051c915f5b838110614ec35750505050565b80602060019260051b8401015182828601015d01614eb6565b5460ff81169081156149c05760ff9060081c169043061090565b5115614f0157600190565b5f90565b9190916040818403126102945780516001600160401b0381116102945783614f2e918301612e0c565b9260208201516001600160401b0381116102945761056f9201612e0c565b90602080835192838152019201905f5b818110614f695750505090565b82516001600160e81b031916845260209384019390920191600101614f5c565b9061056f9060018060a01b03835116815260018060a01b03602084015116602082015260018060a01b03604084015116604082015260c080614ffb614fdd606087015160e0606087015260e08601906118db565b60808781015115159086015260a087015185820360a0870152614f4c565b9401516001600160e01b031916910152565b916150369061502861056f9593606086526060860190614f89565b908482036020860152612e8e565b916040818403910152612e8e565b9694959092939196606084019761505b8986614d27565b9690506153bb575b5061506d85612dda565b9161507786612dda565b905f5b8781106153255750815f9185838961513e6151679d9e9f6151126151376150a085612531565b946151296150b060208301612531565b946150e56151226150c360408601612531565b6150d06080870187614d27565b9390946150df60a0890161463f565b97614d27565b9890996151026150f36104c3565b6001600160a01b03909e168e52565b6001600160a01b031660208d0152565b6001600160a01b031660408b0152565b3691610508565b606087015215156080860152565b3691610599565b60a082015260c08101829052604051635efa47c760e11b81529c8d95869485936004850161500d565b03926001600160a01b03165af19081156123c1575f975f926152fe575b505f5b878110615203575050505050906151b094956151aa93926151b4575b5050611e96565b90611edb565b5190565b816151c460a06151ee940161463f565b156151f55760206151d59101612531565b6151e76151e185611e96565b87611edb565b5191613d3e565b5f806151a3565b6151fe90612531565b6151d5565b806152c48a8961522d846152266001976152206080860186614d27565b90612521565b3593611edb565b5161526b61524b61523e878d611edb565b516001600160801b031690565b8261525961523e898c611edb565b61526560a0870161463f565b92614b70565b6152758589611edb565b519261528360a0840161463f565b156152de576152a160a06001600160801b038316600f0b940161463f565b156152ca57506001600160801b036152bc9116600f0b61244c565b915b88615522565b01615187565b6001600160801b03915016600f0b916152be565b6152a160a06152f86001600160801b038516600f0b61244c565b94611642565b90975061531d91503d805f833e61531581836104a2565b810190614f05565b90965f615184565b6001906153b56153ab61539061536f8f8c61533f81612531565b91615369614df78961522061535660208701612531565b9461536360408801612531565b96614d27565b926139f0565b886001915f520160205260405f2054906001600160801b0382169160801c90565b61539d8589949394611edb565b906001600160801b03169052565b61539d8389611edb565b0161507a565b6153e9906153cb60a0870161463f565b156153ef576153e26153dc87612531565b91612575565b9089613d3e565b5f615063565b6153e26153dc60208801612531565b9185809c9b829893979b99959a969a6154198c82868c6139f0565b966154f9575b888561544689896001915f520160205260405f2054906001600160801b0382169160801c90565b9e8f948298615456989395615608565b9b8c809a61546393614b70565b61549e9289156154de576001600160801b038216600f0b915b8a156154cc57506154986001600160801b038a16600f0b61244c565b92615522565b6154aa575b5050505050565b6154ba94156154c4575090613d3e565b5f828180806154a3565b905090613d3e565b6001600160801b0316600f0b92615522565b6154f36001600160801b038a16600f0b61244c565b9161547c565b821561551957615514895b61550d87612575565b908d613d3e565b61541f565b61551484615504565b6001909392930191815f52826020526001600160801b0361555a61555060405f205496838816600f0b613cbd565b928660801d613cbd565b81199060801b1691161792830361557057505050565b5f5260205260405f2055565b9190826040910312610294576020825192015190565b9193926001600160801b0390816155b3604094606087526060870190614f89565b9616602085015216910152565b90670de0b6b3a7640000820291808304670de0b6b3a7640000149015171561046957565b9067120a871cc002000082029180830467120a871cc0020000149015171561046957565b6156c398935f9261568e6040989a97999561567f615624612db8565b938d61562f86611ebe565b5261565561563b612db8565b9661564588611ebe565b6001600160e81b03199091169052565b61566f6156606104c3565b6001600160a01b039098168852565b6001600160a01b03166020870152565b6001600160a01b0316848a0152565b6060830152871515608083015260a082015260c08101829052855163a74713cf60e01b81529889958694859360048501615592565b03926001600160a01b03165af19283156123c1575f93615726575b5082156156ea57505090565b9091501561570c576156fe61056f916155e4565b670de0b6b3a7640000900490565b61571861056f916155c0565b67120a871cc0020000900490565b61574991935060403d604011615751575b61574181836104a2565b81019061557c565b50915f6156de565b503d61573756fe1b3d7edb2e9c0b0e7c525b20aaaef0f5940d2ed71663c7d39266ecafac728859a2646970667358221220ba469f557fe3faef37a36f410c580b353e4263481c24142eddd5146f96ff48f964736f6c634300081e0033",
  "linkReferences": {},
  "deployedLinkReferences": {}
}