{
  "_format": "hh-sol-artifact-1",
  "contractName": "PoolManager",
  "sourceName": "contracts/Core/PoolManager.sol",
  "abi": [
    {
      "inputs": [
        {
          "internalType": "address",
          "name": "_defaultData0Bridge",
          "type": "address"
        }
      ],
      "stateMutability": "nonpayable",
      "type": "constructor"
    },
    {
      "inputs": [],
      "name": "AssetTransferLib__Erc20TransferFailed",
      "type": "error"
    },
    {
      "inputs": [],
      "name": "AssetTransferLib__EthNotExpected",
      "type": "error"
    },
    {
      "inputs": [],
      "name": "AssetTransferLib__IncorrectEthSent",
      "type": "error"
    },
    {
      "inputs": [],
      "name": "CommitReveal__CommitmentExpired",
      "type": "error"
    },
    {
      "inputs": [],
      "name": "CommitReveal__CommitmentTooNew",
      "type": "error"
    },
    {
      "inputs": [],
      "name": "CommitReveal__InvalidCommitment",
      "type": "error"
    },
    {
      "inputs": [],
      "name": "CommitReveal__InvalidNonce",
      "type": "error"
    },
    {
      "inputs": [],
      "name": "PoolManager__AccessDenied",
      "type": "error"
    },
    {
      "inputs": [],
      "name": "PoolManager__AtomicExecutionRequired",
      "type": "error"
    },
    {
      "inputs": [
        {
          "internalType": "uint256",
          "name": "required",
          "type": "uint256"
        },
        {
          "internalType": "uint256",
          "name": "available",
          "type": "uint256"
        }
      ],
      "name": "PoolManager__InsufficientAsset0",
      "type": "error"
    },
    {
      "inputs": [
        {
          "internalType": "uint256",
          "name": "required",
          "type": "uint256"
        },
        {
          "internalType": "uint256",
          "name": "available",
          "type": "uint256"
        }
      ],
      "name": "PoolManager__InsufficientAsset1",
      "type": "error"
    },
    {
      "inputs": [
        {
          "internalType": "uint256",
          "name": "minOut",
          "type": "uint256"
        },
        {
          "internalType": "uint256",
          "name": "actual",
          "type": "uint256"
        }
      ],
      "name": "PoolManager__InsufficientOutput",
      "type": "error"
    },
    {
      "inputs": [],
      "name": "PoolManager__InvalidQuote",
      "type": "error"
    },
    {
      "inputs": [],
      "name": "PoolManager__MismatchedArrays",
      "type": "error"
    },
    {
      "inputs": [],
      "name": "PoolManager__NoHops",
      "type": "error"
    },
    {
      "inputs": [],
      "name": "PoolManager__NoMarkings",
      "type": "error"
    },
    {
      "inputs": [],
      "name": "PoolManager__OperationPaused",
      "type": "error"
    },
    {
      "inputs": [
        {
          "internalType": "uint256",
          "name": "poolID",
          "type": "uint256"
        }
      ],
      "name": "PoolManager__PoolAlreadyExists",
      "type": "error"
    },
    {
      "anonymous": false,
      "inputs": [
        {
          "indexed": true,
          "internalType": "address",
          "name": "owner",
          "type": "address"
        },
        {
          "indexed": true,
          "internalType": "address",
          "name": "spender",
          "type": "address"
        },
        {
          "indexed": true,
          "internalType": "uint256",
          "name": "id",
          "type": "uint256"
        },
        {
          "indexed": false,
          "internalType": "uint256",
          "name": "amount",
          "type": "uint256"
        }
      ],
      "name": "Approval",
      "type": "event"
    },
    {
      "anonymous": false,
      "inputs": [
        {
          "indexed": true,
          "internalType": "bytes32",
          "name": "commitment",
          "type": "bytes32"
        },
        {
          "indexed": true,
          "internalType": "address",
          "name": "trader",
          "type": "address"
        }
      ],
      "name": "CommittedSwapExecuted",
      "type": "event"
    },
    {
      "anonymous": false,
      "inputs": [
        {
          "indexed": true,
          "internalType": "address",
          "name": "owner",
          "type": "address"
        },
        {
          "indexed": true,
          "internalType": "address",
          "name": "operator",
          "type": "address"
        },
        {
          "indexed": false,
          "internalType": "bool",
          "name": "approved",
          "type": "bool"
        }
      ],
      "name": "OperatorSet",
      "type": "event"
    },
    {
      "anonymous": false,
      "inputs": [
        {
          "indexed": true,
          "internalType": "uint256",
          "name": "poolID",
          "type": "uint256"
        },
        {
          "indexed": false,
          "internalType": "address",
          "name": "asset0",
          "type": "address"
        },
        {
          "indexed": false,
          "internalType": "address",
          "name": "asset1",
          "type": "address"
        },
        {
          "indexed": false,
          "internalType": "address",
          "name": "quoter",
          "type": "address"
        },
        {
          "indexed": false,
          "internalType": "bytes3",
          "name": "markings",
          "type": "bytes3"
        }
      ],
      "name": "PoolCreated",
      "type": "event"
    },
    {
      "anonymous": false,
      "inputs": [
        {
          "indexed": false,
          "internalType": "address",
          "name": "treasury",
          "type": "address"
        },
        {
          "indexed": false,
          "internalType": "uint16",
          "name": "feeBps",
          "type": "uint16"
        }
      ],
      "name": "ProtocolFeeConfigured",
      "type": "event"
    },
    {
      "anonymous": false,
      "inputs": [
        {
          "indexed": true,
          "internalType": "bytes32",
          "name": "commitment",
          "type": "bytes32"
        },
        {
          "indexed": true,
          "internalType": "address",
          "name": "trader",
          "type": "address"
        },
        {
          "indexed": false,
          "internalType": "uint32",
          "name": "blockNumber",
          "type": "uint32"
        }
      ],
      "name": "SwapCommitted",
      "type": "event"
    },
    {
      "anonymous": false,
      "inputs": [
        {
          "indexed": false,
          "internalType": "address",
          "name": "caller",
          "type": "address"
        },
        {
          "indexed": true,
          "internalType": "address",
          "name": "from",
          "type": "address"
        },
        {
          "indexed": true,
          "internalType": "address",
          "name": "to",
          "type": "address"
        },
        {
          "indexed": true,
          "internalType": "uint256",
          "name": "id",
          "type": "uint256"
        },
        {
          "indexed": false,
          "internalType": "uint256",
          "name": "amount",
          "type": "uint256"
        }
      ],
      "name": "Transfer",
      "type": "event"
    },
    {
      "inputs": [
        {
          "internalType": "bytes",
          "name": "data",
          "type": "bytes"
        }
      ],
      "name": "_decodeTwoBytes",
      "outputs": [
        {
          "internalType": "bytes",
          "name": "a",
          "type": "bytes"
        },
        {
          "internalType": "bytes",
          "name": "b",
          "type": "bytes"
        }
      ],
      "stateMutability": "pure",
      "type": "function"
    },
    {
      "inputs": [
        {
          "internalType": "address",
          "name": "owner",
          "type": "address"
        },
        {
          "internalType": "address",
          "name": "spender",
          "type": "address"
        },
        {
          "internalType": "uint256",
          "name": "id",
          "type": "uint256"
        }
      ],
      "name": "allowance",
      "outputs": [
        {
          "internalType": "uint256",
          "name": "",
          "type": "uint256"
        }
      ],
      "stateMutability": "view",
      "type": "function"
    },
    {
      "inputs": [
        {
          "internalType": "address",
          "name": "spender",
          "type": "address"
        },
        {
          "internalType": "uint256",
          "name": "id",
          "type": "uint256"
        },
        {
          "internalType": "uint256",
          "name": "amount",
          "type": "uint256"
        }
      ],
      "name": "approve",
      "outputs": [
        {
          "internalType": "bool",
          "name": "",
          "type": "bool"
        }
      ],
      "stateMutability": "nonpayable",
      "type": "function"
    },
    {
      "inputs": [
        {
          "internalType": "address",
          "name": "owner",
          "type": "address"
        },
        {
          "internalType": "uint256",
          "name": "id",
          "type": "uint256"
        }
      ],
      "name": "balanceOf",
      "outputs": [
        {
          "internalType": "uint256",
          "name": "",
          "type": "uint256"
        }
      ],
      "stateMutability": "view",
      "type": "function"
    },
    {
      "inputs": [
        {
          "components": [
            {
              "internalType": "address",
              "name": "asset0",
              "type": "address"
            },
            {
              "internalType": "address",
              "name": "asset1",
              "type": "address"
            },
            {
              "internalType": "address",
              "name": "quoter",
              "type": "address"
            },
            {
              "internalType": "bytes3[]",
              "name": "markings",
              "type": "bytes3[]"
            },
            {
              "internalType": "uint256[]",
              "name": "amounts",
              "type": "uint256[]"
            },
            {
              "internalType": "bool",
              "name": "zeroForOne",
              "type": "bool"
            }
          ],
          "internalType": "struct Hop[]",
          "name": "hops",
          "type": "tuple[]"
        },
        {
          "internalType": "uint256",
          "name": "amountIn",
          "type": "uint256"
        },
        {
          "internalType": "uint256",
          "name": "minAmountOut",
          "type": "uint256"
        }
      ],
      "name": "batchSwap",
      "outputs": [
        {
          "internalType": "uint256",
          "name": "amountOut",
          "type": "uint256"
        }
      ],
      "stateMutability": "payable",
      "type": "function"
    },
    {
      "inputs": [
        {
          "internalType": "bytes32",
          "name": "commitment",
          "type": "bytes32"
        }
      ],
      "name": "commitSwap",
      "outputs": [],
      "stateMutability": "nonpayable",
      "type": "function"
    },
    {
      "inputs": [
        {
          "internalType": "uint256",
          "name": "",
          "type": "uint256"
        }
      ],
      "name": "configurableDataBridges",
      "outputs": [
        {
          "internalType": "address",
          "name": "",
          "type": "address"
        }
      ],
      "stateMutability": "view",
      "type": "function"
    },
    {
      "inputs": [
        {
          "internalType": "address",
          "name": "treasury",
          "type": "address"
        },
        {
          "internalType": "uint16",
          "name": "feeBps",
          "type": "uint16"
        }
      ],
      "name": "configureProtocolFee",
      "outputs": [],
      "stateMutability": "nonpayable",
      "type": "function"
    },
    {
      "inputs": [
        {
          "internalType": "address",
          "name": "asset0",
          "type": "address"
        },
        {
          "internalType": "address",
          "name": "asset1",
          "type": "address"
        },
        {
          "internalType": "address",
          "name": "quoter",
          "type": "address"
        },
        {
          "internalType": "bytes3",
          "name": "markings",
          "type": "bytes3"
        }
      ],
      "name": "createPool",
      "outputs": [
        {
          "internalType": "uint256",
          "name": "poolID",
          "type": "uint256"
        }
      ],
      "stateMutability": "nonpayable",
      "type": "function"
    },
    {
      "inputs": [],
      "name": "defaultData0Bridge",
      "outputs": [
        {
          "internalType": "address",
          "name": "",
          "type": "address"
        }
      ],
      "stateMutability": "view",
      "type": "function"
    },
    {
      "inputs": [
        {
          "internalType": "uint8",
          "name": "newState",
          "type": "uint8"
        }
      ],
      "name": "emergencyPauseProtocolPools",
      "outputs": [],
      "stateMutability": "nonpayable",
      "type": "function"
    },
    {
      "inputs": [
        {
          "internalType": "address",
          "name": "asset0",
          "type": "address"
        },
        {
          "internalType": "address",
          "name": "asset1",
          "type": "address"
        },
        {
          "internalType": "address",
          "name": "quoter",
          "type": "address"
        },
        {
          "internalType": "bytes3",
          "name": "markings",
          "type": "bytes3"
        },
        {
          "internalType": "uint256",
          "name": "amountIn",
          "type": "uint256"
        },
        {
          "internalType": "bool",
          "name": "zeroForOne",
          "type": "bool"
        },
        {
          "internalType": "uint256",
          "name": "minAmountOut",
          "type": "uint256"
        },
        {
          "internalType": "uint64",
          "name": "nonce",
          "type": "uint64"
        },
        {
          "internalType": "bytes32",
          "name": "salt",
          "type": "bytes32"
        }
      ],
      "name": "executeCommittedSwap",
      "outputs": [
        {
          "internalType": "uint256",
          "name": "amountOut",
          "type": "uint256"
        }
      ],
      "stateMutability": "payable",
      "type": "function"
    },
    {
      "inputs": [
        {
          "internalType": "uint256",
          "name": "poolID",
          "type": "uint256"
        },
        {
          "internalType": "address",
          "name": "asset0",
          "type": "address"
        },
        {
          "internalType": "address",
          "name": "asset1",
          "type": "address"
        },
        {
          "internalType": "uint256",
          "name": "amount0",
          "type": "uint256"
        },
        {
          "internalType": "uint256",
          "name": "amount1",
          "type": "uint256"
        },
        {
          "internalType": "uint256",
          "name": "liquidity",
          "type": "uint256"
        },
        {
          "internalType": "address",
          "name": "user",
          "type": "address"
        },
        {
          "internalType": "uint256",
          "name": "msgValue",
          "type": "uint256"
        }
      ],
      "name": "executeLiquidityAdd",
      "outputs": [
        {
          "internalType": "uint256",
          "name": "actualLiquidity",
          "type": "uint256"
        }
      ],
      "stateMutability": "nonpayable",
      "type": "function"
    },
    {
      "inputs": [
        {
          "internalType": "uint256",
          "name": "poolID",
          "type": "uint256"
        },
        {
          "internalType": "address",
          "name": "asset0",
          "type": "address"
        },
        {
          "internalType": "address",
          "name": "asset1",
          "type": "address"
        },
        {
          "internalType": "uint256",
          "name": "amount0",
          "type": "uint256"
        },
        {
          "internalType": "uint256",
          "name": "amount1",
          "type": "uint256"
        },
        {
          "internalType": "uint256",
          "name": "liquidity",
          "type": "uint256"
        },
        {
          "internalType": "address",
          "name": "user",
          "type": "address"
        }
      ],
      "name": "executeLiquidityRemove",
      "outputs": [
        {
          "internalType": "uint256",
          "name": "",
          "type": "uint256"
        },
        {
          "internalType": "uint256",
          "name": "",
          "type": "uint256"
        }
      ],
      "stateMutability": "nonpayable",
      "type": "function"
    },
    {
      "inputs": [
        {
          "internalType": "address",
          "name": "callback",
          "type": "address"
        },
        {
          "internalType": "bytes",
          "name": "data",
          "type": "bytes"
        },
        {
          "internalType": "address[]",
          "name": "tokens",
          "type": "address[]"
        }
      ],
      "name": "flashSession",
      "outputs": [],
      "stateMutability": "payable",
      "type": "function"
    },
    {
      "inputs": [
        {
          "internalType": "address",
          "name": "trader",
          "type": "address"
        }
      ],
      "name": "getCommitNonce",
      "outputs": [
        {
          "internalType": "uint64",
          "name": "nonce",
          "type": "uint64"
        }
      ],
      "stateMutability": "view",
      "type": "function"
    },
    {
      "inputs": [
        {
          "internalType": "uint256",
          "name": "poolId",
          "type": "uint256"
        }
      ],
      "name": "getInventory",
      "outputs": [
        {
          "internalType": "uint128",
          "name": "asset0",
          "type": "uint128"
        },
        {
          "internalType": "uint128",
          "name": "asset1",
          "type": "uint128"
        }
      ],
      "stateMutability": "view",
      "type": "function"
    },
    {
      "inputs": [
        {
          "internalType": "uint256",
          "name": "poolID",
          "type": "uint256"
        }
      ],
      "name": "getPoolInfo",
      "outputs": [
        {
          "internalType": "address",
          "name": "asset0",
          "type": "address"
        },
        {
          "internalType": "address",
          "name": "asset1",
          "type": "address"
        },
        {
          "internalType": "address",
          "name": "quoter",
          "type": "address"
        },
        {
          "internalType": "bytes3",
          "name": "markings",
          "type": "bytes3"
        }
      ],
      "stateMutability": "view",
      "type": "function"
    },
    {
      "inputs": [
        {
          "components": [
            {
              "internalType": "address",
              "name": "asset0",
              "type": "address"
            },
            {
              "internalType": "address",
              "name": "asset1",
              "type": "address"
            },
            {
              "internalType": "address",
              "name": "quoter",
              "type": "address"
            },
            {
              "internalType": "uint256[]",
              "name": "amount",
              "type": "uint256[]"
            },
            {
              "internalType": "bool",
              "name": "zeroForOne",
              "type": "bool"
            },
            {
              "internalType": "bytes3[]",
              "name": "marking",
              "type": "bytes3[]"
            },
            {
              "internalType": "bytes4",
              "name": "traderProtection",
              "type": "bytes4"
            }
          ],
          "internalType": "struct SwapParams",
          "name": "p",
          "type": "tuple"
        },
        {
          "internalType": "uint128",
          "name": "asset0Balance",
          "type": "uint128"
        },
        {
          "internalType": "uint128",
          "name": "asset1Balance",
          "type": "uint128"
        }
      ],
      "name": "getQuote",
      "outputs": [
        {
          "internalType": "uint256",
          "name": "quote",
          "type": "uint256"
        },
        {
          "internalType": "uint256",
          "name": "poolID",
          "type": "uint256"
        }
      ],
      "stateMutability": "nonpayable",
      "type": "function"
    },
    {
      "inputs": [
        {
          "components": [
            {
              "internalType": "address",
              "name": "asset0",
              "type": "address"
            },
            {
              "internalType": "address",
              "name": "asset1",
              "type": "address"
            },
            {
              "internalType": "address",
              "name": "quoter",
              "type": "address"
            },
            {
              "internalType": "uint256[]",
              "name": "amount",
              "type": "uint256[]"
            },
            {
              "internalType": "bool",
              "name": "zeroForOne",
              "type": "bool"
            },
            {
              "internalType": "bytes3[]",
              "name": "marking",
              "type": "bytes3[]"
            },
            {
              "internalType": "bytes4",
              "name": "traderProtection",
              "type": "bytes4"
            }
          ],
          "internalType": "struct SwapParams",
          "name": "p",
          "type": "tuple"
        },
        {
          "internalType": "uint128",
          "name": "asset0Balance",
          "type": "uint128"
        },
        {
          "internalType": "uint128",
          "name": "asset1Balance",
          "type": "uint128"
        },
        {
          "internalType": "address",
          "name": "trader",
          "type": "address"
        }
      ],
      "name": "getQuoteAuto",
      "outputs": [
        {
          "internalType": "uint256",
          "name": "quote",
          "type": "uint256"
        },
        {
          "internalType": "uint256",
          "name": "poolID",
          "type": "uint256"
        }
      ],
      "stateMutability": "nonpayable",
      "type": "function"
    },
    {
      "inputs": [
        {
          "components": [
            {
              "internalType": "address",
              "name": "asset0",
              "type": "address"
            },
            {
              "internalType": "address",
              "name": "asset1",
              "type": "address"
            },
            {
              "internalType": "address",
              "name": "quoter",
              "type": "address"
            },
            {
              "internalType": "uint256[]",
              "name": "amount",
              "type": "uint256[]"
            },
            {
              "internalType": "bool",
              "name": "zeroForOne",
              "type": "bool"
            },
            {
              "internalType": "bytes3[]",
              "name": "marking",
              "type": "bytes3[]"
            },
            {
              "internalType": "bytes4",
              "name": "traderProtection",
              "type": "bytes4"
            }
          ],
          "internalType": "struct SwapParams",
          "name": "p",
          "type": "tuple"
        },
        {
          "internalType": "uint128[]",
          "name": "asset0Balances",
          "type": "uint128[]"
        },
        {
          "internalType": "uint128[]",
          "name": "asset1Balances",
          "type": "uint128[]"
        }
      ],
      "name": "getQuoteBatch",
      "outputs": [
        {
          "internalType": "uint256[]",
          "name": "quote",
          "type": "uint256[]"
        },
        {
          "internalType": "uint256[]",
          "name": "poolID",
          "type": "uint256[]"
        }
      ],
      "stateMutability": "nonpayable",
      "type": "function"
    },
    {
      "inputs": [
        {
          "components": [
            {
              "internalType": "address",
              "name": "asset0",
              "type": "address"
            },
            {
              "internalType": "address",
              "name": "asset1",
              "type": "address"
            },
            {
              "internalType": "address",
              "name": "quoter",
              "type": "address"
            },
            {
              "internalType": "uint256[]",
              "name": "amount",
              "type": "uint256[]"
            },
            {
              "internalType": "bool",
              "name": "zeroForOne",
              "type": "bool"
            },
            {
              "internalType": "bytes3[]",
              "name": "marking",
              "type": "bytes3[]"
            },
            {
              "internalType": "bytes4",
              "name": "traderProtection",
              "type": "bytes4"
            }
          ],
          "internalType": "struct SwapParams",
          "name": "p",
          "type": "tuple"
        },
        {
          "internalType": "uint128[]",
          "name": "asset0Balances",
          "type": "uint128[]"
        },
        {
          "internalType": "uint128[]",
          "name": "asset1Balances",
          "type": "uint128[]"
        },
        {
          "internalType": "address",
          "name": "trader",
          "type": "address"
        }
      ],
      "name": "getQuoteBatchAuto",
      "outputs": [
        {
          "internalType": "uint256[]",
          "name": "quote",
          "type": "uint256[]"
        },
        {
          "internalType": "uint256[]",
          "name": "poolID",
          "type": "uint256[]"
        }
      ],
      "stateMutability": "nonpayable",
      "type": "function"
    },
    {
      "inputs": [
        {
          "internalType": "address",
          "name": "user",
          "type": "address"
        },
        {
          "internalType": "address[]",
          "name": "tokens",
          "type": "address[]"
        }
      ],
      "name": "getUserDeltas",
      "outputs": [
        {
          "internalType": "int256[]",
          "name": "deltas",
          "type": "int256[]"
        }
      ],
      "stateMutability": "view",
      "type": "function"
    },
    {
      "inputs": [
        {
          "internalType": "address",
          "name": "owner",
          "type": "address"
        },
        {
          "internalType": "address",
          "name": "spender",
          "type": "address"
        }
      ],
      "name": "isOperator",
      "outputs": [
        {
          "internalType": "bool",
          "name": "",
          "type": "bool"
        }
      ],
      "stateMutability": "view",
      "type": "function"
    },
    {
      "inputs": [],
      "name": "liquidityManager",
      "outputs": [
        {
          "internalType": "address",
          "name": "",
          "type": "address"
        }
      ],
      "stateMutability": "view",
      "type": "function"
    },
    {
      "inputs": [
        {
          "components": [
            {
              "internalType": "address",
              "name": "asset0",
              "type": "address"
            },
            {
              "internalType": "address",
              "name": "asset1",
              "type": "address"
            },
            {
              "internalType": "address",
              "name": "quoter",
              "type": "address"
            },
            {
              "internalType": "uint256[]",
              "name": "amount",
              "type": "uint256[]"
            },
            {
              "internalType": "bool",
              "name": "zeroForOne",
              "type": "bool"
            },
            {
              "internalType": "bytes3[]",
              "name": "marking",
              "type": "bytes3[]"
            },
            {
              "internalType": "bytes4",
              "name": "traderProtection",
              "type": "bytes4"
            }
          ],
          "internalType": "struct SwapParams",
          "name": "p",
          "type": "tuple"
        },
        {
          "internalType": "uint128",
          "name": "asset0Balance",
          "type": "uint128"
        },
        {
          "internalType": "uint128",
          "name": "asset1Balance",
          "type": "uint128"
        }
      ],
      "name": "routerGetQuote",
      "outputs": [
        {
          "internalType": "uint256",
          "name": "quote",
          "type": "uint256"
        },
        {
          "internalType": "uint256",
          "name": "poolID",
          "type": "uint256"
        }
      ],
      "stateMutability": "nonpayable",
      "type": "function"
    },
    {
      "inputs": [
        {
          "internalType": "uint8",
          "name": "overallSlot",
          "type": "uint8"
        },
        {
          "internalType": "address",
          "name": "bridge",
          "type": "address"
        }
      ],
      "name": "setDataBridge",
      "outputs": [],
      "stateMutability": "nonpayable",
      "type": "function"
    },
    {
      "inputs": [
        {
          "internalType": "address",
          "name": "protocol",
          "type": "address"
        },
        {
          "internalType": "address",
          "name": "emergency",
          "type": "address"
        }
      ],
      "name": "setGovernance",
      "outputs": [],
      "stateMutability": "nonpayable",
      "type": "function"
    },
    {
      "inputs": [
        {
          "internalType": "address",
          "name": "_liquidityManager",
          "type": "address"
        }
      ],
      "name": "setLiquidityManager",
      "outputs": [],
      "stateMutability": "nonpayable",
      "type": "function"
    },
    {
      "inputs": [
        {
          "internalType": "address",
          "name": "operator",
          "type": "address"
        },
        {
          "internalType": "bool",
          "name": "approved",
          "type": "bool"
        }
      ],
      "name": "setOperator",
      "outputs": [
        {
          "internalType": "bool",
          "name": "",
          "type": "bool"
        }
      ],
      "stateMutability": "nonpayable",
      "type": "function"
    },
    {
      "inputs": [
        {
          "internalType": "bytes4",
          "name": "interfaceId",
          "type": "bytes4"
        }
      ],
      "name": "supportsInterface",
      "outputs": [
        {
          "internalType": "bool",
          "name": "",
          "type": "bool"
        }
      ],
      "stateMutability": "view",
      "type": "function"
    },
    {
      "inputs": [
        {
          "internalType": "address",
          "name": "asset0",
          "type": "address"
        },
        {
          "internalType": "address",
          "name": "asset1",
          "type": "address"
        },
        {
          "internalType": "address",
          "name": "quoter",
          "type": "address"
        },
        {
          "internalType": "bytes3",
          "name": "markings",
          "type": "bytes3"
        },
        {
          "internalType": "uint256",
          "name": "amountIn",
          "type": "uint256"
        },
        {
          "internalType": "bool",
          "name": "zeroForOne",
          "type": "bool"
        },
        {
          "internalType": "uint256",
          "name": "minAmountOut",
          "type": "uint256"
        }
      ],
      "name": "swap",
      "outputs": [
        {
          "internalType": "uint256",
          "name": "amountOut",
          "type": "uint256"
        }
      ],
      "stateMutability": "payable",
      "type": "function"
    },
    {
      "inputs": [
        {
          "internalType": "address",
          "name": "asset0",
          "type": "address"
        },
        {
          "internalType": "address",
          "name": "asset1",
          "type": "address"
        },
        {
          "internalType": "address",
          "name": "quoter",
          "type": "address"
        },
        {
          "internalType": "bytes3",
          "name": "markings",
          "type": "bytes3"
        },
        {
          "internalType": "uint256",
          "name": "amountIn",
          "type": "uint256"
        },
        {
          "internalType": "bool",
          "name": "zeroForOne",
          "type": "bool"
        },
        {
          "internalType": "uint256",
          "name": "minAmountOut",
          "type": "uint256"
        },
        {
          "internalType": "bytes4",
          "name": "traderProtection",
          "type": "bytes4"
        }
      ],
      "name": "swapWithProtection",
      "outputs": [
        {
          "internalType": "uint256",
          "name": "amountOut",
          "type": "uint256"
        }
      ],
      "stateMutability": "payable",
      "type": "function"
    },
    {
      "inputs": [
        {
          "internalType": "uint256",
          "name": "poolID",
          "type": "uint256"
        }
      ],
      "name": "totalLiquidity",
      "outputs": [
        {
          "internalType": "uint256",
          "name": "",
          "type": "uint256"
        }
      ],
      "stateMutability": "view",
      "type": "function"
    },
    {
      "inputs": [
        {
          "internalType": "address",
          "name": "receiver",
          "type": "address"
        },
        {
          "internalType": "uint256",
          "name": "id",
          "type": "uint256"
        },
        {
          "internalType": "uint256",
          "name": "amount",
          "type": "uint256"
        }
      ],
      "name": "transfer",
      "outputs": [
        {
          "internalType": "bool",
          "name": "",
          "type": "bool"
        }
      ],
      "stateMutability": "nonpayable",
      "type": "function"
    },
    {
      "inputs": [
        {
          "internalType": "address",
          "name": "sender",
          "type": "address"
        },
        {
          "internalType": "address",
          "name": "receiver",
          "type": "address"
        },
        {
          "internalType": "uint256",
          "name": "id",
          "type": "uint256"
        },
        {
          "internalType": "uint256",
          "name": "amount",
          "type": "uint256"
        }
      ],
      "name": "transferFrom",
      "outputs": [
        {
          "internalType": "bool",
          "name": "",
          "type": "bool"
        }
      ],
      "stateMutability": "nonpayable",
      "type": "function"
    }
  ],
  "bytecode": "0x60a0604052346101cc57604051601f6154f538819003918201601f19168301916001600160401b038311848410176101d0578084926020946040528339810103126101cc57516001600160a01b03811681036101cc576080526100606101e4565b600281526001602082018190526040909101526018805462ffffff19166201010217905561008c6101e4565b600581526002602082015260016040909101526019805462ffffff1916620102051790556100b86101e4565b600a8152600360208201526001604090910152601a805462ffffff19166201030a1790556100e46101e4565b60148152600560208201526001604090910152601b805462ffffff1916620105141790556101106101e4565b5f80825260208201819052604090910152601c805462ffffff191690556101356101e4565b5f80825260208201819052604090910152601d805462ffffff1916905561015a6101e4565b60328152600a60208201525f604091820152601e805462ffffff1916610a321790556025805461ffff65ffffffffffff60b01b0119166219007d60b21b179055516152f190816102048239608051818181610bd3015281816121c0015281816129a301528181612fe201526132420152f35b5f80fd5b634e487b7160e01b5f52604160045260245ffd5b60405190606082016001600160401b038111838210176101d05760405256fe60806040526004361015610011575f80fd5b5f3560e01c8062fdd58e1461024e57806301ffc9a714610249578063095bcdb6146102445780630d5f74d51461023f57806323189d511461023a57806326e34a4e146102355780632f380b3514610230578063314e23211461022b57806333827438146102265780633c1624d4146102215780633d465aae1461021c578063426a84931461021757806346529d4e146102125780634dbb4c5e1461020d578063558a7297146102085780635670f55a1461020357806357c9a5fd146101fe578063598af9e7146101f95780635b298d32146101f45780635b7499b5146101ef5780635dfb78af146101ea57806366387140146101e557806378a8317f146101e057806394756e9b146101db5780639d2ec6e4146101d6578063a465ba0f146101d1578063a74713cf146101d1578063b5e60c3c146101cc578063b6363cf2146101c7578063bdf48f8e146101c2578063cc489582146101bd578063d92bc84c146101b8578063de87396c146101b3578063e11ba51e146101ae578063f9158ee5146101a95763fe99049a146101a4575f80fd5b611bd8565b611b57565b611abd565b6119d1565b611946565b6118c0565b611837565b611730565b6116e1565b6116ca565b6114da565b611437565b6113a6565b611362565b6112dc565b611279565b61123f565b6111d2565b611141565b610ede565b610e42565b610dbb565b610c83565b610c02565b610bbe565b610b33565b610b0b565b610a4c565b6108e5565b61083e565b6106bc565b61064c565b61034c565b6102d3565b610275565b6001600160a01b0381160361026457565b5f80fd5b359061027382610253565b565b346102645760403660031901126102645760043561029281610253565b6024359060018060a01b03165f52600160205260405f20905f52602052602060405f2054604051908152f35b35906001600160e01b03198216820361026457565b346102645760203660031901126102645760043563ffffffff60e01b8116809103610264576020906301ffc9a760e01b8114908115610318575b506040519015158152f35b630f632fb360e01b1490505f61030d565b60609060031901126102645760043561034181610253565b906024359060443590565b346102645761035a36610329565b9091335f52600160205260405f20835f5260205260405f208054908382039182116103eb575560018060a01b031690815f5260016020526103a68360405f20905f5260205260405f2090565b6103b1828254611db5565b9055604080513380825260208201939093525f51602061529c5f395f51905f5291819081015b0390a46040516001815280602081015b0390f35b611d86565b634e487b7160e01b5f52604160045260245ffd5b608081019081106001600160401b0382111761041f57604052565b6103f0565b90601f801991011681019081106001600160401b0382111761041f57604052565b6040519061027360e083610424565b60405190610273608083610424565b6040519061027361012083610424565b6001600160401b03811161041f5760051b60200190565b92919061049681610473565b936104a46040519586610424565b602085838152019160051b810192831161026457905b8282106104c657505050565b81358152602091820191016104ba565b9080601f83011215610264578160206104f19335910161048a565b90565b8015150361026457565b3590610273826104f4565b6001600160e81b031981160361026457565b92919061052781610473565b936105356040519586610424565b602085838152019160051b810192831161026457905b82821061055757505050565b60208091833561056681610509565b81520191019061054b565b9080601f83011215610264578160206104f19335910161051b565b91909160e081840312610264576105a1610445565b926105ab82610268565b84526105b960208301610268565b60208501526105ca60408301610268565b604085015260608201356001600160401b03811161026457816105ee9184016104d6565b60608501526105ff608083016104fe565b608085015260a0820135916001600160401b0383116102645761062960c092610634948301610571565b60a0860152016102be565b60c0830152565b6001600160801b0381160361026457565b34610264576080366003190112610264576004356001600160401b0381116102645761067f6106aa91369060040161058c565b60243561068b8161063b565b604435906106988261063b565b606435926106a584610253565b611f84565b60408051928352602083019190915290f35b346102645760e0366003190112610264576004356024356106dc81610253565b6044356106e881610253565b606435916084359360a4359060c4359061070182610253565b602a5461072990610722906001600160a01b03165b6001600160a01b031690565b33146122a7565b610731613772565b916001600160a01b03831615610824575b50826107538394836107a2956137bc565b610770610768835f52600f60205260405f2090565b918254611da8565b90556107876001600160801b038716600f0b6122eb565b61079c6001600160801b038916600f0b6122eb565b9161383b565b6107ad848383613896565b6107b8858483613896565b6107ca6107c58230614256565b5c1590565b6107e3575b505060408051928352602083019390935250f35b61081761081c9361080e6107f561230b565b946107ff86611dc2565b6001600160a01b039091169052565b6107ff84611dcf565b6138a9565b5f80806107cf565b91506107a2610742565b6004359060ff8216820361026457565b346102645760403660031901126102645761085761082e565b61089a6024359161086783610253565b61087c60018060a01b0360285416331461232d565b61089560ff8216600481101590816108d9575b50612369565b6123a4565b6108a9600c60ff831610612369565b600c8110156108d45760030180546001600160a01b0319166001600160a01b03909216919091179055005b611a98565b600f915011155f61088f565b34610264576020366003190112610264576004355f606060405161090881610404565b82815282602082015282604082015201525f52601160205260405f206040519061093182610404565b80546001600160a01b0390811680845260018301548216602085018190526002909301549182166040850181905260489290921b6001600160e81b03191660609490940184905290926103e7916109a89061099a9061098d9081565b956001600160a01b031690565b916001600160e81b03191690565b604080516001600160a01b039586168152958516602087015291909316908401526001600160e81b0319909116606083015281906080820190565b9181601f84011215610264578235916001600160401b038311610264576020808501948460051b01011161026457565b60206040818301928281528451809452019201905f5b818110610a365750505090565b8251845260209384019390920191600101610a29565b3461026457604036600319011261026457600435610a6981610253565b6024356001600160401b03811161026457610a889036906004016109e3565b91610a9283610473565b92610aa06040519485610424565b808452601f19610aaf82610473565b013660208601375f5b818110610acd57604051806103e78782610a13565b80610aef610ade60019385886123c0565b35610ae881610253565b85306142b8565b5c610afa8288611ddf565b5201610ab8565b5f91031261026457565b34610264575f36600319011261026457602a546040516001600160a01b039091168152602090f35b3461026457602036600319011261026457600435610b5081610253565b602a5490610b676001600160a01b038316156123da565b6001600160a01b0316908115610b87576001600160a01b03191617602a55005b60405162461bcd60e51b815260206004820152600f60248201526e496e76616c6964206164647265737360881b6044820152606490fd5b34610264575f366003190112610264576040517f00000000000000000000000000000000000000000000000000000000000000006001600160a01b03168152602090f35b3461026457610c1036610329565b9091335f526002602052610c378160405f209060018060a01b03165f5260205260405f2090565b835f526020528160405f205560405191825260018060a01b0316907fb3fd5071835887567a0671151121894ddccc2842f1d10bedad13e0d17cace9a760203392a4602060405160018152f35b3461026457610100366003190112610264576103e7600435602435610ca781610253565b60443590610cb482610253565b6064359060843560a4359460c43590610ccc82610253565b602a5460e4359590610cea90610722906001600160a01b0316610716565b610cf2613772565b926001600160a01b03841615610db1575b50806001600160801b0380610d649596610d29610d22610d4b96612414565b8a8a613896565b610d3c610d3582612414565b8c8a613896565b16600f0b9116600f0b8361383b565b610d568782856139d6565b5f52600f60205260405f2090565b610d6f868254611db5565b9055610d7e6107c58230614256565b610d91575b604051858152806020810188565b610da3610da89461080e6107f561230b565b61393e565b5f808080610d83565b9250610d4b610d03565b61012036600319011261026457600435610dd481610253565b602435610de081610253565b60443591610ded83610253565b606435610df981610509565b60843560a435610e08816104f4565b60c4359160e435936001600160401b0385168503610264576103e797610e32976101043597612424565b6040519081529081906020820190565b3461026457604036600319011261026457600435610e5f81610253565b60243590610e6c826104f4565b335f908152602081815260408083206001600160a01b038516845290915290209115159160ff1981541660ff841617905560405191825260018060a01b0316907fceb576d9f15e4e200fdb5096d64d5dfd667e16def20c1eefd14256d8e3faa26760203392a360405160018152602090f35b3461026457608036600319011261026457600435610efb81610253565b602435610f0781610253565b604435610f1381610253565b60643592610f2084610509565b610f30610f2b613a2f565b613a72565b610f3c8483858461344d565b9260018060a01b03610f696002610f5b875f52601160205260405f2090565b01546001600160a01b031690565b1661112d576103e7946110c593909285927f68df9a4eb7aacbe8f43763bfbc9f7ca135a5397190ea1cce2558db52dc2f3692929190856001600160a01b038083169084161015611122576110b791935b61107b610fc4610454565b6001600160a01b03861681526001600160a01b03871660208201526001600160a01b03831660408201526001600160e81b031984166060820152611010895f52601160205260405f2090565b815181546001600160a01b03199081166001600160a01b039283161783556020840151600184018054909216908316179055604083015160029092018054606090940151929091166001600160b81b03199093169290921760489190911c62ffffff60a01b16179055565b604080516001600160a01b03958616815295851660208701529316928401929092526001600160e81b0319909116606083015281906080820190565b0390a2600160f81b16151590565b6110e4575b5f6110d3613a2f565b5d6040519081529081906020820190565b602854611104906110fd906001600160a01b0316610716565b331461232d565b61111d815f52602660205260405f2060ff198154169055565b6110ca565b6110b7919293610fb9565b63e1ecc13360e01b5f52600484905260245ffd5b6101003660031901126102645760043561115a81610253565b60243561116681610253565b6044359161117383610253565b60643561117f81610509565b60843560a43561118e816104f4565b60e4359260c43592906001600160e01b031985168503610264576103e7976110ca976111bb610f2b613a2f565b604051976111ca60208a610424565b5f8952613efc565b34610264576060366003190112610264576004356111ef81610253565b61122a6024356111fe81610253565b6044359260018060a01b03165f52600260205260405f209060018060a01b03165f5260205260405f2090565b905f52602052602060405f2054604051908152f35b34610264576020366003190112610264576004355f5260106020526040805f20548151906001600160801b038116825260801c6020820152f35b346102645760203660031901126102645760043563ffffffff431690805f52601560205260405f208263ffffffff198254161790556040519182527ff76330af9ed35739f4663e9f2c2726c5c60a98c86b8e6c087b0b54d818c0099b60203393a3005b6060366003190112610264576004356112f481610253565b6024356001600160401b0381116102645736602382011215610264578060040135906001600160401b03821161026457366024838301011161026457604435916001600160401b038311610264576113609361135660249436906004016109e3565b94909301906124da565b005b346102645760203660031901126102645760043561137f81610253565b60018060a01b03165f52601660205260206001600160401b0360405f205416604051908152f35b34610264576020366003190112610264576113bf61082e565b6029546001600160a01b031633148015611423575b156113ed576113609060ff801960275416911617602755565b60405162461bcd60e51b815260206004820152600e60248201526d4f6e6c7920656d657267656e637960901b6044820152606490fd5b506028546001600160a01b031633146113d4565b346102645760403660031901126102645760043561145481610253565b60243561ffff81169182820361026457601280546001600160a01b0319166001600160a01b0383161790557f42bc0dce68a76f2cb7882e7da1060360603348ede3c834d9239472d409103ef8926040926012805461ffff60a01b191660a09290921b61ffff60a01b1691909117905582516001600160a01b0390921682526020820152a1005b6060366003190112610264576004356001600160401b038111610264576115059036906004016109e3565b60443591602435611517610f2b613a2f565b61151f613772565b906001600160a01b0382161561167e575b831561166f579261154c60a0611546838661415a565b01614197565b1561165a5761156361155e828561415a565b6123d0565b925b61157d60a061154661157685611d9a565b8585614175565b1561163d57611599602061159361157685611d9a565b016123d0565b91905b5f915b8083106115fd575050506115b66107c58330614256565b6115ea575b5050508181106115d2576103e7905f6110d3613a2f565b63d438755d60e01b5f5260049190915260245260445ffd5b6115f5923492614725565b5f80806115bb565b90919561162f600191866116128a8688614175565b918a1561161e87611d9a565b8c14918115611638575b30946148a9565b9601919061159f565b611628565b61165361155e61164c84611d9a565b8484614175565b919061159c565b6116696020611593838661415a565b92611565565b63145dbb4560e21b5f5260045ffd5b339150611530565b606060031982011261026457600435906001600160401b038211610264576116b09160040161058c565b906024356116bd8161063b565b906044356104f18161063b565b34610264576106aa6116db36611686565b9161266e565b34610264576020366003190112610264576004355f52600f602052602060405f2054604051908152f35b60409060031901126102645760043561172381610253565b906024356104f181610253565b3461026457602060ff61176c6117453661170b565b6001600160a01b039182165f90815280865260408082209290931681526020919091522090565b54166040519015158152f35b9080601f8301121561026457813561178f81610473565b9261179d6040519485610424565b81845260208085019260051b82010192831161026457602001905b8282106117c55750505090565b6020809183356117d48161063b565b8152019101906117b8565b90602080835192838152019201905f5b8181106117fc5750505090565b82518452602093840193909201916001016117ef565b90916118296104f1936040845260408401906117df565b9160208184039101526117df565b34610264576060366003190112610264576004356001600160401b0381116102645761186790369060040161058c565b6024356001600160401b03811161026457611886903690600401611778565b90604435916001600160401b038311610264576118aa6118b0933690600401611778565b91612bea565b906103e760405192839283611812565b34610264576080366003190112610264576004356001600160401b038111610264576118f090369060040161058c565b6024356001600160401b0381116102645761190f903690600401611778565b90604435916001600160401b038311610264576119336118b0933690600401611778565b906064359261194184610253565b61300f565b60e0366003190112610264576119bc60043561196181610253565b60243561196d81610253565b60443561197981610253565b60643561198581610509565b6084359060a43592611996846104f4565b60c435946119a5610f2b613a2f565b604051966119b4602089610424565b5f8852613c2a565b5f6119c5613a2f565b5d604051908152602090f35b34610264576119df3661170b565b6028546119f5906001600160a01b0316156123da565b6001600160a01b038216151580611a86575b15611a4d57611a306113609260018060a01b03166001600160601b0360a01b6028541617602855565b60018060a01b03166001600160601b0360a01b6029541617602955565b60405162461bcd60e51b8152602060048201526011602482015270496e76616c69642061646472657373657360781b6044820152606490fd5b506001600160a01b0381161515611a07565b634e487b7160e01b5f52603260045260245ffd5b600c8110156108d457600301905f90565b3461026457602036600319011261026457600435600c81101561026457600301546040516001600160a01b039091168152602090f35b6001600160401b03811161041f57601f01601f191660200190565b805180835260209291819084018484015e5f828201840152601f01601f1916010190565b9091611b496104f193604084526040840190611b0e565b916020818403910152611b0e565b34610264576020366003190112610264576004356001600160401b0381116102645736602382011215610264578060040135611b9281611af3565b90611ba06040519283610424565b8082523660248285010111610264576020815f926024611bc8960183860137830101526133f6565b906103e760405192839283611b32565b3461026457608036600319011261026457600435611bf581610253565b602435611c0181610253565b604435915f51602061529c5f395f51905f526103d7606435936001600160a01b03841693611c63908790611c56903388141580611d52575b611cc2576001600160a01b03165f90815260016020526040902090565b905f5260205260405f2090565b611c6e868254611da8565b90556001600160a01b0381165f908152600160205260409020611c92908790611c56565b611c9d868254611db5565b90556040805133815260208101969096526001600160a01b0390911694918291820190565b611cf983611c5633611ce48560018060a01b03165f52600260205260405f2090565b9060018060a01b03165f5260205260405f2090565b548960018201611d1f575b50506001600160a01b03165f90815260016020526040902090565b611d2891611da8565b611d4a84611c5633611ce48660018060a01b03165f52600260205260405f2090565b555f89611d04565b50611d81611d7d611d7633611ce48560018060a01b03165f525f60205260405f2090565b5460ff1690565b1590565b611c39565b634e487b7160e01b5f52601160045260245ffd5b5f198101919082116103eb57565b919082039182116103eb57565b919082018092116103eb57565b8051156108d45760200190565b8051600110156108d45760400190565b80518210156108d45760209160051b010190565b91909160c08060e083019460018060a01b03815116845260018060a01b03602082015116602085015260408101516040850152606081015160608501526080810151608085015260a081015160a085015201511515910152565b60405190611e5c602083610424565b5f8252565b93906104f19593611e92611eae94611e84611ea09460a08a5260a08a0190611b0e565b9088820360208a0152611b0e565b908682036040880152611b0e565b908482036060860152611b0e565b916080818403910152611b0e565b90816020910312610264575190565b80516001600160a01b03908116835260208083015182169084015260408083015190911690830152610273919061010090819060608101516060850152611f22608082015160808601906001600160801b03169052565b60a0818101516001600160801b03169085015260c08181015161ffff169085015260e081810151151590850152015160ff16910152565b80611f6b610140926104f19594611ecb565b816101208201520190611b0e565b6040513d5f823e3d90fd5b93929360a0810194600160e81b611fac611f9e8851611dc2565b516001600160e81b03191690565b16611fc15750611fbd93945061266e565b9091565b8151929391929091906001600160a01b0316602084018051909291906001600160a01b0316604086018051909291906001600160a01b03168a5161200490611dc2565b516001600160e81b031916916120199361344d565b975161202490611dc2565b516001600160e81b03191661203890613505565b945a6120448630614256565b5c9061204e610445565b6001600160a01b0390971687523260208801524360408801524260608801523a608088015260a0870152151560c08601526040518095602082019061209291611df3565b03601f19810186526120a49086610424565b80516001600160a01b031693516001600160a01b031682519093906001600160a01b03169760608301516120d790611dc2565b516080890151899061ffff16608090950151151595516001600160a01b031690612100916135f3565b95612109610463565b6001600160a01b0390981688526001600160a01b031660208801526001600160a01b03909916604087019081529860608701526001600160801b031660808601526001600160801b031660a085015261ffff1660c0840152151560e083015260ff16610100820152612179611e4d565b92612182611e4d565b9261218b611e4d565b612193611e4d565b925115155f149661222360209761221561223096610716966107169661224e9d612296576122076121e48c7f00000000000000000000000000000000000000000000000000000000000000006136e0565b935b6121f96040519460209286938401611b32565b03601f198101845283610424565b6040519b8c958e8701611e61565b03601f198101885287610424565b516001600160a01b031690565b905f60405180968195829463abfebfd160e01b845260048401611f59565b03925af1908115612291575f9161226457509190565b612286915060203d60201161228a575b61227e8183610424565b810190611ebc565b9190565b503d612274565b611f79565b6122076122a1611e4d565b936121e6565b156122ae57565b60405162461bcd60e51b815260206004820152601560248201527427b7363c902634b8bab4b234ba3ca6b0b730b3b2b960591b6044820152606490fd5b600f0b6f7fffffffffffffffffffffffffffffff1981146103eb575f0390565b6040516060919061231c8382610424565b6002815291601f1901366020840137565b1561233457565b60405162461bcd60e51b815260206004820152600d60248201526c13db9b1e481c1c9bdd1bd8dbdb609a1b6044820152606490fd5b1561237057565b60405162461bcd60e51b815260206004820152600c60248201526b125b9d985b1a59081cdb1bdd60a21b6044820152606490fd5b60ff6003199116019060ff82116103eb57565b90156108d45790565b91908110156108d45760051b0190565b356104f181610253565b156123e157565b60405162461bcd60e51b815260206004820152600b60248201526a105b1c9958591e481cd95d60aa1b6044820152606490fd5b600160ff1b81146103eb575f0390565b966124be906124cd99612438610f2b613a2f565b604080516001600160a01b038c81166020830190815287821693830193909352871660608201526001600160e81b03198816608082015260a0810189905289151560c082015260e081018b90526001600160401b038416610100820152336101208201529161014083015261014082526124b461016083610424565b3391519020613ab5565b506124c7611e4d565b96613c2a565b905f6124d7613a2f565b5d565b92939060405160208101907f626529a6be7cb2fb96a7ed93849b4ef74c980495dfe61fd514c95dcd9da51c3582523060601b60408201527f88f108d443a200407df3d92fc06ed196d7b48635560cc21c3b1819792e11c1a7605482015260548152612546607482610424565b5190209361255385613a72565b600161255f3330614256565b5d612569336140c2565b6001600160a01b031692833b156102645761259d935f9283604051809781958294631c6e724760e31b8452600484016125f1565b03925af18015612291575f946125c6936125c0926125d7575b5034923691612618565b3361393e565b6125ce61410b565b6124d73361414f565b806125e5886125eb93610424565b80610b01565b5f6125b6565b90918060409360208452816020850152848401375f828201840152601f01601f1916010190565b92919061262481610473565b936126326040519586610424565b602085838152019160051b810192831161026457905b82821061265457505050565b60208091833561266381610253565b815201910190612648565b8051919290916001600160a01b03166020830180519194916001600160a01b03166040850180519096919491906001600160a01b03169460a087019586516126b590611dc2565b516001600160e81b031916916126ca9361344d565b9584516126d690611dc2565b516001600160e81b0319166126ea90613505565b86519096906001600160a01b031693516001600160a01b031682519093906001600160a01b031695606083015161272090611dc2565b5160808a01518a9061ffff16608090950151151595516001600160a01b031690612749916135f3565b95612752610463565b6001600160a01b0390981688526001600160a01b031660208801526001600160a01b03909716604087019081529660608701526001600160801b031660808601526001600160801b031660a085015261ffff1660c0840152151560e083015260ff166101008201526127c2611e4d565b936127cb611e4d565b926127d4611e4d565b906127dd611e4d565b9260a0019081516127ee9060ff1690565b60ff1680155f1498612215602099612230976107169761071697612223966128b29f6128f457505061281e611e4d565b925b612832611f9e600160e81b9251611dc2565b16156128e35761220761289161289f5a61288261284f3330614256565b5c612858610445565b338152923260208501524360408501524260608501523a608085015260a0840152151560c0830152565b60405192839160208301611df3565b03601f198101835282610424565b6040519384916121f99160208401611b32565b03925af1908115612291575f916128c7575091565b6128e0915060203d60201161228a5761227e8183610424565b91565b6122076128ee611e4d565b926121e6565b600e81116129935750600461292161291b612913610895855160ff1690565b935160ff1690565b60ff1690565b101580612986575b1561297d5761293a61294f91611aac565b905460039190911b1c6001600160a01b031690565b8b6001600160a01b0382161561296e57612968916136e0565b92612820565b5050612978611e4d565b612968565b50612968611e4d565b50600b60ff821610612929565b600f141590506129c7576129688b7f00000000000000000000000000000000000000000000000000000000000000006136e0565b612968611e4d565b604080519091906129e08382610424565b6001815291601f1901366020840137565b906129fb82610473565b612a086040519182610424565b8281528092612a19601f1991610473565b0190602036910137565b9080601f83011215610264578151612a3a81610473565b92612a486040519485610424565b81845260208085019260051b82010192831161026457602001905b828210612a705750505090565b8151815260209182019101612a63565b906020828203126102645781516001600160401b038111610264576104f19201612a23565b90602080835192838152019201905f5b818110612ac25750505090565b82516001600160801b0316845260209384019390920191600101612ab5565b90602080835192838152019201905f5b818110612afe5750505090565b825161ffff16845260209384019390920191600101612af1565b604080825282516001600160a01b0316908201526104f1929060208301516001600160a01b0316606082015260408301516001600160a01b03166080820152612bdd610100612bc2612bad612b97612b81606089015161012060a08901526101608801906117df565b6080890151878203603f190160c0890152612aa5565b60a0880151868203603f190160e0880152612aa5565b60c0870151858203603f190184870152612ae1565b60e0860151151561012085015294015160ff16610140830152565b6020818403910152611b0e565b9060a0820190612bfb8251516129f1565b91612c078151516129f1565b50612c138151516129f1565b95612c29612c24611f9e8451611dc2565b613505565b5f5b83518051821015612cb65790612cb0612c9d6080612c948b8b612c8e87612c88612c5a611f9e8360019d611ddf565b8551909586916001600160a01b03165b60208201516040909201516001600160a01b0390811692169061344d565b92611ddf565b52613505565b015161ffff1690565b612ca7838d611ddf565b9061ffff169052565b01612c2b565b5050855192969195909390926001600160a01b03166020840180519194909390916001600160a01b0316604083018051909b919291906001600160a01b03169160608501519560808601968751612d0c90151590565b94612d178c826135f3565b96612d20610463565b6001600160a01b03909c168c526001600160a01b031660208c01526001600160a01b031660408b015260608a0152608089015260a088015260c0870152151560e086015260ff16610100850152516001600160a01b031691516001600160a01b031688519091906001600160a01b03169051151591612d9d610463565b6001600160a01b0390941684526001600160a01b031660208401526001600160a01b031660408301525f606083018190526080830181905260a0830181905260c0830152151560e08201525f610100820152612df7611e4d565b90612e00611e4d565b93612e09611e4d565b91612e12611e4d565b60a092909201805160ff1680612f5257505050612e2d611e4d565b915b5f5f5b8a518051821015612f2e57612e6190612e53611f9e84600160e81b93611ddf565b166001600160e81b03191690565b612e6d57600101612e32565b50505f96985098612223612ece946122156107169561071695612eec9c9e60015b8d14612f1d57612ebf612891612eab5a61288261284f3330614256565b925b6121f960405194859260208401611b32565b6040519b8c9560208701611e61565b90836040518096819582946372e0727960e01b845260048401612b18565b03925af1908115612291575f91612f01575091565b6128e091503d805f833e612f158183610424565b810190612a80565b612ebf612f28611e4d565b92612ead565b50505f979950612ece946122156107169561071695612eec9c9e9561222395612e8e565b60ff16600e8111612fd257506004612f7461291b612913610895855160ff1690565b101580612fc5575b15612fbb5761293a612f8d91611aac565b906001600160a01b03821615612fac57612fa6916141a1565b91612e2f565b5050612fb6611e4d565b612fa6565b5050612fa6611e4d565b50600b60ff821610612f7c565b600f1415905061300657612fa6907f00000000000000000000000000000000000000000000000000000000000000006136e0565b50612fa6611e4d565b9392939190915f935f5b60a083015180518210156133a55761303d90612e53611f9e84600160e81b93611ddf565b61304957600101613019565b50909192935060015b156133995760a08201946130678651516129f1565b916130738751516129f1565b945f5b885180518210156130ce57906130c86130be6080612c9461309c611f9e86600198611ddf565b8b516130b49082908e906001600160a01b0316612c6a565b612c8e878d611ddf565b612ca7838b611ddf565b01613076565b505094909695939192955a6130e38530614256565b5c906130ed610445565b6001600160a01b0390961686523260208701524360408701524260608701523a608087015260a0860152151560c08501526040518094602082019061313191611df3565b03601f19810185526131439085610424565b5161314d90611dc2565b516001600160e81b03191661316190613505565b82519095906001600160a01b03166020840180519097919691906001600160a01b03166040860180519097919291906001600160a01b031692608088019384516131aa90151590565b906131b585826135f3565b926131be610463565b6001600160a01b03909d168d526001600160a01b031660208d01526001600160a01b031660408c01525f60608c0181905260808c0181905260a08c0181905260c08c0152151560e08b015260ff166101008a015261321a611e4d565b90613223611e4d565b9261322c611e4d565b9a613235611e4d565b91511561338a57613266907f00000000000000000000000000000000000000000000000000000000000000006141a1565b915b60405191829161327b9160208401611b32565b03601f198101825261328d9082610424565b6040519a8b946132a09460208701611e61565b03601f19810188526132b29088610424565b84516001600160a01b031697516001600160a01b031686519095906001600160a01b031660609091015191511515956132e9610463565b6001600160a01b03909a168a526001600160a01b031660208a01526001600160a01b031660408901526060880152608087015260a086015260c0850152151560e08401525f610100840152516001600160a01b03166001600160a01b03166001600160a01b03166040516372e0727960e01b8152929091839182916133719160048401612b18565b03815a5f948591f1908115612291575f91612f01575091565b50613393611e4d565b91613268565b935091611fbd92612bea565b505090919293613052565b81601f82011215610264578051906133c782611af3565b926133d56040519485610424565b8284526020838301011161026457815f9260208093018386015e8301015290565b8051810190604081602084019303126102645760208101516001600160401b0381116102645782602061342b928401016133b0565b916040820151916001600160401b03831161026457611fbd92016020016133b0565b9092906001600160a01b0380851690821610156134bf5792915b6040516bffffffffffffffffffffffff19606095861b81166020830190815294861b811660348301529190941b1660488401526001600160e81b031916605c830152603f8252906134b9605f82610424565b51902090565b91613467565b6040519060c082018281106001600160401b0382111761041f576040525f60a0838281528260208201528260408201528260608201528260808201520152565b6104f1600f6135a46135156134c5565b9360e81c61352a600182161515869015159052565b61354d613544600183811c627fffff165b1662ffffff1690565b15156020870152565b61356d6135646001600284901c623fffff1661353b565b15156040870152565b61358d6135846001600384901c621fffff1661353b565b15156060870152565b600481901c610fff16608086015260141c600f1690565b1660ff1660a0830152565b3d156135d9573d906135c082611af3565b916135ce6040519384610424565b82523d5f602084013e565b606090565b9081602091031261026457516104f1816104f4565b90600f60ff61360660a084015160ff1690565b16036136a4575f60808192019261361f845161ffff1690565b604051636f96a0a360e01b6020820190815261ffff90921660248201526136498160448101612891565b51915afa6136556135af565b9080613698575b61367057505160ff16806104f15750600f90565b6136849150602080825183010191016135de565b600b90156136925760241790565b50600f90565b5060208151101561365c565b50505f90565b906020828203126102645781516001600160401b038111610264576104f192016133b0565b610120810192916102739190611ecb565b6001600160a01b038116908115613767573b1561375d575f9182916040518094818094632031827560e11b825261371f60048301610120810192611ecb565b03925af15f9181613739575b506104f157506104f1611e4d565b6137569192503d805f833e61374e8183610424565b8101906136aa565b905f61372b565b50506104f1611e4d565b5050506104f1611e4d565b60405160208101907f507ba82850c15277b79bae90c6e97b66228a117b64d05e46b3182d141df61ce282523060601b6040820152603481526137b5605482610424565b5190205c90565b91909160018060a01b0316805f52600160205260405f20835f5260205260405f208054908382039182116103eb57556040805133815260208101939093525f925f51602061529c5f395f51905f5291819081015b0390a4565b90600f0b90600f0b019060016001607f1b0319821260016001607f1b038313176103eb57565b909161386d90825f52601060205261386460405f2054946001600160801b038616600f0b613815565b9360801d613815565b6001600160801b03199060801b16905f5260106020526001600160801b0360405f209216179055565b906138a191306142b8565b90815c01905d565b8151915f5b8381106138bb5750505050565b6001906001600160a01b036138d08285611ddf565b51166138dd8186306142b8565b5c806138ec575b5050016138ae565b5f9161390c9183811315613914576139059088836143fc565b86306142b8565b5d5f806138e4565b61392061393291612414565b821585146139375784905b898461432d565b613905565b849061392b565b90918251925f5b848110613953575050505050565b6001906001600160a01b036139688285611ddf565b51166139758187306142b8565b5c80613984575b505001613945565b5f916139a491838113156139ac5761399d9089836143fc565b87306142b8565b5d5f8061397c565b6139b86139ca91612414565b821585146139cf5788905b8a8461432d565b61399d565b84906139c3565b91909160018060a01b031690815f52600160205260405f20835f5260205260405f208054908282018092116103eb57556040805133815260208101929092525f915f51602061529c5f395f51905f529181908101613810565b60405160208101907f626529a6be7cb2fb96a7ed93849b4ef74c980495dfe61fd514c95dcd9da51c3582523060601b6040820152603481526134b9605482610424565b805c610264576001905d565b63ffffffff6101009116019063ffffffff82116103eb57565b6001600160401b036001911601906001600160401b0382116103eb57565b91613ad6613acc846015905f5260205260405f2090565b5463ffffffff1690565b63ffffffff81168015613bf657431115613be757613af6613aff91613a7e565b63ffffffff1690565b4311613bd8576001600160a01b0382165f908152601660205260409020546001600160401b03166001600160401b03821603613bc957613b64613b9691613b5f613b52866015905f5260205260405f2090565b805463ffffffff19169055565b613a97565b6001600160a01b0383165f908152601660205260409020906001600160401b03166001600160401b0319825416179055565b6001600160a01b0316907f5ed00d9781aaac5f5ab01a93ece28fca0f8ffe70c108140274d8fec00477ce805f80a3600190565b632071cf9f60e11b5f5260045ffd5b63586b1f3960e01b5f5260045ffd5b630376613560e51b5f5260045ffd5b63ea3c1a4f60e01b5f5260045ffd5b91908260409103126102645760208251613c1e8161063b565b9201516104f18161063b565b909197969495613c38613772565b956001600160a01b03871615613ef4575b600160e91b8516613ecc575b50613c62848a858561344d565b90620100008560e81c16613e87575b60408051632d94c69960e11b8152600481018490529a908b602481305afa958615612291575f9b5f97613e51575b508b87918b8a613cad6129cf565b613cb56129cf565b92613cbe610445565b6001600160a01b038c168152976001600160a01b038d1660208a01526001600160a01b03166040890152606088019182521515608088015260a087019283525f60c08801525b51613d0e90611dc2565b5251613d1990611dc2565b6001600160e81b03199091169052613d309261266e565b50948515613e42578886613d4592819d6146b3565b808510613e2b5750613dc69392613dbf92613db892613da3906001600160a01b038085169084161015613e24578a5b8015613e09576001600160801b038a16600f0b905b15613df65761079c6001600160801b038916600f0b6122eb565b8815613def5780985b15613de7575094612414565b8686613896565b8284613896565b613dd36107c58330614256565b613ddc57505050565b610273923492614725565b905094612414565b8198613dac565b6001600160801b038a16600f0b9161383b565b613e1e6001600160801b038916600f0b6122eb565b90613d89565b8a15613d74565b63d438755d60e01b5f52600452602484905260445ffd5b6314033f2160e11b5f5260045ffd5b909b50613e7791965060403d604011613e80575b613e6f8183610424565b810190613c05565b95909a8b613c9f565b503d613e65565b60275460ff8116613ebd5760081c62ffffff1615613c7157613eb761291b611d76845f52602660205260405f2090565b15613c71575b63636280a760e01b5f5260045ffd5b611d7d613edb91885f8861450a565b613ee5575f613c55565b6377bbcbed60e11b5f5260045ffd5b339650613c49565b91909298979596939496613f0e613772565b966001600160a01b038816156140ba575b8a8660e01c916101008316614087575b89600160e91b831661406d575b5050613f4b915083868661344d565b91620100008b60e81c16614029575b60408051632d94c69960e11b8152600481018590529b908c602481305afa968715612291575f9c5f98613ffc575b5087918b8a8f93613f976129cf565b90613fa06129cf565b93613fa9610445565b6001600160a01b038d168152986001600160a01b038e1660208b01526001600160a01b031660408a0152606089019283521515608089015260a088019384526001600160e01b03191660c0880152613d04565b8b9d5089985061401d9060409392933d604011613e8057613e6f8183610424565b909d509750908c613f88565b60275460ff8116613ebd5760081c62ffffff1615613f5a5761405961291b611d76855f52602660205260405f2090565b15613f5a5763636280a760e01b5f5260045ffd5b61407a93611d7d9361450a565b613ee5575f8a8189613f3c565b90506140a0611d7d6140998b30614256565b5c84614488565b6140ab578b90613f2f565b630e85e06f60e21b5f5260045ffd5b339750613f1f565b60405160208101907f507ba82850c15277b79bae90c6e97b66228a117b64d05e46b3182d141df61ce282523060601b604082015260348152614105605482610424565b5190205d565b5f60405160208101907f507ba82850c15277b79bae90c6e97b66228a117b64d05e46b3182d141df61ce282523060601b604082015260348152614105605482610424565b6124d75f9130614256565b90156108d45780359060be1981360301821215610264570190565b91908110156108d45760051b8101359060be1981360301821215610264570190565b356104f1816104f4565b6001600160a01b038116801561376757813b15613767576141c182614978565b8051909390156141d2575b50505090565b604051632031827560e11b815293505f9184918290849082906141f890600483016136cf565b03925af15f928161423a575b5061421b575050614213611e4d565b5f80806141cc565b81805161422a575b5050614213565b614233916149eb565b5f80614223565b61424f9193503d805f833e61374e8183610424565b915f614204565b906040519060208201927fe88690b85c82523984f05d1f281684a73aa4d4303bca19cfe29aa89ae744616a84526001600160601b03199060601b1660408301526001600160601b03199060601b166054820152604881526134b9606882610424565b916040519160208301937f71aa94563c1d78d77df681ad802fc1a81ea7d00cffe4bbe002400e1d66de80d285526001600160601b03199060601b1660408401526001600160601b03199060601b1660548301526001600160601b03199060601b166068820152605c81526134b9607c82610424565b9192916001600160a01b031690816143575750500361434857565b63a7adb78f60e01b5f5260045ffd5b919290926143ed576040516323b872dd60e01b81526001600160a01b0390921660048301523060248301526044820152906020908290815f81606481015b03925af1908115612291575f916143be575b50156143af57565b633773869160e01b5f5260045ffd5b6143e0915060203d6020116143e6575b6143d88183610424565b8101906135de565b5f6143a7565b503d6143ce565b63dc4087eb60e01b5f5260045ffd5b6001600160a01b03168061443657505f80809381938290821561442c575b6001600160a01b031690f11561229157565b6108fc915061441a565b60405163a9059cbb60e01b81526001600160a01b0390921660048301526024820192909252906020908290815f8160448101614395565b5f916124d791306142b8565b60088210156108d45701905f90565b6101008116156145035760ff601f54166144ef576144ab9060091c60071661291b565b60ff8116156144eb576144bf906017614479565b5080546144d09060101c60ff161590565b6144eb576144dd90614a1f565b816144e6575090565b905090565b5090565b50806144f85790565b506104f1601b614a1f565b5050600190565b919291600160e91b16156146ab5760255460ff81166146895760081c60ff16614663575b61454761291b620e000060ff9316617fff9060111c1690565b166001810361455b57506104f19150614a39565b6002810361457c575050325f90815260208052604090206104f19150611d76565b600381036145a55750506001600160a01b03165f9081526021602052604090206104f190611d76565b600481036145db5750325f90815260208052604090209091506145c790611d76565b90816145d1575090565b6104f19150614a39565b6005810361460557506001600160a01b039091165f9081526021602052604090206145c790611d76565b600614614613575050600190565b325f908152602080526040902061462990611d76565b918261463a575b50816145d1575090565b6001600160a01b03165f90815260216020526040902090915061465c90611d76565b905f614630565b325f908152602080526040902061467d90611d7d90611d76565b1561452e575050505f90565b5050506001600160a01b03165f9081526021602052604090206104f190611d76565b505050600190565b6001600160801b0392935f146146e6575016908082106146d1575050565b630173586760e01b5f5260045260245260445ffd5b905016908082106146f5575050565b6368580a1960e01b5f5260045260245260445ffd5b9190915f83820193841291129080158216911516176103eb57565b90926147328483306142b8565b5c61473e8484306142b8565b5c916001600160a01b03858116929087168084146148075791816147a195935f6102739a9694125f146147e75761477761478692612414565b906147e05782905b888761432d565b5f8313156147a657505061479b9084866143fc565b8261446d565b61446d565b5f83126147b6575b50505061479b565b6147c26147d093612414565b916147d857905b858761432d565b5f80806147ae565b505f906147c9565b5f9061477f565b505f81136147f6575b50614786565b6148019087866143fc565b5f6147f0565b92506102739695936148189161470a565b925f841215614844575061482e6147a193612414565b9161483c57905b838561432d565b505f90614835565b92915050825f8213614859575b50505061446d565b614862926143fc565b5f8082614851565b903590601e198136030182121561026457018035906001600160401b03821161026457602001918160051b3603831361026457565b356104f181610509565b9493929190606086016148bc818861486a565b905015614969576148d0608088018861486a565b90506148dc828961486a565b9190500361495a5760016148f0828961486a565b9050145f1461494e57866149066104f1986123d0565b91614913602083016123d0565b61494660a061493f61493a61493461492d604089016123d0565b968861486a565b906123b7565b61489f565b9401614197565b93600f614f41565b506104f195600f614b87565b6305a7a8f960e11b5f5260045ffd5b63040e8c7760e51b5f5260045ffd5b90606091805c908115806149d6575b15614990575050565b909250601f6040519380855201908160051c905f5b8281106149bd57505050601f19168201602001604052565b80600180928401015c60208260051b89010152016149a5565b9350604051935f855260208501604052614987565b601f825180835d0160051c915f5b838110614a065750505050565b80602060019260051b8401015182828601015d016149f9565b5460ff81169081156145035760ff9060081c169043061090565b5115614a4457600190565b5f90565b9190916040818403126102645780516001600160401b0381116102645783614a71918301612a23565b9260208201516001600160401b038111610264576104f19201612a23565b90602080835192838152019201905f5b818110614aac5750505090565b82516001600160e81b031916845260209384019390920191600101614a9f565b906104f19060018060a01b03835116815260018060a01b03602084015116602082015260018060a01b03604084015116604082015260c080614b3e614b20606087015160e0606087015260e08601906117df565b60808781015115159086015260a087015185820360a0870152614a8f565b9401516001600160e01b031916910152565b91614b7990614b6b6104f19593606086526060860190614acc565b908482036020860152612aa5565b916040818403910152612aa5565b96949590929391966060840197614b9e898661486a565b969050614efe575b50614bb0856129f1565b91614bba866129f1565b905f5b878110614e685750815f91858389614c81614caa9d9e9f614c55614c7a614be3856123d0565b94614c6c614bf3602083016123d0565b94614c28614c65614c06604086016123d0565b614c13608087018761486a565b939094614c2260a08901614197565b9761486a565b989099614c45614c36610445565b6001600160a01b03909e168e52565b6001600160a01b031660208d0152565b6001600160a01b031660408b0152565b369161048a565b606087015215156080860152565b369161051b565b60a082015260c08101829052604051635efa47c760e11b81529c8d958694859360048501614b50565b03926001600160a01b03165af1908115612291575f975f92614e41575b505f5b878110614d4657505050505090614cf39495614ced9392614cf7575b5050611d9a565b90611ddf565b5190565b81614d0760a0614d319401614197565b15614d38576020614d1891016123d0565b614d2a614d2485611d9a565b87611ddf565b5191613896565b5f80614ce6565b614d41906123d0565b614d18565b80614e078a89614d7084614d69600197614d63608086018661486a565b906123c0565b3593611ddf565b51614dae614d8e614d81878d611ddf565b516001600160801b031690565b82614d9c614d81898c611ddf565b614da860a08701614197565b926146b3565b614db88589611ddf565b5192614dc660a08401614197565b15614e2157614de460a06001600160801b038316600f0b9401614197565b15614e0d57506001600160801b03614dff9116600f0b6122eb565b915b88615065565b01614cca565b6001600160801b03915016600f0b91614e01565b614de460a0614e3b6001600160801b038516600f0b6122eb565b94611546565b909750614e6091503d805f833e614e588183610424565b810190614a48565b90965f614cc7565b600190614ef8614eee614ed3614eb28f8c614e82816123d0565b91614eac61493a89614d63614e99602087016123d0565b94614ea6604088016123d0565b9661486a565b9261344d565b886001915f520160205260405f2054906001600160801b0382169160801c90565b614ee08589949394611ddf565b906001600160801b03169052565b614ee08389611ddf565b01614bbd565b614f2c90614f0e60a08701614197565b15614f3257614f25614f1f876123d0565b91612414565b9089613896565b5f614ba6565b614f25614f1f602088016123d0565b9185809c9b829893979b99959a969a614f5c8c82868c61344d565b9661503c575b8885614f8989896001915f520160205260405f2054906001600160801b0382169160801c90565b9e8f948298614f9998939561514b565b9b8c809a614fa6936146b3565b614fe1928915615021576001600160801b038216600f0b915b8a1561500f5750614fdb6001600160801b038a16600f0b6122eb565b92615065565b614fed575b5050505050565b614ffd9415615007575090613896565b5f82818080614fe6565b905090613896565b6001600160801b0316600f0b92615065565b6150366001600160801b038a16600f0b6122eb565b91614fbf565b821561505c57615057895b61505087612414565b908d613896565b614f62565b61505784615047565b6001909392930191815f52826020526001600160801b0361509d61509360405f205496838816600f0b613815565b928660801d613815565b81199060801b169116179283036150b357505050565b5f5260205260405f2055565b9190826040910312610264576020825192015190565b9193926001600160801b0390816150f6604094606087526060870190614acc565b9616602085015216910152565b90670de0b6b3a7640000820291808304670de0b6b3a764000014901517156103eb57565b9067120a871cc002000082029180830467120a871cc002000014901517156103eb57565b61520698935f926151d16040989a9799956151c26151676129cf565b938d61517286611dc2565b5261519861517e6129cf565b9661518888611dc2565b6001600160e81b03199091169052565b6151b26151a3610445565b6001600160a01b039098168852565b6001600160a01b03166020870152565b6001600160a01b0316848a0152565b6060830152871515608083015260a082015260c08101829052855163a74713cf60e01b815298899586948593600485016150d5565b03926001600160a01b03165af1928315612291575f93615269575b50821561522d57505090565b9091501561524f576152416104f191615127565b670de0b6b3a7640000900490565b61525b6104f191615103565b67120a871cc0020000900490565b61528c91935060403d604011615294575b6152848183610424565b8101906150bf565b50915f615221565b503d61527a56fe1b3d7edb2e9c0b0e7c525b20aaaef0f5940d2ed71663c7d39266ecafac728859a2646970667358221220f64376881fe488b7a8b7b458631b0dd6621ec7bc0d72f1e18ee16aee38ff1edd64736f6c634300081e0033",
  "linkReferences": {},
  "deployedLinkReferences": {}
}