{
  "_format": "hh-sol-artifact-1",
  "contractName": "StoicovQuoterHarness",
  "sourceName": "contracts/Peripheral/quoters/real/RealDataBridge/tests/StoicovQuoterHarness.sol",
  "abi": [
    {
      "inputs": [
        {
          "internalType": "uint8",
          "name": "kIdx",
          "type": "uint8"
        },
        {
          "internalType": "uint8",
          "name": "invMode",
          "type": "uint8"
        },
        {
          "internalType": "bool",
          "name": "gammaSelHigh",
          "type": "bool"
        },
        {
          "internalType": "bool",
          "name": "sigmaFixed",
          "type": "bool"
        },
        {
          "internalType": "bool",
          "name": "gammaZero",
          "type": "bool"
        }
      ],
      "name": "buildBucketID",
      "outputs": [
        {
          "internalType": "uint16",
          "name": "",
          "type": "uint16"
        }
      ],
      "stateMutability": "pure",
      "type": "function"
    },
    {
      "inputs": [
        {
          "internalType": "uint16",
          "name": "bucketID",
          "type": "uint16"
        },
        {
          "internalType": "uint32",
          "name": "sigma2TauPpb",
          "type": "uint32"
        }
      ],
      "name": "deltaStarPrecomp",
      "outputs": [
        {
          "internalType": "uint64",
          "name": "",
          "type": "uint64"
        }
      ],
      "stateMutability": "pure",
      "type": "function"
    },
    {
      "inputs": [
        {
          "internalType": "uint8",
          "name": "idx",
          "type": "uint8"
        },
        {
          "internalType": "uint32",
          "name": "scalePpb",
          "type": "uint32"
        }
      ],
      "name": "gammaFromScaleAndIdx",
      "outputs": [
        {
          "internalType": "uint32",
          "name": "",
          "type": "uint32"
        }
      ],
      "stateMutability": "pure",
      "type": "function"
    },
    {
      "inputs": [],
      "name": "gammaHighScalePpb",
      "outputs": [
        {
          "internalType": "uint32",
          "name": "",
          "type": "uint32"
        }
      ],
      "stateMutability": "pure",
      "type": "function"
    },
    {
      "inputs": [],
      "name": "gammaLowScalePpb",
      "outputs": [
        {
          "internalType": "uint32",
          "name": "",
          "type": "uint32"
        }
      ],
      "stateMutability": "pure",
      "type": "function"
    },
    {
      "inputs": [],
      "name": "gammaMidScalePpb",
      "outputs": [
        {
          "internalType": "uint32",
          "name": "",
          "type": "uint32"
        }
      ],
      "stateMutability": "pure",
      "type": "function"
    },
    {
      "inputs": [
        {
          "internalType": "uint16",
          "name": "bucketID",
          "type": "uint16"
        }
      ],
      "name": "gammaScalePpbOf",
      "outputs": [
        {
          "internalType": "uint32",
          "name": "",
          "type": "uint32"
        }
      ],
      "stateMutability": "pure",
      "type": "function"
    },
    {
      "inputs": [
        {
          "internalType": "uint8",
          "name": "idx",
          "type": "uint8"
        }
      ],
      "name": "invKppbFromIdx",
      "outputs": [
        {
          "internalType": "uint32",
          "name": "",
          "type": "uint32"
        }
      ],
      "stateMutability": "pure",
      "type": "function"
    },
    {
      "inputs": [
        {
          "components": [
            {
              "internalType": "address",
              "name": "asset0",
              "type": "address"
            },
            {
              "internalType": "address",
              "name": "asset1",
              "type": "address"
            },
            {
              "internalType": "address",
              "name": "quoter",
              "type": "address"
            },
            {
              "internalType": "uint256",
              "name": "amount",
              "type": "uint256"
            },
            {
              "internalType": "uint128",
              "name": "asset0Balance",
              "type": "uint128"
            },
            {
              "internalType": "uint128",
              "name": "asset1Balance",
              "type": "uint128"
            },
            {
              "internalType": "uint16",
              "name": "bucketID",
              "type": "uint16"
            },
            {
              "internalType": "bool",
              "name": "zeroForOne",
              "type": "bool"
            },
            {
              "internalType": "uint8",
              "name": "functionFlags",
              "type": "uint8"
            }
          ],
          "internalType": "struct QuoteParams",
          "name": "params",
          "type": "tuple"
        },
        {
          "internalType": "bytes",
          "name": "data",
          "type": "bytes"
        }
      ],
      "name": "quote",
      "outputs": [
        {
          "internalType": "uint256",
          "name": "",
          "type": "uint256"
        }
      ],
      "stateMutability": "view",
      "type": "function"
    },
    {
      "inputs": [
        {
          "components": [
            {
              "internalType": "address",
              "name": "asset0",
              "type": "address"
            },
            {
              "internalType": "address",
              "name": "asset1",
              "type": "address"
            },
            {
              "internalType": "address",
              "name": "quoter",
              "type": "address"
            },
            {
              "internalType": "uint256[]",
              "name": "amount",
              "type": "uint256[]"
            },
            {
              "internalType": "uint128[]",
              "name": "asset0Balances",
              "type": "uint128[]"
            },
            {
              "internalType": "uint128[]",
              "name": "asset1Balances",
              "type": "uint128[]"
            },
            {
              "internalType": "uint16[]",
              "name": "bucketID",
              "type": "uint16[]"
            },
            {
              "internalType": "bool",
              "name": "zeroForOne",
              "type": "bool"
            },
            {
              "internalType": "uint8",
              "name": "functionFlags",
              "type": "uint8"
            }
          ],
          "internalType": "struct QuoteParamsBatch",
          "name": "params",
          "type": "tuple"
        },
        {
          "internalType": "bytes",
          "name": "data",
          "type": "bytes"
        }
      ],
      "name": "quoteBatch",
      "outputs": [
        {
          "internalType": "uint256[]",
          "name": "quotes",
          "type": "uint256[]"
        }
      ],
      "stateMutability": "view",
      "type": "function"
    },
    {
      "inputs": [
        {
          "internalType": "uint16",
          "name": "bucketID",
          "type": "uint16"
        }
      ],
      "name": "requiresSigmaData",
      "outputs": [
        {
          "internalType": "bool",
          "name": "",
          "type": "bool"
        }
      ],
      "stateMutability": "pure",
      "type": "function"
    },
    {
      "inputs": [
        {
          "internalType": "uint16",
          "name": "bucketID",
          "type": "uint16"
        }
      ],
      "name": "sigmaIsFixed",
      "outputs": [
        {
          "internalType": "bool",
          "name": "",
          "type": "bool"
        }
      ],
      "stateMutability": "pure",
      "type": "function"
    },
    {
      "inputs": [
        {
          "internalType": "uint8",
          "name": "idx",
          "type": "uint8"
        },
        {
          "internalType": "uint32",
          "name": "gammaPpb",
          "type": "uint32"
        }
      ],
      "name": "term2ByGammaFromIdx",
      "outputs": [
        {
          "internalType": "uint32",
          "name": "",
          "type": "uint32"
        }
      ],
      "stateMutability": "pure",
      "type": "function"
    }
  ],
  "bytecode": "0x60808060405234601557611ab1908161001a8239f35b5f80fdfe6080806040526004361015610012575f80fd5b5f3560e01c9081630234beb714610849575080633c1ee1d21461081d5780634a42e6ed146107e057806365d8f9e2146107c25780636f96a0a31461079557806372e072791461030f57806382e8a97c146102ec5780639b6f3a48146102b2578063abfebfd1146101a2578063ceb5ee6414610188578063d8035700146100f5578063e3463b7a146100d75763f1ae5ea3146100ab575f80fd5b346100d35760203660031901126100d357602060806100c8610877565b161515604051908152f35b5f80fd5b346100d3575f3660031901126100d3576020604051633b9aca008152f35b346100d35760a03660031901126100d35761010e610888565b60243560ff811681036100d3576044359081151582036100d35760643580151581036100d3576084359182151583036100d3576030600f602096169160041b16179261017e575b610174575b61016b575b61ffff60405191168152f35b6101001761015f565b906080179061015a565b9160401791610155565b346100d3575f3660031901126100d35760206040515f8152f35b346100d357366003190161014081126100d357610120136100d3576040516101c9816108ab565b6004356001600160a01b03811681036100d35781526024356001600160a01b03811681036100d35760208201526044356001600160a01b03811681036100d357604082015260643560608201526084356001600160801b03811681036100d357608082015260a4356001600160801b03811681036100d35760a082015260c43561ffff811681036100d35760c082015260e43580151581036100d35760e08201526101043560ff811681036100d357610100820152610124356001600160401b0381116100d3576020916102a46102aa9236906004016109cc565b90610bae565b604051908152f35b346100d35760403660031901126100d35760206102de6102d0610888565b6102d8610898565b90611329565b63ffffffff60405191168152f35b346100d35760203660031901126100d35760206102de61030a610888565b611884565b346100d35760403660031901126100d3576004356001600160401b0381116100d35761012060031982360301126100d35760405161034c816108ab565b61035882600401610918565b815261036660248301610918565b916020820192835261037a60448201610918565b926040830193845260648201356001600160401b0381116100d3578201366023820112156100d3576004810135906103b18261092c565b916103bf60405193846108f7565b808352602060048185019260051b84010101913683116100d357602401905b828210610785575050506060840190815260848301356001600160401b0381116100d3576104129060043691860101610943565b926080850193845260a48101356001600160401b0381116100d35761043d9060043691840101610943565b9060a0860191825260c48101356001600160401b0381116100d357810190366023830112156100d35760048201356104748161092c565b9261048260405194856108f7565b818452602060048186019360051b83010101903682116100d357602401915b81831061076a5750505060c0870191825260e48101359081151582036100d35760e0880191825261010401359160ff831683036100d35761010088019283526024356001600160401b0381116100d3576105029098959836906004016109cc565b93885151976105296105138a61092c565b996105216040519b8c6108f7565b808b5261092c565b60208a0190601f190136823760208701975f5b8c51805182101561072657908e8989898f9589868080808f958d600160a01b600190039051169c600160a01b600190039051169a600160a01b600190039051169461058691610a32565b5194519061059391610a32565b516001600160801b03169451906105a991610a32565b516001600160801b03169451906105bf91610a32565b5161ffff1694511515955160ff1696604051996105db8b6108ab565b8a5260208a019081526040808b0192835260608b0193845260808b0194855260a08b0195865260c08b0196875260e08b019788526101008b019889525163abfebfd160e01b815299516001600160a01b0390811660048c01529051811660248b01529051166044890152516064880152516001600160801b03908116608488015290511660a48601525161ffff1660c485015251151560e48401525160ff16610104830152610140610124830152895161014483018190528290808d61016484015e808201610164015f9052601f1990601f011681010361016401823091815a93602094fa801561071b578d925f916106e3575b506106dc82600194610a32565b520161053c565b9250506020823d8211610713575b816106fe602093836108f7565b810103126100d35790518c91906106dc6106cf565b3d91506106f1565b6040513d5f823e3d90fd5b838d604051918291602083019060208452518091526040830191905f5b818110610751575050500390f35b8251845285945060209384019390920191600101610743565b823561ffff811681036100d3578152602092830192016104a1565b81358152602091820191016103de565b346100d35760203660031901126100d35760206107b86107b3610877565b610a12565b6040519015158152f35b346100d3575f3660031901126100d3576020604051631dcd65008152f35b346100d35760403660031901126100d357602061080c6107fe610877565b610806610898565b90611227565b6001600160401b0360405191168152f35b346100d35760403660031901126100d35760206102de61083b610888565b610843610898565b90611807565b346100d35760203660031901126100d35760209063ffffffff61087261086d610877565b6111dd565b168152f35b6004359061ffff821682036100d357565b6004359060ff821682036100d357565b6024359063ffffffff821682036100d357565b61012081019081106001600160401b038211176108c757604052565b634e487b7160e01b5f52604160045260245ffd5b61020081019081106001600160401b038211176108c757604052565b90601f801991011681019081106001600160401b038211176108c757604052565b35906001600160a01b03821682036100d357565b6001600160401b0381116108c75760051b60200190565b9080601f830112156100d35781359061095b8261092c565b9261096960405194856108f7565b82845260208085019360051b8201019182116100d357602001915b8183106109915750505090565b82356001600160801b03811681036100d357815260209283019201610984565b6001600160401b0381116108c757601f01601f191660200190565b81601f820112156100d3578035906109e3826109b1565b926109f160405194856108f7565b828452602083830101116100d357815f926020809301838601378301015290565b63ffffffff610a20826111dd565b1615610a2d576080161590565b505f90565b8051821015610a465760209160051b010190565b634e487b7160e01b5f52603260045260245ffd5b81601f820112156100d357805190610a71826109b1565b92610a7f60405194856108f7565b828452602083830101116100d357815f9260208093018386015e8301015290565b519060ff821682036100d357565b51906001600160801b03821682036100d357565b519061ffff821682036100d357565b91908201809211610ade57565b634e487b7160e01b5f52601160045260245ffd5b5f198114610ade5760010190565b8115610b0a570490565b634e487b7160e01b5f52601260045260245ffd5b81810292918115918404141715610ade57565b90633b9aca00820291808305633b9aca001490151715610ade57565b81810292915f8212600160ff1b821416610ade578184051490151715610ade57565b8115610b0a57600160ff1b81145f19831416610ade570590565b81810392915f138015828513169184121617610ade57565b91908203918211610ade57565b908051810160a082602083019203126100d35760208201516001600160401b0381116100d357816020610be392850101610a5a565b5060408201516001600160401b0381116100d357816020610c0692850101610a5a565b5060608201516001600160401b0381116100d357816020610c2992850101610a5a565b5060808201516001600160401b0381116100d357816020610c4c92850101610a5a565b5060a0820151916001600160401b0383116100d357610c6e9201602001610a5a565b805180156111d6578161010091810103126100d357610c8f60208201610aa0565b610c9b60408301610aae565b91610ca860608201610aae565b91610cb560808301610aae565b93610cc260a08401610aae565b60c08401516001600160401b038116036100d357610cef610100610ce860e08701610ac2565b9501610ac2565b955f955f93600186161515806111c4575b6111af575b506002851615158061119d575b611177575b5060048416151580611165575b61113f575b506008831615158061112d575b611109575b5080156110ff57610d566001600160801b0391600495610b00565b169160e0860191825115155f146110eb5786516020906001600160a01b03165b60405163313ce56760e01b815296879182906001600160a01b03165afa93841561071b575f946110af575b8351600496501561109c576020888101516001600160a01b03165b60405163313ce56760e01b815297889182906001600160a01b03165afa95861561071b575f96611060575b5060c08801519661ffff881693610e3261ffff600f8b1692610e08886111dd565b96610e138886611329565b955f9160208116151580611055575b15611028575050505b1680610b1e565b90600a820291808304600a1490151715610ade57610e4f81611884565b946080610e5c8284611807565b9b1615610fd857610e7160039160ff93611807565b965b60041c161660018103610fc4575060015b610e8d84611360565b60808c01516001600160801b03169160a08d01516001600160801b03169c6060019c8d518a51151591610ebf956115e5565b9163ffffffff1690610ed091610b1e565b633b9aca009004633b9aca009004610ee791610b4d565b610ef19082610b4d565b633b9aca009005610f0191610b89565b6001600160801b03169563ffffffff169063ffffffff1690610f2291610b89565b9063ffffffff1690818101918212905f13908015821691151617610ade575f8112610fbd575b63ffffffff169384633b9aca0003633b9aca008111610ade57610f736001600160801b0391836113de565b1694633b9aca00019081633b9aca0011610ade576001600160801b0391610f99916113de565b915191169015610fb15750610fae93516117cc565b90565b9250610fae9351611785565b505f610f48565b600203610fd2576002610e84565b5f610e84565b505063ffffffff82168181158015611020575b15610ffd57505060ff60035f96610e73565b63ffffffff633b9aca0061101560039360ff95610b1e565b0460011c1696610e73565b508015610feb565b6040919293501615158061104a575b611042575b50610e2b565b90505f61103c565b508281161515611037565b508484161515610e22565b9095506020813d602011611094575b8161107c602093836108f7565b810103126100d35761108d90610aa0565b945f610de7565b3d915061106f565b87516020906001600160a01b0316610dbc565b93506020853d6020116110e3575b816110ca602093836108f7565b810103126100d3576110dd600495610aa0565b93610da1565b3d91506110bd565b6020878101516001600160a01b0316610d76565b5050505050505f90565b61112791946001600160801b03611121921690610ad1565b93610af2565b5f610d3b565b506001600160801b0381161515610d36565b61115e9192956001600160801b03611158921690610ad1565b94610af2565b905f610d29565b506001600160801b0381161515610d24565b6111969193966001600160801b03611190921690610ad1565b95610af2565b915f610d17565b506001600160801b0381161515610d12565b6001600160801b03169650600193505f610d05565b506001600160801b0381161515610d00565b5050505f90565b6101008116610a2d57600481901c60031615610a2d5760061c60011661120557631dcd650090565b633b9aca0090565b9063ffffffff8091169116019063ffffffff8211610ade57565b90600f821690611236836111dd565b9061124083611884565b9363ffffffff83161561131c576080166112c65781633b9aca0061127b6112859363ffffffff8061127281988a611329565b16911690610b1e565b60011c0493611807565b92169163ffffffff6112978385610ad1565b91169081116112be576112b56112ba926001600160401b0394610ad1565b610ba1565b1690565b505f92915050565b50916112e1836112db63ffffffff9585611807565b93611807565b91836112ed848461120d565b9116931683116112be5763ffffffff916113069161120d565b160363ffffffff8111610ade5763ffffffff1690565b5050505063ffffffff1690565b9063ffffffff16801561135a57611355633b9aca009163ffffffff61134e819561193f565b1690610b1e565b041690565b50505f90565b5f19633b9aca008209633b9aca008202918280831092039180830392146113d65781600160401b11156113ab57633b9aca00600160401b910990828211900360c01b910360401c1790565b60405162461bcd60e51b815260206004820152600360248201526213d19360ea1b6044820152606490fd5b505060401c90565b5f198282098282029182808310920391808303921461143f5781633b9aca0011156113ab577f88f2cfb83100cb4e69e7c79c58b316e597157d372fb9787e8e47ce423a2e9c6d93633b9aca00910990828211900360f71b910360091c170290565b5050633b9aca0091500490565b5f19600160401b8209918160401b918280851094039380850394146114ce57838211156113ab57600160401b829109600182190182168092046002816003021880820260020302808202600203028082026002030280820260020302808202600203028091026002030293600183805f03040190848311900302920304170290565b50809250156114db570490565b606460405162461bcd60e51b81526020600482015260046024820152630444956360e41b6044820152fd5b5f1982820990828102928380841093039280840393146115455782600160401b11156113ab57600160401b910990828211900360c01b910360401c1790565b50505060401c90565b915f1982840992828102928380861095039480860395146115c757848311156113ab57829109600182190182168092046002816003021880820260020302808202600203028082026002030280820260020302808202600203028091026002030293600183805f03040190848311900302920304170290565b5050809250156114db570490565b600160ff1b8114610ade575f0390565b909492919394633b9aca00810290808204633b9aca001490151715610ade578361160e91610b00565b9115611715578381111561170657633b9aca006116358461162f8785610ba1565b96610b1e565b0492633b9aca00840293808504633b9aca001490151715610ade5785809361166c61166661166c9461167298610b00565b82610ad1565b936119fd565b9160038110156116f2576116e45761169a91905f81126116d557905b5f81126116c757610b89565b633b9aca0081136116be57633b9ac9ff1981126116b45790565b50633b9ac9ff1990565b50633b9aca0090565b6116d0906115d5565b610b89565b6116de906115d5565b9061168e565b6116ed91610b89565b61169a565b634e487b7160e01b5f52602160045260245ffd5b633b9aca00611635845f61162f565b92633b9aca00819392930290808204633b9aca001490151715610ade5761166c856116729461176a6117648661174c859888610b00565b808511156117705761175e9085610ba1565b96610b00565b88610ad1565b966119fd565b505f61175e565b604d8111610ade57600a0a90565b9092919281156117c457610fae936001600160801b03926117b660ff6117af816117bc9616611777565b9316611777565b9061154e565b91169061144c565b505050505f90565b929083156117c457610fae936001600160801b036117fa60ff6117f3816118029616611777565b9616611777565b931690611506565b61154e565b9063ffffffff81161561135a57633b9aca0061183563ffffffff610e2b61182f829587611329565b9561193f565b04911690620186a0820291808304620186a01490151715610ade576001600160ff1b0381168103610ade5763ffffffff916112ba9160011b90610b00565b906010811015610a465760051b0190565b61193a63ffffffff9160ff6040519161189c836108db565b61c3508352620186a060208401526203d09060408401526207a1206060840152620b71b06080840152620f424060a08401526216e36060c0840152621e848060e0840152622dc6c0610100840152624c4b40610120840152627270e06101408401526298968061016084015262e4e1c06101808401526301312d006101a08401526301c9c3806101c08401526302faf0806101e08401521690611873565b511690565b61193a63ffffffff9160ff60405191611957836108db565b63773594008352633b9aca0060208401526317d784006040840152630bebc20060608401526307f2815560808401526305f5e10060a08401526303f940ab60c08401526302faf08060e08401526301fca0556101008401526301312d0061012084015262cb7355610140840152629896806101608401526265b9ab610180840152624c4b406101a08401526232dcd56101c0840152621e84806101e08401521690611873565b9190611a098184610ad1565b9182156117c45760038110156116f25780611a595750508160011b9180830560021490151715610ade57611a3f611a4492610b31565b610b6f565b633b9ac9ff198101908113600116610ade5790565b600103611a6d5750611a3f610fae92610b31565b610fae9250611a3f90610b3156fea26469706673582212208b396a2bc0390ab1734c3d6067740e05ff17540db976cb7fbf83bfd851243b8d64736f6c634300081e0033",
  "linkReferences": {},
  "deployedLinkReferences": {}
}