{
  "_format": "hh-sol-artifact-1",
  "contractName": "StoicovQuoterHarness",
  "sourceName": "contracts/Peripheral/quoters/real/RealDataBridge/tests/StoicovQuoterHarness.sol",
  "abi": [
    {
      "inputs": [
        {
          "internalType": "uint8",
          "name": "kIdx",
          "type": "uint8"
        },
        {
          "internalType": "uint8",
          "name": "invMode",
          "type": "uint8"
        },
        {
          "internalType": "bool",
          "name": "gammaSelHigh",
          "type": "bool"
        },
        {
          "internalType": "bool",
          "name": "sigmaFixed",
          "type": "bool"
        },
        {
          "internalType": "bool",
          "name": "gammaZero",
          "type": "bool"
        }
      ],
      "name": "buildBucketID",
      "outputs": [
        {
          "internalType": "uint16",
          "name": "",
          "type": "uint16"
        }
      ],
      "stateMutability": "pure",
      "type": "function"
    },
    {
      "inputs": [
        {
          "components": [
            {
              "internalType": "address",
              "name": "asset0",
              "type": "address"
            },
            {
              "internalType": "address",
              "name": "asset1",
              "type": "address"
            },
            {
              "internalType": "address",
              "name": "quoter",
              "type": "address"
            },
            {
              "internalType": "uint256",
              "name": "amount",
              "type": "uint256"
            },
            {
              "internalType": "uint128",
              "name": "asset0Balance",
              "type": "uint128"
            },
            {
              "internalType": "uint128",
              "name": "asset1Balance",
              "type": "uint128"
            },
            {
              "internalType": "uint16",
              "name": "bucketID",
              "type": "uint16"
            },
            {
              "internalType": "bool",
              "name": "zeroForOne",
              "type": "bool"
            },
            {
              "internalType": "uint8",
              "name": "functionFlags",
              "type": "uint8"
            }
          ],
          "internalType": "struct QuoteParams",
          "name": "params",
          "type": "tuple"
        },
        {
          "internalType": "bytes",
          "name": "data",
          "type": "bytes"
        }
      ],
      "name": "debugPrices",
      "outputs": [
        {
          "internalType": "uint128",
          "name": "midQ",
          "type": "uint128"
        },
        {
          "internalType": "uint128",
          "name": "reservationQ",
          "type": "uint128"
        },
        {
          "internalType": "uint128",
          "name": "bidQ",
          "type": "uint128"
        },
        {
          "internalType": "uint128",
          "name": "askQ",
          "type": "uint128"
        }
      ],
      "stateMutability": "pure",
      "type": "function"
    },
    {
      "inputs": [
        {
          "internalType": "uint16",
          "name": "bucketID",
          "type": "uint16"
        },
        {
          "internalType": "uint32",
          "name": "sigma2TauPpb",
          "type": "uint32"
        }
      ],
      "name": "deltaStarPrecomp",
      "outputs": [
        {
          "internalType": "uint64",
          "name": "",
          "type": "uint64"
        }
      ],
      "stateMutability": "pure",
      "type": "function"
    },
    {
      "inputs": [
        {
          "internalType": "uint8",
          "name": "idx",
          "type": "uint8"
        },
        {
          "internalType": "uint32",
          "name": "scalePpb",
          "type": "uint32"
        }
      ],
      "name": "gammaFromScaleAndIdx",
      "outputs": [
        {
          "internalType": "uint32",
          "name": "",
          "type": "uint32"
        }
      ],
      "stateMutability": "pure",
      "type": "function"
    },
    {
      "inputs": [],
      "name": "gammaHighPpb",
      "outputs": [
        {
          "internalType": "uint32",
          "name": "",
          "type": "uint32"
        }
      ],
      "stateMutability": "pure",
      "type": "function"
    },
    {
      "inputs": [],
      "name": "gammaHighScalePpb",
      "outputs": [
        {
          "internalType": "uint32",
          "name": "",
          "type": "uint32"
        }
      ],
      "stateMutability": "pure",
      "type": "function"
    },
    {
      "inputs": [],
      "name": "gammaLowScalePpb",
      "outputs": [
        {
          "internalType": "uint32",
          "name": "",
          "type": "uint32"
        }
      ],
      "stateMutability": "pure",
      "type": "function"
    },
    {
      "inputs": [],
      "name": "gammaMidPpb",
      "outputs": [
        {
          "internalType": "uint32",
          "name": "",
          "type": "uint32"
        }
      ],
      "stateMutability": "pure",
      "type": "function"
    },
    {
      "inputs": [],
      "name": "gammaMidScalePpb",
      "outputs": [
        {
          "internalType": "uint32",
          "name": "",
          "type": "uint32"
        }
      ],
      "stateMutability": "pure",
      "type": "function"
    },
    {
      "inputs": [
        {
          "internalType": "uint16",
          "name": "bucketID",
          "type": "uint16"
        }
      ],
      "name": "gammaScalePpbOf",
      "outputs": [
        {
          "internalType": "uint32",
          "name": "",
          "type": "uint32"
        }
      ],
      "stateMutability": "pure",
      "type": "function"
    },
    {
      "inputs": [
        {
          "internalType": "uint8",
          "name": "idx",
          "type": "uint8"
        }
      ],
      "name": "invKppbFromIdx",
      "outputs": [
        {
          "internalType": "uint32",
          "name": "",
          "type": "uint32"
        }
      ],
      "stateMutability": "pure",
      "type": "function"
    },
    {
      "inputs": [
        {
          "components": [
            {
              "internalType": "address",
              "name": "asset0",
              "type": "address"
            },
            {
              "internalType": "address",
              "name": "asset1",
              "type": "address"
            },
            {
              "internalType": "address",
              "name": "quoter",
              "type": "address"
            },
            {
              "internalType": "uint256",
              "name": "amount",
              "type": "uint256"
            },
            {
              "internalType": "uint128",
              "name": "asset0Balance",
              "type": "uint128"
            },
            {
              "internalType": "uint128",
              "name": "asset1Balance",
              "type": "uint128"
            },
            {
              "internalType": "uint16",
              "name": "bucketID",
              "type": "uint16"
            },
            {
              "internalType": "bool",
              "name": "zeroForOne",
              "type": "bool"
            },
            {
              "internalType": "uint8",
              "name": "functionFlags",
              "type": "uint8"
            }
          ],
          "internalType": "struct QuoteParams",
          "name": "params",
          "type": "tuple"
        },
        {
          "internalType": "bytes",
          "name": "data",
          "type": "bytes"
        }
      ],
      "name": "quote",
      "outputs": [
        {
          "internalType": "uint256",
          "name": "",
          "type": "uint256"
        }
      ],
      "stateMutability": "view",
      "type": "function"
    },
    {
      "inputs": [
        {
          "components": [
            {
              "internalType": "address",
              "name": "asset0",
              "type": "address"
            },
            {
              "internalType": "address",
              "name": "asset1",
              "type": "address"
            },
            {
              "internalType": "address",
              "name": "quoter",
              "type": "address"
            },
            {
              "internalType": "uint256[]",
              "name": "amount",
              "type": "uint256[]"
            },
            {
              "internalType": "uint128[]",
              "name": "asset0Balances",
              "type": "uint128[]"
            },
            {
              "internalType": "uint128[]",
              "name": "asset1Balances",
              "type": "uint128[]"
            },
            {
              "internalType": "uint16[]",
              "name": "bucketID",
              "type": "uint16[]"
            },
            {
              "internalType": "bool",
              "name": "zeroForOne",
              "type": "bool"
            },
            {
              "internalType": "uint8",
              "name": "functionFlags",
              "type": "uint8"
            }
          ],
          "internalType": "struct QuoteParamsBatch",
          "name": "params",
          "type": "tuple"
        },
        {
          "internalType": "bytes",
          "name": "data",
          "type": "bytes"
        }
      ],
      "name": "quoteBatch",
      "outputs": [
        {
          "internalType": "uint256[]",
          "name": "quotes",
          "type": "uint256[]"
        }
      ],
      "stateMutability": "view",
      "type": "function"
    },
    {
      "inputs": [
        {
          "internalType": "uint16",
          "name": "bucketID",
          "type": "uint16"
        }
      ],
      "name": "requiresSigmaData",
      "outputs": [
        {
          "internalType": "bool",
          "name": "",
          "type": "bool"
        }
      ],
      "stateMutability": "pure",
      "type": "function"
    },
    {
      "inputs": [
        {
          "internalType": "uint16",
          "name": "bucketID",
          "type": "uint16"
        }
      ],
      "name": "sigmaIsFixed",
      "outputs": [
        {
          "internalType": "bool",
          "name": "",
          "type": "bool"
        }
      ],
      "stateMutability": "pure",
      "type": "function"
    },
    {
      "inputs": [
        {
          "internalType": "uint8",
          "name": "idx",
          "type": "uint8"
        },
        {
          "internalType": "uint32",
          "name": "gammaPpb",
          "type": "uint32"
        }
      ],
      "name": "term2ByGammaFromIdx",
      "outputs": [
        {
          "internalType": "uint32",
          "name": "",
          "type": "uint32"
        }
      ],
      "stateMutability": "pure",
      "type": "function"
    }
  ],
  "bytecode": "0x6080806040523460155761217c908161001a8239f35b5f80fdfe6080806040526004361015610012575f80fd5b5f3560e01c9081630234beb71461078d575080633c1ee1d2146107615780634a42e6ed1461072457806365d8f9e2146101aa5780636f96a0a3146106f757806372e072791461027157806382e8a97c1461024e5780639b6f3a4814610214578063abfebfd1146101f3578063b3a3272c146101af578063b7ec31e1146101aa578063ceb5ee6414610190578063d8035700146100fd578063daf67cdd146100f8578063e3463b7a146100f85763f1ae5ea3146100cc575f80fd5b346100f45760203660031901126100f457602060806100e96107bb565b161515604051908152f35b5f80fd5b610a6f565b346100f45760a03660031901126100f4576101166107cc565b60243560ff811681036100f4576044359081151582036100f45760643580151581036100f4576084359182151583036100f4576030600f602096169160041b161792610186575b61017c575b610173575b61ffff60405191168152f35b61010017610167565b9060801790610162565b916040179161015d565b346100f4575f3660031901126100f45760206040515f8152f35b6107ef565b346100f45760806001600160801b0380806101d26101cc36610974565b9061154c565b93929590918160405197168752166020860152166040840152166060820152f35b346100f457602061020c61020636610974565b90610d9f565b604051908152f35b346100f45760403660031901126100f45760206102406102326107cc565b61023a6107dc565b90611a4d565b63ffffffff60405191168152f35b346100f45760203660031901126100f457602061024061026c6107cc565b611f75565b346100f45760403660031901126100f4576004356001600160401b0381116100f45761012060031982360301126100f4576040516102ae8161080d565b6102ba8260040161087a565b81526102c86024830161087a565b91602082019283526102dc6044820161087a565b926040830193845260648201356001600160401b0381116100f4578201366023820112156100f4576004810135906103138261088e565b916103216040519384610859565b808352602060048185019260051b84010101913683116100f457602401905b8282106106e7575050506060840190815260848301356001600160401b0381116100f45761037490600436918601016108a5565b926080850193845260a48101356001600160401b0381116100f45761039f90600436918401016108a5565b9060a0860191825260c48101356001600160401b0381116100f457810190366023830112156100f45760048201356103d68161088e565b926103e46040519485610859565b818452602060048186019360051b83010101903682116100f457602401915b8183106106cc5750505060c0870191825260e48101359081151582036100f45760e0880191825261010401359160ff831683036100f45761010088019283526024356001600160401b0381116100f45761046490989598369060040161092e565b938851519761048b6104758a61088e565b996104836040519b8c610859565b808b5261088e565b60208a0190601f190136823760208701975f5b8c51805182101561068857908e8989898f9589868080808f958d600160a01b600190039051169c600160a01b600190039051169a600160a01b60019003905116946104e891610aad565b519451906104f591610aad565b516001600160801b031694519061050b91610aad565b516001600160801b031694519061052191610aad565b5161ffff1694511515955160ff16966040519961053d8b61080d565b8a5260208a019081526040808b0192835260608b0193845260808b0194855260a08b0195865260c08b0196875260e08b019788526101008b019889525163abfebfd160e01b815299516001600160a01b0390811660048c01529051811660248b01529051166044890152516064880152516001600160801b03908116608488015290511660a48601525161ffff1660c485015251151560e48401525160ff16610104830152610140610124830152895161014483018190528290808d61016484015e808201610164015f9052601f1990601f011681010361016401823091815a93602094fa801561067d578d925f91610645575b5061063e82600194610aad565b520161049e565b9250506020823d8211610675575b8161066060209383610859565b810103126100f45790518c919061063e610631565b3d9150610653565b6040513d5f823e3d90fd5b838d604051918291602083019060208452518091526040830191905f5b8181106106b3575050500390f35b82518452859450602093840193909201916001016106a5565b823561ffff811681036100f457815260209283019201610403565b8135815260209182019101610340565b346100f45760203660031901126100f457602061071a6107156107bb565b610a8d565b6040519015158152f35b346100f45760403660031901126100f45760206107506107426107bb565b61074a6107dc565b9061194f565b6001600160401b0360405191168152f35b346100f45760403660031901126100f457602061024061077f6107cc565b6107876107dc565b90611ef8565b346100f45760203660031901126100f45760209063ffffffff6107b66107b16107bb565b611905565b168152f35b6004359061ffff821682036100f457565b6004359060ff821682036100f457565b6024359063ffffffff821682036100f457565b346100f4575f3660031901126100f4576020604051631dcd65008152f35b61012081019081106001600160401b0382111761082957604052565b634e487b7160e01b5f52604160045260245ffd5b61020081019081106001600160401b0382111761082957604052565b90601f801991011681019081106001600160401b0382111761082957604052565b35906001600160a01b03821682036100f457565b6001600160401b0381116108295760051b60200190565b9080601f830112156100f4578135906108bd8261088e565b926108cb6040519485610859565b82845260208085019360051b8201019182116100f457602001915b8183106108f35750505090565b82356001600160801b03811681036100f4578152602092830192016108e6565b6001600160401b03811161082957601f01601f191660200190565b81601f820112156100f45780359061094582610913565b926109536040519485610859565b828452602083830101116100f457815f926020809301838601378301015290565b90600319820161014081126100f457610120136100f4576040516109978161080d565b6004356001600160a01b03811681036100f45781526024356001600160a01b03811681036100f45760208201526044356001600160a01b03811681036100f457604082015260643560608201526084356001600160801b03811681036100f457608082015260a4356001600160801b03811681036100f45760a082015260c43561ffff811681036100f45760c082015260e43580151581036100f45760e08201526101043560ff811681036100f4576101008201529161012435906001600160401b0382116100f457610a6c9160040161092e565b90565b346100f4575f3660031901126100f4576020604051633b9aca008152f35b63ffffffff610a9b82611905565b1615610aa8576080161590565b505f90565b8051821015610ac15760209160051b010190565b634e487b7160e01b5f52603260045260245ffd5b81601f820112156100f457805190610aec82610913565b92610afa6040519485610859565b828452602083830101116100f457815f9260208093018386015e8301015290565b91909160a0818403126100f45780516001600160401b0381116100f45783610b44918301610ad5565b9260208201516001600160401b0381116100f45781610b64918401610ad5565b9260408301516001600160401b0381116100f45782610b84918501610ad5565b9260608101516001600160401b0381116100f45783610ba4918301610ad5565b9260808201516001600160401b0381116100f457610a6c9201610ad5565b519060ff821682036100f457565b51906001600160801b03821682036100f457565b519061ffff821682036100f457565b9190826101009103126100f457610c0982610bc2565b91610c1660208201610bd0565b91610c2360408301610bd0565b91610c3060608201610bd0565b91610c3d60808301610bd0565b9160a08101516001600160401b03811681036100f45791610a6c60e0610c6560c08501610be4565b9301610be4565b91908201809211610c7957565b634e487b7160e01b5f52601160045260245ffd5b5f198114610c795760010190565b8115610ca5570490565b634e487b7160e01b5f52601260045260245ffd5b81810292918115918404141715610c7957565b908160011b9180830560021490151715610c7957565b90633b9aca00820291808305633b9aca001490151715610c7957565b81810292915f8212600160ff1b821416610c79578184051490151715610c7957565b8115610ca557600160ff1b81145f19831416610c79570590565b90633b9ac9ff198201918213600116610c7957565b81810392915f138015828513169184121617610c7957565b600160ff1b8114610c79575f0390565b9190915f8382019384129112908015821691151617610c7957565b91908203918211610c7957565b90610db39060208082518301019101610b1b565b9350505050805190811561154557602080610dd2938301019101610bf3565b9495929150925f955f9360018916151580611533575b61151e575b506002881615158061150c575b6114e6575b50600487161515806114d4575b6114ae575b506008861615158061149c575b611478575b50801561146e57610e3e6001600160801b0391600495610c9b565b60e0870151911692901561145a5785516020906001600160a01b03165b60405163313ce56760e01b815295869182906001600160a01b03165afa92831561067d575f9361141e575b60e0870151600495501561140b576020878101516001600160a01b03165b60405163313ce56760e01b815296879182906001600160a01b03165afa94851561067d575f956113cf575b5060c087015161ffff811692600f821694610ee985611905565b98610ef48a88611a4d565b925f91602081161515806113c2575b1561138e57505050608090925b1615801592906113675750633b9aca00610f3863ffffffff610f3188611f75565b1680610cb9565b04945b610f4481611f75565b95610f4f8a83611ef8565b998415611318576003610f6460ff9285611ef8565b975b60041c161660018103611304575060015b610f8086611a7d565b5060a08c01516020808e015160405163313ce56760e01b8152926001600160801b03169190839060049082906001600160a01b03165afa91821561067d578e905f936112bf575b505160405163313ce56760e01b81529190602090839060049082906001600160a01b03165afa90811561067d5789925f9261127c575b509261100893611d00565b9060808d01611021836001600160801b03835116610c6c565b91826111c857505050505f935b156111835750611079633b9aca00926110746402540be40061105863ffffffff610f318897611f75565b049163ffffffff5f88121597885f1461117457915b1690610cb9565b610cb9565b04049015611166575b620186a0810290808205620186a01490151715610c79576110dc9363ffffffff806001600160801b036110ca8296633b9aca006110c36110d4985b83610cfe565b0590610d4f565b1699169116610d4f565b911690610d77565b5f811261115f575b63ffffffff169283633b9aca0003633b9aca008111610c795761110f6001600160801b039183611afb565b1693633b9aca00019081633b9aca0011610c79576001600160801b039161113591611afb565b60e08601519116901561115057506060610a6c940151611d47565b92506060610a6c940151611d00565b505f6110e4565b61116f90610d67565b611082565b61117d90610d67565b9161106d565b63ffffffff948592506110ca6001600160801b0391633b9aca006110c3816111c26110d49a826110dc9f9b8b9a8b6111bb9216610cb9565b0490610cfe565b056110bd565b60038110156112685760028103611203575050633b9aca00820291808304633b9aca001490151715610c79576111fd91610c9b565b9361102e565b9192509060010361123c576001600160801b0390511690633b9aca00820291808304633b9aca001490151715610c79576111fd91610c9b565b6111fd9161125e6112596001600160801b03611263945116610ccc565b610ce2565b610d20565b610d3a565b634e487b7160e01b5f52602160045260245ffd5b925090506020823d6020116112b7575b8161129960209383610859565b810103126100f457611008926112af8a93610bc2565b919093610ffd565b3d915061128c565b919250506020813d6020116112fc575b816112dc60209383610859565b810103126100f4578d9160206112f3600493610bc2565b93919250610fc7565b3d91506112cf565b600203611312576002610f77565b5f610f77565b5063ffffffff8316818115801561135f575b1561133c57505060ff60035f97610f66565b63ffffffff633b9aca0061135460039360ff95610cb9565b0460011c1697610f66565b50801561132a565b61ffff611375911680610cb9565b600a810290808204600a1490151715610c795794610f3b565b60409192959350161515806113b5575b6113ac575b50608090610f10565b925060806113a3565b5061ffff8116151561139e565b5061ffff84161515610f03565b9094506020813d602011611403575b816113eb60209383610859565b810103126100f4576113fc90610bc2565b935f610ecf565b3d91506113de565b86516020906001600160a01b0316610ea4565b92506020843d602011611452575b8161143960209383610859565b810103126100f45761144c600494610bc2565b92610e86565b3d915061142c565b6020868101516001600160a01b0316610e5b565b5050505050505f90565b61149691946001600160801b03611490921690610c6c565b93610c8d565b5f610e23565b506001600160801b0381161515610e1e565b6114cd9192956001600160801b036114c7921690610c6c565b94610c8d565b905f610e11565b506001600160801b0381161515610e0c565b6115059193966001600160801b036114ff921690610c6c565b95610c8d565b915f610dff565b506001600160801b0381161515610dfa565b6001600160801b03169650600193505f610ded565b506001600160801b0381161515610de8565b5050505f90565b91906115619060208082518301019101610b1b565b9350505050805180156118f85790602080611580938301019101610bf3565b979695939098949291505f925f94600188161515806118e6575b6118d1575b50600287161515806118bf575b611899575b5060048616151580611887575b611867575b5060088516151580611855575b611831575b508115611820576001600160801b03916115ee91610c9b565b169460c08201519161162c61ffff80851693600f86169661160e86611905565b995f9160208116151580611815575b156117e8575050501680610cb9565b91600a830292808404600a1490151715610c795760041c600316600181036117d4575060015b61165b88611a7d565b9060808301516001600160801b03169260a08101516001600160801b03169060608101519060e0015115159161169095611d82565b9061169b8685611a4d565b63ffffffff16916116ac8284610cb9565b633b9aca009004633b9aca0090046116c391610cfe565b6116cd9088610cfe565b633b9aca0090056116de9088610d4f565b6001600160801b0316956116f185611f75565b906116fc8187611ef8565b61172e96909563ffffffff956110d49590916080161561179157505061172485928392611ef8565b955b169116610d4f565b5f811261178a575b63ffffffff169081633b9aca0003633b9aca008111610c79576117616001600160801b039185611afb565b1691633b9aca000180633b9aca0011610c79576117866001600160801b039185611afb565b1690565b505f611736565b91508092501580156117cc575b156117ae57505082805f95611726565b84633b9aca006117c18294938394610cb9565b0460011c1695611726565b50801561179e565b6002036117e2576002611652565b5f611652565b6040919293501615158061180a575b611802575b50610f31565b90505f6117fc565b5082811615156117f7565b50848416151561161d565b505050509150505f905f905f905f90565b61184e916001600160801b03611848921690610c6c565b91610c8d565b905f6115d5565b506001600160801b03811615156115d0565b6118809193926001600160801b03611848921690610c6c565b915f6115c3565b506001600160801b03811615156115be565b6118b89194936001600160801b036118b2921690610c6c565b92610c8d565b925f6115b1565b506001600160801b03811615156115ac565b600195506001600160801b031693505f61159f565b506001600160801b038116151561159a565b505f925082918291508190565b6101008116610aa857600481901c60031615610aa85760061c60011661192d57631dcd650090565b633b9aca0090565b9063ffffffff8091169116019063ffffffff8211610c7957565b90600f82169061195e83611905565b9061196883611f75565b9363ffffffff831615611a40576080166119ea5781633b9aca006119a36119ad9363ffffffff8061199a81988a611a4d565b16911690610cb9565b60011c0493611ef8565b92169163ffffffff6119bf8385610c6c565b91169081116119e2576119dd611786926001600160401b0394610c6c565b610d92565b505f92915050565b5091611a05836119ff63ffffffff9585611ef8565b93611ef8565b9183611a118484611935565b9116931683116119e25763ffffffff91611a2a91611935565b160363ffffffff8111610c795763ffffffff1690565b5050505063ffffffff1690565b9063ffffffff168015611a7757611a72633b9aca009163ffffffff61106d8195612030565b041690565b50505f90565b5f19633b9aca008209633b9aca00820291828083109203918083039214611af35781600160401b1115611ac857633b9aca00600160401b910990828211900360c01b910360401c1790565b60405162461bcd60e51b815260206004820152600360248201526213d19360ea1b6044820152606490fd5b505060401c90565b5f1982820982820291828083109203918083039214611b5c5781633b9aca001115611ac8577f88f2cfb83100cb4e69e7c79c58b316e597157d372fb9787e8e47ce423a2e9c6d93633b9aca00910990828211900360f71b910360091c170290565b5050633b9aca0091500490565b5f19600160401b8209918160401b91828085109403938085039414611beb5783821115611ac857600160401b829109600182190182168092046002816003021880820260020302808202600203028082026002030280820260020302808202600203028091026002030293600183805f03040190848311900302920304170290565b5080925015611bf8570490565b606460405162461bcd60e51b81526020600482015260046024820152630444956360e41b6044820152fd5b5f198282099082810292838084109303928084039314611c625782600160401b1115611ac857600160401b910990828211900360c01b910360401c1790565b50505060401c90565b915f198284099282810292838086109503948086039514611ce45784831115611ac857829109600182190182168092046002816003021880820260020302808202600203028082026002030280820260020302808202600203028091026002030293600183805f03040190848311900302920304170290565b505080925015611bf8570490565b604d8111610c7957600a0a90565b909291928115611d3f57610a6c936001600160801b0392611d3160ff611d2a81611d379616611cf2565b9316611cf2565b90611c6b565b911690611b69565b505050505f90565b92908315611d3f57610a6c936001600160801b03611d7560ff611d6e81611d7d9616611cf2565b9616611cf2565b931690611c23565b611c6b565b909492919394633b9aca00810290808204633b9aca001490151715610c795783611dab91610c9b565b9115611e9657633b9aca00611dca84611dc48785610c6c565b96610cb9565b04633b9aca00810290808204633b9aca001490151715610c7957858093611df7611e0f96611e0994610c9b565b80821115611e8f57611e099082610d92565b936120ee565b91600381101561126857611e8157611e3791905f8112611e7257905b5f8112611e6457610d4f565b633b9aca008113611e5b57633b9ac9ff198112611e515790565b50633b9ac9ff1990565b50633b9aca0090565b611e6d90610d67565b610d4f565b611e7b90610d67565b90611e2b565b611e8a91610d4f565b611e37565b505f611e09565b92633b9aca00819392930290808204633b9aca001490151715610c7957611e0985611e0f94611ed985611ed3611ecd859888610c9b565b84610c6c565b95610c9b565b80881115611ef157611eeb9088610d92565b966120ee565b505f611eeb565b9063ffffffff811615611a7757633b9aca00611f2663ffffffff610f31611f20829587611a4d565b95612030565b04911690620186a0820291808304620186a01490151715610c79576001600160ff1b0381168103610c795763ffffffff916117869160011b90610c9b565b906010811015610ac15760051b0190565b61202b63ffffffff9160ff60405191611f8d8361083d565b61c3508352620186a060208401526203d09060408401526207a1206060840152620b71b06080840152620f424060a08401526216e36060c0840152621e848060e0840152622dc6c0610100840152624c4b40610120840152627270e06101408401526298968061016084015262e4e1c06101808401526301312d006101a08401526301c9c3806101c08401526302faf0806101e08401521690611f64565b511690565b61202b63ffffffff9160ff604051916120488361083d565b63773594008352633b9aca0060208401526317d784006040840152630bebc20060608401526307f2815560808401526305f5e10060a08401526303f940ab60c08401526302faf08060e08401526301fca0556101008401526301312d0061012084015262cb7355610140840152629896806101608401526265b9ab610180840152624c4b406101a08401526232dcd56101c0840152621e84806101e08401521690611f64565b91906120fa8184610c6c565b918215611d3f57600381101561126857806121245750506112639061125e611259610a6c94610ccc565b600103612138575061125e610a6c92610ce2565b610a6c925061125e90610ce256fea2646970667358221220144af396f34eb9ec8bf5af8b6a070b7adf266c840d2f5e947ae4967c7828f99a64736f6c634300081e0033",
  "linkReferences": {},
  "deployedLinkReferences": {}
}