{
  "_format": "hh-sol-artifact-1",
  "contractName": "StoicovQuoterHarness",
  "sourceName": "contracts/Peripheral/quoters/real/RealDataBridge/tests/StoicovQuoterHarness.sol",
  "abi": [
    {
      "inputs": [
        {
          "internalType": "uint8",
          "name": "kIdx",
          "type": "uint8"
        },
        {
          "internalType": "uint8",
          "name": "invMode",
          "type": "uint8"
        },
        {
          "internalType": "bool",
          "name": "gammaSelHigh",
          "type": "bool"
        },
        {
          "internalType": "bool",
          "name": "sigmaFixed",
          "type": "bool"
        },
        {
          "internalType": "bool",
          "name": "gammaZero",
          "type": "bool"
        }
      ],
      "name": "buildBucketID",
      "outputs": [
        {
          "internalType": "uint16",
          "name": "",
          "type": "uint16"
        }
      ],
      "stateMutability": "pure",
      "type": "function"
    },
    {
      "inputs": [
        {
          "internalType": "uint16",
          "name": "bucketID",
          "type": "uint16"
        },
        {
          "internalType": "uint32",
          "name": "sigma2TauPpb",
          "type": "uint32"
        }
      ],
      "name": "deltaStarPrecomp",
      "outputs": [
        {
          "internalType": "uint64",
          "name": "",
          "type": "uint64"
        }
      ],
      "stateMutability": "pure",
      "type": "function"
    },
    {
      "inputs": [
        {
          "internalType": "uint8",
          "name": "idx",
          "type": "uint8"
        },
        {
          "internalType": "uint32",
          "name": "scalePpb",
          "type": "uint32"
        }
      ],
      "name": "gammaFromScaleAndIdx",
      "outputs": [
        {
          "internalType": "uint32",
          "name": "",
          "type": "uint32"
        }
      ],
      "stateMutability": "pure",
      "type": "function"
    },
    {
      "inputs": [],
      "name": "gammaHighPpb",
      "outputs": [
        {
          "internalType": "uint32",
          "name": "",
          "type": "uint32"
        }
      ],
      "stateMutability": "pure",
      "type": "function"
    },
    {
      "inputs": [],
      "name": "gammaHighScalePpb",
      "outputs": [
        {
          "internalType": "uint32",
          "name": "",
          "type": "uint32"
        }
      ],
      "stateMutability": "pure",
      "type": "function"
    },
    {
      "inputs": [],
      "name": "gammaLowScalePpb",
      "outputs": [
        {
          "internalType": "uint32",
          "name": "",
          "type": "uint32"
        }
      ],
      "stateMutability": "pure",
      "type": "function"
    },
    {
      "inputs": [],
      "name": "gammaMidPpb",
      "outputs": [
        {
          "internalType": "uint32",
          "name": "",
          "type": "uint32"
        }
      ],
      "stateMutability": "pure",
      "type": "function"
    },
    {
      "inputs": [],
      "name": "gammaMidScalePpb",
      "outputs": [
        {
          "internalType": "uint32",
          "name": "",
          "type": "uint32"
        }
      ],
      "stateMutability": "pure",
      "type": "function"
    },
    {
      "inputs": [
        {
          "internalType": "uint16",
          "name": "bucketID",
          "type": "uint16"
        }
      ],
      "name": "gammaScalePpbOf",
      "outputs": [
        {
          "internalType": "uint32",
          "name": "",
          "type": "uint32"
        }
      ],
      "stateMutability": "pure",
      "type": "function"
    },
    {
      "inputs": [
        {
          "internalType": "uint8",
          "name": "idx",
          "type": "uint8"
        }
      ],
      "name": "invKppbFromIdx",
      "outputs": [
        {
          "internalType": "uint32",
          "name": "",
          "type": "uint32"
        }
      ],
      "stateMutability": "pure",
      "type": "function"
    },
    {
      "inputs": [
        {
          "components": [
            {
              "internalType": "address",
              "name": "asset0",
              "type": "address"
            },
            {
              "internalType": "address",
              "name": "asset1",
              "type": "address"
            },
            {
              "internalType": "address",
              "name": "quoter",
              "type": "address"
            },
            {
              "internalType": "uint256",
              "name": "amount",
              "type": "uint256"
            },
            {
              "internalType": "uint128",
              "name": "asset0Balance",
              "type": "uint128"
            },
            {
              "internalType": "uint128",
              "name": "asset1Balance",
              "type": "uint128"
            },
            {
              "internalType": "uint16",
              "name": "bucketID",
              "type": "uint16"
            },
            {
              "internalType": "bool",
              "name": "zeroForOne",
              "type": "bool"
            },
            {
              "internalType": "uint8",
              "name": "functionFlags",
              "type": "uint8"
            }
          ],
          "internalType": "struct QuoteParams",
          "name": "params",
          "type": "tuple"
        },
        {
          "internalType": "bytes",
          "name": "data",
          "type": "bytes"
        }
      ],
      "name": "quote",
      "outputs": [
        {
          "internalType": "uint256",
          "name": "",
          "type": "uint256"
        }
      ],
      "stateMutability": "view",
      "type": "function"
    },
    {
      "inputs": [
        {
          "components": [
            {
              "internalType": "address",
              "name": "asset0",
              "type": "address"
            },
            {
              "internalType": "address",
              "name": "asset1",
              "type": "address"
            },
            {
              "internalType": "address",
              "name": "quoter",
              "type": "address"
            },
            {
              "internalType": "uint256[]",
              "name": "amount",
              "type": "uint256[]"
            },
            {
              "internalType": "uint128[]",
              "name": "asset0Balances",
              "type": "uint128[]"
            },
            {
              "internalType": "uint128[]",
              "name": "asset1Balances",
              "type": "uint128[]"
            },
            {
              "internalType": "uint16[]",
              "name": "bucketID",
              "type": "uint16[]"
            },
            {
              "internalType": "bool",
              "name": "zeroForOne",
              "type": "bool"
            },
            {
              "internalType": "uint8",
              "name": "functionFlags",
              "type": "uint8"
            }
          ],
          "internalType": "struct QuoteParamsBatch",
          "name": "params",
          "type": "tuple"
        },
        {
          "internalType": "bytes",
          "name": "data",
          "type": "bytes"
        }
      ],
      "name": "quoteBatch",
      "outputs": [
        {
          "internalType": "uint256[]",
          "name": "quotes",
          "type": "uint256[]"
        }
      ],
      "stateMutability": "view",
      "type": "function"
    },
    {
      "inputs": [
        {
          "internalType": "uint16",
          "name": "bucketID",
          "type": "uint16"
        }
      ],
      "name": "requiresSigmaData",
      "outputs": [
        {
          "internalType": "bool",
          "name": "",
          "type": "bool"
        }
      ],
      "stateMutability": "pure",
      "type": "function"
    },
    {
      "inputs": [
        {
          "internalType": "uint16",
          "name": "bucketID",
          "type": "uint16"
        }
      ],
      "name": "sigmaIsFixed",
      "outputs": [
        {
          "internalType": "bool",
          "name": "",
          "type": "bool"
        }
      ],
      "stateMutability": "pure",
      "type": "function"
    },
    {
      "inputs": [
        {
          "internalType": "uint8",
          "name": "idx",
          "type": "uint8"
        },
        {
          "internalType": "uint32",
          "name": "gammaPpb",
          "type": "uint32"
        }
      ],
      "name": "term2ByGammaFromIdx",
      "outputs": [
        {
          "internalType": "uint32",
          "name": "",
          "type": "uint32"
        }
      ],
      "stateMutability": "pure",
      "type": "function"
    }
  ],
  "bytecode": "0x60808060405234601557611ac9908161001a8239f35b5f80fdfe6080806040526004361015610012575f80fd5b5f3560e01c9081630234beb71461082d575080633c1ee1d2146108015780634a42e6ed146107c457806365d8f9e21461019f5780636f96a0a31461079757806372e072791461031157806382e8a97c146102ee5780639b6f3a48146102b4578063abfebfd1146101a4578063b7ec31e11461019f578063ceb5ee6414610185578063d8035700146100f2578063daf67cdd146100ed578063e3463b7a146100ed5763f1ae5ea3146100c1575f80fd5b346100e95760203660031901126100e957602060806100de61085b565b161515604051908152f35b5f80fd5b610a14565b346100e95760a03660031901126100e95761010b61086c565b60243560ff811681036100e9576044359081151582036100e95760643580151581036100e9576084359182151583036100e9576030600f602096169160041b16179261017b575b610171575b610168575b61ffff60405191168152f35b6101001761015c565b9060801790610157565b9160401791610152565b346100e9575f3660031901126100e95760206040515f8152f35b61088f565b346100e957366003190161014081126100e957610120136100e9576040516101cb816108ad565b6004356001600160a01b03811681036100e95781526024356001600160a01b03811681036100e95760208201526044356001600160a01b03811681036100e957604082015260643560608201526084356001600160801b03811681036100e957608082015260a4356001600160801b03811681036100e95760a082015260c43561ffff811681036100e95760c082015260e43580151581036100e95760e08201526101043560ff811681036100e957610100820152610124356001600160401b0381116100e9576020916102a66102ac9236906004016109ce565b90610bce565b604051908152f35b346100e95760403660031901126100e95760206102e06102d261086c565b6102da61087c565b90611349565b63ffffffff60405191168152f35b346100e95760203660031901126100e95760206102e061030c61086c565b61189c565b346100e95760403660031901126100e9576004356001600160401b0381116100e95761012060031982360301126100e95760405161034e816108ad565b61035a8260040161091a565b81526103686024830161091a565b916020820192835261037c6044820161091a565b926040830193845260648201356001600160401b0381116100e9578201366023820112156100e9576004810135906103b38261092e565b916103c160405193846108f9565b808352602060048185019260051b84010101913683116100e957602401905b828210610787575050506060840190815260848301356001600160401b0381116100e9576104149060043691860101610945565b926080850193845260a48101356001600160401b0381116100e95761043f9060043691840101610945565b9060a0860191825260c48101356001600160401b0381116100e957810190366023830112156100e95760048201356104768161092e565b9261048460405194856108f9565b818452602060048186019360051b83010101903682116100e957602401915b81831061076c5750505060c0870191825260e48101359081151582036100e95760e0880191825261010401359160ff831683036100e95761010088019283526024356001600160401b0381116100e9576105049098959836906004016109ce565b938851519761052b6105158a61092e565b996105236040519b8c6108f9565b808b5261092e565b60208a0190601f190136823760208701975f5b8c51805182101561072857908e8989898f9589868080808f958d600160a01b600190039051169c600160a01b600190039051169a600160a01b600190039051169461058891610a52565b5194519061059591610a52565b516001600160801b03169451906105ab91610a52565b516001600160801b03169451906105c191610a52565b5161ffff1694511515955160ff1696604051996105dd8b6108ad565b8a5260208a019081526040808b0192835260608b0193845260808b0194855260a08b0195865260c08b0196875260e08b019788526101008b019889525163abfebfd160e01b815299516001600160a01b0390811660048c01529051811660248b01529051166044890152516064880152516001600160801b03908116608488015290511660a48601525161ffff1660c485015251151560e48401525160ff16610104830152610140610124830152895161014483018190528290808d61016484015e808201610164015f9052601f1990601f011681010361016401823091815a93602094fa801561071d578d925f916106e5575b506106de82600194610a52565b520161053e565b9250506020823d8211610715575b81610700602093836108f9565b810103126100e95790518c91906106de6106d1565b3d91506106f3565b6040513d5f823e3d90fd5b838d604051918291602083019060208452518091526040830191905f5b818110610753575050500390f35b8251845285945060209384019390920191600101610745565b823561ffff811681036100e9578152602092830192016104a3565b81358152602091820191016103e0565b346100e95760203660031901126100e95760206107ba6107b561085b565b610a32565b6040519015158152f35b346100e95760403660031901126100e95760206107f06107e261085b565b6107ea61087c565b90611247565b6001600160401b0360405191168152f35b346100e95760403660031901126100e95760206102e061081f61086c565b61082761087c565b9061181f565b346100e95760203660031901126100e95760209063ffffffff61085661085161085b565b6111fd565b168152f35b6004359061ffff821682036100e957565b6004359060ff821682036100e957565b6024359063ffffffff821682036100e957565b346100e9575f3660031901126100e9576020604051631dcd65008152f35b61012081019081106001600160401b038211176108c957604052565b634e487b7160e01b5f52604160045260245ffd5b61020081019081106001600160401b038211176108c957604052565b90601f801991011681019081106001600160401b038211176108c957604052565b35906001600160a01b03821682036100e957565b6001600160401b0381116108c95760051b60200190565b9080601f830112156100e95781359061095d8261092e565b9261096b60405194856108f9565b82845260208085019360051b8201019182116100e957602001915b8183106109935750505090565b82356001600160801b03811681036100e957815260209283019201610986565b6001600160401b0381116108c957601f01601f191660200190565b81601f820112156100e9578035906109e5826109b3565b926109f360405194856108f9565b828452602083830101116100e957815f926020809301838601378301015290565b346100e9575f3660031901126100e9576020604051633b9aca008152f35b63ffffffff610a40826111fd565b1615610a4d576080161590565b505f90565b8051821015610a665760209160051b010190565b634e487b7160e01b5f52603260045260245ffd5b81601f820112156100e957805190610a91826109b3565b92610a9f60405194856108f9565b828452602083830101116100e957815f9260208093018386015e8301015290565b519060ff821682036100e957565b51906001600160801b03821682036100e957565b519061ffff821682036100e957565b91908201809211610afe57565b634e487b7160e01b5f52601160045260245ffd5b5f198114610afe5760010190565b8115610b2a570490565b634e487b7160e01b5f52601260045260245ffd5b81810292918115918404141715610afe57565b90633b9aca00820291808305633b9aca001490151715610afe57565b81810292915f8212600160ff1b821416610afe578184051490151715610afe57565b8115610b2a57600160ff1b81145f19831416610afe570590565b81810392915f138015828513169184121617610afe57565b91908203918211610afe57565b908051810160a082602083019203126100e95760208201516001600160401b0381116100e957816020610c0392850101610a7a565b5060408201516001600160401b0381116100e957816020610c2692850101610a7a565b5060608201516001600160401b0381116100e957816020610c4992850101610a7a565b5060808201516001600160401b0381116100e957816020610c6c92850101610a7a565b5060a0820151916001600160401b0383116100e957610c8e9201602001610a7a565b805180156111f6578161010091810103126100e957610caf60208201610ac0565b610cbb60408301610ace565b91610cc860608201610ace565b91610cd560808301610ace565b93610ce260a08401610ace565b60c08401516001600160401b038116036100e957610d0f610100610d0860e08701610ae2565b9501610ae2565b955f955f93600186161515806111e4575b6111cf575b50600285161515806111bd575b611197575b5060048416151580611185575b61115f575b506008831615158061114d575b611129575b50801561111f57610d766001600160801b0391600495610b20565b169160e0860191825115155f1461110b5786516020906001600160a01b03165b60405163313ce56760e01b815296879182906001600160a01b03165afa93841561071d575f946110cf575b835160049650156110bc576020888101516001600160a01b03165b60405163313ce56760e01b815297889182906001600160a01b03165afa95861561071d575f96611080575b5060c08801519661ffff881693610e5261ffff600f8b1692610e28886111fd565b96610e338886611349565b955f9160208116151580611075575b15611048575050505b1680610b3e565b90600a820291808304600a1490151715610afe57610e6f8161189c565b946080610e7c828461181f565b9b1615610ff857610e9160039160ff9361181f565b965b60041c161660018103610fe4575060015b610ead84611380565b60808c01516001600160801b03169160a08d01516001600160801b03169c6060019c8d518a51151591610edf95611605565b9163ffffffff1690610ef091610b3e565b633b9aca009004633b9aca009004610f0791610b6d565b610f119082610b6d565b633b9aca009005610f2191610ba9565b6001600160801b03169563ffffffff169063ffffffff1690610f4291610ba9565b9063ffffffff1690818101918212905f13908015821691151617610afe575f8112610fdd575b63ffffffff169384633b9aca0003633b9aca008111610afe57610f936001600160801b0391836113fe565b1694633b9aca00019081633b9aca0011610afe576001600160801b0391610fb9916113fe565b915191169015610fd15750610fce93516117e4565b90565b9250610fce935161179d565b505f610f68565b600203610ff2576002610ea4565b5f610ea4565b505063ffffffff82168181158015611040575b1561101d57505060ff60035f96610e93565b63ffffffff633b9aca0061103560039360ff95610b3e565b0460011c1696610e93565b50801561100b565b6040919293501615158061106a575b611062575b50610e4b565b90505f61105c565b508281161515611057565b508484161515610e42565b9095506020813d6020116110b4575b8161109c602093836108f9565b810103126100e9576110ad90610ac0565b945f610e07565b3d915061108f565b87516020906001600160a01b0316610ddc565b93506020853d602011611103575b816110ea602093836108f9565b810103126100e9576110fd600495610ac0565b93610dc1565b3d91506110dd565b6020878101516001600160a01b0316610d96565b5050505050505f90565b61114791946001600160801b03611141921690610af1565b93610b12565b5f610d5b565b506001600160801b0381161515610d56565b61117e9192956001600160801b03611178921690610af1565b94610b12565b905f610d49565b506001600160801b0381161515610d44565b6111b69193966001600160801b036111b0921690610af1565b95610b12565b915f610d37565b506001600160801b0381161515610d32565b6001600160801b03169650600193505f610d25565b506001600160801b0381161515610d20565b5050505f90565b6101008116610a4d57600481901c60031615610a4d5760061c60011661122557631dcd650090565b633b9aca0090565b9063ffffffff8091169116019063ffffffff8211610afe57565b90600f821690611256836111fd565b906112608361189c565b9363ffffffff83161561133c576080166112e65781633b9aca0061129b6112a59363ffffffff8061129281988a611349565b16911690610b3e565b60011c049361181f565b92169163ffffffff6112b78385610af1565b91169081116112de576112d56112da926001600160401b0394610af1565b610bc1565b1690565b505f92915050565b5091611301836112fb63ffffffff958561181f565b9361181f565b918361130d848461122d565b9116931683116112de5763ffffffff916113269161122d565b160363ffffffff8111610afe5763ffffffff1690565b5050505063ffffffff1690565b9063ffffffff16801561137a57611375633b9aca009163ffffffff61136e8195611957565b1690610b3e565b041690565b50505f90565b5f19633b9aca008209633b9aca008202918280831092039180830392146113f65781600160401b11156113cb57633b9aca00600160401b910990828211900360c01b910360401c1790565b60405162461bcd60e51b815260206004820152600360248201526213d19360ea1b6044820152606490fd5b505060401c90565b5f198282098282029182808310920391808303921461145f5781633b9aca0011156113cb577f88f2cfb83100cb4e69e7c79c58b316e597157d372fb9787e8e47ce423a2e9c6d93633b9aca00910990828211900360f71b910360091c170290565b5050633b9aca0091500490565b5f19600160401b8209918160401b918280851094039380850394146114ee57838211156113cb57600160401b829109600182190182168092046002816003021880820260020302808202600203028082026002030280820260020302808202600203028091026002030293600183805f03040190848311900302920304170290565b50809250156114fb570490565b606460405162461bcd60e51b81526020600482015260046024820152630444956360e41b6044820152fd5b5f1982820990828102928380841093039280840393146115655782600160401b11156113cb57600160401b910990828211900360c01b910360401c1790565b50505060401c90565b915f1982840992828102928380861095039480860395146115e757848311156113cb57829109600182190182168092046002816003021880820260020302808202600203028082026002030280820260020302808202600203028091026002030293600183805f03040190848311900302920304170290565b5050809250156114fb570490565b600160ff1b8114610afe575f0390565b909492919394633b9aca00810290808204633b9aca001490151715610afe578361162e91610b20565b911561172d57633b9aca0061164d846116478785610af1565b96610b3e565b04633b9aca00810290808204633b9aca001490151715610afe5785809361167a6116929661168c94610b20565b808211156117265761168c9082610bc1565b93611a15565b91600381101561171257611704576116ba91905f81126116f557905b5f81126116e757610ba9565b633b9aca0081136116de57633b9ac9ff1981126116d45790565b50633b9ac9ff1990565b50633b9aca0090565b6116f0906115f5565b610ba9565b6116fe906115f5565b906116ae565b61170d91610ba9565b6116ba565b634e487b7160e01b5f52602160045260245ffd5b505f61168c565b92633b9aca00819392930290808204633b9aca001490151715610afe5761168c85611692946117708561176a611764859888610b20565b84610af1565b95610b20565b80881115611788576117829088610bc1565b96611a15565b505f611782565b604d8111610afe57600a0a90565b9092919281156117dc57610fce936001600160801b03926117ce60ff6117c7816117d4961661178f565b931661178f565b9061156e565b91169061146c565b505050505f90565b929083156117dc57610fce936001600160801b0361181260ff61180b8161181a961661178f565b961661178f565b931690611526565b61156e565b9063ffffffff81161561137a57633b9aca0061184d63ffffffff610e4b611847829587611349565b95611957565b04911690620186a0820291808304620186a01490151715610afe576001600160ff1b0381168103610afe5763ffffffff916112da9160011b90610b20565b906010811015610a665760051b0190565b61195263ffffffff9160ff604051916118b4836108dd565b61c3508352620186a060208401526203d09060408401526207a1206060840152620b71b06080840152620f424060a08401526216e36060c0840152621e848060e0840152622dc6c0610100840152624c4b40610120840152627270e06101408401526298968061016084015262e4e1c06101808401526301312d006101a08401526301c9c3806101c08401526302faf0806101e0840152169061188b565b511690565b61195263ffffffff9160ff6040519161196f836108dd565b63773594008352633b9aca0060208401526317d784006040840152630bebc20060608401526307f2815560808401526305f5e10060a08401526303f940ab60c08401526302faf08060e08401526301fca0556101008401526301312d0061012084015262cb7355610140840152629896806101608401526265b9ab610180840152624c4b406101a08401526232dcd56101c0840152621e84806101e0840152169061188b565b9190611a218184610af1565b9182156117dc5760038110156117125780611a715750508160011b9180830560021490151715610afe57611a57611a5c92610b51565b610b8f565b633b9ac9ff198101908113600116610afe5790565b600103611a855750611a57610fce92610b51565b610fce9250611a5790610b5156fea264697066735822122085973884154291b7a40dc82ed5af7ea8ff591cdfaf1994544b7aa1a17970cbb064736f6c634300081e0033",
  "linkReferences": {},
  "deployedLinkReferences": {}
}