{
  "_format": "hh-sol-artifact-1",
  "contractName": "StoicovQuoter",
  "sourceName": "contracts/Peripheral/quoters/real/RealDataBridge/StoicovQuoter.sol",
  "abi": [
    {
      "inputs": [
        {
          "components": [
            {
              "internalType": "address",
              "name": "asset0",
              "type": "address"
            },
            {
              "internalType": "address",
              "name": "asset1",
              "type": "address"
            },
            {
              "internalType": "address",
              "name": "quoter",
              "type": "address"
            },
            {
              "internalType": "uint256",
              "name": "amount",
              "type": "uint256"
            },
            {
              "internalType": "uint128",
              "name": "asset0Balance",
              "type": "uint128"
            },
            {
              "internalType": "uint128",
              "name": "asset1Balance",
              "type": "uint128"
            },
            {
              "internalType": "uint16",
              "name": "bucketID",
              "type": "uint16"
            },
            {
              "internalType": "bool",
              "name": "zeroForOne",
              "type": "bool"
            },
            {
              "internalType": "uint8",
              "name": "functionFlags",
              "type": "uint8"
            }
          ],
          "internalType": "struct QuoteParams",
          "name": "params",
          "type": "tuple"
        },
        {
          "internalType": "bytes",
          "name": "data",
          "type": "bytes"
        }
      ],
      "name": "quote",
      "outputs": [
        {
          "internalType": "uint256",
          "name": "",
          "type": "uint256"
        }
      ],
      "stateMutability": "view",
      "type": "function"
    },
    {
      "inputs": [
        {
          "components": [
            {
              "internalType": "address",
              "name": "asset0",
              "type": "address"
            },
            {
              "internalType": "address",
              "name": "asset1",
              "type": "address"
            },
            {
              "internalType": "address",
              "name": "quoter",
              "type": "address"
            },
            {
              "internalType": "uint256[]",
              "name": "amount",
              "type": "uint256[]"
            },
            {
              "internalType": "uint128[]",
              "name": "asset0Balances",
              "type": "uint128[]"
            },
            {
              "internalType": "uint128[]",
              "name": "asset1Balances",
              "type": "uint128[]"
            },
            {
              "internalType": "uint16[]",
              "name": "bucketID",
              "type": "uint16[]"
            },
            {
              "internalType": "bool",
              "name": "zeroForOne",
              "type": "bool"
            },
            {
              "internalType": "uint8",
              "name": "functionFlags",
              "type": "uint8"
            }
          ],
          "internalType": "struct QuoteParamsBatch",
          "name": "params",
          "type": "tuple"
        },
        {
          "internalType": "bytes",
          "name": "data",
          "type": "bytes"
        }
      ],
      "name": "quoteBatch",
      "outputs": [
        {
          "internalType": "uint256[]",
          "name": "quotes",
          "type": "uint256[]"
        }
      ],
      "stateMutability": "view",
      "type": "function"
    },
    {
      "inputs": [
        {
          "internalType": "uint16",
          "name": "bucketID",
          "type": "uint16"
        }
      ],
      "name": "requiresSigmaData",
      "outputs": [
        {
          "internalType": "bool",
          "name": "",
          "type": "bool"
        }
      ],
      "stateMutability": "pure",
      "type": "function"
    }
  ],
  "bytecode": "0x60808060405234601557611779908161001a8239f35b5f80fdfe6080806040526004361015610012575f80fd5b5f3560e01c9081636f96a0a3146105d75750806372e07279146101515763abfebfd11461003d575f80fd5b3461014d573660031901610140811261014d576101201361014d5760405161006481610608565b6004356001600160a01b038116810361014d5781526024356001600160a01b038116810361014d5760208201526044356001600160a01b038116810361014d57604082015260643560608201526084356001600160801b038116810361014d57608082015260a4356001600160801b038116810361014d5760a082015260c43561ffff8116810361014d5760c082015260e435801515810361014d5760e08201526101043560ff8116810361014d57610100820152610124356001600160401b03811161014d5760209161013f610145923690600401610729565b906108d8565b604051908152f35b5f80fd5b3461014d57604036600319011261014d576004356001600160401b03811161014d57610120600319823603011261014d5760405161018e81610608565b61019a82600401610675565b81526101a860248301610675565b91602082019283526101bc60448201610675565b926040830193845260648201356001600160401b03811161014d5782013660238201121561014d576004810135906101f382610689565b916102016040519384610654565b808352602060048185019260051b840101019136831161014d57602401905b8282106105c7575050506060840190815260848301356001600160401b03811161014d5761025490600436918601016106a0565b926080850193845260a48101356001600160401b03811161014d5761027f90600436918401016106a0565b9060a0860191825260c48101356001600160401b03811161014d578101903660238301121561014d5760048201356102b681610689565b926102c46040519485610654565b818452602060048186019360051b830101019036821161014d57602401915b8183106105ac5750505060c0870191825260e481013590811515820361014d5760e0880191825261010401359160ff8316830361014d5761010088019283526024356001600160401b03811161014d57610344909895983690600401610729565b938851519761036b6103558a610689565b996103636040519b8c610654565b808b52610689565b60208a0190601f190136823760208701975f5b8c51805182101561056857908e8989898f9589868080808f958d600160a01b600190039051169c600160a01b600190039051169a600160a01b60019003905116946103c89161078f565b519451906103d59161078f565b516001600160801b03169451906103eb9161078f565b516001600160801b03169451906104019161078f565b5161ffff1694511515955160ff16966040519961041d8b610608565b8a5260208a019081526040808b0192835260608b0193845260808b0194855260a08b0195865260c08b0196875260e08b019788526101008b019889525163abfebfd160e01b815299516001600160a01b0390811660048c01529051811660248b01529051166044890152516064880152516001600160801b03908116608488015290511660a48601525161ffff1660c485015251151560e48401525160ff16610104830152610140610124830152895161014483018190528290808d61016484015e808201610164015f9052601f1990601f011681010361016401823091815a93602094fa801561055d578d925f91610525575b5061051e8260019461078f565b520161037e565b9250506020823d8211610555575b8161054060209383610654565b8101031261014d5790518c919061051e610511565b3d9150610533565b6040513d5f823e3d90fd5b838d604051918291602083019060208452518091526040830191905f5b818110610593575050500390f35b8251845285945060209384019390920191600101610585565b823561ffff8116810361014d578152602092830192016102e3565b8135815260209182019101610220565b3461014d57602036600319011261014d576004359061ffff8216820361014d5761060260209261076f565b15158152f35b61012081019081106001600160401b0382111761062457604052565b634e487b7160e01b5f52604160045260245ffd5b61020081019081106001600160401b0382111761062457604052565b90601f801991011681019081106001600160401b0382111761062457604052565b35906001600160a01b038216820361014d57565b6001600160401b0381116106245760051b60200190565b9080601f8301121561014d578135906106b882610689565b926106c66040519485610654565b82845260208085019360051b82010191821161014d57602001915b8183106106ee5750505090565b82356001600160801b038116810361014d578152602092830192016106e1565b6001600160401b03811161062457601f01601f191660200190565b81601f8201121561014d578035906107408261070e565b9261074e6040519485610654565b8284526020838301011161014d57815f926020809301838601378301015290565b63ffffffff61077d826111e4565b161561078a576080161590565b505f90565b80518210156107a35760209160051b010190565b634e487b7160e01b5f52603260045260245ffd5b81601f8201121561014d578051906107ce8261070e565b926107dc6040519485610654565b8284526020838301011161014d57815f9260208093018386015e8301015290565b519060ff8216820361014d57565b51906001600160801b038216820361014d57565b519061ffff8216820361014d57565b9190820180921161083b57565b634e487b7160e01b5f52601160045260245ffd5b5f19811461083b5760010190565b8115610867570490565b634e487b7160e01b5f52601260045260245ffd5b8181029291811591840414171561083b57565b81810292915f8212600160ff1b82141661083b57818405149015171561083b57565b81810392915f13801582851316918412161761083b57565b600160ff1b811461083b575f0390565b908051810160a0826020830192031261014d5760208201516001600160401b03811161014d5781602061090d928501016107b7565b5060408201516001600160401b03811161014d57816020610930928501016107b7565b5060608201516001600160401b03811161014d57816020610953928501016107b7565b5060808201516001600160401b03811161014d57816020610976928501016107b7565b5060a0820151916001600160401b03831161014d5761099892016020016107b7565b805180156111dd5781610100918101031261014d576109b9602082016107fd565b906109c66040820161080b565b906109d36060820161080b565b916109e06080830161080b565b906109ed60a0840161080b565b60c08401516001600160401b0381160361014d57610a1a610100610a1360e0870161081f565b950161081f565b925f955f93600189161515806111cb575b6111b6575b50600288161515806111a4575b61117e575b506004871615158061116c575b611146575b5060088616151580611134575b611110575b50801561110657610a816001600160801b039160049561085d565b60e0870151911690156110f25785516020906001600160a01b03165b60405163313ce56760e01b815295869182906001600160a01b03165afa92831561055d575f936110b6575b60e087015160049550156110a3576020878101516001600160a01b03165b60405163313ce56760e01b815296879182906001600160a01b03165afa94851561055d575f95611067575b5060c087015161ffff811693600f821692610b2b866111e4565b98610b368a86611214565b925f916020811615158061105a575b1561102657505050608090925b161580159290610fff5750633b9aca00610b7a63ffffffff610b738661161d565b168061087b565b04925b610b868161161d565b93610b918a836116d3565b998415610fb0576003610ba660ff92856116d3565b985b60041c161660018103610f9c575060015b610bc287611244565b5060a08c01516020808e015160405163313ce56760e01b8152926001600160801b03169190839060049082906001600160a01b03165afa91821561055d578e905f93610f57575b505160405163313ce56760e01b81529190602090839060049082906001600160a01b03165afa90811561055d578a925f92610f14575b5092610c4a936114c7565b9060808d01610c63836001600160801b0383511661082e565b9182610e1957505050505f935b15610dd75750610cbb633b9aca0092610cb66402540be400610c9a63ffffffff610b73889761161d565b049163ffffffff5f88121597885f14610dc857915b169061087b565b61087b565b04049015610db957905b620186a0820291808305620186a0149015171561083b5763ffffffff806001600160801b03610d098296633b9aca00610d02610d13985b8361088e565b05906108b0565b16981691166108b0565b9116905f828201928312911290801582169115161761083b575f8112610db2575b63ffffffff169283633b9aca0003633b9aca00811161083b57610d5f6001600160801b0391836112c2565b1693633b9aca00019081633b9aca001161083b576001600160801b0391610d85916112c2565b60e086015191169015610da357506060610da094015161150e565b90565b92506060610da09401516114c7565b505f610d34565b610dc2906108c8565b90610cc5565b610dd1906108c8565b91610caf565b63ffffffff95869384935090633b9aca00610d0281610e13610d139a9982610e0c6001600160801b03998b610d099a1661087b565b049061088e565b05610cfc565b6003811015610f005760028103610e54575050633b9aca00820291808304633b9aca00149015171561083b57610e4e9161085d565b93610c70565b91925090600103610e8d576001600160801b0390511690633b9aca00820291808304633b9aca00149015171561083b57610e4e9161085d565b517001fffffffffffffffffffffffffffffffe6001600160801b0382169160011b16908082056002149015171561083b57633b9aca00810290808205633b9aca00149015171561083b57600160ff1b81145f1983141661083b5705633b9ac9ff19810190811360011661083b5793610c70565b634e487b7160e01b5f52602160045260245ffd5b925090506020823d602011610f4f575b81610f3160209383610654565b8101031261014d57610c4a92610f478b936107fd565b919093610c3f565b3d9150610f24565b919250506020813d602011610f94575b81610f7460209383610654565b8101031261014d578d916020610f8b6004936107fd565b93919250610c09565b3d9150610f67565b600203610faa576002610bb9565b5f610bb9565b5063ffffffff83168181158015610ff7575b15610fd457505060ff60035f98610ba8565b63ffffffff633b9aca00610fec60039360ff9561087b565b0460011c1698610ba8565b508015610fc2565b61ffff61100d91168061087b565b600a810290808204600a149015171561083b5792610b7d565b604091929593501615158061104d575b611044575b50608090610b52565b9250608061103b565b5061ffff81161515611036565b5061ffff84161515610b45565b9094506020813d60201161109b575b8161108360209383610654565b8101031261014d57611094906107fd565b935f610b11565b3d9150611076565b86516020906001600160a01b0316610ae6565b92506020843d6020116110ea575b816110d160209383610654565b8101031261014d576110e46004946107fd565b92610ac8565b3d91506110c4565b6020868101516001600160a01b0316610a9d565b5050505050505f90565b61112e91946001600160801b0361112892169061082e565b9361084f565b5f610a66565b506001600160801b0381161515610a61565b6111659192956001600160801b0361115f92169061082e565b9461084f565b905f610a54565b506001600160801b0381161515610a4f565b61119d9193966001600160801b0361119792169061082e565b9561084f565b915f610a42565b506001600160801b0381161515610a3d565b6001600160801b03169650600193505f610a30565b506001600160801b0381161515610a2b565b5050505f90565b610100811661078a57600481901c6003161561078a5760061c60011661120c57631dcd650090565b633b9aca0090565b9063ffffffff16801561123e57611239633b9aca009163ffffffff610caf819561155a565b041690565b50505f90565b5f19633b9aca008209633b9aca008202918280831092039180830392146112ba5781600160401b111561128f57633b9aca00600160401b910990828211900360c01b910360401c1790565b60405162461bcd60e51b815260206004820152600360248201526213d19360ea1b6044820152606490fd5b505060401c90565b5f19828209828202918280831092039180830392146113235781633b9aca00111561128f577f88f2cfb83100cb4e69e7c79c58b316e597157d372fb9787e8e47ce423a2e9c6d93633b9aca00910990828211900360f71b910360091c170290565b5050633b9aca0091500490565b5f19600160401b8209918160401b918280851094039380850394146113b2578382111561128f57600160401b829109600182190182168092046002816003021880820260020302808202600203028082026002030280820260020302808202600203028091026002030293600183805f03040190848311900302920304170290565b50809250156113bf570490565b606460405162461bcd60e51b81526020600482015260046024820152630444956360e41b6044820152fd5b5f1982820990828102928380841093039280840393146114295782600160401b111561128f57600160401b910990828211900360c01b910360401c1790565b50505060401c90565b915f1982840992828102928380861095039480860395146114ab578483111561128f57829109600182190182168092046002816003021880820260020302808202600203028082026002030280820260020302808202600203028091026002030293600183805f03040190848311900302920304170290565b5050809250156113bf570490565b604d811161083b57600a0a90565b90929192811561150657610da0936001600160801b03926114f860ff6114f1816114fe96166114b9565b93166114b9565b90611432565b911690611330565b505050505f90565b9290831561150657610da0936001600160801b0361153c60ff6115358161154496166114b9565b96166114b9565b9316906113ea565b611432565b9060108110156107a35760051b0190565b61161863ffffffff9160ff6040519161157283610638565b63773594008352633b9aca0060208401526317d784006040840152630bebc20060608401526307f2815560808401526305f5e10060a08401526303f940ab60c08401526302faf08060e08401526301fca0556101008401526301312d0061012084015262cb7355610140840152629896806101608401526265b9ab610180840152624c4b406101a08401526232dcd56101c0840152621e84806101e08401521690611549565b511690565b61161863ffffffff9160ff6040519161163583610638565b61c3508352620186a060208401526203d09060408401526207a1206060840152620b71b06080840152620f424060a08401526216e36060c0840152621e848060e0840152622dc6c0610100840152624c4b40610120840152627270e06101408401526298968061016084015262e4e1c06101808401526301312d006101a08401526301c9c3806101c08401526302faf0806101e08401521690611549565b9063ffffffff81161561123e57633b9aca0061170163ffffffff610b736116fb829587611214565b9561155a565b04911690620186a0820291808304620186a0149015171561083b576001600160ff1b038116810361083b5763ffffffff9161173f9160011b9061085d565b169056fea2646970667358221220cd0023e2d0b20dcbc8691dc746363a65ffbd5d2a374054f6bd160ec1803bca6964736f6c634300081e0033",
  "linkReferences": {},
  "deployedLinkReferences": {}
}