{
  "_format": "hh-sol-artifact-1",
  "contractName": "RedstoneOnDemandBridgeImpl",
  "sourceName": "contracts/Peripheral/DataBridges/real/RedstoneOnDemandBridgeImpl.sol",
  "abi": [
    {
      "inputs": [
        {
          "internalType": "address",
          "name": "aliasRegistry",
          "type": "address"
        }
      ],
      "stateMutability": "nonpayable",
      "type": "constructor"
    },
    {
      "inputs": [],
      "name": "CalldataMustHaveValidPayload",
      "type": "error"
    },
    {
      "inputs": [],
      "name": "CalldataOverOrUnderFlow",
      "type": "error"
    },
    {
      "inputs": [],
      "name": "CanNotPickMedianOfEmptyArray",
      "type": "error"
    },
    {
      "inputs": [],
      "name": "DataPackageTimestampMustNotBeZero",
      "type": "error"
    },
    {
      "inputs": [],
      "name": "DataPackageTimestampsMustBeEqual",
      "type": "error"
    },
    {
      "inputs": [],
      "name": "DataTimestampCannotBeZero",
      "type": "error"
    },
    {
      "inputs": [],
      "name": "EachSignerMustProvideTheSameValue",
      "type": "error"
    },
    {
      "inputs": [],
      "name": "EmptyCalldataPointersArr",
      "type": "error"
    },
    {
      "inputs": [],
      "name": "GetDataServiceIdNotImplemented",
      "type": "error"
    },
    {
      "inputs": [],
      "name": "IncorrectUnsignedMetadataSize",
      "type": "error"
    },
    {
      "inputs": [
        {
          "internalType": "uint256",
          "name": "receivedSignersCount",
          "type": "uint256"
        },
        {
          "internalType": "uint256",
          "name": "requiredSignersCount",
          "type": "uint256"
        }
      ],
      "name": "InsufficientNumberOfUniqueSigners",
      "type": "error"
    },
    {
      "inputs": [],
      "name": "InvalidCalldataPointer",
      "type": "error"
    },
    {
      "inputs": [
        {
          "internalType": "bytes32",
          "name": "signedHash",
          "type": "bytes32"
        }
      ],
      "name": "InvalidSignature",
      "type": "error"
    },
    {
      "inputs": [],
      "name": "RedstoneOnDemandBridge__BadPrice",
      "type": "error"
    },
    {
      "inputs": [],
      "name": "RedstoneOnDemandBridge__P1Zero",
      "type": "error"
    },
    {
      "inputs": [],
      "name": "RedstonePayloadMustHaveAtLeastOneDataPackage",
      "type": "error"
    },
    {
      "inputs": [
        {
          "internalType": "address",
          "name": "receivedSigner",
          "type": "address"
        }
      ],
      "name": "SignerNotAuthorised",
      "type": "error"
    },
    {
      "inputs": [
        {
          "internalType": "uint256",
          "name": "receivedTimestampSeconds",
          "type": "uint256"
        },
        {
          "internalType": "uint256",
          "name": "blockTimestamp",
          "type": "uint256"
        }
      ],
      "name": "TimestampFromTooLongFuture",
      "type": "error"
    },
    {
      "inputs": [
        {
          "internalType": "uint256",
          "name": "receivedTimestampSeconds",
          "type": "uint256"
        },
        {
          "internalType": "uint256",
          "name": "blockTimestamp",
          "type": "uint256"
        }
      ],
      "name": "TimestampIsTooOld",
      "type": "error"
    },
    {
      "inputs": [],
      "name": "TimestampsMustBeEqual",
      "type": "error"
    },
    {
      "inputs": [
        {
          "internalType": "uint256",
          "name": "valueByteSize",
          "type": "uint256"
        }
      ],
      "name": "TooLargeValueByteSize",
      "type": "error"
    },
    {
      "anonymous": false,
      "inputs": [
        {
          "indexed": false,
          "internalType": "uint256",
          "name": "p0",
          "type": "uint256"
        },
        {
          "indexed": false,
          "internalType": "uint256",
          "name": "p1",
          "type": "uint256"
        },
        {
          "indexed": false,
          "internalType": "uint8",
          "name": "d0",
          "type": "uint8"
        },
        {
          "indexed": false,
          "internalType": "uint8",
          "name": "d1",
          "type": "uint8"
        },
        {
          "indexed": false,
          "internalType": "uint256",
          "name": "spot",
          "type": "uint256"
        },
        {
          "indexed": false,
          "internalType": "uint256",
          "name": "ts",
          "type": "uint256"
        }
      ],
      "name": "DebugValues",
      "type": "event"
    },
    {
      "inputs": [
        {
          "internalType": "uint256[]",
          "name": "values",
          "type": "uint256[]"
        }
      ],
      "name": "aggregateValues",
      "outputs": [
        {
          "internalType": "uint256",
          "name": "",
          "type": "uint256"
        }
      ],
      "stateMutability": "view",
      "type": "function"
    },
    {
      "inputs": [],
      "name": "aliasRegistry",
      "outputs": [
        {
          "internalType": "address",
          "name": "",
          "type": "address"
        }
      ],
      "stateMutability": "view",
      "type": "function"
    },
    {
      "inputs": [],
      "name": "extractTimestampsAndAssertAllAreEqual",
      "outputs": [
        {
          "internalType": "uint256",
          "name": "extractedTimestamp",
          "type": "uint256"
        }
      ],
      "stateMutability": "pure",
      "type": "function"
    },
    {
      "inputs": [
        {
          "internalType": "address",
          "name": "receivedSigner",
          "type": "address"
        }
      ],
      "name": "getAuthorisedSignerIndex",
      "outputs": [
        {
          "internalType": "uint8",
          "name": "",
          "type": "uint8"
        }
      ],
      "stateMutability": "view",
      "type": "function"
    },
    {
      "inputs": [
        {
          "components": [
            {
              "internalType": "address",
              "name": "asset0",
              "type": "address"
            },
            {
              "internalType": "address",
              "name": "asset1",
              "type": "address"
            },
            {
              "internalType": "address",
              "name": "quoter",
              "type": "address"
            },
            {
              "internalType": "uint256",
              "name": "amount",
              "type": "uint256"
            },
            {
              "internalType": "uint128",
              "name": "asset0Balance",
              "type": "uint128"
            },
            {
              "internalType": "uint128",
              "name": "asset1Balance",
              "type": "uint128"
            },
            {
              "internalType": "uint16",
              "name": "bucketID",
              "type": "uint16"
            },
            {
              "internalType": "bool",
              "name": "zeroForOne",
              "type": "bool"
            }
          ],
          "internalType": "struct QuoteParams",
          "name": "params",
          "type": "tuple"
        }
      ],
      "name": "getData",
      "outputs": [
        {
          "internalType": "bytes",
          "name": "",
          "type": "bytes"
        }
      ],
      "stateMutability": "view",
      "type": "function"
    },
    {
      "inputs": [],
      "name": "getDataServiceId",
      "outputs": [
        {
          "internalType": "string",
          "name": "",
          "type": "string"
        }
      ],
      "stateMutability": "view",
      "type": "function"
    },
    {
      "inputs": [],
      "name": "getUniqueSignersThreshold",
      "outputs": [
        {
          "internalType": "uint8",
          "name": "",
          "type": "uint8"
        }
      ],
      "stateMutability": "view",
      "type": "function"
    },
    {
      "inputs": [
        {
          "internalType": "uint256",
          "name": "receivedTimestampMilliseconds",
          "type": "uint256"
        }
      ],
      "name": "validateTimestamp",
      "outputs": [],
      "stateMutability": "view",
      "type": "function"
    }
  ],
  "bytecode": "0x60a034606d57601f6110c938819003918201601f19168301916001600160401b03831184841017607157808492602094604052833981010312606d57516001600160a01b0381168103606d576080526040516110439081610086823960805181818161026b01526106650152f35b5f80fd5b634e487b7160e01b5f52604160045260245ffdfe60806040526004361015610011575f80fd5b5f3560e01c80633bd1104b146100945780633ce142f51461008f578063516fd9a71461008a57806355a547d514610085578063b24ebfcc14610080578063c274583a1461007b578063f50b2efe146100765763f90c492414610071575f80fd5b6104fb565b610483565b61041b565b610380565b61029a565b610256565b610228565b3461012357610100366003190112610123576100b1610180604052565b6100b9610162565b6080526100c4610178565b60a0526100cf61018e565b60c05260643560e0526100e06101a4565b610100526100ec6101ba565b610120526100f86101d0565b610140526101046101e1565b6101605261011f610113610642565b60405191829182610214565b0390f35b5f80fd5b634e487b7160e01b5f52604160045260245ffd5b90601f8019910116810190811067ffffffffffffffff82111761015d57604052565b610127565b600435906001600160a01b038216820361012357565b602435906001600160a01b038216820361012357565b604435906001600160a01b038216820361012357565b608435906001600160801b038216820361012357565b60a435906001600160801b038216820361012357565b60c4359061ffff8216820361012357565b60e43590811515820361012357565b805180835260209291819084018484015e5f828201840152601f01601f1916010190565b9060206102259281815201906101f0565b90565b3461012357602036600319011261012357602061024b610246610162565b61087b565b60ff60405191168152f35b34610123575f366003190112610123576040517f00000000000000000000000000000000000000000000000000000000000000006001600160a01b03168152602090f35b34610123575f366003190112610123575f61ffff6102be6102b9610947565b6109cb565b91169081156103595791905f5b8181106102dd57604051838152602090f35b90916102e8846109f4565b9065ffffffffffff6103026102fc876107ff565b3661086e565b351690811561034a5780610327575060019161031e9195610853565b939291016102cb565b8095910361033b5760019161031e91610853565b63d9d1f46560e01b5f5260045ffd5b630336dc9d60e41b5f5260045ffd5b632154bfcf60e21b5f5260045ffd5b67ffffffffffffffff811161015d5760051b60200190565b346101235760203660031901126101235760043567ffffffffffffffff81116101235736602382011215610123578060040135906103bd82610368565b916103cb604051938461013b565b8083526024602084019160051b8301019136831161012357602401905b82821061040b5761011f6103fb85610bca565b6040519081529081906020820190565b81358152602091820191016103e8565b34610123575f36600319011261012357604051604081019080821067ffffffffffffffff83111761015d5761011f9160405260158152741c99591cdd1bdb994b5c1c9a5b585c9e4b5c1c9bd9605a1b60208201526040519182916020835260208301906101f0565b34610123576020366003190112610123576103e8600435048042105f146104d2574281038181116104cd57603c106104b757005b63b6b0916d60e01b5f526004524260245260445ffd5b6105d9565b8042034281116104cd5760b4106104e557005b630321d0b560e01b5f526004524260245260445ffd5b34610123575f36600319011261012357602060405160038152f35b90816020910312610123575190565b6040513d5f823e3d90fd5b1561053757565b60405162461bcd60e51b815260206004820152600e60248201526d666565644964206d697373696e6760901b6044820152606490fd5b6040516060919061057e838261013b565b6002815291601f1901366020840137565b634e487b7160e01b5f52603260045260245ffd5b8051156105b05760200190565b61058f565b8051600110156105b05760400190565b80518210156105b05760209160051b010190565b634e487b7160e01b5f52601160045260245ffd5b90670de0b6b3a7640000820291808304670de0b6b3a764000014901517156104cd57565b818102929181159184041417156104cd57565b811561062e570490565b634e487b7160e01b5f52601260045260245ffd5b608051604051636fbd6cdf60e11b81526001600160a01b039182166004820152907f000000000000000000000000000000000000000000000000000000000000000016602082602481845afa9081156107d8576106d2925f926107dd575b5060a051604051636fbd6cdf60e11b81526001600160a01b039091166004820152926020918491829081906024820190565b03915afa80156107d85761071c925f916107a9575b50811515806107a0575b6106fa90610530565b61070261056d565b9161070c836105a3565b52610716826105b5565b52610a9a565b90610730610729826105a3565b51916105b5565b519080151580610797575b15610788578115610779576102259161075661075b926105ed565b610624565b6040805160208101929092528181019390935291825260608261013b565b631b0be87b60e11b5f5260045ffd5b630f422c7760e41b5f5260045ffd5b5081151561073b565b508015156106f1565b6107cb915060203d6020116107d1575b6107c3818361013b565b810190610516565b5f6106e7565b503d6107b9565b610525565b60209192506107f890823d84116107d1576107c3818361013b565b91906106a0565b90606882018092116104cd57565b90600282018092116104cd57565b90602082018092116104cd57565b90600d82018092116104cd57565b90604182018092116104cd57565b90604e82018092116104cd57565b919082018092116104cd57565b5f198101919082116104cd57565b919082039182116104cd57565b6001600160a01b038116738bb8f32df04c8b654987daaed53d6b6091e3b77481036108a65750505f90565b73deb22f54738d54976c4c0fe5ce6d408e40d8849981036108c8575050600190565b7351ce04be4b3e32572c4ec9135221d0691ba7d20281036108ea575050600290565b73dd682daec5a90dd295d14da4b0bec9281017b5be810361090c575050600390565b739c5ae89c4af6aa32ce58588dbaf90d18a855b6de0361092c5750600490565b6303b1166f60e61b5f526001600160a01b031660045260245ffd5b6602ed57011e0000601f19360135166602ed57011e0000036109bc57366029116109ad5762ffffff60281936013516600381018091116104cd57600981018091116104cd57366109968261080d565b1161099e5790565b63c30a7bd760e01b5f5260045ffd5b632bcb7bc560e11b5f5260045ffd5b6373bb264f60e11b5f5260045ffd5b90602082018083116104cd5736106109ad5760028201918281116104cd573603601f1901359190565b6109fd90610b89565b602001806020116104cd57610a1191610611565b604e81018091116104cd5790565b90610a2982610368565b610a36604051918261013b565b8281528092610a47601f1991610368565b0190602036910137565b90610a5b82610368565b610a68604051918261013b565b8281528092610a79601f1991610368565b01905f5b828110610a8957505050565b806060602080938501015201610a7d565b5f610aa58251610a1f565b90610ab08351610a1f565b92610abb8151610a51565b946003935f5b8351811015610af257600190610ad687610a1f565b610ae0828b6105c5565b52610aeb818a6105c5565b5001610ac1565b5092959161ffff919450610b076102b9610947565b9216956040519160205f9301935b888410610b30575050505050610b2c929350610e48565b9190565b610b3d9086848985610c81565b9390938015610b7a578a8103610b5d575b50600190856040520192610b15565b9099610b6b57986001610b4e565b63265e23a160e11b5f5260045ffd5b63dfb25a7960e01b5f5260045ffd5b604181018082116104cd5760618201106104cd573603906060198201913683116104cd5760631901918083116104cd573562ffffff16913563ffffffff1690565b6002815114610c3e57805115610c2f57610be381610ec1565b805160011c8151600116610c225761022591610c1582610c0e610c08610c1c95610860565b846105c5565b51926105c5565b5190610853565b60011c90565b610c2b916105c5565b5190565b639e198af960e01b5f5260045ffd5b610c4a610729826105a3565b5181018091116104cd5760011c90565b5f1981146104cd5760010190565b9060405191818352602082840101604052602083013790565b9094939294610c8f84610b89565b939091610c9b8561081b565b610ca59084610611565b610cae90610829565b97610cb8876107ff565b610cc2903661086e565b988080610cce8a610837565b90610cd891610853565b610ce2903661086e565b90610cec91610c68565b60200120610cf988610837565b610d0291610f11565b610d0b9061087b565b60ff1696610d1890610845565b965f945b808610610d3957505050505050505065ffffffffffff9092351690565b9193969990929497610d518b610d56929b989b610853565b61081b565b95610d618b88610fd2565b9790935f5b8c51811015610e3257610d79818e6105c5565b518614610d8857600101610d66565b90988a9896979550610da482959e956001959e9c9d949d6105c5565b516001891b81161580610e1e575b610dc8575b5050505b0195969594939096610d1c565b610e1591610deb610dd9858a6105c5565b51610de4868c6105c5565b51906105c5565b52610dff610df9848a6105c5565b51610c5a565b610e09848a6105c5565b5284891b1791896105c5565b525f8080610db7565b50610e2983896105c5565b51600311610db2565b509750986001919a9896949593509a919a610dbb565b9190610e548351610a1f565b905f5b8451811015610eba576003610e6c82846105c5565b5110610e995780610e88610e82600193886105c5565b51610bca565b610e9282866105c5565b5201610e57565b610ea2916105c5565b51632b13aef560e01b5f52600452600360245260445ffd5b5090925050565b805160051b810160209081019101805b828110610edd57505050565b815b818110610eef5750602001610ed1565b60209082518151808210610f06575b505001610edf565b845281525f80610efe565b9190360360208101359060408101355f1a91601b83141580610fc7575b610fb3577f7fffffffffffffffffffffffffffffff5d576e7357a4501ddfe92f46681b20a08111610fb3576040805186815260ff9490941660208086019190915292359084015260608301525f808052909160809060015afa156107d8575f51916001600160a01b03831615610fa15750565b633335be5d60e11b5f5260045260245ffd5b633335be5d60e11b5f52600485905260245ffd5b50601c831415610f2e565b9190913603913683116104cd578235926021821015610ffa57602001359060200360031b1c90565b506360007e2160e11b5f5260045260245ffdfea2646970667358221220f702e44a8011ddd48cfd3c5c1c2054970b0a25d4895b18a91be2c346fbcd339e64736f6c634300081e0033",
  "linkReferences": {},
  "deployedLinkReferences": {}
}