{
  "_format": "hh-sol-artifact-1",
  "contractName": "TokenAliasRegistry",
  "sourceName": "contracts/Peripheral/DataBridges/real/TokenAliasRegistry.sol",
  "abi": [
    {
      "inputs": [],
      "stateMutability": "nonpayable",
      "type": "constructor"
    },
    {
      "inputs": [],
      "name": "TokenAliasRegistry__NotOwner",
      "type": "error"
    },
    {
      "inputs": [
        {
          "internalType": "address",
          "name": "",
          "type": "address"
        }
      ],
      "name": "chainlinkBase",
      "outputs": [
        {
          "internalType": "address",
          "name": "",
          "type": "address"
        }
      ],
      "stateMutability": "view",
      "type": "function"
    },
    {
      "inputs": [
        {
          "internalType": "address",
          "name": "token",
          "type": "address"
        }
      ],
      "name": "getChainlinkBase",
      "outputs": [
        {
          "internalType": "address",
          "name": "",
          "type": "address"
        }
      ],
      "stateMutability": "view",
      "type": "function"
    },
    {
      "inputs": [
        {
          "internalType": "address",
          "name": "token",
          "type": "address"
        }
      ],
      "name": "getRedstoneDecimals",
      "outputs": [
        {
          "internalType": "uint8",
          "name": "",
          "type": "uint8"
        }
      ],
      "stateMutability": "view",
      "type": "function"
    },
    {
      "inputs": [
        {
          "internalType": "address",
          "name": "token",
          "type": "address"
        }
      ],
      "name": "getRedstoneFeedId",
      "outputs": [
        {
          "internalType": "bytes32",
          "name": "",
          "type": "bytes32"
        }
      ],
      "stateMutability": "view",
      "type": "function"
    },
    {
      "inputs": [],
      "name": "owner",
      "outputs": [
        {
          "internalType": "address",
          "name": "",
          "type": "address"
        }
      ],
      "stateMutability": "view",
      "type": "function"
    },
    {
      "inputs": [
        {
          "internalType": "address",
          "name": "",
          "type": "address"
        }
      ],
      "name": "redstoneDecimals",
      "outputs": [
        {
          "internalType": "uint8",
          "name": "",
          "type": "uint8"
        }
      ],
      "stateMutability": "view",
      "type": "function"
    },
    {
      "inputs": [
        {
          "internalType": "address",
          "name": "",
          "type": "address"
        }
      ],
      "name": "redstoneFeedId",
      "outputs": [
        {
          "internalType": "bytes32",
          "name": "",
          "type": "bytes32"
        }
      ],
      "stateMutability": "view",
      "type": "function"
    },
    {
      "inputs": [
        {
          "internalType": "address",
          "name": "token",
          "type": "address"
        },
        {
          "internalType": "address",
          "name": "base",
          "type": "address"
        }
      ],
      "name": "setChainlinkBase",
      "outputs": [],
      "stateMutability": "nonpayable",
      "type": "function"
    },
    {
      "inputs": [
        {
          "internalType": "address",
          "name": "token",
          "type": "address"
        },
        {
          "internalType": "uint8",
          "name": "dec",
          "type": "uint8"
        }
      ],
      "name": "setRedstoneDecimals",
      "outputs": [],
      "stateMutability": "nonpayable",
      "type": "function"
    },
    {
      "inputs": [
        {
          "internalType": "address",
          "name": "token",
          "type": "address"
        },
        {
          "internalType": "bytes32",
          "name": "id",
          "type": "bytes32"
        }
      ],
      "name": "setRedstoneFeedId",
      "outputs": [],
      "stateMutability": "nonpayable",
      "type": "function"
    }
  ],
  "bytecode": "0x60a080604052346103b557336080527f2a11cb67ca5c7e99dba99b50e02c11472d0f19c22ed5af42a1599a7f57e1c7a480546001600160a01b031990811673eeeeeeeeeeeeeeeeeeeeeeeeeeeeeeeeeeeeeeee179091557ff0b998666205e50af945dcd5198861491334a6162cc24264d9a801634ee07ec88054821673bbbbbbbbbbbbbbbbbbbbbbbbbbbbbbbbbbbbbbbb1790557fc6521c8ea4247e8beb499344e591b9401fb2807ff9997dd598fd9e56c73a264d8054821673a0b86991c6218b36c1d19d4a2e9eb0ce3606eb481790557fa934b07068f5d95a11413ed6d08a4a1122dc4b8c14a6ab2d94f8b279dac630428054821673dac17f958d2ee523a2206206994597c13d831ec71790557f5306b8fbe80b30a74098357ee8e26fad8dc069da9011cca5f0870a0a5982e54180548216736b175474e89094c44da98b954eedeac495271d0f1790557f6da98f1d47bb0bc5549e1497f71ab684f8d693b19b458fbccae05e126d246e908054909116731f9840a85d5af5bf1d1762f925bdaddc4201f9849081179091556208aa8960eb1b7f49e349d4f386739afdf8e55db7675b584d46c3b2a603eef62554e21dc437b5db556242544360e81b7f158cab4f3f3d7fb3fa7c40cadad4cf2a7d7d1541704c6190fb3782e9411c281755635553444360e01b7f84893e0f271e5f8233d24aa85ba38e0d2ed8f0fc8f608c286ccee51e6c35dd6e55631554d11560e21b7f591a3b2777bc31889c69fb5cad740ac457874aa5ce74c0ad08912df8ad7d112c556244414960e81b7f28c420d41601e064fc8cc12b320362ca54019acc8f163ced66d9dc6175c088285562554e4960e81b7f6eb4ff08931ec4fe82ed6eeddf0ef37686dad4f0d9a67a18b27a02560a0f52135560026020527fde032e96a833a2191f55c5766e34554d9b07734477ea9cb69c40158c1078e793805460ff1990811660089081179092557f3459054d09ae8631455b798b2b5d106e17bb4e68a39d2d2a935f5f1b7253988b80548216831790557fb7598821b71eb990d952f174dec3507a6d48dc93be8e23cae785c98ca310bfbb80548216831790557ff4f699a1ef35e64890828cc562d137cceeab28af8455567ef14b6ec385c8e44180548216831790557ff02f5385b52432c1a270c20c346d380219f286755cbd16bede4ce0fb454a472280548216831790555f929092527f8e26ad65a8968434acdb37383cda23018c5945aba6d6e7c8399e7184ccde3617805490921617905561039690816103ba8239608051818181610188015281816102030152818161025c01526102c80152f35b5f80fdfe6080806040526004361015610012575f80fd5b5f3560e01c908163057f9c8114610313575080631c95f6e1146102ad578063375be0031461008a57806348f57536146101185780634f571a5b146102325780638da5cb5b146101ee5780639b26d6e814610157578063a5a8393214610118578063c71bff5e146100c65763df7ad9be1461008a575f80fd5b346100c25760203660031901126100c2576001600160a01b036100ab61034a565b165f526001602052602060405f2054604051908152f35b5f80fd5b346100c25760203660031901126100c2576001600160a01b036100e761034a565b165f52600260205260ff60405f20541680155f146101105750602060085b60ff60405191168152f35b602090610105565b346100c25760203660031901126100c2576001600160a01b0361013961034a565b165f525f602052602060018060a01b0360405f205416604051908152f35b346100c25760403660031901126100c25761017061034a565b6024356001600160a01b03811691908290036100c2577f00000000000000000000000000000000000000000000000000000000000000006001600160a01b031633036101df576001600160a01b03165f90815260208190526040902080546001600160a01b0319169091179055005b63a7e060c360e01b5f5260045ffd5b346100c2575f3660031901126100c2576040517f00000000000000000000000000000000000000000000000000000000000000006001600160a01b03168152602090f35b346100c25760403660031901126100c25761024b61034a565b6024359060ff82168092036100c2577f00000000000000000000000000000000000000000000000000000000000000006001600160a01b031633036101df576001600160a01b03165f908152600260205260409020805460ff19169091179055005b346100c25760403660031901126100c2576102c661034a565b7f00000000000000000000000000000000000000000000000000000000000000006001600160a01b031633036101df576001600160a01b03165f9081526001602052604090206024359055005b346100c25760203660031901126100c2576020906001600160a01b0361033761034a565b165f526002825260ff60405f2054168152f35b600435906001600160a01b03821682036100c25756fea2646970667358221220ea78f64adc4e3d9f78f4dbc734cc7dee6a8c2ebc714454ada30b72410d7d519064736f6c634300081e0033",
  "linkReferences": {},
  "deployedLinkReferences": {}
}