{
  "_format": "hh-sol-artifact-1",
  "contractName": "StoixQuoterSimpleAverage",
  "sourceName": "contracts/Peripheral/quoters/real/RealDataBridge/StoixQuoterSimpleAverage.sol",
  "abi": [
    {
      "inputs": [
        {
          "internalType": "bytes",
          "name": "data",
          "type": "bytes"
        }
      ],
      "name": "_decodePrice",
      "outputs": [
        {
          "internalType": "uint256",
          "name": "price",
          "type": "uint256"
        }
      ],
      "stateMutability": "pure",
      "type": "function"
    },
    {
      "inputs": [
        {
          "components": [
            {
              "internalType": "address",
              "name": "asset0",
              "type": "address"
            },
            {
              "internalType": "address",
              "name": "asset1",
              "type": "address"
            },
            {
              "internalType": "address",
              "name": "quoter",
              "type": "address"
            },
            {
              "internalType": "uint256",
              "name": "amount",
              "type": "uint256"
            },
            {
              "internalType": "uint128",
              "name": "asset0Balance",
              "type": "uint128"
            },
            {
              "internalType": "uint128",
              "name": "asset1Balance",
              "type": "uint128"
            },
            {
              "internalType": "uint16",
              "name": "bucketID",
              "type": "uint16"
            },
            {
              "internalType": "bool",
              "name": "zeroForOne",
              "type": "bool"
            }
          ],
          "internalType": "struct QuoteParams",
          "name": "params",
          "type": "tuple"
        },
        {
          "internalType": "bytes",
          "name": "data",
          "type": "bytes"
        }
      ],
      "name": "quote",
      "outputs": [
        {
          "internalType": "uint256",
          "name": "",
          "type": "uint256"
        }
      ],
      "stateMutability": "nonpayable",
      "type": "function"
    },
    {
      "inputs": [
        {
          "components": [
            {
              "internalType": "address",
              "name": "asset0",
              "type": "address"
            },
            {
              "internalType": "address",
              "name": "asset1",
              "type": "address"
            },
            {
              "internalType": "address",
              "name": "quoter",
              "type": "address"
            },
            {
              "internalType": "uint256[]",
              "name": "amount",
              "type": "uint256[]"
            },
            {
              "internalType": "uint128[]",
              "name": "asset0Balances",
              "type": "uint128[]"
            },
            {
              "internalType": "uint128[]",
              "name": "asset1Balances",
              "type": "uint128[]"
            },
            {
              "internalType": "uint16[]",
              "name": "bucketID",
              "type": "uint16[]"
            },
            {
              "internalType": "bool",
              "name": "zeroForOne",
              "type": "bool"
            }
          ],
          "internalType": "struct QuoteParamsBatch",
          "name": "params",
          "type": "tuple"
        },
        {
          "internalType": "bytes",
          "name": "data",
          "type": "bytes"
        }
      ],
      "name": "quoteBatch",
      "outputs": [
        {
          "internalType": "uint256[]",
          "name": "quotes",
          "type": "uint256[]"
        }
      ],
      "stateMutability": "nonpayable",
      "type": "function"
    }
  ],
  "bytecode": "0x608080604052346015576110be908161001a8239f35b5f80fdfe6080806040526004361015610012575f80fd5b5f3560e01c9081635e3344d0146104a457508063c81d5346146104595763db90d1001461003d575f80fd5b346103d35760403660031901126103d3576004356001600160401b0381116103d35761010060031982360301126103d3576040519061007b8261059d565b610087816004016105ee565b8252610095602482016105ee565b91602081019283526100a9604483016105ee565b926040820193845260648301356001600160401b0381116103d357830192366023850112156103d3576004840135936100e185610663565b946100ef60405196876105cd565b808652602060048188019260051b84010101913683116103d357602401905b828210610449575050506060830193845260848101356001600160401b0381116103d357610142906004369184010161067a565b906080840191825260a48101356001600160401b0381116103d35761016d906004369184010161067a565b9060a0850191825260c48101356001600160401b0381116103d357810190366023830112156103d35760048201356101a481610663565b926101b260405194856105cd565b818452602060048186019360051b83010101903682116103d357602401915b81831061042e5750505060c0860191825260e401359182151583036103d35760e086019283526024356001600160401b0381116103d35761021690369060040161061d565b938751519661023d61022789610663565b986102356040519a8b6105cd565b808a52610663565b602089019190601f19013683375f5b8a519081518110156103ea5782518a518e516001600160a01b039283169491831692169061027b90849061076b565b51838851906102899161076b565b516001600160801b0316848a51906102a09161076b565b516001600160801b031691858c51906102b89161076b565b5161ffff16938d51151595604051986102d08a61059d565b8952602089019081526040808a0192835260608a0193845260808a0194855260a08a0195865260c08a0196875260e08a01978852516305e3344d60e41b815298516001600160a01b0390811660048b01529051811660248a01529051166044880152516064870152516001600160801b03908116608487015290511660a48501525161ffff1660c484015251151560e48301526101206101048301528161037b61012482018b610747565b03823091815a6020945f91f180156103df575f906103a9575b600192506103a2828d61076b565b520161024c565b506020823d82116103d7575b816103c2602093836105cd565b810103126103d35760019151610394565b5f80fd5b3d91506103b5565b6040513d5f823e3d90fd5b838b604051918291602083019060208452518091526040830191905f5b818110610415575050500390f35b8251845285945060209384019390920191600101610407565b823561ffff811681036103d3578152602092830192016101d1565b813581526020918201910161010e565b346103d35760203660031901126103d3576004356001600160401b0381116103d35761048990369060040161061d565b6040818051810103126103d357602080910151604051908152f35b346103d357366003190161012081126103d357610100136103d3576104c88161059d565b6004356001600160a01b03811681036103d35781526024356001600160a01b03811681036103d35760208201526044356001600160a01b03811681036103d357604082015260643560608201526084356001600160801b03811681036103d357608082015260a4356001600160801b03811681036103d35760a082015260c43561ffff811681036103d35760c082015260e43580151581036103d35760e0820152610104356001600160401b0381116103d35760209161058f61059592369060040161061d565b906107e0565b604051908152f35b61010081019081106001600160401b038211176105b957604052565b634e487b7160e01b5f52604160045260245ffd5b90601f801991011681019081106001600160401b038211176105b957604052565b35906001600160a01b03821682036103d357565b6001600160401b0381116105b957601f01601f191660200190565b81601f820112156103d35780359061063482610602565b9261064260405194856105cd565b828452602083830101116103d357815f926020809301838601378301015290565b6001600160401b0381116105b95760051b60200190565b9080601f830112156103d35781359061069282610663565b926106a060405194856105cd565b82845260208085019360051b8201019182116103d357602001915b8183106106c85750505090565b82356001600160801b03811681036103d3578152602092830192016106bb565b81601f820112156103d3578051906106ff82610602565b9261070d60405194856105cd565b828452602083830101116103d357815f9260208093018386015e8301015290565b908160209103126103d3575160ff811681036103d35790565b805180835260209291819084018484015e5f828201840152601f01601f1916010190565b805182101561077f5760209160051b010190565b634e487b7160e01b5f52603260045260245ffd5b5f1981146107a15760010190565b634e487b7160e01b5f52601160045260245ffd5b919082018092116107a157565b81156107cc570490565b634e487b7160e01b5f52601260045260245ffd5b919091825183019260a081602086019503126103d35760208101516001600160401b0381116103d357846020610818928401016106e8565b9360408201516001600160401b0381116103d35781602061083b928501016106e8565b9460608301516001600160401b0381116103d35782602061085e928601016106e8565b9160808401516001600160401b0381116103d357816020610881928701016106e8565b5060a0840151906001600160401b0382116103d35760206108a69260049601016106e8565b845160405163313ce56760e01b81529460209186919082906001600160a01b03165afa9283156103df576004945f94610cce575b5060208681015160405163313ce56760e01b815296879182906001600160a01b03165afa9485156103df575f95610c9d575b506040519761091c60a08a6105cd565b600489526020890160803682375f94604081511015610c0a575b5050604081511015610b77575b50604081511015610ae4575b50604081511015610a4d575b50806109c157506109a693945061099190606060e08501938451151592835f146109ba5780935b156109b25750945b0151610d61565b9051156109a9576109a190610fa3565b611056565b90565b6109a190610ee8565b90509461098a565b8193610982565b5f955f5b828110610a2c5750506109df610a04916109a696976107c2565b91606060e08601948551151592835f14610a255780935b15610a1d5750950151610d61565b915115610a14576109a191610e5b565b6109a191610daa565b90509561098a565b81936109f6565b9096610a45600191610a3e848b61076b565b51906107b5565b9791016109c5565b6020610a74916040518093819263640ea9a360e11b83528460048401526024830190610747565b0381305afa5f9181610ab0575b501561095b57801561095b5790610a9a610aaa92610cef565b610aa4828961076b565b52610793565b5f61095b565b9091506020813d602011610adc575b81610acc602093836105cd565b810103126103d35751905f610a81565b3d9150610abf565b6020610b0b916040518093819263640ea9a360e11b83528460048401526024830190610747565b0381305afa5f9181610b43575b501561094f57801561094f5791610b32610b3c9293610cef565b610aa4828a61076b565b905f61094f565b9091506020813d602011610b6f575b81610b5f602093836105cd565b810103126103d35751905f610b18565b3d9150610b52565b6020610b9e916040518093819263640ea9a360e11b83528460048401526024830190610747565b0381305afa5f9181610bd6575b50156109435780156109435792610bc5610bcf9294610cef565b610aa4828b61076b565b915f610943565b9091506020813d602011610c02575b81610bf2602093836105cd565b810103126103d35751905f610bab565b3d9150610be5565b6020610c31916040518093819263640ea9a360e11b83528460048401526024830190610747565b0381305afa5f9181610c69575b501561093657801561093657610c5691929550610cef565b9089511561077f57526001925f80610936565b9091506020813d602011610c95575b81610c85602093836105cd565b810103126103d35751905f610c3e565b3d9150610c78565b610cc091955060203d602011610cc7575b610cb881836105cd565b81019061072e565b935f61090c565b503d610cae565b610ce891945060203d602011610cc757610cb881836105cd565b925f6108da565b670de0b6b3a76400008110156109a65780156107cc576ec097ce7bc90715b34b9f10000000000490565b60ff6011199116019060ff82116107a157565b60ff166012039060ff82116107a157565b60ff16604d81116107a157600a0a90565b818102929181159184041417156107a157565b60ff821660128114610da45760121115610d8f57610d89610d846109a693610d2c565b610d3d565b90610d4e565b610d9e610d846109a693610d19565b906107c2565b50905090565b80158015610e54575b610e4e577812725dd1d243aba0e75fe645cc4873f9e65afe688c928e1f21811115610e2a57610de282826107c2565b9082156107cc57670de0b6b3a764000090818302928084048314901517156107a1578390068181029181830414901517156107a1576109a692610e24916107c2565b906107b5565b90670de0b6b3a7640000918281029281840414901517156107a1576109a6916107c2565b50505f90565b505f610db3565b905f82158015610ee0575b610ed95781156107cc57815f1904831115610ec15780610ead575090670de0b6b3a7640000610ea68382610e9f6109a696828704610d4e565b9406610d4e565b04906107b5565b634e487b7160e01b81526012600452602490fd5b50610ed590670de0b6b3a764000092610d4e565b0490565b5050505f90565b508115610e66565b80158015610f9c575b610f97577812725dd1d243aba0e75fe645cc4873f9e65afe688c928e1f21811115610f6e5768f3f20b8dfa69d000008104670de0b6b3a764000091828202918083048414901517156107a15768f3f20b8dfa69d0000090068281029281840414901517156107a15768f3f20b8dfa69d000006109a69204906107b5565b670de0b6b3a7640000908181029181830414901517156107a15768f3f20b8dfa69d00000900490565b505f90565b505f610ef1565b8015801561104f575b610f975777010ca672562512a36fb1b7157e14f5fc7799c5333b326f6581111561102657670de0b6b3a7640000810468f3f20b8dfa69d0000091828202918083048414901517156107a157670de0b6b3a764000090068281029281840414901517156107a157670de0b6b3a76400006109a69204906107b5565b68f3f20b8dfa69d00000908181029181830414901517156107a157670de0b6b3a7640000900490565b505f610fac565b60ff821660128114610da4576012111561107957610d9e610d846109a693610d2c565b610d89610d846109a693610d1956fea2646970667358221220d3f1a3f04b24f65c6b917019ac711ec06529084f82a640dd8630145e657c076864736f6c634300081e0033",
  "linkReferences": {},
  "deployedLinkReferences": {}
}